{
    "tests/static/state_tests/stRandom/randomStatetest260Filler.json::randomStatetest260[fork_Cancun-state_test-]": {
        "env": {
            "currentCoinbase": "0xffdbc95d72681375e5dea48af5ddfdd01bae6adb",
            "currentGasLimit": "0x7fffffffffffffff",
            "currentNumber": "0x01",
            "currentTimestamp": "0x03e8",
            "currentRandom": "0x0000000000000000000000000000000000000000000000000000000000020000",
            "currentDifficulty": "0x00",
            "currentBaseFee": "0x0a",
            "currentExcessBlobGas": "0x00"
        },
        "pre": {
            "0x52fb1f3aefd41e5ca531c7536524e80e9b626fb3": {
                "nonce": "0x00",
                "balance": "0x0de0b6b3a7640000",
                "code": "0x",
                "storage": {}
            },
            "0xffdbc95d72681375e5dea48af5ddfdd01bae6adb": {
                "nonce": "0x00",
                "balance": "0x2e",
                "code": "0x6000355415600957005b60203560003555",
                "storage": {}
            },
            "0xffdbc95d72681375e5dea48af5ddfdd01bae6bdb": {
                "nonce": "0x00",
                "balance": "0x00",
                "code": "0x7f000000000000000000000000000000000000000000000000000000000000c3507f0000000000000000000000000000000000000000000000000000000000000001a07ffffffffffffffffffffffffffffffffffffffffffffffffffffffffffffffffe7f000000000000000000000000ffffffffffffffffffffffffffffffffffffffff7f000000000000000000000000000000000000000000000000000000000000c3507f000000000000000000000000000000000000000000000000000000000000c3507f000000000000000000000000000000000000000000000000000000000000c350f36409156a6aa261413b56f20855",
                "storage": {}
            }
        },
        "transaction": {
            "nonce": "0x00",
            "gasPrice": "0x0a",
            "gasLimit": [
                "0x07a120"
            ],
            "to": "0xffdbc95d72681375e5dea48af5ddfdd01bae6bdb",
            "value": [
                "0x690aecf0"
            ],
            "data": [
                "0x7f000000000000000000000000000000000000000000000000000000000000c3507f0000000000000000000000000000000000000000000000000000000000000001a07ffffffffffffffffffffffffffffffffffffffffffffffffffffffffffffffffe7f000000000000000000000000ffffffffffffffffffffffffffffffffffffffff7f000000000000000000000000000000000000000000000000000000000000c3507f000000000000000000000000000000000000000000000000000000000000c3507f000000000000000000000000000000000000000000000000000000000000c350f36409156a6aa261413b56f208"
            ],
            "sender": "0x52fb1f3aefd41e5ca531c7536524e80e9b626fb3",
            "secretKey": "0x1f8f17d7c82d5b6f5837a245ffdbc95d72681375e5dea48af5ddfdd01bae6adb"
        },
        "post": {
            "Cancun": [
                {
                    "hash": "0xe2986eb8b86c9b308cad30eb3d71900e3bbc0fb9c9f116141b2acfa436c7e994",
                    "logs": "0x8ab6ab54cebba2f51cfd362640548ba07b67c17f4f9daa5d67e611d595567620",
                    "txbytes": "0xf9015a800a8307a12094ffdbc95d72681375e5dea48af5ddfdd01bae6bdb84690aecf0b8f57f000000000000000000000000000000000000000000000000000000000000c3507f0000000000000000000000000000000000000000000000000000000000000001a07ffffffffffffffffffffffffffffffffffffffffffffffffffffffffffffffffe7f000000000000000000000000ffffffffffffffffffffffffffffffffffffffff7f000000000000000000000000000000000000000000000000000000000000c3507f000000000000000000000000000000000000000000000000000000000000c3507f000000000000000000000000000000000000000000000000000000000000c350f36409156a6aa261413b56f20825a0324168f0ea00d5b867a3ec786de83e866ee8c13fadee1d7966cc637475265cf3a02e1b73837b7b1cadf9a57fa2fc2b0f9ebb70d0d047d99f72049c084c17561032",
                    "indexes": {
                        "data": 0,
                        "gas": 0,
                        "value": 0
                    },
                    "state": {
                        "0x52fb1f3aefd41e5ca531c7536524e80e9b626fb3": {
                            "nonce": "0x01",
                            "balance": "0x0de0b6b33e142250",
                            "code": "0x",
                            "storage": {}
                        },
                        "0xffdbc95d72681375e5dea48af5ddfdd01bae6adb": {
                            "nonce": "0x00",
                            "balance": "0x2e",
                            "code": "0x6000355415600957005b60203560003555",
                            "storage": {}
                        },
                        "0xffdbc95d72681375e5dea48af5ddfdd01bae6bdb": {
                            "nonce": "0x00",
                            "balance": "0x690aecf0",
                            "code": "0x7f000000000000000000000000000000000000000000000000000000000000c3507f0000000000000000000000000000000000000000000000000000000000000001a07ffffffffffffffffffffffffffffffffffffffffffffffffffffffffffffffffe7f000000000000000000000000ffffffffffffffffffffffffffffffffffffffff7f000000000000000000000000000000000000000000000000000000000000c3507f000000000000000000000000000000000000000000000000000000000000c3507f000000000000000000000000000000000000000000000000000000000000c350f36409156a6aa261413b56f20855",
                            "storage": {}
                        }
                    }
                }
            ]
        },
        "config": {
            "blobSchedule": {
                "Cancun": {
                    "target": "0x03",
                    "max": "0x06",
                    "baseFeeUpdateFraction": "0x32f0ed"
                }
            },
            "chainid": "0x01"
        },
        "_info": {
            "hash": "0xb4dc62de9d88a71e05776e728f98c591dc67660a83356ecea6d763f2e39735c1",
            "comment": "`execution-spec-tests` generated test",
            "filling-transition-tool": "ethereum-spec-evm-resolver 0.0.5",
            "description": "No description available - add a docstring to the python test class or function.",
            "url": "",
            "fixture-format": "state_test",
            "eels-resolution": {
                "git-url": "https://github.com/marioevz/execution-specs.git",
                "branch": "forks/bpo1",
                "commit": "3387e5f4aedfe99becfdc39b444d6371e25e0924"
            }
        }
    },
    "tests/static/state_tests/stRandom/randomStatetest260Filler.json::randomStatetest260[fork_Osaka-state_test-]": {
        "env": {
            "currentCoinbase": "0xffdbc95d72681375e5dea48af5ddfdd01bae6adb",
            "currentGasLimit": "0x7fffffffffffffff",
            "currentNumber": "0x01",
            "currentTimestamp": "0x03e8",
            "currentRandom": "0x0000000000000000000000000000000000000000000000000000000000020000",
            "currentDifficulty": "0x00",
            "currentBaseFee": "0x0a",
            "currentExcessBlobGas": "0x00"
        },
        "pre": {
            "0x52fb1f3aefd41e5ca531c7536524e80e9b626fb3": {
                "nonce": "0x00",
                "balance": "0x0de0b6b3a7640000",
                "code": "0x",
                "storage": {}
            },
            "0xffdbc95d72681375e5dea48af5ddfdd01bae6adb": {
                "nonce": "0x00",
                "balance": "0x2e",
                "code": "0x6000355415600957005b60203560003555",
                "storage": {}
            },
            "0xffdbc95d72681375e5dea48af5ddfdd01bae6bdb": {
                "nonce": "0x00",
                "balance": "0x00",
                "code": "0x7f000000000000000000000000000000000000000000000000000000000000c3507f0000000000000000000000000000000000000000000000000000000000000001a07ffffffffffffffffffffffffffffffffffffffffffffffffffffffffffffffffe7f000000000000000000000000ffffffffffffffffffffffffffffffffffffffff7f000000000000000000000000000000000000000000000000000000000000c3507f000000000000000000000000000000000000000000000000000000000000c3507f000000000000000000000000000000000000000000000000000000000000c350f36409156a6aa261413b56f20855",
                "storage": {}
            }
        },
        "transaction": {
            "nonce": "0x00",
            "gasPrice": "0x0a",
            "gasLimit": [
                "0x07a120"
            ],
            "to": "0xffdbc95d72681375e5dea48af5ddfdd01bae6bdb",
            "value": [
                "0x690aecf0"
            ],
            "data": [
                "0x7f000000000000000000000000000000000000000000000000000000000000c3507f0000000000000000000000000000000000000000000000000000000000000001a07ffffffffffffffffffffffffffffffffffffffffffffffffffffffffffffffffe7f000000000000000000000000ffffffffffffffffffffffffffffffffffffffff7f000000000000000000000000000000000000000000000000000000000000c3507f000000000000000000000000000000000000000000000000000000000000c3507f000000000000000000000000000000000000000000000000000000000000c350f36409156a6aa261413b56f208"
            ],
            "sender": "0x52fb1f3aefd41e5ca531c7536524e80e9b626fb3",
            "secretKey": "0x1f8f17d7c82d5b6f5837a245ffdbc95d72681375e5dea48af5ddfdd01bae6adb"
        },
        "post": {
            "Osaka": [
                {
                    "hash": "0xe2986eb8b86c9b308cad30eb3d71900e3bbc0fb9c9f116141b2acfa436c7e994",
                    "logs": "0x8ab6ab54cebba2f51cfd362640548ba07b67c17f4f9daa5d67e611d595567620",
                    "txbytes": "0xf9015a800a8307a12094ffdbc95d72681375e5dea48af5ddfdd01bae6bdb84690aecf0b8f57f000000000000000000000000000000000000000000000000000000000000c3507f0000000000000000000000000000000000000000000000000000000000000001a07ffffffffffffffffffffffffffffffffffffffffffffffffffffffffffffffffe7f000000000000000000000000ffffffffffffffffffffffffffffffffffffffff7f000000000000000000000000000000000000000000000000000000000000c3507f000000000000000000000000000000000000000000000000000000000000c3507f000000000000000000000000000000000000000000000000000000000000c350f36409156a6aa261413b56f20825a0324168f0ea00d5b867a3ec786de83e866ee8c13fadee1d7966cc637475265cf3a02e1b73837b7b1cadf9a57fa2fc2b0f9ebb70d0d047d99f72049c084c17561032",
                    "indexes": {
                        "data": 0,
                        "gas": 0,
                        "value": 0
                    },
                    "state": {
                        "0x52fb1f3aefd41e5ca531c7536524e80e9b626fb3": {
                            "nonce": "0x01",
                            "balance": "0x0de0b6b33e142250",
                            "code": "0x",
                            "storage": {}
                        },
                        "0xffdbc95d72681375e5dea48af5ddfdd01bae6adb": {
                            "nonce": "0x00",
                            "balance": "0x2e",
                            "code": "0x6000355415600957005b60203560003555",
                            "storage": {}
                        },
                        "0xffdbc95d72681375e5dea48af5ddfdd01bae6bdb": {
                            "nonce": "0x00",
                            "balance": "0x690aecf0",
                            "code": "0x7f000000000000000000000000000000000000000000000000000000000000c3507f0000000000000000000000000000000000000000000000000000000000000001a07ffffffffffffffffffffffffffffffffffffffffffffffffffffffffffffffffe7f000000000000000000000000ffffffffffffffffffffffffffffffffffffffff7f000000000000000000000000000000000000000000000000000000000000c3507f000000000000000000000000000000000000000000000000000000000000c3507f000000000000000000000000000000000000000000000000000000000000c350f36409156a6aa261413b56f20855",
                            "storage": {}
                        }
                    }
                }
            ]
        },
        "config": {
            "blobSchedule": {
                "Cancun": {
                    "target": "0x03",
                    "max": "0x06",
                    "baseFeeUpdateFraction": "0x32f0ed"
                },
                "Prague": {
                    "target": "0x06",
                    "max": "0x09",
                    "baseFeeUpdateFraction": "0x4c6964"
                },
                "Osaka": {
                    "target": "0x06",
                    "max": "0x09",
                    "baseFeeUpdateFraction": "0x4c6964"
                }
            },
            "chainid": "0x01"
        },
        "_info": {
            "hash": "0x94226f6fa10599052263e4a05f826253de642c77095f08acfa71b46c44b87d14",
            "comment": "`execution-spec-tests` generated test",
            "filling-transition-tool": "ethereum-spec-evm-resolver 0.0.5",
            "description": "No description available - add a docstring to the python test class or function.",
            "url": "",
            "fixture-format": "state_test",
            "eels-resolution": {
                "git-url": "https://github.com/marioevz/execution-specs.git",
                "branch": "forks/bpo1",
                "commit": "3387e5f4aedfe99becfdc39b444d6371e25e0924"
            }
        }
    },
    "tests/static/state_tests/stRandom/randomStatetest260Filler.json::randomStatetest260[fork_Prague-state_test-]": {
        "env": {
            "currentCoinbase": "0xffdbc95d72681375e5dea48af5ddfdd01bae6adb",
            "currentGasLimit": "0x7fffffffffffffff",
            "currentNumber": "0x01",
            "currentTimestamp": "0x03e8",
            "currentRandom": "0x0000000000000000000000000000000000000000000000000000000000020000",
            "currentDifficulty": "0x00",
            "currentBaseFee": "0x0a",
            "currentExcessBlobGas": "0x00"
        },
        "pre": {
            "0x52fb1f3aefd41e5ca531c7536524e80e9b626fb3": {
                "nonce": "0x00",
                "balance": "0x0de0b6b3a7640000",
                "code": "0x",
                "storage": {}
            },
            "0xffdbc95d72681375e5dea48af5ddfdd01bae6adb": {
                "nonce": "0x00",
                "balance": "0x2e",
                "code": "0x6000355415600957005b60203560003555",
                "storage": {}
            },
            "0xffdbc95d72681375e5dea48af5ddfdd01bae6bdb": {
                "nonce": "0x00",
                "balance": "0x00",
                "code": "0x7f000000000000000000000000000000000000000000000000000000000000c3507f0000000000000000000000000000000000000000000000000000000000000001a07ffffffffffffffffffffffffffffffffffffffffffffffffffffffffffffffffe7f000000000000000000000000ffffffffffffffffffffffffffffffffffffffff7f000000000000000000000000000000000000000000000000000000000000c3507f000000000000000000000000000000000000000000000000000000000000c3507f000000000000000000000000000000000000000000000000000000000000c350f36409156a6aa261413b56f20855",
                "storage": {}
            }
        },
        "transaction": {
            "nonce": "0x00",
            "gasPrice": "0x0a",
            "gasLimit": [
                "0x07a120"
            ],
            "to": "0xffdbc95d72681375e5dea48af5ddfdd01bae6bdb",
            "value": [
                "0x690aecf0"
            ],
            "data": [
                "0x7f000000000000000000000000000000000000000000000000000000000000c3507f0000000000000000000000000000000000000000000000000000000000000001a07ffffffffffffffffffffffffffffffffffffffffffffffffffffffffffffffffe7f000000000000000000000000ffffffffffffffffffffffffffffffffffffffff7f000000000000000000000000000000000000000000000000000000000000c3507f000000000000000000000000000000000000000000000000000000000000c3507f000000000000000000000000000000000000000000000000000000000000c350f36409156a6aa261413b56f208"
            ],
            "sender": "0x52fb1f3aefd41e5ca531c7536524e80e9b626fb3",
            "secretKey": "0x1f8f17d7c82d5b6f5837a245ffdbc95d72681375e5dea48af5ddfdd01bae6adb"
        },
        "post": {
            "Prague": [
                {
                    "hash": "0xe2986eb8b86c9b308cad30eb3d71900e3bbc0fb9c9f116141b2acfa436c7e994",
                    "logs": "0x8ab6ab54cebba2f51cfd362640548ba07b67c17f4f9daa5d67e611d595567620",
                    "txbytes": "0xf9015a800a8307a12094ffdbc95d72681375e5dea48af5ddfdd01bae6bdb84690aecf0b8f57f000000000000000000000000000000000000000000000000000000000000c3507f0000000000000000000000000000000000000000000000000000000000000001a07ffffffffffffffffffffffffffffffffffffffffffffffffffffffffffffffffe7f000000000000000000000000ffffffffffffffffffffffffffffffffffffffff7f000000000000000000000000000000000000000000000000000000000000c3507f000000000000000000000000000000000000000000000000000000000000c3507f000000000000000000000000000000000000000000000000000000000000c350f36409156a6aa261413b56f20825a0324168f0ea00d5b867a3ec786de83e866ee8c13fadee1d7966cc637475265cf3a02e1b73837b7b1cadf9a57fa2fc2b0f9ebb70d0d047d99f72049c084c17561032",
                    "indexes": {
                        "data": 0,
                        "gas": 0,
                        "value": 0
                    },
                    "state": {
                        "0x52fb1f3aefd41e5ca531c7536524e80e9b626fb3": {
                            "nonce": "0x01",
                            "balance": "0x0de0b6b33e142250",
                            "code": "0x",
                            "storage": {}
                        },
                        "0xffdbc95d72681375e5dea48af5ddfdd01bae6adb": {
                            "nonce": "0x00",
                            "balance": "0x2e",
                            "code": "0x6000355415600957005b60203560003555",
                            "storage": {}
                        },
                        "0xffdbc95d72681375e5dea48af5ddfdd01bae6bdb": {
                            "nonce": "0x00",
                            "balance": "0x690aecf0",
                            "code": "0x7f000000000000000000000000000000000000000000000000000000000000c3507f0000000000000000000000000000000000000000000000000000000000000001a07ffffffffffffffffffffffffffffffffffffffffffffffffffffffffffffffffe7f000000000000000000000000ffffffffffffffffffffffffffffffffffffffff7f000000000000000000000000000000000000000000000000000000000000c3507f000000000000000000000000000000000000000000000000000000000000c3507f000000000000000000000000000000000000000000000000000000000000c350f36409156a6aa261413b56f20855",
                            "storage": {}
                        }
                    }
                }
            ]
        },
        "config": {
            "blobSchedule": {
                "Cancun": {
                    "target": "0x03",
                    "max": "0x06",
                    "baseFeeUpdateFraction": "0x32f0ed"
                },
                "Prague": {
                    "target": "0x06",
                    "max": "0x09",
                    "baseFeeUpdateFraction": "0x4c6964"
                }
            },
            "chainid": "0x01"
        },
        "_info": {
            "hash": "0x97aa95c836cf09aa4d4db5481985223b63cadf973dd079533833331b01907e68",
            "comment": "`execution-spec-tests` generated test",
            "filling-transition-tool": "ethereum-spec-evm-resolver 0.0.5",
            "description": "No description available - add a docstring to the python test class or function.",
            "url": "",
            "fixture-format": "state_test",
            "eels-resolution": {
                "git-url": "https://github.com/marioevz/execution-specs.git",
                "branch": "forks/bpo1",
                "commit": "3387e5f4aedfe99becfdc39b444d6371e25e0924"
            }
        }
    }
}