{
    "tests/static/state_tests/stRandom/randomStatetest215Filler.json::randomStatetest215[fork_Cancun-state_test-]": {
        "env": {
            "currentCoinbase": "0x7a4061676679d967392a8fdcd35b52551920675f",
            "currentGasLimit": "0x7fffffffffffffff",
            "currentNumber": "0x01",
            "currentTimestamp": "0x03e8",
            "currentRandom": "0x0000000000000000000000000000000000000000000000000000000000020000",
            "currentDifficulty": "0x00",
            "currentBaseFee": "0x0a",
            "currentExcessBlobGas": "0x00"
        },
        "pre": {
            "0xb9e7eb41ce2fce2cbc9fecb0781f6cca6ea0a94a": {
                "nonce": "0x00",
                "balance": "0x0de0b6b3a7640000",
                "code": "0x",
                "storage": {}
            },
            "0x7a4061676679d967392a8fdcd35b52551920675f": {
                "nonce": "0x00",
                "balance": "0x2e",
                "code": "0x6000355415600957005b60203560003555",
                "storage": {}
            },
            "0x7a4061676679d967392a8fdcd35b52551920685f": {
                "nonce": "0x00",
                "balance": "0x00",
                "code": "0x7f00000000000000000000000000000000000000000000000000000000000000017f000000000000000000000000ffffffffffffffffffffffffffffffffffffffff7f0000000000000000000000007a4061676679d967392a8fdcd35b52551920675f7f000000000000000000000000ffffffffffffffffffffffffffffffffffffffff7f000000000000000000000000ffffffffffffffffffffffffffffffffffffffff7f000000000000000000000000ffffffffffffffffffffffffffffffffffffffff446f728f4f1065583139780a981510173b9c60005155",
                "storage": {}
            }
        },
        "transaction": {
            "nonce": "0x00",
            "gasPrice": "0x0a",
            "gasLimit": [
                "0x0186a0"
            ],
            "to": "0x7a4061676679d967392a8fdcd35b52551920685f",
            "value": [
                "0x306b9921"
            ],
            "data": [
                "0x7f00000000000000000000000000000000000000000000000000000000000000017f000000000000000000000000ffffffffffffffffffffffffffffffffffffffff7f0000000000000000000000007a4061676679d967392a8fdcd35b52551920675f7f000000000000000000000000ffffffffffffffffffffffffffffffffffffffff7f000000000000000000000000ffffffffffffffffffffffffffffffffffffffff7f000000000000000000000000ffffffffffffffffffffffffffffffffffffffff446f728f4f1065583139780a981510173b9c"
            ],
            "sender": "0xb9e7eb41ce2fce2cbc9fecb0781f6cca6ea0a94a",
            "secretKey": "0xabeb7be9d85e4eb75dd7bfb77a4061676679d967392a8fdcd35b52551920675f"
        },
        "post": {
            "Cancun": [
                {
                    "hash": "0x62c61402de296c2b1f5108dc671264a627a8e213f66dbc7ef297384ae28eef42",
                    "logs": "0x1dcc4de8dec75d7aab85b567b6ccd41ad312451b948a7413f0a142fd40d49347",
                    "txbytes": "0xf9013d800a830186a0947a4061676679d967392a8fdcd35b52551920685f84306b9921b8d87f00000000000000000000000000000000000000000000000000000000000000017f000000000000000000000000ffffffffffffffffffffffffffffffffffffffff7f0000000000000000000000007a4061676679d967392a8fdcd35b52551920675f7f000000000000000000000000ffffffffffffffffffffffffffffffffffffffff7f000000000000000000000000ffffffffffffffffffffffffffffffffffffffff7f000000000000000000000000ffffffffffffffffffffffffffffffffffffffff446f728f4f1065583139780a981510173b9c26a0b9497af007b93f5c14938201992aa7e3e6f0ac169c8fe682bf96bf4d6188301ea02320313712b22f632b98723bd1a14c8d6ddc6dc6f4b5630116c066a9799d5e4f",
                    "indexes": {
                        "data": 0,
                        "gas": 0,
                        "value": 0
                    },
                    "state": {
                        "0xb9e7eb41ce2fce2cbc9fecb0781f6cca6ea0a94a": {
                            "nonce": "0x01",
                            "balance": "0x0de0b6b376f175af",
                            "code": "0x",
                            "storage": {}
                        },
                        "0x7a4061676679d967392a8fdcd35b52551920675f": {
                            "nonce": "0x00",
                            "balance": "0x2e",
                            "code": "0x6000355415600957005b60203560003555",
                            "storage": {}
                        },
                        "0x7a4061676679d967392a8fdcd35b52551920685f": {
                            "nonce": "0x00",
                            "balance": "0x306b9921",
                            "code": "0x7f00000000000000000000000000000000000000000000000000000000000000017f000000000000000000000000ffffffffffffffffffffffffffffffffffffffff7f0000000000000000000000007a4061676679d967392a8fdcd35b52551920675f7f000000000000000000000000ffffffffffffffffffffffffffffffffffffffff7f000000000000000000000000ffffffffffffffffffffffffffffffffffffffff7f000000000000000000000000ffffffffffffffffffffffffffffffffffffffff446f728f4f1065583139780a981510173b9c60005155",
                            "storage": {
                                "0x00": "0x728f4f1065583139780a981510173b9c"
                            }
                        }
                    }
                }
            ]
        },
        "config": {
            "blobSchedule": {
                "Cancun": {
                    "target": "0x03",
                    "max": "0x06",
                    "baseFeeUpdateFraction": "0x32f0ed"
                }
            },
            "chainid": "0x01"
        },
        "_info": {
            "hash": "0xb734f8cb979ab7679989dc3084719cf6373b4687f1c78f271dea6151f720d6a6",
            "comment": "`execution-spec-tests` generated test",
            "filling-transition-tool": "ethereum-spec-evm-resolver 0.0.5",
            "description": "No description available - add a docstring to the python test class or function.",
            "url": "",
            "fixture-format": "state_test",
            "eels-resolution": {
                "git-url": "https://github.com/ethereum/execution-specs.git",
                "branch": "forks/bpos",
                "commit": "7aacb2c54111391af5e98c505d5010b5698a770f"
            }
        }
    },
    "tests/static/state_tests/stRandom/randomStatetest215Filler.json::randomStatetest215[fork_Osaka-state_test-]": {
        "env": {
            "currentCoinbase": "0x7a4061676679d967392a8fdcd35b52551920675f",
            "currentGasLimit": "0x7fffffffffffffff",
            "currentNumber": "0x01",
            "currentTimestamp": "0x03e8",
            "currentRandom": "0x0000000000000000000000000000000000000000000000000000000000020000",
            "currentDifficulty": "0x00",
            "currentBaseFee": "0x0a",
            "currentExcessBlobGas": "0x00"
        },
        "pre": {
            "0xb9e7eb41ce2fce2cbc9fecb0781f6cca6ea0a94a": {
                "nonce": "0x00",
                "balance": "0x0de0b6b3a7640000",
                "code": "0x",
                "storage": {}
            },
            "0x7a4061676679d967392a8fdcd35b52551920675f": {
                "nonce": "0x00",
                "balance": "0x2e",
                "code": "0x6000355415600957005b60203560003555",
                "storage": {}
            },
            "0x7a4061676679d967392a8fdcd35b52551920685f": {
                "nonce": "0x00",
                "balance": "0x00",
                "code": "0x7f00000000000000000000000000000000000000000000000000000000000000017f000000000000000000000000ffffffffffffffffffffffffffffffffffffffff7f0000000000000000000000007a4061676679d967392a8fdcd35b52551920675f7f000000000000000000000000ffffffffffffffffffffffffffffffffffffffff7f000000000000000000000000ffffffffffffffffffffffffffffffffffffffff7f000000000000000000000000ffffffffffffffffffffffffffffffffffffffff446f728f4f1065583139780a981510173b9c60005155",
                "storage": {}
            }
        },
        "transaction": {
            "nonce": "0x00",
            "gasPrice": "0x0a",
            "gasLimit": [
                "0x0186a0"
            ],
            "to": "0x7a4061676679d967392a8fdcd35b52551920685f",
            "value": [
                "0x306b9921"
            ],
            "data": [
                "0x7f00000000000000000000000000000000000000000000000000000000000000017f000000000000000000000000ffffffffffffffffffffffffffffffffffffffff7f0000000000000000000000007a4061676679d967392a8fdcd35b52551920675f7f000000000000000000000000ffffffffffffffffffffffffffffffffffffffff7f000000000000000000000000ffffffffffffffffffffffffffffffffffffffff7f000000000000000000000000ffffffffffffffffffffffffffffffffffffffff446f728f4f1065583139780a981510173b9c"
            ],
            "sender": "0xb9e7eb41ce2fce2cbc9fecb0781f6cca6ea0a94a",
            "secretKey": "0xabeb7be9d85e4eb75dd7bfb77a4061676679d967392a8fdcd35b52551920675f"
        },
        "post": {
            "Osaka": [
                {
                    "hash": "0x62c61402de296c2b1f5108dc671264a627a8e213f66dbc7ef297384ae28eef42",
                    "logs": "0x1dcc4de8dec75d7aab85b567b6ccd41ad312451b948a7413f0a142fd40d49347",
                    "txbytes": "0xf9013d800a830186a0947a4061676679d967392a8fdcd35b52551920685f84306b9921b8d87f00000000000000000000000000000000000000000000000000000000000000017f000000000000000000000000ffffffffffffffffffffffffffffffffffffffff7f0000000000000000000000007a4061676679d967392a8fdcd35b52551920675f7f000000000000000000000000ffffffffffffffffffffffffffffffffffffffff7f000000000000000000000000ffffffffffffffffffffffffffffffffffffffff7f000000000000000000000000ffffffffffffffffffffffffffffffffffffffff446f728f4f1065583139780a981510173b9c26a0b9497af007b93f5c14938201992aa7e3e6f0ac169c8fe682bf96bf4d6188301ea02320313712b22f632b98723bd1a14c8d6ddc6dc6f4b5630116c066a9799d5e4f",
                    "indexes": {
                        "data": 0,
                        "gas": 0,
                        "value": 0
                    },
                    "state": {
                        "0xb9e7eb41ce2fce2cbc9fecb0781f6cca6ea0a94a": {
                            "nonce": "0x01",
                            "balance": "0x0de0b6b376f175af",
                            "code": "0x",
                            "storage": {}
                        },
                        "0x7a4061676679d967392a8fdcd35b52551920675f": {
                            "nonce": "0x00",
                            "balance": "0x2e",
                            "code": "0x6000355415600957005b60203560003555",
                            "storage": {}
                        },
                        "0x7a4061676679d967392a8fdcd35b52551920685f": {
                            "nonce": "0x00",
                            "balance": "0x306b9921",
                            "code": "0x7f00000000000000000000000000000000000000000000000000000000000000017f000000000000000000000000ffffffffffffffffffffffffffffffffffffffff7f0000000000000000000000007a4061676679d967392a8fdcd35b52551920675f7f000000000000000000000000ffffffffffffffffffffffffffffffffffffffff7f000000000000000000000000ffffffffffffffffffffffffffffffffffffffff7f000000000000000000000000ffffffffffffffffffffffffffffffffffffffff446f728f4f1065583139780a981510173b9c60005155",
                            "storage": {
                                "0x00": "0x728f4f1065583139780a981510173b9c"
                            }
                        }
                    }
                }
            ]
        },
        "config": {
            "blobSchedule": {
                "Cancun": {
                    "target": "0x03",
                    "max": "0x06",
                    "baseFeeUpdateFraction": "0x32f0ed"
                },
                "Prague": {
                    "target": "0x06",
                    "max": "0x09",
                    "baseFeeUpdateFraction": "0x4c6964"
                },
                "Osaka": {
                    "target": "0x06",
                    "max": "0x09",
                    "baseFeeUpdateFraction": "0x4c6964"
                }
            },
            "chainid": "0x01"
        },
        "_info": {
            "hash": "0x60d095c7fdac8c6fe7f02adc7757a543afa1a30dbbfb7d5aeb1f344557d323cf",
            "comment": "`execution-spec-tests` generated test",
            "filling-transition-tool": "ethereum-spec-evm-resolver 0.0.5",
            "description": "No description available - add a docstring to the python test class or function.",
            "url": "",
            "fixture-format": "state_test",
            "eels-resolution": {
                "git-url": "https://github.com/ethereum/execution-specs.git",
                "branch": "forks/bpos",
                "commit": "7aacb2c54111391af5e98c505d5010b5698a770f"
            }
        }
    },
    "tests/static/state_tests/stRandom/randomStatetest215Filler.json::randomStatetest215[fork_Prague-state_test-]": {
        "env": {
            "currentCoinbase": "0x7a4061676679d967392a8fdcd35b52551920675f",
            "currentGasLimit": "0x7fffffffffffffff",
            "currentNumber": "0x01",
            "currentTimestamp": "0x03e8",
            "currentRandom": "0x0000000000000000000000000000000000000000000000000000000000020000",
            "currentDifficulty": "0x00",
            "currentBaseFee": "0x0a",
            "currentExcessBlobGas": "0x00"
        },
        "pre": {
            "0xb9e7eb41ce2fce2cbc9fecb0781f6cca6ea0a94a": {
                "nonce": "0x00",
                "balance": "0x0de0b6b3a7640000",
                "code": "0x",
                "storage": {}
            },
            "0x7a4061676679d967392a8fdcd35b52551920675f": {
                "nonce": "0x00",
                "balance": "0x2e",
                "code": "0x6000355415600957005b60203560003555",
                "storage": {}
            },
            "0x7a4061676679d967392a8fdcd35b52551920685f": {
                "nonce": "0x00",
                "balance": "0x00",
                "code": "0x7f00000000000000000000000000000000000000000000000000000000000000017f000000000000000000000000ffffffffffffffffffffffffffffffffffffffff7f0000000000000000000000007a4061676679d967392a8fdcd35b52551920675f7f000000000000000000000000ffffffffffffffffffffffffffffffffffffffff7f000000000000000000000000ffffffffffffffffffffffffffffffffffffffff7f000000000000000000000000ffffffffffffffffffffffffffffffffffffffff446f728f4f1065583139780a981510173b9c60005155",
                "storage": {}
            }
        },
        "transaction": {
            "nonce": "0x00",
            "gasPrice": "0x0a",
            "gasLimit": [
                "0x0186a0"
            ],
            "to": "0x7a4061676679d967392a8fdcd35b52551920685f",
            "value": [
                "0x306b9921"
            ],
            "data": [
                "0x7f00000000000000000000000000000000000000000000000000000000000000017f000000000000000000000000ffffffffffffffffffffffffffffffffffffffff7f0000000000000000000000007a4061676679d967392a8fdcd35b52551920675f7f000000000000000000000000ffffffffffffffffffffffffffffffffffffffff7f000000000000000000000000ffffffffffffffffffffffffffffffffffffffff7f000000000000000000000000ffffffffffffffffffffffffffffffffffffffff446f728f4f1065583139780a981510173b9c"
            ],
            "sender": "0xb9e7eb41ce2fce2cbc9fecb0781f6cca6ea0a94a",
            "secretKey": "0xabeb7be9d85e4eb75dd7bfb77a4061676679d967392a8fdcd35b52551920675f"
        },
        "post": {
            "Prague": [
                {
                    "hash": "0x62c61402de296c2b1f5108dc671264a627a8e213f66dbc7ef297384ae28eef42",
                    "logs": "0x1dcc4de8dec75d7aab85b567b6ccd41ad312451b948a7413f0a142fd40d49347",
                    "txbytes": "0xf9013d800a830186a0947a4061676679d967392a8fdcd35b52551920685f84306b9921b8d87f00000000000000000000000000000000000000000000000000000000000000017f000000000000000000000000ffffffffffffffffffffffffffffffffffffffff7f0000000000000000000000007a4061676679d967392a8fdcd35b52551920675f7f000000000000000000000000ffffffffffffffffffffffffffffffffffffffff7f000000000000000000000000ffffffffffffffffffffffffffffffffffffffff7f000000000000000000000000ffffffffffffffffffffffffffffffffffffffff446f728f4f1065583139780a981510173b9c26a0b9497af007b93f5c14938201992aa7e3e6f0ac169c8fe682bf96bf4d6188301ea02320313712b22f632b98723bd1a14c8d6ddc6dc6f4b5630116c066a9799d5e4f",
                    "indexes": {
                        "data": 0,
                        "gas": 0,
                        "value": 0
                    },
                    "state": {
                        "0xb9e7eb41ce2fce2cbc9fecb0781f6cca6ea0a94a": {
                            "nonce": "0x01",
                            "balance": "0x0de0b6b376f175af",
                            "code": "0x",
                            "storage": {}
                        },
                        "0x7a4061676679d967392a8fdcd35b52551920675f": {
                            "nonce": "0x00",
                            "balance": "0x2e",
                            "code": "0x6000355415600957005b60203560003555",
                            "storage": {}
                        },
                        "0x7a4061676679d967392a8fdcd35b52551920685f": {
                            "nonce": "0x00",
                            "balance": "0x306b9921",
                            "code": "0x7f00000000000000000000000000000000000000000000000000000000000000017f000000000000000000000000ffffffffffffffffffffffffffffffffffffffff7f0000000000000000000000007a4061676679d967392a8fdcd35b52551920675f7f000000000000000000000000ffffffffffffffffffffffffffffffffffffffff7f000000000000000000000000ffffffffffffffffffffffffffffffffffffffff7f000000000000000000000000ffffffffffffffffffffffffffffffffffffffff446f728f4f1065583139780a981510173b9c60005155",
                            "storage": {
                                "0x00": "0x728f4f1065583139780a981510173b9c"
                            }
                        }
                    }
                }
            ]
        },
        "config": {
            "blobSchedule": {
                "Cancun": {
                    "target": "0x03",
                    "max": "0x06",
                    "baseFeeUpdateFraction": "0x32f0ed"
                },
                "Prague": {
                    "target": "0x06",
                    "max": "0x09",
                    "baseFeeUpdateFraction": "0x4c6964"
                }
            },
            "chainid": "0x01"
        },
        "_info": {
            "hash": "0xc5e1b518a4701489b249433a459682c607c089053bafcdce52bfac815c839c28",
            "comment": "`execution-spec-tests` generated test",
            "filling-transition-tool": "ethereum-spec-evm-resolver 0.0.5",
            "description": "No description available - add a docstring to the python test class or function.",
            "url": "",
            "fixture-format": "state_test",
            "eels-resolution": {
                "git-url": "https://github.com/ethereum/execution-specs.git",
                "branch": "forks/bpos",
                "commit": "7aacb2c54111391af5e98c505d5010b5698a770f"
            }
        }
    }
}