{
    "tests/static/state_tests/stRandom/randomStatetest178Filler.json::randomStatetest178[fork_Cancun-state_test-]": {
        "env": {
            "currentCoinbase": "0xd0a50b1f65f352a93fe9187e7de4159883b51f8a",
            "currentGasLimit": "0x7fffffffffffffff",
            "currentNumber": "0x01",
            "currentTimestamp": "0x03e8",
            "currentRandom": "0x0000000000000000000000000000000000000000000000000000000000020000",
            "currentDifficulty": "0x00",
            "currentBaseFee": "0x0a",
            "currentExcessBlobGas": "0x00"
        },
        "pre": {
            "0x5715d7994dfdee1ecd008f8d34d78d1a08ead620": {
                "nonce": "0x00",
                "balance": "0x0de0b6b3a7640000",
                "code": "0x",
                "storage": {}
            },
            "0xd0a50b1f65f352a93fe9187e7de4159883b51f8a": {
                "nonce": "0x00",
                "balance": "0x2e",
                "code": "0x6000355415600957005b60203560003555",
                "storage": {}
            },
            "0xd0a50b1f65f352a93fe9187e7de4159883b5208a": {
                "nonce": "0x00",
                "balance": "0x00",
                "code": "0x7d342beabe599e4bc177fd97d36df48d50650ba6129a9a83d4cf809ec21452357c620167f530c3265be9887f6e5b8186decdc00a6a801e5f56dd8d9d36a4806dbccc299e4bbf46ad577e25b5b1fc76b6999cb23a6a03c4035e36b8494135ee170647395da00b6e0a64c43f3358b8bdcf593c89fb70b865ef153b5195c77959256beb4f932095eb8ac80bc2c050f6f550a362aac77f5c4b197151df039d64b77dca22eb8fd4b8cf50fb85a36f1d909d1919a47fe97de5526726b4a47b866b7b13471056439457cd7cbc5060d978056ff5dd24a1f49e50b9f5924f473b2dc5306d67054ca575d0603e616291a3601460106009601f6338a57ddc73d0a50b1f65f352a93fe9187e7de4159883b5208a630e3319c8f133",
                "storage": {}
            }
        },
        "transaction": {
            "nonce": "0x00",
            "gasPrice": "0x0a",
            "gasLimit": [
                "0x38c2a77b"
            ],
            "to": "0xd0a50b1f65f352a93fe9187e7de4159883b5208a",
            "value": [
                "0x6f33bb2d"
            ],
            "data": [
                "0x66fd78520a4acd897a6e29cf1b15f576b05a2bc0c18bb93a759d3f5e1ac5d34ba1e261c70b7afd59945da98cc373eac6aa543bae2e6726e3ff03ad2e788dc33f3b736ef736637d8ac680281bb29884e641473063e58e7318f5f4cbade311c02eed1c323c19bba7df4729406464b42ed0cb6d0189be83857fb09713ae69e7d2d472e6d85d23920625c84c39489fc80d272868f40c64cc6cb93ea5741d1918dfc8f61086b1b0637390a1934b637c37ec94877d3ea763b20b9e04fa589f30da18f1565bcf15ad38bc735b9d45b5d963cadd77e9e3db27853e7462a6417a4ac9af38f967a198c6f50deb53634bcbbe9c6a83a7357847acc4f6360fa46e43595a8936969798890170a6874b4e67391c228e9d0a754f68635d505c3f9a8c2555728626e286db52177c2228fb04d4b702bea78df3747d6fa1079394222b8d2a0dfc34ce6d9e5664062fa8977526ced3516147e12a7b9e36f6628dd9efe320bef809146e8fad97d5aedf559bcc15442b1fd347758332cb1d4bb96471a01de009dc175e3eae40d189755a7c1f46c55d3353af6fd0ee638735594b4bb2e6aa99fdbc96508431f421dd770b6379f9b5cbee55423a23c5538390612dc07c752c39f1c87a02777b0fa261dd883d49b2ae5c02c6e81bd0a53ba5d53e12530485664f77811ffaca4c688d18d6122f3a564151676f40f70e45da4fe562355ba17d36458de5f760c8148a11b1fece135e184d2dbf9ecf019d634d8498ae6c6862431f356e1940bc7bb1a252ece1b1605e467f328c79bb45440e29a9444f1948f3737dc02ec2c10862323af3bae0db487768f3aa49fb0967d7eb138302bcb9cedb6b327f4d35a39cf561f1ee73c294825a5de76bd6bf707c5a660e3a417b6ac0586e80ecb6300ea61a618b628d8fcc6c80a37fbfda4e162006259f39441a81fd310c9a323be96b826199149ebdb88ea3e87df96d06c71959b65c4a3e73b50da0a67590625ad154729d9a0a585ba3fc028fc342115f2308566e69cd557f7a7a73474bae3846016f5281b41609a85ee1b4244652d5c1360c9d30fe27dd2d62b415d06a278aafd0816e734b76a3500869747b893809a7c2a185836da26ef253e0a0de429e617a82f8f17f055b1b67fe7366d9a5a491fb47f997937d38e7e8d4cbe8fa227c8b70f8a70e7b667883e393d677c86a9c8ec7144c61cf62e2403893"
            ],
            "sender": "0x5715d7994dfdee1ecd008f8d34d78d1a08ead620",
            "secretKey": "0x11d5c487544d0ad0d45e6ad0d0a50b1f65f352a93fe9187e7de4159883b51f8a"
        },
        "post": {
            "Cancun": [
                {
                    "hash": "0x9ef15457f2d547d453b2e89c218625d468a47cb69a88085c260b5d22f9cc93fa",
                    "logs": "0x1871851b13748f25e2cdd953f2e6051fa3e91e049693c05258068458543fc014",
                    "txbytes": "0xf903bc800a8438c2a77b94d0a50b1f65f352a93fe9187e7de4159883b5208a846f33bb2db9035566fd78520a4acd897a6e29cf1b15f576b05a2bc0c18bb93a759d3f5e1ac5d34ba1e261c70b7afd59945da98cc373eac6aa543bae2e6726e3ff03ad2e788dc33f3b736ef736637d8ac680281bb29884e641473063e58e7318f5f4cbade311c02eed1c323c19bba7df4729406464b42ed0cb6d0189be83857fb09713ae69e7d2d472e6d85d23920625c84c39489fc80d272868f40c64cc6cb93ea5741d1918dfc8f61086b1b0637390a1934b637c37ec94877d3ea763b20b9e04fa589f30da18f1565bcf15ad38bc735b9d45b5d963cadd77e9e3db27853e7462a6417a4ac9af38f967a198c6f50deb53634bcbbe9c6a83a7357847acc4f6360fa46e43595a8936969798890170a6874b4e67391c228e9d0a754f68635d505c3f9a8c2555728626e286db52177c2228fb04d4b702bea78df3747d6fa1079394222b8d2a0dfc34ce6d9e5664062fa8977526ced3516147e12a7b9e36f6628dd9efe320bef809146e8fad97d5aedf559bcc15442b1fd347758332cb1d4bb96471a01de009dc175e3eae40d189755a7c1f46c55d3353af6fd0ee638735594b4bb2e6aa99fdbc96508431f421dd770b6379f9b5cbee55423a23c5538390612dc07c752c39f1c87a02777b0fa261dd883d49b2ae5c02c6e81bd0a53ba5d53e12530485664f77811ffaca4c688d18d6122f3a564151676f40f70e45da4fe562355ba17d36458de5f760c8148a11b1fece135e184d2dbf9ecf019d634d8498ae6c6862431f356e1940bc7bb1a252ece1b1605e467f328c79bb45440e29a9444f1948f3737dc02ec2c10862323af3bae0db487768f3aa49fb0967d7eb138302bcb9cedb6b327f4d35a39cf561f1ee73c294825a5de76bd6bf707c5a660e3a417b6ac0586e80ecb6300ea61a618b628d8fcc6c80a37fbfda4e162006259f39441a81fd310c9a323be96b826199149ebdb88ea3e87df96d06c71959b65c4a3e73b50da0a67590625ad154729d9a0a585ba3fc028fc342115f2308566e69cd557f7a7a73474bae3846016f5281b41609a85ee1b4244652d5c1360c9d30fe27dd2d62b415d06a278aafd0816e734b76a3500869747b893809a7c2a185836da26ef253e0a0de429e617a82f8f17f055b1b67fe7366d9a5a491fb47f997937d38e7e8d4cbe8fa227c8b70f8a70e7b667883e393d677c86a9c8ec7144c61cf62e240389326a04e9323c5badef4cdb1d3250015190e41bb8aecef457e98e4e85a895c2e4b909ea068d9757354d6d80e1b26fcf74324cbc60c36515225cab00817a5494199288a3a",
                    "indexes": {
                        "data": 0,
                        "gas": 0,
                        "value": 0
                    },
                    "state": {
                        "0x5715d7994dfdee1ecd008f8d34d78d1a08ead620": {
                            "nonce": "0x01",
                            "balance": "0x0de0b6b335761691",
                            "code": "0x",
                            "storage": {}
                        },
                        "0xd0a50b1f65f352a93fe9187e7de4159883b51f8a": {
                            "nonce": "0x00",
                            "balance": "0x2e",
                            "code": "0x6000355415600957005b60203560003555",
                            "storage": {}
                        },
                        "0xd0a50b1f65f352a93fe9187e7de4159883b5208a": {
                            "nonce": "0x00",
                            "balance": "0x6f33bb2d",
                            "code": "0x7d342beabe599e4bc177fd97d36df48d50650ba6129a9a83d4cf809ec21452357c620167f530c3265be9887f6e5b8186decdc00a6a801e5f56dd8d9d36a4806dbccc299e4bbf46ad577e25b5b1fc76b6999cb23a6a03c4035e36b8494135ee170647395da00b6e0a64c43f3358b8bdcf593c89fb70b865ef153b5195c77959256beb4f932095eb8ac80bc2c050f6f550a362aac77f5c4b197151df039d64b77dca22eb8fd4b8cf50fb85a36f1d909d1919a47fe97de5526726b4a47b866b7b13471056439457cd7cbc5060d978056ff5dd24a1f49e50b9f5924f473b2dc5306d67054ca575d0603e616291a3601460106009601f6338a57ddc73d0a50b1f65f352a93fe9187e7de4159883b5208a630e3319c8f133",
                            "storage": {}
                        }
                    }
                }
            ]
        },
        "config": {
            "blobSchedule": {
                "Cancun": {
                    "target": "0x03",
                    "max": "0x06",
                    "baseFeeUpdateFraction": "0x32f0ed"
                }
            },
            "chainid": "0x01"
        },
        "_info": {
            "hash": "0xf319c4ed095f789d58f162e817e494bb780ee4ef7f057bbe124bd543df235efc",
            "comment": "`execution-spec-tests` generated test",
            "filling-transition-tool": "ethereum-spec-evm-resolver 0.0.5",
            "description": "No description available - add a docstring to the python test class or function.",
            "url": "",
            "fixture-format": "state_test",
            "eels-resolution": {
                "git-url": "https://github.com/marioevz/execution-specs.git",
                "branch": "forks/bpo1",
                "commit": "3387e5f4aedfe99becfdc39b444d6371e25e0924"
            }
        }
    },
    "tests/static/state_tests/stRandom/randomStatetest178Filler.json::randomStatetest178[fork_Prague-state_test-]": {
        "env": {
            "currentCoinbase": "0xd0a50b1f65f352a93fe9187e7de4159883b51f8a",
            "currentGasLimit": "0x7fffffffffffffff",
            "currentNumber": "0x01",
            "currentTimestamp": "0x03e8",
            "currentRandom": "0x0000000000000000000000000000000000000000000000000000000000020000",
            "currentDifficulty": "0x00",
            "currentBaseFee": "0x0a",
            "currentExcessBlobGas": "0x00"
        },
        "pre": {
            "0x5715d7994dfdee1ecd008f8d34d78d1a08ead620": {
                "nonce": "0x00",
                "balance": "0x0de0b6b3a7640000",
                "code": "0x",
                "storage": {}
            },
            "0xd0a50b1f65f352a93fe9187e7de4159883b51f8a": {
                "nonce": "0x00",
                "balance": "0x2e",
                "code": "0x6000355415600957005b60203560003555",
                "storage": {}
            },
            "0xd0a50b1f65f352a93fe9187e7de4159883b5208a": {
                "nonce": "0x00",
                "balance": "0x00",
                "code": "0x7d342beabe599e4bc177fd97d36df48d50650ba6129a9a83d4cf809ec21452357c620167f530c3265be9887f6e5b8186decdc00a6a801e5f56dd8d9d36a4806dbccc299e4bbf46ad577e25b5b1fc76b6999cb23a6a03c4035e36b8494135ee170647395da00b6e0a64c43f3358b8bdcf593c89fb70b865ef153b5195c77959256beb4f932095eb8ac80bc2c050f6f550a362aac77f5c4b197151df039d64b77dca22eb8fd4b8cf50fb85a36f1d909d1919a47fe97de5526726b4a47b866b7b13471056439457cd7cbc5060d978056ff5dd24a1f49e50b9f5924f473b2dc5306d67054ca575d0603e616291a3601460106009601f6338a57ddc73d0a50b1f65f352a93fe9187e7de4159883b5208a630e3319c8f133",
                "storage": {}
            }
        },
        "transaction": {
            "nonce": "0x00",
            "gasPrice": "0x0a",
            "gasLimit": [
                "0x38c2a77b"
            ],
            "to": "0xd0a50b1f65f352a93fe9187e7de4159883b5208a",
            "value": [
                "0x6f33bb2d"
            ],
            "data": [
                "0x66fd78520a4acd897a6e29cf1b15f576b05a2bc0c18bb93a759d3f5e1ac5d34ba1e261c70b7afd59945da98cc373eac6aa543bae2e6726e3ff03ad2e788dc33f3b736ef736637d8ac680281bb29884e641473063e58e7318f5f4cbade311c02eed1c323c19bba7df4729406464b42ed0cb6d0189be83857fb09713ae69e7d2d472e6d85d23920625c84c39489fc80d272868f40c64cc6cb93ea5741d1918dfc8f61086b1b0637390a1934b637c37ec94877d3ea763b20b9e04fa589f30da18f1565bcf15ad38bc735b9d45b5d963cadd77e9e3db27853e7462a6417a4ac9af38f967a198c6f50deb53634bcbbe9c6a83a7357847acc4f6360fa46e43595a8936969798890170a6874b4e67391c228e9d0a754f68635d505c3f9a8c2555728626e286db52177c2228fb04d4b702bea78df3747d6fa1079394222b8d2a0dfc34ce6d9e5664062fa8977526ced3516147e12a7b9e36f6628dd9efe320bef809146e8fad97d5aedf559bcc15442b1fd347758332cb1d4bb96471a01de009dc175e3eae40d189755a7c1f46c55d3353af6fd0ee638735594b4bb2e6aa99fdbc96508431f421dd770b6379f9b5cbee55423a23c5538390612dc07c752c39f1c87a02777b0fa261dd883d49b2ae5c02c6e81bd0a53ba5d53e12530485664f77811ffaca4c688d18d6122f3a564151676f40f70e45da4fe562355ba17d36458de5f760c8148a11b1fece135e184d2dbf9ecf019d634d8498ae6c6862431f356e1940bc7bb1a252ece1b1605e467f328c79bb45440e29a9444f1948f3737dc02ec2c10862323af3bae0db487768f3aa49fb0967d7eb138302bcb9cedb6b327f4d35a39cf561f1ee73c294825a5de76bd6bf707c5a660e3a417b6ac0586e80ecb6300ea61a618b628d8fcc6c80a37fbfda4e162006259f39441a81fd310c9a323be96b826199149ebdb88ea3e87df96d06c71959b65c4a3e73b50da0a67590625ad154729d9a0a585ba3fc028fc342115f2308566e69cd557f7a7a73474bae3846016f5281b41609a85ee1b4244652d5c1360c9d30fe27dd2d62b415d06a278aafd0816e734b76a3500869747b893809a7c2a185836da26ef253e0a0de429e617a82f8f17f055b1b67fe7366d9a5a491fb47f997937d38e7e8d4cbe8fa227c8b70f8a70e7b667883e393d677c86a9c8ec7144c61cf62e2403893"
            ],
            "sender": "0x5715d7994dfdee1ecd008f8d34d78d1a08ead620",
            "secretKey": "0x11d5c487544d0ad0d45e6ad0d0a50b1f65f352a93fe9187e7de4159883b51f8a"
        },
        "post": {
            "Prague": [
                {
                    "hash": "0x9ef15457f2d547d453b2e89c218625d468a47cb69a88085c260b5d22f9cc93fa",
                    "logs": "0x1871851b13748f25e2cdd953f2e6051fa3e91e049693c05258068458543fc014",
                    "txbytes": "0xf903bc800a8438c2a77b94d0a50b1f65f352a93fe9187e7de4159883b5208a846f33bb2db9035566fd78520a4acd897a6e29cf1b15f576b05a2bc0c18bb93a759d3f5e1ac5d34ba1e261c70b7afd59945da98cc373eac6aa543bae2e6726e3ff03ad2e788dc33f3b736ef736637d8ac680281bb29884e641473063e58e7318f5f4cbade311c02eed1c323c19bba7df4729406464b42ed0cb6d0189be83857fb09713ae69e7d2d472e6d85d23920625c84c39489fc80d272868f40c64cc6cb93ea5741d1918dfc8f61086b1b0637390a1934b637c37ec94877d3ea763b20b9e04fa589f30da18f1565bcf15ad38bc735b9d45b5d963cadd77e9e3db27853e7462a6417a4ac9af38f967a198c6f50deb53634bcbbe9c6a83a7357847acc4f6360fa46e43595a8936969798890170a6874b4e67391c228e9d0a754f68635d505c3f9a8c2555728626e286db52177c2228fb04d4b702bea78df3747d6fa1079394222b8d2a0dfc34ce6d9e5664062fa8977526ced3516147e12a7b9e36f6628dd9efe320bef809146e8fad97d5aedf559bcc15442b1fd347758332cb1d4bb96471a01de009dc175e3eae40d189755a7c1f46c55d3353af6fd0ee638735594b4bb2e6aa99fdbc96508431f421dd770b6379f9b5cbee55423a23c5538390612dc07c752c39f1c87a02777b0fa261dd883d49b2ae5c02c6e81bd0a53ba5d53e12530485664f77811ffaca4c688d18d6122f3a564151676f40f70e45da4fe562355ba17d36458de5f760c8148a11b1fece135e184d2dbf9ecf019d634d8498ae6c6862431f356e1940bc7bb1a252ece1b1605e467f328c79bb45440e29a9444f1948f3737dc02ec2c10862323af3bae0db487768f3aa49fb0967d7eb138302bcb9cedb6b327f4d35a39cf561f1ee73c294825a5de76bd6bf707c5a660e3a417b6ac0586e80ecb6300ea61a618b628d8fcc6c80a37fbfda4e162006259f39441a81fd310c9a323be96b826199149ebdb88ea3e87df96d06c71959b65c4a3e73b50da0a67590625ad154729d9a0a585ba3fc028fc342115f2308566e69cd557f7a7a73474bae3846016f5281b41609a85ee1b4244652d5c1360c9d30fe27dd2d62b415d06a278aafd0816e734b76a3500869747b893809a7c2a185836da26ef253e0a0de429e617a82f8f17f055b1b67fe7366d9a5a491fb47f997937d38e7e8d4cbe8fa227c8b70f8a70e7b667883e393d677c86a9c8ec7144c61cf62e240389326a04e9323c5badef4cdb1d3250015190e41bb8aecef457e98e4e85a895c2e4b909ea068d9757354d6d80e1b26fcf74324cbc60c36515225cab00817a5494199288a3a",
                    "indexes": {
                        "data": 0,
                        "gas": 0,
                        "value": 0
                    },
                    "state": {
                        "0x5715d7994dfdee1ecd008f8d34d78d1a08ead620": {
                            "nonce": "0x01",
                            "balance": "0x0de0b6b335761691",
                            "code": "0x",
                            "storage": {}
                        },
                        "0xd0a50b1f65f352a93fe9187e7de4159883b51f8a": {
                            "nonce": "0x00",
                            "balance": "0x2e",
                            "code": "0x6000355415600957005b60203560003555",
                            "storage": {}
                        },
                        "0xd0a50b1f65f352a93fe9187e7de4159883b5208a": {
                            "nonce": "0x00",
                            "balance": "0x6f33bb2d",
                            "code": "0x7d342beabe599e4bc177fd97d36df48d50650ba6129a9a83d4cf809ec21452357c620167f530c3265be9887f6e5b8186decdc00a6a801e5f56dd8d9d36a4806dbccc299e4bbf46ad577e25b5b1fc76b6999cb23a6a03c4035e36b8494135ee170647395da00b6e0a64c43f3358b8bdcf593c89fb70b865ef153b5195c77959256beb4f932095eb8ac80bc2c050f6f550a362aac77f5c4b197151df039d64b77dca22eb8fd4b8cf50fb85a36f1d909d1919a47fe97de5526726b4a47b866b7b13471056439457cd7cbc5060d978056ff5dd24a1f49e50b9f5924f473b2dc5306d67054ca575d0603e616291a3601460106009601f6338a57ddc73d0a50b1f65f352a93fe9187e7de4159883b5208a630e3319c8f133",
                            "storage": {}
                        }
                    }
                }
            ]
        },
        "config": {
            "blobSchedule": {
                "Cancun": {
                    "target": "0x03",
                    "max": "0x06",
                    "baseFeeUpdateFraction": "0x32f0ed"
                },
                "Prague": {
                    "target": "0x06",
                    "max": "0x09",
                    "baseFeeUpdateFraction": "0x4c6964"
                }
            },
            "chainid": "0x01"
        },
        "_info": {
            "hash": "0xd655a6ba3e58f4fec01b94ab90697aa1ff2ca59945cc522364b251982ad68e6e",
            "comment": "`execution-spec-tests` generated test",
            "filling-transition-tool": "ethereum-spec-evm-resolver 0.0.5",
            "description": "No description available - add a docstring to the python test class or function.",
            "url": "",
            "fixture-format": "state_test",
            "eels-resolution": {
                "git-url": "https://github.com/marioevz/execution-specs.git",
                "branch": "forks/bpo1",
                "commit": "3387e5f4aedfe99becfdc39b444d6371e25e0924"
            }
        }
    }
}