{
    "tests/static/state_tests/stRandom/randomStatetest3Filler.json::randomStatetest3[fork_Cancun-state_test-]": {
        "env": {
            "currentCoinbase": "0x2e8b3c885051f5f1dad66488ad64695d04edbbc5",
            "currentGasLimit": "0x7fffffffffffffff",
            "currentNumber": "0x01",
            "currentTimestamp": "0x03e8",
            "currentRandom": "0x0000000000000000000000000000000000000000000000000000000000020000",
            "currentDifficulty": "0x00",
            "currentBaseFee": "0x0a",
            "currentExcessBlobGas": "0x00"
        },
        "pre": {
            "0x07a0bfd0635207f63185cf029ca696bbddc0aff0": {
                "nonce": "0x00",
                "balance": "0x0de0b6b3a7640000",
                "code": "0x",
                "storage": {}
            },
            "0x2e8b3c885051f5f1dad66488ad64695d04edbbc5": {
                "nonce": "0x00",
                "balance": "0x2e",
                "code": "0x6000355415600957005b60203560003555",
                "storage": {}
            },
            "0x2e8b3c885051f5f1dad66488ad64695d04edbcc5": {
                "nonce": "0x00",
                "balance": "0x00",
                "code": "0x7f000000000000000000000000ffffffffffffffffffffffffffffffffffffffff7f000000000000000000000000ffffffffffffffffffffffffffffffffffffffff7f0000000000000000000000002e8b3c885051f5f1dad66488ad64695d04edbbc57f000000000000000000000000ffffffffffffffffffffffffffffffffffffffff7ffffffffffffffffffffffffffffffffffffffffffffffffffffffffffffffffe427f000000000000000000000000000000000000000000000000000000000000c3504160005155",
                "storage": {}
            }
        },
        "transaction": {
            "nonce": "0x00",
            "gasPrice": "0x0a",
            "gasLimit": [
                "0x0186a0"
            ],
            "to": "0x2e8b3c885051f5f1dad66488ad64695d04edbcc5",
            "value": [
                "0x5eaa223f"
            ],
            "data": [
                "0x7f000000000000000000000000ffffffffffffffffffffffffffffffffffffffff7f000000000000000000000000ffffffffffffffffffffffffffffffffffffffff7f0000000000000000000000002e8b3c885051f5f1dad66488ad64695d04edbbc57f000000000000000000000000ffffffffffffffffffffffffffffffffffffffff7ffffffffffffffffffffffffffffffffffffffffffffffffffffffffffffffffe427f000000000000000000000000000000000000000000000000000000000000c35041"
            ],
            "sender": "0x07a0bfd0635207f63185cf029ca696bbddc0aff0",
            "secretKey": "0x1e9a9e4e7db3e5d42195d4e12e8b3c885051f5f1dad66488ad64695d04edbbc5"
        },
        "post": {
            "Cancun": [
                {
                    "hash": "0x9a7d57bfd8de496a891b1eba785def6481c408e8cfa726ab1d347ee7bc7c2621",
                    "logs": "0x1dcc4de8dec75d7aab85b567b6ccd41ad312451b948a7413f0a142fd40d49347",
                    "txbytes": "0xf9012d800a830186a0942e8b3c885051f5f1dad66488ad64695d04edbcc5845eaa223fb8c87f000000000000000000000000ffffffffffffffffffffffffffffffffffffffff7f000000000000000000000000ffffffffffffffffffffffffffffffffffffffff7f0000000000000000000000002e8b3c885051f5f1dad66488ad64695d04edbbc57f000000000000000000000000ffffffffffffffffffffffffffffffffffffffff7ffffffffffffffffffffffffffffffffffffffffffffffffffffffffffffffffe427f000000000000000000000000000000000000000000000000000000000000c3504126a0ad51defec73aa6c3806b7940e22d6aea5d801b5d9bae545a2a44ad3c4f310dd0a0060eb02f50225fd610d29899da3cedf50b7b2454708016b2e20e9529d535dea8",
                    "indexes": {
                        "data": 0,
                        "gas": 0,
                        "value": 0
                    },
                    "state": {
                        "0x07a0bfd0635207f63185cf029ca696bbddc0aff0": {
                            "nonce": "0x01",
                            "balance": "0x0de0b6b348b2f083",
                            "code": "0x",
                            "storage": {}
                        },
                        "0x2e8b3c885051f5f1dad66488ad64695d04edbbc5": {
                            "nonce": "0x00",
                            "balance": "0x2e",
                            "code": "0x6000355415600957005b60203560003555",
                            "storage": {}
                        },
                        "0x2e8b3c885051f5f1dad66488ad64695d04edbcc5": {
                            "nonce": "0x00",
                            "balance": "0x5eaa223f",
                            "code": "0x7f000000000000000000000000ffffffffffffffffffffffffffffffffffffffff7f000000000000000000000000ffffffffffffffffffffffffffffffffffffffff7f0000000000000000000000002e8b3c885051f5f1dad66488ad64695d04edbbc57f000000000000000000000000ffffffffffffffffffffffffffffffffffffffff7ffffffffffffffffffffffffffffffffffffffffffffffffffffffffffffffffe427f000000000000000000000000000000000000000000000000000000000000c3504160005155",
                            "storage": {
                                "0x00": "0x2e8b3c885051f5f1dad66488ad64695d04edbbc5"
                            }
                        }
                    }
                }
            ]
        },
        "config": {
            "blobSchedule": {
                "Cancun": {
                    "target": "0x03",
                    "max": "0x06",
                    "baseFeeUpdateFraction": "0x32f0ed"
                }
            },
            "chainid": "0x01"
        },
        "_info": {
            "hash": "0xb0ea13dff2ffdbbc1f9dbb4d931b034bf74468514d9e51bafd955b49b3e33ade",
            "comment": "`execution-specs` generated test",
            "filling-transition-tool": "2.18.0rc6",
            "description": "No description available - add a docstring to the python test class or function.",
            "url": "",
            "fixture-format": "state_test"
        }
    },
    "tests/static/state_tests/stRandom/randomStatetest3Filler.json::randomStatetest3[fork_Osaka-state_test-]": {
        "env": {
            "currentCoinbase": "0x2e8b3c885051f5f1dad66488ad64695d04edbbc5",
            "currentGasLimit": "0x7fffffffffffffff",
            "currentNumber": "0x01",
            "currentTimestamp": "0x03e8",
            "currentRandom": "0x0000000000000000000000000000000000000000000000000000000000020000",
            "currentDifficulty": "0x00",
            "currentBaseFee": "0x0a",
            "currentExcessBlobGas": "0x00"
        },
        "pre": {
            "0x07a0bfd0635207f63185cf029ca696bbddc0aff0": {
                "nonce": "0x00",
                "balance": "0x0de0b6b3a7640000",
                "code": "0x",
                "storage": {}
            },
            "0x2e8b3c885051f5f1dad66488ad64695d04edbbc5": {
                "nonce": "0x00",
                "balance": "0x2e",
                "code": "0x6000355415600957005b60203560003555",
                "storage": {}
            },
            "0x2e8b3c885051f5f1dad66488ad64695d04edbcc5": {
                "nonce": "0x00",
                "balance": "0x00",
                "code": "0x7f000000000000000000000000ffffffffffffffffffffffffffffffffffffffff7f000000000000000000000000ffffffffffffffffffffffffffffffffffffffff7f0000000000000000000000002e8b3c885051f5f1dad66488ad64695d04edbbc57f000000000000000000000000ffffffffffffffffffffffffffffffffffffffff7ffffffffffffffffffffffffffffffffffffffffffffffffffffffffffffffffe427f000000000000000000000000000000000000000000000000000000000000c3504160005155",
                "storage": {}
            }
        },
        "transaction": {
            "nonce": "0x00",
            "gasPrice": "0x0a",
            "gasLimit": [
                "0x0186a0"
            ],
            "to": "0x2e8b3c885051f5f1dad66488ad64695d04edbcc5",
            "value": [
                "0x5eaa223f"
            ],
            "data": [
                "0x7f000000000000000000000000ffffffffffffffffffffffffffffffffffffffff7f000000000000000000000000ffffffffffffffffffffffffffffffffffffffff7f0000000000000000000000002e8b3c885051f5f1dad66488ad64695d04edbbc57f000000000000000000000000ffffffffffffffffffffffffffffffffffffffff7ffffffffffffffffffffffffffffffffffffffffffffffffffffffffffffffffe427f000000000000000000000000000000000000000000000000000000000000c35041"
            ],
            "sender": "0x07a0bfd0635207f63185cf029ca696bbddc0aff0",
            "secretKey": "0x1e9a9e4e7db3e5d42195d4e12e8b3c885051f5f1dad66488ad64695d04edbbc5"
        },
        "post": {
            "Osaka": [
                {
                    "hash": "0x9a7d57bfd8de496a891b1eba785def6481c408e8cfa726ab1d347ee7bc7c2621",
                    "logs": "0x1dcc4de8dec75d7aab85b567b6ccd41ad312451b948a7413f0a142fd40d49347",
                    "txbytes": "0xf9012d800a830186a0942e8b3c885051f5f1dad66488ad64695d04edbcc5845eaa223fb8c87f000000000000000000000000ffffffffffffffffffffffffffffffffffffffff7f000000000000000000000000ffffffffffffffffffffffffffffffffffffffff7f0000000000000000000000002e8b3c885051f5f1dad66488ad64695d04edbbc57f000000000000000000000000ffffffffffffffffffffffffffffffffffffffff7ffffffffffffffffffffffffffffffffffffffffffffffffffffffffffffffffe427f000000000000000000000000000000000000000000000000000000000000c3504126a0ad51defec73aa6c3806b7940e22d6aea5d801b5d9bae545a2a44ad3c4f310dd0a0060eb02f50225fd610d29899da3cedf50b7b2454708016b2e20e9529d535dea8",
                    "indexes": {
                        "data": 0,
                        "gas": 0,
                        "value": 0
                    },
                    "state": {
                        "0x07a0bfd0635207f63185cf029ca696bbddc0aff0": {
                            "nonce": "0x01",
                            "balance": "0x0de0b6b348b2f083",
                            "code": "0x",
                            "storage": {}
                        },
                        "0x2e8b3c885051f5f1dad66488ad64695d04edbbc5": {
                            "nonce": "0x00",
                            "balance": "0x2e",
                            "code": "0x6000355415600957005b60203560003555",
                            "storage": {}
                        },
                        "0x2e8b3c885051f5f1dad66488ad64695d04edbcc5": {
                            "nonce": "0x00",
                            "balance": "0x5eaa223f",
                            "code": "0x7f000000000000000000000000ffffffffffffffffffffffffffffffffffffffff7f000000000000000000000000ffffffffffffffffffffffffffffffffffffffff7f0000000000000000000000002e8b3c885051f5f1dad66488ad64695d04edbbc57f000000000000000000000000ffffffffffffffffffffffffffffffffffffffff7ffffffffffffffffffffffffffffffffffffffffffffffffffffffffffffffffe427f000000000000000000000000000000000000000000000000000000000000c3504160005155",
                            "storage": {
                                "0x00": "0x2e8b3c885051f5f1dad66488ad64695d04edbbc5"
                            }
                        }
                    }
                }
            ]
        },
        "config": {
            "blobSchedule": {
                "Cancun": {
                    "target": "0x03",
                    "max": "0x06",
                    "baseFeeUpdateFraction": "0x32f0ed"
                },
                "Prague": {
                    "target": "0x06",
                    "max": "0x09",
                    "baseFeeUpdateFraction": "0x4c6964"
                },
                "Osaka": {
                    "target": "0x06",
                    "max": "0x09",
                    "baseFeeUpdateFraction": "0x4c6964"
                }
            },
            "chainid": "0x01"
        },
        "_info": {
            "hash": "0xcbd642f12da49c2bf4709275d7d1dc1e55a3aaed64916fd03958796363738751",
            "comment": "`execution-specs` generated test",
            "filling-transition-tool": "2.18.0rc6",
            "description": "No description available - add a docstring to the python test class or function.",
            "url": "",
            "fixture-format": "state_test"
        }
    },
    "tests/static/state_tests/stRandom/randomStatetest3Filler.json::randomStatetest3[fork_Prague-state_test-]": {
        "env": {
            "currentCoinbase": "0x2e8b3c885051f5f1dad66488ad64695d04edbbc5",
            "currentGasLimit": "0x7fffffffffffffff",
            "currentNumber": "0x01",
            "currentTimestamp": "0x03e8",
            "currentRandom": "0x0000000000000000000000000000000000000000000000000000000000020000",
            "currentDifficulty": "0x00",
            "currentBaseFee": "0x0a",
            "currentExcessBlobGas": "0x00"
        },
        "pre": {
            "0x07a0bfd0635207f63185cf029ca696bbddc0aff0": {
                "nonce": "0x00",
                "balance": "0x0de0b6b3a7640000",
                "code": "0x",
                "storage": {}
            },
            "0x2e8b3c885051f5f1dad66488ad64695d04edbbc5": {
                "nonce": "0x00",
                "balance": "0x2e",
                "code": "0x6000355415600957005b60203560003555",
                "storage": {}
            },
            "0x2e8b3c885051f5f1dad66488ad64695d04edbcc5": {
                "nonce": "0x00",
                "balance": "0x00",
                "code": "0x7f000000000000000000000000ffffffffffffffffffffffffffffffffffffffff7f000000000000000000000000ffffffffffffffffffffffffffffffffffffffff7f0000000000000000000000002e8b3c885051f5f1dad66488ad64695d04edbbc57f000000000000000000000000ffffffffffffffffffffffffffffffffffffffff7ffffffffffffffffffffffffffffffffffffffffffffffffffffffffffffffffe427f000000000000000000000000000000000000000000000000000000000000c3504160005155",
                "storage": {}
            }
        },
        "transaction": {
            "nonce": "0x00",
            "gasPrice": "0x0a",
            "gasLimit": [
                "0x0186a0"
            ],
            "to": "0x2e8b3c885051f5f1dad66488ad64695d04edbcc5",
            "value": [
                "0x5eaa223f"
            ],
            "data": [
                "0x7f000000000000000000000000ffffffffffffffffffffffffffffffffffffffff7f000000000000000000000000ffffffffffffffffffffffffffffffffffffffff7f0000000000000000000000002e8b3c885051f5f1dad66488ad64695d04edbbc57f000000000000000000000000ffffffffffffffffffffffffffffffffffffffff7ffffffffffffffffffffffffffffffffffffffffffffffffffffffffffffffffe427f000000000000000000000000000000000000000000000000000000000000c35041"
            ],
            "sender": "0x07a0bfd0635207f63185cf029ca696bbddc0aff0",
            "secretKey": "0x1e9a9e4e7db3e5d42195d4e12e8b3c885051f5f1dad66488ad64695d04edbbc5"
        },
        "post": {
            "Prague": [
                {
                    "hash": "0x9a7d57bfd8de496a891b1eba785def6481c408e8cfa726ab1d347ee7bc7c2621",
                    "logs": "0x1dcc4de8dec75d7aab85b567b6ccd41ad312451b948a7413f0a142fd40d49347",
                    "txbytes": "0xf9012d800a830186a0942e8b3c885051f5f1dad66488ad64695d04edbcc5845eaa223fb8c87f000000000000000000000000ffffffffffffffffffffffffffffffffffffffff7f000000000000000000000000ffffffffffffffffffffffffffffffffffffffff7f0000000000000000000000002e8b3c885051f5f1dad66488ad64695d04edbbc57f000000000000000000000000ffffffffffffffffffffffffffffffffffffffff7ffffffffffffffffffffffffffffffffffffffffffffffffffffffffffffffffe427f000000000000000000000000000000000000000000000000000000000000c3504126a0ad51defec73aa6c3806b7940e22d6aea5d801b5d9bae545a2a44ad3c4f310dd0a0060eb02f50225fd610d29899da3cedf50b7b2454708016b2e20e9529d535dea8",
                    "indexes": {
                        "data": 0,
                        "gas": 0,
                        "value": 0
                    },
                    "state": {
                        "0x07a0bfd0635207f63185cf029ca696bbddc0aff0": {
                            "nonce": "0x01",
                            "balance": "0x0de0b6b348b2f083",
                            "code": "0x",
                            "storage": {}
                        },
                        "0x2e8b3c885051f5f1dad66488ad64695d04edbbc5": {
                            "nonce": "0x00",
                            "balance": "0x2e",
                            "code": "0x6000355415600957005b60203560003555",
                            "storage": {}
                        },
                        "0x2e8b3c885051f5f1dad66488ad64695d04edbcc5": {
                            "nonce": "0x00",
                            "balance": "0x5eaa223f",
                            "code": "0x7f000000000000000000000000ffffffffffffffffffffffffffffffffffffffff7f000000000000000000000000ffffffffffffffffffffffffffffffffffffffff7f0000000000000000000000002e8b3c885051f5f1dad66488ad64695d04edbbc57f000000000000000000000000ffffffffffffffffffffffffffffffffffffffff7ffffffffffffffffffffffffffffffffffffffffffffffffffffffffffffffffe427f000000000000000000000000000000000000000000000000000000000000c3504160005155",
                            "storage": {
                                "0x00": "0x2e8b3c885051f5f1dad66488ad64695d04edbbc5"
                            }
                        }
                    }
                }
            ]
        },
        "config": {
            "blobSchedule": {
                "Cancun": {
                    "target": "0x03",
                    "max": "0x06",
                    "baseFeeUpdateFraction": "0x32f0ed"
                },
                "Prague": {
                    "target": "0x06",
                    "max": "0x09",
                    "baseFeeUpdateFraction": "0x4c6964"
                }
            },
            "chainid": "0x01"
        },
        "_info": {
            "hash": "0x07ee44d4c8a9faf0dc4167fd8e881ba559a85ab2068246142330627cfa3b493f",
            "comment": "`execution-specs` generated test",
            "filling-transition-tool": "2.18.0rc6",
            "description": "No description available - add a docstring to the python test class or function.",
            "url": "",
            "fixture-format": "state_test"
        }
    }
}