{
    "tests/static/state_tests/stRandom/randomStatetest249Filler.json::randomStatetest249[fork_Cancun-state_test-]": {
        "env": {
            "currentCoinbase": "0x88ad9a306c54c9af26220b2ab15378e5426b21d9",
            "currentGasLimit": "0x7fffffffffffffff",
            "currentNumber": "0x01",
            "currentTimestamp": "0x03e8",
            "currentRandom": "0x0000000000000000000000000000000000000000000000000000000000020000",
            "currentDifficulty": "0x00",
            "currentBaseFee": "0x0a",
            "currentExcessBlobGas": "0x00"
        },
        "pre": {
            "0xdfd7d3f62beeeb606c4543c91149b6686074e83f": {
                "nonce": "0x00",
                "balance": "0x0de0b6b3a7640000",
                "code": "0x",
                "storage": {}
            },
            "0x88ad9a306c54c9af26220b2ab15378e5426b21d9": {
                "nonce": "0x00",
                "balance": "0x2e",
                "code": "0x6000355415600957005b60203560003555",
                "storage": {}
            },
            "0x88ad9a306c54c9af26220b2ab15378e5426b22d9": {
                "nonce": "0x00",
                "balance": "0x00",
                "code": "0x7f00000000000000000000000100000000000000000000000000000000000000007f000000000000000000000000ffffffffffffffffffffffffffffffffffffffff7f000000000000000000000000000000000000000000000000000000000000000012807f00000000000000000000000000000000000000000000000000000000000000017f00000000000000000000000100000000000000000000000000000000000000007f00000000000000000000000000000000000000000000000000000000000000003960005155",
                "storage": {}
            }
        },
        "transaction": {
            "nonce": "0x00",
            "gasPrice": "0x0a",
            "gasLimit": [
                "0x0186a0"
            ],
            "to": "0x88ad9a306c54c9af26220b2ab15378e5426b22d9",
            "value": [
                "0x6f8f420b"
            ],
            "data": [
                "0x7f00000000000000000000000100000000000000000000000000000000000000007f000000000000000000000000ffffffffffffffffffffffffffffffffffffffff7f000000000000000000000000000000000000000000000000000000000000000012807f00000000000000000000000000000000000000000000000000000000000000017f00000000000000000000000100000000000000000000000000000000000000007f000000000000000000000000000000000000000000000000000000000000000039"
            ],
            "sender": "0xdfd7d3f62beeeb606c4543c91149b6686074e83f",
            "secretKey": "0x68fc7754cd82c7a06f84a3bd88ad9a306c54c9af26220b2ab15378e5426b21d9"
        },
        "post": {
            "Cancun": [
                {
                    "hash": "0x0868588ed95ce1794bd3424b6ed41c89a22ac6c5f83c4129056d464833c80735",
                    "logs": "0x1dcc4de8dec75d7aab85b567b6ccd41ad312451b948a7413f0a142fd40d49347",
                    "txbytes": "0xf9012e800a830186a09488ad9a306c54c9af26220b2ab15378e5426b22d9846f8f420bb8c97f00000000000000000000000100000000000000000000000000000000000000007f000000000000000000000000ffffffffffffffffffffffffffffffffffffffff7f000000000000000000000000000000000000000000000000000000000000000012807f00000000000000000000000000000000000000000000000000000000000000017f00000000000000000000000100000000000000000000000000000000000000007f00000000000000000000000000000000000000000000000000000000000000003926a0d4bbb3e546905a3462cdec0498beaccb1861521ea3d6d4179f8ebdcdf860111ea032c2804c00e118101a27bcaf0c94e487b7fed8ad6ed3228ed15878db751412e3",
                    "indexes": {
                        "data": 0,
                        "gas": 0,
                        "value": 0
                    },
                    "state": {
                        "0xdfd7d3f62beeeb606c4543c91149b6686074e83f": {
                            "nonce": "0x01",
                            "balance": "0x0de0b6b337cdfa6f",
                            "code": "0x",
                            "storage": {}
                        },
                        "0x88ad9a306c54c9af26220b2ab15378e5426b21d9": {
                            "nonce": "0x00",
                            "balance": "0x2e",
                            "code": "0x6000355415600957005b60203560003555",
                            "storage": {}
                        },
                        "0x88ad9a306c54c9af26220b2ab15378e5426b22d9": {
                            "nonce": "0x00",
                            "balance": "0x6f8f420b",
                            "code": "0x7f00000000000000000000000100000000000000000000000000000000000000007f000000000000000000000000ffffffffffffffffffffffffffffffffffffffff7f000000000000000000000000000000000000000000000000000000000000000012807f00000000000000000000000000000000000000000000000000000000000000017f00000000000000000000000100000000000000000000000000000000000000007f00000000000000000000000000000000000000000000000000000000000000003960005155",
                            "storage": {
                                "0x00": "0x01"
                            }
                        }
                    }
                }
            ]
        },
        "config": {
            "blobSchedule": {
                "Cancun": {
                    "target": "0x03",
                    "max": "0x06",
                    "baseFeeUpdateFraction": "0x32f0ed"
                }
            },
            "chainid": "0x01"
        },
        "_info": {
            "hash": "0x2c4854b0e8e5589b0734018352c2f0894936239e243f545aee518ac4c90cac4c",
            "comment": "`execution-specs` generated test",
            "filling-transition-tool": "2.18.0rc6",
            "description": "No description available - add a docstring to the python test class or function.",
            "url": "",
            "fixture-format": "state_test"
        }
    },
    "tests/static/state_tests/stRandom/randomStatetest249Filler.json::randomStatetest249[fork_Osaka-state_test-]": {
        "env": {
            "currentCoinbase": "0x88ad9a306c54c9af26220b2ab15378e5426b21d9",
            "currentGasLimit": "0x7fffffffffffffff",
            "currentNumber": "0x01",
            "currentTimestamp": "0x03e8",
            "currentRandom": "0x0000000000000000000000000000000000000000000000000000000000020000",
            "currentDifficulty": "0x00",
            "currentBaseFee": "0x0a",
            "currentExcessBlobGas": "0x00"
        },
        "pre": {
            "0xdfd7d3f62beeeb606c4543c91149b6686074e83f": {
                "nonce": "0x00",
                "balance": "0x0de0b6b3a7640000",
                "code": "0x",
                "storage": {}
            },
            "0x88ad9a306c54c9af26220b2ab15378e5426b21d9": {
                "nonce": "0x00",
                "balance": "0x2e",
                "code": "0x6000355415600957005b60203560003555",
                "storage": {}
            },
            "0x88ad9a306c54c9af26220b2ab15378e5426b22d9": {
                "nonce": "0x00",
                "balance": "0x00",
                "code": "0x7f00000000000000000000000100000000000000000000000000000000000000007f000000000000000000000000ffffffffffffffffffffffffffffffffffffffff7f000000000000000000000000000000000000000000000000000000000000000012807f00000000000000000000000000000000000000000000000000000000000000017f00000000000000000000000100000000000000000000000000000000000000007f00000000000000000000000000000000000000000000000000000000000000003960005155",
                "storage": {}
            }
        },
        "transaction": {
            "nonce": "0x00",
            "gasPrice": "0x0a",
            "gasLimit": [
                "0x0186a0"
            ],
            "to": "0x88ad9a306c54c9af26220b2ab15378e5426b22d9",
            "value": [
                "0x6f8f420b"
            ],
            "data": [
                "0x7f00000000000000000000000100000000000000000000000000000000000000007f000000000000000000000000ffffffffffffffffffffffffffffffffffffffff7f000000000000000000000000000000000000000000000000000000000000000012807f00000000000000000000000000000000000000000000000000000000000000017f00000000000000000000000100000000000000000000000000000000000000007f000000000000000000000000000000000000000000000000000000000000000039"
            ],
            "sender": "0xdfd7d3f62beeeb606c4543c91149b6686074e83f",
            "secretKey": "0x68fc7754cd82c7a06f84a3bd88ad9a306c54c9af26220b2ab15378e5426b21d9"
        },
        "post": {
            "Osaka": [
                {
                    "hash": "0x0868588ed95ce1794bd3424b6ed41c89a22ac6c5f83c4129056d464833c80735",
                    "logs": "0x1dcc4de8dec75d7aab85b567b6ccd41ad312451b948a7413f0a142fd40d49347",
                    "txbytes": "0xf9012e800a830186a09488ad9a306c54c9af26220b2ab15378e5426b22d9846f8f420bb8c97f00000000000000000000000100000000000000000000000000000000000000007f000000000000000000000000ffffffffffffffffffffffffffffffffffffffff7f000000000000000000000000000000000000000000000000000000000000000012807f00000000000000000000000000000000000000000000000000000000000000017f00000000000000000000000100000000000000000000000000000000000000007f00000000000000000000000000000000000000000000000000000000000000003926a0d4bbb3e546905a3462cdec0498beaccb1861521ea3d6d4179f8ebdcdf860111ea032c2804c00e118101a27bcaf0c94e487b7fed8ad6ed3228ed15878db751412e3",
                    "indexes": {
                        "data": 0,
                        "gas": 0,
                        "value": 0
                    },
                    "state": {
                        "0xdfd7d3f62beeeb606c4543c91149b6686074e83f": {
                            "nonce": "0x01",
                            "balance": "0x0de0b6b337cdfa6f",
                            "code": "0x",
                            "storage": {}
                        },
                        "0x88ad9a306c54c9af26220b2ab15378e5426b21d9": {
                            "nonce": "0x00",
                            "balance": "0x2e",
                            "code": "0x6000355415600957005b60203560003555",
                            "storage": {}
                        },
                        "0x88ad9a306c54c9af26220b2ab15378e5426b22d9": {
                            "nonce": "0x00",
                            "balance": "0x6f8f420b",
                            "code": "0x7f00000000000000000000000100000000000000000000000000000000000000007f000000000000000000000000ffffffffffffffffffffffffffffffffffffffff7f000000000000000000000000000000000000000000000000000000000000000012807f00000000000000000000000000000000000000000000000000000000000000017f00000000000000000000000100000000000000000000000000000000000000007f00000000000000000000000000000000000000000000000000000000000000003960005155",
                            "storage": {
                                "0x00": "0x01"
                            }
                        }
                    }
                }
            ]
        },
        "config": {
            "blobSchedule": {
                "Cancun": {
                    "target": "0x03",
                    "max": "0x06",
                    "baseFeeUpdateFraction": "0x32f0ed"
                },
                "Prague": {
                    "target": "0x06",
                    "max": "0x09",
                    "baseFeeUpdateFraction": "0x4c6964"
                },
                "Osaka": {
                    "target": "0x06",
                    "max": "0x09",
                    "baseFeeUpdateFraction": "0x4c6964"
                }
            },
            "chainid": "0x01"
        },
        "_info": {
            "hash": "0xcf95417fe11b67d5595b86922c74e29d85fface5c33e54f2c34de87e3a175744",
            "comment": "`execution-specs` generated test",
            "filling-transition-tool": "2.18.0rc6",
            "description": "No description available - add a docstring to the python test class or function.",
            "url": "",
            "fixture-format": "state_test"
        }
    },
    "tests/static/state_tests/stRandom/randomStatetest249Filler.json::randomStatetest249[fork_Prague-state_test-]": {
        "env": {
            "currentCoinbase": "0x88ad9a306c54c9af26220b2ab15378e5426b21d9",
            "currentGasLimit": "0x7fffffffffffffff",
            "currentNumber": "0x01",
            "currentTimestamp": "0x03e8",
            "currentRandom": "0x0000000000000000000000000000000000000000000000000000000000020000",
            "currentDifficulty": "0x00",
            "currentBaseFee": "0x0a",
            "currentExcessBlobGas": "0x00"
        },
        "pre": {
            "0xdfd7d3f62beeeb606c4543c91149b6686074e83f": {
                "nonce": "0x00",
                "balance": "0x0de0b6b3a7640000",
                "code": "0x",
                "storage": {}
            },
            "0x88ad9a306c54c9af26220b2ab15378e5426b21d9": {
                "nonce": "0x00",
                "balance": "0x2e",
                "code": "0x6000355415600957005b60203560003555",
                "storage": {}
            },
            "0x88ad9a306c54c9af26220b2ab15378e5426b22d9": {
                "nonce": "0x00",
                "balance": "0x00",
                "code": "0x7f00000000000000000000000100000000000000000000000000000000000000007f000000000000000000000000ffffffffffffffffffffffffffffffffffffffff7f000000000000000000000000000000000000000000000000000000000000000012807f00000000000000000000000000000000000000000000000000000000000000017f00000000000000000000000100000000000000000000000000000000000000007f00000000000000000000000000000000000000000000000000000000000000003960005155",
                "storage": {}
            }
        },
        "transaction": {
            "nonce": "0x00",
            "gasPrice": "0x0a",
            "gasLimit": [
                "0x0186a0"
            ],
            "to": "0x88ad9a306c54c9af26220b2ab15378e5426b22d9",
            "value": [
                "0x6f8f420b"
            ],
            "data": [
                "0x7f00000000000000000000000100000000000000000000000000000000000000007f000000000000000000000000ffffffffffffffffffffffffffffffffffffffff7f000000000000000000000000000000000000000000000000000000000000000012807f00000000000000000000000000000000000000000000000000000000000000017f00000000000000000000000100000000000000000000000000000000000000007f000000000000000000000000000000000000000000000000000000000000000039"
            ],
            "sender": "0xdfd7d3f62beeeb606c4543c91149b6686074e83f",
            "secretKey": "0x68fc7754cd82c7a06f84a3bd88ad9a306c54c9af26220b2ab15378e5426b21d9"
        },
        "post": {
            "Prague": [
                {
                    "hash": "0x0868588ed95ce1794bd3424b6ed41c89a22ac6c5f83c4129056d464833c80735",
                    "logs": "0x1dcc4de8dec75d7aab85b567b6ccd41ad312451b948a7413f0a142fd40d49347",
                    "txbytes": "0xf9012e800a830186a09488ad9a306c54c9af26220b2ab15378e5426b22d9846f8f420bb8c97f00000000000000000000000100000000000000000000000000000000000000007f000000000000000000000000ffffffffffffffffffffffffffffffffffffffff7f000000000000000000000000000000000000000000000000000000000000000012807f00000000000000000000000000000000000000000000000000000000000000017f00000000000000000000000100000000000000000000000000000000000000007f00000000000000000000000000000000000000000000000000000000000000003926a0d4bbb3e546905a3462cdec0498beaccb1861521ea3d6d4179f8ebdcdf860111ea032c2804c00e118101a27bcaf0c94e487b7fed8ad6ed3228ed15878db751412e3",
                    "indexes": {
                        "data": 0,
                        "gas": 0,
                        "value": 0
                    },
                    "state": {
                        "0xdfd7d3f62beeeb606c4543c91149b6686074e83f": {
                            "nonce": "0x01",
                            "balance": "0x0de0b6b337cdfa6f",
                            "code": "0x",
                            "storage": {}
                        },
                        "0x88ad9a306c54c9af26220b2ab15378e5426b21d9": {
                            "nonce": "0x00",
                            "balance": "0x2e",
                            "code": "0x6000355415600957005b60203560003555",
                            "storage": {}
                        },
                        "0x88ad9a306c54c9af26220b2ab15378e5426b22d9": {
                            "nonce": "0x00",
                            "balance": "0x6f8f420b",
                            "code": "0x7f00000000000000000000000100000000000000000000000000000000000000007f000000000000000000000000ffffffffffffffffffffffffffffffffffffffff7f000000000000000000000000000000000000000000000000000000000000000012807f00000000000000000000000000000000000000000000000000000000000000017f00000000000000000000000100000000000000000000000000000000000000007f00000000000000000000000000000000000000000000000000000000000000003960005155",
                            "storage": {
                                "0x00": "0x01"
                            }
                        }
                    }
                }
            ]
        },
        "config": {
            "blobSchedule": {
                "Cancun": {
                    "target": "0x03",
                    "max": "0x06",
                    "baseFeeUpdateFraction": "0x32f0ed"
                },
                "Prague": {
                    "target": "0x06",
                    "max": "0x09",
                    "baseFeeUpdateFraction": "0x4c6964"
                }
            },
            "chainid": "0x01"
        },
        "_info": {
            "hash": "0x5d16737b3bf9ea16d1e68fd1c8d971a6d3134682bf47617e70c77bdb21d1414a",
            "comment": "`execution-specs` generated test",
            "filling-transition-tool": "2.18.0rc6",
            "description": "No description available - add a docstring to the python test class or function.",
            "url": "",
            "fixture-format": "state_test"
        }
    }
}