{
    "tests/static/state_tests/stRandom/randomStatetest45Filler.json::randomStatetest45[fork_Cancun-state_test-]": {
        "env": {
            "currentCoinbase": "0x4b25a19224c87a277efd375820bdfa4433f99fc4",
            "currentGasLimit": "0x7fffffffffffffff",
            "currentNumber": "0x01",
            "currentTimestamp": "0x03e8",
            "currentRandom": "0x0000000000000000000000000000000000000000000000000000000000020000",
            "currentDifficulty": "0x00",
            "currentBaseFee": "0x0a",
            "currentExcessBlobGas": "0x00"
        },
        "pre": {
            "0xdfe649d9c0b0525f44eb00ed563eb3e6c699e9ad": {
                "nonce": "0x00",
                "balance": "0x0de0b6b3a7640000",
                "code": "0x",
                "storage": {}
            },
            "0x4b25a19224c87a277efd375820bdfa4433f99fc4": {
                "nonce": "0x00",
                "balance": "0x2e",
                "code": "0x6000355415600957005b60203560003555",
                "storage": {}
            },
            "0x4b25a19224c87a277efd375820bdfa4433f9a0c4": {
                "nonce": "0x00",
                "balance": "0x00",
                "code": "0x7f0000000000000000000000004b25a19224c87a277efd375820bdfa4433f99fc4317fffffffffffffffffffffffffffffffffffffffffffffffffffffffffffffffff7f0000000000000000000000010000000000000000000000000000000000000000417ffffffffffffffffffffffffffffffffffffffffffffffffffffffffffffffffe43147256a3130255",
                "storage": {}
            }
        },
        "transaction": {
            "nonce": "0x00",
            "gasPrice": "0x0a",
            "gasLimit": [
                "0x0186a0"
            ],
            "to": "0x4b25a19224c87a277efd375820bdfa4433f9a0c4",
            "value": [
                "0x771cef12"
            ],
            "data": [
                "0x7f0000000000000000000000004b25a19224c87a277efd375820bdfa4433f99fc4317fffffffffffffffffffffffffffffffffffffffffffffffffffffffffffffffff7f0000000000000000000000010000000000000000000000000000000000000000417ffffffffffffffffffffffffffffffffffffffffffffffffffffffffffffffffe43147256a31302"
            ],
            "sender": "0xdfe649d9c0b0525f44eb00ed563eb3e6c699e9ad",
            "secretKey": "0x023ca8da4997b2a8e594be734b25a19224c87a277efd375820bdfa4433f99fc4"
        },
        "post": {
            "Cancun": [
                {
                    "hash": "0xcfb97b802d4e68acd44920ca52feaaa33a116714b74732f15a8ce5abaf61075f",
                    "logs": "0x1dcc4de8dec75d7aab85b567b6ccd41ad312451b948a7413f0a142fd40d49347",
                    "txbytes": "0xf8f2800a830186a0944b25a19224c87a277efd375820bdfa4433f9a0c484771cef12b88d7f0000000000000000000000004b25a19224c87a277efd375820bdfa4433f99fc4317fffffffffffffffffffffffffffffffffffffffffffffffffffffffffffffffff7f0000000000000000000000010000000000000000000000000000000000000000417ffffffffffffffffffffffffffffffffffffffffffffffffffffffffffffffffe43147256a3130225a0c9f6e2c09e33e7e9c6468ca136901522b9869f18925fe14463956f2976da5a25a0154ec3425f1a771591d18273a66465059d85fe5acb951e1ed51a6380fe3271ab",
                    "indexes": {
                        "data": 0,
                        "gas": 0,
                        "value": 0
                    },
                    "state": {
                        "0xdfe649d9c0b0525f44eb00ed563eb3e6c699e9ad": {
                            "nonce": "0x01",
                            "balance": "0x0de0b6b3304393e2",
                            "code": "0x",
                            "storage": {}
                        },
                        "0x4b25a19224c87a277efd375820bdfa4433f99fc4": {
                            "nonce": "0x00",
                            "balance": "0x2e",
                            "code": "0x6000355415600957005b60203560003555",
                            "storage": {}
                        },
                        "0x4b25a19224c87a277efd375820bdfa4433f9a0c4": {
                            "nonce": "0x00",
                            "balance": "0x771cef12",
                            "code": "0x7f0000000000000000000000004b25a19224c87a277efd375820bdfa4433f99fc4317fffffffffffffffffffffffffffffffffffffffffffffffffffffffffffffffff7f0000000000000000000000010000000000000000000000000000000000000000417ffffffffffffffffffffffffffffffffffffffffffffffffffffffffffffffffe43147256a3130255",
                            "storage": {}
                        }
                    }
                }
            ]
        },
        "config": {
            "blobSchedule": {
                "Cancun": {
                    "target": "0x03",
                    "max": "0x06",
                    "baseFeeUpdateFraction": "0x32f0ed"
                }
            },
            "chainid": "0x01"
        },
        "_info": {
            "hash": "0xb299a08adcdbf579d0d791bb40636ee8198d1e9f4aa5644f25abce1ae0f85f75",
            "comment": "`execution-spec-tests` generated test",
            "filling-transition-tool": "ethereum-spec-evm-resolver 0.0.5",
            "description": "No description available - add a docstring to the python test class or function.",
            "url": "",
            "fixture-format": "state_test",
            "eels-resolution": {
                "git-url": "https://github.com/marioevz/execution-specs.git",
                "branch": "forks/bpo1",
                "commit": "3387e5f4aedfe99becfdc39b444d6371e25e0924"
            }
        }
    },
    "tests/static/state_tests/stRandom/randomStatetest45Filler.json::randomStatetest45[fork_Osaka-state_test-]": {
        "env": {
            "currentCoinbase": "0x4b25a19224c87a277efd375820bdfa4433f99fc4",
            "currentGasLimit": "0x7fffffffffffffff",
            "currentNumber": "0x01",
            "currentTimestamp": "0x03e8",
            "currentRandom": "0x0000000000000000000000000000000000000000000000000000000000020000",
            "currentDifficulty": "0x00",
            "currentBaseFee": "0x0a",
            "currentExcessBlobGas": "0x00"
        },
        "pre": {
            "0xdfe649d9c0b0525f44eb00ed563eb3e6c699e9ad": {
                "nonce": "0x00",
                "balance": "0x0de0b6b3a7640000",
                "code": "0x",
                "storage": {}
            },
            "0x4b25a19224c87a277efd375820bdfa4433f99fc4": {
                "nonce": "0x00",
                "balance": "0x2e",
                "code": "0x6000355415600957005b60203560003555",
                "storage": {}
            },
            "0x4b25a19224c87a277efd375820bdfa4433f9a0c4": {
                "nonce": "0x00",
                "balance": "0x00",
                "code": "0x7f0000000000000000000000004b25a19224c87a277efd375820bdfa4433f99fc4317fffffffffffffffffffffffffffffffffffffffffffffffffffffffffffffffff7f0000000000000000000000010000000000000000000000000000000000000000417ffffffffffffffffffffffffffffffffffffffffffffffffffffffffffffffffe43147256a3130255",
                "storage": {}
            }
        },
        "transaction": {
            "nonce": "0x00",
            "gasPrice": "0x0a",
            "gasLimit": [
                "0x0186a0"
            ],
            "to": "0x4b25a19224c87a277efd375820bdfa4433f9a0c4",
            "value": [
                "0x771cef12"
            ],
            "data": [
                "0x7f0000000000000000000000004b25a19224c87a277efd375820bdfa4433f99fc4317fffffffffffffffffffffffffffffffffffffffffffffffffffffffffffffffff7f0000000000000000000000010000000000000000000000000000000000000000417ffffffffffffffffffffffffffffffffffffffffffffffffffffffffffffffffe43147256a31302"
            ],
            "sender": "0xdfe649d9c0b0525f44eb00ed563eb3e6c699e9ad",
            "secretKey": "0x023ca8da4997b2a8e594be734b25a19224c87a277efd375820bdfa4433f99fc4"
        },
        "post": {
            "Osaka": [
                {
                    "hash": "0x6f46f57578b07724b6934d2f18d4a4a3a4a723046ba9319c4510b5ff8f599ecc",
                    "logs": "0x1dcc4de8dec75d7aab85b567b6ccd41ad312451b948a7413f0a142fd40d49347",
                    "txbytes": "0xf8f2800a830186a0944b25a19224c87a277efd375820bdfa4433f9a0c484771cef12b88d7f0000000000000000000000004b25a19224c87a277efd375820bdfa4433f99fc4317fffffffffffffffffffffffffffffffffffffffffffffffffffffffffffffffff7f0000000000000000000000010000000000000000000000000000000000000000417ffffffffffffffffffffffffffffffffffffffffffffffffffffffffffffffffe43147256a3130225a0c9f6e2c09e33e7e9c6468ca136901522b9869f18925fe14463956f2976da5a25a0154ec3425f1a771591d18273a66465059d85fe5acb951e1ed51a6380fe3271ab",
                    "indexes": {
                        "data": 0,
                        "gas": 0,
                        "value": 0
                    },
                    "state": {
                        "0xdfe649d9c0b0525f44eb00ed563eb3e6c699e9ad": {
                            "nonce": "0x01",
                            "balance": "0x0de0b6b3304332b2",
                            "code": "0x",
                            "storage": {}
                        },
                        "0x4b25a19224c87a277efd375820bdfa4433f99fc4": {
                            "nonce": "0x00",
                            "balance": "0x2e",
                            "code": "0x6000355415600957005b60203560003555",
                            "storage": {}
                        },
                        "0x4b25a19224c87a277efd375820bdfa4433f9a0c4": {
                            "nonce": "0x00",
                            "balance": "0x771cef12",
                            "code": "0x7f0000000000000000000000004b25a19224c87a277efd375820bdfa4433f99fc4317fffffffffffffffffffffffffffffffffffffffffffffffffffffffffffffffff7f0000000000000000000000010000000000000000000000000000000000000000417ffffffffffffffffffffffffffffffffffffffffffffffffffffffffffffffffe43147256a3130255",
                            "storage": {}
                        }
                    }
                }
            ]
        },
        "config": {
            "blobSchedule": {
                "Cancun": {
                    "target": "0x03",
                    "max": "0x06",
                    "baseFeeUpdateFraction": "0x32f0ed"
                },
                "Prague": {
                    "target": "0x06",
                    "max": "0x09",
                    "baseFeeUpdateFraction": "0x4c6964"
                },
                "Osaka": {
                    "target": "0x06",
                    "max": "0x09",
                    "baseFeeUpdateFraction": "0x4c6964"
                }
            },
            "chainid": "0x01"
        },
        "_info": {
            "hash": "0x7491eb8db678fbb20c6221d4ab9d9a86feb54b71131c6bb615a6956bbdae2657",
            "comment": "`execution-spec-tests` generated test",
            "filling-transition-tool": "ethereum-spec-evm-resolver 0.0.5",
            "description": "No description available - add a docstring to the python test class or function.",
            "url": "",
            "fixture-format": "state_test",
            "eels-resolution": {
                "git-url": "https://github.com/marioevz/execution-specs.git",
                "branch": "forks/bpo1",
                "commit": "3387e5f4aedfe99becfdc39b444d6371e25e0924"
            }
        }
    },
    "tests/static/state_tests/stRandom/randomStatetest45Filler.json::randomStatetest45[fork_Prague-state_test-]": {
        "env": {
            "currentCoinbase": "0x4b25a19224c87a277efd375820bdfa4433f99fc4",
            "currentGasLimit": "0x7fffffffffffffff",
            "currentNumber": "0x01",
            "currentTimestamp": "0x03e8",
            "currentRandom": "0x0000000000000000000000000000000000000000000000000000000000020000",
            "currentDifficulty": "0x00",
            "currentBaseFee": "0x0a",
            "currentExcessBlobGas": "0x00"
        },
        "pre": {
            "0xdfe649d9c0b0525f44eb00ed563eb3e6c699e9ad": {
                "nonce": "0x00",
                "balance": "0x0de0b6b3a7640000",
                "code": "0x",
                "storage": {}
            },
            "0x4b25a19224c87a277efd375820bdfa4433f99fc4": {
                "nonce": "0x00",
                "balance": "0x2e",
                "code": "0x6000355415600957005b60203560003555",
                "storage": {}
            },
            "0x4b25a19224c87a277efd375820bdfa4433f9a0c4": {
                "nonce": "0x00",
                "balance": "0x00",
                "code": "0x7f0000000000000000000000004b25a19224c87a277efd375820bdfa4433f99fc4317fffffffffffffffffffffffffffffffffffffffffffffffffffffffffffffffff7f0000000000000000000000010000000000000000000000000000000000000000417ffffffffffffffffffffffffffffffffffffffffffffffffffffffffffffffffe43147256a3130255",
                "storage": {}
            }
        },
        "transaction": {
            "nonce": "0x00",
            "gasPrice": "0x0a",
            "gasLimit": [
                "0x0186a0"
            ],
            "to": "0x4b25a19224c87a277efd375820bdfa4433f9a0c4",
            "value": [
                "0x771cef12"
            ],
            "data": [
                "0x7f0000000000000000000000004b25a19224c87a277efd375820bdfa4433f99fc4317fffffffffffffffffffffffffffffffffffffffffffffffffffffffffffffffff7f0000000000000000000000010000000000000000000000000000000000000000417ffffffffffffffffffffffffffffffffffffffffffffffffffffffffffffffffe43147256a31302"
            ],
            "sender": "0xdfe649d9c0b0525f44eb00ed563eb3e6c699e9ad",
            "secretKey": "0x023ca8da4997b2a8e594be734b25a19224c87a277efd375820bdfa4433f99fc4"
        },
        "post": {
            "Prague": [
                {
                    "hash": "0x6f46f57578b07724b6934d2f18d4a4a3a4a723046ba9319c4510b5ff8f599ecc",
                    "logs": "0x1dcc4de8dec75d7aab85b567b6ccd41ad312451b948a7413f0a142fd40d49347",
                    "txbytes": "0xf8f2800a830186a0944b25a19224c87a277efd375820bdfa4433f9a0c484771cef12b88d7f0000000000000000000000004b25a19224c87a277efd375820bdfa4433f99fc4317fffffffffffffffffffffffffffffffffffffffffffffffffffffffffffffffff7f0000000000000000000000010000000000000000000000000000000000000000417ffffffffffffffffffffffffffffffffffffffffffffffffffffffffffffffffe43147256a3130225a0c9f6e2c09e33e7e9c6468ca136901522b9869f18925fe14463956f2976da5a25a0154ec3425f1a771591d18273a66465059d85fe5acb951e1ed51a6380fe3271ab",
                    "indexes": {
                        "data": 0,
                        "gas": 0,
                        "value": 0
                    },
                    "state": {
                        "0xdfe649d9c0b0525f44eb00ed563eb3e6c699e9ad": {
                            "nonce": "0x01",
                            "balance": "0x0de0b6b3304332b2",
                            "code": "0x",
                            "storage": {}
                        },
                        "0x4b25a19224c87a277efd375820bdfa4433f99fc4": {
                            "nonce": "0x00",
                            "balance": "0x2e",
                            "code": "0x6000355415600957005b60203560003555",
                            "storage": {}
                        },
                        "0x4b25a19224c87a277efd375820bdfa4433f9a0c4": {
                            "nonce": "0x00",
                            "balance": "0x771cef12",
                            "code": "0x7f0000000000000000000000004b25a19224c87a277efd375820bdfa4433f99fc4317fffffffffffffffffffffffffffffffffffffffffffffffffffffffffffffffff7f0000000000000000000000010000000000000000000000000000000000000000417ffffffffffffffffffffffffffffffffffffffffffffffffffffffffffffffffe43147256a3130255",
                            "storage": {}
                        }
                    }
                }
            ]
        },
        "config": {
            "blobSchedule": {
                "Cancun": {
                    "target": "0x03",
                    "max": "0x06",
                    "baseFeeUpdateFraction": "0x32f0ed"
                },
                "Prague": {
                    "target": "0x06",
                    "max": "0x09",
                    "baseFeeUpdateFraction": "0x4c6964"
                }
            },
            "chainid": "0x01"
        },
        "_info": {
            "hash": "0x1d6f8a6d375236432b5b8bd4f3666f0d8db80e78b73dbce31a5208d987551278",
            "comment": "`execution-spec-tests` generated test",
            "filling-transition-tool": "ethereum-spec-evm-resolver 0.0.5",
            "description": "No description available - add a docstring to the python test class or function.",
            "url": "",
            "fixture-format": "state_test",
            "eels-resolution": {
                "git-url": "https://github.com/marioevz/execution-specs.git",
                "branch": "forks/bpo1",
                "commit": "3387e5f4aedfe99becfdc39b444d6371e25e0924"
            }
        }
    }
}