{
    "tests/static/state_tests/stRandom/randomStatetest143Filler.json::randomStatetest143[fork_Cancun-state_test-]": {
        "env": {
            "currentCoinbase": "0x8e355e50a36b408bb1aa1c3159eeaec5940ec8ba",
            "currentGasLimit": "0x7fffffffffffffff",
            "currentNumber": "0x01",
            "currentTimestamp": "0x03e8",
            "currentRandom": "0x0000000000000000000000000000000000000000000000000000000000020000",
            "currentDifficulty": "0x00",
            "currentBaseFee": "0x0a",
            "currentExcessBlobGas": "0x00"
        },
        "pre": {
            "0xebb985e99038c9369ae1f3bf5b60607d4bb58c5b": {
                "nonce": "0x00",
                "balance": "0x0de0b6b3a7640000",
                "code": "0x",
                "storage": {}
            },
            "0x8e355e50a36b408bb1aa1c3159eeaec5940ec8ba": {
                "nonce": "0x00",
                "balance": "0x2e",
                "code": "0x6000355415600957005b60203560003555",
                "storage": {}
            },
            "0x8e355e50a36b408bb1aa1c3159eeaec5940ec9ba": {
                "nonce": "0x00",
                "balance": "0x0de0b6b3a7640000",
                "code": "0x414341414243421a2055",
                "storage": {}
            }
        },
        "transaction": {
            "nonce": "0x00",
            "gasPrice": "0x0a",
            "gasLimit": [
                "0x061a80"
            ],
            "to": "0x8e355e50a36b408bb1aa1c3159eeaec5940ec9ba",
            "value": [
                "0x0186a0"
            ],
            "data": [
                "0x42"
            ],
            "sender": "0xebb985e99038c9369ae1f3bf5b60607d4bb58c5b",
            "secretKey": "0x9d2b090d59954eab19d659fd8e355e50a36b408bb1aa1c3159eeaec5940ec8ba"
        },
        "post": {
            "Cancun": [
                {
                    "hash": "0xc6a05d0ea41dc0fd89e25dd7e9a3614e88099817bcc315cf9849cd7e37d4e596",
                    "logs": "0x1dcc4de8dec75d7aab85b567b6ccd41ad312451b948a7413f0a142fd40d49347",
                    "txbytes": "0xf863800a83061a80948e355e50a36b408bb1aa1c3159eeaec5940ec9ba830186a04226a0b32c0b3d51163167eecd1ac7eaa412a72107c2d4964805195a190a2fce31fbe4a004ca773283ee35d770353cc6f74ad6642ccb98816a1f2ef6ff7f75d422102e57",
                    "indexes": {
                        "data": 0,
                        "gas": 0,
                        "value": 0
                    },
                    "state": {
                        "0xebb985e99038c9369ae1f3bf5b60607d4bb58c5b": {
                            "nonce": "0x01",
                            "balance": "0x0de0b6b3a75bd7fe",
                            "code": "0x",
                            "storage": {}
                        },
                        "0x8e355e50a36b408bb1aa1c3159eeaec5940ec8ba": {
                            "nonce": "0x00",
                            "balance": "0x2e",
                            "code": "0x6000355415600957005b60203560003555",
                            "storage": {}
                        },
                        "0x8e355e50a36b408bb1aa1c3159eeaec5940ec9ba": {
                            "nonce": "0x00",
                            "balance": "0x0de0b6b3a76586a0",
                            "code": "0x414341414243421a2055",
                            "storage": {
                                "0xae72e2bf2302ebcd309e003e5be58830f96deddaf87bb89eeea159388bfe3ec1": "0x8e355e50a36b408bb1aa1c3159eeaec5940ec8ba"
                            }
                        }
                    }
                }
            ]
        },
        "config": {
            "blobSchedule": {
                "Cancun": {
                    "target": "0x03",
                    "max": "0x06",
                    "baseFeeUpdateFraction": "0x32f0ed"
                }
            },
            "chainid": "0x01"
        },
        "_info": {
            "hash": "0xbf6ea887589daa4f48f339af0351fe27b05c38493cb729adf0f4f5c45669e6cd",
            "comment": "`execution-spec-tests` generated test",
            "filling-transition-tool": "ethereum-spec-evm-resolver 0.0.5",
            "description": "No description available - add a docstring to the python test class or function.",
            "url": "",
            "fixture-format": "state_test",
            "eels-resolution": {
                "git-url": "https://github.com/ethereum/execution-specs.git",
                "branch": "forks/bpos",
                "commit": "7aacb2c54111391af5e98c505d5010b5698a770f"
            }
        }
    },
    "tests/static/state_tests/stRandom/randomStatetest143Filler.json::randomStatetest143[fork_Osaka-state_test-]": {
        "env": {
            "currentCoinbase": "0x8e355e50a36b408bb1aa1c3159eeaec5940ec8ba",
            "currentGasLimit": "0x7fffffffffffffff",
            "currentNumber": "0x01",
            "currentTimestamp": "0x03e8",
            "currentRandom": "0x0000000000000000000000000000000000000000000000000000000000020000",
            "currentDifficulty": "0x00",
            "currentBaseFee": "0x0a",
            "currentExcessBlobGas": "0x00"
        },
        "pre": {
            "0xebb985e99038c9369ae1f3bf5b60607d4bb58c5b": {
                "nonce": "0x00",
                "balance": "0x0de0b6b3a7640000",
                "code": "0x",
                "storage": {}
            },
            "0x8e355e50a36b408bb1aa1c3159eeaec5940ec8ba": {
                "nonce": "0x00",
                "balance": "0x2e",
                "code": "0x6000355415600957005b60203560003555",
                "storage": {}
            },
            "0x8e355e50a36b408bb1aa1c3159eeaec5940ec9ba": {
                "nonce": "0x00",
                "balance": "0x0de0b6b3a7640000",
                "code": "0x414341414243421a2055",
                "storage": {}
            }
        },
        "transaction": {
            "nonce": "0x00",
            "gasPrice": "0x0a",
            "gasLimit": [
                "0x061a80"
            ],
            "to": "0x8e355e50a36b408bb1aa1c3159eeaec5940ec9ba",
            "value": [
                "0x0186a0"
            ],
            "data": [
                "0x42"
            ],
            "sender": "0xebb985e99038c9369ae1f3bf5b60607d4bb58c5b",
            "secretKey": "0x9d2b090d59954eab19d659fd8e355e50a36b408bb1aa1c3159eeaec5940ec8ba"
        },
        "post": {
            "Osaka": [
                {
                    "hash": "0xc6a05d0ea41dc0fd89e25dd7e9a3614e88099817bcc315cf9849cd7e37d4e596",
                    "logs": "0x1dcc4de8dec75d7aab85b567b6ccd41ad312451b948a7413f0a142fd40d49347",
                    "txbytes": "0xf863800a83061a80948e355e50a36b408bb1aa1c3159eeaec5940ec9ba830186a04226a0b32c0b3d51163167eecd1ac7eaa412a72107c2d4964805195a190a2fce31fbe4a004ca773283ee35d770353cc6f74ad6642ccb98816a1f2ef6ff7f75d422102e57",
                    "indexes": {
                        "data": 0,
                        "gas": 0,
                        "value": 0
                    },
                    "state": {
                        "0xebb985e99038c9369ae1f3bf5b60607d4bb58c5b": {
                            "nonce": "0x01",
                            "balance": "0x0de0b6b3a75bd7fe",
                            "code": "0x",
                            "storage": {}
                        },
                        "0x8e355e50a36b408bb1aa1c3159eeaec5940ec8ba": {
                            "nonce": "0x00",
                            "balance": "0x2e",
                            "code": "0x6000355415600957005b60203560003555",
                            "storage": {}
                        },
                        "0x8e355e50a36b408bb1aa1c3159eeaec5940ec9ba": {
                            "nonce": "0x00",
                            "balance": "0x0de0b6b3a76586a0",
                            "code": "0x414341414243421a2055",
                            "storage": {
                                "0xae72e2bf2302ebcd309e003e5be58830f96deddaf87bb89eeea159388bfe3ec1": "0x8e355e50a36b408bb1aa1c3159eeaec5940ec8ba"
                            }
                        }
                    }
                }
            ]
        },
        "config": {
            "blobSchedule": {
                "Cancun": {
                    "target": "0x03",
                    "max": "0x06",
                    "baseFeeUpdateFraction": "0x32f0ed"
                },
                "Prague": {
                    "target": "0x06",
                    "max": "0x09",
                    "baseFeeUpdateFraction": "0x4c6964"
                },
                "Osaka": {
                    "target": "0x06",
                    "max": "0x09",
                    "baseFeeUpdateFraction": "0x4c6964"
                }
            },
            "chainid": "0x01"
        },
        "_info": {
            "hash": "0x642e7fc87e227913a7c3f6a0cab7117599a560fd352c741991138e16f5d0dfa9",
            "comment": "`execution-spec-tests` generated test",
            "filling-transition-tool": "ethereum-spec-evm-resolver 0.0.5",
            "description": "No description available - add a docstring to the python test class or function.",
            "url": "",
            "fixture-format": "state_test",
            "eels-resolution": {
                "git-url": "https://github.com/ethereum/execution-specs.git",
                "branch": "forks/bpos",
                "commit": "7aacb2c54111391af5e98c505d5010b5698a770f"
            }
        }
    },
    "tests/static/state_tests/stRandom/randomStatetest143Filler.json::randomStatetest143[fork_Prague-state_test-]": {
        "env": {
            "currentCoinbase": "0x8e355e50a36b408bb1aa1c3159eeaec5940ec8ba",
            "currentGasLimit": "0x7fffffffffffffff",
            "currentNumber": "0x01",
            "currentTimestamp": "0x03e8",
            "currentRandom": "0x0000000000000000000000000000000000000000000000000000000000020000",
            "currentDifficulty": "0x00",
            "currentBaseFee": "0x0a",
            "currentExcessBlobGas": "0x00"
        },
        "pre": {
            "0xebb985e99038c9369ae1f3bf5b60607d4bb58c5b": {
                "nonce": "0x00",
                "balance": "0x0de0b6b3a7640000",
                "code": "0x",
                "storage": {}
            },
            "0x8e355e50a36b408bb1aa1c3159eeaec5940ec8ba": {
                "nonce": "0x00",
                "balance": "0x2e",
                "code": "0x6000355415600957005b60203560003555",
                "storage": {}
            },
            "0x8e355e50a36b408bb1aa1c3159eeaec5940ec9ba": {
                "nonce": "0x00",
                "balance": "0x0de0b6b3a7640000",
                "code": "0x414341414243421a2055",
                "storage": {}
            }
        },
        "transaction": {
            "nonce": "0x00",
            "gasPrice": "0x0a",
            "gasLimit": [
                "0x061a80"
            ],
            "to": "0x8e355e50a36b408bb1aa1c3159eeaec5940ec9ba",
            "value": [
                "0x0186a0"
            ],
            "data": [
                "0x42"
            ],
            "sender": "0xebb985e99038c9369ae1f3bf5b60607d4bb58c5b",
            "secretKey": "0x9d2b090d59954eab19d659fd8e355e50a36b408bb1aa1c3159eeaec5940ec8ba"
        },
        "post": {
            "Prague": [
                {
                    "hash": "0xc6a05d0ea41dc0fd89e25dd7e9a3614e88099817bcc315cf9849cd7e37d4e596",
                    "logs": "0x1dcc4de8dec75d7aab85b567b6ccd41ad312451b948a7413f0a142fd40d49347",
                    "txbytes": "0xf863800a83061a80948e355e50a36b408bb1aa1c3159eeaec5940ec9ba830186a04226a0b32c0b3d51163167eecd1ac7eaa412a72107c2d4964805195a190a2fce31fbe4a004ca773283ee35d770353cc6f74ad6642ccb98816a1f2ef6ff7f75d422102e57",
                    "indexes": {
                        "data": 0,
                        "gas": 0,
                        "value": 0
                    },
                    "state": {
                        "0xebb985e99038c9369ae1f3bf5b60607d4bb58c5b": {
                            "nonce": "0x01",
                            "balance": "0x0de0b6b3a75bd7fe",
                            "code": "0x",
                            "storage": {}
                        },
                        "0x8e355e50a36b408bb1aa1c3159eeaec5940ec8ba": {
                            "nonce": "0x00",
                            "balance": "0x2e",
                            "code": "0x6000355415600957005b60203560003555",
                            "storage": {}
                        },
                        "0x8e355e50a36b408bb1aa1c3159eeaec5940ec9ba": {
                            "nonce": "0x00",
                            "balance": "0x0de0b6b3a76586a0",
                            "code": "0x414341414243421a2055",
                            "storage": {
                                "0xae72e2bf2302ebcd309e003e5be58830f96deddaf87bb89eeea159388bfe3ec1": "0x8e355e50a36b408bb1aa1c3159eeaec5940ec8ba"
                            }
                        }
                    }
                }
            ]
        },
        "config": {
            "blobSchedule": {
                "Cancun": {
                    "target": "0x03",
                    "max": "0x06",
                    "baseFeeUpdateFraction": "0x32f0ed"
                },
                "Prague": {
                    "target": "0x06",
                    "max": "0x09",
                    "baseFeeUpdateFraction": "0x4c6964"
                }
            },
            "chainid": "0x01"
        },
        "_info": {
            "hash": "0xb4ad85b24b3fc5def8d9c1d38287505cb3d065d9f30cea57fa0a0df5b5aa2b27",
            "comment": "`execution-spec-tests` generated test",
            "filling-transition-tool": "ethereum-spec-evm-resolver 0.0.5",
            "description": "No description available - add a docstring to the python test class or function.",
            "url": "",
            "fixture-format": "state_test",
            "eels-resolution": {
                "git-url": "https://github.com/ethereum/execution-specs.git",
                "branch": "forks/bpos",
                "commit": "7aacb2c54111391af5e98c505d5010b5698a770f"
            }
        }
    }
}