{
    "tests/static/state_tests/stRandom/randomStatetest26Filler.json::randomStatetest26[fork_Cancun-state_test-]": {
        "env": {
            "currentCoinbase": "0x4c044896dac78d52eec1c11ed2b7154c87786077",
            "currentGasLimit": "0x7fffffffffffffff",
            "currentNumber": "0x01",
            "currentTimestamp": "0x03e8",
            "currentRandom": "0x0000000000000000000000000000000000000000000000000000000000020000",
            "currentDifficulty": "0x00",
            "currentBaseFee": "0x0a",
            "currentExcessBlobGas": "0x00"
        },
        "pre": {
            "0xbb496b9fd386b709db4a85a4ca053102615468e5": {
                "nonce": "0x00",
                "balance": "0x0de0b6b3a7640000",
                "code": "0x",
                "storage": {}
            },
            "0x4c044896dac78d52eec1c11ed2b7154c87786077": {
                "nonce": "0x00",
                "balance": "0x2e",
                "code": "0x6000355415600957005b60203560003555",
                "storage": {}
            },
            "0x4c044896dac78d52eec1c11ed2b7154c87786177": {
                "nonce": "0x00",
                "balance": "0x0de0b6b3a7640000",
                "code": "0x434242445b41310755",
                "storage": {}
            }
        },
        "transaction": {
            "nonce": "0x00",
            "gasPrice": "0x0a",
            "gasLimit": [
                "0x061a80"
            ],
            "to": "0x4c044896dac78d52eec1c11ed2b7154c87786177",
            "value": [
                "0x0186a0"
            ],
            "data": [
                "0x42"
            ],
            "sender": "0xbb496b9fd386b709db4a85a4ca053102615468e5",
            "secretKey": "0x5b164263c995de6496f21e1d4c044896dac78d52eec1c11ed2b7154c87786077"
        },
        "post": {
            "Cancun": [
                {
                    "hash": "0xb7c7c6d070f5f367b89dfd3c9f23ac1af4e48f7afd4d45c900f1e9ece1aa603c",
                    "logs": "0x1dcc4de8dec75d7aab85b567b6ccd41ad312451b948a7413f0a142fd40d49347",
                    "txbytes": "0xf863800a83061a80944c044896dac78d52eec1c11ed2b7154c87786177830186a04225a0367a11923589e1addd712dfed608923f0e7dcaf0e9d68e167a7d47b847c114e5a06153ed3808fe7745102ca96a8f46163c1800f05107f7ce8d1e218554fa21714b",
                    "indexes": {
                        "data": 0,
                        "gas": 0,
                        "value": 0
                    },
                    "state": {
                        "0xbb496b9fd386b709db4a85a4ca053102615468e5": {
                            "nonce": "0x01",
                            "balance": "0x0de0b6b3a75be0a0",
                            "code": "0x",
                            "storage": {}
                        },
                        "0x4c044896dac78d52eec1c11ed2b7154c87786077": {
                            "nonce": "0x00",
                            "balance": "0x2e",
                            "code": "0x6000355415600957005b60203560003555",
                            "storage": {}
                        },
                        "0x4c044896dac78d52eec1c11ed2b7154c87786177": {
                            "nonce": "0x00",
                            "balance": "0x0de0b6b3a76586a0",
                            "code": "0x434242445b41310755",
                            "storage": {
                                "0x2e": "0x03e8"
                            }
                        }
                    }
                }
            ]
        },
        "config": {
            "blobSchedule": {
                "Cancun": {
                    "target": "0x03",
                    "max": "0x06",
                    "baseFeeUpdateFraction": "0x32f0ed"
                }
            },
            "chainid": "0x01"
        },
        "_info": {
            "hash": "0xda1d3b5db6e86677d075630952d90d52fab071d7f44caabbb89e5e35e6563f79",
            "comment": "`execution-spec-tests` generated test",
            "filling-transition-tool": "ethereum-spec-evm-resolver 0.0.5",
            "description": "No description available - add a docstring to the python test class or function.",
            "url": "",
            "fixture-format": "state_test",
            "eels-resolution": {
                "git-url": "https://github.com/marioevz/execution-specs.git",
                "branch": "forks/bpo1",
                "commit": "3387e5f4aedfe99becfdc39b444d6371e25e0924"
            }
        }
    },
    "tests/static/state_tests/stRandom/randomStatetest26Filler.json::randomStatetest26[fork_Osaka-state_test-]": {
        "env": {
            "currentCoinbase": "0x4c044896dac78d52eec1c11ed2b7154c87786077",
            "currentGasLimit": "0x7fffffffffffffff",
            "currentNumber": "0x01",
            "currentTimestamp": "0x03e8",
            "currentRandom": "0x0000000000000000000000000000000000000000000000000000000000020000",
            "currentDifficulty": "0x00",
            "currentBaseFee": "0x0a",
            "currentExcessBlobGas": "0x00"
        },
        "pre": {
            "0xbb496b9fd386b709db4a85a4ca053102615468e5": {
                "nonce": "0x00",
                "balance": "0x0de0b6b3a7640000",
                "code": "0x",
                "storage": {}
            },
            "0x4c044896dac78d52eec1c11ed2b7154c87786077": {
                "nonce": "0x00",
                "balance": "0x2e",
                "code": "0x6000355415600957005b60203560003555",
                "storage": {}
            },
            "0x4c044896dac78d52eec1c11ed2b7154c87786177": {
                "nonce": "0x00",
                "balance": "0x0de0b6b3a7640000",
                "code": "0x434242445b41310755",
                "storage": {}
            }
        },
        "transaction": {
            "nonce": "0x00",
            "gasPrice": "0x0a",
            "gasLimit": [
                "0x061a80"
            ],
            "to": "0x4c044896dac78d52eec1c11ed2b7154c87786177",
            "value": [
                "0x0186a0"
            ],
            "data": [
                "0x42"
            ],
            "sender": "0xbb496b9fd386b709db4a85a4ca053102615468e5",
            "secretKey": "0x5b164263c995de6496f21e1d4c044896dac78d52eec1c11ed2b7154c87786077"
        },
        "post": {
            "Osaka": [
                {
                    "hash": "0xb7c7c6d070f5f367b89dfd3c9f23ac1af4e48f7afd4d45c900f1e9ece1aa603c",
                    "logs": "0x1dcc4de8dec75d7aab85b567b6ccd41ad312451b948a7413f0a142fd40d49347",
                    "txbytes": "0xf863800a83061a80944c044896dac78d52eec1c11ed2b7154c87786177830186a04225a0367a11923589e1addd712dfed608923f0e7dcaf0e9d68e167a7d47b847c114e5a06153ed3808fe7745102ca96a8f46163c1800f05107f7ce8d1e218554fa21714b",
                    "indexes": {
                        "data": 0,
                        "gas": 0,
                        "value": 0
                    },
                    "state": {
                        "0xbb496b9fd386b709db4a85a4ca053102615468e5": {
                            "nonce": "0x01",
                            "balance": "0x0de0b6b3a75be0a0",
                            "code": "0x",
                            "storage": {}
                        },
                        "0x4c044896dac78d52eec1c11ed2b7154c87786077": {
                            "nonce": "0x00",
                            "balance": "0x2e",
                            "code": "0x6000355415600957005b60203560003555",
                            "storage": {}
                        },
                        "0x4c044896dac78d52eec1c11ed2b7154c87786177": {
                            "nonce": "0x00",
                            "balance": "0x0de0b6b3a76586a0",
                            "code": "0x434242445b41310755",
                            "storage": {
                                "0x2e": "0x03e8"
                            }
                        }
                    }
                }
            ]
        },
        "config": {
            "blobSchedule": {
                "Cancun": {
                    "target": "0x03",
                    "max": "0x06",
                    "baseFeeUpdateFraction": "0x32f0ed"
                },
                "Prague": {
                    "target": "0x06",
                    "max": "0x09",
                    "baseFeeUpdateFraction": "0x4c6964"
                },
                "Osaka": {
                    "target": "0x06",
                    "max": "0x09",
                    "baseFeeUpdateFraction": "0x4c6964"
                }
            },
            "chainid": "0x01"
        },
        "_info": {
            "hash": "0x4e4d8b5d614097cda45c8262560f9951430a51ec7d5eec6be32db2ead9b3ff2e",
            "comment": "`execution-spec-tests` generated test",
            "filling-transition-tool": "ethereum-spec-evm-resolver 0.0.5",
            "description": "No description available - add a docstring to the python test class or function.",
            "url": "",
            "fixture-format": "state_test",
            "eels-resolution": {
                "git-url": "https://github.com/marioevz/execution-specs.git",
                "branch": "forks/bpo1",
                "commit": "3387e5f4aedfe99becfdc39b444d6371e25e0924"
            }
        }
    },
    "tests/static/state_tests/stRandom/randomStatetest26Filler.json::randomStatetest26[fork_Prague-state_test-]": {
        "env": {
            "currentCoinbase": "0x4c044896dac78d52eec1c11ed2b7154c87786077",
            "currentGasLimit": "0x7fffffffffffffff",
            "currentNumber": "0x01",
            "currentTimestamp": "0x03e8",
            "currentRandom": "0x0000000000000000000000000000000000000000000000000000000000020000",
            "currentDifficulty": "0x00",
            "currentBaseFee": "0x0a",
            "currentExcessBlobGas": "0x00"
        },
        "pre": {
            "0xbb496b9fd386b709db4a85a4ca053102615468e5": {
                "nonce": "0x00",
                "balance": "0x0de0b6b3a7640000",
                "code": "0x",
                "storage": {}
            },
            "0x4c044896dac78d52eec1c11ed2b7154c87786077": {
                "nonce": "0x00",
                "balance": "0x2e",
                "code": "0x6000355415600957005b60203560003555",
                "storage": {}
            },
            "0x4c044896dac78d52eec1c11ed2b7154c87786177": {
                "nonce": "0x00",
                "balance": "0x0de0b6b3a7640000",
                "code": "0x434242445b41310755",
                "storage": {}
            }
        },
        "transaction": {
            "nonce": "0x00",
            "gasPrice": "0x0a",
            "gasLimit": [
                "0x061a80"
            ],
            "to": "0x4c044896dac78d52eec1c11ed2b7154c87786177",
            "value": [
                "0x0186a0"
            ],
            "data": [
                "0x42"
            ],
            "sender": "0xbb496b9fd386b709db4a85a4ca053102615468e5",
            "secretKey": "0x5b164263c995de6496f21e1d4c044896dac78d52eec1c11ed2b7154c87786077"
        },
        "post": {
            "Prague": [
                {
                    "hash": "0xb7c7c6d070f5f367b89dfd3c9f23ac1af4e48f7afd4d45c900f1e9ece1aa603c",
                    "logs": "0x1dcc4de8dec75d7aab85b567b6ccd41ad312451b948a7413f0a142fd40d49347",
                    "txbytes": "0xf863800a83061a80944c044896dac78d52eec1c11ed2b7154c87786177830186a04225a0367a11923589e1addd712dfed608923f0e7dcaf0e9d68e167a7d47b847c114e5a06153ed3808fe7745102ca96a8f46163c1800f05107f7ce8d1e218554fa21714b",
                    "indexes": {
                        "data": 0,
                        "gas": 0,
                        "value": 0
                    },
                    "state": {
                        "0xbb496b9fd386b709db4a85a4ca053102615468e5": {
                            "nonce": "0x01",
                            "balance": "0x0de0b6b3a75be0a0",
                            "code": "0x",
                            "storage": {}
                        },
                        "0x4c044896dac78d52eec1c11ed2b7154c87786077": {
                            "nonce": "0x00",
                            "balance": "0x2e",
                            "code": "0x6000355415600957005b60203560003555",
                            "storage": {}
                        },
                        "0x4c044896dac78d52eec1c11ed2b7154c87786177": {
                            "nonce": "0x00",
                            "balance": "0x0de0b6b3a76586a0",
                            "code": "0x434242445b41310755",
                            "storage": {
                                "0x2e": "0x03e8"
                            }
                        }
                    }
                }
            ]
        },
        "config": {
            "blobSchedule": {
                "Cancun": {
                    "target": "0x03",
                    "max": "0x06",
                    "baseFeeUpdateFraction": "0x32f0ed"
                },
                "Prague": {
                    "target": "0x06",
                    "max": "0x09",
                    "baseFeeUpdateFraction": "0x4c6964"
                }
            },
            "chainid": "0x01"
        },
        "_info": {
            "hash": "0x958cbcbc3fbdb4de9bfc2eaf68e3b4a1c2747dd6cae95e5b5b37dec17c5700dd",
            "comment": "`execution-spec-tests` generated test",
            "filling-transition-tool": "ethereum-spec-evm-resolver 0.0.5",
            "description": "No description available - add a docstring to the python test class or function.",
            "url": "",
            "fixture-format": "state_test",
            "eels-resolution": {
                "git-url": "https://github.com/marioevz/execution-specs.git",
                "branch": "forks/bpo1",
                "commit": "3387e5f4aedfe99becfdc39b444d6371e25e0924"
            }
        }
    }
}