{
    "tests/static/state_tests/stRandom/randomStatetest268Filler.json::randomStatetest268[fork_Cancun-state_test-]": {
        "env": {
            "currentCoinbase": "0x1205d690a542a178bb1b422c98410a93ff3a3af8",
            "currentGasLimit": "0x7fffffffffffffff",
            "currentNumber": "0x01",
            "currentTimestamp": "0x03e8",
            "currentRandom": "0x0000000000000000000000000000000000000000000000000000000000020000",
            "currentDifficulty": "0x00",
            "currentBaseFee": "0x0a",
            "currentExcessBlobGas": "0x00"
        },
        "pre": {
            "0x7927aa4ec13d26b5d860fb9920d4124c5043c6e2": {
                "nonce": "0x00",
                "balance": "0x0de0b6b3a7640000",
                "code": "0x",
                "storage": {}
            },
            "0x1205d690a542a178bb1b422c98410a93ff3a3af8": {
                "nonce": "0x00",
                "balance": "0x2e",
                "code": "0x6000355415600957005b60203560003555",
                "storage": {}
            },
            "0x1205d690a542a178bb1b422c98410a93ff3a3bf8": {
                "nonce": "0x00",
                "balance": "0x00",
                "code": "0x7f00000000000000000000000000000000000000000000000000000000000000017fffffffffffffffffffffffffffffffffffffffffffffffffffffffffffffffff7f00000000000000000000000000000000000000000000000000000000000000007f000000000000000000000000ffffffffffffffffffffffffffffffffffffffff7f0000000000000000000000001205d690a542a178bb1b422c98410a93ff3a3af87f000000000000000000000000000000000000000000000000000000000000c3507ffffffffffffffffffffffffffffffffffffffffffffffffffffffffffffffffe7f00000000000000000000000000000000000000000000000000000000000000016f7466f0a0733d8632639340634094425560005155",
                "storage": {}
            }
        },
        "transaction": {
            "nonce": "0x00",
            "gasPrice": "0x0a",
            "gasLimit": [
                "0x0186a0"
            ],
            "to": "0x1205d690a542a178bb1b422c98410a93ff3a3bf8",
            "value": [
                "0x2360d94a"
            ],
            "data": [
                "0x7f00000000000000000000000000000000000000000000000000000000000000017fffffffffffffffffffffffffffffffffffffffffffffffffffffffffffffffff7f00000000000000000000000000000000000000000000000000000000000000007f000000000000000000000000ffffffffffffffffffffffffffffffffffffffff7f0000000000000000000000001205d690a542a178bb1b422c98410a93ff3a3af87f000000000000000000000000000000000000000000000000000000000000c3507ffffffffffffffffffffffffffffffffffffffffffffffffffffffffffffffffe7f00000000000000000000000000000000000000000000000000000000000000016f7466f0a0733d863263934063409442"
            ],
            "sender": "0x7927aa4ec13d26b5d860fb9920d4124c5043c6e2",
            "secretKey": "0x0b965331d5191143eb625c601205d690a542a178bb1b422c98410a93ff3a3af8"
        },
        "post": {
            "Cancun": [
                {
                    "hash": "0xcf414949f9433725de6ac76e6a1f429751bcbfa4f0e71a37390373f3a072960c",
                    "logs": "0x1dcc4de8dec75d7aab85b567b6ccd41ad312451b948a7413f0a142fd40d49347",
                    "txbytes": "0xf9017e800a830186a0941205d690a542a178bb1b422c98410a93ff3a3bf8842360d94ab901187f00000000000000000000000000000000000000000000000000000000000000017fffffffffffffffffffffffffffffffffffffffffffffffffffffffffffffffff7f00000000000000000000000000000000000000000000000000000000000000007f000000000000000000000000ffffffffffffffffffffffffffffffffffffffff7f0000000000000000000000001205d690a542a178bb1b422c98410a93ff3a3af87f000000000000000000000000000000000000000000000000000000000000c3507ffffffffffffffffffffffffffffffffffffffffffffffffffffffffffffffffe7f00000000000000000000000000000000000000000000000000000000000000016f7466f0a0733d86326393406340944226a00247931033228076c124ef9cb08b83e79578fdac56967d85932717bd97d00814a04e6c82bc9d4dbd739711faa9bf1ad8b0ef5b070c9633c66ac4d7cfe5a396b5f8",
                    "indexes": {
                        "data": 0,
                        "gas": 0,
                        "value": 0
                    },
                    "state": {
                        "0x7927aa4ec13d26b5d860fb9920d4124c5043c6e2": {
                            "nonce": "0x01",
                            "balance": "0x0de0b6b383fc2816",
                            "code": "0x",
                            "storage": {}
                        },
                        "0x1205d690a542a178bb1b422c98410a93ff3a3af8": {
                            "nonce": "0x00",
                            "balance": "0x2e",
                            "code": "0x6000355415600957005b60203560003555",
                            "storage": {}
                        },
                        "0x1205d690a542a178bb1b422c98410a93ff3a3bf8": {
                            "nonce": "0x00",
                            "balance": "0x2360d94a",
                            "code": "0x7f00000000000000000000000000000000000000000000000000000000000000017fffffffffffffffffffffffffffffffffffffffffffffffffffffffffffffffff7f00000000000000000000000000000000000000000000000000000000000000007f000000000000000000000000ffffffffffffffffffffffffffffffffffffffff7f0000000000000000000000001205d690a542a178bb1b422c98410a93ff3a3af87f000000000000000000000000000000000000000000000000000000000000c3507ffffffffffffffffffffffffffffffffffffffffffffffffffffffffffffffffe7f00000000000000000000000000000000000000000000000000000000000000016f7466f0a0733d8632639340634094425560005155",
                            "storage": {
                                "0x00": "0x7466f0a0733d86326393406340944255"
                            }
                        }
                    }
                }
            ]
        },
        "config": {
            "blobSchedule": {
                "Cancun": {
                    "target": "0x03",
                    "max": "0x06",
                    "baseFeeUpdateFraction": "0x32f0ed"
                }
            },
            "chainid": "0x01"
        },
        "_info": {
            "hash": "0x85b5ed10c725525f96cc9a8f02062aad9f46150289b1e4c0af48045e0cd942e5",
            "comment": "`execution-spec-tests` generated test",
            "filling-transition-tool": "ethereum-spec-evm-resolver 0.0.5",
            "description": "No description available - add a docstring to the python test class or function.",
            "url": "",
            "fixture-format": "state_test",
            "eels-resolution": {
                "git-url": "https://github.com/ethereum/execution-specs.git",
                "branch": "forks/bpos",
                "commit": "7aacb2c54111391af5e98c505d5010b5698a770f"
            }
        }
    },
    "tests/static/state_tests/stRandom/randomStatetest268Filler.json::randomStatetest268[fork_Osaka-state_test-]": {
        "env": {
            "currentCoinbase": "0x1205d690a542a178bb1b422c98410a93ff3a3af8",
            "currentGasLimit": "0x7fffffffffffffff",
            "currentNumber": "0x01",
            "currentTimestamp": "0x03e8",
            "currentRandom": "0x0000000000000000000000000000000000000000000000000000000000020000",
            "currentDifficulty": "0x00",
            "currentBaseFee": "0x0a",
            "currentExcessBlobGas": "0x00"
        },
        "pre": {
            "0x7927aa4ec13d26b5d860fb9920d4124c5043c6e2": {
                "nonce": "0x00",
                "balance": "0x0de0b6b3a7640000",
                "code": "0x",
                "storage": {}
            },
            "0x1205d690a542a178bb1b422c98410a93ff3a3af8": {
                "nonce": "0x00",
                "balance": "0x2e",
                "code": "0x6000355415600957005b60203560003555",
                "storage": {}
            },
            "0x1205d690a542a178bb1b422c98410a93ff3a3bf8": {
                "nonce": "0x00",
                "balance": "0x00",
                "code": "0x7f00000000000000000000000000000000000000000000000000000000000000017fffffffffffffffffffffffffffffffffffffffffffffffffffffffffffffffff7f00000000000000000000000000000000000000000000000000000000000000007f000000000000000000000000ffffffffffffffffffffffffffffffffffffffff7f0000000000000000000000001205d690a542a178bb1b422c98410a93ff3a3af87f000000000000000000000000000000000000000000000000000000000000c3507ffffffffffffffffffffffffffffffffffffffffffffffffffffffffffffffffe7f00000000000000000000000000000000000000000000000000000000000000016f7466f0a0733d8632639340634094425560005155",
                "storage": {}
            }
        },
        "transaction": {
            "nonce": "0x00",
            "gasPrice": "0x0a",
            "gasLimit": [
                "0x0186a0"
            ],
            "to": "0x1205d690a542a178bb1b422c98410a93ff3a3bf8",
            "value": [
                "0x2360d94a"
            ],
            "data": [
                "0x7f00000000000000000000000000000000000000000000000000000000000000017fffffffffffffffffffffffffffffffffffffffffffffffffffffffffffffffff7f00000000000000000000000000000000000000000000000000000000000000007f000000000000000000000000ffffffffffffffffffffffffffffffffffffffff7f0000000000000000000000001205d690a542a178bb1b422c98410a93ff3a3af87f000000000000000000000000000000000000000000000000000000000000c3507ffffffffffffffffffffffffffffffffffffffffffffffffffffffffffffffffe7f00000000000000000000000000000000000000000000000000000000000000016f7466f0a0733d863263934063409442"
            ],
            "sender": "0x7927aa4ec13d26b5d860fb9920d4124c5043c6e2",
            "secretKey": "0x0b965331d5191143eb625c601205d690a542a178bb1b422c98410a93ff3a3af8"
        },
        "post": {
            "Osaka": [
                {
                    "hash": "0xcf414949f9433725de6ac76e6a1f429751bcbfa4f0e71a37390373f3a072960c",
                    "logs": "0x1dcc4de8dec75d7aab85b567b6ccd41ad312451b948a7413f0a142fd40d49347",
                    "txbytes": "0xf9017e800a830186a0941205d690a542a178bb1b422c98410a93ff3a3bf8842360d94ab901187f00000000000000000000000000000000000000000000000000000000000000017fffffffffffffffffffffffffffffffffffffffffffffffffffffffffffffffff7f00000000000000000000000000000000000000000000000000000000000000007f000000000000000000000000ffffffffffffffffffffffffffffffffffffffff7f0000000000000000000000001205d690a542a178bb1b422c98410a93ff3a3af87f000000000000000000000000000000000000000000000000000000000000c3507ffffffffffffffffffffffffffffffffffffffffffffffffffffffffffffffffe7f00000000000000000000000000000000000000000000000000000000000000016f7466f0a0733d86326393406340944226a00247931033228076c124ef9cb08b83e79578fdac56967d85932717bd97d00814a04e6c82bc9d4dbd739711faa9bf1ad8b0ef5b070c9633c66ac4d7cfe5a396b5f8",
                    "indexes": {
                        "data": 0,
                        "gas": 0,
                        "value": 0
                    },
                    "state": {
                        "0x7927aa4ec13d26b5d860fb9920d4124c5043c6e2": {
                            "nonce": "0x01",
                            "balance": "0x0de0b6b383fc2816",
                            "code": "0x",
                            "storage": {}
                        },
                        "0x1205d690a542a178bb1b422c98410a93ff3a3af8": {
                            "nonce": "0x00",
                            "balance": "0x2e",
                            "code": "0x6000355415600957005b60203560003555",
                            "storage": {}
                        },
                        "0x1205d690a542a178bb1b422c98410a93ff3a3bf8": {
                            "nonce": "0x00",
                            "balance": "0x2360d94a",
                            "code": "0x7f00000000000000000000000000000000000000000000000000000000000000017fffffffffffffffffffffffffffffffffffffffffffffffffffffffffffffffff7f00000000000000000000000000000000000000000000000000000000000000007f000000000000000000000000ffffffffffffffffffffffffffffffffffffffff7f0000000000000000000000001205d690a542a178bb1b422c98410a93ff3a3af87f000000000000000000000000000000000000000000000000000000000000c3507ffffffffffffffffffffffffffffffffffffffffffffffffffffffffffffffffe7f00000000000000000000000000000000000000000000000000000000000000016f7466f0a0733d8632639340634094425560005155",
                            "storage": {
                                "0x00": "0x7466f0a0733d86326393406340944255"
                            }
                        }
                    }
                }
            ]
        },
        "config": {
            "blobSchedule": {
                "Cancun": {
                    "target": "0x03",
                    "max": "0x06",
                    "baseFeeUpdateFraction": "0x32f0ed"
                },
                "Prague": {
                    "target": "0x06",
                    "max": "0x09",
                    "baseFeeUpdateFraction": "0x4c6964"
                },
                "Osaka": {
                    "target": "0x06",
                    "max": "0x09",
                    "baseFeeUpdateFraction": "0x4c6964"
                }
            },
            "chainid": "0x01"
        },
        "_info": {
            "hash": "0xe0879fa75568e176678770d23ef8871163080fc10be0e6f8a8efc25e67425c65",
            "comment": "`execution-spec-tests` generated test",
            "filling-transition-tool": "ethereum-spec-evm-resolver 0.0.5",
            "description": "No description available - add a docstring to the python test class or function.",
            "url": "",
            "fixture-format": "state_test",
            "eels-resolution": {
                "git-url": "https://github.com/ethereum/execution-specs.git",
                "branch": "forks/bpos",
                "commit": "7aacb2c54111391af5e98c505d5010b5698a770f"
            }
        }
    },
    "tests/static/state_tests/stRandom/randomStatetest268Filler.json::randomStatetest268[fork_Prague-state_test-]": {
        "env": {
            "currentCoinbase": "0x1205d690a542a178bb1b422c98410a93ff3a3af8",
            "currentGasLimit": "0x7fffffffffffffff",
            "currentNumber": "0x01",
            "currentTimestamp": "0x03e8",
            "currentRandom": "0x0000000000000000000000000000000000000000000000000000000000020000",
            "currentDifficulty": "0x00",
            "currentBaseFee": "0x0a",
            "currentExcessBlobGas": "0x00"
        },
        "pre": {
            "0x7927aa4ec13d26b5d860fb9920d4124c5043c6e2": {
                "nonce": "0x00",
                "balance": "0x0de0b6b3a7640000",
                "code": "0x",
                "storage": {}
            },
            "0x1205d690a542a178bb1b422c98410a93ff3a3af8": {
                "nonce": "0x00",
                "balance": "0x2e",
                "code": "0x6000355415600957005b60203560003555",
                "storage": {}
            },
            "0x1205d690a542a178bb1b422c98410a93ff3a3bf8": {
                "nonce": "0x00",
                "balance": "0x00",
                "code": "0x7f00000000000000000000000000000000000000000000000000000000000000017fffffffffffffffffffffffffffffffffffffffffffffffffffffffffffffffff7f00000000000000000000000000000000000000000000000000000000000000007f000000000000000000000000ffffffffffffffffffffffffffffffffffffffff7f0000000000000000000000001205d690a542a178bb1b422c98410a93ff3a3af87f000000000000000000000000000000000000000000000000000000000000c3507ffffffffffffffffffffffffffffffffffffffffffffffffffffffffffffffffe7f00000000000000000000000000000000000000000000000000000000000000016f7466f0a0733d8632639340634094425560005155",
                "storage": {}
            }
        },
        "transaction": {
            "nonce": "0x00",
            "gasPrice": "0x0a",
            "gasLimit": [
                "0x0186a0"
            ],
            "to": "0x1205d690a542a178bb1b422c98410a93ff3a3bf8",
            "value": [
                "0x2360d94a"
            ],
            "data": [
                "0x7f00000000000000000000000000000000000000000000000000000000000000017fffffffffffffffffffffffffffffffffffffffffffffffffffffffffffffffff7f00000000000000000000000000000000000000000000000000000000000000007f000000000000000000000000ffffffffffffffffffffffffffffffffffffffff7f0000000000000000000000001205d690a542a178bb1b422c98410a93ff3a3af87f000000000000000000000000000000000000000000000000000000000000c3507ffffffffffffffffffffffffffffffffffffffffffffffffffffffffffffffffe7f00000000000000000000000000000000000000000000000000000000000000016f7466f0a0733d863263934063409442"
            ],
            "sender": "0x7927aa4ec13d26b5d860fb9920d4124c5043c6e2",
            "secretKey": "0x0b965331d5191143eb625c601205d690a542a178bb1b422c98410a93ff3a3af8"
        },
        "post": {
            "Prague": [
                {
                    "hash": "0xcf414949f9433725de6ac76e6a1f429751bcbfa4f0e71a37390373f3a072960c",
                    "logs": "0x1dcc4de8dec75d7aab85b567b6ccd41ad312451b948a7413f0a142fd40d49347",
                    "txbytes": "0xf9017e800a830186a0941205d690a542a178bb1b422c98410a93ff3a3bf8842360d94ab901187f00000000000000000000000000000000000000000000000000000000000000017fffffffffffffffffffffffffffffffffffffffffffffffffffffffffffffffff7f00000000000000000000000000000000000000000000000000000000000000007f000000000000000000000000ffffffffffffffffffffffffffffffffffffffff7f0000000000000000000000001205d690a542a178bb1b422c98410a93ff3a3af87f000000000000000000000000000000000000000000000000000000000000c3507ffffffffffffffffffffffffffffffffffffffffffffffffffffffffffffffffe7f00000000000000000000000000000000000000000000000000000000000000016f7466f0a0733d86326393406340944226a00247931033228076c124ef9cb08b83e79578fdac56967d85932717bd97d00814a04e6c82bc9d4dbd739711faa9bf1ad8b0ef5b070c9633c66ac4d7cfe5a396b5f8",
                    "indexes": {
                        "data": 0,
                        "gas": 0,
                        "value": 0
                    },
                    "state": {
                        "0x7927aa4ec13d26b5d860fb9920d4124c5043c6e2": {
                            "nonce": "0x01",
                            "balance": "0x0de0b6b383fc2816",
                            "code": "0x",
                            "storage": {}
                        },
                        "0x1205d690a542a178bb1b422c98410a93ff3a3af8": {
                            "nonce": "0x00",
                            "balance": "0x2e",
                            "code": "0x6000355415600957005b60203560003555",
                            "storage": {}
                        },
                        "0x1205d690a542a178bb1b422c98410a93ff3a3bf8": {
                            "nonce": "0x00",
                            "balance": "0x2360d94a",
                            "code": "0x7f00000000000000000000000000000000000000000000000000000000000000017fffffffffffffffffffffffffffffffffffffffffffffffffffffffffffffffff7f00000000000000000000000000000000000000000000000000000000000000007f000000000000000000000000ffffffffffffffffffffffffffffffffffffffff7f0000000000000000000000001205d690a542a178bb1b422c98410a93ff3a3af87f000000000000000000000000000000000000000000000000000000000000c3507ffffffffffffffffffffffffffffffffffffffffffffffffffffffffffffffffe7f00000000000000000000000000000000000000000000000000000000000000016f7466f0a0733d8632639340634094425560005155",
                            "storage": {
                                "0x00": "0x7466f0a0733d86326393406340944255"
                            }
                        }
                    }
                }
            ]
        },
        "config": {
            "blobSchedule": {
                "Cancun": {
                    "target": "0x03",
                    "max": "0x06",
                    "baseFeeUpdateFraction": "0x32f0ed"
                },
                "Prague": {
                    "target": "0x06",
                    "max": "0x09",
                    "baseFeeUpdateFraction": "0x4c6964"
                }
            },
            "chainid": "0x01"
        },
        "_info": {
            "hash": "0x3486d72a209a428eefff0ee714bd3023ede7b14b2a0f62dd07a93993c11df6fa",
            "comment": "`execution-spec-tests` generated test",
            "filling-transition-tool": "ethereum-spec-evm-resolver 0.0.5",
            "description": "No description available - add a docstring to the python test class or function.",
            "url": "",
            "fixture-format": "state_test",
            "eels-resolution": {
                "git-url": "https://github.com/ethereum/execution-specs.git",
                "branch": "forks/bpos",
                "commit": "7aacb2c54111391af5e98c505d5010b5698a770f"
            }
        }
    }
}