{
    "tests/static/state_tests/stRandom/randomStatetest216Filler.json::randomStatetest216[fork_Cancun-state_test-]": {
        "env": {
            "currentCoinbase": "0x7bb0619a0684bf55e1cedb9f0ccaecdab8ffff79",
            "currentGasLimit": "0x7fffffffffffffff",
            "currentNumber": "0x01",
            "currentTimestamp": "0x03e8",
            "currentRandom": "0x0000000000000000000000000000000000000000000000000000000000020000",
            "currentDifficulty": "0x00",
            "currentBaseFee": "0x0a",
            "currentExcessBlobGas": "0x00"
        },
        "pre": {
            "0x0480237dc5c3c07e21a80845cbf5fb6fd6ebba6e": {
                "nonce": "0x00",
                "balance": "0x0de0b6b3a7640000",
                "code": "0x",
                "storage": {}
            },
            "0x7bb0619a0684bf55e1cedb9f0ccaecdab8ffff79": {
                "nonce": "0x00",
                "balance": "0x2e",
                "code": "0x6000355415600957005b60203560003555",
                "storage": {}
            },
            "0x7bb0619a0684bf55e1cedb9f0ccaecdab9000079": {
                "nonce": "0x00",
                "balance": "0x00",
                "code": "0x7f00000000000000000000000000000000000000000000000000000000000000007f000000000000000000000000000000000000000000000000000000000000c3507f000000000000000000000000000000000000000000000000000000000000c350447f0000000000000000000000007bb0619a0684bf55e1cedb9f0ccaecdab8ffff797f000000000000000000000000000000000000000000000000000000000000c3507ffffffffffffffffffffffffffffffffffffffffffffffffffffffffffffffffe7f000000000000000000000000000000000000000000000000000000000000c3506d766d67fe0785320899130644945560005155",
                "storage": {}
            }
        },
        "transaction": {
            "nonce": "0x00",
            "gasPrice": "0x0a",
            "gasLimit": [
                "0x0186a0"
            ],
            "to": "0x7bb0619a0684bf55e1cedb9f0ccaecdab9000079",
            "value": [
                "0x288181dd"
            ],
            "data": [
                "0x7f00000000000000000000000000000000000000000000000000000000000000007f000000000000000000000000000000000000000000000000000000000000c3507f000000000000000000000000000000000000000000000000000000000000c350447f0000000000000000000000007bb0619a0684bf55e1cedb9f0ccaecdab8ffff797f000000000000000000000000000000000000000000000000000000000000c3507ffffffffffffffffffffffffffffffffffffffffffffffffffffffffffffffffe7f000000000000000000000000000000000000000000000000000000000000c3506d766d67fe078532089913064494"
            ],
            "sender": "0x0480237dc5c3c07e21a80845cbf5fb6fd6ebba6e",
            "secretKey": "0x2c83b5120f72f669034294da7bb0619a0684bf55e1cedb9f0ccaecdab8ffff79"
        },
        "post": {
            "Cancun": [
                {
                    "hash": "0x9084011d4da20a9d6400ee571b6450de62ccabc169038c5253b5ae916c09c8a2",
                    "logs": "0x1dcc4de8dec75d7aab85b567b6ccd41ad312451b948a7413f0a142fd40d49347",
                    "txbytes": "0xf9015b800a830186a0947bb0619a0684bf55e1cedb9f0ccaecdab900007984288181ddb8f67f00000000000000000000000000000000000000000000000000000000000000007f000000000000000000000000000000000000000000000000000000000000c3507f000000000000000000000000000000000000000000000000000000000000c350447f0000000000000000000000007bb0619a0684bf55e1cedb9f0ccaecdab8ffff797f000000000000000000000000000000000000000000000000000000000000c3507ffffffffffffffffffffffffffffffffffffffffffffffffffffffffffffffffe7f000000000000000000000000000000000000000000000000000000000000c3506d766d67fe07853208991306449425a0e5b1f06bd15caca3bcb70372f70ed6b05d283a4695f720d1e406f112d110a06aa016dcb27a86022ff17688d830397209b36417b57d972a4bfa85a05283700ed5c0",
                    "indexes": {
                        "data": 0,
                        "gas": 0,
                        "value": 0
                    },
                    "state": {
                        "0x0480237dc5c3c07e21a80845cbf5fb6fd6ebba6e": {
                            "nonce": "0x01",
                            "balance": "0x0de0b6b37edb9c4d",
                            "code": "0x",
                            "storage": {}
                        },
                        "0x7bb0619a0684bf55e1cedb9f0ccaecdab8ffff79": {
                            "nonce": "0x00",
                            "balance": "0x2e",
                            "code": "0x6000355415600957005b60203560003555",
                            "storage": {}
                        },
                        "0x7bb0619a0684bf55e1cedb9f0ccaecdab9000079": {
                            "nonce": "0x00",
                            "balance": "0x288181dd",
                            "code": "0x7f00000000000000000000000000000000000000000000000000000000000000007f000000000000000000000000000000000000000000000000000000000000c3507f000000000000000000000000000000000000000000000000000000000000c350447f0000000000000000000000007bb0619a0684bf55e1cedb9f0ccaecdab8ffff797f000000000000000000000000000000000000000000000000000000000000c3507ffffffffffffffffffffffffffffffffffffffffffffffffffffffffffffffffe7f000000000000000000000000000000000000000000000000000000000000c3506d766d67fe0785320899130644945560005155",
                            "storage": {
                                "0x00": "0x766d67fe07853208991306449455"
                            }
                        }
                    }
                }
            ]
        },
        "config": {
            "blobSchedule": {
                "Cancun": {
                    "target": "0x03",
                    "max": "0x06",
                    "baseFeeUpdateFraction": "0x32f0ed"
                }
            },
            "chainid": "0x01"
        },
        "_info": {
            "hash": "0x74607aa1067e873598c2eba7a91048030e14ad59062d91991c3296ada5320a85",
            "comment": "`execution-spec-tests` generated test",
            "filling-transition-tool": "ethereum-spec-evm-resolver 0.0.5",
            "description": "No description available - add a docstring to the python test class or function.",
            "url": "",
            "fixture-format": "state_test",
            "eels-resolution": {
                "git-url": "https://github.com/marioevz/execution-specs.git",
                "branch": "forks/bpo1",
                "commit": "3387e5f4aedfe99becfdc39b444d6371e25e0924"
            }
        }
    },
    "tests/static/state_tests/stRandom/randomStatetest216Filler.json::randomStatetest216[fork_Osaka-state_test-]": {
        "env": {
            "currentCoinbase": "0x7bb0619a0684bf55e1cedb9f0ccaecdab8ffff79",
            "currentGasLimit": "0x7fffffffffffffff",
            "currentNumber": "0x01",
            "currentTimestamp": "0x03e8",
            "currentRandom": "0x0000000000000000000000000000000000000000000000000000000000020000",
            "currentDifficulty": "0x00",
            "currentBaseFee": "0x0a",
            "currentExcessBlobGas": "0x00"
        },
        "pre": {
            "0x0480237dc5c3c07e21a80845cbf5fb6fd6ebba6e": {
                "nonce": "0x00",
                "balance": "0x0de0b6b3a7640000",
                "code": "0x",
                "storage": {}
            },
            "0x7bb0619a0684bf55e1cedb9f0ccaecdab8ffff79": {
                "nonce": "0x00",
                "balance": "0x2e",
                "code": "0x6000355415600957005b60203560003555",
                "storage": {}
            },
            "0x7bb0619a0684bf55e1cedb9f0ccaecdab9000079": {
                "nonce": "0x00",
                "balance": "0x00",
                "code": "0x7f00000000000000000000000000000000000000000000000000000000000000007f000000000000000000000000000000000000000000000000000000000000c3507f000000000000000000000000000000000000000000000000000000000000c350447f0000000000000000000000007bb0619a0684bf55e1cedb9f0ccaecdab8ffff797f000000000000000000000000000000000000000000000000000000000000c3507ffffffffffffffffffffffffffffffffffffffffffffffffffffffffffffffffe7f000000000000000000000000000000000000000000000000000000000000c3506d766d67fe0785320899130644945560005155",
                "storage": {}
            }
        },
        "transaction": {
            "nonce": "0x00",
            "gasPrice": "0x0a",
            "gasLimit": [
                "0x0186a0"
            ],
            "to": "0x7bb0619a0684bf55e1cedb9f0ccaecdab9000079",
            "value": [
                "0x288181dd"
            ],
            "data": [
                "0x7f00000000000000000000000000000000000000000000000000000000000000007f000000000000000000000000000000000000000000000000000000000000c3507f000000000000000000000000000000000000000000000000000000000000c350447f0000000000000000000000007bb0619a0684bf55e1cedb9f0ccaecdab8ffff797f000000000000000000000000000000000000000000000000000000000000c3507ffffffffffffffffffffffffffffffffffffffffffffffffffffffffffffffffe7f000000000000000000000000000000000000000000000000000000000000c3506d766d67fe078532089913064494"
            ],
            "sender": "0x0480237dc5c3c07e21a80845cbf5fb6fd6ebba6e",
            "secretKey": "0x2c83b5120f72f669034294da7bb0619a0684bf55e1cedb9f0ccaecdab8ffff79"
        },
        "post": {
            "Osaka": [
                {
                    "hash": "0x9084011d4da20a9d6400ee571b6450de62ccabc169038c5253b5ae916c09c8a2",
                    "logs": "0x1dcc4de8dec75d7aab85b567b6ccd41ad312451b948a7413f0a142fd40d49347",
                    "txbytes": "0xf9015b800a830186a0947bb0619a0684bf55e1cedb9f0ccaecdab900007984288181ddb8f67f00000000000000000000000000000000000000000000000000000000000000007f000000000000000000000000000000000000000000000000000000000000c3507f000000000000000000000000000000000000000000000000000000000000c350447f0000000000000000000000007bb0619a0684bf55e1cedb9f0ccaecdab8ffff797f000000000000000000000000000000000000000000000000000000000000c3507ffffffffffffffffffffffffffffffffffffffffffffffffffffffffffffffffe7f000000000000000000000000000000000000000000000000000000000000c3506d766d67fe07853208991306449425a0e5b1f06bd15caca3bcb70372f70ed6b05d283a4695f720d1e406f112d110a06aa016dcb27a86022ff17688d830397209b36417b57d972a4bfa85a05283700ed5c0",
                    "indexes": {
                        "data": 0,
                        "gas": 0,
                        "value": 0
                    },
                    "state": {
                        "0x0480237dc5c3c07e21a80845cbf5fb6fd6ebba6e": {
                            "nonce": "0x01",
                            "balance": "0x0de0b6b37edb9c4d",
                            "code": "0x",
                            "storage": {}
                        },
                        "0x7bb0619a0684bf55e1cedb9f0ccaecdab8ffff79": {
                            "nonce": "0x00",
                            "balance": "0x2e",
                            "code": "0x6000355415600957005b60203560003555",
                            "storage": {}
                        },
                        "0x7bb0619a0684bf55e1cedb9f0ccaecdab9000079": {
                            "nonce": "0x00",
                            "balance": "0x288181dd",
                            "code": "0x7f00000000000000000000000000000000000000000000000000000000000000007f000000000000000000000000000000000000000000000000000000000000c3507f000000000000000000000000000000000000000000000000000000000000c350447f0000000000000000000000007bb0619a0684bf55e1cedb9f0ccaecdab8ffff797f000000000000000000000000000000000000000000000000000000000000c3507ffffffffffffffffffffffffffffffffffffffffffffffffffffffffffffffffe7f000000000000000000000000000000000000000000000000000000000000c3506d766d67fe0785320899130644945560005155",
                            "storage": {
                                "0x00": "0x766d67fe07853208991306449455"
                            }
                        }
                    }
                }
            ]
        },
        "config": {
            "blobSchedule": {
                "Cancun": {
                    "target": "0x03",
                    "max": "0x06",
                    "baseFeeUpdateFraction": "0x32f0ed"
                },
                "Prague": {
                    "target": "0x06",
                    "max": "0x09",
                    "baseFeeUpdateFraction": "0x4c6964"
                },
                "Osaka": {
                    "target": "0x06",
                    "max": "0x09",
                    "baseFeeUpdateFraction": "0x4c6964"
                }
            },
            "chainid": "0x01"
        },
        "_info": {
            "hash": "0x2a81f95b38bdae78db5d624631d7c92a4c293ea73fefea8b320dae1b797238d8",
            "comment": "`execution-spec-tests` generated test",
            "filling-transition-tool": "ethereum-spec-evm-resolver 0.0.5",
            "description": "No description available - add a docstring to the python test class or function.",
            "url": "",
            "fixture-format": "state_test",
            "eels-resolution": {
                "git-url": "https://github.com/marioevz/execution-specs.git",
                "branch": "forks/bpo1",
                "commit": "3387e5f4aedfe99becfdc39b444d6371e25e0924"
            }
        }
    },
    "tests/static/state_tests/stRandom/randomStatetest216Filler.json::randomStatetest216[fork_Prague-state_test-]": {
        "env": {
            "currentCoinbase": "0x7bb0619a0684bf55e1cedb9f0ccaecdab8ffff79",
            "currentGasLimit": "0x7fffffffffffffff",
            "currentNumber": "0x01",
            "currentTimestamp": "0x03e8",
            "currentRandom": "0x0000000000000000000000000000000000000000000000000000000000020000",
            "currentDifficulty": "0x00",
            "currentBaseFee": "0x0a",
            "currentExcessBlobGas": "0x00"
        },
        "pre": {
            "0x0480237dc5c3c07e21a80845cbf5fb6fd6ebba6e": {
                "nonce": "0x00",
                "balance": "0x0de0b6b3a7640000",
                "code": "0x",
                "storage": {}
            },
            "0x7bb0619a0684bf55e1cedb9f0ccaecdab8ffff79": {
                "nonce": "0x00",
                "balance": "0x2e",
                "code": "0x6000355415600957005b60203560003555",
                "storage": {}
            },
            "0x7bb0619a0684bf55e1cedb9f0ccaecdab9000079": {
                "nonce": "0x00",
                "balance": "0x00",
                "code": "0x7f00000000000000000000000000000000000000000000000000000000000000007f000000000000000000000000000000000000000000000000000000000000c3507f000000000000000000000000000000000000000000000000000000000000c350447f0000000000000000000000007bb0619a0684bf55e1cedb9f0ccaecdab8ffff797f000000000000000000000000000000000000000000000000000000000000c3507ffffffffffffffffffffffffffffffffffffffffffffffffffffffffffffffffe7f000000000000000000000000000000000000000000000000000000000000c3506d766d67fe0785320899130644945560005155",
                "storage": {}
            }
        },
        "transaction": {
            "nonce": "0x00",
            "gasPrice": "0x0a",
            "gasLimit": [
                "0x0186a0"
            ],
            "to": "0x7bb0619a0684bf55e1cedb9f0ccaecdab9000079",
            "value": [
                "0x288181dd"
            ],
            "data": [
                "0x7f00000000000000000000000000000000000000000000000000000000000000007f000000000000000000000000000000000000000000000000000000000000c3507f000000000000000000000000000000000000000000000000000000000000c350447f0000000000000000000000007bb0619a0684bf55e1cedb9f0ccaecdab8ffff797f000000000000000000000000000000000000000000000000000000000000c3507ffffffffffffffffffffffffffffffffffffffffffffffffffffffffffffffffe7f000000000000000000000000000000000000000000000000000000000000c3506d766d67fe078532089913064494"
            ],
            "sender": "0x0480237dc5c3c07e21a80845cbf5fb6fd6ebba6e",
            "secretKey": "0x2c83b5120f72f669034294da7bb0619a0684bf55e1cedb9f0ccaecdab8ffff79"
        },
        "post": {
            "Prague": [
                {
                    "hash": "0x9084011d4da20a9d6400ee571b6450de62ccabc169038c5253b5ae916c09c8a2",
                    "logs": "0x1dcc4de8dec75d7aab85b567b6ccd41ad312451b948a7413f0a142fd40d49347",
                    "txbytes": "0xf9015b800a830186a0947bb0619a0684bf55e1cedb9f0ccaecdab900007984288181ddb8f67f00000000000000000000000000000000000000000000000000000000000000007f000000000000000000000000000000000000000000000000000000000000c3507f000000000000000000000000000000000000000000000000000000000000c350447f0000000000000000000000007bb0619a0684bf55e1cedb9f0ccaecdab8ffff797f000000000000000000000000000000000000000000000000000000000000c3507ffffffffffffffffffffffffffffffffffffffffffffffffffffffffffffffffe7f000000000000000000000000000000000000000000000000000000000000c3506d766d67fe07853208991306449425a0e5b1f06bd15caca3bcb70372f70ed6b05d283a4695f720d1e406f112d110a06aa016dcb27a86022ff17688d830397209b36417b57d972a4bfa85a05283700ed5c0",
                    "indexes": {
                        "data": 0,
                        "gas": 0,
                        "value": 0
                    },
                    "state": {
                        "0x0480237dc5c3c07e21a80845cbf5fb6fd6ebba6e": {
                            "nonce": "0x01",
                            "balance": "0x0de0b6b37edb9c4d",
                            "code": "0x",
                            "storage": {}
                        },
                        "0x7bb0619a0684bf55e1cedb9f0ccaecdab8ffff79": {
                            "nonce": "0x00",
                            "balance": "0x2e",
                            "code": "0x6000355415600957005b60203560003555",
                            "storage": {}
                        },
                        "0x7bb0619a0684bf55e1cedb9f0ccaecdab9000079": {
                            "nonce": "0x00",
                            "balance": "0x288181dd",
                            "code": "0x7f00000000000000000000000000000000000000000000000000000000000000007f000000000000000000000000000000000000000000000000000000000000c3507f000000000000000000000000000000000000000000000000000000000000c350447f0000000000000000000000007bb0619a0684bf55e1cedb9f0ccaecdab8ffff797f000000000000000000000000000000000000000000000000000000000000c3507ffffffffffffffffffffffffffffffffffffffffffffffffffffffffffffffffe7f000000000000000000000000000000000000000000000000000000000000c3506d766d67fe0785320899130644945560005155",
                            "storage": {
                                "0x00": "0x766d67fe07853208991306449455"
                            }
                        }
                    }
                }
            ]
        },
        "config": {
            "blobSchedule": {
                "Cancun": {
                    "target": "0x03",
                    "max": "0x06",
                    "baseFeeUpdateFraction": "0x32f0ed"
                },
                "Prague": {
                    "target": "0x06",
                    "max": "0x09",
                    "baseFeeUpdateFraction": "0x4c6964"
                }
            },
            "chainid": "0x01"
        },
        "_info": {
            "hash": "0x30660dc53e245feb42ec1daa3b1e927d04197a9d59e6b9ae7871bccf76bb5c3f",
            "comment": "`execution-spec-tests` generated test",
            "filling-transition-tool": "ethereum-spec-evm-resolver 0.0.5",
            "description": "No description available - add a docstring to the python test class or function.",
            "url": "",
            "fixture-format": "state_test",
            "eels-resolution": {
                "git-url": "https://github.com/marioevz/execution-specs.git",
                "branch": "forks/bpo1",
                "commit": "3387e5f4aedfe99becfdc39b444d6371e25e0924"
            }
        }
    }
}