{
    "tests/static/state_tests/stRandom/randomStatetest217Filler.json::randomStatetest217[fork_Cancun-state_test-]": {
        "env": {
            "currentCoinbase": "0x8a55497a59f5efef2db012a384ba34f7a550c9ca",
            "currentGasLimit": "0x7fffffffffffffff",
            "currentNumber": "0x01",
            "currentTimestamp": "0x03e8",
            "currentRandom": "0x0000000000000000000000000000000000000000000000000000000000020000",
            "currentDifficulty": "0x00",
            "currentBaseFee": "0x0a",
            "currentExcessBlobGas": "0x00"
        },
        "pre": {
            "0x49c1fc39ddba6625626104e4d7c2b4ee62fd06ef": {
                "nonce": "0x00",
                "balance": "0x0de0b6b3a7640000",
                "code": "0x",
                "storage": {}
            },
            "0x8a55497a59f5efef2db012a384ba34f7a550c9ca": {
                "nonce": "0x00",
                "balance": "0x2e",
                "code": "0x6000355415600957005b60203560003555",
                "storage": {}
            },
            "0x8a55497a59f5efef2db012a384ba34f7a550caca": {
                "nonce": "0x00",
                "balance": "0x00",
                "code": "0x7f000000000000000000000000000000000000000000000000000000000000c3507f000000000000000000000000000000000000000000000000000000000000c3507f00000000000000000000000000000000000000000000000000000000000000007f0000000000000000000000000000000000000000000000000000000000000001377f00000000000000000000000000000000000000000000000000000000000000017f00000000000000000000000000000000000000000000000000000000000000007f000000000000000000000000000000000000000000000000000000000000c35060005155",
                "storage": {}
            }
        },
        "transaction": {
            "nonce": "0x00",
            "gasPrice": "0x0a",
            "gasLimit": [
                "0x0186a0"
            ],
            "to": "0x8a55497a59f5efef2db012a384ba34f7a550caca",
            "value": [
                "0x1c326d78"
            ],
            "data": [
                "0x7f000000000000000000000000000000000000000000000000000000000000c3507f000000000000000000000000000000000000000000000000000000000000c3507f00000000000000000000000000000000000000000000000000000000000000007f0000000000000000000000000000000000000000000000000000000000000001377f00000000000000000000000000000000000000000000000000000000000000017f00000000000000000000000000000000000000000000000000000000000000007f000000000000000000000000000000000000000000000000000000000000c350"
            ],
            "sender": "0x49c1fc39ddba6625626104e4d7c2b4ee62fd06ef",
            "secretKey": "0x218dcc2a98773e43ef64a6c48a55497a59f5efef2db012a384ba34f7a550c9ca"
        },
        "post": {
            "Cancun": [
                {
                    "hash": "0x91ca32a5e972862312e799295e507e2210af10e034cf00610d14a20954a3bc9c",
                    "logs": "0x1dcc4de8dec75d7aab85b567b6ccd41ad312451b948a7413f0a142fd40d49347",
                    "txbytes": "0xf9014d800a830186a0948a55497a59f5efef2db012a384ba34f7a550caca841c326d78b8e87f000000000000000000000000000000000000000000000000000000000000c3507f000000000000000000000000000000000000000000000000000000000000c3507f00000000000000000000000000000000000000000000000000000000000000007f0000000000000000000000000000000000000000000000000000000000000001377f00000000000000000000000000000000000000000000000000000000000000017f00000000000000000000000000000000000000000000000000000000000000007f000000000000000000000000000000000000000000000000000000000000c35026a01bba9fd0bb0a720cd8f15874fc7cf13b46f362e327ede89e00913bea37ecef51a02f850fb99d809fdf9ce9f6b8d75a63f9b321fe5141e48ff0e011f5be5348162f",
                    "indexes": {
                        "data": 0,
                        "gas": 0,
                        "value": 0
                    },
                    "state": {
                        "0x49c1fc39ddba6625626104e4d7c2b4ee62fd06ef": {
                            "nonce": "0x01",
                            "balance": "0x0de0b6b38b28a952",
                            "code": "0x",
                            "storage": {}
                        },
                        "0x8a55497a59f5efef2db012a384ba34f7a550c9ca": {
                            "nonce": "0x00",
                            "balance": "0x2e",
                            "code": "0x6000355415600957005b60203560003555",
                            "storage": {}
                        },
                        "0x8a55497a59f5efef2db012a384ba34f7a550caca": {
                            "nonce": "0x00",
                            "balance": "0x1c326d78",
                            "code": "0x7f000000000000000000000000000000000000000000000000000000000000c3507f000000000000000000000000000000000000000000000000000000000000c3507f00000000000000000000000000000000000000000000000000000000000000007f0000000000000000000000000000000000000000000000000000000000000001377f00000000000000000000000000000000000000000000000000000000000000017f00000000000000000000000000000000000000000000000000000000000000007f000000000000000000000000000000000000000000000000000000000000c35060005155",
                            "storage": {
                                "0x7f000000000000000000000000000000000000000000000000000000000000": "0xc350"
                            }
                        }
                    }
                }
            ]
        },
        "config": {
            "blobSchedule": {
                "Cancun": {
                    "target": "0x03",
                    "max": "0x06",
                    "baseFeeUpdateFraction": "0x32f0ed"
                }
            },
            "chainid": "0x01"
        },
        "_info": {
            "hash": "0x3710f6917050da138db5bb36be5109ffd06bb0a05af107c40d0356bda11fc616",
            "comment": "`execution-spec-tests` generated test",
            "filling-transition-tool": "ethereum-spec-evm-resolver 0.0.5",
            "description": "No description available - add a docstring to the python test class or function.",
            "url": "",
            "fixture-format": "state_test",
            "eels-resolution": {
                "git-url": "https://github.com/ethereum/execution-specs.git",
                "branch": "forks/bpos",
                "commit": "7aacb2c54111391af5e98c505d5010b5698a770f"
            }
        }
    },
    "tests/static/state_tests/stRandom/randomStatetest217Filler.json::randomStatetest217[fork_Osaka-state_test-]": {
        "env": {
            "currentCoinbase": "0x8a55497a59f5efef2db012a384ba34f7a550c9ca",
            "currentGasLimit": "0x7fffffffffffffff",
            "currentNumber": "0x01",
            "currentTimestamp": "0x03e8",
            "currentRandom": "0x0000000000000000000000000000000000000000000000000000000000020000",
            "currentDifficulty": "0x00",
            "currentBaseFee": "0x0a",
            "currentExcessBlobGas": "0x00"
        },
        "pre": {
            "0x49c1fc39ddba6625626104e4d7c2b4ee62fd06ef": {
                "nonce": "0x00",
                "balance": "0x0de0b6b3a7640000",
                "code": "0x",
                "storage": {}
            },
            "0x8a55497a59f5efef2db012a384ba34f7a550c9ca": {
                "nonce": "0x00",
                "balance": "0x2e",
                "code": "0x6000355415600957005b60203560003555",
                "storage": {}
            },
            "0x8a55497a59f5efef2db012a384ba34f7a550caca": {
                "nonce": "0x00",
                "balance": "0x00",
                "code": "0x7f000000000000000000000000000000000000000000000000000000000000c3507f000000000000000000000000000000000000000000000000000000000000c3507f00000000000000000000000000000000000000000000000000000000000000007f0000000000000000000000000000000000000000000000000000000000000001377f00000000000000000000000000000000000000000000000000000000000000017f00000000000000000000000000000000000000000000000000000000000000007f000000000000000000000000000000000000000000000000000000000000c35060005155",
                "storage": {}
            }
        },
        "transaction": {
            "nonce": "0x00",
            "gasPrice": "0x0a",
            "gasLimit": [
                "0x0186a0"
            ],
            "to": "0x8a55497a59f5efef2db012a384ba34f7a550caca",
            "value": [
                "0x1c326d78"
            ],
            "data": [
                "0x7f000000000000000000000000000000000000000000000000000000000000c3507f000000000000000000000000000000000000000000000000000000000000c3507f00000000000000000000000000000000000000000000000000000000000000007f0000000000000000000000000000000000000000000000000000000000000001377f00000000000000000000000000000000000000000000000000000000000000017f00000000000000000000000000000000000000000000000000000000000000007f000000000000000000000000000000000000000000000000000000000000c350"
            ],
            "sender": "0x49c1fc39ddba6625626104e4d7c2b4ee62fd06ef",
            "secretKey": "0x218dcc2a98773e43ef64a6c48a55497a59f5efef2db012a384ba34f7a550c9ca"
        },
        "post": {
            "Osaka": [
                {
                    "hash": "0x91ca32a5e972862312e799295e507e2210af10e034cf00610d14a20954a3bc9c",
                    "logs": "0x1dcc4de8dec75d7aab85b567b6ccd41ad312451b948a7413f0a142fd40d49347",
                    "txbytes": "0xf9014d800a830186a0948a55497a59f5efef2db012a384ba34f7a550caca841c326d78b8e87f000000000000000000000000000000000000000000000000000000000000c3507f000000000000000000000000000000000000000000000000000000000000c3507f00000000000000000000000000000000000000000000000000000000000000007f0000000000000000000000000000000000000000000000000000000000000001377f00000000000000000000000000000000000000000000000000000000000000017f00000000000000000000000000000000000000000000000000000000000000007f000000000000000000000000000000000000000000000000000000000000c35026a01bba9fd0bb0a720cd8f15874fc7cf13b46f362e327ede89e00913bea37ecef51a02f850fb99d809fdf9ce9f6b8d75a63f9b321fe5141e48ff0e011f5be5348162f",
                    "indexes": {
                        "data": 0,
                        "gas": 0,
                        "value": 0
                    },
                    "state": {
                        "0x49c1fc39ddba6625626104e4d7c2b4ee62fd06ef": {
                            "nonce": "0x01",
                            "balance": "0x0de0b6b38b28a952",
                            "code": "0x",
                            "storage": {}
                        },
                        "0x8a55497a59f5efef2db012a384ba34f7a550c9ca": {
                            "nonce": "0x00",
                            "balance": "0x2e",
                            "code": "0x6000355415600957005b60203560003555",
                            "storage": {}
                        },
                        "0x8a55497a59f5efef2db012a384ba34f7a550caca": {
                            "nonce": "0x00",
                            "balance": "0x1c326d78",
                            "code": "0x7f000000000000000000000000000000000000000000000000000000000000c3507f000000000000000000000000000000000000000000000000000000000000c3507f00000000000000000000000000000000000000000000000000000000000000007f0000000000000000000000000000000000000000000000000000000000000001377f00000000000000000000000000000000000000000000000000000000000000017f00000000000000000000000000000000000000000000000000000000000000007f000000000000000000000000000000000000000000000000000000000000c35060005155",
                            "storage": {
                                "0x7f000000000000000000000000000000000000000000000000000000000000": "0xc350"
                            }
                        }
                    }
                }
            ]
        },
        "config": {
            "blobSchedule": {
                "Cancun": {
                    "target": "0x03",
                    "max": "0x06",
                    "baseFeeUpdateFraction": "0x32f0ed"
                },
                "Prague": {
                    "target": "0x06",
                    "max": "0x09",
                    "baseFeeUpdateFraction": "0x4c6964"
                },
                "Osaka": {
                    "target": "0x06",
                    "max": "0x09",
                    "baseFeeUpdateFraction": "0x4c6964"
                }
            },
            "chainid": "0x01"
        },
        "_info": {
            "hash": "0xc03970d9bcba783ef0f094dd5e1a9ff81ffeb9d8b5de75c5948d1b16f8b1aeb6",
            "comment": "`execution-spec-tests` generated test",
            "filling-transition-tool": "ethereum-spec-evm-resolver 0.0.5",
            "description": "No description available - add a docstring to the python test class or function.",
            "url": "",
            "fixture-format": "state_test",
            "eels-resolution": {
                "git-url": "https://github.com/ethereum/execution-specs.git",
                "branch": "forks/bpos",
                "commit": "7aacb2c54111391af5e98c505d5010b5698a770f"
            }
        }
    },
    "tests/static/state_tests/stRandom/randomStatetest217Filler.json::randomStatetest217[fork_Prague-state_test-]": {
        "env": {
            "currentCoinbase": "0x8a55497a59f5efef2db012a384ba34f7a550c9ca",
            "currentGasLimit": "0x7fffffffffffffff",
            "currentNumber": "0x01",
            "currentTimestamp": "0x03e8",
            "currentRandom": "0x0000000000000000000000000000000000000000000000000000000000020000",
            "currentDifficulty": "0x00",
            "currentBaseFee": "0x0a",
            "currentExcessBlobGas": "0x00"
        },
        "pre": {
            "0x49c1fc39ddba6625626104e4d7c2b4ee62fd06ef": {
                "nonce": "0x00",
                "balance": "0x0de0b6b3a7640000",
                "code": "0x",
                "storage": {}
            },
            "0x8a55497a59f5efef2db012a384ba34f7a550c9ca": {
                "nonce": "0x00",
                "balance": "0x2e",
                "code": "0x6000355415600957005b60203560003555",
                "storage": {}
            },
            "0x8a55497a59f5efef2db012a384ba34f7a550caca": {
                "nonce": "0x00",
                "balance": "0x00",
                "code": "0x7f000000000000000000000000000000000000000000000000000000000000c3507f000000000000000000000000000000000000000000000000000000000000c3507f00000000000000000000000000000000000000000000000000000000000000007f0000000000000000000000000000000000000000000000000000000000000001377f00000000000000000000000000000000000000000000000000000000000000017f00000000000000000000000000000000000000000000000000000000000000007f000000000000000000000000000000000000000000000000000000000000c35060005155",
                "storage": {}
            }
        },
        "transaction": {
            "nonce": "0x00",
            "gasPrice": "0x0a",
            "gasLimit": [
                "0x0186a0"
            ],
            "to": "0x8a55497a59f5efef2db012a384ba34f7a550caca",
            "value": [
                "0x1c326d78"
            ],
            "data": [
                "0x7f000000000000000000000000000000000000000000000000000000000000c3507f000000000000000000000000000000000000000000000000000000000000c3507f00000000000000000000000000000000000000000000000000000000000000007f0000000000000000000000000000000000000000000000000000000000000001377f00000000000000000000000000000000000000000000000000000000000000017f00000000000000000000000000000000000000000000000000000000000000007f000000000000000000000000000000000000000000000000000000000000c350"
            ],
            "sender": "0x49c1fc39ddba6625626104e4d7c2b4ee62fd06ef",
            "secretKey": "0x218dcc2a98773e43ef64a6c48a55497a59f5efef2db012a384ba34f7a550c9ca"
        },
        "post": {
            "Prague": [
                {
                    "hash": "0x91ca32a5e972862312e799295e507e2210af10e034cf00610d14a20954a3bc9c",
                    "logs": "0x1dcc4de8dec75d7aab85b567b6ccd41ad312451b948a7413f0a142fd40d49347",
                    "txbytes": "0xf9014d800a830186a0948a55497a59f5efef2db012a384ba34f7a550caca841c326d78b8e87f000000000000000000000000000000000000000000000000000000000000c3507f000000000000000000000000000000000000000000000000000000000000c3507f00000000000000000000000000000000000000000000000000000000000000007f0000000000000000000000000000000000000000000000000000000000000001377f00000000000000000000000000000000000000000000000000000000000000017f00000000000000000000000000000000000000000000000000000000000000007f000000000000000000000000000000000000000000000000000000000000c35026a01bba9fd0bb0a720cd8f15874fc7cf13b46f362e327ede89e00913bea37ecef51a02f850fb99d809fdf9ce9f6b8d75a63f9b321fe5141e48ff0e011f5be5348162f",
                    "indexes": {
                        "data": 0,
                        "gas": 0,
                        "value": 0
                    },
                    "state": {
                        "0x49c1fc39ddba6625626104e4d7c2b4ee62fd06ef": {
                            "nonce": "0x01",
                            "balance": "0x0de0b6b38b28a952",
                            "code": "0x",
                            "storage": {}
                        },
                        "0x8a55497a59f5efef2db012a384ba34f7a550c9ca": {
                            "nonce": "0x00",
                            "balance": "0x2e",
                            "code": "0x6000355415600957005b60203560003555",
                            "storage": {}
                        },
                        "0x8a55497a59f5efef2db012a384ba34f7a550caca": {
                            "nonce": "0x00",
                            "balance": "0x1c326d78",
                            "code": "0x7f000000000000000000000000000000000000000000000000000000000000c3507f000000000000000000000000000000000000000000000000000000000000c3507f00000000000000000000000000000000000000000000000000000000000000007f0000000000000000000000000000000000000000000000000000000000000001377f00000000000000000000000000000000000000000000000000000000000000017f00000000000000000000000000000000000000000000000000000000000000007f000000000000000000000000000000000000000000000000000000000000c35060005155",
                            "storage": {
                                "0x7f000000000000000000000000000000000000000000000000000000000000": "0xc350"
                            }
                        }
                    }
                }
            ]
        },
        "config": {
            "blobSchedule": {
                "Cancun": {
                    "target": "0x03",
                    "max": "0x06",
                    "baseFeeUpdateFraction": "0x32f0ed"
                },
                "Prague": {
                    "target": "0x06",
                    "max": "0x09",
                    "baseFeeUpdateFraction": "0x4c6964"
                }
            },
            "chainid": "0x01"
        },
        "_info": {
            "hash": "0x81094f2583bc1376f2f2f75971b1cf012d49aef573f1af1a92829251a63e3f36",
            "comment": "`execution-spec-tests` generated test",
            "filling-transition-tool": "ethereum-spec-evm-resolver 0.0.5",
            "description": "No description available - add a docstring to the python test class or function.",
            "url": "",
            "fixture-format": "state_test",
            "eels-resolution": {
                "git-url": "https://github.com/ethereum/execution-specs.git",
                "branch": "forks/bpos",
                "commit": "7aacb2c54111391af5e98c505d5010b5698a770f"
            }
        }
    }
}