{
    "tests/static/state_tests/stRandom/randomStatetest142Filler.json::randomStatetest142[fork_Cancun-state_test-]": {
        "env": {
            "currentCoinbase": "0x5e4c834c9fbe0f95da66b1e2109f8c8fbdf73ea3",
            "currentGasLimit": "0x7fffffffffffffff",
            "currentNumber": "0x01",
            "currentTimestamp": "0x03e8",
            "currentRandom": "0x0000000000000000000000000000000000000000000000000000000000020000",
            "currentDifficulty": "0x00",
            "currentBaseFee": "0x0a",
            "currentExcessBlobGas": "0x00"
        },
        "pre": {
            "0xceb6545308ad065588c43c461542e6547182f7a2": {
                "nonce": "0x00",
                "balance": "0x0de0b6b3a7640000",
                "code": "0x",
                "storage": {}
            },
            "0x5e4c834c9fbe0f95da66b1e2109f8c8fbdf73ea3": {
                "nonce": "0x00",
                "balance": "0x2e",
                "code": "0x6000355415600957005b60203560003555",
                "storage": {}
            },
            "0x5e4c834c9fbe0f95da66b1e2109f8c8fbdf73fa3": {
                "nonce": "0x00",
                "balance": "0x00",
                "code": "0x7fffffffffffffffffffffffffffffffffffffffffffffffffffffffffffffffff7f000000000000000000000000000000000000000000000000000000000000c3507fffffffffffffffffffffffffffffffffffffffffffffffffffffffffffffffff7f0000000000000000000000005e4c834c9fbe0f95da66b1e2109f8c8fbdf73ea37f00000000000000000000000000000000000000000000000000000000000000017f00000000000000000000000000000000000000000000000000000000000000017f00000000000000000000000000000000000000000000000000000000000000007fffffffffffffffffffffffffffffffffffffffffffffffffffffffffffffffff959137630364087e1a640431107c880160005155",
                "storage": {}
            }
        },
        "transaction": {
            "nonce": "0x00",
            "gasPrice": "0x0a",
            "gasLimit": [
                "0x0186a0"
            ],
            "to": "0x5e4c834c9fbe0f95da66b1e2109f8c8fbdf73fa3",
            "value": [
                "0x6dd219a0"
            ],
            "data": [
                "0x7fffffffffffffffffffffffffffffffffffffffffffffffffffffffffffffffff7f000000000000000000000000000000000000000000000000000000000000c3507fffffffffffffffffffffffffffffffffffffffffffffffffffffffffffffffff7f0000000000000000000000005e4c834c9fbe0f95da66b1e2109f8c8fbdf73ea37f00000000000000000000000000000000000000000000000000000000000000017f00000000000000000000000000000000000000000000000000000000000000017f00000000000000000000000000000000000000000000000000000000000000007fffffffffffffffffffffffffffffffffffffffffffffffffffffffffffffffff959137630364087e1a640431107c8801"
            ],
            "sender": "0xceb6545308ad065588c43c461542e6547182f7a2",
            "secretKey": "0x2fe5c7e081fbc2202e65ab385e4c834c9fbe0f95da66b1e2109f8c8fbdf73ea3"
        },
        "post": {
            "Cancun": [
                {
                    "hash": "0x761d4df26335c4c06c9ca6a279d2f514154a75a342aa5293c5164b8857d3e345",
                    "logs": "0x1dcc4de8dec75d7aab85b567b6ccd41ad312451b948a7413f0a142fd40d49347",
                    "txbytes": "0xf9017e800a830186a0945e4c834c9fbe0f95da66b1e2109f8c8fbdf73fa3846dd219a0b901187fffffffffffffffffffffffffffffffffffffffffffffffffffffffffffffffff7f000000000000000000000000000000000000000000000000000000000000c3507fffffffffffffffffffffffffffffffffffffffffffffffffffffffffffffffff7f0000000000000000000000005e4c834c9fbe0f95da66b1e2109f8c8fbdf73ea37f00000000000000000000000000000000000000000000000000000000000000017f00000000000000000000000000000000000000000000000000000000000000017f00000000000000000000000000000000000000000000000000000000000000007fffffffffffffffffffffffffffffffffffffffffffffffffffffffffffffffff959137630364087e1a640431107c880125a0280daeced954192260cc3196db9ea87b49c84306c738a3691d8b2041f29cb2a6a0288a57a021cd6cbc922b85a96399194cc3e05acdc53dbebc6514157b6f3a5383",
                    "indexes": {
                        "data": 0,
                        "gas": 0,
                        "value": 0
                    },
                    "state": {
                        "0xceb6545308ad065588c43c461542e6547182f7a2": {
                            "nonce": "0x01",
                            "balance": "0x0de0b6b33988b8d8",
                            "code": "0x",
                            "storage": {}
                        },
                        "0x5e4c834c9fbe0f95da66b1e2109f8c8fbdf73ea3": {
                            "nonce": "0x00",
                            "balance": "0x2e",
                            "code": "0x6000355415600957005b60203560003555",
                            "storage": {}
                        },
                        "0x5e4c834c9fbe0f95da66b1e2109f8c8fbdf73fa3": {
                            "nonce": "0x00",
                            "balance": "0x6dd219a0",
                            "code": "0x7fffffffffffffffffffffffffffffffffffffffffffffffffffffffffffffffff7f000000000000000000000000000000000000000000000000000000000000c3507fffffffffffffffffffffffffffffffffffffffffffffffffffffffffffffffff7f0000000000000000000000005e4c834c9fbe0f95da66b1e2109f8c8fbdf73ea37f00000000000000000000000000000000000000000000000000000000000000017f00000000000000000000000000000000000000000000000000000000000000017f00000000000000000000000000000000000000000000000000000000000000007fffffffffffffffffffffffffffffffffffffffffffffffffffffffffffffffff959137630364087e1a640431107c880160005155",
                            "storage": {
                                "0x7fffffffffffffffffffffffffffffffffffffffffffffffffffffffffffff": "0x0431107c88"
                            }
                        }
                    }
                }
            ]
        },
        "config": {
            "blobSchedule": {
                "Cancun": {
                    "target": "0x03",
                    "max": "0x06",
                    "baseFeeUpdateFraction": "0x32f0ed"
                }
            },
            "chainid": "0x01"
        },
        "_info": {
            "hash": "0x11d802a3ff33ff2b1726228409bfbecde766f82ec7d57f7e54c4e97e46944bb0",
            "comment": "`execution-spec-tests` generated test",
            "filling-transition-tool": "ethereum-spec-evm-resolver 0.0.5",
            "description": "No description available - add a docstring to the python test class or function.",
            "url": "",
            "fixture-format": "state_test",
            "eels-resolution": {
                "git-url": "https://github.com/ethereum/execution-specs.git",
                "branch": "forks/bpos",
                "commit": "7aacb2c54111391af5e98c505d5010b5698a770f"
            }
        }
    },
    "tests/static/state_tests/stRandom/randomStatetest142Filler.json::randomStatetest142[fork_Osaka-state_test-]": {
        "env": {
            "currentCoinbase": "0x5e4c834c9fbe0f95da66b1e2109f8c8fbdf73ea3",
            "currentGasLimit": "0x7fffffffffffffff",
            "currentNumber": "0x01",
            "currentTimestamp": "0x03e8",
            "currentRandom": "0x0000000000000000000000000000000000000000000000000000000000020000",
            "currentDifficulty": "0x00",
            "currentBaseFee": "0x0a",
            "currentExcessBlobGas": "0x00"
        },
        "pre": {
            "0xceb6545308ad065588c43c461542e6547182f7a2": {
                "nonce": "0x00",
                "balance": "0x0de0b6b3a7640000",
                "code": "0x",
                "storage": {}
            },
            "0x5e4c834c9fbe0f95da66b1e2109f8c8fbdf73ea3": {
                "nonce": "0x00",
                "balance": "0x2e",
                "code": "0x6000355415600957005b60203560003555",
                "storage": {}
            },
            "0x5e4c834c9fbe0f95da66b1e2109f8c8fbdf73fa3": {
                "nonce": "0x00",
                "balance": "0x00",
                "code": "0x7fffffffffffffffffffffffffffffffffffffffffffffffffffffffffffffffff7f000000000000000000000000000000000000000000000000000000000000c3507fffffffffffffffffffffffffffffffffffffffffffffffffffffffffffffffff7f0000000000000000000000005e4c834c9fbe0f95da66b1e2109f8c8fbdf73ea37f00000000000000000000000000000000000000000000000000000000000000017f00000000000000000000000000000000000000000000000000000000000000017f00000000000000000000000000000000000000000000000000000000000000007fffffffffffffffffffffffffffffffffffffffffffffffffffffffffffffffff959137630364087e1a640431107c880160005155",
                "storage": {}
            }
        },
        "transaction": {
            "nonce": "0x00",
            "gasPrice": "0x0a",
            "gasLimit": [
                "0x0186a0"
            ],
            "to": "0x5e4c834c9fbe0f95da66b1e2109f8c8fbdf73fa3",
            "value": [
                "0x6dd219a0"
            ],
            "data": [
                "0x7fffffffffffffffffffffffffffffffffffffffffffffffffffffffffffffffff7f000000000000000000000000000000000000000000000000000000000000c3507fffffffffffffffffffffffffffffffffffffffffffffffffffffffffffffffff7f0000000000000000000000005e4c834c9fbe0f95da66b1e2109f8c8fbdf73ea37f00000000000000000000000000000000000000000000000000000000000000017f00000000000000000000000000000000000000000000000000000000000000017f00000000000000000000000000000000000000000000000000000000000000007fffffffffffffffffffffffffffffffffffffffffffffffffffffffffffffffff959137630364087e1a640431107c8801"
            ],
            "sender": "0xceb6545308ad065588c43c461542e6547182f7a2",
            "secretKey": "0x2fe5c7e081fbc2202e65ab385e4c834c9fbe0f95da66b1e2109f8c8fbdf73ea3"
        },
        "post": {
            "Osaka": [
                {
                    "hash": "0x761d4df26335c4c06c9ca6a279d2f514154a75a342aa5293c5164b8857d3e345",
                    "logs": "0x1dcc4de8dec75d7aab85b567b6ccd41ad312451b948a7413f0a142fd40d49347",
                    "txbytes": "0xf9017e800a830186a0945e4c834c9fbe0f95da66b1e2109f8c8fbdf73fa3846dd219a0b901187fffffffffffffffffffffffffffffffffffffffffffffffffffffffffffffffff7f000000000000000000000000000000000000000000000000000000000000c3507fffffffffffffffffffffffffffffffffffffffffffffffffffffffffffffffff7f0000000000000000000000005e4c834c9fbe0f95da66b1e2109f8c8fbdf73ea37f00000000000000000000000000000000000000000000000000000000000000017f00000000000000000000000000000000000000000000000000000000000000017f00000000000000000000000000000000000000000000000000000000000000007fffffffffffffffffffffffffffffffffffffffffffffffffffffffffffffffff959137630364087e1a640431107c880125a0280daeced954192260cc3196db9ea87b49c84306c738a3691d8b2041f29cb2a6a0288a57a021cd6cbc922b85a96399194cc3e05acdc53dbebc6514157b6f3a5383",
                    "indexes": {
                        "data": 0,
                        "gas": 0,
                        "value": 0
                    },
                    "state": {
                        "0xceb6545308ad065588c43c461542e6547182f7a2": {
                            "nonce": "0x01",
                            "balance": "0x0de0b6b33988b8d8",
                            "code": "0x",
                            "storage": {}
                        },
                        "0x5e4c834c9fbe0f95da66b1e2109f8c8fbdf73ea3": {
                            "nonce": "0x00",
                            "balance": "0x2e",
                            "code": "0x6000355415600957005b60203560003555",
                            "storage": {}
                        },
                        "0x5e4c834c9fbe0f95da66b1e2109f8c8fbdf73fa3": {
                            "nonce": "0x00",
                            "balance": "0x6dd219a0",
                            "code": "0x7fffffffffffffffffffffffffffffffffffffffffffffffffffffffffffffffff7f000000000000000000000000000000000000000000000000000000000000c3507fffffffffffffffffffffffffffffffffffffffffffffffffffffffffffffffff7f0000000000000000000000005e4c834c9fbe0f95da66b1e2109f8c8fbdf73ea37f00000000000000000000000000000000000000000000000000000000000000017f00000000000000000000000000000000000000000000000000000000000000017f00000000000000000000000000000000000000000000000000000000000000007fffffffffffffffffffffffffffffffffffffffffffffffffffffffffffffffff959137630364087e1a640431107c880160005155",
                            "storage": {
                                "0x7fffffffffffffffffffffffffffffffffffffffffffffffffffffffffffff": "0x0431107c88"
                            }
                        }
                    }
                }
            ]
        },
        "config": {
            "blobSchedule": {
                "Cancun": {
                    "target": "0x03",
                    "max": "0x06",
                    "baseFeeUpdateFraction": "0x32f0ed"
                },
                "Prague": {
                    "target": "0x06",
                    "max": "0x09",
                    "baseFeeUpdateFraction": "0x4c6964"
                },
                "Osaka": {
                    "target": "0x06",
                    "max": "0x09",
                    "baseFeeUpdateFraction": "0x4c6964"
                }
            },
            "chainid": "0x01"
        },
        "_info": {
            "hash": "0x2cdf84c41fbdb5d5a9d3bca46ca73f7f055c688fed8195728535a4fb6855362d",
            "comment": "`execution-spec-tests` generated test",
            "filling-transition-tool": "ethereum-spec-evm-resolver 0.0.5",
            "description": "No description available - add a docstring to the python test class or function.",
            "url": "",
            "fixture-format": "state_test",
            "eels-resolution": {
                "git-url": "https://github.com/ethereum/execution-specs.git",
                "branch": "forks/bpos",
                "commit": "7aacb2c54111391af5e98c505d5010b5698a770f"
            }
        }
    },
    "tests/static/state_tests/stRandom/randomStatetest142Filler.json::randomStatetest142[fork_Prague-state_test-]": {
        "env": {
            "currentCoinbase": "0x5e4c834c9fbe0f95da66b1e2109f8c8fbdf73ea3",
            "currentGasLimit": "0x7fffffffffffffff",
            "currentNumber": "0x01",
            "currentTimestamp": "0x03e8",
            "currentRandom": "0x0000000000000000000000000000000000000000000000000000000000020000",
            "currentDifficulty": "0x00",
            "currentBaseFee": "0x0a",
            "currentExcessBlobGas": "0x00"
        },
        "pre": {
            "0xceb6545308ad065588c43c461542e6547182f7a2": {
                "nonce": "0x00",
                "balance": "0x0de0b6b3a7640000",
                "code": "0x",
                "storage": {}
            },
            "0x5e4c834c9fbe0f95da66b1e2109f8c8fbdf73ea3": {
                "nonce": "0x00",
                "balance": "0x2e",
                "code": "0x6000355415600957005b60203560003555",
                "storage": {}
            },
            "0x5e4c834c9fbe0f95da66b1e2109f8c8fbdf73fa3": {
                "nonce": "0x00",
                "balance": "0x00",
                "code": "0x7fffffffffffffffffffffffffffffffffffffffffffffffffffffffffffffffff7f000000000000000000000000000000000000000000000000000000000000c3507fffffffffffffffffffffffffffffffffffffffffffffffffffffffffffffffff7f0000000000000000000000005e4c834c9fbe0f95da66b1e2109f8c8fbdf73ea37f00000000000000000000000000000000000000000000000000000000000000017f00000000000000000000000000000000000000000000000000000000000000017f00000000000000000000000000000000000000000000000000000000000000007fffffffffffffffffffffffffffffffffffffffffffffffffffffffffffffffff959137630364087e1a640431107c880160005155",
                "storage": {}
            }
        },
        "transaction": {
            "nonce": "0x00",
            "gasPrice": "0x0a",
            "gasLimit": [
                "0x0186a0"
            ],
            "to": "0x5e4c834c9fbe0f95da66b1e2109f8c8fbdf73fa3",
            "value": [
                "0x6dd219a0"
            ],
            "data": [
                "0x7fffffffffffffffffffffffffffffffffffffffffffffffffffffffffffffffff7f000000000000000000000000000000000000000000000000000000000000c3507fffffffffffffffffffffffffffffffffffffffffffffffffffffffffffffffff7f0000000000000000000000005e4c834c9fbe0f95da66b1e2109f8c8fbdf73ea37f00000000000000000000000000000000000000000000000000000000000000017f00000000000000000000000000000000000000000000000000000000000000017f00000000000000000000000000000000000000000000000000000000000000007fffffffffffffffffffffffffffffffffffffffffffffffffffffffffffffffff959137630364087e1a640431107c8801"
            ],
            "sender": "0xceb6545308ad065588c43c461542e6547182f7a2",
            "secretKey": "0x2fe5c7e081fbc2202e65ab385e4c834c9fbe0f95da66b1e2109f8c8fbdf73ea3"
        },
        "post": {
            "Prague": [
                {
                    "hash": "0x761d4df26335c4c06c9ca6a279d2f514154a75a342aa5293c5164b8857d3e345",
                    "logs": "0x1dcc4de8dec75d7aab85b567b6ccd41ad312451b948a7413f0a142fd40d49347",
                    "txbytes": "0xf9017e800a830186a0945e4c834c9fbe0f95da66b1e2109f8c8fbdf73fa3846dd219a0b901187fffffffffffffffffffffffffffffffffffffffffffffffffffffffffffffffff7f000000000000000000000000000000000000000000000000000000000000c3507fffffffffffffffffffffffffffffffffffffffffffffffffffffffffffffffff7f0000000000000000000000005e4c834c9fbe0f95da66b1e2109f8c8fbdf73ea37f00000000000000000000000000000000000000000000000000000000000000017f00000000000000000000000000000000000000000000000000000000000000017f00000000000000000000000000000000000000000000000000000000000000007fffffffffffffffffffffffffffffffffffffffffffffffffffffffffffffffff959137630364087e1a640431107c880125a0280daeced954192260cc3196db9ea87b49c84306c738a3691d8b2041f29cb2a6a0288a57a021cd6cbc922b85a96399194cc3e05acdc53dbebc6514157b6f3a5383",
                    "indexes": {
                        "data": 0,
                        "gas": 0,
                        "value": 0
                    },
                    "state": {
                        "0xceb6545308ad065588c43c461542e6547182f7a2": {
                            "nonce": "0x01",
                            "balance": "0x0de0b6b33988b8d8",
                            "code": "0x",
                            "storage": {}
                        },
                        "0x5e4c834c9fbe0f95da66b1e2109f8c8fbdf73ea3": {
                            "nonce": "0x00",
                            "balance": "0x2e",
                            "code": "0x6000355415600957005b60203560003555",
                            "storage": {}
                        },
                        "0x5e4c834c9fbe0f95da66b1e2109f8c8fbdf73fa3": {
                            "nonce": "0x00",
                            "balance": "0x6dd219a0",
                            "code": "0x7fffffffffffffffffffffffffffffffffffffffffffffffffffffffffffffffff7f000000000000000000000000000000000000000000000000000000000000c3507fffffffffffffffffffffffffffffffffffffffffffffffffffffffffffffffff7f0000000000000000000000005e4c834c9fbe0f95da66b1e2109f8c8fbdf73ea37f00000000000000000000000000000000000000000000000000000000000000017f00000000000000000000000000000000000000000000000000000000000000017f00000000000000000000000000000000000000000000000000000000000000007fffffffffffffffffffffffffffffffffffffffffffffffffffffffffffffffff959137630364087e1a640431107c880160005155",
                            "storage": {
                                "0x7fffffffffffffffffffffffffffffffffffffffffffffffffffffffffffff": "0x0431107c88"
                            }
                        }
                    }
                }
            ]
        },
        "config": {
            "blobSchedule": {
                "Cancun": {
                    "target": "0x03",
                    "max": "0x06",
                    "baseFeeUpdateFraction": "0x32f0ed"
                },
                "Prague": {
                    "target": "0x06",
                    "max": "0x09",
                    "baseFeeUpdateFraction": "0x4c6964"
                }
            },
            "chainid": "0x01"
        },
        "_info": {
            "hash": "0xf68c8026c2eff19d4b3072f56b60df0a14785f7bdd386abc7ec3f10b0843ba9b",
            "comment": "`execution-spec-tests` generated test",
            "filling-transition-tool": "ethereum-spec-evm-resolver 0.0.5",
            "description": "No description available - add a docstring to the python test class or function.",
            "url": "",
            "fixture-format": "state_test",
            "eels-resolution": {
                "git-url": "https://github.com/ethereum/execution-specs.git",
                "branch": "forks/bpos",
                "commit": "7aacb2c54111391af5e98c505d5010b5698a770f"
            }
        }
    }
}