{
    "tests/static/state_tests/stRandom/randomStatetest280Filler.json::randomStatetest280[fork_Cancun-state_test-]": {
        "env": {
            "currentCoinbase": "0x10ea232ac5f40f1fddcb820d5b7fc3af0f409fa2",
            "currentGasLimit": "0x7fffffffffffffff",
            "currentNumber": "0x01",
            "currentTimestamp": "0x03e8",
            "currentRandom": "0x0000000000000000000000000000000000000000000000000000000000020000",
            "currentDifficulty": "0x00",
            "currentBaseFee": "0x0a",
            "currentExcessBlobGas": "0x00"
        },
        "pre": {
            "0xb1747a368d913ab063445403f9c4fa788dc0d899": {
                "nonce": "0x00",
                "balance": "0x0de0b6b3a7640000",
                "code": "0x",
                "storage": {}
            },
            "0x10ea232ac5f40f1fddcb820d5b7fc3af0f409fa2": {
                "nonce": "0x00",
                "balance": "0x2e",
                "code": "0x6000355415600957005b60203560003555",
                "storage": {}
            },
            "0x10ea232ac5f40f1fddcb820d5b7fc3af0f40a0a2": {
                "nonce": "0x00",
                "balance": "0x00",
                "code": "0x7f000000000000000000000000000000000000000000000000000000000000000143507f000000000000000000000000000000000000000000000000000000000000c350417f00000000000000000000000000000000000000000000000000000000000000006f423b3c407e7c6f16718668738d193cf260005155",
                "storage": {}
            }
        },
        "transaction": {
            "nonce": "0x00",
            "gasPrice": "0x0a",
            "gasLimit": [
                "0x0186a0"
            ],
            "to": "0x10ea232ac5f40f1fddcb820d5b7fc3af0f40a0a2",
            "value": [
                "0x303cdc5a"
            ],
            "data": [
                "0x7f000000000000000000000000000000000000000000000000000000000000000143507f000000000000000000000000000000000000000000000000000000000000c350417f00000000000000000000000000000000000000000000000000000000000000006f423b3c407e7c6f16718668738d193cf2"
            ],
            "sender": "0xb1747a368d913ab063445403f9c4fa788dc0d899",
            "secretKey": "0x871c18a36dd640200bc8090d10ea232ac5f40f1fddcb820d5b7fc3af0f409fa2"
        },
        "post": {
            "Cancun": [
                {
                    "hash": "0x81f8a09e1cd0378e8f4a46ac89ee6c8ea6d4ce1afe2f57f2cc9ec774b7726ca7",
                    "logs": "0x1dcc4de8dec75d7aab85b567b6ccd41ad312451b948a7413f0a142fd40d49347",
                    "txbytes": "0xf8dc800a830186a09410ea232ac5f40f1fddcb820d5b7fc3af0f40a0a284303cdc5ab8777f000000000000000000000000000000000000000000000000000000000000000143507f000000000000000000000000000000000000000000000000000000000000c350417f00000000000000000000000000000000000000000000000000000000000000006f423b3c407e7c6f16718668738d193cf226a0db033226e07d31318c7ff2f43c63742242eef64a16b910b83ed2c80324d00b96a00a672cf14592a36aed8a4e753068a8b427a35b28e397e6c6cc65b60be1e46252",
                    "indexes": {
                        "data": 0,
                        "gas": 0,
                        "value": 0
                    },
                    "state": {
                        "0xb1747a368d913ab063445403f9c4fa788dc0d899": {
                            "nonce": "0x01",
                            "balance": "0x0de0b6b377207038",
                            "code": "0x",
                            "storage": {}
                        },
                        "0x10ea232ac5f40f1fddcb820d5b7fc3af0f409fa2": {
                            "nonce": "0x00",
                            "balance": "0x2e",
                            "code": "0x6000355415600957005b60203560003555",
                            "storage": {}
                        },
                        "0x10ea232ac5f40f1fddcb820d5b7fc3af0f40a0a2": {
                            "nonce": "0x00",
                            "balance": "0x303cdc5a",
                            "code": "0x7f000000000000000000000000000000000000000000000000000000000000000143507f000000000000000000000000000000000000000000000000000000000000c350417f00000000000000000000000000000000000000000000000000000000000000006f423b3c407e7c6f16718668738d193cf260005155",
                            "storage": {
                                "0x00": "0x423b3c407e7c6f16718668738d193cf2"
                            }
                        }
                    }
                }
            ]
        },
        "config": {
            "blobSchedule": {
                "Cancun": {
                    "target": "0x03",
                    "max": "0x06",
                    "baseFeeUpdateFraction": "0x32f0ed"
                }
            },
            "chainid": "0x01"
        },
        "_info": {
            "hash": "0xab891aba16c9091db0fb41cd2c3d71a4d105669b9a35469ff2ce8e5c67aa8b98",
            "comment": "`execution-spec-tests` generated test",
            "filling-transition-tool": "ethereum-spec-evm-resolver 0.0.5",
            "description": "No description available - add a docstring to the python test class or function.",
            "url": "",
            "fixture-format": "state_test",
            "eels-resolution": {
                "git-url": "https://github.com/ethereum/execution-specs.git",
                "branch": "forks/bpos",
                "commit": "7aacb2c54111391af5e98c505d5010b5698a770f"
            }
        }
    },
    "tests/static/state_tests/stRandom/randomStatetest280Filler.json::randomStatetest280[fork_Osaka-state_test-]": {
        "env": {
            "currentCoinbase": "0x10ea232ac5f40f1fddcb820d5b7fc3af0f409fa2",
            "currentGasLimit": "0x7fffffffffffffff",
            "currentNumber": "0x01",
            "currentTimestamp": "0x03e8",
            "currentRandom": "0x0000000000000000000000000000000000000000000000000000000000020000",
            "currentDifficulty": "0x00",
            "currentBaseFee": "0x0a",
            "currentExcessBlobGas": "0x00"
        },
        "pre": {
            "0xb1747a368d913ab063445403f9c4fa788dc0d899": {
                "nonce": "0x00",
                "balance": "0x0de0b6b3a7640000",
                "code": "0x",
                "storage": {}
            },
            "0x10ea232ac5f40f1fddcb820d5b7fc3af0f409fa2": {
                "nonce": "0x00",
                "balance": "0x2e",
                "code": "0x6000355415600957005b60203560003555",
                "storage": {}
            },
            "0x10ea232ac5f40f1fddcb820d5b7fc3af0f40a0a2": {
                "nonce": "0x00",
                "balance": "0x00",
                "code": "0x7f000000000000000000000000000000000000000000000000000000000000000143507f000000000000000000000000000000000000000000000000000000000000c350417f00000000000000000000000000000000000000000000000000000000000000006f423b3c407e7c6f16718668738d193cf260005155",
                "storage": {}
            }
        },
        "transaction": {
            "nonce": "0x00",
            "gasPrice": "0x0a",
            "gasLimit": [
                "0x0186a0"
            ],
            "to": "0x10ea232ac5f40f1fddcb820d5b7fc3af0f40a0a2",
            "value": [
                "0x303cdc5a"
            ],
            "data": [
                "0x7f000000000000000000000000000000000000000000000000000000000000000143507f000000000000000000000000000000000000000000000000000000000000c350417f00000000000000000000000000000000000000000000000000000000000000006f423b3c407e7c6f16718668738d193cf2"
            ],
            "sender": "0xb1747a368d913ab063445403f9c4fa788dc0d899",
            "secretKey": "0x871c18a36dd640200bc8090d10ea232ac5f40f1fddcb820d5b7fc3af0f409fa2"
        },
        "post": {
            "Osaka": [
                {
                    "hash": "0x81f8a09e1cd0378e8f4a46ac89ee6c8ea6d4ce1afe2f57f2cc9ec774b7726ca7",
                    "logs": "0x1dcc4de8dec75d7aab85b567b6ccd41ad312451b948a7413f0a142fd40d49347",
                    "txbytes": "0xf8dc800a830186a09410ea232ac5f40f1fddcb820d5b7fc3af0f40a0a284303cdc5ab8777f000000000000000000000000000000000000000000000000000000000000000143507f000000000000000000000000000000000000000000000000000000000000c350417f00000000000000000000000000000000000000000000000000000000000000006f423b3c407e7c6f16718668738d193cf226a0db033226e07d31318c7ff2f43c63742242eef64a16b910b83ed2c80324d00b96a00a672cf14592a36aed8a4e753068a8b427a35b28e397e6c6cc65b60be1e46252",
                    "indexes": {
                        "data": 0,
                        "gas": 0,
                        "value": 0
                    },
                    "state": {
                        "0xb1747a368d913ab063445403f9c4fa788dc0d899": {
                            "nonce": "0x01",
                            "balance": "0x0de0b6b377207038",
                            "code": "0x",
                            "storage": {}
                        },
                        "0x10ea232ac5f40f1fddcb820d5b7fc3af0f409fa2": {
                            "nonce": "0x00",
                            "balance": "0x2e",
                            "code": "0x6000355415600957005b60203560003555",
                            "storage": {}
                        },
                        "0x10ea232ac5f40f1fddcb820d5b7fc3af0f40a0a2": {
                            "nonce": "0x00",
                            "balance": "0x303cdc5a",
                            "code": "0x7f000000000000000000000000000000000000000000000000000000000000000143507f000000000000000000000000000000000000000000000000000000000000c350417f00000000000000000000000000000000000000000000000000000000000000006f423b3c407e7c6f16718668738d193cf260005155",
                            "storage": {
                                "0x00": "0x423b3c407e7c6f16718668738d193cf2"
                            }
                        }
                    }
                }
            ]
        },
        "config": {
            "blobSchedule": {
                "Cancun": {
                    "target": "0x03",
                    "max": "0x06",
                    "baseFeeUpdateFraction": "0x32f0ed"
                },
                "Prague": {
                    "target": "0x06",
                    "max": "0x09",
                    "baseFeeUpdateFraction": "0x4c6964"
                },
                "Osaka": {
                    "target": "0x06",
                    "max": "0x09",
                    "baseFeeUpdateFraction": "0x4c6964"
                }
            },
            "chainid": "0x01"
        },
        "_info": {
            "hash": "0xfa504f365b94664ddd841cda4e150beda8efa8ea92342a8cc4992a84f522f612",
            "comment": "`execution-spec-tests` generated test",
            "filling-transition-tool": "ethereum-spec-evm-resolver 0.0.5",
            "description": "No description available - add a docstring to the python test class or function.",
            "url": "",
            "fixture-format": "state_test",
            "eels-resolution": {
                "git-url": "https://github.com/ethereum/execution-specs.git",
                "branch": "forks/bpos",
                "commit": "7aacb2c54111391af5e98c505d5010b5698a770f"
            }
        }
    },
    "tests/static/state_tests/stRandom/randomStatetest280Filler.json::randomStatetest280[fork_Prague-state_test-]": {
        "env": {
            "currentCoinbase": "0x10ea232ac5f40f1fddcb820d5b7fc3af0f409fa2",
            "currentGasLimit": "0x7fffffffffffffff",
            "currentNumber": "0x01",
            "currentTimestamp": "0x03e8",
            "currentRandom": "0x0000000000000000000000000000000000000000000000000000000000020000",
            "currentDifficulty": "0x00",
            "currentBaseFee": "0x0a",
            "currentExcessBlobGas": "0x00"
        },
        "pre": {
            "0xb1747a368d913ab063445403f9c4fa788dc0d899": {
                "nonce": "0x00",
                "balance": "0x0de0b6b3a7640000",
                "code": "0x",
                "storage": {}
            },
            "0x10ea232ac5f40f1fddcb820d5b7fc3af0f409fa2": {
                "nonce": "0x00",
                "balance": "0x2e",
                "code": "0x6000355415600957005b60203560003555",
                "storage": {}
            },
            "0x10ea232ac5f40f1fddcb820d5b7fc3af0f40a0a2": {
                "nonce": "0x00",
                "balance": "0x00",
                "code": "0x7f000000000000000000000000000000000000000000000000000000000000000143507f000000000000000000000000000000000000000000000000000000000000c350417f00000000000000000000000000000000000000000000000000000000000000006f423b3c407e7c6f16718668738d193cf260005155",
                "storage": {}
            }
        },
        "transaction": {
            "nonce": "0x00",
            "gasPrice": "0x0a",
            "gasLimit": [
                "0x0186a0"
            ],
            "to": "0x10ea232ac5f40f1fddcb820d5b7fc3af0f40a0a2",
            "value": [
                "0x303cdc5a"
            ],
            "data": [
                "0x7f000000000000000000000000000000000000000000000000000000000000000143507f000000000000000000000000000000000000000000000000000000000000c350417f00000000000000000000000000000000000000000000000000000000000000006f423b3c407e7c6f16718668738d193cf2"
            ],
            "sender": "0xb1747a368d913ab063445403f9c4fa788dc0d899",
            "secretKey": "0x871c18a36dd640200bc8090d10ea232ac5f40f1fddcb820d5b7fc3af0f409fa2"
        },
        "post": {
            "Prague": [
                {
                    "hash": "0x81f8a09e1cd0378e8f4a46ac89ee6c8ea6d4ce1afe2f57f2cc9ec774b7726ca7",
                    "logs": "0x1dcc4de8dec75d7aab85b567b6ccd41ad312451b948a7413f0a142fd40d49347",
                    "txbytes": "0xf8dc800a830186a09410ea232ac5f40f1fddcb820d5b7fc3af0f40a0a284303cdc5ab8777f000000000000000000000000000000000000000000000000000000000000000143507f000000000000000000000000000000000000000000000000000000000000c350417f00000000000000000000000000000000000000000000000000000000000000006f423b3c407e7c6f16718668738d193cf226a0db033226e07d31318c7ff2f43c63742242eef64a16b910b83ed2c80324d00b96a00a672cf14592a36aed8a4e753068a8b427a35b28e397e6c6cc65b60be1e46252",
                    "indexes": {
                        "data": 0,
                        "gas": 0,
                        "value": 0
                    },
                    "state": {
                        "0xb1747a368d913ab063445403f9c4fa788dc0d899": {
                            "nonce": "0x01",
                            "balance": "0x0de0b6b377207038",
                            "code": "0x",
                            "storage": {}
                        },
                        "0x10ea232ac5f40f1fddcb820d5b7fc3af0f409fa2": {
                            "nonce": "0x00",
                            "balance": "0x2e",
                            "code": "0x6000355415600957005b60203560003555",
                            "storage": {}
                        },
                        "0x10ea232ac5f40f1fddcb820d5b7fc3af0f40a0a2": {
                            "nonce": "0x00",
                            "balance": "0x303cdc5a",
                            "code": "0x7f000000000000000000000000000000000000000000000000000000000000000143507f000000000000000000000000000000000000000000000000000000000000c350417f00000000000000000000000000000000000000000000000000000000000000006f423b3c407e7c6f16718668738d193cf260005155",
                            "storage": {
                                "0x00": "0x423b3c407e7c6f16718668738d193cf2"
                            }
                        }
                    }
                }
            ]
        },
        "config": {
            "blobSchedule": {
                "Cancun": {
                    "target": "0x03",
                    "max": "0x06",
                    "baseFeeUpdateFraction": "0x32f0ed"
                },
                "Prague": {
                    "target": "0x06",
                    "max": "0x09",
                    "baseFeeUpdateFraction": "0x4c6964"
                }
            },
            "chainid": "0x01"
        },
        "_info": {
            "hash": "0xa693b1f2c15452134ec7caa4276605293fcb06d6e832fe341ad0379d0b7ab1c6",
            "comment": "`execution-spec-tests` generated test",
            "filling-transition-tool": "ethereum-spec-evm-resolver 0.0.5",
            "description": "No description available - add a docstring to the python test class or function.",
            "url": "",
            "fixture-format": "state_test",
            "eels-resolution": {
                "git-url": "https://github.com/ethereum/execution-specs.git",
                "branch": "forks/bpos",
                "commit": "7aacb2c54111391af5e98c505d5010b5698a770f"
            }
        }
    }
}