{
    "tests/static/state_tests/stRandom/randomStatetest326Filler.json::randomStatetest326[fork_Cancun-state_test-]": {
        "env": {
            "currentCoinbase": "0xdf0c6414c0852979f335a2d6664573cdc67203ea",
            "currentGasLimit": "0x7fffffffffffffff",
            "currentNumber": "0x01",
            "currentTimestamp": "0x03e8",
            "currentRandom": "0x0000000000000000000000000000000000000000000000000000000000020000",
            "currentDifficulty": "0x00",
            "currentBaseFee": "0x0a",
            "currentExcessBlobGas": "0x00"
        },
        "pre": {
            "0x5815c5689900aa73818079f762589a3c01b3057b": {
                "nonce": "0x00",
                "balance": "0x0de0b6b3a7640000",
                "code": "0x",
                "storage": {}
            },
            "0xdf0c6414c0852979f335a2d6664573cdc67203ea": {
                "nonce": "0x00",
                "balance": "0x2e",
                "code": "0x6000355415600957005b60203560003555",
                "storage": {}
            },
            "0xdf0c6414c0852979f335a2d6664573cdc67204ea": {
                "nonce": "0x00",
                "balance": "0x00",
                "code": "0x7f000000000000000000000000000000000000000000000000000000000000000034577fffffffffffffffffffffffffffffffffffffffffffffffffffffffffffffffff7fffffffffffffffffffffffffffffffffffffffffffffffffffffffffffffffff7fffffffffffffffffffffffffffffffffffffffffffffffffffffffffffffffff7f00000000000000000000000100000000000000000000000000000000000000007f0000000000000000000000000000000000000000000000000000000000000000426259cb6142a1196e3168c986758aa4",
                "storage": {}
            }
        },
        "transaction": {
            "nonce": "0x00",
            "gasPrice": "0x0a",
            "gasLimit": [
                "0x16bc578c"
            ],
            "to": "0xdf0c6414c0852979f335a2d6664573cdc67204ea",
            "value": [
                "0x5e1f88b1"
            ],
            "data": [
                "0x7f000000000000000000000000000000000000000000000000000000000000000034577fffffffffffffffffffffffffffffffffffffffffffffffffffffffffffffffff7fffffffffffffffffffffffffffffffffffffffffffffffffffffffffffffffff7fffffffffffffffffffffffffffffffffffffffffffffffffffffffffffffffff7f00000000000000000000000100000000000000000000000000000000000000007f0000000000000000000000000000000000000000000000000000000000000000426259cb6142a1196e3168c986758aa4"
            ],
            "sender": "0x5815c5689900aa73818079f762589a3c01b3057b",
            "secretKey": "0xd3cc52e1a53f2ccc091cc154df0c6414c0852979f335a2d6664573cdc67203ea"
        },
        "post": {
            "Cancun": [
                {
                    "hash": "0xaadfa35571304d9f8646af64549576fb0777c64b2b98fefc7b95d5396627531d",
                    "logs": "0xe1da2e20d9049212dd7eda819fb05e2170cd6b45824839d0690e604ff80d7740",
                    "txbytes": "0xf9013e800a8416bc578c94df0c6414c0852979f335a2d6664573cdc67204ea845e1f88b1b8d87f000000000000000000000000000000000000000000000000000000000000000034577fffffffffffffffffffffffffffffffffffffffffffffffffffffffffffffffff7fffffffffffffffffffffffffffffffffffffffffffffffffffffffffffffffff7fffffffffffffffffffffffffffffffffffffffffffffffffffffffffffffffff7f00000000000000000000000100000000000000000000000000000000000000007f0000000000000000000000000000000000000000000000000000000000000000426259cb6142a1196e3168c986758aa426a0ee60b84d4ea5f8af25e6494f2e97e5fe0b85d0aa9f87267b8dbc97d363968f05a06263df9eeedbc2b4805a8c466457855369fd3261bc23e43fc1713709499e0d4f",
                    "indexes": {
                        "data": 0,
                        "gas": 0,
                        "value": 0
                    },
                    "state": {
                        "0x5815c5689900aa73818079f762589a3c01b3057b": {
                            "nonce": "0x01",
                            "balance": "0x0de0b6b3057ab9ed",
                            "code": "0x",
                            "storage": {}
                        },
                        "0xdf0c6414c0852979f335a2d6664573cdc67203ea": {
                            "nonce": "0x00",
                            "balance": "0x2e",
                            "code": "0x6000355415600957005b60203560003555",
                            "storage": {}
                        },
                        "0xdf0c6414c0852979f335a2d6664573cdc67204ea": {
                            "nonce": "0x00",
                            "balance": "0x5e1f88b1",
                            "code": "0x7f000000000000000000000000000000000000000000000000000000000000000034577fffffffffffffffffffffffffffffffffffffffffffffffffffffffffffffffff7fffffffffffffffffffffffffffffffffffffffffffffffffffffffffffffffff7fffffffffffffffffffffffffffffffffffffffffffffffffffffffffffffffff7f00000000000000000000000100000000000000000000000000000000000000007f0000000000000000000000000000000000000000000000000000000000000000426259cb6142a1196e3168c986758aa4",
                            "storage": {}
                        }
                    }
                }
            ]
        },
        "config": {
            "blobSchedule": {
                "Cancun": {
                    "target": "0x03",
                    "max": "0x06",
                    "baseFeeUpdateFraction": "0x32f0ed"
                }
            },
            "chainid": "0x01"
        },
        "_info": {
            "hash": "0x085722410532be5c6ad99c87278035c3e497399a51f559389a4ec4ae13d50b9a",
            "comment": "`execution-spec-tests` generated test",
            "filling-transition-tool": "ethereum-spec-evm-resolver 0.0.5",
            "description": "No description available - add a docstring to the python test class or function.",
            "url": "",
            "fixture-format": "state_test",
            "eels-resolution": {
                "git-url": "https://github.com/marioevz/execution-specs.git",
                "branch": "forks/bpo1",
                "commit": "3387e5f4aedfe99becfdc39b444d6371e25e0924"
            }
        }
    },
    "tests/static/state_tests/stRandom/randomStatetest326Filler.json::randomStatetest326[fork_Prague-state_test-]": {
        "env": {
            "currentCoinbase": "0xdf0c6414c0852979f335a2d6664573cdc67203ea",
            "currentGasLimit": "0x7fffffffffffffff",
            "currentNumber": "0x01",
            "currentTimestamp": "0x03e8",
            "currentRandom": "0x0000000000000000000000000000000000000000000000000000000000020000",
            "currentDifficulty": "0x00",
            "currentBaseFee": "0x0a",
            "currentExcessBlobGas": "0x00"
        },
        "pre": {
            "0x5815c5689900aa73818079f762589a3c01b3057b": {
                "nonce": "0x00",
                "balance": "0x0de0b6b3a7640000",
                "code": "0x",
                "storage": {}
            },
            "0xdf0c6414c0852979f335a2d6664573cdc67203ea": {
                "nonce": "0x00",
                "balance": "0x2e",
                "code": "0x6000355415600957005b60203560003555",
                "storage": {}
            },
            "0xdf0c6414c0852979f335a2d6664573cdc67204ea": {
                "nonce": "0x00",
                "balance": "0x00",
                "code": "0x7f000000000000000000000000000000000000000000000000000000000000000034577fffffffffffffffffffffffffffffffffffffffffffffffffffffffffffffffff7fffffffffffffffffffffffffffffffffffffffffffffffffffffffffffffffff7fffffffffffffffffffffffffffffffffffffffffffffffffffffffffffffffff7f00000000000000000000000100000000000000000000000000000000000000007f0000000000000000000000000000000000000000000000000000000000000000426259cb6142a1196e3168c986758aa4",
                "storage": {}
            }
        },
        "transaction": {
            "nonce": "0x00",
            "gasPrice": "0x0a",
            "gasLimit": [
                "0x16bc578c"
            ],
            "to": "0xdf0c6414c0852979f335a2d6664573cdc67204ea",
            "value": [
                "0x5e1f88b1"
            ],
            "data": [
                "0x7f000000000000000000000000000000000000000000000000000000000000000034577fffffffffffffffffffffffffffffffffffffffffffffffffffffffffffffffff7fffffffffffffffffffffffffffffffffffffffffffffffffffffffffffffffff7fffffffffffffffffffffffffffffffffffffffffffffffffffffffffffffffff7f00000000000000000000000100000000000000000000000000000000000000007f0000000000000000000000000000000000000000000000000000000000000000426259cb6142a1196e3168c986758aa4"
            ],
            "sender": "0x5815c5689900aa73818079f762589a3c01b3057b",
            "secretKey": "0xd3cc52e1a53f2ccc091cc154df0c6414c0852979f335a2d6664573cdc67203ea"
        },
        "post": {
            "Prague": [
                {
                    "hash": "0xaadfa35571304d9f8646af64549576fb0777c64b2b98fefc7b95d5396627531d",
                    "logs": "0xe1da2e20d9049212dd7eda819fb05e2170cd6b45824839d0690e604ff80d7740",
                    "txbytes": "0xf9013e800a8416bc578c94df0c6414c0852979f335a2d6664573cdc67204ea845e1f88b1b8d87f000000000000000000000000000000000000000000000000000000000000000034577fffffffffffffffffffffffffffffffffffffffffffffffffffffffffffffffff7fffffffffffffffffffffffffffffffffffffffffffffffffffffffffffffffff7fffffffffffffffffffffffffffffffffffffffffffffffffffffffffffffffff7f00000000000000000000000100000000000000000000000000000000000000007f0000000000000000000000000000000000000000000000000000000000000000426259cb6142a1196e3168c986758aa426a0ee60b84d4ea5f8af25e6494f2e97e5fe0b85d0aa9f87267b8dbc97d363968f05a06263df9eeedbc2b4805a8c466457855369fd3261bc23e43fc1713709499e0d4f",
                    "indexes": {
                        "data": 0,
                        "gas": 0,
                        "value": 0
                    },
                    "state": {
                        "0x5815c5689900aa73818079f762589a3c01b3057b": {
                            "nonce": "0x01",
                            "balance": "0x0de0b6b3057ab9ed",
                            "code": "0x",
                            "storage": {}
                        },
                        "0xdf0c6414c0852979f335a2d6664573cdc67203ea": {
                            "nonce": "0x00",
                            "balance": "0x2e",
                            "code": "0x6000355415600957005b60203560003555",
                            "storage": {}
                        },
                        "0xdf0c6414c0852979f335a2d6664573cdc67204ea": {
                            "nonce": "0x00",
                            "balance": "0x5e1f88b1",
                            "code": "0x7f000000000000000000000000000000000000000000000000000000000000000034577fffffffffffffffffffffffffffffffffffffffffffffffffffffffffffffffff7fffffffffffffffffffffffffffffffffffffffffffffffffffffffffffffffff7fffffffffffffffffffffffffffffffffffffffffffffffffffffffffffffffff7f00000000000000000000000100000000000000000000000000000000000000007f0000000000000000000000000000000000000000000000000000000000000000426259cb6142a1196e3168c986758aa4",
                            "storage": {}
                        }
                    }
                }
            ]
        },
        "config": {
            "blobSchedule": {
                "Cancun": {
                    "target": "0x03",
                    "max": "0x06",
                    "baseFeeUpdateFraction": "0x32f0ed"
                },
                "Prague": {
                    "target": "0x06",
                    "max": "0x09",
                    "baseFeeUpdateFraction": "0x4c6964"
                }
            },
            "chainid": "0x01"
        },
        "_info": {
            "hash": "0x3b72b95f015662fed726329cc3e84674c5d10f15d15f2edc5f5ff32bed3e03d7",
            "comment": "`execution-spec-tests` generated test",
            "filling-transition-tool": "ethereum-spec-evm-resolver 0.0.5",
            "description": "No description available - add a docstring to the python test class or function.",
            "url": "",
            "fixture-format": "state_test",
            "eels-resolution": {
                "git-url": "https://github.com/marioevz/execution-specs.git",
                "branch": "forks/bpo1",
                "commit": "3387e5f4aedfe99becfdc39b444d6371e25e0924"
            }
        }
    }
}