{
    "tests/static/state_tests/stRandom/randomStatetest196Filler.json::randomStatetest196[fork_Cancun-state_test-]": {
        "env": {
            "currentCoinbase": "0x402f43d50f3873f25a35e4fc2de5550e967ffac6",
            "currentGasLimit": "0x7fffffffffffffff",
            "currentNumber": "0x01",
            "currentTimestamp": "0x03e8",
            "currentRandom": "0x0000000000000000000000000000000000000000000000000000000000020000",
            "currentDifficulty": "0x00",
            "currentBaseFee": "0x0a",
            "currentExcessBlobGas": "0x00"
        },
        "pre": {
            "0xef2a6df175c9848145dd33c2d3ab87bec246eda5": {
                "nonce": "0x00",
                "balance": "0x0de0b6b3a7640000",
                "code": "0x",
                "storage": {}
            },
            "0x402f43d50f3873f25a35e4fc2de5550e967ffac6": {
                "nonce": "0x00",
                "balance": "0x2e",
                "code": "0x6000355415600957005b60203560003555",
                "storage": {}
            },
            "0x402f43d50f3873f25a35e4fc2de5550e967ffbc6": {
                "nonce": "0x00",
                "balance": "0x00",
                "code": "0x7f000000000000000000000000ffffffffffffffffffffffffffffffffffffffff7f00000000000000000000000000000000000000000000000000000000000000017f000000000000000000000000402f43d50f3873f25a35e4fc2de5550e967ffac67ffffffffffffffffffffffffffffffffffffffffffffffffffffffffffffffffe447f00000000000000000000000000000000000000000000000000000000000000017f00000000000000000000000100000000000000000000000000000000000000007f00000000000000000000000000000000000000000000000000000000000000003703659c5b3a6d7b9a93543660005155",
                "storage": {}
            }
        },
        "transaction": {
            "nonce": "0x00",
            "gasPrice": "0x0a",
            "gasLimit": [
                "0x0186a0"
            ],
            "to": "0x402f43d50f3873f25a35e4fc2de5550e967ffbc6",
            "value": [
                "0x2819e4be"
            ],
            "data": [
                "0x7f000000000000000000000000ffffffffffffffffffffffffffffffffffffffff7f00000000000000000000000000000000000000000000000000000000000000017f000000000000000000000000402f43d50f3873f25a35e4fc2de5550e967ffac67ffffffffffffffffffffffffffffffffffffffffffffffffffffffffffffffffe447f00000000000000000000000000000000000000000000000000000000000000017f00000000000000000000000100000000000000000000000000000000000000007f00000000000000000000000000000000000000000000000000000000000000003703659c5b3a6d7b9a935436"
            ],
            "sender": "0xef2a6df175c9848145dd33c2d3ab87bec246eda5",
            "secretKey": "0x35b8acaf2bbbae7ee18e16ce402f43d50f3873f25a35e4fc2de5550e967ffac6"
        },
        "post": {
            "Cancun": [
                {
                    "hash": "0x3d4a1a81504b6407b803f05dde83781569c06d9174ef09171939f8ba219d7978",
                    "logs": "0x1dcc4de8dec75d7aab85b567b6ccd41ad312451b948a7413f0a142fd40d49347",
                    "txbytes": "0xf90159800a830186a094402f43d50f3873f25a35e4fc2de5550e967ffbc6842819e4beb8f47f000000000000000000000000ffffffffffffffffffffffffffffffffffffffff7f00000000000000000000000000000000000000000000000000000000000000017f000000000000000000000000402f43d50f3873f25a35e4fc2de5550e967ffac67ffffffffffffffffffffffffffffffffffffffffffffffffffffffffffffffffe447f00000000000000000000000000000000000000000000000000000000000000017f00000000000000000000000100000000000000000000000000000000000000007f00000000000000000000000000000000000000000000000000000000000000003703659c5b3a6d7b9a93543626a031d7ef7f10ef5f6217bd602a8691eb6a55b3dc24d522f0847fcb3f94c7feb3f7a068f01806eb58388fc477204723f93381d44c39ea88c8d69ea248e8511b429a8f",
                    "indexes": {
                        "data": 0,
                        "gas": 0,
                        "value": 0
                    },
                    "state": {
                        "0xef2a6df175c9848145dd33c2d3ab87bec246eda5": {
                            "nonce": "0x01",
                            "balance": "0x0de0b6b37f42e110",
                            "code": "0x",
                            "storage": {}
                        },
                        "0x402f43d50f3873f25a35e4fc2de5550e967ffac6": {
                            "nonce": "0x00",
                            "balance": "0x2e",
                            "code": "0x6000355415600957005b60203560003555",
                            "storage": {}
                        },
                        "0x402f43d50f3873f25a35e4fc2de5550e967ffbc6": {
                            "nonce": "0x00",
                            "balance": "0x2819e4be",
                            "code": "0x7f000000000000000000000000ffffffffffffffffffffffffffffffffffffffff7f00000000000000000000000000000000000000000000000000000000000000017f000000000000000000000000402f43d50f3873f25a35e4fc2de5550e967ffac67ffffffffffffffffffffffffffffffffffffffffffffffffffffffffffffffffe447f00000000000000000000000000000000000000000000000000000000000000017f00000000000000000000000100000000000000000000000000000000000000007f00000000000000000000000000000000000000000000000000000000000000003703659c5b3a6d7b9a93543660005155",
                            "storage": {
                                "0x00": "0xf4"
                            }
                        }
                    }
                }
            ]
        },
        "config": {
            "blobSchedule": {
                "Cancun": {
                    "target": "0x03",
                    "max": "0x06",
                    "baseFeeUpdateFraction": "0x32f0ed"
                }
            },
            "chainid": "0x01"
        },
        "_info": {
            "hash": "0xbc9f5e8f21761b0cc60bd04557f37ee256b3be6c9dfc0391a99a1b6e41aa2309",
            "comment": "`execution-specs` generated test",
            "filling-transition-tool": "2.18.0rc6",
            "description": "No description available - add a docstring to the python test class or function.",
            "url": "",
            "fixture-format": "state_test"
        }
    },
    "tests/static/state_tests/stRandom/randomStatetest196Filler.json::randomStatetest196[fork_Osaka-state_test-]": {
        "env": {
            "currentCoinbase": "0x402f43d50f3873f25a35e4fc2de5550e967ffac6",
            "currentGasLimit": "0x7fffffffffffffff",
            "currentNumber": "0x01",
            "currentTimestamp": "0x03e8",
            "currentRandom": "0x0000000000000000000000000000000000000000000000000000000000020000",
            "currentDifficulty": "0x00",
            "currentBaseFee": "0x0a",
            "currentExcessBlobGas": "0x00"
        },
        "pre": {
            "0xef2a6df175c9848145dd33c2d3ab87bec246eda5": {
                "nonce": "0x00",
                "balance": "0x0de0b6b3a7640000",
                "code": "0x",
                "storage": {}
            },
            "0x402f43d50f3873f25a35e4fc2de5550e967ffac6": {
                "nonce": "0x00",
                "balance": "0x2e",
                "code": "0x6000355415600957005b60203560003555",
                "storage": {}
            },
            "0x402f43d50f3873f25a35e4fc2de5550e967ffbc6": {
                "nonce": "0x00",
                "balance": "0x00",
                "code": "0x7f000000000000000000000000ffffffffffffffffffffffffffffffffffffffff7f00000000000000000000000000000000000000000000000000000000000000017f000000000000000000000000402f43d50f3873f25a35e4fc2de5550e967ffac67ffffffffffffffffffffffffffffffffffffffffffffffffffffffffffffffffe447f00000000000000000000000000000000000000000000000000000000000000017f00000000000000000000000100000000000000000000000000000000000000007f00000000000000000000000000000000000000000000000000000000000000003703659c5b3a6d7b9a93543660005155",
                "storage": {}
            }
        },
        "transaction": {
            "nonce": "0x00",
            "gasPrice": "0x0a",
            "gasLimit": [
                "0x0186a0"
            ],
            "to": "0x402f43d50f3873f25a35e4fc2de5550e967ffbc6",
            "value": [
                "0x2819e4be"
            ],
            "data": [
                "0x7f000000000000000000000000ffffffffffffffffffffffffffffffffffffffff7f00000000000000000000000000000000000000000000000000000000000000017f000000000000000000000000402f43d50f3873f25a35e4fc2de5550e967ffac67ffffffffffffffffffffffffffffffffffffffffffffffffffffffffffffffffe447f00000000000000000000000000000000000000000000000000000000000000017f00000000000000000000000100000000000000000000000000000000000000007f00000000000000000000000000000000000000000000000000000000000000003703659c5b3a6d7b9a935436"
            ],
            "sender": "0xef2a6df175c9848145dd33c2d3ab87bec246eda5",
            "secretKey": "0x35b8acaf2bbbae7ee18e16ce402f43d50f3873f25a35e4fc2de5550e967ffac6"
        },
        "post": {
            "Osaka": [
                {
                    "hash": "0x3d4a1a81504b6407b803f05dde83781569c06d9174ef09171939f8ba219d7978",
                    "logs": "0x1dcc4de8dec75d7aab85b567b6ccd41ad312451b948a7413f0a142fd40d49347",
                    "txbytes": "0xf90159800a830186a094402f43d50f3873f25a35e4fc2de5550e967ffbc6842819e4beb8f47f000000000000000000000000ffffffffffffffffffffffffffffffffffffffff7f00000000000000000000000000000000000000000000000000000000000000017f000000000000000000000000402f43d50f3873f25a35e4fc2de5550e967ffac67ffffffffffffffffffffffffffffffffffffffffffffffffffffffffffffffffe447f00000000000000000000000000000000000000000000000000000000000000017f00000000000000000000000100000000000000000000000000000000000000007f00000000000000000000000000000000000000000000000000000000000000003703659c5b3a6d7b9a93543626a031d7ef7f10ef5f6217bd602a8691eb6a55b3dc24d522f0847fcb3f94c7feb3f7a068f01806eb58388fc477204723f93381d44c39ea88c8d69ea248e8511b429a8f",
                    "indexes": {
                        "data": 0,
                        "gas": 0,
                        "value": 0
                    },
                    "state": {
                        "0xef2a6df175c9848145dd33c2d3ab87bec246eda5": {
                            "nonce": "0x01",
                            "balance": "0x0de0b6b37f42e110",
                            "code": "0x",
                            "storage": {}
                        },
                        "0x402f43d50f3873f25a35e4fc2de5550e967ffac6": {
                            "nonce": "0x00",
                            "balance": "0x2e",
                            "code": "0x6000355415600957005b60203560003555",
                            "storage": {}
                        },
                        "0x402f43d50f3873f25a35e4fc2de5550e967ffbc6": {
                            "nonce": "0x00",
                            "balance": "0x2819e4be",
                            "code": "0x7f000000000000000000000000ffffffffffffffffffffffffffffffffffffffff7f00000000000000000000000000000000000000000000000000000000000000017f000000000000000000000000402f43d50f3873f25a35e4fc2de5550e967ffac67ffffffffffffffffffffffffffffffffffffffffffffffffffffffffffffffffe447f00000000000000000000000000000000000000000000000000000000000000017f00000000000000000000000100000000000000000000000000000000000000007f00000000000000000000000000000000000000000000000000000000000000003703659c5b3a6d7b9a93543660005155",
                            "storage": {
                                "0x00": "0xf4"
                            }
                        }
                    }
                }
            ]
        },
        "config": {
            "blobSchedule": {
                "Cancun": {
                    "target": "0x03",
                    "max": "0x06",
                    "baseFeeUpdateFraction": "0x32f0ed"
                },
                "Prague": {
                    "target": "0x06",
                    "max": "0x09",
                    "baseFeeUpdateFraction": "0x4c6964"
                },
                "Osaka": {
                    "target": "0x06",
                    "max": "0x09",
                    "baseFeeUpdateFraction": "0x4c6964"
                }
            },
            "chainid": "0x01"
        },
        "_info": {
            "hash": "0xf7ca2f8df4d842684fb48e465d80073274a197d4490d3108a7262430528d3c80",
            "comment": "`execution-specs` generated test",
            "filling-transition-tool": "2.18.0rc6",
            "description": "No description available - add a docstring to the python test class or function.",
            "url": "",
            "fixture-format": "state_test"
        }
    },
    "tests/static/state_tests/stRandom/randomStatetest196Filler.json::randomStatetest196[fork_Prague-state_test-]": {
        "env": {
            "currentCoinbase": "0x402f43d50f3873f25a35e4fc2de5550e967ffac6",
            "currentGasLimit": "0x7fffffffffffffff",
            "currentNumber": "0x01",
            "currentTimestamp": "0x03e8",
            "currentRandom": "0x0000000000000000000000000000000000000000000000000000000000020000",
            "currentDifficulty": "0x00",
            "currentBaseFee": "0x0a",
            "currentExcessBlobGas": "0x00"
        },
        "pre": {
            "0xef2a6df175c9848145dd33c2d3ab87bec246eda5": {
                "nonce": "0x00",
                "balance": "0x0de0b6b3a7640000",
                "code": "0x",
                "storage": {}
            },
            "0x402f43d50f3873f25a35e4fc2de5550e967ffac6": {
                "nonce": "0x00",
                "balance": "0x2e",
                "code": "0x6000355415600957005b60203560003555",
                "storage": {}
            },
            "0x402f43d50f3873f25a35e4fc2de5550e967ffbc6": {
                "nonce": "0x00",
                "balance": "0x00",
                "code": "0x7f000000000000000000000000ffffffffffffffffffffffffffffffffffffffff7f00000000000000000000000000000000000000000000000000000000000000017f000000000000000000000000402f43d50f3873f25a35e4fc2de5550e967ffac67ffffffffffffffffffffffffffffffffffffffffffffffffffffffffffffffffe447f00000000000000000000000000000000000000000000000000000000000000017f00000000000000000000000100000000000000000000000000000000000000007f00000000000000000000000000000000000000000000000000000000000000003703659c5b3a6d7b9a93543660005155",
                "storage": {}
            }
        },
        "transaction": {
            "nonce": "0x00",
            "gasPrice": "0x0a",
            "gasLimit": [
                "0x0186a0"
            ],
            "to": "0x402f43d50f3873f25a35e4fc2de5550e967ffbc6",
            "value": [
                "0x2819e4be"
            ],
            "data": [
                "0x7f000000000000000000000000ffffffffffffffffffffffffffffffffffffffff7f00000000000000000000000000000000000000000000000000000000000000017f000000000000000000000000402f43d50f3873f25a35e4fc2de5550e967ffac67ffffffffffffffffffffffffffffffffffffffffffffffffffffffffffffffffe447f00000000000000000000000000000000000000000000000000000000000000017f00000000000000000000000100000000000000000000000000000000000000007f00000000000000000000000000000000000000000000000000000000000000003703659c5b3a6d7b9a935436"
            ],
            "sender": "0xef2a6df175c9848145dd33c2d3ab87bec246eda5",
            "secretKey": "0x35b8acaf2bbbae7ee18e16ce402f43d50f3873f25a35e4fc2de5550e967ffac6"
        },
        "post": {
            "Prague": [
                {
                    "hash": "0x3d4a1a81504b6407b803f05dde83781569c06d9174ef09171939f8ba219d7978",
                    "logs": "0x1dcc4de8dec75d7aab85b567b6ccd41ad312451b948a7413f0a142fd40d49347",
                    "txbytes": "0xf90159800a830186a094402f43d50f3873f25a35e4fc2de5550e967ffbc6842819e4beb8f47f000000000000000000000000ffffffffffffffffffffffffffffffffffffffff7f00000000000000000000000000000000000000000000000000000000000000017f000000000000000000000000402f43d50f3873f25a35e4fc2de5550e967ffac67ffffffffffffffffffffffffffffffffffffffffffffffffffffffffffffffffe447f00000000000000000000000000000000000000000000000000000000000000017f00000000000000000000000100000000000000000000000000000000000000007f00000000000000000000000000000000000000000000000000000000000000003703659c5b3a6d7b9a93543626a031d7ef7f10ef5f6217bd602a8691eb6a55b3dc24d522f0847fcb3f94c7feb3f7a068f01806eb58388fc477204723f93381d44c39ea88c8d69ea248e8511b429a8f",
                    "indexes": {
                        "data": 0,
                        "gas": 0,
                        "value": 0
                    },
                    "state": {
                        "0xef2a6df175c9848145dd33c2d3ab87bec246eda5": {
                            "nonce": "0x01",
                            "balance": "0x0de0b6b37f42e110",
                            "code": "0x",
                            "storage": {}
                        },
                        "0x402f43d50f3873f25a35e4fc2de5550e967ffac6": {
                            "nonce": "0x00",
                            "balance": "0x2e",
                            "code": "0x6000355415600957005b60203560003555",
                            "storage": {}
                        },
                        "0x402f43d50f3873f25a35e4fc2de5550e967ffbc6": {
                            "nonce": "0x00",
                            "balance": "0x2819e4be",
                            "code": "0x7f000000000000000000000000ffffffffffffffffffffffffffffffffffffffff7f00000000000000000000000000000000000000000000000000000000000000017f000000000000000000000000402f43d50f3873f25a35e4fc2de5550e967ffac67ffffffffffffffffffffffffffffffffffffffffffffffffffffffffffffffffe447f00000000000000000000000000000000000000000000000000000000000000017f00000000000000000000000100000000000000000000000000000000000000007f00000000000000000000000000000000000000000000000000000000000000003703659c5b3a6d7b9a93543660005155",
                            "storage": {
                                "0x00": "0xf4"
                            }
                        }
                    }
                }
            ]
        },
        "config": {
            "blobSchedule": {
                "Cancun": {
                    "target": "0x03",
                    "max": "0x06",
                    "baseFeeUpdateFraction": "0x32f0ed"
                },
                "Prague": {
                    "target": "0x06",
                    "max": "0x09",
                    "baseFeeUpdateFraction": "0x4c6964"
                }
            },
            "chainid": "0x01"
        },
        "_info": {
            "hash": "0xed70d892d9b6b32c4151d48516432eeef02d63e31696d89bde126fe38937299a",
            "comment": "`execution-specs` generated test",
            "filling-transition-tool": "2.18.0rc6",
            "description": "No description available - add a docstring to the python test class or function.",
            "url": "",
            "fixture-format": "state_test"
        }
    }
}