{
    "tests/static/state_tests/stRandom/randomStatetest345Filler.json::randomStatetest345[fork_Cancun-state_test-]": {
        "env": {
            "currentCoinbase": "0xc00459939584c86ffa090112f3b44a4226a1a286",
            "currentGasLimit": "0x7fffffffffffffff",
            "currentNumber": "0x01",
            "currentTimestamp": "0x03e8",
            "currentRandom": "0x0000000000000000000000000000000000000000000000000000000000020000",
            "currentDifficulty": "0x00",
            "currentBaseFee": "0x0a",
            "currentExcessBlobGas": "0x00"
        },
        "pre": {
            "0x1e26fd853df7b6439a5aa2a12a5844a78e788089": {
                "nonce": "0x00",
                "balance": "0x0de0b6b3a7640000",
                "code": "0x",
                "storage": {}
            },
            "0xc00459939584c86ffa090112f3b44a4226a1a286": {
                "nonce": "0x00",
                "balance": "0x2e",
                "code": "0x6000355415600957005b60203560003555",
                "storage": {}
            },
            "0xc00459939584c86ffa090112f3b44a4226a1a386": {
                "nonce": "0x00",
                "balance": "0x00",
                "code": "0x417f0000000000000000000000000000000000000000000000000000000000000001447fffffffffffffffffffffffffffffffffffffffffffffffffffffffffffffffff7ffffffffffffffffffffffffffffffffffffffffffffffffffffffffffffffffe7f000000000000000000000000000000000000000000000000000000000000000035420b417f056699168fa16d8d94113b60005155",
                "storage": {}
            }
        },
        "transaction": {
            "nonce": "0x00",
            "gasPrice": "0x0a",
            "gasLimit": [
                "0x0186a0"
            ],
            "to": "0xc00459939584c86ffa090112f3b44a4226a1a386",
            "value": [
                "0xb78937"
            ],
            "data": [
                "0x417f0000000000000000000000000000000000000000000000000000000000000001447fffffffffffffffffffffffffffffffffffffffffffffffffffffffffffffffff7ffffffffffffffffffffffffffffffffffffffffffffffffffffffffffffffffe7f000000000000000000000000000000000000000000000000000000000000000035420b417f056699168fa16d8d94113b"
            ],
            "sender": "0x1e26fd853df7b6439a5aa2a12a5844a78e788089",
            "secretKey": "0x19848b1cf4258e285cf6b594c00459939584c86ffa090112f3b44a4226a1a286"
        },
        "post": {
            "Cancun": [
                {
                    "hash": "0x3ff2ba4ae191f4ccf20ea45ccd767d470f1265bb4eab7a68dd6f57f96f814f44",
                    "logs": "0x1dcc4de8dec75d7aab85b567b6ccd41ad312451b948a7413f0a142fd40d49347",
                    "txbytes": "0xf8fa800a830186a094c00459939584c86ffa090112f3b44a4226a1a38683b78937b896417f0000000000000000000000000000000000000000000000000000000000000001447fffffffffffffffffffffffffffffffffffffffffffffffffffffffffffffffff7ffffffffffffffffffffffffffffffffffffffffffffffffffffffffffffffffe7f000000000000000000000000000000000000000000000000000000000000000035420b417f056699168fa16d8d94113b25a0eb79f39bcb5e49951a4f953ffd7e2d54d0785edda6bc3e4247a7a49576505e96a04e4b6c19ee66fce5ccce3ac017d6660f2f713203fdc9391c212306d61f0c859a",
                    "indexes": {
                        "data": 0,
                        "gas": 0,
                        "value": 0
                    },
                    "state": {
                        "0x1e26fd853df7b6439a5aa2a12a5844a78e788089": {
                            "nonce": "0x01",
                            "balance": "0x0de0b6b3a6a9010b",
                            "code": "0x",
                            "storage": {}
                        },
                        "0xc00459939584c86ffa090112f3b44a4226a1a286": {
                            "nonce": "0x00",
                            "balance": "0x2e",
                            "code": "0x6000355415600957005b60203560003555",
                            "storage": {}
                        },
                        "0xc00459939584c86ffa090112f3b44a4226a1a386": {
                            "nonce": "0x00",
                            "balance": "0xb78937",
                            "code": "0x417f0000000000000000000000000000000000000000000000000000000000000001447fffffffffffffffffffffffffffffffffffffffffffffffffffffffffffffffff7ffffffffffffffffffffffffffffffffffffffffffffffffffffffffffffffffe7f000000000000000000000000000000000000000000000000000000000000000035420b417f056699168fa16d8d94113b60005155",
                            "storage": {}
                        }
                    }
                }
            ]
        },
        "config": {
            "blobSchedule": {
                "Cancun": {
                    "target": "0x03",
                    "max": "0x06",
                    "baseFeeUpdateFraction": "0x32f0ed"
                }
            },
            "chainid": "0x01"
        },
        "_info": {
            "hash": "0xe351b0fd2ba4b6d472dfcb386849439dc3491e98b3ae6350d5f8f8ec9bedc378",
            "comment": "`execution-specs` generated test",
            "filling-transition-tool": "2.18.0rc6",
            "description": "No description available - add a docstring to the python test class or function.",
            "url": "",
            "fixture-format": "state_test"
        }
    },
    "tests/static/state_tests/stRandom/randomStatetest345Filler.json::randomStatetest345[fork_Osaka-state_test-]": {
        "env": {
            "currentCoinbase": "0xc00459939584c86ffa090112f3b44a4226a1a286",
            "currentGasLimit": "0x7fffffffffffffff",
            "currentNumber": "0x01",
            "currentTimestamp": "0x03e8",
            "currentRandom": "0x0000000000000000000000000000000000000000000000000000000000020000",
            "currentDifficulty": "0x00",
            "currentBaseFee": "0x0a",
            "currentExcessBlobGas": "0x00"
        },
        "pre": {
            "0x1e26fd853df7b6439a5aa2a12a5844a78e788089": {
                "nonce": "0x00",
                "balance": "0x0de0b6b3a7640000",
                "code": "0x",
                "storage": {}
            },
            "0xc00459939584c86ffa090112f3b44a4226a1a286": {
                "nonce": "0x00",
                "balance": "0x2e",
                "code": "0x6000355415600957005b60203560003555",
                "storage": {}
            },
            "0xc00459939584c86ffa090112f3b44a4226a1a386": {
                "nonce": "0x00",
                "balance": "0x00",
                "code": "0x417f0000000000000000000000000000000000000000000000000000000000000001447fffffffffffffffffffffffffffffffffffffffffffffffffffffffffffffffff7ffffffffffffffffffffffffffffffffffffffffffffffffffffffffffffffffe7f000000000000000000000000000000000000000000000000000000000000000035420b417f056699168fa16d8d94113b60005155",
                "storage": {}
            }
        },
        "transaction": {
            "nonce": "0x00",
            "gasPrice": "0x0a",
            "gasLimit": [
                "0x0186a0"
            ],
            "to": "0xc00459939584c86ffa090112f3b44a4226a1a386",
            "value": [
                "0xb78937"
            ],
            "data": [
                "0x417f0000000000000000000000000000000000000000000000000000000000000001447fffffffffffffffffffffffffffffffffffffffffffffffffffffffffffffffff7ffffffffffffffffffffffffffffffffffffffffffffffffffffffffffffffffe7f000000000000000000000000000000000000000000000000000000000000000035420b417f056699168fa16d8d94113b"
            ],
            "sender": "0x1e26fd853df7b6439a5aa2a12a5844a78e788089",
            "secretKey": "0x19848b1cf4258e285cf6b594c00459939584c86ffa090112f3b44a4226a1a286"
        },
        "post": {
            "Osaka": [
                {
                    "hash": "0xb48260520d7a503686f6fbedb2c463c06aa79aa56c84ad237b4bae1e28675e69",
                    "logs": "0x1dcc4de8dec75d7aab85b567b6ccd41ad312451b948a7413f0a142fd40d49347",
                    "txbytes": "0xf8fa800a830186a094c00459939584c86ffa090112f3b44a4226a1a38683b78937b896417f0000000000000000000000000000000000000000000000000000000000000001447fffffffffffffffffffffffffffffffffffffffffffffffffffffffffffffffff7ffffffffffffffffffffffffffffffffffffffffffffffffffffffffffffffffe7f000000000000000000000000000000000000000000000000000000000000000035420b417f056699168fa16d8d94113b25a0eb79f39bcb5e49951a4f953ffd7e2d54d0785edda6bc3e4247a7a49576505e96a04e4b6c19ee66fce5ccce3ac017d6660f2f713203fdc9391c212306d61f0c859a",
                    "indexes": {
                        "data": 0,
                        "gas": 0,
                        "value": 0
                    },
                    "state": {
                        "0x1e26fd853df7b6439a5aa2a12a5844a78e788089": {
                            "nonce": "0x01",
                            "balance": "0x0de0b6b3a6a8a1ed",
                            "code": "0x",
                            "storage": {}
                        },
                        "0xc00459939584c86ffa090112f3b44a4226a1a286": {
                            "nonce": "0x00",
                            "balance": "0x2e",
                            "code": "0x6000355415600957005b60203560003555",
                            "storage": {}
                        },
                        "0xc00459939584c86ffa090112f3b44a4226a1a386": {
                            "nonce": "0x00",
                            "balance": "0xb78937",
                            "code": "0x417f0000000000000000000000000000000000000000000000000000000000000001447fffffffffffffffffffffffffffffffffffffffffffffffffffffffffffffffff7ffffffffffffffffffffffffffffffffffffffffffffffffffffffffffffffffe7f000000000000000000000000000000000000000000000000000000000000000035420b417f056699168fa16d8d94113b60005155",
                            "storage": {}
                        }
                    }
                }
            ]
        },
        "config": {
            "blobSchedule": {
                "Cancun": {
                    "target": "0x03",
                    "max": "0x06",
                    "baseFeeUpdateFraction": "0x32f0ed"
                },
                "Prague": {
                    "target": "0x06",
                    "max": "0x09",
                    "baseFeeUpdateFraction": "0x4c6964"
                },
                "Osaka": {
                    "target": "0x06",
                    "max": "0x09",
                    "baseFeeUpdateFraction": "0x4c6964"
                }
            },
            "chainid": "0x01"
        },
        "_info": {
            "hash": "0x460fc8a0cafb30191e1e4ac77473fadac1914c2bb6d7203865baaa14995f8089",
            "comment": "`execution-specs` generated test",
            "filling-transition-tool": "2.18.0rc6",
            "description": "No description available - add a docstring to the python test class or function.",
            "url": "",
            "fixture-format": "state_test"
        }
    },
    "tests/static/state_tests/stRandom/randomStatetest345Filler.json::randomStatetest345[fork_Prague-state_test-]": {
        "env": {
            "currentCoinbase": "0xc00459939584c86ffa090112f3b44a4226a1a286",
            "currentGasLimit": "0x7fffffffffffffff",
            "currentNumber": "0x01",
            "currentTimestamp": "0x03e8",
            "currentRandom": "0x0000000000000000000000000000000000000000000000000000000000020000",
            "currentDifficulty": "0x00",
            "currentBaseFee": "0x0a",
            "currentExcessBlobGas": "0x00"
        },
        "pre": {
            "0x1e26fd853df7b6439a5aa2a12a5844a78e788089": {
                "nonce": "0x00",
                "balance": "0x0de0b6b3a7640000",
                "code": "0x",
                "storage": {}
            },
            "0xc00459939584c86ffa090112f3b44a4226a1a286": {
                "nonce": "0x00",
                "balance": "0x2e",
                "code": "0x6000355415600957005b60203560003555",
                "storage": {}
            },
            "0xc00459939584c86ffa090112f3b44a4226a1a386": {
                "nonce": "0x00",
                "balance": "0x00",
                "code": "0x417f0000000000000000000000000000000000000000000000000000000000000001447fffffffffffffffffffffffffffffffffffffffffffffffffffffffffffffffff7ffffffffffffffffffffffffffffffffffffffffffffffffffffffffffffffffe7f000000000000000000000000000000000000000000000000000000000000000035420b417f056699168fa16d8d94113b60005155",
                "storage": {}
            }
        },
        "transaction": {
            "nonce": "0x00",
            "gasPrice": "0x0a",
            "gasLimit": [
                "0x0186a0"
            ],
            "to": "0xc00459939584c86ffa090112f3b44a4226a1a386",
            "value": [
                "0xb78937"
            ],
            "data": [
                "0x417f0000000000000000000000000000000000000000000000000000000000000001447fffffffffffffffffffffffffffffffffffffffffffffffffffffffffffffffff7ffffffffffffffffffffffffffffffffffffffffffffffffffffffffffffffffe7f000000000000000000000000000000000000000000000000000000000000000035420b417f056699168fa16d8d94113b"
            ],
            "sender": "0x1e26fd853df7b6439a5aa2a12a5844a78e788089",
            "secretKey": "0x19848b1cf4258e285cf6b594c00459939584c86ffa090112f3b44a4226a1a286"
        },
        "post": {
            "Prague": [
                {
                    "hash": "0xb48260520d7a503686f6fbedb2c463c06aa79aa56c84ad237b4bae1e28675e69",
                    "logs": "0x1dcc4de8dec75d7aab85b567b6ccd41ad312451b948a7413f0a142fd40d49347",
                    "txbytes": "0xf8fa800a830186a094c00459939584c86ffa090112f3b44a4226a1a38683b78937b896417f0000000000000000000000000000000000000000000000000000000000000001447fffffffffffffffffffffffffffffffffffffffffffffffffffffffffffffffff7ffffffffffffffffffffffffffffffffffffffffffffffffffffffffffffffffe7f000000000000000000000000000000000000000000000000000000000000000035420b417f056699168fa16d8d94113b25a0eb79f39bcb5e49951a4f953ffd7e2d54d0785edda6bc3e4247a7a49576505e96a04e4b6c19ee66fce5ccce3ac017d6660f2f713203fdc9391c212306d61f0c859a",
                    "indexes": {
                        "data": 0,
                        "gas": 0,
                        "value": 0
                    },
                    "state": {
                        "0x1e26fd853df7b6439a5aa2a12a5844a78e788089": {
                            "nonce": "0x01",
                            "balance": "0x0de0b6b3a6a8a1ed",
                            "code": "0x",
                            "storage": {}
                        },
                        "0xc00459939584c86ffa090112f3b44a4226a1a286": {
                            "nonce": "0x00",
                            "balance": "0x2e",
                            "code": "0x6000355415600957005b60203560003555",
                            "storage": {}
                        },
                        "0xc00459939584c86ffa090112f3b44a4226a1a386": {
                            "nonce": "0x00",
                            "balance": "0xb78937",
                            "code": "0x417f0000000000000000000000000000000000000000000000000000000000000001447fffffffffffffffffffffffffffffffffffffffffffffffffffffffffffffffff7ffffffffffffffffffffffffffffffffffffffffffffffffffffffffffffffffe7f000000000000000000000000000000000000000000000000000000000000000035420b417f056699168fa16d8d94113b60005155",
                            "storage": {}
                        }
                    }
                }
            ]
        },
        "config": {
            "blobSchedule": {
                "Cancun": {
                    "target": "0x03",
                    "max": "0x06",
                    "baseFeeUpdateFraction": "0x32f0ed"
                },
                "Prague": {
                    "target": "0x06",
                    "max": "0x09",
                    "baseFeeUpdateFraction": "0x4c6964"
                }
            },
            "chainid": "0x01"
        },
        "_info": {
            "hash": "0x97db342a826c756dd88e7173305e9e47a70052cdd1b99292c6b35708e1c9ecec",
            "comment": "`execution-specs` generated test",
            "filling-transition-tool": "2.18.0rc6",
            "description": "No description available - add a docstring to the python test class or function.",
            "url": "",
            "fixture-format": "state_test"
        }
    }
}