{
    "tests/static/state_tests/stRandom/randomStatetest199Filler.json::randomStatetest199[fork_Cancun-state_test-]": {
        "env": {
            "currentCoinbase": "0x19b150f260eec5bd73930a0503669a1061ef23ab",
            "currentGasLimit": "0x7fffffffffffffff",
            "currentNumber": "0x01",
            "currentTimestamp": "0x03e8",
            "currentRandom": "0x0000000000000000000000000000000000000000000000000000000000020000",
            "currentDifficulty": "0x00",
            "currentBaseFee": "0x0a",
            "currentExcessBlobGas": "0x00"
        },
        "pre": {
            "0x884bf301318899f0a6e8a688aca7d02629911695": {
                "nonce": "0x00",
                "balance": "0x0de0b6b3a7640000",
                "code": "0x",
                "storage": {}
            },
            "0x19b150f260eec5bd73930a0503669a1061ef23ab": {
                "nonce": "0x00",
                "balance": "0x2e",
                "code": "0x6000355415600957005b60203560003555",
                "storage": {}
            },
            "0x19b150f260eec5bd73930a0503669a1061ef24ab": {
                "nonce": "0x00",
                "balance": "0x0de0b6b3a7640000",
                "code": "0x30424543074242413155",
                "storage": {}
            }
        },
        "transaction": {
            "nonce": "0x00",
            "gasPrice": "0x0a",
            "gasLimit": [
                "0x061a80"
            ],
            "to": "0x19b150f260eec5bd73930a0503669a1061ef24ab",
            "value": [
                "0x0186a0"
            ],
            "data": [
                "0x42"
            ],
            "sender": "0x884bf301318899f0a6e8a688aca7d02629911695",
            "secretKey": "0x51117c0ae90b1c0128b1972619b150f260eec5bd73930a0503669a1061ef23ab"
        },
        "post": {
            "Cancun": [
                {
                    "hash": "0x43e5e66d557cba9b470f1454db85a17c3dd6fc2726586826da875466054906a1",
                    "logs": "0x1dcc4de8dec75d7aab85b567b6ccd41ad312451b948a7413f0a142fd40d49347",
                    "txbytes": "0xf863800a83061a809419b150f260eec5bd73930a0503669a1061ef24ab830186a04225a0c43bfd5c79ff3c2a12e8f74acb6639901fac348ddd99b3b0c1e99684df2a66dfa014fdfe3f9ff0037d9656fada0f88b45622a24e6ff4bc0e6419e42b8c96066cf9",
                    "indexes": {
                        "data": 0,
                        "gas": 0,
                        "value": 0
                    },
                    "state": {
                        "0x884bf301318899f0a6e8a688aca7d02629911695": {
                            "nonce": "0x01",
                            "balance": "0x0de0b6b3a75be082",
                            "code": "0x",
                            "storage": {}
                        },
                        "0x19b150f260eec5bd73930a0503669a1061ef23ab": {
                            "nonce": "0x00",
                            "balance": "0x2e",
                            "code": "0x6000355415600957005b60203560003555",
                            "storage": {}
                        },
                        "0x19b150f260eec5bd73930a0503669a1061ef24ab": {
                            "nonce": "0x00",
                            "balance": "0x0de0b6b3a76586a0",
                            "code": "0x30424543074242413155",
                            "storage": {
                                "0x2e": "0x03e8"
                            }
                        }
                    }
                }
            ]
        },
        "config": {
            "blobSchedule": {
                "Cancun": {
                    "target": "0x03",
                    "max": "0x06",
                    "baseFeeUpdateFraction": "0x32f0ed"
                }
            },
            "chainid": "0x01"
        },
        "_info": {
            "hash": "0xe78c16b4866c0115bb95a0168437f855f491a1640b99de7fac8d4bfc6a6dc03c",
            "comment": "`execution-specs` generated test",
            "filling-transition-tool": "2.18.0rc6",
            "description": "No description available - add a docstring to the python test class or function.",
            "url": "",
            "fixture-format": "state_test"
        }
    },
    "tests/static/state_tests/stRandom/randomStatetest199Filler.json::randomStatetest199[fork_Osaka-state_test-]": {
        "env": {
            "currentCoinbase": "0x19b150f260eec5bd73930a0503669a1061ef23ab",
            "currentGasLimit": "0x7fffffffffffffff",
            "currentNumber": "0x01",
            "currentTimestamp": "0x03e8",
            "currentRandom": "0x0000000000000000000000000000000000000000000000000000000000020000",
            "currentDifficulty": "0x00",
            "currentBaseFee": "0x0a",
            "currentExcessBlobGas": "0x00"
        },
        "pre": {
            "0x884bf301318899f0a6e8a688aca7d02629911695": {
                "nonce": "0x00",
                "balance": "0x0de0b6b3a7640000",
                "code": "0x",
                "storage": {}
            },
            "0x19b150f260eec5bd73930a0503669a1061ef23ab": {
                "nonce": "0x00",
                "balance": "0x2e",
                "code": "0x6000355415600957005b60203560003555",
                "storage": {}
            },
            "0x19b150f260eec5bd73930a0503669a1061ef24ab": {
                "nonce": "0x00",
                "balance": "0x0de0b6b3a7640000",
                "code": "0x30424543074242413155",
                "storage": {}
            }
        },
        "transaction": {
            "nonce": "0x00",
            "gasPrice": "0x0a",
            "gasLimit": [
                "0x061a80"
            ],
            "to": "0x19b150f260eec5bd73930a0503669a1061ef24ab",
            "value": [
                "0x0186a0"
            ],
            "data": [
                "0x42"
            ],
            "sender": "0x884bf301318899f0a6e8a688aca7d02629911695",
            "secretKey": "0x51117c0ae90b1c0128b1972619b150f260eec5bd73930a0503669a1061ef23ab"
        },
        "post": {
            "Osaka": [
                {
                    "hash": "0x43e5e66d557cba9b470f1454db85a17c3dd6fc2726586826da875466054906a1",
                    "logs": "0x1dcc4de8dec75d7aab85b567b6ccd41ad312451b948a7413f0a142fd40d49347",
                    "txbytes": "0xf863800a83061a809419b150f260eec5bd73930a0503669a1061ef24ab830186a04225a0c43bfd5c79ff3c2a12e8f74acb6639901fac348ddd99b3b0c1e99684df2a66dfa014fdfe3f9ff0037d9656fada0f88b45622a24e6ff4bc0e6419e42b8c96066cf9",
                    "indexes": {
                        "data": 0,
                        "gas": 0,
                        "value": 0
                    },
                    "state": {
                        "0x884bf301318899f0a6e8a688aca7d02629911695": {
                            "nonce": "0x01",
                            "balance": "0x0de0b6b3a75be082",
                            "code": "0x",
                            "storage": {}
                        },
                        "0x19b150f260eec5bd73930a0503669a1061ef23ab": {
                            "nonce": "0x00",
                            "balance": "0x2e",
                            "code": "0x6000355415600957005b60203560003555",
                            "storage": {}
                        },
                        "0x19b150f260eec5bd73930a0503669a1061ef24ab": {
                            "nonce": "0x00",
                            "balance": "0x0de0b6b3a76586a0",
                            "code": "0x30424543074242413155",
                            "storage": {
                                "0x2e": "0x03e8"
                            }
                        }
                    }
                }
            ]
        },
        "config": {
            "blobSchedule": {
                "Cancun": {
                    "target": "0x03",
                    "max": "0x06",
                    "baseFeeUpdateFraction": "0x32f0ed"
                },
                "Prague": {
                    "target": "0x06",
                    "max": "0x09",
                    "baseFeeUpdateFraction": "0x4c6964"
                },
                "Osaka": {
                    "target": "0x06",
                    "max": "0x09",
                    "baseFeeUpdateFraction": "0x4c6964"
                }
            },
            "chainid": "0x01"
        },
        "_info": {
            "hash": "0x67c1d86f8f35aeb845f5b99ecfbea2d9943f1fd71ca6c4bae180b058eda37fc2",
            "comment": "`execution-specs` generated test",
            "filling-transition-tool": "2.18.0rc6",
            "description": "No description available - add a docstring to the python test class or function.",
            "url": "",
            "fixture-format": "state_test"
        }
    },
    "tests/static/state_tests/stRandom/randomStatetest199Filler.json::randomStatetest199[fork_Prague-state_test-]": {
        "env": {
            "currentCoinbase": "0x19b150f260eec5bd73930a0503669a1061ef23ab",
            "currentGasLimit": "0x7fffffffffffffff",
            "currentNumber": "0x01",
            "currentTimestamp": "0x03e8",
            "currentRandom": "0x0000000000000000000000000000000000000000000000000000000000020000",
            "currentDifficulty": "0x00",
            "currentBaseFee": "0x0a",
            "currentExcessBlobGas": "0x00"
        },
        "pre": {
            "0x884bf301318899f0a6e8a688aca7d02629911695": {
                "nonce": "0x00",
                "balance": "0x0de0b6b3a7640000",
                "code": "0x",
                "storage": {}
            },
            "0x19b150f260eec5bd73930a0503669a1061ef23ab": {
                "nonce": "0x00",
                "balance": "0x2e",
                "code": "0x6000355415600957005b60203560003555",
                "storage": {}
            },
            "0x19b150f260eec5bd73930a0503669a1061ef24ab": {
                "nonce": "0x00",
                "balance": "0x0de0b6b3a7640000",
                "code": "0x30424543074242413155",
                "storage": {}
            }
        },
        "transaction": {
            "nonce": "0x00",
            "gasPrice": "0x0a",
            "gasLimit": [
                "0x061a80"
            ],
            "to": "0x19b150f260eec5bd73930a0503669a1061ef24ab",
            "value": [
                "0x0186a0"
            ],
            "data": [
                "0x42"
            ],
            "sender": "0x884bf301318899f0a6e8a688aca7d02629911695",
            "secretKey": "0x51117c0ae90b1c0128b1972619b150f260eec5bd73930a0503669a1061ef23ab"
        },
        "post": {
            "Prague": [
                {
                    "hash": "0x43e5e66d557cba9b470f1454db85a17c3dd6fc2726586826da875466054906a1",
                    "logs": "0x1dcc4de8dec75d7aab85b567b6ccd41ad312451b948a7413f0a142fd40d49347",
                    "txbytes": "0xf863800a83061a809419b150f260eec5bd73930a0503669a1061ef24ab830186a04225a0c43bfd5c79ff3c2a12e8f74acb6639901fac348ddd99b3b0c1e99684df2a66dfa014fdfe3f9ff0037d9656fada0f88b45622a24e6ff4bc0e6419e42b8c96066cf9",
                    "indexes": {
                        "data": 0,
                        "gas": 0,
                        "value": 0
                    },
                    "state": {
                        "0x884bf301318899f0a6e8a688aca7d02629911695": {
                            "nonce": "0x01",
                            "balance": "0x0de0b6b3a75be082",
                            "code": "0x",
                            "storage": {}
                        },
                        "0x19b150f260eec5bd73930a0503669a1061ef23ab": {
                            "nonce": "0x00",
                            "balance": "0x2e",
                            "code": "0x6000355415600957005b60203560003555",
                            "storage": {}
                        },
                        "0x19b150f260eec5bd73930a0503669a1061ef24ab": {
                            "nonce": "0x00",
                            "balance": "0x0de0b6b3a76586a0",
                            "code": "0x30424543074242413155",
                            "storage": {
                                "0x2e": "0x03e8"
                            }
                        }
                    }
                }
            ]
        },
        "config": {
            "blobSchedule": {
                "Cancun": {
                    "target": "0x03",
                    "max": "0x06",
                    "baseFeeUpdateFraction": "0x32f0ed"
                },
                "Prague": {
                    "target": "0x06",
                    "max": "0x09",
                    "baseFeeUpdateFraction": "0x4c6964"
                }
            },
            "chainid": "0x01"
        },
        "_info": {
            "hash": "0x28f7641617e9f1103e08537b73b7d208618a6e397eb96f126eb9534be465746f",
            "comment": "`execution-specs` generated test",
            "filling-transition-tool": "2.18.0rc6",
            "description": "No description available - add a docstring to the python test class or function.",
            "url": "",
            "fixture-format": "state_test"
        }
    }
}