{
    "tests/static/state_tests/stRandom/randomStatetest355Filler.json::randomStatetest355[fork_Cancun-state_test-]": {
        "env": {
            "currentCoinbase": "0xf376e9299339c4504c20498721f665a72003ff58",
            "currentGasLimit": "0x7fffffffffffffff",
            "currentNumber": "0x01",
            "currentTimestamp": "0x03e8",
            "currentRandom": "0x0000000000000000000000000000000000000000000000000000000000020000",
            "currentDifficulty": "0x00",
            "currentBaseFee": "0x0a",
            "currentExcessBlobGas": "0x00"
        },
        "pre": {
            "0xda7c259f45ed11374df4a2d0b9b1c5cc4320132a": {
                "nonce": "0x00",
                "balance": "0x0de0b6b3a7640000",
                "code": "0x",
                "storage": {}
            },
            "0xf376e9299339c4504c20498721f665a72003ff58": {
                "nonce": "0x00",
                "balance": "0x2e",
                "code": "0x6000355415600957005b60203560003555",
                "storage": {}
            },
            "0xf376e9299339c4504c20498721f665a720040058": {
                "nonce": "0x00",
                "balance": "0x00",
                "code": "0x7f00000000000000000000000000000000000000000000000000000000000000017f000000000000000000000000f376e9299339c4504c20498721f665a72003ff587f00000000000000000000000000000000000000000000000000000000000000007f00000000000000000000000000000000000000000000000000000000000000007f000000000000000000000000f376e9299339c4504c20498721f665a72003ff58457f000000000000000000000000000000000000000000000000000000000000c3507f0000000000000000000000000000000000000000000000000000000000000001666b56e87c5a499d5389306e55",
                "storage": {}
            }
        },
        "transaction": {
            "nonce": "0x00",
            "gasPrice": "0x0a",
            "gasLimit": [
                "0x0186a0"
            ],
            "to": "0xf376e9299339c4504c20498721f665a720040058",
            "value": [
                "0x275009c5"
            ],
            "data": [
                "0x7f00000000000000000000000000000000000000000000000000000000000000017f000000000000000000000000f376e9299339c4504c20498721f665a72003ff587f00000000000000000000000000000000000000000000000000000000000000007f00000000000000000000000000000000000000000000000000000000000000007f000000000000000000000000f376e9299339c4504c20498721f665a72003ff58457f000000000000000000000000000000000000000000000000000000000000c3507f0000000000000000000000000000000000000000000000000000000000000001666b56e87c5a499d5389306e"
            ],
            "sender": "0xda7c259f45ed11374df4a2d0b9b1c5cc4320132a",
            "secretKey": "0xc7f08fd9870def87b763b1a6f376e9299339c4504c20498721f665a72003ff58"
        },
        "post": {
            "Cancun": [
                {
                    "hash": "0x4d0d53cf3dd979214af1d9ea9f597209faec53e6dde5f73a37af927bee07f880",
                    "logs": "0x1dcc4de8dec75d7aab85b567b6ccd41ad312451b948a7413f0a142fd40d49347",
                    "txbytes": "0xf90159800a830186a094f376e9299339c4504c20498721f665a72004005884275009c5b8f47f00000000000000000000000000000000000000000000000000000000000000017f000000000000000000000000f376e9299339c4504c20498721f665a72003ff587f00000000000000000000000000000000000000000000000000000000000000007f00000000000000000000000000000000000000000000000000000000000000007f000000000000000000000000f376e9299339c4504c20498721f665a72003ff58457f000000000000000000000000000000000000000000000000000000000000c3507f0000000000000000000000000000000000000000000000000000000000000001666b56e87c5a499d5389306e25a0c90d926a4a0014184149353e98fa1422412b7799162f488e66046b80e3134b10a0487e750e976553a5af0a5e10db5df293898a3567e86a1daca561b97c77862c9b",
                    "indexes": {
                        "data": 0,
                        "gas": 0,
                        "value": 0
                    },
                    "state": {
                        "0xda7c259f45ed11374df4a2d0b9b1c5cc4320132a": {
                            "nonce": "0x01",
                            "balance": "0x0de0b6b3a754bdc0",
                            "code": "0x",
                            "storage": {}
                        },
                        "0xf376e9299339c4504c20498721f665a72003ff58": {
                            "nonce": "0x00",
                            "balance": "0x2e",
                            "code": "0x6000355415600957005b60203560003555",
                            "storage": {}
                        },
                        "0xf376e9299339c4504c20498721f665a720040058": {
                            "nonce": "0x00",
                            "balance": "0x00",
                            "code": "0x7f00000000000000000000000000000000000000000000000000000000000000017f000000000000000000000000f376e9299339c4504c20498721f665a72003ff587f00000000000000000000000000000000000000000000000000000000000000007f00000000000000000000000000000000000000000000000000000000000000007f000000000000000000000000f376e9299339c4504c20498721f665a72003ff58457f000000000000000000000000000000000000000000000000000000000000c3507f0000000000000000000000000000000000000000000000000000000000000001666b56e87c5a499d5389306e55",
                            "storage": {}
                        }
                    }
                }
            ]
        },
        "config": {
            "blobSchedule": {
                "Cancun": {
                    "target": "0x03",
                    "max": "0x06",
                    "baseFeeUpdateFraction": "0x32f0ed"
                }
            },
            "chainid": "0x01"
        },
        "_info": {
            "hash": "0x15c0b5926abd9e21d8955e2e65d7a1a3c8b4419892c015dad600ee646dce74d9",
            "comment": "`execution-spec-tests` generated test",
            "filling-transition-tool": "ethereum-spec-evm-resolver 0.0.5",
            "description": "No description available - add a docstring to the python test class or function.",
            "url": "",
            "fixture-format": "state_test",
            "eels-resolution": {
                "git-url": "https://github.com/marioevz/execution-specs.git",
                "branch": "forks/bpo1",
                "commit": "3387e5f4aedfe99becfdc39b444d6371e25e0924"
            }
        }
    },
    "tests/static/state_tests/stRandom/randomStatetest355Filler.json::randomStatetest355[fork_Osaka-state_test-]": {
        "env": {
            "currentCoinbase": "0xf376e9299339c4504c20498721f665a72003ff58",
            "currentGasLimit": "0x7fffffffffffffff",
            "currentNumber": "0x01",
            "currentTimestamp": "0x03e8",
            "currentRandom": "0x0000000000000000000000000000000000000000000000000000000000020000",
            "currentDifficulty": "0x00",
            "currentBaseFee": "0x0a",
            "currentExcessBlobGas": "0x00"
        },
        "pre": {
            "0xda7c259f45ed11374df4a2d0b9b1c5cc4320132a": {
                "nonce": "0x00",
                "balance": "0x0de0b6b3a7640000",
                "code": "0x",
                "storage": {}
            },
            "0xf376e9299339c4504c20498721f665a72003ff58": {
                "nonce": "0x00",
                "balance": "0x2e",
                "code": "0x6000355415600957005b60203560003555",
                "storage": {}
            },
            "0xf376e9299339c4504c20498721f665a720040058": {
                "nonce": "0x00",
                "balance": "0x00",
                "code": "0x7f00000000000000000000000000000000000000000000000000000000000000017f000000000000000000000000f376e9299339c4504c20498721f665a72003ff587f00000000000000000000000000000000000000000000000000000000000000007f00000000000000000000000000000000000000000000000000000000000000007f000000000000000000000000f376e9299339c4504c20498721f665a72003ff58457f000000000000000000000000000000000000000000000000000000000000c3507f0000000000000000000000000000000000000000000000000000000000000001666b56e87c5a499d5389306e55",
                "storage": {}
            }
        },
        "transaction": {
            "nonce": "0x00",
            "gasPrice": "0x0a",
            "gasLimit": [
                "0x0186a0"
            ],
            "to": "0xf376e9299339c4504c20498721f665a720040058",
            "value": [
                "0x275009c5"
            ],
            "data": [
                "0x7f00000000000000000000000000000000000000000000000000000000000000017f000000000000000000000000f376e9299339c4504c20498721f665a72003ff587f00000000000000000000000000000000000000000000000000000000000000007f00000000000000000000000000000000000000000000000000000000000000007f000000000000000000000000f376e9299339c4504c20498721f665a72003ff58457f000000000000000000000000000000000000000000000000000000000000c3507f0000000000000000000000000000000000000000000000000000000000000001666b56e87c5a499d5389306e"
            ],
            "sender": "0xda7c259f45ed11374df4a2d0b9b1c5cc4320132a",
            "secretKey": "0xc7f08fd9870def87b763b1a6f376e9299339c4504c20498721f665a72003ff58"
        },
        "post": {
            "Osaka": [
                {
                    "hash": "0x4d0d53cf3dd979214af1d9ea9f597209faec53e6dde5f73a37af927bee07f880",
                    "logs": "0x1dcc4de8dec75d7aab85b567b6ccd41ad312451b948a7413f0a142fd40d49347",
                    "txbytes": "0xf90159800a830186a094f376e9299339c4504c20498721f665a72004005884275009c5b8f47f00000000000000000000000000000000000000000000000000000000000000017f000000000000000000000000f376e9299339c4504c20498721f665a72003ff587f00000000000000000000000000000000000000000000000000000000000000007f00000000000000000000000000000000000000000000000000000000000000007f000000000000000000000000f376e9299339c4504c20498721f665a72003ff58457f000000000000000000000000000000000000000000000000000000000000c3507f0000000000000000000000000000000000000000000000000000000000000001666b56e87c5a499d5389306e25a0c90d926a4a0014184149353e98fa1422412b7799162f488e66046b80e3134b10a0487e750e976553a5af0a5e10db5df293898a3567e86a1daca561b97c77862c9b",
                    "indexes": {
                        "data": 0,
                        "gas": 0,
                        "value": 0
                    },
                    "state": {
                        "0xda7c259f45ed11374df4a2d0b9b1c5cc4320132a": {
                            "nonce": "0x01",
                            "balance": "0x0de0b6b3a754bdc0",
                            "code": "0x",
                            "storage": {}
                        },
                        "0xf376e9299339c4504c20498721f665a72003ff58": {
                            "nonce": "0x00",
                            "balance": "0x2e",
                            "code": "0x6000355415600957005b60203560003555",
                            "storage": {}
                        },
                        "0xf376e9299339c4504c20498721f665a720040058": {
                            "nonce": "0x00",
                            "balance": "0x00",
                            "code": "0x7f00000000000000000000000000000000000000000000000000000000000000017f000000000000000000000000f376e9299339c4504c20498721f665a72003ff587f00000000000000000000000000000000000000000000000000000000000000007f00000000000000000000000000000000000000000000000000000000000000007f000000000000000000000000f376e9299339c4504c20498721f665a72003ff58457f000000000000000000000000000000000000000000000000000000000000c3507f0000000000000000000000000000000000000000000000000000000000000001666b56e87c5a499d5389306e55",
                            "storage": {}
                        }
                    }
                }
            ]
        },
        "config": {
            "blobSchedule": {
                "Cancun": {
                    "target": "0x03",
                    "max": "0x06",
                    "baseFeeUpdateFraction": "0x32f0ed"
                },
                "Prague": {
                    "target": "0x06",
                    "max": "0x09",
                    "baseFeeUpdateFraction": "0x4c6964"
                },
                "Osaka": {
                    "target": "0x06",
                    "max": "0x09",
                    "baseFeeUpdateFraction": "0x4c6964"
                }
            },
            "chainid": "0x01"
        },
        "_info": {
            "hash": "0x6297f66cedd5c6f0bacda89a1ab37cf3c95c82b11aa13cb9189ca9493afb6066",
            "comment": "`execution-spec-tests` generated test",
            "filling-transition-tool": "ethereum-spec-evm-resolver 0.0.5",
            "description": "No description available - add a docstring to the python test class or function.",
            "url": "",
            "fixture-format": "state_test",
            "eels-resolution": {
                "git-url": "https://github.com/marioevz/execution-specs.git",
                "branch": "forks/bpo1",
                "commit": "3387e5f4aedfe99becfdc39b444d6371e25e0924"
            }
        }
    },
    "tests/static/state_tests/stRandom/randomStatetest355Filler.json::randomStatetest355[fork_Prague-state_test-]": {
        "env": {
            "currentCoinbase": "0xf376e9299339c4504c20498721f665a72003ff58",
            "currentGasLimit": "0x7fffffffffffffff",
            "currentNumber": "0x01",
            "currentTimestamp": "0x03e8",
            "currentRandom": "0x0000000000000000000000000000000000000000000000000000000000020000",
            "currentDifficulty": "0x00",
            "currentBaseFee": "0x0a",
            "currentExcessBlobGas": "0x00"
        },
        "pre": {
            "0xda7c259f45ed11374df4a2d0b9b1c5cc4320132a": {
                "nonce": "0x00",
                "balance": "0x0de0b6b3a7640000",
                "code": "0x",
                "storage": {}
            },
            "0xf376e9299339c4504c20498721f665a72003ff58": {
                "nonce": "0x00",
                "balance": "0x2e",
                "code": "0x6000355415600957005b60203560003555",
                "storage": {}
            },
            "0xf376e9299339c4504c20498721f665a720040058": {
                "nonce": "0x00",
                "balance": "0x00",
                "code": "0x7f00000000000000000000000000000000000000000000000000000000000000017f000000000000000000000000f376e9299339c4504c20498721f665a72003ff587f00000000000000000000000000000000000000000000000000000000000000007f00000000000000000000000000000000000000000000000000000000000000007f000000000000000000000000f376e9299339c4504c20498721f665a72003ff58457f000000000000000000000000000000000000000000000000000000000000c3507f0000000000000000000000000000000000000000000000000000000000000001666b56e87c5a499d5389306e55",
                "storage": {}
            }
        },
        "transaction": {
            "nonce": "0x00",
            "gasPrice": "0x0a",
            "gasLimit": [
                "0x0186a0"
            ],
            "to": "0xf376e9299339c4504c20498721f665a720040058",
            "value": [
                "0x275009c5"
            ],
            "data": [
                "0x7f00000000000000000000000000000000000000000000000000000000000000017f000000000000000000000000f376e9299339c4504c20498721f665a72003ff587f00000000000000000000000000000000000000000000000000000000000000007f00000000000000000000000000000000000000000000000000000000000000007f000000000000000000000000f376e9299339c4504c20498721f665a72003ff58457f000000000000000000000000000000000000000000000000000000000000c3507f0000000000000000000000000000000000000000000000000000000000000001666b56e87c5a499d5389306e"
            ],
            "sender": "0xda7c259f45ed11374df4a2d0b9b1c5cc4320132a",
            "secretKey": "0xc7f08fd9870def87b763b1a6f376e9299339c4504c20498721f665a72003ff58"
        },
        "post": {
            "Prague": [
                {
                    "hash": "0x4d0d53cf3dd979214af1d9ea9f597209faec53e6dde5f73a37af927bee07f880",
                    "logs": "0x1dcc4de8dec75d7aab85b567b6ccd41ad312451b948a7413f0a142fd40d49347",
                    "txbytes": "0xf90159800a830186a094f376e9299339c4504c20498721f665a72004005884275009c5b8f47f00000000000000000000000000000000000000000000000000000000000000017f000000000000000000000000f376e9299339c4504c20498721f665a72003ff587f00000000000000000000000000000000000000000000000000000000000000007f00000000000000000000000000000000000000000000000000000000000000007f000000000000000000000000f376e9299339c4504c20498721f665a72003ff58457f000000000000000000000000000000000000000000000000000000000000c3507f0000000000000000000000000000000000000000000000000000000000000001666b56e87c5a499d5389306e25a0c90d926a4a0014184149353e98fa1422412b7799162f488e66046b80e3134b10a0487e750e976553a5af0a5e10db5df293898a3567e86a1daca561b97c77862c9b",
                    "indexes": {
                        "data": 0,
                        "gas": 0,
                        "value": 0
                    },
                    "state": {
                        "0xda7c259f45ed11374df4a2d0b9b1c5cc4320132a": {
                            "nonce": "0x01",
                            "balance": "0x0de0b6b3a754bdc0",
                            "code": "0x",
                            "storage": {}
                        },
                        "0xf376e9299339c4504c20498721f665a72003ff58": {
                            "nonce": "0x00",
                            "balance": "0x2e",
                            "code": "0x6000355415600957005b60203560003555",
                            "storage": {}
                        },
                        "0xf376e9299339c4504c20498721f665a720040058": {
                            "nonce": "0x00",
                            "balance": "0x00",
                            "code": "0x7f00000000000000000000000000000000000000000000000000000000000000017f000000000000000000000000f376e9299339c4504c20498721f665a72003ff587f00000000000000000000000000000000000000000000000000000000000000007f00000000000000000000000000000000000000000000000000000000000000007f000000000000000000000000f376e9299339c4504c20498721f665a72003ff58457f000000000000000000000000000000000000000000000000000000000000c3507f0000000000000000000000000000000000000000000000000000000000000001666b56e87c5a499d5389306e55",
                            "storage": {}
                        }
                    }
                }
            ]
        },
        "config": {
            "blobSchedule": {
                "Cancun": {
                    "target": "0x03",
                    "max": "0x06",
                    "baseFeeUpdateFraction": "0x32f0ed"
                },
                "Prague": {
                    "target": "0x06",
                    "max": "0x09",
                    "baseFeeUpdateFraction": "0x4c6964"
                }
            },
            "chainid": "0x01"
        },
        "_info": {
            "hash": "0xd583dfb02adde975871001b28ecc078bccfa893a41587a1514a9d1f0f233d59c",
            "comment": "`execution-spec-tests` generated test",
            "filling-transition-tool": "ethereum-spec-evm-resolver 0.0.5",
            "description": "No description available - add a docstring to the python test class or function.",
            "url": "",
            "fixture-format": "state_test",
            "eels-resolution": {
                "git-url": "https://github.com/marioevz/execution-specs.git",
                "branch": "forks/bpo1",
                "commit": "3387e5f4aedfe99becfdc39b444d6371e25e0924"
            }
        }
    }
}