{
    "tests/static/state_tests/stRandom/randomStatetest252Filler.json::randomStatetest252[fork_Cancun-state_test-]": {
        "env": {
            "currentCoinbase": "0x480a827f43f88fef76d6ea37d81b0f82df79f4d0",
            "currentGasLimit": "0x7fffffffffffffff",
            "currentNumber": "0x01",
            "currentTimestamp": "0x03e8",
            "currentRandom": "0x0000000000000000000000000000000000000000000000000000000000020000",
            "currentDifficulty": "0x00",
            "currentBaseFee": "0x0a",
            "currentExcessBlobGas": "0x00"
        },
        "pre": {
            "0x2d18bd2f25514a13113bb68cf5d4e6d1e21df082": {
                "nonce": "0x00",
                "balance": "0x0de0b6b3a7640000",
                "code": "0x",
                "storage": {}
            },
            "0x480a827f43f88fef76d6ea37d81b0f82df79f4d0": {
                "nonce": "0x00",
                "balance": "0x2e",
                "code": "0x6000355415600957005b60203560003555",
                "storage": {}
            },
            "0x480a827f43f88fef76d6ea37d81b0f82df79f5d0": {
                "nonce": "0x00",
                "balance": "0x0de0b6b3a7640000",
                "code": "0x387b414543444043899e863a628b55",
                "storage": {}
            }
        },
        "transaction": {
            "nonce": "0x00",
            "gasPrice": "0x0a",
            "gasLimit": [
                "0x061a80"
            ],
            "to": "0x480a827f43f88fef76d6ea37d81b0f82df79f5d0",
            "value": [
                "0x0186a0"
            ],
            "data": [
                "0x42"
            ],
            "sender": "0x2d18bd2f25514a13113bb68cf5d4e6d1e21df082",
            "secretKey": "0x1ff00602e8a51201cb5e6048480a827f43f88fef76d6ea37d81b0f82df79f4d0"
        },
        "post": {
            "Cancun": [
                {
                    "hash": "0x4b122a8b2baacb8df184a055e85e178d8ed696448653d1a568f8f32531a10114",
                    "logs": "0x1dcc4de8dec75d7aab85b567b6ccd41ad312451b948a7413f0a142fd40d49347",
                    "txbytes": "0xf863800a83061a8094480a827f43f88fef76d6ea37d81b0f82df79f5d0830186a04226a0094a84a9491d1a828276831eefead0d178c23b1064c5b53f12d09fd561749865a00d42c3b650da28bd545d9a269dab8afd273756baf53f9a36e2c012d8143eeb44",
                    "indexes": {
                        "data": 0,
                        "gas": 0,
                        "value": 0
                    },
                    "state": {
                        "0x2d18bd2f25514a13113bb68cf5d4e6d1e21df082": {
                            "nonce": "0x01",
                            "balance": "0x0de0b6b3a75f443e",
                            "code": "0x",
                            "storage": {}
                        },
                        "0x480a827f43f88fef76d6ea37d81b0f82df79f4d0": {
                            "nonce": "0x00",
                            "balance": "0x2e",
                            "code": "0x6000355415600957005b60203560003555",
                            "storage": {}
                        },
                        "0x480a827f43f88fef76d6ea37d81b0f82df79f5d0": {
                            "nonce": "0x00",
                            "balance": "0x0de0b6b3a76586a0",
                            "code": "0x387b414543444043899e863a628b55",
                            "storage": {}
                        }
                    }
                }
            ]
        },
        "config": {
            "blobSchedule": {
                "Cancun": {
                    "target": "0x03",
                    "max": "0x06",
                    "baseFeeUpdateFraction": "0x32f0ed"
                }
            },
            "chainid": "0x01"
        },
        "_info": {
            "hash": "0xce76d0a1077289e67beb6772e0038e74b438c28a57f40b8318d4d67d852b7d8b",
            "comment": "`execution-specs` generated test",
            "filling-transition-tool": "2.18.0rc6",
            "description": "No description available - add a docstring to the python test class or function.",
            "url": "",
            "fixture-format": "state_test"
        }
    },
    "tests/static/state_tests/stRandom/randomStatetest252Filler.json::randomStatetest252[fork_Osaka-state_test-]": {
        "env": {
            "currentCoinbase": "0x480a827f43f88fef76d6ea37d81b0f82df79f4d0",
            "currentGasLimit": "0x7fffffffffffffff",
            "currentNumber": "0x01",
            "currentTimestamp": "0x03e8",
            "currentRandom": "0x0000000000000000000000000000000000000000000000000000000000020000",
            "currentDifficulty": "0x00",
            "currentBaseFee": "0x0a",
            "currentExcessBlobGas": "0x00"
        },
        "pre": {
            "0x2d18bd2f25514a13113bb68cf5d4e6d1e21df082": {
                "nonce": "0x00",
                "balance": "0x0de0b6b3a7640000",
                "code": "0x",
                "storage": {}
            },
            "0x480a827f43f88fef76d6ea37d81b0f82df79f4d0": {
                "nonce": "0x00",
                "balance": "0x2e",
                "code": "0x6000355415600957005b60203560003555",
                "storage": {}
            },
            "0x480a827f43f88fef76d6ea37d81b0f82df79f5d0": {
                "nonce": "0x00",
                "balance": "0x0de0b6b3a7640000",
                "code": "0x387b414543444043899e863a628b55",
                "storage": {}
            }
        },
        "transaction": {
            "nonce": "0x00",
            "gasPrice": "0x0a",
            "gasLimit": [
                "0x061a80"
            ],
            "to": "0x480a827f43f88fef76d6ea37d81b0f82df79f5d0",
            "value": [
                "0x0186a0"
            ],
            "data": [
                "0x42"
            ],
            "sender": "0x2d18bd2f25514a13113bb68cf5d4e6d1e21df082",
            "secretKey": "0x1ff00602e8a51201cb5e6048480a827f43f88fef76d6ea37d81b0f82df79f4d0"
        },
        "post": {
            "Osaka": [
                {
                    "hash": "0xff8605f4af2565b11f98a4d8fc129e30a5bd3a2a3ccc78ed931c8b421d026b9e",
                    "logs": "0x1dcc4de8dec75d7aab85b567b6ccd41ad312451b948a7413f0a142fd40d49347",
                    "txbytes": "0xf863800a83061a8094480a827f43f88fef76d6ea37d81b0f82df79f5d0830186a04226a0094a84a9491d1a828276831eefead0d178c23b1064c5b53f12d09fd561749865a00d42c3b650da28bd545d9a269dab8afd273756baf53f9a36e2c012d8143eeb44",
                    "indexes": {
                        "data": 0,
                        "gas": 0,
                        "value": 0
                    },
                    "state": {
                        "0x2d18bd2f25514a13113bb68cf5d4e6d1e21df082": {
                            "nonce": "0x01",
                            "balance": "0x0de0b6b3a75f4380",
                            "code": "0x",
                            "storage": {}
                        },
                        "0x480a827f43f88fef76d6ea37d81b0f82df79f4d0": {
                            "nonce": "0x00",
                            "balance": "0x2e",
                            "code": "0x6000355415600957005b60203560003555",
                            "storage": {}
                        },
                        "0x480a827f43f88fef76d6ea37d81b0f82df79f5d0": {
                            "nonce": "0x00",
                            "balance": "0x0de0b6b3a76586a0",
                            "code": "0x387b414543444043899e863a628b55",
                            "storage": {}
                        }
                    }
                }
            ]
        },
        "config": {
            "blobSchedule": {
                "Cancun": {
                    "target": "0x03",
                    "max": "0x06",
                    "baseFeeUpdateFraction": "0x32f0ed"
                },
                "Prague": {
                    "target": "0x06",
                    "max": "0x09",
                    "baseFeeUpdateFraction": "0x4c6964"
                },
                "Osaka": {
                    "target": "0x06",
                    "max": "0x09",
                    "baseFeeUpdateFraction": "0x4c6964"
                }
            },
            "chainid": "0x01"
        },
        "_info": {
            "hash": "0xb5acc135e5e6e364d101b2d26f176da3c30597724acffcffcfcdd5a9a2f87e7b",
            "comment": "`execution-specs` generated test",
            "filling-transition-tool": "2.18.0rc6",
            "description": "No description available - add a docstring to the python test class or function.",
            "url": "",
            "fixture-format": "state_test"
        }
    },
    "tests/static/state_tests/stRandom/randomStatetest252Filler.json::randomStatetest252[fork_Prague-state_test-]": {
        "env": {
            "currentCoinbase": "0x480a827f43f88fef76d6ea37d81b0f82df79f4d0",
            "currentGasLimit": "0x7fffffffffffffff",
            "currentNumber": "0x01",
            "currentTimestamp": "0x03e8",
            "currentRandom": "0x0000000000000000000000000000000000000000000000000000000000020000",
            "currentDifficulty": "0x00",
            "currentBaseFee": "0x0a",
            "currentExcessBlobGas": "0x00"
        },
        "pre": {
            "0x2d18bd2f25514a13113bb68cf5d4e6d1e21df082": {
                "nonce": "0x00",
                "balance": "0x0de0b6b3a7640000",
                "code": "0x",
                "storage": {}
            },
            "0x480a827f43f88fef76d6ea37d81b0f82df79f4d0": {
                "nonce": "0x00",
                "balance": "0x2e",
                "code": "0x6000355415600957005b60203560003555",
                "storage": {}
            },
            "0x480a827f43f88fef76d6ea37d81b0f82df79f5d0": {
                "nonce": "0x00",
                "balance": "0x0de0b6b3a7640000",
                "code": "0x387b414543444043899e863a628b55",
                "storage": {}
            }
        },
        "transaction": {
            "nonce": "0x00",
            "gasPrice": "0x0a",
            "gasLimit": [
                "0x061a80"
            ],
            "to": "0x480a827f43f88fef76d6ea37d81b0f82df79f5d0",
            "value": [
                "0x0186a0"
            ],
            "data": [
                "0x42"
            ],
            "sender": "0x2d18bd2f25514a13113bb68cf5d4e6d1e21df082",
            "secretKey": "0x1ff00602e8a51201cb5e6048480a827f43f88fef76d6ea37d81b0f82df79f4d0"
        },
        "post": {
            "Prague": [
                {
                    "hash": "0xff8605f4af2565b11f98a4d8fc129e30a5bd3a2a3ccc78ed931c8b421d026b9e",
                    "logs": "0x1dcc4de8dec75d7aab85b567b6ccd41ad312451b948a7413f0a142fd40d49347",
                    "txbytes": "0xf863800a83061a8094480a827f43f88fef76d6ea37d81b0f82df79f5d0830186a04226a0094a84a9491d1a828276831eefead0d178c23b1064c5b53f12d09fd561749865a00d42c3b650da28bd545d9a269dab8afd273756baf53f9a36e2c012d8143eeb44",
                    "indexes": {
                        "data": 0,
                        "gas": 0,
                        "value": 0
                    },
                    "state": {
                        "0x2d18bd2f25514a13113bb68cf5d4e6d1e21df082": {
                            "nonce": "0x01",
                            "balance": "0x0de0b6b3a75f4380",
                            "code": "0x",
                            "storage": {}
                        },
                        "0x480a827f43f88fef76d6ea37d81b0f82df79f4d0": {
                            "nonce": "0x00",
                            "balance": "0x2e",
                            "code": "0x6000355415600957005b60203560003555",
                            "storage": {}
                        },
                        "0x480a827f43f88fef76d6ea37d81b0f82df79f5d0": {
                            "nonce": "0x00",
                            "balance": "0x0de0b6b3a76586a0",
                            "code": "0x387b414543444043899e863a628b55",
                            "storage": {}
                        }
                    }
                }
            ]
        },
        "config": {
            "blobSchedule": {
                "Cancun": {
                    "target": "0x03",
                    "max": "0x06",
                    "baseFeeUpdateFraction": "0x32f0ed"
                },
                "Prague": {
                    "target": "0x06",
                    "max": "0x09",
                    "baseFeeUpdateFraction": "0x4c6964"
                }
            },
            "chainid": "0x01"
        },
        "_info": {
            "hash": "0xbdf8e9fb271c4c5e3061759a3b65d262264645d425f9a420871f641783215409",
            "comment": "`execution-specs` generated test",
            "filling-transition-tool": "2.18.0rc6",
            "description": "No description available - add a docstring to the python test class or function.",
            "url": "",
            "fixture-format": "state_test"
        }
    }
}