{
    "tests/static/state_tests/stRandom/randomStatetest318Filler.json::randomStatetest318[fork_Cancun-state_test-]": {
        "env": {
            "currentCoinbase": "0xf98ee601701755ce5b4e337829b40e85c8686b16",
            "currentGasLimit": "0x7fffffffffffffff",
            "currentNumber": "0x01",
            "currentTimestamp": "0x03e8",
            "currentRandom": "0x0000000000000000000000000000000000000000000000000000000000020000",
            "currentDifficulty": "0x00",
            "currentBaseFee": "0x0a",
            "currentExcessBlobGas": "0x00"
        },
        "pre": {
            "0x9c7f1b496819a22fe91f4fff2784993863473f35": {
                "nonce": "0x00",
                "balance": "0x0de0b6b3a7640000",
                "code": "0x",
                "storage": {}
            },
            "0xf98ee601701755ce5b4e337829b40e85c8686b16": {
                "nonce": "0x00",
                "balance": "0x2e",
                "code": "0x6000355415600957005b60203560003555",
                "storage": {}
            },
            "0xf98ee601701755ce5b4e337829b40e85c8686c16": {
                "nonce": "0x00",
                "balance": "0x00",
                "code": "0x7f00000000000000000000000000000000000000000000000000000000000000007f000000000000000000000000000000000000000000000000000000000000c350457f000000000000000000000000f98ee601701755ce5b4e337829b40e85c8686b167fffffffffffffffffffffffffffffffffffffffffffffffffffffffffffffffff7ffffffffffffffffffffffffffffffffffffffffffffffffffffffffffffffffe7ffffffffffffffffffffffffffffffffffffffffffffffffffffffffffffffffe7f000000000000000000000000000000000000000000000000000000000000c3506f8206a30a83887e5a3164667796308d5560005155",
                "storage": {}
            }
        },
        "transaction": {
            "nonce": "0x00",
            "gasPrice": "0x0a",
            "gasLimit": [
                "0x0186a0"
            ],
            "to": "0xf98ee601701755ce5b4e337829b40e85c8686c16",
            "value": [
                "0x23f9c6f7"
            ],
            "data": [
                "0x7f00000000000000000000000000000000000000000000000000000000000000007f000000000000000000000000000000000000000000000000000000000000c350457f000000000000000000000000f98ee601701755ce5b4e337829b40e85c8686b167fffffffffffffffffffffffffffffffffffffffffffffffffffffffffffffffff7ffffffffffffffffffffffffffffffffffffffffffffffffffffffffffffffffe7ffffffffffffffffffffffffffffffffffffffffffffffffffffffffffffffffe7f000000000000000000000000000000000000000000000000000000000000c3506f8206a30a83887e5a3164667796308d"
            ],
            "sender": "0x9c7f1b496819a22fe91f4fff2784993863473f35",
            "secretKey": "0x557a11a13b2044cabb69c62ef98ee601701755ce5b4e337829b40e85c8686b16"
        },
        "post": {
            "Cancun": [
                {
                    "hash": "0x5c621959f341f8bcb96fe8b5773c8d51141e3d63babee43bedaa562a1bd10971",
                    "logs": "0x1dcc4de8dec75d7aab85b567b6ccd41ad312451b948a7413f0a142fd40d49347",
                    "txbytes": "0xf9015d800a830186a094f98ee601701755ce5b4e337829b40e85c8686c168423f9c6f7b8f87f00000000000000000000000000000000000000000000000000000000000000007f000000000000000000000000000000000000000000000000000000000000c350457f000000000000000000000000f98ee601701755ce5b4e337829b40e85c8686b167fffffffffffffffffffffffffffffffffffffffffffffffffffffffffffffffff7ffffffffffffffffffffffffffffffffffffffffffffffffffffffffffffffffe7ffffffffffffffffffffffffffffffffffffffffffffffffffffffffffffffffe7f000000000000000000000000000000000000000000000000000000000000c3506f8206a30a83887e5a3164667796308d25a03cb85d445a9cc26f9932497c4719e010b1ab2793bd787bd3fc092062b3b803efa07a5f6ffbf113dc5bffb9c790c0df021c78117f91ec34da93936f258d696cca9f",
                    "indexes": {
                        "data": 0,
                        "gas": 0,
                        "value": 0
                    },
                    "state": {
                        "0x9c7f1b496819a22fe91f4fff2784993863473f35": {
                            "nonce": "0x01",
                            "balance": "0x0de0b6b3836339d3",
                            "code": "0x",
                            "storage": {}
                        },
                        "0xf98ee601701755ce5b4e337829b40e85c8686b16": {
                            "nonce": "0x00",
                            "balance": "0x2e",
                            "code": "0x6000355415600957005b60203560003555",
                            "storage": {}
                        },
                        "0xf98ee601701755ce5b4e337829b40e85c8686c16": {
                            "nonce": "0x00",
                            "balance": "0x23f9c6f7",
                            "code": "0x7f00000000000000000000000000000000000000000000000000000000000000007f000000000000000000000000000000000000000000000000000000000000c350457f000000000000000000000000f98ee601701755ce5b4e337829b40e85c8686b167fffffffffffffffffffffffffffffffffffffffffffffffffffffffffffffffff7ffffffffffffffffffffffffffffffffffffffffffffffffffffffffffffffffe7ffffffffffffffffffffffffffffffffffffffffffffffffffffffffffffffffe7f000000000000000000000000000000000000000000000000000000000000c3506f8206a30a83887e5a3164667796308d5560005155",
                            "storage": {
                                "0x00": "0x8206a30a83887e5a3164667796308d55"
                            }
                        }
                    }
                }
            ]
        },
        "config": {
            "blobSchedule": {
                "Cancun": {
                    "target": "0x03",
                    "max": "0x06",
                    "baseFeeUpdateFraction": "0x32f0ed"
                }
            },
            "chainid": "0x01"
        },
        "_info": {
            "hash": "0x4d83e5c8167fb588cd469dcba3bd3be1f1595ebd4b59249efea5fc06fb168823",
            "comment": "`execution-specs` generated test",
            "filling-transition-tool": "2.18.0rc6",
            "description": "No description available - add a docstring to the python test class or function.",
            "url": "",
            "fixture-format": "state_test"
        }
    },
    "tests/static/state_tests/stRandom/randomStatetest318Filler.json::randomStatetest318[fork_Osaka-state_test-]": {
        "env": {
            "currentCoinbase": "0xf98ee601701755ce5b4e337829b40e85c8686b16",
            "currentGasLimit": "0x7fffffffffffffff",
            "currentNumber": "0x01",
            "currentTimestamp": "0x03e8",
            "currentRandom": "0x0000000000000000000000000000000000000000000000000000000000020000",
            "currentDifficulty": "0x00",
            "currentBaseFee": "0x0a",
            "currentExcessBlobGas": "0x00"
        },
        "pre": {
            "0x9c7f1b496819a22fe91f4fff2784993863473f35": {
                "nonce": "0x00",
                "balance": "0x0de0b6b3a7640000",
                "code": "0x",
                "storage": {}
            },
            "0xf98ee601701755ce5b4e337829b40e85c8686b16": {
                "nonce": "0x00",
                "balance": "0x2e",
                "code": "0x6000355415600957005b60203560003555",
                "storage": {}
            },
            "0xf98ee601701755ce5b4e337829b40e85c8686c16": {
                "nonce": "0x00",
                "balance": "0x00",
                "code": "0x7f00000000000000000000000000000000000000000000000000000000000000007f000000000000000000000000000000000000000000000000000000000000c350457f000000000000000000000000f98ee601701755ce5b4e337829b40e85c8686b167fffffffffffffffffffffffffffffffffffffffffffffffffffffffffffffffff7ffffffffffffffffffffffffffffffffffffffffffffffffffffffffffffffffe7ffffffffffffffffffffffffffffffffffffffffffffffffffffffffffffffffe7f000000000000000000000000000000000000000000000000000000000000c3506f8206a30a83887e5a3164667796308d5560005155",
                "storage": {}
            }
        },
        "transaction": {
            "nonce": "0x00",
            "gasPrice": "0x0a",
            "gasLimit": [
                "0x0186a0"
            ],
            "to": "0xf98ee601701755ce5b4e337829b40e85c8686c16",
            "value": [
                "0x23f9c6f7"
            ],
            "data": [
                "0x7f00000000000000000000000000000000000000000000000000000000000000007f000000000000000000000000000000000000000000000000000000000000c350457f000000000000000000000000f98ee601701755ce5b4e337829b40e85c8686b167fffffffffffffffffffffffffffffffffffffffffffffffffffffffffffffffff7ffffffffffffffffffffffffffffffffffffffffffffffffffffffffffffffffe7ffffffffffffffffffffffffffffffffffffffffffffffffffffffffffffffffe7f000000000000000000000000000000000000000000000000000000000000c3506f8206a30a83887e5a3164667796308d"
            ],
            "sender": "0x9c7f1b496819a22fe91f4fff2784993863473f35",
            "secretKey": "0x557a11a13b2044cabb69c62ef98ee601701755ce5b4e337829b40e85c8686b16"
        },
        "post": {
            "Osaka": [
                {
                    "hash": "0x5c621959f341f8bcb96fe8b5773c8d51141e3d63babee43bedaa562a1bd10971",
                    "logs": "0x1dcc4de8dec75d7aab85b567b6ccd41ad312451b948a7413f0a142fd40d49347",
                    "txbytes": "0xf9015d800a830186a094f98ee601701755ce5b4e337829b40e85c8686c168423f9c6f7b8f87f00000000000000000000000000000000000000000000000000000000000000007f000000000000000000000000000000000000000000000000000000000000c350457f000000000000000000000000f98ee601701755ce5b4e337829b40e85c8686b167fffffffffffffffffffffffffffffffffffffffffffffffffffffffffffffffff7ffffffffffffffffffffffffffffffffffffffffffffffffffffffffffffffffe7ffffffffffffffffffffffffffffffffffffffffffffffffffffffffffffffffe7f000000000000000000000000000000000000000000000000000000000000c3506f8206a30a83887e5a3164667796308d25a03cb85d445a9cc26f9932497c4719e010b1ab2793bd787bd3fc092062b3b803efa07a5f6ffbf113dc5bffb9c790c0df021c78117f91ec34da93936f258d696cca9f",
                    "indexes": {
                        "data": 0,
                        "gas": 0,
                        "value": 0
                    },
                    "state": {
                        "0x9c7f1b496819a22fe91f4fff2784993863473f35": {
                            "nonce": "0x01",
                            "balance": "0x0de0b6b3836339d3",
                            "code": "0x",
                            "storage": {}
                        },
                        "0xf98ee601701755ce5b4e337829b40e85c8686b16": {
                            "nonce": "0x00",
                            "balance": "0x2e",
                            "code": "0x6000355415600957005b60203560003555",
                            "storage": {}
                        },
                        "0xf98ee601701755ce5b4e337829b40e85c8686c16": {
                            "nonce": "0x00",
                            "balance": "0x23f9c6f7",
                            "code": "0x7f00000000000000000000000000000000000000000000000000000000000000007f000000000000000000000000000000000000000000000000000000000000c350457f000000000000000000000000f98ee601701755ce5b4e337829b40e85c8686b167fffffffffffffffffffffffffffffffffffffffffffffffffffffffffffffffff7ffffffffffffffffffffffffffffffffffffffffffffffffffffffffffffffffe7ffffffffffffffffffffffffffffffffffffffffffffffffffffffffffffffffe7f000000000000000000000000000000000000000000000000000000000000c3506f8206a30a83887e5a3164667796308d5560005155",
                            "storage": {
                                "0x00": "0x8206a30a83887e5a3164667796308d55"
                            }
                        }
                    }
                }
            ]
        },
        "config": {
            "blobSchedule": {
                "Cancun": {
                    "target": "0x03",
                    "max": "0x06",
                    "baseFeeUpdateFraction": "0x32f0ed"
                },
                "Prague": {
                    "target": "0x06",
                    "max": "0x09",
                    "baseFeeUpdateFraction": "0x4c6964"
                },
                "Osaka": {
                    "target": "0x06",
                    "max": "0x09",
                    "baseFeeUpdateFraction": "0x4c6964"
                }
            },
            "chainid": "0x01"
        },
        "_info": {
            "hash": "0xb1763ec3471ad05a9c4df229ca29b97c2cdd4cd87a52ce41fa7f0cd0135fd7fe",
            "comment": "`execution-specs` generated test",
            "filling-transition-tool": "2.18.0rc6",
            "description": "No description available - add a docstring to the python test class or function.",
            "url": "",
            "fixture-format": "state_test"
        }
    },
    "tests/static/state_tests/stRandom/randomStatetest318Filler.json::randomStatetest318[fork_Prague-state_test-]": {
        "env": {
            "currentCoinbase": "0xf98ee601701755ce5b4e337829b40e85c8686b16",
            "currentGasLimit": "0x7fffffffffffffff",
            "currentNumber": "0x01",
            "currentTimestamp": "0x03e8",
            "currentRandom": "0x0000000000000000000000000000000000000000000000000000000000020000",
            "currentDifficulty": "0x00",
            "currentBaseFee": "0x0a",
            "currentExcessBlobGas": "0x00"
        },
        "pre": {
            "0x9c7f1b496819a22fe91f4fff2784993863473f35": {
                "nonce": "0x00",
                "balance": "0x0de0b6b3a7640000",
                "code": "0x",
                "storage": {}
            },
            "0xf98ee601701755ce5b4e337829b40e85c8686b16": {
                "nonce": "0x00",
                "balance": "0x2e",
                "code": "0x6000355415600957005b60203560003555",
                "storage": {}
            },
            "0xf98ee601701755ce5b4e337829b40e85c8686c16": {
                "nonce": "0x00",
                "balance": "0x00",
                "code": "0x7f00000000000000000000000000000000000000000000000000000000000000007f000000000000000000000000000000000000000000000000000000000000c350457f000000000000000000000000f98ee601701755ce5b4e337829b40e85c8686b167fffffffffffffffffffffffffffffffffffffffffffffffffffffffffffffffff7ffffffffffffffffffffffffffffffffffffffffffffffffffffffffffffffffe7ffffffffffffffffffffffffffffffffffffffffffffffffffffffffffffffffe7f000000000000000000000000000000000000000000000000000000000000c3506f8206a30a83887e5a3164667796308d5560005155",
                "storage": {}
            }
        },
        "transaction": {
            "nonce": "0x00",
            "gasPrice": "0x0a",
            "gasLimit": [
                "0x0186a0"
            ],
            "to": "0xf98ee601701755ce5b4e337829b40e85c8686c16",
            "value": [
                "0x23f9c6f7"
            ],
            "data": [
                "0x7f00000000000000000000000000000000000000000000000000000000000000007f000000000000000000000000000000000000000000000000000000000000c350457f000000000000000000000000f98ee601701755ce5b4e337829b40e85c8686b167fffffffffffffffffffffffffffffffffffffffffffffffffffffffffffffffff7ffffffffffffffffffffffffffffffffffffffffffffffffffffffffffffffffe7ffffffffffffffffffffffffffffffffffffffffffffffffffffffffffffffffe7f000000000000000000000000000000000000000000000000000000000000c3506f8206a30a83887e5a3164667796308d"
            ],
            "sender": "0x9c7f1b496819a22fe91f4fff2784993863473f35",
            "secretKey": "0x557a11a13b2044cabb69c62ef98ee601701755ce5b4e337829b40e85c8686b16"
        },
        "post": {
            "Prague": [
                {
                    "hash": "0x5c621959f341f8bcb96fe8b5773c8d51141e3d63babee43bedaa562a1bd10971",
                    "logs": "0x1dcc4de8dec75d7aab85b567b6ccd41ad312451b948a7413f0a142fd40d49347",
                    "txbytes": "0xf9015d800a830186a094f98ee601701755ce5b4e337829b40e85c8686c168423f9c6f7b8f87f00000000000000000000000000000000000000000000000000000000000000007f000000000000000000000000000000000000000000000000000000000000c350457f000000000000000000000000f98ee601701755ce5b4e337829b40e85c8686b167fffffffffffffffffffffffffffffffffffffffffffffffffffffffffffffffff7ffffffffffffffffffffffffffffffffffffffffffffffffffffffffffffffffe7ffffffffffffffffffffffffffffffffffffffffffffffffffffffffffffffffe7f000000000000000000000000000000000000000000000000000000000000c3506f8206a30a83887e5a3164667796308d25a03cb85d445a9cc26f9932497c4719e010b1ab2793bd787bd3fc092062b3b803efa07a5f6ffbf113dc5bffb9c790c0df021c78117f91ec34da93936f258d696cca9f",
                    "indexes": {
                        "data": 0,
                        "gas": 0,
                        "value": 0
                    },
                    "state": {
                        "0x9c7f1b496819a22fe91f4fff2784993863473f35": {
                            "nonce": "0x01",
                            "balance": "0x0de0b6b3836339d3",
                            "code": "0x",
                            "storage": {}
                        },
                        "0xf98ee601701755ce5b4e337829b40e85c8686b16": {
                            "nonce": "0x00",
                            "balance": "0x2e",
                            "code": "0x6000355415600957005b60203560003555",
                            "storage": {}
                        },
                        "0xf98ee601701755ce5b4e337829b40e85c8686c16": {
                            "nonce": "0x00",
                            "balance": "0x23f9c6f7",
                            "code": "0x7f00000000000000000000000000000000000000000000000000000000000000007f000000000000000000000000000000000000000000000000000000000000c350457f000000000000000000000000f98ee601701755ce5b4e337829b40e85c8686b167fffffffffffffffffffffffffffffffffffffffffffffffffffffffffffffffff7ffffffffffffffffffffffffffffffffffffffffffffffffffffffffffffffffe7ffffffffffffffffffffffffffffffffffffffffffffffffffffffffffffffffe7f000000000000000000000000000000000000000000000000000000000000c3506f8206a30a83887e5a3164667796308d5560005155",
                            "storage": {
                                "0x00": "0x8206a30a83887e5a3164667796308d55"
                            }
                        }
                    }
                }
            ]
        },
        "config": {
            "blobSchedule": {
                "Cancun": {
                    "target": "0x03",
                    "max": "0x06",
                    "baseFeeUpdateFraction": "0x32f0ed"
                },
                "Prague": {
                    "target": "0x06",
                    "max": "0x09",
                    "baseFeeUpdateFraction": "0x4c6964"
                }
            },
            "chainid": "0x01"
        },
        "_info": {
            "hash": "0x505fa312760ef6f3ffb1309419519ef42c8e80379455876fa767068c711f6cc3",
            "comment": "`execution-specs` generated test",
            "filling-transition-tool": "2.18.0rc6",
            "description": "No description available - add a docstring to the python test class or function.",
            "url": "",
            "fixture-format": "state_test"
        }
    }
}