{
    "tests/static/state_tests/stRandom/randomStatetest382Filler.json::randomStatetest382[fork_Cancun-state_test-]": {
        "env": {
            "currentCoinbase": "0x17f76e1bae5af637291cd57cff8b65981867bf25",
            "currentGasLimit": "0x7fffffffffffffff",
            "currentNumber": "0x01",
            "currentTimestamp": "0x03e8",
            "currentRandom": "0x0000000000000000000000000000000000000000000000000000000000020000",
            "currentDifficulty": "0x00",
            "currentBaseFee": "0x0a",
            "currentExcessBlobGas": "0x00"
        },
        "pre": {
            "0x46f648d974f4f265dd3968f150bfb38f6e909b25": {
                "nonce": "0x00",
                "balance": "0x0de0b6b3a7640000",
                "code": "0x",
                "storage": {}
            },
            "0x17f76e1bae5af637291cd57cff8b65981867bf25": {
                "nonce": "0x00",
                "balance": "0x2e",
                "code": "0x6000355415600957005b60203560003555",
                "storage": {}
            },
            "0x17f76e1bae5af637291cd57cff8b65981867c025": {
                "nonce": "0x00",
                "balance": "0x00",
                "code": "0x7f00000000000000000000000000000000000000000000000000000000000000007f00000000000000000000000000000000000000000000000000000000000000007f000000000000000000000000ffffffffffffffffffffffffffffffffffffffff7f00000000000000000000000017f76e1bae5af637291cd57cff8b65981867bf257ffffffffffffffffffffffffffffffffffffffffffffffffffffffffffffffffe7fffffffffffffffffffffffffffffffffffffffffffffffffffffffffffffffff7ffffffffffffffffffffffffffffffffffffffffffffffffffffffffffffffffe7ffffffffffffffffffffffffffffffffffffffffffffffffffffffffffffffffe0855",
                "storage": {}
            }
        },
        "transaction": {
            "nonce": "0x00",
            "gasPrice": "0x0a",
            "gasLimit": [
                "0x0186a0"
            ],
            "to": "0x17f76e1bae5af637291cd57cff8b65981867c025",
            "value": [
                "0x34ae0bf4"
            ],
            "data": [
                "0x7f00000000000000000000000000000000000000000000000000000000000000007f00000000000000000000000000000000000000000000000000000000000000007f000000000000000000000000ffffffffffffffffffffffffffffffffffffffff7f00000000000000000000000017f76e1bae5af637291cd57cff8b65981867bf257ffffffffffffffffffffffffffffffffffffffffffffffffffffffffffffffffe7fffffffffffffffffffffffffffffffffffffffffffffffffffffffffffffffff7ffffffffffffffffffffffffffffffffffffffffffffffffffffffffffffffffe7ffffffffffffffffffffffffffffffffffffffffffffffffffffffffffffffffe08"
            ],
            "sender": "0x46f648d974f4f265dd3968f150bfb38f6e909b25",
            "secretKey": "0x96177a3f0e1ef6fbdc794f0f17f76e1bae5af637291cd57cff8b65981867bf25"
        },
        "post": {
            "Cancun": [
                {
                    "hash": "0x0c57d933b6d23782578c420dfcdacb33d22cd1737ff5add07103cedcbc605874",
                    "logs": "0x1dcc4de8dec75d7aab85b567b6ccd41ad312451b948a7413f0a142fd40d49347",
                    "txbytes": "0xf9016f800a830186a09417f76e1bae5af637291cd57cff8b65981867c0258434ae0bf4b901097f00000000000000000000000000000000000000000000000000000000000000007f00000000000000000000000000000000000000000000000000000000000000007f000000000000000000000000ffffffffffffffffffffffffffffffffffffffff7f00000000000000000000000017f76e1bae5af637291cd57cff8b65981867bf257ffffffffffffffffffffffffffffffffffffffffffffffffffffffffffffffffe7fffffffffffffffffffffffffffffffffffffffffffffffffffffffffffffffff7ffffffffffffffffffffffffffffffffffffffffffffffffffffffffffffffffe7ffffffffffffffffffffffffffffffffffffffffffffffffffffffffffffffffe0826a01fc134a681a27afc055d618194d0eff123f3d50ff1d6c877386797d05abf2c47a0402dd163d5a02934e2b0a372acc5f5b1c18b8d3c98796b88fdccb64b1535acea",
                    "indexes": {
                        "data": 0,
                        "gas": 0,
                        "value": 0
                    },
                    "state": {
                        "0x46f648d974f4f265dd3968f150bfb38f6e909b25": {
                            "nonce": "0x01",
                            "balance": "0x0de0b6b372aee2d4",
                            "code": "0x",
                            "storage": {}
                        },
                        "0x17f76e1bae5af637291cd57cff8b65981867bf25": {
                            "nonce": "0x00",
                            "balance": "0x2e",
                            "code": "0x6000355415600957005b60203560003555",
                            "storage": {}
                        },
                        "0x17f76e1bae5af637291cd57cff8b65981867c025": {
                            "nonce": "0x00",
                            "balance": "0x34ae0bf4",
                            "code": "0x7f00000000000000000000000000000000000000000000000000000000000000007f00000000000000000000000000000000000000000000000000000000000000007f000000000000000000000000ffffffffffffffffffffffffffffffffffffffff7f00000000000000000000000017f76e1bae5af637291cd57cff8b65981867bf257ffffffffffffffffffffffffffffffffffffffffffffffffffffffffffffffffe7fffffffffffffffffffffffffffffffffffffffffffffffffffffffffffffffff7ffffffffffffffffffffffffffffffffffffffffffffffffffffffffffffffffe7ffffffffffffffffffffffffffffffffffffffffffffffffffffffffffffffffe0855",
                            "storage": {
                                "0xfffffffffffffffffffffffffffffffffffffffffffffffffffffffffffffffd": "0xfffffffffffffffffffffffffffffffffffffffffffffffffffffffffffffffe"
                            }
                        }
                    }
                }
            ]
        },
        "config": {
            "blobSchedule": {
                "Cancun": {
                    "target": "0x03",
                    "max": "0x06",
                    "baseFeeUpdateFraction": "0x32f0ed"
                }
            },
            "chainid": "0x01"
        },
        "_info": {
            "hash": "0x57cc2aa6672284fd98f44ba6b07fd085f2c82ce488e58b674c08805bb3a0e1eb",
            "comment": "`execution-spec-tests` generated test",
            "filling-transition-tool": "ethereum-spec-evm-resolver 0.0.5",
            "description": "No description available - add a docstring to the python test class or function.",
            "url": "",
            "fixture-format": "state_test",
            "eels-resolution": {
                "git-url": "https://github.com/marioevz/execution-specs.git",
                "branch": "forks/bpo1",
                "commit": "3387e5f4aedfe99becfdc39b444d6371e25e0924"
            }
        }
    },
    "tests/static/state_tests/stRandom/randomStatetest382Filler.json::randomStatetest382[fork_Osaka-state_test-]": {
        "env": {
            "currentCoinbase": "0x17f76e1bae5af637291cd57cff8b65981867bf25",
            "currentGasLimit": "0x7fffffffffffffff",
            "currentNumber": "0x01",
            "currentTimestamp": "0x03e8",
            "currentRandom": "0x0000000000000000000000000000000000000000000000000000000000020000",
            "currentDifficulty": "0x00",
            "currentBaseFee": "0x0a",
            "currentExcessBlobGas": "0x00"
        },
        "pre": {
            "0x46f648d974f4f265dd3968f150bfb38f6e909b25": {
                "nonce": "0x00",
                "balance": "0x0de0b6b3a7640000",
                "code": "0x",
                "storage": {}
            },
            "0x17f76e1bae5af637291cd57cff8b65981867bf25": {
                "nonce": "0x00",
                "balance": "0x2e",
                "code": "0x6000355415600957005b60203560003555",
                "storage": {}
            },
            "0x17f76e1bae5af637291cd57cff8b65981867c025": {
                "nonce": "0x00",
                "balance": "0x00",
                "code": "0x7f00000000000000000000000000000000000000000000000000000000000000007f00000000000000000000000000000000000000000000000000000000000000007f000000000000000000000000ffffffffffffffffffffffffffffffffffffffff7f00000000000000000000000017f76e1bae5af637291cd57cff8b65981867bf257ffffffffffffffffffffffffffffffffffffffffffffffffffffffffffffffffe7fffffffffffffffffffffffffffffffffffffffffffffffffffffffffffffffff7ffffffffffffffffffffffffffffffffffffffffffffffffffffffffffffffffe7ffffffffffffffffffffffffffffffffffffffffffffffffffffffffffffffffe0855",
                "storage": {}
            }
        },
        "transaction": {
            "nonce": "0x00",
            "gasPrice": "0x0a",
            "gasLimit": [
                "0x0186a0"
            ],
            "to": "0x17f76e1bae5af637291cd57cff8b65981867c025",
            "value": [
                "0x34ae0bf4"
            ],
            "data": [
                "0x7f00000000000000000000000000000000000000000000000000000000000000007f00000000000000000000000000000000000000000000000000000000000000007f000000000000000000000000ffffffffffffffffffffffffffffffffffffffff7f00000000000000000000000017f76e1bae5af637291cd57cff8b65981867bf257ffffffffffffffffffffffffffffffffffffffffffffffffffffffffffffffffe7fffffffffffffffffffffffffffffffffffffffffffffffffffffffffffffffff7ffffffffffffffffffffffffffffffffffffffffffffffffffffffffffffffffe7ffffffffffffffffffffffffffffffffffffffffffffffffffffffffffffffffe08"
            ],
            "sender": "0x46f648d974f4f265dd3968f150bfb38f6e909b25",
            "secretKey": "0x96177a3f0e1ef6fbdc794f0f17f76e1bae5af637291cd57cff8b65981867bf25"
        },
        "post": {
            "Osaka": [
                {
                    "hash": "0x0c57d933b6d23782578c420dfcdacb33d22cd1737ff5add07103cedcbc605874",
                    "logs": "0x1dcc4de8dec75d7aab85b567b6ccd41ad312451b948a7413f0a142fd40d49347",
                    "txbytes": "0xf9016f800a830186a09417f76e1bae5af637291cd57cff8b65981867c0258434ae0bf4b901097f00000000000000000000000000000000000000000000000000000000000000007f00000000000000000000000000000000000000000000000000000000000000007f000000000000000000000000ffffffffffffffffffffffffffffffffffffffff7f00000000000000000000000017f76e1bae5af637291cd57cff8b65981867bf257ffffffffffffffffffffffffffffffffffffffffffffffffffffffffffffffffe7fffffffffffffffffffffffffffffffffffffffffffffffffffffffffffffffff7ffffffffffffffffffffffffffffffffffffffffffffffffffffffffffffffffe7ffffffffffffffffffffffffffffffffffffffffffffffffffffffffffffffffe0826a01fc134a681a27afc055d618194d0eff123f3d50ff1d6c877386797d05abf2c47a0402dd163d5a02934e2b0a372acc5f5b1c18b8d3c98796b88fdccb64b1535acea",
                    "indexes": {
                        "data": 0,
                        "gas": 0,
                        "value": 0
                    },
                    "state": {
                        "0x46f648d974f4f265dd3968f150bfb38f6e909b25": {
                            "nonce": "0x01",
                            "balance": "0x0de0b6b372aee2d4",
                            "code": "0x",
                            "storage": {}
                        },
                        "0x17f76e1bae5af637291cd57cff8b65981867bf25": {
                            "nonce": "0x00",
                            "balance": "0x2e",
                            "code": "0x6000355415600957005b60203560003555",
                            "storage": {}
                        },
                        "0x17f76e1bae5af637291cd57cff8b65981867c025": {
                            "nonce": "0x00",
                            "balance": "0x34ae0bf4",
                            "code": "0x7f00000000000000000000000000000000000000000000000000000000000000007f00000000000000000000000000000000000000000000000000000000000000007f000000000000000000000000ffffffffffffffffffffffffffffffffffffffff7f00000000000000000000000017f76e1bae5af637291cd57cff8b65981867bf257ffffffffffffffffffffffffffffffffffffffffffffffffffffffffffffffffe7fffffffffffffffffffffffffffffffffffffffffffffffffffffffffffffffff7ffffffffffffffffffffffffffffffffffffffffffffffffffffffffffffffffe7ffffffffffffffffffffffffffffffffffffffffffffffffffffffffffffffffe0855",
                            "storage": {
                                "0xfffffffffffffffffffffffffffffffffffffffffffffffffffffffffffffffd": "0xfffffffffffffffffffffffffffffffffffffffffffffffffffffffffffffffe"
                            }
                        }
                    }
                }
            ]
        },
        "config": {
            "blobSchedule": {
                "Cancun": {
                    "target": "0x03",
                    "max": "0x06",
                    "baseFeeUpdateFraction": "0x32f0ed"
                },
                "Prague": {
                    "target": "0x06",
                    "max": "0x09",
                    "baseFeeUpdateFraction": "0x4c6964"
                },
                "Osaka": {
                    "target": "0x06",
                    "max": "0x09",
                    "baseFeeUpdateFraction": "0x4c6964"
                }
            },
            "chainid": "0x01"
        },
        "_info": {
            "hash": "0xa491cd4fc2c62e277c1bb55ebba169a5eba422fbb093057ca5375607130b26d9",
            "comment": "`execution-spec-tests` generated test",
            "filling-transition-tool": "ethereum-spec-evm-resolver 0.0.5",
            "description": "No description available - add a docstring to the python test class or function.",
            "url": "",
            "fixture-format": "state_test",
            "eels-resolution": {
                "git-url": "https://github.com/marioevz/execution-specs.git",
                "branch": "forks/bpo1",
                "commit": "3387e5f4aedfe99becfdc39b444d6371e25e0924"
            }
        }
    },
    "tests/static/state_tests/stRandom/randomStatetest382Filler.json::randomStatetest382[fork_Prague-state_test-]": {
        "env": {
            "currentCoinbase": "0x17f76e1bae5af637291cd57cff8b65981867bf25",
            "currentGasLimit": "0x7fffffffffffffff",
            "currentNumber": "0x01",
            "currentTimestamp": "0x03e8",
            "currentRandom": "0x0000000000000000000000000000000000000000000000000000000000020000",
            "currentDifficulty": "0x00",
            "currentBaseFee": "0x0a",
            "currentExcessBlobGas": "0x00"
        },
        "pre": {
            "0x46f648d974f4f265dd3968f150bfb38f6e909b25": {
                "nonce": "0x00",
                "balance": "0x0de0b6b3a7640000",
                "code": "0x",
                "storage": {}
            },
            "0x17f76e1bae5af637291cd57cff8b65981867bf25": {
                "nonce": "0x00",
                "balance": "0x2e",
                "code": "0x6000355415600957005b60203560003555",
                "storage": {}
            },
            "0x17f76e1bae5af637291cd57cff8b65981867c025": {
                "nonce": "0x00",
                "balance": "0x00",
                "code": "0x7f00000000000000000000000000000000000000000000000000000000000000007f00000000000000000000000000000000000000000000000000000000000000007f000000000000000000000000ffffffffffffffffffffffffffffffffffffffff7f00000000000000000000000017f76e1bae5af637291cd57cff8b65981867bf257ffffffffffffffffffffffffffffffffffffffffffffffffffffffffffffffffe7fffffffffffffffffffffffffffffffffffffffffffffffffffffffffffffffff7ffffffffffffffffffffffffffffffffffffffffffffffffffffffffffffffffe7ffffffffffffffffffffffffffffffffffffffffffffffffffffffffffffffffe0855",
                "storage": {}
            }
        },
        "transaction": {
            "nonce": "0x00",
            "gasPrice": "0x0a",
            "gasLimit": [
                "0x0186a0"
            ],
            "to": "0x17f76e1bae5af637291cd57cff8b65981867c025",
            "value": [
                "0x34ae0bf4"
            ],
            "data": [
                "0x7f00000000000000000000000000000000000000000000000000000000000000007f00000000000000000000000000000000000000000000000000000000000000007f000000000000000000000000ffffffffffffffffffffffffffffffffffffffff7f00000000000000000000000017f76e1bae5af637291cd57cff8b65981867bf257ffffffffffffffffffffffffffffffffffffffffffffffffffffffffffffffffe7fffffffffffffffffffffffffffffffffffffffffffffffffffffffffffffffff7ffffffffffffffffffffffffffffffffffffffffffffffffffffffffffffffffe7ffffffffffffffffffffffffffffffffffffffffffffffffffffffffffffffffe08"
            ],
            "sender": "0x46f648d974f4f265dd3968f150bfb38f6e909b25",
            "secretKey": "0x96177a3f0e1ef6fbdc794f0f17f76e1bae5af637291cd57cff8b65981867bf25"
        },
        "post": {
            "Prague": [
                {
                    "hash": "0x0c57d933b6d23782578c420dfcdacb33d22cd1737ff5add07103cedcbc605874",
                    "logs": "0x1dcc4de8dec75d7aab85b567b6ccd41ad312451b948a7413f0a142fd40d49347",
                    "txbytes": "0xf9016f800a830186a09417f76e1bae5af637291cd57cff8b65981867c0258434ae0bf4b901097f00000000000000000000000000000000000000000000000000000000000000007f00000000000000000000000000000000000000000000000000000000000000007f000000000000000000000000ffffffffffffffffffffffffffffffffffffffff7f00000000000000000000000017f76e1bae5af637291cd57cff8b65981867bf257ffffffffffffffffffffffffffffffffffffffffffffffffffffffffffffffffe7fffffffffffffffffffffffffffffffffffffffffffffffffffffffffffffffff7ffffffffffffffffffffffffffffffffffffffffffffffffffffffffffffffffe7ffffffffffffffffffffffffffffffffffffffffffffffffffffffffffffffffe0826a01fc134a681a27afc055d618194d0eff123f3d50ff1d6c877386797d05abf2c47a0402dd163d5a02934e2b0a372acc5f5b1c18b8d3c98796b88fdccb64b1535acea",
                    "indexes": {
                        "data": 0,
                        "gas": 0,
                        "value": 0
                    },
                    "state": {
                        "0x46f648d974f4f265dd3968f150bfb38f6e909b25": {
                            "nonce": "0x01",
                            "balance": "0x0de0b6b372aee2d4",
                            "code": "0x",
                            "storage": {}
                        },
                        "0x17f76e1bae5af637291cd57cff8b65981867bf25": {
                            "nonce": "0x00",
                            "balance": "0x2e",
                            "code": "0x6000355415600957005b60203560003555",
                            "storage": {}
                        },
                        "0x17f76e1bae5af637291cd57cff8b65981867c025": {
                            "nonce": "0x00",
                            "balance": "0x34ae0bf4",
                            "code": "0x7f00000000000000000000000000000000000000000000000000000000000000007f00000000000000000000000000000000000000000000000000000000000000007f000000000000000000000000ffffffffffffffffffffffffffffffffffffffff7f00000000000000000000000017f76e1bae5af637291cd57cff8b65981867bf257ffffffffffffffffffffffffffffffffffffffffffffffffffffffffffffffffe7fffffffffffffffffffffffffffffffffffffffffffffffffffffffffffffffff7ffffffffffffffffffffffffffffffffffffffffffffffffffffffffffffffffe7ffffffffffffffffffffffffffffffffffffffffffffffffffffffffffffffffe0855",
                            "storage": {
                                "0xfffffffffffffffffffffffffffffffffffffffffffffffffffffffffffffffd": "0xfffffffffffffffffffffffffffffffffffffffffffffffffffffffffffffffe"
                            }
                        }
                    }
                }
            ]
        },
        "config": {
            "blobSchedule": {
                "Cancun": {
                    "target": "0x03",
                    "max": "0x06",
                    "baseFeeUpdateFraction": "0x32f0ed"
                },
                "Prague": {
                    "target": "0x06",
                    "max": "0x09",
                    "baseFeeUpdateFraction": "0x4c6964"
                }
            },
            "chainid": "0x01"
        },
        "_info": {
            "hash": "0xf4987afff54d76e18ee0a2a0a3ca797d1ee6487304c0a4fd2a938fc376d8de13",
            "comment": "`execution-spec-tests` generated test",
            "filling-transition-tool": "ethereum-spec-evm-resolver 0.0.5",
            "description": "No description available - add a docstring to the python test class or function.",
            "url": "",
            "fixture-format": "state_test",
            "eels-resolution": {
                "git-url": "https://github.com/marioevz/execution-specs.git",
                "branch": "forks/bpo1",
                "commit": "3387e5f4aedfe99becfdc39b444d6371e25e0924"
            }
        }
    }
}