{
    "tests/static/state_tests/stRandom/randomStatetest225Filler.json::randomStatetest225[fork_Cancun-state_test-]": {
        "env": {
            "currentCoinbase": "0x6fb1132397a61238c0366a2414c1fe3dfa92616f",
            "currentGasLimit": "0x7fffffffffffffff",
            "currentNumber": "0x01",
            "currentTimestamp": "0x03e8",
            "currentRandom": "0x0000000000000000000000000000000000000000000000000000000000020000",
            "currentDifficulty": "0x00",
            "currentBaseFee": "0x0a",
            "currentExcessBlobGas": "0x00"
        },
        "pre": {
            "0x5ae50cd67d0e0e2078a2c948ab1c27a52d2475bd": {
                "nonce": "0x00",
                "balance": "0x0de0b6b3a7640000",
                "code": "0x",
                "storage": {}
            },
            "0x6fb1132397a61238c0366a2414c1fe3dfa92616f": {
                "nonce": "0x00",
                "balance": "0x2e",
                "code": "0x6000355415600957005b60203560003555",
                "storage": {}
            },
            "0x6fb1132397a61238c0366a2414c1fe3dfa92626f": {
                "nonce": "0x00",
                "balance": "0x00",
                "code": "0x7ffffffffffffffffffffffffffffffffffffffffffffffffffffffffffffffffe7fffffffffffffffffffffffffffffffffffffffffffffffffffffffffffffffff7ffffffffffffffffffffffffffffffffffffffffffffffffffffffffffffffffe7f00000000000000000000000100000000000000000000000000000000000000007fffffffffffffffffffffffffffffffffffffffffffffffffffffffffffffffff7fffffffffffffffffffffffffffffffffffffffffffffffffffffffffffffffff506f69786c858e0703566f95f8993111901960005155",
                "storage": {}
            }
        },
        "transaction": {
            "nonce": "0x00",
            "gasPrice": "0x0a",
            "gasLimit": [
                "0x0186a0"
            ],
            "to": "0x6fb1132397a61238c0366a2414c1fe3dfa92626f",
            "value": [
                "0x09859445"
            ],
            "data": [
                "0x7ffffffffffffffffffffffffffffffffffffffffffffffffffffffffffffffffe7fffffffffffffffffffffffffffffffffffffffffffffffffffffffffffffffff7ffffffffffffffffffffffffffffffffffffffffffffffffffffffffffffffffe7f00000000000000000000000100000000000000000000000000000000000000007fffffffffffffffffffffffffffffffffffffffffffffffffffffffffffffffff7fffffffffffffffffffffffffffffffffffffffffffffffffffffffffffffffff506f69786c858e0703566f95f89931119019"
            ],
            "sender": "0x5ae50cd67d0e0e2078a2c948ab1c27a52d2475bd",
            "secretKey": "0x4ee2cc5b20bee93451ee1d8f6fb1132397a61238c0366a2414c1fe3dfa92616f"
        },
        "post": {
            "Cancun": [
                {
                    "hash": "0x7292341501c053bf0d19afc1ecd4d91040e7f1197e0a3f70751cd6874b5af98d",
                    "logs": "0x1dcc4de8dec75d7aab85b567b6ccd41ad312451b948a7413f0a142fd40d49347",
                    "txbytes": "0xf9013d800a830186a0946fb1132397a61238c0366a2414c1fe3dfa92626f8409859445b8d87ffffffffffffffffffffffffffffffffffffffffffffffffffffffffffffffffe7fffffffffffffffffffffffffffffffffffffffffffffffffffffffffffffffff7ffffffffffffffffffffffffffffffffffffffffffffffffffffffffffffffffe7f00000000000000000000000100000000000000000000000000000000000000007fffffffffffffffffffffffffffffffffffffffffffffffffffffffffffffffff7fffffffffffffffffffffffffffffffffffffffffffffffffffffffffffffffff506f69786c858e0703566f95f8993111901925a06696c09bdc3c84546022584c9777e78d5f003a657e7da3c37519fbf48fe56f46a03cbfa577c467752096ef916ac2b7fbeec9859ef29019ec8c31846c481700873e",
                    "indexes": {
                        "data": 0,
                        "gas": 0,
                        "value": 0
                    },
                    "state": {
                        "0x5ae50cd67d0e0e2078a2c948ab1c27a52d2475bd": {
                            "nonce": "0x01",
                            "balance": "0x0de0b6b39dd75e6b",
                            "code": "0x",
                            "storage": {}
                        },
                        "0x6fb1132397a61238c0366a2414c1fe3dfa92616f": {
                            "nonce": "0x00",
                            "balance": "0x2e",
                            "code": "0x6000355415600957005b60203560003555",
                            "storage": {}
                        },
                        "0x6fb1132397a61238c0366a2414c1fe3dfa92626f": {
                            "nonce": "0x00",
                            "balance": "0x09859445",
                            "code": "0x7ffffffffffffffffffffffffffffffffffffffffffffffffffffffffffffffffe7fffffffffffffffffffffffffffffffffffffffffffffffffffffffffffffffff7ffffffffffffffffffffffffffffffffffffffffffffffffffffffffffffffffe7f00000000000000000000000100000000000000000000000000000000000000007fffffffffffffffffffffffffffffffffffffffffffffffffffffffffffffffff7fffffffffffffffffffffffffffffffffffffffffffffffffffffffffffffffff506f69786c858e0703566f95f8993111901960005155",
                            "storage": {
                                "0x00": "0x69786c858e0703566f95f89931119019"
                            }
                        }
                    }
                }
            ]
        },
        "config": {
            "blobSchedule": {
                "Cancun": {
                    "target": "0x03",
                    "max": "0x06",
                    "baseFeeUpdateFraction": "0x32f0ed"
                }
            },
            "chainid": "0x01"
        },
        "_info": {
            "hash": "0xef87a6460dc4b40a2e0431d67f61921c16b57d638fa6e263f7d430e39e818ebe",
            "comment": "`execution-spec-tests` generated test",
            "filling-transition-tool": "ethereum-spec-evm-resolver 0.0.5",
            "description": "No description available - add a docstring to the python test class or function.",
            "url": "",
            "fixture-format": "state_test",
            "eels-resolution": {
                "git-url": "https://github.com/marioevz/execution-specs.git",
                "branch": "forks/bpo1",
                "commit": "3387e5f4aedfe99becfdc39b444d6371e25e0924"
            }
        }
    },
    "tests/static/state_tests/stRandom/randomStatetest225Filler.json::randomStatetest225[fork_Osaka-state_test-]": {
        "env": {
            "currentCoinbase": "0x6fb1132397a61238c0366a2414c1fe3dfa92616f",
            "currentGasLimit": "0x7fffffffffffffff",
            "currentNumber": "0x01",
            "currentTimestamp": "0x03e8",
            "currentRandom": "0x0000000000000000000000000000000000000000000000000000000000020000",
            "currentDifficulty": "0x00",
            "currentBaseFee": "0x0a",
            "currentExcessBlobGas": "0x00"
        },
        "pre": {
            "0x5ae50cd67d0e0e2078a2c948ab1c27a52d2475bd": {
                "nonce": "0x00",
                "balance": "0x0de0b6b3a7640000",
                "code": "0x",
                "storage": {}
            },
            "0x6fb1132397a61238c0366a2414c1fe3dfa92616f": {
                "nonce": "0x00",
                "balance": "0x2e",
                "code": "0x6000355415600957005b60203560003555",
                "storage": {}
            },
            "0x6fb1132397a61238c0366a2414c1fe3dfa92626f": {
                "nonce": "0x00",
                "balance": "0x00",
                "code": "0x7ffffffffffffffffffffffffffffffffffffffffffffffffffffffffffffffffe7fffffffffffffffffffffffffffffffffffffffffffffffffffffffffffffffff7ffffffffffffffffffffffffffffffffffffffffffffffffffffffffffffffffe7f00000000000000000000000100000000000000000000000000000000000000007fffffffffffffffffffffffffffffffffffffffffffffffffffffffffffffffff7fffffffffffffffffffffffffffffffffffffffffffffffffffffffffffffffff506f69786c858e0703566f95f8993111901960005155",
                "storage": {}
            }
        },
        "transaction": {
            "nonce": "0x00",
            "gasPrice": "0x0a",
            "gasLimit": [
                "0x0186a0"
            ],
            "to": "0x6fb1132397a61238c0366a2414c1fe3dfa92626f",
            "value": [
                "0x09859445"
            ],
            "data": [
                "0x7ffffffffffffffffffffffffffffffffffffffffffffffffffffffffffffffffe7fffffffffffffffffffffffffffffffffffffffffffffffffffffffffffffffff7ffffffffffffffffffffffffffffffffffffffffffffffffffffffffffffffffe7f00000000000000000000000100000000000000000000000000000000000000007fffffffffffffffffffffffffffffffffffffffffffffffffffffffffffffffff7fffffffffffffffffffffffffffffffffffffffffffffffffffffffffffffffff506f69786c858e0703566f95f89931119019"
            ],
            "sender": "0x5ae50cd67d0e0e2078a2c948ab1c27a52d2475bd",
            "secretKey": "0x4ee2cc5b20bee93451ee1d8f6fb1132397a61238c0366a2414c1fe3dfa92616f"
        },
        "post": {
            "Osaka": [
                {
                    "hash": "0x7292341501c053bf0d19afc1ecd4d91040e7f1197e0a3f70751cd6874b5af98d",
                    "logs": "0x1dcc4de8dec75d7aab85b567b6ccd41ad312451b948a7413f0a142fd40d49347",
                    "txbytes": "0xf9013d800a830186a0946fb1132397a61238c0366a2414c1fe3dfa92626f8409859445b8d87ffffffffffffffffffffffffffffffffffffffffffffffffffffffffffffffffe7fffffffffffffffffffffffffffffffffffffffffffffffffffffffffffffffff7ffffffffffffffffffffffffffffffffffffffffffffffffffffffffffffffffe7f00000000000000000000000100000000000000000000000000000000000000007fffffffffffffffffffffffffffffffffffffffffffffffffffffffffffffffff7fffffffffffffffffffffffffffffffffffffffffffffffffffffffffffffffff506f69786c858e0703566f95f8993111901925a06696c09bdc3c84546022584c9777e78d5f003a657e7da3c37519fbf48fe56f46a03cbfa577c467752096ef916ac2b7fbeec9859ef29019ec8c31846c481700873e",
                    "indexes": {
                        "data": 0,
                        "gas": 0,
                        "value": 0
                    },
                    "state": {
                        "0x5ae50cd67d0e0e2078a2c948ab1c27a52d2475bd": {
                            "nonce": "0x01",
                            "balance": "0x0de0b6b39dd75e6b",
                            "code": "0x",
                            "storage": {}
                        },
                        "0x6fb1132397a61238c0366a2414c1fe3dfa92616f": {
                            "nonce": "0x00",
                            "balance": "0x2e",
                            "code": "0x6000355415600957005b60203560003555",
                            "storage": {}
                        },
                        "0x6fb1132397a61238c0366a2414c1fe3dfa92626f": {
                            "nonce": "0x00",
                            "balance": "0x09859445",
                            "code": "0x7ffffffffffffffffffffffffffffffffffffffffffffffffffffffffffffffffe7fffffffffffffffffffffffffffffffffffffffffffffffffffffffffffffffff7ffffffffffffffffffffffffffffffffffffffffffffffffffffffffffffffffe7f00000000000000000000000100000000000000000000000000000000000000007fffffffffffffffffffffffffffffffffffffffffffffffffffffffffffffffff7fffffffffffffffffffffffffffffffffffffffffffffffffffffffffffffffff506f69786c858e0703566f95f8993111901960005155",
                            "storage": {
                                "0x00": "0x69786c858e0703566f95f89931119019"
                            }
                        }
                    }
                }
            ]
        },
        "config": {
            "blobSchedule": {
                "Cancun": {
                    "target": "0x03",
                    "max": "0x06",
                    "baseFeeUpdateFraction": "0x32f0ed"
                },
                "Prague": {
                    "target": "0x06",
                    "max": "0x09",
                    "baseFeeUpdateFraction": "0x4c6964"
                },
                "Osaka": {
                    "target": "0x06",
                    "max": "0x09",
                    "baseFeeUpdateFraction": "0x4c6964"
                }
            },
            "chainid": "0x01"
        },
        "_info": {
            "hash": "0x4ee1342b413c0aa09c64e86e543021de7913a1ce8eea1c0027dd0482924d845b",
            "comment": "`execution-spec-tests` generated test",
            "filling-transition-tool": "ethereum-spec-evm-resolver 0.0.5",
            "description": "No description available - add a docstring to the python test class or function.",
            "url": "",
            "fixture-format": "state_test",
            "eels-resolution": {
                "git-url": "https://github.com/marioevz/execution-specs.git",
                "branch": "forks/bpo1",
                "commit": "3387e5f4aedfe99becfdc39b444d6371e25e0924"
            }
        }
    },
    "tests/static/state_tests/stRandom/randomStatetest225Filler.json::randomStatetest225[fork_Prague-state_test-]": {
        "env": {
            "currentCoinbase": "0x6fb1132397a61238c0366a2414c1fe3dfa92616f",
            "currentGasLimit": "0x7fffffffffffffff",
            "currentNumber": "0x01",
            "currentTimestamp": "0x03e8",
            "currentRandom": "0x0000000000000000000000000000000000000000000000000000000000020000",
            "currentDifficulty": "0x00",
            "currentBaseFee": "0x0a",
            "currentExcessBlobGas": "0x00"
        },
        "pre": {
            "0x5ae50cd67d0e0e2078a2c948ab1c27a52d2475bd": {
                "nonce": "0x00",
                "balance": "0x0de0b6b3a7640000",
                "code": "0x",
                "storage": {}
            },
            "0x6fb1132397a61238c0366a2414c1fe3dfa92616f": {
                "nonce": "0x00",
                "balance": "0x2e",
                "code": "0x6000355415600957005b60203560003555",
                "storage": {}
            },
            "0x6fb1132397a61238c0366a2414c1fe3dfa92626f": {
                "nonce": "0x00",
                "balance": "0x00",
                "code": "0x7ffffffffffffffffffffffffffffffffffffffffffffffffffffffffffffffffe7fffffffffffffffffffffffffffffffffffffffffffffffffffffffffffffffff7ffffffffffffffffffffffffffffffffffffffffffffffffffffffffffffffffe7f00000000000000000000000100000000000000000000000000000000000000007fffffffffffffffffffffffffffffffffffffffffffffffffffffffffffffffff7fffffffffffffffffffffffffffffffffffffffffffffffffffffffffffffffff506f69786c858e0703566f95f8993111901960005155",
                "storage": {}
            }
        },
        "transaction": {
            "nonce": "0x00",
            "gasPrice": "0x0a",
            "gasLimit": [
                "0x0186a0"
            ],
            "to": "0x6fb1132397a61238c0366a2414c1fe3dfa92626f",
            "value": [
                "0x09859445"
            ],
            "data": [
                "0x7ffffffffffffffffffffffffffffffffffffffffffffffffffffffffffffffffe7fffffffffffffffffffffffffffffffffffffffffffffffffffffffffffffffff7ffffffffffffffffffffffffffffffffffffffffffffffffffffffffffffffffe7f00000000000000000000000100000000000000000000000000000000000000007fffffffffffffffffffffffffffffffffffffffffffffffffffffffffffffffff7fffffffffffffffffffffffffffffffffffffffffffffffffffffffffffffffff506f69786c858e0703566f95f89931119019"
            ],
            "sender": "0x5ae50cd67d0e0e2078a2c948ab1c27a52d2475bd",
            "secretKey": "0x4ee2cc5b20bee93451ee1d8f6fb1132397a61238c0366a2414c1fe3dfa92616f"
        },
        "post": {
            "Prague": [
                {
                    "hash": "0x7292341501c053bf0d19afc1ecd4d91040e7f1197e0a3f70751cd6874b5af98d",
                    "logs": "0x1dcc4de8dec75d7aab85b567b6ccd41ad312451b948a7413f0a142fd40d49347",
                    "txbytes": "0xf9013d800a830186a0946fb1132397a61238c0366a2414c1fe3dfa92626f8409859445b8d87ffffffffffffffffffffffffffffffffffffffffffffffffffffffffffffffffe7fffffffffffffffffffffffffffffffffffffffffffffffffffffffffffffffff7ffffffffffffffffffffffffffffffffffffffffffffffffffffffffffffffffe7f00000000000000000000000100000000000000000000000000000000000000007fffffffffffffffffffffffffffffffffffffffffffffffffffffffffffffffff7fffffffffffffffffffffffffffffffffffffffffffffffffffffffffffffffff506f69786c858e0703566f95f8993111901925a06696c09bdc3c84546022584c9777e78d5f003a657e7da3c37519fbf48fe56f46a03cbfa577c467752096ef916ac2b7fbeec9859ef29019ec8c31846c481700873e",
                    "indexes": {
                        "data": 0,
                        "gas": 0,
                        "value": 0
                    },
                    "state": {
                        "0x5ae50cd67d0e0e2078a2c948ab1c27a52d2475bd": {
                            "nonce": "0x01",
                            "balance": "0x0de0b6b39dd75e6b",
                            "code": "0x",
                            "storage": {}
                        },
                        "0x6fb1132397a61238c0366a2414c1fe3dfa92616f": {
                            "nonce": "0x00",
                            "balance": "0x2e",
                            "code": "0x6000355415600957005b60203560003555",
                            "storage": {}
                        },
                        "0x6fb1132397a61238c0366a2414c1fe3dfa92626f": {
                            "nonce": "0x00",
                            "balance": "0x09859445",
                            "code": "0x7ffffffffffffffffffffffffffffffffffffffffffffffffffffffffffffffffe7fffffffffffffffffffffffffffffffffffffffffffffffffffffffffffffffff7ffffffffffffffffffffffffffffffffffffffffffffffffffffffffffffffffe7f00000000000000000000000100000000000000000000000000000000000000007fffffffffffffffffffffffffffffffffffffffffffffffffffffffffffffffff7fffffffffffffffffffffffffffffffffffffffffffffffffffffffffffffffff506f69786c858e0703566f95f8993111901960005155",
                            "storage": {
                                "0x00": "0x69786c858e0703566f95f89931119019"
                            }
                        }
                    }
                }
            ]
        },
        "config": {
            "blobSchedule": {
                "Cancun": {
                    "target": "0x03",
                    "max": "0x06",
                    "baseFeeUpdateFraction": "0x32f0ed"
                },
                "Prague": {
                    "target": "0x06",
                    "max": "0x09",
                    "baseFeeUpdateFraction": "0x4c6964"
                }
            },
            "chainid": "0x01"
        },
        "_info": {
            "hash": "0x85d07ddece9b1e61dda7fb8209cd75f9efd552647860b4530f934987bc915b00",
            "comment": "`execution-spec-tests` generated test",
            "filling-transition-tool": "ethereum-spec-evm-resolver 0.0.5",
            "description": "No description available - add a docstring to the python test class or function.",
            "url": "",
            "fixture-format": "state_test",
            "eels-resolution": {
                "git-url": "https://github.com/marioevz/execution-specs.git",
                "branch": "forks/bpo1",
                "commit": "3387e5f4aedfe99becfdc39b444d6371e25e0924"
            }
        }
    }
}