{
    "tests/static/state_tests/stRandom/randomStatetest90Filler.json::randomStatetest90[fork_Cancun-state_test-]": {
        "env": {
            "currentCoinbase": "0x8bfe04445a169983d185dcdd0bea7ee15046b3c2",
            "currentGasLimit": "0x7fffffffffffffff",
            "currentNumber": "0x01",
            "currentTimestamp": "0x03e8",
            "currentRandom": "0x0000000000000000000000000000000000000000000000000000000000020000",
            "currentDifficulty": "0x00",
            "currentBaseFee": "0x0a",
            "currentExcessBlobGas": "0x00"
        },
        "pre": {
            "0x69fca66345a625cab8ec38fbd617e7ae61177e17": {
                "nonce": "0x00",
                "balance": "0x0de0b6b3a7640000",
                "code": "0x",
                "storage": {}
            },
            "0x8bfe04445a169983d185dcdd0bea7ee15046b3c2": {
                "nonce": "0x00",
                "balance": "0x2e",
                "code": "0x6000355415600957005b60203560003555",
                "storage": {}
            },
            "0x8bfe04445a169983d185dcdd0bea7ee15046b4c2": {
                "nonce": "0x00",
                "balance": "0x00",
                "code": "0x7f000000000000000000000000ffffffffffffffffffffffffffffffffffffffff45157f0000000000000000000000008bfe04445a169983d185dcdd0bea7ee15046b3c27f000000000000000000000000ffffffffffffffffffffffffffffffffffffffff7f00000000000000000000000000000000000000000000000000000000000000017f000000000000000000000000000000000000000000000000000000000000c3507f00000000000000000000000000000000000000000000000000000000000000016f116b4177f25178d7048212877e95685560005155",
                "storage": {}
            }
        },
        "transaction": {
            "nonce": "0x00",
            "gasPrice": "0x0a",
            "gasLimit": [
                "0x0186a0"
            ],
            "to": "0x8bfe04445a169983d185dcdd0bea7ee15046b4c2",
            "value": [
                "0x0a10954e"
            ],
            "data": [
                "0x7f000000000000000000000000ffffffffffffffffffffffffffffffffffffffff45157f0000000000000000000000008bfe04445a169983d185dcdd0bea7ee15046b3c27f000000000000000000000000ffffffffffffffffffffffffffffffffffffffff7f00000000000000000000000000000000000000000000000000000000000000017f000000000000000000000000000000000000000000000000000000000000c3507f00000000000000000000000000000000000000000000000000000000000000016f116b4177f25178d7048212877e9568"
            ],
            "sender": "0x69fca66345a625cab8ec38fbd617e7ae61177e17",
            "secretKey": "0x44698cd156fd11d0eb558be48bfe04445a169983d185dcdd0bea7ee15046b3c2"
        },
        "post": {
            "Cancun": [
                {
                    "hash": "0xb3d376d8a0c28f323d094d8c0ed4b353af619df548f8dec82728787658eff36c",
                    "logs": "0x1dcc4de8dec75d7aab85b567b6ccd41ad312451b948a7413f0a142fd40d49347",
                    "txbytes": "0xf9013d800a830186a0948bfe04445a169983d185dcdd0bea7ee15046b4c2840a10954eb8d87f000000000000000000000000ffffffffffffffffffffffffffffffffffffffff45157f0000000000000000000000008bfe04445a169983d185dcdd0bea7ee15046b3c27f000000000000000000000000ffffffffffffffffffffffffffffffffffffffff7f00000000000000000000000000000000000000000000000000000000000000017f000000000000000000000000000000000000000000000000000000000000c3507f00000000000000000000000000000000000000000000000000000000000000016f116b4177f25178d7048212877e956826a038e6252c53308b2d4a815941c142eac079426eaac436312912c4921cfb2b454ba049ff35ecd6c92e4ec67a185dc222790f00ffe663adcf6297942c69873a66726f",
                    "indexes": {
                        "data": 0,
                        "gas": 0,
                        "value": 0
                    },
                    "state": {
                        "0x69fca66345a625cab8ec38fbd617e7ae61177e17": {
                            "nonce": "0x01",
                            "balance": "0x0de0b6b39d4c8abc",
                            "code": "0x",
                            "storage": {}
                        },
                        "0x8bfe04445a169983d185dcdd0bea7ee15046b3c2": {
                            "nonce": "0x00",
                            "balance": "0x2e",
                            "code": "0x6000355415600957005b60203560003555",
                            "storage": {}
                        },
                        "0x8bfe04445a169983d185dcdd0bea7ee15046b4c2": {
                            "nonce": "0x00",
                            "balance": "0x0a10954e",
                            "code": "0x7f000000000000000000000000ffffffffffffffffffffffffffffffffffffffff45157f0000000000000000000000008bfe04445a169983d185dcdd0bea7ee15046b3c27f000000000000000000000000ffffffffffffffffffffffffffffffffffffffff7f00000000000000000000000000000000000000000000000000000000000000017f000000000000000000000000000000000000000000000000000000000000c3507f00000000000000000000000000000000000000000000000000000000000000016f116b4177f25178d7048212877e95685560005155",
                            "storage": {
                                "0x00": "0x116b4177f25178d7048212877e956855"
                            }
                        }
                    }
                }
            ]
        },
        "config": {
            "blobSchedule": {
                "Cancun": {
                    "target": "0x03",
                    "max": "0x06",
                    "baseFeeUpdateFraction": "0x32f0ed"
                }
            },
            "chainid": "0x01"
        },
        "_info": {
            "hash": "0x2024aec6334812ce632d7bb9d2a88745fc35fa906fe3b57a4796c6a632487ca1",
            "comment": "`execution-spec-tests` generated test",
            "filling-transition-tool": "ethereum-spec-evm-resolver 0.0.5",
            "description": "No description available - add a docstring to the python test class or function.",
            "url": "",
            "fixture-format": "state_test",
            "eels-resolution": {
                "git-url": "https://github.com/marioevz/execution-specs.git",
                "branch": "forks/bpo1",
                "commit": "3387e5f4aedfe99becfdc39b444d6371e25e0924"
            }
        }
    },
    "tests/static/state_tests/stRandom/randomStatetest90Filler.json::randomStatetest90[fork_Osaka-state_test-]": {
        "env": {
            "currentCoinbase": "0x8bfe04445a169983d185dcdd0bea7ee15046b3c2",
            "currentGasLimit": "0x7fffffffffffffff",
            "currentNumber": "0x01",
            "currentTimestamp": "0x03e8",
            "currentRandom": "0x0000000000000000000000000000000000000000000000000000000000020000",
            "currentDifficulty": "0x00",
            "currentBaseFee": "0x0a",
            "currentExcessBlobGas": "0x00"
        },
        "pre": {
            "0x69fca66345a625cab8ec38fbd617e7ae61177e17": {
                "nonce": "0x00",
                "balance": "0x0de0b6b3a7640000",
                "code": "0x",
                "storage": {}
            },
            "0x8bfe04445a169983d185dcdd0bea7ee15046b3c2": {
                "nonce": "0x00",
                "balance": "0x2e",
                "code": "0x6000355415600957005b60203560003555",
                "storage": {}
            },
            "0x8bfe04445a169983d185dcdd0bea7ee15046b4c2": {
                "nonce": "0x00",
                "balance": "0x00",
                "code": "0x7f000000000000000000000000ffffffffffffffffffffffffffffffffffffffff45157f0000000000000000000000008bfe04445a169983d185dcdd0bea7ee15046b3c27f000000000000000000000000ffffffffffffffffffffffffffffffffffffffff7f00000000000000000000000000000000000000000000000000000000000000017f000000000000000000000000000000000000000000000000000000000000c3507f00000000000000000000000000000000000000000000000000000000000000016f116b4177f25178d7048212877e95685560005155",
                "storage": {}
            }
        },
        "transaction": {
            "nonce": "0x00",
            "gasPrice": "0x0a",
            "gasLimit": [
                "0x0186a0"
            ],
            "to": "0x8bfe04445a169983d185dcdd0bea7ee15046b4c2",
            "value": [
                "0x0a10954e"
            ],
            "data": [
                "0x7f000000000000000000000000ffffffffffffffffffffffffffffffffffffffff45157f0000000000000000000000008bfe04445a169983d185dcdd0bea7ee15046b3c27f000000000000000000000000ffffffffffffffffffffffffffffffffffffffff7f00000000000000000000000000000000000000000000000000000000000000017f000000000000000000000000000000000000000000000000000000000000c3507f00000000000000000000000000000000000000000000000000000000000000016f116b4177f25178d7048212877e9568"
            ],
            "sender": "0x69fca66345a625cab8ec38fbd617e7ae61177e17",
            "secretKey": "0x44698cd156fd11d0eb558be48bfe04445a169983d185dcdd0bea7ee15046b3c2"
        },
        "post": {
            "Osaka": [
                {
                    "hash": "0xb3d376d8a0c28f323d094d8c0ed4b353af619df548f8dec82728787658eff36c",
                    "logs": "0x1dcc4de8dec75d7aab85b567b6ccd41ad312451b948a7413f0a142fd40d49347",
                    "txbytes": "0xf9013d800a830186a0948bfe04445a169983d185dcdd0bea7ee15046b4c2840a10954eb8d87f000000000000000000000000ffffffffffffffffffffffffffffffffffffffff45157f0000000000000000000000008bfe04445a169983d185dcdd0bea7ee15046b3c27f000000000000000000000000ffffffffffffffffffffffffffffffffffffffff7f00000000000000000000000000000000000000000000000000000000000000017f000000000000000000000000000000000000000000000000000000000000c3507f00000000000000000000000000000000000000000000000000000000000000016f116b4177f25178d7048212877e956826a038e6252c53308b2d4a815941c142eac079426eaac436312912c4921cfb2b454ba049ff35ecd6c92e4ec67a185dc222790f00ffe663adcf6297942c69873a66726f",
                    "indexes": {
                        "data": 0,
                        "gas": 0,
                        "value": 0
                    },
                    "state": {
                        "0x69fca66345a625cab8ec38fbd617e7ae61177e17": {
                            "nonce": "0x01",
                            "balance": "0x0de0b6b39d4c8abc",
                            "code": "0x",
                            "storage": {}
                        },
                        "0x8bfe04445a169983d185dcdd0bea7ee15046b3c2": {
                            "nonce": "0x00",
                            "balance": "0x2e",
                            "code": "0x6000355415600957005b60203560003555",
                            "storage": {}
                        },
                        "0x8bfe04445a169983d185dcdd0bea7ee15046b4c2": {
                            "nonce": "0x00",
                            "balance": "0x0a10954e",
                            "code": "0x7f000000000000000000000000ffffffffffffffffffffffffffffffffffffffff45157f0000000000000000000000008bfe04445a169983d185dcdd0bea7ee15046b3c27f000000000000000000000000ffffffffffffffffffffffffffffffffffffffff7f00000000000000000000000000000000000000000000000000000000000000017f000000000000000000000000000000000000000000000000000000000000c3507f00000000000000000000000000000000000000000000000000000000000000016f116b4177f25178d7048212877e95685560005155",
                            "storage": {
                                "0x00": "0x116b4177f25178d7048212877e956855"
                            }
                        }
                    }
                }
            ]
        },
        "config": {
            "blobSchedule": {
                "Cancun": {
                    "target": "0x03",
                    "max": "0x06",
                    "baseFeeUpdateFraction": "0x32f0ed"
                },
                "Prague": {
                    "target": "0x06",
                    "max": "0x09",
                    "baseFeeUpdateFraction": "0x4c6964"
                },
                "Osaka": {
                    "target": "0x06",
                    "max": "0x09",
                    "baseFeeUpdateFraction": "0x4c6964"
                }
            },
            "chainid": "0x01"
        },
        "_info": {
            "hash": "0xa744d3a74fd3c2b526f4860ad12ecc14f4c1682fc40bdab09be8e7f180721966",
            "comment": "`execution-spec-tests` generated test",
            "filling-transition-tool": "ethereum-spec-evm-resolver 0.0.5",
            "description": "No description available - add a docstring to the python test class or function.",
            "url": "",
            "fixture-format": "state_test",
            "eels-resolution": {
                "git-url": "https://github.com/marioevz/execution-specs.git",
                "branch": "forks/bpo1",
                "commit": "3387e5f4aedfe99becfdc39b444d6371e25e0924"
            }
        }
    },
    "tests/static/state_tests/stRandom/randomStatetest90Filler.json::randomStatetest90[fork_Prague-state_test-]": {
        "env": {
            "currentCoinbase": "0x8bfe04445a169983d185dcdd0bea7ee15046b3c2",
            "currentGasLimit": "0x7fffffffffffffff",
            "currentNumber": "0x01",
            "currentTimestamp": "0x03e8",
            "currentRandom": "0x0000000000000000000000000000000000000000000000000000000000020000",
            "currentDifficulty": "0x00",
            "currentBaseFee": "0x0a",
            "currentExcessBlobGas": "0x00"
        },
        "pre": {
            "0x69fca66345a625cab8ec38fbd617e7ae61177e17": {
                "nonce": "0x00",
                "balance": "0x0de0b6b3a7640000",
                "code": "0x",
                "storage": {}
            },
            "0x8bfe04445a169983d185dcdd0bea7ee15046b3c2": {
                "nonce": "0x00",
                "balance": "0x2e",
                "code": "0x6000355415600957005b60203560003555",
                "storage": {}
            },
            "0x8bfe04445a169983d185dcdd0bea7ee15046b4c2": {
                "nonce": "0x00",
                "balance": "0x00",
                "code": "0x7f000000000000000000000000ffffffffffffffffffffffffffffffffffffffff45157f0000000000000000000000008bfe04445a169983d185dcdd0bea7ee15046b3c27f000000000000000000000000ffffffffffffffffffffffffffffffffffffffff7f00000000000000000000000000000000000000000000000000000000000000017f000000000000000000000000000000000000000000000000000000000000c3507f00000000000000000000000000000000000000000000000000000000000000016f116b4177f25178d7048212877e95685560005155",
                "storage": {}
            }
        },
        "transaction": {
            "nonce": "0x00",
            "gasPrice": "0x0a",
            "gasLimit": [
                "0x0186a0"
            ],
            "to": "0x8bfe04445a169983d185dcdd0bea7ee15046b4c2",
            "value": [
                "0x0a10954e"
            ],
            "data": [
                "0x7f000000000000000000000000ffffffffffffffffffffffffffffffffffffffff45157f0000000000000000000000008bfe04445a169983d185dcdd0bea7ee15046b3c27f000000000000000000000000ffffffffffffffffffffffffffffffffffffffff7f00000000000000000000000000000000000000000000000000000000000000017f000000000000000000000000000000000000000000000000000000000000c3507f00000000000000000000000000000000000000000000000000000000000000016f116b4177f25178d7048212877e9568"
            ],
            "sender": "0x69fca66345a625cab8ec38fbd617e7ae61177e17",
            "secretKey": "0x44698cd156fd11d0eb558be48bfe04445a169983d185dcdd0bea7ee15046b3c2"
        },
        "post": {
            "Prague": [
                {
                    "hash": "0xb3d376d8a0c28f323d094d8c0ed4b353af619df548f8dec82728787658eff36c",
                    "logs": "0x1dcc4de8dec75d7aab85b567b6ccd41ad312451b948a7413f0a142fd40d49347",
                    "txbytes": "0xf9013d800a830186a0948bfe04445a169983d185dcdd0bea7ee15046b4c2840a10954eb8d87f000000000000000000000000ffffffffffffffffffffffffffffffffffffffff45157f0000000000000000000000008bfe04445a169983d185dcdd0bea7ee15046b3c27f000000000000000000000000ffffffffffffffffffffffffffffffffffffffff7f00000000000000000000000000000000000000000000000000000000000000017f000000000000000000000000000000000000000000000000000000000000c3507f00000000000000000000000000000000000000000000000000000000000000016f116b4177f25178d7048212877e956826a038e6252c53308b2d4a815941c142eac079426eaac436312912c4921cfb2b454ba049ff35ecd6c92e4ec67a185dc222790f00ffe663adcf6297942c69873a66726f",
                    "indexes": {
                        "data": 0,
                        "gas": 0,
                        "value": 0
                    },
                    "state": {
                        "0x69fca66345a625cab8ec38fbd617e7ae61177e17": {
                            "nonce": "0x01",
                            "balance": "0x0de0b6b39d4c8abc",
                            "code": "0x",
                            "storage": {}
                        },
                        "0x8bfe04445a169983d185dcdd0bea7ee15046b3c2": {
                            "nonce": "0x00",
                            "balance": "0x2e",
                            "code": "0x6000355415600957005b60203560003555",
                            "storage": {}
                        },
                        "0x8bfe04445a169983d185dcdd0bea7ee15046b4c2": {
                            "nonce": "0x00",
                            "balance": "0x0a10954e",
                            "code": "0x7f000000000000000000000000ffffffffffffffffffffffffffffffffffffffff45157f0000000000000000000000008bfe04445a169983d185dcdd0bea7ee15046b3c27f000000000000000000000000ffffffffffffffffffffffffffffffffffffffff7f00000000000000000000000000000000000000000000000000000000000000017f000000000000000000000000000000000000000000000000000000000000c3507f00000000000000000000000000000000000000000000000000000000000000016f116b4177f25178d7048212877e95685560005155",
                            "storage": {
                                "0x00": "0x116b4177f25178d7048212877e956855"
                            }
                        }
                    }
                }
            ]
        },
        "config": {
            "blobSchedule": {
                "Cancun": {
                    "target": "0x03",
                    "max": "0x06",
                    "baseFeeUpdateFraction": "0x32f0ed"
                },
                "Prague": {
                    "target": "0x06",
                    "max": "0x09",
                    "baseFeeUpdateFraction": "0x4c6964"
                }
            },
            "chainid": "0x01"
        },
        "_info": {
            "hash": "0x42b9d221ec2d43cf4aac82ed86f38dcb43e3b1685b597fe2a8a89ae708e064b8",
            "comment": "`execution-spec-tests` generated test",
            "filling-transition-tool": "ethereum-spec-evm-resolver 0.0.5",
            "description": "No description available - add a docstring to the python test class or function.",
            "url": "",
            "fixture-format": "state_test",
            "eels-resolution": {
                "git-url": "https://github.com/marioevz/execution-specs.git",
                "branch": "forks/bpo1",
                "commit": "3387e5f4aedfe99becfdc39b444d6371e25e0924"
            }
        }
    }
}