{
    "tests/static/state_tests/stRandom/randomStatetest5Filler.json::randomStatetest5[fork_Cancun-state_test-]": {
        "env": {
            "currentCoinbase": "0x6836347e9ce44471fb566efd88a4fd98b6476e85",
            "currentGasLimit": "0x7fffffffffffffff",
            "currentNumber": "0x01",
            "currentTimestamp": "0x03e8",
            "currentRandom": "0x0000000000000000000000000000000000000000000000000000000000020000",
            "currentDifficulty": "0x00",
            "currentBaseFee": "0x0a",
            "currentExcessBlobGas": "0x00"
        },
        "pre": {
            "0x1ae69eabf2a17a7334df2d56ce125e99d8f82c25": {
                "nonce": "0x00",
                "balance": "0x0de0b6b3a7640000",
                "code": "0x",
                "storage": {}
            },
            "0x6836347e9ce44471fb566efd88a4fd98b6476e85": {
                "nonce": "0x00",
                "balance": "0x2e",
                "code": "0x6000355415600957005b60203560003555",
                "storage": {}
            },
            "0x6836347e9ce44471fb566efd88a4fd98b6476f85": {
                "nonce": "0x00",
                "balance": "0x00",
                "code": "0x427f00000000000000000000000000000000000000000000000000000000000000007fffffffffffffffffffffffffffffffffffffffffffffffffffffffffffffffff7f0000000000000000000000006836347e9ce44471fb566efd88a4fd98b6476e857f000000000000000000000000000000000000000000000000000000000000c3507ffffffffffffffffffffffffffffffffffffffffffffffffffffffffffffffffe7ffffffffffffffffffffffffffffffffffffffffffffffffffffffffffffffffe7f000000000000000000000000ffffffffffffffffffffffffffffffffffffffff0960005155",
                "storage": {}
            }
        },
        "transaction": {
            "nonce": "0x00",
            "gasPrice": "0x0a",
            "gasLimit": [
                "0x0186a0"
            ],
            "to": "0x6836347e9ce44471fb566efd88a4fd98b6476f85",
            "value": [
                "0x3c9d8b2a"
            ],
            "data": [
                "0x427f00000000000000000000000000000000000000000000000000000000000000007fffffffffffffffffffffffffffffffffffffffffffffffffffffffffffffffff7f0000000000000000000000006836347e9ce44471fb566efd88a4fd98b6476e857f000000000000000000000000000000000000000000000000000000000000c3507ffffffffffffffffffffffffffffffffffffffffffffffffffffffffffffffffe7ffffffffffffffffffffffffffffffffffffffffffffffffffffffffffffffffe7f000000000000000000000000ffffffffffffffffffffffffffffffffffffffff09"
            ],
            "sender": "0x1ae69eabf2a17a7334df2d56ce125e99d8f82c25",
            "secretKey": "0xb209334a0d2f6b8b3d25e4db6836347e9ce44471fb566efd88a4fd98b6476e85"
        },
        "post": {
            "Cancun": [
                {
                    "hash": "0x5b3cceca555e585c109183cda7974f0b5f483a9551faa482b7cbb24d036ae23f",
                    "logs": "0x1dcc4de8dec75d7aab85b567b6ccd41ad312451b948a7413f0a142fd40d49347",
                    "txbytes": "0xf9014e800a830186a0946836347e9ce44471fb566efd88a4fd98b6476f85843c9d8b2ab8e9427f00000000000000000000000000000000000000000000000000000000000000007fffffffffffffffffffffffffffffffffffffffffffffffffffffffffffffffff7f0000000000000000000000006836347e9ce44471fb566efd88a4fd98b6476e857f000000000000000000000000000000000000000000000000000000000000c3507ffffffffffffffffffffffffffffffffffffffffffffffffffffffffffffffffe7ffffffffffffffffffffffffffffffffffffffffffffffffffffffffffffffffe7f000000000000000000000000ffffffffffffffffffffffffffffffffffffffff0926a0a18db076d8471c228d29ab9140f8a8f09dd45d43b76797a85163a3dbe8b4f80ca06ae7c804c916f629152b33554d948fbfd4b3a9a5db2754793789a0ed1b986916",
                    "indexes": {
                        "data": 0,
                        "gas": 0,
                        "value": 0
                    },
                    "state": {
                        "0x1ae69eabf2a17a7334df2d56ce125e99d8f82c25": {
                            "nonce": "0x01",
                            "balance": "0x0de0b6b36ac27fb6",
                            "code": "0x",
                            "storage": {}
                        },
                        "0x6836347e9ce44471fb566efd88a4fd98b6476e85": {
                            "nonce": "0x00",
                            "balance": "0x2e",
                            "code": "0x6000355415600957005b60203560003555",
                            "storage": {}
                        },
                        "0x6836347e9ce44471fb566efd88a4fd98b6476f85": {
                            "nonce": "0x00",
                            "balance": "0x3c9d8b2a",
                            "code": "0x427f00000000000000000000000000000000000000000000000000000000000000007fffffffffffffffffffffffffffffffffffffffffffffffffffffffffffffffff7f0000000000000000000000006836347e9ce44471fb566efd88a4fd98b6476e857f000000000000000000000000000000000000000000000000000000000000c3507ffffffffffffffffffffffffffffffffffffffffffffffffffffffffffffffffe7ffffffffffffffffffffffffffffffffffffffffffffffffffffffffffffffffe7f000000000000000000000000ffffffffffffffffffffffffffffffffffffffff0960005155",
                            "storage": {}
                        }
                    }
                }
            ]
        },
        "config": {
            "blobSchedule": {
                "Cancun": {
                    "target": "0x03",
                    "max": "0x06",
                    "baseFeeUpdateFraction": "0x32f0ed"
                }
            },
            "chainid": "0x01"
        },
        "_info": {
            "hash": "0x613088458a6f6a772379758468886bb74cb2e0fa6e49369e62314b5c71382451",
            "comment": "`execution-spec-tests` generated test",
            "filling-transition-tool": "ethereum-spec-evm-resolver 0.0.5",
            "description": "No description available - add a docstring to the python test class or function.",
            "url": "",
            "fixture-format": "state_test",
            "eels-resolution": {
                "git-url": "https://github.com/marioevz/execution-specs.git",
                "branch": "forks/bpo1",
                "commit": "3387e5f4aedfe99becfdc39b444d6371e25e0924"
            }
        }
    },
    "tests/static/state_tests/stRandom/randomStatetest5Filler.json::randomStatetest5[fork_Osaka-state_test-]": {
        "env": {
            "currentCoinbase": "0x6836347e9ce44471fb566efd88a4fd98b6476e85",
            "currentGasLimit": "0x7fffffffffffffff",
            "currentNumber": "0x01",
            "currentTimestamp": "0x03e8",
            "currentRandom": "0x0000000000000000000000000000000000000000000000000000000000020000",
            "currentDifficulty": "0x00",
            "currentBaseFee": "0x0a",
            "currentExcessBlobGas": "0x00"
        },
        "pre": {
            "0x1ae69eabf2a17a7334df2d56ce125e99d8f82c25": {
                "nonce": "0x00",
                "balance": "0x0de0b6b3a7640000",
                "code": "0x",
                "storage": {}
            },
            "0x6836347e9ce44471fb566efd88a4fd98b6476e85": {
                "nonce": "0x00",
                "balance": "0x2e",
                "code": "0x6000355415600957005b60203560003555",
                "storage": {}
            },
            "0x6836347e9ce44471fb566efd88a4fd98b6476f85": {
                "nonce": "0x00",
                "balance": "0x00",
                "code": "0x427f00000000000000000000000000000000000000000000000000000000000000007fffffffffffffffffffffffffffffffffffffffffffffffffffffffffffffffff7f0000000000000000000000006836347e9ce44471fb566efd88a4fd98b6476e857f000000000000000000000000000000000000000000000000000000000000c3507ffffffffffffffffffffffffffffffffffffffffffffffffffffffffffffffffe7ffffffffffffffffffffffffffffffffffffffffffffffffffffffffffffffffe7f000000000000000000000000ffffffffffffffffffffffffffffffffffffffff0960005155",
                "storage": {}
            }
        },
        "transaction": {
            "nonce": "0x00",
            "gasPrice": "0x0a",
            "gasLimit": [
                "0x0186a0"
            ],
            "to": "0x6836347e9ce44471fb566efd88a4fd98b6476f85",
            "value": [
                "0x3c9d8b2a"
            ],
            "data": [
                "0x427f00000000000000000000000000000000000000000000000000000000000000007fffffffffffffffffffffffffffffffffffffffffffffffffffffffffffffffff7f0000000000000000000000006836347e9ce44471fb566efd88a4fd98b6476e857f000000000000000000000000000000000000000000000000000000000000c3507ffffffffffffffffffffffffffffffffffffffffffffffffffffffffffffffffe7ffffffffffffffffffffffffffffffffffffffffffffffffffffffffffffffffe7f000000000000000000000000ffffffffffffffffffffffffffffffffffffffff09"
            ],
            "sender": "0x1ae69eabf2a17a7334df2d56ce125e99d8f82c25",
            "secretKey": "0xb209334a0d2f6b8b3d25e4db6836347e9ce44471fb566efd88a4fd98b6476e85"
        },
        "post": {
            "Osaka": [
                {
                    "hash": "0x84a44a5ab316464e2aed83e950cf1245f25104f6c78d74e76d2f8fc0efacb1b8",
                    "logs": "0x1dcc4de8dec75d7aab85b567b6ccd41ad312451b948a7413f0a142fd40d49347",
                    "txbytes": "0xf9014e800a830186a0946836347e9ce44471fb566efd88a4fd98b6476f85843c9d8b2ab8e9427f00000000000000000000000000000000000000000000000000000000000000007fffffffffffffffffffffffffffffffffffffffffffffffffffffffffffffffff7f0000000000000000000000006836347e9ce44471fb566efd88a4fd98b6476e857f000000000000000000000000000000000000000000000000000000000000c3507ffffffffffffffffffffffffffffffffffffffffffffffffffffffffffffffffe7ffffffffffffffffffffffffffffffffffffffffffffffffffffffffffffffffe7f000000000000000000000000ffffffffffffffffffffffffffffffffffffffff0926a0a18db076d8471c228d29ab9140f8a8f09dd45d43b76797a85163a3dbe8b4f80ca06ae7c804c916f629152b33554d948fbfd4b3a9a5db2754793789a0ed1b986916",
                    "indexes": {
                        "data": 0,
                        "gas": 0,
                        "value": 0
                    },
                    "state": {
                        "0x1ae69eabf2a17a7334df2d56ce125e99d8f82c25": {
                            "nonce": "0x01",
                            "balance": "0x0de0b6b36ac2393e",
                            "code": "0x",
                            "storage": {}
                        },
                        "0x6836347e9ce44471fb566efd88a4fd98b6476e85": {
                            "nonce": "0x00",
                            "balance": "0x2e",
                            "code": "0x6000355415600957005b60203560003555",
                            "storage": {}
                        },
                        "0x6836347e9ce44471fb566efd88a4fd98b6476f85": {
                            "nonce": "0x00",
                            "balance": "0x3c9d8b2a",
                            "code": "0x427f00000000000000000000000000000000000000000000000000000000000000007fffffffffffffffffffffffffffffffffffffffffffffffffffffffffffffffff7f0000000000000000000000006836347e9ce44471fb566efd88a4fd98b6476e857f000000000000000000000000000000000000000000000000000000000000c3507ffffffffffffffffffffffffffffffffffffffffffffffffffffffffffffffffe7ffffffffffffffffffffffffffffffffffffffffffffffffffffffffffffffffe7f000000000000000000000000ffffffffffffffffffffffffffffffffffffffff0960005155",
                            "storage": {}
                        }
                    }
                }
            ]
        },
        "config": {
            "blobSchedule": {
                "Cancun": {
                    "target": "0x03",
                    "max": "0x06",
                    "baseFeeUpdateFraction": "0x32f0ed"
                },
                "Prague": {
                    "target": "0x06",
                    "max": "0x09",
                    "baseFeeUpdateFraction": "0x4c6964"
                },
                "Osaka": {
                    "target": "0x06",
                    "max": "0x09",
                    "baseFeeUpdateFraction": "0x4c6964"
                }
            },
            "chainid": "0x01"
        },
        "_info": {
            "hash": "0x99b19d98113d758f693ee8576ccc7af422d879756dac71e5eabffc7649bfd10f",
            "comment": "`execution-spec-tests` generated test",
            "filling-transition-tool": "ethereum-spec-evm-resolver 0.0.5",
            "description": "No description available - add a docstring to the python test class or function.",
            "url": "",
            "fixture-format": "state_test",
            "eels-resolution": {
                "git-url": "https://github.com/marioevz/execution-specs.git",
                "branch": "forks/bpo1",
                "commit": "3387e5f4aedfe99becfdc39b444d6371e25e0924"
            }
        }
    },
    "tests/static/state_tests/stRandom/randomStatetest5Filler.json::randomStatetest5[fork_Prague-state_test-]": {
        "env": {
            "currentCoinbase": "0x6836347e9ce44471fb566efd88a4fd98b6476e85",
            "currentGasLimit": "0x7fffffffffffffff",
            "currentNumber": "0x01",
            "currentTimestamp": "0x03e8",
            "currentRandom": "0x0000000000000000000000000000000000000000000000000000000000020000",
            "currentDifficulty": "0x00",
            "currentBaseFee": "0x0a",
            "currentExcessBlobGas": "0x00"
        },
        "pre": {
            "0x1ae69eabf2a17a7334df2d56ce125e99d8f82c25": {
                "nonce": "0x00",
                "balance": "0x0de0b6b3a7640000",
                "code": "0x",
                "storage": {}
            },
            "0x6836347e9ce44471fb566efd88a4fd98b6476e85": {
                "nonce": "0x00",
                "balance": "0x2e",
                "code": "0x6000355415600957005b60203560003555",
                "storage": {}
            },
            "0x6836347e9ce44471fb566efd88a4fd98b6476f85": {
                "nonce": "0x00",
                "balance": "0x00",
                "code": "0x427f00000000000000000000000000000000000000000000000000000000000000007fffffffffffffffffffffffffffffffffffffffffffffffffffffffffffffffff7f0000000000000000000000006836347e9ce44471fb566efd88a4fd98b6476e857f000000000000000000000000000000000000000000000000000000000000c3507ffffffffffffffffffffffffffffffffffffffffffffffffffffffffffffffffe7ffffffffffffffffffffffffffffffffffffffffffffffffffffffffffffffffe7f000000000000000000000000ffffffffffffffffffffffffffffffffffffffff0960005155",
                "storage": {}
            }
        },
        "transaction": {
            "nonce": "0x00",
            "gasPrice": "0x0a",
            "gasLimit": [
                "0x0186a0"
            ],
            "to": "0x6836347e9ce44471fb566efd88a4fd98b6476f85",
            "value": [
                "0x3c9d8b2a"
            ],
            "data": [
                "0x427f00000000000000000000000000000000000000000000000000000000000000007fffffffffffffffffffffffffffffffffffffffffffffffffffffffffffffffff7f0000000000000000000000006836347e9ce44471fb566efd88a4fd98b6476e857f000000000000000000000000000000000000000000000000000000000000c3507ffffffffffffffffffffffffffffffffffffffffffffffffffffffffffffffffe7ffffffffffffffffffffffffffffffffffffffffffffffffffffffffffffffffe7f000000000000000000000000ffffffffffffffffffffffffffffffffffffffff09"
            ],
            "sender": "0x1ae69eabf2a17a7334df2d56ce125e99d8f82c25",
            "secretKey": "0xb209334a0d2f6b8b3d25e4db6836347e9ce44471fb566efd88a4fd98b6476e85"
        },
        "post": {
            "Prague": [
                {
                    "hash": "0x84a44a5ab316464e2aed83e950cf1245f25104f6c78d74e76d2f8fc0efacb1b8",
                    "logs": "0x1dcc4de8dec75d7aab85b567b6ccd41ad312451b948a7413f0a142fd40d49347",
                    "txbytes": "0xf9014e800a830186a0946836347e9ce44471fb566efd88a4fd98b6476f85843c9d8b2ab8e9427f00000000000000000000000000000000000000000000000000000000000000007fffffffffffffffffffffffffffffffffffffffffffffffffffffffffffffffff7f0000000000000000000000006836347e9ce44471fb566efd88a4fd98b6476e857f000000000000000000000000000000000000000000000000000000000000c3507ffffffffffffffffffffffffffffffffffffffffffffffffffffffffffffffffe7ffffffffffffffffffffffffffffffffffffffffffffffffffffffffffffffffe7f000000000000000000000000ffffffffffffffffffffffffffffffffffffffff0926a0a18db076d8471c228d29ab9140f8a8f09dd45d43b76797a85163a3dbe8b4f80ca06ae7c804c916f629152b33554d948fbfd4b3a9a5db2754793789a0ed1b986916",
                    "indexes": {
                        "data": 0,
                        "gas": 0,
                        "value": 0
                    },
                    "state": {
                        "0x1ae69eabf2a17a7334df2d56ce125e99d8f82c25": {
                            "nonce": "0x01",
                            "balance": "0x0de0b6b36ac2393e",
                            "code": "0x",
                            "storage": {}
                        },
                        "0x6836347e9ce44471fb566efd88a4fd98b6476e85": {
                            "nonce": "0x00",
                            "balance": "0x2e",
                            "code": "0x6000355415600957005b60203560003555",
                            "storage": {}
                        },
                        "0x6836347e9ce44471fb566efd88a4fd98b6476f85": {
                            "nonce": "0x00",
                            "balance": "0x3c9d8b2a",
                            "code": "0x427f00000000000000000000000000000000000000000000000000000000000000007fffffffffffffffffffffffffffffffffffffffffffffffffffffffffffffffff7f0000000000000000000000006836347e9ce44471fb566efd88a4fd98b6476e857f000000000000000000000000000000000000000000000000000000000000c3507ffffffffffffffffffffffffffffffffffffffffffffffffffffffffffffffffe7ffffffffffffffffffffffffffffffffffffffffffffffffffffffffffffffffe7f000000000000000000000000ffffffffffffffffffffffffffffffffffffffff0960005155",
                            "storage": {}
                        }
                    }
                }
            ]
        },
        "config": {
            "blobSchedule": {
                "Cancun": {
                    "target": "0x03",
                    "max": "0x06",
                    "baseFeeUpdateFraction": "0x32f0ed"
                },
                "Prague": {
                    "target": "0x06",
                    "max": "0x09",
                    "baseFeeUpdateFraction": "0x4c6964"
                }
            },
            "chainid": "0x01"
        },
        "_info": {
            "hash": "0x607e6f5c346bbfb29c47dc18a85e10897829ea8d2a017036788f27c9021fc5ac",
            "comment": "`execution-spec-tests` generated test",
            "filling-transition-tool": "ethereum-spec-evm-resolver 0.0.5",
            "description": "No description available - add a docstring to the python test class or function.",
            "url": "",
            "fixture-format": "state_test",
            "eels-resolution": {
                "git-url": "https://github.com/marioevz/execution-specs.git",
                "branch": "forks/bpo1",
                "commit": "3387e5f4aedfe99becfdc39b444d6371e25e0924"
            }
        }
    }
}