{
    "tests/static/state_tests/stRandom/randomStatetest28Filler.json::randomStatetest28[fork_Cancun-state_test-]": {
        "env": {
            "currentCoinbase": "0x345d2ba6f9ae683cffdadae62e16c81165c6ba6e",
            "currentGasLimit": "0x7fffffffffffffff",
            "currentNumber": "0x01",
            "currentTimestamp": "0x03e8",
            "currentRandom": "0x0000000000000000000000000000000000000000000000000000000000020000",
            "currentDifficulty": "0x00",
            "currentBaseFee": "0x0a",
            "currentExcessBlobGas": "0x00"
        },
        "pre": {
            "0xee881eed2dd777ab8f7884be2fa9f3950bc5c550": {
                "nonce": "0x00",
                "balance": "0x0de0b6b3a7640000",
                "code": "0x",
                "storage": {}
            },
            "0x345d2ba6f9ae683cffdadae62e16c81165c6ba6e": {
                "nonce": "0x00",
                "balance": "0x2e",
                "code": "0x6000355415600957005b60203560003555",
                "storage": {}
            },
            "0x345d2ba6f9ae683cffdadae62e16c81165c6bb6e": {
                "nonce": "0x00",
                "balance": "0x00",
                "code": "0x7ffffffffffffffffffffffffffffffffffffffffffffffffffffffffffffffffe7fffffffffffffffffffffffffffffffffffffffffffffffffffffffffffffffff7fffffffffffffffffffffffffffffffffffffffffffffffffffffffffffffffff417f00000000000000000000000100000000000000000000000000000000000000007f000000000000000000000000345d2ba6f9ae683cffdadae62e16c81165c6ba6e6f38129d68939a19a2697172926f6a67363055",
                "storage": {}
            }
        },
        "transaction": {
            "nonce": "0x00",
            "gasPrice": "0x0a",
            "gasLimit": [
                "0x0186a0"
            ],
            "to": "0x345d2ba6f9ae683cffdadae62e16c81165c6bb6e",
            "value": [
                "0x51af41e7"
            ],
            "data": [
                "0x7ffffffffffffffffffffffffffffffffffffffffffffffffffffffffffffffffe7fffffffffffffffffffffffffffffffffffffffffffffffffffffffffffffffff7fffffffffffffffffffffffffffffffffffffffffffffffffffffffffffffffff417f00000000000000000000000100000000000000000000000000000000000000007f000000000000000000000000345d2ba6f9ae683cffdadae62e16c81165c6ba6e6f38129d68939a19a2697172926f6a673630"
            ],
            "sender": "0xee881eed2dd777ab8f7884be2fa9f3950bc5c550",
            "secretKey": "0x00e506b7c97dbb0079db63d4345d2ba6f9ae683cffdadae62e16c81165c6ba6e"
        },
        "post": {
            "Cancun": [
                {
                    "hash": "0xaf0c457ae3b13b5bdb40f3900da997496de9952d4be2c8a51a53cf0516c128c9",
                    "logs": "0x1dcc4de8dec75d7aab85b567b6ccd41ad312451b948a7413f0a142fd40d49347",
                    "txbytes": "0xf9011d800a830186a094345d2ba6f9ae683cffdadae62e16c81165c6bb6e8451af41e7b8b87ffffffffffffffffffffffffffffffffffffffffffffffffffffffffffffffffe7fffffffffffffffffffffffffffffffffffffffffffffffffffffffffffffffff7fffffffffffffffffffffffffffffffffffffffffffffffffffffffffffffffff417f00000000000000000000000100000000000000000000000000000000000000007f000000000000000000000000345d2ba6f9ae683cffdadae62e16c81165c6ba6e6f38129d68939a19a2697172926f6a67363025a07cd25561739e0700e865ac53dc2ea9fe8f6086d2c651119f09d8762f55486217a0082f5948938edc79da388273aadb9e1db6c0bb033167c974b66ac5fb7a003eaa",
                    "indexes": {
                        "data": 0,
                        "gas": 0,
                        "value": 0
                    },
                    "state": {
                        "0xee881eed2dd777ab8f7884be2fa9f3950bc5c550": {
                            "nonce": "0x01",
                            "balance": "0x0de0b6b355adcacd",
                            "code": "0x",
                            "storage": {}
                        },
                        "0x345d2ba6f9ae683cffdadae62e16c81165c6ba6e": {
                            "nonce": "0x00",
                            "balance": "0x2e",
                            "code": "0x6000355415600957005b60203560003555",
                            "storage": {}
                        },
                        "0x345d2ba6f9ae683cffdadae62e16c81165c6bb6e": {
                            "nonce": "0x00",
                            "balance": "0x51af41e7",
                            "code": "0x7ffffffffffffffffffffffffffffffffffffffffffffffffffffffffffffffffe7fffffffffffffffffffffffffffffffffffffffffffffffffffffffffffffffff7fffffffffffffffffffffffffffffffffffffffffffffffffffffffffffffffff417f00000000000000000000000100000000000000000000000000000000000000007f000000000000000000000000345d2ba6f9ae683cffdadae62e16c81165c6ba6e6f38129d68939a19a2697172926f6a67363055",
                            "storage": {
                                "0x345d2ba6f9ae683cffdadae62e16c81165c6bb6e": "0x38129d68939a19a2697172926f6a6736"
                            }
                        }
                    }
                }
            ]
        },
        "config": {
            "blobSchedule": {
                "Cancun": {
                    "target": "0x03",
                    "max": "0x06",
                    "baseFeeUpdateFraction": "0x32f0ed"
                }
            },
            "chainid": "0x01"
        },
        "_info": {
            "hash": "0x9f91c3d886526717e45fdd72a1fe13d5f0e8735f06959ffccbfb3e0390ea37cd",
            "comment": "`execution-spec-tests` generated test",
            "filling-transition-tool": "ethereum-spec-evm-resolver 0.0.5",
            "description": "No description available - add a docstring to the python test class or function.",
            "url": "",
            "fixture-format": "state_test",
            "eels-resolution": {
                "git-url": "https://github.com/marioevz/execution-specs.git",
                "branch": "forks/bpo1",
                "commit": "3387e5f4aedfe99becfdc39b444d6371e25e0924"
            }
        }
    },
    "tests/static/state_tests/stRandom/randomStatetest28Filler.json::randomStatetest28[fork_Osaka-state_test-]": {
        "env": {
            "currentCoinbase": "0x345d2ba6f9ae683cffdadae62e16c81165c6ba6e",
            "currentGasLimit": "0x7fffffffffffffff",
            "currentNumber": "0x01",
            "currentTimestamp": "0x03e8",
            "currentRandom": "0x0000000000000000000000000000000000000000000000000000000000020000",
            "currentDifficulty": "0x00",
            "currentBaseFee": "0x0a",
            "currentExcessBlobGas": "0x00"
        },
        "pre": {
            "0xee881eed2dd777ab8f7884be2fa9f3950bc5c550": {
                "nonce": "0x00",
                "balance": "0x0de0b6b3a7640000",
                "code": "0x",
                "storage": {}
            },
            "0x345d2ba6f9ae683cffdadae62e16c81165c6ba6e": {
                "nonce": "0x00",
                "balance": "0x2e",
                "code": "0x6000355415600957005b60203560003555",
                "storage": {}
            },
            "0x345d2ba6f9ae683cffdadae62e16c81165c6bb6e": {
                "nonce": "0x00",
                "balance": "0x00",
                "code": "0x7ffffffffffffffffffffffffffffffffffffffffffffffffffffffffffffffffe7fffffffffffffffffffffffffffffffffffffffffffffffffffffffffffffffff7fffffffffffffffffffffffffffffffffffffffffffffffffffffffffffffffff417f00000000000000000000000100000000000000000000000000000000000000007f000000000000000000000000345d2ba6f9ae683cffdadae62e16c81165c6ba6e6f38129d68939a19a2697172926f6a67363055",
                "storage": {}
            }
        },
        "transaction": {
            "nonce": "0x00",
            "gasPrice": "0x0a",
            "gasLimit": [
                "0x0186a0"
            ],
            "to": "0x345d2ba6f9ae683cffdadae62e16c81165c6bb6e",
            "value": [
                "0x51af41e7"
            ],
            "data": [
                "0x7ffffffffffffffffffffffffffffffffffffffffffffffffffffffffffffffffe7fffffffffffffffffffffffffffffffffffffffffffffffffffffffffffffffff7fffffffffffffffffffffffffffffffffffffffffffffffffffffffffffffffff417f00000000000000000000000100000000000000000000000000000000000000007f000000000000000000000000345d2ba6f9ae683cffdadae62e16c81165c6ba6e6f38129d68939a19a2697172926f6a673630"
            ],
            "sender": "0xee881eed2dd777ab8f7884be2fa9f3950bc5c550",
            "secretKey": "0x00e506b7c97dbb0079db63d4345d2ba6f9ae683cffdadae62e16c81165c6ba6e"
        },
        "post": {
            "Osaka": [
                {
                    "hash": "0xaf0c457ae3b13b5bdb40f3900da997496de9952d4be2c8a51a53cf0516c128c9",
                    "logs": "0x1dcc4de8dec75d7aab85b567b6ccd41ad312451b948a7413f0a142fd40d49347",
                    "txbytes": "0xf9011d800a830186a094345d2ba6f9ae683cffdadae62e16c81165c6bb6e8451af41e7b8b87ffffffffffffffffffffffffffffffffffffffffffffffffffffffffffffffffe7fffffffffffffffffffffffffffffffffffffffffffffffffffffffffffffffff7fffffffffffffffffffffffffffffffffffffffffffffffffffffffffffffffff417f00000000000000000000000100000000000000000000000000000000000000007f000000000000000000000000345d2ba6f9ae683cffdadae62e16c81165c6ba6e6f38129d68939a19a2697172926f6a67363025a07cd25561739e0700e865ac53dc2ea9fe8f6086d2c651119f09d8762f55486217a0082f5948938edc79da388273aadb9e1db6c0bb033167c974b66ac5fb7a003eaa",
                    "indexes": {
                        "data": 0,
                        "gas": 0,
                        "value": 0
                    },
                    "state": {
                        "0xee881eed2dd777ab8f7884be2fa9f3950bc5c550": {
                            "nonce": "0x01",
                            "balance": "0x0de0b6b355adcacd",
                            "code": "0x",
                            "storage": {}
                        },
                        "0x345d2ba6f9ae683cffdadae62e16c81165c6ba6e": {
                            "nonce": "0x00",
                            "balance": "0x2e",
                            "code": "0x6000355415600957005b60203560003555",
                            "storage": {}
                        },
                        "0x345d2ba6f9ae683cffdadae62e16c81165c6bb6e": {
                            "nonce": "0x00",
                            "balance": "0x51af41e7",
                            "code": "0x7ffffffffffffffffffffffffffffffffffffffffffffffffffffffffffffffffe7fffffffffffffffffffffffffffffffffffffffffffffffffffffffffffffffff7fffffffffffffffffffffffffffffffffffffffffffffffffffffffffffffffff417f00000000000000000000000100000000000000000000000000000000000000007f000000000000000000000000345d2ba6f9ae683cffdadae62e16c81165c6ba6e6f38129d68939a19a2697172926f6a67363055",
                            "storage": {
                                "0x345d2ba6f9ae683cffdadae62e16c81165c6bb6e": "0x38129d68939a19a2697172926f6a6736"
                            }
                        }
                    }
                }
            ]
        },
        "config": {
            "blobSchedule": {
                "Cancun": {
                    "target": "0x03",
                    "max": "0x06",
                    "baseFeeUpdateFraction": "0x32f0ed"
                },
                "Prague": {
                    "target": "0x06",
                    "max": "0x09",
                    "baseFeeUpdateFraction": "0x4c6964"
                },
                "Osaka": {
                    "target": "0x06",
                    "max": "0x09",
                    "baseFeeUpdateFraction": "0x4c6964"
                }
            },
            "chainid": "0x01"
        },
        "_info": {
            "hash": "0x7c6e0a5d3cf2f08ab4fe27cc0dd60e78d6680d3777b2777bb9e773c74411e781",
            "comment": "`execution-spec-tests` generated test",
            "filling-transition-tool": "ethereum-spec-evm-resolver 0.0.5",
            "description": "No description available - add a docstring to the python test class or function.",
            "url": "",
            "fixture-format": "state_test",
            "eels-resolution": {
                "git-url": "https://github.com/marioevz/execution-specs.git",
                "branch": "forks/bpo1",
                "commit": "3387e5f4aedfe99becfdc39b444d6371e25e0924"
            }
        }
    },
    "tests/static/state_tests/stRandom/randomStatetest28Filler.json::randomStatetest28[fork_Prague-state_test-]": {
        "env": {
            "currentCoinbase": "0x345d2ba6f9ae683cffdadae62e16c81165c6ba6e",
            "currentGasLimit": "0x7fffffffffffffff",
            "currentNumber": "0x01",
            "currentTimestamp": "0x03e8",
            "currentRandom": "0x0000000000000000000000000000000000000000000000000000000000020000",
            "currentDifficulty": "0x00",
            "currentBaseFee": "0x0a",
            "currentExcessBlobGas": "0x00"
        },
        "pre": {
            "0xee881eed2dd777ab8f7884be2fa9f3950bc5c550": {
                "nonce": "0x00",
                "balance": "0x0de0b6b3a7640000",
                "code": "0x",
                "storage": {}
            },
            "0x345d2ba6f9ae683cffdadae62e16c81165c6ba6e": {
                "nonce": "0x00",
                "balance": "0x2e",
                "code": "0x6000355415600957005b60203560003555",
                "storage": {}
            },
            "0x345d2ba6f9ae683cffdadae62e16c81165c6bb6e": {
                "nonce": "0x00",
                "balance": "0x00",
                "code": "0x7ffffffffffffffffffffffffffffffffffffffffffffffffffffffffffffffffe7fffffffffffffffffffffffffffffffffffffffffffffffffffffffffffffffff7fffffffffffffffffffffffffffffffffffffffffffffffffffffffffffffffff417f00000000000000000000000100000000000000000000000000000000000000007f000000000000000000000000345d2ba6f9ae683cffdadae62e16c81165c6ba6e6f38129d68939a19a2697172926f6a67363055",
                "storage": {}
            }
        },
        "transaction": {
            "nonce": "0x00",
            "gasPrice": "0x0a",
            "gasLimit": [
                "0x0186a0"
            ],
            "to": "0x345d2ba6f9ae683cffdadae62e16c81165c6bb6e",
            "value": [
                "0x51af41e7"
            ],
            "data": [
                "0x7ffffffffffffffffffffffffffffffffffffffffffffffffffffffffffffffffe7fffffffffffffffffffffffffffffffffffffffffffffffffffffffffffffffff7fffffffffffffffffffffffffffffffffffffffffffffffffffffffffffffffff417f00000000000000000000000100000000000000000000000000000000000000007f000000000000000000000000345d2ba6f9ae683cffdadae62e16c81165c6ba6e6f38129d68939a19a2697172926f6a673630"
            ],
            "sender": "0xee881eed2dd777ab8f7884be2fa9f3950bc5c550",
            "secretKey": "0x00e506b7c97dbb0079db63d4345d2ba6f9ae683cffdadae62e16c81165c6ba6e"
        },
        "post": {
            "Prague": [
                {
                    "hash": "0xaf0c457ae3b13b5bdb40f3900da997496de9952d4be2c8a51a53cf0516c128c9",
                    "logs": "0x1dcc4de8dec75d7aab85b567b6ccd41ad312451b948a7413f0a142fd40d49347",
                    "txbytes": "0xf9011d800a830186a094345d2ba6f9ae683cffdadae62e16c81165c6bb6e8451af41e7b8b87ffffffffffffffffffffffffffffffffffffffffffffffffffffffffffffffffe7fffffffffffffffffffffffffffffffffffffffffffffffffffffffffffffffff7fffffffffffffffffffffffffffffffffffffffffffffffffffffffffffffffff417f00000000000000000000000100000000000000000000000000000000000000007f000000000000000000000000345d2ba6f9ae683cffdadae62e16c81165c6ba6e6f38129d68939a19a2697172926f6a67363025a07cd25561739e0700e865ac53dc2ea9fe8f6086d2c651119f09d8762f55486217a0082f5948938edc79da388273aadb9e1db6c0bb033167c974b66ac5fb7a003eaa",
                    "indexes": {
                        "data": 0,
                        "gas": 0,
                        "value": 0
                    },
                    "state": {
                        "0xee881eed2dd777ab8f7884be2fa9f3950bc5c550": {
                            "nonce": "0x01",
                            "balance": "0x0de0b6b355adcacd",
                            "code": "0x",
                            "storage": {}
                        },
                        "0x345d2ba6f9ae683cffdadae62e16c81165c6ba6e": {
                            "nonce": "0x00",
                            "balance": "0x2e",
                            "code": "0x6000355415600957005b60203560003555",
                            "storage": {}
                        },
                        "0x345d2ba6f9ae683cffdadae62e16c81165c6bb6e": {
                            "nonce": "0x00",
                            "balance": "0x51af41e7",
                            "code": "0x7ffffffffffffffffffffffffffffffffffffffffffffffffffffffffffffffffe7fffffffffffffffffffffffffffffffffffffffffffffffffffffffffffffffff7fffffffffffffffffffffffffffffffffffffffffffffffffffffffffffffffff417f00000000000000000000000100000000000000000000000000000000000000007f000000000000000000000000345d2ba6f9ae683cffdadae62e16c81165c6ba6e6f38129d68939a19a2697172926f6a67363055",
                            "storage": {
                                "0x345d2ba6f9ae683cffdadae62e16c81165c6bb6e": "0x38129d68939a19a2697172926f6a6736"
                            }
                        }
                    }
                }
            ]
        },
        "config": {
            "blobSchedule": {
                "Cancun": {
                    "target": "0x03",
                    "max": "0x06",
                    "baseFeeUpdateFraction": "0x32f0ed"
                },
                "Prague": {
                    "target": "0x06",
                    "max": "0x09",
                    "baseFeeUpdateFraction": "0x4c6964"
                }
            },
            "chainid": "0x01"
        },
        "_info": {
            "hash": "0x6c2655752a291ff755be08a23682d01fbaca52e0d86e665639c98a947026cca4",
            "comment": "`execution-spec-tests` generated test",
            "filling-transition-tool": "ethereum-spec-evm-resolver 0.0.5",
            "description": "No description available - add a docstring to the python test class or function.",
            "url": "",
            "fixture-format": "state_test",
            "eels-resolution": {
                "git-url": "https://github.com/marioevz/execution-specs.git",
                "branch": "forks/bpo1",
                "commit": "3387e5f4aedfe99becfdc39b444d6371e25e0924"
            }
        }
    }
}