{
    "tests/static/state_tests/stRandom/randomStatetest129Filler.json::randomStatetest129[fork_Cancun-state_test-]": {
        "env": {
            "currentCoinbase": "0xf2e75870e77c673acd5ee2dba030b49b4de3d96f",
            "currentGasLimit": "0x7fffffffffffffff",
            "currentNumber": "0x01",
            "currentTimestamp": "0x03e8",
            "currentRandom": "0x0000000000000000000000000000000000000000000000000000000000020000",
            "currentDifficulty": "0x00",
            "currentBaseFee": "0x0a",
            "currentExcessBlobGas": "0x00"
        },
        "pre": {
            "0xc6b98eb662ec5175a07419962623bf085c810fff": {
                "nonce": "0x00",
                "balance": "0x0de0b6b3a7640000",
                "code": "0x",
                "storage": {}
            },
            "0xf2e75870e77c673acd5ee2dba030b49b4de3d96f": {
                "nonce": "0x00",
                "balance": "0x2e",
                "code": "0x6000355415600957005b60203560003555",
                "storage": {}
            },
            "0xf2e75870e77c673acd5ee2dba030b49b4de3da6f": {
                "nonce": "0x00",
                "balance": "0x00",
                "code": "0x7f00000000000000000000000000000000000000000000000000000000000000017f00000000000000000000000100000000000000000000000000000000000000007f00000000000000000000000000000000000000000000000000000000000000017f00000000000000000000000100000000000000000000000000000000000000007f000000000000000000000000000000000000000000000000000000000000c3507f000000000000000000000000f2e75870e77c673acd5ee2dba030b49b4de3d96f7f000000000000000000000000000000000000000000000000000000000000c3507fffffffffffffffffffffffffffffffffffffffffffffffffffffffffffffffff6f166e733343093a31a33b8e025a02705560005155",
                "storage": {}
            }
        },
        "transaction": {
            "nonce": "0x00",
            "gasPrice": "0x0a",
            "gasLimit": [
                "0x0186a0"
            ],
            "to": "0xf2e75870e77c673acd5ee2dba030b49b4de3da6f",
            "value": [
                "0x422cd1cc"
            ],
            "data": [
                "0x7f00000000000000000000000000000000000000000000000000000000000000017f00000000000000000000000100000000000000000000000000000000000000007f00000000000000000000000000000000000000000000000000000000000000017f00000000000000000000000100000000000000000000000000000000000000007f000000000000000000000000000000000000000000000000000000000000c3507f000000000000000000000000f2e75870e77c673acd5ee2dba030b49b4de3d96f7f000000000000000000000000000000000000000000000000000000000000c3507fffffffffffffffffffffffffffffffffffffffffffffffffffffffffffffffff6f166e733343093a31a33b8e025a0270"
            ],
            "sender": "0xc6b98eb662ec5175a07419962623bf085c810fff",
            "secretKey": "0x6e232cd0900fba0afb2b72a1f2e75870e77c673acd5ee2dba030b49b4de3d96f"
        },
        "post": {
            "Cancun": [
                {
                    "hash": "0xdf29a55e04c89f4a947330dc873420ad5ebc996dc991a35492416e896607b5e3",
                    "logs": "0x1dcc4de8dec75d7aab85b567b6ccd41ad312451b948a7413f0a142fd40d49347",
                    "txbytes": "0xf9017d800a830186a094f2e75870e77c673acd5ee2dba030b49b4de3da6f84422cd1ccb901187f00000000000000000000000000000000000000000000000000000000000000017f00000000000000000000000100000000000000000000000000000000000000007f00000000000000000000000000000000000000000000000000000000000000017f00000000000000000000000100000000000000000000000000000000000000007f000000000000000000000000000000000000000000000000000000000000c3507f000000000000000000000000f2e75870e77c673acd5ee2dba030b49b4de3d96f7f000000000000000000000000000000000000000000000000000000000000c3507fffffffffffffffffffffffffffffffffffffffffffffffffffffffffffffffff6f166e733343093a31a33b8e025a027026a076a2d8274b9935efbb8d0d95a5415fe4c1d6f0b3d99533b2f5fccfcfd858e2379fae9d21333fa6c98a2f6b83d3439aa1560d13d19d5eb78434817b54ac1a024f",
                    "indexes": {
                        "data": 0,
                        "gas": 0,
                        "value": 0
                    },
                    "state": {
                        "0xc6b98eb662ec5175a07419962623bf085c810fff": {
                            "nonce": "0x01",
                            "balance": "0x0de0b6b365304614",
                            "code": "0x",
                            "storage": {}
                        },
                        "0xf2e75870e77c673acd5ee2dba030b49b4de3d96f": {
                            "nonce": "0x00",
                            "balance": "0x2e",
                            "code": "0x6000355415600957005b60203560003555",
                            "storage": {}
                        },
                        "0xf2e75870e77c673acd5ee2dba030b49b4de3da6f": {
                            "nonce": "0x00",
                            "balance": "0x422cd1cc",
                            "code": "0x7f00000000000000000000000000000000000000000000000000000000000000017f00000000000000000000000100000000000000000000000000000000000000007f00000000000000000000000000000000000000000000000000000000000000017f00000000000000000000000100000000000000000000000000000000000000007f000000000000000000000000000000000000000000000000000000000000c3507f000000000000000000000000f2e75870e77c673acd5ee2dba030b49b4de3d96f7f000000000000000000000000000000000000000000000000000000000000c3507fffffffffffffffffffffffffffffffffffffffffffffffffffffffffffffffff6f166e733343093a31a33b8e025a02705560005155",
                            "storage": {
                                "0x00": "0x166e733343093a31a33b8e025a027055"
                            }
                        }
                    }
                }
            ]
        },
        "config": {
            "blobSchedule": {
                "Cancun": {
                    "target": "0x03",
                    "max": "0x06",
                    "baseFeeUpdateFraction": "0x32f0ed"
                }
            },
            "chainid": "0x01"
        },
        "_info": {
            "hash": "0xf68d2472bfe79ca2d2db3da8fd905bf94750baedf206155fb993e2a3f8430270",
            "comment": "`execution-specs` generated test",
            "filling-transition-tool": "2.18.0rc6",
            "description": "No description available - add a docstring to the python test class or function.",
            "url": "",
            "fixture-format": "state_test"
        }
    },
    "tests/static/state_tests/stRandom/randomStatetest129Filler.json::randomStatetest129[fork_Osaka-state_test-]": {
        "env": {
            "currentCoinbase": "0xf2e75870e77c673acd5ee2dba030b49b4de3d96f",
            "currentGasLimit": "0x7fffffffffffffff",
            "currentNumber": "0x01",
            "currentTimestamp": "0x03e8",
            "currentRandom": "0x0000000000000000000000000000000000000000000000000000000000020000",
            "currentDifficulty": "0x00",
            "currentBaseFee": "0x0a",
            "currentExcessBlobGas": "0x00"
        },
        "pre": {
            "0xc6b98eb662ec5175a07419962623bf085c810fff": {
                "nonce": "0x00",
                "balance": "0x0de0b6b3a7640000",
                "code": "0x",
                "storage": {}
            },
            "0xf2e75870e77c673acd5ee2dba030b49b4de3d96f": {
                "nonce": "0x00",
                "balance": "0x2e",
                "code": "0x6000355415600957005b60203560003555",
                "storage": {}
            },
            "0xf2e75870e77c673acd5ee2dba030b49b4de3da6f": {
                "nonce": "0x00",
                "balance": "0x00",
                "code": "0x7f00000000000000000000000000000000000000000000000000000000000000017f00000000000000000000000100000000000000000000000000000000000000007f00000000000000000000000000000000000000000000000000000000000000017f00000000000000000000000100000000000000000000000000000000000000007f000000000000000000000000000000000000000000000000000000000000c3507f000000000000000000000000f2e75870e77c673acd5ee2dba030b49b4de3d96f7f000000000000000000000000000000000000000000000000000000000000c3507fffffffffffffffffffffffffffffffffffffffffffffffffffffffffffffffff6f166e733343093a31a33b8e025a02705560005155",
                "storage": {}
            }
        },
        "transaction": {
            "nonce": "0x00",
            "gasPrice": "0x0a",
            "gasLimit": [
                "0x0186a0"
            ],
            "to": "0xf2e75870e77c673acd5ee2dba030b49b4de3da6f",
            "value": [
                "0x422cd1cc"
            ],
            "data": [
                "0x7f00000000000000000000000000000000000000000000000000000000000000017f00000000000000000000000100000000000000000000000000000000000000007f00000000000000000000000000000000000000000000000000000000000000017f00000000000000000000000100000000000000000000000000000000000000007f000000000000000000000000000000000000000000000000000000000000c3507f000000000000000000000000f2e75870e77c673acd5ee2dba030b49b4de3d96f7f000000000000000000000000000000000000000000000000000000000000c3507fffffffffffffffffffffffffffffffffffffffffffffffffffffffffffffffff6f166e733343093a31a33b8e025a0270"
            ],
            "sender": "0xc6b98eb662ec5175a07419962623bf085c810fff",
            "secretKey": "0x6e232cd0900fba0afb2b72a1f2e75870e77c673acd5ee2dba030b49b4de3d96f"
        },
        "post": {
            "Osaka": [
                {
                    "hash": "0xdf29a55e04c89f4a947330dc873420ad5ebc996dc991a35492416e896607b5e3",
                    "logs": "0x1dcc4de8dec75d7aab85b567b6ccd41ad312451b948a7413f0a142fd40d49347",
                    "txbytes": "0xf9017d800a830186a094f2e75870e77c673acd5ee2dba030b49b4de3da6f84422cd1ccb901187f00000000000000000000000000000000000000000000000000000000000000017f00000000000000000000000100000000000000000000000000000000000000007f00000000000000000000000000000000000000000000000000000000000000017f00000000000000000000000100000000000000000000000000000000000000007f000000000000000000000000000000000000000000000000000000000000c3507f000000000000000000000000f2e75870e77c673acd5ee2dba030b49b4de3d96f7f000000000000000000000000000000000000000000000000000000000000c3507fffffffffffffffffffffffffffffffffffffffffffffffffffffffffffffffff6f166e733343093a31a33b8e025a027026a076a2d8274b9935efbb8d0d95a5415fe4c1d6f0b3d99533b2f5fccfcfd858e2379fae9d21333fa6c98a2f6b83d3439aa1560d13d19d5eb78434817b54ac1a024f",
                    "indexes": {
                        "data": 0,
                        "gas": 0,
                        "value": 0
                    },
                    "state": {
                        "0xc6b98eb662ec5175a07419962623bf085c810fff": {
                            "nonce": "0x01",
                            "balance": "0x0de0b6b365304614",
                            "code": "0x",
                            "storage": {}
                        },
                        "0xf2e75870e77c673acd5ee2dba030b49b4de3d96f": {
                            "nonce": "0x00",
                            "balance": "0x2e",
                            "code": "0x6000355415600957005b60203560003555",
                            "storage": {}
                        },
                        "0xf2e75870e77c673acd5ee2dba030b49b4de3da6f": {
                            "nonce": "0x00",
                            "balance": "0x422cd1cc",
                            "code": "0x7f00000000000000000000000000000000000000000000000000000000000000017f00000000000000000000000100000000000000000000000000000000000000007f00000000000000000000000000000000000000000000000000000000000000017f00000000000000000000000100000000000000000000000000000000000000007f000000000000000000000000000000000000000000000000000000000000c3507f000000000000000000000000f2e75870e77c673acd5ee2dba030b49b4de3d96f7f000000000000000000000000000000000000000000000000000000000000c3507fffffffffffffffffffffffffffffffffffffffffffffffffffffffffffffffff6f166e733343093a31a33b8e025a02705560005155",
                            "storage": {
                                "0x00": "0x166e733343093a31a33b8e025a027055"
                            }
                        }
                    }
                }
            ]
        },
        "config": {
            "blobSchedule": {
                "Cancun": {
                    "target": "0x03",
                    "max": "0x06",
                    "baseFeeUpdateFraction": "0x32f0ed"
                },
                "Prague": {
                    "target": "0x06",
                    "max": "0x09",
                    "baseFeeUpdateFraction": "0x4c6964"
                },
                "Osaka": {
                    "target": "0x06",
                    "max": "0x09",
                    "baseFeeUpdateFraction": "0x4c6964"
                }
            },
            "chainid": "0x01"
        },
        "_info": {
            "hash": "0xdea7816c653deb68864bde7bad7ab60ecaaac146ef5dd4d99b0bcafbf949e8fb",
            "comment": "`execution-specs` generated test",
            "filling-transition-tool": "2.18.0rc6",
            "description": "No description available - add a docstring to the python test class or function.",
            "url": "",
            "fixture-format": "state_test"
        }
    },
    "tests/static/state_tests/stRandom/randomStatetest129Filler.json::randomStatetest129[fork_Prague-state_test-]": {
        "env": {
            "currentCoinbase": "0xf2e75870e77c673acd5ee2dba030b49b4de3d96f",
            "currentGasLimit": "0x7fffffffffffffff",
            "currentNumber": "0x01",
            "currentTimestamp": "0x03e8",
            "currentRandom": "0x0000000000000000000000000000000000000000000000000000000000020000",
            "currentDifficulty": "0x00",
            "currentBaseFee": "0x0a",
            "currentExcessBlobGas": "0x00"
        },
        "pre": {
            "0xc6b98eb662ec5175a07419962623bf085c810fff": {
                "nonce": "0x00",
                "balance": "0x0de0b6b3a7640000",
                "code": "0x",
                "storage": {}
            },
            "0xf2e75870e77c673acd5ee2dba030b49b4de3d96f": {
                "nonce": "0x00",
                "balance": "0x2e",
                "code": "0x6000355415600957005b60203560003555",
                "storage": {}
            },
            "0xf2e75870e77c673acd5ee2dba030b49b4de3da6f": {
                "nonce": "0x00",
                "balance": "0x00",
                "code": "0x7f00000000000000000000000000000000000000000000000000000000000000017f00000000000000000000000100000000000000000000000000000000000000007f00000000000000000000000000000000000000000000000000000000000000017f00000000000000000000000100000000000000000000000000000000000000007f000000000000000000000000000000000000000000000000000000000000c3507f000000000000000000000000f2e75870e77c673acd5ee2dba030b49b4de3d96f7f000000000000000000000000000000000000000000000000000000000000c3507fffffffffffffffffffffffffffffffffffffffffffffffffffffffffffffffff6f166e733343093a31a33b8e025a02705560005155",
                "storage": {}
            }
        },
        "transaction": {
            "nonce": "0x00",
            "gasPrice": "0x0a",
            "gasLimit": [
                "0x0186a0"
            ],
            "to": "0xf2e75870e77c673acd5ee2dba030b49b4de3da6f",
            "value": [
                "0x422cd1cc"
            ],
            "data": [
                "0x7f00000000000000000000000000000000000000000000000000000000000000017f00000000000000000000000100000000000000000000000000000000000000007f00000000000000000000000000000000000000000000000000000000000000017f00000000000000000000000100000000000000000000000000000000000000007f000000000000000000000000000000000000000000000000000000000000c3507f000000000000000000000000f2e75870e77c673acd5ee2dba030b49b4de3d96f7f000000000000000000000000000000000000000000000000000000000000c3507fffffffffffffffffffffffffffffffffffffffffffffffffffffffffffffffff6f166e733343093a31a33b8e025a0270"
            ],
            "sender": "0xc6b98eb662ec5175a07419962623bf085c810fff",
            "secretKey": "0x6e232cd0900fba0afb2b72a1f2e75870e77c673acd5ee2dba030b49b4de3d96f"
        },
        "post": {
            "Prague": [
                {
                    "hash": "0xdf29a55e04c89f4a947330dc873420ad5ebc996dc991a35492416e896607b5e3",
                    "logs": "0x1dcc4de8dec75d7aab85b567b6ccd41ad312451b948a7413f0a142fd40d49347",
                    "txbytes": "0xf9017d800a830186a094f2e75870e77c673acd5ee2dba030b49b4de3da6f84422cd1ccb901187f00000000000000000000000000000000000000000000000000000000000000017f00000000000000000000000100000000000000000000000000000000000000007f00000000000000000000000000000000000000000000000000000000000000017f00000000000000000000000100000000000000000000000000000000000000007f000000000000000000000000000000000000000000000000000000000000c3507f000000000000000000000000f2e75870e77c673acd5ee2dba030b49b4de3d96f7f000000000000000000000000000000000000000000000000000000000000c3507fffffffffffffffffffffffffffffffffffffffffffffffffffffffffffffffff6f166e733343093a31a33b8e025a027026a076a2d8274b9935efbb8d0d95a5415fe4c1d6f0b3d99533b2f5fccfcfd858e2379fae9d21333fa6c98a2f6b83d3439aa1560d13d19d5eb78434817b54ac1a024f",
                    "indexes": {
                        "data": 0,
                        "gas": 0,
                        "value": 0
                    },
                    "state": {
                        "0xc6b98eb662ec5175a07419962623bf085c810fff": {
                            "nonce": "0x01",
                            "balance": "0x0de0b6b365304614",
                            "code": "0x",
                            "storage": {}
                        },
                        "0xf2e75870e77c673acd5ee2dba030b49b4de3d96f": {
                            "nonce": "0x00",
                            "balance": "0x2e",
                            "code": "0x6000355415600957005b60203560003555",
                            "storage": {}
                        },
                        "0xf2e75870e77c673acd5ee2dba030b49b4de3da6f": {
                            "nonce": "0x00",
                            "balance": "0x422cd1cc",
                            "code": "0x7f00000000000000000000000000000000000000000000000000000000000000017f00000000000000000000000100000000000000000000000000000000000000007f00000000000000000000000000000000000000000000000000000000000000017f00000000000000000000000100000000000000000000000000000000000000007f000000000000000000000000000000000000000000000000000000000000c3507f000000000000000000000000f2e75870e77c673acd5ee2dba030b49b4de3d96f7f000000000000000000000000000000000000000000000000000000000000c3507fffffffffffffffffffffffffffffffffffffffffffffffffffffffffffffffff6f166e733343093a31a33b8e025a02705560005155",
                            "storage": {
                                "0x00": "0x166e733343093a31a33b8e025a027055"
                            }
                        }
                    }
                }
            ]
        },
        "config": {
            "blobSchedule": {
                "Cancun": {
                    "target": "0x03",
                    "max": "0x06",
                    "baseFeeUpdateFraction": "0x32f0ed"
                },
                "Prague": {
                    "target": "0x06",
                    "max": "0x09",
                    "baseFeeUpdateFraction": "0x4c6964"
                }
            },
            "chainid": "0x01"
        },
        "_info": {
            "hash": "0xfbb63ffb105f308fdce36af4a3e6c1c979da1ac45f3701ffd752354ab7b4b33d",
            "comment": "`execution-specs` generated test",
            "filling-transition-tool": "2.18.0rc6",
            "description": "No description available - add a docstring to the python test class or function.",
            "url": "",
            "fixture-format": "state_test"
        }
    }
}