{
    "tests/static/state_tests/stRandom/randomStatetest232Filler.json::randomStatetest232[fork_Cancun-state_test-]": {
        "env": {
            "currentCoinbase": "0x72b9d26d2eee36cab112c304a90471718b935200",
            "currentGasLimit": "0x7fffffffffffffff",
            "currentNumber": "0x01",
            "currentTimestamp": "0x03e8",
            "currentRandom": "0x0000000000000000000000000000000000000000000000000000000000020000",
            "currentDifficulty": "0x00",
            "currentBaseFee": "0x0a",
            "currentExcessBlobGas": "0x00"
        },
        "pre": {
            "0x19d7e8f44c5a7350e444ebd06531f866c2b354ed": {
                "nonce": "0x00",
                "balance": "0x0de0b6b3a7640000",
                "code": "0x",
                "storage": {}
            },
            "0x72b9d26d2eee36cab112c304a90471718b935200": {
                "nonce": "0x00",
                "balance": "0x2e",
                "code": "0x6000355415600957005b60203560003555",
                "storage": {}
            },
            "0x72b9d26d2eee36cab112c304a90471718b935300": {
                "nonce": "0x00",
                "balance": "0x00",
                "code": "0x7f00000000000000000000000072b9d26d2eee36cab112c304a90471718b9352007f000000000000000000000000ffffffffffffffffffffffffffffffffffffffff7fffffffffffffffffffffffffffffffffffffffffffffffffffffffffffffffff7ffffffffffffffffffffffffffffffffffffffffffffffffffffffffffffffffe7fffffffffffffffffffffffffffffffffffffffffffffffffffffffffffffffff0945415883ff9d7760005155",
                "storage": {}
            }
        },
        "transaction": {
            "nonce": "0x00",
            "gasPrice": "0x0a",
            "gasLimit": [
                "0x0186a0"
            ],
            "to": "0x72b9d26d2eee36cab112c304a90471718b935300",
            "value": [
                "0x7e7bbe03"
            ],
            "data": [
                "0x7f00000000000000000000000072b9d26d2eee36cab112c304a90471718b9352007f000000000000000000000000ffffffffffffffffffffffffffffffffffffffff7fffffffffffffffffffffffffffffffffffffffffffffffffffffffffffffffff7ffffffffffffffffffffffffffffffffffffffffffffffffffffffffffffffffe7fffffffffffffffffffffffffffffffffffffffffffffffffffffffffffffffff0945415883ff9d77"
            ],
            "sender": "0x19d7e8f44c5a7350e444ebd06531f866c2b354ed",
            "secretKey": "0x10af9a84d40f2bba9ff498af72b9d26d2eee36cab112c304a90471718b935200"
        },
        "post": {
            "Cancun": [
                {
                    "hash": "0xc4ac1308943ea4c932eda4d5cb88239f9823f71429ea3cf537a3b33bc3d50836",
                    "logs": "0x1dcc4de8dec75d7aab85b567b6ccd41ad312451b948a7413f0a142fd40d49347",
                    "txbytes": "0xf90112800a830186a09472b9d26d2eee36cab112c304a90471718b935300847e7bbe03b8ad7f00000000000000000000000072b9d26d2eee36cab112c304a90471718b9352007f000000000000000000000000ffffffffffffffffffffffffffffffffffffffff7fffffffffffffffffffffffffffffffffffffffffffffffffffffffffffffffff7ffffffffffffffffffffffffffffffffffffffffffffffffffffffffffffffffe7fffffffffffffffffffffffffffffffffffffffffffffffffffffffffffffffff0945415883ff9d7726a016471d85382a7abca18a2690b36e1ee721a19f4f0c7ee46cc5d9279c21af9f0fa02b2b0cc9702e5675e0bc7c006821b9bc6dbda4aa9ab56685e9cbc7d6ebddae38",
                    "indexes": {
                        "data": 0,
                        "gas": 0,
                        "value": 0
                    },
                    "state": {
                        "0x19d7e8f44c5a7350e444ebd06531f866c2b354ed": {
                            "nonce": "0x01",
                            "balance": "0x0de0b6b328dfb295",
                            "code": "0x",
                            "storage": {}
                        },
                        "0x72b9d26d2eee36cab112c304a90471718b935200": {
                            "nonce": "0x00",
                            "balance": "0x2e",
                            "code": "0x6000355415600957005b60203560003555",
                            "storage": {}
                        },
                        "0x72b9d26d2eee36cab112c304a90471718b935300": {
                            "nonce": "0x00",
                            "balance": "0x00",
                            "code": "0x7f00000000000000000000000072b9d26d2eee36cab112c304a90471718b9352007f000000000000000000000000ffffffffffffffffffffffffffffffffffffffff7fffffffffffffffffffffffffffffffffffffffffffffffffffffffffffffffff7ffffffffffffffffffffffffffffffffffffffffffffffffffffffffffffffffe7fffffffffffffffffffffffffffffffffffffffffffffffffffffffffffffffff0945415883ff9d7760005155",
                            "storage": {}
                        },
                        "0x0000000000000000000000000000000000000000": {
                            "nonce": "0x00",
                            "balance": "0x7e7bbe03",
                            "code": "0x",
                            "storage": {}
                        }
                    }
                }
            ]
        },
        "config": {
            "blobSchedule": {
                "Cancun": {
                    "target": "0x03",
                    "max": "0x06",
                    "baseFeeUpdateFraction": "0x32f0ed"
                }
            },
            "chainid": "0x01"
        },
        "_info": {
            "hash": "0x07582ff0141f78fe173061a42675e7ca5f2120b99b65313bd1b2ade0994afa6a",
            "comment": "`execution-spec-tests` generated test",
            "filling-transition-tool": "ethereum-spec-evm-resolver 0.0.5",
            "description": "No description available - add a docstring to the python test class or function.",
            "url": "",
            "fixture-format": "state_test",
            "eels-resolution": {
                "git-url": "https://github.com/marioevz/execution-specs.git",
                "branch": "forks/bpo1",
                "commit": "3387e5f4aedfe99becfdc39b444d6371e25e0924"
            }
        }
    },
    "tests/static/state_tests/stRandom/randomStatetest232Filler.json::randomStatetest232[fork_Osaka-state_test-]": {
        "env": {
            "currentCoinbase": "0x72b9d26d2eee36cab112c304a90471718b935200",
            "currentGasLimit": "0x7fffffffffffffff",
            "currentNumber": "0x01",
            "currentTimestamp": "0x03e8",
            "currentRandom": "0x0000000000000000000000000000000000000000000000000000000000020000",
            "currentDifficulty": "0x00",
            "currentBaseFee": "0x0a",
            "currentExcessBlobGas": "0x00"
        },
        "pre": {
            "0x19d7e8f44c5a7350e444ebd06531f866c2b354ed": {
                "nonce": "0x00",
                "balance": "0x0de0b6b3a7640000",
                "code": "0x",
                "storage": {}
            },
            "0x72b9d26d2eee36cab112c304a90471718b935200": {
                "nonce": "0x00",
                "balance": "0x2e",
                "code": "0x6000355415600957005b60203560003555",
                "storage": {}
            },
            "0x72b9d26d2eee36cab112c304a90471718b935300": {
                "nonce": "0x00",
                "balance": "0x00",
                "code": "0x7f00000000000000000000000072b9d26d2eee36cab112c304a90471718b9352007f000000000000000000000000ffffffffffffffffffffffffffffffffffffffff7fffffffffffffffffffffffffffffffffffffffffffffffffffffffffffffffff7ffffffffffffffffffffffffffffffffffffffffffffffffffffffffffffffffe7fffffffffffffffffffffffffffffffffffffffffffffffffffffffffffffffff0945415883ff9d7760005155",
                "storage": {}
            }
        },
        "transaction": {
            "nonce": "0x00",
            "gasPrice": "0x0a",
            "gasLimit": [
                "0x0186a0"
            ],
            "to": "0x72b9d26d2eee36cab112c304a90471718b935300",
            "value": [
                "0x7e7bbe03"
            ],
            "data": [
                "0x7f00000000000000000000000072b9d26d2eee36cab112c304a90471718b9352007f000000000000000000000000ffffffffffffffffffffffffffffffffffffffff7fffffffffffffffffffffffffffffffffffffffffffffffffffffffffffffffff7ffffffffffffffffffffffffffffffffffffffffffffffffffffffffffffffffe7fffffffffffffffffffffffffffffffffffffffffffffffffffffffffffffffff0945415883ff9d77"
            ],
            "sender": "0x19d7e8f44c5a7350e444ebd06531f866c2b354ed",
            "secretKey": "0x10af9a84d40f2bba9ff498af72b9d26d2eee36cab112c304a90471718b935200"
        },
        "post": {
            "Osaka": [
                {
                    "hash": "0xc4ac1308943ea4c932eda4d5cb88239f9823f71429ea3cf537a3b33bc3d50836",
                    "logs": "0x1dcc4de8dec75d7aab85b567b6ccd41ad312451b948a7413f0a142fd40d49347",
                    "txbytes": "0xf90112800a830186a09472b9d26d2eee36cab112c304a90471718b935300847e7bbe03b8ad7f00000000000000000000000072b9d26d2eee36cab112c304a90471718b9352007f000000000000000000000000ffffffffffffffffffffffffffffffffffffffff7fffffffffffffffffffffffffffffffffffffffffffffffffffffffffffffffff7ffffffffffffffffffffffffffffffffffffffffffffffffffffffffffffffffe7fffffffffffffffffffffffffffffffffffffffffffffffffffffffffffffffff0945415883ff9d7726a016471d85382a7abca18a2690b36e1ee721a19f4f0c7ee46cc5d9279c21af9f0fa02b2b0cc9702e5675e0bc7c006821b9bc6dbda4aa9ab56685e9cbc7d6ebddae38",
                    "indexes": {
                        "data": 0,
                        "gas": 0,
                        "value": 0
                    },
                    "state": {
                        "0x19d7e8f44c5a7350e444ebd06531f866c2b354ed": {
                            "nonce": "0x01",
                            "balance": "0x0de0b6b328dfb295",
                            "code": "0x",
                            "storage": {}
                        },
                        "0x72b9d26d2eee36cab112c304a90471718b935200": {
                            "nonce": "0x00",
                            "balance": "0x2e",
                            "code": "0x6000355415600957005b60203560003555",
                            "storage": {}
                        },
                        "0x72b9d26d2eee36cab112c304a90471718b935300": {
                            "nonce": "0x00",
                            "balance": "0x00",
                            "code": "0x7f00000000000000000000000072b9d26d2eee36cab112c304a90471718b9352007f000000000000000000000000ffffffffffffffffffffffffffffffffffffffff7fffffffffffffffffffffffffffffffffffffffffffffffffffffffffffffffff7ffffffffffffffffffffffffffffffffffffffffffffffffffffffffffffffffe7fffffffffffffffffffffffffffffffffffffffffffffffffffffffffffffffff0945415883ff9d7760005155",
                            "storage": {}
                        },
                        "0x0000000000000000000000000000000000000000": {
                            "nonce": "0x00",
                            "balance": "0x7e7bbe03",
                            "code": "0x",
                            "storage": {}
                        }
                    }
                }
            ]
        },
        "config": {
            "blobSchedule": {
                "Cancun": {
                    "target": "0x03",
                    "max": "0x06",
                    "baseFeeUpdateFraction": "0x32f0ed"
                },
                "Prague": {
                    "target": "0x06",
                    "max": "0x09",
                    "baseFeeUpdateFraction": "0x4c6964"
                },
                "Osaka": {
                    "target": "0x06",
                    "max": "0x09",
                    "baseFeeUpdateFraction": "0x4c6964"
                }
            },
            "chainid": "0x01"
        },
        "_info": {
            "hash": "0x1f4be8782da9de487a8ee3e81250898f6232e85d3bf8a49f1a465f3d59c44ea6",
            "comment": "`execution-spec-tests` generated test",
            "filling-transition-tool": "ethereum-spec-evm-resolver 0.0.5",
            "description": "No description available - add a docstring to the python test class or function.",
            "url": "",
            "fixture-format": "state_test",
            "eels-resolution": {
                "git-url": "https://github.com/marioevz/execution-specs.git",
                "branch": "forks/bpo1",
                "commit": "3387e5f4aedfe99becfdc39b444d6371e25e0924"
            }
        }
    },
    "tests/static/state_tests/stRandom/randomStatetest232Filler.json::randomStatetest232[fork_Prague-state_test-]": {
        "env": {
            "currentCoinbase": "0x72b9d26d2eee36cab112c304a90471718b935200",
            "currentGasLimit": "0x7fffffffffffffff",
            "currentNumber": "0x01",
            "currentTimestamp": "0x03e8",
            "currentRandom": "0x0000000000000000000000000000000000000000000000000000000000020000",
            "currentDifficulty": "0x00",
            "currentBaseFee": "0x0a",
            "currentExcessBlobGas": "0x00"
        },
        "pre": {
            "0x19d7e8f44c5a7350e444ebd06531f866c2b354ed": {
                "nonce": "0x00",
                "balance": "0x0de0b6b3a7640000",
                "code": "0x",
                "storage": {}
            },
            "0x72b9d26d2eee36cab112c304a90471718b935200": {
                "nonce": "0x00",
                "balance": "0x2e",
                "code": "0x6000355415600957005b60203560003555",
                "storage": {}
            },
            "0x72b9d26d2eee36cab112c304a90471718b935300": {
                "nonce": "0x00",
                "balance": "0x00",
                "code": "0x7f00000000000000000000000072b9d26d2eee36cab112c304a90471718b9352007f000000000000000000000000ffffffffffffffffffffffffffffffffffffffff7fffffffffffffffffffffffffffffffffffffffffffffffffffffffffffffffff7ffffffffffffffffffffffffffffffffffffffffffffffffffffffffffffffffe7fffffffffffffffffffffffffffffffffffffffffffffffffffffffffffffffff0945415883ff9d7760005155",
                "storage": {}
            }
        },
        "transaction": {
            "nonce": "0x00",
            "gasPrice": "0x0a",
            "gasLimit": [
                "0x0186a0"
            ],
            "to": "0x72b9d26d2eee36cab112c304a90471718b935300",
            "value": [
                "0x7e7bbe03"
            ],
            "data": [
                "0x7f00000000000000000000000072b9d26d2eee36cab112c304a90471718b9352007f000000000000000000000000ffffffffffffffffffffffffffffffffffffffff7fffffffffffffffffffffffffffffffffffffffffffffffffffffffffffffffff7ffffffffffffffffffffffffffffffffffffffffffffffffffffffffffffffffe7fffffffffffffffffffffffffffffffffffffffffffffffffffffffffffffffff0945415883ff9d77"
            ],
            "sender": "0x19d7e8f44c5a7350e444ebd06531f866c2b354ed",
            "secretKey": "0x10af9a84d40f2bba9ff498af72b9d26d2eee36cab112c304a90471718b935200"
        },
        "post": {
            "Prague": [
                {
                    "hash": "0xc4ac1308943ea4c932eda4d5cb88239f9823f71429ea3cf537a3b33bc3d50836",
                    "logs": "0x1dcc4de8dec75d7aab85b567b6ccd41ad312451b948a7413f0a142fd40d49347",
                    "txbytes": "0xf90112800a830186a09472b9d26d2eee36cab112c304a90471718b935300847e7bbe03b8ad7f00000000000000000000000072b9d26d2eee36cab112c304a90471718b9352007f000000000000000000000000ffffffffffffffffffffffffffffffffffffffff7fffffffffffffffffffffffffffffffffffffffffffffffffffffffffffffffff7ffffffffffffffffffffffffffffffffffffffffffffffffffffffffffffffffe7fffffffffffffffffffffffffffffffffffffffffffffffffffffffffffffffff0945415883ff9d7726a016471d85382a7abca18a2690b36e1ee721a19f4f0c7ee46cc5d9279c21af9f0fa02b2b0cc9702e5675e0bc7c006821b9bc6dbda4aa9ab56685e9cbc7d6ebddae38",
                    "indexes": {
                        "data": 0,
                        "gas": 0,
                        "value": 0
                    },
                    "state": {
                        "0x19d7e8f44c5a7350e444ebd06531f866c2b354ed": {
                            "nonce": "0x01",
                            "balance": "0x0de0b6b328dfb295",
                            "code": "0x",
                            "storage": {}
                        },
                        "0x72b9d26d2eee36cab112c304a90471718b935200": {
                            "nonce": "0x00",
                            "balance": "0x2e",
                            "code": "0x6000355415600957005b60203560003555",
                            "storage": {}
                        },
                        "0x72b9d26d2eee36cab112c304a90471718b935300": {
                            "nonce": "0x00",
                            "balance": "0x00",
                            "code": "0x7f00000000000000000000000072b9d26d2eee36cab112c304a90471718b9352007f000000000000000000000000ffffffffffffffffffffffffffffffffffffffff7fffffffffffffffffffffffffffffffffffffffffffffffffffffffffffffffff7ffffffffffffffffffffffffffffffffffffffffffffffffffffffffffffffffe7fffffffffffffffffffffffffffffffffffffffffffffffffffffffffffffffff0945415883ff9d7760005155",
                            "storage": {}
                        },
                        "0x0000000000000000000000000000000000000000": {
                            "nonce": "0x00",
                            "balance": "0x7e7bbe03",
                            "code": "0x",
                            "storage": {}
                        }
                    }
                }
            ]
        },
        "config": {
            "blobSchedule": {
                "Cancun": {
                    "target": "0x03",
                    "max": "0x06",
                    "baseFeeUpdateFraction": "0x32f0ed"
                },
                "Prague": {
                    "target": "0x06",
                    "max": "0x09",
                    "baseFeeUpdateFraction": "0x4c6964"
                }
            },
            "chainid": "0x01"
        },
        "_info": {
            "hash": "0x8d2fa8f1fd127df56d6a8bcb78e0ea78a23858bf24515eeadefc867b08fac108",
            "comment": "`execution-spec-tests` generated test",
            "filling-transition-tool": "ethereum-spec-evm-resolver 0.0.5",
            "description": "No description available - add a docstring to the python test class or function.",
            "url": "",
            "fixture-format": "state_test",
            "eels-resolution": {
                "git-url": "https://github.com/marioevz/execution-specs.git",
                "branch": "forks/bpo1",
                "commit": "3387e5f4aedfe99becfdc39b444d6371e25e0924"
            }
        }
    }
}