{
    "tests/static/state_tests/stRandom/randomStatetest261Filler.json::randomStatetest261[fork_Cancun-state_test-]": {
        "env": {
            "currentCoinbase": "0xafa5fa36343d3e654a70e1dca0152c9cb6cc8608",
            "currentGasLimit": "0x7fffffffffffffff",
            "currentNumber": "0x01",
            "currentTimestamp": "0x03e8",
            "currentRandom": "0x0000000000000000000000000000000000000000000000000000000000020000",
            "currentDifficulty": "0x00",
            "currentBaseFee": "0x0a",
            "currentExcessBlobGas": "0x00"
        },
        "pre": {
            "0x357770288060a3fccd9fca160dcb9d86c16f06a5": {
                "nonce": "0x00",
                "balance": "0x0de0b6b3a7640000",
                "code": "0x",
                "storage": {}
            },
            "0xafa5fa36343d3e654a70e1dca0152c9cb6cc8608": {
                "nonce": "0x00",
                "balance": "0x2e",
                "code": "0x6000355415600957005b60203560003555",
                "storage": {}
            },
            "0xafa5fa36343d3e654a70e1dca0152c9cb6cc8708": {
                "nonce": "0x00",
                "balance": "0x00",
                "code": "0x7f0000000000000000000000000000000000000000000000000000000000000000447fffffffffffffffffffffffffffffffffffffffffffffffffffffffffffffffff7f00000000000000000000000000000000000000000000000000000000000000017f00000000000000000000000000000000000000000000000000000000000000017f00000000000000000000000000000000000000000000000000000000000000007f000000000000000000000000afa5fa36343d3e654a70e1dca0152c9cb6cc86087f00000000000000000000000100000000000000000000000000000000000000001231b61993",
                "storage": {}
            }
        },
        "transaction": {
            "nonce": "0x00",
            "gasPrice": "0x0a",
            "gasLimit": [
                "0x0186a0"
            ],
            "to": "0xafa5fa36343d3e654a70e1dca0152c9cb6cc8708",
            "value": [
                "0x14fb56ac"
            ],
            "data": [
                "0x7f0000000000000000000000000000000000000000000000000000000000000000447fffffffffffffffffffffffffffffffffffffffffffffffffffffffffffffffff7f00000000000000000000000000000000000000000000000000000000000000017f00000000000000000000000000000000000000000000000000000000000000017f00000000000000000000000000000000000000000000000000000000000000007f000000000000000000000000afa5fa36343d3e654a70e1dca0152c9cb6cc86087f00000000000000000000000100000000000000000000000000000000000000001231b61993"
            ],
            "sender": "0x357770288060a3fccd9fca160dcb9d86c16f06a5",
            "secretKey": "0xbd4d0cb8dda321421c636178afa5fa36343d3e654a70e1dca0152c9cb6cc8608"
        },
        "post": {
            "Cancun": [
                {
                    "hash": "0x0099b714883e703f601ded1bdc976bd53b0bc9d05bbe8d0a94a613a5660f3cac",
                    "logs": "0x1dcc4de8dec75d7aab85b567b6ccd41ad312451b948a7413f0a142fd40d49347",
                    "txbytes": "0xf90152800a830186a094afa5fa36343d3e654a70e1dca0152c9cb6cc87088414fb56acb8ed7f0000000000000000000000000000000000000000000000000000000000000000447fffffffffffffffffffffffffffffffffffffffffffffffffffffffffffffffff7f00000000000000000000000000000000000000000000000000000000000000017f00000000000000000000000000000000000000000000000000000000000000017f00000000000000000000000000000000000000000000000000000000000000007f000000000000000000000000afa5fa36343d3e654a70e1dca0152c9cb6cc86087f00000000000000000000000100000000000000000000000000000000000000001231b6199325a04bae605232c33b467ab037466a09c0ede75c5416fe2fcca79b9982bdbda085dca0436bf6a5c84d699c4fd3982526c81687097b4608ed25ef63c800ab477823b69b",
                    "indexes": {
                        "data": 0,
                        "gas": 0,
                        "value": 0
                    },
                    "state": {
                        "0x357770288060a3fccd9fca160dcb9d86c16f06a5": {
                            "nonce": "0x01",
                            "balance": "0x0de0b6b3a754bdc0",
                            "code": "0x",
                            "storage": {}
                        },
                        "0xafa5fa36343d3e654a70e1dca0152c9cb6cc8608": {
                            "nonce": "0x00",
                            "balance": "0x2e",
                            "code": "0x6000355415600957005b60203560003555",
                            "storage": {}
                        },
                        "0xafa5fa36343d3e654a70e1dca0152c9cb6cc8708": {
                            "nonce": "0x00",
                            "balance": "0x00",
                            "code": "0x7f0000000000000000000000000000000000000000000000000000000000000000447fffffffffffffffffffffffffffffffffffffffffffffffffffffffffffffffff7f00000000000000000000000000000000000000000000000000000000000000017f00000000000000000000000000000000000000000000000000000000000000017f00000000000000000000000000000000000000000000000000000000000000007f000000000000000000000000afa5fa36343d3e654a70e1dca0152c9cb6cc86087f00000000000000000000000100000000000000000000000000000000000000001231b61993",
                            "storage": {}
                        }
                    }
                }
            ]
        },
        "config": {
            "blobSchedule": {
                "Cancun": {
                    "target": "0x03",
                    "max": "0x06",
                    "baseFeeUpdateFraction": "0x32f0ed"
                }
            },
            "chainid": "0x01"
        },
        "_info": {
            "hash": "0x543955f477b1da9b76f86f8ed344810768c11f243804c4229cbf097a275a5757",
            "comment": "`execution-spec-tests` generated test",
            "filling-transition-tool": "ethereum-spec-evm-resolver 0.0.5",
            "description": "No description available - add a docstring to the python test class or function.",
            "url": "",
            "fixture-format": "state_test",
            "eels-resolution": {
                "git-url": "https://github.com/marioevz/execution-specs.git",
                "branch": "forks/bpo1",
                "commit": "3387e5f4aedfe99becfdc39b444d6371e25e0924"
            }
        }
    },
    "tests/static/state_tests/stRandom/randomStatetest261Filler.json::randomStatetest261[fork_Osaka-state_test-]": {
        "env": {
            "currentCoinbase": "0xafa5fa36343d3e654a70e1dca0152c9cb6cc8608",
            "currentGasLimit": "0x7fffffffffffffff",
            "currentNumber": "0x01",
            "currentTimestamp": "0x03e8",
            "currentRandom": "0x0000000000000000000000000000000000000000000000000000000000020000",
            "currentDifficulty": "0x00",
            "currentBaseFee": "0x0a",
            "currentExcessBlobGas": "0x00"
        },
        "pre": {
            "0x357770288060a3fccd9fca160dcb9d86c16f06a5": {
                "nonce": "0x00",
                "balance": "0x0de0b6b3a7640000",
                "code": "0x",
                "storage": {}
            },
            "0xafa5fa36343d3e654a70e1dca0152c9cb6cc8608": {
                "nonce": "0x00",
                "balance": "0x2e",
                "code": "0x6000355415600957005b60203560003555",
                "storage": {}
            },
            "0xafa5fa36343d3e654a70e1dca0152c9cb6cc8708": {
                "nonce": "0x00",
                "balance": "0x00",
                "code": "0x7f0000000000000000000000000000000000000000000000000000000000000000447fffffffffffffffffffffffffffffffffffffffffffffffffffffffffffffffff7f00000000000000000000000000000000000000000000000000000000000000017f00000000000000000000000000000000000000000000000000000000000000017f00000000000000000000000000000000000000000000000000000000000000007f000000000000000000000000afa5fa36343d3e654a70e1dca0152c9cb6cc86087f00000000000000000000000100000000000000000000000000000000000000001231b61993",
                "storage": {}
            }
        },
        "transaction": {
            "nonce": "0x00",
            "gasPrice": "0x0a",
            "gasLimit": [
                "0x0186a0"
            ],
            "to": "0xafa5fa36343d3e654a70e1dca0152c9cb6cc8708",
            "value": [
                "0x14fb56ac"
            ],
            "data": [
                "0x7f0000000000000000000000000000000000000000000000000000000000000000447fffffffffffffffffffffffffffffffffffffffffffffffffffffffffffffffff7f00000000000000000000000000000000000000000000000000000000000000017f00000000000000000000000000000000000000000000000000000000000000017f00000000000000000000000000000000000000000000000000000000000000007f000000000000000000000000afa5fa36343d3e654a70e1dca0152c9cb6cc86087f00000000000000000000000100000000000000000000000000000000000000001231b61993"
            ],
            "sender": "0x357770288060a3fccd9fca160dcb9d86c16f06a5",
            "secretKey": "0xbd4d0cb8dda321421c636178afa5fa36343d3e654a70e1dca0152c9cb6cc8608"
        },
        "post": {
            "Osaka": [
                {
                    "hash": "0x0099b714883e703f601ded1bdc976bd53b0bc9d05bbe8d0a94a613a5660f3cac",
                    "logs": "0x1dcc4de8dec75d7aab85b567b6ccd41ad312451b948a7413f0a142fd40d49347",
                    "txbytes": "0xf90152800a830186a094afa5fa36343d3e654a70e1dca0152c9cb6cc87088414fb56acb8ed7f0000000000000000000000000000000000000000000000000000000000000000447fffffffffffffffffffffffffffffffffffffffffffffffffffffffffffffffff7f00000000000000000000000000000000000000000000000000000000000000017f00000000000000000000000000000000000000000000000000000000000000017f00000000000000000000000000000000000000000000000000000000000000007f000000000000000000000000afa5fa36343d3e654a70e1dca0152c9cb6cc86087f00000000000000000000000100000000000000000000000000000000000000001231b6199325a04bae605232c33b467ab037466a09c0ede75c5416fe2fcca79b9982bdbda085dca0436bf6a5c84d699c4fd3982526c81687097b4608ed25ef63c800ab477823b69b",
                    "indexes": {
                        "data": 0,
                        "gas": 0,
                        "value": 0
                    },
                    "state": {
                        "0x357770288060a3fccd9fca160dcb9d86c16f06a5": {
                            "nonce": "0x01",
                            "balance": "0x0de0b6b3a754bdc0",
                            "code": "0x",
                            "storage": {}
                        },
                        "0xafa5fa36343d3e654a70e1dca0152c9cb6cc8608": {
                            "nonce": "0x00",
                            "balance": "0x2e",
                            "code": "0x6000355415600957005b60203560003555",
                            "storage": {}
                        },
                        "0xafa5fa36343d3e654a70e1dca0152c9cb6cc8708": {
                            "nonce": "0x00",
                            "balance": "0x00",
                            "code": "0x7f0000000000000000000000000000000000000000000000000000000000000000447fffffffffffffffffffffffffffffffffffffffffffffffffffffffffffffffff7f00000000000000000000000000000000000000000000000000000000000000017f00000000000000000000000000000000000000000000000000000000000000017f00000000000000000000000000000000000000000000000000000000000000007f000000000000000000000000afa5fa36343d3e654a70e1dca0152c9cb6cc86087f00000000000000000000000100000000000000000000000000000000000000001231b61993",
                            "storage": {}
                        }
                    }
                }
            ]
        },
        "config": {
            "blobSchedule": {
                "Cancun": {
                    "target": "0x03",
                    "max": "0x06",
                    "baseFeeUpdateFraction": "0x32f0ed"
                },
                "Prague": {
                    "target": "0x06",
                    "max": "0x09",
                    "baseFeeUpdateFraction": "0x4c6964"
                },
                "Osaka": {
                    "target": "0x06",
                    "max": "0x09",
                    "baseFeeUpdateFraction": "0x4c6964"
                }
            },
            "chainid": "0x01"
        },
        "_info": {
            "hash": "0x0ddf8349147d429729efdf6da2f41c4e83420db1532206d982cbc58d04d9596b",
            "comment": "`execution-spec-tests` generated test",
            "filling-transition-tool": "ethereum-spec-evm-resolver 0.0.5",
            "description": "No description available - add a docstring to the python test class or function.",
            "url": "",
            "fixture-format": "state_test",
            "eels-resolution": {
                "git-url": "https://github.com/marioevz/execution-specs.git",
                "branch": "forks/bpo1",
                "commit": "3387e5f4aedfe99becfdc39b444d6371e25e0924"
            }
        }
    },
    "tests/static/state_tests/stRandom/randomStatetest261Filler.json::randomStatetest261[fork_Prague-state_test-]": {
        "env": {
            "currentCoinbase": "0xafa5fa36343d3e654a70e1dca0152c9cb6cc8608",
            "currentGasLimit": "0x7fffffffffffffff",
            "currentNumber": "0x01",
            "currentTimestamp": "0x03e8",
            "currentRandom": "0x0000000000000000000000000000000000000000000000000000000000020000",
            "currentDifficulty": "0x00",
            "currentBaseFee": "0x0a",
            "currentExcessBlobGas": "0x00"
        },
        "pre": {
            "0x357770288060a3fccd9fca160dcb9d86c16f06a5": {
                "nonce": "0x00",
                "balance": "0x0de0b6b3a7640000",
                "code": "0x",
                "storage": {}
            },
            "0xafa5fa36343d3e654a70e1dca0152c9cb6cc8608": {
                "nonce": "0x00",
                "balance": "0x2e",
                "code": "0x6000355415600957005b60203560003555",
                "storage": {}
            },
            "0xafa5fa36343d3e654a70e1dca0152c9cb6cc8708": {
                "nonce": "0x00",
                "balance": "0x00",
                "code": "0x7f0000000000000000000000000000000000000000000000000000000000000000447fffffffffffffffffffffffffffffffffffffffffffffffffffffffffffffffff7f00000000000000000000000000000000000000000000000000000000000000017f00000000000000000000000000000000000000000000000000000000000000017f00000000000000000000000000000000000000000000000000000000000000007f000000000000000000000000afa5fa36343d3e654a70e1dca0152c9cb6cc86087f00000000000000000000000100000000000000000000000000000000000000001231b61993",
                "storage": {}
            }
        },
        "transaction": {
            "nonce": "0x00",
            "gasPrice": "0x0a",
            "gasLimit": [
                "0x0186a0"
            ],
            "to": "0xafa5fa36343d3e654a70e1dca0152c9cb6cc8708",
            "value": [
                "0x14fb56ac"
            ],
            "data": [
                "0x7f0000000000000000000000000000000000000000000000000000000000000000447fffffffffffffffffffffffffffffffffffffffffffffffffffffffffffffffff7f00000000000000000000000000000000000000000000000000000000000000017f00000000000000000000000000000000000000000000000000000000000000017f00000000000000000000000000000000000000000000000000000000000000007f000000000000000000000000afa5fa36343d3e654a70e1dca0152c9cb6cc86087f00000000000000000000000100000000000000000000000000000000000000001231b61993"
            ],
            "sender": "0x357770288060a3fccd9fca160dcb9d86c16f06a5",
            "secretKey": "0xbd4d0cb8dda321421c636178afa5fa36343d3e654a70e1dca0152c9cb6cc8608"
        },
        "post": {
            "Prague": [
                {
                    "hash": "0x0099b714883e703f601ded1bdc976bd53b0bc9d05bbe8d0a94a613a5660f3cac",
                    "logs": "0x1dcc4de8dec75d7aab85b567b6ccd41ad312451b948a7413f0a142fd40d49347",
                    "txbytes": "0xf90152800a830186a094afa5fa36343d3e654a70e1dca0152c9cb6cc87088414fb56acb8ed7f0000000000000000000000000000000000000000000000000000000000000000447fffffffffffffffffffffffffffffffffffffffffffffffffffffffffffffffff7f00000000000000000000000000000000000000000000000000000000000000017f00000000000000000000000000000000000000000000000000000000000000017f00000000000000000000000000000000000000000000000000000000000000007f000000000000000000000000afa5fa36343d3e654a70e1dca0152c9cb6cc86087f00000000000000000000000100000000000000000000000000000000000000001231b6199325a04bae605232c33b467ab037466a09c0ede75c5416fe2fcca79b9982bdbda085dca0436bf6a5c84d699c4fd3982526c81687097b4608ed25ef63c800ab477823b69b",
                    "indexes": {
                        "data": 0,
                        "gas": 0,
                        "value": 0
                    },
                    "state": {
                        "0x357770288060a3fccd9fca160dcb9d86c16f06a5": {
                            "nonce": "0x01",
                            "balance": "0x0de0b6b3a754bdc0",
                            "code": "0x",
                            "storage": {}
                        },
                        "0xafa5fa36343d3e654a70e1dca0152c9cb6cc8608": {
                            "nonce": "0x00",
                            "balance": "0x2e",
                            "code": "0x6000355415600957005b60203560003555",
                            "storage": {}
                        },
                        "0xafa5fa36343d3e654a70e1dca0152c9cb6cc8708": {
                            "nonce": "0x00",
                            "balance": "0x00",
                            "code": "0x7f0000000000000000000000000000000000000000000000000000000000000000447fffffffffffffffffffffffffffffffffffffffffffffffffffffffffffffffff7f00000000000000000000000000000000000000000000000000000000000000017f00000000000000000000000000000000000000000000000000000000000000017f00000000000000000000000000000000000000000000000000000000000000007f000000000000000000000000afa5fa36343d3e654a70e1dca0152c9cb6cc86087f00000000000000000000000100000000000000000000000000000000000000001231b61993",
                            "storage": {}
                        }
                    }
                }
            ]
        },
        "config": {
            "blobSchedule": {
                "Cancun": {
                    "target": "0x03",
                    "max": "0x06",
                    "baseFeeUpdateFraction": "0x32f0ed"
                },
                "Prague": {
                    "target": "0x06",
                    "max": "0x09",
                    "baseFeeUpdateFraction": "0x4c6964"
                }
            },
            "chainid": "0x01"
        },
        "_info": {
            "hash": "0xd60068d7fc7985f5eafb5e886dd3c4342119864b6d3c0a02648655116950be03",
            "comment": "`execution-spec-tests` generated test",
            "filling-transition-tool": "ethereum-spec-evm-resolver 0.0.5",
            "description": "No description available - add a docstring to the python test class or function.",
            "url": "",
            "fixture-format": "state_test",
            "eels-resolution": {
                "git-url": "https://github.com/marioevz/execution-specs.git",
                "branch": "forks/bpo1",
                "commit": "3387e5f4aedfe99becfdc39b444d6371e25e0924"
            }
        }
    }
}