{
    "tests/static/state_tests/stRandom/randomStatetest134Filler.json::randomStatetest134[fork_Cancun-state_test-]": {
        "env": {
            "currentCoinbase": "0x5f0c5aa3ec57d609a8ecda90eefc556cb552144f",
            "currentGasLimit": "0x7fffffffffffffff",
            "currentNumber": "0x01",
            "currentTimestamp": "0x03e8",
            "currentRandom": "0x0000000000000000000000000000000000000000000000000000000000020000",
            "currentDifficulty": "0x00",
            "currentBaseFee": "0x0a",
            "currentExcessBlobGas": "0x00"
        },
        "pre": {
            "0xbe66eb8e6779ba4c70b4cb0471af97fe147a2a8c": {
                "nonce": "0x00",
                "balance": "0x0de0b6b3a7640000",
                "code": "0x",
                "storage": {}
            },
            "0x5f0c5aa3ec57d609a8ecda90eefc556cb552144f": {
                "nonce": "0x00",
                "balance": "0x2e",
                "code": "0x6000355415600957005b60203560003555",
                "storage": {}
            },
            "0x5f0c5aa3ec57d609a8ecda90eefc556cb552154f": {
                "nonce": "0x00",
                "balance": "0x00",
                "code": "0x417f00000000000000000000000000000000000000000000000000000000000000007f000000000000000000000000ffffffffffffffffffffffffffffffffffffffff7f000000000000000000000000ffffffffffffffffffffffffffffffffffffffff557f0000000000000000000000005f0c5aa3ec57d609a8ecda90eefc556cb552144f7f00000000000000000000000000000000000000000000000000000000000000007f000000000000000000000000ffffffffffffffffffffffffffffffffffffffff55836b636c9c395a0732014533405560005155",
                "storage": {}
            }
        },
        "transaction": {
            "nonce": "0x00",
            "gasPrice": "0x0a",
            "gasLimit": [
                "0x0186a0"
            ],
            "to": "0x5f0c5aa3ec57d609a8ecda90eefc556cb552154f",
            "value": [
                "0x03e3e955"
            ],
            "data": [
                "0x417f00000000000000000000000000000000000000000000000000000000000000007f000000000000000000000000ffffffffffffffffffffffffffffffffffffffff7f000000000000000000000000ffffffffffffffffffffffffffffffffffffffff557f0000000000000000000000005f0c5aa3ec57d609a8ecda90eefc556cb552144f7f00000000000000000000000000000000000000000000000000000000000000007f000000000000000000000000ffffffffffffffffffffffffffffffffffffffff55836b636c9c395a073201453340"
            ],
            "sender": "0xbe66eb8e6779ba4c70b4cb0471af97fe147a2a8c",
            "secretKey": "0x89c33f420de9d7d5bbc348065f0c5aa3ec57d609a8ecda90eefc556cb552144f"
        },
        "post": {
            "Cancun": [
                {
                    "hash": "0x2c402533caf8f5479a48f568b06f462f6ac13e219b5f3f9afb4097ac16fe2c3b",
                    "logs": "0x1dcc4de8dec75d7aab85b567b6ccd41ad312451b948a7413f0a142fd40d49347",
                    "txbytes": "0xf9013b800a830186a0945f0c5aa3ec57d609a8ecda90eefc556cb552154f8403e3e955b8d6417f00000000000000000000000000000000000000000000000000000000000000007f000000000000000000000000ffffffffffffffffffffffffffffffffffffffff7f000000000000000000000000ffffffffffffffffffffffffffffffffffffffff557f0000000000000000000000005f0c5aa3ec57d609a8ecda90eefc556cb552144f7f00000000000000000000000000000000000000000000000000000000000000007f000000000000000000000000ffffffffffffffffffffffffffffffffffffffff55836b636c9c395a07320145334026a04a9d5d70cf423f029758dcf5c85e3d1d6360cc48941fe72f212dbece688454d9a040d15a370da9c5159dea1f8bb11079cc0113a5d0bc72aa60800c7d9abf83f3c1",
                    "indexes": {
                        "data": 0,
                        "gas": 0,
                        "value": 0
                    },
                    "state": {
                        "0xbe66eb8e6779ba4c70b4cb0471af97fe147a2a8c": {
                            "nonce": "0x01",
                            "balance": "0x0de0b6b3a754bdc0",
                            "code": "0x",
                            "storage": {}
                        },
                        "0x5f0c5aa3ec57d609a8ecda90eefc556cb552144f": {
                            "nonce": "0x00",
                            "balance": "0x2e",
                            "code": "0x6000355415600957005b60203560003555",
                            "storage": {}
                        },
                        "0x5f0c5aa3ec57d609a8ecda90eefc556cb552154f": {
                            "nonce": "0x00",
                            "balance": "0x00",
                            "code": "0x417f00000000000000000000000000000000000000000000000000000000000000007f000000000000000000000000ffffffffffffffffffffffffffffffffffffffff7f000000000000000000000000ffffffffffffffffffffffffffffffffffffffff557f0000000000000000000000005f0c5aa3ec57d609a8ecda90eefc556cb552144f7f00000000000000000000000000000000000000000000000000000000000000007f000000000000000000000000ffffffffffffffffffffffffffffffffffffffff55836b636c9c395a0732014533405560005155",
                            "storage": {}
                        }
                    }
                }
            ]
        },
        "config": {
            "blobSchedule": {
                "Cancun": {
                    "target": "0x03",
                    "max": "0x06",
                    "baseFeeUpdateFraction": "0x32f0ed"
                }
            },
            "chainid": "0x01"
        },
        "_info": {
            "hash": "0xa543024f69cc529aef19901ca7c891af49e3944e3db0144395778bbddc146025",
            "comment": "`execution-spec-tests` generated test",
            "filling-transition-tool": "ethereum-spec-evm-resolver 0.0.5",
            "description": "No description available - add a docstring to the python test class or function.",
            "url": "",
            "fixture-format": "state_test",
            "eels-resolution": {
                "git-url": "https://github.com/ethereum/execution-specs.git",
                "branch": "forks/bpos",
                "commit": "7aacb2c54111391af5e98c505d5010b5698a770f"
            }
        }
    },
    "tests/static/state_tests/stRandom/randomStatetest134Filler.json::randomStatetest134[fork_Osaka-state_test-]": {
        "env": {
            "currentCoinbase": "0x5f0c5aa3ec57d609a8ecda90eefc556cb552144f",
            "currentGasLimit": "0x7fffffffffffffff",
            "currentNumber": "0x01",
            "currentTimestamp": "0x03e8",
            "currentRandom": "0x0000000000000000000000000000000000000000000000000000000000020000",
            "currentDifficulty": "0x00",
            "currentBaseFee": "0x0a",
            "currentExcessBlobGas": "0x00"
        },
        "pre": {
            "0xbe66eb8e6779ba4c70b4cb0471af97fe147a2a8c": {
                "nonce": "0x00",
                "balance": "0x0de0b6b3a7640000",
                "code": "0x",
                "storage": {}
            },
            "0x5f0c5aa3ec57d609a8ecda90eefc556cb552144f": {
                "nonce": "0x00",
                "balance": "0x2e",
                "code": "0x6000355415600957005b60203560003555",
                "storage": {}
            },
            "0x5f0c5aa3ec57d609a8ecda90eefc556cb552154f": {
                "nonce": "0x00",
                "balance": "0x00",
                "code": "0x417f00000000000000000000000000000000000000000000000000000000000000007f000000000000000000000000ffffffffffffffffffffffffffffffffffffffff7f000000000000000000000000ffffffffffffffffffffffffffffffffffffffff557f0000000000000000000000005f0c5aa3ec57d609a8ecda90eefc556cb552144f7f00000000000000000000000000000000000000000000000000000000000000007f000000000000000000000000ffffffffffffffffffffffffffffffffffffffff55836b636c9c395a0732014533405560005155",
                "storage": {}
            }
        },
        "transaction": {
            "nonce": "0x00",
            "gasPrice": "0x0a",
            "gasLimit": [
                "0x0186a0"
            ],
            "to": "0x5f0c5aa3ec57d609a8ecda90eefc556cb552154f",
            "value": [
                "0x03e3e955"
            ],
            "data": [
                "0x417f00000000000000000000000000000000000000000000000000000000000000007f000000000000000000000000ffffffffffffffffffffffffffffffffffffffff7f000000000000000000000000ffffffffffffffffffffffffffffffffffffffff557f0000000000000000000000005f0c5aa3ec57d609a8ecda90eefc556cb552144f7f00000000000000000000000000000000000000000000000000000000000000007f000000000000000000000000ffffffffffffffffffffffffffffffffffffffff55836b636c9c395a073201453340"
            ],
            "sender": "0xbe66eb8e6779ba4c70b4cb0471af97fe147a2a8c",
            "secretKey": "0x89c33f420de9d7d5bbc348065f0c5aa3ec57d609a8ecda90eefc556cb552144f"
        },
        "post": {
            "Osaka": [
                {
                    "hash": "0x2c402533caf8f5479a48f568b06f462f6ac13e219b5f3f9afb4097ac16fe2c3b",
                    "logs": "0x1dcc4de8dec75d7aab85b567b6ccd41ad312451b948a7413f0a142fd40d49347",
                    "txbytes": "0xf9013b800a830186a0945f0c5aa3ec57d609a8ecda90eefc556cb552154f8403e3e955b8d6417f00000000000000000000000000000000000000000000000000000000000000007f000000000000000000000000ffffffffffffffffffffffffffffffffffffffff7f000000000000000000000000ffffffffffffffffffffffffffffffffffffffff557f0000000000000000000000005f0c5aa3ec57d609a8ecda90eefc556cb552144f7f00000000000000000000000000000000000000000000000000000000000000007f000000000000000000000000ffffffffffffffffffffffffffffffffffffffff55836b636c9c395a07320145334026a04a9d5d70cf423f029758dcf5c85e3d1d6360cc48941fe72f212dbece688454d9a040d15a370da9c5159dea1f8bb11079cc0113a5d0bc72aa60800c7d9abf83f3c1",
                    "indexes": {
                        "data": 0,
                        "gas": 0,
                        "value": 0
                    },
                    "state": {
                        "0xbe66eb8e6779ba4c70b4cb0471af97fe147a2a8c": {
                            "nonce": "0x01",
                            "balance": "0x0de0b6b3a754bdc0",
                            "code": "0x",
                            "storage": {}
                        },
                        "0x5f0c5aa3ec57d609a8ecda90eefc556cb552144f": {
                            "nonce": "0x00",
                            "balance": "0x2e",
                            "code": "0x6000355415600957005b60203560003555",
                            "storage": {}
                        },
                        "0x5f0c5aa3ec57d609a8ecda90eefc556cb552154f": {
                            "nonce": "0x00",
                            "balance": "0x00",
                            "code": "0x417f00000000000000000000000000000000000000000000000000000000000000007f000000000000000000000000ffffffffffffffffffffffffffffffffffffffff7f000000000000000000000000ffffffffffffffffffffffffffffffffffffffff557f0000000000000000000000005f0c5aa3ec57d609a8ecda90eefc556cb552144f7f00000000000000000000000000000000000000000000000000000000000000007f000000000000000000000000ffffffffffffffffffffffffffffffffffffffff55836b636c9c395a0732014533405560005155",
                            "storage": {}
                        }
                    }
                }
            ]
        },
        "config": {
            "blobSchedule": {
                "Cancun": {
                    "target": "0x03",
                    "max": "0x06",
                    "baseFeeUpdateFraction": "0x32f0ed"
                },
                "Prague": {
                    "target": "0x06",
                    "max": "0x09",
                    "baseFeeUpdateFraction": "0x4c6964"
                },
                "Osaka": {
                    "target": "0x06",
                    "max": "0x09",
                    "baseFeeUpdateFraction": "0x4c6964"
                }
            },
            "chainid": "0x01"
        },
        "_info": {
            "hash": "0xb118b56a1138b6406616de94302226f42161079ed8374b098933a655d1ce76f2",
            "comment": "`execution-spec-tests` generated test",
            "filling-transition-tool": "ethereum-spec-evm-resolver 0.0.5",
            "description": "No description available - add a docstring to the python test class or function.",
            "url": "",
            "fixture-format": "state_test",
            "eels-resolution": {
                "git-url": "https://github.com/ethereum/execution-specs.git",
                "branch": "forks/bpos",
                "commit": "7aacb2c54111391af5e98c505d5010b5698a770f"
            }
        }
    },
    "tests/static/state_tests/stRandom/randomStatetest134Filler.json::randomStatetest134[fork_Prague-state_test-]": {
        "env": {
            "currentCoinbase": "0x5f0c5aa3ec57d609a8ecda90eefc556cb552144f",
            "currentGasLimit": "0x7fffffffffffffff",
            "currentNumber": "0x01",
            "currentTimestamp": "0x03e8",
            "currentRandom": "0x0000000000000000000000000000000000000000000000000000000000020000",
            "currentDifficulty": "0x00",
            "currentBaseFee": "0x0a",
            "currentExcessBlobGas": "0x00"
        },
        "pre": {
            "0xbe66eb8e6779ba4c70b4cb0471af97fe147a2a8c": {
                "nonce": "0x00",
                "balance": "0x0de0b6b3a7640000",
                "code": "0x",
                "storage": {}
            },
            "0x5f0c5aa3ec57d609a8ecda90eefc556cb552144f": {
                "nonce": "0x00",
                "balance": "0x2e",
                "code": "0x6000355415600957005b60203560003555",
                "storage": {}
            },
            "0x5f0c5aa3ec57d609a8ecda90eefc556cb552154f": {
                "nonce": "0x00",
                "balance": "0x00",
                "code": "0x417f00000000000000000000000000000000000000000000000000000000000000007f000000000000000000000000ffffffffffffffffffffffffffffffffffffffff7f000000000000000000000000ffffffffffffffffffffffffffffffffffffffff557f0000000000000000000000005f0c5aa3ec57d609a8ecda90eefc556cb552144f7f00000000000000000000000000000000000000000000000000000000000000007f000000000000000000000000ffffffffffffffffffffffffffffffffffffffff55836b636c9c395a0732014533405560005155",
                "storage": {}
            }
        },
        "transaction": {
            "nonce": "0x00",
            "gasPrice": "0x0a",
            "gasLimit": [
                "0x0186a0"
            ],
            "to": "0x5f0c5aa3ec57d609a8ecda90eefc556cb552154f",
            "value": [
                "0x03e3e955"
            ],
            "data": [
                "0x417f00000000000000000000000000000000000000000000000000000000000000007f000000000000000000000000ffffffffffffffffffffffffffffffffffffffff7f000000000000000000000000ffffffffffffffffffffffffffffffffffffffff557f0000000000000000000000005f0c5aa3ec57d609a8ecda90eefc556cb552144f7f00000000000000000000000000000000000000000000000000000000000000007f000000000000000000000000ffffffffffffffffffffffffffffffffffffffff55836b636c9c395a073201453340"
            ],
            "sender": "0xbe66eb8e6779ba4c70b4cb0471af97fe147a2a8c",
            "secretKey": "0x89c33f420de9d7d5bbc348065f0c5aa3ec57d609a8ecda90eefc556cb552144f"
        },
        "post": {
            "Prague": [
                {
                    "hash": "0x2c402533caf8f5479a48f568b06f462f6ac13e219b5f3f9afb4097ac16fe2c3b",
                    "logs": "0x1dcc4de8dec75d7aab85b567b6ccd41ad312451b948a7413f0a142fd40d49347",
                    "txbytes": "0xf9013b800a830186a0945f0c5aa3ec57d609a8ecda90eefc556cb552154f8403e3e955b8d6417f00000000000000000000000000000000000000000000000000000000000000007f000000000000000000000000ffffffffffffffffffffffffffffffffffffffff7f000000000000000000000000ffffffffffffffffffffffffffffffffffffffff557f0000000000000000000000005f0c5aa3ec57d609a8ecda90eefc556cb552144f7f00000000000000000000000000000000000000000000000000000000000000007f000000000000000000000000ffffffffffffffffffffffffffffffffffffffff55836b636c9c395a07320145334026a04a9d5d70cf423f029758dcf5c85e3d1d6360cc48941fe72f212dbece688454d9a040d15a370da9c5159dea1f8bb11079cc0113a5d0bc72aa60800c7d9abf83f3c1",
                    "indexes": {
                        "data": 0,
                        "gas": 0,
                        "value": 0
                    },
                    "state": {
                        "0xbe66eb8e6779ba4c70b4cb0471af97fe147a2a8c": {
                            "nonce": "0x01",
                            "balance": "0x0de0b6b3a754bdc0",
                            "code": "0x",
                            "storage": {}
                        },
                        "0x5f0c5aa3ec57d609a8ecda90eefc556cb552144f": {
                            "nonce": "0x00",
                            "balance": "0x2e",
                            "code": "0x6000355415600957005b60203560003555",
                            "storage": {}
                        },
                        "0x5f0c5aa3ec57d609a8ecda90eefc556cb552154f": {
                            "nonce": "0x00",
                            "balance": "0x00",
                            "code": "0x417f00000000000000000000000000000000000000000000000000000000000000007f000000000000000000000000ffffffffffffffffffffffffffffffffffffffff7f000000000000000000000000ffffffffffffffffffffffffffffffffffffffff557f0000000000000000000000005f0c5aa3ec57d609a8ecda90eefc556cb552144f7f00000000000000000000000000000000000000000000000000000000000000007f000000000000000000000000ffffffffffffffffffffffffffffffffffffffff55836b636c9c395a0732014533405560005155",
                            "storage": {}
                        }
                    }
                }
            ]
        },
        "config": {
            "blobSchedule": {
                "Cancun": {
                    "target": "0x03",
                    "max": "0x06",
                    "baseFeeUpdateFraction": "0x32f0ed"
                },
                "Prague": {
                    "target": "0x06",
                    "max": "0x09",
                    "baseFeeUpdateFraction": "0x4c6964"
                }
            },
            "chainid": "0x01"
        },
        "_info": {
            "hash": "0x9cc0bfb8c5b484b24b2e7b6ae886b6d96cf1be0804f20b7be3b554c25199e665",
            "comment": "`execution-spec-tests` generated test",
            "filling-transition-tool": "ethereum-spec-evm-resolver 0.0.5",
            "description": "No description available - add a docstring to the python test class or function.",
            "url": "",
            "fixture-format": "state_test",
            "eels-resolution": {
                "git-url": "https://github.com/ethereum/execution-specs.git",
                "branch": "forks/bpos",
                "commit": "7aacb2c54111391af5e98c505d5010b5698a770f"
            }
        }
    }
}