{
    "tests/static/state_tests/stRandom/randomStatetest219Filler.json::randomStatetest219[fork_Cancun-state_test-]": {
        "env": {
            "currentCoinbase": "0x74e53a07ff73364e3ef858c784ec99c4afb7b895",
            "currentGasLimit": "0x7fffffffffffffff",
            "currentNumber": "0x01",
            "currentTimestamp": "0x03e8",
            "currentRandom": "0x0000000000000000000000000000000000000000000000000000000000020000",
            "currentDifficulty": "0x00",
            "currentBaseFee": "0x0a",
            "currentExcessBlobGas": "0x00"
        },
        "pre": {
            "0xb573b30d8bfa9c5ab625c147a8ee1d946bcde279": {
                "nonce": "0x00",
                "balance": "0x0de0b6b3a7640000",
                "code": "0x",
                "storage": {}
            },
            "0x74e53a07ff73364e3ef858c784ec99c4afb7b895": {
                "nonce": "0x00",
                "balance": "0x2e",
                "code": "0x6000355415600957005b60203560003555",
                "storage": {}
            },
            "0x74e53a07ff73364e3ef858c784ec99c4afb7b995": {
                "nonce": "0x00",
                "balance": "0x00",
                "code": "0x7f00000000000000000000000000000000000000000000000000000000000000007f00000000000000000000000000000000000000000000000000000000000000007f00000000000000000000000100000000000000000000000000000000000000007f000000000000000000000000ffffffffffffffffffffffffffffffffffffffff437f00000000000000000000000100000000000000000000000000000000000000007f00000000000000000000000000000000000000000000000000000000000000017f000000000000000000000000000000000000000000000000000000000000c3506f6253443a4104027144577f339983205560005155",
                "storage": {}
            }
        },
        "transaction": {
            "nonce": "0x00",
            "gasPrice": "0x0a",
            "gasLimit": [
                "0x0186a0"
            ],
            "to": "0x74e53a07ff73364e3ef858c784ec99c4afb7b995",
            "value": [
                "0x046404ea"
            ],
            "data": [
                "0x7f00000000000000000000000000000000000000000000000000000000000000007f00000000000000000000000000000000000000000000000000000000000000007f00000000000000000000000100000000000000000000000000000000000000007f000000000000000000000000ffffffffffffffffffffffffffffffffffffffff437f00000000000000000000000100000000000000000000000000000000000000007f00000000000000000000000000000000000000000000000000000000000000017f000000000000000000000000000000000000000000000000000000000000c3506f6253443a4104027144577f33998320"
            ],
            "sender": "0xb573b30d8bfa9c5ab625c147a8ee1d946bcde279",
            "secretKey": "0xb7027321e887781056314a5574e53a07ff73364e3ef858c784ec99c4afb7b895"
        },
        "post": {
            "Cancun": [
                {
                    "hash": "0xab73b2422226f5a080c092edcfe249ebd14e9367e49fe8eead51ca318682ad32",
                    "logs": "0x1dcc4de8dec75d7aab85b567b6ccd41ad312451b948a7413f0a142fd40d49347",
                    "txbytes": "0xf9015d800a830186a09474e53a07ff73364e3ef858c784ec99c4afb7b99584046404eab8f87f00000000000000000000000000000000000000000000000000000000000000007f00000000000000000000000000000000000000000000000000000000000000007f00000000000000000000000100000000000000000000000000000000000000007f000000000000000000000000ffffffffffffffffffffffffffffffffffffffff437f00000000000000000000000100000000000000000000000000000000000000007f00000000000000000000000000000000000000000000000000000000000000017f000000000000000000000000000000000000000000000000000000000000c3506f6253443a4104027144577f3399832025a0e9c2a7d86bad0007bea00bce6766a33e2317041f29c2057dbd8a438f6ab104fda0700e425932e55f0eda23159adac6a39885b0210139ef816f9438a85c3e474b96",
                    "indexes": {
                        "data": 0,
                        "gas": 0,
                        "value": 0
                    },
                    "state": {
                        "0xb573b30d8bfa9c5ab625c147a8ee1d946bcde279": {
                            "nonce": "0x01",
                            "balance": "0x0de0b6b3a2f92868",
                            "code": "0x",
                            "storage": {}
                        },
                        "0x74e53a07ff73364e3ef858c784ec99c4afb7b895": {
                            "nonce": "0x00",
                            "balance": "0x2e",
                            "code": "0x6000355415600957005b60203560003555",
                            "storage": {}
                        },
                        "0x74e53a07ff73364e3ef858c784ec99c4afb7b995": {
                            "nonce": "0x00",
                            "balance": "0x046404ea",
                            "code": "0x7f00000000000000000000000000000000000000000000000000000000000000007f00000000000000000000000000000000000000000000000000000000000000007f00000000000000000000000100000000000000000000000000000000000000007f000000000000000000000000ffffffffffffffffffffffffffffffffffffffff437f00000000000000000000000100000000000000000000000000000000000000007f00000000000000000000000000000000000000000000000000000000000000017f000000000000000000000000000000000000000000000000000000000000c3506f6253443a4104027144577f339983205560005155",
                            "storage": {
                                "0x00": "0x6253443a4104027144577f3399832055"
                            }
                        }
                    }
                }
            ]
        },
        "config": {
            "blobSchedule": {
                "Cancun": {
                    "target": "0x03",
                    "max": "0x06",
                    "baseFeeUpdateFraction": "0x32f0ed"
                }
            },
            "chainid": "0x01"
        },
        "_info": {
            "hash": "0x50bfe4bdc278085a0ce79a553bed2020b2c66108e76f50a8affd13251f4b1e31",
            "comment": "`execution-spec-tests` generated test",
            "filling-transition-tool": "ethereum-spec-evm-resolver 0.0.5",
            "description": "No description available - add a docstring to the python test class or function.",
            "url": "",
            "fixture-format": "state_test",
            "eels-resolution": {
                "git-url": "https://github.com/marioevz/execution-specs.git",
                "branch": "forks/bpo1",
                "commit": "3387e5f4aedfe99becfdc39b444d6371e25e0924"
            }
        }
    },
    "tests/static/state_tests/stRandom/randomStatetest219Filler.json::randomStatetest219[fork_Osaka-state_test-]": {
        "env": {
            "currentCoinbase": "0x74e53a07ff73364e3ef858c784ec99c4afb7b895",
            "currentGasLimit": "0x7fffffffffffffff",
            "currentNumber": "0x01",
            "currentTimestamp": "0x03e8",
            "currentRandom": "0x0000000000000000000000000000000000000000000000000000000000020000",
            "currentDifficulty": "0x00",
            "currentBaseFee": "0x0a",
            "currentExcessBlobGas": "0x00"
        },
        "pre": {
            "0xb573b30d8bfa9c5ab625c147a8ee1d946bcde279": {
                "nonce": "0x00",
                "balance": "0x0de0b6b3a7640000",
                "code": "0x",
                "storage": {}
            },
            "0x74e53a07ff73364e3ef858c784ec99c4afb7b895": {
                "nonce": "0x00",
                "balance": "0x2e",
                "code": "0x6000355415600957005b60203560003555",
                "storage": {}
            },
            "0x74e53a07ff73364e3ef858c784ec99c4afb7b995": {
                "nonce": "0x00",
                "balance": "0x00",
                "code": "0x7f00000000000000000000000000000000000000000000000000000000000000007f00000000000000000000000000000000000000000000000000000000000000007f00000000000000000000000100000000000000000000000000000000000000007f000000000000000000000000ffffffffffffffffffffffffffffffffffffffff437f00000000000000000000000100000000000000000000000000000000000000007f00000000000000000000000000000000000000000000000000000000000000017f000000000000000000000000000000000000000000000000000000000000c3506f6253443a4104027144577f339983205560005155",
                "storage": {}
            }
        },
        "transaction": {
            "nonce": "0x00",
            "gasPrice": "0x0a",
            "gasLimit": [
                "0x0186a0"
            ],
            "to": "0x74e53a07ff73364e3ef858c784ec99c4afb7b995",
            "value": [
                "0x046404ea"
            ],
            "data": [
                "0x7f00000000000000000000000000000000000000000000000000000000000000007f00000000000000000000000000000000000000000000000000000000000000007f00000000000000000000000100000000000000000000000000000000000000007f000000000000000000000000ffffffffffffffffffffffffffffffffffffffff437f00000000000000000000000100000000000000000000000000000000000000007f00000000000000000000000000000000000000000000000000000000000000017f000000000000000000000000000000000000000000000000000000000000c3506f6253443a4104027144577f33998320"
            ],
            "sender": "0xb573b30d8bfa9c5ab625c147a8ee1d946bcde279",
            "secretKey": "0xb7027321e887781056314a5574e53a07ff73364e3ef858c784ec99c4afb7b895"
        },
        "post": {
            "Osaka": [
                {
                    "hash": "0xab73b2422226f5a080c092edcfe249ebd14e9367e49fe8eead51ca318682ad32",
                    "logs": "0x1dcc4de8dec75d7aab85b567b6ccd41ad312451b948a7413f0a142fd40d49347",
                    "txbytes": "0xf9015d800a830186a09474e53a07ff73364e3ef858c784ec99c4afb7b99584046404eab8f87f00000000000000000000000000000000000000000000000000000000000000007f00000000000000000000000000000000000000000000000000000000000000007f00000000000000000000000100000000000000000000000000000000000000007f000000000000000000000000ffffffffffffffffffffffffffffffffffffffff437f00000000000000000000000100000000000000000000000000000000000000007f00000000000000000000000000000000000000000000000000000000000000017f000000000000000000000000000000000000000000000000000000000000c3506f6253443a4104027144577f3399832025a0e9c2a7d86bad0007bea00bce6766a33e2317041f29c2057dbd8a438f6ab104fda0700e425932e55f0eda23159adac6a39885b0210139ef816f9438a85c3e474b96",
                    "indexes": {
                        "data": 0,
                        "gas": 0,
                        "value": 0
                    },
                    "state": {
                        "0xb573b30d8bfa9c5ab625c147a8ee1d946bcde279": {
                            "nonce": "0x01",
                            "balance": "0x0de0b6b3a2f92868",
                            "code": "0x",
                            "storage": {}
                        },
                        "0x74e53a07ff73364e3ef858c784ec99c4afb7b895": {
                            "nonce": "0x00",
                            "balance": "0x2e",
                            "code": "0x6000355415600957005b60203560003555",
                            "storage": {}
                        },
                        "0x74e53a07ff73364e3ef858c784ec99c4afb7b995": {
                            "nonce": "0x00",
                            "balance": "0x046404ea",
                            "code": "0x7f00000000000000000000000000000000000000000000000000000000000000007f00000000000000000000000000000000000000000000000000000000000000007f00000000000000000000000100000000000000000000000000000000000000007f000000000000000000000000ffffffffffffffffffffffffffffffffffffffff437f00000000000000000000000100000000000000000000000000000000000000007f00000000000000000000000000000000000000000000000000000000000000017f000000000000000000000000000000000000000000000000000000000000c3506f6253443a4104027144577f339983205560005155",
                            "storage": {
                                "0x00": "0x6253443a4104027144577f3399832055"
                            }
                        }
                    }
                }
            ]
        },
        "config": {
            "blobSchedule": {
                "Cancun": {
                    "target": "0x03",
                    "max": "0x06",
                    "baseFeeUpdateFraction": "0x32f0ed"
                },
                "Prague": {
                    "target": "0x06",
                    "max": "0x09",
                    "baseFeeUpdateFraction": "0x4c6964"
                },
                "Osaka": {
                    "target": "0x06",
                    "max": "0x09",
                    "baseFeeUpdateFraction": "0x4c6964"
                }
            },
            "chainid": "0x01"
        },
        "_info": {
            "hash": "0x89bbafbd3ecb0bc84e952520d965e6f6d2cc374376aa0d492dd4014c035cc641",
            "comment": "`execution-spec-tests` generated test",
            "filling-transition-tool": "ethereum-spec-evm-resolver 0.0.5",
            "description": "No description available - add a docstring to the python test class or function.",
            "url": "",
            "fixture-format": "state_test",
            "eels-resolution": {
                "git-url": "https://github.com/marioevz/execution-specs.git",
                "branch": "forks/bpo1",
                "commit": "3387e5f4aedfe99becfdc39b444d6371e25e0924"
            }
        }
    },
    "tests/static/state_tests/stRandom/randomStatetest219Filler.json::randomStatetest219[fork_Prague-state_test-]": {
        "env": {
            "currentCoinbase": "0x74e53a07ff73364e3ef858c784ec99c4afb7b895",
            "currentGasLimit": "0x7fffffffffffffff",
            "currentNumber": "0x01",
            "currentTimestamp": "0x03e8",
            "currentRandom": "0x0000000000000000000000000000000000000000000000000000000000020000",
            "currentDifficulty": "0x00",
            "currentBaseFee": "0x0a",
            "currentExcessBlobGas": "0x00"
        },
        "pre": {
            "0xb573b30d8bfa9c5ab625c147a8ee1d946bcde279": {
                "nonce": "0x00",
                "balance": "0x0de0b6b3a7640000",
                "code": "0x",
                "storage": {}
            },
            "0x74e53a07ff73364e3ef858c784ec99c4afb7b895": {
                "nonce": "0x00",
                "balance": "0x2e",
                "code": "0x6000355415600957005b60203560003555",
                "storage": {}
            },
            "0x74e53a07ff73364e3ef858c784ec99c4afb7b995": {
                "nonce": "0x00",
                "balance": "0x00",
                "code": "0x7f00000000000000000000000000000000000000000000000000000000000000007f00000000000000000000000000000000000000000000000000000000000000007f00000000000000000000000100000000000000000000000000000000000000007f000000000000000000000000ffffffffffffffffffffffffffffffffffffffff437f00000000000000000000000100000000000000000000000000000000000000007f00000000000000000000000000000000000000000000000000000000000000017f000000000000000000000000000000000000000000000000000000000000c3506f6253443a4104027144577f339983205560005155",
                "storage": {}
            }
        },
        "transaction": {
            "nonce": "0x00",
            "gasPrice": "0x0a",
            "gasLimit": [
                "0x0186a0"
            ],
            "to": "0x74e53a07ff73364e3ef858c784ec99c4afb7b995",
            "value": [
                "0x046404ea"
            ],
            "data": [
                "0x7f00000000000000000000000000000000000000000000000000000000000000007f00000000000000000000000000000000000000000000000000000000000000007f00000000000000000000000100000000000000000000000000000000000000007f000000000000000000000000ffffffffffffffffffffffffffffffffffffffff437f00000000000000000000000100000000000000000000000000000000000000007f00000000000000000000000000000000000000000000000000000000000000017f000000000000000000000000000000000000000000000000000000000000c3506f6253443a4104027144577f33998320"
            ],
            "sender": "0xb573b30d8bfa9c5ab625c147a8ee1d946bcde279",
            "secretKey": "0xb7027321e887781056314a5574e53a07ff73364e3ef858c784ec99c4afb7b895"
        },
        "post": {
            "Prague": [
                {
                    "hash": "0xab73b2422226f5a080c092edcfe249ebd14e9367e49fe8eead51ca318682ad32",
                    "logs": "0x1dcc4de8dec75d7aab85b567b6ccd41ad312451b948a7413f0a142fd40d49347",
                    "txbytes": "0xf9015d800a830186a09474e53a07ff73364e3ef858c784ec99c4afb7b99584046404eab8f87f00000000000000000000000000000000000000000000000000000000000000007f00000000000000000000000000000000000000000000000000000000000000007f00000000000000000000000100000000000000000000000000000000000000007f000000000000000000000000ffffffffffffffffffffffffffffffffffffffff437f00000000000000000000000100000000000000000000000000000000000000007f00000000000000000000000000000000000000000000000000000000000000017f000000000000000000000000000000000000000000000000000000000000c3506f6253443a4104027144577f3399832025a0e9c2a7d86bad0007bea00bce6766a33e2317041f29c2057dbd8a438f6ab104fda0700e425932e55f0eda23159adac6a39885b0210139ef816f9438a85c3e474b96",
                    "indexes": {
                        "data": 0,
                        "gas": 0,
                        "value": 0
                    },
                    "state": {
                        "0xb573b30d8bfa9c5ab625c147a8ee1d946bcde279": {
                            "nonce": "0x01",
                            "balance": "0x0de0b6b3a2f92868",
                            "code": "0x",
                            "storage": {}
                        },
                        "0x74e53a07ff73364e3ef858c784ec99c4afb7b895": {
                            "nonce": "0x00",
                            "balance": "0x2e",
                            "code": "0x6000355415600957005b60203560003555",
                            "storage": {}
                        },
                        "0x74e53a07ff73364e3ef858c784ec99c4afb7b995": {
                            "nonce": "0x00",
                            "balance": "0x046404ea",
                            "code": "0x7f00000000000000000000000000000000000000000000000000000000000000007f00000000000000000000000000000000000000000000000000000000000000007f00000000000000000000000100000000000000000000000000000000000000007f000000000000000000000000ffffffffffffffffffffffffffffffffffffffff437f00000000000000000000000100000000000000000000000000000000000000007f00000000000000000000000000000000000000000000000000000000000000017f000000000000000000000000000000000000000000000000000000000000c3506f6253443a4104027144577f339983205560005155",
                            "storage": {
                                "0x00": "0x6253443a4104027144577f3399832055"
                            }
                        }
                    }
                }
            ]
        },
        "config": {
            "blobSchedule": {
                "Cancun": {
                    "target": "0x03",
                    "max": "0x06",
                    "baseFeeUpdateFraction": "0x32f0ed"
                },
                "Prague": {
                    "target": "0x06",
                    "max": "0x09",
                    "baseFeeUpdateFraction": "0x4c6964"
                }
            },
            "chainid": "0x01"
        },
        "_info": {
            "hash": "0x06af4905683e8f1ba3d5660276de29354fbd0bbb73ff2c506ef8a4cdae31cfe3",
            "comment": "`execution-spec-tests` generated test",
            "filling-transition-tool": "ethereum-spec-evm-resolver 0.0.5",
            "description": "No description available - add a docstring to the python test class or function.",
            "url": "",
            "fixture-format": "state_test",
            "eels-resolution": {
                "git-url": "https://github.com/marioevz/execution-specs.git",
                "branch": "forks/bpo1",
                "commit": "3387e5f4aedfe99becfdc39b444d6371e25e0924"
            }
        }
    }
}