{
    "tests/static/state_tests/stRandom/randomStatetest54Filler.json::randomStatetest54[fork_Cancun-state_test-]": {
        "env": {
            "currentCoinbase": "0x9dac9648c19ae2507440c5f6e6c1678e5a819911",
            "currentGasLimit": "0x7fffffffffffffff",
            "currentNumber": "0x01",
            "currentTimestamp": "0x03e8",
            "currentRandom": "0x0000000000000000000000000000000000000000000000000000000000020000",
            "currentDifficulty": "0x00",
            "currentBaseFee": "0x0a",
            "currentExcessBlobGas": "0x00"
        },
        "pre": {
            "0x571fb428ff8ffcd0d1a1b9e1472c9d8aa84c08b2": {
                "nonce": "0x00",
                "balance": "0x0de0b6b3a7640000",
                "code": "0x",
                "storage": {}
            },
            "0x9dac9648c19ae2507440c5f6e6c1678e5a819911": {
                "nonce": "0x00",
                "balance": "0x2e",
                "code": "0x6000355415600957005b60203560003555",
                "storage": {}
            },
            "0x9dac9648c19ae2507440c5f6e6c1678e5a819a11": {
                "nonce": "0x00",
                "balance": "0x00",
                "code": "0x7f0000000000000000000000009dac9648c19ae2507440c5f6e6c1678e5a8199117f000000000000000000000000ffffffffffffffffffffffffffffffffffffffff7f00000000000000000000000100000000000000000000000000000000000000007f00000000000000000000000100000000000000000000000000000000000000007f000000000000000000000000ffffffffffffffffffffffffffffffffffffffff7f000000000000000000000000ffffffffffffffffffffffffffffffffffffffff7ffffffffffffffffffffffffffffffffffffffffffffffffffffffffffffffffe7f0000000000000000000000000000000000000000000000000000000000000001c9206e3b8f9d858f438a",
                "storage": {}
            }
        },
        "transaction": {
            "nonce": "0x00",
            "gasPrice": "0x0a",
            "gasLimit": [
                "0x0186a0"
            ],
            "to": "0x9dac9648c19ae2507440c5f6e6c1678e5a819a11",
            "value": [
                "0x4602ad8c"
            ],
            "data": [
                "0x7f0000000000000000000000009dac9648c19ae2507440c5f6e6c1678e5a8199117f000000000000000000000000ffffffffffffffffffffffffffffffffffffffff7f00000000000000000000000100000000000000000000000000000000000000007f00000000000000000000000100000000000000000000000000000000000000007f000000000000000000000000ffffffffffffffffffffffffffffffffffffffff7f000000000000000000000000ffffffffffffffffffffffffffffffffffffffff7ffffffffffffffffffffffffffffffffffffffffffffffffffffffffffffffffe7f0000000000000000000000000000000000000000000000000000000000000001c9206e3b8f9d858f438a"
            ],
            "sender": "0x571fb428ff8ffcd0d1a1b9e1472c9d8aa84c08b2",
            "secretKey": "0x885246173ca7e40962ee62129dac9648c19ae2507440c5f6e6c1678e5a819911"
        },
        "post": {
            "Cancun": [
                {
                    "hash": "0xb4d7b9d0193c2e9820a748264c106b5d67fa19c123f45a7a76d597e3d591b112",
                    "logs": "0x1dcc4de8dec75d7aab85b567b6ccd41ad312451b948a7413f0a142fd40d49347",
                    "txbytes": "0xf90178800a830186a0949dac9648c19ae2507440c5f6e6c1678e5a819a11844602ad8cb901127f0000000000000000000000009dac9648c19ae2507440c5f6e6c1678e5a8199117f000000000000000000000000ffffffffffffffffffffffffffffffffffffffff7f00000000000000000000000100000000000000000000000000000000000000007f00000000000000000000000100000000000000000000000000000000000000007f000000000000000000000000ffffffffffffffffffffffffffffffffffffffff7f000000000000000000000000ffffffffffffffffffffffffffffffffffffffff7ffffffffffffffffffffffffffffffffffffffffffffffffffffffffffffffffe7f0000000000000000000000000000000000000000000000000000000000000001c9206e3b8f9d858f438a26a0bbed84a4fae980d87fc9df0e9bebcc1387f68430bdf63e8a5e2e43d4b21c6e3ea06c8fc4a387de87a2a630faf4e6b53efb486cde661b4ace89696f07d016ea71b7",
                    "indexes": {
                        "data": 0,
                        "gas": 0,
                        "value": 0
                    },
                    "state": {
                        "0x571fb428ff8ffcd0d1a1b9e1472c9d8aa84c08b2": {
                            "nonce": "0x01",
                            "balance": "0x0de0b6b3a754bdc0",
                            "code": "0x",
                            "storage": {}
                        },
                        "0x9dac9648c19ae2507440c5f6e6c1678e5a819911": {
                            "nonce": "0x00",
                            "balance": "0x2e",
                            "code": "0x6000355415600957005b60203560003555",
                            "storage": {}
                        },
                        "0x9dac9648c19ae2507440c5f6e6c1678e5a819a11": {
                            "nonce": "0x00",
                            "balance": "0x00",
                            "code": "0x7f0000000000000000000000009dac9648c19ae2507440c5f6e6c1678e5a8199117f000000000000000000000000ffffffffffffffffffffffffffffffffffffffff7f00000000000000000000000100000000000000000000000000000000000000007f00000000000000000000000100000000000000000000000000000000000000007f000000000000000000000000ffffffffffffffffffffffffffffffffffffffff7f000000000000000000000000ffffffffffffffffffffffffffffffffffffffff7ffffffffffffffffffffffffffffffffffffffffffffffffffffffffffffffffe7f0000000000000000000000000000000000000000000000000000000000000001c9206e3b8f9d858f438a",
                            "storage": {}
                        }
                    }
                }
            ]
        },
        "config": {
            "blobSchedule": {
                "Cancun": {
                    "target": "0x03",
                    "max": "0x06",
                    "baseFeeUpdateFraction": "0x32f0ed"
                }
            },
            "chainid": "0x01"
        },
        "_info": {
            "hash": "0x584abc224414fd171aebe5938dfbe84da7ae206493936e8403d7ac80f02710c4",
            "comment": "`execution-spec-tests` generated test",
            "filling-transition-tool": "ethereum-spec-evm-resolver 0.0.5",
            "description": "No description available - add a docstring to the python test class or function.",
            "url": "",
            "fixture-format": "state_test",
            "eels-resolution": {
                "git-url": "https://github.com/ethereum/execution-specs.git",
                "branch": "forks/bpos",
                "commit": "7aacb2c54111391af5e98c505d5010b5698a770f"
            }
        }
    },
    "tests/static/state_tests/stRandom/randomStatetest54Filler.json::randomStatetest54[fork_Osaka-state_test-]": {
        "env": {
            "currentCoinbase": "0x9dac9648c19ae2507440c5f6e6c1678e5a819911",
            "currentGasLimit": "0x7fffffffffffffff",
            "currentNumber": "0x01",
            "currentTimestamp": "0x03e8",
            "currentRandom": "0x0000000000000000000000000000000000000000000000000000000000020000",
            "currentDifficulty": "0x00",
            "currentBaseFee": "0x0a",
            "currentExcessBlobGas": "0x00"
        },
        "pre": {
            "0x571fb428ff8ffcd0d1a1b9e1472c9d8aa84c08b2": {
                "nonce": "0x00",
                "balance": "0x0de0b6b3a7640000",
                "code": "0x",
                "storage": {}
            },
            "0x9dac9648c19ae2507440c5f6e6c1678e5a819911": {
                "nonce": "0x00",
                "balance": "0x2e",
                "code": "0x6000355415600957005b60203560003555",
                "storage": {}
            },
            "0x9dac9648c19ae2507440c5f6e6c1678e5a819a11": {
                "nonce": "0x00",
                "balance": "0x00",
                "code": "0x7f0000000000000000000000009dac9648c19ae2507440c5f6e6c1678e5a8199117f000000000000000000000000ffffffffffffffffffffffffffffffffffffffff7f00000000000000000000000100000000000000000000000000000000000000007f00000000000000000000000100000000000000000000000000000000000000007f000000000000000000000000ffffffffffffffffffffffffffffffffffffffff7f000000000000000000000000ffffffffffffffffffffffffffffffffffffffff7ffffffffffffffffffffffffffffffffffffffffffffffffffffffffffffffffe7f0000000000000000000000000000000000000000000000000000000000000001c9206e3b8f9d858f438a",
                "storage": {}
            }
        },
        "transaction": {
            "nonce": "0x00",
            "gasPrice": "0x0a",
            "gasLimit": [
                "0x0186a0"
            ],
            "to": "0x9dac9648c19ae2507440c5f6e6c1678e5a819a11",
            "value": [
                "0x4602ad8c"
            ],
            "data": [
                "0x7f0000000000000000000000009dac9648c19ae2507440c5f6e6c1678e5a8199117f000000000000000000000000ffffffffffffffffffffffffffffffffffffffff7f00000000000000000000000100000000000000000000000000000000000000007f00000000000000000000000100000000000000000000000000000000000000007f000000000000000000000000ffffffffffffffffffffffffffffffffffffffff7f000000000000000000000000ffffffffffffffffffffffffffffffffffffffff7ffffffffffffffffffffffffffffffffffffffffffffffffffffffffffffffffe7f0000000000000000000000000000000000000000000000000000000000000001c9206e3b8f9d858f438a"
            ],
            "sender": "0x571fb428ff8ffcd0d1a1b9e1472c9d8aa84c08b2",
            "secretKey": "0x885246173ca7e40962ee62129dac9648c19ae2507440c5f6e6c1678e5a819911"
        },
        "post": {
            "Osaka": [
                {
                    "hash": "0xb4d7b9d0193c2e9820a748264c106b5d67fa19c123f45a7a76d597e3d591b112",
                    "logs": "0x1dcc4de8dec75d7aab85b567b6ccd41ad312451b948a7413f0a142fd40d49347",
                    "txbytes": "0xf90178800a830186a0949dac9648c19ae2507440c5f6e6c1678e5a819a11844602ad8cb901127f0000000000000000000000009dac9648c19ae2507440c5f6e6c1678e5a8199117f000000000000000000000000ffffffffffffffffffffffffffffffffffffffff7f00000000000000000000000100000000000000000000000000000000000000007f00000000000000000000000100000000000000000000000000000000000000007f000000000000000000000000ffffffffffffffffffffffffffffffffffffffff7f000000000000000000000000ffffffffffffffffffffffffffffffffffffffff7ffffffffffffffffffffffffffffffffffffffffffffffffffffffffffffffffe7f0000000000000000000000000000000000000000000000000000000000000001c9206e3b8f9d858f438a26a0bbed84a4fae980d87fc9df0e9bebcc1387f68430bdf63e8a5e2e43d4b21c6e3ea06c8fc4a387de87a2a630faf4e6b53efb486cde661b4ace89696f07d016ea71b7",
                    "indexes": {
                        "data": 0,
                        "gas": 0,
                        "value": 0
                    },
                    "state": {
                        "0x571fb428ff8ffcd0d1a1b9e1472c9d8aa84c08b2": {
                            "nonce": "0x01",
                            "balance": "0x0de0b6b3a754bdc0",
                            "code": "0x",
                            "storage": {}
                        },
                        "0x9dac9648c19ae2507440c5f6e6c1678e5a819911": {
                            "nonce": "0x00",
                            "balance": "0x2e",
                            "code": "0x6000355415600957005b60203560003555",
                            "storage": {}
                        },
                        "0x9dac9648c19ae2507440c5f6e6c1678e5a819a11": {
                            "nonce": "0x00",
                            "balance": "0x00",
                            "code": "0x7f0000000000000000000000009dac9648c19ae2507440c5f6e6c1678e5a8199117f000000000000000000000000ffffffffffffffffffffffffffffffffffffffff7f00000000000000000000000100000000000000000000000000000000000000007f00000000000000000000000100000000000000000000000000000000000000007f000000000000000000000000ffffffffffffffffffffffffffffffffffffffff7f000000000000000000000000ffffffffffffffffffffffffffffffffffffffff7ffffffffffffffffffffffffffffffffffffffffffffffffffffffffffffffffe7f0000000000000000000000000000000000000000000000000000000000000001c9206e3b8f9d858f438a",
                            "storage": {}
                        }
                    }
                }
            ]
        },
        "config": {
            "blobSchedule": {
                "Cancun": {
                    "target": "0x03",
                    "max": "0x06",
                    "baseFeeUpdateFraction": "0x32f0ed"
                },
                "Prague": {
                    "target": "0x06",
                    "max": "0x09",
                    "baseFeeUpdateFraction": "0x4c6964"
                },
                "Osaka": {
                    "target": "0x06",
                    "max": "0x09",
                    "baseFeeUpdateFraction": "0x4c6964"
                }
            },
            "chainid": "0x01"
        },
        "_info": {
            "hash": "0xf8a96cf49584f6990c5f6c19bf6072e2d8473ec9f7614b0ad5c5793dcfa53e97",
            "comment": "`execution-spec-tests` generated test",
            "filling-transition-tool": "ethereum-spec-evm-resolver 0.0.5",
            "description": "No description available - add a docstring to the python test class or function.",
            "url": "",
            "fixture-format": "state_test",
            "eels-resolution": {
                "git-url": "https://github.com/ethereum/execution-specs.git",
                "branch": "forks/bpos",
                "commit": "7aacb2c54111391af5e98c505d5010b5698a770f"
            }
        }
    },
    "tests/static/state_tests/stRandom/randomStatetest54Filler.json::randomStatetest54[fork_Prague-state_test-]": {
        "env": {
            "currentCoinbase": "0x9dac9648c19ae2507440c5f6e6c1678e5a819911",
            "currentGasLimit": "0x7fffffffffffffff",
            "currentNumber": "0x01",
            "currentTimestamp": "0x03e8",
            "currentRandom": "0x0000000000000000000000000000000000000000000000000000000000020000",
            "currentDifficulty": "0x00",
            "currentBaseFee": "0x0a",
            "currentExcessBlobGas": "0x00"
        },
        "pre": {
            "0x571fb428ff8ffcd0d1a1b9e1472c9d8aa84c08b2": {
                "nonce": "0x00",
                "balance": "0x0de0b6b3a7640000",
                "code": "0x",
                "storage": {}
            },
            "0x9dac9648c19ae2507440c5f6e6c1678e5a819911": {
                "nonce": "0x00",
                "balance": "0x2e",
                "code": "0x6000355415600957005b60203560003555",
                "storage": {}
            },
            "0x9dac9648c19ae2507440c5f6e6c1678e5a819a11": {
                "nonce": "0x00",
                "balance": "0x00",
                "code": "0x7f0000000000000000000000009dac9648c19ae2507440c5f6e6c1678e5a8199117f000000000000000000000000ffffffffffffffffffffffffffffffffffffffff7f00000000000000000000000100000000000000000000000000000000000000007f00000000000000000000000100000000000000000000000000000000000000007f000000000000000000000000ffffffffffffffffffffffffffffffffffffffff7f000000000000000000000000ffffffffffffffffffffffffffffffffffffffff7ffffffffffffffffffffffffffffffffffffffffffffffffffffffffffffffffe7f0000000000000000000000000000000000000000000000000000000000000001c9206e3b8f9d858f438a",
                "storage": {}
            }
        },
        "transaction": {
            "nonce": "0x00",
            "gasPrice": "0x0a",
            "gasLimit": [
                "0x0186a0"
            ],
            "to": "0x9dac9648c19ae2507440c5f6e6c1678e5a819a11",
            "value": [
                "0x4602ad8c"
            ],
            "data": [
                "0x7f0000000000000000000000009dac9648c19ae2507440c5f6e6c1678e5a8199117f000000000000000000000000ffffffffffffffffffffffffffffffffffffffff7f00000000000000000000000100000000000000000000000000000000000000007f00000000000000000000000100000000000000000000000000000000000000007f000000000000000000000000ffffffffffffffffffffffffffffffffffffffff7f000000000000000000000000ffffffffffffffffffffffffffffffffffffffff7ffffffffffffffffffffffffffffffffffffffffffffffffffffffffffffffffe7f0000000000000000000000000000000000000000000000000000000000000001c9206e3b8f9d858f438a"
            ],
            "sender": "0x571fb428ff8ffcd0d1a1b9e1472c9d8aa84c08b2",
            "secretKey": "0x885246173ca7e40962ee62129dac9648c19ae2507440c5f6e6c1678e5a819911"
        },
        "post": {
            "Prague": [
                {
                    "hash": "0xb4d7b9d0193c2e9820a748264c106b5d67fa19c123f45a7a76d597e3d591b112",
                    "logs": "0x1dcc4de8dec75d7aab85b567b6ccd41ad312451b948a7413f0a142fd40d49347",
                    "txbytes": "0xf90178800a830186a0949dac9648c19ae2507440c5f6e6c1678e5a819a11844602ad8cb901127f0000000000000000000000009dac9648c19ae2507440c5f6e6c1678e5a8199117f000000000000000000000000ffffffffffffffffffffffffffffffffffffffff7f00000000000000000000000100000000000000000000000000000000000000007f00000000000000000000000100000000000000000000000000000000000000007f000000000000000000000000ffffffffffffffffffffffffffffffffffffffff7f000000000000000000000000ffffffffffffffffffffffffffffffffffffffff7ffffffffffffffffffffffffffffffffffffffffffffffffffffffffffffffffe7f0000000000000000000000000000000000000000000000000000000000000001c9206e3b8f9d858f438a26a0bbed84a4fae980d87fc9df0e9bebcc1387f68430bdf63e8a5e2e43d4b21c6e3ea06c8fc4a387de87a2a630faf4e6b53efb486cde661b4ace89696f07d016ea71b7",
                    "indexes": {
                        "data": 0,
                        "gas": 0,
                        "value": 0
                    },
                    "state": {
                        "0x571fb428ff8ffcd0d1a1b9e1472c9d8aa84c08b2": {
                            "nonce": "0x01",
                            "balance": "0x0de0b6b3a754bdc0",
                            "code": "0x",
                            "storage": {}
                        },
                        "0x9dac9648c19ae2507440c5f6e6c1678e5a819911": {
                            "nonce": "0x00",
                            "balance": "0x2e",
                            "code": "0x6000355415600957005b60203560003555",
                            "storage": {}
                        },
                        "0x9dac9648c19ae2507440c5f6e6c1678e5a819a11": {
                            "nonce": "0x00",
                            "balance": "0x00",
                            "code": "0x7f0000000000000000000000009dac9648c19ae2507440c5f6e6c1678e5a8199117f000000000000000000000000ffffffffffffffffffffffffffffffffffffffff7f00000000000000000000000100000000000000000000000000000000000000007f00000000000000000000000100000000000000000000000000000000000000007f000000000000000000000000ffffffffffffffffffffffffffffffffffffffff7f000000000000000000000000ffffffffffffffffffffffffffffffffffffffff7ffffffffffffffffffffffffffffffffffffffffffffffffffffffffffffffffe7f0000000000000000000000000000000000000000000000000000000000000001c9206e3b8f9d858f438a",
                            "storage": {}
                        }
                    }
                }
            ]
        },
        "config": {
            "blobSchedule": {
                "Cancun": {
                    "target": "0x03",
                    "max": "0x06",
                    "baseFeeUpdateFraction": "0x32f0ed"
                },
                "Prague": {
                    "target": "0x06",
                    "max": "0x09",
                    "baseFeeUpdateFraction": "0x4c6964"
                }
            },
            "chainid": "0x01"
        },
        "_info": {
            "hash": "0xdd3d9ef3b7d14614f24bb52158fecc3158387113a64bacdf55ff102da750cc01",
            "comment": "`execution-spec-tests` generated test",
            "filling-transition-tool": "ethereum-spec-evm-resolver 0.0.5",
            "description": "No description available - add a docstring to the python test class or function.",
            "url": "",
            "fixture-format": "state_test",
            "eels-resolution": {
                "git-url": "https://github.com/ethereum/execution-specs.git",
                "branch": "forks/bpos",
                "commit": "7aacb2c54111391af5e98c505d5010b5698a770f"
            }
        }
    }
}