{
    "tests/static/state_tests/stRandom/randomStatetest158Filler.json::randomStatetest158[fork_Cancun-state_test-]": {
        "env": {
            "currentCoinbase": "0xfbeaf3853b3847ebd350321d86e10bfffed8e7ea",
            "currentGasLimit": "0x7fffffffffffffff",
            "currentNumber": "0x01",
            "currentTimestamp": "0x03e8",
            "currentRandom": "0x0000000000000000000000000000000000000000000000000000000000020000",
            "currentDifficulty": "0x00",
            "currentBaseFee": "0x0a",
            "currentExcessBlobGas": "0x00"
        },
        "pre": {
            "0xb070d0e802036f621afe8f33d1c484dc85205471": {
                "nonce": "0x00",
                "balance": "0x0de0b6b3a7640000",
                "code": "0x",
                "storage": {}
            },
            "0xfbeaf3853b3847ebd350321d86e10bfffed8e7ea": {
                "nonce": "0x00",
                "balance": "0x2e",
                "code": "0x6000355415600957005b60203560003555",
                "storage": {}
            },
            "0xfbeaf3853b3847ebd350321d86e10bfffed8e8ea": {
                "nonce": "0x00",
                "balance": "0x00",
                "code": "0x7f000000000000000000000000fbeaf3853b3847ebd350321d86e10bfffed8e7ea7f00000000000000000000000100000000000000000000000000000000000000007ffffffffffffffffffffffffffffffffffffffffffffffffffffffffffffffffe7f000000000000000000000000ffffffffffffffffffffffffffffffffffffffff7f00000000000000000000000000000000000000000000000000000000000000017f00000000000000000000000000000000000000000000000000000000000000017f00000000000000000000000100000000000000000000000000000000000000007ffffffffffffffffffffffffffffffffffffffffffffffffffffffffffffffffe435060005155",
                "storage": {}
            }
        },
        "transaction": {
            "nonce": "0x00",
            "gasPrice": "0x0a",
            "gasLimit": [
                "0x0186a0"
            ],
            "to": "0xfbeaf3853b3847ebd350321d86e10bfffed8e8ea",
            "value": [
                "0x383bfc76"
            ],
            "data": [
                "0x7f000000000000000000000000fbeaf3853b3847ebd350321d86e10bfffed8e7ea7f00000000000000000000000100000000000000000000000000000000000000007ffffffffffffffffffffffffffffffffffffffffffffffffffffffffffffffffe7f000000000000000000000000ffffffffffffffffffffffffffffffffffffffff7f00000000000000000000000000000000000000000000000000000000000000017f00000000000000000000000000000000000000000000000000000000000000017f00000000000000000000000100000000000000000000000000000000000000007ffffffffffffffffffffffffffffffffffffffffffffffffffffffffffffffffe4350"
            ],
            "sender": "0xb070d0e802036f621afe8f33d1c484dc85205471",
            "secretKey": "0xc7fe4030292946dc0a5f0a3efbeaf3853b3847ebd350321d86e10bfffed8e7ea"
        },
        "post": {
            "Cancun": [
                {
                    "hash": "0x5193bd35e4f12efdbc22ffaa82172c57be448d4cf3aaa11cded107e77638e22f",
                    "logs": "0x1dcc4de8dec75d7aab85b567b6ccd41ad312451b948a7413f0a142fd40d49347",
                    "txbytes": "0xf90170800a830186a094fbeaf3853b3847ebd350321d86e10bfffed8e8ea84383bfc76b9010a7f000000000000000000000000fbeaf3853b3847ebd350321d86e10bfffed8e7ea7f00000000000000000000000100000000000000000000000000000000000000007ffffffffffffffffffffffffffffffffffffffffffffffffffffffffffffffffe7f000000000000000000000000ffffffffffffffffffffffffffffffffffffffff7f00000000000000000000000000000000000000000000000000000000000000017f00000000000000000000000000000000000000000000000000000000000000017f00000000000000000000000100000000000000000000000000000000000000007ffffffffffffffffffffffffffffffffffffffffffffffffffffffffffffffffe435025a0bad89b153bb48922303f48d6df1f89e73deffa57f3a4d98843924e6262b565e8a027c1fcb8edd4be815ef5630921377a632b50bb9c91112280d2fc26764b7b75e9",
                    "indexes": {
                        "data": 0,
                        "gas": 0,
                        "value": 0
                    },
                    "state": {
                        "0xb070d0e802036f621afe8f33d1c484dc85205471": {
                            "nonce": "0x01",
                            "balance": "0x0de0b6b36f210da0",
                            "code": "0x",
                            "storage": {}
                        },
                        "0xfbeaf3853b3847ebd350321d86e10bfffed8e7ea": {
                            "nonce": "0x00",
                            "balance": "0x2e",
                            "code": "0x6000355415600957005b60203560003555",
                            "storage": {}
                        },
                        "0xfbeaf3853b3847ebd350321d86e10bfffed8e8ea": {
                            "nonce": "0x00",
                            "balance": "0x383bfc76",
                            "code": "0x7f000000000000000000000000fbeaf3853b3847ebd350321d86e10bfffed8e7ea7f00000000000000000000000100000000000000000000000000000000000000007ffffffffffffffffffffffffffffffffffffffffffffffffffffffffffffffffe7f000000000000000000000000ffffffffffffffffffffffffffffffffffffffff7f00000000000000000000000000000000000000000000000000000000000000017f00000000000000000000000000000000000000000000000000000000000000017f00000000000000000000000100000000000000000000000000000000000000007ffffffffffffffffffffffffffffffffffffffffffffffffffffffffffffffffe435060005155",
                            "storage": {
                                "0x00": "0xfffffffffffffffffffffffffffffffffffffffffffffffffffffffffffffffe"
                            }
                        }
                    }
                }
            ]
        },
        "config": {
            "blobSchedule": {
                "Cancun": {
                    "target": "0x03",
                    "max": "0x06",
                    "baseFeeUpdateFraction": "0x32f0ed"
                }
            },
            "chainid": "0x01"
        },
        "_info": {
            "hash": "0x502143095f09a2b93579af93009d1525f361efaaa9df9f03092275ce91aac348",
            "comment": "`execution-spec-tests` generated test",
            "filling-transition-tool": "ethereum-spec-evm-resolver 0.0.5",
            "description": "No description available - add a docstring to the python test class or function.",
            "url": "",
            "fixture-format": "state_test",
            "eels-resolution": {
                "git-url": "https://github.com/marioevz/execution-specs.git",
                "branch": "forks/bpo1",
                "commit": "3387e5f4aedfe99becfdc39b444d6371e25e0924"
            }
        }
    },
    "tests/static/state_tests/stRandom/randomStatetest158Filler.json::randomStatetest158[fork_Osaka-state_test-]": {
        "env": {
            "currentCoinbase": "0xfbeaf3853b3847ebd350321d86e10bfffed8e7ea",
            "currentGasLimit": "0x7fffffffffffffff",
            "currentNumber": "0x01",
            "currentTimestamp": "0x03e8",
            "currentRandom": "0x0000000000000000000000000000000000000000000000000000000000020000",
            "currentDifficulty": "0x00",
            "currentBaseFee": "0x0a",
            "currentExcessBlobGas": "0x00"
        },
        "pre": {
            "0xb070d0e802036f621afe8f33d1c484dc85205471": {
                "nonce": "0x00",
                "balance": "0x0de0b6b3a7640000",
                "code": "0x",
                "storage": {}
            },
            "0xfbeaf3853b3847ebd350321d86e10bfffed8e7ea": {
                "nonce": "0x00",
                "balance": "0x2e",
                "code": "0x6000355415600957005b60203560003555",
                "storage": {}
            },
            "0xfbeaf3853b3847ebd350321d86e10bfffed8e8ea": {
                "nonce": "0x00",
                "balance": "0x00",
                "code": "0x7f000000000000000000000000fbeaf3853b3847ebd350321d86e10bfffed8e7ea7f00000000000000000000000100000000000000000000000000000000000000007ffffffffffffffffffffffffffffffffffffffffffffffffffffffffffffffffe7f000000000000000000000000ffffffffffffffffffffffffffffffffffffffff7f00000000000000000000000000000000000000000000000000000000000000017f00000000000000000000000000000000000000000000000000000000000000017f00000000000000000000000100000000000000000000000000000000000000007ffffffffffffffffffffffffffffffffffffffffffffffffffffffffffffffffe435060005155",
                "storage": {}
            }
        },
        "transaction": {
            "nonce": "0x00",
            "gasPrice": "0x0a",
            "gasLimit": [
                "0x0186a0"
            ],
            "to": "0xfbeaf3853b3847ebd350321d86e10bfffed8e8ea",
            "value": [
                "0x383bfc76"
            ],
            "data": [
                "0x7f000000000000000000000000fbeaf3853b3847ebd350321d86e10bfffed8e7ea7f00000000000000000000000100000000000000000000000000000000000000007ffffffffffffffffffffffffffffffffffffffffffffffffffffffffffffffffe7f000000000000000000000000ffffffffffffffffffffffffffffffffffffffff7f00000000000000000000000000000000000000000000000000000000000000017f00000000000000000000000000000000000000000000000000000000000000017f00000000000000000000000100000000000000000000000000000000000000007ffffffffffffffffffffffffffffffffffffffffffffffffffffffffffffffffe4350"
            ],
            "sender": "0xb070d0e802036f621afe8f33d1c484dc85205471",
            "secretKey": "0xc7fe4030292946dc0a5f0a3efbeaf3853b3847ebd350321d86e10bfffed8e7ea"
        },
        "post": {
            "Osaka": [
                {
                    "hash": "0x5193bd35e4f12efdbc22ffaa82172c57be448d4cf3aaa11cded107e77638e22f",
                    "logs": "0x1dcc4de8dec75d7aab85b567b6ccd41ad312451b948a7413f0a142fd40d49347",
                    "txbytes": "0xf90170800a830186a094fbeaf3853b3847ebd350321d86e10bfffed8e8ea84383bfc76b9010a7f000000000000000000000000fbeaf3853b3847ebd350321d86e10bfffed8e7ea7f00000000000000000000000100000000000000000000000000000000000000007ffffffffffffffffffffffffffffffffffffffffffffffffffffffffffffffffe7f000000000000000000000000ffffffffffffffffffffffffffffffffffffffff7f00000000000000000000000000000000000000000000000000000000000000017f00000000000000000000000000000000000000000000000000000000000000017f00000000000000000000000100000000000000000000000000000000000000007ffffffffffffffffffffffffffffffffffffffffffffffffffffffffffffffffe435025a0bad89b153bb48922303f48d6df1f89e73deffa57f3a4d98843924e6262b565e8a027c1fcb8edd4be815ef5630921377a632b50bb9c91112280d2fc26764b7b75e9",
                    "indexes": {
                        "data": 0,
                        "gas": 0,
                        "value": 0
                    },
                    "state": {
                        "0xb070d0e802036f621afe8f33d1c484dc85205471": {
                            "nonce": "0x01",
                            "balance": "0x0de0b6b36f210da0",
                            "code": "0x",
                            "storage": {}
                        },
                        "0xfbeaf3853b3847ebd350321d86e10bfffed8e7ea": {
                            "nonce": "0x00",
                            "balance": "0x2e",
                            "code": "0x6000355415600957005b60203560003555",
                            "storage": {}
                        },
                        "0xfbeaf3853b3847ebd350321d86e10bfffed8e8ea": {
                            "nonce": "0x00",
                            "balance": "0x383bfc76",
                            "code": "0x7f000000000000000000000000fbeaf3853b3847ebd350321d86e10bfffed8e7ea7f00000000000000000000000100000000000000000000000000000000000000007ffffffffffffffffffffffffffffffffffffffffffffffffffffffffffffffffe7f000000000000000000000000ffffffffffffffffffffffffffffffffffffffff7f00000000000000000000000000000000000000000000000000000000000000017f00000000000000000000000000000000000000000000000000000000000000017f00000000000000000000000100000000000000000000000000000000000000007ffffffffffffffffffffffffffffffffffffffffffffffffffffffffffffffffe435060005155",
                            "storage": {
                                "0x00": "0xfffffffffffffffffffffffffffffffffffffffffffffffffffffffffffffffe"
                            }
                        }
                    }
                }
            ]
        },
        "config": {
            "blobSchedule": {
                "Cancun": {
                    "target": "0x03",
                    "max": "0x06",
                    "baseFeeUpdateFraction": "0x32f0ed"
                },
                "Prague": {
                    "target": "0x06",
                    "max": "0x09",
                    "baseFeeUpdateFraction": "0x4c6964"
                },
                "Osaka": {
                    "target": "0x06",
                    "max": "0x09",
                    "baseFeeUpdateFraction": "0x4c6964"
                }
            },
            "chainid": "0x01"
        },
        "_info": {
            "hash": "0xd81812ec733d84864a34edae9a6bedfe3e1806a64a912b165191ff7c96c1041c",
            "comment": "`execution-spec-tests` generated test",
            "filling-transition-tool": "ethereum-spec-evm-resolver 0.0.5",
            "description": "No description available - add a docstring to the python test class or function.",
            "url": "",
            "fixture-format": "state_test",
            "eels-resolution": {
                "git-url": "https://github.com/marioevz/execution-specs.git",
                "branch": "forks/bpo1",
                "commit": "3387e5f4aedfe99becfdc39b444d6371e25e0924"
            }
        }
    },
    "tests/static/state_tests/stRandom/randomStatetest158Filler.json::randomStatetest158[fork_Prague-state_test-]": {
        "env": {
            "currentCoinbase": "0xfbeaf3853b3847ebd350321d86e10bfffed8e7ea",
            "currentGasLimit": "0x7fffffffffffffff",
            "currentNumber": "0x01",
            "currentTimestamp": "0x03e8",
            "currentRandom": "0x0000000000000000000000000000000000000000000000000000000000020000",
            "currentDifficulty": "0x00",
            "currentBaseFee": "0x0a",
            "currentExcessBlobGas": "0x00"
        },
        "pre": {
            "0xb070d0e802036f621afe8f33d1c484dc85205471": {
                "nonce": "0x00",
                "balance": "0x0de0b6b3a7640000",
                "code": "0x",
                "storage": {}
            },
            "0xfbeaf3853b3847ebd350321d86e10bfffed8e7ea": {
                "nonce": "0x00",
                "balance": "0x2e",
                "code": "0x6000355415600957005b60203560003555",
                "storage": {}
            },
            "0xfbeaf3853b3847ebd350321d86e10bfffed8e8ea": {
                "nonce": "0x00",
                "balance": "0x00",
                "code": "0x7f000000000000000000000000fbeaf3853b3847ebd350321d86e10bfffed8e7ea7f00000000000000000000000100000000000000000000000000000000000000007ffffffffffffffffffffffffffffffffffffffffffffffffffffffffffffffffe7f000000000000000000000000ffffffffffffffffffffffffffffffffffffffff7f00000000000000000000000000000000000000000000000000000000000000017f00000000000000000000000000000000000000000000000000000000000000017f00000000000000000000000100000000000000000000000000000000000000007ffffffffffffffffffffffffffffffffffffffffffffffffffffffffffffffffe435060005155",
                "storage": {}
            }
        },
        "transaction": {
            "nonce": "0x00",
            "gasPrice": "0x0a",
            "gasLimit": [
                "0x0186a0"
            ],
            "to": "0xfbeaf3853b3847ebd350321d86e10bfffed8e8ea",
            "value": [
                "0x383bfc76"
            ],
            "data": [
                "0x7f000000000000000000000000fbeaf3853b3847ebd350321d86e10bfffed8e7ea7f00000000000000000000000100000000000000000000000000000000000000007ffffffffffffffffffffffffffffffffffffffffffffffffffffffffffffffffe7f000000000000000000000000ffffffffffffffffffffffffffffffffffffffff7f00000000000000000000000000000000000000000000000000000000000000017f00000000000000000000000000000000000000000000000000000000000000017f00000000000000000000000100000000000000000000000000000000000000007ffffffffffffffffffffffffffffffffffffffffffffffffffffffffffffffffe4350"
            ],
            "sender": "0xb070d0e802036f621afe8f33d1c484dc85205471",
            "secretKey": "0xc7fe4030292946dc0a5f0a3efbeaf3853b3847ebd350321d86e10bfffed8e7ea"
        },
        "post": {
            "Prague": [
                {
                    "hash": "0x5193bd35e4f12efdbc22ffaa82172c57be448d4cf3aaa11cded107e77638e22f",
                    "logs": "0x1dcc4de8dec75d7aab85b567b6ccd41ad312451b948a7413f0a142fd40d49347",
                    "txbytes": "0xf90170800a830186a094fbeaf3853b3847ebd350321d86e10bfffed8e8ea84383bfc76b9010a7f000000000000000000000000fbeaf3853b3847ebd350321d86e10bfffed8e7ea7f00000000000000000000000100000000000000000000000000000000000000007ffffffffffffffffffffffffffffffffffffffffffffffffffffffffffffffffe7f000000000000000000000000ffffffffffffffffffffffffffffffffffffffff7f00000000000000000000000000000000000000000000000000000000000000017f00000000000000000000000000000000000000000000000000000000000000017f00000000000000000000000100000000000000000000000000000000000000007ffffffffffffffffffffffffffffffffffffffffffffffffffffffffffffffffe435025a0bad89b153bb48922303f48d6df1f89e73deffa57f3a4d98843924e6262b565e8a027c1fcb8edd4be815ef5630921377a632b50bb9c91112280d2fc26764b7b75e9",
                    "indexes": {
                        "data": 0,
                        "gas": 0,
                        "value": 0
                    },
                    "state": {
                        "0xb070d0e802036f621afe8f33d1c484dc85205471": {
                            "nonce": "0x01",
                            "balance": "0x0de0b6b36f210da0",
                            "code": "0x",
                            "storage": {}
                        },
                        "0xfbeaf3853b3847ebd350321d86e10bfffed8e7ea": {
                            "nonce": "0x00",
                            "balance": "0x2e",
                            "code": "0x6000355415600957005b60203560003555",
                            "storage": {}
                        },
                        "0xfbeaf3853b3847ebd350321d86e10bfffed8e8ea": {
                            "nonce": "0x00",
                            "balance": "0x383bfc76",
                            "code": "0x7f000000000000000000000000fbeaf3853b3847ebd350321d86e10bfffed8e7ea7f00000000000000000000000100000000000000000000000000000000000000007ffffffffffffffffffffffffffffffffffffffffffffffffffffffffffffffffe7f000000000000000000000000ffffffffffffffffffffffffffffffffffffffff7f00000000000000000000000000000000000000000000000000000000000000017f00000000000000000000000000000000000000000000000000000000000000017f00000000000000000000000100000000000000000000000000000000000000007ffffffffffffffffffffffffffffffffffffffffffffffffffffffffffffffffe435060005155",
                            "storage": {
                                "0x00": "0xfffffffffffffffffffffffffffffffffffffffffffffffffffffffffffffffe"
                            }
                        }
                    }
                }
            ]
        },
        "config": {
            "blobSchedule": {
                "Cancun": {
                    "target": "0x03",
                    "max": "0x06",
                    "baseFeeUpdateFraction": "0x32f0ed"
                },
                "Prague": {
                    "target": "0x06",
                    "max": "0x09",
                    "baseFeeUpdateFraction": "0x4c6964"
                }
            },
            "chainid": "0x01"
        },
        "_info": {
            "hash": "0xec831fda9e791b573d2761d0327c2755412a38d5fd1dd84773db08892bb38396",
            "comment": "`execution-spec-tests` generated test",
            "filling-transition-tool": "ethereum-spec-evm-resolver 0.0.5",
            "description": "No description available - add a docstring to the python test class or function.",
            "url": "",
            "fixture-format": "state_test",
            "eels-resolution": {
                "git-url": "https://github.com/marioevz/execution-specs.git",
                "branch": "forks/bpo1",
                "commit": "3387e5f4aedfe99becfdc39b444d6371e25e0924"
            }
        }
    }
}