{
    "tests/static/state_tests/stRandom/randomStatetest78Filler.json::randomStatetest78[fork_Cancun-state_test-]": {
        "env": {
            "currentCoinbase": "0x4a1d9c2508e63412cfe86029faad78eae511f80e",
            "currentGasLimit": "0x7fffffffffffffff",
            "currentNumber": "0x01",
            "currentTimestamp": "0x03e8",
            "currentRandom": "0x0000000000000000000000000000000000000000000000000000000000020000",
            "currentDifficulty": "0x00",
            "currentBaseFee": "0x0a",
            "currentExcessBlobGas": "0x00"
        },
        "pre": {
            "0xa11457733448a2ba2e43d36bd35e3e9a440e504d": {
                "nonce": "0x00",
                "balance": "0x0de0b6b3a7640000",
                "code": "0x",
                "storage": {}
            },
            "0x4a1d9c2508e63412cfe86029faad78eae511f80e": {
                "nonce": "0x00",
                "balance": "0x2e",
                "code": "0x6000355415600957005b60203560003555",
                "storage": {}
            },
            "0x4a1d9c2508e63412cfe86029faad78eae511f90e": {
                "nonce": "0x00",
                "balance": "0x00",
                "code": "0x7f000000000000000000000000ffffffffffffffffffffffffffffffffffffffff7f0000000000000000000000004a1d9c2508e63412cfe86029faad78eae511f80e437f000000000000000000000000000000000000000000000000000000000000c3507f00000000000000000000000000000000000000000000000000000000000000007ffffffffffffffffffffffffffffffffffffffffffffffffffffffffffffffffe7ffffffffffffffffffffffffffffffffffffffffffffffffffffffffffffffffe7fffffffffffffffffffffffffffffffffffffffffffffffffffffffffffffffff1174648789aa349e0915aa5911",
                "storage": {}
            }
        },
        "transaction": {
            "nonce": "0x00",
            "gasPrice": "0x0a",
            "gasLimit": [
                "0x0186a0"
            ],
            "to": "0x4a1d9c2508e63412cfe86029faad78eae511f90e",
            "value": [
                "0x0ad2185d"
            ],
            "data": [
                "0x7f000000000000000000000000ffffffffffffffffffffffffffffffffffffffff7f0000000000000000000000004a1d9c2508e63412cfe86029faad78eae511f80e437f000000000000000000000000000000000000000000000000000000000000c3507f00000000000000000000000000000000000000000000000000000000000000007ffffffffffffffffffffffffffffffffffffffffffffffffffffffffffffffffe7ffffffffffffffffffffffffffffffffffffffffffffffffffffffffffffffffe7fffffffffffffffffffffffffffffffffffffffffffffffffffffffffffffffff1174648789aa349e0915aa5911"
            ],
            "sender": "0xa11457733448a2ba2e43d36bd35e3e9a440e504d",
            "secretKey": "0xc167842a6c9d09d756e5e7784a1d9c2508e63412cfe86029faad78eae511f80e"
        },
        "post": {
            "Cancun": [
                {
                    "hash": "0xe2af0a56f64347fb2742b682b0356551ea25d23701532738cce31a8757520c93",
                    "logs": "0x1dcc4de8dec75d7aab85b567b6ccd41ad312451b948a7413f0a142fd40d49347",
                    "txbytes": "0xf9015a800a830186a0944a1d9c2508e63412cfe86029faad78eae511f90e840ad2185db8f57f000000000000000000000000ffffffffffffffffffffffffffffffffffffffff7f0000000000000000000000004a1d9c2508e63412cfe86029faad78eae511f80e437f000000000000000000000000000000000000000000000000000000000000c3507f00000000000000000000000000000000000000000000000000000000000000007ffffffffffffffffffffffffffffffffffffffffffffffffffffffffffffffffe7ffffffffffffffffffffffffffffffffffffffffffffffffffffffffffffffffe7fffffffffffffffffffffffffffffffffffffffffffffffffffffffffffffffff1174648789aa349e0915aa591126a0d93f95451767c32fe00c58555c35bfc1504e33c1b63dcffae511721b32c96d83a03bc0cffee253056a940c468454bde77ab0de2e06df12cd2dec54367c4b2b26d9",
                    "indexes": {
                        "data": 0,
                        "gas": 0,
                        "value": 0
                    },
                    "state": {
                        "0xa11457733448a2ba2e43d36bd35e3e9a440e504d": {
                            "nonce": "0x01",
                            "balance": "0x0de0b6b39c8e4161",
                            "code": "0x",
                            "storage": {}
                        },
                        "0x4a1d9c2508e63412cfe86029faad78eae511f80e": {
                            "nonce": "0x00",
                            "balance": "0x2e",
                            "code": "0x6000355415600957005b60203560003555",
                            "storage": {}
                        },
                        "0x4a1d9c2508e63412cfe86029faad78eae511f90e": {
                            "nonce": "0x00",
                            "balance": "0x0ad2185d",
                            "code": "0x7f000000000000000000000000ffffffffffffffffffffffffffffffffffffffff7f0000000000000000000000004a1d9c2508e63412cfe86029faad78eae511f80e437f000000000000000000000000000000000000000000000000000000000000c3507f00000000000000000000000000000000000000000000000000000000000000007ffffffffffffffffffffffffffffffffffffffffffffffffffffffffffffffffe7ffffffffffffffffffffffffffffffffffffffffffffffffffffffffffffffffe7fffffffffffffffffffffffffffffffffffffffffffffffffffffffffffffffff1174648789aa349e0915aa5911",
                            "storage": {}
                        }
                    }
                }
            ]
        },
        "config": {
            "blobSchedule": {
                "Cancun": {
                    "target": "0x03",
                    "max": "0x06",
                    "baseFeeUpdateFraction": "0x32f0ed"
                }
            },
            "chainid": "0x01"
        },
        "_info": {
            "hash": "0xc38bbad76a23280f6fecccacaa81bb5d66923f837813e0866f412da0f6308abc",
            "comment": "`execution-spec-tests` generated test",
            "filling-transition-tool": "ethereum-spec-evm-resolver 0.0.5",
            "description": "No description available - add a docstring to the python test class or function.",
            "url": "",
            "fixture-format": "state_test",
            "eels-resolution": {
                "git-url": "https://github.com/ethereum/execution-specs.git",
                "branch": "forks/bpos",
                "commit": "7aacb2c54111391af5e98c505d5010b5698a770f"
            }
        }
    },
    "tests/static/state_tests/stRandom/randomStatetest78Filler.json::randomStatetest78[fork_Osaka-state_test-]": {
        "env": {
            "currentCoinbase": "0x4a1d9c2508e63412cfe86029faad78eae511f80e",
            "currentGasLimit": "0x7fffffffffffffff",
            "currentNumber": "0x01",
            "currentTimestamp": "0x03e8",
            "currentRandom": "0x0000000000000000000000000000000000000000000000000000000000020000",
            "currentDifficulty": "0x00",
            "currentBaseFee": "0x0a",
            "currentExcessBlobGas": "0x00"
        },
        "pre": {
            "0xa11457733448a2ba2e43d36bd35e3e9a440e504d": {
                "nonce": "0x00",
                "balance": "0x0de0b6b3a7640000",
                "code": "0x",
                "storage": {}
            },
            "0x4a1d9c2508e63412cfe86029faad78eae511f80e": {
                "nonce": "0x00",
                "balance": "0x2e",
                "code": "0x6000355415600957005b60203560003555",
                "storage": {}
            },
            "0x4a1d9c2508e63412cfe86029faad78eae511f90e": {
                "nonce": "0x00",
                "balance": "0x00",
                "code": "0x7f000000000000000000000000ffffffffffffffffffffffffffffffffffffffff7f0000000000000000000000004a1d9c2508e63412cfe86029faad78eae511f80e437f000000000000000000000000000000000000000000000000000000000000c3507f00000000000000000000000000000000000000000000000000000000000000007ffffffffffffffffffffffffffffffffffffffffffffffffffffffffffffffffe7ffffffffffffffffffffffffffffffffffffffffffffffffffffffffffffffffe7fffffffffffffffffffffffffffffffffffffffffffffffffffffffffffffffff1174648789aa349e0915aa5911",
                "storage": {}
            }
        },
        "transaction": {
            "nonce": "0x00",
            "gasPrice": "0x0a",
            "gasLimit": [
                "0x0186a0"
            ],
            "to": "0x4a1d9c2508e63412cfe86029faad78eae511f90e",
            "value": [
                "0x0ad2185d"
            ],
            "data": [
                "0x7f000000000000000000000000ffffffffffffffffffffffffffffffffffffffff7f0000000000000000000000004a1d9c2508e63412cfe86029faad78eae511f80e437f000000000000000000000000000000000000000000000000000000000000c3507f00000000000000000000000000000000000000000000000000000000000000007ffffffffffffffffffffffffffffffffffffffffffffffffffffffffffffffffe7ffffffffffffffffffffffffffffffffffffffffffffffffffffffffffffffffe7fffffffffffffffffffffffffffffffffffffffffffffffffffffffffffffffff1174648789aa349e0915aa5911"
            ],
            "sender": "0xa11457733448a2ba2e43d36bd35e3e9a440e504d",
            "secretKey": "0xc167842a6c9d09d756e5e7784a1d9c2508e63412cfe86029faad78eae511f80e"
        },
        "post": {
            "Osaka": [
                {
                    "hash": "0x7c588d38131a40d5de1ccfcf7d9f21fb7e50861ac2556f4ea1dda4c9f9787455",
                    "logs": "0x1dcc4de8dec75d7aab85b567b6ccd41ad312451b948a7413f0a142fd40d49347",
                    "txbytes": "0xf9015a800a830186a0944a1d9c2508e63412cfe86029faad78eae511f90e840ad2185db8f57f000000000000000000000000ffffffffffffffffffffffffffffffffffffffff7f0000000000000000000000004a1d9c2508e63412cfe86029faad78eae511f80e437f000000000000000000000000000000000000000000000000000000000000c3507f00000000000000000000000000000000000000000000000000000000000000007ffffffffffffffffffffffffffffffffffffffffffffffffffffffffffffffffe7ffffffffffffffffffffffffffffffffffffffffffffffffffffffffffffffffe7fffffffffffffffffffffffffffffffffffffffffffffffffffffffffffffffff1174648789aa349e0915aa591126a0d93f95451767c32fe00c58555c35bfc1504e33c1b63dcffae511721b32c96d83a03bc0cffee253056a940c468454bde77ab0de2e06df12cd2dec54367c4b2b26d9",
                    "indexes": {
                        "data": 0,
                        "gas": 0,
                        "value": 0
                    },
                    "state": {
                        "0xa11457733448a2ba2e43d36bd35e3e9a440e504d": {
                            "nonce": "0x01",
                            "balance": "0x0de0b6b39c8d994b",
                            "code": "0x",
                            "storage": {}
                        },
                        "0x4a1d9c2508e63412cfe86029faad78eae511f80e": {
                            "nonce": "0x00",
                            "balance": "0x2e",
                            "code": "0x6000355415600957005b60203560003555",
                            "storage": {}
                        },
                        "0x4a1d9c2508e63412cfe86029faad78eae511f90e": {
                            "nonce": "0x00",
                            "balance": "0x0ad2185d",
                            "code": "0x7f000000000000000000000000ffffffffffffffffffffffffffffffffffffffff7f0000000000000000000000004a1d9c2508e63412cfe86029faad78eae511f80e437f000000000000000000000000000000000000000000000000000000000000c3507f00000000000000000000000000000000000000000000000000000000000000007ffffffffffffffffffffffffffffffffffffffffffffffffffffffffffffffffe7ffffffffffffffffffffffffffffffffffffffffffffffffffffffffffffffffe7fffffffffffffffffffffffffffffffffffffffffffffffffffffffffffffffff1174648789aa349e0915aa5911",
                            "storage": {}
                        }
                    }
                }
            ]
        },
        "config": {
            "blobSchedule": {
                "Cancun": {
                    "target": "0x03",
                    "max": "0x06",
                    "baseFeeUpdateFraction": "0x32f0ed"
                },
                "Prague": {
                    "target": "0x06",
                    "max": "0x09",
                    "baseFeeUpdateFraction": "0x4c6964"
                },
                "Osaka": {
                    "target": "0x06",
                    "max": "0x09",
                    "baseFeeUpdateFraction": "0x4c6964"
                }
            },
            "chainid": "0x01"
        },
        "_info": {
            "hash": "0x45eeefd599c922578d542cb189b4bc7b59602b9df096d4ace5b8234fbd234604",
            "comment": "`execution-spec-tests` generated test",
            "filling-transition-tool": "ethereum-spec-evm-resolver 0.0.5",
            "description": "No description available - add a docstring to the python test class or function.",
            "url": "",
            "fixture-format": "state_test",
            "eels-resolution": {
                "git-url": "https://github.com/ethereum/execution-specs.git",
                "branch": "forks/bpos",
                "commit": "7aacb2c54111391af5e98c505d5010b5698a770f"
            }
        }
    },
    "tests/static/state_tests/stRandom/randomStatetest78Filler.json::randomStatetest78[fork_Prague-state_test-]": {
        "env": {
            "currentCoinbase": "0x4a1d9c2508e63412cfe86029faad78eae511f80e",
            "currentGasLimit": "0x7fffffffffffffff",
            "currentNumber": "0x01",
            "currentTimestamp": "0x03e8",
            "currentRandom": "0x0000000000000000000000000000000000000000000000000000000000020000",
            "currentDifficulty": "0x00",
            "currentBaseFee": "0x0a",
            "currentExcessBlobGas": "0x00"
        },
        "pre": {
            "0xa11457733448a2ba2e43d36bd35e3e9a440e504d": {
                "nonce": "0x00",
                "balance": "0x0de0b6b3a7640000",
                "code": "0x",
                "storage": {}
            },
            "0x4a1d9c2508e63412cfe86029faad78eae511f80e": {
                "nonce": "0x00",
                "balance": "0x2e",
                "code": "0x6000355415600957005b60203560003555",
                "storage": {}
            },
            "0x4a1d9c2508e63412cfe86029faad78eae511f90e": {
                "nonce": "0x00",
                "balance": "0x00",
                "code": "0x7f000000000000000000000000ffffffffffffffffffffffffffffffffffffffff7f0000000000000000000000004a1d9c2508e63412cfe86029faad78eae511f80e437f000000000000000000000000000000000000000000000000000000000000c3507f00000000000000000000000000000000000000000000000000000000000000007ffffffffffffffffffffffffffffffffffffffffffffffffffffffffffffffffe7ffffffffffffffffffffffffffffffffffffffffffffffffffffffffffffffffe7fffffffffffffffffffffffffffffffffffffffffffffffffffffffffffffffff1174648789aa349e0915aa5911",
                "storage": {}
            }
        },
        "transaction": {
            "nonce": "0x00",
            "gasPrice": "0x0a",
            "gasLimit": [
                "0x0186a0"
            ],
            "to": "0x4a1d9c2508e63412cfe86029faad78eae511f90e",
            "value": [
                "0x0ad2185d"
            ],
            "data": [
                "0x7f000000000000000000000000ffffffffffffffffffffffffffffffffffffffff7f0000000000000000000000004a1d9c2508e63412cfe86029faad78eae511f80e437f000000000000000000000000000000000000000000000000000000000000c3507f00000000000000000000000000000000000000000000000000000000000000007ffffffffffffffffffffffffffffffffffffffffffffffffffffffffffffffffe7ffffffffffffffffffffffffffffffffffffffffffffffffffffffffffffffffe7fffffffffffffffffffffffffffffffffffffffffffffffffffffffffffffffff1174648789aa349e0915aa5911"
            ],
            "sender": "0xa11457733448a2ba2e43d36bd35e3e9a440e504d",
            "secretKey": "0xc167842a6c9d09d756e5e7784a1d9c2508e63412cfe86029faad78eae511f80e"
        },
        "post": {
            "Prague": [
                {
                    "hash": "0x7c588d38131a40d5de1ccfcf7d9f21fb7e50861ac2556f4ea1dda4c9f9787455",
                    "logs": "0x1dcc4de8dec75d7aab85b567b6ccd41ad312451b948a7413f0a142fd40d49347",
                    "txbytes": "0xf9015a800a830186a0944a1d9c2508e63412cfe86029faad78eae511f90e840ad2185db8f57f000000000000000000000000ffffffffffffffffffffffffffffffffffffffff7f0000000000000000000000004a1d9c2508e63412cfe86029faad78eae511f80e437f000000000000000000000000000000000000000000000000000000000000c3507f00000000000000000000000000000000000000000000000000000000000000007ffffffffffffffffffffffffffffffffffffffffffffffffffffffffffffffffe7ffffffffffffffffffffffffffffffffffffffffffffffffffffffffffffffffe7fffffffffffffffffffffffffffffffffffffffffffffffffffffffffffffffff1174648789aa349e0915aa591126a0d93f95451767c32fe00c58555c35bfc1504e33c1b63dcffae511721b32c96d83a03bc0cffee253056a940c468454bde77ab0de2e06df12cd2dec54367c4b2b26d9",
                    "indexes": {
                        "data": 0,
                        "gas": 0,
                        "value": 0
                    },
                    "state": {
                        "0xa11457733448a2ba2e43d36bd35e3e9a440e504d": {
                            "nonce": "0x01",
                            "balance": "0x0de0b6b39c8d994b",
                            "code": "0x",
                            "storage": {}
                        },
                        "0x4a1d9c2508e63412cfe86029faad78eae511f80e": {
                            "nonce": "0x00",
                            "balance": "0x2e",
                            "code": "0x6000355415600957005b60203560003555",
                            "storage": {}
                        },
                        "0x4a1d9c2508e63412cfe86029faad78eae511f90e": {
                            "nonce": "0x00",
                            "balance": "0x0ad2185d",
                            "code": "0x7f000000000000000000000000ffffffffffffffffffffffffffffffffffffffff7f0000000000000000000000004a1d9c2508e63412cfe86029faad78eae511f80e437f000000000000000000000000000000000000000000000000000000000000c3507f00000000000000000000000000000000000000000000000000000000000000007ffffffffffffffffffffffffffffffffffffffffffffffffffffffffffffffffe7ffffffffffffffffffffffffffffffffffffffffffffffffffffffffffffffffe7fffffffffffffffffffffffffffffffffffffffffffffffffffffffffffffffff1174648789aa349e0915aa5911",
                            "storage": {}
                        }
                    }
                }
            ]
        },
        "config": {
            "blobSchedule": {
                "Cancun": {
                    "target": "0x03",
                    "max": "0x06",
                    "baseFeeUpdateFraction": "0x32f0ed"
                },
                "Prague": {
                    "target": "0x06",
                    "max": "0x09",
                    "baseFeeUpdateFraction": "0x4c6964"
                }
            },
            "chainid": "0x01"
        },
        "_info": {
            "hash": "0xd68d029c2293b96716205fbb8166ef9363e83f86925db53956c941858593f410",
            "comment": "`execution-spec-tests` generated test",
            "filling-transition-tool": "ethereum-spec-evm-resolver 0.0.5",
            "description": "No description available - add a docstring to the python test class or function.",
            "url": "",
            "fixture-format": "state_test",
            "eels-resolution": {
                "git-url": "https://github.com/ethereum/execution-specs.git",
                "branch": "forks/bpos",
                "commit": "7aacb2c54111391af5e98c505d5010b5698a770f"
            }
        }
    }
}