{
    "tests/static/state_tests/stRandom/randomStatetest106Filler.json::randomStatetest106[fork_Cancun-state_test-]": {
        "env": {
            "currentCoinbase": "0xa92fd1bccf785d2f72307ff98bab4f79a732db54",
            "currentGasLimit": "0x7fffffffffffffff",
            "currentNumber": "0x01",
            "currentTimestamp": "0x03e8",
            "currentRandom": "0x0000000000000000000000000000000000000000000000000000000000020000",
            "currentDifficulty": "0x00",
            "currentBaseFee": "0x0a",
            "currentExcessBlobGas": "0x00"
        },
        "pre": {
            "0x0d2bfe4f0dcfd79aa9854907b78a406bb7539035": {
                "nonce": "0x00",
                "balance": "0x0de0b6b3a7640000",
                "code": "0x",
                "storage": {}
            },
            "0xa92fd1bccf785d2f72307ff98bab4f79a732db54": {
                "nonce": "0x00",
                "balance": "0x2e",
                "code": "0x6000355415600957005b60203560003555",
                "storage": {}
            },
            "0xa92fd1bccf785d2f72307ff98bab4f79a732dc54": {
                "nonce": "0x00",
                "balance": "0x00",
                "code": "0x7ffffffffffffffffffffffffffffffffffffffffffffffffffffffffffffffffe7f00000000000000000000000100000000000000000000000000000000000000007ffffffffffffffffffffffffffffffffffffffffffffffffffffffffffffffffe7ffffffffffffffffffffffffffffffffffffffffffffffffffffffffffffffffe7f00000000000000000000000000000000000000000000000000000000000000007f000000000000000000000000000000000000000000000000000000000000c3507fffffffffffffffffffffffffffffffffffffffffffffffffffffffffffffffff6f327043726481f25094828e211557795560005155",
                "storage": {}
            }
        },
        "transaction": {
            "nonce": "0x00",
            "gasPrice": "0x0a",
            "gasLimit": [
                "0x0186a0"
            ],
            "to": "0xa92fd1bccf785d2f72307ff98bab4f79a732dc54",
            "value": [
                "0x41ff266c"
            ],
            "data": [
                "0x7ffffffffffffffffffffffffffffffffffffffffffffffffffffffffffffffffe7f00000000000000000000000100000000000000000000000000000000000000007ffffffffffffffffffffffffffffffffffffffffffffffffffffffffffffffffe7ffffffffffffffffffffffffffffffffffffffffffffffffffffffffffffffffe7f00000000000000000000000000000000000000000000000000000000000000007f000000000000000000000000000000000000000000000000000000000000c3507fffffffffffffffffffffffffffffffffffffffffffffffffffffffffffffffff6f327043726481f25094828e21155779"
            ],
            "sender": "0x0d2bfe4f0dcfd79aa9854907b78a406bb7539035",
            "secretKey": "0x40097936c6be3ad74b169fe7a92fd1bccf785d2f72307ff98bab4f79a732db54"
        },
        "post": {
            "Cancun": [
                {
                    "hash": "0x60eeb5d44382bf2a1ea7f63daf5f3e9c7de75fc29b3d1403d3f79b1f28f14854",
                    "logs": "0x1dcc4de8dec75d7aab85b567b6ccd41ad312451b948a7413f0a142fd40d49347",
                    "txbytes": "0xf9015c800a830186a094a92fd1bccf785d2f72307ff98bab4f79a732dc548441ff266cb8f77ffffffffffffffffffffffffffffffffffffffffffffffffffffffffffffffffe7f00000000000000000000000100000000000000000000000000000000000000007ffffffffffffffffffffffffffffffffffffffffffffffffffffffffffffffffe7ffffffffffffffffffffffffffffffffffffffffffffffffffffffffffffffffe7f00000000000000000000000000000000000000000000000000000000000000007f000000000000000000000000000000000000000000000000000000000000c3507fffffffffffffffffffffffffffffffffffffffffffffffffffffffffffffffff6f327043726481f25094828e2115577926a0e2ecdc53e710b956f0af170db4bba53dab696860919c37160d3515dec265cc50a023a3b957e89ffcc37cc99fa01819d98e6d438c8d846deec2f70a468866d26017",
                    "indexes": {
                        "data": 0,
                        "gas": 0,
                        "value": 0
                    },
                    "state": {
                        "0x0d2bfe4f0dcfd79aa9854907b78a406bb7539035": {
                            "nonce": "0x01",
                            "balance": "0x0de0b6b3655dd5ea",
                            "code": "0x",
                            "storage": {}
                        },
                        "0xa92fd1bccf785d2f72307ff98bab4f79a732db54": {
                            "nonce": "0x00",
                            "balance": "0x2e",
                            "code": "0x6000355415600957005b60203560003555",
                            "storage": {}
                        },
                        "0xa92fd1bccf785d2f72307ff98bab4f79a732dc54": {
                            "nonce": "0x00",
                            "balance": "0x41ff266c",
                            "code": "0x7ffffffffffffffffffffffffffffffffffffffffffffffffffffffffffffffffe7f00000000000000000000000100000000000000000000000000000000000000007ffffffffffffffffffffffffffffffffffffffffffffffffffffffffffffffffe7ffffffffffffffffffffffffffffffffffffffffffffffffffffffffffffffffe7f00000000000000000000000000000000000000000000000000000000000000007f000000000000000000000000000000000000000000000000000000000000c3507fffffffffffffffffffffffffffffffffffffffffffffffffffffffffffffffff6f327043726481f25094828e211557795560005155",
                            "storage": {
                                "0x00": "0x327043726481f25094828e2115577955"
                            }
                        }
                    }
                }
            ]
        },
        "config": {
            "blobSchedule": {
                "Cancun": {
                    "target": "0x03",
                    "max": "0x06",
                    "baseFeeUpdateFraction": "0x32f0ed"
                }
            },
            "chainid": "0x01"
        },
        "_info": {
            "hash": "0x2087d8a8a1df45adbf590af2a5ef2a7de97495083ee529cd745265def90b0805",
            "comment": "`execution-specs` generated test",
            "filling-transition-tool": "2.18.0rc6",
            "description": "No description available - add a docstring to the python test class or function.",
            "url": "",
            "fixture-format": "state_test"
        }
    },
    "tests/static/state_tests/stRandom/randomStatetest106Filler.json::randomStatetest106[fork_Osaka-state_test-]": {
        "env": {
            "currentCoinbase": "0xa92fd1bccf785d2f72307ff98bab4f79a732db54",
            "currentGasLimit": "0x7fffffffffffffff",
            "currentNumber": "0x01",
            "currentTimestamp": "0x03e8",
            "currentRandom": "0x0000000000000000000000000000000000000000000000000000000000020000",
            "currentDifficulty": "0x00",
            "currentBaseFee": "0x0a",
            "currentExcessBlobGas": "0x00"
        },
        "pre": {
            "0x0d2bfe4f0dcfd79aa9854907b78a406bb7539035": {
                "nonce": "0x00",
                "balance": "0x0de0b6b3a7640000",
                "code": "0x",
                "storage": {}
            },
            "0xa92fd1bccf785d2f72307ff98bab4f79a732db54": {
                "nonce": "0x00",
                "balance": "0x2e",
                "code": "0x6000355415600957005b60203560003555",
                "storage": {}
            },
            "0xa92fd1bccf785d2f72307ff98bab4f79a732dc54": {
                "nonce": "0x00",
                "balance": "0x00",
                "code": "0x7ffffffffffffffffffffffffffffffffffffffffffffffffffffffffffffffffe7f00000000000000000000000100000000000000000000000000000000000000007ffffffffffffffffffffffffffffffffffffffffffffffffffffffffffffffffe7ffffffffffffffffffffffffffffffffffffffffffffffffffffffffffffffffe7f00000000000000000000000000000000000000000000000000000000000000007f000000000000000000000000000000000000000000000000000000000000c3507fffffffffffffffffffffffffffffffffffffffffffffffffffffffffffffffff6f327043726481f25094828e211557795560005155",
                "storage": {}
            }
        },
        "transaction": {
            "nonce": "0x00",
            "gasPrice": "0x0a",
            "gasLimit": [
                "0x0186a0"
            ],
            "to": "0xa92fd1bccf785d2f72307ff98bab4f79a732dc54",
            "value": [
                "0x41ff266c"
            ],
            "data": [
                "0x7ffffffffffffffffffffffffffffffffffffffffffffffffffffffffffffffffe7f00000000000000000000000100000000000000000000000000000000000000007ffffffffffffffffffffffffffffffffffffffffffffffffffffffffffffffffe7ffffffffffffffffffffffffffffffffffffffffffffffffffffffffffffffffe7f00000000000000000000000000000000000000000000000000000000000000007f000000000000000000000000000000000000000000000000000000000000c3507fffffffffffffffffffffffffffffffffffffffffffffffffffffffffffffffff6f327043726481f25094828e21155779"
            ],
            "sender": "0x0d2bfe4f0dcfd79aa9854907b78a406bb7539035",
            "secretKey": "0x40097936c6be3ad74b169fe7a92fd1bccf785d2f72307ff98bab4f79a732db54"
        },
        "post": {
            "Osaka": [
                {
                    "hash": "0x60eeb5d44382bf2a1ea7f63daf5f3e9c7de75fc29b3d1403d3f79b1f28f14854",
                    "logs": "0x1dcc4de8dec75d7aab85b567b6ccd41ad312451b948a7413f0a142fd40d49347",
                    "txbytes": "0xf9015c800a830186a094a92fd1bccf785d2f72307ff98bab4f79a732dc548441ff266cb8f77ffffffffffffffffffffffffffffffffffffffffffffffffffffffffffffffffe7f00000000000000000000000100000000000000000000000000000000000000007ffffffffffffffffffffffffffffffffffffffffffffffffffffffffffffffffe7ffffffffffffffffffffffffffffffffffffffffffffffffffffffffffffffffe7f00000000000000000000000000000000000000000000000000000000000000007f000000000000000000000000000000000000000000000000000000000000c3507fffffffffffffffffffffffffffffffffffffffffffffffffffffffffffffffff6f327043726481f25094828e2115577926a0e2ecdc53e710b956f0af170db4bba53dab696860919c37160d3515dec265cc50a023a3b957e89ffcc37cc99fa01819d98e6d438c8d846deec2f70a468866d26017",
                    "indexes": {
                        "data": 0,
                        "gas": 0,
                        "value": 0
                    },
                    "state": {
                        "0x0d2bfe4f0dcfd79aa9854907b78a406bb7539035": {
                            "nonce": "0x01",
                            "balance": "0x0de0b6b3655dd5ea",
                            "code": "0x",
                            "storage": {}
                        },
                        "0xa92fd1bccf785d2f72307ff98bab4f79a732db54": {
                            "nonce": "0x00",
                            "balance": "0x2e",
                            "code": "0x6000355415600957005b60203560003555",
                            "storage": {}
                        },
                        "0xa92fd1bccf785d2f72307ff98bab4f79a732dc54": {
                            "nonce": "0x00",
                            "balance": "0x41ff266c",
                            "code": "0x7ffffffffffffffffffffffffffffffffffffffffffffffffffffffffffffffffe7f00000000000000000000000100000000000000000000000000000000000000007ffffffffffffffffffffffffffffffffffffffffffffffffffffffffffffffffe7ffffffffffffffffffffffffffffffffffffffffffffffffffffffffffffffffe7f00000000000000000000000000000000000000000000000000000000000000007f000000000000000000000000000000000000000000000000000000000000c3507fffffffffffffffffffffffffffffffffffffffffffffffffffffffffffffffff6f327043726481f25094828e211557795560005155",
                            "storage": {
                                "0x00": "0x327043726481f25094828e2115577955"
                            }
                        }
                    }
                }
            ]
        },
        "config": {
            "blobSchedule": {
                "Cancun": {
                    "target": "0x03",
                    "max": "0x06",
                    "baseFeeUpdateFraction": "0x32f0ed"
                },
                "Prague": {
                    "target": "0x06",
                    "max": "0x09",
                    "baseFeeUpdateFraction": "0x4c6964"
                },
                "Osaka": {
                    "target": "0x06",
                    "max": "0x09",
                    "baseFeeUpdateFraction": "0x4c6964"
                }
            },
            "chainid": "0x01"
        },
        "_info": {
            "hash": "0xe5af12dd57b57758f0f70c6b3aff4267830a5326e5b9e02bed48a8095dddd317",
            "comment": "`execution-specs` generated test",
            "filling-transition-tool": "2.18.0rc6",
            "description": "No description available - add a docstring to the python test class or function.",
            "url": "",
            "fixture-format": "state_test"
        }
    },
    "tests/static/state_tests/stRandom/randomStatetest106Filler.json::randomStatetest106[fork_Prague-state_test-]": {
        "env": {
            "currentCoinbase": "0xa92fd1bccf785d2f72307ff98bab4f79a732db54",
            "currentGasLimit": "0x7fffffffffffffff",
            "currentNumber": "0x01",
            "currentTimestamp": "0x03e8",
            "currentRandom": "0x0000000000000000000000000000000000000000000000000000000000020000",
            "currentDifficulty": "0x00",
            "currentBaseFee": "0x0a",
            "currentExcessBlobGas": "0x00"
        },
        "pre": {
            "0x0d2bfe4f0dcfd79aa9854907b78a406bb7539035": {
                "nonce": "0x00",
                "balance": "0x0de0b6b3a7640000",
                "code": "0x",
                "storage": {}
            },
            "0xa92fd1bccf785d2f72307ff98bab4f79a732db54": {
                "nonce": "0x00",
                "balance": "0x2e",
                "code": "0x6000355415600957005b60203560003555",
                "storage": {}
            },
            "0xa92fd1bccf785d2f72307ff98bab4f79a732dc54": {
                "nonce": "0x00",
                "balance": "0x00",
                "code": "0x7ffffffffffffffffffffffffffffffffffffffffffffffffffffffffffffffffe7f00000000000000000000000100000000000000000000000000000000000000007ffffffffffffffffffffffffffffffffffffffffffffffffffffffffffffffffe7ffffffffffffffffffffffffffffffffffffffffffffffffffffffffffffffffe7f00000000000000000000000000000000000000000000000000000000000000007f000000000000000000000000000000000000000000000000000000000000c3507fffffffffffffffffffffffffffffffffffffffffffffffffffffffffffffffff6f327043726481f25094828e211557795560005155",
                "storage": {}
            }
        },
        "transaction": {
            "nonce": "0x00",
            "gasPrice": "0x0a",
            "gasLimit": [
                "0x0186a0"
            ],
            "to": "0xa92fd1bccf785d2f72307ff98bab4f79a732dc54",
            "value": [
                "0x41ff266c"
            ],
            "data": [
                "0x7ffffffffffffffffffffffffffffffffffffffffffffffffffffffffffffffffe7f00000000000000000000000100000000000000000000000000000000000000007ffffffffffffffffffffffffffffffffffffffffffffffffffffffffffffffffe7ffffffffffffffffffffffffffffffffffffffffffffffffffffffffffffffffe7f00000000000000000000000000000000000000000000000000000000000000007f000000000000000000000000000000000000000000000000000000000000c3507fffffffffffffffffffffffffffffffffffffffffffffffffffffffffffffffff6f327043726481f25094828e21155779"
            ],
            "sender": "0x0d2bfe4f0dcfd79aa9854907b78a406bb7539035",
            "secretKey": "0x40097936c6be3ad74b169fe7a92fd1bccf785d2f72307ff98bab4f79a732db54"
        },
        "post": {
            "Prague": [
                {
                    "hash": "0x60eeb5d44382bf2a1ea7f63daf5f3e9c7de75fc29b3d1403d3f79b1f28f14854",
                    "logs": "0x1dcc4de8dec75d7aab85b567b6ccd41ad312451b948a7413f0a142fd40d49347",
                    "txbytes": "0xf9015c800a830186a094a92fd1bccf785d2f72307ff98bab4f79a732dc548441ff266cb8f77ffffffffffffffffffffffffffffffffffffffffffffffffffffffffffffffffe7f00000000000000000000000100000000000000000000000000000000000000007ffffffffffffffffffffffffffffffffffffffffffffffffffffffffffffffffe7ffffffffffffffffffffffffffffffffffffffffffffffffffffffffffffffffe7f00000000000000000000000000000000000000000000000000000000000000007f000000000000000000000000000000000000000000000000000000000000c3507fffffffffffffffffffffffffffffffffffffffffffffffffffffffffffffffff6f327043726481f25094828e2115577926a0e2ecdc53e710b956f0af170db4bba53dab696860919c37160d3515dec265cc50a023a3b957e89ffcc37cc99fa01819d98e6d438c8d846deec2f70a468866d26017",
                    "indexes": {
                        "data": 0,
                        "gas": 0,
                        "value": 0
                    },
                    "state": {
                        "0x0d2bfe4f0dcfd79aa9854907b78a406bb7539035": {
                            "nonce": "0x01",
                            "balance": "0x0de0b6b3655dd5ea",
                            "code": "0x",
                            "storage": {}
                        },
                        "0xa92fd1bccf785d2f72307ff98bab4f79a732db54": {
                            "nonce": "0x00",
                            "balance": "0x2e",
                            "code": "0x6000355415600957005b60203560003555",
                            "storage": {}
                        },
                        "0xa92fd1bccf785d2f72307ff98bab4f79a732dc54": {
                            "nonce": "0x00",
                            "balance": "0x41ff266c",
                            "code": "0x7ffffffffffffffffffffffffffffffffffffffffffffffffffffffffffffffffe7f00000000000000000000000100000000000000000000000000000000000000007ffffffffffffffffffffffffffffffffffffffffffffffffffffffffffffffffe7ffffffffffffffffffffffffffffffffffffffffffffffffffffffffffffffffe7f00000000000000000000000000000000000000000000000000000000000000007f000000000000000000000000000000000000000000000000000000000000c3507fffffffffffffffffffffffffffffffffffffffffffffffffffffffffffffffff6f327043726481f25094828e211557795560005155",
                            "storage": {
                                "0x00": "0x327043726481f25094828e2115577955"
                            }
                        }
                    }
                }
            ]
        },
        "config": {
            "blobSchedule": {
                "Cancun": {
                    "target": "0x03",
                    "max": "0x06",
                    "baseFeeUpdateFraction": "0x32f0ed"
                },
                "Prague": {
                    "target": "0x06",
                    "max": "0x09",
                    "baseFeeUpdateFraction": "0x4c6964"
                }
            },
            "chainid": "0x01"
        },
        "_info": {
            "hash": "0xca96bbe371e586bb94822bcd92946d5afa3d1b7dad188fa10217f717f4cc9618",
            "comment": "`execution-specs` generated test",
            "filling-transition-tool": "2.18.0rc6",
            "description": "No description available - add a docstring to the python test class or function.",
            "url": "",
            "fixture-format": "state_test"
        }
    }
}