{
    "tests/static/state_tests/stRandom/randomStatetest323Filler.json::randomStatetest323[fork_Cancun-state_test-]": {
        "env": {
            "currentCoinbase": "0x25fd95aa4b4f2e00786a2a9668d46b263dc87411",
            "currentGasLimit": "0x7fffffffffffffff",
            "currentNumber": "0x01",
            "currentTimestamp": "0x03e8",
            "currentRandom": "0x0000000000000000000000000000000000000000000000000000000000020000",
            "currentDifficulty": "0x00",
            "currentBaseFee": "0x0a",
            "currentExcessBlobGas": "0x00"
        },
        "pre": {
            "0x94a87ba3a0dc7fa24aa4f5723638128377cd46a7": {
                "nonce": "0x00",
                "balance": "0x0de0b6b3a7640000",
                "code": "0x",
                "storage": {}
            },
            "0x25fd95aa4b4f2e00786a2a9668d46b263dc87411": {
                "nonce": "0x00",
                "balance": "0x2e",
                "code": "0x6000355415600957005b60203560003555",
                "storage": {}
            },
            "0x25fd95aa4b4f2e00786a2a9668d46b263dc87511": {
                "nonce": "0x00",
                "balance": "0x00",
                "code": "0x6f7f00000000000000000000000000000000000000000000000000000000000000007f000000000000000000000000ffffffffffffffffffffffffffffffffffffffff7f00000000000000000000000025fd95aa4b4f2e00786a2a9668d46b263dc874117ffffffffffffffffffffffffffffffffffffffffffffffffffffffffffffffffe74977f000000000000000000000000000000000000000000000000000000000000c3506f6b7936181136392060005155",
                "storage": {}
            }
        },
        "transaction": {
            "nonce": "0x00",
            "gasPrice": "0x0a",
            "gasLimit": [
                "0x0186a0"
            ],
            "to": "0x25fd95aa4b4f2e00786a2a9668d46b263dc87511",
            "value": [
                "0x7490871f"
            ],
            "data": [
                "0x6f7f00000000000000000000000000000000000000000000000000000000000000007f000000000000000000000000ffffffffffffffffffffffffffffffffffffffff7f00000000000000000000000025fd95aa4b4f2e00786a2a9668d46b263dc874117ffffffffffffffffffffffffffffffffffffffffffffffffffffffffffffffffe74977f000000000000000000000000000000000000000000000000000000000000c3506f6b79361811363920"
            ],
            "sender": "0x94a87ba3a0dc7fa24aa4f5723638128377cd46a7",
            "secretKey": "0x039809c4e43e7e38b6a04aa225fd95aa4b4f2e00786a2a9668d46b263dc87411"
        },
        "post": {
            "Cancun": [
                {
                    "hash": "0xc6c55f879a2b89355051eaf3df4cb464adb8bf25687f78be24e65eba174c4a5b",
                    "logs": "0x1dcc4de8dec75d7aab85b567b6ccd41ad312451b948a7413f0a142fd40d49347",
                    "txbytes": "0xf90116800a830186a09425fd95aa4b4f2e00786a2a9668d46b263dc87511847490871fb8b16f7f00000000000000000000000000000000000000000000000000000000000000007f000000000000000000000000ffffffffffffffffffffffffffffffffffffffff7f00000000000000000000000025fd95aa4b4f2e00786a2a9668d46b263dc874117ffffffffffffffffffffffffffffffffffffffffffffffffffffffffffffffffe74977f000000000000000000000000000000000000000000000000000000000000c3506f6b7936181136392025a07562c3eb1fb96fe1962d4dafe7dcd304800ac2881d30d9f84229f33203b4a602a030745d28903958893983a516830da8cea9fc09c647a7c7f2455e47dad3eda8bc",
                    "indexes": {
                        "data": 0,
                        "gas": 0,
                        "value": 0
                    },
                    "state": {
                        "0x94a87ba3a0dc7fa24aa4f5723638128377cd46a7": {
                            "nonce": "0x01",
                            "balance": "0x0de0b6b332cffe9b",
                            "code": "0x",
                            "storage": {}
                        },
                        "0x25fd95aa4b4f2e00786a2a9668d46b263dc87411": {
                            "nonce": "0x00",
                            "balance": "0x2e",
                            "code": "0x6000355415600957005b60203560003555",
                            "storage": {}
                        },
                        "0x25fd95aa4b4f2e00786a2a9668d46b263dc87511": {
                            "nonce": "0x00",
                            "balance": "0x7490871f",
                            "code": "0x6f7f00000000000000000000000000000000000000000000000000000000000000007f000000000000000000000000ffffffffffffffffffffffffffffffffffffffff7f00000000000000000000000025fd95aa4b4f2e00786a2a9668d46b263dc874117ffffffffffffffffffffffffffffffffffffffffffffffffffffffffffffffffe74977f000000000000000000000000000000000000000000000000000000000000c3506f6b7936181136392060005155",
                            "storage": {}
                        }
                    }
                }
            ]
        },
        "config": {
            "blobSchedule": {
                "Cancun": {
                    "target": "0x03",
                    "max": "0x06",
                    "baseFeeUpdateFraction": "0x32f0ed"
                }
            },
            "chainid": "0x01"
        },
        "_info": {
            "hash": "0xf1103032700cbf26020111125067020b93ae997326e9048b9f60d78678cdc41c",
            "comment": "`execution-specs` generated test",
            "filling-transition-tool": "2.18.0rc6",
            "description": "No description available - add a docstring to the python test class or function.",
            "url": "",
            "fixture-format": "state_test"
        }
    },
    "tests/static/state_tests/stRandom/randomStatetest323Filler.json::randomStatetest323[fork_Osaka-state_test-]": {
        "env": {
            "currentCoinbase": "0x25fd95aa4b4f2e00786a2a9668d46b263dc87411",
            "currentGasLimit": "0x7fffffffffffffff",
            "currentNumber": "0x01",
            "currentTimestamp": "0x03e8",
            "currentRandom": "0x0000000000000000000000000000000000000000000000000000000000020000",
            "currentDifficulty": "0x00",
            "currentBaseFee": "0x0a",
            "currentExcessBlobGas": "0x00"
        },
        "pre": {
            "0x94a87ba3a0dc7fa24aa4f5723638128377cd46a7": {
                "nonce": "0x00",
                "balance": "0x0de0b6b3a7640000",
                "code": "0x",
                "storage": {}
            },
            "0x25fd95aa4b4f2e00786a2a9668d46b263dc87411": {
                "nonce": "0x00",
                "balance": "0x2e",
                "code": "0x6000355415600957005b60203560003555",
                "storage": {}
            },
            "0x25fd95aa4b4f2e00786a2a9668d46b263dc87511": {
                "nonce": "0x00",
                "balance": "0x00",
                "code": "0x6f7f00000000000000000000000000000000000000000000000000000000000000007f000000000000000000000000ffffffffffffffffffffffffffffffffffffffff7f00000000000000000000000025fd95aa4b4f2e00786a2a9668d46b263dc874117ffffffffffffffffffffffffffffffffffffffffffffffffffffffffffffffffe74977f000000000000000000000000000000000000000000000000000000000000c3506f6b7936181136392060005155",
                "storage": {}
            }
        },
        "transaction": {
            "nonce": "0x00",
            "gasPrice": "0x0a",
            "gasLimit": [
                "0x0186a0"
            ],
            "to": "0x25fd95aa4b4f2e00786a2a9668d46b263dc87511",
            "value": [
                "0x7490871f"
            ],
            "data": [
                "0x6f7f00000000000000000000000000000000000000000000000000000000000000007f000000000000000000000000ffffffffffffffffffffffffffffffffffffffff7f00000000000000000000000025fd95aa4b4f2e00786a2a9668d46b263dc874117ffffffffffffffffffffffffffffffffffffffffffffffffffffffffffffffffe74977f000000000000000000000000000000000000000000000000000000000000c3506f6b79361811363920"
            ],
            "sender": "0x94a87ba3a0dc7fa24aa4f5723638128377cd46a7",
            "secretKey": "0x039809c4e43e7e38b6a04aa225fd95aa4b4f2e00786a2a9668d46b263dc87411"
        },
        "post": {
            "Osaka": [
                {
                    "hash": "0xbae33fed70002b471e3862005b49a872bf9849bb186cae9a04432d3ac278412c",
                    "logs": "0x1dcc4de8dec75d7aab85b567b6ccd41ad312451b948a7413f0a142fd40d49347",
                    "txbytes": "0xf90116800a830186a09425fd95aa4b4f2e00786a2a9668d46b263dc87511847490871fb8b16f7f00000000000000000000000000000000000000000000000000000000000000007f000000000000000000000000ffffffffffffffffffffffffffffffffffffffff7f00000000000000000000000025fd95aa4b4f2e00786a2a9668d46b263dc874117ffffffffffffffffffffffffffffffffffffffffffffffffffffffffffffffffe74977f000000000000000000000000000000000000000000000000000000000000c3506f6b7936181136392025a07562c3eb1fb96fe1962d4dafe7dcd304800ac2881d30d9f84229f33203b4a602a030745d28903958893983a516830da8cea9fc09c647a7c7f2455e47dad3eda8bc",
                    "indexes": {
                        "data": 0,
                        "gas": 0,
                        "value": 0
                    },
                    "state": {
                        "0x94a87ba3a0dc7fa24aa4f5723638128377cd46a7": {
                            "nonce": "0x01",
                            "balance": "0x0de0b6b332cf95f5",
                            "code": "0x",
                            "storage": {}
                        },
                        "0x25fd95aa4b4f2e00786a2a9668d46b263dc87411": {
                            "nonce": "0x00",
                            "balance": "0x2e",
                            "code": "0x6000355415600957005b60203560003555",
                            "storage": {}
                        },
                        "0x25fd95aa4b4f2e00786a2a9668d46b263dc87511": {
                            "nonce": "0x00",
                            "balance": "0x7490871f",
                            "code": "0x6f7f00000000000000000000000000000000000000000000000000000000000000007f000000000000000000000000ffffffffffffffffffffffffffffffffffffffff7f00000000000000000000000025fd95aa4b4f2e00786a2a9668d46b263dc874117ffffffffffffffffffffffffffffffffffffffffffffffffffffffffffffffffe74977f000000000000000000000000000000000000000000000000000000000000c3506f6b7936181136392060005155",
                            "storage": {}
                        }
                    }
                }
            ]
        },
        "config": {
            "blobSchedule": {
                "Cancun": {
                    "target": "0x03",
                    "max": "0x06",
                    "baseFeeUpdateFraction": "0x32f0ed"
                },
                "Prague": {
                    "target": "0x06",
                    "max": "0x09",
                    "baseFeeUpdateFraction": "0x4c6964"
                },
                "Osaka": {
                    "target": "0x06",
                    "max": "0x09",
                    "baseFeeUpdateFraction": "0x4c6964"
                }
            },
            "chainid": "0x01"
        },
        "_info": {
            "hash": "0xd7678679cebecbb8cdf246f1743441371addbb5f19c12162ef50d3ee909e5c42",
            "comment": "`execution-specs` generated test",
            "filling-transition-tool": "2.18.0rc6",
            "description": "No description available - add a docstring to the python test class or function.",
            "url": "",
            "fixture-format": "state_test"
        }
    },
    "tests/static/state_tests/stRandom/randomStatetest323Filler.json::randomStatetest323[fork_Prague-state_test-]": {
        "env": {
            "currentCoinbase": "0x25fd95aa4b4f2e00786a2a9668d46b263dc87411",
            "currentGasLimit": "0x7fffffffffffffff",
            "currentNumber": "0x01",
            "currentTimestamp": "0x03e8",
            "currentRandom": "0x0000000000000000000000000000000000000000000000000000000000020000",
            "currentDifficulty": "0x00",
            "currentBaseFee": "0x0a",
            "currentExcessBlobGas": "0x00"
        },
        "pre": {
            "0x94a87ba3a0dc7fa24aa4f5723638128377cd46a7": {
                "nonce": "0x00",
                "balance": "0x0de0b6b3a7640000",
                "code": "0x",
                "storage": {}
            },
            "0x25fd95aa4b4f2e00786a2a9668d46b263dc87411": {
                "nonce": "0x00",
                "balance": "0x2e",
                "code": "0x6000355415600957005b60203560003555",
                "storage": {}
            },
            "0x25fd95aa4b4f2e00786a2a9668d46b263dc87511": {
                "nonce": "0x00",
                "balance": "0x00",
                "code": "0x6f7f00000000000000000000000000000000000000000000000000000000000000007f000000000000000000000000ffffffffffffffffffffffffffffffffffffffff7f00000000000000000000000025fd95aa4b4f2e00786a2a9668d46b263dc874117ffffffffffffffffffffffffffffffffffffffffffffffffffffffffffffffffe74977f000000000000000000000000000000000000000000000000000000000000c3506f6b7936181136392060005155",
                "storage": {}
            }
        },
        "transaction": {
            "nonce": "0x00",
            "gasPrice": "0x0a",
            "gasLimit": [
                "0x0186a0"
            ],
            "to": "0x25fd95aa4b4f2e00786a2a9668d46b263dc87511",
            "value": [
                "0x7490871f"
            ],
            "data": [
                "0x6f7f00000000000000000000000000000000000000000000000000000000000000007f000000000000000000000000ffffffffffffffffffffffffffffffffffffffff7f00000000000000000000000025fd95aa4b4f2e00786a2a9668d46b263dc874117ffffffffffffffffffffffffffffffffffffffffffffffffffffffffffffffffe74977f000000000000000000000000000000000000000000000000000000000000c3506f6b79361811363920"
            ],
            "sender": "0x94a87ba3a0dc7fa24aa4f5723638128377cd46a7",
            "secretKey": "0x039809c4e43e7e38b6a04aa225fd95aa4b4f2e00786a2a9668d46b263dc87411"
        },
        "post": {
            "Prague": [
                {
                    "hash": "0xbae33fed70002b471e3862005b49a872bf9849bb186cae9a04432d3ac278412c",
                    "logs": "0x1dcc4de8dec75d7aab85b567b6ccd41ad312451b948a7413f0a142fd40d49347",
                    "txbytes": "0xf90116800a830186a09425fd95aa4b4f2e00786a2a9668d46b263dc87511847490871fb8b16f7f00000000000000000000000000000000000000000000000000000000000000007f000000000000000000000000ffffffffffffffffffffffffffffffffffffffff7f00000000000000000000000025fd95aa4b4f2e00786a2a9668d46b263dc874117ffffffffffffffffffffffffffffffffffffffffffffffffffffffffffffffffe74977f000000000000000000000000000000000000000000000000000000000000c3506f6b7936181136392025a07562c3eb1fb96fe1962d4dafe7dcd304800ac2881d30d9f84229f33203b4a602a030745d28903958893983a516830da8cea9fc09c647a7c7f2455e47dad3eda8bc",
                    "indexes": {
                        "data": 0,
                        "gas": 0,
                        "value": 0
                    },
                    "state": {
                        "0x94a87ba3a0dc7fa24aa4f5723638128377cd46a7": {
                            "nonce": "0x01",
                            "balance": "0x0de0b6b332cf95f5",
                            "code": "0x",
                            "storage": {}
                        },
                        "0x25fd95aa4b4f2e00786a2a9668d46b263dc87411": {
                            "nonce": "0x00",
                            "balance": "0x2e",
                            "code": "0x6000355415600957005b60203560003555",
                            "storage": {}
                        },
                        "0x25fd95aa4b4f2e00786a2a9668d46b263dc87511": {
                            "nonce": "0x00",
                            "balance": "0x7490871f",
                            "code": "0x6f7f00000000000000000000000000000000000000000000000000000000000000007f000000000000000000000000ffffffffffffffffffffffffffffffffffffffff7f00000000000000000000000025fd95aa4b4f2e00786a2a9668d46b263dc874117ffffffffffffffffffffffffffffffffffffffffffffffffffffffffffffffffe74977f000000000000000000000000000000000000000000000000000000000000c3506f6b7936181136392060005155",
                            "storage": {}
                        }
                    }
                }
            ]
        },
        "config": {
            "blobSchedule": {
                "Cancun": {
                    "target": "0x03",
                    "max": "0x06",
                    "baseFeeUpdateFraction": "0x32f0ed"
                },
                "Prague": {
                    "target": "0x06",
                    "max": "0x09",
                    "baseFeeUpdateFraction": "0x4c6964"
                }
            },
            "chainid": "0x01"
        },
        "_info": {
            "hash": "0x510caa132613eee3ca2dde5bc32b00d8c8897b57dc720009c0324060506fdf10",
            "comment": "`execution-specs` generated test",
            "filling-transition-tool": "2.18.0rc6",
            "description": "No description available - add a docstring to the python test class or function.",
            "url": "",
            "fixture-format": "state_test"
        }
    }
}