{
    "tests/static/state_tests/stRandom/randomStatetest180Filler.json::randomStatetest180[fork_Cancun-state_test-]": {
        "env": {
            "currentCoinbase": "0x0769092bd9bda0700841f2ba6ae59c756433ae5f",
            "currentGasLimit": "0x7fffffffffffffff",
            "currentNumber": "0x01",
            "currentTimestamp": "0x03e8",
            "currentRandom": "0x0000000000000000000000000000000000000000000000000000000000020000",
            "currentDifficulty": "0x00",
            "currentBaseFee": "0x0a",
            "currentExcessBlobGas": "0x00"
        },
        "pre": {
            "0x0e5df09d2f74c3ce2f9584f87ebdfd95e8f891b3": {
                "nonce": "0x00",
                "balance": "0x0de0b6b3a7640000",
                "code": "0x",
                "storage": {}
            },
            "0x0769092bd9bda0700841f2ba6ae59c756433ae5f": {
                "nonce": "0x00",
                "balance": "0x2e",
                "code": "0x6000355415600957005b60203560003555",
                "storage": {}
            },
            "0x0769092bd9bda0700841f2ba6ae59c756433af5f": {
                "nonce": "0x00",
                "balance": "0x00",
                "code": "0x7f00000000000000000000000100000000000000000000000000000000000000007f0000000000000000000000000000000000000000000000000000000000000001447f000000000000000000000000000000000000000000000000000000000000c3507f00000000000000000000000000000000000000000000000000000000000000007f00000000000000000000000100000000000000000000000000000000000000007f0000000000000000000000000769092bd9bda0700841f2ba6ae59c756433ae5f6f11576b693c128a9e0820609c050a219d60005155",
                "storage": {}
            }
        },
        "transaction": {
            "nonce": "0x00",
            "gasPrice": "0x0a",
            "gasLimit": [
                "0x0186a0"
            ],
            "to": "0x0769092bd9bda0700841f2ba6ae59c756433af5f",
            "value": [
                "0x21c3963d"
            ],
            "data": [
                "0x7f00000000000000000000000100000000000000000000000000000000000000007f0000000000000000000000000000000000000000000000000000000000000001447f000000000000000000000000000000000000000000000000000000000000c3507f00000000000000000000000000000000000000000000000000000000000000007f00000000000000000000000100000000000000000000000000000000000000007f0000000000000000000000000769092bd9bda0700841f2ba6ae59c756433ae5f6f11576b693c128a9e0820609c050a219d"
            ],
            "sender": "0x0e5df09d2f74c3ce2f9584f87ebdfd95e8f891b3",
            "secretKey": "0xac8a7ebaefe77f159ffcaab10769092bd9bda0700841f2ba6ae59c756433ae5f"
        },
        "post": {
            "Cancun": [
                {
                    "hash": "0x39134c31ee043cba0fc7f7ac11477b749a1f0895e29a9541f647caf280f8f32b",
                    "logs": "0x1dcc4de8dec75d7aab85b567b6ccd41ad312451b948a7413f0a142fd40d49347",
                    "txbytes": "0xf9013d800a830186a0940769092bd9bda0700841f2ba6ae59c756433af5f8421c3963db8d87f00000000000000000000000100000000000000000000000000000000000000007f0000000000000000000000000000000000000000000000000000000000000001447f000000000000000000000000000000000000000000000000000000000000c3507f00000000000000000000000000000000000000000000000000000000000000007f00000000000000000000000100000000000000000000000000000000000000007f0000000000000000000000000769092bd9bda0700841f2ba6ae59c756433ae5f6f11576b693c128a9e0820609c050a219d26a0c3ad152a3e0cb777a59addbccecff64ea970445018b7b7fdbf9b5f8f8290cd62a0500e4e959469ba738440572a527a7509b733851286bde030317c4a221e87c979",
                    "indexes": {
                        "data": 0,
                        "gas": 0,
                        "value": 0
                    },
                    "state": {
                        "0x0e5df09d2f74c3ce2f9584f87ebdfd95e8f891b3": {
                            "nonce": "0x01",
                            "balance": "0x0de0b6b385999c33",
                            "code": "0x",
                            "storage": {}
                        },
                        "0x0769092bd9bda0700841f2ba6ae59c756433ae5f": {
                            "nonce": "0x00",
                            "balance": "0x2e",
                            "code": "0x6000355415600957005b60203560003555",
                            "storage": {}
                        },
                        "0x0769092bd9bda0700841f2ba6ae59c756433af5f": {
                            "nonce": "0x00",
                            "balance": "0x21c3963d",
                            "code": "0x7f00000000000000000000000100000000000000000000000000000000000000007f0000000000000000000000000000000000000000000000000000000000000001447f000000000000000000000000000000000000000000000000000000000000c3507f00000000000000000000000000000000000000000000000000000000000000007f00000000000000000000000100000000000000000000000000000000000000007f0000000000000000000000000769092bd9bda0700841f2ba6ae59c756433ae5f6f11576b693c128a9e0820609c050a219d60005155",
                            "storage": {
                                "0x00": "0x11576b693c128a9e0820609c050a219d"
                            }
                        }
                    }
                }
            ]
        },
        "config": {
            "blobSchedule": {
                "Cancun": {
                    "target": "0x03",
                    "max": "0x06",
                    "baseFeeUpdateFraction": "0x32f0ed"
                }
            },
            "chainid": "0x01"
        },
        "_info": {
            "hash": "0x7339d651598f3fe6ffce7416e7d1562f11cb52065d2d01ec72b7d299e0c664e3",
            "comment": "`execution-specs` generated test",
            "filling-transition-tool": "2.18.0rc6",
            "description": "No description available - add a docstring to the python test class or function.",
            "url": "",
            "fixture-format": "state_test"
        }
    },
    "tests/static/state_tests/stRandom/randomStatetest180Filler.json::randomStatetest180[fork_Osaka-state_test-]": {
        "env": {
            "currentCoinbase": "0x0769092bd9bda0700841f2ba6ae59c756433ae5f",
            "currentGasLimit": "0x7fffffffffffffff",
            "currentNumber": "0x01",
            "currentTimestamp": "0x03e8",
            "currentRandom": "0x0000000000000000000000000000000000000000000000000000000000020000",
            "currentDifficulty": "0x00",
            "currentBaseFee": "0x0a",
            "currentExcessBlobGas": "0x00"
        },
        "pre": {
            "0x0e5df09d2f74c3ce2f9584f87ebdfd95e8f891b3": {
                "nonce": "0x00",
                "balance": "0x0de0b6b3a7640000",
                "code": "0x",
                "storage": {}
            },
            "0x0769092bd9bda0700841f2ba6ae59c756433ae5f": {
                "nonce": "0x00",
                "balance": "0x2e",
                "code": "0x6000355415600957005b60203560003555",
                "storage": {}
            },
            "0x0769092bd9bda0700841f2ba6ae59c756433af5f": {
                "nonce": "0x00",
                "balance": "0x00",
                "code": "0x7f00000000000000000000000100000000000000000000000000000000000000007f0000000000000000000000000000000000000000000000000000000000000001447f000000000000000000000000000000000000000000000000000000000000c3507f00000000000000000000000000000000000000000000000000000000000000007f00000000000000000000000100000000000000000000000000000000000000007f0000000000000000000000000769092bd9bda0700841f2ba6ae59c756433ae5f6f11576b693c128a9e0820609c050a219d60005155",
                "storage": {}
            }
        },
        "transaction": {
            "nonce": "0x00",
            "gasPrice": "0x0a",
            "gasLimit": [
                "0x0186a0"
            ],
            "to": "0x0769092bd9bda0700841f2ba6ae59c756433af5f",
            "value": [
                "0x21c3963d"
            ],
            "data": [
                "0x7f00000000000000000000000100000000000000000000000000000000000000007f0000000000000000000000000000000000000000000000000000000000000001447f000000000000000000000000000000000000000000000000000000000000c3507f00000000000000000000000000000000000000000000000000000000000000007f00000000000000000000000100000000000000000000000000000000000000007f0000000000000000000000000769092bd9bda0700841f2ba6ae59c756433ae5f6f11576b693c128a9e0820609c050a219d"
            ],
            "sender": "0x0e5df09d2f74c3ce2f9584f87ebdfd95e8f891b3",
            "secretKey": "0xac8a7ebaefe77f159ffcaab10769092bd9bda0700841f2ba6ae59c756433ae5f"
        },
        "post": {
            "Osaka": [
                {
                    "hash": "0x39134c31ee043cba0fc7f7ac11477b749a1f0895e29a9541f647caf280f8f32b",
                    "logs": "0x1dcc4de8dec75d7aab85b567b6ccd41ad312451b948a7413f0a142fd40d49347",
                    "txbytes": "0xf9013d800a830186a0940769092bd9bda0700841f2ba6ae59c756433af5f8421c3963db8d87f00000000000000000000000100000000000000000000000000000000000000007f0000000000000000000000000000000000000000000000000000000000000001447f000000000000000000000000000000000000000000000000000000000000c3507f00000000000000000000000000000000000000000000000000000000000000007f00000000000000000000000100000000000000000000000000000000000000007f0000000000000000000000000769092bd9bda0700841f2ba6ae59c756433ae5f6f11576b693c128a9e0820609c050a219d26a0c3ad152a3e0cb777a59addbccecff64ea970445018b7b7fdbf9b5f8f8290cd62a0500e4e959469ba738440572a527a7509b733851286bde030317c4a221e87c979",
                    "indexes": {
                        "data": 0,
                        "gas": 0,
                        "value": 0
                    },
                    "state": {
                        "0x0e5df09d2f74c3ce2f9584f87ebdfd95e8f891b3": {
                            "nonce": "0x01",
                            "balance": "0x0de0b6b385999c33",
                            "code": "0x",
                            "storage": {}
                        },
                        "0x0769092bd9bda0700841f2ba6ae59c756433ae5f": {
                            "nonce": "0x00",
                            "balance": "0x2e",
                            "code": "0x6000355415600957005b60203560003555",
                            "storage": {}
                        },
                        "0x0769092bd9bda0700841f2ba6ae59c756433af5f": {
                            "nonce": "0x00",
                            "balance": "0x21c3963d",
                            "code": "0x7f00000000000000000000000100000000000000000000000000000000000000007f0000000000000000000000000000000000000000000000000000000000000001447f000000000000000000000000000000000000000000000000000000000000c3507f00000000000000000000000000000000000000000000000000000000000000007f00000000000000000000000100000000000000000000000000000000000000007f0000000000000000000000000769092bd9bda0700841f2ba6ae59c756433ae5f6f11576b693c128a9e0820609c050a219d60005155",
                            "storage": {
                                "0x00": "0x11576b693c128a9e0820609c050a219d"
                            }
                        }
                    }
                }
            ]
        },
        "config": {
            "blobSchedule": {
                "Cancun": {
                    "target": "0x03",
                    "max": "0x06",
                    "baseFeeUpdateFraction": "0x32f0ed"
                },
                "Prague": {
                    "target": "0x06",
                    "max": "0x09",
                    "baseFeeUpdateFraction": "0x4c6964"
                },
                "Osaka": {
                    "target": "0x06",
                    "max": "0x09",
                    "baseFeeUpdateFraction": "0x4c6964"
                }
            },
            "chainid": "0x01"
        },
        "_info": {
            "hash": "0x8a96a4e83209bde3febb8abc2ba6bd1d152d9d07940dcce40aefb714841d447c",
            "comment": "`execution-specs` generated test",
            "filling-transition-tool": "2.18.0rc6",
            "description": "No description available - add a docstring to the python test class or function.",
            "url": "",
            "fixture-format": "state_test"
        }
    },
    "tests/static/state_tests/stRandom/randomStatetest180Filler.json::randomStatetest180[fork_Prague-state_test-]": {
        "env": {
            "currentCoinbase": "0x0769092bd9bda0700841f2ba6ae59c756433ae5f",
            "currentGasLimit": "0x7fffffffffffffff",
            "currentNumber": "0x01",
            "currentTimestamp": "0x03e8",
            "currentRandom": "0x0000000000000000000000000000000000000000000000000000000000020000",
            "currentDifficulty": "0x00",
            "currentBaseFee": "0x0a",
            "currentExcessBlobGas": "0x00"
        },
        "pre": {
            "0x0e5df09d2f74c3ce2f9584f87ebdfd95e8f891b3": {
                "nonce": "0x00",
                "balance": "0x0de0b6b3a7640000",
                "code": "0x",
                "storage": {}
            },
            "0x0769092bd9bda0700841f2ba6ae59c756433ae5f": {
                "nonce": "0x00",
                "balance": "0x2e",
                "code": "0x6000355415600957005b60203560003555",
                "storage": {}
            },
            "0x0769092bd9bda0700841f2ba6ae59c756433af5f": {
                "nonce": "0x00",
                "balance": "0x00",
                "code": "0x7f00000000000000000000000100000000000000000000000000000000000000007f0000000000000000000000000000000000000000000000000000000000000001447f000000000000000000000000000000000000000000000000000000000000c3507f00000000000000000000000000000000000000000000000000000000000000007f00000000000000000000000100000000000000000000000000000000000000007f0000000000000000000000000769092bd9bda0700841f2ba6ae59c756433ae5f6f11576b693c128a9e0820609c050a219d60005155",
                "storage": {}
            }
        },
        "transaction": {
            "nonce": "0x00",
            "gasPrice": "0x0a",
            "gasLimit": [
                "0x0186a0"
            ],
            "to": "0x0769092bd9bda0700841f2ba6ae59c756433af5f",
            "value": [
                "0x21c3963d"
            ],
            "data": [
                "0x7f00000000000000000000000100000000000000000000000000000000000000007f0000000000000000000000000000000000000000000000000000000000000001447f000000000000000000000000000000000000000000000000000000000000c3507f00000000000000000000000000000000000000000000000000000000000000007f00000000000000000000000100000000000000000000000000000000000000007f0000000000000000000000000769092bd9bda0700841f2ba6ae59c756433ae5f6f11576b693c128a9e0820609c050a219d"
            ],
            "sender": "0x0e5df09d2f74c3ce2f9584f87ebdfd95e8f891b3",
            "secretKey": "0xac8a7ebaefe77f159ffcaab10769092bd9bda0700841f2ba6ae59c756433ae5f"
        },
        "post": {
            "Prague": [
                {
                    "hash": "0x39134c31ee043cba0fc7f7ac11477b749a1f0895e29a9541f647caf280f8f32b",
                    "logs": "0x1dcc4de8dec75d7aab85b567b6ccd41ad312451b948a7413f0a142fd40d49347",
                    "txbytes": "0xf9013d800a830186a0940769092bd9bda0700841f2ba6ae59c756433af5f8421c3963db8d87f00000000000000000000000100000000000000000000000000000000000000007f0000000000000000000000000000000000000000000000000000000000000001447f000000000000000000000000000000000000000000000000000000000000c3507f00000000000000000000000000000000000000000000000000000000000000007f00000000000000000000000100000000000000000000000000000000000000007f0000000000000000000000000769092bd9bda0700841f2ba6ae59c756433ae5f6f11576b693c128a9e0820609c050a219d26a0c3ad152a3e0cb777a59addbccecff64ea970445018b7b7fdbf9b5f8f8290cd62a0500e4e959469ba738440572a527a7509b733851286bde030317c4a221e87c979",
                    "indexes": {
                        "data": 0,
                        "gas": 0,
                        "value": 0
                    },
                    "state": {
                        "0x0e5df09d2f74c3ce2f9584f87ebdfd95e8f891b3": {
                            "nonce": "0x01",
                            "balance": "0x0de0b6b385999c33",
                            "code": "0x",
                            "storage": {}
                        },
                        "0x0769092bd9bda0700841f2ba6ae59c756433ae5f": {
                            "nonce": "0x00",
                            "balance": "0x2e",
                            "code": "0x6000355415600957005b60203560003555",
                            "storage": {}
                        },
                        "0x0769092bd9bda0700841f2ba6ae59c756433af5f": {
                            "nonce": "0x00",
                            "balance": "0x21c3963d",
                            "code": "0x7f00000000000000000000000100000000000000000000000000000000000000007f0000000000000000000000000000000000000000000000000000000000000001447f000000000000000000000000000000000000000000000000000000000000c3507f00000000000000000000000000000000000000000000000000000000000000007f00000000000000000000000100000000000000000000000000000000000000007f0000000000000000000000000769092bd9bda0700841f2ba6ae59c756433ae5f6f11576b693c128a9e0820609c050a219d60005155",
                            "storage": {
                                "0x00": "0x11576b693c128a9e0820609c050a219d"
                            }
                        }
                    }
                }
            ]
        },
        "config": {
            "blobSchedule": {
                "Cancun": {
                    "target": "0x03",
                    "max": "0x06",
                    "baseFeeUpdateFraction": "0x32f0ed"
                },
                "Prague": {
                    "target": "0x06",
                    "max": "0x09",
                    "baseFeeUpdateFraction": "0x4c6964"
                }
            },
            "chainid": "0x01"
        },
        "_info": {
            "hash": "0xa2a9e663001c0ee862247831497274cb9f4351ed06f0010183271585903c453f",
            "comment": "`execution-specs` generated test",
            "filling-transition-tool": "2.18.0rc6",
            "description": "No description available - add a docstring to the python test class or function.",
            "url": "",
            "fixture-format": "state_test"
        }
    }
}