{
    "tests/static/state_tests/stRandom/randomStatetest100Filler.json::randomStatetest100[fork_Cancun-state_test-]": {
        "env": {
            "currentCoinbase": "0x9bfd1597835a3d3d22083600f36f153a2871b7a3",
            "currentGasLimit": "0x7fffffffffffffff",
            "currentNumber": "0x01",
            "currentTimestamp": "0x03e8",
            "currentRandom": "0x0000000000000000000000000000000000000000000000000000000000020000",
            "currentDifficulty": "0x00",
            "currentBaseFee": "0x0a",
            "currentExcessBlobGas": "0x00"
        },
        "pre": {
            "0x6b1193f51d8045306471a0c17ae26a1bb54ab383": {
                "nonce": "0x00",
                "balance": "0x0de0b6b3a7640000",
                "code": "0x",
                "storage": {}
            },
            "0x9bfd1597835a3d3d22083600f36f153a2871b7a3": {
                "nonce": "0x00",
                "balance": "0x2e",
                "code": "0x6000355415600957005b60203560003555",
                "storage": {}
            },
            "0x9bfd1597835a3d3d22083600f36f153a2871b8a3": {
                "nonce": "0x00",
                "balance": "0x0de0b6b3a7640000",
                "code": "0x414243444342444283f24455",
                "storage": {}
            }
        },
        "transaction": {
            "nonce": "0x00",
            "gasPrice": "0x0a",
            "gasLimit": [
                "0x061a80"
            ],
            "to": "0x9bfd1597835a3d3d22083600f36f153a2871b8a3",
            "value": [
                "0x0186a0"
            ],
            "data": [
                "0x42"
            ],
            "sender": "0x6b1193f51d8045306471a0c17ae26a1bb54ab383",
            "secretKey": "0xfa27e5313d915b8c7717325f9bfd1597835a3d3d22083600f36f153a2871b7a3"
        },
        "post": {
            "Cancun": [
                {
                    "hash": "0x56869a072f77212d17dfc4752884e6be6d103673d4e56047d7ab88db478b44d4",
                    "logs": "0x1dcc4de8dec75d7aab85b567b6ccd41ad312451b948a7413f0a142fd40d49347",
                    "txbytes": "0xf863800a83061a80949bfd1597835a3d3d22083600f36f153a2871b8a3830186a04226a0a58230a41ef90f35c40e2894f360c672615ddbf806cbe74b5d7483e3999627fea03a627fd9a7feb580cb103cb9ed1b297ea9c9c7fc1786438ea58554bd12a86c66",
                    "indexes": {
                        "data": 0,
                        "gas": 0,
                        "value": 0
                    },
                    "state": {
                        "0x6b1193f51d8045306471a0c17ae26a1bb54ab383": {
                            "nonce": "0x01",
                            "balance": "0x0de0b6b3a7539850",
                            "code": "0x",
                            "storage": {}
                        },
                        "0x9bfd1597835a3d3d22083600f36f153a2871b7a3": {
                            "nonce": "0x00",
                            "balance": "0x2e",
                            "code": "0x6000355415600957005b60203560003555",
                            "storage": {}
                        },
                        "0x9bfd1597835a3d3d22083600f36f153a2871b8a3": {
                            "nonce": "0x00",
                            "balance": "0x0de0b6b3a76586a0",
                            "code": "0x414243444342444283f24455",
                            "storage": {
                                "0x020000": "0x01"
                            }
                        }
                    }
                }
            ]
        },
        "config": {
            "blobSchedule": {
                "Cancun": {
                    "target": "0x03",
                    "max": "0x06",
                    "baseFeeUpdateFraction": "0x32f0ed"
                }
            },
            "chainid": "0x01"
        },
        "_info": {
            "hash": "0x52046d84497bf6c977bf33f25b06d0bb51de31e465268e06b91befe8d3264839",
            "comment": "`execution-specs` generated test",
            "filling-transition-tool": "2.18.0rc6",
            "description": "No description available - add a docstring to the python test class or function.",
            "url": "",
            "fixture-format": "state_test"
        }
    },
    "tests/static/state_tests/stRandom/randomStatetest100Filler.json::randomStatetest100[fork_Osaka-state_test-]": {
        "env": {
            "currentCoinbase": "0x9bfd1597835a3d3d22083600f36f153a2871b7a3",
            "currentGasLimit": "0x7fffffffffffffff",
            "currentNumber": "0x01",
            "currentTimestamp": "0x03e8",
            "currentRandom": "0x0000000000000000000000000000000000000000000000000000000000020000",
            "currentDifficulty": "0x00",
            "currentBaseFee": "0x0a",
            "currentExcessBlobGas": "0x00"
        },
        "pre": {
            "0x6b1193f51d8045306471a0c17ae26a1bb54ab383": {
                "nonce": "0x00",
                "balance": "0x0de0b6b3a7640000",
                "code": "0x",
                "storage": {}
            },
            "0x9bfd1597835a3d3d22083600f36f153a2871b7a3": {
                "nonce": "0x00",
                "balance": "0x2e",
                "code": "0x6000355415600957005b60203560003555",
                "storage": {}
            },
            "0x9bfd1597835a3d3d22083600f36f153a2871b8a3": {
                "nonce": "0x00",
                "balance": "0x0de0b6b3a7640000",
                "code": "0x414243444342444283f24455",
                "storage": {}
            }
        },
        "transaction": {
            "nonce": "0x00",
            "gasPrice": "0x0a",
            "gasLimit": [
                "0x061a80"
            ],
            "to": "0x9bfd1597835a3d3d22083600f36f153a2871b8a3",
            "value": [
                "0x0186a0"
            ],
            "data": [
                "0x42"
            ],
            "sender": "0x6b1193f51d8045306471a0c17ae26a1bb54ab383",
            "secretKey": "0xfa27e5313d915b8c7717325f9bfd1597835a3d3d22083600f36f153a2871b7a3"
        },
        "post": {
            "Osaka": [
                {
                    "hash": "0x56869a072f77212d17dfc4752884e6be6d103673d4e56047d7ab88db478b44d4",
                    "logs": "0x1dcc4de8dec75d7aab85b567b6ccd41ad312451b948a7413f0a142fd40d49347",
                    "txbytes": "0xf863800a83061a80949bfd1597835a3d3d22083600f36f153a2871b8a3830186a04226a0a58230a41ef90f35c40e2894f360c672615ddbf806cbe74b5d7483e3999627fea03a627fd9a7feb580cb103cb9ed1b297ea9c9c7fc1786438ea58554bd12a86c66",
                    "indexes": {
                        "data": 0,
                        "gas": 0,
                        "value": 0
                    },
                    "state": {
                        "0x6b1193f51d8045306471a0c17ae26a1bb54ab383": {
                            "nonce": "0x01",
                            "balance": "0x0de0b6b3a7539850",
                            "code": "0x",
                            "storage": {}
                        },
                        "0x9bfd1597835a3d3d22083600f36f153a2871b7a3": {
                            "nonce": "0x00",
                            "balance": "0x2e",
                            "code": "0x6000355415600957005b60203560003555",
                            "storage": {}
                        },
                        "0x9bfd1597835a3d3d22083600f36f153a2871b8a3": {
                            "nonce": "0x00",
                            "balance": "0x0de0b6b3a76586a0",
                            "code": "0x414243444342444283f24455",
                            "storage": {
                                "0x020000": "0x01"
                            }
                        }
                    }
                }
            ]
        },
        "config": {
            "blobSchedule": {
                "Cancun": {
                    "target": "0x03",
                    "max": "0x06",
                    "baseFeeUpdateFraction": "0x32f0ed"
                },
                "Prague": {
                    "target": "0x06",
                    "max": "0x09",
                    "baseFeeUpdateFraction": "0x4c6964"
                },
                "Osaka": {
                    "target": "0x06",
                    "max": "0x09",
                    "baseFeeUpdateFraction": "0x4c6964"
                }
            },
            "chainid": "0x01"
        },
        "_info": {
            "hash": "0xa19153564f0cf410b73fd01b0f8cc6d87015b722b1be44edc4d1bebd67c3ee98",
            "comment": "`execution-specs` generated test",
            "filling-transition-tool": "2.18.0rc6",
            "description": "No description available - add a docstring to the python test class or function.",
            "url": "",
            "fixture-format": "state_test"
        }
    },
    "tests/static/state_tests/stRandom/randomStatetest100Filler.json::randomStatetest100[fork_Prague-state_test-]": {
        "env": {
            "currentCoinbase": "0x9bfd1597835a3d3d22083600f36f153a2871b7a3",
            "currentGasLimit": "0x7fffffffffffffff",
            "currentNumber": "0x01",
            "currentTimestamp": "0x03e8",
            "currentRandom": "0x0000000000000000000000000000000000000000000000000000000000020000",
            "currentDifficulty": "0x00",
            "currentBaseFee": "0x0a",
            "currentExcessBlobGas": "0x00"
        },
        "pre": {
            "0x6b1193f51d8045306471a0c17ae26a1bb54ab383": {
                "nonce": "0x00",
                "balance": "0x0de0b6b3a7640000",
                "code": "0x",
                "storage": {}
            },
            "0x9bfd1597835a3d3d22083600f36f153a2871b7a3": {
                "nonce": "0x00",
                "balance": "0x2e",
                "code": "0x6000355415600957005b60203560003555",
                "storage": {}
            },
            "0x9bfd1597835a3d3d22083600f36f153a2871b8a3": {
                "nonce": "0x00",
                "balance": "0x0de0b6b3a7640000",
                "code": "0x414243444342444283f24455",
                "storage": {}
            }
        },
        "transaction": {
            "nonce": "0x00",
            "gasPrice": "0x0a",
            "gasLimit": [
                "0x061a80"
            ],
            "to": "0x9bfd1597835a3d3d22083600f36f153a2871b8a3",
            "value": [
                "0x0186a0"
            ],
            "data": [
                "0x42"
            ],
            "sender": "0x6b1193f51d8045306471a0c17ae26a1bb54ab383",
            "secretKey": "0xfa27e5313d915b8c7717325f9bfd1597835a3d3d22083600f36f153a2871b7a3"
        },
        "post": {
            "Prague": [
                {
                    "hash": "0x56869a072f77212d17dfc4752884e6be6d103673d4e56047d7ab88db478b44d4",
                    "logs": "0x1dcc4de8dec75d7aab85b567b6ccd41ad312451b948a7413f0a142fd40d49347",
                    "txbytes": "0xf863800a83061a80949bfd1597835a3d3d22083600f36f153a2871b8a3830186a04226a0a58230a41ef90f35c40e2894f360c672615ddbf806cbe74b5d7483e3999627fea03a627fd9a7feb580cb103cb9ed1b297ea9c9c7fc1786438ea58554bd12a86c66",
                    "indexes": {
                        "data": 0,
                        "gas": 0,
                        "value": 0
                    },
                    "state": {
                        "0x6b1193f51d8045306471a0c17ae26a1bb54ab383": {
                            "nonce": "0x01",
                            "balance": "0x0de0b6b3a7539850",
                            "code": "0x",
                            "storage": {}
                        },
                        "0x9bfd1597835a3d3d22083600f36f153a2871b7a3": {
                            "nonce": "0x00",
                            "balance": "0x2e",
                            "code": "0x6000355415600957005b60203560003555",
                            "storage": {}
                        },
                        "0x9bfd1597835a3d3d22083600f36f153a2871b8a3": {
                            "nonce": "0x00",
                            "balance": "0x0de0b6b3a76586a0",
                            "code": "0x414243444342444283f24455",
                            "storage": {
                                "0x020000": "0x01"
                            }
                        }
                    }
                }
            ]
        },
        "config": {
            "blobSchedule": {
                "Cancun": {
                    "target": "0x03",
                    "max": "0x06",
                    "baseFeeUpdateFraction": "0x32f0ed"
                },
                "Prague": {
                    "target": "0x06",
                    "max": "0x09",
                    "baseFeeUpdateFraction": "0x4c6964"
                }
            },
            "chainid": "0x01"
        },
        "_info": {
            "hash": "0xb8bcb4c725b75f167f7cb2c073592c7da746ee509e47a188188245fd89b20ce3",
            "comment": "`execution-specs` generated test",
            "filling-transition-tool": "2.18.0rc6",
            "description": "No description available - add a docstring to the python test class or function.",
            "url": "",
            "fixture-format": "state_test"
        }
    }
}