{
    "tests/static/state_tests/stRandom/randomStatetest146Filler.json::randomStatetest146[fork_Cancun-state_test-]": {
        "env": {
            "currentCoinbase": "0xabb147601aaef659ed99b4c67a92da1cce08c5a3",
            "currentGasLimit": "0x7fffffffffffffff",
            "currentNumber": "0x01",
            "currentTimestamp": "0x03e8",
            "currentRandom": "0x0000000000000000000000000000000000000000000000000000000000020000",
            "currentDifficulty": "0x00",
            "currentBaseFee": "0x0a",
            "currentExcessBlobGas": "0x00"
        },
        "pre": {
            "0x4ba30919ef70a370a56b11753d574f3106e68b64": {
                "nonce": "0x00",
                "balance": "0x0de0b6b3a7640000",
                "code": "0x",
                "storage": {}
            },
            "0xabb147601aaef659ed99b4c67a92da1cce08c5a3": {
                "nonce": "0x00",
                "balance": "0x2e",
                "code": "0x6000355415600957005b60203560003555",
                "storage": {}
            },
            "0xabb147601aaef659ed99b4c67a92da1cce08c6a3": {
                "nonce": "0x00",
                "balance": "0x0de0b6b3a7640000",
                "code": "0x434243434444424350303614f20a",
                "storage": {}
            }
        },
        "transaction": {
            "nonce": "0x00",
            "gasPrice": "0x0a",
            "gasLimit": [
                "0x061a80"
            ],
            "to": "0xabb147601aaef659ed99b4c67a92da1cce08c6a3",
            "value": [
                "0x0186a0"
            ],
            "data": [
                "0x42"
            ],
            "sender": "0x4ba30919ef70a370a56b11753d574f3106e68b64",
            "secretKey": "0x00a565cfebeeb1cf42f99f8fabb147601aaef659ed99b4c67a92da1cce08c5a3"
        },
        "post": {
            "Cancun": [
                {
                    "hash": "0xe310f3de0c497f8dd115ae840588bf91782dfa0fa59895a44fbb8e814da33b71",
                    "logs": "0x1dcc4de8dec75d7aab85b567b6ccd41ad312451b948a7413f0a142fd40d49347",
                    "txbytes": "0xf863800a83061a8094abb147601aaef659ed99b4c67a92da1cce08c6a3830186a04225a0410335267694a3aad7ae9650b4840a50d2ddcc0ee0ee7a16813c26ec4d13e159a019402326107027b9997716679565afaed3b3a9781f4f04b8567e5fad9d027451",
                    "indexes": {
                        "data": 0,
                        "gas": 0,
                        "value": 0
                    },
                    "state": {
                        "0x4ba30919ef70a370a56b11753d574f3106e68b64": {
                            "nonce": "0x01",
                            "balance": "0x0de0b6b3a756f518",
                            "code": "0x",
                            "storage": {}
                        },
                        "0xabb147601aaef659ed99b4c67a92da1cce08c5a3": {
                            "nonce": "0x00",
                            "balance": "0x2e",
                            "code": "0x6000355415600957005b60203560003555",
                            "storage": {}
                        },
                        "0xabb147601aaef659ed99b4c67a92da1cce08c6a3": {
                            "nonce": "0x00",
                            "balance": "0x0de0b6b3a76586a0",
                            "code": "0x434243434444424350303614f20a",
                            "storage": {}
                        }
                    }
                }
            ]
        },
        "config": {
            "blobSchedule": {
                "Cancun": {
                    "target": "0x03",
                    "max": "0x06",
                    "baseFeeUpdateFraction": "0x32f0ed"
                }
            },
            "chainid": "0x01"
        },
        "_info": {
            "hash": "0x561c8478620350aae2517c64697f9336f1bc006af34aac10f9bc6f2d71134004",
            "comment": "`execution-spec-tests` generated test",
            "filling-transition-tool": "ethereum-spec-evm-resolver 0.0.5",
            "description": "No description available - add a docstring to the python test class or function.",
            "url": "",
            "fixture-format": "state_test",
            "eels-resolution": {
                "git-url": "https://github.com/marioevz/execution-specs.git",
                "branch": "forks/bpo1",
                "commit": "3387e5f4aedfe99becfdc39b444d6371e25e0924"
            }
        }
    },
    "tests/static/state_tests/stRandom/randomStatetest146Filler.json::randomStatetest146[fork_Osaka-state_test-]": {
        "env": {
            "currentCoinbase": "0xabb147601aaef659ed99b4c67a92da1cce08c5a3",
            "currentGasLimit": "0x7fffffffffffffff",
            "currentNumber": "0x01",
            "currentTimestamp": "0x03e8",
            "currentRandom": "0x0000000000000000000000000000000000000000000000000000000000020000",
            "currentDifficulty": "0x00",
            "currentBaseFee": "0x0a",
            "currentExcessBlobGas": "0x00"
        },
        "pre": {
            "0x4ba30919ef70a370a56b11753d574f3106e68b64": {
                "nonce": "0x00",
                "balance": "0x0de0b6b3a7640000",
                "code": "0x",
                "storage": {}
            },
            "0xabb147601aaef659ed99b4c67a92da1cce08c5a3": {
                "nonce": "0x00",
                "balance": "0x2e",
                "code": "0x6000355415600957005b60203560003555",
                "storage": {}
            },
            "0xabb147601aaef659ed99b4c67a92da1cce08c6a3": {
                "nonce": "0x00",
                "balance": "0x0de0b6b3a7640000",
                "code": "0x434243434444424350303614f20a",
                "storage": {}
            }
        },
        "transaction": {
            "nonce": "0x00",
            "gasPrice": "0x0a",
            "gasLimit": [
                "0x061a80"
            ],
            "to": "0xabb147601aaef659ed99b4c67a92da1cce08c6a3",
            "value": [
                "0x0186a0"
            ],
            "data": [
                "0x42"
            ],
            "sender": "0x4ba30919ef70a370a56b11753d574f3106e68b64",
            "secretKey": "0x00a565cfebeeb1cf42f99f8fabb147601aaef659ed99b4c67a92da1cce08c5a3"
        },
        "post": {
            "Osaka": [
                {
                    "hash": "0xe310f3de0c497f8dd115ae840588bf91782dfa0fa59895a44fbb8e814da33b71",
                    "logs": "0x1dcc4de8dec75d7aab85b567b6ccd41ad312451b948a7413f0a142fd40d49347",
                    "txbytes": "0xf863800a83061a8094abb147601aaef659ed99b4c67a92da1cce08c6a3830186a04225a0410335267694a3aad7ae9650b4840a50d2ddcc0ee0ee7a16813c26ec4d13e159a019402326107027b9997716679565afaed3b3a9781f4f04b8567e5fad9d027451",
                    "indexes": {
                        "data": 0,
                        "gas": 0,
                        "value": 0
                    },
                    "state": {
                        "0x4ba30919ef70a370a56b11753d574f3106e68b64": {
                            "nonce": "0x01",
                            "balance": "0x0de0b6b3a756f518",
                            "code": "0x",
                            "storage": {}
                        },
                        "0xabb147601aaef659ed99b4c67a92da1cce08c5a3": {
                            "nonce": "0x00",
                            "balance": "0x2e",
                            "code": "0x6000355415600957005b60203560003555",
                            "storage": {}
                        },
                        "0xabb147601aaef659ed99b4c67a92da1cce08c6a3": {
                            "nonce": "0x00",
                            "balance": "0x0de0b6b3a76586a0",
                            "code": "0x434243434444424350303614f20a",
                            "storage": {}
                        }
                    }
                }
            ]
        },
        "config": {
            "blobSchedule": {
                "Cancun": {
                    "target": "0x03",
                    "max": "0x06",
                    "baseFeeUpdateFraction": "0x32f0ed"
                },
                "Prague": {
                    "target": "0x06",
                    "max": "0x09",
                    "baseFeeUpdateFraction": "0x4c6964"
                },
                "Osaka": {
                    "target": "0x06",
                    "max": "0x09",
                    "baseFeeUpdateFraction": "0x4c6964"
                }
            },
            "chainid": "0x01"
        },
        "_info": {
            "hash": "0xa1384fac3043f9688cd5177dc9136b0027c0e12d6dc1b7cb191753d8780f7111",
            "comment": "`execution-spec-tests` generated test",
            "filling-transition-tool": "ethereum-spec-evm-resolver 0.0.5",
            "description": "No description available - add a docstring to the python test class or function.",
            "url": "",
            "fixture-format": "state_test",
            "eels-resolution": {
                "git-url": "https://github.com/marioevz/execution-specs.git",
                "branch": "forks/bpo1",
                "commit": "3387e5f4aedfe99becfdc39b444d6371e25e0924"
            }
        }
    },
    "tests/static/state_tests/stRandom/randomStatetest146Filler.json::randomStatetest146[fork_Prague-state_test-]": {
        "env": {
            "currentCoinbase": "0xabb147601aaef659ed99b4c67a92da1cce08c5a3",
            "currentGasLimit": "0x7fffffffffffffff",
            "currentNumber": "0x01",
            "currentTimestamp": "0x03e8",
            "currentRandom": "0x0000000000000000000000000000000000000000000000000000000000020000",
            "currentDifficulty": "0x00",
            "currentBaseFee": "0x0a",
            "currentExcessBlobGas": "0x00"
        },
        "pre": {
            "0x4ba30919ef70a370a56b11753d574f3106e68b64": {
                "nonce": "0x00",
                "balance": "0x0de0b6b3a7640000",
                "code": "0x",
                "storage": {}
            },
            "0xabb147601aaef659ed99b4c67a92da1cce08c5a3": {
                "nonce": "0x00",
                "balance": "0x2e",
                "code": "0x6000355415600957005b60203560003555",
                "storage": {}
            },
            "0xabb147601aaef659ed99b4c67a92da1cce08c6a3": {
                "nonce": "0x00",
                "balance": "0x0de0b6b3a7640000",
                "code": "0x434243434444424350303614f20a",
                "storage": {}
            }
        },
        "transaction": {
            "nonce": "0x00",
            "gasPrice": "0x0a",
            "gasLimit": [
                "0x061a80"
            ],
            "to": "0xabb147601aaef659ed99b4c67a92da1cce08c6a3",
            "value": [
                "0x0186a0"
            ],
            "data": [
                "0x42"
            ],
            "sender": "0x4ba30919ef70a370a56b11753d574f3106e68b64",
            "secretKey": "0x00a565cfebeeb1cf42f99f8fabb147601aaef659ed99b4c67a92da1cce08c5a3"
        },
        "post": {
            "Prague": [
                {
                    "hash": "0xe310f3de0c497f8dd115ae840588bf91782dfa0fa59895a44fbb8e814da33b71",
                    "logs": "0x1dcc4de8dec75d7aab85b567b6ccd41ad312451b948a7413f0a142fd40d49347",
                    "txbytes": "0xf863800a83061a8094abb147601aaef659ed99b4c67a92da1cce08c6a3830186a04225a0410335267694a3aad7ae9650b4840a50d2ddcc0ee0ee7a16813c26ec4d13e159a019402326107027b9997716679565afaed3b3a9781f4f04b8567e5fad9d027451",
                    "indexes": {
                        "data": 0,
                        "gas": 0,
                        "value": 0
                    },
                    "state": {
                        "0x4ba30919ef70a370a56b11753d574f3106e68b64": {
                            "nonce": "0x01",
                            "balance": "0x0de0b6b3a756f518",
                            "code": "0x",
                            "storage": {}
                        },
                        "0xabb147601aaef659ed99b4c67a92da1cce08c5a3": {
                            "nonce": "0x00",
                            "balance": "0x2e",
                            "code": "0x6000355415600957005b60203560003555",
                            "storage": {}
                        },
                        "0xabb147601aaef659ed99b4c67a92da1cce08c6a3": {
                            "nonce": "0x00",
                            "balance": "0x0de0b6b3a76586a0",
                            "code": "0x434243434444424350303614f20a",
                            "storage": {}
                        }
                    }
                }
            ]
        },
        "config": {
            "blobSchedule": {
                "Cancun": {
                    "target": "0x03",
                    "max": "0x06",
                    "baseFeeUpdateFraction": "0x32f0ed"
                },
                "Prague": {
                    "target": "0x06",
                    "max": "0x09",
                    "baseFeeUpdateFraction": "0x4c6964"
                }
            },
            "chainid": "0x01"
        },
        "_info": {
            "hash": "0x14d7f0f58f364fdfe4b466d12db75031f1507f21d26eb466ddf33f592830e98d",
            "comment": "`execution-spec-tests` generated test",
            "filling-transition-tool": "ethereum-spec-evm-resolver 0.0.5",
            "description": "No description available - add a docstring to the python test class or function.",
            "url": "",
            "fixture-format": "state_test",
            "eels-resolution": {
                "git-url": "https://github.com/marioevz/execution-specs.git",
                "branch": "forks/bpo1",
                "commit": "3387e5f4aedfe99becfdc39b444d6371e25e0924"
            }
        }
    }
}