{
    "tests/static/state_tests/stRandom/randomStatetest60Filler.json::randomStatetest60[fork_Cancun-state_test-]": {
        "env": {
            "currentCoinbase": "0x09ddd9dbe5153e796522eef3dc0553a7989d12a3",
            "currentGasLimit": "0x7fffffffffffffff",
            "currentNumber": "0x01",
            "currentTimestamp": "0x03e8",
            "currentRandom": "0x0000000000000000000000000000000000000000000000000000000000020000",
            "currentDifficulty": "0x00",
            "currentBaseFee": "0x0a",
            "currentExcessBlobGas": "0x00"
        },
        "pre": {
            "0x49ff3c47e50aff88577600854d1c3af4dcb704b8": {
                "nonce": "0x00",
                "balance": "0x0de0b6b3a7640000",
                "code": "0x",
                "storage": {}
            },
            "0x09ddd9dbe5153e796522eef3dc0553a7989d12a3": {
                "nonce": "0x00",
                "balance": "0x2e",
                "code": "0x6000355415600957005b60203560003555",
                "storage": {}
            },
            "0x09ddd9dbe5153e796522eef3dc0553a7989d13a3": {
                "nonce": "0x00",
                "balance": "0x00",
                "code": "0x427f0000000000000000000000000000000000000000000000000000000000000000427f000000000000000000000000ffffffffffffffffffffffffffffffffffffffff437f000000000000000000000000000000000000000000000000000000000000c3507ffffffffffffffffffffffffffffffffffffffffffffffffffffffffffffffffe6f969001091aa15b8b9b75459d015a045560005155",
                "storage": {}
            }
        },
        "transaction": {
            "nonce": "0x00",
            "gasPrice": "0x0a",
            "gasLimit": [
                "0x0186a0"
            ],
            "to": "0x09ddd9dbe5153e796522eef3dc0553a7989d13a3",
            "value": [
                "0x54de1eaf"
            ],
            "data": [
                "0x427f0000000000000000000000000000000000000000000000000000000000000000427f000000000000000000000000ffffffffffffffffffffffffffffffffffffffff437f000000000000000000000000000000000000000000000000000000000000c3507ffffffffffffffffffffffffffffffffffffffffffffffffffffffffffffffffe6f969001091aa15b8b9b75459d015a04"
            ],
            "sender": "0x49ff3c47e50aff88577600854d1c3af4dcb704b8",
            "secretKey": "0x54a344ebbf1cf3c085ef23c309ddd9dbe5153e796522eef3dc0553a7989d12a3"
        },
        "post": {
            "Cancun": [
                {
                    "hash": "0xa596a35c345772757159a051477ce492075e370350c220cb35cdc68ab1d7e56e",
                    "logs": "0x1dcc4de8dec75d7aab85b567b6ccd41ad312451b948a7413f0a142fd40d49347",
                    "txbytes": "0xf8fc800a830186a09409ddd9dbe5153e796522eef3dc0553a7989d13a38454de1eafb897427f0000000000000000000000000000000000000000000000000000000000000000427f000000000000000000000000ffffffffffffffffffffffffffffffffffffffff437f000000000000000000000000000000000000000000000000000000000000c3507ffffffffffffffffffffffffffffffffffffffffffffffffffffffffffffffffe6f969001091aa15b8b9b75459d015a0426a0755abe0364957c67954a7f57e827c62c95c4adb56cf73b88240800e7222f69eba04736f232395ce2caff384bdd2661eedc56999a4ca1f911cbed78866e1b9dbd26",
                    "indexes": {
                        "data": 0,
                        "gas": 0,
                        "value": 0
                    },
                    "state": {
                        "0x49ff3c47e50aff88577600854d1c3af4dcb704b8": {
                            "nonce": "0x01",
                            "balance": "0x0de0b6b3527f10dd",
                            "code": "0x",
                            "storage": {}
                        },
                        "0x09ddd9dbe5153e796522eef3dc0553a7989d12a3": {
                            "nonce": "0x00",
                            "balance": "0x2e",
                            "code": "0x6000355415600957005b60203560003555",
                            "storage": {}
                        },
                        "0x09ddd9dbe5153e796522eef3dc0553a7989d13a3": {
                            "nonce": "0x00",
                            "balance": "0x54de1eaf",
                            "code": "0x427f0000000000000000000000000000000000000000000000000000000000000000427f000000000000000000000000ffffffffffffffffffffffffffffffffffffffff437f000000000000000000000000000000000000000000000000000000000000c3507ffffffffffffffffffffffffffffffffffffffffffffffffffffffffffffffffe6f969001091aa15b8b9b75459d015a045560005155",
                            "storage": {
                                "0x00": "0x969001091aa15b8b9b75459d015a0455"
                            }
                        }
                    }
                }
            ]
        },
        "config": {
            "blobSchedule": {
                "Cancun": {
                    "target": "0x03",
                    "max": "0x06",
                    "baseFeeUpdateFraction": "0x32f0ed"
                }
            },
            "chainid": "0x01"
        },
        "_info": {
            "hash": "0xf65d8e6f9e0d1230b0ee90393966e8cf8fcdbb2b505da438f16becaf7dfbaad7",
            "comment": "`execution-spec-tests` generated test",
            "filling-transition-tool": "ethereum-spec-evm-resolver 0.0.5",
            "description": "No description available - add a docstring to the python test class or function.",
            "url": "",
            "fixture-format": "state_test",
            "eels-resolution": {
                "git-url": "https://github.com/ethereum/execution-specs.git",
                "branch": "forks/bpos",
                "commit": "7aacb2c54111391af5e98c505d5010b5698a770f"
            }
        }
    },
    "tests/static/state_tests/stRandom/randomStatetest60Filler.json::randomStatetest60[fork_Osaka-state_test-]": {
        "env": {
            "currentCoinbase": "0x09ddd9dbe5153e796522eef3dc0553a7989d12a3",
            "currentGasLimit": "0x7fffffffffffffff",
            "currentNumber": "0x01",
            "currentTimestamp": "0x03e8",
            "currentRandom": "0x0000000000000000000000000000000000000000000000000000000000020000",
            "currentDifficulty": "0x00",
            "currentBaseFee": "0x0a",
            "currentExcessBlobGas": "0x00"
        },
        "pre": {
            "0x49ff3c47e50aff88577600854d1c3af4dcb704b8": {
                "nonce": "0x00",
                "balance": "0x0de0b6b3a7640000",
                "code": "0x",
                "storage": {}
            },
            "0x09ddd9dbe5153e796522eef3dc0553a7989d12a3": {
                "nonce": "0x00",
                "balance": "0x2e",
                "code": "0x6000355415600957005b60203560003555",
                "storage": {}
            },
            "0x09ddd9dbe5153e796522eef3dc0553a7989d13a3": {
                "nonce": "0x00",
                "balance": "0x00",
                "code": "0x427f0000000000000000000000000000000000000000000000000000000000000000427f000000000000000000000000ffffffffffffffffffffffffffffffffffffffff437f000000000000000000000000000000000000000000000000000000000000c3507ffffffffffffffffffffffffffffffffffffffffffffffffffffffffffffffffe6f969001091aa15b8b9b75459d015a045560005155",
                "storage": {}
            }
        },
        "transaction": {
            "nonce": "0x00",
            "gasPrice": "0x0a",
            "gasLimit": [
                "0x0186a0"
            ],
            "to": "0x09ddd9dbe5153e796522eef3dc0553a7989d13a3",
            "value": [
                "0x54de1eaf"
            ],
            "data": [
                "0x427f0000000000000000000000000000000000000000000000000000000000000000427f000000000000000000000000ffffffffffffffffffffffffffffffffffffffff437f000000000000000000000000000000000000000000000000000000000000c3507ffffffffffffffffffffffffffffffffffffffffffffffffffffffffffffffffe6f969001091aa15b8b9b75459d015a04"
            ],
            "sender": "0x49ff3c47e50aff88577600854d1c3af4dcb704b8",
            "secretKey": "0x54a344ebbf1cf3c085ef23c309ddd9dbe5153e796522eef3dc0553a7989d12a3"
        },
        "post": {
            "Osaka": [
                {
                    "hash": "0xa596a35c345772757159a051477ce492075e370350c220cb35cdc68ab1d7e56e",
                    "logs": "0x1dcc4de8dec75d7aab85b567b6ccd41ad312451b948a7413f0a142fd40d49347",
                    "txbytes": "0xf8fc800a830186a09409ddd9dbe5153e796522eef3dc0553a7989d13a38454de1eafb897427f0000000000000000000000000000000000000000000000000000000000000000427f000000000000000000000000ffffffffffffffffffffffffffffffffffffffff437f000000000000000000000000000000000000000000000000000000000000c3507ffffffffffffffffffffffffffffffffffffffffffffffffffffffffffffffffe6f969001091aa15b8b9b75459d015a0426a0755abe0364957c67954a7f57e827c62c95c4adb56cf73b88240800e7222f69eba04736f232395ce2caff384bdd2661eedc56999a4ca1f911cbed78866e1b9dbd26",
                    "indexes": {
                        "data": 0,
                        "gas": 0,
                        "value": 0
                    },
                    "state": {
                        "0x49ff3c47e50aff88577600854d1c3af4dcb704b8": {
                            "nonce": "0x01",
                            "balance": "0x0de0b6b3527f10dd",
                            "code": "0x",
                            "storage": {}
                        },
                        "0x09ddd9dbe5153e796522eef3dc0553a7989d12a3": {
                            "nonce": "0x00",
                            "balance": "0x2e",
                            "code": "0x6000355415600957005b60203560003555",
                            "storage": {}
                        },
                        "0x09ddd9dbe5153e796522eef3dc0553a7989d13a3": {
                            "nonce": "0x00",
                            "balance": "0x54de1eaf",
                            "code": "0x427f0000000000000000000000000000000000000000000000000000000000000000427f000000000000000000000000ffffffffffffffffffffffffffffffffffffffff437f000000000000000000000000000000000000000000000000000000000000c3507ffffffffffffffffffffffffffffffffffffffffffffffffffffffffffffffffe6f969001091aa15b8b9b75459d015a045560005155",
                            "storage": {
                                "0x00": "0x969001091aa15b8b9b75459d015a0455"
                            }
                        }
                    }
                }
            ]
        },
        "config": {
            "blobSchedule": {
                "Cancun": {
                    "target": "0x03",
                    "max": "0x06",
                    "baseFeeUpdateFraction": "0x32f0ed"
                },
                "Prague": {
                    "target": "0x06",
                    "max": "0x09",
                    "baseFeeUpdateFraction": "0x4c6964"
                },
                "Osaka": {
                    "target": "0x06",
                    "max": "0x09",
                    "baseFeeUpdateFraction": "0x4c6964"
                }
            },
            "chainid": "0x01"
        },
        "_info": {
            "hash": "0x86813a11e4d793967cb1564e050088e7b174d52958c6541293704b242c5fab98",
            "comment": "`execution-spec-tests` generated test",
            "filling-transition-tool": "ethereum-spec-evm-resolver 0.0.5",
            "description": "No description available - add a docstring to the python test class or function.",
            "url": "",
            "fixture-format": "state_test",
            "eels-resolution": {
                "git-url": "https://github.com/ethereum/execution-specs.git",
                "branch": "forks/bpos",
                "commit": "7aacb2c54111391af5e98c505d5010b5698a770f"
            }
        }
    },
    "tests/static/state_tests/stRandom/randomStatetest60Filler.json::randomStatetest60[fork_Prague-state_test-]": {
        "env": {
            "currentCoinbase": "0x09ddd9dbe5153e796522eef3dc0553a7989d12a3",
            "currentGasLimit": "0x7fffffffffffffff",
            "currentNumber": "0x01",
            "currentTimestamp": "0x03e8",
            "currentRandom": "0x0000000000000000000000000000000000000000000000000000000000020000",
            "currentDifficulty": "0x00",
            "currentBaseFee": "0x0a",
            "currentExcessBlobGas": "0x00"
        },
        "pre": {
            "0x49ff3c47e50aff88577600854d1c3af4dcb704b8": {
                "nonce": "0x00",
                "balance": "0x0de0b6b3a7640000",
                "code": "0x",
                "storage": {}
            },
            "0x09ddd9dbe5153e796522eef3dc0553a7989d12a3": {
                "nonce": "0x00",
                "balance": "0x2e",
                "code": "0x6000355415600957005b60203560003555",
                "storage": {}
            },
            "0x09ddd9dbe5153e796522eef3dc0553a7989d13a3": {
                "nonce": "0x00",
                "balance": "0x00",
                "code": "0x427f0000000000000000000000000000000000000000000000000000000000000000427f000000000000000000000000ffffffffffffffffffffffffffffffffffffffff437f000000000000000000000000000000000000000000000000000000000000c3507ffffffffffffffffffffffffffffffffffffffffffffffffffffffffffffffffe6f969001091aa15b8b9b75459d015a045560005155",
                "storage": {}
            }
        },
        "transaction": {
            "nonce": "0x00",
            "gasPrice": "0x0a",
            "gasLimit": [
                "0x0186a0"
            ],
            "to": "0x09ddd9dbe5153e796522eef3dc0553a7989d13a3",
            "value": [
                "0x54de1eaf"
            ],
            "data": [
                "0x427f0000000000000000000000000000000000000000000000000000000000000000427f000000000000000000000000ffffffffffffffffffffffffffffffffffffffff437f000000000000000000000000000000000000000000000000000000000000c3507ffffffffffffffffffffffffffffffffffffffffffffffffffffffffffffffffe6f969001091aa15b8b9b75459d015a04"
            ],
            "sender": "0x49ff3c47e50aff88577600854d1c3af4dcb704b8",
            "secretKey": "0x54a344ebbf1cf3c085ef23c309ddd9dbe5153e796522eef3dc0553a7989d12a3"
        },
        "post": {
            "Prague": [
                {
                    "hash": "0xa596a35c345772757159a051477ce492075e370350c220cb35cdc68ab1d7e56e",
                    "logs": "0x1dcc4de8dec75d7aab85b567b6ccd41ad312451b948a7413f0a142fd40d49347",
                    "txbytes": "0xf8fc800a830186a09409ddd9dbe5153e796522eef3dc0553a7989d13a38454de1eafb897427f0000000000000000000000000000000000000000000000000000000000000000427f000000000000000000000000ffffffffffffffffffffffffffffffffffffffff437f000000000000000000000000000000000000000000000000000000000000c3507ffffffffffffffffffffffffffffffffffffffffffffffffffffffffffffffffe6f969001091aa15b8b9b75459d015a0426a0755abe0364957c67954a7f57e827c62c95c4adb56cf73b88240800e7222f69eba04736f232395ce2caff384bdd2661eedc56999a4ca1f911cbed78866e1b9dbd26",
                    "indexes": {
                        "data": 0,
                        "gas": 0,
                        "value": 0
                    },
                    "state": {
                        "0x49ff3c47e50aff88577600854d1c3af4dcb704b8": {
                            "nonce": "0x01",
                            "balance": "0x0de0b6b3527f10dd",
                            "code": "0x",
                            "storage": {}
                        },
                        "0x09ddd9dbe5153e796522eef3dc0553a7989d12a3": {
                            "nonce": "0x00",
                            "balance": "0x2e",
                            "code": "0x6000355415600957005b60203560003555",
                            "storage": {}
                        },
                        "0x09ddd9dbe5153e796522eef3dc0553a7989d13a3": {
                            "nonce": "0x00",
                            "balance": "0x54de1eaf",
                            "code": "0x427f0000000000000000000000000000000000000000000000000000000000000000427f000000000000000000000000ffffffffffffffffffffffffffffffffffffffff437f000000000000000000000000000000000000000000000000000000000000c3507ffffffffffffffffffffffffffffffffffffffffffffffffffffffffffffffffe6f969001091aa15b8b9b75459d015a045560005155",
                            "storage": {
                                "0x00": "0x969001091aa15b8b9b75459d015a0455"
                            }
                        }
                    }
                }
            ]
        },
        "config": {
            "blobSchedule": {
                "Cancun": {
                    "target": "0x03",
                    "max": "0x06",
                    "baseFeeUpdateFraction": "0x32f0ed"
                },
                "Prague": {
                    "target": "0x06",
                    "max": "0x09",
                    "baseFeeUpdateFraction": "0x4c6964"
                }
            },
            "chainid": "0x01"
        },
        "_info": {
            "hash": "0x0e686bde369206e3fc7d04ff64f1509a4325ff516e68626f891bbc65fc381d71",
            "comment": "`execution-spec-tests` generated test",
            "filling-transition-tool": "ethereum-spec-evm-resolver 0.0.5",
            "description": "No description available - add a docstring to the python test class or function.",
            "url": "",
            "fixture-format": "state_test",
            "eels-resolution": {
                "git-url": "https://github.com/ethereum/execution-specs.git",
                "branch": "forks/bpos",
                "commit": "7aacb2c54111391af5e98c505d5010b5698a770f"
            }
        }
    }
}