{
    "tests/static/state_tests/stRandom/randomStatetest22Filler.json::randomStatetest22[fork_Cancun-state_test-]": {
        "env": {
            "currentCoinbase": "0xda0c220bdaeeb53a87c14dfbe730b4a33da40fd2",
            "currentGasLimit": "0x7fffffffffffffff",
            "currentNumber": "0x01",
            "currentTimestamp": "0x03e8",
            "currentRandom": "0x0000000000000000000000000000000000000000000000000000000000020000",
            "currentDifficulty": "0x00",
            "currentBaseFee": "0x0a",
            "currentExcessBlobGas": "0x00"
        },
        "pre": {
            "0x38422d1af894aaef98d6e245c80969b1027a67f8": {
                "nonce": "0x00",
                "balance": "0x0de0b6b3a7640000",
                "code": "0x",
                "storage": {}
            },
            "0xda0c220bdaeeb53a87c14dfbe730b4a33da40fd2": {
                "nonce": "0x00",
                "balance": "0x2e",
                "code": "0x6000355415600957005b60203560003555",
                "storage": {}
            },
            "0xda0c220bdaeeb53a87c14dfbe730b4a33da410d2": {
                "nonce": "0x00",
                "balance": "0x00",
                "code": "0x6d417fffffffffffffffffffffffffffffffffffffffffffffffffffffffffffffffff7f00000000000000000000000000000000000000000000000000000000000000017fffffffffffffffffffffffffffffffffffffffffffffffffffffffffffffffff7f000000000000000000000000000000000000000000000000000000000000c3507f00000000000000000000000100000000000000000000000000000000000000007fffffffffffffffffffffffffffffffffffffffffffffffffffffffffffffffff7e969f926084143c7960005155",
                "storage": {}
            }
        },
        "transaction": {
            "nonce": "0x00",
            "gasPrice": "0x0a",
            "gasLimit": [
                "0x0186a0"
            ],
            "to": "0xda0c220bdaeeb53a87c14dfbe730b4a33da410d2",
            "value": [
                "0x6c243ae4"
            ],
            "data": [
                "0x6d417fffffffffffffffffffffffffffffffffffffffffffffffffffffffffffffffff7f00000000000000000000000000000000000000000000000000000000000000017fffffffffffffffffffffffffffffffffffffffffffffffffffffffffffffffff7f000000000000000000000000000000000000000000000000000000000000c3507f00000000000000000000000100000000000000000000000000000000000000007fffffffffffffffffffffffffffffffffffffffffffffffffffffffffffffffff7e969f926084143c79"
            ],
            "sender": "0x38422d1af894aaef98d6e245c80969b1027a67f8",
            "secretKey": "0xcc187e2f34bd858ee1fd10e1da0c220bdaeeb53a87c14dfbe730b4a33da40fd2"
        },
        "post": {
            "Cancun": [
                {
                    "hash": "0x8c7dac7a13724540bd3243d65bd38b87ea076065c46939b1be65b41529812cf8",
                    "logs": "0x1dcc4de8dec75d7aab85b567b6ccd41ad312451b948a7413f0a142fd40d49347",
                    "txbytes": "0xf90136800a830186a094da0c220bdaeeb53a87c14dfbe730b4a33da410d2846c243ae4b8d16d417fffffffffffffffffffffffffffffffffffffffffffffffffffffffffffffffff7f00000000000000000000000000000000000000000000000000000000000000017fffffffffffffffffffffffffffffffffffffffffffffffffffffffffffffffff7f000000000000000000000000000000000000000000000000000000000000c3507f00000000000000000000000100000000000000000000000000000000000000007fffffffffffffffffffffffffffffffffffffffffffffffffffffffffffffffff7e969f926084143c7926a090e9c444141f55cf4307660e54ddd185db9a82856ed3ff04fb2b10ecef3ae155a01af3f03714802ad2f344db41399028994a8f5ca129f7268fabe66da100af89e3",
                    "indexes": {
                        "data": 0,
                        "gas": 0,
                        "value": 0
                    },
                    "state": {
                        "0x38422d1af894aaef98d6e245c80969b1027a67f8": {
                            "nonce": "0x01",
                            "balance": "0x0de0b6b33b373fbe",
                            "code": "0x",
                            "storage": {}
                        },
                        "0xda0c220bdaeeb53a87c14dfbe730b4a33da40fd2": {
                            "nonce": "0x00",
                            "balance": "0x2e",
                            "code": "0x6000355415600957005b60203560003555",
                            "storage": {}
                        },
                        "0xda0c220bdaeeb53a87c14dfbe730b4a33da410d2": {
                            "nonce": "0x00",
                            "balance": "0x00",
                            "code": "0x6d417fffffffffffffffffffffffffffffffffffffffffffffffffffffffffffffffff7f00000000000000000000000000000000000000000000000000000000000000017fffffffffffffffffffffffffffffffffffffffffffffffffffffffffffffffff7f000000000000000000000000000000000000000000000000000000000000c3507f00000000000000000000000100000000000000000000000000000000000000007fffffffffffffffffffffffffffffffffffffffffffffffffffffffffffffffff7e969f926084143c7960005155",
                            "storage": {}
                        },
                        "0x000000000000417fffffffffffffffffffffffff": {
                            "nonce": "0x00",
                            "balance": "0x6c243ae4",
                            "code": "0x",
                            "storage": {}
                        }
                    }
                }
            ]
        },
        "config": {
            "blobSchedule": {
                "Cancun": {
                    "target": "0x03",
                    "max": "0x06",
                    "baseFeeUpdateFraction": "0x32f0ed"
                }
            },
            "chainid": "0x01"
        },
        "_info": {
            "hash": "0xb4d959de230b71f92e4d991c3a386bfc39a2e2c47c23835a9fb543b738205f5f",
            "comment": "`execution-specs` generated test",
            "filling-transition-tool": "2.18.0rc6",
            "description": "No description available - add a docstring to the python test class or function.",
            "url": "",
            "fixture-format": "state_test"
        }
    },
    "tests/static/state_tests/stRandom/randomStatetest22Filler.json::randomStatetest22[fork_Osaka-state_test-]": {
        "env": {
            "currentCoinbase": "0xda0c220bdaeeb53a87c14dfbe730b4a33da40fd2",
            "currentGasLimit": "0x7fffffffffffffff",
            "currentNumber": "0x01",
            "currentTimestamp": "0x03e8",
            "currentRandom": "0x0000000000000000000000000000000000000000000000000000000000020000",
            "currentDifficulty": "0x00",
            "currentBaseFee": "0x0a",
            "currentExcessBlobGas": "0x00"
        },
        "pre": {
            "0x38422d1af894aaef98d6e245c80969b1027a67f8": {
                "nonce": "0x00",
                "balance": "0x0de0b6b3a7640000",
                "code": "0x",
                "storage": {}
            },
            "0xda0c220bdaeeb53a87c14dfbe730b4a33da40fd2": {
                "nonce": "0x00",
                "balance": "0x2e",
                "code": "0x6000355415600957005b60203560003555",
                "storage": {}
            },
            "0xda0c220bdaeeb53a87c14dfbe730b4a33da410d2": {
                "nonce": "0x00",
                "balance": "0x00",
                "code": "0x6d417fffffffffffffffffffffffffffffffffffffffffffffffffffffffffffffffff7f00000000000000000000000000000000000000000000000000000000000000017fffffffffffffffffffffffffffffffffffffffffffffffffffffffffffffffff7f000000000000000000000000000000000000000000000000000000000000c3507f00000000000000000000000100000000000000000000000000000000000000007fffffffffffffffffffffffffffffffffffffffffffffffffffffffffffffffff7e969f926084143c7960005155",
                "storage": {}
            }
        },
        "transaction": {
            "nonce": "0x00",
            "gasPrice": "0x0a",
            "gasLimit": [
                "0x0186a0"
            ],
            "to": "0xda0c220bdaeeb53a87c14dfbe730b4a33da410d2",
            "value": [
                "0x6c243ae4"
            ],
            "data": [
                "0x6d417fffffffffffffffffffffffffffffffffffffffffffffffffffffffffffffffff7f00000000000000000000000000000000000000000000000000000000000000017fffffffffffffffffffffffffffffffffffffffffffffffffffffffffffffffff7f000000000000000000000000000000000000000000000000000000000000c3507f00000000000000000000000100000000000000000000000000000000000000007fffffffffffffffffffffffffffffffffffffffffffffffffffffffffffffffff7e969f926084143c79"
            ],
            "sender": "0x38422d1af894aaef98d6e245c80969b1027a67f8",
            "secretKey": "0xcc187e2f34bd858ee1fd10e1da0c220bdaeeb53a87c14dfbe730b4a33da40fd2"
        },
        "post": {
            "Osaka": [
                {
                    "hash": "0x8c7dac7a13724540bd3243d65bd38b87ea076065c46939b1be65b41529812cf8",
                    "logs": "0x1dcc4de8dec75d7aab85b567b6ccd41ad312451b948a7413f0a142fd40d49347",
                    "txbytes": "0xf90136800a830186a094da0c220bdaeeb53a87c14dfbe730b4a33da410d2846c243ae4b8d16d417fffffffffffffffffffffffffffffffffffffffffffffffffffffffffffffffff7f00000000000000000000000000000000000000000000000000000000000000017fffffffffffffffffffffffffffffffffffffffffffffffffffffffffffffffff7f000000000000000000000000000000000000000000000000000000000000c3507f00000000000000000000000100000000000000000000000000000000000000007fffffffffffffffffffffffffffffffffffffffffffffffffffffffffffffffff7e969f926084143c7926a090e9c444141f55cf4307660e54ddd185db9a82856ed3ff04fb2b10ecef3ae155a01af3f03714802ad2f344db41399028994a8f5ca129f7268fabe66da100af89e3",
                    "indexes": {
                        "data": 0,
                        "gas": 0,
                        "value": 0
                    },
                    "state": {
                        "0x38422d1af894aaef98d6e245c80969b1027a67f8": {
                            "nonce": "0x01",
                            "balance": "0x0de0b6b33b373fbe",
                            "code": "0x",
                            "storage": {}
                        },
                        "0xda0c220bdaeeb53a87c14dfbe730b4a33da40fd2": {
                            "nonce": "0x00",
                            "balance": "0x2e",
                            "code": "0x6000355415600957005b60203560003555",
                            "storage": {}
                        },
                        "0xda0c220bdaeeb53a87c14dfbe730b4a33da410d2": {
                            "nonce": "0x00",
                            "balance": "0x00",
                            "code": "0x6d417fffffffffffffffffffffffffffffffffffffffffffffffffffffffffffffffff7f00000000000000000000000000000000000000000000000000000000000000017fffffffffffffffffffffffffffffffffffffffffffffffffffffffffffffffff7f000000000000000000000000000000000000000000000000000000000000c3507f00000000000000000000000100000000000000000000000000000000000000007fffffffffffffffffffffffffffffffffffffffffffffffffffffffffffffffff7e969f926084143c7960005155",
                            "storage": {}
                        },
                        "0x000000000000417fffffffffffffffffffffffff": {
                            "nonce": "0x00",
                            "balance": "0x6c243ae4",
                            "code": "0x",
                            "storage": {}
                        }
                    }
                }
            ]
        },
        "config": {
            "blobSchedule": {
                "Cancun": {
                    "target": "0x03",
                    "max": "0x06",
                    "baseFeeUpdateFraction": "0x32f0ed"
                },
                "Prague": {
                    "target": "0x06",
                    "max": "0x09",
                    "baseFeeUpdateFraction": "0x4c6964"
                },
                "Osaka": {
                    "target": "0x06",
                    "max": "0x09",
                    "baseFeeUpdateFraction": "0x4c6964"
                }
            },
            "chainid": "0x01"
        },
        "_info": {
            "hash": "0xc163b856d7b9b729b05f3e7a94784a9fd84fe847707e9c92cd9502b804f12572",
            "comment": "`execution-specs` generated test",
            "filling-transition-tool": "2.18.0rc6",
            "description": "No description available - add a docstring to the python test class or function.",
            "url": "",
            "fixture-format": "state_test"
        }
    },
    "tests/static/state_tests/stRandom/randomStatetest22Filler.json::randomStatetest22[fork_Prague-state_test-]": {
        "env": {
            "currentCoinbase": "0xda0c220bdaeeb53a87c14dfbe730b4a33da40fd2",
            "currentGasLimit": "0x7fffffffffffffff",
            "currentNumber": "0x01",
            "currentTimestamp": "0x03e8",
            "currentRandom": "0x0000000000000000000000000000000000000000000000000000000000020000",
            "currentDifficulty": "0x00",
            "currentBaseFee": "0x0a",
            "currentExcessBlobGas": "0x00"
        },
        "pre": {
            "0x38422d1af894aaef98d6e245c80969b1027a67f8": {
                "nonce": "0x00",
                "balance": "0x0de0b6b3a7640000",
                "code": "0x",
                "storage": {}
            },
            "0xda0c220bdaeeb53a87c14dfbe730b4a33da40fd2": {
                "nonce": "0x00",
                "balance": "0x2e",
                "code": "0x6000355415600957005b60203560003555",
                "storage": {}
            },
            "0xda0c220bdaeeb53a87c14dfbe730b4a33da410d2": {
                "nonce": "0x00",
                "balance": "0x00",
                "code": "0x6d417fffffffffffffffffffffffffffffffffffffffffffffffffffffffffffffffff7f00000000000000000000000000000000000000000000000000000000000000017fffffffffffffffffffffffffffffffffffffffffffffffffffffffffffffffff7f000000000000000000000000000000000000000000000000000000000000c3507f00000000000000000000000100000000000000000000000000000000000000007fffffffffffffffffffffffffffffffffffffffffffffffffffffffffffffffff7e969f926084143c7960005155",
                "storage": {}
            }
        },
        "transaction": {
            "nonce": "0x00",
            "gasPrice": "0x0a",
            "gasLimit": [
                "0x0186a0"
            ],
            "to": "0xda0c220bdaeeb53a87c14dfbe730b4a33da410d2",
            "value": [
                "0x6c243ae4"
            ],
            "data": [
                "0x6d417fffffffffffffffffffffffffffffffffffffffffffffffffffffffffffffffff7f00000000000000000000000000000000000000000000000000000000000000017fffffffffffffffffffffffffffffffffffffffffffffffffffffffffffffffff7f000000000000000000000000000000000000000000000000000000000000c3507f00000000000000000000000100000000000000000000000000000000000000007fffffffffffffffffffffffffffffffffffffffffffffffffffffffffffffffff7e969f926084143c79"
            ],
            "sender": "0x38422d1af894aaef98d6e245c80969b1027a67f8",
            "secretKey": "0xcc187e2f34bd858ee1fd10e1da0c220bdaeeb53a87c14dfbe730b4a33da40fd2"
        },
        "post": {
            "Prague": [
                {
                    "hash": "0x8c7dac7a13724540bd3243d65bd38b87ea076065c46939b1be65b41529812cf8",
                    "logs": "0x1dcc4de8dec75d7aab85b567b6ccd41ad312451b948a7413f0a142fd40d49347",
                    "txbytes": "0xf90136800a830186a094da0c220bdaeeb53a87c14dfbe730b4a33da410d2846c243ae4b8d16d417fffffffffffffffffffffffffffffffffffffffffffffffffffffffffffffffff7f00000000000000000000000000000000000000000000000000000000000000017fffffffffffffffffffffffffffffffffffffffffffffffffffffffffffffffff7f000000000000000000000000000000000000000000000000000000000000c3507f00000000000000000000000100000000000000000000000000000000000000007fffffffffffffffffffffffffffffffffffffffffffffffffffffffffffffffff7e969f926084143c7926a090e9c444141f55cf4307660e54ddd185db9a82856ed3ff04fb2b10ecef3ae155a01af3f03714802ad2f344db41399028994a8f5ca129f7268fabe66da100af89e3",
                    "indexes": {
                        "data": 0,
                        "gas": 0,
                        "value": 0
                    },
                    "state": {
                        "0x38422d1af894aaef98d6e245c80969b1027a67f8": {
                            "nonce": "0x01",
                            "balance": "0x0de0b6b33b373fbe",
                            "code": "0x",
                            "storage": {}
                        },
                        "0xda0c220bdaeeb53a87c14dfbe730b4a33da40fd2": {
                            "nonce": "0x00",
                            "balance": "0x2e",
                            "code": "0x6000355415600957005b60203560003555",
                            "storage": {}
                        },
                        "0xda0c220bdaeeb53a87c14dfbe730b4a33da410d2": {
                            "nonce": "0x00",
                            "balance": "0x00",
                            "code": "0x6d417fffffffffffffffffffffffffffffffffffffffffffffffffffffffffffffffff7f00000000000000000000000000000000000000000000000000000000000000017fffffffffffffffffffffffffffffffffffffffffffffffffffffffffffffffff7f000000000000000000000000000000000000000000000000000000000000c3507f00000000000000000000000100000000000000000000000000000000000000007fffffffffffffffffffffffffffffffffffffffffffffffffffffffffffffffff7e969f926084143c7960005155",
                            "storage": {}
                        },
                        "0x000000000000417fffffffffffffffffffffffff": {
                            "nonce": "0x00",
                            "balance": "0x6c243ae4",
                            "code": "0x",
                            "storage": {}
                        }
                    }
                }
            ]
        },
        "config": {
            "blobSchedule": {
                "Cancun": {
                    "target": "0x03",
                    "max": "0x06",
                    "baseFeeUpdateFraction": "0x32f0ed"
                },
                "Prague": {
                    "target": "0x06",
                    "max": "0x09",
                    "baseFeeUpdateFraction": "0x4c6964"
                }
            },
            "chainid": "0x01"
        },
        "_info": {
            "hash": "0xdcd6acd262854159122fbc5392ce48b5972e73835b42f4112797f876c95fe4d3",
            "comment": "`execution-specs` generated test",
            "filling-transition-tool": "2.18.0rc6",
            "description": "No description available - add a docstring to the python test class or function.",
            "url": "",
            "fixture-format": "state_test"
        }
    }
}