{
    "tests/static/state_tests/stRandom/randomStatetest148Filler.json::randomStatetest148[fork_Cancun-state_test-]": {
        "env": {
            "currentCoinbase": "0x6544eeb295d91d979c7b0cb1f8ab62a99bf90ccb",
            "currentGasLimit": "0x7fffffffffffffff",
            "currentNumber": "0x01",
            "currentTimestamp": "0x03e8",
            "currentRandom": "0x0000000000000000000000000000000000000000000000000000000000020000",
            "currentDifficulty": "0x00",
            "currentBaseFee": "0x0a",
            "currentExcessBlobGas": "0x00"
        },
        "pre": {
            "0x76a61b70a5f1ec6bcdb67965b60c088dc90f3817": {
                "nonce": "0x00",
                "balance": "0x0de0b6b3a7640000",
                "code": "0x",
                "storage": {}
            },
            "0x6544eeb295d91d979c7b0cb1f8ab62a99bf90ccb": {
                "nonce": "0x00",
                "balance": "0x2e",
                "code": "0x6000355415600957005b60203560003555",
                "storage": {}
            },
            "0x6544eeb295d91d979c7b0cb1f8ab62a99bf90dcb": {
                "nonce": "0x00",
                "balance": "0x00",
                "code": "0x7f00000000000000000000000100000000000000000000000000000000000000007f000000000000000000000000000000000000000000000000000000000000c3507f0000000000000000000000000000000000000000000000000000000000000001537f00000000000000000000000000000000000000000000000000000000000000007f00000000000000000000000000000000000000000000000000000000000000007f0000000000000000000000006544eeb295d91d979c7b0cb1f8ab62a99bf90ccb6f34847e390773919b165590771644725560005155",
                "storage": {}
            }
        },
        "transaction": {
            "nonce": "0x00",
            "gasPrice": "0x0a",
            "gasLimit": [
                "0x0186a0"
            ],
            "to": "0x6544eeb295d91d979c7b0cb1f8ab62a99bf90dcb",
            "value": [
                "0x30607fb3"
            ],
            "data": [
                "0x7f00000000000000000000000100000000000000000000000000000000000000007f000000000000000000000000000000000000000000000000000000000000c3507f0000000000000000000000000000000000000000000000000000000000000001537f00000000000000000000000000000000000000000000000000000000000000007f00000000000000000000000000000000000000000000000000000000000000007f0000000000000000000000006544eeb295d91d979c7b0cb1f8ab62a99bf90ccb6f34847e390773919b16559077164472"
            ],
            "sender": "0x76a61b70a5f1ec6bcdb67965b60c088dc90f3817",
            "secretKey": "0x2192b35cd3b976efdef30c9a6544eeb295d91d979c7b0cb1f8ab62a99bf90ccb"
        },
        "post": {
            "Cancun": [
                {
                    "hash": "0xa59563c38b1052e69d25adb8ae4f86d99dadbc0fc79b5990f35b77061cd862c4",
                    "logs": "0x1dcc4de8dec75d7aab85b567b6ccd41ad312451b948a7413f0a142fd40d49347",
                    "txbytes": "0xf9013c800a830186a0946544eeb295d91d979c7b0cb1f8ab62a99bf90dcb8430607fb3b8d77f00000000000000000000000100000000000000000000000000000000000000007f000000000000000000000000000000000000000000000000000000000000c3507f0000000000000000000000000000000000000000000000000000000000000001537f00000000000000000000000000000000000000000000000000000000000000007f00000000000000000000000000000000000000000000000000000000000000007f0000000000000000000000006544eeb295d91d979c7b0cb1f8ab62a99bf90ccb6f34847e390773919b1655907716447226a04db4c56a67c00ea87f0efa831bf8210379fb3b885ce49c8377a8461a0786cff5a02e59def581efcd2e22c27367a972023ee9b20036c7b57f02158522063186efff",
                    "indexes": {
                        "data": 0,
                        "gas": 0,
                        "value": 0
                    },
                    "state": {
                        "0x76a61b70a5f1ec6bcdb67965b60c088dc90f3817": {
                            "nonce": "0x01",
                            "balance": "0x0de0b6b376fcb3cb",
                            "code": "0x",
                            "storage": {}
                        },
                        "0x6544eeb295d91d979c7b0cb1f8ab62a99bf90ccb": {
                            "nonce": "0x00",
                            "balance": "0x2e",
                            "code": "0x6000355415600957005b60203560003555",
                            "storage": {}
                        },
                        "0x6544eeb295d91d979c7b0cb1f8ab62a99bf90dcb": {
                            "nonce": "0x00",
                            "balance": "0x30607fb3",
                            "code": "0x7f00000000000000000000000100000000000000000000000000000000000000007f000000000000000000000000000000000000000000000000000000000000c3507f0000000000000000000000000000000000000000000000000000000000000001537f00000000000000000000000000000000000000000000000000000000000000007f00000000000000000000000000000000000000000000000000000000000000007f0000000000000000000000006544eeb295d91d979c7b0cb1f8ab62a99bf90ccb6f34847e390773919b165590771644725560005155",
                            "storage": {
                                "0x50000000000000000000000000000000000000000000000000000000000000": "0x34847e390773919b1655907716447255"
                            }
                        }
                    }
                }
            ]
        },
        "config": {
            "blobSchedule": {
                "Cancun": {
                    "target": "0x03",
                    "max": "0x06",
                    "baseFeeUpdateFraction": "0x32f0ed"
                }
            },
            "chainid": "0x01"
        },
        "_info": {
            "hash": "0x7b8d4bfa40fbf83e059f6476f64696c112826bc842cb8387f1f03c46797a0591",
            "comment": "`execution-spec-tests` generated test",
            "filling-transition-tool": "ethereum-spec-evm-resolver 0.0.5",
            "description": "No description available - add a docstring to the python test class or function.",
            "url": "",
            "fixture-format": "state_test",
            "eels-resolution": {
                "git-url": "https://github.com/ethereum/execution-specs.git",
                "branch": "forks/bpos",
                "commit": "7aacb2c54111391af5e98c505d5010b5698a770f"
            }
        }
    },
    "tests/static/state_tests/stRandom/randomStatetest148Filler.json::randomStatetest148[fork_Osaka-state_test-]": {
        "env": {
            "currentCoinbase": "0x6544eeb295d91d979c7b0cb1f8ab62a99bf90ccb",
            "currentGasLimit": "0x7fffffffffffffff",
            "currentNumber": "0x01",
            "currentTimestamp": "0x03e8",
            "currentRandom": "0x0000000000000000000000000000000000000000000000000000000000020000",
            "currentDifficulty": "0x00",
            "currentBaseFee": "0x0a",
            "currentExcessBlobGas": "0x00"
        },
        "pre": {
            "0x76a61b70a5f1ec6bcdb67965b60c088dc90f3817": {
                "nonce": "0x00",
                "balance": "0x0de0b6b3a7640000",
                "code": "0x",
                "storage": {}
            },
            "0x6544eeb295d91d979c7b0cb1f8ab62a99bf90ccb": {
                "nonce": "0x00",
                "balance": "0x2e",
                "code": "0x6000355415600957005b60203560003555",
                "storage": {}
            },
            "0x6544eeb295d91d979c7b0cb1f8ab62a99bf90dcb": {
                "nonce": "0x00",
                "balance": "0x00",
                "code": "0x7f00000000000000000000000100000000000000000000000000000000000000007f000000000000000000000000000000000000000000000000000000000000c3507f0000000000000000000000000000000000000000000000000000000000000001537f00000000000000000000000000000000000000000000000000000000000000007f00000000000000000000000000000000000000000000000000000000000000007f0000000000000000000000006544eeb295d91d979c7b0cb1f8ab62a99bf90ccb6f34847e390773919b165590771644725560005155",
                "storage": {}
            }
        },
        "transaction": {
            "nonce": "0x00",
            "gasPrice": "0x0a",
            "gasLimit": [
                "0x0186a0"
            ],
            "to": "0x6544eeb295d91d979c7b0cb1f8ab62a99bf90dcb",
            "value": [
                "0x30607fb3"
            ],
            "data": [
                "0x7f00000000000000000000000100000000000000000000000000000000000000007f000000000000000000000000000000000000000000000000000000000000c3507f0000000000000000000000000000000000000000000000000000000000000001537f00000000000000000000000000000000000000000000000000000000000000007f00000000000000000000000000000000000000000000000000000000000000007f0000000000000000000000006544eeb295d91d979c7b0cb1f8ab62a99bf90ccb6f34847e390773919b16559077164472"
            ],
            "sender": "0x76a61b70a5f1ec6bcdb67965b60c088dc90f3817",
            "secretKey": "0x2192b35cd3b976efdef30c9a6544eeb295d91d979c7b0cb1f8ab62a99bf90ccb"
        },
        "post": {
            "Osaka": [
                {
                    "hash": "0xa59563c38b1052e69d25adb8ae4f86d99dadbc0fc79b5990f35b77061cd862c4",
                    "logs": "0x1dcc4de8dec75d7aab85b567b6ccd41ad312451b948a7413f0a142fd40d49347",
                    "txbytes": "0xf9013c800a830186a0946544eeb295d91d979c7b0cb1f8ab62a99bf90dcb8430607fb3b8d77f00000000000000000000000100000000000000000000000000000000000000007f000000000000000000000000000000000000000000000000000000000000c3507f0000000000000000000000000000000000000000000000000000000000000001537f00000000000000000000000000000000000000000000000000000000000000007f00000000000000000000000000000000000000000000000000000000000000007f0000000000000000000000006544eeb295d91d979c7b0cb1f8ab62a99bf90ccb6f34847e390773919b1655907716447226a04db4c56a67c00ea87f0efa831bf8210379fb3b885ce49c8377a8461a0786cff5a02e59def581efcd2e22c27367a972023ee9b20036c7b57f02158522063186efff",
                    "indexes": {
                        "data": 0,
                        "gas": 0,
                        "value": 0
                    },
                    "state": {
                        "0x76a61b70a5f1ec6bcdb67965b60c088dc90f3817": {
                            "nonce": "0x01",
                            "balance": "0x0de0b6b376fcb3cb",
                            "code": "0x",
                            "storage": {}
                        },
                        "0x6544eeb295d91d979c7b0cb1f8ab62a99bf90ccb": {
                            "nonce": "0x00",
                            "balance": "0x2e",
                            "code": "0x6000355415600957005b60203560003555",
                            "storage": {}
                        },
                        "0x6544eeb295d91d979c7b0cb1f8ab62a99bf90dcb": {
                            "nonce": "0x00",
                            "balance": "0x30607fb3",
                            "code": "0x7f00000000000000000000000100000000000000000000000000000000000000007f000000000000000000000000000000000000000000000000000000000000c3507f0000000000000000000000000000000000000000000000000000000000000001537f00000000000000000000000000000000000000000000000000000000000000007f00000000000000000000000000000000000000000000000000000000000000007f0000000000000000000000006544eeb295d91d979c7b0cb1f8ab62a99bf90ccb6f34847e390773919b165590771644725560005155",
                            "storage": {
                                "0x50000000000000000000000000000000000000000000000000000000000000": "0x34847e390773919b1655907716447255"
                            }
                        }
                    }
                }
            ]
        },
        "config": {
            "blobSchedule": {
                "Cancun": {
                    "target": "0x03",
                    "max": "0x06",
                    "baseFeeUpdateFraction": "0x32f0ed"
                },
                "Prague": {
                    "target": "0x06",
                    "max": "0x09",
                    "baseFeeUpdateFraction": "0x4c6964"
                },
                "Osaka": {
                    "target": "0x06",
                    "max": "0x09",
                    "baseFeeUpdateFraction": "0x4c6964"
                }
            },
            "chainid": "0x01"
        },
        "_info": {
            "hash": "0xf00126871063fb7ddc15c008fe90f409075f852bdf91cf605b12b1bd52bbcdee",
            "comment": "`execution-spec-tests` generated test",
            "filling-transition-tool": "ethereum-spec-evm-resolver 0.0.5",
            "description": "No description available - add a docstring to the python test class or function.",
            "url": "",
            "fixture-format": "state_test",
            "eels-resolution": {
                "git-url": "https://github.com/ethereum/execution-specs.git",
                "branch": "forks/bpos",
                "commit": "7aacb2c54111391af5e98c505d5010b5698a770f"
            }
        }
    },
    "tests/static/state_tests/stRandom/randomStatetest148Filler.json::randomStatetest148[fork_Prague-state_test-]": {
        "env": {
            "currentCoinbase": "0x6544eeb295d91d979c7b0cb1f8ab62a99bf90ccb",
            "currentGasLimit": "0x7fffffffffffffff",
            "currentNumber": "0x01",
            "currentTimestamp": "0x03e8",
            "currentRandom": "0x0000000000000000000000000000000000000000000000000000000000020000",
            "currentDifficulty": "0x00",
            "currentBaseFee": "0x0a",
            "currentExcessBlobGas": "0x00"
        },
        "pre": {
            "0x76a61b70a5f1ec6bcdb67965b60c088dc90f3817": {
                "nonce": "0x00",
                "balance": "0x0de0b6b3a7640000",
                "code": "0x",
                "storage": {}
            },
            "0x6544eeb295d91d979c7b0cb1f8ab62a99bf90ccb": {
                "nonce": "0x00",
                "balance": "0x2e",
                "code": "0x6000355415600957005b60203560003555",
                "storage": {}
            },
            "0x6544eeb295d91d979c7b0cb1f8ab62a99bf90dcb": {
                "nonce": "0x00",
                "balance": "0x00",
                "code": "0x7f00000000000000000000000100000000000000000000000000000000000000007f000000000000000000000000000000000000000000000000000000000000c3507f0000000000000000000000000000000000000000000000000000000000000001537f00000000000000000000000000000000000000000000000000000000000000007f00000000000000000000000000000000000000000000000000000000000000007f0000000000000000000000006544eeb295d91d979c7b0cb1f8ab62a99bf90ccb6f34847e390773919b165590771644725560005155",
                "storage": {}
            }
        },
        "transaction": {
            "nonce": "0x00",
            "gasPrice": "0x0a",
            "gasLimit": [
                "0x0186a0"
            ],
            "to": "0x6544eeb295d91d979c7b0cb1f8ab62a99bf90dcb",
            "value": [
                "0x30607fb3"
            ],
            "data": [
                "0x7f00000000000000000000000100000000000000000000000000000000000000007f000000000000000000000000000000000000000000000000000000000000c3507f0000000000000000000000000000000000000000000000000000000000000001537f00000000000000000000000000000000000000000000000000000000000000007f00000000000000000000000000000000000000000000000000000000000000007f0000000000000000000000006544eeb295d91d979c7b0cb1f8ab62a99bf90ccb6f34847e390773919b16559077164472"
            ],
            "sender": "0x76a61b70a5f1ec6bcdb67965b60c088dc90f3817",
            "secretKey": "0x2192b35cd3b976efdef30c9a6544eeb295d91d979c7b0cb1f8ab62a99bf90ccb"
        },
        "post": {
            "Prague": [
                {
                    "hash": "0xa59563c38b1052e69d25adb8ae4f86d99dadbc0fc79b5990f35b77061cd862c4",
                    "logs": "0x1dcc4de8dec75d7aab85b567b6ccd41ad312451b948a7413f0a142fd40d49347",
                    "txbytes": "0xf9013c800a830186a0946544eeb295d91d979c7b0cb1f8ab62a99bf90dcb8430607fb3b8d77f00000000000000000000000100000000000000000000000000000000000000007f000000000000000000000000000000000000000000000000000000000000c3507f0000000000000000000000000000000000000000000000000000000000000001537f00000000000000000000000000000000000000000000000000000000000000007f00000000000000000000000000000000000000000000000000000000000000007f0000000000000000000000006544eeb295d91d979c7b0cb1f8ab62a99bf90ccb6f34847e390773919b1655907716447226a04db4c56a67c00ea87f0efa831bf8210379fb3b885ce49c8377a8461a0786cff5a02e59def581efcd2e22c27367a972023ee9b20036c7b57f02158522063186efff",
                    "indexes": {
                        "data": 0,
                        "gas": 0,
                        "value": 0
                    },
                    "state": {
                        "0x76a61b70a5f1ec6bcdb67965b60c088dc90f3817": {
                            "nonce": "0x01",
                            "balance": "0x0de0b6b376fcb3cb",
                            "code": "0x",
                            "storage": {}
                        },
                        "0x6544eeb295d91d979c7b0cb1f8ab62a99bf90ccb": {
                            "nonce": "0x00",
                            "balance": "0x2e",
                            "code": "0x6000355415600957005b60203560003555",
                            "storage": {}
                        },
                        "0x6544eeb295d91d979c7b0cb1f8ab62a99bf90dcb": {
                            "nonce": "0x00",
                            "balance": "0x30607fb3",
                            "code": "0x7f00000000000000000000000100000000000000000000000000000000000000007f000000000000000000000000000000000000000000000000000000000000c3507f0000000000000000000000000000000000000000000000000000000000000001537f00000000000000000000000000000000000000000000000000000000000000007f00000000000000000000000000000000000000000000000000000000000000007f0000000000000000000000006544eeb295d91d979c7b0cb1f8ab62a99bf90ccb6f34847e390773919b165590771644725560005155",
                            "storage": {
                                "0x50000000000000000000000000000000000000000000000000000000000000": "0x34847e390773919b1655907716447255"
                            }
                        }
                    }
                }
            ]
        },
        "config": {
            "blobSchedule": {
                "Cancun": {
                    "target": "0x03",
                    "max": "0x06",
                    "baseFeeUpdateFraction": "0x32f0ed"
                },
                "Prague": {
                    "target": "0x06",
                    "max": "0x09",
                    "baseFeeUpdateFraction": "0x4c6964"
                }
            },
            "chainid": "0x01"
        },
        "_info": {
            "hash": "0x67f5e8b8eff851d2f14af00324af227eadb25315e618424289ab3ca5753ad58a",
            "comment": "`execution-spec-tests` generated test",
            "filling-transition-tool": "ethereum-spec-evm-resolver 0.0.5",
            "description": "No description available - add a docstring to the python test class or function.",
            "url": "",
            "fixture-format": "state_test",
            "eels-resolution": {
                "git-url": "https://github.com/ethereum/execution-specs.git",
                "branch": "forks/bpos",
                "commit": "7aacb2c54111391af5e98c505d5010b5698a770f"
            }
        }
    }
}