{
    "tests/static/state_tests/stRandom/randomStatetest298Filler.json::randomStatetest298[fork_Cancun-state_test-]": {
        "env": {
            "currentCoinbase": "0x9483080df38174991630ffc7e41c3ddc8ddd31d2",
            "currentGasLimit": "0x7fffffffffffffff",
            "currentNumber": "0x01",
            "currentTimestamp": "0x03e8",
            "currentRandom": "0x0000000000000000000000000000000000000000000000000000000000020000",
            "currentDifficulty": "0x00",
            "currentBaseFee": "0x0a",
            "currentExcessBlobGas": "0x00"
        },
        "pre": {
            "0xef5800e6bcc112aef781c9cd2ce3d2361c1bb6d1": {
                "nonce": "0x00",
                "balance": "0x0de0b6b3a7640000",
                "code": "0x",
                "storage": {}
            },
            "0x9483080df38174991630ffc7e41c3ddc8ddd31d2": {
                "nonce": "0x00",
                "balance": "0x2e",
                "code": "0x6000355415600957005b60203560003555",
                "storage": {}
            },
            "0x9483080df38174991630ffc7e41c3ddc8ddd32d2": {
                "nonce": "0x00",
                "balance": "0x00",
                "code": "0x7f000000000000000000000000000000000000000000000000000000000000c3507f00000000000000000000000100000000000000000000000000000000000000007f000000000000000000000000ffffffffffffffffffffffffffffffffffffffff7f0000000000000000000000009483080df38174991630ffc7e41c3ddc8ddd31d27f00000000000000000000000000000000000000000000000000000000000000007f00000000000000000000000000000000000000000000000000000000000000007f000000000000000000000000000000000000000000000000000000000000c3500a6f7c542006528b69ff3a7a3a0401613c5560005155",
                "storage": {}
            }
        },
        "transaction": {
            "nonce": "0x00",
            "gasPrice": "0x0a",
            "gasLimit": [
                "0x0186a0"
            ],
            "to": "0x9483080df38174991630ffc7e41c3ddc8ddd32d2",
            "value": [
                "0x7e0f660b"
            ],
            "data": [
                "0x7f000000000000000000000000000000000000000000000000000000000000c3507f00000000000000000000000100000000000000000000000000000000000000007f000000000000000000000000ffffffffffffffffffffffffffffffffffffffff7f0000000000000000000000009483080df38174991630ffc7e41c3ddc8ddd31d27f00000000000000000000000000000000000000000000000000000000000000007f00000000000000000000000000000000000000000000000000000000000000007f000000000000000000000000000000000000000000000000000000000000c3500a6f7c542006528b69ff3a7a3a0401613c"
            ],
            "sender": "0xef5800e6bcc112aef781c9cd2ce3d2361c1bb6d1",
            "secretKey": "0xc9498d87d92ce017198af0729483080df38174991630ffc7e41c3ddc8ddd31d2"
        },
        "post": {
            "Cancun": [
                {
                    "hash": "0x8254e2f1c34f1dac848caf21c2e273a7f4335f4066868c008171d4b19d090ba6",
                    "logs": "0x1dcc4de8dec75d7aab85b567b6ccd41ad312451b948a7413f0a142fd40d49347",
                    "txbytes": "0xf9015d800a830186a0949483080df38174991630ffc7e41c3ddc8ddd32d2847e0f660bb8f87f000000000000000000000000000000000000000000000000000000000000c3507f00000000000000000000000100000000000000000000000000000000000000007f000000000000000000000000ffffffffffffffffffffffffffffffffffffffff7f0000000000000000000000009483080df38174991630ffc7e41c3ddc8ddd31d27f00000000000000000000000000000000000000000000000000000000000000007f00000000000000000000000000000000000000000000000000000000000000007f000000000000000000000000000000000000000000000000000000000000c3500a6f7c542006528b69ff3a7a3a0401613c25a035df8c432fa613e9b2de2f28088352fca2df76224b970c3c7af74e9c97c78e8fa05b1967073b27388445742614a1d1742526f2388760aa89827ae82ee7f8c014d5",
                    "indexes": {
                        "data": 0,
                        "gas": 0,
                        "value": 0
                    },
                    "state": {
                        "0xef5800e6bcc112aef781c9cd2ce3d2361c1bb6d1": {
                            "nonce": "0x01",
                            "balance": "0x0de0b6b3294dbd97",
                            "code": "0x",
                            "storage": {}
                        },
                        "0x9483080df38174991630ffc7e41c3ddc8ddd31d2": {
                            "nonce": "0x00",
                            "balance": "0x2e",
                            "code": "0x6000355415600957005b60203560003555",
                            "storage": {}
                        },
                        "0x9483080df38174991630ffc7e41c3ddc8ddd32d2": {
                            "nonce": "0x00",
                            "balance": "0x7e0f660b",
                            "code": "0x7f000000000000000000000000000000000000000000000000000000000000c3507f00000000000000000000000100000000000000000000000000000000000000007f000000000000000000000000ffffffffffffffffffffffffffffffffffffffff7f0000000000000000000000009483080df38174991630ffc7e41c3ddc8ddd31d27f00000000000000000000000000000000000000000000000000000000000000007f00000000000000000000000000000000000000000000000000000000000000007f000000000000000000000000000000000000000000000000000000000000c3500a6f7c542006528b69ff3a7a3a0401613c5560005155",
                            "storage": {
                                "0x00": "0x7c542006528b69ff3a7a3a0401613c55"
                            }
                        }
                    }
                }
            ]
        },
        "config": {
            "blobSchedule": {
                "Cancun": {
                    "target": "0x03",
                    "max": "0x06",
                    "baseFeeUpdateFraction": "0x32f0ed"
                }
            },
            "chainid": "0x01"
        },
        "_info": {
            "hash": "0x51ebdb7b0fa0c2dce921bf363bff33befca709b4d2676ab3d697543356b092f3",
            "comment": "`execution-specs` generated test",
            "filling-transition-tool": "2.18.0rc6",
            "description": "No description available - add a docstring to the python test class or function.",
            "url": "",
            "fixture-format": "state_test"
        }
    },
    "tests/static/state_tests/stRandom/randomStatetest298Filler.json::randomStatetest298[fork_Osaka-state_test-]": {
        "env": {
            "currentCoinbase": "0x9483080df38174991630ffc7e41c3ddc8ddd31d2",
            "currentGasLimit": "0x7fffffffffffffff",
            "currentNumber": "0x01",
            "currentTimestamp": "0x03e8",
            "currentRandom": "0x0000000000000000000000000000000000000000000000000000000000020000",
            "currentDifficulty": "0x00",
            "currentBaseFee": "0x0a",
            "currentExcessBlobGas": "0x00"
        },
        "pre": {
            "0xef5800e6bcc112aef781c9cd2ce3d2361c1bb6d1": {
                "nonce": "0x00",
                "balance": "0x0de0b6b3a7640000",
                "code": "0x",
                "storage": {}
            },
            "0x9483080df38174991630ffc7e41c3ddc8ddd31d2": {
                "nonce": "0x00",
                "balance": "0x2e",
                "code": "0x6000355415600957005b60203560003555",
                "storage": {}
            },
            "0x9483080df38174991630ffc7e41c3ddc8ddd32d2": {
                "nonce": "0x00",
                "balance": "0x00",
                "code": "0x7f000000000000000000000000000000000000000000000000000000000000c3507f00000000000000000000000100000000000000000000000000000000000000007f000000000000000000000000ffffffffffffffffffffffffffffffffffffffff7f0000000000000000000000009483080df38174991630ffc7e41c3ddc8ddd31d27f00000000000000000000000000000000000000000000000000000000000000007f00000000000000000000000000000000000000000000000000000000000000007f000000000000000000000000000000000000000000000000000000000000c3500a6f7c542006528b69ff3a7a3a0401613c5560005155",
                "storage": {}
            }
        },
        "transaction": {
            "nonce": "0x00",
            "gasPrice": "0x0a",
            "gasLimit": [
                "0x0186a0"
            ],
            "to": "0x9483080df38174991630ffc7e41c3ddc8ddd32d2",
            "value": [
                "0x7e0f660b"
            ],
            "data": [
                "0x7f000000000000000000000000000000000000000000000000000000000000c3507f00000000000000000000000100000000000000000000000000000000000000007f000000000000000000000000ffffffffffffffffffffffffffffffffffffffff7f0000000000000000000000009483080df38174991630ffc7e41c3ddc8ddd31d27f00000000000000000000000000000000000000000000000000000000000000007f00000000000000000000000000000000000000000000000000000000000000007f000000000000000000000000000000000000000000000000000000000000c3500a6f7c542006528b69ff3a7a3a0401613c"
            ],
            "sender": "0xef5800e6bcc112aef781c9cd2ce3d2361c1bb6d1",
            "secretKey": "0xc9498d87d92ce017198af0729483080df38174991630ffc7e41c3ddc8ddd31d2"
        },
        "post": {
            "Osaka": [
                {
                    "hash": "0x8254e2f1c34f1dac848caf21c2e273a7f4335f4066868c008171d4b19d090ba6",
                    "logs": "0x1dcc4de8dec75d7aab85b567b6ccd41ad312451b948a7413f0a142fd40d49347",
                    "txbytes": "0xf9015d800a830186a0949483080df38174991630ffc7e41c3ddc8ddd32d2847e0f660bb8f87f000000000000000000000000000000000000000000000000000000000000c3507f00000000000000000000000100000000000000000000000000000000000000007f000000000000000000000000ffffffffffffffffffffffffffffffffffffffff7f0000000000000000000000009483080df38174991630ffc7e41c3ddc8ddd31d27f00000000000000000000000000000000000000000000000000000000000000007f00000000000000000000000000000000000000000000000000000000000000007f000000000000000000000000000000000000000000000000000000000000c3500a6f7c542006528b69ff3a7a3a0401613c25a035df8c432fa613e9b2de2f28088352fca2df76224b970c3c7af74e9c97c78e8fa05b1967073b27388445742614a1d1742526f2388760aa89827ae82ee7f8c014d5",
                    "indexes": {
                        "data": 0,
                        "gas": 0,
                        "value": 0
                    },
                    "state": {
                        "0xef5800e6bcc112aef781c9cd2ce3d2361c1bb6d1": {
                            "nonce": "0x01",
                            "balance": "0x0de0b6b3294dbd97",
                            "code": "0x",
                            "storage": {}
                        },
                        "0x9483080df38174991630ffc7e41c3ddc8ddd31d2": {
                            "nonce": "0x00",
                            "balance": "0x2e",
                            "code": "0x6000355415600957005b60203560003555",
                            "storage": {}
                        },
                        "0x9483080df38174991630ffc7e41c3ddc8ddd32d2": {
                            "nonce": "0x00",
                            "balance": "0x7e0f660b",
                            "code": "0x7f000000000000000000000000000000000000000000000000000000000000c3507f00000000000000000000000100000000000000000000000000000000000000007f000000000000000000000000ffffffffffffffffffffffffffffffffffffffff7f0000000000000000000000009483080df38174991630ffc7e41c3ddc8ddd31d27f00000000000000000000000000000000000000000000000000000000000000007f00000000000000000000000000000000000000000000000000000000000000007f000000000000000000000000000000000000000000000000000000000000c3500a6f7c542006528b69ff3a7a3a0401613c5560005155",
                            "storage": {
                                "0x00": "0x7c542006528b69ff3a7a3a0401613c55"
                            }
                        }
                    }
                }
            ]
        },
        "config": {
            "blobSchedule": {
                "Cancun": {
                    "target": "0x03",
                    "max": "0x06",
                    "baseFeeUpdateFraction": "0x32f0ed"
                },
                "Prague": {
                    "target": "0x06",
                    "max": "0x09",
                    "baseFeeUpdateFraction": "0x4c6964"
                },
                "Osaka": {
                    "target": "0x06",
                    "max": "0x09",
                    "baseFeeUpdateFraction": "0x4c6964"
                }
            },
            "chainid": "0x01"
        },
        "_info": {
            "hash": "0x917fed0ceb9a91c9980f1edcf997f23eb0b1e060db6c6187b64f327093b37b92",
            "comment": "`execution-specs` generated test",
            "filling-transition-tool": "2.18.0rc6",
            "description": "No description available - add a docstring to the python test class or function.",
            "url": "",
            "fixture-format": "state_test"
        }
    },
    "tests/static/state_tests/stRandom/randomStatetest298Filler.json::randomStatetest298[fork_Prague-state_test-]": {
        "env": {
            "currentCoinbase": "0x9483080df38174991630ffc7e41c3ddc8ddd31d2",
            "currentGasLimit": "0x7fffffffffffffff",
            "currentNumber": "0x01",
            "currentTimestamp": "0x03e8",
            "currentRandom": "0x0000000000000000000000000000000000000000000000000000000000020000",
            "currentDifficulty": "0x00",
            "currentBaseFee": "0x0a",
            "currentExcessBlobGas": "0x00"
        },
        "pre": {
            "0xef5800e6bcc112aef781c9cd2ce3d2361c1bb6d1": {
                "nonce": "0x00",
                "balance": "0x0de0b6b3a7640000",
                "code": "0x",
                "storage": {}
            },
            "0x9483080df38174991630ffc7e41c3ddc8ddd31d2": {
                "nonce": "0x00",
                "balance": "0x2e",
                "code": "0x6000355415600957005b60203560003555",
                "storage": {}
            },
            "0x9483080df38174991630ffc7e41c3ddc8ddd32d2": {
                "nonce": "0x00",
                "balance": "0x00",
                "code": "0x7f000000000000000000000000000000000000000000000000000000000000c3507f00000000000000000000000100000000000000000000000000000000000000007f000000000000000000000000ffffffffffffffffffffffffffffffffffffffff7f0000000000000000000000009483080df38174991630ffc7e41c3ddc8ddd31d27f00000000000000000000000000000000000000000000000000000000000000007f00000000000000000000000000000000000000000000000000000000000000007f000000000000000000000000000000000000000000000000000000000000c3500a6f7c542006528b69ff3a7a3a0401613c5560005155",
                "storage": {}
            }
        },
        "transaction": {
            "nonce": "0x00",
            "gasPrice": "0x0a",
            "gasLimit": [
                "0x0186a0"
            ],
            "to": "0x9483080df38174991630ffc7e41c3ddc8ddd32d2",
            "value": [
                "0x7e0f660b"
            ],
            "data": [
                "0x7f000000000000000000000000000000000000000000000000000000000000c3507f00000000000000000000000100000000000000000000000000000000000000007f000000000000000000000000ffffffffffffffffffffffffffffffffffffffff7f0000000000000000000000009483080df38174991630ffc7e41c3ddc8ddd31d27f00000000000000000000000000000000000000000000000000000000000000007f00000000000000000000000000000000000000000000000000000000000000007f000000000000000000000000000000000000000000000000000000000000c3500a6f7c542006528b69ff3a7a3a0401613c"
            ],
            "sender": "0xef5800e6bcc112aef781c9cd2ce3d2361c1bb6d1",
            "secretKey": "0xc9498d87d92ce017198af0729483080df38174991630ffc7e41c3ddc8ddd31d2"
        },
        "post": {
            "Prague": [
                {
                    "hash": "0x8254e2f1c34f1dac848caf21c2e273a7f4335f4066868c008171d4b19d090ba6",
                    "logs": "0x1dcc4de8dec75d7aab85b567b6ccd41ad312451b948a7413f0a142fd40d49347",
                    "txbytes": "0xf9015d800a830186a0949483080df38174991630ffc7e41c3ddc8ddd32d2847e0f660bb8f87f000000000000000000000000000000000000000000000000000000000000c3507f00000000000000000000000100000000000000000000000000000000000000007f000000000000000000000000ffffffffffffffffffffffffffffffffffffffff7f0000000000000000000000009483080df38174991630ffc7e41c3ddc8ddd31d27f00000000000000000000000000000000000000000000000000000000000000007f00000000000000000000000000000000000000000000000000000000000000007f000000000000000000000000000000000000000000000000000000000000c3500a6f7c542006528b69ff3a7a3a0401613c25a035df8c432fa613e9b2de2f28088352fca2df76224b970c3c7af74e9c97c78e8fa05b1967073b27388445742614a1d1742526f2388760aa89827ae82ee7f8c014d5",
                    "indexes": {
                        "data": 0,
                        "gas": 0,
                        "value": 0
                    },
                    "state": {
                        "0xef5800e6bcc112aef781c9cd2ce3d2361c1bb6d1": {
                            "nonce": "0x01",
                            "balance": "0x0de0b6b3294dbd97",
                            "code": "0x",
                            "storage": {}
                        },
                        "0x9483080df38174991630ffc7e41c3ddc8ddd31d2": {
                            "nonce": "0x00",
                            "balance": "0x2e",
                            "code": "0x6000355415600957005b60203560003555",
                            "storage": {}
                        },
                        "0x9483080df38174991630ffc7e41c3ddc8ddd32d2": {
                            "nonce": "0x00",
                            "balance": "0x7e0f660b",
                            "code": "0x7f000000000000000000000000000000000000000000000000000000000000c3507f00000000000000000000000100000000000000000000000000000000000000007f000000000000000000000000ffffffffffffffffffffffffffffffffffffffff7f0000000000000000000000009483080df38174991630ffc7e41c3ddc8ddd31d27f00000000000000000000000000000000000000000000000000000000000000007f00000000000000000000000000000000000000000000000000000000000000007f000000000000000000000000000000000000000000000000000000000000c3500a6f7c542006528b69ff3a7a3a0401613c5560005155",
                            "storage": {
                                "0x00": "0x7c542006528b69ff3a7a3a0401613c55"
                            }
                        }
                    }
                }
            ]
        },
        "config": {
            "blobSchedule": {
                "Cancun": {
                    "target": "0x03",
                    "max": "0x06",
                    "baseFeeUpdateFraction": "0x32f0ed"
                },
                "Prague": {
                    "target": "0x06",
                    "max": "0x09",
                    "baseFeeUpdateFraction": "0x4c6964"
                }
            },
            "chainid": "0x01"
        },
        "_info": {
            "hash": "0x72b67787c163392a582d71f88d05c76f3ebc2451e608c44e59a96915e2c69c5a",
            "comment": "`execution-specs` generated test",
            "filling-transition-tool": "2.18.0rc6",
            "description": "No description available - add a docstring to the python test class or function.",
            "url": "",
            "fixture-format": "state_test"
        }
    }
}