{
    "tests/static/state_tests/stRandom/randomStatetest187Filler.json::randomStatetest187[fork_Cancun-state_test-]": {
        "env": {
            "currentCoinbase": "0x75cb75053c7cdc9a875ad79c7ca98062129b7026",
            "currentGasLimit": "0x7fffffffffffffff",
            "currentNumber": "0x01",
            "currentTimestamp": "0x03e8",
            "currentRandom": "0x0000000000000000000000000000000000000000000000000000000000020000",
            "currentDifficulty": "0x00",
            "currentBaseFee": "0x0a",
            "currentExcessBlobGas": "0x00"
        },
        "pre": {
            "0xaece37817b6f8ac4fcd75fe03232141f1b25486d": {
                "nonce": "0x00",
                "balance": "0x0de0b6b3a7640000",
                "code": "0x",
                "storage": {}
            },
            "0x75cb75053c7cdc9a875ad79c7ca98062129b7026": {
                "nonce": "0x00",
                "balance": "0x2e",
                "code": "0x6000355415600957005b60203560003555",
                "storage": {}
            },
            "0x75cb75053c7cdc9a875ad79c7ca98062129b7126": {
                "nonce": "0x00",
                "balance": "0x00",
                "code": "0x7f000000000000000000000000ffffffffffffffffffffffffffffffffffffffff457f00000000000000000000000000000000000000000000000000000000000000007f00000000000000000000000000000000000000000000000000000000000000017f000000000000000000000000000000000000000000000000000000000000c3507f00000000000000000000000000000000000000000000000000000000000000006f75988036a0562096036b04518877199d60005155",
                "storage": {}
            }
        },
        "transaction": {
            "nonce": "0x00",
            "gasPrice": "0x0a",
            "gasLimit": [
                "0x0186a0"
            ],
            "to": "0x75cb75053c7cdc9a875ad79c7ca98062129b7126",
            "value": [
                "0x372e4882"
            ],
            "data": [
                "0x7f000000000000000000000000ffffffffffffffffffffffffffffffffffffffff457f00000000000000000000000000000000000000000000000000000000000000007f00000000000000000000000000000000000000000000000000000000000000017f000000000000000000000000000000000000000000000000000000000000c3507f00000000000000000000000000000000000000000000000000000000000000006f75988036a0562096036b04518877199d"
            ],
            "sender": "0xaece37817b6f8ac4fcd75fe03232141f1b25486d",
            "secretKey": "0xefbfc42a1c3a668c21b6eddb75cb75053c7cdc9a875ad79c7ca98062129b7026"
        },
        "post": {
            "Cancun": [
                {
                    "hash": "0xe526b08293a89bcabfa3619505f3172fa988c315081f8990ff5d444af30ea330",
                    "logs": "0x1dcc4de8dec75d7aab85b567b6ccd41ad312451b948a7413f0a142fd40d49347",
                    "txbytes": "0xf9011c800a830186a09475cb75053c7cdc9a875ad79c7ca98062129b712684372e4882b8b77f000000000000000000000000ffffffffffffffffffffffffffffffffffffffff457f00000000000000000000000000000000000000000000000000000000000000007f00000000000000000000000000000000000000000000000000000000000000017f000000000000000000000000000000000000000000000000000000000000c3507f00000000000000000000000000000000000000000000000000000000000000006f75988036a0562096036b04518877199d25a0c92d5668ed197ec0d36bd07fe74426e88b50a050eebbf614d50afd51838689afa01ee22959532125df5fa2b24f14e10e05239712126f552474a3f52d766c461167",
                    "indexes": {
                        "data": 0,
                        "gas": 0,
                        "value": 0
                    },
                    "state": {
                        "0xaece37817b6f8ac4fcd75fe03232141f1b25486d": {
                            "nonce": "0x01",
                            "balance": "0x0de0b6b3702ef09c",
                            "code": "0x",
                            "storage": {}
                        },
                        "0x75cb75053c7cdc9a875ad79c7ca98062129b7026": {
                            "nonce": "0x00",
                            "balance": "0x2e",
                            "code": "0x6000355415600957005b60203560003555",
                            "storage": {}
                        },
                        "0x75cb75053c7cdc9a875ad79c7ca98062129b7126": {
                            "nonce": "0x00",
                            "balance": "0x372e4882",
                            "code": "0x7f000000000000000000000000ffffffffffffffffffffffffffffffffffffffff457f00000000000000000000000000000000000000000000000000000000000000007f00000000000000000000000000000000000000000000000000000000000000017f000000000000000000000000000000000000000000000000000000000000c3507f00000000000000000000000000000000000000000000000000000000000000006f75988036a0562096036b04518877199d60005155",
                            "storage": {
                                "0x00": "0x75988036a0562096036b04518877199d"
                            }
                        }
                    }
                }
            ]
        },
        "config": {
            "blobSchedule": {
                "Cancun": {
                    "target": "0x03",
                    "max": "0x06",
                    "baseFeeUpdateFraction": "0x32f0ed"
                }
            },
            "chainid": "0x01"
        },
        "_info": {
            "hash": "0x0829b08b0e8c4b0be7a814132797129634b853b5b314707e8cdb48109b505577",
            "comment": "`execution-specs` generated test",
            "filling-transition-tool": "2.18.0rc6",
            "description": "No description available - add a docstring to the python test class or function.",
            "url": "",
            "fixture-format": "state_test"
        }
    },
    "tests/static/state_tests/stRandom/randomStatetest187Filler.json::randomStatetest187[fork_Osaka-state_test-]": {
        "env": {
            "currentCoinbase": "0x75cb75053c7cdc9a875ad79c7ca98062129b7026",
            "currentGasLimit": "0x7fffffffffffffff",
            "currentNumber": "0x01",
            "currentTimestamp": "0x03e8",
            "currentRandom": "0x0000000000000000000000000000000000000000000000000000000000020000",
            "currentDifficulty": "0x00",
            "currentBaseFee": "0x0a",
            "currentExcessBlobGas": "0x00"
        },
        "pre": {
            "0xaece37817b6f8ac4fcd75fe03232141f1b25486d": {
                "nonce": "0x00",
                "balance": "0x0de0b6b3a7640000",
                "code": "0x",
                "storage": {}
            },
            "0x75cb75053c7cdc9a875ad79c7ca98062129b7026": {
                "nonce": "0x00",
                "balance": "0x2e",
                "code": "0x6000355415600957005b60203560003555",
                "storage": {}
            },
            "0x75cb75053c7cdc9a875ad79c7ca98062129b7126": {
                "nonce": "0x00",
                "balance": "0x00",
                "code": "0x7f000000000000000000000000ffffffffffffffffffffffffffffffffffffffff457f00000000000000000000000000000000000000000000000000000000000000007f00000000000000000000000000000000000000000000000000000000000000017f000000000000000000000000000000000000000000000000000000000000c3507f00000000000000000000000000000000000000000000000000000000000000006f75988036a0562096036b04518877199d60005155",
                "storage": {}
            }
        },
        "transaction": {
            "nonce": "0x00",
            "gasPrice": "0x0a",
            "gasLimit": [
                "0x0186a0"
            ],
            "to": "0x75cb75053c7cdc9a875ad79c7ca98062129b7126",
            "value": [
                "0x372e4882"
            ],
            "data": [
                "0x7f000000000000000000000000ffffffffffffffffffffffffffffffffffffffff457f00000000000000000000000000000000000000000000000000000000000000007f00000000000000000000000000000000000000000000000000000000000000017f000000000000000000000000000000000000000000000000000000000000c3507f00000000000000000000000000000000000000000000000000000000000000006f75988036a0562096036b04518877199d"
            ],
            "sender": "0xaece37817b6f8ac4fcd75fe03232141f1b25486d",
            "secretKey": "0xefbfc42a1c3a668c21b6eddb75cb75053c7cdc9a875ad79c7ca98062129b7026"
        },
        "post": {
            "Osaka": [
                {
                    "hash": "0xe526b08293a89bcabfa3619505f3172fa988c315081f8990ff5d444af30ea330",
                    "logs": "0x1dcc4de8dec75d7aab85b567b6ccd41ad312451b948a7413f0a142fd40d49347",
                    "txbytes": "0xf9011c800a830186a09475cb75053c7cdc9a875ad79c7ca98062129b712684372e4882b8b77f000000000000000000000000ffffffffffffffffffffffffffffffffffffffff457f00000000000000000000000000000000000000000000000000000000000000007f00000000000000000000000000000000000000000000000000000000000000017f000000000000000000000000000000000000000000000000000000000000c3507f00000000000000000000000000000000000000000000000000000000000000006f75988036a0562096036b04518877199d25a0c92d5668ed197ec0d36bd07fe74426e88b50a050eebbf614d50afd51838689afa01ee22959532125df5fa2b24f14e10e05239712126f552474a3f52d766c461167",
                    "indexes": {
                        "data": 0,
                        "gas": 0,
                        "value": 0
                    },
                    "state": {
                        "0xaece37817b6f8ac4fcd75fe03232141f1b25486d": {
                            "nonce": "0x01",
                            "balance": "0x0de0b6b3702ef09c",
                            "code": "0x",
                            "storage": {}
                        },
                        "0x75cb75053c7cdc9a875ad79c7ca98062129b7026": {
                            "nonce": "0x00",
                            "balance": "0x2e",
                            "code": "0x6000355415600957005b60203560003555",
                            "storage": {}
                        },
                        "0x75cb75053c7cdc9a875ad79c7ca98062129b7126": {
                            "nonce": "0x00",
                            "balance": "0x372e4882",
                            "code": "0x7f000000000000000000000000ffffffffffffffffffffffffffffffffffffffff457f00000000000000000000000000000000000000000000000000000000000000007f00000000000000000000000000000000000000000000000000000000000000017f000000000000000000000000000000000000000000000000000000000000c3507f00000000000000000000000000000000000000000000000000000000000000006f75988036a0562096036b04518877199d60005155",
                            "storage": {
                                "0x00": "0x75988036a0562096036b04518877199d"
                            }
                        }
                    }
                }
            ]
        },
        "config": {
            "blobSchedule": {
                "Cancun": {
                    "target": "0x03",
                    "max": "0x06",
                    "baseFeeUpdateFraction": "0x32f0ed"
                },
                "Prague": {
                    "target": "0x06",
                    "max": "0x09",
                    "baseFeeUpdateFraction": "0x4c6964"
                },
                "Osaka": {
                    "target": "0x06",
                    "max": "0x09",
                    "baseFeeUpdateFraction": "0x4c6964"
                }
            },
            "chainid": "0x01"
        },
        "_info": {
            "hash": "0x16dd38db01c0c48d40a68c1717e64dff9a81b7e72439ce83dc12bdf75f008c11",
            "comment": "`execution-specs` generated test",
            "filling-transition-tool": "2.18.0rc6",
            "description": "No description available - add a docstring to the python test class or function.",
            "url": "",
            "fixture-format": "state_test"
        }
    },
    "tests/static/state_tests/stRandom/randomStatetest187Filler.json::randomStatetest187[fork_Prague-state_test-]": {
        "env": {
            "currentCoinbase": "0x75cb75053c7cdc9a875ad79c7ca98062129b7026",
            "currentGasLimit": "0x7fffffffffffffff",
            "currentNumber": "0x01",
            "currentTimestamp": "0x03e8",
            "currentRandom": "0x0000000000000000000000000000000000000000000000000000000000020000",
            "currentDifficulty": "0x00",
            "currentBaseFee": "0x0a",
            "currentExcessBlobGas": "0x00"
        },
        "pre": {
            "0xaece37817b6f8ac4fcd75fe03232141f1b25486d": {
                "nonce": "0x00",
                "balance": "0x0de0b6b3a7640000",
                "code": "0x",
                "storage": {}
            },
            "0x75cb75053c7cdc9a875ad79c7ca98062129b7026": {
                "nonce": "0x00",
                "balance": "0x2e",
                "code": "0x6000355415600957005b60203560003555",
                "storage": {}
            },
            "0x75cb75053c7cdc9a875ad79c7ca98062129b7126": {
                "nonce": "0x00",
                "balance": "0x00",
                "code": "0x7f000000000000000000000000ffffffffffffffffffffffffffffffffffffffff457f00000000000000000000000000000000000000000000000000000000000000007f00000000000000000000000000000000000000000000000000000000000000017f000000000000000000000000000000000000000000000000000000000000c3507f00000000000000000000000000000000000000000000000000000000000000006f75988036a0562096036b04518877199d60005155",
                "storage": {}
            }
        },
        "transaction": {
            "nonce": "0x00",
            "gasPrice": "0x0a",
            "gasLimit": [
                "0x0186a0"
            ],
            "to": "0x75cb75053c7cdc9a875ad79c7ca98062129b7126",
            "value": [
                "0x372e4882"
            ],
            "data": [
                "0x7f000000000000000000000000ffffffffffffffffffffffffffffffffffffffff457f00000000000000000000000000000000000000000000000000000000000000007f00000000000000000000000000000000000000000000000000000000000000017f000000000000000000000000000000000000000000000000000000000000c3507f00000000000000000000000000000000000000000000000000000000000000006f75988036a0562096036b04518877199d"
            ],
            "sender": "0xaece37817b6f8ac4fcd75fe03232141f1b25486d",
            "secretKey": "0xefbfc42a1c3a668c21b6eddb75cb75053c7cdc9a875ad79c7ca98062129b7026"
        },
        "post": {
            "Prague": [
                {
                    "hash": "0xe526b08293a89bcabfa3619505f3172fa988c315081f8990ff5d444af30ea330",
                    "logs": "0x1dcc4de8dec75d7aab85b567b6ccd41ad312451b948a7413f0a142fd40d49347",
                    "txbytes": "0xf9011c800a830186a09475cb75053c7cdc9a875ad79c7ca98062129b712684372e4882b8b77f000000000000000000000000ffffffffffffffffffffffffffffffffffffffff457f00000000000000000000000000000000000000000000000000000000000000007f00000000000000000000000000000000000000000000000000000000000000017f000000000000000000000000000000000000000000000000000000000000c3507f00000000000000000000000000000000000000000000000000000000000000006f75988036a0562096036b04518877199d25a0c92d5668ed197ec0d36bd07fe74426e88b50a050eebbf614d50afd51838689afa01ee22959532125df5fa2b24f14e10e05239712126f552474a3f52d766c461167",
                    "indexes": {
                        "data": 0,
                        "gas": 0,
                        "value": 0
                    },
                    "state": {
                        "0xaece37817b6f8ac4fcd75fe03232141f1b25486d": {
                            "nonce": "0x01",
                            "balance": "0x0de0b6b3702ef09c",
                            "code": "0x",
                            "storage": {}
                        },
                        "0x75cb75053c7cdc9a875ad79c7ca98062129b7026": {
                            "nonce": "0x00",
                            "balance": "0x2e",
                            "code": "0x6000355415600957005b60203560003555",
                            "storage": {}
                        },
                        "0x75cb75053c7cdc9a875ad79c7ca98062129b7126": {
                            "nonce": "0x00",
                            "balance": "0x372e4882",
                            "code": "0x7f000000000000000000000000ffffffffffffffffffffffffffffffffffffffff457f00000000000000000000000000000000000000000000000000000000000000007f00000000000000000000000000000000000000000000000000000000000000017f000000000000000000000000000000000000000000000000000000000000c3507f00000000000000000000000000000000000000000000000000000000000000006f75988036a0562096036b04518877199d60005155",
                            "storage": {
                                "0x00": "0x75988036a0562096036b04518877199d"
                            }
                        }
                    }
                }
            ]
        },
        "config": {
            "blobSchedule": {
                "Cancun": {
                    "target": "0x03",
                    "max": "0x06",
                    "baseFeeUpdateFraction": "0x32f0ed"
                },
                "Prague": {
                    "target": "0x06",
                    "max": "0x09",
                    "baseFeeUpdateFraction": "0x4c6964"
                }
            },
            "chainid": "0x01"
        },
        "_info": {
            "hash": "0x911f32478c7e98e5004e6e71a085b68b648487766711ff584ca141c91b33c22f",
            "comment": "`execution-specs` generated test",
            "filling-transition-tool": "2.18.0rc6",
            "description": "No description available - add a docstring to the python test class or function.",
            "url": "",
            "fixture-format": "state_test"
        }
    }
}