{
    "tests/static/state_tests/stRandom/randomStatetest62Filler.json::randomStatetest62[fork_Cancun-state_test-]": {
        "env": {
            "currentCoinbase": "0x890e6a9562eff878928e10d1e03fa2bae68911a0",
            "currentGasLimit": "0x7fffffffffffffff",
            "currentNumber": "0x01",
            "currentTimestamp": "0x03e8",
            "currentRandom": "0x0000000000000000000000000000000000000000000000000000000000020000",
            "currentDifficulty": "0x00",
            "currentBaseFee": "0x0a",
            "currentExcessBlobGas": "0x00"
        },
        "pre": {
            "0x3d0b6ed14ab80372a9151aeacfc9729d35e6950b": {
                "nonce": "0x00",
                "balance": "0x0de0b6b3a7640000",
                "code": "0x",
                "storage": {}
            },
            "0x890e6a9562eff878928e10d1e03fa2bae68911a0": {
                "nonce": "0x00",
                "balance": "0x2e",
                "code": "0x6000355415600957005b60203560003555",
                "storage": {}
            },
            "0x890e6a9562eff878928e10d1e03fa2bae68912a0": {
                "nonce": "0x00",
                "balance": "0x00",
                "code": "0x7f00000000000000000000000000000000000000000000000000000000000000007fffffffffffffffffffffffffffffffffffffffffffffffffffffffffffffffff7f000000000000000000000000ffffffffffffffffffffffffffffffffffffffff7f000000000000000000000000890e6a9562eff878928e10d1e03fa2bae68911a07fffffffffffffffffffffffffffffffffffffffffffffffffffffffffffffffff437f000000000000000000000000ffffffffffffffffffffffffffffffffffffffff7f00000000000000000000000000000000000000000000000000000000000000016f7268713013964a96ac5758043325015560005155",
                "storage": {}
            }
        },
        "transaction": {
            "nonce": "0x00",
            "gasPrice": "0x0a",
            "gasLimit": [
                "0x0186a0"
            ],
            "to": "0x890e6a9562eff878928e10d1e03fa2bae68912a0",
            "value": [
                "0x493fbf98"
            ],
            "data": [
                "0x7f00000000000000000000000000000000000000000000000000000000000000007fffffffffffffffffffffffffffffffffffffffffffffffffffffffffffffffff7f000000000000000000000000ffffffffffffffffffffffffffffffffffffffff7f000000000000000000000000890e6a9562eff878928e10d1e03fa2bae68911a07fffffffffffffffffffffffffffffffffffffffffffffffffffffffffffffffff437f000000000000000000000000ffffffffffffffffffffffffffffffffffffffff7f00000000000000000000000000000000000000000000000000000000000000016f7268713013964a96ac575804332501"
            ],
            "sender": "0x3d0b6ed14ab80372a9151aeacfc9729d35e6950b",
            "secretKey": "0x74048432e3a896c1dbf8edd0890e6a9562eff878928e10d1e03fa2bae68911a0"
        },
        "post": {
            "Cancun": [
                {
                    "hash": "0x9dca24c0a4fb24e36489f452c59607d15e4860b874f4048ed4c74f8dd4be72cc",
                    "logs": "0x1dcc4de8dec75d7aab85b567b6ccd41ad312451b948a7413f0a142fd40d49347",
                    "txbytes": "0xf9015d800a830186a094890e6a9562eff878928e10d1e03fa2bae68912a084493fbf98b8f87f00000000000000000000000000000000000000000000000000000000000000007fffffffffffffffffffffffffffffffffffffffffffffffffffffffffffffffff7f000000000000000000000000ffffffffffffffffffffffffffffffffffffffff7f000000000000000000000000890e6a9562eff878928e10d1e03fa2bae68911a07fffffffffffffffffffffffffffffffffffffffffffffffffffffffffffffffff437f000000000000000000000000ffffffffffffffffffffffffffffffffffffffff7f00000000000000000000000000000000000000000000000000000000000000016f7268713013964a96ac57580433250125a04c191853fd3a78fec9ff41aae214214bb6083db780052bfdb6b8655f13d85406a00a58c7f8a93b8fa3cc03de760bc8756e0c06b0de228c81165225a086d7b73c09",
                    "indexes": {
                        "data": 0,
                        "gas": 0,
                        "value": 0
                    },
                    "state": {
                        "0x3d0b6ed14ab80372a9151aeacfc9729d35e6950b": {
                            "nonce": "0x01",
                            "balance": "0x0de0b6b35e1d3eda",
                            "code": "0x",
                            "storage": {}
                        },
                        "0x890e6a9562eff878928e10d1e03fa2bae68911a0": {
                            "nonce": "0x00",
                            "balance": "0x2e",
                            "code": "0x6000355415600957005b60203560003555",
                            "storage": {}
                        },
                        "0x890e6a9562eff878928e10d1e03fa2bae68912a0": {
                            "nonce": "0x00",
                            "balance": "0x493fbf98",
                            "code": "0x7f00000000000000000000000000000000000000000000000000000000000000007fffffffffffffffffffffffffffffffffffffffffffffffffffffffffffffffff7f000000000000000000000000ffffffffffffffffffffffffffffffffffffffff7f000000000000000000000000890e6a9562eff878928e10d1e03fa2bae68911a07fffffffffffffffffffffffffffffffffffffffffffffffffffffffffffffffff437f000000000000000000000000ffffffffffffffffffffffffffffffffffffffff7f00000000000000000000000000000000000000000000000000000000000000016f7268713013964a96ac5758043325015560005155",
                            "storage": {
                                "0x00": "0x7268713013964a96ac57580433250155"
                            }
                        }
                    }
                }
            ]
        },
        "config": {
            "blobSchedule": {
                "Cancun": {
                    "target": "0x03",
                    "max": "0x06",
                    "baseFeeUpdateFraction": "0x32f0ed"
                }
            },
            "chainid": "0x01"
        },
        "_info": {
            "hash": "0x7cf39e224fb65712e496b1fd143ff013116c3ba91ca455e158cf460e83503c0d",
            "comment": "`execution-specs` generated test",
            "filling-transition-tool": "2.18.0rc6",
            "description": "No description available - add a docstring to the python test class or function.",
            "url": "",
            "fixture-format": "state_test"
        }
    },
    "tests/static/state_tests/stRandom/randomStatetest62Filler.json::randomStatetest62[fork_Osaka-state_test-]": {
        "env": {
            "currentCoinbase": "0x890e6a9562eff878928e10d1e03fa2bae68911a0",
            "currentGasLimit": "0x7fffffffffffffff",
            "currentNumber": "0x01",
            "currentTimestamp": "0x03e8",
            "currentRandom": "0x0000000000000000000000000000000000000000000000000000000000020000",
            "currentDifficulty": "0x00",
            "currentBaseFee": "0x0a",
            "currentExcessBlobGas": "0x00"
        },
        "pre": {
            "0x3d0b6ed14ab80372a9151aeacfc9729d35e6950b": {
                "nonce": "0x00",
                "balance": "0x0de0b6b3a7640000",
                "code": "0x",
                "storage": {}
            },
            "0x890e6a9562eff878928e10d1e03fa2bae68911a0": {
                "nonce": "0x00",
                "balance": "0x2e",
                "code": "0x6000355415600957005b60203560003555",
                "storage": {}
            },
            "0x890e6a9562eff878928e10d1e03fa2bae68912a0": {
                "nonce": "0x00",
                "balance": "0x00",
                "code": "0x7f00000000000000000000000000000000000000000000000000000000000000007fffffffffffffffffffffffffffffffffffffffffffffffffffffffffffffffff7f000000000000000000000000ffffffffffffffffffffffffffffffffffffffff7f000000000000000000000000890e6a9562eff878928e10d1e03fa2bae68911a07fffffffffffffffffffffffffffffffffffffffffffffffffffffffffffffffff437f000000000000000000000000ffffffffffffffffffffffffffffffffffffffff7f00000000000000000000000000000000000000000000000000000000000000016f7268713013964a96ac5758043325015560005155",
                "storage": {}
            }
        },
        "transaction": {
            "nonce": "0x00",
            "gasPrice": "0x0a",
            "gasLimit": [
                "0x0186a0"
            ],
            "to": "0x890e6a9562eff878928e10d1e03fa2bae68912a0",
            "value": [
                "0x493fbf98"
            ],
            "data": [
                "0x7f00000000000000000000000000000000000000000000000000000000000000007fffffffffffffffffffffffffffffffffffffffffffffffffffffffffffffffff7f000000000000000000000000ffffffffffffffffffffffffffffffffffffffff7f000000000000000000000000890e6a9562eff878928e10d1e03fa2bae68911a07fffffffffffffffffffffffffffffffffffffffffffffffffffffffffffffffff437f000000000000000000000000ffffffffffffffffffffffffffffffffffffffff7f00000000000000000000000000000000000000000000000000000000000000016f7268713013964a96ac575804332501"
            ],
            "sender": "0x3d0b6ed14ab80372a9151aeacfc9729d35e6950b",
            "secretKey": "0x74048432e3a896c1dbf8edd0890e6a9562eff878928e10d1e03fa2bae68911a0"
        },
        "post": {
            "Osaka": [
                {
                    "hash": "0x9dca24c0a4fb24e36489f452c59607d15e4860b874f4048ed4c74f8dd4be72cc",
                    "logs": "0x1dcc4de8dec75d7aab85b567b6ccd41ad312451b948a7413f0a142fd40d49347",
                    "txbytes": "0xf9015d800a830186a094890e6a9562eff878928e10d1e03fa2bae68912a084493fbf98b8f87f00000000000000000000000000000000000000000000000000000000000000007fffffffffffffffffffffffffffffffffffffffffffffffffffffffffffffffff7f000000000000000000000000ffffffffffffffffffffffffffffffffffffffff7f000000000000000000000000890e6a9562eff878928e10d1e03fa2bae68911a07fffffffffffffffffffffffffffffffffffffffffffffffffffffffffffffffff437f000000000000000000000000ffffffffffffffffffffffffffffffffffffffff7f00000000000000000000000000000000000000000000000000000000000000016f7268713013964a96ac57580433250125a04c191853fd3a78fec9ff41aae214214bb6083db780052bfdb6b8655f13d85406a00a58c7f8a93b8fa3cc03de760bc8756e0c06b0de228c81165225a086d7b73c09",
                    "indexes": {
                        "data": 0,
                        "gas": 0,
                        "value": 0
                    },
                    "state": {
                        "0x3d0b6ed14ab80372a9151aeacfc9729d35e6950b": {
                            "nonce": "0x01",
                            "balance": "0x0de0b6b35e1d3eda",
                            "code": "0x",
                            "storage": {}
                        },
                        "0x890e6a9562eff878928e10d1e03fa2bae68911a0": {
                            "nonce": "0x00",
                            "balance": "0x2e",
                            "code": "0x6000355415600957005b60203560003555",
                            "storage": {}
                        },
                        "0x890e6a9562eff878928e10d1e03fa2bae68912a0": {
                            "nonce": "0x00",
                            "balance": "0x493fbf98",
                            "code": "0x7f00000000000000000000000000000000000000000000000000000000000000007fffffffffffffffffffffffffffffffffffffffffffffffffffffffffffffffff7f000000000000000000000000ffffffffffffffffffffffffffffffffffffffff7f000000000000000000000000890e6a9562eff878928e10d1e03fa2bae68911a07fffffffffffffffffffffffffffffffffffffffffffffffffffffffffffffffff437f000000000000000000000000ffffffffffffffffffffffffffffffffffffffff7f00000000000000000000000000000000000000000000000000000000000000016f7268713013964a96ac5758043325015560005155",
                            "storage": {
                                "0x00": "0x7268713013964a96ac57580433250155"
                            }
                        }
                    }
                }
            ]
        },
        "config": {
            "blobSchedule": {
                "Cancun": {
                    "target": "0x03",
                    "max": "0x06",
                    "baseFeeUpdateFraction": "0x32f0ed"
                },
                "Prague": {
                    "target": "0x06",
                    "max": "0x09",
                    "baseFeeUpdateFraction": "0x4c6964"
                },
                "Osaka": {
                    "target": "0x06",
                    "max": "0x09",
                    "baseFeeUpdateFraction": "0x4c6964"
                }
            },
            "chainid": "0x01"
        },
        "_info": {
            "hash": "0x0c64c5805f024472ea4c100c3cc0b362198a61fb121f6daae2fad0fc14b894c8",
            "comment": "`execution-specs` generated test",
            "filling-transition-tool": "2.18.0rc6",
            "description": "No description available - add a docstring to the python test class or function.",
            "url": "",
            "fixture-format": "state_test"
        }
    },
    "tests/static/state_tests/stRandom/randomStatetest62Filler.json::randomStatetest62[fork_Prague-state_test-]": {
        "env": {
            "currentCoinbase": "0x890e6a9562eff878928e10d1e03fa2bae68911a0",
            "currentGasLimit": "0x7fffffffffffffff",
            "currentNumber": "0x01",
            "currentTimestamp": "0x03e8",
            "currentRandom": "0x0000000000000000000000000000000000000000000000000000000000020000",
            "currentDifficulty": "0x00",
            "currentBaseFee": "0x0a",
            "currentExcessBlobGas": "0x00"
        },
        "pre": {
            "0x3d0b6ed14ab80372a9151aeacfc9729d35e6950b": {
                "nonce": "0x00",
                "balance": "0x0de0b6b3a7640000",
                "code": "0x",
                "storage": {}
            },
            "0x890e6a9562eff878928e10d1e03fa2bae68911a0": {
                "nonce": "0x00",
                "balance": "0x2e",
                "code": "0x6000355415600957005b60203560003555",
                "storage": {}
            },
            "0x890e6a9562eff878928e10d1e03fa2bae68912a0": {
                "nonce": "0x00",
                "balance": "0x00",
                "code": "0x7f00000000000000000000000000000000000000000000000000000000000000007fffffffffffffffffffffffffffffffffffffffffffffffffffffffffffffffff7f000000000000000000000000ffffffffffffffffffffffffffffffffffffffff7f000000000000000000000000890e6a9562eff878928e10d1e03fa2bae68911a07fffffffffffffffffffffffffffffffffffffffffffffffffffffffffffffffff437f000000000000000000000000ffffffffffffffffffffffffffffffffffffffff7f00000000000000000000000000000000000000000000000000000000000000016f7268713013964a96ac5758043325015560005155",
                "storage": {}
            }
        },
        "transaction": {
            "nonce": "0x00",
            "gasPrice": "0x0a",
            "gasLimit": [
                "0x0186a0"
            ],
            "to": "0x890e6a9562eff878928e10d1e03fa2bae68912a0",
            "value": [
                "0x493fbf98"
            ],
            "data": [
                "0x7f00000000000000000000000000000000000000000000000000000000000000007fffffffffffffffffffffffffffffffffffffffffffffffffffffffffffffffff7f000000000000000000000000ffffffffffffffffffffffffffffffffffffffff7f000000000000000000000000890e6a9562eff878928e10d1e03fa2bae68911a07fffffffffffffffffffffffffffffffffffffffffffffffffffffffffffffffff437f000000000000000000000000ffffffffffffffffffffffffffffffffffffffff7f00000000000000000000000000000000000000000000000000000000000000016f7268713013964a96ac575804332501"
            ],
            "sender": "0x3d0b6ed14ab80372a9151aeacfc9729d35e6950b",
            "secretKey": "0x74048432e3a896c1dbf8edd0890e6a9562eff878928e10d1e03fa2bae68911a0"
        },
        "post": {
            "Prague": [
                {
                    "hash": "0x9dca24c0a4fb24e36489f452c59607d15e4860b874f4048ed4c74f8dd4be72cc",
                    "logs": "0x1dcc4de8dec75d7aab85b567b6ccd41ad312451b948a7413f0a142fd40d49347",
                    "txbytes": "0xf9015d800a830186a094890e6a9562eff878928e10d1e03fa2bae68912a084493fbf98b8f87f00000000000000000000000000000000000000000000000000000000000000007fffffffffffffffffffffffffffffffffffffffffffffffffffffffffffffffff7f000000000000000000000000ffffffffffffffffffffffffffffffffffffffff7f000000000000000000000000890e6a9562eff878928e10d1e03fa2bae68911a07fffffffffffffffffffffffffffffffffffffffffffffffffffffffffffffffff437f000000000000000000000000ffffffffffffffffffffffffffffffffffffffff7f00000000000000000000000000000000000000000000000000000000000000016f7268713013964a96ac57580433250125a04c191853fd3a78fec9ff41aae214214bb6083db780052bfdb6b8655f13d85406a00a58c7f8a93b8fa3cc03de760bc8756e0c06b0de228c81165225a086d7b73c09",
                    "indexes": {
                        "data": 0,
                        "gas": 0,
                        "value": 0
                    },
                    "state": {
                        "0x3d0b6ed14ab80372a9151aeacfc9729d35e6950b": {
                            "nonce": "0x01",
                            "balance": "0x0de0b6b35e1d3eda",
                            "code": "0x",
                            "storage": {}
                        },
                        "0x890e6a9562eff878928e10d1e03fa2bae68911a0": {
                            "nonce": "0x00",
                            "balance": "0x2e",
                            "code": "0x6000355415600957005b60203560003555",
                            "storage": {}
                        },
                        "0x890e6a9562eff878928e10d1e03fa2bae68912a0": {
                            "nonce": "0x00",
                            "balance": "0x493fbf98",
                            "code": "0x7f00000000000000000000000000000000000000000000000000000000000000007fffffffffffffffffffffffffffffffffffffffffffffffffffffffffffffffff7f000000000000000000000000ffffffffffffffffffffffffffffffffffffffff7f000000000000000000000000890e6a9562eff878928e10d1e03fa2bae68911a07fffffffffffffffffffffffffffffffffffffffffffffffffffffffffffffffff437f000000000000000000000000ffffffffffffffffffffffffffffffffffffffff7f00000000000000000000000000000000000000000000000000000000000000016f7268713013964a96ac5758043325015560005155",
                            "storage": {
                                "0x00": "0x7268713013964a96ac57580433250155"
                            }
                        }
                    }
                }
            ]
        },
        "config": {
            "blobSchedule": {
                "Cancun": {
                    "target": "0x03",
                    "max": "0x06",
                    "baseFeeUpdateFraction": "0x32f0ed"
                },
                "Prague": {
                    "target": "0x06",
                    "max": "0x09",
                    "baseFeeUpdateFraction": "0x4c6964"
                }
            },
            "chainid": "0x01"
        },
        "_info": {
            "hash": "0x9da555d2810c44efb615aa90b2caa00ec8f0ac467933e54e9fd0924fc8c0c9fa",
            "comment": "`execution-specs` generated test",
            "filling-transition-tool": "2.18.0rc6",
            "description": "No description available - add a docstring to the python test class or function.",
            "url": "",
            "fixture-format": "state_test"
        }
    }
}