{
    "tests/static/state_tests/stRandom/randomStatetest184Filler.json::randomStatetest184[fork_Cancun-state_test-]": {
        "env": {
            "currentCoinbase": "0x6d6e40885310545835a5b582dbc23ef026404bda",
            "currentGasLimit": "0x102b7fe66d",
            "currentNumber": "0x01",
            "currentTimestamp": "0x2710",
            "currentRandom": "0x0000000000000000000000000000000000000000000000000000000000020000",
            "currentDifficulty": "0x00",
            "currentBaseFee": "0x0a",
            "currentExcessBlobGas": "0x00"
        },
        "pre": {
            "0x9682301ee4c1b6a641cc93284cbcab5edde0a6c0": {
                "nonce": "0x00",
                "balance": "0x10c1142f2b8e8eb058",
                "code": "0x",
                "storage": {}
            },
            "0x092be5deee854406cd828165bf984afffc315952": {
                "nonce": "0x1d",
                "balance": "0x9740421ff0ff3ae3",
                "code": "0x",
                "storage": {}
            },
            "0xbcc4f718e38e38626eaf25f7170b3fa3d2bdbd7f": {
                "nonce": "0x75",
                "balance": "0x070a217c02c8f2d4",
                "code": "0x6f823a02877cef7c1afb60663009def564608c557bad2ae05769b991313726edbfa0881d9cc955b0f5154751da315696ea7ce130184b64f2507582c502d450349ff24fb8aeb2a46146687b666bd7bd0364946cb720c76d483f5afea0049251fd9793c4b0376afbb4ebcdc42fdd42edcd4b619cec787638009cea26a1abe570e3186ab790b7dc7db36e4cda2570b0847adf6e39579c7c43a4ac976cd507d493cdfaebe09936078e31c71c4665d34a4b816b8004",
                "storage": {}
            }
        },
        "transaction": {
            "nonce": "0x00",
            "gasPrice": "0x1c",
            "gasLimit": [
                "0x0186a0"
            ],
            "to": "0xbcc4f718e38e38626eaf25f7170b3fa3d2bdbd7f",
            "value": [
                "0x6d1dd024"
            ],
            "data": [
                "0x64dd3e4e84676723342c1dfaf9af4ef3"
            ],
            "sender": "0x9682301ee4c1b6a641cc93284cbcab5edde0a6c0",
            "secretKey": "0x9d5d5f600003ee3442ba03f0bcc4f718e38e38626eaf25f7170b3fa3d2bdbd7f"
        },
        "post": {
            "Cancun": [
                {
                    "hash": "0xfa3ce96fd13caeef65c34aee1d29e879538a260c1e0cd3be814e4a3b4170dfd1",
                    "logs": "0x1dcc4de8dec75d7aab85b567b6ccd41ad312451b948a7413f0a142fd40d49347",
                    "txbytes": "0xf874801c830186a094bcc4f718e38e38626eaf25f7170b3fa3d2bdbd7f846d1dd0249064dd3e4e84676723342c1dfaf9af4ef325a0182f33a6fdc05daf8c6d278dfa72f8cd159405b1c7355c295f9905c61b805323a01e9f7dade0da35bdac3ab937ef6e6dc227f140323ef68c8cf7726d48f377641a",
                    "indexes": {
                        "data": 0,
                        "gas": 0,
                        "value": 0
                    },
                    "state": {
                        "0x9682301ee4c1b6a641cc93284cbcab5edde0a6c0": {
                            "nonce": "0x01",
                            "balance": "0x10c1142f2b215e5554",
                            "code": "0x",
                            "storage": {}
                        },
                        "0x092be5deee854406cd828165bf984afffc315952": {
                            "nonce": "0x1d",
                            "balance": "0x9740421ff0ff3ae3",
                            "code": "0x",
                            "storage": {}
                        },
                        "0xbcc4f718e38e38626eaf25f7170b3fa3d2bdbd7f": {
                            "nonce": "0x75",
                            "balance": "0x070a217c6fe6c2f8",
                            "code": "0x6f823a02877cef7c1afb60663009def564608c557bad2ae05769b991313726edbfa0881d9cc955b0f5154751da315696ea7ce130184b64f2507582c502d450349ff24fb8aeb2a46146687b666bd7bd0364946cb720c76d483f5afea0049251fd9793c4b0376afbb4ebcdc42fdd42edcd4b619cec787638009cea26a1abe570e3186ab790b7dc7db36e4cda2570b0847adf6e39579c7c43a4ac976cd507d493cdfaebe09936078e31c71c4665d34a4b816b8004",
                            "storage": {
                                "0x8c": "0x823a02877cef7c1afb60663009def564"
                            }
                        },
                        "0x6d6e40885310545835a5b582dbc23ef026404bda": {
                            "nonce": "0x00",
                            "balance": "0x0beb90",
                            "code": "0x",
                            "storage": {}
                        }
                    }
                }
            ]
        },
        "config": {
            "blobSchedule": {
                "Cancun": {
                    "target": "0x03",
                    "max": "0x06",
                    "baseFeeUpdateFraction": "0x32f0ed"
                }
            },
            "chainid": "0x01"
        },
        "_info": {
            "hash": "0xeb6e10c065cb17ff8d573bf9a711530bf4a15143454d5fe49687be690e687d83",
            "comment": "`execution-spec-tests` generated test",
            "filling-transition-tool": "ethereum-spec-evm-resolver 0.0.5",
            "description": "No description available - add a docstring to the python test class or function.",
            "url": "",
            "fixture-format": "state_test",
            "eels-resolution": {
                "git-url": "https://github.com/ethereum/execution-specs.git",
                "branch": "forks/bpos",
                "commit": "7aacb2c54111391af5e98c505d5010b5698a770f"
            }
        }
    },
    "tests/static/state_tests/stRandom/randomStatetest184Filler.json::randomStatetest184[fork_Osaka-state_test-]": {
        "env": {
            "currentCoinbase": "0x6d6e40885310545835a5b582dbc23ef026404bda",
            "currentGasLimit": "0x102b7fe66d",
            "currentNumber": "0x01",
            "currentTimestamp": "0x2710",
            "currentRandom": "0x0000000000000000000000000000000000000000000000000000000000020000",
            "currentDifficulty": "0x00",
            "currentBaseFee": "0x0a",
            "currentExcessBlobGas": "0x00"
        },
        "pre": {
            "0x9682301ee4c1b6a641cc93284cbcab5edde0a6c0": {
                "nonce": "0x00",
                "balance": "0x10c1142f2b8e8eb058",
                "code": "0x",
                "storage": {}
            },
            "0x092be5deee854406cd828165bf984afffc315952": {
                "nonce": "0x1d",
                "balance": "0x9740421ff0ff3ae3",
                "code": "0x",
                "storage": {}
            },
            "0xbcc4f718e38e38626eaf25f7170b3fa3d2bdbd7f": {
                "nonce": "0x75",
                "balance": "0x070a217c02c8f2d4",
                "code": "0x6f823a02877cef7c1afb60663009def564608c557bad2ae05769b991313726edbfa0881d9cc955b0f5154751da315696ea7ce130184b64f2507582c502d450349ff24fb8aeb2a46146687b666bd7bd0364946cb720c76d483f5afea0049251fd9793c4b0376afbb4ebcdc42fdd42edcd4b619cec787638009cea26a1abe570e3186ab790b7dc7db36e4cda2570b0847adf6e39579c7c43a4ac976cd507d493cdfaebe09936078e31c71c4665d34a4b816b8004",
                "storage": {}
            }
        },
        "transaction": {
            "nonce": "0x00",
            "gasPrice": "0x1c",
            "gasLimit": [
                "0x0186a0"
            ],
            "to": "0xbcc4f718e38e38626eaf25f7170b3fa3d2bdbd7f",
            "value": [
                "0x6d1dd024"
            ],
            "data": [
                "0x64dd3e4e84676723342c1dfaf9af4ef3"
            ],
            "sender": "0x9682301ee4c1b6a641cc93284cbcab5edde0a6c0",
            "secretKey": "0x9d5d5f600003ee3442ba03f0bcc4f718e38e38626eaf25f7170b3fa3d2bdbd7f"
        },
        "post": {
            "Osaka": [
                {
                    "hash": "0xfa3ce96fd13caeef65c34aee1d29e879538a260c1e0cd3be814e4a3b4170dfd1",
                    "logs": "0x1dcc4de8dec75d7aab85b567b6ccd41ad312451b948a7413f0a142fd40d49347",
                    "txbytes": "0xf874801c830186a094bcc4f718e38e38626eaf25f7170b3fa3d2bdbd7f846d1dd0249064dd3e4e84676723342c1dfaf9af4ef325a0182f33a6fdc05daf8c6d278dfa72f8cd159405b1c7355c295f9905c61b805323a01e9f7dade0da35bdac3ab937ef6e6dc227f140323ef68c8cf7726d48f377641a",
                    "indexes": {
                        "data": 0,
                        "gas": 0,
                        "value": 0
                    },
                    "state": {
                        "0x9682301ee4c1b6a641cc93284cbcab5edde0a6c0": {
                            "nonce": "0x01",
                            "balance": "0x10c1142f2b215e5554",
                            "code": "0x",
                            "storage": {}
                        },
                        "0x092be5deee854406cd828165bf984afffc315952": {
                            "nonce": "0x1d",
                            "balance": "0x9740421ff0ff3ae3",
                            "code": "0x",
                            "storage": {}
                        },
                        "0xbcc4f718e38e38626eaf25f7170b3fa3d2bdbd7f": {
                            "nonce": "0x75",
                            "balance": "0x070a217c6fe6c2f8",
                            "code": "0x6f823a02877cef7c1afb60663009def564608c557bad2ae05769b991313726edbfa0881d9cc955b0f5154751da315696ea7ce130184b64f2507582c502d450349ff24fb8aeb2a46146687b666bd7bd0364946cb720c76d483f5afea0049251fd9793c4b0376afbb4ebcdc42fdd42edcd4b619cec787638009cea26a1abe570e3186ab790b7dc7db36e4cda2570b0847adf6e39579c7c43a4ac976cd507d493cdfaebe09936078e31c71c4665d34a4b816b8004",
                            "storage": {
                                "0x8c": "0x823a02877cef7c1afb60663009def564"
                            }
                        },
                        "0x6d6e40885310545835a5b582dbc23ef026404bda": {
                            "nonce": "0x00",
                            "balance": "0x0beb90",
                            "code": "0x",
                            "storage": {}
                        }
                    }
                }
            ]
        },
        "config": {
            "blobSchedule": {
                "Cancun": {
                    "target": "0x03",
                    "max": "0x06",
                    "baseFeeUpdateFraction": "0x32f0ed"
                },
                "Prague": {
                    "target": "0x06",
                    "max": "0x09",
                    "baseFeeUpdateFraction": "0x4c6964"
                },
                "Osaka": {
                    "target": "0x06",
                    "max": "0x09",
                    "baseFeeUpdateFraction": "0x4c6964"
                }
            },
            "chainid": "0x01"
        },
        "_info": {
            "hash": "0xe10b69a31f92c2d89dd0b87a688a044be331279fca675234fd38a70f50c88b30",
            "comment": "`execution-spec-tests` generated test",
            "filling-transition-tool": "ethereum-spec-evm-resolver 0.0.5",
            "description": "No description available - add a docstring to the python test class or function.",
            "url": "",
            "fixture-format": "state_test",
            "eels-resolution": {
                "git-url": "https://github.com/ethereum/execution-specs.git",
                "branch": "forks/bpos",
                "commit": "7aacb2c54111391af5e98c505d5010b5698a770f"
            }
        }
    },
    "tests/static/state_tests/stRandom/randomStatetest184Filler.json::randomStatetest184[fork_Prague-state_test-]": {
        "env": {
            "currentCoinbase": "0x6d6e40885310545835a5b582dbc23ef026404bda",
            "currentGasLimit": "0x102b7fe66d",
            "currentNumber": "0x01",
            "currentTimestamp": "0x2710",
            "currentRandom": "0x0000000000000000000000000000000000000000000000000000000000020000",
            "currentDifficulty": "0x00",
            "currentBaseFee": "0x0a",
            "currentExcessBlobGas": "0x00"
        },
        "pre": {
            "0x9682301ee4c1b6a641cc93284cbcab5edde0a6c0": {
                "nonce": "0x00",
                "balance": "0x10c1142f2b8e8eb058",
                "code": "0x",
                "storage": {}
            },
            "0x092be5deee854406cd828165bf984afffc315952": {
                "nonce": "0x1d",
                "balance": "0x9740421ff0ff3ae3",
                "code": "0x",
                "storage": {}
            },
            "0xbcc4f718e38e38626eaf25f7170b3fa3d2bdbd7f": {
                "nonce": "0x75",
                "balance": "0x070a217c02c8f2d4",
                "code": "0x6f823a02877cef7c1afb60663009def564608c557bad2ae05769b991313726edbfa0881d9cc955b0f5154751da315696ea7ce130184b64f2507582c502d450349ff24fb8aeb2a46146687b666bd7bd0364946cb720c76d483f5afea0049251fd9793c4b0376afbb4ebcdc42fdd42edcd4b619cec787638009cea26a1abe570e3186ab790b7dc7db36e4cda2570b0847adf6e39579c7c43a4ac976cd507d493cdfaebe09936078e31c71c4665d34a4b816b8004",
                "storage": {}
            }
        },
        "transaction": {
            "nonce": "0x00",
            "gasPrice": "0x1c",
            "gasLimit": [
                "0x0186a0"
            ],
            "to": "0xbcc4f718e38e38626eaf25f7170b3fa3d2bdbd7f",
            "value": [
                "0x6d1dd024"
            ],
            "data": [
                "0x64dd3e4e84676723342c1dfaf9af4ef3"
            ],
            "sender": "0x9682301ee4c1b6a641cc93284cbcab5edde0a6c0",
            "secretKey": "0x9d5d5f600003ee3442ba03f0bcc4f718e38e38626eaf25f7170b3fa3d2bdbd7f"
        },
        "post": {
            "Prague": [
                {
                    "hash": "0xfa3ce96fd13caeef65c34aee1d29e879538a260c1e0cd3be814e4a3b4170dfd1",
                    "logs": "0x1dcc4de8dec75d7aab85b567b6ccd41ad312451b948a7413f0a142fd40d49347",
                    "txbytes": "0xf874801c830186a094bcc4f718e38e38626eaf25f7170b3fa3d2bdbd7f846d1dd0249064dd3e4e84676723342c1dfaf9af4ef325a0182f33a6fdc05daf8c6d278dfa72f8cd159405b1c7355c295f9905c61b805323a01e9f7dade0da35bdac3ab937ef6e6dc227f140323ef68c8cf7726d48f377641a",
                    "indexes": {
                        "data": 0,
                        "gas": 0,
                        "value": 0
                    },
                    "state": {
                        "0x9682301ee4c1b6a641cc93284cbcab5edde0a6c0": {
                            "nonce": "0x01",
                            "balance": "0x10c1142f2b215e5554",
                            "code": "0x",
                            "storage": {}
                        },
                        "0x092be5deee854406cd828165bf984afffc315952": {
                            "nonce": "0x1d",
                            "balance": "0x9740421ff0ff3ae3",
                            "code": "0x",
                            "storage": {}
                        },
                        "0xbcc4f718e38e38626eaf25f7170b3fa3d2bdbd7f": {
                            "nonce": "0x75",
                            "balance": "0x070a217c6fe6c2f8",
                            "code": "0x6f823a02877cef7c1afb60663009def564608c557bad2ae05769b991313726edbfa0881d9cc955b0f5154751da315696ea7ce130184b64f2507582c502d450349ff24fb8aeb2a46146687b666bd7bd0364946cb720c76d483f5afea0049251fd9793c4b0376afbb4ebcdc42fdd42edcd4b619cec787638009cea26a1abe570e3186ab790b7dc7db36e4cda2570b0847adf6e39579c7c43a4ac976cd507d493cdfaebe09936078e31c71c4665d34a4b816b8004",
                            "storage": {
                                "0x8c": "0x823a02877cef7c1afb60663009def564"
                            }
                        },
                        "0x6d6e40885310545835a5b582dbc23ef026404bda": {
                            "nonce": "0x00",
                            "balance": "0x0beb90",
                            "code": "0x",
                            "storage": {}
                        }
                    }
                }
            ]
        },
        "config": {
            "blobSchedule": {
                "Cancun": {
                    "target": "0x03",
                    "max": "0x06",
                    "baseFeeUpdateFraction": "0x32f0ed"
                },
                "Prague": {
                    "target": "0x06",
                    "max": "0x09",
                    "baseFeeUpdateFraction": "0x4c6964"
                }
            },
            "chainid": "0x01"
        },
        "_info": {
            "hash": "0xcb476d0e9ed861b7ce2132db6d4d72e30158d1336c02e743c5e66618ef12ecbe",
            "comment": "`execution-spec-tests` generated test",
            "filling-transition-tool": "ethereum-spec-evm-resolver 0.0.5",
            "description": "No description available - add a docstring to the python test class or function.",
            "url": "",
            "fixture-format": "state_test",
            "eels-resolution": {
                "git-url": "https://github.com/ethereum/execution-specs.git",
                "branch": "forks/bpos",
                "commit": "7aacb2c54111391af5e98c505d5010b5698a770f"
            }
        }
    }
}