{
    "tests/static/state_tests/stRandom/randomStatetest302Filler.json::randomStatetest302[fork_Cancun-state_test-]": {
        "env": {
            "currentCoinbase": "0xab39971a07e1dc8cb2f429838107a1d696688011",
            "currentGasLimit": "0x7fffffffffffffff",
            "currentNumber": "0x01",
            "currentTimestamp": "0x03e8",
            "currentRandom": "0x0000000000000000000000000000000000000000000000000000000000020000",
            "currentDifficulty": "0x00",
            "currentBaseFee": "0x0a",
            "currentExcessBlobGas": "0x00"
        },
        "pre": {
            "0xfe780777aa1efe8bba5409fec910de0be3390227": {
                "nonce": "0x00",
                "balance": "0x0de0b6b3a7640000",
                "code": "0x",
                "storage": {}
            },
            "0xab39971a07e1dc8cb2f429838107a1d696688011": {
                "nonce": "0x00",
                "balance": "0x2e",
                "code": "0x6000355415600957005b60203560003555",
                "storage": {}
            },
            "0xab39971a07e1dc8cb2f429838107a1d696688111": {
                "nonce": "0x00",
                "balance": "0x00",
                "code": "0x7f000000000000000000000000ab39971a07e1dc8cb2f429838107a1d6966880117fffffffffffffffffffffffffffffffffffffffffffffffffffffffffffffffff7f0000000000000000000000010000000000000000000000000000000000000000971a7f000000000000000000000000ffffffffffffffffffffffffffffffffffffffff447f00000000000000000000000000000000000000000000000000000000000000006989206c0b8a01867bf155",
                "storage": {}
            }
        },
        "transaction": {
            "nonce": "0x00",
            "gasPrice": "0x0a",
            "gasLimit": [
                "0x0186a0"
            ],
            "to": "0xab39971a07e1dc8cb2f429838107a1d696688111",
            "value": [
                "0x774e407c"
            ],
            "data": [
                "0x7f000000000000000000000000ab39971a07e1dc8cb2f429838107a1d6966880117fffffffffffffffffffffffffffffffffffffffffffffffffffffffffffffffff7f0000000000000000000000010000000000000000000000000000000000000000971a7f000000000000000000000000ffffffffffffffffffffffffffffffffffffffff447f00000000000000000000000000000000000000000000000000000000000000006989206c0b8a01867bf1"
            ],
            "sender": "0xfe780777aa1efe8bba5409fec910de0be3390227",
            "secretKey": "0xe133f4a6aafa834ba08d0affab39971a07e1dc8cb2f429838107a1d696688011"
        },
        "post": {
            "Cancun": [
                {
                    "hash": "0x0b2e0868b9876d7a2f71131d2a4e2a43e9f835d126fdcec58bbf8e1e92ea1529",
                    "logs": "0x1dcc4de8dec75d7aab85b567b6ccd41ad312451b948a7413f0a142fd40d49347",
                    "txbytes": "0xf90117800a830186a094ab39971a07e1dc8cb2f429838107a1d69668811184774e407cb8b27f000000000000000000000000ab39971a07e1dc8cb2f429838107a1d6966880117fffffffffffffffffffffffffffffffffffffffffffffffffffffffffffffffff7f0000000000000000000000010000000000000000000000000000000000000000971a7f000000000000000000000000ffffffffffffffffffffffffffffffffffffffff447f00000000000000000000000000000000000000000000000000000000000000006989206c0b8a01867bf126a0b48138a9bec35f08aea94a8f48ce4adef0992a900580d43368a2e307101e3ef2a046ab63d2f992bed4eead16eab8b11d47339ea817390dc30ead16041802b44cc5",
                    "indexes": {
                        "data": 0,
                        "gas": 0,
                        "value": 0
                    },
                    "state": {
                        "0xfe780777aa1efe8bba5409fec910de0be3390227": {
                            "nonce": "0x01",
                            "balance": "0x0de0b6b3a754bdc0",
                            "code": "0x",
                            "storage": {}
                        },
                        "0xab39971a07e1dc8cb2f429838107a1d696688011": {
                            "nonce": "0x00",
                            "balance": "0x2e",
                            "code": "0x6000355415600957005b60203560003555",
                            "storage": {}
                        },
                        "0xab39971a07e1dc8cb2f429838107a1d696688111": {
                            "nonce": "0x00",
                            "balance": "0x00",
                            "code": "0x7f000000000000000000000000ab39971a07e1dc8cb2f429838107a1d6966880117fffffffffffffffffffffffffffffffffffffffffffffffffffffffffffffffff7f0000000000000000000000010000000000000000000000000000000000000000971a7f000000000000000000000000ffffffffffffffffffffffffffffffffffffffff447f00000000000000000000000000000000000000000000000000000000000000006989206c0b8a01867bf155",
                            "storage": {}
                        }
                    }
                }
            ]
        },
        "config": {
            "blobSchedule": {
                "Cancun": {
                    "target": "0x03",
                    "max": "0x06",
                    "baseFeeUpdateFraction": "0x32f0ed"
                }
            },
            "chainid": "0x01"
        },
        "_info": {
            "hash": "0x055db2174c05455c343960d51d8c0e59ef0896a318955d43f30bea81df9a1ecb",
            "comment": "`execution-spec-tests` generated test",
            "filling-transition-tool": "ethereum-spec-evm-resolver 0.0.5",
            "description": "No description available - add a docstring to the python test class or function.",
            "url": "",
            "fixture-format": "state_test",
            "eels-resolution": {
                "git-url": "https://github.com/marioevz/execution-specs.git",
                "branch": "forks/bpo1",
                "commit": "3387e5f4aedfe99becfdc39b444d6371e25e0924"
            }
        }
    },
    "tests/static/state_tests/stRandom/randomStatetest302Filler.json::randomStatetest302[fork_Osaka-state_test-]": {
        "env": {
            "currentCoinbase": "0xab39971a07e1dc8cb2f429838107a1d696688011",
            "currentGasLimit": "0x7fffffffffffffff",
            "currentNumber": "0x01",
            "currentTimestamp": "0x03e8",
            "currentRandom": "0x0000000000000000000000000000000000000000000000000000000000020000",
            "currentDifficulty": "0x00",
            "currentBaseFee": "0x0a",
            "currentExcessBlobGas": "0x00"
        },
        "pre": {
            "0xfe780777aa1efe8bba5409fec910de0be3390227": {
                "nonce": "0x00",
                "balance": "0x0de0b6b3a7640000",
                "code": "0x",
                "storage": {}
            },
            "0xab39971a07e1dc8cb2f429838107a1d696688011": {
                "nonce": "0x00",
                "balance": "0x2e",
                "code": "0x6000355415600957005b60203560003555",
                "storage": {}
            },
            "0xab39971a07e1dc8cb2f429838107a1d696688111": {
                "nonce": "0x00",
                "balance": "0x00",
                "code": "0x7f000000000000000000000000ab39971a07e1dc8cb2f429838107a1d6966880117fffffffffffffffffffffffffffffffffffffffffffffffffffffffffffffffff7f0000000000000000000000010000000000000000000000000000000000000000971a7f000000000000000000000000ffffffffffffffffffffffffffffffffffffffff447f00000000000000000000000000000000000000000000000000000000000000006989206c0b8a01867bf155",
                "storage": {}
            }
        },
        "transaction": {
            "nonce": "0x00",
            "gasPrice": "0x0a",
            "gasLimit": [
                "0x0186a0"
            ],
            "to": "0xab39971a07e1dc8cb2f429838107a1d696688111",
            "value": [
                "0x774e407c"
            ],
            "data": [
                "0x7f000000000000000000000000ab39971a07e1dc8cb2f429838107a1d6966880117fffffffffffffffffffffffffffffffffffffffffffffffffffffffffffffffff7f0000000000000000000000010000000000000000000000000000000000000000971a7f000000000000000000000000ffffffffffffffffffffffffffffffffffffffff447f00000000000000000000000000000000000000000000000000000000000000006989206c0b8a01867bf1"
            ],
            "sender": "0xfe780777aa1efe8bba5409fec910de0be3390227",
            "secretKey": "0xe133f4a6aafa834ba08d0affab39971a07e1dc8cb2f429838107a1d696688011"
        },
        "post": {
            "Osaka": [
                {
                    "hash": "0x0b2e0868b9876d7a2f71131d2a4e2a43e9f835d126fdcec58bbf8e1e92ea1529",
                    "logs": "0x1dcc4de8dec75d7aab85b567b6ccd41ad312451b948a7413f0a142fd40d49347",
                    "txbytes": "0xf90117800a830186a094ab39971a07e1dc8cb2f429838107a1d69668811184774e407cb8b27f000000000000000000000000ab39971a07e1dc8cb2f429838107a1d6966880117fffffffffffffffffffffffffffffffffffffffffffffffffffffffffffffffff7f0000000000000000000000010000000000000000000000000000000000000000971a7f000000000000000000000000ffffffffffffffffffffffffffffffffffffffff447f00000000000000000000000000000000000000000000000000000000000000006989206c0b8a01867bf126a0b48138a9bec35f08aea94a8f48ce4adef0992a900580d43368a2e307101e3ef2a046ab63d2f992bed4eead16eab8b11d47339ea817390dc30ead16041802b44cc5",
                    "indexes": {
                        "data": 0,
                        "gas": 0,
                        "value": 0
                    },
                    "state": {
                        "0xfe780777aa1efe8bba5409fec910de0be3390227": {
                            "nonce": "0x01",
                            "balance": "0x0de0b6b3a754bdc0",
                            "code": "0x",
                            "storage": {}
                        },
                        "0xab39971a07e1dc8cb2f429838107a1d696688011": {
                            "nonce": "0x00",
                            "balance": "0x2e",
                            "code": "0x6000355415600957005b60203560003555",
                            "storage": {}
                        },
                        "0xab39971a07e1dc8cb2f429838107a1d696688111": {
                            "nonce": "0x00",
                            "balance": "0x00",
                            "code": "0x7f000000000000000000000000ab39971a07e1dc8cb2f429838107a1d6966880117fffffffffffffffffffffffffffffffffffffffffffffffffffffffffffffffff7f0000000000000000000000010000000000000000000000000000000000000000971a7f000000000000000000000000ffffffffffffffffffffffffffffffffffffffff447f00000000000000000000000000000000000000000000000000000000000000006989206c0b8a01867bf155",
                            "storage": {}
                        }
                    }
                }
            ]
        },
        "config": {
            "blobSchedule": {
                "Cancun": {
                    "target": "0x03",
                    "max": "0x06",
                    "baseFeeUpdateFraction": "0x32f0ed"
                },
                "Prague": {
                    "target": "0x06",
                    "max": "0x09",
                    "baseFeeUpdateFraction": "0x4c6964"
                },
                "Osaka": {
                    "target": "0x06",
                    "max": "0x09",
                    "baseFeeUpdateFraction": "0x4c6964"
                }
            },
            "chainid": "0x01"
        },
        "_info": {
            "hash": "0x46dd59f7ebea2e6c3bc9ec133f61e0974678da0b330db6ed5e9511054d3ec877",
            "comment": "`execution-spec-tests` generated test",
            "filling-transition-tool": "ethereum-spec-evm-resolver 0.0.5",
            "description": "No description available - add a docstring to the python test class or function.",
            "url": "",
            "fixture-format": "state_test",
            "eels-resolution": {
                "git-url": "https://github.com/marioevz/execution-specs.git",
                "branch": "forks/bpo1",
                "commit": "3387e5f4aedfe99becfdc39b444d6371e25e0924"
            }
        }
    },
    "tests/static/state_tests/stRandom/randomStatetest302Filler.json::randomStatetest302[fork_Prague-state_test-]": {
        "env": {
            "currentCoinbase": "0xab39971a07e1dc8cb2f429838107a1d696688011",
            "currentGasLimit": "0x7fffffffffffffff",
            "currentNumber": "0x01",
            "currentTimestamp": "0x03e8",
            "currentRandom": "0x0000000000000000000000000000000000000000000000000000000000020000",
            "currentDifficulty": "0x00",
            "currentBaseFee": "0x0a",
            "currentExcessBlobGas": "0x00"
        },
        "pre": {
            "0xfe780777aa1efe8bba5409fec910de0be3390227": {
                "nonce": "0x00",
                "balance": "0x0de0b6b3a7640000",
                "code": "0x",
                "storage": {}
            },
            "0xab39971a07e1dc8cb2f429838107a1d696688011": {
                "nonce": "0x00",
                "balance": "0x2e",
                "code": "0x6000355415600957005b60203560003555",
                "storage": {}
            },
            "0xab39971a07e1dc8cb2f429838107a1d696688111": {
                "nonce": "0x00",
                "balance": "0x00",
                "code": "0x7f000000000000000000000000ab39971a07e1dc8cb2f429838107a1d6966880117fffffffffffffffffffffffffffffffffffffffffffffffffffffffffffffffff7f0000000000000000000000010000000000000000000000000000000000000000971a7f000000000000000000000000ffffffffffffffffffffffffffffffffffffffff447f00000000000000000000000000000000000000000000000000000000000000006989206c0b8a01867bf155",
                "storage": {}
            }
        },
        "transaction": {
            "nonce": "0x00",
            "gasPrice": "0x0a",
            "gasLimit": [
                "0x0186a0"
            ],
            "to": "0xab39971a07e1dc8cb2f429838107a1d696688111",
            "value": [
                "0x774e407c"
            ],
            "data": [
                "0x7f000000000000000000000000ab39971a07e1dc8cb2f429838107a1d6966880117fffffffffffffffffffffffffffffffffffffffffffffffffffffffffffffffff7f0000000000000000000000010000000000000000000000000000000000000000971a7f000000000000000000000000ffffffffffffffffffffffffffffffffffffffff447f00000000000000000000000000000000000000000000000000000000000000006989206c0b8a01867bf1"
            ],
            "sender": "0xfe780777aa1efe8bba5409fec910de0be3390227",
            "secretKey": "0xe133f4a6aafa834ba08d0affab39971a07e1dc8cb2f429838107a1d696688011"
        },
        "post": {
            "Prague": [
                {
                    "hash": "0x0b2e0868b9876d7a2f71131d2a4e2a43e9f835d126fdcec58bbf8e1e92ea1529",
                    "logs": "0x1dcc4de8dec75d7aab85b567b6ccd41ad312451b948a7413f0a142fd40d49347",
                    "txbytes": "0xf90117800a830186a094ab39971a07e1dc8cb2f429838107a1d69668811184774e407cb8b27f000000000000000000000000ab39971a07e1dc8cb2f429838107a1d6966880117fffffffffffffffffffffffffffffffffffffffffffffffffffffffffffffffff7f0000000000000000000000010000000000000000000000000000000000000000971a7f000000000000000000000000ffffffffffffffffffffffffffffffffffffffff447f00000000000000000000000000000000000000000000000000000000000000006989206c0b8a01867bf126a0b48138a9bec35f08aea94a8f48ce4adef0992a900580d43368a2e307101e3ef2a046ab63d2f992bed4eead16eab8b11d47339ea817390dc30ead16041802b44cc5",
                    "indexes": {
                        "data": 0,
                        "gas": 0,
                        "value": 0
                    },
                    "state": {
                        "0xfe780777aa1efe8bba5409fec910de0be3390227": {
                            "nonce": "0x01",
                            "balance": "0x0de0b6b3a754bdc0",
                            "code": "0x",
                            "storage": {}
                        },
                        "0xab39971a07e1dc8cb2f429838107a1d696688011": {
                            "nonce": "0x00",
                            "balance": "0x2e",
                            "code": "0x6000355415600957005b60203560003555",
                            "storage": {}
                        },
                        "0xab39971a07e1dc8cb2f429838107a1d696688111": {
                            "nonce": "0x00",
                            "balance": "0x00",
                            "code": "0x7f000000000000000000000000ab39971a07e1dc8cb2f429838107a1d6966880117fffffffffffffffffffffffffffffffffffffffffffffffffffffffffffffffff7f0000000000000000000000010000000000000000000000000000000000000000971a7f000000000000000000000000ffffffffffffffffffffffffffffffffffffffff447f00000000000000000000000000000000000000000000000000000000000000006989206c0b8a01867bf155",
                            "storage": {}
                        }
                    }
                }
            ]
        },
        "config": {
            "blobSchedule": {
                "Cancun": {
                    "target": "0x03",
                    "max": "0x06",
                    "baseFeeUpdateFraction": "0x32f0ed"
                },
                "Prague": {
                    "target": "0x06",
                    "max": "0x09",
                    "baseFeeUpdateFraction": "0x4c6964"
                }
            },
            "chainid": "0x01"
        },
        "_info": {
            "hash": "0x78ffd3cd7259179cd74cca79e7a875c8a23f3f58d616ea11baff531f89733138",
            "comment": "`execution-spec-tests` generated test",
            "filling-transition-tool": "ethereum-spec-evm-resolver 0.0.5",
            "description": "No description available - add a docstring to the python test class or function.",
            "url": "",
            "fixture-format": "state_test",
            "eels-resolution": {
                "git-url": "https://github.com/marioevz/execution-specs.git",
                "branch": "forks/bpo1",
                "commit": "3387e5f4aedfe99becfdc39b444d6371e25e0924"
            }
        }
    }
}