{
    "tests/static/state_tests/stRandom/randomStatetest174Filler.json::randomStatetest174[fork_Cancun-state_test-]": {
        "env": {
            "currentCoinbase": "0x3ee3d5d626647fe9236c06963514d13abd35656c",
            "currentGasLimit": "0x7fffffffffffffff",
            "currentNumber": "0x01",
            "currentTimestamp": "0x03e8",
            "currentRandom": "0x0000000000000000000000000000000000000000000000000000000000020000",
            "currentDifficulty": "0x00",
            "currentBaseFee": "0x0a",
            "currentExcessBlobGas": "0x00"
        },
        "pre": {
            "0x8f93d2223203cb4d08869d45f4dd613ede3d6afc": {
                "nonce": "0x00",
                "balance": "0x0de0b6b3a7640000",
                "code": "0x",
                "storage": {}
            },
            "0x3ee3d5d626647fe9236c06963514d13abd35656c": {
                "nonce": "0x00",
                "balance": "0x2e",
                "code": "0x6000355415600957005b60203560003555",
                "storage": {}
            },
            "0x3ee3d5d626647fe9236c06963514d13abd35666c": {
                "nonce": "0x00",
                "balance": "0x0de0b6b3a7640000",
                "code": "0x434155",
                "storage": {}
            }
        },
        "transaction": {
            "nonce": "0x00",
            "gasPrice": "0x0a",
            "gasLimit": [
                "0x061a80"
            ],
            "to": "0x3ee3d5d626647fe9236c06963514d13abd35666c",
            "value": [
                "0x0186a0"
            ],
            "data": [
                "0x42"
            ],
            "sender": "0x8f93d2223203cb4d08869d45f4dd613ede3d6afc",
            "secretKey": "0xf387db5712596b7e2e7de8513ee3d5d626647fe9236c06963514d13abd35656c"
        },
        "post": {
            "Cancun": [
                {
                    "hash": "0xdaa2624dcf26e802bfd3cec58a50dae0e03c8d5d0b544f1ef30fe19abe171f2c",
                    "logs": "0x1dcc4de8dec75d7aab85b567b6ccd41ad312451b948a7413f0a142fd40d49347",
                    "txbytes": "0xf863800a83061a80943ee3d5d626647fe9236c06963514d13abd35666c830186a04225a088446d040684ab08f5c97e02ee459d0361e967ccf2049fb3b91e641d3a1ad008a06ab37935191db9d999420fdd001a9655296e28d176d682ca8b7b91e445284c80",
                    "indexes": {
                        "data": 0,
                        "gas": 0,
                        "value": 0
                    },
                    "state": {
                        "0x8f93d2223203cb4d08869d45f4dd613ede3d6afc": {
                            "nonce": "0x01",
                            "balance": "0x0de0b6b3a75be500",
                            "code": "0x",
                            "storage": {}
                        },
                        "0x3ee3d5d626647fe9236c06963514d13abd35656c": {
                            "nonce": "0x00",
                            "balance": "0x2e",
                            "code": "0x6000355415600957005b60203560003555",
                            "storage": {}
                        },
                        "0x3ee3d5d626647fe9236c06963514d13abd35666c": {
                            "nonce": "0x00",
                            "balance": "0x0de0b6b3a76586a0",
                            "code": "0x434155",
                            "storage": {
                                "0x3ee3d5d626647fe9236c06963514d13abd35656c": "0x01"
                            }
                        }
                    }
                }
            ]
        },
        "config": {
            "blobSchedule": {
                "Cancun": {
                    "target": "0x03",
                    "max": "0x06",
                    "baseFeeUpdateFraction": "0x32f0ed"
                }
            },
            "chainid": "0x01"
        },
        "_info": {
            "hash": "0x0069070f98948208c6056cd12207264e12b24dc46c32acf373776fac30381879",
            "comment": "`execution-spec-tests` generated test",
            "filling-transition-tool": "ethereum-spec-evm-resolver 0.0.5",
            "description": "No description available - add a docstring to the python test class or function.",
            "url": "",
            "fixture-format": "state_test",
            "eels-resolution": {
                "git-url": "https://github.com/marioevz/execution-specs.git",
                "branch": "forks/bpo1",
                "commit": "3387e5f4aedfe99becfdc39b444d6371e25e0924"
            }
        }
    },
    "tests/static/state_tests/stRandom/randomStatetest174Filler.json::randomStatetest174[fork_Osaka-state_test-]": {
        "env": {
            "currentCoinbase": "0x3ee3d5d626647fe9236c06963514d13abd35656c",
            "currentGasLimit": "0x7fffffffffffffff",
            "currentNumber": "0x01",
            "currentTimestamp": "0x03e8",
            "currentRandom": "0x0000000000000000000000000000000000000000000000000000000000020000",
            "currentDifficulty": "0x00",
            "currentBaseFee": "0x0a",
            "currentExcessBlobGas": "0x00"
        },
        "pre": {
            "0x8f93d2223203cb4d08869d45f4dd613ede3d6afc": {
                "nonce": "0x00",
                "balance": "0x0de0b6b3a7640000",
                "code": "0x",
                "storage": {}
            },
            "0x3ee3d5d626647fe9236c06963514d13abd35656c": {
                "nonce": "0x00",
                "balance": "0x2e",
                "code": "0x6000355415600957005b60203560003555",
                "storage": {}
            },
            "0x3ee3d5d626647fe9236c06963514d13abd35666c": {
                "nonce": "0x00",
                "balance": "0x0de0b6b3a7640000",
                "code": "0x434155",
                "storage": {}
            }
        },
        "transaction": {
            "nonce": "0x00",
            "gasPrice": "0x0a",
            "gasLimit": [
                "0x061a80"
            ],
            "to": "0x3ee3d5d626647fe9236c06963514d13abd35666c",
            "value": [
                "0x0186a0"
            ],
            "data": [
                "0x42"
            ],
            "sender": "0x8f93d2223203cb4d08869d45f4dd613ede3d6afc",
            "secretKey": "0xf387db5712596b7e2e7de8513ee3d5d626647fe9236c06963514d13abd35656c"
        },
        "post": {
            "Osaka": [
                {
                    "hash": "0xdaa2624dcf26e802bfd3cec58a50dae0e03c8d5d0b544f1ef30fe19abe171f2c",
                    "logs": "0x1dcc4de8dec75d7aab85b567b6ccd41ad312451b948a7413f0a142fd40d49347",
                    "txbytes": "0xf863800a83061a80943ee3d5d626647fe9236c06963514d13abd35666c830186a04225a088446d040684ab08f5c97e02ee459d0361e967ccf2049fb3b91e641d3a1ad008a06ab37935191db9d999420fdd001a9655296e28d176d682ca8b7b91e445284c80",
                    "indexes": {
                        "data": 0,
                        "gas": 0,
                        "value": 0
                    },
                    "state": {
                        "0x8f93d2223203cb4d08869d45f4dd613ede3d6afc": {
                            "nonce": "0x01",
                            "balance": "0x0de0b6b3a75be500",
                            "code": "0x",
                            "storage": {}
                        },
                        "0x3ee3d5d626647fe9236c06963514d13abd35656c": {
                            "nonce": "0x00",
                            "balance": "0x2e",
                            "code": "0x6000355415600957005b60203560003555",
                            "storage": {}
                        },
                        "0x3ee3d5d626647fe9236c06963514d13abd35666c": {
                            "nonce": "0x00",
                            "balance": "0x0de0b6b3a76586a0",
                            "code": "0x434155",
                            "storage": {
                                "0x3ee3d5d626647fe9236c06963514d13abd35656c": "0x01"
                            }
                        }
                    }
                }
            ]
        },
        "config": {
            "blobSchedule": {
                "Cancun": {
                    "target": "0x03",
                    "max": "0x06",
                    "baseFeeUpdateFraction": "0x32f0ed"
                },
                "Prague": {
                    "target": "0x06",
                    "max": "0x09",
                    "baseFeeUpdateFraction": "0x4c6964"
                },
                "Osaka": {
                    "target": "0x06",
                    "max": "0x09",
                    "baseFeeUpdateFraction": "0x4c6964"
                }
            },
            "chainid": "0x01"
        },
        "_info": {
            "hash": "0x8eb0f4d971649e14c8e1a6dc47016951b58476c447b82c8ef6c881b4559ae05b",
            "comment": "`execution-spec-tests` generated test",
            "filling-transition-tool": "ethereum-spec-evm-resolver 0.0.5",
            "description": "No description available - add a docstring to the python test class or function.",
            "url": "",
            "fixture-format": "state_test",
            "eels-resolution": {
                "git-url": "https://github.com/marioevz/execution-specs.git",
                "branch": "forks/bpo1",
                "commit": "3387e5f4aedfe99becfdc39b444d6371e25e0924"
            }
        }
    },
    "tests/static/state_tests/stRandom/randomStatetest174Filler.json::randomStatetest174[fork_Prague-state_test-]": {
        "env": {
            "currentCoinbase": "0x3ee3d5d626647fe9236c06963514d13abd35656c",
            "currentGasLimit": "0x7fffffffffffffff",
            "currentNumber": "0x01",
            "currentTimestamp": "0x03e8",
            "currentRandom": "0x0000000000000000000000000000000000000000000000000000000000020000",
            "currentDifficulty": "0x00",
            "currentBaseFee": "0x0a",
            "currentExcessBlobGas": "0x00"
        },
        "pre": {
            "0x8f93d2223203cb4d08869d45f4dd613ede3d6afc": {
                "nonce": "0x00",
                "balance": "0x0de0b6b3a7640000",
                "code": "0x",
                "storage": {}
            },
            "0x3ee3d5d626647fe9236c06963514d13abd35656c": {
                "nonce": "0x00",
                "balance": "0x2e",
                "code": "0x6000355415600957005b60203560003555",
                "storage": {}
            },
            "0x3ee3d5d626647fe9236c06963514d13abd35666c": {
                "nonce": "0x00",
                "balance": "0x0de0b6b3a7640000",
                "code": "0x434155",
                "storage": {}
            }
        },
        "transaction": {
            "nonce": "0x00",
            "gasPrice": "0x0a",
            "gasLimit": [
                "0x061a80"
            ],
            "to": "0x3ee3d5d626647fe9236c06963514d13abd35666c",
            "value": [
                "0x0186a0"
            ],
            "data": [
                "0x42"
            ],
            "sender": "0x8f93d2223203cb4d08869d45f4dd613ede3d6afc",
            "secretKey": "0xf387db5712596b7e2e7de8513ee3d5d626647fe9236c06963514d13abd35656c"
        },
        "post": {
            "Prague": [
                {
                    "hash": "0xdaa2624dcf26e802bfd3cec58a50dae0e03c8d5d0b544f1ef30fe19abe171f2c",
                    "logs": "0x1dcc4de8dec75d7aab85b567b6ccd41ad312451b948a7413f0a142fd40d49347",
                    "txbytes": "0xf863800a83061a80943ee3d5d626647fe9236c06963514d13abd35666c830186a04225a088446d040684ab08f5c97e02ee459d0361e967ccf2049fb3b91e641d3a1ad008a06ab37935191db9d999420fdd001a9655296e28d176d682ca8b7b91e445284c80",
                    "indexes": {
                        "data": 0,
                        "gas": 0,
                        "value": 0
                    },
                    "state": {
                        "0x8f93d2223203cb4d08869d45f4dd613ede3d6afc": {
                            "nonce": "0x01",
                            "balance": "0x0de0b6b3a75be500",
                            "code": "0x",
                            "storage": {}
                        },
                        "0x3ee3d5d626647fe9236c06963514d13abd35656c": {
                            "nonce": "0x00",
                            "balance": "0x2e",
                            "code": "0x6000355415600957005b60203560003555",
                            "storage": {}
                        },
                        "0x3ee3d5d626647fe9236c06963514d13abd35666c": {
                            "nonce": "0x00",
                            "balance": "0x0de0b6b3a76586a0",
                            "code": "0x434155",
                            "storage": {
                                "0x3ee3d5d626647fe9236c06963514d13abd35656c": "0x01"
                            }
                        }
                    }
                }
            ]
        },
        "config": {
            "blobSchedule": {
                "Cancun": {
                    "target": "0x03",
                    "max": "0x06",
                    "baseFeeUpdateFraction": "0x32f0ed"
                },
                "Prague": {
                    "target": "0x06",
                    "max": "0x09",
                    "baseFeeUpdateFraction": "0x4c6964"
                }
            },
            "chainid": "0x01"
        },
        "_info": {
            "hash": "0xec916e748c71df1c216dc9dededbb98989e66527d50d4a00f3fe0d9b3cc1f1db",
            "comment": "`execution-spec-tests` generated test",
            "filling-transition-tool": "ethereum-spec-evm-resolver 0.0.5",
            "description": "No description available - add a docstring to the python test class or function.",
            "url": "",
            "fixture-format": "state_test",
            "eels-resolution": {
                "git-url": "https://github.com/marioevz/execution-specs.git",
                "branch": "forks/bpo1",
                "commit": "3387e5f4aedfe99becfdc39b444d6371e25e0924"
            }
        }
    }
}