{
    "tests/static/state_tests/stRandom/randomStatetest19Filler.json::randomStatetest19[fork_Cancun-state_test-]": {
        "env": {
            "currentCoinbase": "0x97ffc47046ab7ac7cd0c1dd09074bc0f1eafebbf",
            "currentGasLimit": "0x7fffffffffffffff",
            "currentNumber": "0x01",
            "currentTimestamp": "0x03e8",
            "currentRandom": "0x0000000000000000000000000000000000000000000000000000000000020000",
            "currentDifficulty": "0x00",
            "currentBaseFee": "0x0a",
            "currentExcessBlobGas": "0x00"
        },
        "pre": {
            "0x6a5fbb62212a65bc1411d589132a2ba330d3df00": {
                "nonce": "0x00",
                "balance": "0x0de0b6b3a7640000",
                "code": "0x",
                "storage": {}
            },
            "0x97ffc47046ab7ac7cd0c1dd09074bc0f1eafebbf": {
                "nonce": "0x00",
                "balance": "0x2e",
                "code": "0x6000355415600957005b60203560003555",
                "storage": {}
            },
            "0x97ffc47046ab7ac7cd0c1dd09074bc0f1eafecbf": {
                "nonce": "0x00",
                "balance": "0x00",
                "code": "0x7ffffffffffffffffffffffffffffffffffffffffffffffffffffffffffffffffe3a7f000000000000000000000000ffffffffffffffffffffffffffffffffffffffff7ffffffffffffffffffffffffffffffffffffffffffffffffffffffffffffffffe417f0000000000000000000000000000000000000000000000000000000000000001587f000000000000000000000000000000000000000000000000000000000000c3506fff59876660063b7c8df1ff088a84145560005155",
                "storage": {}
            }
        },
        "transaction": {
            "nonce": "0x00",
            "gasPrice": "0x0a",
            "gasLimit": [
                "0x0186a0"
            ],
            "to": "0x97ffc47046ab7ac7cd0c1dd09074bc0f1eafecbf",
            "value": [
                "0x1dcd74de"
            ],
            "data": [
                "0x7ffffffffffffffffffffffffffffffffffffffffffffffffffffffffffffffffe3a7f000000000000000000000000ffffffffffffffffffffffffffffffffffffffff7ffffffffffffffffffffffffffffffffffffffffffffffffffffffffffffffffe417f0000000000000000000000000000000000000000000000000000000000000001587f000000000000000000000000000000000000000000000000000000000000c3506fff59876660063b7c8df1ff088a8414"
            ],
            "sender": "0x6a5fbb62212a65bc1411d589132a2ba330d3df00",
            "secretKey": "0x344ca366c5a01f644517239e97ffc47046ab7ac7cd0c1dd09074bc0f1eafebbf"
        },
        "post": {
            "Cancun": [
                {
                    "hash": "0xd7ecb89339c78e38d7acec5dc6f9b07a9f7935939956dceb22414273d45c0bc2",
                    "logs": "0x1dcc4de8dec75d7aab85b567b6ccd41ad312451b948a7413f0a142fd40d49347",
                    "txbytes": "0xf9011d800a830186a09497ffc47046ab7ac7cd0c1dd09074bc0f1eafecbf841dcd74deb8b87ffffffffffffffffffffffffffffffffffffffffffffffffffffffffffffffffe3a7f000000000000000000000000ffffffffffffffffffffffffffffffffffffffff7ffffffffffffffffffffffffffffffffffffffffffffffffffffffffffffffffe417f0000000000000000000000000000000000000000000000000000000000000001587f000000000000000000000000000000000000000000000000000000000000c3506fff59876660063b7c8df1ff088a841425a0517c367d6baf7c4a88c224841201607698ef246e47a1c62dfe36b7911ca0a22ca0099a1917eaca2e06c90b3d72824b95941dec3bbe70ca5c881547277db9640e39",
                    "indexes": {
                        "data": 0,
                        "gas": 0,
                        "value": 0
                    },
                    "state": {
                        "0x6a5fbb62212a65bc1411d589132a2ba330d3df00": {
                            "nonce": "0x01",
                            "balance": "0x0de0b6b3898fa578",
                            "code": "0x",
                            "storage": {}
                        },
                        "0x97ffc47046ab7ac7cd0c1dd09074bc0f1eafebbf": {
                            "nonce": "0x00",
                            "balance": "0x2e",
                            "code": "0x6000355415600957005b60203560003555",
                            "storage": {}
                        },
                        "0x97ffc47046ab7ac7cd0c1dd09074bc0f1eafecbf": {
                            "nonce": "0x00",
                            "balance": "0x1dcd74de",
                            "code": "0x7ffffffffffffffffffffffffffffffffffffffffffffffffffffffffffffffffe3a7f000000000000000000000000ffffffffffffffffffffffffffffffffffffffff7ffffffffffffffffffffffffffffffffffffffffffffffffffffffffffffffffe417f0000000000000000000000000000000000000000000000000000000000000001587f000000000000000000000000000000000000000000000000000000000000c3506fff59876660063b7c8df1ff088a84145560005155",
                            "storage": {
                                "0x00": "0xff59876660063b7c8df1ff088a841455"
                            }
                        }
                    }
                }
            ]
        },
        "config": {
            "blobSchedule": {
                "Cancun": {
                    "target": "0x03",
                    "max": "0x06",
                    "baseFeeUpdateFraction": "0x32f0ed"
                }
            },
            "chainid": "0x01"
        },
        "_info": {
            "hash": "0x93121d7a3c0d4a6a69823e1c90ab6162518577d1a757821f50ed16caca084aa9",
            "comment": "`execution-specs` generated test",
            "filling-transition-tool": "2.18.0rc6",
            "description": "No description available - add a docstring to the python test class or function.",
            "url": "",
            "fixture-format": "state_test"
        }
    },
    "tests/static/state_tests/stRandom/randomStatetest19Filler.json::randomStatetest19[fork_Osaka-state_test-]": {
        "env": {
            "currentCoinbase": "0x97ffc47046ab7ac7cd0c1dd09074bc0f1eafebbf",
            "currentGasLimit": "0x7fffffffffffffff",
            "currentNumber": "0x01",
            "currentTimestamp": "0x03e8",
            "currentRandom": "0x0000000000000000000000000000000000000000000000000000000000020000",
            "currentDifficulty": "0x00",
            "currentBaseFee": "0x0a",
            "currentExcessBlobGas": "0x00"
        },
        "pre": {
            "0x6a5fbb62212a65bc1411d589132a2ba330d3df00": {
                "nonce": "0x00",
                "balance": "0x0de0b6b3a7640000",
                "code": "0x",
                "storage": {}
            },
            "0x97ffc47046ab7ac7cd0c1dd09074bc0f1eafebbf": {
                "nonce": "0x00",
                "balance": "0x2e",
                "code": "0x6000355415600957005b60203560003555",
                "storage": {}
            },
            "0x97ffc47046ab7ac7cd0c1dd09074bc0f1eafecbf": {
                "nonce": "0x00",
                "balance": "0x00",
                "code": "0x7ffffffffffffffffffffffffffffffffffffffffffffffffffffffffffffffffe3a7f000000000000000000000000ffffffffffffffffffffffffffffffffffffffff7ffffffffffffffffffffffffffffffffffffffffffffffffffffffffffffffffe417f0000000000000000000000000000000000000000000000000000000000000001587f000000000000000000000000000000000000000000000000000000000000c3506fff59876660063b7c8df1ff088a84145560005155",
                "storage": {}
            }
        },
        "transaction": {
            "nonce": "0x00",
            "gasPrice": "0x0a",
            "gasLimit": [
                "0x0186a0"
            ],
            "to": "0x97ffc47046ab7ac7cd0c1dd09074bc0f1eafecbf",
            "value": [
                "0x1dcd74de"
            ],
            "data": [
                "0x7ffffffffffffffffffffffffffffffffffffffffffffffffffffffffffffffffe3a7f000000000000000000000000ffffffffffffffffffffffffffffffffffffffff7ffffffffffffffffffffffffffffffffffffffffffffffffffffffffffffffffe417f0000000000000000000000000000000000000000000000000000000000000001587f000000000000000000000000000000000000000000000000000000000000c3506fff59876660063b7c8df1ff088a8414"
            ],
            "sender": "0x6a5fbb62212a65bc1411d589132a2ba330d3df00",
            "secretKey": "0x344ca366c5a01f644517239e97ffc47046ab7ac7cd0c1dd09074bc0f1eafebbf"
        },
        "post": {
            "Osaka": [
                {
                    "hash": "0xd7ecb89339c78e38d7acec5dc6f9b07a9f7935939956dceb22414273d45c0bc2",
                    "logs": "0x1dcc4de8dec75d7aab85b567b6ccd41ad312451b948a7413f0a142fd40d49347",
                    "txbytes": "0xf9011d800a830186a09497ffc47046ab7ac7cd0c1dd09074bc0f1eafecbf841dcd74deb8b87ffffffffffffffffffffffffffffffffffffffffffffffffffffffffffffffffe3a7f000000000000000000000000ffffffffffffffffffffffffffffffffffffffff7ffffffffffffffffffffffffffffffffffffffffffffffffffffffffffffffffe417f0000000000000000000000000000000000000000000000000000000000000001587f000000000000000000000000000000000000000000000000000000000000c3506fff59876660063b7c8df1ff088a841425a0517c367d6baf7c4a88c224841201607698ef246e47a1c62dfe36b7911ca0a22ca0099a1917eaca2e06c90b3d72824b95941dec3bbe70ca5c881547277db9640e39",
                    "indexes": {
                        "data": 0,
                        "gas": 0,
                        "value": 0
                    },
                    "state": {
                        "0x6a5fbb62212a65bc1411d589132a2ba330d3df00": {
                            "nonce": "0x01",
                            "balance": "0x0de0b6b3898fa578",
                            "code": "0x",
                            "storage": {}
                        },
                        "0x97ffc47046ab7ac7cd0c1dd09074bc0f1eafebbf": {
                            "nonce": "0x00",
                            "balance": "0x2e",
                            "code": "0x6000355415600957005b60203560003555",
                            "storage": {}
                        },
                        "0x97ffc47046ab7ac7cd0c1dd09074bc0f1eafecbf": {
                            "nonce": "0x00",
                            "balance": "0x1dcd74de",
                            "code": "0x7ffffffffffffffffffffffffffffffffffffffffffffffffffffffffffffffffe3a7f000000000000000000000000ffffffffffffffffffffffffffffffffffffffff7ffffffffffffffffffffffffffffffffffffffffffffffffffffffffffffffffe417f0000000000000000000000000000000000000000000000000000000000000001587f000000000000000000000000000000000000000000000000000000000000c3506fff59876660063b7c8df1ff088a84145560005155",
                            "storage": {
                                "0x00": "0xff59876660063b7c8df1ff088a841455"
                            }
                        }
                    }
                }
            ]
        },
        "config": {
            "blobSchedule": {
                "Cancun": {
                    "target": "0x03",
                    "max": "0x06",
                    "baseFeeUpdateFraction": "0x32f0ed"
                },
                "Prague": {
                    "target": "0x06",
                    "max": "0x09",
                    "baseFeeUpdateFraction": "0x4c6964"
                },
                "Osaka": {
                    "target": "0x06",
                    "max": "0x09",
                    "baseFeeUpdateFraction": "0x4c6964"
                }
            },
            "chainid": "0x01"
        },
        "_info": {
            "hash": "0x6fd8c555863144557461a24994e011af74692c7961fdaface2ac7acfe96fb775",
            "comment": "`execution-specs` generated test",
            "filling-transition-tool": "2.18.0rc6",
            "description": "No description available - add a docstring to the python test class or function.",
            "url": "",
            "fixture-format": "state_test"
        }
    },
    "tests/static/state_tests/stRandom/randomStatetest19Filler.json::randomStatetest19[fork_Prague-state_test-]": {
        "env": {
            "currentCoinbase": "0x97ffc47046ab7ac7cd0c1dd09074bc0f1eafebbf",
            "currentGasLimit": "0x7fffffffffffffff",
            "currentNumber": "0x01",
            "currentTimestamp": "0x03e8",
            "currentRandom": "0x0000000000000000000000000000000000000000000000000000000000020000",
            "currentDifficulty": "0x00",
            "currentBaseFee": "0x0a",
            "currentExcessBlobGas": "0x00"
        },
        "pre": {
            "0x6a5fbb62212a65bc1411d589132a2ba330d3df00": {
                "nonce": "0x00",
                "balance": "0x0de0b6b3a7640000",
                "code": "0x",
                "storage": {}
            },
            "0x97ffc47046ab7ac7cd0c1dd09074bc0f1eafebbf": {
                "nonce": "0x00",
                "balance": "0x2e",
                "code": "0x6000355415600957005b60203560003555",
                "storage": {}
            },
            "0x97ffc47046ab7ac7cd0c1dd09074bc0f1eafecbf": {
                "nonce": "0x00",
                "balance": "0x00",
                "code": "0x7ffffffffffffffffffffffffffffffffffffffffffffffffffffffffffffffffe3a7f000000000000000000000000ffffffffffffffffffffffffffffffffffffffff7ffffffffffffffffffffffffffffffffffffffffffffffffffffffffffffffffe417f0000000000000000000000000000000000000000000000000000000000000001587f000000000000000000000000000000000000000000000000000000000000c3506fff59876660063b7c8df1ff088a84145560005155",
                "storage": {}
            }
        },
        "transaction": {
            "nonce": "0x00",
            "gasPrice": "0x0a",
            "gasLimit": [
                "0x0186a0"
            ],
            "to": "0x97ffc47046ab7ac7cd0c1dd09074bc0f1eafecbf",
            "value": [
                "0x1dcd74de"
            ],
            "data": [
                "0x7ffffffffffffffffffffffffffffffffffffffffffffffffffffffffffffffffe3a7f000000000000000000000000ffffffffffffffffffffffffffffffffffffffff7ffffffffffffffffffffffffffffffffffffffffffffffffffffffffffffffffe417f0000000000000000000000000000000000000000000000000000000000000001587f000000000000000000000000000000000000000000000000000000000000c3506fff59876660063b7c8df1ff088a8414"
            ],
            "sender": "0x6a5fbb62212a65bc1411d589132a2ba330d3df00",
            "secretKey": "0x344ca366c5a01f644517239e97ffc47046ab7ac7cd0c1dd09074bc0f1eafebbf"
        },
        "post": {
            "Prague": [
                {
                    "hash": "0xd7ecb89339c78e38d7acec5dc6f9b07a9f7935939956dceb22414273d45c0bc2",
                    "logs": "0x1dcc4de8dec75d7aab85b567b6ccd41ad312451b948a7413f0a142fd40d49347",
                    "txbytes": "0xf9011d800a830186a09497ffc47046ab7ac7cd0c1dd09074bc0f1eafecbf841dcd74deb8b87ffffffffffffffffffffffffffffffffffffffffffffffffffffffffffffffffe3a7f000000000000000000000000ffffffffffffffffffffffffffffffffffffffff7ffffffffffffffffffffffffffffffffffffffffffffffffffffffffffffffffe417f0000000000000000000000000000000000000000000000000000000000000001587f000000000000000000000000000000000000000000000000000000000000c3506fff59876660063b7c8df1ff088a841425a0517c367d6baf7c4a88c224841201607698ef246e47a1c62dfe36b7911ca0a22ca0099a1917eaca2e06c90b3d72824b95941dec3bbe70ca5c881547277db9640e39",
                    "indexes": {
                        "data": 0,
                        "gas": 0,
                        "value": 0
                    },
                    "state": {
                        "0x6a5fbb62212a65bc1411d589132a2ba330d3df00": {
                            "nonce": "0x01",
                            "balance": "0x0de0b6b3898fa578",
                            "code": "0x",
                            "storage": {}
                        },
                        "0x97ffc47046ab7ac7cd0c1dd09074bc0f1eafebbf": {
                            "nonce": "0x00",
                            "balance": "0x2e",
                            "code": "0x6000355415600957005b60203560003555",
                            "storage": {}
                        },
                        "0x97ffc47046ab7ac7cd0c1dd09074bc0f1eafecbf": {
                            "nonce": "0x00",
                            "balance": "0x1dcd74de",
                            "code": "0x7ffffffffffffffffffffffffffffffffffffffffffffffffffffffffffffffffe3a7f000000000000000000000000ffffffffffffffffffffffffffffffffffffffff7ffffffffffffffffffffffffffffffffffffffffffffffffffffffffffffffffe417f0000000000000000000000000000000000000000000000000000000000000001587f000000000000000000000000000000000000000000000000000000000000c3506fff59876660063b7c8df1ff088a84145560005155",
                            "storage": {
                                "0x00": "0xff59876660063b7c8df1ff088a841455"
                            }
                        }
                    }
                }
            ]
        },
        "config": {
            "blobSchedule": {
                "Cancun": {
                    "target": "0x03",
                    "max": "0x06",
                    "baseFeeUpdateFraction": "0x32f0ed"
                },
                "Prague": {
                    "target": "0x06",
                    "max": "0x09",
                    "baseFeeUpdateFraction": "0x4c6964"
                }
            },
            "chainid": "0x01"
        },
        "_info": {
            "hash": "0x98d891dfc34c699dc87bb964e4fa5bed4f111f9e0d78bcce3e42db66a0ac7c4e",
            "comment": "`execution-specs` generated test",
            "filling-transition-tool": "2.18.0rc6",
            "description": "No description available - add a docstring to the python test class or function.",
            "url": "",
            "fixture-format": "state_test"
        }
    }
}