{
    "tests/static/state_tests/stRandom/randomStatetest335Filler.json::randomStatetest335[fork_Cancun-state_test-]": {
        "env": {
            "currentCoinbase": "0x5a70885ebcf6885346d3ad23e1748a4d6698daa6",
            "currentGasLimit": "0x7fffffffffffffff",
            "currentNumber": "0x01",
            "currentTimestamp": "0x03e8",
            "currentRandom": "0x0000000000000000000000000000000000000000000000000000000000020000",
            "currentDifficulty": "0x00",
            "currentBaseFee": "0x0a",
            "currentExcessBlobGas": "0x00"
        },
        "pre": {
            "0xfd321c0419c82e7ccabd50666136adfe6798bf6b": {
                "nonce": "0x00",
                "balance": "0x0de0b6b3a7640000",
                "code": "0x",
                "storage": {}
            },
            "0x5a70885ebcf6885346d3ad23e1748a4d6698daa6": {
                "nonce": "0x00",
                "balance": "0x2e",
                "code": "0x6000355415600957005b60203560003555",
                "storage": {}
            },
            "0x5a70885ebcf6885346d3ad23e1748a4d6698dba6": {
                "nonce": "0x00",
                "balance": "0x00",
                "code": "0x7ffffffffffffffffffffffffffffffffffffffffffffffffffffffffffffffffe7fffffffffffffffffffffffffffffffffffffffffffffffffffffffffffffffff7f000000000000000000000000ffffffffffffffffffffffffffffffffffffffff7f00000000000000000000000100000000000000000000000000000000000000007ffffffffffffffffffffffffffffffffffffffffffffffffffffffffffffffffe7f00000000000000000000000100000000000000000000000000000000000000007f000000000000000000000000ffffffffffffffffffffffffffffffffffffffff7f000000000000000000000000000000000000000000000000000000000000c350617e7608617c95f3ff584076e07b5a4460005155",
                "storage": {}
            }
        },
        "transaction": {
            "nonce": "0x00",
            "gasPrice": "0x0a",
            "gasLimit": [
                "0x0186a0"
            ],
            "to": "0x5a70885ebcf6885346d3ad23e1748a4d6698dba6",
            "value": [
                "0x626440c7"
            ],
            "data": [
                "0x7ffffffffffffffffffffffffffffffffffffffffffffffffffffffffffffffffe7fffffffffffffffffffffffffffffffffffffffffffffffffffffffffffffffff7f000000000000000000000000ffffffffffffffffffffffffffffffffffffffff7f00000000000000000000000100000000000000000000000000000000000000007ffffffffffffffffffffffffffffffffffffffffffffffffffffffffffffffffe7f00000000000000000000000100000000000000000000000000000000000000007f000000000000000000000000ffffffffffffffffffffffffffffffffffffffff7f000000000000000000000000000000000000000000000000000000000000c350617e7608617c95f3ff584076e07b5a44"
            ],
            "sender": "0xfd321c0419c82e7ccabd50666136adfe6798bf6b",
            "secretKey": "0x0b94f2e770ed4a7be1f12efd5a70885ebcf6885346d3ad23e1748a4d6698daa6"
        },
        "post": {
            "Cancun": [
                {
                    "hash": "0xe776f81d32aa49d8a7cb2ad707df7a72b1e00a75bfb8389e79f6414c4006acc2",
                    "logs": "0x1dcc4de8dec75d7aab85b567b6ccd41ad312451b948a7413f0a142fd40d49347",
                    "txbytes": "0xf9017e800a830186a0945a70885ebcf6885346d3ad23e1748a4d6698dba684626440c7b901187ffffffffffffffffffffffffffffffffffffffffffffffffffffffffffffffffe7fffffffffffffffffffffffffffffffffffffffffffffffffffffffffffffffff7f000000000000000000000000ffffffffffffffffffffffffffffffffffffffff7f00000000000000000000000100000000000000000000000000000000000000007ffffffffffffffffffffffffffffffffffffffffffffffffffffffffffffffffe7f00000000000000000000000100000000000000000000000000000000000000007f000000000000000000000000ffffffffffffffffffffffffffffffffffffffff7f000000000000000000000000000000000000000000000000000000000000c350617e7608617c95f3ff584076e07b5a4425a05b9e3f8059643f879632873bb7fc7e0c9a7db003c3b413259ca664316cebb2c4a052212c1663a03669eb7f0b3cb71acecbcdb60c0a88dbf117fae2f2d7cc616cb1",
                    "indexes": {
                        "data": 0,
                        "gas": 0,
                        "value": 0
                    },
                    "state": {
                        "0xfd321c0419c82e7ccabd50666136adfe6798bf6b": {
                            "nonce": "0x01",
                            "balance": "0x0de0b6b344f6a16f",
                            "code": "0x",
                            "storage": {}
                        },
                        "0x5a70885ebcf6885346d3ad23e1748a4d6698daa6": {
                            "nonce": "0x00",
                            "balance": "0x2e",
                            "code": "0x6000355415600957005b60203560003555",
                            "storage": {}
                        },
                        "0x5a70885ebcf6885346d3ad23e1748a4d6698dba6": {
                            "nonce": "0x00",
                            "balance": "0x626440c7",
                            "code": "0x7ffffffffffffffffffffffffffffffffffffffffffffffffffffffffffffffffe7fffffffffffffffffffffffffffffffffffffffffffffffffffffffffffffffff7f000000000000000000000000ffffffffffffffffffffffffffffffffffffffff7f00000000000000000000000100000000000000000000000000000000000000007ffffffffffffffffffffffffffffffffffffffffffffffffffffffffffffffffe7f00000000000000000000000100000000000000000000000000000000000000007f000000000000000000000000ffffffffffffffffffffffffffffffffffffffff7f000000000000000000000000000000000000000000000000000000000000c350617e7608617c95f3ff584076e07b5a4460005155",
                            "storage": {}
                        }
                    }
                }
            ]
        },
        "config": {
            "blobSchedule": {
                "Cancun": {
                    "target": "0x03",
                    "max": "0x06",
                    "baseFeeUpdateFraction": "0x32f0ed"
                }
            },
            "chainid": "0x01"
        },
        "_info": {
            "hash": "0x22309c126454185d95b4e46adcef334853ec6de9c9b3c2890eb0d1a769af0f2e",
            "comment": "`execution-spec-tests` generated test",
            "filling-transition-tool": "ethereum-spec-evm-resolver 0.0.5",
            "description": "No description available - add a docstring to the python test class or function.",
            "url": "",
            "fixture-format": "state_test",
            "eels-resolution": {
                "git-url": "https://github.com/marioevz/execution-specs.git",
                "branch": "forks/bpo1",
                "commit": "3387e5f4aedfe99becfdc39b444d6371e25e0924"
            }
        }
    },
    "tests/static/state_tests/stRandom/randomStatetest335Filler.json::randomStatetest335[fork_Osaka-state_test-]": {
        "env": {
            "currentCoinbase": "0x5a70885ebcf6885346d3ad23e1748a4d6698daa6",
            "currentGasLimit": "0x7fffffffffffffff",
            "currentNumber": "0x01",
            "currentTimestamp": "0x03e8",
            "currentRandom": "0x0000000000000000000000000000000000000000000000000000000000020000",
            "currentDifficulty": "0x00",
            "currentBaseFee": "0x0a",
            "currentExcessBlobGas": "0x00"
        },
        "pre": {
            "0xfd321c0419c82e7ccabd50666136adfe6798bf6b": {
                "nonce": "0x00",
                "balance": "0x0de0b6b3a7640000",
                "code": "0x",
                "storage": {}
            },
            "0x5a70885ebcf6885346d3ad23e1748a4d6698daa6": {
                "nonce": "0x00",
                "balance": "0x2e",
                "code": "0x6000355415600957005b60203560003555",
                "storage": {}
            },
            "0x5a70885ebcf6885346d3ad23e1748a4d6698dba6": {
                "nonce": "0x00",
                "balance": "0x00",
                "code": "0x7ffffffffffffffffffffffffffffffffffffffffffffffffffffffffffffffffe7fffffffffffffffffffffffffffffffffffffffffffffffffffffffffffffffff7f000000000000000000000000ffffffffffffffffffffffffffffffffffffffff7f00000000000000000000000100000000000000000000000000000000000000007ffffffffffffffffffffffffffffffffffffffffffffffffffffffffffffffffe7f00000000000000000000000100000000000000000000000000000000000000007f000000000000000000000000ffffffffffffffffffffffffffffffffffffffff7f000000000000000000000000000000000000000000000000000000000000c350617e7608617c95f3ff584076e07b5a4460005155",
                "storage": {}
            }
        },
        "transaction": {
            "nonce": "0x00",
            "gasPrice": "0x0a",
            "gasLimit": [
                "0x0186a0"
            ],
            "to": "0x5a70885ebcf6885346d3ad23e1748a4d6698dba6",
            "value": [
                "0x626440c7"
            ],
            "data": [
                "0x7ffffffffffffffffffffffffffffffffffffffffffffffffffffffffffffffffe7fffffffffffffffffffffffffffffffffffffffffffffffffffffffffffffffff7f000000000000000000000000ffffffffffffffffffffffffffffffffffffffff7f00000000000000000000000100000000000000000000000000000000000000007ffffffffffffffffffffffffffffffffffffffffffffffffffffffffffffffffe7f00000000000000000000000100000000000000000000000000000000000000007f000000000000000000000000ffffffffffffffffffffffffffffffffffffffff7f000000000000000000000000000000000000000000000000000000000000c350617e7608617c95f3ff584076e07b5a44"
            ],
            "sender": "0xfd321c0419c82e7ccabd50666136adfe6798bf6b",
            "secretKey": "0x0b94f2e770ed4a7be1f12efd5a70885ebcf6885346d3ad23e1748a4d6698daa6"
        },
        "post": {
            "Osaka": [
                {
                    "hash": "0xe776f81d32aa49d8a7cb2ad707df7a72b1e00a75bfb8389e79f6414c4006acc2",
                    "logs": "0x1dcc4de8dec75d7aab85b567b6ccd41ad312451b948a7413f0a142fd40d49347",
                    "txbytes": "0xf9017e800a830186a0945a70885ebcf6885346d3ad23e1748a4d6698dba684626440c7b901187ffffffffffffffffffffffffffffffffffffffffffffffffffffffffffffffffe7fffffffffffffffffffffffffffffffffffffffffffffffffffffffffffffffff7f000000000000000000000000ffffffffffffffffffffffffffffffffffffffff7f00000000000000000000000100000000000000000000000000000000000000007ffffffffffffffffffffffffffffffffffffffffffffffffffffffffffffffffe7f00000000000000000000000100000000000000000000000000000000000000007f000000000000000000000000ffffffffffffffffffffffffffffffffffffffff7f000000000000000000000000000000000000000000000000000000000000c350617e7608617c95f3ff584076e07b5a4425a05b9e3f8059643f879632873bb7fc7e0c9a7db003c3b413259ca664316cebb2c4a052212c1663a03669eb7f0b3cb71acecbcdb60c0a88dbf117fae2f2d7cc616cb1",
                    "indexes": {
                        "data": 0,
                        "gas": 0,
                        "value": 0
                    },
                    "state": {
                        "0xfd321c0419c82e7ccabd50666136adfe6798bf6b": {
                            "nonce": "0x01",
                            "balance": "0x0de0b6b344f6a16f",
                            "code": "0x",
                            "storage": {}
                        },
                        "0x5a70885ebcf6885346d3ad23e1748a4d6698daa6": {
                            "nonce": "0x00",
                            "balance": "0x2e",
                            "code": "0x6000355415600957005b60203560003555",
                            "storage": {}
                        },
                        "0x5a70885ebcf6885346d3ad23e1748a4d6698dba6": {
                            "nonce": "0x00",
                            "balance": "0x626440c7",
                            "code": "0x7ffffffffffffffffffffffffffffffffffffffffffffffffffffffffffffffffe7fffffffffffffffffffffffffffffffffffffffffffffffffffffffffffffffff7f000000000000000000000000ffffffffffffffffffffffffffffffffffffffff7f00000000000000000000000100000000000000000000000000000000000000007ffffffffffffffffffffffffffffffffffffffffffffffffffffffffffffffffe7f00000000000000000000000100000000000000000000000000000000000000007f000000000000000000000000ffffffffffffffffffffffffffffffffffffffff7f000000000000000000000000000000000000000000000000000000000000c350617e7608617c95f3ff584076e07b5a4460005155",
                            "storage": {}
                        }
                    }
                }
            ]
        },
        "config": {
            "blobSchedule": {
                "Cancun": {
                    "target": "0x03",
                    "max": "0x06",
                    "baseFeeUpdateFraction": "0x32f0ed"
                },
                "Prague": {
                    "target": "0x06",
                    "max": "0x09",
                    "baseFeeUpdateFraction": "0x4c6964"
                },
                "Osaka": {
                    "target": "0x06",
                    "max": "0x09",
                    "baseFeeUpdateFraction": "0x4c6964"
                }
            },
            "chainid": "0x01"
        },
        "_info": {
            "hash": "0x994095d3cf4530299b2c0161f4ee82eca3881f8913c91381940d3be14deaa735",
            "comment": "`execution-spec-tests` generated test",
            "filling-transition-tool": "ethereum-spec-evm-resolver 0.0.5",
            "description": "No description available - add a docstring to the python test class or function.",
            "url": "",
            "fixture-format": "state_test",
            "eels-resolution": {
                "git-url": "https://github.com/marioevz/execution-specs.git",
                "branch": "forks/bpo1",
                "commit": "3387e5f4aedfe99becfdc39b444d6371e25e0924"
            }
        }
    },
    "tests/static/state_tests/stRandom/randomStatetest335Filler.json::randomStatetest335[fork_Prague-state_test-]": {
        "env": {
            "currentCoinbase": "0x5a70885ebcf6885346d3ad23e1748a4d6698daa6",
            "currentGasLimit": "0x7fffffffffffffff",
            "currentNumber": "0x01",
            "currentTimestamp": "0x03e8",
            "currentRandom": "0x0000000000000000000000000000000000000000000000000000000000020000",
            "currentDifficulty": "0x00",
            "currentBaseFee": "0x0a",
            "currentExcessBlobGas": "0x00"
        },
        "pre": {
            "0xfd321c0419c82e7ccabd50666136adfe6798bf6b": {
                "nonce": "0x00",
                "balance": "0x0de0b6b3a7640000",
                "code": "0x",
                "storage": {}
            },
            "0x5a70885ebcf6885346d3ad23e1748a4d6698daa6": {
                "nonce": "0x00",
                "balance": "0x2e",
                "code": "0x6000355415600957005b60203560003555",
                "storage": {}
            },
            "0x5a70885ebcf6885346d3ad23e1748a4d6698dba6": {
                "nonce": "0x00",
                "balance": "0x00",
                "code": "0x7ffffffffffffffffffffffffffffffffffffffffffffffffffffffffffffffffe7fffffffffffffffffffffffffffffffffffffffffffffffffffffffffffffffff7f000000000000000000000000ffffffffffffffffffffffffffffffffffffffff7f00000000000000000000000100000000000000000000000000000000000000007ffffffffffffffffffffffffffffffffffffffffffffffffffffffffffffffffe7f00000000000000000000000100000000000000000000000000000000000000007f000000000000000000000000ffffffffffffffffffffffffffffffffffffffff7f000000000000000000000000000000000000000000000000000000000000c350617e7608617c95f3ff584076e07b5a4460005155",
                "storage": {}
            }
        },
        "transaction": {
            "nonce": "0x00",
            "gasPrice": "0x0a",
            "gasLimit": [
                "0x0186a0"
            ],
            "to": "0x5a70885ebcf6885346d3ad23e1748a4d6698dba6",
            "value": [
                "0x626440c7"
            ],
            "data": [
                "0x7ffffffffffffffffffffffffffffffffffffffffffffffffffffffffffffffffe7fffffffffffffffffffffffffffffffffffffffffffffffffffffffffffffffff7f000000000000000000000000ffffffffffffffffffffffffffffffffffffffff7f00000000000000000000000100000000000000000000000000000000000000007ffffffffffffffffffffffffffffffffffffffffffffffffffffffffffffffffe7f00000000000000000000000100000000000000000000000000000000000000007f000000000000000000000000ffffffffffffffffffffffffffffffffffffffff7f000000000000000000000000000000000000000000000000000000000000c350617e7608617c95f3ff584076e07b5a44"
            ],
            "sender": "0xfd321c0419c82e7ccabd50666136adfe6798bf6b",
            "secretKey": "0x0b94f2e770ed4a7be1f12efd5a70885ebcf6885346d3ad23e1748a4d6698daa6"
        },
        "post": {
            "Prague": [
                {
                    "hash": "0xe776f81d32aa49d8a7cb2ad707df7a72b1e00a75bfb8389e79f6414c4006acc2",
                    "logs": "0x1dcc4de8dec75d7aab85b567b6ccd41ad312451b948a7413f0a142fd40d49347",
                    "txbytes": "0xf9017e800a830186a0945a70885ebcf6885346d3ad23e1748a4d6698dba684626440c7b901187ffffffffffffffffffffffffffffffffffffffffffffffffffffffffffffffffe7fffffffffffffffffffffffffffffffffffffffffffffffffffffffffffffffff7f000000000000000000000000ffffffffffffffffffffffffffffffffffffffff7f00000000000000000000000100000000000000000000000000000000000000007ffffffffffffffffffffffffffffffffffffffffffffffffffffffffffffffffe7f00000000000000000000000100000000000000000000000000000000000000007f000000000000000000000000ffffffffffffffffffffffffffffffffffffffff7f000000000000000000000000000000000000000000000000000000000000c350617e7608617c95f3ff584076e07b5a4425a05b9e3f8059643f879632873bb7fc7e0c9a7db003c3b413259ca664316cebb2c4a052212c1663a03669eb7f0b3cb71acecbcdb60c0a88dbf117fae2f2d7cc616cb1",
                    "indexes": {
                        "data": 0,
                        "gas": 0,
                        "value": 0
                    },
                    "state": {
                        "0xfd321c0419c82e7ccabd50666136adfe6798bf6b": {
                            "nonce": "0x01",
                            "balance": "0x0de0b6b344f6a16f",
                            "code": "0x",
                            "storage": {}
                        },
                        "0x5a70885ebcf6885346d3ad23e1748a4d6698daa6": {
                            "nonce": "0x00",
                            "balance": "0x2e",
                            "code": "0x6000355415600957005b60203560003555",
                            "storage": {}
                        },
                        "0x5a70885ebcf6885346d3ad23e1748a4d6698dba6": {
                            "nonce": "0x00",
                            "balance": "0x626440c7",
                            "code": "0x7ffffffffffffffffffffffffffffffffffffffffffffffffffffffffffffffffe7fffffffffffffffffffffffffffffffffffffffffffffffffffffffffffffffff7f000000000000000000000000ffffffffffffffffffffffffffffffffffffffff7f00000000000000000000000100000000000000000000000000000000000000007ffffffffffffffffffffffffffffffffffffffffffffffffffffffffffffffffe7f00000000000000000000000100000000000000000000000000000000000000007f000000000000000000000000ffffffffffffffffffffffffffffffffffffffff7f000000000000000000000000000000000000000000000000000000000000c350617e7608617c95f3ff584076e07b5a4460005155",
                            "storage": {}
                        }
                    }
                }
            ]
        },
        "config": {
            "blobSchedule": {
                "Cancun": {
                    "target": "0x03",
                    "max": "0x06",
                    "baseFeeUpdateFraction": "0x32f0ed"
                },
                "Prague": {
                    "target": "0x06",
                    "max": "0x09",
                    "baseFeeUpdateFraction": "0x4c6964"
                }
            },
            "chainid": "0x01"
        },
        "_info": {
            "hash": "0xaa824d396a23e9de7d9fe5529752148d96a3a4cf25beab5436b422bdd4df01bb",
            "comment": "`execution-spec-tests` generated test",
            "filling-transition-tool": "ethereum-spec-evm-resolver 0.0.5",
            "description": "No description available - add a docstring to the python test class or function.",
            "url": "",
            "fixture-format": "state_test",
            "eels-resolution": {
                "git-url": "https://github.com/marioevz/execution-specs.git",
                "branch": "forks/bpo1",
                "commit": "3387e5f4aedfe99becfdc39b444d6371e25e0924"
            }
        }
    }
}