{
    "tests/static/state_tests/stRandom/randomStatetest185Filler.json::randomStatetest185[fork_Cancun-state_test-]": {
        "env": {
            "currentCoinbase": "0xee6ec258b1697c6a357604c28de1eeeab22552e2",
            "currentGasLimit": "0x7fffffffffffffff",
            "currentNumber": "0x01",
            "currentTimestamp": "0x03e8",
            "currentRandom": "0x0000000000000000000000000000000000000000000000000000000000020000",
            "currentDifficulty": "0x00",
            "currentBaseFee": "0x0a",
            "currentExcessBlobGas": "0x00"
        },
        "pre": {
            "0x8453dc2ee7ed54328fe8743353e9a782e2da05bc": {
                "nonce": "0x00",
                "balance": "0x0de0b6b3a7640000",
                "code": "0x",
                "storage": {}
            },
            "0xee6ec258b1697c6a357604c28de1eeeab22552e2": {
                "nonce": "0x00",
                "balance": "0x2e",
                "code": "0x6000355415600957005b60203560003555",
                "storage": {}
            },
            "0xee6ec258b1697c6a357604c28de1eeeab22553e2": {
                "nonce": "0x00",
                "balance": "0x00",
                "code": "0x7f000000000000000000000000000000000000000000000000000000000000c3507f00000000000000000000000000000000000000000000000000000000000000007f000000000000000000000000ffffffffffffffffffffffffffffffffffffffff411a7f000000000000000000000000ffffffffffffffffffffffffffffffffffffffff7f000000000000000000000000ffffffffffffffffffffffffffffffffffffffff7f000000000000000000000000000000000000000000000000000000000000000162805a8d3aa3",
                "storage": {}
            }
        },
        "transaction": {
            "nonce": "0x00",
            "gasPrice": "0x0a",
            "gasLimit": [
                "0x6ab0d01f"
            ],
            "to": "0xee6ec258b1697c6a357604c28de1eeeab22553e2",
            "value": [
                "0x451cf342"
            ],
            "data": [
                "0x7f000000000000000000000000000000000000000000000000000000000000c3507f00000000000000000000000000000000000000000000000000000000000000007f000000000000000000000000ffffffffffffffffffffffffffffffffffffffff411a7f000000000000000000000000ffffffffffffffffffffffffffffffffffffffff7f000000000000000000000000ffffffffffffffffffffffffffffffffffffffff7f000000000000000000000000000000000000000000000000000000000000000162805a8d3aa3"
            ],
            "sender": "0x8453dc2ee7ed54328fe8743353e9a782e2da05bc",
            "secretKey": "0xb5af59177edc30f4ed0a578eee6ec258b1697c6a357604c28de1eeeab22552e2"
        },
        "post": {
            "Cancun": [
                {
                    "hash": "0x41b3fa36bd0042424183b811637ea4b06f222dbf422504db5dc6d853006cda29",
                    "logs": "0x21a7c7972bac8657175b588cfebe4619fb8ec00ead2ff100392653503807c9f3",
                    "txbytes": "0xf90134800a846ab0d01f94ee6ec258b1697c6a357604c28de1eeeab22553e284451cf342b8ce7f000000000000000000000000000000000000000000000000000000000000c3507f00000000000000000000000000000000000000000000000000000000000000007f000000000000000000000000ffffffffffffffffffffffffffffffffffffffff411a7f000000000000000000000000ffffffffffffffffffffffffffffffffffffffff7f000000000000000000000000ffffffffffffffffffffffffffffffffffffffff7f000000000000000000000000000000000000000000000000000000000000000162805a8d3aa325a04ed3502d61683271854dd5699e1a744c56bffab03de11606f68bf71e082b8ec6a067010432a0252309742384a14d40b801079ec226902d3325590de193c657e64d",
                    "indexes": {
                        "data": 0,
                        "gas": 0,
                        "value": 0
                    },
                    "state": {
                        "0x8453dc2ee7ed54328fe8743353e9a782e2da05bc": {
                            "nonce": "0x01",
                            "balance": "0x0de0b6b2e93d475c",
                            "code": "0x",
                            "storage": {}
                        },
                        "0xee6ec258b1697c6a357604c28de1eeeab22552e2": {
                            "nonce": "0x00",
                            "balance": "0x2e",
                            "code": "0x6000355415600957005b60203560003555",
                            "storage": {}
                        },
                        "0xee6ec258b1697c6a357604c28de1eeeab22553e2": {
                            "nonce": "0x00",
                            "balance": "0x451cf342",
                            "code": "0x7f000000000000000000000000000000000000000000000000000000000000c3507f00000000000000000000000000000000000000000000000000000000000000007f000000000000000000000000ffffffffffffffffffffffffffffffffffffffff411a7f000000000000000000000000ffffffffffffffffffffffffffffffffffffffff7f000000000000000000000000ffffffffffffffffffffffffffffffffffffffff7f000000000000000000000000000000000000000000000000000000000000000162805a8d3aa3",
                            "storage": {}
                        }
                    }
                }
            ]
        },
        "config": {
            "blobSchedule": {
                "Cancun": {
                    "target": "0x03",
                    "max": "0x06",
                    "baseFeeUpdateFraction": "0x32f0ed"
                }
            },
            "chainid": "0x01"
        },
        "_info": {
            "hash": "0xfb415c1ab4ad9dbff6effeb42e219c238cc081f701175b5592730c128b82dca6",
            "comment": "`execution-spec-tests` generated test",
            "filling-transition-tool": "ethereum-spec-evm-resolver 0.0.5",
            "description": "No description available - add a docstring to the python test class or function.",
            "url": "",
            "fixture-format": "state_test",
            "eels-resolution": {
                "git-url": "https://github.com/ethereum/execution-specs.git",
                "branch": "forks/bpos",
                "commit": "7aacb2c54111391af5e98c505d5010b5698a770f"
            }
        }
    },
    "tests/static/state_tests/stRandom/randomStatetest185Filler.json::randomStatetest185[fork_Prague-state_test-]": {
        "env": {
            "currentCoinbase": "0xee6ec258b1697c6a357604c28de1eeeab22552e2",
            "currentGasLimit": "0x7fffffffffffffff",
            "currentNumber": "0x01",
            "currentTimestamp": "0x03e8",
            "currentRandom": "0x0000000000000000000000000000000000000000000000000000000000020000",
            "currentDifficulty": "0x00",
            "currentBaseFee": "0x0a",
            "currentExcessBlobGas": "0x00"
        },
        "pre": {
            "0x8453dc2ee7ed54328fe8743353e9a782e2da05bc": {
                "nonce": "0x00",
                "balance": "0x0de0b6b3a7640000",
                "code": "0x",
                "storage": {}
            },
            "0xee6ec258b1697c6a357604c28de1eeeab22552e2": {
                "nonce": "0x00",
                "balance": "0x2e",
                "code": "0x6000355415600957005b60203560003555",
                "storage": {}
            },
            "0xee6ec258b1697c6a357604c28de1eeeab22553e2": {
                "nonce": "0x00",
                "balance": "0x00",
                "code": "0x7f000000000000000000000000000000000000000000000000000000000000c3507f00000000000000000000000000000000000000000000000000000000000000007f000000000000000000000000ffffffffffffffffffffffffffffffffffffffff411a7f000000000000000000000000ffffffffffffffffffffffffffffffffffffffff7f000000000000000000000000ffffffffffffffffffffffffffffffffffffffff7f000000000000000000000000000000000000000000000000000000000000000162805a8d3aa3",
                "storage": {}
            }
        },
        "transaction": {
            "nonce": "0x00",
            "gasPrice": "0x0a",
            "gasLimit": [
                "0x6ab0d01f"
            ],
            "to": "0xee6ec258b1697c6a357604c28de1eeeab22553e2",
            "value": [
                "0x451cf342"
            ],
            "data": [
                "0x7f000000000000000000000000000000000000000000000000000000000000c3507f00000000000000000000000000000000000000000000000000000000000000007f000000000000000000000000ffffffffffffffffffffffffffffffffffffffff411a7f000000000000000000000000ffffffffffffffffffffffffffffffffffffffff7f000000000000000000000000ffffffffffffffffffffffffffffffffffffffff7f000000000000000000000000000000000000000000000000000000000000000162805a8d3aa3"
            ],
            "sender": "0x8453dc2ee7ed54328fe8743353e9a782e2da05bc",
            "secretKey": "0xb5af59177edc30f4ed0a578eee6ec258b1697c6a357604c28de1eeeab22552e2"
        },
        "post": {
            "Prague": [
                {
                    "hash": "0x41b3fa36bd0042424183b811637ea4b06f222dbf422504db5dc6d853006cda29",
                    "logs": "0x21a7c7972bac8657175b588cfebe4619fb8ec00ead2ff100392653503807c9f3",
                    "txbytes": "0xf90134800a846ab0d01f94ee6ec258b1697c6a357604c28de1eeeab22553e284451cf342b8ce7f000000000000000000000000000000000000000000000000000000000000c3507f00000000000000000000000000000000000000000000000000000000000000007f000000000000000000000000ffffffffffffffffffffffffffffffffffffffff411a7f000000000000000000000000ffffffffffffffffffffffffffffffffffffffff7f000000000000000000000000ffffffffffffffffffffffffffffffffffffffff7f000000000000000000000000000000000000000000000000000000000000000162805a8d3aa325a04ed3502d61683271854dd5699e1a744c56bffab03de11606f68bf71e082b8ec6a067010432a0252309742384a14d40b801079ec226902d3325590de193c657e64d",
                    "indexes": {
                        "data": 0,
                        "gas": 0,
                        "value": 0
                    },
                    "state": {
                        "0x8453dc2ee7ed54328fe8743353e9a782e2da05bc": {
                            "nonce": "0x01",
                            "balance": "0x0de0b6b2e93d475c",
                            "code": "0x",
                            "storage": {}
                        },
                        "0xee6ec258b1697c6a357604c28de1eeeab22552e2": {
                            "nonce": "0x00",
                            "balance": "0x2e",
                            "code": "0x6000355415600957005b60203560003555",
                            "storage": {}
                        },
                        "0xee6ec258b1697c6a357604c28de1eeeab22553e2": {
                            "nonce": "0x00",
                            "balance": "0x451cf342",
                            "code": "0x7f000000000000000000000000000000000000000000000000000000000000c3507f00000000000000000000000000000000000000000000000000000000000000007f000000000000000000000000ffffffffffffffffffffffffffffffffffffffff411a7f000000000000000000000000ffffffffffffffffffffffffffffffffffffffff7f000000000000000000000000ffffffffffffffffffffffffffffffffffffffff7f000000000000000000000000000000000000000000000000000000000000000162805a8d3aa3",
                            "storage": {}
                        }
                    }
                }
            ]
        },
        "config": {
            "blobSchedule": {
                "Cancun": {
                    "target": "0x03",
                    "max": "0x06",
                    "baseFeeUpdateFraction": "0x32f0ed"
                },
                "Prague": {
                    "target": "0x06",
                    "max": "0x09",
                    "baseFeeUpdateFraction": "0x4c6964"
                }
            },
            "chainid": "0x01"
        },
        "_info": {
            "hash": "0x371850f4525cc729a9adfcfe4b1ea71357f306b8e5854008a3dfcc4c606a325f",
            "comment": "`execution-spec-tests` generated test",
            "filling-transition-tool": "ethereum-spec-evm-resolver 0.0.5",
            "description": "No description available - add a docstring to the python test class or function.",
            "url": "",
            "fixture-format": "state_test",
            "eels-resolution": {
                "git-url": "https://github.com/ethereum/execution-specs.git",
                "branch": "forks/bpos",
                "commit": "7aacb2c54111391af5e98c505d5010b5698a770f"
            }
        }
    }
}