{
    "tests/static/state_tests/stRandom/randomStatetest320Filler.json::randomStatetest320[fork_Cancun-state_test-]": {
        "env": {
            "currentCoinbase": "0x5282c357b9ebbef22ff00974db240a0d900556a1",
            "currentGasLimit": "0x7fffffffffffffff",
            "currentNumber": "0x01",
            "currentTimestamp": "0x03e8",
            "currentRandom": "0x0000000000000000000000000000000000000000000000000000000000020000",
            "currentDifficulty": "0x00",
            "currentBaseFee": "0x0a",
            "currentExcessBlobGas": "0x00"
        },
        "pre": {
            "0x306116a99d1f686e2d9335189e0d466b2b61de0f": {
                "nonce": "0x00",
                "balance": "0x0de0b6b3a7640000",
                "code": "0x",
                "storage": {}
            },
            "0x5282c357b9ebbef22ff00974db240a0d900556a1": {
                "nonce": "0x00",
                "balance": "0x2e",
                "code": "0x6000355415600957005b60203560003555",
                "storage": {}
            },
            "0x5282c357b9ebbef22ff00974db240a0d900557a1": {
                "nonce": "0x00",
                "balance": "0x00",
                "code": "0x7f00000000000000000000000100000000000000000000000000000000000000007f0000000000000000000000005282c357b9ebbef22ff00974db240a0d900556a17fffffffffffffffffffffffffffffffffffffffffffffffffffffffffffffffff45457f000000000000000000000000000000000000000000000000000000000000c3507f0000000000000000000000005282c357b9ebbef22ff00974db240a0d900556a17f000000000000000000000000000000000000000000000000000000000000c3505b0a36095511805131558f14fc3b",
                "storage": {}
            }
        },
        "transaction": {
            "nonce": "0x00",
            "gasPrice": "0x0a",
            "gasLimit": [
                "0x0186a0"
            ],
            "to": "0x5282c357b9ebbef22ff00974db240a0d900557a1",
            "value": [
                "0x31922948"
            ],
            "data": [
                "0x7f00000000000000000000000100000000000000000000000000000000000000007f0000000000000000000000005282c357b9ebbef22ff00974db240a0d900556a17fffffffffffffffffffffffffffffffffffffffffffffffffffffffffffffffff45457f000000000000000000000000000000000000000000000000000000000000c3507f0000000000000000000000005282c357b9ebbef22ff00974db240a0d900556a17f000000000000000000000000000000000000000000000000000000000000c3505b0a36095511805131558f14fc3b"
            ],
            "sender": "0x306116a99d1f686e2d9335189e0d466b2b61de0f",
            "secretKey": "0xa4ede4d928dd751ff9b1dd755282c357b9ebbef22ff00974db240a0d900556a1"
        },
        "post": {
            "Cancun": [
                {
                    "hash": "0xc361b89300e4f1d1f2b271fcf4fca9779d71df2cbe980a4aee25dbcef2ef6573",
                    "logs": "0x1dcc4de8dec75d7aab85b567b6ccd41ad312451b948a7413f0a142fd40d49347",
                    "txbytes": "0xf9013b800a830186a0945282c357b9ebbef22ff00974db240a0d900557a18431922948b8d67f00000000000000000000000100000000000000000000000000000000000000007f0000000000000000000000005282c357b9ebbef22ff00974db240a0d900556a17fffffffffffffffffffffffffffffffffffffffffffffffffffffffffffffffff45457f000000000000000000000000000000000000000000000000000000000000c3507f0000000000000000000000005282c357b9ebbef22ff00974db240a0d900556a17f000000000000000000000000000000000000000000000000000000000000c3505b0a36095511805131558f14fc3b26a0ef2a2cb2c97d443c1a8a6b2c63fc8b72918a8dce5af8a4c50f5ce6debf1d4699a006468c0c67433a06b9f34f1c63da36244027c36b8282bbe7c0c81b63b748703a",
                    "indexes": {
                        "data": 0,
                        "gas": 0,
                        "value": 0
                    },
                    "state": {
                        "0x306116a99d1f686e2d9335189e0d466b2b61de0f": {
                            "nonce": "0x01",
                            "balance": "0x0de0b6b3a754bdc0",
                            "code": "0x",
                            "storage": {}
                        },
                        "0x5282c357b9ebbef22ff00974db240a0d900556a1": {
                            "nonce": "0x00",
                            "balance": "0x2e",
                            "code": "0x6000355415600957005b60203560003555",
                            "storage": {}
                        },
                        "0x5282c357b9ebbef22ff00974db240a0d900557a1": {
                            "nonce": "0x00",
                            "balance": "0x00",
                            "code": "0x7f00000000000000000000000100000000000000000000000000000000000000007f0000000000000000000000005282c357b9ebbef22ff00974db240a0d900556a17fffffffffffffffffffffffffffffffffffffffffffffffffffffffffffffffff45457f000000000000000000000000000000000000000000000000000000000000c3507f0000000000000000000000005282c357b9ebbef22ff00974db240a0d900556a17f000000000000000000000000000000000000000000000000000000000000c3505b0a36095511805131558f14fc3b",
                            "storage": {}
                        }
                    }
                }
            ]
        },
        "config": {
            "blobSchedule": {
                "Cancun": {
                    "target": "0x03",
                    "max": "0x06",
                    "baseFeeUpdateFraction": "0x32f0ed"
                }
            },
            "chainid": "0x01"
        },
        "_info": {
            "hash": "0x79b6e6f3145866ebbe9536a66be8c85200a0f3d9e3b62d77210b016099cdca19",
            "comment": "`execution-spec-tests` generated test",
            "filling-transition-tool": "ethereum-spec-evm-resolver 0.0.5",
            "description": "No description available - add a docstring to the python test class or function.",
            "url": "",
            "fixture-format": "state_test",
            "eels-resolution": {
                "git-url": "https://github.com/ethereum/execution-specs.git",
                "branch": "forks/bpos",
                "commit": "7aacb2c54111391af5e98c505d5010b5698a770f"
            }
        }
    },
    "tests/static/state_tests/stRandom/randomStatetest320Filler.json::randomStatetest320[fork_Osaka-state_test-]": {
        "env": {
            "currentCoinbase": "0x5282c357b9ebbef22ff00974db240a0d900556a1",
            "currentGasLimit": "0x7fffffffffffffff",
            "currentNumber": "0x01",
            "currentTimestamp": "0x03e8",
            "currentRandom": "0x0000000000000000000000000000000000000000000000000000000000020000",
            "currentDifficulty": "0x00",
            "currentBaseFee": "0x0a",
            "currentExcessBlobGas": "0x00"
        },
        "pre": {
            "0x306116a99d1f686e2d9335189e0d466b2b61de0f": {
                "nonce": "0x00",
                "balance": "0x0de0b6b3a7640000",
                "code": "0x",
                "storage": {}
            },
            "0x5282c357b9ebbef22ff00974db240a0d900556a1": {
                "nonce": "0x00",
                "balance": "0x2e",
                "code": "0x6000355415600957005b60203560003555",
                "storage": {}
            },
            "0x5282c357b9ebbef22ff00974db240a0d900557a1": {
                "nonce": "0x00",
                "balance": "0x00",
                "code": "0x7f00000000000000000000000100000000000000000000000000000000000000007f0000000000000000000000005282c357b9ebbef22ff00974db240a0d900556a17fffffffffffffffffffffffffffffffffffffffffffffffffffffffffffffffff45457f000000000000000000000000000000000000000000000000000000000000c3507f0000000000000000000000005282c357b9ebbef22ff00974db240a0d900556a17f000000000000000000000000000000000000000000000000000000000000c3505b0a36095511805131558f14fc3b",
                "storage": {}
            }
        },
        "transaction": {
            "nonce": "0x00",
            "gasPrice": "0x0a",
            "gasLimit": [
                "0x0186a0"
            ],
            "to": "0x5282c357b9ebbef22ff00974db240a0d900557a1",
            "value": [
                "0x31922948"
            ],
            "data": [
                "0x7f00000000000000000000000100000000000000000000000000000000000000007f0000000000000000000000005282c357b9ebbef22ff00974db240a0d900556a17fffffffffffffffffffffffffffffffffffffffffffffffffffffffffffffffff45457f000000000000000000000000000000000000000000000000000000000000c3507f0000000000000000000000005282c357b9ebbef22ff00974db240a0d900556a17f000000000000000000000000000000000000000000000000000000000000c3505b0a36095511805131558f14fc3b"
            ],
            "sender": "0x306116a99d1f686e2d9335189e0d466b2b61de0f",
            "secretKey": "0xa4ede4d928dd751ff9b1dd755282c357b9ebbef22ff00974db240a0d900556a1"
        },
        "post": {
            "Osaka": [
                {
                    "hash": "0xc361b89300e4f1d1f2b271fcf4fca9779d71df2cbe980a4aee25dbcef2ef6573",
                    "logs": "0x1dcc4de8dec75d7aab85b567b6ccd41ad312451b948a7413f0a142fd40d49347",
                    "txbytes": "0xf9013b800a830186a0945282c357b9ebbef22ff00974db240a0d900557a18431922948b8d67f00000000000000000000000100000000000000000000000000000000000000007f0000000000000000000000005282c357b9ebbef22ff00974db240a0d900556a17fffffffffffffffffffffffffffffffffffffffffffffffffffffffffffffffff45457f000000000000000000000000000000000000000000000000000000000000c3507f0000000000000000000000005282c357b9ebbef22ff00974db240a0d900556a17f000000000000000000000000000000000000000000000000000000000000c3505b0a36095511805131558f14fc3b26a0ef2a2cb2c97d443c1a8a6b2c63fc8b72918a8dce5af8a4c50f5ce6debf1d4699a006468c0c67433a06b9f34f1c63da36244027c36b8282bbe7c0c81b63b748703a",
                    "indexes": {
                        "data": 0,
                        "gas": 0,
                        "value": 0
                    },
                    "state": {
                        "0x306116a99d1f686e2d9335189e0d466b2b61de0f": {
                            "nonce": "0x01",
                            "balance": "0x0de0b6b3a754bdc0",
                            "code": "0x",
                            "storage": {}
                        },
                        "0x5282c357b9ebbef22ff00974db240a0d900556a1": {
                            "nonce": "0x00",
                            "balance": "0x2e",
                            "code": "0x6000355415600957005b60203560003555",
                            "storage": {}
                        },
                        "0x5282c357b9ebbef22ff00974db240a0d900557a1": {
                            "nonce": "0x00",
                            "balance": "0x00",
                            "code": "0x7f00000000000000000000000100000000000000000000000000000000000000007f0000000000000000000000005282c357b9ebbef22ff00974db240a0d900556a17fffffffffffffffffffffffffffffffffffffffffffffffffffffffffffffffff45457f000000000000000000000000000000000000000000000000000000000000c3507f0000000000000000000000005282c357b9ebbef22ff00974db240a0d900556a17f000000000000000000000000000000000000000000000000000000000000c3505b0a36095511805131558f14fc3b",
                            "storage": {}
                        }
                    }
                }
            ]
        },
        "config": {
            "blobSchedule": {
                "Cancun": {
                    "target": "0x03",
                    "max": "0x06",
                    "baseFeeUpdateFraction": "0x32f0ed"
                },
                "Prague": {
                    "target": "0x06",
                    "max": "0x09",
                    "baseFeeUpdateFraction": "0x4c6964"
                },
                "Osaka": {
                    "target": "0x06",
                    "max": "0x09",
                    "baseFeeUpdateFraction": "0x4c6964"
                }
            },
            "chainid": "0x01"
        },
        "_info": {
            "hash": "0x9568c4d9928db041979887848c7ac91f88a0ad0b78d782e1e65f9cf5faa0ac74",
            "comment": "`execution-spec-tests` generated test",
            "filling-transition-tool": "ethereum-spec-evm-resolver 0.0.5",
            "description": "No description available - add a docstring to the python test class or function.",
            "url": "",
            "fixture-format": "state_test",
            "eels-resolution": {
                "git-url": "https://github.com/ethereum/execution-specs.git",
                "branch": "forks/bpos",
                "commit": "7aacb2c54111391af5e98c505d5010b5698a770f"
            }
        }
    },
    "tests/static/state_tests/stRandom/randomStatetest320Filler.json::randomStatetest320[fork_Prague-state_test-]": {
        "env": {
            "currentCoinbase": "0x5282c357b9ebbef22ff00974db240a0d900556a1",
            "currentGasLimit": "0x7fffffffffffffff",
            "currentNumber": "0x01",
            "currentTimestamp": "0x03e8",
            "currentRandom": "0x0000000000000000000000000000000000000000000000000000000000020000",
            "currentDifficulty": "0x00",
            "currentBaseFee": "0x0a",
            "currentExcessBlobGas": "0x00"
        },
        "pre": {
            "0x306116a99d1f686e2d9335189e0d466b2b61de0f": {
                "nonce": "0x00",
                "balance": "0x0de0b6b3a7640000",
                "code": "0x",
                "storage": {}
            },
            "0x5282c357b9ebbef22ff00974db240a0d900556a1": {
                "nonce": "0x00",
                "balance": "0x2e",
                "code": "0x6000355415600957005b60203560003555",
                "storage": {}
            },
            "0x5282c357b9ebbef22ff00974db240a0d900557a1": {
                "nonce": "0x00",
                "balance": "0x00",
                "code": "0x7f00000000000000000000000100000000000000000000000000000000000000007f0000000000000000000000005282c357b9ebbef22ff00974db240a0d900556a17fffffffffffffffffffffffffffffffffffffffffffffffffffffffffffffffff45457f000000000000000000000000000000000000000000000000000000000000c3507f0000000000000000000000005282c357b9ebbef22ff00974db240a0d900556a17f000000000000000000000000000000000000000000000000000000000000c3505b0a36095511805131558f14fc3b",
                "storage": {}
            }
        },
        "transaction": {
            "nonce": "0x00",
            "gasPrice": "0x0a",
            "gasLimit": [
                "0x0186a0"
            ],
            "to": "0x5282c357b9ebbef22ff00974db240a0d900557a1",
            "value": [
                "0x31922948"
            ],
            "data": [
                "0x7f00000000000000000000000100000000000000000000000000000000000000007f0000000000000000000000005282c357b9ebbef22ff00974db240a0d900556a17fffffffffffffffffffffffffffffffffffffffffffffffffffffffffffffffff45457f000000000000000000000000000000000000000000000000000000000000c3507f0000000000000000000000005282c357b9ebbef22ff00974db240a0d900556a17f000000000000000000000000000000000000000000000000000000000000c3505b0a36095511805131558f14fc3b"
            ],
            "sender": "0x306116a99d1f686e2d9335189e0d466b2b61de0f",
            "secretKey": "0xa4ede4d928dd751ff9b1dd755282c357b9ebbef22ff00974db240a0d900556a1"
        },
        "post": {
            "Prague": [
                {
                    "hash": "0xc361b89300e4f1d1f2b271fcf4fca9779d71df2cbe980a4aee25dbcef2ef6573",
                    "logs": "0x1dcc4de8dec75d7aab85b567b6ccd41ad312451b948a7413f0a142fd40d49347",
                    "txbytes": "0xf9013b800a830186a0945282c357b9ebbef22ff00974db240a0d900557a18431922948b8d67f00000000000000000000000100000000000000000000000000000000000000007f0000000000000000000000005282c357b9ebbef22ff00974db240a0d900556a17fffffffffffffffffffffffffffffffffffffffffffffffffffffffffffffffff45457f000000000000000000000000000000000000000000000000000000000000c3507f0000000000000000000000005282c357b9ebbef22ff00974db240a0d900556a17f000000000000000000000000000000000000000000000000000000000000c3505b0a36095511805131558f14fc3b26a0ef2a2cb2c97d443c1a8a6b2c63fc8b72918a8dce5af8a4c50f5ce6debf1d4699a006468c0c67433a06b9f34f1c63da36244027c36b8282bbe7c0c81b63b748703a",
                    "indexes": {
                        "data": 0,
                        "gas": 0,
                        "value": 0
                    },
                    "state": {
                        "0x306116a99d1f686e2d9335189e0d466b2b61de0f": {
                            "nonce": "0x01",
                            "balance": "0x0de0b6b3a754bdc0",
                            "code": "0x",
                            "storage": {}
                        },
                        "0x5282c357b9ebbef22ff00974db240a0d900556a1": {
                            "nonce": "0x00",
                            "balance": "0x2e",
                            "code": "0x6000355415600957005b60203560003555",
                            "storage": {}
                        },
                        "0x5282c357b9ebbef22ff00974db240a0d900557a1": {
                            "nonce": "0x00",
                            "balance": "0x00",
                            "code": "0x7f00000000000000000000000100000000000000000000000000000000000000007f0000000000000000000000005282c357b9ebbef22ff00974db240a0d900556a17fffffffffffffffffffffffffffffffffffffffffffffffffffffffffffffffff45457f000000000000000000000000000000000000000000000000000000000000c3507f0000000000000000000000005282c357b9ebbef22ff00974db240a0d900556a17f000000000000000000000000000000000000000000000000000000000000c3505b0a36095511805131558f14fc3b",
                            "storage": {}
                        }
                    }
                }
            ]
        },
        "config": {
            "blobSchedule": {
                "Cancun": {
                    "target": "0x03",
                    "max": "0x06",
                    "baseFeeUpdateFraction": "0x32f0ed"
                },
                "Prague": {
                    "target": "0x06",
                    "max": "0x09",
                    "baseFeeUpdateFraction": "0x4c6964"
                }
            },
            "chainid": "0x01"
        },
        "_info": {
            "hash": "0xcf4c435e84abd65c11313ce180a0d0e77c1d0a7bf12537598f9f6fd8f5eb9084",
            "comment": "`execution-spec-tests` generated test",
            "filling-transition-tool": "ethereum-spec-evm-resolver 0.0.5",
            "description": "No description available - add a docstring to the python test class or function.",
            "url": "",
            "fixture-format": "state_test",
            "eels-resolution": {
                "git-url": "https://github.com/ethereum/execution-specs.git",
                "branch": "forks/bpos",
                "commit": "7aacb2c54111391af5e98c505d5010b5698a770f"
            }
        }
    }
}