{
    "tests/static/state_tests/stRandom/randomStatetest254Filler.json::randomStatetest254[fork_Cancun-state_test-]": {
        "env": {
            "currentCoinbase": "0xaa37e56eaf475d07c85c1003935ee1b773a6395a",
            "currentGasLimit": "0x7fffffffffffffff",
            "currentNumber": "0x01",
            "currentTimestamp": "0x03e8",
            "currentRandom": "0x0000000000000000000000000000000000000000000000000000000000020000",
            "currentDifficulty": "0x00",
            "currentBaseFee": "0x0a",
            "currentExcessBlobGas": "0x00"
        },
        "pre": {
            "0xd3fc655c9fcd3173fc5cea980232de16a928c99e": {
                "nonce": "0x00",
                "balance": "0x0de0b6b3a7640000",
                "code": "0x",
                "storage": {}
            },
            "0xaa37e56eaf475d07c85c1003935ee1b773a6395a": {
                "nonce": "0x00",
                "balance": "0x2e",
                "code": "0x6000355415600957005b60203560003555",
                "storage": {}
            },
            "0xaa37e56eaf475d07c85c1003935ee1b773a63a5a": {
                "nonce": "0x00",
                "balance": "0x00",
                "code": "0x7f000000000000000000000001000000000000000000000000000000000000000041417f0000000000000000000000000000000000000000000000000000000000000001447fffffffffffffffffffffffffffffffffffffffffffffffffffffffffffffffff7ffffffffffffffffffffffffffffffffffffffffffffffffffffffffffffffffe7f000000000000000000000000000000000000000000000000000000000000c3506f059b6b83f294740688598c52195a925560005155",
                "storage": {}
            }
        },
        "transaction": {
            "nonce": "0x00",
            "gasPrice": "0x0a",
            "gasLimit": [
                "0x0186a0"
            ],
            "to": "0xaa37e56eaf475d07c85c1003935ee1b773a63a5a",
            "value": [
                "0x5c13c2ff"
            ],
            "data": [
                "0x7f000000000000000000000001000000000000000000000000000000000000000041417f0000000000000000000000000000000000000000000000000000000000000001447fffffffffffffffffffffffffffffffffffffffffffffffffffffffffffffffff7ffffffffffffffffffffffffffffffffffffffffffffffffffffffffffffffffe7f000000000000000000000000000000000000000000000000000000000000c3506f059b6b83f294740688598c52195a92"
            ],
            "sender": "0xd3fc655c9fcd3173fc5cea980232de16a928c99e",
            "secretKey": "0xf76be83dbe129fc5c8607e55aa37e56eaf475d07c85c1003935ee1b773a6395a"
        },
        "post": {
            "Cancun": [
                {
                    "hash": "0x8306f5a1f16dc69997f2e3cfc1db96a66170eb7b2e569ef10dbd32017cc7ed14",
                    "logs": "0x1dcc4de8dec75d7aab85b567b6ccd41ad312451b948a7413f0a142fd40d49347",
                    "txbytes": "0xf9011d800a830186a094aa37e56eaf475d07c85c1003935ee1b773a63a5a845c13c2ffb8b87f000000000000000000000001000000000000000000000000000000000000000041417f0000000000000000000000000000000000000000000000000000000000000001447fffffffffffffffffffffffffffffffffffffffffffffffffffffffffffffffff7ffffffffffffffffffffffffffffffffffffffffffffffffffffffffffffffffe7f000000000000000000000000000000000000000000000000000000000000c3506f059b6b83f294740688598c52195a9226a047715ea60bd6d5a30a305da95463726368c074767bdb3b044398d96e2d725e97a05e4a91fac9a8debead7a6c15de891734b42e8fd26c08c55d4e06d1771751b3f5",
                    "indexes": {
                        "data": 0,
                        "gas": 0,
                        "value": 0
                    },
                    "state": {
                        "0xd3fc655c9fcd3173fc5cea980232de16a928c99e": {
                            "nonce": "0x01",
                            "balance": "0x0de0b6b34b49603f",
                            "code": "0x",
                            "storage": {}
                        },
                        "0xaa37e56eaf475d07c85c1003935ee1b773a6395a": {
                            "nonce": "0x00",
                            "balance": "0x2e",
                            "code": "0x6000355415600957005b60203560003555",
                            "storage": {}
                        },
                        "0xaa37e56eaf475d07c85c1003935ee1b773a63a5a": {
                            "nonce": "0x00",
                            "balance": "0x5c13c2ff",
                            "code": "0x7f000000000000000000000001000000000000000000000000000000000000000041417f0000000000000000000000000000000000000000000000000000000000000001447fffffffffffffffffffffffffffffffffffffffffffffffffffffffffffffffff7ffffffffffffffffffffffffffffffffffffffffffffffffffffffffffffffffe7f000000000000000000000000000000000000000000000000000000000000c3506f059b6b83f294740688598c52195a925560005155",
                            "storage": {
                                "0x00": "0x059b6b83f294740688598c52195a9255"
                            }
                        }
                    }
                }
            ]
        },
        "config": {
            "blobSchedule": {
                "Cancun": {
                    "target": "0x03",
                    "max": "0x06",
                    "baseFeeUpdateFraction": "0x32f0ed"
                }
            },
            "chainid": "0x01"
        },
        "_info": {
            "hash": "0x2daee780026c5701d97a70bbb0a7acf84d818af3c364505d837bb731cc24defc",
            "comment": "`execution-spec-tests` generated test",
            "filling-transition-tool": "ethereum-spec-evm-resolver 0.0.5",
            "description": "No description available - add a docstring to the python test class or function.",
            "url": "",
            "fixture-format": "state_test",
            "eels-resolution": {
                "git-url": "https://github.com/marioevz/execution-specs.git",
                "branch": "forks/bpo1",
                "commit": "3387e5f4aedfe99becfdc39b444d6371e25e0924"
            }
        }
    },
    "tests/static/state_tests/stRandom/randomStatetest254Filler.json::randomStatetest254[fork_Osaka-state_test-]": {
        "env": {
            "currentCoinbase": "0xaa37e56eaf475d07c85c1003935ee1b773a6395a",
            "currentGasLimit": "0x7fffffffffffffff",
            "currentNumber": "0x01",
            "currentTimestamp": "0x03e8",
            "currentRandom": "0x0000000000000000000000000000000000000000000000000000000000020000",
            "currentDifficulty": "0x00",
            "currentBaseFee": "0x0a",
            "currentExcessBlobGas": "0x00"
        },
        "pre": {
            "0xd3fc655c9fcd3173fc5cea980232de16a928c99e": {
                "nonce": "0x00",
                "balance": "0x0de0b6b3a7640000",
                "code": "0x",
                "storage": {}
            },
            "0xaa37e56eaf475d07c85c1003935ee1b773a6395a": {
                "nonce": "0x00",
                "balance": "0x2e",
                "code": "0x6000355415600957005b60203560003555",
                "storage": {}
            },
            "0xaa37e56eaf475d07c85c1003935ee1b773a63a5a": {
                "nonce": "0x00",
                "balance": "0x00",
                "code": "0x7f000000000000000000000001000000000000000000000000000000000000000041417f0000000000000000000000000000000000000000000000000000000000000001447fffffffffffffffffffffffffffffffffffffffffffffffffffffffffffffffff7ffffffffffffffffffffffffffffffffffffffffffffffffffffffffffffffffe7f000000000000000000000000000000000000000000000000000000000000c3506f059b6b83f294740688598c52195a925560005155",
                "storage": {}
            }
        },
        "transaction": {
            "nonce": "0x00",
            "gasPrice": "0x0a",
            "gasLimit": [
                "0x0186a0"
            ],
            "to": "0xaa37e56eaf475d07c85c1003935ee1b773a63a5a",
            "value": [
                "0x5c13c2ff"
            ],
            "data": [
                "0x7f000000000000000000000001000000000000000000000000000000000000000041417f0000000000000000000000000000000000000000000000000000000000000001447fffffffffffffffffffffffffffffffffffffffffffffffffffffffffffffffff7ffffffffffffffffffffffffffffffffffffffffffffffffffffffffffffffffe7f000000000000000000000000000000000000000000000000000000000000c3506f059b6b83f294740688598c52195a92"
            ],
            "sender": "0xd3fc655c9fcd3173fc5cea980232de16a928c99e",
            "secretKey": "0xf76be83dbe129fc5c8607e55aa37e56eaf475d07c85c1003935ee1b773a6395a"
        },
        "post": {
            "Osaka": [
                {
                    "hash": "0x8306f5a1f16dc69997f2e3cfc1db96a66170eb7b2e569ef10dbd32017cc7ed14",
                    "logs": "0x1dcc4de8dec75d7aab85b567b6ccd41ad312451b948a7413f0a142fd40d49347",
                    "txbytes": "0xf9011d800a830186a094aa37e56eaf475d07c85c1003935ee1b773a63a5a845c13c2ffb8b87f000000000000000000000001000000000000000000000000000000000000000041417f0000000000000000000000000000000000000000000000000000000000000001447fffffffffffffffffffffffffffffffffffffffffffffffffffffffffffffffff7ffffffffffffffffffffffffffffffffffffffffffffffffffffffffffffffffe7f000000000000000000000000000000000000000000000000000000000000c3506f059b6b83f294740688598c52195a9226a047715ea60bd6d5a30a305da95463726368c074767bdb3b044398d96e2d725e97a05e4a91fac9a8debead7a6c15de891734b42e8fd26c08c55d4e06d1771751b3f5",
                    "indexes": {
                        "data": 0,
                        "gas": 0,
                        "value": 0
                    },
                    "state": {
                        "0xd3fc655c9fcd3173fc5cea980232de16a928c99e": {
                            "nonce": "0x01",
                            "balance": "0x0de0b6b34b49603f",
                            "code": "0x",
                            "storage": {}
                        },
                        "0xaa37e56eaf475d07c85c1003935ee1b773a6395a": {
                            "nonce": "0x00",
                            "balance": "0x2e",
                            "code": "0x6000355415600957005b60203560003555",
                            "storage": {}
                        },
                        "0xaa37e56eaf475d07c85c1003935ee1b773a63a5a": {
                            "nonce": "0x00",
                            "balance": "0x5c13c2ff",
                            "code": "0x7f000000000000000000000001000000000000000000000000000000000000000041417f0000000000000000000000000000000000000000000000000000000000000001447fffffffffffffffffffffffffffffffffffffffffffffffffffffffffffffffff7ffffffffffffffffffffffffffffffffffffffffffffffffffffffffffffffffe7f000000000000000000000000000000000000000000000000000000000000c3506f059b6b83f294740688598c52195a925560005155",
                            "storage": {
                                "0x00": "0x059b6b83f294740688598c52195a9255"
                            }
                        }
                    }
                }
            ]
        },
        "config": {
            "blobSchedule": {
                "Cancun": {
                    "target": "0x03",
                    "max": "0x06",
                    "baseFeeUpdateFraction": "0x32f0ed"
                },
                "Prague": {
                    "target": "0x06",
                    "max": "0x09",
                    "baseFeeUpdateFraction": "0x4c6964"
                },
                "Osaka": {
                    "target": "0x06",
                    "max": "0x09",
                    "baseFeeUpdateFraction": "0x4c6964"
                }
            },
            "chainid": "0x01"
        },
        "_info": {
            "hash": "0x6ea01b18ae5cb6d67132bf165a33218341aa91ff1368a7729f286276a9b28aa7",
            "comment": "`execution-spec-tests` generated test",
            "filling-transition-tool": "ethereum-spec-evm-resolver 0.0.5",
            "description": "No description available - add a docstring to the python test class or function.",
            "url": "",
            "fixture-format": "state_test",
            "eels-resolution": {
                "git-url": "https://github.com/marioevz/execution-specs.git",
                "branch": "forks/bpo1",
                "commit": "3387e5f4aedfe99becfdc39b444d6371e25e0924"
            }
        }
    },
    "tests/static/state_tests/stRandom/randomStatetest254Filler.json::randomStatetest254[fork_Prague-state_test-]": {
        "env": {
            "currentCoinbase": "0xaa37e56eaf475d07c85c1003935ee1b773a6395a",
            "currentGasLimit": "0x7fffffffffffffff",
            "currentNumber": "0x01",
            "currentTimestamp": "0x03e8",
            "currentRandom": "0x0000000000000000000000000000000000000000000000000000000000020000",
            "currentDifficulty": "0x00",
            "currentBaseFee": "0x0a",
            "currentExcessBlobGas": "0x00"
        },
        "pre": {
            "0xd3fc655c9fcd3173fc5cea980232de16a928c99e": {
                "nonce": "0x00",
                "balance": "0x0de0b6b3a7640000",
                "code": "0x",
                "storage": {}
            },
            "0xaa37e56eaf475d07c85c1003935ee1b773a6395a": {
                "nonce": "0x00",
                "balance": "0x2e",
                "code": "0x6000355415600957005b60203560003555",
                "storage": {}
            },
            "0xaa37e56eaf475d07c85c1003935ee1b773a63a5a": {
                "nonce": "0x00",
                "balance": "0x00",
                "code": "0x7f000000000000000000000001000000000000000000000000000000000000000041417f0000000000000000000000000000000000000000000000000000000000000001447fffffffffffffffffffffffffffffffffffffffffffffffffffffffffffffffff7ffffffffffffffffffffffffffffffffffffffffffffffffffffffffffffffffe7f000000000000000000000000000000000000000000000000000000000000c3506f059b6b83f294740688598c52195a925560005155",
                "storage": {}
            }
        },
        "transaction": {
            "nonce": "0x00",
            "gasPrice": "0x0a",
            "gasLimit": [
                "0x0186a0"
            ],
            "to": "0xaa37e56eaf475d07c85c1003935ee1b773a63a5a",
            "value": [
                "0x5c13c2ff"
            ],
            "data": [
                "0x7f000000000000000000000001000000000000000000000000000000000000000041417f0000000000000000000000000000000000000000000000000000000000000001447fffffffffffffffffffffffffffffffffffffffffffffffffffffffffffffffff7ffffffffffffffffffffffffffffffffffffffffffffffffffffffffffffffffe7f000000000000000000000000000000000000000000000000000000000000c3506f059b6b83f294740688598c52195a92"
            ],
            "sender": "0xd3fc655c9fcd3173fc5cea980232de16a928c99e",
            "secretKey": "0xf76be83dbe129fc5c8607e55aa37e56eaf475d07c85c1003935ee1b773a6395a"
        },
        "post": {
            "Prague": [
                {
                    "hash": "0x8306f5a1f16dc69997f2e3cfc1db96a66170eb7b2e569ef10dbd32017cc7ed14",
                    "logs": "0x1dcc4de8dec75d7aab85b567b6ccd41ad312451b948a7413f0a142fd40d49347",
                    "txbytes": "0xf9011d800a830186a094aa37e56eaf475d07c85c1003935ee1b773a63a5a845c13c2ffb8b87f000000000000000000000001000000000000000000000000000000000000000041417f0000000000000000000000000000000000000000000000000000000000000001447fffffffffffffffffffffffffffffffffffffffffffffffffffffffffffffffff7ffffffffffffffffffffffffffffffffffffffffffffffffffffffffffffffffe7f000000000000000000000000000000000000000000000000000000000000c3506f059b6b83f294740688598c52195a9226a047715ea60bd6d5a30a305da95463726368c074767bdb3b044398d96e2d725e97a05e4a91fac9a8debead7a6c15de891734b42e8fd26c08c55d4e06d1771751b3f5",
                    "indexes": {
                        "data": 0,
                        "gas": 0,
                        "value": 0
                    },
                    "state": {
                        "0xd3fc655c9fcd3173fc5cea980232de16a928c99e": {
                            "nonce": "0x01",
                            "balance": "0x0de0b6b34b49603f",
                            "code": "0x",
                            "storage": {}
                        },
                        "0xaa37e56eaf475d07c85c1003935ee1b773a6395a": {
                            "nonce": "0x00",
                            "balance": "0x2e",
                            "code": "0x6000355415600957005b60203560003555",
                            "storage": {}
                        },
                        "0xaa37e56eaf475d07c85c1003935ee1b773a63a5a": {
                            "nonce": "0x00",
                            "balance": "0x5c13c2ff",
                            "code": "0x7f000000000000000000000001000000000000000000000000000000000000000041417f0000000000000000000000000000000000000000000000000000000000000001447fffffffffffffffffffffffffffffffffffffffffffffffffffffffffffffffff7ffffffffffffffffffffffffffffffffffffffffffffffffffffffffffffffffe7f000000000000000000000000000000000000000000000000000000000000c3506f059b6b83f294740688598c52195a925560005155",
                            "storage": {
                                "0x00": "0x059b6b83f294740688598c52195a9255"
                            }
                        }
                    }
                }
            ]
        },
        "config": {
            "blobSchedule": {
                "Cancun": {
                    "target": "0x03",
                    "max": "0x06",
                    "baseFeeUpdateFraction": "0x32f0ed"
                },
                "Prague": {
                    "target": "0x06",
                    "max": "0x09",
                    "baseFeeUpdateFraction": "0x4c6964"
                }
            },
            "chainid": "0x01"
        },
        "_info": {
            "hash": "0x2bb6a388c2d3978580cf759e2ef828a5c5ad8e6989b174e52ea1f2724a4eb708",
            "comment": "`execution-spec-tests` generated test",
            "filling-transition-tool": "ethereum-spec-evm-resolver 0.0.5",
            "description": "No description available - add a docstring to the python test class or function.",
            "url": "",
            "fixture-format": "state_test",
            "eels-resolution": {
                "git-url": "https://github.com/marioevz/execution-specs.git",
                "branch": "forks/bpo1",
                "commit": "3387e5f4aedfe99becfdc39b444d6371e25e0924"
            }
        }
    }
}