{
    "tests/frontier/opcodes/test_data_copy_oog.py::test_calldatacopy_word_copy_oog[fork_Paris-blockchain_test_from_state_test-insufficient_gas_for_word_copy_cost]": {
        "network": "Paris",
        "genesisBlockHeader": {
            "parentHash": "0x0000000000000000000000000000000000000000000000000000000000000000",
            "uncleHash": "0x1dcc4de8dec75d7aab85b567b6ccd41ad312451b948a7413f0a142fd40d49347",
            "coinbase": "0x0000000000000000000000000000000000000000",
            "stateRoot": "0xf320de0b1a33a03bc90cdb919c213f2f1289af729495d33df6c494964e2b09bd",
            "transactionsTrie": "0x56e81f171bcc55a6ff8345e692c0f86e5b48e01b996cadc001622fb5e363b421",
            "receiptTrie": "0x56e81f171bcc55a6ff8345e692c0f86e5b48e01b996cadc001622fb5e363b421",
            "bloom": "0x00000000000000000000000000000000000000000000000000000000000000000000000000000000000000000000000000000000000000000000000000000000000000000000000000000000000000000000000000000000000000000000000000000000000000000000000000000000000000000000000000000000000000000000000000000000000000000000000000000000000000000000000000000000000000000000000000000000000000000000000000000000000000000000000000000000000000000000000000000000000000000000000000000000000000000000000000000000000000000000000000000000000000000000000000000000",
            "difficulty": "0x00",
            "number": "0x00",
            "gasLimit": "0x07270e00",
            "gasUsed": "0x00",
            "timestamp": "0x00",
            "extraData": "0x00",
            "mixHash": "0x0000000000000000000000000000000000000000000000000000000000000000",
            "nonce": "0x0000000000000000",
            "baseFeePerGas": "0x07",
            "hash": "0x081a27d96d608ee929adaebcaabb0ae8872c205cf52b0266f062658a4f5960f6"
        },
        "pre": {
            "0x9391dd74eafa32eabba5e2d6090e5521539a8e65": {
                "nonce": "0x01",
                "balance": "0x00",
                "code": "0x60006103e0526104006000600037600160005360016000f3",
                "storage": {}
            },
            "0x6cd5e9e755859f499da97532479e721a480bbe7d": {
                "nonce": "0x01",
                "balance": "0x00",
                "code": "0x60016000600060006000739391dd74eafa32eabba5e2d6090e5521539a8e656096f160005500",
                "storage": {}
            },
            "0x1ad9bc24818784172ff393bb6f89f094d4d2ca29": {
                "nonce": "0x00",
                "balance": "0x3635c9adc5dea00000",
                "code": "0x",
                "storage": {}
            }
        },
        "postState": {
            "0x9391dd74eafa32eabba5e2d6090e5521539a8e65": {
                "nonce": "0x01",
                "balance": "0x00",
                "code": "0x60006103e0526104006000600037600160005360016000f3",
                "storage": {}
            },
            "0x6cd5e9e755859f499da97532479e721a480bbe7d": {
                "nonce": "0x01",
                "balance": "0x00",
                "code": "0x60016000600060006000739391dd74eafa32eabba5e2d6090e5521539a8e656096f160005500",
                "storage": {}
            },
            "0x1ad9bc24818784172ff393bb6f89f094d4d2ca29": {
                "nonce": "0x01",
                "balance": "0x3635c9adc5de9c0946",
                "code": "0x",
                "storage": {}
            },
            "0x2adc25665018aa1fe0e6bc666dac8fc2697ff9ba": {
                "nonce": "0x00",
                "balance": "0x01306b",
                "code": "0x",
                "storage": {}
            }
        },
        "lastblockhash": "0x54b41adf7f2a5d50c0314982442d4fa7113ee49bf0d418180cac556f7f31fdbd",
        "config": {
            "network": "Paris",
            "chainid": "0x01"
        },
        "genesisRLP": "0xf901f7f901f2a00000000000000000000000000000000000000000000000000000000000000000a01dcc4de8dec75d7aab85b567b6ccd41ad312451b948a7413f0a142fd40d49347940000000000000000000000000000000000000000a0f320de0b1a33a03bc90cdb919c213f2f1289af729495d33df6c494964e2b09bda056e81f171bcc55a6ff8345e692c0f86e5b48e01b996cadc001622fb5e363b421a056e81f171bcc55a6ff8345e692c0f86e5b48e01b996cadc001622fb5e363b421b901000000000000000000000000000000000000000000000000000000000000000000000000000000000000000000000000000000000000000000000000000000000000000000000000000000000000000000000000000000000000000000000000000000000000000000000000000000000000000000000000000000000000000000000000000000000000000000000000000000000000000000000000000000000000000000000000000000000000000000000000000000000000000000000000000000000000000000000000000000000000000000000000000000000000000000000000000000000000000000000000000000000000000000000000000000000080808407270e00808000a0000000000000000000000000000000000000000000000000000000000000000088000000000000000007c0c0",
        "blocks": [
            {
                "blockHeader": {
                    "parentHash": "0x081a27d96d608ee929adaebcaabb0ae8872c205cf52b0266f062658a4f5960f6",
                    "uncleHash": "0x1dcc4de8dec75d7aab85b567b6ccd41ad312451b948a7413f0a142fd40d49347",
                    "coinbase": "0x2adc25665018aa1fe0e6bc666dac8fc2697ff9ba",
                    "stateRoot": "0x2d47d8b381f325d0d323e881c22500b17158ccb5bfc1dca19201bfcd8f6064be",
                    "transactionsTrie": "0x3d5cab25768fcf32ef1b841ff15bca50964c799797631e04f70c2d643e8a81e0",
                    "receiptTrie": "0x3bd71c4a4757ad9419b30c53fa94dcf3ea74f205d0354a67747f07608e7f2548",
                    "bloom": "0x00000000000000000000000000000000000000000000000000000000000000000000000000000000000000000000000000000000000000000000000000000000000000000000000000000000000000000000000000000000000000000000000000000000000000000000000000000000000000000000000000000000000000000000000000000000000000000000000000000000000000000000000000000000000000000000000000000000000000000000000000000000000000000000000000000000000000000000000000000000000000000000000000000000000000000000000000000000000000000000000000000000000000000000000000000000",
                    "difficulty": "0x00",
                    "number": "0x01",
                    "gasLimit": "0x07270e00",
                    "gasUsed": "0x6579",
                    "timestamp": "0x03e8",
                    "extraData": "0x00",
                    "mixHash": "0x0000000000000000000000000000000000000000000000000000000000000000",
                    "nonce": "0x0000000000000000",
                    "baseFeePerGas": "0x07",
                    "hash": "0x54b41adf7f2a5d50c0314982442d4fa7113ee49bf0d418180cac556f7f31fdbd"
                },
                "transactions": [
                    {
                        "type": "0x00",
                        "chainId": "0x01",
                        "nonce": "0x00",
                        "gasPrice": "0x0a",
                        "gasLimit": "0x07a120",
                        "to": "0x6cd5e9e755859f499da97532479e721a480bbe7d",
                        "value": "0x00",
                        "data": "0x",
                        "v": "0x26",
                        "r": "0x98ae5c2f8022cdb7fa481068603a099388e01958c82702f5d1f67864896e5ef9",
                        "s": "0x59b4cfbfd5b72b1043e9b0a2535e43aee49a0f99fe7bb18cd2cc4ca9dc9de750",
                        "sender": "0x1ad9bc24818784172ff393bb6f89f094d4d2ca29"
                    }
                ],
                "uncleHeaders": [],
                "receipts": [
                    {
                        "transactionHash": "0xf114a0b1193c617f3d88fbae2839849cfc55f433c0536db686830be386a69e76",
                        "type": "0x00",
                        "cumulativeGasUsed": "0x6579",
                        "bloom": "0x00000000000000000000000000000000000000000000000000000000000000000000000000000000000000000000000000000000000000000000000000000000000000000000000000000000000000000000000000000000000000000000000000000000000000000000000000000000000000000000000000000000000000000000000000000000000000000000000000000000000000000000000000000000000000000000000000000000000000000000000000000000000000000000000000000000000000000000000000000000000000000000000000000000000000000000000000000000000000000000000000000000000000000000000000000000",
                        "logs": [],
                        "status": true,
                        "rlp": "0xf9010801826579b9010000000000000000000000000000000000000000000000000000000000000000000000000000000000000000000000000000000000000000000000000000000000000000000000000000000000000000000000000000000000000000000000000000000000000000000000000000000000000000000000000000000000000000000000000000000000000000000000000000000000000000000000000000000000000000000000000000000000000000000000000000000000000000000000000000000000000000000000000000000000000000000000000000000000000000000000000000000000000000000000000000000000000000000000000000000000c0"
                    }
                ],
                "rlp": "0xf9025ef901f6a0081a27d96d608ee929adaebcaabb0ae8872c205cf52b0266f062658a4f5960f6a01dcc4de8dec75d7aab85b567b6ccd41ad312451b948a7413f0a142fd40d49347942adc25665018aa1fe0e6bc666dac8fc2697ff9baa02d47d8b381f325d0d323e881c22500b17158ccb5bfc1dca19201bfcd8f6064bea03d5cab25768fcf32ef1b841ff15bca50964c799797631e04f70c2d643e8a81e0a03bd71c4a4757ad9419b30c53fa94dcf3ea74f205d0354a67747f07608e7f2548b901000000000000000000000000000000000000000000000000000000000000000000000000000000000000000000000000000000000000000000000000000000000000000000000000000000000000000000000000000000000000000000000000000000000000000000000000000000000000000000000000000000000000000000000000000000000000000000000000000000000000000000000000000000000000000000000000000000000000000000000000000000000000000000000000000000000000000000000000000000000000000000000000000000000000000000000000000000000000000000000000000000000000000000000000000000000080018407270e008265798203e800a0000000000000000000000000000000000000000000000000000000000000000088000000000000000007f862f860800a8307a120946cd5e9e755859f499da97532479e721a480bbe7d808026a098ae5c2f8022cdb7fa481068603a099388e01958c82702f5d1f67864896e5ef9a059b4cfbfd5b72b1043e9b0a2535e43aee49a0f99fe7bb18cd2cc4ca9dc9de750c0",
                "blocknumber": "1"
            }
        ],
        "sealEngine": "NoProof",
        "_info": {
            "hash": "0x41d38fcb844ba147a89a685ab54f6369b046fca7ee77f0d41ac55764ab689d4c",
            "fixture-format": "blockchain_test",
            "comment": "`execution-specs` generated test",
            "filling-transition-tool": "2.19.0",
            "description": "Test that CALLDATACOPY properly consumes gas for word copy cost.\n\nUses a sub-call with controlled gas to isolate the test from intrinsic\ngas costs that vary across forks.",
            "url": "https://github.com/ethereum/execution-specs/blob/tests-bal@v5.6.1/tests/frontier/opcodes/test_data_copy_oog.py#L38",
            "metadata": {
                "opcode_count": {}
            }
        }
    },
    "tests/frontier/opcodes/test_data_copy_oog.py::test_calldatacopy_word_copy_oog[fork_Paris-blockchain_test_from_state_test-sufficient_gas]": {
        "network": "Paris",
        "genesisBlockHeader": {
            "parentHash": "0x0000000000000000000000000000000000000000000000000000000000000000",
            "uncleHash": "0x1dcc4de8dec75d7aab85b567b6ccd41ad312451b948a7413f0a142fd40d49347",
            "coinbase": "0x0000000000000000000000000000000000000000",
            "stateRoot": "0x0cd0d31dd359aa31fe0025b805f8b5ea7a5db8b498dbdfc137d3658df2d299ce",
            "transactionsTrie": "0x56e81f171bcc55a6ff8345e692c0f86e5b48e01b996cadc001622fb5e363b421",
            "receiptTrie": "0x56e81f171bcc55a6ff8345e692c0f86e5b48e01b996cadc001622fb5e363b421",
            "bloom": "0x00000000000000000000000000000000000000000000000000000000000000000000000000000000000000000000000000000000000000000000000000000000000000000000000000000000000000000000000000000000000000000000000000000000000000000000000000000000000000000000000000000000000000000000000000000000000000000000000000000000000000000000000000000000000000000000000000000000000000000000000000000000000000000000000000000000000000000000000000000000000000000000000000000000000000000000000000000000000000000000000000000000000000000000000000000000",
            "difficulty": "0x00",
            "number": "0x00",
            "gasLimit": "0x07270e00",
            "gasUsed": "0x00",
            "timestamp": "0x00",
            "extraData": "0x00",
            "mixHash": "0x0000000000000000000000000000000000000000000000000000000000000000",
            "nonce": "0x0000000000000000",
            "baseFeePerGas": "0x07",
            "hash": "0x9a00ce3fc4bb2225fca3fe0db79a29e4d3580623c30fd9ca2da378bbfa0e7df5"
        },
        "pre": {
            "0x9391dd74eafa32eabba5e2d6090e5521539a8e65": {
                "nonce": "0x01",
                "balance": "0x00",
                "code": "0x60006103e0526104006000600037600160005360016000f3",
                "storage": {}
            },
            "0x93018c7dfbf783c1427b7e5cc2e19dcdedf8f951": {
                "nonce": "0x01",
                "balance": "0x00",
                "code": "0x60016000600060006000739391dd74eafa32eabba5e2d6090e5521539a8e65611388f160005500",
                "storage": {}
            },
            "0x1ad9bc24818784172ff393bb6f89f094d4d2ca29": {
                "nonce": "0x00",
                "balance": "0x3635c9adc5dea00000",
                "code": "0x",
                "storage": {}
            }
        },
        "postState": {
            "0x9391dd74eafa32eabba5e2d6090e5521539a8e65": {
                "nonce": "0x01",
                "balance": "0x00",
                "code": "0x60006103e0526104006000600037600160005360016000f3",
                "storage": {}
            },
            "0x93018c7dfbf783c1427b7e5cc2e19dcdedf8f951": {
                "nonce": "0x01",
                "balance": "0x00",
                "code": "0x60016000600060006000739391dd74eafa32eabba5e2d6090e5521539a8e65611388f160005500",
                "storage": {
                    "0x00": "0x01"
                }
            },
            "0x1ad9bc24818784172ff393bb6f89f094d4d2ca29": {
                "nonce": "0x01",
                "balance": "0x3635c9adc5de98fcce",
                "code": "0x",
                "storage": {}
            },
            "0x2adc25665018aa1fe0e6bc666dac8fc2697ff9ba": {
                "nonce": "0x00",
                "balance": "0x021a8f",
                "code": "0x",
                "storage": {}
            }
        },
        "lastblockhash": "0x85c43b87dc44b6e4803eafb34a1fdb6545945c6891825e995f4fc4c956706509",
        "config": {
            "network": "Paris",
            "chainid": "0x01"
        },
        "genesisRLP": "0xf901f7f901f2a00000000000000000000000000000000000000000000000000000000000000000a01dcc4de8dec75d7aab85b567b6ccd41ad312451b948a7413f0a142fd40d49347940000000000000000000000000000000000000000a00cd0d31dd359aa31fe0025b805f8b5ea7a5db8b498dbdfc137d3658df2d299cea056e81f171bcc55a6ff8345e692c0f86e5b48e01b996cadc001622fb5e363b421a056e81f171bcc55a6ff8345e692c0f86e5b48e01b996cadc001622fb5e363b421b901000000000000000000000000000000000000000000000000000000000000000000000000000000000000000000000000000000000000000000000000000000000000000000000000000000000000000000000000000000000000000000000000000000000000000000000000000000000000000000000000000000000000000000000000000000000000000000000000000000000000000000000000000000000000000000000000000000000000000000000000000000000000000000000000000000000000000000000000000000000000000000000000000000000000000000000000000000000000000000000000000000000000000000000000000000000080808407270e00808000a0000000000000000000000000000000000000000000000000000000000000000088000000000000000007c0c0",
        "blocks": [
            {
                "blockHeader": {
                    "parentHash": "0x9a00ce3fc4bb2225fca3fe0db79a29e4d3580623c30fd9ca2da378bbfa0e7df5",
                    "uncleHash": "0x1dcc4de8dec75d7aab85b567b6ccd41ad312451b948a7413f0a142fd40d49347",
                    "coinbase": "0x2adc25665018aa1fe0e6bc666dac8fc2697ff9ba",
                    "stateRoot": "0x51ee42556c2805b0dc2db5727f97a421acf8526508b8a0e4fd315719f40d63b2",
                    "transactionsTrie": "0xac034e760f897ffa02b6f5fab7e5b55b0a2744b662d0d557d5f745b68fde95be",
                    "receiptTrie": "0x68bc091a52442103614984ef63f591b62d1f2ca9351801011a50e0f5a53a42a7",
                    "bloom": "0x00000000000000000000000000000000000000000000000000000000000000000000000000000000000000000000000000000000000000000000000000000000000000000000000000000000000000000000000000000000000000000000000000000000000000000000000000000000000000000000000000000000000000000000000000000000000000000000000000000000000000000000000000000000000000000000000000000000000000000000000000000000000000000000000000000000000000000000000000000000000000000000000000000000000000000000000000000000000000000000000000000000000000000000000000000000",
                    "difficulty": "0x00",
                    "number": "0x01",
                    "gasLimit": "0x07270e00",
                    "gasUsed": "0xb385",
                    "timestamp": "0x03e8",
                    "extraData": "0x00",
                    "mixHash": "0x0000000000000000000000000000000000000000000000000000000000000000",
                    "nonce": "0x0000000000000000",
                    "baseFeePerGas": "0x07",
                    "hash": "0x85c43b87dc44b6e4803eafb34a1fdb6545945c6891825e995f4fc4c956706509"
                },
                "transactions": [
                    {
                        "type": "0x00",
                        "chainId": "0x01",
                        "nonce": "0x00",
                        "gasPrice": "0x0a",
                        "gasLimit": "0x07a120",
                        "to": "0x93018c7dfbf783c1427b7e5cc2e19dcdedf8f951",
                        "value": "0x00",
                        "data": "0x",
                        "v": "0x25",
                        "r": "0xfeac9465b46a94f1ca57c8aeb98d4492a8db04fad0aff684d15fead8a592a6b0",
                        "s": "0x1fc3428ce2295fb2bfbd47500569fe0a0a7481e6163bba75f268c996b63a54e8",
                        "sender": "0x1ad9bc24818784172ff393bb6f89f094d4d2ca29"
                    }
                ],
                "uncleHeaders": [],
                "receipts": [
                    {
                        "transactionHash": "0x989f888b2cafe3dee820fa896fc01e9790f112e72fa77816da41861696477029",
                        "type": "0x00",
                        "cumulativeGasUsed": "0xb385",
                        "bloom": "0x00000000000000000000000000000000000000000000000000000000000000000000000000000000000000000000000000000000000000000000000000000000000000000000000000000000000000000000000000000000000000000000000000000000000000000000000000000000000000000000000000000000000000000000000000000000000000000000000000000000000000000000000000000000000000000000000000000000000000000000000000000000000000000000000000000000000000000000000000000000000000000000000000000000000000000000000000000000000000000000000000000000000000000000000000000000",
                        "logs": [],
                        "status": true,
                        "rlp": "0xf901080182b385b9010000000000000000000000000000000000000000000000000000000000000000000000000000000000000000000000000000000000000000000000000000000000000000000000000000000000000000000000000000000000000000000000000000000000000000000000000000000000000000000000000000000000000000000000000000000000000000000000000000000000000000000000000000000000000000000000000000000000000000000000000000000000000000000000000000000000000000000000000000000000000000000000000000000000000000000000000000000000000000000000000000000000000000000000000000000000c0"
                    }
                ],
                "rlp": "0xf9025ef901f6a09a00ce3fc4bb2225fca3fe0db79a29e4d3580623c30fd9ca2da378bbfa0e7df5a01dcc4de8dec75d7aab85b567b6ccd41ad312451b948a7413f0a142fd40d49347942adc25665018aa1fe0e6bc666dac8fc2697ff9baa051ee42556c2805b0dc2db5727f97a421acf8526508b8a0e4fd315719f40d63b2a0ac034e760f897ffa02b6f5fab7e5b55b0a2744b662d0d557d5f745b68fde95bea068bc091a52442103614984ef63f591b62d1f2ca9351801011a50e0f5a53a42a7b901000000000000000000000000000000000000000000000000000000000000000000000000000000000000000000000000000000000000000000000000000000000000000000000000000000000000000000000000000000000000000000000000000000000000000000000000000000000000000000000000000000000000000000000000000000000000000000000000000000000000000000000000000000000000000000000000000000000000000000000000000000000000000000000000000000000000000000000000000000000000000000000000000000000000000000000000000000000000000000000000000000000000000000000000000000000080018407270e0082b3858203e800a0000000000000000000000000000000000000000000000000000000000000000088000000000000000007f862f860800a8307a1209493018c7dfbf783c1427b7e5cc2e19dcdedf8f951808025a0feac9465b46a94f1ca57c8aeb98d4492a8db04fad0aff684d15fead8a592a6b0a01fc3428ce2295fb2bfbd47500569fe0a0a7481e6163bba75f268c996b63a54e8c0",
                "blocknumber": "1"
            }
        ],
        "sealEngine": "NoProof",
        "_info": {
            "hash": "0x25fc57452881269f71b609769464a9f282c4a3d333cd624cf8593574ce58b924",
            "fixture-format": "blockchain_test",
            "comment": "`execution-specs` generated test",
            "filling-transition-tool": "2.19.0",
            "description": "Test that CALLDATACOPY properly consumes gas for word copy cost.\n\nUses a sub-call with controlled gas to isolate the test from intrinsic\ngas costs that vary across forks.",
            "url": "https://github.com/ethereum/execution-specs/blob/tests-bal@v5.6.1/tests/frontier/opcodes/test_data_copy_oog.py#L38",
            "metadata": {
                "opcode_count": {}
            }
        }
    }
}