{
    "tests/frontier/opcodes/test_data_copy_oog.py::test_codecopy_word_copy_oog[fork_Paris-blockchain_test_from_state_test-insufficient_gas_for_word_copy_cost]": {
        "network": "Paris",
        "genesisBlockHeader": {
            "parentHash": "0x0000000000000000000000000000000000000000000000000000000000000000",
            "uncleHash": "0x1dcc4de8dec75d7aab85b567b6ccd41ad312451b948a7413f0a142fd40d49347",
            "coinbase": "0x0000000000000000000000000000000000000000",
            "stateRoot": "0x2909a1b966f24aa0e714dc7351a0c93fb0964c013dac86ed332a7f742476c16d",
            "transactionsTrie": "0x56e81f171bcc55a6ff8345e692c0f86e5b48e01b996cadc001622fb5e363b421",
            "receiptTrie": "0x56e81f171bcc55a6ff8345e692c0f86e5b48e01b996cadc001622fb5e363b421",
            "bloom": "0x00000000000000000000000000000000000000000000000000000000000000000000000000000000000000000000000000000000000000000000000000000000000000000000000000000000000000000000000000000000000000000000000000000000000000000000000000000000000000000000000000000000000000000000000000000000000000000000000000000000000000000000000000000000000000000000000000000000000000000000000000000000000000000000000000000000000000000000000000000000000000000000000000000000000000000000000000000000000000000000000000000000000000000000000000000000",
            "difficulty": "0x00",
            "number": "0x00",
            "gasLimit": "0x07270e00",
            "gasUsed": "0x00",
            "timestamp": "0x00",
            "extraData": "0x00",
            "mixHash": "0x0000000000000000000000000000000000000000000000000000000000000000",
            "nonce": "0x0000000000000000",
            "baseFeePerGas": "0x07",
            "hash": "0xff28747971811cf3067e2e78fbd64a6c7db3bf6f52e324795986e7bee9b629eb"
        },
        "pre": {
            "0x9bd615aa19aa7e639e1bc7f5147b63f045551b78": {
                "nonce": "0x01",
                "balance": "0x00",
                "code": "0x60006103e0526104006000600039600160005360016000f3",
                "storage": {}
            },
            "0x144aadf61023a7f8d8e9319d5647b4847c638fc1": {
                "nonce": "0x01",
                "balance": "0x00",
                "code": "0x60016000600060006000739bd615aa19aa7e639e1bc7f5147b63f045551b786096f160005500",
                "storage": {}
            },
            "0x1ad9bc24818784172ff393bb6f89f094d4d2ca29": {
                "nonce": "0x00",
                "balance": "0x3635c9adc5dea00000",
                "code": "0x",
                "storage": {}
            }
        },
        "postState": {
            "0x9bd615aa19aa7e639e1bc7f5147b63f045551b78": {
                "nonce": "0x01",
                "balance": "0x00",
                "code": "0x60006103e0526104006000600039600160005360016000f3",
                "storage": {}
            },
            "0x144aadf61023a7f8d8e9319d5647b4847c638fc1": {
                "nonce": "0x01",
                "balance": "0x00",
                "code": "0x60016000600060006000739bd615aa19aa7e639e1bc7f5147b63f045551b786096f160005500",
                "storage": {}
            },
            "0x1ad9bc24818784172ff393bb6f89f094d4d2ca29": {
                "nonce": "0x01",
                "balance": "0x3635c9adc5de9c0946",
                "code": "0x",
                "storage": {}
            },
            "0x2adc25665018aa1fe0e6bc666dac8fc2697ff9ba": {
                "nonce": "0x00",
                "balance": "0x01306b",
                "code": "0x",
                "storage": {}
            }
        },
        "lastblockhash": "0x0cb1f6606a57e90512efb8a4c48084e54534493da0e2aad66e4913bd7178a421",
        "config": {
            "network": "Paris",
            "chainid": "0x01"
        },
        "genesisRLP": "0xf901f7f901f2a00000000000000000000000000000000000000000000000000000000000000000a01dcc4de8dec75d7aab85b567b6ccd41ad312451b948a7413f0a142fd40d49347940000000000000000000000000000000000000000a02909a1b966f24aa0e714dc7351a0c93fb0964c013dac86ed332a7f742476c16da056e81f171bcc55a6ff8345e692c0f86e5b48e01b996cadc001622fb5e363b421a056e81f171bcc55a6ff8345e692c0f86e5b48e01b996cadc001622fb5e363b421b901000000000000000000000000000000000000000000000000000000000000000000000000000000000000000000000000000000000000000000000000000000000000000000000000000000000000000000000000000000000000000000000000000000000000000000000000000000000000000000000000000000000000000000000000000000000000000000000000000000000000000000000000000000000000000000000000000000000000000000000000000000000000000000000000000000000000000000000000000000000000000000000000000000000000000000000000000000000000000000000000000000000000000000000000000000000080808407270e00808000a0000000000000000000000000000000000000000000000000000000000000000088000000000000000007c0c0",
        "blocks": [
            {
                "blockHeader": {
                    "parentHash": "0xff28747971811cf3067e2e78fbd64a6c7db3bf6f52e324795986e7bee9b629eb",
                    "uncleHash": "0x1dcc4de8dec75d7aab85b567b6ccd41ad312451b948a7413f0a142fd40d49347",
                    "coinbase": "0x2adc25665018aa1fe0e6bc666dac8fc2697ff9ba",
                    "stateRoot": "0xf0d7a2f0efe609a4b0ee2801fe98acf9d85fe181b21f5bec567a65b84dd52f7b",
                    "transactionsTrie": "0x33deb81ca252f08f3c2f7c97e0ce93fc5094834c033069d0d92044f59de2357f",
                    "receiptTrie": "0x3bd71c4a4757ad9419b30c53fa94dcf3ea74f205d0354a67747f07608e7f2548",
                    "bloom": "0x00000000000000000000000000000000000000000000000000000000000000000000000000000000000000000000000000000000000000000000000000000000000000000000000000000000000000000000000000000000000000000000000000000000000000000000000000000000000000000000000000000000000000000000000000000000000000000000000000000000000000000000000000000000000000000000000000000000000000000000000000000000000000000000000000000000000000000000000000000000000000000000000000000000000000000000000000000000000000000000000000000000000000000000000000000000",
                    "difficulty": "0x00",
                    "number": "0x01",
                    "gasLimit": "0x07270e00",
                    "gasUsed": "0x6579",
                    "timestamp": "0x03e8",
                    "extraData": "0x00",
                    "mixHash": "0x0000000000000000000000000000000000000000000000000000000000000000",
                    "nonce": "0x0000000000000000",
                    "baseFeePerGas": "0x07",
                    "hash": "0x0cb1f6606a57e90512efb8a4c48084e54534493da0e2aad66e4913bd7178a421"
                },
                "transactions": [
                    {
                        "type": "0x00",
                        "chainId": "0x01",
                        "nonce": "0x00",
                        "gasPrice": "0x0a",
                        "gasLimit": "0x07a120",
                        "to": "0x144aadf61023a7f8d8e9319d5647b4847c638fc1",
                        "value": "0x00",
                        "data": "0x",
                        "v": "0x26",
                        "r": "0xbd84bd7b74f5ff3566e12cbedeff66b57625faab2438e9e25744ed3bf08c3f07",
                        "s": "0x6a6fd841eef7cd6dc2230b91de4cb07ea111e0c02ace272c427a740abba59bec",
                        "sender": "0x1ad9bc24818784172ff393bb6f89f094d4d2ca29"
                    }
                ],
                "uncleHeaders": [],
                "receipts": [
                    {
                        "transactionHash": "0xe5eb5e90e97069ab059a79d61590e36b18e9cf0882945b782862d5a4eebcc839",
                        "type": "0x00",
                        "cumulativeGasUsed": "0x6579",
                        "bloom": "0x00000000000000000000000000000000000000000000000000000000000000000000000000000000000000000000000000000000000000000000000000000000000000000000000000000000000000000000000000000000000000000000000000000000000000000000000000000000000000000000000000000000000000000000000000000000000000000000000000000000000000000000000000000000000000000000000000000000000000000000000000000000000000000000000000000000000000000000000000000000000000000000000000000000000000000000000000000000000000000000000000000000000000000000000000000000",
                        "logs": [],
                        "status": true,
                        "rlp": "0xf9010801826579b9010000000000000000000000000000000000000000000000000000000000000000000000000000000000000000000000000000000000000000000000000000000000000000000000000000000000000000000000000000000000000000000000000000000000000000000000000000000000000000000000000000000000000000000000000000000000000000000000000000000000000000000000000000000000000000000000000000000000000000000000000000000000000000000000000000000000000000000000000000000000000000000000000000000000000000000000000000000000000000000000000000000000000000000000000000000000c0"
                    }
                ],
                "rlp": "0xf9025ef901f6a0ff28747971811cf3067e2e78fbd64a6c7db3bf6f52e324795986e7bee9b629eba01dcc4de8dec75d7aab85b567b6ccd41ad312451b948a7413f0a142fd40d49347942adc25665018aa1fe0e6bc666dac8fc2697ff9baa0f0d7a2f0efe609a4b0ee2801fe98acf9d85fe181b21f5bec567a65b84dd52f7ba033deb81ca252f08f3c2f7c97e0ce93fc5094834c033069d0d92044f59de2357fa03bd71c4a4757ad9419b30c53fa94dcf3ea74f205d0354a67747f07608e7f2548b901000000000000000000000000000000000000000000000000000000000000000000000000000000000000000000000000000000000000000000000000000000000000000000000000000000000000000000000000000000000000000000000000000000000000000000000000000000000000000000000000000000000000000000000000000000000000000000000000000000000000000000000000000000000000000000000000000000000000000000000000000000000000000000000000000000000000000000000000000000000000000000000000000000000000000000000000000000000000000000000000000000000000000000000000000000000080018407270e008265798203e800a0000000000000000000000000000000000000000000000000000000000000000088000000000000000007f862f860800a8307a12094144aadf61023a7f8d8e9319d5647b4847c638fc1808026a0bd84bd7b74f5ff3566e12cbedeff66b57625faab2438e9e25744ed3bf08c3f07a06a6fd841eef7cd6dc2230b91de4cb07ea111e0c02ace272c427a740abba59becc0",
                "blocknumber": "1"
            }
        ],
        "sealEngine": "NoProof",
        "_info": {
            "hash": "0xad2547479da060bd8a34587c5840eb659d0dd9419639beacb1d87b69acaffd05",
            "fixture-format": "blockchain_test",
            "comment": "`execution-specs` generated test",
            "filling-transition-tool": "2.19.0",
            "description": "Test that CODECOPY properly consumes gas for word copy cost.",
            "url": "https://github.com/ethereum/execution-specs/blob/tests-bal@v5.7.0/tests/frontier/opcodes/test_data_copy_oog.py#L123",
            "metadata": {
                "opcode_count": {}
            }
        }
    },
    "tests/frontier/opcodes/test_data_copy_oog.py::test_codecopy_word_copy_oog[fork_Paris-blockchain_test_from_state_test-sufficient_gas]": {
        "network": "Paris",
        "genesisBlockHeader": {
            "parentHash": "0x0000000000000000000000000000000000000000000000000000000000000000",
            "uncleHash": "0x1dcc4de8dec75d7aab85b567b6ccd41ad312451b948a7413f0a142fd40d49347",
            "coinbase": "0x0000000000000000000000000000000000000000",
            "stateRoot": "0x807e5d75e29a5c081ceeabe9942f05a38027bbf7e53741aa509da12dc9b18d55",
            "transactionsTrie": "0x56e81f171bcc55a6ff8345e692c0f86e5b48e01b996cadc001622fb5e363b421",
            "receiptTrie": "0x56e81f171bcc55a6ff8345e692c0f86e5b48e01b996cadc001622fb5e363b421",
            "bloom": "0x00000000000000000000000000000000000000000000000000000000000000000000000000000000000000000000000000000000000000000000000000000000000000000000000000000000000000000000000000000000000000000000000000000000000000000000000000000000000000000000000000000000000000000000000000000000000000000000000000000000000000000000000000000000000000000000000000000000000000000000000000000000000000000000000000000000000000000000000000000000000000000000000000000000000000000000000000000000000000000000000000000000000000000000000000000000",
            "difficulty": "0x00",
            "number": "0x00",
            "gasLimit": "0x07270e00",
            "gasUsed": "0x00",
            "timestamp": "0x00",
            "extraData": "0x00",
            "mixHash": "0x0000000000000000000000000000000000000000000000000000000000000000",
            "nonce": "0x0000000000000000",
            "baseFeePerGas": "0x07",
            "hash": "0x9c57192e99264517d2fb60dff5abb0d856a46918195ce69fead78c3011dab727"
        },
        "pre": {
            "0x9bd615aa19aa7e639e1bc7f5147b63f045551b78": {
                "nonce": "0x01",
                "balance": "0x00",
                "code": "0x60006103e0526104006000600039600160005360016000f3",
                "storage": {}
            },
            "0xa3f0c7d9be314eb6ec5e9fe77ca2721c3aad843c": {
                "nonce": "0x01",
                "balance": "0x00",
                "code": "0x60016000600060006000739bd615aa19aa7e639e1bc7f5147b63f045551b78611388f160005500",
                "storage": {}
            },
            "0x1ad9bc24818784172ff393bb6f89f094d4d2ca29": {
                "nonce": "0x00",
                "balance": "0x3635c9adc5dea00000",
                "code": "0x",
                "storage": {}
            }
        },
        "postState": {
            "0x9bd615aa19aa7e639e1bc7f5147b63f045551b78": {
                "nonce": "0x01",
                "balance": "0x00",
                "code": "0x60006103e0526104006000600039600160005360016000f3",
                "storage": {}
            },
            "0xa3f0c7d9be314eb6ec5e9fe77ca2721c3aad843c": {
                "nonce": "0x01",
                "balance": "0x00",
                "code": "0x60016000600060006000739bd615aa19aa7e639e1bc7f5147b63f045551b78611388f160005500",
                "storage": {
                    "0x00": "0x01"
                }
            },
            "0x1ad9bc24818784172ff393bb6f89f094d4d2ca29": {
                "nonce": "0x01",
                "balance": "0x3635c9adc5de98fcce",
                "code": "0x",
                "storage": {}
            },
            "0x2adc25665018aa1fe0e6bc666dac8fc2697ff9ba": {
                "nonce": "0x00",
                "balance": "0x021a8f",
                "code": "0x",
                "storage": {}
            }
        },
        "lastblockhash": "0xdfd7fb111afbf434db1f149e112413e0fda6a95882f67e1f1e50f421c21065bd",
        "config": {
            "network": "Paris",
            "chainid": "0x01"
        },
        "genesisRLP": "0xf901f7f901f2a00000000000000000000000000000000000000000000000000000000000000000a01dcc4de8dec75d7aab85b567b6ccd41ad312451b948a7413f0a142fd40d49347940000000000000000000000000000000000000000a0807e5d75e29a5c081ceeabe9942f05a38027bbf7e53741aa509da12dc9b18d55a056e81f171bcc55a6ff8345e692c0f86e5b48e01b996cadc001622fb5e363b421a056e81f171bcc55a6ff8345e692c0f86e5b48e01b996cadc001622fb5e363b421b901000000000000000000000000000000000000000000000000000000000000000000000000000000000000000000000000000000000000000000000000000000000000000000000000000000000000000000000000000000000000000000000000000000000000000000000000000000000000000000000000000000000000000000000000000000000000000000000000000000000000000000000000000000000000000000000000000000000000000000000000000000000000000000000000000000000000000000000000000000000000000000000000000000000000000000000000000000000000000000000000000000000000000000000000000000000080808407270e00808000a0000000000000000000000000000000000000000000000000000000000000000088000000000000000007c0c0",
        "blocks": [
            {
                "blockHeader": {
                    "parentHash": "0x9c57192e99264517d2fb60dff5abb0d856a46918195ce69fead78c3011dab727",
                    "uncleHash": "0x1dcc4de8dec75d7aab85b567b6ccd41ad312451b948a7413f0a142fd40d49347",
                    "coinbase": "0x2adc25665018aa1fe0e6bc666dac8fc2697ff9ba",
                    "stateRoot": "0x0cb96cec20e143ac2ce5e51c034d6c18e48580a936bd88f8cf7182be7e110309",
                    "transactionsTrie": "0xf414949a90b007098b2d2d61e6a5e368c8184c9a78792ffa6d6cdd53ee0a6ade",
                    "receiptTrie": "0x68bc091a52442103614984ef63f591b62d1f2ca9351801011a50e0f5a53a42a7",
                    "bloom": "0x00000000000000000000000000000000000000000000000000000000000000000000000000000000000000000000000000000000000000000000000000000000000000000000000000000000000000000000000000000000000000000000000000000000000000000000000000000000000000000000000000000000000000000000000000000000000000000000000000000000000000000000000000000000000000000000000000000000000000000000000000000000000000000000000000000000000000000000000000000000000000000000000000000000000000000000000000000000000000000000000000000000000000000000000000000000",
                    "difficulty": "0x00",
                    "number": "0x01",
                    "gasLimit": "0x07270e00",
                    "gasUsed": "0xb385",
                    "timestamp": "0x03e8",
                    "extraData": "0x00",
                    "mixHash": "0x0000000000000000000000000000000000000000000000000000000000000000",
                    "nonce": "0x0000000000000000",
                    "baseFeePerGas": "0x07",
                    "hash": "0xdfd7fb111afbf434db1f149e112413e0fda6a95882f67e1f1e50f421c21065bd"
                },
                "transactions": [
                    {
                        "type": "0x00",
                        "chainId": "0x01",
                        "nonce": "0x00",
                        "gasPrice": "0x0a",
                        "gasLimit": "0x07a120",
                        "to": "0xa3f0c7d9be314eb6ec5e9fe77ca2721c3aad843c",
                        "value": "0x00",
                        "data": "0x",
                        "v": "0x25",
                        "r": "0xd12bbbcaf950b6d68f2288e001775145231441772dc5e8d2f442ee82c3f8ca31",
                        "s": "0x397c80513991cccaa22505efef8797e155b755a9d407125c1be98a8267a79e45",
                        "sender": "0x1ad9bc24818784172ff393bb6f89f094d4d2ca29"
                    }
                ],
                "uncleHeaders": [],
                "receipts": [
                    {
                        "transactionHash": "0x74c2c5506d46c99b4f8130c296ec34cc4ff2042b4a937042f16cae20481818d0",
                        "type": "0x00",
                        "cumulativeGasUsed": "0xb385",
                        "bloom": "0x00000000000000000000000000000000000000000000000000000000000000000000000000000000000000000000000000000000000000000000000000000000000000000000000000000000000000000000000000000000000000000000000000000000000000000000000000000000000000000000000000000000000000000000000000000000000000000000000000000000000000000000000000000000000000000000000000000000000000000000000000000000000000000000000000000000000000000000000000000000000000000000000000000000000000000000000000000000000000000000000000000000000000000000000000000000",
                        "logs": [],
                        "status": true,
                        "rlp": "0xf901080182b385b9010000000000000000000000000000000000000000000000000000000000000000000000000000000000000000000000000000000000000000000000000000000000000000000000000000000000000000000000000000000000000000000000000000000000000000000000000000000000000000000000000000000000000000000000000000000000000000000000000000000000000000000000000000000000000000000000000000000000000000000000000000000000000000000000000000000000000000000000000000000000000000000000000000000000000000000000000000000000000000000000000000000000000000000000000000000000c0"
                    }
                ],
                "rlp": "0xf9025ef901f6a09c57192e99264517d2fb60dff5abb0d856a46918195ce69fead78c3011dab727a01dcc4de8dec75d7aab85b567b6ccd41ad312451b948a7413f0a142fd40d49347942adc25665018aa1fe0e6bc666dac8fc2697ff9baa00cb96cec20e143ac2ce5e51c034d6c18e48580a936bd88f8cf7182be7e110309a0f414949a90b007098b2d2d61e6a5e368c8184c9a78792ffa6d6cdd53ee0a6adea068bc091a52442103614984ef63f591b62d1f2ca9351801011a50e0f5a53a42a7b901000000000000000000000000000000000000000000000000000000000000000000000000000000000000000000000000000000000000000000000000000000000000000000000000000000000000000000000000000000000000000000000000000000000000000000000000000000000000000000000000000000000000000000000000000000000000000000000000000000000000000000000000000000000000000000000000000000000000000000000000000000000000000000000000000000000000000000000000000000000000000000000000000000000000000000000000000000000000000000000000000000000000000000000000000000000080018407270e0082b3858203e800a0000000000000000000000000000000000000000000000000000000000000000088000000000000000007f862f860800a8307a12094a3f0c7d9be314eb6ec5e9fe77ca2721c3aad843c808025a0d12bbbcaf950b6d68f2288e001775145231441772dc5e8d2f442ee82c3f8ca31a0397c80513991cccaa22505efef8797e155b755a9d407125c1be98a8267a79e45c0",
                "blocknumber": "1"
            }
        ],
        "sealEngine": "NoProof",
        "_info": {
            "hash": "0x1ab6a8941516996edcbd494119b37e8fe7014b8e82ce3caec6fc4575412370e9",
            "fixture-format": "blockchain_test",
            "comment": "`execution-specs` generated test",
            "filling-transition-tool": "2.19.0",
            "description": "Test that CODECOPY properly consumes gas for word copy cost.",
            "url": "https://github.com/ethereum/execution-specs/blob/tests-bal@v5.7.0/tests/frontier/opcodes/test_data_copy_oog.py#L123",
            "metadata": {
                "opcode_count": {}
            }
        }
    }
}