{
    "tests/ported_static/stPreCompiledContracts2/test_call_sha256_1.py::test_call_sha256_1[fork_Cancun-blockchain_test_from_state_test]": {
        "network": "Cancun",
        "genesisBlockHeader": {
            "parentHash": "0x0000000000000000000000000000000000000000000000000000000000000000",
            "uncleHash": "0x1dcc4de8dec75d7aab85b567b6ccd41ad312451b948a7413f0a142fd40d49347",
            "coinbase": "0x0000000000000000000000000000000000000000",
            "stateRoot": "0x379fff17f031325cf7abffbc2d3daa7f81fa57599acfda8e6d50680e3ce72b47",
            "transactionsTrie": "0x56e81f171bcc55a6ff8345e692c0f86e5b48e01b996cadc001622fb5e363b421",
            "receiptTrie": "0x56e81f171bcc55a6ff8345e692c0f86e5b48e01b996cadc001622fb5e363b421",
            "bloom": "0x00000000000000000000000000000000000000000000000000000000000000000000000000000000000000000000000000000000000000000000000000000000000000000000000000000000000000000000000000000000000000000000000000000000000000000000000000000000000000000000000000000000000000000000000000000000000000000000000000000000000000000000000000000000000000000000000000000000000000000000000000000000000000000000000000000000000000000000000000000000000000000000000000000000000000000000000000000000000000000000000000000000000000000000000000000000",
            "difficulty": "0x00",
            "number": "0x00",
            "gasLimit": "0x989680",
            "gasUsed": "0x00",
            "timestamp": "0x00",
            "extraData": "0x00",
            "mixHash": "0x0000000000000000000000000000000000000000000000000000000000000000",
            "nonce": "0x0000000000000000",
            "baseFeePerGas": "0x0b",
            "withdrawalsRoot": "0x56e81f171bcc55a6ff8345e692c0f86e5b48e01b996cadc001622fb5e363b421",
            "blobGasUsed": "0x00",
            "excessBlobGas": "0x00",
            "parentBeaconBlockRoot": "0x0000000000000000000000000000000000000000000000000000000000000000",
            "hash": "0xc4eb19fde0197ba806b93010c5d45fe8e2c6f9b02c78489e327eac222f111891"
        },
        "pre": {
            "0x000f3df6d732807ef1319fb7b8bb8522d0beac02": {
                "nonce": "0x01",
                "balance": "0x00",
                "code": "0x3373fffffffffffffffffffffffffffffffffffffffe14604d57602036146024575f5ffd5b5f35801560495762001fff810690815414603c575f5ffd5b62001fff01545f5260205ff35b5f5ffd5b62001fff42064281555f359062001fff015500",
                "storage": {}
            },
            "0x1e79f0fd2bb702c9fd72905da2a5b109025fa4a6": {
                "nonce": "0x00",
                "balance": "0x01312d00",
                "code": "0x6020600060006000600060026101f4f160025560005160005500",
                "storage": {}
            },
            "0xebaf50debf10e08302fe4280c32df010463ca297": {
                "nonce": "0x00",
                "balance": "0x0de0b6b3a7640000",
                "code": "0x",
                "storage": {}
            }
        },
        "postState": {
            "0x000f3df6d732807ef1319fb7b8bb8522d0beac02": {
                "nonce": "0x01",
                "balance": "0x00",
                "code": "0x3373fffffffffffffffffffffffffffffffffffffffe14604d57602036146024575f5ffd5b5f35801560495762001fff810690815414603c575f5ffd5b62001fff01545f5260205ff35b5f5ffd5b62001fff42064281555f359062001fff015500",
                "storage": {
                    "0x03e8": "0x03e8"
                }
            },
            "0x1e79f0fd2bb702c9fd72905da2a5b109025fa4a6": {
                "nonce": "0x00",
                "balance": "0x0132b3a0",
                "code": "0x6020600060006000600060026101f4f160025560005160005500",
                "storage": {
                    "0x02": "0x01",
                    "0x00": "0xe3b0c44298fc1c149afbf4c8996fb92427ae41e4649b934ca495991b7852b855"
                }
            },
            "0xebaf50debf10e08302fe4280c32df010463ca297": {
                "nonce": "0x01",
                "balance": "0x0de0b6b3a7587ed8",
                "code": "0x",
                "storage": {}
            }
        },
        "lastblockhash": "0x213d90be32490e45ce571c52bf471a06fbac1216fa821076bcd1707d473cc114",
        "config": {
            "network": "Cancun",
            "chainid": "0x01",
            "blobSchedule": {
                "Cancun": {
                    "target": "0x03",
                    "max": "0x06",
                    "baseFeeUpdateFraction": "0x32f0ed"
                }
            }
        },
        "genesisRLP": "0xf9023bf90235a00000000000000000000000000000000000000000000000000000000000000000a01dcc4de8dec75d7aab85b567b6ccd41ad312451b948a7413f0a142fd40d49347940000000000000000000000000000000000000000a0379fff17f031325cf7abffbc2d3daa7f81fa57599acfda8e6d50680e3ce72b47a056e81f171bcc55a6ff8345e692c0f86e5b48e01b996cadc001622fb5e363b421a056e81f171bcc55a6ff8345e692c0f86e5b48e01b996cadc001622fb5e363b421b9010000000000000000000000000000000000000000000000000000000000000000000000000000000000000000000000000000000000000000000000000000000000000000000000000000000000000000000000000000000000000000000000000000000000000000000000000000000000000000000000000000000000000000000000000000000000000000000000000000000000000000000000000000000000000000000000000000000000000000000000000000000000000000000000000000000000000000000000000000000000000000000000000000000000000000000000000000000000000000000000000000000000000000000000000000000000808083989680808000a000000000000000000000000000000000000000000000000000000000000000008800000000000000000ba056e81f171bcc55a6ff8345e692c0f86e5b48e01b996cadc001622fb5e363b4218080a00000000000000000000000000000000000000000000000000000000000000000c0c0c0",
        "blocks": [
            {
                "blockHeader": {
                    "parentHash": "0xc4eb19fde0197ba806b93010c5d45fe8e2c6f9b02c78489e327eac222f111891",
                    "uncleHash": "0x1dcc4de8dec75d7aab85b567b6ccd41ad312451b948a7413f0a142fd40d49347",
                    "coinbase": "0x2adc25665018aa1fe0e6bc666dac8fc2697ff9ba",
                    "stateRoot": "0xcb0b4d30fb7e13e8c6e9e68ebdc2da372c7707d9c2615a127c8289bdf3d9fd57",
                    "transactionsTrie": "0x646a5743b6fbb18456bae201a5fe89c1e662d104eab3bb0c7005f35deac6448a",
                    "receiptTrie": "0xec66b3b8527ed3cc785faa03c7f41eb2c4715a197facf9b8907a607c4db162ea",
                    "bloom": "0x00000000000000000000000000000000000000000000000000000000000000000000000000000000000000000000000000000000000000000000000000000000000000000000000000000000000000000000000000000000000000000000000000000000000000000000000000000000000000000000000000000000000000000000000000000000000000000000000000000000000000000000000000000000000000000000000000000000000000000000000000000000000000000000000000000000000000000000000000000000000000000000000000000000000000000000000000000000000000000000000000000000000000000000000000000000",
                    "difficulty": "0x00",
                    "number": "0x01",
                    "gasLimit": "0x989680",
                    "gasUsed": "0xff74",
                    "timestamp": "0x03e8",
                    "extraData": "0x00",
                    "mixHash": "0x0000000000000000000000000000000000000000000000000000000000020000",
                    "nonce": "0x0000000000000000",
                    "baseFeePerGas": "0x0a",
                    "withdrawalsRoot": "0x56e81f171bcc55a6ff8345e692c0f86e5b48e01b996cadc001622fb5e363b421",
                    "blobGasUsed": "0x00",
                    "excessBlobGas": "0x00",
                    "parentBeaconBlockRoot": "0x0000000000000000000000000000000000000000000000000000000000000000",
                    "hash": "0x213d90be32490e45ce571c52bf471a06fbac1216fa821076bcd1707d473cc114"
                },
                "transactions": [
                    {
                        "type": "0x00",
                        "chainId": "0x01",
                        "nonce": "0x00",
                        "gasPrice": "0x0a",
                        "gasLimit": "0x0592a8",
                        "to": "0x1e79f0fd2bb702c9fd72905da2a5b109025fa4a6",
                        "value": "0x0186a0",
                        "data": "0x",
                        "v": "0x26",
                        "r": "0xbc4e29dd1a393c3b65148ab4fef103137387f6e653c3810a5dbd512dfb5f71ea",
                        "s": "0x45e334c44da8204eaa954f09091fbce5d725f674e59ec837d2537c7a4c9e10a6",
                        "sender": "0xebaf50debf10e08302fe4280c32df010463ca297"
                    }
                ],
                "uncleHeaders": [],
                "withdrawals": [],
                "receipts": [
                    {
                        "transactionHash": "0xac8389e43b93ce4255ffe9190b02ef6d0e88826b3f909ea0de38f92b69cf33a0",
                        "type": "0x00",
                        "cumulativeGasUsed": "0xff74",
                        "bloom": "0x00000000000000000000000000000000000000000000000000000000000000000000000000000000000000000000000000000000000000000000000000000000000000000000000000000000000000000000000000000000000000000000000000000000000000000000000000000000000000000000000000000000000000000000000000000000000000000000000000000000000000000000000000000000000000000000000000000000000000000000000000000000000000000000000000000000000000000000000000000000000000000000000000000000000000000000000000000000000000000000000000000000000000000000000000000000",
                        "logs": [],
                        "status": true,
                        "rlp": "0xf901080182ff74b9010000000000000000000000000000000000000000000000000000000000000000000000000000000000000000000000000000000000000000000000000000000000000000000000000000000000000000000000000000000000000000000000000000000000000000000000000000000000000000000000000000000000000000000000000000000000000000000000000000000000000000000000000000000000000000000000000000000000000000000000000000000000000000000000000000000000000000000000000000000000000000000000000000000000000000000000000000000000000000000000000000000000000000000000000000000000c0"
                    }
                ],
                "rlp": "0xf902a5f90239a0c4eb19fde0197ba806b93010c5d45fe8e2c6f9b02c78489e327eac222f111891a01dcc4de8dec75d7aab85b567b6ccd41ad312451b948a7413f0a142fd40d49347942adc25665018aa1fe0e6bc666dac8fc2697ff9baa0cb0b4d30fb7e13e8c6e9e68ebdc2da372c7707d9c2615a127c8289bdf3d9fd57a0646a5743b6fbb18456bae201a5fe89c1e662d104eab3bb0c7005f35deac6448aa0ec66b3b8527ed3cc785faa03c7f41eb2c4715a197facf9b8907a607c4db162eab901000000000000000000000000000000000000000000000000000000000000000000000000000000000000000000000000000000000000000000000000000000000000000000000000000000000000000000000000000000000000000000000000000000000000000000000000000000000000000000000000000000000000000000000000000000000000000000000000000000000000000000000000000000000000000000000000000000000000000000000000000000000000000000000000000000000000000000000000000000000000000000000000000000000000000000000000000000000000000000000000000000000000000000000000000000000080018398968082ff748203e800a000000000000000000000000000000000000000000000000000000000000200008800000000000000000aa056e81f171bcc55a6ff8345e692c0f86e5b48e01b996cadc001622fb5e363b4218080a00000000000000000000000000000000000000000000000000000000000000000f865f863800a830592a8941e79f0fd2bb702c9fd72905da2a5b109025fa4a6830186a08026a0bc4e29dd1a393c3b65148ab4fef103137387f6e653c3810a5dbd512dfb5f71eaa045e334c44da8204eaa954f09091fbce5d725f674e59ec837d2537c7a4c9e10a6c0c0",
                "blocknumber": "1"
            }
        ],
        "sealEngine": "NoProof",
        "_info": {
            "hash": "0x963b9f2038493bf0d543ce879a5d8540a1046fc667164191ca3a85fa19454209",
            "fixture-format": "blockchain_test",
            "comment": "`execution-specs` generated test",
            "filling-transition-tool": "2.19.0",
            "description": "Test_call_sha256_1.",
            "url": "https://github.com/ethereum/execution-specs/blob/tests-bal@v5.6.1/tests/ported_static/stPreCompiledContracts2/test_call_sha256_1.py#L25",
            "metadata": {
                "opcode_count": {}
            }
        }
    }
}