{
    "tests/berlin/eip2930_access_list/test_acl.py::test_account_storage_warm_cold_state[fork_London-blockchain_test_from_state_test-account_warm_False-storage_key_warm_False]": {
        "network": "London",
        "genesisBlockHeader": {
            "parentHash": "0x0000000000000000000000000000000000000000000000000000000000000000",
            "uncleHash": "0x1dcc4de8dec75d7aab85b567b6ccd41ad312451b948a7413f0a142fd40d49347",
            "coinbase": "0x0000000000000000000000000000000000000000",
            "stateRoot": "0xe82356722797d811f33424defd9c3a56f7dcddd63d6324e35cd1a7492678d673",
            "transactionsTrie": "0x56e81f171bcc55a6ff8345e692c0f86e5b48e01b996cadc001622fb5e363b421",
            "receiptTrie": "0x56e81f171bcc55a6ff8345e692c0f86e5b48e01b996cadc001622fb5e363b421",
            "bloom": "0x00000000000000000000000000000000000000000000000000000000000000000000000000000000000000000000000000000000000000000000000000000000000000000000000000000000000000000000000000000000000000000000000000000000000000000000000000000000000000000000000000000000000000000000000000000000000000000000000000000000000000000000000000000000000000000000000000000000000000000000000000000000000000000000000000000000000000000000000000000000000000000000000000000000000000000000000000000000000000000000000000000000000000000000000000000000",
            "difficulty": "0x020000",
            "number": "0x00",
            "gasLimit": "0x07270e00",
            "gasUsed": "0x00",
            "timestamp": "0x00",
            "extraData": "0x00",
            "mixHash": "0x0000000000000000000000000000000000000000000000000000000000000000",
            "nonce": "0x0000000000000000",
            "baseFeePerGas": "0x07",
            "hash": "0x7bddccbc749db25ed2dc7333d9450bfce8872c1c8c9375a6dd4fa5c116c2079c"
        },
        "pre": {
            "0xb785006d936d819ee7486ab5e47f3a2ac50dc121": {
                "nonce": "0x01",
                "balance": "0x00",
                "code": "0x60015400",
                "storage": {}
            },
            "0xe9cfc5da252c55d38af259db618edfbb7abc2e92": {
                "nonce": "0x01",
                "balance": "0x00",
                "code": "0x5a6000600060006000600073b785006d936d819ee7486ab5e47f3a2ac50dc1215af15a9050900360175a5a900301900360005500",
                "storage": {}
            },
            "0x1ad9bc24818784172ff393bb6f89f094d4d2ca29": {
                "nonce": "0x00",
                "balance": "0x3635c9adc5dea00000",
                "code": "0x",
                "storage": {}
            }
        },
        "postState": {
            "0xb785006d936d819ee7486ab5e47f3a2ac50dc121": {
                "nonce": "0x01",
                "balance": "0x00",
                "code": "0x60015400",
                "storage": {}
            },
            "0xe9cfc5da252c55d38af259db618edfbb7abc2e92": {
                "nonce": "0x01",
                "balance": "0x00",
                "code": "0x5a6000600060006000600073b785006d936d819ee7486ab5e47f3a2ac50dc1215af15a9050900360175a5a900301900360005500",
                "storage": {
                    "0x00": "0x125c"
                }
            },
            "0x1ad9bc24818784172ff393bb6f89f094d4d2ca29": {
                "nonce": "0x01",
                "balance": "0x3635c9adc5de980a62",
                "code": "0x",
                "storage": {}
            },
            "0x2adc25665018aa1fe0e6bc666dac8fc2697ff9ba": {
                "nonce": "0x00",
                "balance": "0x1bc16d674eca6349",
                "code": "0x",
                "storage": {}
            }
        },
        "lastblockhash": "0x45f23a5d5630d677a88137c48d62a92bf625342d415eed1b7604d4e5ca204491",
        "config": {
            "network": "London",
            "chainid": "0x01"
        },
        "genesisRLP": "0xf901faf901f5a00000000000000000000000000000000000000000000000000000000000000000a01dcc4de8dec75d7aab85b567b6ccd41ad312451b948a7413f0a142fd40d49347940000000000000000000000000000000000000000a0e82356722797d811f33424defd9c3a56f7dcddd63d6324e35cd1a7492678d673a056e81f171bcc55a6ff8345e692c0f86e5b48e01b996cadc001622fb5e363b421a056e81f171bcc55a6ff8345e692c0f86e5b48e01b996cadc001622fb5e363b421b901000000000000000000000000000000000000000000000000000000000000000000000000000000000000000000000000000000000000000000000000000000000000000000000000000000000000000000000000000000000000000000000000000000000000000000000000000000000000000000000000000000000000000000000000000000000000000000000000000000000000000000000000000000000000000000000000000000000000000000000000000000000000000000000000000000000000000000000000000000000000000000000000000000000000000000000000000000000000000000000000000000000000000000000000000000000083020000808407270e00808000a0000000000000000000000000000000000000000000000000000000000000000088000000000000000007c0c0",
        "blocks": [
            {
                "blockHeader": {
                    "parentHash": "0x7bddccbc749db25ed2dc7333d9450bfce8872c1c8c9375a6dd4fa5c116c2079c",
                    "uncleHash": "0x1dcc4de8dec75d7aab85b567b6ccd41ad312451b948a7413f0a142fd40d49347",
                    "coinbase": "0x2adc25665018aa1fe0e6bc666dac8fc2697ff9ba",
                    "stateRoot": "0x9b86ec7dda4b3623d85d88d1855ee77c0a1cee6e594966fb4ab19e12cb3d2d4d",
                    "transactionsTrie": "0xc182139e029c5af5ce26bb7500d3b34666d4bb274d087745258c2c65776d2341",
                    "receiptTrie": "0x108f3c5e84672e132ff6c77f8d19ba696efd109d222266a8d5207665bd8f776b",
                    "bloom": "0x00000000000000000000000000000000000000000000000000000000000000000000000000000000000000000000000000000000000000000000000000000000000000000000000000000000000000000000000000000000000000000000000000000000000000000000000000000000000000000000000000000000000000000000000000000000000000000000000000000000000000000000000000000000000000000000000000000000000000000000000000000000000000000000000000000000000000000000000000000000000000000000000000000000000000000000000000000000000000000000000000000000000000000000000000000000",
                    "difficulty": "0x020000",
                    "number": "0x01",
                    "gasLimit": "0x07270e00",
                    "gasUsed": "0xcbc3",
                    "timestamp": "0x03e8",
                    "extraData": "0x00",
                    "mixHash": "0x0000000000000000000000000000000000000000000000000000000000000000",
                    "nonce": "0x0000000000000000",
                    "baseFeePerGas": "0x07",
                    "hash": "0x45f23a5d5630d677a88137c48d62a92bf625342d415eed1b7604d4e5ca204491"
                },
                "transactions": [
                    {
                        "type": "0x01",
                        "chainId": "0x01",
                        "nonce": "0x00",
                        "gasPrice": "0x0a",
                        "gasLimit": "0x01e974",
                        "to": "0xe9cfc5da252c55d38af259db618edfbb7abc2e92",
                        "value": "0x00",
                        "data": "0x",
                        "accessList": [
                            {
                                "address": "0x0000000000000000000000000000000000000000",
                                "storageKeys": [
                                    "0x0000000000000000000000000000000000000000000000000000000000000000"
                                ]
                            }
                        ],
                        "v": "0x01",
                        "r": "0x26ae43bee4e34a82a7c2db2ea837826761112718d9f785648d01f7ec155d94f8",
                        "s": "0x67b1d8adf8cc8d2f8dd554a6c7c3b7f3269d33f3b4afa14e2e520241bf826ee8",
                        "sender": "0x1ad9bc24818784172ff393bb6f89f094d4d2ca29"
                    }
                ],
                "uncleHeaders": [],
                "receipts": [
                    {
                        "transactionHash": "0xe947d1f971b27566438413f1ec10dfce2a01cf282799c4f4b3db9755a2933125",
                        "type": "0x01",
                        "cumulativeGasUsed": "0xcbc3",
                        "bloom": "0x00000000000000000000000000000000000000000000000000000000000000000000000000000000000000000000000000000000000000000000000000000000000000000000000000000000000000000000000000000000000000000000000000000000000000000000000000000000000000000000000000000000000000000000000000000000000000000000000000000000000000000000000000000000000000000000000000000000000000000000000000000000000000000000000000000000000000000000000000000000000000000000000000000000000000000000000000000000000000000000000000000000000000000000000000000000",
                        "logs": [],
                        "status": true,
                        "rlp": "0x01f901080182cbc3b9010000000000000000000000000000000000000000000000000000000000000000000000000000000000000000000000000000000000000000000000000000000000000000000000000000000000000000000000000000000000000000000000000000000000000000000000000000000000000000000000000000000000000000000000000000000000000000000000000000000000000000000000000000000000000000000000000000000000000000000000000000000000000000000000000000000000000000000000000000000000000000000000000000000000000000000000000000000000000000000000000000000000000000000000000000000000c0"
                    }
                ],
                "rlp": "0xf9029ff901f9a07bddccbc749db25ed2dc7333d9450bfce8872c1c8c9375a6dd4fa5c116c2079ca01dcc4de8dec75d7aab85b567b6ccd41ad312451b948a7413f0a142fd40d49347942adc25665018aa1fe0e6bc666dac8fc2697ff9baa09b86ec7dda4b3623d85d88d1855ee77c0a1cee6e594966fb4ab19e12cb3d2d4da0c182139e029c5af5ce26bb7500d3b34666d4bb274d087745258c2c65776d2341a0108f3c5e84672e132ff6c77f8d19ba696efd109d222266a8d5207665bd8f776bb901000000000000000000000000000000000000000000000000000000000000000000000000000000000000000000000000000000000000000000000000000000000000000000000000000000000000000000000000000000000000000000000000000000000000000000000000000000000000000000000000000000000000000000000000000000000000000000000000000000000000000000000000000000000000000000000000000000000000000000000000000000000000000000000000000000000000000000000000000000000000000000000000000000000000000000000000000000000000000000000000000000000000000000000000000000000083020000018407270e0082cbc38203e800a0000000000000000000000000000000000000000000000000000000000000000088000000000000000007f8a0b89e01f89b01800a8301e97494e9cfc5da252c55d38af259db618edfbb7abc2e928080f838f7940000000000000000000000000000000000000000e1a0000000000000000000000000000000000000000000000000000000000000000001a026ae43bee4e34a82a7c2db2ea837826761112718d9f785648d01f7ec155d94f8a067b1d8adf8cc8d2f8dd554a6c7c3b7f3269d33f3b4afa14e2e520241bf826ee8c0",
                "blocknumber": "1"
            }
        ],
        "sealEngine": "NoProof",
        "_info": {
            "hash": "0x50454739d9410194ef06d9e3be90d54c732fc8ccba3a16df9ad3074bd7fc0ffd",
            "fixture-format": "blockchain_test",
            "comment": "`execution-specs` generated test",
            "filling-transition-tool": "2.19.0",
            "description": "Test type 1 transaction.",
            "url": "https://github.com/ethereum/execution-specs/blob/tests-bal@v5.4.0/tests/berlin/eip2930_access_list/test_acl.py#L27",
            "opcode_count": {},
            "reference-spec": "https://github.com/ethereum/EIPs/blob/master/EIPS/eip-2930.md",
            "reference-spec-version": "c9db53a936c5c9cbe2db32ba0d1b86c4c6e73534"
        }
    },
    "tests/berlin/eip2930_access_list/test_acl.py::test_account_storage_warm_cold_state[fork_London-blockchain_test_from_state_test-account_warm_True-storage_key_warm_False]": {
        "network": "London",
        "genesisBlockHeader": {
            "parentHash": "0x0000000000000000000000000000000000000000000000000000000000000000",
            "uncleHash": "0x1dcc4de8dec75d7aab85b567b6ccd41ad312451b948a7413f0a142fd40d49347",
            "coinbase": "0x0000000000000000000000000000000000000000",
            "stateRoot": "0xe82356722797d811f33424defd9c3a56f7dcddd63d6324e35cd1a7492678d673",
            "transactionsTrie": "0x56e81f171bcc55a6ff8345e692c0f86e5b48e01b996cadc001622fb5e363b421",
            "receiptTrie": "0x56e81f171bcc55a6ff8345e692c0f86e5b48e01b996cadc001622fb5e363b421",
            "bloom": "0x00000000000000000000000000000000000000000000000000000000000000000000000000000000000000000000000000000000000000000000000000000000000000000000000000000000000000000000000000000000000000000000000000000000000000000000000000000000000000000000000000000000000000000000000000000000000000000000000000000000000000000000000000000000000000000000000000000000000000000000000000000000000000000000000000000000000000000000000000000000000000000000000000000000000000000000000000000000000000000000000000000000000000000000000000000000",
            "difficulty": "0x020000",
            "number": "0x00",
            "gasLimit": "0x07270e00",
            "gasUsed": "0x00",
            "timestamp": "0x00",
            "extraData": "0x00",
            "mixHash": "0x0000000000000000000000000000000000000000000000000000000000000000",
            "nonce": "0x0000000000000000",
            "baseFeePerGas": "0x07",
            "hash": "0x7bddccbc749db25ed2dc7333d9450bfce8872c1c8c9375a6dd4fa5c116c2079c"
        },
        "pre": {
            "0xb785006d936d819ee7486ab5e47f3a2ac50dc121": {
                "nonce": "0x01",
                "balance": "0x00",
                "code": "0x60015400",
                "storage": {}
            },
            "0xe9cfc5da252c55d38af259db618edfbb7abc2e92": {
                "nonce": "0x01",
                "balance": "0x00",
                "code": "0x5a6000600060006000600073b785006d936d819ee7486ab5e47f3a2ac50dc1215af15a9050900360175a5a900301900360005500",
                "storage": {}
            },
            "0x1ad9bc24818784172ff393bb6f89f094d4d2ca29": {
                "nonce": "0x00",
                "balance": "0x3635c9adc5dea00000",
                "code": "0x",
                "storage": {}
            }
        },
        "postState": {
            "0xb785006d936d819ee7486ab5e47f3a2ac50dc121": {
                "nonce": "0x01",
                "balance": "0x00",
                "code": "0x60015400",
                "storage": {}
            },
            "0xe9cfc5da252c55d38af259db618edfbb7abc2e92": {
                "nonce": "0x01",
                "balance": "0x00",
                "code": "0x5a6000600060006000600073b785006d936d819ee7486ab5e47f3a2ac50dc1215af15a9050900360175a5a900301900360005500",
                "storage": {
                    "0x00": "0x0898"
                }
            },
            "0x1ad9bc24818784172ff393bb6f89f094d4d2ca29": {
                "nonce": "0x01",
                "balance": "0x3635c9adc5de986c0a",
                "code": "0x",
                "storage": {}
            },
            "0x2adc25665018aa1fe0e6bc666dac8fc2697ff9ba": {
                "nonce": "0x00",
                "balance": "0x1bc16d674eca45fd",
                "code": "0x",
                "storage": {}
            }
        },
        "lastblockhash": "0xc2f8858d2afb434b0513cef717d2a185fed113dd9b0477b7f6bee23ad2f8171f",
        "config": {
            "network": "London",
            "chainid": "0x01"
        },
        "genesisRLP": "0xf901faf901f5a00000000000000000000000000000000000000000000000000000000000000000a01dcc4de8dec75d7aab85b567b6ccd41ad312451b948a7413f0a142fd40d49347940000000000000000000000000000000000000000a0e82356722797d811f33424defd9c3a56f7dcddd63d6324e35cd1a7492678d673a056e81f171bcc55a6ff8345e692c0f86e5b48e01b996cadc001622fb5e363b421a056e81f171bcc55a6ff8345e692c0f86e5b48e01b996cadc001622fb5e363b421b901000000000000000000000000000000000000000000000000000000000000000000000000000000000000000000000000000000000000000000000000000000000000000000000000000000000000000000000000000000000000000000000000000000000000000000000000000000000000000000000000000000000000000000000000000000000000000000000000000000000000000000000000000000000000000000000000000000000000000000000000000000000000000000000000000000000000000000000000000000000000000000000000000000000000000000000000000000000000000000000000000000000000000000000000000000000083020000808407270e00808000a0000000000000000000000000000000000000000000000000000000000000000088000000000000000007c0c0",
        "blocks": [
            {
                "blockHeader": {
                    "parentHash": "0x7bddccbc749db25ed2dc7333d9450bfce8872c1c8c9375a6dd4fa5c116c2079c",
                    "uncleHash": "0x1dcc4de8dec75d7aab85b567b6ccd41ad312451b948a7413f0a142fd40d49347",
                    "coinbase": "0x2adc25665018aa1fe0e6bc666dac8fc2697ff9ba",
                    "stateRoot": "0x45dedf29c33d62d8219f37fa9a185084dd34bd5f99dfc62374b48f33ad2085a9",
                    "transactionsTrie": "0x919a2051954478f97a4ae47d301b9f908b46096423931fba06a8eebd6541a56f",
                    "receiptTrie": "0x9b14f45467731b02f1f1e7665151c10a06ba76e9b9f4f91abbfd8b9fba0760c9",
                    "bloom": "0x00000000000000000000000000000000000000000000000000000000000000000000000000000000000000000000000000000000000000000000000000000000000000000000000000000000000000000000000000000000000000000000000000000000000000000000000000000000000000000000000000000000000000000000000000000000000000000000000000000000000000000000000000000000000000000000000000000000000000000000000000000000000000000000000000000000000000000000000000000000000000000000000000000000000000000000000000000000000000000000000000000000000000000000000000000000",
                    "difficulty": "0x020000",
                    "number": "0x01",
                    "gasLimit": "0x07270e00",
                    "gasUsed": "0xc1ff",
                    "timestamp": "0x03e8",
                    "extraData": "0x00",
                    "mixHash": "0x0000000000000000000000000000000000000000000000000000000000000000",
                    "nonce": "0x0000000000000000",
                    "baseFeePerGas": "0x07",
                    "hash": "0xc2f8858d2afb434b0513cef717d2a185fed113dd9b0477b7f6bee23ad2f8171f"
                },
                "transactions": [
                    {
                        "type": "0x01",
                        "chainId": "0x01",
                        "nonce": "0x00",
                        "gasPrice": "0x0a",
                        "gasLimit": "0x01e974",
                        "to": "0xe9cfc5da252c55d38af259db618edfbb7abc2e92",
                        "value": "0x00",
                        "data": "0x",
                        "accessList": [
                            {
                                "address": "0xb785006d936d819ee7486ab5e47f3a2ac50dc121",
                                "storageKeys": [
                                    "0x0000000000000000000000000000000000000000000000000000000000000000"
                                ]
                            }
                        ],
                        "v": "0x00",
                        "r": "0x29c5e896d9a21a748a6adf12015dd7d2e99ad2731393b0181ce4744becbc2a17",
                        "s": "0x46148f4337479ad1756d7d1349d396b404f3fc3d732126db0d91820b5bbdf0dd",
                        "sender": "0x1ad9bc24818784172ff393bb6f89f094d4d2ca29"
                    }
                ],
                "uncleHeaders": [],
                "receipts": [
                    {
                        "transactionHash": "0xaccda1fe54661031e48359e8206b3e9d9c401f41f10a8458613483c089825917",
                        "type": "0x01",
                        "cumulativeGasUsed": "0xc1ff",
                        "bloom": "0x00000000000000000000000000000000000000000000000000000000000000000000000000000000000000000000000000000000000000000000000000000000000000000000000000000000000000000000000000000000000000000000000000000000000000000000000000000000000000000000000000000000000000000000000000000000000000000000000000000000000000000000000000000000000000000000000000000000000000000000000000000000000000000000000000000000000000000000000000000000000000000000000000000000000000000000000000000000000000000000000000000000000000000000000000000000",
                        "logs": [],
                        "status": true,
                        "rlp": "0x01f901080182c1ffb9010000000000000000000000000000000000000000000000000000000000000000000000000000000000000000000000000000000000000000000000000000000000000000000000000000000000000000000000000000000000000000000000000000000000000000000000000000000000000000000000000000000000000000000000000000000000000000000000000000000000000000000000000000000000000000000000000000000000000000000000000000000000000000000000000000000000000000000000000000000000000000000000000000000000000000000000000000000000000000000000000000000000000000000000000000000000c0"
                    }
                ],
                "rlp": "0xf9029ff901f9a07bddccbc749db25ed2dc7333d9450bfce8872c1c8c9375a6dd4fa5c116c2079ca01dcc4de8dec75d7aab85b567b6ccd41ad312451b948a7413f0a142fd40d49347942adc25665018aa1fe0e6bc666dac8fc2697ff9baa045dedf29c33d62d8219f37fa9a185084dd34bd5f99dfc62374b48f33ad2085a9a0919a2051954478f97a4ae47d301b9f908b46096423931fba06a8eebd6541a56fa09b14f45467731b02f1f1e7665151c10a06ba76e9b9f4f91abbfd8b9fba0760c9b901000000000000000000000000000000000000000000000000000000000000000000000000000000000000000000000000000000000000000000000000000000000000000000000000000000000000000000000000000000000000000000000000000000000000000000000000000000000000000000000000000000000000000000000000000000000000000000000000000000000000000000000000000000000000000000000000000000000000000000000000000000000000000000000000000000000000000000000000000000000000000000000000000000000000000000000000000000000000000000000000000000000000000000000000000000000083020000018407270e0082c1ff8203e800a0000000000000000000000000000000000000000000000000000000000000000088000000000000000007f8a0b89e01f89b01800a8301e97494e9cfc5da252c55d38af259db618edfbb7abc2e928080f838f794b785006d936d819ee7486ab5e47f3a2ac50dc121e1a0000000000000000000000000000000000000000000000000000000000000000080a029c5e896d9a21a748a6adf12015dd7d2e99ad2731393b0181ce4744becbc2a17a046148f4337479ad1756d7d1349d396b404f3fc3d732126db0d91820b5bbdf0ddc0",
                "blocknumber": "1"
            }
        ],
        "sealEngine": "NoProof",
        "_info": {
            "hash": "0x1e99f0330359a274dfbd2f89a330e4a1e1075560dd08152c9ef18b77cad09927",
            "fixture-format": "blockchain_test",
            "comment": "`execution-specs` generated test",
            "filling-transition-tool": "2.19.0",
            "description": "Test type 1 transaction.",
            "url": "https://github.com/ethereum/execution-specs/blob/tests-bal@v5.4.0/tests/berlin/eip2930_access_list/test_acl.py#L27",
            "opcode_count": {},
            "reference-spec": "https://github.com/ethereum/EIPs/blob/master/EIPS/eip-2930.md",
            "reference-spec-version": "c9db53a936c5c9cbe2db32ba0d1b86c4c6e73534"
        }
    },
    "tests/berlin/eip2930_access_list/test_acl.py::test_account_storage_warm_cold_state[fork_London-blockchain_test_from_state_test-account_warm_True-storage_key_warm_True]": {
        "network": "London",
        "genesisBlockHeader": {
            "parentHash": "0x0000000000000000000000000000000000000000000000000000000000000000",
            "uncleHash": "0x1dcc4de8dec75d7aab85b567b6ccd41ad312451b948a7413f0a142fd40d49347",
            "coinbase": "0x0000000000000000000000000000000000000000",
            "stateRoot": "0xe82356722797d811f33424defd9c3a56f7dcddd63d6324e35cd1a7492678d673",
            "transactionsTrie": "0x56e81f171bcc55a6ff8345e692c0f86e5b48e01b996cadc001622fb5e363b421",
            "receiptTrie": "0x56e81f171bcc55a6ff8345e692c0f86e5b48e01b996cadc001622fb5e363b421",
            "bloom": "0x00000000000000000000000000000000000000000000000000000000000000000000000000000000000000000000000000000000000000000000000000000000000000000000000000000000000000000000000000000000000000000000000000000000000000000000000000000000000000000000000000000000000000000000000000000000000000000000000000000000000000000000000000000000000000000000000000000000000000000000000000000000000000000000000000000000000000000000000000000000000000000000000000000000000000000000000000000000000000000000000000000000000000000000000000000000",
            "difficulty": "0x020000",
            "number": "0x00",
            "gasLimit": "0x07270e00",
            "gasUsed": "0x00",
            "timestamp": "0x00",
            "extraData": "0x00",
            "mixHash": "0x0000000000000000000000000000000000000000000000000000000000000000",
            "nonce": "0x0000000000000000",
            "baseFeePerGas": "0x07",
            "hash": "0x7bddccbc749db25ed2dc7333d9450bfce8872c1c8c9375a6dd4fa5c116c2079c"
        },
        "pre": {
            "0xb785006d936d819ee7486ab5e47f3a2ac50dc121": {
                "nonce": "0x01",
                "balance": "0x00",
                "code": "0x60015400",
                "storage": {}
            },
            "0xe9cfc5da252c55d38af259db618edfbb7abc2e92": {
                "nonce": "0x01",
                "balance": "0x00",
                "code": "0x5a6000600060006000600073b785006d936d819ee7486ab5e47f3a2ac50dc1215af15a9050900360175a5a900301900360005500",
                "storage": {}
            },
            "0x1ad9bc24818784172ff393bb6f89f094d4d2ca29": {
                "nonce": "0x00",
                "balance": "0x3635c9adc5dea00000",
                "code": "0x",
                "storage": {}
            }
        },
        "postState": {
            "0xb785006d936d819ee7486ab5e47f3a2ac50dc121": {
                "nonce": "0x01",
                "balance": "0x00",
                "code": "0x60015400",
                "storage": {}
            },
            "0xe9cfc5da252c55d38af259db618edfbb7abc2e92": {
                "nonce": "0x01",
                "balance": "0x00",
                "code": "0x5a6000600060006000600073b785006d936d819ee7486ab5e47f3a2ac50dc1215af15a9050900360175a5a900301900360005500",
                "storage": {
                    "0x00": "0xc8"
                }
            },
            "0x1ad9bc24818784172ff393bb6f89f094d4d2ca29": {
                "nonce": "0x01",
                "balance": "0x3635c9adc5de98ba2a",
                "code": "0x",
                "storage": {}
            },
            "0x2adc25665018aa1fe0e6bc666dac8fc2697ff9ba": {
                "nonce": "0x00",
                "balance": "0x1bc16d674eca2e8d",
                "code": "0x",
                "storage": {}
            }
        },
        "lastblockhash": "0xa64e39ba6ca86c4de2185194aff9775c0186d139a4c90060fce4630bc53aa71b",
        "config": {
            "network": "London",
            "chainid": "0x01"
        },
        "genesisRLP": "0xf901faf901f5a00000000000000000000000000000000000000000000000000000000000000000a01dcc4de8dec75d7aab85b567b6ccd41ad312451b948a7413f0a142fd40d49347940000000000000000000000000000000000000000a0e82356722797d811f33424defd9c3a56f7dcddd63d6324e35cd1a7492678d673a056e81f171bcc55a6ff8345e692c0f86e5b48e01b996cadc001622fb5e363b421a056e81f171bcc55a6ff8345e692c0f86e5b48e01b996cadc001622fb5e363b421b901000000000000000000000000000000000000000000000000000000000000000000000000000000000000000000000000000000000000000000000000000000000000000000000000000000000000000000000000000000000000000000000000000000000000000000000000000000000000000000000000000000000000000000000000000000000000000000000000000000000000000000000000000000000000000000000000000000000000000000000000000000000000000000000000000000000000000000000000000000000000000000000000000000000000000000000000000000000000000000000000000000000000000000000000000000000083020000808407270e00808000a0000000000000000000000000000000000000000000000000000000000000000088000000000000000007c0c0",
        "blocks": [
            {
                "blockHeader": {
                    "parentHash": "0x7bddccbc749db25ed2dc7333d9450bfce8872c1c8c9375a6dd4fa5c116c2079c",
                    "uncleHash": "0x1dcc4de8dec75d7aab85b567b6ccd41ad312451b948a7413f0a142fd40d49347",
                    "coinbase": "0x2adc25665018aa1fe0e6bc666dac8fc2697ff9ba",
                    "stateRoot": "0x4a207fc2bbe029ffb7cf7059343cef127320e7566b62a048154d1d533ab2818e",
                    "transactionsTrie": "0x0c5c25961de077fa68c2065915a57783da5a791e3a2b958f0159f2240e872969",
                    "receiptTrie": "0x10bcc6968bda08d52f2c975384d36739a2c1ac1aed7d4aca9f021fbe29aadf83",
                    "bloom": "0x00000000000000000000000000000000000000000000000000000000000000000000000000000000000000000000000000000000000000000000000000000000000000000000000000000000000000000000000000000000000000000000000000000000000000000000000000000000000000000000000000000000000000000000000000000000000000000000000000000000000000000000000000000000000000000000000000000000000000000000000000000000000000000000000000000000000000000000000000000000000000000000000000000000000000000000000000000000000000000000000000000000000000000000000000000000",
                    "difficulty": "0x020000",
                    "number": "0x01",
                    "gasLimit": "0x07270e00",
                    "gasUsed": "0xba2f",
                    "timestamp": "0x03e8",
                    "extraData": "0x00",
                    "mixHash": "0x0000000000000000000000000000000000000000000000000000000000000000",
                    "nonce": "0x0000000000000000",
                    "baseFeePerGas": "0x07",
                    "hash": "0xa64e39ba6ca86c4de2185194aff9775c0186d139a4c90060fce4630bc53aa71b"
                },
                "transactions": [
                    {
                        "type": "0x01",
                        "chainId": "0x01",
                        "nonce": "0x00",
                        "gasPrice": "0x0a",
                        "gasLimit": "0x01e974",
                        "to": "0xe9cfc5da252c55d38af259db618edfbb7abc2e92",
                        "value": "0x00",
                        "data": "0x",
                        "accessList": [
                            {
                                "address": "0xb785006d936d819ee7486ab5e47f3a2ac50dc121",
                                "storageKeys": [
                                    "0x0000000000000000000000000000000000000000000000000000000000000001"
                                ]
                            }
                        ],
                        "v": "0x00",
                        "r": "0x7bacfa40f8dd51c16bb232e81375aca88cf6c0efc6d06e560342c7e77038dbc0",
                        "s": "0x668905d4a880ca2c903c8094fec25c876c12a6a643b18fccea22ceb469352d3e",
                        "sender": "0x1ad9bc24818784172ff393bb6f89f094d4d2ca29"
                    }
                ],
                "uncleHeaders": [],
                "receipts": [
                    {
                        "transactionHash": "0x3916d927679b6a18b1eae80edf9e8b1e0cbcbc3a8ebb42638f3a4e04304ab96a",
                        "type": "0x01",
                        "cumulativeGasUsed": "0xba2f",
                        "bloom": "0x00000000000000000000000000000000000000000000000000000000000000000000000000000000000000000000000000000000000000000000000000000000000000000000000000000000000000000000000000000000000000000000000000000000000000000000000000000000000000000000000000000000000000000000000000000000000000000000000000000000000000000000000000000000000000000000000000000000000000000000000000000000000000000000000000000000000000000000000000000000000000000000000000000000000000000000000000000000000000000000000000000000000000000000000000000000",
                        "logs": [],
                        "status": true,
                        "rlp": "0x01f901080182ba2fb9010000000000000000000000000000000000000000000000000000000000000000000000000000000000000000000000000000000000000000000000000000000000000000000000000000000000000000000000000000000000000000000000000000000000000000000000000000000000000000000000000000000000000000000000000000000000000000000000000000000000000000000000000000000000000000000000000000000000000000000000000000000000000000000000000000000000000000000000000000000000000000000000000000000000000000000000000000000000000000000000000000000000000000000000000000000000c0"
                    }
                ],
                "rlp": "0xf9029ff901f9a07bddccbc749db25ed2dc7333d9450bfce8872c1c8c9375a6dd4fa5c116c2079ca01dcc4de8dec75d7aab85b567b6ccd41ad312451b948a7413f0a142fd40d49347942adc25665018aa1fe0e6bc666dac8fc2697ff9baa04a207fc2bbe029ffb7cf7059343cef127320e7566b62a048154d1d533ab2818ea00c5c25961de077fa68c2065915a57783da5a791e3a2b958f0159f2240e872969a010bcc6968bda08d52f2c975384d36739a2c1ac1aed7d4aca9f021fbe29aadf83b901000000000000000000000000000000000000000000000000000000000000000000000000000000000000000000000000000000000000000000000000000000000000000000000000000000000000000000000000000000000000000000000000000000000000000000000000000000000000000000000000000000000000000000000000000000000000000000000000000000000000000000000000000000000000000000000000000000000000000000000000000000000000000000000000000000000000000000000000000000000000000000000000000000000000000000000000000000000000000000000000000000000000000000000000000000000083020000018407270e0082ba2f8203e800a0000000000000000000000000000000000000000000000000000000000000000088000000000000000007f8a0b89e01f89b01800a8301e97494e9cfc5da252c55d38af259db618edfbb7abc2e928080f838f794b785006d936d819ee7486ab5e47f3a2ac50dc121e1a0000000000000000000000000000000000000000000000000000000000000000180a07bacfa40f8dd51c16bb232e81375aca88cf6c0efc6d06e560342c7e77038dbc0a0668905d4a880ca2c903c8094fec25c876c12a6a643b18fccea22ceb469352d3ec0",
                "blocknumber": "1"
            }
        ],
        "sealEngine": "NoProof",
        "_info": {
            "hash": "0xc6fe13960d74b6b7422b76175289527238178308c055e1cfcdcea9e48c10c74a",
            "fixture-format": "blockchain_test",
            "comment": "`execution-specs` generated test",
            "filling-transition-tool": "2.19.0",
            "description": "Test type 1 transaction.",
            "url": "https://github.com/ethereum/execution-specs/blob/tests-bal@v5.4.0/tests/berlin/eip2930_access_list/test_acl.py#L27",
            "opcode_count": {},
            "reference-spec": "https://github.com/ethereum/EIPs/blob/master/EIPS/eip-2930.md",
            "reference-spec-version": "c9db53a936c5c9cbe2db32ba0d1b86c4c6e73534"
        }
    }
}