{
    "tests/ported_static/stMemExpandingEIP150Calls/test_call_ask_more_gas_on_depth2_then_transaction_has_with_mem_expanding_calls.py::test_call_ask_more_gas_on_depth2_then_transaction_has_with_mem_expanding_calls[fork_Cancun-blockchain_test_from_state_test]": {
        "network": "Cancun",
        "genesisBlockHeader": {
            "parentHash": "0x0000000000000000000000000000000000000000000000000000000000000000",
            "uncleHash": "0x1dcc4de8dec75d7aab85b567b6ccd41ad312451b948a7413f0a142fd40d49347",
            "coinbase": "0x0000000000000000000000000000000000000000",
            "stateRoot": "0x3957c2b5d722dc5b7f6ce25fc7470d9776da0530063dc3840af7408917ddc20e",
            "transactionsTrie": "0x56e81f171bcc55a6ff8345e692c0f86e5b48e01b996cadc001622fb5e363b421",
            "receiptTrie": "0x56e81f171bcc55a6ff8345e692c0f86e5b48e01b996cadc001622fb5e363b421",
            "bloom": "0x00000000000000000000000000000000000000000000000000000000000000000000000000000000000000000000000000000000000000000000000000000000000000000000000000000000000000000000000000000000000000000000000000000000000000000000000000000000000000000000000000000000000000000000000000000000000000000000000000000000000000000000000000000000000000000000000000000000000000000000000000000000000000000000000000000000000000000000000000000000000000000000000000000000000000000000000000000000000000000000000000000000000000000000000000000000",
            "difficulty": "0x00",
            "number": "0x00",
            "gasLimit": "0x989680",
            "gasUsed": "0x00",
            "timestamp": "0x00",
            "extraData": "0x00",
            "mixHash": "0x0000000000000000000000000000000000000000000000000000000000000000",
            "nonce": "0x0000000000000000",
            "baseFeePerGas": "0x0b",
            "withdrawalsRoot": "0x56e81f171bcc55a6ff8345e692c0f86e5b48e01b996cadc001622fb5e363b421",
            "blobGasUsed": "0x00",
            "excessBlobGas": "0x00",
            "parentBeaconBlockRoot": "0x0000000000000000000000000000000000000000000000000000000000000000",
            "hash": "0xa6d02063e65815a69c6d1774f26e763c58d9cf7d04176b5b697ec47d34be04e2"
        },
        "pre": {
            "0x000f3df6d732807ef1319fb7b8bb8522d0beac02": {
                "nonce": "0x01",
                "balance": "0x00",
                "code": "0x3373fffffffffffffffffffffffffffffffffffffffe14604d57602036146024575f5ffd5b5f35801560495762001fff810690815414603c575f5ffd5b62001fff01545f5260205ff35b5f5ffd5b62001fff42064281555f359062001fff015500",
                "storage": {}
            },
            "0xd719ccdb2301950b0a0bdf09a2bb1d5f8b225f6f": {
                "nonce": "0x00",
                "balance": "0xe8d4a51000",
                "code": "0x",
                "storage": {}
            },
            "0x2234ad9af016eacd8bf395d4297c9d952d56d75b": {
                "nonce": "0x00",
                "balance": "0x00",
                "code": "0x5a600855",
                "storage": {}
            },
            "0x91f3c531ef81891c15b1fa14c6089c64802eba2e": {
                "nonce": "0x00",
                "balance": "0x00",
                "code": "0x5a60085560ff60ff60ff60ff6000732234ad9af016eacd8bf395d4297c9d952d56d75b620927c0f1600955",
                "storage": {}
            },
            "0x394cd50da048d622bcfe560ab7ffb09065d53ff9": {
                "nonce": "0x00",
                "balance": "0x00",
                "code": "0x5a60085560ff60ff60ff60ff60007391f3c531ef81891c15b1fa14c6089c64802eba2e62030d40f1600955",
                "storage": {}
            }
        },
        "postState": {
            "0x000f3df6d732807ef1319fb7b8bb8522d0beac02": {
                "nonce": "0x01",
                "balance": "0x00",
                "code": "0x3373fffffffffffffffffffffffffffffffffffffffe14604d57602036146024575f5ffd5b5f35801560495762001fff810690815414603c575f5ffd5b62001fff01545f5260205ff35b5f5ffd5b62001fff42064281555f359062001fff015500",
                "storage": {
                    "0x03e8": "0x03e8"
                }
            },
            "0xd719ccdb2301950b0a0bdf09a2bb1d5f8b225f6f": {
                "nonce": "0x01",
                "balance": "0xe8d4902df2",
                "code": "0x",
                "storage": {}
            },
            "0x2234ad9af016eacd8bf395d4297c9d952d56d75b": {
                "nonce": "0x00",
                "balance": "0x00",
                "code": "0x5a600855",
                "storage": {
                    "0x08": "0x02a1c7"
                }
            },
            "0x91f3c531ef81891c15b1fa14c6089c64802eba2e": {
                "nonce": "0x00",
                "balance": "0x00",
                "code": "0x5a60085560ff60ff60ff60ff6000732234ad9af016eacd8bf395d4297c9d952d56d75b620927c0f1600955",
                "storage": {
                    "0x08": "0x030d3e",
                    "0x09": "0x01"
                }
            },
            "0x394cd50da048d622bcfe560ab7ffb09065d53ff9": {
                "nonce": "0x00",
                "balance": "0x00",
                "code": "0x5a60085560ff60ff60ff60ff60007391f3c531ef81891c15b1fa14c6089c64802eba2e62030d40f1600955",
                "storage": {
                    "0x08": "0x08d5b6",
                    "0x09": "0x01"
                }
            }
        },
        "lastblockhash": "0xd4dedb0da1d5e6e877846c852016dfeb7bd2cb15a167ce9226fb3219564bdf20",
        "config": {
            "network": "Cancun",
            "chainid": "0x01",
            "blobSchedule": {
                "Cancun": {
                    "target": "0x03",
                    "max": "0x06",
                    "baseFeeUpdateFraction": "0x32f0ed"
                }
            }
        },
        "genesisRLP": "0xf9023bf90235a00000000000000000000000000000000000000000000000000000000000000000a01dcc4de8dec75d7aab85b567b6ccd41ad312451b948a7413f0a142fd40d49347940000000000000000000000000000000000000000a03957c2b5d722dc5b7f6ce25fc7470d9776da0530063dc3840af7408917ddc20ea056e81f171bcc55a6ff8345e692c0f86e5b48e01b996cadc001622fb5e363b421a056e81f171bcc55a6ff8345e692c0f86e5b48e01b996cadc001622fb5e363b421b9010000000000000000000000000000000000000000000000000000000000000000000000000000000000000000000000000000000000000000000000000000000000000000000000000000000000000000000000000000000000000000000000000000000000000000000000000000000000000000000000000000000000000000000000000000000000000000000000000000000000000000000000000000000000000000000000000000000000000000000000000000000000000000000000000000000000000000000000000000000000000000000000000000000000000000000000000000000000000000000000000000000000000000000000000000000000808083989680808000a000000000000000000000000000000000000000000000000000000000000000008800000000000000000ba056e81f171bcc55a6ff8345e692c0f86e5b48e01b996cadc001622fb5e363b4218080a00000000000000000000000000000000000000000000000000000000000000000c0c0c0",
        "blocks": [
            {
                "blockHeader": {
                    "parentHash": "0xa6d02063e65815a69c6d1774f26e763c58d9cf7d04176b5b697ec47d34be04e2",
                    "uncleHash": "0x1dcc4de8dec75d7aab85b567b6ccd41ad312451b948a7413f0a142fd40d49347",
                    "coinbase": "0x2adc25665018aa1fe0e6bc666dac8fc2697ff9ba",
                    "stateRoot": "0xf12f9cd6eea74e57cb3eb41e9249544edd4c12b8deb069e26d25bad1ecc73e08",
                    "transactionsTrie": "0xd020fd93e365906d45500ca18095638f056753a1fe047df8dadf1e167c5d79d2",
                    "receiptTrie": "0xcfe1bcd238722e8cf03cde9d408384a6f18a10228466cc8fc90c92971217f5c1",
                    "bloom": "0x00000000000000000000000000000000000000000000000000000000000000000000000000000000000000000000000000000000000000000000000000000000000000000000000000000000000000000000000000000000000000000000000000000000000000000000000000000000000000000000000000000000000000000000000000000000000000000000000000000000000000000000000000000000000000000000000000000000000000000000000000000000000000000000000000000000000000000000000000000000000000000000000000000000000000000000000000000000000000000000000000000000000000000000000000000000",
                    "difficulty": "0x00",
                    "number": "0x01",
                    "gasLimit": "0x989680",
                    "gasUsed": "0x02169b",
                    "timestamp": "0x03e8",
                    "extraData": "0x00",
                    "mixHash": "0x0000000000000000000000000000000000000000000000000000000000020000",
                    "nonce": "0x0000000000000000",
                    "baseFeePerGas": "0x0a",
                    "withdrawalsRoot": "0x56e81f171bcc55a6ff8345e692c0f86e5b48e01b996cadc001622fb5e363b421",
                    "blobGasUsed": "0x00",
                    "excessBlobGas": "0x00",
                    "parentBeaconBlockRoot": "0x0000000000000000000000000000000000000000000000000000000000000000",
                    "hash": "0xd4dedb0da1d5e6e877846c852016dfeb7bd2cb15a167ce9226fb3219564bdf20"
                },
                "transactions": [
                    {
                        "type": "0x00",
                        "chainId": "0x01",
                        "nonce": "0x00",
                        "gasPrice": "0x0a",
                        "gasLimit": "0x0927c0",
                        "to": "0x394cd50da048d622bcfe560ab7ffb09065d53ff9",
                        "value": "0x00",
                        "data": "0x",
                        "v": "0x26",
                        "r": "0x56122886bba4ec70910a74165a97d08ad021af77f340693a24a8380096bbe354",
                        "s": "0x18e191f6152491fc677fb4b24fc8e7734d48e26c3cd97746466a846a3c64e656",
                        "sender": "0xd719ccdb2301950b0a0bdf09a2bb1d5f8b225f6f"
                    }
                ],
                "uncleHeaders": [],
                "withdrawals": [],
                "receipts": [
                    {
                        "transactionHash": "0x13102562d41d228d678b161ed1b295e983f97cbf81ffe67c54f05600aa5ad2be",
                        "type": "0x00",
                        "cumulativeGasUsed": "0x02169b",
                        "bloom": "0x00000000000000000000000000000000000000000000000000000000000000000000000000000000000000000000000000000000000000000000000000000000000000000000000000000000000000000000000000000000000000000000000000000000000000000000000000000000000000000000000000000000000000000000000000000000000000000000000000000000000000000000000000000000000000000000000000000000000000000000000000000000000000000000000000000000000000000000000000000000000000000000000000000000000000000000000000000000000000000000000000000000000000000000000000000000",
                        "logs": [],
                        "status": true,
                        "rlp": "0xf90109018302169bb9010000000000000000000000000000000000000000000000000000000000000000000000000000000000000000000000000000000000000000000000000000000000000000000000000000000000000000000000000000000000000000000000000000000000000000000000000000000000000000000000000000000000000000000000000000000000000000000000000000000000000000000000000000000000000000000000000000000000000000000000000000000000000000000000000000000000000000000000000000000000000000000000000000000000000000000000000000000000000000000000000000000000000000000000000000000000c0"
                    }
                ],
                "rlp": "0xf902a3f9023aa0a6d02063e65815a69c6d1774f26e763c58d9cf7d04176b5b697ec47d34be04e2a01dcc4de8dec75d7aab85b567b6ccd41ad312451b948a7413f0a142fd40d49347942adc25665018aa1fe0e6bc666dac8fc2697ff9baa0f12f9cd6eea74e57cb3eb41e9249544edd4c12b8deb069e26d25bad1ecc73e08a0d020fd93e365906d45500ca18095638f056753a1fe047df8dadf1e167c5d79d2a0cfe1bcd238722e8cf03cde9d408384a6f18a10228466cc8fc90c92971217f5c1b90100000000000000000000000000000000000000000000000000000000000000000000000000000000000000000000000000000000000000000000000000000000000000000000000000000000000000000000000000000000000000000000000000000000000000000000000000000000000000000000000000000000000000000000000000000000000000000000000000000000000000000000000000000000000000000000000000000000000000000000000000000000000000000000000000000000000000000000000000000000000000000000000000000000000000000000000000000000000000000000000000000000000000000000000000000000008001839896808302169b8203e800a000000000000000000000000000000000000000000000000000000000000200008800000000000000000aa056e81f171bcc55a6ff8345e692c0f86e5b48e01b996cadc001622fb5e363b4218080a00000000000000000000000000000000000000000000000000000000000000000f862f860800a830927c094394cd50da048d622bcfe560ab7ffb09065d53ff9808026a056122886bba4ec70910a74165a97d08ad021af77f340693a24a8380096bbe354a018e191f6152491fc677fb4b24fc8e7734d48e26c3cd97746466a846a3c64e656c0c0",
                "blocknumber": "1"
            }
        ],
        "sealEngine": "NoProof",
        "_info": {
            "hash": "0x9546d87a512c6135a3c85f56dbbc92679c16e57985c119107bf8b62375c51d94",
            "fixture-format": "blockchain_test",
            "comment": "`execution-specs` generated test",
            "filling-transition-tool": "2.19.0",
            "description": "Test_call_ask_more_gas_on_depth2_then_transaction_has_with_mem_expa...",
            "url": "https://github.com/ethereum/execution-specs/blob/tests-snobal-devnet-5@v8037.0.0/tests/ported_static/stMemExpandingEIP150Calls/test_call_ask_more_gas_on_depth2_then_transaction_has_with_mem_expanding_calls.py#L24",
            "metadata": {
                "opcode_count": {}
            },
            "reference-spec": "https://github.com/ethereum/EIPs/blob/master/N/A",
            "reference-spec-version": "N/A"
        }
    }
}