{
    "tests/ported_static/stEIP1153_transientStorage/test_10_revert_undoes_store_after_return.py::test_10_revert_undoes_store_after_return[fork_Cancun-blockchain_test_from_state_test]": {
        "network": "Cancun",
        "genesisBlockHeader": {
            "parentHash": "0x0000000000000000000000000000000000000000000000000000000000000000",
            "uncleHash": "0x1dcc4de8dec75d7aab85b567b6ccd41ad312451b948a7413f0a142fd40d49347",
            "coinbase": "0x0000000000000000000000000000000000000000",
            "stateRoot": "0xf9383c5e10bafaee0119a2e3c7c96c6990b50bc8bcfb5bcd49ac3b1c2c809d9e",
            "transactionsTrie": "0x56e81f171bcc55a6ff8345e692c0f86e5b48e01b996cadc001622fb5e363b421",
            "receiptTrie": "0x56e81f171bcc55a6ff8345e692c0f86e5b48e01b996cadc001622fb5e363b421",
            "bloom": "0x00000000000000000000000000000000000000000000000000000000000000000000000000000000000000000000000000000000000000000000000000000000000000000000000000000000000000000000000000000000000000000000000000000000000000000000000000000000000000000000000000000000000000000000000000000000000000000000000000000000000000000000000000000000000000000000000000000000000000000000000000000000000000000000000000000000000000000000000000000000000000000000000000000000000000000000000000000000000000000000000000000000000000000000000000000000",
            "difficulty": "0x00",
            "number": "0x00",
            "gasLimit": "0x07270e00",
            "gasUsed": "0x00",
            "timestamp": "0x00",
            "extraData": "0x00",
            "mixHash": "0x0000000000000000000000000000000000000000000000000000000000000000",
            "nonce": "0x0000000000000000",
            "baseFeePerGas": "0x0b",
            "withdrawalsRoot": "0x56e81f171bcc55a6ff8345e692c0f86e5b48e01b996cadc001622fb5e363b421",
            "blobGasUsed": "0x00",
            "excessBlobGas": "0x00",
            "parentBeaconBlockRoot": "0x0000000000000000000000000000000000000000000000000000000000000000",
            "hash": "0xbde56eeca396aaebc478e99869b7fa15b5d4c875d04f1fe4b0ea81285e40b6ae"
        },
        "pre": {
            "0x000f3df6d732807ef1319fb7b8bb8522d0beac02": {
                "nonce": "0x01",
                "balance": "0x00",
                "code": "0x3373fffffffffffffffffffffffffffffffffffffffe14604d57602036146024575f5ffd5b5f35801560495762001fff810690815414603c575f5ffd5b62001fff01545f5260205ff35b5f5ffd5b62001fff42064281555f359062001fff015500",
                "storage": {}
            },
            "0x1ad9bc24818784172ff393bb6f89f094d4d2ca29": {
                "nonce": "0x00",
                "balance": "0x3635c9adc5dea00000",
                "code": "0x",
                "storage": {}
            },
            "0xcdaa2f7204b643df9c534a3d474fd6689cec1c66": {
                "nonce": "0x00",
                "balance": "0x0de0b6b3a7640000",
                "code": "0x5f3560e01c806370ac643e14602f57806376b85d2314602b57634ccca55314602357005b60296076565b005b605c565b50602960055f5d5f5c5f556376b85d2360e01b5f5260205f818180305af16001555f516002555f5c600355565b634ccca55360e01b5f525f8060208180305af15f5260205ffd5b60065f5d56",
                "storage": {
                    "0x01": "0xffff"
                }
            }
        },
        "postState": {
            "0x000f3df6d732807ef1319fb7b8bb8522d0beac02": {
                "nonce": "0x01",
                "balance": "0x00",
                "code": "0x3373fffffffffffffffffffffffffffffffffffffffe14604d57602036146024575f5ffd5b5f35801560495762001fff810690815414603c575f5ffd5b62001fff01545f5260205ff35b5f5ffd5b62001fff42064281555f359062001fff015500",
                "storage": {
                    "0x03e8": "0x03e8"
                }
            },
            "0x1ad9bc24818784172ff393bb6f89f094d4d2ca29": {
                "nonce": "0x01",
                "balance": "0x3635c9adc5de927f66",
                "code": "0x",
                "storage": {}
            },
            "0xcdaa2f7204b643df9c534a3d474fd6689cec1c66": {
                "nonce": "0x00",
                "balance": "0x0de0b6b3a7640000",
                "code": "0x5f3560e01c806370ac643e14602f57806376b85d2314602b57634ccca55314602357005b60296076565b005b605c565b50602960055f5d5f5c5f556376b85d2360e01b5f5260205f818180305af16001555f516002555f5c600355565b634ccca55360e01b5f525f8060208180305af15f5260205ffd5b60065f5d56",
                "storage": {
                    "0x00": "0x05",
                    "0x02": "0x01",
                    "0x03": "0x05"
                }
            }
        },
        "lastblockhash": "0xcdb5ef26130a2ebc4c6041f2efb2ccea4164e0237591306c01d91dab392990fa",
        "config": {
            "network": "Cancun",
            "chainid": "0x01",
            "blobSchedule": {
                "Cancun": {
                    "target": "0x03",
                    "max": "0x06",
                    "baseFeeUpdateFraction": "0x32f0ed"
                }
            }
        },
        "genesisRLP": "0xf9023cf90236a00000000000000000000000000000000000000000000000000000000000000000a01dcc4de8dec75d7aab85b567b6ccd41ad312451b948a7413f0a142fd40d49347940000000000000000000000000000000000000000a0f9383c5e10bafaee0119a2e3c7c96c6990b50bc8bcfb5bcd49ac3b1c2c809d9ea056e81f171bcc55a6ff8345e692c0f86e5b48e01b996cadc001622fb5e363b421a056e81f171bcc55a6ff8345e692c0f86e5b48e01b996cadc001622fb5e363b421b901000000000000000000000000000000000000000000000000000000000000000000000000000000000000000000000000000000000000000000000000000000000000000000000000000000000000000000000000000000000000000000000000000000000000000000000000000000000000000000000000000000000000000000000000000000000000000000000000000000000000000000000000000000000000000000000000000000000000000000000000000000000000000000000000000000000000000000000000000000000000000000000000000000000000000000000000000000000000000000000000000000000000000000000000000000000080808407270e00808000a000000000000000000000000000000000000000000000000000000000000000008800000000000000000ba056e81f171bcc55a6ff8345e692c0f86e5b48e01b996cadc001622fb5e363b4218080a00000000000000000000000000000000000000000000000000000000000000000c0c0c0",
        "blocks": [
            {
                "blockHeader": {
                    "parentHash": "0xbde56eeca396aaebc478e99869b7fa15b5d4c875d04f1fe4b0ea81285e40b6ae",
                    "uncleHash": "0x1dcc4de8dec75d7aab85b567b6ccd41ad312451b948a7413f0a142fd40d49347",
                    "coinbase": "0x2adc25665018aa1fe0e6bc666dac8fc2697ff9ba",
                    "stateRoot": "0x5697271b617134f26e8fbaa0649aaa777b82cbdbd3f3c5dd5a7d80783b9ced2a",
                    "transactionsTrie": "0xaf99d09f429ddeb01f82b80292dc39a48f40ab0c06a0826b9b2a8f2a87dab0f6",
                    "receiptTrie": "0xb4c87f24354d08cf9236e562c41d084f952ebe2eeaebbda7c7dc37b7e8250960",
                    "bloom": "0x00000000000000000000000000000000000000000000000000000000000000000000000000000000000000000000000000000000000000000000000000000000000000000000000000000000000000000000000000000000000000000000000000000000000000000000000000000000000000000000000000000000000000000000000000000000000000000000000000000000000000000000000000000000000000000000000000000000000000000000000000000000000000000000000000000000000000000000000000000000000000000000000000000000000000000000000000000000000000000000000000000000000000000000000000000000",
                    "difficulty": "0x00",
                    "number": "0x01",
                    "gasLimit": "0x07270e00",
                    "gasUsed": "0x0159a9",
                    "timestamp": "0x03e8",
                    "extraData": "0x00",
                    "mixHash": "0x0000000000000000000000000000000000000000000000000000000000020000",
                    "nonce": "0x0000000000000000",
                    "baseFeePerGas": "0x0a",
                    "withdrawalsRoot": "0x56e81f171bcc55a6ff8345e692c0f86e5b48e01b996cadc001622fb5e363b421",
                    "blobGasUsed": "0x00",
                    "excessBlobGas": "0x00",
                    "parentBeaconBlockRoot": "0x0000000000000000000000000000000000000000000000000000000000000000",
                    "hash": "0xcdb5ef26130a2ebc4c6041f2efb2ccea4164e0237591306c01d91dab392990fa"
                },
                "transactions": [
                    {
                        "type": "0x02",
                        "chainId": "0x01",
                        "nonce": "0x00",
                        "maxPriorityFeePerGas": "0x00",
                        "maxFeePerGas": "0x07d0",
                        "gasLimit": "0x061a80",
                        "to": "0xcdaa2f7204b643df9c534a3d474fd6689cec1c66",
                        "value": "0x00",
                        "data": "0x70ac643e",
                        "accessList": [],
                        "v": "0x00",
                        "r": "0x15aa255a78490076ac6015d436e5cd44534c8ff1597f5520c595fec74657809b",
                        "s": "0x7a771101813af3295bf87b46ee0e18ba62412122c1ec1d28857a9e0f2463f1bd",
                        "sender": "0x1ad9bc24818784172ff393bb6f89f094d4d2ca29"
                    }
                ],
                "uncleHeaders": [],
                "withdrawals": [],
                "receipts": [
                    {
                        "transactionHash": "0xf448eeedac7a90310cd85847d6e4c760a31e60e91945580531438d9316770f9c",
                        "type": "0x02",
                        "cumulativeGasUsed": "0x0159a9",
                        "bloom": "0x00000000000000000000000000000000000000000000000000000000000000000000000000000000000000000000000000000000000000000000000000000000000000000000000000000000000000000000000000000000000000000000000000000000000000000000000000000000000000000000000000000000000000000000000000000000000000000000000000000000000000000000000000000000000000000000000000000000000000000000000000000000000000000000000000000000000000000000000000000000000000000000000000000000000000000000000000000000000000000000000000000000000000000000000000000000",
                        "logs": [],
                        "status": true,
                        "rlp": "0x02f9010901830159a9b9010000000000000000000000000000000000000000000000000000000000000000000000000000000000000000000000000000000000000000000000000000000000000000000000000000000000000000000000000000000000000000000000000000000000000000000000000000000000000000000000000000000000000000000000000000000000000000000000000000000000000000000000000000000000000000000000000000000000000000000000000000000000000000000000000000000000000000000000000000000000000000000000000000000000000000000000000000000000000000000000000000000000000000000000000000000000c0"
                    }
                ],
                "rlp": "0xf902b0f9023ba0bde56eeca396aaebc478e99869b7fa15b5d4c875d04f1fe4b0ea81285e40b6aea01dcc4de8dec75d7aab85b567b6ccd41ad312451b948a7413f0a142fd40d49347942adc25665018aa1fe0e6bc666dac8fc2697ff9baa05697271b617134f26e8fbaa0649aaa777b82cbdbd3f3c5dd5a7d80783b9ced2aa0af99d09f429ddeb01f82b80292dc39a48f40ab0c06a0826b9b2a8f2a87dab0f6a0b4c87f24354d08cf9236e562c41d084f952ebe2eeaebbda7c7dc37b7e8250960b901000000000000000000000000000000000000000000000000000000000000000000000000000000000000000000000000000000000000000000000000000000000000000000000000000000000000000000000000000000000000000000000000000000000000000000000000000000000000000000000000000000000000000000000000000000000000000000000000000000000000000000000000000000000000000000000000000000000000000000000000000000000000000000000000000000000000000000000000000000000000000000000000000000000000000000000000000000000000000000000000000000000000000000000000000000000080018407270e00830159a98203e800a000000000000000000000000000000000000000000000000000000000000200008800000000000000000aa056e81f171bcc55a6ff8345e692c0f86e5b48e01b996cadc001622fb5e363b4218080a00000000000000000000000000000000000000000000000000000000000000000f86eb86c02f8690180808207d083061a8094cdaa2f7204b643df9c534a3d474fd6689cec1c66808470ac643ec080a015aa255a78490076ac6015d436e5cd44534c8ff1597f5520c595fec74657809ba07a771101813af3295bf87b46ee0e18ba62412122c1ec1d28857a9e0f2463f1bdc0c0",
                "blocknumber": "1"
            }
        ],
        "sealEngine": "NoProof",
        "_info": {
            "hash": "0xde65004c526d7f8a671ea0327a566f0fbe026f3c76872522f946205a17bed1ca",
            "fixture-format": "blockchain_test",
            "comment": "`execution-specs` generated test",
            "filling-transition-tool": "2.19.0",
            "description": "Revert undoes the transient storage writes after a successful call.",
            "url": "https://github.com/ethereum/execution-specs/blob/tests-snobal-devnet-5@v8037.0.0/tests/ported_static/stEIP1153_transientStorage/test_10_revert_undoes_store_after_return.py#L24",
            "metadata": {
                "opcode_count": {}
            },
            "reference-spec": "https://github.com/ethereum/EIPs/blob/master/N/A",
            "reference-spec-version": "N/A"
        }
    }
}