{
    "tests/ported_static/stStaticCall/test_static_ab_acalls0.py::test_static_ab_acalls0[fork_Cancun-blockchain_test_from_state_test-d0]": {
        "network": "Cancun",
        "genesisBlockHeader": {
            "parentHash": "0x0000000000000000000000000000000000000000000000000000000000000000",
            "uncleHash": "0x1dcc4de8dec75d7aab85b567b6ccd41ad312451b948a7413f0a142fd40d49347",
            "coinbase": "0x0000000000000000000000000000000000000000",
            "stateRoot": "0x02690d7f22742f54fa6ab30d55823220f170187aa212fec64317127a68845cbb",
            "transactionsTrie": "0x56e81f171bcc55a6ff8345e692c0f86e5b48e01b996cadc001622fb5e363b421",
            "receiptTrie": "0x56e81f171bcc55a6ff8345e692c0f86e5b48e01b996cadc001622fb5e363b421",
            "bloom": "0x00000000000000000000000000000000000000000000000000000000000000000000000000000000000000000000000000000000000000000000000000000000000000000000000000000000000000000000000000000000000000000000000000000000000000000000000000000000000000000000000000000000000000000000000000000000000000000000000000000000000000000000000000000000000000000000000000000000000000000000000000000000000000000000000000000000000000000000000000000000000000000000000000000000000000000000000000000000000000000000000000000000000000000000000000000000",
            "difficulty": "0x00",
            "number": "0x00",
            "gasLimit": "0x989680",
            "gasUsed": "0x00",
            "timestamp": "0x00",
            "extraData": "0x00",
            "mixHash": "0x0000000000000000000000000000000000000000000000000000000000000000",
            "nonce": "0x0000000000000000",
            "baseFeePerGas": "0x0b",
            "withdrawalsRoot": "0x56e81f171bcc55a6ff8345e692c0f86e5b48e01b996cadc001622fb5e363b421",
            "blobGasUsed": "0x00",
            "excessBlobGas": "0x00",
            "parentBeaconBlockRoot": "0x0000000000000000000000000000000000000000000000000000000000000000",
            "hash": "0xfb4595e4ee575fce6231808337e3c272fe5027d58345b4d17683cf1d5d194133"
        },
        "pre": {
            "0x000f3df6d732807ef1319fb7b8bb8522d0beac02": {
                "nonce": "0x01",
                "balance": "0x00",
                "code": "0x3373fffffffffffffffffffffffffffffffffffffffe14604d57602036146024575f5ffd5b5f35801560495762001fff810690815414603c575f5ffd5b62001fff01545f5260205ff35b5f5ffd5b62001fff42064281555f359062001fff015500",
                "storage": {}
            },
            "0xd66f224cbd2fabb21b17bb53c56118f32f62ebd6": {
                "nonce": "0x00",
                "balance": "0x0de0b6b3a7640000",
                "code": "0x",
                "storage": {}
            },
            "0xfddb268f64fd5a90f618bbee0bd38e0c24b0a945": {
                "nonce": "0x00",
                "balance": "0x0de0b6b3a7640000",
                "code": "0x6000600060006000346000355af1600055600160015500",
                "storage": {}
            },
            "0xc54c4be163add3cc0efe5268a599a308dab12c74": {
                "nonce": "0x00",
                "balance": "0x0de0b6b3a7640000",
                "code": "0x6000600060006000739a95017e0dbf52bb87ddfda883b69d6188d574ca620186a0fa585500",
                "storage": {}
            },
            "0x9a95017e0dbf52bb87ddfda883b69d6188d574ca": {
                "nonce": "0x00",
                "balance": "0x17",
                "code": "0x600060006000600073c54c4be163add3cc0efe5268a599a308dab12c7461c350fa600101585500",
                "storage": {}
            },
            "0x7a365d98665a08e6ed6c1638c8ea6775fa649048": {
                "nonce": "0x00",
                "balance": "0x0de0b6b3a7640000",
                "code": "0x58600152600060006000600073718a83e869d6f4dea50a650b9825cbfe683bdf16620186a0fa00",
                "storage": {}
            },
            "0x718a83e869d6f4dea50a650b9825cbfe683bdf16": {
                "nonce": "0x00",
                "balance": "0x17",
                "code": "0x586001526000600060006000737a365d98665a08e6ed6c1638c8ea6775fa64904861c350fa00",
                "storage": {}
            }
        },
        "postState": {
            "0x000f3df6d732807ef1319fb7b8bb8522d0beac02": {
                "nonce": "0x01",
                "balance": "0x00",
                "code": "0x3373fffffffffffffffffffffffffffffffffffffffe14604d57602036146024575f5ffd5b5f35801560495762001fff810690815414603c575f5ffd5b62001fff01545f5260205ff35b5f5ffd5b62001fff42064281555f359062001fff015500",
                "storage": {
                    "0x03e8": "0x03e8"
                }
            },
            "0xd66f224cbd2fabb21b17bb53c56118f32f62ebd6": {
                "nonce": "0x01",
                "balance": "0x0de0b6b3a7470d1a",
                "code": "0x",
                "storage": {}
            },
            "0xfddb268f64fd5a90f618bbee0bd38e0c24b0a945": {
                "nonce": "0x00",
                "balance": "0x0de0b6b3a7640000",
                "code": "0x6000600060006000346000355af1600055600160015500",
                "storage": {
                    "0x00": "0x01",
                    "0x01": "0x01"
                }
            },
            "0xc54c4be163add3cc0efe5268a599a308dab12c74": {
                "nonce": "0x00",
                "balance": "0x0de0b6b3a76586a0",
                "code": "0x6000600060006000739a95017e0dbf52bb87ddfda883b69d6188d574ca620186a0fa585500",
                "storage": {}
            },
            "0x9a95017e0dbf52bb87ddfda883b69d6188d574ca": {
                "nonce": "0x00",
                "balance": "0x17",
                "code": "0x600060006000600073c54c4be163add3cc0efe5268a599a308dab12c7461c350fa600101585500",
                "storage": {}
            },
            "0x7a365d98665a08e6ed6c1638c8ea6775fa649048": {
                "nonce": "0x00",
                "balance": "0x0de0b6b3a7640000",
                "code": "0x58600152600060006000600073718a83e869d6f4dea50a650b9825cbfe683bdf16620186a0fa00",
                "storage": {}
            },
            "0x718a83e869d6f4dea50a650b9825cbfe683bdf16": {
                "nonce": "0x00",
                "balance": "0x17",
                "code": "0x586001526000600060006000737a365d98665a08e6ed6c1638c8ea6775fa64904861c350fa00",
                "storage": {}
            }
        },
        "lastblockhash": "0xe84b63ce19f99999cb6c9d9b96c54733cf3c7a404db006c05d77174ab4b400f4",
        "config": {
            "network": "Cancun",
            "chainid": "0x01",
            "blobSchedule": {
                "Cancun": {
                    "target": "0x03",
                    "max": "0x06",
                    "baseFeeUpdateFraction": "0x32f0ed"
                }
            }
        },
        "genesisRLP": "0xf9023bf90235a00000000000000000000000000000000000000000000000000000000000000000a01dcc4de8dec75d7aab85b567b6ccd41ad312451b948a7413f0a142fd40d49347940000000000000000000000000000000000000000a002690d7f22742f54fa6ab30d55823220f170187aa212fec64317127a68845cbba056e81f171bcc55a6ff8345e692c0f86e5b48e01b996cadc001622fb5e363b421a056e81f171bcc55a6ff8345e692c0f86e5b48e01b996cadc001622fb5e363b421b9010000000000000000000000000000000000000000000000000000000000000000000000000000000000000000000000000000000000000000000000000000000000000000000000000000000000000000000000000000000000000000000000000000000000000000000000000000000000000000000000000000000000000000000000000000000000000000000000000000000000000000000000000000000000000000000000000000000000000000000000000000000000000000000000000000000000000000000000000000000000000000000000000000000000000000000000000000000000000000000000000000000000000000000000000000000000808083989680808000a000000000000000000000000000000000000000000000000000000000000000008800000000000000000ba056e81f171bcc55a6ff8345e692c0f86e5b48e01b996cadc001622fb5e363b4218080a00000000000000000000000000000000000000000000000000000000000000000c0c0c0",
        "blocks": [
            {
                "blockHeader": {
                    "parentHash": "0xfb4595e4ee575fce6231808337e3c272fe5027d58345b4d17683cf1d5d194133",
                    "uncleHash": "0x1dcc4de8dec75d7aab85b567b6ccd41ad312451b948a7413f0a142fd40d49347",
                    "coinbase": "0x2adc25665018aa1fe0e6bc666dac8fc2697ff9ba",
                    "stateRoot": "0xfc632b397c6dad1a9492d3e352072334d18297751c7bae18ad0ff199f7aa05ed",
                    "transactionsTrie": "0x1ca3362bf17498bdf8ee9f5aee6cb7d479b07f85fe93686f422e48e483f04713",
                    "receiptTrie": "0x0e1cc684f9d62222ad8f46e80489c8230ced3d1d864f28384ff338a496d5d15d",
                    "bloom": "0x00000000000000000000000000000000000000000000000000000000000000000000000000000000000000000000000000000000000000000000000000000000000000000000000000000000000000000000000000000000000000000000000000000000000000000000000000000000000000000000000000000000000000000000000000000000000000000000000000000000000000000000000000000000000000000000000000000000000000000000000000000000000000000000000000000000000000000000000000000000000000000000000000000000000000000000000000000000000000000000000000000000000000000000000000000000",
                    "difficulty": "0x00",
                    "number": "0x01",
                    "gasLimit": "0x989680",
                    "gasUsed": "0x02be07",
                    "timestamp": "0x03e8",
                    "extraData": "0x00",
                    "mixHash": "0x0000000000000000000000000000000000000000000000000000000000020000",
                    "nonce": "0x0000000000000000",
                    "baseFeePerGas": "0x0a",
                    "withdrawalsRoot": "0x56e81f171bcc55a6ff8345e692c0f86e5b48e01b996cadc001622fb5e363b421",
                    "blobGasUsed": "0x00",
                    "excessBlobGas": "0x00",
                    "parentBeaconBlockRoot": "0x0000000000000000000000000000000000000000000000000000000000000000",
                    "hash": "0xe84b63ce19f99999cb6c9d9b96c54733cf3c7a404db006c05d77174ab4b400f4"
                },
                "transactions": [
                    {
                        "type": "0x00",
                        "chainId": "0x01",
                        "nonce": "0x00",
                        "gasPrice": "0x0a",
                        "gasLimit": "0x0f4240",
                        "to": "0xfddb268f64fd5a90f618bbee0bd38e0c24b0a945",
                        "value": "0x0186a0",
                        "data": "0x000000000000000000000000c54c4be163add3cc0efe5268a599a308dab12c74",
                        "v": "0x25",
                        "r": "0x5059df894f8164a337cef493af1426de5bcd1e3873e407113a19df4be09a5233",
                        "s": "0x27caddb280721d4621af6fb3ad5b0aa0dc504840725d6fcb388934e6d091fb9e",
                        "sender": "0xd66f224cbd2fabb21b17bb53c56118f32f62ebd6"
                    }
                ],
                "uncleHeaders": [],
                "withdrawals": [],
                "receipts": [
                    {
                        "transactionHash": "0xfdf058f310a046dfc954409363255fc49743931d168b7f02f0eda4b50131a7b1",
                        "type": "0x00",
                        "cumulativeGasUsed": "0x02be07",
                        "bloom": "0x00000000000000000000000000000000000000000000000000000000000000000000000000000000000000000000000000000000000000000000000000000000000000000000000000000000000000000000000000000000000000000000000000000000000000000000000000000000000000000000000000000000000000000000000000000000000000000000000000000000000000000000000000000000000000000000000000000000000000000000000000000000000000000000000000000000000000000000000000000000000000000000000000000000000000000000000000000000000000000000000000000000000000000000000000000000",
                        "logs": [],
                        "status": true,
                        "rlp": "0xf90109018302be07b9010000000000000000000000000000000000000000000000000000000000000000000000000000000000000000000000000000000000000000000000000000000000000000000000000000000000000000000000000000000000000000000000000000000000000000000000000000000000000000000000000000000000000000000000000000000000000000000000000000000000000000000000000000000000000000000000000000000000000000000000000000000000000000000000000000000000000000000000000000000000000000000000000000000000000000000000000000000000000000000000000000000000000000000000000000000000c0"
                    }
                ],
                "rlp": "0xf902c6f9023aa0fb4595e4ee575fce6231808337e3c272fe5027d58345b4d17683cf1d5d194133a01dcc4de8dec75d7aab85b567b6ccd41ad312451b948a7413f0a142fd40d49347942adc25665018aa1fe0e6bc666dac8fc2697ff9baa0fc632b397c6dad1a9492d3e352072334d18297751c7bae18ad0ff199f7aa05eda01ca3362bf17498bdf8ee9f5aee6cb7d479b07f85fe93686f422e48e483f04713a00e1cc684f9d62222ad8f46e80489c8230ced3d1d864f28384ff338a496d5d15db90100000000000000000000000000000000000000000000000000000000000000000000000000000000000000000000000000000000000000000000000000000000000000000000000000000000000000000000000000000000000000000000000000000000000000000000000000000000000000000000000000000000000000000000000000000000000000000000000000000000000000000000000000000000000000000000000000000000000000000000000000000000000000000000000000000000000000000000000000000000000000000000000000000000000000000000000000000000000000000000000000000000000000000000000000000000008001839896808302be078203e800a000000000000000000000000000000000000000000000000000000000000200008800000000000000000aa056e81f171bcc55a6ff8345e692c0f86e5b48e01b996cadc001622fb5e363b4218080a00000000000000000000000000000000000000000000000000000000000000000f885f883800a830f424094fddb268f64fd5a90f618bbee0bd38e0c24b0a945830186a0a0000000000000000000000000c54c4be163add3cc0efe5268a599a308dab12c7425a05059df894f8164a337cef493af1426de5bcd1e3873e407113a19df4be09a5233a027caddb280721d4621af6fb3ad5b0aa0dc504840725d6fcb388934e6d091fb9ec0c0",
                "blocknumber": "1"
            }
        ],
        "sealEngine": "NoProof",
        "_info": {
            "hash": "0x030dc13356037def81332e03767726d4c8c2ec7b91b50db4746ed123a8ac1617",
            "fixture-format": "blockchain_test",
            "comment": "`execution-specs` generated test",
            "filling-transition-tool": "2.19.0",
            "description": "Test_static_ab_acalls0.",
            "url": "https://github.com/ethereum/execution-specs/blob/tests-snobal-devnet-5@v8037.0.0/tests/ported_static/stStaticCall/test_static_ab_acalls0.py#L28",
            "metadata": {
                "opcode_count": {}
            }
        }
    },
    "tests/ported_static/stStaticCall/test_static_ab_acalls0.py::test_static_ab_acalls0[fork_Cancun-blockchain_test_from_state_test-d1]": {
        "network": "Cancun",
        "genesisBlockHeader": {
            "parentHash": "0x0000000000000000000000000000000000000000000000000000000000000000",
            "uncleHash": "0x1dcc4de8dec75d7aab85b567b6ccd41ad312451b948a7413f0a142fd40d49347",
            "coinbase": "0x0000000000000000000000000000000000000000",
            "stateRoot": "0x02690d7f22742f54fa6ab30d55823220f170187aa212fec64317127a68845cbb",
            "transactionsTrie": "0x56e81f171bcc55a6ff8345e692c0f86e5b48e01b996cadc001622fb5e363b421",
            "receiptTrie": "0x56e81f171bcc55a6ff8345e692c0f86e5b48e01b996cadc001622fb5e363b421",
            "bloom": "0x00000000000000000000000000000000000000000000000000000000000000000000000000000000000000000000000000000000000000000000000000000000000000000000000000000000000000000000000000000000000000000000000000000000000000000000000000000000000000000000000000000000000000000000000000000000000000000000000000000000000000000000000000000000000000000000000000000000000000000000000000000000000000000000000000000000000000000000000000000000000000000000000000000000000000000000000000000000000000000000000000000000000000000000000000000000",
            "difficulty": "0x00",
            "number": "0x00",
            "gasLimit": "0x989680",
            "gasUsed": "0x00",
            "timestamp": "0x00",
            "extraData": "0x00",
            "mixHash": "0x0000000000000000000000000000000000000000000000000000000000000000",
            "nonce": "0x0000000000000000",
            "baseFeePerGas": "0x0b",
            "withdrawalsRoot": "0x56e81f171bcc55a6ff8345e692c0f86e5b48e01b996cadc001622fb5e363b421",
            "blobGasUsed": "0x00",
            "excessBlobGas": "0x00",
            "parentBeaconBlockRoot": "0x0000000000000000000000000000000000000000000000000000000000000000",
            "hash": "0xfb4595e4ee575fce6231808337e3c272fe5027d58345b4d17683cf1d5d194133"
        },
        "pre": {
            "0x000f3df6d732807ef1319fb7b8bb8522d0beac02": {
                "nonce": "0x01",
                "balance": "0x00",
                "code": "0x3373fffffffffffffffffffffffffffffffffffffffe14604d57602036146024575f5ffd5b5f35801560495762001fff810690815414603c575f5ffd5b62001fff01545f5260205ff35b5f5ffd5b62001fff42064281555f359062001fff015500",
                "storage": {}
            },
            "0xd66f224cbd2fabb21b17bb53c56118f32f62ebd6": {
                "nonce": "0x00",
                "balance": "0x0de0b6b3a7640000",
                "code": "0x",
                "storage": {}
            },
            "0xfddb268f64fd5a90f618bbee0bd38e0c24b0a945": {
                "nonce": "0x00",
                "balance": "0x0de0b6b3a7640000",
                "code": "0x6000600060006000346000355af1600055600160015500",
                "storage": {}
            },
            "0xc54c4be163add3cc0efe5268a599a308dab12c74": {
                "nonce": "0x00",
                "balance": "0x0de0b6b3a7640000",
                "code": "0x6000600060006000739a95017e0dbf52bb87ddfda883b69d6188d574ca620186a0fa585500",
                "storage": {}
            },
            "0x9a95017e0dbf52bb87ddfda883b69d6188d574ca": {
                "nonce": "0x00",
                "balance": "0x17",
                "code": "0x600060006000600073c54c4be163add3cc0efe5268a599a308dab12c7461c350fa600101585500",
                "storage": {}
            },
            "0x7a365d98665a08e6ed6c1638c8ea6775fa649048": {
                "nonce": "0x00",
                "balance": "0x0de0b6b3a7640000",
                "code": "0x58600152600060006000600073718a83e869d6f4dea50a650b9825cbfe683bdf16620186a0fa00",
                "storage": {}
            },
            "0x718a83e869d6f4dea50a650b9825cbfe683bdf16": {
                "nonce": "0x00",
                "balance": "0x17",
                "code": "0x586001526000600060006000737a365d98665a08e6ed6c1638c8ea6775fa64904861c350fa00",
                "storage": {}
            }
        },
        "postState": {
            "0x000f3df6d732807ef1319fb7b8bb8522d0beac02": {
                "nonce": "0x01",
                "balance": "0x00",
                "code": "0x3373fffffffffffffffffffffffffffffffffffffffe14604d57602036146024575f5ffd5b5f35801560495762001fff810690815414603c575f5ffd5b62001fff01545f5260205ff35b5f5ffd5b62001fff42064281555f359062001fff015500",
                "storage": {
                    "0x03e8": "0x03e8"
                }
            },
            "0xd66f224cbd2fabb21b17bb53c56118f32f62ebd6": {
                "nonce": "0x01",
                "balance": "0x0de0b6b3a75420fe",
                "code": "0x",
                "storage": {}
            },
            "0xfddb268f64fd5a90f618bbee0bd38e0c24b0a945": {
                "nonce": "0x00",
                "balance": "0x0de0b6b3a7640000",
                "code": "0x6000600060006000346000355af1600055600160015500",
                "storage": {
                    "0x00": "0x01",
                    "0x01": "0x01"
                }
            },
            "0xc54c4be163add3cc0efe5268a599a308dab12c74": {
                "nonce": "0x00",
                "balance": "0x0de0b6b3a7640000",
                "code": "0x6000600060006000739a95017e0dbf52bb87ddfda883b69d6188d574ca620186a0fa585500",
                "storage": {}
            },
            "0x9a95017e0dbf52bb87ddfda883b69d6188d574ca": {
                "nonce": "0x00",
                "balance": "0x17",
                "code": "0x600060006000600073c54c4be163add3cc0efe5268a599a308dab12c7461c350fa600101585500",
                "storage": {}
            },
            "0x7a365d98665a08e6ed6c1638c8ea6775fa649048": {
                "nonce": "0x00",
                "balance": "0x0de0b6b3a76586a0",
                "code": "0x58600152600060006000600073718a83e869d6f4dea50a650b9825cbfe683bdf16620186a0fa00",
                "storage": {}
            },
            "0x718a83e869d6f4dea50a650b9825cbfe683bdf16": {
                "nonce": "0x00",
                "balance": "0x17",
                "code": "0x586001526000600060006000737a365d98665a08e6ed6c1638c8ea6775fa64904861c350fa00",
                "storage": {}
            }
        },
        "lastblockhash": "0x7918b11045ab7459962a4196378fbc10025d3bef6b153d9e3ac2d47c40cccc38",
        "config": {
            "network": "Cancun",
            "chainid": "0x01",
            "blobSchedule": {
                "Cancun": {
                    "target": "0x03",
                    "max": "0x06",
                    "baseFeeUpdateFraction": "0x32f0ed"
                }
            }
        },
        "genesisRLP": "0xf9023bf90235a00000000000000000000000000000000000000000000000000000000000000000a01dcc4de8dec75d7aab85b567b6ccd41ad312451b948a7413f0a142fd40d49347940000000000000000000000000000000000000000a002690d7f22742f54fa6ab30d55823220f170187aa212fec64317127a68845cbba056e81f171bcc55a6ff8345e692c0f86e5b48e01b996cadc001622fb5e363b421a056e81f171bcc55a6ff8345e692c0f86e5b48e01b996cadc001622fb5e363b421b9010000000000000000000000000000000000000000000000000000000000000000000000000000000000000000000000000000000000000000000000000000000000000000000000000000000000000000000000000000000000000000000000000000000000000000000000000000000000000000000000000000000000000000000000000000000000000000000000000000000000000000000000000000000000000000000000000000000000000000000000000000000000000000000000000000000000000000000000000000000000000000000000000000000000000000000000000000000000000000000000000000000000000000000000000000000000808083989680808000a000000000000000000000000000000000000000000000000000000000000000008800000000000000000ba056e81f171bcc55a6ff8345e692c0f86e5b48e01b996cadc001622fb5e363b4218080a00000000000000000000000000000000000000000000000000000000000000000c0c0c0",
        "blocks": [
            {
                "blockHeader": {
                    "parentHash": "0xfb4595e4ee575fce6231808337e3c272fe5027d58345b4d17683cf1d5d194133",
                    "uncleHash": "0x1dcc4de8dec75d7aab85b567b6ccd41ad312451b948a7413f0a142fd40d49347",
                    "coinbase": "0x2adc25665018aa1fe0e6bc666dac8fc2697ff9ba",
                    "stateRoot": "0x74bb908565e5c3086844f40414a6169f9f5908eed6ad2a29e623f852f4fa2e3e",
                    "transactionsTrie": "0x11b5f7d83118d22d888c7f93a475d7f403e8c2d63ee934e3e803b0ff0b9aae18",
                    "receiptTrie": "0x353dee4fa64723207e3d32d4ad01b80b951343ef5ec65a6790e492dd61d505bb",
                    "bloom": "0x00000000000000000000000000000000000000000000000000000000000000000000000000000000000000000000000000000000000000000000000000000000000000000000000000000000000000000000000000000000000000000000000000000000000000000000000000000000000000000000000000000000000000000000000000000000000000000000000000000000000000000000000000000000000000000000000000000000000000000000000000000000000000000000000000000000000000000000000000000000000000000000000000000000000000000000000000000000000000000000000000000000000000000000000000000000",
                    "difficulty": "0x00",
                    "number": "0x01",
                    "gasLimit": "0x989680",
                    "gasUsed": "0x016f3d",
                    "timestamp": "0x03e8",
                    "extraData": "0x00",
                    "mixHash": "0x0000000000000000000000000000000000000000000000000000000000020000",
                    "nonce": "0x0000000000000000",
                    "baseFeePerGas": "0x0a",
                    "withdrawalsRoot": "0x56e81f171bcc55a6ff8345e692c0f86e5b48e01b996cadc001622fb5e363b421",
                    "blobGasUsed": "0x00",
                    "excessBlobGas": "0x00",
                    "parentBeaconBlockRoot": "0x0000000000000000000000000000000000000000000000000000000000000000",
                    "hash": "0x7918b11045ab7459962a4196378fbc10025d3bef6b153d9e3ac2d47c40cccc38"
                },
                "transactions": [
                    {
                        "type": "0x00",
                        "chainId": "0x01",
                        "nonce": "0x00",
                        "gasPrice": "0x0a",
                        "gasLimit": "0x0f4240",
                        "to": "0xfddb268f64fd5a90f618bbee0bd38e0c24b0a945",
                        "value": "0x0186a0",
                        "data": "0x0000000000000000000000007a365d98665a08e6ed6c1638c8ea6775fa649048",
                        "v": "0x25",
                        "r": "0x43990f0b336ef7c1cabb4e9150c78d9d94201def1fc3485deacfb0c72c5d2b1a",
                        "s": "0x2d37335535101d05b9bec0b3ca74b0a6501562ca0a405b11ee7d202b8a989bdb",
                        "sender": "0xd66f224cbd2fabb21b17bb53c56118f32f62ebd6"
                    }
                ],
                "uncleHeaders": [],
                "withdrawals": [],
                "receipts": [
                    {
                        "transactionHash": "0xf2335a4627e25a7c5432a20d35e841346d2bfbb779c33c3d8ddde521268c245a",
                        "type": "0x00",
                        "cumulativeGasUsed": "0x016f3d",
                        "bloom": "0x00000000000000000000000000000000000000000000000000000000000000000000000000000000000000000000000000000000000000000000000000000000000000000000000000000000000000000000000000000000000000000000000000000000000000000000000000000000000000000000000000000000000000000000000000000000000000000000000000000000000000000000000000000000000000000000000000000000000000000000000000000000000000000000000000000000000000000000000000000000000000000000000000000000000000000000000000000000000000000000000000000000000000000000000000000000",
                        "logs": [],
                        "status": true,
                        "rlp": "0xf901090183016f3db9010000000000000000000000000000000000000000000000000000000000000000000000000000000000000000000000000000000000000000000000000000000000000000000000000000000000000000000000000000000000000000000000000000000000000000000000000000000000000000000000000000000000000000000000000000000000000000000000000000000000000000000000000000000000000000000000000000000000000000000000000000000000000000000000000000000000000000000000000000000000000000000000000000000000000000000000000000000000000000000000000000000000000000000000000000000000c0"
                    }
                ],
                "rlp": "0xf902c6f9023aa0fb4595e4ee575fce6231808337e3c272fe5027d58345b4d17683cf1d5d194133a01dcc4de8dec75d7aab85b567b6ccd41ad312451b948a7413f0a142fd40d49347942adc25665018aa1fe0e6bc666dac8fc2697ff9baa074bb908565e5c3086844f40414a6169f9f5908eed6ad2a29e623f852f4fa2e3ea011b5f7d83118d22d888c7f93a475d7f403e8c2d63ee934e3e803b0ff0b9aae18a0353dee4fa64723207e3d32d4ad01b80b951343ef5ec65a6790e492dd61d505bbb901000000000000000000000000000000000000000000000000000000000000000000000000000000000000000000000000000000000000000000000000000000000000000000000000000000000000000000000000000000000000000000000000000000000000000000000000000000000000000000000000000000000000000000000000000000000000000000000000000000000000000000000000000000000000000000000000000000000000000000000000000000000000000000000000000000000000000000000000000000000000000000000000000000000000000000000000000000000000000000000000000000000000000000000000000000000080018398968083016f3d8203e800a000000000000000000000000000000000000000000000000000000000000200008800000000000000000aa056e81f171bcc55a6ff8345e692c0f86e5b48e01b996cadc001622fb5e363b4218080a00000000000000000000000000000000000000000000000000000000000000000f885f883800a830f424094fddb268f64fd5a90f618bbee0bd38e0c24b0a945830186a0a00000000000000000000000007a365d98665a08e6ed6c1638c8ea6775fa64904825a043990f0b336ef7c1cabb4e9150c78d9d94201def1fc3485deacfb0c72c5d2b1aa02d37335535101d05b9bec0b3ca74b0a6501562ca0a405b11ee7d202b8a989bdbc0c0",
                "blocknumber": "1"
            }
        ],
        "sealEngine": "NoProof",
        "_info": {
            "hash": "0x8443920e440ab5648667aeb3339bd51435cb696241476fac4e4fcf2c0d39362a",
            "fixture-format": "blockchain_test",
            "comment": "`execution-specs` generated test",
            "filling-transition-tool": "2.19.0",
            "description": "Test_static_ab_acalls0.",
            "url": "https://github.com/ethereum/execution-specs/blob/tests-snobal-devnet-5@v8037.0.0/tests/ported_static/stStaticCall/test_static_ab_acalls0.py#L28",
            "metadata": {
                "opcode_count": {}
            }
        }
    }
}