{
    "tests/cancun/eip4844_blobs/test_point_evaluation_precompile.py::test_precompile_before_fork[fork_Shanghai-state_test----correct_proof]": {
        "env": {
            "currentCoinbase": "0x2adc25665018aa1fe0e6bc666dac8fc2697ff9ba",
            "currentGasLimit": "0x07270e00",
            "currentNumber": "0x01",
            "currentTimestamp": "0x1d4c",
            "currentRandom": "0x0000000000000000000000000000000000000000000000000000000000000000",
            "currentDifficulty": "0x00",
            "currentBaseFee": "0x07"
        },
        "pre": {
            "0x43851bd075237e0c3dc57afe7755c9800c58dc05": {
                "nonce": "0x01",
                "balance": "0x01",
                "code": "0x366000600037600060003660006001600a5af14355",
                "storage": {}
            },
            "0x0180625dead4a2c62b1a6d6ddbf6c871c9c3e1cb": {
                "nonce": "0x00",
                "balance": "0x3635c9adc5dea00000",
                "code": "0x",
                "storage": {}
            }
        },
        "transaction": {
            "nonce": "0x00",
            "gasPrice": "0x0a",
            "gasLimit": [
                "0x4c4b40"
            ],
            "to": "0x43851bd075237e0c3dc57afe7755c9800c58dc05",
            "value": [
                "0x00"
            ],
            "data": [
                "0x010657f37554c781402a22917dee2f75def7ab966d7b770905398eba3c444014623ce31cf9759a5c8daf3a357992f9f3dd7f9339d8998bc8e68373e54f00b75e0000000000000000000000000000000000000000000000000000000000000000c00000000000000000000000000000000000000000000000000000000000000000000000000000000000000000000000c00000000000000000000000000000000000000000000000000000000000000000000000000000000000000000000000"
            ],
            "sender": "0x0180625dead4a2c62b1a6d6ddbf6c871c9c3e1cb",
            "secretKey": "0xb8aa846be43be1fe57d8a1ad43851bd075237e0c3dc57afe7755c9800c58dc05"
        },
        "post": {
            "Shanghai": [
                {
                    "hash": "0x2c54dad8a5b1c07f5d2719e43c8cf5eee12cf67a3d3ec3fd520db2efa4e9bc3c",
                    "logs": "0x1dcc4de8dec75d7aab85b567b6ccd41ad312451b948a7413f0a142fd40d49347",
                    "txbytes": "0xf90121800a834c4b409443851bd075237e0c3dc57afe7755c9800c58dc0580b8c0010657f37554c781402a22917dee2f75def7ab966d7b770905398eba3c444014623ce31cf9759a5c8daf3a357992f9f3dd7f9339d8998bc8e68373e54f00b75e0000000000000000000000000000000000000000000000000000000000000000c00000000000000000000000000000000000000000000000000000000000000000000000000000000000000000000000c0000000000000000000000000000000000000000000000000000000000000000000000000000000000000000000000026a0eff1180d6f478ae7ee25208fbc54519855a95175e9267c2e1e434407387da9bea04f7bae4865f605eef3cdbc2278a59d72c01f680320ca16d14ddaa2ad91a0856e",
                    "indexes": {
                        "data": 0,
                        "gas": 0,
                        "value": 0
                    },
                    "state": {
                        "0x43851bd075237e0c3dc57afe7755c9800c58dc05": {
                            "nonce": "0x01",
                            "balance": "0x00",
                            "code": "0x366000600037600060003660006001600a5af14355",
                            "storage": {
                                "0x01": "0x01"
                            }
                        },
                        "0x0180625dead4a2c62b1a6d6ddbf6c871c9c3e1cb": {
                            "nonce": "0x01",
                            "balance": "0x3635c9adc5de93f170",
                            "code": "0x",
                            "storage": {}
                        },
                        "0x000000000000000000000000000000000000000a": {
                            "nonce": "0x00",
                            "balance": "0x01",
                            "code": "0x",
                            "storage": {}
                        },
                        "0x2adc25665018aa1fe0e6bc666dac8fc2697ff9ba": {
                            "nonce": "0x00",
                            "balance": "0x039df8",
                            "code": "0x",
                            "storage": {}
                        }
                    }
                }
            ]
        },
        "config": {
            "chainid": "0x01"
        },
        "_info": {
            "hash": "0x2a7e707b5c4a471fe23c141afe997dc6a80f1fa36a99a33e7340994cce0680c3",
            "comment": "`execution-specs` generated test",
            "filling-transition-tool": "2.18.0rc6",
            "description": "Test calling the Point Evaluation Precompile before the appropriate fork.",
            "url": "https://github.com/ethereum/execution-specs/blob/tests-v5.4.0/tests/cancun/eip4844_blobs/test_point_evaluation_precompile.py#L631",
            "fixture-format": "state_test",
            "reference-spec": "https://github.com/ethereum/EIPs/blob/master/EIPS/eip-4844.md",
            "reference-spec-version": "de2e4a46ad93fc04e6fe3174dc6e90a3307bdb5f"
        }
    }
}