{
    "tests/static/state_tests/stSolidityTest/TestCryptographicFunctionsFiller.json::TestCryptographicFunctions[fork_Cancun-state_test-]": {
        "env": {
            "currentCoinbase": "0x2adc25665018aa1fe0e6bc666dac8fc2697ff9ba",
            "currentGasLimit": "0x7fffffffffffffff",
            "currentNumber": "0x01",
            "currentTimestamp": "0x03e8",
            "currentRandom": "0x0000000000000000000000000000000000000000000000000000000000020000",
            "currentDifficulty": "0x00",
            "currentBaseFee": "0x0a",
            "currentExcessBlobGas": "0x00"
        },
        "pre": {
            "0x095e7baea6a6c7c4c2dfeb977efac326af552d87": {
                "nonce": "0x00",
                "balance": "0x0186a0",
                "code": "0x6000357c010000000000000000000000000000000000000000000000000000000090048063c04062261461003a578063e0a9fd281461004c57005b61004261005e565b8060005260206000f35b610054610099565b8060005260206000f35b6000610068610099565b600060006101000a81548160ff02191690830217905550600060009054906101000a900460ff169050610096565b90565b60006001905080507f43c4b4524adb81e4e9a5c4648a98e9d320e3908ac5b6c889144b642cd08ae16d60010260407f74657374737472696e67000000000000000000000000000000000000000000008152600a016040900360402014156100ff57610108565b600090506102ec565b7f3c8727e019a42b444667a587b6001251becadabbb36bfed8087a92c18882d11160010260026020600060007f74657374737472696e67000000000000000000000000000000000000000000008152600a0160006000856161da5a03f161016b57005b50600051141561017a57610183565b600090506102ec565b73cd566972b5e50104011a92b59fa8e0b1234851ae6c010000000000000000000000000260036020600060007f74657374737472696e67000000000000000000000000000000000000000000008152600a0160006000856161da5a03f16101e657005b506000516c010000000000000000000000000214156102045761020d565b600090506102ec565b73a94f5374fce5edbc8e2a8697c15331677e6ebf0b60016020600060007f18c547e4f7b0f325ad1e56f57e26c745b09a3e503d86e00e5255ff7f715d3d1c6001028152602001601c81526020017f73b1693892219d736caba55bdb67216e485557ea6b6af75f37096c9aa6a5a75f60010281526020017feeb940b1d03b21e36b0e47e79769f095fe2ab855bd91e3a38756b7d75a9c4549600102815260200160006000856161da5a03f16102bd57005b5060005173ffffffffffffffffffffffffffffffffffffffff1614156102e2576102eb565b600090506102ec565b5b9056",
                "storage": {}
            },
            "0xa94f5374fce5edbc8e2a8697c15331677e6ebf0b": {
                "nonce": "0x00",
                "balance": "0x012a05f200",
                "code": "0x",
                "storage": {}
            }
        },
        "transaction": {
            "nonce": "0x00",
            "gasPrice": "0x0a",
            "gasLimit": [
                "0x02160ec0"
            ],
            "to": "0x095e7baea6a6c7c4c2dfeb977efac326af552d87",
            "value": [
                "0x64"
            ],
            "data": [
                "0xc0406226"
            ],
            "sender": "0xa94f5374fce5edbc8e2a8697c15331677e6ebf0b",
            "secretKey": "0x45a915e4d060149eb4365960e6a7a45f334393093061116b197e3240065ff2d8"
        },
        "post": {
            "Cancun": [
                {
                    "hash": "0x6b0410ead016c0e778d8ea9f9d3a4e94019c2eaae9e608747bfe678a212d24b0",
                    "logs": "0x1dcc4de8dec75d7aab85b567b6ccd41ad312451b948a7413f0a142fd40d49347",
                    "txbytes": "0xf865800a8402160ec094095e7baea6a6c7c4c2dfeb977efac326af552d876484c040622625a0e874c717f402cbe308a381c339d5477923692163ae7bdb006e77b96d111b6b9ea07fd7982e5a39069fd95990888b5752a6718bfc0f8d3cb16eb3d2b7a1fba49e7b",
                    "indexes": {
                        "data": 0,
                        "gas": 0,
                        "value": 0
                    },
                    "state": {
                        "0x095e7baea6a6c7c4c2dfeb977efac326af552d87": {
                            "nonce": "0x00",
                            "balance": "0x018704",
                            "code": "0x6000357c010000000000000000000000000000000000000000000000000000000090048063c04062261461003a578063e0a9fd281461004c57005b61004261005e565b8060005260206000f35b610054610099565b8060005260206000f35b6000610068610099565b600060006101000a81548160ff02191690830217905550600060009054906101000a900460ff169050610096565b90565b60006001905080507f43c4b4524adb81e4e9a5c4648a98e9d320e3908ac5b6c889144b642cd08ae16d60010260407f74657374737472696e67000000000000000000000000000000000000000000008152600a016040900360402014156100ff57610108565b600090506102ec565b7f3c8727e019a42b444667a587b6001251becadabbb36bfed8087a92c18882d11160010260026020600060007f74657374737472696e67000000000000000000000000000000000000000000008152600a0160006000856161da5a03f161016b57005b50600051141561017a57610183565b600090506102ec565b73cd566972b5e50104011a92b59fa8e0b1234851ae6c010000000000000000000000000260036020600060007f74657374737472696e67000000000000000000000000000000000000000000008152600a0160006000856161da5a03f16101e657005b506000516c010000000000000000000000000214156102045761020d565b600090506102ec565b73a94f5374fce5edbc8e2a8697c15331677e6ebf0b60016020600060007f18c547e4f7b0f325ad1e56f57e26c745b09a3e503d86e00e5255ff7f715d3d1c6001028152602001601c81526020017f73b1693892219d736caba55bdb67216e485557ea6b6af75f37096c9aa6a5a75f60010281526020017feeb940b1d03b21e36b0e47e79769f095fe2ab855bd91e3a38756b7d75a9c4549600102815260200160006000856161da5a03f16102bd57005b5060005173ffffffffffffffffffffffffffffffffffffffff1614156102e2576102eb565b600090506102ec565b5b9056",
                            "storage": {
                                "0x00": "0x01"
                            }
                        },
                        "0xa94f5374fce5edbc8e2a8697c15331677e6ebf0b": {
                            "nonce": "0x01",
                            "balance": "0x0129fe9a00",
                            "code": "0x",
                            "storage": {}
                        }
                    }
                }
            ]
        },
        "config": {
            "blobSchedule": {
                "Cancun": {
                    "target": "0x03",
                    "max": "0x06",
                    "baseFeeUpdateFraction": "0x32f0ed"
                }
            },
            "chainid": "0x01"
        },
        "_info": {
            "hash": "0x0ee2b99bf4150fc5703f3774a988167f5b1941eb2a76a568d9accfe6c56e6ccd",
            "comment": "`execution-specs` generated test",
            "filling-transition-tool": "2.18.0rc6",
            "description": "No description available - add a docstring to the python test class or function.",
            "url": "",
            "fixture-format": "state_test"
        }
    },
    "tests/static/state_tests/stSolidityTest/TestCryptographicFunctionsFiller.json::TestCryptographicFunctions[fork_Prague-state_test-]": {
        "env": {
            "currentCoinbase": "0x2adc25665018aa1fe0e6bc666dac8fc2697ff9ba",
            "currentGasLimit": "0x7fffffffffffffff",
            "currentNumber": "0x01",
            "currentTimestamp": "0x03e8",
            "currentRandom": "0x0000000000000000000000000000000000000000000000000000000000020000",
            "currentDifficulty": "0x00",
            "currentBaseFee": "0x0a",
            "currentExcessBlobGas": "0x00"
        },
        "pre": {
            "0x095e7baea6a6c7c4c2dfeb977efac326af552d87": {
                "nonce": "0x00",
                "balance": "0x0186a0",
                "code": "0x6000357c010000000000000000000000000000000000000000000000000000000090048063c04062261461003a578063e0a9fd281461004c57005b61004261005e565b8060005260206000f35b610054610099565b8060005260206000f35b6000610068610099565b600060006101000a81548160ff02191690830217905550600060009054906101000a900460ff169050610096565b90565b60006001905080507f43c4b4524adb81e4e9a5c4648a98e9d320e3908ac5b6c889144b642cd08ae16d60010260407f74657374737472696e67000000000000000000000000000000000000000000008152600a016040900360402014156100ff57610108565b600090506102ec565b7f3c8727e019a42b444667a587b6001251becadabbb36bfed8087a92c18882d11160010260026020600060007f74657374737472696e67000000000000000000000000000000000000000000008152600a0160006000856161da5a03f161016b57005b50600051141561017a57610183565b600090506102ec565b73cd566972b5e50104011a92b59fa8e0b1234851ae6c010000000000000000000000000260036020600060007f74657374737472696e67000000000000000000000000000000000000000000008152600a0160006000856161da5a03f16101e657005b506000516c010000000000000000000000000214156102045761020d565b600090506102ec565b73a94f5374fce5edbc8e2a8697c15331677e6ebf0b60016020600060007f18c547e4f7b0f325ad1e56f57e26c745b09a3e503d86e00e5255ff7f715d3d1c6001028152602001601c81526020017f73b1693892219d736caba55bdb67216e485557ea6b6af75f37096c9aa6a5a75f60010281526020017feeb940b1d03b21e36b0e47e79769f095fe2ab855bd91e3a38756b7d75a9c4549600102815260200160006000856161da5a03f16102bd57005b5060005173ffffffffffffffffffffffffffffffffffffffff1614156102e2576102eb565b600090506102ec565b5b9056",
                "storage": {}
            },
            "0xa94f5374fce5edbc8e2a8697c15331677e6ebf0b": {
                "nonce": "0x00",
                "balance": "0x012a05f200",
                "code": "0x",
                "storage": {}
            }
        },
        "transaction": {
            "nonce": "0x00",
            "gasPrice": "0x0a",
            "gasLimit": [
                "0x02160ec0"
            ],
            "to": "0x095e7baea6a6c7c4c2dfeb977efac326af552d87",
            "value": [
                "0x64"
            ],
            "data": [
                "0xc0406226"
            ],
            "sender": "0xa94f5374fce5edbc8e2a8697c15331677e6ebf0b",
            "secretKey": "0x45a915e4d060149eb4365960e6a7a45f334393093061116b197e3240065ff2d8"
        },
        "post": {
            "Prague": [
                {
                    "hash": "0x6b0410ead016c0e778d8ea9f9d3a4e94019c2eaae9e608747bfe678a212d24b0",
                    "logs": "0x1dcc4de8dec75d7aab85b567b6ccd41ad312451b948a7413f0a142fd40d49347",
                    "txbytes": "0xf865800a8402160ec094095e7baea6a6c7c4c2dfeb977efac326af552d876484c040622625a0e874c717f402cbe308a381c339d5477923692163ae7bdb006e77b96d111b6b9ea07fd7982e5a39069fd95990888b5752a6718bfc0f8d3cb16eb3d2b7a1fba49e7b",
                    "indexes": {
                        "data": 0,
                        "gas": 0,
                        "value": 0
                    },
                    "state": {
                        "0x095e7baea6a6c7c4c2dfeb977efac326af552d87": {
                            "nonce": "0x00",
                            "balance": "0x018704",
                            "code": "0x6000357c010000000000000000000000000000000000000000000000000000000090048063c04062261461003a578063e0a9fd281461004c57005b61004261005e565b8060005260206000f35b610054610099565b8060005260206000f35b6000610068610099565b600060006101000a81548160ff02191690830217905550600060009054906101000a900460ff169050610096565b90565b60006001905080507f43c4b4524adb81e4e9a5c4648a98e9d320e3908ac5b6c889144b642cd08ae16d60010260407f74657374737472696e67000000000000000000000000000000000000000000008152600a016040900360402014156100ff57610108565b600090506102ec565b7f3c8727e019a42b444667a587b6001251becadabbb36bfed8087a92c18882d11160010260026020600060007f74657374737472696e67000000000000000000000000000000000000000000008152600a0160006000856161da5a03f161016b57005b50600051141561017a57610183565b600090506102ec565b73cd566972b5e50104011a92b59fa8e0b1234851ae6c010000000000000000000000000260036020600060007f74657374737472696e67000000000000000000000000000000000000000000008152600a0160006000856161da5a03f16101e657005b506000516c010000000000000000000000000214156102045761020d565b600090506102ec565b73a94f5374fce5edbc8e2a8697c15331677e6ebf0b60016020600060007f18c547e4f7b0f325ad1e56f57e26c745b09a3e503d86e00e5255ff7f715d3d1c6001028152602001601c81526020017f73b1693892219d736caba55bdb67216e485557ea6b6af75f37096c9aa6a5a75f60010281526020017feeb940b1d03b21e36b0e47e79769f095fe2ab855bd91e3a38756b7d75a9c4549600102815260200160006000856161da5a03f16102bd57005b5060005173ffffffffffffffffffffffffffffffffffffffff1614156102e2576102eb565b600090506102ec565b5b9056",
                            "storage": {
                                "0x00": "0x01"
                            }
                        },
                        "0xa94f5374fce5edbc8e2a8697c15331677e6ebf0b": {
                            "nonce": "0x01",
                            "balance": "0x0129fe9a00",
                            "code": "0x",
                            "storage": {}
                        }
                    }
                }
            ]
        },
        "config": {
            "blobSchedule": {
                "Cancun": {
                    "target": "0x03",
                    "max": "0x06",
                    "baseFeeUpdateFraction": "0x32f0ed"
                },
                "Prague": {
                    "target": "0x06",
                    "max": "0x09",
                    "baseFeeUpdateFraction": "0x4c6964"
                }
            },
            "chainid": "0x01"
        },
        "_info": {
            "hash": "0x4e413b8a768149057789d2422b0f62e96c43b86ce8a6c253b742367ee001ec25",
            "comment": "`execution-specs` generated test",
            "filling-transition-tool": "2.18.0rc6",
            "description": "No description available - add a docstring to the python test class or function.",
            "url": "",
            "fixture-format": "state_test"
        }
    }
}