{
    "tests/ported_static/stTransactionTest/test_contract_store_clears_success.py::test_contract_store_clears_success[fork_Cancun-blockchain_test_from_state_test]": {
        "network": "Cancun",
        "genesisBlockHeader": {
            "parentHash": "0x0000000000000000000000000000000000000000000000000000000000000000",
            "uncleHash": "0x1dcc4de8dec75d7aab85b567b6ccd41ad312451b948a7413f0a142fd40d49347",
            "coinbase": "0x0000000000000000000000000000000000000000",
            "stateRoot": "0xf5f5a28a1cbb9fdaafe01ff1c35c83f40813038dfae1f0945767859779b6667f",
            "transactionsTrie": "0x56e81f171bcc55a6ff8345e692c0f86e5b48e01b996cadc001622fb5e363b421",
            "receiptTrie": "0x56e81f171bcc55a6ff8345e692c0f86e5b48e01b996cadc001622fb5e363b421",
            "bloom": "0x00000000000000000000000000000000000000000000000000000000000000000000000000000000000000000000000000000000000000000000000000000000000000000000000000000000000000000000000000000000000000000000000000000000000000000000000000000000000000000000000000000000000000000000000000000000000000000000000000000000000000000000000000000000000000000000000000000000000000000000000000000000000000000000000000000000000000000000000000000000000000000000000000000000000000000000000000000000000000000000000000000000000000000000000000000000",
            "difficulty": "0x00",
            "number": "0x00",
            "gasLimit": "0x989680",
            "gasUsed": "0x00",
            "timestamp": "0x00",
            "extraData": "0x00",
            "mixHash": "0x0000000000000000000000000000000000000000000000000000000000000000",
            "nonce": "0x0000000000000000",
            "baseFeePerGas": "0x0b",
            "withdrawalsRoot": "0x56e81f171bcc55a6ff8345e692c0f86e5b48e01b996cadc001622fb5e363b421",
            "blobGasUsed": "0x00",
            "excessBlobGas": "0x00",
            "parentBeaconBlockRoot": "0x0000000000000000000000000000000000000000000000000000000000000000",
            "hash": "0xfae13b37aa91c5c5352b8bebf2b6eeca394b6c7618875c48e93319bd41b5e1b7"
        },
        "pre": {
            "0x000f3df6d732807ef1319fb7b8bb8522d0beac02": {
                "nonce": "0x01",
                "balance": "0x00",
                "code": "0x3373fffffffffffffffffffffffffffffffffffffffe14604d57602036146024575f5ffd5b5f35801560495762001fff810690815414603c575f5ffd5b62001fff01545f5260205ff35b5f5ffd5b62001fff42064281555f359062001fff015500",
                "storage": {}
            },
            "0xf9706f8a5bd5e35543fca3258b90fae59271ac08": {
                "nonce": "0x00",
                "balance": "0x08583b00",
                "code": "0x",
                "storage": {}
            },
            "0x2ead99225a8a6a579fecdaa6a50e93f1bb478124": {
                "nonce": "0x00",
                "balance": "0x00",
                "code": "0x600060005560006001556000600255600060035560006004556000600555600060065560006007556000600855600060095500",
                "storage": {
                    "0x00": "0x0c",
                    "0x01": "0x0c",
                    "0x02": "0x0c",
                    "0x03": "0x0c",
                    "0x04": "0x0c",
                    "0x05": "0x0c",
                    "0x06": "0x0c",
                    "0x07": "0x0c",
                    "0x08": "0x0c",
                    "0x09": "0x0c"
                }
            }
        },
        "postState": {
            "0x000f3df6d732807ef1319fb7b8bb8522d0beac02": {
                "nonce": "0x01",
                "balance": "0x00",
                "code": "0x3373fffffffffffffffffffffffffffffffffffffffe14604d57602036146024575f5ffd5b5f35801560495762001fff810690815414603c575f5ffd5b62001fff01545f5260205ff35b5f5ffd5b62001fff42064281555f359062001fff015500",
                "storage": {
                    "0x03e8": "0x03e8"
                }
            },
            "0xf9706f8a5bd5e35543fca3258b90fae59271ac08": {
                "nonce": "0x01",
                "balance": "0x084f8e56",
                "code": "0x",
                "storage": {}
            },
            "0x2ead99225a8a6a579fecdaa6a50e93f1bb478124": {
                "nonce": "0x00",
                "balance": "0x0a",
                "code": "0x600060005560006001556000600255600060035560006004556000600555600060065560006007556000600855600060095500",
                "storage": {}
            }
        },
        "lastblockhash": "0x65a727da169bdfeb0cb8ee4cf0382ecc1bf78db04a6f11ebe1230ba26c9f0e7d",
        "config": {
            "network": "Cancun",
            "chainid": "0x01",
            "blobSchedule": {
                "Cancun": {
                    "target": "0x03",
                    "max": "0x06",
                    "baseFeeUpdateFraction": "0x32f0ed"
                }
            }
        },
        "genesisRLP": "0xf9023bf90235a00000000000000000000000000000000000000000000000000000000000000000a01dcc4de8dec75d7aab85b567b6ccd41ad312451b948a7413f0a142fd40d49347940000000000000000000000000000000000000000a0f5f5a28a1cbb9fdaafe01ff1c35c83f40813038dfae1f0945767859779b6667fa056e81f171bcc55a6ff8345e692c0f86e5b48e01b996cadc001622fb5e363b421a056e81f171bcc55a6ff8345e692c0f86e5b48e01b996cadc001622fb5e363b421b9010000000000000000000000000000000000000000000000000000000000000000000000000000000000000000000000000000000000000000000000000000000000000000000000000000000000000000000000000000000000000000000000000000000000000000000000000000000000000000000000000000000000000000000000000000000000000000000000000000000000000000000000000000000000000000000000000000000000000000000000000000000000000000000000000000000000000000000000000000000000000000000000000000000000000000000000000000000000000000000000000000000000000000000000000000000000808083989680808000a000000000000000000000000000000000000000000000000000000000000000008800000000000000000ba056e81f171bcc55a6ff8345e692c0f86e5b48e01b996cadc001622fb5e363b4218080a00000000000000000000000000000000000000000000000000000000000000000c0c0c0",
        "blocks": [
            {
                "blockHeader": {
                    "parentHash": "0xfae13b37aa91c5c5352b8bebf2b6eeca394b6c7618875c48e93319bd41b5e1b7",
                    "uncleHash": "0x1dcc4de8dec75d7aab85b567b6ccd41ad312451b948a7413f0a142fd40d49347",
                    "coinbase": "0xb94f5374fce5edbc8e2a8697c15331677e6ebf0b",
                    "stateRoot": "0x270d9914cd2133103092e4c57a924acb168430036c17eb4ff55161930367604b",
                    "transactionsTrie": "0x338033791d17cb86eabac1a62319ea7802f01bcc595503a894aa45d6e53d666d",
                    "receiptTrie": "0xb9049d88d9b33c2392265d47e5cb4d97cc4df7339e7e62b37edd9f550cb497f0",
                    "bloom": "0x00000000000000000000000000000000000000000000000000000000000000000000000000000000000000000000000000000000000000000000000000000000000000000000000000000000000000000000000000000000000000000000000000000000000000000000000000000000000000000000000000000000000000000000000000000000000000000000000000000000000000000000000000000000000000000000000000000000000000000000000000000000000000000000000000000000000000000000000000000000000000000000000000000000000000000000000000000000000000000000000000000000000000000000000000000000",
                    "difficulty": "0x00",
                    "number": "0x01",
                    "gasLimit": "0x989680",
                    "gasUsed": "0xde10",
                    "timestamp": "0x03e8",
                    "extraData": "0x00",
                    "mixHash": "0x0000000000000000000000000000000000000000000000000000000000020000",
                    "nonce": "0x0000000000000000",
                    "baseFeePerGas": "0x0a",
                    "withdrawalsRoot": "0x56e81f171bcc55a6ff8345e692c0f86e5b48e01b996cadc001622fb5e363b421",
                    "blobGasUsed": "0x00",
                    "excessBlobGas": "0x00",
                    "parentBeaconBlockRoot": "0x0000000000000000000000000000000000000000000000000000000000000000",
                    "hash": "0x65a727da169bdfeb0cb8ee4cf0382ecc1bf78db04a6f11ebe1230ba26c9f0e7d"
                },
                "transactions": [
                    {
                        "type": "0x00",
                        "chainId": "0x01",
                        "nonce": "0x00",
                        "gasPrice": "0x0a",
                        "gasLimit": "0x01fbd0",
                        "to": "0x2ead99225a8a6a579fecdaa6a50e93f1bb478124",
                        "value": "0x0a",
                        "data": "0x",
                        "v": "0x25",
                        "r": "0xb108c0a115eebc7b16188428e82e12675e5f4db5ddc437b7840ddbc969b6b1cf",
                        "s": "0x7db5db957ba961701fd0aacc5f28c6937f2b45a683c58976c862acfd039e0dc2",
                        "sender": "0xf9706f8a5bd5e35543fca3258b90fae59271ac08"
                    }
                ],
                "uncleHeaders": [],
                "withdrawals": [],
                "receipts": [
                    {
                        "transactionHash": "0xc17b3816b3972b596b0e04e61abc010bce0edcdbd5f3feab6089e3c2f60ed429",
                        "type": "0x00",
                        "cumulativeGasUsed": "0xde10",
                        "bloom": "0x00000000000000000000000000000000000000000000000000000000000000000000000000000000000000000000000000000000000000000000000000000000000000000000000000000000000000000000000000000000000000000000000000000000000000000000000000000000000000000000000000000000000000000000000000000000000000000000000000000000000000000000000000000000000000000000000000000000000000000000000000000000000000000000000000000000000000000000000000000000000000000000000000000000000000000000000000000000000000000000000000000000000000000000000000000000",
                        "logs": [],
                        "status": true,
                        "rlp": "0xf901080182de10b9010000000000000000000000000000000000000000000000000000000000000000000000000000000000000000000000000000000000000000000000000000000000000000000000000000000000000000000000000000000000000000000000000000000000000000000000000000000000000000000000000000000000000000000000000000000000000000000000000000000000000000000000000000000000000000000000000000000000000000000000000000000000000000000000000000000000000000000000000000000000000000000000000000000000000000000000000000000000000000000000000000000000000000000000000000000000c0"
                    }
                ],
                "rlp": "0xf902a2f90239a0fae13b37aa91c5c5352b8bebf2b6eeca394b6c7618875c48e93319bd41b5e1b7a01dcc4de8dec75d7aab85b567b6ccd41ad312451b948a7413f0a142fd40d4934794b94f5374fce5edbc8e2a8697c15331677e6ebf0ba0270d9914cd2133103092e4c57a924acb168430036c17eb4ff55161930367604ba0338033791d17cb86eabac1a62319ea7802f01bcc595503a894aa45d6e53d666da0b9049d88d9b33c2392265d47e5cb4d97cc4df7339e7e62b37edd9f550cb497f0b901000000000000000000000000000000000000000000000000000000000000000000000000000000000000000000000000000000000000000000000000000000000000000000000000000000000000000000000000000000000000000000000000000000000000000000000000000000000000000000000000000000000000000000000000000000000000000000000000000000000000000000000000000000000000000000000000000000000000000000000000000000000000000000000000000000000000000000000000000000000000000000000000000000000000000000000000000000000000000000000000000000000000000000000000000000000080018398968082de108203e800a000000000000000000000000000000000000000000000000000000000000200008800000000000000000aa056e81f171bcc55a6ff8345e692c0f86e5b48e01b996cadc001622fb5e363b4218080a00000000000000000000000000000000000000000000000000000000000000000f862f860800a8301fbd0942ead99225a8a6a579fecdaa6a50e93f1bb4781240a8025a0b108c0a115eebc7b16188428e82e12675e5f4db5ddc437b7840ddbc969b6b1cfa07db5db957ba961701fd0aacc5f28c6937f2b45a683c58976c862acfd039e0dc2c0c0",
                "blocknumber": "1"
            }
        ],
        "sealEngine": "NoProof",
        "_info": {
            "hash": "0xf33120b39d6e766d40ef261dbfe3fb5368b9301e286822d27eec0b345f51e3e4",
            "fixture-format": "blockchain_test",
            "comment": "`execution-specs` generated test",
            "filling-transition-tool": "2.19.0",
            "description": "Test_contract_store_clears_success.",
            "url": "https://github.com/ethereum/execution-specs/blob/tests-snobal-devnet-5@v8037.0.0/tests/ported_static/stTransactionTest/test_contract_store_clears_success.py#L24",
            "metadata": {
                "opcode_count": {}
            }
        }
    }
}