{
    "tests/static/state_tests/stReturnDataTest/call_ecrec_success_empty_then_returndatasizeFiller.json::call_ecrec_success_empty_then_returndatasize[fork_Cancun-state_test-]": {
        "env": {
            "currentCoinbase": "0x2adc25665018aa1fe0e6bc666dac8fc2697ff9ba",
            "currentGasLimit": "0x1a00000000",
            "currentNumber": "0x01",
            "currentTimestamp": "0x03e8",
            "currentRandom": "0x0000000000000000000000000000000000000000000000000000000000020000",
            "currentDifficulty": "0x00",
            "currentBaseFee": "0x0a",
            "currentExcessBlobGas": "0x00"
        },
        "pre": {
            "0x62aa277c0636942f7a9c4749c2e6b51563670209": {
                "nonce": "0x00",
                "balance": "0x6400000000",
                "code": "0x",
                "storage": {}
            },
            "0xa35a17692815dc16bec554b8f46b876ef2c49fc5": {
                "nonce": "0x00",
                "balance": "0x00",
                "code": "0x60aa60006000600060006001619000f1503d60005500",
                "storage": {
                    "0x00": "0x60a7"
                }
            }
        },
        "transaction": {
            "nonce": "0x00",
            "gasPrice": "0x0a",
            "gasLimit": [
                "0x0186a0"
            ],
            "to": "0xa35a17692815dc16bec554b8f46b876ef2c49fc5",
            "value": [
                "0x00"
            ],
            "data": [
                "0x"
            ],
            "sender": "0x62aa277c0636942f7a9c4749c2e6b51563670209",
            "secretKey": "0x58cb3d2cdbe4a0b7fcdeeafda35a17692815dc16bec554b8f46b876ef2c49fc5"
        },
        "post": {
            "Cancun": [
                {
                    "hash": "0x78dd13f4f22f6b76cbf51c4836efd6ec23d5e3d954984f38aaabb3eacfa8578b",
                    "logs": "0x1dcc4de8dec75d7aab85b567b6ccd41ad312451b948a7413f0a142fd40d49347",
                    "txbytes": "0xf860800a830186a094a35a17692815dc16bec554b8f46b876ef2c49fc5808026a0fe4b81e3fa7d914cb775b25b1f81447b7779f94680cbf2ea1dc84dc4226806eaa07f846024c00cd504f0b1b93832bc6be85c6cfa794f587e8705d46c103c8bedb1",
                    "indexes": {
                        "data": 0,
                        "gas": 0,
                        "value": 0
                    },
                    "state": {
                        "0x62aa277c0636942f7a9c4749c2e6b51563670209": {
                            "nonce": "0x01",
                            "balance": "0x63fffc48fc",
                            "code": "0x",
                            "storage": {}
                        },
                        "0xa35a17692815dc16bec554b8f46b876ef2c49fc5": {
                            "nonce": "0x00",
                            "balance": "0x00",
                            "code": "0x60aa60006000600060006001619000f1503d60005500",
                            "storage": {}
                        }
                    }
                }
            ]
        },
        "config": {
            "blobSchedule": {
                "Cancun": {
                    "target": "0x03",
                    "max": "0x06",
                    "baseFeeUpdateFraction": "0x32f0ed"
                }
            },
            "chainid": "0x01"
        },
        "_info": {
            "hash": "0x29426213fa1e8e76c06565190cd0dc77b413a54c3b95d445e0bd6c40c2405801",
            "comment": "`execution-spec-tests` generated test",
            "filling-transition-tool": "ethereum-spec-evm-resolver 0.0.5",
            "description": "No description available - add a docstring to the python test class or function.",
            "url": "",
            "fixture-format": "state_test",
            "eels-resolution": {
                "git-url": "https://github.com/ethereum/execution-specs.git",
                "branch": "forks/bpos",
                "commit": "7aacb2c54111391af5e98c505d5010b5698a770f"
            }
        }
    },
    "tests/static/state_tests/stReturnDataTest/call_ecrec_success_empty_then_returndatasizeFiller.json::call_ecrec_success_empty_then_returndatasize[fork_Osaka-state_test-]": {
        "env": {
            "currentCoinbase": "0x2adc25665018aa1fe0e6bc666dac8fc2697ff9ba",
            "currentGasLimit": "0x1a00000000",
            "currentNumber": "0x01",
            "currentTimestamp": "0x03e8",
            "currentRandom": "0x0000000000000000000000000000000000000000000000000000000000020000",
            "currentDifficulty": "0x00",
            "currentBaseFee": "0x0a",
            "currentExcessBlobGas": "0x00"
        },
        "pre": {
            "0x62aa277c0636942f7a9c4749c2e6b51563670209": {
                "nonce": "0x00",
                "balance": "0x6400000000",
                "code": "0x",
                "storage": {}
            },
            "0xa35a17692815dc16bec554b8f46b876ef2c49fc5": {
                "nonce": "0x00",
                "balance": "0x00",
                "code": "0x60aa60006000600060006001619000f1503d60005500",
                "storage": {
                    "0x00": "0x60a7"
                }
            }
        },
        "transaction": {
            "nonce": "0x00",
            "gasPrice": "0x0a",
            "gasLimit": [
                "0x0186a0"
            ],
            "to": "0xa35a17692815dc16bec554b8f46b876ef2c49fc5",
            "value": [
                "0x00"
            ],
            "data": [
                "0x"
            ],
            "sender": "0x62aa277c0636942f7a9c4749c2e6b51563670209",
            "secretKey": "0x58cb3d2cdbe4a0b7fcdeeafda35a17692815dc16bec554b8f46b876ef2c49fc5"
        },
        "post": {
            "Osaka": [
                {
                    "hash": "0x78dd13f4f22f6b76cbf51c4836efd6ec23d5e3d954984f38aaabb3eacfa8578b",
                    "logs": "0x1dcc4de8dec75d7aab85b567b6ccd41ad312451b948a7413f0a142fd40d49347",
                    "txbytes": "0xf860800a830186a094a35a17692815dc16bec554b8f46b876ef2c49fc5808026a0fe4b81e3fa7d914cb775b25b1f81447b7779f94680cbf2ea1dc84dc4226806eaa07f846024c00cd504f0b1b93832bc6be85c6cfa794f587e8705d46c103c8bedb1",
                    "indexes": {
                        "data": 0,
                        "gas": 0,
                        "value": 0
                    },
                    "state": {
                        "0x62aa277c0636942f7a9c4749c2e6b51563670209": {
                            "nonce": "0x01",
                            "balance": "0x63fffc48fc",
                            "code": "0x",
                            "storage": {}
                        },
                        "0xa35a17692815dc16bec554b8f46b876ef2c49fc5": {
                            "nonce": "0x00",
                            "balance": "0x00",
                            "code": "0x60aa60006000600060006001619000f1503d60005500",
                            "storage": {}
                        }
                    }
                }
            ]
        },
        "config": {
            "blobSchedule": {
                "Cancun": {
                    "target": "0x03",
                    "max": "0x06",
                    "baseFeeUpdateFraction": "0x32f0ed"
                },
                "Prague": {
                    "target": "0x06",
                    "max": "0x09",
                    "baseFeeUpdateFraction": "0x4c6964"
                },
                "Osaka": {
                    "target": "0x06",
                    "max": "0x09",
                    "baseFeeUpdateFraction": "0x4c6964"
                }
            },
            "chainid": "0x01"
        },
        "_info": {
            "hash": "0x7b27deee4bc3696fc04b69b0b31045f7fbe9a012f004bf6ba3cbb11059e9d3d1",
            "comment": "`execution-spec-tests` generated test",
            "filling-transition-tool": "ethereum-spec-evm-resolver 0.0.5",
            "description": "No description available - add a docstring to the python test class or function.",
            "url": "",
            "fixture-format": "state_test",
            "eels-resolution": {
                "git-url": "https://github.com/ethereum/execution-specs.git",
                "branch": "forks/bpos",
                "commit": "7aacb2c54111391af5e98c505d5010b5698a770f"
            }
        }
    },
    "tests/static/state_tests/stReturnDataTest/call_ecrec_success_empty_then_returndatasizeFiller.json::call_ecrec_success_empty_then_returndatasize[fork_Prague-state_test-]": {
        "env": {
            "currentCoinbase": "0x2adc25665018aa1fe0e6bc666dac8fc2697ff9ba",
            "currentGasLimit": "0x1a00000000",
            "currentNumber": "0x01",
            "currentTimestamp": "0x03e8",
            "currentRandom": "0x0000000000000000000000000000000000000000000000000000000000020000",
            "currentDifficulty": "0x00",
            "currentBaseFee": "0x0a",
            "currentExcessBlobGas": "0x00"
        },
        "pre": {
            "0x62aa277c0636942f7a9c4749c2e6b51563670209": {
                "nonce": "0x00",
                "balance": "0x6400000000",
                "code": "0x",
                "storage": {}
            },
            "0xa35a17692815dc16bec554b8f46b876ef2c49fc5": {
                "nonce": "0x00",
                "balance": "0x00",
                "code": "0x60aa60006000600060006001619000f1503d60005500",
                "storage": {
                    "0x00": "0x60a7"
                }
            }
        },
        "transaction": {
            "nonce": "0x00",
            "gasPrice": "0x0a",
            "gasLimit": [
                "0x0186a0"
            ],
            "to": "0xa35a17692815dc16bec554b8f46b876ef2c49fc5",
            "value": [
                "0x00"
            ],
            "data": [
                "0x"
            ],
            "sender": "0x62aa277c0636942f7a9c4749c2e6b51563670209",
            "secretKey": "0x58cb3d2cdbe4a0b7fcdeeafda35a17692815dc16bec554b8f46b876ef2c49fc5"
        },
        "post": {
            "Prague": [
                {
                    "hash": "0x78dd13f4f22f6b76cbf51c4836efd6ec23d5e3d954984f38aaabb3eacfa8578b",
                    "logs": "0x1dcc4de8dec75d7aab85b567b6ccd41ad312451b948a7413f0a142fd40d49347",
                    "txbytes": "0xf860800a830186a094a35a17692815dc16bec554b8f46b876ef2c49fc5808026a0fe4b81e3fa7d914cb775b25b1f81447b7779f94680cbf2ea1dc84dc4226806eaa07f846024c00cd504f0b1b93832bc6be85c6cfa794f587e8705d46c103c8bedb1",
                    "indexes": {
                        "data": 0,
                        "gas": 0,
                        "value": 0
                    },
                    "state": {
                        "0x62aa277c0636942f7a9c4749c2e6b51563670209": {
                            "nonce": "0x01",
                            "balance": "0x63fffc48fc",
                            "code": "0x",
                            "storage": {}
                        },
                        "0xa35a17692815dc16bec554b8f46b876ef2c49fc5": {
                            "nonce": "0x00",
                            "balance": "0x00",
                            "code": "0x60aa60006000600060006001619000f1503d60005500",
                            "storage": {}
                        }
                    }
                }
            ]
        },
        "config": {
            "blobSchedule": {
                "Cancun": {
                    "target": "0x03",
                    "max": "0x06",
                    "baseFeeUpdateFraction": "0x32f0ed"
                },
                "Prague": {
                    "target": "0x06",
                    "max": "0x09",
                    "baseFeeUpdateFraction": "0x4c6964"
                }
            },
            "chainid": "0x01"
        },
        "_info": {
            "hash": "0xc1efc5d2ce23321ea79d4c09a72a9803fc7eea73d30fb9121fc304d8c3f7c0db",
            "comment": "`execution-spec-tests` generated test",
            "filling-transition-tool": "ethereum-spec-evm-resolver 0.0.5",
            "description": "No description available - add a docstring to the python test class or function.",
            "url": "",
            "fixture-format": "state_test",
            "eels-resolution": {
                "git-url": "https://github.com/ethereum/execution-specs.git",
                "branch": "forks/bpos",
                "commit": "7aacb2c54111391af5e98c505d5010b5698a770f"
            }
        }
    }
}