{
    "tests/static/state_tests/stReturnDataTest/returndatasize_after_successful_staticcallFiller.json::returndatasize_after_successful_staticcall[fork_Cancun-state_test-]": {
        "env": {
            "currentCoinbase": "0x2adc25665018aa1fe0e6bc666dac8fc2697ff9ba",
            "currentGasLimit": "0x1a00000000",
            "currentNumber": "0x01",
            "currentTimestamp": "0x03e8",
            "currentRandom": "0x0000000000000000000000000000000000000000000000000000000000020000",
            "currentDifficulty": "0x00",
            "currentBaseFee": "0x0a",
            "currentExcessBlobGas": "0x00"
        },
        "pre": {
            "0xe5cad1570a3fb65b811b6a0778c43a1faf271d07": {
                "nonce": "0x00",
                "balance": "0x6400000000",
                "code": "0x",
                "storage": {}
            },
            "0xe07618ff64751907e9bf46c68ee4a175bcbdbade": {
                "nonce": "0x00",
                "balance": "0x6400000000",
                "code": "0x7fffffffffffffffffffffffffffffffffffffffffffffffffffffffffffffffff60005260066000f300",
                "storage": {}
            },
            "0xe07618ff64751907e9bf46c68ee4a175bcbdbbde": {
                "nonce": "0x00",
                "balance": "0x00",
                "code": "0x600060006000600073e07618ff64751907e9bf46c68ee4a175bcbdbade61ea60fa503d60005500",
                "storage": {
                    "0x00": "0xffffffffffffffffffffffffffffffffffffffffffffffffffffffffffffffff"
                }
            }
        },
        "transaction": {
            "nonce": "0x00",
            "gasPrice": "0x0a",
            "gasLimit": [
                "0x0186a0"
            ],
            "to": "0xe07618ff64751907e9bf46c68ee4a175bcbdbbde",
            "value": [
                "0x00"
            ],
            "data": [
                "0x"
            ],
            "sender": "0xe5cad1570a3fb65b811b6a0778c43a1faf271d07",
            "secretKey": "0x000f98ad3e3480d8f3d2f859e07618ff64751907e9bf46c68ee4a175bcbdbade"
        },
        "post": {
            "Cancun": [
                {
                    "hash": "0x7a1f575ec768821fdce0a95f8939b4f905e1db93c59459beeda46dc263c80b9b",
                    "logs": "0x1dcc4de8dec75d7aab85b567b6ccd41ad312451b948a7413f0a142fd40d49347",
                    "txbytes": "0xf860800a830186a094e07618ff64751907e9bf46c68ee4a175bcbdbbde808025a0e9d8e7c574b7653d6333d628d752101672d2c877cf77db572e756f4d43f745c2a066555c940de053d26b0cb62a24aa08fec9273921658e6cf73bdbadd7d217e772",
                    "indexes": {
                        "data": 0,
                        "gas": 0,
                        "value": 0
                    },
                    "state": {
                        "0xe5cad1570a3fb65b811b6a0778c43a1faf271d07": {
                            "nonce": "0x01",
                            "balance": "0x63fffba122",
                            "code": "0x",
                            "storage": {}
                        },
                        "0xe07618ff64751907e9bf46c68ee4a175bcbdbade": {
                            "nonce": "0x00",
                            "balance": "0x6400000000",
                            "code": "0x7fffffffffffffffffffffffffffffffffffffffffffffffffffffffffffffffff60005260066000f300",
                            "storage": {}
                        },
                        "0xe07618ff64751907e9bf46c68ee4a175bcbdbbde": {
                            "nonce": "0x00",
                            "balance": "0x00",
                            "code": "0x600060006000600073e07618ff64751907e9bf46c68ee4a175bcbdbade61ea60fa503d60005500",
                            "storage": {
                                "0x00": "0x06"
                            }
                        }
                    }
                }
            ]
        },
        "config": {
            "blobSchedule": {
                "Cancun": {
                    "target": "0x03",
                    "max": "0x06",
                    "baseFeeUpdateFraction": "0x32f0ed"
                }
            },
            "chainid": "0x01"
        },
        "_info": {
            "hash": "0xe3cc63ac632072cdc2a38c0cae047c93a3bea51dd52183058d29225d1a2a9c64",
            "comment": "`execution-spec-tests` generated test",
            "filling-transition-tool": "ethereum-spec-evm-resolver 0.0.5",
            "description": "No description available - add a docstring to the python test class or function.",
            "url": "",
            "fixture-format": "state_test",
            "eels-resolution": {
                "git-url": "https://github.com/marioevz/execution-specs.git",
                "branch": "forks/bpo1",
                "commit": "3387e5f4aedfe99becfdc39b444d6371e25e0924"
            }
        }
    },
    "tests/static/state_tests/stReturnDataTest/returndatasize_after_successful_staticcallFiller.json::returndatasize_after_successful_staticcall[fork_Osaka-state_test-]": {
        "env": {
            "currentCoinbase": "0x2adc25665018aa1fe0e6bc666dac8fc2697ff9ba",
            "currentGasLimit": "0x1a00000000",
            "currentNumber": "0x01",
            "currentTimestamp": "0x03e8",
            "currentRandom": "0x0000000000000000000000000000000000000000000000000000000000020000",
            "currentDifficulty": "0x00",
            "currentBaseFee": "0x0a",
            "currentExcessBlobGas": "0x00"
        },
        "pre": {
            "0xe5cad1570a3fb65b811b6a0778c43a1faf271d07": {
                "nonce": "0x00",
                "balance": "0x6400000000",
                "code": "0x",
                "storage": {}
            },
            "0xe07618ff64751907e9bf46c68ee4a175bcbdbade": {
                "nonce": "0x00",
                "balance": "0x6400000000",
                "code": "0x7fffffffffffffffffffffffffffffffffffffffffffffffffffffffffffffffff60005260066000f300",
                "storage": {}
            },
            "0xe07618ff64751907e9bf46c68ee4a175bcbdbbde": {
                "nonce": "0x00",
                "balance": "0x00",
                "code": "0x600060006000600073e07618ff64751907e9bf46c68ee4a175bcbdbade61ea60fa503d60005500",
                "storage": {
                    "0x00": "0xffffffffffffffffffffffffffffffffffffffffffffffffffffffffffffffff"
                }
            }
        },
        "transaction": {
            "nonce": "0x00",
            "gasPrice": "0x0a",
            "gasLimit": [
                "0x0186a0"
            ],
            "to": "0xe07618ff64751907e9bf46c68ee4a175bcbdbbde",
            "value": [
                "0x00"
            ],
            "data": [
                "0x"
            ],
            "sender": "0xe5cad1570a3fb65b811b6a0778c43a1faf271d07",
            "secretKey": "0x000f98ad3e3480d8f3d2f859e07618ff64751907e9bf46c68ee4a175bcbdbade"
        },
        "post": {
            "Osaka": [
                {
                    "hash": "0x7a1f575ec768821fdce0a95f8939b4f905e1db93c59459beeda46dc263c80b9b",
                    "logs": "0x1dcc4de8dec75d7aab85b567b6ccd41ad312451b948a7413f0a142fd40d49347",
                    "txbytes": "0xf860800a830186a094e07618ff64751907e9bf46c68ee4a175bcbdbbde808025a0e9d8e7c574b7653d6333d628d752101672d2c877cf77db572e756f4d43f745c2a066555c940de053d26b0cb62a24aa08fec9273921658e6cf73bdbadd7d217e772",
                    "indexes": {
                        "data": 0,
                        "gas": 0,
                        "value": 0
                    },
                    "state": {
                        "0xe5cad1570a3fb65b811b6a0778c43a1faf271d07": {
                            "nonce": "0x01",
                            "balance": "0x63fffba122",
                            "code": "0x",
                            "storage": {}
                        },
                        "0xe07618ff64751907e9bf46c68ee4a175bcbdbade": {
                            "nonce": "0x00",
                            "balance": "0x6400000000",
                            "code": "0x7fffffffffffffffffffffffffffffffffffffffffffffffffffffffffffffffff60005260066000f300",
                            "storage": {}
                        },
                        "0xe07618ff64751907e9bf46c68ee4a175bcbdbbde": {
                            "nonce": "0x00",
                            "balance": "0x00",
                            "code": "0x600060006000600073e07618ff64751907e9bf46c68ee4a175bcbdbade61ea60fa503d60005500",
                            "storage": {
                                "0x00": "0x06"
                            }
                        }
                    }
                }
            ]
        },
        "config": {
            "blobSchedule": {
                "Cancun": {
                    "target": "0x03",
                    "max": "0x06",
                    "baseFeeUpdateFraction": "0x32f0ed"
                },
                "Prague": {
                    "target": "0x06",
                    "max": "0x09",
                    "baseFeeUpdateFraction": "0x4c6964"
                },
                "Osaka": {
                    "target": "0x06",
                    "max": "0x09",
                    "baseFeeUpdateFraction": "0x4c6964"
                }
            },
            "chainid": "0x01"
        },
        "_info": {
            "hash": "0x2ea8227acd33383fdc1793c19dda2c263310bd3860343a91a89f6284ae339f33",
            "comment": "`execution-spec-tests` generated test",
            "filling-transition-tool": "ethereum-spec-evm-resolver 0.0.5",
            "description": "No description available - add a docstring to the python test class or function.",
            "url": "",
            "fixture-format": "state_test",
            "eels-resolution": {
                "git-url": "https://github.com/marioevz/execution-specs.git",
                "branch": "forks/bpo1",
                "commit": "3387e5f4aedfe99becfdc39b444d6371e25e0924"
            }
        }
    },
    "tests/static/state_tests/stReturnDataTest/returndatasize_after_successful_staticcallFiller.json::returndatasize_after_successful_staticcall[fork_Prague-state_test-]": {
        "env": {
            "currentCoinbase": "0x2adc25665018aa1fe0e6bc666dac8fc2697ff9ba",
            "currentGasLimit": "0x1a00000000",
            "currentNumber": "0x01",
            "currentTimestamp": "0x03e8",
            "currentRandom": "0x0000000000000000000000000000000000000000000000000000000000020000",
            "currentDifficulty": "0x00",
            "currentBaseFee": "0x0a",
            "currentExcessBlobGas": "0x00"
        },
        "pre": {
            "0xe5cad1570a3fb65b811b6a0778c43a1faf271d07": {
                "nonce": "0x00",
                "balance": "0x6400000000",
                "code": "0x",
                "storage": {}
            },
            "0xe07618ff64751907e9bf46c68ee4a175bcbdbade": {
                "nonce": "0x00",
                "balance": "0x6400000000",
                "code": "0x7fffffffffffffffffffffffffffffffffffffffffffffffffffffffffffffffff60005260066000f300",
                "storage": {}
            },
            "0xe07618ff64751907e9bf46c68ee4a175bcbdbbde": {
                "nonce": "0x00",
                "balance": "0x00",
                "code": "0x600060006000600073e07618ff64751907e9bf46c68ee4a175bcbdbade61ea60fa503d60005500",
                "storage": {
                    "0x00": "0xffffffffffffffffffffffffffffffffffffffffffffffffffffffffffffffff"
                }
            }
        },
        "transaction": {
            "nonce": "0x00",
            "gasPrice": "0x0a",
            "gasLimit": [
                "0x0186a0"
            ],
            "to": "0xe07618ff64751907e9bf46c68ee4a175bcbdbbde",
            "value": [
                "0x00"
            ],
            "data": [
                "0x"
            ],
            "sender": "0xe5cad1570a3fb65b811b6a0778c43a1faf271d07",
            "secretKey": "0x000f98ad3e3480d8f3d2f859e07618ff64751907e9bf46c68ee4a175bcbdbade"
        },
        "post": {
            "Prague": [
                {
                    "hash": "0x7a1f575ec768821fdce0a95f8939b4f905e1db93c59459beeda46dc263c80b9b",
                    "logs": "0x1dcc4de8dec75d7aab85b567b6ccd41ad312451b948a7413f0a142fd40d49347",
                    "txbytes": "0xf860800a830186a094e07618ff64751907e9bf46c68ee4a175bcbdbbde808025a0e9d8e7c574b7653d6333d628d752101672d2c877cf77db572e756f4d43f745c2a066555c940de053d26b0cb62a24aa08fec9273921658e6cf73bdbadd7d217e772",
                    "indexes": {
                        "data": 0,
                        "gas": 0,
                        "value": 0
                    },
                    "state": {
                        "0xe5cad1570a3fb65b811b6a0778c43a1faf271d07": {
                            "nonce": "0x01",
                            "balance": "0x63fffba122",
                            "code": "0x",
                            "storage": {}
                        },
                        "0xe07618ff64751907e9bf46c68ee4a175bcbdbade": {
                            "nonce": "0x00",
                            "balance": "0x6400000000",
                            "code": "0x7fffffffffffffffffffffffffffffffffffffffffffffffffffffffffffffffff60005260066000f300",
                            "storage": {}
                        },
                        "0xe07618ff64751907e9bf46c68ee4a175bcbdbbde": {
                            "nonce": "0x00",
                            "balance": "0x00",
                            "code": "0x600060006000600073e07618ff64751907e9bf46c68ee4a175bcbdbade61ea60fa503d60005500",
                            "storage": {
                                "0x00": "0x06"
                            }
                        }
                    }
                }
            ]
        },
        "config": {
            "blobSchedule": {
                "Cancun": {
                    "target": "0x03",
                    "max": "0x06",
                    "baseFeeUpdateFraction": "0x32f0ed"
                },
                "Prague": {
                    "target": "0x06",
                    "max": "0x09",
                    "baseFeeUpdateFraction": "0x4c6964"
                }
            },
            "chainid": "0x01"
        },
        "_info": {
            "hash": "0x5a56f142909e36f4bb5560c4bd886aebf05da73789869b08b60984a09230d0df",
            "comment": "`execution-spec-tests` generated test",
            "filling-transition-tool": "ethereum-spec-evm-resolver 0.0.5",
            "description": "No description available - add a docstring to the python test class or function.",
            "url": "",
            "fixture-format": "state_test",
            "eels-resolution": {
                "git-url": "https://github.com/marioevz/execution-specs.git",
                "branch": "forks/bpo1",
                "commit": "3387e5f4aedfe99becfdc39b444d6371e25e0924"
            }
        }
    }
}