{
    "tests/static/state_tests/stReturnDataTest/returndatacopy_initial_big_sumFiller.json::returndatacopy_initial_big_sum[fork_Cancun-state_test-]": {
        "env": {
            "currentCoinbase": "0x2adc25665018aa1fe0e6bc666dac8fc2697ff9ba",
            "currentGasLimit": "0x1a00000000",
            "currentNumber": "0x01",
            "currentTimestamp": "0x03e8",
            "currentRandom": "0x0000000000000000000000000000000000000000000000000000000000020000",
            "currentDifficulty": "0x00",
            "currentBaseFee": "0x0a",
            "currentExcessBlobGas": "0x00"
        },
        "pre": {
            "0x6b547d7ac9f8e8c1bb993e5ce9f42cb850cd46ad": {
                "nonce": "0x00",
                "balance": "0x6400000000",
                "code": "0x",
                "storage": {}
            },
            "0x90293cba83f32aae9bcab760489e6dcd3fdb9120": {
                "nonce": "0x00",
                "balance": "0x0de0b6b3a7640000",
                "code": "0x6e112233445566778899aabbccddeeff600052603f60020a603f60020a60003e60005160005500",
                "storage": {
                    "0x00": "0x01"
                }
            }
        },
        "transaction": {
            "nonce": "0x00",
            "gasPrice": "0x0a",
            "gasLimit": [
                "0x0186a0"
            ],
            "to": "0x90293cba83f32aae9bcab760489e6dcd3fdb9120",
            "value": [
                "0x00"
            ],
            "data": [
                "0x"
            ],
            "sender": "0x6b547d7ac9f8e8c1bb993e5ce9f42cb850cd46ad",
            "secretKey": "0x342c4c87c72e545a8a77c72b90293cba83f32aae9bcab760489e6dcd3fdb9120"
        },
        "post": {
            "Cancun": [
                {
                    "hash": "0x8486c850677157355ca11219521e1eff458af9c6ad28582ab72695dc53752c26",
                    "logs": "0x1dcc4de8dec75d7aab85b567b6ccd41ad312451b948a7413f0a142fd40d49347",
                    "txbytes": "0xf860800a830186a09490293cba83f32aae9bcab760489e6dcd3fdb9120808026a0a3ab2e5fa45cce200b79e0153ecde4f63d8a679520f3a9ec9b3e164f9e00d3e0a0145d149883672c7f13a2a7fc02db2248e19fbb523b131ded642db27c9c2ab066",
                    "indexes": {
                        "data": 0,
                        "gas": 0,
                        "value": 0
                    },
                    "state": {
                        "0x6b547d7ac9f8e8c1bb993e5ce9f42cb850cd46ad": {
                            "nonce": "0x01",
                            "balance": "0x63fff0bdc0",
                            "code": "0x",
                            "storage": {}
                        },
                        "0x90293cba83f32aae9bcab760489e6dcd3fdb9120": {
                            "nonce": "0x00",
                            "balance": "0x0de0b6b3a7640000",
                            "code": "0x6e112233445566778899aabbccddeeff600052603f60020a603f60020a60003e60005160005500",
                            "storage": {
                                "0x00": "0x01"
                            }
                        }
                    }
                }
            ]
        },
        "config": {
            "blobSchedule": {
                "Cancun": {
                    "target": "0x03",
                    "max": "0x06",
                    "baseFeeUpdateFraction": "0x32f0ed"
                }
            },
            "chainid": "0x01"
        },
        "_info": {
            "hash": "0x9c26c4efdae2aa08d7e821cec189aea20cc7de1efd090c2adddc0b2bb848d8ef",
            "comment": "`execution-specs` generated test",
            "filling-transition-tool": "2.18.0rc6",
            "description": "No description available - add a docstring to the python test class or function.",
            "url": "",
            "fixture-format": "state_test"
        }
    },
    "tests/static/state_tests/stReturnDataTest/returndatacopy_initial_big_sumFiller.json::returndatacopy_initial_big_sum[fork_Osaka-state_test-]": {
        "env": {
            "currentCoinbase": "0x2adc25665018aa1fe0e6bc666dac8fc2697ff9ba",
            "currentGasLimit": "0x1a00000000",
            "currentNumber": "0x01",
            "currentTimestamp": "0x03e8",
            "currentRandom": "0x0000000000000000000000000000000000000000000000000000000000020000",
            "currentDifficulty": "0x00",
            "currentBaseFee": "0x0a",
            "currentExcessBlobGas": "0x00"
        },
        "pre": {
            "0x6b547d7ac9f8e8c1bb993e5ce9f42cb850cd46ad": {
                "nonce": "0x00",
                "balance": "0x6400000000",
                "code": "0x",
                "storage": {}
            },
            "0x90293cba83f32aae9bcab760489e6dcd3fdb9120": {
                "nonce": "0x00",
                "balance": "0x0de0b6b3a7640000",
                "code": "0x6e112233445566778899aabbccddeeff600052603f60020a603f60020a60003e60005160005500",
                "storage": {
                    "0x00": "0x01"
                }
            }
        },
        "transaction": {
            "nonce": "0x00",
            "gasPrice": "0x0a",
            "gasLimit": [
                "0x0186a0"
            ],
            "to": "0x90293cba83f32aae9bcab760489e6dcd3fdb9120",
            "value": [
                "0x00"
            ],
            "data": [
                "0x"
            ],
            "sender": "0x6b547d7ac9f8e8c1bb993e5ce9f42cb850cd46ad",
            "secretKey": "0x342c4c87c72e545a8a77c72b90293cba83f32aae9bcab760489e6dcd3fdb9120"
        },
        "post": {
            "Osaka": [
                {
                    "hash": "0x8486c850677157355ca11219521e1eff458af9c6ad28582ab72695dc53752c26",
                    "logs": "0x1dcc4de8dec75d7aab85b567b6ccd41ad312451b948a7413f0a142fd40d49347",
                    "txbytes": "0xf860800a830186a09490293cba83f32aae9bcab760489e6dcd3fdb9120808026a0a3ab2e5fa45cce200b79e0153ecde4f63d8a679520f3a9ec9b3e164f9e00d3e0a0145d149883672c7f13a2a7fc02db2248e19fbb523b131ded642db27c9c2ab066",
                    "indexes": {
                        "data": 0,
                        "gas": 0,
                        "value": 0
                    },
                    "state": {
                        "0x6b547d7ac9f8e8c1bb993e5ce9f42cb850cd46ad": {
                            "nonce": "0x01",
                            "balance": "0x63fff0bdc0",
                            "code": "0x",
                            "storage": {}
                        },
                        "0x90293cba83f32aae9bcab760489e6dcd3fdb9120": {
                            "nonce": "0x00",
                            "balance": "0x0de0b6b3a7640000",
                            "code": "0x6e112233445566778899aabbccddeeff600052603f60020a603f60020a60003e60005160005500",
                            "storage": {
                                "0x00": "0x01"
                            }
                        }
                    }
                }
            ]
        },
        "config": {
            "blobSchedule": {
                "Cancun": {
                    "target": "0x03",
                    "max": "0x06",
                    "baseFeeUpdateFraction": "0x32f0ed"
                },
                "Prague": {
                    "target": "0x06",
                    "max": "0x09",
                    "baseFeeUpdateFraction": "0x4c6964"
                },
                "Osaka": {
                    "target": "0x06",
                    "max": "0x09",
                    "baseFeeUpdateFraction": "0x4c6964"
                }
            },
            "chainid": "0x01"
        },
        "_info": {
            "hash": "0xc5db32c630dd34669dadeb64e87335315f95f6c99fadb4c0948e00f4752e1ac9",
            "comment": "`execution-specs` generated test",
            "filling-transition-tool": "2.18.0rc6",
            "description": "No description available - add a docstring to the python test class or function.",
            "url": "",
            "fixture-format": "state_test"
        }
    },
    "tests/static/state_tests/stReturnDataTest/returndatacopy_initial_big_sumFiller.json::returndatacopy_initial_big_sum[fork_Prague-state_test-]": {
        "env": {
            "currentCoinbase": "0x2adc25665018aa1fe0e6bc666dac8fc2697ff9ba",
            "currentGasLimit": "0x1a00000000",
            "currentNumber": "0x01",
            "currentTimestamp": "0x03e8",
            "currentRandom": "0x0000000000000000000000000000000000000000000000000000000000020000",
            "currentDifficulty": "0x00",
            "currentBaseFee": "0x0a",
            "currentExcessBlobGas": "0x00"
        },
        "pre": {
            "0x6b547d7ac9f8e8c1bb993e5ce9f42cb850cd46ad": {
                "nonce": "0x00",
                "balance": "0x6400000000",
                "code": "0x",
                "storage": {}
            },
            "0x90293cba83f32aae9bcab760489e6dcd3fdb9120": {
                "nonce": "0x00",
                "balance": "0x0de0b6b3a7640000",
                "code": "0x6e112233445566778899aabbccddeeff600052603f60020a603f60020a60003e60005160005500",
                "storage": {
                    "0x00": "0x01"
                }
            }
        },
        "transaction": {
            "nonce": "0x00",
            "gasPrice": "0x0a",
            "gasLimit": [
                "0x0186a0"
            ],
            "to": "0x90293cba83f32aae9bcab760489e6dcd3fdb9120",
            "value": [
                "0x00"
            ],
            "data": [
                "0x"
            ],
            "sender": "0x6b547d7ac9f8e8c1bb993e5ce9f42cb850cd46ad",
            "secretKey": "0x342c4c87c72e545a8a77c72b90293cba83f32aae9bcab760489e6dcd3fdb9120"
        },
        "post": {
            "Prague": [
                {
                    "hash": "0x8486c850677157355ca11219521e1eff458af9c6ad28582ab72695dc53752c26",
                    "logs": "0x1dcc4de8dec75d7aab85b567b6ccd41ad312451b948a7413f0a142fd40d49347",
                    "txbytes": "0xf860800a830186a09490293cba83f32aae9bcab760489e6dcd3fdb9120808026a0a3ab2e5fa45cce200b79e0153ecde4f63d8a679520f3a9ec9b3e164f9e00d3e0a0145d149883672c7f13a2a7fc02db2248e19fbb523b131ded642db27c9c2ab066",
                    "indexes": {
                        "data": 0,
                        "gas": 0,
                        "value": 0
                    },
                    "state": {
                        "0x6b547d7ac9f8e8c1bb993e5ce9f42cb850cd46ad": {
                            "nonce": "0x01",
                            "balance": "0x63fff0bdc0",
                            "code": "0x",
                            "storage": {}
                        },
                        "0x90293cba83f32aae9bcab760489e6dcd3fdb9120": {
                            "nonce": "0x00",
                            "balance": "0x0de0b6b3a7640000",
                            "code": "0x6e112233445566778899aabbccddeeff600052603f60020a603f60020a60003e60005160005500",
                            "storage": {
                                "0x00": "0x01"
                            }
                        }
                    }
                }
            ]
        },
        "config": {
            "blobSchedule": {
                "Cancun": {
                    "target": "0x03",
                    "max": "0x06",
                    "baseFeeUpdateFraction": "0x32f0ed"
                },
                "Prague": {
                    "target": "0x06",
                    "max": "0x09",
                    "baseFeeUpdateFraction": "0x4c6964"
                }
            },
            "chainid": "0x01"
        },
        "_info": {
            "hash": "0x9d943c2757e95b496ad5f918369679ba22579f7d6ca0c3287c0554e7d49f9101",
            "comment": "`execution-specs` generated test",
            "filling-transition-tool": "2.18.0rc6",
            "description": "No description available - add a docstring to the python test class or function.",
            "url": "",
            "fixture-format": "state_test"
        }
    }
}