{
    "tests/static/state_tests/stReturnDataTest/returndatacopy_following_revertFiller.json::returndatacopy_following_revert[fork_Cancun-state_test-]": {
        "env": {
            "currentCoinbase": "0x2adc25665018aa1fe0e6bc666dac8fc2697ff9ba",
            "currentGasLimit": "0x1a00000000",
            "currentNumber": "0x01",
            "currentTimestamp": "0x03e8",
            "currentRandom": "0x0000000000000000000000000000000000000000000000000000000000020000",
            "currentDifficulty": "0x00",
            "currentBaseFee": "0x0a",
            "currentExcessBlobGas": "0x00"
        },
        "pre": {
            "0x5a9b3ce641a6a783afe79bf432cd77cc9ae69378": {
                "nonce": "0x00",
                "balance": "0x6400000000",
                "code": "0x",
                "storage": {}
            },
            "0xe9e4904ff947454055060b40817e8093b3faa82c": {
                "nonce": "0x00",
                "balance": "0x00",
                "code": "0x7d111122223333444455556666777788889999aaaabbbbccccddddeeeeffff60005260206000fd00",
                "storage": {}
            },
            "0xe9e4904ff947454055060b40817e8093b3faa92c": {
                "nonce": "0x00",
                "balance": "0x00",
                "code": "0x6000600060006000600073e9e4904ff947454055060b40817e8093b3faa82c640900000000f1506020600060003e60005160005500",
                "storage": {
                    "0x00": "0x01"
                }
            }
        },
        "transaction": {
            "nonce": "0x00",
            "gasPrice": "0x0a",
            "gasLimit": [
                "0x0186a0"
            ],
            "to": "0xe9e4904ff947454055060b40817e8093b3faa92c",
            "value": [
                "0x00"
            ],
            "data": [
                "0x"
            ],
            "sender": "0x5a9b3ce641a6a783afe79bf432cd77cc9ae69378",
            "secretKey": "0x5d61ab861a6014d9dad2689ee9e4904ff947454055060b40817e8093b3faa82c"
        },
        "post": {
            "Cancun": [
                {
                    "hash": "0x21bd5b11ad67c54529e14e0e2185d5ae33725918f6e8506a0d454c55d01e3d9e",
                    "logs": "0x1dcc4de8dec75d7aab85b567b6ccd41ad312451b948a7413f0a142fd40d49347",
                    "txbytes": "0xf860800a830186a094e9e4904ff947454055060b40817e8093b3faa92c808025a08744f513958ff71e4a1f65e3f2d443423b28bcdd04e3b7e7a15ed2fbd0f0a5aca079fcd53c2018e77f93a37d419025f7105a71a354a97bc4fd848bc59e198bfc24",
                    "indexes": {
                        "data": 0,
                        "gas": 0,
                        "value": 0
                    },
                    "state": {
                        "0x5a9b3ce641a6a783afe79bf432cd77cc9ae69378": {
                            "nonce": "0x01",
                            "balance": "0x63fffba028",
                            "code": "0x",
                            "storage": {}
                        },
                        "0xe9e4904ff947454055060b40817e8093b3faa82c": {
                            "nonce": "0x00",
                            "balance": "0x00",
                            "code": "0x7d111122223333444455556666777788889999aaaabbbbccccddddeeeeffff60005260206000fd00",
                            "storage": {}
                        },
                        "0xe9e4904ff947454055060b40817e8093b3faa92c": {
                            "nonce": "0x00",
                            "balance": "0x00",
                            "code": "0x6000600060006000600073e9e4904ff947454055060b40817e8093b3faa82c640900000000f1506020600060003e60005160005500",
                            "storage": {
                                "0x00": "0x111122223333444455556666777788889999aaaabbbbccccddddeeeeffff"
                            }
                        }
                    }
                }
            ]
        },
        "config": {
            "blobSchedule": {
                "Cancun": {
                    "target": "0x03",
                    "max": "0x06",
                    "baseFeeUpdateFraction": "0x32f0ed"
                }
            },
            "chainid": "0x01"
        },
        "_info": {
            "hash": "0x4bbc87fc8f9a492b94743b612cd8ae41b6a463a43fff10885dd805a11dad6b15",
            "comment": "`execution-spec-tests` generated test",
            "filling-transition-tool": "ethereum-spec-evm-resolver 0.0.5",
            "description": "No description available - add a docstring to the python test class or function.",
            "url": "",
            "fixture-format": "state_test",
            "eels-resolution": {
                "git-url": "https://github.com/ethereum/execution-specs.git",
                "branch": "forks/bpos",
                "commit": "7aacb2c54111391af5e98c505d5010b5698a770f"
            }
        }
    },
    "tests/static/state_tests/stReturnDataTest/returndatacopy_following_revertFiller.json::returndatacopy_following_revert[fork_Osaka-state_test-]": {
        "env": {
            "currentCoinbase": "0x2adc25665018aa1fe0e6bc666dac8fc2697ff9ba",
            "currentGasLimit": "0x1a00000000",
            "currentNumber": "0x01",
            "currentTimestamp": "0x03e8",
            "currentRandom": "0x0000000000000000000000000000000000000000000000000000000000020000",
            "currentDifficulty": "0x00",
            "currentBaseFee": "0x0a",
            "currentExcessBlobGas": "0x00"
        },
        "pre": {
            "0x5a9b3ce641a6a783afe79bf432cd77cc9ae69378": {
                "nonce": "0x00",
                "balance": "0x6400000000",
                "code": "0x",
                "storage": {}
            },
            "0xe9e4904ff947454055060b40817e8093b3faa82c": {
                "nonce": "0x00",
                "balance": "0x00",
                "code": "0x7d111122223333444455556666777788889999aaaabbbbccccddddeeeeffff60005260206000fd00",
                "storage": {}
            },
            "0xe9e4904ff947454055060b40817e8093b3faa92c": {
                "nonce": "0x00",
                "balance": "0x00",
                "code": "0x6000600060006000600073e9e4904ff947454055060b40817e8093b3faa82c640900000000f1506020600060003e60005160005500",
                "storage": {
                    "0x00": "0x01"
                }
            }
        },
        "transaction": {
            "nonce": "0x00",
            "gasPrice": "0x0a",
            "gasLimit": [
                "0x0186a0"
            ],
            "to": "0xe9e4904ff947454055060b40817e8093b3faa92c",
            "value": [
                "0x00"
            ],
            "data": [
                "0x"
            ],
            "sender": "0x5a9b3ce641a6a783afe79bf432cd77cc9ae69378",
            "secretKey": "0x5d61ab861a6014d9dad2689ee9e4904ff947454055060b40817e8093b3faa82c"
        },
        "post": {
            "Osaka": [
                {
                    "hash": "0x21bd5b11ad67c54529e14e0e2185d5ae33725918f6e8506a0d454c55d01e3d9e",
                    "logs": "0x1dcc4de8dec75d7aab85b567b6ccd41ad312451b948a7413f0a142fd40d49347",
                    "txbytes": "0xf860800a830186a094e9e4904ff947454055060b40817e8093b3faa92c808025a08744f513958ff71e4a1f65e3f2d443423b28bcdd04e3b7e7a15ed2fbd0f0a5aca079fcd53c2018e77f93a37d419025f7105a71a354a97bc4fd848bc59e198bfc24",
                    "indexes": {
                        "data": 0,
                        "gas": 0,
                        "value": 0
                    },
                    "state": {
                        "0x5a9b3ce641a6a783afe79bf432cd77cc9ae69378": {
                            "nonce": "0x01",
                            "balance": "0x63fffba028",
                            "code": "0x",
                            "storage": {}
                        },
                        "0xe9e4904ff947454055060b40817e8093b3faa82c": {
                            "nonce": "0x00",
                            "balance": "0x00",
                            "code": "0x7d111122223333444455556666777788889999aaaabbbbccccddddeeeeffff60005260206000fd00",
                            "storage": {}
                        },
                        "0xe9e4904ff947454055060b40817e8093b3faa92c": {
                            "nonce": "0x00",
                            "balance": "0x00",
                            "code": "0x6000600060006000600073e9e4904ff947454055060b40817e8093b3faa82c640900000000f1506020600060003e60005160005500",
                            "storage": {
                                "0x00": "0x111122223333444455556666777788889999aaaabbbbccccddddeeeeffff"
                            }
                        }
                    }
                }
            ]
        },
        "config": {
            "blobSchedule": {
                "Cancun": {
                    "target": "0x03",
                    "max": "0x06",
                    "baseFeeUpdateFraction": "0x32f0ed"
                },
                "Prague": {
                    "target": "0x06",
                    "max": "0x09",
                    "baseFeeUpdateFraction": "0x4c6964"
                },
                "Osaka": {
                    "target": "0x06",
                    "max": "0x09",
                    "baseFeeUpdateFraction": "0x4c6964"
                }
            },
            "chainid": "0x01"
        },
        "_info": {
            "hash": "0x082f71883c3f92884fe003fb4833642f99103eae748661cfb03ff89aac273dee",
            "comment": "`execution-spec-tests` generated test",
            "filling-transition-tool": "ethereum-spec-evm-resolver 0.0.5",
            "description": "No description available - add a docstring to the python test class or function.",
            "url": "",
            "fixture-format": "state_test",
            "eels-resolution": {
                "git-url": "https://github.com/ethereum/execution-specs.git",
                "branch": "forks/bpos",
                "commit": "7aacb2c54111391af5e98c505d5010b5698a770f"
            }
        }
    },
    "tests/static/state_tests/stReturnDataTest/returndatacopy_following_revertFiller.json::returndatacopy_following_revert[fork_Prague-state_test-]": {
        "env": {
            "currentCoinbase": "0x2adc25665018aa1fe0e6bc666dac8fc2697ff9ba",
            "currentGasLimit": "0x1a00000000",
            "currentNumber": "0x01",
            "currentTimestamp": "0x03e8",
            "currentRandom": "0x0000000000000000000000000000000000000000000000000000000000020000",
            "currentDifficulty": "0x00",
            "currentBaseFee": "0x0a",
            "currentExcessBlobGas": "0x00"
        },
        "pre": {
            "0x5a9b3ce641a6a783afe79bf432cd77cc9ae69378": {
                "nonce": "0x00",
                "balance": "0x6400000000",
                "code": "0x",
                "storage": {}
            },
            "0xe9e4904ff947454055060b40817e8093b3faa82c": {
                "nonce": "0x00",
                "balance": "0x00",
                "code": "0x7d111122223333444455556666777788889999aaaabbbbccccddddeeeeffff60005260206000fd00",
                "storage": {}
            },
            "0xe9e4904ff947454055060b40817e8093b3faa92c": {
                "nonce": "0x00",
                "balance": "0x00",
                "code": "0x6000600060006000600073e9e4904ff947454055060b40817e8093b3faa82c640900000000f1506020600060003e60005160005500",
                "storage": {
                    "0x00": "0x01"
                }
            }
        },
        "transaction": {
            "nonce": "0x00",
            "gasPrice": "0x0a",
            "gasLimit": [
                "0x0186a0"
            ],
            "to": "0xe9e4904ff947454055060b40817e8093b3faa92c",
            "value": [
                "0x00"
            ],
            "data": [
                "0x"
            ],
            "sender": "0x5a9b3ce641a6a783afe79bf432cd77cc9ae69378",
            "secretKey": "0x5d61ab861a6014d9dad2689ee9e4904ff947454055060b40817e8093b3faa82c"
        },
        "post": {
            "Prague": [
                {
                    "hash": "0x21bd5b11ad67c54529e14e0e2185d5ae33725918f6e8506a0d454c55d01e3d9e",
                    "logs": "0x1dcc4de8dec75d7aab85b567b6ccd41ad312451b948a7413f0a142fd40d49347",
                    "txbytes": "0xf860800a830186a094e9e4904ff947454055060b40817e8093b3faa92c808025a08744f513958ff71e4a1f65e3f2d443423b28bcdd04e3b7e7a15ed2fbd0f0a5aca079fcd53c2018e77f93a37d419025f7105a71a354a97bc4fd848bc59e198bfc24",
                    "indexes": {
                        "data": 0,
                        "gas": 0,
                        "value": 0
                    },
                    "state": {
                        "0x5a9b3ce641a6a783afe79bf432cd77cc9ae69378": {
                            "nonce": "0x01",
                            "balance": "0x63fffba028",
                            "code": "0x",
                            "storage": {}
                        },
                        "0xe9e4904ff947454055060b40817e8093b3faa82c": {
                            "nonce": "0x00",
                            "balance": "0x00",
                            "code": "0x7d111122223333444455556666777788889999aaaabbbbccccddddeeeeffff60005260206000fd00",
                            "storage": {}
                        },
                        "0xe9e4904ff947454055060b40817e8093b3faa92c": {
                            "nonce": "0x00",
                            "balance": "0x00",
                            "code": "0x6000600060006000600073e9e4904ff947454055060b40817e8093b3faa82c640900000000f1506020600060003e60005160005500",
                            "storage": {
                                "0x00": "0x111122223333444455556666777788889999aaaabbbbccccddddeeeeffff"
                            }
                        }
                    }
                }
            ]
        },
        "config": {
            "blobSchedule": {
                "Cancun": {
                    "target": "0x03",
                    "max": "0x06",
                    "baseFeeUpdateFraction": "0x32f0ed"
                },
                "Prague": {
                    "target": "0x06",
                    "max": "0x09",
                    "baseFeeUpdateFraction": "0x4c6964"
                }
            },
            "chainid": "0x01"
        },
        "_info": {
            "hash": "0xc919ec97d59edc968c7137ab5a6c3c167b40a9a7ec410c8013beb8f3d2fb00e1",
            "comment": "`execution-spec-tests` generated test",
            "filling-transition-tool": "ethereum-spec-evm-resolver 0.0.5",
            "description": "No description available - add a docstring to the python test class or function.",
            "url": "",
            "fixture-format": "state_test",
            "eels-resolution": {
                "git-url": "https://github.com/ethereum/execution-specs.git",
                "branch": "forks/bpos",
                "commit": "7aacb2c54111391af5e98c505d5010b5698a770f"
            }
        }
    }
}