{
    "tests/static/state_tests/stReturnDataTest/returndatasize_after_successful_callcodeFiller.json::returndatasize_after_successful_callcode[fork_Cancun-state_test-]": {
        "env": {
            "currentCoinbase": "0x2adc25665018aa1fe0e6bc666dac8fc2697ff9ba",
            "currentGasLimit": "0x1a00000000",
            "currentNumber": "0x01",
            "currentTimestamp": "0x03e8",
            "currentRandom": "0x0000000000000000000000000000000000000000000000000000000000020000",
            "currentDifficulty": "0x00",
            "currentBaseFee": "0x0a",
            "currentExcessBlobGas": "0x00"
        },
        "pre": {
            "0xe42c550706d974ef2e659dbc587da660b0b845ac": {
                "nonce": "0x00",
                "balance": "0x6400000000",
                "code": "0x",
                "storage": {}
            },
            "0x26e0672ec38e712fbd5783de5e6768cff8e1d360": {
                "nonce": "0x00",
                "balance": "0x6400000000",
                "code": "0x7fffffffffffffffffffffffffffffffffffffffffffffffffffffffffffffffff60005260066000f300",
                "storage": {}
            },
            "0x26e0672ec38e712fbd5783de5e6768cff8e1d460": {
                "nonce": "0x00",
                "balance": "0x00",
                "code": "0x600060006000600060007326e0672ec38e712fbd5783de5e6768cff8e1d36061ea60f2503d60005500",
                "storage": {
                    "0x00": "0x00"
                }
            }
        },
        "transaction": {
            "nonce": "0x00",
            "gasPrice": "0x0a",
            "gasLimit": [
                "0x0186a0"
            ],
            "to": "0x26e0672ec38e712fbd5783de5e6768cff8e1d460",
            "value": [
                "0x00"
            ],
            "data": [
                "0x"
            ],
            "sender": "0xe42c550706d974ef2e659dbc587da660b0b845ac",
            "secretKey": "0x76b9d2a80a65ed04ad81e96926e0672ec38e712fbd5783de5e6768cff8e1d360"
        },
        "post": {
            "Cancun": [
                {
                    "hash": "0xe3fb7162fb7b9e480f877c6a995af0597e81e50a885d8f46219b1103fdc5e111",
                    "logs": "0x1dcc4de8dec75d7aab85b567b6ccd41ad312451b948a7413f0a142fd40d49347",
                    "txbytes": "0xf860800a830186a09426e0672ec38e712fbd5783de5e6768cff8e1d460808025a0dcc17e488433a9b69ae9c6b3d9e119a471ac7ffd1056ae74d6a62de57b9ed052a02415fc4431c86977829f5a41016a0a79744830c004c6d50f052eced341f0132d",
                    "indexes": {
                        "data": 0,
                        "gas": 0,
                        "value": 0
                    },
                    "state": {
                        "0xe42c550706d974ef2e659dbc587da660b0b845ac": {
                            "nonce": "0x01",
                            "balance": "0x63fff9050c",
                            "code": "0x",
                            "storage": {}
                        },
                        "0x26e0672ec38e712fbd5783de5e6768cff8e1d360": {
                            "nonce": "0x00",
                            "balance": "0x6400000000",
                            "code": "0x7fffffffffffffffffffffffffffffffffffffffffffffffffffffffffffffffff60005260066000f300",
                            "storage": {}
                        },
                        "0x26e0672ec38e712fbd5783de5e6768cff8e1d460": {
                            "nonce": "0x00",
                            "balance": "0x00",
                            "code": "0x600060006000600060007326e0672ec38e712fbd5783de5e6768cff8e1d36061ea60f2503d60005500",
                            "storage": {
                                "0x00": "0x06"
                            }
                        }
                    }
                }
            ]
        },
        "config": {
            "blobSchedule": {
                "Cancun": {
                    "target": "0x03",
                    "max": "0x06",
                    "baseFeeUpdateFraction": "0x32f0ed"
                }
            },
            "chainid": "0x01"
        },
        "_info": {
            "hash": "0x06adac52c5c56d213625a1f7b0cffed117ce04378e69753080a7b51b14db8bae",
            "comment": "`execution-specs` generated test",
            "filling-transition-tool": "2.18.0rc6",
            "description": "No description available - add a docstring to the python test class or function.",
            "url": "",
            "fixture-format": "state_test"
        }
    },
    "tests/static/state_tests/stReturnDataTest/returndatasize_after_successful_callcodeFiller.json::returndatasize_after_successful_callcode[fork_Osaka-state_test-]": {
        "env": {
            "currentCoinbase": "0x2adc25665018aa1fe0e6bc666dac8fc2697ff9ba",
            "currentGasLimit": "0x1a00000000",
            "currentNumber": "0x01",
            "currentTimestamp": "0x03e8",
            "currentRandom": "0x0000000000000000000000000000000000000000000000000000000000020000",
            "currentDifficulty": "0x00",
            "currentBaseFee": "0x0a",
            "currentExcessBlobGas": "0x00"
        },
        "pre": {
            "0xe42c550706d974ef2e659dbc587da660b0b845ac": {
                "nonce": "0x00",
                "balance": "0x6400000000",
                "code": "0x",
                "storage": {}
            },
            "0x26e0672ec38e712fbd5783de5e6768cff8e1d360": {
                "nonce": "0x00",
                "balance": "0x6400000000",
                "code": "0x7fffffffffffffffffffffffffffffffffffffffffffffffffffffffffffffffff60005260066000f300",
                "storage": {}
            },
            "0x26e0672ec38e712fbd5783de5e6768cff8e1d460": {
                "nonce": "0x00",
                "balance": "0x00",
                "code": "0x600060006000600060007326e0672ec38e712fbd5783de5e6768cff8e1d36061ea60f2503d60005500",
                "storage": {
                    "0x00": "0x00"
                }
            }
        },
        "transaction": {
            "nonce": "0x00",
            "gasPrice": "0x0a",
            "gasLimit": [
                "0x0186a0"
            ],
            "to": "0x26e0672ec38e712fbd5783de5e6768cff8e1d460",
            "value": [
                "0x00"
            ],
            "data": [
                "0x"
            ],
            "sender": "0xe42c550706d974ef2e659dbc587da660b0b845ac",
            "secretKey": "0x76b9d2a80a65ed04ad81e96926e0672ec38e712fbd5783de5e6768cff8e1d360"
        },
        "post": {
            "Osaka": [
                {
                    "hash": "0xe3fb7162fb7b9e480f877c6a995af0597e81e50a885d8f46219b1103fdc5e111",
                    "logs": "0x1dcc4de8dec75d7aab85b567b6ccd41ad312451b948a7413f0a142fd40d49347",
                    "txbytes": "0xf860800a830186a09426e0672ec38e712fbd5783de5e6768cff8e1d460808025a0dcc17e488433a9b69ae9c6b3d9e119a471ac7ffd1056ae74d6a62de57b9ed052a02415fc4431c86977829f5a41016a0a79744830c004c6d50f052eced341f0132d",
                    "indexes": {
                        "data": 0,
                        "gas": 0,
                        "value": 0
                    },
                    "state": {
                        "0xe42c550706d974ef2e659dbc587da660b0b845ac": {
                            "nonce": "0x01",
                            "balance": "0x63fff9050c",
                            "code": "0x",
                            "storage": {}
                        },
                        "0x26e0672ec38e712fbd5783de5e6768cff8e1d360": {
                            "nonce": "0x00",
                            "balance": "0x6400000000",
                            "code": "0x7fffffffffffffffffffffffffffffffffffffffffffffffffffffffffffffffff60005260066000f300",
                            "storage": {}
                        },
                        "0x26e0672ec38e712fbd5783de5e6768cff8e1d460": {
                            "nonce": "0x00",
                            "balance": "0x00",
                            "code": "0x600060006000600060007326e0672ec38e712fbd5783de5e6768cff8e1d36061ea60f2503d60005500",
                            "storage": {
                                "0x00": "0x06"
                            }
                        }
                    }
                }
            ]
        },
        "config": {
            "blobSchedule": {
                "Cancun": {
                    "target": "0x03",
                    "max": "0x06",
                    "baseFeeUpdateFraction": "0x32f0ed"
                },
                "Prague": {
                    "target": "0x06",
                    "max": "0x09",
                    "baseFeeUpdateFraction": "0x4c6964"
                },
                "Osaka": {
                    "target": "0x06",
                    "max": "0x09",
                    "baseFeeUpdateFraction": "0x4c6964"
                }
            },
            "chainid": "0x01"
        },
        "_info": {
            "hash": "0x55a34e3fee33bd70c9db522aa5901bf7ec42a761879151dcd9718cbce120b13c",
            "comment": "`execution-specs` generated test",
            "filling-transition-tool": "2.18.0rc6",
            "description": "No description available - add a docstring to the python test class or function.",
            "url": "",
            "fixture-format": "state_test"
        }
    },
    "tests/static/state_tests/stReturnDataTest/returndatasize_after_successful_callcodeFiller.json::returndatasize_after_successful_callcode[fork_Prague-state_test-]": {
        "env": {
            "currentCoinbase": "0x2adc25665018aa1fe0e6bc666dac8fc2697ff9ba",
            "currentGasLimit": "0x1a00000000",
            "currentNumber": "0x01",
            "currentTimestamp": "0x03e8",
            "currentRandom": "0x0000000000000000000000000000000000000000000000000000000000020000",
            "currentDifficulty": "0x00",
            "currentBaseFee": "0x0a",
            "currentExcessBlobGas": "0x00"
        },
        "pre": {
            "0xe42c550706d974ef2e659dbc587da660b0b845ac": {
                "nonce": "0x00",
                "balance": "0x6400000000",
                "code": "0x",
                "storage": {}
            },
            "0x26e0672ec38e712fbd5783de5e6768cff8e1d360": {
                "nonce": "0x00",
                "balance": "0x6400000000",
                "code": "0x7fffffffffffffffffffffffffffffffffffffffffffffffffffffffffffffffff60005260066000f300",
                "storage": {}
            },
            "0x26e0672ec38e712fbd5783de5e6768cff8e1d460": {
                "nonce": "0x00",
                "balance": "0x00",
                "code": "0x600060006000600060007326e0672ec38e712fbd5783de5e6768cff8e1d36061ea60f2503d60005500",
                "storage": {
                    "0x00": "0x00"
                }
            }
        },
        "transaction": {
            "nonce": "0x00",
            "gasPrice": "0x0a",
            "gasLimit": [
                "0x0186a0"
            ],
            "to": "0x26e0672ec38e712fbd5783de5e6768cff8e1d460",
            "value": [
                "0x00"
            ],
            "data": [
                "0x"
            ],
            "sender": "0xe42c550706d974ef2e659dbc587da660b0b845ac",
            "secretKey": "0x76b9d2a80a65ed04ad81e96926e0672ec38e712fbd5783de5e6768cff8e1d360"
        },
        "post": {
            "Prague": [
                {
                    "hash": "0xe3fb7162fb7b9e480f877c6a995af0597e81e50a885d8f46219b1103fdc5e111",
                    "logs": "0x1dcc4de8dec75d7aab85b567b6ccd41ad312451b948a7413f0a142fd40d49347",
                    "txbytes": "0xf860800a830186a09426e0672ec38e712fbd5783de5e6768cff8e1d460808025a0dcc17e488433a9b69ae9c6b3d9e119a471ac7ffd1056ae74d6a62de57b9ed052a02415fc4431c86977829f5a41016a0a79744830c004c6d50f052eced341f0132d",
                    "indexes": {
                        "data": 0,
                        "gas": 0,
                        "value": 0
                    },
                    "state": {
                        "0xe42c550706d974ef2e659dbc587da660b0b845ac": {
                            "nonce": "0x01",
                            "balance": "0x63fff9050c",
                            "code": "0x",
                            "storage": {}
                        },
                        "0x26e0672ec38e712fbd5783de5e6768cff8e1d360": {
                            "nonce": "0x00",
                            "balance": "0x6400000000",
                            "code": "0x7fffffffffffffffffffffffffffffffffffffffffffffffffffffffffffffffff60005260066000f300",
                            "storage": {}
                        },
                        "0x26e0672ec38e712fbd5783de5e6768cff8e1d460": {
                            "nonce": "0x00",
                            "balance": "0x00",
                            "code": "0x600060006000600060007326e0672ec38e712fbd5783de5e6768cff8e1d36061ea60f2503d60005500",
                            "storage": {
                                "0x00": "0x06"
                            }
                        }
                    }
                }
            ]
        },
        "config": {
            "blobSchedule": {
                "Cancun": {
                    "target": "0x03",
                    "max": "0x06",
                    "baseFeeUpdateFraction": "0x32f0ed"
                },
                "Prague": {
                    "target": "0x06",
                    "max": "0x09",
                    "baseFeeUpdateFraction": "0x4c6964"
                }
            },
            "chainid": "0x01"
        },
        "_info": {
            "hash": "0x644f7706620d78ce8e11db0c23069f16fd15ad58e6d4dc7e0e32c272e014cf4e",
            "comment": "`execution-specs` generated test",
            "filling-transition-tool": "2.18.0rc6",
            "description": "No description available - add a docstring to the python test class or function.",
            "url": "",
            "fixture-format": "state_test"
        }
    }
}