{
    "tests/static/state_tests/stReturnDataTest/returndatacopy_overrunFiller.json::returndatacopy_overrun[fork_Cancun-state_test-]": {
        "env": {
            "currentCoinbase": "0x2adc25665018aa1fe0e6bc666dac8fc2697ff9ba",
            "currentGasLimit": "0x1a00000000",
            "currentNumber": "0x01",
            "currentTimestamp": "0x03e8",
            "currentRandom": "0x0000000000000000000000000000000000000000000000000000000000020000",
            "currentDifficulty": "0x00",
            "currentBaseFee": "0x0a",
            "currentExcessBlobGas": "0x00"
        },
        "pre": {
            "0x1b66a6e6870320a0b4c83bc88075644daa461a6d": {
                "nonce": "0x00",
                "balance": "0x6400000000",
                "code": "0x",
                "storage": {}
            },
            "0x486728763f033c8d31193beed7882978eeed1a49": {
                "nonce": "0x00",
                "balance": "0x00",
                "code": "0x7d111122223333444455556666777788889999aaaabbbbccccddddeeeeffff60005260206000f300",
                "storage": {}
            },
            "0x486728763f033c8d31193beed7882978eeed1b49": {
                "nonce": "0x00",
                "balance": "0x00",
                "code": "0x6000600060006000600073486728763f033c8d31193beed7882978eeed1a49640900000000f15060647ffffffffffffffffffffffffffffffffffffffffffffffffffffffffffffffffc60003e60005160005500",
                "storage": {
                    "0x00": "0x01"
                }
            }
        },
        "transaction": {
            "nonce": "0x00",
            "gasPrice": "0x0a",
            "gasLimit": [
                "0x0186a0"
            ],
            "to": "0x486728763f033c8d31193beed7882978eeed1b49",
            "value": [
                "0x00"
            ],
            "data": [
                "0x"
            ],
            "sender": "0x1b66a6e6870320a0b4c83bc88075644daa461a6d",
            "secretKey": "0x0bf35d51be0a4b6050032537486728763f033c8d31193beed7882978eeed1a49"
        },
        "post": {
            "Cancun": [
                {
                    "hash": "0x412a2a18e58b17b5151b7a4528fc396914542c5cfdf5b3f939dbb48159db4b17",
                    "logs": "0x1dcc4de8dec75d7aab85b567b6ccd41ad312451b948a7413f0a142fd40d49347",
                    "txbytes": "0xf860800a830186a094486728763f033c8d31193beed7882978eeed1b49808026a0d1ed432478e9019f17109b3e00e407138d9ee27e032c53f6f7faec3c0ef77a73a0149daa6548316813f43b2221d5e6bc18b94cffe4b3fd46c1673708e90e2f6021",
                    "indexes": {
                        "data": 0,
                        "gas": 0,
                        "value": 0
                    },
                    "state": {
                        "0x1b66a6e6870320a0b4c83bc88075644daa461a6d": {
                            "nonce": "0x01",
                            "balance": "0x63fff0bdc0",
                            "code": "0x",
                            "storage": {}
                        },
                        "0x486728763f033c8d31193beed7882978eeed1a49": {
                            "nonce": "0x00",
                            "balance": "0x00",
                            "code": "0x7d111122223333444455556666777788889999aaaabbbbccccddddeeeeffff60005260206000f300",
                            "storage": {}
                        },
                        "0x486728763f033c8d31193beed7882978eeed1b49": {
                            "nonce": "0x00",
                            "balance": "0x00",
                            "code": "0x6000600060006000600073486728763f033c8d31193beed7882978eeed1a49640900000000f15060647ffffffffffffffffffffffffffffffffffffffffffffffffffffffffffffffffc60003e60005160005500",
                            "storage": {
                                "0x00": "0x01"
                            }
                        }
                    }
                }
            ]
        },
        "config": {
            "blobSchedule": {
                "Cancun": {
                    "target": "0x03",
                    "max": "0x06",
                    "baseFeeUpdateFraction": "0x32f0ed"
                }
            },
            "chainid": "0x01"
        },
        "_info": {
            "hash": "0x6a5b374ddb3f9c270c9786fe5b4d6a3493b0b3e401f5c51485835b5b6a1d08da",
            "comment": "`execution-spec-tests` generated test",
            "filling-transition-tool": "ethereum-spec-evm-resolver 0.0.5",
            "description": "No description available - add a docstring to the python test class or function.",
            "url": "",
            "fixture-format": "state_test",
            "eels-resolution": {
                "git-url": "https://github.com/ethereum/execution-specs.git",
                "branch": "forks/bpos",
                "commit": "7aacb2c54111391af5e98c505d5010b5698a770f"
            }
        }
    },
    "tests/static/state_tests/stReturnDataTest/returndatacopy_overrunFiller.json::returndatacopy_overrun[fork_Osaka-state_test-]": {
        "env": {
            "currentCoinbase": "0x2adc25665018aa1fe0e6bc666dac8fc2697ff9ba",
            "currentGasLimit": "0x1a00000000",
            "currentNumber": "0x01",
            "currentTimestamp": "0x03e8",
            "currentRandom": "0x0000000000000000000000000000000000000000000000000000000000020000",
            "currentDifficulty": "0x00",
            "currentBaseFee": "0x0a",
            "currentExcessBlobGas": "0x00"
        },
        "pre": {
            "0x1b66a6e6870320a0b4c83bc88075644daa461a6d": {
                "nonce": "0x00",
                "balance": "0x6400000000",
                "code": "0x",
                "storage": {}
            },
            "0x486728763f033c8d31193beed7882978eeed1a49": {
                "nonce": "0x00",
                "balance": "0x00",
                "code": "0x7d111122223333444455556666777788889999aaaabbbbccccddddeeeeffff60005260206000f300",
                "storage": {}
            },
            "0x486728763f033c8d31193beed7882978eeed1b49": {
                "nonce": "0x00",
                "balance": "0x00",
                "code": "0x6000600060006000600073486728763f033c8d31193beed7882978eeed1a49640900000000f15060647ffffffffffffffffffffffffffffffffffffffffffffffffffffffffffffffffc60003e60005160005500",
                "storage": {
                    "0x00": "0x01"
                }
            }
        },
        "transaction": {
            "nonce": "0x00",
            "gasPrice": "0x0a",
            "gasLimit": [
                "0x0186a0"
            ],
            "to": "0x486728763f033c8d31193beed7882978eeed1b49",
            "value": [
                "0x00"
            ],
            "data": [
                "0x"
            ],
            "sender": "0x1b66a6e6870320a0b4c83bc88075644daa461a6d",
            "secretKey": "0x0bf35d51be0a4b6050032537486728763f033c8d31193beed7882978eeed1a49"
        },
        "post": {
            "Osaka": [
                {
                    "hash": "0x412a2a18e58b17b5151b7a4528fc396914542c5cfdf5b3f939dbb48159db4b17",
                    "logs": "0x1dcc4de8dec75d7aab85b567b6ccd41ad312451b948a7413f0a142fd40d49347",
                    "txbytes": "0xf860800a830186a094486728763f033c8d31193beed7882978eeed1b49808026a0d1ed432478e9019f17109b3e00e407138d9ee27e032c53f6f7faec3c0ef77a73a0149daa6548316813f43b2221d5e6bc18b94cffe4b3fd46c1673708e90e2f6021",
                    "indexes": {
                        "data": 0,
                        "gas": 0,
                        "value": 0
                    },
                    "state": {
                        "0x1b66a6e6870320a0b4c83bc88075644daa461a6d": {
                            "nonce": "0x01",
                            "balance": "0x63fff0bdc0",
                            "code": "0x",
                            "storage": {}
                        },
                        "0x486728763f033c8d31193beed7882978eeed1a49": {
                            "nonce": "0x00",
                            "balance": "0x00",
                            "code": "0x7d111122223333444455556666777788889999aaaabbbbccccddddeeeeffff60005260206000f300",
                            "storage": {}
                        },
                        "0x486728763f033c8d31193beed7882978eeed1b49": {
                            "nonce": "0x00",
                            "balance": "0x00",
                            "code": "0x6000600060006000600073486728763f033c8d31193beed7882978eeed1a49640900000000f15060647ffffffffffffffffffffffffffffffffffffffffffffffffffffffffffffffffc60003e60005160005500",
                            "storage": {
                                "0x00": "0x01"
                            }
                        }
                    }
                }
            ]
        },
        "config": {
            "blobSchedule": {
                "Cancun": {
                    "target": "0x03",
                    "max": "0x06",
                    "baseFeeUpdateFraction": "0x32f0ed"
                },
                "Prague": {
                    "target": "0x06",
                    "max": "0x09",
                    "baseFeeUpdateFraction": "0x4c6964"
                },
                "Osaka": {
                    "target": "0x06",
                    "max": "0x09",
                    "baseFeeUpdateFraction": "0x4c6964"
                }
            },
            "chainid": "0x01"
        },
        "_info": {
            "hash": "0x68a598ac8e6f5b5591416010330e2c257aa46e1e2e99dba06f73c59c09e6347a",
            "comment": "`execution-spec-tests` generated test",
            "filling-transition-tool": "ethereum-spec-evm-resolver 0.0.5",
            "description": "No description available - add a docstring to the python test class or function.",
            "url": "",
            "fixture-format": "state_test",
            "eels-resolution": {
                "git-url": "https://github.com/ethereum/execution-specs.git",
                "branch": "forks/bpos",
                "commit": "7aacb2c54111391af5e98c505d5010b5698a770f"
            }
        }
    },
    "tests/static/state_tests/stReturnDataTest/returndatacopy_overrunFiller.json::returndatacopy_overrun[fork_Prague-state_test-]": {
        "env": {
            "currentCoinbase": "0x2adc25665018aa1fe0e6bc666dac8fc2697ff9ba",
            "currentGasLimit": "0x1a00000000",
            "currentNumber": "0x01",
            "currentTimestamp": "0x03e8",
            "currentRandom": "0x0000000000000000000000000000000000000000000000000000000000020000",
            "currentDifficulty": "0x00",
            "currentBaseFee": "0x0a",
            "currentExcessBlobGas": "0x00"
        },
        "pre": {
            "0x1b66a6e6870320a0b4c83bc88075644daa461a6d": {
                "nonce": "0x00",
                "balance": "0x6400000000",
                "code": "0x",
                "storage": {}
            },
            "0x486728763f033c8d31193beed7882978eeed1a49": {
                "nonce": "0x00",
                "balance": "0x00",
                "code": "0x7d111122223333444455556666777788889999aaaabbbbccccddddeeeeffff60005260206000f300",
                "storage": {}
            },
            "0x486728763f033c8d31193beed7882978eeed1b49": {
                "nonce": "0x00",
                "balance": "0x00",
                "code": "0x6000600060006000600073486728763f033c8d31193beed7882978eeed1a49640900000000f15060647ffffffffffffffffffffffffffffffffffffffffffffffffffffffffffffffffc60003e60005160005500",
                "storage": {
                    "0x00": "0x01"
                }
            }
        },
        "transaction": {
            "nonce": "0x00",
            "gasPrice": "0x0a",
            "gasLimit": [
                "0x0186a0"
            ],
            "to": "0x486728763f033c8d31193beed7882978eeed1b49",
            "value": [
                "0x00"
            ],
            "data": [
                "0x"
            ],
            "sender": "0x1b66a6e6870320a0b4c83bc88075644daa461a6d",
            "secretKey": "0x0bf35d51be0a4b6050032537486728763f033c8d31193beed7882978eeed1a49"
        },
        "post": {
            "Prague": [
                {
                    "hash": "0x412a2a18e58b17b5151b7a4528fc396914542c5cfdf5b3f939dbb48159db4b17",
                    "logs": "0x1dcc4de8dec75d7aab85b567b6ccd41ad312451b948a7413f0a142fd40d49347",
                    "txbytes": "0xf860800a830186a094486728763f033c8d31193beed7882978eeed1b49808026a0d1ed432478e9019f17109b3e00e407138d9ee27e032c53f6f7faec3c0ef77a73a0149daa6548316813f43b2221d5e6bc18b94cffe4b3fd46c1673708e90e2f6021",
                    "indexes": {
                        "data": 0,
                        "gas": 0,
                        "value": 0
                    },
                    "state": {
                        "0x1b66a6e6870320a0b4c83bc88075644daa461a6d": {
                            "nonce": "0x01",
                            "balance": "0x63fff0bdc0",
                            "code": "0x",
                            "storage": {}
                        },
                        "0x486728763f033c8d31193beed7882978eeed1a49": {
                            "nonce": "0x00",
                            "balance": "0x00",
                            "code": "0x7d111122223333444455556666777788889999aaaabbbbccccddddeeeeffff60005260206000f300",
                            "storage": {}
                        },
                        "0x486728763f033c8d31193beed7882978eeed1b49": {
                            "nonce": "0x00",
                            "balance": "0x00",
                            "code": "0x6000600060006000600073486728763f033c8d31193beed7882978eeed1a49640900000000f15060647ffffffffffffffffffffffffffffffffffffffffffffffffffffffffffffffffc60003e60005160005500",
                            "storage": {
                                "0x00": "0x01"
                            }
                        }
                    }
                }
            ]
        },
        "config": {
            "blobSchedule": {
                "Cancun": {
                    "target": "0x03",
                    "max": "0x06",
                    "baseFeeUpdateFraction": "0x32f0ed"
                },
                "Prague": {
                    "target": "0x06",
                    "max": "0x09",
                    "baseFeeUpdateFraction": "0x4c6964"
                }
            },
            "chainid": "0x01"
        },
        "_info": {
            "hash": "0xc184d6e4c7f4bf380abec02472bdd3d9c4810da02345c0365e6a00efebbd8637",
            "comment": "`execution-spec-tests` generated test",
            "filling-transition-tool": "ethereum-spec-evm-resolver 0.0.5",
            "description": "No description available - add a docstring to the python test class or function.",
            "url": "",
            "fixture-format": "state_test",
            "eels-resolution": {
                "git-url": "https://github.com/ethereum/execution-specs.git",
                "branch": "forks/bpos",
                "commit": "7aacb2c54111391af5e98c505d5010b5698a770f"
            }
        }
    }
}