{
    "tests/ported_static/stSelfBalance/test_self_balance_update.py::test_self_balance_update[fork_Cancun-blockchain_test_from_state_test]": {
        "network": "Cancun",
        "genesisBlockHeader": {
            "parentHash": "0x0000000000000000000000000000000000000000000000000000000000000000",
            "uncleHash": "0x1dcc4de8dec75d7aab85b567b6ccd41ad312451b948a7413f0a142fd40d49347",
            "coinbase": "0x0000000000000000000000000000000000000000",
            "stateRoot": "0x9972cf58ebc27d5576b301691f33bd2e6d0f1194fe5046b854e6380178f8c960",
            "transactionsTrie": "0x56e81f171bcc55a6ff8345e692c0f86e5b48e01b996cadc001622fb5e363b421",
            "receiptTrie": "0x56e81f171bcc55a6ff8345e692c0f86e5b48e01b996cadc001622fb5e363b421",
            "bloom": "0x00000000000000000000000000000000000000000000000000000000000000000000000000000000000000000000000000000000000000000000000000000000000000000000000000000000000000000000000000000000000000000000000000000000000000000000000000000000000000000000000000000000000000000000000000000000000000000000000000000000000000000000000000000000000000000000000000000000000000000000000000000000000000000000000000000000000000000000000000000000000000000000000000000000000000000000000000000000000000000000000000000000000000000000000000000000",
            "difficulty": "0x00",
            "number": "0x00",
            "gasLimit": "0x07270e00",
            "gasUsed": "0x00",
            "timestamp": "0x00",
            "extraData": "0x00",
            "mixHash": "0x0000000000000000000000000000000000000000000000000000000000000000",
            "nonce": "0x0000000000000000",
            "baseFeePerGas": "0x0b",
            "withdrawalsRoot": "0x56e81f171bcc55a6ff8345e692c0f86e5b48e01b996cadc001622fb5e363b421",
            "blobGasUsed": "0x00",
            "excessBlobGas": "0x00",
            "parentBeaconBlockRoot": "0x0000000000000000000000000000000000000000000000000000000000000000",
            "hash": "0x11fb0be5335b8b9e6384102c95dc61573ce56669a4cb5b54d9ede18d6f97b21c"
        },
        "pre": {
            "0x000f3df6d732807ef1319fb7b8bb8522d0beac02": {
                "nonce": "0x01",
                "balance": "0x00",
                "code": "0x3373fffffffffffffffffffffffffffffffffffffffe14604d57602036146024575f5ffd5b5f35801560495762001fff810690815414603c575f5ffd5b62001fff01545f5260205ff35b5f5ffd5b62001fff42064281555f359062001fff015500",
                "storage": {}
            },
            "0xff44472f5ffdd079c61153f097871f57c1f689ca": {
                "nonce": "0x00",
                "balance": "0x01f4",
                "code": "0x47806001556000600060006000600160006000f1504780600255900360035500",
                "storage": {}
            },
            "0xd187b36e8532efd7f15218fb1781d79330c0cda2": {
                "nonce": "0x00",
                "balance": "0x3635c9adc5dea00000",
                "code": "0x",
                "storage": {}
            }
        },
        "postState": {
            "0x000f3df6d732807ef1319fb7b8bb8522d0beac02": {
                "nonce": "0x01",
                "balance": "0x00",
                "code": "0x3373fffffffffffffffffffffffffffffffffffffffe14604d57602036146024575f5ffd5b5f35801560495762001fff810690815414603c575f5ffd5b62001fff01545f5260205ff35b5f5ffd5b62001fff42064281555f359062001fff015500",
                "storage": {
                    "0x03e8": "0x03e8"
                }
            },
            "0xff44472f5ffdd079c61153f097871f57c1f689ca": {
                "nonce": "0x00",
                "balance": "0x01f3",
                "code": "0x47806001556000600060006000600160006000f1504780600255900360035500",
                "storage": {
                    "0x01": "0x01f4",
                    "0x02": "0x01f3",
                    "0x03": "0x01"
                }
            },
            "0xd187b36e8532efd7f15218fb1781d79330c0cda2": {
                "nonce": "0x01",
                "balance": "0x3635c9adc5de8d6fe4",
                "code": "0x",
                "storage": {}
            },
            "0x0000000000000000000000000000000000000000": {
                "nonce": "0x00",
                "balance": "0x01",
                "code": "0x",
                "storage": {}
            }
        },
        "lastblockhash": "0x79945ffc8bed163daa1ee1148d3c8717d9a178e3dae3e83239524623f5153185",
        "config": {
            "network": "Cancun",
            "chainid": "0x01",
            "blobSchedule": {
                "Cancun": {
                    "target": "0x03",
                    "max": "0x06",
                    "baseFeeUpdateFraction": "0x32f0ed"
                }
            }
        },
        "genesisRLP": "0xf9023cf90236a00000000000000000000000000000000000000000000000000000000000000000a01dcc4de8dec75d7aab85b567b6ccd41ad312451b948a7413f0a142fd40d49347940000000000000000000000000000000000000000a09972cf58ebc27d5576b301691f33bd2e6d0f1194fe5046b854e6380178f8c960a056e81f171bcc55a6ff8345e692c0f86e5b48e01b996cadc001622fb5e363b421a056e81f171bcc55a6ff8345e692c0f86e5b48e01b996cadc001622fb5e363b421b901000000000000000000000000000000000000000000000000000000000000000000000000000000000000000000000000000000000000000000000000000000000000000000000000000000000000000000000000000000000000000000000000000000000000000000000000000000000000000000000000000000000000000000000000000000000000000000000000000000000000000000000000000000000000000000000000000000000000000000000000000000000000000000000000000000000000000000000000000000000000000000000000000000000000000000000000000000000000000000000000000000000000000000000000000000000080808407270e00808000a000000000000000000000000000000000000000000000000000000000000000008800000000000000000ba056e81f171bcc55a6ff8345e692c0f86e5b48e01b996cadc001622fb5e363b4218080a00000000000000000000000000000000000000000000000000000000000000000c0c0c0",
        "blocks": [
            {
                "blockHeader": {
                    "parentHash": "0x11fb0be5335b8b9e6384102c95dc61573ce56669a4cb5b54d9ede18d6f97b21c",
                    "uncleHash": "0x1dcc4de8dec75d7aab85b567b6ccd41ad312451b948a7413f0a142fd40d49347",
                    "coinbase": "0x2adc25665018aa1fe0e6bc666dac8fc2697ff9ba",
                    "stateRoot": "0xcda73d58109208ab1c4ddd4671c4af69d7f343b748cb6ae01c99f5610cf4e6b4",
                    "transactionsTrie": "0xcb5c36dac2ec951731d27ee8d5a10145e9a05fdf5cce2b53303780c0c12d4c74",
                    "receiptTrie": "0xc202e2e48d1ee418ebc9e7796b2c64cf4962da21e493d4f32ffe7b15e9abb388",
                    "bloom": "0x00000000000000000000000000000000000000000000000000000000000000000000000000000000000000000000000000000000000000000000000000000000000000000000000000000000000000000000000000000000000000000000000000000000000000000000000000000000000000000000000000000000000000000000000000000000000000000000000000000000000000000000000000000000000000000000000000000000000000000000000000000000000000000000000000000000000000000000000000000000000000000000000000000000000000000000000000000000000000000000000000000000000000000000000000000000",
                    "difficulty": "0x00",
                    "number": "0x01",
                    "gasLimit": "0x07270e00",
                    "gasUsed": "0x01db36",
                    "timestamp": "0x03e8",
                    "extraData": "0x00",
                    "mixHash": "0x0000000000000000000000000000000000000000000000000000000000020000",
                    "nonce": "0x0000000000000000",
                    "baseFeePerGas": "0x0a",
                    "withdrawalsRoot": "0x56e81f171bcc55a6ff8345e692c0f86e5b48e01b996cadc001622fb5e363b421",
                    "blobGasUsed": "0x00",
                    "excessBlobGas": "0x00",
                    "parentBeaconBlockRoot": "0x0000000000000000000000000000000000000000000000000000000000000000",
                    "hash": "0x79945ffc8bed163daa1ee1148d3c8717d9a178e3dae3e83239524623f5153185"
                },
                "transactions": [
                    {
                        "type": "0x00",
                        "chainId": "0x01",
                        "nonce": "0x00",
                        "gasPrice": "0x0a",
                        "gasLimit": "0x030d40",
                        "to": "0xff44472f5ffdd079c61153f097871f57c1f689ca",
                        "value": "0x00",
                        "data": "0x",
                        "v": "0x26",
                        "r": "0xcea9fc9349d13dfcf1784755a22853fd60e6931dfdd51cc1c5aabcac163a65ea",
                        "s": "0x3e974ddb007167be952dd608f9094f588737206dd7cdd3da7fef3d15c0841b69",
                        "sender": "0xd187b36e8532efd7f15218fb1781d79330c0cda2"
                    }
                ],
                "uncleHeaders": [],
                "withdrawals": [],
                "receipts": [
                    {
                        "transactionHash": "0x73f10883dff8e0a0c13811c438f0e7c8aa5b9e4c07a8e6e509ea2db7a1e0ca1c",
                        "type": "0x00",
                        "cumulativeGasUsed": "0x01db36",
                        "bloom": "0x00000000000000000000000000000000000000000000000000000000000000000000000000000000000000000000000000000000000000000000000000000000000000000000000000000000000000000000000000000000000000000000000000000000000000000000000000000000000000000000000000000000000000000000000000000000000000000000000000000000000000000000000000000000000000000000000000000000000000000000000000000000000000000000000000000000000000000000000000000000000000000000000000000000000000000000000000000000000000000000000000000000000000000000000000000000",
                        "logs": [],
                        "status": true,
                        "rlp": "0xf90109018301db36b9010000000000000000000000000000000000000000000000000000000000000000000000000000000000000000000000000000000000000000000000000000000000000000000000000000000000000000000000000000000000000000000000000000000000000000000000000000000000000000000000000000000000000000000000000000000000000000000000000000000000000000000000000000000000000000000000000000000000000000000000000000000000000000000000000000000000000000000000000000000000000000000000000000000000000000000000000000000000000000000000000000000000000000000000000000000000c0"
                    }
                ],
                "rlp": "0xf902a4f9023ba011fb0be5335b8b9e6384102c95dc61573ce56669a4cb5b54d9ede18d6f97b21ca01dcc4de8dec75d7aab85b567b6ccd41ad312451b948a7413f0a142fd40d49347942adc25665018aa1fe0e6bc666dac8fc2697ff9baa0cda73d58109208ab1c4ddd4671c4af69d7f343b748cb6ae01c99f5610cf4e6b4a0cb5c36dac2ec951731d27ee8d5a10145e9a05fdf5cce2b53303780c0c12d4c74a0c202e2e48d1ee418ebc9e7796b2c64cf4962da21e493d4f32ffe7b15e9abb388b901000000000000000000000000000000000000000000000000000000000000000000000000000000000000000000000000000000000000000000000000000000000000000000000000000000000000000000000000000000000000000000000000000000000000000000000000000000000000000000000000000000000000000000000000000000000000000000000000000000000000000000000000000000000000000000000000000000000000000000000000000000000000000000000000000000000000000000000000000000000000000000000000000000000000000000000000000000000000000000000000000000000000000000000000000000000080018407270e008301db368203e800a000000000000000000000000000000000000000000000000000000000000200008800000000000000000aa056e81f171bcc55a6ff8345e692c0f86e5b48e01b996cadc001622fb5e363b4218080a00000000000000000000000000000000000000000000000000000000000000000f862f860800a83030d4094ff44472f5ffdd079c61153f097871f57c1f689ca808026a0cea9fc9349d13dfcf1784755a22853fd60e6931dfdd51cc1c5aabcac163a65eaa03e974ddb007167be952dd608f9094f588737206dd7cdd3da7fef3d15c0841b69c0c0",
                "blocknumber": "1"
            }
        ],
        "sealEngine": "NoProof",
        "_info": {
            "hash": "0x2c89d5bd7c462a3e87935a12f191917ca35241b930e7bee66c8c0430260737e3",
            "fixture-format": "blockchain_test",
            "comment": "`execution-specs` generated test",
            "filling-transition-tool": "2.19.0",
            "description": "Test_self_balance_update.",
            "url": "https://github.com/ethereum/execution-specs/blob/tests-sn\u00f8bal-devnet-4@v1.0.0/tests/ported_static/stSelfBalance/test_self_balance_update.py#L27",
            "metadata": {
                "opcode_count": {}
            }
        }
    }
}