{
    "tests/static/state_tests/stLogTests/log4_logMemsizeZeroFiller.json::log4_logMemsizeZero[fork_Cancun-blockchain_test_from_state_test-]": {
        "network": "Cancun",
        "genesisBlockHeader": {
            "parentHash": "0x0000000000000000000000000000000000000000000000000000000000000000",
            "uncleHash": "0x1dcc4de8dec75d7aab85b567b6ccd41ad312451b948a7413f0a142fd40d49347",
            "coinbase": "0x0000000000000000000000000000000000000000",
            "stateRoot": "0x7d3c18e0593742097a23bf95f4dabdf12f63fab320a091af92dcbbfb4756ce50",
            "transactionsTrie": "0x56e81f171bcc55a6ff8345e692c0f86e5b48e01b996cadc001622fb5e363b421",
            "receiptTrie": "0x56e81f171bcc55a6ff8345e692c0f86e5b48e01b996cadc001622fb5e363b421",
            "bloom": "0x00000000000000000000000000000000000000000000000000000000000000000000000000000000000000000000000000000000000000000000000000000000000000000000000000000000000000000000000000000000000000000000000000000000000000000000000000000000000000000000000000000000000000000000000000000000000000000000000000000000000000000000000000000000000000000000000000000000000000000000000000000000000000000000000000000000000000000000000000000000000000000000000000000000000000000000000000000000000000000000000000000000000000000000000000000000",
            "difficulty": "0x00",
            "number": "0x00",
            "gasLimit": "0x0f4240",
            "gasUsed": "0x00",
            "timestamp": "0x00",
            "extraData": "0x00",
            "mixHash": "0x0000000000000000000000000000000000000000000000000000000000000000",
            "nonce": "0x0000000000000000",
            "baseFeePerGas": "0x0b",
            "withdrawalsRoot": "0x56e81f171bcc55a6ff8345e692c0f86e5b48e01b996cadc001622fb5e363b421",
            "blobGasUsed": "0x00",
            "excessBlobGas": "0x00",
            "parentBeaconBlockRoot": "0x0000000000000000000000000000000000000000000000000000000000000000",
            "hash": "0x974b377ae295c526100159055ebfbec97e66bb3414bdeea2c1b14d10be496cd8"
        },
        "pre": {
            "0x000f3df6d732807ef1319fb7b8bb8522d0beac02": {
                "nonce": "0x01",
                "balance": "0x00",
                "code": "0x3373fffffffffffffffffffffffffffffffffffffffe14604d57602036146024575f5ffd5b5f35801560495762001fff810690815414603c575f5ffd5b62001fff01545f5260205ff35b5f5ffd5b62001fff42064281555f359062001fff015500",
                "storage": {}
            },
            "0xebaf50debf10e08302fe4280c32df010463ca297": {
                "nonce": "0x00",
                "balance": "0x0de0b6b3a7640000",
                "code": "0x",
                "storage": {}
            },
            "0xb03fd6e714a14074a17e2ecfd412e35b1ddb21e5": {
                "nonce": "0x00",
                "balance": "0x0de0b6b3a7640000",
                "code": "0x7faabbffffffffffffffffffffffffffffffffffffffffffffffffffffffffccdd600052600060006000600060006001a400",
                "storage": {}
            },
            "0x1e5597b6168fe79952cb2de7af91c3449bc95bd4": {
                "nonce": "0x00",
                "balance": "0x0de0b6b3a7640000",
                "code": "0x6000600060006000601773b03fd6e714a14074a17e2ecfd412e35b1ddb21e56103e8f160005500",
                "storage": {}
            }
        },
        "postState": {
            "0x000f3df6d732807ef1319fb7b8bb8522d0beac02": {
                "nonce": "0x01",
                "balance": "0x00",
                "code": "0x3373fffffffffffffffffffffffffffffffffffffffe14604d57602036146024575f5ffd5b5f35801560495762001fff810690815414603c575f5ffd5b62001fff01545f5260205ff35b5f5ffd5b62001fff42064281555f359062001fff015500",
                "storage": {
                    "0x03e8": "0x03e8"
                }
            },
            "0xebaf50debf10e08302fe4280c32df010463ca297": {
                "nonce": "0x01",
                "balance": "0x0de0b6b3a75a2f26",
                "code": "0x",
                "storage": {}
            },
            "0xb03fd6e714a14074a17e2ecfd412e35b1ddb21e5": {
                "nonce": "0x00",
                "balance": "0x0de0b6b3a7640017",
                "code": "0x7faabbffffffffffffffffffffffffffffffffffffffffffffffffffffffffccdd600052600060006000600060006001a400",
                "storage": {}
            },
            "0x1e5597b6168fe79952cb2de7af91c3449bc95bd4": {
                "nonce": "0x00",
                "balance": "0x0de0b6b3a7658689",
                "code": "0x6000600060006000601773b03fd6e714a14074a17e2ecfd412e35b1ddb21e56103e8f160005500",
                "storage": {
                    "0x00": "0x01"
                }
            }
        },
        "lastblockhash": "0x01d1aa0ce5fd541341c94aed92de6d8ff041028df4650b5ebd0b6a060e220875",
        "config": {
            "network": "Cancun",
            "chainid": "0x01",
            "blobSchedule": {
                "Cancun": {
                    "target": "0x03",
                    "max": "0x06",
                    "baseFeeUpdateFraction": "0x32f0ed"
                }
            }
        },
        "genesisRLP": "0xf9023bf90235a00000000000000000000000000000000000000000000000000000000000000000a01dcc4de8dec75d7aab85b567b6ccd41ad312451b948a7413f0a142fd40d49347940000000000000000000000000000000000000000a07d3c18e0593742097a23bf95f4dabdf12f63fab320a091af92dcbbfb4756ce50a056e81f171bcc55a6ff8345e692c0f86e5b48e01b996cadc001622fb5e363b421a056e81f171bcc55a6ff8345e692c0f86e5b48e01b996cadc001622fb5e363b421b90100000000000000000000000000000000000000000000000000000000000000000000000000000000000000000000000000000000000000000000000000000000000000000000000000000000000000000000000000000000000000000000000000000000000000000000000000000000000000000000000000000000000000000000000000000000000000000000000000000000000000000000000000000000000000000000000000000000000000000000000000000000000000000000000000000000000000000000000000000000000000000000000000000000000000000000000000000000000000000000000000000000000000000000000000000000008080830f4240808000a000000000000000000000000000000000000000000000000000000000000000008800000000000000000ba056e81f171bcc55a6ff8345e692c0f86e5b48e01b996cadc001622fb5e363b4218080a00000000000000000000000000000000000000000000000000000000000000000c0c0c0",
        "blocks": [
            {
                "blockHeader": {
                    "parentHash": "0x974b377ae295c526100159055ebfbec97e66bb3414bdeea2c1b14d10be496cd8",
                    "uncleHash": "0x1dcc4de8dec75d7aab85b567b6ccd41ad312451b948a7413f0a142fd40d49347",
                    "coinbase": "0x2adc25665018aa1fe0e6bc666dac8fc2697ff9ba",
                    "stateRoot": "0x6e7e855d3bbd8c9af242420fa7f22506c5e98285bac5497708c8f2f2993767d5",
                    "transactionsTrie": "0x98b5d0b9f245f3f05178b228c487299e1645befd1248d28886f36279372c2f07",
                    "receiptTrie": "0x549744ecc0f9cd497f741aa9d6d04757eca9c9adb34b0dbb76d59d6be8550a27",
                    "bloom": "0x00000000000000000000000000000000000000000000000000000000000000000000000000000000000000000000000000000000000000000000000000000000000000000000000000000000000000000000000000000000001000000000000000000000020000000000000000000800000000000000000000000000000000001000000000000000000000000000000000000000000000000000000000000000000000000000000000000000000000000000000000000000000000200000000000000000000000000000000000000000000000000000000000000000000020000000000000000000000000000000000000000000000000000000000000000000",
                    "difficulty": "0x00",
                    "number": "0x01",
                    "gasLimit": "0x0f4240",
                    "gasUsed": "0xd439",
                    "timestamp": "0x03e8",
                    "extraData": "0x00",
                    "mixHash": "0x0000000000000000000000000000000000000000000000000000000000020000",
                    "nonce": "0x0000000000000000",
                    "baseFeePerGas": "0x0a",
                    "withdrawalsRoot": "0x56e81f171bcc55a6ff8345e692c0f86e5b48e01b996cadc001622fb5e363b421",
                    "blobGasUsed": "0x00",
                    "excessBlobGas": "0x00",
                    "parentBeaconBlockRoot": "0x0000000000000000000000000000000000000000000000000000000000000000",
                    "hash": "0x01d1aa0ce5fd541341c94aed92de6d8ff041028df4650b5ebd0b6a060e220875"
                },
                "transactions": [
                    {
                        "type": "0x00",
                        "chainId": "0x01",
                        "nonce": "0x00",
                        "gasPrice": "0x0a",
                        "gasLimit": "0x033450",
                        "to": "0x1e5597b6168fe79952cb2de7af91c3449bc95bd4",
                        "value": "0x0186a0",
                        "data": "0x",
                        "v": "0x26",
                        "r": "0x9b6dd879cc59a9db0fba100de9983f22060bfc7a371084280f4f23394c73a709",
                        "s": "0x3bd127c365fae0e030c528c21e254030afbf19bf7ef7ff511b97d7504b5fc8b2",
                        "sender": "0xebaf50debf10e08302fe4280c32df010463ca297"
                    }
                ],
                "uncleHeaders": [],
                "withdrawals": [],
                "receipts": [
                    {
                        "transactionHash": "0x8c5e70ac6644d1f826fb417f8575a1b1433eb1bbb34ff17fd09bb0e047133423",
                        "type": "0x00",
                        "cumulativeGasUsed": "0xd439",
                        "bloom": "0x00000000000000000000000000000000000000000000000000000000000000000000000000000000000000000000000000000000000000000000000000000000000000000000000000000000000000000000000000000000001000000000000000000000020000000000000000000800000000000000000000000000000000001000000000000000000000000000000000000000000000000000000000000000000000000000000000000000000000000000000000000000000000200000000000000000000000000000000000000000000000000000000000000000000020000000000000000000000000000000000000000000000000000000000000000000",
                        "logs": [
                            {
                                "address": "0xb03fd6e714a14074a17e2ecfd412e35b1ddb21e5",
                                "topics": [
                                    "0x0000000000000000000000000000000000000000000000000000000000000000",
                                    "0x0000000000000000000000000000000000000000000000000000000000000000",
                                    "0x0000000000000000000000000000000000000000000000000000000000000000",
                                    "0x0000000000000000000000000000000000000000000000000000000000000000"
                                ],
                                "data": "0x"
                            }
                        ],
                        "status": true,
                        "rlp": "0xf901a70182d439b9010000000000000000000000000000000000000000000000000000000000000000000000000000000000000000000000000000000000000000000000000000000000000000000000000000000000000000000000000000000000001000000000000000000000020000000000000000000800000000000000000000000000000000001000000000000000000000000000000000000000000000000000000000000000000000000000000000000000000000000000000000000000000000200000000000000000000000000000000000000000000000000000000000000000000020000000000000000000000000000000000000000000000000000000000000000000f89ef89c94b03fd6e714a14074a17e2ecfd412e35b1ddb21e5f884a00000000000000000000000000000000000000000000000000000000000000000a00000000000000000000000000000000000000000000000000000000000000000a00000000000000000000000000000000000000000000000000000000000000000a0000000000000000000000000000000000000000000000000000000000000000080"
                    }
                ],
                "rlp": "0xf902a5f90239a0974b377ae295c526100159055ebfbec97e66bb3414bdeea2c1b14d10be496cd8a01dcc4de8dec75d7aab85b567b6ccd41ad312451b948a7413f0a142fd40d49347942adc25665018aa1fe0e6bc666dac8fc2697ff9baa06e7e855d3bbd8c9af242420fa7f22506c5e98285bac5497708c8f2f2993767d5a098b5d0b9f245f3f05178b228c487299e1645befd1248d28886f36279372c2f07a0549744ecc0f9cd497f741aa9d6d04757eca9c9adb34b0dbb76d59d6be8550a27b90100000000000000000000000000000000000000000000000000000000000000000000000000000000000000000000000000000000000000000000000000000000000000000000000000000000000000000000000000000000000010000000000000000000000200000000000000000008000000000000000000000000000000000010000000000000000000000000000000000000000000000000000000000000000000000000000000000000000000000000000000000000000000002000000000000000000000000000000000000000000000000000000000000000000000200000000000000000000000000000000000000000000000000000000000000000008001830f424082d4398203e800a000000000000000000000000000000000000000000000000000000000000200008800000000000000000aa056e81f171bcc55a6ff8345e692c0f86e5b48e01b996cadc001622fb5e363b4218080a00000000000000000000000000000000000000000000000000000000000000000f865f863800a83033450941e5597b6168fe79952cb2de7af91c3449bc95bd4830186a08026a09b6dd879cc59a9db0fba100de9983f22060bfc7a371084280f4f23394c73a709a03bd127c365fae0e030c528c21e254030afbf19bf7ef7ff511b97d7504b5fc8b2c0c0",
                "blocknumber": "1"
            }
        ],
        "sealEngine": "NoProof",
        "_info": {
            "hash": "0x1d75aa9a90555f50537e1dec47378465dd49e5ce05e3f32894cbdec7ea51bb25",
            "fixture-format": "blockchain_test",
            "comment": "`execution-specs` generated test",
            "filling-transition-tool": "2.19.0",
            "description": "No description available - add a docstring to the python test class or function.",
            "url": "",
            "opcode_count": {}
        }
    }
}