{
    "tests/constantinople/eip1014_create2/test_recreate.py::test_recreate[fork_Istanbul-blockchain_test-recreate_on_separate_block_False]": {
        "network": "Istanbul",
        "genesisBlockHeader": {
            "parentHash": "0x0000000000000000000000000000000000000000000000000000000000000000",
            "uncleHash": "0x1dcc4de8dec75d7aab85b567b6ccd41ad312451b948a7413f0a142fd40d49347",
            "coinbase": "0x0000000000000000000000000000000000000000",
            "stateRoot": "0xc6c1acb8021424730fa89c260d9ae01f48270283457abe81776bdf258a99c5a3",
            "transactionsTrie": "0x56e81f171bcc55a6ff8345e692c0f86e5b48e01b996cadc001622fb5e363b421",
            "receiptTrie": "0x56e81f171bcc55a6ff8345e692c0f86e5b48e01b996cadc001622fb5e363b421",
            "bloom": "0x00000000000000000000000000000000000000000000000000000000000000000000000000000000000000000000000000000000000000000000000000000000000000000000000000000000000000000000000000000000000000000000000000000000000000000000000000000000000000000000000000000000000000000000000000000000000000000000000000000000000000000000000000000000000000000000000000000000000000000000000000000000000000000000000000000000000000000000000000000000000000000000000000000000000000000000000000000000000000000000000000000000000000000000000000000000",
            "difficulty": "0x020000",
            "number": "0x00",
            "gasLimit": "0x07270e00",
            "gasUsed": "0x00",
            "timestamp": "0x00",
            "extraData": "0x00",
            "mixHash": "0x0000000000000000000000000000000000000000000000000000000000000000",
            "nonce": "0x0000000000000000",
            "hash": "0xd6b2765151c54ac0ea8ff71b8e75017bb7d59dc04ed5086532ce267cef3d6939"
        },
        "pre": {
            "0xb6726346a1f3993673f27fda0e6c4edc7db87527": {
                "nonce": "0x01",
                "balance": "0x00",
                "code": "0x36600060003760003660006000f5",
                "storage": {}
            },
            "0x1ad9bc24818784172ff393bb6f89f094d4d2ca29": {
                "nonce": "0x00",
                "balance": "0x3635c9adc5dea00000",
                "code": "0x",
                "storage": {}
            }
        },
        "postState": {
            "0xb6726346a1f3993673f27fda0e6c4edc7db87527": {
                "nonce": "0x03",
                "balance": "0x00",
                "code": "0x36600060003760003660006000f5",
                "storage": {}
            },
            "0x1ad9bc24818784172ff393bb6f89f094d4d2ca29": {
                "nonce": "0x05",
                "balance": "0x3635c9adc5de812228",
                "code": "0x",
                "storage": {}
            },
            "0x2adc25665018aa1fe0e6bc666dac8fc2697ff9ba": {
                "nonce": "0x00",
                "balance": "0x3782dace9daeddd6",
                "code": "0x",
                "storage": {}
            },
            "0x0000000000000000000000000000000000000000": {
                "nonce": "0x00",
                "balance": "0x01",
                "code": "0x",
                "storage": {}
            },
            "0x614e6c77c7ff5f85fc0ab017ad6d28158cadd085": {
                "nonce": "0x01",
                "balance": "0x01",
                "code": "0x34600014600c5734600055005b6000ff",
                "storage": {}
            }
        },
        "lastblockhash": "0xecf92a83c7cc0decadc24a587742202e23a707cb5afff39eaa71d8da13872d73",
        "config": {
            "network": "Istanbul",
            "chainid": "0x01"
        },
        "genesisRLP": "0xf901f9f901f4a00000000000000000000000000000000000000000000000000000000000000000a01dcc4de8dec75d7aab85b567b6ccd41ad312451b948a7413f0a142fd40d49347940000000000000000000000000000000000000000a0c6c1acb8021424730fa89c260d9ae01f48270283457abe81776bdf258a99c5a3a056e81f171bcc55a6ff8345e692c0f86e5b48e01b996cadc001622fb5e363b421a056e81f171bcc55a6ff8345e692c0f86e5b48e01b996cadc001622fb5e363b421b901000000000000000000000000000000000000000000000000000000000000000000000000000000000000000000000000000000000000000000000000000000000000000000000000000000000000000000000000000000000000000000000000000000000000000000000000000000000000000000000000000000000000000000000000000000000000000000000000000000000000000000000000000000000000000000000000000000000000000000000000000000000000000000000000000000000000000000000000000000000000000000000000000000000000000000000000000000000000000000000000000000000000000000000000000000000083020000808407270e00808000a00000000000000000000000000000000000000000000000000000000000000000880000000000000000c0c0",
        "blocks": [
            {
                "blockHeader": {
                    "parentHash": "0xd6b2765151c54ac0ea8ff71b8e75017bb7d59dc04ed5086532ce267cef3d6939",
                    "uncleHash": "0x1dcc4de8dec75d7aab85b567b6ccd41ad312451b948a7413f0a142fd40d49347",
                    "coinbase": "0x2adc25665018aa1fe0e6bc666dac8fc2697ff9ba",
                    "stateRoot": "0xf932c522f970a9e4510ef3692e8e77cb0dd2745b2d69b187a5c9b8f809adbebb",
                    "transactionsTrie": "0xcbf2803ea093d5fd8533a162acb28da17052d7ec5bb236a086673ed575c15c94",
                    "receiptTrie": "0x240e10982c5a9ab939cecae41d464f81f26806183ae5e1849f290cace247a289",
                    "bloom": "0x00000000000000000000000000000000000000000000000000000000000000000000000000000000000000000000000000000000000000000000000000000000000000000000000000000000000000000000000000000000000000000000000000000000000000000000000000000000000000000000000000000000000000000000000000000000000000000000000000000000000000000000000000000000000000000000000000000000000000000000000000000000000000000000000000000000000000000000000000000000000000000000000000000000000000000000000000000000000000000000000000000000000000000000000000000000",
                    "difficulty": "0x020000",
                    "number": "0x01",
                    "gasLimit": "0x07270e00",
                    "gasUsed": "0x017d6c",
                    "timestamp": "0x0c",
                    "extraData": "0x",
                    "mixHash": "0x0000000000000000000000000000000000000000000000000000000000000000",
                    "nonce": "0x0000000000000000",
                    "hash": "0x92f633b3784b5711f1aa4754a18f7cb3e840d12b71a7d2b3a33d717549f94d2e"
                },
                "transactions": [
                    {
                        "type": "0x00",
                        "chainId": "0x01",
                        "nonce": "0x00",
                        "gasPrice": "0x0a",
                        "gasLimit": "0x0186a0",
                        "to": "0xb6726346a1f3993673f27fda0e6c4edc7db87527",
                        "value": "0x00",
                        "data": "0x610010600081600b8239f334600014600c5734600055005b6000ff",
                        "v": "0x25",
                        "r": "0x972cd1ed5d97bf377621e7cfec9527a4497a4b855a9ae29f3e5d3589f475c95f",
                        "s": "0x209ffb1df03d7e79a424d9976139ea3981a386e778653541a743a576b3f77101",
                        "sender": "0x1ad9bc24818784172ff393bb6f89f094d4d2ca29"
                    },
                    {
                        "type": "0x00",
                        "chainId": "0x01",
                        "nonce": "0x01",
                        "gasPrice": "0x0a",
                        "gasLimit": "0x0186a0",
                        "to": "0x614e6c77c7ff5f85fc0ab017ad6d28158cadd085",
                        "value": "0x01",
                        "data": "0x",
                        "v": "0x26",
                        "r": "0xb2791a35b3cfc1ada0e1cbb044840c156db01adfe966e5b91c74f73188a1fc7c",
                        "s": "0x02aad09cbb55c55cb7450f7cf626522407fb52a02f96042e0563874b7a5d1772",
                        "sender": "0x1ad9bc24818784172ff393bb6f89f094d4d2ca29"
                    }
                ],
                "uncleHeaders": [],
                "receipts": [
                    {
                        "transactionHash": "0x543f9c739760973e7843c261ee5a0a56a2ef8a1b8652a0ff3c1b2a25b4c1ce88",
                        "type": "0x00",
                        "cumulativeGasUsed": "0xdd2a",
                        "bloom": "0x00000000000000000000000000000000000000000000000000000000000000000000000000000000000000000000000000000000000000000000000000000000000000000000000000000000000000000000000000000000000000000000000000000000000000000000000000000000000000000000000000000000000000000000000000000000000000000000000000000000000000000000000000000000000000000000000000000000000000000000000000000000000000000000000000000000000000000000000000000000000000000000000000000000000000000000000000000000000000000000000000000000000000000000000000000000",
                        "logs": [],
                        "status": true,
                        "rlp": "0xf901080182dd2ab9010000000000000000000000000000000000000000000000000000000000000000000000000000000000000000000000000000000000000000000000000000000000000000000000000000000000000000000000000000000000000000000000000000000000000000000000000000000000000000000000000000000000000000000000000000000000000000000000000000000000000000000000000000000000000000000000000000000000000000000000000000000000000000000000000000000000000000000000000000000000000000000000000000000000000000000000000000000000000000000000000000000000000000000000000000000000c0"
                    },
                    {
                        "transactionHash": "0xd120948551ccafe5ffefc49b4de220a248b8d7e2e54bf24dfa2e030cbe4863f3",
                        "type": "0x00",
                        "cumulativeGasUsed": "0x017d6c",
                        "bloom": "0x00000000000000000000000000000000000000000000000000000000000000000000000000000000000000000000000000000000000000000000000000000000000000000000000000000000000000000000000000000000000000000000000000000000000000000000000000000000000000000000000000000000000000000000000000000000000000000000000000000000000000000000000000000000000000000000000000000000000000000000000000000000000000000000000000000000000000000000000000000000000000000000000000000000000000000000000000000000000000000000000000000000000000000000000000000000",
                        "logs": [],
                        "status": true,
                        "rlp": "0xf901090183017d6cb9010000000000000000000000000000000000000000000000000000000000000000000000000000000000000000000000000000000000000000000000000000000000000000000000000000000000000000000000000000000000000000000000000000000000000000000000000000000000000000000000000000000000000000000000000000000000000000000000000000000000000000000000000000000000000000000000000000000000000000000000000000000000000000000000000000000000000000000000000000000000000000000000000000000000000000000000000000000000000000000000000000000000000000000000000000000000c0"
                    }
                ],
                "rlp": "0xf902dcf901f7a0d6b2765151c54ac0ea8ff71b8e75017bb7d59dc04ed5086532ce267cef3d6939a01dcc4de8dec75d7aab85b567b6ccd41ad312451b948a7413f0a142fd40d49347942adc25665018aa1fe0e6bc666dac8fc2697ff9baa0f932c522f970a9e4510ef3692e8e77cb0dd2745b2d69b187a5c9b8f809adbebba0cbf2803ea093d5fd8533a162acb28da17052d7ec5bb236a086673ed575c15c94a0240e10982c5a9ab939cecae41d464f81f26806183ae5e1849f290cace247a289b901000000000000000000000000000000000000000000000000000000000000000000000000000000000000000000000000000000000000000000000000000000000000000000000000000000000000000000000000000000000000000000000000000000000000000000000000000000000000000000000000000000000000000000000000000000000000000000000000000000000000000000000000000000000000000000000000000000000000000000000000000000000000000000000000000000000000000000000000000000000000000000000000000000000000000000000000000000000000000000000000000000000000000000000000000000000083020000018407270e0083017d6c0c80a00000000000000000000000000000000000000000000000000000000000000000880000000000000000f8dff87b800a830186a094b6726346a1f3993673f27fda0e6c4edc7db87527809b610010600081600b8239f334600014600c5734600055005b6000ff25a0972cd1ed5d97bf377621e7cfec9527a4497a4b855a9ae29f3e5d3589f475c95fa0209ffb1df03d7e79a424d9976139ea3981a386e778653541a743a576b3f77101f860010a830186a094614e6c77c7ff5f85fc0ab017ad6d28158cadd085018026a0b2791a35b3cfc1ada0e1cbb044840c156db01adfe966e5b91c74f73188a1fc7ca002aad09cbb55c55cb7450f7cf626522407fb52a02f96042e0563874b7a5d1772c0",
                "blocknumber": "1"
            },
            {
                "blockHeader": {
                    "parentHash": "0x92f633b3784b5711f1aa4754a18f7cb3e840d12b71a7d2b3a33d717549f94d2e",
                    "uncleHash": "0x1dcc4de8dec75d7aab85b567b6ccd41ad312451b948a7413f0a142fd40d49347",
                    "coinbase": "0x2adc25665018aa1fe0e6bc666dac8fc2697ff9ba",
                    "stateRoot": "0x004857cbcc8e836112bfcff02e9e142b0dcb8553210c6930bfa9f69a13adba37",
                    "transactionsTrie": "0xd280e4463cf87e1fe9bd9f07be23149ecf646ef173664e21fa12cd4f0e53bfc6",
                    "receiptTrie": "0x90bc99f2eed24f9da738a268e95163dafdf78832df22732993122aee419d4c4d",
                    "bloom": "0x00000000000000000000000000000000000000000000000000000000000000000000000000000000000000000000000000000000000000000000000000000000000000000000000000000000000000000000000000000000000000000000000000000000000000000000000000000000000000000000000000000000000000000000000000000000000000000000000000000000000000000000000000000000000000000000000000000000000000000000000000000000000000000000000000000000000000000000000000000000000000000000000000000000000000000000000000000000000000000000000000000000000000000000000000000000",
                    "difficulty": "0x020000",
                    "number": "0x02",
                    "gasLimit": "0x07270e00",
                    "gasUsed": "0x0198c3",
                    "timestamp": "0x18",
                    "extraData": "0x",
                    "mixHash": "0x0000000000000000000000000000000000000000000000000000000000000000",
                    "nonce": "0x0000000000000000",
                    "hash": "0xecf92a83c7cc0decadc24a587742202e23a707cb5afff39eaa71d8da13872d73"
                },
                "transactions": [
                    {
                        "type": "0x00",
                        "chainId": "0x01",
                        "nonce": "0x02",
                        "gasPrice": "0x0a",
                        "gasLimit": "0x0186a0",
                        "to": "0x614e6c77c7ff5f85fc0ab017ad6d28158cadd085",
                        "value": "0x00",
                        "data": "0x",
                        "v": "0x26",
                        "r": "0x6508294e3e71f1980107b71af92b79e658dfc7c9e1246d9426e0ea5fb14e9b64",
                        "s": "0x2ddbfe0148a9c71aacd2524a9b204c6fdaa6fb35ab688798206290fde710252d",
                        "sender": "0x1ad9bc24818784172ff393bb6f89f094d4d2ca29"
                    },
                    {
                        "type": "0x00",
                        "chainId": "0x01",
                        "nonce": "0x03",
                        "gasPrice": "0x0a",
                        "gasLimit": "0x0186a0",
                        "to": "0x614e6c77c7ff5f85fc0ab017ad6d28158cadd085",
                        "value": "0x01",
                        "data": "0x",
                        "v": "0x25",
                        "r": "0xfcd8517f32db1fa54ad3b37fba96858dc6688fcbbcd7014c033bc317f461b5b8",
                        "s": "0x524f264e56168ca4166bd69f165a6c136f5ac0f191f05df851db4a05976daa79",
                        "sender": "0x1ad9bc24818784172ff393bb6f89f094d4d2ca29"
                    },
                    {
                        "type": "0x00",
                        "chainId": "0x01",
                        "nonce": "0x04",
                        "gasPrice": "0x0a",
                        "gasLimit": "0x0186a0",
                        "to": "0xb6726346a1f3993673f27fda0e6c4edc7db87527",
                        "value": "0x00",
                        "data": "0x610010600081600b8239f334600014600c5734600055005b6000ff",
                        "v": "0x25",
                        "r": "0x29cca57f3c017d47f6bf9102394225ded24266d0fc7371db5b2c1de01d21b2ff",
                        "s": "0x424b08615638593cf4a3c8342b021606f7ce6204dc345891a415e1a5ec3c9843",
                        "sender": "0x1ad9bc24818784172ff393bb6f89f094d4d2ca29"
                    }
                ],
                "uncleHeaders": [],
                "receipts": [
                    {
                        "transactionHash": "0xc21f8827c0a856dd2f3ce8f9e9d828a98195b61cee3a242f8b443bf89bde4311",
                        "type": "0x00",
                        "cumulativeGasUsed": "0x6991",
                        "bloom": "0x00000000000000000000000000000000000000000000000000000000000000000000000000000000000000000000000000000000000000000000000000000000000000000000000000000000000000000000000000000000000000000000000000000000000000000000000000000000000000000000000000000000000000000000000000000000000000000000000000000000000000000000000000000000000000000000000000000000000000000000000000000000000000000000000000000000000000000000000000000000000000000000000000000000000000000000000000000000000000000000000000000000000000000000000000000000",
                        "logs": [],
                        "status": true,
                        "rlp": "0xf9010801826991b9010000000000000000000000000000000000000000000000000000000000000000000000000000000000000000000000000000000000000000000000000000000000000000000000000000000000000000000000000000000000000000000000000000000000000000000000000000000000000000000000000000000000000000000000000000000000000000000000000000000000000000000000000000000000000000000000000000000000000000000000000000000000000000000000000000000000000000000000000000000000000000000000000000000000000000000000000000000000000000000000000000000000000000000000000000000000c0"
                    },
                    {
                        "transactionHash": "0x7ea9b43d59c8267bd3b35cbd2cf39a42619a52afe8de97cba455c0016667da96",
                        "type": "0x00",
                        "cumulativeGasUsed": "0xbb99",
                        "bloom": "0x00000000000000000000000000000000000000000000000000000000000000000000000000000000000000000000000000000000000000000000000000000000000000000000000000000000000000000000000000000000000000000000000000000000000000000000000000000000000000000000000000000000000000000000000000000000000000000000000000000000000000000000000000000000000000000000000000000000000000000000000000000000000000000000000000000000000000000000000000000000000000000000000000000000000000000000000000000000000000000000000000000000000000000000000000000000",
                        "logs": [],
                        "status": true,
                        "rlp": "0xf901080182bb99b9010000000000000000000000000000000000000000000000000000000000000000000000000000000000000000000000000000000000000000000000000000000000000000000000000000000000000000000000000000000000000000000000000000000000000000000000000000000000000000000000000000000000000000000000000000000000000000000000000000000000000000000000000000000000000000000000000000000000000000000000000000000000000000000000000000000000000000000000000000000000000000000000000000000000000000000000000000000000000000000000000000000000000000000000000000000000c0"
                    },
                    {
                        "transactionHash": "0x1b97cea0442efe7d2b001004992efcb53a32c8b8a13d8676a86e11e211531ceb",
                        "type": "0x00",
                        "cumulativeGasUsed": "0x0198c3",
                        "bloom": "0x00000000000000000000000000000000000000000000000000000000000000000000000000000000000000000000000000000000000000000000000000000000000000000000000000000000000000000000000000000000000000000000000000000000000000000000000000000000000000000000000000000000000000000000000000000000000000000000000000000000000000000000000000000000000000000000000000000000000000000000000000000000000000000000000000000000000000000000000000000000000000000000000000000000000000000000000000000000000000000000000000000000000000000000000000000000",
                        "logs": [],
                        "status": true,
                        "rlp": "0xf9010901830198c3b9010000000000000000000000000000000000000000000000000000000000000000000000000000000000000000000000000000000000000000000000000000000000000000000000000000000000000000000000000000000000000000000000000000000000000000000000000000000000000000000000000000000000000000000000000000000000000000000000000000000000000000000000000000000000000000000000000000000000000000000000000000000000000000000000000000000000000000000000000000000000000000000000000000000000000000000000000000000000000000000000000000000000000000000000000000000000c0"
                    }
                ],
                "rlp": "0xf9033ff901f7a092f633b3784b5711f1aa4754a18f7cb3e840d12b71a7d2b3a33d717549f94d2ea01dcc4de8dec75d7aab85b567b6ccd41ad312451b948a7413f0a142fd40d49347942adc25665018aa1fe0e6bc666dac8fc2697ff9baa0004857cbcc8e836112bfcff02e9e142b0dcb8553210c6930bfa9f69a13adba37a0d280e4463cf87e1fe9bd9f07be23149ecf646ef173664e21fa12cd4f0e53bfc6a090bc99f2eed24f9da738a268e95163dafdf78832df22732993122aee419d4c4db901000000000000000000000000000000000000000000000000000000000000000000000000000000000000000000000000000000000000000000000000000000000000000000000000000000000000000000000000000000000000000000000000000000000000000000000000000000000000000000000000000000000000000000000000000000000000000000000000000000000000000000000000000000000000000000000000000000000000000000000000000000000000000000000000000000000000000000000000000000000000000000000000000000000000000000000000000000000000000000000000000000000000000000000000000000000083020000028407270e00830198c31880a00000000000000000000000000000000000000000000000000000000000000000880000000000000000f90141f860020a830186a094614e6c77c7ff5f85fc0ab017ad6d28158cadd085808026a06508294e3e71f1980107b71af92b79e658dfc7c9e1246d9426e0ea5fb14e9b64a02ddbfe0148a9c71aacd2524a9b204c6fdaa6fb35ab688798206290fde710252df860030a830186a094614e6c77c7ff5f85fc0ab017ad6d28158cadd085018025a0fcd8517f32db1fa54ad3b37fba96858dc6688fcbbcd7014c033bc317f461b5b8a0524f264e56168ca4166bd69f165a6c136f5ac0f191f05df851db4a05976daa79f87b040a830186a094b6726346a1f3993673f27fda0e6c4edc7db87527809b610010600081600b8239f334600014600c5734600055005b6000ff25a029cca57f3c017d47f6bf9102394225ded24266d0fc7371db5b2c1de01d21b2ffa0424b08615638593cf4a3c8342b021606f7ce6204dc345891a415e1a5ec3c9843c0",
                "blocknumber": "2"
            }
        ],
        "sealEngine": "NoProof",
        "_info": {
            "hash": "0x9322963ab1870143a77498c20b013b563c9c03ce495f3adc5fec028e01fdda47",
            "fixture-format": "blockchain_test",
            "comment": "`execution-specs` generated test",
            "filling-transition-tool": "2.19.0",
            "description": "Test that the storage is cleared when a contract is first destructed then\nre-created using CREATE2.",
            "url": "https://github.com/ethereum/execution-specs/blob/tests-sn\u00f8bal-devnet-4@v1.0.0/tests/constantinople/eip1014_create2/test_recreate.py#L22",
            "metadata": {
                "opcode_count": {}
            },
            "reference-spec": "https://github.com/ethereum/EIPs/blob/master/EIPS/eip-1014.md",
            "reference-spec-version": "31d4d62ec1dfc9f2bb26ca648f05d4cc2f47da09"
        }
    },
    "tests/constantinople/eip1014_create2/test_recreate.py::test_recreate[fork_Istanbul-blockchain_test-recreate_on_separate_block_True]": {
        "network": "Istanbul",
        "genesisBlockHeader": {
            "parentHash": "0x0000000000000000000000000000000000000000000000000000000000000000",
            "uncleHash": "0x1dcc4de8dec75d7aab85b567b6ccd41ad312451b948a7413f0a142fd40d49347",
            "coinbase": "0x0000000000000000000000000000000000000000",
            "stateRoot": "0xc6c1acb8021424730fa89c260d9ae01f48270283457abe81776bdf258a99c5a3",
            "transactionsTrie": "0x56e81f171bcc55a6ff8345e692c0f86e5b48e01b996cadc001622fb5e363b421",
            "receiptTrie": "0x56e81f171bcc55a6ff8345e692c0f86e5b48e01b996cadc001622fb5e363b421",
            "bloom": "0x00000000000000000000000000000000000000000000000000000000000000000000000000000000000000000000000000000000000000000000000000000000000000000000000000000000000000000000000000000000000000000000000000000000000000000000000000000000000000000000000000000000000000000000000000000000000000000000000000000000000000000000000000000000000000000000000000000000000000000000000000000000000000000000000000000000000000000000000000000000000000000000000000000000000000000000000000000000000000000000000000000000000000000000000000000000",
            "difficulty": "0x020000",
            "number": "0x00",
            "gasLimit": "0x07270e00",
            "gasUsed": "0x00",
            "timestamp": "0x00",
            "extraData": "0x00",
            "mixHash": "0x0000000000000000000000000000000000000000000000000000000000000000",
            "nonce": "0x0000000000000000",
            "hash": "0xd6b2765151c54ac0ea8ff71b8e75017bb7d59dc04ed5086532ce267cef3d6939"
        },
        "pre": {
            "0xb6726346a1f3993673f27fda0e6c4edc7db87527": {
                "nonce": "0x01",
                "balance": "0x00",
                "code": "0x36600060003760003660006000f5",
                "storage": {}
            },
            "0x1ad9bc24818784172ff393bb6f89f094d4d2ca29": {
                "nonce": "0x00",
                "balance": "0x3635c9adc5dea00000",
                "code": "0x",
                "storage": {}
            }
        },
        "postState": {
            "0xb6726346a1f3993673f27fda0e6c4edc7db87527": {
                "nonce": "0x03",
                "balance": "0x00",
                "code": "0x36600060003760003660006000f5",
                "storage": {}
            },
            "0x1ad9bc24818784172ff393bb6f89f094d4d2ca29": {
                "nonce": "0x05",
                "balance": "0x3635c9adc5de812228",
                "code": "0x",
                "storage": {}
            },
            "0x2adc25665018aa1fe0e6bc666dac8fc2697ff9ba": {
                "nonce": "0x00",
                "balance": "0x53444835ec76ddd6",
                "code": "0x",
                "storage": {}
            },
            "0x0000000000000000000000000000000000000000": {
                "nonce": "0x00",
                "balance": "0x01",
                "code": "0x",
                "storage": {}
            },
            "0x614e6c77c7ff5f85fc0ab017ad6d28158cadd085": {
                "nonce": "0x01",
                "balance": "0x01",
                "code": "0x34600014600c5734600055005b6000ff",
                "storage": {}
            }
        },
        "lastblockhash": "0x4cda1b9f9521e1109330ec505ff5cbdf67a2eb3a11e65dfe25e153f179076a99",
        "config": {
            "network": "Istanbul",
            "chainid": "0x01"
        },
        "genesisRLP": "0xf901f9f901f4a00000000000000000000000000000000000000000000000000000000000000000a01dcc4de8dec75d7aab85b567b6ccd41ad312451b948a7413f0a142fd40d49347940000000000000000000000000000000000000000a0c6c1acb8021424730fa89c260d9ae01f48270283457abe81776bdf258a99c5a3a056e81f171bcc55a6ff8345e692c0f86e5b48e01b996cadc001622fb5e363b421a056e81f171bcc55a6ff8345e692c0f86e5b48e01b996cadc001622fb5e363b421b901000000000000000000000000000000000000000000000000000000000000000000000000000000000000000000000000000000000000000000000000000000000000000000000000000000000000000000000000000000000000000000000000000000000000000000000000000000000000000000000000000000000000000000000000000000000000000000000000000000000000000000000000000000000000000000000000000000000000000000000000000000000000000000000000000000000000000000000000000000000000000000000000000000000000000000000000000000000000000000000000000000000000000000000000000000000083020000808407270e00808000a00000000000000000000000000000000000000000000000000000000000000000880000000000000000c0c0",
        "blocks": [
            {
                "blockHeader": {
                    "parentHash": "0xd6b2765151c54ac0ea8ff71b8e75017bb7d59dc04ed5086532ce267cef3d6939",
                    "uncleHash": "0x1dcc4de8dec75d7aab85b567b6ccd41ad312451b948a7413f0a142fd40d49347",
                    "coinbase": "0x2adc25665018aa1fe0e6bc666dac8fc2697ff9ba",
                    "stateRoot": "0xf932c522f970a9e4510ef3692e8e77cb0dd2745b2d69b187a5c9b8f809adbebb",
                    "transactionsTrie": "0xcbf2803ea093d5fd8533a162acb28da17052d7ec5bb236a086673ed575c15c94",
                    "receiptTrie": "0x240e10982c5a9ab939cecae41d464f81f26806183ae5e1849f290cace247a289",
                    "bloom": "0x00000000000000000000000000000000000000000000000000000000000000000000000000000000000000000000000000000000000000000000000000000000000000000000000000000000000000000000000000000000000000000000000000000000000000000000000000000000000000000000000000000000000000000000000000000000000000000000000000000000000000000000000000000000000000000000000000000000000000000000000000000000000000000000000000000000000000000000000000000000000000000000000000000000000000000000000000000000000000000000000000000000000000000000000000000000",
                    "difficulty": "0x020000",
                    "number": "0x01",
                    "gasLimit": "0x07270e00",
                    "gasUsed": "0x017d6c",
                    "timestamp": "0x0c",
                    "extraData": "0x",
                    "mixHash": "0x0000000000000000000000000000000000000000000000000000000000000000",
                    "nonce": "0x0000000000000000",
                    "hash": "0x92f633b3784b5711f1aa4754a18f7cb3e840d12b71a7d2b3a33d717549f94d2e"
                },
                "transactions": [
                    {
                        "type": "0x00",
                        "chainId": "0x01",
                        "nonce": "0x00",
                        "gasPrice": "0x0a",
                        "gasLimit": "0x0186a0",
                        "to": "0xb6726346a1f3993673f27fda0e6c4edc7db87527",
                        "value": "0x00",
                        "data": "0x610010600081600b8239f334600014600c5734600055005b6000ff",
                        "v": "0x25",
                        "r": "0x972cd1ed5d97bf377621e7cfec9527a4497a4b855a9ae29f3e5d3589f475c95f",
                        "s": "0x209ffb1df03d7e79a424d9976139ea3981a386e778653541a743a576b3f77101",
                        "sender": "0x1ad9bc24818784172ff393bb6f89f094d4d2ca29"
                    },
                    {
                        "type": "0x00",
                        "chainId": "0x01",
                        "nonce": "0x01",
                        "gasPrice": "0x0a",
                        "gasLimit": "0x0186a0",
                        "to": "0x614e6c77c7ff5f85fc0ab017ad6d28158cadd085",
                        "value": "0x01",
                        "data": "0x",
                        "v": "0x26",
                        "r": "0xb2791a35b3cfc1ada0e1cbb044840c156db01adfe966e5b91c74f73188a1fc7c",
                        "s": "0x02aad09cbb55c55cb7450f7cf626522407fb52a02f96042e0563874b7a5d1772",
                        "sender": "0x1ad9bc24818784172ff393bb6f89f094d4d2ca29"
                    }
                ],
                "uncleHeaders": [],
                "receipts": [
                    {
                        "transactionHash": "0x543f9c739760973e7843c261ee5a0a56a2ef8a1b8652a0ff3c1b2a25b4c1ce88",
                        "type": "0x00",
                        "cumulativeGasUsed": "0xdd2a",
                        "bloom": "0x00000000000000000000000000000000000000000000000000000000000000000000000000000000000000000000000000000000000000000000000000000000000000000000000000000000000000000000000000000000000000000000000000000000000000000000000000000000000000000000000000000000000000000000000000000000000000000000000000000000000000000000000000000000000000000000000000000000000000000000000000000000000000000000000000000000000000000000000000000000000000000000000000000000000000000000000000000000000000000000000000000000000000000000000000000000",
                        "logs": [],
                        "status": true,
                        "rlp": "0xf901080182dd2ab9010000000000000000000000000000000000000000000000000000000000000000000000000000000000000000000000000000000000000000000000000000000000000000000000000000000000000000000000000000000000000000000000000000000000000000000000000000000000000000000000000000000000000000000000000000000000000000000000000000000000000000000000000000000000000000000000000000000000000000000000000000000000000000000000000000000000000000000000000000000000000000000000000000000000000000000000000000000000000000000000000000000000000000000000000000000000c0"
                    },
                    {
                        "transactionHash": "0xd120948551ccafe5ffefc49b4de220a248b8d7e2e54bf24dfa2e030cbe4863f3",
                        "type": "0x00",
                        "cumulativeGasUsed": "0x017d6c",
                        "bloom": "0x00000000000000000000000000000000000000000000000000000000000000000000000000000000000000000000000000000000000000000000000000000000000000000000000000000000000000000000000000000000000000000000000000000000000000000000000000000000000000000000000000000000000000000000000000000000000000000000000000000000000000000000000000000000000000000000000000000000000000000000000000000000000000000000000000000000000000000000000000000000000000000000000000000000000000000000000000000000000000000000000000000000000000000000000000000000",
                        "logs": [],
                        "status": true,
                        "rlp": "0xf901090183017d6cb9010000000000000000000000000000000000000000000000000000000000000000000000000000000000000000000000000000000000000000000000000000000000000000000000000000000000000000000000000000000000000000000000000000000000000000000000000000000000000000000000000000000000000000000000000000000000000000000000000000000000000000000000000000000000000000000000000000000000000000000000000000000000000000000000000000000000000000000000000000000000000000000000000000000000000000000000000000000000000000000000000000000000000000000000000000000000c0"
                    }
                ],
                "rlp": "0xf902dcf901f7a0d6b2765151c54ac0ea8ff71b8e75017bb7d59dc04ed5086532ce267cef3d6939a01dcc4de8dec75d7aab85b567b6ccd41ad312451b948a7413f0a142fd40d49347942adc25665018aa1fe0e6bc666dac8fc2697ff9baa0f932c522f970a9e4510ef3692e8e77cb0dd2745b2d69b187a5c9b8f809adbebba0cbf2803ea093d5fd8533a162acb28da17052d7ec5bb236a086673ed575c15c94a0240e10982c5a9ab939cecae41d464f81f26806183ae5e1849f290cace247a289b901000000000000000000000000000000000000000000000000000000000000000000000000000000000000000000000000000000000000000000000000000000000000000000000000000000000000000000000000000000000000000000000000000000000000000000000000000000000000000000000000000000000000000000000000000000000000000000000000000000000000000000000000000000000000000000000000000000000000000000000000000000000000000000000000000000000000000000000000000000000000000000000000000000000000000000000000000000000000000000000000000000000000000000000000000000000083020000018407270e0083017d6c0c80a00000000000000000000000000000000000000000000000000000000000000000880000000000000000f8dff87b800a830186a094b6726346a1f3993673f27fda0e6c4edc7db87527809b610010600081600b8239f334600014600c5734600055005b6000ff25a0972cd1ed5d97bf377621e7cfec9527a4497a4b855a9ae29f3e5d3589f475c95fa0209ffb1df03d7e79a424d9976139ea3981a386e778653541a743a576b3f77101f860010a830186a094614e6c77c7ff5f85fc0ab017ad6d28158cadd085018026a0b2791a35b3cfc1ada0e1cbb044840c156db01adfe966e5b91c74f73188a1fc7ca002aad09cbb55c55cb7450f7cf626522407fb52a02f96042e0563874b7a5d1772c0",
                "blocknumber": "1"
            },
            {
                "blockHeader": {
                    "parentHash": "0x92f633b3784b5711f1aa4754a18f7cb3e840d12b71a7d2b3a33d717549f94d2e",
                    "uncleHash": "0x1dcc4de8dec75d7aab85b567b6ccd41ad312451b948a7413f0a142fd40d49347",
                    "coinbase": "0x2adc25665018aa1fe0e6bc666dac8fc2697ff9ba",
                    "stateRoot": "0x6c62af3f63878c8f5cd2589e7ce6abb28f1ccf2d47a093307cb2b0ec69c0300a",
                    "transactionsTrie": "0x3f5548f5dc6d46c5035dbabdcd69193484fced5d59bba0b1c96e51acdd5fc5e4",
                    "receiptTrie": "0x5e068762eb7a1946bba9c19e3fa4f2f36a399f420ddf43ecfa3abef8785d8aa1",
                    "bloom": "0x00000000000000000000000000000000000000000000000000000000000000000000000000000000000000000000000000000000000000000000000000000000000000000000000000000000000000000000000000000000000000000000000000000000000000000000000000000000000000000000000000000000000000000000000000000000000000000000000000000000000000000000000000000000000000000000000000000000000000000000000000000000000000000000000000000000000000000000000000000000000000000000000000000000000000000000000000000000000000000000000000000000000000000000000000000000",
                    "difficulty": "0x020000",
                    "number": "0x02",
                    "gasLimit": "0x07270e00",
                    "gasUsed": "0xbb99",
                    "timestamp": "0x18",
                    "extraData": "0x",
                    "mixHash": "0x0000000000000000000000000000000000000000000000000000000000000000",
                    "nonce": "0x0000000000000000",
                    "hash": "0xe95835f46ba43d1179bc9eb81110ed90f7cb9e0b8bfdf6780dc6614974a61201"
                },
                "transactions": [
                    {
                        "type": "0x00",
                        "chainId": "0x01",
                        "nonce": "0x02",
                        "gasPrice": "0x0a",
                        "gasLimit": "0x0186a0",
                        "to": "0x614e6c77c7ff5f85fc0ab017ad6d28158cadd085",
                        "value": "0x00",
                        "data": "0x",
                        "v": "0x26",
                        "r": "0x6508294e3e71f1980107b71af92b79e658dfc7c9e1246d9426e0ea5fb14e9b64",
                        "s": "0x2ddbfe0148a9c71aacd2524a9b204c6fdaa6fb35ab688798206290fde710252d",
                        "sender": "0x1ad9bc24818784172ff393bb6f89f094d4d2ca29"
                    },
                    {
                        "type": "0x00",
                        "chainId": "0x01",
                        "nonce": "0x03",
                        "gasPrice": "0x0a",
                        "gasLimit": "0x0186a0",
                        "to": "0x614e6c77c7ff5f85fc0ab017ad6d28158cadd085",
                        "value": "0x01",
                        "data": "0x",
                        "v": "0x25",
                        "r": "0xfcd8517f32db1fa54ad3b37fba96858dc6688fcbbcd7014c033bc317f461b5b8",
                        "s": "0x524f264e56168ca4166bd69f165a6c136f5ac0f191f05df851db4a05976daa79",
                        "sender": "0x1ad9bc24818784172ff393bb6f89f094d4d2ca29"
                    }
                ],
                "uncleHeaders": [],
                "receipts": [
                    {
                        "transactionHash": "0xc21f8827c0a856dd2f3ce8f9e9d828a98195b61cee3a242f8b443bf89bde4311",
                        "type": "0x00",
                        "cumulativeGasUsed": "0x6991",
                        "bloom": "0x00000000000000000000000000000000000000000000000000000000000000000000000000000000000000000000000000000000000000000000000000000000000000000000000000000000000000000000000000000000000000000000000000000000000000000000000000000000000000000000000000000000000000000000000000000000000000000000000000000000000000000000000000000000000000000000000000000000000000000000000000000000000000000000000000000000000000000000000000000000000000000000000000000000000000000000000000000000000000000000000000000000000000000000000000000000",
                        "logs": [],
                        "status": true,
                        "rlp": "0xf9010801826991b9010000000000000000000000000000000000000000000000000000000000000000000000000000000000000000000000000000000000000000000000000000000000000000000000000000000000000000000000000000000000000000000000000000000000000000000000000000000000000000000000000000000000000000000000000000000000000000000000000000000000000000000000000000000000000000000000000000000000000000000000000000000000000000000000000000000000000000000000000000000000000000000000000000000000000000000000000000000000000000000000000000000000000000000000000000000000c0"
                    },
                    {
                        "transactionHash": "0x7ea9b43d59c8267bd3b35cbd2cf39a42619a52afe8de97cba455c0016667da96",
                        "type": "0x00",
                        "cumulativeGasUsed": "0xbb99",
                        "bloom": "0x00000000000000000000000000000000000000000000000000000000000000000000000000000000000000000000000000000000000000000000000000000000000000000000000000000000000000000000000000000000000000000000000000000000000000000000000000000000000000000000000000000000000000000000000000000000000000000000000000000000000000000000000000000000000000000000000000000000000000000000000000000000000000000000000000000000000000000000000000000000000000000000000000000000000000000000000000000000000000000000000000000000000000000000000000000000",
                        "logs": [],
                        "status": true,
                        "rlp": "0xf901080182bb99b9010000000000000000000000000000000000000000000000000000000000000000000000000000000000000000000000000000000000000000000000000000000000000000000000000000000000000000000000000000000000000000000000000000000000000000000000000000000000000000000000000000000000000000000000000000000000000000000000000000000000000000000000000000000000000000000000000000000000000000000000000000000000000000000000000000000000000000000000000000000000000000000000000000000000000000000000000000000000000000000000000000000000000000000000000000000000c0"
                    }
                ],
                "rlp": "0xf902c0f901f6a092f633b3784b5711f1aa4754a18f7cb3e840d12b71a7d2b3a33d717549f94d2ea01dcc4de8dec75d7aab85b567b6ccd41ad312451b948a7413f0a142fd40d49347942adc25665018aa1fe0e6bc666dac8fc2697ff9baa06c62af3f63878c8f5cd2589e7ce6abb28f1ccf2d47a093307cb2b0ec69c0300aa03f5548f5dc6d46c5035dbabdcd69193484fced5d59bba0b1c96e51acdd5fc5e4a05e068762eb7a1946bba9c19e3fa4f2f36a399f420ddf43ecfa3abef8785d8aa1b901000000000000000000000000000000000000000000000000000000000000000000000000000000000000000000000000000000000000000000000000000000000000000000000000000000000000000000000000000000000000000000000000000000000000000000000000000000000000000000000000000000000000000000000000000000000000000000000000000000000000000000000000000000000000000000000000000000000000000000000000000000000000000000000000000000000000000000000000000000000000000000000000000000000000000000000000000000000000000000000000000000000000000000000000000000000083020000028407270e0082bb991880a00000000000000000000000000000000000000000000000000000000000000000880000000000000000f8c4f860020a830186a094614e6c77c7ff5f85fc0ab017ad6d28158cadd085808026a06508294e3e71f1980107b71af92b79e658dfc7c9e1246d9426e0ea5fb14e9b64a02ddbfe0148a9c71aacd2524a9b204c6fdaa6fb35ab688798206290fde710252df860030a830186a094614e6c77c7ff5f85fc0ab017ad6d28158cadd085018025a0fcd8517f32db1fa54ad3b37fba96858dc6688fcbbcd7014c033bc317f461b5b8a0524f264e56168ca4166bd69f165a6c136f5ac0f191f05df851db4a05976daa79c0",
                "blocknumber": "2"
            },
            {
                "blockHeader": {
                    "parentHash": "0xe95835f46ba43d1179bc9eb81110ed90f7cb9e0b8bfdf6780dc6614974a61201",
                    "uncleHash": "0x1dcc4de8dec75d7aab85b567b6ccd41ad312451b948a7413f0a142fd40d49347",
                    "coinbase": "0x2adc25665018aa1fe0e6bc666dac8fc2697ff9ba",
                    "stateRoot": "0xbc7946dd295c7bf627d985af6aa1ae6b95c95dd65ae344e8762616c82d3bd0e4",
                    "transactionsTrie": "0xa9ee394efa0747dac79859d9d3ec5be837708a443b0cd2f27ca821bcb3a05c2d",
                    "receiptTrie": "0xa25697b6c6412e06e702b34fcf67b47212e93bfcec18a5970eca0ea593b0f020",
                    "bloom": "0x00000000000000000000000000000000000000000000000000000000000000000000000000000000000000000000000000000000000000000000000000000000000000000000000000000000000000000000000000000000000000000000000000000000000000000000000000000000000000000000000000000000000000000000000000000000000000000000000000000000000000000000000000000000000000000000000000000000000000000000000000000000000000000000000000000000000000000000000000000000000000000000000000000000000000000000000000000000000000000000000000000000000000000000000000000000",
                    "difficulty": "0x020000",
                    "number": "0x03",
                    "gasLimit": "0x07270e00",
                    "gasUsed": "0xdd2a",
                    "timestamp": "0x24",
                    "extraData": "0x",
                    "mixHash": "0x0000000000000000000000000000000000000000000000000000000000000000",
                    "nonce": "0x0000000000000000",
                    "hash": "0x4cda1b9f9521e1109330ec505ff5cbdf67a2eb3a11e65dfe25e153f179076a99"
                },
                "transactions": [
                    {
                        "type": "0x00",
                        "chainId": "0x01",
                        "nonce": "0x04",
                        "gasPrice": "0x0a",
                        "gasLimit": "0x0186a0",
                        "to": "0xb6726346a1f3993673f27fda0e6c4edc7db87527",
                        "value": "0x00",
                        "data": "0x610010600081600b8239f334600014600c5734600055005b6000ff",
                        "v": "0x25",
                        "r": "0x29cca57f3c017d47f6bf9102394225ded24266d0fc7371db5b2c1de01d21b2ff",
                        "s": "0x424b08615638593cf4a3c8342b021606f7ce6204dc345891a415e1a5ec3c9843",
                        "sender": "0x1ad9bc24818784172ff393bb6f89f094d4d2ca29"
                    }
                ],
                "uncleHeaders": [],
                "receipts": [
                    {
                        "transactionHash": "0x1b97cea0442efe7d2b001004992efcb53a32c8b8a13d8676a86e11e211531ceb",
                        "type": "0x00",
                        "cumulativeGasUsed": "0xdd2a",
                        "bloom": "0x00000000000000000000000000000000000000000000000000000000000000000000000000000000000000000000000000000000000000000000000000000000000000000000000000000000000000000000000000000000000000000000000000000000000000000000000000000000000000000000000000000000000000000000000000000000000000000000000000000000000000000000000000000000000000000000000000000000000000000000000000000000000000000000000000000000000000000000000000000000000000000000000000000000000000000000000000000000000000000000000000000000000000000000000000000000",
                        "logs": [],
                        "status": true,
                        "rlp": "0xf901080182dd2ab9010000000000000000000000000000000000000000000000000000000000000000000000000000000000000000000000000000000000000000000000000000000000000000000000000000000000000000000000000000000000000000000000000000000000000000000000000000000000000000000000000000000000000000000000000000000000000000000000000000000000000000000000000000000000000000000000000000000000000000000000000000000000000000000000000000000000000000000000000000000000000000000000000000000000000000000000000000000000000000000000000000000000000000000000000000000000c0"
                    }
                ],
                "rlp": "0xf90279f901f6a0e95835f46ba43d1179bc9eb81110ed90f7cb9e0b8bfdf6780dc6614974a61201a01dcc4de8dec75d7aab85b567b6ccd41ad312451b948a7413f0a142fd40d49347942adc25665018aa1fe0e6bc666dac8fc2697ff9baa0bc7946dd295c7bf627d985af6aa1ae6b95c95dd65ae344e8762616c82d3bd0e4a0a9ee394efa0747dac79859d9d3ec5be837708a443b0cd2f27ca821bcb3a05c2da0a25697b6c6412e06e702b34fcf67b47212e93bfcec18a5970eca0ea593b0f020b901000000000000000000000000000000000000000000000000000000000000000000000000000000000000000000000000000000000000000000000000000000000000000000000000000000000000000000000000000000000000000000000000000000000000000000000000000000000000000000000000000000000000000000000000000000000000000000000000000000000000000000000000000000000000000000000000000000000000000000000000000000000000000000000000000000000000000000000000000000000000000000000000000000000000000000000000000000000000000000000000000000000000000000000000000000000083020000038407270e0082dd2a2480a00000000000000000000000000000000000000000000000000000000000000000880000000000000000f87df87b040a830186a094b6726346a1f3993673f27fda0e6c4edc7db87527809b610010600081600b8239f334600014600c5734600055005b6000ff25a029cca57f3c017d47f6bf9102394225ded24266d0fc7371db5b2c1de01d21b2ffa0424b08615638593cf4a3c8342b021606f7ce6204dc345891a415e1a5ec3c9843c0",
                "blocknumber": "3"
            }
        ],
        "sealEngine": "NoProof",
        "_info": {
            "hash": "0x6b82c676ade88a794ba1961ab25c2f93bb3b1b10267bb431533b6d7514d60803",
            "fixture-format": "blockchain_test",
            "comment": "`execution-specs` generated test",
            "filling-transition-tool": "2.19.0",
            "description": "Test that the storage is cleared when a contract is first destructed then\nre-created using CREATE2.",
            "url": "https://github.com/ethereum/execution-specs/blob/tests-sn\u00f8bal-devnet-4@v1.0.0/tests/constantinople/eip1014_create2/test_recreate.py#L22",
            "metadata": {
                "opcode_count": {}
            },
            "reference-spec": "https://github.com/ethereum/EIPs/blob/master/EIPS/eip-1014.md",
            "reference-spec-version": "31d4d62ec1dfc9f2bb26ca648f05d4cc2f47da09"
        }
    }
}