{
    "tests/static/state_tests/stStaticFlagEnabled/DelegatecallToPrecompileFromContractInitializationFiller.yml::DelegatecallToPrecompileFromContractInitialization[fork_Cancun-blockchain_test_from_state_test-]": {
        "network": "Cancun",
        "genesisBlockHeader": {
            "parentHash": "0x0000000000000000000000000000000000000000000000000000000000000000",
            "uncleHash": "0x1dcc4de8dec75d7aab85b567b6ccd41ad312451b948a7413f0a142fd40d49347",
            "coinbase": "0x0000000000000000000000000000000000000000",
            "stateRoot": "0xadcaf001126a87eb4bb0c2ff47f6b5a5f8fa656045763c83da26cb29d0b2372c",
            "transactionsTrie": "0x56e81f171bcc55a6ff8345e692c0f86e5b48e01b996cadc001622fb5e363b421",
            "receiptTrie": "0x56e81f171bcc55a6ff8345e692c0f86e5b48e01b996cadc001622fb5e363b421",
            "bloom": "0x00000000000000000000000000000000000000000000000000000000000000000000000000000000000000000000000000000000000000000000000000000000000000000000000000000000000000000000000000000000000000000000000000000000000000000000000000000000000000000000000000000000000000000000000000000000000000000000000000000000000000000000000000000000000000000000000000000000000000000000000000000000000000000000000000000000000000000000000000000000000000000000000000000000000000000000000000000000000000000000000000000000000000000000000000000000",
            "difficulty": "0x00",
            "number": "0x00",
            "gasLimit": "0x989680",
            "gasUsed": "0x00",
            "timestamp": "0x00",
            "extraData": "0x00",
            "mixHash": "0x0000000000000000000000000000000000000000000000000000000000000000",
            "nonce": "0x0000000000000000",
            "baseFeePerGas": "0x0b",
            "withdrawalsRoot": "0x56e81f171bcc55a6ff8345e692c0f86e5b48e01b996cadc001622fb5e363b421",
            "blobGasUsed": "0x00",
            "excessBlobGas": "0x00",
            "parentBeaconBlockRoot": "0x0000000000000000000000000000000000000000000000000000000000000000",
            "hash": "0x6757af0e19abcee80a5bc8a4fc2aa534ae3179922c61d41cbb35f8a20c2c2620"
        },
        "pre": {
            "0x000f3df6d732807ef1319fb7b8bb8522d0beac02": {
                "nonce": "0x01",
                "balance": "0x00",
                "code": "0x3373fffffffffffffffffffffffffffffffffffffffe14604d57602036146024575f5ffd5b5f35801560495762001fff810690815414603c575f5ffd5b62001fff01545f5260205ff35b5f5ffd5b62001fff42064281555f359062001fff015500",
                "storage": {}
            },
            "0xb000000000000000000000000000000000000000": {
                "nonce": "0x00",
                "balance": "0x03e8",
                "code": "0x7ffeedfeedfeedfeedfeedfeedfeedfeedfeedfeedfeedfeedfeedfeedfeedfeed600055366000600037655a175a175a173660006000f56001557ffeedfeedfeedfeedfeedfeedfeedfeedfeedfeedfeedfeedfeedfeedfeedfeed60025500",
                "storage": {
                    "0x00": "0xdeadbeafdeadbeafdeadbeafdeadbeafdeadbeafdeadbeafdeadbeafdeadbeaf",
                    "0x01": "0xdeadbeafdeadbeafdeadbeafdeadbeafdeadbeafdeadbeafdeadbeafdeadbeaf"
                }
            },
            "0xa000000000000000000000000000000000000000": {
                "nonce": "0x00",
                "balance": "0x03e8",
                "code": "0x7f18c547e4f7b0f325ad1e56f57e26c745b09a3e503d86e00e5255ff7f715d3d1c600052601c6020527f73b1693892219d736caba55bdb67216e485557ea6b6af75f37096c9aa6a5a75f6040527feeb940b1d03b21e36b0e47e79769f095fe2ab855bd91e3a38756b7d75a9c454960605260206120006080600060015af4620a00005260a060020a6120005106620a010052620a0100513214620a02005260006000526000602052600060405260006060526000612000527c0ccccccccccccccccccccccccccccccccccccccccccccccccccc00000060005260206120006020600060025af4620a030052600051620a04005261200051620a05005260006000526000612000527c0ccccccccccccccccccccccccccccccccccccccccccccccccccc00000060005260206120006020600060035af4620a060052600051620a07005261200051620a08005260006000526000612000527c0ccccccccccccccccccccccccccccccccccccccccccccccccccc00000060005260206120006020600060045af4620a09005261200051620a10005260006000526000612000526001600052602060205260206040527f03fffffffffffffffffffffffffffffffffffffffffffffffffffffffefffffc6060527f2efffffffffffffffffffffffffffffffffffffffffffffffffffffffefffffc6080527f2f0000000000000000000000000000000000000000000000000000000000000060a052602061200060a1600060055af4620a11005261200051620a12005260006000526000602052600060405260006060526000608052600060a0526000612000527f0f25929bcb43d5a57391564615c9e70a992b10eafa4db109709649cf48c50dd26000527f16da2f5cb6be7a0aa72c440c53c9bbdfec6c36c7d515536431b3a865468acbba6020527f1de49a4b0233273bba8146af82042d004f2085ec982397db0d97da17204cc2866040527f0217327ffc463919bef80cc166d09c6172639d8589799928761bcd9f22c903d460605260406120006080600060065af4620a13005261200051620a14005261202051620a15005260006000526000602052600060405260006060526000612000526000612020527f0f25929bcb43d5a57391564615c9e70a992b10eafa4db109709649cf48c50dd26000527f16da2f5cb6be7a0aa72c440c53c9bbdfec6c36c7d515536431b3a865468acbba602052600360405260406120006060600060075af4620a16005261200051620a17005261202051620a1800526000600052600060205260006040526000612000526000612020527f1c76476f4def4bb94541d57ebba1193381ffa7aa76ada664dd31c16024c43f596000527f3034dd2920f673e204fee2811c678745fc819b55d3e9d294e45c9b03a76aef416020527f209dd15ebff5d46c4bd888e51a93cf99a7329636c63514396b4a452003a35bf76040527f04bf11ca01483bfa8b34b43561848d28905960114c8ac04049af4b6315a416786060527f2bb8324af6cfc93537a2ad1a445cfd0ca2a71acd7ac41fadbf933c2a51be344d6080527f120a2a4cf30c1bf9845f20c6fe39e07ea2cce61f0c9bb048165fe5e4de87755060a0527f111e129f1cf1097710d41c4ac70fcdfa5ba2023c6ff1cbeac322de49d1b6df7c60c0527f2032c61a830e3c17286de9462bf242fca2883585b93870a73853face6a6bf41160e0527f198e9393920d483a7260bfb731fb5d25f1aa493335a9e71297e485b7aef312c2610100527f1800deef121f1e76426a00665e5c4479674322d4f75edadd46debd5cd992f6ed610120527f090689d0585ff075ec9e99ad690c3395bc4b313370b38ef355acdadcd122975b610140527f12c85ea5db8c6deb4aab71808dcb408fe3d1e7690c43d37b4ce6cc0166fa7daa610160526020612000610180600060085af4620a19005261200051620a20005260006120005262012020620a0000f300",
                "storage": {}
            },
            "0xa94f5374fce5edbc8e2a8697c15331677e6ebf0b": {
                "nonce": "0x00",
                "balance": "0x0de0b6b3a7640000",
                "code": "0x",
                "storage": {}
            }
        },
        "postState": {
            "0x000f3df6d732807ef1319fb7b8bb8522d0beac02": {
                "nonce": "0x01",
                "balance": "0x00",
                "code": "0x3373fffffffffffffffffffffffffffffffffffffffe14604d57602036146024575f5ffd5b5f35801560495762001fff810690815414603c575f5ffd5b62001fff01545f5260205ff35b5f5ffd5b62001fff42064281555f359062001fff015500",
                "storage": {
                    "0x03e8": "0x03e8"
                }
            },
            "0xb000000000000000000000000000000000000000": {
                "nonce": "0x01",
                "balance": "0x044c",
                "code": "0x7ffeedfeedfeedfeedfeedfeedfeedfeedfeedfeedfeedfeedfeedfeedfeedfeed600055366000600037655a175a175a173660006000f56001557ffeedfeedfeedfeedfeedfeedfeedfeedfeedfeedfeedfeedfeedfeedfeedfeed60025500",
                "storage": {
                    "0x00": "0xfeedfeedfeedfeedfeedfeedfeedfeedfeedfeedfeedfeedfeedfeedfeedfeed",
                    "0x01": "0xfd7776b1a634b0dc19301b174ccf30d4d24070a8",
                    "0x02": "0xfeedfeedfeedfeedfeedfeedfeedfeedfeedfeedfeedfeedfeedfeedfeedfeed"
                }
            },
            "0xa000000000000000000000000000000000000000": {
                "nonce": "0x00",
                "balance": "0x03e8",
                "code": "0x7f18c547e4f7b0f325ad1e56f57e26c745b09a3e503d86e00e5255ff7f715d3d1c600052601c6020527f73b1693892219d736caba55bdb67216e485557ea6b6af75f37096c9aa6a5a75f6040527feeb940b1d03b21e36b0e47e79769f095fe2ab855bd91e3a38756b7d75a9c454960605260206120006080600060015af4620a00005260a060020a6120005106620a010052620a0100513214620a02005260006000526000602052600060405260006060526000612000527c0ccccccccccccccccccccccccccccccccccccccccccccccccccc00000060005260206120006020600060025af4620a030052600051620a04005261200051620a05005260006000526000612000527c0ccccccccccccccccccccccccccccccccccccccccccccccccccc00000060005260206120006020600060035af4620a060052600051620a07005261200051620a08005260006000526000612000527c0ccccccccccccccccccccccccccccccccccccccccccccccccccc00000060005260206120006020600060045af4620a09005261200051620a10005260006000526000612000526001600052602060205260206040527f03fffffffffffffffffffffffffffffffffffffffffffffffffffffffefffffc6060527f2efffffffffffffffffffffffffffffffffffffffffffffffffffffffefffffc6080527f2f0000000000000000000000000000000000000000000000000000000000000060a052602061200060a1600060055af4620a11005261200051620a12005260006000526000602052600060405260006060526000608052600060a0526000612000527f0f25929bcb43d5a57391564615c9e70a992b10eafa4db109709649cf48c50dd26000527f16da2f5cb6be7a0aa72c440c53c9bbdfec6c36c7d515536431b3a865468acbba6020527f1de49a4b0233273bba8146af82042d004f2085ec982397db0d97da17204cc2866040527f0217327ffc463919bef80cc166d09c6172639d8589799928761bcd9f22c903d460605260406120006080600060065af4620a13005261200051620a14005261202051620a15005260006000526000602052600060405260006060526000612000526000612020527f0f25929bcb43d5a57391564615c9e70a992b10eafa4db109709649cf48c50dd26000527f16da2f5cb6be7a0aa72c440c53c9bbdfec6c36c7d515536431b3a865468acbba602052600360405260406120006060600060075af4620a16005261200051620a17005261202051620a1800526000600052600060205260006040526000612000526000612020527f1c76476f4def4bb94541d57ebba1193381ffa7aa76ada664dd31c16024c43f596000527f3034dd2920f673e204fee2811c678745fc819b55d3e9d294e45c9b03a76aef416020527f209dd15ebff5d46c4bd888e51a93cf99a7329636c63514396b4a452003a35bf76040527f04bf11ca01483bfa8b34b43561848d28905960114c8ac04049af4b6315a416786060527f2bb8324af6cfc93537a2ad1a445cfd0ca2a71acd7ac41fadbf933c2a51be344d6080527f120a2a4cf30c1bf9845f20c6fe39e07ea2cce61f0c9bb048165fe5e4de87755060a0527f111e129f1cf1097710d41c4ac70fcdfa5ba2023c6ff1cbeac322de49d1b6df7c60c0527f2032c61a830e3c17286de9462bf242fca2883585b93870a73853face6a6bf41160e0527f198e9393920d483a7260bfb731fb5d25f1aa493335a9e71297e485b7aef312c2610100527f1800deef121f1e76426a00665e5c4479674322d4f75edadd46debd5cd992f6ed610120527f090689d0585ff075ec9e99ad690c3395bc4b313370b38ef355acdadcd122975b610140527f12c85ea5db8c6deb4aab71808dcb408fe3d1e7690c43d37b4ce6cc0166fa7daa610160526020612000610180600060085af4620a19005261200051620a20005260006120005262012020620a0000f300",
                "storage": {}
            },
            "0xa94f5374fce5edbc8e2a8697c15331677e6ebf0b": {
                "nonce": "0x01",
                "balance": "0x0de0b6b3a5aad022",
                "code": "0x",
                "storage": {}
            },
            "0xfd7776b1a634b0dc19301b174ccf30d4d24070a8": {
                "nonce": "0x01",
                "balance": "0x00",
                "code": "0x",
                "storage": {
                    "0x00": "0xfeedfeedfeedfeedfeedfeedfeedfeedfeedfeedfeedfeedfeedfeedfeedfeed",
                    "0x01": "0xfeedfeedfeedfeedfeedfeedfeedfeedfeedfeedfeedfeedfeedfeedfeedfeed",
                    "0x0a00": "0x01",
                    "0x0a11": "0x01",
                    "0x0a01": "0xa94f5374fce5edbc8e2a8697c15331677e6ebf0b",
                    "0x0a12": "0x01",
                    "0x0a02": "0x01",
                    "0x0a13": "0x01",
                    "0x0a03": "0x01",
                    "0x0a14": "0x1f4d1d80177b1377743d1901f70d7389be7f7a35a35bfd234a8aaee615b88c49",
                    "0x0a04": "0x0ccccccccccccccccccccccccccccccccccccccccccccccccccc000000",
                    "0x0a15": "0x018683193ae021a2f8920fed186cde5d9b1365116865281ccf884c1f28b1df8f",
                    "0x0a05": "0x73f5062fb68ed2a1ec82ff8c73f9251bb9cf53a623bc93527e16bc5ae29dad74",
                    "0x0a16": "0x01",
                    "0x0a06": "0x01",
                    "0x0a17": "0x1f4d1d80177b1377743d1901f70d7389be7f7a35a35bfd234a8aaee615b88c49",
                    "0x0a07": "0x0ccccccccccccccccccccccccccccccccccccccccccccccccccc000000",
                    "0x0a18": "0x018683193ae021a2f8920fed186cde5d9b1365116865281ccf884c1f28b1df8f",
                    "0x0a08": "0x14ef238cfa4075e9ede92f18b1566c1dd0b99aaa",
                    "0x0a19": "0x01",
                    "0x0a09": "0x01",
                    "0x0a20": "0x01",
                    "0x0a10": "0x0ccccccccccccccccccccccccccccccccccccccccccccccccccc000000"
                }
            }
        },
        "lastblockhash": "0x2e179dff3315ca296c213d95aafe8f52bcaccffd8ab4de4b05715bf1540029e1",
        "config": {
            "network": "Cancun",
            "chainid": "0x01",
            "blobSchedule": {
                "Cancun": {
                    "target": "0x03",
                    "max": "0x06",
                    "baseFeeUpdateFraction": "0x32f0ed"
                }
            }
        },
        "genesisRLP": "0xf9023bf90235a00000000000000000000000000000000000000000000000000000000000000000a01dcc4de8dec75d7aab85b567b6ccd41ad312451b948a7413f0a142fd40d49347940000000000000000000000000000000000000000a0adcaf001126a87eb4bb0c2ff47f6b5a5f8fa656045763c83da26cb29d0b2372ca056e81f171bcc55a6ff8345e692c0f86e5b48e01b996cadc001622fb5e363b421a056e81f171bcc55a6ff8345e692c0f86e5b48e01b996cadc001622fb5e363b421b9010000000000000000000000000000000000000000000000000000000000000000000000000000000000000000000000000000000000000000000000000000000000000000000000000000000000000000000000000000000000000000000000000000000000000000000000000000000000000000000000000000000000000000000000000000000000000000000000000000000000000000000000000000000000000000000000000000000000000000000000000000000000000000000000000000000000000000000000000000000000000000000000000000000000000000000000000000000000000000000000000000000000000000000000000000000000808083989680808000a000000000000000000000000000000000000000000000000000000000000000008800000000000000000ba056e81f171bcc55a6ff8345e692c0f86e5b48e01b996cadc001622fb5e363b4218080a00000000000000000000000000000000000000000000000000000000000000000c0c0c0",
        "blocks": [
            {
                "blockHeader": {
                    "parentHash": "0x6757af0e19abcee80a5bc8a4fc2aa534ae3179922c61d41cbb35f8a20c2c2620",
                    "uncleHash": "0x1dcc4de8dec75d7aab85b567b6ccd41ad312451b948a7413f0a142fd40d49347",
                    "coinbase": "0xcafe000000000000000000000000000000000001",
                    "stateRoot": "0xed4dd2dfddc4489ea8fee1efc9df6e81eae9c6d7959d54df43683b68f1a96d48",
                    "transactionsTrie": "0xa0eaeefcfba9965eadf6a34a81be2e34adf09bc522703f167039f8e1fdf60d74",
                    "receiptTrie": "0x273921f8d7f01b39377d5644c153e6f3cc8d72ed69821049e8ad1a51e8aebfc9",
                    "bloom": "0x00000000000000000000000000000000000000000000000000000000000000000000000000000000000000000000000000000000000000000000000000000000000000000000000000000000000000000000000000000000000000000000000000000000000000000000000000000000000000000000000000000000000000000000000000000000000000000000000000000000000000000000000000000000000000000000000000000000000000000000000000000000000000000000000000000000000000000000000000000000000000000000000000000000000000000000000000000000000000000000000000000000000000000000000000000000",
                    "difficulty": "0x00",
                    "number": "0x01",
                    "gasLimit": "0x989680",
                    "gasUsed": "0x2c1e59",
                    "timestamp": "0x03e8",
                    "extraData": "0x00",
                    "mixHash": "0x0000000000000000000000000000000000000000000000000000000000020000",
                    "nonce": "0x0000000000000000",
                    "baseFeePerGas": "0x0a",
                    "withdrawalsRoot": "0x56e81f171bcc55a6ff8345e692c0f86e5b48e01b996cadc001622fb5e363b421",
                    "blobGasUsed": "0x00",
                    "excessBlobGas": "0x00",
                    "parentBeaconBlockRoot": "0x0000000000000000000000000000000000000000000000000000000000000000",
                    "hash": "0x2e179dff3315ca296c213d95aafe8f52bcaccffd8ab4de4b05715bf1540029e1"
                },
                "transactions": [
                    {
                        "type": "0x00",
                        "chainId": "0x01",
                        "nonce": "0x00",
                        "gasPrice": "0x0a",
                        "gasLimit": "0x3d0900",
                        "to": "0xb000000000000000000000000000000000000000",
                        "value": "0x64",
                        "data": "0x7ffeedfeedfeedfeedfeedfeedfeedfeedfeedfeedfeedfeedfeedfeedfeedfeed60005562012020620a00006000600073a0000000000000000000000000000000000000005afa507ffeedfeedfeedfeedfeedfeedfeedfeedfeedfeedfeedfeedfeedfeedfeedfeed600155620a000051610a0055620a110051610a1155620a010051610a0155620a120051610a1255620a020051610a0255620a130051610a1355620a030051610a0355620a140051610a1455620a040051610a0455620a150051610a1555620a050051610a0555620a160051610a1655620a060051610a0655620a170051610a1755620a070051610a0755620a180051610a1855620a080051610a0855620a190051610a1955620a090051610a0955620a200051610a2055620a100051610a105500",
                        "v": "0x26",
                        "r": "0x5cd1dc749057341e21a2cbe577a26af53507ee49880408af04b7ef312fd395bf",
                        "s": "0x064c20f78616e0a38f436d8d4d1abdd799434aff644aceaa9a06beab4fb1b49f",
                        "sender": "0xa94f5374fce5edbc8e2a8697c15331677e6ebf0b"
                    }
                ],
                "uncleHeaders": [],
                "withdrawals": [],
                "receipts": [
                    {
                        "transactionHash": "0x62768052f5c0939e561386aa4560f5a340c625e74a69ab6e4f9d2da38ff2576f",
                        "type": "0x00",
                        "cumulativeGasUsed": "0x2c1e59",
                        "bloom": "0x00000000000000000000000000000000000000000000000000000000000000000000000000000000000000000000000000000000000000000000000000000000000000000000000000000000000000000000000000000000000000000000000000000000000000000000000000000000000000000000000000000000000000000000000000000000000000000000000000000000000000000000000000000000000000000000000000000000000000000000000000000000000000000000000000000000000000000000000000000000000000000000000000000000000000000000000000000000000000000000000000000000000000000000000000000000",
                        "logs": [],
                        "status": true,
                        "rlp": "0xf9010901832c1e59b9010000000000000000000000000000000000000000000000000000000000000000000000000000000000000000000000000000000000000000000000000000000000000000000000000000000000000000000000000000000000000000000000000000000000000000000000000000000000000000000000000000000000000000000000000000000000000000000000000000000000000000000000000000000000000000000000000000000000000000000000000000000000000000000000000000000000000000000000000000000000000000000000000000000000000000000000000000000000000000000000000000000000000000000000000000000000c0"
                    }
                ],
                "rlp": "0xf903d1f9023aa06757af0e19abcee80a5bc8a4fc2aa534ae3179922c61d41cbb35f8a20c2c2620a01dcc4de8dec75d7aab85b567b6ccd41ad312451b948a7413f0a142fd40d4934794cafe000000000000000000000000000000000001a0ed4dd2dfddc4489ea8fee1efc9df6e81eae9c6d7959d54df43683b68f1a96d48a0a0eaeefcfba9965eadf6a34a81be2e34adf09bc522703f167039f8e1fdf60d74a0273921f8d7f01b39377d5644c153e6f3cc8d72ed69821049e8ad1a51e8aebfc9b9010000000000000000000000000000000000000000000000000000000000000000000000000000000000000000000000000000000000000000000000000000000000000000000000000000000000000000000000000000000000000000000000000000000000000000000000000000000000000000000000000000000000000000000000000000000000000000000000000000000000000000000000000000000000000000000000000000000000000000000000000000000000000000000000000000000000000000000000000000000000000000000000000000000000000000000000000000000000000000000000000000000000000000000000000000000000800183989680832c1e598203e800a000000000000000000000000000000000000000000000000000000000000200008800000000000000000aa056e81f171bcc55a6ff8345e692c0f86e5b48e01b996cadc001622fb5e363b4218080a00000000000000000000000000000000000000000000000000000000000000000f9018ff9018c800a833d090094b00000000000000000000000000000000000000064b9012a7ffeedfeedfeedfeedfeedfeedfeedfeedfeedfeedfeedfeedfeedfeedfeedfeed60005562012020620a00006000600073a0000000000000000000000000000000000000005afa507ffeedfeedfeedfeedfeedfeedfeedfeedfeedfeedfeedfeedfeedfeedfeedfeed600155620a000051610a0055620a110051610a1155620a010051610a0155620a120051610a1255620a020051610a0255620a130051610a1355620a030051610a0355620a140051610a1455620a040051610a0455620a150051610a1555620a050051610a0555620a160051610a1655620a060051610a0655620a170051610a1755620a070051610a0755620a180051610a1855620a080051610a0855620a190051610a1955620a090051610a0955620a200051610a2055620a100051610a10550026a05cd1dc749057341e21a2cbe577a26af53507ee49880408af04b7ef312fd395bfa0064c20f78616e0a38f436d8d4d1abdd799434aff644aceaa9a06beab4fb1b49fc0c0",
                "blocknumber": "1"
            }
        ],
        "sealEngine": "NoProof",
        "_info": {
            "hash": "0x9f6f616b721b69d9d4cbdf3e9e11823ce7de501d9f41950c78daa0d3a66447f4",
            "fixture-format": "blockchain_test",
            "comment": "`execution-specs` generated test",
            "filling-transition-tool": "2.19.0",
            "description": "No description available - add a docstring to the python test class or function.",
            "url": "",
            "opcode_count": {}
        }
    }
}