{
    "tests/cancun/eip7516_blobgasfee/test_blobgasfee_opcode.py::test_blobbasefee_during_fork[fork_ShanghaiToCancunAtTime15k-blockchain_test-]": {
        "network": "ShanghaiToCancunAtTime15k",
        "genesisBlockHeader": {
            "parentHash": "0x0000000000000000000000000000000000000000000000000000000000000000",
            "uncleHash": "0x1dcc4de8dec75d7aab85b567b6ccd41ad312451b948a7413f0a142fd40d49347",
            "coinbase": "0x0000000000000000000000000000000000000000",
            "stateRoot": "0x1e2e309a3497b12dc1c8927e5441ad5f948dbfc27aef888e779dfb16cd5a4248",
            "transactionsTrie": "0x56e81f171bcc55a6ff8345e692c0f86e5b48e01b996cadc001622fb5e363b421",
            "receiptTrie": "0x56e81f171bcc55a6ff8345e692c0f86e5b48e01b996cadc001622fb5e363b421",
            "bloom": "0x00000000000000000000000000000000000000000000000000000000000000000000000000000000000000000000000000000000000000000000000000000000000000000000000000000000000000000000000000000000000000000000000000000000000000000000000000000000000000000000000000000000000000000000000000000000000000000000000000000000000000000000000000000000000000000000000000000000000000000000000000000000000000000000000000000000000000000000000000000000000000000000000000000000000000000000000000000000000000000000000000000000000000000000000000000000",
            "difficulty": "0x00",
            "number": "0x00",
            "gasLimit": "0x07270e00",
            "gasUsed": "0x00",
            "timestamp": "0x00",
            "extraData": "0x00",
            "mixHash": "0x0000000000000000000000000000000000000000000000000000000000000000",
            "nonce": "0x0000000000000000",
            "baseFeePerGas": "0x07",
            "withdrawalsRoot": "0x56e81f171bcc55a6ff8345e692c0f86e5b48e01b996cadc001622fb5e363b421",
            "hash": "0xf83fa35edf61a13eb811abab2b69528e4618533101a604e0ad2bf2387d0ff9c4"
        },
        "pre": {
            "0x000f3df6d732807ef1319fb7b8bb8522d0beac02": {
                "nonce": "0x01",
                "balance": "0x00",
                "code": "0x3373fffffffffffffffffffffffffffffffffffffffe14604d57602036146024575f5ffd5b5f35801560495762001fff810690815414603c575f5ffd5b62001fff01545f5260205ff35b5f5ffd5b62001fff42064281555f359062001fff015500",
                "storage": {}
            },
            "0xb4b4d7a80c7e626eecfa20d58c053914881b1447": {
                "nonce": "0x01",
                "balance": "0x00",
                "code": "0x4a00",
                "storage": {}
            },
            "0x9d1ca6907b6ff05990adb9b2582ff3387077d0b9": {
                "nonce": "0x01",
                "balance": "0x00",
                "code": "0x6000600060006000600073b4b4d7a80c7e626eecfa20d58c053914881b144761fffff14755",
                "storage": {}
            },
            "0x1ad9bc24818784172ff393bb6f89f094d4d2ca29": {
                "nonce": "0x00",
                "balance": "0x3635c9adc5dea00000",
                "code": "0x",
                "storage": {}
            }
        },
        "postState": {
            "0x000f3df6d732807ef1319fb7b8bb8522d0beac02": {
                "nonce": "0x01",
                "balance": "0x00",
                "code": "0x3373fffffffffffffffffffffffffffffffffffffffe14604d57602036146024575f5ffd5b5f35801560495762001fff810690815414603c575f5ffd5b62001fff01545f5260205ff35b5f5ffd5b62001fff42064281555f359062001fff015500",
                "storage": {
                    "0x1a99": "0x3a98"
                }
            },
            "0xb4b4d7a80c7e626eecfa20d58c053914881b1447": {
                "nonce": "0x01",
                "balance": "0x00",
                "code": "0x4a00",
                "storage": {}
            },
            "0x9d1ca6907b6ff05990adb9b2582ff3387077d0b9": {
                "nonce": "0x01",
                "balance": "0x03",
                "code": "0x6000600060006000600073b4b4d7a80c7e626eecfa20d58c053914881b144761fffff14755",
                "storage": {
                    "0x03": "0x01"
                }
            },
            "0x1ad9bc24818784172ff393bb6f89f094d4d2ca29": {
                "nonce": "0x03",
                "balance": "0x3635c9adc5de7d2429",
                "code": "0x",
                "storage": {}
            },
            "0x2adc25665018aa1fe0e6bc666dac8fc2697ff9ba": {
                "nonce": "0x00",
                "balance": "0x0a7526",
                "code": "0x",
                "storage": {}
            }
        },
        "lastblockhash": "0xd12fc69fe507b8cbfd69f5ab64e6ebd344a2c3a07e6289dd4ebb0f69dd3e7c55",
        "config": {
            "network": "ShanghaiToCancunAtTime15k",
            "chainid": "0x01",
            "blobSchedule": {
                "Cancun": {
                    "target": "0x03",
                    "max": "0x06",
                    "baseFeeUpdateFraction": "0x32f0ed"
                }
            }
        },
        "genesisRLP": "0xf90219f90213a00000000000000000000000000000000000000000000000000000000000000000a01dcc4de8dec75d7aab85b567b6ccd41ad312451b948a7413f0a142fd40d49347940000000000000000000000000000000000000000a01e2e309a3497b12dc1c8927e5441ad5f948dbfc27aef888e779dfb16cd5a4248a056e81f171bcc55a6ff8345e692c0f86e5b48e01b996cadc001622fb5e363b421a056e81f171bcc55a6ff8345e692c0f86e5b48e01b996cadc001622fb5e363b421b901000000000000000000000000000000000000000000000000000000000000000000000000000000000000000000000000000000000000000000000000000000000000000000000000000000000000000000000000000000000000000000000000000000000000000000000000000000000000000000000000000000000000000000000000000000000000000000000000000000000000000000000000000000000000000000000000000000000000000000000000000000000000000000000000000000000000000000000000000000000000000000000000000000000000000000000000000000000000000000000000000000000000000000000000000000000080808407270e00808000a0000000000000000000000000000000000000000000000000000000000000000088000000000000000007a056e81f171bcc55a6ff8345e692c0f86e5b48e01b996cadc001622fb5e363b421c0c0c0",
        "blocks": [
            {
                "blockHeader": {
                    "parentHash": "0xf83fa35edf61a13eb811abab2b69528e4618533101a604e0ad2bf2387d0ff9c4",
                    "uncleHash": "0x1dcc4de8dec75d7aab85b567b6ccd41ad312451b948a7413f0a142fd40d49347",
                    "coinbase": "0x2adc25665018aa1fe0e6bc666dac8fc2697ff9ba",
                    "stateRoot": "0x251b89e8e4fb5b75408b04faa68a0cbd0cfb23e57870b432ac772516a6cd96d6",
                    "transactionsTrie": "0x78c90234692c793675ed3bf2102fbc1833f07bccf409a5671b76980810680619",
                    "receiptTrie": "0x8b675082d025bda02a2de1e950c9c8f53cf364bca626a7504b41b7bc0ec5f194",
                    "bloom": "0x00000000000000000000000000000000000000000000000000000000000000000000000000000000000000000000000000000000000000000000000000000000000000000000000000000000000000000000000000000000000000000000000000000000000000000000000000000000000000000000000000000000000000000000000000000000000000000000000000000000000000000000000000000000000000000000000000000000000000000000000000000000000000000000000000000000000000000000000000000000000000000000000000000000000000000000000000000000000000000000000000000000000000000000000000000000",
                    "difficulty": "0x00",
                    "number": "0x01",
                    "gasLimit": "0x07270e00",
                    "gasUsed": "0x0164e1",
                    "timestamp": "0x1d4c",
                    "extraData": "0x",
                    "mixHash": "0x0000000000000000000000000000000000000000000000000000000000000000",
                    "nonce": "0x0000000000000000",
                    "baseFeePerGas": "0x07",
                    "withdrawalsRoot": "0x56e81f171bcc55a6ff8345e692c0f86e5b48e01b996cadc001622fb5e363b421",
                    "hash": "0x01a0a38332f960edb0f9879364710fded089a5c997993aa19e7be72066c47e3f"
                },
                "transactions": [
                    {
                        "type": "0x00",
                        "chainId": "0x01",
                        "nonce": "0x00",
                        "gasPrice": "0x0a",
                        "gasLimit": "0x0f4240",
                        "to": "0x9d1ca6907b6ff05990adb9b2582ff3387077d0b9",
                        "value": "0x01",
                        "data": "0x",
                        "v": "0x25",
                        "r": "0x2e7faf67a2a264aebe4a8d927fa4b15dbbdbd7f577079dd268231424b3795fd7",
                        "s": "0x5518d2408ed5d83b9b0fddec5446484bcebc7100bcdedcb495e5f0b7d7ddae9a",
                        "sender": "0x1ad9bc24818784172ff393bb6f89f094d4d2ca29"
                    }
                ],
                "uncleHeaders": [],
                "withdrawals": [],
                "receipts": [
                    {
                        "transactionHash": "0x4667864f5c5f09ed6725ad9af69e3c6685e3ffeb0579886a0bae9b3fbf7bdc84",
                        "type": "0x00",
                        "cumulativeGasUsed": "0x0164e1",
                        "bloom": "0x00000000000000000000000000000000000000000000000000000000000000000000000000000000000000000000000000000000000000000000000000000000000000000000000000000000000000000000000000000000000000000000000000000000000000000000000000000000000000000000000000000000000000000000000000000000000000000000000000000000000000000000000000000000000000000000000000000000000000000000000000000000000000000000000000000000000000000000000000000000000000000000000000000000000000000000000000000000000000000000000000000000000000000000000000000000",
                        "logs": [],
                        "status": true,
                        "rlp": "0xf9010901830164e1b9010000000000000000000000000000000000000000000000000000000000000000000000000000000000000000000000000000000000000000000000000000000000000000000000000000000000000000000000000000000000000000000000000000000000000000000000000000000000000000000000000000000000000000000000000000000000000000000000000000000000000000000000000000000000000000000000000000000000000000000000000000000000000000000000000000000000000000000000000000000000000000000000000000000000000000000000000000000000000000000000000000000000000000000000000000000000c0"
                    }
                ],
                "rlp": "0xf90281f90218a0f83fa35edf61a13eb811abab2b69528e4618533101a604e0ad2bf2387d0ff9c4a01dcc4de8dec75d7aab85b567b6ccd41ad312451b948a7413f0a142fd40d49347942adc25665018aa1fe0e6bc666dac8fc2697ff9baa0251b89e8e4fb5b75408b04faa68a0cbd0cfb23e57870b432ac772516a6cd96d6a078c90234692c793675ed3bf2102fbc1833f07bccf409a5671b76980810680619a08b675082d025bda02a2de1e950c9c8f53cf364bca626a7504b41b7bc0ec5f194b901000000000000000000000000000000000000000000000000000000000000000000000000000000000000000000000000000000000000000000000000000000000000000000000000000000000000000000000000000000000000000000000000000000000000000000000000000000000000000000000000000000000000000000000000000000000000000000000000000000000000000000000000000000000000000000000000000000000000000000000000000000000000000000000000000000000000000000000000000000000000000000000000000000000000000000000000000000000000000000000000000000000000000000000000000000000080018407270e00830164e1821d4c80a0000000000000000000000000000000000000000000000000000000000000000088000000000000000007a056e81f171bcc55a6ff8345e692c0f86e5b48e01b996cadc001622fb5e363b421f862f860800a830f4240949d1ca6907b6ff05990adb9b2582ff3387077d0b9018025a02e7faf67a2a264aebe4a8d927fa4b15dbbdbd7f577079dd268231424b3795fd7a05518d2408ed5d83b9b0fddec5446484bcebc7100bcdedcb495e5f0b7d7ddae9ac0c0",
                "blocknumber": "1"
            },
            {
                "blockHeader": {
                    "parentHash": "0x01a0a38332f960edb0f9879364710fded089a5c997993aa19e7be72066c47e3f",
                    "uncleHash": "0x1dcc4de8dec75d7aab85b567b6ccd41ad312451b948a7413f0a142fd40d49347",
                    "coinbase": "0x2adc25665018aa1fe0e6bc666dac8fc2697ff9ba",
                    "stateRoot": "0xee90b4e4fa8934d8ab334a73302aad09b1373a03b359dd810120a131f1f2869b",
                    "transactionsTrie": "0x0896de2d780ad13217266d55076aad664c498603a1a43c8db588c325bec45349",
                    "receiptTrie": "0x8b675082d025bda02a2de1e950c9c8f53cf364bca626a7504b41b7bc0ec5f194",
                    "bloom": "0x00000000000000000000000000000000000000000000000000000000000000000000000000000000000000000000000000000000000000000000000000000000000000000000000000000000000000000000000000000000000000000000000000000000000000000000000000000000000000000000000000000000000000000000000000000000000000000000000000000000000000000000000000000000000000000000000000000000000000000000000000000000000000000000000000000000000000000000000000000000000000000000000000000000000000000000000000000000000000000000000000000000000000000000000000000000",
                    "difficulty": "0x00",
                    "number": "0x02",
                    "gasLimit": "0x07270e00",
                    "gasUsed": "0x0164e1",
                    "timestamp": "0x3a97",
                    "extraData": "0x",
                    "mixHash": "0x0000000000000000000000000000000000000000000000000000000000000000",
                    "nonce": "0x0000000000000000",
                    "baseFeePerGas": "0x07",
                    "withdrawalsRoot": "0x56e81f171bcc55a6ff8345e692c0f86e5b48e01b996cadc001622fb5e363b421",
                    "hash": "0xb78c2d140c188e4a1cda50ccaf4d207cdd3048da72932895e87bf3c34b949f84"
                },
                "transactions": [
                    {
                        "type": "0x00",
                        "chainId": "0x01",
                        "nonce": "0x01",
                        "gasPrice": "0x0a",
                        "gasLimit": "0x0f4240",
                        "to": "0x9d1ca6907b6ff05990adb9b2582ff3387077d0b9",
                        "value": "0x01",
                        "data": "0x",
                        "v": "0x25",
                        "r": "0x8d2511451662f2bc0c57cc028776573e7c7d438e5fb7e7a17d7f6ace7508bf0e",
                        "s": "0x10a4d7557d945ad33cb94b3ff1541b9b875d965530aa7089f7b31d0a28a15178",
                        "sender": "0x1ad9bc24818784172ff393bb6f89f094d4d2ca29"
                    }
                ],
                "uncleHeaders": [],
                "withdrawals": [],
                "receipts": [
                    {
                        "transactionHash": "0xd3dea28281fc9266265b8e81ac18995b549c7f3feed37e69ff34025bcd210291",
                        "type": "0x00",
                        "cumulativeGasUsed": "0x0164e1",
                        "bloom": "0x00000000000000000000000000000000000000000000000000000000000000000000000000000000000000000000000000000000000000000000000000000000000000000000000000000000000000000000000000000000000000000000000000000000000000000000000000000000000000000000000000000000000000000000000000000000000000000000000000000000000000000000000000000000000000000000000000000000000000000000000000000000000000000000000000000000000000000000000000000000000000000000000000000000000000000000000000000000000000000000000000000000000000000000000000000000",
                        "logs": [],
                        "status": true,
                        "rlp": "0xf9010901830164e1b9010000000000000000000000000000000000000000000000000000000000000000000000000000000000000000000000000000000000000000000000000000000000000000000000000000000000000000000000000000000000000000000000000000000000000000000000000000000000000000000000000000000000000000000000000000000000000000000000000000000000000000000000000000000000000000000000000000000000000000000000000000000000000000000000000000000000000000000000000000000000000000000000000000000000000000000000000000000000000000000000000000000000000000000000000000000000c0"
                    }
                ],
                "rlp": "0xf90281f90218a001a0a38332f960edb0f9879364710fded089a5c997993aa19e7be72066c47e3fa01dcc4de8dec75d7aab85b567b6ccd41ad312451b948a7413f0a142fd40d49347942adc25665018aa1fe0e6bc666dac8fc2697ff9baa0ee90b4e4fa8934d8ab334a73302aad09b1373a03b359dd810120a131f1f2869ba00896de2d780ad13217266d55076aad664c498603a1a43c8db588c325bec45349a08b675082d025bda02a2de1e950c9c8f53cf364bca626a7504b41b7bc0ec5f194b901000000000000000000000000000000000000000000000000000000000000000000000000000000000000000000000000000000000000000000000000000000000000000000000000000000000000000000000000000000000000000000000000000000000000000000000000000000000000000000000000000000000000000000000000000000000000000000000000000000000000000000000000000000000000000000000000000000000000000000000000000000000000000000000000000000000000000000000000000000000000000000000000000000000000000000000000000000000000000000000000000000000000000000000000000000000080028407270e00830164e1823a9780a0000000000000000000000000000000000000000000000000000000000000000088000000000000000007a056e81f171bcc55a6ff8345e692c0f86e5b48e01b996cadc001622fb5e363b421f862f860010a830f4240949d1ca6907b6ff05990adb9b2582ff3387077d0b9018025a08d2511451662f2bc0c57cc028776573e7c7d438e5fb7e7a17d7f6ace7508bf0ea010a4d7557d945ad33cb94b3ff1541b9b875d965530aa7089f7b31d0a28a15178c0c0",
                "blocknumber": "2"
            },
            {
                "blockHeader": {
                    "parentHash": "0xb78c2d140c188e4a1cda50ccaf4d207cdd3048da72932895e87bf3c34b949f84",
                    "uncleHash": "0x1dcc4de8dec75d7aab85b567b6ccd41ad312451b948a7413f0a142fd40d49347",
                    "coinbase": "0x2adc25665018aa1fe0e6bc666dac8fc2697ff9ba",
                    "stateRoot": "0x894fbe6f89428ea5339d1148c7e488ee6766524215093f8627aa2ff740249981",
                    "transactionsTrie": "0xfd6382709941c5d8c4912b8bafe88f72df9279492ad329c73805bd80013388e7",
                    "receiptTrie": "0xa880648b64dc75bf4b5f6d7d1644e60097635749ee40deab509cd8d356dc7cde",
                    "bloom": "0x00000000000000000000000000000000000000000000000000000000000000000000000000000000000000000000000000000000000000000000000000000000000000000000000000000000000000000000000000000000000000000000000000000000000000000000000000000000000000000000000000000000000000000000000000000000000000000000000000000000000000000000000000000000000000000000000000000000000000000000000000000000000000000000000000000000000000000000000000000000000000000000000000000000000000000000000000000000000000000000000000000000000000000000000000000000",
                    "difficulty": "0x00",
                    "number": "0x03",
                    "gasLimit": "0x07270e00",
                    "gasUsed": "0xb2a0",
                    "timestamp": "0x3a98",
                    "extraData": "0x",
                    "mixHash": "0x0000000000000000000000000000000000000000000000000000000000000000",
                    "nonce": "0x0000000000000000",
                    "baseFeePerGas": "0x07",
                    "withdrawalsRoot": "0x56e81f171bcc55a6ff8345e692c0f86e5b48e01b996cadc001622fb5e363b421",
                    "blobGasUsed": "0x00",
                    "excessBlobGas": "0x00",
                    "parentBeaconBlockRoot": "0x0000000000000000000000000000000000000000000000000000000000000000",
                    "hash": "0xd12fc69fe507b8cbfd69f5ab64e6ebd344a2c3a07e6289dd4ebb0f69dd3e7c55"
                },
                "transactions": [
                    {
                        "type": "0x00",
                        "chainId": "0x01",
                        "nonce": "0x02",
                        "gasPrice": "0x0a",
                        "gasLimit": "0x0f4240",
                        "to": "0x9d1ca6907b6ff05990adb9b2582ff3387077d0b9",
                        "value": "0x01",
                        "data": "0x",
                        "v": "0x26",
                        "r": "0x6d087d3e7460ddcb0fccf92f52e36d64275e0079af9656017dc3fc6e753bd807",
                        "s": "0x6283d24fdcd8ea1e588d1e34b0ad272e42ce40cb71c9f1838e53d623b68eef6b",
                        "sender": "0x1ad9bc24818784172ff393bb6f89f094d4d2ca29"
                    }
                ],
                "uncleHeaders": [],
                "withdrawals": [],
                "receipts": [
                    {
                        "transactionHash": "0x04992161ee70edf1b44ae746a2760b8813313e7d848603e0fe231b345e913ee6",
                        "type": "0x00",
                        "cumulativeGasUsed": "0xb2a0",
                        "bloom": "0x00000000000000000000000000000000000000000000000000000000000000000000000000000000000000000000000000000000000000000000000000000000000000000000000000000000000000000000000000000000000000000000000000000000000000000000000000000000000000000000000000000000000000000000000000000000000000000000000000000000000000000000000000000000000000000000000000000000000000000000000000000000000000000000000000000000000000000000000000000000000000000000000000000000000000000000000000000000000000000000000000000000000000000000000000000000",
                        "logs": [],
                        "status": true,
                        "rlp": "0xf901080182b2a0b9010000000000000000000000000000000000000000000000000000000000000000000000000000000000000000000000000000000000000000000000000000000000000000000000000000000000000000000000000000000000000000000000000000000000000000000000000000000000000000000000000000000000000000000000000000000000000000000000000000000000000000000000000000000000000000000000000000000000000000000000000000000000000000000000000000000000000000000000000000000000000000000000000000000000000000000000000000000000000000000000000000000000000000000000000000000000c0"
                    }
                ],
                "rlp": "0xf902a3f9023aa0b78c2d140c188e4a1cda50ccaf4d207cdd3048da72932895e87bf3c34b949f84a01dcc4de8dec75d7aab85b567b6ccd41ad312451b948a7413f0a142fd40d49347942adc25665018aa1fe0e6bc666dac8fc2697ff9baa0894fbe6f89428ea5339d1148c7e488ee6766524215093f8627aa2ff740249981a0fd6382709941c5d8c4912b8bafe88f72df9279492ad329c73805bd80013388e7a0a880648b64dc75bf4b5f6d7d1644e60097635749ee40deab509cd8d356dc7cdeb901000000000000000000000000000000000000000000000000000000000000000000000000000000000000000000000000000000000000000000000000000000000000000000000000000000000000000000000000000000000000000000000000000000000000000000000000000000000000000000000000000000000000000000000000000000000000000000000000000000000000000000000000000000000000000000000000000000000000000000000000000000000000000000000000000000000000000000000000000000000000000000000000000000000000000000000000000000000000000000000000000000000000000000000000000000000080038407270e0082b2a0823a9880a0000000000000000000000000000000000000000000000000000000000000000088000000000000000007a056e81f171bcc55a6ff8345e692c0f86e5b48e01b996cadc001622fb5e363b4218080a00000000000000000000000000000000000000000000000000000000000000000f862f860020a830f4240949d1ca6907b6ff05990adb9b2582ff3387077d0b9018026a06d087d3e7460ddcb0fccf92f52e36d64275e0079af9656017dc3fc6e753bd807a06283d24fdcd8ea1e588d1e34b0ad272e42ce40cb71c9f1838e53d623b68eef6bc0c0",
                "blocknumber": "3"
            }
        ],
        "sealEngine": "NoProof",
        "_info": {
            "hash": "0xe59f2098a4f77ac90e981d0ec84f9e9ecf8aea958b6e85b360ab5a95c6533bc7",
            "fixture-format": "blockchain_test",
            "comment": "`execution-specs` generated test",
            "filling-transition-tool": "2.19.0",
            "description": "Tests that the BLOBBASEFEE opcode results on exception when called before\nthe fork and succeeds when called after the fork.",
            "url": "https://github.com/ethereum/execution-specs/blob/tests-bal@v5.7.0/tests/cancun/eip7516_blobgasfee/test_blobgasfee_opcode.py#L214",
            "metadata": {
                "opcode_count": {}
            },
            "reference-spec": "https://github.com/ethereum/EIPs/blob/master/EIPS/eip-7516.md",
            "reference-spec-version": "dcd2f4ede58a6ed908acd3cc2c198e9f605cbf3b"
        }
    }
}