{
    "tests/ported_static/stStaticCall/test_static_callcall_00_ooge.py::test_static_callcall_00_ooge[fork_Cancun-blockchain_test_from_state_test-d0]": {
        "network": "Cancun",
        "genesisBlockHeader": {
            "parentHash": "0x0000000000000000000000000000000000000000000000000000000000000000",
            "uncleHash": "0x1dcc4de8dec75d7aab85b567b6ccd41ad312451b948a7413f0a142fd40d49347",
            "coinbase": "0x0000000000000000000000000000000000000000",
            "stateRoot": "0xc5840a087927aa69119f090b42db93e26d5374394a2cb483513dc599f5131b1b",
            "transactionsTrie": "0x56e81f171bcc55a6ff8345e692c0f86e5b48e01b996cadc001622fb5e363b421",
            "receiptTrie": "0x56e81f171bcc55a6ff8345e692c0f86e5b48e01b996cadc001622fb5e363b421",
            "bloom": "0x00000000000000000000000000000000000000000000000000000000000000000000000000000000000000000000000000000000000000000000000000000000000000000000000000000000000000000000000000000000000000000000000000000000000000000000000000000000000000000000000000000000000000000000000000000000000000000000000000000000000000000000000000000000000000000000000000000000000000000000000000000000000000000000000000000000000000000000000000000000000000000000000000000000000000000000000000000000000000000000000000000000000000000000000000000000",
            "difficulty": "0x00",
            "number": "0x00",
            "gasLimit": "0x01c9c380",
            "gasUsed": "0x00",
            "timestamp": "0x00",
            "extraData": "0x00",
            "mixHash": "0x0000000000000000000000000000000000000000000000000000000000000000",
            "nonce": "0x0000000000000000",
            "baseFeePerGas": "0x0b",
            "withdrawalsRoot": "0x56e81f171bcc55a6ff8345e692c0f86e5b48e01b996cadc001622fb5e363b421",
            "blobGasUsed": "0x00",
            "excessBlobGas": "0x00",
            "parentBeaconBlockRoot": "0x0000000000000000000000000000000000000000000000000000000000000000",
            "hash": "0xeefb3d2219bd39da584fadbdf5ac595acf0d93eec9c1ce7e3d6b94c824bc6fd7"
        },
        "pre": {
            "0x000f3df6d732807ef1319fb7b8bb8522d0beac02": {
                "nonce": "0x01",
                "balance": "0x00",
                "code": "0x3373fffffffffffffffffffffffffffffffffffffffe14604d57602036146024575f5ffd5b5f35801560495762001fff810690815414603c575f5ffd5b62001fff01545f5260205ff35b5f5ffd5b62001fff42064281555f359062001fff015500",
                "storage": {}
            },
            "0xd66f224cbd2fabb21b17bb53c56118f32f62ebd6": {
                "nonce": "0x00",
                "balance": "0x0de0b6b3a7640000",
                "code": "0x",
                "storage": {}
            },
            "0xc0e4183389eb57f779a986d8c878f89b9401dc8e": {
                "nonce": "0x00",
                "balance": "0x00",
                "code": "0x6000600060006000346000355af1600055600160015500",
                "storage": {}
            },
            "0xce21f15217a7b94db9c505a66c9549e803bf141c": {
                "nonce": "0x00",
                "balance": "0x00",
                "code": "0x6001600255600160025200",
                "storage": {}
            },
            "0xe574f7ec5305be91332b5b8b12deb8966e05f42d": {
                "nonce": "0x00",
                "balance": "0x00",
                "code": "0x5b61c3506080511015601c5760013b506001608051016080526000565b00",
                "storage": {}
            },
            "0x2814f1be80fce656766c827bc6e55bfb7a3bc4b9": {
                "nonce": "0x00",
                "balance": "0x00",
                "code": "0x6001600252604060006040600073ce21f15217a7b94db9c505a66c9549e803bf141c6201d4d4fa50600160205200",
                "storage": {}
            },
            "0xa18394a87a4c414718bbbee0f695d74cd7a4f9de": {
                "nonce": "0x00",
                "balance": "0x00",
                "code": "0x6001600252604060006040600073e574f7ec5305be91332b5b8b12deb8966e05f42d614e34fa50600160205200",
                "storage": {}
            },
            "0x2f9ec0afcb4edcd7d38c6a48f5e36038263ca3cd": {
                "nonce": "0x00",
                "balance": "0x0de0b6b3a7640000",
                "code": "0x6040600060406000732814f1be80fce656766c827bc6e55bfb7a3bc4b962055730fa60005500",
                "storage": {}
            },
            "0x998a75f1a4457fb7b5872c51f34aa7256f732b1e": {
                "nonce": "0x00",
                "balance": "0x0de0b6b3a7640000",
                "code": "0x604060006040600073a18394a87a4c414718bbbee0f695d74cd7a4f9de620249f0fa60005500",
                "storage": {}
            }
        },
        "postState": {
            "0x000f3df6d732807ef1319fb7b8bb8522d0beac02": {
                "nonce": "0x01",
                "balance": "0x00",
                "code": "0x3373fffffffffffffffffffffffffffffffffffffffe14604d57602036146024575f5ffd5b5f35801560495762001fff810690815414603c575f5ffd5b62001fff01545f5260205ff35b5f5ffd5b62001fff42064281555f359062001fff015500",
                "storage": {
                    "0x03e8": "0x03e8"
                }
            },
            "0xd66f224cbd2fabb21b17bb53c56118f32f62ebd6": {
                "nonce": "0x01",
                "balance": "0x0de0b6b3a7431a84",
                "code": "0x",
                "storage": {}
            },
            "0xc0e4183389eb57f779a986d8c878f89b9401dc8e": {
                "nonce": "0x00",
                "balance": "0x00",
                "code": "0x6000600060006000346000355af1600055600160015500",
                "storage": {
                    "0x00": "0x01",
                    "0x01": "0x01"
                }
            },
            "0xce21f15217a7b94db9c505a66c9549e803bf141c": {
                "nonce": "0x00",
                "balance": "0x00",
                "code": "0x6001600255600160025200",
                "storage": {}
            },
            "0xe574f7ec5305be91332b5b8b12deb8966e05f42d": {
                "nonce": "0x00",
                "balance": "0x00",
                "code": "0x5b61c3506080511015601c5760013b506001608051016080526000565b00",
                "storage": {}
            },
            "0x2814f1be80fce656766c827bc6e55bfb7a3bc4b9": {
                "nonce": "0x00",
                "balance": "0x00",
                "code": "0x6001600252604060006040600073ce21f15217a7b94db9c505a66c9549e803bf141c6201d4d4fa50600160205200",
                "storage": {}
            },
            "0xa18394a87a4c414718bbbee0f695d74cd7a4f9de": {
                "nonce": "0x00",
                "balance": "0x00",
                "code": "0x6001600252604060006040600073e574f7ec5305be91332b5b8b12deb8966e05f42d614e34fa50600160205200",
                "storage": {}
            },
            "0x2f9ec0afcb4edcd7d38c6a48f5e36038263ca3cd": {
                "nonce": "0x00",
                "balance": "0x0de0b6b3a7640000",
                "code": "0x6040600060406000732814f1be80fce656766c827bc6e55bfb7a3bc4b962055730fa60005500",
                "storage": {
                    "0x00": "0x01"
                }
            },
            "0x998a75f1a4457fb7b5872c51f34aa7256f732b1e": {
                "nonce": "0x00",
                "balance": "0x0de0b6b3a7640000",
                "code": "0x604060006040600073a18394a87a4c414718bbbee0f695d74cd7a4f9de620249f0fa60005500",
                "storage": {}
            }
        },
        "lastblockhash": "0x9102e64019da8b4f32dccdb7b30003f453927e7ea3fa0b9e8f8d33abe3d34e2e",
        "config": {
            "network": "Cancun",
            "chainid": "0x01",
            "blobSchedule": {
                "Cancun": {
                    "target": "0x03",
                    "max": "0x06",
                    "baseFeeUpdateFraction": "0x32f0ed"
                }
            }
        },
        "genesisRLP": "0xf9023cf90236a00000000000000000000000000000000000000000000000000000000000000000a01dcc4de8dec75d7aab85b567b6ccd41ad312451b948a7413f0a142fd40d49347940000000000000000000000000000000000000000a0c5840a087927aa69119f090b42db93e26d5374394a2cb483513dc599f5131b1ba056e81f171bcc55a6ff8345e692c0f86e5b48e01b996cadc001622fb5e363b421a056e81f171bcc55a6ff8345e692c0f86e5b48e01b996cadc001622fb5e363b421b901000000000000000000000000000000000000000000000000000000000000000000000000000000000000000000000000000000000000000000000000000000000000000000000000000000000000000000000000000000000000000000000000000000000000000000000000000000000000000000000000000000000000000000000000000000000000000000000000000000000000000000000000000000000000000000000000000000000000000000000000000000000000000000000000000000000000000000000000000000000000000000000000000000000000000000000000000000000000000000000000000000000000000000000000000000000080808401c9c380808000a000000000000000000000000000000000000000000000000000000000000000008800000000000000000ba056e81f171bcc55a6ff8345e692c0f86e5b48e01b996cadc001622fb5e363b4218080a00000000000000000000000000000000000000000000000000000000000000000c0c0c0",
        "blocks": [
            {
                "blockHeader": {
                    "parentHash": "0xeefb3d2219bd39da584fadbdf5ac595acf0d93eec9c1ce7e3d6b94c824bc6fd7",
                    "uncleHash": "0x1dcc4de8dec75d7aab85b567b6ccd41ad312451b948a7413f0a142fd40d49347",
                    "coinbase": "0x2adc25665018aa1fe0e6bc666dac8fc2697ff9ba",
                    "stateRoot": "0x5da52c8318a6eef482a7c254ab757e581844e075a4cb27007eb0a98b530f0eb9",
                    "transactionsTrie": "0x779bdb0ac8426826101b9e6806e4bac7e02decb499535689eb9379a830f1c7db",
                    "receiptTrie": "0x9db417c0c8adb64483c25185f32f8dd4bf91e2e22eb29915bd102f718dad2b96",
                    "bloom": "0x00000000000000000000000000000000000000000000000000000000000000000000000000000000000000000000000000000000000000000000000000000000000000000000000000000000000000000000000000000000000000000000000000000000000000000000000000000000000000000000000000000000000000000000000000000000000000000000000000000000000000000000000000000000000000000000000000000000000000000000000000000000000000000000000000000000000000000000000000000000000000000000000000000000000000000000000000000000000000000000000000000000000000000000000000000000",
                    "difficulty": "0x00",
                    "number": "0x01",
                    "gasLimit": "0x01c9c380",
                    "gasUsed": "0x034a26",
                    "timestamp": "0x03e8",
                    "extraData": "0x00",
                    "mixHash": "0x0000000000000000000000000000000000000000000000000000000000020000",
                    "nonce": "0x0000000000000000",
                    "baseFeePerGas": "0x0a",
                    "withdrawalsRoot": "0x56e81f171bcc55a6ff8345e692c0f86e5b48e01b996cadc001622fb5e363b421",
                    "blobGasUsed": "0x00",
                    "excessBlobGas": "0x00",
                    "parentBeaconBlockRoot": "0x0000000000000000000000000000000000000000000000000000000000000000",
                    "hash": "0x9102e64019da8b4f32dccdb7b30003f453927e7ea3fa0b9e8f8d33abe3d34e2e"
                },
                "transactions": [
                    {
                        "type": "0x00",
                        "chainId": "0x01",
                        "nonce": "0x00",
                        "gasPrice": "0x0a",
                        "gasLimit": "0x1a3ec0",
                        "to": "0xc0e4183389eb57f779a986d8c878f89b9401dc8e",
                        "value": "0x00",
                        "data": "0x0000000000000000000000002f9ec0afcb4edcd7d38c6a48f5e36038263ca3cd",
                        "v": "0x26",
                        "r": "0x264181870d974f67083660e1573374701c0686b3ce81f2fce96270635cd01ff0",
                        "s": "0x43daaa3f01292d6227bcfb2d8e618dad5bb117d3d64c3f9e39a715a3106e3445",
                        "sender": "0xd66f224cbd2fabb21b17bb53c56118f32f62ebd6"
                    }
                ],
                "uncleHeaders": [],
                "withdrawals": [],
                "receipts": [
                    {
                        "transactionHash": "0x8577694fdf14070e7ccb4327b03f87983a141ff40c43fbcf5de23f45d47ba93f",
                        "type": "0x00",
                        "cumulativeGasUsed": "0x034a26",
                        "bloom": "0x00000000000000000000000000000000000000000000000000000000000000000000000000000000000000000000000000000000000000000000000000000000000000000000000000000000000000000000000000000000000000000000000000000000000000000000000000000000000000000000000000000000000000000000000000000000000000000000000000000000000000000000000000000000000000000000000000000000000000000000000000000000000000000000000000000000000000000000000000000000000000000000000000000000000000000000000000000000000000000000000000000000000000000000000000000000",
                        "logs": [],
                        "status": true,
                        "rlp": "0xf901090183034a26b9010000000000000000000000000000000000000000000000000000000000000000000000000000000000000000000000000000000000000000000000000000000000000000000000000000000000000000000000000000000000000000000000000000000000000000000000000000000000000000000000000000000000000000000000000000000000000000000000000000000000000000000000000000000000000000000000000000000000000000000000000000000000000000000000000000000000000000000000000000000000000000000000000000000000000000000000000000000000000000000000000000000000000000000000000000000000c0"
                    }
                ],
                "rlp": "0xf902c4f9023ba0eefb3d2219bd39da584fadbdf5ac595acf0d93eec9c1ce7e3d6b94c824bc6fd7a01dcc4de8dec75d7aab85b567b6ccd41ad312451b948a7413f0a142fd40d49347942adc25665018aa1fe0e6bc666dac8fc2697ff9baa05da52c8318a6eef482a7c254ab757e581844e075a4cb27007eb0a98b530f0eb9a0779bdb0ac8426826101b9e6806e4bac7e02decb499535689eb9379a830f1c7dba09db417c0c8adb64483c25185f32f8dd4bf91e2e22eb29915bd102f718dad2b96b901000000000000000000000000000000000000000000000000000000000000000000000000000000000000000000000000000000000000000000000000000000000000000000000000000000000000000000000000000000000000000000000000000000000000000000000000000000000000000000000000000000000000000000000000000000000000000000000000000000000000000000000000000000000000000000000000000000000000000000000000000000000000000000000000000000000000000000000000000000000000000000000000000000000000000000000000000000000000000000000000000000000000000000000000000000000080018401c9c38083034a268203e800a000000000000000000000000000000000000000000000000000000000000200008800000000000000000aa056e81f171bcc55a6ff8345e692c0f86e5b48e01b996cadc001622fb5e363b4218080a00000000000000000000000000000000000000000000000000000000000000000f882f880800a831a3ec094c0e4183389eb57f779a986d8c878f89b9401dc8e80a00000000000000000000000002f9ec0afcb4edcd7d38c6a48f5e36038263ca3cd26a0264181870d974f67083660e1573374701c0686b3ce81f2fce96270635cd01ff0a043daaa3f01292d6227bcfb2d8e618dad5bb117d3d64c3f9e39a715a3106e3445c0c0",
                "blocknumber": "1"
            }
        ],
        "sealEngine": "NoProof",
        "_info": {
            "hash": "0xa997d78845bafb82da5525b3ef8f64fee47ee73c925a67c0e4bcf5d4450a8571",
            "fixture-format": "blockchain_test",
            "comment": "`execution-specs` generated test",
            "filling-transition-tool": "2.19.0",
            "description": "Test_static_callcall_00_ooge.",
            "url": "https://github.com/ethereum/execution-specs/blob/tests-snobal-devnet-5@v8037.0.0/tests/ported_static/stStaticCall/test_static_callcall_00_ooge.py#L28",
            "metadata": {
                "opcode_count": {}
            }
        }
    },
    "tests/ported_static/stStaticCall/test_static_callcall_00_ooge.py::test_static_callcall_00_ooge[fork_Cancun-blockchain_test_from_state_test-d1]": {
        "network": "Cancun",
        "genesisBlockHeader": {
            "parentHash": "0x0000000000000000000000000000000000000000000000000000000000000000",
            "uncleHash": "0x1dcc4de8dec75d7aab85b567b6ccd41ad312451b948a7413f0a142fd40d49347",
            "coinbase": "0x0000000000000000000000000000000000000000",
            "stateRoot": "0xc5840a087927aa69119f090b42db93e26d5374394a2cb483513dc599f5131b1b",
            "transactionsTrie": "0x56e81f171bcc55a6ff8345e692c0f86e5b48e01b996cadc001622fb5e363b421",
            "receiptTrie": "0x56e81f171bcc55a6ff8345e692c0f86e5b48e01b996cadc001622fb5e363b421",
            "bloom": "0x00000000000000000000000000000000000000000000000000000000000000000000000000000000000000000000000000000000000000000000000000000000000000000000000000000000000000000000000000000000000000000000000000000000000000000000000000000000000000000000000000000000000000000000000000000000000000000000000000000000000000000000000000000000000000000000000000000000000000000000000000000000000000000000000000000000000000000000000000000000000000000000000000000000000000000000000000000000000000000000000000000000000000000000000000000000",
            "difficulty": "0x00",
            "number": "0x00",
            "gasLimit": "0x01c9c380",
            "gasUsed": "0x00",
            "timestamp": "0x00",
            "extraData": "0x00",
            "mixHash": "0x0000000000000000000000000000000000000000000000000000000000000000",
            "nonce": "0x0000000000000000",
            "baseFeePerGas": "0x0b",
            "withdrawalsRoot": "0x56e81f171bcc55a6ff8345e692c0f86e5b48e01b996cadc001622fb5e363b421",
            "blobGasUsed": "0x00",
            "excessBlobGas": "0x00",
            "parentBeaconBlockRoot": "0x0000000000000000000000000000000000000000000000000000000000000000",
            "hash": "0xeefb3d2219bd39da584fadbdf5ac595acf0d93eec9c1ce7e3d6b94c824bc6fd7"
        },
        "pre": {
            "0x000f3df6d732807ef1319fb7b8bb8522d0beac02": {
                "nonce": "0x01",
                "balance": "0x00",
                "code": "0x3373fffffffffffffffffffffffffffffffffffffffe14604d57602036146024575f5ffd5b5f35801560495762001fff810690815414603c575f5ffd5b62001fff01545f5260205ff35b5f5ffd5b62001fff42064281555f359062001fff015500",
                "storage": {}
            },
            "0xd66f224cbd2fabb21b17bb53c56118f32f62ebd6": {
                "nonce": "0x00",
                "balance": "0x0de0b6b3a7640000",
                "code": "0x",
                "storage": {}
            },
            "0xc0e4183389eb57f779a986d8c878f89b9401dc8e": {
                "nonce": "0x00",
                "balance": "0x00",
                "code": "0x6000600060006000346000355af1600055600160015500",
                "storage": {}
            },
            "0xce21f15217a7b94db9c505a66c9549e803bf141c": {
                "nonce": "0x00",
                "balance": "0x00",
                "code": "0x6001600255600160025200",
                "storage": {}
            },
            "0xe574f7ec5305be91332b5b8b12deb8966e05f42d": {
                "nonce": "0x00",
                "balance": "0x00",
                "code": "0x5b61c3506080511015601c5760013b506001608051016080526000565b00",
                "storage": {}
            },
            "0x2814f1be80fce656766c827bc6e55bfb7a3bc4b9": {
                "nonce": "0x00",
                "balance": "0x00",
                "code": "0x6001600252604060006040600073ce21f15217a7b94db9c505a66c9549e803bf141c6201d4d4fa50600160205200",
                "storage": {}
            },
            "0xa18394a87a4c414718bbbee0f695d74cd7a4f9de": {
                "nonce": "0x00",
                "balance": "0x00",
                "code": "0x6001600252604060006040600073e574f7ec5305be91332b5b8b12deb8966e05f42d614e34fa50600160205200",
                "storage": {}
            },
            "0x2f9ec0afcb4edcd7d38c6a48f5e36038263ca3cd": {
                "nonce": "0x00",
                "balance": "0x0de0b6b3a7640000",
                "code": "0x6040600060406000732814f1be80fce656766c827bc6e55bfb7a3bc4b962055730fa60005500",
                "storage": {}
            },
            "0x998a75f1a4457fb7b5872c51f34aa7256f732b1e": {
                "nonce": "0x00",
                "balance": "0x0de0b6b3a7640000",
                "code": "0x604060006040600073a18394a87a4c414718bbbee0f695d74cd7a4f9de620249f0fa60005500",
                "storage": {}
            }
        },
        "postState": {
            "0x000f3df6d732807ef1319fb7b8bb8522d0beac02": {
                "nonce": "0x01",
                "balance": "0x00",
                "code": "0x3373fffffffffffffffffffffffffffffffffffffffe14604d57602036146024575f5ffd5b5f35801560495762001fff810690815414603c575f5ffd5b62001fff01545f5260205ff35b5f5ffd5b62001fff42064281555f359062001fff015500",
                "storage": {
                    "0x03e8": "0x03e8"
                }
            },
            "0xd66f224cbd2fabb21b17bb53c56118f32f62ebd6": {
                "nonce": "0x01",
                "balance": "0x0de0b6b3a7525cc4",
                "code": "0x",
                "storage": {}
            },
            "0xc0e4183389eb57f779a986d8c878f89b9401dc8e": {
                "nonce": "0x00",
                "balance": "0x00",
                "code": "0x6000600060006000346000355af1600055600160015500",
                "storage": {
                    "0x00": "0x01",
                    "0x01": "0x01"
                }
            },
            "0xce21f15217a7b94db9c505a66c9549e803bf141c": {
                "nonce": "0x00",
                "balance": "0x00",
                "code": "0x6001600255600160025200",
                "storage": {}
            },
            "0xe574f7ec5305be91332b5b8b12deb8966e05f42d": {
                "nonce": "0x00",
                "balance": "0x00",
                "code": "0x5b61c3506080511015601c5760013b506001608051016080526000565b00",
                "storage": {}
            },
            "0x2814f1be80fce656766c827bc6e55bfb7a3bc4b9": {
                "nonce": "0x00",
                "balance": "0x00",
                "code": "0x6001600252604060006040600073ce21f15217a7b94db9c505a66c9549e803bf141c6201d4d4fa50600160205200",
                "storage": {}
            },
            "0xa18394a87a4c414718bbbee0f695d74cd7a4f9de": {
                "nonce": "0x00",
                "balance": "0x00",
                "code": "0x6001600252604060006040600073e574f7ec5305be91332b5b8b12deb8966e05f42d614e34fa50600160205200",
                "storage": {}
            },
            "0x2f9ec0afcb4edcd7d38c6a48f5e36038263ca3cd": {
                "nonce": "0x00",
                "balance": "0x0de0b6b3a7640000",
                "code": "0x6040600060406000732814f1be80fce656766c827bc6e55bfb7a3bc4b962055730fa60005500",
                "storage": {}
            },
            "0x998a75f1a4457fb7b5872c51f34aa7256f732b1e": {
                "nonce": "0x00",
                "balance": "0x0de0b6b3a7640000",
                "code": "0x604060006040600073a18394a87a4c414718bbbee0f695d74cd7a4f9de620249f0fa60005500",
                "storage": {
                    "0x00": "0x01"
                }
            }
        },
        "lastblockhash": "0x3b147abd4aa601156391c858643cc9dec816847f600365374e2acd0e38ee7e3e",
        "config": {
            "network": "Cancun",
            "chainid": "0x01",
            "blobSchedule": {
                "Cancun": {
                    "target": "0x03",
                    "max": "0x06",
                    "baseFeeUpdateFraction": "0x32f0ed"
                }
            }
        },
        "genesisRLP": "0xf9023cf90236a00000000000000000000000000000000000000000000000000000000000000000a01dcc4de8dec75d7aab85b567b6ccd41ad312451b948a7413f0a142fd40d49347940000000000000000000000000000000000000000a0c5840a087927aa69119f090b42db93e26d5374394a2cb483513dc599f5131b1ba056e81f171bcc55a6ff8345e692c0f86e5b48e01b996cadc001622fb5e363b421a056e81f171bcc55a6ff8345e692c0f86e5b48e01b996cadc001622fb5e363b421b901000000000000000000000000000000000000000000000000000000000000000000000000000000000000000000000000000000000000000000000000000000000000000000000000000000000000000000000000000000000000000000000000000000000000000000000000000000000000000000000000000000000000000000000000000000000000000000000000000000000000000000000000000000000000000000000000000000000000000000000000000000000000000000000000000000000000000000000000000000000000000000000000000000000000000000000000000000000000000000000000000000000000000000000000000000000080808401c9c380808000a000000000000000000000000000000000000000000000000000000000000000008800000000000000000ba056e81f171bcc55a6ff8345e692c0f86e5b48e01b996cadc001622fb5e363b4218080a00000000000000000000000000000000000000000000000000000000000000000c0c0c0",
        "blocks": [
            {
                "blockHeader": {
                    "parentHash": "0xeefb3d2219bd39da584fadbdf5ac595acf0d93eec9c1ce7e3d6b94c824bc6fd7",
                    "uncleHash": "0x1dcc4de8dec75d7aab85b567b6ccd41ad312451b948a7413f0a142fd40d49347",
                    "coinbase": "0x2adc25665018aa1fe0e6bc666dac8fc2697ff9ba",
                    "stateRoot": "0xdb3aa0a57253963474214bc8cea463751fb10e81c088e050b73349acf54f3b59",
                    "transactionsTrie": "0xa0079fded64d5e0d0e84795db72ca3bdae1d8ef8ca53d3e3996b0afa45d0b6dd",
                    "receiptTrie": "0x95a809929c3b00c76bbff293088d6742d426425a4327d2534fb1e6d5a3cc6d14",
                    "bloom": "0x00000000000000000000000000000000000000000000000000000000000000000000000000000000000000000000000000000000000000000000000000000000000000000000000000000000000000000000000000000000000000000000000000000000000000000000000000000000000000000000000000000000000000000000000000000000000000000000000000000000000000000000000000000000000000000000000000000000000000000000000000000000000000000000000000000000000000000000000000000000000000000000000000000000000000000000000000000000000000000000000000000000000000000000000000000000",
                    "difficulty": "0x00",
                    "number": "0x01",
                    "gasLimit": "0x01c9c380",
                    "gasUsed": "0x01c386",
                    "timestamp": "0x03e8",
                    "extraData": "0x00",
                    "mixHash": "0x0000000000000000000000000000000000000000000000000000000000020000",
                    "nonce": "0x0000000000000000",
                    "baseFeePerGas": "0x0a",
                    "withdrawalsRoot": "0x56e81f171bcc55a6ff8345e692c0f86e5b48e01b996cadc001622fb5e363b421",
                    "blobGasUsed": "0x00",
                    "excessBlobGas": "0x00",
                    "parentBeaconBlockRoot": "0x0000000000000000000000000000000000000000000000000000000000000000",
                    "hash": "0x3b147abd4aa601156391c858643cc9dec816847f600365374e2acd0e38ee7e3e"
                },
                "transactions": [
                    {
                        "type": "0x00",
                        "chainId": "0x01",
                        "nonce": "0x00",
                        "gasPrice": "0x0a",
                        "gasLimit": "0x1a3ec0",
                        "to": "0xc0e4183389eb57f779a986d8c878f89b9401dc8e",
                        "value": "0x00",
                        "data": "0x000000000000000000000000998a75f1a4457fb7b5872c51f34aa7256f732b1e",
                        "v": "0x25",
                        "r": "0x90582eabd0310d4c20fde234f7485e1b460c0ee3a042fe207031d22b99e602c3",
                        "s": "0x4daf5e03dcf8fbaf1d290703337b0cb253ee43e4e4b6b4d8d4952e15a80a5dce",
                        "sender": "0xd66f224cbd2fabb21b17bb53c56118f32f62ebd6"
                    }
                ],
                "uncleHeaders": [],
                "withdrawals": [],
                "receipts": [
                    {
                        "transactionHash": "0xcb8c7f90066c0fb17c2d914c986b741a776f65cdce3c6a245b4bddb0f03cac79",
                        "type": "0x00",
                        "cumulativeGasUsed": "0x01c386",
                        "bloom": "0x00000000000000000000000000000000000000000000000000000000000000000000000000000000000000000000000000000000000000000000000000000000000000000000000000000000000000000000000000000000000000000000000000000000000000000000000000000000000000000000000000000000000000000000000000000000000000000000000000000000000000000000000000000000000000000000000000000000000000000000000000000000000000000000000000000000000000000000000000000000000000000000000000000000000000000000000000000000000000000000000000000000000000000000000000000000",
                        "logs": [],
                        "status": true,
                        "rlp": "0xf90109018301c386b9010000000000000000000000000000000000000000000000000000000000000000000000000000000000000000000000000000000000000000000000000000000000000000000000000000000000000000000000000000000000000000000000000000000000000000000000000000000000000000000000000000000000000000000000000000000000000000000000000000000000000000000000000000000000000000000000000000000000000000000000000000000000000000000000000000000000000000000000000000000000000000000000000000000000000000000000000000000000000000000000000000000000000000000000000000000000c0"
                    }
                ],
                "rlp": "0xf902c4f9023ba0eefb3d2219bd39da584fadbdf5ac595acf0d93eec9c1ce7e3d6b94c824bc6fd7a01dcc4de8dec75d7aab85b567b6ccd41ad312451b948a7413f0a142fd40d49347942adc25665018aa1fe0e6bc666dac8fc2697ff9baa0db3aa0a57253963474214bc8cea463751fb10e81c088e050b73349acf54f3b59a0a0079fded64d5e0d0e84795db72ca3bdae1d8ef8ca53d3e3996b0afa45d0b6dda095a809929c3b00c76bbff293088d6742d426425a4327d2534fb1e6d5a3cc6d14b901000000000000000000000000000000000000000000000000000000000000000000000000000000000000000000000000000000000000000000000000000000000000000000000000000000000000000000000000000000000000000000000000000000000000000000000000000000000000000000000000000000000000000000000000000000000000000000000000000000000000000000000000000000000000000000000000000000000000000000000000000000000000000000000000000000000000000000000000000000000000000000000000000000000000000000000000000000000000000000000000000000000000000000000000000000000080018401c9c3808301c3868203e800a000000000000000000000000000000000000000000000000000000000000200008800000000000000000aa056e81f171bcc55a6ff8345e692c0f86e5b48e01b996cadc001622fb5e363b4218080a00000000000000000000000000000000000000000000000000000000000000000f882f880800a831a3ec094c0e4183389eb57f779a986d8c878f89b9401dc8e80a0000000000000000000000000998a75f1a4457fb7b5872c51f34aa7256f732b1e25a090582eabd0310d4c20fde234f7485e1b460c0ee3a042fe207031d22b99e602c3a04daf5e03dcf8fbaf1d290703337b0cb253ee43e4e4b6b4d8d4952e15a80a5dcec0c0",
                "blocknumber": "1"
            }
        ],
        "sealEngine": "NoProof",
        "_info": {
            "hash": "0x4c5a5e9defa04b86cfa1fe0f1790f0ed37464672d69a0facb22671413fe30fdd",
            "fixture-format": "blockchain_test",
            "comment": "`execution-specs` generated test",
            "filling-transition-tool": "2.19.0",
            "description": "Test_static_callcall_00_ooge.",
            "url": "https://github.com/ethereum/execution-specs/blob/tests-snobal-devnet-5@v8037.0.0/tests/ported_static/stStaticCall/test_static_callcall_00_ooge.py#L28",
            "metadata": {
                "opcode_count": {}
            }
        }
    }
}