{
    "tests/ported_static/stCreateTest/test_code_in_constructor.py::test_code_in_constructor[fork_Cancun-blockchain_test_from_state_test-d0]": {
        "network": "Cancun",
        "genesisBlockHeader": {
            "parentHash": "0x0000000000000000000000000000000000000000000000000000000000000000",
            "uncleHash": "0x1dcc4de8dec75d7aab85b567b6ccd41ad312451b948a7413f0a142fd40d49347",
            "coinbase": "0x0000000000000000000000000000000000000000",
            "stateRoot": "0x6972f37b0dacffb822ada4487641c61216d568a24de4a06e0922a4ccc56902eb",
            "transactionsTrie": "0x56e81f171bcc55a6ff8345e692c0f86e5b48e01b996cadc001622fb5e363b421",
            "receiptTrie": "0x56e81f171bcc55a6ff8345e692c0f86e5b48e01b996cadc001622fb5e363b421",
            "bloom": "0x00000000000000000000000000000000000000000000000000000000000000000000000000000000000000000000000000000000000000000000000000000000000000000000000000000000000000000000000000000000000000000000000000000000000000000000000000000000000000000000000000000000000000000000000000000000000000000000000000000000000000000000000000000000000000000000000000000000000000000000000000000000000000000000000000000000000000000000000000000000000000000000000000000000000000000000000000000000000000000000000000000000000000000000000000000000",
            "difficulty": "0x00",
            "number": "0x00",
            "gasLimit": "0x07270e00",
            "gasUsed": "0x00",
            "timestamp": "0x00",
            "extraData": "0x00",
            "mixHash": "0x0000000000000000000000000000000000000000000000000000000000000000",
            "nonce": "0x0000000000000000",
            "baseFeePerGas": "0x0b",
            "withdrawalsRoot": "0x56e81f171bcc55a6ff8345e692c0f86e5b48e01b996cadc001622fb5e363b421",
            "blobGasUsed": "0x00",
            "excessBlobGas": "0x00",
            "parentBeaconBlockRoot": "0x0000000000000000000000000000000000000000000000000000000000000000",
            "hash": "0xf5e6f540d29a2582406201c348a724b23a7ec5db5dc9bfdc1812fa676c818ed1"
        },
        "pre": {
            "0x000f3df6d732807ef1319fb7b8bb8522d0beac02": {
                "nonce": "0x01",
                "balance": "0x00",
                "code": "0x3373fffffffffffffffffffffffffffffffffffffffe14604d57602036146024575f5ffd5b5f35801560495762001fff810690815414603c575f5ffd5b62001fff01545f5260205ff35b5f5ffd5b62001fff42064281555f359062001fff015500",
                "storage": {}
            },
            "0x000000000000000000000000000000000000da7a": {
                "nonce": "0x00",
                "balance": "0x0ba1a9ce0ba1a9ce",
                "code": "0x6000356000545560016000540160005500",
                "storage": {
                    "0x00": "0x01"
                }
            },
            "0xcccccccccccccccccccccccccccccccccccccccc": {
                "nonce": "0x00",
                "balance": "0x0ba1a9ce0ba1a9ce",
                "code": "0x60068061004c610100396102005260db8061005260003961022052600160043514603757615a17610200516101000160006000f56045565b610200516101000160006000f05b6102405200fe60ff60005500610100610100610100395861026052600060006020610260600061da7a62fffffff1503061026052600060006020610260600061da7a62fffffff1503861026052600060006020610260600061da7a62fffffff150303b61026052600060006020610260600061da7a62fffffff15060206000610100396101005161026052600060006020610260600061da7a62fffffff15060206000610100303c6101005161026052600060006020610260600061da7a62fffffff1505861026052600060006020610260600061da7a62fffffff1506101003803610100f300",
                "storage": {}
            },
            "0xa94f5374fce5edbc8e2a8697c15331677e6ebf0b": {
                "nonce": "0x00",
                "balance": "0x0ba1a9ce0ba1a9ce",
                "code": "0x",
                "storage": {}
            }
        },
        "postState": {
            "0x000f3df6d732807ef1319fb7b8bb8522d0beac02": {
                "nonce": "0x01",
                "balance": "0x00",
                "code": "0x3373fffffffffffffffffffffffffffffffffffffffe14604d57602036146024575f5ffd5b5f35801560495762001fff810690815414603c575f5ffd5b62001fff01545f5260205ff35b5f5ffd5b62001fff42064281555f359062001fff015500",
                "storage": {
                    "0x03e8": "0x03e8"
                }
            },
            "0x000000000000000000000000000000000000da7a": {
                "nonce": "0x00",
                "balance": "0x0ba1a9ce0ba1a9ce",
                "code": "0x6000356000545560016000540160005500",
                "storage": {
                    "0x00": "0x08",
                    "0x01": "0x0a",
                    "0x02": "0x8af6a7af30d840ba137e8f3f34d54cfb8beba6e2",
                    "0x03": "0x0106",
                    "0x05": "0x610100610100610100395861026052600060006020610260600061da7a62ffff",
                    "0x07": "0xb8"
                }
            },
            "0xcccccccccccccccccccccccccccccccccccccccc": {
                "nonce": "0x01",
                "balance": "0x0ba1a9ce0ba1a9ce",
                "code": "0x60068061004c610100396102005260db8061005260003961022052600160043514603757615a17610200516101000160006000f56045565b610200516101000160006000f05b6102405200fe60ff60005500610100610100610100395861026052600060006020610260600061da7a62fffffff1503061026052600060006020610260600061da7a62fffffff1503861026052600060006020610260600061da7a62fffffff150303b61026052600060006020610260600061da7a62fffffff15060206000610100396101005161026052600060006020610260600061da7a62fffffff15060206000610100303c6101005161026052600060006020610260600061da7a62fffffff1505861026052600060006020610260600061da7a62fffffff1506101003803610100f300",
                "storage": {}
            },
            "0xa94f5374fce5edbc8e2a8697c15331677e6ebf0b": {
                "nonce": "0x01",
                "balance": "0x0ba1a9ce0b8626ae",
                "code": "0x",
                "storage": {}
            },
            "0x8af6a7af30d840ba137e8f3f34d54cfb8beba6e2": {
                "nonce": "0x01",
                "balance": "0x00",
                "code": "0x000000000000",
                "storage": {}
            }
        },
        "lastblockhash": "0xf3a203f0c93345a0cc0b5dc2913d566ea0e24d0d2c2982693c12641ff2c235a8",
        "config": {
            "network": "Cancun",
            "chainid": "0x01",
            "blobSchedule": {
                "Cancun": {
                    "target": "0x03",
                    "max": "0x06",
                    "baseFeeUpdateFraction": "0x32f0ed"
                }
            }
        },
        "genesisRLP": "0xf9023cf90236a00000000000000000000000000000000000000000000000000000000000000000a01dcc4de8dec75d7aab85b567b6ccd41ad312451b948a7413f0a142fd40d49347940000000000000000000000000000000000000000a06972f37b0dacffb822ada4487641c61216d568a24de4a06e0922a4ccc56902eba056e81f171bcc55a6ff8345e692c0f86e5b48e01b996cadc001622fb5e363b421a056e81f171bcc55a6ff8345e692c0f86e5b48e01b996cadc001622fb5e363b421b901000000000000000000000000000000000000000000000000000000000000000000000000000000000000000000000000000000000000000000000000000000000000000000000000000000000000000000000000000000000000000000000000000000000000000000000000000000000000000000000000000000000000000000000000000000000000000000000000000000000000000000000000000000000000000000000000000000000000000000000000000000000000000000000000000000000000000000000000000000000000000000000000000000000000000000000000000000000000000000000000000000000000000000000000000000000080808407270e00808000a000000000000000000000000000000000000000000000000000000000000000008800000000000000000ba056e81f171bcc55a6ff8345e692c0f86e5b48e01b996cadc001622fb5e363b4218080a00000000000000000000000000000000000000000000000000000000000000000c0c0c0",
        "blocks": [
            {
                "blockHeader": {
                    "parentHash": "0xf5e6f540d29a2582406201c348a724b23a7ec5db5dc9bfdc1812fa676c818ed1",
                    "uncleHash": "0x1dcc4de8dec75d7aab85b567b6ccd41ad312451b948a7413f0a142fd40d49347",
                    "coinbase": "0xba5e0000ba5e0000ba5e0000ba5e0000ba5e0000",
                    "stateRoot": "0x2f213c38cfcf1379657a9e0f88f07e4e4ace1f6da2ce6b82fd1c6ac2c4dec266",
                    "transactionsTrie": "0xa562f4dd66af294f527c1fc57557b7218be5033d43bad4c2a1ef7955c5555737",
                    "receiptTrie": "0x1f4dc8cb03297483c041463212c482b7e0c2d3951f91171bcf09ce32ead281cb",
                    "bloom": "0x00000000000000000000000000000000000000000000000000000000000000000000000000000000000000000000000000000000000000000000000000000000000000000000000000000000000000000000000000000000000000000000000000000000000000000000000000000000000000000000000000000000000000000000000000000000000000000000000000000000000000000000000000000000000000000000000000000000000000000000000000000000000000000000000000000000000000000000000000000000000000000000000000000000000000000000000000000000000000000000000000000000000000000000000000000000",
                    "difficulty": "0x00",
                    "number": "0x01",
                    "gasLimit": "0x07270e00",
                    "gasUsed": "0x02c050",
                    "timestamp": "0x03e8",
                    "extraData": "0x00",
                    "mixHash": "0x0000000000000000000000000000000000000000000000000000000000020000",
                    "nonce": "0x0000000000000000",
                    "baseFeePerGas": "0x0a",
                    "withdrawalsRoot": "0x56e81f171bcc55a6ff8345e692c0f86e5b48e01b996cadc001622fb5e363b421",
                    "blobGasUsed": "0x00",
                    "excessBlobGas": "0x00",
                    "parentBeaconBlockRoot": "0x0000000000000000000000000000000000000000000000000000000000000000",
                    "hash": "0xf3a203f0c93345a0cc0b5dc2913d566ea0e24d0d2c2982693c12641ff2c235a8"
                },
                "transactions": [
                    {
                        "type": "0x00",
                        "chainId": "0x01",
                        "nonce": "0x00",
                        "gasPrice": "0x0a",
                        "gasLimit": "0x900000",
                        "to": "0xcccccccccccccccccccccccccccccccccccccccc",
                        "value": "0x00",
                        "data": "0x83c7d7580000000000000000000000000000000000000000000000000000000000000001",
                        "v": "0x26",
                        "r": "0x9277186d009377e88ae8f00f945c841d9d5b696edb41b6f3c02dc437d4eaa16a",
                        "s": "0x6f07f73607d9402cbcf5bb0833a2b8d4c2f36950750b908078baec58c273e332",
                        "sender": "0xa94f5374fce5edbc8e2a8697c15331677e6ebf0b"
                    }
                ],
                "uncleHeaders": [],
                "withdrawals": [],
                "receipts": [
                    {
                        "transactionHash": "0xd2e0c8ec1679d19660521b603e638e14d6da05d9bc43c1fbc8b9a9494b8c5038",
                        "type": "0x00",
                        "cumulativeGasUsed": "0x02c050",
                        "bloom": "0x00000000000000000000000000000000000000000000000000000000000000000000000000000000000000000000000000000000000000000000000000000000000000000000000000000000000000000000000000000000000000000000000000000000000000000000000000000000000000000000000000000000000000000000000000000000000000000000000000000000000000000000000000000000000000000000000000000000000000000000000000000000000000000000000000000000000000000000000000000000000000000000000000000000000000000000000000000000000000000000000000000000000000000000000000000000",
                        "logs": [],
                        "status": true,
                        "rlp": "0xf90109018302c050b9010000000000000000000000000000000000000000000000000000000000000000000000000000000000000000000000000000000000000000000000000000000000000000000000000000000000000000000000000000000000000000000000000000000000000000000000000000000000000000000000000000000000000000000000000000000000000000000000000000000000000000000000000000000000000000000000000000000000000000000000000000000000000000000000000000000000000000000000000000000000000000000000000000000000000000000000000000000000000000000000000000000000000000000000000000000000c0"
                    }
                ],
                "rlp": "0xf902c8f9023ba0f5e6f540d29a2582406201c348a724b23a7ec5db5dc9bfdc1812fa676c818ed1a01dcc4de8dec75d7aab85b567b6ccd41ad312451b948a7413f0a142fd40d4934794ba5e0000ba5e0000ba5e0000ba5e0000ba5e0000a02f213c38cfcf1379657a9e0f88f07e4e4ace1f6da2ce6b82fd1c6ac2c4dec266a0a562f4dd66af294f527c1fc57557b7218be5033d43bad4c2a1ef7955c5555737a01f4dc8cb03297483c041463212c482b7e0c2d3951f91171bcf09ce32ead281cbb901000000000000000000000000000000000000000000000000000000000000000000000000000000000000000000000000000000000000000000000000000000000000000000000000000000000000000000000000000000000000000000000000000000000000000000000000000000000000000000000000000000000000000000000000000000000000000000000000000000000000000000000000000000000000000000000000000000000000000000000000000000000000000000000000000000000000000000000000000000000000000000000000000000000000000000000000000000000000000000000000000000000000000000000000000000000080018407270e008302c0508203e800a000000000000000000000000000000000000000000000000000000000000200008800000000000000000aa056e81f171bcc55a6ff8345e692c0f86e5b48e01b996cadc001622fb5e363b4218080a00000000000000000000000000000000000000000000000000000000000000000f886f884800a8390000094cccccccccccccccccccccccccccccccccccccccc80a483c7d758000000000000000000000000000000000000000000000000000000000000000126a09277186d009377e88ae8f00f945c841d9d5b696edb41b6f3c02dc437d4eaa16aa06f07f73607d9402cbcf5bb0833a2b8d4c2f36950750b908078baec58c273e332c0c0",
                "blocknumber": "1"
            }
        ],
        "sealEngine": "NoProof",
        "_info": {
            "hash": "0x9df2bbb7e18b69d04ed2ebc47879a5402db45ff2d3f6206f2a38d68c332f98bf",
            "fixture-format": "blockchain_test",
            "comment": "`execution-specs` generated test",
            "filling-transition-tool": "2.19.0",
            "description": "Ori Pomerantz qbzzt1@gmail.",
            "url": "https://github.com/ethereum/execution-specs/blob/tests-sn\u00f8bal-devnet-4@v1.0.0/tests/ported_static/stCreateTest/test_code_in_constructor.py#L30",
            "metadata": {
                "opcode_count": {}
            }
        }
    },
    "tests/ported_static/stCreateTest/test_code_in_constructor.py::test_code_in_constructor[fork_Cancun-blockchain_test_from_state_test-d1]": {
        "network": "Cancun",
        "genesisBlockHeader": {
            "parentHash": "0x0000000000000000000000000000000000000000000000000000000000000000",
            "uncleHash": "0x1dcc4de8dec75d7aab85b567b6ccd41ad312451b948a7413f0a142fd40d49347",
            "coinbase": "0x0000000000000000000000000000000000000000",
            "stateRoot": "0x6972f37b0dacffb822ada4487641c61216d568a24de4a06e0922a4ccc56902eb",
            "transactionsTrie": "0x56e81f171bcc55a6ff8345e692c0f86e5b48e01b996cadc001622fb5e363b421",
            "receiptTrie": "0x56e81f171bcc55a6ff8345e692c0f86e5b48e01b996cadc001622fb5e363b421",
            "bloom": "0x00000000000000000000000000000000000000000000000000000000000000000000000000000000000000000000000000000000000000000000000000000000000000000000000000000000000000000000000000000000000000000000000000000000000000000000000000000000000000000000000000000000000000000000000000000000000000000000000000000000000000000000000000000000000000000000000000000000000000000000000000000000000000000000000000000000000000000000000000000000000000000000000000000000000000000000000000000000000000000000000000000000000000000000000000000000",
            "difficulty": "0x00",
            "number": "0x00",
            "gasLimit": "0x07270e00",
            "gasUsed": "0x00",
            "timestamp": "0x00",
            "extraData": "0x00",
            "mixHash": "0x0000000000000000000000000000000000000000000000000000000000000000",
            "nonce": "0x0000000000000000",
            "baseFeePerGas": "0x0b",
            "withdrawalsRoot": "0x56e81f171bcc55a6ff8345e692c0f86e5b48e01b996cadc001622fb5e363b421",
            "blobGasUsed": "0x00",
            "excessBlobGas": "0x00",
            "parentBeaconBlockRoot": "0x0000000000000000000000000000000000000000000000000000000000000000",
            "hash": "0xf5e6f540d29a2582406201c348a724b23a7ec5db5dc9bfdc1812fa676c818ed1"
        },
        "pre": {
            "0x000f3df6d732807ef1319fb7b8bb8522d0beac02": {
                "nonce": "0x01",
                "balance": "0x00",
                "code": "0x3373fffffffffffffffffffffffffffffffffffffffe14604d57602036146024575f5ffd5b5f35801560495762001fff810690815414603c575f5ffd5b62001fff01545f5260205ff35b5f5ffd5b62001fff42064281555f359062001fff015500",
                "storage": {}
            },
            "0x000000000000000000000000000000000000da7a": {
                "nonce": "0x00",
                "balance": "0x0ba1a9ce0ba1a9ce",
                "code": "0x6000356000545560016000540160005500",
                "storage": {
                    "0x00": "0x01"
                }
            },
            "0xcccccccccccccccccccccccccccccccccccccccc": {
                "nonce": "0x00",
                "balance": "0x0ba1a9ce0ba1a9ce",
                "code": "0x60068061004c610100396102005260db8061005260003961022052600160043514603757615a17610200516101000160006000f56045565b610200516101000160006000f05b6102405200fe60ff60005500610100610100610100395861026052600060006020610260600061da7a62fffffff1503061026052600060006020610260600061da7a62fffffff1503861026052600060006020610260600061da7a62fffffff150303b61026052600060006020610260600061da7a62fffffff15060206000610100396101005161026052600060006020610260600061da7a62fffffff15060206000610100303c6101005161026052600060006020610260600061da7a62fffffff1505861026052600060006020610260600061da7a62fffffff1506101003803610100f300",
                "storage": {}
            },
            "0xa94f5374fce5edbc8e2a8697c15331677e6ebf0b": {
                "nonce": "0x00",
                "balance": "0x0ba1a9ce0ba1a9ce",
                "code": "0x",
                "storage": {}
            }
        },
        "postState": {
            "0x000f3df6d732807ef1319fb7b8bb8522d0beac02": {
                "nonce": "0x01",
                "balance": "0x00",
                "code": "0x3373fffffffffffffffffffffffffffffffffffffffe14604d57602036146024575f5ffd5b5f35801560495762001fff810690815414603c575f5ffd5b62001fff01545f5260205ff35b5f5ffd5b62001fff42064281555f359062001fff015500",
                "storage": {
                    "0x03e8": "0x03e8"
                }
            },
            "0x000000000000000000000000000000000000da7a": {
                "nonce": "0x00",
                "balance": "0x0ba1a9ce0ba1a9ce",
                "code": "0x6000356000545560016000540160005500",
                "storage": {
                    "0x00": "0x08",
                    "0x01": "0x0a",
                    "0x02": "0x33c409678a4289f0184c95c627ba09da2daeaa46",
                    "0x03": "0x0106",
                    "0x05": "0x610100610100610100395861026052600060006020610260600061da7a62ffff",
                    "0x07": "0xb8"
                }
            },
            "0xcccccccccccccccccccccccccccccccccccccccc": {
                "nonce": "0x01",
                "balance": "0x0ba1a9ce0ba1a9ce",
                "code": "0x60068061004c610100396102005260db8061005260003961022052600160043514603757615a17610200516101000160006000f56045565b610200516101000160006000f05b6102405200fe60ff60005500610100610100610100395861026052600060006020610260600061da7a62fffffff1503061026052600060006020610260600061da7a62fffffff1503861026052600060006020610260600061da7a62fffffff150303b61026052600060006020610260600061da7a62fffffff15060206000610100396101005161026052600060006020610260600061da7a62fffffff15060206000610100303c6101005161026052600060006020610260600061da7a62fffffff1505861026052600060006020610260600061da7a62fffffff1506101003803610100f300",
                "storage": {}
            },
            "0xa94f5374fce5edbc8e2a8697c15331677e6ebf0b": {
                "nonce": "0x01",
                "balance": "0x0ba1a9ce0b862410",
                "code": "0x",
                "storage": {}
            },
            "0x33c409678a4289f0184c95c627ba09da2daeaa46": {
                "nonce": "0x01",
                "balance": "0x00",
                "code": "0x000000000000",
                "storage": {}
            }
        },
        "lastblockhash": "0xdbe9ad540858679f5f2f2d8be350ce429b116901af0c4b821c872d432315c971",
        "config": {
            "network": "Cancun",
            "chainid": "0x01",
            "blobSchedule": {
                "Cancun": {
                    "target": "0x03",
                    "max": "0x06",
                    "baseFeeUpdateFraction": "0x32f0ed"
                }
            }
        },
        "genesisRLP": "0xf9023cf90236a00000000000000000000000000000000000000000000000000000000000000000a01dcc4de8dec75d7aab85b567b6ccd41ad312451b948a7413f0a142fd40d49347940000000000000000000000000000000000000000a06972f37b0dacffb822ada4487641c61216d568a24de4a06e0922a4ccc56902eba056e81f171bcc55a6ff8345e692c0f86e5b48e01b996cadc001622fb5e363b421a056e81f171bcc55a6ff8345e692c0f86e5b48e01b996cadc001622fb5e363b421b901000000000000000000000000000000000000000000000000000000000000000000000000000000000000000000000000000000000000000000000000000000000000000000000000000000000000000000000000000000000000000000000000000000000000000000000000000000000000000000000000000000000000000000000000000000000000000000000000000000000000000000000000000000000000000000000000000000000000000000000000000000000000000000000000000000000000000000000000000000000000000000000000000000000000000000000000000000000000000000000000000000000000000000000000000000000080808407270e00808000a000000000000000000000000000000000000000000000000000000000000000008800000000000000000ba056e81f171bcc55a6ff8345e692c0f86e5b48e01b996cadc001622fb5e363b4218080a00000000000000000000000000000000000000000000000000000000000000000c0c0c0",
        "blocks": [
            {
                "blockHeader": {
                    "parentHash": "0xf5e6f540d29a2582406201c348a724b23a7ec5db5dc9bfdc1812fa676c818ed1",
                    "uncleHash": "0x1dcc4de8dec75d7aab85b567b6ccd41ad312451b948a7413f0a142fd40d49347",
                    "coinbase": "0xba5e0000ba5e0000ba5e0000ba5e0000ba5e0000",
                    "stateRoot": "0xc0bf8acf176ae5f0b29674ee3e32a244afef246f53bcd3ff5add9cc9601d1743",
                    "transactionsTrie": "0x01c115ae3f6a5e96e29f3ac75863c3725795a425e61bf0cabd5a5f02a919bbf0",
                    "receiptTrie": "0xf5cc4a3612d3e9f284c3c14ccb2b7ec694d8abbebe9589b016d18a9502775d95",
                    "bloom": "0x00000000000000000000000000000000000000000000000000000000000000000000000000000000000000000000000000000000000000000000000000000000000000000000000000000000000000000000000000000000000000000000000000000000000000000000000000000000000000000000000000000000000000000000000000000000000000000000000000000000000000000000000000000000000000000000000000000000000000000000000000000000000000000000000000000000000000000000000000000000000000000000000000000000000000000000000000000000000000000000000000000000000000000000000000000000",
                    "difficulty": "0x00",
                    "number": "0x01",
                    "gasLimit": "0x07270e00",
                    "gasUsed": "0x02c093",
                    "timestamp": "0x03e8",
                    "extraData": "0x00",
                    "mixHash": "0x0000000000000000000000000000000000000000000000000000000000020000",
                    "nonce": "0x0000000000000000",
                    "baseFeePerGas": "0x0a",
                    "withdrawalsRoot": "0x56e81f171bcc55a6ff8345e692c0f86e5b48e01b996cadc001622fb5e363b421",
                    "blobGasUsed": "0x00",
                    "excessBlobGas": "0x00",
                    "parentBeaconBlockRoot": "0x0000000000000000000000000000000000000000000000000000000000000000",
                    "hash": "0xdbe9ad540858679f5f2f2d8be350ce429b116901af0c4b821c872d432315c971"
                },
                "transactions": [
                    {
                        "type": "0x00",
                        "chainId": "0x01",
                        "nonce": "0x00",
                        "gasPrice": "0x0a",
                        "gasLimit": "0x900000",
                        "to": "0xcccccccccccccccccccccccccccccccccccccccc",
                        "value": "0x00",
                        "data": "0x83c7d7580000000000000000000000000000000000000000000000000000000000000002",
                        "v": "0x26",
                        "r": "0x26787943c569a3f84c0707545a877bb78737ee7c77dd0de4ecc4c13791038de5",
                        "s": "0x44324a5f521cd164a074b3b8b011964a73cfac58826c17bbdc4032e48a636143",
                        "sender": "0xa94f5374fce5edbc8e2a8697c15331677e6ebf0b"
                    }
                ],
                "uncleHeaders": [],
                "withdrawals": [],
                "receipts": [
                    {
                        "transactionHash": "0x77e902e5f1a8b2f71959b34d8ab2f77ee29266685a9f1f9a5921f6c24afe31ac",
                        "type": "0x00",
                        "cumulativeGasUsed": "0x02c093",
                        "bloom": "0x00000000000000000000000000000000000000000000000000000000000000000000000000000000000000000000000000000000000000000000000000000000000000000000000000000000000000000000000000000000000000000000000000000000000000000000000000000000000000000000000000000000000000000000000000000000000000000000000000000000000000000000000000000000000000000000000000000000000000000000000000000000000000000000000000000000000000000000000000000000000000000000000000000000000000000000000000000000000000000000000000000000000000000000000000000000",
                        "logs": [],
                        "status": true,
                        "rlp": "0xf90109018302c093b9010000000000000000000000000000000000000000000000000000000000000000000000000000000000000000000000000000000000000000000000000000000000000000000000000000000000000000000000000000000000000000000000000000000000000000000000000000000000000000000000000000000000000000000000000000000000000000000000000000000000000000000000000000000000000000000000000000000000000000000000000000000000000000000000000000000000000000000000000000000000000000000000000000000000000000000000000000000000000000000000000000000000000000000000000000000000c0"
                    }
                ],
                "rlp": "0xf902c8f9023ba0f5e6f540d29a2582406201c348a724b23a7ec5db5dc9bfdc1812fa676c818ed1a01dcc4de8dec75d7aab85b567b6ccd41ad312451b948a7413f0a142fd40d4934794ba5e0000ba5e0000ba5e0000ba5e0000ba5e0000a0c0bf8acf176ae5f0b29674ee3e32a244afef246f53bcd3ff5add9cc9601d1743a001c115ae3f6a5e96e29f3ac75863c3725795a425e61bf0cabd5a5f02a919bbf0a0f5cc4a3612d3e9f284c3c14ccb2b7ec694d8abbebe9589b016d18a9502775d95b901000000000000000000000000000000000000000000000000000000000000000000000000000000000000000000000000000000000000000000000000000000000000000000000000000000000000000000000000000000000000000000000000000000000000000000000000000000000000000000000000000000000000000000000000000000000000000000000000000000000000000000000000000000000000000000000000000000000000000000000000000000000000000000000000000000000000000000000000000000000000000000000000000000000000000000000000000000000000000000000000000000000000000000000000000000000080018407270e008302c0938203e800a000000000000000000000000000000000000000000000000000000000000200008800000000000000000aa056e81f171bcc55a6ff8345e692c0f86e5b48e01b996cadc001622fb5e363b4218080a00000000000000000000000000000000000000000000000000000000000000000f886f884800a8390000094cccccccccccccccccccccccccccccccccccccccc80a483c7d758000000000000000000000000000000000000000000000000000000000000000226a026787943c569a3f84c0707545a877bb78737ee7c77dd0de4ecc4c13791038de5a044324a5f521cd164a074b3b8b011964a73cfac58826c17bbdc4032e48a636143c0c0",
                "blocknumber": "1"
            }
        ],
        "sealEngine": "NoProof",
        "_info": {
            "hash": "0xf36db0d1b1d3c44972ce616a4cac0149aa355c3ec782839a9e9e09d91b4bb137",
            "fixture-format": "blockchain_test",
            "comment": "`execution-specs` generated test",
            "filling-transition-tool": "2.19.0",
            "description": "Ori Pomerantz qbzzt1@gmail.",
            "url": "https://github.com/ethereum/execution-specs/blob/tests-sn\u00f8bal-devnet-4@v1.0.0/tests/ported_static/stCreateTest/test_code_in_constructor.py#L30",
            "metadata": {
                "opcode_count": {}
            }
        }
    }
}