{
    "tests/static/state_tests/stCreateTest/CreateCollisionResultsFiller.yml::CreateCollisionResults[fork_Cancun-blockchain_test_from_state_test-d0]": {
        "network": "Cancun",
        "genesisBlockHeader": {
            "parentHash": "0x0000000000000000000000000000000000000000000000000000000000000000",
            "uncleHash": "0x1dcc4de8dec75d7aab85b567b6ccd41ad312451b948a7413f0a142fd40d49347",
            "coinbase": "0x0000000000000000000000000000000000000000",
            "stateRoot": "0x05e42514ab825b1c0d909745751ca40894dae900cd076729c5f6078a9ce35c52",
            "transactionsTrie": "0x56e81f171bcc55a6ff8345e692c0f86e5b48e01b996cadc001622fb5e363b421",
            "receiptTrie": "0x56e81f171bcc55a6ff8345e692c0f86e5b48e01b996cadc001622fb5e363b421",
            "bloom": "0x00000000000000000000000000000000000000000000000000000000000000000000000000000000000000000000000000000000000000000000000000000000000000000000000000000000000000000000000000000000000000000000000000000000000000000000000000000000000000000000000000000000000000000000000000000000000000000000000000000000000000000000000000000000000000000000000000000000000000000000000000000000000000000000000000000000000000000000000000000000000000000000000000000000000000000000000000000000000000000000000000000000000000000000000000000000",
            "difficulty": "0x00",
            "number": "0x00",
            "gasLimit": "0x0100000000",
            "gasUsed": "0x00",
            "timestamp": "0x00",
            "extraData": "0x00",
            "mixHash": "0x0000000000000000000000000000000000000000000000000000000000000000",
            "nonce": "0x0000000000000000",
            "baseFeePerGas": "0x0b",
            "withdrawalsRoot": "0x56e81f171bcc55a6ff8345e692c0f86e5b48e01b996cadc001622fb5e363b421",
            "blobGasUsed": "0x00",
            "excessBlobGas": "0x00",
            "parentBeaconBlockRoot": "0x0000000000000000000000000000000000000000000000000000000000000000",
            "hash": "0x75b192b2bf0bf0580567b5cfefab102665e866cdb3c67650d327654ea193ff95"
        },
        "pre": {
            "0x000f3df6d732807ef1319fb7b8bb8522d0beac02": {
                "nonce": "0x01",
                "balance": "0x00",
                "code": "0x3373fffffffffffffffffffffffffffffffffffffffe14604d57602036146024575f5ffd5b5f35801560495762001fff810690815414603c575f5ffd5b62001fff01545f5260205ff35b5f5ffd5b62001fff42064281555f359062001fff015500",
                "storage": {}
            },
            "0x8af6a7af30d840ba137e8f3f34d54cfb8beba6e2": {
                "nonce": "0x00",
                "balance": "0x0ba1a9ce0ba1a9ce",
                "code": "0x601d60005500",
                "storage": {
                    "0x00": "0x60a7"
                }
            },
            "0x40f1299359ea754ac29eb2662a1900752bf8275f": {
                "nonce": "0x00",
                "balance": "0x0ba1a9ce0ba1a9ce",
                "code": "0x601d60005500",
                "storage": {
                    "0x00": "0x60a7"
                }
            },
            "0xcccccccccccccccccccccccccccccccccccccccc": {
                "nonce": "0x00",
                "balance": "0x0ba1a9ce0ba1a9ce",
                "code": "0x60f860020a6000350461010052601580610158610300396105405260068061016d61020039610520526001610100511461004957615a17610540516103006000f561060052610058565b610540516103006000f0610600525b586020553d6010556106005160115560006000600060006000738af6a7af30d840ba137e8f3f34d54cfb8beba6e261fffff16106405258602155600161064051036012553d601355600060006000600060007340f1299359ea754ac29eb2662a1900752bf8275f61fffff16106405258602255600161064051036014553d601555738af6a7af30d840ba137e8f3f34d54cfb8beba6e23b6030556030546000610660738af6a7af30d840ba137e8f3f34d54cfb8beba6e23c610660516031557340f1299359ea754ac29eb2662a1900752bf8275f3b60325560325460006106607340f1299359ea754ac29eb2662a1900752bf8275f3c6106605160335500fe600680600f61020039610200f300fe60ff6000550060ff60005500",
                "storage": {
                    "0x10": "0x60a7",
                    "0x11": "0x60a7",
                    "0x12": "0x60a7",
                    "0x13": "0x60a7",
                    "0x14": "0x60a7",
                    "0x15": "0x60a7",
                    "0x20": "0x60a7",
                    "0x21": "0x60a7",
                    "0x22": "0x60a7"
                }
            },
            "0xa94f5374fce5edbc8e2a8697c15331677e6ebf0b": {
                "nonce": "0x00",
                "balance": "0x0ba1a9ce0ba1a9ce",
                "code": "0x",
                "storage": {}
            }
        },
        "postState": {
            "0x000f3df6d732807ef1319fb7b8bb8522d0beac02": {
                "nonce": "0x01",
                "balance": "0x00",
                "code": "0x3373fffffffffffffffffffffffffffffffffffffffe14604d57602036146024575f5ffd5b5f35801560495762001fff810690815414603c575f5ffd5b62001fff01545f5260205ff35b5f5ffd5b62001fff42064281555f359062001fff015500",
                "storage": {
                    "0x03e8": "0x03e8"
                }
            },
            "0x8af6a7af30d840ba137e8f3f34d54cfb8beba6e2": {
                "nonce": "0x00",
                "balance": "0x0ba1a9ce0ba1a9ce",
                "code": "0x601d60005500",
                "storage": {
                    "0x00": "0x1d"
                }
            },
            "0x40f1299359ea754ac29eb2662a1900752bf8275f": {
                "nonce": "0x00",
                "balance": "0x0ba1a9ce0ba1a9ce",
                "code": "0x601d60005500",
                "storage": {
                    "0x00": "0x1d"
                }
            },
            "0xcccccccccccccccccccccccccccccccccccccccc": {
                "nonce": "0x01",
                "balance": "0x0ba1a9ce0ba1a9ce",
                "code": "0x60f860020a6000350461010052601580610158610300396105405260068061016d61020039610520526001610100511461004957615a17610540516103006000f561060052610058565b610540516103006000f0610600525b586020553d6010556106005160115560006000600060006000738af6a7af30d840ba137e8f3f34d54cfb8beba6e261fffff16106405258602155600161064051036012553d601355600060006000600060007340f1299359ea754ac29eb2662a1900752bf8275f61fffff16106405258602255600161064051036014553d601555738af6a7af30d840ba137e8f3f34d54cfb8beba6e23b6030556030546000610660738af6a7af30d840ba137e8f3f34d54cfb8beba6e23c610660516031557340f1299359ea754ac29eb2662a1900752bf8275f3b60325560325460006106607340f1299359ea754ac29eb2662a1900752bf8275f3c6106605160335500fe600680600f61020039610200f300fe60ff6000550060ff60005500",
                "storage": {
                    "0x20": "0x59",
                    "0x21": "0x8f",
                    "0x22": "0xc8",
                    "0x30": "0x06",
                    "0x31": "0x601d600055000000000000000000000000000000000000000000000000000000",
                    "0x32": "0x06",
                    "0x33": "0x601d600055000000000000000000000000000000000000000000000000000000"
                }
            },
            "0xa94f5374fce5edbc8e2a8697c15331677e6ebf0b": {
                "nonce": "0x01",
                "balance": "0x0ba1a9ce01b782bc",
                "code": "0x",
                "storage": {}
            }
        },
        "lastblockhash": "0x0161ebf47a8822b9c73ebd87a3fee0fb79327fb91669ea608d687ce27fdbb9d3",
        "config": {
            "network": "Cancun",
            "chainid": "0x01",
            "blobSchedule": {
                "Cancun": {
                    "target": "0x03",
                    "max": "0x06",
                    "baseFeeUpdateFraction": "0x32f0ed"
                }
            }
        },
        "genesisRLP": "0xf9023df90237a00000000000000000000000000000000000000000000000000000000000000000a01dcc4de8dec75d7aab85b567b6ccd41ad312451b948a7413f0a142fd40d49347940000000000000000000000000000000000000000a005e42514ab825b1c0d909745751ca40894dae900cd076729c5f6078a9ce35c52a056e81f171bcc55a6ff8345e692c0f86e5b48e01b996cadc001622fb5e363b421a056e81f171bcc55a6ff8345e692c0f86e5b48e01b996cadc001622fb5e363b421b90100000000000000000000000000000000000000000000000000000000000000000000000000000000000000000000000000000000000000000000000000000000000000000000000000000000000000000000000000000000000000000000000000000000000000000000000000000000000000000000000000000000000000000000000000000000000000000000000000000000000000000000000000000000000000000000000000000000000000000000000000000000000000000000000000000000000000000000000000000000000000000000000000000000000000000000000000000000000000000000000000000000000000000000000000000000008080850100000000808000a000000000000000000000000000000000000000000000000000000000000000008800000000000000000ba056e81f171bcc55a6ff8345e692c0f86e5b48e01b996cadc001622fb5e363b4218080a00000000000000000000000000000000000000000000000000000000000000000c0c0c0",
        "blocks": [
            {
                "blockHeader": {
                    "parentHash": "0x75b192b2bf0bf0580567b5cfefab102665e866cdb3c67650d327654ea193ff95",
                    "uncleHash": "0x1dcc4de8dec75d7aab85b567b6ccd41ad312451b948a7413f0a142fd40d49347",
                    "coinbase": "0x2adc25665018aa1fe0e6bc666dac8fc2697ff9ba",
                    "stateRoot": "0x2060f6db6d20b98580c6d61735917341b457fda273d4c161d894c77cd654139f",
                    "transactionsTrie": "0x643557baaba0dbd790804ae9ccc79d36354a560a5fe3558ba367f62d807b90dc",
                    "receiptTrie": "0xb2e57723605c3a98fb993914bd05a180b797f0f690f92e5b514f0a76e18f1ce4",
                    "bloom": "0x00000000000000000000000000000000000000000000000000000000000000000000000000000000000000000000000000000000000000000000000000000000000000000000000000000000000000000000000000000000000000000000000000000000000000000000000000000000000000000000000000000000000000000000000000000000000000000000000000000000000000000000000000000000000000000000000000000000000000000000000000000000000000000000000000000000000000000000000000000000000000000000000000000000000000000000000000000000000000000000000000000000000000000000000000000000",
                    "difficulty": "0x00",
                    "number": "0x01",
                    "gasLimit": "0x0100000000",
                    "gasUsed": "0xfdd0b5",
                    "timestamp": "0x03e8",
                    "extraData": "0x00",
                    "mixHash": "0x0000000000000000000000000000000000000000000000000000000000020000",
                    "nonce": "0x0000000000000000",
                    "baseFeePerGas": "0x0a",
                    "withdrawalsRoot": "0x56e81f171bcc55a6ff8345e692c0f86e5b48e01b996cadc001622fb5e363b421",
                    "blobGasUsed": "0x00",
                    "excessBlobGas": "0x00",
                    "parentBeaconBlockRoot": "0x0000000000000000000000000000000000000000000000000000000000000000",
                    "hash": "0x0161ebf47a8822b9c73ebd87a3fee0fb79327fb91669ea608d687ce27fdbb9d3"
                },
                "transactions": [
                    {
                        "type": "0x00",
                        "chainId": "0x01",
                        "nonce": "0x00",
                        "gasPrice": "0x0a",
                        "gasLimit": "0x01000000",
                        "to": "0xcccccccccccccccccccccccccccccccccccccccc",
                        "value": "0x00",
                        "data": "0x01",
                        "v": "0x26",
                        "r": "0x80e8004de243a6b9eb7e5855263b095d2415549ac12c1e754805d74f09eddbbf",
                        "s": "0x40add1a69ca6515b5e65d3fdbb83f78fb8f0bac6f2f3d65b8e5a7b57e81a1fa6",
                        "sender": "0xa94f5374fce5edbc8e2a8697c15331677e6ebf0b"
                    }
                ],
                "uncleHeaders": [],
                "withdrawals": [],
                "receipts": [
                    {
                        "transactionHash": "0xbb4ec77fa71a35443df9f906ba923f9343ecc8658cecfb93aa82c902c667a9b5",
                        "type": "0x00",
                        "cumulativeGasUsed": "0xfdd0b5",
                        "bloom": "0x00000000000000000000000000000000000000000000000000000000000000000000000000000000000000000000000000000000000000000000000000000000000000000000000000000000000000000000000000000000000000000000000000000000000000000000000000000000000000000000000000000000000000000000000000000000000000000000000000000000000000000000000000000000000000000000000000000000000000000000000000000000000000000000000000000000000000000000000000000000000000000000000000000000000000000000000000000000000000000000000000000000000000000000000000000000",
                        "logs": [],
                        "status": true,
                        "rlp": "0xf901090183fdd0b5b9010000000000000000000000000000000000000000000000000000000000000000000000000000000000000000000000000000000000000000000000000000000000000000000000000000000000000000000000000000000000000000000000000000000000000000000000000000000000000000000000000000000000000000000000000000000000000000000000000000000000000000000000000000000000000000000000000000000000000000000000000000000000000000000000000000000000000000000000000000000000000000000000000000000000000000000000000000000000000000000000000000000000000000000000000000000000c0"
                    }
                ],
                "rlp": "0xf902a6f9023ca075b192b2bf0bf0580567b5cfefab102665e866cdb3c67650d327654ea193ff95a01dcc4de8dec75d7aab85b567b6ccd41ad312451b948a7413f0a142fd40d49347942adc25665018aa1fe0e6bc666dac8fc2697ff9baa02060f6db6d20b98580c6d61735917341b457fda273d4c161d894c77cd654139fa0643557baaba0dbd790804ae9ccc79d36354a560a5fe3558ba367f62d807b90dca0b2e57723605c3a98fb993914bd05a180b797f0f690f92e5b514f0a76e18f1ce4b9010000000000000000000000000000000000000000000000000000000000000000000000000000000000000000000000000000000000000000000000000000000000000000000000000000000000000000000000000000000000000000000000000000000000000000000000000000000000000000000000000000000000000000000000000000000000000000000000000000000000000000000000000000000000000000000000000000000000000000000000000000000000000000000000000000000000000000000000000000000000000000000000000000000000000000000000000000000000000000000000000000000000000000000000000000000000800185010000000083fdd0b58203e800a000000000000000000000000000000000000000000000000000000000000200008800000000000000000aa056e81f171bcc55a6ff8345e692c0f86e5b48e01b996cadc001622fb5e363b4218080a00000000000000000000000000000000000000000000000000000000000000000f863f861800a840100000094cccccccccccccccccccccccccccccccccccccccc800126a080e8004de243a6b9eb7e5855263b095d2415549ac12c1e754805d74f09eddbbfa040add1a69ca6515b5e65d3fdbb83f78fb8f0bac6f2f3d65b8e5a7b57e81a1fa6c0c0",
                "blocknumber": "1"
            }
        ],
        "sealEngine": "NoProof",
        "_info": {
            "hash": "0xa971f910898ac6f42b4c91b0c150fdca8aaeda7347f4019d3308f5781ebe68ad",
            "fixture-format": "blockchain_test",
            "comment": "`execution-specs` generated test",
            "filling-transition-tool": "2.19.0",
            "description": "No description available - add a docstring to the python test class or function.",
            "url": "",
            "opcode_count": {}
        }
    },
    "tests/static/state_tests/stCreateTest/CreateCollisionResultsFiller.yml::CreateCollisionResults[fork_Cancun-blockchain_test_from_state_test-d1]": {
        "network": "Cancun",
        "genesisBlockHeader": {
            "parentHash": "0x0000000000000000000000000000000000000000000000000000000000000000",
            "uncleHash": "0x1dcc4de8dec75d7aab85b567b6ccd41ad312451b948a7413f0a142fd40d49347",
            "coinbase": "0x0000000000000000000000000000000000000000",
            "stateRoot": "0x05e42514ab825b1c0d909745751ca40894dae900cd076729c5f6078a9ce35c52",
            "transactionsTrie": "0x56e81f171bcc55a6ff8345e692c0f86e5b48e01b996cadc001622fb5e363b421",
            "receiptTrie": "0x56e81f171bcc55a6ff8345e692c0f86e5b48e01b996cadc001622fb5e363b421",
            "bloom": "0x00000000000000000000000000000000000000000000000000000000000000000000000000000000000000000000000000000000000000000000000000000000000000000000000000000000000000000000000000000000000000000000000000000000000000000000000000000000000000000000000000000000000000000000000000000000000000000000000000000000000000000000000000000000000000000000000000000000000000000000000000000000000000000000000000000000000000000000000000000000000000000000000000000000000000000000000000000000000000000000000000000000000000000000000000000000",
            "difficulty": "0x00",
            "number": "0x00",
            "gasLimit": "0x0100000000",
            "gasUsed": "0x00",
            "timestamp": "0x00",
            "extraData": "0x00",
            "mixHash": "0x0000000000000000000000000000000000000000000000000000000000000000",
            "nonce": "0x0000000000000000",
            "baseFeePerGas": "0x0b",
            "withdrawalsRoot": "0x56e81f171bcc55a6ff8345e692c0f86e5b48e01b996cadc001622fb5e363b421",
            "blobGasUsed": "0x00",
            "excessBlobGas": "0x00",
            "parentBeaconBlockRoot": "0x0000000000000000000000000000000000000000000000000000000000000000",
            "hash": "0x75b192b2bf0bf0580567b5cfefab102665e866cdb3c67650d327654ea193ff95"
        },
        "pre": {
            "0x000f3df6d732807ef1319fb7b8bb8522d0beac02": {
                "nonce": "0x01",
                "balance": "0x00",
                "code": "0x3373fffffffffffffffffffffffffffffffffffffffe14604d57602036146024575f5ffd5b5f35801560495762001fff810690815414603c575f5ffd5b62001fff01545f5260205ff35b5f5ffd5b62001fff42064281555f359062001fff015500",
                "storage": {}
            },
            "0x8af6a7af30d840ba137e8f3f34d54cfb8beba6e2": {
                "nonce": "0x00",
                "balance": "0x0ba1a9ce0ba1a9ce",
                "code": "0x601d60005500",
                "storage": {
                    "0x00": "0x60a7"
                }
            },
            "0x40f1299359ea754ac29eb2662a1900752bf8275f": {
                "nonce": "0x00",
                "balance": "0x0ba1a9ce0ba1a9ce",
                "code": "0x601d60005500",
                "storage": {
                    "0x00": "0x60a7"
                }
            },
            "0xcccccccccccccccccccccccccccccccccccccccc": {
                "nonce": "0x00",
                "balance": "0x0ba1a9ce0ba1a9ce",
                "code": "0x60f860020a6000350461010052601580610158610300396105405260068061016d61020039610520526001610100511461004957615a17610540516103006000f561060052610058565b610540516103006000f0610600525b586020553d6010556106005160115560006000600060006000738af6a7af30d840ba137e8f3f34d54cfb8beba6e261fffff16106405258602155600161064051036012553d601355600060006000600060007340f1299359ea754ac29eb2662a1900752bf8275f61fffff16106405258602255600161064051036014553d601555738af6a7af30d840ba137e8f3f34d54cfb8beba6e23b6030556030546000610660738af6a7af30d840ba137e8f3f34d54cfb8beba6e23c610660516031557340f1299359ea754ac29eb2662a1900752bf8275f3b60325560325460006106607340f1299359ea754ac29eb2662a1900752bf8275f3c6106605160335500fe600680600f61020039610200f300fe60ff6000550060ff60005500",
                "storage": {
                    "0x10": "0x60a7",
                    "0x11": "0x60a7",
                    "0x12": "0x60a7",
                    "0x13": "0x60a7",
                    "0x14": "0x60a7",
                    "0x15": "0x60a7",
                    "0x20": "0x60a7",
                    "0x21": "0x60a7",
                    "0x22": "0x60a7"
                }
            },
            "0xa94f5374fce5edbc8e2a8697c15331677e6ebf0b": {
                "nonce": "0x00",
                "balance": "0x0ba1a9ce0ba1a9ce",
                "code": "0x",
                "storage": {}
            }
        },
        "postState": {
            "0x000f3df6d732807ef1319fb7b8bb8522d0beac02": {
                "nonce": "0x01",
                "balance": "0x00",
                "code": "0x3373fffffffffffffffffffffffffffffffffffffffe14604d57602036146024575f5ffd5b5f35801560495762001fff810690815414603c575f5ffd5b62001fff01545f5260205ff35b5f5ffd5b62001fff42064281555f359062001fff015500",
                "storage": {
                    "0x03e8": "0x03e8"
                }
            },
            "0x8af6a7af30d840ba137e8f3f34d54cfb8beba6e2": {
                "nonce": "0x00",
                "balance": "0x0ba1a9ce0ba1a9ce",
                "code": "0x601d60005500",
                "storage": {
                    "0x00": "0x1d"
                }
            },
            "0x40f1299359ea754ac29eb2662a1900752bf8275f": {
                "nonce": "0x00",
                "balance": "0x0ba1a9ce0ba1a9ce",
                "code": "0x601d60005500",
                "storage": {
                    "0x00": "0x1d"
                }
            },
            "0xcccccccccccccccccccccccccccccccccccccccc": {
                "nonce": "0x01",
                "balance": "0x0ba1a9ce0ba1a9ce",
                "code": "0x60f860020a6000350461010052601580610158610300396105405260068061016d61020039610520526001610100511461004957615a17610540516103006000f561060052610058565b610540516103006000f0610600525b586020553d6010556106005160115560006000600060006000738af6a7af30d840ba137e8f3f34d54cfb8beba6e261fffff16106405258602155600161064051036012553d601355600060006000600060007340f1299359ea754ac29eb2662a1900752bf8275f61fffff16106405258602255600161064051036014553d601555738af6a7af30d840ba137e8f3f34d54cfb8beba6e23b6030556030546000610660738af6a7af30d840ba137e8f3f34d54cfb8beba6e23c610660516031557340f1299359ea754ac29eb2662a1900752bf8275f3b60325560325460006106607340f1299359ea754ac29eb2662a1900752bf8275f3c6106605160335500fe600680600f61020039610200f300fe60ff6000550060ff60005500",
                "storage": {
                    "0x20": "0x59",
                    "0x21": "0x8f",
                    "0x22": "0xc8",
                    "0x30": "0x06",
                    "0x31": "0x601d600055000000000000000000000000000000000000000000000000000000",
                    "0x32": "0x06",
                    "0x33": "0x601d600055000000000000000000000000000000000000000000000000000000"
                }
            },
            "0xa94f5374fce5edbc8e2a8697c15331677e6ebf0b": {
                "nonce": "0x01",
                "balance": "0x0ba1a9ce01b7824e",
                "code": "0x",
                "storage": {}
            }
        },
        "lastblockhash": "0x5064f95d988959b8bc0b844223e6c3f039a47fb41629d62c123ee0da2b239382",
        "config": {
            "network": "Cancun",
            "chainid": "0x01",
            "blobSchedule": {
                "Cancun": {
                    "target": "0x03",
                    "max": "0x06",
                    "baseFeeUpdateFraction": "0x32f0ed"
                }
            }
        },
        "genesisRLP": "0xf9023df90237a00000000000000000000000000000000000000000000000000000000000000000a01dcc4de8dec75d7aab85b567b6ccd41ad312451b948a7413f0a142fd40d49347940000000000000000000000000000000000000000a005e42514ab825b1c0d909745751ca40894dae900cd076729c5f6078a9ce35c52a056e81f171bcc55a6ff8345e692c0f86e5b48e01b996cadc001622fb5e363b421a056e81f171bcc55a6ff8345e692c0f86e5b48e01b996cadc001622fb5e363b421b90100000000000000000000000000000000000000000000000000000000000000000000000000000000000000000000000000000000000000000000000000000000000000000000000000000000000000000000000000000000000000000000000000000000000000000000000000000000000000000000000000000000000000000000000000000000000000000000000000000000000000000000000000000000000000000000000000000000000000000000000000000000000000000000000000000000000000000000000000000000000000000000000000000000000000000000000000000000000000000000000000000000000000000000000000000000008080850100000000808000a000000000000000000000000000000000000000000000000000000000000000008800000000000000000ba056e81f171bcc55a6ff8345e692c0f86e5b48e01b996cadc001622fb5e363b4218080a00000000000000000000000000000000000000000000000000000000000000000c0c0c0",
        "blocks": [
            {
                "blockHeader": {
                    "parentHash": "0x75b192b2bf0bf0580567b5cfefab102665e866cdb3c67650d327654ea193ff95",
                    "uncleHash": "0x1dcc4de8dec75d7aab85b567b6ccd41ad312451b948a7413f0a142fd40d49347",
                    "coinbase": "0x2adc25665018aa1fe0e6bc666dac8fc2697ff9ba",
                    "stateRoot": "0x665686c7f28fd58e909ac86830e759eb9d7d641d3a6715d6e0eba7a4e6c41858",
                    "transactionsTrie": "0x60b81e911e4c01c9efba222c1b7187d58a84a59a34bffb49e9d41db2bab7679c",
                    "receiptTrie": "0x9369fd55362cd2849c59c51e541706f314612f5c5e9845bfdcf2a77bb35cf342",
                    "bloom": "0x00000000000000000000000000000000000000000000000000000000000000000000000000000000000000000000000000000000000000000000000000000000000000000000000000000000000000000000000000000000000000000000000000000000000000000000000000000000000000000000000000000000000000000000000000000000000000000000000000000000000000000000000000000000000000000000000000000000000000000000000000000000000000000000000000000000000000000000000000000000000000000000000000000000000000000000000000000000000000000000000000000000000000000000000000000000",
                    "difficulty": "0x00",
                    "number": "0x01",
                    "gasLimit": "0x0100000000",
                    "gasUsed": "0xfdd0c0",
                    "timestamp": "0x03e8",
                    "extraData": "0x00",
                    "mixHash": "0x0000000000000000000000000000000000000000000000000000000000020000",
                    "nonce": "0x0000000000000000",
                    "baseFeePerGas": "0x0a",
                    "withdrawalsRoot": "0x56e81f171bcc55a6ff8345e692c0f86e5b48e01b996cadc001622fb5e363b421",
                    "blobGasUsed": "0x00",
                    "excessBlobGas": "0x00",
                    "parentBeaconBlockRoot": "0x0000000000000000000000000000000000000000000000000000000000000000",
                    "hash": "0x5064f95d988959b8bc0b844223e6c3f039a47fb41629d62c123ee0da2b239382"
                },
                "transactions": [
                    {
                        "type": "0x00",
                        "chainId": "0x01",
                        "nonce": "0x00",
                        "gasPrice": "0x0a",
                        "gasLimit": "0x01000000",
                        "to": "0xcccccccccccccccccccccccccccccccccccccccc",
                        "value": "0x00",
                        "data": "0x02",
                        "v": "0x26",
                        "r": "0x58fe13dced2e62df5a59dd9be5a32f2535fb03f9167042fd1e6dbaa32799aa03",
                        "s": "0x0180a6d87280d0b9c6fbe41328f098b85f534cddad825e5c2f9cf169d6c9e37a",
                        "sender": "0xa94f5374fce5edbc8e2a8697c15331677e6ebf0b"
                    }
                ],
                "uncleHeaders": [],
                "withdrawals": [],
                "receipts": [
                    {
                        "transactionHash": "0xd5d83f0b3f7c93c1a3fdb0922ebe24c299ade46b2097b3ec28575c94a4b72f15",
                        "type": "0x00",
                        "cumulativeGasUsed": "0xfdd0c0",
                        "bloom": "0x00000000000000000000000000000000000000000000000000000000000000000000000000000000000000000000000000000000000000000000000000000000000000000000000000000000000000000000000000000000000000000000000000000000000000000000000000000000000000000000000000000000000000000000000000000000000000000000000000000000000000000000000000000000000000000000000000000000000000000000000000000000000000000000000000000000000000000000000000000000000000000000000000000000000000000000000000000000000000000000000000000000000000000000000000000000",
                        "logs": [],
                        "status": true,
                        "rlp": "0xf901090183fdd0c0b9010000000000000000000000000000000000000000000000000000000000000000000000000000000000000000000000000000000000000000000000000000000000000000000000000000000000000000000000000000000000000000000000000000000000000000000000000000000000000000000000000000000000000000000000000000000000000000000000000000000000000000000000000000000000000000000000000000000000000000000000000000000000000000000000000000000000000000000000000000000000000000000000000000000000000000000000000000000000000000000000000000000000000000000000000000000000c0"
                    }
                ],
                "rlp": "0xf902a6f9023ca075b192b2bf0bf0580567b5cfefab102665e866cdb3c67650d327654ea193ff95a01dcc4de8dec75d7aab85b567b6ccd41ad312451b948a7413f0a142fd40d49347942adc25665018aa1fe0e6bc666dac8fc2697ff9baa0665686c7f28fd58e909ac86830e759eb9d7d641d3a6715d6e0eba7a4e6c41858a060b81e911e4c01c9efba222c1b7187d58a84a59a34bffb49e9d41db2bab7679ca09369fd55362cd2849c59c51e541706f314612f5c5e9845bfdcf2a77bb35cf342b9010000000000000000000000000000000000000000000000000000000000000000000000000000000000000000000000000000000000000000000000000000000000000000000000000000000000000000000000000000000000000000000000000000000000000000000000000000000000000000000000000000000000000000000000000000000000000000000000000000000000000000000000000000000000000000000000000000000000000000000000000000000000000000000000000000000000000000000000000000000000000000000000000000000000000000000000000000000000000000000000000000000000000000000000000000000000800185010000000083fdd0c08203e800a000000000000000000000000000000000000000000000000000000000000200008800000000000000000aa056e81f171bcc55a6ff8345e692c0f86e5b48e01b996cadc001622fb5e363b4218080a00000000000000000000000000000000000000000000000000000000000000000f863f861800a840100000094cccccccccccccccccccccccccccccccccccccccc800226a058fe13dced2e62df5a59dd9be5a32f2535fb03f9167042fd1e6dbaa32799aa03a00180a6d87280d0b9c6fbe41328f098b85f534cddad825e5c2f9cf169d6c9e37ac0c0",
                "blocknumber": "1"
            }
        ],
        "sealEngine": "NoProof",
        "_info": {
            "hash": "0x75fe20f56801348f9507decf0fc409b41d28f00823b125cc4323131e5957722d",
            "fixture-format": "blockchain_test",
            "comment": "`execution-specs` generated test",
            "filling-transition-tool": "2.19.0",
            "description": "No description available - add a docstring to the python test class or function.",
            "url": "",
            "opcode_count": {}
        }
    }
}