{
    "tests/static/state_tests/stCreateTest/CreateOOGafterInitCodeRevert2Filler.json::CreateOOGafterInitCodeRevert2[fork_Cancun-blockchain_test_from_state_test-d0]": {
        "network": "Cancun",
        "genesisBlockHeader": {
            "parentHash": "0x0000000000000000000000000000000000000000000000000000000000000000",
            "uncleHash": "0x1dcc4de8dec75d7aab85b567b6ccd41ad312451b948a7413f0a142fd40d49347",
            "coinbase": "0x0000000000000000000000000000000000000000",
            "stateRoot": "0xa0e95f167a4d391c80fd694906ac1b1788ecd9fe21021e59e3fab12bf84ccbef",
            "transactionsTrie": "0x56e81f171bcc55a6ff8345e692c0f86e5b48e01b996cadc001622fb5e363b421",
            "receiptTrie": "0x56e81f171bcc55a6ff8345e692c0f86e5b48e01b996cadc001622fb5e363b421",
            "bloom": "0x00000000000000000000000000000000000000000000000000000000000000000000000000000000000000000000000000000000000000000000000000000000000000000000000000000000000000000000000000000000000000000000000000000000000000000000000000000000000000000000000000000000000000000000000000000000000000000000000000000000000000000000000000000000000000000000000000000000000000000000000000000000000000000000000000000000000000000000000000000000000000000000000000000000000000000000000000000000000000000000000000000000000000000000000000000000",
            "difficulty": "0x00",
            "number": "0x00",
            "gasLimit": "0x989680",
            "gasUsed": "0x00",
            "timestamp": "0x00",
            "extraData": "0x00",
            "mixHash": "0x0000000000000000000000000000000000000000000000000000000000000000",
            "nonce": "0x0000000000000000",
            "baseFeePerGas": "0x0b",
            "withdrawalsRoot": "0x56e81f171bcc55a6ff8345e692c0f86e5b48e01b996cadc001622fb5e363b421",
            "blobGasUsed": "0x00",
            "excessBlobGas": "0x00",
            "parentBeaconBlockRoot": "0x0000000000000000000000000000000000000000000000000000000000000000",
            "hash": "0x9bbe0666c1caa8d01568c224b879353ff4fca750be523cb75c58d8f2ae496e03"
        },
        "pre": {
            "0x000f3df6d732807ef1319fb7b8bb8522d0beac02": {
                "nonce": "0x01",
                "balance": "0x00",
                "code": "0x3373fffffffffffffffffffffffffffffffffffffffe14604d57602036146024575f5ffd5b5f35801560495762001fff810690815414603c575f5ffd5b62001fff01545f5260205ff35b5f5ffd5b62001fff42064281555f359062001fff015500",
                "storage": {}
            },
            "0xa94f5374fce5edbc8e2a8697c15331677e6ebf0b": {
                "nonce": "0x00",
                "balance": "0xe8d4a51000",
                "code": "0x",
                "storage": {}
            },
            "0x1000000000000000000000000000000000000000": {
                "nonce": "0x00",
                "balance": "0xe8d4a51000",
                "code": "0x600060006000600060006000355af100",
                "storage": {}
            },
            "0xc94f5374fce5edbc8e2a8697c15331677e6ebf0b": {
                "nonce": "0x00",
                "balance": "0x00",
                "code": "0x6020600060006000600073b94f5374fce5edbc8e2a8697c15331677e6ebf0b6180e8f15060005160015500",
                "storage": {
                    "0x01": "0xff"
                }
            },
            "0xd94f5374fce5edbc8e2a8697c15331677e6ebf0b": {
                "nonce": "0x00",
                "balance": "0x00",
                "code": "0x6020600060006000600073b94f5374fce5edbc8e2a8697c15331677e6ebf0b6159d8f15060005160015500",
                "storage": {
                    "0x01": "0xff"
                }
            },
            "0xb94f5374fce5edbc8e2a8697c15331677e6ebf0b": {
                "nonce": "0x00",
                "balance": "0x00",
                "code": "0x6d6460016001556000526005601bf3600052600e60126000f05060206000fd00",
                "storage": {}
            }
        },
        "postState": {
            "0x000f3df6d732807ef1319fb7b8bb8522d0beac02": {
                "nonce": "0x01",
                "balance": "0x00",
                "code": "0x3373fffffffffffffffffffffffffffffffffffffffe14604d57602036146024575f5ffd5b5f35801560495762001fff810690815414603c575f5ffd5b62001fff01545f5260205ff35b5f5ffd5b62001fff42064281555f359062001fff015500",
                "storage": {
                    "0x03e8": "0x03e8"
                }
            },
            "0xa94f5374fce5edbc8e2a8697c15331677e6ebf0b": {
                "nonce": "0x01",
                "balance": "0xe8d49b33d2",
                "code": "0x",
                "storage": {}
            },
            "0x1000000000000000000000000000000000000000": {
                "nonce": "0x00",
                "balance": "0xe8d4a51000",
                "code": "0x600060006000600060006000355af100",
                "storage": {}
            },
            "0xc94f5374fce5edbc8e2a8697c15331677e6ebf0b": {
                "nonce": "0x00",
                "balance": "0x00",
                "code": "0x6020600060006000600073b94f5374fce5edbc8e2a8697c15331677e6ebf0b6180e8f15060005160015500",
                "storage": {
                    "0x01": "0x6460016001556000526005601bf3"
                }
            },
            "0xd94f5374fce5edbc8e2a8697c15331677e6ebf0b": {
                "nonce": "0x00",
                "balance": "0x00",
                "code": "0x6020600060006000600073b94f5374fce5edbc8e2a8697c15331677e6ebf0b6159d8f15060005160015500",
                "storage": {
                    "0x01": "0xff"
                }
            },
            "0xb94f5374fce5edbc8e2a8697c15331677e6ebf0b": {
                "nonce": "0x00",
                "balance": "0x00",
                "code": "0x6d6460016001556000526005601bf3600052600e60126000f05060206000fd00",
                "storage": {}
            }
        },
        "lastblockhash": "0x0ab2051806200e7ec29aad746101b10c303e24918f1e7d75884fdac91ea9d74e",
        "config": {
            "network": "Cancun",
            "chainid": "0x01",
            "blobSchedule": {
                "Cancun": {
                    "target": "0x03",
                    "max": "0x06",
                    "baseFeeUpdateFraction": "0x32f0ed"
                }
            }
        },
        "genesisRLP": "0xf9023bf90235a00000000000000000000000000000000000000000000000000000000000000000a01dcc4de8dec75d7aab85b567b6ccd41ad312451b948a7413f0a142fd40d49347940000000000000000000000000000000000000000a0a0e95f167a4d391c80fd694906ac1b1788ecd9fe21021e59e3fab12bf84ccbefa056e81f171bcc55a6ff8345e692c0f86e5b48e01b996cadc001622fb5e363b421a056e81f171bcc55a6ff8345e692c0f86e5b48e01b996cadc001622fb5e363b421b9010000000000000000000000000000000000000000000000000000000000000000000000000000000000000000000000000000000000000000000000000000000000000000000000000000000000000000000000000000000000000000000000000000000000000000000000000000000000000000000000000000000000000000000000000000000000000000000000000000000000000000000000000000000000000000000000000000000000000000000000000000000000000000000000000000000000000000000000000000000000000000000000000000000000000000000000000000000000000000000000000000000000000000000000000000000000808083989680808000a000000000000000000000000000000000000000000000000000000000000000008800000000000000000ba056e81f171bcc55a6ff8345e692c0f86e5b48e01b996cadc001622fb5e363b4218080a00000000000000000000000000000000000000000000000000000000000000000c0c0c0",
        "blocks": [
            {
                "blockHeader": {
                    "parentHash": "0x9bbe0666c1caa8d01568c224b879353ff4fca750be523cb75c58d8f2ae496e03",
                    "uncleHash": "0x1dcc4de8dec75d7aab85b567b6ccd41ad312451b948a7413f0a142fd40d49347",
                    "coinbase": "0x2adc25665018aa1fe0e6bc666dac8fc2697ff9ba",
                    "stateRoot": "0x39588aa2e002eca3b0a9bd5b17854c9c04ed0de2f8379f5aa9815c4c4dbaa9ba",
                    "transactionsTrie": "0x4438cf2a5846bd2a571c8de6283913706fe0cdacb963af371a3a22094ed71a12",
                    "receiptTrie": "0x5cea9ad5776f17623244a1b20f82d68f75ac47b639aad829280c0e362a524100",
                    "bloom": "0x00000000000000000000000000000000000000000000000000000000000000000000000000000000000000000000000000000000000000000000000000000000000000000000000000000000000000000000000000000000000000000000000000000000000000000000000000000000000000000000000000000000000000000000000000000000000000000000000000000000000000000000000000000000000000000000000000000000000000000000000000000000000000000000000000000000000000000000000000000000000000000000000000000000000000000000000000000000000000000000000000000000000000000000000000000000",
                    "difficulty": "0x00",
                    "number": "0x01",
                    "gasLimit": "0x989680",
                    "gasUsed": "0xfc6b",
                    "timestamp": "0x03e8",
                    "extraData": "0x00",
                    "mixHash": "0x0000000000000000000000000000000000000000000000000000000000020000",
                    "nonce": "0x0000000000000000",
                    "baseFeePerGas": "0x0a",
                    "withdrawalsRoot": "0x56e81f171bcc55a6ff8345e692c0f86e5b48e01b996cadc001622fb5e363b421",
                    "blobGasUsed": "0x00",
                    "excessBlobGas": "0x00",
                    "parentBeaconBlockRoot": "0x0000000000000000000000000000000000000000000000000000000000000000",
                    "hash": "0x0ab2051806200e7ec29aad746101b10c303e24918f1e7d75884fdac91ea9d74e"
                },
                "transactions": [
                    {
                        "type": "0x00",
                        "chainId": "0x01",
                        "nonce": "0x00",
                        "gasPrice": "0x0a",
                        "gasLimit": "0x02ab98",
                        "to": "0x1000000000000000000000000000000000000000",
                        "value": "0x00",
                        "data": "0x000000000000000000000000c94f5374fce5edbc8e2a8697c15331677e6ebf0b",
                        "v": "0x26",
                        "r": "0x135ace354706df720f21dc50d0f8705c9c8ea45fa25262e159d3a77f8ddad375",
                        "s": "0x5237a2410a3c33b9e66e9d5aaf6fc63624d29023d9b5b192d05f49510f27d767",
                        "sender": "0xa94f5374fce5edbc8e2a8697c15331677e6ebf0b"
                    }
                ],
                "uncleHeaders": [],
                "withdrawals": [],
                "receipts": [
                    {
                        "transactionHash": "0x6006abe8bafa4774a0fb10d98289863ea849495b6b745674d1e4a5f718bed747",
                        "type": "0x00",
                        "cumulativeGasUsed": "0xfc6b",
                        "bloom": "0x00000000000000000000000000000000000000000000000000000000000000000000000000000000000000000000000000000000000000000000000000000000000000000000000000000000000000000000000000000000000000000000000000000000000000000000000000000000000000000000000000000000000000000000000000000000000000000000000000000000000000000000000000000000000000000000000000000000000000000000000000000000000000000000000000000000000000000000000000000000000000000000000000000000000000000000000000000000000000000000000000000000000000000000000000000000",
                        "logs": [],
                        "status": true,
                        "rlp": "0xf901080182fc6bb9010000000000000000000000000000000000000000000000000000000000000000000000000000000000000000000000000000000000000000000000000000000000000000000000000000000000000000000000000000000000000000000000000000000000000000000000000000000000000000000000000000000000000000000000000000000000000000000000000000000000000000000000000000000000000000000000000000000000000000000000000000000000000000000000000000000000000000000000000000000000000000000000000000000000000000000000000000000000000000000000000000000000000000000000000000000000c0"
                    }
                ],
                "rlp": "0xf902c2f90239a09bbe0666c1caa8d01568c224b879353ff4fca750be523cb75c58d8f2ae496e03a01dcc4de8dec75d7aab85b567b6ccd41ad312451b948a7413f0a142fd40d49347942adc25665018aa1fe0e6bc666dac8fc2697ff9baa039588aa2e002eca3b0a9bd5b17854c9c04ed0de2f8379f5aa9815c4c4dbaa9baa04438cf2a5846bd2a571c8de6283913706fe0cdacb963af371a3a22094ed71a12a05cea9ad5776f17623244a1b20f82d68f75ac47b639aad829280c0e362a524100b901000000000000000000000000000000000000000000000000000000000000000000000000000000000000000000000000000000000000000000000000000000000000000000000000000000000000000000000000000000000000000000000000000000000000000000000000000000000000000000000000000000000000000000000000000000000000000000000000000000000000000000000000000000000000000000000000000000000000000000000000000000000000000000000000000000000000000000000000000000000000000000000000000000000000000000000000000000000000000000000000000000000000000000000000000000000080018398968082fc6b8203e800a000000000000000000000000000000000000000000000000000000000000200008800000000000000000aa056e81f171bcc55a6ff8345e692c0f86e5b48e01b996cadc001622fb5e363b4218080a00000000000000000000000000000000000000000000000000000000000000000f882f880800a8302ab9894100000000000000000000000000000000000000080a0000000000000000000000000c94f5374fce5edbc8e2a8697c15331677e6ebf0b26a0135ace354706df720f21dc50d0f8705c9c8ea45fa25262e159d3a77f8ddad375a05237a2410a3c33b9e66e9d5aaf6fc63624d29023d9b5b192d05f49510f27d767c0c0",
                "blocknumber": "1"
            }
        ],
        "sealEngine": "NoProof",
        "_info": {
            "hash": "0xb0923ab4518aa310d96592d7a8c50c1e6a5ac6ccca250981ab5043750cd3963c",
            "fixture-format": "blockchain_test",
            "comment": "`execution-specs` generated test",
            "filling-transition-tool": "2.19.0",
            "description": "No description available - add a docstring to the python test class or function.",
            "url": "",
            "opcode_count": {}
        }
    },
    "tests/static/state_tests/stCreateTest/CreateOOGafterInitCodeRevert2Filler.json::CreateOOGafterInitCodeRevert2[fork_Cancun-blockchain_test_from_state_test-d1]": {
        "network": "Cancun",
        "genesisBlockHeader": {
            "parentHash": "0x0000000000000000000000000000000000000000000000000000000000000000",
            "uncleHash": "0x1dcc4de8dec75d7aab85b567b6ccd41ad312451b948a7413f0a142fd40d49347",
            "coinbase": "0x0000000000000000000000000000000000000000",
            "stateRoot": "0xa0e95f167a4d391c80fd694906ac1b1788ecd9fe21021e59e3fab12bf84ccbef",
            "transactionsTrie": "0x56e81f171bcc55a6ff8345e692c0f86e5b48e01b996cadc001622fb5e363b421",
            "receiptTrie": "0x56e81f171bcc55a6ff8345e692c0f86e5b48e01b996cadc001622fb5e363b421",
            "bloom": "0x00000000000000000000000000000000000000000000000000000000000000000000000000000000000000000000000000000000000000000000000000000000000000000000000000000000000000000000000000000000000000000000000000000000000000000000000000000000000000000000000000000000000000000000000000000000000000000000000000000000000000000000000000000000000000000000000000000000000000000000000000000000000000000000000000000000000000000000000000000000000000000000000000000000000000000000000000000000000000000000000000000000000000000000000000000000",
            "difficulty": "0x00",
            "number": "0x00",
            "gasLimit": "0x989680",
            "gasUsed": "0x00",
            "timestamp": "0x00",
            "extraData": "0x00",
            "mixHash": "0x0000000000000000000000000000000000000000000000000000000000000000",
            "nonce": "0x0000000000000000",
            "baseFeePerGas": "0x0b",
            "withdrawalsRoot": "0x56e81f171bcc55a6ff8345e692c0f86e5b48e01b996cadc001622fb5e363b421",
            "blobGasUsed": "0x00",
            "excessBlobGas": "0x00",
            "parentBeaconBlockRoot": "0x0000000000000000000000000000000000000000000000000000000000000000",
            "hash": "0x9bbe0666c1caa8d01568c224b879353ff4fca750be523cb75c58d8f2ae496e03"
        },
        "pre": {
            "0x000f3df6d732807ef1319fb7b8bb8522d0beac02": {
                "nonce": "0x01",
                "balance": "0x00",
                "code": "0x3373fffffffffffffffffffffffffffffffffffffffe14604d57602036146024575f5ffd5b5f35801560495762001fff810690815414603c575f5ffd5b62001fff01545f5260205ff35b5f5ffd5b62001fff42064281555f359062001fff015500",
                "storage": {}
            },
            "0xa94f5374fce5edbc8e2a8697c15331677e6ebf0b": {
                "nonce": "0x00",
                "balance": "0xe8d4a51000",
                "code": "0x",
                "storage": {}
            },
            "0x1000000000000000000000000000000000000000": {
                "nonce": "0x00",
                "balance": "0xe8d4a51000",
                "code": "0x600060006000600060006000355af100",
                "storage": {}
            },
            "0xc94f5374fce5edbc8e2a8697c15331677e6ebf0b": {
                "nonce": "0x00",
                "balance": "0x00",
                "code": "0x6020600060006000600073b94f5374fce5edbc8e2a8697c15331677e6ebf0b6180e8f15060005160015500",
                "storage": {
                    "0x01": "0xff"
                }
            },
            "0xd94f5374fce5edbc8e2a8697c15331677e6ebf0b": {
                "nonce": "0x00",
                "balance": "0x00",
                "code": "0x6020600060006000600073b94f5374fce5edbc8e2a8697c15331677e6ebf0b6159d8f15060005160015500",
                "storage": {
                    "0x01": "0xff"
                }
            },
            "0xb94f5374fce5edbc8e2a8697c15331677e6ebf0b": {
                "nonce": "0x00",
                "balance": "0x00",
                "code": "0x6d6460016001556000526005601bf3600052600e60126000f05060206000fd00",
                "storage": {}
            }
        },
        "postState": {
            "0x000f3df6d732807ef1319fb7b8bb8522d0beac02": {
                "nonce": "0x01",
                "balance": "0x00",
                "code": "0x3373fffffffffffffffffffffffffffffffffffffffe14604d57602036146024575f5ffd5b5f35801560495762001fff810690815414603c575f5ffd5b62001fff01545f5260205ff35b5f5ffd5b62001fff42064281555f359062001fff015500",
                "storage": {
                    "0x03e8": "0x03e8"
                }
            },
            "0xa94f5374fce5edbc8e2a8697c15331677e6ebf0b": {
                "nonce": "0x01",
                "balance": "0xe8d49d75ac",
                "code": "0x",
                "storage": {}
            },
            "0x1000000000000000000000000000000000000000": {
                "nonce": "0x00",
                "balance": "0xe8d4a51000",
                "code": "0x600060006000600060006000355af100",
                "storage": {}
            },
            "0xc94f5374fce5edbc8e2a8697c15331677e6ebf0b": {
                "nonce": "0x00",
                "balance": "0x00",
                "code": "0x6020600060006000600073b94f5374fce5edbc8e2a8697c15331677e6ebf0b6180e8f15060005160015500",
                "storage": {
                    "0x01": "0xff"
                }
            },
            "0xd94f5374fce5edbc8e2a8697c15331677e6ebf0b": {
                "nonce": "0x00",
                "balance": "0x00",
                "code": "0x6020600060006000600073b94f5374fce5edbc8e2a8697c15331677e6ebf0b6159d8f15060005160015500",
                "storage": {}
            },
            "0xb94f5374fce5edbc8e2a8697c15331677e6ebf0b": {
                "nonce": "0x00",
                "balance": "0x00",
                "code": "0x6d6460016001556000526005601bf3600052600e60126000f05060206000fd00",
                "storage": {}
            }
        },
        "lastblockhash": "0x0647fac3305cba448bd4cdbbdfbc9c897bcead6754ca7e0980c97f3baacfb6ec",
        "config": {
            "network": "Cancun",
            "chainid": "0x01",
            "blobSchedule": {
                "Cancun": {
                    "target": "0x03",
                    "max": "0x06",
                    "baseFeeUpdateFraction": "0x32f0ed"
                }
            }
        },
        "genesisRLP": "0xf9023bf90235a00000000000000000000000000000000000000000000000000000000000000000a01dcc4de8dec75d7aab85b567b6ccd41ad312451b948a7413f0a142fd40d49347940000000000000000000000000000000000000000a0a0e95f167a4d391c80fd694906ac1b1788ecd9fe21021e59e3fab12bf84ccbefa056e81f171bcc55a6ff8345e692c0f86e5b48e01b996cadc001622fb5e363b421a056e81f171bcc55a6ff8345e692c0f86e5b48e01b996cadc001622fb5e363b421b9010000000000000000000000000000000000000000000000000000000000000000000000000000000000000000000000000000000000000000000000000000000000000000000000000000000000000000000000000000000000000000000000000000000000000000000000000000000000000000000000000000000000000000000000000000000000000000000000000000000000000000000000000000000000000000000000000000000000000000000000000000000000000000000000000000000000000000000000000000000000000000000000000000000000000000000000000000000000000000000000000000000000000000000000000000000000808083989680808000a000000000000000000000000000000000000000000000000000000000000000008800000000000000000ba056e81f171bcc55a6ff8345e692c0f86e5b48e01b996cadc001622fb5e363b4218080a00000000000000000000000000000000000000000000000000000000000000000c0c0c0",
        "blocks": [
            {
                "blockHeader": {
                    "parentHash": "0x9bbe0666c1caa8d01568c224b879353ff4fca750be523cb75c58d8f2ae496e03",
                    "uncleHash": "0x1dcc4de8dec75d7aab85b567b6ccd41ad312451b948a7413f0a142fd40d49347",
                    "coinbase": "0x2adc25665018aa1fe0e6bc666dac8fc2697ff9ba",
                    "stateRoot": "0xafb5cf6173d701d2f7312a9a55f17d79146eda4e9e7497ac57a0c4d54ddd9891",
                    "transactionsTrie": "0x40a22c3252d6fd8c45de895ce5957b227408935b9f32088c18093933b6290d17",
                    "receiptTrie": "0xb071688f63a40c2ea4994d901f684ad96a4ff9d773a5b29219220fe4fdc1da39",
                    "bloom": "0x00000000000000000000000000000000000000000000000000000000000000000000000000000000000000000000000000000000000000000000000000000000000000000000000000000000000000000000000000000000000000000000000000000000000000000000000000000000000000000000000000000000000000000000000000000000000000000000000000000000000000000000000000000000000000000000000000000000000000000000000000000000000000000000000000000000000000000000000000000000000000000000000000000000000000000000000000000000000000000000000000000000000000000000000000000000",
                    "difficulty": "0x00",
                    "number": "0x01",
                    "gasLimit": "0x989680",
                    "gasUsed": "0xc2a2",
                    "timestamp": "0x03e8",
                    "extraData": "0x00",
                    "mixHash": "0x0000000000000000000000000000000000000000000000000000000000020000",
                    "nonce": "0x0000000000000000",
                    "baseFeePerGas": "0x0a",
                    "withdrawalsRoot": "0x56e81f171bcc55a6ff8345e692c0f86e5b48e01b996cadc001622fb5e363b421",
                    "blobGasUsed": "0x00",
                    "excessBlobGas": "0x00",
                    "parentBeaconBlockRoot": "0x0000000000000000000000000000000000000000000000000000000000000000",
                    "hash": "0x0647fac3305cba448bd4cdbbdfbc9c897bcead6754ca7e0980c97f3baacfb6ec"
                },
                "transactions": [
                    {
                        "type": "0x00",
                        "chainId": "0x01",
                        "nonce": "0x00",
                        "gasPrice": "0x0a",
                        "gasLimit": "0x02ab98",
                        "to": "0x1000000000000000000000000000000000000000",
                        "value": "0x00",
                        "data": "0x000000000000000000000000d94f5374fce5edbc8e2a8697c15331677e6ebf0b",
                        "v": "0x26",
                        "r": "0x6b380ca2ca4e21e78386c8f0c42028907116049d72524f4105529d6b4414eb86",
                        "s": "0x5ae0b45909ca9ae998b06e79feff5b407472534149bf46b37ff564704227859b",
                        "sender": "0xa94f5374fce5edbc8e2a8697c15331677e6ebf0b"
                    }
                ],
                "uncleHeaders": [],
                "withdrawals": [],
                "receipts": [
                    {
                        "transactionHash": "0xfdd9b92cb8d0a7ca36f8fc1c1d700b5ae24aeae149b80ca8fccec7cc047735f6",
                        "type": "0x00",
                        "cumulativeGasUsed": "0xc2a2",
                        "bloom": "0x00000000000000000000000000000000000000000000000000000000000000000000000000000000000000000000000000000000000000000000000000000000000000000000000000000000000000000000000000000000000000000000000000000000000000000000000000000000000000000000000000000000000000000000000000000000000000000000000000000000000000000000000000000000000000000000000000000000000000000000000000000000000000000000000000000000000000000000000000000000000000000000000000000000000000000000000000000000000000000000000000000000000000000000000000000000",
                        "logs": [],
                        "status": true,
                        "rlp": "0xf901080182c2a2b9010000000000000000000000000000000000000000000000000000000000000000000000000000000000000000000000000000000000000000000000000000000000000000000000000000000000000000000000000000000000000000000000000000000000000000000000000000000000000000000000000000000000000000000000000000000000000000000000000000000000000000000000000000000000000000000000000000000000000000000000000000000000000000000000000000000000000000000000000000000000000000000000000000000000000000000000000000000000000000000000000000000000000000000000000000000000c0"
                    }
                ],
                "rlp": "0xf902c2f90239a09bbe0666c1caa8d01568c224b879353ff4fca750be523cb75c58d8f2ae496e03a01dcc4de8dec75d7aab85b567b6ccd41ad312451b948a7413f0a142fd40d49347942adc25665018aa1fe0e6bc666dac8fc2697ff9baa0afb5cf6173d701d2f7312a9a55f17d79146eda4e9e7497ac57a0c4d54ddd9891a040a22c3252d6fd8c45de895ce5957b227408935b9f32088c18093933b6290d17a0b071688f63a40c2ea4994d901f684ad96a4ff9d773a5b29219220fe4fdc1da39b901000000000000000000000000000000000000000000000000000000000000000000000000000000000000000000000000000000000000000000000000000000000000000000000000000000000000000000000000000000000000000000000000000000000000000000000000000000000000000000000000000000000000000000000000000000000000000000000000000000000000000000000000000000000000000000000000000000000000000000000000000000000000000000000000000000000000000000000000000000000000000000000000000000000000000000000000000000000000000000000000000000000000000000000000000000000080018398968082c2a28203e800a000000000000000000000000000000000000000000000000000000000000200008800000000000000000aa056e81f171bcc55a6ff8345e692c0f86e5b48e01b996cadc001622fb5e363b4218080a00000000000000000000000000000000000000000000000000000000000000000f882f880800a8302ab9894100000000000000000000000000000000000000080a0000000000000000000000000d94f5374fce5edbc8e2a8697c15331677e6ebf0b26a06b380ca2ca4e21e78386c8f0c42028907116049d72524f4105529d6b4414eb86a05ae0b45909ca9ae998b06e79feff5b407472534149bf46b37ff564704227859bc0c0",
                "blocknumber": "1"
            }
        ],
        "sealEngine": "NoProof",
        "_info": {
            "hash": "0x67d5d2884b11d7ba99ee3b502d057f6acd5145a83bf171b50ca760086ec0e448",
            "fixture-format": "blockchain_test",
            "comment": "`execution-specs` generated test",
            "filling-transition-tool": "2.19.0",
            "description": "No description available - add a docstring to the python test class or function.",
            "url": "",
            "opcode_count": {}
        }
    }
}