{
    "tests/shanghai/eip4895_withdrawals/test_withdrawals.py::test_no_evm_execution[fork_Cancun-blockchain_test]": {
        "network": "Cancun",
        "genesisBlockHeader": {
            "parentHash": "0x0000000000000000000000000000000000000000000000000000000000000000",
            "uncleHash": "0x1dcc4de8dec75d7aab85b567b6ccd41ad312451b948a7413f0a142fd40d49347",
            "coinbase": "0x0000000000000000000000000000000000000000",
            "stateRoot": "0x8dfc27af32fb9c8e6fc37ea04cb78bcd8dffec1b0c0dc1054c3cf8f1e37e9262",
            "transactionsTrie": "0x56e81f171bcc55a6ff8345e692c0f86e5b48e01b996cadc001622fb5e363b421",
            "receiptTrie": "0x56e81f171bcc55a6ff8345e692c0f86e5b48e01b996cadc001622fb5e363b421",
            "bloom": "0x00000000000000000000000000000000000000000000000000000000000000000000000000000000000000000000000000000000000000000000000000000000000000000000000000000000000000000000000000000000000000000000000000000000000000000000000000000000000000000000000000000000000000000000000000000000000000000000000000000000000000000000000000000000000000000000000000000000000000000000000000000000000000000000000000000000000000000000000000000000000000000000000000000000000000000000000000000000000000000000000000000000000000000000000000000000",
            "difficulty": "0x00",
            "number": "0x00",
            "gasLimit": "0x07270e00",
            "gasUsed": "0x00",
            "timestamp": "0x00",
            "extraData": "0x00",
            "mixHash": "0x0000000000000000000000000000000000000000000000000000000000000000",
            "nonce": "0x0000000000000000",
            "baseFeePerGas": "0x07",
            "withdrawalsRoot": "0x56e81f171bcc55a6ff8345e692c0f86e5b48e01b996cadc001622fb5e363b421",
            "blobGasUsed": "0x00",
            "excessBlobGas": "0x00",
            "parentBeaconBlockRoot": "0x0000000000000000000000000000000000000000000000000000000000000000",
            "hash": "0xc1f028f6d3c185287a3ed39f1a358c9d76cc3e187adbed4791bb86aa8c4295f4"
        },
        "pre": {
            "0x000f3df6d732807ef1319fb7b8bb8522d0beac02": {
                "nonce": "0x01",
                "balance": "0x00",
                "code": "0x3373fffffffffffffffffffffffffffffffffffffffe14604d57602036146024575f5ffd5b5f35801560495762001fff810690815414603c575f5ffd5b62001fff01545f5260205ff35b5f5ffd5b62001fff42064281555f359062001fff015500",
                "storage": {}
            },
            "0x1ad9bc24818784172ff393bb6f89f094d4d2ca29": {
                "nonce": "0x00",
                "balance": "0x3635c9adc5dea00000",
                "code": "0x",
                "storage": {}
            },
            "0x184d2b2b043d739e2e91ce76c37e2fb13efd1279": {
                "nonce": "0x01",
                "balance": "0x00",
                "code": "0x60014355",
                "storage": {}
            },
            "0x8c97affab8bbb879265e49c1b6e306a02fda6e95": {
                "nonce": "0x01",
                "balance": "0x00",
                "code": "0x60014355",
                "storage": {}
            },
            "0x5edfa9041082339ab8cb630aa22c70992f04ba9d": {
                "nonce": "0x01",
                "balance": "0x00",
                "code": "0x60014355",
                "storage": {}
            },
            "0xe3fcdf72ad630f8d79d0565944556ffdb45b4fca": {
                "nonce": "0x01",
                "balance": "0x00",
                "code": "0x60014355",
                "storage": {}
            }
        },
        "postState": {
            "0x000f3df6d732807ef1319fb7b8bb8522d0beac02": {
                "nonce": "0x01",
                "balance": "0x00",
                "code": "0x3373fffffffffffffffffffffffffffffffffffffffe14604d57602036146024575f5ffd5b5f35801560495762001fff810690815414603c575f5ffd5b62001fff01545f5260205ff35b5f5ffd5b62001fff42064281555f359062001fff015500",
                "storage": {
                    "0x0c": "0x0c",
                    "0x18": "0x18"
                }
            },
            "0x1ad9bc24818784172ff393bb6f89f094d4d2ca29": {
                "nonce": "0x04",
                "balance": "0x3635c9adc5de85b0d8",
                "code": "0x",
                "storage": {}
            },
            "0x184d2b2b043d739e2e91ce76c37e2fb13efd1279": {
                "nonce": "0x01",
                "balance": "0x3b9aca00",
                "code": "0x60014355",
                "storage": {
                    "0x02": "0x01"
                }
            },
            "0x8c97affab8bbb879265e49c1b6e306a02fda6e95": {
                "nonce": "0x01",
                "balance": "0x3b9aca00",
                "code": "0x60014355",
                "storage": {
                    "0x02": "0x01"
                }
            },
            "0x5edfa9041082339ab8cb630aa22c70992f04ba9d": {
                "nonce": "0x01",
                "balance": "0x3b9aca00",
                "code": "0x60014355",
                "storage": {
                    "0x01": "0x01"
                }
            },
            "0xe3fcdf72ad630f8d79d0565944556ffdb45b4fca": {
                "nonce": "0x01",
                "balance": "0x3b9aca00",
                "code": "0x60014355",
                "storage": {
                    "0x01": "0x01"
                }
            },
            "0x2adc25665018aa1fe0e6bc666dac8fc2697ff9ba": {
                "nonce": "0x00",
                "balance": "0x07e48c",
                "code": "0x",
                "storage": {}
            }
        },
        "lastblockhash": "0x3082a5d2a30f8eadce4dccc5a4eca4bcb77d0b5fc7003b22acca6f35e6a095a7",
        "config": {
            "network": "Cancun",
            "chainid": "0x01",
            "blobSchedule": {
                "Cancun": {
                    "target": "0x03",
                    "max": "0x06",
                    "baseFeeUpdateFraction": "0x32f0ed"
                }
            }
        },
        "genesisRLP": "0xf9023cf90236a00000000000000000000000000000000000000000000000000000000000000000a01dcc4de8dec75d7aab85b567b6ccd41ad312451b948a7413f0a142fd40d49347940000000000000000000000000000000000000000a08dfc27af32fb9c8e6fc37ea04cb78bcd8dffec1b0c0dc1054c3cf8f1e37e9262a056e81f171bcc55a6ff8345e692c0f86e5b48e01b996cadc001622fb5e363b421a056e81f171bcc55a6ff8345e692c0f86e5b48e01b996cadc001622fb5e363b421b901000000000000000000000000000000000000000000000000000000000000000000000000000000000000000000000000000000000000000000000000000000000000000000000000000000000000000000000000000000000000000000000000000000000000000000000000000000000000000000000000000000000000000000000000000000000000000000000000000000000000000000000000000000000000000000000000000000000000000000000000000000000000000000000000000000000000000000000000000000000000000000000000000000000000000000000000000000000000000000000000000000000000000000000000000000000080808407270e00808000a0000000000000000000000000000000000000000000000000000000000000000088000000000000000007a056e81f171bcc55a6ff8345e692c0f86e5b48e01b996cadc001622fb5e363b4218080a00000000000000000000000000000000000000000000000000000000000000000c0c0c0",
        "blocks": [
            {
                "blockHeader": {
                    "parentHash": "0xc1f028f6d3c185287a3ed39f1a358c9d76cc3e187adbed4791bb86aa8c4295f4",
                    "uncleHash": "0x1dcc4de8dec75d7aab85b567b6ccd41ad312451b948a7413f0a142fd40d49347",
                    "coinbase": "0x2adc25665018aa1fe0e6bc666dac8fc2697ff9ba",
                    "stateRoot": "0xd7cf03c5b9d62feee316f4234135758018cf2604840ff846948ffd074e2cc1d0",
                    "transactionsTrie": "0x8eef3a2c7258ccbf90f822f6d38ae9910d1538d34123aa66147fbf8e30038f21",
                    "receiptTrie": "0x565dbae32920fdc51f307a7eae972eed4f68bf2fa895f24169f0623ef1b6d66c",
                    "bloom": "0x00000000000000000000000000000000000000000000000000000000000000000000000000000000000000000000000000000000000000000000000000000000000000000000000000000000000000000000000000000000000000000000000000000000000000000000000000000000000000000000000000000000000000000000000000000000000000000000000000000000000000000000000000000000000000000000000000000000000000000000000000000000000000000000000000000000000000000000000000000000000000000000000000000000000000000000000000000000000000000000000000000000000000000000000000000000",
                    "difficulty": "0x00",
                    "number": "0x01",
                    "gasLimit": "0x07270e00",
                    "gasUsed": "0x0150c2",
                    "timestamp": "0x0c",
                    "extraData": "0x",
                    "mixHash": "0x0000000000000000000000000000000000000000000000000000000000000000",
                    "nonce": "0x0000000000000000",
                    "baseFeePerGas": "0x07",
                    "withdrawalsRoot": "0xb5e20a3db706e11bd893ac6a10beebbf2cdebad3afe4d1fbe0dccecf485080b9",
                    "blobGasUsed": "0x00",
                    "excessBlobGas": "0x00",
                    "parentBeaconBlockRoot": "0x0000000000000000000000000000000000000000000000000000000000000000",
                    "hash": "0x840652aa08fb5db459b505b29a89fce473093b5188e38037ff4d69c21cb3e707"
                },
                "transactions": [
                    {
                        "type": "0x00",
                        "chainId": "0x01",
                        "nonce": "0x00",
                        "gasPrice": "0x0a",
                        "gasLimit": "0x0186a0",
                        "to": "0x5edfa9041082339ab8cb630aa22c70992f04ba9d",
                        "value": "0x00",
                        "data": "0x",
                        "v": "0x25",
                        "r": "0xbf1bbfab4a7d78ff3abf50b2676dd713e6270b7ea55a22ff39bc086be18e8e50",
                        "s": "0x2a19c333ca6b98205bf96ee7e44f1de9053f203b14e4ed2c2f10016621309f6d",
                        "sender": "0x1ad9bc24818784172ff393bb6f89f094d4d2ca29"
                    },
                    {
                        "type": "0x00",
                        "chainId": "0x01",
                        "nonce": "0x01",
                        "gasPrice": "0x0a",
                        "gasLimit": "0x0186a0",
                        "to": "0xe3fcdf72ad630f8d79d0565944556ffdb45b4fca",
                        "value": "0x00",
                        "data": "0x",
                        "v": "0x25",
                        "r": "0xa7972c25e71757bf88d1e8a69d51138f7113c024364c72a2ac97b087dfba1d64",
                        "s": "0x611d84b6d742cce03fae1af40238487e2196f38c5a1e971d189c4d7c3ae38675",
                        "sender": "0x1ad9bc24818784172ff393bb6f89f094d4d2ca29"
                    }
                ],
                "uncleHeaders": [],
                "withdrawals": [
                    {
                        "index": "0x00",
                        "validatorIndex": "0x00",
                        "address": "0x184d2b2b043d739e2e91ce76c37e2fb13efd1279",
                        "amount": "0x01"
                    },
                    {
                        "index": "0x01",
                        "validatorIndex": "0x01",
                        "address": "0x8c97affab8bbb879265e49c1b6e306a02fda6e95",
                        "amount": "0x01"
                    }
                ],
                "receipts": [
                    {
                        "transactionHash": "0x190ed673f860bb88d30dc6731a1b03f6785e8a3df1c6658c9e1f4e4b880da998",
                        "type": "0x00",
                        "cumulativeGasUsed": "0xa861",
                        "bloom": "0x00000000000000000000000000000000000000000000000000000000000000000000000000000000000000000000000000000000000000000000000000000000000000000000000000000000000000000000000000000000000000000000000000000000000000000000000000000000000000000000000000000000000000000000000000000000000000000000000000000000000000000000000000000000000000000000000000000000000000000000000000000000000000000000000000000000000000000000000000000000000000000000000000000000000000000000000000000000000000000000000000000000000000000000000000000000",
                        "logs": [],
                        "status": true,
                        "rlp": "0xf901080182a861b9010000000000000000000000000000000000000000000000000000000000000000000000000000000000000000000000000000000000000000000000000000000000000000000000000000000000000000000000000000000000000000000000000000000000000000000000000000000000000000000000000000000000000000000000000000000000000000000000000000000000000000000000000000000000000000000000000000000000000000000000000000000000000000000000000000000000000000000000000000000000000000000000000000000000000000000000000000000000000000000000000000000000000000000000000000000000c0"
                    },
                    {
                        "transactionHash": "0x9b77766b1d40d27242712a39ab633cf88afa24107e3e97a43161672526a3551f",
                        "type": "0x00",
                        "cumulativeGasUsed": "0x0150c2",
                        "bloom": "0x00000000000000000000000000000000000000000000000000000000000000000000000000000000000000000000000000000000000000000000000000000000000000000000000000000000000000000000000000000000000000000000000000000000000000000000000000000000000000000000000000000000000000000000000000000000000000000000000000000000000000000000000000000000000000000000000000000000000000000000000000000000000000000000000000000000000000000000000000000000000000000000000000000000000000000000000000000000000000000000000000000000000000000000000000000000",
                        "logs": [],
                        "status": true,
                        "rlp": "0xf9010901830150c2b9010000000000000000000000000000000000000000000000000000000000000000000000000000000000000000000000000000000000000000000000000000000000000000000000000000000000000000000000000000000000000000000000000000000000000000000000000000000000000000000000000000000000000000000000000000000000000000000000000000000000000000000000000000000000000000000000000000000000000000000000000000000000000000000000000000000000000000000000000000000000000000000000000000000000000000000000000000000000000000000000000000000000000000000000000000000000c0"
                    }
                ],
                "rlp": "0xf90336f90239a0c1f028f6d3c185287a3ed39f1a358c9d76cc3e187adbed4791bb86aa8c4295f4a01dcc4de8dec75d7aab85b567b6ccd41ad312451b948a7413f0a142fd40d49347942adc25665018aa1fe0e6bc666dac8fc2697ff9baa0d7cf03c5b9d62feee316f4234135758018cf2604840ff846948ffd074e2cc1d0a08eef3a2c7258ccbf90f822f6d38ae9910d1538d34123aa66147fbf8e30038f21a0565dbae32920fdc51f307a7eae972eed4f68bf2fa895f24169f0623ef1b6d66cb901000000000000000000000000000000000000000000000000000000000000000000000000000000000000000000000000000000000000000000000000000000000000000000000000000000000000000000000000000000000000000000000000000000000000000000000000000000000000000000000000000000000000000000000000000000000000000000000000000000000000000000000000000000000000000000000000000000000000000000000000000000000000000000000000000000000000000000000000000000000000000000000000000000000000000000000000000000000000000000000000000000000000000000000000000000000080018407270e00830150c20c80a0000000000000000000000000000000000000000000000000000000000000000088000000000000000007a0b5e20a3db706e11bd893ac6a10beebbf2cdebad3afe4d1fbe0dccecf485080b98080a00000000000000000000000000000000000000000000000000000000000000000f8c4f860800a830186a0945edfa9041082339ab8cb630aa22c70992f04ba9d808025a0bf1bbfab4a7d78ff3abf50b2676dd713e6270b7ea55a22ff39bc086be18e8e50a02a19c333ca6b98205bf96ee7e44f1de9053f203b14e4ed2c2f10016621309f6df860010a830186a094e3fcdf72ad630f8d79d0565944556ffdb45b4fca808025a0a7972c25e71757bf88d1e8a69d51138f7113c024364c72a2ac97b087dfba1d64a0611d84b6d742cce03fae1af40238487e2196f38c5a1e971d189c4d7c3ae38675c0f2d8808094184d2b2b043d739e2e91ce76c37e2fb13efd127901d80101948c97affab8bbb879265e49c1b6e306a02fda6e9501",
                "blocknumber": "1"
            },
            {
                "blockHeader": {
                    "parentHash": "0x840652aa08fb5db459b505b29a89fce473093b5188e38037ff4d69c21cb3e707",
                    "uncleHash": "0x1dcc4de8dec75d7aab85b567b6ccd41ad312451b948a7413f0a142fd40d49347",
                    "coinbase": "0x2adc25665018aa1fe0e6bc666dac8fc2697ff9ba",
                    "stateRoot": "0x022d57ffb00472011dce19314e790a48c40f8f67bdfeae0b0ec824401c9a0cea",
                    "transactionsTrie": "0x54811002cf1cf763d898ba7123360eef066a6f07c0b0adf987723b5f7e3abdc1",
                    "receiptTrie": "0x565dbae32920fdc51f307a7eae972eed4f68bf2fa895f24169f0623ef1b6d66c",
                    "bloom": "0x00000000000000000000000000000000000000000000000000000000000000000000000000000000000000000000000000000000000000000000000000000000000000000000000000000000000000000000000000000000000000000000000000000000000000000000000000000000000000000000000000000000000000000000000000000000000000000000000000000000000000000000000000000000000000000000000000000000000000000000000000000000000000000000000000000000000000000000000000000000000000000000000000000000000000000000000000000000000000000000000000000000000000000000000000000000",
                    "difficulty": "0x00",
                    "number": "0x02",
                    "gasLimit": "0x07270e00",
                    "gasUsed": "0x0150c2",
                    "timestamp": "0x18",
                    "extraData": "0x",
                    "mixHash": "0x0000000000000000000000000000000000000000000000000000000000000000",
                    "nonce": "0x0000000000000000",
                    "baseFeePerGas": "0x07",
                    "withdrawalsRoot": "0xe9501362ee69ac7ec2a105a57721b2eba388c3556f31404ed1a860cc92683de6",
                    "blobGasUsed": "0x00",
                    "excessBlobGas": "0x00",
                    "parentBeaconBlockRoot": "0x0000000000000000000000000000000000000000000000000000000000000000",
                    "hash": "0x3082a5d2a30f8eadce4dccc5a4eca4bcb77d0b5fc7003b22acca6f35e6a095a7"
                },
                "transactions": [
                    {
                        "type": "0x00",
                        "chainId": "0x01",
                        "nonce": "0x02",
                        "gasPrice": "0x0a",
                        "gasLimit": "0x0186a0",
                        "to": "0x184d2b2b043d739e2e91ce76c37e2fb13efd1279",
                        "value": "0x00",
                        "data": "0x",
                        "v": "0x25",
                        "r": "0xc9bb20b0e2ca1c62e957d3f293e33a22ecbfabec2f4c061a33a169ff84c7372f",
                        "s": "0x6536b5be6a09b51e8550c5631529ab7872535f5c0a8d8320b9394cb2a68769bd",
                        "sender": "0x1ad9bc24818784172ff393bb6f89f094d4d2ca29"
                    },
                    {
                        "type": "0x00",
                        "chainId": "0x01",
                        "nonce": "0x03",
                        "gasPrice": "0x0a",
                        "gasLimit": "0x0186a0",
                        "to": "0x8c97affab8bbb879265e49c1b6e306a02fda6e95",
                        "value": "0x00",
                        "data": "0x",
                        "v": "0x26",
                        "r": "0x0ee22e02ca3a6783327329d0fa99e1ba3dc915c9f1047068bbeb4bea57bde206",
                        "s": "0x0d5ae10199c465f21e3d4fc0787bf919fb1699fb8bb53c4d5b1bd35847aac215",
                        "sender": "0x1ad9bc24818784172ff393bb6f89f094d4d2ca29"
                    }
                ],
                "uncleHeaders": [],
                "withdrawals": [
                    {
                        "index": "0x00",
                        "validatorIndex": "0x00",
                        "address": "0x5edfa9041082339ab8cb630aa22c70992f04ba9d",
                        "amount": "0x01"
                    },
                    {
                        "index": "0x01",
                        "validatorIndex": "0x01",
                        "address": "0xe3fcdf72ad630f8d79d0565944556ffdb45b4fca",
                        "amount": "0x01"
                    }
                ],
                "receipts": [
                    {
                        "transactionHash": "0x0e805cb5dcdbc89929cc0c1d708e78599921c50e4efa2e80d6f9c3cb1ed643a6",
                        "type": "0x00",
                        "cumulativeGasUsed": "0xa861",
                        "bloom": "0x00000000000000000000000000000000000000000000000000000000000000000000000000000000000000000000000000000000000000000000000000000000000000000000000000000000000000000000000000000000000000000000000000000000000000000000000000000000000000000000000000000000000000000000000000000000000000000000000000000000000000000000000000000000000000000000000000000000000000000000000000000000000000000000000000000000000000000000000000000000000000000000000000000000000000000000000000000000000000000000000000000000000000000000000000000000",
                        "logs": [],
                        "status": true,
                        "rlp": "0xf901080182a861b9010000000000000000000000000000000000000000000000000000000000000000000000000000000000000000000000000000000000000000000000000000000000000000000000000000000000000000000000000000000000000000000000000000000000000000000000000000000000000000000000000000000000000000000000000000000000000000000000000000000000000000000000000000000000000000000000000000000000000000000000000000000000000000000000000000000000000000000000000000000000000000000000000000000000000000000000000000000000000000000000000000000000000000000000000000000000c0"
                    },
                    {
                        "transactionHash": "0xa5e8d8cfe11282152bddbebf2e95ea4e1558a816445289e06ee53377c262ef82",
                        "type": "0x00",
                        "cumulativeGasUsed": "0x0150c2",
                        "bloom": "0x00000000000000000000000000000000000000000000000000000000000000000000000000000000000000000000000000000000000000000000000000000000000000000000000000000000000000000000000000000000000000000000000000000000000000000000000000000000000000000000000000000000000000000000000000000000000000000000000000000000000000000000000000000000000000000000000000000000000000000000000000000000000000000000000000000000000000000000000000000000000000000000000000000000000000000000000000000000000000000000000000000000000000000000000000000000",
                        "logs": [],
                        "status": true,
                        "rlp": "0xf9010901830150c2b9010000000000000000000000000000000000000000000000000000000000000000000000000000000000000000000000000000000000000000000000000000000000000000000000000000000000000000000000000000000000000000000000000000000000000000000000000000000000000000000000000000000000000000000000000000000000000000000000000000000000000000000000000000000000000000000000000000000000000000000000000000000000000000000000000000000000000000000000000000000000000000000000000000000000000000000000000000000000000000000000000000000000000000000000000000000000c0"
                    }
                ],
                "rlp": "0xf90336f90239a0840652aa08fb5db459b505b29a89fce473093b5188e38037ff4d69c21cb3e707a01dcc4de8dec75d7aab85b567b6ccd41ad312451b948a7413f0a142fd40d49347942adc25665018aa1fe0e6bc666dac8fc2697ff9baa0022d57ffb00472011dce19314e790a48c40f8f67bdfeae0b0ec824401c9a0ceaa054811002cf1cf763d898ba7123360eef066a6f07c0b0adf987723b5f7e3abdc1a0565dbae32920fdc51f307a7eae972eed4f68bf2fa895f24169f0623ef1b6d66cb901000000000000000000000000000000000000000000000000000000000000000000000000000000000000000000000000000000000000000000000000000000000000000000000000000000000000000000000000000000000000000000000000000000000000000000000000000000000000000000000000000000000000000000000000000000000000000000000000000000000000000000000000000000000000000000000000000000000000000000000000000000000000000000000000000000000000000000000000000000000000000000000000000000000000000000000000000000000000000000000000000000000000000000000000000000000080028407270e00830150c21880a0000000000000000000000000000000000000000000000000000000000000000088000000000000000007a0e9501362ee69ac7ec2a105a57721b2eba388c3556f31404ed1a860cc92683de68080a00000000000000000000000000000000000000000000000000000000000000000f8c4f860020a830186a094184d2b2b043d739e2e91ce76c37e2fb13efd1279808025a0c9bb20b0e2ca1c62e957d3f293e33a22ecbfabec2f4c061a33a169ff84c7372fa06536b5be6a09b51e8550c5631529ab7872535f5c0a8d8320b9394cb2a68769bdf860030a830186a0948c97affab8bbb879265e49c1b6e306a02fda6e95808026a00ee22e02ca3a6783327329d0fa99e1ba3dc915c9f1047068bbeb4bea57bde206a00d5ae10199c465f21e3d4fc0787bf919fb1699fb8bb53c4d5b1bd35847aac215c0f2d88080945edfa9041082339ab8cb630aa22c70992f04ba9d01d8010194e3fcdf72ad630f8d79d0565944556ffdb45b4fca01",
                "blocknumber": "2"
            }
        ],
        "sealEngine": "NoProof",
        "_info": {
            "hash": "0x6f37a832c36ce80543d4cce61a02ff1fa34c8f39a5835e76044f1f97e16dc8e7",
            "fixture-format": "blockchain_test",
            "comment": "`execution-specs` generated test",
            "filling-transition-tool": "2.19.0",
            "description": "Test withdrawals don't trigger EVM execution.",
            "url": "https://github.com/ethereum/execution-specs/blob/tests-bal@v5.6.1/tests/shanghai/eip4895_withdrawals/test_withdrawals.py#L515",
            "metadata": {
                "opcode_count": {}
            },
            "reference-spec": "https://github.com/ethereum/EIPs/blob/master/EIPS/eip-4895.md",
            "reference-spec-version": "81af3b60b632bc9c03513d1d137f25410e3f4d34"
        }
    }
}