{
    "tests/shanghai/eip4895_withdrawals/test_withdrawals.py::test_zero_amount[fork_Cancun-blockchain_test-four_withdrawals_one_with_value_one_with_max]": {
        "network": "Cancun",
        "genesisBlockHeader": {
            "parentHash": "0x0000000000000000000000000000000000000000000000000000000000000000",
            "uncleHash": "0x1dcc4de8dec75d7aab85b567b6ccd41ad312451b948a7413f0a142fd40d49347",
            "coinbase": "0x0000000000000000000000000000000000000000",
            "stateRoot": "0x751231d7082a38db33b7b3aec61d0dd12ea6d90a9acf1ce6f10078c2553881b5",
            "transactionsTrie": "0x56e81f171bcc55a6ff8345e692c0f86e5b48e01b996cadc001622fb5e363b421",
            "receiptTrie": "0x56e81f171bcc55a6ff8345e692c0f86e5b48e01b996cadc001622fb5e363b421",
            "bloom": "0x00000000000000000000000000000000000000000000000000000000000000000000000000000000000000000000000000000000000000000000000000000000000000000000000000000000000000000000000000000000000000000000000000000000000000000000000000000000000000000000000000000000000000000000000000000000000000000000000000000000000000000000000000000000000000000000000000000000000000000000000000000000000000000000000000000000000000000000000000000000000000000000000000000000000000000000000000000000000000000000000000000000000000000000000000000000",
            "difficulty": "0x00",
            "number": "0x00",
            "gasLimit": "0x07270e00",
            "gasUsed": "0x00",
            "timestamp": "0x00",
            "extraData": "0x00",
            "mixHash": "0x0000000000000000000000000000000000000000000000000000000000000000",
            "nonce": "0x0000000000000000",
            "baseFeePerGas": "0x07",
            "withdrawalsRoot": "0x56e81f171bcc55a6ff8345e692c0f86e5b48e01b996cadc001622fb5e363b421",
            "blobGasUsed": "0x00",
            "excessBlobGas": "0x00",
            "parentBeaconBlockRoot": "0x0000000000000000000000000000000000000000000000000000000000000000",
            "hash": "0xe6dd96b32cea4a2b267aa6a36dec0702c33895bde618e939f22e4c4f0b8ee5b8"
        },
        "pre": {
            "0x000f3df6d732807ef1319fb7b8bb8522d0beac02": {
                "nonce": "0x01",
                "balance": "0x00",
                "code": "0x3373fffffffffffffffffffffffffffffffffffffffe14604d57602036146024575f5ffd5b5f35801560495762001fff810690815414603c575f5ffd5b62001fff01545f5260205ff35b5f5ffd5b62001fff42064281555f359062001fff015500",
                "storage": {}
            },
            "0x37f536464af59c8d7358cae965f92cbeadd58dcb": {
                "nonce": "0x01",
                "balance": "0x00",
                "code": "0x00",
                "storage": {}
            }
        },
        "postState": {
            "0x000f3df6d732807ef1319fb7b8bb8522d0beac02": {
                "nonce": "0x01",
                "balance": "0x00",
                "code": "0x3373fffffffffffffffffffffffffffffffffffffffe14604d57602036146024575f5ffd5b5f35801560495762001fff810690815414603c575f5ffd5b62001fff01545f5260205ff35b5f5ffd5b62001fff42064281555f359062001fff015500",
                "storage": {
                    "0x0c": "0x0c"
                }
            },
            "0x37f536464af59c8d7358cae965f92cbeadd58dcb": {
                "nonce": "0x01",
                "balance": "0x00",
                "code": "0x00",
                "storage": {}
            },
            "0x95d1be958d22adf294428c13cc71d89ff320bfd3": {
                "nonce": "0x00",
                "balance": "0x3b9aca00",
                "code": "0x",
                "storage": {}
            },
            "0x621bccc1be164ceafcc132dd24bd847f2cd8992c": {
                "nonce": "0x00",
                "balance": "0x3b9ac9ffffffffffc4653600",
                "code": "0x",
                "storage": {}
            }
        },
        "lastblockhash": "0xf70f4343335c54ad42ee5a27ea60532b29ecd1e12431dd18546cbb165b28877f",
        "config": {
            "network": "Cancun",
            "chainid": "0x01",
            "blobSchedule": {
                "Cancun": {
                    "target": "0x03",
                    "max": "0x06",
                    "baseFeeUpdateFraction": "0x32f0ed"
                }
            }
        },
        "genesisRLP": "0xf9023cf90236a00000000000000000000000000000000000000000000000000000000000000000a01dcc4de8dec75d7aab85b567b6ccd41ad312451b948a7413f0a142fd40d49347940000000000000000000000000000000000000000a0751231d7082a38db33b7b3aec61d0dd12ea6d90a9acf1ce6f10078c2553881b5a056e81f171bcc55a6ff8345e692c0f86e5b48e01b996cadc001622fb5e363b421a056e81f171bcc55a6ff8345e692c0f86e5b48e01b996cadc001622fb5e363b421b901000000000000000000000000000000000000000000000000000000000000000000000000000000000000000000000000000000000000000000000000000000000000000000000000000000000000000000000000000000000000000000000000000000000000000000000000000000000000000000000000000000000000000000000000000000000000000000000000000000000000000000000000000000000000000000000000000000000000000000000000000000000000000000000000000000000000000000000000000000000000000000000000000000000000000000000000000000000000000000000000000000000000000000000000000000000080808407270e00808000a0000000000000000000000000000000000000000000000000000000000000000088000000000000000007a056e81f171bcc55a6ff8345e692c0f86e5b48e01b996cadc001622fb5e363b4218080a00000000000000000000000000000000000000000000000000000000000000000c0c0c0",
        "blocks": [
            {
                "blockHeader": {
                    "parentHash": "0xe6dd96b32cea4a2b267aa6a36dec0702c33895bde618e939f22e4c4f0b8ee5b8",
                    "uncleHash": "0x1dcc4de8dec75d7aab85b567b6ccd41ad312451b948a7413f0a142fd40d49347",
                    "coinbase": "0x2adc25665018aa1fe0e6bc666dac8fc2697ff9ba",
                    "stateRoot": "0x5c483180fc3e1ebfff8624940aa4bc95571d93b9c938aa2a39dd80e6b96220a8",
                    "transactionsTrie": "0x56e81f171bcc55a6ff8345e692c0f86e5b48e01b996cadc001622fb5e363b421",
                    "receiptTrie": "0x56e81f171bcc55a6ff8345e692c0f86e5b48e01b996cadc001622fb5e363b421",
                    "bloom": "0x00000000000000000000000000000000000000000000000000000000000000000000000000000000000000000000000000000000000000000000000000000000000000000000000000000000000000000000000000000000000000000000000000000000000000000000000000000000000000000000000000000000000000000000000000000000000000000000000000000000000000000000000000000000000000000000000000000000000000000000000000000000000000000000000000000000000000000000000000000000000000000000000000000000000000000000000000000000000000000000000000000000000000000000000000000000",
                    "difficulty": "0x00",
                    "number": "0x01",
                    "gasLimit": "0x07270e00",
                    "gasUsed": "0x00",
                    "timestamp": "0x0c",
                    "extraData": "0x",
                    "mixHash": "0x0000000000000000000000000000000000000000000000000000000000000000",
                    "nonce": "0x0000000000000000",
                    "baseFeePerGas": "0x07",
                    "withdrawalsRoot": "0x022ff2c13ad1e20e1e8df006d4bb0f555184e2e7a3fec6be30bb38a8cf0d99a7",
                    "blobGasUsed": "0x00",
                    "excessBlobGas": "0x00",
                    "parentBeaconBlockRoot": "0x0000000000000000000000000000000000000000000000000000000000000000",
                    "hash": "0xf70f4343335c54ad42ee5a27ea60532b29ecd1e12431dd18546cbb165b28877f"
                },
                "transactions": [],
                "uncleHeaders": [],
                "withdrawals": [
                    {
                        "index": "0x00",
                        "validatorIndex": "0x00",
                        "address": "0xc0f6dc9e5836f54caadbf59cc69346c508e1992b",
                        "amount": "0x00"
                    },
                    {
                        "index": "0x00",
                        "validatorIndex": "0x00",
                        "address": "0x37f536464af59c8d7358cae965f92cbeadd58dcb",
                        "amount": "0x00"
                    },
                    {
                        "index": "0x01",
                        "validatorIndex": "0x00",
                        "address": "0x95d1be958d22adf294428c13cc71d89ff320bfd3",
                        "amount": "0x01"
                    },
                    {
                        "index": "0x02",
                        "validatorIndex": "0x00",
                        "address": "0x621bccc1be164ceafcc132dd24bd847f2cd8992c",
                        "amount": "0xffffffffffffffff"
                    }
                ],
                "rlp": "0xf902a9f90236a0e6dd96b32cea4a2b267aa6a36dec0702c33895bde618e939f22e4c4f0b8ee5b8a01dcc4de8dec75d7aab85b567b6ccd41ad312451b948a7413f0a142fd40d49347942adc25665018aa1fe0e6bc666dac8fc2697ff9baa05c483180fc3e1ebfff8624940aa4bc95571d93b9c938aa2a39dd80e6b96220a8a056e81f171bcc55a6ff8345e692c0f86e5b48e01b996cadc001622fb5e363b421a056e81f171bcc55a6ff8345e692c0f86e5b48e01b996cadc001622fb5e363b421b901000000000000000000000000000000000000000000000000000000000000000000000000000000000000000000000000000000000000000000000000000000000000000000000000000000000000000000000000000000000000000000000000000000000000000000000000000000000000000000000000000000000000000000000000000000000000000000000000000000000000000000000000000000000000000000000000000000000000000000000000000000000000000000000000000000000000000000000000000000000000000000000000000000000000000000000000000000000000000000000000000000000000000000000000000000000080018407270e00800c80a0000000000000000000000000000000000000000000000000000000000000000088000000000000000007a0022ff2c13ad1e20e1e8df006d4bb0f555184e2e7a3fec6be30bb38a8cf0d99a78080a00000000000000000000000000000000000000000000000000000000000000000c0c0f86cd8808094c0f6dc9e5836f54caadbf59cc69346c508e1992b80d880809437f536464af59c8d7358cae965f92cbeadd58dcb80d801809495d1be958d22adf294428c13cc71d89ff320bfd301e0028094621bccc1be164ceafcc132dd24bd847f2cd8992c88ffffffffffffffff",
                "blocknumber": "1"
            }
        ],
        "sealEngine": "NoProof",
        "_info": {
            "hash": "0xe6ccb475a64e2890c3f10ba49e8a2284aa8b53ee433b9bf15ecdb11014127b8b",
            "fixture-format": "blockchain_test",
            "comment": "`execution-specs` generated test",
            "filling-transition-tool": "2.19.0",
            "description": "Test withdrawal scenarios with a zero amount in a single block.\n\nAll the withdrawals in the following scenarios are included in one block.\n\n1. Two withdrawals of zero amount to two different addresses; one to an\n    untouched account, one to an account with a balance.\n\n2. As 1., but with an additional withdrawal with positive value.\n\n3. As 2., but with an additional withdrawal containing the maximum value\n   possible.\n\n4. As 3., but with order of withdrawals in the block reversed.",
            "url": "https://github.com/ethereum/execution-specs/blob/tests-bal@v5.7.0/tests/shanghai/eip4895_withdrawals/test_withdrawals.py#L604",
            "metadata": {
                "opcode_count": {}
            },
            "reference-spec": "https://github.com/ethereum/EIPs/blob/master/EIPS/eip-4895.md",
            "reference-spec-version": "81af3b60b632bc9c03513d1d137f25410e3f4d34"
        }
    },
    "tests/shanghai/eip4895_withdrawals/test_withdrawals.py::test_zero_amount[fork_Cancun-blockchain_test-four_withdrawals_one_with_value_one_with_max_reversed_order]": {
        "network": "Cancun",
        "genesisBlockHeader": {
            "parentHash": "0x0000000000000000000000000000000000000000000000000000000000000000",
            "uncleHash": "0x1dcc4de8dec75d7aab85b567b6ccd41ad312451b948a7413f0a142fd40d49347",
            "coinbase": "0x0000000000000000000000000000000000000000",
            "stateRoot": "0x751231d7082a38db33b7b3aec61d0dd12ea6d90a9acf1ce6f10078c2553881b5",
            "transactionsTrie": "0x56e81f171bcc55a6ff8345e692c0f86e5b48e01b996cadc001622fb5e363b421",
            "receiptTrie": "0x56e81f171bcc55a6ff8345e692c0f86e5b48e01b996cadc001622fb5e363b421",
            "bloom": "0x00000000000000000000000000000000000000000000000000000000000000000000000000000000000000000000000000000000000000000000000000000000000000000000000000000000000000000000000000000000000000000000000000000000000000000000000000000000000000000000000000000000000000000000000000000000000000000000000000000000000000000000000000000000000000000000000000000000000000000000000000000000000000000000000000000000000000000000000000000000000000000000000000000000000000000000000000000000000000000000000000000000000000000000000000000000",
            "difficulty": "0x00",
            "number": "0x00",
            "gasLimit": "0x07270e00",
            "gasUsed": "0x00",
            "timestamp": "0x00",
            "extraData": "0x00",
            "mixHash": "0x0000000000000000000000000000000000000000000000000000000000000000",
            "nonce": "0x0000000000000000",
            "baseFeePerGas": "0x07",
            "withdrawalsRoot": "0x56e81f171bcc55a6ff8345e692c0f86e5b48e01b996cadc001622fb5e363b421",
            "blobGasUsed": "0x00",
            "excessBlobGas": "0x00",
            "parentBeaconBlockRoot": "0x0000000000000000000000000000000000000000000000000000000000000000",
            "hash": "0xe6dd96b32cea4a2b267aa6a36dec0702c33895bde618e939f22e4c4f0b8ee5b8"
        },
        "pre": {
            "0x000f3df6d732807ef1319fb7b8bb8522d0beac02": {
                "nonce": "0x01",
                "balance": "0x00",
                "code": "0x3373fffffffffffffffffffffffffffffffffffffffe14604d57602036146024575f5ffd5b5f35801560495762001fff810690815414603c575f5ffd5b62001fff01545f5260205ff35b5f5ffd5b62001fff42064281555f359062001fff015500",
                "storage": {}
            },
            "0x37f536464af59c8d7358cae965f92cbeadd58dcb": {
                "nonce": "0x01",
                "balance": "0x00",
                "code": "0x00",
                "storage": {}
            }
        },
        "postState": {
            "0x000f3df6d732807ef1319fb7b8bb8522d0beac02": {
                "nonce": "0x01",
                "balance": "0x00",
                "code": "0x3373fffffffffffffffffffffffffffffffffffffffe14604d57602036146024575f5ffd5b5f35801560495762001fff810690815414603c575f5ffd5b62001fff01545f5260205ff35b5f5ffd5b62001fff42064281555f359062001fff015500",
                "storage": {
                    "0x0c": "0x0c"
                }
            },
            "0x37f536464af59c8d7358cae965f92cbeadd58dcb": {
                "nonce": "0x01",
                "balance": "0x00",
                "code": "0x00",
                "storage": {}
            },
            "0x621bccc1be164ceafcc132dd24bd847f2cd8992c": {
                "nonce": "0x00",
                "balance": "0x3b9ac9ffffffffffc4653600",
                "code": "0x",
                "storage": {}
            },
            "0x95d1be958d22adf294428c13cc71d89ff320bfd3": {
                "nonce": "0x00",
                "balance": "0x3b9aca00",
                "code": "0x",
                "storage": {}
            }
        },
        "lastblockhash": "0xebabdd58474a88993202c14e5691c07604f94f9c32b40bb0af56d00a7442c70a",
        "config": {
            "network": "Cancun",
            "chainid": "0x01",
            "blobSchedule": {
                "Cancun": {
                    "target": "0x03",
                    "max": "0x06",
                    "baseFeeUpdateFraction": "0x32f0ed"
                }
            }
        },
        "genesisRLP": "0xf9023cf90236a00000000000000000000000000000000000000000000000000000000000000000a01dcc4de8dec75d7aab85b567b6ccd41ad312451b948a7413f0a142fd40d49347940000000000000000000000000000000000000000a0751231d7082a38db33b7b3aec61d0dd12ea6d90a9acf1ce6f10078c2553881b5a056e81f171bcc55a6ff8345e692c0f86e5b48e01b996cadc001622fb5e363b421a056e81f171bcc55a6ff8345e692c0f86e5b48e01b996cadc001622fb5e363b421b901000000000000000000000000000000000000000000000000000000000000000000000000000000000000000000000000000000000000000000000000000000000000000000000000000000000000000000000000000000000000000000000000000000000000000000000000000000000000000000000000000000000000000000000000000000000000000000000000000000000000000000000000000000000000000000000000000000000000000000000000000000000000000000000000000000000000000000000000000000000000000000000000000000000000000000000000000000000000000000000000000000000000000000000000000000000080808407270e00808000a0000000000000000000000000000000000000000000000000000000000000000088000000000000000007a056e81f171bcc55a6ff8345e692c0f86e5b48e01b996cadc001622fb5e363b4218080a00000000000000000000000000000000000000000000000000000000000000000c0c0c0",
        "blocks": [
            {
                "blockHeader": {
                    "parentHash": "0xe6dd96b32cea4a2b267aa6a36dec0702c33895bde618e939f22e4c4f0b8ee5b8",
                    "uncleHash": "0x1dcc4de8dec75d7aab85b567b6ccd41ad312451b948a7413f0a142fd40d49347",
                    "coinbase": "0x2adc25665018aa1fe0e6bc666dac8fc2697ff9ba",
                    "stateRoot": "0x5c483180fc3e1ebfff8624940aa4bc95571d93b9c938aa2a39dd80e6b96220a8",
                    "transactionsTrie": "0x56e81f171bcc55a6ff8345e692c0f86e5b48e01b996cadc001622fb5e363b421",
                    "receiptTrie": "0x56e81f171bcc55a6ff8345e692c0f86e5b48e01b996cadc001622fb5e363b421",
                    "bloom": "0x00000000000000000000000000000000000000000000000000000000000000000000000000000000000000000000000000000000000000000000000000000000000000000000000000000000000000000000000000000000000000000000000000000000000000000000000000000000000000000000000000000000000000000000000000000000000000000000000000000000000000000000000000000000000000000000000000000000000000000000000000000000000000000000000000000000000000000000000000000000000000000000000000000000000000000000000000000000000000000000000000000000000000000000000000000000",
                    "difficulty": "0x00",
                    "number": "0x01",
                    "gasLimit": "0x07270e00",
                    "gasUsed": "0x00",
                    "timestamp": "0x0c",
                    "extraData": "0x",
                    "mixHash": "0x0000000000000000000000000000000000000000000000000000000000000000",
                    "nonce": "0x0000000000000000",
                    "baseFeePerGas": "0x07",
                    "withdrawalsRoot": "0x77e655e6541722e9dc3ef4107a1775f5a63ee1ce49103f50ac1509fdcf08c947",
                    "blobGasUsed": "0x00",
                    "excessBlobGas": "0x00",
                    "parentBeaconBlockRoot": "0x0000000000000000000000000000000000000000000000000000000000000000",
                    "hash": "0xebabdd58474a88993202c14e5691c07604f94f9c32b40bb0af56d00a7442c70a"
                },
                "transactions": [],
                "uncleHeaders": [],
                "withdrawals": [
                    {
                        "index": "0x00",
                        "validatorIndex": "0x00",
                        "address": "0x621bccc1be164ceafcc132dd24bd847f2cd8992c",
                        "amount": "0xffffffffffffffff"
                    },
                    {
                        "index": "0x01",
                        "validatorIndex": "0x00",
                        "address": "0x95d1be958d22adf294428c13cc71d89ff320bfd3",
                        "amount": "0x01"
                    },
                    {
                        "index": "0x02",
                        "validatorIndex": "0x00",
                        "address": "0x37f536464af59c8d7358cae965f92cbeadd58dcb",
                        "amount": "0x00"
                    },
                    {
                        "index": "0x03",
                        "validatorIndex": "0x00",
                        "address": "0xc0f6dc9e5836f54caadbf59cc69346c508e1992b",
                        "amount": "0x00"
                    }
                ],
                "rlp": "0xf902a9f90236a0e6dd96b32cea4a2b267aa6a36dec0702c33895bde618e939f22e4c4f0b8ee5b8a01dcc4de8dec75d7aab85b567b6ccd41ad312451b948a7413f0a142fd40d49347942adc25665018aa1fe0e6bc666dac8fc2697ff9baa05c483180fc3e1ebfff8624940aa4bc95571d93b9c938aa2a39dd80e6b96220a8a056e81f171bcc55a6ff8345e692c0f86e5b48e01b996cadc001622fb5e363b421a056e81f171bcc55a6ff8345e692c0f86e5b48e01b996cadc001622fb5e363b421b901000000000000000000000000000000000000000000000000000000000000000000000000000000000000000000000000000000000000000000000000000000000000000000000000000000000000000000000000000000000000000000000000000000000000000000000000000000000000000000000000000000000000000000000000000000000000000000000000000000000000000000000000000000000000000000000000000000000000000000000000000000000000000000000000000000000000000000000000000000000000000000000000000000000000000000000000000000000000000000000000000000000000000000000000000000000080018407270e00800c80a0000000000000000000000000000000000000000000000000000000000000000088000000000000000007a077e655e6541722e9dc3ef4107a1775f5a63ee1ce49103f50ac1509fdcf08c9478080a00000000000000000000000000000000000000000000000000000000000000000c0c0f86ce0808094621bccc1be164ceafcc132dd24bd847f2cd8992c88ffffffffffffffffd801809495d1be958d22adf294428c13cc71d89ff320bfd301d802809437f536464af59c8d7358cae965f92cbeadd58dcb80d8038094c0f6dc9e5836f54caadbf59cc69346c508e1992b80",
                "blocknumber": "1"
            }
        ],
        "sealEngine": "NoProof",
        "_info": {
            "hash": "0x15a5f8b2687738a5d45bc3124df0d215fe5c7ce1aa837f018dec655b86f64442",
            "fixture-format": "blockchain_test",
            "comment": "`execution-specs` generated test",
            "filling-transition-tool": "2.19.0",
            "description": "Test withdrawal scenarios with a zero amount in a single block.\n\nAll the withdrawals in the following scenarios are included in one block.\n\n1. Two withdrawals of zero amount to two different addresses; one to an\n    untouched account, one to an account with a balance.\n\n2. As 1., but with an additional withdrawal with positive value.\n\n3. As 2., but with an additional withdrawal containing the maximum value\n   possible.\n\n4. As 3., but with order of withdrawals in the block reversed.",
            "url": "https://github.com/ethereum/execution-specs/blob/tests-bal@v5.7.0/tests/shanghai/eip4895_withdrawals/test_withdrawals.py#L604",
            "metadata": {
                "opcode_count": {}
            },
            "reference-spec": "https://github.com/ethereum/EIPs/blob/master/EIPS/eip-4895.md",
            "reference-spec-version": "81af3b60b632bc9c03513d1d137f25410e3f4d34"
        }
    },
    "tests/shanghai/eip4895_withdrawals/test_withdrawals.py::test_zero_amount[fork_Cancun-blockchain_test-three_withdrawals_one_with_value]": {
        "network": "Cancun",
        "genesisBlockHeader": {
            "parentHash": "0x0000000000000000000000000000000000000000000000000000000000000000",
            "uncleHash": "0x1dcc4de8dec75d7aab85b567b6ccd41ad312451b948a7413f0a142fd40d49347",
            "coinbase": "0x0000000000000000000000000000000000000000",
            "stateRoot": "0x751231d7082a38db33b7b3aec61d0dd12ea6d90a9acf1ce6f10078c2553881b5",
            "transactionsTrie": "0x56e81f171bcc55a6ff8345e692c0f86e5b48e01b996cadc001622fb5e363b421",
            "receiptTrie": "0x56e81f171bcc55a6ff8345e692c0f86e5b48e01b996cadc001622fb5e363b421",
            "bloom": "0x00000000000000000000000000000000000000000000000000000000000000000000000000000000000000000000000000000000000000000000000000000000000000000000000000000000000000000000000000000000000000000000000000000000000000000000000000000000000000000000000000000000000000000000000000000000000000000000000000000000000000000000000000000000000000000000000000000000000000000000000000000000000000000000000000000000000000000000000000000000000000000000000000000000000000000000000000000000000000000000000000000000000000000000000000000000",
            "difficulty": "0x00",
            "number": "0x00",
            "gasLimit": "0x07270e00",
            "gasUsed": "0x00",
            "timestamp": "0x00",
            "extraData": "0x00",
            "mixHash": "0x0000000000000000000000000000000000000000000000000000000000000000",
            "nonce": "0x0000000000000000",
            "baseFeePerGas": "0x07",
            "withdrawalsRoot": "0x56e81f171bcc55a6ff8345e692c0f86e5b48e01b996cadc001622fb5e363b421",
            "blobGasUsed": "0x00",
            "excessBlobGas": "0x00",
            "parentBeaconBlockRoot": "0x0000000000000000000000000000000000000000000000000000000000000000",
            "hash": "0xe6dd96b32cea4a2b267aa6a36dec0702c33895bde618e939f22e4c4f0b8ee5b8"
        },
        "pre": {
            "0x000f3df6d732807ef1319fb7b8bb8522d0beac02": {
                "nonce": "0x01",
                "balance": "0x00",
                "code": "0x3373fffffffffffffffffffffffffffffffffffffffe14604d57602036146024575f5ffd5b5f35801560495762001fff810690815414603c575f5ffd5b62001fff01545f5260205ff35b5f5ffd5b62001fff42064281555f359062001fff015500",
                "storage": {}
            },
            "0x37f536464af59c8d7358cae965f92cbeadd58dcb": {
                "nonce": "0x01",
                "balance": "0x00",
                "code": "0x00",
                "storage": {}
            }
        },
        "postState": {
            "0x000f3df6d732807ef1319fb7b8bb8522d0beac02": {
                "nonce": "0x01",
                "balance": "0x00",
                "code": "0x3373fffffffffffffffffffffffffffffffffffffffe14604d57602036146024575f5ffd5b5f35801560495762001fff810690815414603c575f5ffd5b62001fff01545f5260205ff35b5f5ffd5b62001fff42064281555f359062001fff015500",
                "storage": {
                    "0x0c": "0x0c"
                }
            },
            "0x37f536464af59c8d7358cae965f92cbeadd58dcb": {
                "nonce": "0x01",
                "balance": "0x00",
                "code": "0x00",
                "storage": {}
            },
            "0x95d1be958d22adf294428c13cc71d89ff320bfd3": {
                "nonce": "0x00",
                "balance": "0x3b9aca00",
                "code": "0x",
                "storage": {}
            }
        },
        "lastblockhash": "0x90ef53eb69cbcf6eaa27f0bd31847e59ba5c50cb6a0c386b8e8e70bbb6c07c79",
        "config": {
            "network": "Cancun",
            "chainid": "0x01",
            "blobSchedule": {
                "Cancun": {
                    "target": "0x03",
                    "max": "0x06",
                    "baseFeeUpdateFraction": "0x32f0ed"
                }
            }
        },
        "genesisRLP": "0xf9023cf90236a00000000000000000000000000000000000000000000000000000000000000000a01dcc4de8dec75d7aab85b567b6ccd41ad312451b948a7413f0a142fd40d49347940000000000000000000000000000000000000000a0751231d7082a38db33b7b3aec61d0dd12ea6d90a9acf1ce6f10078c2553881b5a056e81f171bcc55a6ff8345e692c0f86e5b48e01b996cadc001622fb5e363b421a056e81f171bcc55a6ff8345e692c0f86e5b48e01b996cadc001622fb5e363b421b901000000000000000000000000000000000000000000000000000000000000000000000000000000000000000000000000000000000000000000000000000000000000000000000000000000000000000000000000000000000000000000000000000000000000000000000000000000000000000000000000000000000000000000000000000000000000000000000000000000000000000000000000000000000000000000000000000000000000000000000000000000000000000000000000000000000000000000000000000000000000000000000000000000000000000000000000000000000000000000000000000000000000000000000000000000000080808407270e00808000a0000000000000000000000000000000000000000000000000000000000000000088000000000000000007a056e81f171bcc55a6ff8345e692c0f86e5b48e01b996cadc001622fb5e363b4218080a00000000000000000000000000000000000000000000000000000000000000000c0c0c0",
        "blocks": [
            {
                "blockHeader": {
                    "parentHash": "0xe6dd96b32cea4a2b267aa6a36dec0702c33895bde618e939f22e4c4f0b8ee5b8",
                    "uncleHash": "0x1dcc4de8dec75d7aab85b567b6ccd41ad312451b948a7413f0a142fd40d49347",
                    "coinbase": "0x2adc25665018aa1fe0e6bc666dac8fc2697ff9ba",
                    "stateRoot": "0x5873f7abe5780be2968f1e7e69099234d8218fbae3b68496819e01e13e3195e1",
                    "transactionsTrie": "0x56e81f171bcc55a6ff8345e692c0f86e5b48e01b996cadc001622fb5e363b421",
                    "receiptTrie": "0x56e81f171bcc55a6ff8345e692c0f86e5b48e01b996cadc001622fb5e363b421",
                    "bloom": "0x00000000000000000000000000000000000000000000000000000000000000000000000000000000000000000000000000000000000000000000000000000000000000000000000000000000000000000000000000000000000000000000000000000000000000000000000000000000000000000000000000000000000000000000000000000000000000000000000000000000000000000000000000000000000000000000000000000000000000000000000000000000000000000000000000000000000000000000000000000000000000000000000000000000000000000000000000000000000000000000000000000000000000000000000000000000",
                    "difficulty": "0x00",
                    "number": "0x01",
                    "gasLimit": "0x07270e00",
                    "gasUsed": "0x00",
                    "timestamp": "0x0c",
                    "extraData": "0x",
                    "mixHash": "0x0000000000000000000000000000000000000000000000000000000000000000",
                    "nonce": "0x0000000000000000",
                    "baseFeePerGas": "0x07",
                    "withdrawalsRoot": "0x855e2dee5f626463b6721c63b884906f5dedcb2e3d901d0080d7ef3430b47d14",
                    "blobGasUsed": "0x00",
                    "excessBlobGas": "0x00",
                    "parentBeaconBlockRoot": "0x0000000000000000000000000000000000000000000000000000000000000000",
                    "hash": "0x90ef53eb69cbcf6eaa27f0bd31847e59ba5c50cb6a0c386b8e8e70bbb6c07c79"
                },
                "transactions": [],
                "uncleHeaders": [],
                "withdrawals": [
                    {
                        "index": "0x00",
                        "validatorIndex": "0x00",
                        "address": "0xc0f6dc9e5836f54caadbf59cc69346c508e1992b",
                        "amount": "0x00"
                    },
                    {
                        "index": "0x00",
                        "validatorIndex": "0x00",
                        "address": "0x37f536464af59c8d7358cae965f92cbeadd58dcb",
                        "amount": "0x00"
                    },
                    {
                        "index": "0x01",
                        "validatorIndex": "0x00",
                        "address": "0x95d1be958d22adf294428c13cc71d89ff320bfd3",
                        "amount": "0x01"
                    }
                ],
                "rlp": "0xf90288f90236a0e6dd96b32cea4a2b267aa6a36dec0702c33895bde618e939f22e4c4f0b8ee5b8a01dcc4de8dec75d7aab85b567b6ccd41ad312451b948a7413f0a142fd40d49347942adc25665018aa1fe0e6bc666dac8fc2697ff9baa05873f7abe5780be2968f1e7e69099234d8218fbae3b68496819e01e13e3195e1a056e81f171bcc55a6ff8345e692c0f86e5b48e01b996cadc001622fb5e363b421a056e81f171bcc55a6ff8345e692c0f86e5b48e01b996cadc001622fb5e363b421b901000000000000000000000000000000000000000000000000000000000000000000000000000000000000000000000000000000000000000000000000000000000000000000000000000000000000000000000000000000000000000000000000000000000000000000000000000000000000000000000000000000000000000000000000000000000000000000000000000000000000000000000000000000000000000000000000000000000000000000000000000000000000000000000000000000000000000000000000000000000000000000000000000000000000000000000000000000000000000000000000000000000000000000000000000000000080018407270e00800c80a0000000000000000000000000000000000000000000000000000000000000000088000000000000000007a0855e2dee5f626463b6721c63b884906f5dedcb2e3d901d0080d7ef3430b47d148080a00000000000000000000000000000000000000000000000000000000000000000c0c0f84bd8808094c0f6dc9e5836f54caadbf59cc69346c508e1992b80d880809437f536464af59c8d7358cae965f92cbeadd58dcb80d801809495d1be958d22adf294428c13cc71d89ff320bfd301",
                "blocknumber": "1"
            }
        ],
        "sealEngine": "NoProof",
        "_info": {
            "hash": "0x0e4cf176680a973f792546863d970fc526a7fab33bec48c182c05ec07c62dcaf",
            "fixture-format": "blockchain_test",
            "comment": "`execution-specs` generated test",
            "filling-transition-tool": "2.19.0",
            "description": "Test withdrawal scenarios with a zero amount in a single block.\n\nAll the withdrawals in the following scenarios are included in one block.\n\n1. Two withdrawals of zero amount to two different addresses; one to an\n    untouched account, one to an account with a balance.\n\n2. As 1., but with an additional withdrawal with positive value.\n\n3. As 2., but with an additional withdrawal containing the maximum value\n   possible.\n\n4. As 3., but with order of withdrawals in the block reversed.",
            "url": "https://github.com/ethereum/execution-specs/blob/tests-bal@v5.7.0/tests/shanghai/eip4895_withdrawals/test_withdrawals.py#L604",
            "metadata": {
                "opcode_count": {}
            },
            "reference-spec": "https://github.com/ethereum/EIPs/blob/master/EIPS/eip-4895.md",
            "reference-spec-version": "81af3b60b632bc9c03513d1d137f25410e3f4d34"
        }
    },
    "tests/shanghai/eip4895_withdrawals/test_withdrawals.py::test_zero_amount[fork_Cancun-blockchain_test-two_withdrawals_no_value]": {
        "network": "Cancun",
        "genesisBlockHeader": {
            "parentHash": "0x0000000000000000000000000000000000000000000000000000000000000000",
            "uncleHash": "0x1dcc4de8dec75d7aab85b567b6ccd41ad312451b948a7413f0a142fd40d49347",
            "coinbase": "0x0000000000000000000000000000000000000000",
            "stateRoot": "0x751231d7082a38db33b7b3aec61d0dd12ea6d90a9acf1ce6f10078c2553881b5",
            "transactionsTrie": "0x56e81f171bcc55a6ff8345e692c0f86e5b48e01b996cadc001622fb5e363b421",
            "receiptTrie": "0x56e81f171bcc55a6ff8345e692c0f86e5b48e01b996cadc001622fb5e363b421",
            "bloom": "0x00000000000000000000000000000000000000000000000000000000000000000000000000000000000000000000000000000000000000000000000000000000000000000000000000000000000000000000000000000000000000000000000000000000000000000000000000000000000000000000000000000000000000000000000000000000000000000000000000000000000000000000000000000000000000000000000000000000000000000000000000000000000000000000000000000000000000000000000000000000000000000000000000000000000000000000000000000000000000000000000000000000000000000000000000000000",
            "difficulty": "0x00",
            "number": "0x00",
            "gasLimit": "0x07270e00",
            "gasUsed": "0x00",
            "timestamp": "0x00",
            "extraData": "0x00",
            "mixHash": "0x0000000000000000000000000000000000000000000000000000000000000000",
            "nonce": "0x0000000000000000",
            "baseFeePerGas": "0x07",
            "withdrawalsRoot": "0x56e81f171bcc55a6ff8345e692c0f86e5b48e01b996cadc001622fb5e363b421",
            "blobGasUsed": "0x00",
            "excessBlobGas": "0x00",
            "parentBeaconBlockRoot": "0x0000000000000000000000000000000000000000000000000000000000000000",
            "hash": "0xe6dd96b32cea4a2b267aa6a36dec0702c33895bde618e939f22e4c4f0b8ee5b8"
        },
        "pre": {
            "0x000f3df6d732807ef1319fb7b8bb8522d0beac02": {
                "nonce": "0x01",
                "balance": "0x00",
                "code": "0x3373fffffffffffffffffffffffffffffffffffffffe14604d57602036146024575f5ffd5b5f35801560495762001fff810690815414603c575f5ffd5b62001fff01545f5260205ff35b5f5ffd5b62001fff42064281555f359062001fff015500",
                "storage": {}
            },
            "0x37f536464af59c8d7358cae965f92cbeadd58dcb": {
                "nonce": "0x01",
                "balance": "0x00",
                "code": "0x00",
                "storage": {}
            }
        },
        "postState": {
            "0x000f3df6d732807ef1319fb7b8bb8522d0beac02": {
                "nonce": "0x01",
                "balance": "0x00",
                "code": "0x3373fffffffffffffffffffffffffffffffffffffffe14604d57602036146024575f5ffd5b5f35801560495762001fff810690815414603c575f5ffd5b62001fff01545f5260205ff35b5f5ffd5b62001fff42064281555f359062001fff015500",
                "storage": {
                    "0x0c": "0x0c"
                }
            },
            "0x37f536464af59c8d7358cae965f92cbeadd58dcb": {
                "nonce": "0x01",
                "balance": "0x00",
                "code": "0x00",
                "storage": {}
            }
        },
        "lastblockhash": "0x06eb14e509ca642e66701d89de4956c51e499965cbde545f1aab2e86fd17c9d0",
        "config": {
            "network": "Cancun",
            "chainid": "0x01",
            "blobSchedule": {
                "Cancun": {
                    "target": "0x03",
                    "max": "0x06",
                    "baseFeeUpdateFraction": "0x32f0ed"
                }
            }
        },
        "genesisRLP": "0xf9023cf90236a00000000000000000000000000000000000000000000000000000000000000000a01dcc4de8dec75d7aab85b567b6ccd41ad312451b948a7413f0a142fd40d49347940000000000000000000000000000000000000000a0751231d7082a38db33b7b3aec61d0dd12ea6d90a9acf1ce6f10078c2553881b5a056e81f171bcc55a6ff8345e692c0f86e5b48e01b996cadc001622fb5e363b421a056e81f171bcc55a6ff8345e692c0f86e5b48e01b996cadc001622fb5e363b421b901000000000000000000000000000000000000000000000000000000000000000000000000000000000000000000000000000000000000000000000000000000000000000000000000000000000000000000000000000000000000000000000000000000000000000000000000000000000000000000000000000000000000000000000000000000000000000000000000000000000000000000000000000000000000000000000000000000000000000000000000000000000000000000000000000000000000000000000000000000000000000000000000000000000000000000000000000000000000000000000000000000000000000000000000000000000080808407270e00808000a0000000000000000000000000000000000000000000000000000000000000000088000000000000000007a056e81f171bcc55a6ff8345e692c0f86e5b48e01b996cadc001622fb5e363b4218080a00000000000000000000000000000000000000000000000000000000000000000c0c0c0",
        "blocks": [
            {
                "blockHeader": {
                    "parentHash": "0xe6dd96b32cea4a2b267aa6a36dec0702c33895bde618e939f22e4c4f0b8ee5b8",
                    "uncleHash": "0x1dcc4de8dec75d7aab85b567b6ccd41ad312451b948a7413f0a142fd40d49347",
                    "coinbase": "0x2adc25665018aa1fe0e6bc666dac8fc2697ff9ba",
                    "stateRoot": "0x463e84904212876e4ffbc6d543b4dcb1bc897238f92e57eb8e02016e1f99b44b",
                    "transactionsTrie": "0x56e81f171bcc55a6ff8345e692c0f86e5b48e01b996cadc001622fb5e363b421",
                    "receiptTrie": "0x56e81f171bcc55a6ff8345e692c0f86e5b48e01b996cadc001622fb5e363b421",
                    "bloom": "0x00000000000000000000000000000000000000000000000000000000000000000000000000000000000000000000000000000000000000000000000000000000000000000000000000000000000000000000000000000000000000000000000000000000000000000000000000000000000000000000000000000000000000000000000000000000000000000000000000000000000000000000000000000000000000000000000000000000000000000000000000000000000000000000000000000000000000000000000000000000000000000000000000000000000000000000000000000000000000000000000000000000000000000000000000000000",
                    "difficulty": "0x00",
                    "number": "0x01",
                    "gasLimit": "0x07270e00",
                    "gasUsed": "0x00",
                    "timestamp": "0x0c",
                    "extraData": "0x",
                    "mixHash": "0x0000000000000000000000000000000000000000000000000000000000000000",
                    "nonce": "0x0000000000000000",
                    "baseFeePerGas": "0x07",
                    "withdrawalsRoot": "0x3120ed99200ee588dac5caedf41e5b8c865cf7024d5704ae4c85224318e1c361",
                    "blobGasUsed": "0x00",
                    "excessBlobGas": "0x00",
                    "parentBeaconBlockRoot": "0x0000000000000000000000000000000000000000000000000000000000000000",
                    "hash": "0x06eb14e509ca642e66701d89de4956c51e499965cbde545f1aab2e86fd17c9d0"
                },
                "transactions": [],
                "uncleHeaders": [],
                "withdrawals": [
                    {
                        "index": "0x00",
                        "validatorIndex": "0x00",
                        "address": "0xc0f6dc9e5836f54caadbf59cc69346c508e1992b",
                        "amount": "0x00"
                    },
                    {
                        "index": "0x00",
                        "validatorIndex": "0x00",
                        "address": "0x37f536464af59c8d7358cae965f92cbeadd58dcb",
                        "amount": "0x00"
                    }
                ],
                "rlp": "0xf9026ef90236a0e6dd96b32cea4a2b267aa6a36dec0702c33895bde618e939f22e4c4f0b8ee5b8a01dcc4de8dec75d7aab85b567b6ccd41ad312451b948a7413f0a142fd40d49347942adc25665018aa1fe0e6bc666dac8fc2697ff9baa0463e84904212876e4ffbc6d543b4dcb1bc897238f92e57eb8e02016e1f99b44ba056e81f171bcc55a6ff8345e692c0f86e5b48e01b996cadc001622fb5e363b421a056e81f171bcc55a6ff8345e692c0f86e5b48e01b996cadc001622fb5e363b421b901000000000000000000000000000000000000000000000000000000000000000000000000000000000000000000000000000000000000000000000000000000000000000000000000000000000000000000000000000000000000000000000000000000000000000000000000000000000000000000000000000000000000000000000000000000000000000000000000000000000000000000000000000000000000000000000000000000000000000000000000000000000000000000000000000000000000000000000000000000000000000000000000000000000000000000000000000000000000000000000000000000000000000000000000000000000080018407270e00800c80a0000000000000000000000000000000000000000000000000000000000000000088000000000000000007a03120ed99200ee588dac5caedf41e5b8c865cf7024d5704ae4c85224318e1c3618080a00000000000000000000000000000000000000000000000000000000000000000c0c0f2d8808094c0f6dc9e5836f54caadbf59cc69346c508e1992b80d880809437f536464af59c8d7358cae965f92cbeadd58dcb80",
                "blocknumber": "1"
            }
        ],
        "sealEngine": "NoProof",
        "_info": {
            "hash": "0xddb7414923ea9d26ae7f1d107269ce953090d918634e4d330fa995f7781bfda7",
            "fixture-format": "blockchain_test",
            "comment": "`execution-specs` generated test",
            "filling-transition-tool": "2.19.0",
            "description": "Test withdrawal scenarios with a zero amount in a single block.\n\nAll the withdrawals in the following scenarios are included in one block.\n\n1. Two withdrawals of zero amount to two different addresses; one to an\n    untouched account, one to an account with a balance.\n\n2. As 1., but with an additional withdrawal with positive value.\n\n3. As 2., but with an additional withdrawal containing the maximum value\n   possible.\n\n4. As 3., but with order of withdrawals in the block reversed.",
            "url": "https://github.com/ethereum/execution-specs/blob/tests-bal@v5.7.0/tests/shanghai/eip4895_withdrawals/test_withdrawals.py#L604",
            "metadata": {
                "opcode_count": {}
            },
            "reference-spec": "https://github.com/ethereum/EIPs/blob/master/EIPS/eip-4895.md",
            "reference-spec-version": "81af3b60b632bc9c03513d1d137f25410e3f4d34"
        }
    }
}