{
    "tests/byzantium/eip197_ec_pairing/test_gas.py::test_gas_costs[fork_Istanbul-blockchain_test_from_state_test-enough_gas_False]": {
        "network": "Istanbul",
        "genesisBlockHeader": {
            "parentHash": "0x0000000000000000000000000000000000000000000000000000000000000000",
            "uncleHash": "0x1dcc4de8dec75d7aab85b567b6ccd41ad312451b948a7413f0a142fd40d49347",
            "coinbase": "0x0000000000000000000000000000000000000000",
            "stateRoot": "0x24405512c5b191dca4e538697595728745f9e0312eef1a08b53c8b00267cb50f",
            "transactionsTrie": "0x56e81f171bcc55a6ff8345e692c0f86e5b48e01b996cadc001622fb5e363b421",
            "receiptTrie": "0x56e81f171bcc55a6ff8345e692c0f86e5b48e01b996cadc001622fb5e363b421",
            "bloom": "0x00000000000000000000000000000000000000000000000000000000000000000000000000000000000000000000000000000000000000000000000000000000000000000000000000000000000000000000000000000000000000000000000000000000000000000000000000000000000000000000000000000000000000000000000000000000000000000000000000000000000000000000000000000000000000000000000000000000000000000000000000000000000000000000000000000000000000000000000000000000000000000000000000000000000000000000000000000000000000000000000000000000000000000000000000000000",
            "difficulty": "0x020000",
            "number": "0x00",
            "gasLimit": "0x07270e00",
            "gasUsed": "0x00",
            "timestamp": "0x00",
            "extraData": "0x00",
            "mixHash": "0x0000000000000000000000000000000000000000000000000000000000000000",
            "nonce": "0x0000000000000000",
            "hash": "0x2b898726a616ffaf86dd75298ae8e9780bcb57eb38c91d0385b2364b77fca4d7"
        },
        "pre": {
            "0xc18b3d3f100d2865f6aa0eda4026cfec6cef0300": {
                "nonce": "0x01",
                "balance": "0x00",
                "code": "0x6000600060006000600861afc7fa600055",
                "storage": {
                    "0x00": "0xba5e"
                }
            },
            "0x1ad9bc24818784172ff393bb6f89f094d4d2ca29": {
                "nonce": "0x00",
                "balance": "0x3635c9adc5dea00000",
                "code": "0x",
                "storage": {}
            }
        },
        "postState": {
            "0xc18b3d3f100d2865f6aa0eda4026cfec6cef0300": {
                "nonce": "0x01",
                "balance": "0x00",
                "code": "0x6000600060006000600861afc7fa600055",
                "storage": {}
            },
            "0x1ad9bc24818784172ff393bb6f89f094d4d2ca29": {
                "nonce": "0x01",
                "balance": "0x3635c9adc5de975860",
                "code": "0x",
                "storage": {}
            },
            "0x2adc25665018aa1fe0e6bc666dac8fc2697ff9ba": {
                "nonce": "0x00",
                "balance": "0x1bc16d674ed0a7a0",
                "code": "0x",
                "storage": {}
            }
        },
        "lastblockhash": "0x2728a1d9df1c62d499e635cbe18ecf7510b03604fbbf990c67f04d8bcf8b60cd",
        "config": {
            "network": "Istanbul",
            "chainid": "0x01"
        },
        "genesisRLP": "0xf901f9f901f4a00000000000000000000000000000000000000000000000000000000000000000a01dcc4de8dec75d7aab85b567b6ccd41ad312451b948a7413f0a142fd40d49347940000000000000000000000000000000000000000a024405512c5b191dca4e538697595728745f9e0312eef1a08b53c8b00267cb50fa056e81f171bcc55a6ff8345e692c0f86e5b48e01b996cadc001622fb5e363b421a056e81f171bcc55a6ff8345e692c0f86e5b48e01b996cadc001622fb5e363b421b901000000000000000000000000000000000000000000000000000000000000000000000000000000000000000000000000000000000000000000000000000000000000000000000000000000000000000000000000000000000000000000000000000000000000000000000000000000000000000000000000000000000000000000000000000000000000000000000000000000000000000000000000000000000000000000000000000000000000000000000000000000000000000000000000000000000000000000000000000000000000000000000000000000000000000000000000000000000000000000000000000000000000000000000000000000000083020000808407270e00808000a00000000000000000000000000000000000000000000000000000000000000000880000000000000000c0c0",
        "blocks": [
            {
                "blockHeader": {
                    "parentHash": "0x2b898726a616ffaf86dd75298ae8e9780bcb57eb38c91d0385b2364b77fca4d7",
                    "uncleHash": "0x1dcc4de8dec75d7aab85b567b6ccd41ad312451b948a7413f0a142fd40d49347",
                    "coinbase": "0x2adc25665018aa1fe0e6bc666dac8fc2697ff9ba",
                    "stateRoot": "0x0231893dde308ff8fd500bed78da7595b7239b84751bcd8021fe5698d9b3198e",
                    "transactionsTrie": "0xea47a8be01d19603f286a2ad9191977d0d14691a845473c5d7b626c129706ca0",
                    "receiptTrie": "0x1ec45193191d572d37f8bfc33c1d78d9264ce7f739b04f9342013aa465e92e32",
                    "bloom": "0x00000000000000000000000000000000000000000000000000000000000000000000000000000000000000000000000000000000000000000000000000000000000000000000000000000000000000000000000000000000000000000000000000000000000000000000000000000000000000000000000000000000000000000000000000000000000000000000000000000000000000000000000000000000000000000000000000000000000000000000000000000000000000000000000000000000000000000000000000000000000000000000000000000000000000000000000000000000000000000000000000000000000000000000000000000000",
                    "difficulty": "0x020000",
                    "number": "0x01",
                    "gasLimit": "0x07270e00",
                    "gasUsed": "0xdd90",
                    "timestamp": "0x03e8",
                    "extraData": "0x00",
                    "mixHash": "0x0000000000000000000000000000000000000000000000000000000000000000",
                    "nonce": "0x0000000000000000",
                    "hash": "0x2728a1d9df1c62d499e635cbe18ecf7510b03604fbbf990c67f04d8bcf8b60cd"
                },
                "transactions": [
                    {
                        "type": "0x00",
                        "chainId": "0x01",
                        "nonce": "0x00",
                        "gasPrice": "0x0a",
                        "gasLimit": "0x0f4240",
                        "to": "0xc18b3d3f100d2865f6aa0eda4026cfec6cef0300",
                        "value": "0x00",
                        "data": "0x",
                        "v": "0x25",
                        "r": "0xae39d37f953da623c4ff6d5b5242699a39acd01f0d7b462b630d15741878c4e5",
                        "s": "0x28cf0e1bc159f979e3d3969f706651a5c0cc6bff4c2a3783f8ce7085d9a6666e",
                        "sender": "0x1ad9bc24818784172ff393bb6f89f094d4d2ca29"
                    }
                ],
                "uncleHeaders": [],
                "receipts": [
                    {
                        "transactionHash": "0x2f5c3a4e0fd3a8cf82ac2b6233537a9d9b268ade684fb5d9367229ea7ce2e757",
                        "type": "0x00",
                        "cumulativeGasUsed": "0xdd90",
                        "bloom": "0x00000000000000000000000000000000000000000000000000000000000000000000000000000000000000000000000000000000000000000000000000000000000000000000000000000000000000000000000000000000000000000000000000000000000000000000000000000000000000000000000000000000000000000000000000000000000000000000000000000000000000000000000000000000000000000000000000000000000000000000000000000000000000000000000000000000000000000000000000000000000000000000000000000000000000000000000000000000000000000000000000000000000000000000000000000000",
                        "logs": [],
                        "status": true,
                        "rlp": "0xf901080182dd90b9010000000000000000000000000000000000000000000000000000000000000000000000000000000000000000000000000000000000000000000000000000000000000000000000000000000000000000000000000000000000000000000000000000000000000000000000000000000000000000000000000000000000000000000000000000000000000000000000000000000000000000000000000000000000000000000000000000000000000000000000000000000000000000000000000000000000000000000000000000000000000000000000000000000000000000000000000000000000000000000000000000000000000000000000000000000000c0"
                    }
                ],
                "rlp": "0xf90260f901f8a02b898726a616ffaf86dd75298ae8e9780bcb57eb38c91d0385b2364b77fca4d7a01dcc4de8dec75d7aab85b567b6ccd41ad312451b948a7413f0a142fd40d49347942adc25665018aa1fe0e6bc666dac8fc2697ff9baa00231893dde308ff8fd500bed78da7595b7239b84751bcd8021fe5698d9b3198ea0ea47a8be01d19603f286a2ad9191977d0d14691a845473c5d7b626c129706ca0a01ec45193191d572d37f8bfc33c1d78d9264ce7f739b04f9342013aa465e92e32b901000000000000000000000000000000000000000000000000000000000000000000000000000000000000000000000000000000000000000000000000000000000000000000000000000000000000000000000000000000000000000000000000000000000000000000000000000000000000000000000000000000000000000000000000000000000000000000000000000000000000000000000000000000000000000000000000000000000000000000000000000000000000000000000000000000000000000000000000000000000000000000000000000000000000000000000000000000000000000000000000000000000000000000000000000000000083020000018407270e0082dd908203e800a00000000000000000000000000000000000000000000000000000000000000000880000000000000000f862f860800a830f424094c18b3d3f100d2865f6aa0eda4026cfec6cef0300808025a0ae39d37f953da623c4ff6d5b5242699a39acd01f0d7b462b630d15741878c4e5a028cf0e1bc159f979e3d3969f706651a5c0cc6bff4c2a3783f8ce7085d9a6666ec0",
                "blocknumber": "1"
            }
        ],
        "sealEngine": "NoProof",
        "_info": {
            "hash": "0xe18ac811628fc1515478090e787d1a086a262ea5330aa998465d29e1c99942c9",
            "fixture-format": "blockchain_test",
            "comment": "`execution-specs` generated test",
            "filling-transition-tool": "2.19.0",
            "description": "Test the base gas cost of the ecpairing precompile with zero pairs.",
            "url": "https://github.com/ethereum/execution-specs/blob/tests-bal@v5.6.0/tests/byzantium/eip197_ec_pairing/test_gas.py#L31",
            "metadata": {
                "opcode_count": {}
            },
            "reference-spec": "https://github.com/ethereum/EIPs/blob/master/EIPS/eip-197.md",
            "reference-spec-version": "9f9b3d33440e7c122b6c9192facfc380bc009422"
        }
    },
    "tests/byzantium/eip197_ec_pairing/test_gas.py::test_gas_costs[fork_Istanbul-blockchain_test_from_state_test-enough_gas_True]": {
        "network": "Istanbul",
        "genesisBlockHeader": {
            "parentHash": "0x0000000000000000000000000000000000000000000000000000000000000000",
            "uncleHash": "0x1dcc4de8dec75d7aab85b567b6ccd41ad312451b948a7413f0a142fd40d49347",
            "coinbase": "0x0000000000000000000000000000000000000000",
            "stateRoot": "0xd768fdf7a4bfc570debaf848d88e6c5eff7ade9eb85dd8f542ad06c1797a8a1c",
            "transactionsTrie": "0x56e81f171bcc55a6ff8345e692c0f86e5b48e01b996cadc001622fb5e363b421",
            "receiptTrie": "0x56e81f171bcc55a6ff8345e692c0f86e5b48e01b996cadc001622fb5e363b421",
            "bloom": "0x00000000000000000000000000000000000000000000000000000000000000000000000000000000000000000000000000000000000000000000000000000000000000000000000000000000000000000000000000000000000000000000000000000000000000000000000000000000000000000000000000000000000000000000000000000000000000000000000000000000000000000000000000000000000000000000000000000000000000000000000000000000000000000000000000000000000000000000000000000000000000000000000000000000000000000000000000000000000000000000000000000000000000000000000000000000",
            "difficulty": "0x020000",
            "number": "0x00",
            "gasLimit": "0x07270e00",
            "gasUsed": "0x00",
            "timestamp": "0x00",
            "extraData": "0x00",
            "mixHash": "0x0000000000000000000000000000000000000000000000000000000000000000",
            "nonce": "0x0000000000000000",
            "hash": "0xb19ef4ca9c182d4556dff9f8a0d071e40d0ca3b7a62306015719b6ddc85897e0"
        },
        "pre": {
            "0xa6f6b89915b5c0528222eb8a588a1a5a0ff7b18a": {
                "nonce": "0x01",
                "balance": "0x00",
                "code": "0x6000600060006000600861afc8fa600055",
                "storage": {}
            },
            "0x1ad9bc24818784172ff393bb6f89f094d4d2ca29": {
                "nonce": "0x00",
                "balance": "0x3635c9adc5dea00000",
                "code": "0x",
                "storage": {}
            }
        },
        "postState": {
            "0xa6f6b89915b5c0528222eb8a588a1a5a0ff7b18a": {
                "nonce": "0x01",
                "balance": "0x00",
                "code": "0x6000600060006000600861afc8fa600055",
                "storage": {
                    "0x00": "0x01"
                }
            },
            "0x1ad9bc24818784172ff393bb6f89f094d4d2ca29": {
                "nonce": "0x01",
                "balance": "0x3635c9adc5de92c476",
                "code": "0x",
                "storage": {}
            },
            "0x2adc25665018aa1fe0e6bc666dac8fc2697ff9ba": {
                "nonce": "0x00",
                "balance": "0x1bc16d674ed53b8a",
                "code": "0x",
                "storage": {}
            }
        },
        "lastblockhash": "0x26b51fc2c0aa45d92250dab04273a814c606df02231c77ee9c9bdfebd04bd166",
        "config": {
            "network": "Istanbul",
            "chainid": "0x01"
        },
        "genesisRLP": "0xf901f9f901f4a00000000000000000000000000000000000000000000000000000000000000000a01dcc4de8dec75d7aab85b567b6ccd41ad312451b948a7413f0a142fd40d49347940000000000000000000000000000000000000000a0d768fdf7a4bfc570debaf848d88e6c5eff7ade9eb85dd8f542ad06c1797a8a1ca056e81f171bcc55a6ff8345e692c0f86e5b48e01b996cadc001622fb5e363b421a056e81f171bcc55a6ff8345e692c0f86e5b48e01b996cadc001622fb5e363b421b901000000000000000000000000000000000000000000000000000000000000000000000000000000000000000000000000000000000000000000000000000000000000000000000000000000000000000000000000000000000000000000000000000000000000000000000000000000000000000000000000000000000000000000000000000000000000000000000000000000000000000000000000000000000000000000000000000000000000000000000000000000000000000000000000000000000000000000000000000000000000000000000000000000000000000000000000000000000000000000000000000000000000000000000000000000000083020000808407270e00808000a00000000000000000000000000000000000000000000000000000000000000000880000000000000000c0c0",
        "blocks": [
            {
                "blockHeader": {
                    "parentHash": "0xb19ef4ca9c182d4556dff9f8a0d071e40d0ca3b7a62306015719b6ddc85897e0",
                    "uncleHash": "0x1dcc4de8dec75d7aab85b567b6ccd41ad312451b948a7413f0a142fd40d49347",
                    "coinbase": "0x2adc25665018aa1fe0e6bc666dac8fc2697ff9ba",
                    "stateRoot": "0xf7a7874965be9a6b9e71b7b1b6b0267d9b6dc700a8b6b3bbc03dcedd09069088",
                    "transactionsTrie": "0x37673be10dc66f0970057054f3bc8acc19bd607d35bc36f1000c1c04d9af950b",
                    "receiptTrie": "0xa7a64bb928aa56bf79488316de5aa60b3fcb36a567e1bebd7928332a1915da1b",
                    "bloom": "0x00000000000000000000000000000000000000000000000000000000000000000000000000000000000000000000000000000000000000000000000000000000000000000000000000000000000000000000000000000000000000000000000000000000000000000000000000000000000000000000000000000000000000000000000000000000000000000000000000000000000000000000000000000000000000000000000000000000000000000000000000000000000000000000000000000000000000000000000000000000000000000000000000000000000000000000000000000000000000000000000000000000000000000000000000000000",
                    "difficulty": "0x020000",
                    "number": "0x01",
                    "gasLimit": "0x07270e00",
                    "gasUsed": "0x0152c1",
                    "timestamp": "0x03e8",
                    "extraData": "0x00",
                    "mixHash": "0x0000000000000000000000000000000000000000000000000000000000000000",
                    "nonce": "0x0000000000000000",
                    "hash": "0x26b51fc2c0aa45d92250dab04273a814c606df02231c77ee9c9bdfebd04bd166"
                },
                "transactions": [
                    {
                        "type": "0x00",
                        "chainId": "0x01",
                        "nonce": "0x00",
                        "gasPrice": "0x0a",
                        "gasLimit": "0x0f4240",
                        "to": "0xa6f6b89915b5c0528222eb8a588a1a5a0ff7b18a",
                        "value": "0x00",
                        "data": "0x",
                        "v": "0x26",
                        "r": "0xcb4334e16c26ef41780994a5349e0b36894f51ca320e570e1eaafa20eed1b342",
                        "s": "0x417daa1237cc9460617667267e362958c229703433b4c64715f255c3e9a17ca1",
                        "sender": "0x1ad9bc24818784172ff393bb6f89f094d4d2ca29"
                    }
                ],
                "uncleHeaders": [],
                "receipts": [
                    {
                        "transactionHash": "0xa3dc77924400afc5b746595d9ea136352801ca28df603bc9778d34f90b861ad1",
                        "type": "0x00",
                        "cumulativeGasUsed": "0x0152c1",
                        "bloom": "0x00000000000000000000000000000000000000000000000000000000000000000000000000000000000000000000000000000000000000000000000000000000000000000000000000000000000000000000000000000000000000000000000000000000000000000000000000000000000000000000000000000000000000000000000000000000000000000000000000000000000000000000000000000000000000000000000000000000000000000000000000000000000000000000000000000000000000000000000000000000000000000000000000000000000000000000000000000000000000000000000000000000000000000000000000000000",
                        "logs": [],
                        "status": true,
                        "rlp": "0xf9010901830152c1b9010000000000000000000000000000000000000000000000000000000000000000000000000000000000000000000000000000000000000000000000000000000000000000000000000000000000000000000000000000000000000000000000000000000000000000000000000000000000000000000000000000000000000000000000000000000000000000000000000000000000000000000000000000000000000000000000000000000000000000000000000000000000000000000000000000000000000000000000000000000000000000000000000000000000000000000000000000000000000000000000000000000000000000000000000000000000c0"
                    }
                ],
                "rlp": "0xf90261f901f9a0b19ef4ca9c182d4556dff9f8a0d071e40d0ca3b7a62306015719b6ddc85897e0a01dcc4de8dec75d7aab85b567b6ccd41ad312451b948a7413f0a142fd40d49347942adc25665018aa1fe0e6bc666dac8fc2697ff9baa0f7a7874965be9a6b9e71b7b1b6b0267d9b6dc700a8b6b3bbc03dcedd09069088a037673be10dc66f0970057054f3bc8acc19bd607d35bc36f1000c1c04d9af950ba0a7a64bb928aa56bf79488316de5aa60b3fcb36a567e1bebd7928332a1915da1bb901000000000000000000000000000000000000000000000000000000000000000000000000000000000000000000000000000000000000000000000000000000000000000000000000000000000000000000000000000000000000000000000000000000000000000000000000000000000000000000000000000000000000000000000000000000000000000000000000000000000000000000000000000000000000000000000000000000000000000000000000000000000000000000000000000000000000000000000000000000000000000000000000000000000000000000000000000000000000000000000000000000000000000000000000000000000083020000018407270e00830152c18203e800a00000000000000000000000000000000000000000000000000000000000000000880000000000000000f862f860800a830f424094a6f6b89915b5c0528222eb8a588a1a5a0ff7b18a808026a0cb4334e16c26ef41780994a5349e0b36894f51ca320e570e1eaafa20eed1b342a0417daa1237cc9460617667267e362958c229703433b4c64715f255c3e9a17ca1c0",
                "blocknumber": "1"
            }
        ],
        "sealEngine": "NoProof",
        "_info": {
            "hash": "0xed7dd42847e05800c87bc026a9b73663386814c2a8541fb329b835f1b64598f6",
            "fixture-format": "blockchain_test",
            "comment": "`execution-specs` generated test",
            "filling-transition-tool": "2.19.0",
            "description": "Test the base gas cost of the ecpairing precompile with zero pairs.",
            "url": "https://github.com/ethereum/execution-specs/blob/tests-bal@v5.6.0/tests/byzantium/eip197_ec_pairing/test_gas.py#L31",
            "metadata": {
                "opcode_count": {}
            },
            "reference-spec": "https://github.com/ethereum/EIPs/blob/master/EIPS/eip-197.md",
            "reference-spec-version": "9f9b3d33440e7c122b6c9192facfc380bc009422"
        }
    }
}