{
    "tests/byzantium/eip197_ec_pairing/test_gas.py::test_invalid_gas_consumption[fork_Istanbul-blockchain_test_from_state_test-exact-invalid_g1_point]": {
        "network": "Istanbul",
        "genesisBlockHeader": {
            "parentHash": "0x0000000000000000000000000000000000000000000000000000000000000000",
            "uncleHash": "0x1dcc4de8dec75d7aab85b567b6ccd41ad312451b948a7413f0a142fd40d49347",
            "coinbase": "0x0000000000000000000000000000000000000000",
            "stateRoot": "0x780a26a28a87ca01ce06b5633502c586aae7597a9677ebc4208a203e76aacfbb",
            "transactionsTrie": "0x56e81f171bcc55a6ff8345e692c0f86e5b48e01b996cadc001622fb5e363b421",
            "receiptTrie": "0x56e81f171bcc55a6ff8345e692c0f86e5b48e01b996cadc001622fb5e363b421",
            "bloom": "0x00000000000000000000000000000000000000000000000000000000000000000000000000000000000000000000000000000000000000000000000000000000000000000000000000000000000000000000000000000000000000000000000000000000000000000000000000000000000000000000000000000000000000000000000000000000000000000000000000000000000000000000000000000000000000000000000000000000000000000000000000000000000000000000000000000000000000000000000000000000000000000000000000000000000000000000000000000000000000000000000000000000000000000000000000000000",
            "difficulty": "0x020000",
            "number": "0x00",
            "gasLimit": "0x07270e00",
            "gasUsed": "0x00",
            "timestamp": "0x00",
            "extraData": "0x00",
            "mixHash": "0x0000000000000000000000000000000000000000000000000000000000000000",
            "nonce": "0x0000000000000000",
            "hash": "0x78bd4a8e6f198e6dd373cba1fcead39d20a4815195f9181a977cc2977e147ceb"
        },
        "pre": {
            "0xd446df1281d8766d269c5ba0607cdd54599e0300": {
                "nonce": "0x01",
                "balance": "0x00",
                "code": "0x600160005260036020527f198e9393920d483a7260bfb731fb5d25f1aa493335a9e71297e485b7aef312c26040527f1800deef121f1e76426a00665e5c4479674322d4f75edadd46debd5cd992f6ed6060527f090689d0585ff075ec9e99ad690c3395bc4b313370b38ef355acdadcd122975b6080527f12c85ea5db8c6deb4aab71808dcb408fe3d1e7690c43d37b4ce6cc0166fa7daa60a052600060006000600060086000fa505a6000600060c06000600862013498fa5a9050900360125a5a900301900360005500",
                "storage": {}
            },
            "0x1ad9bc24818784172ff393bb6f89f094d4d2ca29": {
                "nonce": "0x00",
                "balance": "0x3635c9adc5dea00000",
                "code": "0x",
                "storage": {}
            }
        },
        "postState": {
            "0xd446df1281d8766d269c5ba0607cdd54599e0300": {
                "nonce": "0x01",
                "balance": "0x00",
                "code": "0x600160005260036020527f198e9393920d483a7260bfb731fb5d25f1aa493335a9e71297e485b7aef312c26040527f1800deef121f1e76426a00665e5c4479674322d4f75edadd46debd5cd992f6ed6060527f090689d0585ff075ec9e99ad690c3395bc4b313370b38ef355acdadcd122975b6080527f12c85ea5db8c6deb4aab71808dcb408fe3d1e7690c43d37b4ce6cc0166fa7daa60a052600060006000600060086000fa505a6000600060c06000600862013498fa5a9050900360125a5a900301900360005500",
                "storage": {
                    "0x00": "0x013754"
                }
            },
            "0x1ad9bc24818784172ff393bb6f89f094d4d2ca29": {
                "nonce": "0x01",
                "balance": "0x3635c9adc5de8d73f4",
                "code": "0x",
                "storage": {}
            },
            "0x2adc25665018aa1fe0e6bc666dac8fc2697ff9ba": {
                "nonce": "0x00",
                "balance": "0x1bc16d674eda8c0c",
                "code": "0x",
                "storage": {}
            }
        },
        "lastblockhash": "0x4c0a4f5ea39fc9a176df489e44d905fdf1ee30a52e8f1a4c2d8b97efca6c215e",
        "config": {
            "network": "Istanbul",
            "chainid": "0x01"
        },
        "genesisRLP": "0xf901f9f901f4a00000000000000000000000000000000000000000000000000000000000000000a01dcc4de8dec75d7aab85b567b6ccd41ad312451b948a7413f0a142fd40d49347940000000000000000000000000000000000000000a0780a26a28a87ca01ce06b5633502c586aae7597a9677ebc4208a203e76aacfbba056e81f171bcc55a6ff8345e692c0f86e5b48e01b996cadc001622fb5e363b421a056e81f171bcc55a6ff8345e692c0f86e5b48e01b996cadc001622fb5e363b421b901000000000000000000000000000000000000000000000000000000000000000000000000000000000000000000000000000000000000000000000000000000000000000000000000000000000000000000000000000000000000000000000000000000000000000000000000000000000000000000000000000000000000000000000000000000000000000000000000000000000000000000000000000000000000000000000000000000000000000000000000000000000000000000000000000000000000000000000000000000000000000000000000000000000000000000000000000000000000000000000000000000000000000000000000000000000083020000808407270e00808000a00000000000000000000000000000000000000000000000000000000000000000880000000000000000c0c0",
        "blocks": [
            {
                "blockHeader": {
                    "parentHash": "0x78bd4a8e6f198e6dd373cba1fcead39d20a4815195f9181a977cc2977e147ceb",
                    "uncleHash": "0x1dcc4de8dec75d7aab85b567b6ccd41ad312451b948a7413f0a142fd40d49347",
                    "coinbase": "0x2adc25665018aa1fe0e6bc666dac8fc2697ff9ba",
                    "stateRoot": "0x3cb54c613745cf9156dd4bb55b2af8c57a162c013361e6aa2f95749feeeca04e",
                    "transactionsTrie": "0x38add844a997067e6e1c7f9aa1c3b13a0c1435db5bf2cc00e7e48a95e3306996",
                    "receiptTrie": "0xb6f29b1885b77349226b4a6be6e1c3d4fb8eb16a8a2cce62c2acd3e11e59a748",
                    "bloom": "0x00000000000000000000000000000000000000000000000000000000000000000000000000000000000000000000000000000000000000000000000000000000000000000000000000000000000000000000000000000000000000000000000000000000000000000000000000000000000000000000000000000000000000000000000000000000000000000000000000000000000000000000000000000000000000000000000000000000000000000000000000000000000000000000000000000000000000000000000000000000000000000000000000000000000000000000000000000000000000000000000000000000000000000000000000000000",
                    "difficulty": "0x020000",
                    "number": "0x01",
                    "gasLimit": "0x07270e00",
                    "gasUsed": "0x01dace",
                    "timestamp": "0x03e8",
                    "extraData": "0x00",
                    "mixHash": "0x0000000000000000000000000000000000000000000000000000000000000000",
                    "nonce": "0x0000000000000000",
                    "hash": "0x4c0a4f5ea39fc9a176df489e44d905fdf1ee30a52e8f1a4c2d8b97efca6c215e"
                },
                "transactions": [
                    {
                        "type": "0x00",
                        "chainId": "0x01",
                        "nonce": "0x00",
                        "gasPrice": "0x0a",
                        "gasLimit": "0x0f4240",
                        "to": "0xd446df1281d8766d269c5ba0607cdd54599e0300",
                        "value": "0x00",
                        "data": "0x",
                        "v": "0x26",
                        "r": "0xfc963e4195deabef92146f57404f8aea2c08aefcdbcca27405bb4f544639ce46",
                        "s": "0x5f6a018a3b5af04c1ece36db428024117ac86d298aa7508a4c9f1ed579d11b96",
                        "sender": "0x1ad9bc24818784172ff393bb6f89f094d4d2ca29"
                    }
                ],
                "uncleHeaders": [],
                "receipts": [
                    {
                        "transactionHash": "0xf47cfe7470dfb7ecd3933b0074c90081d71289cbefc3345fdefb0e928613db7c",
                        "type": "0x00",
                        "cumulativeGasUsed": "0x01dace",
                        "bloom": "0x00000000000000000000000000000000000000000000000000000000000000000000000000000000000000000000000000000000000000000000000000000000000000000000000000000000000000000000000000000000000000000000000000000000000000000000000000000000000000000000000000000000000000000000000000000000000000000000000000000000000000000000000000000000000000000000000000000000000000000000000000000000000000000000000000000000000000000000000000000000000000000000000000000000000000000000000000000000000000000000000000000000000000000000000000000000",
                        "logs": [],
                        "status": true,
                        "rlp": "0xf90109018301daceb9010000000000000000000000000000000000000000000000000000000000000000000000000000000000000000000000000000000000000000000000000000000000000000000000000000000000000000000000000000000000000000000000000000000000000000000000000000000000000000000000000000000000000000000000000000000000000000000000000000000000000000000000000000000000000000000000000000000000000000000000000000000000000000000000000000000000000000000000000000000000000000000000000000000000000000000000000000000000000000000000000000000000000000000000000000000000c0"
                    }
                ],
                "rlp": "0xf90261f901f9a078bd4a8e6f198e6dd373cba1fcead39d20a4815195f9181a977cc2977e147ceba01dcc4de8dec75d7aab85b567b6ccd41ad312451b948a7413f0a142fd40d49347942adc25665018aa1fe0e6bc666dac8fc2697ff9baa03cb54c613745cf9156dd4bb55b2af8c57a162c013361e6aa2f95749feeeca04ea038add844a997067e6e1c7f9aa1c3b13a0c1435db5bf2cc00e7e48a95e3306996a0b6f29b1885b77349226b4a6be6e1c3d4fb8eb16a8a2cce62c2acd3e11e59a748b901000000000000000000000000000000000000000000000000000000000000000000000000000000000000000000000000000000000000000000000000000000000000000000000000000000000000000000000000000000000000000000000000000000000000000000000000000000000000000000000000000000000000000000000000000000000000000000000000000000000000000000000000000000000000000000000000000000000000000000000000000000000000000000000000000000000000000000000000000000000000000000000000000000000000000000000000000000000000000000000000000000000000000000000000000000000083020000018407270e008301dace8203e800a00000000000000000000000000000000000000000000000000000000000000000880000000000000000f862f860800a830f424094d446df1281d8766d269c5ba0607cdd54599e0300808026a0fc963e4195deabef92146f57404f8aea2c08aefcdbcca27405bb4f544639ce46a05f6a018a3b5af04c1ece36db428024117ac86d298aa7508a4c9f1ed579d11b96c0",
                "blocknumber": "1"
            }
        ],
        "sealEngine": "NoProof",
        "_info": {
            "hash": "0x80c3c0bb6631f817996a4bcf22b9e52b5d5e0112c42901c297c53dd5adcf20c9",
            "fixture-format": "blockchain_test",
            "comment": "`execution-specs` generated test",
            "filling-transition-tool": "2.19.0",
            "description": "Test that invalid input to ecpairing consumes all forwarded gas.\n\nUse CodeGasMeasure to verify the STATICCALL with invalid input\nconsumes exactly the warm call cost plus all forwarded gas.",
            "url": "https://github.com/ethereum/execution-specs/blob/tests-bal@v5.6.0/tests/byzantium/eip197_ec_pairing/test_gas.py#L65",
            "metadata": {
                "opcode_count": {}
            },
            "reference-spec": "https://github.com/ethereum/EIPs/blob/master/EIPS/eip-197.md",
            "reference-spec-version": "9f9b3d33440e7c122b6c9192facfc380bc009422"
        }
    },
    "tests/byzantium/eip197_ec_pairing/test_gas.py::test_invalid_gas_consumption[fork_Istanbul-blockchain_test_from_state_test-extra_100k-invalid_g1_point]": {
        "network": "Istanbul",
        "genesisBlockHeader": {
            "parentHash": "0x0000000000000000000000000000000000000000000000000000000000000000",
            "uncleHash": "0x1dcc4de8dec75d7aab85b567b6ccd41ad312451b948a7413f0a142fd40d49347",
            "coinbase": "0x0000000000000000000000000000000000000000",
            "stateRoot": "0xf69883b297d3ed0da03358387e35424190e2caef8e0b6218f6d7ef4aecaf0d5c",
            "transactionsTrie": "0x56e81f171bcc55a6ff8345e692c0f86e5b48e01b996cadc001622fb5e363b421",
            "receiptTrie": "0x56e81f171bcc55a6ff8345e692c0f86e5b48e01b996cadc001622fb5e363b421",
            "bloom": "0x00000000000000000000000000000000000000000000000000000000000000000000000000000000000000000000000000000000000000000000000000000000000000000000000000000000000000000000000000000000000000000000000000000000000000000000000000000000000000000000000000000000000000000000000000000000000000000000000000000000000000000000000000000000000000000000000000000000000000000000000000000000000000000000000000000000000000000000000000000000000000000000000000000000000000000000000000000000000000000000000000000000000000000000000000000000",
            "difficulty": "0x020000",
            "number": "0x00",
            "gasLimit": "0x07270e00",
            "gasUsed": "0x00",
            "timestamp": "0x00",
            "extraData": "0x00",
            "mixHash": "0x0000000000000000000000000000000000000000000000000000000000000000",
            "nonce": "0x0000000000000000",
            "hash": "0x616f2fa86d83a82f12a3be9595db4eede279c47c4f3f961a1c640708b221baec"
        },
        "pre": {
            "0x386c1728e9ab614dce9670703e390ee9093c0fb8": {
                "nonce": "0x01",
                "balance": "0x00",
                "code": "0x600160005260036020527f198e9393920d483a7260bfb731fb5d25f1aa493335a9e71297e485b7aef312c26040527f1800deef121f1e76426a00665e5c4479674322d4f75edadd46debd5cd992f6ed6060527f090689d0585ff075ec9e99ad690c3395bc4b313370b38ef355acdadcd122975b6080527f12c85ea5db8c6deb4aab71808dcb408fe3d1e7690c43d37b4ce6cc0166fa7daa60a052600060006000600060086000fa505a6000600060c0600060086202bb38fa5a9050900360125a5a900301900360005500",
                "storage": {}
            },
            "0x1ad9bc24818784172ff393bb6f89f094d4d2ca29": {
                "nonce": "0x00",
                "balance": "0x3635c9adc5dea00000",
                "code": "0x",
                "storage": {}
            }
        },
        "postState": {
            "0x386c1728e9ab614dce9670703e390ee9093c0fb8": {
                "nonce": "0x01",
                "balance": "0x00",
                "code": "0x600160005260036020527f198e9393920d483a7260bfb731fb5d25f1aa493335a9e71297e485b7aef312c26040527f1800deef121f1e76426a00665e5c4479674322d4f75edadd46debd5cd992f6ed6060527f090689d0585ff075ec9e99ad690c3395bc4b313370b38ef355acdadcd122975b6080527f12c85ea5db8c6deb4aab71808dcb408fe3d1e7690c43d37b4ce6cc0166fa7daa60a052600060006000600060086000fa505a6000600060c0600060086202bb38fa5a9050900360125a5a900301900360005500",
                "storage": {
                    "0x00": "0x02bdf4"
                }
            },
            "0x1ad9bc24818784172ff393bb6f89f094d4d2ca29": {
                "nonce": "0x01",
                "balance": "0x3635c9adc5de7e31b4",
                "code": "0x",
                "storage": {}
            },
            "0x2adc25665018aa1fe0e6bc666dac8fc2697ff9ba": {
                "nonce": "0x00",
                "balance": "0x1bc16d674ee9ce4c",
                "code": "0x",
                "storage": {}
            }
        },
        "lastblockhash": "0x635097730f991d6d9cc52d0e15ba5184da446331b5aaf86c30e558f19a3c5756",
        "config": {
            "network": "Istanbul",
            "chainid": "0x01"
        },
        "genesisRLP": "0xf901f9f901f4a00000000000000000000000000000000000000000000000000000000000000000a01dcc4de8dec75d7aab85b567b6ccd41ad312451b948a7413f0a142fd40d49347940000000000000000000000000000000000000000a0f69883b297d3ed0da03358387e35424190e2caef8e0b6218f6d7ef4aecaf0d5ca056e81f171bcc55a6ff8345e692c0f86e5b48e01b996cadc001622fb5e363b421a056e81f171bcc55a6ff8345e692c0f86e5b48e01b996cadc001622fb5e363b421b901000000000000000000000000000000000000000000000000000000000000000000000000000000000000000000000000000000000000000000000000000000000000000000000000000000000000000000000000000000000000000000000000000000000000000000000000000000000000000000000000000000000000000000000000000000000000000000000000000000000000000000000000000000000000000000000000000000000000000000000000000000000000000000000000000000000000000000000000000000000000000000000000000000000000000000000000000000000000000000000000000000000000000000000000000000000083020000808407270e00808000a00000000000000000000000000000000000000000000000000000000000000000880000000000000000c0c0",
        "blocks": [
            {
                "blockHeader": {
                    "parentHash": "0x616f2fa86d83a82f12a3be9595db4eede279c47c4f3f961a1c640708b221baec",
                    "uncleHash": "0x1dcc4de8dec75d7aab85b567b6ccd41ad312451b948a7413f0a142fd40d49347",
                    "coinbase": "0x2adc25665018aa1fe0e6bc666dac8fc2697ff9ba",
                    "stateRoot": "0xc21a786ecfea463a24bd86f5695c0684591d10fa641c4d72fe0b6432e28798ca",
                    "transactionsTrie": "0x3912d55b49c6c5db960b8fc2ac3f4b5525c5284c30c42bfdb40fe0261930337b",
                    "receiptTrie": "0xe7cff3e1c86c89b81166f008e2db9a8cca55750ecb547cbb5fdd40a6896f6016",
                    "bloom": "0x00000000000000000000000000000000000000000000000000000000000000000000000000000000000000000000000000000000000000000000000000000000000000000000000000000000000000000000000000000000000000000000000000000000000000000000000000000000000000000000000000000000000000000000000000000000000000000000000000000000000000000000000000000000000000000000000000000000000000000000000000000000000000000000000000000000000000000000000000000000000000000000000000000000000000000000000000000000000000000000000000000000000000000000000000000000",
                    "difficulty": "0x020000",
                    "number": "0x01",
                    "gasLimit": "0x07270e00",
                    "gasUsed": "0x03616e",
                    "timestamp": "0x03e8",
                    "extraData": "0x00",
                    "mixHash": "0x0000000000000000000000000000000000000000000000000000000000000000",
                    "nonce": "0x0000000000000000",
                    "hash": "0x635097730f991d6d9cc52d0e15ba5184da446331b5aaf86c30e558f19a3c5756"
                },
                "transactions": [
                    {
                        "type": "0x00",
                        "chainId": "0x01",
                        "nonce": "0x00",
                        "gasPrice": "0x0a",
                        "gasLimit": "0x0f4240",
                        "to": "0x386c1728e9ab614dce9670703e390ee9093c0fb8",
                        "value": "0x00",
                        "data": "0x",
                        "v": "0x25",
                        "r": "0x72a6863b0aebbcd11c52ac7c5b1921b98db9269343ec76cf00c838af5cc9c761",
                        "s": "0x2886d6827b1032ecf235836e1ca9041678c2b7b40118f318bcaed038f255dc5d",
                        "sender": "0x1ad9bc24818784172ff393bb6f89f094d4d2ca29"
                    }
                ],
                "uncleHeaders": [],
                "receipts": [
                    {
                        "transactionHash": "0x62c7f68f5451ace390a2e725f1ce63afe984e70852f8c7b23af5d74bf34ccbb5",
                        "type": "0x00",
                        "cumulativeGasUsed": "0x03616e",
                        "bloom": "0x00000000000000000000000000000000000000000000000000000000000000000000000000000000000000000000000000000000000000000000000000000000000000000000000000000000000000000000000000000000000000000000000000000000000000000000000000000000000000000000000000000000000000000000000000000000000000000000000000000000000000000000000000000000000000000000000000000000000000000000000000000000000000000000000000000000000000000000000000000000000000000000000000000000000000000000000000000000000000000000000000000000000000000000000000000000",
                        "logs": [],
                        "status": true,
                        "rlp": "0xf90109018303616eb9010000000000000000000000000000000000000000000000000000000000000000000000000000000000000000000000000000000000000000000000000000000000000000000000000000000000000000000000000000000000000000000000000000000000000000000000000000000000000000000000000000000000000000000000000000000000000000000000000000000000000000000000000000000000000000000000000000000000000000000000000000000000000000000000000000000000000000000000000000000000000000000000000000000000000000000000000000000000000000000000000000000000000000000000000000000000c0"
                    }
                ],
                "rlp": "0xf90261f901f9a0616f2fa86d83a82f12a3be9595db4eede279c47c4f3f961a1c640708b221baeca01dcc4de8dec75d7aab85b567b6ccd41ad312451b948a7413f0a142fd40d49347942adc25665018aa1fe0e6bc666dac8fc2697ff9baa0c21a786ecfea463a24bd86f5695c0684591d10fa641c4d72fe0b6432e28798caa03912d55b49c6c5db960b8fc2ac3f4b5525c5284c30c42bfdb40fe0261930337ba0e7cff3e1c86c89b81166f008e2db9a8cca55750ecb547cbb5fdd40a6896f6016b901000000000000000000000000000000000000000000000000000000000000000000000000000000000000000000000000000000000000000000000000000000000000000000000000000000000000000000000000000000000000000000000000000000000000000000000000000000000000000000000000000000000000000000000000000000000000000000000000000000000000000000000000000000000000000000000000000000000000000000000000000000000000000000000000000000000000000000000000000000000000000000000000000000000000000000000000000000000000000000000000000000000000000000000000000000000083020000018407270e008303616e8203e800a00000000000000000000000000000000000000000000000000000000000000000880000000000000000f862f860800a830f424094386c1728e9ab614dce9670703e390ee9093c0fb8808025a072a6863b0aebbcd11c52ac7c5b1921b98db9269343ec76cf00c838af5cc9c761a02886d6827b1032ecf235836e1ca9041678c2b7b40118f318bcaed038f255dc5dc0",
                "blocknumber": "1"
            }
        ],
        "sealEngine": "NoProof",
        "_info": {
            "hash": "0x2b7e4de372db5430f6fef2085d303371a07baf4546a2345dacc8f4ef08d8f217",
            "fixture-format": "blockchain_test",
            "comment": "`execution-specs` generated test",
            "filling-transition-tool": "2.19.0",
            "description": "Test that invalid input to ecpairing consumes all forwarded gas.\n\nUse CodeGasMeasure to verify the STATICCALL with invalid input\nconsumes exactly the warm call cost plus all forwarded gas.",
            "url": "https://github.com/ethereum/execution-specs/blob/tests-bal@v5.6.0/tests/byzantium/eip197_ec_pairing/test_gas.py#L65",
            "metadata": {
                "opcode_count": {}
            },
            "reference-spec": "https://github.com/ethereum/EIPs/blob/master/EIPS/eip-197.md",
            "reference-spec-version": "9f9b3d33440e7c122b6c9192facfc380bc009422"
        }
    }
}