{
    "tests/osaka/eip7883_modexp_gas_increase/test_modexp_thresholds.py::test_modexp_invalid_inputs[fork_Paris-blockchain_test_from_state_test--invalid-case-1]": {
        "network": "Paris",
        "genesisBlockHeader": {
            "parentHash": "0x0000000000000000000000000000000000000000000000000000000000000000",
            "uncleHash": "0x1dcc4de8dec75d7aab85b567b6ccd41ad312451b948a7413f0a142fd40d49347",
            "coinbase": "0x0000000000000000000000000000000000000000",
            "stateRoot": "0x06e713b5114807f0c2f56dbbacc06c432631583f8702054fc940468c1253d384",
            "transactionsTrie": "0x56e81f171bcc55a6ff8345e692c0f86e5b48e01b996cadc001622fb5e363b421",
            "receiptTrie": "0x56e81f171bcc55a6ff8345e692c0f86e5b48e01b996cadc001622fb5e363b421",
            "bloom": "0x00000000000000000000000000000000000000000000000000000000000000000000000000000000000000000000000000000000000000000000000000000000000000000000000000000000000000000000000000000000000000000000000000000000000000000000000000000000000000000000000000000000000000000000000000000000000000000000000000000000000000000000000000000000000000000000000000000000000000000000000000000000000000000000000000000000000000000000000000000000000000000000000000000000000000000000000000000000000000000000000000000000000000000000000000000000",
            "difficulty": "0x00",
            "number": "0x00",
            "gasLimit": "0x07270e00",
            "gasUsed": "0x00",
            "timestamp": "0x00",
            "extraData": "0x00",
            "mixHash": "0x0000000000000000000000000000000000000000000000000000000000000000",
            "nonce": "0x0000000000000000",
            "baseFeePerGas": "0x07",
            "hash": "0x73a030173d3b5e55fa233233f8485649bbae234cf7b7bc9ca1c28f0d55e9382c"
        },
        "pre": {
            "0xc90913fb9daa91fcbfd58cf2a7a486e941d13b4b": {
                "nonce": "0x01",
                "balance": "0x00",
                "code": "0x3660006000375a600060003660006000600560c8f15a906000553d600155",
                "storage": {}
            },
            "0x1ad9bc24818784172ff393bb6f89f094d4d2ca29": {
                "nonce": "0x00",
                "balance": "0x3635c9adc5dea00000",
                "code": "0x",
                "storage": {}
            }
        },
        "postState": {
            "0xc90913fb9daa91fcbfd58cf2a7a486e941d13b4b": {
                "nonce": "0x01",
                "balance": "0x00",
                "code": "0x3660006000375a600060003660006000600560c8f15a906000553d600155",
                "storage": {}
            },
            "0x1ad9bc24818784172ff393bb6f89f094d4d2ca29": {
                "nonce": "0x01",
                "balance": "0x3635c9adc5de9d3e18",
                "code": "0x",
                "storage": {}
            }
        },
        "lastblockhash": "0x211e6d77368b367307d8cccd1c796910a9d872740c44fc7db52031b5b3041baf",
        "config": {
            "network": "Paris",
            "chainid": "0x01"
        },
        "genesisRLP": "0xf901f7f901f2a00000000000000000000000000000000000000000000000000000000000000000a01dcc4de8dec75d7aab85b567b6ccd41ad312451b948a7413f0a142fd40d49347940000000000000000000000000000000000000000a006e713b5114807f0c2f56dbbacc06c432631583f8702054fc940468c1253d384a056e81f171bcc55a6ff8345e692c0f86e5b48e01b996cadc001622fb5e363b421a056e81f171bcc55a6ff8345e692c0f86e5b48e01b996cadc001622fb5e363b421b901000000000000000000000000000000000000000000000000000000000000000000000000000000000000000000000000000000000000000000000000000000000000000000000000000000000000000000000000000000000000000000000000000000000000000000000000000000000000000000000000000000000000000000000000000000000000000000000000000000000000000000000000000000000000000000000000000000000000000000000000000000000000000000000000000000000000000000000000000000000000000000000000000000000000000000000000000000000000000000000000000000000000000000000000000000000080808407270e00808000a0000000000000000000000000000000000000000000000000000000000000000088000000000000000007c0c0",
        "blocks": [
            {
                "blockHeader": {
                    "parentHash": "0x73a030173d3b5e55fa233233f8485649bbae234cf7b7bc9ca1c28f0d55e9382c",
                    "uncleHash": "0x1dcc4de8dec75d7aab85b567b6ccd41ad312451b948a7413f0a142fd40d49347",
                    "coinbase": "0x2adc25665018aa1fe0e6bc666dac8fc2697ff9ba",
                    "stateRoot": "0x5c20c04fb5a5fb666a1ceed4e56762eae31c23eadbb0e127f492b9c8738d19e9",
                    "transactionsTrie": "0x2231713b913eca9a4d4e34407ffc7b9c37ab562050c9d60d9588e19b8e270137",
                    "receiptTrie": "0x4e5f75cec7f41213b911d083f56f2bc7da18f83d941e9a9622c776982f367fe5",
                    "bloom": "0x00000000000000000000000000000000000000000000000000000000000000000000000000000000000000000000000000000000000000000000000000000000000000000000000000000000000000000000000000000000000000000000000000000000000000000000000000000000000000000000000000000000000000000000000000000000000000000000000000000000000000000000000000000000000000000000000000000000000000000000000000000000000000000000000000000000000000000000000000000000000000000000000000000000000000000000000000000000000000000000000000000000000000000000000000000000",
                    "difficulty": "0x00",
                    "number": "0x01",
                    "gasLimit": "0x07270e00",
                    "gasUsed": "0x64d8",
                    "timestamp": "0x03e8",
                    "extraData": "0x00",
                    "mixHash": "0x0000000000000000000000000000000000000000000000000000000000000000",
                    "nonce": "0x0000000000000000",
                    "baseFeePerGas": "0x07",
                    "hash": "0x211e6d77368b367307d8cccd1c796910a9d872740c44fc7db52031b5b3041baf"
                },
                "transactions": [
                    {
                        "type": "0x02",
                        "chainId": "0x01",
                        "nonce": "0x00",
                        "maxPriorityFeePerGas": "0x00",
                        "maxFeePerGas": "0x07",
                        "gasLimit": "0x07f433",
                        "to": "0xc90913fb9daa91fcbfd58cf2a7a486e941d13b4b",
                        "value": "0x00",
                        "data": "0x9e5faafc",
                        "accessList": [],
                        "v": "0x00",
                        "r": "0xd74c13ed2cc47320c2d4ad5e47e35a186dee86b68bd32a7a1e9f2bcea0ecae21",
                        "s": "0x4cd1ce3d5f03755d174246caa4de903624a847eff33aaa9f847f8057deae820b",
                        "sender": "0x1ad9bc24818784172ff393bb6f89f094d4d2ca29"
                    }
                ],
                "uncleHeaders": [],
                "receipts": [
                    {
                        "transactionHash": "0x99173761250542e718b3bfaec9525739e688b4b2f6ea866e008bf41df5236e29",
                        "type": "0x02",
                        "cumulativeGasUsed": "0x64d8",
                        "bloom": "0x00000000000000000000000000000000000000000000000000000000000000000000000000000000000000000000000000000000000000000000000000000000000000000000000000000000000000000000000000000000000000000000000000000000000000000000000000000000000000000000000000000000000000000000000000000000000000000000000000000000000000000000000000000000000000000000000000000000000000000000000000000000000000000000000000000000000000000000000000000000000000000000000000000000000000000000000000000000000000000000000000000000000000000000000000000000",
                        "logs": [],
                        "status": true,
                        "rlp": "0x02f90108018264d8b9010000000000000000000000000000000000000000000000000000000000000000000000000000000000000000000000000000000000000000000000000000000000000000000000000000000000000000000000000000000000000000000000000000000000000000000000000000000000000000000000000000000000000000000000000000000000000000000000000000000000000000000000000000000000000000000000000000000000000000000000000000000000000000000000000000000000000000000000000000000000000000000000000000000000000000000000000000000000000000000000000000000000000000000000000000000000c0"
                    }
                ],
                "rlp": "0xf90268f901f6a073a030173d3b5e55fa233233f8485649bbae234cf7b7bc9ca1c28f0d55e9382ca01dcc4de8dec75d7aab85b567b6ccd41ad312451b948a7413f0a142fd40d49347942adc25665018aa1fe0e6bc666dac8fc2697ff9baa05c20c04fb5a5fb666a1ceed4e56762eae31c23eadbb0e127f492b9c8738d19e9a02231713b913eca9a4d4e34407ffc7b9c37ab562050c9d60d9588e19b8e270137a04e5f75cec7f41213b911d083f56f2bc7da18f83d941e9a9622c776982f367fe5b901000000000000000000000000000000000000000000000000000000000000000000000000000000000000000000000000000000000000000000000000000000000000000000000000000000000000000000000000000000000000000000000000000000000000000000000000000000000000000000000000000000000000000000000000000000000000000000000000000000000000000000000000000000000000000000000000000000000000000000000000000000000000000000000000000000000000000000000000000000000000000000000000000000000000000000000000000000000000000000000000000000000000000000000000000000000080018407270e008264d88203e800a0000000000000000000000000000000000000000000000000000000000000000088000000000000000007f86cb86a02f867018080078307f43394c90913fb9daa91fcbfd58cf2a7a486e941d13b4b80849e5faafcc080a0d74c13ed2cc47320c2d4ad5e47e35a186dee86b68bd32a7a1e9f2bcea0ecae21a04cd1ce3d5f03755d174246caa4de903624a847eff33aaa9f847f8057deae820bc0",
                "blocknumber": "1"
            }
        ],
        "sealEngine": "NoProof",
        "_info": {
            "hash": "0xdb8a804b71d49394022febeceb6a3a711f77900e19de7e3cfc21708eb728eaa6",
            "fixture-format": "blockchain_test",
            "comment": "`execution-specs` generated test",
            "filling-transition-tool": "2.19.0",
            "description": "Test ModExp gas cost with invalid inputs.",
            "url": "https://github.com/ethereum/execution-specs/blob/tests-bal@v5.4.0/tests/osaka/eip7883_modexp_gas_increase/test_modexp_thresholds.py#L78",
            "opcode_count": {},
            "reference-spec": "https://github.com/ethereum/EIPs/blob/master/EIPS/eip-7883.md",
            "reference-spec-version": "13aa65810336d4f243d4563a828d5afe36035d23"
        }
    },
    "tests/osaka/eip7883_modexp_gas_increase/test_modexp_thresholds.py::test_modexp_invalid_inputs[fork_Paris-blockchain_test_from_state_test--invalid-case-2]": {
        "network": "Paris",
        "genesisBlockHeader": {
            "parentHash": "0x0000000000000000000000000000000000000000000000000000000000000000",
            "uncleHash": "0x1dcc4de8dec75d7aab85b567b6ccd41ad312451b948a7413f0a142fd40d49347",
            "coinbase": "0x0000000000000000000000000000000000000000",
            "stateRoot": "0x06e713b5114807f0c2f56dbbacc06c432631583f8702054fc940468c1253d384",
            "transactionsTrie": "0x56e81f171bcc55a6ff8345e692c0f86e5b48e01b996cadc001622fb5e363b421",
            "receiptTrie": "0x56e81f171bcc55a6ff8345e692c0f86e5b48e01b996cadc001622fb5e363b421",
            "bloom": "0x00000000000000000000000000000000000000000000000000000000000000000000000000000000000000000000000000000000000000000000000000000000000000000000000000000000000000000000000000000000000000000000000000000000000000000000000000000000000000000000000000000000000000000000000000000000000000000000000000000000000000000000000000000000000000000000000000000000000000000000000000000000000000000000000000000000000000000000000000000000000000000000000000000000000000000000000000000000000000000000000000000000000000000000000000000000",
            "difficulty": "0x00",
            "number": "0x00",
            "gasLimit": "0x07270e00",
            "gasUsed": "0x00",
            "timestamp": "0x00",
            "extraData": "0x00",
            "mixHash": "0x0000000000000000000000000000000000000000000000000000000000000000",
            "nonce": "0x0000000000000000",
            "baseFeePerGas": "0x07",
            "hash": "0x73a030173d3b5e55fa233233f8485649bbae234cf7b7bc9ca1c28f0d55e9382c"
        },
        "pre": {
            "0xc90913fb9daa91fcbfd58cf2a7a486e941d13b4b": {
                "nonce": "0x01",
                "balance": "0x00",
                "code": "0x3660006000375a600060003660006000600560c8f15a906000553d600155",
                "storage": {}
            },
            "0x1ad9bc24818784172ff393bb6f89f094d4d2ca29": {
                "nonce": "0x00",
                "balance": "0x3635c9adc5dea00000",
                "code": "0x",
                "storage": {}
            }
        },
        "postState": {
            "0xc90913fb9daa91fcbfd58cf2a7a486e941d13b4b": {
                "nonce": "0x01",
                "balance": "0x00",
                "code": "0x3660006000375a600060003660006000600560c8f15a906000553d600155",
                "storage": {}
            },
            "0x1ad9bc24818784172ff393bb6f89f094d4d2ca29": {
                "nonce": "0x01",
                "balance": "0x3635c9adc5de9d3e18",
                "code": "0x",
                "storage": {}
            }
        },
        "lastblockhash": "0x710a28ec81c19fc55efd7a526debd058c83721c511af1bb9fd9c18f6d53337b8",
        "config": {
            "network": "Paris",
            "chainid": "0x01"
        },
        "genesisRLP": "0xf901f7f901f2a00000000000000000000000000000000000000000000000000000000000000000a01dcc4de8dec75d7aab85b567b6ccd41ad312451b948a7413f0a142fd40d49347940000000000000000000000000000000000000000a006e713b5114807f0c2f56dbbacc06c432631583f8702054fc940468c1253d384a056e81f171bcc55a6ff8345e692c0f86e5b48e01b996cadc001622fb5e363b421a056e81f171bcc55a6ff8345e692c0f86e5b48e01b996cadc001622fb5e363b421b901000000000000000000000000000000000000000000000000000000000000000000000000000000000000000000000000000000000000000000000000000000000000000000000000000000000000000000000000000000000000000000000000000000000000000000000000000000000000000000000000000000000000000000000000000000000000000000000000000000000000000000000000000000000000000000000000000000000000000000000000000000000000000000000000000000000000000000000000000000000000000000000000000000000000000000000000000000000000000000000000000000000000000000000000000000000080808407270e00808000a0000000000000000000000000000000000000000000000000000000000000000088000000000000000007c0c0",
        "blocks": [
            {
                "blockHeader": {
                    "parentHash": "0x73a030173d3b5e55fa233233f8485649bbae234cf7b7bc9ca1c28f0d55e9382c",
                    "uncleHash": "0x1dcc4de8dec75d7aab85b567b6ccd41ad312451b948a7413f0a142fd40d49347",
                    "coinbase": "0x2adc25665018aa1fe0e6bc666dac8fc2697ff9ba",
                    "stateRoot": "0x5c20c04fb5a5fb666a1ceed4e56762eae31c23eadbb0e127f492b9c8738d19e9",
                    "transactionsTrie": "0xa2ed3b51c59f4353d726ea7175abfb36830e6898f878e5e731b3923c32d2eb42",
                    "receiptTrie": "0x4e5f75cec7f41213b911d083f56f2bc7da18f83d941e9a9622c776982f367fe5",
                    "bloom": "0x00000000000000000000000000000000000000000000000000000000000000000000000000000000000000000000000000000000000000000000000000000000000000000000000000000000000000000000000000000000000000000000000000000000000000000000000000000000000000000000000000000000000000000000000000000000000000000000000000000000000000000000000000000000000000000000000000000000000000000000000000000000000000000000000000000000000000000000000000000000000000000000000000000000000000000000000000000000000000000000000000000000000000000000000000000000",
                    "difficulty": "0x00",
                    "number": "0x01",
                    "gasLimit": "0x07270e00",
                    "gasUsed": "0x64d8",
                    "timestamp": "0x03e8",
                    "extraData": "0x00",
                    "mixHash": "0x0000000000000000000000000000000000000000000000000000000000000000",
                    "nonce": "0x0000000000000000",
                    "baseFeePerGas": "0x07",
                    "hash": "0x710a28ec81c19fc55efd7a526debd058c83721c511af1bb9fd9c18f6d53337b8"
                },
                "transactions": [
                    {
                        "type": "0x02",
                        "chainId": "0x01",
                        "nonce": "0x00",
                        "maxPriorityFeePerGas": "0x00",
                        "maxFeePerGas": "0x07",
                        "gasLimit": "0x07f433",
                        "to": "0xc90913fb9daa91fcbfd58cf2a7a486e941d13b4b",
                        "value": "0x00",
                        "data": "0x85474728",
                        "accessList": [],
                        "v": "0x01",
                        "r": "0x0e6de7eea306b8c2c625918d30e424fa152d70fe8df47e90874ded8daa1df993",
                        "s": "0xa0a70b70cdc4013f2fbf225ee6df7dc20620554e46de5e8bce6d505eb5dda0",
                        "sender": "0x1ad9bc24818784172ff393bb6f89f094d4d2ca29"
                    }
                ],
                "uncleHeaders": [],
                "receipts": [
                    {
                        "transactionHash": "0x559c3917035eb1f525cbd05af3bca00736261af657499a2eb11ca423a08774ff",
                        "type": "0x02",
                        "cumulativeGasUsed": "0x64d8",
                        "bloom": "0x00000000000000000000000000000000000000000000000000000000000000000000000000000000000000000000000000000000000000000000000000000000000000000000000000000000000000000000000000000000000000000000000000000000000000000000000000000000000000000000000000000000000000000000000000000000000000000000000000000000000000000000000000000000000000000000000000000000000000000000000000000000000000000000000000000000000000000000000000000000000000000000000000000000000000000000000000000000000000000000000000000000000000000000000000000000",
                        "logs": [],
                        "status": true,
                        "rlp": "0x02f90108018264d8b9010000000000000000000000000000000000000000000000000000000000000000000000000000000000000000000000000000000000000000000000000000000000000000000000000000000000000000000000000000000000000000000000000000000000000000000000000000000000000000000000000000000000000000000000000000000000000000000000000000000000000000000000000000000000000000000000000000000000000000000000000000000000000000000000000000000000000000000000000000000000000000000000000000000000000000000000000000000000000000000000000000000000000000000000000000000000c0"
                    }
                ],
                "rlp": "0xf90267f901f6a073a030173d3b5e55fa233233f8485649bbae234cf7b7bc9ca1c28f0d55e9382ca01dcc4de8dec75d7aab85b567b6ccd41ad312451b948a7413f0a142fd40d49347942adc25665018aa1fe0e6bc666dac8fc2697ff9baa05c20c04fb5a5fb666a1ceed4e56762eae31c23eadbb0e127f492b9c8738d19e9a0a2ed3b51c59f4353d726ea7175abfb36830e6898f878e5e731b3923c32d2eb42a04e5f75cec7f41213b911d083f56f2bc7da18f83d941e9a9622c776982f367fe5b901000000000000000000000000000000000000000000000000000000000000000000000000000000000000000000000000000000000000000000000000000000000000000000000000000000000000000000000000000000000000000000000000000000000000000000000000000000000000000000000000000000000000000000000000000000000000000000000000000000000000000000000000000000000000000000000000000000000000000000000000000000000000000000000000000000000000000000000000000000000000000000000000000000000000000000000000000000000000000000000000000000000000000000000000000000000080018407270e008264d88203e800a0000000000000000000000000000000000000000000000000000000000000000088000000000000000007f86bb86902f866018080078307f43394c90913fb9daa91fcbfd58cf2a7a486e941d13b4b808485474728c001a00e6de7eea306b8c2c625918d30e424fa152d70fe8df47e90874ded8daa1df9939fa0a70b70cdc4013f2fbf225ee6df7dc20620554e46de5e8bce6d505eb5dda0c0",
                "blocknumber": "1"
            }
        ],
        "sealEngine": "NoProof",
        "_info": {
            "hash": "0xadbb62a60a3c4107eb26d7d1ada32f42617d289d40c21c8b6bf8731a0866fa15",
            "fixture-format": "blockchain_test",
            "comment": "`execution-specs` generated test",
            "filling-transition-tool": "2.19.0",
            "description": "Test ModExp gas cost with invalid inputs.",
            "url": "https://github.com/ethereum/execution-specs/blob/tests-bal@v5.4.0/tests/osaka/eip7883_modexp_gas_increase/test_modexp_thresholds.py#L78",
            "opcode_count": {},
            "reference-spec": "https://github.com/ethereum/EIPs/blob/master/EIPS/eip-7883.md",
            "reference-spec-version": "13aa65810336d4f243d4563a828d5afe36035d23"
        }
    },
    "tests/osaka/eip7883_modexp_gas_increase/test_modexp_thresholds.py::test_modexp_invalid_inputs[fork_Paris-blockchain_test_from_state_test--invalid-case-3]": {
        "network": "Paris",
        "genesisBlockHeader": {
            "parentHash": "0x0000000000000000000000000000000000000000000000000000000000000000",
            "uncleHash": "0x1dcc4de8dec75d7aab85b567b6ccd41ad312451b948a7413f0a142fd40d49347",
            "coinbase": "0x0000000000000000000000000000000000000000",
            "stateRoot": "0x06e713b5114807f0c2f56dbbacc06c432631583f8702054fc940468c1253d384",
            "transactionsTrie": "0x56e81f171bcc55a6ff8345e692c0f86e5b48e01b996cadc001622fb5e363b421",
            "receiptTrie": "0x56e81f171bcc55a6ff8345e692c0f86e5b48e01b996cadc001622fb5e363b421",
            "bloom": "0x00000000000000000000000000000000000000000000000000000000000000000000000000000000000000000000000000000000000000000000000000000000000000000000000000000000000000000000000000000000000000000000000000000000000000000000000000000000000000000000000000000000000000000000000000000000000000000000000000000000000000000000000000000000000000000000000000000000000000000000000000000000000000000000000000000000000000000000000000000000000000000000000000000000000000000000000000000000000000000000000000000000000000000000000000000000",
            "difficulty": "0x00",
            "number": "0x00",
            "gasLimit": "0x07270e00",
            "gasUsed": "0x00",
            "timestamp": "0x00",
            "extraData": "0x00",
            "mixHash": "0x0000000000000000000000000000000000000000000000000000000000000000",
            "nonce": "0x0000000000000000",
            "baseFeePerGas": "0x07",
            "hash": "0x73a030173d3b5e55fa233233f8485649bbae234cf7b7bc9ca1c28f0d55e9382c"
        },
        "pre": {
            "0xc90913fb9daa91fcbfd58cf2a7a486e941d13b4b": {
                "nonce": "0x01",
                "balance": "0x00",
                "code": "0x3660006000375a600060003660006000600560c8f15a906000553d600155",
                "storage": {}
            },
            "0x1ad9bc24818784172ff393bb6f89f094d4d2ca29": {
                "nonce": "0x00",
                "balance": "0x3635c9adc5dea00000",
                "code": "0x",
                "storage": {}
            }
        },
        "postState": {
            "0xc90913fb9daa91fcbfd58cf2a7a486e941d13b4b": {
                "nonce": "0x01",
                "balance": "0x00",
                "code": "0x3660006000375a600060003660006000600560c8f15a906000553d600155",
                "storage": {}
            },
            "0x1ad9bc24818784172ff393bb6f89f094d4d2ca29": {
                "nonce": "0x01",
                "balance": "0x3635c9adc5de9d3424",
                "code": "0x",
                "storage": {}
            }
        },
        "lastblockhash": "0x486657c34fd3cfc16ba44722c318e7547fec98857dbb48b9c7b0ce967168dda1",
        "config": {
            "network": "Paris",
            "chainid": "0x01"
        },
        "genesisRLP": "0xf901f7f901f2a00000000000000000000000000000000000000000000000000000000000000000a01dcc4de8dec75d7aab85b567b6ccd41ad312451b948a7413f0a142fd40d49347940000000000000000000000000000000000000000a006e713b5114807f0c2f56dbbacc06c432631583f8702054fc940468c1253d384a056e81f171bcc55a6ff8345e692c0f86e5b48e01b996cadc001622fb5e363b421a056e81f171bcc55a6ff8345e692c0f86e5b48e01b996cadc001622fb5e363b421b901000000000000000000000000000000000000000000000000000000000000000000000000000000000000000000000000000000000000000000000000000000000000000000000000000000000000000000000000000000000000000000000000000000000000000000000000000000000000000000000000000000000000000000000000000000000000000000000000000000000000000000000000000000000000000000000000000000000000000000000000000000000000000000000000000000000000000000000000000000000000000000000000000000000000000000000000000000000000000000000000000000000000000000000000000000000080808407270e00808000a0000000000000000000000000000000000000000000000000000000000000000088000000000000000007c0c0",
        "blocks": [
            {
                "blockHeader": {
                    "parentHash": "0x73a030173d3b5e55fa233233f8485649bbae234cf7b7bc9ca1c28f0d55e9382c",
                    "uncleHash": "0x1dcc4de8dec75d7aab85b567b6ccd41ad312451b948a7413f0a142fd40d49347",
                    "coinbase": "0x2adc25665018aa1fe0e6bc666dac8fc2697ff9ba",
                    "stateRoot": "0x8a6ffd7547effe67ef625bf8ff78ca82c1a29be6555468a743259f00510b2db9",
                    "transactionsTrie": "0xd32550db9b6459de6c910c73b3a013240507e4d46ab96f1b5c0b77f194ef9a28",
                    "receiptTrie": "0xcb475c462defcd577eab26532a808a0d98ca79d0aa4ab601a7a82b69935b0f24",
                    "bloom": "0x00000000000000000000000000000000000000000000000000000000000000000000000000000000000000000000000000000000000000000000000000000000000000000000000000000000000000000000000000000000000000000000000000000000000000000000000000000000000000000000000000000000000000000000000000000000000000000000000000000000000000000000000000000000000000000000000000000000000000000000000000000000000000000000000000000000000000000000000000000000000000000000000000000000000000000000000000000000000000000000000000000000000000000000000000000000",
                    "difficulty": "0x00",
                    "number": "0x01",
                    "gasLimit": "0x07270e00",
                    "gasUsed": "0x6644",
                    "timestamp": "0x03e8",
                    "extraData": "0x00",
                    "mixHash": "0x0000000000000000000000000000000000000000000000000000000000000000",
                    "nonce": "0x0000000000000000",
                    "baseFeePerGas": "0x07",
                    "hash": "0x486657c34fd3cfc16ba44722c318e7547fec98857dbb48b9c7b0ce967168dda1"
                },
                "transactions": [
                    {
                        "type": "0x02",
                        "chainId": "0x01",
                        "nonce": "0x00",
                        "maxPriorityFeePerGas": "0x00",
                        "maxFeePerGas": "0x07",
                        "gasLimit": "0x07f599",
                        "to": "0xc90913fb9daa91fcbfd58cf2a7a486e941d13b4b",
                        "value": "0x00",
                        "data": "0x9e281a98000000000000000000000000000000000000000000000000000000000000000000000000000000000000000000000000000000000000021e19e0c9bab2400000",
                        "accessList": [],
                        "v": "0x01",
                        "r": "0x6dbed24e2fad71d82a1cdd32419549cd8061696eedc4091429723ad5b6730014",
                        "s": "0x4273b98116b4557a99446a5b992bedf6e596bcc86bca800b9d474a7b6297799a",
                        "sender": "0x1ad9bc24818784172ff393bb6f89f094d4d2ca29"
                    }
                ],
                "uncleHeaders": [],
                "receipts": [
                    {
                        "transactionHash": "0x3ec7f6b24980f1c8c5b307d747211c7563ed4d64d5e09910cf8941cd04b775ad",
                        "type": "0x02",
                        "cumulativeGasUsed": "0x6644",
                        "bloom": "0x00000000000000000000000000000000000000000000000000000000000000000000000000000000000000000000000000000000000000000000000000000000000000000000000000000000000000000000000000000000000000000000000000000000000000000000000000000000000000000000000000000000000000000000000000000000000000000000000000000000000000000000000000000000000000000000000000000000000000000000000000000000000000000000000000000000000000000000000000000000000000000000000000000000000000000000000000000000000000000000000000000000000000000000000000000000",
                        "logs": [],
                        "status": true,
                        "rlp": "0x02f9010801826644b9010000000000000000000000000000000000000000000000000000000000000000000000000000000000000000000000000000000000000000000000000000000000000000000000000000000000000000000000000000000000000000000000000000000000000000000000000000000000000000000000000000000000000000000000000000000000000000000000000000000000000000000000000000000000000000000000000000000000000000000000000000000000000000000000000000000000000000000000000000000000000000000000000000000000000000000000000000000000000000000000000000000000000000000000000000000000c0"
                    }
                ],
                "rlp": "0xf902a9f901f6a073a030173d3b5e55fa233233f8485649bbae234cf7b7bc9ca1c28f0d55e9382ca01dcc4de8dec75d7aab85b567b6ccd41ad312451b948a7413f0a142fd40d49347942adc25665018aa1fe0e6bc666dac8fc2697ff9baa08a6ffd7547effe67ef625bf8ff78ca82c1a29be6555468a743259f00510b2db9a0d32550db9b6459de6c910c73b3a013240507e4d46ab96f1b5c0b77f194ef9a28a0cb475c462defcd577eab26532a808a0d98ca79d0aa4ab601a7a82b69935b0f24b901000000000000000000000000000000000000000000000000000000000000000000000000000000000000000000000000000000000000000000000000000000000000000000000000000000000000000000000000000000000000000000000000000000000000000000000000000000000000000000000000000000000000000000000000000000000000000000000000000000000000000000000000000000000000000000000000000000000000000000000000000000000000000000000000000000000000000000000000000000000000000000000000000000000000000000000000000000000000000000000000000000000000000000000000000000000080018407270e008266448203e800a0000000000000000000000000000000000000000000000000000000000000000088000000000000000007f8adb8ab02f8a8018080078307f59994c90913fb9daa91fcbfd58cf2a7a486e941d13b4b80b8449e281a98000000000000000000000000000000000000000000000000000000000000000000000000000000000000000000000000000000000000021e19e0c9bab2400000c001a06dbed24e2fad71d82a1cdd32419549cd8061696eedc4091429723ad5b6730014a04273b98116b4557a99446a5b992bedf6e596bcc86bca800b9d474a7b6297799ac0",
                "blocknumber": "1"
            }
        ],
        "sealEngine": "NoProof",
        "_info": {
            "hash": "0x7077ef88802f32f5ef7151a9b182842bef5bd799000c08607c55e626121846dc",
            "fixture-format": "blockchain_test",
            "comment": "`execution-specs` generated test",
            "filling-transition-tool": "2.19.0",
            "description": "Test ModExp gas cost with invalid inputs.",
            "url": "https://github.com/ethereum/execution-specs/blob/tests-bal@v5.4.0/tests/osaka/eip7883_modexp_gas_increase/test_modexp_thresholds.py#L78",
            "opcode_count": {},
            "reference-spec": "https://github.com/ethereum/EIPs/blob/master/EIPS/eip-7883.md",
            "reference-spec-version": "13aa65810336d4f243d4563a828d5afe36035d23"
        }
    }
}