{
    "tests/ported_static/stEIP150singleCodeGasPrices/test_raw_call_gas_value_transfer_ask.py::test_raw_call_gas_value_transfer_ask[fork_Cancun-blockchain_test_from_state_test]": {
        "network": "Cancun",
        "genesisBlockHeader": {
            "parentHash": "0x0000000000000000000000000000000000000000000000000000000000000000",
            "uncleHash": "0x1dcc4de8dec75d7aab85b567b6ccd41ad312451b948a7413f0a142fd40d49347",
            "coinbase": "0x0000000000000000000000000000000000000000",
            "stateRoot": "0xb439dd14e2119e894a8fcef28b25707cb81d005b6398d263400ecfb76a9dc672",
            "transactionsTrie": "0x56e81f171bcc55a6ff8345e692c0f86e5b48e01b996cadc001622fb5e363b421",
            "receiptTrie": "0x56e81f171bcc55a6ff8345e692c0f86e5b48e01b996cadc001622fb5e363b421",
            "bloom": "0x00000000000000000000000000000000000000000000000000000000000000000000000000000000000000000000000000000000000000000000000000000000000000000000000000000000000000000000000000000000000000000000000000000000000000000000000000000000000000000000000000000000000000000000000000000000000000000000000000000000000000000000000000000000000000000000000000000000000000000000000000000000000000000000000000000000000000000000000000000000000000000000000000000000000000000000000000000000000000000000000000000000000000000000000000000000",
            "difficulty": "0x00",
            "number": "0x00",
            "gasLimit": "0x989680",
            "gasUsed": "0x00",
            "timestamp": "0x00",
            "extraData": "0x00",
            "mixHash": "0x0000000000000000000000000000000000000000000000000000000000000000",
            "nonce": "0x0000000000000000",
            "baseFeePerGas": "0x0b",
            "withdrawalsRoot": "0x56e81f171bcc55a6ff8345e692c0f86e5b48e01b996cadc001622fb5e363b421",
            "blobGasUsed": "0x00",
            "excessBlobGas": "0x00",
            "parentBeaconBlockRoot": "0x0000000000000000000000000000000000000000000000000000000000000000",
            "hash": "0xa5f448afe948cd62250a01858b6bd3aa5506f9666bc3e03a6ef95a47c5fab76b"
        },
        "pre": {
            "0x000f3df6d732807ef1319fb7b8bb8522d0beac02": {
                "nonce": "0x01",
                "balance": "0x00",
                "code": "0x3373fffffffffffffffffffffffffffffffffffffffe14604d57602036146024575f5ffd5b5f35801560495762001fff810690815414603c575f5ffd5b62001fff01545f5260205ff35b5f5ffd5b62001fff42064281555f359062001fff015500",
                "storage": {}
            },
            "0xd719ccdb2301950b0a0bdf09a2bb1d5f8b225f6f": {
                "nonce": "0x00",
                "balance": "0xe8d4a51000",
                "code": "0x",
                "storage": {}
            },
            "0x34f4e35bb3257eba777808f944fbe614187e1d94": {
                "nonce": "0x00",
                "balance": "0x00",
                "code": "0x5a60025500",
                "storage": {}
            },
            "0x44af87e58862afbebc808afb87763b598ed00b34": {
                "nonce": "0x00",
                "balance": "0x00",
                "code": "0x5a6000526000600060006000600a7334f4e35bb3257eba777808f944fbe614187e1d94622dc6c0f1505a6000510360015500",
                "storage": {}
            }
        },
        "postState": {
            "0x000f3df6d732807ef1319fb7b8bb8522d0beac02": {
                "nonce": "0x01",
                "balance": "0x00",
                "code": "0x3373fffffffffffffffffffffffffffffffffffffffe14604d57602036146024575f5ffd5b5f35801560495762001fff810690815414603c575f5ffd5b62001fff01545f5260205ff35b5f5ffd5b62001fff42064281555f359062001fff015500",
                "storage": {
                    "0x03e8": "0x03e8"
                }
            },
            "0xd719ccdb2301950b0a0bdf09a2bb1d5f8b225f6f": {
                "nonce": "0x01",
                "balance": "0xe8d499afbc",
                "code": "0x",
                "storage": {}
            },
            "0x34f4e35bb3257eba777808f944fbe614187e1d94": {
                "nonce": "0x00",
                "balance": "0x0a",
                "code": "0x5a60025500",
                "storage": {
                    "0x02": "0x070e1c"
                }
            },
            "0x44af87e58862afbebc808afb87763b598ed00b34": {
                "nonce": "0x00",
                "balance": "0x00",
                "code": "0x5a6000526000600060006000600a7334f4e35bb3257eba777808f944fbe614187e1d94622dc6c0f1505a6000510360015500",
                "storage": {
                    "0x01": "0x7acf"
                }
            }
        },
        "lastblockhash": "0xfbe223d10193831cb0ac85a7f5df60391079da04907f4bcffd8d453253356da7",
        "config": {
            "network": "Cancun",
            "chainid": "0x01",
            "blobSchedule": {
                "Cancun": {
                    "target": "0x03",
                    "max": "0x06",
                    "baseFeeUpdateFraction": "0x32f0ed"
                }
            }
        },
        "genesisRLP": "0xf9023bf90235a00000000000000000000000000000000000000000000000000000000000000000a01dcc4de8dec75d7aab85b567b6ccd41ad312451b948a7413f0a142fd40d49347940000000000000000000000000000000000000000a0b439dd14e2119e894a8fcef28b25707cb81d005b6398d263400ecfb76a9dc672a056e81f171bcc55a6ff8345e692c0f86e5b48e01b996cadc001622fb5e363b421a056e81f171bcc55a6ff8345e692c0f86e5b48e01b996cadc001622fb5e363b421b9010000000000000000000000000000000000000000000000000000000000000000000000000000000000000000000000000000000000000000000000000000000000000000000000000000000000000000000000000000000000000000000000000000000000000000000000000000000000000000000000000000000000000000000000000000000000000000000000000000000000000000000000000000000000000000000000000000000000000000000000000000000000000000000000000000000000000000000000000000000000000000000000000000000000000000000000000000000000000000000000000000000000000000000000000000000000808083989680808000a000000000000000000000000000000000000000000000000000000000000000008800000000000000000ba056e81f171bcc55a6ff8345e692c0f86e5b48e01b996cadc001622fb5e363b4218080a00000000000000000000000000000000000000000000000000000000000000000c0c0c0",
        "blocks": [
            {
                "blockHeader": {
                    "parentHash": "0xa5f448afe948cd62250a01858b6bd3aa5506f9666bc3e03a6ef95a47c5fab76b",
                    "uncleHash": "0x1dcc4de8dec75d7aab85b567b6ccd41ad312451b948a7413f0a142fd40d49347",
                    "coinbase": "0x2adc25665018aa1fe0e6bc666dac8fc2697ff9ba",
                    "stateRoot": "0x7eddcdbb67c30d079e09f5aaa7eeb7b300cb9d7238ad59c1f8bb0953582434bd",
                    "transactionsTrie": "0x88a7197e83ac16dad819ab54c78e95f4878eff9a3db7af04a74ee972eb302881",
                    "receiptTrie": "0x5f5b88ea2ee7ca096c18d1291177ab92fb9ecf3dbda7e3be7b597bfb3970df52",
                    "bloom": "0x00000000000000000000000000000000000000000000000000000000000000000000000000000000000000000000000000000000000000000000000000000000000000000000000000000000000000000000000000000000000000000000000000000000000000000000000000000000000000000000000000000000000000000000000000000000000000000000000000000000000000000000000000000000000000000000000000000000000000000000000000000000000000000000000000000000000000000000000000000000000000000000000000000000000000000000000000000000000000000000000000000000000000000000000000000000",
                    "difficulty": "0x00",
                    "number": "0x01",
                    "gasLimit": "0x989680",
                    "gasUsed": "0x012339",
                    "timestamp": "0x03e8",
                    "extraData": "0x00",
                    "mixHash": "0x0000000000000000000000000000000000000000000000000000000000020000",
                    "nonce": "0x0000000000000000",
                    "baseFeePerGas": "0x0a",
                    "withdrawalsRoot": "0x56e81f171bcc55a6ff8345e692c0f86e5b48e01b996cadc001622fb5e363b421",
                    "blobGasUsed": "0x00",
                    "excessBlobGas": "0x00",
                    "parentBeaconBlockRoot": "0x0000000000000000000000000000000000000000000000000000000000000000",
                    "hash": "0xfbe223d10193831cb0ac85a7f5df60391079da04907f4bcffd8d453253356da7"
                },
                "transactions": [
                    {
                        "type": "0x00",
                        "chainId": "0x01",
                        "nonce": "0x00",
                        "gasPrice": "0x0a",
                        "gasLimit": "0x07a120",
                        "to": "0x44af87e58862afbebc808afb87763b598ed00b34",
                        "value": "0x0a",
                        "data": "0x",
                        "v": "0x26",
                        "r": "0x3e299263f58a3414e73b1a91ebcab59669063a2b593491d80c74b51ce7da61b8",
                        "s": "0x083ad768a09937a1ee975dd3a10941bec257b78428994463861d51d25e4bfc47",
                        "sender": "0xd719ccdb2301950b0a0bdf09a2bb1d5f8b225f6f"
                    }
                ],
                "uncleHeaders": [],
                "withdrawals": [],
                "receipts": [
                    {
                        "transactionHash": "0x8ca6652e775f0eb77d2b5ff9638c8d6a7701cff6d6f9b3e6a0d60cd10dabfe95",
                        "type": "0x00",
                        "cumulativeGasUsed": "0x012339",
                        "bloom": "0x00000000000000000000000000000000000000000000000000000000000000000000000000000000000000000000000000000000000000000000000000000000000000000000000000000000000000000000000000000000000000000000000000000000000000000000000000000000000000000000000000000000000000000000000000000000000000000000000000000000000000000000000000000000000000000000000000000000000000000000000000000000000000000000000000000000000000000000000000000000000000000000000000000000000000000000000000000000000000000000000000000000000000000000000000000000",
                        "logs": [],
                        "status": true,
                        "rlp": "0xf901090183012339b9010000000000000000000000000000000000000000000000000000000000000000000000000000000000000000000000000000000000000000000000000000000000000000000000000000000000000000000000000000000000000000000000000000000000000000000000000000000000000000000000000000000000000000000000000000000000000000000000000000000000000000000000000000000000000000000000000000000000000000000000000000000000000000000000000000000000000000000000000000000000000000000000000000000000000000000000000000000000000000000000000000000000000000000000000000000000c0"
                    }
                ],
                "rlp": "0xf902a3f9023aa0a5f448afe948cd62250a01858b6bd3aa5506f9666bc3e03a6ef95a47c5fab76ba01dcc4de8dec75d7aab85b567b6ccd41ad312451b948a7413f0a142fd40d49347942adc25665018aa1fe0e6bc666dac8fc2697ff9baa07eddcdbb67c30d079e09f5aaa7eeb7b300cb9d7238ad59c1f8bb0953582434bda088a7197e83ac16dad819ab54c78e95f4878eff9a3db7af04a74ee972eb302881a05f5b88ea2ee7ca096c18d1291177ab92fb9ecf3dbda7e3be7b597bfb3970df52b9010000000000000000000000000000000000000000000000000000000000000000000000000000000000000000000000000000000000000000000000000000000000000000000000000000000000000000000000000000000000000000000000000000000000000000000000000000000000000000000000000000000000000000000000000000000000000000000000000000000000000000000000000000000000000000000000000000000000000000000000000000000000000000000000000000000000000000000000000000000000000000000000000000000000000000000000000000000000000000000000000000000000000000000000000000000000800183989680830123398203e800a000000000000000000000000000000000000000000000000000000000000200008800000000000000000aa056e81f171bcc55a6ff8345e692c0f86e5b48e01b996cadc001622fb5e363b4218080a00000000000000000000000000000000000000000000000000000000000000000f862f860800a8307a1209444af87e58862afbebc808afb87763b598ed00b340a8026a03e299263f58a3414e73b1a91ebcab59669063a2b593491d80c74b51ce7da61b8a0083ad768a09937a1ee975dd3a10941bec257b78428994463861d51d25e4bfc47c0c0",
                "blocknumber": "1"
            }
        ],
        "sealEngine": "NoProof",
        "_info": {
            "hash": "0xc53bcb24b54a08ee7730f9beede730a980ac6707ffa8fae8481e010b5cab9ba2",
            "fixture-format": "blockchain_test",
            "comment": "`execution-specs` generated test",
            "filling-transition-tool": "2.19.0",
            "description": "Test_raw_call_gas_value_transfer_ask.",
            "url": "https://github.com/ethereum/execution-specs/blob/tests-snobal-devnet-5@v8037.0.0/tests/ported_static/stEIP150singleCodeGasPrices/test_raw_call_gas_value_transfer_ask.py#L24",
            "metadata": {
                "opcode_count": {}
            },
            "reference-spec": "https://github.com/ethereum/EIPs/blob/master/N/A",
            "reference-spec-version": "N/A"
        }
    }
}