{
    "tests/ported_static/stRandom/test_random_statetest271.py::test_random_statetest271[fork_Cancun-blockchain_test_from_state_test]": {
        "network": "Cancun",
        "genesisBlockHeader": {
            "parentHash": "0x0000000000000000000000000000000000000000000000000000000000000000",
            "uncleHash": "0x1dcc4de8dec75d7aab85b567b6ccd41ad312451b948a7413f0a142fd40d49347",
            "coinbase": "0x0000000000000000000000000000000000000000",
            "stateRoot": "0xd972580932bcded3b0d15f24d6cd236bb8fbbffced63c6bf98f2ba52c4161c51",
            "transactionsTrie": "0x56e81f171bcc55a6ff8345e692c0f86e5b48e01b996cadc001622fb5e363b421",
            "receiptTrie": "0x56e81f171bcc55a6ff8345e692c0f86e5b48e01b996cadc001622fb5e363b421",
            "bloom": "0x00000000000000000000000000000000000000000000000000000000000000000000000000000000000000000000000000000000000000000000000000000000000000000000000000000000000000000000000000000000000000000000000000000000000000000000000000000000000000000000000000000000000000000000000000000000000000000000000000000000000000000000000000000000000000000000000000000000000000000000000000000000000000000000000000000000000000000000000000000000000000000000000000000000000000000000000000000000000000000000000000000000000000000000000000000000",
            "difficulty": "0x00",
            "number": "0x00",
            "gasLimit": "0x7fffffffffffffff",
            "gasUsed": "0x00",
            "timestamp": "0x00",
            "extraData": "0x00",
            "mixHash": "0x0000000000000000000000000000000000000000000000000000000000000000",
            "nonce": "0x0000000000000000",
            "baseFeePerGas": "0x0b",
            "withdrawalsRoot": "0x56e81f171bcc55a6ff8345e692c0f86e5b48e01b996cadc001622fb5e363b421",
            "blobGasUsed": "0x00",
            "excessBlobGas": "0x00",
            "parentBeaconBlockRoot": "0x0000000000000000000000000000000000000000000000000000000000000000",
            "hash": "0x4cbf010a4566bfe934a732a7c62431eee0a4ae7335b7dd79cec7596767e900d5"
        },
        "pre": {
            "0x000f3df6d732807ef1319fb7b8bb8522d0beac02": {
                "nonce": "0x01",
                "balance": "0x00",
                "code": "0x3373fffffffffffffffffffffffffffffffffffffffe14604d57602036146024575f5ffd5b5f35801560495762001fff810690815414603c575f5ffd5b62001fff01545f5260205ff35b5f5ffd5b62001fff42064281555f359062001fff015500",
                "storage": {}
            },
            "0xb45f31dd95616972767dd62e9b996e22566aaec1": {
                "nonce": "0x00",
                "balance": "0x00",
                "code": "0x7f0000000000000000000000000000000000000000000000000000000000000001457f000000000000000000000000000000000000000000000000000000000000c350417f0000000000000000000000004f3f701464972e74606d6ea82d4d3080599a0e797f0000000000000000000000000000000000000000000000000000000000000000357f00000000000000000000000000000000000000000000000000000000000000000b6d7d958a0269995560005155",
                "storage": {}
            },
            "0x4f3f701464972e74606d6ea82d4d3080599a0e79": {
                "nonce": "0x00",
                "balance": "0x2e",
                "code": "0x6000355415600957005b60203560003555",
                "storage": {}
            },
            "0x2e3d0156d2b99a6eacba540c55f423c8f5a33143": {
                "nonce": "0x00",
                "balance": "0x0de0b6b3a7640000",
                "code": "0x",
                "storage": {}
            }
        },
        "postState": {
            "0x000f3df6d732807ef1319fb7b8bb8522d0beac02": {
                "nonce": "0x01",
                "balance": "0x00",
                "code": "0x3373fffffffffffffffffffffffffffffffffffffffe14604d57602036146024575f5ffd5b5f35801560495762001fff810690815414603c575f5ffd5b62001fff01545f5260205ff35b5f5ffd5b62001fff42064281555f359062001fff015500",
                "storage": {
                    "0x03e8": "0x03e8"
                }
            },
            "0xb45f31dd95616972767dd62e9b996e22566aaec1": {
                "nonce": "0x00",
                "balance": "0x0b900eb8",
                "code": "0x7f0000000000000000000000000000000000000000000000000000000000000001457f000000000000000000000000000000000000000000000000000000000000c350417f0000000000000000000000004f3f701464972e74606d6ea82d4d3080599a0e797f0000000000000000000000000000000000000000000000000000000000000000357f00000000000000000000000000000000000000000000000000000000000000000b6d7d958a0269995560005155",
                "storage": {}
            },
            "0x4f3f701464972e74606d6ea82d4d3080599a0e79": {
                "nonce": "0x00",
                "balance": "0x2e",
                "code": "0x6000355415600957005b60203560003555",
                "storage": {}
            },
            "0x2e3d0156d2b99a6eacba540c55f423c8f5a33143": {
                "nonce": "0x01",
                "balance": "0x0de0b6b39bd08e04",
                "code": "0x",
                "storage": {}
            }
        },
        "lastblockhash": "0x419ce1005ab5038c1947eb03d054e8f29deed006d7fd73a5aeff6b87ea1c6362",
        "config": {
            "network": "Cancun",
            "chainid": "0x01",
            "blobSchedule": {
                "Cancun": {
                    "target": "0x03",
                    "max": "0x06",
                    "baseFeeUpdateFraction": "0x32f0ed"
                }
            }
        },
        "genesisRLP": "0xf90240f9023aa00000000000000000000000000000000000000000000000000000000000000000a01dcc4de8dec75d7aab85b567b6ccd41ad312451b948a7413f0a142fd40d49347940000000000000000000000000000000000000000a0d972580932bcded3b0d15f24d6cd236bb8fbbffced63c6bf98f2ba52c4161c51a056e81f171bcc55a6ff8345e692c0f86e5b48e01b996cadc001622fb5e363b421a056e81f171bcc55a6ff8345e692c0f86e5b48e01b996cadc001622fb5e363b421b90100000000000000000000000000000000000000000000000000000000000000000000000000000000000000000000000000000000000000000000000000000000000000000000000000000000000000000000000000000000000000000000000000000000000000000000000000000000000000000000000000000000000000000000000000000000000000000000000000000000000000000000000000000000000000000000000000000000000000000000000000000000000000000000000000000000000000000000000000000000000000000000000000000000000000000000000000000000000000000000000000000000000000000000000000000000008080887fffffffffffffff808000a000000000000000000000000000000000000000000000000000000000000000008800000000000000000ba056e81f171bcc55a6ff8345e692c0f86e5b48e01b996cadc001622fb5e363b4218080a00000000000000000000000000000000000000000000000000000000000000000c0c0c0",
        "blocks": [
            {
                "blockHeader": {
                    "parentHash": "0x4cbf010a4566bfe934a732a7c62431eee0a4ae7335b7dd79cec7596767e900d5",
                    "uncleHash": "0x1dcc4de8dec75d7aab85b567b6ccd41ad312451b948a7413f0a142fd40d49347",
                    "coinbase": "0x4f3f701464972e74606d6ea82d4d3080599a0e79",
                    "stateRoot": "0x00277222c2096ffe7fa9f6ee5276af78a1fb89655d760606024d9fcc62d319e9",
                    "transactionsTrie": "0x0c67658420714167bf68e1ba937d1d8813453170f6eb3014159081fe31d3bdb0",
                    "receiptTrie": "0xa6fc149c37dcb52f146d398fb95671d26596916121b054b243ca677eb82315ab",
                    "bloom": "0x00000000000000000000000000000000000000000000000000000000000000000000000000000000000000000000000000000000000000000000000000000000000000000000000000000000000000000000000000000000000000000000000000000000000000000000000000000000000000000000000000000000000000000000000000000000000000000000000000000000000000000000000000000000000000000000000000000000000000000000000000000000000000000000000000000000000000000000000000000000000000000000000000000000000000000000000000000000000000000000000000000000000000000000000000000000",
                    "difficulty": "0x00",
                    "number": "0x01",
                    "gasLimit": "0x7fffffffffffffff",
                    "gasUsed": "0x56ba",
                    "timestamp": "0x03e8",
                    "extraData": "0x00",
                    "mixHash": "0x0000000000000000000000000000000000000000000000000000000000020000",
                    "nonce": "0x0000000000000000",
                    "baseFeePerGas": "0x0a",
                    "withdrawalsRoot": "0x56e81f171bcc55a6ff8345e692c0f86e5b48e01b996cadc001622fb5e363b421",
                    "blobGasUsed": "0x00",
                    "excessBlobGas": "0x00",
                    "parentBeaconBlockRoot": "0x0000000000000000000000000000000000000000000000000000000000000000",
                    "hash": "0x419ce1005ab5038c1947eb03d054e8f29deed006d7fd73a5aeff6b87ea1c6362"
                },
                "transactions": [
                    {
                        "type": "0x00",
                        "chainId": "0x01",
                        "nonce": "0x00",
                        "gasPrice": "0x0a",
                        "gasLimit": "0x0186a0",
                        "to": "0xb45f31dd95616972767dd62e9b996e22566aaec1",
                        "value": "0x0b900eb8",
                        "data": "0x7f0000000000000000000000000000000000000000000000000000000000000001457f000000000000000000000000000000000000000000000000000000000000c350417f0000000000000000000000004f3f701464972e74606d6ea82d4d3080599a0e797f0000000000000000000000000000000000000000000000000000000000000000357f00000000000000000000000000000000000000000000000000000000000000000b6d7d958a026999",
                        "v": "0x25",
                        "r": "0xb82d7ba1bcd4cd30bef85e853c5b55170b9ee11bcaeedeb8f29bec87616bcff6",
                        "s": "0x62b83a2b3190734960077147426cfd264180fc198c007cf0964c2e9791ef1ead",
                        "sender": "0x2e3d0156d2b99a6eacba540c55f423c8f5a33143"
                    }
                ],
                "uncleHeaders": [],
                "withdrawals": [],
                "receipts": [
                    {
                        "transactionHash": "0x2e00a6234b79428a942f9127fab9e62b0e9e2257873582abf2686e46eb2de29d",
                        "type": "0x00",
                        "cumulativeGasUsed": "0x56ba",
                        "bloom": "0x00000000000000000000000000000000000000000000000000000000000000000000000000000000000000000000000000000000000000000000000000000000000000000000000000000000000000000000000000000000000000000000000000000000000000000000000000000000000000000000000000000000000000000000000000000000000000000000000000000000000000000000000000000000000000000000000000000000000000000000000000000000000000000000000000000000000000000000000000000000000000000000000000000000000000000000000000000000000000000000000000000000000000000000000000000000",
                        "logs": [],
                        "status": true,
                        "rlp": "0xf90108018256bab9010000000000000000000000000000000000000000000000000000000000000000000000000000000000000000000000000000000000000000000000000000000000000000000000000000000000000000000000000000000000000000000000000000000000000000000000000000000000000000000000000000000000000000000000000000000000000000000000000000000000000000000000000000000000000000000000000000000000000000000000000000000000000000000000000000000000000000000000000000000000000000000000000000000000000000000000000000000000000000000000000000000000000000000000000000000000c0"
                    }
                ],
                "rlp": "0xf9035ef9023ea04cbf010a4566bfe934a732a7c62431eee0a4ae7335b7dd79cec7596767e900d5a01dcc4de8dec75d7aab85b567b6ccd41ad312451b948a7413f0a142fd40d49347944f3f701464972e74606d6ea82d4d3080599a0e79a000277222c2096ffe7fa9f6ee5276af78a1fb89655d760606024d9fcc62d319e9a00c67658420714167bf68e1ba937d1d8813453170f6eb3014159081fe31d3bdb0a0a6fc149c37dcb52f146d398fb95671d26596916121b054b243ca677eb82315abb90100000000000000000000000000000000000000000000000000000000000000000000000000000000000000000000000000000000000000000000000000000000000000000000000000000000000000000000000000000000000000000000000000000000000000000000000000000000000000000000000000000000000000000000000000000000000000000000000000000000000000000000000000000000000000000000000000000000000000000000000000000000000000000000000000000000000000000000000000000000000000000000000000000000000000000000000000000000000000000000000000000000000000000000000000000000008001887fffffffffffffff8256ba8203e800a000000000000000000000000000000000000000000000000000000000000200008800000000000000000aa056e81f171bcc55a6ff8345e692c0f86e5b48e01b996cadc001622fb5e363b4218080a00000000000000000000000000000000000000000000000000000000000000000f90118f90115800a830186a094b45f31dd95616972767dd62e9b996e22566aaec1840b900eb8b8b07f0000000000000000000000000000000000000000000000000000000000000001457f000000000000000000000000000000000000000000000000000000000000c350417f0000000000000000000000004f3f701464972e74606d6ea82d4d3080599a0e797f0000000000000000000000000000000000000000000000000000000000000000357f00000000000000000000000000000000000000000000000000000000000000000b6d7d958a02699925a0b82d7ba1bcd4cd30bef85e853c5b55170b9ee11bcaeedeb8f29bec87616bcff6a062b83a2b3190734960077147426cfd264180fc198c007cf0964c2e9791ef1eadc0c0",
                "blocknumber": "1"
            }
        ],
        "sealEngine": "NoProof",
        "_info": {
            "hash": "0xcc10205b26619b7bffb26959cc71e970c106d0cc4c96cf66fcb5aac01b267064",
            "fixture-format": "blockchain_test",
            "comment": "`execution-specs` generated test",
            "filling-transition-tool": "2.19.0",
            "description": "Test_random_statetest271.",
            "url": "https://github.com/ethereum/execution-specs/blob/tests-sn\u00f8bal-devnet-4@v1.0.0/tests/ported_static/stRandom/test_random_statetest271.py#L25",
            "metadata": {
                "opcode_count": {}
            }
        }
    }
}