{
    "tests/ported_static/stStaticCall/test_static_callcallcall_000_suicide_end.py::test_static_callcallcall_000_suicide_end[fork_Cancun-blockchain_test_from_state_test]": {
        "network": "Cancun",
        "genesisBlockHeader": {
            "parentHash": "0x0000000000000000000000000000000000000000000000000000000000000000",
            "uncleHash": "0x1dcc4de8dec75d7aab85b567b6ccd41ad312451b948a7413f0a142fd40d49347",
            "coinbase": "0x0000000000000000000000000000000000000000",
            "stateRoot": "0xe53c0d31ed7c6acf1045f57199b909116ea7bf59515fcedc23c7693ff940e164",
            "transactionsTrie": "0x56e81f171bcc55a6ff8345e692c0f86e5b48e01b996cadc001622fb5e363b421",
            "receiptTrie": "0x56e81f171bcc55a6ff8345e692c0f86e5b48e01b996cadc001622fb5e363b421",
            "bloom": "0x00000000000000000000000000000000000000000000000000000000000000000000000000000000000000000000000000000000000000000000000000000000000000000000000000000000000000000000000000000000000000000000000000000000000000000000000000000000000000000000000000000000000000000000000000000000000000000000000000000000000000000000000000000000000000000000000000000000000000000000000000000000000000000000000000000000000000000000000000000000000000000000000000000000000000000000000000000000000000000000000000000000000000000000000000000000",
            "difficulty": "0x00",
            "number": "0x00",
            "gasLimit": "0x01c9c380",
            "gasUsed": "0x00",
            "timestamp": "0x00",
            "extraData": "0x00",
            "mixHash": "0x0000000000000000000000000000000000000000000000000000000000000000",
            "nonce": "0x0000000000000000",
            "baseFeePerGas": "0x0b",
            "withdrawalsRoot": "0x56e81f171bcc55a6ff8345e692c0f86e5b48e01b996cadc001622fb5e363b421",
            "blobGasUsed": "0x00",
            "excessBlobGas": "0x00",
            "parentBeaconBlockRoot": "0x0000000000000000000000000000000000000000000000000000000000000000",
            "hash": "0x658d2a1aa332ef5350b3aac93e216f1083a98490c72f5df7c92aa7cab2644e89"
        },
        "pre": {
            "0x000f3df6d732807ef1319fb7b8bb8522d0beac02": {
                "nonce": "0x01",
                "balance": "0x00",
                "code": "0x3373fffffffffffffffffffffffffffffffffffffffe14604d57602036146024575f5ffd5b5f35801560495762001fff810690815414603c575f5ffd5b62001fff01545f5260205ff35b5f5ffd5b62001fff42064281555f359062001fff015500",
                "storage": {}
            },
            "0xd66f224cbd2fabb21b17bb53c56118f32f62ebd6": {
                "nonce": "0x00",
                "balance": "0x0de0b6b3a7640000",
                "code": "0x",
                "storage": {}
            },
            "0x3423652bb0c864ac51c919168f106e55d6f7d138": {
                "nonce": "0x00",
                "balance": "0x02540be400",
                "code": "0x600160035200",
                "storage": {}
            },
            "0x569cdc3b32cc3f9747bbde39fd70fead591d2f0d": {
                "nonce": "0x00",
                "balance": "0x0de0b6b3a7640000",
                "code": "0x604060006040600073620b381d01cbd812ffb798ab35a1a316bde90ce6620249f0fa600055600160015500",
                "storage": {}
            },
            "0x620b381d01cbd812ffb798ab35a1a316bde90ce6": {
                "nonce": "0x00",
                "balance": "0x02540be400",
                "code": "0x6001600352604060006040600073cb401da610f6de2240321640e8bf2803ce6bfd0a620186a0fa50600160205200",
                "storage": {}
            },
            "0xcb401da610f6de2240321640e8bf2803ce6bfd0a": {
                "nonce": "0x00",
                "balance": "0x02540be400",
                "code": "0x60016003526040600060406000733423652bb0c864ac51c919168f106e55d6f7d13861c350fa5073620b381d01cbd812ffb798ab35a1a316bde90ce6ff00",
                "storage": {}
            }
        },
        "postState": {
            "0x000f3df6d732807ef1319fb7b8bb8522d0beac02": {
                "nonce": "0x01",
                "balance": "0x00",
                "code": "0x3373fffffffffffffffffffffffffffffffffffffffe14604d57602036146024575f5ffd5b5f35801560495762001fff810690815414603c575f5ffd5b62001fff01545f5260205ff35b5f5ffd5b62001fff42064281555f359062001fff015500",
                "storage": {
                    "0x03e8": "0x03e8"
                }
            },
            "0xd66f224cbd2fabb21b17bb53c56118f32f62ebd6": {
                "nonce": "0x01",
                "balance": "0x0de0b6b3a749fcbe",
                "code": "0x",
                "storage": {}
            },
            "0x3423652bb0c864ac51c919168f106e55d6f7d138": {
                "nonce": "0x00",
                "balance": "0x02540be400",
                "code": "0x600160035200",
                "storage": {}
            },
            "0x569cdc3b32cc3f9747bbde39fd70fead591d2f0d": {
                "nonce": "0x00",
                "balance": "0x0de0b6b3a7640000",
                "code": "0x604060006040600073620b381d01cbd812ffb798ab35a1a316bde90ce6620249f0fa600055600160015500",
                "storage": {
                    "0x00": "0x01",
                    "0x01": "0x01"
                }
            },
            "0x620b381d01cbd812ffb798ab35a1a316bde90ce6": {
                "nonce": "0x00",
                "balance": "0x02540be400",
                "code": "0x6001600352604060006040600073cb401da610f6de2240321640e8bf2803ce6bfd0a620186a0fa50600160205200",
                "storage": {}
            },
            "0xcb401da610f6de2240321640e8bf2803ce6bfd0a": {
                "nonce": "0x00",
                "balance": "0x02540be400",
                "code": "0x60016003526040600060406000733423652bb0c864ac51c919168f106e55d6f7d13861c350fa5073620b381d01cbd812ffb798ab35a1a316bde90ce6ff00",
                "storage": {}
            }
        },
        "lastblockhash": "0x3fed6d78e126689137812df6302fe6ddd123b2db05c08b83db6f969accd569bd",
        "config": {
            "network": "Cancun",
            "chainid": "0x01",
            "blobSchedule": {
                "Cancun": {
                    "target": "0x03",
                    "max": "0x06",
                    "baseFeeUpdateFraction": "0x32f0ed"
                }
            }
        },
        "genesisRLP": "0xf9023cf90236a00000000000000000000000000000000000000000000000000000000000000000a01dcc4de8dec75d7aab85b567b6ccd41ad312451b948a7413f0a142fd40d49347940000000000000000000000000000000000000000a0e53c0d31ed7c6acf1045f57199b909116ea7bf59515fcedc23c7693ff940e164a056e81f171bcc55a6ff8345e692c0f86e5b48e01b996cadc001622fb5e363b421a056e81f171bcc55a6ff8345e692c0f86e5b48e01b996cadc001622fb5e363b421b901000000000000000000000000000000000000000000000000000000000000000000000000000000000000000000000000000000000000000000000000000000000000000000000000000000000000000000000000000000000000000000000000000000000000000000000000000000000000000000000000000000000000000000000000000000000000000000000000000000000000000000000000000000000000000000000000000000000000000000000000000000000000000000000000000000000000000000000000000000000000000000000000000000000000000000000000000000000000000000000000000000000000000000000000000000000080808401c9c380808000a000000000000000000000000000000000000000000000000000000000000000008800000000000000000ba056e81f171bcc55a6ff8345e692c0f86e5b48e01b996cadc001622fb5e363b4218080a00000000000000000000000000000000000000000000000000000000000000000c0c0c0",
        "blocks": [
            {
                "blockHeader": {
                    "parentHash": "0x658d2a1aa332ef5350b3aac93e216f1083a98490c72f5df7c92aa7cab2644e89",
                    "uncleHash": "0x1dcc4de8dec75d7aab85b567b6ccd41ad312451b948a7413f0a142fd40d49347",
                    "coinbase": "0x2adc25665018aa1fe0e6bc666dac8fc2697ff9ba",
                    "stateRoot": "0x76b0a3d9d9a72528bf8bba030a511e5d692331ed398ee5032419be41043f917e",
                    "transactionsTrie": "0x09a958721d0b55755b6225bc8b59a647318547b9e83657da812e7e77da3715a3",
                    "receiptTrie": "0x04d663733b6329be8249184ba8b531b7c87849301f0ec127de0fd6865329d695",
                    "bloom": "0x00000000000000000000000000000000000000000000000000000000000000000000000000000000000000000000000000000000000000000000000000000000000000000000000000000000000000000000000000000000000000000000000000000000000000000000000000000000000000000000000000000000000000000000000000000000000000000000000000000000000000000000000000000000000000000000000000000000000000000000000000000000000000000000000000000000000000000000000000000000000000000000000000000000000000000000000000000000000000000000000000000000000000000000000000000000",
                    "difficulty": "0x00",
                    "number": "0x01",
                    "gasLimit": "0x01c9c380",
                    "gasUsed": "0x0299ed",
                    "timestamp": "0x03e8",
                    "extraData": "0x00",
                    "mixHash": "0x0000000000000000000000000000000000000000000000000000000000020000",
                    "nonce": "0x0000000000000000",
                    "baseFeePerGas": "0x0a",
                    "withdrawalsRoot": "0x56e81f171bcc55a6ff8345e692c0f86e5b48e01b996cadc001622fb5e363b421",
                    "blobGasUsed": "0x00",
                    "excessBlobGas": "0x00",
                    "parentBeaconBlockRoot": "0x0000000000000000000000000000000000000000000000000000000000000000",
                    "hash": "0x3fed6d78e126689137812df6302fe6ddd123b2db05c08b83db6f969accd569bd"
                },
                "transactions": [
                    {
                        "type": "0x00",
                        "chainId": "0x01",
                        "nonce": "0x00",
                        "gasPrice": "0x0a",
                        "gasLimit": "0x2dc6c0",
                        "to": "0x569cdc3b32cc3f9747bbde39fd70fead591d2f0d",
                        "value": "0x00",
                        "data": "0x",
                        "v": "0x25",
                        "r": "0xdf20ae9d0fc27060f7ff6d4bf5bad27cfab14a7ce19c18eb99f2c620b7127570",
                        "s": "0x5c3048c9d1456c4b4592faad325cc145fc46f28b86ca9e5df81b73ec82d53c57",
                        "sender": "0xd66f224cbd2fabb21b17bb53c56118f32f62ebd6"
                    }
                ],
                "uncleHeaders": [],
                "withdrawals": [],
                "receipts": [
                    {
                        "transactionHash": "0x0af700e6615d983bdbfde2c401b13bef62ec6262701bd72485066f753194d0d0",
                        "type": "0x00",
                        "cumulativeGasUsed": "0x0299ed",
                        "bloom": "0x00000000000000000000000000000000000000000000000000000000000000000000000000000000000000000000000000000000000000000000000000000000000000000000000000000000000000000000000000000000000000000000000000000000000000000000000000000000000000000000000000000000000000000000000000000000000000000000000000000000000000000000000000000000000000000000000000000000000000000000000000000000000000000000000000000000000000000000000000000000000000000000000000000000000000000000000000000000000000000000000000000000000000000000000000000000",
                        "logs": [],
                        "status": true,
                        "rlp": "0xf9010901830299edb9010000000000000000000000000000000000000000000000000000000000000000000000000000000000000000000000000000000000000000000000000000000000000000000000000000000000000000000000000000000000000000000000000000000000000000000000000000000000000000000000000000000000000000000000000000000000000000000000000000000000000000000000000000000000000000000000000000000000000000000000000000000000000000000000000000000000000000000000000000000000000000000000000000000000000000000000000000000000000000000000000000000000000000000000000000000000c0"
                    }
                ],
                "rlp": "0xf902a4f9023ba0658d2a1aa332ef5350b3aac93e216f1083a98490c72f5df7c92aa7cab2644e89a01dcc4de8dec75d7aab85b567b6ccd41ad312451b948a7413f0a142fd40d49347942adc25665018aa1fe0e6bc666dac8fc2697ff9baa076b0a3d9d9a72528bf8bba030a511e5d692331ed398ee5032419be41043f917ea009a958721d0b55755b6225bc8b59a647318547b9e83657da812e7e77da3715a3a004d663733b6329be8249184ba8b531b7c87849301f0ec127de0fd6865329d695b901000000000000000000000000000000000000000000000000000000000000000000000000000000000000000000000000000000000000000000000000000000000000000000000000000000000000000000000000000000000000000000000000000000000000000000000000000000000000000000000000000000000000000000000000000000000000000000000000000000000000000000000000000000000000000000000000000000000000000000000000000000000000000000000000000000000000000000000000000000000000000000000000000000000000000000000000000000000000000000000000000000000000000000000000000000000080018401c9c380830299ed8203e800a000000000000000000000000000000000000000000000000000000000000200008800000000000000000aa056e81f171bcc55a6ff8345e692c0f86e5b48e01b996cadc001622fb5e363b4218080a00000000000000000000000000000000000000000000000000000000000000000f862f860800a832dc6c094569cdc3b32cc3f9747bbde39fd70fead591d2f0d808025a0df20ae9d0fc27060f7ff6d4bf5bad27cfab14a7ce19c18eb99f2c620b7127570a05c3048c9d1456c4b4592faad325cc145fc46f28b86ca9e5df81b73ec82d53c57c0c0",
                "blocknumber": "1"
            }
        ],
        "sealEngine": "NoProof",
        "_info": {
            "hash": "0x225dffd8f03f454350eff63e0968023e352734d6e8f9ce52a0d8a43b2223cc70",
            "fixture-format": "blockchain_test",
            "comment": "`execution-specs` generated test",
            "filling-transition-tool": "2.19.0",
            "description": "Test_static_callcallcall_000_suicide_end.",
            "url": "https://github.com/ethereum/execution-specs/blob/tests-snobal-devnet-5@v8037.0.0/tests/ported_static/stStaticCall/test_static_callcallcall_000_suicide_end.py#L24",
            "metadata": {
                "opcode_count": {}
            }
        }
    }
}