{
    "tests/ported_static/stStaticCall/test_static_loop_calls_depth_then_revert.py::test_static_loop_calls_depth_then_revert[fork_Cancun-blockchain_test_from_state_test]": {
        "network": "Cancun",
        "genesisBlockHeader": {
            "parentHash": "0x0000000000000000000000000000000000000000000000000000000000000000",
            "uncleHash": "0x1dcc4de8dec75d7aab85b567b6ccd41ad312451b948a7413f0a142fd40d49347",
            "coinbase": "0x0000000000000000000000000000000000000000",
            "stateRoot": "0x72c1b3158b5e2bb43b07b0ba310be51e8acacee77bf0b6f30167d05d2b19af26",
            "transactionsTrie": "0x56e81f171bcc55a6ff8345e692c0f86e5b48e01b996cadc001622fb5e363b421",
            "receiptTrie": "0x56e81f171bcc55a6ff8345e692c0f86e5b48e01b996cadc001622fb5e363b421",
            "bloom": "0x00000000000000000000000000000000000000000000000000000000000000000000000000000000000000000000000000000000000000000000000000000000000000000000000000000000000000000000000000000000000000000000000000000000000000000000000000000000000000000000000000000000000000000000000000000000000000000000000000000000000000000000000000000000000000000000000000000000000000000000000000000000000000000000000000000000000000000000000000000000000000000000000000000000000000000000000000000000000000000000000000000000000000000000000000000000",
            "difficulty": "0x00",
            "number": "0x00",
            "gasLimit": "0x05f5e100",
            "gasUsed": "0x00",
            "timestamp": "0x00",
            "extraData": "0x00",
            "mixHash": "0x0000000000000000000000000000000000000000000000000000000000000000",
            "nonce": "0x0000000000000000",
            "baseFeePerGas": "0x0b",
            "withdrawalsRoot": "0x56e81f171bcc55a6ff8345e692c0f86e5b48e01b996cadc001622fb5e363b421",
            "blobGasUsed": "0x00",
            "excessBlobGas": "0x00",
            "parentBeaconBlockRoot": "0x0000000000000000000000000000000000000000000000000000000000000000",
            "hash": "0xf8e4d12524042f4ea4a5fed8a3201b2f9888a7971e073b8af28d4adc8c417dca"
        },
        "pre": {
            "0x000f3df6d732807ef1319fb7b8bb8522d0beac02": {
                "nonce": "0x01",
                "balance": "0x00",
                "code": "0x3373fffffffffffffffffffffffffffffffffffffffe14604d57602036146024575f5ffd5b5f35801560495762001fff810690815414603c575f5ffd5b62001fff01545f5260205ff35b5f5ffd5b62001fff42064281555f359062001fff015500",
                "storage": {}
            },
            "0xfaa10b404ab607779993c016cd5da73ae1f29d7e": {
                "nonce": "0x00",
                "balance": "0xe8d4a51000",
                "code": "0x",
                "storage": {}
            },
            "0x15dc6ad6aa4b45c8c5f8658596f0be95f4fb77fd": {
                "nonce": "0x00",
                "balance": "0x00",
                "code": "0x600060006000600060007315dc6ad6aa4b45c8c5f8658596f0be95f4fb77fd620186a05a03f1600055600160015500",
                "storage": {}
            },
            "0x77c35f69d9f67cc9c06c803eb2c0aca9c2a746e6": {
                "nonce": "0x00",
                "balance": "0x00",
                "code": "0x6000600060006000738ac26ad64561031be35e49c24ee18c6e43c217955afa00",
                "storage": {}
            },
            "0x8ac26ad64561031be35e49c24ee18c6e43c21795": {
                "nonce": "0x00",
                "balance": "0x00",
                "code": "0x60006000600060007377c35f69d9f67cc9c06c803eb2c0aca9c2a746e65afa00",
                "storage": {}
            }
        },
        "postState": {
            "0x000f3df6d732807ef1319fb7b8bb8522d0beac02": {
                "nonce": "0x01",
                "balance": "0x00",
                "code": "0x3373fffffffffffffffffffffffffffffffffffffffe14604d57602036146024575f5ffd5b5f35801560495762001fff810690815414603c575f5ffd5b62001fff01545f5260205ff35b5f5ffd5b62001fff42064281555f359062001fff015500",
                "storage": {
                    "0x03e8": "0x03e8"
                }
            },
            "0xfaa10b404ab607779993c016cd5da73ae1f29d7e": {
                "nonce": "0x01",
                "balance": "0xe8d493fe82",
                "code": "0x",
                "storage": {}
            },
            "0x15dc6ad6aa4b45c8c5f8658596f0be95f4fb77fd": {
                "nonce": "0x00",
                "balance": "0x00",
                "code": "0x600060006000600060007315dc6ad6aa4b45c8c5f8658596f0be95f4fb77fd620186a05a03f1600055600160015500",
                "storage": {
                    "0x01": "0x01",
                    "0x00": "0x01"
                }
            },
            "0x77c35f69d9f67cc9c06c803eb2c0aca9c2a746e6": {
                "nonce": "0x00",
                "balance": "0x00",
                "code": "0x6000600060006000738ac26ad64561031be35e49c24ee18c6e43c217955afa00",
                "storage": {}
            },
            "0x8ac26ad64561031be35e49c24ee18c6e43c21795": {
                "nonce": "0x00",
                "balance": "0x00",
                "code": "0x60006000600060007377c35f69d9f67cc9c06c803eb2c0aca9c2a746e65afa00",
                "storage": {}
            }
        },
        "lastblockhash": "0x3573221648b92d23729dbc2960f1d03e5e0f2490bf6e5b5a7c02aeb788ea7714",
        "config": {
            "network": "Cancun",
            "chainid": "0x01",
            "blobSchedule": {
                "Cancun": {
                    "target": "0x03",
                    "max": "0x06",
                    "baseFeeUpdateFraction": "0x32f0ed"
                }
            }
        },
        "genesisRLP": "0xf9023cf90236a00000000000000000000000000000000000000000000000000000000000000000a01dcc4de8dec75d7aab85b567b6ccd41ad312451b948a7413f0a142fd40d49347940000000000000000000000000000000000000000a072c1b3158b5e2bb43b07b0ba310be51e8acacee77bf0b6f30167d05d2b19af26a056e81f171bcc55a6ff8345e692c0f86e5b48e01b996cadc001622fb5e363b421a056e81f171bcc55a6ff8345e692c0f86e5b48e01b996cadc001622fb5e363b421b901000000000000000000000000000000000000000000000000000000000000000000000000000000000000000000000000000000000000000000000000000000000000000000000000000000000000000000000000000000000000000000000000000000000000000000000000000000000000000000000000000000000000000000000000000000000000000000000000000000000000000000000000000000000000000000000000000000000000000000000000000000000000000000000000000000000000000000000000000000000000000000000000000000000000000000000000000000000000000000000000000000000000000000000000000000000080808405f5e100808000a000000000000000000000000000000000000000000000000000000000000000008800000000000000000ba056e81f171bcc55a6ff8345e692c0f86e5b48e01b996cadc001622fb5e363b4218080a00000000000000000000000000000000000000000000000000000000000000000c0c0c0",
        "blocks": [
            {
                "blockHeader": {
                    "parentHash": "0xf8e4d12524042f4ea4a5fed8a3201b2f9888a7971e073b8af28d4adc8c417dca",
                    "uncleHash": "0x1dcc4de8dec75d7aab85b567b6ccd41ad312451b948a7413f0a142fd40d49347",
                    "coinbase": "0x2adc25665018aa1fe0e6bc666dac8fc2697ff9ba",
                    "stateRoot": "0xcaa8e98a2b80c8bc9a83ac8a0a8eb3295a9f3992ca28269beeaeb7949e7870d8",
                    "transactionsTrie": "0xc1b151d88f769f3d24da35e2e86c7b2b2c19bb722f43bf2672549357e9b62468",
                    "receiptTrie": "0x56e2371b010d41fa50bf91467e8197afac3bfb1b2e870c3ff7f44d89863b0286",
                    "bloom": "0x00000000000000000000000000000000000000000000000000000000000000000000000000000000000000000000000000000000000000000000000000000000000000000000000000000000000000000000000000000000000000000000000000000000000000000000000000000000000000000000000000000000000000000000000000000000000000000000000000000000000000000000000000000000000000000000000000000000000000000000000000000000000000000000000000000000000000000000000000000000000000000000000000000000000000000000000000000000000000000000000000000000000000000000000000000000",
                    "difficulty": "0x00",
                    "number": "0x01",
                    "gasLimit": "0x05f5e100",
                    "gasUsed": "0x01b4f3",
                    "timestamp": "0x03e8",
                    "extraData": "0x00",
                    "mixHash": "0x0000000000000000000000000000000000000000000000000000000000020000",
                    "nonce": "0x0000000000000000",
                    "baseFeePerGas": "0x0a",
                    "withdrawalsRoot": "0x56e81f171bcc55a6ff8345e692c0f86e5b48e01b996cadc001622fb5e363b421",
                    "blobGasUsed": "0x00",
                    "excessBlobGas": "0x00",
                    "parentBeaconBlockRoot": "0x0000000000000000000000000000000000000000000000000000000000000000",
                    "hash": "0x3573221648b92d23729dbc2960f1d03e5e0f2490bf6e5b5a7c02aeb788ea7714"
                },
                "transactions": [
                    {
                        "type": "0x00",
                        "chainId": "0x01",
                        "nonce": "0x00",
                        "gasPrice": "0x0a",
                        "gasLimit": "0x989680",
                        "to": "0x15dc6ad6aa4b45c8c5f8658596f0be95f4fb77fd",
                        "value": "0x00",
                        "data": "0x",
                        "v": "0x26",
                        "r": "0x8ba9eff4f079bb19d93722d0ab8d70827edb4f2445f1a5b5675338c6e3a24948",
                        "s": "0x4ac1bf535da19e015958b9e5f9ba3ca10dfb58be5fdbc01ebeaa3912e7c6ab0d",
                        "sender": "0xfaa10b404ab607779993c016cd5da73ae1f29d7e"
                    }
                ],
                "uncleHeaders": [],
                "withdrawals": [],
                "receipts": [
                    {
                        "transactionHash": "0x3163b104a4b7fcb1ecb79224ffb648239c28769e093fef7f7b81373c6e1dbe07",
                        "type": "0x00",
                        "cumulativeGasUsed": "0x01b4f3",
                        "bloom": "0x00000000000000000000000000000000000000000000000000000000000000000000000000000000000000000000000000000000000000000000000000000000000000000000000000000000000000000000000000000000000000000000000000000000000000000000000000000000000000000000000000000000000000000000000000000000000000000000000000000000000000000000000000000000000000000000000000000000000000000000000000000000000000000000000000000000000000000000000000000000000000000000000000000000000000000000000000000000000000000000000000000000000000000000000000000000",
                        "logs": [],
                        "status": true,
                        "rlp": "0xf90109018301b4f3b9010000000000000000000000000000000000000000000000000000000000000000000000000000000000000000000000000000000000000000000000000000000000000000000000000000000000000000000000000000000000000000000000000000000000000000000000000000000000000000000000000000000000000000000000000000000000000000000000000000000000000000000000000000000000000000000000000000000000000000000000000000000000000000000000000000000000000000000000000000000000000000000000000000000000000000000000000000000000000000000000000000000000000000000000000000000000c0"
                    }
                ],
                "rlp": "0xf902a4f9023ba0f8e4d12524042f4ea4a5fed8a3201b2f9888a7971e073b8af28d4adc8c417dcaa01dcc4de8dec75d7aab85b567b6ccd41ad312451b948a7413f0a142fd40d49347942adc25665018aa1fe0e6bc666dac8fc2697ff9baa0caa8e98a2b80c8bc9a83ac8a0a8eb3295a9f3992ca28269beeaeb7949e7870d8a0c1b151d88f769f3d24da35e2e86c7b2b2c19bb722f43bf2672549357e9b62468a056e2371b010d41fa50bf91467e8197afac3bfb1b2e870c3ff7f44d89863b0286b901000000000000000000000000000000000000000000000000000000000000000000000000000000000000000000000000000000000000000000000000000000000000000000000000000000000000000000000000000000000000000000000000000000000000000000000000000000000000000000000000000000000000000000000000000000000000000000000000000000000000000000000000000000000000000000000000000000000000000000000000000000000000000000000000000000000000000000000000000000000000000000000000000000000000000000000000000000000000000000000000000000000000000000000000000000000080018405f5e1008301b4f38203e800a000000000000000000000000000000000000000000000000000000000000200008800000000000000000aa056e81f171bcc55a6ff8345e692c0f86e5b48e01b996cadc001622fb5e363b4218080a00000000000000000000000000000000000000000000000000000000000000000f862f860800a839896809415dc6ad6aa4b45c8c5f8658596f0be95f4fb77fd808026a08ba9eff4f079bb19d93722d0ab8d70827edb4f2445f1a5b5675338c6e3a24948a04ac1bf535da19e015958b9e5f9ba3ca10dfb58be5fdbc01ebeaa3912e7c6ab0dc0c0",
                "blocknumber": "1"
            }
        ],
        "sealEngine": "NoProof",
        "_info": {
            "hash": "0xbc11570452232686734342a22da1b04534c0f88b1cbe5f7eede7da78fab8ca6e",
            "fixture-format": "blockchain_test",
            "comment": "`execution-specs` generated test",
            "filling-transition-tool": "2.19.0",
            "description": "Test_static_loop_calls_depth_then_revert.",
            "url": "https://github.com/ethereum/execution-specs/blob/tests-bal@v5.6.0/tests/ported_static/stStaticCall/test_static_loop_calls_depth_then_revert.py#L25",
            "metadata": {
                "opcode_count": {}
            }
        }
    }
}