{
    "tests/ported_static/stStaticCall/test_static_loop_calls_depth_then_revert.py::test_static_loop_calls_depth_then_revert[fork_Cancun-blockchain_test_from_state_test]": {
        "network": "Cancun",
        "genesisBlockHeader": {
            "parentHash": "0x0000000000000000000000000000000000000000000000000000000000000000",
            "uncleHash": "0x1dcc4de8dec75d7aab85b567b6ccd41ad312451b948a7413f0a142fd40d49347",
            "coinbase": "0x0000000000000000000000000000000000000000",
            "stateRoot": "0x8bcac7c095532d768d89aa092e8049cd42a889dd33ec41b488a81abadb4217b0",
            "transactionsTrie": "0x56e81f171bcc55a6ff8345e692c0f86e5b48e01b996cadc001622fb5e363b421",
            "receiptTrie": "0x56e81f171bcc55a6ff8345e692c0f86e5b48e01b996cadc001622fb5e363b421",
            "bloom": "0x00000000000000000000000000000000000000000000000000000000000000000000000000000000000000000000000000000000000000000000000000000000000000000000000000000000000000000000000000000000000000000000000000000000000000000000000000000000000000000000000000000000000000000000000000000000000000000000000000000000000000000000000000000000000000000000000000000000000000000000000000000000000000000000000000000000000000000000000000000000000000000000000000000000000000000000000000000000000000000000000000000000000000000000000000000000",
            "difficulty": "0x00",
            "number": "0x00",
            "gasLimit": "0x05f5e100",
            "gasUsed": "0x00",
            "timestamp": "0x00",
            "extraData": "0x00",
            "mixHash": "0x0000000000000000000000000000000000000000000000000000000000000000",
            "nonce": "0x0000000000000000",
            "baseFeePerGas": "0x0b",
            "withdrawalsRoot": "0x56e81f171bcc55a6ff8345e692c0f86e5b48e01b996cadc001622fb5e363b421",
            "blobGasUsed": "0x00",
            "excessBlobGas": "0x00",
            "parentBeaconBlockRoot": "0x0000000000000000000000000000000000000000000000000000000000000000",
            "hash": "0xd85d0db2b327f5b6bc7031fc4dbe8bfa0f875dc7b253ab21989ba419484e4d08"
        },
        "pre": {
            "0x000f3df6d732807ef1319fb7b8bb8522d0beac02": {
                "nonce": "0x01",
                "balance": "0x00",
                "code": "0x3373fffffffffffffffffffffffffffffffffffffffe14604d57602036146024575f5ffd5b5f35801560495762001fff810690815414603c575f5ffd5b62001fff01545f5260205ff35b5f5ffd5b62001fff42064281555f359062001fff015500",
                "storage": {}
            },
            "0xd719ccdb2301950b0a0bdf09a2bb1d5f8b225f6f": {
                "nonce": "0x00",
                "balance": "0xe8d4a51000",
                "code": "0x",
                "storage": {}
            },
            "0x15dc6ad6aa4b45c8c5f8658596f0be95f4fb77fd": {
                "nonce": "0x00",
                "balance": "0x00",
                "code": "0x600060006000600060007315dc6ad6aa4b45c8c5f8658596f0be95f4fb77fd620186a05a03f1600055600160015500",
                "storage": {}
            },
            "0x77c35f69d9f67cc9c06c803eb2c0aca9c2a746e6": {
                "nonce": "0x00",
                "balance": "0x00",
                "code": "0x6000600060006000738ac26ad64561031be35e49c24ee18c6e43c217955afa00",
                "storage": {}
            },
            "0x8ac26ad64561031be35e49c24ee18c6e43c21795": {
                "nonce": "0x00",
                "balance": "0x00",
                "code": "0x60006000600060007377c35f69d9f67cc9c06c803eb2c0aca9c2a746e65afa00",
                "storage": {}
            }
        },
        "postState": {
            "0x000f3df6d732807ef1319fb7b8bb8522d0beac02": {
                "nonce": "0x01",
                "balance": "0x00",
                "code": "0x3373fffffffffffffffffffffffffffffffffffffffe14604d57602036146024575f5ffd5b5f35801560495762001fff810690815414603c575f5ffd5b62001fff01545f5260205ff35b5f5ffd5b62001fff42064281555f359062001fff015500",
                "storage": {
                    "0x03e8": "0x03e8"
                }
            },
            "0xd719ccdb2301950b0a0bdf09a2bb1d5f8b225f6f": {
                "nonce": "0x01",
                "balance": "0xe8d493fe82",
                "code": "0x",
                "storage": {}
            },
            "0x15dc6ad6aa4b45c8c5f8658596f0be95f4fb77fd": {
                "nonce": "0x00",
                "balance": "0x00",
                "code": "0x600060006000600060007315dc6ad6aa4b45c8c5f8658596f0be95f4fb77fd620186a05a03f1600055600160015500",
                "storage": {
                    "0x01": "0x01",
                    "0x00": "0x01"
                }
            },
            "0x77c35f69d9f67cc9c06c803eb2c0aca9c2a746e6": {
                "nonce": "0x00",
                "balance": "0x00",
                "code": "0x6000600060006000738ac26ad64561031be35e49c24ee18c6e43c217955afa00",
                "storage": {}
            },
            "0x8ac26ad64561031be35e49c24ee18c6e43c21795": {
                "nonce": "0x00",
                "balance": "0x00",
                "code": "0x60006000600060007377c35f69d9f67cc9c06c803eb2c0aca9c2a746e65afa00",
                "storage": {}
            }
        },
        "lastblockhash": "0xa76db132d783d725f995d1e98e43b79834719e128975791fe55e813c740c85e7",
        "config": {
            "network": "Cancun",
            "chainid": "0x01",
            "blobSchedule": {
                "Cancun": {
                    "target": "0x03",
                    "max": "0x06",
                    "baseFeeUpdateFraction": "0x32f0ed"
                }
            }
        },
        "genesisRLP": "0xf9023cf90236a00000000000000000000000000000000000000000000000000000000000000000a01dcc4de8dec75d7aab85b567b6ccd41ad312451b948a7413f0a142fd40d49347940000000000000000000000000000000000000000a08bcac7c095532d768d89aa092e8049cd42a889dd33ec41b488a81abadb4217b0a056e81f171bcc55a6ff8345e692c0f86e5b48e01b996cadc001622fb5e363b421a056e81f171bcc55a6ff8345e692c0f86e5b48e01b996cadc001622fb5e363b421b901000000000000000000000000000000000000000000000000000000000000000000000000000000000000000000000000000000000000000000000000000000000000000000000000000000000000000000000000000000000000000000000000000000000000000000000000000000000000000000000000000000000000000000000000000000000000000000000000000000000000000000000000000000000000000000000000000000000000000000000000000000000000000000000000000000000000000000000000000000000000000000000000000000000000000000000000000000000000000000000000000000000000000000000000000000000080808405f5e100808000a000000000000000000000000000000000000000000000000000000000000000008800000000000000000ba056e81f171bcc55a6ff8345e692c0f86e5b48e01b996cadc001622fb5e363b4218080a00000000000000000000000000000000000000000000000000000000000000000c0c0c0",
        "blocks": [
            {
                "blockHeader": {
                    "parentHash": "0xd85d0db2b327f5b6bc7031fc4dbe8bfa0f875dc7b253ab21989ba419484e4d08",
                    "uncleHash": "0x1dcc4de8dec75d7aab85b567b6ccd41ad312451b948a7413f0a142fd40d49347",
                    "coinbase": "0x2adc25665018aa1fe0e6bc666dac8fc2697ff9ba",
                    "stateRoot": "0x14827267e248c811cf4af1147f08ff3362911a8174a938dfaa3b8ea7ffde2a21",
                    "transactionsTrie": "0x4864388b7d1c5f81d3ff4b5690cf5e537d84d52db57d96706d657c36dd867644",
                    "receiptTrie": "0x56e2371b010d41fa50bf91467e8197afac3bfb1b2e870c3ff7f44d89863b0286",
                    "bloom": "0x00000000000000000000000000000000000000000000000000000000000000000000000000000000000000000000000000000000000000000000000000000000000000000000000000000000000000000000000000000000000000000000000000000000000000000000000000000000000000000000000000000000000000000000000000000000000000000000000000000000000000000000000000000000000000000000000000000000000000000000000000000000000000000000000000000000000000000000000000000000000000000000000000000000000000000000000000000000000000000000000000000000000000000000000000000000",
                    "difficulty": "0x00",
                    "number": "0x01",
                    "gasLimit": "0x05f5e100",
                    "gasUsed": "0x01b4f3",
                    "timestamp": "0x03e8",
                    "extraData": "0x00",
                    "mixHash": "0x0000000000000000000000000000000000000000000000000000000000020000",
                    "nonce": "0x0000000000000000",
                    "baseFeePerGas": "0x0a",
                    "withdrawalsRoot": "0x56e81f171bcc55a6ff8345e692c0f86e5b48e01b996cadc001622fb5e363b421",
                    "blobGasUsed": "0x00",
                    "excessBlobGas": "0x00",
                    "parentBeaconBlockRoot": "0x0000000000000000000000000000000000000000000000000000000000000000",
                    "hash": "0xa76db132d783d725f995d1e98e43b79834719e128975791fe55e813c740c85e7"
                },
                "transactions": [
                    {
                        "type": "0x00",
                        "chainId": "0x01",
                        "nonce": "0x00",
                        "gasPrice": "0x0a",
                        "gasLimit": "0x989680",
                        "to": "0x15dc6ad6aa4b45c8c5f8658596f0be95f4fb77fd",
                        "value": "0x00",
                        "data": "0x",
                        "v": "0x25",
                        "r": "0x9009b89eb7f44e02bf8c8fee8a55c7eed42ba038dd79366c12bb84d04e42c416",
                        "s": "0x455beb322028551c66cd874134263a9ddb008ff13892ddf7a6b36c99d5648e66",
                        "sender": "0xd719ccdb2301950b0a0bdf09a2bb1d5f8b225f6f"
                    }
                ],
                "uncleHeaders": [],
                "withdrawals": [],
                "receipts": [
                    {
                        "transactionHash": "0x7968b14af5c7255614867eff70060c3b0055cb1e7a0e0a7235124d908db590d4",
                        "type": "0x00",
                        "cumulativeGasUsed": "0x01b4f3",
                        "bloom": "0x00000000000000000000000000000000000000000000000000000000000000000000000000000000000000000000000000000000000000000000000000000000000000000000000000000000000000000000000000000000000000000000000000000000000000000000000000000000000000000000000000000000000000000000000000000000000000000000000000000000000000000000000000000000000000000000000000000000000000000000000000000000000000000000000000000000000000000000000000000000000000000000000000000000000000000000000000000000000000000000000000000000000000000000000000000000",
                        "logs": [],
                        "status": true,
                        "rlp": "0xf90109018301b4f3b9010000000000000000000000000000000000000000000000000000000000000000000000000000000000000000000000000000000000000000000000000000000000000000000000000000000000000000000000000000000000000000000000000000000000000000000000000000000000000000000000000000000000000000000000000000000000000000000000000000000000000000000000000000000000000000000000000000000000000000000000000000000000000000000000000000000000000000000000000000000000000000000000000000000000000000000000000000000000000000000000000000000000000000000000000000000000c0"
                    }
                ],
                "rlp": "0xf902a4f9023ba0d85d0db2b327f5b6bc7031fc4dbe8bfa0f875dc7b253ab21989ba419484e4d08a01dcc4de8dec75d7aab85b567b6ccd41ad312451b948a7413f0a142fd40d49347942adc25665018aa1fe0e6bc666dac8fc2697ff9baa014827267e248c811cf4af1147f08ff3362911a8174a938dfaa3b8ea7ffde2a21a04864388b7d1c5f81d3ff4b5690cf5e537d84d52db57d96706d657c36dd867644a056e2371b010d41fa50bf91467e8197afac3bfb1b2e870c3ff7f44d89863b0286b901000000000000000000000000000000000000000000000000000000000000000000000000000000000000000000000000000000000000000000000000000000000000000000000000000000000000000000000000000000000000000000000000000000000000000000000000000000000000000000000000000000000000000000000000000000000000000000000000000000000000000000000000000000000000000000000000000000000000000000000000000000000000000000000000000000000000000000000000000000000000000000000000000000000000000000000000000000000000000000000000000000000000000000000000000000000080018405f5e1008301b4f38203e800a000000000000000000000000000000000000000000000000000000000000200008800000000000000000aa056e81f171bcc55a6ff8345e692c0f86e5b48e01b996cadc001622fb5e363b4218080a00000000000000000000000000000000000000000000000000000000000000000f862f860800a839896809415dc6ad6aa4b45c8c5f8658596f0be95f4fb77fd808025a09009b89eb7f44e02bf8c8fee8a55c7eed42ba038dd79366c12bb84d04e42c416a0455beb322028551c66cd874134263a9ddb008ff13892ddf7a6b36c99d5648e66c0c0",
                "blocknumber": "1"
            }
        ],
        "sealEngine": "NoProof",
        "_info": {
            "hash": "0x4a7a2ecd6ffaf75e428916ea2b2cb2211b020beaaf83df96fbf6c15acdd41fde",
            "fixture-format": "blockchain_test",
            "comment": "`execution-specs` generated test",
            "filling-transition-tool": "2.19.0",
            "description": "Test_static_loop_calls_depth_then_revert.",
            "url": "https://github.com/ethereum/execution-specs/blob/tests-snobal-devnet-5@v8037.0.0/tests/ported_static/stStaticCall/test_static_loop_calls_depth_then_revert.py#L24",
            "metadata": {
                "opcode_count": {}
            }
        }
    }
}