{
    "tests/ported_static/stEIP4844_blobtransactions/test_opcode_blobh_bounds.py::test_opcode_blobh_bounds[fork_Cancun-blockchain_test_from_state_test]": {
        "network": "Cancun",
        "genesisBlockHeader": {
            "parentHash": "0x0000000000000000000000000000000000000000000000000000000000000000",
            "uncleHash": "0x1dcc4de8dec75d7aab85b567b6ccd41ad312451b948a7413f0a142fd40d49347",
            "coinbase": "0x0000000000000000000000000000000000000000",
            "stateRoot": "0x7f2b3442939b02a4ddfe580e610cce99243e4136b36db138f423c7e09f46b6ef",
            "transactionsTrie": "0x56e81f171bcc55a6ff8345e692c0f86e5b48e01b996cadc001622fb5e363b421",
            "receiptTrie": "0x56e81f171bcc55a6ff8345e692c0f86e5b48e01b996cadc001622fb5e363b421",
            "bloom": "0x00000000000000000000000000000000000000000000000000000000000000000000000000000000000000000000000000000000000000000000000000000000000000000000000000000000000000000000000000000000000000000000000000000000000000000000000000000000000000000000000000000000000000000000000000000000000000000000000000000000000000000000000000000000000000000000000000000000000000000000000000000000000000000000000000000000000000000000000000000000000000000000000000000000000000000000000000000000000000000000000000000000000000000000000000000000",
            "difficulty": "0x00",
            "number": "0x00",
            "gasLimit": "0x1000000000",
            "gasUsed": "0x00",
            "timestamp": "0x00",
            "extraData": "0x00",
            "mixHash": "0x0000000000000000000000000000000000000000000000000000000000000000",
            "nonce": "0x0000000000000000",
            "baseFeePerGas": "0x01",
            "withdrawalsRoot": "0x56e81f171bcc55a6ff8345e692c0f86e5b48e01b996cadc001622fb5e363b421",
            "blobGasUsed": "0x00",
            "excessBlobGas": "0x00",
            "parentBeaconBlockRoot": "0x0000000000000000000000000000000000000000000000000000000000000000",
            "hash": "0x86f8d438ad3187f6fb1fd2641ad6d26f4fc344167ebea4c25a0f4e4e0865d2ca"
        },
        "pre": {
            "0x000f3df6d732807ef1319fb7b8bb8522d0beac02": {
                "nonce": "0x01",
                "balance": "0x00",
                "code": "0x3373fffffffffffffffffffffffffffffffffffffffe14604d57602036146024575f5ffd5b5f35801560495762001fff810690815414603c575f5ffd5b62001fff01545f5260205ff35b5f5ffd5b62001fff42064281555f359062001fff015500",
                "storage": {}
            },
            "0xc8126e943c569c35df09619f8e1e67460acff695": {
                "nonce": "0x00",
                "balance": "0x0de0b6b3a7640000",
                "code": "0x600049600055600a4960015563ffffffff4960025567ffffffffffffffff496003556fffffffffffffffffffffffffffffffff496004557fffffffffffffffffffffffffffffffffffffffffffffffffffffffffffffffff4960055500",
                "storage": {
                    "0x00": "0x01",
                    "0x01": "0x01",
                    "0x02": "0x01",
                    "0x03": "0x01",
                    "0x04": "0x01",
                    "0x05": "0x01"
                }
            },
            "0x2e3d0156d2b99a6eacba540c55f423c8f5a33143": {
                "nonce": "0x00",
                "balance": "0x0de0b6b3a7640000",
                "code": "0x",
                "storage": {}
            }
        },
        "postState": {
            "0x000f3df6d732807ef1319fb7b8bb8522d0beac02": {
                "nonce": "0x01",
                "balance": "0x00",
                "code": "0x3373fffffffffffffffffffffffffffffffffffffffe14604d57602036146024575f5ffd5b5f35801560495762001fff810690815414603c575f5ffd5b62001fff01545f5260205ff35b5f5ffd5b62001fff42064281555f359062001fff015500",
                "storage": {
                    "0x03e8": "0x03e8"
                }
            },
            "0xc8126e943c569c35df09619f8e1e67460acff695": {
                "nonce": "0x00",
                "balance": "0x0de0b6b3a76586a0",
                "code": "0x600049600055600a4960015563ffffffff4960025567ffffffffffffffff496003556fffffffffffffffffffffffffffffffff496004557fffffffffffffffffffffffffffffffffffffffffffffffffffffffffffffffff4960055500",
                "storage": {
                    "0x00": "0x01a915e4d060149eb4365960e6a7a45f334393093061116b197e3240065ff2d8"
                }
            },
            "0x2e3d0156d2b99a6eacba540c55f423c8f5a33143": {
                "nonce": "0x01",
                "balance": "0x0de0b6b3a75c87f3",
                "code": "0x",
                "storage": {}
            },
            "0x2adc25665018aa1fe0e6bc666dac8fc2697ff9ba": {
                "nonce": "0x00",
                "balance": "0x014b9e",
                "code": "0x",
                "storage": {}
            }
        },
        "lastblockhash": "0xdc437abad4908b68f2985bc8d963ac05efb5e0a05a8b2a3883bbb85200b1d163",
        "config": {
            "network": "Cancun",
            "chainid": "0x01",
            "blobSchedule": {
                "Cancun": {
                    "target": "0x03",
                    "max": "0x06",
                    "baseFeeUpdateFraction": "0x32f0ed"
                }
            }
        },
        "genesisRLP": "0xf9023df90237a00000000000000000000000000000000000000000000000000000000000000000a01dcc4de8dec75d7aab85b567b6ccd41ad312451b948a7413f0a142fd40d49347940000000000000000000000000000000000000000a07f2b3442939b02a4ddfe580e610cce99243e4136b36db138f423c7e09f46b6efa056e81f171bcc55a6ff8345e692c0f86e5b48e01b996cadc001622fb5e363b421a056e81f171bcc55a6ff8345e692c0f86e5b48e01b996cadc001622fb5e363b421b90100000000000000000000000000000000000000000000000000000000000000000000000000000000000000000000000000000000000000000000000000000000000000000000000000000000000000000000000000000000000000000000000000000000000000000000000000000000000000000000000000000000000000000000000000000000000000000000000000000000000000000000000000000000000000000000000000000000000000000000000000000000000000000000000000000000000000000000000000000000000000000000000000000000000000000000000000000000000000000000000000000000000000000000000000000000008080851000000000808000a0000000000000000000000000000000000000000000000000000000000000000088000000000000000001a056e81f171bcc55a6ff8345e692c0f86e5b48e01b996cadc001622fb5e363b4218080a00000000000000000000000000000000000000000000000000000000000000000c0c0c0",
        "blocks": [
            {
                "blockHeader": {
                    "parentHash": "0x86f8d438ad3187f6fb1fd2641ad6d26f4fc344167ebea4c25a0f4e4e0865d2ca",
                    "uncleHash": "0x1dcc4de8dec75d7aab85b567b6ccd41ad312451b948a7413f0a142fd40d49347",
                    "coinbase": "0x2adc25665018aa1fe0e6bc666dac8fc2697ff9ba",
                    "stateRoot": "0x5cb2f86864d5ce57d84a82ae906518166c7ea335225af76c4de4e507a1bdb914",
                    "transactionsTrie": "0x859e8f21939d8e8f4cc321713791ddd173a07552dd71e452c6ec7f1bd84e43ec",
                    "receiptTrie": "0xc46c6a6ef67a1235d1f0690903cc0294fa9849f913d000d7661c2ae354bf81a8",
                    "bloom": "0x00000000000000000000000000000000000000000000000000000000000000000000000000000000000000000000000000000000000000000000000000000000000000000000000000000000000000000000000000000000000000000000000000000000000000000000000000000000000000000000000000000000000000000000000000000000000000000000000000000000000000000000000000000000000000000000000000000000000000000000000000000000000000000000000000000000000000000000000000000000000000000000000000000000000000000000000000000000000000000000000000000000000000000000000000000000",
                    "difficulty": "0x00",
                    "number": "0x01",
                    "gasLimit": "0x1000000000",
                    "gasUsed": "0xa5cf",
                    "timestamp": "0x03e8",
                    "extraData": "0x00",
                    "mixHash": "0x0000000000000000000000000000000000000000000000000000000000020000",
                    "nonce": "0x0000000000000000",
                    "baseFeePerGas": "0x01",
                    "withdrawalsRoot": "0x56e81f171bcc55a6ff8345e692c0f86e5b48e01b996cadc001622fb5e363b421",
                    "blobGasUsed": "0x040000",
                    "excessBlobGas": "0x00",
                    "parentBeaconBlockRoot": "0x0000000000000000000000000000000000000000000000000000000000000000",
                    "hash": "0xdc437abad4908b68f2985bc8d963ac05efb5e0a05a8b2a3883bbb85200b1d163"
                },
                "transactions": [
                    {
                        "type": "0x03",
                        "chainId": "0x01",
                        "nonce": "0x00",
                        "maxPriorityFeePerGas": "0x02",
                        "maxFeePerGas": "0x012a05f200",
                        "gasLimit": "0x3d0900",
                        "to": "0xc8126e943c569c35df09619f8e1e67460acff695",
                        "value": "0x0186a0",
                        "data": "0x00",
                        "accessList": [
                            {
                                "address": "0xc8126e943c569c35df09619f8e1e67460acff695",
                                "storageKeys": [
                                    "0x0000000000000000000000000000000000000000000000000000000000000000",
                                    "0x0000000000000000000000000000000000000000000000000000000000000001"
                                ]
                            }
                        ],
                        "maxFeePerBlobGas": "0x0a",
                        "blobVersionedHashes": [
                            "0x01a915e4d060149eb4365960e6a7a45f334393093061116b197e3240065ff2d8",
                            "0x01a915e4d060149eb4365960e6a7a45f334393093061116b197e3240065ff2d8"
                        ],
                        "v": "0x00",
                        "r": "0x168abe011699710cbc524e78c3b922324a98b8dc2df46535115ea59b0a09a0b5",
                        "s": "0x1300db1913956f853ed9946c11af1e2914649e028462d6199a56e6024dc0009b",
                        "sender": "0x2e3d0156d2b99a6eacba540c55f423c8f5a33143"
                    }
                ],
                "uncleHeaders": [],
                "withdrawals": [],
                "receipts": [
                    {
                        "transactionHash": "0x0d948469032c38aa342cae92f3dca756d2cd795348419cd9840570e5e10b3b20",
                        "type": "0x03",
                        "cumulativeGasUsed": "0xa5cf",
                        "bloom": "0x00000000000000000000000000000000000000000000000000000000000000000000000000000000000000000000000000000000000000000000000000000000000000000000000000000000000000000000000000000000000000000000000000000000000000000000000000000000000000000000000000000000000000000000000000000000000000000000000000000000000000000000000000000000000000000000000000000000000000000000000000000000000000000000000000000000000000000000000000000000000000000000000000000000000000000000000000000000000000000000000000000000000000000000000000000000",
                        "logs": [],
                        "status": true,
                        "rlp": "0x03f901080182a5cfb9010000000000000000000000000000000000000000000000000000000000000000000000000000000000000000000000000000000000000000000000000000000000000000000000000000000000000000000000000000000000000000000000000000000000000000000000000000000000000000000000000000000000000000000000000000000000000000000000000000000000000000000000000000000000000000000000000000000000000000000000000000000000000000000000000000000000000000000000000000000000000000000000000000000000000000000000000000000000000000000000000000000000000000000000000000000000c0"
                    }
                ],
                "rlp": "0xf90359f9023ea086f8d438ad3187f6fb1fd2641ad6d26f4fc344167ebea4c25a0f4e4e0865d2caa01dcc4de8dec75d7aab85b567b6ccd41ad312451b948a7413f0a142fd40d49347942adc25665018aa1fe0e6bc666dac8fc2697ff9baa05cb2f86864d5ce57d84a82ae906518166c7ea335225af76c4de4e507a1bdb914a0859e8f21939d8e8f4cc321713791ddd173a07552dd71e452c6ec7f1bd84e43eca0c46c6a6ef67a1235d1f0690903cc0294fa9849f913d000d7661c2ae354bf81a8b9010000000000000000000000000000000000000000000000000000000000000000000000000000000000000000000000000000000000000000000000000000000000000000000000000000000000000000000000000000000000000000000000000000000000000000000000000000000000000000000000000000000000000000000000000000000000000000000000000000000000000000000000000000000000000000000000000000000000000000000000000000000000000000000000000000000000000000000000000000000000000000000000000000000000000000000000000000000000000000000000000000000000000000000000000000000000800185100000000082a5cf8203e800a0000000000000000000000000000000000000000000000000000000000002000088000000000000000001a056e81f171bcc55a6ff8345e692c0f86e5b48e01b996cadc001622fb5e363b4218304000080a00000000000000000000000000000000000000000000000000000000000000000f90113b9011003f9010c01800285012a05f200833d090094c8126e943c569c35df09619f8e1e67460acff695830186a000f85bf85994c8126e943c569c35df09619f8e1e67460acff695f842a00000000000000000000000000000000000000000000000000000000000000000a000000000000000000000000000000000000000000000000000000000000000010af842a001a915e4d060149eb4365960e6a7a45f334393093061116b197e3240065ff2d8a001a915e4d060149eb4365960e6a7a45f334393093061116b197e3240065ff2d880a0168abe011699710cbc524e78c3b922324a98b8dc2df46535115ea59b0a09a0b5a01300db1913956f853ed9946c11af1e2914649e028462d6199a56e6024dc0009bc0c0",
                "blocknumber": "1"
            }
        ],
        "sealEngine": "NoProof",
        "_info": {
            "hash": "0x5f14176308f87d1288d842bd529338439d25adb35fcd26880715d37e409ac373",
            "fixture-format": "blockchain_test",
            "comment": "`execution-specs` generated test",
            "filling-transition-tool": "2.19.0",
            "description": "BLOB005.",
            "url": "https://github.com/ethereum/execution-specs/blob/tests-bal@v5.7.0/tests/ported_static/stEIP4844_blobtransactions/test_opcode_blobh_bounds.py#L27",
            "metadata": {
                "opcode_count": {}
            },
            "reference-spec": "https://github.com/ethereum/EIPs/blob/master/N/A",
            "reference-spec-version": "N/A"
        }
    }
}