{
    "tests/byzantium/eip197_ec_pairing/test_ecpairing.py::test_gas[fork_Istanbul-blockchain_test_from_state_test-empty_data_insufficient_gas-ecpairing]": {
        "network": "Istanbul",
        "genesisBlockHeader": {
            "parentHash": "0x0000000000000000000000000000000000000000000000000000000000000000",
            "uncleHash": "0x1dcc4de8dec75d7aab85b567b6ccd41ad312451b948a7413f0a142fd40d49347",
            "coinbase": "0x0000000000000000000000000000000000000000",
            "stateRoot": "0xe126962ee8a461e94b9e36fe56aaf2282aa246f151652548440e3e54fc6c17f1",
            "transactionsTrie": "0x56e81f171bcc55a6ff8345e692c0f86e5b48e01b996cadc001622fb5e363b421",
            "receiptTrie": "0x56e81f171bcc55a6ff8345e692c0f86e5b48e01b996cadc001622fb5e363b421",
            "bloom": "0x00000000000000000000000000000000000000000000000000000000000000000000000000000000000000000000000000000000000000000000000000000000000000000000000000000000000000000000000000000000000000000000000000000000000000000000000000000000000000000000000000000000000000000000000000000000000000000000000000000000000000000000000000000000000000000000000000000000000000000000000000000000000000000000000000000000000000000000000000000000000000000000000000000000000000000000000000000000000000000000000000000000000000000000000000000000",
            "difficulty": "0x020000",
            "number": "0x00",
            "gasLimit": "0x07270e00",
            "gasUsed": "0x00",
            "timestamp": "0x00",
            "extraData": "0x00",
            "mixHash": "0x0000000000000000000000000000000000000000000000000000000000000000",
            "nonce": "0x0000000000000000",
            "hash": "0xfe0da333eb0aaeb72f75cf15358531e458c53b161ed55ab4f0d8f8d03583bc34"
        },
        "pre": {
            "0xa77cba73ca81ae31a85b26ded3ce45e4bc5945a5": {
                "nonce": "0x01",
                "balance": "0x00",
                "code": "0x366000600037600060003660006000600861afc7f16000553d600155",
                "storage": {}
            },
            "0x1ad9bc24818784172ff393bb6f89f094d4d2ca29": {
                "nonce": "0x00",
                "balance": "0x3635c9adc5dea00000",
                "code": "0x",
                "storage": {}
            }
        },
        "postState": {
            "0xa77cba73ca81ae31a85b26ded3ce45e4bc5945a5": {
                "nonce": "0x01",
                "balance": "0x00",
                "code": "0x366000600037600060003660006000600861afc7f16000553d600155",
                "storage": {}
            },
            "0x1ad9bc24818784172ff393bb6f89f094d4d2ca29": {
                "nonce": "0x01",
                "balance": "0x3635c9adc5de95928c",
                "code": "0x",
                "storage": {}
            },
            "0x2adc25665018aa1fe0e6bc666dac8fc2697ff9ba": {
                "nonce": "0x00",
                "balance": "0x1bc16d674ed26d74",
                "code": "0x",
                "storage": {}
            }
        },
        "lastblockhash": "0xf5de7679d67113a779eef0c92221784c510622bb9e5c8f576599b3b97e3a18f1",
        "config": {
            "network": "Istanbul",
            "chainid": "0x01"
        },
        "genesisRLP": "0xf901f9f901f4a00000000000000000000000000000000000000000000000000000000000000000a01dcc4de8dec75d7aab85b567b6ccd41ad312451b948a7413f0a142fd40d49347940000000000000000000000000000000000000000a0e126962ee8a461e94b9e36fe56aaf2282aa246f151652548440e3e54fc6c17f1a056e81f171bcc55a6ff8345e692c0f86e5b48e01b996cadc001622fb5e363b421a056e81f171bcc55a6ff8345e692c0f86e5b48e01b996cadc001622fb5e363b421b901000000000000000000000000000000000000000000000000000000000000000000000000000000000000000000000000000000000000000000000000000000000000000000000000000000000000000000000000000000000000000000000000000000000000000000000000000000000000000000000000000000000000000000000000000000000000000000000000000000000000000000000000000000000000000000000000000000000000000000000000000000000000000000000000000000000000000000000000000000000000000000000000000000000000000000000000000000000000000000000000000000000000000000000000000000000083020000808407270e00808000a00000000000000000000000000000000000000000000000000000000000000000880000000000000000c0c0",
        "blocks": [
            {
                "blockHeader": {
                    "parentHash": "0xfe0da333eb0aaeb72f75cf15358531e458c53b161ed55ab4f0d8f8d03583bc34",
                    "uncleHash": "0x1dcc4de8dec75d7aab85b567b6ccd41ad312451b948a7413f0a142fd40d49347",
                    "coinbase": "0x2adc25665018aa1fe0e6bc666dac8fc2697ff9ba",
                    "stateRoot": "0x137680f3a95fa420403ad235c2ed9d01b77fa24a96eab70cbd0129335b85334a",
                    "transactionsTrie": "0x95f683325c4ad58c934f5c6088f7d0ce98d55e9f2e4376bf29b7967b85b30060",
                    "receiptTrie": "0xe63b203f1899bf5bc0e0c70f9f16761cebcce9189df30ee0b3e76634c4b0af79",
                    "bloom": "0x00000000000000000000000000000000000000000000000000000000000000000000000000000000000000000000000000000000000000000000000000000000000000000000000000000000000000000000000000000000000000000000000000000000000000000000000000000000000000000000000000000000000000000000000000000000000000000000000000000000000000000000000000000000000000000000000000000000000000000000000000000000000000000000000000000000000000000000000000000000000000000000000000000000000000000000000000000000000000000000000000000000000000000000000000000000",
                    "difficulty": "0x020000",
                    "number": "0x01",
                    "gasLimit": "0x07270e00",
                    "gasUsed": "0x010af2",
                    "timestamp": "0x03e8",
                    "extraData": "0x00",
                    "mixHash": "0x0000000000000000000000000000000000000000000000000000000000000000",
                    "nonce": "0x0000000000000000",
                    "hash": "0xf5de7679d67113a779eef0c92221784c510622bb9e5c8f576599b3b97e3a18f1"
                },
                "transactions": [
                    {
                        "type": "0x00",
                        "chainId": "0x01",
                        "nonce": "0x00",
                        "gasPrice": "0x0a",
                        "gasLimit": "0x028870",
                        "to": "0xa77cba73ca81ae31a85b26ded3ce45e4bc5945a5",
                        "value": "0x00",
                        "data": "0x",
                        "v": "0x26",
                        "r": "0x6364b2a9fd58fc74b430a541ac2d4142375493a0634209ab62aaa0865fb964c9",
                        "s": "0x4d94eae7290aa74d1e9a723f7ae9b10ce8737723baaa23509c641e91fb1f352c",
                        "sender": "0x1ad9bc24818784172ff393bb6f89f094d4d2ca29"
                    }
                ],
                "uncleHeaders": [],
                "receipts": [
                    {
                        "transactionHash": "0xe8d11617315ead7c09d2784aea41769c8d7fa0673d495a927d40c0b6a3030437",
                        "type": "0x00",
                        "cumulativeGasUsed": "0x010af2",
                        "bloom": "0x00000000000000000000000000000000000000000000000000000000000000000000000000000000000000000000000000000000000000000000000000000000000000000000000000000000000000000000000000000000000000000000000000000000000000000000000000000000000000000000000000000000000000000000000000000000000000000000000000000000000000000000000000000000000000000000000000000000000000000000000000000000000000000000000000000000000000000000000000000000000000000000000000000000000000000000000000000000000000000000000000000000000000000000000000000000",
                        "logs": [],
                        "status": true,
                        "rlp": "0xf901090183010af2b9010000000000000000000000000000000000000000000000000000000000000000000000000000000000000000000000000000000000000000000000000000000000000000000000000000000000000000000000000000000000000000000000000000000000000000000000000000000000000000000000000000000000000000000000000000000000000000000000000000000000000000000000000000000000000000000000000000000000000000000000000000000000000000000000000000000000000000000000000000000000000000000000000000000000000000000000000000000000000000000000000000000000000000000000000000000000c0"
                    }
                ],
                "rlp": "0xf90261f901f9a0fe0da333eb0aaeb72f75cf15358531e458c53b161ed55ab4f0d8f8d03583bc34a01dcc4de8dec75d7aab85b567b6ccd41ad312451b948a7413f0a142fd40d49347942adc25665018aa1fe0e6bc666dac8fc2697ff9baa0137680f3a95fa420403ad235c2ed9d01b77fa24a96eab70cbd0129335b85334aa095f683325c4ad58c934f5c6088f7d0ce98d55e9f2e4376bf29b7967b85b30060a0e63b203f1899bf5bc0e0c70f9f16761cebcce9189df30ee0b3e76634c4b0af79b901000000000000000000000000000000000000000000000000000000000000000000000000000000000000000000000000000000000000000000000000000000000000000000000000000000000000000000000000000000000000000000000000000000000000000000000000000000000000000000000000000000000000000000000000000000000000000000000000000000000000000000000000000000000000000000000000000000000000000000000000000000000000000000000000000000000000000000000000000000000000000000000000000000000000000000000000000000000000000000000000000000000000000000000000000000000083020000018407270e0083010af28203e800a00000000000000000000000000000000000000000000000000000000000000000880000000000000000f862f860800a8302887094a77cba73ca81ae31a85b26ded3ce45e4bc5945a5808026a06364b2a9fd58fc74b430a541ac2d4142375493a0634209ab62aaa0865fb964c9a04d94eae7290aa74d1e9a723f7ae9b10ce8737723baaa23509c641e91fb1f352cc0",
                "blocknumber": "1"
            }
        ],
        "sealEngine": "NoProof",
        "_info": {
            "hash": "0x8c7033fa00017bcb9c647d8fa2ec29d2d0a49d11fcd1598947c9ac320698d5ea",
            "fixture-format": "blockchain_test",
            "comment": "`execution-specs` generated test",
            "filling-transition-tool": "2.19.0",
            "description": "Test gas combinations to the ecpairing precompile.",
            "url": "https://github.com/ethereum/execution-specs/blob/tests-sn\u00f8bal-devnet-4@v1.0.0/tests/byzantium/eip197_ec_pairing/test_ecpairing.py#L503",
            "metadata": {
                "opcode_count": {}
            },
            "reference-spec": "https://github.com/ethereum/EIPs/blob/master/EIPS/eip-197.md",
            "reference-spec-version": "9f9b3d33440e7c122b6c9192facfc380bc009422"
        }
    },
    "tests/byzantium/eip197_ec_pairing/test_ecpairing.py::test_gas[fork_Istanbul-blockchain_test_from_state_test-one_pair_insufficient_gas-ecpairing]": {
        "network": "Istanbul",
        "genesisBlockHeader": {
            "parentHash": "0x0000000000000000000000000000000000000000000000000000000000000000",
            "uncleHash": "0x1dcc4de8dec75d7aab85b567b6ccd41ad312451b948a7413f0a142fd40d49347",
            "coinbase": "0x0000000000000000000000000000000000000000",
            "stateRoot": "0x405acfeee95738d157fd7578ccea5b0b3c20e73fa65cfd532abb9f01829be7dc",
            "transactionsTrie": "0x56e81f171bcc55a6ff8345e692c0f86e5b48e01b996cadc001622fb5e363b421",
            "receiptTrie": "0x56e81f171bcc55a6ff8345e692c0f86e5b48e01b996cadc001622fb5e363b421",
            "bloom": "0x00000000000000000000000000000000000000000000000000000000000000000000000000000000000000000000000000000000000000000000000000000000000000000000000000000000000000000000000000000000000000000000000000000000000000000000000000000000000000000000000000000000000000000000000000000000000000000000000000000000000000000000000000000000000000000000000000000000000000000000000000000000000000000000000000000000000000000000000000000000000000000000000000000000000000000000000000000000000000000000000000000000000000000000000000000000",
            "difficulty": "0x020000",
            "number": "0x00",
            "gasLimit": "0x07270e00",
            "gasUsed": "0x00",
            "timestamp": "0x00",
            "extraData": "0x00",
            "mixHash": "0x0000000000000000000000000000000000000000000000000000000000000000",
            "nonce": "0x0000000000000000",
            "hash": "0x20ffdb8cc275104b912af0db63346e5b9c210160f59b4350d4cf17e3c965ee27"
        },
        "pre": {
            "0x6e9814e269b09a22d51d9f38f0e5f2ba50953ebb": {
                "nonce": "0x01",
                "balance": "0x00",
                "code": "0x366000600037600060003660006000600862013497f16000553d600155",
                "storage": {}
            },
            "0x1ad9bc24818784172ff393bb6f89f094d4d2ca29": {
                "nonce": "0x00",
                "balance": "0x3635c9adc5dea00000",
                "code": "0x",
                "storage": {}
            }
        },
        "postState": {
            "0x6e9814e269b09a22d51d9f38f0e5f2ba50953ebb": {
                "nonce": "0x01",
                "balance": "0x00",
                "code": "0x366000600037600060003660006000600862013497f16000553d600155",
                "storage": {}
            },
            "0x1ad9bc24818784172ff393bb6f89f094d4d2ca29": {
                "nonce": "0x01",
                "balance": "0x3635c9adc5de900704",
                "code": "0x",
                "storage": {}
            },
            "0x2adc25665018aa1fe0e6bc666dac8fc2697ff9ba": {
                "nonce": "0x00",
                "balance": "0x1bc16d674ed7f8fc",
                "code": "0x",
                "storage": {}
            }
        },
        "lastblockhash": "0x47527871970c855cdac54b61339c59aec381c3123d5bbf0df74a333ec9b9741f",
        "config": {
            "network": "Istanbul",
            "chainid": "0x01"
        },
        "genesisRLP": "0xf901f9f901f4a00000000000000000000000000000000000000000000000000000000000000000a01dcc4de8dec75d7aab85b567b6ccd41ad312451b948a7413f0a142fd40d49347940000000000000000000000000000000000000000a0405acfeee95738d157fd7578ccea5b0b3c20e73fa65cfd532abb9f01829be7dca056e81f171bcc55a6ff8345e692c0f86e5b48e01b996cadc001622fb5e363b421a056e81f171bcc55a6ff8345e692c0f86e5b48e01b996cadc001622fb5e363b421b901000000000000000000000000000000000000000000000000000000000000000000000000000000000000000000000000000000000000000000000000000000000000000000000000000000000000000000000000000000000000000000000000000000000000000000000000000000000000000000000000000000000000000000000000000000000000000000000000000000000000000000000000000000000000000000000000000000000000000000000000000000000000000000000000000000000000000000000000000000000000000000000000000000000000000000000000000000000000000000000000000000000000000000000000000000000083020000808407270e00808000a00000000000000000000000000000000000000000000000000000000000000000880000000000000000c0c0",
        "blocks": [
            {
                "blockHeader": {
                    "parentHash": "0x20ffdb8cc275104b912af0db63346e5b9c210160f59b4350d4cf17e3c965ee27",
                    "uncleHash": "0x1dcc4de8dec75d7aab85b567b6ccd41ad312451b948a7413f0a142fd40d49347",
                    "coinbase": "0x2adc25665018aa1fe0e6bc666dac8fc2697ff9ba",
                    "stateRoot": "0x7e8214750313369e033bd6b6351384d8961c7dfcca6bafeebb328f6f048c35c5",
                    "transactionsTrie": "0x30b2efe6a98f4851f1e68f6147958afcced8b0ded5ca462f15da006da81eba56",
                    "receiptTrie": "0x207ed4bbc615d9381332dbf06fb9d8fc1e2c9a448e88004073648c374d6f0790",
                    "bloom": "0x00000000000000000000000000000000000000000000000000000000000000000000000000000000000000000000000000000000000000000000000000000000000000000000000000000000000000000000000000000000000000000000000000000000000000000000000000000000000000000000000000000000000000000000000000000000000000000000000000000000000000000000000000000000000000000000000000000000000000000000000000000000000000000000000000000000000000000000000000000000000000000000000000000000000000000000000000000000000000000000000000000000000000000000000000000000",
                    "difficulty": "0x020000",
                    "number": "0x01",
                    "gasLimit": "0x07270e00",
                    "gasUsed": "0x0198e6",
                    "timestamp": "0x03e8",
                    "extraData": "0x00",
                    "mixHash": "0x0000000000000000000000000000000000000000000000000000000000000000",
                    "nonce": "0x0000000000000000",
                    "hash": "0x47527871970c855cdac54b61339c59aec381c3123d5bbf0df74a333ec9b9741f"
                },
                "transactions": [
                    {
                        "type": "0x00",
                        "chainId": "0x01",
                        "nonce": "0x00",
                        "gasPrice": "0x0a",
                        "gasLimit": "0x031652",
                        "to": "0x6e9814e269b09a22d51d9f38f0e5f2ba50953ebb",
                        "value": "0x00",
                        "data": "0x00000000000000000000000000000000000000000000000000000000000000010000000000000000000000000000000000000000000000000000000000000002198e9393920d483a7260bfb731fb5d25f1aa493335a9e71297e485b7aef312c21800deef121f1e76426a00665e5c4479674322d4f75edadd46debd5cd992f6ed090689d0585ff075ec9e99ad690c3395bc4b313370b38ef355acdadcd122975b12c85ea5db8c6deb4aab71808dcb408fe3d1e7690c43d37b4ce6cc0166fa7daa",
                        "v": "0x25",
                        "r": "0xb56fe46904bd59b99071895684671c63443778be3486c61857577410eec94fa6",
                        "s": "0x622c071958dd660286ab057eaf8c6bbcf48e80e300b6189baf990312dfb120e0",
                        "sender": "0x1ad9bc24818784172ff393bb6f89f094d4d2ca29"
                    }
                ],
                "uncleHeaders": [],
                "receipts": [
                    {
                        "transactionHash": "0xc51691d94b051468c05132d5c41e74b4b8b02155cf7d37fcf34546da727636de",
                        "type": "0x00",
                        "cumulativeGasUsed": "0x0198e6",
                        "bloom": "0x00000000000000000000000000000000000000000000000000000000000000000000000000000000000000000000000000000000000000000000000000000000000000000000000000000000000000000000000000000000000000000000000000000000000000000000000000000000000000000000000000000000000000000000000000000000000000000000000000000000000000000000000000000000000000000000000000000000000000000000000000000000000000000000000000000000000000000000000000000000000000000000000000000000000000000000000000000000000000000000000000000000000000000000000000000000",
                        "logs": [],
                        "status": true,
                        "rlp": "0xf9010901830198e6b9010000000000000000000000000000000000000000000000000000000000000000000000000000000000000000000000000000000000000000000000000000000000000000000000000000000000000000000000000000000000000000000000000000000000000000000000000000000000000000000000000000000000000000000000000000000000000000000000000000000000000000000000000000000000000000000000000000000000000000000000000000000000000000000000000000000000000000000000000000000000000000000000000000000000000000000000000000000000000000000000000000000000000000000000000000000000c0"
                    }
                ],
                "rlp": "0xf90324f901f9a020ffdb8cc275104b912af0db63346e5b9c210160f59b4350d4cf17e3c965ee27a01dcc4de8dec75d7aab85b567b6ccd41ad312451b948a7413f0a142fd40d49347942adc25665018aa1fe0e6bc666dac8fc2697ff9baa07e8214750313369e033bd6b6351384d8961c7dfcca6bafeebb328f6f048c35c5a030b2efe6a98f4851f1e68f6147958afcced8b0ded5ca462f15da006da81eba56a0207ed4bbc615d9381332dbf06fb9d8fc1e2c9a448e88004073648c374d6f0790b901000000000000000000000000000000000000000000000000000000000000000000000000000000000000000000000000000000000000000000000000000000000000000000000000000000000000000000000000000000000000000000000000000000000000000000000000000000000000000000000000000000000000000000000000000000000000000000000000000000000000000000000000000000000000000000000000000000000000000000000000000000000000000000000000000000000000000000000000000000000000000000000000000000000000000000000000000000000000000000000000000000000000000000000000000000000083020000018407270e00830198e68203e800a00000000000000000000000000000000000000000000000000000000000000000880000000000000000f90124f90121800a83031652946e9814e269b09a22d51d9f38f0e5f2ba50953ebb80b8c000000000000000000000000000000000000000000000000000000000000000010000000000000000000000000000000000000000000000000000000000000002198e9393920d483a7260bfb731fb5d25f1aa493335a9e71297e485b7aef312c21800deef121f1e76426a00665e5c4479674322d4f75edadd46debd5cd992f6ed090689d0585ff075ec9e99ad690c3395bc4b313370b38ef355acdadcd122975b12c85ea5db8c6deb4aab71808dcb408fe3d1e7690c43d37b4ce6cc0166fa7daa25a0b56fe46904bd59b99071895684671c63443778be3486c61857577410eec94fa6a0622c071958dd660286ab057eaf8c6bbcf48e80e300b6189baf990312dfb120e0c0",
                "blocknumber": "1"
            }
        ],
        "sealEngine": "NoProof",
        "_info": {
            "hash": "0x4a0fe73b40070da3866dead47a6b0df8270c370165a97a66a4d13434d78c7c36",
            "fixture-format": "blockchain_test",
            "comment": "`execution-specs` generated test",
            "filling-transition-tool": "2.19.0",
            "description": "Test gas combinations to the ecpairing precompile.",
            "url": "https://github.com/ethereum/execution-specs/blob/tests-sn\u00f8bal-devnet-4@v1.0.0/tests/byzantium/eip197_ec_pairing/test_ecpairing.py#L503",
            "metadata": {
                "opcode_count": {}
            },
            "reference-spec": "https://github.com/ethereum/EIPs/blob/master/EIPS/eip-197.md",
            "reference-spec-version": "9f9b3d33440e7c122b6c9192facfc380bc009422"
        }
    },
    "tests/byzantium/eip197_ec_pairing/test_ecpairing.py::test_gas[fork_Istanbul-blockchain_test_from_state_test-two_point_oog-ecpairing]": {
        "network": "Istanbul",
        "genesisBlockHeader": {
            "parentHash": "0x0000000000000000000000000000000000000000000000000000000000000000",
            "uncleHash": "0x1dcc4de8dec75d7aab85b567b6ccd41ad312451b948a7413f0a142fd40d49347",
            "coinbase": "0x0000000000000000000000000000000000000000",
            "stateRoot": "0xa2d03fe8f371a92db8614a18ca4f67409df0173c097768aa6c0ce78f8713db72",
            "transactionsTrie": "0x56e81f171bcc55a6ff8345e692c0f86e5b48e01b996cadc001622fb5e363b421",
            "receiptTrie": "0x56e81f171bcc55a6ff8345e692c0f86e5b48e01b996cadc001622fb5e363b421",
            "bloom": "0x00000000000000000000000000000000000000000000000000000000000000000000000000000000000000000000000000000000000000000000000000000000000000000000000000000000000000000000000000000000000000000000000000000000000000000000000000000000000000000000000000000000000000000000000000000000000000000000000000000000000000000000000000000000000000000000000000000000000000000000000000000000000000000000000000000000000000000000000000000000000000000000000000000000000000000000000000000000000000000000000000000000000000000000000000000000",
            "difficulty": "0x020000",
            "number": "0x00",
            "gasLimit": "0x07270e00",
            "gasUsed": "0x00",
            "timestamp": "0x00",
            "extraData": "0x00",
            "mixHash": "0x0000000000000000000000000000000000000000000000000000000000000000",
            "nonce": "0x0000000000000000",
            "hash": "0xdd4baada1b78b7a78d73533a533cd43551fae8850c3d747a1dadb87fa7f93816"
        },
        "pre": {
            "0xeec84611e3a95a248872b6404280e4f137235868": {
                "nonce": "0x01",
                "balance": "0x00",
                "code": "0x36600060003760006000366000600060086201b967f16000553d600155",
                "storage": {}
            },
            "0x1ad9bc24818784172ff393bb6f89f094d4d2ca29": {
                "nonce": "0x00",
                "balance": "0x3635c9adc5dea00000",
                "code": "0x",
                "storage": {}
            }
        },
        "postState": {
            "0xeec84611e3a95a248872b6404280e4f137235868": {
                "nonce": "0x01",
                "balance": "0x00",
                "code": "0x36600060003760006000366000600060086201b967f16000553d600155",
                "storage": {}
            },
            "0x1ad9bc24818784172ff393bb6f89f094d4d2ca29": {
                "nonce": "0x01",
                "balance": "0x3635c9adc5de8a6cf4",
                "code": "0x",
                "storage": {}
            },
            "0x2adc25665018aa1fe0e6bc666dac8fc2697ff9ba": {
                "nonce": "0x00",
                "balance": "0x1bc16d674edd930c",
                "code": "0x",
                "storage": {}
            }
        },
        "lastblockhash": "0xc27a829ec4cf3e294b158b89c286caf8361f87a802185c83d12de3007593fd3a",
        "config": {
            "network": "Istanbul",
            "chainid": "0x01"
        },
        "genesisRLP": "0xf901f9f901f4a00000000000000000000000000000000000000000000000000000000000000000a01dcc4de8dec75d7aab85b567b6ccd41ad312451b948a7413f0a142fd40d49347940000000000000000000000000000000000000000a0a2d03fe8f371a92db8614a18ca4f67409df0173c097768aa6c0ce78f8713db72a056e81f171bcc55a6ff8345e692c0f86e5b48e01b996cadc001622fb5e363b421a056e81f171bcc55a6ff8345e692c0f86e5b48e01b996cadc001622fb5e363b421b901000000000000000000000000000000000000000000000000000000000000000000000000000000000000000000000000000000000000000000000000000000000000000000000000000000000000000000000000000000000000000000000000000000000000000000000000000000000000000000000000000000000000000000000000000000000000000000000000000000000000000000000000000000000000000000000000000000000000000000000000000000000000000000000000000000000000000000000000000000000000000000000000000000000000000000000000000000000000000000000000000000000000000000000000000000000083020000808407270e00808000a00000000000000000000000000000000000000000000000000000000000000000880000000000000000c0c0",
        "blocks": [
            {
                "blockHeader": {
                    "parentHash": "0xdd4baada1b78b7a78d73533a533cd43551fae8850c3d747a1dadb87fa7f93816",
                    "uncleHash": "0x1dcc4de8dec75d7aab85b567b6ccd41ad312451b948a7413f0a142fd40d49347",
                    "coinbase": "0x2adc25665018aa1fe0e6bc666dac8fc2697ff9ba",
                    "stateRoot": "0xbc4a6562e7fb8885d6571127bc69b21c7d5dec86a4db9a98286109cd571f0d74",
                    "transactionsTrie": "0xa44794f384f4b32d13172c8a2752e28f69e1188eaa29aa56130f740a57056598",
                    "receiptTrie": "0xca405c8b1cc3f6a7712169b62f592b3a439b66605b88a07766827818d17453d1",
                    "bloom": "0x00000000000000000000000000000000000000000000000000000000000000000000000000000000000000000000000000000000000000000000000000000000000000000000000000000000000000000000000000000000000000000000000000000000000000000000000000000000000000000000000000000000000000000000000000000000000000000000000000000000000000000000000000000000000000000000000000000000000000000000000000000000000000000000000000000000000000000000000000000000000000000000000000000000000000000000000000000000000000000000000000000000000000000000000000000000",
                    "difficulty": "0x020000",
                    "number": "0x01",
                    "gasLimit": "0x07270e00",
                    "gasUsed": "0x02284e",
                    "timestamp": "0x03e8",
                    "extraData": "0x00",
                    "mixHash": "0x0000000000000000000000000000000000000000000000000000000000000000",
                    "nonce": "0x0000000000000000",
                    "hash": "0xc27a829ec4cf3e294b158b89c286caf8361f87a802185c83d12de3007593fd3a"
                },
                "transactions": [
                    {
                        "type": "0x00",
                        "chainId": "0x01",
                        "nonce": "0x00",
                        "gasPrice": "0x0a",
                        "gasLimit": "0x03a5a8",
                        "to": "0xeec84611e3a95a248872b6404280e4f137235868",
                        "value": "0x00",
                        "data": "0x00000000000000000000000000000000000000000000000000000000000000010000000000000000000000000000000000000000000000000000000000000002198e9393920d483a7260bfb731fb5d25f1aa493335a9e71297e485b7aef312c21800deef121f1e76426a00665e5c4479674322d4f75edadd46debd5cd992f6ed090689d0585ff075ec9e99ad690c3395bc4b313370b38ef355acdadcd122975b12c85ea5db8c6deb4aab71808dcb408fe3d1e7690c43d37b4ce6cc0166fa7daa000000000000000000000000000000000000000000000000000000000000000130644e72e131a029b85045b68181585d97816a916871ca8d3c208c16d87cfd45198e9393920d483a7260bfb731fb5d25f1aa493335a9e71297e485b7aef312c21800deef121f1e76426a00665e5c4479674322d4f75edadd46debd5cd992f6ed090689d0585ff075ec9e99ad690c3395bc4b313370b38ef355acdadcd122975b12c85ea5db8c6deb4aab71808dcb408fe3d1e7690c43d37b4ce6cc0166fa7daa",
                        "v": "0x25",
                        "r": "0xe13110a8eb87e5373ddcc2b0b577e44d0d0b58d3815e9fae3bc43975fb1d5d4e",
                        "s": "0x700b88711b4d0fad714c8e2bf9aa2383ca0272e1d2ec768b73f296c8621dfc0e",
                        "sender": "0x1ad9bc24818784172ff393bb6f89f094d4d2ca29"
                    }
                ],
                "uncleHeaders": [],
                "receipts": [
                    {
                        "transactionHash": "0x6ccb93da4cb138dd0db9827b970038b5db05790e791b445785ba208a0178a631",
                        "type": "0x00",
                        "cumulativeGasUsed": "0x02284e",
                        "bloom": "0x00000000000000000000000000000000000000000000000000000000000000000000000000000000000000000000000000000000000000000000000000000000000000000000000000000000000000000000000000000000000000000000000000000000000000000000000000000000000000000000000000000000000000000000000000000000000000000000000000000000000000000000000000000000000000000000000000000000000000000000000000000000000000000000000000000000000000000000000000000000000000000000000000000000000000000000000000000000000000000000000000000000000000000000000000000000",
                        "logs": [],
                        "status": true,
                        "rlp": "0xf90109018302284eb9010000000000000000000000000000000000000000000000000000000000000000000000000000000000000000000000000000000000000000000000000000000000000000000000000000000000000000000000000000000000000000000000000000000000000000000000000000000000000000000000000000000000000000000000000000000000000000000000000000000000000000000000000000000000000000000000000000000000000000000000000000000000000000000000000000000000000000000000000000000000000000000000000000000000000000000000000000000000000000000000000000000000000000000000000000000000c0"
                    }
                ],
                "rlp": "0xf903e5f901f9a0dd4baada1b78b7a78d73533a533cd43551fae8850c3d747a1dadb87fa7f93816a01dcc4de8dec75d7aab85b567b6ccd41ad312451b948a7413f0a142fd40d49347942adc25665018aa1fe0e6bc666dac8fc2697ff9baa0bc4a6562e7fb8885d6571127bc69b21c7d5dec86a4db9a98286109cd571f0d74a0a44794f384f4b32d13172c8a2752e28f69e1188eaa29aa56130f740a57056598a0ca405c8b1cc3f6a7712169b62f592b3a439b66605b88a07766827818d17453d1b901000000000000000000000000000000000000000000000000000000000000000000000000000000000000000000000000000000000000000000000000000000000000000000000000000000000000000000000000000000000000000000000000000000000000000000000000000000000000000000000000000000000000000000000000000000000000000000000000000000000000000000000000000000000000000000000000000000000000000000000000000000000000000000000000000000000000000000000000000000000000000000000000000000000000000000000000000000000000000000000000000000000000000000000000000000000083020000018407270e008302284e8203e800a00000000000000000000000000000000000000000000000000000000000000000880000000000000000f901e5f901e2800a8303a5a894eec84611e3a95a248872b6404280e4f13723586880b9018000000000000000000000000000000000000000000000000000000000000000010000000000000000000000000000000000000000000000000000000000000002198e9393920d483a7260bfb731fb5d25f1aa493335a9e71297e485b7aef312c21800deef121f1e76426a00665e5c4479674322d4f75edadd46debd5cd992f6ed090689d0585ff075ec9e99ad690c3395bc4b313370b38ef355acdadcd122975b12c85ea5db8c6deb4aab71808dcb408fe3d1e7690c43d37b4ce6cc0166fa7daa000000000000000000000000000000000000000000000000000000000000000130644e72e131a029b85045b68181585d97816a916871ca8d3c208c16d87cfd45198e9393920d483a7260bfb731fb5d25f1aa493335a9e71297e485b7aef312c21800deef121f1e76426a00665e5c4479674322d4f75edadd46debd5cd992f6ed090689d0585ff075ec9e99ad690c3395bc4b313370b38ef355acdadcd122975b12c85ea5db8c6deb4aab71808dcb408fe3d1e7690c43d37b4ce6cc0166fa7daa25a0e13110a8eb87e5373ddcc2b0b577e44d0d0b58d3815e9fae3bc43975fb1d5d4ea0700b88711b4d0fad714c8e2bf9aa2383ca0272e1d2ec768b73f296c8621dfc0ec0",
                "blocknumber": "1"
            }
        ],
        "sealEngine": "NoProof",
        "_info": {
            "hash": "0x9fe9e54dd7b148ecdcd1ab12e999ddab3cd7afc548bef20ebfc1a8711921c719",
            "fixture-format": "blockchain_test",
            "comment": "`execution-specs` generated test",
            "filling-transition-tool": "2.19.0",
            "description": "Test gas combinations to the ecpairing precompile.",
            "url": "https://github.com/ethereum/execution-specs/blob/tests-sn\u00f8bal-devnet-4@v1.0.0/tests/byzantium/eip197_ec_pairing/test_ecpairing.py#L503",
            "metadata": {
                "opcode_count": {}
            },
            "reference-spec": "https://github.com/ethereum/EIPs/blob/master/EIPS/eip-197.md",
            "reference-spec-version": "9f9b3d33440e7c122b6c9192facfc380bc009422"
        }
    }
}