{
    "tests/ported_static/stCallDelegateCodesHomestead/test_callcodecall_10_suicide_end.py::test_callcodecall_10_suicide_end[fork_Cancun-blockchain_test_from_state_test]": {
        "network": "Cancun",
        "genesisBlockHeader": {
            "parentHash": "0x0000000000000000000000000000000000000000000000000000000000000000",
            "uncleHash": "0x1dcc4de8dec75d7aab85b567b6ccd41ad312451b948a7413f0a142fd40d49347",
            "coinbase": "0x0000000000000000000000000000000000000000",
            "stateRoot": "0xbb1d1c9a9b1fcb8932631abb7ac14dfe57676313c5ceddb4752e35037450b5bd",
            "transactionsTrie": "0x56e81f171bcc55a6ff8345e692c0f86e5b48e01b996cadc001622fb5e363b421",
            "receiptTrie": "0x56e81f171bcc55a6ff8345e692c0f86e5b48e01b996cadc001622fb5e363b421",
            "bloom": "0x00000000000000000000000000000000000000000000000000000000000000000000000000000000000000000000000000000000000000000000000000000000000000000000000000000000000000000000000000000000000000000000000000000000000000000000000000000000000000000000000000000000000000000000000000000000000000000000000000000000000000000000000000000000000000000000000000000000000000000000000000000000000000000000000000000000000000000000000000000000000000000000000000000000000000000000000000000000000000000000000000000000000000000000000000000000",
            "difficulty": "0x00",
            "number": "0x00",
            "gasLimit": "0x01c9c380",
            "gasUsed": "0x00",
            "timestamp": "0x00",
            "extraData": "0x00",
            "mixHash": "0x0000000000000000000000000000000000000000000000000000000000000000",
            "nonce": "0x0000000000000000",
            "baseFeePerGas": "0x0b",
            "withdrawalsRoot": "0x56e81f171bcc55a6ff8345e692c0f86e5b48e01b996cadc001622fb5e363b421",
            "blobGasUsed": "0x00",
            "excessBlobGas": "0x00",
            "parentBeaconBlockRoot": "0x0000000000000000000000000000000000000000000000000000000000000000",
            "hash": "0x735f55ff37d37f0e7c7cb9a83161cb2dbe0069a8998e443e491f8e1624f4ef8a"
        },
        "pre": {
            "0x000f3df6d732807ef1319fb7b8bb8522d0beac02": {
                "nonce": "0x01",
                "balance": "0x00",
                "code": "0x3373fffffffffffffffffffffffffffffffffffffffe14604d57602036146024575f5ffd5b5f35801560495762001fff810690815414603c575f5ffd5b62001fff01545f5260205ff35b5f5ffd5b62001fff42064281555f359062001fff015500",
                "storage": {}
            },
            "0x2b30b637f37e3f5b8ca4ab846331d0779a3f4671": {
                "nonce": "0x00",
                "balance": "0x0de0b6b3a7640000",
                "code": "0x604060006040600073f741cfee7b7fb1025dccef3db5a3cbc8ffb776f8620249f0f460005500",
                "storage": {}
            },
            "0xf741cfee7b7fb1025dccef3db5a3cbc8ffb776f8": {
                "nonce": "0x00",
                "balance": "0x02540be400",
                "code": "0x6040600060406000600073703b936fd4d674f0ff5d6957f61097152f8781b861c350f1600155732b30b637f37e3f5b8ca4ab846331d0779a3f4671ff00",
                "storage": {}
            },
            "0x703b936fd4d674f0ff5d6957f61097152f8781b8": {
                "nonce": "0x00",
                "balance": "0x02540be400",
                "code": "0x600160025500",
                "storage": {}
            },
            "0xebaf50debf10e08302fe4280c32df010463ca297": {
                "nonce": "0x00",
                "balance": "0x0de0b6b3a7640000",
                "code": "0x",
                "storage": {}
            }
        },
        "postState": {
            "0x000f3df6d732807ef1319fb7b8bb8522d0beac02": {
                "nonce": "0x01",
                "balance": "0x00",
                "code": "0x3373fffffffffffffffffffffffffffffffffffffffe14604d57602036146024575f5ffd5b5f35801560495762001fff810690815414603c575f5ffd5b62001fff01545f5260205ff35b5f5ffd5b62001fff42064281555f359062001fff015500",
                "storage": {
                    "0x03e8": "0x03e8"
                }
            },
            "0x2b30b637f37e3f5b8ca4ab846331d0779a3f4671": {
                "nonce": "0x00",
                "balance": "0x0de0b6b3a7640000",
                "code": "0x604060006040600073f741cfee7b7fb1025dccef3db5a3cbc8ffb776f8620249f0f460005500",
                "storage": {
                    "0x01": "0x01",
                    "0x00": "0x01"
                }
            },
            "0xf741cfee7b7fb1025dccef3db5a3cbc8ffb776f8": {
                "nonce": "0x00",
                "balance": "0x02540be400",
                "code": "0x6040600060406000600073703b936fd4d674f0ff5d6957f61097152f8781b861c350f1600155732b30b637f37e3f5b8ca4ab846331d0779a3f4671ff00",
                "storage": {}
            },
            "0x703b936fd4d674f0ff5d6957f61097152f8781b8": {
                "nonce": "0x00",
                "balance": "0x02540be400",
                "code": "0x600160025500",
                "storage": {
                    "0x02": "0x01"
                }
            },
            "0xebaf50debf10e08302fe4280c32df010463ca297": {
                "nonce": "0x01",
                "balance": "0x0de0b6b3a7551cd4",
                "code": "0x",
                "storage": {}
            }
        },
        "lastblockhash": "0xfa2df6b9a0dc0c4bae0d9a63a10463a586d3c8e9be1ec41dda0a502de2cd2730",
        "config": {
            "network": "Cancun",
            "chainid": "0x01",
            "blobSchedule": {
                "Cancun": {
                    "target": "0x03",
                    "max": "0x06",
                    "baseFeeUpdateFraction": "0x32f0ed"
                }
            }
        },
        "genesisRLP": "0xf9023cf90236a00000000000000000000000000000000000000000000000000000000000000000a01dcc4de8dec75d7aab85b567b6ccd41ad312451b948a7413f0a142fd40d49347940000000000000000000000000000000000000000a0bb1d1c9a9b1fcb8932631abb7ac14dfe57676313c5ceddb4752e35037450b5bda056e81f171bcc55a6ff8345e692c0f86e5b48e01b996cadc001622fb5e363b421a056e81f171bcc55a6ff8345e692c0f86e5b48e01b996cadc001622fb5e363b421b901000000000000000000000000000000000000000000000000000000000000000000000000000000000000000000000000000000000000000000000000000000000000000000000000000000000000000000000000000000000000000000000000000000000000000000000000000000000000000000000000000000000000000000000000000000000000000000000000000000000000000000000000000000000000000000000000000000000000000000000000000000000000000000000000000000000000000000000000000000000000000000000000000000000000000000000000000000000000000000000000000000000000000000000000000000000080808401c9c380808000a000000000000000000000000000000000000000000000000000000000000000008800000000000000000ba056e81f171bcc55a6ff8345e692c0f86e5b48e01b996cadc001622fb5e363b4218080a00000000000000000000000000000000000000000000000000000000000000000c0c0c0",
        "blocks": [
            {
                "blockHeader": {
                    "parentHash": "0x735f55ff37d37f0e7c7cb9a83161cb2dbe0069a8998e443e491f8e1624f4ef8a",
                    "uncleHash": "0x1dcc4de8dec75d7aab85b567b6ccd41ad312451b948a7413f0a142fd40d49347",
                    "coinbase": "0x2adc25665018aa1fe0e6bc666dac8fc2697ff9ba",
                    "stateRoot": "0x246b1e9d2899dd5da72c9a9d2b55f1b0cfa2fc2c04937eaa346d8c71eb2bb624",
                    "transactionsTrie": "0xe4e16693e9697668a564b3a8993ddc78b5d9db7733e9c98a846c04be9d5eac61",
                    "receiptTrie": "0xb2e7fa9d4c7562efbdc4cbcd2301877619ec1db05f7c26f9f8b4bb0300d16ffe",
                    "bloom": "0x00000000000000000000000000000000000000000000000000000000000000000000000000000000000000000000000000000000000000000000000000000000000000000000000000000000000000000000000000000000000000000000000000000000000000000000000000000000000000000000000000000000000000000000000000000000000000000000000000000000000000000000000000000000000000000000000000000000000000000000000000000000000000000000000000000000000000000000000000000000000000000000000000000000000000000000000000000000000000000000000000000000000000000000000000000000",
                    "difficulty": "0x00",
                    "number": "0x01",
                    "gasLimit": "0x01c9c380",
                    "gasUsed": "0x017d1e",
                    "timestamp": "0x03e8",
                    "extraData": "0x00",
                    "mixHash": "0x0000000000000000000000000000000000000000000000000000000000020000",
                    "nonce": "0x0000000000000000",
                    "baseFeePerGas": "0x0a",
                    "withdrawalsRoot": "0x56e81f171bcc55a6ff8345e692c0f86e5b48e01b996cadc001622fb5e363b421",
                    "blobGasUsed": "0x00",
                    "excessBlobGas": "0x00",
                    "parentBeaconBlockRoot": "0x0000000000000000000000000000000000000000000000000000000000000000",
                    "hash": "0xfa2df6b9a0dc0c4bae0d9a63a10463a586d3c8e9be1ec41dda0a502de2cd2730"
                },
                "transactions": [
                    {
                        "type": "0x00",
                        "chainId": "0x01",
                        "nonce": "0x00",
                        "gasPrice": "0x0a",
                        "gasLimit": "0x2dc6c0",
                        "to": "0x2b30b637f37e3f5b8ca4ab846331d0779a3f4671",
                        "value": "0x00",
                        "data": "0x",
                        "v": "0x25",
                        "r": "0x471012b872cf1fa728fb56090632d9d62f38d2f7d31dbf2b0e30cfaf47ac365f",
                        "s": "0x52199ed6abac38c74d11a3f06412ba3651de511c6d8e24a7f5be2625bb5eb4b2",
                        "sender": "0xebaf50debf10e08302fe4280c32df010463ca297"
                    }
                ],
                "uncleHeaders": [],
                "withdrawals": [],
                "receipts": [
                    {
                        "transactionHash": "0x6ee6a4553361c854812799bdf73f4ed9ed7cf9120726484a5ccab364b7913599",
                        "type": "0x00",
                        "cumulativeGasUsed": "0x017d1e",
                        "bloom": "0x00000000000000000000000000000000000000000000000000000000000000000000000000000000000000000000000000000000000000000000000000000000000000000000000000000000000000000000000000000000000000000000000000000000000000000000000000000000000000000000000000000000000000000000000000000000000000000000000000000000000000000000000000000000000000000000000000000000000000000000000000000000000000000000000000000000000000000000000000000000000000000000000000000000000000000000000000000000000000000000000000000000000000000000000000000000",
                        "logs": [],
                        "status": true,
                        "rlp": "0xf901090183017d1eb9010000000000000000000000000000000000000000000000000000000000000000000000000000000000000000000000000000000000000000000000000000000000000000000000000000000000000000000000000000000000000000000000000000000000000000000000000000000000000000000000000000000000000000000000000000000000000000000000000000000000000000000000000000000000000000000000000000000000000000000000000000000000000000000000000000000000000000000000000000000000000000000000000000000000000000000000000000000000000000000000000000000000000000000000000000000000c0"
                    }
                ],
                "rlp": "0xf902a4f9023ba0735f55ff37d37f0e7c7cb9a83161cb2dbe0069a8998e443e491f8e1624f4ef8aa01dcc4de8dec75d7aab85b567b6ccd41ad312451b948a7413f0a142fd40d49347942adc25665018aa1fe0e6bc666dac8fc2697ff9baa0246b1e9d2899dd5da72c9a9d2b55f1b0cfa2fc2c04937eaa346d8c71eb2bb624a0e4e16693e9697668a564b3a8993ddc78b5d9db7733e9c98a846c04be9d5eac61a0b2e7fa9d4c7562efbdc4cbcd2301877619ec1db05f7c26f9f8b4bb0300d16ffeb901000000000000000000000000000000000000000000000000000000000000000000000000000000000000000000000000000000000000000000000000000000000000000000000000000000000000000000000000000000000000000000000000000000000000000000000000000000000000000000000000000000000000000000000000000000000000000000000000000000000000000000000000000000000000000000000000000000000000000000000000000000000000000000000000000000000000000000000000000000000000000000000000000000000000000000000000000000000000000000000000000000000000000000000000000000000080018401c9c38083017d1e8203e800a000000000000000000000000000000000000000000000000000000000000200008800000000000000000aa056e81f171bcc55a6ff8345e692c0f86e5b48e01b996cadc001622fb5e363b4218080a00000000000000000000000000000000000000000000000000000000000000000f862f860800a832dc6c0942b30b637f37e3f5b8ca4ab846331d0779a3f4671808025a0471012b872cf1fa728fb56090632d9d62f38d2f7d31dbf2b0e30cfaf47ac365fa052199ed6abac38c74d11a3f06412ba3651de511c6d8e24a7f5be2625bb5eb4b2c0c0",
                "blocknumber": "1"
            }
        ],
        "sealEngine": "NoProof",
        "_info": {
            "hash": "0x74cdb5c867bdfb4730a1384ad1322becf47df535f72b0303e6afeb67f2b14728",
            "fixture-format": "blockchain_test",
            "comment": "`execution-specs` generated test",
            "filling-transition-tool": "2.19.0",
            "description": "Test_callcodecall_10_suicide_end.",
            "url": "https://github.com/ethereum/execution-specs/blob/tests-bal@v5.7.0/tests/ported_static/stCallDelegateCodesHomestead/test_callcodecall_10_suicide_end.py#L25",
            "metadata": {
                "opcode_count": {}
            }
        }
    }
}