{
    "tests/constantinople/eip1014_create2/test_create2_revert.py::test_create2_revert_preserves_balance[fork_Shanghai-blockchain_test_from_state_test]": {
        "network": "Shanghai",
        "genesisBlockHeader": {
            "parentHash": "0x0000000000000000000000000000000000000000000000000000000000000000",
            "uncleHash": "0x1dcc4de8dec75d7aab85b567b6ccd41ad312451b948a7413f0a142fd40d49347",
            "coinbase": "0x0000000000000000000000000000000000000000",
            "stateRoot": "0x0f9df99d26c04203708a1642d40fcd64266f7f92a6ce7f6f7edeed0c8b695e17",
            "transactionsTrie": "0x56e81f171bcc55a6ff8345e692c0f86e5b48e01b996cadc001622fb5e363b421",
            "receiptTrie": "0x56e81f171bcc55a6ff8345e692c0f86e5b48e01b996cadc001622fb5e363b421",
            "bloom": "0x00000000000000000000000000000000000000000000000000000000000000000000000000000000000000000000000000000000000000000000000000000000000000000000000000000000000000000000000000000000000000000000000000000000000000000000000000000000000000000000000000000000000000000000000000000000000000000000000000000000000000000000000000000000000000000000000000000000000000000000000000000000000000000000000000000000000000000000000000000000000000000000000000000000000000000000000000000000000000000000000000000000000000000000000000000000",
            "difficulty": "0x00",
            "number": "0x00",
            "gasLimit": "0x07270e00",
            "gasUsed": "0x00",
            "timestamp": "0x00",
            "extraData": "0x00",
            "mixHash": "0x0000000000000000000000000000000000000000000000000000000000000000",
            "nonce": "0x0000000000000000",
            "baseFeePerGas": "0x07",
            "withdrawalsRoot": "0x56e81f171bcc55a6ff8345e692c0f86e5b48e01b996cadc001622fb5e363b421",
            "hash": "0x684c007191917f0d1221764352ea2acc9d6795d8cd6e67c07865248e2f997305"
        },
        "pre": {
            "0xd5a3841935d4a6c7144bcdc779bea01c56a5246c": {
                "nonce": "0x01",
                "balance": "0x00",
                "code": "0x36600060003760003660006000f560005500",
                "storage": {
                    "0x00": "0xba5e"
                }
            },
            "0x170a89a85da5159f4e019fbdbcb19a05d6ac3e43": {
                "nonce": "0x00",
                "balance": "0x01",
                "code": "0x",
                "storage": {}
            },
            "0x1ad9bc24818784172ff393bb6f89f094d4d2ca29": {
                "nonce": "0x00",
                "balance": "0x3635c9adc5dea00000",
                "code": "0x",
                "storage": {}
            }
        },
        "postState": {
            "0xd5a3841935d4a6c7144bcdc779bea01c56a5246c": {
                "nonce": "0x02",
                "balance": "0x00",
                "code": "0x36600060003760003660006000f560005500",
                "storage": {}
            },
            "0x170a89a85da5159f4e019fbdbcb19a05d6ac3e43": {
                "nonce": "0x00",
                "balance": "0x01",
                "code": "0x",
                "storage": {}
            },
            "0x1ad9bc24818784172ff393bb6f89f094d4d2ca29": {
                "nonce": "0x01",
                "balance": "0x3635c9adc5de947bc2",
                "code": "0x",
                "storage": {}
            },
            "0x2adc25665018aa1fe0e6bc666dac8fc2697ff9ba": {
                "nonce": "0x00",
                "balance": "0x037479",
                "code": "0x",
                "storage": {}
            }
        },
        "lastblockhash": "0xd0e2646c783ffad2070a1686c941a67aa7d7ac597a9e09f82e160874394b5fc9",
        "config": {
            "network": "Shanghai",
            "chainid": "0x01"
        },
        "genesisRLP": "0xf90219f90213a00000000000000000000000000000000000000000000000000000000000000000a01dcc4de8dec75d7aab85b567b6ccd41ad312451b948a7413f0a142fd40d49347940000000000000000000000000000000000000000a00f9df99d26c04203708a1642d40fcd64266f7f92a6ce7f6f7edeed0c8b695e17a056e81f171bcc55a6ff8345e692c0f86e5b48e01b996cadc001622fb5e363b421a056e81f171bcc55a6ff8345e692c0f86e5b48e01b996cadc001622fb5e363b421b901000000000000000000000000000000000000000000000000000000000000000000000000000000000000000000000000000000000000000000000000000000000000000000000000000000000000000000000000000000000000000000000000000000000000000000000000000000000000000000000000000000000000000000000000000000000000000000000000000000000000000000000000000000000000000000000000000000000000000000000000000000000000000000000000000000000000000000000000000000000000000000000000000000000000000000000000000000000000000000000000000000000000000000000000000000000080808407270e00808000a0000000000000000000000000000000000000000000000000000000000000000088000000000000000007a056e81f171bcc55a6ff8345e692c0f86e5b48e01b996cadc001622fb5e363b421c0c0c0",
        "blocks": [
            {
                "blockHeader": {
                    "parentHash": "0x684c007191917f0d1221764352ea2acc9d6795d8cd6e67c07865248e2f997305",
                    "uncleHash": "0x1dcc4de8dec75d7aab85b567b6ccd41ad312451b948a7413f0a142fd40d49347",
                    "coinbase": "0x2adc25665018aa1fe0e6bc666dac8fc2697ff9ba",
                    "stateRoot": "0xa97824d97a5b0235a9d607970f93efcd203db8de31a2dc5c8e9b02af4059f073",
                    "transactionsTrie": "0x71d4af047ebcb306f3fd416cee9f7e4f837ea543fa3e567a3c07f7539430e35f",
                    "receiptTrie": "0x5a21d35f93d479a17e36c82a0475dcd4aeace07910b9c1a9ed02ad1e3f38fc71",
                    "bloom": "0x00000000000000000000000000000000000000000000000000000000000000000000000000000000000000000000000000000000000000000000000000000000000000000000000000000000000000000000000000000000000000000000000000000000000000000000000000000000000000000000000000000000000000000000000000000000000000000000000000000000000000000000000000000000000000000000000000000000000000000000000000000000000000000000000000000000000000000000000000000000000000000000000000000000000000000000000000000000000000000000000000000000000000000000000000000000",
                    "difficulty": "0x00",
                    "number": "0x01",
                    "gasLimit": "0x07270e00",
                    "gasUsed": "0x0126d3",
                    "timestamp": "0x03e8",
                    "extraData": "0x00",
                    "mixHash": "0x0000000000000000000000000000000000000000000000000000000000000000",
                    "nonce": "0x0000000000000000",
                    "baseFeePerGas": "0x07",
                    "withdrawalsRoot": "0x56e81f171bcc55a6ff8345e692c0f86e5b48e01b996cadc001622fb5e363b421",
                    "hash": "0xd0e2646c783ffad2070a1686c941a67aa7d7ac597a9e09f82e160874394b5fc9"
                },
                "transactions": [
                    {
                        "type": "0x00",
                        "chainId": "0x01",
                        "nonce": "0x00",
                        "gasPrice": "0x0a",
                        "gasLimit": "0x0f4240",
                        "to": "0xd5a3841935d4a6c7144bcdc779bea01c56a5246c",
                        "value": "0x00",
                        "data": "0x600160005560006000fd",
                        "v": "0x25",
                        "r": "0xfa786ef10e3048ed15cd4a34d53ec10df1017ac20aea3e3a7f0991e9bd324da3",
                        "s": "0x174bdd1a059dad192baf19eeb27db4af16c05399ad63467231e694bab9b21ea9",
                        "sender": "0x1ad9bc24818784172ff393bb6f89f094d4d2ca29"
                    }
                ],
                "uncleHeaders": [],
                "withdrawals": [],
                "receipts": [
                    {
                        "transactionHash": "0x9dd0025323db8f939f1810a2f4e0bac2a79d89883e893fbe2805ea43b896e40a",
                        "type": "0x00",
                        "cumulativeGasUsed": "0x0126d3",
                        "bloom": "0x00000000000000000000000000000000000000000000000000000000000000000000000000000000000000000000000000000000000000000000000000000000000000000000000000000000000000000000000000000000000000000000000000000000000000000000000000000000000000000000000000000000000000000000000000000000000000000000000000000000000000000000000000000000000000000000000000000000000000000000000000000000000000000000000000000000000000000000000000000000000000000000000000000000000000000000000000000000000000000000000000000000000000000000000000000000",
                        "logs": [],
                        "status": true,
                        "rlp": "0xf9010901830126d3b9010000000000000000000000000000000000000000000000000000000000000000000000000000000000000000000000000000000000000000000000000000000000000000000000000000000000000000000000000000000000000000000000000000000000000000000000000000000000000000000000000000000000000000000000000000000000000000000000000000000000000000000000000000000000000000000000000000000000000000000000000000000000000000000000000000000000000000000000000000000000000000000000000000000000000000000000000000000000000000000000000000000000000000000000000000000000c0"
                    }
                ],
                "rlp": "0xf9028bf90218a0684c007191917f0d1221764352ea2acc9d6795d8cd6e67c07865248e2f997305a01dcc4de8dec75d7aab85b567b6ccd41ad312451b948a7413f0a142fd40d49347942adc25665018aa1fe0e6bc666dac8fc2697ff9baa0a97824d97a5b0235a9d607970f93efcd203db8de31a2dc5c8e9b02af4059f073a071d4af047ebcb306f3fd416cee9f7e4f837ea543fa3e567a3c07f7539430e35fa05a21d35f93d479a17e36c82a0475dcd4aeace07910b9c1a9ed02ad1e3f38fc71b901000000000000000000000000000000000000000000000000000000000000000000000000000000000000000000000000000000000000000000000000000000000000000000000000000000000000000000000000000000000000000000000000000000000000000000000000000000000000000000000000000000000000000000000000000000000000000000000000000000000000000000000000000000000000000000000000000000000000000000000000000000000000000000000000000000000000000000000000000000000000000000000000000000000000000000000000000000000000000000000000000000000000000000000000000000000080018407270e00830126d38203e800a0000000000000000000000000000000000000000000000000000000000000000088000000000000000007a056e81f171bcc55a6ff8345e692c0f86e5b48e01b996cadc001622fb5e363b421f86cf86a800a830f424094d5a3841935d4a6c7144bcdc779bea01c56a5246c808a600160005560006000fd25a0fa786ef10e3048ed15cd4a34d53ec10df1017ac20aea3e3a7f0991e9bd324da3a0174bdd1a059dad192baf19eeb27db4af16c05399ad63467231e694bab9b21ea9c0c0",
                "blocknumber": "1"
            }
        ],
        "sealEngine": "NoProof",
        "_info": {
            "hash": "0x8cf2d003450543efd1eb9e92fe61f92690547fca77f362c5034ea4abf05488ad",
            "fixture-format": "blockchain_test",
            "comment": "`execution-specs` generated test",
            "filling-transition-tool": "2.19.0",
            "description": "Test that CREATE2 revert preserves pre-existing balance at target.\n\nAddress X has a pre-existing balance but no code. CREATE2 targets X\nwith init code that reverts. After the revert, X must still have its\noriginal balance, nonce=0, and no code or storage.",
            "url": "https://github.com/ethereum/execution-specs/blob/tests-snobal-devnet-5@v8037.0.0/tests/constantinople/eip1014_create2/test_create2_revert.py#L24",
            "metadata": {
                "opcode_count": {}
            },
            "reference-spec": "https://github.com/ethereum/EIPs/blob/master/EIPS/eip-1014.md",
            "reference-spec-version": "31d4d62ec1dfc9f2bb26ca648f05d4cc2f47da09"
        }
    }
}