{
    "tests/constantinople/eip1014_create2/test_create2_revert.py::test_create2_succeeds_after_reverted_create2[fork_Shanghai-blockchain_test_from_state_test]": {
        "network": "Shanghai",
        "genesisBlockHeader": {
            "parentHash": "0x0000000000000000000000000000000000000000000000000000000000000000",
            "uncleHash": "0x1dcc4de8dec75d7aab85b567b6ccd41ad312451b948a7413f0a142fd40d49347",
            "coinbase": "0x0000000000000000000000000000000000000000",
            "stateRoot": "0x3cb5b2a9bbd65a87601d75ae430762273375e7d25151358ea85974a70f748502",
            "transactionsTrie": "0x56e81f171bcc55a6ff8345e692c0f86e5b48e01b996cadc001622fb5e363b421",
            "receiptTrie": "0x56e81f171bcc55a6ff8345e692c0f86e5b48e01b996cadc001622fb5e363b421",
            "bloom": "0x00000000000000000000000000000000000000000000000000000000000000000000000000000000000000000000000000000000000000000000000000000000000000000000000000000000000000000000000000000000000000000000000000000000000000000000000000000000000000000000000000000000000000000000000000000000000000000000000000000000000000000000000000000000000000000000000000000000000000000000000000000000000000000000000000000000000000000000000000000000000000000000000000000000000000000000000000000000000000000000000000000000000000000000000000000000",
            "difficulty": "0x00",
            "number": "0x00",
            "gasLimit": "0x07270e00",
            "gasUsed": "0x00",
            "timestamp": "0x00",
            "extraData": "0x00",
            "mixHash": "0x0000000000000000000000000000000000000000000000000000000000000000",
            "nonce": "0x0000000000000000",
            "baseFeePerGas": "0x07",
            "withdrawalsRoot": "0x56e81f171bcc55a6ff8345e692c0f86e5b48e01b996cadc001622fb5e363b421",
            "hash": "0xac835d554b2614123bc27b9b88e58a9008c60d85611dcf1bded01f980522907e"
        },
        "pre": {
            "0x05c3d882bb1be7405324c13cf9be1a0002aeaae9": {
                "nonce": "0x01",
                "balance": "0x00",
                "code": "0x36600060003760013660006000f560005500",
                "storage": {}
            },
            "0x67efc01369fcf9277e2b6a9903c11c94a580194a": {
                "nonce": "0x01",
                "balance": "0x00",
                "code": "0x3660006000376000600036600060007305c3d882bb1be7405324c13cf9be1a0002aeaae962030d40f15060006000fd",
                "storage": {}
            },
            "0x335f443afcdea75ae3b82f65f210014fedf5578a": {
                "nonce": "0x01",
                "balance": "0x00",
                "code": "0x3660006000376000600036600060007367efc01369fcf9277e2b6a9903c11c94a580194a620493e0f16000556000600036600060007305c3d882bb1be7405324c13cf9be1a0002aeaae9620493e0f160015500",
                "storage": {
                    "0x00": "0xba5e"
                }
            },
            "0x1ad9bc24818784172ff393bb6f89f094d4d2ca29": {
                "nonce": "0x00",
                "balance": "0x3635c9adc5dea00000",
                "code": "0x",
                "storage": {}
            }
        },
        "postState": {
            "0x05c3d882bb1be7405324c13cf9be1a0002aeaae9": {
                "nonce": "0x02",
                "balance": "0x00",
                "code": "0x36600060003760013660006000f560005500",
                "storage": {
                    "0x00": "0x0bd877619648a201f6cef43d9ddef56179f4f765"
                }
            },
            "0x67efc01369fcf9277e2b6a9903c11c94a580194a": {
                "nonce": "0x01",
                "balance": "0x00",
                "code": "0x3660006000376000600036600060007305c3d882bb1be7405324c13cf9be1a0002aeaae962030d40f15060006000fd",
                "storage": {}
            },
            "0x335f443afcdea75ae3b82f65f210014fedf5578a": {
                "nonce": "0x01",
                "balance": "0x00",
                "code": "0x3660006000376000600036600060007367efc01369fcf9277e2b6a9903c11c94a580194a620493e0f16000556000600036600060007305c3d882bb1be7405324c13cf9be1a0002aeaae9620493e0f160015500",
                "storage": {
                    "0x01": "0x01"
                }
            },
            "0x1ad9bc24818784172ff393bb6f89f094d4d2ca29": {
                "nonce": "0x01",
                "balance": "0x3635c9adc5de8741b4",
                "code": "0x",
                "storage": {}
            },
            "0x0bd877619648a201f6cef43d9ddef56179f4f765": {
                "nonce": "0x01",
                "balance": "0x00",
                "code": "0x600160005500",
                "storage": {}
            },
            "0x2adc25665018aa1fe0e6bc666dac8fc2697ff9ba": {
                "nonce": "0x00",
                "balance": "0x076c4a",
                "code": "0x",
                "storage": {}
            }
        },
        "lastblockhash": "0x10852676999095fda5ea942a4ab8da3104024629bdeae45571897a19342534ab",
        "config": {
            "network": "Shanghai",
            "chainid": "0x01"
        },
        "genesisRLP": "0xf90219f90213a00000000000000000000000000000000000000000000000000000000000000000a01dcc4de8dec75d7aab85b567b6ccd41ad312451b948a7413f0a142fd40d49347940000000000000000000000000000000000000000a03cb5b2a9bbd65a87601d75ae430762273375e7d25151358ea85974a70f748502a056e81f171bcc55a6ff8345e692c0f86e5b48e01b996cadc001622fb5e363b421a056e81f171bcc55a6ff8345e692c0f86e5b48e01b996cadc001622fb5e363b421b901000000000000000000000000000000000000000000000000000000000000000000000000000000000000000000000000000000000000000000000000000000000000000000000000000000000000000000000000000000000000000000000000000000000000000000000000000000000000000000000000000000000000000000000000000000000000000000000000000000000000000000000000000000000000000000000000000000000000000000000000000000000000000000000000000000000000000000000000000000000000000000000000000000000000000000000000000000000000000000000000000000000000000000000000000000000080808407270e00808000a0000000000000000000000000000000000000000000000000000000000000000088000000000000000007a056e81f171bcc55a6ff8345e692c0f86e5b48e01b996cadc001622fb5e363b421c0c0c0",
        "blocks": [
            {
                "blockHeader": {
                    "parentHash": "0xac835d554b2614123bc27b9b88e58a9008c60d85611dcf1bded01f980522907e",
                    "uncleHash": "0x1dcc4de8dec75d7aab85b567b6ccd41ad312451b948a7413f0a142fd40d49347",
                    "coinbase": "0x2adc25665018aa1fe0e6bc666dac8fc2697ff9ba",
                    "stateRoot": "0x0d098091b1eb3b1a5bc821ecb931a7e5ddf7b34065890ab8999ac101e23782bc",
                    "transactionsTrie": "0xc598bd502862a613c059261bf88b31cb48acf30ea8cf08d4c37b3862898c332c",
                    "receiptTrie": "0x61a1fc84536b4ed0ebbbf78305482ce765e4cdc7324a594c0a1a1e154db7f4f8",
                    "bloom": "0x00000000000000000000000000000000000000000000000000000000000000000000000000000000000000000000000000000000000000000000000000000000000000000000000000000000000000000000000000000000000000000000000000000000000000000000000000000000000000000000000000000000000000000000000000000000000000000000000000000000000000000000000000000000000000000000000000000000000000000000000000000000000000000000000000000000000000000000000000000000000000000000000000000000000000000000000000000000000000000000000000000000000000000000000000000000",
                    "difficulty": "0x00",
                    "number": "0x01",
                    "gasLimit": "0x07270e00",
                    "gasUsed": "0x02796e",
                    "timestamp": "0x03e8",
                    "extraData": "0x00",
                    "mixHash": "0x0000000000000000000000000000000000000000000000000000000000000000",
                    "nonce": "0x0000000000000000",
                    "baseFeePerGas": "0x07",
                    "withdrawalsRoot": "0x56e81f171bcc55a6ff8345e692c0f86e5b48e01b996cadc001622fb5e363b421",
                    "hash": "0x10852676999095fda5ea942a4ab8da3104024629bdeae45571897a19342534ab"
                },
                "transactions": [
                    {
                        "type": "0x00",
                        "chainId": "0x01",
                        "nonce": "0x00",
                        "gasPrice": "0x0a",
                        "gasLimit": "0x1e8480",
                        "to": "0x335f443afcdea75ae3b82f65f210014fedf5578a",
                        "value": "0x00",
                        "data": "0x610006600081600b8239f3600160005500",
                        "v": "0x25",
                        "r": "0xfb90ca2978c56d19473ec7ce9aced33c08a0bc39ecaf25932b96b1a00967578d",
                        "s": "0x2c6396d8edd138b8442467ba441d5e114669d25c7250def0e9f5d81f5790fe34",
                        "sender": "0x1ad9bc24818784172ff393bb6f89f094d4d2ca29"
                    }
                ],
                "uncleHeaders": [],
                "withdrawals": [],
                "receipts": [
                    {
                        "transactionHash": "0xfb5dcc1b35271d0c2bfb32013d171a20047e0c17265b4ca56224c5b3e9af0624",
                        "type": "0x00",
                        "cumulativeGasUsed": "0x02796e",
                        "bloom": "0x00000000000000000000000000000000000000000000000000000000000000000000000000000000000000000000000000000000000000000000000000000000000000000000000000000000000000000000000000000000000000000000000000000000000000000000000000000000000000000000000000000000000000000000000000000000000000000000000000000000000000000000000000000000000000000000000000000000000000000000000000000000000000000000000000000000000000000000000000000000000000000000000000000000000000000000000000000000000000000000000000000000000000000000000000000000",
                        "logs": [],
                        "status": true,
                        "rlp": "0xf90109018302796eb9010000000000000000000000000000000000000000000000000000000000000000000000000000000000000000000000000000000000000000000000000000000000000000000000000000000000000000000000000000000000000000000000000000000000000000000000000000000000000000000000000000000000000000000000000000000000000000000000000000000000000000000000000000000000000000000000000000000000000000000000000000000000000000000000000000000000000000000000000000000000000000000000000000000000000000000000000000000000000000000000000000000000000000000000000000000000c0"
                    }
                ],
                "rlp": "0xf90292f90218a0ac835d554b2614123bc27b9b88e58a9008c60d85611dcf1bded01f980522907ea01dcc4de8dec75d7aab85b567b6ccd41ad312451b948a7413f0a142fd40d49347942adc25665018aa1fe0e6bc666dac8fc2697ff9baa00d098091b1eb3b1a5bc821ecb931a7e5ddf7b34065890ab8999ac101e23782bca0c598bd502862a613c059261bf88b31cb48acf30ea8cf08d4c37b3862898c332ca061a1fc84536b4ed0ebbbf78305482ce765e4cdc7324a594c0a1a1e154db7f4f8b901000000000000000000000000000000000000000000000000000000000000000000000000000000000000000000000000000000000000000000000000000000000000000000000000000000000000000000000000000000000000000000000000000000000000000000000000000000000000000000000000000000000000000000000000000000000000000000000000000000000000000000000000000000000000000000000000000000000000000000000000000000000000000000000000000000000000000000000000000000000000000000000000000000000000000000000000000000000000000000000000000000000000000000000000000000000080018407270e008302796e8203e800a0000000000000000000000000000000000000000000000000000000000000000088000000000000000007a056e81f171bcc55a6ff8345e692c0f86e5b48e01b996cadc001622fb5e363b421f873f871800a831e848094335f443afcdea75ae3b82f65f210014fedf5578a8091610006600081600b8239f360016000550025a0fb90ca2978c56d19473ec7ce9aced33c08a0bc39ecaf25932b96b1a00967578da02c6396d8edd138b8442467ba441d5e114669d25c7250def0e9f5d81f5790fe34c0c0",
                "blocknumber": "1"
            }
        ],
        "sealEngine": "NoProof",
        "_info": {
            "hash": "0xf4630f49c8bceae9b832afe57e1182120665f2bebf5052edbbef6a16123f258b",
            "fixture-format": "blockchain_test",
            "comment": "`execution-specs` generated test",
            "filling-transition-tool": "2.19.0",
            "description": "Test that CREATE2 succeeds after a previous CREATE2 at the same address\nwas reverted.\n\nInner call does CREATE2 then REVERTs. Outer call then does the same\nCREATE2 which should succeed since the first was rolled back.",
            "url": "https://github.com/ethereum/execution-specs/blob/tests-snobal-devnet-5@v8037.0.0/tests/constantinople/eip1014_create2/test_create2_revert.py#L86",
            "metadata": {
                "opcode_count": {}
            },
            "reference-spec": "https://github.com/ethereum/EIPs/blob/master/EIPS/eip-1014.md",
            "reference-spec-version": "31d4d62ec1dfc9f2bb26ca648f05d4cc2f47da09"
        }
    }
}