{
    "tests/ported_static/stNonZeroCallsTest/test_non_zero_value_delegatecall_to_non_non_zero_balance.py::test_non_zero_value_delegatecall_to_non_non_zero_balance[fork_Cancun-blockchain_test_from_state_test]": {
        "network": "Cancun",
        "genesisBlockHeader": {
            "parentHash": "0x0000000000000000000000000000000000000000000000000000000000000000",
            "uncleHash": "0x1dcc4de8dec75d7aab85b567b6ccd41ad312451b948a7413f0a142fd40d49347",
            "coinbase": "0x0000000000000000000000000000000000000000",
            "stateRoot": "0x14d42f3ce306c56eb107d9799ce7ff3793774470501226d81f3521fa569eb839",
            "transactionsTrie": "0x56e81f171bcc55a6ff8345e692c0f86e5b48e01b996cadc001622fb5e363b421",
            "receiptTrie": "0x56e81f171bcc55a6ff8345e692c0f86e5b48e01b996cadc001622fb5e363b421",
            "bloom": "0x00000000000000000000000000000000000000000000000000000000000000000000000000000000000000000000000000000000000000000000000000000000000000000000000000000000000000000000000000000000000000000000000000000000000000000000000000000000000000000000000000000000000000000000000000000000000000000000000000000000000000000000000000000000000000000000000000000000000000000000000000000000000000000000000000000000000000000000000000000000000000000000000000000000000000000000000000000000000000000000000000000000000000000000000000000000",
            "difficulty": "0x00",
            "number": "0x00",
            "gasLimit": "0x989680",
            "gasUsed": "0x00",
            "timestamp": "0x00",
            "extraData": "0x00",
            "mixHash": "0x0000000000000000000000000000000000000000000000000000000000000000",
            "nonce": "0x0000000000000000",
            "baseFeePerGas": "0x0b",
            "withdrawalsRoot": "0x56e81f171bcc55a6ff8345e692c0f86e5b48e01b996cadc001622fb5e363b421",
            "blobGasUsed": "0x00",
            "excessBlobGas": "0x00",
            "parentBeaconBlockRoot": "0x0000000000000000000000000000000000000000000000000000000000000000",
            "hash": "0x9eb86d909f8eb1f5556a7239c0a0b0b023ec07acfa0f565444b8bafe3b69926e"
        },
        "pre": {
            "0x000f3df6d732807ef1319fb7b8bb8522d0beac02": {
                "nonce": "0x01",
                "balance": "0x00",
                "code": "0x3373fffffffffffffffffffffffffffffffffffffffe14604d57602036146024575f5ffd5b5f35801560495762001fff810690815414603c575f5ffd5b62001fff01545f5260205ff35b5f5ffd5b62001fff42064281555f359062001fff015500",
                "storage": {}
            },
            "0xfaa10b404ab607779993c016cd5da73ae1f29d7e": {
                "nonce": "0x00",
                "balance": "0xe8d4a51000",
                "code": "0x",
                "storage": {}
            },
            "0x9c1470e9f035f5d8f34d7c0ff2650f9f89de43fe": {
                "nonce": "0x00",
                "balance": "0x00",
                "code": "0x5a6000526000600060006000739089da66e8bbc08846842a301905501bc8525dc461ea60f46001555a6000510360645500",
                "storage": {}
            },
            "0x9089da66e8bbc08846842a301905501bc8525dc4": {
                "nonce": "0x00",
                "balance": "0x64",
                "code": "0x",
                "storage": {}
            }
        },
        "postState": {
            "0x000f3df6d732807ef1319fb7b8bb8522d0beac02": {
                "nonce": "0x01",
                "balance": "0x00",
                "code": "0x3373fffffffffffffffffffffffffffffffffffffffe14604d57602036146024575f5ffd5b5f35801560495762001fff810690815414603c575f5ffd5b62001fff01545f5260205ff35b5f5ffd5b62001fff42064281555f359062001fff015500",
                "storage": {
                    "0x03e8": "0x03e8"
                }
            },
            "0xfaa10b404ab607779993c016cd5da73ae1f29d7e": {
                "nonce": "0x01",
                "balance": "0xe8d49ab5c4",
                "code": "0x",
                "storage": {}
            },
            "0x9c1470e9f035f5d8f34d7c0ff2650f9f89de43fe": {
                "nonce": "0x00",
                "balance": "0x00",
                "code": "0x5a6000526000600060006000739089da66e8bbc08846842a301905501bc8525dc461ea60f46001555a6000510360645500",
                "storage": {
                    "0x01": "0x01",
                    "0x64": "0x609c"
                }
            },
            "0x9089da66e8bbc08846842a301905501bc8525dc4": {
                "nonce": "0x00",
                "balance": "0x64",
                "code": "0x",
                "storage": {}
            }
        },
        "lastblockhash": "0xd02963719f70d06c418b14d9423ca089337bc631878215700d46907b2fb7ac53",
        "config": {
            "network": "Cancun",
            "chainid": "0x01",
            "blobSchedule": {
                "Cancun": {
                    "target": "0x03",
                    "max": "0x06",
                    "baseFeeUpdateFraction": "0x32f0ed"
                }
            }
        },
        "genesisRLP": "0xf9023bf90235a00000000000000000000000000000000000000000000000000000000000000000a01dcc4de8dec75d7aab85b567b6ccd41ad312451b948a7413f0a142fd40d49347940000000000000000000000000000000000000000a014d42f3ce306c56eb107d9799ce7ff3793774470501226d81f3521fa569eb839a056e81f171bcc55a6ff8345e692c0f86e5b48e01b996cadc001622fb5e363b421a056e81f171bcc55a6ff8345e692c0f86e5b48e01b996cadc001622fb5e363b421b9010000000000000000000000000000000000000000000000000000000000000000000000000000000000000000000000000000000000000000000000000000000000000000000000000000000000000000000000000000000000000000000000000000000000000000000000000000000000000000000000000000000000000000000000000000000000000000000000000000000000000000000000000000000000000000000000000000000000000000000000000000000000000000000000000000000000000000000000000000000000000000000000000000000000000000000000000000000000000000000000000000000000000000000000000000000000808083989680808000a000000000000000000000000000000000000000000000000000000000000000008800000000000000000ba056e81f171bcc55a6ff8345e692c0f86e5b48e01b996cadc001622fb5e363b4218080a00000000000000000000000000000000000000000000000000000000000000000c0c0c0",
        "blocks": [
            {
                "blockHeader": {
                    "parentHash": "0x9eb86d909f8eb1f5556a7239c0a0b0b023ec07acfa0f565444b8bafe3b69926e",
                    "uncleHash": "0x1dcc4de8dec75d7aab85b567b6ccd41ad312451b948a7413f0a142fd40d49347",
                    "coinbase": "0x2adc25665018aa1fe0e6bc666dac8fc2697ff9ba",
                    "stateRoot": "0x97088e1f49c980bf5e7fd12a455e25bba0a8d7ea5836e2470406330accee5b49",
                    "transactionsTrie": "0x0cfa8dbca2206bb25c8b7743701602e8e46c56d9456a9ebb007f9cafec133f94",
                    "receiptTrie": "0xd1719599b3b35dc0a0593bc73835f9d89b23f3f22384003d2bd747bdef6cf0f4",
                    "bloom": "0x00000000000000000000000000000000000000000000000000000000000000000000000000000000000000000000000000000000000000000000000000000000000000000000000000000000000000000000000000000000000000000000000000000000000000000000000000000000000000000000000000000000000000000000000000000000000000000000000000000000000000000000000000000000000000000000000000000000000000000000000000000000000000000000000000000000000000000000000000000000000000000000000000000000000000000000000000000000000000000000000000000000000000000000000000000000",
                    "difficulty": "0x00",
                    "number": "0x01",
                    "gasLimit": "0x989680",
                    "gasUsed": "0x010906",
                    "timestamp": "0x03e8",
                    "extraData": "0x00",
                    "mixHash": "0x0000000000000000000000000000000000000000000000000000000000020000",
                    "nonce": "0x0000000000000000",
                    "baseFeePerGas": "0x0a",
                    "withdrawalsRoot": "0x56e81f171bcc55a6ff8345e692c0f86e5b48e01b996cadc001622fb5e363b421",
                    "blobGasUsed": "0x00",
                    "excessBlobGas": "0x00",
                    "parentBeaconBlockRoot": "0x0000000000000000000000000000000000000000000000000000000000000000",
                    "hash": "0xd02963719f70d06c418b14d9423ca089337bc631878215700d46907b2fb7ac53"
                },
                "transactions": [
                    {
                        "type": "0x00",
                        "chainId": "0x01",
                        "nonce": "0x00",
                        "gasPrice": "0x0a",
                        "gasLimit": "0x0927c0",
                        "to": "0x9c1470e9f035f5d8f34d7c0ff2650f9f89de43fe",
                        "value": "0x00",
                        "data": "0x",
                        "v": "0x25",
                        "r": "0x886536a4bfc905158cd2d52eed63ab7700d932c1b7cc6a8ab721103f09a2020c",
                        "s": "0x70fe9859000fbf1947665f34c7cefb0537aaddeaffb1aca9f3d6694f2ee3876b",
                        "sender": "0xfaa10b404ab607779993c016cd5da73ae1f29d7e"
                    }
                ],
                "uncleHeaders": [],
                "withdrawals": [],
                "receipts": [
                    {
                        "transactionHash": "0xb2bf52579381b25a93d582b627480aed9f9a9d92e3bf02625b082038a578f052",
                        "type": "0x00",
                        "cumulativeGasUsed": "0x010906",
                        "bloom": "0x00000000000000000000000000000000000000000000000000000000000000000000000000000000000000000000000000000000000000000000000000000000000000000000000000000000000000000000000000000000000000000000000000000000000000000000000000000000000000000000000000000000000000000000000000000000000000000000000000000000000000000000000000000000000000000000000000000000000000000000000000000000000000000000000000000000000000000000000000000000000000000000000000000000000000000000000000000000000000000000000000000000000000000000000000000000",
                        "logs": [],
                        "status": true,
                        "rlp": "0xf901090183010906b9010000000000000000000000000000000000000000000000000000000000000000000000000000000000000000000000000000000000000000000000000000000000000000000000000000000000000000000000000000000000000000000000000000000000000000000000000000000000000000000000000000000000000000000000000000000000000000000000000000000000000000000000000000000000000000000000000000000000000000000000000000000000000000000000000000000000000000000000000000000000000000000000000000000000000000000000000000000000000000000000000000000000000000000000000000000000c0"
                    }
                ],
                "rlp": "0xf902a3f9023aa09eb86d909f8eb1f5556a7239c0a0b0b023ec07acfa0f565444b8bafe3b69926ea01dcc4de8dec75d7aab85b567b6ccd41ad312451b948a7413f0a142fd40d49347942adc25665018aa1fe0e6bc666dac8fc2697ff9baa097088e1f49c980bf5e7fd12a455e25bba0a8d7ea5836e2470406330accee5b49a00cfa8dbca2206bb25c8b7743701602e8e46c56d9456a9ebb007f9cafec133f94a0d1719599b3b35dc0a0593bc73835f9d89b23f3f22384003d2bd747bdef6cf0f4b9010000000000000000000000000000000000000000000000000000000000000000000000000000000000000000000000000000000000000000000000000000000000000000000000000000000000000000000000000000000000000000000000000000000000000000000000000000000000000000000000000000000000000000000000000000000000000000000000000000000000000000000000000000000000000000000000000000000000000000000000000000000000000000000000000000000000000000000000000000000000000000000000000000000000000000000000000000000000000000000000000000000000000000000000000000000000800183989680830109068203e800a000000000000000000000000000000000000000000000000000000000000200008800000000000000000aa056e81f171bcc55a6ff8345e692c0f86e5b48e01b996cadc001622fb5e363b4218080a00000000000000000000000000000000000000000000000000000000000000000f862f860800a830927c0949c1470e9f035f5d8f34d7c0ff2650f9f89de43fe808025a0886536a4bfc905158cd2d52eed63ab7700d932c1b7cc6a8ab721103f09a2020ca070fe9859000fbf1947665f34c7cefb0537aaddeaffb1aca9f3d6694f2ee3876bc0c0",
                "blocknumber": "1"
            }
        ],
        "sealEngine": "NoProof",
        "_info": {
            "hash": "0x65c9372bad1caa3f7fd9a56a01eb54703955936746cfa78d4d3088292a026270",
            "fixture-format": "blockchain_test",
            "comment": "`execution-specs` generated test",
            "filling-transition-tool": "2.19.0",
            "description": "Test_non_zero_value_delegatecall_to_non_non_zero_balance.",
            "url": "https://github.com/ethereum/execution-specs/blob/tests-sn\u00f8bal-devnet-4@v1.0.0/tests/ported_static/stNonZeroCallsTest/test_non_zero_value_delegatecall_to_non_non_zero_balance.py#L25",
            "metadata": {
                "opcode_count": {}
            }
        }
    }
}