{
    "tests/ported_static/stStaticCall/test_static_call1024_pre_calls2.py::test_static_call1024_pre_calls2[fork_Cancun-blockchain_test_from_state_test-d0]": {
        "network": "Cancun",
        "genesisBlockHeader": {
            "parentHash": "0x0000000000000000000000000000000000000000000000000000000000000000",
            "uncleHash": "0x1dcc4de8dec75d7aab85b567b6ccd41ad312451b948a7413f0a142fd40d49347",
            "coinbase": "0x0000000000000000000000000000000000000000",
            "stateRoot": "0xa15330c75debd4fb3ab12ac0101c7461738cfbd540d11bddf9d9b6456105e04d",
            "transactionsTrie": "0x56e81f171bcc55a6ff8345e692c0f86e5b48e01b996cadc001622fb5e363b421",
            "receiptTrie": "0x56e81f171bcc55a6ff8345e692c0f86e5b48e01b996cadc001622fb5e363b421",
            "bloom": "0x00000000000000000000000000000000000000000000000000000000000000000000000000000000000000000000000000000000000000000000000000000000000000000000000000000000000000000000000000000000000000000000000000000000000000000000000000000000000000000000000000000000000000000000000000000000000000000000000000000000000000000000000000000000000000000000000000000000000000000000000000000000000000000000000000000000000000000000000000000000000000000000000000000000000000000000000000000000000000000000000000000000000000000000000000000000",
            "difficulty": "0x00",
            "number": "0x00",
            "gasLimit": "0x7fffffffffffffff",
            "gasUsed": "0x00",
            "timestamp": "0x00",
            "extraData": "0x00",
            "mixHash": "0x0000000000000000000000000000000000000000000000000000000000000000",
            "nonce": "0x0000000000000000",
            "baseFeePerGas": "0x0b",
            "withdrawalsRoot": "0x56e81f171bcc55a6ff8345e692c0f86e5b48e01b996cadc001622fb5e363b421",
            "blobGasUsed": "0x00",
            "excessBlobGas": "0x00",
            "parentBeaconBlockRoot": "0x0000000000000000000000000000000000000000000000000000000000000000",
            "hash": "0x0efccf49201f50ba36fdaaebfe82cca4a1c0685014b75e73047fed2bf4332c32"
        },
        "pre": {
            "0x000f3df6d732807ef1319fb7b8bb8522d0beac02": {
                "nonce": "0x01",
                "balance": "0x00",
                "code": "0x3373fffffffffffffffffffffffffffffffffffffffe14604d57602036146024575f5ffd5b5f35801560495762001fff810690815414603c575f5ffd5b62001fff01545f5260205ff35b5f5ffd5b62001fff42064281555f359062001fff015500",
                "storage": {}
            },
            "0x3f13d7fc49b91cdc388f79f861c0f1a0e708dfbf": {
                "nonce": "0x00",
                "balance": "0x0fffffffffffffffffffffffffffffffff",
                "code": "0x",
                "storage": {}
            },
            "0xc0e4183389eb57f779a986d8c878f89b9401dc8e": {
                "nonce": "0x00",
                "balance": "0x00",
                "code": "0x6000600060006000346000355af1600055600160015500",
                "storage": {}
            },
            "0xeeb613e2a52609ee927be8a5b80ff190f6b71a37": {
                "nonce": "0x00",
                "balance": "0x1b58",
                "code": "0x600160005200",
                "storage": {}
            },
            "0x2455231c1be66d57981908f4ac3633dee2e242e0": {
                "nonce": "0x00",
                "balance": "0x07e8",
                "code": "0x600060006000600073eeb613e2a52609ee927be8a5b80ff190f6b71a3761fffffa600255600060006000600073eeb613e2a52609ee927be8a5b80ff190f6b71a3761fffffa6003556001600054016000556000600060006000732455231c1be66d57981908f4ac3633dee2e242e0650ffffffffffff460015500",
                "storage": {}
            },
            "0xdaf588778cbccf0d5636643dbc67b42246b52f4a": {
                "nonce": "0x00",
                "balance": "0x07e8",
                "code": "0x600060006000600073eeb613e2a52609ee927be8a5b80ff190f6b71a3761fffffa50600060006000600073eeb613e2a52609ee927be8a5b80ff190f6b71a3761fffffa50600160005101600052600060006000600073daf588778cbccf0d5636643dbc67b42246b52f4a650ffffffffffff400",
                "storage": {}
            }
        },
        "postState": {
            "0x000f3df6d732807ef1319fb7b8bb8522d0beac02": {
                "nonce": "0x01",
                "balance": "0x00",
                "code": "0x3373fffffffffffffffffffffffffffffffffffffffe14604d57602036146024575f5ffd5b5f35801560495762001fff810690815414603c575f5ffd5b62001fff01545f5260205ff35b5f5ffd5b62001fff42064281555f359062001fff015500",
                "storage": {
                    "0x03e8": "0x03e8"
                }
            },
            "0x3f13d7fc49b91cdc388f79f861c0f1a0e708dfbf": {
                "nonce": "0x01",
                "balance": "0x0fffffffffffffffffffffffffff606297",
                "code": "0x",
                "storage": {}
            },
            "0xc0e4183389eb57f779a986d8c878f89b9401dc8e": {
                "nonce": "0x00",
                "balance": "0x00",
                "code": "0x6000600060006000346000355af1600055600160015500",
                "storage": {
                    "0x00": "0x01",
                    "0x01": "0x01"
                }
            },
            "0xeeb613e2a52609ee927be8a5b80ff190f6b71a37": {
                "nonce": "0x00",
                "balance": "0x1b58",
                "code": "0x600160005200",
                "storage": {}
            },
            "0x2455231c1be66d57981908f4ac3633dee2e242e0": {
                "nonce": "0x00",
                "balance": "0x07f2",
                "code": "0x600060006000600073eeb613e2a52609ee927be8a5b80ff190f6b71a3761fffffa600255600060006000600073eeb613e2a52609ee927be8a5b80ff190f6b71a3761fffffa6003556001600054016000556000600060006000732455231c1be66d57981908f4ac3633dee2e242e0650ffffffffffff460015500",
                "storage": {
                    "0x00": "0x0400",
                    "0x01": "0x01"
                }
            },
            "0xdaf588778cbccf0d5636643dbc67b42246b52f4a": {
                "nonce": "0x00",
                "balance": "0x07e8",
                "code": "0x600060006000600073eeb613e2a52609ee927be8a5b80ff190f6b71a3761fffffa50600060006000600073eeb613e2a52609ee927be8a5b80ff190f6b71a3761fffffa50600160005101600052600060006000600073daf588778cbccf0d5636643dbc67b42246b52f4a650ffffffffffff400",
                "storage": {}
            }
        },
        "lastblockhash": "0xd10a2a68a1502d02d917c53d380c366e1623ac5c18c39686a8a5ca0c1250f14a",
        "config": {
            "network": "Cancun",
            "chainid": "0x01",
            "blobSchedule": {
                "Cancun": {
                    "target": "0x03",
                    "max": "0x06",
                    "baseFeeUpdateFraction": "0x32f0ed"
                }
            }
        },
        "genesisRLP": "0xf90240f9023aa00000000000000000000000000000000000000000000000000000000000000000a01dcc4de8dec75d7aab85b567b6ccd41ad312451b948a7413f0a142fd40d49347940000000000000000000000000000000000000000a0a15330c75debd4fb3ab12ac0101c7461738cfbd540d11bddf9d9b6456105e04da056e81f171bcc55a6ff8345e692c0f86e5b48e01b996cadc001622fb5e363b421a056e81f171bcc55a6ff8345e692c0f86e5b48e01b996cadc001622fb5e363b421b90100000000000000000000000000000000000000000000000000000000000000000000000000000000000000000000000000000000000000000000000000000000000000000000000000000000000000000000000000000000000000000000000000000000000000000000000000000000000000000000000000000000000000000000000000000000000000000000000000000000000000000000000000000000000000000000000000000000000000000000000000000000000000000000000000000000000000000000000000000000000000000000000000000000000000000000000000000000000000000000000000000000000000000000000000000000008080887fffffffffffffff808000a000000000000000000000000000000000000000000000000000000000000000008800000000000000000ba056e81f171bcc55a6ff8345e692c0f86e5b48e01b996cadc001622fb5e363b4218080a00000000000000000000000000000000000000000000000000000000000000000c0c0c0",
        "blocks": [
            {
                "blockHeader": {
                    "parentHash": "0x0efccf49201f50ba36fdaaebfe82cca4a1c0685014b75e73047fed2bf4332c32",
                    "uncleHash": "0x1dcc4de8dec75d7aab85b567b6ccd41ad312451b948a7413f0a142fd40d49347",
                    "coinbase": "0xb94f5374fce5edbc8e2a8697c15331677e6ebf0b",
                    "stateRoot": "0x9a1ab47a6dbfe8137c85cea7ca69719495c5bb23fa7b7e03992b4966513807fa",
                    "transactionsTrie": "0xd3e2807ea927018746408f3a8b022cae653075e8f37b9f98b74f9b9885828bab",
                    "receiptTrie": "0xa927302d4cb51864cc3f9801edd832e28484718a5c49ddca42916b11e80f9532",
                    "bloom": "0x00000000000000000000000000000000000000000000000000000000000000000000000000000000000000000000000000000000000000000000000000000000000000000000000000000000000000000000000000000000000000000000000000000000000000000000000000000000000000000000000000000000000000000000000000000000000000000000000000000000000000000000000000000000000000000000000000000000000000000000000000000000000000000000000000000000000000000000000000000000000000000000000000000000000000000000000000000000000000000000000000000000000000000000000000000000",
                    "difficulty": "0x00",
                    "number": "0x01",
                    "gasLimit": "0x7fffffffffffffff",
                    "gasUsed": "0x0ff623",
                    "timestamp": "0x03e8",
                    "extraData": "0x00",
                    "mixHash": "0x0000000000000000000000000000000000000000000000000000000000020000",
                    "nonce": "0x0000000000000000",
                    "baseFeePerGas": "0x0a",
                    "withdrawalsRoot": "0x56e81f171bcc55a6ff8345e692c0f86e5b48e01b996cadc001622fb5e363b421",
                    "blobGasUsed": "0x00",
                    "excessBlobGas": "0x00",
                    "parentBeaconBlockRoot": "0x0000000000000000000000000000000000000000000000000000000000000000",
                    "hash": "0xd10a2a68a1502d02d917c53d380c366e1623ac5c18c39686a8a5ca0c1250f14a"
                },
                "transactions": [
                    {
                        "type": "0x00",
                        "chainId": "0x01",
                        "nonce": "0x00",
                        "gasPrice": "0x0a",
                        "gasLimit": "0x7fe0000000000001",
                        "to": "0xc0e4183389eb57f779a986d8c878f89b9401dc8e",
                        "value": "0x0a",
                        "data": "0x0000000000000000000000002455231c1be66d57981908f4ac3633dee2e242e0",
                        "v": "0x26",
                        "r": "0x5386194aee07df3effc6b0c093b4209ce59c0367dcacb07262883ceab675f9c6",
                        "s": "0x1ee5a3ab47d61e5435b9c9ff195b4ba8acc803058bd02d469af793be08dcfd70",
                        "sender": "0x3f13d7fc49b91cdc388f79f861c0f1a0e708dfbf"
                    }
                ],
                "uncleHeaders": [],
                "withdrawals": [],
                "receipts": [
                    {
                        "transactionHash": "0x984459f3a8738fec0097db68e8ec5fb9940871c25d3eb5e4aa5626a4b388e866",
                        "type": "0x00",
                        "cumulativeGasUsed": "0x0ff623",
                        "bloom": "0x00000000000000000000000000000000000000000000000000000000000000000000000000000000000000000000000000000000000000000000000000000000000000000000000000000000000000000000000000000000000000000000000000000000000000000000000000000000000000000000000000000000000000000000000000000000000000000000000000000000000000000000000000000000000000000000000000000000000000000000000000000000000000000000000000000000000000000000000000000000000000000000000000000000000000000000000000000000000000000000000000000000000000000000000000000000",
                        "logs": [],
                        "status": true,
                        "rlp": "0xf9010901830ff623b9010000000000000000000000000000000000000000000000000000000000000000000000000000000000000000000000000000000000000000000000000000000000000000000000000000000000000000000000000000000000000000000000000000000000000000000000000000000000000000000000000000000000000000000000000000000000000000000000000000000000000000000000000000000000000000000000000000000000000000000000000000000000000000000000000000000000000000000000000000000000000000000000000000000000000000000000000000000000000000000000000000000000000000000000000000000000c0"
                    }
                ],
                "rlp": "0xf902cdf9023fa00efccf49201f50ba36fdaaebfe82cca4a1c0685014b75e73047fed2bf4332c32a01dcc4de8dec75d7aab85b567b6ccd41ad312451b948a7413f0a142fd40d4934794b94f5374fce5edbc8e2a8697c15331677e6ebf0ba09a1ab47a6dbfe8137c85cea7ca69719495c5bb23fa7b7e03992b4966513807faa0d3e2807ea927018746408f3a8b022cae653075e8f37b9f98b74f9b9885828baba0a927302d4cb51864cc3f9801edd832e28484718a5c49ddca42916b11e80f9532b90100000000000000000000000000000000000000000000000000000000000000000000000000000000000000000000000000000000000000000000000000000000000000000000000000000000000000000000000000000000000000000000000000000000000000000000000000000000000000000000000000000000000000000000000000000000000000000000000000000000000000000000000000000000000000000000000000000000000000000000000000000000000000000000000000000000000000000000000000000000000000000000000000000000000000000000000000000000000000000000000000000000000000000000000000000000008001887fffffffffffffff830ff6238203e800a000000000000000000000000000000000000000000000000000000000000200008800000000000000000aa056e81f171bcc55a6ff8345e692c0f86e5b48e01b996cadc001622fb5e363b4218080a00000000000000000000000000000000000000000000000000000000000000000f887f885800a887fe000000000000194c0e4183389eb57f779a986d8c878f89b9401dc8e0aa00000000000000000000000002455231c1be66d57981908f4ac3633dee2e242e026a05386194aee07df3effc6b0c093b4209ce59c0367dcacb07262883ceab675f9c6a01ee5a3ab47d61e5435b9c9ff195b4ba8acc803058bd02d469af793be08dcfd70c0c0",
                "blocknumber": "1"
            }
        ],
        "sealEngine": "NoProof",
        "_info": {
            "hash": "0xdc0b0e8d16368825de658c98d318418159501ea4856f2edc9590617deae80553",
            "fixture-format": "blockchain_test",
            "comment": "`execution-specs` generated test",
            "filling-transition-tool": "2.19.0",
            "description": "Test_static_call1024_pre_calls2.",
            "url": "https://github.com/ethereum/execution-specs/blob/tests-sn\u00f8bal-devnet-4@v1.0.0/tests/ported_static/stStaticCall/test_static_call1024_pre_calls2.py#L29",
            "metadata": {
                "opcode_count": {}
            }
        }
    },
    "tests/ported_static/stStaticCall/test_static_call1024_pre_calls2.py::test_static_call1024_pre_calls2[fork_Cancun-blockchain_test_from_state_test-d1]": {
        "network": "Cancun",
        "genesisBlockHeader": {
            "parentHash": "0x0000000000000000000000000000000000000000000000000000000000000000",
            "uncleHash": "0x1dcc4de8dec75d7aab85b567b6ccd41ad312451b948a7413f0a142fd40d49347",
            "coinbase": "0x0000000000000000000000000000000000000000",
            "stateRoot": "0xa15330c75debd4fb3ab12ac0101c7461738cfbd540d11bddf9d9b6456105e04d",
            "transactionsTrie": "0x56e81f171bcc55a6ff8345e692c0f86e5b48e01b996cadc001622fb5e363b421",
            "receiptTrie": "0x56e81f171bcc55a6ff8345e692c0f86e5b48e01b996cadc001622fb5e363b421",
            "bloom": "0x00000000000000000000000000000000000000000000000000000000000000000000000000000000000000000000000000000000000000000000000000000000000000000000000000000000000000000000000000000000000000000000000000000000000000000000000000000000000000000000000000000000000000000000000000000000000000000000000000000000000000000000000000000000000000000000000000000000000000000000000000000000000000000000000000000000000000000000000000000000000000000000000000000000000000000000000000000000000000000000000000000000000000000000000000000000",
            "difficulty": "0x00",
            "number": "0x00",
            "gasLimit": "0x7fffffffffffffff",
            "gasUsed": "0x00",
            "timestamp": "0x00",
            "extraData": "0x00",
            "mixHash": "0x0000000000000000000000000000000000000000000000000000000000000000",
            "nonce": "0x0000000000000000",
            "baseFeePerGas": "0x0b",
            "withdrawalsRoot": "0x56e81f171bcc55a6ff8345e692c0f86e5b48e01b996cadc001622fb5e363b421",
            "blobGasUsed": "0x00",
            "excessBlobGas": "0x00",
            "parentBeaconBlockRoot": "0x0000000000000000000000000000000000000000000000000000000000000000",
            "hash": "0x0efccf49201f50ba36fdaaebfe82cca4a1c0685014b75e73047fed2bf4332c32"
        },
        "pre": {
            "0x000f3df6d732807ef1319fb7b8bb8522d0beac02": {
                "nonce": "0x01",
                "balance": "0x00",
                "code": "0x3373fffffffffffffffffffffffffffffffffffffffe14604d57602036146024575f5ffd5b5f35801560495762001fff810690815414603c575f5ffd5b62001fff01545f5260205ff35b5f5ffd5b62001fff42064281555f359062001fff015500",
                "storage": {}
            },
            "0x3f13d7fc49b91cdc388f79f861c0f1a0e708dfbf": {
                "nonce": "0x00",
                "balance": "0x0fffffffffffffffffffffffffffffffff",
                "code": "0x",
                "storage": {}
            },
            "0xc0e4183389eb57f779a986d8c878f89b9401dc8e": {
                "nonce": "0x00",
                "balance": "0x00",
                "code": "0x6000600060006000346000355af1600055600160015500",
                "storage": {}
            },
            "0xeeb613e2a52609ee927be8a5b80ff190f6b71a37": {
                "nonce": "0x00",
                "balance": "0x1b58",
                "code": "0x600160005200",
                "storage": {}
            },
            "0x2455231c1be66d57981908f4ac3633dee2e242e0": {
                "nonce": "0x00",
                "balance": "0x07e8",
                "code": "0x600060006000600073eeb613e2a52609ee927be8a5b80ff190f6b71a3761fffffa600255600060006000600073eeb613e2a52609ee927be8a5b80ff190f6b71a3761fffffa6003556001600054016000556000600060006000732455231c1be66d57981908f4ac3633dee2e242e0650ffffffffffff460015500",
                "storage": {}
            },
            "0xdaf588778cbccf0d5636643dbc67b42246b52f4a": {
                "nonce": "0x00",
                "balance": "0x07e8",
                "code": "0x600060006000600073eeb613e2a52609ee927be8a5b80ff190f6b71a3761fffffa50600060006000600073eeb613e2a52609ee927be8a5b80ff190f6b71a3761fffffa50600160005101600052600060006000600073daf588778cbccf0d5636643dbc67b42246b52f4a650ffffffffffff400",
                "storage": {}
            }
        },
        "postState": {
            "0x000f3df6d732807ef1319fb7b8bb8522d0beac02": {
                "nonce": "0x01",
                "balance": "0x00",
                "code": "0x3373fffffffffffffffffffffffffffffffffffffffe14604d57602036146024575f5ffd5b5f35801560495762001fff810690815414603c575f5ffd5b62001fff01545f5260205ff35b5f5ffd5b62001fff42064281555f359062001fff015500",
                "storage": {
                    "0x03e8": "0x03e8"
                }
            },
            "0x3f13d7fc49b91cdc388f79f861c0f1a0e708dfbf": {
                "nonce": "0x01",
                "balance": "0x0fffffffffffffffffffffffffffb5397f",
                "code": "0x",
                "storage": {}
            },
            "0xc0e4183389eb57f779a986d8c878f89b9401dc8e": {
                "nonce": "0x00",
                "balance": "0x00",
                "code": "0x6000600060006000346000355af1600055600160015500",
                "storage": {
                    "0x00": "0x01",
                    "0x01": "0x01"
                }
            },
            "0xeeb613e2a52609ee927be8a5b80ff190f6b71a37": {
                "nonce": "0x00",
                "balance": "0x1b58",
                "code": "0x600160005200",
                "storage": {}
            },
            "0x2455231c1be66d57981908f4ac3633dee2e242e0": {
                "nonce": "0x00",
                "balance": "0x07e8",
                "code": "0x600060006000600073eeb613e2a52609ee927be8a5b80ff190f6b71a3761fffffa600255600060006000600073eeb613e2a52609ee927be8a5b80ff190f6b71a3761fffffa6003556001600054016000556000600060006000732455231c1be66d57981908f4ac3633dee2e242e0650ffffffffffff460015500",
                "storage": {}
            },
            "0xdaf588778cbccf0d5636643dbc67b42246b52f4a": {
                "nonce": "0x00",
                "balance": "0x07f2",
                "code": "0x600060006000600073eeb613e2a52609ee927be8a5b80ff190f6b71a3761fffffa50600060006000600073eeb613e2a52609ee927be8a5b80ff190f6b71a3761fffffa50600160005101600052600060006000600073daf588778cbccf0d5636643dbc67b42246b52f4a650ffffffffffff400",
                "storage": {}
            }
        },
        "lastblockhash": "0xfa85c711cdbc54bd0154d72ea986bf7963840cab21fd6d103a6b9e057bbf38fc",
        "config": {
            "network": "Cancun",
            "chainid": "0x01",
            "blobSchedule": {
                "Cancun": {
                    "target": "0x03",
                    "max": "0x06",
                    "baseFeeUpdateFraction": "0x32f0ed"
                }
            }
        },
        "genesisRLP": "0xf90240f9023aa00000000000000000000000000000000000000000000000000000000000000000a01dcc4de8dec75d7aab85b567b6ccd41ad312451b948a7413f0a142fd40d49347940000000000000000000000000000000000000000a0a15330c75debd4fb3ab12ac0101c7461738cfbd540d11bddf9d9b6456105e04da056e81f171bcc55a6ff8345e692c0f86e5b48e01b996cadc001622fb5e363b421a056e81f171bcc55a6ff8345e692c0f86e5b48e01b996cadc001622fb5e363b421b90100000000000000000000000000000000000000000000000000000000000000000000000000000000000000000000000000000000000000000000000000000000000000000000000000000000000000000000000000000000000000000000000000000000000000000000000000000000000000000000000000000000000000000000000000000000000000000000000000000000000000000000000000000000000000000000000000000000000000000000000000000000000000000000000000000000000000000000000000000000000000000000000000000000000000000000000000000000000000000000000000000000000000000000000000000000008080887fffffffffffffff808000a000000000000000000000000000000000000000000000000000000000000000008800000000000000000ba056e81f171bcc55a6ff8345e692c0f86e5b48e01b996cadc001622fb5e363b4218080a00000000000000000000000000000000000000000000000000000000000000000c0c0c0",
        "blocks": [
            {
                "blockHeader": {
                    "parentHash": "0x0efccf49201f50ba36fdaaebfe82cca4a1c0685014b75e73047fed2bf4332c32",
                    "uncleHash": "0x1dcc4de8dec75d7aab85b567b6ccd41ad312451b948a7413f0a142fd40d49347",
                    "coinbase": "0xb94f5374fce5edbc8e2a8697c15331677e6ebf0b",
                    "stateRoot": "0xb12fa5f236d02c73317a09fce5fa367fc3f3fdfff2f71a22c96c9f2f760d7d45",
                    "transactionsTrie": "0x5668b7ac248df32e427a670f70991778400e008d41aa6c4457e986d9440571b5",
                    "receiptTrie": "0x1ddf4576f63a9d6a3ebf25e4aeb8b6f0b3c82a653da7fbae41e089eeaeeab97c",
                    "bloom": "0x00000000000000000000000000000000000000000000000000000000000000000000000000000000000000000000000000000000000000000000000000000000000000000000000000000000000000000000000000000000000000000000000000000000000000000000000000000000000000000000000000000000000000000000000000000000000000000000000000000000000000000000000000000000000000000000000000000000000000000000000000000000000000000000000000000000000000000000000000000000000000000000000000000000000000000000000000000000000000000000000000000000000000000000000000000000",
                    "difficulty": "0x00",
                    "number": "0x01",
                    "gasLimit": "0x7fffffffffffffff",
                    "gasUsed": "0x077a3f",
                    "timestamp": "0x03e8",
                    "extraData": "0x00",
                    "mixHash": "0x0000000000000000000000000000000000000000000000000000000000020000",
                    "nonce": "0x0000000000000000",
                    "baseFeePerGas": "0x0a",
                    "withdrawalsRoot": "0x56e81f171bcc55a6ff8345e692c0f86e5b48e01b996cadc001622fb5e363b421",
                    "blobGasUsed": "0x00",
                    "excessBlobGas": "0x00",
                    "parentBeaconBlockRoot": "0x0000000000000000000000000000000000000000000000000000000000000000",
                    "hash": "0xfa85c711cdbc54bd0154d72ea986bf7963840cab21fd6d103a6b9e057bbf38fc"
                },
                "transactions": [
                    {
                        "type": "0x00",
                        "chainId": "0x01",
                        "nonce": "0x00",
                        "gasPrice": "0x0a",
                        "gasLimit": "0x7fe0000000000001",
                        "to": "0xc0e4183389eb57f779a986d8c878f89b9401dc8e",
                        "value": "0x0a",
                        "data": "0x000000000000000000000000daf588778cbccf0d5636643dbc67b42246b52f4a",
                        "v": "0x25",
                        "r": "0xfd76acca0b675cfb9c7ea916a742e70a00e5f8b5e5ccf3351affbe2fe165eea5",
                        "s": "0x31e5a941ef51ac9058b41c0f3551ced92ed4e3026ad1a38e73d785621411f916",
                        "sender": "0x3f13d7fc49b91cdc388f79f861c0f1a0e708dfbf"
                    }
                ],
                "uncleHeaders": [],
                "withdrawals": [],
                "receipts": [
                    {
                        "transactionHash": "0x428dbf71e0dfd6bd814929abbc8e33fa7510cc0bfb354153d2fb7b418047586c",
                        "type": "0x00",
                        "cumulativeGasUsed": "0x077a3f",
                        "bloom": "0x00000000000000000000000000000000000000000000000000000000000000000000000000000000000000000000000000000000000000000000000000000000000000000000000000000000000000000000000000000000000000000000000000000000000000000000000000000000000000000000000000000000000000000000000000000000000000000000000000000000000000000000000000000000000000000000000000000000000000000000000000000000000000000000000000000000000000000000000000000000000000000000000000000000000000000000000000000000000000000000000000000000000000000000000000000000",
                        "logs": [],
                        "status": true,
                        "rlp": "0xf901090183077a3fb9010000000000000000000000000000000000000000000000000000000000000000000000000000000000000000000000000000000000000000000000000000000000000000000000000000000000000000000000000000000000000000000000000000000000000000000000000000000000000000000000000000000000000000000000000000000000000000000000000000000000000000000000000000000000000000000000000000000000000000000000000000000000000000000000000000000000000000000000000000000000000000000000000000000000000000000000000000000000000000000000000000000000000000000000000000000000c0"
                    }
                ],
                "rlp": "0xf902cdf9023fa00efccf49201f50ba36fdaaebfe82cca4a1c0685014b75e73047fed2bf4332c32a01dcc4de8dec75d7aab85b567b6ccd41ad312451b948a7413f0a142fd40d4934794b94f5374fce5edbc8e2a8697c15331677e6ebf0ba0b12fa5f236d02c73317a09fce5fa367fc3f3fdfff2f71a22c96c9f2f760d7d45a05668b7ac248df32e427a670f70991778400e008d41aa6c4457e986d9440571b5a01ddf4576f63a9d6a3ebf25e4aeb8b6f0b3c82a653da7fbae41e089eeaeeab97cb90100000000000000000000000000000000000000000000000000000000000000000000000000000000000000000000000000000000000000000000000000000000000000000000000000000000000000000000000000000000000000000000000000000000000000000000000000000000000000000000000000000000000000000000000000000000000000000000000000000000000000000000000000000000000000000000000000000000000000000000000000000000000000000000000000000000000000000000000000000000000000000000000000000000000000000000000000000000000000000000000000000000000000000000000000000000008001887fffffffffffffff83077a3f8203e800a000000000000000000000000000000000000000000000000000000000000200008800000000000000000aa056e81f171bcc55a6ff8345e692c0f86e5b48e01b996cadc001622fb5e363b4218080a00000000000000000000000000000000000000000000000000000000000000000f887f885800a887fe000000000000194c0e4183389eb57f779a986d8c878f89b9401dc8e0aa0000000000000000000000000daf588778cbccf0d5636643dbc67b42246b52f4a25a0fd76acca0b675cfb9c7ea916a742e70a00e5f8b5e5ccf3351affbe2fe165eea5a031e5a941ef51ac9058b41c0f3551ced92ed4e3026ad1a38e73d785621411f916c0c0",
                "blocknumber": "1"
            }
        ],
        "sealEngine": "NoProof",
        "_info": {
            "hash": "0xad03d2a3b29af308fa9f6d43eb123318a4820f06173740f18ecd331506ac6340",
            "fixture-format": "blockchain_test",
            "comment": "`execution-specs` generated test",
            "filling-transition-tool": "2.19.0",
            "description": "Test_static_call1024_pre_calls2.",
            "url": "https://github.com/ethereum/execution-specs/blob/tests-sn\u00f8bal-devnet-4@v1.0.0/tests/ported_static/stStaticCall/test_static_call1024_pre_calls2.py#L29",
            "metadata": {
                "opcode_count": {}
            }
        }
    }
}