{
    "tests/cancun/eip4844_blobs/test_blobhash_opcode.py::test_blobhash_multiple_txs_in_block[fork_Cancun-blockchain_test]": {
        "network": "Cancun",
        "genesisBlockHeader": {
            "parentHash": "0x0000000000000000000000000000000000000000000000000000000000000000",
            "uncleHash": "0x1dcc4de8dec75d7aab85b567b6ccd41ad312451b948a7413f0a142fd40d49347",
            "coinbase": "0x0000000000000000000000000000000000000000",
            "stateRoot": "0x60127d168fa6b5abadf0a875b9b8e5883bb12ef7fd94fd92c09e716752f3b377",
            "transactionsTrie": "0x56e81f171bcc55a6ff8345e692c0f86e5b48e01b996cadc001622fb5e363b421",
            "receiptTrie": "0x56e81f171bcc55a6ff8345e692c0f86e5b48e01b996cadc001622fb5e363b421",
            "bloom": "0x00000000000000000000000000000000000000000000000000000000000000000000000000000000000000000000000000000000000000000000000000000000000000000000000000000000000000000000000000000000000000000000000000000000000000000000000000000000000000000000000000000000000000000000000000000000000000000000000000000000000000000000000000000000000000000000000000000000000000000000000000000000000000000000000000000000000000000000000000000000000000000000000000000000000000000000000000000000000000000000000000000000000000000000000000000000",
            "difficulty": "0x00",
            "number": "0x00",
            "gasLimit": "0x07270e00",
            "gasUsed": "0x00",
            "timestamp": "0x00",
            "extraData": "0x00",
            "mixHash": "0x0000000000000000000000000000000000000000000000000000000000000000",
            "nonce": "0x0000000000000000",
            "baseFeePerGas": "0x07",
            "withdrawalsRoot": "0x56e81f171bcc55a6ff8345e692c0f86e5b48e01b996cadc001622fb5e363b421",
            "blobGasUsed": "0x00",
            "excessBlobGas": "0x00",
            "parentBeaconBlockRoot": "0x0000000000000000000000000000000000000000000000000000000000000000",
            "hash": "0x972e321e1e2c4ee149d74ca7d8ec469ad8c2cc8259d9e8c7b9ddc79891897f2f"
        },
        "pre": {
            "0x000f3df6d732807ef1319fb7b8bb8522d0beac02": {
                "nonce": "0x01",
                "balance": "0x00",
                "code": "0x3373fffffffffffffffffffffffffffffffffffffffe14604d57602036146024575f5ffd5b5f35801560495762001fff810690815414603c575f5ffd5b62001fff01545f5260205ff35b5f5ffd5b62001fff42064281555f359062001fff015500",
                "storage": {}
            },
            "0xd5f25f363591081114bdfb406ca5d462b81f82c1": {
                "nonce": "0x01",
                "balance": "0x00",
                "code": "0x600049600055600149600155600249600255600349600355600449600455600549600555",
                "storage": {}
            },
            "0x68538f951e46fe414c829a084c071cfe6945d42c": {
                "nonce": "0x01",
                "balance": "0x00",
                "code": "0x600049600055600149600155600249600255600349600355600449600455600549600555",
                "storage": {}
            },
            "0xbccd931dd3a7da0f120f39cd8c278f21d66219e1": {
                "nonce": "0x01",
                "balance": "0x00",
                "code": "0x600049600055600149600155600249600255600349600355600449600455600549600555",
                "storage": {}
            },
            "0xc71a19e76b707e4ceb5f2c906e7f865f3124736b": {
                "nonce": "0x01",
                "balance": "0x00",
                "code": "0x600049600055600149600155600249600255600349600355600449600455600549600555",
                "storage": {}
            },
            "0x1ad9bc24818784172ff393bb6f89f094d4d2ca29": {
                "nonce": "0x00",
                "balance": "0x3635c9adc5dea00000",
                "code": "0x",
                "storage": {}
            }
        },
        "postState": {
            "0x000f3df6d732807ef1319fb7b8bb8522d0beac02": {
                "nonce": "0x01",
                "balance": "0x00",
                "code": "0x3373fffffffffffffffffffffffffffffffffffffffe14604d57602036146024575f5ffd5b5f35801560495762001fff810690815414603c575f5ffd5b62001fff01545f5260205ff35b5f5ffd5b62001fff42064281555f359062001fff015500",
                "storage": {
                    "0x0c": "0x0c",
                    "0x18": "0x18",
                    "0x24": "0x24"
                }
            },
            "0xd5f25f363591081114bdfb406ca5d462b81f82c1": {
                "nonce": "0x01",
                "balance": "0x00",
                "code": "0x600049600055600149600155600249600255600349600355600449600455600549600555",
                "storage": {}
            },
            "0x68538f951e46fe414c829a084c071cfe6945d42c": {
                "nonce": "0x01",
                "balance": "0x00",
                "code": "0x600049600055600149600155600249600255600349600355600449600455600549600555",
                "storage": {
                    "0x00": "0x01b8c5b09810b5fc07355d3da42e2c3a3e200c1d9a678491b7e8e256fc50cc4f",
                    "0x01": "0x015b4c8cc4f86aa2d2cf9e9ce97fca704a11a6c20f6b1d6c00a6e15f6d60a6df",
                    "0x02": "0x01878f80eaf10be1a6f618e6f8c071b10a6c14d9b89a3bf2a3f3cf2db6c5681d",
                    "0x03": "0x014eb72b108d562c639faeb6f8c6f366a28b0381c7d30431117ec8c7bb89f834",
                    "0x04": "0x01a9b2a6c3f3f0675b768d49b5f5dc5b5d988f88d55766247ba9e40b125f16bb",
                    "0x05": "0x01a4d4cde4aa01e57fb2c880d1d9c778c33bdf85e48ef4c4d4b4de51abccf4ed"
                }
            },
            "0xbccd931dd3a7da0f120f39cd8c278f21d66219e1": {
                "nonce": "0x01",
                "balance": "0x00",
                "code": "0x600049600055600149600155600249600255600349600355600449600455600549600555",
                "storage": {}
            },
            "0xc71a19e76b707e4ceb5f2c906e7f865f3124736b": {
                "nonce": "0x01",
                "balance": "0x00",
                "code": "0x600049600055600149600155600249600255600349600355600449600455600549600555",
                "storage": {
                    "0x00": "0x01b8c5b09810b5fc07355d3da42e2c3a3e200c1d9a678491b7e8e256fc50cc4f",
                    "0x01": "0x015b4c8cc4f86aa2d2cf9e9ce97fca704a11a6c20f6b1d6c00a6e15f6d60a6df",
                    "0x02": "0x01878f80eaf10be1a6f618e6f8c071b10a6c14d9b89a3bf2a3f3cf2db6c5681d",
                    "0x03": "0x014eb72b108d562c639faeb6f8c6f366a28b0381c7d30431117ec8c7bb89f834",
                    "0x04": "0x01a9b2a6c3f3f0675b768d49b5f5dc5b5d988f88d55766247ba9e40b125f16bb",
                    "0x05": "0x01a4d4cde4aa01e57fb2c880d1d9c778c33bdf85e48ef4c4d4b4de51abccf4ed"
                }
            },
            "0x1ad9bc24818784172ff393bb6f89f094d4d2ca29": {
                "nonce": "0x06",
                "balance": "0x3635c9adc5de3f0130",
                "code": "0x",
                "storage": {}
            }
        },
        "lastblockhash": "0x966d3cce794779023eaa633457d98a9b9d41f7c0257167caa6fac8d5508d481b",
        "config": {
            "network": "Cancun",
            "chainid": "0x01",
            "blobSchedule": {
                "Cancun": {
                    "target": "0x03",
                    "max": "0x06",
                    "baseFeeUpdateFraction": "0x32f0ed"
                }
            }
        },
        "genesisRLP": "0xf9023cf90236a00000000000000000000000000000000000000000000000000000000000000000a01dcc4de8dec75d7aab85b567b6ccd41ad312451b948a7413f0a142fd40d49347940000000000000000000000000000000000000000a060127d168fa6b5abadf0a875b9b8e5883bb12ef7fd94fd92c09e716752f3b377a056e81f171bcc55a6ff8345e692c0f86e5b48e01b996cadc001622fb5e363b421a056e81f171bcc55a6ff8345e692c0f86e5b48e01b996cadc001622fb5e363b421b901000000000000000000000000000000000000000000000000000000000000000000000000000000000000000000000000000000000000000000000000000000000000000000000000000000000000000000000000000000000000000000000000000000000000000000000000000000000000000000000000000000000000000000000000000000000000000000000000000000000000000000000000000000000000000000000000000000000000000000000000000000000000000000000000000000000000000000000000000000000000000000000000000000000000000000000000000000000000000000000000000000000000000000000000000000000080808407270e00808000a0000000000000000000000000000000000000000000000000000000000000000088000000000000000007a056e81f171bcc55a6ff8345e692c0f86e5b48e01b996cadc001622fb5e363b4218080a00000000000000000000000000000000000000000000000000000000000000000c0c0c0",
        "blocks": [
            {
                "blockHeader": {
                    "parentHash": "0x972e321e1e2c4ee149d74ca7d8ec469ad8c2cc8259d9e8c7b9ddc79891897f2f",
                    "uncleHash": "0x1dcc4de8dec75d7aab85b567b6ccd41ad312451b948a7413f0a142fd40d49347",
                    "coinbase": "0x2adc25665018aa1fe0e6bc666dac8fc2697ff9ba",
                    "stateRoot": "0x287cdbad7b7c414043a3b7b5626490c702cc1a46c80e5d9a299c4e5ef0fdb8e1",
                    "transactionsTrie": "0x722dbb28f8a336e1d19453f0c77a678f5eac9a611149fb9c5de5c85e385e2ffd",
                    "receiptTrie": "0xf44b62ca500455002c17e676410100f1a6df14862de0691766cb2a9ed3c59dc8",
                    "bloom": "0x00000000000000000000000000000000000000000000000000000000000000000000000000000000000000000000000000000000000000000000000000000000000000000000000000000000000000000000000000000000000000000000000000000000000000000000000000000000000000000000000000000000000000000000000000000000000000000000000000000000000000000000000000000000000000000000000000000000000000000000000000000000000000000000000000000000000000000000000000000000000000000000000000000000000000000000000000000000000000000000000000000000000000000000000000000000",
                    "difficulty": "0x00",
                    "number": "0x01",
                    "gasLimit": "0x07270e00",
                    "gasUsed": "0x02f8a8",
                    "timestamp": "0x0c",
                    "extraData": "0x",
                    "mixHash": "0x0000000000000000000000000000000000000000000000000000000000000000",
                    "nonce": "0x0000000000000000",
                    "baseFeePerGas": "0x07",
                    "withdrawalsRoot": "0x56e81f171bcc55a6ff8345e692c0f86e5b48e01b996cadc001622fb5e363b421",
                    "blobGasUsed": "0x0c0000",
                    "excessBlobGas": "0x00",
                    "parentBeaconBlockRoot": "0x0000000000000000000000000000000000000000000000000000000000000000",
                    "hash": "0x6f89e69fbee6f811e90c0cda752762c95750220655232ea9516f548a469f9ac9"
                },
                "transactions": [
                    {
                        "type": "0x03",
                        "chainId": "0x01",
                        "nonce": "0x00",
                        "maxPriorityFeePerGas": "0x00",
                        "maxFeePerGas": "0x07",
                        "gasLimit": "0x07a120",
                        "to": "0xd5f25f363591081114bdfb406ca5d462b81f82c1",
                        "value": "0x00",
                        "data": "0x0000000000000000000000000000000000000000000000000000000000000000",
                        "accessList": [],
                        "maxFeePerBlobGas": "0x0a",
                        "blobVersionedHashes": [
                            "0x01b8c5b09810b5fc07355d3da42e2c3a3e200c1d9a678491b7e8e256fc50cc4f",
                            "0x015b4c8cc4f86aa2d2cf9e9ce97fca704a11a6c20f6b1d6c00a6e15f6d60a6df",
                            "0x01878f80eaf10be1a6f618e6f8c071b10a6c14d9b89a3bf2a3f3cf2db6c5681d",
                            "0x014eb72b108d562c639faeb6f8c6f366a28b0381c7d30431117ec8c7bb89f834",
                            "0x01a9b2a6c3f3f0675b768d49b5f5dc5b5d988f88d55766247ba9e40b125f16bb",
                            "0x01a4d4cde4aa01e57fb2c880d1d9c778c33bdf85e48ef4c4d4b4de51abccf4ed"
                        ],
                        "v": "0x01",
                        "r": "0xf8da2c6617c33f7cca70cdc8b3ec64c3842f0074b810e2ae68e01b378ee14b3c",
                        "s": "0x4ed002ae166bfe3df39c32f81481835edb36da1203395e3a1350e010eb4f4928",
                        "sender": "0x1ad9bc24818784172ff393bb6f89f094d4d2ca29"
                    },
                    {
                        "type": "0x02",
                        "chainId": "0x01",
                        "nonce": "0x01",
                        "maxPriorityFeePerGas": "0x00",
                        "maxFeePerGas": "0x07",
                        "gasLimit": "0x07a120",
                        "to": "0xd5f25f363591081114bdfb406ca5d462b81f82c1",
                        "value": "0x00",
                        "data": "0x0000000000000000000000000000000000000000000000000000000000000000",
                        "accessList": [],
                        "v": "0x00",
                        "r": "0x813d1e505e96a1f76d6bed08457448ba8e869820f970501242c663f31a40f539",
                        "s": "0x74e8b5827edac7de3969dbae21f8e2ec740657e3e3adae070df0bf70b66ccfc0",
                        "sender": "0x1ad9bc24818784172ff393bb6f89f094d4d2ca29"
                    }
                ],
                "uncleHeaders": [],
                "withdrawals": [],
                "receipts": [
                    {
                        "transactionHash": "0x5d3d9d678d90f53bb8273e1cc37e7f285f800c3b067b8386d9ad505a8b89c27b",
                        "type": "0x03",
                        "cumulativeGasUsed": "0x0258b6",
                        "bloom": "0x00000000000000000000000000000000000000000000000000000000000000000000000000000000000000000000000000000000000000000000000000000000000000000000000000000000000000000000000000000000000000000000000000000000000000000000000000000000000000000000000000000000000000000000000000000000000000000000000000000000000000000000000000000000000000000000000000000000000000000000000000000000000000000000000000000000000000000000000000000000000000000000000000000000000000000000000000000000000000000000000000000000000000000000000000000000",
                        "logs": [],
                        "status": true,
                        "rlp": "0x03f9010901830258b6b9010000000000000000000000000000000000000000000000000000000000000000000000000000000000000000000000000000000000000000000000000000000000000000000000000000000000000000000000000000000000000000000000000000000000000000000000000000000000000000000000000000000000000000000000000000000000000000000000000000000000000000000000000000000000000000000000000000000000000000000000000000000000000000000000000000000000000000000000000000000000000000000000000000000000000000000000000000000000000000000000000000000000000000000000000000000000c0"
                    },
                    {
                        "transactionHash": "0xb55ad181f14cbf7e0071a454201b31f386999de35bb7591cfc4dcbcc0e9c0269",
                        "type": "0x02",
                        "cumulativeGasUsed": "0x02f8a8",
                        "bloom": "0x00000000000000000000000000000000000000000000000000000000000000000000000000000000000000000000000000000000000000000000000000000000000000000000000000000000000000000000000000000000000000000000000000000000000000000000000000000000000000000000000000000000000000000000000000000000000000000000000000000000000000000000000000000000000000000000000000000000000000000000000000000000000000000000000000000000000000000000000000000000000000000000000000000000000000000000000000000000000000000000000000000000000000000000000000000000",
                        "logs": [],
                        "status": true,
                        "rlp": "0x02f90109018302f8a8b9010000000000000000000000000000000000000000000000000000000000000000000000000000000000000000000000000000000000000000000000000000000000000000000000000000000000000000000000000000000000000000000000000000000000000000000000000000000000000000000000000000000000000000000000000000000000000000000000000000000000000000000000000000000000000000000000000000000000000000000000000000000000000000000000000000000000000000000000000000000000000000000000000000000000000000000000000000000000000000000000000000000000000000000000000000000000c0"
                    }
                ],
                "rlp": "0xf9041ff9023ca0972e321e1e2c4ee149d74ca7d8ec469ad8c2cc8259d9e8c7b9ddc79891897f2fa01dcc4de8dec75d7aab85b567b6ccd41ad312451b948a7413f0a142fd40d49347942adc25665018aa1fe0e6bc666dac8fc2697ff9baa0287cdbad7b7c414043a3b7b5626490c702cc1a46c80e5d9a299c4e5ef0fdb8e1a0722dbb28f8a336e1d19453f0c77a678f5eac9a611149fb9c5de5c85e385e2ffda0f44b62ca500455002c17e676410100f1a6df14862de0691766cb2a9ed3c59dc8b901000000000000000000000000000000000000000000000000000000000000000000000000000000000000000000000000000000000000000000000000000000000000000000000000000000000000000000000000000000000000000000000000000000000000000000000000000000000000000000000000000000000000000000000000000000000000000000000000000000000000000000000000000000000000000000000000000000000000000000000000000000000000000000000000000000000000000000000000000000000000000000000000000000000000000000000000000000000000000000000000000000000000000000000000000000000080018407270e008302f8a80c80a0000000000000000000000000000000000000000000000000000000000000000088000000000000000007a056e81f171bcc55a6ff8345e692c0f86e5b48e01b996cadc001622fb5e363b421830c000080a00000000000000000000000000000000000000000000000000000000000000000f901dbb9015003f9014c018080078307a12094d5f25f363591081114bdfb406ca5d462b81f82c180a00000000000000000000000000000000000000000000000000000000000000000c00af8c6a001b8c5b09810b5fc07355d3da42e2c3a3e200c1d9a678491b7e8e256fc50cc4fa0015b4c8cc4f86aa2d2cf9e9ce97fca704a11a6c20f6b1d6c00a6e15f6d60a6dfa001878f80eaf10be1a6f618e6f8c071b10a6c14d9b89a3bf2a3f3cf2db6c5681da0014eb72b108d562c639faeb6f8c6f366a28b0381c7d30431117ec8c7bb89f834a001a9b2a6c3f3f0675b768d49b5f5dc5b5d988f88d55766247ba9e40b125f16bba001a4d4cde4aa01e57fb2c880d1d9c778c33bdf85e48ef4c4d4b4de51abccf4ed01a0f8da2c6617c33f7cca70cdc8b3ec64c3842f0074b810e2ae68e01b378ee14b3ca04ed002ae166bfe3df39c32f81481835edb36da1203395e3a1350e010eb4f4928b88602f883010180078307a12094d5f25f363591081114bdfb406ca5d462b81f82c180a00000000000000000000000000000000000000000000000000000000000000000c080a0813d1e505e96a1f76d6bed08457448ba8e869820f970501242c663f31a40f539a074e8b5827edac7de3969dbae21f8e2ec740657e3e3adae070df0bf70b66ccfc0c0c0",
                "blocknumber": "1"
            },
            {
                "blockHeader": {
                    "parentHash": "0x6f89e69fbee6f811e90c0cda752762c95750220655232ea9516f548a469f9ac9",
                    "uncleHash": "0x1dcc4de8dec75d7aab85b567b6ccd41ad312451b948a7413f0a142fd40d49347",
                    "coinbase": "0x2adc25665018aa1fe0e6bc666dac8fc2697ff9ba",
                    "stateRoot": "0xde7a09a6b5e5fa0cc6bfbb135b4425a1932ab40251eb35cad880085ab56178cf",
                    "transactionsTrie": "0x525413ff73ef3b13a814a6f15ab3c9ca62a800d5766afddc5546254f5a4da1c6",
                    "receiptTrie": "0xda5ac010087a7cb6e374f2cda2f2c54242b12da3fc28ef70fffbdce90d262adf",
                    "bloom": "0x00000000000000000000000000000000000000000000000000000000000000000000000000000000000000000000000000000000000000000000000000000000000000000000000000000000000000000000000000000000000000000000000000000000000000000000000000000000000000000000000000000000000000000000000000000000000000000000000000000000000000000000000000000000000000000000000000000000000000000000000000000000000000000000000000000000000000000000000000000000000000000000000000000000000000000000000000000000000000000000000000000000000000000000000000000000",
                    "difficulty": "0x00",
                    "number": "0x02",
                    "gasLimit": "0x07270e00",
                    "gasUsed": "0x02df04",
                    "timestamp": "0x18",
                    "extraData": "0x",
                    "mixHash": "0x0000000000000000000000000000000000000000000000000000000000000000",
                    "nonce": "0x0000000000000000",
                    "baseFeePerGas": "0x07",
                    "withdrawalsRoot": "0x56e81f171bcc55a6ff8345e692c0f86e5b48e01b996cadc001622fb5e363b421",
                    "blobGasUsed": "0x0c0000",
                    "excessBlobGas": "0x060000",
                    "parentBeaconBlockRoot": "0x0000000000000000000000000000000000000000000000000000000000000000",
                    "hash": "0xaea4b97aa4a6972e6b581445f540df68beacb60635c989f4c32d52743c721ab0"
                },
                "transactions": [
                    {
                        "type": "0x02",
                        "chainId": "0x01",
                        "nonce": "0x02",
                        "maxPriorityFeePerGas": "0x00",
                        "maxFeePerGas": "0x07",
                        "gasLimit": "0x07a120",
                        "to": "0x68538f951e46fe414c829a084c071cfe6945d42c",
                        "value": "0x00",
                        "data": "0x0000000000000000000000000000000000000000000000000000000000000000",
                        "accessList": [],
                        "v": "0x00",
                        "r": "0x4586ee4ec7bbf1fd897eb841b85bf019e667fd63cca3dd2e04c2a9a623090491",
                        "s": "0x6bf8db8840eb98545229b99da0a81c51374f1b6383d62c720e150bb93f1f104e",
                        "sender": "0x1ad9bc24818784172ff393bb6f89f094d4d2ca29"
                    },
                    {
                        "type": "0x03",
                        "chainId": "0x01",
                        "nonce": "0x03",
                        "maxPriorityFeePerGas": "0x00",
                        "maxFeePerGas": "0x07",
                        "gasLimit": "0x07a120",
                        "to": "0x68538f951e46fe414c829a084c071cfe6945d42c",
                        "value": "0x00",
                        "data": "0x0000000000000000000000000000000000000000000000000000000000000000",
                        "accessList": [],
                        "maxFeePerBlobGas": "0x0a",
                        "blobVersionedHashes": [
                            "0x01b8c5b09810b5fc07355d3da42e2c3a3e200c1d9a678491b7e8e256fc50cc4f",
                            "0x015b4c8cc4f86aa2d2cf9e9ce97fca704a11a6c20f6b1d6c00a6e15f6d60a6df",
                            "0x01878f80eaf10be1a6f618e6f8c071b10a6c14d9b89a3bf2a3f3cf2db6c5681d",
                            "0x014eb72b108d562c639faeb6f8c6f366a28b0381c7d30431117ec8c7bb89f834",
                            "0x01a9b2a6c3f3f0675b768d49b5f5dc5b5d988f88d55766247ba9e40b125f16bb",
                            "0x01a4d4cde4aa01e57fb2c880d1d9c778c33bdf85e48ef4c4d4b4de51abccf4ed"
                        ],
                        "v": "0x01",
                        "r": "0x0975835de565536f525a44c2afb9aa66652157d6864aa8c06ee401d2ec7897ca",
                        "s": "0x35d70200c663ceacd846e6e667423a20cc69886cec207a05bb4be084a70766bb",
                        "sender": "0x1ad9bc24818784172ff393bb6f89f094d4d2ca29"
                    }
                ],
                "uncleHeaders": [],
                "withdrawals": [],
                "receipts": [
                    {
                        "transactionHash": "0x3d3d2d5ae742f08790da2f6cc2b43f61f420f2b89cd7ee668e80e2d85ce974a8",
                        "type": "0x02",
                        "cumulativeGasUsed": "0x864e",
                        "bloom": "0x00000000000000000000000000000000000000000000000000000000000000000000000000000000000000000000000000000000000000000000000000000000000000000000000000000000000000000000000000000000000000000000000000000000000000000000000000000000000000000000000000000000000000000000000000000000000000000000000000000000000000000000000000000000000000000000000000000000000000000000000000000000000000000000000000000000000000000000000000000000000000000000000000000000000000000000000000000000000000000000000000000000000000000000000000000000",
                        "logs": [],
                        "status": true,
                        "rlp": "0x02f901080182864eb9010000000000000000000000000000000000000000000000000000000000000000000000000000000000000000000000000000000000000000000000000000000000000000000000000000000000000000000000000000000000000000000000000000000000000000000000000000000000000000000000000000000000000000000000000000000000000000000000000000000000000000000000000000000000000000000000000000000000000000000000000000000000000000000000000000000000000000000000000000000000000000000000000000000000000000000000000000000000000000000000000000000000000000000000000000000000c0"
                    },
                    {
                        "transactionHash": "0x7514f14683b928c5f20c381b41adf748696d8f98754df6c665d80ec81ef9438c",
                        "type": "0x03",
                        "cumulativeGasUsed": "0x02df04",
                        "bloom": "0x00000000000000000000000000000000000000000000000000000000000000000000000000000000000000000000000000000000000000000000000000000000000000000000000000000000000000000000000000000000000000000000000000000000000000000000000000000000000000000000000000000000000000000000000000000000000000000000000000000000000000000000000000000000000000000000000000000000000000000000000000000000000000000000000000000000000000000000000000000000000000000000000000000000000000000000000000000000000000000000000000000000000000000000000000000000",
                        "logs": [],
                        "status": true,
                        "rlp": "0x03f90109018302df04b9010000000000000000000000000000000000000000000000000000000000000000000000000000000000000000000000000000000000000000000000000000000000000000000000000000000000000000000000000000000000000000000000000000000000000000000000000000000000000000000000000000000000000000000000000000000000000000000000000000000000000000000000000000000000000000000000000000000000000000000000000000000000000000000000000000000000000000000000000000000000000000000000000000000000000000000000000000000000000000000000000000000000000000000000000000000000c0"
                    }
                ],
                "rlp": "0xf90422f9023fa06f89e69fbee6f811e90c0cda752762c95750220655232ea9516f548a469f9ac9a01dcc4de8dec75d7aab85b567b6ccd41ad312451b948a7413f0a142fd40d49347942adc25665018aa1fe0e6bc666dac8fc2697ff9baa0de7a09a6b5e5fa0cc6bfbb135b4425a1932ab40251eb35cad880085ab56178cfa0525413ff73ef3b13a814a6f15ab3c9ca62a800d5766afddc5546254f5a4da1c6a0da5ac010087a7cb6e374f2cda2f2c54242b12da3fc28ef70fffbdce90d262adfb901000000000000000000000000000000000000000000000000000000000000000000000000000000000000000000000000000000000000000000000000000000000000000000000000000000000000000000000000000000000000000000000000000000000000000000000000000000000000000000000000000000000000000000000000000000000000000000000000000000000000000000000000000000000000000000000000000000000000000000000000000000000000000000000000000000000000000000000000000000000000000000000000000000000000000000000000000000000000000000000000000000000000000000000000000000000080028407270e008302df041880a0000000000000000000000000000000000000000000000000000000000000000088000000000000000007a056e81f171bcc55a6ff8345e692c0f86e5b48e01b996cadc001622fb5e363b421830c000083060000a00000000000000000000000000000000000000000000000000000000000000000f901dbb88602f883010280078307a1209468538f951e46fe414c829a084c071cfe6945d42c80a00000000000000000000000000000000000000000000000000000000000000000c080a04586ee4ec7bbf1fd897eb841b85bf019e667fd63cca3dd2e04c2a9a623090491a06bf8db8840eb98545229b99da0a81c51374f1b6383d62c720e150bb93f1f104eb9015003f9014c010380078307a1209468538f951e46fe414c829a084c071cfe6945d42c80a00000000000000000000000000000000000000000000000000000000000000000c00af8c6a001b8c5b09810b5fc07355d3da42e2c3a3e200c1d9a678491b7e8e256fc50cc4fa0015b4c8cc4f86aa2d2cf9e9ce97fca704a11a6c20f6b1d6c00a6e15f6d60a6dfa001878f80eaf10be1a6f618e6f8c071b10a6c14d9b89a3bf2a3f3cf2db6c5681da0014eb72b108d562c639faeb6f8c6f366a28b0381c7d30431117ec8c7bb89f834a001a9b2a6c3f3f0675b768d49b5f5dc5b5d988f88d55766247ba9e40b125f16bba001a4d4cde4aa01e57fb2c880d1d9c778c33bdf85e48ef4c4d4b4de51abccf4ed01a00975835de565536f525a44c2afb9aa66652157d6864aa8c06ee401d2ec7897caa035d70200c663ceacd846e6e667423a20cc69886cec207a05bb4be084a70766bbc0c0",
                "blocknumber": "2"
            },
            {
                "blockHeader": {
                    "parentHash": "0xaea4b97aa4a6972e6b581445f540df68beacb60635c989f4c32d52743c721ab0",
                    "uncleHash": "0x1dcc4de8dec75d7aab85b567b6ccd41ad312451b948a7413f0a142fd40d49347",
                    "coinbase": "0x2adc25665018aa1fe0e6bc666dac8fc2697ff9ba",
                    "stateRoot": "0x7156007d8f0fab7b63591b885f7f3397950ae296d3cbaa6dfdce749226b32ad8",
                    "transactionsTrie": "0xb803d1edbd5eba4abb70b3f760d3bac71218e7593358e93a91919064ef4afe18",
                    "receiptTrie": "0xda5ac010087a7cb6e374f2cda2f2c54242b12da3fc28ef70fffbdce90d262adf",
                    "bloom": "0x00000000000000000000000000000000000000000000000000000000000000000000000000000000000000000000000000000000000000000000000000000000000000000000000000000000000000000000000000000000000000000000000000000000000000000000000000000000000000000000000000000000000000000000000000000000000000000000000000000000000000000000000000000000000000000000000000000000000000000000000000000000000000000000000000000000000000000000000000000000000000000000000000000000000000000000000000000000000000000000000000000000000000000000000000000000",
                    "difficulty": "0x00",
                    "number": "0x03",
                    "gasLimit": "0x07270e00",
                    "gasUsed": "0x02df04",
                    "timestamp": "0x24",
                    "extraData": "0x",
                    "mixHash": "0x0000000000000000000000000000000000000000000000000000000000000000",
                    "nonce": "0x0000000000000000",
                    "baseFeePerGas": "0x07",
                    "withdrawalsRoot": "0x56e81f171bcc55a6ff8345e692c0f86e5b48e01b996cadc001622fb5e363b421",
                    "blobGasUsed": "0x0c0000",
                    "excessBlobGas": "0x0c0000",
                    "parentBeaconBlockRoot": "0x0000000000000000000000000000000000000000000000000000000000000000",
                    "hash": "0x966d3cce794779023eaa633457d98a9b9d41f7c0257167caa6fac8d5508d481b"
                },
                "transactions": [
                    {
                        "type": "0x02",
                        "chainId": "0x01",
                        "nonce": "0x04",
                        "maxPriorityFeePerGas": "0x00",
                        "maxFeePerGas": "0x07",
                        "gasLimit": "0x07a120",
                        "to": "0xbccd931dd3a7da0f120f39cd8c278f21d66219e1",
                        "value": "0x00",
                        "data": "0x0000000000000000000000000000000000000000000000000000000000000000",
                        "accessList": [],
                        "v": "0x01",
                        "r": "0x33820826acfcdef14ba5d50583b7cf5915a759258d6ab61d30a5b9d550df0da7",
                        "s": "0x3370baf5e17977940c9d735a7b37d71b4fb650f81d588611265c667a3afb464f",
                        "sender": "0x1ad9bc24818784172ff393bb6f89f094d4d2ca29"
                    },
                    {
                        "type": "0x03",
                        "chainId": "0x01",
                        "nonce": "0x05",
                        "maxPriorityFeePerGas": "0x00",
                        "maxFeePerGas": "0x07",
                        "gasLimit": "0x07a120",
                        "to": "0xc71a19e76b707e4ceb5f2c906e7f865f3124736b",
                        "value": "0x00",
                        "data": "0x0000000000000000000000000000000000000000000000000000000000000000",
                        "accessList": [],
                        "maxFeePerBlobGas": "0x0a",
                        "blobVersionedHashes": [
                            "0x01b8c5b09810b5fc07355d3da42e2c3a3e200c1d9a678491b7e8e256fc50cc4f",
                            "0x015b4c8cc4f86aa2d2cf9e9ce97fca704a11a6c20f6b1d6c00a6e15f6d60a6df",
                            "0x01878f80eaf10be1a6f618e6f8c071b10a6c14d9b89a3bf2a3f3cf2db6c5681d",
                            "0x014eb72b108d562c639faeb6f8c6f366a28b0381c7d30431117ec8c7bb89f834",
                            "0x01a9b2a6c3f3f0675b768d49b5f5dc5b5d988f88d55766247ba9e40b125f16bb",
                            "0x01a4d4cde4aa01e57fb2c880d1d9c778c33bdf85e48ef4c4d4b4de51abccf4ed"
                        ],
                        "v": "0x00",
                        "r": "0x4edfa007b661e114de58f5bdb78c41e9a10539be89a922e3b0ffdbb7ef770d73",
                        "s": "0x5c41645696b9a7e252982e03a9fadde2e688bcb6ceb14f38ae7c5aeb4678dfc6",
                        "sender": "0x1ad9bc24818784172ff393bb6f89f094d4d2ca29"
                    }
                ],
                "uncleHeaders": [],
                "withdrawals": [],
                "receipts": [
                    {
                        "transactionHash": "0x50d3df82b77a94b05c0f87dd2fdb9196e69bc0c8fac8bf3dbd7ff1191e4f436c",
                        "type": "0x02",
                        "cumulativeGasUsed": "0x864e",
                        "bloom": "0x00000000000000000000000000000000000000000000000000000000000000000000000000000000000000000000000000000000000000000000000000000000000000000000000000000000000000000000000000000000000000000000000000000000000000000000000000000000000000000000000000000000000000000000000000000000000000000000000000000000000000000000000000000000000000000000000000000000000000000000000000000000000000000000000000000000000000000000000000000000000000000000000000000000000000000000000000000000000000000000000000000000000000000000000000000000",
                        "logs": [],
                        "status": true,
                        "rlp": "0x02f901080182864eb9010000000000000000000000000000000000000000000000000000000000000000000000000000000000000000000000000000000000000000000000000000000000000000000000000000000000000000000000000000000000000000000000000000000000000000000000000000000000000000000000000000000000000000000000000000000000000000000000000000000000000000000000000000000000000000000000000000000000000000000000000000000000000000000000000000000000000000000000000000000000000000000000000000000000000000000000000000000000000000000000000000000000000000000000000000000000c0"
                    },
                    {
                        "transactionHash": "0x707edd3b04db829727eb5f3316a0f0665867f4b1f989f4917e14241074a02d09",
                        "type": "0x03",
                        "cumulativeGasUsed": "0x02df04",
                        "bloom": "0x00000000000000000000000000000000000000000000000000000000000000000000000000000000000000000000000000000000000000000000000000000000000000000000000000000000000000000000000000000000000000000000000000000000000000000000000000000000000000000000000000000000000000000000000000000000000000000000000000000000000000000000000000000000000000000000000000000000000000000000000000000000000000000000000000000000000000000000000000000000000000000000000000000000000000000000000000000000000000000000000000000000000000000000000000000000",
                        "logs": [],
                        "status": true,
                        "rlp": "0x03f90109018302df04b9010000000000000000000000000000000000000000000000000000000000000000000000000000000000000000000000000000000000000000000000000000000000000000000000000000000000000000000000000000000000000000000000000000000000000000000000000000000000000000000000000000000000000000000000000000000000000000000000000000000000000000000000000000000000000000000000000000000000000000000000000000000000000000000000000000000000000000000000000000000000000000000000000000000000000000000000000000000000000000000000000000000000000000000000000000000000c0"
                    }
                ],
                "rlp": "0xf90422f9023fa0aea4b97aa4a6972e6b581445f540df68beacb60635c989f4c32d52743c721ab0a01dcc4de8dec75d7aab85b567b6ccd41ad312451b948a7413f0a142fd40d49347942adc25665018aa1fe0e6bc666dac8fc2697ff9baa07156007d8f0fab7b63591b885f7f3397950ae296d3cbaa6dfdce749226b32ad8a0b803d1edbd5eba4abb70b3f760d3bac71218e7593358e93a91919064ef4afe18a0da5ac010087a7cb6e374f2cda2f2c54242b12da3fc28ef70fffbdce90d262adfb901000000000000000000000000000000000000000000000000000000000000000000000000000000000000000000000000000000000000000000000000000000000000000000000000000000000000000000000000000000000000000000000000000000000000000000000000000000000000000000000000000000000000000000000000000000000000000000000000000000000000000000000000000000000000000000000000000000000000000000000000000000000000000000000000000000000000000000000000000000000000000000000000000000000000000000000000000000000000000000000000000000000000000000000000000000000080038407270e008302df042480a0000000000000000000000000000000000000000000000000000000000000000088000000000000000007a056e81f171bcc55a6ff8345e692c0f86e5b48e01b996cadc001622fb5e363b421830c0000830c0000a00000000000000000000000000000000000000000000000000000000000000000f901dbb88602f883010480078307a12094bccd931dd3a7da0f120f39cd8c278f21d66219e180a00000000000000000000000000000000000000000000000000000000000000000c001a033820826acfcdef14ba5d50583b7cf5915a759258d6ab61d30a5b9d550df0da7a03370baf5e17977940c9d735a7b37d71b4fb650f81d588611265c667a3afb464fb9015003f9014c010580078307a12094c71a19e76b707e4ceb5f2c906e7f865f3124736b80a00000000000000000000000000000000000000000000000000000000000000000c00af8c6a001b8c5b09810b5fc07355d3da42e2c3a3e200c1d9a678491b7e8e256fc50cc4fa0015b4c8cc4f86aa2d2cf9e9ce97fca704a11a6c20f6b1d6c00a6e15f6d60a6dfa001878f80eaf10be1a6f618e6f8c071b10a6c14d9b89a3bf2a3f3cf2db6c5681da0014eb72b108d562c639faeb6f8c6f366a28b0381c7d30431117ec8c7bb89f834a001a9b2a6c3f3f0675b768d49b5f5dc5b5d988f88d55766247ba9e40b125f16bba001a4d4cde4aa01e57fb2c880d1d9c778c33bdf85e48ef4c4d4b4de51abccf4ed80a04edfa007b661e114de58f5bdb78c41e9a10539be89a922e3b0ffdbb7ef770d73a05c41645696b9a7e252982e03a9fadde2e688bcb6ceb14f38ae7c5aeb4678dfc6c0c0",
                "blocknumber": "3"
            }
        ],
        "sealEngine": "NoProof",
        "_info": {
            "hash": "0xef337aa8b1e57c4aa1201511aeccdd552b171aba2cdf3eb54c22efaafb4295d4",
            "fixture-format": "blockchain_test",
            "comment": "`execution-specs` generated test",
            "filling-transition-tool": "2.19.0",
            "description": "Tests that the `BLOBHASH` opcode returns the appropriate values when there\nis more than 1 blob tx type within a block (for tx types 2 and 3).\n\nScenarios involve tx type 3 followed by tx type 2 running the same code\nwithin a block, including the opposite.",
            "url": "https://github.com/ethereum/execution-specs/blob/tests-snobal-devnet-5@v8037.0.0/tests/cancun/eip4844_blobs/test_blobhash_opcode.py#L383",
            "metadata": {
                "opcode_count": {}
            },
            "reference-spec": "https://github.com/ethereum/EIPs/blob/master/EIPS/eip-4844.md",
            "reference-spec-version": "de2e4a46ad93fc04e6fe3174dc6e90a3307bdb5f"
        }
    }
}