{
    "tests/ported_static/stShift/test_shl01_minus_0100.py::test_shl01_minus_0100[fork_Cancun-blockchain_test_from_state_test]": {
        "network": "Cancun",
        "genesisBlockHeader": {
            "parentHash": "0x0000000000000000000000000000000000000000000000000000000000000000",
            "uncleHash": "0x1dcc4de8dec75d7aab85b567b6ccd41ad312451b948a7413f0a142fd40d49347",
            "coinbase": "0x0000000000000000000000000000000000000000",
            "stateRoot": "0x20ee7b0755fc1ba9ea4f81f8a84daa5cd0c917608a7b65adba55f625584b0c89",
            "transactionsTrie": "0x56e81f171bcc55a6ff8345e692c0f86e5b48e01b996cadc001622fb5e363b421",
            "receiptTrie": "0x56e81f171bcc55a6ff8345e692c0f86e5b48e01b996cadc001622fb5e363b421",
            "bloom": "0x00000000000000000000000000000000000000000000000000000000000000000000000000000000000000000000000000000000000000000000000000000000000000000000000000000000000000000000000000000000000000000000000000000000000000000000000000000000000000000000000000000000000000000000000000000000000000000000000000000000000000000000000000000000000000000000000000000000000000000000000000000000000000000000000000000000000000000000000000000000000000000000000000000000000000000000000000000000000000000000000000000000000000000000000000000000",
            "difficulty": "0x00",
            "number": "0x00",
            "gasLimit": "0x0f4240",
            "gasUsed": "0x00",
            "timestamp": "0x00",
            "extraData": "0x00",
            "mixHash": "0x0000000000000000000000000000000000000000000000000000000000000000",
            "nonce": "0x0000000000000000",
            "baseFeePerGas": "0x0b",
            "withdrawalsRoot": "0x56e81f171bcc55a6ff8345e692c0f86e5b48e01b996cadc001622fb5e363b421",
            "blobGasUsed": "0x00",
            "excessBlobGas": "0x00",
            "parentBeaconBlockRoot": "0x0000000000000000000000000000000000000000000000000000000000000000",
            "hash": "0x79f1125db1d62bc4d08c83ce3148360505fb2aa204dfdfc4abfbd039cc6316b2"
        },
        "pre": {
            "0x000f3df6d732807ef1319fb7b8bb8522d0beac02": {
                "nonce": "0x01",
                "balance": "0x00",
                "code": "0x3373fffffffffffffffffffffffffffffffffffffffe14604d57602036146024575f5ffd5b5f35801560495762001fff810690815414603c575f5ffd5b62001fff01545f5260205ff35b5f5ffd5b62001fff42064281555f359062001fff015500",
                "storage": {}
            },
            "0xd66f224cbd2fabb21b17bb53c56118f32f62ebd6": {
                "nonce": "0x00",
                "balance": "0x0de0b6b3a7640000",
                "code": "0x",
                "storage": {}
            },
            "0xb9328dddac9892f6690f9097e69ceff9be638af5": {
                "nonce": "0x00",
                "balance": "0x0de0b6b3a7640000",
                "code": "0x60016101001b600055",
                "storage": {
                    "0x00": "0x03"
                }
            }
        },
        "postState": {
            "0x000f3df6d732807ef1319fb7b8bb8522d0beac02": {
                "nonce": "0x01",
                "balance": "0x00",
                "code": "0x3373fffffffffffffffffffffffffffffffffffffffe14604d57602036146024575f5ffd5b5f35801560495762001fff810690815414603c575f5ffd5b62001fff01545f5260205ff35b5f5ffd5b62001fff42064281555f359062001fff015500",
                "storage": {
                    "0x03e8": "0x03e8"
                }
            },
            "0xd66f224cbd2fabb21b17bb53c56118f32f62ebd6": {
                "nonce": "0x01",
                "balance": "0x0de0b6b3a75f3cc8",
                "code": "0x",
                "storage": {}
            },
            "0xb9328dddac9892f6690f9097e69ceff9be638af5": {
                "nonce": "0x00",
                "balance": "0x0de0b6b3a76586a0",
                "code": "0x60016101001b600055",
                "storage": {}
            }
        },
        "lastblockhash": "0x52d7ac8003729bec5b75d6108b3ecfbf174f8915575de88f2d7b2b910cc0b6fc",
        "config": {
            "network": "Cancun",
            "chainid": "0x01",
            "blobSchedule": {
                "Cancun": {
                    "target": "0x03",
                    "max": "0x06",
                    "baseFeeUpdateFraction": "0x32f0ed"
                }
            }
        },
        "genesisRLP": "0xf9023bf90235a00000000000000000000000000000000000000000000000000000000000000000a01dcc4de8dec75d7aab85b567b6ccd41ad312451b948a7413f0a142fd40d49347940000000000000000000000000000000000000000a020ee7b0755fc1ba9ea4f81f8a84daa5cd0c917608a7b65adba55f625584b0c89a056e81f171bcc55a6ff8345e692c0f86e5b48e01b996cadc001622fb5e363b421a056e81f171bcc55a6ff8345e692c0f86e5b48e01b996cadc001622fb5e363b421b90100000000000000000000000000000000000000000000000000000000000000000000000000000000000000000000000000000000000000000000000000000000000000000000000000000000000000000000000000000000000000000000000000000000000000000000000000000000000000000000000000000000000000000000000000000000000000000000000000000000000000000000000000000000000000000000000000000000000000000000000000000000000000000000000000000000000000000000000000000000000000000000000000000000000000000000000000000000000000000000000000000000000000000000000000000000008080830f4240808000a000000000000000000000000000000000000000000000000000000000000000008800000000000000000ba056e81f171bcc55a6ff8345e692c0f86e5b48e01b996cadc001622fb5e363b4218080a00000000000000000000000000000000000000000000000000000000000000000c0c0c0",
        "blocks": [
            {
                "blockHeader": {
                    "parentHash": "0x79f1125db1d62bc4d08c83ce3148360505fb2aa204dfdfc4abfbd039cc6316b2",
                    "uncleHash": "0x1dcc4de8dec75d7aab85b567b6ccd41ad312451b948a7413f0a142fd40d49347",
                    "coinbase": "0x2adc25665018aa1fe0e6bc666dac8fc2697ff9ba",
                    "stateRoot": "0x3b36c9166c846818febc15a8d2432efe180698452be66c46a2e3bb3ce104aee3",
                    "transactionsTrie": "0x8c65057892cb020ea2461574b3d2ad04185d0c3e2dcef195a30226738ff26401",
                    "receiptTrie": "0x28c55eaf0dabd2d70fbc512aee0434de8baa6eac58978054378e0e1b52165c20",
                    "bloom": "0x00000000000000000000000000000000000000000000000000000000000000000000000000000000000000000000000000000000000000000000000000000000000000000000000000000000000000000000000000000000000000000000000000000000000000000000000000000000000000000000000000000000000000000000000000000000000000000000000000000000000000000000000000000000000000000000000000000000000000000000000000000000000000000000000000000000000000000000000000000000000000000000000000000000000000000000000000000000000000000000000000000000000000000000000000000000",
                    "difficulty": "0x00",
                    "number": "0x01",
                    "gasLimit": "0x0f4240",
                    "gasUsed": "0x52dc",
                    "timestamp": "0x03e8",
                    "extraData": "0x00",
                    "mixHash": "0x0000000000000000000000000000000000000000000000000000000000020000",
                    "nonce": "0x0000000000000000",
                    "baseFeePerGas": "0x0a",
                    "withdrawalsRoot": "0x56e81f171bcc55a6ff8345e692c0f86e5b48e01b996cadc001622fb5e363b421",
                    "blobGasUsed": "0x00",
                    "excessBlobGas": "0x00",
                    "parentBeaconBlockRoot": "0x0000000000000000000000000000000000000000000000000000000000000000",
                    "hash": "0x52d7ac8003729bec5b75d6108b3ecfbf174f8915575de88f2d7b2b910cc0b6fc"
                },
                "transactions": [
                    {
                        "type": "0x00",
                        "chainId": "0x01",
                        "nonce": "0x00",
                        "gasPrice": "0x0a",
                        "gasLimit": "0x061a80",
                        "to": "0xb9328dddac9892f6690f9097e69ceff9be638af5",
                        "value": "0x0186a0",
                        "data": "0x",
                        "v": "0x26",
                        "r": "0xe2473b4c5727090f05144a486fb46ea931e6fecb29aa678c9e91d3447a6c9eb5",
                        "s": "0x15b1ff069b4bb6a882eeea30cacdb2b209ce9238a36b8e0189dda726e18fcb5a",
                        "sender": "0xd66f224cbd2fabb21b17bb53c56118f32f62ebd6"
                    }
                ],
                "uncleHeaders": [],
                "withdrawals": [],
                "receipts": [
                    {
                        "transactionHash": "0x3ce688b0cd47c5ad22ed0217831b3decc7af11a09443ff1673f8270720a30bd1",
                        "type": "0x00",
                        "cumulativeGasUsed": "0x52dc",
                        "bloom": "0x00000000000000000000000000000000000000000000000000000000000000000000000000000000000000000000000000000000000000000000000000000000000000000000000000000000000000000000000000000000000000000000000000000000000000000000000000000000000000000000000000000000000000000000000000000000000000000000000000000000000000000000000000000000000000000000000000000000000000000000000000000000000000000000000000000000000000000000000000000000000000000000000000000000000000000000000000000000000000000000000000000000000000000000000000000000",
                        "logs": [],
                        "status": true,
                        "rlp": "0xf90108018252dcb9010000000000000000000000000000000000000000000000000000000000000000000000000000000000000000000000000000000000000000000000000000000000000000000000000000000000000000000000000000000000000000000000000000000000000000000000000000000000000000000000000000000000000000000000000000000000000000000000000000000000000000000000000000000000000000000000000000000000000000000000000000000000000000000000000000000000000000000000000000000000000000000000000000000000000000000000000000000000000000000000000000000000000000000000000000000000c0"
                    }
                ],
                "rlp": "0xf902a5f90239a079f1125db1d62bc4d08c83ce3148360505fb2aa204dfdfc4abfbd039cc6316b2a01dcc4de8dec75d7aab85b567b6ccd41ad312451b948a7413f0a142fd40d49347942adc25665018aa1fe0e6bc666dac8fc2697ff9baa03b36c9166c846818febc15a8d2432efe180698452be66c46a2e3bb3ce104aee3a08c65057892cb020ea2461574b3d2ad04185d0c3e2dcef195a30226738ff26401a028c55eaf0dabd2d70fbc512aee0434de8baa6eac58978054378e0e1b52165c20b90100000000000000000000000000000000000000000000000000000000000000000000000000000000000000000000000000000000000000000000000000000000000000000000000000000000000000000000000000000000000000000000000000000000000000000000000000000000000000000000000000000000000000000000000000000000000000000000000000000000000000000000000000000000000000000000000000000000000000000000000000000000000000000000000000000000000000000000000000000000000000000000000000000000000000000000000000000000000000000000000000000000000000000000000000000000008001830f42408252dc8203e800a000000000000000000000000000000000000000000000000000000000000200008800000000000000000aa056e81f171bcc55a6ff8345e692c0f86e5b48e01b996cadc001622fb5e363b4218080a00000000000000000000000000000000000000000000000000000000000000000f865f863800a83061a8094b9328dddac9892f6690f9097e69ceff9be638af5830186a08026a0e2473b4c5727090f05144a486fb46ea931e6fecb29aa678c9e91d3447a6c9eb5a015b1ff069b4bb6a882eeea30cacdb2b209ce9238a36b8e0189dda726e18fcb5ac0c0",
                "blocknumber": "1"
            }
        ],
        "sealEngine": "NoProof",
        "_info": {
            "hash": "0x321a3f4ab13d807da62307ddbaff73ceaa56f7a4e187a431f4411e19b5c2cea1",
            "fixture-format": "blockchain_test",
            "comment": "`execution-specs` generated test",
            "filling-transition-tool": "2.19.0",
            "description": "Test_shl01_minus_0100.",
            "url": "https://github.com/ethereum/execution-specs/blob/tests-snobal-devnet-5@v8037.0.0/tests/ported_static/stShift/test_shl01_minus_0100.py#L24",
            "metadata": {
                "opcode_count": {}
            }
        }
    }
}