{
    "tests/ported_static/stCallDelegateCodesCallCodeHomestead/test_callcodecallcodecallcode_111_ooge.py::test_callcodecallcodecallcode_111_ooge[fork_Cancun-blockchain_test_from_state_test]": {
        "network": "Cancun",
        "genesisBlockHeader": {
            "parentHash": "0x0000000000000000000000000000000000000000000000000000000000000000",
            "uncleHash": "0x1dcc4de8dec75d7aab85b567b6ccd41ad312451b948a7413f0a142fd40d49347",
            "coinbase": "0x0000000000000000000000000000000000000000",
            "stateRoot": "0xd80005594f0475cedea58e787a1748d87007b84fa48342a7bc658eb15ca67996",
            "transactionsTrie": "0x56e81f171bcc55a6ff8345e692c0f86e5b48e01b996cadc001622fb5e363b421",
            "receiptTrie": "0x56e81f171bcc55a6ff8345e692c0f86e5b48e01b996cadc001622fb5e363b421",
            "bloom": "0x00000000000000000000000000000000000000000000000000000000000000000000000000000000000000000000000000000000000000000000000000000000000000000000000000000000000000000000000000000000000000000000000000000000000000000000000000000000000000000000000000000000000000000000000000000000000000000000000000000000000000000000000000000000000000000000000000000000000000000000000000000000000000000000000000000000000000000000000000000000000000000000000000000000000000000000000000000000000000000000000000000000000000000000000000000000",
            "difficulty": "0x00",
            "number": "0x00",
            "gasLimit": "0x01c9c380",
            "gasUsed": "0x00",
            "timestamp": "0x00",
            "extraData": "0x00",
            "mixHash": "0x0000000000000000000000000000000000000000000000000000000000000000",
            "nonce": "0x0000000000000000",
            "baseFeePerGas": "0x0b",
            "withdrawalsRoot": "0x56e81f171bcc55a6ff8345e692c0f86e5b48e01b996cadc001622fb5e363b421",
            "blobGasUsed": "0x00",
            "excessBlobGas": "0x00",
            "parentBeaconBlockRoot": "0x0000000000000000000000000000000000000000000000000000000000000000",
            "hash": "0xff7b5fd2de0393303fe4954467cfcab4e9b5f3d790b6bea135cbc5de3bbfb854"
        },
        "pre": {
            "0x000f3df6d732807ef1319fb7b8bb8522d0beac02": {
                "nonce": "0x01",
                "balance": "0x00",
                "code": "0x3373fffffffffffffffffffffffffffffffffffffffe14604d57602036146024575f5ffd5b5f35801560495762001fff810690815414603c575f5ffd5b62001fff01545f5260205ff35b5f5ffd5b62001fff42064281555f359062001fff015500",
                "storage": {}
            },
            "0xd66f224cbd2fabb21b17bb53c56118f32f62ebd6": {
                "nonce": "0x00",
                "balance": "0x0de0b6b3a7640000",
                "code": "0x",
                "storage": {}
            },
            "0x0452a3c6b46e2274eb34f60ad44d6224284b527f": {
                "nonce": "0x00",
                "balance": "0x00",
                "code": "0x6001600355622fffff60002000",
                "storage": {}
            },
            "0x250b5b30d29d62fd40c332fd99b06735b11ef09d": {
                "nonce": "0x00",
                "balance": "0x00",
                "code": "0x6040600060406000730452a3c6b46e2274eb34f60ad44d6224284b527f62061a80f46002556001600b5500",
                "storage": {}
            },
            "0xc2f5ae524cd2b570a07b515964276e54d2682da2": {
                "nonce": "0x00",
                "balance": "0x00",
                "code": "0x604060006040600073250b5b30d29d62fd40c332fd99b06735b11ef09d620927c0f460015500",
                "storage": {}
            },
            "0x09cf5efc0df4791623db691df6c5559e5d32d3e9": {
                "nonce": "0x00",
                "balance": "0x0de0b6b3a7640000",
                "code": "0x604060006040600073c2f5ae524cd2b570a07b515964276e54d2682da2620c3500f460005500",
                "storage": {}
            }
        },
        "postState": {
            "0x000f3df6d732807ef1319fb7b8bb8522d0beac02": {
                "nonce": "0x01",
                "balance": "0x00",
                "code": "0x3373fffffffffffffffffffffffffffffffffffffffe14604d57602036146024575f5ffd5b5f35801560495762001fff810690815414603c575f5ffd5b62001fff01545f5260205ff35b5f5ffd5b62001fff42064281555f359062001fff015500",
                "storage": {
                    "0x03e8": "0x03e8"
                }
            },
            "0xd66f224cbd2fabb21b17bb53c56118f32f62ebd6": {
                "nonce": "0x01",
                "balance": "0x0de0b6b3a7181ad2",
                "code": "0x",
                "storage": {}
            },
            "0x0452a3c6b46e2274eb34f60ad44d6224284b527f": {
                "nonce": "0x00",
                "balance": "0x00",
                "code": "0x6001600355622fffff60002000",
                "storage": {}
            },
            "0x250b5b30d29d62fd40c332fd99b06735b11ef09d": {
                "nonce": "0x00",
                "balance": "0x00",
                "code": "0x6040600060406000730452a3c6b46e2274eb34f60ad44d6224284b527f62061a80f46002556001600b5500",
                "storage": {}
            },
            "0xc2f5ae524cd2b570a07b515964276e54d2682da2": {
                "nonce": "0x00",
                "balance": "0x00",
                "code": "0x604060006040600073250b5b30d29d62fd40c332fd99b06735b11ef09d620927c0f460015500",
                "storage": {}
            },
            "0x09cf5efc0df4791623db691df6c5559e5d32d3e9": {
                "nonce": "0x00",
                "balance": "0x0de0b6b3a7640000",
                "code": "0x604060006040600073c2f5ae524cd2b570a07b515964276e54d2682da2620c3500f460005500",
                "storage": {
                    "0x0b": "0x01",
                    "0x01": "0x01",
                    "0x00": "0x01"
                }
            }
        },
        "lastblockhash": "0x247c2610a943f6541f62a3283ab658a9f9385ba5e0cf20e3d1b98c59db9b27a0",
        "config": {
            "network": "Cancun",
            "chainid": "0x01",
            "blobSchedule": {
                "Cancun": {
                    "target": "0x03",
                    "max": "0x06",
                    "baseFeeUpdateFraction": "0x32f0ed"
                }
            }
        },
        "genesisRLP": "0xf9023cf90236a00000000000000000000000000000000000000000000000000000000000000000a01dcc4de8dec75d7aab85b567b6ccd41ad312451b948a7413f0a142fd40d49347940000000000000000000000000000000000000000a0d80005594f0475cedea58e787a1748d87007b84fa48342a7bc658eb15ca67996a056e81f171bcc55a6ff8345e692c0f86e5b48e01b996cadc001622fb5e363b421a056e81f171bcc55a6ff8345e692c0f86e5b48e01b996cadc001622fb5e363b421b901000000000000000000000000000000000000000000000000000000000000000000000000000000000000000000000000000000000000000000000000000000000000000000000000000000000000000000000000000000000000000000000000000000000000000000000000000000000000000000000000000000000000000000000000000000000000000000000000000000000000000000000000000000000000000000000000000000000000000000000000000000000000000000000000000000000000000000000000000000000000000000000000000000000000000000000000000000000000000000000000000000000000000000000000000000000080808401c9c380808000a000000000000000000000000000000000000000000000000000000000000000008800000000000000000ba056e81f171bcc55a6ff8345e692c0f86e5b48e01b996cadc001622fb5e363b4218080a00000000000000000000000000000000000000000000000000000000000000000c0c0c0",
        "blocks": [
            {
                "blockHeader": {
                    "parentHash": "0xff7b5fd2de0393303fe4954467cfcab4e9b5f3d790b6bea135cbc5de3bbfb854",
                    "uncleHash": "0x1dcc4de8dec75d7aab85b567b6ccd41ad312451b948a7413f0a142fd40d49347",
                    "coinbase": "0x2adc25665018aa1fe0e6bc666dac8fc2697ff9ba",
                    "stateRoot": "0xd73a107925034ce3da71b5e6579729474c1049e23acccaf8e4b34968dacbc457",
                    "transactionsTrie": "0x1612b271c383042d8f800cd2b4b03a58e50cd1cf44f534d35c8b5bc4366afcf7",
                    "receiptTrie": "0x5d187cfcfe72d15b74ec076dbfa0c698b7a519b2be0a6cbad3a7365cccb4a7e9",
                    "bloom": "0x00000000000000000000000000000000000000000000000000000000000000000000000000000000000000000000000000000000000000000000000000000000000000000000000000000000000000000000000000000000000000000000000000000000000000000000000000000000000000000000000000000000000000000000000000000000000000000000000000000000000000000000000000000000000000000000000000000000000000000000000000000000000000000000000000000000000000000000000000000000000000000000000000000000000000000000000000000000000000000000000000000000000000000000000000000000",
                    "difficulty": "0x00",
                    "number": "0x01",
                    "gasLimit": "0x01c9c380",
                    "gasUsed": "0x0796eb",
                    "timestamp": "0x03e8",
                    "extraData": "0x00",
                    "mixHash": "0x0000000000000000000000000000000000000000000000000000000000020000",
                    "nonce": "0x0000000000000000",
                    "baseFeePerGas": "0x0a",
                    "withdrawalsRoot": "0x56e81f171bcc55a6ff8345e692c0f86e5b48e01b996cadc001622fb5e363b421",
                    "blobGasUsed": "0x00",
                    "excessBlobGas": "0x00",
                    "parentBeaconBlockRoot": "0x0000000000000000000000000000000000000000000000000000000000000000",
                    "hash": "0x247c2610a943f6541f62a3283ab658a9f9385ba5e0cf20e3d1b98c59db9b27a0"
                },
                "transactions": [
                    {
                        "type": "0x00",
                        "chainId": "0x01",
                        "nonce": "0x00",
                        "gasPrice": "0x0a",
                        "gasLimit": "0x0f4240",
                        "to": "0x09cf5efc0df4791623db691df6c5559e5d32d3e9",
                        "value": "0x00",
                        "data": "0x",
                        "v": "0x26",
                        "r": "0xad51175450508bbb7771403f6340c428ea96df4b127699b6c70457c2a1f72b42",
                        "s": "0x4ce2e42f549f55c72376fb4fbe591337288716984c8ce1b4efa2c8ce2718eb5d",
                        "sender": "0xd66f224cbd2fabb21b17bb53c56118f32f62ebd6"
                    }
                ],
                "uncleHeaders": [],
                "withdrawals": [],
                "receipts": [
                    {
                        "transactionHash": "0xba7f482cabced37ce10aa547bd90e5e393ee5377e47420c4b61da2a902a97e9d",
                        "type": "0x00",
                        "cumulativeGasUsed": "0x0796eb",
                        "bloom": "0x00000000000000000000000000000000000000000000000000000000000000000000000000000000000000000000000000000000000000000000000000000000000000000000000000000000000000000000000000000000000000000000000000000000000000000000000000000000000000000000000000000000000000000000000000000000000000000000000000000000000000000000000000000000000000000000000000000000000000000000000000000000000000000000000000000000000000000000000000000000000000000000000000000000000000000000000000000000000000000000000000000000000000000000000000000000",
                        "logs": [],
                        "status": true,
                        "rlp": "0xf9010901830796ebb9010000000000000000000000000000000000000000000000000000000000000000000000000000000000000000000000000000000000000000000000000000000000000000000000000000000000000000000000000000000000000000000000000000000000000000000000000000000000000000000000000000000000000000000000000000000000000000000000000000000000000000000000000000000000000000000000000000000000000000000000000000000000000000000000000000000000000000000000000000000000000000000000000000000000000000000000000000000000000000000000000000000000000000000000000000000000c0"
                    }
                ],
                "rlp": "0xf902a4f9023ba0ff7b5fd2de0393303fe4954467cfcab4e9b5f3d790b6bea135cbc5de3bbfb854a01dcc4de8dec75d7aab85b567b6ccd41ad312451b948a7413f0a142fd40d49347942adc25665018aa1fe0e6bc666dac8fc2697ff9baa0d73a107925034ce3da71b5e6579729474c1049e23acccaf8e4b34968dacbc457a01612b271c383042d8f800cd2b4b03a58e50cd1cf44f534d35c8b5bc4366afcf7a05d187cfcfe72d15b74ec076dbfa0c698b7a519b2be0a6cbad3a7365cccb4a7e9b901000000000000000000000000000000000000000000000000000000000000000000000000000000000000000000000000000000000000000000000000000000000000000000000000000000000000000000000000000000000000000000000000000000000000000000000000000000000000000000000000000000000000000000000000000000000000000000000000000000000000000000000000000000000000000000000000000000000000000000000000000000000000000000000000000000000000000000000000000000000000000000000000000000000000000000000000000000000000000000000000000000000000000000000000000000000080018401c9c380830796eb8203e800a000000000000000000000000000000000000000000000000000000000000200008800000000000000000aa056e81f171bcc55a6ff8345e692c0f86e5b48e01b996cadc001622fb5e363b4218080a00000000000000000000000000000000000000000000000000000000000000000f862f860800a830f42409409cf5efc0df4791623db691df6c5559e5d32d3e9808026a0ad51175450508bbb7771403f6340c428ea96df4b127699b6c70457c2a1f72b42a04ce2e42f549f55c72376fb4fbe591337288716984c8ce1b4efa2c8ce2718eb5dc0c0",
                "blocknumber": "1"
            }
        ],
        "sealEngine": "NoProof",
        "_info": {
            "hash": "0x0fde7adb2f6646d25db3186158ae52ea0e7bc2be1ff2b1326ce2943d23c77b88",
            "fixture-format": "blockchain_test",
            "comment": "`execution-specs` generated test",
            "filling-transition-tool": "2.19.0",
            "description": "DELEGATE -> DELEGATE -> OOG DELEGATE -> CODE OOG.",
            "url": "https://github.com/ethereum/execution-specs/blob/tests-snobal-devnet-5@v8037.0.0/tests/ported_static/stCallDelegateCodesCallCodeHomestead/test_callcodecallcodecallcode_111_ooge.py#L24",
            "metadata": {
                "opcode_count": {}
            }
        }
    }
}