{
    "tests/ported_static/stRevertTest/test_revert_in_call_code.py::test_revert_in_call_code[fork_Cancun-blockchain_test_from_state_test]": {
        "network": "Cancun",
        "genesisBlockHeader": {
            "parentHash": "0x0000000000000000000000000000000000000000000000000000000000000000",
            "uncleHash": "0x1dcc4de8dec75d7aab85b567b6ccd41ad312451b948a7413f0a142fd40d49347",
            "coinbase": "0x0000000000000000000000000000000000000000",
            "stateRoot": "0xf52de778f99c710823349925967b13b898554e730ba30edc0f1888146defdb1e",
            "transactionsTrie": "0x56e81f171bcc55a6ff8345e692c0f86e5b48e01b996cadc001622fb5e363b421",
            "receiptTrie": "0x56e81f171bcc55a6ff8345e692c0f86e5b48e01b996cadc001622fb5e363b421",
            "bloom": "0x00000000000000000000000000000000000000000000000000000000000000000000000000000000000000000000000000000000000000000000000000000000000000000000000000000000000000000000000000000000000000000000000000000000000000000000000000000000000000000000000000000000000000000000000000000000000000000000000000000000000000000000000000000000000000000000000000000000000000000000000000000000000000000000000000000000000000000000000000000000000000000000000000000000000000000000000000000000000000000000000000000000000000000000000000000000",
            "difficulty": "0x00",
            "number": "0x00",
            "gasLimit": "0x0f4240",
            "gasUsed": "0x00",
            "timestamp": "0x00",
            "extraData": "0x00",
            "mixHash": "0x0000000000000000000000000000000000000000000000000000000000000000",
            "nonce": "0x0000000000000000",
            "baseFeePerGas": "0x0b",
            "withdrawalsRoot": "0x56e81f171bcc55a6ff8345e692c0f86e5b48e01b996cadc001622fb5e363b421",
            "blobGasUsed": "0x00",
            "excessBlobGas": "0x00",
            "parentBeaconBlockRoot": "0x0000000000000000000000000000000000000000000000000000000000000000",
            "hash": "0x3c1a81a68ee397c1fb762961d8b80db8cc545aaa729cbf79cfd673dd20b88929"
        },
        "pre": {
            "0x000f3df6d732807ef1319fb7b8bb8522d0beac02": {
                "nonce": "0x01",
                "balance": "0x00",
                "code": "0x3373fffffffffffffffffffffffffffffffffffffffe14604d57602036146024575f5ffd5b5f35801560495762001fff810690815414603c575f5ffd5b62001fff01545f5260205ff35b5f5ffd5b62001fff42064281555f359062001fff015500",
                "storage": {}
            },
            "0x5e1d76d7badbad41710e47410dba9226c255d229": {
                "nonce": "0x00",
                "balance": "0x03e8",
                "code": "0x60406000604060006103e87326bc42b8191ccb142cb8cbc3490bd3bdce46559161c350f26000553d6001556020600060403e60405160025500",
                "storage": {}
            },
            "0x26bc42b8191ccb142cb8cbc3490bd3bdce465591": {
                "nonce": "0x00",
                "balance": "0x00",
                "code": "0x61223260005260206000fd00",
                "storage": {}
            },
            "0x7f3f285918d9b5e764174551e10b7539b97bbb27": {
                "nonce": "0x00",
                "balance": "0x05f5e100",
                "code": "0x",
                "storage": {}
            }
        },
        "postState": {
            "0x000f3df6d732807ef1319fb7b8bb8522d0beac02": {
                "nonce": "0x01",
                "balance": "0x00",
                "code": "0x3373fffffffffffffffffffffffffffffffffffffffe14604d57602036146024575f5ffd5b5f35801560495762001fff810690815414603c575f5ffd5b62001fff01545f5260205ff35b5f5ffd5b62001fff42064281555f359062001fff015500",
                "storage": {
                    "0x03e8": "0x03e8"
                }
            },
            "0x5e1d76d7badbad41710e47410dba9226c255d229": {
                "nonce": "0x00",
                "balance": "0x03e8",
                "code": "0x60406000604060006103e87326bc42b8191ccb142cb8cbc3490bd3bdce46559161c350f26000553d6001556020600060403e60405160025500",
                "storage": {
                    "0x01": "0x20",
                    "0x02": "0x2232"
                }
            },
            "0x26bc42b8191ccb142cb8cbc3490bd3bdce465591": {
                "nonce": "0x00",
                "balance": "0x00",
                "code": "0x61223260005260206000fd00",
                "storage": {}
            },
            "0x7f3f285918d9b5e764174551e10b7539b97bbb27": {
                "nonce": "0x01",
                "balance": "0x05ea29c8",
                "code": "0x",
                "storage": {}
            }
        },
        "lastblockhash": "0x51265665ff560d3d55aca4ad5e167f9f560eacd1b7660a0558cc9ea9aee4dc7a",
        "config": {
            "network": "Cancun",
            "chainid": "0x01",
            "blobSchedule": {
                "Cancun": {
                    "target": "0x03",
                    "max": "0x06",
                    "baseFeeUpdateFraction": "0x32f0ed"
                }
            }
        },
        "genesisRLP": "0xf9023bf90235a00000000000000000000000000000000000000000000000000000000000000000a01dcc4de8dec75d7aab85b567b6ccd41ad312451b948a7413f0a142fd40d49347940000000000000000000000000000000000000000a0f52de778f99c710823349925967b13b898554e730ba30edc0f1888146defdb1ea056e81f171bcc55a6ff8345e692c0f86e5b48e01b996cadc001622fb5e363b421a056e81f171bcc55a6ff8345e692c0f86e5b48e01b996cadc001622fb5e363b421b90100000000000000000000000000000000000000000000000000000000000000000000000000000000000000000000000000000000000000000000000000000000000000000000000000000000000000000000000000000000000000000000000000000000000000000000000000000000000000000000000000000000000000000000000000000000000000000000000000000000000000000000000000000000000000000000000000000000000000000000000000000000000000000000000000000000000000000000000000000000000000000000000000000000000000000000000000000000000000000000000000000000000000000000000000000000008080830f4240808000a000000000000000000000000000000000000000000000000000000000000000008800000000000000000ba056e81f171bcc55a6ff8345e692c0f86e5b48e01b996cadc001622fb5e363b4218080a00000000000000000000000000000000000000000000000000000000000000000c0c0c0",
        "blocks": [
            {
                "blockHeader": {
                    "parentHash": "0x3c1a81a68ee397c1fb762961d8b80db8cc545aaa729cbf79cfd673dd20b88929",
                    "uncleHash": "0x1dcc4de8dec75d7aab85b567b6ccd41ad312451b948a7413f0a142fd40d49347",
                    "coinbase": "0x2adc25665018aa1fe0e6bc666dac8fc2697ff9ba",
                    "stateRoot": "0xd2ab2fd2b520f556ba321ee45810a1b58fe9ce0db06b002a618129d709dbe78e",
                    "transactionsTrie": "0x1bd37e4d3f055e1c01bf335fa9c610b2abf4d046def437e057f6de3554283900",
                    "receiptTrie": "0xa2836514dc8d6b6f8a7a64515636827cda9a822d844a55b1546f12357fd54d77",
                    "bloom": "0x00000000000000000000000000000000000000000000000000000000000000000000000000000000000000000000000000000000000000000000000000000000000000000000000000000000000000000000000000000000000000000000000000000000000000000000000000000000000000000000000000000000000000000000000000000000000000000000000000000000000000000000000000000000000000000000000000000000000000000000000000000000000000000000000000000000000000000000000000000000000000000000000000000000000000000000000000000000000000000000000000000000000000000000000000000000",
                    "difficulty": "0x00",
                    "number": "0x01",
                    "gasLimit": "0x0f4240",
                    "gasUsed": "0x012bec",
                    "timestamp": "0x03e8",
                    "extraData": "0x00",
                    "mixHash": "0x0000000000000000000000000000000000000000000000000000000000020000",
                    "nonce": "0x0000000000000000",
                    "baseFeePerGas": "0x0a",
                    "withdrawalsRoot": "0x56e81f171bcc55a6ff8345e692c0f86e5b48e01b996cadc001622fb5e363b421",
                    "blobGasUsed": "0x00",
                    "excessBlobGas": "0x00",
                    "parentBeaconBlockRoot": "0x0000000000000000000000000000000000000000000000000000000000000000",
                    "hash": "0x51265665ff560d3d55aca4ad5e167f9f560eacd1b7660a0558cc9ea9aee4dc7a"
                },
                "transactions": [
                    {
                        "type": "0x00",
                        "chainId": "0x01",
                        "nonce": "0x00",
                        "gasPrice": "0x0a",
                        "gasLimit": "0x019a54",
                        "to": "0x5e1d76d7badbad41710e47410dba9226c255d229",
                        "value": "0x00",
                        "data": "0x",
                        "v": "0x26",
                        "r": "0x800412ee0248a8e9cac90239003245a6ac4d451d63a1c37f1a65645fc21fed40",
                        "s": "0x2ddae4700f63e40f5101d2e4e39cf51879014a061cf81c0ae4bbebc8d58d6e1d",
                        "sender": "0x7f3f285918d9b5e764174551e10b7539b97bbb27"
                    }
                ],
                "uncleHeaders": [],
                "withdrawals": [],
                "receipts": [
                    {
                        "transactionHash": "0x1ab56944c5981e73b470792ef22584ed09168ed942181108015e4e0228ec916b",
                        "type": "0x00",
                        "cumulativeGasUsed": "0x012bec",
                        "bloom": "0x00000000000000000000000000000000000000000000000000000000000000000000000000000000000000000000000000000000000000000000000000000000000000000000000000000000000000000000000000000000000000000000000000000000000000000000000000000000000000000000000000000000000000000000000000000000000000000000000000000000000000000000000000000000000000000000000000000000000000000000000000000000000000000000000000000000000000000000000000000000000000000000000000000000000000000000000000000000000000000000000000000000000000000000000000000000",
                        "logs": [],
                        "status": true,
                        "rlp": "0xf901090183012becb9010000000000000000000000000000000000000000000000000000000000000000000000000000000000000000000000000000000000000000000000000000000000000000000000000000000000000000000000000000000000000000000000000000000000000000000000000000000000000000000000000000000000000000000000000000000000000000000000000000000000000000000000000000000000000000000000000000000000000000000000000000000000000000000000000000000000000000000000000000000000000000000000000000000000000000000000000000000000000000000000000000000000000000000000000000000000c0"
                    }
                ],
                "rlp": "0xf902a3f9023aa03c1a81a68ee397c1fb762961d8b80db8cc545aaa729cbf79cfd673dd20b88929a01dcc4de8dec75d7aab85b567b6ccd41ad312451b948a7413f0a142fd40d49347942adc25665018aa1fe0e6bc666dac8fc2697ff9baa0d2ab2fd2b520f556ba321ee45810a1b58fe9ce0db06b002a618129d709dbe78ea01bd37e4d3f055e1c01bf335fa9c610b2abf4d046def437e057f6de3554283900a0a2836514dc8d6b6f8a7a64515636827cda9a822d844a55b1546f12357fd54d77b90100000000000000000000000000000000000000000000000000000000000000000000000000000000000000000000000000000000000000000000000000000000000000000000000000000000000000000000000000000000000000000000000000000000000000000000000000000000000000000000000000000000000000000000000000000000000000000000000000000000000000000000000000000000000000000000000000000000000000000000000000000000000000000000000000000000000000000000000000000000000000000000000000000000000000000000000000000000000000000000000000000000000000000000000000000000008001830f424083012bec8203e800a000000000000000000000000000000000000000000000000000000000000200008800000000000000000aa056e81f171bcc55a6ff8345e692c0f86e5b48e01b996cadc001622fb5e363b4218080a00000000000000000000000000000000000000000000000000000000000000000f862f860800a83019a54945e1d76d7badbad41710e47410dba9226c255d229808026a0800412ee0248a8e9cac90239003245a6ac4d451d63a1c37f1a65645fc21fed40a02ddae4700f63e40f5101d2e4e39cf51879014a061cf81c0ae4bbebc8d58d6e1dc0c0",
                "blocknumber": "1"
            }
        ],
        "sealEngine": "NoProof",
        "_info": {
            "hash": "0xb75c5185f5be82c3b0a5b1a133d765868b50acfef01d3fc4d94b64e4531ede15",
            "fixture-format": "blockchain_test",
            "comment": "`execution-specs` generated test",
            "filling-transition-tool": "2.19.0",
            "description": "Test_revert_in_call_code.",
            "url": "https://github.com/ethereum/execution-specs/blob/tests-bal@v5.6.0/tests/ported_static/stRevertTest/test_revert_in_call_code.py#L27",
            "metadata": {
                "opcode_count": {}
            }
        }
    }
}