{
    "tests/ported_static/stTransactionTest/test_point_at_infinity_ec_recover.py::test_point_at_infinity_ec_recover[fork_Cancun-blockchain_test_from_state_test]": {
        "network": "Cancun",
        "genesisBlockHeader": {
            "parentHash": "0x0000000000000000000000000000000000000000000000000000000000000000",
            "uncleHash": "0x1dcc4de8dec75d7aab85b567b6ccd41ad312451b948a7413f0a142fd40d49347",
            "coinbase": "0x0000000000000000000000000000000000000000",
            "stateRoot": "0xdde47ac2341e558c7b2b661e54a89accacf1e7239ea02f8b01f5eeda185f707e",
            "transactionsTrie": "0x56e81f171bcc55a6ff8345e692c0f86e5b48e01b996cadc001622fb5e363b421",
            "receiptTrie": "0x56e81f171bcc55a6ff8345e692c0f86e5b48e01b996cadc001622fb5e363b421",
            "bloom": "0x00000000000000000000000000000000000000000000000000000000000000000000000000000000000000000000000000000000000000000000000000000000000000000000000000000000000000000000000000000000000000000000000000000000000000000000000000000000000000000000000000000000000000000000000000000000000000000000000000000000000000000000000000000000000000000000000000000000000000000000000000000000000000000000000000000000000000000000000000000000000000000000000000000000000000000000000000000000000000000000000000000000000000000000000000000000",
            "difficulty": "0x00",
            "number": "0x00",
            "gasLimit": "0x05500000",
            "gasUsed": "0x00",
            "timestamp": "0x00",
            "extraData": "0x00",
            "mixHash": "0x0000000000000000000000000000000000000000000000000000000000000000",
            "nonce": "0x0000000000000000",
            "baseFeePerGas": "0x0b",
            "withdrawalsRoot": "0x56e81f171bcc55a6ff8345e692c0f86e5b48e01b996cadc001622fb5e363b421",
            "blobGasUsed": "0x00",
            "excessBlobGas": "0x00",
            "parentBeaconBlockRoot": "0x0000000000000000000000000000000000000000000000000000000000000000",
            "hash": "0xa7aab6bcfab389cb307841eb4d8e59ec19776d11a3fbb431f8a964c51526616b"
        },
        "pre": {
            "0x000f3df6d732807ef1319fb7b8bb8522d0beac02": {
                "nonce": "0x01",
                "balance": "0x00",
                "code": "0x3373fffffffffffffffffffffffffffffffffffffffe14604d57602036146024575f5ffd5b5f35801560495762001fff810690815414603c575f5ffd5b62001fff01545f5260205ff35b5f5ffd5b62001fff42064281555f359062001fff015500",
                "storage": {}
            },
            "0xb9f36f1cb467544974bb7e0f5e1f0a499d4e6d7d": {
                "nonce": "0x00",
                "balance": "0xffffffff",
                "code": "0x6000805160206065833981519152600052601b6020527f79be667ef9dcbbac55a06295ce870b07029bfcdb2dce28d959f2815b16f81798604052600080516020606583398151915260605260206000608081806001620f4240f160005560005160015500fe6b8d2c81b11b2d699528dde488dbdf2f94293d0d33c32e347f255fa4a6c1f0a9",
                "storage": {}
            },
            "0xebaf50debf10e08302fe4280c32df010463ca297": {
                "nonce": "0x00",
                "balance": "0x0de0b6b3a7640000",
                "code": "0x",
                "storage": {}
            }
        },
        "postState": {
            "0x000f3df6d732807ef1319fb7b8bb8522d0beac02": {
                "nonce": "0x01",
                "balance": "0x00",
                "code": "0x3373fffffffffffffffffffffffffffffffffffffffe14604d57602036146024575f5ffd5b5f35801560495762001fff810690815414603c575f5ffd5b62001fff01545f5260205ff35b5f5ffd5b62001fff42064281555f359062001fff015500",
                "storage": {
                    "0x03e8": "0x03e8"
                }
            },
            "0xb9f36f1cb467544974bb7e0f5e1f0a499d4e6d7d": {
                "nonce": "0x00",
                "balance": "0xffffffff",
                "code": "0x6000805160206065833981519152600052601b6020527f79be667ef9dcbbac55a06295ce870b07029bfcdb2dce28d959f2815b16f81798604052600080516020606583398151915260605260206000608081806001620f4240f160005560005160015500fe6b8d2c81b11b2d699528dde488dbdf2f94293d0d33c32e347f255fa4a6c1f0a9",
                "storage": {
                    "0x00": "0x01",
                    "0x01": "0x6b8d2c81b11b2d699528dde488dbdf2f94293d0d33c32e347f255fa4a6c1f0a9"
                }
            },
            "0xebaf50debf10e08302fe4280c32df010463ca297": {
                "nonce": "0x01",
                "balance": "0x0de0b6b3a7598e4a",
                "code": "0x",
                "storage": {}
            }
        },
        "lastblockhash": "0x9927ced9dbebfb5acac6e97dde2ececcd07a4c33f10adaa225e1f055177cf596",
        "config": {
            "network": "Cancun",
            "chainid": "0x01",
            "blobSchedule": {
                "Cancun": {
                    "target": "0x03",
                    "max": "0x06",
                    "baseFeeUpdateFraction": "0x32f0ed"
                }
            }
        },
        "genesisRLP": "0xf9023cf90236a00000000000000000000000000000000000000000000000000000000000000000a01dcc4de8dec75d7aab85b567b6ccd41ad312451b948a7413f0a142fd40d49347940000000000000000000000000000000000000000a0dde47ac2341e558c7b2b661e54a89accacf1e7239ea02f8b01f5eeda185f707ea056e81f171bcc55a6ff8345e692c0f86e5b48e01b996cadc001622fb5e363b421a056e81f171bcc55a6ff8345e692c0f86e5b48e01b996cadc001622fb5e363b421b901000000000000000000000000000000000000000000000000000000000000000000000000000000000000000000000000000000000000000000000000000000000000000000000000000000000000000000000000000000000000000000000000000000000000000000000000000000000000000000000000000000000000000000000000000000000000000000000000000000000000000000000000000000000000000000000000000000000000000000000000000000000000000000000000000000000000000000000000000000000000000000000000000000000000000000000000000000000000000000000000000000000000000000000000000000000080808405500000808000a000000000000000000000000000000000000000000000000000000000000000008800000000000000000ba056e81f171bcc55a6ff8345e692c0f86e5b48e01b996cadc001622fb5e363b4218080a00000000000000000000000000000000000000000000000000000000000000000c0c0c0",
        "blocks": [
            {
                "blockHeader": {
                    "parentHash": "0xa7aab6bcfab389cb307841eb4d8e59ec19776d11a3fbb431f8a964c51526616b",
                    "uncleHash": "0x1dcc4de8dec75d7aab85b567b6ccd41ad312451b948a7413f0a142fd40d49347",
                    "coinbase": "0x2adc25665018aa1fe0e6bc666dac8fc2697ff9ba",
                    "stateRoot": "0xf5753445354b4c27bfd674d4f1b2bf7a4dad677aa580fcc6a3c74e668ddecfea",
                    "transactionsTrie": "0x4f268262a38fbf04f7df7a82aff4745a55a97c566746d0103226e91ad7739f6e",
                    "receiptTrie": "0xfb0e1f610c40a75fde024269b14c44640c476acad9e87c4f4afd35090028f20a",
                    "bloom": "0x00000000000000000000000000000000000000000000000000000000000000000000000000000000000000000000000000000000000000000000000000000000000000000000000000000000000000000000000000000000000000000000000000000000000000000000000000000000000000000000000000000000000000000000000000000000000000000000000000000000000000000000000000000000000000000000000000000000000000000000000000000000000000000000000000000000000000000000000000000000000000000000000000000000000000000000000000000000000000000000000000000000000000000000000000000000",
                    "difficulty": "0x00",
                    "number": "0x01",
                    "gasLimit": "0x05500000",
                    "gasUsed": "0x010b5f",
                    "timestamp": "0x03e8",
                    "extraData": "0x00",
                    "mixHash": "0x0000000000000000000000000000000000000000000000000000000000020000",
                    "nonce": "0x0000000000000000",
                    "baseFeePerGas": "0x0a",
                    "withdrawalsRoot": "0x56e81f171bcc55a6ff8345e692c0f86e5b48e01b996cadc001622fb5e363b421",
                    "blobGasUsed": "0x00",
                    "excessBlobGas": "0x00",
                    "parentBeaconBlockRoot": "0x0000000000000000000000000000000000000000000000000000000000000000",
                    "hash": "0x9927ced9dbebfb5acac6e97dde2ececcd07a4c33f10adaa225e1f055177cf596"
                },
                "transactions": [
                    {
                        "type": "0x00",
                        "chainId": "0x01",
                        "nonce": "0x00",
                        "gasPrice": "0x0a",
                        "gasLimit": "0x989680",
                        "to": "0xb9f36f1cb467544974bb7e0f5e1f0a499d4e6d7d",
                        "value": "0x00",
                        "data": "0x",
                        "v": "0x25",
                        "r": "0x40da580c0fc64b98b3a0cb028642d3a4c7063b20513bc179e3b6766cb1efe933",
                        "s": "0x65c3ff33dff7ab01ce574ef8e0ac585389dc38c64a6212a4e147b5fa0c1613a5",
                        "sender": "0xebaf50debf10e08302fe4280c32df010463ca297"
                    }
                ],
                "uncleHeaders": [],
                "withdrawals": [],
                "receipts": [
                    {
                        "transactionHash": "0xf8ec8f31d630344ec078415aed156234c3b686c59718db24da7ab3cd52dc35d4",
                        "type": "0x00",
                        "cumulativeGasUsed": "0x010b5f",
                        "bloom": "0x00000000000000000000000000000000000000000000000000000000000000000000000000000000000000000000000000000000000000000000000000000000000000000000000000000000000000000000000000000000000000000000000000000000000000000000000000000000000000000000000000000000000000000000000000000000000000000000000000000000000000000000000000000000000000000000000000000000000000000000000000000000000000000000000000000000000000000000000000000000000000000000000000000000000000000000000000000000000000000000000000000000000000000000000000000000",
                        "logs": [],
                        "status": true,
                        "rlp": "0xf901090183010b5fb9010000000000000000000000000000000000000000000000000000000000000000000000000000000000000000000000000000000000000000000000000000000000000000000000000000000000000000000000000000000000000000000000000000000000000000000000000000000000000000000000000000000000000000000000000000000000000000000000000000000000000000000000000000000000000000000000000000000000000000000000000000000000000000000000000000000000000000000000000000000000000000000000000000000000000000000000000000000000000000000000000000000000000000000000000000000000c0"
                    }
                ],
                "rlp": "0xf902a4f9023ba0a7aab6bcfab389cb307841eb4d8e59ec19776d11a3fbb431f8a964c51526616ba01dcc4de8dec75d7aab85b567b6ccd41ad312451b948a7413f0a142fd40d49347942adc25665018aa1fe0e6bc666dac8fc2697ff9baa0f5753445354b4c27bfd674d4f1b2bf7a4dad677aa580fcc6a3c74e668ddecfeaa04f268262a38fbf04f7df7a82aff4745a55a97c566746d0103226e91ad7739f6ea0fb0e1f610c40a75fde024269b14c44640c476acad9e87c4f4afd35090028f20ab90100000000000000000000000000000000000000000000000000000000000000000000000000000000000000000000000000000000000000000000000000000000000000000000000000000000000000000000000000000000000000000000000000000000000000000000000000000000000000000000000000000000000000000000000000000000000000000000000000000000000000000000000000000000000000000000000000000000000000000000000000000000000000000000000000000000000000000000000000000000000000000000000000000000000000000000000000000000000000000000000000000000000000000000000000000000008001840550000083010b5f8203e800a000000000000000000000000000000000000000000000000000000000000200008800000000000000000aa056e81f171bcc55a6ff8345e692c0f86e5b48e01b996cadc001622fb5e363b4218080a00000000000000000000000000000000000000000000000000000000000000000f862f860800a8398968094b9f36f1cb467544974bb7e0f5e1f0a499d4e6d7d808025a040da580c0fc64b98b3a0cb028642d3a4c7063b20513bc179e3b6766cb1efe933a065c3ff33dff7ab01ce574ef8e0ac585389dc38c64a6212a4e147b5fa0c1613a5c0c0",
                "blocknumber": "1"
            }
        ],
        "sealEngine": "NoProof",
        "_info": {
            "hash": "0x41d0b48dcceb9ad5d833e246f57e8f2625525fa244d06218ce9f2c676f228404",
            "fixture-format": "blockchain_test",
            "comment": "`execution-specs` generated test",
            "filling-transition-tool": "2.19.0",
            "description": "Test_point_at_infinity_ec_recover.",
            "url": "https://github.com/ethereum/execution-specs/blob/tests-sn\u00f8bal-devnet-4@v1.0.0/tests/ported_static/stTransactionTest/test_point_at_infinity_ec_recover.py#L24",
            "metadata": {
                "opcode_count": {}
            }
        }
    }
}