{
    "tests/ported_static/stEIP158Specific/test_exp_empty.py::test_exp_empty[fork_Cancun-blockchain_test_from_state_test]": {
        "network": "Cancun",
        "genesisBlockHeader": {
            "parentHash": "0x0000000000000000000000000000000000000000000000000000000000000000",
            "uncleHash": "0x1dcc4de8dec75d7aab85b567b6ccd41ad312451b948a7413f0a142fd40d49347",
            "coinbase": "0x0000000000000000000000000000000000000000",
            "stateRoot": "0x85106676d4c69b3621b23c21ed0145b3fcd111934b309ea2f569a4b89ca23bf9",
            "transactionsTrie": "0x56e81f171bcc55a6ff8345e692c0f86e5b48e01b996cadc001622fb5e363b421",
            "receiptTrie": "0x56e81f171bcc55a6ff8345e692c0f86e5b48e01b996cadc001622fb5e363b421",
            "bloom": "0x00000000000000000000000000000000000000000000000000000000000000000000000000000000000000000000000000000000000000000000000000000000000000000000000000000000000000000000000000000000000000000000000000000000000000000000000000000000000000000000000000000000000000000000000000000000000000000000000000000000000000000000000000000000000000000000000000000000000000000000000000000000000000000000000000000000000000000000000000000000000000000000000000000000000000000000000000000000000000000000000000000000000000000000000000000000",
            "difficulty": "0x00",
            "number": "0x00",
            "gasLimit": "0x989680",
            "gasUsed": "0x00",
            "timestamp": "0x00",
            "extraData": "0x00",
            "mixHash": "0x0000000000000000000000000000000000000000000000000000000000000000",
            "nonce": "0x0000000000000000",
            "baseFeePerGas": "0x0b",
            "withdrawalsRoot": "0x56e81f171bcc55a6ff8345e692c0f86e5b48e01b996cadc001622fb5e363b421",
            "blobGasUsed": "0x00",
            "excessBlobGas": "0x00",
            "parentBeaconBlockRoot": "0x0000000000000000000000000000000000000000000000000000000000000000",
            "hash": "0xa8e26584b65424aea03c7d39cbfe13164c1b006db8e4723d0690de6cf36c1042"
        },
        "pre": {
            "0x000f3df6d732807ef1319fb7b8bb8522d0beac02": {
                "nonce": "0x01",
                "balance": "0x00",
                "code": "0x3373fffffffffffffffffffffffffffffffffffffffe14604d57602036146024575f5ffd5b5f35801560495762001fff810690815414603c575f5ffd5b62001fff01545f5260205ff35b5f5ffd5b62001fff42064281555f359062001fff015500",
                "storage": {}
            },
            "0xd719ccdb2301950b0a0bdf09a2bb1d5f8b225f6f": {
                "nonce": "0x00",
                "balance": "0xe8d4a51000",
                "code": "0x",
                "storage": {}
            },
            "0xcf2058bdb66d7ae262360bdee02711a0f5fd9816": {
                "nonce": "0x00",
                "balance": "0x00",
                "code": "0x5a600052600c60000a6001555a600051036002555a6000526000600c0a6003555a600051036004555a60005267ffffffffffffffff60000a6005555a600051036006555a6000526fffffffffffffffffffffffffffffffff60000a6007555a600051036008555a6000527fffffffffffffffffffffffffffffffffffffffffffffffffffffffffffffffff60000a6009555a60005103600a555a600052600067ffffffffffffffff0a600b555a60005103600c555a60005260006fffffffffffffffffffffffffffffffff0a600d555a60005103600e555a60005260007fffffffffffffffffffffffffffffffffffffffffffffffffffffffffffffffff0a600f555a6000510360645500",
                "storage": {}
            }
        },
        "postState": {
            "0x000f3df6d732807ef1319fb7b8bb8522d0beac02": {
                "nonce": "0x01",
                "balance": "0x00",
                "code": "0x3373fffffffffffffffffffffffffffffffffffffffe14604d57602036146024575f5ffd5b5f35801560495762001fff810690815414603c575f5ffd5b62001fff01545f5260205ff35b5f5ffd5b62001fff42064281555f359062001fff015500",
                "storage": {
                    "0x03e8": "0x03e8"
                }
            },
            "0xd719ccdb2301950b0a0bdf09a2bb1d5f8b225f6f": {
                "nonce": "0x01",
                "balance": "0xe8d477904e",
                "code": "0x",
                "storage": {}
            },
            "0xcf2058bdb66d7ae262360bdee02711a0f5fd9816": {
                "nonce": "0x00",
                "balance": "0x00",
                "code": "0x5a600052600c60000a6001555a600051036002555a6000526000600c0a6003555a600051036004555a60005267ffffffffffffffff60000a6005555a600051036006555a6000526fffffffffffffffffffffffffffffffff60000a6007555a600051036008555a6000527fffffffffffffffffffffffffffffffffffffffffffffffffffffffffffffffff60000a6009555a60005103600a555a600052600067ffffffffffffffff0a600b555a60005103600c555a60005260006fffffffffffffffffffffffffffffffff0a600d555a60005103600e555a60005260007fffffffffffffffffffffffffffffffffffffffffffffffffffffffffffffffff0a600f555a6000510360645500",
                "storage": {
                    "0x02": "0x08e8",
                    "0x03": "0x01",
                    "0x04": "0x566f",
                    "0x06": "0x0a43",
                    "0x08": "0x0bd3",
                    "0x0a": "0x0ef3",
                    "0x0b": "0x01",
                    "0x0c": "0x566f",
                    "0x0d": "0x01",
                    "0x0e": "0x566f",
                    "0x0f": "0x01",
                    "0x64": "0x566f"
                }
            }
        },
        "lastblockhash": "0x9381b7090f022c2ebe24969bdc662a396181eb01e51af15124bbd52dc6528521",
        "config": {
            "network": "Cancun",
            "chainid": "0x01",
            "blobSchedule": {
                "Cancun": {
                    "target": "0x03",
                    "max": "0x06",
                    "baseFeeUpdateFraction": "0x32f0ed"
                }
            }
        },
        "genesisRLP": "0xf9023bf90235a00000000000000000000000000000000000000000000000000000000000000000a01dcc4de8dec75d7aab85b567b6ccd41ad312451b948a7413f0a142fd40d49347940000000000000000000000000000000000000000a085106676d4c69b3621b23c21ed0145b3fcd111934b309ea2f569a4b89ca23bf9a056e81f171bcc55a6ff8345e692c0f86e5b48e01b996cadc001622fb5e363b421a056e81f171bcc55a6ff8345e692c0f86e5b48e01b996cadc001622fb5e363b421b9010000000000000000000000000000000000000000000000000000000000000000000000000000000000000000000000000000000000000000000000000000000000000000000000000000000000000000000000000000000000000000000000000000000000000000000000000000000000000000000000000000000000000000000000000000000000000000000000000000000000000000000000000000000000000000000000000000000000000000000000000000000000000000000000000000000000000000000000000000000000000000000000000000000000000000000000000000000000000000000000000000000000000000000000000000000000808083989680808000a000000000000000000000000000000000000000000000000000000000000000008800000000000000000ba056e81f171bcc55a6ff8345e692c0f86e5b48e01b996cadc001622fb5e363b4218080a00000000000000000000000000000000000000000000000000000000000000000c0c0c0",
        "blocks": [
            {
                "blockHeader": {
                    "parentHash": "0xa8e26584b65424aea03c7d39cbfe13164c1b006db8e4723d0690de6cf36c1042",
                    "uncleHash": "0x1dcc4de8dec75d7aab85b567b6ccd41ad312451b948a7413f0a142fd40d49347",
                    "coinbase": "0x2adc25665018aa1fe0e6bc666dac8fc2697ff9ba",
                    "stateRoot": "0x65fc97b407ca0a346ed3e1861743ee7aa3c021ae8b10bd1ce5b5a82fee4218cb",
                    "transactionsTrie": "0xcd46f73c9b4893278afebb077d312c5d291dde66f94f6fcbf240f7ac1fa0c666",
                    "receiptTrie": "0x383ad2d340de8e759e0f8ce86c541591497697d38871017d9027a39327a8c17d",
                    "bloom": "0x00000000000000000000000000000000000000000000000000000000000000000000000000000000000000000000000000000000000000000000000000000000000000000000000000000000000000000000000000000000000000000000000000000000000000000000000000000000000000000000000000000000000000000000000000000000000000000000000000000000000000000000000000000000000000000000000000000000000000000000000000000000000000000000000000000000000000000000000000000000000000000000000000000000000000000000000000000000000000000000000000000000000000000000000000000000",
                    "difficulty": "0x00",
                    "number": "0x01",
                    "gasLimit": "0x989680",
                    "gasUsed": "0x048cc5",
                    "timestamp": "0x03e8",
                    "extraData": "0x00",
                    "mixHash": "0x0000000000000000000000000000000000000000000000000000000000020000",
                    "nonce": "0x0000000000000000",
                    "baseFeePerGas": "0x0a",
                    "withdrawalsRoot": "0x56e81f171bcc55a6ff8345e692c0f86e5b48e01b996cadc001622fb5e363b421",
                    "blobGasUsed": "0x00",
                    "excessBlobGas": "0x00",
                    "parentBeaconBlockRoot": "0x0000000000000000000000000000000000000000000000000000000000000000",
                    "hash": "0x9381b7090f022c2ebe24969bdc662a396181eb01e51af15124bbd52dc6528521"
                },
                "transactions": [
                    {
                        "type": "0x00",
                        "chainId": "0x01",
                        "nonce": "0x00",
                        "gasPrice": "0x0a",
                        "gasLimit": "0x0927c0",
                        "to": "0xcf2058bdb66d7ae262360bdee02711a0f5fd9816",
                        "value": "0x00",
                        "data": "0x",
                        "v": "0x25",
                        "r": "0x0a24991e2adb3117b412d499e1b3685755949f544dcec9e54e693ecd91cd3e5c",
                        "s": "0x5fc48fd969a8499b72fe651760c03671dc0669353a732065226bae81d2974e63",
                        "sender": "0xd719ccdb2301950b0a0bdf09a2bb1d5f8b225f6f"
                    }
                ],
                "uncleHeaders": [],
                "withdrawals": [],
                "receipts": [
                    {
                        "transactionHash": "0x2232045da212b180dc92c35e126f9755abd60fa07c61ef5ddb3125674cdb5170",
                        "type": "0x00",
                        "cumulativeGasUsed": "0x048cc5",
                        "bloom": "0x00000000000000000000000000000000000000000000000000000000000000000000000000000000000000000000000000000000000000000000000000000000000000000000000000000000000000000000000000000000000000000000000000000000000000000000000000000000000000000000000000000000000000000000000000000000000000000000000000000000000000000000000000000000000000000000000000000000000000000000000000000000000000000000000000000000000000000000000000000000000000000000000000000000000000000000000000000000000000000000000000000000000000000000000000000000",
                        "logs": [],
                        "status": true,
                        "rlp": "0xf901090183048cc5b9010000000000000000000000000000000000000000000000000000000000000000000000000000000000000000000000000000000000000000000000000000000000000000000000000000000000000000000000000000000000000000000000000000000000000000000000000000000000000000000000000000000000000000000000000000000000000000000000000000000000000000000000000000000000000000000000000000000000000000000000000000000000000000000000000000000000000000000000000000000000000000000000000000000000000000000000000000000000000000000000000000000000000000000000000000000000c0"
                    }
                ],
                "rlp": "0xf902a3f9023aa0a8e26584b65424aea03c7d39cbfe13164c1b006db8e4723d0690de6cf36c1042a01dcc4de8dec75d7aab85b567b6ccd41ad312451b948a7413f0a142fd40d49347942adc25665018aa1fe0e6bc666dac8fc2697ff9baa065fc97b407ca0a346ed3e1861743ee7aa3c021ae8b10bd1ce5b5a82fee4218cba0cd46f73c9b4893278afebb077d312c5d291dde66f94f6fcbf240f7ac1fa0c666a0383ad2d340de8e759e0f8ce86c541591497697d38871017d9027a39327a8c17db901000000000000000000000000000000000000000000000000000000000000000000000000000000000000000000000000000000000000000000000000000000000000000000000000000000000000000000000000000000000000000000000000000000000000000000000000000000000000000000000000000000000000000000000000000000000000000000000000000000000000000000000000000000000000000000000000000000000000000000000000000000000000000000000000000000000000000000000000000000000000000000000000000000000000000000000000000000000000000000000000000000000000000000000000000000000080018398968083048cc58203e800a000000000000000000000000000000000000000000000000000000000000200008800000000000000000aa056e81f171bcc55a6ff8345e692c0f86e5b48e01b996cadc001622fb5e363b4218080a00000000000000000000000000000000000000000000000000000000000000000f862f860800a830927c094cf2058bdb66d7ae262360bdee02711a0f5fd9816808025a00a24991e2adb3117b412d499e1b3685755949f544dcec9e54e693ecd91cd3e5ca05fc48fd969a8499b72fe651760c03671dc0669353a732065226bae81d2974e63c0c0",
                "blocknumber": "1"
            }
        ],
        "sealEngine": "NoProof",
        "_info": {
            "hash": "0x380e35f8a1da31b9ea04f60b937b7cb4f4b3b8262ec28650064437540c52e042",
            "fixture-format": "blockchain_test",
            "comment": "`execution-specs` generated test",
            "filling-transition-tool": "2.19.0",
            "description": "Test_exp_empty.",
            "url": "https://github.com/ethereum/execution-specs/blob/tests-snobal-devnet-5@v8037.0.0/tests/ported_static/stEIP158Specific/test_exp_empty.py#L24",
            "metadata": {
                "opcode_count": {}
            },
            "reference-spec": "https://github.com/ethereum/EIPs/blob/master/N/A",
            "reference-spec-version": "N/A"
        }
    }
}