{
    "tests/ported_static/stStaticCall/test_static_call_ask_more_gas_on_depth2_then_transaction_has.py::test_static_call_ask_more_gas_on_depth2_then_transaction_has[fork_Cancun-blockchain_test_from_state_test-d0]": {
        "network": "Cancun",
        "genesisBlockHeader": {
            "parentHash": "0x0000000000000000000000000000000000000000000000000000000000000000",
            "uncleHash": "0x1dcc4de8dec75d7aab85b567b6ccd41ad312451b948a7413f0a142fd40d49347",
            "coinbase": "0x0000000000000000000000000000000000000000",
            "stateRoot": "0x83ed235370aa56f2369ab0eb406e29e8370b183cc789fe304b230765b765f1ca",
            "transactionsTrie": "0x56e81f171bcc55a6ff8345e692c0f86e5b48e01b996cadc001622fb5e363b421",
            "receiptTrie": "0x56e81f171bcc55a6ff8345e692c0f86e5b48e01b996cadc001622fb5e363b421",
            "bloom": "0x00000000000000000000000000000000000000000000000000000000000000000000000000000000000000000000000000000000000000000000000000000000000000000000000000000000000000000000000000000000000000000000000000000000000000000000000000000000000000000000000000000000000000000000000000000000000000000000000000000000000000000000000000000000000000000000000000000000000000000000000000000000000000000000000000000000000000000000000000000000000000000000000000000000000000000000000000000000000000000000000000000000000000000000000000000000",
            "difficulty": "0x00",
            "number": "0x00",
            "gasLimit": "0x989680",
            "gasUsed": "0x00",
            "timestamp": "0x00",
            "extraData": "0x00",
            "mixHash": "0x0000000000000000000000000000000000000000000000000000000000000000",
            "nonce": "0x0000000000000000",
            "baseFeePerGas": "0x0b",
            "withdrawalsRoot": "0x56e81f171bcc55a6ff8345e692c0f86e5b48e01b996cadc001622fb5e363b421",
            "blobGasUsed": "0x00",
            "excessBlobGas": "0x00",
            "parentBeaconBlockRoot": "0x0000000000000000000000000000000000000000000000000000000000000000",
            "hash": "0xe570610bea040a2c28de4cc16c7ff1720da40e9612192cb53486f4e21acc0c46"
        },
        "pre": {
            "0x000f3df6d732807ef1319fb7b8bb8522d0beac02": {
                "nonce": "0x01",
                "balance": "0x00",
                "code": "0x3373fffffffffffffffffffffffffffffffffffffffe14604d57602036146024575f5ffd5b5f35801560495762001fff810690815414603c575f5ffd5b62001fff01545f5260205ff35b5f5ffd5b62001fff42064281555f359062001fff015500",
                "storage": {}
            },
            "0xfaa10b404ab607779993c016cd5da73ae1f29d7e": {
                "nonce": "0x00",
                "balance": "0xe8d4a51000",
                "code": "0x",
                "storage": {}
            },
            "0xc0e4183389eb57f779a986d8c878f89b9401dc8e": {
                "nonce": "0x00",
                "balance": "0x00",
                "code": "0x6000600060006000346000355af1600055600160015500",
                "storage": {}
            },
            "0xef69a9b2c20255fb7bd2b0ac7d45601a03d570b0": {
                "nonce": "0x00",
                "balance": "0x00",
                "code": "0x6001600855600060006000600073d9539c5a3dc4713d47a547bfc9a075bd9728708062030d40fa60095500",
                "storage": {}
            },
            "0xd9539c5a3dc4713d47a547bfc9a075bd97287080": {
                "nonce": "0x00",
                "balance": "0x00",
                "code": "0x5a6008526000600060006000735044bfb29664a79de12215897c630dc8a11b0b97620927c0fa60095200",
                "storage": {}
            },
            "0x5044bfb29664a79de12215897c630dc8a11b0b97": {
                "nonce": "0x00",
                "balance": "0x00",
                "code": "0x600160085500",
                "storage": {}
            },
            "0x8169dc735802bb5c18a777052cf4ce326b5fd725": {
                "nonce": "0x00",
                "balance": "0x00",
                "code": "0x6001600855600060006000600073e5a4d8074950ec8067d602848b666ca151b09c9f62030d40fa60095500",
                "storage": {}
            },
            "0xe5a4d8074950ec8067d602848b666ca151b09c9f": {
                "nonce": "0x00",
                "balance": "0x00",
                "code": "0x5a60085260006000600060007391b291a3336bc1357388354df18ca061b39e3745620927c0fa60095200",
                "storage": {}
            },
            "0x91b291a3336bc1357388354df18ca061b39e3745": {
                "nonce": "0x00",
                "balance": "0x00",
                "code": "0x5a60085200",
                "storage": {}
            }
        },
        "postState": {
            "0x000f3df6d732807ef1319fb7b8bb8522d0beac02": {
                "nonce": "0x01",
                "balance": "0x00",
                "code": "0x3373fffffffffffffffffffffffffffffffffffffffe14604d57602036146024575f5ffd5b5f35801560495762001fff810690815414603c575f5ffd5b62001fff01545f5260205ff35b5f5ffd5b62001fff42064281555f359062001fff015500",
                "storage": {
                    "0x03e8": "0x03e8"
                }
            },
            "0xfaa10b404ab607779993c016cd5da73ae1f29d7e": {
                "nonce": "0x01",
                "balance": "0xe8d475767e",
                "code": "0x",
                "storage": {}
            },
            "0xc0e4183389eb57f779a986d8c878f89b9401dc8e": {
                "nonce": "0x00",
                "balance": "0x00",
                "code": "0x6000600060006000346000355af1600055600160015500",
                "storage": {
                    "0x00": "0x01",
                    "0x01": "0x01"
                }
            },
            "0xef69a9b2c20255fb7bd2b0ac7d45601a03d570b0": {
                "nonce": "0x00",
                "balance": "0x00",
                "code": "0x6001600855600060006000600073d9539c5a3dc4713d47a547bfc9a075bd9728708062030d40fa60095500",
                "storage": {
                    "0x08": "0x01",
                    "0x09": "0x01"
                }
            },
            "0xd9539c5a3dc4713d47a547bfc9a075bd97287080": {
                "nonce": "0x00",
                "balance": "0x00",
                "code": "0x5a6008526000600060006000735044bfb29664a79de12215897c630dc8a11b0b97620927c0fa60095200",
                "storage": {}
            },
            "0x5044bfb29664a79de12215897c630dc8a11b0b97": {
                "nonce": "0x00",
                "balance": "0x00",
                "code": "0x600160085500",
                "storage": {}
            },
            "0x8169dc735802bb5c18a777052cf4ce326b5fd725": {
                "nonce": "0x00",
                "balance": "0x00",
                "code": "0x6001600855600060006000600073e5a4d8074950ec8067d602848b666ca151b09c9f62030d40fa60095500",
                "storage": {}
            },
            "0xe5a4d8074950ec8067d602848b666ca151b09c9f": {
                "nonce": "0x00",
                "balance": "0x00",
                "code": "0x5a60085260006000600060007391b291a3336bc1357388354df18ca061b39e3745620927c0fa60095200",
                "storage": {}
            },
            "0x91b291a3336bc1357388354df18ca061b39e3745": {
                "nonce": "0x00",
                "balance": "0x00",
                "code": "0x5a60085200",
                "storage": {}
            }
        },
        "lastblockhash": "0x5f00a0f9cf08f3c60b2a30c081fdf287d18cdcaa132478bd985e68b3febee3aa",
        "config": {
            "network": "Cancun",
            "chainid": "0x01",
            "blobSchedule": {
                "Cancun": {
                    "target": "0x03",
                    "max": "0x06",
                    "baseFeeUpdateFraction": "0x32f0ed"
                }
            }
        },
        "genesisRLP": "0xf9023bf90235a00000000000000000000000000000000000000000000000000000000000000000a01dcc4de8dec75d7aab85b567b6ccd41ad312451b948a7413f0a142fd40d49347940000000000000000000000000000000000000000a083ed235370aa56f2369ab0eb406e29e8370b183cc789fe304b230765b765f1caa056e81f171bcc55a6ff8345e692c0f86e5b48e01b996cadc001622fb5e363b421a056e81f171bcc55a6ff8345e692c0f86e5b48e01b996cadc001622fb5e363b421b9010000000000000000000000000000000000000000000000000000000000000000000000000000000000000000000000000000000000000000000000000000000000000000000000000000000000000000000000000000000000000000000000000000000000000000000000000000000000000000000000000000000000000000000000000000000000000000000000000000000000000000000000000000000000000000000000000000000000000000000000000000000000000000000000000000000000000000000000000000000000000000000000000000000000000000000000000000000000000000000000000000000000000000000000000000000000808083989680808000a000000000000000000000000000000000000000000000000000000000000000008800000000000000000ba056e81f171bcc55a6ff8345e692c0f86e5b48e01b996cadc001622fb5e363b4218080a00000000000000000000000000000000000000000000000000000000000000000c0c0c0",
        "blocks": [
            {
                "blockHeader": {
                    "parentHash": "0xe570610bea040a2c28de4cc16c7ff1720da40e9612192cb53486f4e21acc0c46",
                    "uncleHash": "0x1dcc4de8dec75d7aab85b567b6ccd41ad312451b948a7413f0a142fd40d49347",
                    "coinbase": "0x2adc25665018aa1fe0e6bc666dac8fc2697ff9ba",
                    "stateRoot": "0x82478c59acd49179a8bb6eb7dac7d35fa481bf780935a08aab4cff61081cf8ac",
                    "transactionsTrie": "0x6852967666c4c600b8e2c921cddba83d7304efa0b94c82b2e7e1d6d467ac3ad6",
                    "receiptTrie": "0xa07b25e68b5acd4e73d847e40593435f6e2c95aa6606cd02da31c39c801c6d73",
                    "bloom": "0x00000000000000000000000000000000000000000000000000000000000000000000000000000000000000000000000000000000000000000000000000000000000000000000000000000000000000000000000000000000000000000000000000000000000000000000000000000000000000000000000000000000000000000000000000000000000000000000000000000000000000000000000000000000000000000000000000000000000000000000000000000000000000000000000000000000000000000000000000000000000000000000000000000000000000000000000000000000000000000000000000000000000000000000000000000000",
                    "difficulty": "0x00",
                    "number": "0x01",
                    "gasLimit": "0x989680",
                    "gasUsed": "0x04c28d",
                    "timestamp": "0x03e8",
                    "extraData": "0x00",
                    "mixHash": "0x0000000000000000000000000000000000000000000000000000000000020000",
                    "nonce": "0x0000000000000000",
                    "baseFeePerGas": "0x0a",
                    "withdrawalsRoot": "0x56e81f171bcc55a6ff8345e692c0f86e5b48e01b996cadc001622fb5e363b421",
                    "blobGasUsed": "0x00",
                    "excessBlobGas": "0x00",
                    "parentBeaconBlockRoot": "0x0000000000000000000000000000000000000000000000000000000000000000",
                    "hash": "0x5f00a0f9cf08f3c60b2a30c081fdf287d18cdcaa132478bd985e68b3febee3aa"
                },
                "transactions": [
                    {
                        "type": "0x00",
                        "chainId": "0x01",
                        "nonce": "0x00",
                        "gasPrice": "0x0a",
                        "gasLimit": "0x0927c0",
                        "to": "0xc0e4183389eb57f779a986d8c878f89b9401dc8e",
                        "value": "0x00",
                        "data": "0x000000000000000000000000ef69a9b2c20255fb7bd2b0ac7d45601a03d570b0",
                        "v": "0x25",
                        "r": "0xa8058310e7b81c8c2f4d4d869c0498358cc7b38febc525370a0084678c7e0e00",
                        "s": "0x7c31fd8690c9ff5a47701fcbf2e70efd5bf2b0e9eba9dee8b414888663bd70ff",
                        "sender": "0xfaa10b404ab607779993c016cd5da73ae1f29d7e"
                    }
                ],
                "uncleHeaders": [],
                "withdrawals": [],
                "receipts": [
                    {
                        "transactionHash": "0x2756a1fd7cad92f2b0a0f601019ad66f1da024fda87a930d5362104d4c784f40",
                        "type": "0x00",
                        "cumulativeGasUsed": "0x04c28d",
                        "bloom": "0x00000000000000000000000000000000000000000000000000000000000000000000000000000000000000000000000000000000000000000000000000000000000000000000000000000000000000000000000000000000000000000000000000000000000000000000000000000000000000000000000000000000000000000000000000000000000000000000000000000000000000000000000000000000000000000000000000000000000000000000000000000000000000000000000000000000000000000000000000000000000000000000000000000000000000000000000000000000000000000000000000000000000000000000000000000000",
                        "logs": [],
                        "status": true,
                        "rlp": "0xf90109018304c28db9010000000000000000000000000000000000000000000000000000000000000000000000000000000000000000000000000000000000000000000000000000000000000000000000000000000000000000000000000000000000000000000000000000000000000000000000000000000000000000000000000000000000000000000000000000000000000000000000000000000000000000000000000000000000000000000000000000000000000000000000000000000000000000000000000000000000000000000000000000000000000000000000000000000000000000000000000000000000000000000000000000000000000000000000000000000000c0"
                    }
                ],
                "rlp": "0xf902c3f9023aa0e570610bea040a2c28de4cc16c7ff1720da40e9612192cb53486f4e21acc0c46a01dcc4de8dec75d7aab85b567b6ccd41ad312451b948a7413f0a142fd40d49347942adc25665018aa1fe0e6bc666dac8fc2697ff9baa082478c59acd49179a8bb6eb7dac7d35fa481bf780935a08aab4cff61081cf8aca06852967666c4c600b8e2c921cddba83d7304efa0b94c82b2e7e1d6d467ac3ad6a0a07b25e68b5acd4e73d847e40593435f6e2c95aa6606cd02da31c39c801c6d73b90100000000000000000000000000000000000000000000000000000000000000000000000000000000000000000000000000000000000000000000000000000000000000000000000000000000000000000000000000000000000000000000000000000000000000000000000000000000000000000000000000000000000000000000000000000000000000000000000000000000000000000000000000000000000000000000000000000000000000000000000000000000000000000000000000000000000000000000000000000000000000000000000000000000000000000000000000000000000000000000000000000000000000000000000000000000008001839896808304c28d8203e800a000000000000000000000000000000000000000000000000000000000000200008800000000000000000aa056e81f171bcc55a6ff8345e692c0f86e5b48e01b996cadc001622fb5e363b4218080a00000000000000000000000000000000000000000000000000000000000000000f882f880800a830927c094c0e4183389eb57f779a986d8c878f89b9401dc8e80a0000000000000000000000000ef69a9b2c20255fb7bd2b0ac7d45601a03d570b025a0a8058310e7b81c8c2f4d4d869c0498358cc7b38febc525370a0084678c7e0e00a07c31fd8690c9ff5a47701fcbf2e70efd5bf2b0e9eba9dee8b414888663bd70ffc0c0",
                "blocknumber": "1"
            }
        ],
        "sealEngine": "NoProof",
        "_info": {
            "hash": "0xd47c1d36bf5cd0205605ed4c2adad2be6ed4dd31a52f2c627cdd6e3af54d5265",
            "fixture-format": "blockchain_test",
            "comment": "`execution-specs` generated test",
            "filling-transition-tool": "2.19.0",
            "description": "Test_static_call_ask_more_gas_on_depth2_then_transaction_has.",
            "url": "https://github.com/ethereum/execution-specs/blob/tests-bal@v5.6.0/tests/ported_static/stStaticCall/test_static_call_ask_more_gas_on_depth2_then_transaction_has.py#L29",
            "metadata": {
                "opcode_count": {}
            }
        }
    },
    "tests/ported_static/stStaticCall/test_static_call_ask_more_gas_on_depth2_then_transaction_has.py::test_static_call_ask_more_gas_on_depth2_then_transaction_has[fork_Cancun-blockchain_test_from_state_test-d1]": {
        "network": "Cancun",
        "genesisBlockHeader": {
            "parentHash": "0x0000000000000000000000000000000000000000000000000000000000000000",
            "uncleHash": "0x1dcc4de8dec75d7aab85b567b6ccd41ad312451b948a7413f0a142fd40d49347",
            "coinbase": "0x0000000000000000000000000000000000000000",
            "stateRoot": "0x83ed235370aa56f2369ab0eb406e29e8370b183cc789fe304b230765b765f1ca",
            "transactionsTrie": "0x56e81f171bcc55a6ff8345e692c0f86e5b48e01b996cadc001622fb5e363b421",
            "receiptTrie": "0x56e81f171bcc55a6ff8345e692c0f86e5b48e01b996cadc001622fb5e363b421",
            "bloom": "0x00000000000000000000000000000000000000000000000000000000000000000000000000000000000000000000000000000000000000000000000000000000000000000000000000000000000000000000000000000000000000000000000000000000000000000000000000000000000000000000000000000000000000000000000000000000000000000000000000000000000000000000000000000000000000000000000000000000000000000000000000000000000000000000000000000000000000000000000000000000000000000000000000000000000000000000000000000000000000000000000000000000000000000000000000000000",
            "difficulty": "0x00",
            "number": "0x00",
            "gasLimit": "0x989680",
            "gasUsed": "0x00",
            "timestamp": "0x00",
            "extraData": "0x00",
            "mixHash": "0x0000000000000000000000000000000000000000000000000000000000000000",
            "nonce": "0x0000000000000000",
            "baseFeePerGas": "0x0b",
            "withdrawalsRoot": "0x56e81f171bcc55a6ff8345e692c0f86e5b48e01b996cadc001622fb5e363b421",
            "blobGasUsed": "0x00",
            "excessBlobGas": "0x00",
            "parentBeaconBlockRoot": "0x0000000000000000000000000000000000000000000000000000000000000000",
            "hash": "0xe570610bea040a2c28de4cc16c7ff1720da40e9612192cb53486f4e21acc0c46"
        },
        "pre": {
            "0x000f3df6d732807ef1319fb7b8bb8522d0beac02": {
                "nonce": "0x01",
                "balance": "0x00",
                "code": "0x3373fffffffffffffffffffffffffffffffffffffffe14604d57602036146024575f5ffd5b5f35801560495762001fff810690815414603c575f5ffd5b62001fff01545f5260205ff35b5f5ffd5b62001fff42064281555f359062001fff015500",
                "storage": {}
            },
            "0xfaa10b404ab607779993c016cd5da73ae1f29d7e": {
                "nonce": "0x00",
                "balance": "0xe8d4a51000",
                "code": "0x",
                "storage": {}
            },
            "0xc0e4183389eb57f779a986d8c878f89b9401dc8e": {
                "nonce": "0x00",
                "balance": "0x00",
                "code": "0x6000600060006000346000355af1600055600160015500",
                "storage": {}
            },
            "0xef69a9b2c20255fb7bd2b0ac7d45601a03d570b0": {
                "nonce": "0x00",
                "balance": "0x00",
                "code": "0x6001600855600060006000600073d9539c5a3dc4713d47a547bfc9a075bd9728708062030d40fa60095500",
                "storage": {}
            },
            "0xd9539c5a3dc4713d47a547bfc9a075bd97287080": {
                "nonce": "0x00",
                "balance": "0x00",
                "code": "0x5a6008526000600060006000735044bfb29664a79de12215897c630dc8a11b0b97620927c0fa60095200",
                "storage": {}
            },
            "0x5044bfb29664a79de12215897c630dc8a11b0b97": {
                "nonce": "0x00",
                "balance": "0x00",
                "code": "0x600160085500",
                "storage": {}
            },
            "0x8169dc735802bb5c18a777052cf4ce326b5fd725": {
                "nonce": "0x00",
                "balance": "0x00",
                "code": "0x6001600855600060006000600073e5a4d8074950ec8067d602848b666ca151b09c9f62030d40fa60095500",
                "storage": {}
            },
            "0xe5a4d8074950ec8067d602848b666ca151b09c9f": {
                "nonce": "0x00",
                "balance": "0x00",
                "code": "0x5a60085260006000600060007391b291a3336bc1357388354df18ca061b39e3745620927c0fa60095200",
                "storage": {}
            },
            "0x91b291a3336bc1357388354df18ca061b39e3745": {
                "nonce": "0x00",
                "balance": "0x00",
                "code": "0x5a60085200",
                "storage": {}
            }
        },
        "postState": {
            "0x000f3df6d732807ef1319fb7b8bb8522d0beac02": {
                "nonce": "0x01",
                "balance": "0x00",
                "code": "0x3373fffffffffffffffffffffffffffffffffffffffe14604d57602036146024575f5ffd5b5f35801560495762001fff810690815414603c575f5ffd5b62001fff01545f5260205ff35b5f5ffd5b62001fff42064281555f359062001fff015500",
                "storage": {
                    "0x03e8": "0x03e8"
                }
            },
            "0xfaa10b404ab607779993c016cd5da73ae1f29d7e": {
                "nonce": "0x01",
                "balance": "0xe8d4931b34",
                "code": "0x",
                "storage": {}
            },
            "0xc0e4183389eb57f779a986d8c878f89b9401dc8e": {
                "nonce": "0x00",
                "balance": "0x00",
                "code": "0x6000600060006000346000355af1600055600160015500",
                "storage": {
                    "0x00": "0x01",
                    "0x01": "0x01"
                }
            },
            "0xef69a9b2c20255fb7bd2b0ac7d45601a03d570b0": {
                "nonce": "0x00",
                "balance": "0x00",
                "code": "0x6001600855600060006000600073d9539c5a3dc4713d47a547bfc9a075bd9728708062030d40fa60095500",
                "storage": {}
            },
            "0xd9539c5a3dc4713d47a547bfc9a075bd97287080": {
                "nonce": "0x00",
                "balance": "0x00",
                "code": "0x5a6008526000600060006000735044bfb29664a79de12215897c630dc8a11b0b97620927c0fa60095200",
                "storage": {}
            },
            "0x5044bfb29664a79de12215897c630dc8a11b0b97": {
                "nonce": "0x00",
                "balance": "0x00",
                "code": "0x600160085500",
                "storage": {}
            },
            "0x8169dc735802bb5c18a777052cf4ce326b5fd725": {
                "nonce": "0x00",
                "balance": "0x00",
                "code": "0x6001600855600060006000600073e5a4d8074950ec8067d602848b666ca151b09c9f62030d40fa60095500",
                "storage": {
                    "0x08": "0x01",
                    "0x09": "0x01"
                }
            },
            "0xe5a4d8074950ec8067d602848b666ca151b09c9f": {
                "nonce": "0x00",
                "balance": "0x00",
                "code": "0x5a60085260006000600060007391b291a3336bc1357388354df18ca061b39e3745620927c0fa60095200",
                "storage": {}
            },
            "0x91b291a3336bc1357388354df18ca061b39e3745": {
                "nonce": "0x00",
                "balance": "0x00",
                "code": "0x5a60085200",
                "storage": {}
            }
        },
        "lastblockhash": "0xf57b0c012109d3e7194efda2a6d5495f8aa440788516888c1cb31a2c47301d39",
        "config": {
            "network": "Cancun",
            "chainid": "0x01",
            "blobSchedule": {
                "Cancun": {
                    "target": "0x03",
                    "max": "0x06",
                    "baseFeeUpdateFraction": "0x32f0ed"
                }
            }
        },
        "genesisRLP": "0xf9023bf90235a00000000000000000000000000000000000000000000000000000000000000000a01dcc4de8dec75d7aab85b567b6ccd41ad312451b948a7413f0a142fd40d49347940000000000000000000000000000000000000000a083ed235370aa56f2369ab0eb406e29e8370b183cc789fe304b230765b765f1caa056e81f171bcc55a6ff8345e692c0f86e5b48e01b996cadc001622fb5e363b421a056e81f171bcc55a6ff8345e692c0f86e5b48e01b996cadc001622fb5e363b421b9010000000000000000000000000000000000000000000000000000000000000000000000000000000000000000000000000000000000000000000000000000000000000000000000000000000000000000000000000000000000000000000000000000000000000000000000000000000000000000000000000000000000000000000000000000000000000000000000000000000000000000000000000000000000000000000000000000000000000000000000000000000000000000000000000000000000000000000000000000000000000000000000000000000000000000000000000000000000000000000000000000000000000000000000000000000000808083989680808000a000000000000000000000000000000000000000000000000000000000000000008800000000000000000ba056e81f171bcc55a6ff8345e692c0f86e5b48e01b996cadc001622fb5e363b4218080a00000000000000000000000000000000000000000000000000000000000000000c0c0c0",
        "blocks": [
            {
                "blockHeader": {
                    "parentHash": "0xe570610bea040a2c28de4cc16c7ff1720da40e9612192cb53486f4e21acc0c46",
                    "uncleHash": "0x1dcc4de8dec75d7aab85b567b6ccd41ad312451b948a7413f0a142fd40d49347",
                    "coinbase": "0x2adc25665018aa1fe0e6bc666dac8fc2697ff9ba",
                    "stateRoot": "0x67faba5191876fb6069ed365f24bbe70e39e1e9f9c8d7d8909ed4b1f5528c623",
                    "transactionsTrie": "0x2ccd7180f20c3506c424c33cc7ce4636eec25005f64e950356e633fb0ff8f8b7",
                    "receiptTrie": "0xb4f1b6a782521c7403f9d6f9171bea5018b5f0ba1ff5dd5c97ac21749ef0e787",
                    "bloom": "0x00000000000000000000000000000000000000000000000000000000000000000000000000000000000000000000000000000000000000000000000000000000000000000000000000000000000000000000000000000000000000000000000000000000000000000000000000000000000000000000000000000000000000000000000000000000000000000000000000000000000000000000000000000000000000000000000000000000000000000000000000000000000000000000000000000000000000000000000000000000000000000000000000000000000000000000000000000000000000000000000000000000000000000000000000000000",
                    "difficulty": "0x00",
                    "number": "0x01",
                    "gasLimit": "0x989680",
                    "gasUsed": "0x01cbae",
                    "timestamp": "0x03e8",
                    "extraData": "0x00",
                    "mixHash": "0x0000000000000000000000000000000000000000000000000000000000020000",
                    "nonce": "0x0000000000000000",
                    "baseFeePerGas": "0x0a",
                    "withdrawalsRoot": "0x56e81f171bcc55a6ff8345e692c0f86e5b48e01b996cadc001622fb5e363b421",
                    "blobGasUsed": "0x00",
                    "excessBlobGas": "0x00",
                    "parentBeaconBlockRoot": "0x0000000000000000000000000000000000000000000000000000000000000000",
                    "hash": "0xf57b0c012109d3e7194efda2a6d5495f8aa440788516888c1cb31a2c47301d39"
                },
                "transactions": [
                    {
                        "type": "0x00",
                        "chainId": "0x01",
                        "nonce": "0x00",
                        "gasPrice": "0x0a",
                        "gasLimit": "0x0927c0",
                        "to": "0xc0e4183389eb57f779a986d8c878f89b9401dc8e",
                        "value": "0x00",
                        "data": "0x0000000000000000000000008169dc735802bb5c18a777052cf4ce326b5fd725",
                        "v": "0x25",
                        "r": "0xbae9aeec71a0003b18f342e9c7e1c025aff2eab245f257c37a6e6949c1211f18",
                        "s": "0x5c2885c789527e4d0d7ae7d4369c69bef78fddf893711b8a53ae16da4d2dc53b",
                        "sender": "0xfaa10b404ab607779993c016cd5da73ae1f29d7e"
                    }
                ],
                "uncleHeaders": [],
                "withdrawals": [],
                "receipts": [
                    {
                        "transactionHash": "0x1cb714a2328a7f7d7334a530ec845082ba8f5661805b7a2def97537b298a10cf",
                        "type": "0x00",
                        "cumulativeGasUsed": "0x01cbae",
                        "bloom": "0x00000000000000000000000000000000000000000000000000000000000000000000000000000000000000000000000000000000000000000000000000000000000000000000000000000000000000000000000000000000000000000000000000000000000000000000000000000000000000000000000000000000000000000000000000000000000000000000000000000000000000000000000000000000000000000000000000000000000000000000000000000000000000000000000000000000000000000000000000000000000000000000000000000000000000000000000000000000000000000000000000000000000000000000000000000000",
                        "logs": [],
                        "status": true,
                        "rlp": "0xf90109018301cbaeb9010000000000000000000000000000000000000000000000000000000000000000000000000000000000000000000000000000000000000000000000000000000000000000000000000000000000000000000000000000000000000000000000000000000000000000000000000000000000000000000000000000000000000000000000000000000000000000000000000000000000000000000000000000000000000000000000000000000000000000000000000000000000000000000000000000000000000000000000000000000000000000000000000000000000000000000000000000000000000000000000000000000000000000000000000000000000c0"
                    }
                ],
                "rlp": "0xf902c3f9023aa0e570610bea040a2c28de4cc16c7ff1720da40e9612192cb53486f4e21acc0c46a01dcc4de8dec75d7aab85b567b6ccd41ad312451b948a7413f0a142fd40d49347942adc25665018aa1fe0e6bc666dac8fc2697ff9baa067faba5191876fb6069ed365f24bbe70e39e1e9f9c8d7d8909ed4b1f5528c623a02ccd7180f20c3506c424c33cc7ce4636eec25005f64e950356e633fb0ff8f8b7a0b4f1b6a782521c7403f9d6f9171bea5018b5f0ba1ff5dd5c97ac21749ef0e787b90100000000000000000000000000000000000000000000000000000000000000000000000000000000000000000000000000000000000000000000000000000000000000000000000000000000000000000000000000000000000000000000000000000000000000000000000000000000000000000000000000000000000000000000000000000000000000000000000000000000000000000000000000000000000000000000000000000000000000000000000000000000000000000000000000000000000000000000000000000000000000000000000000000000000000000000000000000000000000000000000000000000000000000000000000000000008001839896808301cbae8203e800a000000000000000000000000000000000000000000000000000000000000200008800000000000000000aa056e81f171bcc55a6ff8345e692c0f86e5b48e01b996cadc001622fb5e363b4218080a00000000000000000000000000000000000000000000000000000000000000000f882f880800a830927c094c0e4183389eb57f779a986d8c878f89b9401dc8e80a00000000000000000000000008169dc735802bb5c18a777052cf4ce326b5fd72525a0bae9aeec71a0003b18f342e9c7e1c025aff2eab245f257c37a6e6949c1211f18a05c2885c789527e4d0d7ae7d4369c69bef78fddf893711b8a53ae16da4d2dc53bc0c0",
                "blocknumber": "1"
            }
        ],
        "sealEngine": "NoProof",
        "_info": {
            "hash": "0x1ccbcbb7b52e0ed2ea4c585faf7357fc2a9971a03eb99d64901cf6f61aea8f17",
            "fixture-format": "blockchain_test",
            "comment": "`execution-specs` generated test",
            "filling-transition-tool": "2.19.0",
            "description": "Test_static_call_ask_more_gas_on_depth2_then_transaction_has.",
            "url": "https://github.com/ethereum/execution-specs/blob/tests-bal@v5.6.0/tests/ported_static/stStaticCall/test_static_call_ask_more_gas_on_depth2_then_transaction_has.py#L29",
            "metadata": {
                "opcode_count": {}
            }
        }
    }
}