{
    "tests/frontier/opcodes/test_selfdestruct.py::test_double_kill[fork_Homestead-blockchain_test]": {
        "network": "Homestead",
        "genesisBlockHeader": {
            "parentHash": "0x0000000000000000000000000000000000000000000000000000000000000000",
            "uncleHash": "0x1dcc4de8dec75d7aab85b567b6ccd41ad312451b948a7413f0a142fd40d49347",
            "coinbase": "0x0000000000000000000000000000000000000000",
            "stateRoot": "0x4b555d9d75fa8b4e5f0bec2ff06c8fca800d261b6840bc7a516ab1c6282999a9",
            "transactionsTrie": "0x56e81f171bcc55a6ff8345e692c0f86e5b48e01b996cadc001622fb5e363b421",
            "receiptTrie": "0x56e81f171bcc55a6ff8345e692c0f86e5b48e01b996cadc001622fb5e363b421",
            "bloom": "0x00000000000000000000000000000000000000000000000000000000000000000000000000000000000000000000000000000000000000000000000000000000000000000000000000000000000000000000000000000000000000000000000000000000000000000000000000000000000000000000000000000000000000000000000000000000000000000000000000000000000000000000000000000000000000000000000000000000000000000000000000000000000000000000000000000000000000000000000000000000000000000000000000000000000000000000000000000000000000000000000000000000000000000000000000000000",
            "difficulty": "0x020000",
            "number": "0x00",
            "gasLimit": "0x07270e00",
            "gasUsed": "0x00",
            "timestamp": "0x00",
            "extraData": "0x00",
            "mixHash": "0x0000000000000000000000000000000000000000000000000000000000000000",
            "nonce": "0x0000000000000000",
            "hash": "0x86a74cabdcd962275e2a9b92d417c7a8305cb90ef1139936810bc360a639143f"
        },
        "pre": {
            "0x1ad9bc24818784172ff393bb6f89f094d4d2ca29": {
                "nonce": "0x00",
                "balance": "0x3635c9adc5dea00000",
                "code": "0x",
                "storage": {}
            }
        },
        "postState": {
            "0x1ad9bc24818784172ff393bb6f89f094d4d2ca29": {
                "nonce": "0x03",
                "balance": "0x3635c9adc5de92ed16",
                "code": "0x",
                "storage": {}
            },
            "0x2adc25665018aa1fe0e6bc666dac8fc2697ff9ba": {
                "nonce": "0x00",
                "balance": "0x8ac7230489f512ea",
                "code": "0x",
                "storage": {}
            },
            "0x36bdd8886852759e2046e3bf4c290d5c29c81d82": {
                "nonce": "0x00",
                "balance": "0x00",
                "code": "0x",
                "storage": {}
            }
        },
        "lastblockhash": "0x5dcdaea7f2decdd11deb3ee5c957830a201668509b8e9005414fd60d75e62a70",
        "config": {
            "network": "Homestead",
            "chainid": "0x01"
        },
        "genesisRLP": "0xf901f9f901f4a00000000000000000000000000000000000000000000000000000000000000000a01dcc4de8dec75d7aab85b567b6ccd41ad312451b948a7413f0a142fd40d49347940000000000000000000000000000000000000000a04b555d9d75fa8b4e5f0bec2ff06c8fca800d261b6840bc7a516ab1c6282999a9a056e81f171bcc55a6ff8345e692c0f86e5b48e01b996cadc001622fb5e363b421a056e81f171bcc55a6ff8345e692c0f86e5b48e01b996cadc001622fb5e363b421b901000000000000000000000000000000000000000000000000000000000000000000000000000000000000000000000000000000000000000000000000000000000000000000000000000000000000000000000000000000000000000000000000000000000000000000000000000000000000000000000000000000000000000000000000000000000000000000000000000000000000000000000000000000000000000000000000000000000000000000000000000000000000000000000000000000000000000000000000000000000000000000000000000000000000000000000000000000000000000000000000000000000000000000000000000000000083020000808407270e00808000a00000000000000000000000000000000000000000000000000000000000000000880000000000000000c0c0",
        "blocks": [
            {
                "blockHeader": {
                    "parentHash": "0x86a74cabdcd962275e2a9b92d417c7a8305cb90ef1139936810bc360a639143f",
                    "uncleHash": "0x1dcc4de8dec75d7aab85b567b6ccd41ad312451b948a7413f0a142fd40d49347",
                    "coinbase": "0x2adc25665018aa1fe0e6bc666dac8fc2697ff9ba",
                    "stateRoot": "0x32adc6118087763832502fd9b975e6a7453c17ad69d8feb6a2efdb5958f21c47",
                    "transactionsTrie": "0xc8dcb5c859d86459f9d0abc804c016a7ed66e2edb1821b5aee3d2a7178bdb150",
                    "receiptTrie": "0xcd57002ab9217c24a8634fd1d81c6690692d70e09042837f6c9737011a81b549",
                    "bloom": "0x00000000000000000000000000000000000000000000000000000000000000000000000000000000000000000000000000000000000000000000000000000000000000000000000000000000000000000000000000000000000000000000000000000000000000000000000000000000000000000000000000000000000000000000000000000000000000000000000000000000000000000000000000000000000000000000000000000000000000000000000000000000000000000000000000000000000000000000000000000000000000000000000000000000000000000000000000000000000000000000000000000000000000000000000000000000",
                    "difficulty": "0x020000",
                    "number": "0x01",
                    "gasLimit": "0x07270e00",
                    "gasUsed": "0xd3a4",
                    "timestamp": "0x0c",
                    "extraData": "0x",
                    "mixHash": "0x0000000000000000000000000000000000000000000000000000000000000000",
                    "nonce": "0x0000000000000000",
                    "hash": "0x75c095e1c29e8698572cf8eaaa1524dee50bbe22e2891190df158a8349eab45e"
                },
                "transactions": [
                    {
                        "type": "0x00",
                        "chainId": "0x01",
                        "nonce": "0x00",
                        "gasPrice": "0x0a",
                        "gasLimit": "0x0186a0",
                        "value": "0x00",
                        "data": "0x610002600081600b8239f330ff",
                        "v": "0x1b",
                        "r": "0x5bc5053cdc44b1674624d78b1e20afd84526b7876c74878496d5f1703d8bab13",
                        "s": "0x3ea905e20b939244828b823cdc1e9eb15a1dc1a0089c3095511592aa83c6073f",
                        "sender": "0x1ad9bc24818784172ff393bb6f89f094d4d2ca29",
                        "to": ""
                    }
                ],
                "uncleHeaders": [],
                "receipts": [
                    {
                        "transactionHash": "0xa4e488a56cf397d3f5302b0bab01f638af0acec148a3fca751f28a930ec7034a",
                        "type": "0x00",
                        "cumulativeGasUsed": "0xd3a4",
                        "bloom": "0x00000000000000000000000000000000000000000000000000000000000000000000000000000000000000000000000000000000000000000000000000000000000000000000000000000000000000000000000000000000000000000000000000000000000000000000000000000000000000000000000000000000000000000000000000000000000000000000000000000000000000000000000000000000000000000000000000000000000000000000000000000000000000000000000000000000000000000000000000000000000000000000000000000000000000000000000000000000000000000000000000000000000000000000000000000000",
                        "logs": [],
                        "postState": "0x905030ce3178501b0ed979d0a6d319618d19bbbf4e69079d58e69b36c7c953ba",
                        "rlp": "0xf90128a0905030ce3178501b0ed979d0a6d319618d19bbbf4e69079d58e69b36c7c953ba82d3a4b9010000000000000000000000000000000000000000000000000000000000000000000000000000000000000000000000000000000000000000000000000000000000000000000000000000000000000000000000000000000000000000000000000000000000000000000000000000000000000000000000000000000000000000000000000000000000000000000000000000000000000000000000000000000000000000000000000000000000000000000000000000000000000000000000000000000000000000000000000000000000000000000000000000000000000000000000000000000000000000000000000000000000000000000000000000000000c0"
                    }
                ],
                "rlp": "0xf90257f901f6a086a74cabdcd962275e2a9b92d417c7a8305cb90ef1139936810bc360a639143fa01dcc4de8dec75d7aab85b567b6ccd41ad312451b948a7413f0a142fd40d49347942adc25665018aa1fe0e6bc666dac8fc2697ff9baa032adc6118087763832502fd9b975e6a7453c17ad69d8feb6a2efdb5958f21c47a0c8dcb5c859d86459f9d0abc804c016a7ed66e2edb1821b5aee3d2a7178bdb150a0cd57002ab9217c24a8634fd1d81c6690692d70e09042837f6c9737011a81b549b901000000000000000000000000000000000000000000000000000000000000000000000000000000000000000000000000000000000000000000000000000000000000000000000000000000000000000000000000000000000000000000000000000000000000000000000000000000000000000000000000000000000000000000000000000000000000000000000000000000000000000000000000000000000000000000000000000000000000000000000000000000000000000000000000000000000000000000000000000000000000000000000000000000000000000000000000000000000000000000000000000000000000000000000000000000000083020000018407270e0082d3a40c80a00000000000000000000000000000000000000000000000000000000000000000880000000000000000f85bf859800a830186a080808d610002600081600b8239f330ff1ba05bc5053cdc44b1674624d78b1e20afd84526b7876c74878496d5f1703d8bab13a03ea905e20b939244828b823cdc1e9eb15a1dc1a0089c3095511592aa83c6073fc0",
                "blocknumber": "1"
            },
            {
                "blockHeader": {
                    "parentHash": "0x75c095e1c29e8698572cf8eaaa1524dee50bbe22e2891190df158a8349eab45e",
                    "uncleHash": "0x1dcc4de8dec75d7aab85b567b6ccd41ad312451b948a7413f0a142fd40d49347",
                    "coinbase": "0x2adc25665018aa1fe0e6bc666dac8fc2697ff9ba",
                    "stateRoot": "0xa87f3d24c7f583be602f4d39414c53b5d68254b2844e6b27695fc69833375932",
                    "transactionsTrie": "0xb373ef33927cc984359d6eff8af0ff74961491e1df7b57604fd6ba0e42e51cb3",
                    "receiptTrie": "0x072d50709f303c734dd3ddaf998f9c16db9df7c14b738d707528de71fa1ab141",
                    "bloom": "0x00000000000000000000000000000000000000000000000000000000000000000000000000000000000000000000000000000000000000000000000000000000000000000000000000000000000000000000000000000000000000000000000000000000000000000000000000000000000000000000000000000000000000000000000000000000000000000000000000000000000000000000000000000000000000000000000000000000000000000000000000000000000000000000000000000000000000000000000000000000000000000000000000000000000000000000000000000000000000000000000000000000000000000000000000000000",
                    "difficulty": "0x020000",
                    "number": "0x02",
                    "gasLimit": "0x07270e00",
                    "gasUsed": "0x7b0d",
                    "timestamp": "0x18",
                    "extraData": "0x",
                    "mixHash": "0x0000000000000000000000000000000000000000000000000000000000000000",
                    "nonce": "0x0000000000000000",
                    "hash": "0x5dcdaea7f2decdd11deb3ee5c957830a201668509b8e9005414fd60d75e62a70"
                },
                "transactions": [
                    {
                        "type": "0x00",
                        "chainId": "0x01",
                        "nonce": "0x01",
                        "gasPrice": "0x0a",
                        "gasLimit": "0x0186a0",
                        "to": "0x36bdd8886852759e2046e3bf4c290d5c29c81d82",
                        "value": "0x00",
                        "data": "0x",
                        "v": "0x1c",
                        "r": "0xee283bcbc5e314002162f67a014a47395521239111989a9455b67ac9bd0cd589",
                        "s": "0x1e67442d36056f5f49a6183f6041114704b268c283596d32a3c064ce6d323180",
                        "sender": "0x1ad9bc24818784172ff393bb6f89f094d4d2ca29"
                    },
                    {
                        "type": "0x00",
                        "chainId": "0x01",
                        "nonce": "0x02",
                        "gasPrice": "0x0a",
                        "gasLimit": "0x0186a0",
                        "to": "0x36bdd8886852759e2046e3bf4c290d5c29c81d82",
                        "value": "0x00",
                        "data": "0x",
                        "v": "0x1c",
                        "r": "0xc5e3365928ff446b9189390ecb4254460bc325207cf237907cd5aad07cf44af0",
                        "s": "0x6d63167db4d38056da671b41fa6cc644def82b30383a81e0c7c7888b5b70dfe4",
                        "sender": "0x1ad9bc24818784172ff393bb6f89f094d4d2ca29"
                    }
                ],
                "uncleHeaders": [],
                "receipts": [
                    {
                        "transactionHash": "0xd3f4b1e655c8e55088fc84f3575feff833134e695fcb021a947d7b9a18b486b0",
                        "type": "0x00",
                        "cumulativeGasUsed": "0x2905",
                        "bloom": "0x00000000000000000000000000000000000000000000000000000000000000000000000000000000000000000000000000000000000000000000000000000000000000000000000000000000000000000000000000000000000000000000000000000000000000000000000000000000000000000000000000000000000000000000000000000000000000000000000000000000000000000000000000000000000000000000000000000000000000000000000000000000000000000000000000000000000000000000000000000000000000000000000000000000000000000000000000000000000000000000000000000000000000000000000000000000",
                        "logs": [],
                        "postState": "0xc42250680720758cdcbea64cc3ef4a7ededc91744f851139067d378ef91db110",
                        "rlp": "0xf90128a0c42250680720758cdcbea64cc3ef4a7ededc91744f851139067d378ef91db110822905b9010000000000000000000000000000000000000000000000000000000000000000000000000000000000000000000000000000000000000000000000000000000000000000000000000000000000000000000000000000000000000000000000000000000000000000000000000000000000000000000000000000000000000000000000000000000000000000000000000000000000000000000000000000000000000000000000000000000000000000000000000000000000000000000000000000000000000000000000000000000000000000000000000000000000000000000000000000000000000000000000000000000000000000000000000000000000c0"
                    },
                    {
                        "transactionHash": "0x1cd72e17b13508455d4b24ff4ce7db4aaa2ce471d55376f9c7329fca07ad4080",
                        "type": "0x00",
                        "cumulativeGasUsed": "0x7b0d",
                        "bloom": "0x00000000000000000000000000000000000000000000000000000000000000000000000000000000000000000000000000000000000000000000000000000000000000000000000000000000000000000000000000000000000000000000000000000000000000000000000000000000000000000000000000000000000000000000000000000000000000000000000000000000000000000000000000000000000000000000000000000000000000000000000000000000000000000000000000000000000000000000000000000000000000000000000000000000000000000000000000000000000000000000000000000000000000000000000000000000",
                        "logs": [],
                        "postState": "0xd0377b4aecdb80484a582290a804c615ef35809828a4d5431b7f02751cd266cd",
                        "rlp": "0xf90128a0d0377b4aecdb80484a582290a804c615ef35809828a4d5431b7f02751cd266cd827b0db9010000000000000000000000000000000000000000000000000000000000000000000000000000000000000000000000000000000000000000000000000000000000000000000000000000000000000000000000000000000000000000000000000000000000000000000000000000000000000000000000000000000000000000000000000000000000000000000000000000000000000000000000000000000000000000000000000000000000000000000000000000000000000000000000000000000000000000000000000000000000000000000000000000000000000000000000000000000000000000000000000000000000000000000000000000000000c0"
                    }
                ],
                "rlp": "0xf902c0f901f6a075c095e1c29e8698572cf8eaaa1524dee50bbe22e2891190df158a8349eab45ea01dcc4de8dec75d7aab85b567b6ccd41ad312451b948a7413f0a142fd40d49347942adc25665018aa1fe0e6bc666dac8fc2697ff9baa0a87f3d24c7f583be602f4d39414c53b5d68254b2844e6b27695fc69833375932a0b373ef33927cc984359d6eff8af0ff74961491e1df7b57604fd6ba0e42e51cb3a0072d50709f303c734dd3ddaf998f9c16db9df7c14b738d707528de71fa1ab141b901000000000000000000000000000000000000000000000000000000000000000000000000000000000000000000000000000000000000000000000000000000000000000000000000000000000000000000000000000000000000000000000000000000000000000000000000000000000000000000000000000000000000000000000000000000000000000000000000000000000000000000000000000000000000000000000000000000000000000000000000000000000000000000000000000000000000000000000000000000000000000000000000000000000000000000000000000000000000000000000000000000000000000000000000000000000083020000028407270e00827b0d1880a00000000000000000000000000000000000000000000000000000000000000000880000000000000000f8c4f860010a830186a09436bdd8886852759e2046e3bf4c290d5c29c81d8280801ca0ee283bcbc5e314002162f67a014a47395521239111989a9455b67ac9bd0cd589a01e67442d36056f5f49a6183f6041114704b268c283596d32a3c064ce6d323180f860020a830186a09436bdd8886852759e2046e3bf4c290d5c29c81d8280801ca0c5e3365928ff446b9189390ecb4254460bc325207cf237907cd5aad07cf44af0a06d63167db4d38056da671b41fa6cc644def82b30383a81e0c7c7888b5b70dfe4c0",
                "blocknumber": "2"
            }
        ],
        "sealEngine": "NoProof",
        "_info": {
            "hash": "0x812c75391841b4f3654b619a04282b1b32519a108c11cddd793ca3568f0b309e",
            "fixture-format": "blockchain_test",
            "comment": "`execution-specs` generated test",
            "filling-transition-tool": "2.19.0",
            "description": "Test that when two transactions attempt to destruct a contract, the second\ntransaction actually resurrects the contract as an empty account (prior to\nSpurious Dragon).",
            "url": "https://github.com/ethereum/execution-specs/blob/tests-bal@v5.5.1/tests/frontier/opcodes/test_selfdestruct.py#L15",
            "opcode_count": {}
        }
    }
}