{
    "tests/frontier/opcodes/test_extcodecopy.py::test_extcodecopy_bounds[fork_Homestead-blockchain_test_from_state_test]": {
        "network": "Homestead",
        "genesisBlockHeader": {
            "parentHash": "0x0000000000000000000000000000000000000000000000000000000000000000",
            "uncleHash": "0x1dcc4de8dec75d7aab85b567b6ccd41ad312451b948a7413f0a142fd40d49347",
            "coinbase": "0x0000000000000000000000000000000000000000",
            "stateRoot": "0x7af80019c94b6ad057c4692e3137f5a8b7205daf0feff09faeccdd7c5e539e99",
            "transactionsTrie": "0x56e81f171bcc55a6ff8345e692c0f86e5b48e01b996cadc001622fb5e363b421",
            "receiptTrie": "0x56e81f171bcc55a6ff8345e692c0f86e5b48e01b996cadc001622fb5e363b421",
            "bloom": "0x00000000000000000000000000000000000000000000000000000000000000000000000000000000000000000000000000000000000000000000000000000000000000000000000000000000000000000000000000000000000000000000000000000000000000000000000000000000000000000000000000000000000000000000000000000000000000000000000000000000000000000000000000000000000000000000000000000000000000000000000000000000000000000000000000000000000000000000000000000000000000000000000000000000000000000000000000000000000000000000000000000000000000000000000000000000",
            "difficulty": "0x020000",
            "number": "0x00",
            "gasLimit": "0x07270e00",
            "gasUsed": "0x00",
            "timestamp": "0x00",
            "extraData": "0x00",
            "mixHash": "0x0000000000000000000000000000000000000000000000000000000000000000",
            "nonce": "0x0000000000000000",
            "hash": "0x900b5bc970467e77d19b0d509bfda7ec207072762e69cb8ae2a7c5b37a3c666a"
        },
        "pre": {
            "0xe62c7680b955a82119ed434bb694b432062c292b": {
                "nonce": "0x01",
                "balance": "0x00",
                "code": "0x600c606355600b606355600a606355",
                "storage": {}
            },
            "0x4ec6012ebe0243209f47872d7ca10db0c5cf8790": {
                "nonce": "0x01",
                "balance": "0x00",
                "code": "0x61138874010000000000000000000000000000000000000000600173e62c7680b955a82119ed434bb694b432062c292b3c600051600055602051600155611388600120600255600c74010000000000000000000000000000000000000000600173e62c7680b955a82119ed434bb694b432062c292b3c600051600355602051600455600c6005600173e62c7680b955a82119ed434bb694b432062c292b3c600051600555602051600655",
                "storage": {
                    "0x00": "0xba5e",
                    "0x01": "0xba5e",
                    "0x03": "0xba5e",
                    "0x04": "0xba5e",
                    "0x06": "0xba5e"
                }
            },
            "0x1ad9bc24818784172ff393bb6f89f094d4d2ca29": {
                "nonce": "0x00",
                "balance": "0x3635c9adc5dea00000",
                "code": "0x",
                "storage": {}
            }
        },
        "postState": {
            "0xe62c7680b955a82119ed434bb694b432062c292b": {
                "nonce": "0x01",
                "balance": "0x00",
                "code": "0x600c606355600b606355600a606355",
                "storage": {}
            },
            "0x4ec6012ebe0243209f47872d7ca10db0c5cf8790": {
                "nonce": "0x01",
                "balance": "0x00",
                "code": "0x61138874010000000000000000000000000000000000000000600173e62c7680b955a82119ed434bb694b432062c292b3c600051600055602051600155611388600120600255600c74010000000000000000000000000000000000000000600173e62c7680b955a82119ed434bb694b432062c292b3c600051600355602051600455600c6005600173e62c7680b955a82119ed434bb694b432062c292b3c600051600555602051600655",
                "storage": {
                    "0x02": "0x53468f1d5ed180956ce4d624514f726c9341ef1a7b14afac3139c4736fbe24e6",
                    "0x05": "0x600b606355600a606355000000000000000000000000000000000000000000"
                }
            },
            "0x1ad9bc24818784172ff393bb6f89f094d4d2ca29": {
                "nonce": "0x01",
                "balance": "0x3635c9adc5de9946c0",
                "code": "0x",
                "storage": {}
            },
            "0x2adc25665018aa1fe0e6bc666dac8fc2697ff9ba": {
                "nonce": "0x00",
                "balance": "0x4563918244fab940",
                "code": "0x",
                "storage": {}
            }
        },
        "lastblockhash": "0x3b51d2473174ba8e5c6f84494b2c2f2bb3a9330227cceddb3b4ed2dacf6fa71f",
        "config": {
            "network": "Homestead",
            "chainid": "0x01"
        },
        "genesisRLP": "0xf901f9f901f4a00000000000000000000000000000000000000000000000000000000000000000a01dcc4de8dec75d7aab85b567b6ccd41ad312451b948a7413f0a142fd40d49347940000000000000000000000000000000000000000a07af80019c94b6ad057c4692e3137f5a8b7205daf0feff09faeccdd7c5e539e99a056e81f171bcc55a6ff8345e692c0f86e5b48e01b996cadc001622fb5e363b421a056e81f171bcc55a6ff8345e692c0f86e5b48e01b996cadc001622fb5e363b421b901000000000000000000000000000000000000000000000000000000000000000000000000000000000000000000000000000000000000000000000000000000000000000000000000000000000000000000000000000000000000000000000000000000000000000000000000000000000000000000000000000000000000000000000000000000000000000000000000000000000000000000000000000000000000000000000000000000000000000000000000000000000000000000000000000000000000000000000000000000000000000000000000000000000000000000000000000000000000000000000000000000000000000000000000000000000083020000808407270e00808000a00000000000000000000000000000000000000000000000000000000000000000880000000000000000c0c0",
        "blocks": [
            {
                "blockHeader": {
                    "parentHash": "0x900b5bc970467e77d19b0d509bfda7ec207072762e69cb8ae2a7c5b37a3c666a",
                    "uncleHash": "0x1dcc4de8dec75d7aab85b567b6ccd41ad312451b948a7413f0a142fd40d49347",
                    "coinbase": "0x2adc25665018aa1fe0e6bc666dac8fc2697ff9ba",
                    "stateRoot": "0x15626ce04e046c894f34ff0d423f1075981cba99ea901da9ccb09a3083c18446",
                    "transactionsTrie": "0x71599812580029e00cb90dc27c2ed5554f14cb8267304d576938911580b51116",
                    "receiptTrie": "0x99b1efc42f6bc088ed2db28a6ae22d3625b70c421dd024a1d717630d1ff8882b",
                    "bloom": "0x00000000000000000000000000000000000000000000000000000000000000000000000000000000000000000000000000000000000000000000000000000000000000000000000000000000000000000000000000000000000000000000000000000000000000000000000000000000000000000000000000000000000000000000000000000000000000000000000000000000000000000000000000000000000000000000000000000000000000000000000000000000000000000000000000000000000000000000000000000000000000000000000000000000000000000000000000000000000000000000000000000000000000000000000000000000",
                    "difficulty": "0x020000",
                    "number": "0x01",
                    "gasLimit": "0x07270e00",
                    "gasUsed": "0xac20",
                    "timestamp": "0x03e8",
                    "extraData": "0x00",
                    "mixHash": "0x0000000000000000000000000000000000000000000000000000000000000000",
                    "nonce": "0x0000000000000000",
                    "hash": "0x3b51d2473174ba8e5c6f84494b2c2f2bb3a9330227cceddb3b4ed2dacf6fa71f"
                },
                "transactions": [
                    {
                        "type": "0x00",
                        "chainId": "0x01",
                        "nonce": "0x00",
                        "gasPrice": "0x0a",
                        "gasLimit": "0x061a80",
                        "to": "0x4ec6012ebe0243209f47872d7ca10db0c5cf8790",
                        "value": "0x00",
                        "data": "0x",
                        "v": "0x1b",
                        "r": "0xd548a93e6951d98489fd56e299bb7e00fb8e35558154365fa584fd23941f2218",
                        "s": "0x6d0742e3f97e88c20728ae7a86d9abce44bfd9d32c820e166cdca8750ba244b7",
                        "sender": "0x1ad9bc24818784172ff393bb6f89f094d4d2ca29"
                    }
                ],
                "uncleHeaders": [],
                "receipts": [
                    {
                        "transactionHash": "0xfab7e9f25612ea18294a3d9587fd1e6114e96a15549b371a004a123deeebdd11",
                        "type": "0x00",
                        "cumulativeGasUsed": "0xac20",
                        "bloom": "0x00000000000000000000000000000000000000000000000000000000000000000000000000000000000000000000000000000000000000000000000000000000000000000000000000000000000000000000000000000000000000000000000000000000000000000000000000000000000000000000000000000000000000000000000000000000000000000000000000000000000000000000000000000000000000000000000000000000000000000000000000000000000000000000000000000000000000000000000000000000000000000000000000000000000000000000000000000000000000000000000000000000000000000000000000000000",
                        "logs": [],
                        "postState": "0x5eaf7aa0f2b20eb334f5fe59531ff46ad54b7693ddc812d8ac60e044fec47efb",
                        "rlp": "0xf90128a05eaf7aa0f2b20eb334f5fe59531ff46ad54b7693ddc812d8ac60e044fec47efb82ac20b9010000000000000000000000000000000000000000000000000000000000000000000000000000000000000000000000000000000000000000000000000000000000000000000000000000000000000000000000000000000000000000000000000000000000000000000000000000000000000000000000000000000000000000000000000000000000000000000000000000000000000000000000000000000000000000000000000000000000000000000000000000000000000000000000000000000000000000000000000000000000000000000000000000000000000000000000000000000000000000000000000000000000000000000000000000000000c0"
                    }
                ],
                "rlp": "0xf90260f901f8a0900b5bc970467e77d19b0d509bfda7ec207072762e69cb8ae2a7c5b37a3c666aa01dcc4de8dec75d7aab85b567b6ccd41ad312451b948a7413f0a142fd40d49347942adc25665018aa1fe0e6bc666dac8fc2697ff9baa015626ce04e046c894f34ff0d423f1075981cba99ea901da9ccb09a3083c18446a071599812580029e00cb90dc27c2ed5554f14cb8267304d576938911580b51116a099b1efc42f6bc088ed2db28a6ae22d3625b70c421dd024a1d717630d1ff8882bb901000000000000000000000000000000000000000000000000000000000000000000000000000000000000000000000000000000000000000000000000000000000000000000000000000000000000000000000000000000000000000000000000000000000000000000000000000000000000000000000000000000000000000000000000000000000000000000000000000000000000000000000000000000000000000000000000000000000000000000000000000000000000000000000000000000000000000000000000000000000000000000000000000000000000000000000000000000000000000000000000000000000000000000000000000000000083020000018407270e0082ac208203e800a00000000000000000000000000000000000000000000000000000000000000000880000000000000000f862f860800a83061a80944ec6012ebe0243209f47872d7ca10db0c5cf879080801ba0d548a93e6951d98489fd56e299bb7e00fb8e35558154365fa584fd23941f2218a06d0742e3f97e88c20728ae7a86d9abce44bfd9d32c820e166cdca8750ba244b7c0",
                "blocknumber": "1"
            }
        ],
        "sealEngine": "NoProof",
        "_info": {
            "hash": "0x4d5d339f6314c6bb0e864a348fb145cb6f477c9e956c4278ee1c5cae91d2e111",
            "fixture-format": "blockchain_test",
            "comment": "`execution-specs` generated test",
            "filling-transition-tool": "2.19.0",
            "description": "Test EXTCODECOPY with out-of-bounds code offset.\n\nPerform three EXTCODECOPY operations on a 15-byte target contract:\n1. Huge code offset + large size  -> all zeros (beyond code)\n2. Huge code offset + small size  -> all zeros (beyond code)\n3. Offset 5 + size 12             -> partial code copy + zero padding\n\nEach result is read via MLOAD(0) and MLOAD(32) and stored. Only the\nthird operation produces a non-zero result because the dest_offset=1\nshifts the copied bytes into the MLOAD(0) word.",
            "url": "https://github.com/ethereum/execution-specs/blob/tests-bal@v5.5.1/tests/frontier/opcodes/test_extcodecopy.py#L16",
            "opcode_count": {}
        }
    }
}