{
    "tests/frontier/create/test_create_suicide_store.py::test_create_suicide_store[fork_Shanghai-create_opcode_CREATE-blockchain_test_from_state_test]": {
        "network": "Shanghai",
        "genesisBlockHeader": {
            "parentHash": "0x0000000000000000000000000000000000000000000000000000000000000000",
            "uncleHash": "0x1dcc4de8dec75d7aab85b567b6ccd41ad312451b948a7413f0a142fd40d49347",
            "coinbase": "0x0000000000000000000000000000000000000000",
            "stateRoot": "0x73dc7969b0bed683a533c7cebeaba920235b90106a7c708ae5dc61ffc05b346a",
            "transactionsTrie": "0x56e81f171bcc55a6ff8345e692c0f86e5b48e01b996cadc001622fb5e363b421",
            "receiptTrie": "0x56e81f171bcc55a6ff8345e692c0f86e5b48e01b996cadc001622fb5e363b421",
            "bloom": "0x00000000000000000000000000000000000000000000000000000000000000000000000000000000000000000000000000000000000000000000000000000000000000000000000000000000000000000000000000000000000000000000000000000000000000000000000000000000000000000000000000000000000000000000000000000000000000000000000000000000000000000000000000000000000000000000000000000000000000000000000000000000000000000000000000000000000000000000000000000000000000000000000000000000000000000000000000000000000000000000000000000000000000000000000000000000",
            "difficulty": "0x00",
            "number": "0x00",
            "gasLimit": "0x07270e00",
            "gasUsed": "0x00",
            "timestamp": "0x00",
            "extraData": "0x00",
            "mixHash": "0x0000000000000000000000000000000000000000000000000000000000000000",
            "nonce": "0x0000000000000000",
            "baseFeePerGas": "0x07",
            "withdrawalsRoot": "0x56e81f171bcc55a6ff8345e692c0f86e5b48e01b996cadc001622fb5e363b421",
            "hash": "0xd00fe90434f77dab97a341099c6e40a8d21fc8cb7755c2325c96063268f3604c"
        },
        "pre": {
            "0x1ad9bc24818784172ff393bb6f89f094d4d2ca29": {
                "nonce": "0x00",
                "balance": "0x3635c9adc5dea00000",
                "code": "0x",
                "storage": {}
            },
            "0x17daeaaddf731eb9f66237055d365d3d2d6e8050": {
                "nonce": "0x01",
                "balance": "0x00",
                "code": "0x3660006000373660006000f0600055600260405260006000602060406000600054620493e05a03f1600160405260006000602060406000600054620493e05a03f1600260405260006000602060406000600054620493e05a03f1600360405260206064602060406000600054620493e05a03f16064516001556001600255",
                "storage": {}
            }
        },
        "postState": {
            "0x1ad9bc24818784172ff393bb6f89f094d4d2ca29": {
                "nonce": "0x01",
                "balance": "0x3635c9adc5de85b4a2",
                "code": "0x",
                "storage": {}
            },
            "0x17daeaaddf731eb9f66237055d365d3d2d6e8050": {
                "nonce": "0x02",
                "balance": "0x00",
                "code": "0x3660006000373660006000f0600055600260405260006000602060406000600054620493e05a03f1600160405260006000602060406000600054620493e05a03f1600260405260006000602060406000600054620493e05a03f1600360405260206064602060406000600054620493e05a03f16064516001556001600255",
                "storage": {
                    "0x00": "0x4b1635e9d50ed49ddb11398a53ff2836b9f1bc0e",
                    "0x01": "0x24",
                    "0x02": "0x01"
                }
            },
            "0x2adc25665018aa1fe0e6bc666dac8fc2697ff9ba": {
                "nonce": "0x00",
                "balance": "0x07e369",
                "code": "0x",
                "storage": {}
            }
        },
        "lastblockhash": "0x89c0566b4b2e9498adde7bbdce18f174e9568e8eeb43633ea544324282328dc1",
        "config": {
            "network": "Shanghai",
            "chainid": "0x01"
        },
        "genesisRLP": "0xf90219f90213a00000000000000000000000000000000000000000000000000000000000000000a01dcc4de8dec75d7aab85b567b6ccd41ad312451b948a7413f0a142fd40d49347940000000000000000000000000000000000000000a073dc7969b0bed683a533c7cebeaba920235b90106a7c708ae5dc61ffc05b346aa056e81f171bcc55a6ff8345e692c0f86e5b48e01b996cadc001622fb5e363b421a056e81f171bcc55a6ff8345e692c0f86e5b48e01b996cadc001622fb5e363b421b901000000000000000000000000000000000000000000000000000000000000000000000000000000000000000000000000000000000000000000000000000000000000000000000000000000000000000000000000000000000000000000000000000000000000000000000000000000000000000000000000000000000000000000000000000000000000000000000000000000000000000000000000000000000000000000000000000000000000000000000000000000000000000000000000000000000000000000000000000000000000000000000000000000000000000000000000000000000000000000000000000000000000000000000000000000000080808407270e00808000a0000000000000000000000000000000000000000000000000000000000000000088000000000000000007a056e81f171bcc55a6ff8345e692c0f86e5b48e01b996cadc001622fb5e363b421c0c0c0",
        "blocks": [
            {
                "blockHeader": {
                    "parentHash": "0xd00fe90434f77dab97a341099c6e40a8d21fc8cb7755c2325c96063268f3604c",
                    "uncleHash": "0x1dcc4de8dec75d7aab85b567b6ccd41ad312451b948a7413f0a142fd40d49347",
                    "coinbase": "0x2adc25665018aa1fe0e6bc666dac8fc2697ff9ba",
                    "stateRoot": "0x39e159800edd1bcb81ab957be33ba5ac8f0fdd0279ecd190862158d4e4f14e0b",
                    "transactionsTrie": "0x5c5c0be07d0b57ca4eb91d7be65136d962b61cf1f3181ad11f8bbb776e0fe31a",
                    "receiptTrie": "0x7f7b3d50ea6eb74fac70fb9829420b8929178c699b78379d8ee74dd4603b5d9b",
                    "bloom": "0x00000000000000000000000000000000000000000000000000000000000000000000000000000000000000000000000000000000000000000000000000000000000000000000000000000000000000000000000000000000000000000000000000000000000000000000000000000000000000000000000000000000000000000000000000000000000000000000000000000000000000000000000000000000000000000000000000000000000000000000000000000000000000000000000000000000000000000000000000000000000000000000000000000000000000000000000000000000000000000000000000000000000000000000000000000000",
                    "difficulty": "0x00",
                    "number": "0x01",
                    "gasLimit": "0x07270e00",
                    "gasUsed": "0x02a123",
                    "timestamp": "0x03e8",
                    "extraData": "0x00",
                    "mixHash": "0x0000000000000000000000000000000000000000000000000000000000000000",
                    "nonce": "0x0000000000000000",
                    "baseFeePerGas": "0x07",
                    "withdrawalsRoot": "0x56e81f171bcc55a6ff8345e692c0f86e5b48e01b996cadc001622fb5e363b421",
                    "hash": "0x89c0566b4b2e9498adde7bbdce18f174e9568e8eeb43633ea544324282328dc1"
                },
                "transactions": [
                    {
                        "type": "0x00",
                        "chainId": "0x01",
                        "nonce": "0x00",
                        "gasPrice": "0x0a",
                        "gasLimit": "0x0f4240",
                        "to": "0x17daeaaddf731eb9f66237055d365d3d2d6e8050",
                        "value": "0x00",
                        "data": "0x610064600081600b8239f3600160003514603f5801576002600035146024580157600360003514600858015760405801565b60015460005260206000f3602f5801565b60126001540160015500601f5801565b73c0f6dc9e5836f54caadbf59cc69346c508e1992bff60035801565b",
                        "v": "0x26",
                        "r": "0x877170f7aa04da8f39462854639c2c24b735e93f1a0405c49d4c34d464ebc6a0",
                        "s": "0x3b67476a2bd08522c9541c54be923695c5e41b3ec785aa8b2f980daf0816ae89",
                        "sender": "0x1ad9bc24818784172ff393bb6f89f094d4d2ca29"
                    }
                ],
                "uncleHeaders": [],
                "withdrawals": [],
                "receipts": [
                    {
                        "transactionHash": "0xb7e029e6217282f3aa7b5509344cb11dd73754f8b705bffc2c37f0bd02fb44e8",
                        "type": "0x00",
                        "cumulativeGasUsed": "0x02a123",
                        "bloom": "0x00000000000000000000000000000000000000000000000000000000000000000000000000000000000000000000000000000000000000000000000000000000000000000000000000000000000000000000000000000000000000000000000000000000000000000000000000000000000000000000000000000000000000000000000000000000000000000000000000000000000000000000000000000000000000000000000000000000000000000000000000000000000000000000000000000000000000000000000000000000000000000000000000000000000000000000000000000000000000000000000000000000000000000000000000000000",
                        "logs": [],
                        "status": true,
                        "rlp": "0xf90109018302a123b9010000000000000000000000000000000000000000000000000000000000000000000000000000000000000000000000000000000000000000000000000000000000000000000000000000000000000000000000000000000000000000000000000000000000000000000000000000000000000000000000000000000000000000000000000000000000000000000000000000000000000000000000000000000000000000000000000000000000000000000000000000000000000000000000000000000000000000000000000000000000000000000000000000000000000000000000000000000000000000000000000000000000000000000000000000000000c0"
                    }
                ],
                "rlp": "0xf902f1f90218a0d00fe90434f77dab97a341099c6e40a8d21fc8cb7755c2325c96063268f3604ca01dcc4de8dec75d7aab85b567b6ccd41ad312451b948a7413f0a142fd40d49347942adc25665018aa1fe0e6bc666dac8fc2697ff9baa039e159800edd1bcb81ab957be33ba5ac8f0fdd0279ecd190862158d4e4f14e0ba05c5c0be07d0b57ca4eb91d7be65136d962b61cf1f3181ad11f8bbb776e0fe31aa07f7b3d50ea6eb74fac70fb9829420b8929178c699b78379d8ee74dd4603b5d9bb901000000000000000000000000000000000000000000000000000000000000000000000000000000000000000000000000000000000000000000000000000000000000000000000000000000000000000000000000000000000000000000000000000000000000000000000000000000000000000000000000000000000000000000000000000000000000000000000000000000000000000000000000000000000000000000000000000000000000000000000000000000000000000000000000000000000000000000000000000000000000000000000000000000000000000000000000000000000000000000000000000000000000000000000000000000000080018407270e008302a1238203e800a0000000000000000000000000000000000000000000000000000000000000000088000000000000000007a056e81f171bcc55a6ff8345e692c0f86e5b48e01b996cadc001622fb5e363b421f8d2f8d0800a830f42409417daeaaddf731eb9f66237055d365d3d2d6e805080b86f610064600081600b8239f3600160003514603f5801576002600035146024580157600360003514600858015760405801565b60015460005260206000f3602f5801565b60126001540160015500601f5801565b73c0f6dc9e5836f54caadbf59cc69346c508e1992bff60035801565b26a0877170f7aa04da8f39462854639c2c24b735e93f1a0405c49d4c34d464ebc6a0a03b67476a2bd08522c9541c54be923695c5e41b3ec785aa8b2f980daf0816ae89c0c0",
                "blocknumber": "1"
            }
        ],
        "sealEngine": "NoProof",
        "_info": {
            "hash": "0x6c5a77414953fd4354351501f42a94ddb472b0b20e38bfd4ffe5f1e1b0a76ccc",
            "fixture-format": "blockchain_test",
            "comment": "`execution-specs` generated test",
            "filling-transition-tool": "2.19.0",
            "description": "Create a dynamic contract that self-destructs, then call it to store some\ndata and then call it again to return that storage value.",
            "url": "https://github.com/ethereum/execution-specs/blob/tests-bal@v5.6.1/tests/frontier/create/test_create_suicide_store.py#L32",
            "metadata": {
                "opcode_count": {}
            }
        }
    },
    "tests/frontier/create/test_create_suicide_store.py::test_create_suicide_store[fork_Shanghai-create_opcode_CREATE2-blockchain_test_from_state_test]": {
        "network": "Shanghai",
        "genesisBlockHeader": {
            "parentHash": "0x0000000000000000000000000000000000000000000000000000000000000000",
            "uncleHash": "0x1dcc4de8dec75d7aab85b567b6ccd41ad312451b948a7413f0a142fd40d49347",
            "coinbase": "0x0000000000000000000000000000000000000000",
            "stateRoot": "0x80cbb104ccffccadacf3025ce85318b67ffd03beedd4076dcbce694069c35f1e",
            "transactionsTrie": "0x56e81f171bcc55a6ff8345e692c0f86e5b48e01b996cadc001622fb5e363b421",
            "receiptTrie": "0x56e81f171bcc55a6ff8345e692c0f86e5b48e01b996cadc001622fb5e363b421",
            "bloom": "0x00000000000000000000000000000000000000000000000000000000000000000000000000000000000000000000000000000000000000000000000000000000000000000000000000000000000000000000000000000000000000000000000000000000000000000000000000000000000000000000000000000000000000000000000000000000000000000000000000000000000000000000000000000000000000000000000000000000000000000000000000000000000000000000000000000000000000000000000000000000000000000000000000000000000000000000000000000000000000000000000000000000000000000000000000000000",
            "difficulty": "0x00",
            "number": "0x00",
            "gasLimit": "0x07270e00",
            "gasUsed": "0x00",
            "timestamp": "0x00",
            "extraData": "0x00",
            "mixHash": "0x0000000000000000000000000000000000000000000000000000000000000000",
            "nonce": "0x0000000000000000",
            "baseFeePerGas": "0x07",
            "withdrawalsRoot": "0x56e81f171bcc55a6ff8345e692c0f86e5b48e01b996cadc001622fb5e363b421",
            "hash": "0xb88134236440910f78604a1f567a64d185c52389af74930fa634a8bc14f2428e"
        },
        "pre": {
            "0x1ad9bc24818784172ff393bb6f89f094d4d2ca29": {
                "nonce": "0x00",
                "balance": "0x3635c9adc5dea00000",
                "code": "0x",
                "storage": {}
            },
            "0xc1a66b5c6a64e3e0031be1e329b34ca971f5730b": {
                "nonce": "0x01",
                "balance": "0x00",
                "code": "0x36600060003760003660006000f5600055600260405260006000602060406000600054620493e05a03f1600160405260006000602060406000600054620493e05a03f1600260405260006000602060406000600054620493e05a03f1600360405260206064602060406000600054620493e05a03f16064516001556001600255",
                "storage": {}
            }
        },
        "postState": {
            "0x1ad9bc24818784172ff393bb6f89f094d4d2ca29": {
                "nonce": "0x01",
                "balance": "0x3635c9adc5de85b394",
                "code": "0x",
                "storage": {}
            },
            "0xc1a66b5c6a64e3e0031be1e329b34ca971f5730b": {
                "nonce": "0x02",
                "balance": "0x00",
                "code": "0x36600060003760003660006000f5600055600260405260006000602060406000600054620493e05a03f1600160405260006000602060406000600054620493e05a03f1600260405260006000602060406000600054620493e05a03f1600360405260206064602060406000600054620493e05a03f16064516001556001600255",
                "storage": {
                    "0x00": "0xccb6e3eff52f3ed46c022e8cecc9add7444e10cf",
                    "0x01": "0x24",
                    "0x02": "0x01"
                }
            },
            "0x2adc25665018aa1fe0e6bc666dac8fc2697ff9ba": {
                "nonce": "0x00",
                "balance": "0x07e3ba",
                "code": "0x",
                "storage": {}
            }
        },
        "lastblockhash": "0x70990021881d65a815fee36fee67de4456b93e1a2408e40f35a70d8fcb5f5cd9",
        "config": {
            "network": "Shanghai",
            "chainid": "0x01"
        },
        "genesisRLP": "0xf90219f90213a00000000000000000000000000000000000000000000000000000000000000000a01dcc4de8dec75d7aab85b567b6ccd41ad312451b948a7413f0a142fd40d49347940000000000000000000000000000000000000000a080cbb104ccffccadacf3025ce85318b67ffd03beedd4076dcbce694069c35f1ea056e81f171bcc55a6ff8345e692c0f86e5b48e01b996cadc001622fb5e363b421a056e81f171bcc55a6ff8345e692c0f86e5b48e01b996cadc001622fb5e363b421b901000000000000000000000000000000000000000000000000000000000000000000000000000000000000000000000000000000000000000000000000000000000000000000000000000000000000000000000000000000000000000000000000000000000000000000000000000000000000000000000000000000000000000000000000000000000000000000000000000000000000000000000000000000000000000000000000000000000000000000000000000000000000000000000000000000000000000000000000000000000000000000000000000000000000000000000000000000000000000000000000000000000000000000000000000000000080808407270e00808000a0000000000000000000000000000000000000000000000000000000000000000088000000000000000007a056e81f171bcc55a6ff8345e692c0f86e5b48e01b996cadc001622fb5e363b421c0c0c0",
        "blocks": [
            {
                "blockHeader": {
                    "parentHash": "0xb88134236440910f78604a1f567a64d185c52389af74930fa634a8bc14f2428e",
                    "uncleHash": "0x1dcc4de8dec75d7aab85b567b6ccd41ad312451b948a7413f0a142fd40d49347",
                    "coinbase": "0x2adc25665018aa1fe0e6bc666dac8fc2697ff9ba",
                    "stateRoot": "0x16f8c58018f5ff2d59a81b4ed4d3e6b402ff39737b2252a387ee112e549703c6",
                    "transactionsTrie": "0xe256ea9db9d199d8f869c76ec3eb06b0ff78f1ab89b2a67098a6379dafad4914",
                    "receiptTrie": "0x0712f63a0bb9bfa7ea8f712e70ae5957f6b1141c02e285b9eec3a7803a8afa19",
                    "bloom": "0x00000000000000000000000000000000000000000000000000000000000000000000000000000000000000000000000000000000000000000000000000000000000000000000000000000000000000000000000000000000000000000000000000000000000000000000000000000000000000000000000000000000000000000000000000000000000000000000000000000000000000000000000000000000000000000000000000000000000000000000000000000000000000000000000000000000000000000000000000000000000000000000000000000000000000000000000000000000000000000000000000000000000000000000000000000000",
                    "difficulty": "0x00",
                    "number": "0x01",
                    "gasLimit": "0x07270e00",
                    "gasUsed": "0x02a13e",
                    "timestamp": "0x03e8",
                    "extraData": "0x00",
                    "mixHash": "0x0000000000000000000000000000000000000000000000000000000000000000",
                    "nonce": "0x0000000000000000",
                    "baseFeePerGas": "0x07",
                    "withdrawalsRoot": "0x56e81f171bcc55a6ff8345e692c0f86e5b48e01b996cadc001622fb5e363b421",
                    "hash": "0x70990021881d65a815fee36fee67de4456b93e1a2408e40f35a70d8fcb5f5cd9"
                },
                "transactions": [
                    {
                        "type": "0x00",
                        "chainId": "0x01",
                        "nonce": "0x00",
                        "gasPrice": "0x0a",
                        "gasLimit": "0x0f4240",
                        "to": "0xc1a66b5c6a64e3e0031be1e329b34ca971f5730b",
                        "value": "0x00",
                        "data": "0x610064600081600b8239f3600160003514603f5801576002600035146024580157600360003514600858015760405801565b60015460005260206000f3602f5801565b60126001540160015500601f5801565b73c0f6dc9e5836f54caadbf59cc69346c508e1992bff60035801565b",
                        "v": "0x25",
                        "r": "0xc1c24d4cdd4cdcd20179ed3bc1fce0d3d23eae46c88a8a98c4af337089af0fae",
                        "s": "0x1318abe13fd5505c885f10f98c2137c2d11c6ddabed19832eddd3ee14529928e",
                        "sender": "0x1ad9bc24818784172ff393bb6f89f094d4d2ca29"
                    }
                ],
                "uncleHeaders": [],
                "withdrawals": [],
                "receipts": [
                    {
                        "transactionHash": "0x5bb5a0bbb8d842c9ec4d24be6e62c9e5bdf12f7cabbd457d3bd9dbf218fdcf1f",
                        "type": "0x00",
                        "cumulativeGasUsed": "0x02a13e",
                        "bloom": "0x00000000000000000000000000000000000000000000000000000000000000000000000000000000000000000000000000000000000000000000000000000000000000000000000000000000000000000000000000000000000000000000000000000000000000000000000000000000000000000000000000000000000000000000000000000000000000000000000000000000000000000000000000000000000000000000000000000000000000000000000000000000000000000000000000000000000000000000000000000000000000000000000000000000000000000000000000000000000000000000000000000000000000000000000000000000",
                        "logs": [],
                        "status": true,
                        "rlp": "0xf90109018302a13eb9010000000000000000000000000000000000000000000000000000000000000000000000000000000000000000000000000000000000000000000000000000000000000000000000000000000000000000000000000000000000000000000000000000000000000000000000000000000000000000000000000000000000000000000000000000000000000000000000000000000000000000000000000000000000000000000000000000000000000000000000000000000000000000000000000000000000000000000000000000000000000000000000000000000000000000000000000000000000000000000000000000000000000000000000000000000000c0"
                    }
                ],
                "rlp": "0xf902f1f90218a0b88134236440910f78604a1f567a64d185c52389af74930fa634a8bc14f2428ea01dcc4de8dec75d7aab85b567b6ccd41ad312451b948a7413f0a142fd40d49347942adc25665018aa1fe0e6bc666dac8fc2697ff9baa016f8c58018f5ff2d59a81b4ed4d3e6b402ff39737b2252a387ee112e549703c6a0e256ea9db9d199d8f869c76ec3eb06b0ff78f1ab89b2a67098a6379dafad4914a00712f63a0bb9bfa7ea8f712e70ae5957f6b1141c02e285b9eec3a7803a8afa19b901000000000000000000000000000000000000000000000000000000000000000000000000000000000000000000000000000000000000000000000000000000000000000000000000000000000000000000000000000000000000000000000000000000000000000000000000000000000000000000000000000000000000000000000000000000000000000000000000000000000000000000000000000000000000000000000000000000000000000000000000000000000000000000000000000000000000000000000000000000000000000000000000000000000000000000000000000000000000000000000000000000000000000000000000000000000080018407270e008302a13e8203e800a0000000000000000000000000000000000000000000000000000000000000000088000000000000000007a056e81f171bcc55a6ff8345e692c0f86e5b48e01b996cadc001622fb5e363b421f8d2f8d0800a830f424094c1a66b5c6a64e3e0031be1e329b34ca971f5730b80b86f610064600081600b8239f3600160003514603f5801576002600035146024580157600360003514600858015760405801565b60015460005260206000f3602f5801565b60126001540160015500601f5801565b73c0f6dc9e5836f54caadbf59cc69346c508e1992bff60035801565b25a0c1c24d4cdd4cdcd20179ed3bc1fce0d3d23eae46c88a8a98c4af337089af0faea01318abe13fd5505c885f10f98c2137c2d11c6ddabed19832eddd3ee14529928ec0c0",
                "blocknumber": "1"
            }
        ],
        "sealEngine": "NoProof",
        "_info": {
            "hash": "0xca3ac189b77ac0002167020ef43f22c510b1f0b6e3a11829bc70852dad59e193",
            "fixture-format": "blockchain_test",
            "comment": "`execution-specs` generated test",
            "filling-transition-tool": "2.19.0",
            "description": "Create a dynamic contract that self-destructs, then call it to store some\ndata and then call it again to return that storage value.",
            "url": "https://github.com/ethereum/execution-specs/blob/tests-bal@v5.6.1/tests/frontier/create/test_create_suicide_store.py#L32",
            "metadata": {
                "opcode_count": {}
            }
        }
    }
}