{
    "tests/ported_static/stTransactionTest/test_internal_call_store_clears_oog.py::test_internal_call_store_clears_oog[fork_Cancun-blockchain_test_from_state_test]": {
        "network": "Cancun",
        "genesisBlockHeader": {
            "parentHash": "0x0000000000000000000000000000000000000000000000000000000000000000",
            "uncleHash": "0x1dcc4de8dec75d7aab85b567b6ccd41ad312451b948a7413f0a142fd40d49347",
            "coinbase": "0x0000000000000000000000000000000000000000",
            "stateRoot": "0xd767ccb8d2a1650f0416e0fa033757e098b743968dd9aec1e64c2ab5130849b5",
            "transactionsTrie": "0x56e81f171bcc55a6ff8345e692c0f86e5b48e01b996cadc001622fb5e363b421",
            "receiptTrie": "0x56e81f171bcc55a6ff8345e692c0f86e5b48e01b996cadc001622fb5e363b421",
            "bloom": "0x00000000000000000000000000000000000000000000000000000000000000000000000000000000000000000000000000000000000000000000000000000000000000000000000000000000000000000000000000000000000000000000000000000000000000000000000000000000000000000000000000000000000000000000000000000000000000000000000000000000000000000000000000000000000000000000000000000000000000000000000000000000000000000000000000000000000000000000000000000000000000000000000000000000000000000000000000000000000000000000000000000000000000000000000000000000",
            "difficulty": "0x00",
            "number": "0x00",
            "gasLimit": "0x0f4240",
            "gasUsed": "0x00",
            "timestamp": "0x00",
            "extraData": "0x00",
            "mixHash": "0x0000000000000000000000000000000000000000000000000000000000000000",
            "nonce": "0x0000000000000000",
            "baseFeePerGas": "0x0b",
            "withdrawalsRoot": "0x56e81f171bcc55a6ff8345e692c0f86e5b48e01b996cadc001622fb5e363b421",
            "blobGasUsed": "0x00",
            "excessBlobGas": "0x00",
            "parentBeaconBlockRoot": "0x0000000000000000000000000000000000000000000000000000000000000000",
            "hash": "0xaeade09ea713bd1606fc4483b0968b223c030c2ddcc2632d17cd3cd9e27edbaa"
        },
        "pre": {
            "0x000f3df6d732807ef1319fb7b8bb8522d0beac02": {
                "nonce": "0x01",
                "balance": "0x00",
                "code": "0x3373fffffffffffffffffffffffffffffffffffffffe14604d57602036146024575f5ffd5b5f35801560495762001fff810690815414603c575f5ffd5b62001fff01545f5260205ff35b5f5ffd5b62001fff42064281555f359062001fff015500",
                "storage": {}
            },
            "0xd61e0564fab2b0da5136f75db579b663bd9f2bd8": {
                "nonce": "0x00",
                "balance": "0x00",
                "code": "0x600060005560006001556000600255600060035560006004556000600555600060065560006007556000600855600060095500",
                "storage": {
                    "0x00": "0x0c",
                    "0x01": "0x0c",
                    "0x02": "0x0c",
                    "0x03": "0x0c",
                    "0x04": "0x0c",
                    "0x05": "0x0c",
                    "0x06": "0x0c",
                    "0x07": "0x0c",
                    "0x08": "0x0c",
                    "0x09": "0x0c"
                }
            },
            "0xc4a2ca1058df329e5da4755f9921ddaf05cbaa06": {
                "nonce": "0x00",
                "balance": "0x3b9aca00",
                "code": "0x",
                "storage": {}
            },
            "0x30bfe899ef735d5aaca102952664a74b1de046af": {
                "nonce": "0x00",
                "balance": "0x0a",
                "code": "0x6000600060006000600173d61e0564fab2b0da5136f75db579b663bd9f2bd8619c40f100",
                "storage": {}
            }
        },
        "postState": {
            "0x000f3df6d732807ef1319fb7b8bb8522d0beac02": {
                "nonce": "0x01",
                "balance": "0x00",
                "code": "0x3373fffffffffffffffffffffffffffffffffffffffe14604d57602036146024575f5ffd5b5f35801560495762001fff810690815414603c575f5ffd5b62001fff01545f5260205ff35b5f5ffd5b62001fff42064281555f359062001fff015500",
                "storage": {
                    "0x03e8": "0x03e8"
                }
            },
            "0xd61e0564fab2b0da5136f75db579b663bd9f2bd8": {
                "nonce": "0x00",
                "balance": "0x00",
                "code": "0x600060005560006001556000600255600060035560006004556000600555600060065560006007556000600855600060095500",
                "storage": {
                    "0x00": "0x0c",
                    "0x01": "0x0c",
                    "0x02": "0x0c",
                    "0x03": "0x0c",
                    "0x04": "0x0c",
                    "0x05": "0x0c",
                    "0x06": "0x0c",
                    "0x07": "0x0c",
                    "0x08": "0x0c",
                    "0x09": "0x0c"
                }
            },
            "0xc4a2ca1058df329e5da4755f9921ddaf05cbaa06": {
                "nonce": "0x01",
                "balance": "0x3b8fb534",
                "code": "0x",
                "storage": {}
            },
            "0x30bfe899ef735d5aaca102952664a74b1de046af": {
                "nonce": "0x00",
                "balance": "0x14",
                "code": "0x6000600060006000600173d61e0564fab2b0da5136f75db579b663bd9f2bd8619c40f100",
                "storage": {}
            }
        },
        "lastblockhash": "0xa47eea238bf527a7d1d968d0dd02fed6fdd5e978a3b61203c8621adbf75e6859",
        "config": {
            "network": "Cancun",
            "chainid": "0x01",
            "blobSchedule": {
                "Cancun": {
                    "target": "0x03",
                    "max": "0x06",
                    "baseFeeUpdateFraction": "0x32f0ed"
                }
            }
        },
        "genesisRLP": "0xf9023bf90235a00000000000000000000000000000000000000000000000000000000000000000a01dcc4de8dec75d7aab85b567b6ccd41ad312451b948a7413f0a142fd40d49347940000000000000000000000000000000000000000a0d767ccb8d2a1650f0416e0fa033757e098b743968dd9aec1e64c2ab5130849b5a056e81f171bcc55a6ff8345e692c0f86e5b48e01b996cadc001622fb5e363b421a056e81f171bcc55a6ff8345e692c0f86e5b48e01b996cadc001622fb5e363b421b90100000000000000000000000000000000000000000000000000000000000000000000000000000000000000000000000000000000000000000000000000000000000000000000000000000000000000000000000000000000000000000000000000000000000000000000000000000000000000000000000000000000000000000000000000000000000000000000000000000000000000000000000000000000000000000000000000000000000000000000000000000000000000000000000000000000000000000000000000000000000000000000000000000000000000000000000000000000000000000000000000000000000000000000000000000000008080830f4240808000a000000000000000000000000000000000000000000000000000000000000000008800000000000000000ba056e81f171bcc55a6ff8345e692c0f86e5b48e01b996cadc001622fb5e363b4218080a00000000000000000000000000000000000000000000000000000000000000000c0c0c0",
        "blocks": [
            {
                "blockHeader": {
                    "parentHash": "0xaeade09ea713bd1606fc4483b0968b223c030c2ddcc2632d17cd3cd9e27edbaa",
                    "uncleHash": "0x1dcc4de8dec75d7aab85b567b6ccd41ad312451b948a7413f0a142fd40d49347",
                    "coinbase": "0xb94f5374fce5edbc8e2a8697c15331677e6ebf0b",
                    "stateRoot": "0x3828543a9613c29e187d1124fc3b984bc5a1d17365748a876619b44784fb8aa8",
                    "transactionsTrie": "0x20cc28287cbbe18b6e1aa02840c2a41ccd7853a0408d3f4f473854620ad945d7",
                    "receiptTrie": "0xcc6eeac5bfcda205f417f93291d4d29637a670c135504742770b48e1c302470b",
                    "bloom": "0x00000000000000000000000000000000000000000000000000000000000000000000000000000000000000000000000000000000000000000000000000000000000000000000000000000000000000000000000000000000000000000000000000000000000000000000000000000000000000000000000000000000000000000000000000000000000000000000000000000000000000000000000000000000000000000000000000000000000000000000000000000000000000000000000000000000000000000000000000000000000000000000000000000000000000000000000000000000000000000000000000000000000000000000000000000000",
                    "difficulty": "0x00",
                    "number": "0x01",
                    "gasLimit": "0x0f4240",
                    "gasUsed": "0x011bad",
                    "timestamp": "0x03e8",
                    "extraData": "0x00",
                    "mixHash": "0x0000000000000000000000000000000000000000000000000000000000020000",
                    "nonce": "0x0000000000000000",
                    "baseFeePerGas": "0x0a",
                    "withdrawalsRoot": "0x56e81f171bcc55a6ff8345e692c0f86e5b48e01b996cadc001622fb5e363b421",
                    "blobGasUsed": "0x00",
                    "excessBlobGas": "0x00",
                    "parentBeaconBlockRoot": "0x0000000000000000000000000000000000000000000000000000000000000000",
                    "hash": "0xa47eea238bf527a7d1d968d0dd02fed6fdd5e978a3b61203c8621adbf75e6859"
                },
                "transactions": [
                    {
                        "type": "0x00",
                        "chainId": "0x01",
                        "nonce": "0x00",
                        "gasPrice": "0x0a",
                        "gasLimit": "0x027100",
                        "to": "0x30bfe899ef735d5aaca102952664a74b1de046af",
                        "value": "0x0a",
                        "data": "0x",
                        "v": "0x25",
                        "r": "0xa443d6fd8058ea874c7fbf25c97cb687ca13692ccfab135dcd52e418e21c8750",
                        "s": "0x4c24fe426342c2fa5085a149f5548ac88eae3bc0ef8f15a16e065f3e57e3b8bf",
                        "sender": "0xc4a2ca1058df329e5da4755f9921ddaf05cbaa06"
                    }
                ],
                "uncleHeaders": [],
                "withdrawals": [],
                "receipts": [
                    {
                        "transactionHash": "0x06899ec0789b157206fc8362b3d02557be63ea427e64d34bce288899beac8ad2",
                        "type": "0x00",
                        "cumulativeGasUsed": "0x011bad",
                        "bloom": "0x00000000000000000000000000000000000000000000000000000000000000000000000000000000000000000000000000000000000000000000000000000000000000000000000000000000000000000000000000000000000000000000000000000000000000000000000000000000000000000000000000000000000000000000000000000000000000000000000000000000000000000000000000000000000000000000000000000000000000000000000000000000000000000000000000000000000000000000000000000000000000000000000000000000000000000000000000000000000000000000000000000000000000000000000000000000",
                        "logs": [],
                        "status": true,
                        "rlp": "0xf901090183011badb9010000000000000000000000000000000000000000000000000000000000000000000000000000000000000000000000000000000000000000000000000000000000000000000000000000000000000000000000000000000000000000000000000000000000000000000000000000000000000000000000000000000000000000000000000000000000000000000000000000000000000000000000000000000000000000000000000000000000000000000000000000000000000000000000000000000000000000000000000000000000000000000000000000000000000000000000000000000000000000000000000000000000000000000000000000000000c0"
                    }
                ],
                "rlp": "0xf902a3f9023aa0aeade09ea713bd1606fc4483b0968b223c030c2ddcc2632d17cd3cd9e27edbaaa01dcc4de8dec75d7aab85b567b6ccd41ad312451b948a7413f0a142fd40d4934794b94f5374fce5edbc8e2a8697c15331677e6ebf0ba03828543a9613c29e187d1124fc3b984bc5a1d17365748a876619b44784fb8aa8a020cc28287cbbe18b6e1aa02840c2a41ccd7853a0408d3f4f473854620ad945d7a0cc6eeac5bfcda205f417f93291d4d29637a670c135504742770b48e1c302470bb90100000000000000000000000000000000000000000000000000000000000000000000000000000000000000000000000000000000000000000000000000000000000000000000000000000000000000000000000000000000000000000000000000000000000000000000000000000000000000000000000000000000000000000000000000000000000000000000000000000000000000000000000000000000000000000000000000000000000000000000000000000000000000000000000000000000000000000000000000000000000000000000000000000000000000000000000000000000000000000000000000000000000000000000000000000000008001830f424083011bad8203e800a000000000000000000000000000000000000000000000000000000000000200008800000000000000000aa056e81f171bcc55a6ff8345e692c0f86e5b48e01b996cadc001622fb5e363b4218080a00000000000000000000000000000000000000000000000000000000000000000f862f860800a830271009430bfe899ef735d5aaca102952664a74b1de046af0a8025a0a443d6fd8058ea874c7fbf25c97cb687ca13692ccfab135dcd52e418e21c8750a04c24fe426342c2fa5085a149f5548ac88eae3bc0ef8f15a16e065f3e57e3b8bfc0c0",
                "blocknumber": "1"
            }
        ],
        "sealEngine": "NoProof",
        "_info": {
            "hash": "0x993abef664d3b7d49f29a192806aba216affb686bba7a414d0266ce12827255f",
            "fixture-format": "blockchain_test",
            "comment": "`execution-specs` generated test",
            "filling-transition-tool": "2.19.0",
            "description": "Test_internal_call_store_clears_oog.",
            "url": "https://github.com/ethereum/execution-specs/blob/tests-bal@v5.7.0/tests/ported_static/stTransactionTest/test_internal_call_store_clears_oog.py#L25",
            "metadata": {
                "opcode_count": {}
            }
        }
    }
}