{
    "tests/ported_static/stTransactionTest/test_internal_call_store_clears_oog.py::test_internal_call_store_clears_oog[fork_Cancun-blockchain_test_from_state_test]": {
        "network": "Cancun",
        "genesisBlockHeader": {
            "parentHash": "0x0000000000000000000000000000000000000000000000000000000000000000",
            "uncleHash": "0x1dcc4de8dec75d7aab85b567b6ccd41ad312451b948a7413f0a142fd40d49347",
            "coinbase": "0x0000000000000000000000000000000000000000",
            "stateRoot": "0x6e0344222b33903ed738889bec1df5ed141d1d347bc65485ad800fd1181abced",
            "transactionsTrie": "0x56e81f171bcc55a6ff8345e692c0f86e5b48e01b996cadc001622fb5e363b421",
            "receiptTrie": "0x56e81f171bcc55a6ff8345e692c0f86e5b48e01b996cadc001622fb5e363b421",
            "bloom": "0x00000000000000000000000000000000000000000000000000000000000000000000000000000000000000000000000000000000000000000000000000000000000000000000000000000000000000000000000000000000000000000000000000000000000000000000000000000000000000000000000000000000000000000000000000000000000000000000000000000000000000000000000000000000000000000000000000000000000000000000000000000000000000000000000000000000000000000000000000000000000000000000000000000000000000000000000000000000000000000000000000000000000000000000000000000000",
            "difficulty": "0x00",
            "number": "0x00",
            "gasLimit": "0x0f4240",
            "gasUsed": "0x00",
            "timestamp": "0x00",
            "extraData": "0x00",
            "mixHash": "0x0000000000000000000000000000000000000000000000000000000000000000",
            "nonce": "0x0000000000000000",
            "baseFeePerGas": "0x0b",
            "withdrawalsRoot": "0x56e81f171bcc55a6ff8345e692c0f86e5b48e01b996cadc001622fb5e363b421",
            "blobGasUsed": "0x00",
            "excessBlobGas": "0x00",
            "parentBeaconBlockRoot": "0x0000000000000000000000000000000000000000000000000000000000000000",
            "hash": "0x20b7a04a394e05a1c72cbd6f3d8a4ea529512da9c1209a0ef0674bdc3f7217f4"
        },
        "pre": {
            "0x000f3df6d732807ef1319fb7b8bb8522d0beac02": {
                "nonce": "0x01",
                "balance": "0x00",
                "code": "0x3373fffffffffffffffffffffffffffffffffffffffe14604d57602036146024575f5ffd5b5f35801560495762001fff810690815414603c575f5ffd5b62001fff01545f5260205ff35b5f5ffd5b62001fff42064281555f359062001fff015500",
                "storage": {}
            },
            "0x60478971839c84963db1986c096a4f416ff31f42": {
                "nonce": "0x00",
                "balance": "0x3b9aca00",
                "code": "0x",
                "storage": {}
            },
            "0x2ead99225a8a6a579fecdaa6a50e93f1bb478124": {
                "nonce": "0x00",
                "balance": "0x00",
                "code": "0x600060005560006001556000600255600060035560006004556000600555600060065560006007556000600855600060095500",
                "storage": {
                    "0x00": "0x0c",
                    "0x01": "0x0c",
                    "0x02": "0x0c",
                    "0x03": "0x0c",
                    "0x04": "0x0c",
                    "0x05": "0x0c",
                    "0x06": "0x0c",
                    "0x07": "0x0c",
                    "0x08": "0x0c",
                    "0x09": "0x0c"
                }
            },
            "0x1d22e3f87660f5478b3c29ca8be88fe8bf3d0b6e": {
                "nonce": "0x00",
                "balance": "0x0a",
                "code": "0x60006000600060006001732ead99225a8a6a579fecdaa6a50e93f1bb478124619c40f100",
                "storage": {}
            }
        },
        "postState": {
            "0x000f3df6d732807ef1319fb7b8bb8522d0beac02": {
                "nonce": "0x01",
                "balance": "0x00",
                "code": "0x3373fffffffffffffffffffffffffffffffffffffffe14604d57602036146024575f5ffd5b5f35801560495762001fff810690815414603c575f5ffd5b62001fff01545f5260205ff35b5f5ffd5b62001fff42064281555f359062001fff015500",
                "storage": {
                    "0x03e8": "0x03e8"
                }
            },
            "0x60478971839c84963db1986c096a4f416ff31f42": {
                "nonce": "0x01",
                "balance": "0x3b8fb534",
                "code": "0x",
                "storage": {}
            },
            "0x2ead99225a8a6a579fecdaa6a50e93f1bb478124": {
                "nonce": "0x00",
                "balance": "0x00",
                "code": "0x600060005560006001556000600255600060035560006004556000600555600060065560006007556000600855600060095500",
                "storage": {
                    "0x00": "0x0c",
                    "0x01": "0x0c",
                    "0x02": "0x0c",
                    "0x03": "0x0c",
                    "0x04": "0x0c",
                    "0x05": "0x0c",
                    "0x06": "0x0c",
                    "0x07": "0x0c",
                    "0x08": "0x0c",
                    "0x09": "0x0c"
                }
            },
            "0x1d22e3f87660f5478b3c29ca8be88fe8bf3d0b6e": {
                "nonce": "0x00",
                "balance": "0x14",
                "code": "0x60006000600060006001732ead99225a8a6a579fecdaa6a50e93f1bb478124619c40f100",
                "storage": {}
            }
        },
        "lastblockhash": "0x094727b3324665bf8cba754b4263534ce4df1bd6e564794b28b2ad6138018dcf",
        "config": {
            "network": "Cancun",
            "chainid": "0x01",
            "blobSchedule": {
                "Cancun": {
                    "target": "0x03",
                    "max": "0x06",
                    "baseFeeUpdateFraction": "0x32f0ed"
                }
            }
        },
        "genesisRLP": "0xf9023bf90235a00000000000000000000000000000000000000000000000000000000000000000a01dcc4de8dec75d7aab85b567b6ccd41ad312451b948a7413f0a142fd40d49347940000000000000000000000000000000000000000a06e0344222b33903ed738889bec1df5ed141d1d347bc65485ad800fd1181abceda056e81f171bcc55a6ff8345e692c0f86e5b48e01b996cadc001622fb5e363b421a056e81f171bcc55a6ff8345e692c0f86e5b48e01b996cadc001622fb5e363b421b90100000000000000000000000000000000000000000000000000000000000000000000000000000000000000000000000000000000000000000000000000000000000000000000000000000000000000000000000000000000000000000000000000000000000000000000000000000000000000000000000000000000000000000000000000000000000000000000000000000000000000000000000000000000000000000000000000000000000000000000000000000000000000000000000000000000000000000000000000000000000000000000000000000000000000000000000000000000000000000000000000000000000000000000000000000000008080830f4240808000a000000000000000000000000000000000000000000000000000000000000000008800000000000000000ba056e81f171bcc55a6ff8345e692c0f86e5b48e01b996cadc001622fb5e363b4218080a00000000000000000000000000000000000000000000000000000000000000000c0c0c0",
        "blocks": [
            {
                "blockHeader": {
                    "parentHash": "0x20b7a04a394e05a1c72cbd6f3d8a4ea529512da9c1209a0ef0674bdc3f7217f4",
                    "uncleHash": "0x1dcc4de8dec75d7aab85b567b6ccd41ad312451b948a7413f0a142fd40d49347",
                    "coinbase": "0xb94f5374fce5edbc8e2a8697c15331677e6ebf0b",
                    "stateRoot": "0xa44339510ce91676d0f945a9407df18782f4d9efae29a215619f415688e518ef",
                    "transactionsTrie": "0x46b24112218e6cbc7516f6940594249f5cae5e2b19ef5beb096f67e290f3b1d2",
                    "receiptTrie": "0xcc6eeac5bfcda205f417f93291d4d29637a670c135504742770b48e1c302470b",
                    "bloom": "0x00000000000000000000000000000000000000000000000000000000000000000000000000000000000000000000000000000000000000000000000000000000000000000000000000000000000000000000000000000000000000000000000000000000000000000000000000000000000000000000000000000000000000000000000000000000000000000000000000000000000000000000000000000000000000000000000000000000000000000000000000000000000000000000000000000000000000000000000000000000000000000000000000000000000000000000000000000000000000000000000000000000000000000000000000000000",
                    "difficulty": "0x00",
                    "number": "0x01",
                    "gasLimit": "0x0f4240",
                    "gasUsed": "0x011bad",
                    "timestamp": "0x03e8",
                    "extraData": "0x00",
                    "mixHash": "0x0000000000000000000000000000000000000000000000000000000000020000",
                    "nonce": "0x0000000000000000",
                    "baseFeePerGas": "0x0a",
                    "withdrawalsRoot": "0x56e81f171bcc55a6ff8345e692c0f86e5b48e01b996cadc001622fb5e363b421",
                    "blobGasUsed": "0x00",
                    "excessBlobGas": "0x00",
                    "parentBeaconBlockRoot": "0x0000000000000000000000000000000000000000000000000000000000000000",
                    "hash": "0x094727b3324665bf8cba754b4263534ce4df1bd6e564794b28b2ad6138018dcf"
                },
                "transactions": [
                    {
                        "type": "0x00",
                        "chainId": "0x01",
                        "nonce": "0x00",
                        "gasPrice": "0x0a",
                        "gasLimit": "0x027100",
                        "to": "0x1d22e3f87660f5478b3c29ca8be88fe8bf3d0b6e",
                        "value": "0x0a",
                        "data": "0x",
                        "v": "0x26",
                        "r": "0x4a0f1af8a387475eff976fdcde7ebc8cd8333e03646a2710546d01e0c9a3a1e3",
                        "s": "0x7c72f96d718ae22e465a02d2f378647e1feaf476d199711be9dc06b593e317cb",
                        "sender": "0x60478971839c84963db1986c096a4f416ff31f42"
                    }
                ],
                "uncleHeaders": [],
                "withdrawals": [],
                "receipts": [
                    {
                        "transactionHash": "0x115cf6d665722eb39f031fb35e3f3f70d4c90fa1b211fe93acda51d948daf042",
                        "type": "0x00",
                        "cumulativeGasUsed": "0x011bad",
                        "bloom": "0x00000000000000000000000000000000000000000000000000000000000000000000000000000000000000000000000000000000000000000000000000000000000000000000000000000000000000000000000000000000000000000000000000000000000000000000000000000000000000000000000000000000000000000000000000000000000000000000000000000000000000000000000000000000000000000000000000000000000000000000000000000000000000000000000000000000000000000000000000000000000000000000000000000000000000000000000000000000000000000000000000000000000000000000000000000000",
                        "logs": [],
                        "status": true,
                        "rlp": "0xf901090183011badb9010000000000000000000000000000000000000000000000000000000000000000000000000000000000000000000000000000000000000000000000000000000000000000000000000000000000000000000000000000000000000000000000000000000000000000000000000000000000000000000000000000000000000000000000000000000000000000000000000000000000000000000000000000000000000000000000000000000000000000000000000000000000000000000000000000000000000000000000000000000000000000000000000000000000000000000000000000000000000000000000000000000000000000000000000000000000c0"
                    }
                ],
                "rlp": "0xf902a3f9023aa020b7a04a394e05a1c72cbd6f3d8a4ea529512da9c1209a0ef0674bdc3f7217f4a01dcc4de8dec75d7aab85b567b6ccd41ad312451b948a7413f0a142fd40d4934794b94f5374fce5edbc8e2a8697c15331677e6ebf0ba0a44339510ce91676d0f945a9407df18782f4d9efae29a215619f415688e518efa046b24112218e6cbc7516f6940594249f5cae5e2b19ef5beb096f67e290f3b1d2a0cc6eeac5bfcda205f417f93291d4d29637a670c135504742770b48e1c302470bb90100000000000000000000000000000000000000000000000000000000000000000000000000000000000000000000000000000000000000000000000000000000000000000000000000000000000000000000000000000000000000000000000000000000000000000000000000000000000000000000000000000000000000000000000000000000000000000000000000000000000000000000000000000000000000000000000000000000000000000000000000000000000000000000000000000000000000000000000000000000000000000000000000000000000000000000000000000000000000000000000000000000000000000000000000000000008001830f424083011bad8203e800a000000000000000000000000000000000000000000000000000000000000200008800000000000000000aa056e81f171bcc55a6ff8345e692c0f86e5b48e01b996cadc001622fb5e363b4218080a00000000000000000000000000000000000000000000000000000000000000000f862f860800a83027100941d22e3f87660f5478b3c29ca8be88fe8bf3d0b6e0a8026a04a0f1af8a387475eff976fdcde7ebc8cd8333e03646a2710546d01e0c9a3a1e3a07c72f96d718ae22e465a02d2f378647e1feaf476d199711be9dc06b593e317cbc0c0",
                "blocknumber": "1"
            }
        ],
        "sealEngine": "NoProof",
        "_info": {
            "hash": "0xb33b298a92b6f87e0fd052da8d488feae9e332d8cfafd1a02dd323410a5e4a6d",
            "fixture-format": "blockchain_test",
            "comment": "`execution-specs` generated test",
            "filling-transition-tool": "2.19.0",
            "description": "Test_internal_call_store_clears_oog.",
            "url": "https://github.com/ethereum/execution-specs/blob/tests-snobal-devnet-5@v8037.0.0/tests/ported_static/stTransactionTest/test_internal_call_store_clears_oog.py#L24",
            "metadata": {
                "opcode_count": {}
            }
        }
    }
}