{
    "tests/homestead/identity_precompile/test_identity.py::test_identity_return_overwrite[fork_Istanbul-call_opcode_CALL-blockchain_test_from_state_test]": {
        "network": "Istanbul",
        "genesisBlockHeader": {
            "parentHash": "0x0000000000000000000000000000000000000000000000000000000000000000",
            "uncleHash": "0x1dcc4de8dec75d7aab85b567b6ccd41ad312451b948a7413f0a142fd40d49347",
            "coinbase": "0x0000000000000000000000000000000000000000",
            "stateRoot": "0xa55ba51d9647e5ab3340c91d348529c9f3821a7aaad27a265512e63a8f610337",
            "transactionsTrie": "0x56e81f171bcc55a6ff8345e692c0f86e5b48e01b996cadc001622fb5e363b421",
            "receiptTrie": "0x56e81f171bcc55a6ff8345e692c0f86e5b48e01b996cadc001622fb5e363b421",
            "bloom": "0x00000000000000000000000000000000000000000000000000000000000000000000000000000000000000000000000000000000000000000000000000000000000000000000000000000000000000000000000000000000000000000000000000000000000000000000000000000000000000000000000000000000000000000000000000000000000000000000000000000000000000000000000000000000000000000000000000000000000000000000000000000000000000000000000000000000000000000000000000000000000000000000000000000000000000000000000000000000000000000000000000000000000000000000000000000000",
            "difficulty": "0x020000",
            "number": "0x00",
            "gasLimit": "0x07270e00",
            "gasUsed": "0x00",
            "timestamp": "0x00",
            "extraData": "0x00",
            "mixHash": "0x0000000000000000000000000000000000000000000000000000000000000000",
            "nonce": "0x0000000000000000",
            "hash": "0x55ec05546431eae17abf7e4ea49fb2dd4c70a6b1c2a05c6ddf9c296705e3c4ec"
        },
        "pre": {
            "0x8f38ce870d0e867a05d1bc903da57c12038de136": {
                "nonce": "0x01",
                "balance": "0x00",
                "code": "0x60016000536002600153600360025360046003536004600160046000600060045af13d600060003e59600020600155",
                "storage": {}
            },
            "0x1ad9bc24818784172ff393bb6f89f094d4d2ca29": {
                "nonce": "0x00",
                "balance": "0x3635c9adc5dea00000",
                "code": "0x",
                "storage": {}
            }
        },
        "postState": {
            "0x8f38ce870d0e867a05d1bc903da57c12038de136": {
                "nonce": "0x01",
                "balance": "0x00",
                "code": "0x60016000536002600153600360025360046003536004600160046000600060045af13d600060003e59600020600155",
                "storage": {
                    "0x01": "0x52d7963d9a152455cd39d5b7efa696eb4d4fac938d51cf5d779e3792944aff7b"
                }
            },
            "0x1ad9bc24818784172ff393bb6f89f094d4d2ca29": {
                "nonce": "0x01",
                "balance": "0x3635c9adc5de999dd2",
                "code": "0x",
                "storage": {}
            },
            "0x2adc25665018aa1fe0e6bc666dac8fc2697ff9ba": {
                "nonce": "0x00",
                "balance": "0x1bc16d674ece622e",
                "code": "0x",
                "storage": {}
            }
        },
        "lastblockhash": "0xe5c4c731c2cdaca9c957a2d9454013e3a43a5c6432e506f9f61ae9dc1c329e65",
        "config": {
            "network": "Istanbul",
            "chainid": "0x01"
        },
        "genesisRLP": "0xf901f9f901f4a00000000000000000000000000000000000000000000000000000000000000000a01dcc4de8dec75d7aab85b567b6ccd41ad312451b948a7413f0a142fd40d49347940000000000000000000000000000000000000000a0a55ba51d9647e5ab3340c91d348529c9f3821a7aaad27a265512e63a8f610337a056e81f171bcc55a6ff8345e692c0f86e5b48e01b996cadc001622fb5e363b421a056e81f171bcc55a6ff8345e692c0f86e5b48e01b996cadc001622fb5e363b421b901000000000000000000000000000000000000000000000000000000000000000000000000000000000000000000000000000000000000000000000000000000000000000000000000000000000000000000000000000000000000000000000000000000000000000000000000000000000000000000000000000000000000000000000000000000000000000000000000000000000000000000000000000000000000000000000000000000000000000000000000000000000000000000000000000000000000000000000000000000000000000000000000000000000000000000000000000000000000000000000000000000000000000000000000000000000083020000808407270e00808000a00000000000000000000000000000000000000000000000000000000000000000880000000000000000c0c0",
        "blocks": [
            {
                "blockHeader": {
                    "parentHash": "0x55ec05546431eae17abf7e4ea49fb2dd4c70a6b1c2a05c6ddf9c296705e3c4ec",
                    "uncleHash": "0x1dcc4de8dec75d7aab85b567b6ccd41ad312451b948a7413f0a142fd40d49347",
                    "coinbase": "0x2adc25665018aa1fe0e6bc666dac8fc2697ff9ba",
                    "stateRoot": "0x7b6d143098a4e702a3a9837e992fcf42c356977cd97fb7f7a309553689f0277e",
                    "transactionsTrie": "0xbad8ac489bceb7ff7f6ad429e4a112acff2c2d45b3e06ba1d874c20d3721b900",
                    "receiptTrie": "0x2184cf2262326fb9842e38685014bf41398d983f9a45e2a2cee3719c6aeb1ba6",
                    "bloom": "0x00000000000000000000000000000000000000000000000000000000000000000000000000000000000000000000000000000000000000000000000000000000000000000000000000000000000000000000000000000000000000000000000000000000000000000000000000000000000000000000000000000000000000000000000000000000000000000000000000000000000000000000000000000000000000000000000000000000000000000000000000000000000000000000000000000000000000000000000000000000000000000000000000000000000000000000000000000000000000000000000000000000000000000000000000000000",
                    "difficulty": "0x020000",
                    "number": "0x01",
                    "gasLimit": "0x07270e00",
                    "gasUsed": "0xa36b",
                    "timestamp": "0x03e8",
                    "extraData": "0x00",
                    "mixHash": "0x0000000000000000000000000000000000000000000000000000000000000000",
                    "nonce": "0x0000000000000000",
                    "hash": "0xe5c4c731c2cdaca9c957a2d9454013e3a43a5c6432e506f9f61ae9dc1c329e65"
                },
                "transactions": [
                    {
                        "type": "0x00",
                        "chainId": "0x01",
                        "nonce": "0x00",
                        "gasPrice": "0x0a",
                        "gasLimit": "0x0186a0",
                        "to": "0x8f38ce870d0e867a05d1bc903da57c12038de136",
                        "value": "0x00",
                        "data": "0x",
                        "v": "0x26",
                        "r": "0x7d7ebd56616af083c8be70615d33cf23be1e71b357154d364786fbdf20136a30",
                        "s": "0x509adb96bf0fd4e3de3e2f5ded07569ea7e053d799963953cc18f9593e4016c6",
                        "sender": "0x1ad9bc24818784172ff393bb6f89f094d4d2ca29"
                    }
                ],
                "uncleHeaders": [],
                "receipts": [
                    {
                        "transactionHash": "0x979323c08baf656a3236672072d8dda0a7b38f4f249b9534f2d81dacc0fce780",
                        "type": "0x00",
                        "cumulativeGasUsed": "0xa36b",
                        "bloom": "0x00000000000000000000000000000000000000000000000000000000000000000000000000000000000000000000000000000000000000000000000000000000000000000000000000000000000000000000000000000000000000000000000000000000000000000000000000000000000000000000000000000000000000000000000000000000000000000000000000000000000000000000000000000000000000000000000000000000000000000000000000000000000000000000000000000000000000000000000000000000000000000000000000000000000000000000000000000000000000000000000000000000000000000000000000000000",
                        "logs": [],
                        "status": true,
                        "rlp": "0xf901080182a36bb9010000000000000000000000000000000000000000000000000000000000000000000000000000000000000000000000000000000000000000000000000000000000000000000000000000000000000000000000000000000000000000000000000000000000000000000000000000000000000000000000000000000000000000000000000000000000000000000000000000000000000000000000000000000000000000000000000000000000000000000000000000000000000000000000000000000000000000000000000000000000000000000000000000000000000000000000000000000000000000000000000000000000000000000000000000000000c0"
                    }
                ],
                "rlp": "0xf90260f901f8a055ec05546431eae17abf7e4ea49fb2dd4c70a6b1c2a05c6ddf9c296705e3c4eca01dcc4de8dec75d7aab85b567b6ccd41ad312451b948a7413f0a142fd40d49347942adc25665018aa1fe0e6bc666dac8fc2697ff9baa07b6d143098a4e702a3a9837e992fcf42c356977cd97fb7f7a309553689f0277ea0bad8ac489bceb7ff7f6ad429e4a112acff2c2d45b3e06ba1d874c20d3721b900a02184cf2262326fb9842e38685014bf41398d983f9a45e2a2cee3719c6aeb1ba6b901000000000000000000000000000000000000000000000000000000000000000000000000000000000000000000000000000000000000000000000000000000000000000000000000000000000000000000000000000000000000000000000000000000000000000000000000000000000000000000000000000000000000000000000000000000000000000000000000000000000000000000000000000000000000000000000000000000000000000000000000000000000000000000000000000000000000000000000000000000000000000000000000000000000000000000000000000000000000000000000000000000000000000000000000000000000083020000018407270e0082a36b8203e800a00000000000000000000000000000000000000000000000000000000000000000880000000000000000f862f860800a830186a0948f38ce870d0e867a05d1bc903da57c12038de136808026a07d7ebd56616af083c8be70615d33cf23be1e71b357154d364786fbdf20136a30a0509adb96bf0fd4e3de3e2f5ded07569ea7e053d799963953cc18f9593e4016c6c0",
                "blocknumber": "1"
            }
        ],
        "sealEngine": "NoProof",
        "_info": {
            "hash": "0x504549fb89e65584d5561458af7d6d1afccd53cb5996098ace4778b39291a9d2",
            "fixture-format": "blockchain_test",
            "comment": "`execution-specs` generated test",
            "filling-transition-tool": "2.19.0",
            "description": "Test the return data of the identity precompile overwriting its input.",
            "url": "https://github.com/ethereum/execution-specs/blob/tests-bal@v5.3.0/tests/homestead/identity_precompile/test_identity.py#L15",
            "opcode_count": {}
        }
    },
    "tests/homestead/identity_precompile/test_identity.py::test_identity_return_overwrite[fork_Istanbul-call_opcode_CALLCODE-blockchain_test_from_state_test]": {
        "network": "Istanbul",
        "genesisBlockHeader": {
            "parentHash": "0x0000000000000000000000000000000000000000000000000000000000000000",
            "uncleHash": "0x1dcc4de8dec75d7aab85b567b6ccd41ad312451b948a7413f0a142fd40d49347",
            "coinbase": "0x0000000000000000000000000000000000000000",
            "stateRoot": "0xd00797cdcaf4d5e59630f57f6b275cc9b6a85a1631163a8555a230f119bfbabc",
            "transactionsTrie": "0x56e81f171bcc55a6ff8345e692c0f86e5b48e01b996cadc001622fb5e363b421",
            "receiptTrie": "0x56e81f171bcc55a6ff8345e692c0f86e5b48e01b996cadc001622fb5e363b421",
            "bloom": "0x00000000000000000000000000000000000000000000000000000000000000000000000000000000000000000000000000000000000000000000000000000000000000000000000000000000000000000000000000000000000000000000000000000000000000000000000000000000000000000000000000000000000000000000000000000000000000000000000000000000000000000000000000000000000000000000000000000000000000000000000000000000000000000000000000000000000000000000000000000000000000000000000000000000000000000000000000000000000000000000000000000000000000000000000000000000",
            "difficulty": "0x020000",
            "number": "0x00",
            "gasLimit": "0x07270e00",
            "gasUsed": "0x00",
            "timestamp": "0x00",
            "extraData": "0x00",
            "mixHash": "0x0000000000000000000000000000000000000000000000000000000000000000",
            "nonce": "0x0000000000000000",
            "hash": "0x89ab3ad70a0c6278912bd386a78354d96e79cb063c9243737386c5e6c8c38c0d"
        },
        "pre": {
            "0x15294bddb3e2b8af5fe463e98b934420ef76c27e": {
                "nonce": "0x01",
                "balance": "0x00",
                "code": "0x60016000536002600153600360025360046003536004600160046000600060045af23d600060003e59600020600155",
                "storage": {}
            },
            "0x1ad9bc24818784172ff393bb6f89f094d4d2ca29": {
                "nonce": "0x00",
                "balance": "0x3635c9adc5dea00000",
                "code": "0x",
                "storage": {}
            }
        },
        "postState": {
            "0x15294bddb3e2b8af5fe463e98b934420ef76c27e": {
                "nonce": "0x01",
                "balance": "0x00",
                "code": "0x60016000536002600153600360025360046003536004600160046000600060045af23d600060003e59600020600155",
                "storage": {
                    "0x01": "0x52d7963d9a152455cd39d5b7efa696eb4d4fac938d51cf5d779e3792944aff7b"
                }
            },
            "0x1ad9bc24818784172ff393bb6f89f094d4d2ca29": {
                "nonce": "0x01",
                "balance": "0x3635c9adc5de999dd2",
                "code": "0x",
                "storage": {}
            },
            "0x2adc25665018aa1fe0e6bc666dac8fc2697ff9ba": {
                "nonce": "0x00",
                "balance": "0x1bc16d674ece622e",
                "code": "0x",
                "storage": {}
            }
        },
        "lastblockhash": "0xce4bbbe2008bf5657a94050c0c77678fd56ae875b61274eee34581f029d5b447",
        "config": {
            "network": "Istanbul",
            "chainid": "0x01"
        },
        "genesisRLP": "0xf901f9f901f4a00000000000000000000000000000000000000000000000000000000000000000a01dcc4de8dec75d7aab85b567b6ccd41ad312451b948a7413f0a142fd40d49347940000000000000000000000000000000000000000a0d00797cdcaf4d5e59630f57f6b275cc9b6a85a1631163a8555a230f119bfbabca056e81f171bcc55a6ff8345e692c0f86e5b48e01b996cadc001622fb5e363b421a056e81f171bcc55a6ff8345e692c0f86e5b48e01b996cadc001622fb5e363b421b901000000000000000000000000000000000000000000000000000000000000000000000000000000000000000000000000000000000000000000000000000000000000000000000000000000000000000000000000000000000000000000000000000000000000000000000000000000000000000000000000000000000000000000000000000000000000000000000000000000000000000000000000000000000000000000000000000000000000000000000000000000000000000000000000000000000000000000000000000000000000000000000000000000000000000000000000000000000000000000000000000000000000000000000000000000000083020000808407270e00808000a00000000000000000000000000000000000000000000000000000000000000000880000000000000000c0c0",
        "blocks": [
            {
                "blockHeader": {
                    "parentHash": "0x89ab3ad70a0c6278912bd386a78354d96e79cb063c9243737386c5e6c8c38c0d",
                    "uncleHash": "0x1dcc4de8dec75d7aab85b567b6ccd41ad312451b948a7413f0a142fd40d49347",
                    "coinbase": "0x2adc25665018aa1fe0e6bc666dac8fc2697ff9ba",
                    "stateRoot": "0xf0760fdf454a9840740059fe5f27226e814e11dda4286670cc8aa22c45c50ccb",
                    "transactionsTrie": "0x857520ce814044670549e796a3260432c418ea75e766014c87a565e8f568d0e3",
                    "receiptTrie": "0x2184cf2262326fb9842e38685014bf41398d983f9a45e2a2cee3719c6aeb1ba6",
                    "bloom": "0x00000000000000000000000000000000000000000000000000000000000000000000000000000000000000000000000000000000000000000000000000000000000000000000000000000000000000000000000000000000000000000000000000000000000000000000000000000000000000000000000000000000000000000000000000000000000000000000000000000000000000000000000000000000000000000000000000000000000000000000000000000000000000000000000000000000000000000000000000000000000000000000000000000000000000000000000000000000000000000000000000000000000000000000000000000000",
                    "difficulty": "0x020000",
                    "number": "0x01",
                    "gasLimit": "0x07270e00",
                    "gasUsed": "0xa36b",
                    "timestamp": "0x03e8",
                    "extraData": "0x00",
                    "mixHash": "0x0000000000000000000000000000000000000000000000000000000000000000",
                    "nonce": "0x0000000000000000",
                    "hash": "0xce4bbbe2008bf5657a94050c0c77678fd56ae875b61274eee34581f029d5b447"
                },
                "transactions": [
                    {
                        "type": "0x00",
                        "chainId": "0x01",
                        "nonce": "0x00",
                        "gasPrice": "0x0a",
                        "gasLimit": "0x0186a0",
                        "to": "0x15294bddb3e2b8af5fe463e98b934420ef76c27e",
                        "value": "0x00",
                        "data": "0x",
                        "v": "0x25",
                        "r": "0x925417dcab4ee58a4787244ad3b7f89bcd7310a07cd261ed7e998dfa511bd429",
                        "s": "0x360cd1a1eef3edefdfe3187f407b58f5fa480a448f0b790a871e4a0f87b86572",
                        "sender": "0x1ad9bc24818784172ff393bb6f89f094d4d2ca29"
                    }
                ],
                "uncleHeaders": [],
                "receipts": [
                    {
                        "transactionHash": "0xede6930ba961c5efd6c785ac5b12c432ac259a297b01d2436f4219bae0aae96f",
                        "type": "0x00",
                        "cumulativeGasUsed": "0xa36b",
                        "bloom": "0x00000000000000000000000000000000000000000000000000000000000000000000000000000000000000000000000000000000000000000000000000000000000000000000000000000000000000000000000000000000000000000000000000000000000000000000000000000000000000000000000000000000000000000000000000000000000000000000000000000000000000000000000000000000000000000000000000000000000000000000000000000000000000000000000000000000000000000000000000000000000000000000000000000000000000000000000000000000000000000000000000000000000000000000000000000000",
                        "logs": [],
                        "status": true,
                        "rlp": "0xf901080182a36bb9010000000000000000000000000000000000000000000000000000000000000000000000000000000000000000000000000000000000000000000000000000000000000000000000000000000000000000000000000000000000000000000000000000000000000000000000000000000000000000000000000000000000000000000000000000000000000000000000000000000000000000000000000000000000000000000000000000000000000000000000000000000000000000000000000000000000000000000000000000000000000000000000000000000000000000000000000000000000000000000000000000000000000000000000000000000000c0"
                    }
                ],
                "rlp": "0xf90260f901f8a089ab3ad70a0c6278912bd386a78354d96e79cb063c9243737386c5e6c8c38c0da01dcc4de8dec75d7aab85b567b6ccd41ad312451b948a7413f0a142fd40d49347942adc25665018aa1fe0e6bc666dac8fc2697ff9baa0f0760fdf454a9840740059fe5f27226e814e11dda4286670cc8aa22c45c50ccba0857520ce814044670549e796a3260432c418ea75e766014c87a565e8f568d0e3a02184cf2262326fb9842e38685014bf41398d983f9a45e2a2cee3719c6aeb1ba6b901000000000000000000000000000000000000000000000000000000000000000000000000000000000000000000000000000000000000000000000000000000000000000000000000000000000000000000000000000000000000000000000000000000000000000000000000000000000000000000000000000000000000000000000000000000000000000000000000000000000000000000000000000000000000000000000000000000000000000000000000000000000000000000000000000000000000000000000000000000000000000000000000000000000000000000000000000000000000000000000000000000000000000000000000000000000083020000018407270e0082a36b8203e800a00000000000000000000000000000000000000000000000000000000000000000880000000000000000f862f860800a830186a09415294bddb3e2b8af5fe463e98b934420ef76c27e808025a0925417dcab4ee58a4787244ad3b7f89bcd7310a07cd261ed7e998dfa511bd429a0360cd1a1eef3edefdfe3187f407b58f5fa480a448f0b790a871e4a0f87b86572c0",
                "blocknumber": "1"
            }
        ],
        "sealEngine": "NoProof",
        "_info": {
            "hash": "0x368f5ac7bd789227410f083aaf2727f0f87c6ab914539e70b10b3409a2dbe18a",
            "fixture-format": "blockchain_test",
            "comment": "`execution-specs` generated test",
            "filling-transition-tool": "2.19.0",
            "description": "Test the return data of the identity precompile overwriting its input.",
            "url": "https://github.com/ethereum/execution-specs/blob/tests-bal@v5.3.0/tests/homestead/identity_precompile/test_identity.py#L15",
            "opcode_count": {}
        }
    },
    "tests/homestead/identity_precompile/test_identity.py::test_identity_return_overwrite[fork_Istanbul-call_opcode_DELEGATECALL-blockchain_test_from_state_test]": {
        "network": "Istanbul",
        "genesisBlockHeader": {
            "parentHash": "0x0000000000000000000000000000000000000000000000000000000000000000",
            "uncleHash": "0x1dcc4de8dec75d7aab85b567b6ccd41ad312451b948a7413f0a142fd40d49347",
            "coinbase": "0x0000000000000000000000000000000000000000",
            "stateRoot": "0xeb0bd33780c449d651dcd65cf9ecc51dab8d509968cf171b01030d06f21d6162",
            "transactionsTrie": "0x56e81f171bcc55a6ff8345e692c0f86e5b48e01b996cadc001622fb5e363b421",
            "receiptTrie": "0x56e81f171bcc55a6ff8345e692c0f86e5b48e01b996cadc001622fb5e363b421",
            "bloom": "0x00000000000000000000000000000000000000000000000000000000000000000000000000000000000000000000000000000000000000000000000000000000000000000000000000000000000000000000000000000000000000000000000000000000000000000000000000000000000000000000000000000000000000000000000000000000000000000000000000000000000000000000000000000000000000000000000000000000000000000000000000000000000000000000000000000000000000000000000000000000000000000000000000000000000000000000000000000000000000000000000000000000000000000000000000000000",
            "difficulty": "0x020000",
            "number": "0x00",
            "gasLimit": "0x07270e00",
            "gasUsed": "0x00",
            "timestamp": "0x00",
            "extraData": "0x00",
            "mixHash": "0x0000000000000000000000000000000000000000000000000000000000000000",
            "nonce": "0x0000000000000000",
            "hash": "0xaef3e39e3ddbf56afc69afcde7ab112e0da17972390584e869b25c02c0f0bd8e"
        },
        "pre": {
            "0x638810d6c4f925b12ca82ee79e6acaeb2ef6d5e5": {
                "nonce": "0x01",
                "balance": "0x00",
                "code": "0x6001600053600260015360036002536004600353600460016004600060045af43d600060003e59600020600155",
                "storage": {}
            },
            "0x1ad9bc24818784172ff393bb6f89f094d4d2ca29": {
                "nonce": "0x00",
                "balance": "0x3635c9adc5dea00000",
                "code": "0x",
                "storage": {}
            }
        },
        "postState": {
            "0x638810d6c4f925b12ca82ee79e6acaeb2ef6d5e5": {
                "nonce": "0x01",
                "balance": "0x00",
                "code": "0x6001600053600260015360036002536004600353600460016004600060045af43d600060003e59600020600155",
                "storage": {
                    "0x01": "0x52d7963d9a152455cd39d5b7efa696eb4d4fac938d51cf5d779e3792944aff7b"
                }
            },
            "0x1ad9bc24818784172ff393bb6f89f094d4d2ca29": {
                "nonce": "0x01",
                "balance": "0x3635c9adc5de999df0",
                "code": "0x",
                "storage": {}
            },
            "0x2adc25665018aa1fe0e6bc666dac8fc2697ff9ba": {
                "nonce": "0x00",
                "balance": "0x1bc16d674ece6210",
                "code": "0x",
                "storage": {}
            }
        },
        "lastblockhash": "0x641368db34505b55ae34792e8141c788cc2016569bd9cde0c8ae682882d392bf",
        "config": {
            "network": "Istanbul",
            "chainid": "0x01"
        },
        "genesisRLP": "0xf901f9f901f4a00000000000000000000000000000000000000000000000000000000000000000a01dcc4de8dec75d7aab85b567b6ccd41ad312451b948a7413f0a142fd40d49347940000000000000000000000000000000000000000a0eb0bd33780c449d651dcd65cf9ecc51dab8d509968cf171b01030d06f21d6162a056e81f171bcc55a6ff8345e692c0f86e5b48e01b996cadc001622fb5e363b421a056e81f171bcc55a6ff8345e692c0f86e5b48e01b996cadc001622fb5e363b421b901000000000000000000000000000000000000000000000000000000000000000000000000000000000000000000000000000000000000000000000000000000000000000000000000000000000000000000000000000000000000000000000000000000000000000000000000000000000000000000000000000000000000000000000000000000000000000000000000000000000000000000000000000000000000000000000000000000000000000000000000000000000000000000000000000000000000000000000000000000000000000000000000000000000000000000000000000000000000000000000000000000000000000000000000000000000083020000808407270e00808000a00000000000000000000000000000000000000000000000000000000000000000880000000000000000c0c0",
        "blocks": [
            {
                "blockHeader": {
                    "parentHash": "0xaef3e39e3ddbf56afc69afcde7ab112e0da17972390584e869b25c02c0f0bd8e",
                    "uncleHash": "0x1dcc4de8dec75d7aab85b567b6ccd41ad312451b948a7413f0a142fd40d49347",
                    "coinbase": "0x2adc25665018aa1fe0e6bc666dac8fc2697ff9ba",
                    "stateRoot": "0xa5e1b6efbac3f6d00a42e5ae46af3f5a1f357f2880963591ec91ea1d883eb64e",
                    "transactionsTrie": "0xb210251d90fb772719dbf185586441161ffb836fb7af7c1f328551b7612567f8",
                    "receiptTrie": "0xa12b6f8f45f8cc1c14e4a1caceb7fbb3892b562d7ba2449b265c734a942320cb",
                    "bloom": "0x00000000000000000000000000000000000000000000000000000000000000000000000000000000000000000000000000000000000000000000000000000000000000000000000000000000000000000000000000000000000000000000000000000000000000000000000000000000000000000000000000000000000000000000000000000000000000000000000000000000000000000000000000000000000000000000000000000000000000000000000000000000000000000000000000000000000000000000000000000000000000000000000000000000000000000000000000000000000000000000000000000000000000000000000000000000",
                    "difficulty": "0x020000",
                    "number": "0x01",
                    "gasLimit": "0x07270e00",
                    "gasUsed": "0xa368",
                    "timestamp": "0x03e8",
                    "extraData": "0x00",
                    "mixHash": "0x0000000000000000000000000000000000000000000000000000000000000000",
                    "nonce": "0x0000000000000000",
                    "hash": "0x641368db34505b55ae34792e8141c788cc2016569bd9cde0c8ae682882d392bf"
                },
                "transactions": [
                    {
                        "type": "0x00",
                        "chainId": "0x01",
                        "nonce": "0x00",
                        "gasPrice": "0x0a",
                        "gasLimit": "0x0186a0",
                        "to": "0x638810d6c4f925b12ca82ee79e6acaeb2ef6d5e5",
                        "value": "0x00",
                        "data": "0x",
                        "v": "0x26",
                        "r": "0xec3dbc3a662db1a5137ed3e75ac03a5e2ec6cb839c52e63179cd097ad30d1800",
                        "s": "0x1e4d274c91056daa5d8e3e906358eef5adaca7d0519ff5d97787b45fceb928f1",
                        "sender": "0x1ad9bc24818784172ff393bb6f89f094d4d2ca29"
                    }
                ],
                "uncleHeaders": [],
                "receipts": [
                    {
                        "transactionHash": "0x85089d736175738018a4c50e6e149c98a5d65534a0447805623b1150246e2787",
                        "type": "0x00",
                        "cumulativeGasUsed": "0xa368",
                        "bloom": "0x00000000000000000000000000000000000000000000000000000000000000000000000000000000000000000000000000000000000000000000000000000000000000000000000000000000000000000000000000000000000000000000000000000000000000000000000000000000000000000000000000000000000000000000000000000000000000000000000000000000000000000000000000000000000000000000000000000000000000000000000000000000000000000000000000000000000000000000000000000000000000000000000000000000000000000000000000000000000000000000000000000000000000000000000000000000",
                        "logs": [],
                        "status": true,
                        "rlp": "0xf901080182a368b9010000000000000000000000000000000000000000000000000000000000000000000000000000000000000000000000000000000000000000000000000000000000000000000000000000000000000000000000000000000000000000000000000000000000000000000000000000000000000000000000000000000000000000000000000000000000000000000000000000000000000000000000000000000000000000000000000000000000000000000000000000000000000000000000000000000000000000000000000000000000000000000000000000000000000000000000000000000000000000000000000000000000000000000000000000000000c0"
                    }
                ],
                "rlp": "0xf90260f901f8a0aef3e39e3ddbf56afc69afcde7ab112e0da17972390584e869b25c02c0f0bd8ea01dcc4de8dec75d7aab85b567b6ccd41ad312451b948a7413f0a142fd40d49347942adc25665018aa1fe0e6bc666dac8fc2697ff9baa0a5e1b6efbac3f6d00a42e5ae46af3f5a1f357f2880963591ec91ea1d883eb64ea0b210251d90fb772719dbf185586441161ffb836fb7af7c1f328551b7612567f8a0a12b6f8f45f8cc1c14e4a1caceb7fbb3892b562d7ba2449b265c734a942320cbb901000000000000000000000000000000000000000000000000000000000000000000000000000000000000000000000000000000000000000000000000000000000000000000000000000000000000000000000000000000000000000000000000000000000000000000000000000000000000000000000000000000000000000000000000000000000000000000000000000000000000000000000000000000000000000000000000000000000000000000000000000000000000000000000000000000000000000000000000000000000000000000000000000000000000000000000000000000000000000000000000000000000000000000000000000000000083020000018407270e0082a3688203e800a00000000000000000000000000000000000000000000000000000000000000000880000000000000000f862f860800a830186a094638810d6c4f925b12ca82ee79e6acaeb2ef6d5e5808026a0ec3dbc3a662db1a5137ed3e75ac03a5e2ec6cb839c52e63179cd097ad30d1800a01e4d274c91056daa5d8e3e906358eef5adaca7d0519ff5d97787b45fceb928f1c0",
                "blocknumber": "1"
            }
        ],
        "sealEngine": "NoProof",
        "_info": {
            "hash": "0x534d586b3128ce3a15a08e2fd49b7527e64e190458aa1620cfabb57321ca5335",
            "fixture-format": "blockchain_test",
            "comment": "`execution-specs` generated test",
            "filling-transition-tool": "2.19.0",
            "description": "Test the return data of the identity precompile overwriting its input.",
            "url": "https://github.com/ethereum/execution-specs/blob/tests-bal@v5.3.0/tests/homestead/identity_precompile/test_identity.py#L15",
            "opcode_count": {}
        }
    },
    "tests/homestead/identity_precompile/test_identity.py::test_identity_return_overwrite[fork_Istanbul-call_opcode_STATICCALL-blockchain_test_from_state_test]": {
        "network": "Istanbul",
        "genesisBlockHeader": {
            "parentHash": "0x0000000000000000000000000000000000000000000000000000000000000000",
            "uncleHash": "0x1dcc4de8dec75d7aab85b567b6ccd41ad312451b948a7413f0a142fd40d49347",
            "coinbase": "0x0000000000000000000000000000000000000000",
            "stateRoot": "0x61892b64a73fb92d7edf99f5fc78a97890f1accdecba884022cca30c1720ac2b",
            "transactionsTrie": "0x56e81f171bcc55a6ff8345e692c0f86e5b48e01b996cadc001622fb5e363b421",
            "receiptTrie": "0x56e81f171bcc55a6ff8345e692c0f86e5b48e01b996cadc001622fb5e363b421",
            "bloom": "0x00000000000000000000000000000000000000000000000000000000000000000000000000000000000000000000000000000000000000000000000000000000000000000000000000000000000000000000000000000000000000000000000000000000000000000000000000000000000000000000000000000000000000000000000000000000000000000000000000000000000000000000000000000000000000000000000000000000000000000000000000000000000000000000000000000000000000000000000000000000000000000000000000000000000000000000000000000000000000000000000000000000000000000000000000000000",
            "difficulty": "0x020000",
            "number": "0x00",
            "gasLimit": "0x07270e00",
            "gasUsed": "0x00",
            "timestamp": "0x00",
            "extraData": "0x00",
            "mixHash": "0x0000000000000000000000000000000000000000000000000000000000000000",
            "nonce": "0x0000000000000000",
            "hash": "0xbdccd9d3680d0f3c285de810404e56115722afc8045d18ac3f2b1a73a7c0c446"
        },
        "pre": {
            "0x3dc5c69c1e5e8d204f26e394b6a1a182b770e8a6": {
                "nonce": "0x01",
                "balance": "0x00",
                "code": "0x6001600053600260015360036002536004600353600460016004600060045afa3d600060003e59600020600155",
                "storage": {}
            },
            "0x1ad9bc24818784172ff393bb6f89f094d4d2ca29": {
                "nonce": "0x00",
                "balance": "0x3635c9adc5dea00000",
                "code": "0x",
                "storage": {}
            }
        },
        "postState": {
            "0x3dc5c69c1e5e8d204f26e394b6a1a182b770e8a6": {
                "nonce": "0x01",
                "balance": "0x00",
                "code": "0x6001600053600260015360036002536004600353600460016004600060045afa3d600060003e59600020600155",
                "storage": {
                    "0x01": "0x52d7963d9a152455cd39d5b7efa696eb4d4fac938d51cf5d779e3792944aff7b"
                }
            },
            "0x1ad9bc24818784172ff393bb6f89f094d4d2ca29": {
                "nonce": "0x01",
                "balance": "0x3635c9adc5de999df0",
                "code": "0x",
                "storage": {}
            },
            "0x2adc25665018aa1fe0e6bc666dac8fc2697ff9ba": {
                "nonce": "0x00",
                "balance": "0x1bc16d674ece6210",
                "code": "0x",
                "storage": {}
            }
        },
        "lastblockhash": "0x4ba27d3741854074fb17627b87ff95cfb778fe9fdb7cf907ff8156785060909f",
        "config": {
            "network": "Istanbul",
            "chainid": "0x01"
        },
        "genesisRLP": "0xf901f9f901f4a00000000000000000000000000000000000000000000000000000000000000000a01dcc4de8dec75d7aab85b567b6ccd41ad312451b948a7413f0a142fd40d49347940000000000000000000000000000000000000000a061892b64a73fb92d7edf99f5fc78a97890f1accdecba884022cca30c1720ac2ba056e81f171bcc55a6ff8345e692c0f86e5b48e01b996cadc001622fb5e363b421a056e81f171bcc55a6ff8345e692c0f86e5b48e01b996cadc001622fb5e363b421b901000000000000000000000000000000000000000000000000000000000000000000000000000000000000000000000000000000000000000000000000000000000000000000000000000000000000000000000000000000000000000000000000000000000000000000000000000000000000000000000000000000000000000000000000000000000000000000000000000000000000000000000000000000000000000000000000000000000000000000000000000000000000000000000000000000000000000000000000000000000000000000000000000000000000000000000000000000000000000000000000000000000000000000000000000000000083020000808407270e00808000a00000000000000000000000000000000000000000000000000000000000000000880000000000000000c0c0",
        "blocks": [
            {
                "blockHeader": {
                    "parentHash": "0xbdccd9d3680d0f3c285de810404e56115722afc8045d18ac3f2b1a73a7c0c446",
                    "uncleHash": "0x1dcc4de8dec75d7aab85b567b6ccd41ad312451b948a7413f0a142fd40d49347",
                    "coinbase": "0x2adc25665018aa1fe0e6bc666dac8fc2697ff9ba",
                    "stateRoot": "0x4ba44beeb905ebf0ba5cfaf88fcccefdee4efb1ccd82432ce57d83b78784e460",
                    "transactionsTrie": "0x5cbd7acd57f0e4766bb953ca43f3b71e5897e8fbc8cf36e146e6332a2d0b0a53",
                    "receiptTrie": "0xa12b6f8f45f8cc1c14e4a1caceb7fbb3892b562d7ba2449b265c734a942320cb",
                    "bloom": "0x00000000000000000000000000000000000000000000000000000000000000000000000000000000000000000000000000000000000000000000000000000000000000000000000000000000000000000000000000000000000000000000000000000000000000000000000000000000000000000000000000000000000000000000000000000000000000000000000000000000000000000000000000000000000000000000000000000000000000000000000000000000000000000000000000000000000000000000000000000000000000000000000000000000000000000000000000000000000000000000000000000000000000000000000000000000",
                    "difficulty": "0x020000",
                    "number": "0x01",
                    "gasLimit": "0x07270e00",
                    "gasUsed": "0xa368",
                    "timestamp": "0x03e8",
                    "extraData": "0x00",
                    "mixHash": "0x0000000000000000000000000000000000000000000000000000000000000000",
                    "nonce": "0x0000000000000000",
                    "hash": "0x4ba27d3741854074fb17627b87ff95cfb778fe9fdb7cf907ff8156785060909f"
                },
                "transactions": [
                    {
                        "type": "0x00",
                        "chainId": "0x01",
                        "nonce": "0x00",
                        "gasPrice": "0x0a",
                        "gasLimit": "0x0186a0",
                        "to": "0x3dc5c69c1e5e8d204f26e394b6a1a182b770e8a6",
                        "value": "0x00",
                        "data": "0x",
                        "v": "0x26",
                        "r": "0x5f33485d0b82b081fb5f2c4454b952a24409f8451b5f43bbfc23b186f332ff1d",
                        "s": "0x54e8544dfe44a9ebefa92b9918fd6d7f68b732a7ec27c6a452cf9730707e9822",
                        "sender": "0x1ad9bc24818784172ff393bb6f89f094d4d2ca29"
                    }
                ],
                "uncleHeaders": [],
                "receipts": [
                    {
                        "transactionHash": "0xb863368dc76ceef11e8185aeb2a56a5775732c708d9a9cf1b73e04e2024b28cc",
                        "type": "0x00",
                        "cumulativeGasUsed": "0xa368",
                        "bloom": "0x00000000000000000000000000000000000000000000000000000000000000000000000000000000000000000000000000000000000000000000000000000000000000000000000000000000000000000000000000000000000000000000000000000000000000000000000000000000000000000000000000000000000000000000000000000000000000000000000000000000000000000000000000000000000000000000000000000000000000000000000000000000000000000000000000000000000000000000000000000000000000000000000000000000000000000000000000000000000000000000000000000000000000000000000000000000",
                        "logs": [],
                        "status": true,
                        "rlp": "0xf901080182a368b9010000000000000000000000000000000000000000000000000000000000000000000000000000000000000000000000000000000000000000000000000000000000000000000000000000000000000000000000000000000000000000000000000000000000000000000000000000000000000000000000000000000000000000000000000000000000000000000000000000000000000000000000000000000000000000000000000000000000000000000000000000000000000000000000000000000000000000000000000000000000000000000000000000000000000000000000000000000000000000000000000000000000000000000000000000000000c0"
                    }
                ],
                "rlp": "0xf90260f901f8a0bdccd9d3680d0f3c285de810404e56115722afc8045d18ac3f2b1a73a7c0c446a01dcc4de8dec75d7aab85b567b6ccd41ad312451b948a7413f0a142fd40d49347942adc25665018aa1fe0e6bc666dac8fc2697ff9baa04ba44beeb905ebf0ba5cfaf88fcccefdee4efb1ccd82432ce57d83b78784e460a05cbd7acd57f0e4766bb953ca43f3b71e5897e8fbc8cf36e146e6332a2d0b0a53a0a12b6f8f45f8cc1c14e4a1caceb7fbb3892b562d7ba2449b265c734a942320cbb901000000000000000000000000000000000000000000000000000000000000000000000000000000000000000000000000000000000000000000000000000000000000000000000000000000000000000000000000000000000000000000000000000000000000000000000000000000000000000000000000000000000000000000000000000000000000000000000000000000000000000000000000000000000000000000000000000000000000000000000000000000000000000000000000000000000000000000000000000000000000000000000000000000000000000000000000000000000000000000000000000000000000000000000000000000000083020000018407270e0082a3688203e800a00000000000000000000000000000000000000000000000000000000000000000880000000000000000f862f860800a830186a0943dc5c69c1e5e8d204f26e394b6a1a182b770e8a6808026a05f33485d0b82b081fb5f2c4454b952a24409f8451b5f43bbfc23b186f332ff1da054e8544dfe44a9ebefa92b9918fd6d7f68b732a7ec27c6a452cf9730707e9822c0",
                "blocknumber": "1"
            }
        ],
        "sealEngine": "NoProof",
        "_info": {
            "hash": "0x80797bbeaf9360aa221bcfb320dedc01d6edaa6513a0298a059741b05affbb10",
            "fixture-format": "blockchain_test",
            "comment": "`execution-specs` generated test",
            "filling-transition-tool": "2.19.0",
            "description": "Test the return data of the identity precompile overwriting its input.",
            "url": "https://github.com/ethereum/execution-specs/blob/tests-bal@v5.3.0/tests/homestead/identity_precompile/test_identity.py#L15",
            "opcode_count": {}
        }
    }
}