{
    "tests/ported_static/stCallCreateCallCodeTest/test_call1024_balance_too_low.py::test_call1024_balance_too_low[fork_Cancun-blockchain_test_from_state_test]": {
        "network": "Cancun",
        "genesisBlockHeader": {
            "parentHash": "0x0000000000000000000000000000000000000000000000000000000000000000",
            "uncleHash": "0x1dcc4de8dec75d7aab85b567b6ccd41ad312451b948a7413f0a142fd40d49347",
            "coinbase": "0x0000000000000000000000000000000000000000",
            "stateRoot": "0x6c114c0d2fbea231ad7820aebc82c88241b88eb82ce04cbd5fe9bff9d1cd08d9",
            "transactionsTrie": "0x56e81f171bcc55a6ff8345e692c0f86e5b48e01b996cadc001622fb5e363b421",
            "receiptTrie": "0x56e81f171bcc55a6ff8345e692c0f86e5b48e01b996cadc001622fb5e363b421",
            "bloom": "0x00000000000000000000000000000000000000000000000000000000000000000000000000000000000000000000000000000000000000000000000000000000000000000000000000000000000000000000000000000000000000000000000000000000000000000000000000000000000000000000000000000000000000000000000000000000000000000000000000000000000000000000000000000000000000000000000000000000000000000000000000000000000000000000000000000000000000000000000000000000000000000000000000000000000000000000000000000000000000000000000000000000000000000000000000000000",
            "difficulty": "0x00",
            "number": "0x00",
            "gasLimit": "0x7fffffffffffffff",
            "gasUsed": "0x00",
            "timestamp": "0x00",
            "extraData": "0x00",
            "mixHash": "0x0000000000000000000000000000000000000000000000000000000000000000",
            "nonce": "0x0000000000000000",
            "baseFeePerGas": "0x0b",
            "withdrawalsRoot": "0x56e81f171bcc55a6ff8345e692c0f86e5b48e01b996cadc001622fb5e363b421",
            "blobGasUsed": "0x00",
            "excessBlobGas": "0x00",
            "parentBeaconBlockRoot": "0x0000000000000000000000000000000000000000000000000000000000000000",
            "hash": "0x7e00538af9bdf1eddf002909eac5a7eb699636c68c7955e4373c2c9bd76eb9b7"
        },
        "pre": {
            "0x000f3df6d732807ef1319fb7b8bb8522d0beac02": {
                "nonce": "0x01",
                "balance": "0x00",
                "code": "0x3373fffffffffffffffffffffffffffffffffffffffe14604d57602036146024575f5ffd5b5f35801560495762001fff810690815414603c575f5ffd5b62001fff01545f5260205ff35b5f5ffd5b62001fff42064281555f359062001fff015500",
                "storage": {}
            },
            "0x4768b5e50b0ebe91ae38d84a47e3179e615f9c40": {
                "nonce": "0x00",
                "balance": "0xffffffffffffffffffffffffffffffff",
                "code": "0x",
                "storage": {}
            },
            "0xd9b97c712ebce43f3c19179bbef44b550f9e8bc0": {
                "nonce": "0x00",
                "balance": "0x1b58",
                "code": "0x",
                "storage": {}
            },
            "0x2aaa3ab47a59b4ad0ba3f72ad0b5bc35388333b4": {
                "nonce": "0x00",
                "balance": "0x0400",
                "code": "0x6001600054016000556000600060006000600054732aaa3ab47a59b4ad0ba3f72ad0b5bc35388333b4650ffffffffffff160015500",
                "storage": {}
            }
        },
        "postState": {
            "0x000f3df6d732807ef1319fb7b8bb8522d0beac02": {
                "nonce": "0x01",
                "balance": "0x00",
                "code": "0x3373fffffffffffffffffffffffffffffffffffffffe14604d57602036146024575f5ffd5b5f35801560495762001fff810690815414603c575f5ffd5b62001fff01545f5260205ff35b5f5ffd5b62001fff42064281555f359062001fff015500",
                "storage": {
                    "0x03e8": "0x03e8"
                }
            },
            "0x4768b5e50b0ebe91ae38d84a47e3179e615f9c40": {
                "nonce": "0x01",
                "balance": "0xfffffffffffffffffffffffffb8a5e25",
                "code": "0x",
                "storage": {}
            },
            "0xd9b97c712ebce43f3c19179bbef44b550f9e8bc0": {
                "nonce": "0x00",
                "balance": "0x1b58",
                "code": "0x",
                "storage": {}
            },
            "0x2aaa3ab47a59b4ad0ba3f72ad0b5bc35388333b4": {
                "nonce": "0x00",
                "balance": "0x040a",
                "code": "0x6001600054016000556000600060006000600054732aaa3ab47a59b4ad0ba3f72ad0b5bc35388333b4650ffffffffffff160015500",
                "storage": {
                    "0x00": "0x0401",
                    "0x01": "0x01"
                }
            }
        },
        "lastblockhash": "0x2b200ec99dccf4193058f501f6c1121c179e3da0bf67855d2bc570bd89a8be1e",
        "config": {
            "network": "Cancun",
            "chainid": "0x01",
            "blobSchedule": {
                "Cancun": {
                    "target": "0x03",
                    "max": "0x06",
                    "baseFeeUpdateFraction": "0x32f0ed"
                }
            }
        },
        "genesisRLP": "0xf90240f9023aa00000000000000000000000000000000000000000000000000000000000000000a01dcc4de8dec75d7aab85b567b6ccd41ad312451b948a7413f0a142fd40d49347940000000000000000000000000000000000000000a06c114c0d2fbea231ad7820aebc82c88241b88eb82ce04cbd5fe9bff9d1cd08d9a056e81f171bcc55a6ff8345e692c0f86e5b48e01b996cadc001622fb5e363b421a056e81f171bcc55a6ff8345e692c0f86e5b48e01b996cadc001622fb5e363b421b90100000000000000000000000000000000000000000000000000000000000000000000000000000000000000000000000000000000000000000000000000000000000000000000000000000000000000000000000000000000000000000000000000000000000000000000000000000000000000000000000000000000000000000000000000000000000000000000000000000000000000000000000000000000000000000000000000000000000000000000000000000000000000000000000000000000000000000000000000000000000000000000000000000000000000000000000000000000000000000000000000000000000000000000000000000000008080887fffffffffffffff808000a000000000000000000000000000000000000000000000000000000000000000008800000000000000000ba056e81f171bcc55a6ff8345e692c0f86e5b48e01b996cadc001622fb5e363b4218080a00000000000000000000000000000000000000000000000000000000000000000c0c0c0",
        "blocks": [
            {
                "blockHeader": {
                    "parentHash": "0x7e00538af9bdf1eddf002909eac5a7eb699636c68c7955e4373c2c9bd76eb9b7",
                    "uncleHash": "0x1dcc4de8dec75d7aab85b567b6ccd41ad312451b948a7413f0a142fd40d49347",
                    "coinbase": "0xb94f5374fce5edbc8e2a8697c15331677e6ebf0b",
                    "stateRoot": "0xf5984ea00016ed4eb2311acc412e40f74af0e027231bcfa78677d927b70f275f",
                    "transactionsTrie": "0xc7811f1dd7aaec08517124d32928eb0cfcfa23fcc9c5603e207760012812306b",
                    "receiptTrie": "0x9b9922facf4b56467e4985b13e8629032e661fcea0c69ef38195be76cdbdf1b9",
                    "bloom": "0x00000000000000000000000000000000000000000000000000000000000000000000000000000000000000000000000000000000000000000000000000000000000000000000000000000000000000000000000000000000000000000000000000000000000000000000000000000000000000000000000000000000000000000000000000000000000000000000000000000000000000000000000000000000000000000000000000000000000000000000000000000000000000000000000000000000000000000000000000000000000000000000000000000000000000000000000000000000000000000000000000000000000000000000000000000000",
                    "difficulty": "0x00",
                    "number": "0x01",
                    "gasLimit": "0x7fffffffffffffff",
                    "gasUsed": "0x7229c8",
                    "timestamp": "0x03e8",
                    "extraData": "0x00",
                    "mixHash": "0x0000000000000000000000000000000000000000000000000000000000020000",
                    "nonce": "0x0000000000000000",
                    "baseFeePerGas": "0x0a",
                    "withdrawalsRoot": "0x56e81f171bcc55a6ff8345e692c0f86e5b48e01b996cadc001622fb5e363b421",
                    "blobGasUsed": "0x00",
                    "excessBlobGas": "0x00",
                    "parentBeaconBlockRoot": "0x0000000000000000000000000000000000000000000000000000000000000000",
                    "hash": "0x2b200ec99dccf4193058f501f6c1121c179e3da0bf67855d2bc570bd89a8be1e"
                },
                "transactions": [
                    {
                        "type": "0x00",
                        "chainId": "0x01",
                        "nonce": "0x00",
                        "gasPrice": "0x0a",
                        "gasLimit": "0x10000000d788",
                        "to": "0x2aaa3ab47a59b4ad0ba3f72ad0b5bc35388333b4",
                        "value": "0x0a",
                        "data": "0x",
                        "v": "0x25",
                        "r": "0x076f4389297221222b1da929befb9c141de21383996dfe05e08e06f013a9b4a5",
                        "s": "0x68f5691decf13cd784741b8c45e75cec9f879d72facf74ed9a0ba943c5d7d55a",
                        "sender": "0x4768b5e50b0ebe91ae38d84a47e3179e615f9c40"
                    }
                ],
                "uncleHeaders": [],
                "withdrawals": [],
                "receipts": [
                    {
                        "transactionHash": "0x80bcfeef8af0a0af42317f0b99962fc5ed17e2398a36a461ba5d851e20c4baf1",
                        "type": "0x00",
                        "cumulativeGasUsed": "0x7229c8",
                        "bloom": "0x00000000000000000000000000000000000000000000000000000000000000000000000000000000000000000000000000000000000000000000000000000000000000000000000000000000000000000000000000000000000000000000000000000000000000000000000000000000000000000000000000000000000000000000000000000000000000000000000000000000000000000000000000000000000000000000000000000000000000000000000000000000000000000000000000000000000000000000000000000000000000000000000000000000000000000000000000000000000000000000000000000000000000000000000000000000",
                        "logs": [],
                        "status": true,
                        "rlp": "0xf9010901837229c8b9010000000000000000000000000000000000000000000000000000000000000000000000000000000000000000000000000000000000000000000000000000000000000000000000000000000000000000000000000000000000000000000000000000000000000000000000000000000000000000000000000000000000000000000000000000000000000000000000000000000000000000000000000000000000000000000000000000000000000000000000000000000000000000000000000000000000000000000000000000000000000000000000000000000000000000000000000000000000000000000000000000000000000000000000000000000000c0"
                    }
                ],
                "rlp": "0xf902abf9023fa07e00538af9bdf1eddf002909eac5a7eb699636c68c7955e4373c2c9bd76eb9b7a01dcc4de8dec75d7aab85b567b6ccd41ad312451b948a7413f0a142fd40d4934794b94f5374fce5edbc8e2a8697c15331677e6ebf0ba0f5984ea00016ed4eb2311acc412e40f74af0e027231bcfa78677d927b70f275fa0c7811f1dd7aaec08517124d32928eb0cfcfa23fcc9c5603e207760012812306ba09b9922facf4b56467e4985b13e8629032e661fcea0c69ef38195be76cdbdf1b9b90100000000000000000000000000000000000000000000000000000000000000000000000000000000000000000000000000000000000000000000000000000000000000000000000000000000000000000000000000000000000000000000000000000000000000000000000000000000000000000000000000000000000000000000000000000000000000000000000000000000000000000000000000000000000000000000000000000000000000000000000000000000000000000000000000000000000000000000000000000000000000000000000000000000000000000000000000000000000000000000000000000000000000000000000000000000008001887fffffffffffffff837229c88203e800a000000000000000000000000000000000000000000000000000000000000200008800000000000000000aa056e81f171bcc55a6ff8345e692c0f86e5b48e01b996cadc001622fb5e363b4218080a00000000000000000000000000000000000000000000000000000000000000000f865f863800a8610000000d788942aaa3ab47a59b4ad0ba3f72ad0b5bc35388333b40a8025a0076f4389297221222b1da929befb9c141de21383996dfe05e08e06f013a9b4a5a068f5691decf13cd784741b8c45e75cec9f879d72facf74ed9a0ba943c5d7d55ac0c0",
                "blocknumber": "1"
            }
        ],
        "sealEngine": "NoProof",
        "_info": {
            "hash": "0xc07e1b3c12359659ed87cb85d40fbae12a232dbb1ab0bf1b7e4cd78ebd35df59",
            "fixture-format": "blockchain_test",
            "comment": "`execution-specs` generated test",
            "filling-transition-tool": "2.19.0",
            "description": "Calldepth with balance too low.",
            "url": "https://github.com/ethereum/execution-specs/blob/tests-bal@v5.6.1/tests/ported_static/stCallCreateCallCodeTest/test_call1024_balance_too_low.py#L25",
            "metadata": {
                "opcode_count": {}
            }
        }
    }
}