{
    "tests/ported_static/stCallCreateCallCodeTest/test_call1024_balance_too_low.py::test_call1024_balance_too_low[fork_Cancun-blockchain_test_from_state_test]": {
        "network": "Cancun",
        "genesisBlockHeader": {
            "parentHash": "0x0000000000000000000000000000000000000000000000000000000000000000",
            "uncleHash": "0x1dcc4de8dec75d7aab85b567b6ccd41ad312451b948a7413f0a142fd40d49347",
            "coinbase": "0x0000000000000000000000000000000000000000",
            "stateRoot": "0x3d9eeda999f73a1accad9c3144de849a50d804fd4ad16a7b7e8d590ba31109f4",
            "transactionsTrie": "0x56e81f171bcc55a6ff8345e692c0f86e5b48e01b996cadc001622fb5e363b421",
            "receiptTrie": "0x56e81f171bcc55a6ff8345e692c0f86e5b48e01b996cadc001622fb5e363b421",
            "bloom": "0x00000000000000000000000000000000000000000000000000000000000000000000000000000000000000000000000000000000000000000000000000000000000000000000000000000000000000000000000000000000000000000000000000000000000000000000000000000000000000000000000000000000000000000000000000000000000000000000000000000000000000000000000000000000000000000000000000000000000000000000000000000000000000000000000000000000000000000000000000000000000000000000000000000000000000000000000000000000000000000000000000000000000000000000000000000000",
            "difficulty": "0x00",
            "number": "0x00",
            "gasLimit": "0x7fffffffffffffff",
            "gasUsed": "0x00",
            "timestamp": "0x00",
            "extraData": "0x00",
            "mixHash": "0x0000000000000000000000000000000000000000000000000000000000000000",
            "nonce": "0x0000000000000000",
            "baseFeePerGas": "0x0b",
            "withdrawalsRoot": "0x56e81f171bcc55a6ff8345e692c0f86e5b48e01b996cadc001622fb5e363b421",
            "blobGasUsed": "0x00",
            "excessBlobGas": "0x00",
            "parentBeaconBlockRoot": "0x0000000000000000000000000000000000000000000000000000000000000000",
            "hash": "0xa5d607397e796b031985265c8e92caf82316744b6f064cfbea9091348305e15a"
        },
        "pre": {
            "0x000f3df6d732807ef1319fb7b8bb8522d0beac02": {
                "nonce": "0x01",
                "balance": "0x00",
                "code": "0x3373fffffffffffffffffffffffffffffffffffffffe14604d57602036146024575f5ffd5b5f35801560495762001fff810690815414603c575f5ffd5b62001fff01545f5260205ff35b5f5ffd5b62001fff42064281555f359062001fff015500",
                "storage": {}
            },
            "0x2c854741c819493b3a940ebc70c2ced66e29473d": {
                "nonce": "0x00",
                "balance": "0xffffffffffffffffffffffffffffffff",
                "code": "0x",
                "storage": {}
            },
            "0x8b9fd541d0178978dd230ad3e047ecc019d60d03": {
                "nonce": "0x00",
                "balance": "0x1b58",
                "code": "0x",
                "storage": {}
            },
            "0x2aaa3ab47a59b4ad0ba3f72ad0b5bc35388333b4": {
                "nonce": "0x00",
                "balance": "0x0400",
                "code": "0x6001600054016000556000600060006000600054732aaa3ab47a59b4ad0ba3f72ad0b5bc35388333b4650ffffffffffff160015500",
                "storage": {}
            }
        },
        "postState": {
            "0x000f3df6d732807ef1319fb7b8bb8522d0beac02": {
                "nonce": "0x01",
                "balance": "0x00",
                "code": "0x3373fffffffffffffffffffffffffffffffffffffffe14604d57602036146024575f5ffd5b5f35801560495762001fff810690815414603c575f5ffd5b62001fff01545f5260205ff35b5f5ffd5b62001fff42064281555f359062001fff015500",
                "storage": {
                    "0x03e8": "0x03e8"
                }
            },
            "0x2c854741c819493b3a940ebc70c2ced66e29473d": {
                "nonce": "0x01",
                "balance": "0xfffffffffffffffffffffffffb8a5e25",
                "code": "0x",
                "storage": {}
            },
            "0x8b9fd541d0178978dd230ad3e047ecc019d60d03": {
                "nonce": "0x00",
                "balance": "0x1b58",
                "code": "0x",
                "storage": {}
            },
            "0x2aaa3ab47a59b4ad0ba3f72ad0b5bc35388333b4": {
                "nonce": "0x00",
                "balance": "0x040a",
                "code": "0x6001600054016000556000600060006000600054732aaa3ab47a59b4ad0ba3f72ad0b5bc35388333b4650ffffffffffff160015500",
                "storage": {
                    "0x00": "0x0401",
                    "0x01": "0x01"
                }
            }
        },
        "lastblockhash": "0xdfc0f3264da7b6f62a9d41c4957fae5151db41449bf078b6c0b0e003bf2f5063",
        "config": {
            "network": "Cancun",
            "chainid": "0x01",
            "blobSchedule": {
                "Cancun": {
                    "target": "0x03",
                    "max": "0x06",
                    "baseFeeUpdateFraction": "0x32f0ed"
                }
            }
        },
        "genesisRLP": "0xf90240f9023aa00000000000000000000000000000000000000000000000000000000000000000a01dcc4de8dec75d7aab85b567b6ccd41ad312451b948a7413f0a142fd40d49347940000000000000000000000000000000000000000a03d9eeda999f73a1accad9c3144de849a50d804fd4ad16a7b7e8d590ba31109f4a056e81f171bcc55a6ff8345e692c0f86e5b48e01b996cadc001622fb5e363b421a056e81f171bcc55a6ff8345e692c0f86e5b48e01b996cadc001622fb5e363b421b90100000000000000000000000000000000000000000000000000000000000000000000000000000000000000000000000000000000000000000000000000000000000000000000000000000000000000000000000000000000000000000000000000000000000000000000000000000000000000000000000000000000000000000000000000000000000000000000000000000000000000000000000000000000000000000000000000000000000000000000000000000000000000000000000000000000000000000000000000000000000000000000000000000000000000000000000000000000000000000000000000000000000000000000000000000000008080887fffffffffffffff808000a000000000000000000000000000000000000000000000000000000000000000008800000000000000000ba056e81f171bcc55a6ff8345e692c0f86e5b48e01b996cadc001622fb5e363b4218080a00000000000000000000000000000000000000000000000000000000000000000c0c0c0",
        "blocks": [
            {
                "blockHeader": {
                    "parentHash": "0xa5d607397e796b031985265c8e92caf82316744b6f064cfbea9091348305e15a",
                    "uncleHash": "0x1dcc4de8dec75d7aab85b567b6ccd41ad312451b948a7413f0a142fd40d49347",
                    "coinbase": "0xb94f5374fce5edbc8e2a8697c15331677e6ebf0b",
                    "stateRoot": "0x7f1a069c63b44202b4568e99c6b32d82f50bc52801f308aaffcac83a5fd0a5dc",
                    "transactionsTrie": "0x91a338b74cefe5a11653658c006c23d2618aa29f27496a03a220c722d38c9b2b",
                    "receiptTrie": "0x9b9922facf4b56467e4985b13e8629032e661fcea0c69ef38195be76cdbdf1b9",
                    "bloom": "0x00000000000000000000000000000000000000000000000000000000000000000000000000000000000000000000000000000000000000000000000000000000000000000000000000000000000000000000000000000000000000000000000000000000000000000000000000000000000000000000000000000000000000000000000000000000000000000000000000000000000000000000000000000000000000000000000000000000000000000000000000000000000000000000000000000000000000000000000000000000000000000000000000000000000000000000000000000000000000000000000000000000000000000000000000000000",
                    "difficulty": "0x00",
                    "number": "0x01",
                    "gasLimit": "0x7fffffffffffffff",
                    "gasUsed": "0x7229c8",
                    "timestamp": "0x03e8",
                    "extraData": "0x00",
                    "mixHash": "0x0000000000000000000000000000000000000000000000000000000000020000",
                    "nonce": "0x0000000000000000",
                    "baseFeePerGas": "0x0a",
                    "withdrawalsRoot": "0x56e81f171bcc55a6ff8345e692c0f86e5b48e01b996cadc001622fb5e363b421",
                    "blobGasUsed": "0x00",
                    "excessBlobGas": "0x00",
                    "parentBeaconBlockRoot": "0x0000000000000000000000000000000000000000000000000000000000000000",
                    "hash": "0xdfc0f3264da7b6f62a9d41c4957fae5151db41449bf078b6c0b0e003bf2f5063"
                },
                "transactions": [
                    {
                        "type": "0x00",
                        "chainId": "0x01",
                        "nonce": "0x00",
                        "gasPrice": "0x0a",
                        "gasLimit": "0x10000000d788",
                        "to": "0x2aaa3ab47a59b4ad0ba3f72ad0b5bc35388333b4",
                        "value": "0x0a",
                        "data": "0x",
                        "v": "0x25",
                        "r": "0x90bc224fdc5c8bc5a2f496f21311234ff755ddbe1d5ae9ce01c89e5e0bd589cd",
                        "s": "0x23a9851764044f1cbf06982001df1708b201c94fca163962fdc4c384d90d1ced",
                        "sender": "0x2c854741c819493b3a940ebc70c2ced66e29473d"
                    }
                ],
                "uncleHeaders": [],
                "withdrawals": [],
                "receipts": [
                    {
                        "transactionHash": "0xe33b7f8ca11ef903ce2031609329a6d5618d7fb4c1ea2096be898f0e51cbabfc",
                        "type": "0x00",
                        "cumulativeGasUsed": "0x7229c8",
                        "bloom": "0x00000000000000000000000000000000000000000000000000000000000000000000000000000000000000000000000000000000000000000000000000000000000000000000000000000000000000000000000000000000000000000000000000000000000000000000000000000000000000000000000000000000000000000000000000000000000000000000000000000000000000000000000000000000000000000000000000000000000000000000000000000000000000000000000000000000000000000000000000000000000000000000000000000000000000000000000000000000000000000000000000000000000000000000000000000000",
                        "logs": [],
                        "status": true,
                        "rlp": "0xf9010901837229c8b9010000000000000000000000000000000000000000000000000000000000000000000000000000000000000000000000000000000000000000000000000000000000000000000000000000000000000000000000000000000000000000000000000000000000000000000000000000000000000000000000000000000000000000000000000000000000000000000000000000000000000000000000000000000000000000000000000000000000000000000000000000000000000000000000000000000000000000000000000000000000000000000000000000000000000000000000000000000000000000000000000000000000000000000000000000000000c0"
                    }
                ],
                "rlp": "0xf902abf9023fa0a5d607397e796b031985265c8e92caf82316744b6f064cfbea9091348305e15aa01dcc4de8dec75d7aab85b567b6ccd41ad312451b948a7413f0a142fd40d4934794b94f5374fce5edbc8e2a8697c15331677e6ebf0ba07f1a069c63b44202b4568e99c6b32d82f50bc52801f308aaffcac83a5fd0a5dca091a338b74cefe5a11653658c006c23d2618aa29f27496a03a220c722d38c9b2ba09b9922facf4b56467e4985b13e8629032e661fcea0c69ef38195be76cdbdf1b9b90100000000000000000000000000000000000000000000000000000000000000000000000000000000000000000000000000000000000000000000000000000000000000000000000000000000000000000000000000000000000000000000000000000000000000000000000000000000000000000000000000000000000000000000000000000000000000000000000000000000000000000000000000000000000000000000000000000000000000000000000000000000000000000000000000000000000000000000000000000000000000000000000000000000000000000000000000000000000000000000000000000000000000000000000000000000008001887fffffffffffffff837229c88203e800a000000000000000000000000000000000000000000000000000000000000200008800000000000000000aa056e81f171bcc55a6ff8345e692c0f86e5b48e01b996cadc001622fb5e363b4218080a00000000000000000000000000000000000000000000000000000000000000000f865f863800a8610000000d788942aaa3ab47a59b4ad0ba3f72ad0b5bc35388333b40a8025a090bc224fdc5c8bc5a2f496f21311234ff755ddbe1d5ae9ce01c89e5e0bd589cda023a9851764044f1cbf06982001df1708b201c94fca163962fdc4c384d90d1cedc0c0",
                "blocknumber": "1"
            }
        ],
        "sealEngine": "NoProof",
        "_info": {
            "hash": "0xdb72a622371d47d27523d763930d9a02140ad123478c89fb4013126803e8f778",
            "fixture-format": "blockchain_test",
            "comment": "`execution-specs` generated test",
            "filling-transition-tool": "2.19.0",
            "description": "Calldepth with balance too low.",
            "url": "https://github.com/ethereum/execution-specs/blob/tests-snobal-devnet-5@v8037.0.0/tests/ported_static/stCallCreateCallCodeTest/test_call1024_balance_too_low.py#L24",
            "metadata": {
                "opcode_count": {}
            }
        }
    }
}