{
    "tests/ported_static/stStaticCall/test_static_callcodecallcall_100_suicide_end2.py::test_static_callcodecallcall_100_suicide_end2[fork_Cancun-blockchain_test_from_state_test]": {
        "network": "Cancun",
        "genesisBlockHeader": {
            "parentHash": "0x0000000000000000000000000000000000000000000000000000000000000000",
            "uncleHash": "0x1dcc4de8dec75d7aab85b567b6ccd41ad312451b948a7413f0a142fd40d49347",
            "coinbase": "0x0000000000000000000000000000000000000000",
            "stateRoot": "0x44ffe3bc049f96b18b194e5311b29aa4794ae7875b72206fb0096e7ee55d53fb",
            "transactionsTrie": "0x56e81f171bcc55a6ff8345e692c0f86e5b48e01b996cadc001622fb5e363b421",
            "receiptTrie": "0x56e81f171bcc55a6ff8345e692c0f86e5b48e01b996cadc001622fb5e363b421",
            "bloom": "0x00000000000000000000000000000000000000000000000000000000000000000000000000000000000000000000000000000000000000000000000000000000000000000000000000000000000000000000000000000000000000000000000000000000000000000000000000000000000000000000000000000000000000000000000000000000000000000000000000000000000000000000000000000000000000000000000000000000000000000000000000000000000000000000000000000000000000000000000000000000000000000000000000000000000000000000000000000000000000000000000000000000000000000000000000000000",
            "difficulty": "0x00",
            "number": "0x00",
            "gasLimit": "0x01c9c380",
            "gasUsed": "0x00",
            "timestamp": "0x00",
            "extraData": "0x00",
            "mixHash": "0x0000000000000000000000000000000000000000000000000000000000000000",
            "nonce": "0x0000000000000000",
            "baseFeePerGas": "0x0b",
            "withdrawalsRoot": "0x56e81f171bcc55a6ff8345e692c0f86e5b48e01b996cadc001622fb5e363b421",
            "blobGasUsed": "0x00",
            "excessBlobGas": "0x00",
            "parentBeaconBlockRoot": "0x0000000000000000000000000000000000000000000000000000000000000000",
            "hash": "0xafb6d1e569ac640a40c39825eeb7b16b6ad4f68d3672d09a7e0b437d098b03d7"
        },
        "pre": {
            "0x000f3df6d732807ef1319fb7b8bb8522d0beac02": {
                "nonce": "0x01",
                "balance": "0x00",
                "code": "0x3373fffffffffffffffffffffffffffffffffffffffe14604d57602036146024575f5ffd5b5f35801560495762001fff810690815414603c575f5ffd5b62001fff01545f5260205ff35b5f5ffd5b62001fff42064281555f359062001fff015500",
                "storage": {}
            },
            "0xd66f224cbd2fabb21b17bb53c56118f32f62ebd6": {
                "nonce": "0x00",
                "balance": "0x0de0b6b3a7640000",
                "code": "0x",
                "storage": {}
            },
            "0x48e2d4c0b593bfebe5ddb4f13aa355b8bd83ddd3": {
                "nonce": "0x00",
                "balance": "0x02540be400",
                "code": "0x600160035200",
                "storage": {}
            },
            "0x66227cf0a560e1f6f9e94345dd1b5c6758923ba6": {
                "nonce": "0x00",
                "balance": "0x0de0b6b3a7640000",
                "code": "0x6040600060406000600073620b381d01cbd812ffb798ab35a1a316bde90ce6620249f0f2600055600160015500",
                "storage": {}
            },
            "0x620b381d01cbd812ffb798ab35a1a316bde90ce6": {
                "nonce": "0x00",
                "balance": "0x02540be400",
                "code": "0x60016003526040600060406000738c800abf2a49ca6ffac93555af4b5c7f9a3a8186620186a0fa50600160205200",
                "storage": {}
            },
            "0x8c800abf2a49ca6ffac93555af4b5c7f9a3a8186": {
                "nonce": "0x00",
                "balance": "0x02540be400",
                "code": "0x600160035260406000604060007348e2d4c0b593bfebe5ddb4f13aa355b8bd83ddd361c350fa5073620b381d01cbd812ffb798ab35a1a316bde90ce6ff00",
                "storage": {}
            }
        },
        "postState": {
            "0x000f3df6d732807ef1319fb7b8bb8522d0beac02": {
                "nonce": "0x01",
                "balance": "0x00",
                "code": "0x3373fffffffffffffffffffffffffffffffffffffffe14604d57602036146024575f5ffd5b5f35801560495762001fff810690815414603c575f5ffd5b62001fff01545f5260205ff35b5f5ffd5b62001fff42064281555f359062001fff015500",
                "storage": {
                    "0x03e8": "0x03e8"
                }
            },
            "0xd66f224cbd2fabb21b17bb53c56118f32f62ebd6": {
                "nonce": "0x01",
                "balance": "0x0de0b6b3a749fca0",
                "code": "0x",
                "storage": {}
            },
            "0x48e2d4c0b593bfebe5ddb4f13aa355b8bd83ddd3": {
                "nonce": "0x00",
                "balance": "0x02540be400",
                "code": "0x600160035200",
                "storage": {}
            },
            "0x66227cf0a560e1f6f9e94345dd1b5c6758923ba6": {
                "nonce": "0x00",
                "balance": "0x0de0b6b3a7640000",
                "code": "0x6040600060406000600073620b381d01cbd812ffb798ab35a1a316bde90ce6620249f0f2600055600160015500",
                "storage": {
                    "0x00": "0x01",
                    "0x01": "0x01"
                }
            },
            "0x620b381d01cbd812ffb798ab35a1a316bde90ce6": {
                "nonce": "0x00",
                "balance": "0x02540be400",
                "code": "0x60016003526040600060406000738c800abf2a49ca6ffac93555af4b5c7f9a3a8186620186a0fa50600160205200",
                "storage": {}
            },
            "0x8c800abf2a49ca6ffac93555af4b5c7f9a3a8186": {
                "nonce": "0x00",
                "balance": "0x02540be400",
                "code": "0x600160035260406000604060007348e2d4c0b593bfebe5ddb4f13aa355b8bd83ddd361c350fa5073620b381d01cbd812ffb798ab35a1a316bde90ce6ff00",
                "storage": {}
            }
        },
        "lastblockhash": "0x60edbfcc5eb20303a4bf8dd6cc5c3cb4a2057141d231dadac0081dce01742586",
        "config": {
            "network": "Cancun",
            "chainid": "0x01",
            "blobSchedule": {
                "Cancun": {
                    "target": "0x03",
                    "max": "0x06",
                    "baseFeeUpdateFraction": "0x32f0ed"
                }
            }
        },
        "genesisRLP": "0xf9023cf90236a00000000000000000000000000000000000000000000000000000000000000000a01dcc4de8dec75d7aab85b567b6ccd41ad312451b948a7413f0a142fd40d49347940000000000000000000000000000000000000000a044ffe3bc049f96b18b194e5311b29aa4794ae7875b72206fb0096e7ee55d53fba056e81f171bcc55a6ff8345e692c0f86e5b48e01b996cadc001622fb5e363b421a056e81f171bcc55a6ff8345e692c0f86e5b48e01b996cadc001622fb5e363b421b901000000000000000000000000000000000000000000000000000000000000000000000000000000000000000000000000000000000000000000000000000000000000000000000000000000000000000000000000000000000000000000000000000000000000000000000000000000000000000000000000000000000000000000000000000000000000000000000000000000000000000000000000000000000000000000000000000000000000000000000000000000000000000000000000000000000000000000000000000000000000000000000000000000000000000000000000000000000000000000000000000000000000000000000000000000000080808401c9c380808000a000000000000000000000000000000000000000000000000000000000000000008800000000000000000ba056e81f171bcc55a6ff8345e692c0f86e5b48e01b996cadc001622fb5e363b4218080a00000000000000000000000000000000000000000000000000000000000000000c0c0c0",
        "blocks": [
            {
                "blockHeader": {
                    "parentHash": "0xafb6d1e569ac640a40c39825eeb7b16b6ad4f68d3672d09a7e0b437d098b03d7",
                    "uncleHash": "0x1dcc4de8dec75d7aab85b567b6ccd41ad312451b948a7413f0a142fd40d49347",
                    "coinbase": "0x2adc25665018aa1fe0e6bc666dac8fc2697ff9ba",
                    "stateRoot": "0xc36be434db53132bfd10822afaa703d1fe65291d3b362d3049eec9ccf048e072",
                    "transactionsTrie": "0x0353343a0fa40e6c8d9922a0e7d3d724e5f09857d7d589cbb59d175455f26616",
                    "receiptTrie": "0xdf127863bf62f8ca5ab90f902895371ad8eb65c7dbe288ea580ff47c96f2d014",
                    "bloom": "0x00000000000000000000000000000000000000000000000000000000000000000000000000000000000000000000000000000000000000000000000000000000000000000000000000000000000000000000000000000000000000000000000000000000000000000000000000000000000000000000000000000000000000000000000000000000000000000000000000000000000000000000000000000000000000000000000000000000000000000000000000000000000000000000000000000000000000000000000000000000000000000000000000000000000000000000000000000000000000000000000000000000000000000000000000000000",
                    "difficulty": "0x00",
                    "number": "0x01",
                    "gasLimit": "0x01c9c380",
                    "gasUsed": "0x0299f0",
                    "timestamp": "0x03e8",
                    "extraData": "0x00",
                    "mixHash": "0x0000000000000000000000000000000000000000000000000000000000020000",
                    "nonce": "0x0000000000000000",
                    "baseFeePerGas": "0x0a",
                    "withdrawalsRoot": "0x56e81f171bcc55a6ff8345e692c0f86e5b48e01b996cadc001622fb5e363b421",
                    "blobGasUsed": "0x00",
                    "excessBlobGas": "0x00",
                    "parentBeaconBlockRoot": "0x0000000000000000000000000000000000000000000000000000000000000000",
                    "hash": "0x60edbfcc5eb20303a4bf8dd6cc5c3cb4a2057141d231dadac0081dce01742586"
                },
                "transactions": [
                    {
                        "type": "0x00",
                        "chainId": "0x01",
                        "nonce": "0x00",
                        "gasPrice": "0x0a",
                        "gasLimit": "0x2dc6c0",
                        "to": "0x66227cf0a560e1f6f9e94345dd1b5c6758923ba6",
                        "value": "0x00",
                        "data": "0x",
                        "v": "0x25",
                        "r": "0x748e690fe79dbfbfe58b2d7077c93f817a85ae59c6d5f051e6b2c631f5f6bc3e",
                        "s": "0x39b5d5458bbf8532ce8b3808129da151c7cf61925bb15a297b71e7dc79283615",
                        "sender": "0xd66f224cbd2fabb21b17bb53c56118f32f62ebd6"
                    }
                ],
                "uncleHeaders": [],
                "withdrawals": [],
                "receipts": [
                    {
                        "transactionHash": "0xd5f7f277e1aa7771db96bc31eea14abb200a4e89e474b917471d262f66a4c775",
                        "type": "0x00",
                        "cumulativeGasUsed": "0x0299f0",
                        "bloom": "0x00000000000000000000000000000000000000000000000000000000000000000000000000000000000000000000000000000000000000000000000000000000000000000000000000000000000000000000000000000000000000000000000000000000000000000000000000000000000000000000000000000000000000000000000000000000000000000000000000000000000000000000000000000000000000000000000000000000000000000000000000000000000000000000000000000000000000000000000000000000000000000000000000000000000000000000000000000000000000000000000000000000000000000000000000000000",
                        "logs": [],
                        "status": true,
                        "rlp": "0xf9010901830299f0b9010000000000000000000000000000000000000000000000000000000000000000000000000000000000000000000000000000000000000000000000000000000000000000000000000000000000000000000000000000000000000000000000000000000000000000000000000000000000000000000000000000000000000000000000000000000000000000000000000000000000000000000000000000000000000000000000000000000000000000000000000000000000000000000000000000000000000000000000000000000000000000000000000000000000000000000000000000000000000000000000000000000000000000000000000000000000c0"
                    }
                ],
                "rlp": "0xf902a4f9023ba0afb6d1e569ac640a40c39825eeb7b16b6ad4f68d3672d09a7e0b437d098b03d7a01dcc4de8dec75d7aab85b567b6ccd41ad312451b948a7413f0a142fd40d49347942adc25665018aa1fe0e6bc666dac8fc2697ff9baa0c36be434db53132bfd10822afaa703d1fe65291d3b362d3049eec9ccf048e072a00353343a0fa40e6c8d9922a0e7d3d724e5f09857d7d589cbb59d175455f26616a0df127863bf62f8ca5ab90f902895371ad8eb65c7dbe288ea580ff47c96f2d014b901000000000000000000000000000000000000000000000000000000000000000000000000000000000000000000000000000000000000000000000000000000000000000000000000000000000000000000000000000000000000000000000000000000000000000000000000000000000000000000000000000000000000000000000000000000000000000000000000000000000000000000000000000000000000000000000000000000000000000000000000000000000000000000000000000000000000000000000000000000000000000000000000000000000000000000000000000000000000000000000000000000000000000000000000000000000080018401c9c380830299f08203e800a000000000000000000000000000000000000000000000000000000000000200008800000000000000000aa056e81f171bcc55a6ff8345e692c0f86e5b48e01b996cadc001622fb5e363b4218080a00000000000000000000000000000000000000000000000000000000000000000f862f860800a832dc6c09466227cf0a560e1f6f9e94345dd1b5c6758923ba6808025a0748e690fe79dbfbfe58b2d7077c93f817a85ae59c6d5f051e6b2c631f5f6bc3ea039b5d5458bbf8532ce8b3808129da151c7cf61925bb15a297b71e7dc79283615c0c0",
                "blocknumber": "1"
            }
        ],
        "sealEngine": "NoProof",
        "_info": {
            "hash": "0xe9268127a2211adaab65ec3feb39ff4cd37801b5ee7939123e06d2854d4690f5",
            "fixture-format": "blockchain_test",
            "comment": "`execution-specs` generated test",
            "filling-transition-tool": "2.19.0",
            "description": "Test_static_callcodecallcall_100_suicide_end2.",
            "url": "https://github.com/ethereum/execution-specs/blob/tests-snobal-devnet-5@v8037.0.0/tests/ported_static/stStaticCall/test_static_callcodecallcall_100_suicide_end2.py#L24",
            "metadata": {
                "opcode_count": {}
            }
        }
    }
}