{
    "tests/ported_static/stStaticCall/test_static_callcodecallcall_100_suicide_end2.py::test_static_callcodecallcall_100_suicide_end2[fork_Cancun-blockchain_test_from_state_test]": {
        "network": "Cancun",
        "genesisBlockHeader": {
            "parentHash": "0x0000000000000000000000000000000000000000000000000000000000000000",
            "uncleHash": "0x1dcc4de8dec75d7aab85b567b6ccd41ad312451b948a7413f0a142fd40d49347",
            "coinbase": "0x0000000000000000000000000000000000000000",
            "stateRoot": "0x641354e8afbd1a0ecece40a6f1b1776bac3be87921d4578a3e56b21bdbd618b3",
            "transactionsTrie": "0x56e81f171bcc55a6ff8345e692c0f86e5b48e01b996cadc001622fb5e363b421",
            "receiptTrie": "0x56e81f171bcc55a6ff8345e692c0f86e5b48e01b996cadc001622fb5e363b421",
            "bloom": "0x00000000000000000000000000000000000000000000000000000000000000000000000000000000000000000000000000000000000000000000000000000000000000000000000000000000000000000000000000000000000000000000000000000000000000000000000000000000000000000000000000000000000000000000000000000000000000000000000000000000000000000000000000000000000000000000000000000000000000000000000000000000000000000000000000000000000000000000000000000000000000000000000000000000000000000000000000000000000000000000000000000000000000000000000000000000",
            "difficulty": "0x00",
            "number": "0x00",
            "gasLimit": "0x01c9c380",
            "gasUsed": "0x00",
            "timestamp": "0x00",
            "extraData": "0x00",
            "mixHash": "0x0000000000000000000000000000000000000000000000000000000000000000",
            "nonce": "0x0000000000000000",
            "baseFeePerGas": "0x0b",
            "withdrawalsRoot": "0x56e81f171bcc55a6ff8345e692c0f86e5b48e01b996cadc001622fb5e363b421",
            "blobGasUsed": "0x00",
            "excessBlobGas": "0x00",
            "parentBeaconBlockRoot": "0x0000000000000000000000000000000000000000000000000000000000000000",
            "hash": "0x1d21fb1739390907718f255e3ed6c3adb89d4dc090313eb226601d91c01ffc72"
        },
        "pre": {
            "0x000f3df6d732807ef1319fb7b8bb8522d0beac02": {
                "nonce": "0x01",
                "balance": "0x00",
                "code": "0x3373fffffffffffffffffffffffffffffffffffffffe14604d57602036146024575f5ffd5b5f35801560495762001fff810690815414603c575f5ffd5b62001fff01545f5260205ff35b5f5ffd5b62001fff42064281555f359062001fff015500",
                "storage": {}
            },
            "0x66227cf0a560e1f6f9e94345dd1b5c6758923ba6": {
                "nonce": "0x00",
                "balance": "0x0de0b6b3a7640000",
                "code": "0x6040600060406000600073620b381d01cbd812ffb798ab35a1a316bde90ce6620249f0f2600055600160015500",
                "storage": {}
            },
            "0x620b381d01cbd812ffb798ab35a1a316bde90ce6": {
                "nonce": "0x00",
                "balance": "0x02540be400",
                "code": "0x60016003526040600060406000738c800abf2a49ca6ffac93555af4b5c7f9a3a8186620186a0fa50600160205200",
                "storage": {}
            },
            "0x8c800abf2a49ca6ffac93555af4b5c7f9a3a8186": {
                "nonce": "0x00",
                "balance": "0x02540be400",
                "code": "0x600160035260406000604060007348e2d4c0b593bfebe5ddb4f13aa355b8bd83ddd361c350fa5073620b381d01cbd812ffb798ab35a1a316bde90ce6ff00",
                "storage": {}
            },
            "0x48e2d4c0b593bfebe5ddb4f13aa355b8bd83ddd3": {
                "nonce": "0x00",
                "balance": "0x02540be400",
                "code": "0x600160035200",
                "storage": {}
            },
            "0xebaf50debf10e08302fe4280c32df010463ca297": {
                "nonce": "0x00",
                "balance": "0x0de0b6b3a7640000",
                "code": "0x",
                "storage": {}
            }
        },
        "postState": {
            "0x000f3df6d732807ef1319fb7b8bb8522d0beac02": {
                "nonce": "0x01",
                "balance": "0x00",
                "code": "0x3373fffffffffffffffffffffffffffffffffffffffe14604d57602036146024575f5ffd5b5f35801560495762001fff810690815414603c575f5ffd5b62001fff01545f5260205ff35b5f5ffd5b62001fff42064281555f359062001fff015500",
                "storage": {
                    "0x03e8": "0x03e8"
                }
            },
            "0x66227cf0a560e1f6f9e94345dd1b5c6758923ba6": {
                "nonce": "0x00",
                "balance": "0x0de0b6b3a7640000",
                "code": "0x6040600060406000600073620b381d01cbd812ffb798ab35a1a316bde90ce6620249f0f2600055600160015500",
                "storage": {
                    "0x00": "0x01",
                    "0x01": "0x01"
                }
            },
            "0x620b381d01cbd812ffb798ab35a1a316bde90ce6": {
                "nonce": "0x00",
                "balance": "0x02540be400",
                "code": "0x60016003526040600060406000738c800abf2a49ca6ffac93555af4b5c7f9a3a8186620186a0fa50600160205200",
                "storage": {}
            },
            "0x8c800abf2a49ca6ffac93555af4b5c7f9a3a8186": {
                "nonce": "0x00",
                "balance": "0x02540be400",
                "code": "0x600160035260406000604060007348e2d4c0b593bfebe5ddb4f13aa355b8bd83ddd361c350fa5073620b381d01cbd812ffb798ab35a1a316bde90ce6ff00",
                "storage": {}
            },
            "0x48e2d4c0b593bfebe5ddb4f13aa355b8bd83ddd3": {
                "nonce": "0x00",
                "balance": "0x02540be400",
                "code": "0x600160035200",
                "storage": {}
            },
            "0xebaf50debf10e08302fe4280c32df010463ca297": {
                "nonce": "0x01",
                "balance": "0x0de0b6b3a749fca0",
                "code": "0x",
                "storage": {}
            }
        },
        "lastblockhash": "0xb73f2ec9b5bb4807d1b52ecb1c4045386ee0066e1b436d7d3e5989554b53bff2",
        "config": {
            "network": "Cancun",
            "chainid": "0x01",
            "blobSchedule": {
                "Cancun": {
                    "target": "0x03",
                    "max": "0x06",
                    "baseFeeUpdateFraction": "0x32f0ed"
                }
            }
        },
        "genesisRLP": "0xf9023cf90236a00000000000000000000000000000000000000000000000000000000000000000a01dcc4de8dec75d7aab85b567b6ccd41ad312451b948a7413f0a142fd40d49347940000000000000000000000000000000000000000a0641354e8afbd1a0ecece40a6f1b1776bac3be87921d4578a3e56b21bdbd618b3a056e81f171bcc55a6ff8345e692c0f86e5b48e01b996cadc001622fb5e363b421a056e81f171bcc55a6ff8345e692c0f86e5b48e01b996cadc001622fb5e363b421b901000000000000000000000000000000000000000000000000000000000000000000000000000000000000000000000000000000000000000000000000000000000000000000000000000000000000000000000000000000000000000000000000000000000000000000000000000000000000000000000000000000000000000000000000000000000000000000000000000000000000000000000000000000000000000000000000000000000000000000000000000000000000000000000000000000000000000000000000000000000000000000000000000000000000000000000000000000000000000000000000000000000000000000000000000000000080808401c9c380808000a000000000000000000000000000000000000000000000000000000000000000008800000000000000000ba056e81f171bcc55a6ff8345e692c0f86e5b48e01b996cadc001622fb5e363b4218080a00000000000000000000000000000000000000000000000000000000000000000c0c0c0",
        "blocks": [
            {
                "blockHeader": {
                    "parentHash": "0x1d21fb1739390907718f255e3ed6c3adb89d4dc090313eb226601d91c01ffc72",
                    "uncleHash": "0x1dcc4de8dec75d7aab85b567b6ccd41ad312451b948a7413f0a142fd40d49347",
                    "coinbase": "0x2adc25665018aa1fe0e6bc666dac8fc2697ff9ba",
                    "stateRoot": "0x6a0107f69677ca0f1b55a7b9126ca56a5ce75d25e8e7a944792431e13ce1b122",
                    "transactionsTrie": "0x8ed821b9035992fa7487b886f56d444af0bd2b6e955e5411a202bb2375ac3190",
                    "receiptTrie": "0xdf127863bf62f8ca5ab90f902895371ad8eb65c7dbe288ea580ff47c96f2d014",
                    "bloom": "0x00000000000000000000000000000000000000000000000000000000000000000000000000000000000000000000000000000000000000000000000000000000000000000000000000000000000000000000000000000000000000000000000000000000000000000000000000000000000000000000000000000000000000000000000000000000000000000000000000000000000000000000000000000000000000000000000000000000000000000000000000000000000000000000000000000000000000000000000000000000000000000000000000000000000000000000000000000000000000000000000000000000000000000000000000000000",
                    "difficulty": "0x00",
                    "number": "0x01",
                    "gasLimit": "0x01c9c380",
                    "gasUsed": "0x0299f0",
                    "timestamp": "0x03e8",
                    "extraData": "0x00",
                    "mixHash": "0x0000000000000000000000000000000000000000000000000000000000020000",
                    "nonce": "0x0000000000000000",
                    "baseFeePerGas": "0x0a",
                    "withdrawalsRoot": "0x56e81f171bcc55a6ff8345e692c0f86e5b48e01b996cadc001622fb5e363b421",
                    "blobGasUsed": "0x00",
                    "excessBlobGas": "0x00",
                    "parentBeaconBlockRoot": "0x0000000000000000000000000000000000000000000000000000000000000000",
                    "hash": "0xb73f2ec9b5bb4807d1b52ecb1c4045386ee0066e1b436d7d3e5989554b53bff2"
                },
                "transactions": [
                    {
                        "type": "0x00",
                        "chainId": "0x01",
                        "nonce": "0x00",
                        "gasPrice": "0x0a",
                        "gasLimit": "0x2dc6c0",
                        "to": "0x66227cf0a560e1f6f9e94345dd1b5c6758923ba6",
                        "value": "0x00",
                        "data": "0x",
                        "v": "0x26",
                        "r": "0x17ae2468d3246238656d6875977506bfac901c41e3e3e18591eebfdbab23b42d",
                        "s": "0x74631980e65cdafd7f2442c3750ee548a383fd2f6381b24c912203467eb3786c",
                        "sender": "0xebaf50debf10e08302fe4280c32df010463ca297"
                    }
                ],
                "uncleHeaders": [],
                "withdrawals": [],
                "receipts": [
                    {
                        "transactionHash": "0x60f7dcac8c4751913a4d6616d3932545e5735972638b2e482e71c2ff4d0e1a8a",
                        "type": "0x00",
                        "cumulativeGasUsed": "0x0299f0",
                        "bloom": "0x00000000000000000000000000000000000000000000000000000000000000000000000000000000000000000000000000000000000000000000000000000000000000000000000000000000000000000000000000000000000000000000000000000000000000000000000000000000000000000000000000000000000000000000000000000000000000000000000000000000000000000000000000000000000000000000000000000000000000000000000000000000000000000000000000000000000000000000000000000000000000000000000000000000000000000000000000000000000000000000000000000000000000000000000000000000",
                        "logs": [],
                        "status": true,
                        "rlp": "0xf9010901830299f0b9010000000000000000000000000000000000000000000000000000000000000000000000000000000000000000000000000000000000000000000000000000000000000000000000000000000000000000000000000000000000000000000000000000000000000000000000000000000000000000000000000000000000000000000000000000000000000000000000000000000000000000000000000000000000000000000000000000000000000000000000000000000000000000000000000000000000000000000000000000000000000000000000000000000000000000000000000000000000000000000000000000000000000000000000000000000000c0"
                    }
                ],
                "rlp": "0xf902a4f9023ba01d21fb1739390907718f255e3ed6c3adb89d4dc090313eb226601d91c01ffc72a01dcc4de8dec75d7aab85b567b6ccd41ad312451b948a7413f0a142fd40d49347942adc25665018aa1fe0e6bc666dac8fc2697ff9baa06a0107f69677ca0f1b55a7b9126ca56a5ce75d25e8e7a944792431e13ce1b122a08ed821b9035992fa7487b886f56d444af0bd2b6e955e5411a202bb2375ac3190a0df127863bf62f8ca5ab90f902895371ad8eb65c7dbe288ea580ff47c96f2d014b901000000000000000000000000000000000000000000000000000000000000000000000000000000000000000000000000000000000000000000000000000000000000000000000000000000000000000000000000000000000000000000000000000000000000000000000000000000000000000000000000000000000000000000000000000000000000000000000000000000000000000000000000000000000000000000000000000000000000000000000000000000000000000000000000000000000000000000000000000000000000000000000000000000000000000000000000000000000000000000000000000000000000000000000000000000000080018401c9c380830299f08203e800a000000000000000000000000000000000000000000000000000000000000200008800000000000000000aa056e81f171bcc55a6ff8345e692c0f86e5b48e01b996cadc001622fb5e363b4218080a00000000000000000000000000000000000000000000000000000000000000000f862f860800a832dc6c09466227cf0a560e1f6f9e94345dd1b5c6758923ba6808026a017ae2468d3246238656d6875977506bfac901c41e3e3e18591eebfdbab23b42da074631980e65cdafd7f2442c3750ee548a383fd2f6381b24c912203467eb3786cc0c0",
                "blocknumber": "1"
            }
        ],
        "sealEngine": "NoProof",
        "_info": {
            "hash": "0x9ab2403d8c9a8a981c491f99987effc2f616da2e13579fe3452ec090c94bf4b7",
            "fixture-format": "blockchain_test",
            "comment": "`execution-specs` generated test",
            "filling-transition-tool": "2.19.0",
            "description": "Test_static_callcodecallcall_100_suicide_end2.",
            "url": "https://github.com/ethereum/execution-specs/blob/tests-sn\u00f8bal-devnet-4@v1.0.0/tests/ported_static/stStaticCall/test_static_callcodecallcall_100_suicide_end2.py#L25",
            "metadata": {
                "opcode_count": {}
            }
        }
    }
}