{
    "tests/static/state_tests/stRevertTest/RevertPrefoundEmpty_ParisFiller.json::RevertPrefoundEmpty_Paris[fork_Cancun-state_test-]": {
        "env": {
            "currentCoinbase": "0x2adc25665018aa1fe0e6bc666dac8fc2697ff9ba",
            "currentGasLimit": "0x989680",
            "currentNumber": "0x01",
            "currentTimestamp": "0x03e8",
            "currentRandom": "0x0000000000000000000000000000000000000000000000000000000000020000",
            "currentDifficulty": "0x00",
            "currentBaseFee": "0x0a",
            "currentExcessBlobGas": "0x00"
        },
        "pre": {
            "0xa94f5374fce5edbc8e2a8697c15331677e6ebf0b": {
                "nonce": "0x00",
                "balance": "0xe8d4a51000",
                "code": "0x",
                "storage": {}
            },
            "0x7db299e0885c85039f56fa504a13dd8ce8a56aa7": {
                "nonce": "0x00",
                "balance": "0x0a",
                "code": "0x",
                "storage": {}
            },
            "0xa000000000000000000000000000000000000000": {
                "nonce": "0x00",
                "balance": "0x01",
                "code": "0x602060006000f0600055600c60015500",
                "storage": {}
            }
        },
        "transaction": {
            "nonce": "0x00",
            "gasPrice": "0x0a",
            "gasLimit": [
                "0x0e57e0"
            ],
            "to": "0xa000000000000000000000000000000000000000",
            "value": [
                "0x00"
            ],
            "data": [
                "0x"
            ],
            "sender": "0xa94f5374fce5edbc8e2a8697c15331677e6ebf0b",
            "secretKey": "0x45a915e4d060149eb4365960e6a7a45f334393093061116b197e3240065ff2d8"
        },
        "post": {
            "Cancun": [
                {
                    "hash": "0x79d5591a76f56092b3ced73fba2020dc88c31c8802b66ec9d352642cda93565e",
                    "logs": "0x1dcc4de8dec75d7aab85b567b6ccd41ad312451b948a7413f0a142fd40d49347",
                    "txbytes": "0xf860800a830e57e094a000000000000000000000000000000000000000808026a05886ad8f84b0bdc2925442db1005cf03c21c9bc64ce52e66faea1fec3f9ee7fca06259b05cc9c88671149f538e233982edf2c382f5258a215c10a5c09661f63a51",
                    "indexes": {
                        "data": 0,
                        "gas": 0,
                        "value": 0
                    },
                    "state": {
                        "0xa94f5374fce5edbc8e2a8697c15331677e6ebf0b": {
                            "nonce": "0x01",
                            "balance": "0xe8d4963a3a",
                            "code": "0x",
                            "storage": {}
                        },
                        "0x7db299e0885c85039f56fa504a13dd8ce8a56aa7": {
                            "nonce": "0x01",
                            "balance": "0x0a",
                            "code": "0x",
                            "storage": {}
                        },
                        "0xa000000000000000000000000000000000000000": {
                            "nonce": "0x01",
                            "balance": "0x01",
                            "code": "0x602060006000f0600055600c60015500",
                            "storage": {
                                "0x00": "0x7db299e0885c85039f56fa504a13dd8ce8a56aa7",
                                "0x01": "0x0c"
                            }
                        }
                    }
                }
            ]
        },
        "config": {
            "blobSchedule": {
                "Cancun": {
                    "target": "0x03",
                    "max": "0x06",
                    "baseFeeUpdateFraction": "0x32f0ed"
                }
            },
            "chainid": "0x01"
        },
        "_info": {
            "hash": "0x586b3b3029d5bcc33f5421c443470cef89d956da2c54ecf70b11ba6561a9d391",
            "comment": "`execution-specs` generated test",
            "filling-transition-tool": "2.18.0rc6",
            "description": "No description available - add a docstring to the python test class or function.",
            "url": "",
            "fixture-format": "state_test"
        }
    },
    "tests/static/state_tests/stRevertTest/RevertPrefoundEmpty_ParisFiller.json::RevertPrefoundEmpty_Paris[fork_Osaka-state_test-]": {
        "env": {
            "currentCoinbase": "0x2adc25665018aa1fe0e6bc666dac8fc2697ff9ba",
            "currentGasLimit": "0x989680",
            "currentNumber": "0x01",
            "currentTimestamp": "0x03e8",
            "currentRandom": "0x0000000000000000000000000000000000000000000000000000000000020000",
            "currentDifficulty": "0x00",
            "currentBaseFee": "0x0a",
            "currentExcessBlobGas": "0x00"
        },
        "pre": {
            "0xa94f5374fce5edbc8e2a8697c15331677e6ebf0b": {
                "nonce": "0x00",
                "balance": "0xe8d4a51000",
                "code": "0x",
                "storage": {}
            },
            "0x7db299e0885c85039f56fa504a13dd8ce8a56aa7": {
                "nonce": "0x00",
                "balance": "0x0a",
                "code": "0x",
                "storage": {}
            },
            "0xa000000000000000000000000000000000000000": {
                "nonce": "0x00",
                "balance": "0x01",
                "code": "0x602060006000f0600055600c60015500",
                "storage": {}
            }
        },
        "transaction": {
            "nonce": "0x00",
            "gasPrice": "0x0a",
            "gasLimit": [
                "0x0e57e0"
            ],
            "to": "0xa000000000000000000000000000000000000000",
            "value": [
                "0x00"
            ],
            "data": [
                "0x"
            ],
            "sender": "0xa94f5374fce5edbc8e2a8697c15331677e6ebf0b",
            "secretKey": "0x45a915e4d060149eb4365960e6a7a45f334393093061116b197e3240065ff2d8"
        },
        "post": {
            "Osaka": [
                {
                    "hash": "0x79d5591a76f56092b3ced73fba2020dc88c31c8802b66ec9d352642cda93565e",
                    "logs": "0x1dcc4de8dec75d7aab85b567b6ccd41ad312451b948a7413f0a142fd40d49347",
                    "txbytes": "0xf860800a830e57e094a000000000000000000000000000000000000000808026a05886ad8f84b0bdc2925442db1005cf03c21c9bc64ce52e66faea1fec3f9ee7fca06259b05cc9c88671149f538e233982edf2c382f5258a215c10a5c09661f63a51",
                    "indexes": {
                        "data": 0,
                        "gas": 0,
                        "value": 0
                    },
                    "state": {
                        "0xa94f5374fce5edbc8e2a8697c15331677e6ebf0b": {
                            "nonce": "0x01",
                            "balance": "0xe8d4963a3a",
                            "code": "0x",
                            "storage": {}
                        },
                        "0x7db299e0885c85039f56fa504a13dd8ce8a56aa7": {
                            "nonce": "0x01",
                            "balance": "0x0a",
                            "code": "0x",
                            "storage": {}
                        },
                        "0xa000000000000000000000000000000000000000": {
                            "nonce": "0x01",
                            "balance": "0x01",
                            "code": "0x602060006000f0600055600c60015500",
                            "storage": {
                                "0x00": "0x7db299e0885c85039f56fa504a13dd8ce8a56aa7",
                                "0x01": "0x0c"
                            }
                        }
                    }
                }
            ]
        },
        "config": {
            "blobSchedule": {
                "Cancun": {
                    "target": "0x03",
                    "max": "0x06",
                    "baseFeeUpdateFraction": "0x32f0ed"
                },
                "Prague": {
                    "target": "0x06",
                    "max": "0x09",
                    "baseFeeUpdateFraction": "0x4c6964"
                },
                "Osaka": {
                    "target": "0x06",
                    "max": "0x09",
                    "baseFeeUpdateFraction": "0x4c6964"
                }
            },
            "chainid": "0x01"
        },
        "_info": {
            "hash": "0x6b761d4b5d2c6e4f82760b658671213c656f57652389a6a98e5d677bcc0c41f3",
            "comment": "`execution-specs` generated test",
            "filling-transition-tool": "2.18.0rc6",
            "description": "No description available - add a docstring to the python test class or function.",
            "url": "",
            "fixture-format": "state_test"
        }
    },
    "tests/static/state_tests/stRevertTest/RevertPrefoundEmpty_ParisFiller.json::RevertPrefoundEmpty_Paris[fork_Prague-state_test-]": {
        "env": {
            "currentCoinbase": "0x2adc25665018aa1fe0e6bc666dac8fc2697ff9ba",
            "currentGasLimit": "0x989680",
            "currentNumber": "0x01",
            "currentTimestamp": "0x03e8",
            "currentRandom": "0x0000000000000000000000000000000000000000000000000000000000020000",
            "currentDifficulty": "0x00",
            "currentBaseFee": "0x0a",
            "currentExcessBlobGas": "0x00"
        },
        "pre": {
            "0xa94f5374fce5edbc8e2a8697c15331677e6ebf0b": {
                "nonce": "0x00",
                "balance": "0xe8d4a51000",
                "code": "0x",
                "storage": {}
            },
            "0x7db299e0885c85039f56fa504a13dd8ce8a56aa7": {
                "nonce": "0x00",
                "balance": "0x0a",
                "code": "0x",
                "storage": {}
            },
            "0xa000000000000000000000000000000000000000": {
                "nonce": "0x00",
                "balance": "0x01",
                "code": "0x602060006000f0600055600c60015500",
                "storage": {}
            }
        },
        "transaction": {
            "nonce": "0x00",
            "gasPrice": "0x0a",
            "gasLimit": [
                "0x0e57e0"
            ],
            "to": "0xa000000000000000000000000000000000000000",
            "value": [
                "0x00"
            ],
            "data": [
                "0x"
            ],
            "sender": "0xa94f5374fce5edbc8e2a8697c15331677e6ebf0b",
            "secretKey": "0x45a915e4d060149eb4365960e6a7a45f334393093061116b197e3240065ff2d8"
        },
        "post": {
            "Prague": [
                {
                    "hash": "0x79d5591a76f56092b3ced73fba2020dc88c31c8802b66ec9d352642cda93565e",
                    "logs": "0x1dcc4de8dec75d7aab85b567b6ccd41ad312451b948a7413f0a142fd40d49347",
                    "txbytes": "0xf860800a830e57e094a000000000000000000000000000000000000000808026a05886ad8f84b0bdc2925442db1005cf03c21c9bc64ce52e66faea1fec3f9ee7fca06259b05cc9c88671149f538e233982edf2c382f5258a215c10a5c09661f63a51",
                    "indexes": {
                        "data": 0,
                        "gas": 0,
                        "value": 0
                    },
                    "state": {
                        "0xa94f5374fce5edbc8e2a8697c15331677e6ebf0b": {
                            "nonce": "0x01",
                            "balance": "0xe8d4963a3a",
                            "code": "0x",
                            "storage": {}
                        },
                        "0x7db299e0885c85039f56fa504a13dd8ce8a56aa7": {
                            "nonce": "0x01",
                            "balance": "0x0a",
                            "code": "0x",
                            "storage": {}
                        },
                        "0xa000000000000000000000000000000000000000": {
                            "nonce": "0x01",
                            "balance": "0x01",
                            "code": "0x602060006000f0600055600c60015500",
                            "storage": {
                                "0x00": "0x7db299e0885c85039f56fa504a13dd8ce8a56aa7",
                                "0x01": "0x0c"
                            }
                        }
                    }
                }
            ]
        },
        "config": {
            "blobSchedule": {
                "Cancun": {
                    "target": "0x03",
                    "max": "0x06",
                    "baseFeeUpdateFraction": "0x32f0ed"
                },
                "Prague": {
                    "target": "0x06",
                    "max": "0x09",
                    "baseFeeUpdateFraction": "0x4c6964"
                }
            },
            "chainid": "0x01"
        },
        "_info": {
            "hash": "0xaa0cd80b0b5f682c17c0826cfc24c8d68fbb550f6f2561eca2f49ae703a9a5ba",
            "comment": "`execution-specs` generated test",
            "filling-transition-tool": "2.18.0rc6",
            "description": "No description available - add a docstring to the python test class or function.",
            "url": "",
            "fixture-format": "state_test"
        }
    }
}