{
    "tests/static/state_tests/stRevertTest/RevertPrefoundCallOOGFiller.json::RevertPrefoundCallOOG[fork_Cancun-state_test-]": {
        "env": {
            "currentCoinbase": "0x2adc25665018aa1fe0e6bc666dac8fc2697ff9ba",
            "currentGasLimit": "0x989680",
            "currentNumber": "0x01",
            "currentTimestamp": "0x03e8",
            "currentRandom": "0x0000000000000000000000000000000000000000000000000000000000020000",
            "currentDifficulty": "0x00",
            "currentBaseFee": "0x0a",
            "currentExcessBlobGas": "0x00"
        },
        "pre": {
            "0x8792f17c37a46935da038a5c03624aa948824b2f": {
                "nonce": "0x00",
                "balance": "0x01",
                "code": "0x",
                "storage": {}
            },
            "0xb23a08fad4fa87e677b77eaf12b5ffa380d8df22": {
                "nonce": "0x00",
                "balance": "0x01",
                "code": "0x60206000602060006000738792f17c37a46935da038a5c03624aa948824b2f61c350f1600055600c600155600c60025500",
                "storage": {}
            },
            "0x31d1f8528ae4470e68afa492cc7dae61d682dfdf": {
                "nonce": "0x00",
                "balance": "0xe8d4a51000",
                "code": "0x",
                "storage": {}
            }
        },
        "transaction": {
            "nonce": "0x00",
            "gasPrice": "0x0a",
            "gasLimit": [
                "0xf618"
            ],
            "to": "0xb23a08fad4fa87e677b77eaf12b5ffa380d8df22",
            "value": [
                "0x00"
            ],
            "data": [
                "0x"
            ],
            "sender": "0x31d1f8528ae4470e68afa492cc7dae61d682dfdf",
            "secretKey": "0xa288c2b4f92a61d77ef09bb1b23a08fad4fa87e677b77eaf12b5ffa380d8df23"
        },
        "post": {
            "Cancun": [
                {
                    "hash": "0x1081bed3241475ea419e1ee259ada74007b443e66376f76376d29816cd42c269",
                    "logs": "0x1dcc4de8dec75d7aab85b567b6ccd41ad312451b948a7413f0a142fd40d49347",
                    "txbytes": "0xf85f800a82f61894b23a08fad4fa87e677b77eaf12b5ffa380d8df22808026a0698c7ed63088bf2d5bef026a7c2c216f218ee946381199f1b7ac72e7869d7360a00dd6c608ead9f14e4d2f00f6d632e9ef2737201e507b928b34f428391b093c04",
                    "indexes": {
                        "data": 0,
                        "gas": 0,
                        "value": 0
                    },
                    "state": {
                        "0x8792f17c37a46935da038a5c03624aa948824b2f": {
                            "nonce": "0x00",
                            "balance": "0x01",
                            "code": "0x",
                            "storage": {}
                        },
                        "0xb23a08fad4fa87e677b77eaf12b5ffa380d8df22": {
                            "nonce": "0x00",
                            "balance": "0x01",
                            "code": "0x60206000602060006000738792f17c37a46935da038a5c03624aa948824b2f61c350f1600055600c600155600c60025500",
                            "storage": {}
                        },
                        "0x31d1f8528ae4470e68afa492cc7dae61d682dfdf": {
                            "nonce": "0x01",
                            "balance": "0xe8d49b7310",
                            "code": "0x",
                            "storage": {}
                        }
                    }
                }
            ]
        },
        "config": {
            "blobSchedule": {
                "Cancun": {
                    "target": "0x03",
                    "max": "0x06",
                    "baseFeeUpdateFraction": "0x32f0ed"
                }
            },
            "chainid": "0x01"
        },
        "_info": {
            "hash": "0x6a0bfc9d292e3aa47ecc6804a1fb07bce5cb365011974b394ed4e075b153c8ec",
            "comment": "`execution-specs` generated test",
            "filling-transition-tool": "2.18.0rc6",
            "description": "No description available - add a docstring to the python test class or function.",
            "url": "",
            "fixture-format": "state_test"
        }
    },
    "tests/static/state_tests/stRevertTest/RevertPrefoundCallOOGFiller.json::RevertPrefoundCallOOG[fork_Osaka-state_test-]": {
        "env": {
            "currentCoinbase": "0x2adc25665018aa1fe0e6bc666dac8fc2697ff9ba",
            "currentGasLimit": "0x989680",
            "currentNumber": "0x01",
            "currentTimestamp": "0x03e8",
            "currentRandom": "0x0000000000000000000000000000000000000000000000000000000000020000",
            "currentDifficulty": "0x00",
            "currentBaseFee": "0x0a",
            "currentExcessBlobGas": "0x00"
        },
        "pre": {
            "0x8792f17c37a46935da038a5c03624aa948824b2f": {
                "nonce": "0x00",
                "balance": "0x01",
                "code": "0x",
                "storage": {}
            },
            "0xb23a08fad4fa87e677b77eaf12b5ffa380d8df22": {
                "nonce": "0x00",
                "balance": "0x01",
                "code": "0x60206000602060006000738792f17c37a46935da038a5c03624aa948824b2f61c350f1600055600c600155600c60025500",
                "storage": {}
            },
            "0x31d1f8528ae4470e68afa492cc7dae61d682dfdf": {
                "nonce": "0x00",
                "balance": "0xe8d4a51000",
                "code": "0x",
                "storage": {}
            }
        },
        "transaction": {
            "nonce": "0x00",
            "gasPrice": "0x0a",
            "gasLimit": [
                "0xf618"
            ],
            "to": "0xb23a08fad4fa87e677b77eaf12b5ffa380d8df22",
            "value": [
                "0x00"
            ],
            "data": [
                "0x"
            ],
            "sender": "0x31d1f8528ae4470e68afa492cc7dae61d682dfdf",
            "secretKey": "0xa288c2b4f92a61d77ef09bb1b23a08fad4fa87e677b77eaf12b5ffa380d8df23"
        },
        "post": {
            "Osaka": [
                {
                    "hash": "0x1081bed3241475ea419e1ee259ada74007b443e66376f76376d29816cd42c269",
                    "logs": "0x1dcc4de8dec75d7aab85b567b6ccd41ad312451b948a7413f0a142fd40d49347",
                    "txbytes": "0xf85f800a82f61894b23a08fad4fa87e677b77eaf12b5ffa380d8df22808026a0698c7ed63088bf2d5bef026a7c2c216f218ee946381199f1b7ac72e7869d7360a00dd6c608ead9f14e4d2f00f6d632e9ef2737201e507b928b34f428391b093c04",
                    "indexes": {
                        "data": 0,
                        "gas": 0,
                        "value": 0
                    },
                    "state": {
                        "0x8792f17c37a46935da038a5c03624aa948824b2f": {
                            "nonce": "0x00",
                            "balance": "0x01",
                            "code": "0x",
                            "storage": {}
                        },
                        "0xb23a08fad4fa87e677b77eaf12b5ffa380d8df22": {
                            "nonce": "0x00",
                            "balance": "0x01",
                            "code": "0x60206000602060006000738792f17c37a46935da038a5c03624aa948824b2f61c350f1600055600c600155600c60025500",
                            "storage": {}
                        },
                        "0x31d1f8528ae4470e68afa492cc7dae61d682dfdf": {
                            "nonce": "0x01",
                            "balance": "0xe8d49b7310",
                            "code": "0x",
                            "storage": {}
                        }
                    }
                }
            ]
        },
        "config": {
            "blobSchedule": {
                "Cancun": {
                    "target": "0x03",
                    "max": "0x06",
                    "baseFeeUpdateFraction": "0x32f0ed"
                },
                "Prague": {
                    "target": "0x06",
                    "max": "0x09",
                    "baseFeeUpdateFraction": "0x4c6964"
                },
                "Osaka": {
                    "target": "0x06",
                    "max": "0x09",
                    "baseFeeUpdateFraction": "0x4c6964"
                }
            },
            "chainid": "0x01"
        },
        "_info": {
            "hash": "0x424bd397e2f52c43ad06e6ff0e80f05aab3211eab0c5bae71c412fd85618517a",
            "comment": "`execution-specs` generated test",
            "filling-transition-tool": "2.18.0rc6",
            "description": "No description available - add a docstring to the python test class or function.",
            "url": "",
            "fixture-format": "state_test"
        }
    },
    "tests/static/state_tests/stRevertTest/RevertPrefoundCallOOGFiller.json::RevertPrefoundCallOOG[fork_Prague-state_test-]": {
        "env": {
            "currentCoinbase": "0x2adc25665018aa1fe0e6bc666dac8fc2697ff9ba",
            "currentGasLimit": "0x989680",
            "currentNumber": "0x01",
            "currentTimestamp": "0x03e8",
            "currentRandom": "0x0000000000000000000000000000000000000000000000000000000000020000",
            "currentDifficulty": "0x00",
            "currentBaseFee": "0x0a",
            "currentExcessBlobGas": "0x00"
        },
        "pre": {
            "0x8792f17c37a46935da038a5c03624aa948824b2f": {
                "nonce": "0x00",
                "balance": "0x01",
                "code": "0x",
                "storage": {}
            },
            "0xb23a08fad4fa87e677b77eaf12b5ffa380d8df22": {
                "nonce": "0x00",
                "balance": "0x01",
                "code": "0x60206000602060006000738792f17c37a46935da038a5c03624aa948824b2f61c350f1600055600c600155600c60025500",
                "storage": {}
            },
            "0x31d1f8528ae4470e68afa492cc7dae61d682dfdf": {
                "nonce": "0x00",
                "balance": "0xe8d4a51000",
                "code": "0x",
                "storage": {}
            }
        },
        "transaction": {
            "nonce": "0x00",
            "gasPrice": "0x0a",
            "gasLimit": [
                "0xf618"
            ],
            "to": "0xb23a08fad4fa87e677b77eaf12b5ffa380d8df22",
            "value": [
                "0x00"
            ],
            "data": [
                "0x"
            ],
            "sender": "0x31d1f8528ae4470e68afa492cc7dae61d682dfdf",
            "secretKey": "0xa288c2b4f92a61d77ef09bb1b23a08fad4fa87e677b77eaf12b5ffa380d8df23"
        },
        "post": {
            "Prague": [
                {
                    "hash": "0x1081bed3241475ea419e1ee259ada74007b443e66376f76376d29816cd42c269",
                    "logs": "0x1dcc4de8dec75d7aab85b567b6ccd41ad312451b948a7413f0a142fd40d49347",
                    "txbytes": "0xf85f800a82f61894b23a08fad4fa87e677b77eaf12b5ffa380d8df22808026a0698c7ed63088bf2d5bef026a7c2c216f218ee946381199f1b7ac72e7869d7360a00dd6c608ead9f14e4d2f00f6d632e9ef2737201e507b928b34f428391b093c04",
                    "indexes": {
                        "data": 0,
                        "gas": 0,
                        "value": 0
                    },
                    "state": {
                        "0x8792f17c37a46935da038a5c03624aa948824b2f": {
                            "nonce": "0x00",
                            "balance": "0x01",
                            "code": "0x",
                            "storage": {}
                        },
                        "0xb23a08fad4fa87e677b77eaf12b5ffa380d8df22": {
                            "nonce": "0x00",
                            "balance": "0x01",
                            "code": "0x60206000602060006000738792f17c37a46935da038a5c03624aa948824b2f61c350f1600055600c600155600c60025500",
                            "storage": {}
                        },
                        "0x31d1f8528ae4470e68afa492cc7dae61d682dfdf": {
                            "nonce": "0x01",
                            "balance": "0xe8d49b7310",
                            "code": "0x",
                            "storage": {}
                        }
                    }
                }
            ]
        },
        "config": {
            "blobSchedule": {
                "Cancun": {
                    "target": "0x03",
                    "max": "0x06",
                    "baseFeeUpdateFraction": "0x32f0ed"
                },
                "Prague": {
                    "target": "0x06",
                    "max": "0x09",
                    "baseFeeUpdateFraction": "0x4c6964"
                }
            },
            "chainid": "0x01"
        },
        "_info": {
            "hash": "0x1f61ace90a5e970b1df24bc80b4fc5b3e9a56db71840da99e42e4742a8559ea7",
            "comment": "`execution-specs` generated test",
            "filling-transition-tool": "2.18.0rc6",
            "description": "No description available - add a docstring to the python test class or function.",
            "url": "",
            "fixture-format": "state_test"
        }
    }
}