{
    "tests/static/state_tests/stRevertTest/RevertOpcodeDirectCallFiller.json::RevertOpcodeDirectCall[fork_Cancun-state_test--g0]": {
        "env": {
            "currentCoinbase": "0x2adc25665018aa1fe0e6bc666dac8fc2697ff9ba",
            "currentGasLimit": "0x989680",
            "currentNumber": "0x01",
            "currentTimestamp": "0x03e8",
            "currentRandom": "0x0000000000000000000000000000000000000000000000000000000000020000",
            "currentDifficulty": "0x00",
            "currentBaseFee": "0x0a",
            "currentExcessBlobGas": "0x00"
        },
        "pre": {
            "0x053734496e3ae178667fb42cafdf416d8e5ef757": {
                "nonce": "0x00",
                "balance": "0x01",
                "code": "0x600c60015560016000fd600d60035500",
                "storage": {}
            },
            "0x053734496e3ae178667fb42cafdf416d8e5ef857": {
                "nonce": "0x00",
                "balance": "0x01",
                "code": "0x6000600060006000600073053734496e3ae178667fb42cafdf416d8e5ef75761c350f1600055600e60025500",
                "storage": {}
            },
            "0x053734496e3ae178667fb42cafdf416d8e5ef957": {
                "nonce": "0x00",
                "balance": "0x01",
                "code": "0x6000600060006000600060003561ea60f1600a5500",
                "storage": {}
            },
            "0x2a5128a1e692a06c7281e9eae0e759fe9633e472": {
                "nonce": "0x00",
                "balance": "0xe8d4a51000",
                "code": "0x",
                "storage": {}
            }
        },
        "transaction": {
            "nonce": "0x00",
            "gasPrice": "0x0a",
            "gasLimit": [
                "0x0704e0"
            ],
            "to": "0x053734496e3ae178667fb42cafdf416d8e5ef857",
            "value": [
                "0x00"
            ],
            "data": [
                "0x000000000000000000000000053734496e3ae178667fb42cafdf416d8e5ef857"
            ],
            "sender": "0x2a5128a1e692a06c7281e9eae0e759fe9633e472",
            "secretKey": "0xbe1a29fbf7632fe2fa98eccc053734496e3ae178667fb42cafdf416d8e5ef757"
        },
        "post": {
            "Cancun": [
                {
                    "hash": "0x212994f2fd091392116d56cabd2aed7f154781213074ed542def321ed86b3ed9",
                    "logs": "0x1dcc4de8dec75d7aab85b567b6ccd41ad312451b948a7413f0a142fd40d49347",
                    "txbytes": "0xf880800a830704e094053734496e3ae178667fb42cafdf416d8e5ef85780a0000000000000000000000000053734496e3ae178667fb42cafdf416d8e5ef85725a0bbaf66ab24d780682d18769890cb4a692c195de18983d9e9de693d714612c3b8a0749a0ea4f16475a03886056dc5a39090d08b26b4e29a779a852c08da97aeb63f",
                    "indexes": {
                        "data": 0,
                        "gas": 0,
                        "value": 0
                    },
                    "state": {
                        "0x053734496e3ae178667fb42cafdf416d8e5ef757": {
                            "nonce": "0x00",
                            "balance": "0x01",
                            "code": "0x600c60015560016000fd600d60035500",
                            "storage": {}
                        },
                        "0x053734496e3ae178667fb42cafdf416d8e5ef857": {
                            "nonce": "0x00",
                            "balance": "0x01",
                            "code": "0x6000600060006000600073053734496e3ae178667fb42cafdf416d8e5ef75761c350f1600055600e60025500",
                            "storage": {
                                "0x02": "0x0e"
                            }
                        },
                        "0x053734496e3ae178667fb42cafdf416d8e5ef957": {
                            "nonce": "0x00",
                            "balance": "0x01",
                            "code": "0x6000600060006000600060003561ea60f1600a5500",
                            "storage": {}
                        },
                        "0x2a5128a1e692a06c7281e9eae0e759fe9633e472": {
                            "nonce": "0x01",
                            "balance": "0xe8d49a517e",
                            "code": "0x",
                            "storage": {}
                        }
                    }
                }
            ]
        },
        "config": {
            "blobSchedule": {
                "Cancun": {
                    "target": "0x03",
                    "max": "0x06",
                    "baseFeeUpdateFraction": "0x32f0ed"
                }
            },
            "chainid": "0x01"
        },
        "_info": {
            "hash": "0xb18e26d4987c55bdb9c10f6236fa16f8bc4fcc6e1d5b2aa74959e60faa5e19d4",
            "comment": "`execution-spec-tests` generated test",
            "filling-transition-tool": "ethereum-spec-evm-resolver 0.0.5",
            "description": "No description available - add a docstring to the python test class or function.",
            "url": "",
            "fixture-format": "state_test",
            "eels-resolution": {
                "git-url": "https://github.com/ethereum/execution-specs.git",
                "branch": "forks/bpos",
                "commit": "7aacb2c54111391af5e98c505d5010b5698a770f"
            }
        }
    },
    "tests/static/state_tests/stRevertTest/RevertOpcodeDirectCallFiller.json::RevertOpcodeDirectCall[fork_Cancun-state_test--g1]": {
        "env": {
            "currentCoinbase": "0x2adc25665018aa1fe0e6bc666dac8fc2697ff9ba",
            "currentGasLimit": "0x989680",
            "currentNumber": "0x01",
            "currentTimestamp": "0x03e8",
            "currentRandom": "0x0000000000000000000000000000000000000000000000000000000000020000",
            "currentDifficulty": "0x00",
            "currentBaseFee": "0x0a",
            "currentExcessBlobGas": "0x00"
        },
        "pre": {
            "0xfc4ba4b0ad2289f29f83854a6c3596e57b6be2ce": {
                "nonce": "0x00",
                "balance": "0x01",
                "code": "0x600c60015560016000fd600d60035500",
                "storage": {}
            },
            "0xfc4ba4b0ad2289f29f83854a6c3596e57b6be3ce": {
                "nonce": "0x00",
                "balance": "0x01",
                "code": "0x6000600060006000600073fc4ba4b0ad2289f29f83854a6c3596e57b6be2ce61c350f1600055600e60025500",
                "storage": {}
            },
            "0xfc4ba4b0ad2289f29f83854a6c3596e57b6be4ce": {
                "nonce": "0x00",
                "balance": "0x01",
                "code": "0x6000600060006000600060003561ea60f1600a5500",
                "storage": {}
            },
            "0x949810e3163bb44fcdbc861483b661509a7203b6": {
                "nonce": "0x00",
                "balance": "0xe8d4a51000",
                "code": "0x",
                "storage": {}
            }
        },
        "transaction": {
            "nonce": "0x00",
            "gasPrice": "0x0a",
            "gasLimit": [
                "0xf5c0"
            ],
            "to": "0xfc4ba4b0ad2289f29f83854a6c3596e57b6be3ce",
            "value": [
                "0x00"
            ],
            "data": [
                "0x000000000000000000000000fc4ba4b0ad2289f29f83854a6c3596e57b6be3ce"
            ],
            "sender": "0x949810e3163bb44fcdbc861483b661509a7203b6",
            "secretKey": "0x4b3804b9b4e9e59c2a3dc985fc4ba4b0ad2289f29f83854a6c3596e57b6be2ce"
        },
        "post": {
            "Cancun": [
                {
                    "hash": "0xbac5381e8afcbb0f43f412dac6f7864ac85ec2097f6660a1d5aa656d7eb315c2",
                    "logs": "0x1dcc4de8dec75d7aab85b567b6ccd41ad312451b948a7413f0a142fd40d49347",
                    "txbytes": "0xf87f800a82f5c094fc4ba4b0ad2289f29f83854a6c3596e57b6be3ce80a0000000000000000000000000fc4ba4b0ad2289f29f83854a6c3596e57b6be3ce25a0224be6aa67bd23574a0d0e158fd5a03f045b906b0c90756d548a2fd2571c5f77a04c722ed2d43aa1e0a927c0c0bcadf5eae17ab82121abdd708d132feb52056aa4",
                    "indexes": {
                        "data": 0,
                        "gas": 0,
                        "value": 0
                    },
                    "state": {
                        "0xfc4ba4b0ad2289f29f83854a6c3596e57b6be2ce": {
                            "nonce": "0x00",
                            "balance": "0x01",
                            "code": "0x600c60015560016000fd600d60035500",
                            "storage": {}
                        },
                        "0xfc4ba4b0ad2289f29f83854a6c3596e57b6be3ce": {
                            "nonce": "0x00",
                            "balance": "0x01",
                            "code": "0x6000600060006000600073fc4ba4b0ad2289f29f83854a6c3596e57b6be2ce61c350f1600055600e60025500",
                            "storage": {}
                        },
                        "0xfc4ba4b0ad2289f29f83854a6c3596e57b6be4ce": {
                            "nonce": "0x00",
                            "balance": "0x01",
                            "code": "0x6000600060006000600060003561ea60f1600a5500",
                            "storage": {}
                        },
                        "0x949810e3163bb44fcdbc861483b661509a7203b6": {
                            "nonce": "0x01",
                            "balance": "0xe8d49b7680",
                            "code": "0x",
                            "storage": {}
                        }
                    }
                }
            ]
        },
        "config": {
            "blobSchedule": {
                "Cancun": {
                    "target": "0x03",
                    "max": "0x06",
                    "baseFeeUpdateFraction": "0x32f0ed"
                }
            },
            "chainid": "0x01"
        },
        "_info": {
            "hash": "0x2d2c19bb3204d3f4b38fee015acfcafae36a77806b82b7b058b5c8e4939948c3",
            "comment": "`execution-spec-tests` generated test",
            "filling-transition-tool": "ethereum-spec-evm-resolver 0.0.5",
            "description": "No description available - add a docstring to the python test class or function.",
            "url": "",
            "fixture-format": "state_test",
            "eels-resolution": {
                "git-url": "https://github.com/ethereum/execution-specs.git",
                "branch": "forks/bpos",
                "commit": "7aacb2c54111391af5e98c505d5010b5698a770f"
            }
        }
    },
    "tests/static/state_tests/stRevertTest/RevertOpcodeDirectCallFiller.json::RevertOpcodeDirectCall[fork_Osaka-state_test--g0]": {
        "env": {
            "currentCoinbase": "0x2adc25665018aa1fe0e6bc666dac8fc2697ff9ba",
            "currentGasLimit": "0x989680",
            "currentNumber": "0x01",
            "currentTimestamp": "0x03e8",
            "currentRandom": "0x0000000000000000000000000000000000000000000000000000000000020000",
            "currentDifficulty": "0x00",
            "currentBaseFee": "0x0a",
            "currentExcessBlobGas": "0x00"
        },
        "pre": {
            "0x053734496e3ae178667fb42cafdf416d8e5ef757": {
                "nonce": "0x00",
                "balance": "0x01",
                "code": "0x600c60015560016000fd600d60035500",
                "storage": {}
            },
            "0x053734496e3ae178667fb42cafdf416d8e5ef857": {
                "nonce": "0x00",
                "balance": "0x01",
                "code": "0x6000600060006000600073053734496e3ae178667fb42cafdf416d8e5ef75761c350f1600055600e60025500",
                "storage": {}
            },
            "0x053734496e3ae178667fb42cafdf416d8e5ef957": {
                "nonce": "0x00",
                "balance": "0x01",
                "code": "0x6000600060006000600060003561ea60f1600a5500",
                "storage": {}
            },
            "0x2a5128a1e692a06c7281e9eae0e759fe9633e472": {
                "nonce": "0x00",
                "balance": "0xe8d4a51000",
                "code": "0x",
                "storage": {}
            }
        },
        "transaction": {
            "nonce": "0x00",
            "gasPrice": "0x0a",
            "gasLimit": [
                "0x0704e0"
            ],
            "to": "0x053734496e3ae178667fb42cafdf416d8e5ef857",
            "value": [
                "0x00"
            ],
            "data": [
                "0x000000000000000000000000053734496e3ae178667fb42cafdf416d8e5ef857"
            ],
            "sender": "0x2a5128a1e692a06c7281e9eae0e759fe9633e472",
            "secretKey": "0xbe1a29fbf7632fe2fa98eccc053734496e3ae178667fb42cafdf416d8e5ef757"
        },
        "post": {
            "Osaka": [
                {
                    "hash": "0x212994f2fd091392116d56cabd2aed7f154781213074ed542def321ed86b3ed9",
                    "logs": "0x1dcc4de8dec75d7aab85b567b6ccd41ad312451b948a7413f0a142fd40d49347",
                    "txbytes": "0xf880800a830704e094053734496e3ae178667fb42cafdf416d8e5ef85780a0000000000000000000000000053734496e3ae178667fb42cafdf416d8e5ef85725a0bbaf66ab24d780682d18769890cb4a692c195de18983d9e9de693d714612c3b8a0749a0ea4f16475a03886056dc5a39090d08b26b4e29a779a852c08da97aeb63f",
                    "indexes": {
                        "data": 0,
                        "gas": 0,
                        "value": 0
                    },
                    "state": {
                        "0x053734496e3ae178667fb42cafdf416d8e5ef757": {
                            "nonce": "0x00",
                            "balance": "0x01",
                            "code": "0x600c60015560016000fd600d60035500",
                            "storage": {}
                        },
                        "0x053734496e3ae178667fb42cafdf416d8e5ef857": {
                            "nonce": "0x00",
                            "balance": "0x01",
                            "code": "0x6000600060006000600073053734496e3ae178667fb42cafdf416d8e5ef75761c350f1600055600e60025500",
                            "storage": {
                                "0x02": "0x0e"
                            }
                        },
                        "0x053734496e3ae178667fb42cafdf416d8e5ef957": {
                            "nonce": "0x00",
                            "balance": "0x01",
                            "code": "0x6000600060006000600060003561ea60f1600a5500",
                            "storage": {}
                        },
                        "0x2a5128a1e692a06c7281e9eae0e759fe9633e472": {
                            "nonce": "0x01",
                            "balance": "0xe8d49a517e",
                            "code": "0x",
                            "storage": {}
                        }
                    }
                }
            ]
        },
        "config": {
            "blobSchedule": {
                "Cancun": {
                    "target": "0x03",
                    "max": "0x06",
                    "baseFeeUpdateFraction": "0x32f0ed"
                },
                "Prague": {
                    "target": "0x06",
                    "max": "0x09",
                    "baseFeeUpdateFraction": "0x4c6964"
                },
                "Osaka": {
                    "target": "0x06",
                    "max": "0x09",
                    "baseFeeUpdateFraction": "0x4c6964"
                }
            },
            "chainid": "0x01"
        },
        "_info": {
            "hash": "0xa32eb9cf85784a2fc4876e1fe19190b44c64d78c478cc3a5127b98c521a8fd62",
            "comment": "`execution-spec-tests` generated test",
            "filling-transition-tool": "ethereum-spec-evm-resolver 0.0.5",
            "description": "No description available - add a docstring to the python test class or function.",
            "url": "",
            "fixture-format": "state_test",
            "eels-resolution": {
                "git-url": "https://github.com/ethereum/execution-specs.git",
                "branch": "forks/bpos",
                "commit": "7aacb2c54111391af5e98c505d5010b5698a770f"
            }
        }
    },
    "tests/static/state_tests/stRevertTest/RevertOpcodeDirectCallFiller.json::RevertOpcodeDirectCall[fork_Osaka-state_test--g1]": {
        "env": {
            "currentCoinbase": "0x2adc25665018aa1fe0e6bc666dac8fc2697ff9ba",
            "currentGasLimit": "0x989680",
            "currentNumber": "0x01",
            "currentTimestamp": "0x03e8",
            "currentRandom": "0x0000000000000000000000000000000000000000000000000000000000020000",
            "currentDifficulty": "0x00",
            "currentBaseFee": "0x0a",
            "currentExcessBlobGas": "0x00"
        },
        "pre": {
            "0xfc4ba4b0ad2289f29f83854a6c3596e57b6be2ce": {
                "nonce": "0x00",
                "balance": "0x01",
                "code": "0x600c60015560016000fd600d60035500",
                "storage": {}
            },
            "0xfc4ba4b0ad2289f29f83854a6c3596e57b6be3ce": {
                "nonce": "0x00",
                "balance": "0x01",
                "code": "0x6000600060006000600073fc4ba4b0ad2289f29f83854a6c3596e57b6be2ce61c350f1600055600e60025500",
                "storage": {}
            },
            "0xfc4ba4b0ad2289f29f83854a6c3596e57b6be4ce": {
                "nonce": "0x00",
                "balance": "0x01",
                "code": "0x6000600060006000600060003561ea60f1600a5500",
                "storage": {}
            },
            "0x949810e3163bb44fcdbc861483b661509a7203b6": {
                "nonce": "0x00",
                "balance": "0xe8d4a51000",
                "code": "0x",
                "storage": {}
            }
        },
        "transaction": {
            "nonce": "0x00",
            "gasPrice": "0x0a",
            "gasLimit": [
                "0xf5c0"
            ],
            "to": "0xfc4ba4b0ad2289f29f83854a6c3596e57b6be3ce",
            "value": [
                "0x00"
            ],
            "data": [
                "0x000000000000000000000000fc4ba4b0ad2289f29f83854a6c3596e57b6be3ce"
            ],
            "sender": "0x949810e3163bb44fcdbc861483b661509a7203b6",
            "secretKey": "0x4b3804b9b4e9e59c2a3dc985fc4ba4b0ad2289f29f83854a6c3596e57b6be2ce"
        },
        "post": {
            "Osaka": [
                {
                    "hash": "0xbac5381e8afcbb0f43f412dac6f7864ac85ec2097f6660a1d5aa656d7eb315c2",
                    "logs": "0x1dcc4de8dec75d7aab85b567b6ccd41ad312451b948a7413f0a142fd40d49347",
                    "txbytes": "0xf87f800a82f5c094fc4ba4b0ad2289f29f83854a6c3596e57b6be3ce80a0000000000000000000000000fc4ba4b0ad2289f29f83854a6c3596e57b6be3ce25a0224be6aa67bd23574a0d0e158fd5a03f045b906b0c90756d548a2fd2571c5f77a04c722ed2d43aa1e0a927c0c0bcadf5eae17ab82121abdd708d132feb52056aa4",
                    "indexes": {
                        "data": 0,
                        "gas": 0,
                        "value": 0
                    },
                    "state": {
                        "0xfc4ba4b0ad2289f29f83854a6c3596e57b6be2ce": {
                            "nonce": "0x00",
                            "balance": "0x01",
                            "code": "0x600c60015560016000fd600d60035500",
                            "storage": {}
                        },
                        "0xfc4ba4b0ad2289f29f83854a6c3596e57b6be3ce": {
                            "nonce": "0x00",
                            "balance": "0x01",
                            "code": "0x6000600060006000600073fc4ba4b0ad2289f29f83854a6c3596e57b6be2ce61c350f1600055600e60025500",
                            "storage": {}
                        },
                        "0xfc4ba4b0ad2289f29f83854a6c3596e57b6be4ce": {
                            "nonce": "0x00",
                            "balance": "0x01",
                            "code": "0x6000600060006000600060003561ea60f1600a5500",
                            "storage": {}
                        },
                        "0x949810e3163bb44fcdbc861483b661509a7203b6": {
                            "nonce": "0x01",
                            "balance": "0xe8d49b7680",
                            "code": "0x",
                            "storage": {}
                        }
                    }
                }
            ]
        },
        "config": {
            "blobSchedule": {
                "Cancun": {
                    "target": "0x03",
                    "max": "0x06",
                    "baseFeeUpdateFraction": "0x32f0ed"
                },
                "Prague": {
                    "target": "0x06",
                    "max": "0x09",
                    "baseFeeUpdateFraction": "0x4c6964"
                },
                "Osaka": {
                    "target": "0x06",
                    "max": "0x09",
                    "baseFeeUpdateFraction": "0x4c6964"
                }
            },
            "chainid": "0x01"
        },
        "_info": {
            "hash": "0x4662b17f3a2f60aa95e7cfc4f38582579a8ed4dc330e70c705ef148591011c4b",
            "comment": "`execution-spec-tests` generated test",
            "filling-transition-tool": "ethereum-spec-evm-resolver 0.0.5",
            "description": "No description available - add a docstring to the python test class or function.",
            "url": "",
            "fixture-format": "state_test",
            "eels-resolution": {
                "git-url": "https://github.com/ethereum/execution-specs.git",
                "branch": "forks/bpos",
                "commit": "7aacb2c54111391af5e98c505d5010b5698a770f"
            }
        }
    },
    "tests/static/state_tests/stRevertTest/RevertOpcodeDirectCallFiller.json::RevertOpcodeDirectCall[fork_Prague-state_test--g0]": {
        "env": {
            "currentCoinbase": "0x2adc25665018aa1fe0e6bc666dac8fc2697ff9ba",
            "currentGasLimit": "0x989680",
            "currentNumber": "0x01",
            "currentTimestamp": "0x03e8",
            "currentRandom": "0x0000000000000000000000000000000000000000000000000000000000020000",
            "currentDifficulty": "0x00",
            "currentBaseFee": "0x0a",
            "currentExcessBlobGas": "0x00"
        },
        "pre": {
            "0x053734496e3ae178667fb42cafdf416d8e5ef757": {
                "nonce": "0x00",
                "balance": "0x01",
                "code": "0x600c60015560016000fd600d60035500",
                "storage": {}
            },
            "0x053734496e3ae178667fb42cafdf416d8e5ef857": {
                "nonce": "0x00",
                "balance": "0x01",
                "code": "0x6000600060006000600073053734496e3ae178667fb42cafdf416d8e5ef75761c350f1600055600e60025500",
                "storage": {}
            },
            "0x053734496e3ae178667fb42cafdf416d8e5ef957": {
                "nonce": "0x00",
                "balance": "0x01",
                "code": "0x6000600060006000600060003561ea60f1600a5500",
                "storage": {}
            },
            "0x2a5128a1e692a06c7281e9eae0e759fe9633e472": {
                "nonce": "0x00",
                "balance": "0xe8d4a51000",
                "code": "0x",
                "storage": {}
            }
        },
        "transaction": {
            "nonce": "0x00",
            "gasPrice": "0x0a",
            "gasLimit": [
                "0x0704e0"
            ],
            "to": "0x053734496e3ae178667fb42cafdf416d8e5ef857",
            "value": [
                "0x00"
            ],
            "data": [
                "0x000000000000000000000000053734496e3ae178667fb42cafdf416d8e5ef857"
            ],
            "sender": "0x2a5128a1e692a06c7281e9eae0e759fe9633e472",
            "secretKey": "0xbe1a29fbf7632fe2fa98eccc053734496e3ae178667fb42cafdf416d8e5ef757"
        },
        "post": {
            "Prague": [
                {
                    "hash": "0x212994f2fd091392116d56cabd2aed7f154781213074ed542def321ed86b3ed9",
                    "logs": "0x1dcc4de8dec75d7aab85b567b6ccd41ad312451b948a7413f0a142fd40d49347",
                    "txbytes": "0xf880800a830704e094053734496e3ae178667fb42cafdf416d8e5ef85780a0000000000000000000000000053734496e3ae178667fb42cafdf416d8e5ef85725a0bbaf66ab24d780682d18769890cb4a692c195de18983d9e9de693d714612c3b8a0749a0ea4f16475a03886056dc5a39090d08b26b4e29a779a852c08da97aeb63f",
                    "indexes": {
                        "data": 0,
                        "gas": 0,
                        "value": 0
                    },
                    "state": {
                        "0x053734496e3ae178667fb42cafdf416d8e5ef757": {
                            "nonce": "0x00",
                            "balance": "0x01",
                            "code": "0x600c60015560016000fd600d60035500",
                            "storage": {}
                        },
                        "0x053734496e3ae178667fb42cafdf416d8e5ef857": {
                            "nonce": "0x00",
                            "balance": "0x01",
                            "code": "0x6000600060006000600073053734496e3ae178667fb42cafdf416d8e5ef75761c350f1600055600e60025500",
                            "storage": {
                                "0x02": "0x0e"
                            }
                        },
                        "0x053734496e3ae178667fb42cafdf416d8e5ef957": {
                            "nonce": "0x00",
                            "balance": "0x01",
                            "code": "0x6000600060006000600060003561ea60f1600a5500",
                            "storage": {}
                        },
                        "0x2a5128a1e692a06c7281e9eae0e759fe9633e472": {
                            "nonce": "0x01",
                            "balance": "0xe8d49a517e",
                            "code": "0x",
                            "storage": {}
                        }
                    }
                }
            ]
        },
        "config": {
            "blobSchedule": {
                "Cancun": {
                    "target": "0x03",
                    "max": "0x06",
                    "baseFeeUpdateFraction": "0x32f0ed"
                },
                "Prague": {
                    "target": "0x06",
                    "max": "0x09",
                    "baseFeeUpdateFraction": "0x4c6964"
                }
            },
            "chainid": "0x01"
        },
        "_info": {
            "hash": "0x81aab88216794b6cdc05df7d2e5523681527b546ecf44b6ecde85c783077775d",
            "comment": "`execution-spec-tests` generated test",
            "filling-transition-tool": "ethereum-spec-evm-resolver 0.0.5",
            "description": "No description available - add a docstring to the python test class or function.",
            "url": "",
            "fixture-format": "state_test",
            "eels-resolution": {
                "git-url": "https://github.com/ethereum/execution-specs.git",
                "branch": "forks/bpos",
                "commit": "7aacb2c54111391af5e98c505d5010b5698a770f"
            }
        }
    },
    "tests/static/state_tests/stRevertTest/RevertOpcodeDirectCallFiller.json::RevertOpcodeDirectCall[fork_Prague-state_test--g1]": {
        "env": {
            "currentCoinbase": "0x2adc25665018aa1fe0e6bc666dac8fc2697ff9ba",
            "currentGasLimit": "0x989680",
            "currentNumber": "0x01",
            "currentTimestamp": "0x03e8",
            "currentRandom": "0x0000000000000000000000000000000000000000000000000000000000020000",
            "currentDifficulty": "0x00",
            "currentBaseFee": "0x0a",
            "currentExcessBlobGas": "0x00"
        },
        "pre": {
            "0xfc4ba4b0ad2289f29f83854a6c3596e57b6be2ce": {
                "nonce": "0x00",
                "balance": "0x01",
                "code": "0x600c60015560016000fd600d60035500",
                "storage": {}
            },
            "0xfc4ba4b0ad2289f29f83854a6c3596e57b6be3ce": {
                "nonce": "0x00",
                "balance": "0x01",
                "code": "0x6000600060006000600073fc4ba4b0ad2289f29f83854a6c3596e57b6be2ce61c350f1600055600e60025500",
                "storage": {}
            },
            "0xfc4ba4b0ad2289f29f83854a6c3596e57b6be4ce": {
                "nonce": "0x00",
                "balance": "0x01",
                "code": "0x6000600060006000600060003561ea60f1600a5500",
                "storage": {}
            },
            "0x949810e3163bb44fcdbc861483b661509a7203b6": {
                "nonce": "0x00",
                "balance": "0xe8d4a51000",
                "code": "0x",
                "storage": {}
            }
        },
        "transaction": {
            "nonce": "0x00",
            "gasPrice": "0x0a",
            "gasLimit": [
                "0xf5c0"
            ],
            "to": "0xfc4ba4b0ad2289f29f83854a6c3596e57b6be3ce",
            "value": [
                "0x00"
            ],
            "data": [
                "0x000000000000000000000000fc4ba4b0ad2289f29f83854a6c3596e57b6be3ce"
            ],
            "sender": "0x949810e3163bb44fcdbc861483b661509a7203b6",
            "secretKey": "0x4b3804b9b4e9e59c2a3dc985fc4ba4b0ad2289f29f83854a6c3596e57b6be2ce"
        },
        "post": {
            "Prague": [
                {
                    "hash": "0xbac5381e8afcbb0f43f412dac6f7864ac85ec2097f6660a1d5aa656d7eb315c2",
                    "logs": "0x1dcc4de8dec75d7aab85b567b6ccd41ad312451b948a7413f0a142fd40d49347",
                    "txbytes": "0xf87f800a82f5c094fc4ba4b0ad2289f29f83854a6c3596e57b6be3ce80a0000000000000000000000000fc4ba4b0ad2289f29f83854a6c3596e57b6be3ce25a0224be6aa67bd23574a0d0e158fd5a03f045b906b0c90756d548a2fd2571c5f77a04c722ed2d43aa1e0a927c0c0bcadf5eae17ab82121abdd708d132feb52056aa4",
                    "indexes": {
                        "data": 0,
                        "gas": 0,
                        "value": 0
                    },
                    "state": {
                        "0xfc4ba4b0ad2289f29f83854a6c3596e57b6be2ce": {
                            "nonce": "0x00",
                            "balance": "0x01",
                            "code": "0x600c60015560016000fd600d60035500",
                            "storage": {}
                        },
                        "0xfc4ba4b0ad2289f29f83854a6c3596e57b6be3ce": {
                            "nonce": "0x00",
                            "balance": "0x01",
                            "code": "0x6000600060006000600073fc4ba4b0ad2289f29f83854a6c3596e57b6be2ce61c350f1600055600e60025500",
                            "storage": {}
                        },
                        "0xfc4ba4b0ad2289f29f83854a6c3596e57b6be4ce": {
                            "nonce": "0x00",
                            "balance": "0x01",
                            "code": "0x6000600060006000600060003561ea60f1600a5500",
                            "storage": {}
                        },
                        "0x949810e3163bb44fcdbc861483b661509a7203b6": {
                            "nonce": "0x01",
                            "balance": "0xe8d49b7680",
                            "code": "0x",
                            "storage": {}
                        }
                    }
                }
            ]
        },
        "config": {
            "blobSchedule": {
                "Cancun": {
                    "target": "0x03",
                    "max": "0x06",
                    "baseFeeUpdateFraction": "0x32f0ed"
                },
                "Prague": {
                    "target": "0x06",
                    "max": "0x09",
                    "baseFeeUpdateFraction": "0x4c6964"
                }
            },
            "chainid": "0x01"
        },
        "_info": {
            "hash": "0xc8d9a567b398dffadc903dcc323db13cbf07a969723db80976cd600ceab5f01d",
            "comment": "`execution-spec-tests` generated test",
            "filling-transition-tool": "ethereum-spec-evm-resolver 0.0.5",
            "description": "No description available - add a docstring to the python test class or function.",
            "url": "",
            "fixture-format": "state_test",
            "eels-resolution": {
                "git-url": "https://github.com/ethereum/execution-specs.git",
                "branch": "forks/bpos",
                "commit": "7aacb2c54111391af5e98c505d5010b5698a770f"
            }
        }
    }
}