{
    "tests/ported_static/stEIP2930/test_coinbase_t2.py::test_coinbase_t2[fork_Cancun-blockchain_test_from_state_test-T2baseInList]": {
        "network": "Cancun",
        "genesisBlockHeader": {
            "parentHash": "0x0000000000000000000000000000000000000000000000000000000000000000",
            "uncleHash": "0x1dcc4de8dec75d7aab85b567b6ccd41ad312451b948a7413f0a142fd40d49347",
            "coinbase": "0x0000000000000000000000000000000000000000",
            "stateRoot": "0x8e5b373117abe524c62b59657e704393adc701658f89318a3ca6db4f2e3fad96",
            "transactionsTrie": "0x56e81f171bcc55a6ff8345e692c0f86e5b48e01b996cadc001622fb5e363b421",
            "receiptTrie": "0x56e81f171bcc55a6ff8345e692c0f86e5b48e01b996cadc001622fb5e363b421",
            "bloom": "0x00000000000000000000000000000000000000000000000000000000000000000000000000000000000000000000000000000000000000000000000000000000000000000000000000000000000000000000000000000000000000000000000000000000000000000000000000000000000000000000000000000000000000000000000000000000000000000000000000000000000000000000000000000000000000000000000000000000000000000000000000000000000000000000000000000000000000000000000000000000000000000000000000000000000000000000000000000000000000000000000000000000000000000000000000000000",
            "difficulty": "0x00",
            "number": "0x00",
            "gasLimit": "0x07270e00",
            "gasUsed": "0x00",
            "timestamp": "0x00",
            "extraData": "0x00",
            "mixHash": "0x0000000000000000000000000000000000000000000000000000000000000000",
            "nonce": "0x0000000000000000",
            "baseFeePerGas": "0x72",
            "withdrawalsRoot": "0x56e81f171bcc55a6ff8345e692c0f86e5b48e01b996cadc001622fb5e363b421",
            "blobGasUsed": "0x00",
            "excessBlobGas": "0x00",
            "parentBeaconBlockRoot": "0x0000000000000000000000000000000000000000000000000000000000000000",
            "hash": "0xc45e5ebdd27a5ff4761e03a56fbcc35b3e18835da147f2df44854c904e41e457"
        },
        "pre": {
            "0x000f3df6d732807ef1319fb7b8bb8522d0beac02": {
                "nonce": "0x01",
                "balance": "0x00",
                "code": "0x3373fffffffffffffffffffffffffffffffffffffffe14604d57602036146024575f5ffd5b5f35801560495762001fff810690815414603c575f5ffd5b62001fff01545f5260205ff35b5f5ffd5b62001fff42064281555f359062001fff015500",
                "storage": {}
            },
            "0x57bd80ea46be74523e9060337ed2dc017f1cbf2c": {
                "nonce": "0x01",
                "balance": "0x0de0b6b3a7640000",
                "code": "0x",
                "storage": {}
            },
            "0x7704d8a022a1ba8f3539fc82c7d7fb065abc0df3": {
                "nonce": "0x01",
                "balance": "0x00",
                "code": "0x",
                "storage": {}
            },
            "0x06ddc951ebae1396b134fb785b2d521462294440": {
                "nonce": "0x01",
                "balance": "0x0de0b6b3a7640000",
                "code": "0x5a6000526000808080620f4240737704d8a022a1ba8f3539fc82c7d7fb065abc0df35af1505a6020526021602051600051030360005500",
                "storage": {}
            }
        },
        "postState": {
            "0x000f3df6d732807ef1319fb7b8bb8522d0beac02": {
                "nonce": "0x01",
                "balance": "0x00",
                "code": "0x3373fffffffffffffffffffffffffffffffffffffffe14604d57602036146024575f5ffd5b5f35801560495762001fff810690815414603c575f5ffd5b62001fff01545f5260205ff35b5f5ffd5b62001fff42064281555f359062001fff015500",
                "storage": {
                    "0x03e8": "0x03e8"
                }
            },
            "0x57bd80ea46be74523e9060337ed2dc017f1cbf2c": {
                "nonce": "0x02",
                "balance": "0x0de0b6b3a6c39980",
                "code": "0x",
                "storage": {}
            },
            "0x7704d8a022a1ba8f3539fc82c7d7fb065abc0df3": {
                "nonce": "0x01",
                "balance": "0x5f7580",
                "code": "0x",
                "storage": {}
            },
            "0x06ddc951ebae1396b134fb785b2d521462294440": {
                "nonce": "0x01",
                "balance": "0x0de0b6b3a754bdc0",
                "code": "0x5a6000526000808080620f4240737704d8a022a1ba8f3539fc82c7d7fb065abc0df35af1505a6020526021602051600051030360005500",
                "storage": {
                    "0x00": "0x1a90"
                }
            }
        },
        "lastblockhash": "0x30e082a0fe7d69c2c19bbfb15e1649574562a50291a3e8732ea12ca2595770d3",
        "config": {
            "network": "Cancun",
            "chainid": "0x01",
            "blobSchedule": {
                "Cancun": {
                    "target": "0x03",
                    "max": "0x06",
                    "baseFeeUpdateFraction": "0x32f0ed"
                }
            }
        },
        "genesisRLP": "0xf9023cf90236a00000000000000000000000000000000000000000000000000000000000000000a01dcc4de8dec75d7aab85b567b6ccd41ad312451b948a7413f0a142fd40d49347940000000000000000000000000000000000000000a08e5b373117abe524c62b59657e704393adc701658f89318a3ca6db4f2e3fad96a056e81f171bcc55a6ff8345e692c0f86e5b48e01b996cadc001622fb5e363b421a056e81f171bcc55a6ff8345e692c0f86e5b48e01b996cadc001622fb5e363b421b901000000000000000000000000000000000000000000000000000000000000000000000000000000000000000000000000000000000000000000000000000000000000000000000000000000000000000000000000000000000000000000000000000000000000000000000000000000000000000000000000000000000000000000000000000000000000000000000000000000000000000000000000000000000000000000000000000000000000000000000000000000000000000000000000000000000000000000000000000000000000000000000000000000000000000000000000000000000000000000000000000000000000000000000000000000000080808407270e00808000a0000000000000000000000000000000000000000000000000000000000000000088000000000000000072a056e81f171bcc55a6ff8345e692c0f86e5b48e01b996cadc001622fb5e363b4218080a00000000000000000000000000000000000000000000000000000000000000000c0c0c0",
        "blocks": [
            {
                "blockHeader": {
                    "parentHash": "0xc45e5ebdd27a5ff4761e03a56fbcc35b3e18835da147f2df44854c904e41e457",
                    "uncleHash": "0x1dcc4de8dec75d7aab85b567b6ccd41ad312451b948a7413f0a142fd40d49347",
                    "coinbase": "0x7704d8a022a1ba8f3539fc82c7d7fb065abc0df3",
                    "stateRoot": "0x35d271affd6f2875e8d8185b38049baa27dcf985be6424d740e986d0b4417781",
                    "transactionsTrie": "0x84b9818c6641af8409f3a96dc14404d02f46b1bda303c8446c4cad01ba0ac270",
                    "receiptTrie": "0x5f50e43d4cb6276aa201928ef364c6174c37dfd9882f19ba9f037320a4e406d7",
                    "bloom": "0x00000000000000000000000000000000000000000000000000000000000000000000000000000000000000000000000000000000000000000000000000000000000000000000000000000000000000000000000000000000000000000000000000000000000000000000000000000000000000000000000000000000000000000000000000000000000000000000000000000000000000000000000000000000000000000000000000000000000000000000000000000000000000000000000000000000000000000000000000000000000000000000000000000000000000000000000000000000000000000000000000000000000000000000000000000000",
                    "difficulty": "0x00",
                    "number": "0x01",
                    "gasLimit": "0x07270e00",
                    "gasUsed": "0xcd50",
                    "timestamp": "0x03e8",
                    "extraData": "0x00",
                    "mixHash": "0x0000000000000000000000000000000000000000000000000000000000020000",
                    "nonce": "0x0000000000000000",
                    "baseFeePerGas": "0x64",
                    "withdrawalsRoot": "0x56e81f171bcc55a6ff8345e692c0f86e5b48e01b996cadc001622fb5e363b421",
                    "blobGasUsed": "0x00",
                    "excessBlobGas": "0x00",
                    "parentBeaconBlockRoot": "0x0000000000000000000000000000000000000000000000000000000000000000",
                    "hash": "0x30e082a0fe7d69c2c19bbfb15e1649574562a50291a3e8732ea12ca2595770d3"
                },
                "transactions": [
                    {
                        "type": "0x02",
                        "chainId": "0x01",
                        "nonce": "0x01",
                        "maxPriorityFeePerGas": "0x64",
                        "maxFeePerGas": "0x2710",
                        "gasLimit": "0x01000000",
                        "to": "0x06ddc951ebae1396b134fb785b2d521462294440",
                        "value": "0x00",
                        "data": "0x693c61390000000000000000000000000000000000000000000000000000000000000000",
                        "accessList": [
                            {
                                "address": "0x7704d8a022a1ba8f3539fc82c7d7fb065abc0df3",
                                "storageKeys": []
                            }
                        ],
                        "v": "0x01",
                        "r": "0x015e6e20fd56f84a32acce79d8c36da34ec265707f3319383c614374caabb41d",
                        "s": "0x4f93163523a9bfc83b70407862c8270c2d6ab196bd270423149363749eac8226",
                        "sender": "0x57bd80ea46be74523e9060337ed2dc017f1cbf2c"
                    }
                ],
                "uncleHeaders": [],
                "withdrawals": [],
                "receipts": [
                    {
                        "transactionHash": "0x2a00e86afa4673f2bc62dfcf25adad28f9548da83597500b7916624b5d27d320",
                        "type": "0x02",
                        "cumulativeGasUsed": "0xcd50",
                        "bloom": "0x00000000000000000000000000000000000000000000000000000000000000000000000000000000000000000000000000000000000000000000000000000000000000000000000000000000000000000000000000000000000000000000000000000000000000000000000000000000000000000000000000000000000000000000000000000000000000000000000000000000000000000000000000000000000000000000000000000000000000000000000000000000000000000000000000000000000000000000000000000000000000000000000000000000000000000000000000000000000000000000000000000000000000000000000000000000",
                        "logs": [],
                        "status": true,
                        "rlp": "0x02f901080182cd50b9010000000000000000000000000000000000000000000000000000000000000000000000000000000000000000000000000000000000000000000000000000000000000000000000000000000000000000000000000000000000000000000000000000000000000000000000000000000000000000000000000000000000000000000000000000000000000000000000000000000000000000000000000000000000000000000000000000000000000000000000000000000000000000000000000000000000000000000000000000000000000000000000000000000000000000000000000000000000000000000000000000000000000000000000000000000000c0"
                    }
                ],
                "rlp": "0xf902e7f9023aa0c45e5ebdd27a5ff4761e03a56fbcc35b3e18835da147f2df44854c904e41e457a01dcc4de8dec75d7aab85b567b6ccd41ad312451b948a7413f0a142fd40d49347947704d8a022a1ba8f3539fc82c7d7fb065abc0df3a035d271affd6f2875e8d8185b38049baa27dcf985be6424d740e986d0b4417781a084b9818c6641af8409f3a96dc14404d02f46b1bda303c8446c4cad01ba0ac270a05f50e43d4cb6276aa201928ef364c6174c37dfd9882f19ba9f037320a4e406d7b901000000000000000000000000000000000000000000000000000000000000000000000000000000000000000000000000000000000000000000000000000000000000000000000000000000000000000000000000000000000000000000000000000000000000000000000000000000000000000000000000000000000000000000000000000000000000000000000000000000000000000000000000000000000000000000000000000000000000000000000000000000000000000000000000000000000000000000000000000000000000000000000000000000000000000000000000000000000000000000000000000000000000000000000000000000000080018407270e0082cd508203e800a0000000000000000000000000000000000000000000000000000000000002000088000000000000000064a056e81f171bcc55a6ff8345e692c0f86e5b48e01b996cadc001622fb5e363b4218080a00000000000000000000000000000000000000000000000000000000000000000f8a6b8a402f8a101016482271084010000009406ddc951ebae1396b134fb785b2d52146229444080a4693c61390000000000000000000000000000000000000000000000000000000000000000d7d6947704d8a022a1ba8f3539fc82c7d7fb065abc0df3c001a0015e6e20fd56f84a32acce79d8c36da34ec265707f3319383c614374caabb41da04f93163523a9bfc83b70407862c8270c2d6ab196bd270423149363749eac8226c0c0",
                "blocknumber": "1"
            }
        ],
        "sealEngine": "NoProof",
        "_info": {
            "hash": "0x03af3ffe5cdfe0ecd48c9e6619889c033ae6feeb0195167cc519f8edd4f21c46",
            "fixture-format": "blockchain_test",
            "comment": "`execution-specs` generated test",
            "filling-transition-tool": "2.19.0",
            "description": "Ori Pomerantz qbzzt1@gmail.",
            "url": "https://github.com/ethereum/execution-specs/blob/tests-snobal-devnet-5@v8037.0.0/tests/ported_static/stEIP2930/test_coinbase_t2.py#L30",
            "metadata": {
                "opcode_count": {}
            },
            "reference-spec": "https://github.com/ethereum/EIPs/blob/master/N/A",
            "reference-spec-version": "N/A"
        }
    },
    "tests/ported_static/stEIP2930/test_coinbase_t2.py::test_coinbase_t2[fork_Cancun-blockchain_test_from_state_test-T2baseNotInList]": {
        "network": "Cancun",
        "genesisBlockHeader": {
            "parentHash": "0x0000000000000000000000000000000000000000000000000000000000000000",
            "uncleHash": "0x1dcc4de8dec75d7aab85b567b6ccd41ad312451b948a7413f0a142fd40d49347",
            "coinbase": "0x0000000000000000000000000000000000000000",
            "stateRoot": "0x8e5b373117abe524c62b59657e704393adc701658f89318a3ca6db4f2e3fad96",
            "transactionsTrie": "0x56e81f171bcc55a6ff8345e692c0f86e5b48e01b996cadc001622fb5e363b421",
            "receiptTrie": "0x56e81f171bcc55a6ff8345e692c0f86e5b48e01b996cadc001622fb5e363b421",
            "bloom": "0x00000000000000000000000000000000000000000000000000000000000000000000000000000000000000000000000000000000000000000000000000000000000000000000000000000000000000000000000000000000000000000000000000000000000000000000000000000000000000000000000000000000000000000000000000000000000000000000000000000000000000000000000000000000000000000000000000000000000000000000000000000000000000000000000000000000000000000000000000000000000000000000000000000000000000000000000000000000000000000000000000000000000000000000000000000000",
            "difficulty": "0x00",
            "number": "0x00",
            "gasLimit": "0x07270e00",
            "gasUsed": "0x00",
            "timestamp": "0x00",
            "extraData": "0x00",
            "mixHash": "0x0000000000000000000000000000000000000000000000000000000000000000",
            "nonce": "0x0000000000000000",
            "baseFeePerGas": "0x72",
            "withdrawalsRoot": "0x56e81f171bcc55a6ff8345e692c0f86e5b48e01b996cadc001622fb5e363b421",
            "blobGasUsed": "0x00",
            "excessBlobGas": "0x00",
            "parentBeaconBlockRoot": "0x0000000000000000000000000000000000000000000000000000000000000000",
            "hash": "0xc45e5ebdd27a5ff4761e03a56fbcc35b3e18835da147f2df44854c904e41e457"
        },
        "pre": {
            "0x000f3df6d732807ef1319fb7b8bb8522d0beac02": {
                "nonce": "0x01",
                "balance": "0x00",
                "code": "0x3373fffffffffffffffffffffffffffffffffffffffe14604d57602036146024575f5ffd5b5f35801560495762001fff810690815414603c575f5ffd5b62001fff01545f5260205ff35b5f5ffd5b62001fff42064281555f359062001fff015500",
                "storage": {}
            },
            "0x57bd80ea46be74523e9060337ed2dc017f1cbf2c": {
                "nonce": "0x01",
                "balance": "0x0de0b6b3a7640000",
                "code": "0x",
                "storage": {}
            },
            "0x7704d8a022a1ba8f3539fc82c7d7fb065abc0df3": {
                "nonce": "0x01",
                "balance": "0x00",
                "code": "0x",
                "storage": {}
            },
            "0x06ddc951ebae1396b134fb785b2d521462294440": {
                "nonce": "0x01",
                "balance": "0x0de0b6b3a7640000",
                "code": "0x5a6000526000808080620f4240737704d8a022a1ba8f3539fc82c7d7fb065abc0df35af1505a6020526021602051600051030360005500",
                "storage": {}
            }
        },
        "postState": {
            "0x000f3df6d732807ef1319fb7b8bb8522d0beac02": {
                "nonce": "0x01",
                "balance": "0x00",
                "code": "0x3373fffffffffffffffffffffffffffffffffffffffe14604d57602036146024575f5ffd5b5f35801560495762001fff810690815414603c575f5ffd5b62001fff01545f5260205ff35b5f5ffd5b62001fff42064281555f359062001fff015500",
                "storage": {
                    "0x03e8": "0x03e8"
                }
            },
            "0x57bd80ea46be74523e9060337ed2dc017f1cbf2c": {
                "nonce": "0x02",
                "balance": "0x0de0b6b3a6c39980",
                "code": "0x",
                "storage": {}
            },
            "0x7704d8a022a1ba8f3539fc82c7d7fb065abc0df3": {
                "nonce": "0x01",
                "balance": "0x5f7580",
                "code": "0x",
                "storage": {}
            },
            "0x06ddc951ebae1396b134fb785b2d521462294440": {
                "nonce": "0x01",
                "balance": "0x0de0b6b3a754bdc0",
                "code": "0x5a6000526000808080620f4240737704d8a022a1ba8f3539fc82c7d7fb065abc0df35af1505a6020526021602051600051030360005500",
                "storage": {
                    "0x00": "0x1a90"
                }
            }
        },
        "lastblockhash": "0x356704ec871b5bb66be6e2f73993188981f93fde1e1f5240da23be6392d0c802",
        "config": {
            "network": "Cancun",
            "chainid": "0x01",
            "blobSchedule": {
                "Cancun": {
                    "target": "0x03",
                    "max": "0x06",
                    "baseFeeUpdateFraction": "0x32f0ed"
                }
            }
        },
        "genesisRLP": "0xf9023cf90236a00000000000000000000000000000000000000000000000000000000000000000a01dcc4de8dec75d7aab85b567b6ccd41ad312451b948a7413f0a142fd40d49347940000000000000000000000000000000000000000a08e5b373117abe524c62b59657e704393adc701658f89318a3ca6db4f2e3fad96a056e81f171bcc55a6ff8345e692c0f86e5b48e01b996cadc001622fb5e363b421a056e81f171bcc55a6ff8345e692c0f86e5b48e01b996cadc001622fb5e363b421b901000000000000000000000000000000000000000000000000000000000000000000000000000000000000000000000000000000000000000000000000000000000000000000000000000000000000000000000000000000000000000000000000000000000000000000000000000000000000000000000000000000000000000000000000000000000000000000000000000000000000000000000000000000000000000000000000000000000000000000000000000000000000000000000000000000000000000000000000000000000000000000000000000000000000000000000000000000000000000000000000000000000000000000000000000000000080808407270e00808000a0000000000000000000000000000000000000000000000000000000000000000088000000000000000072a056e81f171bcc55a6ff8345e692c0f86e5b48e01b996cadc001622fb5e363b4218080a00000000000000000000000000000000000000000000000000000000000000000c0c0c0",
        "blocks": [
            {
                "blockHeader": {
                    "parentHash": "0xc45e5ebdd27a5ff4761e03a56fbcc35b3e18835da147f2df44854c904e41e457",
                    "uncleHash": "0x1dcc4de8dec75d7aab85b567b6ccd41ad312451b948a7413f0a142fd40d49347",
                    "coinbase": "0x7704d8a022a1ba8f3539fc82c7d7fb065abc0df3",
                    "stateRoot": "0x35d271affd6f2875e8d8185b38049baa27dcf985be6424d740e986d0b4417781",
                    "transactionsTrie": "0x3396163d8d0ca5f52a28826ad11acaf1cea4999aa01b083f627049bf10012bdb",
                    "receiptTrie": "0x5f50e43d4cb6276aa201928ef364c6174c37dfd9882f19ba9f037320a4e406d7",
                    "bloom": "0x00000000000000000000000000000000000000000000000000000000000000000000000000000000000000000000000000000000000000000000000000000000000000000000000000000000000000000000000000000000000000000000000000000000000000000000000000000000000000000000000000000000000000000000000000000000000000000000000000000000000000000000000000000000000000000000000000000000000000000000000000000000000000000000000000000000000000000000000000000000000000000000000000000000000000000000000000000000000000000000000000000000000000000000000000000000",
                    "difficulty": "0x00",
                    "number": "0x01",
                    "gasLimit": "0x07270e00",
                    "gasUsed": "0xcd50",
                    "timestamp": "0x03e8",
                    "extraData": "0x00",
                    "mixHash": "0x0000000000000000000000000000000000000000000000000000000000020000",
                    "nonce": "0x0000000000000000",
                    "baseFeePerGas": "0x64",
                    "withdrawalsRoot": "0x56e81f171bcc55a6ff8345e692c0f86e5b48e01b996cadc001622fb5e363b421",
                    "blobGasUsed": "0x00",
                    "excessBlobGas": "0x00",
                    "parentBeaconBlockRoot": "0x0000000000000000000000000000000000000000000000000000000000000000",
                    "hash": "0x356704ec871b5bb66be6e2f73993188981f93fde1e1f5240da23be6392d0c802"
                },
                "transactions": [
                    {
                        "type": "0x02",
                        "chainId": "0x01",
                        "nonce": "0x01",
                        "maxPriorityFeePerGas": "0x64",
                        "maxFeePerGas": "0x2710",
                        "gasLimit": "0x01000000",
                        "to": "0x06ddc951ebae1396b134fb785b2d521462294440",
                        "value": "0x00",
                        "data": "0x693c61390000000000000000000000000000000000000000000000000000000000000000",
                        "accessList": [
                            {
                                "address": "0x000000000000000000000000000000000000ba5a",
                                "storageKeys": []
                            }
                        ],
                        "v": "0x00",
                        "r": "0x881177bff88350cb6882237d383d75797438da334123d2a4be462b54317dedc6",
                        "s": "0x7bc45060f0d24de3ca465dde24e2f69335888fb553211b759287b625155c46db",
                        "sender": "0x57bd80ea46be74523e9060337ed2dc017f1cbf2c"
                    }
                ],
                "uncleHeaders": [],
                "withdrawals": [],
                "receipts": [
                    {
                        "transactionHash": "0xb88e0fe9876ba07d593e243e5f063f3df22fd4d9df3af7135a51d02a76582fb0",
                        "type": "0x02",
                        "cumulativeGasUsed": "0xcd50",
                        "bloom": "0x00000000000000000000000000000000000000000000000000000000000000000000000000000000000000000000000000000000000000000000000000000000000000000000000000000000000000000000000000000000000000000000000000000000000000000000000000000000000000000000000000000000000000000000000000000000000000000000000000000000000000000000000000000000000000000000000000000000000000000000000000000000000000000000000000000000000000000000000000000000000000000000000000000000000000000000000000000000000000000000000000000000000000000000000000000000",
                        "logs": [],
                        "status": true,
                        "rlp": "0x02f901080182cd50b9010000000000000000000000000000000000000000000000000000000000000000000000000000000000000000000000000000000000000000000000000000000000000000000000000000000000000000000000000000000000000000000000000000000000000000000000000000000000000000000000000000000000000000000000000000000000000000000000000000000000000000000000000000000000000000000000000000000000000000000000000000000000000000000000000000000000000000000000000000000000000000000000000000000000000000000000000000000000000000000000000000000000000000000000000000000000c0"
                    }
                ],
                "rlp": "0xf902e7f9023aa0c45e5ebdd27a5ff4761e03a56fbcc35b3e18835da147f2df44854c904e41e457a01dcc4de8dec75d7aab85b567b6ccd41ad312451b948a7413f0a142fd40d49347947704d8a022a1ba8f3539fc82c7d7fb065abc0df3a035d271affd6f2875e8d8185b38049baa27dcf985be6424d740e986d0b4417781a03396163d8d0ca5f52a28826ad11acaf1cea4999aa01b083f627049bf10012bdba05f50e43d4cb6276aa201928ef364c6174c37dfd9882f19ba9f037320a4e406d7b901000000000000000000000000000000000000000000000000000000000000000000000000000000000000000000000000000000000000000000000000000000000000000000000000000000000000000000000000000000000000000000000000000000000000000000000000000000000000000000000000000000000000000000000000000000000000000000000000000000000000000000000000000000000000000000000000000000000000000000000000000000000000000000000000000000000000000000000000000000000000000000000000000000000000000000000000000000000000000000000000000000000000000000000000000000000080018407270e0082cd508203e800a0000000000000000000000000000000000000000000000000000000000002000088000000000000000064a056e81f171bcc55a6ff8345e692c0f86e5b48e01b996cadc001622fb5e363b4218080a00000000000000000000000000000000000000000000000000000000000000000f8a6b8a402f8a101016482271084010000009406ddc951ebae1396b134fb785b2d52146229444080a4693c61390000000000000000000000000000000000000000000000000000000000000000d7d694000000000000000000000000000000000000ba5ac080a0881177bff88350cb6882237d383d75797438da334123d2a4be462b54317dedc6a07bc45060f0d24de3ca465dde24e2f69335888fb553211b759287b625155c46dbc0c0",
                "blocknumber": "1"
            }
        ],
        "sealEngine": "NoProof",
        "_info": {
            "hash": "0x7f1a1b1ff14dba37ad52c4f592e19454a86cbd73685625467b728613690e883c",
            "fixture-format": "blockchain_test",
            "comment": "`execution-specs` generated test",
            "filling-transition-tool": "2.19.0",
            "description": "Ori Pomerantz qbzzt1@gmail.",
            "url": "https://github.com/ethereum/execution-specs/blob/tests-snobal-devnet-5@v8037.0.0/tests/ported_static/stEIP2930/test_coinbase_t2.py#L30",
            "metadata": {
                "opcode_count": {}
            },
            "reference-spec": "https://github.com/ethereum/EIPs/blob/master/N/A",
            "reference-spec-version": "N/A"
        }
    }
}