{
    "tests/ported_static/stCallCodes/test_callcodecallcodecall_110_ooge.py::test_callcodecallcodecall_110_ooge[fork_Cancun-blockchain_test_from_state_test]": {
        "network": "Cancun",
        "genesisBlockHeader": {
            "parentHash": "0x0000000000000000000000000000000000000000000000000000000000000000",
            "uncleHash": "0x1dcc4de8dec75d7aab85b567b6ccd41ad312451b948a7413f0a142fd40d49347",
            "coinbase": "0x0000000000000000000000000000000000000000",
            "stateRoot": "0x3bfbb3ff361ea4b76232a549653be8cc5fba3f40a0bc964d9ecfe2c307556698",
            "transactionsTrie": "0x56e81f171bcc55a6ff8345e692c0f86e5b48e01b996cadc001622fb5e363b421",
            "receiptTrie": "0x56e81f171bcc55a6ff8345e692c0f86e5b48e01b996cadc001622fb5e363b421",
            "bloom": "0x00000000000000000000000000000000000000000000000000000000000000000000000000000000000000000000000000000000000000000000000000000000000000000000000000000000000000000000000000000000000000000000000000000000000000000000000000000000000000000000000000000000000000000000000000000000000000000000000000000000000000000000000000000000000000000000000000000000000000000000000000000000000000000000000000000000000000000000000000000000000000000000000000000000000000000000000000000000000000000000000000000000000000000000000000000000",
            "difficulty": "0x00",
            "number": "0x00",
            "gasLimit": "0x01c9c380",
            "gasUsed": "0x00",
            "timestamp": "0x00",
            "extraData": "0x00",
            "mixHash": "0x0000000000000000000000000000000000000000000000000000000000000000",
            "nonce": "0x0000000000000000",
            "baseFeePerGas": "0x0b",
            "withdrawalsRoot": "0x56e81f171bcc55a6ff8345e692c0f86e5b48e01b996cadc001622fb5e363b421",
            "blobGasUsed": "0x00",
            "excessBlobGas": "0x00",
            "parentBeaconBlockRoot": "0x0000000000000000000000000000000000000000000000000000000000000000",
            "hash": "0x99dc33dc3da591e519550e8cfa63956b4ec88c6c2eee364d166c419f312925ec"
        },
        "pre": {
            "0x000f3df6d732807ef1319fb7b8bb8522d0beac02": {
                "nonce": "0x01",
                "balance": "0x00",
                "code": "0x3373fffffffffffffffffffffffffffffffffffffffe14604d57602036146024575f5ffd5b5f35801560495762001fff810690815414603c575f5ffd5b62001fff01545f5260205ff35b5f5ffd5b62001fff42064281555f359062001fff015500",
                "storage": {}
            },
            "0xd66f224cbd2fabb21b17bb53c56118f32f62ebd6": {
                "nonce": "0x00",
                "balance": "0x0de0b6b3a7640000",
                "code": "0x",
                "storage": {}
            },
            "0x0452a3c6b46e2274eb34f60ad44d6224284b527f": {
                "nonce": "0x00",
                "balance": "0x00",
                "code": "0x6001600355622fffff60002000",
                "storage": {}
            },
            "0x2a76b6480d53adb31c5eb1eea23809dc1b9f666e": {
                "nonce": "0x00",
                "balance": "0x00",
                "code": "0x60406000604060006000730452a3c6b46e2274eb34f60ad44d6224284b527f62061a80f16002556001600b5500",
                "storage": {}
            },
            "0x56cb849ee654aa1688e22a18f5dffa146d2f986a": {
                "nonce": "0x00",
                "balance": "0x00",
                "code": "0x60406000604060006000732a76b6480d53adb31c5eb1eea23809dc1b9f666e620927c0f260015500",
                "storage": {}
            },
            "0x31fc1eb1392f4ee8449ee6e9e9450be5f775bd3f": {
                "nonce": "0x00",
                "balance": "0x0de0b6b3a7640000",
                "code": "0x604060006040600060007356cb849ee654aa1688e22a18f5dffa146d2f986a620c3500f260005500",
                "storage": {}
            }
        },
        "postState": {
            "0x000f3df6d732807ef1319fb7b8bb8522d0beac02": {
                "nonce": "0x01",
                "balance": "0x00",
                "code": "0x3373fffffffffffffffffffffffffffffffffffffffe14604d57602036146024575f5ffd5b5f35801560495762001fff810690815414603c575f5ffd5b62001fff01545f5260205ff35b5f5ffd5b62001fff42064281555f359062001fff015500",
                "storage": {
                    "0x03e8": "0x03e8"
                }
            },
            "0xd66f224cbd2fabb21b17bb53c56118f32f62ebd6": {
                "nonce": "0x01",
                "balance": "0x0de0b6b3a7181a78",
                "code": "0x",
                "storage": {}
            },
            "0x0452a3c6b46e2274eb34f60ad44d6224284b527f": {
                "nonce": "0x00",
                "balance": "0x00",
                "code": "0x6001600355622fffff60002000",
                "storage": {}
            },
            "0x2a76b6480d53adb31c5eb1eea23809dc1b9f666e": {
                "nonce": "0x00",
                "balance": "0x00",
                "code": "0x60406000604060006000730452a3c6b46e2274eb34f60ad44d6224284b527f62061a80f16002556001600b5500",
                "storage": {}
            },
            "0x56cb849ee654aa1688e22a18f5dffa146d2f986a": {
                "nonce": "0x00",
                "balance": "0x00",
                "code": "0x60406000604060006000732a76b6480d53adb31c5eb1eea23809dc1b9f666e620927c0f260015500",
                "storage": {}
            },
            "0x31fc1eb1392f4ee8449ee6e9e9450be5f775bd3f": {
                "nonce": "0x00",
                "balance": "0x0de0b6b3a7640000",
                "code": "0x604060006040600060007356cb849ee654aa1688e22a18f5dffa146d2f986a620c3500f260005500",
                "storage": {
                    "0x0b": "0x01",
                    "0x01": "0x01",
                    "0x00": "0x01"
                }
            }
        },
        "lastblockhash": "0xb4450070cd1c159c3be0ed378283d7d82611bf31f2628db3453d17c946cedab7",
        "config": {
            "network": "Cancun",
            "chainid": "0x01",
            "blobSchedule": {
                "Cancun": {
                    "target": "0x03",
                    "max": "0x06",
                    "baseFeeUpdateFraction": "0x32f0ed"
                }
            }
        },
        "genesisRLP": "0xf9023cf90236a00000000000000000000000000000000000000000000000000000000000000000a01dcc4de8dec75d7aab85b567b6ccd41ad312451b948a7413f0a142fd40d49347940000000000000000000000000000000000000000a03bfbb3ff361ea4b76232a549653be8cc5fba3f40a0bc964d9ecfe2c307556698a056e81f171bcc55a6ff8345e692c0f86e5b48e01b996cadc001622fb5e363b421a056e81f171bcc55a6ff8345e692c0f86e5b48e01b996cadc001622fb5e363b421b901000000000000000000000000000000000000000000000000000000000000000000000000000000000000000000000000000000000000000000000000000000000000000000000000000000000000000000000000000000000000000000000000000000000000000000000000000000000000000000000000000000000000000000000000000000000000000000000000000000000000000000000000000000000000000000000000000000000000000000000000000000000000000000000000000000000000000000000000000000000000000000000000000000000000000000000000000000000000000000000000000000000000000000000000000000000080808401c9c380808000a000000000000000000000000000000000000000000000000000000000000000008800000000000000000ba056e81f171bcc55a6ff8345e692c0f86e5b48e01b996cadc001622fb5e363b4218080a00000000000000000000000000000000000000000000000000000000000000000c0c0c0",
        "blocks": [
            {
                "blockHeader": {
                    "parentHash": "0x99dc33dc3da591e519550e8cfa63956b4ec88c6c2eee364d166c419f312925ec",
                    "uncleHash": "0x1dcc4de8dec75d7aab85b567b6ccd41ad312451b948a7413f0a142fd40d49347",
                    "coinbase": "0x2adc25665018aa1fe0e6bc666dac8fc2697ff9ba",
                    "stateRoot": "0x1ed1ae5c1a694f03833c35fe57e76a6af08a97708638580f19d8044b58143676",
                    "transactionsTrie": "0xbd34a0c018e639ab548f9fd72907c5ace4a82dcd0bd67ee0556d4a1dbff16bbd",
                    "receiptTrie": "0xe01a10423244b46fdba17ecca3f3ba83bf677720cfb6cac681b0f599b9d27a1c",
                    "bloom": "0x00000000000000000000000000000000000000000000000000000000000000000000000000000000000000000000000000000000000000000000000000000000000000000000000000000000000000000000000000000000000000000000000000000000000000000000000000000000000000000000000000000000000000000000000000000000000000000000000000000000000000000000000000000000000000000000000000000000000000000000000000000000000000000000000000000000000000000000000000000000000000000000000000000000000000000000000000000000000000000000000000000000000000000000000000000000",
                    "difficulty": "0x00",
                    "number": "0x01",
                    "gasLimit": "0x01c9c380",
                    "gasUsed": "0x0796f4",
                    "timestamp": "0x03e8",
                    "extraData": "0x00",
                    "mixHash": "0x0000000000000000000000000000000000000000000000000000000000020000",
                    "nonce": "0x0000000000000000",
                    "baseFeePerGas": "0x0a",
                    "withdrawalsRoot": "0x56e81f171bcc55a6ff8345e692c0f86e5b48e01b996cadc001622fb5e363b421",
                    "blobGasUsed": "0x00",
                    "excessBlobGas": "0x00",
                    "parentBeaconBlockRoot": "0x0000000000000000000000000000000000000000000000000000000000000000",
                    "hash": "0xb4450070cd1c159c3be0ed378283d7d82611bf31f2628db3453d17c946cedab7"
                },
                "transactions": [
                    {
                        "type": "0x00",
                        "chainId": "0x01",
                        "nonce": "0x00",
                        "gasPrice": "0x0a",
                        "gasLimit": "0x0f4240",
                        "to": "0x31fc1eb1392f4ee8449ee6e9e9450be5f775bd3f",
                        "value": "0x00",
                        "data": "0x",
                        "v": "0x26",
                        "r": "0x4cf3331ca5a4707b04dcb9b0745783cbe0fccfa0e57d4f69fe8804bd9d7056e7",
                        "s": "0x46e3e8087acdfe0580959435edf3ea7db0a9a5d4a09312f37d60ba1446f02e",
                        "sender": "0xd66f224cbd2fabb21b17bb53c56118f32f62ebd6"
                    }
                ],
                "uncleHeaders": [],
                "withdrawals": [],
                "receipts": [
                    {
                        "transactionHash": "0x6508bbf08b587e94b696a9b97414dd15c65b979c628e42b71a7e15c95c752e56",
                        "type": "0x00",
                        "cumulativeGasUsed": "0x0796f4",
                        "bloom": "0x00000000000000000000000000000000000000000000000000000000000000000000000000000000000000000000000000000000000000000000000000000000000000000000000000000000000000000000000000000000000000000000000000000000000000000000000000000000000000000000000000000000000000000000000000000000000000000000000000000000000000000000000000000000000000000000000000000000000000000000000000000000000000000000000000000000000000000000000000000000000000000000000000000000000000000000000000000000000000000000000000000000000000000000000000000000",
                        "logs": [],
                        "status": true,
                        "rlp": "0xf9010901830796f4b9010000000000000000000000000000000000000000000000000000000000000000000000000000000000000000000000000000000000000000000000000000000000000000000000000000000000000000000000000000000000000000000000000000000000000000000000000000000000000000000000000000000000000000000000000000000000000000000000000000000000000000000000000000000000000000000000000000000000000000000000000000000000000000000000000000000000000000000000000000000000000000000000000000000000000000000000000000000000000000000000000000000000000000000000000000000000c0"
                    }
                ],
                "rlp": "0xf902a3f9023ba099dc33dc3da591e519550e8cfa63956b4ec88c6c2eee364d166c419f312925eca01dcc4de8dec75d7aab85b567b6ccd41ad312451b948a7413f0a142fd40d49347942adc25665018aa1fe0e6bc666dac8fc2697ff9baa01ed1ae5c1a694f03833c35fe57e76a6af08a97708638580f19d8044b58143676a0bd34a0c018e639ab548f9fd72907c5ace4a82dcd0bd67ee0556d4a1dbff16bbda0e01a10423244b46fdba17ecca3f3ba83bf677720cfb6cac681b0f599b9d27a1cb901000000000000000000000000000000000000000000000000000000000000000000000000000000000000000000000000000000000000000000000000000000000000000000000000000000000000000000000000000000000000000000000000000000000000000000000000000000000000000000000000000000000000000000000000000000000000000000000000000000000000000000000000000000000000000000000000000000000000000000000000000000000000000000000000000000000000000000000000000000000000000000000000000000000000000000000000000000000000000000000000000000000000000000000000000000000080018401c9c380830796f48203e800a000000000000000000000000000000000000000000000000000000000000200008800000000000000000aa056e81f171bcc55a6ff8345e692c0f86e5b48e01b996cadc001622fb5e363b4218080a00000000000000000000000000000000000000000000000000000000000000000f861f85f800a830f42409431fc1eb1392f4ee8449ee6e9e9450be5f775bd3f808026a04cf3331ca5a4707b04dcb9b0745783cbe0fccfa0e57d4f69fe8804bd9d7056e79f46e3e8087acdfe0580959435edf3ea7db0a9a5d4a09312f37d60ba1446f02ec0c0",
                "blocknumber": "1"
            }
        ],
        "sealEngine": "NoProof",
        "_info": {
            "hash": "0x77a6bc3e831654a06f1240483e69d651443ed71ce7544bff9225d5435312d627",
            "fixture-format": "blockchain_test",
            "comment": "`execution-specs` generated test",
            "filling-transition-tool": "2.19.0",
            "description": "Callcode -> callcode -> call -> code oog.",
            "url": "https://github.com/ethereum/execution-specs/blob/tests-snobal-devnet-5@v8037.0.0/tests/ported_static/stCallCodes/test_callcodecallcodecall_110_ooge.py#L24",
            "metadata": {
                "opcode_count": {}
            }
        }
    }
}