{
    "tests/istanbul/eip1344_chainid/test_chainid.py::test_chainid[fork_Paris-typed_transaction_0-blockchain_test_from_state_test]": {
        "network": "Paris",
        "genesisBlockHeader": {
            "parentHash": "0x0000000000000000000000000000000000000000000000000000000000000000",
            "uncleHash": "0x1dcc4de8dec75d7aab85b567b6ccd41ad312451b948a7413f0a142fd40d49347",
            "coinbase": "0x0000000000000000000000000000000000000000",
            "stateRoot": "0x04cf105f86c00ad2bcf12f8ccf4bade6ab0309b3baa8208c770ce50711ab93dc",
            "transactionsTrie": "0x56e81f171bcc55a6ff8345e692c0f86e5b48e01b996cadc001622fb5e363b421",
            "receiptTrie": "0x56e81f171bcc55a6ff8345e692c0f86e5b48e01b996cadc001622fb5e363b421",
            "bloom": "0x00000000000000000000000000000000000000000000000000000000000000000000000000000000000000000000000000000000000000000000000000000000000000000000000000000000000000000000000000000000000000000000000000000000000000000000000000000000000000000000000000000000000000000000000000000000000000000000000000000000000000000000000000000000000000000000000000000000000000000000000000000000000000000000000000000000000000000000000000000000000000000000000000000000000000000000000000000000000000000000000000000000000000000000000000000000",
            "difficulty": "0x00",
            "number": "0x00",
            "gasLimit": "0x07270e00",
            "gasUsed": "0x00",
            "timestamp": "0x00",
            "extraData": "0x00",
            "mixHash": "0x0000000000000000000000000000000000000000000000000000000000000000",
            "nonce": "0x0000000000000000",
            "baseFeePerGas": "0x07",
            "hash": "0x0ee4e8ecbbce020adebc369131cce6c6554e3db7922b72a774d186f84a5ee400"
        },
        "pre": {
            "0x1ad9bc24818784172ff393bb6f89f094d4d2ca29": {
                "nonce": "0x00",
                "balance": "0x3635c9adc5dea00000",
                "code": "0x",
                "storage": {}
            },
            "0xe6597702901512e099b34854c9b8bc7463a39fde": {
                "nonce": "0x01",
                "balance": "0x00",
                "code": "0x4660015500",
                "storage": {}
            }
        },
        "postState": {
            "0x1ad9bc24818784172ff393bb6f89f094d4d2ca29": {
                "nonce": "0x01",
                "balance": "0x3635c98634928dd600",
                "code": "0x",
                "storage": {}
            },
            "0xe6597702901512e099b34854c9b8bc7463a39fde": {
                "nonce": "0x01",
                "balance": "0x00",
                "code": "0x4660015500",
                "storage": {
                    "0x01": "0x01"
                }
            },
            "0x2adc25665018aa1fe0e6bc666dac8fc2697ff9ba": {
                "nonce": "0x00",
                "balance": "0x27914c0d8469",
                "code": "0x",
                "storage": {}
            }
        },
        "lastblockhash": "0x258ca3d2625f45e0c1c9368acb5a02b65b12a7c68f9bbef88768476b9ddd1508",
        "config": {
            "network": "Paris",
            "chainid": "0x01"
        },
        "genesisRLP": "0xf901f7f901f2a00000000000000000000000000000000000000000000000000000000000000000a01dcc4de8dec75d7aab85b567b6ccd41ad312451b948a7413f0a142fd40d49347940000000000000000000000000000000000000000a004cf105f86c00ad2bcf12f8ccf4bade6ab0309b3baa8208c770ce50711ab93dca056e81f171bcc55a6ff8345e692c0f86e5b48e01b996cadc001622fb5e363b421a056e81f171bcc55a6ff8345e692c0f86e5b48e01b996cadc001622fb5e363b421b901000000000000000000000000000000000000000000000000000000000000000000000000000000000000000000000000000000000000000000000000000000000000000000000000000000000000000000000000000000000000000000000000000000000000000000000000000000000000000000000000000000000000000000000000000000000000000000000000000000000000000000000000000000000000000000000000000000000000000000000000000000000000000000000000000000000000000000000000000000000000000000000000000000000000000000000000000000000000000000000000000000000000000000000000000000000080808407270e00808000a0000000000000000000000000000000000000000000000000000000000000000088000000000000000007c0c0",
        "blocks": [
            {
                "blockHeader": {
                    "parentHash": "0x0ee4e8ecbbce020adebc369131cce6c6554e3db7922b72a774d186f84a5ee400",
                    "uncleHash": "0x1dcc4de8dec75d7aab85b567b6ccd41ad312451b948a7413f0a142fd40d49347",
                    "coinbase": "0x2adc25665018aa1fe0e6bc666dac8fc2697ff9ba",
                    "stateRoot": "0x6f4fca86d729b28af46e14bfc3ea001801778955c0fd447b2135a3acc6b80ce9",
                    "transactionsTrie": "0x62a79069d7392c9b8ce22e6346e06690fe270aa36981eeadb15d1f02caf0bcf5",
                    "receiptTrie": "0xd239ca17d4bb6abe2efb878f56cfa1ab277d118f9c640a7a6eb0e055705c8c27",
                    "bloom": "0x00000000000000000000000000000000000000000000000000000000000000000000000000000000000000000000000000000000000000000000000000000000000000000000000000000000000000000000000000000000000000000000000000000000000000000000000000000000000000000000000000000000000000000000000000000000000000000000000000000000000000000000000000000000000000000000000000000000000000000000000000000000000000000000000000000000000000000000000000000000000000000000000000000000000000000000000000000000000000000000000000000000000000000000000000000000",
                    "difficulty": "0x00",
                    "number": "0x01",
                    "gasLimit": "0x07270e00",
                    "gasUsed": "0xa9f1",
                    "timestamp": "0x03e8",
                    "extraData": "0x00",
                    "mixHash": "0x0000000000000000000000000000000000000000000000000000000000000000",
                    "nonce": "0x0000000000000000",
                    "baseFeePerGas": "0x07",
                    "hash": "0x258ca3d2625f45e0c1c9368acb5a02b65b12a7c68f9bbef88768476b9ddd1508"
                },
                "transactions": [
                    {
                        "type": "0x00",
                        "chainId": "0x01",
                        "nonce": "0x00",
                        "gasPrice": "0x3b9aca00",
                        "gasLimit": "0x0186a0",
                        "to": "0xe6597702901512e099b34854c9b8bc7463a39fde",
                        "value": "0x00",
                        "data": "0x00000000000000000000000000000000000000000000000000000000000000000000000000000000000000000000000000000000000000000000000000000000000000000000000000000000000000000000000000000000000000000000000000000000",
                        "v": "0x26",
                        "r": "0x6213d1f8cfbf79288bbbbf772f0a75b47764cdca323ba19ebaf4dfe0775e0536",
                        "s": "0x6db956f38cd2c71127f8821719891561797ffabfc0904a87f7171611ff35ecd9",
                        "sender": "0x1ad9bc24818784172ff393bb6f89f094d4d2ca29"
                    }
                ],
                "uncleHeaders": [],
                "receipts": [
                    {
                        "transactionHash": "0x43138bd69d4cac70a2bf6e86daf25bdf694534f287786e5470df4adf7ecf75c4",
                        "type": "0x00",
                        "cumulativeGasUsed": "0xa9f1",
                        "bloom": "0x00000000000000000000000000000000000000000000000000000000000000000000000000000000000000000000000000000000000000000000000000000000000000000000000000000000000000000000000000000000000000000000000000000000000000000000000000000000000000000000000000000000000000000000000000000000000000000000000000000000000000000000000000000000000000000000000000000000000000000000000000000000000000000000000000000000000000000000000000000000000000000000000000000000000000000000000000000000000000000000000000000000000000000000000000000000",
                        "logs": [],
                        "status": true,
                        "rlp": "0xf901080182a9f1b9010000000000000000000000000000000000000000000000000000000000000000000000000000000000000000000000000000000000000000000000000000000000000000000000000000000000000000000000000000000000000000000000000000000000000000000000000000000000000000000000000000000000000000000000000000000000000000000000000000000000000000000000000000000000000000000000000000000000000000000000000000000000000000000000000000000000000000000000000000000000000000000000000000000000000000000000000000000000000000000000000000000000000000000000000000000000c0"
                    }
                ],
                "rlp": "0xf902c7f901f6a00ee4e8ecbbce020adebc369131cce6c6554e3db7922b72a774d186f84a5ee400a01dcc4de8dec75d7aab85b567b6ccd41ad312451b948a7413f0a142fd40d49347942adc25665018aa1fe0e6bc666dac8fc2697ff9baa06f4fca86d729b28af46e14bfc3ea001801778955c0fd447b2135a3acc6b80ce9a062a79069d7392c9b8ce22e6346e06690fe270aa36981eeadb15d1f02caf0bcf5a0d239ca17d4bb6abe2efb878f56cfa1ab277d118f9c640a7a6eb0e055705c8c27b901000000000000000000000000000000000000000000000000000000000000000000000000000000000000000000000000000000000000000000000000000000000000000000000000000000000000000000000000000000000000000000000000000000000000000000000000000000000000000000000000000000000000000000000000000000000000000000000000000000000000000000000000000000000000000000000000000000000000000000000000000000000000000000000000000000000000000000000000000000000000000000000000000000000000000000000000000000000000000000000000000000000000000000000000000000000080018407270e0082a9f18203e800a0000000000000000000000000000000000000000000000000000000000000000088000000000000000007f8cbf8c980843b9aca00830186a094e6597702901512e099b34854c9b8bc7463a39fde80b8640000000000000000000000000000000000000000000000000000000000000000000000000000000000000000000000000000000000000000000000000000000000000000000000000000000000000000000000000000000000000000000000000000000026a06213d1f8cfbf79288bbbbf772f0a75b47764cdca323ba19ebaf4dfe0775e0536a06db956f38cd2c71127f8821719891561797ffabfc0904a87f7171611ff35ecd9c0",
                "blocknumber": "1"
            }
        ],
        "sealEngine": "NoProof",
        "_info": {
            "hash": "0xf60b4f5e63b817ede1dd975fc79d2cbe955705b1a104e28896a0a1ac322d7132",
            "fixture-format": "blockchain_test",
            "comment": "`execution-specs` generated test",
            "filling-transition-tool": "2.19.0",
            "description": "Test CHAINID opcode.",
            "url": "https://github.com/ethereum/execution-specs/blob/tests-bal@v5.6.0/tests/istanbul/eip1344_chainid/test_chainid.py#L19",
            "metadata": {
                "opcode_count": {}
            },
            "reference-spec": "https://github.com/ethereum/EIPs/blob/master/EIPS/eip-1344.md",
            "reference-spec-version": "02e46aebc80e6e5006ab4d2daa41876139f9a9e2"
        }
    },
    "tests/istanbul/eip1344_chainid/test_chainid.py::test_chainid[fork_Paris-typed_transaction_1-blockchain_test_from_state_test]": {
        "network": "Paris",
        "genesisBlockHeader": {
            "parentHash": "0x0000000000000000000000000000000000000000000000000000000000000000",
            "uncleHash": "0x1dcc4de8dec75d7aab85b567b6ccd41ad312451b948a7413f0a142fd40d49347",
            "coinbase": "0x0000000000000000000000000000000000000000",
            "stateRoot": "0x04cf105f86c00ad2bcf12f8ccf4bade6ab0309b3baa8208c770ce50711ab93dc",
            "transactionsTrie": "0x56e81f171bcc55a6ff8345e692c0f86e5b48e01b996cadc001622fb5e363b421",
            "receiptTrie": "0x56e81f171bcc55a6ff8345e692c0f86e5b48e01b996cadc001622fb5e363b421",
            "bloom": "0x00000000000000000000000000000000000000000000000000000000000000000000000000000000000000000000000000000000000000000000000000000000000000000000000000000000000000000000000000000000000000000000000000000000000000000000000000000000000000000000000000000000000000000000000000000000000000000000000000000000000000000000000000000000000000000000000000000000000000000000000000000000000000000000000000000000000000000000000000000000000000000000000000000000000000000000000000000000000000000000000000000000000000000000000000000000",
            "difficulty": "0x00",
            "number": "0x00",
            "gasLimit": "0x07270e00",
            "gasUsed": "0x00",
            "timestamp": "0x00",
            "extraData": "0x00",
            "mixHash": "0x0000000000000000000000000000000000000000000000000000000000000000",
            "nonce": "0x0000000000000000",
            "baseFeePerGas": "0x07",
            "hash": "0x0ee4e8ecbbce020adebc369131cce6c6554e3db7922b72a774d186f84a5ee400"
        },
        "pre": {
            "0x1ad9bc24818784172ff393bb6f89f094d4d2ca29": {
                "nonce": "0x00",
                "balance": "0x3635c9adc5dea00000",
                "code": "0x",
                "storage": {}
            },
            "0xe6597702901512e099b34854c9b8bc7463a39fde": {
                "nonce": "0x01",
                "balance": "0x00",
                "code": "0x4660015500",
                "storage": {}
            }
        },
        "postState": {
            "0x1ad9bc24818784172ff393bb6f89f094d4d2ca29": {
                "nonce": "0x01",
                "balance": "0x3635c97549ec294600",
                "code": "0x",
                "storage": {}
            },
            "0xe6597702901512e099b34854c9b8bc7463a39fde": {
                "nonce": "0x01",
                "balance": "0x00",
                "code": "0x4660015500",
                "storage": {
                    "0x01": "0x01"
                }
            },
            "0x2adc25665018aa1fe0e6bc666dac8fc2697ff9ba": {
                "nonce": "0x00",
                "balance": "0x387bf27017d1",
                "code": "0x",
                "storage": {}
            }
        },
        "lastblockhash": "0xc2346e9f98b9b1db9593e9fdb836ccbdd2807b91fd0f4ad475e167cd8c8ba481",
        "config": {
            "network": "Paris",
            "chainid": "0x01"
        },
        "genesisRLP": "0xf901f7f901f2a00000000000000000000000000000000000000000000000000000000000000000a01dcc4de8dec75d7aab85b567b6ccd41ad312451b948a7413f0a142fd40d49347940000000000000000000000000000000000000000a004cf105f86c00ad2bcf12f8ccf4bade6ab0309b3baa8208c770ce50711ab93dca056e81f171bcc55a6ff8345e692c0f86e5b48e01b996cadc001622fb5e363b421a056e81f171bcc55a6ff8345e692c0f86e5b48e01b996cadc001622fb5e363b421b901000000000000000000000000000000000000000000000000000000000000000000000000000000000000000000000000000000000000000000000000000000000000000000000000000000000000000000000000000000000000000000000000000000000000000000000000000000000000000000000000000000000000000000000000000000000000000000000000000000000000000000000000000000000000000000000000000000000000000000000000000000000000000000000000000000000000000000000000000000000000000000000000000000000000000000000000000000000000000000000000000000000000000000000000000000000080808407270e00808000a0000000000000000000000000000000000000000000000000000000000000000088000000000000000007c0c0",
        "blocks": [
            {
                "blockHeader": {
                    "parentHash": "0x0ee4e8ecbbce020adebc369131cce6c6554e3db7922b72a774d186f84a5ee400",
                    "uncleHash": "0x1dcc4de8dec75d7aab85b567b6ccd41ad312451b948a7413f0a142fd40d49347",
                    "coinbase": "0x2adc25665018aa1fe0e6bc666dac8fc2697ff9ba",
                    "stateRoot": "0x263b2b01186649f64c69b88af4bed2a67771e29e3802040fba03dd05f3171058",
                    "transactionsTrie": "0x14943ae7d445716ac80881025a818fc20ebb5cec57596720ac23dc456564aa65",
                    "receiptTrie": "0x5efb54362edd457143e3db47ead32ab94f8f0ed0c16327d56f4da9bf68a793bd",
                    "bloom": "0x00000000000000000000000000000000000000000000000000000000000000000000000000000000000000000000000000000000000000000000000000000000000000000000000000000000000000000000000000000000000000000000000000000000000000000000000000000000000000000000000000000000000000000000000000000000000000000000000000000000000000000000000000000000000000000000000000000000000000000000000000000000000000000000000000000000000000000000000000000000000000000000000000000000000000000000000000000000000000000000000000000000000000000000000000000000",
                    "difficulty": "0x00",
                    "number": "0x01",
                    "gasLimit": "0x07270e00",
                    "gasUsed": "0xf299",
                    "timestamp": "0x03e8",
                    "extraData": "0x00",
                    "mixHash": "0x0000000000000000000000000000000000000000000000000000000000000000",
                    "nonce": "0x0000000000000000",
                    "baseFeePerGas": "0x07",
                    "hash": "0xc2346e9f98b9b1db9593e9fdb836ccbdd2807b91fd0f4ad475e167cd8c8ba481"
                },
                "transactions": [
                    {
                        "type": "0x01",
                        "chainId": "0x01",
                        "nonce": "0x00",
                        "gasPrice": "0x3b9aca00",
                        "gasLimit": "0x0186a0",
                        "to": "0xe6597702901512e099b34854c9b8bc7463a39fde",
                        "value": "0x00",
                        "data": "0x00000000000000000000000000000000000000000000000000000000000000000000000000000000000000000000000000000000000000000000000000000000000000000000000000000000000000000000000000000000000000000000000000000000",
                        "accessList": [
                            {
                                "address": "0x0000000000000000000000000000000000001234",
                                "storageKeys": [
                                    "0x0000000000000000000000000000000000000000000000000000000000000000",
                                    "0x0000000000000000000000000000000000000000000000000000000000000001",
                                    "0x0000000000000000000000000000000000000000000000000000000000000002"
                                ]
                            },
                            {
                                "address": "0x0000000000000000000000000000000000005678",
                                "storageKeys": [
                                    "0x0000000000000000000000000000000000000000000000000000000000000003",
                                    "0x0000000000000000000000000000000000000000000000000000000000000004",
                                    "0x0000000000000000000000000000000000000000000000000000000000000005"
                                ]
                            },
                            {
                                "address": "0x0000000000000000000000000000000000009abc",
                                "storageKeys": []
                            }
                        ],
                        "v": "0x00",
                        "r": "0x93ae138420e1793213602f9edc917235eac8bfe35bde1d3529937d3380889f99",
                        "s": "0x149f819a8515b3fdf524c2b9926a249a7ef29703b91bac509b96671d1949820e",
                        "sender": "0x1ad9bc24818784172ff393bb6f89f094d4d2ca29"
                    }
                ],
                "uncleHeaders": [],
                "receipts": [
                    {
                        "transactionHash": "0xefd4ba946df136c6da230d0bdc8bc3bd142d5dc680ab91a4eec5b751bb83c93e",
                        "type": "0x01",
                        "cumulativeGasUsed": "0xf299",
                        "bloom": "0x00000000000000000000000000000000000000000000000000000000000000000000000000000000000000000000000000000000000000000000000000000000000000000000000000000000000000000000000000000000000000000000000000000000000000000000000000000000000000000000000000000000000000000000000000000000000000000000000000000000000000000000000000000000000000000000000000000000000000000000000000000000000000000000000000000000000000000000000000000000000000000000000000000000000000000000000000000000000000000000000000000000000000000000000000000000",
                        "logs": [],
                        "status": true,
                        "rlp": "0x01f901080182f299b9010000000000000000000000000000000000000000000000000000000000000000000000000000000000000000000000000000000000000000000000000000000000000000000000000000000000000000000000000000000000000000000000000000000000000000000000000000000000000000000000000000000000000000000000000000000000000000000000000000000000000000000000000000000000000000000000000000000000000000000000000000000000000000000000000000000000000000000000000000000000000000000000000000000000000000000000000000000000000000000000000000000000000000000000000000000000c0"
                    }
                ],
                "rlp": "0xf903e0f901f6a00ee4e8ecbbce020adebc369131cce6c6554e3db7922b72a774d186f84a5ee400a01dcc4de8dec75d7aab85b567b6ccd41ad312451b948a7413f0a142fd40d49347942adc25665018aa1fe0e6bc666dac8fc2697ff9baa0263b2b01186649f64c69b88af4bed2a67771e29e3802040fba03dd05f3171058a014943ae7d445716ac80881025a818fc20ebb5cec57596720ac23dc456564aa65a05efb54362edd457143e3db47ead32ab94f8f0ed0c16327d56f4da9bf68a793bdb901000000000000000000000000000000000000000000000000000000000000000000000000000000000000000000000000000000000000000000000000000000000000000000000000000000000000000000000000000000000000000000000000000000000000000000000000000000000000000000000000000000000000000000000000000000000000000000000000000000000000000000000000000000000000000000000000000000000000000000000000000000000000000000000000000000000000000000000000000000000000000000000000000000000000000000000000000000000000000000000000000000000000000000000000000000000080018407270e0082f2998203e800a0000000000000000000000000000000000000000000000000000000000000000088000000000000000007f901e3b901e001f901dc0180843b9aca00830186a094e6597702901512e099b34854c9b8bc7463a39fde80b86400000000000000000000000000000000000000000000000000000000000000000000000000000000000000000000000000000000000000000000000000000000000000000000000000000000000000000000000000000000000000000000000000000000f9010ff87a940000000000000000000000000000000000001234f863a00000000000000000000000000000000000000000000000000000000000000000a00000000000000000000000000000000000000000000000000000000000000001a00000000000000000000000000000000000000000000000000000000000000002f87a940000000000000000000000000000000000005678f863a00000000000000000000000000000000000000000000000000000000000000003a00000000000000000000000000000000000000000000000000000000000000004a00000000000000000000000000000000000000000000000000000000000000005d6940000000000000000000000000000000000009abcc080a093ae138420e1793213602f9edc917235eac8bfe35bde1d3529937d3380889f99a0149f819a8515b3fdf524c2b9926a249a7ef29703b91bac509b96671d1949820ec0",
                "blocknumber": "1"
            }
        ],
        "sealEngine": "NoProof",
        "_info": {
            "hash": "0x93158761ab87b72cddf8a16ba1e511ce4e9e0c7c255e052a6e75269401b106d7",
            "fixture-format": "blockchain_test",
            "comment": "`execution-specs` generated test",
            "filling-transition-tool": "2.19.0",
            "description": "Test CHAINID opcode.",
            "url": "https://github.com/ethereum/execution-specs/blob/tests-bal@v5.6.0/tests/istanbul/eip1344_chainid/test_chainid.py#L19",
            "metadata": {
                "opcode_count": {}
            },
            "reference-spec": "https://github.com/ethereum/EIPs/blob/master/EIPS/eip-1344.md",
            "reference-spec-version": "02e46aebc80e6e5006ab4d2daa41876139f9a9e2"
        }
    },
    "tests/istanbul/eip1344_chainid/test_chainid.py::test_chainid[fork_Paris-typed_transaction_2-blockchain_test_from_state_test]": {
        "network": "Paris",
        "genesisBlockHeader": {
            "parentHash": "0x0000000000000000000000000000000000000000000000000000000000000000",
            "uncleHash": "0x1dcc4de8dec75d7aab85b567b6ccd41ad312451b948a7413f0a142fd40d49347",
            "coinbase": "0x0000000000000000000000000000000000000000",
            "stateRoot": "0x04cf105f86c00ad2bcf12f8ccf4bade6ab0309b3baa8208c770ce50711ab93dc",
            "transactionsTrie": "0x56e81f171bcc55a6ff8345e692c0f86e5b48e01b996cadc001622fb5e363b421",
            "receiptTrie": "0x56e81f171bcc55a6ff8345e692c0f86e5b48e01b996cadc001622fb5e363b421",
            "bloom": "0x00000000000000000000000000000000000000000000000000000000000000000000000000000000000000000000000000000000000000000000000000000000000000000000000000000000000000000000000000000000000000000000000000000000000000000000000000000000000000000000000000000000000000000000000000000000000000000000000000000000000000000000000000000000000000000000000000000000000000000000000000000000000000000000000000000000000000000000000000000000000000000000000000000000000000000000000000000000000000000000000000000000000000000000000000000000",
            "difficulty": "0x00",
            "number": "0x00",
            "gasLimit": "0x07270e00",
            "gasUsed": "0x00",
            "timestamp": "0x00",
            "extraData": "0x00",
            "mixHash": "0x0000000000000000000000000000000000000000000000000000000000000000",
            "nonce": "0x0000000000000000",
            "baseFeePerGas": "0x07",
            "hash": "0x0ee4e8ecbbce020adebc369131cce6c6554e3db7922b72a774d186f84a5ee400"
        },
        "pre": {
            "0x1ad9bc24818784172ff393bb6f89f094d4d2ca29": {
                "nonce": "0x00",
                "balance": "0x3635c9adc5dea00000",
                "code": "0x",
                "storage": {}
            },
            "0xe6597702901512e099b34854c9b8bc7463a39fde": {
                "nonce": "0x01",
                "balance": "0x00",
                "code": "0x4660015500",
                "storage": {}
            }
        },
        "postState": {
            "0x1ad9bc24818784172ff393bb6f89f094d4d2ca29": {
                "nonce": "0x01",
                "balance": "0x3635c978d5f6406675",
                "code": "0x",
                "storage": {}
            },
            "0xe6597702901512e099b34854c9b8bc7463a39fde": {
                "nonce": "0x01",
                "balance": "0x00",
                "code": "0x4660015500",
                "storage": {
                    "0x01": "0x01"
                }
            },
            "0x2adc25665018aa1fe0e6bc666dac8fc2697ff9ba": {
                "nonce": "0x00",
                "balance": "0x34efe8596200",
                "code": "0x",
                "storage": {}
            }
        },
        "lastblockhash": "0x0e2e1a3b644646a7b131072b40feebcd2b813601ebdfd0767c1eb971d3546060",
        "config": {
            "network": "Paris",
            "chainid": "0x01"
        },
        "genesisRLP": "0xf901f7f901f2a00000000000000000000000000000000000000000000000000000000000000000a01dcc4de8dec75d7aab85b567b6ccd41ad312451b948a7413f0a142fd40d49347940000000000000000000000000000000000000000a004cf105f86c00ad2bcf12f8ccf4bade6ab0309b3baa8208c770ce50711ab93dca056e81f171bcc55a6ff8345e692c0f86e5b48e01b996cadc001622fb5e363b421a056e81f171bcc55a6ff8345e692c0f86e5b48e01b996cadc001622fb5e363b421b901000000000000000000000000000000000000000000000000000000000000000000000000000000000000000000000000000000000000000000000000000000000000000000000000000000000000000000000000000000000000000000000000000000000000000000000000000000000000000000000000000000000000000000000000000000000000000000000000000000000000000000000000000000000000000000000000000000000000000000000000000000000000000000000000000000000000000000000000000000000000000000000000000000000000000000000000000000000000000000000000000000000000000000000000000000000080808407270e00808000a0000000000000000000000000000000000000000000000000000000000000000088000000000000000007c0c0",
        "blocks": [
            {
                "blockHeader": {
                    "parentHash": "0x0ee4e8ecbbce020adebc369131cce6c6554e3db7922b72a774d186f84a5ee400",
                    "uncleHash": "0x1dcc4de8dec75d7aab85b567b6ccd41ad312451b948a7413f0a142fd40d49347",
                    "coinbase": "0x2adc25665018aa1fe0e6bc666dac8fc2697ff9ba",
                    "stateRoot": "0xc9518bd36a754f0ba92d7424dcd5383c0f24d96623e86c9c4570a50360ef9d7f",
                    "transactionsTrie": "0x513d0f94b3682f98ca0e5f95afeb32a9252bde456303ade858eec47abcc4a1bd",
                    "receiptTrie": "0x46f69ff4f76043fb8f58832e8028cd8a783d1cbda460cacd5c860b1818365af1",
                    "bloom": "0x00000000000000000000000000000000000000000000000000000000000000000000000000000000000000000000000000000000000000000000000000000000000000000000000000000000000000000000000000000000000000000000000000000000000000000000000000000000000000000000000000000000000000000000000000000000000000000000000000000000000000000000000000000000000000000000000000000000000000000000000000000000000000000000000000000000000000000000000000000000000000000000000000000000000000000000000000000000000000000000000000000000000000000000000000000000",
                    "difficulty": "0x00",
                    "number": "0x01",
                    "gasLimit": "0x07270e00",
                    "gasUsed": "0xe35d",
                    "timestamp": "0x03e8",
                    "extraData": "0x00",
                    "mixHash": "0x0000000000000000000000000000000000000000000000000000000000000000",
                    "nonce": "0x0000000000000000",
                    "baseFeePerGas": "0x07",
                    "hash": "0x0e2e1a3b644646a7b131072b40feebcd2b813601ebdfd0767c1eb971d3546060"
                },
                "transactions": [
                    {
                        "type": "0x02",
                        "chainId": "0x01",
                        "nonce": "0x00",
                        "maxPriorityFeePerGas": "0x3b9aca00",
                        "maxFeePerGas": "0x02540be400",
                        "gasLimit": "0x0186a0",
                        "to": "0xe6597702901512e099b34854c9b8bc7463a39fde",
                        "value": "0x00",
                        "data": "0x0000000000000000000000000000000000000000000000000000000000000000000000000000000000000000000000000000000000000000000000000000000000000000000000000000000000000000000000000000000000000000000000000000000000000000000000000000000000000000000000000000000000000000000000000000000000000000000000000000000000000000000000000000000000000000000000000000000000000000000000000000000000000000000000000000000000000000",
                        "accessList": [
                            {
                                "address": "0x0000000000000000000000000000000000002468",
                                "storageKeys": [
                                    "0x000000000000000000000000000000000000000000000000000000000000000a",
                                    "0x0000000000000000000000000000000000000000000000000000000000000014",
                                    "0x000000000000000000000000000000000000000000000000000000000000001e"
                                ]
                            },
                            {
                                "address": "0x000000000000000000000000000000000000ace0",
                                "storageKeys": [
                                    "0x0000000000000000000000000000000000000000000000000000000000000028",
                                    "0x0000000000000000000000000000000000000000000000000000000000000032"
                                ]
                            }
                        ],
                        "v": "0x01",
                        "r": "0x6d196e1fd7b67cc40225d4bacc8b7f5ad5c76e9ac7170f0f848ea32883102f8a",
                        "s": "0x6b64d07b5df22cae104d26a98aa2f6daf3cf45fc6be74374e4e6565bf7c5cd",
                        "sender": "0x1ad9bc24818784172ff393bb6f89f094d4d2ca29"
                    }
                ],
                "uncleHeaders": [],
                "receipts": [
                    {
                        "transactionHash": "0x32a2f2c9a1d5aae329279312c6b952583e138ea1e1ef44909a9b4a8ce3f8615a",
                        "type": "0x02",
                        "cumulativeGasUsed": "0xe35d",
                        "bloom": "0x00000000000000000000000000000000000000000000000000000000000000000000000000000000000000000000000000000000000000000000000000000000000000000000000000000000000000000000000000000000000000000000000000000000000000000000000000000000000000000000000000000000000000000000000000000000000000000000000000000000000000000000000000000000000000000000000000000000000000000000000000000000000000000000000000000000000000000000000000000000000000000000000000000000000000000000000000000000000000000000000000000000000000000000000000000000",
                        "logs": [],
                        "status": true,
                        "rlp": "0x02f901080182e35db9010000000000000000000000000000000000000000000000000000000000000000000000000000000000000000000000000000000000000000000000000000000000000000000000000000000000000000000000000000000000000000000000000000000000000000000000000000000000000000000000000000000000000000000000000000000000000000000000000000000000000000000000000000000000000000000000000000000000000000000000000000000000000000000000000000000000000000000000000000000000000000000000000000000000000000000000000000000000000000000000000000000000000000000000000000000000c0"
                    }
                ],
                "rlp": "0xf90410f901f6a00ee4e8ecbbce020adebc369131cce6c6554e3db7922b72a774d186f84a5ee400a01dcc4de8dec75d7aab85b567b6ccd41ad312451b948a7413f0a142fd40d49347942adc25665018aa1fe0e6bc666dac8fc2697ff9baa0c9518bd36a754f0ba92d7424dcd5383c0f24d96623e86c9c4570a50360ef9d7fa0513d0f94b3682f98ca0e5f95afeb32a9252bde456303ade858eec47abcc4a1bda046f69ff4f76043fb8f58832e8028cd8a783d1cbda460cacd5c860b1818365af1b901000000000000000000000000000000000000000000000000000000000000000000000000000000000000000000000000000000000000000000000000000000000000000000000000000000000000000000000000000000000000000000000000000000000000000000000000000000000000000000000000000000000000000000000000000000000000000000000000000000000000000000000000000000000000000000000000000000000000000000000000000000000000000000000000000000000000000000000000000000000000000000000000000000000000000000000000000000000000000000000000000000000000000000000000000000000080018407270e0082e35d8203e800a0000000000000000000000000000000000000000000000000000000000000000088000000000000000007f90213b9021002f9020c0180843b9aca008502540be400830186a094e6597702901512e099b34854c9b8bc7463a39fde80b8c80000000000000000000000000000000000000000000000000000000000000000000000000000000000000000000000000000000000000000000000000000000000000000000000000000000000000000000000000000000000000000000000000000000000000000000000000000000000000000000000000000000000000000000000000000000000000000000000000000000000000000000000000000000000000000000000000000000000000000000000000000000000000000000000000000000000000000f8d7f87a940000000000000000000000000000000000002468f863a0000000000000000000000000000000000000000000000000000000000000000aa00000000000000000000000000000000000000000000000000000000000000014a0000000000000000000000000000000000000000000000000000000000000001ef85994000000000000000000000000000000000000ace0f842a00000000000000000000000000000000000000000000000000000000000000028a0000000000000000000000000000000000000000000000000000000000000003201a06d196e1fd7b67cc40225d4bacc8b7f5ad5c76e9ac7170f0f848ea32883102f8a9f6b64d07b5df22cae104d26a98aa2f6daf3cf45fc6be74374e4e6565bf7c5cdc0",
                "blocknumber": "1"
            }
        ],
        "sealEngine": "NoProof",
        "_info": {
            "hash": "0xc38e3aba5ab64a89c5b78dbde163d1303adc156c791d63757f7d8d629267c7b0",
            "fixture-format": "blockchain_test",
            "comment": "`execution-specs` generated test",
            "filling-transition-tool": "2.19.0",
            "description": "Test CHAINID opcode.",
            "url": "https://github.com/ethereum/execution-specs/blob/tests-bal@v5.6.0/tests/istanbul/eip1344_chainid/test_chainid.py#L19",
            "metadata": {
                "opcode_count": {}
            },
            "reference-spec": "https://github.com/ethereum/EIPs/blob/master/EIPS/eip-1344.md",
            "reference-spec-version": "02e46aebc80e6e5006ab4d2daa41876139f9a9e2"
        }
    }
}