{
    "tests/ported_static/stTransactionTest/test_suicides_stop_after_suicide.py::test_suicides_stop_after_suicide[fork_Cancun-blockchain_test_from_state_test]": {
        "network": "Cancun",
        "genesisBlockHeader": {
            "parentHash": "0x0000000000000000000000000000000000000000000000000000000000000000",
            "uncleHash": "0x1dcc4de8dec75d7aab85b567b6ccd41ad312451b948a7413f0a142fd40d49347",
            "coinbase": "0x0000000000000000000000000000000000000000",
            "stateRoot": "0x69f823a49d9de792cd3d3ba35a8205203a6ef069a00dced2c3f2fd59465a63aa",
            "transactionsTrie": "0x56e81f171bcc55a6ff8345e692c0f86e5b48e01b996cadc001622fb5e363b421",
            "receiptTrie": "0x56e81f171bcc55a6ff8345e692c0f86e5b48e01b996cadc001622fb5e363b421",
            "bloom": "0x00000000000000000000000000000000000000000000000000000000000000000000000000000000000000000000000000000000000000000000000000000000000000000000000000000000000000000000000000000000000000000000000000000000000000000000000000000000000000000000000000000000000000000000000000000000000000000000000000000000000000000000000000000000000000000000000000000000000000000000000000000000000000000000000000000000000000000000000000000000000000000000000000000000000000000000000000000000000000000000000000000000000000000000000000000000",
            "difficulty": "0x00",
            "number": "0x00",
            "gasLimit": "0x0186a0",
            "gasUsed": "0x00",
            "timestamp": "0x00",
            "extraData": "0x00",
            "mixHash": "0x0000000000000000000000000000000000000000000000000000000000000000",
            "nonce": "0x0000000000000000",
            "baseFeePerGas": "0x0b",
            "withdrawalsRoot": "0x56e81f171bcc55a6ff8345e692c0f86e5b48e01b996cadc001622fb5e363b421",
            "blobGasUsed": "0x00",
            "excessBlobGas": "0x00",
            "parentBeaconBlockRoot": "0x0000000000000000000000000000000000000000000000000000000000000000",
            "hash": "0x2c0dd3f87894893bf32f62172c34a61a65f3748e499638448087ebd37c87d97b"
        },
        "pre": {
            "0x000f3df6d732807ef1319fb7b8bb8522d0beac02": {
                "nonce": "0x01",
                "balance": "0x00",
                "code": "0x3373fffffffffffffffffffffffffffffffffffffffe14604d57602036146024575f5ffd5b5f35801560495762001fff810690815414603c575f5ffd5b62001fff01545f5260205ff35b5f5ffd5b62001fff42064281555f359062001fff015500",
                "storage": {}
            },
            "0xb6625053fa7ec4e9e2f6e16277c98d259c4cc41a": {
                "nonce": "0x00",
                "balance": "0x07459280",
                "code": "0x",
                "storage": {}
            },
            "0x0000000000000000000000000000000000000000": {
                "nonce": "0x00",
                "balance": "0x0456",
                "code": "0x6001ff00",
                "storage": {}
            },
            "0x77a64b2624966456580e748d6b2be25a855488c9": {
                "nonce": "0x00",
                "balance": "0x2710",
                "code": "0x6000ff600060006000600060006000617530f100",
                "storage": {}
            }
        },
        "postState": {
            "0x000f3df6d732807ef1319fb7b8bb8522d0beac02": {
                "nonce": "0x01",
                "balance": "0x00",
                "code": "0x3373fffffffffffffffffffffffffffffffffffffffe14604d57602036146024575f5ffd5b5f35801560495762001fff810690815414603c575f5ffd5b62001fff01545f5260205ff35b5f5ffd5b62001fff42064281555f359062001fff015500",
                "storage": {
                    "0x03e8": "0x03e8"
                }
            },
            "0xb6625053fa7ec4e9e2f6e16277c98d259c4cc41a": {
                "nonce": "0x01",
                "balance": "0x07413528",
                "code": "0x",
                "storage": {}
            },
            "0x0000000000000000000000000000000000000000": {
                "nonce": "0x00",
                "balance": "0x2b70",
                "code": "0x6001ff00",
                "storage": {}
            },
            "0x77a64b2624966456580e748d6b2be25a855488c9": {
                "nonce": "0x00",
                "balance": "0x00",
                "code": "0x6000ff600060006000600060006000617530f100",
                "storage": {}
            }
        },
        "lastblockhash": "0x53c8562d0c18e321f1308534da7375935cb5bbc98f38ef08b6f71692804ebebe",
        "config": {
            "network": "Cancun",
            "chainid": "0x01",
            "blobSchedule": {
                "Cancun": {
                    "target": "0x03",
                    "max": "0x06",
                    "baseFeeUpdateFraction": "0x32f0ed"
                }
            }
        },
        "genesisRLP": "0xf9023bf90235a00000000000000000000000000000000000000000000000000000000000000000a01dcc4de8dec75d7aab85b567b6ccd41ad312451b948a7413f0a142fd40d49347940000000000000000000000000000000000000000a069f823a49d9de792cd3d3ba35a8205203a6ef069a00dced2c3f2fd59465a63aaa056e81f171bcc55a6ff8345e692c0f86e5b48e01b996cadc001622fb5e363b421a056e81f171bcc55a6ff8345e692c0f86e5b48e01b996cadc001622fb5e363b421b90100000000000000000000000000000000000000000000000000000000000000000000000000000000000000000000000000000000000000000000000000000000000000000000000000000000000000000000000000000000000000000000000000000000000000000000000000000000000000000000000000000000000000000000000000000000000000000000000000000000000000000000000000000000000000000000000000000000000000000000000000000000000000000000000000000000000000000000000000000000000000000000000000000000000000000000000000000000000000000000000000000000000000000000000000000000008080830186a0808000a000000000000000000000000000000000000000000000000000000000000000008800000000000000000ba056e81f171bcc55a6ff8345e692c0f86e5b48e01b996cadc001622fb5e363b4218080a00000000000000000000000000000000000000000000000000000000000000000c0c0c0",
        "blocks": [
            {
                "blockHeader": {
                    "parentHash": "0x2c0dd3f87894893bf32f62172c34a61a65f3748e499638448087ebd37c87d97b",
                    "uncleHash": "0x1dcc4de8dec75d7aab85b567b6ccd41ad312451b948a7413f0a142fd40d49347",
                    "coinbase": "0xb94f5374fce5edbc8e2a8697c15331677e6ebf0b",
                    "stateRoot": "0x2573c0da4615f3873f28824ed91ab8acfd9197e30c55be8b13bc04299a80553a",
                    "transactionsTrie": "0x22914a2cb982834b8b0708c1f1af03b9fb033f6091501ed86bc576be88787e01",
                    "receiptTrie": "0x1aa200efa1cb9f773d917eb2d51883ae0e5c930513949875f0e4ffe68ea9ff69",
                    "bloom": "0x00000000000000000000000000000000000000000000000000000000000000000000000000000000000000000000000000000000000000000000000000000000000000000000000000000000000000000000000000000000000000000000000000000000000000000000000000000000000000000000000000000000000000000000000000000000000000000000000000000000000000000000000000000000000000000000000000000000000000000000000000000000000000000000000000000000000000000000000000000000000000000000000000000000000000000000000000000000000000000000000000000000000000000000000000000000",
                    "difficulty": "0x00",
                    "number": "0x01",
                    "gasLimit": "0x0186a0",
                    "gasUsed": "0x6fbb",
                    "timestamp": "0x03e8",
                    "extraData": "0x00",
                    "mixHash": "0x0000000000000000000000000000000000000000000000000000000000020000",
                    "nonce": "0x0000000000000000",
                    "baseFeePerGas": "0x0a",
                    "withdrawalsRoot": "0x56e81f171bcc55a6ff8345e692c0f86e5b48e01b996cadc001622fb5e363b421",
                    "blobGasUsed": "0x00",
                    "excessBlobGas": "0x00",
                    "parentBeaconBlockRoot": "0x0000000000000000000000000000000000000000000000000000000000000000",
                    "hash": "0x53c8562d0c18e321f1308534da7375935cb5bbc98f38ef08b6f71692804ebebe"
                },
                "transactions": [
                    {
                        "type": "0x00",
                        "chainId": "0x01",
                        "nonce": "0x00",
                        "gasPrice": "0x0a",
                        "gasLimit": "0x0146f4",
                        "to": "0x77a64b2624966456580e748d6b2be25a855488c9",
                        "value": "0x0a",
                        "data": "0x",
                        "v": "0x25",
                        "r": "0x6f6f61fbdcc7acfb96e0bcfb25df0a2fc5335822aee73bb1351b4fb9d896c0ee",
                        "s": "0x4b0dbe8ff0dd1c87f4db6bb793da093fa813c19dff91fa213f3dda52acf51227",
                        "sender": "0xb6625053fa7ec4e9e2f6e16277c98d259c4cc41a"
                    }
                ],
                "uncleHeaders": [],
                "withdrawals": [],
                "receipts": [
                    {
                        "transactionHash": "0xe69116bd56515b851e1021988bd405bdbe65d1aece83bb80d6b025dc9cbe3409",
                        "type": "0x00",
                        "cumulativeGasUsed": "0x6fbb",
                        "bloom": "0x00000000000000000000000000000000000000000000000000000000000000000000000000000000000000000000000000000000000000000000000000000000000000000000000000000000000000000000000000000000000000000000000000000000000000000000000000000000000000000000000000000000000000000000000000000000000000000000000000000000000000000000000000000000000000000000000000000000000000000000000000000000000000000000000000000000000000000000000000000000000000000000000000000000000000000000000000000000000000000000000000000000000000000000000000000000",
                        "logs": [],
                        "status": true,
                        "rlp": "0xf9010801826fbbb9010000000000000000000000000000000000000000000000000000000000000000000000000000000000000000000000000000000000000000000000000000000000000000000000000000000000000000000000000000000000000000000000000000000000000000000000000000000000000000000000000000000000000000000000000000000000000000000000000000000000000000000000000000000000000000000000000000000000000000000000000000000000000000000000000000000000000000000000000000000000000000000000000000000000000000000000000000000000000000000000000000000000000000000000000000000000c0"
                    }
                ],
                "rlp": "0xf902a2f90239a02c0dd3f87894893bf32f62172c34a61a65f3748e499638448087ebd37c87d97ba01dcc4de8dec75d7aab85b567b6ccd41ad312451b948a7413f0a142fd40d4934794b94f5374fce5edbc8e2a8697c15331677e6ebf0ba02573c0da4615f3873f28824ed91ab8acfd9197e30c55be8b13bc04299a80553aa022914a2cb982834b8b0708c1f1af03b9fb033f6091501ed86bc576be88787e01a01aa200efa1cb9f773d917eb2d51883ae0e5c930513949875f0e4ffe68ea9ff69b90100000000000000000000000000000000000000000000000000000000000000000000000000000000000000000000000000000000000000000000000000000000000000000000000000000000000000000000000000000000000000000000000000000000000000000000000000000000000000000000000000000000000000000000000000000000000000000000000000000000000000000000000000000000000000000000000000000000000000000000000000000000000000000000000000000000000000000000000000000000000000000000000000000000000000000000000000000000000000000000000000000000000000000000000000000000008001830186a0826fbb8203e800a000000000000000000000000000000000000000000000000000000000000200008800000000000000000aa056e81f171bcc55a6ff8345e692c0f86e5b48e01b996cadc001622fb5e363b4218080a00000000000000000000000000000000000000000000000000000000000000000f862f860800a830146f49477a64b2624966456580e748d6b2be25a855488c90a8025a06f6f61fbdcc7acfb96e0bcfb25df0a2fc5335822aee73bb1351b4fb9d896c0eea04b0dbe8ff0dd1c87f4db6bb793da093fa813c19dff91fa213f3dda52acf51227c0c0",
                "blocknumber": "1"
            }
        ],
        "sealEngine": "NoProof",
        "_info": {
            "hash": "0xf53b255d23ad4e6852ea50aeefe5877d352cbb903241b4bef091ac2cdc138a4a",
            "fixture-format": "blockchain_test",
            "comment": "`execution-specs` generated test",
            "filling-transition-tool": "2.19.0",
            "description": "Test_suicides_stop_after_suicide.",
            "url": "https://github.com/ethereum/execution-specs/blob/tests-snobal-devnet-5@v8037.0.0/tests/ported_static/stTransactionTest/test_suicides_stop_after_suicide.py#L24",
            "metadata": {
                "opcode_count": {}
            }
        }
    }
}