{
    "tests/ported_static/stCallCodes/test_callcallcall_000_oogm_after.py::test_callcallcall_000_oogm_after[fork_Cancun-blockchain_test_from_state_test]": {
        "network": "Cancun",
        "genesisBlockHeader": {
            "parentHash": "0x0000000000000000000000000000000000000000000000000000000000000000",
            "uncleHash": "0x1dcc4de8dec75d7aab85b567b6ccd41ad312451b948a7413f0a142fd40d49347",
            "coinbase": "0x0000000000000000000000000000000000000000",
            "stateRoot": "0x119818126d355b3802e57c2217df2929dbfc8d142e6be35872d7d79a0d33c562",
            "transactionsTrie": "0x56e81f171bcc55a6ff8345e692c0f86e5b48e01b996cadc001622fb5e363b421",
            "receiptTrie": "0x56e81f171bcc55a6ff8345e692c0f86e5b48e01b996cadc001622fb5e363b421",
            "bloom": "0x00000000000000000000000000000000000000000000000000000000000000000000000000000000000000000000000000000000000000000000000000000000000000000000000000000000000000000000000000000000000000000000000000000000000000000000000000000000000000000000000000000000000000000000000000000000000000000000000000000000000000000000000000000000000000000000000000000000000000000000000000000000000000000000000000000000000000000000000000000000000000000000000000000000000000000000000000000000000000000000000000000000000000000000000000000000",
            "difficulty": "0x00",
            "number": "0x00",
            "gasLimit": "0x01c9c380",
            "gasUsed": "0x00",
            "timestamp": "0x00",
            "extraData": "0x00",
            "mixHash": "0x0000000000000000000000000000000000000000000000000000000000000000",
            "nonce": "0x0000000000000000",
            "baseFeePerGas": "0x0b",
            "withdrawalsRoot": "0x56e81f171bcc55a6ff8345e692c0f86e5b48e01b996cadc001622fb5e363b421",
            "blobGasUsed": "0x00",
            "excessBlobGas": "0x00",
            "parentBeaconBlockRoot": "0x0000000000000000000000000000000000000000000000000000000000000000",
            "hash": "0x5d6b89aa517b2743efbd3668565fb20789371700abf2c5a0b79310850af27569"
        },
        "pre": {
            "0x000f3df6d732807ef1319fb7b8bb8522d0beac02": {
                "nonce": "0x01",
                "balance": "0x00",
                "code": "0x3373fffffffffffffffffffffffffffffffffffffffe14604d57602036146024575f5ffd5b5f35801560495762001fff810690815414603c575f5ffd5b62001fff01545f5260205ff35b5f5ffd5b62001fff42064281555f359062001fff015500",
                "storage": {}
            },
            "0xd66f224cbd2fabb21b17bb53c56118f32f62ebd6": {
                "nonce": "0x00",
                "balance": "0x0de0b6b3a7640000",
                "code": "0x",
                "storage": {}
            },
            "0xf68e9b59ad48df3b9601ded50f7a1049113d801d": {
                "nonce": "0x00",
                "balance": "0x00",
                "code": "0x600160035500",
                "storage": {}
            },
            "0xa0ee2d1b3defaa974a5b8cd21ab3b08ab8334938": {
                "nonce": "0x00",
                "balance": "0x00",
                "code": "0x6040600060406000600073f68e9b59ad48df3b9601ded50f7a1049113d801d62061a80f160025500",
                "storage": {}
            },
            "0xfc0701c041c0339f09c74f824e8ad038292009bf": {
                "nonce": "0x00",
                "balance": "0x00",
                "code": "0x6040600060406000600073a0ee2d1b3defaa974a5b8cd21ab3b08ab8334938620927c0f1600155622fffff60002000",
                "storage": {}
            },
            "0x11dbd140191287bbd0f607ef0ef1f4f9863f556c": {
                "nonce": "0x00",
                "balance": "0x0de0b6b3a7640000",
                "code": "0x6040600060406000600073fc0701c041c0339f09c74f824e8ad038292009bf620c3500f16000556001600b5500",
                "storage": {}
            }
        },
        "postState": {
            "0x000f3df6d732807ef1319fb7b8bb8522d0beac02": {
                "nonce": "0x01",
                "balance": "0x00",
                "code": "0x3373fffffffffffffffffffffffffffffffffffffffe14604d57602036146024575f5ffd5b5f35801560495762001fff810690815414603c575f5ffd5b62001fff01545f5260205ff35b5f5ffd5b62001fff42064281555f359062001fff015500",
                "storage": {
                    "0x03e8": "0x03e8"
                }
            },
            "0xd66f224cbd2fabb21b17bb53c56118f32f62ebd6": {
                "nonce": "0x01",
                "balance": "0x0de0b6b3a6e29d80",
                "code": "0x",
                "storage": {}
            },
            "0xf68e9b59ad48df3b9601ded50f7a1049113d801d": {
                "nonce": "0x00",
                "balance": "0x00",
                "code": "0x600160035500",
                "storage": {}
            },
            "0xa0ee2d1b3defaa974a5b8cd21ab3b08ab8334938": {
                "nonce": "0x00",
                "balance": "0x00",
                "code": "0x6040600060406000600073f68e9b59ad48df3b9601ded50f7a1049113d801d62061a80f160025500",
                "storage": {}
            },
            "0xfc0701c041c0339f09c74f824e8ad038292009bf": {
                "nonce": "0x00",
                "balance": "0x00",
                "code": "0x6040600060406000600073a0ee2d1b3defaa974a5b8cd21ab3b08ab8334938620927c0f1600155622fffff60002000",
                "storage": {}
            },
            "0x11dbd140191287bbd0f607ef0ef1f4f9863f556c": {
                "nonce": "0x00",
                "balance": "0x0de0b6b3a7640000",
                "code": "0x6040600060406000600073fc0701c041c0339f09c74f824e8ad038292009bf620c3500f16000556001600b5500",
                "storage": {
                    "0x0b": "0x01"
                }
            }
        },
        "lastblockhash": "0xe5850406257016af2b1150a35340daffe6d9b379d936f713f83859f4dd7e2338",
        "config": {
            "network": "Cancun",
            "chainid": "0x01",
            "blobSchedule": {
                "Cancun": {
                    "target": "0x03",
                    "max": "0x06",
                    "baseFeeUpdateFraction": "0x32f0ed"
                }
            }
        },
        "genesisRLP": "0xf9023cf90236a00000000000000000000000000000000000000000000000000000000000000000a01dcc4de8dec75d7aab85b567b6ccd41ad312451b948a7413f0a142fd40d49347940000000000000000000000000000000000000000a0119818126d355b3802e57c2217df2929dbfc8d142e6be35872d7d79a0d33c562a056e81f171bcc55a6ff8345e692c0f86e5b48e01b996cadc001622fb5e363b421a056e81f171bcc55a6ff8345e692c0f86e5b48e01b996cadc001622fb5e363b421b901000000000000000000000000000000000000000000000000000000000000000000000000000000000000000000000000000000000000000000000000000000000000000000000000000000000000000000000000000000000000000000000000000000000000000000000000000000000000000000000000000000000000000000000000000000000000000000000000000000000000000000000000000000000000000000000000000000000000000000000000000000000000000000000000000000000000000000000000000000000000000000000000000000000000000000000000000000000000000000000000000000000000000000000000000000000080808401c9c380808000a000000000000000000000000000000000000000000000000000000000000000008800000000000000000ba056e81f171bcc55a6ff8345e692c0f86e5b48e01b996cadc001622fb5e363b4218080a00000000000000000000000000000000000000000000000000000000000000000c0c0c0",
        "blocks": [
            {
                "blockHeader": {
                    "parentHash": "0x5d6b89aa517b2743efbd3668565fb20789371700abf2c5a0b79310850af27569",
                    "uncleHash": "0x1dcc4de8dec75d7aab85b567b6ccd41ad312451b948a7413f0a142fd40d49347",
                    "coinbase": "0x2adc25665018aa1fe0e6bc666dac8fc2697ff9ba",
                    "stateRoot": "0x44bf0409394e2a1c1d1d38ad9a49e6357556fb578dfdcae88f66b58a91e1bca0",
                    "transactionsTrie": "0x65e485f1d26c820caebb4cc9a47a1d64450106440741b94640b6ca116ee9ec0d",
                    "receiptTrie": "0xbf46d4ee9345a2cdd98065ff4c648060f294884bf381cd4bb5f993c6ff02f50e",
                    "bloom": "0x00000000000000000000000000000000000000000000000000000000000000000000000000000000000000000000000000000000000000000000000000000000000000000000000000000000000000000000000000000000000000000000000000000000000000000000000000000000000000000000000000000000000000000000000000000000000000000000000000000000000000000000000000000000000000000000000000000000000000000000000000000000000000000000000000000000000000000000000000000000000000000000000000000000000000000000000000000000000000000000000000000000000000000000000000000000",
                    "difficulty": "0x00",
                    "number": "0x01",
                    "gasLimit": "0x01c9c380",
                    "gasUsed": "0x0cf040",
                    "timestamp": "0x03e8",
                    "extraData": "0x00",
                    "mixHash": "0x0000000000000000000000000000000000000000000000000000000000020000",
                    "nonce": "0x0000000000000000",
                    "baseFeePerGas": "0x0a",
                    "withdrawalsRoot": "0x56e81f171bcc55a6ff8345e692c0f86e5b48e01b996cadc001622fb5e363b421",
                    "blobGasUsed": "0x00",
                    "excessBlobGas": "0x00",
                    "parentBeaconBlockRoot": "0x0000000000000000000000000000000000000000000000000000000000000000",
                    "hash": "0xe5850406257016af2b1150a35340daffe6d9b379d936f713f83859f4dd7e2338"
                },
                "transactions": [
                    {
                        "type": "0x00",
                        "chainId": "0x01",
                        "nonce": "0x00",
                        "gasPrice": "0x0a",
                        "gasLimit": "0x0f4240",
                        "to": "0x11dbd140191287bbd0f607ef0ef1f4f9863f556c",
                        "value": "0x00",
                        "data": "0x",
                        "v": "0x25",
                        "r": "0xdce99d9e5a1f4714f1b07d43addc2ddda49a5d6e1a0cbba0e4b0a7ab37f27f9b",
                        "s": "0x5c32d8d25fce7ebbdd205a40661d40bc3e9367e8b8af6e7c2ae00bd47abc2c08",
                        "sender": "0xd66f224cbd2fabb21b17bb53c56118f32f62ebd6"
                    }
                ],
                "uncleHeaders": [],
                "withdrawals": [],
                "receipts": [
                    {
                        "transactionHash": "0xf070be63ff1e16da3130c4281e01cbbf92c7f38a5117aaa31447cba0458bd6ca",
                        "type": "0x00",
                        "cumulativeGasUsed": "0x0cf040",
                        "bloom": "0x00000000000000000000000000000000000000000000000000000000000000000000000000000000000000000000000000000000000000000000000000000000000000000000000000000000000000000000000000000000000000000000000000000000000000000000000000000000000000000000000000000000000000000000000000000000000000000000000000000000000000000000000000000000000000000000000000000000000000000000000000000000000000000000000000000000000000000000000000000000000000000000000000000000000000000000000000000000000000000000000000000000000000000000000000000000",
                        "logs": [],
                        "status": true,
                        "rlp": "0xf9010901830cf040b9010000000000000000000000000000000000000000000000000000000000000000000000000000000000000000000000000000000000000000000000000000000000000000000000000000000000000000000000000000000000000000000000000000000000000000000000000000000000000000000000000000000000000000000000000000000000000000000000000000000000000000000000000000000000000000000000000000000000000000000000000000000000000000000000000000000000000000000000000000000000000000000000000000000000000000000000000000000000000000000000000000000000000000000000000000000000c0"
                    }
                ],
                "rlp": "0xf902a4f9023ba05d6b89aa517b2743efbd3668565fb20789371700abf2c5a0b79310850af27569a01dcc4de8dec75d7aab85b567b6ccd41ad312451b948a7413f0a142fd40d49347942adc25665018aa1fe0e6bc666dac8fc2697ff9baa044bf0409394e2a1c1d1d38ad9a49e6357556fb578dfdcae88f66b58a91e1bca0a065e485f1d26c820caebb4cc9a47a1d64450106440741b94640b6ca116ee9ec0da0bf46d4ee9345a2cdd98065ff4c648060f294884bf381cd4bb5f993c6ff02f50eb901000000000000000000000000000000000000000000000000000000000000000000000000000000000000000000000000000000000000000000000000000000000000000000000000000000000000000000000000000000000000000000000000000000000000000000000000000000000000000000000000000000000000000000000000000000000000000000000000000000000000000000000000000000000000000000000000000000000000000000000000000000000000000000000000000000000000000000000000000000000000000000000000000000000000000000000000000000000000000000000000000000000000000000000000000000000080018401c9c380830cf0408203e800a000000000000000000000000000000000000000000000000000000000000200008800000000000000000aa056e81f171bcc55a6ff8345e692c0f86e5b48e01b996cadc001622fb5e363b4218080a00000000000000000000000000000000000000000000000000000000000000000f862f860800a830f42409411dbd140191287bbd0f607ef0ef1f4f9863f556c808025a0dce99d9e5a1f4714f1b07d43addc2ddda49a5d6e1a0cbba0e4b0a7ab37f27f9ba05c32d8d25fce7ebbdd205a40661d40bc3e9367e8b8af6e7c2ae00bd47abc2c08c0c0",
                "blocknumber": "1"
            }
        ],
        "sealEngine": "NoProof",
        "_info": {
            "hash": "0x5f8345459fe774550f71debb018bcaba5188f86c7f6f69a9b9f65992e0fe90ae",
            "fixture-format": "blockchain_test",
            "comment": "`execution-specs` generated test",
            "filling-transition-tool": "2.19.0",
            "description": "Call -> (call -> call -> code) oog .",
            "url": "https://github.com/ethereum/execution-specs/blob/tests-snobal-devnet-5@v8037.0.0/tests/ported_static/stCallCodes/test_callcallcall_000_oogm_after.py#L24",
            "metadata": {
                "opcode_count": {}
            }
        }
    }
}