{
    "tests/ported_static/vmIOandFlowOperations/test_loop_stacklimit.py::test_loop_stacklimit[fork_Cancun-blockchain_test_from_state_test-loop_1020]": {
        "network": "Cancun",
        "genesisBlockHeader": {
            "parentHash": "0x0000000000000000000000000000000000000000000000000000000000000000",
            "uncleHash": "0x1dcc4de8dec75d7aab85b567b6ccd41ad312451b948a7413f0a142fd40d49347",
            "coinbase": "0x0000000000000000000000000000000000000000",
            "stateRoot": "0x28e16ca2bbcea9fc5ab0551c0b3b7c60d5721e8a2d1d4edde3d8c0188f8a9a98",
            "transactionsTrie": "0x56e81f171bcc55a6ff8345e692c0f86e5b48e01b996cadc001622fb5e363b421",
            "receiptTrie": "0x56e81f171bcc55a6ff8345e692c0f86e5b48e01b996cadc001622fb5e363b421",
            "bloom": "0x00000000000000000000000000000000000000000000000000000000000000000000000000000000000000000000000000000000000000000000000000000000000000000000000000000000000000000000000000000000000000000000000000000000000000000000000000000000000000000000000000000000000000000000000000000000000000000000000000000000000000000000000000000000000000000000000000000000000000000000000000000000000000000000000000000000000000000000000000000000000000000000000000000000000000000000000000000000000000000000000000000000000000000000000000000000",
            "difficulty": "0x00",
            "number": "0x00",
            "gasLimit": "0x05f5e100",
            "gasUsed": "0x00",
            "timestamp": "0x00",
            "extraData": "0x00",
            "mixHash": "0x0000000000000000000000000000000000000000000000000000000000000000",
            "nonce": "0x0000000000000000",
            "baseFeePerGas": "0x0b",
            "withdrawalsRoot": "0x56e81f171bcc55a6ff8345e692c0f86e5b48e01b996cadc001622fb5e363b421",
            "blobGasUsed": "0x00",
            "excessBlobGas": "0x00",
            "parentBeaconBlockRoot": "0x0000000000000000000000000000000000000000000000000000000000000000",
            "hash": "0x8472600f3e189873c37a24b8f92a864f7c03a16cf4b326d695b819b23c2288e9"
        },
        "pre": {
            "0x000f3df6d732807ef1319fb7b8bb8522d0beac02": {
                "nonce": "0x01",
                "balance": "0x00",
                "code": "0x3373fffffffffffffffffffffffffffffffffffffffe14604d57602036146024575f5ffd5b5f35801560495762001fff810690815414603c575f5ffd5b62001fff01545f5260205ff35b5f5ffd5b62001fff42064281555f359062001fff015500",
                "storage": {}
            },
            "0xd11bdd4916ea38e4fd6500628e1ca4e7e7efb952": {
                "nonce": "0x00",
                "balance": "0x100000000000",
                "code": "0x",
                "storage": {}
            },
            "0x15f0298e83391f673b708790f259f3f34dfbd788": {
                "nonce": "0x00",
                "balance": "0x0ba1a9ce0ba1a9ce",
                "code": "0x6000345b60019003906001018180600357600052600152600059f300",
                "storage": {}
            },
            "0x3b20573c5048e5ba16083407e59fc0bbc044b6c0": {
                "nonce": "0x00",
                "balance": "0x0ba1a9ce0ba1a9ce",
                "code": "0x6000345b60019003906001018180600357600052600152600059f300",
                "storage": {}
            },
            "0xf9b46c1d708104b4e6007d17ae485b0a00d8e952": {
                "nonce": "0x00",
                "balance": "0x0ba1a9ce0ba1a9ce",
                "code": "0x6000600060006000600435611000015af400",
                "storage": {
                    "0x00": "0x00"
                }
            }
        },
        "postState": {
            "0x000f3df6d732807ef1319fb7b8bb8522d0beac02": {
                "nonce": "0x01",
                "balance": "0x00",
                "code": "0x3373fffffffffffffffffffffffffffffffffffffffe14604d57602036146024575f5ffd5b5f35801560495762001fff810690815414603c575f5ffd5b62001fff01545f5260205ff35b5f5ffd5b62001fff42064281555f359062001fff015500",
                "storage": {
                    "0x03e8": "0x03e8"
                }
            },
            "0xd11bdd4916ea38e4fd6500628e1ca4e7e7efb952": {
                "nonce": "0x01",
                "balance": "0x0ffffffc5d23",
                "code": "0x",
                "storage": {}
            },
            "0x15f0298e83391f673b708790f259f3f34dfbd788": {
                "nonce": "0x00",
                "balance": "0x0ba1a9ce0ba1a9ce",
                "code": "0x6000345b60019003906001018180600357600052600152600059f300",
                "storage": {}
            },
            "0x3b20573c5048e5ba16083407e59fc0bbc044b6c0": {
                "nonce": "0x00",
                "balance": "0x0ba1a9ce0ba1a9ce",
                "code": "0x6000345b60019003906001018180600357600052600152600059f300",
                "storage": {}
            },
            "0xf9b46c1d708104b4e6007d17ae485b0a00d8e952": {
                "nonce": "0x00",
                "balance": "0x0ba1a9ce0ba1a9cf",
                "code": "0x6000600060006000600435611000015af400",
                "storage": {}
            }
        },
        "lastblockhash": "0xd22ed8c39b055099f77a1e1137f94280f29b5f802491181f303d35bb9c9ad40a",
        "config": {
            "network": "Cancun",
            "chainid": "0x01",
            "blobSchedule": {
                "Cancun": {
                    "target": "0x03",
                    "max": "0x06",
                    "baseFeeUpdateFraction": "0x32f0ed"
                }
            }
        },
        "genesisRLP": "0xf9023cf90236a00000000000000000000000000000000000000000000000000000000000000000a01dcc4de8dec75d7aab85b567b6ccd41ad312451b948a7413f0a142fd40d49347940000000000000000000000000000000000000000a028e16ca2bbcea9fc5ab0551c0b3b7c60d5721e8a2d1d4edde3d8c0188f8a9a98a056e81f171bcc55a6ff8345e692c0f86e5b48e01b996cadc001622fb5e363b421a056e81f171bcc55a6ff8345e692c0f86e5b48e01b996cadc001622fb5e363b421b901000000000000000000000000000000000000000000000000000000000000000000000000000000000000000000000000000000000000000000000000000000000000000000000000000000000000000000000000000000000000000000000000000000000000000000000000000000000000000000000000000000000000000000000000000000000000000000000000000000000000000000000000000000000000000000000000000000000000000000000000000000000000000000000000000000000000000000000000000000000000000000000000000000000000000000000000000000000000000000000000000000000000000000000000000000000080808405f5e100808000a000000000000000000000000000000000000000000000000000000000000000008800000000000000000ba056e81f171bcc55a6ff8345e692c0f86e5b48e01b996cadc001622fb5e363b4218080a00000000000000000000000000000000000000000000000000000000000000000c0c0c0",
        "blocks": [
            {
                "blockHeader": {
                    "parentHash": "0x8472600f3e189873c37a24b8f92a864f7c03a16cf4b326d695b819b23c2288e9",
                    "uncleHash": "0x1dcc4de8dec75d7aab85b567b6ccd41ad312451b948a7413f0a142fd40d49347",
                    "coinbase": "0x2adc25665018aa1fe0e6bc666dac8fc2697ff9ba",
                    "stateRoot": "0x7b0b699ef48fbe6303330488ae111c9e64f71ddc3ca24836dfce4973c9beae34",
                    "transactionsTrie": "0x494f3c8442b6970af3258f0ae9e64ca3416dfd753d89248070b8ffad0cb44b53",
                    "receiptTrie": "0xda5ff5d2524a23be1f3d2e12f0b9e70f2122c0716986dd79d6e6e324157300f6",
                    "bloom": "0x00000000000000000000000000000000000000000000000000000000000000000000000000000000000000000000000000000000000000000000000000000000000000000000000000000000000000000000000000000000000000000000000000000000000000000000000000000000000000000000000000000000000000000000000000000000000000000000000000000000000000000000000000000000000000000000000000000000000000000000000000000000000000000000000000000000000000000000000000000000000000000000000000000000000000000000000000000000000000000000000000000000000000000000000000000000",
                    "difficulty": "0x00",
                    "number": "0x01",
                    "gasLimit": "0x05f5e100",
                    "gasUsed": "0x5d16",
                    "timestamp": "0x03e8",
                    "extraData": "0x00",
                    "mixHash": "0x0000000000000000000000000000000000000000000000000000000000020000",
                    "nonce": "0x0000000000000000",
                    "baseFeePerGas": "0x0a",
                    "withdrawalsRoot": "0x56e81f171bcc55a6ff8345e692c0f86e5b48e01b996cadc001622fb5e363b421",
                    "blobGasUsed": "0x00",
                    "excessBlobGas": "0x00",
                    "parentBeaconBlockRoot": "0x0000000000000000000000000000000000000000000000000000000000000000",
                    "hash": "0xd22ed8c39b055099f77a1e1137f94280f29b5f802491181f303d35bb9c9ad40a"
                },
                "transactions": [
                    {
                        "type": "0x00",
                        "chainId": "0x01",
                        "nonce": "0x00",
                        "gasPrice": "0x0a",
                        "gasLimit": "0x01000000",
                        "to": "0xf9b46c1d708104b4e6007d17ae485b0a00d8e952",
                        "value": "0x01",
                        "data": "0x693c61390000000000000000000000000000000000000000000000000000000000000001",
                        "v": "0x25",
                        "r": "0x4711bbe8461dfa2ef62404220fede71a2efa951c4e42c2c1a6137226a9592cf5",
                        "s": "0x4fec70eedd9b77671711cee870659d5e530cafa445fad17299b0b5ba5b078c22",
                        "sender": "0xd11bdd4916ea38e4fd6500628e1ca4e7e7efb952"
                    }
                ],
                "uncleHeaders": [],
                "withdrawals": [],
                "receipts": [
                    {
                        "transactionHash": "0xbd7a6691b83e7c23e1d23da385964cafb75643ab28c79efe87e57eb00ed78806",
                        "type": "0x00",
                        "cumulativeGasUsed": "0x5d16",
                        "bloom": "0x00000000000000000000000000000000000000000000000000000000000000000000000000000000000000000000000000000000000000000000000000000000000000000000000000000000000000000000000000000000000000000000000000000000000000000000000000000000000000000000000000000000000000000000000000000000000000000000000000000000000000000000000000000000000000000000000000000000000000000000000000000000000000000000000000000000000000000000000000000000000000000000000000000000000000000000000000000000000000000000000000000000000000000000000000000000",
                        "logs": [],
                        "status": true,
                        "rlp": "0xf9010801825d16b9010000000000000000000000000000000000000000000000000000000000000000000000000000000000000000000000000000000000000000000000000000000000000000000000000000000000000000000000000000000000000000000000000000000000000000000000000000000000000000000000000000000000000000000000000000000000000000000000000000000000000000000000000000000000000000000000000000000000000000000000000000000000000000000000000000000000000000000000000000000000000000000000000000000000000000000000000000000000000000000000000000000000000000000000000000000000c0"
                    }
                ],
                "rlp": "0xf902c8f9023aa08472600f3e189873c37a24b8f92a864f7c03a16cf4b326d695b819b23c2288e9a01dcc4de8dec75d7aab85b567b6ccd41ad312451b948a7413f0a142fd40d49347942adc25665018aa1fe0e6bc666dac8fc2697ff9baa07b0b699ef48fbe6303330488ae111c9e64f71ddc3ca24836dfce4973c9beae34a0494f3c8442b6970af3258f0ae9e64ca3416dfd753d89248070b8ffad0cb44b53a0da5ff5d2524a23be1f3d2e12f0b9e70f2122c0716986dd79d6e6e324157300f6b901000000000000000000000000000000000000000000000000000000000000000000000000000000000000000000000000000000000000000000000000000000000000000000000000000000000000000000000000000000000000000000000000000000000000000000000000000000000000000000000000000000000000000000000000000000000000000000000000000000000000000000000000000000000000000000000000000000000000000000000000000000000000000000000000000000000000000000000000000000000000000000000000000000000000000000000000000000000000000000000000000000000000000000000000000000000080018405f5e100825d168203e800a000000000000000000000000000000000000000000000000000000000000200008800000000000000000aa056e81f171bcc55a6ff8345e692c0f86e5b48e01b996cadc001622fb5e363b4218080a00000000000000000000000000000000000000000000000000000000000000000f887f885800a840100000094f9b46c1d708104b4e6007d17ae485b0a00d8e95201a4693c6139000000000000000000000000000000000000000000000000000000000000000125a04711bbe8461dfa2ef62404220fede71a2efa951c4e42c2c1a6137226a9592cf5a04fec70eedd9b77671711cee870659d5e530cafa445fad17299b0b5ba5b078c22c0c0",
                "blocknumber": "1"
            }
        ],
        "sealEngine": "NoProof",
        "_info": {
            "hash": "0xafd62550f87f878cf66c1acb06a9c1414c20c92c099c06c835770397d32857b6",
            "fixture-format": "blockchain_test",
            "comment": "`execution-specs` generated test",
            "filling-transition-tool": "2.19.0",
            "description": "Ori Pomerantz qbzzt1@gmail.",
            "url": "https://github.com/ethereum/execution-specs/blob/tests-snobal-devnet-5@v8037.0.0/tests/ported_static/vmIOandFlowOperations/test_loop_stacklimit.py#L26",
            "metadata": {
                "opcode_count": {}
            }
        }
    },
    "tests/ported_static/vmIOandFlowOperations/test_loop_stacklimit.py::test_loop_stacklimit[fork_Cancun-blockchain_test_from_state_test-loop_1021]": {
        "network": "Cancun",
        "genesisBlockHeader": {
            "parentHash": "0x0000000000000000000000000000000000000000000000000000000000000000",
            "uncleHash": "0x1dcc4de8dec75d7aab85b567b6ccd41ad312451b948a7413f0a142fd40d49347",
            "coinbase": "0x0000000000000000000000000000000000000000",
            "stateRoot": "0x28e16ca2bbcea9fc5ab0551c0b3b7c60d5721e8a2d1d4edde3d8c0188f8a9a98",
            "transactionsTrie": "0x56e81f171bcc55a6ff8345e692c0f86e5b48e01b996cadc001622fb5e363b421",
            "receiptTrie": "0x56e81f171bcc55a6ff8345e692c0f86e5b48e01b996cadc001622fb5e363b421",
            "bloom": "0x00000000000000000000000000000000000000000000000000000000000000000000000000000000000000000000000000000000000000000000000000000000000000000000000000000000000000000000000000000000000000000000000000000000000000000000000000000000000000000000000000000000000000000000000000000000000000000000000000000000000000000000000000000000000000000000000000000000000000000000000000000000000000000000000000000000000000000000000000000000000000000000000000000000000000000000000000000000000000000000000000000000000000000000000000000000",
            "difficulty": "0x00",
            "number": "0x00",
            "gasLimit": "0x05f5e100",
            "gasUsed": "0x00",
            "timestamp": "0x00",
            "extraData": "0x00",
            "mixHash": "0x0000000000000000000000000000000000000000000000000000000000000000",
            "nonce": "0x0000000000000000",
            "baseFeePerGas": "0x0b",
            "withdrawalsRoot": "0x56e81f171bcc55a6ff8345e692c0f86e5b48e01b996cadc001622fb5e363b421",
            "blobGasUsed": "0x00",
            "excessBlobGas": "0x00",
            "parentBeaconBlockRoot": "0x0000000000000000000000000000000000000000000000000000000000000000",
            "hash": "0x8472600f3e189873c37a24b8f92a864f7c03a16cf4b326d695b819b23c2288e9"
        },
        "pre": {
            "0x000f3df6d732807ef1319fb7b8bb8522d0beac02": {
                "nonce": "0x01",
                "balance": "0x00",
                "code": "0x3373fffffffffffffffffffffffffffffffffffffffe14604d57602036146024575f5ffd5b5f35801560495762001fff810690815414603c575f5ffd5b62001fff01545f5260205ff35b5f5ffd5b62001fff42064281555f359062001fff015500",
                "storage": {}
            },
            "0xd11bdd4916ea38e4fd6500628e1ca4e7e7efb952": {
                "nonce": "0x00",
                "balance": "0x100000000000",
                "code": "0x",
                "storage": {}
            },
            "0x15f0298e83391f673b708790f259f3f34dfbd788": {
                "nonce": "0x00",
                "balance": "0x0ba1a9ce0ba1a9ce",
                "code": "0x6000345b60019003906001018180600357600052600152600059f300",
                "storage": {}
            },
            "0x3b20573c5048e5ba16083407e59fc0bbc044b6c0": {
                "nonce": "0x00",
                "balance": "0x0ba1a9ce0ba1a9ce",
                "code": "0x6000345b60019003906001018180600357600052600152600059f300",
                "storage": {}
            },
            "0xf9b46c1d708104b4e6007d17ae485b0a00d8e952": {
                "nonce": "0x00",
                "balance": "0x0ba1a9ce0ba1a9ce",
                "code": "0x6000600060006000600435611000015af400",
                "storage": {
                    "0x00": "0x00"
                }
            }
        },
        "postState": {
            "0x000f3df6d732807ef1319fb7b8bb8522d0beac02": {
                "nonce": "0x01",
                "balance": "0x00",
                "code": "0x3373fffffffffffffffffffffffffffffffffffffffe14604d57602036146024575f5ffd5b5f35801560495762001fff810690815414603c575f5ffd5b62001fff01545f5260205ff35b5f5ffd5b62001fff42064281555f359062001fff015500",
                "storage": {
                    "0x03e8": "0x03e8"
                }
            },
            "0xd11bdd4916ea38e4fd6500628e1ca4e7e7efb952": {
                "nonce": "0x01",
                "balance": "0x0ffffffc5d9b",
                "code": "0x",
                "storage": {}
            },
            "0x15f0298e83391f673b708790f259f3f34dfbd788": {
                "nonce": "0x00",
                "balance": "0x0ba1a9ce0ba1a9ce",
                "code": "0x6000345b60019003906001018180600357600052600152600059f300",
                "storage": {}
            },
            "0x3b20573c5048e5ba16083407e59fc0bbc044b6c0": {
                "nonce": "0x00",
                "balance": "0x0ba1a9ce0ba1a9ce",
                "code": "0x6000345b60019003906001018180600357600052600152600059f300",
                "storage": {}
            },
            "0xf9b46c1d708104b4e6007d17ae485b0a00d8e952": {
                "nonce": "0x00",
                "balance": "0x0ba1a9ce0ba1a9cf",
                "code": "0x6000600060006000600435611000015af400",
                "storage": {}
            }
        },
        "lastblockhash": "0x1740c929104d509d53e12f317562e4296244f0b165974c02e267616e7b2da388",
        "config": {
            "network": "Cancun",
            "chainid": "0x01",
            "blobSchedule": {
                "Cancun": {
                    "target": "0x03",
                    "max": "0x06",
                    "baseFeeUpdateFraction": "0x32f0ed"
                }
            }
        },
        "genesisRLP": "0xf9023cf90236a00000000000000000000000000000000000000000000000000000000000000000a01dcc4de8dec75d7aab85b567b6ccd41ad312451b948a7413f0a142fd40d49347940000000000000000000000000000000000000000a028e16ca2bbcea9fc5ab0551c0b3b7c60d5721e8a2d1d4edde3d8c0188f8a9a98a056e81f171bcc55a6ff8345e692c0f86e5b48e01b996cadc001622fb5e363b421a056e81f171bcc55a6ff8345e692c0f86e5b48e01b996cadc001622fb5e363b421b901000000000000000000000000000000000000000000000000000000000000000000000000000000000000000000000000000000000000000000000000000000000000000000000000000000000000000000000000000000000000000000000000000000000000000000000000000000000000000000000000000000000000000000000000000000000000000000000000000000000000000000000000000000000000000000000000000000000000000000000000000000000000000000000000000000000000000000000000000000000000000000000000000000000000000000000000000000000000000000000000000000000000000000000000000000000080808405f5e100808000a000000000000000000000000000000000000000000000000000000000000000008800000000000000000ba056e81f171bcc55a6ff8345e692c0f86e5b48e01b996cadc001622fb5e363b4218080a00000000000000000000000000000000000000000000000000000000000000000c0c0c0",
        "blocks": [
            {
                "blockHeader": {
                    "parentHash": "0x8472600f3e189873c37a24b8f92a864f7c03a16cf4b326d695b819b23c2288e9",
                    "uncleHash": "0x1dcc4de8dec75d7aab85b567b6ccd41ad312451b948a7413f0a142fd40d49347",
                    "coinbase": "0x2adc25665018aa1fe0e6bc666dac8fc2697ff9ba",
                    "stateRoot": "0xb32ce1568319bc285c003091cd7efc91692dad76088b9f7d6cb21eb6fcab8b71",
                    "transactionsTrie": "0xc494b810c0a72e2eaa0bb59df4a500e8e9ee0eef25600ef9485c4fbeedd6681d",
                    "receiptTrie": "0x0990f0a76f047c895efba711cda26475c5a05ec70cf958510463a0538ae89d1f",
                    "bloom": "0x00000000000000000000000000000000000000000000000000000000000000000000000000000000000000000000000000000000000000000000000000000000000000000000000000000000000000000000000000000000000000000000000000000000000000000000000000000000000000000000000000000000000000000000000000000000000000000000000000000000000000000000000000000000000000000000000000000000000000000000000000000000000000000000000000000000000000000000000000000000000000000000000000000000000000000000000000000000000000000000000000000000000000000000000000000000",
                    "difficulty": "0x00",
                    "number": "0x01",
                    "gasLimit": "0x05f5e100",
                    "gasUsed": "0x5d0a",
                    "timestamp": "0x03e8",
                    "extraData": "0x00",
                    "mixHash": "0x0000000000000000000000000000000000000000000000000000000000020000",
                    "nonce": "0x0000000000000000",
                    "baseFeePerGas": "0x0a",
                    "withdrawalsRoot": "0x56e81f171bcc55a6ff8345e692c0f86e5b48e01b996cadc001622fb5e363b421",
                    "blobGasUsed": "0x00",
                    "excessBlobGas": "0x00",
                    "parentBeaconBlockRoot": "0x0000000000000000000000000000000000000000000000000000000000000000",
                    "hash": "0x1740c929104d509d53e12f317562e4296244f0b165974c02e267616e7b2da388"
                },
                "transactions": [
                    {
                        "type": "0x00",
                        "chainId": "0x01",
                        "nonce": "0x00",
                        "gasPrice": "0x0a",
                        "gasLimit": "0x01000000",
                        "to": "0xf9b46c1d708104b4e6007d17ae485b0a00d8e952",
                        "value": "0x01",
                        "data": "0x693c61390000000000000000000000000000000000000000000000000000000000000000",
                        "v": "0x26",
                        "r": "0x05f04b5ddcf13a337a1f5c490740b81b74a226b3f6552d0be61483e73b1bb85b",
                        "s": "0x58b985b3f31aaeec2bcad5f5becdac37ad9ab7ed6bac6acf3cec213dcd0764df",
                        "sender": "0xd11bdd4916ea38e4fd6500628e1ca4e7e7efb952"
                    }
                ],
                "uncleHeaders": [],
                "withdrawals": [],
                "receipts": [
                    {
                        "transactionHash": "0x49086345f5a94f090a2f671de5cf37c2382a6f212051854829cab2a78e704931",
                        "type": "0x00",
                        "cumulativeGasUsed": "0x5d0a",
                        "bloom": "0x00000000000000000000000000000000000000000000000000000000000000000000000000000000000000000000000000000000000000000000000000000000000000000000000000000000000000000000000000000000000000000000000000000000000000000000000000000000000000000000000000000000000000000000000000000000000000000000000000000000000000000000000000000000000000000000000000000000000000000000000000000000000000000000000000000000000000000000000000000000000000000000000000000000000000000000000000000000000000000000000000000000000000000000000000000000",
                        "logs": [],
                        "status": true,
                        "rlp": "0xf9010801825d0ab9010000000000000000000000000000000000000000000000000000000000000000000000000000000000000000000000000000000000000000000000000000000000000000000000000000000000000000000000000000000000000000000000000000000000000000000000000000000000000000000000000000000000000000000000000000000000000000000000000000000000000000000000000000000000000000000000000000000000000000000000000000000000000000000000000000000000000000000000000000000000000000000000000000000000000000000000000000000000000000000000000000000000000000000000000000000000c0"
                    }
                ],
                "rlp": "0xf902c8f9023aa08472600f3e189873c37a24b8f92a864f7c03a16cf4b326d695b819b23c2288e9a01dcc4de8dec75d7aab85b567b6ccd41ad312451b948a7413f0a142fd40d49347942adc25665018aa1fe0e6bc666dac8fc2697ff9baa0b32ce1568319bc285c003091cd7efc91692dad76088b9f7d6cb21eb6fcab8b71a0c494b810c0a72e2eaa0bb59df4a500e8e9ee0eef25600ef9485c4fbeedd6681da00990f0a76f047c895efba711cda26475c5a05ec70cf958510463a0538ae89d1fb901000000000000000000000000000000000000000000000000000000000000000000000000000000000000000000000000000000000000000000000000000000000000000000000000000000000000000000000000000000000000000000000000000000000000000000000000000000000000000000000000000000000000000000000000000000000000000000000000000000000000000000000000000000000000000000000000000000000000000000000000000000000000000000000000000000000000000000000000000000000000000000000000000000000000000000000000000000000000000000000000000000000000000000000000000000000080018405f5e100825d0a8203e800a000000000000000000000000000000000000000000000000000000000000200008800000000000000000aa056e81f171bcc55a6ff8345e692c0f86e5b48e01b996cadc001622fb5e363b4218080a00000000000000000000000000000000000000000000000000000000000000000f887f885800a840100000094f9b46c1d708104b4e6007d17ae485b0a00d8e95201a4693c6139000000000000000000000000000000000000000000000000000000000000000026a005f04b5ddcf13a337a1f5c490740b81b74a226b3f6552d0be61483e73b1bb85ba058b985b3f31aaeec2bcad5f5becdac37ad9ab7ed6bac6acf3cec213dcd0764dfc0c0",
                "blocknumber": "1"
            }
        ],
        "sealEngine": "NoProof",
        "_info": {
            "hash": "0x59ec6f2d233945a625534e42279871dff5102074b826f200b13da25d7a3f719e",
            "fixture-format": "blockchain_test",
            "comment": "`execution-specs` generated test",
            "filling-transition-tool": "2.19.0",
            "description": "Ori Pomerantz qbzzt1@gmail.",
            "url": "https://github.com/ethereum/execution-specs/blob/tests-snobal-devnet-5@v8037.0.0/tests/ported_static/vmIOandFlowOperations/test_loop_stacklimit.py#L26",
            "metadata": {
                "opcode_count": {}
            }
        }
    }
}