{
    "tests/cancun/eip4788_beacon_root/test_beacon_root_contract.py::test_beacon_root_contract_deploy[fork_ShanghaiToCancunAtTime15k-blockchain_test-deploy_on_cancun]": {
        "network": "ShanghaiToCancunAtTime15k",
        "genesisBlockHeader": {
            "parentHash": "0x0000000000000000000000000000000000000000000000000000000000000000",
            "uncleHash": "0x1dcc4de8dec75d7aab85b567b6ccd41ad312451b948a7413f0a142fd40d49347",
            "coinbase": "0x0000000000000000000000000000000000000000",
            "stateRoot": "0x0c604fb50ad5157e43a69666a98c753a6e121c623bc2e44be9e6ae7a5047f5cb",
            "transactionsTrie": "0x56e81f171bcc55a6ff8345e692c0f86e5b48e01b996cadc001622fb5e363b421",
            "receiptTrie": "0x56e81f171bcc55a6ff8345e692c0f86e5b48e01b996cadc001622fb5e363b421",
            "bloom": "0x00000000000000000000000000000000000000000000000000000000000000000000000000000000000000000000000000000000000000000000000000000000000000000000000000000000000000000000000000000000000000000000000000000000000000000000000000000000000000000000000000000000000000000000000000000000000000000000000000000000000000000000000000000000000000000000000000000000000000000000000000000000000000000000000000000000000000000000000000000000000000000000000000000000000000000000000000000000000000000000000000000000000000000000000000000000",
            "difficulty": "0x00",
            "number": "0x00",
            "gasLimit": "0x07270e00",
            "gasUsed": "0x00",
            "timestamp": "0x00",
            "extraData": "0x00",
            "mixHash": "0x0000000000000000000000000000000000000000000000000000000000000000",
            "nonce": "0x0000000000000000",
            "baseFeePerGas": "0x07",
            "withdrawalsRoot": "0x56e81f171bcc55a6ff8345e692c0f86e5b48e01b996cadc001622fb5e363b421",
            "hash": "0xc17546be73546833dd5a85edd14a08834b17f2a55e2aae7c7d03cce7d791e0d0"
        },
        "pre": {
            "0xbbf5295a48f7737d9fe66c72a44af68c96d81268": {
                "nonce": "0x01",
                "balance": "0x010000000000",
                "code": "0x366000602037602060003660206000720f3df6d732807ef1319fb7b8bb8522d0beac02620186a0f16000556000516001553d6002553d600060003e600051600355",
                "storage": {}
            },
            "0x1ad9bc24818784172ff393bb6f89f094d4d2ca29": {
                "nonce": "0x00",
                "balance": "0x3635c9adc5dea00000",
                "code": "0x",
                "storage": {}
            },
            "0x0b799c86a49deeb90402691f1041aa3af2d3c875": {
                "nonce": "0x00",
                "balance": "0x03782dace9d90000",
                "code": "0x",
                "storage": {}
            }
        },
        "postState": {
            "0xbbf5295a48f7737d9fe66c72a44af68c96d81268": {
                "nonce": "0x01",
                "balance": "0x010000000000",
                "code": "0x366000602037602060003660206000720f3df6d732807ef1319fb7b8bb8522d0beac02620186a0f16000556000516001553d6002553d600060003e600051600355",
                "storage": {
                    "0x00": "0x01",
                    "0x01": "0x6c31fc15422ebad28aaf9089c306702f67540b53c7eea8b7d2941044b027100f",
                    "0x02": "0x20",
                    "0x03": "0x6c31fc15422ebad28aaf9089c306702f67540b53c7eea8b7d2941044b027100f"
                }
            },
            "0x1ad9bc24818784172ff393bb6f89f094d4d2ca29": {
                "nonce": "0x01",
                "balance": "0x3635c9adc5de938d08",
                "code": "0x",
                "storage": {}
            },
            "0x0b799c86a49deeb90402691f1041aa3af2d3c875": {
                "nonce": "0x01",
                "balance": "0x0270faab824ec000",
                "code": "0x",
                "storage": {}
            },
            "0x000f3df6d732807ef1319fb7b8bb8522d0beac02": {
                "nonce": "0x01",
                "balance": "0x77359400",
                "code": "0x3373fffffffffffffffffffffffffffffffffffffffe14604d57602036146024575f5ffd5b5f35801560495762001fff810690815414603c575f5ffd5b62001fff01545f5260205ff35b5f5ffd5b62001fff42064281555f359062001fff015500",
                "storage": {
                    "0x1533": "0x7530",
                    "0x3532": "0x6c31fc15422ebad28aaf9089c306702f67540b53c7eea8b7d2941044b027100f"
                }
            },
            "0x2adc25665018aa1fe0e6bc666dac8fc2697ff9ba": {
                "nonce": "0x00",
                "balance": "0x0107330167825644",
                "code": "0x",
                "storage": {}
            },
            "0xfffffffffffffffffffffffffffffffffffffffe": {
                "nonce": "0x00",
                "balance": "0x77359400",
                "code": "0x",
                "storage": {}
            }
        },
        "lastblockhash": "0x08e04c110d13c700509a4e69adb68cb4eaac638745d3d3497e3e8b2faf02401b",
        "config": {
            "network": "ShanghaiToCancunAtTime15k",
            "chainid": "0x01",
            "blobSchedule": {
                "Cancun": {
                    "target": "0x03",
                    "max": "0x06",
                    "baseFeeUpdateFraction": "0x32f0ed"
                }
            }
        },
        "genesisRLP": "0xf90219f90213a00000000000000000000000000000000000000000000000000000000000000000a01dcc4de8dec75d7aab85b567b6ccd41ad312451b948a7413f0a142fd40d49347940000000000000000000000000000000000000000a00c604fb50ad5157e43a69666a98c753a6e121c623bc2e44be9e6ae7a5047f5cba056e81f171bcc55a6ff8345e692c0f86e5b48e01b996cadc001622fb5e363b421a056e81f171bcc55a6ff8345e692c0f86e5b48e01b996cadc001622fb5e363b421b901000000000000000000000000000000000000000000000000000000000000000000000000000000000000000000000000000000000000000000000000000000000000000000000000000000000000000000000000000000000000000000000000000000000000000000000000000000000000000000000000000000000000000000000000000000000000000000000000000000000000000000000000000000000000000000000000000000000000000000000000000000000000000000000000000000000000000000000000000000000000000000000000000000000000000000000000000000000000000000000000000000000000000000000000000000000080808407270e00808000a0000000000000000000000000000000000000000000000000000000000000000088000000000000000007a056e81f171bcc55a6ff8345e692c0f86e5b48e01b996cadc001622fb5e363b421c0c0c0",
        "blocks": [
            {
                "blockHeader": {
                    "parentHash": "0xc17546be73546833dd5a85edd14a08834b17f2a55e2aae7c7d03cce7d791e0d0",
                    "uncleHash": "0x1dcc4de8dec75d7aab85b567b6ccd41ad312451b948a7413f0a142fd40d49347",
                    "coinbase": "0x2adc25665018aa1fe0e6bc666dac8fc2697ff9ba",
                    "stateRoot": "0xe417484ebaeaf08286167c5869b9204f2c2e03fa1e4f71b60ad2a8f3b686c3da",
                    "transactionsTrie": "0xd87da2b23fc7bbfa7e2994ee830e73325af892d036e2e5d90d9f17ff2dd41d9d",
                    "receiptTrie": "0xd5caddb93c844bd1c4a6364ec17b3f09afea9b2f335d8aba110ef6b0c9d9bfeb",
                    "bloom": "0x00000000000000000000000000000000000000000000000000000000000000000000000000000000000000000000000000000000000000000000000000000000000000000000000000000000000000000000000000000000000000000000000000000000000000000000000000000000000000000000000000000000000000000000000000000000000000000000000000000000000000000000000000000000000000000000000000000000000000000000000000000000000000000000000000000000000000000000000000000000000000000000000000000000000000000000000000000000000000000000000000000000000000000000000000000000",
                    "difficulty": "0x00",
                    "number": "0x01",
                    "gasLimit": "0x07270e00",
                    "gasUsed": "0x012164",
                    "timestamp": "0x3a98",
                    "extraData": "0x",
                    "mixHash": "0x0000000000000000000000000000000000000000000000000000000000000000",
                    "nonce": "0x0000000000000000",
                    "baseFeePerGas": "0x07",
                    "withdrawalsRoot": "0x2aef4d3e6939af0b4bf4c0e7572a214eb7db9ba52937e1e82ad6c64b52d2e8bb",
                    "blobGasUsed": "0x00",
                    "excessBlobGas": "0x00",
                    "parentBeaconBlockRoot": "0x6c31fc15422ebad28aaf9089c306702f67540b53c7eea8b7d2941044b027100f",
                    "hash": "0x4a497464aac7ce6d18f6fafffd319e191f1d50c26d08f51dbbd3d733ce0c3585"
                },
                "transactions": [
                    {
                        "type": "0x00",
                        "chainId": "0x01",
                        "nonce": "0x00",
                        "gasPrice": "0xe8d4a51000",
                        "gasLimit": "0x03d090",
                        "value": "0x00",
                        "data": "0x60618060095f395ff33373fffffffffffffffffffffffffffffffffffffffe14604d57602036146024575f5ffd5b5f35801560495762001fff810690815414603c575f5ffd5b62001fff01545f5260205ff35b5f5ffd5b62001fff42064281555f359062001fff015500",
                        "v": "0x1b",
                        "r": "0x0539",
                        "s": "0x1b9b6eb1f0",
                        "sender": "0x0b799c86a49deeb90402691f1041aa3af2d3c875",
                        "to": ""
                    }
                ],
                "uncleHeaders": [],
                "withdrawals": [
                    {
                        "index": "0x00",
                        "validatorIndex": "0x00",
                        "address": "0x000f3df6d732807ef1319fb7b8bb8522d0beac02",
                        "amount": "0x01"
                    },
                    {
                        "index": "0x01",
                        "validatorIndex": "0x01",
                        "address": "0xfffffffffffffffffffffffffffffffffffffffe",
                        "amount": "0x01"
                    }
                ],
                "receipts": [
                    {
                        "transactionHash": "0xdf52c2d3bbe38820fff7b5eaab3db1b91f8e1412b56497d88388fb5d4ea1fde0",
                        "type": "0x00",
                        "cumulativeGasUsed": "0x012164",
                        "bloom": "0x00000000000000000000000000000000000000000000000000000000000000000000000000000000000000000000000000000000000000000000000000000000000000000000000000000000000000000000000000000000000000000000000000000000000000000000000000000000000000000000000000000000000000000000000000000000000000000000000000000000000000000000000000000000000000000000000000000000000000000000000000000000000000000000000000000000000000000000000000000000000000000000000000000000000000000000000000000000000000000000000000000000000000000000000000000000",
                        "logs": [],
                        "status": true,
                        "rlp": "0xf901090183012164b9010000000000000000000000000000000000000000000000000000000000000000000000000000000000000000000000000000000000000000000000000000000000000000000000000000000000000000000000000000000000000000000000000000000000000000000000000000000000000000000000000000000000000000000000000000000000000000000000000000000000000000000000000000000000000000000000000000000000000000000000000000000000000000000000000000000000000000000000000000000000000000000000000000000000000000000000000000000000000000000000000000000000000000000000000000000000c0"
                    }
                ],
                "rlp": "0xf902f9f9023ba0c17546be73546833dd5a85edd14a08834b17f2a55e2aae7c7d03cce7d791e0d0a01dcc4de8dec75d7aab85b567b6ccd41ad312451b948a7413f0a142fd40d49347942adc25665018aa1fe0e6bc666dac8fc2697ff9baa0e417484ebaeaf08286167c5869b9204f2c2e03fa1e4f71b60ad2a8f3b686c3daa0d87da2b23fc7bbfa7e2994ee830e73325af892d036e2e5d90d9f17ff2dd41d9da0d5caddb93c844bd1c4a6364ec17b3f09afea9b2f335d8aba110ef6b0c9d9bfebb901000000000000000000000000000000000000000000000000000000000000000000000000000000000000000000000000000000000000000000000000000000000000000000000000000000000000000000000000000000000000000000000000000000000000000000000000000000000000000000000000000000000000000000000000000000000000000000000000000000000000000000000000000000000000000000000000000000000000000000000000000000000000000000000000000000000000000000000000000000000000000000000000000000000000000000000000000000000000000000000000000000000000000000000000000000000080018407270e0083012164823a9880a0000000000000000000000000000000000000000000000000000000000000000088000000000000000007a02aef4d3e6939af0b4bf4c0e7572a214eb7db9ba52937e1e82ad6c64b52d2e8bb8080a06c31fc15422ebad28aaf9089c306702f67540b53c7eea8b7d2941044b027100ff885f8838085e8d4a510008303d0908080b86a60618060095f395ff33373fffffffffffffffffffffffffffffffffffffffe14604d57602036146024575f5ffd5b5f35801560495762001fff810690815414603c575f5ffd5b62001fff01545f5260205ff35b5f5ffd5b62001fff42064281555f359062001fff0155001b820539851b9b6eb1f0c0f2d8808094000f3df6d732807ef1319fb7b8bb8522d0beac0201d8010194fffffffffffffffffffffffffffffffffffffffe01",
                "blocknumber": "1"
            },
            {
                "blockHeader": {
                    "parentHash": "0x4a497464aac7ce6d18f6fafffd319e191f1d50c26d08f51dbbd3d733ce0c3585",
                    "uncleHash": "0x1dcc4de8dec75d7aab85b567b6ccd41ad312451b948a7413f0a142fd40d49347",
                    "coinbase": "0x2adc25665018aa1fe0e6bc666dac8fc2697ff9ba",
                    "stateRoot": "0xba6cefb428d681cf8cf3eb0b7fe5be6ce38b3eb25c57d21fd9669facab84c11b",
                    "transactionsTrie": "0x948836b2c4c1e581171517797f99db6b06fd8406818261f3bd7c6edc26a25b06",
                    "receiptTrie": "0x1ccaf316c85ab72468f194a8a6bf7f7cac5730696d7dd3a5dc298fac47cfe273",
                    "bloom": "0x00000000000000000000000000000000000000000000000000000000000000000000000000000000000000000000000000000000000000000000000000000000000000000000000000000000000000000000000000000000000000000000000000000000000000000000000000000000000000000000000000000000000000000000000000000000000000000000000000000000000000000000000000000000000000000000000000000000000000000000000000000000000000000000000000000000000000000000000000000000000000000000000000000000000000000000000000000000000000000000000000000000000000000000000000000000",
                    "difficulty": "0x00",
                    "number": "0x02",
                    "gasLimit": "0x07270e00",
                    "gasUsed": "0x01c748",
                    "timestamp": "0x7530",
                    "extraData": "0x",
                    "mixHash": "0x0000000000000000000000000000000000000000000000000000000000000000",
                    "nonce": "0x0000000000000000",
                    "baseFeePerGas": "0x07",
                    "withdrawalsRoot": "0xd21739e00fbe6b25846bb8079ed6fd6533baa1e8b127b158f651ae16edac1f10",
                    "blobGasUsed": "0x00",
                    "excessBlobGas": "0x00",
                    "parentBeaconBlockRoot": "0x6c31fc15422ebad28aaf9089c306702f67540b53c7eea8b7d2941044b027100f",
                    "hash": "0x08e04c110d13c700509a4e69adb68cb4eaac638745d3d3497e3e8b2faf02401b"
                },
                "transactions": [
                    {
                        "type": "0x02",
                        "chainId": "0x01",
                        "nonce": "0x00",
                        "maxPriorityFeePerGas": "0x00",
                        "maxFeePerGas": "0x07",
                        "gasLimit": "0x0f4240",
                        "to": "0xbbf5295a48f7737d9fe66c72a44af68c96d81268",
                        "value": "0x00",
                        "data": "0x0000000000000000000000000000000000000000000000000000000000007530",
                        "accessList": [],
                        "v": "0x00",
                        "r": "0x06d54fe0f10674280c4778ff19dd6730e3efa747ca3127d8654abc20a81e526a",
                        "s": "0x48bbe0a9c9cb4befce30d888776e84a3a3ff2a611289fd29b434fae24e0c824d",
                        "sender": "0x1ad9bc24818784172ff393bb6f89f094d4d2ca29"
                    }
                ],
                "uncleHeaders": [],
                "withdrawals": [
                    {
                        "index": "0x02",
                        "validatorIndex": "0x00",
                        "address": "0x000f3df6d732807ef1319fb7b8bb8522d0beac02",
                        "amount": "0x01"
                    },
                    {
                        "index": "0x03",
                        "validatorIndex": "0x01",
                        "address": "0xfffffffffffffffffffffffffffffffffffffffe",
                        "amount": "0x01"
                    }
                ],
                "receipts": [
                    {
                        "transactionHash": "0x9ed16eeee2b3b91439e9f86a80daa1f6c97aa057ac5abe0e8202e27a5db1291b",
                        "type": "0x02",
                        "cumulativeGasUsed": "0x01c748",
                        "bloom": "0x00000000000000000000000000000000000000000000000000000000000000000000000000000000000000000000000000000000000000000000000000000000000000000000000000000000000000000000000000000000000000000000000000000000000000000000000000000000000000000000000000000000000000000000000000000000000000000000000000000000000000000000000000000000000000000000000000000000000000000000000000000000000000000000000000000000000000000000000000000000000000000000000000000000000000000000000000000000000000000000000000000000000000000000000000000000",
                        "logs": [],
                        "status": true,
                        "rlp": "0x02f90109018301c748b9010000000000000000000000000000000000000000000000000000000000000000000000000000000000000000000000000000000000000000000000000000000000000000000000000000000000000000000000000000000000000000000000000000000000000000000000000000000000000000000000000000000000000000000000000000000000000000000000000000000000000000000000000000000000000000000000000000000000000000000000000000000000000000000000000000000000000000000000000000000000000000000000000000000000000000000000000000000000000000000000000000000000000000000000000000000000c0"
                    }
                ],
                "rlp": "0xf902fcf9023ba04a497464aac7ce6d18f6fafffd319e191f1d50c26d08f51dbbd3d733ce0c3585a01dcc4de8dec75d7aab85b567b6ccd41ad312451b948a7413f0a142fd40d49347942adc25665018aa1fe0e6bc666dac8fc2697ff9baa0ba6cefb428d681cf8cf3eb0b7fe5be6ce38b3eb25c57d21fd9669facab84c11ba0948836b2c4c1e581171517797f99db6b06fd8406818261f3bd7c6edc26a25b06a01ccaf316c85ab72468f194a8a6bf7f7cac5730696d7dd3a5dc298fac47cfe273b901000000000000000000000000000000000000000000000000000000000000000000000000000000000000000000000000000000000000000000000000000000000000000000000000000000000000000000000000000000000000000000000000000000000000000000000000000000000000000000000000000000000000000000000000000000000000000000000000000000000000000000000000000000000000000000000000000000000000000000000000000000000000000000000000000000000000000000000000000000000000000000000000000000000000000000000000000000000000000000000000000000000000000000000000000000000080028407270e008301c74882753080a0000000000000000000000000000000000000000000000000000000000000000088000000000000000007a0d21739e00fbe6b25846bb8079ed6fd6533baa1e8b127b158f651ae16edac1f108080a06c31fc15422ebad28aaf9089c306702f67540b53c7eea8b7d2941044b027100ff888b88602f88301808007830f424094bbf5295a48f7737d9fe66c72a44af68c96d8126880a00000000000000000000000000000000000000000000000000000000000007530c080a006d54fe0f10674280c4778ff19dd6730e3efa747ca3127d8654abc20a81e526aa048bbe0a9c9cb4befce30d888776e84a3a3ff2a611289fd29b434fae24e0c824dc0f2d8028094000f3df6d732807ef1319fb7b8bb8522d0beac0201d8030194fffffffffffffffffffffffffffffffffffffffe01",
                "blocknumber": "2"
            }
        ],
        "sealEngine": "NoProof",
        "_info": {
            "hash": "0x8adc281c279acba11ab59f181955e31eaaee5d1f5e57f9ed659905ea5a282f06",
            "fixture-format": "blockchain_test",
            "comment": "`execution-specs` generated test",
            "filling-transition-tool": "2.19.0",
            "description": "Tests the fork transition to cancun deploying the contract during Shanghai\nand verifying the code deployed and its functionality after Cancun.",
            "url": "https://github.com/ethereum/execution-specs/blob/tests-bal@v5.6.0/tests/cancun/eip4788_beacon_root/test_beacon_root_contract.py#L744",
            "metadata": {
                "opcode_count": {}
            },
            "reference-spec": "https://github.com/ethereum/EIPs/blob/master/EIPS/eip-4788.md",
            "reference-spec-version": "efcac43ef9aadd87dd4e0a2fbd14d5d1317eddf3"
        }
    },
    "tests/cancun/eip4788_beacon_root/test_beacon_root_contract.py::test_beacon_root_contract_deploy[fork_ShanghaiToCancunAtTime15k-blockchain_test-deploy_on_shanghai]": {
        "network": "ShanghaiToCancunAtTime15k",
        "genesisBlockHeader": {
            "parentHash": "0x0000000000000000000000000000000000000000000000000000000000000000",
            "uncleHash": "0x1dcc4de8dec75d7aab85b567b6ccd41ad312451b948a7413f0a142fd40d49347",
            "coinbase": "0x0000000000000000000000000000000000000000",
            "stateRoot": "0x0c604fb50ad5157e43a69666a98c753a6e121c623bc2e44be9e6ae7a5047f5cb",
            "transactionsTrie": "0x56e81f171bcc55a6ff8345e692c0f86e5b48e01b996cadc001622fb5e363b421",
            "receiptTrie": "0x56e81f171bcc55a6ff8345e692c0f86e5b48e01b996cadc001622fb5e363b421",
            "bloom": "0x00000000000000000000000000000000000000000000000000000000000000000000000000000000000000000000000000000000000000000000000000000000000000000000000000000000000000000000000000000000000000000000000000000000000000000000000000000000000000000000000000000000000000000000000000000000000000000000000000000000000000000000000000000000000000000000000000000000000000000000000000000000000000000000000000000000000000000000000000000000000000000000000000000000000000000000000000000000000000000000000000000000000000000000000000000000",
            "difficulty": "0x00",
            "number": "0x00",
            "gasLimit": "0x07270e00",
            "gasUsed": "0x00",
            "timestamp": "0x00",
            "extraData": "0x00",
            "mixHash": "0x0000000000000000000000000000000000000000000000000000000000000000",
            "nonce": "0x0000000000000000",
            "baseFeePerGas": "0x07",
            "withdrawalsRoot": "0x56e81f171bcc55a6ff8345e692c0f86e5b48e01b996cadc001622fb5e363b421",
            "hash": "0xc17546be73546833dd5a85edd14a08834b17f2a55e2aae7c7d03cce7d791e0d0"
        },
        "pre": {
            "0xbbf5295a48f7737d9fe66c72a44af68c96d81268": {
                "nonce": "0x01",
                "balance": "0x010000000000",
                "code": "0x366000602037602060003660206000720f3df6d732807ef1319fb7b8bb8522d0beac02620186a0f16000556000516001553d6002553d600060003e600051600355",
                "storage": {}
            },
            "0x1ad9bc24818784172ff393bb6f89f094d4d2ca29": {
                "nonce": "0x00",
                "balance": "0x3635c9adc5dea00000",
                "code": "0x",
                "storage": {}
            },
            "0x0b799c86a49deeb90402691f1041aa3af2d3c875": {
                "nonce": "0x00",
                "balance": "0x03782dace9d90000",
                "code": "0x",
                "storage": {}
            }
        },
        "postState": {
            "0xbbf5295a48f7737d9fe66c72a44af68c96d81268": {
                "nonce": "0x01",
                "balance": "0x010000000000",
                "code": "0x366000602037602060003660206000720f3df6d732807ef1319fb7b8bb8522d0beac02620186a0f16000556000516001553d6002553d600060003e600051600355",
                "storage": {
                    "0x00": "0x01",
                    "0x01": "0x6c31fc15422ebad28aaf9089c306702f67540b53c7eea8b7d2941044b027100f",
                    "0x02": "0x20",
                    "0x03": "0x6c31fc15422ebad28aaf9089c306702f67540b53c7eea8b7d2941044b027100f"
                }
            },
            "0x1ad9bc24818784172ff393bb6f89f094d4d2ca29": {
                "nonce": "0x01",
                "balance": "0x3635c9adc5de938d08",
                "code": "0x",
                "storage": {}
            },
            "0x0b799c86a49deeb90402691f1041aa3af2d3c875": {
                "nonce": "0x01",
                "balance": "0x0270faab824ec000",
                "code": "0x",
                "storage": {}
            },
            "0x000f3df6d732807ef1319fb7b8bb8522d0beac02": {
                "nonce": "0x01",
                "balance": "0x77359400",
                "code": "0x3373fffffffffffffffffffffffffffffffffffffffe14604d57602036146024575f5ffd5b5f35801560495762001fff810690815414603c575f5ffd5b62001fff01545f5260205ff35b5f5ffd5b62001fff42064281555f359062001fff015500",
                "storage": {
                    "0x1a99": "0x3a98",
                    "0x3a98": "0x6c31fc15422ebad28aaf9089c306702f67540b53c7eea8b7d2941044b027100f"
                }
            },
            "0x2adc25665018aa1fe0e6bc666dac8fc2697ff9ba": {
                "nonce": "0x00",
                "balance": "0x0107330167825644",
                "code": "0x",
                "storage": {}
            },
            "0xfffffffffffffffffffffffffffffffffffffffe": {
                "nonce": "0x00",
                "balance": "0x77359400",
                "code": "0x",
                "storage": {}
            }
        },
        "lastblockhash": "0x528cf753cc0c7bafb0af51b4ce45d8d80d5ee94dc907ce89785f551f2f6374c5",
        "config": {
            "network": "ShanghaiToCancunAtTime15k",
            "chainid": "0x01",
            "blobSchedule": {
                "Cancun": {
                    "target": "0x03",
                    "max": "0x06",
                    "baseFeeUpdateFraction": "0x32f0ed"
                }
            }
        },
        "genesisRLP": "0xf90219f90213a00000000000000000000000000000000000000000000000000000000000000000a01dcc4de8dec75d7aab85b567b6ccd41ad312451b948a7413f0a142fd40d49347940000000000000000000000000000000000000000a00c604fb50ad5157e43a69666a98c753a6e121c623bc2e44be9e6ae7a5047f5cba056e81f171bcc55a6ff8345e692c0f86e5b48e01b996cadc001622fb5e363b421a056e81f171bcc55a6ff8345e692c0f86e5b48e01b996cadc001622fb5e363b421b901000000000000000000000000000000000000000000000000000000000000000000000000000000000000000000000000000000000000000000000000000000000000000000000000000000000000000000000000000000000000000000000000000000000000000000000000000000000000000000000000000000000000000000000000000000000000000000000000000000000000000000000000000000000000000000000000000000000000000000000000000000000000000000000000000000000000000000000000000000000000000000000000000000000000000000000000000000000000000000000000000000000000000000000000000000000080808407270e00808000a0000000000000000000000000000000000000000000000000000000000000000088000000000000000007a056e81f171bcc55a6ff8345e692c0f86e5b48e01b996cadc001622fb5e363b421c0c0c0",
        "blocks": [
            {
                "blockHeader": {
                    "parentHash": "0xc17546be73546833dd5a85edd14a08834b17f2a55e2aae7c7d03cce7d791e0d0",
                    "uncleHash": "0x1dcc4de8dec75d7aab85b567b6ccd41ad312451b948a7413f0a142fd40d49347",
                    "coinbase": "0x2adc25665018aa1fe0e6bc666dac8fc2697ff9ba",
                    "stateRoot": "0xe417484ebaeaf08286167c5869b9204f2c2e03fa1e4f71b60ad2a8f3b686c3da",
                    "transactionsTrie": "0xd87da2b23fc7bbfa7e2994ee830e73325af892d036e2e5d90d9f17ff2dd41d9d",
                    "receiptTrie": "0xd5caddb93c844bd1c4a6364ec17b3f09afea9b2f335d8aba110ef6b0c9d9bfeb",
                    "bloom": "0x00000000000000000000000000000000000000000000000000000000000000000000000000000000000000000000000000000000000000000000000000000000000000000000000000000000000000000000000000000000000000000000000000000000000000000000000000000000000000000000000000000000000000000000000000000000000000000000000000000000000000000000000000000000000000000000000000000000000000000000000000000000000000000000000000000000000000000000000000000000000000000000000000000000000000000000000000000000000000000000000000000000000000000000000000000000",
                    "difficulty": "0x00",
                    "number": "0x01",
                    "gasLimit": "0x07270e00",
                    "gasUsed": "0x012164",
                    "timestamp": "0x1d4c",
                    "extraData": "0x",
                    "mixHash": "0x0000000000000000000000000000000000000000000000000000000000000000",
                    "nonce": "0x0000000000000000",
                    "baseFeePerGas": "0x07",
                    "withdrawalsRoot": "0x2aef4d3e6939af0b4bf4c0e7572a214eb7db9ba52937e1e82ad6c64b52d2e8bb",
                    "hash": "0x49fa745076216dc2f80af7852635ba2efb42bd3bb06f9db5fc607fc3fc8bc5e4"
                },
                "transactions": [
                    {
                        "type": "0x00",
                        "chainId": "0x01",
                        "nonce": "0x00",
                        "gasPrice": "0xe8d4a51000",
                        "gasLimit": "0x03d090",
                        "value": "0x00",
                        "data": "0x60618060095f395ff33373fffffffffffffffffffffffffffffffffffffffe14604d57602036146024575f5ffd5b5f35801560495762001fff810690815414603c575f5ffd5b62001fff01545f5260205ff35b5f5ffd5b62001fff42064281555f359062001fff015500",
                        "v": "0x1b",
                        "r": "0x0539",
                        "s": "0x1b9b6eb1f0",
                        "sender": "0x0b799c86a49deeb90402691f1041aa3af2d3c875",
                        "to": ""
                    }
                ],
                "uncleHeaders": [],
                "withdrawals": [
                    {
                        "index": "0x00",
                        "validatorIndex": "0x00",
                        "address": "0x000f3df6d732807ef1319fb7b8bb8522d0beac02",
                        "amount": "0x01"
                    },
                    {
                        "index": "0x01",
                        "validatorIndex": "0x01",
                        "address": "0xfffffffffffffffffffffffffffffffffffffffe",
                        "amount": "0x01"
                    }
                ],
                "receipts": [
                    {
                        "transactionHash": "0xdf52c2d3bbe38820fff7b5eaab3db1b91f8e1412b56497d88388fb5d4ea1fde0",
                        "type": "0x00",
                        "cumulativeGasUsed": "0x012164",
                        "bloom": "0x00000000000000000000000000000000000000000000000000000000000000000000000000000000000000000000000000000000000000000000000000000000000000000000000000000000000000000000000000000000000000000000000000000000000000000000000000000000000000000000000000000000000000000000000000000000000000000000000000000000000000000000000000000000000000000000000000000000000000000000000000000000000000000000000000000000000000000000000000000000000000000000000000000000000000000000000000000000000000000000000000000000000000000000000000000000",
                        "logs": [],
                        "status": true,
                        "rlp": "0xf901090183012164b9010000000000000000000000000000000000000000000000000000000000000000000000000000000000000000000000000000000000000000000000000000000000000000000000000000000000000000000000000000000000000000000000000000000000000000000000000000000000000000000000000000000000000000000000000000000000000000000000000000000000000000000000000000000000000000000000000000000000000000000000000000000000000000000000000000000000000000000000000000000000000000000000000000000000000000000000000000000000000000000000000000000000000000000000000000000000c0"
                    }
                ],
                "rlp": "0xf902d6f90218a0c17546be73546833dd5a85edd14a08834b17f2a55e2aae7c7d03cce7d791e0d0a01dcc4de8dec75d7aab85b567b6ccd41ad312451b948a7413f0a142fd40d49347942adc25665018aa1fe0e6bc666dac8fc2697ff9baa0e417484ebaeaf08286167c5869b9204f2c2e03fa1e4f71b60ad2a8f3b686c3daa0d87da2b23fc7bbfa7e2994ee830e73325af892d036e2e5d90d9f17ff2dd41d9da0d5caddb93c844bd1c4a6364ec17b3f09afea9b2f335d8aba110ef6b0c9d9bfebb901000000000000000000000000000000000000000000000000000000000000000000000000000000000000000000000000000000000000000000000000000000000000000000000000000000000000000000000000000000000000000000000000000000000000000000000000000000000000000000000000000000000000000000000000000000000000000000000000000000000000000000000000000000000000000000000000000000000000000000000000000000000000000000000000000000000000000000000000000000000000000000000000000000000000000000000000000000000000000000000000000000000000000000000000000000000080018407270e0083012164821d4c80a0000000000000000000000000000000000000000000000000000000000000000088000000000000000007a02aef4d3e6939af0b4bf4c0e7572a214eb7db9ba52937e1e82ad6c64b52d2e8bbf885f8838085e8d4a510008303d0908080b86a60618060095f395ff33373fffffffffffffffffffffffffffffffffffffffe14604d57602036146024575f5ffd5b5f35801560495762001fff810690815414603c575f5ffd5b62001fff01545f5260205ff35b5f5ffd5b62001fff42064281555f359062001fff0155001b820539851b9b6eb1f0c0f2d8808094000f3df6d732807ef1319fb7b8bb8522d0beac0201d8010194fffffffffffffffffffffffffffffffffffffffe01",
                "blocknumber": "1"
            },
            {
                "blockHeader": {
                    "parentHash": "0x49fa745076216dc2f80af7852635ba2efb42bd3bb06f9db5fc607fc3fc8bc5e4",
                    "uncleHash": "0x1dcc4de8dec75d7aab85b567b6ccd41ad312451b948a7413f0a142fd40d49347",
                    "coinbase": "0x2adc25665018aa1fe0e6bc666dac8fc2697ff9ba",
                    "stateRoot": "0xdf0c213418861d943c45bb331faafc8a0b08019229f2f66f93e46f48ab92bbff",
                    "transactionsTrie": "0x35d76f3a9fc49e62565456497f6b244bb448a0ed5289c9ba4e80086dbbd03fc4",
                    "receiptTrie": "0x1ccaf316c85ab72468f194a8a6bf7f7cac5730696d7dd3a5dc298fac47cfe273",
                    "bloom": "0x00000000000000000000000000000000000000000000000000000000000000000000000000000000000000000000000000000000000000000000000000000000000000000000000000000000000000000000000000000000000000000000000000000000000000000000000000000000000000000000000000000000000000000000000000000000000000000000000000000000000000000000000000000000000000000000000000000000000000000000000000000000000000000000000000000000000000000000000000000000000000000000000000000000000000000000000000000000000000000000000000000000000000000000000000000000",
                    "difficulty": "0x00",
                    "number": "0x02",
                    "gasLimit": "0x07270e00",
                    "gasUsed": "0x01c748",
                    "timestamp": "0x3a98",
                    "extraData": "0x",
                    "mixHash": "0x0000000000000000000000000000000000000000000000000000000000000000",
                    "nonce": "0x0000000000000000",
                    "baseFeePerGas": "0x07",
                    "withdrawalsRoot": "0xd21739e00fbe6b25846bb8079ed6fd6533baa1e8b127b158f651ae16edac1f10",
                    "blobGasUsed": "0x00",
                    "excessBlobGas": "0x00",
                    "parentBeaconBlockRoot": "0x6c31fc15422ebad28aaf9089c306702f67540b53c7eea8b7d2941044b027100f",
                    "hash": "0x528cf753cc0c7bafb0af51b4ce45d8d80d5ee94dc907ce89785f551f2f6374c5"
                },
                "transactions": [
                    {
                        "type": "0x02",
                        "chainId": "0x01",
                        "nonce": "0x00",
                        "maxPriorityFeePerGas": "0x00",
                        "maxFeePerGas": "0x07",
                        "gasLimit": "0x0f4240",
                        "to": "0xbbf5295a48f7737d9fe66c72a44af68c96d81268",
                        "value": "0x00",
                        "data": "0x0000000000000000000000000000000000000000000000000000000000003a98",
                        "accessList": [],
                        "v": "0x00",
                        "r": "0xea173faa5f718ea6e9d4c9953984a68a712618486066c271fb82dda7cc7181a5",
                        "s": "0x65815a4cc4f472c9ad29ed4a151e5514283f491078822415ae93edb87ce110e5",
                        "sender": "0x1ad9bc24818784172ff393bb6f89f094d4d2ca29"
                    }
                ],
                "uncleHeaders": [],
                "withdrawals": [
                    {
                        "index": "0x02",
                        "validatorIndex": "0x00",
                        "address": "0x000f3df6d732807ef1319fb7b8bb8522d0beac02",
                        "amount": "0x01"
                    },
                    {
                        "index": "0x03",
                        "validatorIndex": "0x01",
                        "address": "0xfffffffffffffffffffffffffffffffffffffffe",
                        "amount": "0x01"
                    }
                ],
                "receipts": [
                    {
                        "transactionHash": "0x660e991809c833ee5a62ca0e04771f0372cc420d6ae1da6b6f9b83fa3cfa9e3d",
                        "type": "0x02",
                        "cumulativeGasUsed": "0x01c748",
                        "bloom": "0x00000000000000000000000000000000000000000000000000000000000000000000000000000000000000000000000000000000000000000000000000000000000000000000000000000000000000000000000000000000000000000000000000000000000000000000000000000000000000000000000000000000000000000000000000000000000000000000000000000000000000000000000000000000000000000000000000000000000000000000000000000000000000000000000000000000000000000000000000000000000000000000000000000000000000000000000000000000000000000000000000000000000000000000000000000000",
                        "logs": [],
                        "status": true,
                        "rlp": "0x02f90109018301c748b9010000000000000000000000000000000000000000000000000000000000000000000000000000000000000000000000000000000000000000000000000000000000000000000000000000000000000000000000000000000000000000000000000000000000000000000000000000000000000000000000000000000000000000000000000000000000000000000000000000000000000000000000000000000000000000000000000000000000000000000000000000000000000000000000000000000000000000000000000000000000000000000000000000000000000000000000000000000000000000000000000000000000000000000000000000000000c0"
                    }
                ],
                "rlp": "0xf902fcf9023ba049fa745076216dc2f80af7852635ba2efb42bd3bb06f9db5fc607fc3fc8bc5e4a01dcc4de8dec75d7aab85b567b6ccd41ad312451b948a7413f0a142fd40d49347942adc25665018aa1fe0e6bc666dac8fc2697ff9baa0df0c213418861d943c45bb331faafc8a0b08019229f2f66f93e46f48ab92bbffa035d76f3a9fc49e62565456497f6b244bb448a0ed5289c9ba4e80086dbbd03fc4a01ccaf316c85ab72468f194a8a6bf7f7cac5730696d7dd3a5dc298fac47cfe273b901000000000000000000000000000000000000000000000000000000000000000000000000000000000000000000000000000000000000000000000000000000000000000000000000000000000000000000000000000000000000000000000000000000000000000000000000000000000000000000000000000000000000000000000000000000000000000000000000000000000000000000000000000000000000000000000000000000000000000000000000000000000000000000000000000000000000000000000000000000000000000000000000000000000000000000000000000000000000000000000000000000000000000000000000000000000080028407270e008301c748823a9880a0000000000000000000000000000000000000000000000000000000000000000088000000000000000007a0d21739e00fbe6b25846bb8079ed6fd6533baa1e8b127b158f651ae16edac1f108080a06c31fc15422ebad28aaf9089c306702f67540b53c7eea8b7d2941044b027100ff888b88602f88301808007830f424094bbf5295a48f7737d9fe66c72a44af68c96d8126880a00000000000000000000000000000000000000000000000000000000000003a98c080a0ea173faa5f718ea6e9d4c9953984a68a712618486066c271fb82dda7cc7181a5a065815a4cc4f472c9ad29ed4a151e5514283f491078822415ae93edb87ce110e5c0f2d8028094000f3df6d732807ef1319fb7b8bb8522d0beac0201d8030194fffffffffffffffffffffffffffffffffffffffe01",
                "blocknumber": "2"
            }
        ],
        "sealEngine": "NoProof",
        "_info": {
            "hash": "0x4d96eb2cc2c73a98d237081c1e4bd6e3072e73c985930b594b656c7e14062286",
            "fixture-format": "blockchain_test",
            "comment": "`execution-specs` generated test",
            "filling-transition-tool": "2.19.0",
            "description": "Tests the fork transition to cancun deploying the contract during Shanghai\nand verifying the code deployed and its functionality after Cancun.",
            "url": "https://github.com/ethereum/execution-specs/blob/tests-bal@v5.6.0/tests/cancun/eip4788_beacon_root/test_beacon_root_contract.py#L744",
            "metadata": {
                "opcode_count": {}
            },
            "reference-spec": "https://github.com/ethereum/EIPs/blob/master/EIPS/eip-4788.md",
            "reference-spec-version": "efcac43ef9aadd87dd4e0a2fbd14d5d1317eddf3"
        }
    }
}