{
    "tests/ported_static/stCallDelegateCodesCallCodeHomestead/test_callcallcode_01.py::test_callcallcode_01[fork_Cancun-blockchain_test_from_state_test]": {
        "network": "Cancun",
        "genesisBlockHeader": {
            "parentHash": "0x0000000000000000000000000000000000000000000000000000000000000000",
            "uncleHash": "0x1dcc4de8dec75d7aab85b567b6ccd41ad312451b948a7413f0a142fd40d49347",
            "coinbase": "0x0000000000000000000000000000000000000000",
            "stateRoot": "0xf78c77ee7f97cc6675a4680ba12cca0aba6c9ac4994cfa132feab7918e1e29c8",
            "transactionsTrie": "0x56e81f171bcc55a6ff8345e692c0f86e5b48e01b996cadc001622fb5e363b421",
            "receiptTrie": "0x56e81f171bcc55a6ff8345e692c0f86e5b48e01b996cadc001622fb5e363b421",
            "bloom": "0x00000000000000000000000000000000000000000000000000000000000000000000000000000000000000000000000000000000000000000000000000000000000000000000000000000000000000000000000000000000000000000000000000000000000000000000000000000000000000000000000000000000000000000000000000000000000000000000000000000000000000000000000000000000000000000000000000000000000000000000000000000000000000000000000000000000000000000000000000000000000000000000000000000000000000000000000000000000000000000000000000000000000000000000000000000000",
            "difficulty": "0x00",
            "number": "0x00",
            "gasLimit": "0x01c9c380",
            "gasUsed": "0x00",
            "timestamp": "0x00",
            "extraData": "0x00",
            "mixHash": "0x0000000000000000000000000000000000000000000000000000000000000000",
            "nonce": "0x0000000000000000",
            "baseFeePerGas": "0x0b",
            "withdrawalsRoot": "0x56e81f171bcc55a6ff8345e692c0f86e5b48e01b996cadc001622fb5e363b421",
            "blobGasUsed": "0x00",
            "excessBlobGas": "0x00",
            "parentBeaconBlockRoot": "0x0000000000000000000000000000000000000000000000000000000000000000",
            "hash": "0xb48485396acf8c9e7b70b353e0421b2a47b9b18abad5f8ec5fc63e23cc14b2e2"
        },
        "pre": {
            "0x000f3df6d732807ef1319fb7b8bb8522d0beac02": {
                "nonce": "0x01",
                "balance": "0x00",
                "code": "0x3373fffffffffffffffffffffffffffffffffffffffe14604d57602036146024575f5ffd5b5f35801560495762001fff810690815414603c575f5ffd5b62001fff01545f5260205ff35b5f5ffd5b62001fff42064281555f359062001fff015500",
                "storage": {}
            },
            "0xdb43306b16c521b9cc3667fbe7d1b697bb1f9605": {
                "nonce": "0x00",
                "balance": "0x0de0b6b3a7640000",
                "code": "0x60406000604060006001731ccccf19d84280c8a0e94209761296dabd87b3c962055730f260005500",
                "storage": {}
            },
            "0x1ccccf19d84280c8a0e94209761296dabd87b3c9": {
                "nonce": "0x00",
                "balance": "0x0de0b6b3a7640000",
                "code": "0x604060006040600073d42cd48f1d9a88f4b75bfb5e46e754c1128bd7fb6203d090f460015500",
                "storage": {}
            },
            "0xd42cd48f1d9a88f4b75bfb5e46e754c1128bd7fb": {
                "nonce": "0x00",
                "balance": "0x00",
                "code": "0x600160025533600455346005553060e6553260e8553660ec553860ee553a60f05500",
                "storage": {}
            },
            "0xebaf50debf10e08302fe4280c32df010463ca297": {
                "nonce": "0x00",
                "balance": "0x0de0b6b3a7640000",
                "code": "0x",
                "storage": {}
            }
        },
        "postState": {
            "0x000f3df6d732807ef1319fb7b8bb8522d0beac02": {
                "nonce": "0x01",
                "balance": "0x00",
                "code": "0x3373fffffffffffffffffffffffffffffffffffffffe14604d57602036146024575f5ffd5b5f35801560495762001fff810690815414603c575f5ffd5b62001fff01545f5260205ff35b5f5ffd5b62001fff42064281555f359062001fff015500",
                "storage": {
                    "0x03e8": "0x03e8"
                }
            },
            "0xdb43306b16c521b9cc3667fbe7d1b697bb1f9605": {
                "nonce": "0x00",
                "balance": "0x0de0b6b3a7640000",
                "code": "0x60406000604060006001731ccccf19d84280c8a0e94209761296dabd87b3c962055730f260005500",
                "storage": {
                    "0x02": "0x01",
                    "0x04": "0xdb43306b16c521b9cc3667fbe7d1b697bb1f9605",
                    "0x05": "0x01",
                    "0xe6": "0xdb43306b16c521b9cc3667fbe7d1b697bb1f9605",
                    "0xe8": "0xebaf50debf10e08302fe4280c32df010463ca297",
                    "0xec": "0x40",
                    "0xee": "0x22",
                    "0xf0": "0x0a",
                    "0x01": "0x01",
                    "0x00": "0x01"
                }
            },
            "0x1ccccf19d84280c8a0e94209761296dabd87b3c9": {
                "nonce": "0x00",
                "balance": "0x0de0b6b3a7640000",
                "code": "0x604060006040600073d42cd48f1d9a88f4b75bfb5e46e754c1128bd7fb6203d090f460015500",
                "storage": {}
            },
            "0xd42cd48f1d9a88f4b75bfb5e46e754c1128bd7fb": {
                "nonce": "0x00",
                "balance": "0x00",
                "code": "0x600160025533600455346005553060e6553260e8553660ec553860ee553a60f05500",
                "storage": {}
            },
            "0xebaf50debf10e08302fe4280c32df010463ca297": {
                "nonce": "0x01",
                "balance": "0x0de0b6b3a73d3e34",
                "code": "0x",
                "storage": {}
            }
        },
        "lastblockhash": "0x2088e517593b826217e612d031efffd23409d24da5db8f682eebe9b7b1b0082f",
        "config": {
            "network": "Cancun",
            "chainid": "0x01",
            "blobSchedule": {
                "Cancun": {
                    "target": "0x03",
                    "max": "0x06",
                    "baseFeeUpdateFraction": "0x32f0ed"
                }
            }
        },
        "genesisRLP": "0xf9023cf90236a00000000000000000000000000000000000000000000000000000000000000000a01dcc4de8dec75d7aab85b567b6ccd41ad312451b948a7413f0a142fd40d49347940000000000000000000000000000000000000000a0f78c77ee7f97cc6675a4680ba12cca0aba6c9ac4994cfa132feab7918e1e29c8a056e81f171bcc55a6ff8345e692c0f86e5b48e01b996cadc001622fb5e363b421a056e81f171bcc55a6ff8345e692c0f86e5b48e01b996cadc001622fb5e363b421b901000000000000000000000000000000000000000000000000000000000000000000000000000000000000000000000000000000000000000000000000000000000000000000000000000000000000000000000000000000000000000000000000000000000000000000000000000000000000000000000000000000000000000000000000000000000000000000000000000000000000000000000000000000000000000000000000000000000000000000000000000000000000000000000000000000000000000000000000000000000000000000000000000000000000000000000000000000000000000000000000000000000000000000000000000000000080808401c9c380808000a000000000000000000000000000000000000000000000000000000000000000008800000000000000000ba056e81f171bcc55a6ff8345e692c0f86e5b48e01b996cadc001622fb5e363b4218080a00000000000000000000000000000000000000000000000000000000000000000c0c0c0",
        "blocks": [
            {
                "blockHeader": {
                    "parentHash": "0xb48485396acf8c9e7b70b353e0421b2a47b9b18abad5f8ec5fc63e23cc14b2e2",
                    "uncleHash": "0x1dcc4de8dec75d7aab85b567b6ccd41ad312451b948a7413f0a142fd40d49347",
                    "coinbase": "0x2adc25665018aa1fe0e6bc666dac8fc2697ff9ba",
                    "stateRoot": "0xf0fed9f17dd0cb3b9cebb0ae9b9b5804caaf242b7917f21f983605286f3a62bc",
                    "transactionsTrie": "0x12964b81a5b591a833af407fda277d2b80d9dc40052de8bad56df4f915427a64",
                    "receiptTrie": "0x05d24b93dd36c9e8e79c2e2c7945a7aa68b1a293b2aeb4eb4b937f55fcb3fc81",
                    "bloom": "0x00000000000000000000000000000000000000000000000000000000000000000000000000000000000000000000000000000000000000000000000000000000000000000000000000000000000000000000000000000000000000000000000000000000000000000000000000000000000000000000000000000000000000000000000000000000000000000000000000000000000000000000000000000000000000000000000000000000000000000000000000000000000000000000000000000000000000000000000000000000000000000000000000000000000000000000000000000000000000000000000000000000000000000000000000000000",
                    "difficulty": "0x00",
                    "number": "0x01",
                    "gasLimit": "0x01c9c380",
                    "gasUsed": "0x03e02e",
                    "timestamp": "0x03e8",
                    "extraData": "0x00",
                    "mixHash": "0x0000000000000000000000000000000000000000000000000000000000020000",
                    "nonce": "0x0000000000000000",
                    "baseFeePerGas": "0x0a",
                    "withdrawalsRoot": "0x56e81f171bcc55a6ff8345e692c0f86e5b48e01b996cadc001622fb5e363b421",
                    "blobGasUsed": "0x00",
                    "excessBlobGas": "0x00",
                    "parentBeaconBlockRoot": "0x0000000000000000000000000000000000000000000000000000000000000000",
                    "hash": "0x2088e517593b826217e612d031efffd23409d24da5db8f682eebe9b7b1b0082f"
                },
                "transactions": [
                    {
                        "type": "0x00",
                        "chainId": "0x01",
                        "nonce": "0x00",
                        "gasPrice": "0x0a",
                        "gasLimit": "0x2dc6c0",
                        "to": "0xdb43306b16c521b9cc3667fbe7d1b697bb1f9605",
                        "value": "0x00",
                        "data": "0x",
                        "v": "0x25",
                        "r": "0x73a7eabb6c45686e1a51a960740cf6b3ef23e83151552c621de30a718d27e2fb",
                        "s": "0x1604bb670de19675842085977eed289389b03d7f1dc1ac209563adcdc2f08795",
                        "sender": "0xebaf50debf10e08302fe4280c32df010463ca297"
                    }
                ],
                "uncleHeaders": [],
                "withdrawals": [],
                "receipts": [
                    {
                        "transactionHash": "0x111fd42a9d2e2197257fa19766edc3c7fd2f8d9ee75197fd02359aca0c7af7a0",
                        "type": "0x00",
                        "cumulativeGasUsed": "0x03e02e",
                        "bloom": "0x00000000000000000000000000000000000000000000000000000000000000000000000000000000000000000000000000000000000000000000000000000000000000000000000000000000000000000000000000000000000000000000000000000000000000000000000000000000000000000000000000000000000000000000000000000000000000000000000000000000000000000000000000000000000000000000000000000000000000000000000000000000000000000000000000000000000000000000000000000000000000000000000000000000000000000000000000000000000000000000000000000000000000000000000000000000",
                        "logs": [],
                        "status": true,
                        "rlp": "0xf90109018303e02eb9010000000000000000000000000000000000000000000000000000000000000000000000000000000000000000000000000000000000000000000000000000000000000000000000000000000000000000000000000000000000000000000000000000000000000000000000000000000000000000000000000000000000000000000000000000000000000000000000000000000000000000000000000000000000000000000000000000000000000000000000000000000000000000000000000000000000000000000000000000000000000000000000000000000000000000000000000000000000000000000000000000000000000000000000000000000000c0"
                    }
                ],
                "rlp": "0xf902a4f9023ba0b48485396acf8c9e7b70b353e0421b2a47b9b18abad5f8ec5fc63e23cc14b2e2a01dcc4de8dec75d7aab85b567b6ccd41ad312451b948a7413f0a142fd40d49347942adc25665018aa1fe0e6bc666dac8fc2697ff9baa0f0fed9f17dd0cb3b9cebb0ae9b9b5804caaf242b7917f21f983605286f3a62bca012964b81a5b591a833af407fda277d2b80d9dc40052de8bad56df4f915427a64a005d24b93dd36c9e8e79c2e2c7945a7aa68b1a293b2aeb4eb4b937f55fcb3fc81b901000000000000000000000000000000000000000000000000000000000000000000000000000000000000000000000000000000000000000000000000000000000000000000000000000000000000000000000000000000000000000000000000000000000000000000000000000000000000000000000000000000000000000000000000000000000000000000000000000000000000000000000000000000000000000000000000000000000000000000000000000000000000000000000000000000000000000000000000000000000000000000000000000000000000000000000000000000000000000000000000000000000000000000000000000000000080018401c9c3808303e02e8203e800a000000000000000000000000000000000000000000000000000000000000200008800000000000000000aa056e81f171bcc55a6ff8345e692c0f86e5b48e01b996cadc001622fb5e363b4218080a00000000000000000000000000000000000000000000000000000000000000000f862f860800a832dc6c094db43306b16c521b9cc3667fbe7d1b697bb1f9605808025a073a7eabb6c45686e1a51a960740cf6b3ef23e83151552c621de30a718d27e2fba01604bb670de19675842085977eed289389b03d7f1dc1ac209563adcdc2f08795c0c0",
                "blocknumber": "1"
            }
        ],
        "sealEngine": "NoProof",
        "_info": {
            "hash": "0xd9d34b91535d7060dfecb23f8db10abf0def38ba41d9b63ca1b7dc390b7615b0",
            "fixture-format": "blockchain_test",
            "comment": "`execution-specs` generated test",
            "filling-transition-tool": "2.19.0",
            "description": "Test_callcallcode_01.",
            "url": "https://github.com/ethereum/execution-specs/blob/tests-sn\u00f8bal-devnet-4@v1.0.0/tests/ported_static/stCallDelegateCodesCallCodeHomestead/test_callcallcode_01.py#L25",
            "metadata": {
                "opcode_count": {}
            }
        }
    }
}