{
    "tests/ported_static/stCallDelegateCodesCallCodeHomestead/test_callcallcodecall_010_ooge.py::test_callcallcodecall_010_ooge[fork_Cancun-blockchain_test_from_state_test]": {
        "network": "Cancun",
        "genesisBlockHeader": {
            "parentHash": "0x0000000000000000000000000000000000000000000000000000000000000000",
            "uncleHash": "0x1dcc4de8dec75d7aab85b567b6ccd41ad312451b948a7413f0a142fd40d49347",
            "coinbase": "0x0000000000000000000000000000000000000000",
            "stateRoot": "0x6a4526321a08ca4c6e879b3f470d05263c690f75c97217e3daec176b96f6e385",
            "transactionsTrie": "0x56e81f171bcc55a6ff8345e692c0f86e5b48e01b996cadc001622fb5e363b421",
            "receiptTrie": "0x56e81f171bcc55a6ff8345e692c0f86e5b48e01b996cadc001622fb5e363b421",
            "bloom": "0x00000000000000000000000000000000000000000000000000000000000000000000000000000000000000000000000000000000000000000000000000000000000000000000000000000000000000000000000000000000000000000000000000000000000000000000000000000000000000000000000000000000000000000000000000000000000000000000000000000000000000000000000000000000000000000000000000000000000000000000000000000000000000000000000000000000000000000000000000000000000000000000000000000000000000000000000000000000000000000000000000000000000000000000000000000000",
            "difficulty": "0x00",
            "number": "0x00",
            "gasLimit": "0x01c9c380",
            "gasUsed": "0x00",
            "timestamp": "0x00",
            "extraData": "0x00",
            "mixHash": "0x0000000000000000000000000000000000000000000000000000000000000000",
            "nonce": "0x0000000000000000",
            "baseFeePerGas": "0x0b",
            "withdrawalsRoot": "0x56e81f171bcc55a6ff8345e692c0f86e5b48e01b996cadc001622fb5e363b421",
            "blobGasUsed": "0x00",
            "excessBlobGas": "0x00",
            "parentBeaconBlockRoot": "0x0000000000000000000000000000000000000000000000000000000000000000",
            "hash": "0x43fb69ddc9a8d87a7524e2ac9ea12c9178234a262af145ca1a1b4db8d8e9cfdc"
        },
        "pre": {
            "0x000f3df6d732807ef1319fb7b8bb8522d0beac02": {
                "nonce": "0x01",
                "balance": "0x00",
                "code": "0x3373fffffffffffffffffffffffffffffffffffffffe14604d57602036146024575f5ffd5b5f35801560495762001fff810690815414603c575f5ffd5b62001fff01545f5260205ff35b5f5ffd5b62001fff42064281555f359062001fff015500",
                "storage": {}
            },
            "0xd66f224cbd2fabb21b17bb53c56118f32f62ebd6": {
                "nonce": "0x00",
                "balance": "0x0de0b6b3a7640000",
                "code": "0x",
                "storage": {}
            },
            "0x0452a3c6b46e2274eb34f60ad44d6224284b527f": {
                "nonce": "0x00",
                "balance": "0x00",
                "code": "0x6001600355622fffff60002000",
                "storage": {}
            },
            "0xc60a1e5830b33f89db09299ba8aba80629d7df29": {
                "nonce": "0x00",
                "balance": "0x00",
                "code": "0x60406000604060006000730452a3c6b46e2274eb34f60ad44d6224284b527f62061a80f26002556001600b5500",
                "storage": {}
            },
            "0x15700f65867c5b649af2fcc86a71f8e397221690": {
                "nonce": "0x00",
                "balance": "0x00",
                "code": "0x604060006040600073c60a1e5830b33f89db09299ba8aba80629d7df29620927c0f460015500",
                "storage": {}
            },
            "0xf2f66e2fa193f42d52c89bdc5506898617b19103": {
                "nonce": "0x00",
                "balance": "0x0de0b6b3a7640000",
                "code": "0x604060006040600060007315700f65867c5b649af2fcc86a71f8e397221690620c3500f260005500",
                "storage": {}
            }
        },
        "postState": {
            "0x000f3df6d732807ef1319fb7b8bb8522d0beac02": {
                "nonce": "0x01",
                "balance": "0x00",
                "code": "0x3373fffffffffffffffffffffffffffffffffffffffe14604d57602036146024575f5ffd5b5f35801560495762001fff810690815414603c575f5ffd5b62001fff01545f5260205ff35b5f5ffd5b62001fff42064281555f359062001fff015500",
                "storage": {
                    "0x03e8": "0x03e8"
                }
            },
            "0xd66f224cbd2fabb21b17bb53c56118f32f62ebd6": {
                "nonce": "0x01",
                "balance": "0x0de0b6b3a7181a96",
                "code": "0x",
                "storage": {}
            },
            "0x0452a3c6b46e2274eb34f60ad44d6224284b527f": {
                "nonce": "0x00",
                "balance": "0x00",
                "code": "0x6001600355622fffff60002000",
                "storage": {}
            },
            "0xc60a1e5830b33f89db09299ba8aba80629d7df29": {
                "nonce": "0x00",
                "balance": "0x00",
                "code": "0x60406000604060006000730452a3c6b46e2274eb34f60ad44d6224284b527f62061a80f26002556001600b5500",
                "storage": {}
            },
            "0x15700f65867c5b649af2fcc86a71f8e397221690": {
                "nonce": "0x00",
                "balance": "0x00",
                "code": "0x604060006040600073c60a1e5830b33f89db09299ba8aba80629d7df29620927c0f460015500",
                "storage": {}
            },
            "0xf2f66e2fa193f42d52c89bdc5506898617b19103": {
                "nonce": "0x00",
                "balance": "0x0de0b6b3a7640000",
                "code": "0x604060006040600060007315700f65867c5b649af2fcc86a71f8e397221690620c3500f260005500",
                "storage": {
                    "0x0b": "0x01",
                    "0x01": "0x01",
                    "0x00": "0x01"
                }
            }
        },
        "lastblockhash": "0x2bb8ec5d206dc2728d63b93697df29445479ebe038d6a6f17b8df502867d286b",
        "config": {
            "network": "Cancun",
            "chainid": "0x01",
            "blobSchedule": {
                "Cancun": {
                    "target": "0x03",
                    "max": "0x06",
                    "baseFeeUpdateFraction": "0x32f0ed"
                }
            }
        },
        "genesisRLP": "0xf9023cf90236a00000000000000000000000000000000000000000000000000000000000000000a01dcc4de8dec75d7aab85b567b6ccd41ad312451b948a7413f0a142fd40d49347940000000000000000000000000000000000000000a06a4526321a08ca4c6e879b3f470d05263c690f75c97217e3daec176b96f6e385a056e81f171bcc55a6ff8345e692c0f86e5b48e01b996cadc001622fb5e363b421a056e81f171bcc55a6ff8345e692c0f86e5b48e01b996cadc001622fb5e363b421b901000000000000000000000000000000000000000000000000000000000000000000000000000000000000000000000000000000000000000000000000000000000000000000000000000000000000000000000000000000000000000000000000000000000000000000000000000000000000000000000000000000000000000000000000000000000000000000000000000000000000000000000000000000000000000000000000000000000000000000000000000000000000000000000000000000000000000000000000000000000000000000000000000000000000000000000000000000000000000000000000000000000000000000000000000000000080808401c9c380808000a000000000000000000000000000000000000000000000000000000000000000008800000000000000000ba056e81f171bcc55a6ff8345e692c0f86e5b48e01b996cadc001622fb5e363b4218080a00000000000000000000000000000000000000000000000000000000000000000c0c0c0",
        "blocks": [
            {
                "blockHeader": {
                    "parentHash": "0x43fb69ddc9a8d87a7524e2ac9ea12c9178234a262af145ca1a1b4db8d8e9cfdc",
                    "uncleHash": "0x1dcc4de8dec75d7aab85b567b6ccd41ad312451b948a7413f0a142fd40d49347",
                    "coinbase": "0x2adc25665018aa1fe0e6bc666dac8fc2697ff9ba",
                    "stateRoot": "0xb810e5cb131d00ab2a8a8b903dc2ed6ac50f3bb8323cb9fbd50dafbdedb6be81",
                    "transactionsTrie": "0x0968e4efbbf11acc69d37b51b6543aea920d9643c02518e8a6478cf2cede7dfb",
                    "receiptTrie": "0x7feebdf729ab2ac9ff2578b0a5ebe4907431b7f50ff333be31419f1c6cb698d2",
                    "bloom": "0x00000000000000000000000000000000000000000000000000000000000000000000000000000000000000000000000000000000000000000000000000000000000000000000000000000000000000000000000000000000000000000000000000000000000000000000000000000000000000000000000000000000000000000000000000000000000000000000000000000000000000000000000000000000000000000000000000000000000000000000000000000000000000000000000000000000000000000000000000000000000000000000000000000000000000000000000000000000000000000000000000000000000000000000000000000000",
                    "difficulty": "0x00",
                    "number": "0x01",
                    "gasLimit": "0x01c9c380",
                    "gasUsed": "0x0796f1",
                    "timestamp": "0x03e8",
                    "extraData": "0x00",
                    "mixHash": "0x0000000000000000000000000000000000000000000000000000000000020000",
                    "nonce": "0x0000000000000000",
                    "baseFeePerGas": "0x0a",
                    "withdrawalsRoot": "0x56e81f171bcc55a6ff8345e692c0f86e5b48e01b996cadc001622fb5e363b421",
                    "blobGasUsed": "0x00",
                    "excessBlobGas": "0x00",
                    "parentBeaconBlockRoot": "0x0000000000000000000000000000000000000000000000000000000000000000",
                    "hash": "0x2bb8ec5d206dc2728d63b93697df29445479ebe038d6a6f17b8df502867d286b"
                },
                "transactions": [
                    {
                        "type": "0x00",
                        "chainId": "0x01",
                        "nonce": "0x00",
                        "gasPrice": "0x0a",
                        "gasLimit": "0x0f4240",
                        "to": "0xf2f66e2fa193f42d52c89bdc5506898617b19103",
                        "value": "0x00",
                        "data": "0x",
                        "v": "0x25",
                        "r": "0xcbd8b206a0487f2a1fb51c191d9b3027507c58ae55b80c6e0da0af212e63f02e",
                        "s": "0x6e06a141e93e1289b3d668966e7ffca237809ac3d27120cd2fe56d86d8b20d83",
                        "sender": "0xd66f224cbd2fabb21b17bb53c56118f32f62ebd6"
                    }
                ],
                "uncleHeaders": [],
                "withdrawals": [],
                "receipts": [
                    {
                        "transactionHash": "0xdd5d438781999d4fe93c84e666b5a2e71055aa840d3c04d9a701efe79273fa55",
                        "type": "0x00",
                        "cumulativeGasUsed": "0x0796f1",
                        "bloom": "0x00000000000000000000000000000000000000000000000000000000000000000000000000000000000000000000000000000000000000000000000000000000000000000000000000000000000000000000000000000000000000000000000000000000000000000000000000000000000000000000000000000000000000000000000000000000000000000000000000000000000000000000000000000000000000000000000000000000000000000000000000000000000000000000000000000000000000000000000000000000000000000000000000000000000000000000000000000000000000000000000000000000000000000000000000000000",
                        "logs": [],
                        "status": true,
                        "rlp": "0xf9010901830796f1b9010000000000000000000000000000000000000000000000000000000000000000000000000000000000000000000000000000000000000000000000000000000000000000000000000000000000000000000000000000000000000000000000000000000000000000000000000000000000000000000000000000000000000000000000000000000000000000000000000000000000000000000000000000000000000000000000000000000000000000000000000000000000000000000000000000000000000000000000000000000000000000000000000000000000000000000000000000000000000000000000000000000000000000000000000000000000c0"
                    }
                ],
                "rlp": "0xf902a4f9023ba043fb69ddc9a8d87a7524e2ac9ea12c9178234a262af145ca1a1b4db8d8e9cfdca01dcc4de8dec75d7aab85b567b6ccd41ad312451b948a7413f0a142fd40d49347942adc25665018aa1fe0e6bc666dac8fc2697ff9baa0b810e5cb131d00ab2a8a8b903dc2ed6ac50f3bb8323cb9fbd50dafbdedb6be81a00968e4efbbf11acc69d37b51b6543aea920d9643c02518e8a6478cf2cede7dfba07feebdf729ab2ac9ff2578b0a5ebe4907431b7f50ff333be31419f1c6cb698d2b901000000000000000000000000000000000000000000000000000000000000000000000000000000000000000000000000000000000000000000000000000000000000000000000000000000000000000000000000000000000000000000000000000000000000000000000000000000000000000000000000000000000000000000000000000000000000000000000000000000000000000000000000000000000000000000000000000000000000000000000000000000000000000000000000000000000000000000000000000000000000000000000000000000000000000000000000000000000000000000000000000000000000000000000000000000000080018401c9c380830796f18203e800a000000000000000000000000000000000000000000000000000000000000200008800000000000000000aa056e81f171bcc55a6ff8345e692c0f86e5b48e01b996cadc001622fb5e363b4218080a00000000000000000000000000000000000000000000000000000000000000000f862f860800a830f424094f2f66e2fa193f42d52c89bdc5506898617b19103808025a0cbd8b206a0487f2a1fb51c191d9b3027507c58ae55b80c6e0da0af212e63f02ea06e06a141e93e1289b3d668966e7ffca237809ac3d27120cd2fe56d86d8b20d83c0c0",
                "blocknumber": "1"
            }
        ],
        "sealEngine": "NoProof",
        "_info": {
            "hash": "0x53065172d5c319b9f8d11387e8b3d05d8717f7bcc2dc208ef44e76943caa6438",
            "fixture-format": "blockchain_test",
            "comment": "`execution-specs` generated test",
            "filling-transition-tool": "2.19.0",
            "description": "CALLCODE -> DELEGATE -> CALLCODE -> CODE OOG.",
            "url": "https://github.com/ethereum/execution-specs/blob/tests-snobal-devnet-5@v8037.0.0/tests/ported_static/stCallDelegateCodesCallCodeHomestead/test_callcallcodecall_010_ooge.py#L24",
            "metadata": {
                "opcode_count": {}
            }
        }
    }
}