{
    "tests/static/state_tests/stStaticCall/static_CallIdentity_4_gas18Filler.json::static_CallIdentity_4_gas18[fork_Cancun-state_test-]": {
        "env": {
            "currentCoinbase": "0x2adc25665018aa1fe0e6bc666dac8fc2697ff9ba",
            "currentGasLimit": "0x989680",
            "currentNumber": "0x01",
            "currentTimestamp": "0x03e8",
            "currentRandom": "0x0000000000000000000000000000000000000000000000000000000000020000",
            "currentDifficulty": "0x00",
            "currentBaseFee": "0x0a",
            "currentExcessBlobGas": "0x00"
        },
        "pre": {
            "0xf0477f7f2d0fbb930f4806872089fd6959bd9aa9": {
                "nonce": "0x00",
                "balance": "0x0de0b6b3a7640000",
                "code": "0x",
                "storage": {}
            },
            "0x318fd8e3a04e280e5f259ff61df488625c6e54c6": {
                "nonce": "0x00",
                "balance": "0x01312d00",
                "code": "0x7fffffffffffffffffffffffffffffffffffffffffffffffffffffffffffffffff600052602060006020600060046012fa60025560005160005500",
                "storage": {}
            }
        },
        "transaction": {
            "nonce": "0x00",
            "gasPrice": "0x0a",
            "gasLimit": [
                "0x0592a8"
            ],
            "to": "0x318fd8e3a04e280e5f259ff61df488625c6e54c6",
            "value": [
                "0x0186a0"
            ],
            "data": [
                "0x"
            ],
            "sender": "0xf0477f7f2d0fbb930f4806872089fd6959bd9aa9",
            "secretKey": "0x25d313b52916d5db85243c18318fd8e3a04e280e5f259ff61df488625c6e54c6"
        },
        "post": {
            "Cancun": [
                {
                    "hash": "0x0b302962e1be537300655ff836b9b49211cd283f1975d362a426f81ea7774a1c",
                    "logs": "0x1dcc4de8dec75d7aab85b567b6ccd41ad312451b948a7413f0a142fd40d49347",
                    "txbytes": "0xf863800a830592a894318fd8e3a04e280e5f259ff61df488625c6e54c6830186a08025a05b1fce60b6c6a69bb7940b6176775e845c5a624616d925e93d0a0719ad85c272a03aa6a257bbc58d4e72c0303b2dd046b8046b8e600fc240b234a3c43d6a39e21c",
                    "indexes": {
                        "data": 0,
                        "gas": 0,
                        "value": 0
                    },
                    "state": {
                        "0xf0477f7f2d0fbb930f4806872089fd6959bd9aa9": {
                            "nonce": "0x01",
                            "balance": "0x0de0b6b3a7588040",
                            "code": "0x",
                            "storage": {}
                        },
                        "0x318fd8e3a04e280e5f259ff61df488625c6e54c6": {
                            "nonce": "0x00",
                            "balance": "0x0132b3a0",
                            "code": "0x7fffffffffffffffffffffffffffffffffffffffffffffffffffffffffffffffff600052602060006020600060046012fa60025560005160005500",
                            "storage": {
                                "0x02": "0x01",
                                "0x00": "0xffffffffffffffffffffffffffffffffffffffffffffffffffffffffffffffff"
                            }
                        }
                    }
                }
            ]
        },
        "config": {
            "blobSchedule": {
                "Cancun": {
                    "target": "0x03",
                    "max": "0x06",
                    "baseFeeUpdateFraction": "0x32f0ed"
                }
            },
            "chainid": "0x01"
        },
        "_info": {
            "hash": "0x861d9c2f6d78d5d2cf8826f61bac81de7bbd2890d49960679f5c2b6e23dcdf12",
            "comment": "`execution-specs` generated test",
            "filling-transition-tool": "2.18.0rc6",
            "description": "No description available - add a docstring to the python test class or function.",
            "url": "",
            "fixture-format": "state_test"
        }
    },
    "tests/static/state_tests/stStaticCall/static_CallIdentity_4_gas18Filler.json::static_CallIdentity_4_gas18[fork_Osaka-state_test-]": {
        "env": {
            "currentCoinbase": "0x2adc25665018aa1fe0e6bc666dac8fc2697ff9ba",
            "currentGasLimit": "0x989680",
            "currentNumber": "0x01",
            "currentTimestamp": "0x03e8",
            "currentRandom": "0x0000000000000000000000000000000000000000000000000000000000020000",
            "currentDifficulty": "0x00",
            "currentBaseFee": "0x0a",
            "currentExcessBlobGas": "0x00"
        },
        "pre": {
            "0xf0477f7f2d0fbb930f4806872089fd6959bd9aa9": {
                "nonce": "0x00",
                "balance": "0x0de0b6b3a7640000",
                "code": "0x",
                "storage": {}
            },
            "0x318fd8e3a04e280e5f259ff61df488625c6e54c6": {
                "nonce": "0x00",
                "balance": "0x01312d00",
                "code": "0x7fffffffffffffffffffffffffffffffffffffffffffffffffffffffffffffffff600052602060006020600060046012fa60025560005160005500",
                "storage": {}
            }
        },
        "transaction": {
            "nonce": "0x00",
            "gasPrice": "0x0a",
            "gasLimit": [
                "0x0592a8"
            ],
            "to": "0x318fd8e3a04e280e5f259ff61df488625c6e54c6",
            "value": [
                "0x0186a0"
            ],
            "data": [
                "0x"
            ],
            "sender": "0xf0477f7f2d0fbb930f4806872089fd6959bd9aa9",
            "secretKey": "0x25d313b52916d5db85243c18318fd8e3a04e280e5f259ff61df488625c6e54c6"
        },
        "post": {
            "Osaka": [
                {
                    "hash": "0x0b302962e1be537300655ff836b9b49211cd283f1975d362a426f81ea7774a1c",
                    "logs": "0x1dcc4de8dec75d7aab85b567b6ccd41ad312451b948a7413f0a142fd40d49347",
                    "txbytes": "0xf863800a830592a894318fd8e3a04e280e5f259ff61df488625c6e54c6830186a08025a05b1fce60b6c6a69bb7940b6176775e845c5a624616d925e93d0a0719ad85c272a03aa6a257bbc58d4e72c0303b2dd046b8046b8e600fc240b234a3c43d6a39e21c",
                    "indexes": {
                        "data": 0,
                        "gas": 0,
                        "value": 0
                    },
                    "state": {
                        "0xf0477f7f2d0fbb930f4806872089fd6959bd9aa9": {
                            "nonce": "0x01",
                            "balance": "0x0de0b6b3a7588040",
                            "code": "0x",
                            "storage": {}
                        },
                        "0x318fd8e3a04e280e5f259ff61df488625c6e54c6": {
                            "nonce": "0x00",
                            "balance": "0x0132b3a0",
                            "code": "0x7fffffffffffffffffffffffffffffffffffffffffffffffffffffffffffffffff600052602060006020600060046012fa60025560005160005500",
                            "storage": {
                                "0x02": "0x01",
                                "0x00": "0xffffffffffffffffffffffffffffffffffffffffffffffffffffffffffffffff"
                            }
                        }
                    }
                }
            ]
        },
        "config": {
            "blobSchedule": {
                "Cancun": {
                    "target": "0x03",
                    "max": "0x06",
                    "baseFeeUpdateFraction": "0x32f0ed"
                },
                "Prague": {
                    "target": "0x06",
                    "max": "0x09",
                    "baseFeeUpdateFraction": "0x4c6964"
                },
                "Osaka": {
                    "target": "0x06",
                    "max": "0x09",
                    "baseFeeUpdateFraction": "0x4c6964"
                }
            },
            "chainid": "0x01"
        },
        "_info": {
            "hash": "0xd46374c40b8ef6c1c9bf4b20b12644d774ade8817d0e6a7bb2fb0a890417e025",
            "comment": "`execution-specs` generated test",
            "filling-transition-tool": "2.18.0rc6",
            "description": "No description available - add a docstring to the python test class or function.",
            "url": "",
            "fixture-format": "state_test"
        }
    },
    "tests/static/state_tests/stStaticCall/static_CallIdentity_4_gas18Filler.json::static_CallIdentity_4_gas18[fork_Prague-state_test-]": {
        "env": {
            "currentCoinbase": "0x2adc25665018aa1fe0e6bc666dac8fc2697ff9ba",
            "currentGasLimit": "0x989680",
            "currentNumber": "0x01",
            "currentTimestamp": "0x03e8",
            "currentRandom": "0x0000000000000000000000000000000000000000000000000000000000020000",
            "currentDifficulty": "0x00",
            "currentBaseFee": "0x0a",
            "currentExcessBlobGas": "0x00"
        },
        "pre": {
            "0xf0477f7f2d0fbb930f4806872089fd6959bd9aa9": {
                "nonce": "0x00",
                "balance": "0x0de0b6b3a7640000",
                "code": "0x",
                "storage": {}
            },
            "0x318fd8e3a04e280e5f259ff61df488625c6e54c6": {
                "nonce": "0x00",
                "balance": "0x01312d00",
                "code": "0x7fffffffffffffffffffffffffffffffffffffffffffffffffffffffffffffffff600052602060006020600060046012fa60025560005160005500",
                "storage": {}
            }
        },
        "transaction": {
            "nonce": "0x00",
            "gasPrice": "0x0a",
            "gasLimit": [
                "0x0592a8"
            ],
            "to": "0x318fd8e3a04e280e5f259ff61df488625c6e54c6",
            "value": [
                "0x0186a0"
            ],
            "data": [
                "0x"
            ],
            "sender": "0xf0477f7f2d0fbb930f4806872089fd6959bd9aa9",
            "secretKey": "0x25d313b52916d5db85243c18318fd8e3a04e280e5f259ff61df488625c6e54c6"
        },
        "post": {
            "Prague": [
                {
                    "hash": "0x0b302962e1be537300655ff836b9b49211cd283f1975d362a426f81ea7774a1c",
                    "logs": "0x1dcc4de8dec75d7aab85b567b6ccd41ad312451b948a7413f0a142fd40d49347",
                    "txbytes": "0xf863800a830592a894318fd8e3a04e280e5f259ff61df488625c6e54c6830186a08025a05b1fce60b6c6a69bb7940b6176775e845c5a624616d925e93d0a0719ad85c272a03aa6a257bbc58d4e72c0303b2dd046b8046b8e600fc240b234a3c43d6a39e21c",
                    "indexes": {
                        "data": 0,
                        "gas": 0,
                        "value": 0
                    },
                    "state": {
                        "0xf0477f7f2d0fbb930f4806872089fd6959bd9aa9": {
                            "nonce": "0x01",
                            "balance": "0x0de0b6b3a7588040",
                            "code": "0x",
                            "storage": {}
                        },
                        "0x318fd8e3a04e280e5f259ff61df488625c6e54c6": {
                            "nonce": "0x00",
                            "balance": "0x0132b3a0",
                            "code": "0x7fffffffffffffffffffffffffffffffffffffffffffffffffffffffffffffffff600052602060006020600060046012fa60025560005160005500",
                            "storage": {
                                "0x02": "0x01",
                                "0x00": "0xffffffffffffffffffffffffffffffffffffffffffffffffffffffffffffffff"
                            }
                        }
                    }
                }
            ]
        },
        "config": {
            "blobSchedule": {
                "Cancun": {
                    "target": "0x03",
                    "max": "0x06",
                    "baseFeeUpdateFraction": "0x32f0ed"
                },
                "Prague": {
                    "target": "0x06",
                    "max": "0x09",
                    "baseFeeUpdateFraction": "0x4c6964"
                }
            },
            "chainid": "0x01"
        },
        "_info": {
            "hash": "0xcb15c5a5e6a91df8381096ce6393d2cd890b39ecb72e8b989bbe11489fc666fd",
            "comment": "`execution-specs` generated test",
            "filling-transition-tool": "2.18.0rc6",
            "description": "No description available - add a docstring to the python test class or function.",
            "url": "",
            "fixture-format": "state_test"
        }
    }
}