{
    "tests/static/state_tests/stStaticCall/static_callcodecallcodecall_ABCB_RECURSIVEFiller.json::static_callcodecallcodecall_ABCB_RECURSIVE[fork_Cancun-state_test-]": {
        "env": {
            "currentCoinbase": "0x2adc25665018aa1fe0e6bc666dac8fc2697ff9ba",
            "currentGasLimit": "0xb2d05e00",
            "currentNumber": "0x01",
            "currentTimestamp": "0x03e8",
            "currentRandom": "0x0000000000000000000000000000000000000000000000000000000000020000",
            "currentDifficulty": "0x00",
            "currentBaseFee": "0x0a",
            "currentExcessBlobGas": "0x00"
        },
        "pre": {
            "0xace1c992c4cf62c9e2347b3ebaa0aadbfb4baf31": {
                "nonce": "0x00",
                "balance": "0x0de0b6b3a7640000",
                "code": "0x",
                "storage": {}
            },
            "0x75b949eb29cbf96df9dfd4d3f1756892c359cd78": {
                "nonce": "0x00",
                "balance": "0x0de0b6b3a7640000",
                "code": "0x60406000604060007375b949eb29cbf96df9dfd4d3f1756892c359ce7863017d7840f4600055600160015500",
                "storage": {}
            },
            "0x75b949eb29cbf96df9dfd4d3f1756892c359ce78": {
                "nonce": "0x00",
                "balance": "0x02540be400",
                "code": "0x60406000604060007375b949eb29cbf96df9dfd4d3f1756892c359cf78620f4240f400",
                "storage": {}
            },
            "0x75b949eb29cbf96df9dfd4d3f1756892c359cf78": {
                "nonce": "0x00",
                "balance": "0x02540be400",
                "code": "0x60406000604060007375b949eb29cbf96df9dfd4d3f1756892c359ce786207a120fa00",
                "storage": {}
            }
        },
        "transaction": {
            "nonce": "0x00",
            "gasPrice": "0x0a",
            "gasLimit": [
                "0x0927c0"
            ],
            "to": "0x75b949eb29cbf96df9dfd4d3f1756892c359cd78",
            "value": [
                "0x00"
            ],
            "data": [
                "0x"
            ],
            "sender": "0xace1c992c4cf62c9e2347b3ebaa0aadbfb4baf31",
            "secretKey": "0x097a0600dd16376e0d86243375b949eb29cbf96df9dfd4d3f1756892c359cd78"
        },
        "post": {
            "Cancun": [
                {
                    "hash": "0xc2744e71b1d9f212e5c3a7cfd0025ed30b01ca5e400ca7d502dab1acf24a862f",
                    "logs": "0x1dcc4de8dec75d7aab85b567b6ccd41ad312451b948a7413f0a142fd40d49347",
                    "txbytes": "0xf860800a830927c09475b949eb29cbf96df9dfd4d3f1756892c359cd78808025a0b839b165f7247c6d28ce9917dadc64c5503c87b24f9972ef7beb2b6f20556f2aa018a508726f8c29d5daad0791624797f42ac3aee6da8ecb057bdc6eba6302e724",
                    "indexes": {
                        "data": 0,
                        "gas": 0,
                        "value": 0
                    },
                    "state": {
                        "0xace1c992c4cf62c9e2347b3ebaa0aadbfb4baf31": {
                            "nonce": "0x01",
                            "balance": "0x0de0b6b3a75435bc",
                            "code": "0x",
                            "storage": {}
                        },
                        "0x75b949eb29cbf96df9dfd4d3f1756892c359cd78": {
                            "nonce": "0x00",
                            "balance": "0x0de0b6b3a7640000",
                            "code": "0x60406000604060007375b949eb29cbf96df9dfd4d3f1756892c359ce7863017d7840f4600055600160015500",
                            "storage": {
                                "0x00": "0x01",
                                "0x01": "0x01"
                            }
                        },
                        "0x75b949eb29cbf96df9dfd4d3f1756892c359ce78": {
                            "nonce": "0x00",
                            "balance": "0x02540be400",
                            "code": "0x60406000604060007375b949eb29cbf96df9dfd4d3f1756892c359cf78620f4240f400",
                            "storage": {}
                        },
                        "0x75b949eb29cbf96df9dfd4d3f1756892c359cf78": {
                            "nonce": "0x00",
                            "balance": "0x02540be400",
                            "code": "0x60406000604060007375b949eb29cbf96df9dfd4d3f1756892c359ce786207a120fa00",
                            "storage": {}
                        }
                    }
                }
            ]
        },
        "config": {
            "blobSchedule": {
                "Cancun": {
                    "target": "0x03",
                    "max": "0x06",
                    "baseFeeUpdateFraction": "0x32f0ed"
                }
            },
            "chainid": "0x01"
        },
        "_info": {
            "hash": "0x5600a88acd925afbd2d9dd00e0107adc88d3e038eea66f2ad7bd481240111a5e",
            "comment": "`execution-spec-tests` generated test",
            "filling-transition-tool": "ethereum-spec-evm-resolver 0.0.5",
            "description": "No description available - add a docstring to the python test class or function.",
            "url": "",
            "fixture-format": "state_test",
            "eels-resolution": {
                "git-url": "https://github.com/marioevz/execution-specs.git",
                "branch": "forks/bpo1",
                "commit": "3387e5f4aedfe99becfdc39b444d6371e25e0924"
            }
        }
    },
    "tests/static/state_tests/stStaticCall/static_callcodecallcodecall_ABCB_RECURSIVEFiller.json::static_callcodecallcodecall_ABCB_RECURSIVE[fork_Osaka-state_test-]": {
        "env": {
            "currentCoinbase": "0x2adc25665018aa1fe0e6bc666dac8fc2697ff9ba",
            "currentGasLimit": "0xb2d05e00",
            "currentNumber": "0x01",
            "currentTimestamp": "0x03e8",
            "currentRandom": "0x0000000000000000000000000000000000000000000000000000000000020000",
            "currentDifficulty": "0x00",
            "currentBaseFee": "0x0a",
            "currentExcessBlobGas": "0x00"
        },
        "pre": {
            "0xace1c992c4cf62c9e2347b3ebaa0aadbfb4baf31": {
                "nonce": "0x00",
                "balance": "0x0de0b6b3a7640000",
                "code": "0x",
                "storage": {}
            },
            "0x75b949eb29cbf96df9dfd4d3f1756892c359cd78": {
                "nonce": "0x00",
                "balance": "0x0de0b6b3a7640000",
                "code": "0x60406000604060007375b949eb29cbf96df9dfd4d3f1756892c359ce7863017d7840f4600055600160015500",
                "storage": {}
            },
            "0x75b949eb29cbf96df9dfd4d3f1756892c359ce78": {
                "nonce": "0x00",
                "balance": "0x02540be400",
                "code": "0x60406000604060007375b949eb29cbf96df9dfd4d3f1756892c359cf78620f4240f400",
                "storage": {}
            },
            "0x75b949eb29cbf96df9dfd4d3f1756892c359cf78": {
                "nonce": "0x00",
                "balance": "0x02540be400",
                "code": "0x60406000604060007375b949eb29cbf96df9dfd4d3f1756892c359ce786207a120fa00",
                "storage": {}
            }
        },
        "transaction": {
            "nonce": "0x00",
            "gasPrice": "0x0a",
            "gasLimit": [
                "0x0927c0"
            ],
            "to": "0x75b949eb29cbf96df9dfd4d3f1756892c359cd78",
            "value": [
                "0x00"
            ],
            "data": [
                "0x"
            ],
            "sender": "0xace1c992c4cf62c9e2347b3ebaa0aadbfb4baf31",
            "secretKey": "0x097a0600dd16376e0d86243375b949eb29cbf96df9dfd4d3f1756892c359cd78"
        },
        "post": {
            "Osaka": [
                {
                    "hash": "0xc2744e71b1d9f212e5c3a7cfd0025ed30b01ca5e400ca7d502dab1acf24a862f",
                    "logs": "0x1dcc4de8dec75d7aab85b567b6ccd41ad312451b948a7413f0a142fd40d49347",
                    "txbytes": "0xf860800a830927c09475b949eb29cbf96df9dfd4d3f1756892c359cd78808025a0b839b165f7247c6d28ce9917dadc64c5503c87b24f9972ef7beb2b6f20556f2aa018a508726f8c29d5daad0791624797f42ac3aee6da8ecb057bdc6eba6302e724",
                    "indexes": {
                        "data": 0,
                        "gas": 0,
                        "value": 0
                    },
                    "state": {
                        "0xace1c992c4cf62c9e2347b3ebaa0aadbfb4baf31": {
                            "nonce": "0x01",
                            "balance": "0x0de0b6b3a75435bc",
                            "code": "0x",
                            "storage": {}
                        },
                        "0x75b949eb29cbf96df9dfd4d3f1756892c359cd78": {
                            "nonce": "0x00",
                            "balance": "0x0de0b6b3a7640000",
                            "code": "0x60406000604060007375b949eb29cbf96df9dfd4d3f1756892c359ce7863017d7840f4600055600160015500",
                            "storage": {
                                "0x00": "0x01",
                                "0x01": "0x01"
                            }
                        },
                        "0x75b949eb29cbf96df9dfd4d3f1756892c359ce78": {
                            "nonce": "0x00",
                            "balance": "0x02540be400",
                            "code": "0x60406000604060007375b949eb29cbf96df9dfd4d3f1756892c359cf78620f4240f400",
                            "storage": {}
                        },
                        "0x75b949eb29cbf96df9dfd4d3f1756892c359cf78": {
                            "nonce": "0x00",
                            "balance": "0x02540be400",
                            "code": "0x60406000604060007375b949eb29cbf96df9dfd4d3f1756892c359ce786207a120fa00",
                            "storage": {}
                        }
                    }
                }
            ]
        },
        "config": {
            "blobSchedule": {
                "Cancun": {
                    "target": "0x03",
                    "max": "0x06",
                    "baseFeeUpdateFraction": "0x32f0ed"
                },
                "Prague": {
                    "target": "0x06",
                    "max": "0x09",
                    "baseFeeUpdateFraction": "0x4c6964"
                },
                "Osaka": {
                    "target": "0x06",
                    "max": "0x09",
                    "baseFeeUpdateFraction": "0x4c6964"
                }
            },
            "chainid": "0x01"
        },
        "_info": {
            "hash": "0x0d2a07c26845e374c6b59a1ce21d2c09e04f6d44045b224bbbfecd5ebd36552f",
            "comment": "`execution-spec-tests` generated test",
            "filling-transition-tool": "ethereum-spec-evm-resolver 0.0.5",
            "description": "No description available - add a docstring to the python test class or function.",
            "url": "",
            "fixture-format": "state_test",
            "eels-resolution": {
                "git-url": "https://github.com/marioevz/execution-specs.git",
                "branch": "forks/bpo1",
                "commit": "3387e5f4aedfe99becfdc39b444d6371e25e0924"
            }
        }
    },
    "tests/static/state_tests/stStaticCall/static_callcodecallcodecall_ABCB_RECURSIVEFiller.json::static_callcodecallcodecall_ABCB_RECURSIVE[fork_Prague-state_test-]": {
        "env": {
            "currentCoinbase": "0x2adc25665018aa1fe0e6bc666dac8fc2697ff9ba",
            "currentGasLimit": "0xb2d05e00",
            "currentNumber": "0x01",
            "currentTimestamp": "0x03e8",
            "currentRandom": "0x0000000000000000000000000000000000000000000000000000000000020000",
            "currentDifficulty": "0x00",
            "currentBaseFee": "0x0a",
            "currentExcessBlobGas": "0x00"
        },
        "pre": {
            "0xace1c992c4cf62c9e2347b3ebaa0aadbfb4baf31": {
                "nonce": "0x00",
                "balance": "0x0de0b6b3a7640000",
                "code": "0x",
                "storage": {}
            },
            "0x75b949eb29cbf96df9dfd4d3f1756892c359cd78": {
                "nonce": "0x00",
                "balance": "0x0de0b6b3a7640000",
                "code": "0x60406000604060007375b949eb29cbf96df9dfd4d3f1756892c359ce7863017d7840f4600055600160015500",
                "storage": {}
            },
            "0x75b949eb29cbf96df9dfd4d3f1756892c359ce78": {
                "nonce": "0x00",
                "balance": "0x02540be400",
                "code": "0x60406000604060007375b949eb29cbf96df9dfd4d3f1756892c359cf78620f4240f400",
                "storage": {}
            },
            "0x75b949eb29cbf96df9dfd4d3f1756892c359cf78": {
                "nonce": "0x00",
                "balance": "0x02540be400",
                "code": "0x60406000604060007375b949eb29cbf96df9dfd4d3f1756892c359ce786207a120fa00",
                "storage": {}
            }
        },
        "transaction": {
            "nonce": "0x00",
            "gasPrice": "0x0a",
            "gasLimit": [
                "0x0927c0"
            ],
            "to": "0x75b949eb29cbf96df9dfd4d3f1756892c359cd78",
            "value": [
                "0x00"
            ],
            "data": [
                "0x"
            ],
            "sender": "0xace1c992c4cf62c9e2347b3ebaa0aadbfb4baf31",
            "secretKey": "0x097a0600dd16376e0d86243375b949eb29cbf96df9dfd4d3f1756892c359cd78"
        },
        "post": {
            "Prague": [
                {
                    "hash": "0xc2744e71b1d9f212e5c3a7cfd0025ed30b01ca5e400ca7d502dab1acf24a862f",
                    "logs": "0x1dcc4de8dec75d7aab85b567b6ccd41ad312451b948a7413f0a142fd40d49347",
                    "txbytes": "0xf860800a830927c09475b949eb29cbf96df9dfd4d3f1756892c359cd78808025a0b839b165f7247c6d28ce9917dadc64c5503c87b24f9972ef7beb2b6f20556f2aa018a508726f8c29d5daad0791624797f42ac3aee6da8ecb057bdc6eba6302e724",
                    "indexes": {
                        "data": 0,
                        "gas": 0,
                        "value": 0
                    },
                    "state": {
                        "0xace1c992c4cf62c9e2347b3ebaa0aadbfb4baf31": {
                            "nonce": "0x01",
                            "balance": "0x0de0b6b3a75435bc",
                            "code": "0x",
                            "storage": {}
                        },
                        "0x75b949eb29cbf96df9dfd4d3f1756892c359cd78": {
                            "nonce": "0x00",
                            "balance": "0x0de0b6b3a7640000",
                            "code": "0x60406000604060007375b949eb29cbf96df9dfd4d3f1756892c359ce7863017d7840f4600055600160015500",
                            "storage": {
                                "0x00": "0x01",
                                "0x01": "0x01"
                            }
                        },
                        "0x75b949eb29cbf96df9dfd4d3f1756892c359ce78": {
                            "nonce": "0x00",
                            "balance": "0x02540be400",
                            "code": "0x60406000604060007375b949eb29cbf96df9dfd4d3f1756892c359cf78620f4240f400",
                            "storage": {}
                        },
                        "0x75b949eb29cbf96df9dfd4d3f1756892c359cf78": {
                            "nonce": "0x00",
                            "balance": "0x02540be400",
                            "code": "0x60406000604060007375b949eb29cbf96df9dfd4d3f1756892c359ce786207a120fa00",
                            "storage": {}
                        }
                    }
                }
            ]
        },
        "config": {
            "blobSchedule": {
                "Cancun": {
                    "target": "0x03",
                    "max": "0x06",
                    "baseFeeUpdateFraction": "0x32f0ed"
                },
                "Prague": {
                    "target": "0x06",
                    "max": "0x09",
                    "baseFeeUpdateFraction": "0x4c6964"
                }
            },
            "chainid": "0x01"
        },
        "_info": {
            "hash": "0xeb780cd494fc036dc8d3ca9880b33a3092d03efa6147219ee137a779a9b89424",
            "comment": "`execution-spec-tests` generated test",
            "filling-transition-tool": "ethereum-spec-evm-resolver 0.0.5",
            "description": "No description available - add a docstring to the python test class or function.",
            "url": "",
            "fixture-format": "state_test",
            "eels-resolution": {
                "git-url": "https://github.com/marioevz/execution-specs.git",
                "branch": "forks/bpo1",
                "commit": "3387e5f4aedfe99becfdc39b444d6371e25e0924"
            }
        }
    }
}