{
    "tests/static/state_tests/stStaticCall/static_callcodecallcall_100Filler.json::static_callcodecallcall_100[fork_Cancun-state_test-]": {
        "env": {
            "currentCoinbase": "0x2adc25665018aa1fe0e6bc666dac8fc2697ff9ba",
            "currentGasLimit": "0x01c9c380",
            "currentNumber": "0x01",
            "currentTimestamp": "0x03e8",
            "currentRandom": "0x0000000000000000000000000000000000000000000000000000000000020000",
            "currentDifficulty": "0x00",
            "currentBaseFee": "0x0a",
            "currentExcessBlobGas": "0x00"
        },
        "pre": {
            "0x5970ce6237da338f1ec3649cada236e1b8971da0": {
                "nonce": "0x00",
                "balance": "0x0de0b6b3a7640000",
                "code": "0x",
                "storage": {}
            },
            "0x8df74fd2e238848262ddb5ef5905905ff6055d0f": {
                "nonce": "0x00",
                "balance": "0x00",
                "code": "0x600160015200",
                "storage": {}
            },
            "0x8df74fd2e238848262ddb5ef5905905ff6055e0f": {
                "nonce": "0x00",
                "balance": "0x0de0b6b3a7640000",
                "code": "0x6040600060406000738df74fd2e238848262ddb5ef5905905ff6055d0f6203d090fa00",
                "storage": {}
            },
            "0x8df74fd2e238848262ddb5ef5905905ff6055f0f": {
                "nonce": "0x00",
                "balance": "0x0de0b6b3a7640000",
                "code": "0x6040600060406000738df74fd2e238848262ddb5ef5905905ff6055e0f620493e0fa503360055200",
                "storage": {}
            },
            "0x8df74fd2e238848262ddb5ef5905905ff605600f": {
                "nonce": "0x00",
                "balance": "0x0de0b6b3a7640000",
                "code": "0x6040600060406000738df74fd2e238848262ddb5ef5905905ff6055f0f62055730f4600055600160015500",
                "storage": {}
            }
        },
        "transaction": {
            "nonce": "0x00",
            "gasPrice": "0x0a",
            "gasLimit": [
                "0x2dc6c0"
            ],
            "to": "0x8df74fd2e238848262ddb5ef5905905ff605600f",
            "value": [
                "0x00"
            ],
            "data": [
                "0x"
            ],
            "sender": "0x5970ce6237da338f1ec3649cada236e1b8971da0",
            "secretKey": "0x557cfa27f97fe99707d7799b8df74fd2e238848262ddb5ef5905905ff6055d0f"
        },
        "post": {
            "Cancun": [
                {
                    "hash": "0xd3d9a17e9cb94695f17815e7d7daaa0d9080c78636171be2c2e672e049d4d323",
                    "logs": "0x1dcc4de8dec75d7aab85b567b6ccd41ad312451b948a7413f0a142fd40d49347",
                    "txbytes": "0xf860800a832dc6c0948df74fd2e238848262ddb5ef5905905ff605600f808025a0cbe5d6aed5a23411ef578c83b833b7eb640130166bc322e013198d32bc89550da0619a1a772155fdf78d3626fa467716d0755604957f16766d5d7122e391ab2b31",
                    "indexes": {
                        "data": 0,
                        "gas": 0,
                        "value": 0
                    },
                    "state": {
                        "0x5970ce6237da338f1ec3649cada236e1b8971da0": {
                            "nonce": "0x01",
                            "balance": "0x0de0b6b3a758d84c",
                            "code": "0x",
                            "storage": {}
                        },
                        "0x8df74fd2e238848262ddb5ef5905905ff6055d0f": {
                            "nonce": "0x00",
                            "balance": "0x00",
                            "code": "0x600160015200",
                            "storage": {}
                        },
                        "0x8df74fd2e238848262ddb5ef5905905ff6055e0f": {
                            "nonce": "0x00",
                            "balance": "0x0de0b6b3a7640000",
                            "code": "0x6040600060406000738df74fd2e238848262ddb5ef5905905ff6055d0f6203d090fa00",
                            "storage": {}
                        },
                        "0x8df74fd2e238848262ddb5ef5905905ff6055f0f": {
                            "nonce": "0x00",
                            "balance": "0x0de0b6b3a7640000",
                            "code": "0x6040600060406000738df74fd2e238848262ddb5ef5905905ff6055e0f620493e0fa503360055200",
                            "storage": {}
                        },
                        "0x8df74fd2e238848262ddb5ef5905905ff605600f": {
                            "nonce": "0x00",
                            "balance": "0x0de0b6b3a7640000",
                            "code": "0x6040600060406000738df74fd2e238848262ddb5ef5905905ff6055f0f62055730f4600055600160015500",
                            "storage": {
                                "0x00": "0x01",
                                "0x01": "0x01"
                            }
                        }
                    }
                }
            ]
        },
        "config": {
            "blobSchedule": {
                "Cancun": {
                    "target": "0x03",
                    "max": "0x06",
                    "baseFeeUpdateFraction": "0x32f0ed"
                }
            },
            "chainid": "0x01"
        },
        "_info": {
            "hash": "0x42c7af48cb61687f591517dfd5f280b700cfcbf08552085e2d3776530c64fab2",
            "comment": "`execution-spec-tests` generated test",
            "filling-transition-tool": "ethereum-spec-evm-resolver 0.0.5",
            "description": "No description available - add a docstring to the python test class or function.",
            "url": "",
            "fixture-format": "state_test",
            "eels-resolution": {
                "git-url": "https://github.com/marioevz/execution-specs.git",
                "branch": "forks/bpo1",
                "commit": "3387e5f4aedfe99becfdc39b444d6371e25e0924"
            }
        }
    },
    "tests/static/state_tests/stStaticCall/static_callcodecallcall_100Filler.json::static_callcodecallcall_100[fork_Osaka-state_test-]": {
        "env": {
            "currentCoinbase": "0x2adc25665018aa1fe0e6bc666dac8fc2697ff9ba",
            "currentGasLimit": "0x01c9c380",
            "currentNumber": "0x01",
            "currentTimestamp": "0x03e8",
            "currentRandom": "0x0000000000000000000000000000000000000000000000000000000000020000",
            "currentDifficulty": "0x00",
            "currentBaseFee": "0x0a",
            "currentExcessBlobGas": "0x00"
        },
        "pre": {
            "0x5970ce6237da338f1ec3649cada236e1b8971da0": {
                "nonce": "0x00",
                "balance": "0x0de0b6b3a7640000",
                "code": "0x",
                "storage": {}
            },
            "0x8df74fd2e238848262ddb5ef5905905ff6055d0f": {
                "nonce": "0x00",
                "balance": "0x00",
                "code": "0x600160015200",
                "storage": {}
            },
            "0x8df74fd2e238848262ddb5ef5905905ff6055e0f": {
                "nonce": "0x00",
                "balance": "0x0de0b6b3a7640000",
                "code": "0x6040600060406000738df74fd2e238848262ddb5ef5905905ff6055d0f6203d090fa00",
                "storage": {}
            },
            "0x8df74fd2e238848262ddb5ef5905905ff6055f0f": {
                "nonce": "0x00",
                "balance": "0x0de0b6b3a7640000",
                "code": "0x6040600060406000738df74fd2e238848262ddb5ef5905905ff6055e0f620493e0fa503360055200",
                "storage": {}
            },
            "0x8df74fd2e238848262ddb5ef5905905ff605600f": {
                "nonce": "0x00",
                "balance": "0x0de0b6b3a7640000",
                "code": "0x6040600060406000738df74fd2e238848262ddb5ef5905905ff6055f0f62055730f4600055600160015500",
                "storage": {}
            }
        },
        "transaction": {
            "nonce": "0x00",
            "gasPrice": "0x0a",
            "gasLimit": [
                "0x2dc6c0"
            ],
            "to": "0x8df74fd2e238848262ddb5ef5905905ff605600f",
            "value": [
                "0x00"
            ],
            "data": [
                "0x"
            ],
            "sender": "0x5970ce6237da338f1ec3649cada236e1b8971da0",
            "secretKey": "0x557cfa27f97fe99707d7799b8df74fd2e238848262ddb5ef5905905ff6055d0f"
        },
        "post": {
            "Osaka": [
                {
                    "hash": "0xd3d9a17e9cb94695f17815e7d7daaa0d9080c78636171be2c2e672e049d4d323",
                    "logs": "0x1dcc4de8dec75d7aab85b567b6ccd41ad312451b948a7413f0a142fd40d49347",
                    "txbytes": "0xf860800a832dc6c0948df74fd2e238848262ddb5ef5905905ff605600f808025a0cbe5d6aed5a23411ef578c83b833b7eb640130166bc322e013198d32bc89550da0619a1a772155fdf78d3626fa467716d0755604957f16766d5d7122e391ab2b31",
                    "indexes": {
                        "data": 0,
                        "gas": 0,
                        "value": 0
                    },
                    "state": {
                        "0x5970ce6237da338f1ec3649cada236e1b8971da0": {
                            "nonce": "0x01",
                            "balance": "0x0de0b6b3a758d84c",
                            "code": "0x",
                            "storage": {}
                        },
                        "0x8df74fd2e238848262ddb5ef5905905ff6055d0f": {
                            "nonce": "0x00",
                            "balance": "0x00",
                            "code": "0x600160015200",
                            "storage": {}
                        },
                        "0x8df74fd2e238848262ddb5ef5905905ff6055e0f": {
                            "nonce": "0x00",
                            "balance": "0x0de0b6b3a7640000",
                            "code": "0x6040600060406000738df74fd2e238848262ddb5ef5905905ff6055d0f6203d090fa00",
                            "storage": {}
                        },
                        "0x8df74fd2e238848262ddb5ef5905905ff6055f0f": {
                            "nonce": "0x00",
                            "balance": "0x0de0b6b3a7640000",
                            "code": "0x6040600060406000738df74fd2e238848262ddb5ef5905905ff6055e0f620493e0fa503360055200",
                            "storage": {}
                        },
                        "0x8df74fd2e238848262ddb5ef5905905ff605600f": {
                            "nonce": "0x00",
                            "balance": "0x0de0b6b3a7640000",
                            "code": "0x6040600060406000738df74fd2e238848262ddb5ef5905905ff6055f0f62055730f4600055600160015500",
                            "storage": {
                                "0x00": "0x01",
                                "0x01": "0x01"
                            }
                        }
                    }
                }
            ]
        },
        "config": {
            "blobSchedule": {
                "Cancun": {
                    "target": "0x03",
                    "max": "0x06",
                    "baseFeeUpdateFraction": "0x32f0ed"
                },
                "Prague": {
                    "target": "0x06",
                    "max": "0x09",
                    "baseFeeUpdateFraction": "0x4c6964"
                },
                "Osaka": {
                    "target": "0x06",
                    "max": "0x09",
                    "baseFeeUpdateFraction": "0x4c6964"
                }
            },
            "chainid": "0x01"
        },
        "_info": {
            "hash": "0xa27c8eaa0e97fd0e2f2ceb629d5e7381c55113e5b4f3fedccc05c8815c53d487",
            "comment": "`execution-spec-tests` generated test",
            "filling-transition-tool": "ethereum-spec-evm-resolver 0.0.5",
            "description": "No description available - add a docstring to the python test class or function.",
            "url": "",
            "fixture-format": "state_test",
            "eels-resolution": {
                "git-url": "https://github.com/marioevz/execution-specs.git",
                "branch": "forks/bpo1",
                "commit": "3387e5f4aedfe99becfdc39b444d6371e25e0924"
            }
        }
    },
    "tests/static/state_tests/stStaticCall/static_callcodecallcall_100Filler.json::static_callcodecallcall_100[fork_Prague-state_test-]": {
        "env": {
            "currentCoinbase": "0x2adc25665018aa1fe0e6bc666dac8fc2697ff9ba",
            "currentGasLimit": "0x01c9c380",
            "currentNumber": "0x01",
            "currentTimestamp": "0x03e8",
            "currentRandom": "0x0000000000000000000000000000000000000000000000000000000000020000",
            "currentDifficulty": "0x00",
            "currentBaseFee": "0x0a",
            "currentExcessBlobGas": "0x00"
        },
        "pre": {
            "0x5970ce6237da338f1ec3649cada236e1b8971da0": {
                "nonce": "0x00",
                "balance": "0x0de0b6b3a7640000",
                "code": "0x",
                "storage": {}
            },
            "0x8df74fd2e238848262ddb5ef5905905ff6055d0f": {
                "nonce": "0x00",
                "balance": "0x00",
                "code": "0x600160015200",
                "storage": {}
            },
            "0x8df74fd2e238848262ddb5ef5905905ff6055e0f": {
                "nonce": "0x00",
                "balance": "0x0de0b6b3a7640000",
                "code": "0x6040600060406000738df74fd2e238848262ddb5ef5905905ff6055d0f6203d090fa00",
                "storage": {}
            },
            "0x8df74fd2e238848262ddb5ef5905905ff6055f0f": {
                "nonce": "0x00",
                "balance": "0x0de0b6b3a7640000",
                "code": "0x6040600060406000738df74fd2e238848262ddb5ef5905905ff6055e0f620493e0fa503360055200",
                "storage": {}
            },
            "0x8df74fd2e238848262ddb5ef5905905ff605600f": {
                "nonce": "0x00",
                "balance": "0x0de0b6b3a7640000",
                "code": "0x6040600060406000738df74fd2e238848262ddb5ef5905905ff6055f0f62055730f4600055600160015500",
                "storage": {}
            }
        },
        "transaction": {
            "nonce": "0x00",
            "gasPrice": "0x0a",
            "gasLimit": [
                "0x2dc6c0"
            ],
            "to": "0x8df74fd2e238848262ddb5ef5905905ff605600f",
            "value": [
                "0x00"
            ],
            "data": [
                "0x"
            ],
            "sender": "0x5970ce6237da338f1ec3649cada236e1b8971da0",
            "secretKey": "0x557cfa27f97fe99707d7799b8df74fd2e238848262ddb5ef5905905ff6055d0f"
        },
        "post": {
            "Prague": [
                {
                    "hash": "0xd3d9a17e9cb94695f17815e7d7daaa0d9080c78636171be2c2e672e049d4d323",
                    "logs": "0x1dcc4de8dec75d7aab85b567b6ccd41ad312451b948a7413f0a142fd40d49347",
                    "txbytes": "0xf860800a832dc6c0948df74fd2e238848262ddb5ef5905905ff605600f808025a0cbe5d6aed5a23411ef578c83b833b7eb640130166bc322e013198d32bc89550da0619a1a772155fdf78d3626fa467716d0755604957f16766d5d7122e391ab2b31",
                    "indexes": {
                        "data": 0,
                        "gas": 0,
                        "value": 0
                    },
                    "state": {
                        "0x5970ce6237da338f1ec3649cada236e1b8971da0": {
                            "nonce": "0x01",
                            "balance": "0x0de0b6b3a758d84c",
                            "code": "0x",
                            "storage": {}
                        },
                        "0x8df74fd2e238848262ddb5ef5905905ff6055d0f": {
                            "nonce": "0x00",
                            "balance": "0x00",
                            "code": "0x600160015200",
                            "storage": {}
                        },
                        "0x8df74fd2e238848262ddb5ef5905905ff6055e0f": {
                            "nonce": "0x00",
                            "balance": "0x0de0b6b3a7640000",
                            "code": "0x6040600060406000738df74fd2e238848262ddb5ef5905905ff6055d0f6203d090fa00",
                            "storage": {}
                        },
                        "0x8df74fd2e238848262ddb5ef5905905ff6055f0f": {
                            "nonce": "0x00",
                            "balance": "0x0de0b6b3a7640000",
                            "code": "0x6040600060406000738df74fd2e238848262ddb5ef5905905ff6055e0f620493e0fa503360055200",
                            "storage": {}
                        },
                        "0x8df74fd2e238848262ddb5ef5905905ff605600f": {
                            "nonce": "0x00",
                            "balance": "0x0de0b6b3a7640000",
                            "code": "0x6040600060406000738df74fd2e238848262ddb5ef5905905ff6055f0f62055730f4600055600160015500",
                            "storage": {
                                "0x00": "0x01",
                                "0x01": "0x01"
                            }
                        }
                    }
                }
            ]
        },
        "config": {
            "blobSchedule": {
                "Cancun": {
                    "target": "0x03",
                    "max": "0x06",
                    "baseFeeUpdateFraction": "0x32f0ed"
                },
                "Prague": {
                    "target": "0x06",
                    "max": "0x09",
                    "baseFeeUpdateFraction": "0x4c6964"
                }
            },
            "chainid": "0x01"
        },
        "_info": {
            "hash": "0x1df80e478b7e0a1b57f04778d9ccff63f67622df679ca5ec2a46bf4154a4eef6",
            "comment": "`execution-spec-tests` generated test",
            "filling-transition-tool": "ethereum-spec-evm-resolver 0.0.5",
            "description": "No description available - add a docstring to the python test class or function.",
            "url": "",
            "fixture-format": "state_test",
            "eels-resolution": {
                "git-url": "https://github.com/marioevz/execution-specs.git",
                "branch": "forks/bpo1",
                "commit": "3387e5f4aedfe99becfdc39b444d6371e25e0924"
            }
        }
    }
}