{
    "tests/static/state_tests/stStaticCall/static_CallSha256_2Filler.json::static_CallSha256_2[fork_Cancun-state_test-]": {
        "env": {
            "currentCoinbase": "0x2adc25665018aa1fe0e6bc666dac8fc2697ff9ba",
            "currentGasLimit": "0x989680",
            "currentNumber": "0x01",
            "currentTimestamp": "0x03e8",
            "currentRandom": "0x0000000000000000000000000000000000000000000000000000000000020000",
            "currentDifficulty": "0x00",
            "currentBaseFee": "0x0a",
            "currentExcessBlobGas": "0x00"
        },
        "pre": {
            "0x818ac32b2312ab9392c439261d805ad619321d6e": {
                "nonce": "0x00",
                "balance": "0x0de0b6b3a7640000",
                "code": "0x",
                "storage": {}
            },
            "0x93d3e05c24f7aa385dbe0812aa6ce4f4b9fbbccd": {
                "nonce": "0x00",
                "balance": "0x01312d00",
                "code": "0x64f34578907f600552602060006025600060026101f4fa60025560005160005500",
                "storage": {}
            }
        },
        "transaction": {
            "nonce": "0x00",
            "gasPrice": "0x0a",
            "gasLimit": [
                "0x0592a8"
            ],
            "to": "0x93d3e05c24f7aa385dbe0812aa6ce4f4b9fbbccd",
            "value": [
                "0x0186a0"
            ],
            "data": [
                "0x"
            ],
            "sender": "0x818ac32b2312ab9392c439261d805ad619321d6e",
            "secretKey": "0x60b0cd1cef7d1ff1f96d9f8093d3e05c24f7aa385dbe0812aa6ce4f4b9fbbccd"
        },
        "post": {
            "Cancun": [
                {
                    "hash": "0x575038355879240936657e853471d31439dc72c9d45202eec7ea2312a79e7d20",
                    "logs": "0x1dcc4de8dec75d7aab85b567b6ccd41ad312451b948a7413f0a142fd40d49347",
                    "txbytes": "0xf863800a830592a89493d3e05c24f7aa385dbe0812aa6ce4f4b9fbbccd830186a08026a0ab5dfb02a3decceb827c511c8d6f2f7740418bb74ab64142ce892cd0397f70aaa00990f900672cf8d5338ec00aa66ed9b9c9672603f9a47da2c497cb98607ec07a",
                    "indexes": {
                        "data": 0,
                        "gas": 0,
                        "value": 0
                    },
                    "state": {
                        "0x818ac32b2312ab9392c439261d805ad619321d6e": {
                            "nonce": "0x01",
                            "balance": "0x0de0b6b3a7587d8e",
                            "code": "0x",
                            "storage": {}
                        },
                        "0x93d3e05c24f7aa385dbe0812aa6ce4f4b9fbbccd": {
                            "nonce": "0x00",
                            "balance": "0x0132b3a0",
                            "code": "0x64f34578907f600552602060006025600060026101f4fa60025560005160005500",
                            "storage": {
                                "0x02": "0x01",
                                "0x00": "0xcb39b3bde22925b2f931111130c774761d8895e0e08437c9b396c1e97d10f34d"
                            }
                        }
                    }
                }
            ]
        },
        "config": {
            "blobSchedule": {
                "Cancun": {
                    "target": "0x03",
                    "max": "0x06",
                    "baseFeeUpdateFraction": "0x32f0ed"
                }
            },
            "chainid": "0x01"
        },
        "_info": {
            "hash": "0x83ec1a8334d2915974a1eedf862910be90a8abc4cea55bf0187dc9211a69d11c",
            "comment": "`execution-spec-tests` generated test",
            "filling-transition-tool": "ethereum-spec-evm-resolver 0.0.5",
            "description": "No description available - add a docstring to the python test class or function.",
            "url": "",
            "fixture-format": "state_test",
            "eels-resolution": {
                "git-url": "https://github.com/ethereum/execution-specs.git",
                "branch": "forks/bpos",
                "commit": "7aacb2c54111391af5e98c505d5010b5698a770f"
            }
        }
    },
    "tests/static/state_tests/stStaticCall/static_CallSha256_2Filler.json::static_CallSha256_2[fork_Osaka-state_test-]": {
        "env": {
            "currentCoinbase": "0x2adc25665018aa1fe0e6bc666dac8fc2697ff9ba",
            "currentGasLimit": "0x989680",
            "currentNumber": "0x01",
            "currentTimestamp": "0x03e8",
            "currentRandom": "0x0000000000000000000000000000000000000000000000000000000000020000",
            "currentDifficulty": "0x00",
            "currentBaseFee": "0x0a",
            "currentExcessBlobGas": "0x00"
        },
        "pre": {
            "0x818ac32b2312ab9392c439261d805ad619321d6e": {
                "nonce": "0x00",
                "balance": "0x0de0b6b3a7640000",
                "code": "0x",
                "storage": {}
            },
            "0x93d3e05c24f7aa385dbe0812aa6ce4f4b9fbbccd": {
                "nonce": "0x00",
                "balance": "0x01312d00",
                "code": "0x64f34578907f600552602060006025600060026101f4fa60025560005160005500",
                "storage": {}
            }
        },
        "transaction": {
            "nonce": "0x00",
            "gasPrice": "0x0a",
            "gasLimit": [
                "0x0592a8"
            ],
            "to": "0x93d3e05c24f7aa385dbe0812aa6ce4f4b9fbbccd",
            "value": [
                "0x0186a0"
            ],
            "data": [
                "0x"
            ],
            "sender": "0x818ac32b2312ab9392c439261d805ad619321d6e",
            "secretKey": "0x60b0cd1cef7d1ff1f96d9f8093d3e05c24f7aa385dbe0812aa6ce4f4b9fbbccd"
        },
        "post": {
            "Osaka": [
                {
                    "hash": "0x575038355879240936657e853471d31439dc72c9d45202eec7ea2312a79e7d20",
                    "logs": "0x1dcc4de8dec75d7aab85b567b6ccd41ad312451b948a7413f0a142fd40d49347",
                    "txbytes": "0xf863800a830592a89493d3e05c24f7aa385dbe0812aa6ce4f4b9fbbccd830186a08026a0ab5dfb02a3decceb827c511c8d6f2f7740418bb74ab64142ce892cd0397f70aaa00990f900672cf8d5338ec00aa66ed9b9c9672603f9a47da2c497cb98607ec07a",
                    "indexes": {
                        "data": 0,
                        "gas": 0,
                        "value": 0
                    },
                    "state": {
                        "0x818ac32b2312ab9392c439261d805ad619321d6e": {
                            "nonce": "0x01",
                            "balance": "0x0de0b6b3a7587d8e",
                            "code": "0x",
                            "storage": {}
                        },
                        "0x93d3e05c24f7aa385dbe0812aa6ce4f4b9fbbccd": {
                            "nonce": "0x00",
                            "balance": "0x0132b3a0",
                            "code": "0x64f34578907f600552602060006025600060026101f4fa60025560005160005500",
                            "storage": {
                                "0x02": "0x01",
                                "0x00": "0xcb39b3bde22925b2f931111130c774761d8895e0e08437c9b396c1e97d10f34d"
                            }
                        }
                    }
                }
            ]
        },
        "config": {
            "blobSchedule": {
                "Cancun": {
                    "target": "0x03",
                    "max": "0x06",
                    "baseFeeUpdateFraction": "0x32f0ed"
                },
                "Prague": {
                    "target": "0x06",
                    "max": "0x09",
                    "baseFeeUpdateFraction": "0x4c6964"
                },
                "Osaka": {
                    "target": "0x06",
                    "max": "0x09",
                    "baseFeeUpdateFraction": "0x4c6964"
                }
            },
            "chainid": "0x01"
        },
        "_info": {
            "hash": "0xb312f48210939ff2bda6bc88eb8ad28b7ee5534b44a648f26a697913171e9462",
            "comment": "`execution-spec-tests` generated test",
            "filling-transition-tool": "ethereum-spec-evm-resolver 0.0.5",
            "description": "No description available - add a docstring to the python test class or function.",
            "url": "",
            "fixture-format": "state_test",
            "eels-resolution": {
                "git-url": "https://github.com/ethereum/execution-specs.git",
                "branch": "forks/bpos",
                "commit": "7aacb2c54111391af5e98c505d5010b5698a770f"
            }
        }
    },
    "tests/static/state_tests/stStaticCall/static_CallSha256_2Filler.json::static_CallSha256_2[fork_Prague-state_test-]": {
        "env": {
            "currentCoinbase": "0x2adc25665018aa1fe0e6bc666dac8fc2697ff9ba",
            "currentGasLimit": "0x989680",
            "currentNumber": "0x01",
            "currentTimestamp": "0x03e8",
            "currentRandom": "0x0000000000000000000000000000000000000000000000000000000000020000",
            "currentDifficulty": "0x00",
            "currentBaseFee": "0x0a",
            "currentExcessBlobGas": "0x00"
        },
        "pre": {
            "0x818ac32b2312ab9392c439261d805ad619321d6e": {
                "nonce": "0x00",
                "balance": "0x0de0b6b3a7640000",
                "code": "0x",
                "storage": {}
            },
            "0x93d3e05c24f7aa385dbe0812aa6ce4f4b9fbbccd": {
                "nonce": "0x00",
                "balance": "0x01312d00",
                "code": "0x64f34578907f600552602060006025600060026101f4fa60025560005160005500",
                "storage": {}
            }
        },
        "transaction": {
            "nonce": "0x00",
            "gasPrice": "0x0a",
            "gasLimit": [
                "0x0592a8"
            ],
            "to": "0x93d3e05c24f7aa385dbe0812aa6ce4f4b9fbbccd",
            "value": [
                "0x0186a0"
            ],
            "data": [
                "0x"
            ],
            "sender": "0x818ac32b2312ab9392c439261d805ad619321d6e",
            "secretKey": "0x60b0cd1cef7d1ff1f96d9f8093d3e05c24f7aa385dbe0812aa6ce4f4b9fbbccd"
        },
        "post": {
            "Prague": [
                {
                    "hash": "0x575038355879240936657e853471d31439dc72c9d45202eec7ea2312a79e7d20",
                    "logs": "0x1dcc4de8dec75d7aab85b567b6ccd41ad312451b948a7413f0a142fd40d49347",
                    "txbytes": "0xf863800a830592a89493d3e05c24f7aa385dbe0812aa6ce4f4b9fbbccd830186a08026a0ab5dfb02a3decceb827c511c8d6f2f7740418bb74ab64142ce892cd0397f70aaa00990f900672cf8d5338ec00aa66ed9b9c9672603f9a47da2c497cb98607ec07a",
                    "indexes": {
                        "data": 0,
                        "gas": 0,
                        "value": 0
                    },
                    "state": {
                        "0x818ac32b2312ab9392c439261d805ad619321d6e": {
                            "nonce": "0x01",
                            "balance": "0x0de0b6b3a7587d8e",
                            "code": "0x",
                            "storage": {}
                        },
                        "0x93d3e05c24f7aa385dbe0812aa6ce4f4b9fbbccd": {
                            "nonce": "0x00",
                            "balance": "0x0132b3a0",
                            "code": "0x64f34578907f600552602060006025600060026101f4fa60025560005160005500",
                            "storage": {
                                "0x02": "0x01",
                                "0x00": "0xcb39b3bde22925b2f931111130c774761d8895e0e08437c9b396c1e97d10f34d"
                            }
                        }
                    }
                }
            ]
        },
        "config": {
            "blobSchedule": {
                "Cancun": {
                    "target": "0x03",
                    "max": "0x06",
                    "baseFeeUpdateFraction": "0x32f0ed"
                },
                "Prague": {
                    "target": "0x06",
                    "max": "0x09",
                    "baseFeeUpdateFraction": "0x4c6964"
                }
            },
            "chainid": "0x01"
        },
        "_info": {
            "hash": "0xe891aa80b4cf526d16b0c5a256c9bb6dbf1dca56490e4366036c89d6809635b8",
            "comment": "`execution-spec-tests` generated test",
            "filling-transition-tool": "ethereum-spec-evm-resolver 0.0.5",
            "description": "No description available - add a docstring to the python test class or function.",
            "url": "",
            "fixture-format": "state_test",
            "eels-resolution": {
                "git-url": "https://github.com/ethereum/execution-specs.git",
                "branch": "forks/bpos",
                "commit": "7aacb2c54111391af5e98c505d5010b5698a770f"
            }
        }
    }
}