{
    "tests/static/state_tests/stStaticCall/static_callWithHighValueOOGinCallFiller.json::static_callWithHighValueOOGinCall[fork_Cancun-state_test-]": {
        "env": {
            "currentCoinbase": "0x2adc25665018aa1fe0e6bc666dac8fc2697ff9ba",
            "currentGasLimit": "0x01c9c380",
            "currentNumber": "0x01",
            "currentTimestamp": "0x03e8",
            "currentRandom": "0x0000000000000000000000000000000000000000000000000000000000020000",
            "currentDifficulty": "0x00",
            "currentBaseFee": "0x0a",
            "currentExcessBlobGas": "0x00"
        },
        "pre": {
            "0x5fd2f41a03799ff6c77fd83219d501db6773f07d": {
                "nonce": "0x00",
                "balance": "0x0de0b6b3a7640000",
                "code": "0x",
                "storage": {}
            },
            "0xd74b3505ed4d8c05aa68589cd5c55a7eab5d8711": {
                "nonce": "0x00",
                "balance": "0x17",
                "code": "0x603760005360026000f3",
                "storage": {}
            },
            "0xd74b3505ed4d8c05aa68589cd5c55a7eab5d8811": {
                "nonce": "0x00",
                "balance": "0x0186a0",
                "code": "0x6001600060006000600073d74b3505ed4d8c05aa68589cd5c55a7eab5d8711600afa0160005560005160015500",
                "storage": {}
            }
        },
        "transaction": {
            "nonce": "0x00",
            "gasPrice": "0x0a",
            "gasLimit": [
                "0x2dc6c0"
            ],
            "to": "0xd74b3505ed4d8c05aa68589cd5c55a7eab5d8811",
            "value": [
                "0x00"
            ],
            "data": [
                "0x"
            ],
            "sender": "0x5fd2f41a03799ff6c77fd83219d501db6773f07d",
            "secretKey": "0x5c7e432a1585e47b7ed3e262d74b3505ed4d8c05aa68589cd5c55a7eab5d8711"
        },
        "post": {
            "Cancun": [
                {
                    "hash": "0x3d82e08064d4829254724d78032ef5c531caecccedf4be19149ac771c09f996d",
                    "logs": "0x1dcc4de8dec75d7aab85b567b6ccd41ad312451b948a7413f0a142fd40d49347",
                    "txbytes": "0xf860800a832dc6c094d74b3505ed4d8c05aa68589cd5c55a7eab5d8811808025a063ba3c118e6f56980f45abd2025d8935b9567b2d6a67b9cff8784f114b2c1ddea055218408cc72cfa231286012e830ff163ef72a0e34c8a88183ece280c7cd80bf",
                    "indexes": {
                        "data": 0,
                        "gas": 0,
                        "value": 0
                    },
                    "state": {
                        "0x5fd2f41a03799ff6c77fd83219d501db6773f07d": {
                            "nonce": "0x01",
                            "balance": "0x0de0b6b3a75caefe",
                            "code": "0x",
                            "storage": {}
                        },
                        "0xd74b3505ed4d8c05aa68589cd5c55a7eab5d8711": {
                            "nonce": "0x00",
                            "balance": "0x17",
                            "code": "0x603760005360026000f3",
                            "storage": {}
                        },
                        "0xd74b3505ed4d8c05aa68589cd5c55a7eab5d8811": {
                            "nonce": "0x00",
                            "balance": "0x0186a0",
                            "code": "0x6001600060006000600073d74b3505ed4d8c05aa68589cd5c55a7eab5d8711600afa0160005560005160015500",
                            "storage": {
                                "0x00": "0x01"
                            }
                        }
                    }
                }
            ]
        },
        "config": {
            "blobSchedule": {
                "Cancun": {
                    "target": "0x03",
                    "max": "0x06",
                    "baseFeeUpdateFraction": "0x32f0ed"
                }
            },
            "chainid": "0x01"
        },
        "_info": {
            "hash": "0x5b4244451f71ae52f7c92743ea32b3effa7a585225fba39de481406cf1adae63",
            "comment": "`execution-spec-tests` generated test",
            "filling-transition-tool": "ethereum-spec-evm-resolver 0.0.5",
            "description": "No description available - add a docstring to the python test class or function.",
            "url": "",
            "fixture-format": "state_test",
            "eels-resolution": {
                "git-url": "https://github.com/ethereum/execution-specs.git",
                "branch": "forks/bpos",
                "commit": "7aacb2c54111391af5e98c505d5010b5698a770f"
            }
        }
    },
    "tests/static/state_tests/stStaticCall/static_callWithHighValueOOGinCallFiller.json::static_callWithHighValueOOGinCall[fork_Osaka-state_test-]": {
        "env": {
            "currentCoinbase": "0x2adc25665018aa1fe0e6bc666dac8fc2697ff9ba",
            "currentGasLimit": "0x01c9c380",
            "currentNumber": "0x01",
            "currentTimestamp": "0x03e8",
            "currentRandom": "0x0000000000000000000000000000000000000000000000000000000000020000",
            "currentDifficulty": "0x00",
            "currentBaseFee": "0x0a",
            "currentExcessBlobGas": "0x00"
        },
        "pre": {
            "0x5fd2f41a03799ff6c77fd83219d501db6773f07d": {
                "nonce": "0x00",
                "balance": "0x0de0b6b3a7640000",
                "code": "0x",
                "storage": {}
            },
            "0xd74b3505ed4d8c05aa68589cd5c55a7eab5d8711": {
                "nonce": "0x00",
                "balance": "0x17",
                "code": "0x603760005360026000f3",
                "storage": {}
            },
            "0xd74b3505ed4d8c05aa68589cd5c55a7eab5d8811": {
                "nonce": "0x00",
                "balance": "0x0186a0",
                "code": "0x6001600060006000600073d74b3505ed4d8c05aa68589cd5c55a7eab5d8711600afa0160005560005160015500",
                "storage": {}
            }
        },
        "transaction": {
            "nonce": "0x00",
            "gasPrice": "0x0a",
            "gasLimit": [
                "0x2dc6c0"
            ],
            "to": "0xd74b3505ed4d8c05aa68589cd5c55a7eab5d8811",
            "value": [
                "0x00"
            ],
            "data": [
                "0x"
            ],
            "sender": "0x5fd2f41a03799ff6c77fd83219d501db6773f07d",
            "secretKey": "0x5c7e432a1585e47b7ed3e262d74b3505ed4d8c05aa68589cd5c55a7eab5d8711"
        },
        "post": {
            "Osaka": [
                {
                    "hash": "0x3d82e08064d4829254724d78032ef5c531caecccedf4be19149ac771c09f996d",
                    "logs": "0x1dcc4de8dec75d7aab85b567b6ccd41ad312451b948a7413f0a142fd40d49347",
                    "txbytes": "0xf860800a832dc6c094d74b3505ed4d8c05aa68589cd5c55a7eab5d8811808025a063ba3c118e6f56980f45abd2025d8935b9567b2d6a67b9cff8784f114b2c1ddea055218408cc72cfa231286012e830ff163ef72a0e34c8a88183ece280c7cd80bf",
                    "indexes": {
                        "data": 0,
                        "gas": 0,
                        "value": 0
                    },
                    "state": {
                        "0x5fd2f41a03799ff6c77fd83219d501db6773f07d": {
                            "nonce": "0x01",
                            "balance": "0x0de0b6b3a75caefe",
                            "code": "0x",
                            "storage": {}
                        },
                        "0xd74b3505ed4d8c05aa68589cd5c55a7eab5d8711": {
                            "nonce": "0x00",
                            "balance": "0x17",
                            "code": "0x603760005360026000f3",
                            "storage": {}
                        },
                        "0xd74b3505ed4d8c05aa68589cd5c55a7eab5d8811": {
                            "nonce": "0x00",
                            "balance": "0x0186a0",
                            "code": "0x6001600060006000600073d74b3505ed4d8c05aa68589cd5c55a7eab5d8711600afa0160005560005160015500",
                            "storage": {
                                "0x00": "0x01"
                            }
                        }
                    }
                }
            ]
        },
        "config": {
            "blobSchedule": {
                "Cancun": {
                    "target": "0x03",
                    "max": "0x06",
                    "baseFeeUpdateFraction": "0x32f0ed"
                },
                "Prague": {
                    "target": "0x06",
                    "max": "0x09",
                    "baseFeeUpdateFraction": "0x4c6964"
                },
                "Osaka": {
                    "target": "0x06",
                    "max": "0x09",
                    "baseFeeUpdateFraction": "0x4c6964"
                }
            },
            "chainid": "0x01"
        },
        "_info": {
            "hash": "0xca45d2f3625aebd7d28de8d8ff35294eabc03cbeee94d0c5328133b99ac5ffcf",
            "comment": "`execution-spec-tests` generated test",
            "filling-transition-tool": "ethereum-spec-evm-resolver 0.0.5",
            "description": "No description available - add a docstring to the python test class or function.",
            "url": "",
            "fixture-format": "state_test",
            "eels-resolution": {
                "git-url": "https://github.com/ethereum/execution-specs.git",
                "branch": "forks/bpos",
                "commit": "7aacb2c54111391af5e98c505d5010b5698a770f"
            }
        }
    },
    "tests/static/state_tests/stStaticCall/static_callWithHighValueOOGinCallFiller.json::static_callWithHighValueOOGinCall[fork_Prague-state_test-]": {
        "env": {
            "currentCoinbase": "0x2adc25665018aa1fe0e6bc666dac8fc2697ff9ba",
            "currentGasLimit": "0x01c9c380",
            "currentNumber": "0x01",
            "currentTimestamp": "0x03e8",
            "currentRandom": "0x0000000000000000000000000000000000000000000000000000000000020000",
            "currentDifficulty": "0x00",
            "currentBaseFee": "0x0a",
            "currentExcessBlobGas": "0x00"
        },
        "pre": {
            "0x5fd2f41a03799ff6c77fd83219d501db6773f07d": {
                "nonce": "0x00",
                "balance": "0x0de0b6b3a7640000",
                "code": "0x",
                "storage": {}
            },
            "0xd74b3505ed4d8c05aa68589cd5c55a7eab5d8711": {
                "nonce": "0x00",
                "balance": "0x17",
                "code": "0x603760005360026000f3",
                "storage": {}
            },
            "0xd74b3505ed4d8c05aa68589cd5c55a7eab5d8811": {
                "nonce": "0x00",
                "balance": "0x0186a0",
                "code": "0x6001600060006000600073d74b3505ed4d8c05aa68589cd5c55a7eab5d8711600afa0160005560005160015500",
                "storage": {}
            }
        },
        "transaction": {
            "nonce": "0x00",
            "gasPrice": "0x0a",
            "gasLimit": [
                "0x2dc6c0"
            ],
            "to": "0xd74b3505ed4d8c05aa68589cd5c55a7eab5d8811",
            "value": [
                "0x00"
            ],
            "data": [
                "0x"
            ],
            "sender": "0x5fd2f41a03799ff6c77fd83219d501db6773f07d",
            "secretKey": "0x5c7e432a1585e47b7ed3e262d74b3505ed4d8c05aa68589cd5c55a7eab5d8711"
        },
        "post": {
            "Prague": [
                {
                    "hash": "0x3d82e08064d4829254724d78032ef5c531caecccedf4be19149ac771c09f996d",
                    "logs": "0x1dcc4de8dec75d7aab85b567b6ccd41ad312451b948a7413f0a142fd40d49347",
                    "txbytes": "0xf860800a832dc6c094d74b3505ed4d8c05aa68589cd5c55a7eab5d8811808025a063ba3c118e6f56980f45abd2025d8935b9567b2d6a67b9cff8784f114b2c1ddea055218408cc72cfa231286012e830ff163ef72a0e34c8a88183ece280c7cd80bf",
                    "indexes": {
                        "data": 0,
                        "gas": 0,
                        "value": 0
                    },
                    "state": {
                        "0x5fd2f41a03799ff6c77fd83219d501db6773f07d": {
                            "nonce": "0x01",
                            "balance": "0x0de0b6b3a75caefe",
                            "code": "0x",
                            "storage": {}
                        },
                        "0xd74b3505ed4d8c05aa68589cd5c55a7eab5d8711": {
                            "nonce": "0x00",
                            "balance": "0x17",
                            "code": "0x603760005360026000f3",
                            "storage": {}
                        },
                        "0xd74b3505ed4d8c05aa68589cd5c55a7eab5d8811": {
                            "nonce": "0x00",
                            "balance": "0x0186a0",
                            "code": "0x6001600060006000600073d74b3505ed4d8c05aa68589cd5c55a7eab5d8711600afa0160005560005160015500",
                            "storage": {
                                "0x00": "0x01"
                            }
                        }
                    }
                }
            ]
        },
        "config": {
            "blobSchedule": {
                "Cancun": {
                    "target": "0x03",
                    "max": "0x06",
                    "baseFeeUpdateFraction": "0x32f0ed"
                },
                "Prague": {
                    "target": "0x06",
                    "max": "0x09",
                    "baseFeeUpdateFraction": "0x4c6964"
                }
            },
            "chainid": "0x01"
        },
        "_info": {
            "hash": "0xd98515a8d54df02b013fb53401f6cbe4e162ef70d000a52162559988212c1cf5",
            "comment": "`execution-spec-tests` generated test",
            "filling-transition-tool": "ethereum-spec-evm-resolver 0.0.5",
            "description": "No description available - add a docstring to the python test class or function.",
            "url": "",
            "fixture-format": "state_test",
            "eels-resolution": {
                "git-url": "https://github.com/ethereum/execution-specs.git",
                "branch": "forks/bpos",
                "commit": "7aacb2c54111391af5e98c505d5010b5698a770f"
            }
        }
    }
}