{
    "tests/static/state_tests/stStaticCall/static_CallIdentity_4_gas17Filler.json::static_CallIdentity_4_gas17[fork_Cancun-state_test-]": {
        "env": {
            "currentCoinbase": "0x2adc25665018aa1fe0e6bc666dac8fc2697ff9ba",
            "currentGasLimit": "0x989680",
            "currentNumber": "0x01",
            "currentTimestamp": "0x03e8",
            "currentRandom": "0x0000000000000000000000000000000000000000000000000000000000020000",
            "currentDifficulty": "0x00",
            "currentBaseFee": "0x0a",
            "currentExcessBlobGas": "0x00"
        },
        "pre": {
            "0x4b2921930b205f88bcf60dab6d194a3615c777e1": {
                "nonce": "0x00",
                "balance": "0x0de0b6b3a7640000",
                "code": "0x",
                "storage": {}
            },
            "0xc10740f5ba25afd9900038f63a296c332954af56": {
                "nonce": "0x00",
                "balance": "0x01312d00",
                "code": "0x7fffffffffffffffffffffffffffffffffffffffffffffffffffffffffffffffff600052602060006020600060046011fa60025560005160005500",
                "storage": {}
            }
        },
        "transaction": {
            "nonce": "0x00",
            "gasPrice": "0x0a",
            "gasLimit": [
                "0x0592a8"
            ],
            "to": "0xc10740f5ba25afd9900038f63a296c332954af56",
            "value": [
                "0x0186a0"
            ],
            "data": [
                "0x"
            ],
            "sender": "0x4b2921930b205f88bcf60dab6d194a3615c777e1",
            "secretKey": "0xf8845dedc797635aca3f9fc0c10740f5ba25afd9900038f63a296c332954af56"
        },
        "post": {
            "Cancun": [
                {
                    "hash": "0x6b8227604c1e4d7df92870ba23b29f8205cc26378428bdbb4f9aed811f0e40d7",
                    "logs": "0x1dcc4de8dec75d7aab85b567b6ccd41ad312451b948a7413f0a142fd40d49347",
                    "txbytes": "0xf863800a830592a894c10740f5ba25afd9900038f63a296c332954af56830186a08025a0d9fb10c47f4a7d88117872f9476d8385362e5e3253b7dac3b1e2de8d63538008a04b0b1a3888a68849b6215648257657f4e500c61b6c05f0d4016009ca48d4adec",
                    "indexes": {
                        "data": 0,
                        "gas": 0,
                        "value": 0
                    },
                    "state": {
                        "0x4b2921930b205f88bcf60dab6d194a3615c777e1": {
                            "nonce": "0x01",
                            "balance": "0x0de0b6b3a75b89a2",
                            "code": "0x",
                            "storage": {}
                        },
                        "0xc10740f5ba25afd9900038f63a296c332954af56": {
                            "nonce": "0x00",
                            "balance": "0x0132b3a0",
                            "code": "0x7fffffffffffffffffffffffffffffffffffffffffffffffffffffffffffffffff600052602060006020600060046011fa60025560005160005500",
                            "storage": {
                                "0x00": "0xffffffffffffffffffffffffffffffffffffffffffffffffffffffffffffffff"
                            }
                        }
                    }
                }
            ]
        },
        "config": {
            "blobSchedule": {
                "Cancun": {
                    "target": "0x03",
                    "max": "0x06",
                    "baseFeeUpdateFraction": "0x32f0ed"
                }
            },
            "chainid": "0x01"
        },
        "_info": {
            "hash": "0x36e247973e1297f7315fc31d67f14fb3f9ce195cd386d46b4c0b4341f99f7048",
            "comment": "`execution-specs` generated test",
            "filling-transition-tool": "2.18.0rc6",
            "description": "No description available - add a docstring to the python test class or function.",
            "url": "",
            "fixture-format": "state_test"
        }
    },
    "tests/static/state_tests/stStaticCall/static_CallIdentity_4_gas17Filler.json::static_CallIdentity_4_gas17[fork_Osaka-state_test-]": {
        "env": {
            "currentCoinbase": "0x2adc25665018aa1fe0e6bc666dac8fc2697ff9ba",
            "currentGasLimit": "0x989680",
            "currentNumber": "0x01",
            "currentTimestamp": "0x03e8",
            "currentRandom": "0x0000000000000000000000000000000000000000000000000000000000020000",
            "currentDifficulty": "0x00",
            "currentBaseFee": "0x0a",
            "currentExcessBlobGas": "0x00"
        },
        "pre": {
            "0x4b2921930b205f88bcf60dab6d194a3615c777e1": {
                "nonce": "0x00",
                "balance": "0x0de0b6b3a7640000",
                "code": "0x",
                "storage": {}
            },
            "0xc10740f5ba25afd9900038f63a296c332954af56": {
                "nonce": "0x00",
                "balance": "0x01312d00",
                "code": "0x7fffffffffffffffffffffffffffffffffffffffffffffffffffffffffffffffff600052602060006020600060046011fa60025560005160005500",
                "storage": {}
            }
        },
        "transaction": {
            "nonce": "0x00",
            "gasPrice": "0x0a",
            "gasLimit": [
                "0x0592a8"
            ],
            "to": "0xc10740f5ba25afd9900038f63a296c332954af56",
            "value": [
                "0x0186a0"
            ],
            "data": [
                "0x"
            ],
            "sender": "0x4b2921930b205f88bcf60dab6d194a3615c777e1",
            "secretKey": "0xf8845dedc797635aca3f9fc0c10740f5ba25afd9900038f63a296c332954af56"
        },
        "post": {
            "Osaka": [
                {
                    "hash": "0x6b8227604c1e4d7df92870ba23b29f8205cc26378428bdbb4f9aed811f0e40d7",
                    "logs": "0x1dcc4de8dec75d7aab85b567b6ccd41ad312451b948a7413f0a142fd40d49347",
                    "txbytes": "0xf863800a830592a894c10740f5ba25afd9900038f63a296c332954af56830186a08025a0d9fb10c47f4a7d88117872f9476d8385362e5e3253b7dac3b1e2de8d63538008a04b0b1a3888a68849b6215648257657f4e500c61b6c05f0d4016009ca48d4adec",
                    "indexes": {
                        "data": 0,
                        "gas": 0,
                        "value": 0
                    },
                    "state": {
                        "0x4b2921930b205f88bcf60dab6d194a3615c777e1": {
                            "nonce": "0x01",
                            "balance": "0x0de0b6b3a75b89a2",
                            "code": "0x",
                            "storage": {}
                        },
                        "0xc10740f5ba25afd9900038f63a296c332954af56": {
                            "nonce": "0x00",
                            "balance": "0x0132b3a0",
                            "code": "0x7fffffffffffffffffffffffffffffffffffffffffffffffffffffffffffffffff600052602060006020600060046011fa60025560005160005500",
                            "storage": {
                                "0x00": "0xffffffffffffffffffffffffffffffffffffffffffffffffffffffffffffffff"
                            }
                        }
                    }
                }
            ]
        },
        "config": {
            "blobSchedule": {
                "Cancun": {
                    "target": "0x03",
                    "max": "0x06",
                    "baseFeeUpdateFraction": "0x32f0ed"
                },
                "Prague": {
                    "target": "0x06",
                    "max": "0x09",
                    "baseFeeUpdateFraction": "0x4c6964"
                },
                "Osaka": {
                    "target": "0x06",
                    "max": "0x09",
                    "baseFeeUpdateFraction": "0x4c6964"
                }
            },
            "chainid": "0x01"
        },
        "_info": {
            "hash": "0xbd0aa1348f35d5349ae829b2d297bc1d9cad70013eee0132bfe8f8034b34d3f8",
            "comment": "`execution-specs` generated test",
            "filling-transition-tool": "2.18.0rc6",
            "description": "No description available - add a docstring to the python test class or function.",
            "url": "",
            "fixture-format": "state_test"
        }
    },
    "tests/static/state_tests/stStaticCall/static_CallIdentity_4_gas17Filler.json::static_CallIdentity_4_gas17[fork_Prague-state_test-]": {
        "env": {
            "currentCoinbase": "0x2adc25665018aa1fe0e6bc666dac8fc2697ff9ba",
            "currentGasLimit": "0x989680",
            "currentNumber": "0x01",
            "currentTimestamp": "0x03e8",
            "currentRandom": "0x0000000000000000000000000000000000000000000000000000000000020000",
            "currentDifficulty": "0x00",
            "currentBaseFee": "0x0a",
            "currentExcessBlobGas": "0x00"
        },
        "pre": {
            "0x4b2921930b205f88bcf60dab6d194a3615c777e1": {
                "nonce": "0x00",
                "balance": "0x0de0b6b3a7640000",
                "code": "0x",
                "storage": {}
            },
            "0xc10740f5ba25afd9900038f63a296c332954af56": {
                "nonce": "0x00",
                "balance": "0x01312d00",
                "code": "0x7fffffffffffffffffffffffffffffffffffffffffffffffffffffffffffffffff600052602060006020600060046011fa60025560005160005500",
                "storage": {}
            }
        },
        "transaction": {
            "nonce": "0x00",
            "gasPrice": "0x0a",
            "gasLimit": [
                "0x0592a8"
            ],
            "to": "0xc10740f5ba25afd9900038f63a296c332954af56",
            "value": [
                "0x0186a0"
            ],
            "data": [
                "0x"
            ],
            "sender": "0x4b2921930b205f88bcf60dab6d194a3615c777e1",
            "secretKey": "0xf8845dedc797635aca3f9fc0c10740f5ba25afd9900038f63a296c332954af56"
        },
        "post": {
            "Prague": [
                {
                    "hash": "0x6b8227604c1e4d7df92870ba23b29f8205cc26378428bdbb4f9aed811f0e40d7",
                    "logs": "0x1dcc4de8dec75d7aab85b567b6ccd41ad312451b948a7413f0a142fd40d49347",
                    "txbytes": "0xf863800a830592a894c10740f5ba25afd9900038f63a296c332954af56830186a08025a0d9fb10c47f4a7d88117872f9476d8385362e5e3253b7dac3b1e2de8d63538008a04b0b1a3888a68849b6215648257657f4e500c61b6c05f0d4016009ca48d4adec",
                    "indexes": {
                        "data": 0,
                        "gas": 0,
                        "value": 0
                    },
                    "state": {
                        "0x4b2921930b205f88bcf60dab6d194a3615c777e1": {
                            "nonce": "0x01",
                            "balance": "0x0de0b6b3a75b89a2",
                            "code": "0x",
                            "storage": {}
                        },
                        "0xc10740f5ba25afd9900038f63a296c332954af56": {
                            "nonce": "0x00",
                            "balance": "0x0132b3a0",
                            "code": "0x7fffffffffffffffffffffffffffffffffffffffffffffffffffffffffffffffff600052602060006020600060046011fa60025560005160005500",
                            "storage": {
                                "0x00": "0xffffffffffffffffffffffffffffffffffffffffffffffffffffffffffffffff"
                            }
                        }
                    }
                }
            ]
        },
        "config": {
            "blobSchedule": {
                "Cancun": {
                    "target": "0x03",
                    "max": "0x06",
                    "baseFeeUpdateFraction": "0x32f0ed"
                },
                "Prague": {
                    "target": "0x06",
                    "max": "0x09",
                    "baseFeeUpdateFraction": "0x4c6964"
                }
            },
            "chainid": "0x01"
        },
        "_info": {
            "hash": "0x9f346a4ed0b1eccbe375d5a28038646c82a2a6ddc5fb78f81de590936fe0e827",
            "comment": "`execution-specs` generated test",
            "filling-transition-tool": "2.18.0rc6",
            "description": "No description available - add a docstring to the python test class or function.",
            "url": "",
            "fixture-format": "state_test"
        }
    }
}