{
    "tests/static/state_tests/stStaticCall/static_log0_logMemsizeTooHighFiller.json::static_log0_logMemsizeTooHigh[fork_Cancun-state_test-]": {
        "env": {
            "currentCoinbase": "0x2adc25665018aa1fe0e6bc666dac8fc2697ff9ba",
            "currentGasLimit": "0x0f4240",
            "currentNumber": "0x01",
            "currentTimestamp": "0x03e8",
            "currentRandom": "0x0000000000000000000000000000000000000000000000000000000000020000",
            "currentDifficulty": "0x00",
            "currentBaseFee": "0x0a",
            "currentExcessBlobGas": "0x00"
        },
        "pre": {
            "0xa03d29b064ca4fb41e54625e801ee2f0149b9fa0": {
                "nonce": "0x00",
                "balance": "0x0de0b6b3a7640000",
                "code": "0x",
                "storage": {}
            },
            "0xf8f2a22989e415959545e6e83d30b6088567f96d": {
                "nonce": "0x00",
                "balance": "0x0de0b6b3a7640000",
                "code": "0x7faabbffffffffffffffffffffffffffffffffffffffffffffffffffffffffccdd6000527fffffffffffffffffffffffffffffffffffffffffffffffffffffffffffffffff6001a000",
                "storage": {}
            },
            "0xf8f2a22989e415959545e6e83d30b6088567fa6d": {
                "nonce": "0x00",
                "balance": "0x0de0b6b3a7640000",
                "code": "0x600060006000600073f8f2a22989e415959545e6e83d30b6088567f96d6103e8fa60005500",
                "storage": {}
            }
        },
        "transaction": {
            "nonce": "0x00",
            "gasPrice": "0x0a",
            "gasLimit": [
                "0x033450"
            ],
            "to": "0xf8f2a22989e415959545e6e83d30b6088567fa6d",
            "value": [
                "0x0186a0"
            ],
            "data": [
                "0x"
            ],
            "sender": "0xa03d29b064ca4fb41e54625e801ee2f0149b9fa0",
            "secretKey": "0x6e5b5e7106c43f6e89b271cbf8f2a22989e415959545e6e83d30b6088567f96d"
        },
        "post": {
            "Cancun": [
                {
                    "hash": "0x9795d772a447a7838950c1121354c1e5a228afae99898ad8dd475ebc93be4730",
                    "logs": "0x1dcc4de8dec75d7aab85b567b6ccd41ad312451b948a7413f0a142fd40d49347",
                    "txbytes": "0xf863800a8303345094f8f2a22989e415959545e6e83d30b6088567fa6d830186a08026a0f90ca8aeb5579ff220ab2860d93ae94f94fe4584a9d3dc41cef8612ffe4b042aa01a7340f859dd10ea3ba327f4d995f0eda1fa78145907bf4a6d6948e447508489",
                    "indexes": {
                        "data": 0,
                        "gas": 0,
                        "value": 0
                    },
                    "state": {
                        "0xa03d29b064ca4fb41e54625e801ee2f0149b9fa0": {
                            "nonce": "0x01",
                            "balance": "0x0de0b6b3a75e61ae",
                            "code": "0x",
                            "storage": {}
                        },
                        "0xf8f2a22989e415959545e6e83d30b6088567f96d": {
                            "nonce": "0x00",
                            "balance": "0x0de0b6b3a7640000",
                            "code": "0x7faabbffffffffffffffffffffffffffffffffffffffffffffffffffffffffccdd6000527fffffffffffffffffffffffffffffffffffffffffffffffffffffffffffffffff6001a000",
                            "storage": {}
                        },
                        "0xf8f2a22989e415959545e6e83d30b6088567fa6d": {
                            "nonce": "0x00",
                            "balance": "0x0de0b6b3a76586a0",
                            "code": "0x600060006000600073f8f2a22989e415959545e6e83d30b6088567f96d6103e8fa60005500",
                            "storage": {}
                        }
                    }
                }
            ]
        },
        "config": {
            "blobSchedule": {
                "Cancun": {
                    "target": "0x03",
                    "max": "0x06",
                    "baseFeeUpdateFraction": "0x32f0ed"
                }
            },
            "chainid": "0x01"
        },
        "_info": {
            "hash": "0x0e69fb68f5582e8012e928dfed24c5869cb094519d208f722ce00218da3dbb75",
            "comment": "`execution-spec-tests` generated test",
            "filling-transition-tool": "ethereum-spec-evm-resolver 0.0.5",
            "description": "No description available - add a docstring to the python test class or function.",
            "url": "",
            "fixture-format": "state_test",
            "eels-resolution": {
                "git-url": "https://github.com/marioevz/execution-specs.git",
                "branch": "forks/bpo1",
                "commit": "3387e5f4aedfe99becfdc39b444d6371e25e0924"
            }
        }
    },
    "tests/static/state_tests/stStaticCall/static_log0_logMemsizeTooHighFiller.json::static_log0_logMemsizeTooHigh[fork_Osaka-state_test-]": {
        "env": {
            "currentCoinbase": "0x2adc25665018aa1fe0e6bc666dac8fc2697ff9ba",
            "currentGasLimit": "0x0f4240",
            "currentNumber": "0x01",
            "currentTimestamp": "0x03e8",
            "currentRandom": "0x0000000000000000000000000000000000000000000000000000000000020000",
            "currentDifficulty": "0x00",
            "currentBaseFee": "0x0a",
            "currentExcessBlobGas": "0x00"
        },
        "pre": {
            "0xa03d29b064ca4fb41e54625e801ee2f0149b9fa0": {
                "nonce": "0x00",
                "balance": "0x0de0b6b3a7640000",
                "code": "0x",
                "storage": {}
            },
            "0xf8f2a22989e415959545e6e83d30b6088567f96d": {
                "nonce": "0x00",
                "balance": "0x0de0b6b3a7640000",
                "code": "0x7faabbffffffffffffffffffffffffffffffffffffffffffffffffffffffffccdd6000527fffffffffffffffffffffffffffffffffffffffffffffffffffffffffffffffff6001a000",
                "storage": {}
            },
            "0xf8f2a22989e415959545e6e83d30b6088567fa6d": {
                "nonce": "0x00",
                "balance": "0x0de0b6b3a7640000",
                "code": "0x600060006000600073f8f2a22989e415959545e6e83d30b6088567f96d6103e8fa60005500",
                "storage": {}
            }
        },
        "transaction": {
            "nonce": "0x00",
            "gasPrice": "0x0a",
            "gasLimit": [
                "0x033450"
            ],
            "to": "0xf8f2a22989e415959545e6e83d30b6088567fa6d",
            "value": [
                "0x0186a0"
            ],
            "data": [
                "0x"
            ],
            "sender": "0xa03d29b064ca4fb41e54625e801ee2f0149b9fa0",
            "secretKey": "0x6e5b5e7106c43f6e89b271cbf8f2a22989e415959545e6e83d30b6088567f96d"
        },
        "post": {
            "Osaka": [
                {
                    "hash": "0x9795d772a447a7838950c1121354c1e5a228afae99898ad8dd475ebc93be4730",
                    "logs": "0x1dcc4de8dec75d7aab85b567b6ccd41ad312451b948a7413f0a142fd40d49347",
                    "txbytes": "0xf863800a8303345094f8f2a22989e415959545e6e83d30b6088567fa6d830186a08026a0f90ca8aeb5579ff220ab2860d93ae94f94fe4584a9d3dc41cef8612ffe4b042aa01a7340f859dd10ea3ba327f4d995f0eda1fa78145907bf4a6d6948e447508489",
                    "indexes": {
                        "data": 0,
                        "gas": 0,
                        "value": 0
                    },
                    "state": {
                        "0xa03d29b064ca4fb41e54625e801ee2f0149b9fa0": {
                            "nonce": "0x01",
                            "balance": "0x0de0b6b3a75e61ae",
                            "code": "0x",
                            "storage": {}
                        },
                        "0xf8f2a22989e415959545e6e83d30b6088567f96d": {
                            "nonce": "0x00",
                            "balance": "0x0de0b6b3a7640000",
                            "code": "0x7faabbffffffffffffffffffffffffffffffffffffffffffffffffffffffffccdd6000527fffffffffffffffffffffffffffffffffffffffffffffffffffffffffffffffff6001a000",
                            "storage": {}
                        },
                        "0xf8f2a22989e415959545e6e83d30b6088567fa6d": {
                            "nonce": "0x00",
                            "balance": "0x0de0b6b3a76586a0",
                            "code": "0x600060006000600073f8f2a22989e415959545e6e83d30b6088567f96d6103e8fa60005500",
                            "storage": {}
                        }
                    }
                }
            ]
        },
        "config": {
            "blobSchedule": {
                "Cancun": {
                    "target": "0x03",
                    "max": "0x06",
                    "baseFeeUpdateFraction": "0x32f0ed"
                },
                "Prague": {
                    "target": "0x06",
                    "max": "0x09",
                    "baseFeeUpdateFraction": "0x4c6964"
                },
                "Osaka": {
                    "target": "0x06",
                    "max": "0x09",
                    "baseFeeUpdateFraction": "0x4c6964"
                }
            },
            "chainid": "0x01"
        },
        "_info": {
            "hash": "0x114306724aa5c2417dc63423e88ec5942eafd2bc3e76af1753ef1b3cb679c545",
            "comment": "`execution-spec-tests` generated test",
            "filling-transition-tool": "ethereum-spec-evm-resolver 0.0.5",
            "description": "No description available - add a docstring to the python test class or function.",
            "url": "",
            "fixture-format": "state_test",
            "eels-resolution": {
                "git-url": "https://github.com/marioevz/execution-specs.git",
                "branch": "forks/bpo1",
                "commit": "3387e5f4aedfe99becfdc39b444d6371e25e0924"
            }
        }
    },
    "tests/static/state_tests/stStaticCall/static_log0_logMemsizeTooHighFiller.json::static_log0_logMemsizeTooHigh[fork_Prague-state_test-]": {
        "env": {
            "currentCoinbase": "0x2adc25665018aa1fe0e6bc666dac8fc2697ff9ba",
            "currentGasLimit": "0x0f4240",
            "currentNumber": "0x01",
            "currentTimestamp": "0x03e8",
            "currentRandom": "0x0000000000000000000000000000000000000000000000000000000000020000",
            "currentDifficulty": "0x00",
            "currentBaseFee": "0x0a",
            "currentExcessBlobGas": "0x00"
        },
        "pre": {
            "0xa03d29b064ca4fb41e54625e801ee2f0149b9fa0": {
                "nonce": "0x00",
                "balance": "0x0de0b6b3a7640000",
                "code": "0x",
                "storage": {}
            },
            "0xf8f2a22989e415959545e6e83d30b6088567f96d": {
                "nonce": "0x00",
                "balance": "0x0de0b6b3a7640000",
                "code": "0x7faabbffffffffffffffffffffffffffffffffffffffffffffffffffffffffccdd6000527fffffffffffffffffffffffffffffffffffffffffffffffffffffffffffffffff6001a000",
                "storage": {}
            },
            "0xf8f2a22989e415959545e6e83d30b6088567fa6d": {
                "nonce": "0x00",
                "balance": "0x0de0b6b3a7640000",
                "code": "0x600060006000600073f8f2a22989e415959545e6e83d30b6088567f96d6103e8fa60005500",
                "storage": {}
            }
        },
        "transaction": {
            "nonce": "0x00",
            "gasPrice": "0x0a",
            "gasLimit": [
                "0x033450"
            ],
            "to": "0xf8f2a22989e415959545e6e83d30b6088567fa6d",
            "value": [
                "0x0186a0"
            ],
            "data": [
                "0x"
            ],
            "sender": "0xa03d29b064ca4fb41e54625e801ee2f0149b9fa0",
            "secretKey": "0x6e5b5e7106c43f6e89b271cbf8f2a22989e415959545e6e83d30b6088567f96d"
        },
        "post": {
            "Prague": [
                {
                    "hash": "0x9795d772a447a7838950c1121354c1e5a228afae99898ad8dd475ebc93be4730",
                    "logs": "0x1dcc4de8dec75d7aab85b567b6ccd41ad312451b948a7413f0a142fd40d49347",
                    "txbytes": "0xf863800a8303345094f8f2a22989e415959545e6e83d30b6088567fa6d830186a08026a0f90ca8aeb5579ff220ab2860d93ae94f94fe4584a9d3dc41cef8612ffe4b042aa01a7340f859dd10ea3ba327f4d995f0eda1fa78145907bf4a6d6948e447508489",
                    "indexes": {
                        "data": 0,
                        "gas": 0,
                        "value": 0
                    },
                    "state": {
                        "0xa03d29b064ca4fb41e54625e801ee2f0149b9fa0": {
                            "nonce": "0x01",
                            "balance": "0x0de0b6b3a75e61ae",
                            "code": "0x",
                            "storage": {}
                        },
                        "0xf8f2a22989e415959545e6e83d30b6088567f96d": {
                            "nonce": "0x00",
                            "balance": "0x0de0b6b3a7640000",
                            "code": "0x7faabbffffffffffffffffffffffffffffffffffffffffffffffffffffffffccdd6000527fffffffffffffffffffffffffffffffffffffffffffffffffffffffffffffffff6001a000",
                            "storage": {}
                        },
                        "0xf8f2a22989e415959545e6e83d30b6088567fa6d": {
                            "nonce": "0x00",
                            "balance": "0x0de0b6b3a76586a0",
                            "code": "0x600060006000600073f8f2a22989e415959545e6e83d30b6088567f96d6103e8fa60005500",
                            "storage": {}
                        }
                    }
                }
            ]
        },
        "config": {
            "blobSchedule": {
                "Cancun": {
                    "target": "0x03",
                    "max": "0x06",
                    "baseFeeUpdateFraction": "0x32f0ed"
                },
                "Prague": {
                    "target": "0x06",
                    "max": "0x09",
                    "baseFeeUpdateFraction": "0x4c6964"
                }
            },
            "chainid": "0x01"
        },
        "_info": {
            "hash": "0x829d46805e3b0791aa0f6a34cd09153df19e6bdc7b4c99fa576dcca430ee3ef8",
            "comment": "`execution-spec-tests` generated test",
            "filling-transition-tool": "ethereum-spec-evm-resolver 0.0.5",
            "description": "No description available - add a docstring to the python test class or function.",
            "url": "",
            "fixture-format": "state_test",
            "eels-resolution": {
                "git-url": "https://github.com/marioevz/execution-specs.git",
                "branch": "forks/bpo1",
                "commit": "3387e5f4aedfe99becfdc39b444d6371e25e0924"
            }
        }
    }
}