{
    "tests/static/state_tests/stStaticCall/static_callcodecallcallcode_101Filler.json::static_callcodecallcallcode_101[fork_Cancun-state_test-]": {
        "env": {
            "currentCoinbase": "0x2adc25665018aa1fe0e6bc666dac8fc2697ff9ba",
            "currentGasLimit": "0x01c9c380",
            "currentNumber": "0x01",
            "currentTimestamp": "0x03e8",
            "currentRandom": "0x0000000000000000000000000000000000000000000000000000000000020000",
            "currentDifficulty": "0x00",
            "currentBaseFee": "0x0a",
            "currentExcessBlobGas": "0x00"
        },
        "pre": {
            "0xa91b597dfa69c031ecb5f6946d783f499c45c797": {
                "nonce": "0x00",
                "balance": "0x0de0b6b3a7640000",
                "code": "0x",
                "storage": {}
            },
            "0x0ffb504ded96a37b7f0b7920145fafbb9d63cce6": {
                "nonce": "0x00",
                "balance": "0x00",
                "code": "0x600160015200",
                "storage": {}
            },
            "0x0ffb504ded96a37b7f0b7920145fafbb9d63cde6": {
                "nonce": "0x00",
                "balance": "0x0de0b6b3a7640000",
                "code": "0x60016001526040600060406000730ffb504ded96a37b7f0b7920145fafbb9d63cce66203d090f4506001601f5200",
                "storage": {}
            },
            "0x0ffb504ded96a37b7f0b7920145fafbb9d63cee6": {
                "nonce": "0x00",
                "balance": "0x0de0b6b3a7640000",
                "code": "0x60016001526040600060406000730ffb504ded96a37b7f0b7920145fafbb9d63cde6620493e0fa506001601f5200",
                "storage": {}
            },
            "0x0ffb504ded96a37b7f0b7920145fafbb9d63cfe6": {
                "nonce": "0x00",
                "balance": "0x0de0b6b3a7640000",
                "code": "0x6040600060406000730ffb504ded96a37b7f0b7920145fafbb9d63cee662055730f4600055600160015500",
                "storage": {}
            }
        },
        "transaction": {
            "nonce": "0x00",
            "gasPrice": "0x0a",
            "gasLimit": [
                "0x2dc6c0"
            ],
            "to": "0x0ffb504ded96a37b7f0b7920145fafbb9d63cfe6",
            "value": [
                "0x00"
            ],
            "data": [
                "0x"
            ],
            "sender": "0xa91b597dfa69c031ecb5f6946d783f499c45c797",
            "secretKey": "0x085548aaddf4362419b1eb160ffb504ded96a37b7f0b7920145fafbb9d63cce6"
        },
        "post": {
            "Cancun": [
                {
                    "hash": "0x8bdafc5ebaa8a4c080c0675a1866e381051610663e892f092bbbd243afb8f35f",
                    "logs": "0x1dcc4de8dec75d7aab85b567b6ccd41ad312451b948a7413f0a142fd40d49347",
                    "txbytes": "0xf860800a832dc6c0940ffb504ded96a37b7f0b7920145fafbb9d63cfe6808026a093bbe991c25e131a8280872c62edc01ebce5bf8c6c36ca07c59f2f0197ff395ea0038fcd69faa64d03f73236f8c4aab9303eb59b0a53442349c567f86c386a18ce",
                    "indexes": {
                        "data": 0,
                        "gas": 0,
                        "value": 0
                    },
                    "state": {
                        "0xa91b597dfa69c031ecb5f6946d783f499c45c797": {
                            "nonce": "0x01",
                            "balance": "0x0de0b6b3a758d720",
                            "code": "0x",
                            "storage": {}
                        },
                        "0x0ffb504ded96a37b7f0b7920145fafbb9d63cce6": {
                            "nonce": "0x00",
                            "balance": "0x00",
                            "code": "0x600160015200",
                            "storage": {}
                        },
                        "0x0ffb504ded96a37b7f0b7920145fafbb9d63cde6": {
                            "nonce": "0x00",
                            "balance": "0x0de0b6b3a7640000",
                            "code": "0x60016001526040600060406000730ffb504ded96a37b7f0b7920145fafbb9d63cce66203d090f4506001601f5200",
                            "storage": {}
                        },
                        "0x0ffb504ded96a37b7f0b7920145fafbb9d63cee6": {
                            "nonce": "0x00",
                            "balance": "0x0de0b6b3a7640000",
                            "code": "0x60016001526040600060406000730ffb504ded96a37b7f0b7920145fafbb9d63cde6620493e0fa506001601f5200",
                            "storage": {}
                        },
                        "0x0ffb504ded96a37b7f0b7920145fafbb9d63cfe6": {
                            "nonce": "0x00",
                            "balance": "0x0de0b6b3a7640000",
                            "code": "0x6040600060406000730ffb504ded96a37b7f0b7920145fafbb9d63cee662055730f4600055600160015500",
                            "storage": {
                                "0x00": "0x01",
                                "0x01": "0x01"
                            }
                        }
                    }
                }
            ]
        },
        "config": {
            "blobSchedule": {
                "Cancun": {
                    "target": "0x03",
                    "max": "0x06",
                    "baseFeeUpdateFraction": "0x32f0ed"
                }
            },
            "chainid": "0x01"
        },
        "_info": {
            "hash": "0xa2e8ff946b8ba6b6a82235186bf0dc061ad4087c18de856e732f37748782a390",
            "comment": "`execution-spec-tests` generated test",
            "filling-transition-tool": "ethereum-spec-evm-resolver 0.0.5",
            "description": "No description available - add a docstring to the python test class or function.",
            "url": "",
            "fixture-format": "state_test",
            "eels-resolution": {
                "git-url": "https://github.com/marioevz/execution-specs.git",
                "branch": "forks/bpo1",
                "commit": "3387e5f4aedfe99becfdc39b444d6371e25e0924"
            }
        }
    },
    "tests/static/state_tests/stStaticCall/static_callcodecallcallcode_101Filler.json::static_callcodecallcallcode_101[fork_Osaka-state_test-]": {
        "env": {
            "currentCoinbase": "0x2adc25665018aa1fe0e6bc666dac8fc2697ff9ba",
            "currentGasLimit": "0x01c9c380",
            "currentNumber": "0x01",
            "currentTimestamp": "0x03e8",
            "currentRandom": "0x0000000000000000000000000000000000000000000000000000000000020000",
            "currentDifficulty": "0x00",
            "currentBaseFee": "0x0a",
            "currentExcessBlobGas": "0x00"
        },
        "pre": {
            "0xa91b597dfa69c031ecb5f6946d783f499c45c797": {
                "nonce": "0x00",
                "balance": "0x0de0b6b3a7640000",
                "code": "0x",
                "storage": {}
            },
            "0x0ffb504ded96a37b7f0b7920145fafbb9d63cce6": {
                "nonce": "0x00",
                "balance": "0x00",
                "code": "0x600160015200",
                "storage": {}
            },
            "0x0ffb504ded96a37b7f0b7920145fafbb9d63cde6": {
                "nonce": "0x00",
                "balance": "0x0de0b6b3a7640000",
                "code": "0x60016001526040600060406000730ffb504ded96a37b7f0b7920145fafbb9d63cce66203d090f4506001601f5200",
                "storage": {}
            },
            "0x0ffb504ded96a37b7f0b7920145fafbb9d63cee6": {
                "nonce": "0x00",
                "balance": "0x0de0b6b3a7640000",
                "code": "0x60016001526040600060406000730ffb504ded96a37b7f0b7920145fafbb9d63cde6620493e0fa506001601f5200",
                "storage": {}
            },
            "0x0ffb504ded96a37b7f0b7920145fafbb9d63cfe6": {
                "nonce": "0x00",
                "balance": "0x0de0b6b3a7640000",
                "code": "0x6040600060406000730ffb504ded96a37b7f0b7920145fafbb9d63cee662055730f4600055600160015500",
                "storage": {}
            }
        },
        "transaction": {
            "nonce": "0x00",
            "gasPrice": "0x0a",
            "gasLimit": [
                "0x2dc6c0"
            ],
            "to": "0x0ffb504ded96a37b7f0b7920145fafbb9d63cfe6",
            "value": [
                "0x00"
            ],
            "data": [
                "0x"
            ],
            "sender": "0xa91b597dfa69c031ecb5f6946d783f499c45c797",
            "secretKey": "0x085548aaddf4362419b1eb160ffb504ded96a37b7f0b7920145fafbb9d63cce6"
        },
        "post": {
            "Osaka": [
                {
                    "hash": "0x8bdafc5ebaa8a4c080c0675a1866e381051610663e892f092bbbd243afb8f35f",
                    "logs": "0x1dcc4de8dec75d7aab85b567b6ccd41ad312451b948a7413f0a142fd40d49347",
                    "txbytes": "0xf860800a832dc6c0940ffb504ded96a37b7f0b7920145fafbb9d63cfe6808026a093bbe991c25e131a8280872c62edc01ebce5bf8c6c36ca07c59f2f0197ff395ea0038fcd69faa64d03f73236f8c4aab9303eb59b0a53442349c567f86c386a18ce",
                    "indexes": {
                        "data": 0,
                        "gas": 0,
                        "value": 0
                    },
                    "state": {
                        "0xa91b597dfa69c031ecb5f6946d783f499c45c797": {
                            "nonce": "0x01",
                            "balance": "0x0de0b6b3a758d720",
                            "code": "0x",
                            "storage": {}
                        },
                        "0x0ffb504ded96a37b7f0b7920145fafbb9d63cce6": {
                            "nonce": "0x00",
                            "balance": "0x00",
                            "code": "0x600160015200",
                            "storage": {}
                        },
                        "0x0ffb504ded96a37b7f0b7920145fafbb9d63cde6": {
                            "nonce": "0x00",
                            "balance": "0x0de0b6b3a7640000",
                            "code": "0x60016001526040600060406000730ffb504ded96a37b7f0b7920145fafbb9d63cce66203d090f4506001601f5200",
                            "storage": {}
                        },
                        "0x0ffb504ded96a37b7f0b7920145fafbb9d63cee6": {
                            "nonce": "0x00",
                            "balance": "0x0de0b6b3a7640000",
                            "code": "0x60016001526040600060406000730ffb504ded96a37b7f0b7920145fafbb9d63cde6620493e0fa506001601f5200",
                            "storage": {}
                        },
                        "0x0ffb504ded96a37b7f0b7920145fafbb9d63cfe6": {
                            "nonce": "0x00",
                            "balance": "0x0de0b6b3a7640000",
                            "code": "0x6040600060406000730ffb504ded96a37b7f0b7920145fafbb9d63cee662055730f4600055600160015500",
                            "storage": {
                                "0x00": "0x01",
                                "0x01": "0x01"
                            }
                        }
                    }
                }
            ]
        },
        "config": {
            "blobSchedule": {
                "Cancun": {
                    "target": "0x03",
                    "max": "0x06",
                    "baseFeeUpdateFraction": "0x32f0ed"
                },
                "Prague": {
                    "target": "0x06",
                    "max": "0x09",
                    "baseFeeUpdateFraction": "0x4c6964"
                },
                "Osaka": {
                    "target": "0x06",
                    "max": "0x09",
                    "baseFeeUpdateFraction": "0x4c6964"
                }
            },
            "chainid": "0x01"
        },
        "_info": {
            "hash": "0x53f816b0c6e78347f59b91fe9adfc30869c4b714a0b657a9b03717e8059212eb",
            "comment": "`execution-spec-tests` generated test",
            "filling-transition-tool": "ethereum-spec-evm-resolver 0.0.5",
            "description": "No description available - add a docstring to the python test class or function.",
            "url": "",
            "fixture-format": "state_test",
            "eels-resolution": {
                "git-url": "https://github.com/marioevz/execution-specs.git",
                "branch": "forks/bpo1",
                "commit": "3387e5f4aedfe99becfdc39b444d6371e25e0924"
            }
        }
    },
    "tests/static/state_tests/stStaticCall/static_callcodecallcallcode_101Filler.json::static_callcodecallcallcode_101[fork_Prague-state_test-]": {
        "env": {
            "currentCoinbase": "0x2adc25665018aa1fe0e6bc666dac8fc2697ff9ba",
            "currentGasLimit": "0x01c9c380",
            "currentNumber": "0x01",
            "currentTimestamp": "0x03e8",
            "currentRandom": "0x0000000000000000000000000000000000000000000000000000000000020000",
            "currentDifficulty": "0x00",
            "currentBaseFee": "0x0a",
            "currentExcessBlobGas": "0x00"
        },
        "pre": {
            "0xa91b597dfa69c031ecb5f6946d783f499c45c797": {
                "nonce": "0x00",
                "balance": "0x0de0b6b3a7640000",
                "code": "0x",
                "storage": {}
            },
            "0x0ffb504ded96a37b7f0b7920145fafbb9d63cce6": {
                "nonce": "0x00",
                "balance": "0x00",
                "code": "0x600160015200",
                "storage": {}
            },
            "0x0ffb504ded96a37b7f0b7920145fafbb9d63cde6": {
                "nonce": "0x00",
                "balance": "0x0de0b6b3a7640000",
                "code": "0x60016001526040600060406000730ffb504ded96a37b7f0b7920145fafbb9d63cce66203d090f4506001601f5200",
                "storage": {}
            },
            "0x0ffb504ded96a37b7f0b7920145fafbb9d63cee6": {
                "nonce": "0x00",
                "balance": "0x0de0b6b3a7640000",
                "code": "0x60016001526040600060406000730ffb504ded96a37b7f0b7920145fafbb9d63cde6620493e0fa506001601f5200",
                "storage": {}
            },
            "0x0ffb504ded96a37b7f0b7920145fafbb9d63cfe6": {
                "nonce": "0x00",
                "balance": "0x0de0b6b3a7640000",
                "code": "0x6040600060406000730ffb504ded96a37b7f0b7920145fafbb9d63cee662055730f4600055600160015500",
                "storage": {}
            }
        },
        "transaction": {
            "nonce": "0x00",
            "gasPrice": "0x0a",
            "gasLimit": [
                "0x2dc6c0"
            ],
            "to": "0x0ffb504ded96a37b7f0b7920145fafbb9d63cfe6",
            "value": [
                "0x00"
            ],
            "data": [
                "0x"
            ],
            "sender": "0xa91b597dfa69c031ecb5f6946d783f499c45c797",
            "secretKey": "0x085548aaddf4362419b1eb160ffb504ded96a37b7f0b7920145fafbb9d63cce6"
        },
        "post": {
            "Prague": [
                {
                    "hash": "0x8bdafc5ebaa8a4c080c0675a1866e381051610663e892f092bbbd243afb8f35f",
                    "logs": "0x1dcc4de8dec75d7aab85b567b6ccd41ad312451b948a7413f0a142fd40d49347",
                    "txbytes": "0xf860800a832dc6c0940ffb504ded96a37b7f0b7920145fafbb9d63cfe6808026a093bbe991c25e131a8280872c62edc01ebce5bf8c6c36ca07c59f2f0197ff395ea0038fcd69faa64d03f73236f8c4aab9303eb59b0a53442349c567f86c386a18ce",
                    "indexes": {
                        "data": 0,
                        "gas": 0,
                        "value": 0
                    },
                    "state": {
                        "0xa91b597dfa69c031ecb5f6946d783f499c45c797": {
                            "nonce": "0x01",
                            "balance": "0x0de0b6b3a758d720",
                            "code": "0x",
                            "storage": {}
                        },
                        "0x0ffb504ded96a37b7f0b7920145fafbb9d63cce6": {
                            "nonce": "0x00",
                            "balance": "0x00",
                            "code": "0x600160015200",
                            "storage": {}
                        },
                        "0x0ffb504ded96a37b7f0b7920145fafbb9d63cde6": {
                            "nonce": "0x00",
                            "balance": "0x0de0b6b3a7640000",
                            "code": "0x60016001526040600060406000730ffb504ded96a37b7f0b7920145fafbb9d63cce66203d090f4506001601f5200",
                            "storage": {}
                        },
                        "0x0ffb504ded96a37b7f0b7920145fafbb9d63cee6": {
                            "nonce": "0x00",
                            "balance": "0x0de0b6b3a7640000",
                            "code": "0x60016001526040600060406000730ffb504ded96a37b7f0b7920145fafbb9d63cde6620493e0fa506001601f5200",
                            "storage": {}
                        },
                        "0x0ffb504ded96a37b7f0b7920145fafbb9d63cfe6": {
                            "nonce": "0x00",
                            "balance": "0x0de0b6b3a7640000",
                            "code": "0x6040600060406000730ffb504ded96a37b7f0b7920145fafbb9d63cee662055730f4600055600160015500",
                            "storage": {
                                "0x00": "0x01",
                                "0x01": "0x01"
                            }
                        }
                    }
                }
            ]
        },
        "config": {
            "blobSchedule": {
                "Cancun": {
                    "target": "0x03",
                    "max": "0x06",
                    "baseFeeUpdateFraction": "0x32f0ed"
                },
                "Prague": {
                    "target": "0x06",
                    "max": "0x09",
                    "baseFeeUpdateFraction": "0x4c6964"
                }
            },
            "chainid": "0x01"
        },
        "_info": {
            "hash": "0x3d3dfee0e4816b2357c4a2279bc8d4932b5560389baa31a1a094104a7afb5b66",
            "comment": "`execution-spec-tests` generated test",
            "filling-transition-tool": "ethereum-spec-evm-resolver 0.0.5",
            "description": "No description available - add a docstring to the python test class or function.",
            "url": "",
            "fixture-format": "state_test",
            "eels-resolution": {
                "git-url": "https://github.com/marioevz/execution-specs.git",
                "branch": "forks/bpo1",
                "commit": "3387e5f4aedfe99becfdc39b444d6371e25e0924"
            }
        }
    }
}