{
    "tests/static/state_tests/stStaticCall/static_callcodecallcall_100_OOGEFiller.json::static_callcodecallcall_100_OOGE[fork_Cancun-state_test-d0]": {
        "env": {
            "currentCoinbase": "0x2adc25665018aa1fe0e6bc666dac8fc2697ff9ba",
            "currentGasLimit": "0x01c9c380",
            "currentNumber": "0x01",
            "currentTimestamp": "0x03e8",
            "currentRandom": "0x0000000000000000000000000000000000000000000000000000000000020000",
            "currentDifficulty": "0x00",
            "currentBaseFee": "0x0a",
            "currentExcessBlobGas": "0x00"
        },
        "pre": {
            "0xb5b2f92d32e75ab207ed0e09b3afef73c6dc4317": {
                "nonce": "0x00",
                "balance": "0x0de0b6b3a7640000",
                "code": "0x",
                "storage": {}
            },
            "0x73a78e520fc661fb98863a06bef274098e086fef": {
                "nonce": "0x00",
                "balance": "0x00",
                "code": "0x5b61c3506080511015601c5760013b506001608051016080526000565b00",
                "storage": {}
            },
            "0x73a78e520fc661fb98863a06bef274098e0870ef": {
                "nonce": "0x00",
                "balance": "0x00",
                "code": "0x600160035500",
                "storage": {}
            },
            "0x73a78e520fc661fb98863a06bef274098e0871ef": {
                "nonce": "0x00",
                "balance": "0x00",
                "code": "0x6040600060406000602035614e34fa50600160035200",
                "storage": {}
            },
            "0x73a78e520fc661fb98863a06bef274098e0872ef": {
                "nonce": "0x00",
                "balance": "0x00",
                "code": "0x60003560205260406000604060007373a78e520fc661fb98863a06bef274098e0871ef620186a0fa50600160035200",
                "storage": {}
            },
            "0x73a78e520fc661fb98863a06bef274098e0873ef": {
                "nonce": "0x00",
                "balance": "0x0de0b6b3a7640000",
                "code": "0x60003560005260406000604060007373a78e520fc661fb98863a06bef274098e0872ef620249f0f4600055600160015500",
                "storage": {}
            }
        },
        "transaction": {
            "nonce": "0x00",
            "gasPrice": "0x0a",
            "gasLimit": [
                "0x029fe0"
            ],
            "to": "0x73a78e520fc661fb98863a06bef274098e0873ef",
            "value": [
                "0x00"
            ],
            "data": [
                "0x00000000000000000000000073a78e520fc661fb98863a06bef274098e0870ef"
            ],
            "sender": "0xb5b2f92d32e75ab207ed0e09b3afef73c6dc4317",
            "secretKey": "0x60e33006674ea88c6f6d1e3273a78e520fc661fb98863a06bef274098e086fef"
        },
        "post": {
            "Cancun": [
                {
                    "hash": "0xea8a4470648b14762085ec60860b080812fbddab60d7762a4721419811940a19",
                    "logs": "0x1dcc4de8dec75d7aab85b567b6ccd41ad312451b948a7413f0a142fd40d49347",
                    "txbytes": "0xf880800a83029fe09473a78e520fc661fb98863a06bef274098e0873ef80a000000000000000000000000073a78e520fc661fb98863a06bef274098e0870ef26a0daada5bb5ffc13f1bc38525f04e2f02cb48e8f0c2615b6357231269be933d70ba06b8a3371ad99ef7dc1470ff529bb57924dee9ac37e9a7c4d14a0cf2b1f0ae806",
                    "indexes": {
                        "data": 0,
                        "gas": 0,
                        "value": 0
                    },
                    "state": {
                        "0xb5b2f92d32e75ab207ed0e09b3afef73c6dc4317": {
                            "nonce": "0x01",
                            "balance": "0x0de0b6b3a755baf4",
                            "code": "0x",
                            "storage": {}
                        },
                        "0x73a78e520fc661fb98863a06bef274098e086fef": {
                            "nonce": "0x00",
                            "balance": "0x00",
                            "code": "0x5b61c3506080511015601c5760013b506001608051016080526000565b00",
                            "storage": {}
                        },
                        "0x73a78e520fc661fb98863a06bef274098e0870ef": {
                            "nonce": "0x00",
                            "balance": "0x00",
                            "code": "0x600160035500",
                            "storage": {}
                        },
                        "0x73a78e520fc661fb98863a06bef274098e0871ef": {
                            "nonce": "0x00",
                            "balance": "0x00",
                            "code": "0x6040600060406000602035614e34fa50600160035200",
                            "storage": {}
                        },
                        "0x73a78e520fc661fb98863a06bef274098e0872ef": {
                            "nonce": "0x00",
                            "balance": "0x00",
                            "code": "0x60003560205260406000604060007373a78e520fc661fb98863a06bef274098e0871ef620186a0fa50600160035200",
                            "storage": {}
                        },
                        "0x73a78e520fc661fb98863a06bef274098e0873ef": {
                            "nonce": "0x00",
                            "balance": "0x0de0b6b3a7640000",
                            "code": "0x60003560005260406000604060007373a78e520fc661fb98863a06bef274098e0872ef620249f0f4600055600160015500",
                            "storage": {
                                "0x00": "0x01",
                                "0x01": "0x01"
                            }
                        }
                    }
                }
            ]
        },
        "config": {
            "blobSchedule": {
                "Cancun": {
                    "target": "0x03",
                    "max": "0x06",
                    "baseFeeUpdateFraction": "0x32f0ed"
                }
            },
            "chainid": "0x01"
        },
        "_info": {
            "hash": "0x032342734d21b241c46c57699c72eacd725d7337b50dcda08797646d827c559b",
            "comment": "`execution-spec-tests` generated test",
            "filling-transition-tool": "ethereum-spec-evm-resolver 0.0.5",
            "description": "No description available - add a docstring to the python test class or function.",
            "url": "",
            "fixture-format": "state_test",
            "eels-resolution": {
                "git-url": "https://github.com/marioevz/execution-specs.git",
                "branch": "forks/bpo1",
                "commit": "3387e5f4aedfe99becfdc39b444d6371e25e0924"
            }
        }
    },
    "tests/static/state_tests/stStaticCall/static_callcodecallcall_100_OOGEFiller.json::static_callcodecallcall_100_OOGE[fork_Cancun-state_test-d1]": {
        "env": {
            "currentCoinbase": "0x2adc25665018aa1fe0e6bc666dac8fc2697ff9ba",
            "currentGasLimit": "0x01c9c380",
            "currentNumber": "0x01",
            "currentTimestamp": "0x03e8",
            "currentRandom": "0x0000000000000000000000000000000000000000000000000000000000020000",
            "currentDifficulty": "0x00",
            "currentBaseFee": "0x0a",
            "currentExcessBlobGas": "0x00"
        },
        "pre": {
            "0xb16bfebd4e7af028365a5d38f2e545932a7f5e47": {
                "nonce": "0x00",
                "balance": "0x0de0b6b3a7640000",
                "code": "0x",
                "storage": {}
            },
            "0x77e64546fa5ede21feb8db5097f38ff961084ff7": {
                "nonce": "0x00",
                "balance": "0x00",
                "code": "0x5b61c3506080511015601c5760013b506001608051016080526000565b00",
                "storage": {}
            },
            "0x77e64546fa5ede21feb8db5097f38ff9610850f7": {
                "nonce": "0x00",
                "balance": "0x00",
                "code": "0x600160035500",
                "storage": {}
            },
            "0x77e64546fa5ede21feb8db5097f38ff9610851f7": {
                "nonce": "0x00",
                "balance": "0x00",
                "code": "0x6040600060406000602035614e34fa50600160035200",
                "storage": {}
            },
            "0x77e64546fa5ede21feb8db5097f38ff9610852f7": {
                "nonce": "0x00",
                "balance": "0x00",
                "code": "0x60003560205260406000604060007377e64546fa5ede21feb8db5097f38ff9610851f7620186a0fa50600160035200",
                "storage": {}
            },
            "0x77e64546fa5ede21feb8db5097f38ff9610853f7": {
                "nonce": "0x00",
                "balance": "0x0de0b6b3a7640000",
                "code": "0x60003560005260406000604060007377e64546fa5ede21feb8db5097f38ff9610852f7620249f0f4600055600160015500",
                "storage": {}
            }
        },
        "transaction": {
            "nonce": "0x00",
            "gasPrice": "0x0a",
            "gasLimit": [
                "0x029fe0"
            ],
            "to": "0x77e64546fa5ede21feb8db5097f38ff9610853f7",
            "value": [
                "0x00"
            ],
            "data": [
                "0x00000000000000000000000077e64546fa5ede21feb8db5097f38ff961084ff7"
            ],
            "sender": "0xb16bfebd4e7af028365a5d38f2e545932a7f5e47",
            "secretKey": "0xa47d33061a9e270da286299877e64546fa5ede21feb8db5097f38ff961084ff7"
        },
        "post": {
            "Cancun": [
                {
                    "hash": "0xdfbd0ed92dd04866279c272d251a071348a4b6affc99effe1a5eca89f737abef",
                    "logs": "0x1dcc4de8dec75d7aab85b567b6ccd41ad312451b948a7413f0a142fd40d49347",
                    "txbytes": "0xf880800a83029fe09477e64546fa5ede21feb8db5097f38ff9610853f780a000000000000000000000000077e64546fa5ede21feb8db5097f38ff961084ff726a04b8aa3432c0457a47b83f69ed28c1a00a305ca5f6fe8877549a7d9e374077afca04a75411cd6f7874b9476c29ae803cfbc9e32075fe76c30ef29010a1949c49c9b",
                    "indexes": {
                        "data": 0,
                        "gas": 0,
                        "value": 0
                    },
                    "state": {
                        "0xb16bfebd4e7af028365a5d38f2e545932a7f5e47": {
                            "nonce": "0x01",
                            "balance": "0x0de0b6b3a755baf4",
                            "code": "0x",
                            "storage": {}
                        },
                        "0x77e64546fa5ede21feb8db5097f38ff961084ff7": {
                            "nonce": "0x00",
                            "balance": "0x00",
                            "code": "0x5b61c3506080511015601c5760013b506001608051016080526000565b00",
                            "storage": {}
                        },
                        "0x77e64546fa5ede21feb8db5097f38ff9610850f7": {
                            "nonce": "0x00",
                            "balance": "0x00",
                            "code": "0x600160035500",
                            "storage": {}
                        },
                        "0x77e64546fa5ede21feb8db5097f38ff9610851f7": {
                            "nonce": "0x00",
                            "balance": "0x00",
                            "code": "0x6040600060406000602035614e34fa50600160035200",
                            "storage": {}
                        },
                        "0x77e64546fa5ede21feb8db5097f38ff9610852f7": {
                            "nonce": "0x00",
                            "balance": "0x00",
                            "code": "0x60003560205260406000604060007377e64546fa5ede21feb8db5097f38ff9610851f7620186a0fa50600160035200",
                            "storage": {}
                        },
                        "0x77e64546fa5ede21feb8db5097f38ff9610853f7": {
                            "nonce": "0x00",
                            "balance": "0x0de0b6b3a7640000",
                            "code": "0x60003560005260406000604060007377e64546fa5ede21feb8db5097f38ff9610852f7620249f0f4600055600160015500",
                            "storage": {
                                "0x00": "0x01",
                                "0x01": "0x01"
                            }
                        }
                    }
                }
            ]
        },
        "config": {
            "blobSchedule": {
                "Cancun": {
                    "target": "0x03",
                    "max": "0x06",
                    "baseFeeUpdateFraction": "0x32f0ed"
                }
            },
            "chainid": "0x01"
        },
        "_info": {
            "hash": "0x89d1612eeb08fdc33323ff8b6072eddbab51ecce2d18bf95a1bb42726377c7c7",
            "comment": "`execution-spec-tests` generated test",
            "filling-transition-tool": "ethereum-spec-evm-resolver 0.0.5",
            "description": "No description available - add a docstring to the python test class or function.",
            "url": "",
            "fixture-format": "state_test",
            "eels-resolution": {
                "git-url": "https://github.com/marioevz/execution-specs.git",
                "branch": "forks/bpo1",
                "commit": "3387e5f4aedfe99becfdc39b444d6371e25e0924"
            }
        }
    },
    "tests/static/state_tests/stStaticCall/static_callcodecallcall_100_OOGEFiller.json::static_callcodecallcall_100_OOGE[fork_Osaka-state_test-d0]": {
        "env": {
            "currentCoinbase": "0x2adc25665018aa1fe0e6bc666dac8fc2697ff9ba",
            "currentGasLimit": "0x01c9c380",
            "currentNumber": "0x01",
            "currentTimestamp": "0x03e8",
            "currentRandom": "0x0000000000000000000000000000000000000000000000000000000000020000",
            "currentDifficulty": "0x00",
            "currentBaseFee": "0x0a",
            "currentExcessBlobGas": "0x00"
        },
        "pre": {
            "0xb5b2f92d32e75ab207ed0e09b3afef73c6dc4317": {
                "nonce": "0x00",
                "balance": "0x0de0b6b3a7640000",
                "code": "0x",
                "storage": {}
            },
            "0x73a78e520fc661fb98863a06bef274098e086fef": {
                "nonce": "0x00",
                "balance": "0x00",
                "code": "0x5b61c3506080511015601c5760013b506001608051016080526000565b00",
                "storage": {}
            },
            "0x73a78e520fc661fb98863a06bef274098e0870ef": {
                "nonce": "0x00",
                "balance": "0x00",
                "code": "0x600160035500",
                "storage": {}
            },
            "0x73a78e520fc661fb98863a06bef274098e0871ef": {
                "nonce": "0x00",
                "balance": "0x00",
                "code": "0x6040600060406000602035614e34fa50600160035200",
                "storage": {}
            },
            "0x73a78e520fc661fb98863a06bef274098e0872ef": {
                "nonce": "0x00",
                "balance": "0x00",
                "code": "0x60003560205260406000604060007373a78e520fc661fb98863a06bef274098e0871ef620186a0fa50600160035200",
                "storage": {}
            },
            "0x73a78e520fc661fb98863a06bef274098e0873ef": {
                "nonce": "0x00",
                "balance": "0x0de0b6b3a7640000",
                "code": "0x60003560005260406000604060007373a78e520fc661fb98863a06bef274098e0872ef620249f0f4600055600160015500",
                "storage": {}
            }
        },
        "transaction": {
            "nonce": "0x00",
            "gasPrice": "0x0a",
            "gasLimit": [
                "0x029fe0"
            ],
            "to": "0x73a78e520fc661fb98863a06bef274098e0873ef",
            "value": [
                "0x00"
            ],
            "data": [
                "0x00000000000000000000000073a78e520fc661fb98863a06bef274098e0870ef"
            ],
            "sender": "0xb5b2f92d32e75ab207ed0e09b3afef73c6dc4317",
            "secretKey": "0x60e33006674ea88c6f6d1e3273a78e520fc661fb98863a06bef274098e086fef"
        },
        "post": {
            "Osaka": [
                {
                    "hash": "0xea8a4470648b14762085ec60860b080812fbddab60d7762a4721419811940a19",
                    "logs": "0x1dcc4de8dec75d7aab85b567b6ccd41ad312451b948a7413f0a142fd40d49347",
                    "txbytes": "0xf880800a83029fe09473a78e520fc661fb98863a06bef274098e0873ef80a000000000000000000000000073a78e520fc661fb98863a06bef274098e0870ef26a0daada5bb5ffc13f1bc38525f04e2f02cb48e8f0c2615b6357231269be933d70ba06b8a3371ad99ef7dc1470ff529bb57924dee9ac37e9a7c4d14a0cf2b1f0ae806",
                    "indexes": {
                        "data": 0,
                        "gas": 0,
                        "value": 0
                    },
                    "state": {
                        "0xb5b2f92d32e75ab207ed0e09b3afef73c6dc4317": {
                            "nonce": "0x01",
                            "balance": "0x0de0b6b3a755baf4",
                            "code": "0x",
                            "storage": {}
                        },
                        "0x73a78e520fc661fb98863a06bef274098e086fef": {
                            "nonce": "0x00",
                            "balance": "0x00",
                            "code": "0x5b61c3506080511015601c5760013b506001608051016080526000565b00",
                            "storage": {}
                        },
                        "0x73a78e520fc661fb98863a06bef274098e0870ef": {
                            "nonce": "0x00",
                            "balance": "0x00",
                            "code": "0x600160035500",
                            "storage": {}
                        },
                        "0x73a78e520fc661fb98863a06bef274098e0871ef": {
                            "nonce": "0x00",
                            "balance": "0x00",
                            "code": "0x6040600060406000602035614e34fa50600160035200",
                            "storage": {}
                        },
                        "0x73a78e520fc661fb98863a06bef274098e0872ef": {
                            "nonce": "0x00",
                            "balance": "0x00",
                            "code": "0x60003560205260406000604060007373a78e520fc661fb98863a06bef274098e0871ef620186a0fa50600160035200",
                            "storage": {}
                        },
                        "0x73a78e520fc661fb98863a06bef274098e0873ef": {
                            "nonce": "0x00",
                            "balance": "0x0de0b6b3a7640000",
                            "code": "0x60003560005260406000604060007373a78e520fc661fb98863a06bef274098e0872ef620249f0f4600055600160015500",
                            "storage": {
                                "0x00": "0x01",
                                "0x01": "0x01"
                            }
                        }
                    }
                }
            ]
        },
        "config": {
            "blobSchedule": {
                "Cancun": {
                    "target": "0x03",
                    "max": "0x06",
                    "baseFeeUpdateFraction": "0x32f0ed"
                },
                "Prague": {
                    "target": "0x06",
                    "max": "0x09",
                    "baseFeeUpdateFraction": "0x4c6964"
                },
                "Osaka": {
                    "target": "0x06",
                    "max": "0x09",
                    "baseFeeUpdateFraction": "0x4c6964"
                }
            },
            "chainid": "0x01"
        },
        "_info": {
            "hash": "0x04232c7be5f92a41a19f1d2292313405c95b9f552d069b14c2d189e86c4901ad",
            "comment": "`execution-spec-tests` generated test",
            "filling-transition-tool": "ethereum-spec-evm-resolver 0.0.5",
            "description": "No description available - add a docstring to the python test class or function.",
            "url": "",
            "fixture-format": "state_test",
            "eels-resolution": {
                "git-url": "https://github.com/marioevz/execution-specs.git",
                "branch": "forks/bpo1",
                "commit": "3387e5f4aedfe99becfdc39b444d6371e25e0924"
            }
        }
    },
    "tests/static/state_tests/stStaticCall/static_callcodecallcall_100_OOGEFiller.json::static_callcodecallcall_100_OOGE[fork_Osaka-state_test-d1]": {
        "env": {
            "currentCoinbase": "0x2adc25665018aa1fe0e6bc666dac8fc2697ff9ba",
            "currentGasLimit": "0x01c9c380",
            "currentNumber": "0x01",
            "currentTimestamp": "0x03e8",
            "currentRandom": "0x0000000000000000000000000000000000000000000000000000000000020000",
            "currentDifficulty": "0x00",
            "currentBaseFee": "0x0a",
            "currentExcessBlobGas": "0x00"
        },
        "pre": {
            "0xb16bfebd4e7af028365a5d38f2e545932a7f5e47": {
                "nonce": "0x00",
                "balance": "0x0de0b6b3a7640000",
                "code": "0x",
                "storage": {}
            },
            "0x77e64546fa5ede21feb8db5097f38ff961084ff7": {
                "nonce": "0x00",
                "balance": "0x00",
                "code": "0x5b61c3506080511015601c5760013b506001608051016080526000565b00",
                "storage": {}
            },
            "0x77e64546fa5ede21feb8db5097f38ff9610850f7": {
                "nonce": "0x00",
                "balance": "0x00",
                "code": "0x600160035500",
                "storage": {}
            },
            "0x77e64546fa5ede21feb8db5097f38ff9610851f7": {
                "nonce": "0x00",
                "balance": "0x00",
                "code": "0x6040600060406000602035614e34fa50600160035200",
                "storage": {}
            },
            "0x77e64546fa5ede21feb8db5097f38ff9610852f7": {
                "nonce": "0x00",
                "balance": "0x00",
                "code": "0x60003560205260406000604060007377e64546fa5ede21feb8db5097f38ff9610851f7620186a0fa50600160035200",
                "storage": {}
            },
            "0x77e64546fa5ede21feb8db5097f38ff9610853f7": {
                "nonce": "0x00",
                "balance": "0x0de0b6b3a7640000",
                "code": "0x60003560005260406000604060007377e64546fa5ede21feb8db5097f38ff9610852f7620249f0f4600055600160015500",
                "storage": {}
            }
        },
        "transaction": {
            "nonce": "0x00",
            "gasPrice": "0x0a",
            "gasLimit": [
                "0x029fe0"
            ],
            "to": "0x77e64546fa5ede21feb8db5097f38ff9610853f7",
            "value": [
                "0x00"
            ],
            "data": [
                "0x00000000000000000000000077e64546fa5ede21feb8db5097f38ff961084ff7"
            ],
            "sender": "0xb16bfebd4e7af028365a5d38f2e545932a7f5e47",
            "secretKey": "0xa47d33061a9e270da286299877e64546fa5ede21feb8db5097f38ff961084ff7"
        },
        "post": {
            "Osaka": [
                {
                    "hash": "0xdfbd0ed92dd04866279c272d251a071348a4b6affc99effe1a5eca89f737abef",
                    "logs": "0x1dcc4de8dec75d7aab85b567b6ccd41ad312451b948a7413f0a142fd40d49347",
                    "txbytes": "0xf880800a83029fe09477e64546fa5ede21feb8db5097f38ff9610853f780a000000000000000000000000077e64546fa5ede21feb8db5097f38ff961084ff726a04b8aa3432c0457a47b83f69ed28c1a00a305ca5f6fe8877549a7d9e374077afca04a75411cd6f7874b9476c29ae803cfbc9e32075fe76c30ef29010a1949c49c9b",
                    "indexes": {
                        "data": 0,
                        "gas": 0,
                        "value": 0
                    },
                    "state": {
                        "0xb16bfebd4e7af028365a5d38f2e545932a7f5e47": {
                            "nonce": "0x01",
                            "balance": "0x0de0b6b3a755baf4",
                            "code": "0x",
                            "storage": {}
                        },
                        "0x77e64546fa5ede21feb8db5097f38ff961084ff7": {
                            "nonce": "0x00",
                            "balance": "0x00",
                            "code": "0x5b61c3506080511015601c5760013b506001608051016080526000565b00",
                            "storage": {}
                        },
                        "0x77e64546fa5ede21feb8db5097f38ff9610850f7": {
                            "nonce": "0x00",
                            "balance": "0x00",
                            "code": "0x600160035500",
                            "storage": {}
                        },
                        "0x77e64546fa5ede21feb8db5097f38ff9610851f7": {
                            "nonce": "0x00",
                            "balance": "0x00",
                            "code": "0x6040600060406000602035614e34fa50600160035200",
                            "storage": {}
                        },
                        "0x77e64546fa5ede21feb8db5097f38ff9610852f7": {
                            "nonce": "0x00",
                            "balance": "0x00",
                            "code": "0x60003560205260406000604060007377e64546fa5ede21feb8db5097f38ff9610851f7620186a0fa50600160035200",
                            "storage": {}
                        },
                        "0x77e64546fa5ede21feb8db5097f38ff9610853f7": {
                            "nonce": "0x00",
                            "balance": "0x0de0b6b3a7640000",
                            "code": "0x60003560005260406000604060007377e64546fa5ede21feb8db5097f38ff9610852f7620249f0f4600055600160015500",
                            "storage": {
                                "0x00": "0x01",
                                "0x01": "0x01"
                            }
                        }
                    }
                }
            ]
        },
        "config": {
            "blobSchedule": {
                "Cancun": {
                    "target": "0x03",
                    "max": "0x06",
                    "baseFeeUpdateFraction": "0x32f0ed"
                },
                "Prague": {
                    "target": "0x06",
                    "max": "0x09",
                    "baseFeeUpdateFraction": "0x4c6964"
                },
                "Osaka": {
                    "target": "0x06",
                    "max": "0x09",
                    "baseFeeUpdateFraction": "0x4c6964"
                }
            },
            "chainid": "0x01"
        },
        "_info": {
            "hash": "0xf561a2551cf4d9de18d543598cd52263e4ea01c6e9617891dbb9756c987598ef",
            "comment": "`execution-spec-tests` generated test",
            "filling-transition-tool": "ethereum-spec-evm-resolver 0.0.5",
            "description": "No description available - add a docstring to the python test class or function.",
            "url": "",
            "fixture-format": "state_test",
            "eels-resolution": {
                "git-url": "https://github.com/marioevz/execution-specs.git",
                "branch": "forks/bpo1",
                "commit": "3387e5f4aedfe99becfdc39b444d6371e25e0924"
            }
        }
    },
    "tests/static/state_tests/stStaticCall/static_callcodecallcall_100_OOGEFiller.json::static_callcodecallcall_100_OOGE[fork_Prague-state_test-d0]": {
        "env": {
            "currentCoinbase": "0x2adc25665018aa1fe0e6bc666dac8fc2697ff9ba",
            "currentGasLimit": "0x01c9c380",
            "currentNumber": "0x01",
            "currentTimestamp": "0x03e8",
            "currentRandom": "0x0000000000000000000000000000000000000000000000000000000000020000",
            "currentDifficulty": "0x00",
            "currentBaseFee": "0x0a",
            "currentExcessBlobGas": "0x00"
        },
        "pre": {
            "0xb5b2f92d32e75ab207ed0e09b3afef73c6dc4317": {
                "nonce": "0x00",
                "balance": "0x0de0b6b3a7640000",
                "code": "0x",
                "storage": {}
            },
            "0x73a78e520fc661fb98863a06bef274098e086fef": {
                "nonce": "0x00",
                "balance": "0x00",
                "code": "0x5b61c3506080511015601c5760013b506001608051016080526000565b00",
                "storage": {}
            },
            "0x73a78e520fc661fb98863a06bef274098e0870ef": {
                "nonce": "0x00",
                "balance": "0x00",
                "code": "0x600160035500",
                "storage": {}
            },
            "0x73a78e520fc661fb98863a06bef274098e0871ef": {
                "nonce": "0x00",
                "balance": "0x00",
                "code": "0x6040600060406000602035614e34fa50600160035200",
                "storage": {}
            },
            "0x73a78e520fc661fb98863a06bef274098e0872ef": {
                "nonce": "0x00",
                "balance": "0x00",
                "code": "0x60003560205260406000604060007373a78e520fc661fb98863a06bef274098e0871ef620186a0fa50600160035200",
                "storage": {}
            },
            "0x73a78e520fc661fb98863a06bef274098e0873ef": {
                "nonce": "0x00",
                "balance": "0x0de0b6b3a7640000",
                "code": "0x60003560005260406000604060007373a78e520fc661fb98863a06bef274098e0872ef620249f0f4600055600160015500",
                "storage": {}
            }
        },
        "transaction": {
            "nonce": "0x00",
            "gasPrice": "0x0a",
            "gasLimit": [
                "0x029fe0"
            ],
            "to": "0x73a78e520fc661fb98863a06bef274098e0873ef",
            "value": [
                "0x00"
            ],
            "data": [
                "0x00000000000000000000000073a78e520fc661fb98863a06bef274098e0870ef"
            ],
            "sender": "0xb5b2f92d32e75ab207ed0e09b3afef73c6dc4317",
            "secretKey": "0x60e33006674ea88c6f6d1e3273a78e520fc661fb98863a06bef274098e086fef"
        },
        "post": {
            "Prague": [
                {
                    "hash": "0xea8a4470648b14762085ec60860b080812fbddab60d7762a4721419811940a19",
                    "logs": "0x1dcc4de8dec75d7aab85b567b6ccd41ad312451b948a7413f0a142fd40d49347",
                    "txbytes": "0xf880800a83029fe09473a78e520fc661fb98863a06bef274098e0873ef80a000000000000000000000000073a78e520fc661fb98863a06bef274098e0870ef26a0daada5bb5ffc13f1bc38525f04e2f02cb48e8f0c2615b6357231269be933d70ba06b8a3371ad99ef7dc1470ff529bb57924dee9ac37e9a7c4d14a0cf2b1f0ae806",
                    "indexes": {
                        "data": 0,
                        "gas": 0,
                        "value": 0
                    },
                    "state": {
                        "0xb5b2f92d32e75ab207ed0e09b3afef73c6dc4317": {
                            "nonce": "0x01",
                            "balance": "0x0de0b6b3a755baf4",
                            "code": "0x",
                            "storage": {}
                        },
                        "0x73a78e520fc661fb98863a06bef274098e086fef": {
                            "nonce": "0x00",
                            "balance": "0x00",
                            "code": "0x5b61c3506080511015601c5760013b506001608051016080526000565b00",
                            "storage": {}
                        },
                        "0x73a78e520fc661fb98863a06bef274098e0870ef": {
                            "nonce": "0x00",
                            "balance": "0x00",
                            "code": "0x600160035500",
                            "storage": {}
                        },
                        "0x73a78e520fc661fb98863a06bef274098e0871ef": {
                            "nonce": "0x00",
                            "balance": "0x00",
                            "code": "0x6040600060406000602035614e34fa50600160035200",
                            "storage": {}
                        },
                        "0x73a78e520fc661fb98863a06bef274098e0872ef": {
                            "nonce": "0x00",
                            "balance": "0x00",
                            "code": "0x60003560205260406000604060007373a78e520fc661fb98863a06bef274098e0871ef620186a0fa50600160035200",
                            "storage": {}
                        },
                        "0x73a78e520fc661fb98863a06bef274098e0873ef": {
                            "nonce": "0x00",
                            "balance": "0x0de0b6b3a7640000",
                            "code": "0x60003560005260406000604060007373a78e520fc661fb98863a06bef274098e0872ef620249f0f4600055600160015500",
                            "storage": {
                                "0x00": "0x01",
                                "0x01": "0x01"
                            }
                        }
                    }
                }
            ]
        },
        "config": {
            "blobSchedule": {
                "Cancun": {
                    "target": "0x03",
                    "max": "0x06",
                    "baseFeeUpdateFraction": "0x32f0ed"
                },
                "Prague": {
                    "target": "0x06",
                    "max": "0x09",
                    "baseFeeUpdateFraction": "0x4c6964"
                }
            },
            "chainid": "0x01"
        },
        "_info": {
            "hash": "0xb464036c24b254cf4304919bc866718c5c9ce20c447aadfaf2085868364f70cb",
            "comment": "`execution-spec-tests` generated test",
            "filling-transition-tool": "ethereum-spec-evm-resolver 0.0.5",
            "description": "No description available - add a docstring to the python test class or function.",
            "url": "",
            "fixture-format": "state_test",
            "eels-resolution": {
                "git-url": "https://github.com/marioevz/execution-specs.git",
                "branch": "forks/bpo1",
                "commit": "3387e5f4aedfe99becfdc39b444d6371e25e0924"
            }
        }
    },
    "tests/static/state_tests/stStaticCall/static_callcodecallcall_100_OOGEFiller.json::static_callcodecallcall_100_OOGE[fork_Prague-state_test-d1]": {
        "env": {
            "currentCoinbase": "0x2adc25665018aa1fe0e6bc666dac8fc2697ff9ba",
            "currentGasLimit": "0x01c9c380",
            "currentNumber": "0x01",
            "currentTimestamp": "0x03e8",
            "currentRandom": "0x0000000000000000000000000000000000000000000000000000000000020000",
            "currentDifficulty": "0x00",
            "currentBaseFee": "0x0a",
            "currentExcessBlobGas": "0x00"
        },
        "pre": {
            "0xb16bfebd4e7af028365a5d38f2e545932a7f5e47": {
                "nonce": "0x00",
                "balance": "0x0de0b6b3a7640000",
                "code": "0x",
                "storage": {}
            },
            "0x77e64546fa5ede21feb8db5097f38ff961084ff7": {
                "nonce": "0x00",
                "balance": "0x00",
                "code": "0x5b61c3506080511015601c5760013b506001608051016080526000565b00",
                "storage": {}
            },
            "0x77e64546fa5ede21feb8db5097f38ff9610850f7": {
                "nonce": "0x00",
                "balance": "0x00",
                "code": "0x600160035500",
                "storage": {}
            },
            "0x77e64546fa5ede21feb8db5097f38ff9610851f7": {
                "nonce": "0x00",
                "balance": "0x00",
                "code": "0x6040600060406000602035614e34fa50600160035200",
                "storage": {}
            },
            "0x77e64546fa5ede21feb8db5097f38ff9610852f7": {
                "nonce": "0x00",
                "balance": "0x00",
                "code": "0x60003560205260406000604060007377e64546fa5ede21feb8db5097f38ff9610851f7620186a0fa50600160035200",
                "storage": {}
            },
            "0x77e64546fa5ede21feb8db5097f38ff9610853f7": {
                "nonce": "0x00",
                "balance": "0x0de0b6b3a7640000",
                "code": "0x60003560005260406000604060007377e64546fa5ede21feb8db5097f38ff9610852f7620249f0f4600055600160015500",
                "storage": {}
            }
        },
        "transaction": {
            "nonce": "0x00",
            "gasPrice": "0x0a",
            "gasLimit": [
                "0x029fe0"
            ],
            "to": "0x77e64546fa5ede21feb8db5097f38ff9610853f7",
            "value": [
                "0x00"
            ],
            "data": [
                "0x00000000000000000000000077e64546fa5ede21feb8db5097f38ff961084ff7"
            ],
            "sender": "0xb16bfebd4e7af028365a5d38f2e545932a7f5e47",
            "secretKey": "0xa47d33061a9e270da286299877e64546fa5ede21feb8db5097f38ff961084ff7"
        },
        "post": {
            "Prague": [
                {
                    "hash": "0xdfbd0ed92dd04866279c272d251a071348a4b6affc99effe1a5eca89f737abef",
                    "logs": "0x1dcc4de8dec75d7aab85b567b6ccd41ad312451b948a7413f0a142fd40d49347",
                    "txbytes": "0xf880800a83029fe09477e64546fa5ede21feb8db5097f38ff9610853f780a000000000000000000000000077e64546fa5ede21feb8db5097f38ff961084ff726a04b8aa3432c0457a47b83f69ed28c1a00a305ca5f6fe8877549a7d9e374077afca04a75411cd6f7874b9476c29ae803cfbc9e32075fe76c30ef29010a1949c49c9b",
                    "indexes": {
                        "data": 0,
                        "gas": 0,
                        "value": 0
                    },
                    "state": {
                        "0xb16bfebd4e7af028365a5d38f2e545932a7f5e47": {
                            "nonce": "0x01",
                            "balance": "0x0de0b6b3a755baf4",
                            "code": "0x",
                            "storage": {}
                        },
                        "0x77e64546fa5ede21feb8db5097f38ff961084ff7": {
                            "nonce": "0x00",
                            "balance": "0x00",
                            "code": "0x5b61c3506080511015601c5760013b506001608051016080526000565b00",
                            "storage": {}
                        },
                        "0x77e64546fa5ede21feb8db5097f38ff9610850f7": {
                            "nonce": "0x00",
                            "balance": "0x00",
                            "code": "0x600160035500",
                            "storage": {}
                        },
                        "0x77e64546fa5ede21feb8db5097f38ff9610851f7": {
                            "nonce": "0x00",
                            "balance": "0x00",
                            "code": "0x6040600060406000602035614e34fa50600160035200",
                            "storage": {}
                        },
                        "0x77e64546fa5ede21feb8db5097f38ff9610852f7": {
                            "nonce": "0x00",
                            "balance": "0x00",
                            "code": "0x60003560205260406000604060007377e64546fa5ede21feb8db5097f38ff9610851f7620186a0fa50600160035200",
                            "storage": {}
                        },
                        "0x77e64546fa5ede21feb8db5097f38ff9610853f7": {
                            "nonce": "0x00",
                            "balance": "0x0de0b6b3a7640000",
                            "code": "0x60003560005260406000604060007377e64546fa5ede21feb8db5097f38ff9610852f7620249f0f4600055600160015500",
                            "storage": {
                                "0x00": "0x01",
                                "0x01": "0x01"
                            }
                        }
                    }
                }
            ]
        },
        "config": {
            "blobSchedule": {
                "Cancun": {
                    "target": "0x03",
                    "max": "0x06",
                    "baseFeeUpdateFraction": "0x32f0ed"
                },
                "Prague": {
                    "target": "0x06",
                    "max": "0x09",
                    "baseFeeUpdateFraction": "0x4c6964"
                }
            },
            "chainid": "0x01"
        },
        "_info": {
            "hash": "0x5f541a623e750bc3002c421898352792f0189174a01f4a7c84e27d492cfd6031",
            "comment": "`execution-spec-tests` generated test",
            "filling-transition-tool": "ethereum-spec-evm-resolver 0.0.5",
            "description": "No description available - add a docstring to the python test class or function.",
            "url": "",
            "fixture-format": "state_test",
            "eels-resolution": {
                "git-url": "https://github.com/marioevz/execution-specs.git",
                "branch": "forks/bpo1",
                "commit": "3387e5f4aedfe99becfdc39b444d6371e25e0924"
            }
        }
    }
}