{
    "tests/static/state_tests/stStaticCall/static_makeMoneyFiller.json::static_makeMoney[fork_Cancun-state_test-]": {
        "env": {
            "currentCoinbase": "0x2adc25665018aa1fe0e6bc666dac8fc2697ff9ba",
            "currentGasLimit": "0x0f4240",
            "currentNumber": "0x01",
            "currentTimestamp": "0x03e8",
            "currentRandom": "0x0000000000000000000000000000000000000000000000000000000000020000",
            "currentDifficulty": "0x00",
            "currentBaseFee": "0x0a",
            "currentExcessBlobGas": "0x00"
        },
        "pre": {
            "0x76b9c2a9f6a1da893a2a5fce3f9c61a6bdb958f9": {
                "nonce": "0x00",
                "balance": "0x0de0b6b3a7640000",
                "code": "0x600160015532600255",
                "storage": {}
            },
            "0x76b9c2a9f6a1da893a2a5fce3f9c61a6bdb959f9": {
                "nonce": "0x00",
                "balance": "0x0de0b6b3a7640000",
                "code": "0x7b601080600c6000396000f2006000355415600957006020356000355560005260006000600060007376b9c2a9f6a1da893a2a5fce3f9c61a6bdb958f97fffffffffffffffffffffffffffffffffffffffffffffffffffffffffffffffecfa00",
                "storage": {}
            },
            "0x61f19af6476528b57428f0acab0f7927f338ea1a": {
                "nonce": "0x00",
                "balance": "0x05f5e100",
                "code": "0x",
                "storage": {}
            }
        },
        "transaction": {
            "nonce": "0x00",
            "gasPrice": "0x0a",
            "gasLimit": [
                "0x037c94"
            ],
            "to": "0x76b9c2a9f6a1da893a2a5fce3f9c61a6bdb959f9",
            "value": [
                "0x0a"
            ],
            "data": [
                "0x"
            ],
            "sender": "0x61f19af6476528b57428f0acab0f7927f338ea1a",
            "secretKey": "0x09c41454b6b67ce1de8b26e076b9c2a9f6a1da893a2a5fce3f9c61a6bdb958f9"
        },
        "post": {
            "Cancun": [
                {
                    "hash": "0xdc6fa8f310ab585dd5408ccd19afba18ffcf99143b57ce993ad44d32bde5c53e",
                    "logs": "0x1dcc4de8dec75d7aab85b567b6ccd41ad312451b948a7413f0a142fd40d49347",
                    "txbytes": "0xf860800a83037c949476b9c2a9f6a1da893a2a5fce3f9c61a6bdb959f90a8026a001c683c4708e0883de421130e77a13dacebeaa8611d339da15854075ac3bfb96a0181084a7cf0982493dd195a9e362d8938be7251be31e7761fd768bb94381693e",
                    "indexes": {
                        "data": 0,
                        "gas": 0,
                        "value": 0
                    },
                    "state": {
                        "0x76b9c2a9f6a1da893a2a5fce3f9c61a6bdb958f9": {
                            "nonce": "0x00",
                            "balance": "0x0de0b6b3a7640000",
                            "code": "0x600160015532600255",
                            "storage": {}
                        },
                        "0x76b9c2a9f6a1da893a2a5fce3f9c61a6bdb959f9": {
                            "nonce": "0x00",
                            "balance": "0x0de0b6b3a764000a",
                            "code": "0x7b601080600c6000396000f2006000355415600957006020356000355560005260006000600060007376b9c2a9f6a1da893a2a5fce3f9c61a6bdb958f97fffffffffffffffffffffffffffffffffffffffffffffffffffffffffffffffecfa00",
                            "storage": {}
                        },
                        "0x61f19af6476528b57428f0acab0f7927f338ea1a": {
                            "nonce": "0x01",
                            "balance": "0x05d38038",
                            "code": "0x",
                            "storage": {}
                        }
                    }
                }
            ]
        },
        "config": {
            "blobSchedule": {
                "Cancun": {
                    "target": "0x03",
                    "max": "0x06",
                    "baseFeeUpdateFraction": "0x32f0ed"
                }
            },
            "chainid": "0x01"
        },
        "_info": {
            "hash": "0x979ea7cc6066661b8b4dfed42d30b8e6273b31d43230377301e1ac442f402709",
            "comment": "`execution-spec-tests` generated test",
            "filling-transition-tool": "ethereum-spec-evm-resolver 0.0.5",
            "description": "No description available - add a docstring to the python test class or function.",
            "url": "",
            "fixture-format": "state_test",
            "eels-resolution": {
                "git-url": "https://github.com/ethereum/execution-specs.git",
                "branch": "forks/bpos",
                "commit": "7aacb2c54111391af5e98c505d5010b5698a770f"
            }
        }
    },
    "tests/static/state_tests/stStaticCall/static_makeMoneyFiller.json::static_makeMoney[fork_Osaka-state_test-]": {
        "env": {
            "currentCoinbase": "0x2adc25665018aa1fe0e6bc666dac8fc2697ff9ba",
            "currentGasLimit": "0x0f4240",
            "currentNumber": "0x01",
            "currentTimestamp": "0x03e8",
            "currentRandom": "0x0000000000000000000000000000000000000000000000000000000000020000",
            "currentDifficulty": "0x00",
            "currentBaseFee": "0x0a",
            "currentExcessBlobGas": "0x00"
        },
        "pre": {
            "0x76b9c2a9f6a1da893a2a5fce3f9c61a6bdb958f9": {
                "nonce": "0x00",
                "balance": "0x0de0b6b3a7640000",
                "code": "0x600160015532600255",
                "storage": {}
            },
            "0x76b9c2a9f6a1da893a2a5fce3f9c61a6bdb959f9": {
                "nonce": "0x00",
                "balance": "0x0de0b6b3a7640000",
                "code": "0x7b601080600c6000396000f2006000355415600957006020356000355560005260006000600060007376b9c2a9f6a1da893a2a5fce3f9c61a6bdb958f97fffffffffffffffffffffffffffffffffffffffffffffffffffffffffffffffecfa00",
                "storage": {}
            },
            "0x61f19af6476528b57428f0acab0f7927f338ea1a": {
                "nonce": "0x00",
                "balance": "0x05f5e100",
                "code": "0x",
                "storage": {}
            }
        },
        "transaction": {
            "nonce": "0x00",
            "gasPrice": "0x0a",
            "gasLimit": [
                "0x037c94"
            ],
            "to": "0x76b9c2a9f6a1da893a2a5fce3f9c61a6bdb959f9",
            "value": [
                "0x0a"
            ],
            "data": [
                "0x"
            ],
            "sender": "0x61f19af6476528b57428f0acab0f7927f338ea1a",
            "secretKey": "0x09c41454b6b67ce1de8b26e076b9c2a9f6a1da893a2a5fce3f9c61a6bdb958f9"
        },
        "post": {
            "Osaka": [
                {
                    "hash": "0xdc6fa8f310ab585dd5408ccd19afba18ffcf99143b57ce993ad44d32bde5c53e",
                    "logs": "0x1dcc4de8dec75d7aab85b567b6ccd41ad312451b948a7413f0a142fd40d49347",
                    "txbytes": "0xf860800a83037c949476b9c2a9f6a1da893a2a5fce3f9c61a6bdb959f90a8026a001c683c4708e0883de421130e77a13dacebeaa8611d339da15854075ac3bfb96a0181084a7cf0982493dd195a9e362d8938be7251be31e7761fd768bb94381693e",
                    "indexes": {
                        "data": 0,
                        "gas": 0,
                        "value": 0
                    },
                    "state": {
                        "0x76b9c2a9f6a1da893a2a5fce3f9c61a6bdb958f9": {
                            "nonce": "0x00",
                            "balance": "0x0de0b6b3a7640000",
                            "code": "0x600160015532600255",
                            "storage": {}
                        },
                        "0x76b9c2a9f6a1da893a2a5fce3f9c61a6bdb959f9": {
                            "nonce": "0x00",
                            "balance": "0x0de0b6b3a764000a",
                            "code": "0x7b601080600c6000396000f2006000355415600957006020356000355560005260006000600060007376b9c2a9f6a1da893a2a5fce3f9c61a6bdb958f97fffffffffffffffffffffffffffffffffffffffffffffffffffffffffffffffecfa00",
                            "storage": {}
                        },
                        "0x61f19af6476528b57428f0acab0f7927f338ea1a": {
                            "nonce": "0x01",
                            "balance": "0x05d38038",
                            "code": "0x",
                            "storage": {}
                        }
                    }
                }
            ]
        },
        "config": {
            "blobSchedule": {
                "Cancun": {
                    "target": "0x03",
                    "max": "0x06",
                    "baseFeeUpdateFraction": "0x32f0ed"
                },
                "Prague": {
                    "target": "0x06",
                    "max": "0x09",
                    "baseFeeUpdateFraction": "0x4c6964"
                },
                "Osaka": {
                    "target": "0x06",
                    "max": "0x09",
                    "baseFeeUpdateFraction": "0x4c6964"
                }
            },
            "chainid": "0x01"
        },
        "_info": {
            "hash": "0xf185bf80ec624612d605a0438a2a4876c11208e07d880a0ce6a58cd262edb5dd",
            "comment": "`execution-spec-tests` generated test",
            "filling-transition-tool": "ethereum-spec-evm-resolver 0.0.5",
            "description": "No description available - add a docstring to the python test class or function.",
            "url": "",
            "fixture-format": "state_test",
            "eels-resolution": {
                "git-url": "https://github.com/ethereum/execution-specs.git",
                "branch": "forks/bpos",
                "commit": "7aacb2c54111391af5e98c505d5010b5698a770f"
            }
        }
    },
    "tests/static/state_tests/stStaticCall/static_makeMoneyFiller.json::static_makeMoney[fork_Prague-state_test-]": {
        "env": {
            "currentCoinbase": "0x2adc25665018aa1fe0e6bc666dac8fc2697ff9ba",
            "currentGasLimit": "0x0f4240",
            "currentNumber": "0x01",
            "currentTimestamp": "0x03e8",
            "currentRandom": "0x0000000000000000000000000000000000000000000000000000000000020000",
            "currentDifficulty": "0x00",
            "currentBaseFee": "0x0a",
            "currentExcessBlobGas": "0x00"
        },
        "pre": {
            "0x76b9c2a9f6a1da893a2a5fce3f9c61a6bdb958f9": {
                "nonce": "0x00",
                "balance": "0x0de0b6b3a7640000",
                "code": "0x600160015532600255",
                "storage": {}
            },
            "0x76b9c2a9f6a1da893a2a5fce3f9c61a6bdb959f9": {
                "nonce": "0x00",
                "balance": "0x0de0b6b3a7640000",
                "code": "0x7b601080600c6000396000f2006000355415600957006020356000355560005260006000600060007376b9c2a9f6a1da893a2a5fce3f9c61a6bdb958f97fffffffffffffffffffffffffffffffffffffffffffffffffffffffffffffffecfa00",
                "storage": {}
            },
            "0x61f19af6476528b57428f0acab0f7927f338ea1a": {
                "nonce": "0x00",
                "balance": "0x05f5e100",
                "code": "0x",
                "storage": {}
            }
        },
        "transaction": {
            "nonce": "0x00",
            "gasPrice": "0x0a",
            "gasLimit": [
                "0x037c94"
            ],
            "to": "0x76b9c2a9f6a1da893a2a5fce3f9c61a6bdb959f9",
            "value": [
                "0x0a"
            ],
            "data": [
                "0x"
            ],
            "sender": "0x61f19af6476528b57428f0acab0f7927f338ea1a",
            "secretKey": "0x09c41454b6b67ce1de8b26e076b9c2a9f6a1da893a2a5fce3f9c61a6bdb958f9"
        },
        "post": {
            "Prague": [
                {
                    "hash": "0xdc6fa8f310ab585dd5408ccd19afba18ffcf99143b57ce993ad44d32bde5c53e",
                    "logs": "0x1dcc4de8dec75d7aab85b567b6ccd41ad312451b948a7413f0a142fd40d49347",
                    "txbytes": "0xf860800a83037c949476b9c2a9f6a1da893a2a5fce3f9c61a6bdb959f90a8026a001c683c4708e0883de421130e77a13dacebeaa8611d339da15854075ac3bfb96a0181084a7cf0982493dd195a9e362d8938be7251be31e7761fd768bb94381693e",
                    "indexes": {
                        "data": 0,
                        "gas": 0,
                        "value": 0
                    },
                    "state": {
                        "0x76b9c2a9f6a1da893a2a5fce3f9c61a6bdb958f9": {
                            "nonce": "0x00",
                            "balance": "0x0de0b6b3a7640000",
                            "code": "0x600160015532600255",
                            "storage": {}
                        },
                        "0x76b9c2a9f6a1da893a2a5fce3f9c61a6bdb959f9": {
                            "nonce": "0x00",
                            "balance": "0x0de0b6b3a764000a",
                            "code": "0x7b601080600c6000396000f2006000355415600957006020356000355560005260006000600060007376b9c2a9f6a1da893a2a5fce3f9c61a6bdb958f97fffffffffffffffffffffffffffffffffffffffffffffffffffffffffffffffecfa00",
                            "storage": {}
                        },
                        "0x61f19af6476528b57428f0acab0f7927f338ea1a": {
                            "nonce": "0x01",
                            "balance": "0x05d38038",
                            "code": "0x",
                            "storage": {}
                        }
                    }
                }
            ]
        },
        "config": {
            "blobSchedule": {
                "Cancun": {
                    "target": "0x03",
                    "max": "0x06",
                    "baseFeeUpdateFraction": "0x32f0ed"
                },
                "Prague": {
                    "target": "0x06",
                    "max": "0x09",
                    "baseFeeUpdateFraction": "0x4c6964"
                }
            },
            "chainid": "0x01"
        },
        "_info": {
            "hash": "0xfb9678a54c585af61d7cfa64966102a7844ceee21ee7d114b42fd654d3d0638b",
            "comment": "`execution-spec-tests` generated test",
            "filling-transition-tool": "ethereum-spec-evm-resolver 0.0.5",
            "description": "No description available - add a docstring to the python test class or function.",
            "url": "",
            "fixture-format": "state_test",
            "eels-resolution": {
                "git-url": "https://github.com/ethereum/execution-specs.git",
                "branch": "forks/bpos",
                "commit": "7aacb2c54111391af5e98c505d5010b5698a770f"
            }
        }
    }
}