{
    "tests/static/state_tests/stStaticCall/static_ABAcallsSuicide1Filler.json::static_ABAcallsSuicide1[fork_Cancun-state_test-d0]": {
        "env": {
            "currentCoinbase": "0x2adc25665018aa1fe0e6bc666dac8fc2697ff9ba",
            "currentGasLimit": "0x05f5e100",
            "currentNumber": "0x01",
            "currentTimestamp": "0x03e8",
            "currentRandom": "0x0000000000000000000000000000000000000000000000000000000000020000",
            "currentDifficulty": "0x00",
            "currentBaseFee": "0x0a",
            "currentExcessBlobGas": "0x00"
        },
        "pre": {
            "0x095e7baea6a6c7c4c2dfeb977efac326af552d87": {
                "nonce": "0x00",
                "balance": "0x0de0b6b3a7640000",
                "code": "0x600035600052600060006020600073945304eb96065b2a98b57a48a06ae28d285a71b5600035fa00",
                "storage": {}
            },
            "0x945304eb96065b2a98b57a48a06ae28d285a71b5": {
                "nonce": "0x00",
                "balance": "0x17",
                "code": "0x600035600052600060006020600073095e7baea6a6c7c4c2dfeb977efac326af552d8761c35060003503fa50730f572e5295c57f15886f9b263e2f6d2d6c7b5ec6ff00",
                "storage": {}
            },
            "0xa94f5374fce5edbc8e2a8697c15331677e6ebf0b": {
                "nonce": "0x00",
                "balance": "0x0de0b6b3a7640000",
                "code": "0x",
                "storage": {}
            }
        },
        "transaction": {
            "nonce": "0x00",
            "gasPrice": "0x0a",
            "gasLimit": [
                "0x989680"
            ],
            "to": "0x095e7baea6a6c7c4c2dfeb977efac326af552d87",
            "value": [
                "0x0186a0"
            ],
            "data": [
                "0x00000000000000000000000000000000000000000000000000000000000186a0"
            ],
            "sender": "0xa94f5374fce5edbc8e2a8697c15331677e6ebf0b",
            "secretKey": "0x45a915e4d060149eb4365960e6a7a45f334393093061116b197e3240065ff2d8"
        },
        "post": {
            "Cancun": [
                {
                    "hash": "0x6f842928b21307e115c04cdc386f528d37bc609f26a1285d6bbadefc9102ead9",
                    "logs": "0x1dcc4de8dec75d7aab85b567b6ccd41ad312451b948a7413f0a142fd40d49347",
                    "txbytes": "0xf883800a8398968094095e7baea6a6c7c4c2dfeb977efac326af552d87830186a0a000000000000000000000000000000000000000000000000000000000000186a025a0c1b538b3602d831fb1477001180cb19375c210948ed41040201cea07aed203dea007c535f12bed512a273374a84336b2f2b24a4105b2fca58f1513959b32db2db0",
                    "indexes": {
                        "data": 0,
                        "gas": 0,
                        "value": 0
                    },
                    "state": {
                        "0x095e7baea6a6c7c4c2dfeb977efac326af552d87": {
                            "nonce": "0x00",
                            "balance": "0x0de0b6b3a76586a0",
                            "code": "0x600035600052600060006020600073945304eb96065b2a98b57a48a06ae28d285a71b5600035fa00",
                            "storage": {}
                        },
                        "0x945304eb96065b2a98b57a48a06ae28d285a71b5": {
                            "nonce": "0x00",
                            "balance": "0x17",
                            "code": "0x600035600052600060006020600073095e7baea6a6c7c4c2dfeb977efac326af552d8761c35060003503fa50730f572e5295c57f15886f9b263e2f6d2d6c7b5ec6ff00",
                            "storage": {}
                        },
                        "0xa94f5374fce5edbc8e2a8697c15331677e6ebf0b": {
                            "nonce": "0x01",
                            "balance": "0x0de0b6b3a74f9570",
                            "code": "0x",
                            "storage": {}
                        }
                    }
                }
            ]
        },
        "config": {
            "blobSchedule": {
                "Cancun": {
                    "target": "0x03",
                    "max": "0x06",
                    "baseFeeUpdateFraction": "0x32f0ed"
                }
            },
            "chainid": "0x01"
        },
        "_info": {
            "hash": "0x1e104978d15f8dc2e7e47114a84f0f4190b14a94db431db0c5736adc99a2b3ad",
            "comment": "`execution-spec-tests` generated test",
            "filling-transition-tool": "ethereum-spec-evm-resolver 0.0.5",
            "description": "No description available - add a docstring to the python test class or function.",
            "url": "",
            "fixture-format": "state_test",
            "eels-resolution": {
                "git-url": "https://github.com/marioevz/execution-specs.git",
                "branch": "forks/bpo1",
                "commit": "3387e5f4aedfe99becfdc39b444d6371e25e0924"
            }
        }
    },
    "tests/static/state_tests/stStaticCall/static_ABAcallsSuicide1Filler.json::static_ABAcallsSuicide1[fork_Cancun-state_test-d1]": {
        "env": {
            "currentCoinbase": "0x2adc25665018aa1fe0e6bc666dac8fc2697ff9ba",
            "currentGasLimit": "0x05f5e100",
            "currentNumber": "0x01",
            "currentTimestamp": "0x03e8",
            "currentRandom": "0x0000000000000000000000000000000000000000000000000000000000020000",
            "currentDifficulty": "0x00",
            "currentBaseFee": "0x0a",
            "currentExcessBlobGas": "0x00"
        },
        "pre": {
            "0x095e7baea6a6c7c4c2dfeb977efac326af552d87": {
                "nonce": "0x00",
                "balance": "0x0de0b6b3a7640000",
                "code": "0x600035600052600060006020600073945304eb96065b2a98b57a48a06ae28d285a71b5600035fa00",
                "storage": {}
            },
            "0x945304eb96065b2a98b57a48a06ae28d285a71b5": {
                "nonce": "0x00",
                "balance": "0x17",
                "code": "0x600035600052600060006020600073095e7baea6a6c7c4c2dfeb977efac326af552d8761c35060003503fa50730f572e5295c57f15886f9b263e2f6d2d6c7b5ec6ff00",
                "storage": {}
            },
            "0xa94f5374fce5edbc8e2a8697c15331677e6ebf0b": {
                "nonce": "0x00",
                "balance": "0x0de0b6b3a7640000",
                "code": "0x",
                "storage": {}
            }
        },
        "transaction": {
            "nonce": "0x00",
            "gasPrice": "0x0a",
            "gasLimit": [
                "0x989680"
            ],
            "to": "0x095e7baea6a6c7c4c2dfeb977efac326af552d87",
            "value": [
                "0x0186a0"
            ],
            "data": [
                "0x00000000000000000000000000000000000000000000000000000000000486a0"
            ],
            "sender": "0xa94f5374fce5edbc8e2a8697c15331677e6ebf0b",
            "secretKey": "0x45a915e4d060149eb4365960e6a7a45f334393093061116b197e3240065ff2d8"
        },
        "post": {
            "Cancun": [
                {
                    "hash": "0x3922003f2993a6ce1cea60084dfb7e7fb78c947b7b26e168c091c9ace0874c33",
                    "logs": "0x1dcc4de8dec75d7aab85b567b6ccd41ad312451b948a7413f0a142fd40d49347",
                    "txbytes": "0xf883800a8398968094095e7baea6a6c7c4c2dfeb977efac326af552d87830186a0a000000000000000000000000000000000000000000000000000000000000486a025a05b95845b7474e9545611fbb4147155b8b16fe09607bf88801449cbe11b6d4785a001bade5495c5d55fcbd19560b5d40da710568fe262b44a37b4f6b5c0c893d000",
                    "indexes": {
                        "data": 0,
                        "gas": 0,
                        "value": 0
                    },
                    "state": {
                        "0x095e7baea6a6c7c4c2dfeb977efac326af552d87": {
                            "nonce": "0x00",
                            "balance": "0x0de0b6b3a76586a0",
                            "code": "0x600035600052600060006020600073945304eb96065b2a98b57a48a06ae28d285a71b5600035fa00",
                            "storage": {}
                        },
                        "0x945304eb96065b2a98b57a48a06ae28d285a71b5": {
                            "nonce": "0x00",
                            "balance": "0x17",
                            "code": "0x600035600052600060006020600073095e7baea6a6c7c4c2dfeb977efac326af552d8761c35060003503fa50730f572e5295c57f15886f9b263e2f6d2d6c7b5ec6ff00",
                            "storage": {}
                        },
                        "0xa94f5374fce5edbc8e2a8697c15331677e6ebf0b": {
                            "nonce": "0x01",
                            "balance": "0x0de0b6b3a7319570",
                            "code": "0x",
                            "storage": {}
                        }
                    }
                }
            ]
        },
        "config": {
            "blobSchedule": {
                "Cancun": {
                    "target": "0x03",
                    "max": "0x06",
                    "baseFeeUpdateFraction": "0x32f0ed"
                }
            },
            "chainid": "0x01"
        },
        "_info": {
            "hash": "0x80feb6b0119a1e9c34748302aaf66f7415421c8bb5da0b0f712854e18ba44c09",
            "comment": "`execution-spec-tests` generated test",
            "filling-transition-tool": "ethereum-spec-evm-resolver 0.0.5",
            "description": "No description available - add a docstring to the python test class or function.",
            "url": "",
            "fixture-format": "state_test",
            "eels-resolution": {
                "git-url": "https://github.com/marioevz/execution-specs.git",
                "branch": "forks/bpo1",
                "commit": "3387e5f4aedfe99becfdc39b444d6371e25e0924"
            }
        }
    },
    "tests/static/state_tests/stStaticCall/static_ABAcallsSuicide1Filler.json::static_ABAcallsSuicide1[fork_Osaka-state_test-d0]": {
        "env": {
            "currentCoinbase": "0x2adc25665018aa1fe0e6bc666dac8fc2697ff9ba",
            "currentGasLimit": "0x05f5e100",
            "currentNumber": "0x01",
            "currentTimestamp": "0x03e8",
            "currentRandom": "0x0000000000000000000000000000000000000000000000000000000000020000",
            "currentDifficulty": "0x00",
            "currentBaseFee": "0x0a",
            "currentExcessBlobGas": "0x00"
        },
        "pre": {
            "0x095e7baea6a6c7c4c2dfeb977efac326af552d87": {
                "nonce": "0x00",
                "balance": "0x0de0b6b3a7640000",
                "code": "0x600035600052600060006020600073945304eb96065b2a98b57a48a06ae28d285a71b5600035fa00",
                "storage": {}
            },
            "0x945304eb96065b2a98b57a48a06ae28d285a71b5": {
                "nonce": "0x00",
                "balance": "0x17",
                "code": "0x600035600052600060006020600073095e7baea6a6c7c4c2dfeb977efac326af552d8761c35060003503fa50730f572e5295c57f15886f9b263e2f6d2d6c7b5ec6ff00",
                "storage": {}
            },
            "0xa94f5374fce5edbc8e2a8697c15331677e6ebf0b": {
                "nonce": "0x00",
                "balance": "0x0de0b6b3a7640000",
                "code": "0x",
                "storage": {}
            }
        },
        "transaction": {
            "nonce": "0x00",
            "gasPrice": "0x0a",
            "gasLimit": [
                "0x989680"
            ],
            "to": "0x095e7baea6a6c7c4c2dfeb977efac326af552d87",
            "value": [
                "0x0186a0"
            ],
            "data": [
                "0x00000000000000000000000000000000000000000000000000000000000186a0"
            ],
            "sender": "0xa94f5374fce5edbc8e2a8697c15331677e6ebf0b",
            "secretKey": "0x45a915e4d060149eb4365960e6a7a45f334393093061116b197e3240065ff2d8"
        },
        "post": {
            "Osaka": [
                {
                    "hash": "0x6f842928b21307e115c04cdc386f528d37bc609f26a1285d6bbadefc9102ead9",
                    "logs": "0x1dcc4de8dec75d7aab85b567b6ccd41ad312451b948a7413f0a142fd40d49347",
                    "txbytes": "0xf883800a8398968094095e7baea6a6c7c4c2dfeb977efac326af552d87830186a0a000000000000000000000000000000000000000000000000000000000000186a025a0c1b538b3602d831fb1477001180cb19375c210948ed41040201cea07aed203dea007c535f12bed512a273374a84336b2f2b24a4105b2fca58f1513959b32db2db0",
                    "indexes": {
                        "data": 0,
                        "gas": 0,
                        "value": 0
                    },
                    "state": {
                        "0x095e7baea6a6c7c4c2dfeb977efac326af552d87": {
                            "nonce": "0x00",
                            "balance": "0x0de0b6b3a76586a0",
                            "code": "0x600035600052600060006020600073945304eb96065b2a98b57a48a06ae28d285a71b5600035fa00",
                            "storage": {}
                        },
                        "0x945304eb96065b2a98b57a48a06ae28d285a71b5": {
                            "nonce": "0x00",
                            "balance": "0x17",
                            "code": "0x600035600052600060006020600073095e7baea6a6c7c4c2dfeb977efac326af552d8761c35060003503fa50730f572e5295c57f15886f9b263e2f6d2d6c7b5ec6ff00",
                            "storage": {}
                        },
                        "0xa94f5374fce5edbc8e2a8697c15331677e6ebf0b": {
                            "nonce": "0x01",
                            "balance": "0x0de0b6b3a74f9570",
                            "code": "0x",
                            "storage": {}
                        }
                    }
                }
            ]
        },
        "config": {
            "blobSchedule": {
                "Cancun": {
                    "target": "0x03",
                    "max": "0x06",
                    "baseFeeUpdateFraction": "0x32f0ed"
                },
                "Prague": {
                    "target": "0x06",
                    "max": "0x09",
                    "baseFeeUpdateFraction": "0x4c6964"
                },
                "Osaka": {
                    "target": "0x06",
                    "max": "0x09",
                    "baseFeeUpdateFraction": "0x4c6964"
                }
            },
            "chainid": "0x01"
        },
        "_info": {
            "hash": "0xe0e6b337216edf2f6c7461ba68c8491c83659be385aac0362185f4dba27b3530",
            "comment": "`execution-spec-tests` generated test",
            "filling-transition-tool": "ethereum-spec-evm-resolver 0.0.5",
            "description": "No description available - add a docstring to the python test class or function.",
            "url": "",
            "fixture-format": "state_test",
            "eels-resolution": {
                "git-url": "https://github.com/marioevz/execution-specs.git",
                "branch": "forks/bpo1",
                "commit": "3387e5f4aedfe99becfdc39b444d6371e25e0924"
            }
        }
    },
    "tests/static/state_tests/stStaticCall/static_ABAcallsSuicide1Filler.json::static_ABAcallsSuicide1[fork_Osaka-state_test-d1]": {
        "env": {
            "currentCoinbase": "0x2adc25665018aa1fe0e6bc666dac8fc2697ff9ba",
            "currentGasLimit": "0x05f5e100",
            "currentNumber": "0x01",
            "currentTimestamp": "0x03e8",
            "currentRandom": "0x0000000000000000000000000000000000000000000000000000000000020000",
            "currentDifficulty": "0x00",
            "currentBaseFee": "0x0a",
            "currentExcessBlobGas": "0x00"
        },
        "pre": {
            "0x095e7baea6a6c7c4c2dfeb977efac326af552d87": {
                "nonce": "0x00",
                "balance": "0x0de0b6b3a7640000",
                "code": "0x600035600052600060006020600073945304eb96065b2a98b57a48a06ae28d285a71b5600035fa00",
                "storage": {}
            },
            "0x945304eb96065b2a98b57a48a06ae28d285a71b5": {
                "nonce": "0x00",
                "balance": "0x17",
                "code": "0x600035600052600060006020600073095e7baea6a6c7c4c2dfeb977efac326af552d8761c35060003503fa50730f572e5295c57f15886f9b263e2f6d2d6c7b5ec6ff00",
                "storage": {}
            },
            "0xa94f5374fce5edbc8e2a8697c15331677e6ebf0b": {
                "nonce": "0x00",
                "balance": "0x0de0b6b3a7640000",
                "code": "0x",
                "storage": {}
            }
        },
        "transaction": {
            "nonce": "0x00",
            "gasPrice": "0x0a",
            "gasLimit": [
                "0x989680"
            ],
            "to": "0x095e7baea6a6c7c4c2dfeb977efac326af552d87",
            "value": [
                "0x0186a0"
            ],
            "data": [
                "0x00000000000000000000000000000000000000000000000000000000000486a0"
            ],
            "sender": "0xa94f5374fce5edbc8e2a8697c15331677e6ebf0b",
            "secretKey": "0x45a915e4d060149eb4365960e6a7a45f334393093061116b197e3240065ff2d8"
        },
        "post": {
            "Osaka": [
                {
                    "hash": "0x3922003f2993a6ce1cea60084dfb7e7fb78c947b7b26e168c091c9ace0874c33",
                    "logs": "0x1dcc4de8dec75d7aab85b567b6ccd41ad312451b948a7413f0a142fd40d49347",
                    "txbytes": "0xf883800a8398968094095e7baea6a6c7c4c2dfeb977efac326af552d87830186a0a000000000000000000000000000000000000000000000000000000000000486a025a05b95845b7474e9545611fbb4147155b8b16fe09607bf88801449cbe11b6d4785a001bade5495c5d55fcbd19560b5d40da710568fe262b44a37b4f6b5c0c893d000",
                    "indexes": {
                        "data": 0,
                        "gas": 0,
                        "value": 0
                    },
                    "state": {
                        "0x095e7baea6a6c7c4c2dfeb977efac326af552d87": {
                            "nonce": "0x00",
                            "balance": "0x0de0b6b3a76586a0",
                            "code": "0x600035600052600060006020600073945304eb96065b2a98b57a48a06ae28d285a71b5600035fa00",
                            "storage": {}
                        },
                        "0x945304eb96065b2a98b57a48a06ae28d285a71b5": {
                            "nonce": "0x00",
                            "balance": "0x17",
                            "code": "0x600035600052600060006020600073095e7baea6a6c7c4c2dfeb977efac326af552d8761c35060003503fa50730f572e5295c57f15886f9b263e2f6d2d6c7b5ec6ff00",
                            "storage": {}
                        },
                        "0xa94f5374fce5edbc8e2a8697c15331677e6ebf0b": {
                            "nonce": "0x01",
                            "balance": "0x0de0b6b3a7319570",
                            "code": "0x",
                            "storage": {}
                        }
                    }
                }
            ]
        },
        "config": {
            "blobSchedule": {
                "Cancun": {
                    "target": "0x03",
                    "max": "0x06",
                    "baseFeeUpdateFraction": "0x32f0ed"
                },
                "Prague": {
                    "target": "0x06",
                    "max": "0x09",
                    "baseFeeUpdateFraction": "0x4c6964"
                },
                "Osaka": {
                    "target": "0x06",
                    "max": "0x09",
                    "baseFeeUpdateFraction": "0x4c6964"
                }
            },
            "chainid": "0x01"
        },
        "_info": {
            "hash": "0x4470262c0671788e6155eb4cada43c42a32bb474b0ac2d0e3460c0443ce0c566",
            "comment": "`execution-spec-tests` generated test",
            "filling-transition-tool": "ethereum-spec-evm-resolver 0.0.5",
            "description": "No description available - add a docstring to the python test class or function.",
            "url": "",
            "fixture-format": "state_test",
            "eels-resolution": {
                "git-url": "https://github.com/marioevz/execution-specs.git",
                "branch": "forks/bpo1",
                "commit": "3387e5f4aedfe99becfdc39b444d6371e25e0924"
            }
        }
    },
    "tests/static/state_tests/stStaticCall/static_ABAcallsSuicide1Filler.json::static_ABAcallsSuicide1[fork_Prague-state_test-d0]": {
        "env": {
            "currentCoinbase": "0x2adc25665018aa1fe0e6bc666dac8fc2697ff9ba",
            "currentGasLimit": "0x05f5e100",
            "currentNumber": "0x01",
            "currentTimestamp": "0x03e8",
            "currentRandom": "0x0000000000000000000000000000000000000000000000000000000000020000",
            "currentDifficulty": "0x00",
            "currentBaseFee": "0x0a",
            "currentExcessBlobGas": "0x00"
        },
        "pre": {
            "0x095e7baea6a6c7c4c2dfeb977efac326af552d87": {
                "nonce": "0x00",
                "balance": "0x0de0b6b3a7640000",
                "code": "0x600035600052600060006020600073945304eb96065b2a98b57a48a06ae28d285a71b5600035fa00",
                "storage": {}
            },
            "0x945304eb96065b2a98b57a48a06ae28d285a71b5": {
                "nonce": "0x00",
                "balance": "0x17",
                "code": "0x600035600052600060006020600073095e7baea6a6c7c4c2dfeb977efac326af552d8761c35060003503fa50730f572e5295c57f15886f9b263e2f6d2d6c7b5ec6ff00",
                "storage": {}
            },
            "0xa94f5374fce5edbc8e2a8697c15331677e6ebf0b": {
                "nonce": "0x00",
                "balance": "0x0de0b6b3a7640000",
                "code": "0x",
                "storage": {}
            }
        },
        "transaction": {
            "nonce": "0x00",
            "gasPrice": "0x0a",
            "gasLimit": [
                "0x989680"
            ],
            "to": "0x095e7baea6a6c7c4c2dfeb977efac326af552d87",
            "value": [
                "0x0186a0"
            ],
            "data": [
                "0x00000000000000000000000000000000000000000000000000000000000186a0"
            ],
            "sender": "0xa94f5374fce5edbc8e2a8697c15331677e6ebf0b",
            "secretKey": "0x45a915e4d060149eb4365960e6a7a45f334393093061116b197e3240065ff2d8"
        },
        "post": {
            "Prague": [
                {
                    "hash": "0x6f842928b21307e115c04cdc386f528d37bc609f26a1285d6bbadefc9102ead9",
                    "logs": "0x1dcc4de8dec75d7aab85b567b6ccd41ad312451b948a7413f0a142fd40d49347",
                    "txbytes": "0xf883800a8398968094095e7baea6a6c7c4c2dfeb977efac326af552d87830186a0a000000000000000000000000000000000000000000000000000000000000186a025a0c1b538b3602d831fb1477001180cb19375c210948ed41040201cea07aed203dea007c535f12bed512a273374a84336b2f2b24a4105b2fca58f1513959b32db2db0",
                    "indexes": {
                        "data": 0,
                        "gas": 0,
                        "value": 0
                    },
                    "state": {
                        "0x095e7baea6a6c7c4c2dfeb977efac326af552d87": {
                            "nonce": "0x00",
                            "balance": "0x0de0b6b3a76586a0",
                            "code": "0x600035600052600060006020600073945304eb96065b2a98b57a48a06ae28d285a71b5600035fa00",
                            "storage": {}
                        },
                        "0x945304eb96065b2a98b57a48a06ae28d285a71b5": {
                            "nonce": "0x00",
                            "balance": "0x17",
                            "code": "0x600035600052600060006020600073095e7baea6a6c7c4c2dfeb977efac326af552d8761c35060003503fa50730f572e5295c57f15886f9b263e2f6d2d6c7b5ec6ff00",
                            "storage": {}
                        },
                        "0xa94f5374fce5edbc8e2a8697c15331677e6ebf0b": {
                            "nonce": "0x01",
                            "balance": "0x0de0b6b3a74f9570",
                            "code": "0x",
                            "storage": {}
                        }
                    }
                }
            ]
        },
        "config": {
            "blobSchedule": {
                "Cancun": {
                    "target": "0x03",
                    "max": "0x06",
                    "baseFeeUpdateFraction": "0x32f0ed"
                },
                "Prague": {
                    "target": "0x06",
                    "max": "0x09",
                    "baseFeeUpdateFraction": "0x4c6964"
                }
            },
            "chainid": "0x01"
        },
        "_info": {
            "hash": "0x6e2b22745c9ecaa07ac6776c028bc083d83ce671b85976dcf840216f67fb7069",
            "comment": "`execution-spec-tests` generated test",
            "filling-transition-tool": "ethereum-spec-evm-resolver 0.0.5",
            "description": "No description available - add a docstring to the python test class or function.",
            "url": "",
            "fixture-format": "state_test",
            "eels-resolution": {
                "git-url": "https://github.com/marioevz/execution-specs.git",
                "branch": "forks/bpo1",
                "commit": "3387e5f4aedfe99becfdc39b444d6371e25e0924"
            }
        }
    },
    "tests/static/state_tests/stStaticCall/static_ABAcallsSuicide1Filler.json::static_ABAcallsSuicide1[fork_Prague-state_test-d1]": {
        "env": {
            "currentCoinbase": "0x2adc25665018aa1fe0e6bc666dac8fc2697ff9ba",
            "currentGasLimit": "0x05f5e100",
            "currentNumber": "0x01",
            "currentTimestamp": "0x03e8",
            "currentRandom": "0x0000000000000000000000000000000000000000000000000000000000020000",
            "currentDifficulty": "0x00",
            "currentBaseFee": "0x0a",
            "currentExcessBlobGas": "0x00"
        },
        "pre": {
            "0x095e7baea6a6c7c4c2dfeb977efac326af552d87": {
                "nonce": "0x00",
                "balance": "0x0de0b6b3a7640000",
                "code": "0x600035600052600060006020600073945304eb96065b2a98b57a48a06ae28d285a71b5600035fa00",
                "storage": {}
            },
            "0x945304eb96065b2a98b57a48a06ae28d285a71b5": {
                "nonce": "0x00",
                "balance": "0x17",
                "code": "0x600035600052600060006020600073095e7baea6a6c7c4c2dfeb977efac326af552d8761c35060003503fa50730f572e5295c57f15886f9b263e2f6d2d6c7b5ec6ff00",
                "storage": {}
            },
            "0xa94f5374fce5edbc8e2a8697c15331677e6ebf0b": {
                "nonce": "0x00",
                "balance": "0x0de0b6b3a7640000",
                "code": "0x",
                "storage": {}
            }
        },
        "transaction": {
            "nonce": "0x00",
            "gasPrice": "0x0a",
            "gasLimit": [
                "0x989680"
            ],
            "to": "0x095e7baea6a6c7c4c2dfeb977efac326af552d87",
            "value": [
                "0x0186a0"
            ],
            "data": [
                "0x00000000000000000000000000000000000000000000000000000000000486a0"
            ],
            "sender": "0xa94f5374fce5edbc8e2a8697c15331677e6ebf0b",
            "secretKey": "0x45a915e4d060149eb4365960e6a7a45f334393093061116b197e3240065ff2d8"
        },
        "post": {
            "Prague": [
                {
                    "hash": "0x3922003f2993a6ce1cea60084dfb7e7fb78c947b7b26e168c091c9ace0874c33",
                    "logs": "0x1dcc4de8dec75d7aab85b567b6ccd41ad312451b948a7413f0a142fd40d49347",
                    "txbytes": "0xf883800a8398968094095e7baea6a6c7c4c2dfeb977efac326af552d87830186a0a000000000000000000000000000000000000000000000000000000000000486a025a05b95845b7474e9545611fbb4147155b8b16fe09607bf88801449cbe11b6d4785a001bade5495c5d55fcbd19560b5d40da710568fe262b44a37b4f6b5c0c893d000",
                    "indexes": {
                        "data": 0,
                        "gas": 0,
                        "value": 0
                    },
                    "state": {
                        "0x095e7baea6a6c7c4c2dfeb977efac326af552d87": {
                            "nonce": "0x00",
                            "balance": "0x0de0b6b3a76586a0",
                            "code": "0x600035600052600060006020600073945304eb96065b2a98b57a48a06ae28d285a71b5600035fa00",
                            "storage": {}
                        },
                        "0x945304eb96065b2a98b57a48a06ae28d285a71b5": {
                            "nonce": "0x00",
                            "balance": "0x17",
                            "code": "0x600035600052600060006020600073095e7baea6a6c7c4c2dfeb977efac326af552d8761c35060003503fa50730f572e5295c57f15886f9b263e2f6d2d6c7b5ec6ff00",
                            "storage": {}
                        },
                        "0xa94f5374fce5edbc8e2a8697c15331677e6ebf0b": {
                            "nonce": "0x01",
                            "balance": "0x0de0b6b3a7319570",
                            "code": "0x",
                            "storage": {}
                        }
                    }
                }
            ]
        },
        "config": {
            "blobSchedule": {
                "Cancun": {
                    "target": "0x03",
                    "max": "0x06",
                    "baseFeeUpdateFraction": "0x32f0ed"
                },
                "Prague": {
                    "target": "0x06",
                    "max": "0x09",
                    "baseFeeUpdateFraction": "0x4c6964"
                }
            },
            "chainid": "0x01"
        },
        "_info": {
            "hash": "0x4c090c434be897ee599562349ce16f0e59ee921b68cfd17763c4998e2455df1c",
            "comment": "`execution-spec-tests` generated test",
            "filling-transition-tool": "ethereum-spec-evm-resolver 0.0.5",
            "description": "No description available - add a docstring to the python test class or function.",
            "url": "",
            "fixture-format": "state_test",
            "eels-resolution": {
                "git-url": "https://github.com/marioevz/execution-specs.git",
                "branch": "forks/bpo1",
                "commit": "3387e5f4aedfe99becfdc39b444d6371e25e0924"
            }
        }
    }
}