{
    "tests/static/state_tests/stStaticCall/static_CallEcrecover2Filler.json::static_CallEcrecover2[fork_Cancun-state_test-]": {
        "env": {
            "currentCoinbase": "0x2adc25665018aa1fe0e6bc666dac8fc2697ff9ba",
            "currentGasLimit": "0x989680",
            "currentNumber": "0x01",
            "currentTimestamp": "0x03e8",
            "currentRandom": "0x0000000000000000000000000000000000000000000000000000000000020000",
            "currentDifficulty": "0x00",
            "currentBaseFee": "0x0a",
            "currentExcessBlobGas": "0x00"
        },
        "pre": {
            "0xe1c3baafcd19a22cd404261035ec78cd40f78bfc": {
                "nonce": "0x00",
                "balance": "0x0de0b6b3a7640000",
                "code": "0x",
                "storage": {}
            },
            "0xf0edce7b7e73176d89e3b1ec65e9fa0e55b55d82": {
                "nonce": "0x00",
                "balance": "0x01312d00",
                "code": "0x7f18c547e4f7b0f325ad1e56f57e26c745b09a3e503d86e00e5255ff7f715d3d1c600052601c6020527f73b1693892219d736caba55bdb67216e485557ea6b6af75f37096c9aa6a5a75f6021527feeb940b1d03b21e36b0e47e79769f095fe2ab855bd91e3a38756b7d75a9c454960415260206061606160006001620186a0fa60025560a060020a60615106600055600054321460015500",
                "storage": {}
            }
        },
        "transaction": {
            "nonce": "0x00",
            "gasPrice": "0x0a",
            "gasLimit": [
                "0x0592a8"
            ],
            "to": "0xf0edce7b7e73176d89e3b1ec65e9fa0e55b55d82",
            "value": [
                "0x0186a0"
            ],
            "data": [
                "0x"
            ],
            "sender": "0xe1c3baafcd19a22cd404261035ec78cd40f78bfc",
            "secretKey": "0x8c0ba074fa54f058bda202ecf0edce7b7e73176d89e3b1ec65e9fa0e55b55d82"
        },
        "post": {
            "Cancun": [
                {
                    "hash": "0xc78f5538e7979599573b3fdf1c577b511bc27a843664f7ec1f8535bfb37653a8",
                    "logs": "0x1dcc4de8dec75d7aab85b567b6ccd41ad312451b948a7413f0a142fd40d49347",
                    "txbytes": "0xf863800a830592a894f0edce7b7e73176d89e3b1ec65e9fa0e55b55d82830186a08025a08063fbaab8dcbc1ee9f9215caea93c00fdc5b6c46906cfa83cc8bfafefa9a0e6a032c142d78c04c30ef564cc66f425db6193ceac82c85c3f98ee6b927cdb21b79c",
                    "indexes": {
                        "data": 0,
                        "gas": 0,
                        "value": 0
                    },
                    "state": {
                        "0xe1c3baafcd19a22cd404261035ec78cd40f78bfc": {
                            "nonce": "0x01",
                            "balance": "0x0de0b6b3a75ab68a",
                            "code": "0x",
                            "storage": {}
                        },
                        "0xf0edce7b7e73176d89e3b1ec65e9fa0e55b55d82": {
                            "nonce": "0x00",
                            "balance": "0x0132b3a0",
                            "code": "0x7f18c547e4f7b0f325ad1e56f57e26c745b09a3e503d86e00e5255ff7f715d3d1c600052601c6020527f73b1693892219d736caba55bdb67216e485557ea6b6af75f37096c9aa6a5a75f6021527feeb940b1d03b21e36b0e47e79769f095fe2ab855bd91e3a38756b7d75a9c454960415260206061606160006001620186a0fa60025560a060020a60615106600055600054321460015500",
                            "storage": {
                                "0x02": "0x01"
                            }
                        }
                    }
                }
            ]
        },
        "config": {
            "blobSchedule": {
                "Cancun": {
                    "target": "0x03",
                    "max": "0x06",
                    "baseFeeUpdateFraction": "0x32f0ed"
                }
            },
            "chainid": "0x01"
        },
        "_info": {
            "hash": "0xdc4b759e403df00f87e663998349a2eba55d5af5fbfaedfdba6f2b26933bdf0f",
            "comment": "`execution-spec-tests` generated test",
            "filling-transition-tool": "ethereum-spec-evm-resolver 0.0.5",
            "description": "No description available - add a docstring to the python test class or function.",
            "url": "",
            "fixture-format": "state_test",
            "eels-resolution": {
                "git-url": "https://github.com/ethereum/execution-specs.git",
                "branch": "forks/bpos",
                "commit": "7aacb2c54111391af5e98c505d5010b5698a770f"
            }
        }
    },
    "tests/static/state_tests/stStaticCall/static_CallEcrecover2Filler.json::static_CallEcrecover2[fork_Osaka-state_test-]": {
        "env": {
            "currentCoinbase": "0x2adc25665018aa1fe0e6bc666dac8fc2697ff9ba",
            "currentGasLimit": "0x989680",
            "currentNumber": "0x01",
            "currentTimestamp": "0x03e8",
            "currentRandom": "0x0000000000000000000000000000000000000000000000000000000000020000",
            "currentDifficulty": "0x00",
            "currentBaseFee": "0x0a",
            "currentExcessBlobGas": "0x00"
        },
        "pre": {
            "0xe1c3baafcd19a22cd404261035ec78cd40f78bfc": {
                "nonce": "0x00",
                "balance": "0x0de0b6b3a7640000",
                "code": "0x",
                "storage": {}
            },
            "0xf0edce7b7e73176d89e3b1ec65e9fa0e55b55d82": {
                "nonce": "0x00",
                "balance": "0x01312d00",
                "code": "0x7f18c547e4f7b0f325ad1e56f57e26c745b09a3e503d86e00e5255ff7f715d3d1c600052601c6020527f73b1693892219d736caba55bdb67216e485557ea6b6af75f37096c9aa6a5a75f6021527feeb940b1d03b21e36b0e47e79769f095fe2ab855bd91e3a38756b7d75a9c454960415260206061606160006001620186a0fa60025560a060020a60615106600055600054321460015500",
                "storage": {}
            }
        },
        "transaction": {
            "nonce": "0x00",
            "gasPrice": "0x0a",
            "gasLimit": [
                "0x0592a8"
            ],
            "to": "0xf0edce7b7e73176d89e3b1ec65e9fa0e55b55d82",
            "value": [
                "0x0186a0"
            ],
            "data": [
                "0x"
            ],
            "sender": "0xe1c3baafcd19a22cd404261035ec78cd40f78bfc",
            "secretKey": "0x8c0ba074fa54f058bda202ecf0edce7b7e73176d89e3b1ec65e9fa0e55b55d82"
        },
        "post": {
            "Osaka": [
                {
                    "hash": "0xc78f5538e7979599573b3fdf1c577b511bc27a843664f7ec1f8535bfb37653a8",
                    "logs": "0x1dcc4de8dec75d7aab85b567b6ccd41ad312451b948a7413f0a142fd40d49347",
                    "txbytes": "0xf863800a830592a894f0edce7b7e73176d89e3b1ec65e9fa0e55b55d82830186a08025a08063fbaab8dcbc1ee9f9215caea93c00fdc5b6c46906cfa83cc8bfafefa9a0e6a032c142d78c04c30ef564cc66f425db6193ceac82c85c3f98ee6b927cdb21b79c",
                    "indexes": {
                        "data": 0,
                        "gas": 0,
                        "value": 0
                    },
                    "state": {
                        "0xe1c3baafcd19a22cd404261035ec78cd40f78bfc": {
                            "nonce": "0x01",
                            "balance": "0x0de0b6b3a75ab68a",
                            "code": "0x",
                            "storage": {}
                        },
                        "0xf0edce7b7e73176d89e3b1ec65e9fa0e55b55d82": {
                            "nonce": "0x00",
                            "balance": "0x0132b3a0",
                            "code": "0x7f18c547e4f7b0f325ad1e56f57e26c745b09a3e503d86e00e5255ff7f715d3d1c600052601c6020527f73b1693892219d736caba55bdb67216e485557ea6b6af75f37096c9aa6a5a75f6021527feeb940b1d03b21e36b0e47e79769f095fe2ab855bd91e3a38756b7d75a9c454960415260206061606160006001620186a0fa60025560a060020a60615106600055600054321460015500",
                            "storage": {
                                "0x02": "0x01"
                            }
                        }
                    }
                }
            ]
        },
        "config": {
            "blobSchedule": {
                "Cancun": {
                    "target": "0x03",
                    "max": "0x06",
                    "baseFeeUpdateFraction": "0x32f0ed"
                },
                "Prague": {
                    "target": "0x06",
                    "max": "0x09",
                    "baseFeeUpdateFraction": "0x4c6964"
                },
                "Osaka": {
                    "target": "0x06",
                    "max": "0x09",
                    "baseFeeUpdateFraction": "0x4c6964"
                }
            },
            "chainid": "0x01"
        },
        "_info": {
            "hash": "0xd2bcf29c19fa2efee8385bc7ad81f6df89a87c19e03d9c5f77a924a6c6144633",
            "comment": "`execution-spec-tests` generated test",
            "filling-transition-tool": "ethereum-spec-evm-resolver 0.0.5",
            "description": "No description available - add a docstring to the python test class or function.",
            "url": "",
            "fixture-format": "state_test",
            "eels-resolution": {
                "git-url": "https://github.com/ethereum/execution-specs.git",
                "branch": "forks/bpos",
                "commit": "7aacb2c54111391af5e98c505d5010b5698a770f"
            }
        }
    },
    "tests/static/state_tests/stStaticCall/static_CallEcrecover2Filler.json::static_CallEcrecover2[fork_Prague-state_test-]": {
        "env": {
            "currentCoinbase": "0x2adc25665018aa1fe0e6bc666dac8fc2697ff9ba",
            "currentGasLimit": "0x989680",
            "currentNumber": "0x01",
            "currentTimestamp": "0x03e8",
            "currentRandom": "0x0000000000000000000000000000000000000000000000000000000000020000",
            "currentDifficulty": "0x00",
            "currentBaseFee": "0x0a",
            "currentExcessBlobGas": "0x00"
        },
        "pre": {
            "0xe1c3baafcd19a22cd404261035ec78cd40f78bfc": {
                "nonce": "0x00",
                "balance": "0x0de0b6b3a7640000",
                "code": "0x",
                "storage": {}
            },
            "0xf0edce7b7e73176d89e3b1ec65e9fa0e55b55d82": {
                "nonce": "0x00",
                "balance": "0x01312d00",
                "code": "0x7f18c547e4f7b0f325ad1e56f57e26c745b09a3e503d86e00e5255ff7f715d3d1c600052601c6020527f73b1693892219d736caba55bdb67216e485557ea6b6af75f37096c9aa6a5a75f6021527feeb940b1d03b21e36b0e47e79769f095fe2ab855bd91e3a38756b7d75a9c454960415260206061606160006001620186a0fa60025560a060020a60615106600055600054321460015500",
                "storage": {}
            }
        },
        "transaction": {
            "nonce": "0x00",
            "gasPrice": "0x0a",
            "gasLimit": [
                "0x0592a8"
            ],
            "to": "0xf0edce7b7e73176d89e3b1ec65e9fa0e55b55d82",
            "value": [
                "0x0186a0"
            ],
            "data": [
                "0x"
            ],
            "sender": "0xe1c3baafcd19a22cd404261035ec78cd40f78bfc",
            "secretKey": "0x8c0ba074fa54f058bda202ecf0edce7b7e73176d89e3b1ec65e9fa0e55b55d82"
        },
        "post": {
            "Prague": [
                {
                    "hash": "0xc78f5538e7979599573b3fdf1c577b511bc27a843664f7ec1f8535bfb37653a8",
                    "logs": "0x1dcc4de8dec75d7aab85b567b6ccd41ad312451b948a7413f0a142fd40d49347",
                    "txbytes": "0xf863800a830592a894f0edce7b7e73176d89e3b1ec65e9fa0e55b55d82830186a08025a08063fbaab8dcbc1ee9f9215caea93c00fdc5b6c46906cfa83cc8bfafefa9a0e6a032c142d78c04c30ef564cc66f425db6193ceac82c85c3f98ee6b927cdb21b79c",
                    "indexes": {
                        "data": 0,
                        "gas": 0,
                        "value": 0
                    },
                    "state": {
                        "0xe1c3baafcd19a22cd404261035ec78cd40f78bfc": {
                            "nonce": "0x01",
                            "balance": "0x0de0b6b3a75ab68a",
                            "code": "0x",
                            "storage": {}
                        },
                        "0xf0edce7b7e73176d89e3b1ec65e9fa0e55b55d82": {
                            "nonce": "0x00",
                            "balance": "0x0132b3a0",
                            "code": "0x7f18c547e4f7b0f325ad1e56f57e26c745b09a3e503d86e00e5255ff7f715d3d1c600052601c6020527f73b1693892219d736caba55bdb67216e485557ea6b6af75f37096c9aa6a5a75f6021527feeb940b1d03b21e36b0e47e79769f095fe2ab855bd91e3a38756b7d75a9c454960415260206061606160006001620186a0fa60025560a060020a60615106600055600054321460015500",
                            "storage": {
                                "0x02": "0x01"
                            }
                        }
                    }
                }
            ]
        },
        "config": {
            "blobSchedule": {
                "Cancun": {
                    "target": "0x03",
                    "max": "0x06",
                    "baseFeeUpdateFraction": "0x32f0ed"
                },
                "Prague": {
                    "target": "0x06",
                    "max": "0x09",
                    "baseFeeUpdateFraction": "0x4c6964"
                }
            },
            "chainid": "0x01"
        },
        "_info": {
            "hash": "0xf400aef4e22c8f9b424e8bf4ce685ae0c55e4980d3bf20a556619abc8799d1e3",
            "comment": "`execution-spec-tests` generated test",
            "filling-transition-tool": "ethereum-spec-evm-resolver 0.0.5",
            "description": "No description available - add a docstring to the python test class or function.",
            "url": "",
            "fixture-format": "state_test",
            "eels-resolution": {
                "git-url": "https://github.com/ethereum/execution-specs.git",
                "branch": "forks/bpos",
                "commit": "7aacb2c54111391af5e98c505d5010b5698a770f"
            }
        }
    }
}