{
    "tests/static/state_tests/stStaticCall/static_callcallcallcode_001_OOGMAfter_3Filler.json::static_callcallcallcode_001_OOGMAfter_3[fork_Cancun-state_test-d0]": {
        "env": {
            "currentCoinbase": "0x2adc25665018aa1fe0e6bc666dac8fc2697ff9ba",
            "currentGasLimit": "0x989680",
            "currentNumber": "0x01",
            "currentTimestamp": "0x03e8",
            "currentRandom": "0x0000000000000000000000000000000000000000000000000000000000020000",
            "currentDifficulty": "0x00",
            "currentBaseFee": "0x0a",
            "currentExcessBlobGas": "0x00"
        },
        "pre": {
            "0x9a5dccb61ea52164aceb50772966a8f59b40ac99": {
                "nonce": "0x00",
                "balance": "0x0de0b6b3a7640000",
                "code": "0x",
                "storage": {}
            },
            "0x4823e95627305b3e18bf0207155575aabb860496": {
                "nonce": "0x00",
                "balance": "0x00",
                "code": "0x600160035200",
                "storage": {}
            },
            "0x4823e95627305b3e18bf0207155575aabb860596": {
                "nonce": "0x00",
                "balance": "0x00",
                "code": "0x60406000604060006000734823e95627305b3e18bf0207155575aabb8604966201d4d4f200",
                "storage": {}
            },
            "0x4823e95627305b3e18bf0207155575aabb860696": {
                "nonce": "0x00",
                "balance": "0x00",
                "code": "0x6040600060406000734823e95627305b3e18bf0207155575aabb86059662061ad0fa505b61c3506080511015603f5760013b506001608051016080526023565b00",
                "storage": {}
            },
            "0x4823e95627305b3e18bf0207155575aabb860796": {
                "nonce": "0x00",
                "balance": "0x00",
                "code": "0x6040600060406000734823e95627305b3e18bf0207155575aabb86059662061ad0fa50600160035500",
                "storage": {}
            },
            "0x4823e95627305b3e18bf0207155575aabb860896": {
                "nonce": "0x00",
                "balance": "0x0de0b6b3a7640000",
                "code": "0x604060006040600060003562092856fa600055600160015500",
                "storage": {}
            }
        },
        "transaction": {
            "nonce": "0x00",
            "gasPrice": "0x0a",
            "gasLimit": [
                "0x1a3ec0"
            ],
            "to": "0x4823e95627305b3e18bf0207155575aabb860896",
            "value": [
                "0x00"
            ],
            "data": [
                "0x0000000000000000000000004823e95627305b3e18bf0207155575aabb860796"
            ],
            "sender": "0x9a5dccb61ea52164aceb50772966a8f59b40ac99",
            "secretKey": "0xa32b4977912624c31ce822744823e95627305b3e18bf0207155575aabb860496"
        },
        "post": {
            "Cancun": [
                {
                    "hash": "0x5abdcdf23191fb17091391559ed8649258012c982f0e6a8426292d3e25f69044",
                    "logs": "0x1dcc4de8dec75d7aab85b567b6ccd41ad312451b948a7413f0a142fd40d49347",
                    "txbytes": "0xf880800a831a3ec0944823e95627305b3e18bf0207155575aabb86089680a00000000000000000000000004823e95627305b3e18bf0207155575aabb86079625a07a77dc4232109e9292851cf875e47bfd93f19c5218d4b1927d3e7b36cb701e6ea049496d3285794b592282d25121d53e16fba3bbf0b35ae46f16fde98e2e30abcf",
                    "indexes": {
                        "data": 0,
                        "gas": 0,
                        "value": 0
                    },
                    "state": {
                        "0x9a5dccb61ea52164aceb50772966a8f59b40ac99": {
                            "nonce": "0x01",
                            "balance": "0x0de0b6b3a7010dc4",
                            "code": "0x",
                            "storage": {}
                        },
                        "0x4823e95627305b3e18bf0207155575aabb860496": {
                            "nonce": "0x00",
                            "balance": "0x00",
                            "code": "0x600160035200",
                            "storage": {}
                        },
                        "0x4823e95627305b3e18bf0207155575aabb860596": {
                            "nonce": "0x00",
                            "balance": "0x00",
                            "code": "0x60406000604060006000734823e95627305b3e18bf0207155575aabb8604966201d4d4f200",
                            "storage": {}
                        },
                        "0x4823e95627305b3e18bf0207155575aabb860696": {
                            "nonce": "0x00",
                            "balance": "0x00",
                            "code": "0x6040600060406000734823e95627305b3e18bf0207155575aabb86059662061ad0fa505b61c3506080511015603f5760013b506001608051016080526023565b00",
                            "storage": {}
                        },
                        "0x4823e95627305b3e18bf0207155575aabb860796": {
                            "nonce": "0x00",
                            "balance": "0x00",
                            "code": "0x6040600060406000734823e95627305b3e18bf0207155575aabb86059662061ad0fa50600160035500",
                            "storage": {}
                        },
                        "0x4823e95627305b3e18bf0207155575aabb860896": {
                            "nonce": "0x00",
                            "balance": "0x0de0b6b3a7640000",
                            "code": "0x604060006040600060003562092856fa600055600160015500",
                            "storage": {
                                "0x01": "0x01"
                            }
                        }
                    }
                }
            ]
        },
        "config": {
            "blobSchedule": {
                "Cancun": {
                    "target": "0x03",
                    "max": "0x06",
                    "baseFeeUpdateFraction": "0x32f0ed"
                }
            },
            "chainid": "0x01"
        },
        "_info": {
            "hash": "0x598708cfca8a930f1f6d2700a0ba0d407968a971f351abcb54f36383aa4b9047",
            "comment": "`execution-spec-tests` generated test",
            "filling-transition-tool": "ethereum-spec-evm-resolver 0.0.5",
            "description": "No description available - add a docstring to the python test class or function.",
            "url": "",
            "fixture-format": "state_test",
            "eels-resolution": {
                "git-url": "https://github.com/marioevz/execution-specs.git",
                "branch": "forks/bpo1",
                "commit": "3387e5f4aedfe99becfdc39b444d6371e25e0924"
            }
        }
    },
    "tests/static/state_tests/stStaticCall/static_callcallcallcode_001_OOGMAfter_3Filler.json::static_callcallcallcode_001_OOGMAfter_3[fork_Cancun-state_test-d1]": {
        "env": {
            "currentCoinbase": "0x2adc25665018aa1fe0e6bc666dac8fc2697ff9ba",
            "currentGasLimit": "0x989680",
            "currentNumber": "0x01",
            "currentTimestamp": "0x03e8",
            "currentRandom": "0x0000000000000000000000000000000000000000000000000000000000020000",
            "currentDifficulty": "0x00",
            "currentBaseFee": "0x0a",
            "currentExcessBlobGas": "0x00"
        },
        "pre": {
            "0x01197ca84e0b48cd1cf958f154e5a272af1956ee": {
                "nonce": "0x00",
                "balance": "0x0de0b6b3a7640000",
                "code": "0x",
                "storage": {}
            },
            "0xb5539e6180e0a267957ab687066ae9b3399ec640": {
                "nonce": "0x00",
                "balance": "0x00",
                "code": "0x600160035200",
                "storage": {}
            },
            "0xb5539e6180e0a267957ab687066ae9b3399ec740": {
                "nonce": "0x00",
                "balance": "0x00",
                "code": "0x6040600060406000600073b5539e6180e0a267957ab687066ae9b3399ec6406201d4d4f200",
                "storage": {}
            },
            "0xb5539e6180e0a267957ab687066ae9b3399ec840": {
                "nonce": "0x00",
                "balance": "0x00",
                "code": "0x604060006040600073b5539e6180e0a267957ab687066ae9b3399ec74062061ad0fa505b61c3506080511015603f5760013b506001608051016080526023565b00",
                "storage": {}
            },
            "0xb5539e6180e0a267957ab687066ae9b3399ec940": {
                "nonce": "0x00",
                "balance": "0x00",
                "code": "0x604060006040600073b5539e6180e0a267957ab687066ae9b3399ec74062061ad0fa50600160035500",
                "storage": {}
            },
            "0xb5539e6180e0a267957ab687066ae9b3399eca40": {
                "nonce": "0x00",
                "balance": "0x0de0b6b3a7640000",
                "code": "0x604060006040600060003562092856fa600055600160015500",
                "storage": {}
            }
        },
        "transaction": {
            "nonce": "0x00",
            "gasPrice": "0x0a",
            "gasLimit": [
                "0x1a3ec0"
            ],
            "to": "0xb5539e6180e0a267957ab687066ae9b3399eca40",
            "value": [
                "0x00"
            ],
            "data": [
                "0x000000000000000000000000b5539e6180e0a267957ab687066ae9b3399ec840"
            ],
            "sender": "0x01197ca84e0b48cd1cf958f154e5a272af1956ee",
            "secretKey": "0x8c4d4a8e5a94295ad3e20c1ab5539e6180e0a267957ab687066ae9b3399ec640"
        },
        "post": {
            "Cancun": [
                {
                    "hash": "0xf7c9410c4373be5d8a68825b13c38a072c7880bd9497070f6f1d5d5dea5d8193",
                    "logs": "0x1dcc4de8dec75d7aab85b567b6ccd41ad312451b948a7413f0a142fd40d49347",
                    "txbytes": "0xf880800a831a3ec094b5539e6180e0a267957ab687066ae9b3399eca4080a0000000000000000000000000b5539e6180e0a267957ab687066ae9b3399ec84026a06ae1955fb0927b49c59c2167a9eb4df9597a2ab75ce930d0cfcfd5c29df07d11a02e664fafc9efd0f823088f52905c9a5c4f1144cdb7d48bb2316bfb648e90259f",
                    "indexes": {
                        "data": 0,
                        "gas": 0,
                        "value": 0
                    },
                    "state": {
                        "0x01197ca84e0b48cd1cf958f154e5a272af1956ee": {
                            "nonce": "0x01",
                            "balance": "0x0de0b6b3a7010dc4",
                            "code": "0x",
                            "storage": {}
                        },
                        "0xb5539e6180e0a267957ab687066ae9b3399ec640": {
                            "nonce": "0x00",
                            "balance": "0x00",
                            "code": "0x600160035200",
                            "storage": {}
                        },
                        "0xb5539e6180e0a267957ab687066ae9b3399ec740": {
                            "nonce": "0x00",
                            "balance": "0x00",
                            "code": "0x6040600060406000600073b5539e6180e0a267957ab687066ae9b3399ec6406201d4d4f200",
                            "storage": {}
                        },
                        "0xb5539e6180e0a267957ab687066ae9b3399ec840": {
                            "nonce": "0x00",
                            "balance": "0x00",
                            "code": "0x604060006040600073b5539e6180e0a267957ab687066ae9b3399ec74062061ad0fa505b61c3506080511015603f5760013b506001608051016080526023565b00",
                            "storage": {}
                        },
                        "0xb5539e6180e0a267957ab687066ae9b3399ec940": {
                            "nonce": "0x00",
                            "balance": "0x00",
                            "code": "0x604060006040600073b5539e6180e0a267957ab687066ae9b3399ec74062061ad0fa50600160035500",
                            "storage": {}
                        },
                        "0xb5539e6180e0a267957ab687066ae9b3399eca40": {
                            "nonce": "0x00",
                            "balance": "0x0de0b6b3a7640000",
                            "code": "0x604060006040600060003562092856fa600055600160015500",
                            "storage": {
                                "0x01": "0x01"
                            }
                        }
                    }
                }
            ]
        },
        "config": {
            "blobSchedule": {
                "Cancun": {
                    "target": "0x03",
                    "max": "0x06",
                    "baseFeeUpdateFraction": "0x32f0ed"
                }
            },
            "chainid": "0x01"
        },
        "_info": {
            "hash": "0x9336e03cf7891d707babaa04e274f03fa04c2a717f74db09f124cee337a58620",
            "comment": "`execution-spec-tests` generated test",
            "filling-transition-tool": "ethereum-spec-evm-resolver 0.0.5",
            "description": "No description available - add a docstring to the python test class or function.",
            "url": "",
            "fixture-format": "state_test",
            "eels-resolution": {
                "git-url": "https://github.com/marioevz/execution-specs.git",
                "branch": "forks/bpo1",
                "commit": "3387e5f4aedfe99becfdc39b444d6371e25e0924"
            }
        }
    },
    "tests/static/state_tests/stStaticCall/static_callcallcallcode_001_OOGMAfter_3Filler.json::static_callcallcallcode_001_OOGMAfter_3[fork_Osaka-state_test-d0]": {
        "env": {
            "currentCoinbase": "0x2adc25665018aa1fe0e6bc666dac8fc2697ff9ba",
            "currentGasLimit": "0x989680",
            "currentNumber": "0x01",
            "currentTimestamp": "0x03e8",
            "currentRandom": "0x0000000000000000000000000000000000000000000000000000000000020000",
            "currentDifficulty": "0x00",
            "currentBaseFee": "0x0a",
            "currentExcessBlobGas": "0x00"
        },
        "pre": {
            "0x9a5dccb61ea52164aceb50772966a8f59b40ac99": {
                "nonce": "0x00",
                "balance": "0x0de0b6b3a7640000",
                "code": "0x",
                "storage": {}
            },
            "0x4823e95627305b3e18bf0207155575aabb860496": {
                "nonce": "0x00",
                "balance": "0x00",
                "code": "0x600160035200",
                "storage": {}
            },
            "0x4823e95627305b3e18bf0207155575aabb860596": {
                "nonce": "0x00",
                "balance": "0x00",
                "code": "0x60406000604060006000734823e95627305b3e18bf0207155575aabb8604966201d4d4f200",
                "storage": {}
            },
            "0x4823e95627305b3e18bf0207155575aabb860696": {
                "nonce": "0x00",
                "balance": "0x00",
                "code": "0x6040600060406000734823e95627305b3e18bf0207155575aabb86059662061ad0fa505b61c3506080511015603f5760013b506001608051016080526023565b00",
                "storage": {}
            },
            "0x4823e95627305b3e18bf0207155575aabb860796": {
                "nonce": "0x00",
                "balance": "0x00",
                "code": "0x6040600060406000734823e95627305b3e18bf0207155575aabb86059662061ad0fa50600160035500",
                "storage": {}
            },
            "0x4823e95627305b3e18bf0207155575aabb860896": {
                "nonce": "0x00",
                "balance": "0x0de0b6b3a7640000",
                "code": "0x604060006040600060003562092856fa600055600160015500",
                "storage": {}
            }
        },
        "transaction": {
            "nonce": "0x00",
            "gasPrice": "0x0a",
            "gasLimit": [
                "0x1a3ec0"
            ],
            "to": "0x4823e95627305b3e18bf0207155575aabb860896",
            "value": [
                "0x00"
            ],
            "data": [
                "0x0000000000000000000000004823e95627305b3e18bf0207155575aabb860796"
            ],
            "sender": "0x9a5dccb61ea52164aceb50772966a8f59b40ac99",
            "secretKey": "0xa32b4977912624c31ce822744823e95627305b3e18bf0207155575aabb860496"
        },
        "post": {
            "Osaka": [
                {
                    "hash": "0x5abdcdf23191fb17091391559ed8649258012c982f0e6a8426292d3e25f69044",
                    "logs": "0x1dcc4de8dec75d7aab85b567b6ccd41ad312451b948a7413f0a142fd40d49347",
                    "txbytes": "0xf880800a831a3ec0944823e95627305b3e18bf0207155575aabb86089680a00000000000000000000000004823e95627305b3e18bf0207155575aabb86079625a07a77dc4232109e9292851cf875e47bfd93f19c5218d4b1927d3e7b36cb701e6ea049496d3285794b592282d25121d53e16fba3bbf0b35ae46f16fde98e2e30abcf",
                    "indexes": {
                        "data": 0,
                        "gas": 0,
                        "value": 0
                    },
                    "state": {
                        "0x9a5dccb61ea52164aceb50772966a8f59b40ac99": {
                            "nonce": "0x01",
                            "balance": "0x0de0b6b3a7010dc4",
                            "code": "0x",
                            "storage": {}
                        },
                        "0x4823e95627305b3e18bf0207155575aabb860496": {
                            "nonce": "0x00",
                            "balance": "0x00",
                            "code": "0x600160035200",
                            "storage": {}
                        },
                        "0x4823e95627305b3e18bf0207155575aabb860596": {
                            "nonce": "0x00",
                            "balance": "0x00",
                            "code": "0x60406000604060006000734823e95627305b3e18bf0207155575aabb8604966201d4d4f200",
                            "storage": {}
                        },
                        "0x4823e95627305b3e18bf0207155575aabb860696": {
                            "nonce": "0x00",
                            "balance": "0x00",
                            "code": "0x6040600060406000734823e95627305b3e18bf0207155575aabb86059662061ad0fa505b61c3506080511015603f5760013b506001608051016080526023565b00",
                            "storage": {}
                        },
                        "0x4823e95627305b3e18bf0207155575aabb860796": {
                            "nonce": "0x00",
                            "balance": "0x00",
                            "code": "0x6040600060406000734823e95627305b3e18bf0207155575aabb86059662061ad0fa50600160035500",
                            "storage": {}
                        },
                        "0x4823e95627305b3e18bf0207155575aabb860896": {
                            "nonce": "0x00",
                            "balance": "0x0de0b6b3a7640000",
                            "code": "0x604060006040600060003562092856fa600055600160015500",
                            "storage": {
                                "0x01": "0x01"
                            }
                        }
                    }
                }
            ]
        },
        "config": {
            "blobSchedule": {
                "Cancun": {
                    "target": "0x03",
                    "max": "0x06",
                    "baseFeeUpdateFraction": "0x32f0ed"
                },
                "Prague": {
                    "target": "0x06",
                    "max": "0x09",
                    "baseFeeUpdateFraction": "0x4c6964"
                },
                "Osaka": {
                    "target": "0x06",
                    "max": "0x09",
                    "baseFeeUpdateFraction": "0x4c6964"
                }
            },
            "chainid": "0x01"
        },
        "_info": {
            "hash": "0xa00cf3fa5c19792984d7ac4ff68bea55d6fc3ddcd792d5746972834e6f0df2a0",
            "comment": "`execution-spec-tests` generated test",
            "filling-transition-tool": "ethereum-spec-evm-resolver 0.0.5",
            "description": "No description available - add a docstring to the python test class or function.",
            "url": "",
            "fixture-format": "state_test",
            "eels-resolution": {
                "git-url": "https://github.com/marioevz/execution-specs.git",
                "branch": "forks/bpo1",
                "commit": "3387e5f4aedfe99becfdc39b444d6371e25e0924"
            }
        }
    },
    "tests/static/state_tests/stStaticCall/static_callcallcallcode_001_OOGMAfter_3Filler.json::static_callcallcallcode_001_OOGMAfter_3[fork_Osaka-state_test-d1]": {
        "env": {
            "currentCoinbase": "0x2adc25665018aa1fe0e6bc666dac8fc2697ff9ba",
            "currentGasLimit": "0x989680",
            "currentNumber": "0x01",
            "currentTimestamp": "0x03e8",
            "currentRandom": "0x0000000000000000000000000000000000000000000000000000000000020000",
            "currentDifficulty": "0x00",
            "currentBaseFee": "0x0a",
            "currentExcessBlobGas": "0x00"
        },
        "pre": {
            "0x01197ca84e0b48cd1cf958f154e5a272af1956ee": {
                "nonce": "0x00",
                "balance": "0x0de0b6b3a7640000",
                "code": "0x",
                "storage": {}
            },
            "0xb5539e6180e0a267957ab687066ae9b3399ec640": {
                "nonce": "0x00",
                "balance": "0x00",
                "code": "0x600160035200",
                "storage": {}
            },
            "0xb5539e6180e0a267957ab687066ae9b3399ec740": {
                "nonce": "0x00",
                "balance": "0x00",
                "code": "0x6040600060406000600073b5539e6180e0a267957ab687066ae9b3399ec6406201d4d4f200",
                "storage": {}
            },
            "0xb5539e6180e0a267957ab687066ae9b3399ec840": {
                "nonce": "0x00",
                "balance": "0x00",
                "code": "0x604060006040600073b5539e6180e0a267957ab687066ae9b3399ec74062061ad0fa505b61c3506080511015603f5760013b506001608051016080526023565b00",
                "storage": {}
            },
            "0xb5539e6180e0a267957ab687066ae9b3399ec940": {
                "nonce": "0x00",
                "balance": "0x00",
                "code": "0x604060006040600073b5539e6180e0a267957ab687066ae9b3399ec74062061ad0fa50600160035500",
                "storage": {}
            },
            "0xb5539e6180e0a267957ab687066ae9b3399eca40": {
                "nonce": "0x00",
                "balance": "0x0de0b6b3a7640000",
                "code": "0x604060006040600060003562092856fa600055600160015500",
                "storage": {}
            }
        },
        "transaction": {
            "nonce": "0x00",
            "gasPrice": "0x0a",
            "gasLimit": [
                "0x1a3ec0"
            ],
            "to": "0xb5539e6180e0a267957ab687066ae9b3399eca40",
            "value": [
                "0x00"
            ],
            "data": [
                "0x000000000000000000000000b5539e6180e0a267957ab687066ae9b3399ec840"
            ],
            "sender": "0x01197ca84e0b48cd1cf958f154e5a272af1956ee",
            "secretKey": "0x8c4d4a8e5a94295ad3e20c1ab5539e6180e0a267957ab687066ae9b3399ec640"
        },
        "post": {
            "Osaka": [
                {
                    "hash": "0xf7c9410c4373be5d8a68825b13c38a072c7880bd9497070f6f1d5d5dea5d8193",
                    "logs": "0x1dcc4de8dec75d7aab85b567b6ccd41ad312451b948a7413f0a142fd40d49347",
                    "txbytes": "0xf880800a831a3ec094b5539e6180e0a267957ab687066ae9b3399eca4080a0000000000000000000000000b5539e6180e0a267957ab687066ae9b3399ec84026a06ae1955fb0927b49c59c2167a9eb4df9597a2ab75ce930d0cfcfd5c29df07d11a02e664fafc9efd0f823088f52905c9a5c4f1144cdb7d48bb2316bfb648e90259f",
                    "indexes": {
                        "data": 0,
                        "gas": 0,
                        "value": 0
                    },
                    "state": {
                        "0x01197ca84e0b48cd1cf958f154e5a272af1956ee": {
                            "nonce": "0x01",
                            "balance": "0x0de0b6b3a7010dc4",
                            "code": "0x",
                            "storage": {}
                        },
                        "0xb5539e6180e0a267957ab687066ae9b3399ec640": {
                            "nonce": "0x00",
                            "balance": "0x00",
                            "code": "0x600160035200",
                            "storage": {}
                        },
                        "0xb5539e6180e0a267957ab687066ae9b3399ec740": {
                            "nonce": "0x00",
                            "balance": "0x00",
                            "code": "0x6040600060406000600073b5539e6180e0a267957ab687066ae9b3399ec6406201d4d4f200",
                            "storage": {}
                        },
                        "0xb5539e6180e0a267957ab687066ae9b3399ec840": {
                            "nonce": "0x00",
                            "balance": "0x00",
                            "code": "0x604060006040600073b5539e6180e0a267957ab687066ae9b3399ec74062061ad0fa505b61c3506080511015603f5760013b506001608051016080526023565b00",
                            "storage": {}
                        },
                        "0xb5539e6180e0a267957ab687066ae9b3399ec940": {
                            "nonce": "0x00",
                            "balance": "0x00",
                            "code": "0x604060006040600073b5539e6180e0a267957ab687066ae9b3399ec74062061ad0fa50600160035500",
                            "storage": {}
                        },
                        "0xb5539e6180e0a267957ab687066ae9b3399eca40": {
                            "nonce": "0x00",
                            "balance": "0x0de0b6b3a7640000",
                            "code": "0x604060006040600060003562092856fa600055600160015500",
                            "storage": {
                                "0x01": "0x01"
                            }
                        }
                    }
                }
            ]
        },
        "config": {
            "blobSchedule": {
                "Cancun": {
                    "target": "0x03",
                    "max": "0x06",
                    "baseFeeUpdateFraction": "0x32f0ed"
                },
                "Prague": {
                    "target": "0x06",
                    "max": "0x09",
                    "baseFeeUpdateFraction": "0x4c6964"
                },
                "Osaka": {
                    "target": "0x06",
                    "max": "0x09",
                    "baseFeeUpdateFraction": "0x4c6964"
                }
            },
            "chainid": "0x01"
        },
        "_info": {
            "hash": "0x45c43b67649a1e3560a1e01a63f280fe3788264df43416c4d8308903f2a96a92",
            "comment": "`execution-spec-tests` generated test",
            "filling-transition-tool": "ethereum-spec-evm-resolver 0.0.5",
            "description": "No description available - add a docstring to the python test class or function.",
            "url": "",
            "fixture-format": "state_test",
            "eels-resolution": {
                "git-url": "https://github.com/marioevz/execution-specs.git",
                "branch": "forks/bpo1",
                "commit": "3387e5f4aedfe99becfdc39b444d6371e25e0924"
            }
        }
    },
    "tests/static/state_tests/stStaticCall/static_callcallcallcode_001_OOGMAfter_3Filler.json::static_callcallcallcode_001_OOGMAfter_3[fork_Prague-state_test-d0]": {
        "env": {
            "currentCoinbase": "0x2adc25665018aa1fe0e6bc666dac8fc2697ff9ba",
            "currentGasLimit": "0x989680",
            "currentNumber": "0x01",
            "currentTimestamp": "0x03e8",
            "currentRandom": "0x0000000000000000000000000000000000000000000000000000000000020000",
            "currentDifficulty": "0x00",
            "currentBaseFee": "0x0a",
            "currentExcessBlobGas": "0x00"
        },
        "pre": {
            "0x9a5dccb61ea52164aceb50772966a8f59b40ac99": {
                "nonce": "0x00",
                "balance": "0x0de0b6b3a7640000",
                "code": "0x",
                "storage": {}
            },
            "0x4823e95627305b3e18bf0207155575aabb860496": {
                "nonce": "0x00",
                "balance": "0x00",
                "code": "0x600160035200",
                "storage": {}
            },
            "0x4823e95627305b3e18bf0207155575aabb860596": {
                "nonce": "0x00",
                "balance": "0x00",
                "code": "0x60406000604060006000734823e95627305b3e18bf0207155575aabb8604966201d4d4f200",
                "storage": {}
            },
            "0x4823e95627305b3e18bf0207155575aabb860696": {
                "nonce": "0x00",
                "balance": "0x00",
                "code": "0x6040600060406000734823e95627305b3e18bf0207155575aabb86059662061ad0fa505b61c3506080511015603f5760013b506001608051016080526023565b00",
                "storage": {}
            },
            "0x4823e95627305b3e18bf0207155575aabb860796": {
                "nonce": "0x00",
                "balance": "0x00",
                "code": "0x6040600060406000734823e95627305b3e18bf0207155575aabb86059662061ad0fa50600160035500",
                "storage": {}
            },
            "0x4823e95627305b3e18bf0207155575aabb860896": {
                "nonce": "0x00",
                "balance": "0x0de0b6b3a7640000",
                "code": "0x604060006040600060003562092856fa600055600160015500",
                "storage": {}
            }
        },
        "transaction": {
            "nonce": "0x00",
            "gasPrice": "0x0a",
            "gasLimit": [
                "0x1a3ec0"
            ],
            "to": "0x4823e95627305b3e18bf0207155575aabb860896",
            "value": [
                "0x00"
            ],
            "data": [
                "0x0000000000000000000000004823e95627305b3e18bf0207155575aabb860796"
            ],
            "sender": "0x9a5dccb61ea52164aceb50772966a8f59b40ac99",
            "secretKey": "0xa32b4977912624c31ce822744823e95627305b3e18bf0207155575aabb860496"
        },
        "post": {
            "Prague": [
                {
                    "hash": "0x5abdcdf23191fb17091391559ed8649258012c982f0e6a8426292d3e25f69044",
                    "logs": "0x1dcc4de8dec75d7aab85b567b6ccd41ad312451b948a7413f0a142fd40d49347",
                    "txbytes": "0xf880800a831a3ec0944823e95627305b3e18bf0207155575aabb86089680a00000000000000000000000004823e95627305b3e18bf0207155575aabb86079625a07a77dc4232109e9292851cf875e47bfd93f19c5218d4b1927d3e7b36cb701e6ea049496d3285794b592282d25121d53e16fba3bbf0b35ae46f16fde98e2e30abcf",
                    "indexes": {
                        "data": 0,
                        "gas": 0,
                        "value": 0
                    },
                    "state": {
                        "0x9a5dccb61ea52164aceb50772966a8f59b40ac99": {
                            "nonce": "0x01",
                            "balance": "0x0de0b6b3a7010dc4",
                            "code": "0x",
                            "storage": {}
                        },
                        "0x4823e95627305b3e18bf0207155575aabb860496": {
                            "nonce": "0x00",
                            "balance": "0x00",
                            "code": "0x600160035200",
                            "storage": {}
                        },
                        "0x4823e95627305b3e18bf0207155575aabb860596": {
                            "nonce": "0x00",
                            "balance": "0x00",
                            "code": "0x60406000604060006000734823e95627305b3e18bf0207155575aabb8604966201d4d4f200",
                            "storage": {}
                        },
                        "0x4823e95627305b3e18bf0207155575aabb860696": {
                            "nonce": "0x00",
                            "balance": "0x00",
                            "code": "0x6040600060406000734823e95627305b3e18bf0207155575aabb86059662061ad0fa505b61c3506080511015603f5760013b506001608051016080526023565b00",
                            "storage": {}
                        },
                        "0x4823e95627305b3e18bf0207155575aabb860796": {
                            "nonce": "0x00",
                            "balance": "0x00",
                            "code": "0x6040600060406000734823e95627305b3e18bf0207155575aabb86059662061ad0fa50600160035500",
                            "storage": {}
                        },
                        "0x4823e95627305b3e18bf0207155575aabb860896": {
                            "nonce": "0x00",
                            "balance": "0x0de0b6b3a7640000",
                            "code": "0x604060006040600060003562092856fa600055600160015500",
                            "storage": {
                                "0x01": "0x01"
                            }
                        }
                    }
                }
            ]
        },
        "config": {
            "blobSchedule": {
                "Cancun": {
                    "target": "0x03",
                    "max": "0x06",
                    "baseFeeUpdateFraction": "0x32f0ed"
                },
                "Prague": {
                    "target": "0x06",
                    "max": "0x09",
                    "baseFeeUpdateFraction": "0x4c6964"
                }
            },
            "chainid": "0x01"
        },
        "_info": {
            "hash": "0x24c5be50e119df9640fbe0bd5c2f628383ecd7aca781e4e2ada09b060eaf82f9",
            "comment": "`execution-spec-tests` generated test",
            "filling-transition-tool": "ethereum-spec-evm-resolver 0.0.5",
            "description": "No description available - add a docstring to the python test class or function.",
            "url": "",
            "fixture-format": "state_test",
            "eels-resolution": {
                "git-url": "https://github.com/marioevz/execution-specs.git",
                "branch": "forks/bpo1",
                "commit": "3387e5f4aedfe99becfdc39b444d6371e25e0924"
            }
        }
    },
    "tests/static/state_tests/stStaticCall/static_callcallcallcode_001_OOGMAfter_3Filler.json::static_callcallcallcode_001_OOGMAfter_3[fork_Prague-state_test-d1]": {
        "env": {
            "currentCoinbase": "0x2adc25665018aa1fe0e6bc666dac8fc2697ff9ba",
            "currentGasLimit": "0x989680",
            "currentNumber": "0x01",
            "currentTimestamp": "0x03e8",
            "currentRandom": "0x0000000000000000000000000000000000000000000000000000000000020000",
            "currentDifficulty": "0x00",
            "currentBaseFee": "0x0a",
            "currentExcessBlobGas": "0x00"
        },
        "pre": {
            "0x01197ca84e0b48cd1cf958f154e5a272af1956ee": {
                "nonce": "0x00",
                "balance": "0x0de0b6b3a7640000",
                "code": "0x",
                "storage": {}
            },
            "0xb5539e6180e0a267957ab687066ae9b3399ec640": {
                "nonce": "0x00",
                "balance": "0x00",
                "code": "0x600160035200",
                "storage": {}
            },
            "0xb5539e6180e0a267957ab687066ae9b3399ec740": {
                "nonce": "0x00",
                "balance": "0x00",
                "code": "0x6040600060406000600073b5539e6180e0a267957ab687066ae9b3399ec6406201d4d4f200",
                "storage": {}
            },
            "0xb5539e6180e0a267957ab687066ae9b3399ec840": {
                "nonce": "0x00",
                "balance": "0x00",
                "code": "0x604060006040600073b5539e6180e0a267957ab687066ae9b3399ec74062061ad0fa505b61c3506080511015603f5760013b506001608051016080526023565b00",
                "storage": {}
            },
            "0xb5539e6180e0a267957ab687066ae9b3399ec940": {
                "nonce": "0x00",
                "balance": "0x00",
                "code": "0x604060006040600073b5539e6180e0a267957ab687066ae9b3399ec74062061ad0fa50600160035500",
                "storage": {}
            },
            "0xb5539e6180e0a267957ab687066ae9b3399eca40": {
                "nonce": "0x00",
                "balance": "0x0de0b6b3a7640000",
                "code": "0x604060006040600060003562092856fa600055600160015500",
                "storage": {}
            }
        },
        "transaction": {
            "nonce": "0x00",
            "gasPrice": "0x0a",
            "gasLimit": [
                "0x1a3ec0"
            ],
            "to": "0xb5539e6180e0a267957ab687066ae9b3399eca40",
            "value": [
                "0x00"
            ],
            "data": [
                "0x000000000000000000000000b5539e6180e0a267957ab687066ae9b3399ec840"
            ],
            "sender": "0x01197ca84e0b48cd1cf958f154e5a272af1956ee",
            "secretKey": "0x8c4d4a8e5a94295ad3e20c1ab5539e6180e0a267957ab687066ae9b3399ec640"
        },
        "post": {
            "Prague": [
                {
                    "hash": "0xf7c9410c4373be5d8a68825b13c38a072c7880bd9497070f6f1d5d5dea5d8193",
                    "logs": "0x1dcc4de8dec75d7aab85b567b6ccd41ad312451b948a7413f0a142fd40d49347",
                    "txbytes": "0xf880800a831a3ec094b5539e6180e0a267957ab687066ae9b3399eca4080a0000000000000000000000000b5539e6180e0a267957ab687066ae9b3399ec84026a06ae1955fb0927b49c59c2167a9eb4df9597a2ab75ce930d0cfcfd5c29df07d11a02e664fafc9efd0f823088f52905c9a5c4f1144cdb7d48bb2316bfb648e90259f",
                    "indexes": {
                        "data": 0,
                        "gas": 0,
                        "value": 0
                    },
                    "state": {
                        "0x01197ca84e0b48cd1cf958f154e5a272af1956ee": {
                            "nonce": "0x01",
                            "balance": "0x0de0b6b3a7010dc4",
                            "code": "0x",
                            "storage": {}
                        },
                        "0xb5539e6180e0a267957ab687066ae9b3399ec640": {
                            "nonce": "0x00",
                            "balance": "0x00",
                            "code": "0x600160035200",
                            "storage": {}
                        },
                        "0xb5539e6180e0a267957ab687066ae9b3399ec740": {
                            "nonce": "0x00",
                            "balance": "0x00",
                            "code": "0x6040600060406000600073b5539e6180e0a267957ab687066ae9b3399ec6406201d4d4f200",
                            "storage": {}
                        },
                        "0xb5539e6180e0a267957ab687066ae9b3399ec840": {
                            "nonce": "0x00",
                            "balance": "0x00",
                            "code": "0x604060006040600073b5539e6180e0a267957ab687066ae9b3399ec74062061ad0fa505b61c3506080511015603f5760013b506001608051016080526023565b00",
                            "storage": {}
                        },
                        "0xb5539e6180e0a267957ab687066ae9b3399ec940": {
                            "nonce": "0x00",
                            "balance": "0x00",
                            "code": "0x604060006040600073b5539e6180e0a267957ab687066ae9b3399ec74062061ad0fa50600160035500",
                            "storage": {}
                        },
                        "0xb5539e6180e0a267957ab687066ae9b3399eca40": {
                            "nonce": "0x00",
                            "balance": "0x0de0b6b3a7640000",
                            "code": "0x604060006040600060003562092856fa600055600160015500",
                            "storage": {
                                "0x01": "0x01"
                            }
                        }
                    }
                }
            ]
        },
        "config": {
            "blobSchedule": {
                "Cancun": {
                    "target": "0x03",
                    "max": "0x06",
                    "baseFeeUpdateFraction": "0x32f0ed"
                },
                "Prague": {
                    "target": "0x06",
                    "max": "0x09",
                    "baseFeeUpdateFraction": "0x4c6964"
                }
            },
            "chainid": "0x01"
        },
        "_info": {
            "hash": "0xf9a8579e2c250a355b4364beb55d413ddd3010d3a14ae6563f41688dcf1b27bb",
            "comment": "`execution-spec-tests` generated test",
            "filling-transition-tool": "ethereum-spec-evm-resolver 0.0.5",
            "description": "No description available - add a docstring to the python test class or function.",
            "url": "",
            "fixture-format": "state_test",
            "eels-resolution": {
                "git-url": "https://github.com/marioevz/execution-specs.git",
                "branch": "forks/bpo1",
                "commit": "3387e5f4aedfe99becfdc39b444d6371e25e0924"
            }
        }
    }
}