{
    "tests/static/state_tests/stStaticCall/static_callcodecallcallcode_101_OOGMAfterFiller.json::static_callcodecallcallcode_101_OOGMAfter[fork_Cancun-state_test-]": {
        "env": {
            "currentCoinbase": "0x2adc25665018aa1fe0e6bc666dac8fc2697ff9ba",
            "currentGasLimit": "0x01c9c380",
            "currentNumber": "0x01",
            "currentTimestamp": "0x03e8",
            "currentRandom": "0x0000000000000000000000000000000000000000000000000000000000020000",
            "currentDifficulty": "0x00",
            "currentBaseFee": "0x0a",
            "currentExcessBlobGas": "0x00"
        },
        "pre": {
            "0x15ab0592bb0bc8d01f0e6844bb1f81fcb4bb15e3": {
                "nonce": "0x00",
                "balance": "0x0de0b6b3a7640000",
                "code": "0x",
                "storage": {}
            },
            "0x10d8421dd60b783f6dea6003ce0c394edcecfc09": {
                "nonce": "0x00",
                "balance": "0x00",
                "code": "0x600160035200",
                "storage": {}
            },
            "0x10d8421dd60b783f6dea6003ce0c394edcecfd09": {
                "nonce": "0x00",
                "balance": "0x00",
                "code": "0x600160035260406000604060007310d8421dd60b783f6dea6003ce0c394edcecfc09614e34f450600160035200",
                "storage": {}
            },
            "0x10d8421dd60b783f6dea6003ce0c394edcecfe09": {
                "nonce": "0x00",
                "balance": "0x00",
                "code": "0x600160035260406000604060007310d8421dd60b783f6dea6003ce0c394edcecfd09619c90fa505b61c350608051101560435760013b506001608051016080526027565b00",
                "storage": {}
            },
            "0x10d8421dd60b783f6dea6003ce0c394edcecff09": {
                "nonce": "0x00",
                "balance": "0x0de0b6b3a7640000",
                "code": "0x60406000604060007310d8421dd60b783f6dea6003ce0c394edcecfe0961eaf6f4600055600160015500",
                "storage": {}
            }
        },
        "transaction": {
            "nonce": "0x00",
            "gasPrice": "0x0a",
            "gasLimit": [
                "0x029fe0"
            ],
            "to": "0x10d8421dd60b783f6dea6003ce0c394edcecff09",
            "value": [
                "0x00"
            ],
            "data": [
                "0x"
            ],
            "sender": "0x15ab0592bb0bc8d01f0e6844bb1f81fcb4bb15e3",
            "secretKey": "0xa245a619b79b633f1d30f7d910d8421dd60b783f6dea6003ce0c394edcecfc09"
        },
        "post": {
            "Cancun": [
                {
                    "hash": "0xabd268c0ecb781ec8ae069f9eb39e0224ad041f00422e69dd175c30f29640848",
                    "logs": "0x1dcc4de8dec75d7aab85b567b6ccd41ad312451b948a7413f0a142fd40d49347",
                    "txbytes": "0xf860800a83029fe09410d8421dd60b783f6dea6003ce0c394edcecff09808025a06cdc0af51edb861fba2d9885ec64d175fcb7bf39680ae9876f28c585f318cc9aa025f310c18b363e10f7e2351ea5beda00daeba2dc374103641257f45667b234ad",
                    "indexes": {
                        "data": 0,
                        "gas": 0,
                        "value": 0
                    },
                    "state": {
                        "0x15ab0592bb0bc8d01f0e6844bb1f81fcb4bb15e3": {
                            "nonce": "0x01",
                            "balance": "0x0de0b6b3a7538202",
                            "code": "0x",
                            "storage": {}
                        },
                        "0x10d8421dd60b783f6dea6003ce0c394edcecfc09": {
                            "nonce": "0x00",
                            "balance": "0x00",
                            "code": "0x600160035200",
                            "storage": {}
                        },
                        "0x10d8421dd60b783f6dea6003ce0c394edcecfd09": {
                            "nonce": "0x00",
                            "balance": "0x00",
                            "code": "0x600160035260406000604060007310d8421dd60b783f6dea6003ce0c394edcecfc09614e34f450600160035200",
                            "storage": {}
                        },
                        "0x10d8421dd60b783f6dea6003ce0c394edcecfe09": {
                            "nonce": "0x00",
                            "balance": "0x00",
                            "code": "0x600160035260406000604060007310d8421dd60b783f6dea6003ce0c394edcecfd09619c90fa505b61c350608051101560435760013b506001608051016080526027565b00",
                            "storage": {}
                        },
                        "0x10d8421dd60b783f6dea6003ce0c394edcecff09": {
                            "nonce": "0x00",
                            "balance": "0x0de0b6b3a7640000",
                            "code": "0x60406000604060007310d8421dd60b783f6dea6003ce0c394edcecfe0961eaf6f4600055600160015500",
                            "storage": {
                                "0x01": "0x01"
                            }
                        }
                    }
                }
            ]
        },
        "config": {
            "blobSchedule": {
                "Cancun": {
                    "target": "0x03",
                    "max": "0x06",
                    "baseFeeUpdateFraction": "0x32f0ed"
                }
            },
            "chainid": "0x01"
        },
        "_info": {
            "hash": "0xbbd20b9a17f942c01d8b877836797d349a4da47303aff6a0671afd1e6a31a502",
            "comment": "`execution-spec-tests` generated test",
            "filling-transition-tool": "ethereum-spec-evm-resolver 0.0.5",
            "description": "No description available - add a docstring to the python test class or function.",
            "url": "",
            "fixture-format": "state_test",
            "eels-resolution": {
                "git-url": "https://github.com/ethereum/execution-specs.git",
                "branch": "forks/bpos",
                "commit": "7aacb2c54111391af5e98c505d5010b5698a770f"
            }
        }
    },
    "tests/static/state_tests/stStaticCall/static_callcodecallcallcode_101_OOGMAfterFiller.json::static_callcodecallcallcode_101_OOGMAfter[fork_Osaka-state_test-]": {
        "env": {
            "currentCoinbase": "0x2adc25665018aa1fe0e6bc666dac8fc2697ff9ba",
            "currentGasLimit": "0x01c9c380",
            "currentNumber": "0x01",
            "currentTimestamp": "0x03e8",
            "currentRandom": "0x0000000000000000000000000000000000000000000000000000000000020000",
            "currentDifficulty": "0x00",
            "currentBaseFee": "0x0a",
            "currentExcessBlobGas": "0x00"
        },
        "pre": {
            "0x15ab0592bb0bc8d01f0e6844bb1f81fcb4bb15e3": {
                "nonce": "0x00",
                "balance": "0x0de0b6b3a7640000",
                "code": "0x",
                "storage": {}
            },
            "0x10d8421dd60b783f6dea6003ce0c394edcecfc09": {
                "nonce": "0x00",
                "balance": "0x00",
                "code": "0x600160035200",
                "storage": {}
            },
            "0x10d8421dd60b783f6dea6003ce0c394edcecfd09": {
                "nonce": "0x00",
                "balance": "0x00",
                "code": "0x600160035260406000604060007310d8421dd60b783f6dea6003ce0c394edcecfc09614e34f450600160035200",
                "storage": {}
            },
            "0x10d8421dd60b783f6dea6003ce0c394edcecfe09": {
                "nonce": "0x00",
                "balance": "0x00",
                "code": "0x600160035260406000604060007310d8421dd60b783f6dea6003ce0c394edcecfd09619c90fa505b61c350608051101560435760013b506001608051016080526027565b00",
                "storage": {}
            },
            "0x10d8421dd60b783f6dea6003ce0c394edcecff09": {
                "nonce": "0x00",
                "balance": "0x0de0b6b3a7640000",
                "code": "0x60406000604060007310d8421dd60b783f6dea6003ce0c394edcecfe0961eaf6f4600055600160015500",
                "storage": {}
            }
        },
        "transaction": {
            "nonce": "0x00",
            "gasPrice": "0x0a",
            "gasLimit": [
                "0x029fe0"
            ],
            "to": "0x10d8421dd60b783f6dea6003ce0c394edcecff09",
            "value": [
                "0x00"
            ],
            "data": [
                "0x"
            ],
            "sender": "0x15ab0592bb0bc8d01f0e6844bb1f81fcb4bb15e3",
            "secretKey": "0xa245a619b79b633f1d30f7d910d8421dd60b783f6dea6003ce0c394edcecfc09"
        },
        "post": {
            "Osaka": [
                {
                    "hash": "0xabd268c0ecb781ec8ae069f9eb39e0224ad041f00422e69dd175c30f29640848",
                    "logs": "0x1dcc4de8dec75d7aab85b567b6ccd41ad312451b948a7413f0a142fd40d49347",
                    "txbytes": "0xf860800a83029fe09410d8421dd60b783f6dea6003ce0c394edcecff09808025a06cdc0af51edb861fba2d9885ec64d175fcb7bf39680ae9876f28c585f318cc9aa025f310c18b363e10f7e2351ea5beda00daeba2dc374103641257f45667b234ad",
                    "indexes": {
                        "data": 0,
                        "gas": 0,
                        "value": 0
                    },
                    "state": {
                        "0x15ab0592bb0bc8d01f0e6844bb1f81fcb4bb15e3": {
                            "nonce": "0x01",
                            "balance": "0x0de0b6b3a7538202",
                            "code": "0x",
                            "storage": {}
                        },
                        "0x10d8421dd60b783f6dea6003ce0c394edcecfc09": {
                            "nonce": "0x00",
                            "balance": "0x00",
                            "code": "0x600160035200",
                            "storage": {}
                        },
                        "0x10d8421dd60b783f6dea6003ce0c394edcecfd09": {
                            "nonce": "0x00",
                            "balance": "0x00",
                            "code": "0x600160035260406000604060007310d8421dd60b783f6dea6003ce0c394edcecfc09614e34f450600160035200",
                            "storage": {}
                        },
                        "0x10d8421dd60b783f6dea6003ce0c394edcecfe09": {
                            "nonce": "0x00",
                            "balance": "0x00",
                            "code": "0x600160035260406000604060007310d8421dd60b783f6dea6003ce0c394edcecfd09619c90fa505b61c350608051101560435760013b506001608051016080526027565b00",
                            "storage": {}
                        },
                        "0x10d8421dd60b783f6dea6003ce0c394edcecff09": {
                            "nonce": "0x00",
                            "balance": "0x0de0b6b3a7640000",
                            "code": "0x60406000604060007310d8421dd60b783f6dea6003ce0c394edcecfe0961eaf6f4600055600160015500",
                            "storage": {
                                "0x01": "0x01"
                            }
                        }
                    }
                }
            ]
        },
        "config": {
            "blobSchedule": {
                "Cancun": {
                    "target": "0x03",
                    "max": "0x06",
                    "baseFeeUpdateFraction": "0x32f0ed"
                },
                "Prague": {
                    "target": "0x06",
                    "max": "0x09",
                    "baseFeeUpdateFraction": "0x4c6964"
                },
                "Osaka": {
                    "target": "0x06",
                    "max": "0x09",
                    "baseFeeUpdateFraction": "0x4c6964"
                }
            },
            "chainid": "0x01"
        },
        "_info": {
            "hash": "0xb8b20688e139eb74024046a0d5196212abfd0ea1c383addaa23eae5b56256864",
            "comment": "`execution-spec-tests` generated test",
            "filling-transition-tool": "ethereum-spec-evm-resolver 0.0.5",
            "description": "No description available - add a docstring to the python test class or function.",
            "url": "",
            "fixture-format": "state_test",
            "eels-resolution": {
                "git-url": "https://github.com/ethereum/execution-specs.git",
                "branch": "forks/bpos",
                "commit": "7aacb2c54111391af5e98c505d5010b5698a770f"
            }
        }
    },
    "tests/static/state_tests/stStaticCall/static_callcodecallcallcode_101_OOGMAfterFiller.json::static_callcodecallcallcode_101_OOGMAfter[fork_Prague-state_test-]": {
        "env": {
            "currentCoinbase": "0x2adc25665018aa1fe0e6bc666dac8fc2697ff9ba",
            "currentGasLimit": "0x01c9c380",
            "currentNumber": "0x01",
            "currentTimestamp": "0x03e8",
            "currentRandom": "0x0000000000000000000000000000000000000000000000000000000000020000",
            "currentDifficulty": "0x00",
            "currentBaseFee": "0x0a",
            "currentExcessBlobGas": "0x00"
        },
        "pre": {
            "0x15ab0592bb0bc8d01f0e6844bb1f81fcb4bb15e3": {
                "nonce": "0x00",
                "balance": "0x0de0b6b3a7640000",
                "code": "0x",
                "storage": {}
            },
            "0x10d8421dd60b783f6dea6003ce0c394edcecfc09": {
                "nonce": "0x00",
                "balance": "0x00",
                "code": "0x600160035200",
                "storage": {}
            },
            "0x10d8421dd60b783f6dea6003ce0c394edcecfd09": {
                "nonce": "0x00",
                "balance": "0x00",
                "code": "0x600160035260406000604060007310d8421dd60b783f6dea6003ce0c394edcecfc09614e34f450600160035200",
                "storage": {}
            },
            "0x10d8421dd60b783f6dea6003ce0c394edcecfe09": {
                "nonce": "0x00",
                "balance": "0x00",
                "code": "0x600160035260406000604060007310d8421dd60b783f6dea6003ce0c394edcecfd09619c90fa505b61c350608051101560435760013b506001608051016080526027565b00",
                "storage": {}
            },
            "0x10d8421dd60b783f6dea6003ce0c394edcecff09": {
                "nonce": "0x00",
                "balance": "0x0de0b6b3a7640000",
                "code": "0x60406000604060007310d8421dd60b783f6dea6003ce0c394edcecfe0961eaf6f4600055600160015500",
                "storage": {}
            }
        },
        "transaction": {
            "nonce": "0x00",
            "gasPrice": "0x0a",
            "gasLimit": [
                "0x029fe0"
            ],
            "to": "0x10d8421dd60b783f6dea6003ce0c394edcecff09",
            "value": [
                "0x00"
            ],
            "data": [
                "0x"
            ],
            "sender": "0x15ab0592bb0bc8d01f0e6844bb1f81fcb4bb15e3",
            "secretKey": "0xa245a619b79b633f1d30f7d910d8421dd60b783f6dea6003ce0c394edcecfc09"
        },
        "post": {
            "Prague": [
                {
                    "hash": "0xabd268c0ecb781ec8ae069f9eb39e0224ad041f00422e69dd175c30f29640848",
                    "logs": "0x1dcc4de8dec75d7aab85b567b6ccd41ad312451b948a7413f0a142fd40d49347",
                    "txbytes": "0xf860800a83029fe09410d8421dd60b783f6dea6003ce0c394edcecff09808025a06cdc0af51edb861fba2d9885ec64d175fcb7bf39680ae9876f28c585f318cc9aa025f310c18b363e10f7e2351ea5beda00daeba2dc374103641257f45667b234ad",
                    "indexes": {
                        "data": 0,
                        "gas": 0,
                        "value": 0
                    },
                    "state": {
                        "0x15ab0592bb0bc8d01f0e6844bb1f81fcb4bb15e3": {
                            "nonce": "0x01",
                            "balance": "0x0de0b6b3a7538202",
                            "code": "0x",
                            "storage": {}
                        },
                        "0x10d8421dd60b783f6dea6003ce0c394edcecfc09": {
                            "nonce": "0x00",
                            "balance": "0x00",
                            "code": "0x600160035200",
                            "storage": {}
                        },
                        "0x10d8421dd60b783f6dea6003ce0c394edcecfd09": {
                            "nonce": "0x00",
                            "balance": "0x00",
                            "code": "0x600160035260406000604060007310d8421dd60b783f6dea6003ce0c394edcecfc09614e34f450600160035200",
                            "storage": {}
                        },
                        "0x10d8421dd60b783f6dea6003ce0c394edcecfe09": {
                            "nonce": "0x00",
                            "balance": "0x00",
                            "code": "0x600160035260406000604060007310d8421dd60b783f6dea6003ce0c394edcecfd09619c90fa505b61c350608051101560435760013b506001608051016080526027565b00",
                            "storage": {}
                        },
                        "0x10d8421dd60b783f6dea6003ce0c394edcecff09": {
                            "nonce": "0x00",
                            "balance": "0x0de0b6b3a7640000",
                            "code": "0x60406000604060007310d8421dd60b783f6dea6003ce0c394edcecfe0961eaf6f4600055600160015500",
                            "storage": {
                                "0x01": "0x01"
                            }
                        }
                    }
                }
            ]
        },
        "config": {
            "blobSchedule": {
                "Cancun": {
                    "target": "0x03",
                    "max": "0x06",
                    "baseFeeUpdateFraction": "0x32f0ed"
                },
                "Prague": {
                    "target": "0x06",
                    "max": "0x09",
                    "baseFeeUpdateFraction": "0x4c6964"
                }
            },
            "chainid": "0x01"
        },
        "_info": {
            "hash": "0xb76c4ea3e82a5663159828df133625d15f9cf9dd033e0a18f66df929b09ffd74",
            "comment": "`execution-spec-tests` generated test",
            "filling-transition-tool": "ethereum-spec-evm-resolver 0.0.5",
            "description": "No description available - add a docstring to the python test class or function.",
            "url": "",
            "fixture-format": "state_test",
            "eels-resolution": {
                "git-url": "https://github.com/ethereum/execution-specs.git",
                "branch": "forks/bpos",
                "commit": "7aacb2c54111391af5e98c505d5010b5698a770f"
            }
        }
    }
}