{
    "tests/static/state_tests/stStaticCall/static_log1_logMemsizeTooHighFiller.json::static_log1_logMemsizeTooHigh[fork_Cancun-state_test-]": {
        "env": {
            "currentCoinbase": "0x2adc25665018aa1fe0e6bc666dac8fc2697ff9ba",
            "currentGasLimit": "0x0f4240",
            "currentNumber": "0x01",
            "currentTimestamp": "0x03e8",
            "currentRandom": "0x0000000000000000000000000000000000000000000000000000000000020000",
            "currentDifficulty": "0x00",
            "currentBaseFee": "0x0a",
            "currentExcessBlobGas": "0x00"
        },
        "pre": {
            "0xc13ba7577ae2d99f3d34aa173bfd4f302bffd3cf": {
                "nonce": "0x00",
                "balance": "0x0de0b6b3a7640000",
                "code": "0x",
                "storage": {}
            },
            "0x7e204155c710d40801adde42f222fc314cf3708a": {
                "nonce": "0x00",
                "balance": "0x0de0b6b3a7640000",
                "code": "0x7faabbffffffffffffffffffffffffffffffffffffffffffffffffffffffffccdd60005260007fffffffffffffffffffffffffffffffffffffffffffffffffffffffffffffffff6001a100",
                "storage": {}
            },
            "0x7e204155c710d40801adde42f222fc314cf3718a": {
                "nonce": "0x00",
                "balance": "0x0de0b6b3a7640000",
                "code": "0x6000600060006000737e204155c710d40801adde42f222fc314cf3708a6103e8fa60005500",
                "storage": {}
            }
        },
        "transaction": {
            "nonce": "0x00",
            "gasPrice": "0x0a",
            "gasLimit": [
                "0x033450"
            ],
            "to": "0x7e204155c710d40801adde42f222fc314cf3718a",
            "value": [
                "0x0186a0"
            ],
            "data": [
                "0x"
            ],
            "sender": "0xc13ba7577ae2d99f3d34aa173bfd4f302bffd3cf",
            "secretKey": "0xad03a73d09b9baea5542dbb17e204155c710d40801adde42f222fc314cf3708a"
        },
        "post": {
            "Cancun": [
                {
                    "hash": "0xc4fddd67709de8f52daaf5e9114219640eaa169f2d44c513ff0f1fb5bc81d0ce",
                    "logs": "0x1dcc4de8dec75d7aab85b567b6ccd41ad312451b948a7413f0a142fd40d49347",
                    "txbytes": "0xf863800a83033450947e204155c710d40801adde42f222fc314cf3718a830186a08025a019f19e9dc619b86a96f2fccd5585b58e635a0661946e67eea48adaca43ae8152a07affab21651845f85ed230c6eeb283dd202b0cde112f5c07ed4853c506e0e7d7",
                    "indexes": {
                        "data": 0,
                        "gas": 0,
                        "value": 0
                    },
                    "state": {
                        "0xc13ba7577ae2d99f3d34aa173bfd4f302bffd3cf": {
                            "nonce": "0x01",
                            "balance": "0x0de0b6b3a75e61ae",
                            "code": "0x",
                            "storage": {}
                        },
                        "0x7e204155c710d40801adde42f222fc314cf3708a": {
                            "nonce": "0x00",
                            "balance": "0x0de0b6b3a7640000",
                            "code": "0x7faabbffffffffffffffffffffffffffffffffffffffffffffffffffffffffccdd60005260007fffffffffffffffffffffffffffffffffffffffffffffffffffffffffffffffff6001a100",
                            "storage": {}
                        },
                        "0x7e204155c710d40801adde42f222fc314cf3718a": {
                            "nonce": "0x00",
                            "balance": "0x0de0b6b3a76586a0",
                            "code": "0x6000600060006000737e204155c710d40801adde42f222fc314cf3708a6103e8fa60005500",
                            "storage": {}
                        }
                    }
                }
            ]
        },
        "config": {
            "blobSchedule": {
                "Cancun": {
                    "target": "0x03",
                    "max": "0x06",
                    "baseFeeUpdateFraction": "0x32f0ed"
                }
            },
            "chainid": "0x01"
        },
        "_info": {
            "hash": "0x4637e537ad4dc6dfc319ce9a7db5c34f651dd1909d0afa6e06e15dd9201b513f",
            "comment": "`execution-specs` generated test",
            "filling-transition-tool": "2.18.0rc6",
            "description": "No description available - add a docstring to the python test class or function.",
            "url": "",
            "fixture-format": "state_test"
        }
    },
    "tests/static/state_tests/stStaticCall/static_log1_logMemsizeTooHighFiller.json::static_log1_logMemsizeTooHigh[fork_Osaka-state_test-]": {
        "env": {
            "currentCoinbase": "0x2adc25665018aa1fe0e6bc666dac8fc2697ff9ba",
            "currentGasLimit": "0x0f4240",
            "currentNumber": "0x01",
            "currentTimestamp": "0x03e8",
            "currentRandom": "0x0000000000000000000000000000000000000000000000000000000000020000",
            "currentDifficulty": "0x00",
            "currentBaseFee": "0x0a",
            "currentExcessBlobGas": "0x00"
        },
        "pre": {
            "0xc13ba7577ae2d99f3d34aa173bfd4f302bffd3cf": {
                "nonce": "0x00",
                "balance": "0x0de0b6b3a7640000",
                "code": "0x",
                "storage": {}
            },
            "0x7e204155c710d40801adde42f222fc314cf3708a": {
                "nonce": "0x00",
                "balance": "0x0de0b6b3a7640000",
                "code": "0x7faabbffffffffffffffffffffffffffffffffffffffffffffffffffffffffccdd60005260007fffffffffffffffffffffffffffffffffffffffffffffffffffffffffffffffff6001a100",
                "storage": {}
            },
            "0x7e204155c710d40801adde42f222fc314cf3718a": {
                "nonce": "0x00",
                "balance": "0x0de0b6b3a7640000",
                "code": "0x6000600060006000737e204155c710d40801adde42f222fc314cf3708a6103e8fa60005500",
                "storage": {}
            }
        },
        "transaction": {
            "nonce": "0x00",
            "gasPrice": "0x0a",
            "gasLimit": [
                "0x033450"
            ],
            "to": "0x7e204155c710d40801adde42f222fc314cf3718a",
            "value": [
                "0x0186a0"
            ],
            "data": [
                "0x"
            ],
            "sender": "0xc13ba7577ae2d99f3d34aa173bfd4f302bffd3cf",
            "secretKey": "0xad03a73d09b9baea5542dbb17e204155c710d40801adde42f222fc314cf3708a"
        },
        "post": {
            "Osaka": [
                {
                    "hash": "0xc4fddd67709de8f52daaf5e9114219640eaa169f2d44c513ff0f1fb5bc81d0ce",
                    "logs": "0x1dcc4de8dec75d7aab85b567b6ccd41ad312451b948a7413f0a142fd40d49347",
                    "txbytes": "0xf863800a83033450947e204155c710d40801adde42f222fc314cf3718a830186a08025a019f19e9dc619b86a96f2fccd5585b58e635a0661946e67eea48adaca43ae8152a07affab21651845f85ed230c6eeb283dd202b0cde112f5c07ed4853c506e0e7d7",
                    "indexes": {
                        "data": 0,
                        "gas": 0,
                        "value": 0
                    },
                    "state": {
                        "0xc13ba7577ae2d99f3d34aa173bfd4f302bffd3cf": {
                            "nonce": "0x01",
                            "balance": "0x0de0b6b3a75e61ae",
                            "code": "0x",
                            "storage": {}
                        },
                        "0x7e204155c710d40801adde42f222fc314cf3708a": {
                            "nonce": "0x00",
                            "balance": "0x0de0b6b3a7640000",
                            "code": "0x7faabbffffffffffffffffffffffffffffffffffffffffffffffffffffffffccdd60005260007fffffffffffffffffffffffffffffffffffffffffffffffffffffffffffffffff6001a100",
                            "storage": {}
                        },
                        "0x7e204155c710d40801adde42f222fc314cf3718a": {
                            "nonce": "0x00",
                            "balance": "0x0de0b6b3a76586a0",
                            "code": "0x6000600060006000737e204155c710d40801adde42f222fc314cf3708a6103e8fa60005500",
                            "storage": {}
                        }
                    }
                }
            ]
        },
        "config": {
            "blobSchedule": {
                "Cancun": {
                    "target": "0x03",
                    "max": "0x06",
                    "baseFeeUpdateFraction": "0x32f0ed"
                },
                "Prague": {
                    "target": "0x06",
                    "max": "0x09",
                    "baseFeeUpdateFraction": "0x4c6964"
                },
                "Osaka": {
                    "target": "0x06",
                    "max": "0x09",
                    "baseFeeUpdateFraction": "0x4c6964"
                }
            },
            "chainid": "0x01"
        },
        "_info": {
            "hash": "0x4c92580161187fc9dc0bc067bef538ac6a1ef33b67742718939dbe165a327e8b",
            "comment": "`execution-specs` generated test",
            "filling-transition-tool": "2.18.0rc6",
            "description": "No description available - add a docstring to the python test class or function.",
            "url": "",
            "fixture-format": "state_test"
        }
    },
    "tests/static/state_tests/stStaticCall/static_log1_logMemsizeTooHighFiller.json::static_log1_logMemsizeTooHigh[fork_Prague-state_test-]": {
        "env": {
            "currentCoinbase": "0x2adc25665018aa1fe0e6bc666dac8fc2697ff9ba",
            "currentGasLimit": "0x0f4240",
            "currentNumber": "0x01",
            "currentTimestamp": "0x03e8",
            "currentRandom": "0x0000000000000000000000000000000000000000000000000000000000020000",
            "currentDifficulty": "0x00",
            "currentBaseFee": "0x0a",
            "currentExcessBlobGas": "0x00"
        },
        "pre": {
            "0xc13ba7577ae2d99f3d34aa173bfd4f302bffd3cf": {
                "nonce": "0x00",
                "balance": "0x0de0b6b3a7640000",
                "code": "0x",
                "storage": {}
            },
            "0x7e204155c710d40801adde42f222fc314cf3708a": {
                "nonce": "0x00",
                "balance": "0x0de0b6b3a7640000",
                "code": "0x7faabbffffffffffffffffffffffffffffffffffffffffffffffffffffffffccdd60005260007fffffffffffffffffffffffffffffffffffffffffffffffffffffffffffffffff6001a100",
                "storage": {}
            },
            "0x7e204155c710d40801adde42f222fc314cf3718a": {
                "nonce": "0x00",
                "balance": "0x0de0b6b3a7640000",
                "code": "0x6000600060006000737e204155c710d40801adde42f222fc314cf3708a6103e8fa60005500",
                "storage": {}
            }
        },
        "transaction": {
            "nonce": "0x00",
            "gasPrice": "0x0a",
            "gasLimit": [
                "0x033450"
            ],
            "to": "0x7e204155c710d40801adde42f222fc314cf3718a",
            "value": [
                "0x0186a0"
            ],
            "data": [
                "0x"
            ],
            "sender": "0xc13ba7577ae2d99f3d34aa173bfd4f302bffd3cf",
            "secretKey": "0xad03a73d09b9baea5542dbb17e204155c710d40801adde42f222fc314cf3708a"
        },
        "post": {
            "Prague": [
                {
                    "hash": "0xc4fddd67709de8f52daaf5e9114219640eaa169f2d44c513ff0f1fb5bc81d0ce",
                    "logs": "0x1dcc4de8dec75d7aab85b567b6ccd41ad312451b948a7413f0a142fd40d49347",
                    "txbytes": "0xf863800a83033450947e204155c710d40801adde42f222fc314cf3718a830186a08025a019f19e9dc619b86a96f2fccd5585b58e635a0661946e67eea48adaca43ae8152a07affab21651845f85ed230c6eeb283dd202b0cde112f5c07ed4853c506e0e7d7",
                    "indexes": {
                        "data": 0,
                        "gas": 0,
                        "value": 0
                    },
                    "state": {
                        "0xc13ba7577ae2d99f3d34aa173bfd4f302bffd3cf": {
                            "nonce": "0x01",
                            "balance": "0x0de0b6b3a75e61ae",
                            "code": "0x",
                            "storage": {}
                        },
                        "0x7e204155c710d40801adde42f222fc314cf3708a": {
                            "nonce": "0x00",
                            "balance": "0x0de0b6b3a7640000",
                            "code": "0x7faabbffffffffffffffffffffffffffffffffffffffffffffffffffffffffccdd60005260007fffffffffffffffffffffffffffffffffffffffffffffffffffffffffffffffff6001a100",
                            "storage": {}
                        },
                        "0x7e204155c710d40801adde42f222fc314cf3718a": {
                            "nonce": "0x00",
                            "balance": "0x0de0b6b3a76586a0",
                            "code": "0x6000600060006000737e204155c710d40801adde42f222fc314cf3708a6103e8fa60005500",
                            "storage": {}
                        }
                    }
                }
            ]
        },
        "config": {
            "blobSchedule": {
                "Cancun": {
                    "target": "0x03",
                    "max": "0x06",
                    "baseFeeUpdateFraction": "0x32f0ed"
                },
                "Prague": {
                    "target": "0x06",
                    "max": "0x09",
                    "baseFeeUpdateFraction": "0x4c6964"
                }
            },
            "chainid": "0x01"
        },
        "_info": {
            "hash": "0x174031d4b71d0dfed1ea63a9309b9d99b5d3c6fcbca21888c4f71cfb6459efc6",
            "comment": "`execution-specs` generated test",
            "filling-transition-tool": "2.18.0rc6",
            "description": "No description available - add a docstring to the python test class or function.",
            "url": "",
            "fixture-format": "state_test"
        }
    }
}