{
    "tests/static/state_tests/stStaticCall/static_callcallcodecall_010_OOGMAfterFiller.json::static_callcallcodecall_010_OOGMAfter[fork_Cancun-state_test-d0]": {
        "env": {
            "currentCoinbase": "0x2adc25665018aa1fe0e6bc666dac8fc2697ff9ba",
            "currentGasLimit": "0x01c9c380",
            "currentNumber": "0x01",
            "currentTimestamp": "0x03e8",
            "currentRandom": "0x0000000000000000000000000000000000000000000000000000000000020000",
            "currentDifficulty": "0x00",
            "currentBaseFee": "0x0a",
            "currentExcessBlobGas": "0x00"
        },
        "pre": {
            "0xca62bfec10a41c6c7a0a3b491e7ca7aeef949d7e": {
                "nonce": "0x00",
                "balance": "0x0de0b6b3a7640000",
                "code": "0x",
                "storage": {}
            },
            "0x444e8ac58dd90d430e70eb768c50ffc21a941cc4": {
                "nonce": "0x00",
                "balance": "0x00",
                "code": "0x600160035200",
                "storage": {}
            },
            "0x444e8ac58dd90d430e70eb768c50ffc21a941dc4": {
                "nonce": "0x00",
                "balance": "0x00",
                "code": "0x604060006040600073444e8ac58dd90d430e70eb768c50ffc21a941cc46201d4e8fa00",
                "storage": {}
            },
            "0x444e8ac58dd90d430e70eb768c50ffc21a941ec4": {
                "nonce": "0x00",
                "balance": "0x00",
                "code": "0x604060006040600073444e8ac58dd90d430e70eb768c50ffc21a941dc462061ad0f4505b61c3506080511015603f5760013b506001608051016080526023565b00",
                "storage": {}
            },
            "0x444e8ac58dd90d430e70eb768c50ffc21a941fc4": {
                "nonce": "0x00",
                "balance": "0x00",
                "code": "0x604060006040600073444e8ac58dd90d430e70eb768c50ffc21a941dc462061ad0f450600160035500",
                "storage": {}
            },
            "0x444e8ac58dd90d430e70eb768c50ffc21a9420c4": {
                "nonce": "0x00",
                "balance": "0x0de0b6b3a7640000",
                "code": "0x604060006040600060003562092856fa600055600160015500",
                "storage": {}
            }
        },
        "transaction": {
            "nonce": "0x00",
            "gasPrice": "0x0a",
            "gasLimit": [
                "0x1a3ec0"
            ],
            "to": "0x444e8ac58dd90d430e70eb768c50ffc21a9420c4",
            "value": [
                "0x00"
            ],
            "data": [
                "0x000000000000000000000000444e8ac58dd90d430e70eb768c50ffc21a941fc4"
            ],
            "sender": "0xca62bfec10a41c6c7a0a3b491e7ca7aeef949d7e",
            "secretKey": "0x46dda828e081501130e3ec4e444e8ac58dd90d430e70eb768c50ffc21a941cc4"
        },
        "post": {
            "Cancun": [
                {
                    "hash": "0x512c997b38f289385591c65bbd396e20ee63ff76d9634bff1713da72c4963a91",
                    "logs": "0x1dcc4de8dec75d7aab85b567b6ccd41ad312451b948a7413f0a142fd40d49347",
                    "txbytes": "0xf880800a831a3ec094444e8ac58dd90d430e70eb768c50ffc21a9420c480a0000000000000000000000000444e8ac58dd90d430e70eb768c50ffc21a941fc426a0cf2d764473701aeaa079811b82da03aeff97d23f1f8ea7a9383c8a3752b403dea07a472e8941b66e2d193c48d871182f7e966ca09379c2dfb6cb6af7b1cb3b1c34",
                    "indexes": {
                        "data": 0,
                        "gas": 0,
                        "value": 0
                    },
                    "state": {
                        "0xca62bfec10a41c6c7a0a3b491e7ca7aeef949d7e": {
                            "nonce": "0x01",
                            "balance": "0x0de0b6b3a7010dc4",
                            "code": "0x",
                            "storage": {}
                        },
                        "0x444e8ac58dd90d430e70eb768c50ffc21a941cc4": {
                            "nonce": "0x00",
                            "balance": "0x00",
                            "code": "0x600160035200",
                            "storage": {}
                        },
                        "0x444e8ac58dd90d430e70eb768c50ffc21a941dc4": {
                            "nonce": "0x00",
                            "balance": "0x00",
                            "code": "0x604060006040600073444e8ac58dd90d430e70eb768c50ffc21a941cc46201d4e8fa00",
                            "storage": {}
                        },
                        "0x444e8ac58dd90d430e70eb768c50ffc21a941ec4": {
                            "nonce": "0x00",
                            "balance": "0x00",
                            "code": "0x604060006040600073444e8ac58dd90d430e70eb768c50ffc21a941dc462061ad0f4505b61c3506080511015603f5760013b506001608051016080526023565b00",
                            "storage": {}
                        },
                        "0x444e8ac58dd90d430e70eb768c50ffc21a941fc4": {
                            "nonce": "0x00",
                            "balance": "0x00",
                            "code": "0x604060006040600073444e8ac58dd90d430e70eb768c50ffc21a941dc462061ad0f450600160035500",
                            "storage": {}
                        },
                        "0x444e8ac58dd90d430e70eb768c50ffc21a9420c4": {
                            "nonce": "0x00",
                            "balance": "0x0de0b6b3a7640000",
                            "code": "0x604060006040600060003562092856fa600055600160015500",
                            "storage": {
                                "0x01": "0x01"
                            }
                        }
                    }
                }
            ]
        },
        "config": {
            "blobSchedule": {
                "Cancun": {
                    "target": "0x03",
                    "max": "0x06",
                    "baseFeeUpdateFraction": "0x32f0ed"
                }
            },
            "chainid": "0x01"
        },
        "_info": {
            "hash": "0x1b8f1fa9ae565df9b929518c04a4f79804178121b381c3a24d978e897271ba8c",
            "comment": "`execution-specs` generated test",
            "filling-transition-tool": "2.18.0rc6",
            "description": "No description available - add a docstring to the python test class or function.",
            "url": "",
            "fixture-format": "state_test"
        }
    },
    "tests/static/state_tests/stStaticCall/static_callcallcodecall_010_OOGMAfterFiller.json::static_callcallcodecall_010_OOGMAfter[fork_Cancun-state_test-d1]": {
        "env": {
            "currentCoinbase": "0x2adc25665018aa1fe0e6bc666dac8fc2697ff9ba",
            "currentGasLimit": "0x01c9c380",
            "currentNumber": "0x01",
            "currentTimestamp": "0x03e8",
            "currentRandom": "0x0000000000000000000000000000000000000000000000000000000000020000",
            "currentDifficulty": "0x00",
            "currentBaseFee": "0x0a",
            "currentExcessBlobGas": "0x00"
        },
        "pre": {
            "0x69daa7746d72cfc997cd240d0e66d38ce7cbc9c3": {
                "nonce": "0x00",
                "balance": "0x0de0b6b3a7640000",
                "code": "0x",
                "storage": {}
            },
            "0x3bc2d505531118f06cd98e310dad72410898883d": {
                "nonce": "0x00",
                "balance": "0x00",
                "code": "0x600160035200",
                "storage": {}
            },
            "0x3bc2d505531118f06cd98e310dad72410898893d": {
                "nonce": "0x00",
                "balance": "0x00",
                "code": "0x6040600060406000733bc2d505531118f06cd98e310dad72410898883d6201d4e8fa00",
                "storage": {}
            },
            "0x3bc2d505531118f06cd98e310dad724108988a3d": {
                "nonce": "0x00",
                "balance": "0x00",
                "code": "0x6040600060406000733bc2d505531118f06cd98e310dad72410898893d62061ad0f4505b61c3506080511015603f5760013b506001608051016080526023565b00",
                "storage": {}
            },
            "0x3bc2d505531118f06cd98e310dad724108988b3d": {
                "nonce": "0x00",
                "balance": "0x00",
                "code": "0x6040600060406000733bc2d505531118f06cd98e310dad72410898893d62061ad0f450600160035500",
                "storage": {}
            },
            "0x3bc2d505531118f06cd98e310dad724108988c3d": {
                "nonce": "0x00",
                "balance": "0x0de0b6b3a7640000",
                "code": "0x604060006040600060003562092856fa600055600160015500",
                "storage": {}
            }
        },
        "transaction": {
            "nonce": "0x00",
            "gasPrice": "0x0a",
            "gasLimit": [
                "0x1a3ec0"
            ],
            "to": "0x3bc2d505531118f06cd98e310dad724108988c3d",
            "value": [
                "0x00"
            ],
            "data": [
                "0x0000000000000000000000003bc2d505531118f06cd98e310dad724108988a3d"
            ],
            "sender": "0x69daa7746d72cfc997cd240d0e66d38ce7cbc9c3",
            "secretKey": "0xa2d60fdc12f90adddb1a131f3bc2d505531118f06cd98e310dad72410898883d"
        },
        "post": {
            "Cancun": [
                {
                    "hash": "0x1f354ab43cc9cae95f736d99f321e79416864ee262c2160ce937e84fabea3f6a",
                    "logs": "0x1dcc4de8dec75d7aab85b567b6ccd41ad312451b948a7413f0a142fd40d49347",
                    "txbytes": "0xf880800a831a3ec0943bc2d505531118f06cd98e310dad724108988c3d80a00000000000000000000000003bc2d505531118f06cd98e310dad724108988a3d26a01331e69adebc92d72d8e530ada312624db13d3a5a3a0d31b86416b3a5a02ff6da030be2a24f5e631c5187200cd23b1ce571b57b39cad57bffe9aaa6ee8133638f6",
                    "indexes": {
                        "data": 0,
                        "gas": 0,
                        "value": 0
                    },
                    "state": {
                        "0x69daa7746d72cfc997cd240d0e66d38ce7cbc9c3": {
                            "nonce": "0x01",
                            "balance": "0x0de0b6b3a7010dc4",
                            "code": "0x",
                            "storage": {}
                        },
                        "0x3bc2d505531118f06cd98e310dad72410898883d": {
                            "nonce": "0x00",
                            "balance": "0x00",
                            "code": "0x600160035200",
                            "storage": {}
                        },
                        "0x3bc2d505531118f06cd98e310dad72410898893d": {
                            "nonce": "0x00",
                            "balance": "0x00",
                            "code": "0x6040600060406000733bc2d505531118f06cd98e310dad72410898883d6201d4e8fa00",
                            "storage": {}
                        },
                        "0x3bc2d505531118f06cd98e310dad724108988a3d": {
                            "nonce": "0x00",
                            "balance": "0x00",
                            "code": "0x6040600060406000733bc2d505531118f06cd98e310dad72410898893d62061ad0f4505b61c3506080511015603f5760013b506001608051016080526023565b00",
                            "storage": {}
                        },
                        "0x3bc2d505531118f06cd98e310dad724108988b3d": {
                            "nonce": "0x00",
                            "balance": "0x00",
                            "code": "0x6040600060406000733bc2d505531118f06cd98e310dad72410898893d62061ad0f450600160035500",
                            "storage": {}
                        },
                        "0x3bc2d505531118f06cd98e310dad724108988c3d": {
                            "nonce": "0x00",
                            "balance": "0x0de0b6b3a7640000",
                            "code": "0x604060006040600060003562092856fa600055600160015500",
                            "storage": {
                                "0x01": "0x01"
                            }
                        }
                    }
                }
            ]
        },
        "config": {
            "blobSchedule": {
                "Cancun": {
                    "target": "0x03",
                    "max": "0x06",
                    "baseFeeUpdateFraction": "0x32f0ed"
                }
            },
            "chainid": "0x01"
        },
        "_info": {
            "hash": "0x2af94d070aa14cc3e96fffb2451e48d01a575a5a4f5874256b54bfa84d006785",
            "comment": "`execution-specs` generated test",
            "filling-transition-tool": "2.18.0rc6",
            "description": "No description available - add a docstring to the python test class or function.",
            "url": "",
            "fixture-format": "state_test"
        }
    },
    "tests/static/state_tests/stStaticCall/static_callcallcodecall_010_OOGMAfterFiller.json::static_callcallcodecall_010_OOGMAfter[fork_Osaka-state_test-d0]": {
        "env": {
            "currentCoinbase": "0x2adc25665018aa1fe0e6bc666dac8fc2697ff9ba",
            "currentGasLimit": "0x01c9c380",
            "currentNumber": "0x01",
            "currentTimestamp": "0x03e8",
            "currentRandom": "0x0000000000000000000000000000000000000000000000000000000000020000",
            "currentDifficulty": "0x00",
            "currentBaseFee": "0x0a",
            "currentExcessBlobGas": "0x00"
        },
        "pre": {
            "0xca62bfec10a41c6c7a0a3b491e7ca7aeef949d7e": {
                "nonce": "0x00",
                "balance": "0x0de0b6b3a7640000",
                "code": "0x",
                "storage": {}
            },
            "0x444e8ac58dd90d430e70eb768c50ffc21a941cc4": {
                "nonce": "0x00",
                "balance": "0x00",
                "code": "0x600160035200",
                "storage": {}
            },
            "0x444e8ac58dd90d430e70eb768c50ffc21a941dc4": {
                "nonce": "0x00",
                "balance": "0x00",
                "code": "0x604060006040600073444e8ac58dd90d430e70eb768c50ffc21a941cc46201d4e8fa00",
                "storage": {}
            },
            "0x444e8ac58dd90d430e70eb768c50ffc21a941ec4": {
                "nonce": "0x00",
                "balance": "0x00",
                "code": "0x604060006040600073444e8ac58dd90d430e70eb768c50ffc21a941dc462061ad0f4505b61c3506080511015603f5760013b506001608051016080526023565b00",
                "storage": {}
            },
            "0x444e8ac58dd90d430e70eb768c50ffc21a941fc4": {
                "nonce": "0x00",
                "balance": "0x00",
                "code": "0x604060006040600073444e8ac58dd90d430e70eb768c50ffc21a941dc462061ad0f450600160035500",
                "storage": {}
            },
            "0x444e8ac58dd90d430e70eb768c50ffc21a9420c4": {
                "nonce": "0x00",
                "balance": "0x0de0b6b3a7640000",
                "code": "0x604060006040600060003562092856fa600055600160015500",
                "storage": {}
            }
        },
        "transaction": {
            "nonce": "0x00",
            "gasPrice": "0x0a",
            "gasLimit": [
                "0x1a3ec0"
            ],
            "to": "0x444e8ac58dd90d430e70eb768c50ffc21a9420c4",
            "value": [
                "0x00"
            ],
            "data": [
                "0x000000000000000000000000444e8ac58dd90d430e70eb768c50ffc21a941fc4"
            ],
            "sender": "0xca62bfec10a41c6c7a0a3b491e7ca7aeef949d7e",
            "secretKey": "0x46dda828e081501130e3ec4e444e8ac58dd90d430e70eb768c50ffc21a941cc4"
        },
        "post": {
            "Osaka": [
                {
                    "hash": "0x512c997b38f289385591c65bbd396e20ee63ff76d9634bff1713da72c4963a91",
                    "logs": "0x1dcc4de8dec75d7aab85b567b6ccd41ad312451b948a7413f0a142fd40d49347",
                    "txbytes": "0xf880800a831a3ec094444e8ac58dd90d430e70eb768c50ffc21a9420c480a0000000000000000000000000444e8ac58dd90d430e70eb768c50ffc21a941fc426a0cf2d764473701aeaa079811b82da03aeff97d23f1f8ea7a9383c8a3752b403dea07a472e8941b66e2d193c48d871182f7e966ca09379c2dfb6cb6af7b1cb3b1c34",
                    "indexes": {
                        "data": 0,
                        "gas": 0,
                        "value": 0
                    },
                    "state": {
                        "0xca62bfec10a41c6c7a0a3b491e7ca7aeef949d7e": {
                            "nonce": "0x01",
                            "balance": "0x0de0b6b3a7010dc4",
                            "code": "0x",
                            "storage": {}
                        },
                        "0x444e8ac58dd90d430e70eb768c50ffc21a941cc4": {
                            "nonce": "0x00",
                            "balance": "0x00",
                            "code": "0x600160035200",
                            "storage": {}
                        },
                        "0x444e8ac58dd90d430e70eb768c50ffc21a941dc4": {
                            "nonce": "0x00",
                            "balance": "0x00",
                            "code": "0x604060006040600073444e8ac58dd90d430e70eb768c50ffc21a941cc46201d4e8fa00",
                            "storage": {}
                        },
                        "0x444e8ac58dd90d430e70eb768c50ffc21a941ec4": {
                            "nonce": "0x00",
                            "balance": "0x00",
                            "code": "0x604060006040600073444e8ac58dd90d430e70eb768c50ffc21a941dc462061ad0f4505b61c3506080511015603f5760013b506001608051016080526023565b00",
                            "storage": {}
                        },
                        "0x444e8ac58dd90d430e70eb768c50ffc21a941fc4": {
                            "nonce": "0x00",
                            "balance": "0x00",
                            "code": "0x604060006040600073444e8ac58dd90d430e70eb768c50ffc21a941dc462061ad0f450600160035500",
                            "storage": {}
                        },
                        "0x444e8ac58dd90d430e70eb768c50ffc21a9420c4": {
                            "nonce": "0x00",
                            "balance": "0x0de0b6b3a7640000",
                            "code": "0x604060006040600060003562092856fa600055600160015500",
                            "storage": {
                                "0x01": "0x01"
                            }
                        }
                    }
                }
            ]
        },
        "config": {
            "blobSchedule": {
                "Cancun": {
                    "target": "0x03",
                    "max": "0x06",
                    "baseFeeUpdateFraction": "0x32f0ed"
                },
                "Prague": {
                    "target": "0x06",
                    "max": "0x09",
                    "baseFeeUpdateFraction": "0x4c6964"
                },
                "Osaka": {
                    "target": "0x06",
                    "max": "0x09",
                    "baseFeeUpdateFraction": "0x4c6964"
                }
            },
            "chainid": "0x01"
        },
        "_info": {
            "hash": "0xb7ba3e08a9f58f6fba90d8378d1e2c1bd8e02622b0f3035fd2e705c536e489a8",
            "comment": "`execution-specs` generated test",
            "filling-transition-tool": "2.18.0rc6",
            "description": "No description available - add a docstring to the python test class or function.",
            "url": "",
            "fixture-format": "state_test"
        }
    },
    "tests/static/state_tests/stStaticCall/static_callcallcodecall_010_OOGMAfterFiller.json::static_callcallcodecall_010_OOGMAfter[fork_Osaka-state_test-d1]": {
        "env": {
            "currentCoinbase": "0x2adc25665018aa1fe0e6bc666dac8fc2697ff9ba",
            "currentGasLimit": "0x01c9c380",
            "currentNumber": "0x01",
            "currentTimestamp": "0x03e8",
            "currentRandom": "0x0000000000000000000000000000000000000000000000000000000000020000",
            "currentDifficulty": "0x00",
            "currentBaseFee": "0x0a",
            "currentExcessBlobGas": "0x00"
        },
        "pre": {
            "0x69daa7746d72cfc997cd240d0e66d38ce7cbc9c3": {
                "nonce": "0x00",
                "balance": "0x0de0b6b3a7640000",
                "code": "0x",
                "storage": {}
            },
            "0x3bc2d505531118f06cd98e310dad72410898883d": {
                "nonce": "0x00",
                "balance": "0x00",
                "code": "0x600160035200",
                "storage": {}
            },
            "0x3bc2d505531118f06cd98e310dad72410898893d": {
                "nonce": "0x00",
                "balance": "0x00",
                "code": "0x6040600060406000733bc2d505531118f06cd98e310dad72410898883d6201d4e8fa00",
                "storage": {}
            },
            "0x3bc2d505531118f06cd98e310dad724108988a3d": {
                "nonce": "0x00",
                "balance": "0x00",
                "code": "0x6040600060406000733bc2d505531118f06cd98e310dad72410898893d62061ad0f4505b61c3506080511015603f5760013b506001608051016080526023565b00",
                "storage": {}
            },
            "0x3bc2d505531118f06cd98e310dad724108988b3d": {
                "nonce": "0x00",
                "balance": "0x00",
                "code": "0x6040600060406000733bc2d505531118f06cd98e310dad72410898893d62061ad0f450600160035500",
                "storage": {}
            },
            "0x3bc2d505531118f06cd98e310dad724108988c3d": {
                "nonce": "0x00",
                "balance": "0x0de0b6b3a7640000",
                "code": "0x604060006040600060003562092856fa600055600160015500",
                "storage": {}
            }
        },
        "transaction": {
            "nonce": "0x00",
            "gasPrice": "0x0a",
            "gasLimit": [
                "0x1a3ec0"
            ],
            "to": "0x3bc2d505531118f06cd98e310dad724108988c3d",
            "value": [
                "0x00"
            ],
            "data": [
                "0x0000000000000000000000003bc2d505531118f06cd98e310dad724108988a3d"
            ],
            "sender": "0x69daa7746d72cfc997cd240d0e66d38ce7cbc9c3",
            "secretKey": "0xa2d60fdc12f90adddb1a131f3bc2d505531118f06cd98e310dad72410898883d"
        },
        "post": {
            "Osaka": [
                {
                    "hash": "0x1f354ab43cc9cae95f736d99f321e79416864ee262c2160ce937e84fabea3f6a",
                    "logs": "0x1dcc4de8dec75d7aab85b567b6ccd41ad312451b948a7413f0a142fd40d49347",
                    "txbytes": "0xf880800a831a3ec0943bc2d505531118f06cd98e310dad724108988c3d80a00000000000000000000000003bc2d505531118f06cd98e310dad724108988a3d26a01331e69adebc92d72d8e530ada312624db13d3a5a3a0d31b86416b3a5a02ff6da030be2a24f5e631c5187200cd23b1ce571b57b39cad57bffe9aaa6ee8133638f6",
                    "indexes": {
                        "data": 0,
                        "gas": 0,
                        "value": 0
                    },
                    "state": {
                        "0x69daa7746d72cfc997cd240d0e66d38ce7cbc9c3": {
                            "nonce": "0x01",
                            "balance": "0x0de0b6b3a7010dc4",
                            "code": "0x",
                            "storage": {}
                        },
                        "0x3bc2d505531118f06cd98e310dad72410898883d": {
                            "nonce": "0x00",
                            "balance": "0x00",
                            "code": "0x600160035200",
                            "storage": {}
                        },
                        "0x3bc2d505531118f06cd98e310dad72410898893d": {
                            "nonce": "0x00",
                            "balance": "0x00",
                            "code": "0x6040600060406000733bc2d505531118f06cd98e310dad72410898883d6201d4e8fa00",
                            "storage": {}
                        },
                        "0x3bc2d505531118f06cd98e310dad724108988a3d": {
                            "nonce": "0x00",
                            "balance": "0x00",
                            "code": "0x6040600060406000733bc2d505531118f06cd98e310dad72410898893d62061ad0f4505b61c3506080511015603f5760013b506001608051016080526023565b00",
                            "storage": {}
                        },
                        "0x3bc2d505531118f06cd98e310dad724108988b3d": {
                            "nonce": "0x00",
                            "balance": "0x00",
                            "code": "0x6040600060406000733bc2d505531118f06cd98e310dad72410898893d62061ad0f450600160035500",
                            "storage": {}
                        },
                        "0x3bc2d505531118f06cd98e310dad724108988c3d": {
                            "nonce": "0x00",
                            "balance": "0x0de0b6b3a7640000",
                            "code": "0x604060006040600060003562092856fa600055600160015500",
                            "storage": {
                                "0x01": "0x01"
                            }
                        }
                    }
                }
            ]
        },
        "config": {
            "blobSchedule": {
                "Cancun": {
                    "target": "0x03",
                    "max": "0x06",
                    "baseFeeUpdateFraction": "0x32f0ed"
                },
                "Prague": {
                    "target": "0x06",
                    "max": "0x09",
                    "baseFeeUpdateFraction": "0x4c6964"
                },
                "Osaka": {
                    "target": "0x06",
                    "max": "0x09",
                    "baseFeeUpdateFraction": "0x4c6964"
                }
            },
            "chainid": "0x01"
        },
        "_info": {
            "hash": "0x6c7aa1e3b13cd882ed7cc103c8507b474e9dd603d619269798956c8b926cb93a",
            "comment": "`execution-specs` generated test",
            "filling-transition-tool": "2.18.0rc6",
            "description": "No description available - add a docstring to the python test class or function.",
            "url": "",
            "fixture-format": "state_test"
        }
    },
    "tests/static/state_tests/stStaticCall/static_callcallcodecall_010_OOGMAfterFiller.json::static_callcallcodecall_010_OOGMAfter[fork_Prague-state_test-d0]": {
        "env": {
            "currentCoinbase": "0x2adc25665018aa1fe0e6bc666dac8fc2697ff9ba",
            "currentGasLimit": "0x01c9c380",
            "currentNumber": "0x01",
            "currentTimestamp": "0x03e8",
            "currentRandom": "0x0000000000000000000000000000000000000000000000000000000000020000",
            "currentDifficulty": "0x00",
            "currentBaseFee": "0x0a",
            "currentExcessBlobGas": "0x00"
        },
        "pre": {
            "0xca62bfec10a41c6c7a0a3b491e7ca7aeef949d7e": {
                "nonce": "0x00",
                "balance": "0x0de0b6b3a7640000",
                "code": "0x",
                "storage": {}
            },
            "0x444e8ac58dd90d430e70eb768c50ffc21a941cc4": {
                "nonce": "0x00",
                "balance": "0x00",
                "code": "0x600160035200",
                "storage": {}
            },
            "0x444e8ac58dd90d430e70eb768c50ffc21a941dc4": {
                "nonce": "0x00",
                "balance": "0x00",
                "code": "0x604060006040600073444e8ac58dd90d430e70eb768c50ffc21a941cc46201d4e8fa00",
                "storage": {}
            },
            "0x444e8ac58dd90d430e70eb768c50ffc21a941ec4": {
                "nonce": "0x00",
                "balance": "0x00",
                "code": "0x604060006040600073444e8ac58dd90d430e70eb768c50ffc21a941dc462061ad0f4505b61c3506080511015603f5760013b506001608051016080526023565b00",
                "storage": {}
            },
            "0x444e8ac58dd90d430e70eb768c50ffc21a941fc4": {
                "nonce": "0x00",
                "balance": "0x00",
                "code": "0x604060006040600073444e8ac58dd90d430e70eb768c50ffc21a941dc462061ad0f450600160035500",
                "storage": {}
            },
            "0x444e8ac58dd90d430e70eb768c50ffc21a9420c4": {
                "nonce": "0x00",
                "balance": "0x0de0b6b3a7640000",
                "code": "0x604060006040600060003562092856fa600055600160015500",
                "storage": {}
            }
        },
        "transaction": {
            "nonce": "0x00",
            "gasPrice": "0x0a",
            "gasLimit": [
                "0x1a3ec0"
            ],
            "to": "0x444e8ac58dd90d430e70eb768c50ffc21a9420c4",
            "value": [
                "0x00"
            ],
            "data": [
                "0x000000000000000000000000444e8ac58dd90d430e70eb768c50ffc21a941fc4"
            ],
            "sender": "0xca62bfec10a41c6c7a0a3b491e7ca7aeef949d7e",
            "secretKey": "0x46dda828e081501130e3ec4e444e8ac58dd90d430e70eb768c50ffc21a941cc4"
        },
        "post": {
            "Prague": [
                {
                    "hash": "0x512c997b38f289385591c65bbd396e20ee63ff76d9634bff1713da72c4963a91",
                    "logs": "0x1dcc4de8dec75d7aab85b567b6ccd41ad312451b948a7413f0a142fd40d49347",
                    "txbytes": "0xf880800a831a3ec094444e8ac58dd90d430e70eb768c50ffc21a9420c480a0000000000000000000000000444e8ac58dd90d430e70eb768c50ffc21a941fc426a0cf2d764473701aeaa079811b82da03aeff97d23f1f8ea7a9383c8a3752b403dea07a472e8941b66e2d193c48d871182f7e966ca09379c2dfb6cb6af7b1cb3b1c34",
                    "indexes": {
                        "data": 0,
                        "gas": 0,
                        "value": 0
                    },
                    "state": {
                        "0xca62bfec10a41c6c7a0a3b491e7ca7aeef949d7e": {
                            "nonce": "0x01",
                            "balance": "0x0de0b6b3a7010dc4",
                            "code": "0x",
                            "storage": {}
                        },
                        "0x444e8ac58dd90d430e70eb768c50ffc21a941cc4": {
                            "nonce": "0x00",
                            "balance": "0x00",
                            "code": "0x600160035200",
                            "storage": {}
                        },
                        "0x444e8ac58dd90d430e70eb768c50ffc21a941dc4": {
                            "nonce": "0x00",
                            "balance": "0x00",
                            "code": "0x604060006040600073444e8ac58dd90d430e70eb768c50ffc21a941cc46201d4e8fa00",
                            "storage": {}
                        },
                        "0x444e8ac58dd90d430e70eb768c50ffc21a941ec4": {
                            "nonce": "0x00",
                            "balance": "0x00",
                            "code": "0x604060006040600073444e8ac58dd90d430e70eb768c50ffc21a941dc462061ad0f4505b61c3506080511015603f5760013b506001608051016080526023565b00",
                            "storage": {}
                        },
                        "0x444e8ac58dd90d430e70eb768c50ffc21a941fc4": {
                            "nonce": "0x00",
                            "balance": "0x00",
                            "code": "0x604060006040600073444e8ac58dd90d430e70eb768c50ffc21a941dc462061ad0f450600160035500",
                            "storage": {}
                        },
                        "0x444e8ac58dd90d430e70eb768c50ffc21a9420c4": {
                            "nonce": "0x00",
                            "balance": "0x0de0b6b3a7640000",
                            "code": "0x604060006040600060003562092856fa600055600160015500",
                            "storage": {
                                "0x01": "0x01"
                            }
                        }
                    }
                }
            ]
        },
        "config": {
            "blobSchedule": {
                "Cancun": {
                    "target": "0x03",
                    "max": "0x06",
                    "baseFeeUpdateFraction": "0x32f0ed"
                },
                "Prague": {
                    "target": "0x06",
                    "max": "0x09",
                    "baseFeeUpdateFraction": "0x4c6964"
                }
            },
            "chainid": "0x01"
        },
        "_info": {
            "hash": "0x82d22747b63cbe2b1d7ccac872ae5a1d44ad92651d2da029bc56c84c844ac8d1",
            "comment": "`execution-specs` generated test",
            "filling-transition-tool": "2.18.0rc6",
            "description": "No description available - add a docstring to the python test class or function.",
            "url": "",
            "fixture-format": "state_test"
        }
    },
    "tests/static/state_tests/stStaticCall/static_callcallcodecall_010_OOGMAfterFiller.json::static_callcallcodecall_010_OOGMAfter[fork_Prague-state_test-d1]": {
        "env": {
            "currentCoinbase": "0x2adc25665018aa1fe0e6bc666dac8fc2697ff9ba",
            "currentGasLimit": "0x01c9c380",
            "currentNumber": "0x01",
            "currentTimestamp": "0x03e8",
            "currentRandom": "0x0000000000000000000000000000000000000000000000000000000000020000",
            "currentDifficulty": "0x00",
            "currentBaseFee": "0x0a",
            "currentExcessBlobGas": "0x00"
        },
        "pre": {
            "0x69daa7746d72cfc997cd240d0e66d38ce7cbc9c3": {
                "nonce": "0x00",
                "balance": "0x0de0b6b3a7640000",
                "code": "0x",
                "storage": {}
            },
            "0x3bc2d505531118f06cd98e310dad72410898883d": {
                "nonce": "0x00",
                "balance": "0x00",
                "code": "0x600160035200",
                "storage": {}
            },
            "0x3bc2d505531118f06cd98e310dad72410898893d": {
                "nonce": "0x00",
                "balance": "0x00",
                "code": "0x6040600060406000733bc2d505531118f06cd98e310dad72410898883d6201d4e8fa00",
                "storage": {}
            },
            "0x3bc2d505531118f06cd98e310dad724108988a3d": {
                "nonce": "0x00",
                "balance": "0x00",
                "code": "0x6040600060406000733bc2d505531118f06cd98e310dad72410898893d62061ad0f4505b61c3506080511015603f5760013b506001608051016080526023565b00",
                "storage": {}
            },
            "0x3bc2d505531118f06cd98e310dad724108988b3d": {
                "nonce": "0x00",
                "balance": "0x00",
                "code": "0x6040600060406000733bc2d505531118f06cd98e310dad72410898893d62061ad0f450600160035500",
                "storage": {}
            },
            "0x3bc2d505531118f06cd98e310dad724108988c3d": {
                "nonce": "0x00",
                "balance": "0x0de0b6b3a7640000",
                "code": "0x604060006040600060003562092856fa600055600160015500",
                "storage": {}
            }
        },
        "transaction": {
            "nonce": "0x00",
            "gasPrice": "0x0a",
            "gasLimit": [
                "0x1a3ec0"
            ],
            "to": "0x3bc2d505531118f06cd98e310dad724108988c3d",
            "value": [
                "0x00"
            ],
            "data": [
                "0x0000000000000000000000003bc2d505531118f06cd98e310dad724108988a3d"
            ],
            "sender": "0x69daa7746d72cfc997cd240d0e66d38ce7cbc9c3",
            "secretKey": "0xa2d60fdc12f90adddb1a131f3bc2d505531118f06cd98e310dad72410898883d"
        },
        "post": {
            "Prague": [
                {
                    "hash": "0x1f354ab43cc9cae95f736d99f321e79416864ee262c2160ce937e84fabea3f6a",
                    "logs": "0x1dcc4de8dec75d7aab85b567b6ccd41ad312451b948a7413f0a142fd40d49347",
                    "txbytes": "0xf880800a831a3ec0943bc2d505531118f06cd98e310dad724108988c3d80a00000000000000000000000003bc2d505531118f06cd98e310dad724108988a3d26a01331e69adebc92d72d8e530ada312624db13d3a5a3a0d31b86416b3a5a02ff6da030be2a24f5e631c5187200cd23b1ce571b57b39cad57bffe9aaa6ee8133638f6",
                    "indexes": {
                        "data": 0,
                        "gas": 0,
                        "value": 0
                    },
                    "state": {
                        "0x69daa7746d72cfc997cd240d0e66d38ce7cbc9c3": {
                            "nonce": "0x01",
                            "balance": "0x0de0b6b3a7010dc4",
                            "code": "0x",
                            "storage": {}
                        },
                        "0x3bc2d505531118f06cd98e310dad72410898883d": {
                            "nonce": "0x00",
                            "balance": "0x00",
                            "code": "0x600160035200",
                            "storage": {}
                        },
                        "0x3bc2d505531118f06cd98e310dad72410898893d": {
                            "nonce": "0x00",
                            "balance": "0x00",
                            "code": "0x6040600060406000733bc2d505531118f06cd98e310dad72410898883d6201d4e8fa00",
                            "storage": {}
                        },
                        "0x3bc2d505531118f06cd98e310dad724108988a3d": {
                            "nonce": "0x00",
                            "balance": "0x00",
                            "code": "0x6040600060406000733bc2d505531118f06cd98e310dad72410898893d62061ad0f4505b61c3506080511015603f5760013b506001608051016080526023565b00",
                            "storage": {}
                        },
                        "0x3bc2d505531118f06cd98e310dad724108988b3d": {
                            "nonce": "0x00",
                            "balance": "0x00",
                            "code": "0x6040600060406000733bc2d505531118f06cd98e310dad72410898893d62061ad0f450600160035500",
                            "storage": {}
                        },
                        "0x3bc2d505531118f06cd98e310dad724108988c3d": {
                            "nonce": "0x00",
                            "balance": "0x0de0b6b3a7640000",
                            "code": "0x604060006040600060003562092856fa600055600160015500",
                            "storage": {
                                "0x01": "0x01"
                            }
                        }
                    }
                }
            ]
        },
        "config": {
            "blobSchedule": {
                "Cancun": {
                    "target": "0x03",
                    "max": "0x06",
                    "baseFeeUpdateFraction": "0x32f0ed"
                },
                "Prague": {
                    "target": "0x06",
                    "max": "0x09",
                    "baseFeeUpdateFraction": "0x4c6964"
                }
            },
            "chainid": "0x01"
        },
        "_info": {
            "hash": "0x5a05dd0ca98f09c420c80d173ed695e620271bbef060cfad562ff4101da9f718",
            "comment": "`execution-specs` generated test",
            "filling-transition-tool": "2.18.0rc6",
            "description": "No description available - add a docstring to the python test class or function.",
            "url": "",
            "fixture-format": "state_test"
        }
    }
}