{
    "tests/static/state_tests/stStaticCall/static_CallSha256_3_prefix0Filler.json::static_CallSha256_3_prefix0[fork_Cancun-state_test-]": {
        "env": {
            "currentCoinbase": "0x2adc25665018aa1fe0e6bc666dac8fc2697ff9ba",
            "currentGasLimit": "0x989680",
            "currentNumber": "0x01",
            "currentTimestamp": "0x03e8",
            "currentRandom": "0x0000000000000000000000000000000000000000000000000000000000020000",
            "currentDifficulty": "0x00",
            "currentBaseFee": "0x0a",
            "currentExcessBlobGas": "0x00"
        },
        "pre": {
            "0xf22208ddbcba5567f32bbf82e379096e4ee209ad": {
                "nonce": "0x00",
                "balance": "0x0de0b6b3a7640000",
                "code": "0x",
                "storage": {}
            },
            "0xee3bb15979be6dd9b9965cef12c33941fbd8afc4": {
                "nonce": "0x00",
                "balance": "0x01312d00",
                "code": "0x64f34578907f600052602060006025600060026101f4fa60025560005160005500",
                "storage": {}
            }
        },
        "transaction": {
            "nonce": "0x00",
            "gasPrice": "0x0a",
            "gasLimit": [
                "0x0592a8"
            ],
            "to": "0xee3bb15979be6dd9b9965cef12c33941fbd8afc4",
            "value": [
                "0x0186a0"
            ],
            "data": [
                "0x"
            ],
            "sender": "0xf22208ddbcba5567f32bbf82e379096e4ee209ad",
            "secretKey": "0xed9b6d9dfa1391af0bafbea9ee3bb15979be6dd9b9965cef12c33941fbd8afc4"
        },
        "post": {
            "Cancun": [
                {
                    "hash": "0x07986cd039e3664182bea367974516f65505beea555e8ef5b0614b18edbcae72",
                    "logs": "0x1dcc4de8dec75d7aab85b567b6ccd41ad312451b948a7413f0a142fd40d49347",
                    "txbytes": "0xf863800a830592a894ee3bb15979be6dd9b9965cef12c33941fbd8afc4830186a08026a09ffe5651eb07fb12f93769a1b1b6b79a1ec9801f4c4466e46ee59888243d7054a00e0fc05ff0346c25f64c1c299bbfa28efe1143c3dee3e6379a7979dff0561265",
                    "indexes": {
                        "data": 0,
                        "gas": 0,
                        "value": 0
                    },
                    "state": {
                        "0xf22208ddbcba5567f32bbf82e379096e4ee209ad": {
                            "nonce": "0x01",
                            "balance": "0x0de0b6b3a7587d8e",
                            "code": "0x",
                            "storage": {}
                        },
                        "0xee3bb15979be6dd9b9965cef12c33941fbd8afc4": {
                            "nonce": "0x00",
                            "balance": "0x0132b3a0",
                            "code": "0x64f34578907f600052602060006025600060026101f4fa60025560005160005500",
                            "storage": {
                                "0x02": "0x01",
                                "0x00": "0x7392925565d67be8e9620aacbcfaecd8cb6ec58d709d25da9eccf1d08a41ce35"
                            }
                        }
                    }
                }
            ]
        },
        "config": {
            "blobSchedule": {
                "Cancun": {
                    "target": "0x03",
                    "max": "0x06",
                    "baseFeeUpdateFraction": "0x32f0ed"
                }
            },
            "chainid": "0x01"
        },
        "_info": {
            "hash": "0x9d3cbfd739afb1bf0bc98a7b0c204ca4e60ed700832616b66fe6fca1be22ac97",
            "comment": "`execution-spec-tests` generated test",
            "filling-transition-tool": "ethereum-spec-evm-resolver 0.0.5",
            "description": "No description available - add a docstring to the python test class or function.",
            "url": "",
            "fixture-format": "state_test",
            "eels-resolution": {
                "git-url": "https://github.com/marioevz/execution-specs.git",
                "branch": "forks/bpo1",
                "commit": "3387e5f4aedfe99becfdc39b444d6371e25e0924"
            }
        }
    },
    "tests/static/state_tests/stStaticCall/static_CallSha256_3_prefix0Filler.json::static_CallSha256_3_prefix0[fork_Osaka-state_test-]": {
        "env": {
            "currentCoinbase": "0x2adc25665018aa1fe0e6bc666dac8fc2697ff9ba",
            "currentGasLimit": "0x989680",
            "currentNumber": "0x01",
            "currentTimestamp": "0x03e8",
            "currentRandom": "0x0000000000000000000000000000000000000000000000000000000000020000",
            "currentDifficulty": "0x00",
            "currentBaseFee": "0x0a",
            "currentExcessBlobGas": "0x00"
        },
        "pre": {
            "0xf22208ddbcba5567f32bbf82e379096e4ee209ad": {
                "nonce": "0x00",
                "balance": "0x0de0b6b3a7640000",
                "code": "0x",
                "storage": {}
            },
            "0xee3bb15979be6dd9b9965cef12c33941fbd8afc4": {
                "nonce": "0x00",
                "balance": "0x01312d00",
                "code": "0x64f34578907f600052602060006025600060026101f4fa60025560005160005500",
                "storage": {}
            }
        },
        "transaction": {
            "nonce": "0x00",
            "gasPrice": "0x0a",
            "gasLimit": [
                "0x0592a8"
            ],
            "to": "0xee3bb15979be6dd9b9965cef12c33941fbd8afc4",
            "value": [
                "0x0186a0"
            ],
            "data": [
                "0x"
            ],
            "sender": "0xf22208ddbcba5567f32bbf82e379096e4ee209ad",
            "secretKey": "0xed9b6d9dfa1391af0bafbea9ee3bb15979be6dd9b9965cef12c33941fbd8afc4"
        },
        "post": {
            "Osaka": [
                {
                    "hash": "0x07986cd039e3664182bea367974516f65505beea555e8ef5b0614b18edbcae72",
                    "logs": "0x1dcc4de8dec75d7aab85b567b6ccd41ad312451b948a7413f0a142fd40d49347",
                    "txbytes": "0xf863800a830592a894ee3bb15979be6dd9b9965cef12c33941fbd8afc4830186a08026a09ffe5651eb07fb12f93769a1b1b6b79a1ec9801f4c4466e46ee59888243d7054a00e0fc05ff0346c25f64c1c299bbfa28efe1143c3dee3e6379a7979dff0561265",
                    "indexes": {
                        "data": 0,
                        "gas": 0,
                        "value": 0
                    },
                    "state": {
                        "0xf22208ddbcba5567f32bbf82e379096e4ee209ad": {
                            "nonce": "0x01",
                            "balance": "0x0de0b6b3a7587d8e",
                            "code": "0x",
                            "storage": {}
                        },
                        "0xee3bb15979be6dd9b9965cef12c33941fbd8afc4": {
                            "nonce": "0x00",
                            "balance": "0x0132b3a0",
                            "code": "0x64f34578907f600052602060006025600060026101f4fa60025560005160005500",
                            "storage": {
                                "0x02": "0x01",
                                "0x00": "0x7392925565d67be8e9620aacbcfaecd8cb6ec58d709d25da9eccf1d08a41ce35"
                            }
                        }
                    }
                }
            ]
        },
        "config": {
            "blobSchedule": {
                "Cancun": {
                    "target": "0x03",
                    "max": "0x06",
                    "baseFeeUpdateFraction": "0x32f0ed"
                },
                "Prague": {
                    "target": "0x06",
                    "max": "0x09",
                    "baseFeeUpdateFraction": "0x4c6964"
                },
                "Osaka": {
                    "target": "0x06",
                    "max": "0x09",
                    "baseFeeUpdateFraction": "0x4c6964"
                }
            },
            "chainid": "0x01"
        },
        "_info": {
            "hash": "0x62319dbad10fc9d4ce64076c5e4f36a128eec2f8cce6dda0a76715493c9a9973",
            "comment": "`execution-spec-tests` generated test",
            "filling-transition-tool": "ethereum-spec-evm-resolver 0.0.5",
            "description": "No description available - add a docstring to the python test class or function.",
            "url": "",
            "fixture-format": "state_test",
            "eels-resolution": {
                "git-url": "https://github.com/marioevz/execution-specs.git",
                "branch": "forks/bpo1",
                "commit": "3387e5f4aedfe99becfdc39b444d6371e25e0924"
            }
        }
    },
    "tests/static/state_tests/stStaticCall/static_CallSha256_3_prefix0Filler.json::static_CallSha256_3_prefix0[fork_Prague-state_test-]": {
        "env": {
            "currentCoinbase": "0x2adc25665018aa1fe0e6bc666dac8fc2697ff9ba",
            "currentGasLimit": "0x989680",
            "currentNumber": "0x01",
            "currentTimestamp": "0x03e8",
            "currentRandom": "0x0000000000000000000000000000000000000000000000000000000000020000",
            "currentDifficulty": "0x00",
            "currentBaseFee": "0x0a",
            "currentExcessBlobGas": "0x00"
        },
        "pre": {
            "0xf22208ddbcba5567f32bbf82e379096e4ee209ad": {
                "nonce": "0x00",
                "balance": "0x0de0b6b3a7640000",
                "code": "0x",
                "storage": {}
            },
            "0xee3bb15979be6dd9b9965cef12c33941fbd8afc4": {
                "nonce": "0x00",
                "balance": "0x01312d00",
                "code": "0x64f34578907f600052602060006025600060026101f4fa60025560005160005500",
                "storage": {}
            }
        },
        "transaction": {
            "nonce": "0x00",
            "gasPrice": "0x0a",
            "gasLimit": [
                "0x0592a8"
            ],
            "to": "0xee3bb15979be6dd9b9965cef12c33941fbd8afc4",
            "value": [
                "0x0186a0"
            ],
            "data": [
                "0x"
            ],
            "sender": "0xf22208ddbcba5567f32bbf82e379096e4ee209ad",
            "secretKey": "0xed9b6d9dfa1391af0bafbea9ee3bb15979be6dd9b9965cef12c33941fbd8afc4"
        },
        "post": {
            "Prague": [
                {
                    "hash": "0x07986cd039e3664182bea367974516f65505beea555e8ef5b0614b18edbcae72",
                    "logs": "0x1dcc4de8dec75d7aab85b567b6ccd41ad312451b948a7413f0a142fd40d49347",
                    "txbytes": "0xf863800a830592a894ee3bb15979be6dd9b9965cef12c33941fbd8afc4830186a08026a09ffe5651eb07fb12f93769a1b1b6b79a1ec9801f4c4466e46ee59888243d7054a00e0fc05ff0346c25f64c1c299bbfa28efe1143c3dee3e6379a7979dff0561265",
                    "indexes": {
                        "data": 0,
                        "gas": 0,
                        "value": 0
                    },
                    "state": {
                        "0xf22208ddbcba5567f32bbf82e379096e4ee209ad": {
                            "nonce": "0x01",
                            "balance": "0x0de0b6b3a7587d8e",
                            "code": "0x",
                            "storage": {}
                        },
                        "0xee3bb15979be6dd9b9965cef12c33941fbd8afc4": {
                            "nonce": "0x00",
                            "balance": "0x0132b3a0",
                            "code": "0x64f34578907f600052602060006025600060026101f4fa60025560005160005500",
                            "storage": {
                                "0x02": "0x01",
                                "0x00": "0x7392925565d67be8e9620aacbcfaecd8cb6ec58d709d25da9eccf1d08a41ce35"
                            }
                        }
                    }
                }
            ]
        },
        "config": {
            "blobSchedule": {
                "Cancun": {
                    "target": "0x03",
                    "max": "0x06",
                    "baseFeeUpdateFraction": "0x32f0ed"
                },
                "Prague": {
                    "target": "0x06",
                    "max": "0x09",
                    "baseFeeUpdateFraction": "0x4c6964"
                }
            },
            "chainid": "0x01"
        },
        "_info": {
            "hash": "0x645f65b32fc7ea1ffcd5b19abba986957fe5f5e1209857b1fcb01068e34c3270",
            "comment": "`execution-spec-tests` generated test",
            "filling-transition-tool": "ethereum-spec-evm-resolver 0.0.5",
            "description": "No description available - add a docstring to the python test class or function.",
            "url": "",
            "fixture-format": "state_test",
            "eels-resolution": {
                "git-url": "https://github.com/marioevz/execution-specs.git",
                "branch": "forks/bpo1",
                "commit": "3387e5f4aedfe99becfdc39b444d6371e25e0924"
            }
        }
    }
}