{
    "tests/static/state_tests/stStaticCall/static_log1_MaxTopicFiller.json::static_log1_MaxTopic[fork_Cancun-state_test-]": {
        "env": {
            "currentCoinbase": "0x2adc25665018aa1fe0e6bc666dac8fc2697ff9ba",
            "currentGasLimit": "0x0f4240",
            "currentNumber": "0x01",
            "currentTimestamp": "0x03e8",
            "currentRandom": "0x0000000000000000000000000000000000000000000000000000000000020000",
            "currentDifficulty": "0x00",
            "currentBaseFee": "0x0a",
            "currentExcessBlobGas": "0x00"
        },
        "pre": {
            "0x444205ff544d37b3b38e85d79b05ce2cc4b99eb1": {
                "nonce": "0x00",
                "balance": "0x0de0b6b3a7640000",
                "code": "0x",
                "storage": {}
            },
            "0xa454eab0f56fc47dd67e2ca163417b976c96d2ea": {
                "nonce": "0x00",
                "balance": "0x0de0b6b3a7640000",
                "code": "0x7faabbffffffffffffffffffffffffffffffffffffffffffffffffffffffffccdd6000527fffffffffffffffffffffffffffffffffffffffffffffffffffffffffffffffff60206000a100",
                "storage": {}
            },
            "0xa454eab0f56fc47dd67e2ca163417b976c96d3ea": {
                "nonce": "0x00",
                "balance": "0x0de0b6b3a7640000",
                "code": "0x600060006000600073a454eab0f56fc47dd67e2ca163417b976c96d2ea6103e8fa60005500",
                "storage": {}
            }
        },
        "transaction": {
            "nonce": "0x00",
            "gasPrice": "0x0a",
            "gasLimit": [
                "0x033450"
            ],
            "to": "0xa454eab0f56fc47dd67e2ca163417b976c96d3ea",
            "value": [
                "0x0186a0"
            ],
            "data": [
                "0x"
            ],
            "sender": "0x444205ff544d37b3b38e85d79b05ce2cc4b99eb1",
            "secretKey": "0x66374b5f1fa598b057d68cc8a454eab0f56fc47dd67e2ca163417b976c96d2ea"
        },
        "post": {
            "Cancun": [
                {
                    "hash": "0xcc40653a845708e28fcc0e81336e26dce8edf4296bc15a3577db6f45ed885868",
                    "logs": "0x1dcc4de8dec75d7aab85b567b6ccd41ad312451b948a7413f0a142fd40d49347",
                    "txbytes": "0xf863800a8303345094a454eab0f56fc47dd67e2ca163417b976c96d3ea830186a08026a09021f5f98c300b502f0a85b9ff46493b2b48ba898b83288f79da6b86317f1b3da005bdbed2c7675e1d5c73b2d2a5f5de9d9806f99770734312bb07ab9a6e6424dc",
                    "indexes": {
                        "data": 0,
                        "gas": 0,
                        "value": 0
                    },
                    "state": {
                        "0x444205ff544d37b3b38e85d79b05ce2cc4b99eb1": {
                            "nonce": "0x01",
                            "balance": "0x0de0b6b3a75e61ae",
                            "code": "0x",
                            "storage": {}
                        },
                        "0xa454eab0f56fc47dd67e2ca163417b976c96d2ea": {
                            "nonce": "0x00",
                            "balance": "0x0de0b6b3a7640000",
                            "code": "0x7faabbffffffffffffffffffffffffffffffffffffffffffffffffffffffffccdd6000527fffffffffffffffffffffffffffffffffffffffffffffffffffffffffffffffff60206000a100",
                            "storage": {}
                        },
                        "0xa454eab0f56fc47dd67e2ca163417b976c96d3ea": {
                            "nonce": "0x00",
                            "balance": "0x0de0b6b3a76586a0",
                            "code": "0x600060006000600073a454eab0f56fc47dd67e2ca163417b976c96d2ea6103e8fa60005500",
                            "storage": {}
                        }
                    }
                }
            ]
        },
        "config": {
            "blobSchedule": {
                "Cancun": {
                    "target": "0x03",
                    "max": "0x06",
                    "baseFeeUpdateFraction": "0x32f0ed"
                }
            },
            "chainid": "0x01"
        },
        "_info": {
            "hash": "0xe19c367bb6abe935716ed2458d9df1ddf6c5873cbda23c3f3c90c0112df279a3",
            "comment": "`execution-specs` generated test",
            "filling-transition-tool": "2.18.0rc6",
            "description": "No description available - add a docstring to the python test class or function.",
            "url": "",
            "fixture-format": "state_test"
        }
    },
    "tests/static/state_tests/stStaticCall/static_log1_MaxTopicFiller.json::static_log1_MaxTopic[fork_Osaka-state_test-]": {
        "env": {
            "currentCoinbase": "0x2adc25665018aa1fe0e6bc666dac8fc2697ff9ba",
            "currentGasLimit": "0x0f4240",
            "currentNumber": "0x01",
            "currentTimestamp": "0x03e8",
            "currentRandom": "0x0000000000000000000000000000000000000000000000000000000000020000",
            "currentDifficulty": "0x00",
            "currentBaseFee": "0x0a",
            "currentExcessBlobGas": "0x00"
        },
        "pre": {
            "0x444205ff544d37b3b38e85d79b05ce2cc4b99eb1": {
                "nonce": "0x00",
                "balance": "0x0de0b6b3a7640000",
                "code": "0x",
                "storage": {}
            },
            "0xa454eab0f56fc47dd67e2ca163417b976c96d2ea": {
                "nonce": "0x00",
                "balance": "0x0de0b6b3a7640000",
                "code": "0x7faabbffffffffffffffffffffffffffffffffffffffffffffffffffffffffccdd6000527fffffffffffffffffffffffffffffffffffffffffffffffffffffffffffffffff60206000a100",
                "storage": {}
            },
            "0xa454eab0f56fc47dd67e2ca163417b976c96d3ea": {
                "nonce": "0x00",
                "balance": "0x0de0b6b3a7640000",
                "code": "0x600060006000600073a454eab0f56fc47dd67e2ca163417b976c96d2ea6103e8fa60005500",
                "storage": {}
            }
        },
        "transaction": {
            "nonce": "0x00",
            "gasPrice": "0x0a",
            "gasLimit": [
                "0x033450"
            ],
            "to": "0xa454eab0f56fc47dd67e2ca163417b976c96d3ea",
            "value": [
                "0x0186a0"
            ],
            "data": [
                "0x"
            ],
            "sender": "0x444205ff544d37b3b38e85d79b05ce2cc4b99eb1",
            "secretKey": "0x66374b5f1fa598b057d68cc8a454eab0f56fc47dd67e2ca163417b976c96d2ea"
        },
        "post": {
            "Osaka": [
                {
                    "hash": "0xcc40653a845708e28fcc0e81336e26dce8edf4296bc15a3577db6f45ed885868",
                    "logs": "0x1dcc4de8dec75d7aab85b567b6ccd41ad312451b948a7413f0a142fd40d49347",
                    "txbytes": "0xf863800a8303345094a454eab0f56fc47dd67e2ca163417b976c96d3ea830186a08026a09021f5f98c300b502f0a85b9ff46493b2b48ba898b83288f79da6b86317f1b3da005bdbed2c7675e1d5c73b2d2a5f5de9d9806f99770734312bb07ab9a6e6424dc",
                    "indexes": {
                        "data": 0,
                        "gas": 0,
                        "value": 0
                    },
                    "state": {
                        "0x444205ff544d37b3b38e85d79b05ce2cc4b99eb1": {
                            "nonce": "0x01",
                            "balance": "0x0de0b6b3a75e61ae",
                            "code": "0x",
                            "storage": {}
                        },
                        "0xa454eab0f56fc47dd67e2ca163417b976c96d2ea": {
                            "nonce": "0x00",
                            "balance": "0x0de0b6b3a7640000",
                            "code": "0x7faabbffffffffffffffffffffffffffffffffffffffffffffffffffffffffccdd6000527fffffffffffffffffffffffffffffffffffffffffffffffffffffffffffffffff60206000a100",
                            "storage": {}
                        },
                        "0xa454eab0f56fc47dd67e2ca163417b976c96d3ea": {
                            "nonce": "0x00",
                            "balance": "0x0de0b6b3a76586a0",
                            "code": "0x600060006000600073a454eab0f56fc47dd67e2ca163417b976c96d2ea6103e8fa60005500",
                            "storage": {}
                        }
                    }
                }
            ]
        },
        "config": {
            "blobSchedule": {
                "Cancun": {
                    "target": "0x03",
                    "max": "0x06",
                    "baseFeeUpdateFraction": "0x32f0ed"
                },
                "Prague": {
                    "target": "0x06",
                    "max": "0x09",
                    "baseFeeUpdateFraction": "0x4c6964"
                },
                "Osaka": {
                    "target": "0x06",
                    "max": "0x09",
                    "baseFeeUpdateFraction": "0x4c6964"
                }
            },
            "chainid": "0x01"
        },
        "_info": {
            "hash": "0xf115fc62be20b4b93c6d0c2480aca6a5df3981ab854d4f6ac26f989703c59f66",
            "comment": "`execution-specs` generated test",
            "filling-transition-tool": "2.18.0rc6",
            "description": "No description available - add a docstring to the python test class or function.",
            "url": "",
            "fixture-format": "state_test"
        }
    },
    "tests/static/state_tests/stStaticCall/static_log1_MaxTopicFiller.json::static_log1_MaxTopic[fork_Prague-state_test-]": {
        "env": {
            "currentCoinbase": "0x2adc25665018aa1fe0e6bc666dac8fc2697ff9ba",
            "currentGasLimit": "0x0f4240",
            "currentNumber": "0x01",
            "currentTimestamp": "0x03e8",
            "currentRandom": "0x0000000000000000000000000000000000000000000000000000000000020000",
            "currentDifficulty": "0x00",
            "currentBaseFee": "0x0a",
            "currentExcessBlobGas": "0x00"
        },
        "pre": {
            "0x444205ff544d37b3b38e85d79b05ce2cc4b99eb1": {
                "nonce": "0x00",
                "balance": "0x0de0b6b3a7640000",
                "code": "0x",
                "storage": {}
            },
            "0xa454eab0f56fc47dd67e2ca163417b976c96d2ea": {
                "nonce": "0x00",
                "balance": "0x0de0b6b3a7640000",
                "code": "0x7faabbffffffffffffffffffffffffffffffffffffffffffffffffffffffffccdd6000527fffffffffffffffffffffffffffffffffffffffffffffffffffffffffffffffff60206000a100",
                "storage": {}
            },
            "0xa454eab0f56fc47dd67e2ca163417b976c96d3ea": {
                "nonce": "0x00",
                "balance": "0x0de0b6b3a7640000",
                "code": "0x600060006000600073a454eab0f56fc47dd67e2ca163417b976c96d2ea6103e8fa60005500",
                "storage": {}
            }
        },
        "transaction": {
            "nonce": "0x00",
            "gasPrice": "0x0a",
            "gasLimit": [
                "0x033450"
            ],
            "to": "0xa454eab0f56fc47dd67e2ca163417b976c96d3ea",
            "value": [
                "0x0186a0"
            ],
            "data": [
                "0x"
            ],
            "sender": "0x444205ff544d37b3b38e85d79b05ce2cc4b99eb1",
            "secretKey": "0x66374b5f1fa598b057d68cc8a454eab0f56fc47dd67e2ca163417b976c96d2ea"
        },
        "post": {
            "Prague": [
                {
                    "hash": "0xcc40653a845708e28fcc0e81336e26dce8edf4296bc15a3577db6f45ed885868",
                    "logs": "0x1dcc4de8dec75d7aab85b567b6ccd41ad312451b948a7413f0a142fd40d49347",
                    "txbytes": "0xf863800a8303345094a454eab0f56fc47dd67e2ca163417b976c96d3ea830186a08026a09021f5f98c300b502f0a85b9ff46493b2b48ba898b83288f79da6b86317f1b3da005bdbed2c7675e1d5c73b2d2a5f5de9d9806f99770734312bb07ab9a6e6424dc",
                    "indexes": {
                        "data": 0,
                        "gas": 0,
                        "value": 0
                    },
                    "state": {
                        "0x444205ff544d37b3b38e85d79b05ce2cc4b99eb1": {
                            "nonce": "0x01",
                            "balance": "0x0de0b6b3a75e61ae",
                            "code": "0x",
                            "storage": {}
                        },
                        "0xa454eab0f56fc47dd67e2ca163417b976c96d2ea": {
                            "nonce": "0x00",
                            "balance": "0x0de0b6b3a7640000",
                            "code": "0x7faabbffffffffffffffffffffffffffffffffffffffffffffffffffffffffccdd6000527fffffffffffffffffffffffffffffffffffffffffffffffffffffffffffffffff60206000a100",
                            "storage": {}
                        },
                        "0xa454eab0f56fc47dd67e2ca163417b976c96d3ea": {
                            "nonce": "0x00",
                            "balance": "0x0de0b6b3a76586a0",
                            "code": "0x600060006000600073a454eab0f56fc47dd67e2ca163417b976c96d2ea6103e8fa60005500",
                            "storage": {}
                        }
                    }
                }
            ]
        },
        "config": {
            "blobSchedule": {
                "Cancun": {
                    "target": "0x03",
                    "max": "0x06",
                    "baseFeeUpdateFraction": "0x32f0ed"
                },
                "Prague": {
                    "target": "0x06",
                    "max": "0x09",
                    "baseFeeUpdateFraction": "0x4c6964"
                }
            },
            "chainid": "0x01"
        },
        "_info": {
            "hash": "0x04f1ad0c69aa2adedabcb2c5d207933b9575828e78f35f1a6b5ae4575da6020a",
            "comment": "`execution-specs` generated test",
            "filling-transition-tool": "2.18.0rc6",
            "description": "No description available - add a docstring to the python test class or function.",
            "url": "",
            "fixture-format": "state_test"
        }
    }
}