{
    "tests/static/state_tests/stStaticCall/static_callToCallOpCodeCheckFiller.json::static_callToCallOpCodeCheck[fork_Cancun-state_test-]": {
        "env": {
            "currentCoinbase": "0x2adc25665018aa1fe0e6bc666dac8fc2697ff9ba",
            "currentGasLimit": "0x989680",
            "currentNumber": "0x01",
            "currentTimestamp": "0x03e8",
            "currentRandom": "0x0000000000000000000000000000000000000000000000000000000000020000",
            "currentDifficulty": "0x00",
            "currentBaseFee": "0x0a",
            "currentExcessBlobGas": "0x00"
        },
        "pre": {
            "0x99caf10610c5e19983ca25291ca369e7c9c7906d": {
                "nonce": "0x00",
                "balance": "0x0de0b6b3a7640000",
                "code": "0x",
                "storage": {}
            },
            "0x46bbdc67157dce6922adbfa75b7f41cef3e0bc8f": {
                "nonce": "0x00",
                "balance": "0x0de0b6b3a7640000",
                "code": "0x6000600060006000600035620186a0fa60005500",
                "storage": {}
            },
            "0x46bbdc67157dce6922adbfa75b7f41cef3e0bd8f": {
                "nonce": "0x00",
                "balance": "0x0de0b6b3a7640000",
                "code": "0x600060006000600060007346bbdc67157dce6922adbfa75b7f41cef3e0be8f620186a0f16000526000516001146038576001600155603e565b60016001525b00",
                "storage": {}
            },
            "0x46bbdc67157dce6922adbfa75b7f41cef3e0be8f": {
                "nonce": "0x00",
                "balance": "0x0de0b6b3a7640000",
                "code": "0x327399caf10610c5e19983ca25291ca369e7c9c7906d1460225760026001556028565b60016001525b337346bbdc67157dce6922adbfa75b7f41cef3e0bd8f14604b5760026001556051565b60016001525b307346bbdc67157dce6922adbfa75b7f41cef3e0be8f146074576002600155607a565b60016001525b34600014608a5760026001556090565b60016001525b00",
                "storage": {}
            }
        },
        "transaction": {
            "nonce": "0x00",
            "gasPrice": "0x0a",
            "gasLimit": [
                "0x0f4240"
            ],
            "to": "0x46bbdc67157dce6922adbfa75b7f41cef3e0bc8f",
            "value": [
                "0x0186a0"
            ],
            "data": [
                "0x00000000000000000000000046bbdc67157dce6922adbfa75b7f41cef3e0bd8f"
            ],
            "sender": "0x99caf10610c5e19983ca25291ca369e7c9c7906d",
            "secretKey": "0x460f9d2db7898d4ae1e197dd46bbdc67157dce6922adbfa75b7f41cef3e0bc8f"
        },
        "post": {
            "Cancun": [
                {
                    "hash": "0x3733aa832a8ac6b53aea74bf042ba0954b24d6b4d026b917c1472777089c423c",
                    "logs": "0x1dcc4de8dec75d7aab85b567b6ccd41ad312451b948a7413f0a142fd40d49347",
                    "txbytes": "0xf883800a830f42409446bbdc67157dce6922adbfa75b7f41cef3e0bc8f830186a0a000000000000000000000000046bbdc67157dce6922adbfa75b7f41cef3e0bd8f26a0c311aca582fca5c82201a157fd1f9c722e7acd882e819ccebed9c66929d492a6a060f6f5023aa4687583037a13d082805a515f2f6dc90f9134acfa18eeb9550926",
                    "indexes": {
                        "data": 0,
                        "gas": 0,
                        "value": 0
                    },
                    "state": {
                        "0x99caf10610c5e19983ca25291ca369e7c9c7906d": {
                            "nonce": "0x01",
                            "balance": "0x0de0b6b3a75b036a",
                            "code": "0x",
                            "storage": {}
                        },
                        "0x46bbdc67157dce6922adbfa75b7f41cef3e0bc8f": {
                            "nonce": "0x00",
                            "balance": "0x0de0b6b3a76586a0",
                            "code": "0x6000600060006000600035620186a0fa60005500",
                            "storage": {
                                "0x00": "0x01"
                            }
                        },
                        "0x46bbdc67157dce6922adbfa75b7f41cef3e0bd8f": {
                            "nonce": "0x00",
                            "balance": "0x0de0b6b3a7640000",
                            "code": "0x600060006000600060007346bbdc67157dce6922adbfa75b7f41cef3e0be8f620186a0f16000526000516001146038576001600155603e565b60016001525b00",
                            "storage": {}
                        },
                        "0x46bbdc67157dce6922adbfa75b7f41cef3e0be8f": {
                            "nonce": "0x00",
                            "balance": "0x0de0b6b3a7640000",
                            "code": "0x327399caf10610c5e19983ca25291ca369e7c9c7906d1460225760026001556028565b60016001525b337346bbdc67157dce6922adbfa75b7f41cef3e0bd8f14604b5760026001556051565b60016001525b307346bbdc67157dce6922adbfa75b7f41cef3e0be8f146074576002600155607a565b60016001525b34600014608a5760026001556090565b60016001525b00",
                            "storage": {}
                        }
                    }
                }
            ]
        },
        "config": {
            "blobSchedule": {
                "Cancun": {
                    "target": "0x03",
                    "max": "0x06",
                    "baseFeeUpdateFraction": "0x32f0ed"
                }
            },
            "chainid": "0x01"
        },
        "_info": {
            "hash": "0xc4e3331a3fece3d43c65442bc96d4f2acfbb713294e72a72c08da8598c3dd533",
            "comment": "`execution-specs` generated test",
            "filling-transition-tool": "2.18.0rc6",
            "description": "No description available - add a docstring to the python test class or function.",
            "url": "",
            "fixture-format": "state_test"
        }
    },
    "tests/static/state_tests/stStaticCall/static_callToCallOpCodeCheckFiller.json::static_callToCallOpCodeCheck[fork_Osaka-state_test-]": {
        "env": {
            "currentCoinbase": "0x2adc25665018aa1fe0e6bc666dac8fc2697ff9ba",
            "currentGasLimit": "0x989680",
            "currentNumber": "0x01",
            "currentTimestamp": "0x03e8",
            "currentRandom": "0x0000000000000000000000000000000000000000000000000000000000020000",
            "currentDifficulty": "0x00",
            "currentBaseFee": "0x0a",
            "currentExcessBlobGas": "0x00"
        },
        "pre": {
            "0x99caf10610c5e19983ca25291ca369e7c9c7906d": {
                "nonce": "0x00",
                "balance": "0x0de0b6b3a7640000",
                "code": "0x",
                "storage": {}
            },
            "0x46bbdc67157dce6922adbfa75b7f41cef3e0bc8f": {
                "nonce": "0x00",
                "balance": "0x0de0b6b3a7640000",
                "code": "0x6000600060006000600035620186a0fa60005500",
                "storage": {}
            },
            "0x46bbdc67157dce6922adbfa75b7f41cef3e0bd8f": {
                "nonce": "0x00",
                "balance": "0x0de0b6b3a7640000",
                "code": "0x600060006000600060007346bbdc67157dce6922adbfa75b7f41cef3e0be8f620186a0f16000526000516001146038576001600155603e565b60016001525b00",
                "storage": {}
            },
            "0x46bbdc67157dce6922adbfa75b7f41cef3e0be8f": {
                "nonce": "0x00",
                "balance": "0x0de0b6b3a7640000",
                "code": "0x327399caf10610c5e19983ca25291ca369e7c9c7906d1460225760026001556028565b60016001525b337346bbdc67157dce6922adbfa75b7f41cef3e0bd8f14604b5760026001556051565b60016001525b307346bbdc67157dce6922adbfa75b7f41cef3e0be8f146074576002600155607a565b60016001525b34600014608a5760026001556090565b60016001525b00",
                "storage": {}
            }
        },
        "transaction": {
            "nonce": "0x00",
            "gasPrice": "0x0a",
            "gasLimit": [
                "0x0f4240"
            ],
            "to": "0x46bbdc67157dce6922adbfa75b7f41cef3e0bc8f",
            "value": [
                "0x0186a0"
            ],
            "data": [
                "0x00000000000000000000000046bbdc67157dce6922adbfa75b7f41cef3e0bd8f"
            ],
            "sender": "0x99caf10610c5e19983ca25291ca369e7c9c7906d",
            "secretKey": "0x460f9d2db7898d4ae1e197dd46bbdc67157dce6922adbfa75b7f41cef3e0bc8f"
        },
        "post": {
            "Osaka": [
                {
                    "hash": "0x3733aa832a8ac6b53aea74bf042ba0954b24d6b4d026b917c1472777089c423c",
                    "logs": "0x1dcc4de8dec75d7aab85b567b6ccd41ad312451b948a7413f0a142fd40d49347",
                    "txbytes": "0xf883800a830f42409446bbdc67157dce6922adbfa75b7f41cef3e0bc8f830186a0a000000000000000000000000046bbdc67157dce6922adbfa75b7f41cef3e0bd8f26a0c311aca582fca5c82201a157fd1f9c722e7acd882e819ccebed9c66929d492a6a060f6f5023aa4687583037a13d082805a515f2f6dc90f9134acfa18eeb9550926",
                    "indexes": {
                        "data": 0,
                        "gas": 0,
                        "value": 0
                    },
                    "state": {
                        "0x99caf10610c5e19983ca25291ca369e7c9c7906d": {
                            "nonce": "0x01",
                            "balance": "0x0de0b6b3a75b036a",
                            "code": "0x",
                            "storage": {}
                        },
                        "0x46bbdc67157dce6922adbfa75b7f41cef3e0bc8f": {
                            "nonce": "0x00",
                            "balance": "0x0de0b6b3a76586a0",
                            "code": "0x6000600060006000600035620186a0fa60005500",
                            "storage": {
                                "0x00": "0x01"
                            }
                        },
                        "0x46bbdc67157dce6922adbfa75b7f41cef3e0bd8f": {
                            "nonce": "0x00",
                            "balance": "0x0de0b6b3a7640000",
                            "code": "0x600060006000600060007346bbdc67157dce6922adbfa75b7f41cef3e0be8f620186a0f16000526000516001146038576001600155603e565b60016001525b00",
                            "storage": {}
                        },
                        "0x46bbdc67157dce6922adbfa75b7f41cef3e0be8f": {
                            "nonce": "0x00",
                            "balance": "0x0de0b6b3a7640000",
                            "code": "0x327399caf10610c5e19983ca25291ca369e7c9c7906d1460225760026001556028565b60016001525b337346bbdc67157dce6922adbfa75b7f41cef3e0bd8f14604b5760026001556051565b60016001525b307346bbdc67157dce6922adbfa75b7f41cef3e0be8f146074576002600155607a565b60016001525b34600014608a5760026001556090565b60016001525b00",
                            "storage": {}
                        }
                    }
                }
            ]
        },
        "config": {
            "blobSchedule": {
                "Cancun": {
                    "target": "0x03",
                    "max": "0x06",
                    "baseFeeUpdateFraction": "0x32f0ed"
                },
                "Prague": {
                    "target": "0x06",
                    "max": "0x09",
                    "baseFeeUpdateFraction": "0x4c6964"
                },
                "Osaka": {
                    "target": "0x06",
                    "max": "0x09",
                    "baseFeeUpdateFraction": "0x4c6964"
                }
            },
            "chainid": "0x01"
        },
        "_info": {
            "hash": "0x298db57ea169157bedd7867068adde398e5a16d0e6a8bd18b02ad11a5bb8f4ec",
            "comment": "`execution-specs` generated test",
            "filling-transition-tool": "2.18.0rc6",
            "description": "No description available - add a docstring to the python test class or function.",
            "url": "",
            "fixture-format": "state_test"
        }
    },
    "tests/static/state_tests/stStaticCall/static_callToCallOpCodeCheckFiller.json::static_callToCallOpCodeCheck[fork_Prague-state_test-]": {
        "env": {
            "currentCoinbase": "0x2adc25665018aa1fe0e6bc666dac8fc2697ff9ba",
            "currentGasLimit": "0x989680",
            "currentNumber": "0x01",
            "currentTimestamp": "0x03e8",
            "currentRandom": "0x0000000000000000000000000000000000000000000000000000000000020000",
            "currentDifficulty": "0x00",
            "currentBaseFee": "0x0a",
            "currentExcessBlobGas": "0x00"
        },
        "pre": {
            "0x99caf10610c5e19983ca25291ca369e7c9c7906d": {
                "nonce": "0x00",
                "balance": "0x0de0b6b3a7640000",
                "code": "0x",
                "storage": {}
            },
            "0x46bbdc67157dce6922adbfa75b7f41cef3e0bc8f": {
                "nonce": "0x00",
                "balance": "0x0de0b6b3a7640000",
                "code": "0x6000600060006000600035620186a0fa60005500",
                "storage": {}
            },
            "0x46bbdc67157dce6922adbfa75b7f41cef3e0bd8f": {
                "nonce": "0x00",
                "balance": "0x0de0b6b3a7640000",
                "code": "0x600060006000600060007346bbdc67157dce6922adbfa75b7f41cef3e0be8f620186a0f16000526000516001146038576001600155603e565b60016001525b00",
                "storage": {}
            },
            "0x46bbdc67157dce6922adbfa75b7f41cef3e0be8f": {
                "nonce": "0x00",
                "balance": "0x0de0b6b3a7640000",
                "code": "0x327399caf10610c5e19983ca25291ca369e7c9c7906d1460225760026001556028565b60016001525b337346bbdc67157dce6922adbfa75b7f41cef3e0bd8f14604b5760026001556051565b60016001525b307346bbdc67157dce6922adbfa75b7f41cef3e0be8f146074576002600155607a565b60016001525b34600014608a5760026001556090565b60016001525b00",
                "storage": {}
            }
        },
        "transaction": {
            "nonce": "0x00",
            "gasPrice": "0x0a",
            "gasLimit": [
                "0x0f4240"
            ],
            "to": "0x46bbdc67157dce6922adbfa75b7f41cef3e0bc8f",
            "value": [
                "0x0186a0"
            ],
            "data": [
                "0x00000000000000000000000046bbdc67157dce6922adbfa75b7f41cef3e0bd8f"
            ],
            "sender": "0x99caf10610c5e19983ca25291ca369e7c9c7906d",
            "secretKey": "0x460f9d2db7898d4ae1e197dd46bbdc67157dce6922adbfa75b7f41cef3e0bc8f"
        },
        "post": {
            "Prague": [
                {
                    "hash": "0x3733aa832a8ac6b53aea74bf042ba0954b24d6b4d026b917c1472777089c423c",
                    "logs": "0x1dcc4de8dec75d7aab85b567b6ccd41ad312451b948a7413f0a142fd40d49347",
                    "txbytes": "0xf883800a830f42409446bbdc67157dce6922adbfa75b7f41cef3e0bc8f830186a0a000000000000000000000000046bbdc67157dce6922adbfa75b7f41cef3e0bd8f26a0c311aca582fca5c82201a157fd1f9c722e7acd882e819ccebed9c66929d492a6a060f6f5023aa4687583037a13d082805a515f2f6dc90f9134acfa18eeb9550926",
                    "indexes": {
                        "data": 0,
                        "gas": 0,
                        "value": 0
                    },
                    "state": {
                        "0x99caf10610c5e19983ca25291ca369e7c9c7906d": {
                            "nonce": "0x01",
                            "balance": "0x0de0b6b3a75b036a",
                            "code": "0x",
                            "storage": {}
                        },
                        "0x46bbdc67157dce6922adbfa75b7f41cef3e0bc8f": {
                            "nonce": "0x00",
                            "balance": "0x0de0b6b3a76586a0",
                            "code": "0x6000600060006000600035620186a0fa60005500",
                            "storage": {
                                "0x00": "0x01"
                            }
                        },
                        "0x46bbdc67157dce6922adbfa75b7f41cef3e0bd8f": {
                            "nonce": "0x00",
                            "balance": "0x0de0b6b3a7640000",
                            "code": "0x600060006000600060007346bbdc67157dce6922adbfa75b7f41cef3e0be8f620186a0f16000526000516001146038576001600155603e565b60016001525b00",
                            "storage": {}
                        },
                        "0x46bbdc67157dce6922adbfa75b7f41cef3e0be8f": {
                            "nonce": "0x00",
                            "balance": "0x0de0b6b3a7640000",
                            "code": "0x327399caf10610c5e19983ca25291ca369e7c9c7906d1460225760026001556028565b60016001525b337346bbdc67157dce6922adbfa75b7f41cef3e0bd8f14604b5760026001556051565b60016001525b307346bbdc67157dce6922adbfa75b7f41cef3e0be8f146074576002600155607a565b60016001525b34600014608a5760026001556090565b60016001525b00",
                            "storage": {}
                        }
                    }
                }
            ]
        },
        "config": {
            "blobSchedule": {
                "Cancun": {
                    "target": "0x03",
                    "max": "0x06",
                    "baseFeeUpdateFraction": "0x32f0ed"
                },
                "Prague": {
                    "target": "0x06",
                    "max": "0x09",
                    "baseFeeUpdateFraction": "0x4c6964"
                }
            },
            "chainid": "0x01"
        },
        "_info": {
            "hash": "0xf615df333a13140a0f3401e8fdfe51c7b0d976636eb056ebe8d39533baad0321",
            "comment": "`execution-specs` generated test",
            "filling-transition-tool": "2.18.0rc6",
            "description": "No description available - add a docstring to the python test class or function.",
            "url": "",
            "fixture-format": "state_test"
        }
    }
}