{
    "tests/static/state_tests/stStaticCall/static_CallIdentity_3Filler.json::static_CallIdentity_3[fork_Cancun-state_test-]": {
        "env": {
            "currentCoinbase": "0x2adc25665018aa1fe0e6bc666dac8fc2697ff9ba",
            "currentGasLimit": "0x989680",
            "currentNumber": "0x01",
            "currentTimestamp": "0x03e8",
            "currentRandom": "0x0000000000000000000000000000000000000000000000000000000000020000",
            "currentDifficulty": "0x00",
            "currentBaseFee": "0x0a",
            "currentExcessBlobGas": "0x00"
        },
        "pre": {
            "0xc752f366ab3127836d14c0bc64620a4c87aca0a6": {
                "nonce": "0x00",
                "balance": "0x0de0b6b3a7640000",
                "code": "0x",
                "storage": {}
            },
            "0x2f30c12d205927fd0246e0294e77a5735970b221": {
                "nonce": "0x00",
                "balance": "0x01312d00",
                "code": "0x64f34578907f600052602060006025600060046101f4fa60025560005160005500",
                "storage": {}
            }
        },
        "transaction": {
            "nonce": "0x00",
            "gasPrice": "0x0a",
            "gasLimit": [
                "0x0592a8"
            ],
            "to": "0x2f30c12d205927fd0246e0294e77a5735970b221",
            "value": [
                "0x0186a0"
            ],
            "data": [
                "0x"
            ],
            "sender": "0xc752f366ab3127836d14c0bc64620a4c87aca0a6",
            "secretKey": "0x51dd3fa866f0406a22ecdff42f30c12d205927fd0246e0294e77a5735970b221"
        },
        "post": {
            "Cancun": [
                {
                    "hash": "0xd7f101b0f740a83c7f8e358d56567e8ebe299dc26d2a09f5017e4d4421739f02",
                    "logs": "0x1dcc4de8dec75d7aab85b567b6ccd41ad312451b948a7413f0a142fd40d49347",
                    "txbytes": "0xf863800a830592a8942f30c12d205927fd0246e0294e77a5735970b221830186a08026a0070d47f5d545c04478b4938b7c7ff52b8c0734df47dbb766b131fe64865c60c5a0559034d561bc241da9e67aabc345db4041bb85032052cda8d28c3bd6513af222",
                    "indexes": {
                        "data": 0,
                        "gas": 0,
                        "value": 0
                    },
                    "state": {
                        "0xc752f366ab3127836d14c0bc64620a4c87aca0a6": {
                            "nonce": "0x01",
                            "balance": "0x0de0b6b3a7588004",
                            "code": "0x",
                            "storage": {}
                        },
                        "0x2f30c12d205927fd0246e0294e77a5735970b221": {
                            "nonce": "0x00",
                            "balance": "0x0132b3a0",
                            "code": "0x64f34578907f600052602060006025600060046101f4fa60025560005160005500",
                            "storage": {
                                "0x02": "0x01",
                                "0x00": "0xf34578907f"
                            }
                        }
                    }
                }
            ]
        },
        "config": {
            "blobSchedule": {
                "Cancun": {
                    "target": "0x03",
                    "max": "0x06",
                    "baseFeeUpdateFraction": "0x32f0ed"
                }
            },
            "chainid": "0x01"
        },
        "_info": {
            "hash": "0x6114bab756e8f6212ff30494368686172a78563c7432d817467870a5548ac19b",
            "comment": "`execution-specs` generated test",
            "filling-transition-tool": "2.18.0rc6",
            "description": "No description available - add a docstring to the python test class or function.",
            "url": "",
            "fixture-format": "state_test"
        }
    },
    "tests/static/state_tests/stStaticCall/static_CallIdentity_3Filler.json::static_CallIdentity_3[fork_Osaka-state_test-]": {
        "env": {
            "currentCoinbase": "0x2adc25665018aa1fe0e6bc666dac8fc2697ff9ba",
            "currentGasLimit": "0x989680",
            "currentNumber": "0x01",
            "currentTimestamp": "0x03e8",
            "currentRandom": "0x0000000000000000000000000000000000000000000000000000000000020000",
            "currentDifficulty": "0x00",
            "currentBaseFee": "0x0a",
            "currentExcessBlobGas": "0x00"
        },
        "pre": {
            "0xc752f366ab3127836d14c0bc64620a4c87aca0a6": {
                "nonce": "0x00",
                "balance": "0x0de0b6b3a7640000",
                "code": "0x",
                "storage": {}
            },
            "0x2f30c12d205927fd0246e0294e77a5735970b221": {
                "nonce": "0x00",
                "balance": "0x01312d00",
                "code": "0x64f34578907f600052602060006025600060046101f4fa60025560005160005500",
                "storage": {}
            }
        },
        "transaction": {
            "nonce": "0x00",
            "gasPrice": "0x0a",
            "gasLimit": [
                "0x0592a8"
            ],
            "to": "0x2f30c12d205927fd0246e0294e77a5735970b221",
            "value": [
                "0x0186a0"
            ],
            "data": [
                "0x"
            ],
            "sender": "0xc752f366ab3127836d14c0bc64620a4c87aca0a6",
            "secretKey": "0x51dd3fa866f0406a22ecdff42f30c12d205927fd0246e0294e77a5735970b221"
        },
        "post": {
            "Osaka": [
                {
                    "hash": "0xd7f101b0f740a83c7f8e358d56567e8ebe299dc26d2a09f5017e4d4421739f02",
                    "logs": "0x1dcc4de8dec75d7aab85b567b6ccd41ad312451b948a7413f0a142fd40d49347",
                    "txbytes": "0xf863800a830592a8942f30c12d205927fd0246e0294e77a5735970b221830186a08026a0070d47f5d545c04478b4938b7c7ff52b8c0734df47dbb766b131fe64865c60c5a0559034d561bc241da9e67aabc345db4041bb85032052cda8d28c3bd6513af222",
                    "indexes": {
                        "data": 0,
                        "gas": 0,
                        "value": 0
                    },
                    "state": {
                        "0xc752f366ab3127836d14c0bc64620a4c87aca0a6": {
                            "nonce": "0x01",
                            "balance": "0x0de0b6b3a7588004",
                            "code": "0x",
                            "storage": {}
                        },
                        "0x2f30c12d205927fd0246e0294e77a5735970b221": {
                            "nonce": "0x00",
                            "balance": "0x0132b3a0",
                            "code": "0x64f34578907f600052602060006025600060046101f4fa60025560005160005500",
                            "storage": {
                                "0x02": "0x01",
                                "0x00": "0xf34578907f"
                            }
                        }
                    }
                }
            ]
        },
        "config": {
            "blobSchedule": {
                "Cancun": {
                    "target": "0x03",
                    "max": "0x06",
                    "baseFeeUpdateFraction": "0x32f0ed"
                },
                "Prague": {
                    "target": "0x06",
                    "max": "0x09",
                    "baseFeeUpdateFraction": "0x4c6964"
                },
                "Osaka": {
                    "target": "0x06",
                    "max": "0x09",
                    "baseFeeUpdateFraction": "0x4c6964"
                }
            },
            "chainid": "0x01"
        },
        "_info": {
            "hash": "0x0a3242de1fdbf39af8a9c794df529120b11ab4873fcb06cad19ee707512abbb7",
            "comment": "`execution-specs` generated test",
            "filling-transition-tool": "2.18.0rc6",
            "description": "No description available - add a docstring to the python test class or function.",
            "url": "",
            "fixture-format": "state_test"
        }
    },
    "tests/static/state_tests/stStaticCall/static_CallIdentity_3Filler.json::static_CallIdentity_3[fork_Prague-state_test-]": {
        "env": {
            "currentCoinbase": "0x2adc25665018aa1fe0e6bc666dac8fc2697ff9ba",
            "currentGasLimit": "0x989680",
            "currentNumber": "0x01",
            "currentTimestamp": "0x03e8",
            "currentRandom": "0x0000000000000000000000000000000000000000000000000000000000020000",
            "currentDifficulty": "0x00",
            "currentBaseFee": "0x0a",
            "currentExcessBlobGas": "0x00"
        },
        "pre": {
            "0xc752f366ab3127836d14c0bc64620a4c87aca0a6": {
                "nonce": "0x00",
                "balance": "0x0de0b6b3a7640000",
                "code": "0x",
                "storage": {}
            },
            "0x2f30c12d205927fd0246e0294e77a5735970b221": {
                "nonce": "0x00",
                "balance": "0x01312d00",
                "code": "0x64f34578907f600052602060006025600060046101f4fa60025560005160005500",
                "storage": {}
            }
        },
        "transaction": {
            "nonce": "0x00",
            "gasPrice": "0x0a",
            "gasLimit": [
                "0x0592a8"
            ],
            "to": "0x2f30c12d205927fd0246e0294e77a5735970b221",
            "value": [
                "0x0186a0"
            ],
            "data": [
                "0x"
            ],
            "sender": "0xc752f366ab3127836d14c0bc64620a4c87aca0a6",
            "secretKey": "0x51dd3fa866f0406a22ecdff42f30c12d205927fd0246e0294e77a5735970b221"
        },
        "post": {
            "Prague": [
                {
                    "hash": "0xd7f101b0f740a83c7f8e358d56567e8ebe299dc26d2a09f5017e4d4421739f02",
                    "logs": "0x1dcc4de8dec75d7aab85b567b6ccd41ad312451b948a7413f0a142fd40d49347",
                    "txbytes": "0xf863800a830592a8942f30c12d205927fd0246e0294e77a5735970b221830186a08026a0070d47f5d545c04478b4938b7c7ff52b8c0734df47dbb766b131fe64865c60c5a0559034d561bc241da9e67aabc345db4041bb85032052cda8d28c3bd6513af222",
                    "indexes": {
                        "data": 0,
                        "gas": 0,
                        "value": 0
                    },
                    "state": {
                        "0xc752f366ab3127836d14c0bc64620a4c87aca0a6": {
                            "nonce": "0x01",
                            "balance": "0x0de0b6b3a7588004",
                            "code": "0x",
                            "storage": {}
                        },
                        "0x2f30c12d205927fd0246e0294e77a5735970b221": {
                            "nonce": "0x00",
                            "balance": "0x0132b3a0",
                            "code": "0x64f34578907f600052602060006025600060046101f4fa60025560005160005500",
                            "storage": {
                                "0x02": "0x01",
                                "0x00": "0xf34578907f"
                            }
                        }
                    }
                }
            ]
        },
        "config": {
            "blobSchedule": {
                "Cancun": {
                    "target": "0x03",
                    "max": "0x06",
                    "baseFeeUpdateFraction": "0x32f0ed"
                },
                "Prague": {
                    "target": "0x06",
                    "max": "0x09",
                    "baseFeeUpdateFraction": "0x4c6964"
                }
            },
            "chainid": "0x01"
        },
        "_info": {
            "hash": "0xb317ab7176c3dc08d6ba43d42a0db52413b398d5cce34600d722f351e5e88937",
            "comment": "`execution-specs` generated test",
            "filling-transition-tool": "2.18.0rc6",
            "description": "No description available - add a docstring to the python test class or function.",
            "url": "",
            "fixture-format": "state_test"
        }
    }
}