{
    "tests/static/state_tests/stStaticCall/static_callWithHighValueAndGasOOGFiller.json::static_callWithHighValueAndGasOOG[fork_Cancun-state_test-d0]": {
        "env": {
            "currentCoinbase": "0x2adc25665018aa1fe0e6bc666dac8fc2697ff9ba",
            "currentGasLimit": "0x01c9c380",
            "currentNumber": "0x01",
            "currentTimestamp": "0x03e8",
            "currentRandom": "0x0000000000000000000000000000000000000000000000000000000000020000",
            "currentDifficulty": "0x00",
            "currentBaseFee": "0x0a",
            "currentExcessBlobGas": "0x00"
        },
        "pre": {
            "0xc401ec17e265f95f0b8fdae77dde3783d1ffcabc": {
                "nonce": "0x00",
                "balance": "0x0de0b6b3a7640000",
                "code": "0x",
                "storage": {}
            },
            "0x98e830601262e7db1adcfcaac99b946151a8261f": {
                "nonce": "0x00",
                "balance": "0x17",
                "code": "0x622fffff60002000",
                "storage": {}
            },
            "0x98e830601262e7db1adcfcaac99b946151a8271f": {
                "nonce": "0x00",
                "balance": "0x0de0b6b3a7640000",
                "code": "0x7fffffffffffffffffffffffffffffffffffffffffffffffffffffffffffffffff6000527faaffffffffffffffffffffffffffffffffffffffffffffffffffffffffffffaa60205260026000604060007398e830601262e7db1adcfcaac99b946151a8261f6bfffffffffffffffffffffffffa60005560005160015500",
                "storage": {
                    "0x00": "0x01",
                    "0x01": "0x01"
                }
            },
            "0x98e830601262e7db1adcfcaac99b946151a8281f": {
                "nonce": "0x00",
                "balance": "0x17",
                "code": "0x603760005360026000f3",
                "storage": {}
            },
            "0x98e830601262e7db1adcfcaac99b946151a8291f": {
                "nonce": "0x00",
                "balance": "0x0de0b6b3a7640000",
                "code": "0x7fffffffffffffffffffffffffffffffffffffffffffffffffffffffffffffffff6000527faaffffffffffffffffffffffffffffffffffffffffffffffffffffffffffffaa60205260026000604060007398e830601262e7db1adcfcaac99b946151a8281f6bfffffffffffffffffffffffffa60005560005160015500",
                "storage": {}
            },
            "0x98e830601262e7db1adcfcaac99b946151a82a1f": {
                "nonce": "0x00",
                "balance": "0x0de0b6b3a7640000",
                "code": "0x600060006000600060006000356207a120f100",
                "storage": {}
            }
        },
        "transaction": {
            "nonce": "0x00",
            "gasPrice": "0x0a",
            "gasLimit": [
                "0x2dc6c0"
            ],
            "to": "0x98e830601262e7db1adcfcaac99b946151a82a1f",
            "value": [
                "0x0186a0"
            ],
            "data": [
                "0x00000000000000000000000098e830601262e7db1adcfcaac99b946151a8291f"
            ],
            "sender": "0xc401ec17e265f95f0b8fdae77dde3783d1ffcabc",
            "secretKey": "0xa48e7a8c2ae0f3e2b965b08098e830601262e7db1adcfcaac99b946151a8261f"
        },
        "post": {
            "Cancun": [
                {
                    "hash": "0x939a6b539ebb10e78fa09bf21ffe581cb00a5652e3e28f88c65ab9340b9efd7d",
                    "logs": "0x1dcc4de8dec75d7aab85b567b6ccd41ad312451b948a7413f0a142fd40d49347",
                    "txbytes": "0xf883800a832dc6c09498e830601262e7db1adcfcaac99b946151a82a1f830186a0a000000000000000000000000098e830601262e7db1adcfcaac99b946151a8291f26a0d8b464b9afee3b45d8c382a0c512e7b30f97a8e9f31b0f1b1d431d5ab5609281a03eb5e426c96ac5ef3341c8154e80fa911093e4175ab90358ca83064f3db8ec4f",
                    "indexes": {
                        "data": 0,
                        "gas": 0,
                        "value": 0
                    },
                    "state": {
                        "0xc401ec17e265f95f0b8fdae77dde3783d1ffcabc": {
                            "nonce": "0x01",
                            "balance": "0x0de0b6b3a757a940",
                            "code": "0x",
                            "storage": {}
                        },
                        "0x98e830601262e7db1adcfcaac99b946151a8261f": {
                            "nonce": "0x00",
                            "balance": "0x17",
                            "code": "0x622fffff60002000",
                            "storage": {}
                        },
                        "0x98e830601262e7db1adcfcaac99b946151a8271f": {
                            "nonce": "0x00",
                            "balance": "0x0de0b6b3a7640000",
                            "code": "0x7fffffffffffffffffffffffffffffffffffffffffffffffffffffffffffffffff6000527faaffffffffffffffffffffffffffffffffffffffffffffffffffffffffffffaa60205260026000604060007398e830601262e7db1adcfcaac99b946151a8261f6bfffffffffffffffffffffffffa60005560005160015500",
                            "storage": {
                                "0x00": "0x01",
                                "0x01": "0x01"
                            }
                        },
                        "0x98e830601262e7db1adcfcaac99b946151a8281f": {
                            "nonce": "0x00",
                            "balance": "0x17",
                            "code": "0x603760005360026000f3",
                            "storage": {}
                        },
                        "0x98e830601262e7db1adcfcaac99b946151a8291f": {
                            "nonce": "0x00",
                            "balance": "0x0de0b6b3a7640000",
                            "code": "0x7fffffffffffffffffffffffffffffffffffffffffffffffffffffffffffffffff6000527faaffffffffffffffffffffffffffffffffffffffffffffffffffffffffffffaa60205260026000604060007398e830601262e7db1adcfcaac99b946151a8281f6bfffffffffffffffffffffffffa60005560005160015500",
                            "storage": {
                                "0x00": "0x01",
                                "0x01": "0x3700ffffffffffffffffffffffffffffffffffffffffffffffffffffffffffff"
                            }
                        },
                        "0x98e830601262e7db1adcfcaac99b946151a82a1f": {
                            "nonce": "0x00",
                            "balance": "0x0de0b6b3a76586a0",
                            "code": "0x600060006000600060006000356207a120f100",
                            "storage": {}
                        }
                    }
                }
            ]
        },
        "config": {
            "blobSchedule": {
                "Cancun": {
                    "target": "0x03",
                    "max": "0x06",
                    "baseFeeUpdateFraction": "0x32f0ed"
                }
            },
            "chainid": "0x01"
        },
        "_info": {
            "hash": "0x72bbc8f55531b1bad5493b8ff5c379bf828a388be111f809ef0ff68431b14cc2",
            "comment": "`execution-spec-tests` generated test",
            "filling-transition-tool": "ethereum-spec-evm-resolver 0.0.5",
            "description": "No description available - add a docstring to the python test class or function.",
            "url": "",
            "fixture-format": "state_test",
            "eels-resolution": {
                "git-url": "https://github.com/marioevz/execution-specs.git",
                "branch": "forks/bpo1",
                "commit": "3387e5f4aedfe99becfdc39b444d6371e25e0924"
            }
        }
    },
    "tests/static/state_tests/stStaticCall/static_callWithHighValueAndGasOOGFiller.json::static_callWithHighValueAndGasOOG[fork_Cancun-state_test-d1]": {
        "env": {
            "currentCoinbase": "0x2adc25665018aa1fe0e6bc666dac8fc2697ff9ba",
            "currentGasLimit": "0x01c9c380",
            "currentNumber": "0x01",
            "currentTimestamp": "0x03e8",
            "currentRandom": "0x0000000000000000000000000000000000000000000000000000000000020000",
            "currentDifficulty": "0x00",
            "currentBaseFee": "0x0a",
            "currentExcessBlobGas": "0x00"
        },
        "pre": {
            "0x8d9125cd71abbab1a4f55d0c2b7631adb6f950e5": {
                "nonce": "0x00",
                "balance": "0x0de0b6b3a7640000",
                "code": "0x",
                "storage": {}
            },
            "0xaee68a2bd7de63769990d63da854978bf17eb85b": {
                "nonce": "0x00",
                "balance": "0x17",
                "code": "0x622fffff60002000",
                "storage": {}
            },
            "0xaee68a2bd7de63769990d63da854978bf17eb95b": {
                "nonce": "0x00",
                "balance": "0x0de0b6b3a7640000",
                "code": "0x7fffffffffffffffffffffffffffffffffffffffffffffffffffffffffffffffff6000527faaffffffffffffffffffffffffffffffffffffffffffffffffffffffffffffaa602052600260006040600073aee68a2bd7de63769990d63da854978bf17eb85b6bfffffffffffffffffffffffffa60005560005160015500",
                "storage": {
                    "0x00": "0x01",
                    "0x01": "0x01"
                }
            },
            "0xaee68a2bd7de63769990d63da854978bf17eba5b": {
                "nonce": "0x00",
                "balance": "0x17",
                "code": "0x603760005360026000f3",
                "storage": {}
            },
            "0xaee68a2bd7de63769990d63da854978bf17ebb5b": {
                "nonce": "0x00",
                "balance": "0x0de0b6b3a7640000",
                "code": "0x7fffffffffffffffffffffffffffffffffffffffffffffffffffffffffffffffff6000527faaffffffffffffffffffffffffffffffffffffffffffffffffffffffffffffaa602052600260006040600073aee68a2bd7de63769990d63da854978bf17eba5b6bfffffffffffffffffffffffffa60005560005160015500",
                "storage": {}
            },
            "0xaee68a2bd7de63769990d63da854978bf17ebc5b": {
                "nonce": "0x00",
                "balance": "0x0de0b6b3a7640000",
                "code": "0x600060006000600060006000356207a120f100",
                "storage": {}
            }
        },
        "transaction": {
            "nonce": "0x00",
            "gasPrice": "0x0a",
            "gasLimit": [
                "0x2dc6c0"
            ],
            "to": "0xaee68a2bd7de63769990d63da854978bf17ebc5b",
            "value": [
                "0x0186a0"
            ],
            "data": [
                "0x000000000000000000000000aee68a2bd7de63769990d63da854978bf17eb95b"
            ],
            "sender": "0x8d9125cd71abbab1a4f55d0c2b7631adb6f950e5",
            "secretKey": "0xf6801c702085f59d7ffaf193aee68a2bd7de63769990d63da854978bf17eb85b"
        },
        "post": {
            "Cancun": [
                {
                    "hash": "0x98e46cf3eea996f1f788717e011ff37a660ddde4aa2cfd34fbffd1aaa21ff3d3",
                    "logs": "0x1dcc4de8dec75d7aab85b567b6ccd41ad312451b948a7413f0a142fd40d49347",
                    "txbytes": "0xf883800a832dc6c094aee68a2bd7de63769990d63da854978bf17ebc5b830186a0a0000000000000000000000000aee68a2bd7de63769990d63da854978bf17eb95b26a09e03ba0e1bf4aa9bf0f3af1817c40ac2b881a6907c8f3e10ec2e00e77048a033a00ac20100912f0a9289bf9022c45a076e6713a75b4618c2a31ce9deae0ca6263c",
                    "indexes": {
                        "data": 0,
                        "gas": 0,
                        "value": 0
                    },
                    "state": {
                        "0x8d9125cd71abbab1a4f55d0c2b7631adb6f950e5": {
                            "nonce": "0x01",
                            "balance": "0x0de0b6b3a71284f0",
                            "code": "0x",
                            "storage": {}
                        },
                        "0xaee68a2bd7de63769990d63da854978bf17eb85b": {
                            "nonce": "0x00",
                            "balance": "0x17",
                            "code": "0x622fffff60002000",
                            "storage": {}
                        },
                        "0xaee68a2bd7de63769990d63da854978bf17eb95b": {
                            "nonce": "0x00",
                            "balance": "0x0de0b6b3a7640000",
                            "code": "0x7fffffffffffffffffffffffffffffffffffffffffffffffffffffffffffffffff6000527faaffffffffffffffffffffffffffffffffffffffffffffffffffffffffffffaa602052600260006040600073aee68a2bd7de63769990d63da854978bf17eb85b6bfffffffffffffffffffffffffa60005560005160015500",
                            "storage": {
                                "0x00": "0x01",
                                "0x01": "0x01"
                            }
                        },
                        "0xaee68a2bd7de63769990d63da854978bf17eba5b": {
                            "nonce": "0x00",
                            "balance": "0x17",
                            "code": "0x603760005360026000f3",
                            "storage": {}
                        },
                        "0xaee68a2bd7de63769990d63da854978bf17ebb5b": {
                            "nonce": "0x00",
                            "balance": "0x0de0b6b3a7640000",
                            "code": "0x7fffffffffffffffffffffffffffffffffffffffffffffffffffffffffffffffff6000527faaffffffffffffffffffffffffffffffffffffffffffffffffffffffffffffaa602052600260006040600073aee68a2bd7de63769990d63da854978bf17eba5b6bfffffffffffffffffffffffffa60005560005160015500",
                            "storage": {}
                        },
                        "0xaee68a2bd7de63769990d63da854978bf17ebc5b": {
                            "nonce": "0x00",
                            "balance": "0x0de0b6b3a76586a0",
                            "code": "0x600060006000600060006000356207a120f100",
                            "storage": {}
                        }
                    }
                }
            ]
        },
        "config": {
            "blobSchedule": {
                "Cancun": {
                    "target": "0x03",
                    "max": "0x06",
                    "baseFeeUpdateFraction": "0x32f0ed"
                }
            },
            "chainid": "0x01"
        },
        "_info": {
            "hash": "0xd597ecb12e1100c266876d6f6abace3add042157665e941be612c93688d215e4",
            "comment": "`execution-spec-tests` generated test",
            "filling-transition-tool": "ethereum-spec-evm-resolver 0.0.5",
            "description": "No description available - add a docstring to the python test class or function.",
            "url": "",
            "fixture-format": "state_test",
            "eels-resolution": {
                "git-url": "https://github.com/marioevz/execution-specs.git",
                "branch": "forks/bpo1",
                "commit": "3387e5f4aedfe99becfdc39b444d6371e25e0924"
            }
        }
    },
    "tests/static/state_tests/stStaticCall/static_callWithHighValueAndGasOOGFiller.json::static_callWithHighValueAndGasOOG[fork_Osaka-state_test-d0]": {
        "env": {
            "currentCoinbase": "0x2adc25665018aa1fe0e6bc666dac8fc2697ff9ba",
            "currentGasLimit": "0x01c9c380",
            "currentNumber": "0x01",
            "currentTimestamp": "0x03e8",
            "currentRandom": "0x0000000000000000000000000000000000000000000000000000000000020000",
            "currentDifficulty": "0x00",
            "currentBaseFee": "0x0a",
            "currentExcessBlobGas": "0x00"
        },
        "pre": {
            "0xc401ec17e265f95f0b8fdae77dde3783d1ffcabc": {
                "nonce": "0x00",
                "balance": "0x0de0b6b3a7640000",
                "code": "0x",
                "storage": {}
            },
            "0x98e830601262e7db1adcfcaac99b946151a8261f": {
                "nonce": "0x00",
                "balance": "0x17",
                "code": "0x622fffff60002000",
                "storage": {}
            },
            "0x98e830601262e7db1adcfcaac99b946151a8271f": {
                "nonce": "0x00",
                "balance": "0x0de0b6b3a7640000",
                "code": "0x7fffffffffffffffffffffffffffffffffffffffffffffffffffffffffffffffff6000527faaffffffffffffffffffffffffffffffffffffffffffffffffffffffffffffaa60205260026000604060007398e830601262e7db1adcfcaac99b946151a8261f6bfffffffffffffffffffffffffa60005560005160015500",
                "storage": {
                    "0x00": "0x01",
                    "0x01": "0x01"
                }
            },
            "0x98e830601262e7db1adcfcaac99b946151a8281f": {
                "nonce": "0x00",
                "balance": "0x17",
                "code": "0x603760005360026000f3",
                "storage": {}
            },
            "0x98e830601262e7db1adcfcaac99b946151a8291f": {
                "nonce": "0x00",
                "balance": "0x0de0b6b3a7640000",
                "code": "0x7fffffffffffffffffffffffffffffffffffffffffffffffffffffffffffffffff6000527faaffffffffffffffffffffffffffffffffffffffffffffffffffffffffffffaa60205260026000604060007398e830601262e7db1adcfcaac99b946151a8281f6bfffffffffffffffffffffffffa60005560005160015500",
                "storage": {}
            },
            "0x98e830601262e7db1adcfcaac99b946151a82a1f": {
                "nonce": "0x00",
                "balance": "0x0de0b6b3a7640000",
                "code": "0x600060006000600060006000356207a120f100",
                "storage": {}
            }
        },
        "transaction": {
            "nonce": "0x00",
            "gasPrice": "0x0a",
            "gasLimit": [
                "0x2dc6c0"
            ],
            "to": "0x98e830601262e7db1adcfcaac99b946151a82a1f",
            "value": [
                "0x0186a0"
            ],
            "data": [
                "0x00000000000000000000000098e830601262e7db1adcfcaac99b946151a8291f"
            ],
            "sender": "0xc401ec17e265f95f0b8fdae77dde3783d1ffcabc",
            "secretKey": "0xa48e7a8c2ae0f3e2b965b08098e830601262e7db1adcfcaac99b946151a8261f"
        },
        "post": {
            "Osaka": [
                {
                    "hash": "0x939a6b539ebb10e78fa09bf21ffe581cb00a5652e3e28f88c65ab9340b9efd7d",
                    "logs": "0x1dcc4de8dec75d7aab85b567b6ccd41ad312451b948a7413f0a142fd40d49347",
                    "txbytes": "0xf883800a832dc6c09498e830601262e7db1adcfcaac99b946151a82a1f830186a0a000000000000000000000000098e830601262e7db1adcfcaac99b946151a8291f26a0d8b464b9afee3b45d8c382a0c512e7b30f97a8e9f31b0f1b1d431d5ab5609281a03eb5e426c96ac5ef3341c8154e80fa911093e4175ab90358ca83064f3db8ec4f",
                    "indexes": {
                        "data": 0,
                        "gas": 0,
                        "value": 0
                    },
                    "state": {
                        "0xc401ec17e265f95f0b8fdae77dde3783d1ffcabc": {
                            "nonce": "0x01",
                            "balance": "0x0de0b6b3a757a940",
                            "code": "0x",
                            "storage": {}
                        },
                        "0x98e830601262e7db1adcfcaac99b946151a8261f": {
                            "nonce": "0x00",
                            "balance": "0x17",
                            "code": "0x622fffff60002000",
                            "storage": {}
                        },
                        "0x98e830601262e7db1adcfcaac99b946151a8271f": {
                            "nonce": "0x00",
                            "balance": "0x0de0b6b3a7640000",
                            "code": "0x7fffffffffffffffffffffffffffffffffffffffffffffffffffffffffffffffff6000527faaffffffffffffffffffffffffffffffffffffffffffffffffffffffffffffaa60205260026000604060007398e830601262e7db1adcfcaac99b946151a8261f6bfffffffffffffffffffffffffa60005560005160015500",
                            "storage": {
                                "0x00": "0x01",
                                "0x01": "0x01"
                            }
                        },
                        "0x98e830601262e7db1adcfcaac99b946151a8281f": {
                            "nonce": "0x00",
                            "balance": "0x17",
                            "code": "0x603760005360026000f3",
                            "storage": {}
                        },
                        "0x98e830601262e7db1adcfcaac99b946151a8291f": {
                            "nonce": "0x00",
                            "balance": "0x0de0b6b3a7640000",
                            "code": "0x7fffffffffffffffffffffffffffffffffffffffffffffffffffffffffffffffff6000527faaffffffffffffffffffffffffffffffffffffffffffffffffffffffffffffaa60205260026000604060007398e830601262e7db1adcfcaac99b946151a8281f6bfffffffffffffffffffffffffa60005560005160015500",
                            "storage": {
                                "0x00": "0x01",
                                "0x01": "0x3700ffffffffffffffffffffffffffffffffffffffffffffffffffffffffffff"
                            }
                        },
                        "0x98e830601262e7db1adcfcaac99b946151a82a1f": {
                            "nonce": "0x00",
                            "balance": "0x0de0b6b3a76586a0",
                            "code": "0x600060006000600060006000356207a120f100",
                            "storage": {}
                        }
                    }
                }
            ]
        },
        "config": {
            "blobSchedule": {
                "Cancun": {
                    "target": "0x03",
                    "max": "0x06",
                    "baseFeeUpdateFraction": "0x32f0ed"
                },
                "Prague": {
                    "target": "0x06",
                    "max": "0x09",
                    "baseFeeUpdateFraction": "0x4c6964"
                },
                "Osaka": {
                    "target": "0x06",
                    "max": "0x09",
                    "baseFeeUpdateFraction": "0x4c6964"
                }
            },
            "chainid": "0x01"
        },
        "_info": {
            "hash": "0x860d4eebc5f41fd0c6a84606587f46330644208093dec75bdfb89fe64ce75d73",
            "comment": "`execution-spec-tests` generated test",
            "filling-transition-tool": "ethereum-spec-evm-resolver 0.0.5",
            "description": "No description available - add a docstring to the python test class or function.",
            "url": "",
            "fixture-format": "state_test",
            "eels-resolution": {
                "git-url": "https://github.com/marioevz/execution-specs.git",
                "branch": "forks/bpo1",
                "commit": "3387e5f4aedfe99becfdc39b444d6371e25e0924"
            }
        }
    },
    "tests/static/state_tests/stStaticCall/static_callWithHighValueAndGasOOGFiller.json::static_callWithHighValueAndGasOOG[fork_Osaka-state_test-d1]": {
        "env": {
            "currentCoinbase": "0x2adc25665018aa1fe0e6bc666dac8fc2697ff9ba",
            "currentGasLimit": "0x01c9c380",
            "currentNumber": "0x01",
            "currentTimestamp": "0x03e8",
            "currentRandom": "0x0000000000000000000000000000000000000000000000000000000000020000",
            "currentDifficulty": "0x00",
            "currentBaseFee": "0x0a",
            "currentExcessBlobGas": "0x00"
        },
        "pre": {
            "0x8d9125cd71abbab1a4f55d0c2b7631adb6f950e5": {
                "nonce": "0x00",
                "balance": "0x0de0b6b3a7640000",
                "code": "0x",
                "storage": {}
            },
            "0xaee68a2bd7de63769990d63da854978bf17eb85b": {
                "nonce": "0x00",
                "balance": "0x17",
                "code": "0x622fffff60002000",
                "storage": {}
            },
            "0xaee68a2bd7de63769990d63da854978bf17eb95b": {
                "nonce": "0x00",
                "balance": "0x0de0b6b3a7640000",
                "code": "0x7fffffffffffffffffffffffffffffffffffffffffffffffffffffffffffffffff6000527faaffffffffffffffffffffffffffffffffffffffffffffffffffffffffffffaa602052600260006040600073aee68a2bd7de63769990d63da854978bf17eb85b6bfffffffffffffffffffffffffa60005560005160015500",
                "storage": {
                    "0x00": "0x01",
                    "0x01": "0x01"
                }
            },
            "0xaee68a2bd7de63769990d63da854978bf17eba5b": {
                "nonce": "0x00",
                "balance": "0x17",
                "code": "0x603760005360026000f3",
                "storage": {}
            },
            "0xaee68a2bd7de63769990d63da854978bf17ebb5b": {
                "nonce": "0x00",
                "balance": "0x0de0b6b3a7640000",
                "code": "0x7fffffffffffffffffffffffffffffffffffffffffffffffffffffffffffffffff6000527faaffffffffffffffffffffffffffffffffffffffffffffffffffffffffffffaa602052600260006040600073aee68a2bd7de63769990d63da854978bf17eba5b6bfffffffffffffffffffffffffa60005560005160015500",
                "storage": {}
            },
            "0xaee68a2bd7de63769990d63da854978bf17ebc5b": {
                "nonce": "0x00",
                "balance": "0x0de0b6b3a7640000",
                "code": "0x600060006000600060006000356207a120f100",
                "storage": {}
            }
        },
        "transaction": {
            "nonce": "0x00",
            "gasPrice": "0x0a",
            "gasLimit": [
                "0x2dc6c0"
            ],
            "to": "0xaee68a2bd7de63769990d63da854978bf17ebc5b",
            "value": [
                "0x0186a0"
            ],
            "data": [
                "0x000000000000000000000000aee68a2bd7de63769990d63da854978bf17eb95b"
            ],
            "sender": "0x8d9125cd71abbab1a4f55d0c2b7631adb6f950e5",
            "secretKey": "0xf6801c702085f59d7ffaf193aee68a2bd7de63769990d63da854978bf17eb85b"
        },
        "post": {
            "Osaka": [
                {
                    "hash": "0x98e46cf3eea996f1f788717e011ff37a660ddde4aa2cfd34fbffd1aaa21ff3d3",
                    "logs": "0x1dcc4de8dec75d7aab85b567b6ccd41ad312451b948a7413f0a142fd40d49347",
                    "txbytes": "0xf883800a832dc6c094aee68a2bd7de63769990d63da854978bf17ebc5b830186a0a0000000000000000000000000aee68a2bd7de63769990d63da854978bf17eb95b26a09e03ba0e1bf4aa9bf0f3af1817c40ac2b881a6907c8f3e10ec2e00e77048a033a00ac20100912f0a9289bf9022c45a076e6713a75b4618c2a31ce9deae0ca6263c",
                    "indexes": {
                        "data": 0,
                        "gas": 0,
                        "value": 0
                    },
                    "state": {
                        "0x8d9125cd71abbab1a4f55d0c2b7631adb6f950e5": {
                            "nonce": "0x01",
                            "balance": "0x0de0b6b3a71284f0",
                            "code": "0x",
                            "storage": {}
                        },
                        "0xaee68a2bd7de63769990d63da854978bf17eb85b": {
                            "nonce": "0x00",
                            "balance": "0x17",
                            "code": "0x622fffff60002000",
                            "storage": {}
                        },
                        "0xaee68a2bd7de63769990d63da854978bf17eb95b": {
                            "nonce": "0x00",
                            "balance": "0x0de0b6b3a7640000",
                            "code": "0x7fffffffffffffffffffffffffffffffffffffffffffffffffffffffffffffffff6000527faaffffffffffffffffffffffffffffffffffffffffffffffffffffffffffffaa602052600260006040600073aee68a2bd7de63769990d63da854978bf17eb85b6bfffffffffffffffffffffffffa60005560005160015500",
                            "storage": {
                                "0x00": "0x01",
                                "0x01": "0x01"
                            }
                        },
                        "0xaee68a2bd7de63769990d63da854978bf17eba5b": {
                            "nonce": "0x00",
                            "balance": "0x17",
                            "code": "0x603760005360026000f3",
                            "storage": {}
                        },
                        "0xaee68a2bd7de63769990d63da854978bf17ebb5b": {
                            "nonce": "0x00",
                            "balance": "0x0de0b6b3a7640000",
                            "code": "0x7fffffffffffffffffffffffffffffffffffffffffffffffffffffffffffffffff6000527faaffffffffffffffffffffffffffffffffffffffffffffffffffffffffffffaa602052600260006040600073aee68a2bd7de63769990d63da854978bf17eba5b6bfffffffffffffffffffffffffa60005560005160015500",
                            "storage": {}
                        },
                        "0xaee68a2bd7de63769990d63da854978bf17ebc5b": {
                            "nonce": "0x00",
                            "balance": "0x0de0b6b3a76586a0",
                            "code": "0x600060006000600060006000356207a120f100",
                            "storage": {}
                        }
                    }
                }
            ]
        },
        "config": {
            "blobSchedule": {
                "Cancun": {
                    "target": "0x03",
                    "max": "0x06",
                    "baseFeeUpdateFraction": "0x32f0ed"
                },
                "Prague": {
                    "target": "0x06",
                    "max": "0x09",
                    "baseFeeUpdateFraction": "0x4c6964"
                },
                "Osaka": {
                    "target": "0x06",
                    "max": "0x09",
                    "baseFeeUpdateFraction": "0x4c6964"
                }
            },
            "chainid": "0x01"
        },
        "_info": {
            "hash": "0xf7b9bf39d28300db5c718f3d4784903b61439c569f674dc06b664450bb063806",
            "comment": "`execution-spec-tests` generated test",
            "filling-transition-tool": "ethereum-spec-evm-resolver 0.0.5",
            "description": "No description available - add a docstring to the python test class or function.",
            "url": "",
            "fixture-format": "state_test",
            "eels-resolution": {
                "git-url": "https://github.com/marioevz/execution-specs.git",
                "branch": "forks/bpo1",
                "commit": "3387e5f4aedfe99becfdc39b444d6371e25e0924"
            }
        }
    },
    "tests/static/state_tests/stStaticCall/static_callWithHighValueAndGasOOGFiller.json::static_callWithHighValueAndGasOOG[fork_Prague-state_test-d0]": {
        "env": {
            "currentCoinbase": "0x2adc25665018aa1fe0e6bc666dac8fc2697ff9ba",
            "currentGasLimit": "0x01c9c380",
            "currentNumber": "0x01",
            "currentTimestamp": "0x03e8",
            "currentRandom": "0x0000000000000000000000000000000000000000000000000000000000020000",
            "currentDifficulty": "0x00",
            "currentBaseFee": "0x0a",
            "currentExcessBlobGas": "0x00"
        },
        "pre": {
            "0xc401ec17e265f95f0b8fdae77dde3783d1ffcabc": {
                "nonce": "0x00",
                "balance": "0x0de0b6b3a7640000",
                "code": "0x",
                "storage": {}
            },
            "0x98e830601262e7db1adcfcaac99b946151a8261f": {
                "nonce": "0x00",
                "balance": "0x17",
                "code": "0x622fffff60002000",
                "storage": {}
            },
            "0x98e830601262e7db1adcfcaac99b946151a8271f": {
                "nonce": "0x00",
                "balance": "0x0de0b6b3a7640000",
                "code": "0x7fffffffffffffffffffffffffffffffffffffffffffffffffffffffffffffffff6000527faaffffffffffffffffffffffffffffffffffffffffffffffffffffffffffffaa60205260026000604060007398e830601262e7db1adcfcaac99b946151a8261f6bfffffffffffffffffffffffffa60005560005160015500",
                "storage": {
                    "0x00": "0x01",
                    "0x01": "0x01"
                }
            },
            "0x98e830601262e7db1adcfcaac99b946151a8281f": {
                "nonce": "0x00",
                "balance": "0x17",
                "code": "0x603760005360026000f3",
                "storage": {}
            },
            "0x98e830601262e7db1adcfcaac99b946151a8291f": {
                "nonce": "0x00",
                "balance": "0x0de0b6b3a7640000",
                "code": "0x7fffffffffffffffffffffffffffffffffffffffffffffffffffffffffffffffff6000527faaffffffffffffffffffffffffffffffffffffffffffffffffffffffffffffaa60205260026000604060007398e830601262e7db1adcfcaac99b946151a8281f6bfffffffffffffffffffffffffa60005560005160015500",
                "storage": {}
            },
            "0x98e830601262e7db1adcfcaac99b946151a82a1f": {
                "nonce": "0x00",
                "balance": "0x0de0b6b3a7640000",
                "code": "0x600060006000600060006000356207a120f100",
                "storage": {}
            }
        },
        "transaction": {
            "nonce": "0x00",
            "gasPrice": "0x0a",
            "gasLimit": [
                "0x2dc6c0"
            ],
            "to": "0x98e830601262e7db1adcfcaac99b946151a82a1f",
            "value": [
                "0x0186a0"
            ],
            "data": [
                "0x00000000000000000000000098e830601262e7db1adcfcaac99b946151a8291f"
            ],
            "sender": "0xc401ec17e265f95f0b8fdae77dde3783d1ffcabc",
            "secretKey": "0xa48e7a8c2ae0f3e2b965b08098e830601262e7db1adcfcaac99b946151a8261f"
        },
        "post": {
            "Prague": [
                {
                    "hash": "0x939a6b539ebb10e78fa09bf21ffe581cb00a5652e3e28f88c65ab9340b9efd7d",
                    "logs": "0x1dcc4de8dec75d7aab85b567b6ccd41ad312451b948a7413f0a142fd40d49347",
                    "txbytes": "0xf883800a832dc6c09498e830601262e7db1adcfcaac99b946151a82a1f830186a0a000000000000000000000000098e830601262e7db1adcfcaac99b946151a8291f26a0d8b464b9afee3b45d8c382a0c512e7b30f97a8e9f31b0f1b1d431d5ab5609281a03eb5e426c96ac5ef3341c8154e80fa911093e4175ab90358ca83064f3db8ec4f",
                    "indexes": {
                        "data": 0,
                        "gas": 0,
                        "value": 0
                    },
                    "state": {
                        "0xc401ec17e265f95f0b8fdae77dde3783d1ffcabc": {
                            "nonce": "0x01",
                            "balance": "0x0de0b6b3a757a940",
                            "code": "0x",
                            "storage": {}
                        },
                        "0x98e830601262e7db1adcfcaac99b946151a8261f": {
                            "nonce": "0x00",
                            "balance": "0x17",
                            "code": "0x622fffff60002000",
                            "storage": {}
                        },
                        "0x98e830601262e7db1adcfcaac99b946151a8271f": {
                            "nonce": "0x00",
                            "balance": "0x0de0b6b3a7640000",
                            "code": "0x7fffffffffffffffffffffffffffffffffffffffffffffffffffffffffffffffff6000527faaffffffffffffffffffffffffffffffffffffffffffffffffffffffffffffaa60205260026000604060007398e830601262e7db1adcfcaac99b946151a8261f6bfffffffffffffffffffffffffa60005560005160015500",
                            "storage": {
                                "0x00": "0x01",
                                "0x01": "0x01"
                            }
                        },
                        "0x98e830601262e7db1adcfcaac99b946151a8281f": {
                            "nonce": "0x00",
                            "balance": "0x17",
                            "code": "0x603760005360026000f3",
                            "storage": {}
                        },
                        "0x98e830601262e7db1adcfcaac99b946151a8291f": {
                            "nonce": "0x00",
                            "balance": "0x0de0b6b3a7640000",
                            "code": "0x7fffffffffffffffffffffffffffffffffffffffffffffffffffffffffffffffff6000527faaffffffffffffffffffffffffffffffffffffffffffffffffffffffffffffaa60205260026000604060007398e830601262e7db1adcfcaac99b946151a8281f6bfffffffffffffffffffffffffa60005560005160015500",
                            "storage": {
                                "0x00": "0x01",
                                "0x01": "0x3700ffffffffffffffffffffffffffffffffffffffffffffffffffffffffffff"
                            }
                        },
                        "0x98e830601262e7db1adcfcaac99b946151a82a1f": {
                            "nonce": "0x00",
                            "balance": "0x0de0b6b3a76586a0",
                            "code": "0x600060006000600060006000356207a120f100",
                            "storage": {}
                        }
                    }
                }
            ]
        },
        "config": {
            "blobSchedule": {
                "Cancun": {
                    "target": "0x03",
                    "max": "0x06",
                    "baseFeeUpdateFraction": "0x32f0ed"
                },
                "Prague": {
                    "target": "0x06",
                    "max": "0x09",
                    "baseFeeUpdateFraction": "0x4c6964"
                }
            },
            "chainid": "0x01"
        },
        "_info": {
            "hash": "0xf9928dd9efee5ab82c8848ec9fdee8779bfce8b4e4992e058121570d5a120118",
            "comment": "`execution-spec-tests` generated test",
            "filling-transition-tool": "ethereum-spec-evm-resolver 0.0.5",
            "description": "No description available - add a docstring to the python test class or function.",
            "url": "",
            "fixture-format": "state_test",
            "eels-resolution": {
                "git-url": "https://github.com/marioevz/execution-specs.git",
                "branch": "forks/bpo1",
                "commit": "3387e5f4aedfe99becfdc39b444d6371e25e0924"
            }
        }
    },
    "tests/static/state_tests/stStaticCall/static_callWithHighValueAndGasOOGFiller.json::static_callWithHighValueAndGasOOG[fork_Prague-state_test-d1]": {
        "env": {
            "currentCoinbase": "0x2adc25665018aa1fe0e6bc666dac8fc2697ff9ba",
            "currentGasLimit": "0x01c9c380",
            "currentNumber": "0x01",
            "currentTimestamp": "0x03e8",
            "currentRandom": "0x0000000000000000000000000000000000000000000000000000000000020000",
            "currentDifficulty": "0x00",
            "currentBaseFee": "0x0a",
            "currentExcessBlobGas": "0x00"
        },
        "pre": {
            "0x8d9125cd71abbab1a4f55d0c2b7631adb6f950e5": {
                "nonce": "0x00",
                "balance": "0x0de0b6b3a7640000",
                "code": "0x",
                "storage": {}
            },
            "0xaee68a2bd7de63769990d63da854978bf17eb85b": {
                "nonce": "0x00",
                "balance": "0x17",
                "code": "0x622fffff60002000",
                "storage": {}
            },
            "0xaee68a2bd7de63769990d63da854978bf17eb95b": {
                "nonce": "0x00",
                "balance": "0x0de0b6b3a7640000",
                "code": "0x7fffffffffffffffffffffffffffffffffffffffffffffffffffffffffffffffff6000527faaffffffffffffffffffffffffffffffffffffffffffffffffffffffffffffaa602052600260006040600073aee68a2bd7de63769990d63da854978bf17eb85b6bfffffffffffffffffffffffffa60005560005160015500",
                "storage": {
                    "0x00": "0x01",
                    "0x01": "0x01"
                }
            },
            "0xaee68a2bd7de63769990d63da854978bf17eba5b": {
                "nonce": "0x00",
                "balance": "0x17",
                "code": "0x603760005360026000f3",
                "storage": {}
            },
            "0xaee68a2bd7de63769990d63da854978bf17ebb5b": {
                "nonce": "0x00",
                "balance": "0x0de0b6b3a7640000",
                "code": "0x7fffffffffffffffffffffffffffffffffffffffffffffffffffffffffffffffff6000527faaffffffffffffffffffffffffffffffffffffffffffffffffffffffffffffaa602052600260006040600073aee68a2bd7de63769990d63da854978bf17eba5b6bfffffffffffffffffffffffffa60005560005160015500",
                "storage": {}
            },
            "0xaee68a2bd7de63769990d63da854978bf17ebc5b": {
                "nonce": "0x00",
                "balance": "0x0de0b6b3a7640000",
                "code": "0x600060006000600060006000356207a120f100",
                "storage": {}
            }
        },
        "transaction": {
            "nonce": "0x00",
            "gasPrice": "0x0a",
            "gasLimit": [
                "0x2dc6c0"
            ],
            "to": "0xaee68a2bd7de63769990d63da854978bf17ebc5b",
            "value": [
                "0x0186a0"
            ],
            "data": [
                "0x000000000000000000000000aee68a2bd7de63769990d63da854978bf17eb95b"
            ],
            "sender": "0x8d9125cd71abbab1a4f55d0c2b7631adb6f950e5",
            "secretKey": "0xf6801c702085f59d7ffaf193aee68a2bd7de63769990d63da854978bf17eb85b"
        },
        "post": {
            "Prague": [
                {
                    "hash": "0x98e46cf3eea996f1f788717e011ff37a660ddde4aa2cfd34fbffd1aaa21ff3d3",
                    "logs": "0x1dcc4de8dec75d7aab85b567b6ccd41ad312451b948a7413f0a142fd40d49347",
                    "txbytes": "0xf883800a832dc6c094aee68a2bd7de63769990d63da854978bf17ebc5b830186a0a0000000000000000000000000aee68a2bd7de63769990d63da854978bf17eb95b26a09e03ba0e1bf4aa9bf0f3af1817c40ac2b881a6907c8f3e10ec2e00e77048a033a00ac20100912f0a9289bf9022c45a076e6713a75b4618c2a31ce9deae0ca6263c",
                    "indexes": {
                        "data": 0,
                        "gas": 0,
                        "value": 0
                    },
                    "state": {
                        "0x8d9125cd71abbab1a4f55d0c2b7631adb6f950e5": {
                            "nonce": "0x01",
                            "balance": "0x0de0b6b3a71284f0",
                            "code": "0x",
                            "storage": {}
                        },
                        "0xaee68a2bd7de63769990d63da854978bf17eb85b": {
                            "nonce": "0x00",
                            "balance": "0x17",
                            "code": "0x622fffff60002000",
                            "storage": {}
                        },
                        "0xaee68a2bd7de63769990d63da854978bf17eb95b": {
                            "nonce": "0x00",
                            "balance": "0x0de0b6b3a7640000",
                            "code": "0x7fffffffffffffffffffffffffffffffffffffffffffffffffffffffffffffffff6000527faaffffffffffffffffffffffffffffffffffffffffffffffffffffffffffffaa602052600260006040600073aee68a2bd7de63769990d63da854978bf17eb85b6bfffffffffffffffffffffffffa60005560005160015500",
                            "storage": {
                                "0x00": "0x01",
                                "0x01": "0x01"
                            }
                        },
                        "0xaee68a2bd7de63769990d63da854978bf17eba5b": {
                            "nonce": "0x00",
                            "balance": "0x17",
                            "code": "0x603760005360026000f3",
                            "storage": {}
                        },
                        "0xaee68a2bd7de63769990d63da854978bf17ebb5b": {
                            "nonce": "0x00",
                            "balance": "0x0de0b6b3a7640000",
                            "code": "0x7fffffffffffffffffffffffffffffffffffffffffffffffffffffffffffffffff6000527faaffffffffffffffffffffffffffffffffffffffffffffffffffffffffffffaa602052600260006040600073aee68a2bd7de63769990d63da854978bf17eba5b6bfffffffffffffffffffffffffa60005560005160015500",
                            "storage": {}
                        },
                        "0xaee68a2bd7de63769990d63da854978bf17ebc5b": {
                            "nonce": "0x00",
                            "balance": "0x0de0b6b3a76586a0",
                            "code": "0x600060006000600060006000356207a120f100",
                            "storage": {}
                        }
                    }
                }
            ]
        },
        "config": {
            "blobSchedule": {
                "Cancun": {
                    "target": "0x03",
                    "max": "0x06",
                    "baseFeeUpdateFraction": "0x32f0ed"
                },
                "Prague": {
                    "target": "0x06",
                    "max": "0x09",
                    "baseFeeUpdateFraction": "0x4c6964"
                }
            },
            "chainid": "0x01"
        },
        "_info": {
            "hash": "0xa8105663b3e5fe84cff67abd8af2a1c473101adc59581a7049308d87437a0d0c",
            "comment": "`execution-spec-tests` generated test",
            "filling-transition-tool": "ethereum-spec-evm-resolver 0.0.5",
            "description": "No description available - add a docstring to the python test class or function.",
            "url": "",
            "fixture-format": "state_test",
            "eels-resolution": {
                "git-url": "https://github.com/marioevz/execution-specs.git",
                "branch": "forks/bpo1",
                "commit": "3387e5f4aedfe99becfdc39b444d6371e25e0924"
            }
        }
    }
}