{
    "tests/static/state_tests/stStaticCall/static_CallIdentity_5Filler.json::static_CallIdentity_5[fork_Cancun-state_test-]": {
        "env": {
            "currentCoinbase": "0x2adc25665018aa1fe0e6bc666dac8fc2697ff9ba",
            "currentGasLimit": "0x05f5e100",
            "currentNumber": "0x01",
            "currentTimestamp": "0x03e8",
            "currentRandom": "0x0000000000000000000000000000000000000000000000000000000000020000",
            "currentDifficulty": "0x00",
            "currentBaseFee": "0x0a",
            "currentExcessBlobGas": "0x00"
        },
        "pre": {
            "0xa6fea729e26ca2826a6d2eacae57664b3902a95f": {
                "nonce": "0x00",
                "balance": "0x0de0b6b3a7640000",
                "code": "0x",
                "storage": {}
            },
            "0x2277a0834be8e96448dbf030f2a8a66410353cd5": {
                "nonce": "0x00",
                "balance": "0x01312d00",
                "code": "0x7fffffffffffffffffffffffffffffffffffffffffffffffffffffffffffffffff60005260206000620f424060006004610258fa60025560005160005500",
                "storage": {}
            }
        },
        "transaction": {
            "nonce": "0x00",
            "gasPrice": "0x0a",
            "gasLimit": [
                "0x989680"
            ],
            "to": "0x2277a0834be8e96448dbf030f2a8a66410353cd5",
            "value": [
                "0x0186a0"
            ],
            "data": [
                "0x"
            ],
            "sender": "0xa6fea729e26ca2826a6d2eacae57664b3902a95f",
            "secretKey": "0x1de855f07ca2fb746fd414cd2277a0834be8e96448dbf030f2a8a66410353cd5"
        },
        "post": {
            "Cancun": [
                {
                    "hash": "0x5143066097fd7bc6b722a98d1e86a35039fce2ec500df7ce4af9a6610e916870",
                    "logs": "0x1dcc4de8dec75d7aab85b567b6ccd41ad312451b948a7413f0a142fd40d49347",
                    "txbytes": "0xf863800a83989680942277a0834be8e96448dbf030f2a8a66410353cd5830186a08026a0a7aa2af97edbfe5bbfba627fa64abd2ceb034c4bcb4cc02797f777fcd8312dd2a0655ea0fe79f24a2ab81604527327ec36e1ae59971d7a2add2bdc4e84be87fff7",
                    "indexes": {
                        "data": 0,
                        "gas": 0,
                        "value": 0
                    },
                    "state": {
                        "0xa6fea729e26ca2826a6d2eacae57664b3902a95f": {
                            "nonce": "0x01",
                            "balance": "0x0de0b6b3a62a1b16",
                            "code": "0x",
                            "storage": {}
                        },
                        "0x2277a0834be8e96448dbf030f2a8a66410353cd5": {
                            "nonce": "0x00",
                            "balance": "0x0132b3a0",
                            "code": "0x7fffffffffffffffffffffffffffffffffffffffffffffffffffffffffffffffff60005260206000620f424060006004610258fa60025560005160005500",
                            "storage": {
                                "0x00": "0xffffffffffffffffffffffffffffffffffffffffffffffffffffffffffffffff"
                            }
                        }
                    }
                }
            ]
        },
        "config": {
            "blobSchedule": {
                "Cancun": {
                    "target": "0x03",
                    "max": "0x06",
                    "baseFeeUpdateFraction": "0x32f0ed"
                }
            },
            "chainid": "0x01"
        },
        "_info": {
            "hash": "0xad5b6c2360f7cabb5d22da7d53f320a68d18d336f30a917b71a380601bcdf37a",
            "comment": "`execution-spec-tests` generated test",
            "filling-transition-tool": "ethereum-spec-evm-resolver 0.0.5",
            "description": "No description available - add a docstring to the python test class or function.",
            "url": "",
            "fixture-format": "state_test",
            "eels-resolution": {
                "git-url": "https://github.com/marioevz/execution-specs.git",
                "branch": "forks/bpo1",
                "commit": "3387e5f4aedfe99becfdc39b444d6371e25e0924"
            }
        }
    },
    "tests/static/state_tests/stStaticCall/static_CallIdentity_5Filler.json::static_CallIdentity_5[fork_Osaka-state_test-]": {
        "env": {
            "currentCoinbase": "0x2adc25665018aa1fe0e6bc666dac8fc2697ff9ba",
            "currentGasLimit": "0x05f5e100",
            "currentNumber": "0x01",
            "currentTimestamp": "0x03e8",
            "currentRandom": "0x0000000000000000000000000000000000000000000000000000000000020000",
            "currentDifficulty": "0x00",
            "currentBaseFee": "0x0a",
            "currentExcessBlobGas": "0x00"
        },
        "pre": {
            "0xa6fea729e26ca2826a6d2eacae57664b3902a95f": {
                "nonce": "0x00",
                "balance": "0x0de0b6b3a7640000",
                "code": "0x",
                "storage": {}
            },
            "0x2277a0834be8e96448dbf030f2a8a66410353cd5": {
                "nonce": "0x00",
                "balance": "0x01312d00",
                "code": "0x7fffffffffffffffffffffffffffffffffffffffffffffffffffffffffffffffff60005260206000620f424060006004610258fa60025560005160005500",
                "storage": {}
            }
        },
        "transaction": {
            "nonce": "0x00",
            "gasPrice": "0x0a",
            "gasLimit": [
                "0x989680"
            ],
            "to": "0x2277a0834be8e96448dbf030f2a8a66410353cd5",
            "value": [
                "0x0186a0"
            ],
            "data": [
                "0x"
            ],
            "sender": "0xa6fea729e26ca2826a6d2eacae57664b3902a95f",
            "secretKey": "0x1de855f07ca2fb746fd414cd2277a0834be8e96448dbf030f2a8a66410353cd5"
        },
        "post": {
            "Osaka": [
                {
                    "hash": "0x5143066097fd7bc6b722a98d1e86a35039fce2ec500df7ce4af9a6610e916870",
                    "logs": "0x1dcc4de8dec75d7aab85b567b6ccd41ad312451b948a7413f0a142fd40d49347",
                    "txbytes": "0xf863800a83989680942277a0834be8e96448dbf030f2a8a66410353cd5830186a08026a0a7aa2af97edbfe5bbfba627fa64abd2ceb034c4bcb4cc02797f777fcd8312dd2a0655ea0fe79f24a2ab81604527327ec36e1ae59971d7a2add2bdc4e84be87fff7",
                    "indexes": {
                        "data": 0,
                        "gas": 0,
                        "value": 0
                    },
                    "state": {
                        "0xa6fea729e26ca2826a6d2eacae57664b3902a95f": {
                            "nonce": "0x01",
                            "balance": "0x0de0b6b3a62a1b16",
                            "code": "0x",
                            "storage": {}
                        },
                        "0x2277a0834be8e96448dbf030f2a8a66410353cd5": {
                            "nonce": "0x00",
                            "balance": "0x0132b3a0",
                            "code": "0x7fffffffffffffffffffffffffffffffffffffffffffffffffffffffffffffffff60005260206000620f424060006004610258fa60025560005160005500",
                            "storage": {
                                "0x00": "0xffffffffffffffffffffffffffffffffffffffffffffffffffffffffffffffff"
                            }
                        }
                    }
                }
            ]
        },
        "config": {
            "blobSchedule": {
                "Cancun": {
                    "target": "0x03",
                    "max": "0x06",
                    "baseFeeUpdateFraction": "0x32f0ed"
                },
                "Prague": {
                    "target": "0x06",
                    "max": "0x09",
                    "baseFeeUpdateFraction": "0x4c6964"
                },
                "Osaka": {
                    "target": "0x06",
                    "max": "0x09",
                    "baseFeeUpdateFraction": "0x4c6964"
                }
            },
            "chainid": "0x01"
        },
        "_info": {
            "hash": "0xe7483df3bdc1566f1856505c5777cd260be357dfe0c51f4be5c21bc063d146be",
            "comment": "`execution-spec-tests` generated test",
            "filling-transition-tool": "ethereum-spec-evm-resolver 0.0.5",
            "description": "No description available - add a docstring to the python test class or function.",
            "url": "",
            "fixture-format": "state_test",
            "eels-resolution": {
                "git-url": "https://github.com/marioevz/execution-specs.git",
                "branch": "forks/bpo1",
                "commit": "3387e5f4aedfe99becfdc39b444d6371e25e0924"
            }
        }
    },
    "tests/static/state_tests/stStaticCall/static_CallIdentity_5Filler.json::static_CallIdentity_5[fork_Prague-state_test-]": {
        "env": {
            "currentCoinbase": "0x2adc25665018aa1fe0e6bc666dac8fc2697ff9ba",
            "currentGasLimit": "0x05f5e100",
            "currentNumber": "0x01",
            "currentTimestamp": "0x03e8",
            "currentRandom": "0x0000000000000000000000000000000000000000000000000000000000020000",
            "currentDifficulty": "0x00",
            "currentBaseFee": "0x0a",
            "currentExcessBlobGas": "0x00"
        },
        "pre": {
            "0xa6fea729e26ca2826a6d2eacae57664b3902a95f": {
                "nonce": "0x00",
                "balance": "0x0de0b6b3a7640000",
                "code": "0x",
                "storage": {}
            },
            "0x2277a0834be8e96448dbf030f2a8a66410353cd5": {
                "nonce": "0x00",
                "balance": "0x01312d00",
                "code": "0x7fffffffffffffffffffffffffffffffffffffffffffffffffffffffffffffffff60005260206000620f424060006004610258fa60025560005160005500",
                "storage": {}
            }
        },
        "transaction": {
            "nonce": "0x00",
            "gasPrice": "0x0a",
            "gasLimit": [
                "0x989680"
            ],
            "to": "0x2277a0834be8e96448dbf030f2a8a66410353cd5",
            "value": [
                "0x0186a0"
            ],
            "data": [
                "0x"
            ],
            "sender": "0xa6fea729e26ca2826a6d2eacae57664b3902a95f",
            "secretKey": "0x1de855f07ca2fb746fd414cd2277a0834be8e96448dbf030f2a8a66410353cd5"
        },
        "post": {
            "Prague": [
                {
                    "hash": "0x5143066097fd7bc6b722a98d1e86a35039fce2ec500df7ce4af9a6610e916870",
                    "logs": "0x1dcc4de8dec75d7aab85b567b6ccd41ad312451b948a7413f0a142fd40d49347",
                    "txbytes": "0xf863800a83989680942277a0834be8e96448dbf030f2a8a66410353cd5830186a08026a0a7aa2af97edbfe5bbfba627fa64abd2ceb034c4bcb4cc02797f777fcd8312dd2a0655ea0fe79f24a2ab81604527327ec36e1ae59971d7a2add2bdc4e84be87fff7",
                    "indexes": {
                        "data": 0,
                        "gas": 0,
                        "value": 0
                    },
                    "state": {
                        "0xa6fea729e26ca2826a6d2eacae57664b3902a95f": {
                            "nonce": "0x01",
                            "balance": "0x0de0b6b3a62a1b16",
                            "code": "0x",
                            "storage": {}
                        },
                        "0x2277a0834be8e96448dbf030f2a8a66410353cd5": {
                            "nonce": "0x00",
                            "balance": "0x0132b3a0",
                            "code": "0x7fffffffffffffffffffffffffffffffffffffffffffffffffffffffffffffffff60005260206000620f424060006004610258fa60025560005160005500",
                            "storage": {
                                "0x00": "0xffffffffffffffffffffffffffffffffffffffffffffffffffffffffffffffff"
                            }
                        }
                    }
                }
            ]
        },
        "config": {
            "blobSchedule": {
                "Cancun": {
                    "target": "0x03",
                    "max": "0x06",
                    "baseFeeUpdateFraction": "0x32f0ed"
                },
                "Prague": {
                    "target": "0x06",
                    "max": "0x09",
                    "baseFeeUpdateFraction": "0x4c6964"
                }
            },
            "chainid": "0x01"
        },
        "_info": {
            "hash": "0xdc611eab0666c09c18a085385c50c51ee4292604491e9915323c4fb169183ae3",
            "comment": "`execution-spec-tests` generated test",
            "filling-transition-tool": "ethereum-spec-evm-resolver 0.0.5",
            "description": "No description available - add a docstring to the python test class or function.",
            "url": "",
            "fixture-format": "state_test",
            "eels-resolution": {
                "git-url": "https://github.com/marioevz/execution-specs.git",
                "branch": "forks/bpo1",
                "commit": "3387e5f4aedfe99becfdc39b444d6371e25e0924"
            }
        }
    }
}