{
    "tests/static/state_tests/stStaticCall/static_callOutput3FailFiller.json::static_callOutput3Fail[fork_Cancun-state_test-]": {
        "env": {
            "currentCoinbase": "0x2adc25665018aa1fe0e6bc666dac8fc2697ff9ba",
            "currentGasLimit": "0x0f4240",
            "currentNumber": "0x01",
            "currentTimestamp": "0x03e8",
            "currentRandom": "0x0000000000000000000000000000000000000000000000000000000000020000",
            "currentDifficulty": "0x00",
            "currentBaseFee": "0x0a",
            "currentExcessBlobGas": "0x00"
        },
        "pre": {
            "0x41f9f8ef69a117fa90e7a80becd2679c7b58efbd": {
                "nonce": "0x00",
                "balance": "0x0de0b6b3a7640000",
                "code": "0x016001600101600055",
                "storage": {}
            },
            "0x41f9f8ef69a117fa90e7a80becd2679c7b58f0bd": {
                "nonce": "0x00",
                "balance": "0x0de0b6b3a7640000",
                "code": "0x7f5e20a0453cecd065ea59c37ac63e079ee08998b6045136a8ce6635c7912ec0b660005260206000600060007341f9f8ef69a117fa90e7a80becd2679c7b58efbd61c350fa5060005160005500",
                "storage": {}
            },
            "0x1bea514d6f2ce19c241a04f6419329b93689eed7": {
                "nonce": "0x00",
                "balance": "0x0de0b6b3a7640000",
                "code": "0x",
                "storage": {}
            }
        },
        "transaction": {
            "nonce": "0x00",
            "gasPrice": "0x0a",
            "gasLimit": [
                "0x0f4240"
            ],
            "to": "0x41f9f8ef69a117fa90e7a80becd2679c7b58f0bd",
            "value": [
                "0x0186a0"
            ],
            "data": [
                "0x"
            ],
            "sender": "0x1bea514d6f2ce19c241a04f6419329b93689eed7",
            "secretKey": "0xa2fc30ba2b68145c25289b5441f9f8ef69a117fa90e7a80becd2679c7b58efbd"
        },
        "post": {
            "Cancun": [
                {
                    "hash": "0x0b6469bcb07684c784e7c3a2427fcca9e82b86efd0e919c8966616b0f4542e2d",
                    "logs": "0x1dcc4de8dec75d7aab85b567b6ccd41ad312451b948a7413f0a142fd40d49347",
                    "txbytes": "0xf863800a830f42409441f9f8ef69a117fa90e7a80becd2679c7b58f0bd830186a08025a033b94fd70da93a93207fb9fe8fa70d7e6f24fa321b51b34bf66dbf159f091a72a0325567f0e99761f59e2e44633bd5ea1d08eda30068c284d0dd630e33ca2a662b",
                    "indexes": {
                        "data": 0,
                        "gas": 0,
                        "value": 0
                    },
                    "state": {
                        "0x41f9f8ef69a117fa90e7a80becd2679c7b58efbd": {
                            "nonce": "0x00",
                            "balance": "0x0de0b6b3a7640000",
                            "code": "0x016001600101600055",
                            "storage": {}
                        },
                        "0x41f9f8ef69a117fa90e7a80becd2679c7b58f0bd": {
                            "nonce": "0x00",
                            "balance": "0x0de0b6b3a76586a0",
                            "code": "0x7f5e20a0453cecd065ea59c37ac63e079ee08998b6045136a8ce6635c7912ec0b660005260206000600060007341f9f8ef69a117fa90e7a80becd2679c7b58efbd61c350fa5060005160005500",
                            "storage": {
                                "0x00": "0x5e20a0453cecd065ea59c37ac63e079ee08998b6045136a8ce6635c7912ec0b6"
                            }
                        },
                        "0x1bea514d6f2ce19c241a04f6419329b93689eed7": {
                            "nonce": "0x01",
                            "balance": "0x0de0b6b3a753dd7e",
                            "code": "0x",
                            "storage": {}
                        }
                    }
                }
            ]
        },
        "config": {
            "blobSchedule": {
                "Cancun": {
                    "target": "0x03",
                    "max": "0x06",
                    "baseFeeUpdateFraction": "0x32f0ed"
                }
            },
            "chainid": "0x01"
        },
        "_info": {
            "hash": "0xa64a9518c6fee34b83c99f4464adef91eaceff2ea0cfaa2e1d90426dc6a93e9f",
            "comment": "`execution-spec-tests` generated test",
            "filling-transition-tool": "ethereum-spec-evm-resolver 0.0.5",
            "description": "No description available - add a docstring to the python test class or function.",
            "url": "",
            "fixture-format": "state_test",
            "eels-resolution": {
                "git-url": "https://github.com/ethereum/execution-specs.git",
                "branch": "forks/bpos",
                "commit": "7aacb2c54111391af5e98c505d5010b5698a770f"
            }
        }
    },
    "tests/static/state_tests/stStaticCall/static_callOutput3FailFiller.json::static_callOutput3Fail[fork_Osaka-state_test-]": {
        "env": {
            "currentCoinbase": "0x2adc25665018aa1fe0e6bc666dac8fc2697ff9ba",
            "currentGasLimit": "0x0f4240",
            "currentNumber": "0x01",
            "currentTimestamp": "0x03e8",
            "currentRandom": "0x0000000000000000000000000000000000000000000000000000000000020000",
            "currentDifficulty": "0x00",
            "currentBaseFee": "0x0a",
            "currentExcessBlobGas": "0x00"
        },
        "pre": {
            "0x41f9f8ef69a117fa90e7a80becd2679c7b58efbd": {
                "nonce": "0x00",
                "balance": "0x0de0b6b3a7640000",
                "code": "0x016001600101600055",
                "storage": {}
            },
            "0x41f9f8ef69a117fa90e7a80becd2679c7b58f0bd": {
                "nonce": "0x00",
                "balance": "0x0de0b6b3a7640000",
                "code": "0x7f5e20a0453cecd065ea59c37ac63e079ee08998b6045136a8ce6635c7912ec0b660005260206000600060007341f9f8ef69a117fa90e7a80becd2679c7b58efbd61c350fa5060005160005500",
                "storage": {}
            },
            "0x1bea514d6f2ce19c241a04f6419329b93689eed7": {
                "nonce": "0x00",
                "balance": "0x0de0b6b3a7640000",
                "code": "0x",
                "storage": {}
            }
        },
        "transaction": {
            "nonce": "0x00",
            "gasPrice": "0x0a",
            "gasLimit": [
                "0x0f4240"
            ],
            "to": "0x41f9f8ef69a117fa90e7a80becd2679c7b58f0bd",
            "value": [
                "0x0186a0"
            ],
            "data": [
                "0x"
            ],
            "sender": "0x1bea514d6f2ce19c241a04f6419329b93689eed7",
            "secretKey": "0xa2fc30ba2b68145c25289b5441f9f8ef69a117fa90e7a80becd2679c7b58efbd"
        },
        "post": {
            "Osaka": [
                {
                    "hash": "0x0b6469bcb07684c784e7c3a2427fcca9e82b86efd0e919c8966616b0f4542e2d",
                    "logs": "0x1dcc4de8dec75d7aab85b567b6ccd41ad312451b948a7413f0a142fd40d49347",
                    "txbytes": "0xf863800a830f42409441f9f8ef69a117fa90e7a80becd2679c7b58f0bd830186a08025a033b94fd70da93a93207fb9fe8fa70d7e6f24fa321b51b34bf66dbf159f091a72a0325567f0e99761f59e2e44633bd5ea1d08eda30068c284d0dd630e33ca2a662b",
                    "indexes": {
                        "data": 0,
                        "gas": 0,
                        "value": 0
                    },
                    "state": {
                        "0x41f9f8ef69a117fa90e7a80becd2679c7b58efbd": {
                            "nonce": "0x00",
                            "balance": "0x0de0b6b3a7640000",
                            "code": "0x016001600101600055",
                            "storage": {}
                        },
                        "0x41f9f8ef69a117fa90e7a80becd2679c7b58f0bd": {
                            "nonce": "0x00",
                            "balance": "0x0de0b6b3a76586a0",
                            "code": "0x7f5e20a0453cecd065ea59c37ac63e079ee08998b6045136a8ce6635c7912ec0b660005260206000600060007341f9f8ef69a117fa90e7a80becd2679c7b58efbd61c350fa5060005160005500",
                            "storage": {
                                "0x00": "0x5e20a0453cecd065ea59c37ac63e079ee08998b6045136a8ce6635c7912ec0b6"
                            }
                        },
                        "0x1bea514d6f2ce19c241a04f6419329b93689eed7": {
                            "nonce": "0x01",
                            "balance": "0x0de0b6b3a753dd7e",
                            "code": "0x",
                            "storage": {}
                        }
                    }
                }
            ]
        },
        "config": {
            "blobSchedule": {
                "Cancun": {
                    "target": "0x03",
                    "max": "0x06",
                    "baseFeeUpdateFraction": "0x32f0ed"
                },
                "Prague": {
                    "target": "0x06",
                    "max": "0x09",
                    "baseFeeUpdateFraction": "0x4c6964"
                },
                "Osaka": {
                    "target": "0x06",
                    "max": "0x09",
                    "baseFeeUpdateFraction": "0x4c6964"
                }
            },
            "chainid": "0x01"
        },
        "_info": {
            "hash": "0xfb1e6ec74f9a58f3c5b23c62c88d16bbf7a2b12170a23cb633fd0e7aacf64f9b",
            "comment": "`execution-spec-tests` generated test",
            "filling-transition-tool": "ethereum-spec-evm-resolver 0.0.5",
            "description": "No description available - add a docstring to the python test class or function.",
            "url": "",
            "fixture-format": "state_test",
            "eels-resolution": {
                "git-url": "https://github.com/ethereum/execution-specs.git",
                "branch": "forks/bpos",
                "commit": "7aacb2c54111391af5e98c505d5010b5698a770f"
            }
        }
    },
    "tests/static/state_tests/stStaticCall/static_callOutput3FailFiller.json::static_callOutput3Fail[fork_Prague-state_test-]": {
        "env": {
            "currentCoinbase": "0x2adc25665018aa1fe0e6bc666dac8fc2697ff9ba",
            "currentGasLimit": "0x0f4240",
            "currentNumber": "0x01",
            "currentTimestamp": "0x03e8",
            "currentRandom": "0x0000000000000000000000000000000000000000000000000000000000020000",
            "currentDifficulty": "0x00",
            "currentBaseFee": "0x0a",
            "currentExcessBlobGas": "0x00"
        },
        "pre": {
            "0x41f9f8ef69a117fa90e7a80becd2679c7b58efbd": {
                "nonce": "0x00",
                "balance": "0x0de0b6b3a7640000",
                "code": "0x016001600101600055",
                "storage": {}
            },
            "0x41f9f8ef69a117fa90e7a80becd2679c7b58f0bd": {
                "nonce": "0x00",
                "balance": "0x0de0b6b3a7640000",
                "code": "0x7f5e20a0453cecd065ea59c37ac63e079ee08998b6045136a8ce6635c7912ec0b660005260206000600060007341f9f8ef69a117fa90e7a80becd2679c7b58efbd61c350fa5060005160005500",
                "storage": {}
            },
            "0x1bea514d6f2ce19c241a04f6419329b93689eed7": {
                "nonce": "0x00",
                "balance": "0x0de0b6b3a7640000",
                "code": "0x",
                "storage": {}
            }
        },
        "transaction": {
            "nonce": "0x00",
            "gasPrice": "0x0a",
            "gasLimit": [
                "0x0f4240"
            ],
            "to": "0x41f9f8ef69a117fa90e7a80becd2679c7b58f0bd",
            "value": [
                "0x0186a0"
            ],
            "data": [
                "0x"
            ],
            "sender": "0x1bea514d6f2ce19c241a04f6419329b93689eed7",
            "secretKey": "0xa2fc30ba2b68145c25289b5441f9f8ef69a117fa90e7a80becd2679c7b58efbd"
        },
        "post": {
            "Prague": [
                {
                    "hash": "0x0b6469bcb07684c784e7c3a2427fcca9e82b86efd0e919c8966616b0f4542e2d",
                    "logs": "0x1dcc4de8dec75d7aab85b567b6ccd41ad312451b948a7413f0a142fd40d49347",
                    "txbytes": "0xf863800a830f42409441f9f8ef69a117fa90e7a80becd2679c7b58f0bd830186a08025a033b94fd70da93a93207fb9fe8fa70d7e6f24fa321b51b34bf66dbf159f091a72a0325567f0e99761f59e2e44633bd5ea1d08eda30068c284d0dd630e33ca2a662b",
                    "indexes": {
                        "data": 0,
                        "gas": 0,
                        "value": 0
                    },
                    "state": {
                        "0x41f9f8ef69a117fa90e7a80becd2679c7b58efbd": {
                            "nonce": "0x00",
                            "balance": "0x0de0b6b3a7640000",
                            "code": "0x016001600101600055",
                            "storage": {}
                        },
                        "0x41f9f8ef69a117fa90e7a80becd2679c7b58f0bd": {
                            "nonce": "0x00",
                            "balance": "0x0de0b6b3a76586a0",
                            "code": "0x7f5e20a0453cecd065ea59c37ac63e079ee08998b6045136a8ce6635c7912ec0b660005260206000600060007341f9f8ef69a117fa90e7a80becd2679c7b58efbd61c350fa5060005160005500",
                            "storage": {
                                "0x00": "0x5e20a0453cecd065ea59c37ac63e079ee08998b6045136a8ce6635c7912ec0b6"
                            }
                        },
                        "0x1bea514d6f2ce19c241a04f6419329b93689eed7": {
                            "nonce": "0x01",
                            "balance": "0x0de0b6b3a753dd7e",
                            "code": "0x",
                            "storage": {}
                        }
                    }
                }
            ]
        },
        "config": {
            "blobSchedule": {
                "Cancun": {
                    "target": "0x03",
                    "max": "0x06",
                    "baseFeeUpdateFraction": "0x32f0ed"
                },
                "Prague": {
                    "target": "0x06",
                    "max": "0x09",
                    "baseFeeUpdateFraction": "0x4c6964"
                }
            },
            "chainid": "0x01"
        },
        "_info": {
            "hash": "0xbf50af6897ca56e93e4280f8c192e38f589cb4c387db9912a06a18059979f7b5",
            "comment": "`execution-spec-tests` generated test",
            "filling-transition-tool": "ethereum-spec-evm-resolver 0.0.5",
            "description": "No description available - add a docstring to the python test class or function.",
            "url": "",
            "fixture-format": "state_test",
            "eels-resolution": {
                "git-url": "https://github.com/ethereum/execution-specs.git",
                "branch": "forks/bpos",
                "commit": "7aacb2c54111391af5e98c505d5010b5698a770f"
            }
        }
    }
}