{
    "tests/static/state_tests/stStaticCall/static_call_OOG_additionalGasCosts2_ParisFiller.json::static_call_OOG_additionalGasCosts2_Paris[fork_Cancun-state_test-]": {
        "env": {
            "currentCoinbase": "0x2adc25665018aa1fe0e6bc666dac8fc2697ff9ba",
            "currentGasLimit": "0xb2d05e00",
            "currentNumber": "0x01",
            "currentTimestamp": "0x03e8",
            "currentRandom": "0x0000000000000000000000000000000000000000000000000000000000020000",
            "currentDifficulty": "0x00",
            "currentBaseFee": "0x0a",
            "currentExcessBlobGas": "0x00"
        },
        "pre": {
            "0xe5be0164e4fa32bd9e2b3ab7872a1b10bf40c1f2": {
                "nonce": "0x00",
                "balance": "0x0de0b6b3a7640000",
                "code": "0x",
                "storage": {}
            },
            "0xc4788b1c631e158449671705c2157afaebd6c054": {
                "nonce": "0x00",
                "balance": "0x0a",
                "code": "0x",
                "storage": {}
            },
            "0x20fe4593cd407b4be676ac9c354a9f17bbfbfdb1": {
                "nonce": "0x00",
                "balance": "0x0de0b6b3a7640000",
                "code": "0x604060006040600073c4788b1c631e158449671705c2157afaebd6c054611770fa6000555a60015500",
                "storage": {}
            }
        },
        "transaction": {
            "nonce": "0x00",
            "gasPrice": "0x0a",
            "gasLimit": [
                "0x7530"
            ],
            "to": "0x20fe4593cd407b4be676ac9c354a9f17bbfbfdb1",
            "value": [
                "0x00"
            ],
            "data": [
                "0x"
            ],
            "sender": "0xe5be0164e4fa32bd9e2b3ab7872a1b10bf40c1f2",
            "secretKey": "0xa6f1a9f7d37e420503b20a3d20fe4593cd407b4be676ac9c354a9f17bbfbfdb1"
        },
        "post": {
            "Cancun": [
                {
                    "hash": "0xf6ab26bbc8ee8de0b3764b24d2e8933edd3ca989aeec55ec55ae1a3da9cb34c0",
                    "logs": "0x1dcc4de8dec75d7aab85b567b6ccd41ad312451b948a7413f0a142fd40d49347",
                    "txbytes": "0xf85f800a8275309420fe4593cd407b4be676ac9c354a9f17bbfbfdb1808026a0c28ec197270162901ac1db838c96592b79d59044bb28fa91ee8b68cde3e90128a03ccb1064788f83c753388c821795acea951b133ab4094917f79e4ab66ccc8062",
                    "indexes": {
                        "data": 0,
                        "gas": 0,
                        "value": 0
                    },
                    "state": {
                        "0xe5be0164e4fa32bd9e2b3ab7872a1b10bf40c1f2": {
                            "nonce": "0x01",
                            "balance": "0x0de0b6b3a75f6c20",
                            "code": "0x",
                            "storage": {}
                        },
                        "0xc4788b1c631e158449671705c2157afaebd6c054": {
                            "nonce": "0x00",
                            "balance": "0x0a",
                            "code": "0x",
                            "storage": {}
                        },
                        "0x20fe4593cd407b4be676ac9c354a9f17bbfbfdb1": {
                            "nonce": "0x00",
                            "balance": "0x0de0b6b3a7640000",
                            "code": "0x604060006040600073c4788b1c631e158449671705c2157afaebd6c054611770fa6000555a60015500",
                            "storage": {}
                        }
                    }
                }
            ]
        },
        "config": {
            "blobSchedule": {
                "Cancun": {
                    "target": "0x03",
                    "max": "0x06",
                    "baseFeeUpdateFraction": "0x32f0ed"
                }
            },
            "chainid": "0x01"
        },
        "_info": {
            "hash": "0x2206a9b0931a7c70d0be4cc47197bdc8be80970dc526ebdce55c552b97e1bc15",
            "comment": "`execution-spec-tests` generated test",
            "filling-transition-tool": "ethereum-spec-evm-resolver 0.0.5",
            "description": "No description available - add a docstring to the python test class or function.",
            "url": "",
            "fixture-format": "state_test",
            "eels-resolution": {
                "git-url": "https://github.com/ethereum/execution-specs.git",
                "branch": "forks/bpos",
                "commit": "7aacb2c54111391af5e98c505d5010b5698a770f"
            }
        }
    },
    "tests/static/state_tests/stStaticCall/static_call_OOG_additionalGasCosts2_ParisFiller.json::static_call_OOG_additionalGasCosts2_Paris[fork_Osaka-state_test-]": {
        "env": {
            "currentCoinbase": "0x2adc25665018aa1fe0e6bc666dac8fc2697ff9ba",
            "currentGasLimit": "0xb2d05e00",
            "currentNumber": "0x01",
            "currentTimestamp": "0x03e8",
            "currentRandom": "0x0000000000000000000000000000000000000000000000000000000000020000",
            "currentDifficulty": "0x00",
            "currentBaseFee": "0x0a",
            "currentExcessBlobGas": "0x00"
        },
        "pre": {
            "0xe5be0164e4fa32bd9e2b3ab7872a1b10bf40c1f2": {
                "nonce": "0x00",
                "balance": "0x0de0b6b3a7640000",
                "code": "0x",
                "storage": {}
            },
            "0xc4788b1c631e158449671705c2157afaebd6c054": {
                "nonce": "0x00",
                "balance": "0x0a",
                "code": "0x",
                "storage": {}
            },
            "0x20fe4593cd407b4be676ac9c354a9f17bbfbfdb1": {
                "nonce": "0x00",
                "balance": "0x0de0b6b3a7640000",
                "code": "0x604060006040600073c4788b1c631e158449671705c2157afaebd6c054611770fa6000555a60015500",
                "storage": {}
            }
        },
        "transaction": {
            "nonce": "0x00",
            "gasPrice": "0x0a",
            "gasLimit": [
                "0x7530"
            ],
            "to": "0x20fe4593cd407b4be676ac9c354a9f17bbfbfdb1",
            "value": [
                "0x00"
            ],
            "data": [
                "0x"
            ],
            "sender": "0xe5be0164e4fa32bd9e2b3ab7872a1b10bf40c1f2",
            "secretKey": "0xa6f1a9f7d37e420503b20a3d20fe4593cd407b4be676ac9c354a9f17bbfbfdb1"
        },
        "post": {
            "Osaka": [
                {
                    "hash": "0xf6ab26bbc8ee8de0b3764b24d2e8933edd3ca989aeec55ec55ae1a3da9cb34c0",
                    "logs": "0x1dcc4de8dec75d7aab85b567b6ccd41ad312451b948a7413f0a142fd40d49347",
                    "txbytes": "0xf85f800a8275309420fe4593cd407b4be676ac9c354a9f17bbfbfdb1808026a0c28ec197270162901ac1db838c96592b79d59044bb28fa91ee8b68cde3e90128a03ccb1064788f83c753388c821795acea951b133ab4094917f79e4ab66ccc8062",
                    "indexes": {
                        "data": 0,
                        "gas": 0,
                        "value": 0
                    },
                    "state": {
                        "0xe5be0164e4fa32bd9e2b3ab7872a1b10bf40c1f2": {
                            "nonce": "0x01",
                            "balance": "0x0de0b6b3a75f6c20",
                            "code": "0x",
                            "storage": {}
                        },
                        "0xc4788b1c631e158449671705c2157afaebd6c054": {
                            "nonce": "0x00",
                            "balance": "0x0a",
                            "code": "0x",
                            "storage": {}
                        },
                        "0x20fe4593cd407b4be676ac9c354a9f17bbfbfdb1": {
                            "nonce": "0x00",
                            "balance": "0x0de0b6b3a7640000",
                            "code": "0x604060006040600073c4788b1c631e158449671705c2157afaebd6c054611770fa6000555a60015500",
                            "storage": {}
                        }
                    }
                }
            ]
        },
        "config": {
            "blobSchedule": {
                "Cancun": {
                    "target": "0x03",
                    "max": "0x06",
                    "baseFeeUpdateFraction": "0x32f0ed"
                },
                "Prague": {
                    "target": "0x06",
                    "max": "0x09",
                    "baseFeeUpdateFraction": "0x4c6964"
                },
                "Osaka": {
                    "target": "0x06",
                    "max": "0x09",
                    "baseFeeUpdateFraction": "0x4c6964"
                }
            },
            "chainid": "0x01"
        },
        "_info": {
            "hash": "0x5bf9cc6ffd29a159a7d4e6db2c78142f181b03eca932bbae25da1228d0bd7717",
            "comment": "`execution-spec-tests` generated test",
            "filling-transition-tool": "ethereum-spec-evm-resolver 0.0.5",
            "description": "No description available - add a docstring to the python test class or function.",
            "url": "",
            "fixture-format": "state_test",
            "eels-resolution": {
                "git-url": "https://github.com/ethereum/execution-specs.git",
                "branch": "forks/bpos",
                "commit": "7aacb2c54111391af5e98c505d5010b5698a770f"
            }
        }
    },
    "tests/static/state_tests/stStaticCall/static_call_OOG_additionalGasCosts2_ParisFiller.json::static_call_OOG_additionalGasCosts2_Paris[fork_Prague-state_test-]": {
        "env": {
            "currentCoinbase": "0x2adc25665018aa1fe0e6bc666dac8fc2697ff9ba",
            "currentGasLimit": "0xb2d05e00",
            "currentNumber": "0x01",
            "currentTimestamp": "0x03e8",
            "currentRandom": "0x0000000000000000000000000000000000000000000000000000000000020000",
            "currentDifficulty": "0x00",
            "currentBaseFee": "0x0a",
            "currentExcessBlobGas": "0x00"
        },
        "pre": {
            "0xe5be0164e4fa32bd9e2b3ab7872a1b10bf40c1f2": {
                "nonce": "0x00",
                "balance": "0x0de0b6b3a7640000",
                "code": "0x",
                "storage": {}
            },
            "0xc4788b1c631e158449671705c2157afaebd6c054": {
                "nonce": "0x00",
                "balance": "0x0a",
                "code": "0x",
                "storage": {}
            },
            "0x20fe4593cd407b4be676ac9c354a9f17bbfbfdb1": {
                "nonce": "0x00",
                "balance": "0x0de0b6b3a7640000",
                "code": "0x604060006040600073c4788b1c631e158449671705c2157afaebd6c054611770fa6000555a60015500",
                "storage": {}
            }
        },
        "transaction": {
            "nonce": "0x00",
            "gasPrice": "0x0a",
            "gasLimit": [
                "0x7530"
            ],
            "to": "0x20fe4593cd407b4be676ac9c354a9f17bbfbfdb1",
            "value": [
                "0x00"
            ],
            "data": [
                "0x"
            ],
            "sender": "0xe5be0164e4fa32bd9e2b3ab7872a1b10bf40c1f2",
            "secretKey": "0xa6f1a9f7d37e420503b20a3d20fe4593cd407b4be676ac9c354a9f17bbfbfdb1"
        },
        "post": {
            "Prague": [
                {
                    "hash": "0xf6ab26bbc8ee8de0b3764b24d2e8933edd3ca989aeec55ec55ae1a3da9cb34c0",
                    "logs": "0x1dcc4de8dec75d7aab85b567b6ccd41ad312451b948a7413f0a142fd40d49347",
                    "txbytes": "0xf85f800a8275309420fe4593cd407b4be676ac9c354a9f17bbfbfdb1808026a0c28ec197270162901ac1db838c96592b79d59044bb28fa91ee8b68cde3e90128a03ccb1064788f83c753388c821795acea951b133ab4094917f79e4ab66ccc8062",
                    "indexes": {
                        "data": 0,
                        "gas": 0,
                        "value": 0
                    },
                    "state": {
                        "0xe5be0164e4fa32bd9e2b3ab7872a1b10bf40c1f2": {
                            "nonce": "0x01",
                            "balance": "0x0de0b6b3a75f6c20",
                            "code": "0x",
                            "storage": {}
                        },
                        "0xc4788b1c631e158449671705c2157afaebd6c054": {
                            "nonce": "0x00",
                            "balance": "0x0a",
                            "code": "0x",
                            "storage": {}
                        },
                        "0x20fe4593cd407b4be676ac9c354a9f17bbfbfdb1": {
                            "nonce": "0x00",
                            "balance": "0x0de0b6b3a7640000",
                            "code": "0x604060006040600073c4788b1c631e158449671705c2157afaebd6c054611770fa6000555a60015500",
                            "storage": {}
                        }
                    }
                }
            ]
        },
        "config": {
            "blobSchedule": {
                "Cancun": {
                    "target": "0x03",
                    "max": "0x06",
                    "baseFeeUpdateFraction": "0x32f0ed"
                },
                "Prague": {
                    "target": "0x06",
                    "max": "0x09",
                    "baseFeeUpdateFraction": "0x4c6964"
                }
            },
            "chainid": "0x01"
        },
        "_info": {
            "hash": "0xa5a61e9286fea091155116f429f4d91003e9160842a7b1a9949e3d2dd89762c6",
            "comment": "`execution-spec-tests` generated test",
            "filling-transition-tool": "ethereum-spec-evm-resolver 0.0.5",
            "description": "No description available - add a docstring to the python test class or function.",
            "url": "",
            "fixture-format": "state_test",
            "eels-resolution": {
                "git-url": "https://github.com/ethereum/execution-specs.git",
                "branch": "forks/bpos",
                "commit": "7aacb2c54111391af5e98c505d5010b5698a770f"
            }
        }
    }
}