{
    "tests/static/state_tests/stStaticCall/static_CallEcrecover0_Gas2999Filler.json::static_CallEcrecover0_Gas2999[fork_Cancun-state_test-]": {
        "env": {
            "currentCoinbase": "0x2adc25665018aa1fe0e6bc666dac8fc2697ff9ba",
            "currentGasLimit": "0x989680",
            "currentNumber": "0x01",
            "currentTimestamp": "0x03e8",
            "currentRandom": "0x0000000000000000000000000000000000000000000000000000000000020000",
            "currentDifficulty": "0x00",
            "currentBaseFee": "0x0a",
            "currentExcessBlobGas": "0x00"
        },
        "pre": {
            "0x505e5165208ac1a5f2bf065f3d96882ec6b29c2d": {
                "nonce": "0x00",
                "balance": "0x0de0b6b3a7640000",
                "code": "0x",
                "storage": {}
            },
            "0xf717622f0abb7c81e1d0df3c48abc2743af3ac50": {
                "nonce": "0x00",
                "balance": "0x01312d00",
                "code": "0x7f18c547e4f7b0f325ad1e56f57e26c745b09a3e503d86e00e5255ff7f715d3d1c600052601c6020527f73b1693892219d736caba55bdb67216e485557ea6b6af75f37096c9aa6a5a75f6040527feeb940b1d03b21e36b0e47e79769f095fe2ab855bd91e3a38756b7d75a9c454960605260206080608060006001610bb7fa60025560a060020a60805106600055600054321460015500",
                "storage": {}
            }
        },
        "transaction": {
            "nonce": "0x00",
            "gasPrice": "0x0a",
            "gasLimit": [
                "0x0592a8"
            ],
            "to": "0xf717622f0abb7c81e1d0df3c48abc2743af3ac50",
            "value": [
                "0x0186a0"
            ],
            "data": [
                "0x"
            ],
            "sender": "0x505e5165208ac1a5f2bf065f3d96882ec6b29c2d",
            "secretKey": "0x58f801b94815c0fffd2aa233f717622f0abb7c81e1d0df3c48abc2743af3ac50"
        },
        "post": {
            "Cancun": [
                {
                    "hash": "0x3b3e45e5570bd1eabbb5f435f4e9aaf19db036120e77f3a9b3fb488f2a4f252a",
                    "logs": "0x1dcc4de8dec75d7aab85b567b6ccd41ad312451b948a7413f0a142fd40d49347",
                    "txbytes": "0xf863800a830592a894f717622f0abb7c81e1d0df3c48abc2743af3ac50830186a08026a0730256ff6a63fe1365dc8e63bb14126be948dae641dd389febec6c50d1fc1fa7a003e5badbdbd4026c15c5acb62525dc004f74ba96c03a287efde6d5a97d450752",
                    "indexes": {
                        "data": 0,
                        "gas": 0,
                        "value": 0
                    },
                    "state": {
                        "0x505e5165208ac1a5f2bf065f3d96882ec6b29c2d": {
                            "nonce": "0x01",
                            "balance": "0x0de0b6b3a75dbfec",
                            "code": "0x",
                            "storage": {}
                        },
                        "0xf717622f0abb7c81e1d0df3c48abc2743af3ac50": {
                            "nonce": "0x00",
                            "balance": "0x0132b3a0",
                            "code": "0x7f18c547e4f7b0f325ad1e56f57e26c745b09a3e503d86e00e5255ff7f715d3d1c600052601c6020527f73b1693892219d736caba55bdb67216e485557ea6b6af75f37096c9aa6a5a75f6040527feeb940b1d03b21e36b0e47e79769f095fe2ab855bd91e3a38756b7d75a9c454960605260206080608060006001610bb7fa60025560a060020a60805106600055600054321460015500",
                            "storage": {}
                        }
                    }
                }
            ]
        },
        "config": {
            "blobSchedule": {
                "Cancun": {
                    "target": "0x03",
                    "max": "0x06",
                    "baseFeeUpdateFraction": "0x32f0ed"
                }
            },
            "chainid": "0x01"
        },
        "_info": {
            "hash": "0xcafda344bd52a8e4397fd00138e90ff879f3a7278158b501ab322f73478b005e",
            "comment": "`execution-specs` generated test",
            "filling-transition-tool": "2.18.0rc6",
            "description": "No description available - add a docstring to the python test class or function.",
            "url": "",
            "fixture-format": "state_test"
        }
    },
    "tests/static/state_tests/stStaticCall/static_CallEcrecover0_Gas2999Filler.json::static_CallEcrecover0_Gas2999[fork_Osaka-state_test-]": {
        "env": {
            "currentCoinbase": "0x2adc25665018aa1fe0e6bc666dac8fc2697ff9ba",
            "currentGasLimit": "0x989680",
            "currentNumber": "0x01",
            "currentTimestamp": "0x03e8",
            "currentRandom": "0x0000000000000000000000000000000000000000000000000000000000020000",
            "currentDifficulty": "0x00",
            "currentBaseFee": "0x0a",
            "currentExcessBlobGas": "0x00"
        },
        "pre": {
            "0x505e5165208ac1a5f2bf065f3d96882ec6b29c2d": {
                "nonce": "0x00",
                "balance": "0x0de0b6b3a7640000",
                "code": "0x",
                "storage": {}
            },
            "0xf717622f0abb7c81e1d0df3c48abc2743af3ac50": {
                "nonce": "0x00",
                "balance": "0x01312d00",
                "code": "0x7f18c547e4f7b0f325ad1e56f57e26c745b09a3e503d86e00e5255ff7f715d3d1c600052601c6020527f73b1693892219d736caba55bdb67216e485557ea6b6af75f37096c9aa6a5a75f6040527feeb940b1d03b21e36b0e47e79769f095fe2ab855bd91e3a38756b7d75a9c454960605260206080608060006001610bb7fa60025560a060020a60805106600055600054321460015500",
                "storage": {}
            }
        },
        "transaction": {
            "nonce": "0x00",
            "gasPrice": "0x0a",
            "gasLimit": [
                "0x0592a8"
            ],
            "to": "0xf717622f0abb7c81e1d0df3c48abc2743af3ac50",
            "value": [
                "0x0186a0"
            ],
            "data": [
                "0x"
            ],
            "sender": "0x505e5165208ac1a5f2bf065f3d96882ec6b29c2d",
            "secretKey": "0x58f801b94815c0fffd2aa233f717622f0abb7c81e1d0df3c48abc2743af3ac50"
        },
        "post": {
            "Osaka": [
                {
                    "hash": "0x3b3e45e5570bd1eabbb5f435f4e9aaf19db036120e77f3a9b3fb488f2a4f252a",
                    "logs": "0x1dcc4de8dec75d7aab85b567b6ccd41ad312451b948a7413f0a142fd40d49347",
                    "txbytes": "0xf863800a830592a894f717622f0abb7c81e1d0df3c48abc2743af3ac50830186a08026a0730256ff6a63fe1365dc8e63bb14126be948dae641dd389febec6c50d1fc1fa7a003e5badbdbd4026c15c5acb62525dc004f74ba96c03a287efde6d5a97d450752",
                    "indexes": {
                        "data": 0,
                        "gas": 0,
                        "value": 0
                    },
                    "state": {
                        "0x505e5165208ac1a5f2bf065f3d96882ec6b29c2d": {
                            "nonce": "0x01",
                            "balance": "0x0de0b6b3a75dbfec",
                            "code": "0x",
                            "storage": {}
                        },
                        "0xf717622f0abb7c81e1d0df3c48abc2743af3ac50": {
                            "nonce": "0x00",
                            "balance": "0x0132b3a0",
                            "code": "0x7f18c547e4f7b0f325ad1e56f57e26c745b09a3e503d86e00e5255ff7f715d3d1c600052601c6020527f73b1693892219d736caba55bdb67216e485557ea6b6af75f37096c9aa6a5a75f6040527feeb940b1d03b21e36b0e47e79769f095fe2ab855bd91e3a38756b7d75a9c454960605260206080608060006001610bb7fa60025560a060020a60805106600055600054321460015500",
                            "storage": {}
                        }
                    }
                }
            ]
        },
        "config": {
            "blobSchedule": {
                "Cancun": {
                    "target": "0x03",
                    "max": "0x06",
                    "baseFeeUpdateFraction": "0x32f0ed"
                },
                "Prague": {
                    "target": "0x06",
                    "max": "0x09",
                    "baseFeeUpdateFraction": "0x4c6964"
                },
                "Osaka": {
                    "target": "0x06",
                    "max": "0x09",
                    "baseFeeUpdateFraction": "0x4c6964"
                }
            },
            "chainid": "0x01"
        },
        "_info": {
            "hash": "0x8b5298ba197f3c94817e522891cfc5fcf2a7e526332de788579355864460c8dd",
            "comment": "`execution-specs` generated test",
            "filling-transition-tool": "2.18.0rc6",
            "description": "No description available - add a docstring to the python test class or function.",
            "url": "",
            "fixture-format": "state_test"
        }
    },
    "tests/static/state_tests/stStaticCall/static_CallEcrecover0_Gas2999Filler.json::static_CallEcrecover0_Gas2999[fork_Prague-state_test-]": {
        "env": {
            "currentCoinbase": "0x2adc25665018aa1fe0e6bc666dac8fc2697ff9ba",
            "currentGasLimit": "0x989680",
            "currentNumber": "0x01",
            "currentTimestamp": "0x03e8",
            "currentRandom": "0x0000000000000000000000000000000000000000000000000000000000020000",
            "currentDifficulty": "0x00",
            "currentBaseFee": "0x0a",
            "currentExcessBlobGas": "0x00"
        },
        "pre": {
            "0x505e5165208ac1a5f2bf065f3d96882ec6b29c2d": {
                "nonce": "0x00",
                "balance": "0x0de0b6b3a7640000",
                "code": "0x",
                "storage": {}
            },
            "0xf717622f0abb7c81e1d0df3c48abc2743af3ac50": {
                "nonce": "0x00",
                "balance": "0x01312d00",
                "code": "0x7f18c547e4f7b0f325ad1e56f57e26c745b09a3e503d86e00e5255ff7f715d3d1c600052601c6020527f73b1693892219d736caba55bdb67216e485557ea6b6af75f37096c9aa6a5a75f6040527feeb940b1d03b21e36b0e47e79769f095fe2ab855bd91e3a38756b7d75a9c454960605260206080608060006001610bb7fa60025560a060020a60805106600055600054321460015500",
                "storage": {}
            }
        },
        "transaction": {
            "nonce": "0x00",
            "gasPrice": "0x0a",
            "gasLimit": [
                "0x0592a8"
            ],
            "to": "0xf717622f0abb7c81e1d0df3c48abc2743af3ac50",
            "value": [
                "0x0186a0"
            ],
            "data": [
                "0x"
            ],
            "sender": "0x505e5165208ac1a5f2bf065f3d96882ec6b29c2d",
            "secretKey": "0x58f801b94815c0fffd2aa233f717622f0abb7c81e1d0df3c48abc2743af3ac50"
        },
        "post": {
            "Prague": [
                {
                    "hash": "0x3b3e45e5570bd1eabbb5f435f4e9aaf19db036120e77f3a9b3fb488f2a4f252a",
                    "logs": "0x1dcc4de8dec75d7aab85b567b6ccd41ad312451b948a7413f0a142fd40d49347",
                    "txbytes": "0xf863800a830592a894f717622f0abb7c81e1d0df3c48abc2743af3ac50830186a08026a0730256ff6a63fe1365dc8e63bb14126be948dae641dd389febec6c50d1fc1fa7a003e5badbdbd4026c15c5acb62525dc004f74ba96c03a287efde6d5a97d450752",
                    "indexes": {
                        "data": 0,
                        "gas": 0,
                        "value": 0
                    },
                    "state": {
                        "0x505e5165208ac1a5f2bf065f3d96882ec6b29c2d": {
                            "nonce": "0x01",
                            "balance": "0x0de0b6b3a75dbfec",
                            "code": "0x",
                            "storage": {}
                        },
                        "0xf717622f0abb7c81e1d0df3c48abc2743af3ac50": {
                            "nonce": "0x00",
                            "balance": "0x0132b3a0",
                            "code": "0x7f18c547e4f7b0f325ad1e56f57e26c745b09a3e503d86e00e5255ff7f715d3d1c600052601c6020527f73b1693892219d736caba55bdb67216e485557ea6b6af75f37096c9aa6a5a75f6040527feeb940b1d03b21e36b0e47e79769f095fe2ab855bd91e3a38756b7d75a9c454960605260206080608060006001610bb7fa60025560a060020a60805106600055600054321460015500",
                            "storage": {}
                        }
                    }
                }
            ]
        },
        "config": {
            "blobSchedule": {
                "Cancun": {
                    "target": "0x03",
                    "max": "0x06",
                    "baseFeeUpdateFraction": "0x32f0ed"
                },
                "Prague": {
                    "target": "0x06",
                    "max": "0x09",
                    "baseFeeUpdateFraction": "0x4c6964"
                }
            },
            "chainid": "0x01"
        },
        "_info": {
            "hash": "0xf318d4f9f772881b636c16630597cbefc931ff19da0047022f18106100630dd3",
            "comment": "`execution-specs` generated test",
            "filling-transition-tool": "2.18.0rc6",
            "description": "No description available - add a docstring to the python test class or function.",
            "url": "",
            "fixture-format": "state_test"
        }
    }
}