{
    "tests/static/state_tests/stStaticCall/static_CallEcrecover1Filler.json::static_CallEcrecover1[fork_Cancun-state_test-]": {
        "env": {
            "currentCoinbase": "0x2adc25665018aa1fe0e6bc666dac8fc2697ff9ba",
            "currentGasLimit": "0x989680",
            "currentNumber": "0x01",
            "currentTimestamp": "0x03e8",
            "currentRandom": "0x0000000000000000000000000000000000000000000000000000000000020000",
            "currentDifficulty": "0x00",
            "currentBaseFee": "0x0a",
            "currentExcessBlobGas": "0x00"
        },
        "pre": {
            "0xc0d809762e81d6f0eb7e0d71435dbf50423a2488": {
                "nonce": "0x00",
                "balance": "0x0de0b6b3a7640000",
                "code": "0x",
                "storage": {}
            },
            "0x4d5cdd1363b5ad3269d68649d3a055b4aa74552c": {
                "nonce": "0x00",
                "balance": "0x01312d00",
                "code": "0x7f18c547e4f7b0f325ad1e56f57e26c745b09a3e503d86e00e5255ff7f715d3d1c60005260016020527f73b1693892219d736caba55bdb67216e485557ea6b6af75f37096c9aa6a5a75f6040527feeb940b1d03b21e36b0e47e79769f095fe2ab855bd91e3a38756b7d75a9c454960605260206080608060006001620186a0fa60025560a060020a60805106600055600054321460015500",
                "storage": {}
            }
        },
        "transaction": {
            "nonce": "0x00",
            "gasPrice": "0x0a",
            "gasLimit": [
                "0x0592a8"
            ],
            "to": "0x4d5cdd1363b5ad3269d68649d3a055b4aa74552c",
            "value": [
                "0x0186a0"
            ],
            "data": [
                "0x"
            ],
            "sender": "0xc0d809762e81d6f0eb7e0d71435dbf50423a2488",
            "secretKey": "0x9617b55d679f1eb0ad6c44a34d5cdd1363b5ad3269d68649d3a055b4aa74552c"
        },
        "post": {
            "Cancun": [
                {
                    "hash": "0xc7b42d00e8cd39a1ad5c7a4ec514f8b8ceb90ba3f9518bb9c62e4d435c256228",
                    "logs": "0x1dcc4de8dec75d7aab85b567b6ccd41ad312451b948a7413f0a142fd40d49347",
                    "txbytes": "0xf863800a830592a8944d5cdd1363b5ad3269d68649d3a055b4aa74552c830186a08026a05b7d26382e26c847d77dcfc355b55f1b0de522d7445675f6c8233bbca51876dba0795e371b5ad6299035389efc985f361ebdb9db2e54584ae42326817179dd8b55",
                    "indexes": {
                        "data": 0,
                        "gas": 0,
                        "value": 0
                    },
                    "state": {
                        "0xc0d809762e81d6f0eb7e0d71435dbf50423a2488": {
                            "nonce": "0x01",
                            "balance": "0x0de0b6b3a75ab68a",
                            "code": "0x",
                            "storage": {}
                        },
                        "0x4d5cdd1363b5ad3269d68649d3a055b4aa74552c": {
                            "nonce": "0x00",
                            "balance": "0x0132b3a0",
                            "code": "0x7f18c547e4f7b0f325ad1e56f57e26c745b09a3e503d86e00e5255ff7f715d3d1c60005260016020527f73b1693892219d736caba55bdb67216e485557ea6b6af75f37096c9aa6a5a75f6040527feeb940b1d03b21e36b0e47e79769f095fe2ab855bd91e3a38756b7d75a9c454960605260206080608060006001620186a0fa60025560a060020a60805106600055600054321460015500",
                            "storage": {
                                "0x02": "0x01"
                            }
                        }
                    }
                }
            ]
        },
        "config": {
            "blobSchedule": {
                "Cancun": {
                    "target": "0x03",
                    "max": "0x06",
                    "baseFeeUpdateFraction": "0x32f0ed"
                }
            },
            "chainid": "0x01"
        },
        "_info": {
            "hash": "0x586094dacdb79c8beb5c71ff4fc982dbae28afb76c25adb14fc85e79627ff36d",
            "comment": "`execution-spec-tests` generated test",
            "filling-transition-tool": "ethereum-spec-evm-resolver 0.0.5",
            "description": "No description available - add a docstring to the python test class or function.",
            "url": "",
            "fixture-format": "state_test",
            "eels-resolution": {
                "git-url": "https://github.com/ethereum/execution-specs.git",
                "branch": "forks/bpos",
                "commit": "7aacb2c54111391af5e98c505d5010b5698a770f"
            }
        }
    },
    "tests/static/state_tests/stStaticCall/static_CallEcrecover1Filler.json::static_CallEcrecover1[fork_Osaka-state_test-]": {
        "env": {
            "currentCoinbase": "0x2adc25665018aa1fe0e6bc666dac8fc2697ff9ba",
            "currentGasLimit": "0x989680",
            "currentNumber": "0x01",
            "currentTimestamp": "0x03e8",
            "currentRandom": "0x0000000000000000000000000000000000000000000000000000000000020000",
            "currentDifficulty": "0x00",
            "currentBaseFee": "0x0a",
            "currentExcessBlobGas": "0x00"
        },
        "pre": {
            "0xc0d809762e81d6f0eb7e0d71435dbf50423a2488": {
                "nonce": "0x00",
                "balance": "0x0de0b6b3a7640000",
                "code": "0x",
                "storage": {}
            },
            "0x4d5cdd1363b5ad3269d68649d3a055b4aa74552c": {
                "nonce": "0x00",
                "balance": "0x01312d00",
                "code": "0x7f18c547e4f7b0f325ad1e56f57e26c745b09a3e503d86e00e5255ff7f715d3d1c60005260016020527f73b1693892219d736caba55bdb67216e485557ea6b6af75f37096c9aa6a5a75f6040527feeb940b1d03b21e36b0e47e79769f095fe2ab855bd91e3a38756b7d75a9c454960605260206080608060006001620186a0fa60025560a060020a60805106600055600054321460015500",
                "storage": {}
            }
        },
        "transaction": {
            "nonce": "0x00",
            "gasPrice": "0x0a",
            "gasLimit": [
                "0x0592a8"
            ],
            "to": "0x4d5cdd1363b5ad3269d68649d3a055b4aa74552c",
            "value": [
                "0x0186a0"
            ],
            "data": [
                "0x"
            ],
            "sender": "0xc0d809762e81d6f0eb7e0d71435dbf50423a2488",
            "secretKey": "0x9617b55d679f1eb0ad6c44a34d5cdd1363b5ad3269d68649d3a055b4aa74552c"
        },
        "post": {
            "Osaka": [
                {
                    "hash": "0xc7b42d00e8cd39a1ad5c7a4ec514f8b8ceb90ba3f9518bb9c62e4d435c256228",
                    "logs": "0x1dcc4de8dec75d7aab85b567b6ccd41ad312451b948a7413f0a142fd40d49347",
                    "txbytes": "0xf863800a830592a8944d5cdd1363b5ad3269d68649d3a055b4aa74552c830186a08026a05b7d26382e26c847d77dcfc355b55f1b0de522d7445675f6c8233bbca51876dba0795e371b5ad6299035389efc985f361ebdb9db2e54584ae42326817179dd8b55",
                    "indexes": {
                        "data": 0,
                        "gas": 0,
                        "value": 0
                    },
                    "state": {
                        "0xc0d809762e81d6f0eb7e0d71435dbf50423a2488": {
                            "nonce": "0x01",
                            "balance": "0x0de0b6b3a75ab68a",
                            "code": "0x",
                            "storage": {}
                        },
                        "0x4d5cdd1363b5ad3269d68649d3a055b4aa74552c": {
                            "nonce": "0x00",
                            "balance": "0x0132b3a0",
                            "code": "0x7f18c547e4f7b0f325ad1e56f57e26c745b09a3e503d86e00e5255ff7f715d3d1c60005260016020527f73b1693892219d736caba55bdb67216e485557ea6b6af75f37096c9aa6a5a75f6040527feeb940b1d03b21e36b0e47e79769f095fe2ab855bd91e3a38756b7d75a9c454960605260206080608060006001620186a0fa60025560a060020a60805106600055600054321460015500",
                            "storage": {
                                "0x02": "0x01"
                            }
                        }
                    }
                }
            ]
        },
        "config": {
            "blobSchedule": {
                "Cancun": {
                    "target": "0x03",
                    "max": "0x06",
                    "baseFeeUpdateFraction": "0x32f0ed"
                },
                "Prague": {
                    "target": "0x06",
                    "max": "0x09",
                    "baseFeeUpdateFraction": "0x4c6964"
                },
                "Osaka": {
                    "target": "0x06",
                    "max": "0x09",
                    "baseFeeUpdateFraction": "0x4c6964"
                }
            },
            "chainid": "0x01"
        },
        "_info": {
            "hash": "0x6fd0f29f30a1d2fb52057b27e61ca515fff038ba490ada26df7d31ef7015731e",
            "comment": "`execution-spec-tests` generated test",
            "filling-transition-tool": "ethereum-spec-evm-resolver 0.0.5",
            "description": "No description available - add a docstring to the python test class or function.",
            "url": "",
            "fixture-format": "state_test",
            "eels-resolution": {
                "git-url": "https://github.com/ethereum/execution-specs.git",
                "branch": "forks/bpos",
                "commit": "7aacb2c54111391af5e98c505d5010b5698a770f"
            }
        }
    },
    "tests/static/state_tests/stStaticCall/static_CallEcrecover1Filler.json::static_CallEcrecover1[fork_Prague-state_test-]": {
        "env": {
            "currentCoinbase": "0x2adc25665018aa1fe0e6bc666dac8fc2697ff9ba",
            "currentGasLimit": "0x989680",
            "currentNumber": "0x01",
            "currentTimestamp": "0x03e8",
            "currentRandom": "0x0000000000000000000000000000000000000000000000000000000000020000",
            "currentDifficulty": "0x00",
            "currentBaseFee": "0x0a",
            "currentExcessBlobGas": "0x00"
        },
        "pre": {
            "0xc0d809762e81d6f0eb7e0d71435dbf50423a2488": {
                "nonce": "0x00",
                "balance": "0x0de0b6b3a7640000",
                "code": "0x",
                "storage": {}
            },
            "0x4d5cdd1363b5ad3269d68649d3a055b4aa74552c": {
                "nonce": "0x00",
                "balance": "0x01312d00",
                "code": "0x7f18c547e4f7b0f325ad1e56f57e26c745b09a3e503d86e00e5255ff7f715d3d1c60005260016020527f73b1693892219d736caba55bdb67216e485557ea6b6af75f37096c9aa6a5a75f6040527feeb940b1d03b21e36b0e47e79769f095fe2ab855bd91e3a38756b7d75a9c454960605260206080608060006001620186a0fa60025560a060020a60805106600055600054321460015500",
                "storage": {}
            }
        },
        "transaction": {
            "nonce": "0x00",
            "gasPrice": "0x0a",
            "gasLimit": [
                "0x0592a8"
            ],
            "to": "0x4d5cdd1363b5ad3269d68649d3a055b4aa74552c",
            "value": [
                "0x0186a0"
            ],
            "data": [
                "0x"
            ],
            "sender": "0xc0d809762e81d6f0eb7e0d71435dbf50423a2488",
            "secretKey": "0x9617b55d679f1eb0ad6c44a34d5cdd1363b5ad3269d68649d3a055b4aa74552c"
        },
        "post": {
            "Prague": [
                {
                    "hash": "0xc7b42d00e8cd39a1ad5c7a4ec514f8b8ceb90ba3f9518bb9c62e4d435c256228",
                    "logs": "0x1dcc4de8dec75d7aab85b567b6ccd41ad312451b948a7413f0a142fd40d49347",
                    "txbytes": "0xf863800a830592a8944d5cdd1363b5ad3269d68649d3a055b4aa74552c830186a08026a05b7d26382e26c847d77dcfc355b55f1b0de522d7445675f6c8233bbca51876dba0795e371b5ad6299035389efc985f361ebdb9db2e54584ae42326817179dd8b55",
                    "indexes": {
                        "data": 0,
                        "gas": 0,
                        "value": 0
                    },
                    "state": {
                        "0xc0d809762e81d6f0eb7e0d71435dbf50423a2488": {
                            "nonce": "0x01",
                            "balance": "0x0de0b6b3a75ab68a",
                            "code": "0x",
                            "storage": {}
                        },
                        "0x4d5cdd1363b5ad3269d68649d3a055b4aa74552c": {
                            "nonce": "0x00",
                            "balance": "0x0132b3a0",
                            "code": "0x7f18c547e4f7b0f325ad1e56f57e26c745b09a3e503d86e00e5255ff7f715d3d1c60005260016020527f73b1693892219d736caba55bdb67216e485557ea6b6af75f37096c9aa6a5a75f6040527feeb940b1d03b21e36b0e47e79769f095fe2ab855bd91e3a38756b7d75a9c454960605260206080608060006001620186a0fa60025560a060020a60805106600055600054321460015500",
                            "storage": {
                                "0x02": "0x01"
                            }
                        }
                    }
                }
            ]
        },
        "config": {
            "blobSchedule": {
                "Cancun": {
                    "target": "0x03",
                    "max": "0x06",
                    "baseFeeUpdateFraction": "0x32f0ed"
                },
                "Prague": {
                    "target": "0x06",
                    "max": "0x09",
                    "baseFeeUpdateFraction": "0x4c6964"
                }
            },
            "chainid": "0x01"
        },
        "_info": {
            "hash": "0x3244f815d91b9093b4dfd58d0bc47513f2121f83072cef0d3abef441951fff33",
            "comment": "`execution-spec-tests` generated test",
            "filling-transition-tool": "ethereum-spec-evm-resolver 0.0.5",
            "description": "No description available - add a docstring to the python test class or function.",
            "url": "",
            "fixture-format": "state_test",
            "eels-resolution": {
                "git-url": "https://github.com/ethereum/execution-specs.git",
                "branch": "forks/bpos",
                "commit": "7aacb2c54111391af5e98c505d5010b5698a770f"
            }
        }
    }
}