{
    "tests/ported_static/stCallDelegateCodesHomestead/test_callcodecallcode_11_ooge.py::test_callcodecallcode_11_ooge[fork_Cancun-blockchain_test_from_state_test]": {
        "network": "Cancun",
        "genesisBlockHeader": {
            "parentHash": "0x0000000000000000000000000000000000000000000000000000000000000000",
            "uncleHash": "0x1dcc4de8dec75d7aab85b567b6ccd41ad312451b948a7413f0a142fd40d49347",
            "coinbase": "0x0000000000000000000000000000000000000000",
            "stateRoot": "0xff0298c3b4ddbb1f5bb70e7629dddd293047d4fb73839c7127b0069295afedd3",
            "transactionsTrie": "0x56e81f171bcc55a6ff8345e692c0f86e5b48e01b996cadc001622fb5e363b421",
            "receiptTrie": "0x56e81f171bcc55a6ff8345e692c0f86e5b48e01b996cadc001622fb5e363b421",
            "bloom": "0x00000000000000000000000000000000000000000000000000000000000000000000000000000000000000000000000000000000000000000000000000000000000000000000000000000000000000000000000000000000000000000000000000000000000000000000000000000000000000000000000000000000000000000000000000000000000000000000000000000000000000000000000000000000000000000000000000000000000000000000000000000000000000000000000000000000000000000000000000000000000000000000000000000000000000000000000000000000000000000000000000000000000000000000000000000000",
            "difficulty": "0x00",
            "number": "0x00",
            "gasLimit": "0x01c9c380",
            "gasUsed": "0x00",
            "timestamp": "0x00",
            "extraData": "0x00",
            "mixHash": "0x0000000000000000000000000000000000000000000000000000000000000000",
            "nonce": "0x0000000000000000",
            "baseFeePerGas": "0x0b",
            "withdrawalsRoot": "0x56e81f171bcc55a6ff8345e692c0f86e5b48e01b996cadc001622fb5e363b421",
            "blobGasUsed": "0x00",
            "excessBlobGas": "0x00",
            "parentBeaconBlockRoot": "0x0000000000000000000000000000000000000000000000000000000000000000",
            "hash": "0x1e2e674e6a8ada0ee71b5029b1b11fffd1850a1a58cc25a02f09fb2f6af1ff67"
        },
        "pre": {
            "0x000f3df6d732807ef1319fb7b8bb8522d0beac02": {
                "nonce": "0x01",
                "balance": "0x00",
                "code": "0x3373fffffffffffffffffffffffffffffffffffffffe14604d57602036146024575f5ffd5b5f35801560495762001fff810690815414603c575f5ffd5b62001fff01545f5260205ff35b5f5ffd5b62001fff42064281555f359062001fff015500",
                "storage": {}
            },
            "0x0e7163a4a90126c4a13e52f48e84c74600e844da": {
                "nonce": "0x00",
                "balance": "0x0de0b6b3a7640000",
                "code": "0x604060006040600073ecb18a704984b0e051e46358d64ef7811f2945ba620c3500f460005500",
                "storage": {}
            },
            "0xecb18a704984b0e051e46358d64ef7811f2945ba": {
                "nonce": "0x00",
                "balance": "0x00",
                "code": "0x604060006040600073766b2cf0691f51029181fc511395b7ab71353a88620927c0f46001556001600b5500",
                "storage": {}
            },
            "0x766b2cf0691f51029181fc511395b7ab71353a88": {
                "nonce": "0x00",
                "balance": "0x00",
                "code": "0x6001600255622fffff60002000",
                "storage": {}
            },
            "0xebaf50debf10e08302fe4280c32df010463ca297": {
                "nonce": "0x00",
                "balance": "0x0de0b6b3a7640000",
                "code": "0x",
                "storage": {}
            }
        },
        "postState": {
            "0x000f3df6d732807ef1319fb7b8bb8522d0beac02": {
                "nonce": "0x01",
                "balance": "0x00",
                "code": "0x3373fffffffffffffffffffffffffffffffffffffffe14604d57602036146024575f5ffd5b5f35801560495762001fff810690815414603c575f5ffd5b62001fff01545f5260205ff35b5f5ffd5b62001fff42064281555f359062001fff015500",
                "storage": {
                    "0x03e8": "0x03e8"
                }
            },
            "0x0e7163a4a90126c4a13e52f48e84c74600e844da": {
                "nonce": "0x00",
                "balance": "0x0de0b6b3a7640000",
                "code": "0x604060006040600073ecb18a704984b0e051e46358d64ef7811f2945ba620c3500f460005500",
                "storage": {
                    "0x0b": "0x01",
                    "0x00": "0x01"
                }
            },
            "0xecb18a704984b0e051e46358d64ef7811f2945ba": {
                "nonce": "0x00",
                "balance": "0x00",
                "code": "0x604060006040600073766b2cf0691f51029181fc511395b7ab71353a88620927c0f46001556001600b5500",
                "storage": {}
            },
            "0x766b2cf0691f51029181fc511395b7ab71353a88": {
                "nonce": "0x00",
                "balance": "0x00",
                "code": "0x6001600255622fffff60002000",
                "storage": {}
            },
            "0xebaf50debf10e08302fe4280c32df010463ca297": {
                "nonce": "0x01",
                "balance": "0x0de0b6b3a6fd5c38",
                "code": "0x",
                "storage": {}
            }
        },
        "lastblockhash": "0xe90dcf7742085d8207a39549168d7ac63e1fe5bd3bdb410b0d4ed80e7927d894",
        "config": {
            "network": "Cancun",
            "chainid": "0x01",
            "blobSchedule": {
                "Cancun": {
                    "target": "0x03",
                    "max": "0x06",
                    "baseFeeUpdateFraction": "0x32f0ed"
                }
            }
        },
        "genesisRLP": "0xf9023cf90236a00000000000000000000000000000000000000000000000000000000000000000a01dcc4de8dec75d7aab85b567b6ccd41ad312451b948a7413f0a142fd40d49347940000000000000000000000000000000000000000a0ff0298c3b4ddbb1f5bb70e7629dddd293047d4fb73839c7127b0069295afedd3a056e81f171bcc55a6ff8345e692c0f86e5b48e01b996cadc001622fb5e363b421a056e81f171bcc55a6ff8345e692c0f86e5b48e01b996cadc001622fb5e363b421b901000000000000000000000000000000000000000000000000000000000000000000000000000000000000000000000000000000000000000000000000000000000000000000000000000000000000000000000000000000000000000000000000000000000000000000000000000000000000000000000000000000000000000000000000000000000000000000000000000000000000000000000000000000000000000000000000000000000000000000000000000000000000000000000000000000000000000000000000000000000000000000000000000000000000000000000000000000000000000000000000000000000000000000000000000000000080808401c9c380808000a000000000000000000000000000000000000000000000000000000000000000008800000000000000000ba056e81f171bcc55a6ff8345e692c0f86e5b48e01b996cadc001622fb5e363b4218080a00000000000000000000000000000000000000000000000000000000000000000c0c0c0",
        "blocks": [
            {
                "blockHeader": {
                    "parentHash": "0x1e2e674e6a8ada0ee71b5029b1b11fffd1850a1a58cc25a02f09fb2f6af1ff67",
                    "uncleHash": "0x1dcc4de8dec75d7aab85b567b6ccd41ad312451b948a7413f0a142fd40d49347",
                    "coinbase": "0x2adc25665018aa1fe0e6bc666dac8fc2697ff9ba",
                    "stateRoot": "0xf577e2bbc7439ab692281c5be809816a2f8d8662812ffac065a59ddd31ca511a",
                    "transactionsTrie": "0xd8c34b7ef63622bf4affa9954da008c8790e2d61508f33b719c906f3eca2ec7f",
                    "receiptTrie": "0x0e5d0047c961bd2726b32324a60cfd43109f7cb309f0aede9d69543be08d76cc",
                    "bloom": "0x00000000000000000000000000000000000000000000000000000000000000000000000000000000000000000000000000000000000000000000000000000000000000000000000000000000000000000000000000000000000000000000000000000000000000000000000000000000000000000000000000000000000000000000000000000000000000000000000000000000000000000000000000000000000000000000000000000000000000000000000000000000000000000000000000000000000000000000000000000000000000000000000000000000000000000000000000000000000000000000000000000000000000000000000000000000",
                    "difficulty": "0x00",
                    "number": "0x01",
                    "gasLimit": "0x01c9c380",
                    "gasUsed": "0x0a4394",
                    "timestamp": "0x03e8",
                    "extraData": "0x00",
                    "mixHash": "0x0000000000000000000000000000000000000000000000000000000000020000",
                    "nonce": "0x0000000000000000",
                    "baseFeePerGas": "0x0a",
                    "withdrawalsRoot": "0x56e81f171bcc55a6ff8345e692c0f86e5b48e01b996cadc001622fb5e363b421",
                    "blobGasUsed": "0x00",
                    "excessBlobGas": "0x00",
                    "parentBeaconBlockRoot": "0x0000000000000000000000000000000000000000000000000000000000000000",
                    "hash": "0xe90dcf7742085d8207a39549168d7ac63e1fe5bd3bdb410b0d4ed80e7927d894"
                },
                "transactions": [
                    {
                        "type": "0x00",
                        "chainId": "0x01",
                        "nonce": "0x00",
                        "gasPrice": "0x0a",
                        "gasLimit": "0x0f4240",
                        "to": "0x0e7163a4a90126c4a13e52f48e84c74600e844da",
                        "value": "0x00",
                        "data": "0x",
                        "v": "0x26",
                        "r": "0x33f3cfc4b17edd1b871b500915fdea69f50b3bcbfdff5da797d4e8feefcae0ae",
                        "s": "0x75a5bfa0f82c358ababea780693341579676002bc2bcfa0a422afb57e508b9ea",
                        "sender": "0xebaf50debf10e08302fe4280c32df010463ca297"
                    }
                ],
                "uncleHeaders": [],
                "withdrawals": [],
                "receipts": [
                    {
                        "transactionHash": "0x9f671fdf76ee72a0375c68b0db66c7172934c95c6feb2c8a2a34ff6482988b68",
                        "type": "0x00",
                        "cumulativeGasUsed": "0x0a4394",
                        "bloom": "0x00000000000000000000000000000000000000000000000000000000000000000000000000000000000000000000000000000000000000000000000000000000000000000000000000000000000000000000000000000000000000000000000000000000000000000000000000000000000000000000000000000000000000000000000000000000000000000000000000000000000000000000000000000000000000000000000000000000000000000000000000000000000000000000000000000000000000000000000000000000000000000000000000000000000000000000000000000000000000000000000000000000000000000000000000000000",
                        "logs": [],
                        "status": true,
                        "rlp": "0xf9010901830a4394b9010000000000000000000000000000000000000000000000000000000000000000000000000000000000000000000000000000000000000000000000000000000000000000000000000000000000000000000000000000000000000000000000000000000000000000000000000000000000000000000000000000000000000000000000000000000000000000000000000000000000000000000000000000000000000000000000000000000000000000000000000000000000000000000000000000000000000000000000000000000000000000000000000000000000000000000000000000000000000000000000000000000000000000000000000000000000c0"
                    }
                ],
                "rlp": "0xf902a4f9023ba01e2e674e6a8ada0ee71b5029b1b11fffd1850a1a58cc25a02f09fb2f6af1ff67a01dcc4de8dec75d7aab85b567b6ccd41ad312451b948a7413f0a142fd40d49347942adc25665018aa1fe0e6bc666dac8fc2697ff9baa0f577e2bbc7439ab692281c5be809816a2f8d8662812ffac065a59ddd31ca511aa0d8c34b7ef63622bf4affa9954da008c8790e2d61508f33b719c906f3eca2ec7fa00e5d0047c961bd2726b32324a60cfd43109f7cb309f0aede9d69543be08d76ccb901000000000000000000000000000000000000000000000000000000000000000000000000000000000000000000000000000000000000000000000000000000000000000000000000000000000000000000000000000000000000000000000000000000000000000000000000000000000000000000000000000000000000000000000000000000000000000000000000000000000000000000000000000000000000000000000000000000000000000000000000000000000000000000000000000000000000000000000000000000000000000000000000000000000000000000000000000000000000000000000000000000000000000000000000000000000080018401c9c380830a43948203e800a000000000000000000000000000000000000000000000000000000000000200008800000000000000000aa056e81f171bcc55a6ff8345e692c0f86e5b48e01b996cadc001622fb5e363b4218080a00000000000000000000000000000000000000000000000000000000000000000f862f860800a830f4240940e7163a4a90126c4a13e52f48e84c74600e844da808026a033f3cfc4b17edd1b871b500915fdea69f50b3bcbfdff5da797d4e8feefcae0aea075a5bfa0f82c358ababea780693341579676002bc2bcfa0a422afb57e508b9eac0c0",
                "blocknumber": "1"
            }
        ],
        "sealEngine": "NoProof",
        "_info": {
            "hash": "0x80cc6100369798563ce454f8f518592e64f8ace6ab46274523c4fd733aab4131",
            "fixture-format": "blockchain_test",
            "comment": "`execution-specs` generated test",
            "filling-transition-tool": "2.19.0",
            "description": "DELEGATE -> DELEGATE -> CODE OOG.",
            "url": "https://github.com/ethereum/execution-specs/blob/tests-bal@v5.6.1/tests/ported_static/stCallDelegateCodesHomestead/test_callcodecallcode_11_ooge.py#L25",
            "metadata": {
                "opcode_count": {}
            }
        }
    }
}