{
    "tests/ported_static/stLogTests/test_log1_non_empty_mem_log_mem_size1_log_mem_start31.py::test_log1_non_empty_mem_log_mem_size1_log_mem_start31[fork_Cancun-blockchain_test_from_state_test]": {
        "network": "Cancun",
        "genesisBlockHeader": {
            "parentHash": "0x0000000000000000000000000000000000000000000000000000000000000000",
            "uncleHash": "0x1dcc4de8dec75d7aab85b567b6ccd41ad312451b948a7413f0a142fd40d49347",
            "coinbase": "0x0000000000000000000000000000000000000000",
            "stateRoot": "0x46f76ae5cfd08d5d74d3d8d1b4de30b30c953b4aa350f7210fb55cdeb92a730d",
            "transactionsTrie": "0x56e81f171bcc55a6ff8345e692c0f86e5b48e01b996cadc001622fb5e363b421",
            "receiptTrie": "0x56e81f171bcc55a6ff8345e692c0f86e5b48e01b996cadc001622fb5e363b421",
            "bloom": "0x00000000000000000000000000000000000000000000000000000000000000000000000000000000000000000000000000000000000000000000000000000000000000000000000000000000000000000000000000000000000000000000000000000000000000000000000000000000000000000000000000000000000000000000000000000000000000000000000000000000000000000000000000000000000000000000000000000000000000000000000000000000000000000000000000000000000000000000000000000000000000000000000000000000000000000000000000000000000000000000000000000000000000000000000000000000",
            "difficulty": "0x00",
            "number": "0x00",
            "gasLimit": "0x0f4240",
            "gasUsed": "0x00",
            "timestamp": "0x00",
            "extraData": "0x00",
            "mixHash": "0x0000000000000000000000000000000000000000000000000000000000000000",
            "nonce": "0x0000000000000000",
            "baseFeePerGas": "0x0b",
            "withdrawalsRoot": "0x56e81f171bcc55a6ff8345e692c0f86e5b48e01b996cadc001622fb5e363b421",
            "blobGasUsed": "0x00",
            "excessBlobGas": "0x00",
            "parentBeaconBlockRoot": "0x0000000000000000000000000000000000000000000000000000000000000000",
            "hash": "0xb6f788127308df23881cb8ee5f42098bf5cff900a0a27d8848806fc455565c72"
        },
        "pre": {
            "0x000f3df6d732807ef1319fb7b8bb8522d0beac02": {
                "nonce": "0x01",
                "balance": "0x00",
                "code": "0x3373fffffffffffffffffffffffffffffffffffffffe14604d57602036146024575f5ffd5b5f35801560495762001fff810690815414603c575f5ffd5b62001fff01545f5260205ff35b5f5ffd5b62001fff42064281555f359062001fff015500",
                "storage": {}
            },
            "0xd66f224cbd2fabb21b17bb53c56118f32f62ebd6": {
                "nonce": "0x00",
                "balance": "0x0de0b6b3a7640000",
                "code": "0x",
                "storage": {}
            },
            "0xe985306be05104f4916ff47c7bdde9eac3217d64": {
                "nonce": "0x00",
                "balance": "0x0de0b6b3a7640000",
                "code": "0x7faabbffffffffffffffffffffffffffffffffffffffffffffffffffffffffccdd60005260006001601fa100",
                "storage": {}
            },
            "0xb798c6a2ac1368ab7f39e8696fd970bada1ae144": {
                "nonce": "0x00",
                "balance": "0x0de0b6b3a7640000",
                "code": "0x6000600060006000601773e985306be05104f4916ff47c7bdde9eac3217d646103e8f160005500",
                "storage": {}
            }
        },
        "postState": {
            "0x000f3df6d732807ef1319fb7b8bb8522d0beac02": {
                "nonce": "0x01",
                "balance": "0x00",
                "code": "0x3373fffffffffffffffffffffffffffffffffffffffe14604d57602036146024575f5ffd5b5f35801560495762001fff810690815414603c575f5ffd5b62001fff01545f5260205ff35b5f5ffd5b62001fff42064281555f359062001fff015500",
                "storage": {
                    "0x03e8": "0x03e8"
                }
            },
            "0xd66f224cbd2fabb21b17bb53c56118f32f62ebd6": {
                "nonce": "0x01",
                "balance": "0x0de0b6b3a75a5b22",
                "code": "0x",
                "storage": {}
            },
            "0xe985306be05104f4916ff47c7bdde9eac3217d64": {
                "nonce": "0x00",
                "balance": "0x0de0b6b3a7640017",
                "code": "0x7faabbffffffffffffffffffffffffffffffffffffffffffffffffffffffffccdd60005260006001601fa100",
                "storage": {}
            },
            "0xb798c6a2ac1368ab7f39e8696fd970bada1ae144": {
                "nonce": "0x00",
                "balance": "0x0de0b6b3a7658689",
                "code": "0x6000600060006000601773e985306be05104f4916ff47c7bdde9eac3217d646103e8f160005500",
                "storage": {
                    "0x00": "0x01"
                }
            }
        },
        "lastblockhash": "0x8b9b3a59d026324238197f9b55adf32670695f4aff6db72699c379645033ac74",
        "config": {
            "network": "Cancun",
            "chainid": "0x01",
            "blobSchedule": {
                "Cancun": {
                    "target": "0x03",
                    "max": "0x06",
                    "baseFeeUpdateFraction": "0x32f0ed"
                }
            }
        },
        "genesisRLP": "0xf9023bf90235a00000000000000000000000000000000000000000000000000000000000000000a01dcc4de8dec75d7aab85b567b6ccd41ad312451b948a7413f0a142fd40d49347940000000000000000000000000000000000000000a046f76ae5cfd08d5d74d3d8d1b4de30b30c953b4aa350f7210fb55cdeb92a730da056e81f171bcc55a6ff8345e692c0f86e5b48e01b996cadc001622fb5e363b421a056e81f171bcc55a6ff8345e692c0f86e5b48e01b996cadc001622fb5e363b421b90100000000000000000000000000000000000000000000000000000000000000000000000000000000000000000000000000000000000000000000000000000000000000000000000000000000000000000000000000000000000000000000000000000000000000000000000000000000000000000000000000000000000000000000000000000000000000000000000000000000000000000000000000000000000000000000000000000000000000000000000000000000000000000000000000000000000000000000000000000000000000000000000000000000000000000000000000000000000000000000000000000000000000000000000000000000008080830f4240808000a000000000000000000000000000000000000000000000000000000000000000008800000000000000000ba056e81f171bcc55a6ff8345e692c0f86e5b48e01b996cadc001622fb5e363b4218080a00000000000000000000000000000000000000000000000000000000000000000c0c0c0",
        "blocks": [
            {
                "blockHeader": {
                    "parentHash": "0xb6f788127308df23881cb8ee5f42098bf5cff900a0a27d8848806fc455565c72",
                    "uncleHash": "0x1dcc4de8dec75d7aab85b567b6ccd41ad312451b948a7413f0a142fd40d49347",
                    "coinbase": "0x2adc25665018aa1fe0e6bc666dac8fc2697ff9ba",
                    "stateRoot": "0x44ebf499b37d9282a9b4f8e2a9aea83944d77e18c39e65934f94e900a0fe88e1",
                    "transactionsTrie": "0xe3294ce45537cae24d58639acaa00932d35407ef6b01c9520b90b8377f6f9af1",
                    "receiptTrie": "0xfea802a88218eedbb397b522ebdd2d7e52f5231808f543bf0a097acc476c87ef",
                    "bloom": "0x00000000000000000000000000000000000000000000000000000000000000000000000000000000000000000000000000000000000000000000000000000000000000000000000000000000000000000000000000000000000000000000000000000000020000000000000000000800100000000000000000000000000000000000000000000000000000000000000000040000000000400000000000000000000000000000000000000000000000000000000000000000000000000000000000000000000000000000000000000000000000000000000000000000000020000000000000000000000000000000000000000000000000000000000000000000",
                    "difficulty": "0x00",
                    "number": "0x01",
                    "gasLimit": "0x0f4240",
                    "gasUsed": "0xcfd3",
                    "timestamp": "0x03e8",
                    "extraData": "0x00",
                    "mixHash": "0x0000000000000000000000000000000000000000000000000000000000020000",
                    "nonce": "0x0000000000000000",
                    "baseFeePerGas": "0x0a",
                    "withdrawalsRoot": "0x56e81f171bcc55a6ff8345e692c0f86e5b48e01b996cadc001622fb5e363b421",
                    "blobGasUsed": "0x00",
                    "excessBlobGas": "0x00",
                    "parentBeaconBlockRoot": "0x0000000000000000000000000000000000000000000000000000000000000000",
                    "hash": "0x8b9b3a59d026324238197f9b55adf32670695f4aff6db72699c379645033ac74"
                },
                "transactions": [
                    {
                        "type": "0x00",
                        "chainId": "0x01",
                        "nonce": "0x00",
                        "gasPrice": "0x0a",
                        "gasLimit": "0x033450",
                        "to": "0xb798c6a2ac1368ab7f39e8696fd970bada1ae144",
                        "value": "0x0186a0",
                        "data": "0x",
                        "v": "0x25",
                        "r": "0xb04dd13b72a30ad6e54ad04c71cc9bdd5e58250fb7f14156113b99f97a1f8b60",
                        "s": "0x0ce5b5ff39821f94ce11889cda22c5dd58d21e4019cd84e07a5b4ae501297277",
                        "sender": "0xd66f224cbd2fabb21b17bb53c56118f32f62ebd6"
                    }
                ],
                "uncleHeaders": [],
                "withdrawals": [],
                "receipts": [
                    {
                        "transactionHash": "0x63b6bc81b97f8d896587239272c6c80549962a07ce882f89eb8599d9569d9738",
                        "type": "0x00",
                        "cumulativeGasUsed": "0xcfd3",
                        "bloom": "0x00000000000000000000000000000000000000000000000000000000000000000000000000000000000000000000000000000000000000000000000000000000000000000000000000000000000000000000000000000000000000000000000000000000020000000000000000000800100000000000000000000000000000000000000000000000000000000000000000040000000000400000000000000000000000000000000000000000000000000000000000000000000000000000000000000000000000000000000000000000000000000000000000000000000020000000000000000000000000000000000000000000000000000000000000000000",
                        "logs": [
                            {
                                "address": "0xe985306be05104f4916ff47c7bdde9eac3217d64",
                                "topics": [
                                    "0x0000000000000000000000000000000000000000000000000000000000000000"
                                ],
                                "data": "0xdd"
                            }
                        ],
                        "status": true,
                        "rlp": "0xf901440182cfd3b9010000000000000000000000000000000000000000000000000000000000000000000000000000000000000000000000000000000000000000000000000000000000000000000000000000000000000000000000000000000000000000000000000000000000020000000000000000000800100000000000000000000000000000000000000000000000000000000000000000040000000000400000000000000000000000000000000000000000000000000000000000000000000000000000000000000000000000000000000000000000000000000000000000000000000020000000000000000000000000000000000000000000000000000000000000000000f83bf83994e985306be05104f4916ff47c7bdde9eac3217d64e1a0000000000000000000000000000000000000000000000000000000000000000081dd"
                    }
                ],
                "rlp": "0xf902a5f90239a0b6f788127308df23881cb8ee5f42098bf5cff900a0a27d8848806fc455565c72a01dcc4de8dec75d7aab85b567b6ccd41ad312451b948a7413f0a142fd40d49347942adc25665018aa1fe0e6bc666dac8fc2697ff9baa044ebf499b37d9282a9b4f8e2a9aea83944d77e18c39e65934f94e900a0fe88e1a0e3294ce45537cae24d58639acaa00932d35407ef6b01c9520b90b8377f6f9af1a0fea802a88218eedbb397b522ebdd2d7e52f5231808f543bf0a097acc476c87efb90100000000000000000000000000000000000000000000000000000000000000000000000000000000000000000000000000000000000000000000000000000000000000000000000000000000000000000000000000000000000000000000000000000000000200000000000000000008001000000000000000000000000000000000000000000000000000000000000000000400000000004000000000000000000000000000000000000000000000000000000000000000000000000000000000000000000000000000000000000000000000000000000000000000000000200000000000000000000000000000000000000000000000000000000000000000008001830f424082cfd38203e800a000000000000000000000000000000000000000000000000000000000000200008800000000000000000aa056e81f171bcc55a6ff8345e692c0f86e5b48e01b996cadc001622fb5e363b4218080a00000000000000000000000000000000000000000000000000000000000000000f865f863800a8303345094b798c6a2ac1368ab7f39e8696fd970bada1ae144830186a08025a0b04dd13b72a30ad6e54ad04c71cc9bdd5e58250fb7f14156113b99f97a1f8b60a00ce5b5ff39821f94ce11889cda22c5dd58d21e4019cd84e07a5b4ae501297277c0c0",
                "blocknumber": "1"
            }
        ],
        "sealEngine": "NoProof",
        "_info": {
            "hash": "0x8abe50ba6d7e839948ae8fc4261c6944c74a655ef8dd100819c22edcc6e50a3d",
            "fixture-format": "blockchain_test",
            "comment": "`execution-specs` generated test",
            "filling-transition-tool": "2.19.0",
            "description": "Test_log1_non_empty_mem_log_mem_size1_log_mem_start31.",
            "url": "https://github.com/ethereum/execution-specs/blob/tests-snobal-devnet-5@v8037.0.0/tests/ported_static/stLogTests/test_log1_non_empty_mem_log_mem_size1_log_mem_start31.py#L24",
            "metadata": {
                "opcode_count": {}
            }
        }
    }
}