{
    "tests/ported_static/stSolidityTest/test_ambiguous_method.py::test_ambiguous_method[fork_Cancun-blockchain_test_from_state_test]": {
        "network": "Cancun",
        "genesisBlockHeader": {
            "parentHash": "0x0000000000000000000000000000000000000000000000000000000000000000",
            "uncleHash": "0x1dcc4de8dec75d7aab85b567b6ccd41ad312451b948a7413f0a142fd40d49347",
            "coinbase": "0x0000000000000000000000000000000000000000",
            "stateRoot": "0x75023b9042d1efca0b2177e5591ae113a064339dbc2bf02b2495ec386cc99a9a",
            "transactionsTrie": "0x56e81f171bcc55a6ff8345e692c0f86e5b48e01b996cadc001622fb5e363b421",
            "receiptTrie": "0x56e81f171bcc55a6ff8345e692c0f86e5b48e01b996cadc001622fb5e363b421",
            "bloom": "0x00000000000000000000000000000000000000000000000000000000000000000000000000000000000000000000000000000000000000000000000000000000000000000000000000000000000000000000000000000000000000000000000000000000000000000000000000000000000000000000000000000000000000000000000000000000000000000000000000000000000000000000000000000000000000000000000000000000000000000000000000000000000000000000000000000000000000000000000000000000000000000000000000000000000000000000000000000000000000000000000000000000000000000000000000000000",
            "difficulty": "0x00",
            "number": "0x00",
            "gasLimit": "0x05f5e100",
            "gasUsed": "0x00",
            "timestamp": "0x00",
            "extraData": "0x00",
            "mixHash": "0x0000000000000000000000000000000000000000000000000000000000000000",
            "nonce": "0x0000000000000000",
            "baseFeePerGas": "0x0b",
            "withdrawalsRoot": "0x56e81f171bcc55a6ff8345e692c0f86e5b48e01b996cadc001622fb5e363b421",
            "blobGasUsed": "0x00",
            "excessBlobGas": "0x00",
            "parentBeaconBlockRoot": "0x0000000000000000000000000000000000000000000000000000000000000000",
            "hash": "0xac47a1ad23c1f21c96a9932a25e79f5bd1dbd79c6c3a610c9738aab3f8f194e1"
        },
        "pre": {
            "0x000f3df6d732807ef1319fb7b8bb8522d0beac02": {
                "nonce": "0x01",
                "balance": "0x00",
                "code": "0x3373fffffffffffffffffffffffffffffffffffffffe14604d57602036146024575f5ffd5b5f35801560495762001fff810690815414603c575f5ffd5b62001fff01545f5260205ff35b5f5ffd5b62001fff42064281555f359062001fff015500",
                "storage": {}
            },
            "0x235c9320b0f4d30204334c1ddb008dfe1d75b1b9": {
                "nonce": "0x00",
                "balance": "0x0186a0",
                "code": "0x60003560e060020a90048063c040622614601557005b601b6021565b60006000f35b61014f60008190555056",
                "storage": {}
            },
            "0x73c241c3bc4fdf83b6ff3ae73735fddf7c9d711d": {
                "nonce": "0x00",
                "balance": "0x012a05f200",
                "code": "0x",
                "storage": {}
            }
        },
        "postState": {
            "0x000f3df6d732807ef1319fb7b8bb8522d0beac02": {
                "nonce": "0x01",
                "balance": "0x00",
                "code": "0x3373fffffffffffffffffffffffffffffffffffffffe14604d57602036146024575f5ffd5b5f35801560495762001fff810690815414603c575f5ffd5b62001fff01545f5260205ff35b5f5ffd5b62001fff42064281555f359062001fff015500",
                "storage": {
                    "0x03e8": "0x03e8"
                }
            },
            "0x235c9320b0f4d30204334c1ddb008dfe1d75b1b9": {
                "nonce": "0x00",
                "balance": "0x0186a1",
                "code": "0x60003560e060020a90048063c040622614601557005b601b6021565b60006000f35b61014f60008190555056",
                "storage": {
                    "0x00": "0x014f"
                }
            },
            "0x73c241c3bc4fdf83b6ff3ae73735fddf7c9d711d": {
                "nonce": "0x01",
                "balance": "0x0129ff5629",
                "code": "0x",
                "storage": {}
            }
        },
        "lastblockhash": "0xb952dd6b4dd237aedaf4ef37c420eb2c1295c88e78fadcb00c48efb09fd46653",
        "config": {
            "network": "Cancun",
            "chainid": "0x01",
            "blobSchedule": {
                "Cancun": {
                    "target": "0x03",
                    "max": "0x06",
                    "baseFeeUpdateFraction": "0x32f0ed"
                }
            }
        },
        "genesisRLP": "0xf9023cf90236a00000000000000000000000000000000000000000000000000000000000000000a01dcc4de8dec75d7aab85b567b6ccd41ad312451b948a7413f0a142fd40d49347940000000000000000000000000000000000000000a075023b9042d1efca0b2177e5591ae113a064339dbc2bf02b2495ec386cc99a9aa056e81f171bcc55a6ff8345e692c0f86e5b48e01b996cadc001622fb5e363b421a056e81f171bcc55a6ff8345e692c0f86e5b48e01b996cadc001622fb5e363b421b901000000000000000000000000000000000000000000000000000000000000000000000000000000000000000000000000000000000000000000000000000000000000000000000000000000000000000000000000000000000000000000000000000000000000000000000000000000000000000000000000000000000000000000000000000000000000000000000000000000000000000000000000000000000000000000000000000000000000000000000000000000000000000000000000000000000000000000000000000000000000000000000000000000000000000000000000000000000000000000000000000000000000000000000000000000000080808405f5e100808000a000000000000000000000000000000000000000000000000000000000000000008800000000000000000ba056e81f171bcc55a6ff8345e692c0f86e5b48e01b996cadc001622fb5e363b4218080a00000000000000000000000000000000000000000000000000000000000000000c0c0c0",
        "blocks": [
            {
                "blockHeader": {
                    "parentHash": "0xac47a1ad23c1f21c96a9932a25e79f5bd1dbd79c6c3a610c9738aab3f8f194e1",
                    "uncleHash": "0x1dcc4de8dec75d7aab85b567b6ccd41ad312451b948a7413f0a142fd40d49347",
                    "coinbase": "0x2adc25665018aa1fe0e6bc666dac8fc2697ff9ba",
                    "stateRoot": "0xde57dd5c905c03fe221eca6b1d2874511a19108ba5587b4d14cba2780c6d85be",
                    "transactionsTrie": "0xb9ccfddc09f9fbc9abb827818cd190c76f96c092c254259360510730b6a98d88",
                    "receiptTrie": "0x43f51dab2bfa4d8d9fd5b6337089a0466b023fa97bfc4a485d0e61596066c20d",
                    "bloom": "0x00000000000000000000000000000000000000000000000000000000000000000000000000000000000000000000000000000000000000000000000000000000000000000000000000000000000000000000000000000000000000000000000000000000000000000000000000000000000000000000000000000000000000000000000000000000000000000000000000000000000000000000000000000000000000000000000000000000000000000000000000000000000000000000000000000000000000000000000000000000000000000000000000000000000000000000000000000000000000000000000000000000000000000000000000000000",
                    "difficulty": "0x00",
                    "number": "0x01",
                    "gasLimit": "0x05f5e100",
                    "gasUsed": "0xa92f",
                    "timestamp": "0x03e8",
                    "extraData": "0x00",
                    "mixHash": "0x0000000000000000000000000000000000000000000000000000000000020000",
                    "nonce": "0x0000000000000000",
                    "baseFeePerGas": "0x0a",
                    "withdrawalsRoot": "0x56e81f171bcc55a6ff8345e692c0f86e5b48e01b996cadc001622fb5e363b421",
                    "blobGasUsed": "0x00",
                    "excessBlobGas": "0x00",
                    "parentBeaconBlockRoot": "0x0000000000000000000000000000000000000000000000000000000000000000",
                    "hash": "0xb952dd6b4dd237aedaf4ef37c420eb2c1295c88e78fadcb00c48efb09fd46653"
                },
                "transactions": [
                    {
                        "type": "0x00",
                        "chainId": "0x01",
                        "nonce": "0x00",
                        "gasPrice": "0x0a",
                        "gasLimit": "0x0493e0",
                        "to": "0x235c9320b0f4d30204334c1ddb008dfe1d75b1b9",
                        "value": "0x01",
                        "data": "0xc0406226",
                        "v": "0x26",
                        "r": "0xeb134ade39eeaadae002fabdb1a759cc0da9a0366b77d23a8526e7ae8cddbce2",
                        "s": "0x50e245f0451132621b847d3b0a6ac2baa25e91310a452ac0a9a9acd47721af37",
                        "sender": "0x73c241c3bc4fdf83b6ff3ae73735fddf7c9d711d"
                    }
                ],
                "uncleHeaders": [],
                "withdrawals": [],
                "receipts": [
                    {
                        "transactionHash": "0xa6f7e389b817b6befcb95e84e8d3c1ef7ed84d3d54fab0b5c07911465073a267",
                        "type": "0x00",
                        "cumulativeGasUsed": "0xa92f",
                        "bloom": "0x00000000000000000000000000000000000000000000000000000000000000000000000000000000000000000000000000000000000000000000000000000000000000000000000000000000000000000000000000000000000000000000000000000000000000000000000000000000000000000000000000000000000000000000000000000000000000000000000000000000000000000000000000000000000000000000000000000000000000000000000000000000000000000000000000000000000000000000000000000000000000000000000000000000000000000000000000000000000000000000000000000000000000000000000000000000",
                        "logs": [],
                        "status": true,
                        "rlp": "0xf901080182a92fb9010000000000000000000000000000000000000000000000000000000000000000000000000000000000000000000000000000000000000000000000000000000000000000000000000000000000000000000000000000000000000000000000000000000000000000000000000000000000000000000000000000000000000000000000000000000000000000000000000000000000000000000000000000000000000000000000000000000000000000000000000000000000000000000000000000000000000000000000000000000000000000000000000000000000000000000000000000000000000000000000000000000000000000000000000000000000c0"
                    }
                ],
                "rlp": "0xf902a7f9023aa0ac47a1ad23c1f21c96a9932a25e79f5bd1dbd79c6c3a610c9738aab3f8f194e1a01dcc4de8dec75d7aab85b567b6ccd41ad312451b948a7413f0a142fd40d49347942adc25665018aa1fe0e6bc666dac8fc2697ff9baa0de57dd5c905c03fe221eca6b1d2874511a19108ba5587b4d14cba2780c6d85bea0b9ccfddc09f9fbc9abb827818cd190c76f96c092c254259360510730b6a98d88a043f51dab2bfa4d8d9fd5b6337089a0466b023fa97bfc4a485d0e61596066c20db901000000000000000000000000000000000000000000000000000000000000000000000000000000000000000000000000000000000000000000000000000000000000000000000000000000000000000000000000000000000000000000000000000000000000000000000000000000000000000000000000000000000000000000000000000000000000000000000000000000000000000000000000000000000000000000000000000000000000000000000000000000000000000000000000000000000000000000000000000000000000000000000000000000000000000000000000000000000000000000000000000000000000000000000000000000000080018405f5e10082a92f8203e800a000000000000000000000000000000000000000000000000000000000000200008800000000000000000aa056e81f171bcc55a6ff8345e692c0f86e5b48e01b996cadc001622fb5e363b4218080a00000000000000000000000000000000000000000000000000000000000000000f866f864800a830493e094235c9320b0f4d30204334c1ddb008dfe1d75b1b90184c040622626a0eb134ade39eeaadae002fabdb1a759cc0da9a0366b77d23a8526e7ae8cddbce2a050e245f0451132621b847d3b0a6ac2baa25e91310a452ac0a9a9acd47721af37c0c0",
                "blocknumber": "1"
            }
        ],
        "sealEngine": "NoProof",
        "_info": {
            "hash": "0x8225c51329484d053c468e4f2cf0510904810bf13455c8f58c336797dde88552",
            "fixture-format": "blockchain_test",
            "comment": "`execution-specs` generated test",
            "filling-transition-tool": "2.19.0",
            "description": "Test_ambiguous_method.",
            "url": "https://github.com/ethereum/execution-specs/blob/tests-bal@v5.6.0/tests/ported_static/stSolidityTest/test_ambiguous_method.py#L25",
            "metadata": {
                "opcode_count": {}
            }
        }
    }
}