{
    "tests/ported_static/stStaticCall/test_static_callcallcall_000_oogm_after2.py::test_static_callcallcall_000_oogm_after2[fork_Cancun-blockchain_test_from_state_test]": {
        "network": "Cancun",
        "genesisBlockHeader": {
            "parentHash": "0x0000000000000000000000000000000000000000000000000000000000000000",
            "uncleHash": "0x1dcc4de8dec75d7aab85b567b6ccd41ad312451b948a7413f0a142fd40d49347",
            "coinbase": "0x0000000000000000000000000000000000000000",
            "stateRoot": "0x5b341b8c634ee0e9acd1c4d129706f5299a1f426b18f39b9e198c0b73269003b",
            "transactionsTrie": "0x56e81f171bcc55a6ff8345e692c0f86e5b48e01b996cadc001622fb5e363b421",
            "receiptTrie": "0x56e81f171bcc55a6ff8345e692c0f86e5b48e01b996cadc001622fb5e363b421",
            "bloom": "0x00000000000000000000000000000000000000000000000000000000000000000000000000000000000000000000000000000000000000000000000000000000000000000000000000000000000000000000000000000000000000000000000000000000000000000000000000000000000000000000000000000000000000000000000000000000000000000000000000000000000000000000000000000000000000000000000000000000000000000000000000000000000000000000000000000000000000000000000000000000000000000000000000000000000000000000000000000000000000000000000000000000000000000000000000000000",
            "difficulty": "0x00",
            "number": "0x00",
            "gasLimit": "0x01c9c380",
            "gasUsed": "0x00",
            "timestamp": "0x00",
            "extraData": "0x00",
            "mixHash": "0x0000000000000000000000000000000000000000000000000000000000000000",
            "nonce": "0x0000000000000000",
            "baseFeePerGas": "0x0b",
            "withdrawalsRoot": "0x56e81f171bcc55a6ff8345e692c0f86e5b48e01b996cadc001622fb5e363b421",
            "blobGasUsed": "0x00",
            "excessBlobGas": "0x00",
            "parentBeaconBlockRoot": "0x0000000000000000000000000000000000000000000000000000000000000000",
            "hash": "0x110b50c13ef7ae0997f43dff770449282d83b96ffc0e7bf789256c03dae0aa92"
        },
        "pre": {
            "0x000f3df6d732807ef1319fb7b8bb8522d0beac02": {
                "nonce": "0x01",
                "balance": "0x00",
                "code": "0x3373fffffffffffffffffffffffffffffffffffffffe14604d57602036146024575f5ffd5b5f35801560495762001fff810690815414603c575f5ffd5b62001fff01545f5260205ff35b5f5ffd5b62001fff42064281555f359062001fff015500",
                "storage": {}
            },
            "0xd66f224cbd2fabb21b17bb53c56118f32f62ebd6": {
                "nonce": "0x00",
                "balance": "0x0de0b6b3a7640000",
                "code": "0x",
                "storage": {}
            },
            "0x75a5c9cc0efb8bc7f2115d547f0327a153212014": {
                "nonce": "0x00",
                "balance": "0x00",
                "code": "0x600160035200",
                "storage": {}
            },
            "0x1d70c412285bcee4a11d0e3a46e2e5ccb5c95667": {
                "nonce": "0x00",
                "balance": "0x00",
                "code": "0x600160035260406000604060007375a5c9cc0efb8bc7f2115d547f0327a1532120146201d4d4fa50600160205200",
                "storage": {}
            },
            "0xe5261d403c5cd00ca6b7a0e5cc9ff84749e96a94": {
                "nonce": "0x00",
                "balance": "0x00",
                "code": "0x60016003526040600060406000731d70c412285bcee4a11d0e3a46e2e5ccb5c956676206ddd0fa505b61c350608051101560445760013b506001608051016080526028565b00",
                "storage": {}
            },
            "0x900505d27d6b2eed635dfb5935a5944950056a14": {
                "nonce": "0x00",
                "balance": "0x0de0b6b3a7640000",
                "code": "0x604060006040600073e5261d403c5cd00ca6b7a0e5cc9ff84749e96a94620aae60fa6000556001606f5500",
                "storage": {}
            }
        },
        "postState": {
            "0x000f3df6d732807ef1319fb7b8bb8522d0beac02": {
                "nonce": "0x01",
                "balance": "0x00",
                "code": "0x3373fffffffffffffffffffffffffffffffffffffffe14604d57602036146024575f5ffd5b5f35801560495762001fff810690815414603c575f5ffd5b62001fff01545f5260205ff35b5f5ffd5b62001fff42064281555f359062001fff015500",
                "storage": {
                    "0x03e8": "0x03e8"
                }
            },
            "0xd66f224cbd2fabb21b17bb53c56118f32f62ebd6": {
                "nonce": "0x01",
                "balance": "0x0de0b6b3a6f1dfde",
                "code": "0x",
                "storage": {}
            },
            "0x75a5c9cc0efb8bc7f2115d547f0327a153212014": {
                "nonce": "0x00",
                "balance": "0x00",
                "code": "0x600160035200",
                "storage": {}
            },
            "0x1d70c412285bcee4a11d0e3a46e2e5ccb5c95667": {
                "nonce": "0x00",
                "balance": "0x00",
                "code": "0x600160035260406000604060007375a5c9cc0efb8bc7f2115d547f0327a1532120146201d4d4fa50600160205200",
                "storage": {}
            },
            "0xe5261d403c5cd00ca6b7a0e5cc9ff84749e96a94": {
                "nonce": "0x00",
                "balance": "0x00",
                "code": "0x60016003526040600060406000731d70c412285bcee4a11d0e3a46e2e5ccb5c956676206ddd0fa505b61c350608051101560445760013b506001608051016080526028565b00",
                "storage": {}
            },
            "0x900505d27d6b2eed635dfb5935a5944950056a14": {
                "nonce": "0x00",
                "balance": "0x0de0b6b3a7640000",
                "code": "0x604060006040600073e5261d403c5cd00ca6b7a0e5cc9ff84749e96a94620aae60fa6000556001606f5500",
                "storage": {
                    "0x6f": "0x01"
                }
            }
        },
        "lastblockhash": "0x1a73dbde73f19dae39b484e3b1ac9e81e0ddc732ae77595d1c2b407c2fed4d56",
        "config": {
            "network": "Cancun",
            "chainid": "0x01",
            "blobSchedule": {
                "Cancun": {
                    "target": "0x03",
                    "max": "0x06",
                    "baseFeeUpdateFraction": "0x32f0ed"
                }
            }
        },
        "genesisRLP": "0xf9023cf90236a00000000000000000000000000000000000000000000000000000000000000000a01dcc4de8dec75d7aab85b567b6ccd41ad312451b948a7413f0a142fd40d49347940000000000000000000000000000000000000000a05b341b8c634ee0e9acd1c4d129706f5299a1f426b18f39b9e198c0b73269003ba056e81f171bcc55a6ff8345e692c0f86e5b48e01b996cadc001622fb5e363b421a056e81f171bcc55a6ff8345e692c0f86e5b48e01b996cadc001622fb5e363b421b901000000000000000000000000000000000000000000000000000000000000000000000000000000000000000000000000000000000000000000000000000000000000000000000000000000000000000000000000000000000000000000000000000000000000000000000000000000000000000000000000000000000000000000000000000000000000000000000000000000000000000000000000000000000000000000000000000000000000000000000000000000000000000000000000000000000000000000000000000000000000000000000000000000000000000000000000000000000000000000000000000000000000000000000000000000000080808401c9c380808000a000000000000000000000000000000000000000000000000000000000000000008800000000000000000ba056e81f171bcc55a6ff8345e692c0f86e5b48e01b996cadc001622fb5e363b4218080a00000000000000000000000000000000000000000000000000000000000000000c0c0c0",
        "blocks": [
            {
                "blockHeader": {
                    "parentHash": "0x110b50c13ef7ae0997f43dff770449282d83b96ffc0e7bf789256c03dae0aa92",
                    "uncleHash": "0x1dcc4de8dec75d7aab85b567b6ccd41ad312451b948a7413f0a142fd40d49347",
                    "coinbase": "0x2adc25665018aa1fe0e6bc666dac8fc2697ff9ba",
                    "stateRoot": "0x8f282b670a771fe637c2edacd27da201ac1f0442501ab59aab2dcb7a0435016f",
                    "transactionsTrie": "0x166c5c33688a6d1115c32340d55f2bf639c16ea57061fc2de03953b499875cb3",
                    "receiptTrie": "0xeeae4a4461f7ed1a479eb1b105a1ffdb29c925dfd48d026a5251423205d54eef",
                    "bloom": "0x00000000000000000000000000000000000000000000000000000000000000000000000000000000000000000000000000000000000000000000000000000000000000000000000000000000000000000000000000000000000000000000000000000000000000000000000000000000000000000000000000000000000000000000000000000000000000000000000000000000000000000000000000000000000000000000000000000000000000000000000000000000000000000000000000000000000000000000000000000000000000000000000000000000000000000000000000000000000000000000000000000000000000000000000000000000",
                    "difficulty": "0x00",
                    "number": "0x01",
                    "gasLimit": "0x01c9c380",
                    "gasUsed": "0x0b699d",
                    "timestamp": "0x03e8",
                    "extraData": "0x00",
                    "mixHash": "0x0000000000000000000000000000000000000000000000000000000000020000",
                    "nonce": "0x0000000000000000",
                    "baseFeePerGas": "0x0a",
                    "withdrawalsRoot": "0x56e81f171bcc55a6ff8345e692c0f86e5b48e01b996cadc001622fb5e363b421",
                    "blobGasUsed": "0x00",
                    "excessBlobGas": "0x00",
                    "parentBeaconBlockRoot": "0x0000000000000000000000000000000000000000000000000000000000000000",
                    "hash": "0x1a73dbde73f19dae39b484e3b1ac9e81e0ddc732ae77595d1c2b407c2fed4d56"
                },
                "transactions": [
                    {
                        "type": "0x00",
                        "chainId": "0x01",
                        "nonce": "0x00",
                        "gasPrice": "0x0a",
                        "gasLimit": "0x1a3ec0",
                        "to": "0x900505d27d6b2eed635dfb5935a5944950056a14",
                        "value": "0x00",
                        "data": "0x",
                        "v": "0x26",
                        "r": "0x1263d49365abb23bc9168dde6805f73fd9e0ed20dfcae9b315225b1a063bfc",
                        "s": "0x3f53631f964b349f4f73306d160b4eb951e03a5bacfce0978078013759367ada",
                        "sender": "0xd66f224cbd2fabb21b17bb53c56118f32f62ebd6"
                    }
                ],
                "uncleHeaders": [],
                "withdrawals": [],
                "receipts": [
                    {
                        "transactionHash": "0x6c5fe6784f7302e356be2b213a9b028065eedec493dcce14d75ac59d5497f672",
                        "type": "0x00",
                        "cumulativeGasUsed": "0x0b699d",
                        "bloom": "0x00000000000000000000000000000000000000000000000000000000000000000000000000000000000000000000000000000000000000000000000000000000000000000000000000000000000000000000000000000000000000000000000000000000000000000000000000000000000000000000000000000000000000000000000000000000000000000000000000000000000000000000000000000000000000000000000000000000000000000000000000000000000000000000000000000000000000000000000000000000000000000000000000000000000000000000000000000000000000000000000000000000000000000000000000000000",
                        "logs": [],
                        "status": true,
                        "rlp": "0xf9010901830b699db9010000000000000000000000000000000000000000000000000000000000000000000000000000000000000000000000000000000000000000000000000000000000000000000000000000000000000000000000000000000000000000000000000000000000000000000000000000000000000000000000000000000000000000000000000000000000000000000000000000000000000000000000000000000000000000000000000000000000000000000000000000000000000000000000000000000000000000000000000000000000000000000000000000000000000000000000000000000000000000000000000000000000000000000000000000000000c0"
                    }
                ],
                "rlp": "0xf902a3f9023ba0110b50c13ef7ae0997f43dff770449282d83b96ffc0e7bf789256c03dae0aa92a01dcc4de8dec75d7aab85b567b6ccd41ad312451b948a7413f0a142fd40d49347942adc25665018aa1fe0e6bc666dac8fc2697ff9baa08f282b670a771fe637c2edacd27da201ac1f0442501ab59aab2dcb7a0435016fa0166c5c33688a6d1115c32340d55f2bf639c16ea57061fc2de03953b499875cb3a0eeae4a4461f7ed1a479eb1b105a1ffdb29c925dfd48d026a5251423205d54eefb901000000000000000000000000000000000000000000000000000000000000000000000000000000000000000000000000000000000000000000000000000000000000000000000000000000000000000000000000000000000000000000000000000000000000000000000000000000000000000000000000000000000000000000000000000000000000000000000000000000000000000000000000000000000000000000000000000000000000000000000000000000000000000000000000000000000000000000000000000000000000000000000000000000000000000000000000000000000000000000000000000000000000000000000000000000000080018401c9c380830b699d8203e800a000000000000000000000000000000000000000000000000000000000000200008800000000000000000aa056e81f171bcc55a6ff8345e692c0f86e5b48e01b996cadc001622fb5e363b4218080a00000000000000000000000000000000000000000000000000000000000000000f861f85f800a831a3ec094900505d27d6b2eed635dfb5935a5944950056a148080269f1263d49365abb23bc9168dde6805f73fd9e0ed20dfcae9b315225b1a063bfca03f53631f964b349f4f73306d160b4eb951e03a5bacfce0978078013759367adac0c0",
                "blocknumber": "1"
            }
        ],
        "sealEngine": "NoProof",
        "_info": {
            "hash": "0x093fb6c1398dc831bf4a26ed049565e0349819f2df398e05fa2c868433f62abf",
            "fixture-format": "blockchain_test",
            "comment": "`execution-specs` generated test",
            "filling-transition-tool": "2.19.0",
            "description": "Test_static_callcallcall_000_oogm_after2.",
            "url": "https://github.com/ethereum/execution-specs/blob/tests-snobal-devnet-5@v8037.0.0/tests/ported_static/stStaticCall/test_static_callcallcall_000_oogm_after2.py#L24",
            "metadata": {
                "opcode_count": {}
            }
        }
    }
}