{
    "tests/ported_static/stStaticCall/test_static_callcallcall_000_oogm_after2.py::test_static_callcallcall_000_oogm_after2[fork_Cancun-blockchain_test_from_state_test]": {
        "network": "Cancun",
        "genesisBlockHeader": {
            "parentHash": "0x0000000000000000000000000000000000000000000000000000000000000000",
            "uncleHash": "0x1dcc4de8dec75d7aab85b567b6ccd41ad312451b948a7413f0a142fd40d49347",
            "coinbase": "0x0000000000000000000000000000000000000000",
            "stateRoot": "0x6ecf8e046875941cf5a443538f318d8203aa94c2cd11e048f88142e218c51c55",
            "transactionsTrie": "0x56e81f171bcc55a6ff8345e692c0f86e5b48e01b996cadc001622fb5e363b421",
            "receiptTrie": "0x56e81f171bcc55a6ff8345e692c0f86e5b48e01b996cadc001622fb5e363b421",
            "bloom": "0x00000000000000000000000000000000000000000000000000000000000000000000000000000000000000000000000000000000000000000000000000000000000000000000000000000000000000000000000000000000000000000000000000000000000000000000000000000000000000000000000000000000000000000000000000000000000000000000000000000000000000000000000000000000000000000000000000000000000000000000000000000000000000000000000000000000000000000000000000000000000000000000000000000000000000000000000000000000000000000000000000000000000000000000000000000000",
            "difficulty": "0x00",
            "number": "0x00",
            "gasLimit": "0x01c9c380",
            "gasUsed": "0x00",
            "timestamp": "0x00",
            "extraData": "0x00",
            "mixHash": "0x0000000000000000000000000000000000000000000000000000000000000000",
            "nonce": "0x0000000000000000",
            "baseFeePerGas": "0x0b",
            "withdrawalsRoot": "0x56e81f171bcc55a6ff8345e692c0f86e5b48e01b996cadc001622fb5e363b421",
            "blobGasUsed": "0x00",
            "excessBlobGas": "0x00",
            "parentBeaconBlockRoot": "0x0000000000000000000000000000000000000000000000000000000000000000",
            "hash": "0xd0cc7430318ffe7cc7b3bb2455240af7c76c62fd590edc8edcca8d5b091d5e66"
        },
        "pre": {
            "0x000f3df6d732807ef1319fb7b8bb8522d0beac02": {
                "nonce": "0x01",
                "balance": "0x00",
                "code": "0x3373fffffffffffffffffffffffffffffffffffffffe14604d57602036146024575f5ffd5b5f35801560495762001fff810690815414603c575f5ffd5b62001fff01545f5260205ff35b5f5ffd5b62001fff42064281555f359062001fff015500",
                "storage": {}
            },
            "0x6de4e4fa82a7139e6804b5b47b42e366a9595946": {
                "nonce": "0x00",
                "balance": "0x0de0b6b3a7640000",
                "code": "0x60406000604060007310345562e309b2045c737ffdd46e941710495fc4620aae60fa6000556001606f5500",
                "storage": {}
            },
            "0x10345562e309b2045c737ffdd46e941710495fc4": {
                "nonce": "0x00",
                "balance": "0x00",
                "code": "0x6001600352604060006040600073a34eee061f267a63c872265bed51c483f777a7b06206ddd0fa505b61c350608051101560445760013b506001608051016080526028565b00",
                "storage": {}
            },
            "0xa34eee061f267a63c872265bed51c483f777a7b0": {
                "nonce": "0x00",
                "balance": "0x00",
                "code": "0x6001600352604060006040600073335c5531b84765a7626e6e76688f18b81be5259c6201d4d4fa50600160205200",
                "storage": {}
            },
            "0x335c5531b84765a7626e6e76688f18b81be5259c": {
                "nonce": "0x00",
                "balance": "0x00",
                "code": "0x600160035200",
                "storage": {}
            },
            "0xebaf50debf10e08302fe4280c32df010463ca297": {
                "nonce": "0x00",
                "balance": "0x0de0b6b3a7640000",
                "code": "0x",
                "storage": {}
            }
        },
        "postState": {
            "0x000f3df6d732807ef1319fb7b8bb8522d0beac02": {
                "nonce": "0x01",
                "balance": "0x00",
                "code": "0x3373fffffffffffffffffffffffffffffffffffffffe14604d57602036146024575f5ffd5b5f35801560495762001fff810690815414603c575f5ffd5b62001fff01545f5260205ff35b5f5ffd5b62001fff42064281555f359062001fff015500",
                "storage": {
                    "0x03e8": "0x03e8"
                }
            },
            "0x6de4e4fa82a7139e6804b5b47b42e366a9595946": {
                "nonce": "0x00",
                "balance": "0x0de0b6b3a7640000",
                "code": "0x60406000604060007310345562e309b2045c737ffdd46e941710495fc4620aae60fa6000556001606f5500",
                "storage": {
                    "0x6f": "0x01"
                }
            },
            "0x10345562e309b2045c737ffdd46e941710495fc4": {
                "nonce": "0x00",
                "balance": "0x00",
                "code": "0x6001600352604060006040600073a34eee061f267a63c872265bed51c483f777a7b06206ddd0fa505b61c350608051101560445760013b506001608051016080526028565b00",
                "storage": {}
            },
            "0xa34eee061f267a63c872265bed51c483f777a7b0": {
                "nonce": "0x00",
                "balance": "0x00",
                "code": "0x6001600352604060006040600073335c5531b84765a7626e6e76688f18b81be5259c6201d4d4fa50600160205200",
                "storage": {}
            },
            "0x335c5531b84765a7626e6e76688f18b81be5259c": {
                "nonce": "0x00",
                "balance": "0x00",
                "code": "0x600160035200",
                "storage": {}
            },
            "0xebaf50debf10e08302fe4280c32df010463ca297": {
                "nonce": "0x01",
                "balance": "0x0de0b6b3a6f1dfde",
                "code": "0x",
                "storage": {}
            }
        },
        "lastblockhash": "0xdbfce0dc5d0f58dbf58faf71193f3cff0fec8297b7af6ca857802fd572d6a7a0",
        "config": {
            "network": "Cancun",
            "chainid": "0x01",
            "blobSchedule": {
                "Cancun": {
                    "target": "0x03",
                    "max": "0x06",
                    "baseFeeUpdateFraction": "0x32f0ed"
                }
            }
        },
        "genesisRLP": "0xf9023cf90236a00000000000000000000000000000000000000000000000000000000000000000a01dcc4de8dec75d7aab85b567b6ccd41ad312451b948a7413f0a142fd40d49347940000000000000000000000000000000000000000a06ecf8e046875941cf5a443538f318d8203aa94c2cd11e048f88142e218c51c55a056e81f171bcc55a6ff8345e692c0f86e5b48e01b996cadc001622fb5e363b421a056e81f171bcc55a6ff8345e692c0f86e5b48e01b996cadc001622fb5e363b421b901000000000000000000000000000000000000000000000000000000000000000000000000000000000000000000000000000000000000000000000000000000000000000000000000000000000000000000000000000000000000000000000000000000000000000000000000000000000000000000000000000000000000000000000000000000000000000000000000000000000000000000000000000000000000000000000000000000000000000000000000000000000000000000000000000000000000000000000000000000000000000000000000000000000000000000000000000000000000000000000000000000000000000000000000000000000080808401c9c380808000a000000000000000000000000000000000000000000000000000000000000000008800000000000000000ba056e81f171bcc55a6ff8345e692c0f86e5b48e01b996cadc001622fb5e363b4218080a00000000000000000000000000000000000000000000000000000000000000000c0c0c0",
        "blocks": [
            {
                "blockHeader": {
                    "parentHash": "0xd0cc7430318ffe7cc7b3bb2455240af7c76c62fd590edc8edcca8d5b091d5e66",
                    "uncleHash": "0x1dcc4de8dec75d7aab85b567b6ccd41ad312451b948a7413f0a142fd40d49347",
                    "coinbase": "0x2adc25665018aa1fe0e6bc666dac8fc2697ff9ba",
                    "stateRoot": "0xf1e20ea7cdb494d34015e2296e984ff0e00a4051f30e9e4fbb1379fe519425f9",
                    "transactionsTrie": "0x106a3c35b320ff47bdb05f3653b9c92ef89f33364eea4981932196a10bc95c60",
                    "receiptTrie": "0xeeae4a4461f7ed1a479eb1b105a1ffdb29c925dfd48d026a5251423205d54eef",
                    "bloom": "0x00000000000000000000000000000000000000000000000000000000000000000000000000000000000000000000000000000000000000000000000000000000000000000000000000000000000000000000000000000000000000000000000000000000000000000000000000000000000000000000000000000000000000000000000000000000000000000000000000000000000000000000000000000000000000000000000000000000000000000000000000000000000000000000000000000000000000000000000000000000000000000000000000000000000000000000000000000000000000000000000000000000000000000000000000000000",
                    "difficulty": "0x00",
                    "number": "0x01",
                    "gasLimit": "0x01c9c380",
                    "gasUsed": "0x0b699d",
                    "timestamp": "0x03e8",
                    "extraData": "0x00",
                    "mixHash": "0x0000000000000000000000000000000000000000000000000000000000020000",
                    "nonce": "0x0000000000000000",
                    "baseFeePerGas": "0x0a",
                    "withdrawalsRoot": "0x56e81f171bcc55a6ff8345e692c0f86e5b48e01b996cadc001622fb5e363b421",
                    "blobGasUsed": "0x00",
                    "excessBlobGas": "0x00",
                    "parentBeaconBlockRoot": "0x0000000000000000000000000000000000000000000000000000000000000000",
                    "hash": "0xdbfce0dc5d0f58dbf58faf71193f3cff0fec8297b7af6ca857802fd572d6a7a0"
                },
                "transactions": [
                    {
                        "type": "0x00",
                        "chainId": "0x01",
                        "nonce": "0x00",
                        "gasPrice": "0x0a",
                        "gasLimit": "0x1a3ec0",
                        "to": "0x6de4e4fa82a7139e6804b5b47b42e366a9595946",
                        "value": "0x00",
                        "data": "0x",
                        "v": "0x25",
                        "r": "0x7eba2b58e956b397b1ec08da12fded85089754e6c610d9516ff1ddccafc0f143",
                        "s": "0x5aa53388b89ad4212256c615dafef4136938e8d727698342b32b2c03f5d3dbe0",
                        "sender": "0xebaf50debf10e08302fe4280c32df010463ca297"
                    }
                ],
                "uncleHeaders": [],
                "withdrawals": [],
                "receipts": [
                    {
                        "transactionHash": "0xf2aa10bf168e427f7243099e65eb0cc414a4be436fdcf3be855c8d3cbbe9ea55",
                        "type": "0x00",
                        "cumulativeGasUsed": "0x0b699d",
                        "bloom": "0x00000000000000000000000000000000000000000000000000000000000000000000000000000000000000000000000000000000000000000000000000000000000000000000000000000000000000000000000000000000000000000000000000000000000000000000000000000000000000000000000000000000000000000000000000000000000000000000000000000000000000000000000000000000000000000000000000000000000000000000000000000000000000000000000000000000000000000000000000000000000000000000000000000000000000000000000000000000000000000000000000000000000000000000000000000000",
                        "logs": [],
                        "status": true,
                        "rlp": "0xf9010901830b699db9010000000000000000000000000000000000000000000000000000000000000000000000000000000000000000000000000000000000000000000000000000000000000000000000000000000000000000000000000000000000000000000000000000000000000000000000000000000000000000000000000000000000000000000000000000000000000000000000000000000000000000000000000000000000000000000000000000000000000000000000000000000000000000000000000000000000000000000000000000000000000000000000000000000000000000000000000000000000000000000000000000000000000000000000000000000000c0"
                    }
                ],
                "rlp": "0xf902a4f9023ba0d0cc7430318ffe7cc7b3bb2455240af7c76c62fd590edc8edcca8d5b091d5e66a01dcc4de8dec75d7aab85b567b6ccd41ad312451b948a7413f0a142fd40d49347942adc25665018aa1fe0e6bc666dac8fc2697ff9baa0f1e20ea7cdb494d34015e2296e984ff0e00a4051f30e9e4fbb1379fe519425f9a0106a3c35b320ff47bdb05f3653b9c92ef89f33364eea4981932196a10bc95c60a0eeae4a4461f7ed1a479eb1b105a1ffdb29c925dfd48d026a5251423205d54eefb901000000000000000000000000000000000000000000000000000000000000000000000000000000000000000000000000000000000000000000000000000000000000000000000000000000000000000000000000000000000000000000000000000000000000000000000000000000000000000000000000000000000000000000000000000000000000000000000000000000000000000000000000000000000000000000000000000000000000000000000000000000000000000000000000000000000000000000000000000000000000000000000000000000000000000000000000000000000000000000000000000000000000000000000000000000000080018401c9c380830b699d8203e800a000000000000000000000000000000000000000000000000000000000000200008800000000000000000aa056e81f171bcc55a6ff8345e692c0f86e5b48e01b996cadc001622fb5e363b4218080a00000000000000000000000000000000000000000000000000000000000000000f862f860800a831a3ec0946de4e4fa82a7139e6804b5b47b42e366a9595946808025a07eba2b58e956b397b1ec08da12fded85089754e6c610d9516ff1ddccafc0f143a05aa53388b89ad4212256c615dafef4136938e8d727698342b32b2c03f5d3dbe0c0c0",
                "blocknumber": "1"
            }
        ],
        "sealEngine": "NoProof",
        "_info": {
            "hash": "0x24d167c5e506116e4a33f929d69f16679d6920b9cd3233504a4320ac236b676a",
            "fixture-format": "blockchain_test",
            "comment": "`execution-specs` generated test",
            "filling-transition-tool": "2.19.0",
            "description": "Test_static_callcallcall_000_oogm_after2.",
            "url": "https://github.com/ethereum/execution-specs/blob/tests-bal@v5.6.1/tests/ported_static/stStaticCall/test_static_callcallcall_000_oogm_after2.py#L25",
            "metadata": {
                "opcode_count": {}
            }
        }
    }
}