{
    "tests/ported_static/stCallCodes/test_callcodecallcall_100.py::test_callcodecallcall_100[fork_Cancun-blockchain_test_from_state_test]": {
        "network": "Cancun",
        "genesisBlockHeader": {
            "parentHash": "0x0000000000000000000000000000000000000000000000000000000000000000",
            "uncleHash": "0x1dcc4de8dec75d7aab85b567b6ccd41ad312451b948a7413f0a142fd40d49347",
            "coinbase": "0x0000000000000000000000000000000000000000",
            "stateRoot": "0x9456a33e3d960f1bd6857fde1387d64c8d18e5f9331a146f7169239bdb4e898f",
            "transactionsTrie": "0x56e81f171bcc55a6ff8345e692c0f86e5b48e01b996cadc001622fb5e363b421",
            "receiptTrie": "0x56e81f171bcc55a6ff8345e692c0f86e5b48e01b996cadc001622fb5e363b421",
            "bloom": "0x00000000000000000000000000000000000000000000000000000000000000000000000000000000000000000000000000000000000000000000000000000000000000000000000000000000000000000000000000000000000000000000000000000000000000000000000000000000000000000000000000000000000000000000000000000000000000000000000000000000000000000000000000000000000000000000000000000000000000000000000000000000000000000000000000000000000000000000000000000000000000000000000000000000000000000000000000000000000000000000000000000000000000000000000000000000",
            "difficulty": "0x00",
            "number": "0x00",
            "gasLimit": "0x01c9c380",
            "gasUsed": "0x00",
            "timestamp": "0x00",
            "extraData": "0x00",
            "mixHash": "0x0000000000000000000000000000000000000000000000000000000000000000",
            "nonce": "0x0000000000000000",
            "baseFeePerGas": "0x0b",
            "withdrawalsRoot": "0x56e81f171bcc55a6ff8345e692c0f86e5b48e01b996cadc001622fb5e363b421",
            "blobGasUsed": "0x00",
            "excessBlobGas": "0x00",
            "parentBeaconBlockRoot": "0x0000000000000000000000000000000000000000000000000000000000000000",
            "hash": "0x0d6efc0b7f679b7f3b53a4f6ebf742650e8ddbd266012cc05ddf701e8c3b650f"
        },
        "pre": {
            "0x000f3df6d732807ef1319fb7b8bb8522d0beac02": {
                "nonce": "0x01",
                "balance": "0x00",
                "code": "0x3373fffffffffffffffffffffffffffffffffffffffe14604d57602036146024575f5ffd5b5f35801560495762001fff810690815414603c575f5ffd5b62001fff01545f5260205ff35b5f5ffd5b62001fff42064281555f359062001fff015500",
                "storage": {}
            },
            "0xd66f224cbd2fabb21b17bb53c56118f32f62ebd6": {
                "nonce": "0x00",
                "balance": "0x0de0b6b3a7640000",
                "code": "0x",
                "storage": {}
            },
            "0xddc8746bd83f161fca0564ef5a63daabc7ce8347": {
                "nonce": "0x00",
                "balance": "0x00",
                "code": "0x600160035533600455346007553061014a553261014c55366101505538610152553a6101545500",
                "storage": {}
            },
            "0x3a34aceae90b35e0a9a9bb42476bc6ad799d96df": {
                "nonce": "0x00",
                "balance": "0x0de0b6b3a7640000",
                "code": "0x6040600060406000600373ddc8746bd83f161fca0564ef5a63daabc7ce83476203d090f160025500",
                "storage": {}
            },
            "0x4b00b570fb874e5f260b2aff92cb937e74a5e4d4": {
                "nonce": "0x00",
                "balance": "0x0de0b6b3a7640000",
                "code": "0x60406000604060006002733a34aceae90b35e0a9a9bb42476bc6ad799d96df620493e0f160015500",
                "storage": {}
            },
            "0x8be0a87d0cd766caca095d4fe1198097067eda5b": {
                "nonce": "0x00",
                "balance": "0x0de0b6b3a7640000",
                "code": "0x60406000604060006001734b00b570fb874e5f260b2aff92cb937e74a5e4d462055730f260005500",
                "storage": {}
            }
        },
        "postState": {
            "0x000f3df6d732807ef1319fb7b8bb8522d0beac02": {
                "nonce": "0x01",
                "balance": "0x00",
                "code": "0x3373fffffffffffffffffffffffffffffffffffffffe14604d57602036146024575f5ffd5b5f35801560495762001fff810690815414603c575f5ffd5b62001fff01545f5260205ff35b5f5ffd5b62001fff42064281555f359062001fff015500",
                "storage": {
                    "0x03e8": "0x03e8"
                }
            },
            "0xd66f224cbd2fabb21b17bb53c56118f32f62ebd6": {
                "nonce": "0x01",
                "balance": "0x0de0b6b3a7376ca2",
                "code": "0x",
                "storage": {}
            },
            "0xddc8746bd83f161fca0564ef5a63daabc7ce8347": {
                "nonce": "0x00",
                "balance": "0x03",
                "code": "0x600160035533600455346007553061014a553261014c55366101505538610152553a6101545500",
                "storage": {
                    "0x03": "0x01",
                    "0x04": "0x3a34aceae90b35e0a9a9bb42476bc6ad799d96df",
                    "0x07": "0x03",
                    "0x014a": "0xddc8746bd83f161fca0564ef5a63daabc7ce8347",
                    "0x014c": "0xd66f224cbd2fabb21b17bb53c56118f32f62ebd6",
                    "0x0150": "0x40",
                    "0x0152": "0x27",
                    "0x0154": "0x0a"
                }
            },
            "0x3a34aceae90b35e0a9a9bb42476bc6ad799d96df": {
                "nonce": "0x00",
                "balance": "0x0de0b6b3a763ffff",
                "code": "0x6040600060406000600373ddc8746bd83f161fca0564ef5a63daabc7ce83476203d090f160025500",
                "storage": {
                    "0x02": "0x01"
                }
            },
            "0x4b00b570fb874e5f260b2aff92cb937e74a5e4d4": {
                "nonce": "0x00",
                "balance": "0x0de0b6b3a7640000",
                "code": "0x60406000604060006002733a34aceae90b35e0a9a9bb42476bc6ad799d96df620493e0f160015500",
                "storage": {}
            },
            "0x8be0a87d0cd766caca095d4fe1198097067eda5b": {
                "nonce": "0x00",
                "balance": "0x0de0b6b3a763fffe",
                "code": "0x60406000604060006001734b00b570fb874e5f260b2aff92cb937e74a5e4d462055730f260005500",
                "storage": {
                    "0x01": "0x01",
                    "0x00": "0x01"
                }
            }
        },
        "lastblockhash": "0xa873fa862f4ef2c5a02e0737b6aafce557e53f3902159afeb73dbe641c505515",
        "config": {
            "network": "Cancun",
            "chainid": "0x01",
            "blobSchedule": {
                "Cancun": {
                    "target": "0x03",
                    "max": "0x06",
                    "baseFeeUpdateFraction": "0x32f0ed"
                }
            }
        },
        "genesisRLP": "0xf9023cf90236a00000000000000000000000000000000000000000000000000000000000000000a01dcc4de8dec75d7aab85b567b6ccd41ad312451b948a7413f0a142fd40d49347940000000000000000000000000000000000000000a09456a33e3d960f1bd6857fde1387d64c8d18e5f9331a146f7169239bdb4e898fa056e81f171bcc55a6ff8345e692c0f86e5b48e01b996cadc001622fb5e363b421a056e81f171bcc55a6ff8345e692c0f86e5b48e01b996cadc001622fb5e363b421b901000000000000000000000000000000000000000000000000000000000000000000000000000000000000000000000000000000000000000000000000000000000000000000000000000000000000000000000000000000000000000000000000000000000000000000000000000000000000000000000000000000000000000000000000000000000000000000000000000000000000000000000000000000000000000000000000000000000000000000000000000000000000000000000000000000000000000000000000000000000000000000000000000000000000000000000000000000000000000000000000000000000000000000000000000000000080808401c9c380808000a000000000000000000000000000000000000000000000000000000000000000008800000000000000000ba056e81f171bcc55a6ff8345e692c0f86e5b48e01b996cadc001622fb5e363b4218080a00000000000000000000000000000000000000000000000000000000000000000c0c0c0",
        "blocks": [
            {
                "blockHeader": {
                    "parentHash": "0x0d6efc0b7f679b7f3b53a4f6ebf742650e8ddbd266012cc05ddf701e8c3b650f",
                    "uncleHash": "0x1dcc4de8dec75d7aab85b567b6ccd41ad312451b948a7413f0a142fd40d49347",
                    "coinbase": "0x2adc25665018aa1fe0e6bc666dac8fc2697ff9ba",
                    "stateRoot": "0x98aa68ac1aedb20a0c67c0e6ace94e3b1a8f9536e9e27ad08d58df80d16d9327",
                    "transactionsTrie": "0x689f5376d67be84f3f7a5e27b23acc21bd92271f94e3ed7c71a8db4e6583de7a",
                    "receiptTrie": "0x38e6e8f173122a72d327446b37e46d2b3845327fec4359eb39246f43d600a9fe",
                    "bloom": "0x00000000000000000000000000000000000000000000000000000000000000000000000000000000000000000000000000000000000000000000000000000000000000000000000000000000000000000000000000000000000000000000000000000000000000000000000000000000000000000000000000000000000000000000000000000000000000000000000000000000000000000000000000000000000000000000000000000000000000000000000000000000000000000000000000000000000000000000000000000000000000000000000000000000000000000000000000000000000000000000000000000000000000000000000000000000",
                    "difficulty": "0x00",
                    "number": "0x01",
                    "gasLimit": "0x01c9c380",
                    "gasUsed": "0x047523",
                    "timestamp": "0x03e8",
                    "extraData": "0x00",
                    "mixHash": "0x0000000000000000000000000000000000000000000000000000000000020000",
                    "nonce": "0x0000000000000000",
                    "baseFeePerGas": "0x0a",
                    "withdrawalsRoot": "0x56e81f171bcc55a6ff8345e692c0f86e5b48e01b996cadc001622fb5e363b421",
                    "blobGasUsed": "0x00",
                    "excessBlobGas": "0x00",
                    "parentBeaconBlockRoot": "0x0000000000000000000000000000000000000000000000000000000000000000",
                    "hash": "0xa873fa862f4ef2c5a02e0737b6aafce557e53f3902159afeb73dbe641c505515"
                },
                "transactions": [
                    {
                        "type": "0x00",
                        "chainId": "0x01",
                        "nonce": "0x00",
                        "gasPrice": "0x0a",
                        "gasLimit": "0x2dc6c0",
                        "to": "0x8be0a87d0cd766caca095d4fe1198097067eda5b",
                        "value": "0x00",
                        "data": "0x",
                        "v": "0x25",
                        "r": "0x03b2b3ebbe932f560931b7ceac3a4fb80e8db18ee38d1811233d5b544534379b",
                        "s": "0x13da8e445f91918fc48377e962d2ea356c9fd2651006e027cb48daca8cabe61d",
                        "sender": "0xd66f224cbd2fabb21b17bb53c56118f32f62ebd6"
                    }
                ],
                "uncleHeaders": [],
                "withdrawals": [],
                "receipts": [
                    {
                        "transactionHash": "0x1e72e71639e6cdc34aba554c84304436b863408616dcdfc92738e56ae22b02d5",
                        "type": "0x00",
                        "cumulativeGasUsed": "0x047523",
                        "bloom": "0x00000000000000000000000000000000000000000000000000000000000000000000000000000000000000000000000000000000000000000000000000000000000000000000000000000000000000000000000000000000000000000000000000000000000000000000000000000000000000000000000000000000000000000000000000000000000000000000000000000000000000000000000000000000000000000000000000000000000000000000000000000000000000000000000000000000000000000000000000000000000000000000000000000000000000000000000000000000000000000000000000000000000000000000000000000000",
                        "logs": [],
                        "status": true,
                        "rlp": "0xf901090183047523b9010000000000000000000000000000000000000000000000000000000000000000000000000000000000000000000000000000000000000000000000000000000000000000000000000000000000000000000000000000000000000000000000000000000000000000000000000000000000000000000000000000000000000000000000000000000000000000000000000000000000000000000000000000000000000000000000000000000000000000000000000000000000000000000000000000000000000000000000000000000000000000000000000000000000000000000000000000000000000000000000000000000000000000000000000000000000c0"
                    }
                ],
                "rlp": "0xf902a4f9023ba00d6efc0b7f679b7f3b53a4f6ebf742650e8ddbd266012cc05ddf701e8c3b650fa01dcc4de8dec75d7aab85b567b6ccd41ad312451b948a7413f0a142fd40d49347942adc25665018aa1fe0e6bc666dac8fc2697ff9baa098aa68ac1aedb20a0c67c0e6ace94e3b1a8f9536e9e27ad08d58df80d16d9327a0689f5376d67be84f3f7a5e27b23acc21bd92271f94e3ed7c71a8db4e6583de7aa038e6e8f173122a72d327446b37e46d2b3845327fec4359eb39246f43d600a9feb901000000000000000000000000000000000000000000000000000000000000000000000000000000000000000000000000000000000000000000000000000000000000000000000000000000000000000000000000000000000000000000000000000000000000000000000000000000000000000000000000000000000000000000000000000000000000000000000000000000000000000000000000000000000000000000000000000000000000000000000000000000000000000000000000000000000000000000000000000000000000000000000000000000000000000000000000000000000000000000000000000000000000000000000000000000000080018401c9c380830475238203e800a000000000000000000000000000000000000000000000000000000000000200008800000000000000000aa056e81f171bcc55a6ff8345e692c0f86e5b48e01b996cadc001622fb5e363b4218080a00000000000000000000000000000000000000000000000000000000000000000f862f860800a832dc6c0948be0a87d0cd766caca095d4fe1198097067eda5b808025a003b2b3ebbe932f560931b7ceac3a4fb80e8db18ee38d1811233d5b544534379ba013da8e445f91918fc48377e962d2ea356c9fd2651006e027cb48daca8cabe61dc0c0",
                "blocknumber": "1"
            }
        ],
        "sealEngine": "NoProof",
        "_info": {
            "hash": "0x142a3e5e914388100371042cf0c6f01e5085f91a1326ab5b5e63453019e845c7",
            "fixture-format": "blockchain_test",
            "comment": "`execution-specs` generated test",
            "filling-transition-tool": "2.19.0",
            "description": "CALLCODE -> CALL -> CALL-> code, params check.",
            "url": "https://github.com/ethereum/execution-specs/blob/tests-snobal-devnet-5@v8037.0.0/tests/ported_static/stCallCodes/test_callcodecallcall_100.py#L24",
            "metadata": {
                "opcode_count": {}
            }
        }
    }
}