{
    "tests/ported_static/stCallDelegateCodesHomestead/test_callcallcallcode_abcb_recursive.py::test_callcallcallcode_abcb_recursive[fork_Cancun-blockchain_test_from_state_test]": {
        "network": "Cancun",
        "genesisBlockHeader": {
            "parentHash": "0x0000000000000000000000000000000000000000000000000000000000000000",
            "uncleHash": "0x1dcc4de8dec75d7aab85b567b6ccd41ad312451b948a7413f0a142fd40d49347",
            "coinbase": "0x0000000000000000000000000000000000000000",
            "stateRoot": "0x39604bdc0f9b835be87b211ff0066ad3bdee7afc284b566c4daaf7b30d6ba36c",
            "transactionsTrie": "0x56e81f171bcc55a6ff8345e692c0f86e5b48e01b996cadc001622fb5e363b421",
            "receiptTrie": "0x56e81f171bcc55a6ff8345e692c0f86e5b48e01b996cadc001622fb5e363b421",
            "bloom": "0x00000000000000000000000000000000000000000000000000000000000000000000000000000000000000000000000000000000000000000000000000000000000000000000000000000000000000000000000000000000000000000000000000000000000000000000000000000000000000000000000000000000000000000000000000000000000000000000000000000000000000000000000000000000000000000000000000000000000000000000000000000000000000000000000000000000000000000000000000000000000000000000000000000000000000000000000000000000000000000000000000000000000000000000000000000000",
            "difficulty": "0x00",
            "number": "0x00",
            "gasLimit": "0xb2d05e00",
            "gasUsed": "0x00",
            "timestamp": "0x00",
            "extraData": "0x00",
            "mixHash": "0x0000000000000000000000000000000000000000000000000000000000000000",
            "nonce": "0x0000000000000000",
            "baseFeePerGas": "0x0b",
            "withdrawalsRoot": "0x56e81f171bcc55a6ff8345e692c0f86e5b48e01b996cadc001622fb5e363b421",
            "blobGasUsed": "0x00",
            "excessBlobGas": "0x00",
            "parentBeaconBlockRoot": "0x0000000000000000000000000000000000000000000000000000000000000000",
            "hash": "0x6d17ac0cc7ee4c0e1e6158b339a59b4c19d937106de762d74b67122c916752fd"
        },
        "pre": {
            "0x000f3df6d732807ef1319fb7b8bb8522d0beac02": {
                "nonce": "0x01",
                "balance": "0x00",
                "code": "0x3373fffffffffffffffffffffffffffffffffffffffe14604d57602036146024575f5ffd5b5f35801560495762001fff810690815414603c575f5ffd5b62001fff01545f5260205ff35b5f5ffd5b62001fff42064281555f359062001fff015500",
                "storage": {}
            },
            "0x039f3900e280b9c74d46e825b0b3814df4d705ac": {
                "nonce": "0x00",
                "balance": "0x0de0b6b3a7640000",
                "code": "0x604060006040600060007366c0d9f841a86866465e6385c3827be02b58002063017d7840f160005500",
                "storage": {}
            },
            "0x66c0d9f841a86866465e6385c3827be02b580020": {
                "nonce": "0x00",
                "balance": "0x02540be400",
                "code": "0x6040600060406000600073a72f0e2f2fc5fd0878af9b8e4aaed09983670929620f4240f160015500",
                "storage": {}
            },
            "0xa72f0e2f2fc5fd0878af9b8e4aaed09983670929": {
                "nonce": "0x00",
                "balance": "0x02540be400",
                "code": "0x60406000604060007366c0d9f841a86866465e6385c3827be02b5800206207a120f460025500",
                "storage": {}
            },
            "0xebaf50debf10e08302fe4280c32df010463ca297": {
                "nonce": "0x00",
                "balance": "0x0de0b6b3a7640000",
                "code": "0x",
                "storage": {}
            }
        },
        "postState": {
            "0x000f3df6d732807ef1319fb7b8bb8522d0beac02": {
                "nonce": "0x01",
                "balance": "0x00",
                "code": "0x3373fffffffffffffffffffffffffffffffffffffffe14604d57602036146024575f5ffd5b5f35801560495762001fff810690815414603c575f5ffd5b62001fff01545f5260205ff35b5f5ffd5b62001fff42064281555f359062001fff015500",
                "storage": {
                    "0x03e8": "0x03e8"
                }
            },
            "0x039f3900e280b9c74d46e825b0b3814df4d705ac": {
                "nonce": "0x00",
                "balance": "0x0de0b6b3a7640000",
                "code": "0x604060006040600060007366c0d9f841a86866465e6385c3827be02b58002063017d7840f160005500",
                "storage": {
                    "0x00": "0x01"
                }
            },
            "0x66c0d9f841a86866465e6385c3827be02b580020": {
                "nonce": "0x00",
                "balance": "0x02540be400",
                "code": "0x6040600060406000600073a72f0e2f2fc5fd0878af9b8e4aaed09983670929620f4240f160015500",
                "storage": {
                    "0x01": "0x01"
                }
            },
            "0xa72f0e2f2fc5fd0878af9b8e4aaed09983670929": {
                "nonce": "0x00",
                "balance": "0x02540be400",
                "code": "0x60406000604060007366c0d9f841a86866465e6385c3827be02b5800206207a120f460025500",
                "storage": {}
            },
            "0xebaf50debf10e08302fe4280c32df010463ca297": {
                "nonce": "0x01",
                "balance": "0x0de0b6b3a70c9982",
                "code": "0x",
                "storage": {}
            }
        },
        "lastblockhash": "0x948615a852e2473817be06c97f72093aaf6b61ac10bd9d92e4d250624b9d0681",
        "config": {
            "network": "Cancun",
            "chainid": "0x01",
            "blobSchedule": {
                "Cancun": {
                    "target": "0x03",
                    "max": "0x06",
                    "baseFeeUpdateFraction": "0x32f0ed"
                }
            }
        },
        "genesisRLP": "0xf9023cf90236a00000000000000000000000000000000000000000000000000000000000000000a01dcc4de8dec75d7aab85b567b6ccd41ad312451b948a7413f0a142fd40d49347940000000000000000000000000000000000000000a039604bdc0f9b835be87b211ff0066ad3bdee7afc284b566c4daaf7b30d6ba36ca056e81f171bcc55a6ff8345e692c0f86e5b48e01b996cadc001622fb5e363b421a056e81f171bcc55a6ff8345e692c0f86e5b48e01b996cadc001622fb5e363b421b9010000000000000000000000000000000000000000000000000000000000000000000000000000000000000000000000000000000000000000000000000000000000000000000000000000000000000000000000000000000000000000000000000000000000000000000000000000000000000000000000000000000000000000000000000000000000000000000000000000000000000000000000000000000000000000000000000000000000000000000000000000000000000000000000000000000000000000000000000000000000000000000000000000000000000000000000000000000000000000000000000000000000000000000000000000000000808084b2d05e00808000a000000000000000000000000000000000000000000000000000000000000000008800000000000000000ba056e81f171bcc55a6ff8345e692c0f86e5b48e01b996cadc001622fb5e363b4218080a00000000000000000000000000000000000000000000000000000000000000000c0c0c0",
        "blocks": [
            {
                "blockHeader": {
                    "parentHash": "0x6d17ac0cc7ee4c0e1e6158b339a59b4c19d937106de762d74b67122c916752fd",
                    "uncleHash": "0x1dcc4de8dec75d7aab85b567b6ccd41ad312451b948a7413f0a142fd40d49347",
                    "coinbase": "0x2adc25665018aa1fe0e6bc666dac8fc2697ff9ba",
                    "stateRoot": "0x489b6a6f4599c1eee7e97554f2f7c317711e73a177371954577494cc76850ef0",
                    "transactionsTrie": "0x7fcdfe57580d76c6e9993524f797eb8deb6d99ccfaa08ee5dce5063ee7e248b4",
                    "receiptTrie": "0x4a99ab751d70eb26bc98259a078eb0b4033ce1c4df69c3e5f978468b8ad950ec",
                    "bloom": "0x00000000000000000000000000000000000000000000000000000000000000000000000000000000000000000000000000000000000000000000000000000000000000000000000000000000000000000000000000000000000000000000000000000000000000000000000000000000000000000000000000000000000000000000000000000000000000000000000000000000000000000000000000000000000000000000000000000000000000000000000000000000000000000000000000000000000000000000000000000000000000000000000000000000000000000000000000000000000000000000000000000000000000000000000000000000",
                    "difficulty": "0x00",
                    "number": "0x01",
                    "gasLimit": "0xb2d05e00",
                    "gasUsed": "0x08bd73",
                    "timestamp": "0x03e8",
                    "extraData": "0x00",
                    "mixHash": "0x0000000000000000000000000000000000000000000000000000000000020000",
                    "nonce": "0x0000000000000000",
                    "baseFeePerGas": "0x0a",
                    "withdrawalsRoot": "0x56e81f171bcc55a6ff8345e692c0f86e5b48e01b996cadc001622fb5e363b421",
                    "blobGasUsed": "0x00",
                    "excessBlobGas": "0x00",
                    "parentBeaconBlockRoot": "0x0000000000000000000000000000000000000000000000000000000000000000",
                    "hash": "0x948615a852e2473817be06c97f72093aaf6b61ac10bd9d92e4d250624b9d0681"
                },
                "transactions": [
                    {
                        "type": "0x00",
                        "chainId": "0x01",
                        "nonce": "0x00",
                        "gasPrice": "0x0a",
                        "gasLimit": "0x0927c0",
                        "to": "0x039f3900e280b9c74d46e825b0b3814df4d705ac",
                        "value": "0x00",
                        "data": "0x",
                        "v": "0x25",
                        "r": "0xb4c52d465ea840b81e90afa8a9dd69ee2777762f8eda41f6cb4fbe750de69c66",
                        "s": "0x49de6511b5f0a206bbf202209f1b0d96bf418182da83e542b3d8559816c7c03c",
                        "sender": "0xebaf50debf10e08302fe4280c32df010463ca297"
                    }
                ],
                "uncleHeaders": [],
                "withdrawals": [],
                "receipts": [
                    {
                        "transactionHash": "0x8eca039da416638eb07cea6d3599d7a5e5089cff3b94af6cc221bdf878094599",
                        "type": "0x00",
                        "cumulativeGasUsed": "0x08bd73",
                        "bloom": "0x00000000000000000000000000000000000000000000000000000000000000000000000000000000000000000000000000000000000000000000000000000000000000000000000000000000000000000000000000000000000000000000000000000000000000000000000000000000000000000000000000000000000000000000000000000000000000000000000000000000000000000000000000000000000000000000000000000000000000000000000000000000000000000000000000000000000000000000000000000000000000000000000000000000000000000000000000000000000000000000000000000000000000000000000000000000",
                        "logs": [],
                        "status": true,
                        "rlp": "0xf90109018308bd73b9010000000000000000000000000000000000000000000000000000000000000000000000000000000000000000000000000000000000000000000000000000000000000000000000000000000000000000000000000000000000000000000000000000000000000000000000000000000000000000000000000000000000000000000000000000000000000000000000000000000000000000000000000000000000000000000000000000000000000000000000000000000000000000000000000000000000000000000000000000000000000000000000000000000000000000000000000000000000000000000000000000000000000000000000000000000000c0"
                    }
                ],
                "rlp": "0xf902a4f9023ba06d17ac0cc7ee4c0e1e6158b339a59b4c19d937106de762d74b67122c916752fda01dcc4de8dec75d7aab85b567b6ccd41ad312451b948a7413f0a142fd40d49347942adc25665018aa1fe0e6bc666dac8fc2697ff9baa0489b6a6f4599c1eee7e97554f2f7c317711e73a177371954577494cc76850ef0a07fcdfe57580d76c6e9993524f797eb8deb6d99ccfaa08ee5dce5063ee7e248b4a04a99ab751d70eb26bc98259a078eb0b4033ce1c4df69c3e5f978468b8ad950ecb9010000000000000000000000000000000000000000000000000000000000000000000000000000000000000000000000000000000000000000000000000000000000000000000000000000000000000000000000000000000000000000000000000000000000000000000000000000000000000000000000000000000000000000000000000000000000000000000000000000000000000000000000000000000000000000000000000000000000000000000000000000000000000000000000000000000000000000000000000000000000000000000000000000000000000000000000000000000000000000000000000000000000000000000000000000000000800184b2d05e008308bd738203e800a000000000000000000000000000000000000000000000000000000000000200008800000000000000000aa056e81f171bcc55a6ff8345e692c0f86e5b48e01b996cadc001622fb5e363b4218080a00000000000000000000000000000000000000000000000000000000000000000f862f860800a830927c094039f3900e280b9c74d46e825b0b3814df4d705ac808025a0b4c52d465ea840b81e90afa8a9dd69ee2777762f8eda41f6cb4fbe750de69c66a049de6511b5f0a206bbf202209f1b0d96bf418182da83e542b3d8559816c7c03cc0c0",
                "blocknumber": "1"
            }
        ],
        "sealEngine": "NoProof",
        "_info": {
            "hash": "0xb910db185b93921ecace4468380a66dad6edf69be9aad39a1676f4e56a5c6552",
            "fixture-format": "blockchain_test",
            "comment": "`execution-specs` generated test",
            "filling-transition-tool": "2.19.0",
            "description": "CALL -> CALL2 -> DELEGATECALL -> CALL2 -> .",
            "url": "https://github.com/ethereum/execution-specs/blob/tests-bal@v5.6.0/tests/ported_static/stCallDelegateCodesHomestead/test_callcallcallcode_abcb_recursive.py#L27",
            "metadata": {
                "opcode_count": {}
            }
        }
    }
}