{
    "tests/ported_static/stCallCodes/test_callcodecallcodecallcode_111.py::test_callcodecallcodecallcode_111[fork_Cancun-blockchain_test_from_state_test]": {
        "network": "Cancun",
        "genesisBlockHeader": {
            "parentHash": "0x0000000000000000000000000000000000000000000000000000000000000000",
            "uncleHash": "0x1dcc4de8dec75d7aab85b567b6ccd41ad312451b948a7413f0a142fd40d49347",
            "coinbase": "0x0000000000000000000000000000000000000000",
            "stateRoot": "0x76dda645e17573e240c91c522bbb5d29db456655c86e2e7d0034976b0cf7c459",
            "transactionsTrie": "0x56e81f171bcc55a6ff8345e692c0f86e5b48e01b996cadc001622fb5e363b421",
            "receiptTrie": "0x56e81f171bcc55a6ff8345e692c0f86e5b48e01b996cadc001622fb5e363b421",
            "bloom": "0x00000000000000000000000000000000000000000000000000000000000000000000000000000000000000000000000000000000000000000000000000000000000000000000000000000000000000000000000000000000000000000000000000000000000000000000000000000000000000000000000000000000000000000000000000000000000000000000000000000000000000000000000000000000000000000000000000000000000000000000000000000000000000000000000000000000000000000000000000000000000000000000000000000000000000000000000000000000000000000000000000000000000000000000000000000000",
            "difficulty": "0x00",
            "number": "0x00",
            "gasLimit": "0x01c9c380",
            "gasUsed": "0x00",
            "timestamp": "0x00",
            "extraData": "0x00",
            "mixHash": "0x0000000000000000000000000000000000000000000000000000000000000000",
            "nonce": "0x0000000000000000",
            "baseFeePerGas": "0x0b",
            "withdrawalsRoot": "0x56e81f171bcc55a6ff8345e692c0f86e5b48e01b996cadc001622fb5e363b421",
            "blobGasUsed": "0x00",
            "excessBlobGas": "0x00",
            "parentBeaconBlockRoot": "0x0000000000000000000000000000000000000000000000000000000000000000",
            "hash": "0x59a5b5f42fed1e5a33bd1645540d474f68a420ff388b8457ea1785b94fdc7693"
        },
        "pre": {
            "0x000f3df6d732807ef1319fb7b8bb8522d0beac02": {
                "nonce": "0x01",
                "balance": "0x00",
                "code": "0x3373fffffffffffffffffffffffffffffffffffffffe14604d57602036146024575f5ffd5b5f35801560495762001fff810690815414603c575f5ffd5b62001fff01545f5260205ff35b5f5ffd5b62001fff42064281555f359062001fff015500",
                "storage": {}
            },
            "0xdb43306b16c521b9cc3667fbe7d1b697bb1f9605": {
                "nonce": "0x00",
                "balance": "0x0de0b6b3a7640000",
                "code": "0x60406000604060006001734c0de71b93de6b7055a3686e4bf93add02b39ed862055730f260005500",
                "storage": {}
            },
            "0x4c0de71b93de6b7055a3686e4bf93add02b39ed8": {
                "nonce": "0x00",
                "balance": "0x0de0b6b3a7640000",
                "code": "0x60406000604060006002730ffffaeb931552e5f094ca96a70be612da56b887620493e0f260015500",
                "storage": {}
            },
            "0x0ffffaeb931552e5f094ca96a70be612da56b887": {
                "nonce": "0x00",
                "balance": "0x0de0b6b3a7640000",
                "code": "0x60406000604060006003737e63847aad8ca50fb7c04777dce6871a6bf8de0c6203d090f260025500",
                "storage": {}
            },
            "0x7e63847aad8ca50fb7c04777dce6871a6bf8de0c": {
                "nonce": "0x00",
                "balance": "0x00",
                "code": "0x600160035533600455346007553061014a553261014c55366101505538610152553a6101545500",
                "storage": {}
            },
            "0xebaf50debf10e08302fe4280c32df010463ca297": {
                "nonce": "0x00",
                "balance": "0x0de0b6b3a7640000",
                "code": "0x",
                "storage": {}
            }
        },
        "postState": {
            "0x000f3df6d732807ef1319fb7b8bb8522d0beac02": {
                "nonce": "0x01",
                "balance": "0x00",
                "code": "0x3373fffffffffffffffffffffffffffffffffffffffe14604d57602036146024575f5ffd5b5f35801560495762001fff810690815414603c575f5ffd5b62001fff01545f5260205ff35b5f5ffd5b62001fff42064281555f359062001fff015500",
                "storage": {
                    "0x03e8": "0x03e8"
                }
            },
            "0xdb43306b16c521b9cc3667fbe7d1b697bb1f9605": {
                "nonce": "0x00",
                "balance": "0x0de0b6b3a7640000",
                "code": "0x60406000604060006001734c0de71b93de6b7055a3686e4bf93add02b39ed862055730f260005500",
                "storage": {
                    "0x03": "0x01",
                    "0x04": "0xdb43306b16c521b9cc3667fbe7d1b697bb1f9605",
                    "0x07": "0x03",
                    "0x014a": "0xdb43306b16c521b9cc3667fbe7d1b697bb1f9605",
                    "0x014c": "0xebaf50debf10e08302fe4280c32df010463ca297",
                    "0x0150": "0x40",
                    "0x0152": "0x27",
                    "0x0154": "0x0a",
                    "0x02": "0x01",
                    "0x01": "0x01",
                    "0x00": "0x01"
                }
            },
            "0x4c0de71b93de6b7055a3686e4bf93add02b39ed8": {
                "nonce": "0x00",
                "balance": "0x0de0b6b3a7640000",
                "code": "0x60406000604060006002730ffffaeb931552e5f094ca96a70be612da56b887620493e0f260015500",
                "storage": {}
            },
            "0x0ffffaeb931552e5f094ca96a70be612da56b887": {
                "nonce": "0x00",
                "balance": "0x0de0b6b3a7640000",
                "code": "0x60406000604060006003737e63847aad8ca50fb7c04777dce6871a6bf8de0c6203d090f260025500",
                "storage": {}
            },
            "0x7e63847aad8ca50fb7c04777dce6871a6bf8de0c": {
                "nonce": "0x00",
                "balance": "0x00",
                "code": "0x600160035533600455346007553061014a553261014c55366101505538610152553a6101545500",
                "storage": {}
            },
            "0xebaf50debf10e08302fe4280c32df010463ca297": {
                "nonce": "0x01",
                "balance": "0x0de0b6b3a7376ca2",
                "code": "0x",
                "storage": {}
            }
        },
        "lastblockhash": "0x0b4e3ded02958103ccec67e9175192d47a99cdcb8cc18fb3a27432920da80758",
        "config": {
            "network": "Cancun",
            "chainid": "0x01",
            "blobSchedule": {
                "Cancun": {
                    "target": "0x03",
                    "max": "0x06",
                    "baseFeeUpdateFraction": "0x32f0ed"
                }
            }
        },
        "genesisRLP": "0xf9023cf90236a00000000000000000000000000000000000000000000000000000000000000000a01dcc4de8dec75d7aab85b567b6ccd41ad312451b948a7413f0a142fd40d49347940000000000000000000000000000000000000000a076dda645e17573e240c91c522bbb5d29db456655c86e2e7d0034976b0cf7c459a056e81f171bcc55a6ff8345e692c0f86e5b48e01b996cadc001622fb5e363b421a056e81f171bcc55a6ff8345e692c0f86e5b48e01b996cadc001622fb5e363b421b901000000000000000000000000000000000000000000000000000000000000000000000000000000000000000000000000000000000000000000000000000000000000000000000000000000000000000000000000000000000000000000000000000000000000000000000000000000000000000000000000000000000000000000000000000000000000000000000000000000000000000000000000000000000000000000000000000000000000000000000000000000000000000000000000000000000000000000000000000000000000000000000000000000000000000000000000000000000000000000000000000000000000000000000000000000000080808401c9c380808000a000000000000000000000000000000000000000000000000000000000000000008800000000000000000ba056e81f171bcc55a6ff8345e692c0f86e5b48e01b996cadc001622fb5e363b4218080a00000000000000000000000000000000000000000000000000000000000000000c0c0c0",
        "blocks": [
            {
                "blockHeader": {
                    "parentHash": "0x59a5b5f42fed1e5a33bd1645540d474f68a420ff388b8457ea1785b94fdc7693",
                    "uncleHash": "0x1dcc4de8dec75d7aab85b567b6ccd41ad312451b948a7413f0a142fd40d49347",
                    "coinbase": "0x2adc25665018aa1fe0e6bc666dac8fc2697ff9ba",
                    "stateRoot": "0x31a6582da81e5b82b2e72de688c1fa03922ba375f8b7035f3da08c9cbfa84440",
                    "transactionsTrie": "0x12964b81a5b591a833af407fda277d2b80d9dc40052de8bad56df4f915427a64",
                    "receiptTrie": "0x38e6e8f173122a72d327446b37e46d2b3845327fec4359eb39246f43d600a9fe",
                    "bloom": "0x00000000000000000000000000000000000000000000000000000000000000000000000000000000000000000000000000000000000000000000000000000000000000000000000000000000000000000000000000000000000000000000000000000000000000000000000000000000000000000000000000000000000000000000000000000000000000000000000000000000000000000000000000000000000000000000000000000000000000000000000000000000000000000000000000000000000000000000000000000000000000000000000000000000000000000000000000000000000000000000000000000000000000000000000000000000",
                    "difficulty": "0x00",
                    "number": "0x01",
                    "gasLimit": "0x01c9c380",
                    "gasUsed": "0x047523",
                    "timestamp": "0x03e8",
                    "extraData": "0x00",
                    "mixHash": "0x0000000000000000000000000000000000000000000000000000000000020000",
                    "nonce": "0x0000000000000000",
                    "baseFeePerGas": "0x0a",
                    "withdrawalsRoot": "0x56e81f171bcc55a6ff8345e692c0f86e5b48e01b996cadc001622fb5e363b421",
                    "blobGasUsed": "0x00",
                    "excessBlobGas": "0x00",
                    "parentBeaconBlockRoot": "0x0000000000000000000000000000000000000000000000000000000000000000",
                    "hash": "0x0b4e3ded02958103ccec67e9175192d47a99cdcb8cc18fb3a27432920da80758"
                },
                "transactions": [
                    {
                        "type": "0x00",
                        "chainId": "0x01",
                        "nonce": "0x00",
                        "gasPrice": "0x0a",
                        "gasLimit": "0x2dc6c0",
                        "to": "0xdb43306b16c521b9cc3667fbe7d1b697bb1f9605",
                        "value": "0x00",
                        "data": "0x",
                        "v": "0x25",
                        "r": "0x73a7eabb6c45686e1a51a960740cf6b3ef23e83151552c621de30a718d27e2fb",
                        "s": "0x1604bb670de19675842085977eed289389b03d7f1dc1ac209563adcdc2f08795",
                        "sender": "0xebaf50debf10e08302fe4280c32df010463ca297"
                    }
                ],
                "uncleHeaders": [],
                "withdrawals": [],
                "receipts": [
                    {
                        "transactionHash": "0x111fd42a9d2e2197257fa19766edc3c7fd2f8d9ee75197fd02359aca0c7af7a0",
                        "type": "0x00",
                        "cumulativeGasUsed": "0x047523",
                        "bloom": "0x00000000000000000000000000000000000000000000000000000000000000000000000000000000000000000000000000000000000000000000000000000000000000000000000000000000000000000000000000000000000000000000000000000000000000000000000000000000000000000000000000000000000000000000000000000000000000000000000000000000000000000000000000000000000000000000000000000000000000000000000000000000000000000000000000000000000000000000000000000000000000000000000000000000000000000000000000000000000000000000000000000000000000000000000000000000",
                        "logs": [],
                        "status": true,
                        "rlp": "0xf901090183047523b9010000000000000000000000000000000000000000000000000000000000000000000000000000000000000000000000000000000000000000000000000000000000000000000000000000000000000000000000000000000000000000000000000000000000000000000000000000000000000000000000000000000000000000000000000000000000000000000000000000000000000000000000000000000000000000000000000000000000000000000000000000000000000000000000000000000000000000000000000000000000000000000000000000000000000000000000000000000000000000000000000000000000000000000000000000000000c0"
                    }
                ],
                "rlp": "0xf902a4f9023ba059a5b5f42fed1e5a33bd1645540d474f68a420ff388b8457ea1785b94fdc7693a01dcc4de8dec75d7aab85b567b6ccd41ad312451b948a7413f0a142fd40d49347942adc25665018aa1fe0e6bc666dac8fc2697ff9baa031a6582da81e5b82b2e72de688c1fa03922ba375f8b7035f3da08c9cbfa84440a012964b81a5b591a833af407fda277d2b80d9dc40052de8bad56df4f915427a64a038e6e8f173122a72d327446b37e46d2b3845327fec4359eb39246f43d600a9feb901000000000000000000000000000000000000000000000000000000000000000000000000000000000000000000000000000000000000000000000000000000000000000000000000000000000000000000000000000000000000000000000000000000000000000000000000000000000000000000000000000000000000000000000000000000000000000000000000000000000000000000000000000000000000000000000000000000000000000000000000000000000000000000000000000000000000000000000000000000000000000000000000000000000000000000000000000000000000000000000000000000000000000000000000000000000080018401c9c380830475238203e800a000000000000000000000000000000000000000000000000000000000000200008800000000000000000aa056e81f171bcc55a6ff8345e692c0f86e5b48e01b996cadc001622fb5e363b4218080a00000000000000000000000000000000000000000000000000000000000000000f862f860800a832dc6c094db43306b16c521b9cc3667fbe7d1b697bb1f9605808025a073a7eabb6c45686e1a51a960740cf6b3ef23e83151552c621de30a718d27e2fba01604bb670de19675842085977eed289389b03d7f1dc1ac209563adcdc2f08795c0c0",
                "blocknumber": "1"
            }
        ],
        "sealEngine": "NoProof",
        "_info": {
            "hash": "0x40fadf8689a69dd7b5921441968d7a6f49512936afccb5910c1ccff04d5714f7",
            "fixture-format": "blockchain_test",
            "comment": "`execution-specs` generated test",
            "filling-transition-tool": "2.19.0",
            "description": "CALLCODE -> CALLCODE -> CALLCODE -> code check parameter opcodes.",
            "url": "https://github.com/ethereum/execution-specs/blob/tests-sn\u00f8bal-devnet-4@v1.0.0/tests/ported_static/stCallCodes/test_callcodecallcodecallcode_111.py#L25",
            "metadata": {
                "opcode_count": {}
            }
        }
    }
}