{
    "tests/ported_static/stEIP150Specific/test_suicide_to_not_existing_contract.py::test_suicide_to_not_existing_contract[fork_Cancun-blockchain_test_from_state_test]": {
        "network": "Cancun",
        "genesisBlockHeader": {
            "parentHash": "0x0000000000000000000000000000000000000000000000000000000000000000",
            "uncleHash": "0x1dcc4de8dec75d7aab85b567b6ccd41ad312451b948a7413f0a142fd40d49347",
            "coinbase": "0x0000000000000000000000000000000000000000",
            "stateRoot": "0xaf9b592e2545a53d8948482cfc8400c015ad7b1a71ff76ace6fb8966e9de3aad",
            "transactionsTrie": "0x56e81f171bcc55a6ff8345e692c0f86e5b48e01b996cadc001622fb5e363b421",
            "receiptTrie": "0x56e81f171bcc55a6ff8345e692c0f86e5b48e01b996cadc001622fb5e363b421",
            "bloom": "0x00000000000000000000000000000000000000000000000000000000000000000000000000000000000000000000000000000000000000000000000000000000000000000000000000000000000000000000000000000000000000000000000000000000000000000000000000000000000000000000000000000000000000000000000000000000000000000000000000000000000000000000000000000000000000000000000000000000000000000000000000000000000000000000000000000000000000000000000000000000000000000000000000000000000000000000000000000000000000000000000000000000000000000000000000000000",
            "difficulty": "0x00",
            "number": "0x00",
            "gasLimit": "0x989680",
            "gasUsed": "0x00",
            "timestamp": "0x00",
            "extraData": "0x00",
            "mixHash": "0x0000000000000000000000000000000000000000000000000000000000000000",
            "nonce": "0x0000000000000000",
            "baseFeePerGas": "0x0b",
            "withdrawalsRoot": "0x56e81f171bcc55a6ff8345e692c0f86e5b48e01b996cadc001622fb5e363b421",
            "blobGasUsed": "0x00",
            "excessBlobGas": "0x00",
            "parentBeaconBlockRoot": "0x0000000000000000000000000000000000000000000000000000000000000000",
            "hash": "0xbaa3fdb737609d43c80466bcda15fe1d880b15149856547fa593d50df08277a8"
        },
        "pre": {
            "0x000f3df6d732807ef1319fb7b8bb8522d0beac02": {
                "nonce": "0x01",
                "balance": "0x00",
                "code": "0x3373fffffffffffffffffffffffffffffffffffffffe14604d57602036146024575f5ffd5b5f35801560495762001fff810690815414603c575f5ffd5b62001fff01545f5260205ff35b5f5ffd5b62001fff42064281555f359062001fff015500",
                "storage": {}
            },
            "0xd719ccdb2301950b0a0bdf09a2bb1d5f8b225f6f": {
                "nonce": "0x00",
                "balance": "0xe8d4a51000",
                "code": "0x",
                "storage": {}
            },
            "0x08ba0969efaba4a59a77d1520c17544d4240b35f": {
                "nonce": "0x00",
                "balance": "0x00",
                "code": "0x732000000000000000000000000000000000000115ff00",
                "storage": {}
            },
            "0xc6697d4d8d26312640216d31c529683b8ab395e8": {
                "nonce": "0x00",
                "balance": "0x00",
                "code": "0x5a600052600060006000600060007308ba0969efaba4a59a77d1520c17544d4240b35f61ea60f1505a6000510360015500",
                "storage": {}
            }
        },
        "postState": {
            "0x000f3df6d732807ef1319fb7b8bb8522d0beac02": {
                "nonce": "0x01",
                "balance": "0x00",
                "code": "0x3373fffffffffffffffffffffffffffffffffffffffe14604d57602036146024575f5ffd5b5f35801560495762001fff810690815414603c575f5ffd5b62001fff01545f5260205ff35b5f5ffd5b62001fff42064281555f359062001fff015500",
                "storage": {
                    "0x03e8": "0x03e8"
                }
            },
            "0xd719ccdb2301950b0a0bdf09a2bb1d5f8b225f6f": {
                "nonce": "0x01",
                "balance": "0xe8d49cebfa",
                "code": "0x",
                "storage": {}
            },
            "0x08ba0969efaba4a59a77d1520c17544d4240b35f": {
                "nonce": "0x00",
                "balance": "0x00",
                "code": "0x732000000000000000000000000000000000000115ff00",
                "storage": {}
            },
            "0xc6697d4d8d26312640216d31c529683b8ab395e8": {
                "nonce": "0x00",
                "balance": "0x00",
                "code": "0x5a600052600060006000600060007308ba0969efaba4a59a77d1520c17544d4240b35f61ea60f1505a6000510360015500",
                "storage": {
                    "0x01": "0x27fd"
                }
            }
        },
        "lastblockhash": "0xf96c1a02b7a397cb4e8a8d4df1255d22f0884bbcc7e6202c0fb3ea58ba596e43",
        "config": {
            "network": "Cancun",
            "chainid": "0x01",
            "blobSchedule": {
                "Cancun": {
                    "target": "0x03",
                    "max": "0x06",
                    "baseFeeUpdateFraction": "0x32f0ed"
                }
            }
        },
        "genesisRLP": "0xf9023bf90235a00000000000000000000000000000000000000000000000000000000000000000a01dcc4de8dec75d7aab85b567b6ccd41ad312451b948a7413f0a142fd40d49347940000000000000000000000000000000000000000a0af9b592e2545a53d8948482cfc8400c015ad7b1a71ff76ace6fb8966e9de3aada056e81f171bcc55a6ff8345e692c0f86e5b48e01b996cadc001622fb5e363b421a056e81f171bcc55a6ff8345e692c0f86e5b48e01b996cadc001622fb5e363b421b9010000000000000000000000000000000000000000000000000000000000000000000000000000000000000000000000000000000000000000000000000000000000000000000000000000000000000000000000000000000000000000000000000000000000000000000000000000000000000000000000000000000000000000000000000000000000000000000000000000000000000000000000000000000000000000000000000000000000000000000000000000000000000000000000000000000000000000000000000000000000000000000000000000000000000000000000000000000000000000000000000000000000000000000000000000000000808083989680808000a000000000000000000000000000000000000000000000000000000000000000008800000000000000000ba056e81f171bcc55a6ff8345e692c0f86e5b48e01b996cadc001622fb5e363b4218080a00000000000000000000000000000000000000000000000000000000000000000c0c0c0",
        "blocks": [
            {
                "blockHeader": {
                    "parentHash": "0xbaa3fdb737609d43c80466bcda15fe1d880b15149856547fa593d50df08277a8",
                    "uncleHash": "0x1dcc4de8dec75d7aab85b567b6ccd41ad312451b948a7413f0a142fd40d49347",
                    "coinbase": "0x2adc25665018aa1fe0e6bc666dac8fc2697ff9ba",
                    "stateRoot": "0x72ff8b94f3b29a297612f36accd17ee29daecf32610b76c1ec49dad4962bffd8",
                    "transactionsTrie": "0x0e7defdecbee3fea5a25ca4ebbd161e338b55f4184f1385fe5ea5e182317a054",
                    "receiptTrie": "0xefa345a75097f64060fa10e3f869ec51f164aa843c7681c49adba406acb357c2",
                    "bloom": "0x00000000000000000000000000000000000000000000000000000000000000000000000000000000000000000000000000000000000000000000000000000000000000000000000000000000000000000000000000000000000000000000000000000000000000000000000000000000000000000000000000000000000000000000000000000000000000000000000000000000000000000000000000000000000000000000000000000000000000000000000000000000000000000000000000000000000000000000000000000000000000000000000000000000000000000000000000000000000000000000000000000000000000000000000000000000",
                    "difficulty": "0x00",
                    "number": "0x01",
                    "gasLimit": "0x989680",
                    "gasUsed": "0xd067",
                    "timestamp": "0x03e8",
                    "extraData": "0x00",
                    "mixHash": "0x0000000000000000000000000000000000000000000000000000000000020000",
                    "nonce": "0x0000000000000000",
                    "baseFeePerGas": "0x0a",
                    "withdrawalsRoot": "0x56e81f171bcc55a6ff8345e692c0f86e5b48e01b996cadc001622fb5e363b421",
                    "blobGasUsed": "0x00",
                    "excessBlobGas": "0x00",
                    "parentBeaconBlockRoot": "0x0000000000000000000000000000000000000000000000000000000000000000",
                    "hash": "0xf96c1a02b7a397cb4e8a8d4df1255d22f0884bbcc7e6202c0fb3ea58ba596e43"
                },
                "transactions": [
                    {
                        "type": "0x00",
                        "chainId": "0x01",
                        "nonce": "0x00",
                        "gasPrice": "0x0a",
                        "gasLimit": "0x0927c0",
                        "to": "0xc6697d4d8d26312640216d31c529683b8ab395e8",
                        "value": "0x00",
                        "data": "0x",
                        "v": "0x25",
                        "r": "0xb10a5275fcde49572f677c07dfe175e2d3804c310040f6d82104779a39bda39c",
                        "s": "0x2004cd31717d7eb1bb58b0f8f3205f25cc67bcad458b10822b2980b02c5542db",
                        "sender": "0xd719ccdb2301950b0a0bdf09a2bb1d5f8b225f6f"
                    }
                ],
                "uncleHeaders": [],
                "withdrawals": [],
                "receipts": [
                    {
                        "transactionHash": "0xc114c487011ec27b3538d25507c1b019a0c2ded90674b03eb7c9b9c5119ed4a9",
                        "type": "0x00",
                        "cumulativeGasUsed": "0xd067",
                        "bloom": "0x00000000000000000000000000000000000000000000000000000000000000000000000000000000000000000000000000000000000000000000000000000000000000000000000000000000000000000000000000000000000000000000000000000000000000000000000000000000000000000000000000000000000000000000000000000000000000000000000000000000000000000000000000000000000000000000000000000000000000000000000000000000000000000000000000000000000000000000000000000000000000000000000000000000000000000000000000000000000000000000000000000000000000000000000000000000",
                        "logs": [],
                        "status": true,
                        "rlp": "0xf901080182d067b9010000000000000000000000000000000000000000000000000000000000000000000000000000000000000000000000000000000000000000000000000000000000000000000000000000000000000000000000000000000000000000000000000000000000000000000000000000000000000000000000000000000000000000000000000000000000000000000000000000000000000000000000000000000000000000000000000000000000000000000000000000000000000000000000000000000000000000000000000000000000000000000000000000000000000000000000000000000000000000000000000000000000000000000000000000000000c0"
                    }
                ],
                "rlp": "0xf902a2f90239a0baa3fdb737609d43c80466bcda15fe1d880b15149856547fa593d50df08277a8a01dcc4de8dec75d7aab85b567b6ccd41ad312451b948a7413f0a142fd40d49347942adc25665018aa1fe0e6bc666dac8fc2697ff9baa072ff8b94f3b29a297612f36accd17ee29daecf32610b76c1ec49dad4962bffd8a00e7defdecbee3fea5a25ca4ebbd161e338b55f4184f1385fe5ea5e182317a054a0efa345a75097f64060fa10e3f869ec51f164aa843c7681c49adba406acb357c2b901000000000000000000000000000000000000000000000000000000000000000000000000000000000000000000000000000000000000000000000000000000000000000000000000000000000000000000000000000000000000000000000000000000000000000000000000000000000000000000000000000000000000000000000000000000000000000000000000000000000000000000000000000000000000000000000000000000000000000000000000000000000000000000000000000000000000000000000000000000000000000000000000000000000000000000000000000000000000000000000000000000000000000000000000000000000080018398968082d0678203e800a000000000000000000000000000000000000000000000000000000000000200008800000000000000000aa056e81f171bcc55a6ff8345e692c0f86e5b48e01b996cadc001622fb5e363b4218080a00000000000000000000000000000000000000000000000000000000000000000f862f860800a830927c094c6697d4d8d26312640216d31c529683b8ab395e8808025a0b10a5275fcde49572f677c07dfe175e2d3804c310040f6d82104779a39bda39ca02004cd31717d7eb1bb58b0f8f3205f25cc67bcad458b10822b2980b02c5542dbc0c0",
                "blocknumber": "1"
            }
        ],
        "sealEngine": "NoProof",
        "_info": {
            "hash": "0xb3bc0fa76ad703b2130d9e2a7edb48770c8666e67bd27f492e565d1ed2850c8f",
            "fixture-format": "blockchain_test",
            "comment": "`execution-specs` generated test",
            "filling-transition-tool": "2.19.0",
            "description": "Test_suicide_to_not_existing_contract.",
            "url": "https://github.com/ethereum/execution-specs/blob/tests-snobal-devnet-5@v8037.0.0/tests/ported_static/stEIP150Specific/test_suicide_to_not_existing_contract.py#L24",
            "metadata": {
                "opcode_count": {}
            },
            "reference-spec": "https://github.com/ethereum/EIPs/blob/master/N/A",
            "reference-spec-version": "N/A"
        }
    }
}