{
    "tests/byzantium/eip197_ec_pairing/test_gas.py::test_gas_costs[fork_Byzantium-blockchain_test_from_state_test-enough_gas_False]": {
        "network": "Byzantium",
        "genesisBlockHeader": {
            "parentHash": "0x0000000000000000000000000000000000000000000000000000000000000000",
            "uncleHash": "0x1dcc4de8dec75d7aab85b567b6ccd41ad312451b948a7413f0a142fd40d49347",
            "coinbase": "0x0000000000000000000000000000000000000000",
            "stateRoot": "0x0a01403c945cd63d1ef70d1c26e59bbab40d92a05e5d39ccb4a05672d0e0917d",
            "transactionsTrie": "0x56e81f171bcc55a6ff8345e692c0f86e5b48e01b996cadc001622fb5e363b421",
            "receiptTrie": "0x56e81f171bcc55a6ff8345e692c0f86e5b48e01b996cadc001622fb5e363b421",
            "bloom": "0x00000000000000000000000000000000000000000000000000000000000000000000000000000000000000000000000000000000000000000000000000000000000000000000000000000000000000000000000000000000000000000000000000000000000000000000000000000000000000000000000000000000000000000000000000000000000000000000000000000000000000000000000000000000000000000000000000000000000000000000000000000000000000000000000000000000000000000000000000000000000000000000000000000000000000000000000000000000000000000000000000000000000000000000000000000000",
            "difficulty": "0x020000",
            "number": "0x00",
            "gasLimit": "0x07270e00",
            "gasUsed": "0x00",
            "timestamp": "0x00",
            "extraData": "0x00",
            "mixHash": "0x0000000000000000000000000000000000000000000000000000000000000000",
            "nonce": "0x0000000000000000",
            "hash": "0xcd09f6e44b491d3f429a6fca8bf9b043cb5c3e874d157635a351728777a55142"
        },
        "pre": {
            "0x142073eb3ebedb1c54b09513c46344b73c255df4": {
                "nonce": "0x01",
                "balance": "0x00",
                "code": "0x600060006000600060086201869ffa600055",
                "storage": {
                    "0x00": "0xba5e"
                }
            },
            "0x1ad9bc24818784172ff393bb6f89f094d4d2ca29": {
                "nonce": "0x00",
                "balance": "0x3635c9adc5dea00000",
                "code": "0x",
                "storage": {}
            }
        },
        "postState": {
            "0x142073eb3ebedb1c54b09513c46344b73c255df4": {
                "nonce": "0x01",
                "balance": "0x00",
                "code": "0x600060006000600060086201869ffa600055",
                "storage": {}
            },
            "0x1ad9bc24818784172ff393bb6f89f094d4d2ca29": {
                "nonce": "0x01",
                "balance": "0x3635c9adc5de8ef3f0",
                "code": "0x",
                "storage": {}
            },
            "0x2adc25665018aa1fe0e6bc666dac8fc2697ff9ba": {
                "nonce": "0x00",
                "balance": "0x29a2241af63d0c10",
                "code": "0x",
                "storage": {}
            }
        },
        "lastblockhash": "0x5dd86cfe10403d915d13c8ffe1f9bc329dfe2aa40a2125b66fe58abb03d3eee7",
        "config": {
            "network": "Byzantium",
            "chainid": "0x01"
        },
        "genesisRLP": "0xf901f9f901f4a00000000000000000000000000000000000000000000000000000000000000000a01dcc4de8dec75d7aab85b567b6ccd41ad312451b948a7413f0a142fd40d49347940000000000000000000000000000000000000000a00a01403c945cd63d1ef70d1c26e59bbab40d92a05e5d39ccb4a05672d0e0917da056e81f171bcc55a6ff8345e692c0f86e5b48e01b996cadc001622fb5e363b421a056e81f171bcc55a6ff8345e692c0f86e5b48e01b996cadc001622fb5e363b421b901000000000000000000000000000000000000000000000000000000000000000000000000000000000000000000000000000000000000000000000000000000000000000000000000000000000000000000000000000000000000000000000000000000000000000000000000000000000000000000000000000000000000000000000000000000000000000000000000000000000000000000000000000000000000000000000000000000000000000000000000000000000000000000000000000000000000000000000000000000000000000000000000000000000000000000000000000000000000000000000000000000000000000000000000000000000083020000808407270e00808000a00000000000000000000000000000000000000000000000000000000000000000880000000000000000c0c0",
        "blocks": [
            {
                "blockHeader": {
                    "parentHash": "0xcd09f6e44b491d3f429a6fca8bf9b043cb5c3e874d157635a351728777a55142",
                    "uncleHash": "0x1dcc4de8dec75d7aab85b567b6ccd41ad312451b948a7413f0a142fd40d49347",
                    "coinbase": "0x2adc25665018aa1fe0e6bc666dac8fc2697ff9ba",
                    "stateRoot": "0x255451fd6c3c1c463168048c3efac6c5f7b33a75499e8cacde3984d3e350ca53",
                    "transactionsTrie": "0xbd553eae200e0a7a067c82a450023a5763f171a02d9f231919f96e3b702c17e5",
                    "receiptTrie": "0x99d885dbe29a7bed729a0f5683c07d353d663c356aaaa5f44989fe1e535ef3c7",
                    "bloom": "0x00000000000000000000000000000000000000000000000000000000000000000000000000000000000000000000000000000000000000000000000000000000000000000000000000000000000000000000000000000000000000000000000000000000000000000000000000000000000000000000000000000000000000000000000000000000000000000000000000000000000000000000000000000000000000000000000000000000000000000000000000000000000000000000000000000000000000000000000000000000000000000000000000000000000000000000000000000000000000000000000000000000000000000000000000000000",
                    "difficulty": "0x020000",
                    "number": "0x01",
                    "gasLimit": "0x07270e00",
                    "gasUsed": "0x01b468",
                    "timestamp": "0x03e8",
                    "extraData": "0x00",
                    "mixHash": "0x0000000000000000000000000000000000000000000000000000000000000000",
                    "nonce": "0x0000000000000000",
                    "hash": "0x5dd86cfe10403d915d13c8ffe1f9bc329dfe2aa40a2125b66fe58abb03d3eee7"
                },
                "transactions": [
                    {
                        "type": "0x00",
                        "chainId": "0x01",
                        "nonce": "0x00",
                        "gasPrice": "0x0a",
                        "gasLimit": "0x0f4240",
                        "to": "0x142073eb3ebedb1c54b09513c46344b73c255df4",
                        "value": "0x00",
                        "data": "0x",
                        "v": "0x26",
                        "r": "0xbfc6e53d14969ce46b60aacf7efa5dcfb4928eef0546644dceae2d8f54c3ddb2",
                        "s": "0x102cc6d59c2c61ffbe51ac324c76a0e9922890c9f52437f6306fdddaee78f814",
                        "sender": "0x1ad9bc24818784172ff393bb6f89f094d4d2ca29"
                    }
                ],
                "uncleHeaders": [],
                "receipts": [
                    {
                        "transactionHash": "0x558661f124287bb5e6e80da87554a24d9541dc89c043596447d22026b1c51d08",
                        "type": "0x00",
                        "cumulativeGasUsed": "0x01b468",
                        "bloom": "0x00000000000000000000000000000000000000000000000000000000000000000000000000000000000000000000000000000000000000000000000000000000000000000000000000000000000000000000000000000000000000000000000000000000000000000000000000000000000000000000000000000000000000000000000000000000000000000000000000000000000000000000000000000000000000000000000000000000000000000000000000000000000000000000000000000000000000000000000000000000000000000000000000000000000000000000000000000000000000000000000000000000000000000000000000000000",
                        "logs": [],
                        "status": true,
                        "rlp": "0xf90109018301b468b9010000000000000000000000000000000000000000000000000000000000000000000000000000000000000000000000000000000000000000000000000000000000000000000000000000000000000000000000000000000000000000000000000000000000000000000000000000000000000000000000000000000000000000000000000000000000000000000000000000000000000000000000000000000000000000000000000000000000000000000000000000000000000000000000000000000000000000000000000000000000000000000000000000000000000000000000000000000000000000000000000000000000000000000000000000000000c0"
                    }
                ],
                "rlp": "0xf90261f901f9a0cd09f6e44b491d3f429a6fca8bf9b043cb5c3e874d157635a351728777a55142a01dcc4de8dec75d7aab85b567b6ccd41ad312451b948a7413f0a142fd40d49347942adc25665018aa1fe0e6bc666dac8fc2697ff9baa0255451fd6c3c1c463168048c3efac6c5f7b33a75499e8cacde3984d3e350ca53a0bd553eae200e0a7a067c82a450023a5763f171a02d9f231919f96e3b702c17e5a099d885dbe29a7bed729a0f5683c07d353d663c356aaaa5f44989fe1e535ef3c7b901000000000000000000000000000000000000000000000000000000000000000000000000000000000000000000000000000000000000000000000000000000000000000000000000000000000000000000000000000000000000000000000000000000000000000000000000000000000000000000000000000000000000000000000000000000000000000000000000000000000000000000000000000000000000000000000000000000000000000000000000000000000000000000000000000000000000000000000000000000000000000000000000000000000000000000000000000000000000000000000000000000000000000000000000000000000083020000018407270e008301b4688203e800a00000000000000000000000000000000000000000000000000000000000000000880000000000000000f862f860800a830f424094142073eb3ebedb1c54b09513c46344b73c255df4808026a0bfc6e53d14969ce46b60aacf7efa5dcfb4928eef0546644dceae2d8f54c3ddb2a0102cc6d59c2c61ffbe51ac324c76a0e9922890c9f52437f6306fdddaee78f814c0",
                "blocknumber": "1"
            }
        ],
        "sealEngine": "NoProof",
        "_info": {
            "hash": "0x8b612d72d5473b066b5cd464b6e68c0e3ecf82bf6f94bbd365b4fa4c2ca24bc2",
            "fixture-format": "blockchain_test",
            "comment": "`execution-specs` generated test",
            "filling-transition-tool": "2.19.0",
            "description": "Test the base gas cost of the ecpairing precompile with zero pairs.",
            "url": "https://github.com/ethereum/execution-specs/blob/tests-bal@v5.4.0/tests/byzantium/eip197_ec_pairing/test_gas.py#L31",
            "opcode_count": {},
            "reference-spec": "https://github.com/ethereum/EIPs/blob/master/EIPS/eip-197.md",
            "reference-spec-version": "9f9b3d33440e7c122b6c9192facfc380bc009422"
        }
    },
    "tests/byzantium/eip197_ec_pairing/test_gas.py::test_gas_costs[fork_Byzantium-blockchain_test_from_state_test-enough_gas_True]": {
        "network": "Byzantium",
        "genesisBlockHeader": {
            "parentHash": "0x0000000000000000000000000000000000000000000000000000000000000000",
            "uncleHash": "0x1dcc4de8dec75d7aab85b567b6ccd41ad312451b948a7413f0a142fd40d49347",
            "coinbase": "0x0000000000000000000000000000000000000000",
            "stateRoot": "0x6dbf9621473d62fe888e8bcbe95cce94c7bd39968895f0c4ef90f447eece2e78",
            "transactionsTrie": "0x56e81f171bcc55a6ff8345e692c0f86e5b48e01b996cadc001622fb5e363b421",
            "receiptTrie": "0x56e81f171bcc55a6ff8345e692c0f86e5b48e01b996cadc001622fb5e363b421",
            "bloom": "0x00000000000000000000000000000000000000000000000000000000000000000000000000000000000000000000000000000000000000000000000000000000000000000000000000000000000000000000000000000000000000000000000000000000000000000000000000000000000000000000000000000000000000000000000000000000000000000000000000000000000000000000000000000000000000000000000000000000000000000000000000000000000000000000000000000000000000000000000000000000000000000000000000000000000000000000000000000000000000000000000000000000000000000000000000000000",
            "difficulty": "0x020000",
            "number": "0x00",
            "gasLimit": "0x07270e00",
            "gasUsed": "0x00",
            "timestamp": "0x00",
            "extraData": "0x00",
            "mixHash": "0x0000000000000000000000000000000000000000000000000000000000000000",
            "nonce": "0x0000000000000000",
            "hash": "0x37d71bf401bae6b3aabecdabf254ceb01a5c1ac48382f43ffa9aefc64759758f"
        },
        "pre": {
            "0xb01c4567ad03a0ffc1f15aea4b2457ff0f0fa9d4": {
                "nonce": "0x01",
                "balance": "0x00",
                "code": "0x60006000600060006008620186a0fa600055",
                "storage": {}
            },
            "0x1ad9bc24818784172ff393bb6f89f094d4d2ca29": {
                "nonce": "0x00",
                "balance": "0x3635c9adc5dea00000",
                "code": "0x",
                "storage": {}
            }
        },
        "postState": {
            "0xb01c4567ad03a0ffc1f15aea4b2457ff0f0fa9d4": {
                "nonce": "0x01",
                "balance": "0x00",
                "code": "0x60006000600060006008620186a0fa600055",
                "storage": {
                    "0x00": "0x01"
                }
            },
            "0x1ad9bc24818784172ff393bb6f89f094d4d2ca29": {
                "nonce": "0x01",
                "balance": "0x3635c9adc5de8a6006",
                "code": "0x",
                "storage": {}
            },
            "0x2adc25665018aa1fe0e6bc666dac8fc2697ff9ba": {
                "nonce": "0x00",
                "balance": "0x29a2241af6419ffa",
                "code": "0x",
                "storage": {}
            }
        },
        "lastblockhash": "0x4af4531e874c7f808a728faf53e2c598f20fb3602f8692707c327a42f6f39fec",
        "config": {
            "network": "Byzantium",
            "chainid": "0x01"
        },
        "genesisRLP": "0xf901f9f901f4a00000000000000000000000000000000000000000000000000000000000000000a01dcc4de8dec75d7aab85b567b6ccd41ad312451b948a7413f0a142fd40d49347940000000000000000000000000000000000000000a06dbf9621473d62fe888e8bcbe95cce94c7bd39968895f0c4ef90f447eece2e78a056e81f171bcc55a6ff8345e692c0f86e5b48e01b996cadc001622fb5e363b421a056e81f171bcc55a6ff8345e692c0f86e5b48e01b996cadc001622fb5e363b421b901000000000000000000000000000000000000000000000000000000000000000000000000000000000000000000000000000000000000000000000000000000000000000000000000000000000000000000000000000000000000000000000000000000000000000000000000000000000000000000000000000000000000000000000000000000000000000000000000000000000000000000000000000000000000000000000000000000000000000000000000000000000000000000000000000000000000000000000000000000000000000000000000000000000000000000000000000000000000000000000000000000000000000000000000000000000083020000808407270e00808000a00000000000000000000000000000000000000000000000000000000000000000880000000000000000c0c0",
        "blocks": [
            {
                "blockHeader": {
                    "parentHash": "0x37d71bf401bae6b3aabecdabf254ceb01a5c1ac48382f43ffa9aefc64759758f",
                    "uncleHash": "0x1dcc4de8dec75d7aab85b567b6ccd41ad312451b948a7413f0a142fd40d49347",
                    "coinbase": "0x2adc25665018aa1fe0e6bc666dac8fc2697ff9ba",
                    "stateRoot": "0xe933f830339df4e876b6d99d23cbad909c4812016cc6bc22ab3a7bcb8b299aa3",
                    "transactionsTrie": "0x1ba5dd4658619614c3bf69cc9e52de7c6e9675a6778ba2a8e742fb9735399e15",
                    "receiptTrie": "0xfe4ef4c4398174b6e5a05154525e80be86b60b7fd441dac3fbd4ba00e4ac30a2",
                    "bloom": "0x00000000000000000000000000000000000000000000000000000000000000000000000000000000000000000000000000000000000000000000000000000000000000000000000000000000000000000000000000000000000000000000000000000000000000000000000000000000000000000000000000000000000000000000000000000000000000000000000000000000000000000000000000000000000000000000000000000000000000000000000000000000000000000000000000000000000000000000000000000000000000000000000000000000000000000000000000000000000000000000000000000000000000000000000000000000",
                    "difficulty": "0x020000",
                    "number": "0x01",
                    "gasLimit": "0x07270e00",
                    "gasUsed": "0x022999",
                    "timestamp": "0x03e8",
                    "extraData": "0x00",
                    "mixHash": "0x0000000000000000000000000000000000000000000000000000000000000000",
                    "nonce": "0x0000000000000000",
                    "hash": "0x4af4531e874c7f808a728faf53e2c598f20fb3602f8692707c327a42f6f39fec"
                },
                "transactions": [
                    {
                        "type": "0x00",
                        "chainId": "0x01",
                        "nonce": "0x00",
                        "gasPrice": "0x0a",
                        "gasLimit": "0x0f4240",
                        "to": "0xb01c4567ad03a0ffc1f15aea4b2457ff0f0fa9d4",
                        "value": "0x00",
                        "data": "0x",
                        "v": "0x26",
                        "r": "0xd47e551c8a7c5688d93c2cf8a56f0df4684d61f889a547285d285bbf3b5fb10a",
                        "s": "0x085390d62c888a74629dd81ead0b7fbe396be0d688a873dd7da71a4303f787ec",
                        "sender": "0x1ad9bc24818784172ff393bb6f89f094d4d2ca29"
                    }
                ],
                "uncleHeaders": [],
                "receipts": [
                    {
                        "transactionHash": "0x22136545bbf0476d537420c4aae3627866c297d8dc2594e5202ae00d504a230c",
                        "type": "0x00",
                        "cumulativeGasUsed": "0x022999",
                        "bloom": "0x00000000000000000000000000000000000000000000000000000000000000000000000000000000000000000000000000000000000000000000000000000000000000000000000000000000000000000000000000000000000000000000000000000000000000000000000000000000000000000000000000000000000000000000000000000000000000000000000000000000000000000000000000000000000000000000000000000000000000000000000000000000000000000000000000000000000000000000000000000000000000000000000000000000000000000000000000000000000000000000000000000000000000000000000000000000",
                        "logs": [],
                        "status": true,
                        "rlp": "0xf901090183022999b9010000000000000000000000000000000000000000000000000000000000000000000000000000000000000000000000000000000000000000000000000000000000000000000000000000000000000000000000000000000000000000000000000000000000000000000000000000000000000000000000000000000000000000000000000000000000000000000000000000000000000000000000000000000000000000000000000000000000000000000000000000000000000000000000000000000000000000000000000000000000000000000000000000000000000000000000000000000000000000000000000000000000000000000000000000000000c0"
                    }
                ],
                "rlp": "0xf90261f901f9a037d71bf401bae6b3aabecdabf254ceb01a5c1ac48382f43ffa9aefc64759758fa01dcc4de8dec75d7aab85b567b6ccd41ad312451b948a7413f0a142fd40d49347942adc25665018aa1fe0e6bc666dac8fc2697ff9baa0e933f830339df4e876b6d99d23cbad909c4812016cc6bc22ab3a7bcb8b299aa3a01ba5dd4658619614c3bf69cc9e52de7c6e9675a6778ba2a8e742fb9735399e15a0fe4ef4c4398174b6e5a05154525e80be86b60b7fd441dac3fbd4ba00e4ac30a2b901000000000000000000000000000000000000000000000000000000000000000000000000000000000000000000000000000000000000000000000000000000000000000000000000000000000000000000000000000000000000000000000000000000000000000000000000000000000000000000000000000000000000000000000000000000000000000000000000000000000000000000000000000000000000000000000000000000000000000000000000000000000000000000000000000000000000000000000000000000000000000000000000000000000000000000000000000000000000000000000000000000000000000000000000000000000083020000018407270e00830229998203e800a00000000000000000000000000000000000000000000000000000000000000000880000000000000000f862f860800a830f424094b01c4567ad03a0ffc1f15aea4b2457ff0f0fa9d4808026a0d47e551c8a7c5688d93c2cf8a56f0df4684d61f889a547285d285bbf3b5fb10aa0085390d62c888a74629dd81ead0b7fbe396be0d688a873dd7da71a4303f787ecc0",
                "blocknumber": "1"
            }
        ],
        "sealEngine": "NoProof",
        "_info": {
            "hash": "0xbefb0f3884de1171305fc2105cf2bfa3c240e3d5596c3233f0cfb31d0d2b9301",
            "fixture-format": "blockchain_test",
            "comment": "`execution-specs` generated test",
            "filling-transition-tool": "2.19.0",
            "description": "Test the base gas cost of the ecpairing precompile with zero pairs.",
            "url": "https://github.com/ethereum/execution-specs/blob/tests-bal@v5.4.0/tests/byzantium/eip197_ec_pairing/test_gas.py#L31",
            "opcode_count": {},
            "reference-spec": "https://github.com/ethereum/EIPs/blob/master/EIPS/eip-197.md",
            "reference-spec-version": "9f9b3d33440e7c122b6c9192facfc380bc009422"
        }
    }
}