{
    "tests/ported_static/stLogTests/test_log4_pc.py::test_log4_pc[fork_Cancun-blockchain_test_from_state_test]": {
        "network": "Cancun",
        "genesisBlockHeader": {
            "parentHash": "0x0000000000000000000000000000000000000000000000000000000000000000",
            "uncleHash": "0x1dcc4de8dec75d7aab85b567b6ccd41ad312451b948a7413f0a142fd40d49347",
            "coinbase": "0x0000000000000000000000000000000000000000",
            "stateRoot": "0x07cba1431b5e2a706e4447852f3b49262ccfea36f0e6810aa3a998385094496d",
            "transactionsTrie": "0x56e81f171bcc55a6ff8345e692c0f86e5b48e01b996cadc001622fb5e363b421",
            "receiptTrie": "0x56e81f171bcc55a6ff8345e692c0f86e5b48e01b996cadc001622fb5e363b421",
            "bloom": "0x00000000000000000000000000000000000000000000000000000000000000000000000000000000000000000000000000000000000000000000000000000000000000000000000000000000000000000000000000000000000000000000000000000000000000000000000000000000000000000000000000000000000000000000000000000000000000000000000000000000000000000000000000000000000000000000000000000000000000000000000000000000000000000000000000000000000000000000000000000000000000000000000000000000000000000000000000000000000000000000000000000000000000000000000000000000",
            "difficulty": "0x00",
            "number": "0x00",
            "gasLimit": "0x0f4240",
            "gasUsed": "0x00",
            "timestamp": "0x00",
            "extraData": "0x00",
            "mixHash": "0x0000000000000000000000000000000000000000000000000000000000000000",
            "nonce": "0x0000000000000000",
            "baseFeePerGas": "0x0b",
            "withdrawalsRoot": "0x56e81f171bcc55a6ff8345e692c0f86e5b48e01b996cadc001622fb5e363b421",
            "blobGasUsed": "0x00",
            "excessBlobGas": "0x00",
            "parentBeaconBlockRoot": "0x0000000000000000000000000000000000000000000000000000000000000000",
            "hash": "0x08b7e37f318e5df366d7b7570071b8c8df42ea41691f757ce26ce45bd1375558"
        },
        "pre": {
            "0x000f3df6d732807ef1319fb7b8bb8522d0beac02": {
                "nonce": "0x01",
                "balance": "0x00",
                "code": "0x3373fffffffffffffffffffffffffffffffffffffffe14604d57602036146024575f5ffd5b5f35801560495762001fff810690815414603c575f5ffd5b62001fff01545f5260205ff35b5f5ffd5b62001fff42064281555f359062001fff015500",
                "storage": {}
            },
            "0xd66f224cbd2fabb21b17bb53c56118f32f62ebd6": {
                "nonce": "0x00",
                "balance": "0x0de0b6b3a7640000",
                "code": "0x",
                "storage": {}
            },
            "0x41744836790cc79245b9be400bbec29e68d1f4e1": {
                "nonce": "0x00",
                "balance": "0x0de0b6b3a7640000",
                "code": "0x60ff6000535858585860206000a400",
                "storage": {}
            },
            "0xb53925b61d5f1062dc8674df1243d113e641777e": {
                "nonce": "0x00",
                "balance": "0x0de0b6b3a7640000",
                "code": "0x600060006000600060177341744836790cc79245b9be400bbec29e68d1f4e16103e8f160005500",
                "storage": {}
            }
        },
        "postState": {
            "0x000f3df6d732807ef1319fb7b8bb8522d0beac02": {
                "nonce": "0x01",
                "balance": "0x00",
                "code": "0x3373fffffffffffffffffffffffffffffffffffffffe14604d57602036146024575f5ffd5b5f35801560495762001fff810690815414603c575f5ffd5b62001fff01545f5260205ff35b5f5ffd5b62001fff42064281555f359062001fff015500",
                "storage": {
                    "0x03e8": "0x03e8"
                }
            },
            "0xd66f224cbd2fabb21b17bb53c56118f32f62ebd6": {
                "nonce": "0x01",
                "balance": "0x0de0b6b3a75a254e",
                "code": "0x",
                "storage": {}
            },
            "0x41744836790cc79245b9be400bbec29e68d1f4e1": {
                "nonce": "0x00",
                "balance": "0x0de0b6b3a7640017",
                "code": "0x60ff6000535858585860206000a400",
                "storage": {}
            },
            "0xb53925b61d5f1062dc8674df1243d113e641777e": {
                "nonce": "0x00",
                "balance": "0x0de0b6b3a7658689",
                "code": "0x600060006000600060177341744836790cc79245b9be400bbec29e68d1f4e16103e8f160005500",
                "storage": {
                    "0x00": "0x01"
                }
            }
        },
        "lastblockhash": "0xce0321176cccbe03243f7b07b7191127358473050bb001a9b8097d69ab7468a0",
        "config": {
            "network": "Cancun",
            "chainid": "0x01",
            "blobSchedule": {
                "Cancun": {
                    "target": "0x03",
                    "max": "0x06",
                    "baseFeeUpdateFraction": "0x32f0ed"
                }
            }
        },
        "genesisRLP": "0xf9023bf90235a00000000000000000000000000000000000000000000000000000000000000000a01dcc4de8dec75d7aab85b567b6ccd41ad312451b948a7413f0a142fd40d49347940000000000000000000000000000000000000000a007cba1431b5e2a706e4447852f3b49262ccfea36f0e6810aa3a998385094496da056e81f171bcc55a6ff8345e692c0f86e5b48e01b996cadc001622fb5e363b421a056e81f171bcc55a6ff8345e692c0f86e5b48e01b996cadc001622fb5e363b421b90100000000000000000000000000000000000000000000000000000000000000000000000000000000000000000000000000000000000000000000000000000000000000000000000000000000000000000000000000000000000000000000000000000000000000000000000000000000000000000000000000000000000000000000000000000000000000000000000000000000000000000000000000000000000000000000000000000000000000000000000000000000000000000000000000000000000000000000000000000000000000000000000000000000000000000000000000000000000000000000000000000000000000000000000000000000008080830f4240808000a000000000000000000000000000000000000000000000000000000000000000008800000000000000000ba056e81f171bcc55a6ff8345e692c0f86e5b48e01b996cadc001622fb5e363b4218080a00000000000000000000000000000000000000000000000000000000000000000c0c0c0",
        "blocks": [
            {
                "blockHeader": {
                    "parentHash": "0x08b7e37f318e5df366d7b7570071b8c8df42ea41691f757ce26ce45bd1375558",
                    "uncleHash": "0x1dcc4de8dec75d7aab85b567b6ccd41ad312451b948a7413f0a142fd40d49347",
                    "coinbase": "0x2adc25665018aa1fe0e6bc666dac8fc2697ff9ba",
                    "stateRoot": "0x3e3052078528bf34d71d326c2a1c245da979aa72427da3a9b90bc6255f486398",
                    "transactionsTrie": "0xdf67d84241d418a01fe5393dd7eb99d83187f2dd851c399ac53a80835a8bdd11",
                    "receiptTrie": "0x4067abc57fb2532be9bd38a8d0db0e015b5e6145ca218dcd73d1c9b5ab1236de",
                    "bloom": "0x00000000000000000000000000000000000000000000000000000000000000000000000000000000000000000000000000001000000480000000000000000000000030000000200000000000000000000000000400000000000000000000000000000000000000000000000000000008000000000000000000000000000000000080000400000000000000000000001000000800000000000000000000000000000000000000000000000000000000000000000000000000000000080000000040000000000000000000000000000000000000000000000000000100000000000000000000000000000000000000000000000000000000000000000000000000",
                    "difficulty": "0x00",
                    "number": "0x01",
                    "gasLimit": "0x0f4240",
                    "gasUsed": "0xd535",
                    "timestamp": "0x03e8",
                    "extraData": "0x00",
                    "mixHash": "0x0000000000000000000000000000000000000000000000000000000000020000",
                    "nonce": "0x0000000000000000",
                    "baseFeePerGas": "0x0a",
                    "withdrawalsRoot": "0x56e81f171bcc55a6ff8345e692c0f86e5b48e01b996cadc001622fb5e363b421",
                    "blobGasUsed": "0x00",
                    "excessBlobGas": "0x00",
                    "parentBeaconBlockRoot": "0x0000000000000000000000000000000000000000000000000000000000000000",
                    "hash": "0xce0321176cccbe03243f7b07b7191127358473050bb001a9b8097d69ab7468a0"
                },
                "transactions": [
                    {
                        "type": "0x00",
                        "chainId": "0x01",
                        "nonce": "0x00",
                        "gasPrice": "0x0a",
                        "gasLimit": "0x033450",
                        "to": "0xb53925b61d5f1062dc8674df1243d113e641777e",
                        "value": "0x0186a0",
                        "data": "0x",
                        "v": "0x26",
                        "r": "0xd882f7a626cee6348a19edf79b27717b30f8cdce55e1c266cafa3f83d8763149",
                        "s": "0x2a7f1e2f3223ccacb7a84ad9ed88a587ed9c9d210d61aad95c81b6f0e3e6db40",
                        "sender": "0xd66f224cbd2fabb21b17bb53c56118f32f62ebd6"
                    }
                ],
                "uncleHeaders": [],
                "withdrawals": [],
                "receipts": [
                    {
                        "transactionHash": "0x45d7c2c5024849d490eb5ec274a7573ac2dbba9462e4c0a4a9ff6bd4e463723c",
                        "type": "0x00",
                        "cumulativeGasUsed": "0xd535",
                        "bloom": "0x00000000000000000000000000000000000000000000000000000000000000000000000000000000000000000000000000001000000480000000000000000000000030000000200000000000000000000000000400000000000000000000000000000000000000000000000000000008000000000000000000000000000000000080000400000000000000000000001000000800000000000000000000000000000000000000000000000000000000000000000000000000000000080000000040000000000000000000000000000000000000000000000000000100000000000000000000000000000000000000000000000000000000000000000000000000",
                        "logs": [
                            {
                                "address": "0x41744836790cc79245b9be400bbec29e68d1f4e1",
                                "topics": [
                                    "0x0000000000000000000000000000000000000000000000000000000000000008",
                                    "0x0000000000000000000000000000000000000000000000000000000000000007",
                                    "0x0000000000000000000000000000000000000000000000000000000000000006",
                                    "0x0000000000000000000000000000000000000000000000000000000000000005"
                                ],
                                "data": "0xff00000000000000000000000000000000000000000000000000000000000000"
                            }
                        ],
                        "status": true,
                        "rlp": "0xf901c70182d535b9010000000000000000000000000000000000000000000000000000000000000000000000000000000000000000000000000000001000000480000000000000000000000030000000200000000000000000000000000400000000000000000000000000000000000000000000000000000008000000000000000000000000000000000080000400000000000000000000001000000800000000000000000000000000000000000000000000000000000000000000000000000000000000080000000040000000000000000000000000000000000000000000000000000100000000000000000000000000000000000000000000000000000000000000000000000000f8bef8bc9441744836790cc79245b9be400bbec29e68d1f4e1f884a00000000000000000000000000000000000000000000000000000000000000008a00000000000000000000000000000000000000000000000000000000000000007a00000000000000000000000000000000000000000000000000000000000000006a00000000000000000000000000000000000000000000000000000000000000005a0ff00000000000000000000000000000000000000000000000000000000000000"
                    }
                ],
                "rlp": "0xf902a5f90239a008b7e37f318e5df366d7b7570071b8c8df42ea41691f757ce26ce45bd1375558a01dcc4de8dec75d7aab85b567b6ccd41ad312451b948a7413f0a142fd40d49347942adc25665018aa1fe0e6bc666dac8fc2697ff9baa03e3052078528bf34d71d326c2a1c245da979aa72427da3a9b90bc6255f486398a0df67d84241d418a01fe5393dd7eb99d83187f2dd851c399ac53a80835a8bdd11a04067abc57fb2532be9bd38a8d0db0e015b5e6145ca218dcd73d1c9b5ab1236deb90100000000000000000000000000000000000000000000000000000000000000000000000000000000000000000000000000000010000004800000000000000000000000300000002000000000000000000000000004000000000000000000000000000000000000000000000000000000080000000000000000000000000000000000800004000000000000000000000010000008000000000000000000000000000000000000000000000000000000000000000000000000000000000800000000400000000000000000000000000000000000000000000000000001000000000000000000000000000000000000000000000000000000000000000000000000008001830f424082d5358203e800a000000000000000000000000000000000000000000000000000000000000200008800000000000000000aa056e81f171bcc55a6ff8345e692c0f86e5b48e01b996cadc001622fb5e363b4218080a00000000000000000000000000000000000000000000000000000000000000000f865f863800a8303345094b53925b61d5f1062dc8674df1243d113e641777e830186a08026a0d882f7a626cee6348a19edf79b27717b30f8cdce55e1c266cafa3f83d8763149a02a7f1e2f3223ccacb7a84ad9ed88a587ed9c9d210d61aad95c81b6f0e3e6db40c0c0",
                "blocknumber": "1"
            }
        ],
        "sealEngine": "NoProof",
        "_info": {
            "hash": "0x91f61c4db67730b3d82e9f7424c5d76240fff52be7011b210deea52aacd2e721",
            "fixture-format": "blockchain_test",
            "comment": "`execution-specs` generated test",
            "filling-transition-tool": "2.19.0",
            "description": "Test_log4_pc.",
            "url": "https://github.com/ethereum/execution-specs/blob/tests-snobal-devnet-5@v8037.0.0/tests/ported_static/stLogTests/test_log4_pc.py#L24",
            "metadata": {
                "opcode_count": {}
            }
        }
    }
}