{
    "tests/ported_static/stLogTests/test_log4_pc.py::test_log4_pc[fork_Cancun-blockchain_test_from_state_test]": {
        "network": "Cancun",
        "genesisBlockHeader": {
            "parentHash": "0x0000000000000000000000000000000000000000000000000000000000000000",
            "uncleHash": "0x1dcc4de8dec75d7aab85b567b6ccd41ad312451b948a7413f0a142fd40d49347",
            "coinbase": "0x0000000000000000000000000000000000000000",
            "stateRoot": "0x57ff1807885c26bdc30dad109057072fe102574a5d4864491778fa82c6b3e16f",
            "transactionsTrie": "0x56e81f171bcc55a6ff8345e692c0f86e5b48e01b996cadc001622fb5e363b421",
            "receiptTrie": "0x56e81f171bcc55a6ff8345e692c0f86e5b48e01b996cadc001622fb5e363b421",
            "bloom": "0x00000000000000000000000000000000000000000000000000000000000000000000000000000000000000000000000000000000000000000000000000000000000000000000000000000000000000000000000000000000000000000000000000000000000000000000000000000000000000000000000000000000000000000000000000000000000000000000000000000000000000000000000000000000000000000000000000000000000000000000000000000000000000000000000000000000000000000000000000000000000000000000000000000000000000000000000000000000000000000000000000000000000000000000000000000000",
            "difficulty": "0x00",
            "number": "0x00",
            "gasLimit": "0x0f4240",
            "gasUsed": "0x00",
            "timestamp": "0x00",
            "extraData": "0x00",
            "mixHash": "0x0000000000000000000000000000000000000000000000000000000000000000",
            "nonce": "0x0000000000000000",
            "baseFeePerGas": "0x0b",
            "withdrawalsRoot": "0x56e81f171bcc55a6ff8345e692c0f86e5b48e01b996cadc001622fb5e363b421",
            "blobGasUsed": "0x00",
            "excessBlobGas": "0x00",
            "parentBeaconBlockRoot": "0x0000000000000000000000000000000000000000000000000000000000000000",
            "hash": "0xa63d0ed895144b22ebba21435384e6629244a8a9a119f656ed1f7192942add65"
        },
        "pre": {
            "0x000f3df6d732807ef1319fb7b8bb8522d0beac02": {
                "nonce": "0x01",
                "balance": "0x00",
                "code": "0x3373fffffffffffffffffffffffffffffffffffffffe14604d57602036146024575f5ffd5b5f35801560495762001fff810690815414603c575f5ffd5b62001fff01545f5260205ff35b5f5ffd5b62001fff42064281555f359062001fff015500",
                "storage": {}
            },
            "0x1e5597b6168fe79952cb2de7af91c3449bc95bd4": {
                "nonce": "0x00",
                "balance": "0x0de0b6b3a7640000",
                "code": "0x600060006000600060177384861f45ae3e1aa4792a50f336696efa9902c95b6103e8f160005500",
                "storage": {}
            },
            "0x84861f45ae3e1aa4792a50f336696efa9902c95b": {
                "nonce": "0x00",
                "balance": "0x0de0b6b3a7640000",
                "code": "0x60ff6000535858585860206000a400",
                "storage": {}
            },
            "0xebaf50debf10e08302fe4280c32df010463ca297": {
                "nonce": "0x00",
                "balance": "0x0de0b6b3a7640000",
                "code": "0x",
                "storage": {}
            }
        },
        "postState": {
            "0x000f3df6d732807ef1319fb7b8bb8522d0beac02": {
                "nonce": "0x01",
                "balance": "0x00",
                "code": "0x3373fffffffffffffffffffffffffffffffffffffffe14604d57602036146024575f5ffd5b5f35801560495762001fff810690815414603c575f5ffd5b62001fff01545f5260205ff35b5f5ffd5b62001fff42064281555f359062001fff015500",
                "storage": {
                    "0x03e8": "0x03e8"
                }
            },
            "0x1e5597b6168fe79952cb2de7af91c3449bc95bd4": {
                "nonce": "0x00",
                "balance": "0x0de0b6b3a7658689",
                "code": "0x600060006000600060177384861f45ae3e1aa4792a50f336696efa9902c95b6103e8f160005500",
                "storage": {
                    "0x00": "0x01"
                }
            },
            "0x84861f45ae3e1aa4792a50f336696efa9902c95b": {
                "nonce": "0x00",
                "balance": "0x0de0b6b3a7640017",
                "code": "0x60ff6000535858585860206000a400",
                "storage": {}
            },
            "0xebaf50debf10e08302fe4280c32df010463ca297": {
                "nonce": "0x01",
                "balance": "0x0de0b6b3a75a254e",
                "code": "0x",
                "storage": {}
            }
        },
        "lastblockhash": "0x050eabca4e3e2b386971a5fc717daf21321b66a1b8edee6497a764fe7a2976f7",
        "config": {
            "network": "Cancun",
            "chainid": "0x01",
            "blobSchedule": {
                "Cancun": {
                    "target": "0x03",
                    "max": "0x06",
                    "baseFeeUpdateFraction": "0x32f0ed"
                }
            }
        },
        "genesisRLP": "0xf9023bf90235a00000000000000000000000000000000000000000000000000000000000000000a01dcc4de8dec75d7aab85b567b6ccd41ad312451b948a7413f0a142fd40d49347940000000000000000000000000000000000000000a057ff1807885c26bdc30dad109057072fe102574a5d4864491778fa82c6b3e16fa056e81f171bcc55a6ff8345e692c0f86e5b48e01b996cadc001622fb5e363b421a056e81f171bcc55a6ff8345e692c0f86e5b48e01b996cadc001622fb5e363b421b90100000000000000000000000000000000000000000000000000000000000000000000000000000000000000000000000000000000000000000000000000000000000000000000000000000000000000000000000000000000000000000000000000000000000000000000000000000000000000000000000000000000000000000000000000000000000000000000000000000000000000000000000000000000000000000000000000000000000000000000000000000000000000000000000000000000000000000000000000000000000000000000000000000000000000000000000000000000000000000000000000000000000000000000000000000000008080830f4240808000a000000000000000000000000000000000000000000000000000000000000000008800000000000000000ba056e81f171bcc55a6ff8345e692c0f86e5b48e01b996cadc001622fb5e363b4218080a00000000000000000000000000000000000000000000000000000000000000000c0c0c0",
        "blocks": [
            {
                "blockHeader": {
                    "parentHash": "0xa63d0ed895144b22ebba21435384e6629244a8a9a119f656ed1f7192942add65",
                    "uncleHash": "0x1dcc4de8dec75d7aab85b567b6ccd41ad312451b948a7413f0a142fd40d49347",
                    "coinbase": "0x2adc25665018aa1fe0e6bc666dac8fc2697ff9ba",
                    "stateRoot": "0x134659ec0f32bb2eb62092d686d835bede4922a4adaf90d2bae65c8107045f11",
                    "transactionsTrie": "0x98b5d0b9f245f3f05178b228c487299e1645befd1248d28886f36279372c2f07",
                    "receiptTrie": "0xb87414ab1ee910dd8564e67936dd5ab2681f73b44885fc5389e8eee0b3ecff89",
                    "bloom": "0x00000000000200000000000000000000000000000000000000000000000000000000000000000000000000000000000000001000000480000000000000000000000030000000000000000000000400000000000000000000000000000000000000000000000000000000000000000000000000000000000000000000000000000080000400000000000000000000001000000800000000000000000000000000000000000000000000000000000000000000000000000000000000080000000040000000000000000000000000000000000000100000000000000100000000000000000000000000000000000000000000000000000000000000000000000000",
                    "difficulty": "0x00",
                    "number": "0x01",
                    "gasLimit": "0x0f4240",
                    "gasUsed": "0xd535",
                    "timestamp": "0x03e8",
                    "extraData": "0x00",
                    "mixHash": "0x0000000000000000000000000000000000000000000000000000000000020000",
                    "nonce": "0x0000000000000000",
                    "baseFeePerGas": "0x0a",
                    "withdrawalsRoot": "0x56e81f171bcc55a6ff8345e692c0f86e5b48e01b996cadc001622fb5e363b421",
                    "blobGasUsed": "0x00",
                    "excessBlobGas": "0x00",
                    "parentBeaconBlockRoot": "0x0000000000000000000000000000000000000000000000000000000000000000",
                    "hash": "0x050eabca4e3e2b386971a5fc717daf21321b66a1b8edee6497a764fe7a2976f7"
                },
                "transactions": [
                    {
                        "type": "0x00",
                        "chainId": "0x01",
                        "nonce": "0x00",
                        "gasPrice": "0x0a",
                        "gasLimit": "0x033450",
                        "to": "0x1e5597b6168fe79952cb2de7af91c3449bc95bd4",
                        "value": "0x0186a0",
                        "data": "0x",
                        "v": "0x26",
                        "r": "0x9b6dd879cc59a9db0fba100de9983f22060bfc7a371084280f4f23394c73a709",
                        "s": "0x3bd127c365fae0e030c528c21e254030afbf19bf7ef7ff511b97d7504b5fc8b2",
                        "sender": "0xebaf50debf10e08302fe4280c32df010463ca297"
                    }
                ],
                "uncleHeaders": [],
                "withdrawals": [],
                "receipts": [
                    {
                        "transactionHash": "0x8c5e70ac6644d1f826fb417f8575a1b1433eb1bbb34ff17fd09bb0e047133423",
                        "type": "0x00",
                        "cumulativeGasUsed": "0xd535",
                        "bloom": "0x00000000000200000000000000000000000000000000000000000000000000000000000000000000000000000000000000001000000480000000000000000000000030000000000000000000000400000000000000000000000000000000000000000000000000000000000000000000000000000000000000000000000000000080000400000000000000000000001000000800000000000000000000000000000000000000000000000000000000000000000000000000000000080000000040000000000000000000000000000000000000100000000000000100000000000000000000000000000000000000000000000000000000000000000000000000",
                        "logs": [
                            {
                                "address": "0x84861f45ae3e1aa4792a50f336696efa9902c95b",
                                "topics": [
                                    "0x0000000000000000000000000000000000000000000000000000000000000008",
                                    "0x0000000000000000000000000000000000000000000000000000000000000007",
                                    "0x0000000000000000000000000000000000000000000000000000000000000006",
                                    "0x0000000000000000000000000000000000000000000000000000000000000005"
                                ],
                                "data": "0xff00000000000000000000000000000000000000000000000000000000000000"
                            }
                        ],
                        "status": true,
                        "rlp": "0xf901c70182d535b9010000000000000200000000000000000000000000000000000000000000000000000000000000000000000000000000000000001000000480000000000000000000000030000000000000000000000400000000000000000000000000000000000000000000000000000000000000000000000000000000000000000000000000000080000400000000000000000000001000000800000000000000000000000000000000000000000000000000000000000000000000000000000000080000000040000000000000000000000000000000000000100000000000000100000000000000000000000000000000000000000000000000000000000000000000000000f8bef8bc9484861f45ae3e1aa4792a50f336696efa9902c95bf884a00000000000000000000000000000000000000000000000000000000000000008a00000000000000000000000000000000000000000000000000000000000000007a00000000000000000000000000000000000000000000000000000000000000006a00000000000000000000000000000000000000000000000000000000000000005a0ff00000000000000000000000000000000000000000000000000000000000000"
                    }
                ],
                "rlp": "0xf902a5f90239a0a63d0ed895144b22ebba21435384e6629244a8a9a119f656ed1f7192942add65a01dcc4de8dec75d7aab85b567b6ccd41ad312451b948a7413f0a142fd40d49347942adc25665018aa1fe0e6bc666dac8fc2697ff9baa0134659ec0f32bb2eb62092d686d835bede4922a4adaf90d2bae65c8107045f11a098b5d0b9f245f3f05178b228c487299e1645befd1248d28886f36279372c2f07a0b87414ab1ee910dd8564e67936dd5ab2681f73b44885fc5389e8eee0b3ecff89b90100000000000002000000000000000000000000000000000000000000000000000000000000000000000000000000000000000010000004800000000000000000000000300000000000000000000004000000000000000000000000000000000000000000000000000000000000000000000000000000000000000000000000000000800004000000000000000000000010000008000000000000000000000000000000000000000000000000000000000000000000000000000000000800000000400000000000000000000000000000000000001000000000000001000000000000000000000000000000000000000000000000000000000000000000000000008001830f424082d5358203e800a000000000000000000000000000000000000000000000000000000000000200008800000000000000000aa056e81f171bcc55a6ff8345e692c0f86e5b48e01b996cadc001622fb5e363b4218080a00000000000000000000000000000000000000000000000000000000000000000f865f863800a83033450941e5597b6168fe79952cb2de7af91c3449bc95bd4830186a08026a09b6dd879cc59a9db0fba100de9983f22060bfc7a371084280f4f23394c73a709a03bd127c365fae0e030c528c21e254030afbf19bf7ef7ff511b97d7504b5fc8b2c0c0",
                "blocknumber": "1"
            }
        ],
        "sealEngine": "NoProof",
        "_info": {
            "hash": "0x2a232509f38f82a11745c7c8bbc5104f3e51ddd739ef34ea90df8d122bb7ff4a",
            "fixture-format": "blockchain_test",
            "comment": "`execution-specs` generated test",
            "filling-transition-tool": "2.19.0",
            "description": "Test_log4_pc.",
            "url": "https://github.com/ethereum/execution-specs/blob/tests-bal@v5.6.1/tests/ported_static/stLogTests/test_log4_pc.py#L25",
            "metadata": {
                "opcode_count": {}
            }
        }
    }
}