{
    "tests/cancun/eip4844_blobs/test_point_evaluation_precompile.py::test_precompile_before_fork[fork_ShanghaiToCancunAtTime15k-blockchain_test_from_state_test----correct_proof]": {
        "network": "ShanghaiToCancunAtTime15k",
        "genesisBlockHeader": {
            "parentHash": "0x0000000000000000000000000000000000000000000000000000000000000000",
            "uncleHash": "0x1dcc4de8dec75d7aab85b567b6ccd41ad312451b948a7413f0a142fd40d49347",
            "coinbase": "0x0000000000000000000000000000000000000000",
            "stateRoot": "0xcea6270917cd46a2fb8397a461c4fb8354db8c4c215ab1d8aa563e6c22a42919",
            "transactionsTrie": "0x56e81f171bcc55a6ff8345e692c0f86e5b48e01b996cadc001622fb5e363b421",
            "receiptTrie": "0x56e81f171bcc55a6ff8345e692c0f86e5b48e01b996cadc001622fb5e363b421",
            "bloom": "0x00000000000000000000000000000000000000000000000000000000000000000000000000000000000000000000000000000000000000000000000000000000000000000000000000000000000000000000000000000000000000000000000000000000000000000000000000000000000000000000000000000000000000000000000000000000000000000000000000000000000000000000000000000000000000000000000000000000000000000000000000000000000000000000000000000000000000000000000000000000000000000000000000000000000000000000000000000000000000000000000000000000000000000000000000000000",
            "difficulty": "0x00",
            "number": "0x00",
            "gasLimit": "0x07270e00",
            "gasUsed": "0x00",
            "timestamp": "0x00",
            "extraData": "0x00",
            "mixHash": "0x0000000000000000000000000000000000000000000000000000000000000000",
            "nonce": "0x0000000000000000",
            "baseFeePerGas": "0x07",
            "withdrawalsRoot": "0x56e81f171bcc55a6ff8345e692c0f86e5b48e01b996cadc001622fb5e363b421",
            "hash": "0xc886149c9542d1164167a6501c10355a1f43844e108290d0bcd3981e076e5ef6"
        },
        "pre": {
            "0x000f3df6d732807ef1319fb7b8bb8522d0beac02": {
                "nonce": "0x01",
                "balance": "0x00",
                "code": "0x3373fffffffffffffffffffffffffffffffffffffffe14604d57602036146024575f5ffd5b5f35801560495762001fff810690815414603c575f5ffd5b62001fff01545f5260205ff35b5f5ffd5b62001fff42064281555f359062001fff015500",
                "storage": {}
            },
            "0x5984bb86584af722e353c608150f42206ae4294e": {
                "nonce": "0x01",
                "balance": "0x01",
                "code": "0x366000600037600060003660006001600a5af14355",
                "storage": {}
            },
            "0x1ad9bc24818784172ff393bb6f89f094d4d2ca29": {
                "nonce": "0x00",
                "balance": "0x3635c9adc5dea00000",
                "code": "0x",
                "storage": {}
            }
        },
        "postState": {
            "0x000f3df6d732807ef1319fb7b8bb8522d0beac02": {
                "nonce": "0x01",
                "balance": "0x00",
                "code": "0x3373fffffffffffffffffffffffffffffffffffffffe14604d57602036146024575f5ffd5b5f35801560495762001fff810690815414603c575f5ffd5b62001fff01545f5260205ff35b5f5ffd5b62001fff42064281555f359062001fff015500",
                "storage": {}
            },
            "0x5984bb86584af722e353c608150f42206ae4294e": {
                "nonce": "0x01",
                "balance": "0x00",
                "code": "0x366000600037600060003660006001600a5af14355",
                "storage": {
                    "0x01": "0x01"
                }
            },
            "0x1ad9bc24818784172ff393bb6f89f094d4d2ca29": {
                "nonce": "0x01",
                "balance": "0x3635c9adc5de93f170",
                "code": "0x",
                "storage": {}
            },
            "0x000000000000000000000000000000000000000a": {
                "nonce": "0x00",
                "balance": "0x01",
                "code": "0x",
                "storage": {}
            },
            "0x2adc25665018aa1fe0e6bc666dac8fc2697ff9ba": {
                "nonce": "0x00",
                "balance": "0x039df8",
                "code": "0x",
                "storage": {}
            }
        },
        "lastblockhash": "0x757961fc033a91d6156906493eb281c103ecf4e016826b5a502e220412352b84",
        "config": {
            "network": "ShanghaiToCancunAtTime15k",
            "chainid": "0x01",
            "blobSchedule": {
                "Cancun": {
                    "target": "0x03",
                    "max": "0x06",
                    "baseFeeUpdateFraction": "0x32f0ed"
                }
            }
        },
        "genesisRLP": "0xf90219f90213a00000000000000000000000000000000000000000000000000000000000000000a01dcc4de8dec75d7aab85b567b6ccd41ad312451b948a7413f0a142fd40d49347940000000000000000000000000000000000000000a0cea6270917cd46a2fb8397a461c4fb8354db8c4c215ab1d8aa563e6c22a42919a056e81f171bcc55a6ff8345e692c0f86e5b48e01b996cadc001622fb5e363b421a056e81f171bcc55a6ff8345e692c0f86e5b48e01b996cadc001622fb5e363b421b901000000000000000000000000000000000000000000000000000000000000000000000000000000000000000000000000000000000000000000000000000000000000000000000000000000000000000000000000000000000000000000000000000000000000000000000000000000000000000000000000000000000000000000000000000000000000000000000000000000000000000000000000000000000000000000000000000000000000000000000000000000000000000000000000000000000000000000000000000000000000000000000000000000000000000000000000000000000000000000000000000000000000000000000000000000000080808407270e00808000a0000000000000000000000000000000000000000000000000000000000000000088000000000000000007a056e81f171bcc55a6ff8345e692c0f86e5b48e01b996cadc001622fb5e363b421c0c0c0",
        "blocks": [
            {
                "blockHeader": {
                    "parentHash": "0xc886149c9542d1164167a6501c10355a1f43844e108290d0bcd3981e076e5ef6",
                    "uncleHash": "0x1dcc4de8dec75d7aab85b567b6ccd41ad312451b948a7413f0a142fd40d49347",
                    "coinbase": "0x2adc25665018aa1fe0e6bc666dac8fc2697ff9ba",
                    "stateRoot": "0xf3cafeb30fc418ecbeef83facfc9f79aebd1ebbaea642cbf742d9e4a36f2185a",
                    "transactionsTrie": "0x99d9964986ff2e3533b2b5711fa7a22001fc4839cdfb10a00d8907c0d5310775",
                    "receiptTrie": "0x293d302ee07a15a99db519e4aa6614a95f099c0ea9ee82d87809600cff941027",
                    "bloom": "0x00000000000000000000000000000000000000000000000000000000000000000000000000000000000000000000000000000000000000000000000000000000000000000000000000000000000000000000000000000000000000000000000000000000000000000000000000000000000000000000000000000000000000000000000000000000000000000000000000000000000000000000000000000000000000000000000000000000000000000000000000000000000000000000000000000000000000000000000000000000000000000000000000000000000000000000000000000000000000000000000000000000000000000000000000000000",
                    "difficulty": "0x00",
                    "number": "0x01",
                    "gasLimit": "0x07270e00",
                    "gasUsed": "0x0134a8",
                    "timestamp": "0x1d4c",
                    "extraData": "0x00",
                    "mixHash": "0x0000000000000000000000000000000000000000000000000000000000000000",
                    "nonce": "0x0000000000000000",
                    "baseFeePerGas": "0x07",
                    "withdrawalsRoot": "0x56e81f171bcc55a6ff8345e692c0f86e5b48e01b996cadc001622fb5e363b421",
                    "hash": "0x757961fc033a91d6156906493eb281c103ecf4e016826b5a502e220412352b84"
                },
                "transactions": [
                    {
                        "type": "0x00",
                        "chainId": "0x01",
                        "nonce": "0x00",
                        "gasPrice": "0x0a",
                        "gasLimit": "0x4c4b40",
                        "to": "0x5984bb86584af722e353c608150f42206ae4294e",
                        "value": "0x00",
                        "data": "0x010657f37554c781402a22917dee2f75def7ab966d7b770905398eba3c444014623ce31cf9759a5c8daf3a357992f9f3dd7f9339d8998bc8e68373e54f00b75e0000000000000000000000000000000000000000000000000000000000000000c00000000000000000000000000000000000000000000000000000000000000000000000000000000000000000000000c00000000000000000000000000000000000000000000000000000000000000000000000000000000000000000000000",
                        "v": "0x25",
                        "r": "0xb48045054ec76a981e37078293b100213e187832d419247b180def8881bfc5db",
                        "s": "0x10821a21b68530bf6c9164975edf643cca63a6484d3ba6b17bee78e0c00a49ad",
                        "sender": "0x1ad9bc24818784172ff393bb6f89f094d4d2ca29"
                    }
                ],
                "uncleHeaders": [],
                "withdrawals": [],
                "receipts": [
                    {
                        "transactionHash": "0xd3c8a82e6888f6747130e29fb76ef8c1979ee473da666f09bb93d0ee9c7a60d8",
                        "type": "0x00",
                        "cumulativeGasUsed": "0x0134a8",
                        "bloom": "0x00000000000000000000000000000000000000000000000000000000000000000000000000000000000000000000000000000000000000000000000000000000000000000000000000000000000000000000000000000000000000000000000000000000000000000000000000000000000000000000000000000000000000000000000000000000000000000000000000000000000000000000000000000000000000000000000000000000000000000000000000000000000000000000000000000000000000000000000000000000000000000000000000000000000000000000000000000000000000000000000000000000000000000000000000000000",
                        "logs": [],
                        "status": true,
                        "rlp": "0xf9010901830134a8b9010000000000000000000000000000000000000000000000000000000000000000000000000000000000000000000000000000000000000000000000000000000000000000000000000000000000000000000000000000000000000000000000000000000000000000000000000000000000000000000000000000000000000000000000000000000000000000000000000000000000000000000000000000000000000000000000000000000000000000000000000000000000000000000000000000000000000000000000000000000000000000000000000000000000000000000000000000000000000000000000000000000000000000000000000000000000c0"
                    }
                ],
                "rlp": "0xf90344f90218a0c886149c9542d1164167a6501c10355a1f43844e108290d0bcd3981e076e5ef6a01dcc4de8dec75d7aab85b567b6ccd41ad312451b948a7413f0a142fd40d49347942adc25665018aa1fe0e6bc666dac8fc2697ff9baa0f3cafeb30fc418ecbeef83facfc9f79aebd1ebbaea642cbf742d9e4a36f2185aa099d9964986ff2e3533b2b5711fa7a22001fc4839cdfb10a00d8907c0d5310775a0293d302ee07a15a99db519e4aa6614a95f099c0ea9ee82d87809600cff941027b901000000000000000000000000000000000000000000000000000000000000000000000000000000000000000000000000000000000000000000000000000000000000000000000000000000000000000000000000000000000000000000000000000000000000000000000000000000000000000000000000000000000000000000000000000000000000000000000000000000000000000000000000000000000000000000000000000000000000000000000000000000000000000000000000000000000000000000000000000000000000000000000000000000000000000000000000000000000000000000000000000000000000000000000000000000000080018407270e00830134a8821d4c00a0000000000000000000000000000000000000000000000000000000000000000088000000000000000007a056e81f171bcc55a6ff8345e692c0f86e5b48e01b996cadc001622fb5e363b421f90124f90121800a834c4b40945984bb86584af722e353c608150f42206ae4294e80b8c0010657f37554c781402a22917dee2f75def7ab966d7b770905398eba3c444014623ce31cf9759a5c8daf3a357992f9f3dd7f9339d8998bc8e68373e54f00b75e0000000000000000000000000000000000000000000000000000000000000000c00000000000000000000000000000000000000000000000000000000000000000000000000000000000000000000000c0000000000000000000000000000000000000000000000000000000000000000000000000000000000000000000000025a0b48045054ec76a981e37078293b100213e187832d419247b180def8881bfc5dba010821a21b68530bf6c9164975edf643cca63a6484d3ba6b17bee78e0c00a49adc0c0",
                "blocknumber": "1"
            }
        ],
        "sealEngine": "NoProof",
        "_info": {
            "hash": "0x5c55965eb31bc5e9d64cef0d3ec8f519e53d4f01d153504ad48d47cc0f4d0165",
            "fixture-format": "blockchain_test",
            "comment": "`execution-specs` generated test",
            "filling-transition-tool": "2.19.0",
            "description": "Test calling the Point Evaluation Precompile before the appropriate fork.",
            "url": "https://github.com/ethereum/execution-specs/blob/tests-bal@v5.3.0/tests/cancun/eip4844_blobs/test_point_evaluation_precompile.py#L621",
            "opcode_count": {},
            "reference-spec": "https://github.com/ethereum/EIPs/blob/master/EIPS/eip-4844.md",
            "reference-spec-version": "de2e4a46ad93fc04e6fe3174dc6e90a3307bdb5f"
        }
    }
}