{
    "tests/frontier/opcodes/test_call.py::test_call_large_offset_mstore[fork_Berlin-state_test]": {
        "env": {
            "currentCoinbase": "0x2adc25665018aa1fe0e6bc666dac8fc2697ff9ba",
            "currentGasLimit": "0x055d4a80",
            "currentNumber": "0x01",
            "currentTimestamp": "0x03e8",
            "currentDifficulty": "0x020000"
        },
        "pre": {
            "0x5fd0bdede7950b1b247665c5142b867f4681bfde": {
                "nonce": "0x00",
                "balance": "0x3635c9adc5dea00000",
                "code": "0x",
                "storage": {}
            },
            "0xed6df820f054b5d7acb27cb202ac04c3fa63782f": {
                "nonce": "0x01",
                "balance": "0x00",
                "code": "0x5a6000608060006000600060006000f15a90509003601790036000555a60016080525a90036008900360015500",
                "storage": {}
            }
        },
        "transaction": {
            "nonce": "0x00",
            "gasPrice": "0x0a",
            "gasLimit": [
                "0x07a120"
            ],
            "to": "0xed6df820f054b5d7acb27cb202ac04c3fa63782f",
            "value": [
                "0x00"
            ],
            "data": [
                "0x"
            ],
            "sender": "0x5fd0bdede7950b1b247665c5142b867f4681bfde",
            "secretKey": "0xaabe7d570037456accd1c59fed6df820f054b5d7acb27cb202ac04c3fa63782f"
        },
        "post": {
            "Berlin": [
                {
                    "hash": "0xaf260261fc0045ea3528b14ec8a4c50974842d4922356c18dc092a2ee55dae3b",
                    "logs": "0x1dcc4de8dec75d7aab85b567b6ccd41ad312451b948a7413f0a142fd40d49347",
                    "txbytes": "0xf860800a8307a12094ed6df820f054b5d7acb27cb202ac04c3fa63782f808026a0fbe696bc453b6993c607002dedfda2b60e95b048971db108a19ffddc1c7b1080a046ed4afeea047cfac3ab15c958285300e8e60f745f1bc3ce3cbbec1b25170fd7",
                    "indexes": {
                        "data": 0,
                        "gas": 0,
                        "value": 0
                    },
                    "state": {
                        "0x5fd0bdede7950b1b247665c5142b867f4681bfde": {
                            "nonce": "0x01",
                            "balance": "0x3635c9adc5de95a3e4",
                            "code": "0x",
                            "storage": {}
                        },
                        "0xed6df820f054b5d7acb27cb202ac04c3fa63782f": {
                            "nonce": "0x01",
                            "balance": "0x00",
                            "code": "0x5a6000608060006000600060006000f15a90509003601790036000555a60016080525a90036008900360015500",
                            "storage": {
                                "0x00": "0x0a28",
                                "0x01": "0x12"
                            }
                        },
                        "0x2adc25665018aa1fe0e6bc666dac8fc2697ff9ba": {
                            "nonce": "0x00",
                            "balance": "0x0a5c1c",
                            "code": "0x",
                            "storage": {}
                        }
                    }
                }
            ]
        },
        "config": {
            "chainid": "0x01"
        },
        "_info": {
            "hash": "0xf4cfc133fb9d2ad2a1e38736edb44f3a0dedb7304460391ec0bf6a4c238f03ea",
            "comment": "`execution-spec-tests` generated test",
            "filling-transition-tool": "ethereum-spec-evm-resolver 0.0.5",
            "description": "CALL with ret_offset larger than memory size and ret_size zero\n    Then do an MSTORE in that offset to see if memory was expanded in CALL.\n\n    This is for bug in a faulty EVM implementation where memory is expanded when it shouldn't.",
            "url": "https://github.com/ethereum/execution-spec-tests/tree/v5.1.0/tests/frontier/opcodes/test_call.py#L19",
            "fixture-format": "state_test",
            "eels-resolution": {
                "git-url": "https://github.com/marioevz/execution-specs.git",
                "branch": "forks/bpo1",
                "commit": "3387e5f4aedfe99becfdc39b444d6371e25e0924"
            }
        }
    },
    "tests/frontier/opcodes/test_call.py::test_call_large_offset_mstore[fork_Cancun-state_test]": {
        "env": {
            "currentCoinbase": "0x2adc25665018aa1fe0e6bc666dac8fc2697ff9ba",
            "currentGasLimit": "0x055d4a80",
            "currentNumber": "0x01",
            "currentTimestamp": "0x03e8",
            "currentRandom": "0x0000000000000000000000000000000000000000000000000000000000000000",
            "currentDifficulty": "0x00",
            "currentBaseFee": "0x07",
            "currentExcessBlobGas": "0x00"
        },
        "pre": {
            "0x5fd0bdede7950b1b247665c5142b867f4681bfde": {
                "nonce": "0x00",
                "balance": "0x3635c9adc5dea00000",
                "code": "0x",
                "storage": {}
            },
            "0xed6df820f054b5d7acb27cb202ac04c3fa63782f": {
                "nonce": "0x01",
                "balance": "0x00",
                "code": "0x5a6000608060006000600060006000f15a90509003601790036000555a60016080525a90036008900360015500",
                "storage": {}
            }
        },
        "transaction": {
            "nonce": "0x00",
            "gasPrice": "0x0a",
            "gasLimit": [
                "0x07a120"
            ],
            "to": "0xed6df820f054b5d7acb27cb202ac04c3fa63782f",
            "value": [
                "0x00"
            ],
            "data": [
                "0x"
            ],
            "sender": "0x5fd0bdede7950b1b247665c5142b867f4681bfde",
            "secretKey": "0xaabe7d570037456accd1c59fed6df820f054b5d7acb27cb202ac04c3fa63782f"
        },
        "post": {
            "Cancun": [
                {
                    "hash": "0x1eb35c634de0946e6b8d54d2dc74c7c38e64434548921ee6f852d8697052d3e4",
                    "logs": "0x1dcc4de8dec75d7aab85b567b6ccd41ad312451b948a7413f0a142fd40d49347",
                    "txbytes": "0xf860800a8307a12094ed6df820f054b5d7acb27cb202ac04c3fa63782f808026a0fbe696bc453b6993c607002dedfda2b60e95b048971db108a19ffddc1c7b1080a046ed4afeea047cfac3ab15c958285300e8e60f745f1bc3ce3cbbec1b25170fd7",
                    "indexes": {
                        "data": 0,
                        "gas": 0,
                        "value": 0
                    },
                    "state": {
                        "0x5fd0bdede7950b1b247665c5142b867f4681bfde": {
                            "nonce": "0x01",
                            "balance": "0x3635c9adc5de95a3e4",
                            "code": "0x",
                            "storage": {}
                        },
                        "0xed6df820f054b5d7acb27cb202ac04c3fa63782f": {
                            "nonce": "0x01",
                            "balance": "0x00",
                            "code": "0x5a6000608060006000600060006000f15a90509003601790036000555a60016080525a90036008900360015500",
                            "storage": {
                                "0x00": "0x0a28",
                                "0x01": "0x12"
                            }
                        },
                        "0x2adc25665018aa1fe0e6bc666dac8fc2697ff9ba": {
                            "nonce": "0x00",
                            "balance": "0x031ba2",
                            "code": "0x",
                            "storage": {}
                        }
                    }
                }
            ]
        },
        "config": {
            "blobSchedule": {
                "Cancun": {
                    "target": "0x03",
                    "max": "0x06",
                    "baseFeeUpdateFraction": "0x32f0ed"
                }
            },
            "chainid": "0x01"
        },
        "_info": {
            "hash": "0xbace7fa1b458ce7563f3cadddfb1ee421820df0df4ac02537411015e14830369",
            "comment": "`execution-spec-tests` generated test",
            "filling-transition-tool": "ethereum-spec-evm-resolver 0.0.5",
            "description": "CALL with ret_offset larger than memory size and ret_size zero\n    Then do an MSTORE in that offset to see if memory was expanded in CALL.\n\n    This is for bug in a faulty EVM implementation where memory is expanded when it shouldn't.",
            "url": "https://github.com/ethereum/execution-spec-tests/tree/v5.1.0/tests/frontier/opcodes/test_call.py#L19",
            "fixture-format": "state_test",
            "eels-resolution": {
                "git-url": "https://github.com/marioevz/execution-specs.git",
                "branch": "forks/bpo1",
                "commit": "3387e5f4aedfe99becfdc39b444d6371e25e0924"
            }
        }
    },
    "tests/frontier/opcodes/test_call.py::test_call_large_offset_mstore[fork_London-state_test]": {
        "env": {
            "currentCoinbase": "0x2adc25665018aa1fe0e6bc666dac8fc2697ff9ba",
            "currentGasLimit": "0x055d4a80",
            "currentNumber": "0x01",
            "currentTimestamp": "0x03e8",
            "currentDifficulty": "0x020000",
            "currentBaseFee": "0x07"
        },
        "pre": {
            "0x5fd0bdede7950b1b247665c5142b867f4681bfde": {
                "nonce": "0x00",
                "balance": "0x3635c9adc5dea00000",
                "code": "0x",
                "storage": {}
            },
            "0xed6df820f054b5d7acb27cb202ac04c3fa63782f": {
                "nonce": "0x01",
                "balance": "0x00",
                "code": "0x5a6000608060006000600060006000f15a90509003601790036000555a60016080525a90036008900360015500",
                "storage": {}
            }
        },
        "transaction": {
            "nonce": "0x00",
            "gasPrice": "0x0a",
            "gasLimit": [
                "0x07a120"
            ],
            "to": "0xed6df820f054b5d7acb27cb202ac04c3fa63782f",
            "value": [
                "0x00"
            ],
            "data": [
                "0x"
            ],
            "sender": "0x5fd0bdede7950b1b247665c5142b867f4681bfde",
            "secretKey": "0xaabe7d570037456accd1c59fed6df820f054b5d7acb27cb202ac04c3fa63782f"
        },
        "post": {
            "London": [
                {
                    "hash": "0x1eb35c634de0946e6b8d54d2dc74c7c38e64434548921ee6f852d8697052d3e4",
                    "logs": "0x1dcc4de8dec75d7aab85b567b6ccd41ad312451b948a7413f0a142fd40d49347",
                    "txbytes": "0xf860800a8307a12094ed6df820f054b5d7acb27cb202ac04c3fa63782f808026a0fbe696bc453b6993c607002dedfda2b60e95b048971db108a19ffddc1c7b1080a046ed4afeea047cfac3ab15c958285300e8e60f745f1bc3ce3cbbec1b25170fd7",
                    "indexes": {
                        "data": 0,
                        "gas": 0,
                        "value": 0
                    },
                    "state": {
                        "0x5fd0bdede7950b1b247665c5142b867f4681bfde": {
                            "nonce": "0x01",
                            "balance": "0x3635c9adc5de95a3e4",
                            "code": "0x",
                            "storage": {}
                        },
                        "0xed6df820f054b5d7acb27cb202ac04c3fa63782f": {
                            "nonce": "0x01",
                            "balance": "0x00",
                            "code": "0x5a6000608060006000600060006000f15a90509003601790036000555a60016080525a90036008900360015500",
                            "storage": {
                                "0x00": "0x0a28",
                                "0x01": "0x12"
                            }
                        },
                        "0x2adc25665018aa1fe0e6bc666dac8fc2697ff9ba": {
                            "nonce": "0x00",
                            "balance": "0x031ba2",
                            "code": "0x",
                            "storage": {}
                        }
                    }
                }
            ]
        },
        "config": {
            "chainid": "0x01"
        },
        "_info": {
            "hash": "0xa00fb9528240ccecb35ae6d30e7d1cf8744933c25791209838ad4f60eb4d6860",
            "comment": "`execution-spec-tests` generated test",
            "filling-transition-tool": "ethereum-spec-evm-resolver 0.0.5",
            "description": "CALL with ret_offset larger than memory size and ret_size zero\n    Then do an MSTORE in that offset to see if memory was expanded in CALL.\n\n    This is for bug in a faulty EVM implementation where memory is expanded when it shouldn't.",
            "url": "https://github.com/ethereum/execution-spec-tests/tree/v5.1.0/tests/frontier/opcodes/test_call.py#L19",
            "fixture-format": "state_test",
            "eels-resolution": {
                "git-url": "https://github.com/marioevz/execution-specs.git",
                "branch": "forks/bpo1",
                "commit": "3387e5f4aedfe99becfdc39b444d6371e25e0924"
            }
        }
    },
    "tests/frontier/opcodes/test_call.py::test_call_large_offset_mstore[fork_Osaka-state_test]": {
        "env": {
            "currentCoinbase": "0x2adc25665018aa1fe0e6bc666dac8fc2697ff9ba",
            "currentGasLimit": "0x055d4a80",
            "currentNumber": "0x01",
            "currentTimestamp": "0x03e8",
            "currentRandom": "0x0000000000000000000000000000000000000000000000000000000000000000",
            "currentDifficulty": "0x00",
            "currentBaseFee": "0x07",
            "currentExcessBlobGas": "0x00"
        },
        "pre": {
            "0x5fd0bdede7950b1b247665c5142b867f4681bfde": {
                "nonce": "0x00",
                "balance": "0x3635c9adc5dea00000",
                "code": "0x",
                "storage": {}
            },
            "0xed6df820f054b5d7acb27cb202ac04c3fa63782f": {
                "nonce": "0x01",
                "balance": "0x00",
                "code": "0x5a6000608060006000600060006000f15a90509003601790036000555a60016080525a90036008900360015500",
                "storage": {}
            }
        },
        "transaction": {
            "nonce": "0x00",
            "gasPrice": "0x0a",
            "gasLimit": [
                "0x07a120"
            ],
            "to": "0xed6df820f054b5d7acb27cb202ac04c3fa63782f",
            "value": [
                "0x00"
            ],
            "data": [
                "0x"
            ],
            "sender": "0x5fd0bdede7950b1b247665c5142b867f4681bfde",
            "secretKey": "0xaabe7d570037456accd1c59fed6df820f054b5d7acb27cb202ac04c3fa63782f"
        },
        "post": {
            "Osaka": [
                {
                    "hash": "0x1eb35c634de0946e6b8d54d2dc74c7c38e64434548921ee6f852d8697052d3e4",
                    "logs": "0x1dcc4de8dec75d7aab85b567b6ccd41ad312451b948a7413f0a142fd40d49347",
                    "txbytes": "0xf860800a8307a12094ed6df820f054b5d7acb27cb202ac04c3fa63782f808026a0fbe696bc453b6993c607002dedfda2b60e95b048971db108a19ffddc1c7b1080a046ed4afeea047cfac3ab15c958285300e8e60f745f1bc3ce3cbbec1b25170fd7",
                    "indexes": {
                        "data": 0,
                        "gas": 0,
                        "value": 0
                    },
                    "state": {
                        "0x5fd0bdede7950b1b247665c5142b867f4681bfde": {
                            "nonce": "0x01",
                            "balance": "0x3635c9adc5de95a3e4",
                            "code": "0x",
                            "storage": {}
                        },
                        "0xed6df820f054b5d7acb27cb202ac04c3fa63782f": {
                            "nonce": "0x01",
                            "balance": "0x00",
                            "code": "0x5a6000608060006000600060006000f15a90509003601790036000555a60016080525a90036008900360015500",
                            "storage": {
                                "0x00": "0x0a28",
                                "0x01": "0x12"
                            }
                        },
                        "0x2adc25665018aa1fe0e6bc666dac8fc2697ff9ba": {
                            "nonce": "0x00",
                            "balance": "0x031ba2",
                            "code": "0x",
                            "storage": {}
                        }
                    }
                }
            ]
        },
        "config": {
            "blobSchedule": {
                "Cancun": {
                    "target": "0x03",
                    "max": "0x06",
                    "baseFeeUpdateFraction": "0x32f0ed"
                },
                "Prague": {
                    "target": "0x06",
                    "max": "0x09",
                    "baseFeeUpdateFraction": "0x4c6964"
                },
                "Osaka": {
                    "target": "0x06",
                    "max": "0x09",
                    "baseFeeUpdateFraction": "0x4c6964"
                }
            },
            "chainid": "0x01"
        },
        "_info": {
            "hash": "0x7d23b978527d34ab695e22c830aabab2a8174048a1f713c8265c6b6ad7960c14",
            "comment": "`execution-spec-tests` generated test",
            "filling-transition-tool": "ethereum-spec-evm-resolver 0.0.5",
            "description": "CALL with ret_offset larger than memory size and ret_size zero\n    Then do an MSTORE in that offset to see if memory was expanded in CALL.\n\n    This is for bug in a faulty EVM implementation where memory is expanded when it shouldn't.",
            "url": "https://github.com/ethereum/execution-spec-tests/tree/v5.1.0/tests/frontier/opcodes/test_call.py#L19",
            "fixture-format": "state_test",
            "eels-resolution": {
                "git-url": "https://github.com/marioevz/execution-specs.git",
                "branch": "forks/bpo1",
                "commit": "3387e5f4aedfe99becfdc39b444d6371e25e0924"
            }
        }
    },
    "tests/frontier/opcodes/test_call.py::test_call_large_offset_mstore[fork_Paris-state_test]": {
        "env": {
            "currentCoinbase": "0x2adc25665018aa1fe0e6bc666dac8fc2697ff9ba",
            "currentGasLimit": "0x055d4a80",
            "currentNumber": "0x01",
            "currentTimestamp": "0x03e8",
            "currentRandom": "0x0000000000000000000000000000000000000000000000000000000000000000",
            "currentDifficulty": "0x00",
            "currentBaseFee": "0x07"
        },
        "pre": {
            "0x5fd0bdede7950b1b247665c5142b867f4681bfde": {
                "nonce": "0x00",
                "balance": "0x3635c9adc5dea00000",
                "code": "0x",
                "storage": {}
            },
            "0xed6df820f054b5d7acb27cb202ac04c3fa63782f": {
                "nonce": "0x01",
                "balance": "0x00",
                "code": "0x5a6000608060006000600060006000f15a90509003601790036000555a60016080525a90036008900360015500",
                "storage": {}
            }
        },
        "transaction": {
            "nonce": "0x00",
            "gasPrice": "0x0a",
            "gasLimit": [
                "0x07a120"
            ],
            "to": "0xed6df820f054b5d7acb27cb202ac04c3fa63782f",
            "value": [
                "0x00"
            ],
            "data": [
                "0x"
            ],
            "sender": "0x5fd0bdede7950b1b247665c5142b867f4681bfde",
            "secretKey": "0xaabe7d570037456accd1c59fed6df820f054b5d7acb27cb202ac04c3fa63782f"
        },
        "post": {
            "Paris": [
                {
                    "hash": "0x1eb35c634de0946e6b8d54d2dc74c7c38e64434548921ee6f852d8697052d3e4",
                    "logs": "0x1dcc4de8dec75d7aab85b567b6ccd41ad312451b948a7413f0a142fd40d49347",
                    "txbytes": "0xf860800a8307a12094ed6df820f054b5d7acb27cb202ac04c3fa63782f808026a0fbe696bc453b6993c607002dedfda2b60e95b048971db108a19ffddc1c7b1080a046ed4afeea047cfac3ab15c958285300e8e60f745f1bc3ce3cbbec1b25170fd7",
                    "indexes": {
                        "data": 0,
                        "gas": 0,
                        "value": 0
                    },
                    "state": {
                        "0x5fd0bdede7950b1b247665c5142b867f4681bfde": {
                            "nonce": "0x01",
                            "balance": "0x3635c9adc5de95a3e4",
                            "code": "0x",
                            "storage": {}
                        },
                        "0xed6df820f054b5d7acb27cb202ac04c3fa63782f": {
                            "nonce": "0x01",
                            "balance": "0x00",
                            "code": "0x5a6000608060006000600060006000f15a90509003601790036000555a60016080525a90036008900360015500",
                            "storage": {
                                "0x00": "0x0a28",
                                "0x01": "0x12"
                            }
                        },
                        "0x2adc25665018aa1fe0e6bc666dac8fc2697ff9ba": {
                            "nonce": "0x00",
                            "balance": "0x031ba2",
                            "code": "0x",
                            "storage": {}
                        }
                    }
                }
            ]
        },
        "config": {
            "chainid": "0x01"
        },
        "_info": {
            "hash": "0x814a3947c77dc758821b2fb95c3a9210ff605380a6667d56b5ed1c5ff77bf6f2",
            "comment": "`execution-spec-tests` generated test",
            "filling-transition-tool": "ethereum-spec-evm-resolver 0.0.5",
            "description": "CALL with ret_offset larger than memory size and ret_size zero\n    Then do an MSTORE in that offset to see if memory was expanded in CALL.\n\n    This is for bug in a faulty EVM implementation where memory is expanded when it shouldn't.",
            "url": "https://github.com/ethereum/execution-spec-tests/tree/v5.1.0/tests/frontier/opcodes/test_call.py#L19",
            "fixture-format": "state_test",
            "eels-resolution": {
                "git-url": "https://github.com/marioevz/execution-specs.git",
                "branch": "forks/bpo1",
                "commit": "3387e5f4aedfe99becfdc39b444d6371e25e0924"
            }
        }
    },
    "tests/frontier/opcodes/test_call.py::test_call_large_offset_mstore[fork_Prague-state_test]": {
        "env": {
            "currentCoinbase": "0x2adc25665018aa1fe0e6bc666dac8fc2697ff9ba",
            "currentGasLimit": "0x055d4a80",
            "currentNumber": "0x01",
            "currentTimestamp": "0x03e8",
            "currentRandom": "0x0000000000000000000000000000000000000000000000000000000000000000",
            "currentDifficulty": "0x00",
            "currentBaseFee": "0x07",
            "currentExcessBlobGas": "0x00"
        },
        "pre": {
            "0x5fd0bdede7950b1b247665c5142b867f4681bfde": {
                "nonce": "0x00",
                "balance": "0x3635c9adc5dea00000",
                "code": "0x",
                "storage": {}
            },
            "0xed6df820f054b5d7acb27cb202ac04c3fa63782f": {
                "nonce": "0x01",
                "balance": "0x00",
                "code": "0x5a6000608060006000600060006000f15a90509003601790036000555a60016080525a90036008900360015500",
                "storage": {}
            }
        },
        "transaction": {
            "nonce": "0x00",
            "gasPrice": "0x0a",
            "gasLimit": [
                "0x07a120"
            ],
            "to": "0xed6df820f054b5d7acb27cb202ac04c3fa63782f",
            "value": [
                "0x00"
            ],
            "data": [
                "0x"
            ],
            "sender": "0x5fd0bdede7950b1b247665c5142b867f4681bfde",
            "secretKey": "0xaabe7d570037456accd1c59fed6df820f054b5d7acb27cb202ac04c3fa63782f"
        },
        "post": {
            "Prague": [
                {
                    "hash": "0x1eb35c634de0946e6b8d54d2dc74c7c38e64434548921ee6f852d8697052d3e4",
                    "logs": "0x1dcc4de8dec75d7aab85b567b6ccd41ad312451b948a7413f0a142fd40d49347",
                    "txbytes": "0xf860800a8307a12094ed6df820f054b5d7acb27cb202ac04c3fa63782f808026a0fbe696bc453b6993c607002dedfda2b60e95b048971db108a19ffddc1c7b1080a046ed4afeea047cfac3ab15c958285300e8e60f745f1bc3ce3cbbec1b25170fd7",
                    "indexes": {
                        "data": 0,
                        "gas": 0,
                        "value": 0
                    },
                    "state": {
                        "0x5fd0bdede7950b1b247665c5142b867f4681bfde": {
                            "nonce": "0x01",
                            "balance": "0x3635c9adc5de95a3e4",
                            "code": "0x",
                            "storage": {}
                        },
                        "0xed6df820f054b5d7acb27cb202ac04c3fa63782f": {
                            "nonce": "0x01",
                            "balance": "0x00",
                            "code": "0x5a6000608060006000600060006000f15a90509003601790036000555a60016080525a90036008900360015500",
                            "storage": {
                                "0x00": "0x0a28",
                                "0x01": "0x12"
                            }
                        },
                        "0x2adc25665018aa1fe0e6bc666dac8fc2697ff9ba": {
                            "nonce": "0x00",
                            "balance": "0x031ba2",
                            "code": "0x",
                            "storage": {}
                        }
                    }
                }
            ]
        },
        "config": {
            "blobSchedule": {
                "Cancun": {
                    "target": "0x03",
                    "max": "0x06",
                    "baseFeeUpdateFraction": "0x32f0ed"
                },
                "Prague": {
                    "target": "0x06",
                    "max": "0x09",
                    "baseFeeUpdateFraction": "0x4c6964"
                }
            },
            "chainid": "0x01"
        },
        "_info": {
            "hash": "0x6745ec25cbb9c6634a4593140b2a8d0bc740c6f8a03ba7611ee86d8fb8a63e5b",
            "comment": "`execution-spec-tests` generated test",
            "filling-transition-tool": "ethereum-spec-evm-resolver 0.0.5",
            "description": "CALL with ret_offset larger than memory size and ret_size zero\n    Then do an MSTORE in that offset to see if memory was expanded in CALL.\n\n    This is for bug in a faulty EVM implementation where memory is expanded when it shouldn't.",
            "url": "https://github.com/ethereum/execution-spec-tests/tree/v5.1.0/tests/frontier/opcodes/test_call.py#L19",
            "fixture-format": "state_test",
            "eels-resolution": {
                "git-url": "https://github.com/marioevz/execution-specs.git",
                "branch": "forks/bpo1",
                "commit": "3387e5f4aedfe99becfdc39b444d6371e25e0924"
            }
        }
    },
    "tests/frontier/opcodes/test_call.py::test_call_large_offset_mstore[fork_Shanghai-state_test]": {
        "env": {
            "currentCoinbase": "0x2adc25665018aa1fe0e6bc666dac8fc2697ff9ba",
            "currentGasLimit": "0x055d4a80",
            "currentNumber": "0x01",
            "currentTimestamp": "0x03e8",
            "currentRandom": "0x0000000000000000000000000000000000000000000000000000000000000000",
            "currentDifficulty": "0x00",
            "currentBaseFee": "0x07"
        },
        "pre": {
            "0x5fd0bdede7950b1b247665c5142b867f4681bfde": {
                "nonce": "0x00",
                "balance": "0x3635c9adc5dea00000",
                "code": "0x",
                "storage": {}
            },
            "0xed6df820f054b5d7acb27cb202ac04c3fa63782f": {
                "nonce": "0x01",
                "balance": "0x00",
                "code": "0x5a6000608060006000600060006000f15a90509003601790036000555a60016080525a90036008900360015500",
                "storage": {}
            }
        },
        "transaction": {
            "nonce": "0x00",
            "gasPrice": "0x0a",
            "gasLimit": [
                "0x07a120"
            ],
            "to": "0xed6df820f054b5d7acb27cb202ac04c3fa63782f",
            "value": [
                "0x00"
            ],
            "data": [
                "0x"
            ],
            "sender": "0x5fd0bdede7950b1b247665c5142b867f4681bfde",
            "secretKey": "0xaabe7d570037456accd1c59fed6df820f054b5d7acb27cb202ac04c3fa63782f"
        },
        "post": {
            "Shanghai": [
                {
                    "hash": "0x1eb35c634de0946e6b8d54d2dc74c7c38e64434548921ee6f852d8697052d3e4",
                    "logs": "0x1dcc4de8dec75d7aab85b567b6ccd41ad312451b948a7413f0a142fd40d49347",
                    "txbytes": "0xf860800a8307a12094ed6df820f054b5d7acb27cb202ac04c3fa63782f808026a0fbe696bc453b6993c607002dedfda2b60e95b048971db108a19ffddc1c7b1080a046ed4afeea047cfac3ab15c958285300e8e60f745f1bc3ce3cbbec1b25170fd7",
                    "indexes": {
                        "data": 0,
                        "gas": 0,
                        "value": 0
                    },
                    "state": {
                        "0x5fd0bdede7950b1b247665c5142b867f4681bfde": {
                            "nonce": "0x01",
                            "balance": "0x3635c9adc5de95a3e4",
                            "code": "0x",
                            "storage": {}
                        },
                        "0xed6df820f054b5d7acb27cb202ac04c3fa63782f": {
                            "nonce": "0x01",
                            "balance": "0x00",
                            "code": "0x5a6000608060006000600060006000f15a90509003601790036000555a60016080525a90036008900360015500",
                            "storage": {
                                "0x00": "0x0a28",
                                "0x01": "0x12"
                            }
                        },
                        "0x2adc25665018aa1fe0e6bc666dac8fc2697ff9ba": {
                            "nonce": "0x00",
                            "balance": "0x031ba2",
                            "code": "0x",
                            "storage": {}
                        }
                    }
                }
            ]
        },
        "config": {
            "chainid": "0x01"
        },
        "_info": {
            "hash": "0x6d9421fa3af84e23ea5ddfc6ed324d900668c463a2ba682467f610232c3983cc",
            "comment": "`execution-spec-tests` generated test",
            "filling-transition-tool": "ethereum-spec-evm-resolver 0.0.5",
            "description": "CALL with ret_offset larger than memory size and ret_size zero\n    Then do an MSTORE in that offset to see if memory was expanded in CALL.\n\n    This is for bug in a faulty EVM implementation where memory is expanded when it shouldn't.",
            "url": "https://github.com/ethereum/execution-spec-tests/tree/v5.1.0/tests/frontier/opcodes/test_call.py#L19",
            "fixture-format": "state_test",
            "eels-resolution": {
                "git-url": "https://github.com/marioevz/execution-specs.git",
                "branch": "forks/bpo1",
                "commit": "3387e5f4aedfe99becfdc39b444d6371e25e0924"
            }
        }
    }
}