{
    "tests/ported_static/stLogTests/test_log3_non_empty_mem.py::test_log3_non_empty_mem[fork_Cancun-blockchain_test_from_state_test]": {
        "network": "Cancun",
        "genesisBlockHeader": {
            "parentHash": "0x0000000000000000000000000000000000000000000000000000000000000000",
            "uncleHash": "0x1dcc4de8dec75d7aab85b567b6ccd41ad312451b948a7413f0a142fd40d49347",
            "coinbase": "0x0000000000000000000000000000000000000000",
            "stateRoot": "0x7a8b1f712f70c262d51dddfc4349bb70d95c0cdc619b2d548198fce413a5e652",
            "transactionsTrie": "0x56e81f171bcc55a6ff8345e692c0f86e5b48e01b996cadc001622fb5e363b421",
            "receiptTrie": "0x56e81f171bcc55a6ff8345e692c0f86e5b48e01b996cadc001622fb5e363b421",
            "bloom": "0x00000000000000000000000000000000000000000000000000000000000000000000000000000000000000000000000000000000000000000000000000000000000000000000000000000000000000000000000000000000000000000000000000000000000000000000000000000000000000000000000000000000000000000000000000000000000000000000000000000000000000000000000000000000000000000000000000000000000000000000000000000000000000000000000000000000000000000000000000000000000000000000000000000000000000000000000000000000000000000000000000000000000000000000000000000000",
            "difficulty": "0x00",
            "number": "0x00",
            "gasLimit": "0x0f4240",
            "gasUsed": "0x00",
            "timestamp": "0x00",
            "extraData": "0x00",
            "mixHash": "0x0000000000000000000000000000000000000000000000000000000000000000",
            "nonce": "0x0000000000000000",
            "baseFeePerGas": "0x0b",
            "withdrawalsRoot": "0x56e81f171bcc55a6ff8345e692c0f86e5b48e01b996cadc001622fb5e363b421",
            "blobGasUsed": "0x00",
            "excessBlobGas": "0x00",
            "parentBeaconBlockRoot": "0x0000000000000000000000000000000000000000000000000000000000000000",
            "hash": "0x026d5cca03a6d3dda3158b48feebf7b66c4df4f9473d378de6c3a4e32527d3b0"
        },
        "pre": {
            "0x000f3df6d732807ef1319fb7b8bb8522d0beac02": {
                "nonce": "0x01",
                "balance": "0x00",
                "code": "0x3373fffffffffffffffffffffffffffffffffffffffe14604d57602036146024575f5ffd5b5f35801560495762001fff810690815414603c575f5ffd5b62001fff01545f5260205ff35b5f5ffd5b62001fff42064281555f359062001fff015500",
                "storage": {}
            },
            "0xd66f224cbd2fabb21b17bb53c56118f32f62ebd6": {
                "nonce": "0x00",
                "balance": "0x0de0b6b3a7640000",
                "code": "0x",
                "storage": {}
            },
            "0x232516b0dfdca687b62441b5e822ea96f5edec6d": {
                "nonce": "0x00",
                "balance": "0x0de0b6b3a7640000",
                "code": "0x7fffffffffffffffffffffffffffffffffffffffffffffffffffffffffffffffff60005260006000600060206000a300",
                "storage": {}
            },
            "0x0b43ffc2a100c0e9d170de2121f318fe098108e1": {
                "nonce": "0x00",
                "balance": "0x0de0b6b3a7640000",
                "code": "0x6000600060006000601773232516b0dfdca687b62441b5e822ea96f5edec6d6103e8f160005500",
                "storage": {}
            }
        },
        "postState": {
            "0x000f3df6d732807ef1319fb7b8bb8522d0beac02": {
                "nonce": "0x01",
                "balance": "0x00",
                "code": "0x3373fffffffffffffffffffffffffffffffffffffffe14604d57602036146024575f5ffd5b5f35801560495762001fff810690815414603c575f5ffd5b62001fff01545f5260205ff35b5f5ffd5b62001fff42064281555f359062001fff015500",
                "storage": {
                    "0x03e8": "0x03e8"
                }
            },
            "0xd66f224cbd2fabb21b17bb53c56118f32f62ebd6": {
                "nonce": "0x01",
                "balance": "0x0de0b6b3a75a33ea",
                "code": "0x",
                "storage": {}
            },
            "0x232516b0dfdca687b62441b5e822ea96f5edec6d": {
                "nonce": "0x00",
                "balance": "0x0de0b6b3a7640017",
                "code": "0x7fffffffffffffffffffffffffffffffffffffffffffffffffffffffffffffffff60005260006000600060206000a300",
                "storage": {}
            },
            "0x0b43ffc2a100c0e9d170de2121f318fe098108e1": {
                "nonce": "0x00",
                "balance": "0x0de0b6b3a7658689",
                "code": "0x6000600060006000601773232516b0dfdca687b62441b5e822ea96f5edec6d6103e8f160005500",
                "storage": {
                    "0x00": "0x01"
                }
            }
        },
        "lastblockhash": "0x6a62d54787ebfd14b6304dcab8ca7090cbb9377383ce4fa39e0d54f778226be4",
        "config": {
            "network": "Cancun",
            "chainid": "0x01",
            "blobSchedule": {
                "Cancun": {
                    "target": "0x03",
                    "max": "0x06",
                    "baseFeeUpdateFraction": "0x32f0ed"
                }
            }
        },
        "genesisRLP": "0xf9023bf90235a00000000000000000000000000000000000000000000000000000000000000000a01dcc4de8dec75d7aab85b567b6ccd41ad312451b948a7413f0a142fd40d49347940000000000000000000000000000000000000000a07a8b1f712f70c262d51dddfc4349bb70d95c0cdc619b2d548198fce413a5e652a056e81f171bcc55a6ff8345e692c0f86e5b48e01b996cadc001622fb5e363b421a056e81f171bcc55a6ff8345e692c0f86e5b48e01b996cadc001622fb5e363b421b90100000000000000000000000000000000000000000000000000000000000000000000000000000000000000000000000000000000000000000000000000000000000000000000000000000000000000000000000000000000000000000000000000000000000000000000000000000000000000000000000000000000000000000000000000000000000000000000000000000000000000000000000000000000000000000000000000000000000000000000000000000000000000000000000000000000000000000000000000000000000000000000000000000000000000000000000000000000000000000000000000000000000000000000000000000000008080830f4240808000a000000000000000000000000000000000000000000000000000000000000000008800000000000000000ba056e81f171bcc55a6ff8345e692c0f86e5b48e01b996cadc001622fb5e363b4218080a00000000000000000000000000000000000000000000000000000000000000000c0c0c0",
        "blocks": [
            {
                "blockHeader": {
                    "parentHash": "0x026d5cca03a6d3dda3158b48feebf7b66c4df4f9473d378de6c3a4e32527d3b0",
                    "uncleHash": "0x1dcc4de8dec75d7aab85b567b6ccd41ad312451b948a7413f0a142fd40d49347",
                    "coinbase": "0x2adc25665018aa1fe0e6bc666dac8fc2697ff9ba",
                    "stateRoot": "0x1e9d8343e7be344017db1f967a922039f8edda0b328ce79ce6caa65f5d1b231b",
                    "transactionsTrie": "0x84eb7f7a98e7364e04647b83b8d2dc27e8d4f05f0cb7f4ac016c9bf25d65acad",
                    "receiptTrie": "0xbc078f140dd937e682ca9cb8b871374a81f9b35b9f06b1d2d3a556df948e719c",
                    "bloom": "0x00000000000000000000000000000000000000000000000000000000000800000000000000000000000000000000000000000000000000000000000000000000000000000000000000000000000000000080000000000000000000000000000000000000020000000000000000000800000000000000000000000000000000000000000000000000000000000000000000000000000000000000000000000000000000000000000000000000000000000000000000000000000000000000000000000000000000000000000000000400000000000000000000000000000020000000000000000000000000000000000000000000000000000000000000000000",
                    "difficulty": "0x00",
                    "number": "0x01",
                    "gasLimit": "0x0f4240",
                    "gasUsed": "0xd3bf",
                    "timestamp": "0x03e8",
                    "extraData": "0x00",
                    "mixHash": "0x0000000000000000000000000000000000000000000000000000000000020000",
                    "nonce": "0x0000000000000000",
                    "baseFeePerGas": "0x0a",
                    "withdrawalsRoot": "0x56e81f171bcc55a6ff8345e692c0f86e5b48e01b996cadc001622fb5e363b421",
                    "blobGasUsed": "0x00",
                    "excessBlobGas": "0x00",
                    "parentBeaconBlockRoot": "0x0000000000000000000000000000000000000000000000000000000000000000",
                    "hash": "0x6a62d54787ebfd14b6304dcab8ca7090cbb9377383ce4fa39e0d54f778226be4"
                },
                "transactions": [
                    {
                        "type": "0x00",
                        "chainId": "0x01",
                        "nonce": "0x00",
                        "gasPrice": "0x0a",
                        "gasLimit": "0x033450",
                        "to": "0x0b43ffc2a100c0e9d170de2121f318fe098108e1",
                        "value": "0x0186a0",
                        "data": "0x",
                        "v": "0x25",
                        "r": "0x5f477465e1eb7ab4ad5937ef2cd03bc893d365a2a7a6c27476917048a18f772f",
                        "s": "0x06f14aee0763661cc75f69b93aab4260459c1ca96a8e079b89a4e105a1ec40c8",
                        "sender": "0xd66f224cbd2fabb21b17bb53c56118f32f62ebd6"
                    }
                ],
                "uncleHeaders": [],
                "withdrawals": [],
                "receipts": [
                    {
                        "transactionHash": "0xb65a0af945c3623200ef49987512554903bf1d781a9629110fe095efa0da5385",
                        "type": "0x00",
                        "cumulativeGasUsed": "0xd3bf",
                        "bloom": "0x00000000000000000000000000000000000000000000000000000000000800000000000000000000000000000000000000000000000000000000000000000000000000000000000000000000000000000080000000000000000000000000000000000000020000000000000000000800000000000000000000000000000000000000000000000000000000000000000000000000000000000000000000000000000000000000000000000000000000000000000000000000000000000000000000000000000000000000000000000400000000000000000000000000000020000000000000000000000000000000000000000000000000000000000000000000",
                        "logs": [
                            {
                                "address": "0x232516b0dfdca687b62441b5e822ea96f5edec6d",
                                "topics": [
                                    "0x0000000000000000000000000000000000000000000000000000000000000000",
                                    "0x0000000000000000000000000000000000000000000000000000000000000000",
                                    "0x0000000000000000000000000000000000000000000000000000000000000000"
                                ],
                                "data": "0xffffffffffffffffffffffffffffffffffffffffffffffffffffffffffffffff"
                            }
                        ],
                        "status": true,
                        "rlp": "0xf901a60182d3bfb9010000000000000000000000000000000000000000000000000000000000000800000000000000000000000000000000000000000000000000000000000000000000000000000000000000000000000000000080000000000000000000000000000000000000020000000000000000000800000000000000000000000000000000000000000000000000000000000000000000000000000000000000000000000000000000000000000000000000000000000000000000000000000000000000000000000000000000000000000000000400000000000000000000000000000020000000000000000000000000000000000000000000000000000000000000000000f89df89b94232516b0dfdca687b62441b5e822ea96f5edec6df863a00000000000000000000000000000000000000000000000000000000000000000a00000000000000000000000000000000000000000000000000000000000000000a00000000000000000000000000000000000000000000000000000000000000000a0ffffffffffffffffffffffffffffffffffffffffffffffffffffffffffffffff"
                    }
                ],
                "rlp": "0xf902a5f90239a0026d5cca03a6d3dda3158b48feebf7b66c4df4f9473d378de6c3a4e32527d3b0a01dcc4de8dec75d7aab85b567b6ccd41ad312451b948a7413f0a142fd40d49347942adc25665018aa1fe0e6bc666dac8fc2697ff9baa01e9d8343e7be344017db1f967a922039f8edda0b328ce79ce6caa65f5d1b231ba084eb7f7a98e7364e04647b83b8d2dc27e8d4f05f0cb7f4ac016c9bf25d65acada0bc078f140dd937e682ca9cb8b871374a81f9b35b9f06b1d2d3a556df948e719cb90100000000000000000000000000000000000000000000000000000000000008000000000000000000000000000000000000000000000000000000000000000000000000000000000000000000000000000000800000000000000000000000000000000000000200000000000000000008000000000000000000000000000000000000000000000000000000000000000000000000000000000000000000000000000000000000000000000000000000000000000000000000000000000000000000000000000000000000000000000004000000000000000000000000000000200000000000000000000000000000000000000000000000000000000000000000008001830f424082d3bf8203e800a000000000000000000000000000000000000000000000000000000000000200008800000000000000000aa056e81f171bcc55a6ff8345e692c0f86e5b48e01b996cadc001622fb5e363b4218080a00000000000000000000000000000000000000000000000000000000000000000f865f863800a83033450940b43ffc2a100c0e9d170de2121f318fe098108e1830186a08025a05f477465e1eb7ab4ad5937ef2cd03bc893d365a2a7a6c27476917048a18f772fa006f14aee0763661cc75f69b93aab4260459c1ca96a8e079b89a4e105a1ec40c8c0c0",
                "blocknumber": "1"
            }
        ],
        "sealEngine": "NoProof",
        "_info": {
            "hash": "0xc6971c28d1fdaa0e3461e38477cbb0a64959ea09dcb0f999f71df38a66fc2f98",
            "fixture-format": "blockchain_test",
            "comment": "`execution-specs` generated test",
            "filling-transition-tool": "2.19.0",
            "description": "Test_log3_non_empty_mem.",
            "url": "https://github.com/ethereum/execution-specs/blob/tests-snobal-devnet-5@v8037.0.0/tests/ported_static/stLogTests/test_log3_non_empty_mem.py#L24",
            "metadata": {
                "opcode_count": {}
            }
        }
    }
}