{
    "tests/ported_static/stCallCodes/test_callcode_in_initcode_to_existing_contract_with_value_transfer.py::test_callcode_in_initcode_to_existing_contract_with_value_transfer[fork_Cancun-blockchain_test_from_state_test]": {
        "network": "Cancun",
        "genesisBlockHeader": {
            "parentHash": "0x0000000000000000000000000000000000000000000000000000000000000000",
            "uncleHash": "0x1dcc4de8dec75d7aab85b567b6ccd41ad312451b948a7413f0a142fd40d49347",
            "coinbase": "0x0000000000000000000000000000000000000000",
            "stateRoot": "0x95092183eb021527f2ca2be1b0325df258a5d4e4cd0cba21a462d0ede485a04d",
            "transactionsTrie": "0x56e81f171bcc55a6ff8345e692c0f86e5b48e01b996cadc001622fb5e363b421",
            "receiptTrie": "0x56e81f171bcc55a6ff8345e692c0f86e5b48e01b996cadc001622fb5e363b421",
            "bloom": "0x00000000000000000000000000000000000000000000000000000000000000000000000000000000000000000000000000000000000000000000000000000000000000000000000000000000000000000000000000000000000000000000000000000000000000000000000000000000000000000000000000000000000000000000000000000000000000000000000000000000000000000000000000000000000000000000000000000000000000000000000000000000000000000000000000000000000000000000000000000000000000000000000000000000000000000000000000000000000000000000000000000000000000000000000000000000",
            "difficulty": "0x00",
            "number": "0x00",
            "gasLimit": "0x0f4240",
            "gasUsed": "0x00",
            "timestamp": "0x00",
            "extraData": "0x00",
            "mixHash": "0x0000000000000000000000000000000000000000000000000000000000000000",
            "nonce": "0x0000000000000000",
            "baseFeePerGas": "0x0b",
            "withdrawalsRoot": "0x56e81f171bcc55a6ff8345e692c0f86e5b48e01b996cadc001622fb5e363b421",
            "blobGasUsed": "0x00",
            "excessBlobGas": "0x00",
            "parentBeaconBlockRoot": "0x0000000000000000000000000000000000000000000000000000000000000000",
            "hash": "0x65bbf5d3cb0f19cc03648efc8c5f93204a90bd414ddb3124042ef7adc4d8ac8a"
        },
        "pre": {
            "0x000f3df6d732807ef1319fb7b8bb8522d0beac02": {
                "nonce": "0x01",
                "balance": "0x00",
                "code": "0x3373fffffffffffffffffffffffffffffffffffffffe14604d57602036146024575f5ffd5b5f35801560495762001fff810690815414603c575f5ffd5b62001fff01545f5260205ff35b5f5ffd5b62001fff42064281555f359062001fff015500",
                "storage": {}
            },
            "0xa94f5374fce5edbc8e2a8697c15331677e6ebf0b": {
                "nonce": "0x00",
                "balance": "0x2386f26fc10000",
                "code": "0x",
                "storage": {}
            },
            "0x1000000000000000000000000000000000000000": {
                "nonce": "0x00",
                "balance": "0x2710",
                "code": "0x7f6040600060406000600573945304eb96065b2a98b57a48a06ae28d285a71b5626000527f0186a0f260005500000000000000000000000000000000000000000000000000602052604060006005f000",
                "storage": {}
            },
            "0x945304eb96065b2a98b57a48a06ae28d285a71b5": {
                "nonce": "0x00",
                "balance": "0x00",
                "code": "0x600160025500",
                "storage": {}
            }
        },
        "postState": {
            "0x000f3df6d732807ef1319fb7b8bb8522d0beac02": {
                "nonce": "0x01",
                "balance": "0x00",
                "code": "0x3373fffffffffffffffffffffffffffffffffffffffe14604d57602036146024575f5ffd5b5f35801560495762001fff810690815414603c575f5ffd5b62001fff01545f5260205ff35b5f5ffd5b62001fff42064281555f359062001fff015500",
                "storage": {
                    "0x03e8": "0x03e8"
                }
            },
            "0xa94f5374fce5edbc8e2a8697c15331677e6ebf0b": {
                "nonce": "0x01",
                "balance": "0x2386f26fb0bcfe",
                "code": "0x",
                "storage": {}
            },
            "0x1000000000000000000000000000000000000000": {
                "nonce": "0x01",
                "balance": "0x270b",
                "code": "0x7f6040600060406000600573945304eb96065b2a98b57a48a06ae28d285a71b5626000527f0186a0f260005500000000000000000000000000000000000000000000000000602052604060006005f000",
                "storage": {}
            },
            "0x945304eb96065b2a98b57a48a06ae28d285a71b5": {
                "nonce": "0x00",
                "balance": "0x00",
                "code": "0x600160025500",
                "storage": {}
            },
            "0x13136008b64ff592819b2fa6d43f2835c452020e": {
                "nonce": "0x01",
                "balance": "0x05",
                "code": "0x",
                "storage": {
                    "0x02": "0x01",
                    "0x00": "0x01"
                }
            }
        },
        "lastblockhash": "0x0b66f52639ee8232897167022c54dbfa21e14f04cfebc14ed131dd3c8336a63a",
        "config": {
            "network": "Cancun",
            "chainid": "0x01",
            "blobSchedule": {
                "Cancun": {
                    "target": "0x03",
                    "max": "0x06",
                    "baseFeeUpdateFraction": "0x32f0ed"
                }
            }
        },
        "genesisRLP": "0xf9023bf90235a00000000000000000000000000000000000000000000000000000000000000000a01dcc4de8dec75d7aab85b567b6ccd41ad312451b948a7413f0a142fd40d49347940000000000000000000000000000000000000000a095092183eb021527f2ca2be1b0325df258a5d4e4cd0cba21a462d0ede485a04da056e81f171bcc55a6ff8345e692c0f86e5b48e01b996cadc001622fb5e363b421a056e81f171bcc55a6ff8345e692c0f86e5b48e01b996cadc001622fb5e363b421b90100000000000000000000000000000000000000000000000000000000000000000000000000000000000000000000000000000000000000000000000000000000000000000000000000000000000000000000000000000000000000000000000000000000000000000000000000000000000000000000000000000000000000000000000000000000000000000000000000000000000000000000000000000000000000000000000000000000000000000000000000000000000000000000000000000000000000000000000000000000000000000000000000000000000000000000000000000000000000000000000000000000000000000000000000000000008080830f4240808000a000000000000000000000000000000000000000000000000000000000000000008800000000000000000ba056e81f171bcc55a6ff8345e692c0f86e5b48e01b996cadc001622fb5e363b4218080a00000000000000000000000000000000000000000000000000000000000000000c0c0c0",
        "blocks": [
            {
                "blockHeader": {
                    "parentHash": "0x65bbf5d3cb0f19cc03648efc8c5f93204a90bd414ddb3124042ef7adc4d8ac8a",
                    "uncleHash": "0x1dcc4de8dec75d7aab85b567b6ccd41ad312451b948a7413f0a142fd40d49347",
                    "coinbase": "0x2adc25665018aa1fe0e6bc666dac8fc2697ff9ba",
                    "stateRoot": "0xe54c04134811c1d98621d324b2a7512c620d5c6d9a763e819cc2cdc6372b28fb",
                    "transactionsTrie": "0x6f2e808993813f49aa731f7730864f8a3db28be02c519609854378d612d3e5bb",
                    "receiptTrie": "0x1294afb58285be0b9a5e0e07270c2d2b79663187aa19093648a593401c8bfcbc",
                    "bloom": "0x00000000000000000000000000000000000000000000000000000000000000000000000000000000000000000000000000000000000000000000000000000000000000000000000000000000000000000000000000000000000000000000000000000000000000000000000000000000000000000000000000000000000000000000000000000000000000000000000000000000000000000000000000000000000000000000000000000000000000000000000000000000000000000000000000000000000000000000000000000000000000000000000000000000000000000000000000000000000000000000000000000000000000000000000000000000",
                    "difficulty": "0x00",
                    "number": "0x01",
                    "gasLimit": "0x0f4240",
                    "gasUsed": "0x01a04d",
                    "timestamp": "0x03e8",
                    "extraData": "0x00",
                    "mixHash": "0x0000000000000000000000000000000000000000000000000000000000020000",
                    "nonce": "0x0000000000000000",
                    "baseFeePerGas": "0x0a",
                    "withdrawalsRoot": "0x56e81f171bcc55a6ff8345e692c0f86e5b48e01b996cadc001622fb5e363b421",
                    "blobGasUsed": "0x00",
                    "excessBlobGas": "0x00",
                    "parentBeaconBlockRoot": "0x0000000000000000000000000000000000000000000000000000000000000000",
                    "hash": "0x0b66f52639ee8232897167022c54dbfa21e14f04cfebc14ed131dd3c8336a63a"
                },
                "transactions": [
                    {
                        "type": "0x00",
                        "chainId": "0x01",
                        "nonce": "0x00",
                        "gasPrice": "0x0a",
                        "gasLimit": "0x06e9d9",
                        "to": "0x1000000000000000000000000000000000000000",
                        "value": "0x00",
                        "data": "0x",
                        "v": "0x25",
                        "r": "0xa4957e56e8530d6993f52d4626230b30f578c6f96333fcb99c79abadc815af61",
                        "s": "0x4ddd6d39c44066ba164c06e1a9a2b8c904172446be205600d377edd09bd69c8e",
                        "sender": "0xa94f5374fce5edbc8e2a8697c15331677e6ebf0b"
                    }
                ],
                "uncleHeaders": [],
                "withdrawals": [],
                "receipts": [
                    {
                        "transactionHash": "0xb5cbb6b7895c01d12f8e79d09615f03c50a1423ba818458d349f9e8ee042520a",
                        "type": "0x00",
                        "cumulativeGasUsed": "0x01a04d",
                        "bloom": "0x00000000000000000000000000000000000000000000000000000000000000000000000000000000000000000000000000000000000000000000000000000000000000000000000000000000000000000000000000000000000000000000000000000000000000000000000000000000000000000000000000000000000000000000000000000000000000000000000000000000000000000000000000000000000000000000000000000000000000000000000000000000000000000000000000000000000000000000000000000000000000000000000000000000000000000000000000000000000000000000000000000000000000000000000000000000",
                        "logs": [],
                        "status": true,
                        "rlp": "0xf90109018301a04db9010000000000000000000000000000000000000000000000000000000000000000000000000000000000000000000000000000000000000000000000000000000000000000000000000000000000000000000000000000000000000000000000000000000000000000000000000000000000000000000000000000000000000000000000000000000000000000000000000000000000000000000000000000000000000000000000000000000000000000000000000000000000000000000000000000000000000000000000000000000000000000000000000000000000000000000000000000000000000000000000000000000000000000000000000000000000c0"
                    }
                ],
                "rlp": "0xf902a3f9023aa065bbf5d3cb0f19cc03648efc8c5f93204a90bd414ddb3124042ef7adc4d8ac8aa01dcc4de8dec75d7aab85b567b6ccd41ad312451b948a7413f0a142fd40d49347942adc25665018aa1fe0e6bc666dac8fc2697ff9baa0e54c04134811c1d98621d324b2a7512c620d5c6d9a763e819cc2cdc6372b28fba06f2e808993813f49aa731f7730864f8a3db28be02c519609854378d612d3e5bba01294afb58285be0b9a5e0e07270c2d2b79663187aa19093648a593401c8bfcbcb90100000000000000000000000000000000000000000000000000000000000000000000000000000000000000000000000000000000000000000000000000000000000000000000000000000000000000000000000000000000000000000000000000000000000000000000000000000000000000000000000000000000000000000000000000000000000000000000000000000000000000000000000000000000000000000000000000000000000000000000000000000000000000000000000000000000000000000000000000000000000000000000000000000000000000000000000000000000000000000000000000000000000000000000000000000000008001830f42408301a04d8203e800a000000000000000000000000000000000000000000000000000000000000200008800000000000000000aa056e81f171bcc55a6ff8345e692c0f86e5b48e01b996cadc001622fb5e363b4218080a00000000000000000000000000000000000000000000000000000000000000000f862f860800a8306e9d9941000000000000000000000000000000000000000808025a0a4957e56e8530d6993f52d4626230b30f578c6f96333fcb99c79abadc815af61a04ddd6d39c44066ba164c06e1a9a2b8c904172446be205600d377edd09bd69c8ec0c0",
                "blocknumber": "1"
            }
        ],
        "sealEngine": "NoProof",
        "_info": {
            "hash": "0x399092ca42b8d05032600cae7efd0b33edfb04e540d286d58ab12598ead49c29",
            "fixture-format": "blockchain_test",
            "comment": "`execution-specs` generated test",
            "filling-transition-tool": "2.19.0",
            "description": "Callcode inside create/create2 contract init to existing contract.",
            "url": "https://github.com/ethereum/execution-specs/blob/tests-snobal-devnet-5@v8037.0.0/tests/ported_static/stCallCodes/test_callcode_in_initcode_to_existing_contract_with_value_transfer.py#L26",
            "metadata": {
                "opcode_count": {}
            }
        }
    }
}