{
    "tests/cancun/eip1153_tstore/test_basic_tload.py::test_basic_tload_after_store[fork_Cancun-state_test]": {
        "env": {
            "currentCoinbase": "0x2adc25665018aa1fe0e6bc666dac8fc2697ff9ba",
            "currentGasLimit": "0x055d4a80",
            "currentNumber": "0x01",
            "currentTimestamp": "0x03e8",
            "currentRandom": "0x0000000000000000000000000000000000000000000000000000000000000000",
            "currentDifficulty": "0x00",
            "currentBaseFee": "0x07",
            "currentExcessBlobGas": "0x00"
        },
        "pre": {
            "0x1ad41edb9130201ba8476168bcbf9bafe279f89d": {
                "nonce": "0x01",
                "balance": "0x00",
                "code": "0x5b601660015560015c6001556001600255",
                "storage": {
                    "0x01": "0xff"
                }
            },
            "0x766b923079c2900993bafa89b07d66423481776e": {
                "nonce": "0x00",
                "balance": "0x6124fee993bc0000",
                "code": "0x",
                "storage": {}
            }
        },
        "transaction": {
            "nonce": "0x00",
            "gasPrice": "0x0a",
            "gasLimit": [
                "0x4c4b40"
            ],
            "to": "0x1ad41edb9130201ba8476168bcbf9bafe279f89d",
            "value": [
                "0x00"
            ],
            "data": [
                "0x"
            ],
            "sender": "0x766b923079c2900993bafa89b07d66423481776e",
            "secretKey": "0xf792f84d3860ff35b56caae61ad41edb9130201ba8476168bcbf9bafe279f89d"
        },
        "post": {
            "Cancun": [
                {
                    "hash": "0x26ee901705e7190e9f9b97d60e70ccc7b5ae6881b1609b379d5e683d5de99ec0",
                    "logs": "0x1dcc4de8dec75d7aab85b567b6ccd41ad312451b948a7413f0a142fd40d49347",
                    "txbytes": "0xf860800a834c4b40941ad41edb9130201ba8476168bcbf9bafe279f89d808025a049c30c1716544ca6c1960a201ca2c2e6f829510cbe85a663508c3b8499a318faa03336582b5cf99b9d55854927decda7f8db1b2703684aee01c4be9c80b2a108c0",
                    "indexes": {
                        "data": 0,
                        "gas": 0,
                        "value": 0
                    },
                    "state": {
                        "0x1ad41edb9130201ba8476168bcbf9bafe279f89d": {
                            "nonce": "0x01",
                            "balance": "0x00",
                            "code": "0x5b601660015560015c6001556001600255",
                            "storage": {
                                "0x02": "0x01"
                            }
                        },
                        "0x766b923079c2900993bafa89b07d66423481776e": {
                            "nonce": "0x01",
                            "balance": "0x6124fee993b55c0a",
                            "code": "0x",
                            "storage": {}
                        },
                        "0x2adc25665018aa1fe0e6bc666dac8fc2697ff9ba": {
                            "nonce": "0x00",
                            "balance": "0x01fdfd",
                            "code": "0x",
                            "storage": {}
                        }
                    }
                }
            ]
        },
        "config": {
            "blobSchedule": {
                "Cancun": {
                    "target": "0x03",
                    "max": "0x06",
                    "baseFeeUpdateFraction": "0x32f0ed"
                }
            },
            "chainid": "0x01"
        },
        "_info": {
            "hash": "0x005c21bf94cc8fb060fe6d710b004ccfc910cf303711ebf00f52bdf14d3a27d4",
            "comment": "`execution-spec-tests` generated test",
            "filling-transition-tool": "ethereum-spec-evm-resolver 0.0.5",
            "description": "Ported .json vectors.\n\n    (18_tloadAfterStoreFiller.yml)\n    tload from same slot after store returns 0",
            "url": "https://github.com/ethereum/execution-spec-tests/tree/v5.3.0/tests/cancun/eip1153_tstore/test_basic_tload.py#L266",
            "fixture-format": "state_test",
            "reference-spec": "https://github.com/ethereum/EIPs/blob/master/EIPS/eip-1153.md",
            "reference-spec-version": "1eb863b534a5a3e19e9c196ab2a7f3db4bb9da17",
            "eels-resolution": {
                "git-url": "https://github.com/ethereum/execution-specs.git",
                "branch": "forks/bpos",
                "commit": "7aacb2c54111391af5e98c505d5010b5698a770f"
            }
        }
    },
    "tests/cancun/eip1153_tstore/test_basic_tload.py::test_basic_tload_after_store[fork_Osaka-state_test]": {
        "env": {
            "currentCoinbase": "0x2adc25665018aa1fe0e6bc666dac8fc2697ff9ba",
            "currentGasLimit": "0x055d4a80",
            "currentNumber": "0x01",
            "currentTimestamp": "0x03e8",
            "currentRandom": "0x0000000000000000000000000000000000000000000000000000000000000000",
            "currentDifficulty": "0x00",
            "currentBaseFee": "0x07",
            "currentExcessBlobGas": "0x00"
        },
        "pre": {
            "0x1ad41edb9130201ba8476168bcbf9bafe279f89d": {
                "nonce": "0x01",
                "balance": "0x00",
                "code": "0x5b601660015560015c6001556001600255",
                "storage": {
                    "0x01": "0xff"
                }
            },
            "0x766b923079c2900993bafa89b07d66423481776e": {
                "nonce": "0x00",
                "balance": "0x6124fee993bc0000",
                "code": "0x",
                "storage": {}
            }
        },
        "transaction": {
            "nonce": "0x00",
            "gasPrice": "0x0a",
            "gasLimit": [
                "0x4c4b40"
            ],
            "to": "0x1ad41edb9130201ba8476168bcbf9bafe279f89d",
            "value": [
                "0x00"
            ],
            "data": [
                "0x"
            ],
            "sender": "0x766b923079c2900993bafa89b07d66423481776e",
            "secretKey": "0xf792f84d3860ff35b56caae61ad41edb9130201ba8476168bcbf9bafe279f89d"
        },
        "post": {
            "Osaka": [
                {
                    "hash": "0x26ee901705e7190e9f9b97d60e70ccc7b5ae6881b1609b379d5e683d5de99ec0",
                    "logs": "0x1dcc4de8dec75d7aab85b567b6ccd41ad312451b948a7413f0a142fd40d49347",
                    "txbytes": "0xf860800a834c4b40941ad41edb9130201ba8476168bcbf9bafe279f89d808025a049c30c1716544ca6c1960a201ca2c2e6f829510cbe85a663508c3b8499a318faa03336582b5cf99b9d55854927decda7f8db1b2703684aee01c4be9c80b2a108c0",
                    "indexes": {
                        "data": 0,
                        "gas": 0,
                        "value": 0
                    },
                    "state": {
                        "0x1ad41edb9130201ba8476168bcbf9bafe279f89d": {
                            "nonce": "0x01",
                            "balance": "0x00",
                            "code": "0x5b601660015560015c6001556001600255",
                            "storage": {
                                "0x02": "0x01"
                            }
                        },
                        "0x766b923079c2900993bafa89b07d66423481776e": {
                            "nonce": "0x01",
                            "balance": "0x6124fee993b55c0a",
                            "code": "0x",
                            "storage": {}
                        },
                        "0x2adc25665018aa1fe0e6bc666dac8fc2697ff9ba": {
                            "nonce": "0x00",
                            "balance": "0x01fdfd",
                            "code": "0x",
                            "storage": {}
                        }
                    }
                }
            ]
        },
        "config": {
            "blobSchedule": {
                "Cancun": {
                    "target": "0x03",
                    "max": "0x06",
                    "baseFeeUpdateFraction": "0x32f0ed"
                },
                "Prague": {
                    "target": "0x06",
                    "max": "0x09",
                    "baseFeeUpdateFraction": "0x4c6964"
                },
                "Osaka": {
                    "target": "0x06",
                    "max": "0x09",
                    "baseFeeUpdateFraction": "0x4c6964"
                }
            },
            "chainid": "0x01"
        },
        "_info": {
            "hash": "0x9b24ae612979b440f266179aece26551a59c3cc00757910d938ef039993c00d9",
            "comment": "`execution-spec-tests` generated test",
            "filling-transition-tool": "ethereum-spec-evm-resolver 0.0.5",
            "description": "Ported .json vectors.\n\n    (18_tloadAfterStoreFiller.yml)\n    tload from same slot after store returns 0",
            "url": "https://github.com/ethereum/execution-spec-tests/tree/v5.3.0/tests/cancun/eip1153_tstore/test_basic_tload.py#L266",
            "fixture-format": "state_test",
            "reference-spec": "https://github.com/ethereum/EIPs/blob/master/EIPS/eip-1153.md",
            "reference-spec-version": "1eb863b534a5a3e19e9c196ab2a7f3db4bb9da17",
            "eels-resolution": {
                "git-url": "https://github.com/ethereum/execution-specs.git",
                "branch": "forks/bpos",
                "commit": "7aacb2c54111391af5e98c505d5010b5698a770f"
            }
        }
    },
    "tests/cancun/eip1153_tstore/test_basic_tload.py::test_basic_tload_after_store[fork_Prague-state_test]": {
        "env": {
            "currentCoinbase": "0x2adc25665018aa1fe0e6bc666dac8fc2697ff9ba",
            "currentGasLimit": "0x055d4a80",
            "currentNumber": "0x01",
            "currentTimestamp": "0x03e8",
            "currentRandom": "0x0000000000000000000000000000000000000000000000000000000000000000",
            "currentDifficulty": "0x00",
            "currentBaseFee": "0x07",
            "currentExcessBlobGas": "0x00"
        },
        "pre": {
            "0x1ad41edb9130201ba8476168bcbf9bafe279f89d": {
                "nonce": "0x01",
                "balance": "0x00",
                "code": "0x5b601660015560015c6001556001600255",
                "storage": {
                    "0x01": "0xff"
                }
            },
            "0x766b923079c2900993bafa89b07d66423481776e": {
                "nonce": "0x00",
                "balance": "0x6124fee993bc0000",
                "code": "0x",
                "storage": {}
            }
        },
        "transaction": {
            "nonce": "0x00",
            "gasPrice": "0x0a",
            "gasLimit": [
                "0x4c4b40"
            ],
            "to": "0x1ad41edb9130201ba8476168bcbf9bafe279f89d",
            "value": [
                "0x00"
            ],
            "data": [
                "0x"
            ],
            "sender": "0x766b923079c2900993bafa89b07d66423481776e",
            "secretKey": "0xf792f84d3860ff35b56caae61ad41edb9130201ba8476168bcbf9bafe279f89d"
        },
        "post": {
            "Prague": [
                {
                    "hash": "0x26ee901705e7190e9f9b97d60e70ccc7b5ae6881b1609b379d5e683d5de99ec0",
                    "logs": "0x1dcc4de8dec75d7aab85b567b6ccd41ad312451b948a7413f0a142fd40d49347",
                    "txbytes": "0xf860800a834c4b40941ad41edb9130201ba8476168bcbf9bafe279f89d808025a049c30c1716544ca6c1960a201ca2c2e6f829510cbe85a663508c3b8499a318faa03336582b5cf99b9d55854927decda7f8db1b2703684aee01c4be9c80b2a108c0",
                    "indexes": {
                        "data": 0,
                        "gas": 0,
                        "value": 0
                    },
                    "state": {
                        "0x1ad41edb9130201ba8476168bcbf9bafe279f89d": {
                            "nonce": "0x01",
                            "balance": "0x00",
                            "code": "0x5b601660015560015c6001556001600255",
                            "storage": {
                                "0x02": "0x01"
                            }
                        },
                        "0x766b923079c2900993bafa89b07d66423481776e": {
                            "nonce": "0x01",
                            "balance": "0x6124fee993b55c0a",
                            "code": "0x",
                            "storage": {}
                        },
                        "0x2adc25665018aa1fe0e6bc666dac8fc2697ff9ba": {
                            "nonce": "0x00",
                            "balance": "0x01fdfd",
                            "code": "0x",
                            "storage": {}
                        }
                    }
                }
            ]
        },
        "config": {
            "blobSchedule": {
                "Cancun": {
                    "target": "0x03",
                    "max": "0x06",
                    "baseFeeUpdateFraction": "0x32f0ed"
                },
                "Prague": {
                    "target": "0x06",
                    "max": "0x09",
                    "baseFeeUpdateFraction": "0x4c6964"
                }
            },
            "chainid": "0x01"
        },
        "_info": {
            "hash": "0x70e2861b2722d4cb5491542b97ba4c8e580484c7eb77b68f8a8723d1026e621d",
            "comment": "`execution-spec-tests` generated test",
            "filling-transition-tool": "ethereum-spec-evm-resolver 0.0.5",
            "description": "Ported .json vectors.\n\n    (18_tloadAfterStoreFiller.yml)\n    tload from same slot after store returns 0",
            "url": "https://github.com/ethereum/execution-spec-tests/tree/v5.3.0/tests/cancun/eip1153_tstore/test_basic_tload.py#L266",
            "fixture-format": "state_test",
            "reference-spec": "https://github.com/ethereum/EIPs/blob/master/EIPS/eip-1153.md",
            "reference-spec-version": "1eb863b534a5a3e19e9c196ab2a7f3db4bb9da17",
            "eels-resolution": {
                "git-url": "https://github.com/ethereum/execution-specs.git",
                "branch": "forks/bpos",
                "commit": "7aacb2c54111391af5e98c505d5010b5698a770f"
            }
        }
    }
}