{
    "tests/cancun/eip1153_tstore/test_tstorage.py::test_tload_after_sstore[fork_Cancun-state_test]": {
        "env": {
            "currentCoinbase": "0x2adc25665018aa1fe0e6bc666dac8fc2697ff9ba",
            "currentGasLimit": "0x055d4a80",
            "currentNumber": "0x01",
            "currentTimestamp": "0x03e8",
            "currentRandom": "0x0000000000000000000000000000000000000000000000000000000000000000",
            "currentDifficulty": "0x00",
            "currentBaseFee": "0x07",
            "currentExcessBlobGas": "0x00"
        },
        "pre": {
            "0xb383b80f4c395b3d585ff8af73b36272e1acb05f": {
                "nonce": "0x01",
                "balance": "0x00",
                "code": "0x60ff60005560005c60015560ff60025560025c60035560ff6fffffffffffffffffffffffffffffffff556fffffffffffffffffffffffffffffffff5c7001000000000000000000000000000000005560ff7ffffffffffffffffffffffffffffffffffffffffffffffffffffffffffffffffe557ffffffffffffffffffffffffffffffffffffffffffffffffffffffffffffffffe5c7fffffffffffffffffffffffffffffffffffffffffffffffffffffffffffffffff55",
                "storage": {
                    "0x01": "0x01",
                    "0x03": "0x01",
                    "0x0100000000000000000000000000000000": "0x01",
                    "0xffffffffffffffffffffffffffffffffffffffffffffffffffffffffffffffff": "0x01"
                }
            },
            "0xa4f8626c65e938144c613e36563f7edd05284f94": {
                "nonce": "0x00",
                "balance": "0x3635c9adc5dea00000",
                "code": "0x",
                "storage": {}
            }
        },
        "transaction": {
            "nonce": "0x00",
            "gasPrice": "0x0a",
            "gasLimit": [
                "0x0f4240"
            ],
            "to": "0xb383b80f4c395b3d585ff8af73b36272e1acb05f",
            "value": [
                "0x00"
            ],
            "data": [
                "0x"
            ],
            "sender": "0xa4f8626c65e938144c613e36563f7edd05284f94",
            "secretKey": "0xb03f6081b7a0163fc6c64c68b383b80f4c395b3d585ff8af73b36272e1acb05f"
        },
        "post": {
            "Cancun": [
                {
                    "hash": "0x3af2738679a17dbcae4aca2ff04696960203bc1b2a207ff0545f7e3fdb182b21",
                    "logs": "0x1dcc4de8dec75d7aab85b567b6ccd41ad312451b948a7413f0a142fd40d49347",
                    "txbytes": "0xf860800a830f424094b383b80f4c395b3d585ff8af73b36272e1acb05f808026a0a3cfdfd995aef52dc0bfced60c4885d630160de328d924215dce8d2c91870eb3a025c217452e9a3165de5f0e3cc79d301e4698e409f56f4b1a2c824833c5f9150e",
                    "indexes": {
                        "data": 0,
                        "gas": 0,
                        "value": 0
                    },
                    "state": {
                        "0xb383b80f4c395b3d585ff8af73b36272e1acb05f": {
                            "nonce": "0x01",
                            "balance": "0x00",
                            "code": "0x60ff60005560005c60015560ff60025560025c60035560ff6fffffffffffffffffffffffffffffffff556fffffffffffffffffffffffffffffffff5c7001000000000000000000000000000000005560ff7ffffffffffffffffffffffffffffffffffffffffffffffffffffffffffffffffe557ffffffffffffffffffffffffffffffffffffffffffffffffffffffffffffffffe5c7fffffffffffffffffffffffffffffffffffffffffffffffffffffffffffffffff55",
                            "storage": {
                                "0x00": "0xff",
                                "0x02": "0xff",
                                "0xffffffffffffffffffffffffffffffff": "0xff",
                                "0xfffffffffffffffffffffffffffffffffffffffffffffffffffffffffffffffe": "0xff"
                            }
                        },
                        "0xa4f8626c65e938144c613e36563f7edd05284f94": {
                            "nonce": "0x01",
                            "balance": "0x3635c9adc5de8f1dd0",
                            "code": "0x",
                            "storage": {}
                        },
                        "0x2adc25665018aa1fe0e6bc666dac8fc2697ff9ba": {
                            "nonce": "0x00",
                            "balance": "0x0510a8",
                            "code": "0x",
                            "storage": {}
                        }
                    }
                }
            ]
        },
        "config": {
            "blobSchedule": {
                "Cancun": {
                    "target": "0x03",
                    "max": "0x06",
                    "baseFeeUpdateFraction": "0x32f0ed"
                }
            },
            "chainid": "0x01"
        },
        "_info": {
            "hash": "0xd15dc96ef66807acadacb5b45f0d4642b03cd09f0612f0e7656f1bd7373e8bb3",
            "comment": "`execution-spec-tests` generated test",
            "filling-transition-tool": "ethereum-spec-evm-resolver 0.0.5",
            "description": "Loading after storing returns the stored value: TSTORE(x, y), TLOAD(x)\n    returns y.\n\n    Based on [ethereum/tests/.../18_tloadAfterStoreFiller.yml](https://github.com/ethereum/tests/blob/9b00b68593f5869eb51a6659e1cc983e875e616b/src/EIPTestsFiller/StateTests/stEIP1153-transientStorage/18_tloadAfterStoreFiller.yml)\",",
            "url": "https://github.com/ethereum/execution-spec-tests/tree/v5.1.0/tests/cancun/eip1153_tstore/test_tstorage.py#L101",
            "fixture-format": "state_test",
            "reference-spec": "https://github.com/ethereum/EIPs/blob/master/EIPS/eip-1153.md",
            "reference-spec-version": "1eb863b534a5a3e19e9c196ab2a7f3db4bb9da17",
            "eels-resolution": {
                "git-url": "https://github.com/marioevz/execution-specs.git",
                "branch": "forks/bpo1",
                "commit": "3387e5f4aedfe99becfdc39b444d6371e25e0924"
            }
        }
    },
    "tests/cancun/eip1153_tstore/test_tstorage.py::test_tload_after_sstore[fork_Osaka-state_test]": {
        "env": {
            "currentCoinbase": "0x2adc25665018aa1fe0e6bc666dac8fc2697ff9ba",
            "currentGasLimit": "0x055d4a80",
            "currentNumber": "0x01",
            "currentTimestamp": "0x03e8",
            "currentRandom": "0x0000000000000000000000000000000000000000000000000000000000000000",
            "currentDifficulty": "0x00",
            "currentBaseFee": "0x07",
            "currentExcessBlobGas": "0x00"
        },
        "pre": {
            "0xb383b80f4c395b3d585ff8af73b36272e1acb05f": {
                "nonce": "0x01",
                "balance": "0x00",
                "code": "0x60ff60005560005c60015560ff60025560025c60035560ff6fffffffffffffffffffffffffffffffff556fffffffffffffffffffffffffffffffff5c7001000000000000000000000000000000005560ff7ffffffffffffffffffffffffffffffffffffffffffffffffffffffffffffffffe557ffffffffffffffffffffffffffffffffffffffffffffffffffffffffffffffffe5c7fffffffffffffffffffffffffffffffffffffffffffffffffffffffffffffffff55",
                "storage": {
                    "0x01": "0x01",
                    "0x03": "0x01",
                    "0x0100000000000000000000000000000000": "0x01",
                    "0xffffffffffffffffffffffffffffffffffffffffffffffffffffffffffffffff": "0x01"
                }
            },
            "0xa4f8626c65e938144c613e36563f7edd05284f94": {
                "nonce": "0x00",
                "balance": "0x3635c9adc5dea00000",
                "code": "0x",
                "storage": {}
            }
        },
        "transaction": {
            "nonce": "0x00",
            "gasPrice": "0x0a",
            "gasLimit": [
                "0x0f4240"
            ],
            "to": "0xb383b80f4c395b3d585ff8af73b36272e1acb05f",
            "value": [
                "0x00"
            ],
            "data": [
                "0x"
            ],
            "sender": "0xa4f8626c65e938144c613e36563f7edd05284f94",
            "secretKey": "0xb03f6081b7a0163fc6c64c68b383b80f4c395b3d585ff8af73b36272e1acb05f"
        },
        "post": {
            "Osaka": [
                {
                    "hash": "0x3af2738679a17dbcae4aca2ff04696960203bc1b2a207ff0545f7e3fdb182b21",
                    "logs": "0x1dcc4de8dec75d7aab85b567b6ccd41ad312451b948a7413f0a142fd40d49347",
                    "txbytes": "0xf860800a830f424094b383b80f4c395b3d585ff8af73b36272e1acb05f808026a0a3cfdfd995aef52dc0bfced60c4885d630160de328d924215dce8d2c91870eb3a025c217452e9a3165de5f0e3cc79d301e4698e409f56f4b1a2c824833c5f9150e",
                    "indexes": {
                        "data": 0,
                        "gas": 0,
                        "value": 0
                    },
                    "state": {
                        "0xb383b80f4c395b3d585ff8af73b36272e1acb05f": {
                            "nonce": "0x01",
                            "balance": "0x00",
                            "code": "0x60ff60005560005c60015560ff60025560025c60035560ff6fffffffffffffffffffffffffffffffff556fffffffffffffffffffffffffffffffff5c7001000000000000000000000000000000005560ff7ffffffffffffffffffffffffffffffffffffffffffffffffffffffffffffffffe557ffffffffffffffffffffffffffffffffffffffffffffffffffffffffffffffffe5c7fffffffffffffffffffffffffffffffffffffffffffffffffffffffffffffffff55",
                            "storage": {
                                "0x00": "0xff",
                                "0x02": "0xff",
                                "0xffffffffffffffffffffffffffffffff": "0xff",
                                "0xfffffffffffffffffffffffffffffffffffffffffffffffffffffffffffffffe": "0xff"
                            }
                        },
                        "0xa4f8626c65e938144c613e36563f7edd05284f94": {
                            "nonce": "0x01",
                            "balance": "0x3635c9adc5de8f1dd0",
                            "code": "0x",
                            "storage": {}
                        },
                        "0x2adc25665018aa1fe0e6bc666dac8fc2697ff9ba": {
                            "nonce": "0x00",
                            "balance": "0x0510a8",
                            "code": "0x",
                            "storage": {}
                        }
                    }
                }
            ]
        },
        "config": {
            "blobSchedule": {
                "Cancun": {
                    "target": "0x03",
                    "max": "0x06",
                    "baseFeeUpdateFraction": "0x32f0ed"
                },
                "Prague": {
                    "target": "0x06",
                    "max": "0x09",
                    "baseFeeUpdateFraction": "0x4c6964"
                },
                "Osaka": {
                    "target": "0x06",
                    "max": "0x09",
                    "baseFeeUpdateFraction": "0x4c6964"
                }
            },
            "chainid": "0x01"
        },
        "_info": {
            "hash": "0x0d42d3ff0c5e60536913c9915d1367fe6c2f8ab6aaa5d4d943ccc761e97e4284",
            "comment": "`execution-spec-tests` generated test",
            "filling-transition-tool": "ethereum-spec-evm-resolver 0.0.5",
            "description": "Loading after storing returns the stored value: TSTORE(x, y), TLOAD(x)\n    returns y.\n\n    Based on [ethereum/tests/.../18_tloadAfterStoreFiller.yml](https://github.com/ethereum/tests/blob/9b00b68593f5869eb51a6659e1cc983e875e616b/src/EIPTestsFiller/StateTests/stEIP1153-transientStorage/18_tloadAfterStoreFiller.yml)\",",
            "url": "https://github.com/ethereum/execution-spec-tests/tree/v5.1.0/tests/cancun/eip1153_tstore/test_tstorage.py#L101",
            "fixture-format": "state_test",
            "reference-spec": "https://github.com/ethereum/EIPs/blob/master/EIPS/eip-1153.md",
            "reference-spec-version": "1eb863b534a5a3e19e9c196ab2a7f3db4bb9da17",
            "eels-resolution": {
                "git-url": "https://github.com/marioevz/execution-specs.git",
                "branch": "forks/bpo1",
                "commit": "3387e5f4aedfe99becfdc39b444d6371e25e0924"
            }
        }
    },
    "tests/cancun/eip1153_tstore/test_tstorage.py::test_tload_after_sstore[fork_Prague-state_test]": {
        "env": {
            "currentCoinbase": "0x2adc25665018aa1fe0e6bc666dac8fc2697ff9ba",
            "currentGasLimit": "0x055d4a80",
            "currentNumber": "0x01",
            "currentTimestamp": "0x03e8",
            "currentRandom": "0x0000000000000000000000000000000000000000000000000000000000000000",
            "currentDifficulty": "0x00",
            "currentBaseFee": "0x07",
            "currentExcessBlobGas": "0x00"
        },
        "pre": {
            "0xb383b80f4c395b3d585ff8af73b36272e1acb05f": {
                "nonce": "0x01",
                "balance": "0x00",
                "code": "0x60ff60005560005c60015560ff60025560025c60035560ff6fffffffffffffffffffffffffffffffff556fffffffffffffffffffffffffffffffff5c7001000000000000000000000000000000005560ff7ffffffffffffffffffffffffffffffffffffffffffffffffffffffffffffffffe557ffffffffffffffffffffffffffffffffffffffffffffffffffffffffffffffffe5c7fffffffffffffffffffffffffffffffffffffffffffffffffffffffffffffffff55",
                "storage": {
                    "0x01": "0x01",
                    "0x03": "0x01",
                    "0x0100000000000000000000000000000000": "0x01",
                    "0xffffffffffffffffffffffffffffffffffffffffffffffffffffffffffffffff": "0x01"
                }
            },
            "0xa4f8626c65e938144c613e36563f7edd05284f94": {
                "nonce": "0x00",
                "balance": "0x3635c9adc5dea00000",
                "code": "0x",
                "storage": {}
            }
        },
        "transaction": {
            "nonce": "0x00",
            "gasPrice": "0x0a",
            "gasLimit": [
                "0x0f4240"
            ],
            "to": "0xb383b80f4c395b3d585ff8af73b36272e1acb05f",
            "value": [
                "0x00"
            ],
            "data": [
                "0x"
            ],
            "sender": "0xa4f8626c65e938144c613e36563f7edd05284f94",
            "secretKey": "0xb03f6081b7a0163fc6c64c68b383b80f4c395b3d585ff8af73b36272e1acb05f"
        },
        "post": {
            "Prague": [
                {
                    "hash": "0x3af2738679a17dbcae4aca2ff04696960203bc1b2a207ff0545f7e3fdb182b21",
                    "logs": "0x1dcc4de8dec75d7aab85b567b6ccd41ad312451b948a7413f0a142fd40d49347",
                    "txbytes": "0xf860800a830f424094b383b80f4c395b3d585ff8af73b36272e1acb05f808026a0a3cfdfd995aef52dc0bfced60c4885d630160de328d924215dce8d2c91870eb3a025c217452e9a3165de5f0e3cc79d301e4698e409f56f4b1a2c824833c5f9150e",
                    "indexes": {
                        "data": 0,
                        "gas": 0,
                        "value": 0
                    },
                    "state": {
                        "0xb383b80f4c395b3d585ff8af73b36272e1acb05f": {
                            "nonce": "0x01",
                            "balance": "0x00",
                            "code": "0x60ff60005560005c60015560ff60025560025c60035560ff6fffffffffffffffffffffffffffffffff556fffffffffffffffffffffffffffffffff5c7001000000000000000000000000000000005560ff7ffffffffffffffffffffffffffffffffffffffffffffffffffffffffffffffffe557ffffffffffffffffffffffffffffffffffffffffffffffffffffffffffffffffe5c7fffffffffffffffffffffffffffffffffffffffffffffffffffffffffffffffff55",
                            "storage": {
                                "0x00": "0xff",
                                "0x02": "0xff",
                                "0xffffffffffffffffffffffffffffffff": "0xff",
                                "0xfffffffffffffffffffffffffffffffffffffffffffffffffffffffffffffffe": "0xff"
                            }
                        },
                        "0xa4f8626c65e938144c613e36563f7edd05284f94": {
                            "nonce": "0x01",
                            "balance": "0x3635c9adc5de8f1dd0",
                            "code": "0x",
                            "storage": {}
                        },
                        "0x2adc25665018aa1fe0e6bc666dac8fc2697ff9ba": {
                            "nonce": "0x00",
                            "balance": "0x0510a8",
                            "code": "0x",
                            "storage": {}
                        }
                    }
                }
            ]
        },
        "config": {
            "blobSchedule": {
                "Cancun": {
                    "target": "0x03",
                    "max": "0x06",
                    "baseFeeUpdateFraction": "0x32f0ed"
                },
                "Prague": {
                    "target": "0x06",
                    "max": "0x09",
                    "baseFeeUpdateFraction": "0x4c6964"
                }
            },
            "chainid": "0x01"
        },
        "_info": {
            "hash": "0x8730d9af65758c5f24ca8ec3854e204c6fdd521d5b4b492a58e686ce6bef342e",
            "comment": "`execution-spec-tests` generated test",
            "filling-transition-tool": "ethereum-spec-evm-resolver 0.0.5",
            "description": "Loading after storing returns the stored value: TSTORE(x, y), TLOAD(x)\n    returns y.\n\n    Based on [ethereum/tests/.../18_tloadAfterStoreFiller.yml](https://github.com/ethereum/tests/blob/9b00b68593f5869eb51a6659e1cc983e875e616b/src/EIPTestsFiller/StateTests/stEIP1153-transientStorage/18_tloadAfterStoreFiller.yml)\",",
            "url": "https://github.com/ethereum/execution-spec-tests/tree/v5.1.0/tests/cancun/eip1153_tstore/test_tstorage.py#L101",
            "fixture-format": "state_test",
            "reference-spec": "https://github.com/ethereum/EIPs/blob/master/EIPS/eip-1153.md",
            "reference-spec-version": "1eb863b534a5a3e19e9c196ab2a7f3db4bb9da17",
            "eels-resolution": {
                "git-url": "https://github.com/marioevz/execution-specs.git",
                "branch": "forks/bpo1",
                "commit": "3387e5f4aedfe99becfdc39b444d6371e25e0924"
            }
        }
    }
}