{
    "tests/static/state_tests/stStaticCall/static_callcallcallcode_001_OOGE_2Filler.json::static_callcallcallcode_001_OOGE_2[fork_Cancun-blockchain_test_from_state_test-d0]": {
        "network": "Cancun",
        "genesisBlockHeader": {
            "parentHash": "0x0000000000000000000000000000000000000000000000000000000000000000",
            "uncleHash": "0x1dcc4de8dec75d7aab85b567b6ccd41ad312451b948a7413f0a142fd40d49347",
            "coinbase": "0x0000000000000000000000000000000000000000",
            "stateRoot": "0x7c8ae281aaff1197f95222f52292d5fa6f7ca51d75aaa97d9000e3086870ea15",
            "transactionsTrie": "0x56e81f171bcc55a6ff8345e692c0f86e5b48e01b996cadc001622fb5e363b421",
            "receiptTrie": "0x56e81f171bcc55a6ff8345e692c0f86e5b48e01b996cadc001622fb5e363b421",
            "bloom": "0x00000000000000000000000000000000000000000000000000000000000000000000000000000000000000000000000000000000000000000000000000000000000000000000000000000000000000000000000000000000000000000000000000000000000000000000000000000000000000000000000000000000000000000000000000000000000000000000000000000000000000000000000000000000000000000000000000000000000000000000000000000000000000000000000000000000000000000000000000000000000000000000000000000000000000000000000000000000000000000000000000000000000000000000000000000000",
            "difficulty": "0x00",
            "number": "0x00",
            "gasLimit": "0x01c9c380",
            "gasUsed": "0x00",
            "timestamp": "0x00",
            "extraData": "0x00",
            "mixHash": "0x0000000000000000000000000000000000000000000000000000000000000000",
            "nonce": "0x0000000000000000",
            "baseFeePerGas": "0x0b",
            "withdrawalsRoot": "0x56e81f171bcc55a6ff8345e692c0f86e5b48e01b996cadc001622fb5e363b421",
            "blobGasUsed": "0x00",
            "excessBlobGas": "0x00",
            "parentBeaconBlockRoot": "0x0000000000000000000000000000000000000000000000000000000000000000",
            "hash": "0xfcb8c5783cc2010dd4c8be48035aaa6b5a2c1ee21e55b77ceaa04d89c622c145"
        },
        "pre": {
            "0x000f3df6d732807ef1319fb7b8bb8522d0beac02": {
                "nonce": "0x01",
                "balance": "0x00",
                "code": "0x3373fffffffffffffffffffffffffffffffffffffffe14604d57602036146024575f5ffd5b5f35801560495762001fff810690815414603c575f5ffd5b62001fff01545f5260205ff35b5f5ffd5b62001fff42064281555f359062001fff015500",
                "storage": {}
            },
            "0xebaf50debf10e08302fe4280c32df010463ca297": {
                "nonce": "0x00",
                "balance": "0x0de0b6b3a7640000",
                "code": "0x",
                "storage": {}
            },
            "0x609e4dfe6190235b9a0362084c741d9ec330fb1e": {
                "nonce": "0x00",
                "balance": "0x00",
                "code": "0x5b61c3506080511015601c5760013b506001608051016080526000565b00",
                "storage": {}
            },
            "0xa7c64824c59e4295a3868a2b275ad46b38f7846d": {
                "nonce": "0x00",
                "balance": "0x00",
                "code": "0x6040600060406000600073609e4dfe6190235b9a0362084c741d9ec330fb1e6201d4d4f200",
                "storage": {}
            },
            "0x2db6829f13013d6280c5be4f6a5e87de274a3c47": {
                "nonce": "0x00",
                "balance": "0x00",
                "code": "0x604060006040600073a7c64824c59e4295a3868a2b275ad46b38f7846d620493e0fa00",
                "storage": {}
            },
            "0xed9009abb678fb6e7898148dc46fa339ea580cbd": {
                "nonce": "0x00",
                "balance": "0x0de0b6b3a7640000",
                "code": "0x6040600060406000732db6829f13013d6280c5be4f6a5e87de274a3c476207a120fa60005500",
                "storage": {}
            },
            "0x9d41ca9233d19d3202befcef33f16af7201f0eaa": {
                "nonce": "0x00",
                "balance": "0x00",
                "code": "0x6001600355600160035200",
                "storage": {}
            },
            "0xfee7d85f02f84ce8917fa8300fea57ff41ad47d7": {
                "nonce": "0x00",
                "balance": "0x00",
                "code": "0x60406000604060006000739d41ca9233d19d3202befcef33f16af7201f0eaa6201d4d4f200",
                "storage": {}
            },
            "0xbda9155e6214fe759004e6fcbe736289ef800528": {
                "nonce": "0x00",
                "balance": "0x00",
                "code": "0x604060006040600073fee7d85f02f84ce8917fa8300fea57ff41ad47d7620493e0fa00",
                "storage": {}
            },
            "0x071587c3e5f2ebf88b2a5b048733778605addb28": {
                "nonce": "0x00",
                "balance": "0x0de0b6b3a7640000",
                "code": "0x604060006040600073bda9155e6214fe759004e6fcbe736289ef8005286207a120fa60005500",
                "storage": {}
            },
            "0xc0e4183389eb57f779a986d8c878f89b9401dc8e": {
                "nonce": "0x00",
                "balance": "0x00",
                "code": "0x6000600060006000346000355af1600055600160015500",
                "storage": {}
            }
        },
        "postState": {
            "0x000f3df6d732807ef1319fb7b8bb8522d0beac02": {
                "nonce": "0x01",
                "balance": "0x00",
                "code": "0x3373fffffffffffffffffffffffffffffffffffffffe14604d57602036146024575f5ffd5b5f35801560495762001fff810690815414603c575f5ffd5b62001fff01545f5260205ff35b5f5ffd5b62001fff42064281555f359062001fff015500",
                "storage": {
                    "0x03e8": "0x03e8"
                }
            },
            "0xebaf50debf10e08302fe4280c32df010463ca297": {
                "nonce": "0x01",
                "balance": "0x0de0b6b3a742b4ae",
                "code": "0x",
                "storage": {}
            },
            "0x609e4dfe6190235b9a0362084c741d9ec330fb1e": {
                "nonce": "0x00",
                "balance": "0x00",
                "code": "0x5b61c3506080511015601c5760013b506001608051016080526000565b00",
                "storage": {}
            },
            "0xa7c64824c59e4295a3868a2b275ad46b38f7846d": {
                "nonce": "0x00",
                "balance": "0x00",
                "code": "0x6040600060406000600073609e4dfe6190235b9a0362084c741d9ec330fb1e6201d4d4f200",
                "storage": {}
            },
            "0x2db6829f13013d6280c5be4f6a5e87de274a3c47": {
                "nonce": "0x00",
                "balance": "0x00",
                "code": "0x604060006040600073a7c64824c59e4295a3868a2b275ad46b38f7846d620493e0fa00",
                "storage": {}
            },
            "0xed9009abb678fb6e7898148dc46fa339ea580cbd": {
                "nonce": "0x00",
                "balance": "0x0de0b6b3a7640000",
                "code": "0x6040600060406000732db6829f13013d6280c5be4f6a5e87de274a3c476207a120fa60005500",
                "storage": {}
            },
            "0x9d41ca9233d19d3202befcef33f16af7201f0eaa": {
                "nonce": "0x00",
                "balance": "0x00",
                "code": "0x6001600355600160035200",
                "storage": {}
            },
            "0xfee7d85f02f84ce8917fa8300fea57ff41ad47d7": {
                "nonce": "0x00",
                "balance": "0x00",
                "code": "0x60406000604060006000739d41ca9233d19d3202befcef33f16af7201f0eaa6201d4d4f200",
                "storage": {}
            },
            "0xbda9155e6214fe759004e6fcbe736289ef800528": {
                "nonce": "0x00",
                "balance": "0x00",
                "code": "0x604060006040600073fee7d85f02f84ce8917fa8300fea57ff41ad47d7620493e0fa00",
                "storage": {}
            },
            "0x071587c3e5f2ebf88b2a5b048733778605addb28": {
                "nonce": "0x00",
                "balance": "0x0de0b6b3a7640000",
                "code": "0x604060006040600073bda9155e6214fe759004e6fcbe736289ef8005286207a120fa60005500",
                "storage": {
                    "0x00": "0x01"
                }
            },
            "0xc0e4183389eb57f779a986d8c878f89b9401dc8e": {
                "nonce": "0x00",
                "balance": "0x00",
                "code": "0x6000600060006000346000355af1600055600160015500",
                "storage": {
                    "0x00": "0x01",
                    "0x01": "0x01"
                }
            }
        },
        "lastblockhash": "0x765eafd2388bc19058896ec1c9e5e79a621de35b9ac5c529b8aa4cc3437e6db6",
        "config": {
            "network": "Cancun",
            "chainid": "0x01",
            "blobSchedule": {
                "Cancun": {
                    "target": "0x03",
                    "max": "0x06",
                    "baseFeeUpdateFraction": "0x32f0ed"
                }
            }
        },
        "genesisRLP": "0xf9023cf90236a00000000000000000000000000000000000000000000000000000000000000000a01dcc4de8dec75d7aab85b567b6ccd41ad312451b948a7413f0a142fd40d49347940000000000000000000000000000000000000000a07c8ae281aaff1197f95222f52292d5fa6f7ca51d75aaa97d9000e3086870ea15a056e81f171bcc55a6ff8345e692c0f86e5b48e01b996cadc001622fb5e363b421a056e81f171bcc55a6ff8345e692c0f86e5b48e01b996cadc001622fb5e363b421b901000000000000000000000000000000000000000000000000000000000000000000000000000000000000000000000000000000000000000000000000000000000000000000000000000000000000000000000000000000000000000000000000000000000000000000000000000000000000000000000000000000000000000000000000000000000000000000000000000000000000000000000000000000000000000000000000000000000000000000000000000000000000000000000000000000000000000000000000000000000000000000000000000000000000000000000000000000000000000000000000000000000000000000000000000000000080808401c9c380808000a000000000000000000000000000000000000000000000000000000000000000008800000000000000000ba056e81f171bcc55a6ff8345e692c0f86e5b48e01b996cadc001622fb5e363b4218080a00000000000000000000000000000000000000000000000000000000000000000c0c0c0",
        "blocks": [
            {
                "blockHeader": {
                    "parentHash": "0xfcb8c5783cc2010dd4c8be48035aaa6b5a2c1ee21e55b77ceaa04d89c622c145",
                    "uncleHash": "0x1dcc4de8dec75d7aab85b567b6ccd41ad312451b948a7413f0a142fd40d49347",
                    "coinbase": "0x2adc25665018aa1fe0e6bc666dac8fc2697ff9ba",
                    "stateRoot": "0xca35804cf16a38850e6595a1387f946251f651009ece5a700da77ed7d72c61cc",
                    "transactionsTrie": "0x36656eca7deaedef43ce7a201e66b2f998d25ad5cebe9593147998d0c6b3b3be",
                    "receiptTrie": "0x234b371f448a5c2e7cf8c4e9d5876d2ee8089cb7bf744e77f140cc5eb040ca0b",
                    "bloom": "0x00000000000000000000000000000000000000000000000000000000000000000000000000000000000000000000000000000000000000000000000000000000000000000000000000000000000000000000000000000000000000000000000000000000000000000000000000000000000000000000000000000000000000000000000000000000000000000000000000000000000000000000000000000000000000000000000000000000000000000000000000000000000000000000000000000000000000000000000000000000000000000000000000000000000000000000000000000000000000000000000000000000000000000000000000000000",
                    "difficulty": "0x00",
                    "number": "0x01",
                    "gasLimit": "0x01c9c380",
                    "gasUsed": "0x035455",
                    "timestamp": "0x03e8",
                    "extraData": "0x00",
                    "mixHash": "0x0000000000000000000000000000000000000000000000000000000000020000",
                    "nonce": "0x0000000000000000",
                    "baseFeePerGas": "0x0a",
                    "withdrawalsRoot": "0x56e81f171bcc55a6ff8345e692c0f86e5b48e01b996cadc001622fb5e363b421",
                    "blobGasUsed": "0x00",
                    "excessBlobGas": "0x00",
                    "parentBeaconBlockRoot": "0x0000000000000000000000000000000000000000000000000000000000000000",
                    "hash": "0x765eafd2388bc19058896ec1c9e5e79a621de35b9ac5c529b8aa4cc3437e6db6"
                },
                "transactions": [
                    {
                        "type": "0x00",
                        "chainId": "0x01",
                        "nonce": "0x00",
                        "gasPrice": "0x0a",
                        "gasLimit": "0x1a3ec0",
                        "to": "0xc0e4183389eb57f779a986d8c878f89b9401dc8e",
                        "value": "0x00",
                        "data": "0x000000000000000000000000071587c3e5f2ebf88b2a5b048733778605addb28",
                        "v": "0x25",
                        "r": "0x71fddaf35aaa975deadaabe8062b9fc3a8faae053ccba35731c2d9e0faff6646",
                        "s": "0x224e4945f24c0f0683589649b0535e3612407e691944b4cff5b3b3bdabd7511b",
                        "sender": "0xebaf50debf10e08302fe4280c32df010463ca297"
                    }
                ],
                "uncleHeaders": [],
                "withdrawals": [],
                "receipts": [
                    {
                        "transactionHash": "0xafa315c9654fdd4ff58662fe4a3b17d729269373a0fab9bf17b83ab266ca5009",
                        "type": "0x00",
                        "cumulativeGasUsed": "0x035455",
                        "bloom": "0x00000000000000000000000000000000000000000000000000000000000000000000000000000000000000000000000000000000000000000000000000000000000000000000000000000000000000000000000000000000000000000000000000000000000000000000000000000000000000000000000000000000000000000000000000000000000000000000000000000000000000000000000000000000000000000000000000000000000000000000000000000000000000000000000000000000000000000000000000000000000000000000000000000000000000000000000000000000000000000000000000000000000000000000000000000000",
                        "logs": [],
                        "status": true,
                        "rlp": "0xf901090183035455b9010000000000000000000000000000000000000000000000000000000000000000000000000000000000000000000000000000000000000000000000000000000000000000000000000000000000000000000000000000000000000000000000000000000000000000000000000000000000000000000000000000000000000000000000000000000000000000000000000000000000000000000000000000000000000000000000000000000000000000000000000000000000000000000000000000000000000000000000000000000000000000000000000000000000000000000000000000000000000000000000000000000000000000000000000000000000c0"
                    }
                ],
                "rlp": "0xf902c4f9023ba0fcb8c5783cc2010dd4c8be48035aaa6b5a2c1ee21e55b77ceaa04d89c622c145a01dcc4de8dec75d7aab85b567b6ccd41ad312451b948a7413f0a142fd40d49347942adc25665018aa1fe0e6bc666dac8fc2697ff9baa0ca35804cf16a38850e6595a1387f946251f651009ece5a700da77ed7d72c61cca036656eca7deaedef43ce7a201e66b2f998d25ad5cebe9593147998d0c6b3b3bea0234b371f448a5c2e7cf8c4e9d5876d2ee8089cb7bf744e77f140cc5eb040ca0bb901000000000000000000000000000000000000000000000000000000000000000000000000000000000000000000000000000000000000000000000000000000000000000000000000000000000000000000000000000000000000000000000000000000000000000000000000000000000000000000000000000000000000000000000000000000000000000000000000000000000000000000000000000000000000000000000000000000000000000000000000000000000000000000000000000000000000000000000000000000000000000000000000000000000000000000000000000000000000000000000000000000000000000000000000000000000080018401c9c380830354558203e800a000000000000000000000000000000000000000000000000000000000000200008800000000000000000aa056e81f171bcc55a6ff8345e692c0f86e5b48e01b996cadc001622fb5e363b4218080a00000000000000000000000000000000000000000000000000000000000000000f882f880800a831a3ec094c0e4183389eb57f779a986d8c878f89b9401dc8e80a0000000000000000000000000071587c3e5f2ebf88b2a5b048733778605addb2825a071fddaf35aaa975deadaabe8062b9fc3a8faae053ccba35731c2d9e0faff6646a0224e4945f24c0f0683589649b0535e3612407e691944b4cff5b3b3bdabd7511bc0c0",
                "blocknumber": "1"
            }
        ],
        "sealEngine": "NoProof",
        "_info": {
            "hash": "0xe08348cdcde915094ee3fe73343a32c52ba342d98877021159c70bdf00b3a834",
            "fixture-format": "blockchain_test",
            "comment": "`execution-specs` generated test",
            "filling-transition-tool": "2.19.0",
            "description": "No description available - add a docstring to the python test class or function.",
            "url": "",
            "opcode_count": {}
        }
    },
    "tests/static/state_tests/stStaticCall/static_callcallcallcode_001_OOGE_2Filler.json::static_callcallcallcode_001_OOGE_2[fork_Cancun-blockchain_test_from_state_test-d1]": {
        "network": "Cancun",
        "genesisBlockHeader": {
            "parentHash": "0x0000000000000000000000000000000000000000000000000000000000000000",
            "uncleHash": "0x1dcc4de8dec75d7aab85b567b6ccd41ad312451b948a7413f0a142fd40d49347",
            "coinbase": "0x0000000000000000000000000000000000000000",
            "stateRoot": "0x7c8ae281aaff1197f95222f52292d5fa6f7ca51d75aaa97d9000e3086870ea15",
            "transactionsTrie": "0x56e81f171bcc55a6ff8345e692c0f86e5b48e01b996cadc001622fb5e363b421",
            "receiptTrie": "0x56e81f171bcc55a6ff8345e692c0f86e5b48e01b996cadc001622fb5e363b421",
            "bloom": "0x00000000000000000000000000000000000000000000000000000000000000000000000000000000000000000000000000000000000000000000000000000000000000000000000000000000000000000000000000000000000000000000000000000000000000000000000000000000000000000000000000000000000000000000000000000000000000000000000000000000000000000000000000000000000000000000000000000000000000000000000000000000000000000000000000000000000000000000000000000000000000000000000000000000000000000000000000000000000000000000000000000000000000000000000000000000",
            "difficulty": "0x00",
            "number": "0x00",
            "gasLimit": "0x01c9c380",
            "gasUsed": "0x00",
            "timestamp": "0x00",
            "extraData": "0x00",
            "mixHash": "0x0000000000000000000000000000000000000000000000000000000000000000",
            "nonce": "0x0000000000000000",
            "baseFeePerGas": "0x0b",
            "withdrawalsRoot": "0x56e81f171bcc55a6ff8345e692c0f86e5b48e01b996cadc001622fb5e363b421",
            "blobGasUsed": "0x00",
            "excessBlobGas": "0x00",
            "parentBeaconBlockRoot": "0x0000000000000000000000000000000000000000000000000000000000000000",
            "hash": "0xfcb8c5783cc2010dd4c8be48035aaa6b5a2c1ee21e55b77ceaa04d89c622c145"
        },
        "pre": {
            "0x000f3df6d732807ef1319fb7b8bb8522d0beac02": {
                "nonce": "0x01",
                "balance": "0x00",
                "code": "0x3373fffffffffffffffffffffffffffffffffffffffe14604d57602036146024575f5ffd5b5f35801560495762001fff810690815414603c575f5ffd5b62001fff01545f5260205ff35b5f5ffd5b62001fff42064281555f359062001fff015500",
                "storage": {}
            },
            "0xebaf50debf10e08302fe4280c32df010463ca297": {
                "nonce": "0x00",
                "balance": "0x0de0b6b3a7640000",
                "code": "0x",
                "storage": {}
            },
            "0x609e4dfe6190235b9a0362084c741d9ec330fb1e": {
                "nonce": "0x00",
                "balance": "0x00",
                "code": "0x5b61c3506080511015601c5760013b506001608051016080526000565b00",
                "storage": {}
            },
            "0xa7c64824c59e4295a3868a2b275ad46b38f7846d": {
                "nonce": "0x00",
                "balance": "0x00",
                "code": "0x6040600060406000600073609e4dfe6190235b9a0362084c741d9ec330fb1e6201d4d4f200",
                "storage": {}
            },
            "0x2db6829f13013d6280c5be4f6a5e87de274a3c47": {
                "nonce": "0x00",
                "balance": "0x00",
                "code": "0x604060006040600073a7c64824c59e4295a3868a2b275ad46b38f7846d620493e0fa00",
                "storage": {}
            },
            "0xed9009abb678fb6e7898148dc46fa339ea580cbd": {
                "nonce": "0x00",
                "balance": "0x0de0b6b3a7640000",
                "code": "0x6040600060406000732db6829f13013d6280c5be4f6a5e87de274a3c476207a120fa60005500",
                "storage": {}
            },
            "0x9d41ca9233d19d3202befcef33f16af7201f0eaa": {
                "nonce": "0x00",
                "balance": "0x00",
                "code": "0x6001600355600160035200",
                "storage": {}
            },
            "0xfee7d85f02f84ce8917fa8300fea57ff41ad47d7": {
                "nonce": "0x00",
                "balance": "0x00",
                "code": "0x60406000604060006000739d41ca9233d19d3202befcef33f16af7201f0eaa6201d4d4f200",
                "storage": {}
            },
            "0xbda9155e6214fe759004e6fcbe736289ef800528": {
                "nonce": "0x00",
                "balance": "0x00",
                "code": "0x604060006040600073fee7d85f02f84ce8917fa8300fea57ff41ad47d7620493e0fa00",
                "storage": {}
            },
            "0x071587c3e5f2ebf88b2a5b048733778605addb28": {
                "nonce": "0x00",
                "balance": "0x0de0b6b3a7640000",
                "code": "0x604060006040600073bda9155e6214fe759004e6fcbe736289ef8005286207a120fa60005500",
                "storage": {}
            },
            "0xc0e4183389eb57f779a986d8c878f89b9401dc8e": {
                "nonce": "0x00",
                "balance": "0x00",
                "code": "0x6000600060006000346000355af1600055600160015500",
                "storage": {}
            }
        },
        "postState": {
            "0x000f3df6d732807ef1319fb7b8bb8522d0beac02": {
                "nonce": "0x01",
                "balance": "0x00",
                "code": "0x3373fffffffffffffffffffffffffffffffffffffffe14604d57602036146024575f5ffd5b5f35801560495762001fff810690815414603c575f5ffd5b62001fff01545f5260205ff35b5f5ffd5b62001fff42064281555f359062001fff015500",
                "storage": {
                    "0x03e8": "0x03e8"
                }
            },
            "0xebaf50debf10e08302fe4280c32df010463ca297": {
                "nonce": "0x01",
                "balance": "0x0de0b6b3a742b4ae",
                "code": "0x",
                "storage": {}
            },
            "0x609e4dfe6190235b9a0362084c741d9ec330fb1e": {
                "nonce": "0x00",
                "balance": "0x00",
                "code": "0x5b61c3506080511015601c5760013b506001608051016080526000565b00",
                "storage": {}
            },
            "0xa7c64824c59e4295a3868a2b275ad46b38f7846d": {
                "nonce": "0x00",
                "balance": "0x00",
                "code": "0x6040600060406000600073609e4dfe6190235b9a0362084c741d9ec330fb1e6201d4d4f200",
                "storage": {}
            },
            "0x2db6829f13013d6280c5be4f6a5e87de274a3c47": {
                "nonce": "0x00",
                "balance": "0x00",
                "code": "0x604060006040600073a7c64824c59e4295a3868a2b275ad46b38f7846d620493e0fa00",
                "storage": {}
            },
            "0xed9009abb678fb6e7898148dc46fa339ea580cbd": {
                "nonce": "0x00",
                "balance": "0x0de0b6b3a7640000",
                "code": "0x6040600060406000732db6829f13013d6280c5be4f6a5e87de274a3c476207a120fa60005500",
                "storage": {
                    "0x00": "0x01"
                }
            },
            "0x9d41ca9233d19d3202befcef33f16af7201f0eaa": {
                "nonce": "0x00",
                "balance": "0x00",
                "code": "0x6001600355600160035200",
                "storage": {}
            },
            "0xfee7d85f02f84ce8917fa8300fea57ff41ad47d7": {
                "nonce": "0x00",
                "balance": "0x00",
                "code": "0x60406000604060006000739d41ca9233d19d3202befcef33f16af7201f0eaa6201d4d4f200",
                "storage": {}
            },
            "0xbda9155e6214fe759004e6fcbe736289ef800528": {
                "nonce": "0x00",
                "balance": "0x00",
                "code": "0x604060006040600073fee7d85f02f84ce8917fa8300fea57ff41ad47d7620493e0fa00",
                "storage": {}
            },
            "0x071587c3e5f2ebf88b2a5b048733778605addb28": {
                "nonce": "0x00",
                "balance": "0x0de0b6b3a7640000",
                "code": "0x604060006040600073bda9155e6214fe759004e6fcbe736289ef8005286207a120fa60005500",
                "storage": {}
            },
            "0xc0e4183389eb57f779a986d8c878f89b9401dc8e": {
                "nonce": "0x00",
                "balance": "0x00",
                "code": "0x6000600060006000346000355af1600055600160015500",
                "storage": {
                    "0x00": "0x01",
                    "0x01": "0x01"
                }
            }
        },
        "lastblockhash": "0xbb185b00853119de385b64e8ceea64d187f4c0e1b5b1fb167f987a920a69102d",
        "config": {
            "network": "Cancun",
            "chainid": "0x01",
            "blobSchedule": {
                "Cancun": {
                    "target": "0x03",
                    "max": "0x06",
                    "baseFeeUpdateFraction": "0x32f0ed"
                }
            }
        },
        "genesisRLP": "0xf9023cf90236a00000000000000000000000000000000000000000000000000000000000000000a01dcc4de8dec75d7aab85b567b6ccd41ad312451b948a7413f0a142fd40d49347940000000000000000000000000000000000000000a07c8ae281aaff1197f95222f52292d5fa6f7ca51d75aaa97d9000e3086870ea15a056e81f171bcc55a6ff8345e692c0f86e5b48e01b996cadc001622fb5e363b421a056e81f171bcc55a6ff8345e692c0f86e5b48e01b996cadc001622fb5e363b421b901000000000000000000000000000000000000000000000000000000000000000000000000000000000000000000000000000000000000000000000000000000000000000000000000000000000000000000000000000000000000000000000000000000000000000000000000000000000000000000000000000000000000000000000000000000000000000000000000000000000000000000000000000000000000000000000000000000000000000000000000000000000000000000000000000000000000000000000000000000000000000000000000000000000000000000000000000000000000000000000000000000000000000000000000000000000080808401c9c380808000a000000000000000000000000000000000000000000000000000000000000000008800000000000000000ba056e81f171bcc55a6ff8345e692c0f86e5b48e01b996cadc001622fb5e363b4218080a00000000000000000000000000000000000000000000000000000000000000000c0c0c0",
        "blocks": [
            {
                "blockHeader": {
                    "parentHash": "0xfcb8c5783cc2010dd4c8be48035aaa6b5a2c1ee21e55b77ceaa04d89c622c145",
                    "uncleHash": "0x1dcc4de8dec75d7aab85b567b6ccd41ad312451b948a7413f0a142fd40d49347",
                    "coinbase": "0x2adc25665018aa1fe0e6bc666dac8fc2697ff9ba",
                    "stateRoot": "0x27b59300af4de38fe3de975ee0fb89d8bbafa35c81b25ebbaee23152b41fe4a8",
                    "transactionsTrie": "0x5e9783af22a6763e295292ac4c322c614594f9ef6f16123ea4bdb97639227525",
                    "receiptTrie": "0x234b371f448a5c2e7cf8c4e9d5876d2ee8089cb7bf744e77f140cc5eb040ca0b",
                    "bloom": "0x00000000000000000000000000000000000000000000000000000000000000000000000000000000000000000000000000000000000000000000000000000000000000000000000000000000000000000000000000000000000000000000000000000000000000000000000000000000000000000000000000000000000000000000000000000000000000000000000000000000000000000000000000000000000000000000000000000000000000000000000000000000000000000000000000000000000000000000000000000000000000000000000000000000000000000000000000000000000000000000000000000000000000000000000000000000",
                    "difficulty": "0x00",
                    "number": "0x01",
                    "gasLimit": "0x01c9c380",
                    "gasUsed": "0x035455",
                    "timestamp": "0x03e8",
                    "extraData": "0x00",
                    "mixHash": "0x0000000000000000000000000000000000000000000000000000000000020000",
                    "nonce": "0x0000000000000000",
                    "baseFeePerGas": "0x0a",
                    "withdrawalsRoot": "0x56e81f171bcc55a6ff8345e692c0f86e5b48e01b996cadc001622fb5e363b421",
                    "blobGasUsed": "0x00",
                    "excessBlobGas": "0x00",
                    "parentBeaconBlockRoot": "0x0000000000000000000000000000000000000000000000000000000000000000",
                    "hash": "0xbb185b00853119de385b64e8ceea64d187f4c0e1b5b1fb167f987a920a69102d"
                },
                "transactions": [
                    {
                        "type": "0x00",
                        "chainId": "0x01",
                        "nonce": "0x00",
                        "gasPrice": "0x0a",
                        "gasLimit": "0x1a3ec0",
                        "to": "0xc0e4183389eb57f779a986d8c878f89b9401dc8e",
                        "value": "0x00",
                        "data": "0x000000000000000000000000ed9009abb678fb6e7898148dc46fa339ea580cbd",
                        "v": "0x26",
                        "r": "0xf4db5d7b06f9a07825e9c646c3c758a6ac902ddb77822bae83344bf47b11ecb0",
                        "s": "0x69d68a45b34ea35e68d98e5b41f50f54aff309635639a62e497770a20ce71009",
                        "sender": "0xebaf50debf10e08302fe4280c32df010463ca297"
                    }
                ],
                "uncleHeaders": [],
                "withdrawals": [],
                "receipts": [
                    {
                        "transactionHash": "0xe9409352934c07425143f37cbdc4afa125b73c18e2830cc000dd8705c1657367",
                        "type": "0x00",
                        "cumulativeGasUsed": "0x035455",
                        "bloom": "0x00000000000000000000000000000000000000000000000000000000000000000000000000000000000000000000000000000000000000000000000000000000000000000000000000000000000000000000000000000000000000000000000000000000000000000000000000000000000000000000000000000000000000000000000000000000000000000000000000000000000000000000000000000000000000000000000000000000000000000000000000000000000000000000000000000000000000000000000000000000000000000000000000000000000000000000000000000000000000000000000000000000000000000000000000000000",
                        "logs": [],
                        "status": true,
                        "rlp": "0xf901090183035455b9010000000000000000000000000000000000000000000000000000000000000000000000000000000000000000000000000000000000000000000000000000000000000000000000000000000000000000000000000000000000000000000000000000000000000000000000000000000000000000000000000000000000000000000000000000000000000000000000000000000000000000000000000000000000000000000000000000000000000000000000000000000000000000000000000000000000000000000000000000000000000000000000000000000000000000000000000000000000000000000000000000000000000000000000000000000000c0"
                    }
                ],
                "rlp": "0xf902c4f9023ba0fcb8c5783cc2010dd4c8be48035aaa6b5a2c1ee21e55b77ceaa04d89c622c145a01dcc4de8dec75d7aab85b567b6ccd41ad312451b948a7413f0a142fd40d49347942adc25665018aa1fe0e6bc666dac8fc2697ff9baa027b59300af4de38fe3de975ee0fb89d8bbafa35c81b25ebbaee23152b41fe4a8a05e9783af22a6763e295292ac4c322c614594f9ef6f16123ea4bdb97639227525a0234b371f448a5c2e7cf8c4e9d5876d2ee8089cb7bf744e77f140cc5eb040ca0bb901000000000000000000000000000000000000000000000000000000000000000000000000000000000000000000000000000000000000000000000000000000000000000000000000000000000000000000000000000000000000000000000000000000000000000000000000000000000000000000000000000000000000000000000000000000000000000000000000000000000000000000000000000000000000000000000000000000000000000000000000000000000000000000000000000000000000000000000000000000000000000000000000000000000000000000000000000000000000000000000000000000000000000000000000000000000080018401c9c380830354558203e800a000000000000000000000000000000000000000000000000000000000000200008800000000000000000aa056e81f171bcc55a6ff8345e692c0f86e5b48e01b996cadc001622fb5e363b4218080a00000000000000000000000000000000000000000000000000000000000000000f882f880800a831a3ec094c0e4183389eb57f779a986d8c878f89b9401dc8e80a0000000000000000000000000ed9009abb678fb6e7898148dc46fa339ea580cbd26a0f4db5d7b06f9a07825e9c646c3c758a6ac902ddb77822bae83344bf47b11ecb0a069d68a45b34ea35e68d98e5b41f50f54aff309635639a62e497770a20ce71009c0c0",
                "blocknumber": "1"
            }
        ],
        "sealEngine": "NoProof",
        "_info": {
            "hash": "0xcacbae4bf2763fa15eea75c039860bccac124b45df0f308c99f7c7e576c0b91f",
            "fixture-format": "blockchain_test",
            "comment": "`execution-specs` generated test",
            "filling-transition-tool": "2.19.0",
            "description": "No description available - add a docstring to the python test class or function.",
            "url": "",
            "opcode_count": {}
        }
    }
}