{
    "tests/static/state_tests/stStaticCall/static_callcallcall_000_OOGMBeforeFiller.json::static_callcallcall_000_OOGMBefore[fork_Cancun-blockchain_test_from_state_test-]": {
        "network": "Cancun",
        "genesisBlockHeader": {
            "parentHash": "0x0000000000000000000000000000000000000000000000000000000000000000",
            "uncleHash": "0x1dcc4de8dec75d7aab85b567b6ccd41ad312451b948a7413f0a142fd40d49347",
            "coinbase": "0x0000000000000000000000000000000000000000",
            "stateRoot": "0x0382c085ff6d184b4a8a2f067455d6c08584859fdf19d2f9e5f45a8922a869fb",
            "transactionsTrie": "0x56e81f171bcc55a6ff8345e692c0f86e5b48e01b996cadc001622fb5e363b421",
            "receiptTrie": "0x56e81f171bcc55a6ff8345e692c0f86e5b48e01b996cadc001622fb5e363b421",
            "bloom": "0x00000000000000000000000000000000000000000000000000000000000000000000000000000000000000000000000000000000000000000000000000000000000000000000000000000000000000000000000000000000000000000000000000000000000000000000000000000000000000000000000000000000000000000000000000000000000000000000000000000000000000000000000000000000000000000000000000000000000000000000000000000000000000000000000000000000000000000000000000000000000000000000000000000000000000000000000000000000000000000000000000000000000000000000000000000000",
            "difficulty": "0x00",
            "number": "0x00",
            "gasLimit": "0x01c9c380",
            "gasUsed": "0x00",
            "timestamp": "0x00",
            "extraData": "0x00",
            "mixHash": "0x0000000000000000000000000000000000000000000000000000000000000000",
            "nonce": "0x0000000000000000",
            "baseFeePerGas": "0x0b",
            "withdrawalsRoot": "0x56e81f171bcc55a6ff8345e692c0f86e5b48e01b996cadc001622fb5e363b421",
            "blobGasUsed": "0x00",
            "excessBlobGas": "0x00",
            "parentBeaconBlockRoot": "0x0000000000000000000000000000000000000000000000000000000000000000",
            "hash": "0x1b6e938d4b9632ad713ff27695581bc641432ee67cfb817d4dbb9df1477c89d2"
        },
        "pre": {
            "0x000f3df6d732807ef1319fb7b8bb8522d0beac02": {
                "nonce": "0x01",
                "balance": "0x00",
                "code": "0x3373fffffffffffffffffffffffffffffffffffffffe14604d57602036146024575f5ffd5b5f35801560495762001fff810690815414603c575f5ffd5b62001fff01545f5260205ff35b5f5ffd5b62001fff42064281555f359062001fff015500",
                "storage": {}
            },
            "0xebaf50debf10e08302fe4280c32df010463ca297": {
                "nonce": "0x00",
                "balance": "0x0de0b6b3a7640000",
                "code": "0x",
                "storage": {}
            },
            "0x335c5531b84765a7626e6e76688f18b81be5259c": {
                "nonce": "0x00",
                "balance": "0x00",
                "code": "0x600160035200",
                "storage": {}
            },
            "0x97498b4ce896be02417bcfe036beac3332185563": {
                "nonce": "0x00",
                "balance": "0x00",
                "code": "0x5b61c3506080511015601c5760013b506001608051016080526000565b604060006040600073335c5531b84765a7626e6e76688f18b81be5259c6201d4d4fa00",
                "storage": {}
            },
            "0x0edbfa645e2c5462398c0bd3a12e41ef8ec1f9f5": {
                "nonce": "0x00",
                "balance": "0x00",
                "code": "0x60406000604060007397498b4ce896be02417bcfe036beac333218556362061ad0fa00",
                "storage": {}
            },
            "0x081fa564a44bd568ecf6d6b044899f7ee4057f5f": {
                "nonce": "0x00",
                "balance": "0x0de0b6b3a7640000",
                "code": "0x6040600060406000730edbfa645e2c5462398c0bd3a12e41ef8ec1f9f5620927c0fa600055600160015500",
                "storage": {}
            }
        },
        "postState": {
            "0x000f3df6d732807ef1319fb7b8bb8522d0beac02": {
                "nonce": "0x01",
                "balance": "0x00",
                "code": "0x3373fffffffffffffffffffffffffffffffffffffffe14604d57602036146024575f5ffd5b5f35801560495762001fff810690815414603c575f5ffd5b62001fff01545f5260205ff35b5f5ffd5b62001fff42064281555f359062001fff015500",
                "storage": {
                    "0x03e8": "0x03e8"
                }
            },
            "0xebaf50debf10e08302fe4280c32df010463ca297": {
                "nonce": "0x01",
                "balance": "0x0de0b6b3a71c33a6",
                "code": "0x",
                "storage": {}
            },
            "0x335c5531b84765a7626e6e76688f18b81be5259c": {
                "nonce": "0x00",
                "balance": "0x00",
                "code": "0x600160035200",
                "storage": {}
            },
            "0x97498b4ce896be02417bcfe036beac3332185563": {
                "nonce": "0x00",
                "balance": "0x00",
                "code": "0x5b61c3506080511015601c5760013b506001608051016080526000565b604060006040600073335c5531b84765a7626e6e76688f18b81be5259c6201d4d4fa00",
                "storage": {}
            },
            "0x0edbfa645e2c5462398c0bd3a12e41ef8ec1f9f5": {
                "nonce": "0x00",
                "balance": "0x00",
                "code": "0x60406000604060007397498b4ce896be02417bcfe036beac333218556362061ad0fa00",
                "storage": {}
            },
            "0x081fa564a44bd568ecf6d6b044899f7ee4057f5f": {
                "nonce": "0x00",
                "balance": "0x0de0b6b3a7640000",
                "code": "0x6040600060406000730edbfa645e2c5462398c0bd3a12e41ef8ec1f9f5620927c0fa600055600160015500",
                "storage": {
                    "0x00": "0x01",
                    "0x01": "0x01"
                }
            }
        },
        "lastblockhash": "0x8fb71c190bd651de2aa290dd87f421ee2327221279e012fec3f9b0f597d93d82",
        "config": {
            "network": "Cancun",
            "chainid": "0x01",
            "blobSchedule": {
                "Cancun": {
                    "target": "0x03",
                    "max": "0x06",
                    "baseFeeUpdateFraction": "0x32f0ed"
                }
            }
        },
        "genesisRLP": "0xf9023cf90236a00000000000000000000000000000000000000000000000000000000000000000a01dcc4de8dec75d7aab85b567b6ccd41ad312451b948a7413f0a142fd40d49347940000000000000000000000000000000000000000a00382c085ff6d184b4a8a2f067455d6c08584859fdf19d2f9e5f45a8922a869fba056e81f171bcc55a6ff8345e692c0f86e5b48e01b996cadc001622fb5e363b421a056e81f171bcc55a6ff8345e692c0f86e5b48e01b996cadc001622fb5e363b421b901000000000000000000000000000000000000000000000000000000000000000000000000000000000000000000000000000000000000000000000000000000000000000000000000000000000000000000000000000000000000000000000000000000000000000000000000000000000000000000000000000000000000000000000000000000000000000000000000000000000000000000000000000000000000000000000000000000000000000000000000000000000000000000000000000000000000000000000000000000000000000000000000000000000000000000000000000000000000000000000000000000000000000000000000000000000080808401c9c380808000a000000000000000000000000000000000000000000000000000000000000000008800000000000000000ba056e81f171bcc55a6ff8345e692c0f86e5b48e01b996cadc001622fb5e363b4218080a00000000000000000000000000000000000000000000000000000000000000000c0c0c0",
        "blocks": [
            {
                "blockHeader": {
                    "parentHash": "0x1b6e938d4b9632ad713ff27695581bc641432ee67cfb817d4dbb9df1477c89d2",
                    "uncleHash": "0x1dcc4de8dec75d7aab85b567b6ccd41ad312451b948a7413f0a142fd40d49347",
                    "coinbase": "0x2adc25665018aa1fe0e6bc666dac8fc2697ff9ba",
                    "stateRoot": "0xeb29e256f9b9d0f8376e499624677b421738077bb55ffd8442abb1539bb76932",
                    "transactionsTrie": "0x14abc3aa2a945eebd0fdadaeaf0e76afb7c722a20ea5ebf4aff7a28491b5020f",
                    "receiptTrie": "0x02f83675effc946bb66d55c865100f384f16d2782ba4113ba8c379d924326da9",
                    "bloom": "0x00000000000000000000000000000000000000000000000000000000000000000000000000000000000000000000000000000000000000000000000000000000000000000000000000000000000000000000000000000000000000000000000000000000000000000000000000000000000000000000000000000000000000000000000000000000000000000000000000000000000000000000000000000000000000000000000000000000000000000000000000000000000000000000000000000000000000000000000000000000000000000000000000000000000000000000000000000000000000000000000000000000000000000000000000000000",
                    "difficulty": "0x00",
                    "number": "0x01",
                    "gasLimit": "0x01c9c380",
                    "gasUsed": "0x072e09",
                    "timestamp": "0x03e8",
                    "extraData": "0x00",
                    "mixHash": "0x0000000000000000000000000000000000000000000000000000000000020000",
                    "nonce": "0x0000000000000000",
                    "baseFeePerGas": "0x0a",
                    "withdrawalsRoot": "0x56e81f171bcc55a6ff8345e692c0f86e5b48e01b996cadc001622fb5e363b421",
                    "blobGasUsed": "0x00",
                    "excessBlobGas": "0x00",
                    "parentBeaconBlockRoot": "0x0000000000000000000000000000000000000000000000000000000000000000",
                    "hash": "0x8fb71c190bd651de2aa290dd87f421ee2327221279e012fec3f9b0f597d93d82"
                },
                "transactions": [
                    {
                        "type": "0x00",
                        "chainId": "0x01",
                        "nonce": "0x00",
                        "gasPrice": "0x0a",
                        "gasLimit": "0x1a3ec0",
                        "to": "0x081fa564a44bd568ecf6d6b044899f7ee4057f5f",
                        "value": "0x00",
                        "data": "0x",
                        "v": "0x26",
                        "r": "0x9fea3f90f0a2cbf0c1b831d92b4fa644255fc5c0d04172326a73187f17e8fad1",
                        "s": "0x5faccbb149e02235a0362e400e31760d50f0e82d47b0b32edcb42e9a196602bf",
                        "sender": "0xebaf50debf10e08302fe4280c32df010463ca297"
                    }
                ],
                "uncleHeaders": [],
                "withdrawals": [],
                "receipts": [
                    {
                        "transactionHash": "0x19aa5ac66cea398a593e03de8b06a364f7dc71d041df97154668a7de365242d0",
                        "type": "0x00",
                        "cumulativeGasUsed": "0x072e09",
                        "bloom": "0x00000000000000000000000000000000000000000000000000000000000000000000000000000000000000000000000000000000000000000000000000000000000000000000000000000000000000000000000000000000000000000000000000000000000000000000000000000000000000000000000000000000000000000000000000000000000000000000000000000000000000000000000000000000000000000000000000000000000000000000000000000000000000000000000000000000000000000000000000000000000000000000000000000000000000000000000000000000000000000000000000000000000000000000000000000000",
                        "logs": [],
                        "status": true,
                        "rlp": "0xf901090183072e09b9010000000000000000000000000000000000000000000000000000000000000000000000000000000000000000000000000000000000000000000000000000000000000000000000000000000000000000000000000000000000000000000000000000000000000000000000000000000000000000000000000000000000000000000000000000000000000000000000000000000000000000000000000000000000000000000000000000000000000000000000000000000000000000000000000000000000000000000000000000000000000000000000000000000000000000000000000000000000000000000000000000000000000000000000000000000000c0"
                    }
                ],
                "rlp": "0xf902a4f9023ba01b6e938d4b9632ad713ff27695581bc641432ee67cfb817d4dbb9df1477c89d2a01dcc4de8dec75d7aab85b567b6ccd41ad312451b948a7413f0a142fd40d49347942adc25665018aa1fe0e6bc666dac8fc2697ff9baa0eb29e256f9b9d0f8376e499624677b421738077bb55ffd8442abb1539bb76932a014abc3aa2a945eebd0fdadaeaf0e76afb7c722a20ea5ebf4aff7a28491b5020fa002f83675effc946bb66d55c865100f384f16d2782ba4113ba8c379d924326da9b901000000000000000000000000000000000000000000000000000000000000000000000000000000000000000000000000000000000000000000000000000000000000000000000000000000000000000000000000000000000000000000000000000000000000000000000000000000000000000000000000000000000000000000000000000000000000000000000000000000000000000000000000000000000000000000000000000000000000000000000000000000000000000000000000000000000000000000000000000000000000000000000000000000000000000000000000000000000000000000000000000000000000000000000000000000000080018401c9c38083072e098203e800a000000000000000000000000000000000000000000000000000000000000200008800000000000000000aa056e81f171bcc55a6ff8345e692c0f86e5b48e01b996cadc001622fb5e363b4218080a00000000000000000000000000000000000000000000000000000000000000000f862f860800a831a3ec094081fa564a44bd568ecf6d6b044899f7ee4057f5f808026a09fea3f90f0a2cbf0c1b831d92b4fa644255fc5c0d04172326a73187f17e8fad1a05faccbb149e02235a0362e400e31760d50f0e82d47b0b32edcb42e9a196602bfc0c0",
                "blocknumber": "1"
            }
        ],
        "sealEngine": "NoProof",
        "_info": {
            "hash": "0x8db75a4ee0e6bd5aecf229e4003ccc463781d309b57cb2adf1f801556f75d456",
            "fixture-format": "blockchain_test",
            "comment": "`execution-specs` generated test",
            "filling-transition-tool": "2.19.0",
            "description": "No description available - add a docstring to the python test class or function.",
            "url": "",
            "opcode_count": {}
        }
    }
}