{
    "tests/static/state_tests/stStaticCall/static_Call50000Filler.json::static_Call50000[fork_Cancun-blockchain_test_from_state_test-d0]": {
        "network": "Cancun",
        "genesisBlockHeader": {
            "parentHash": "0x0000000000000000000000000000000000000000000000000000000000000000",
            "uncleHash": "0x1dcc4de8dec75d7aab85b567b6ccd41ad312451b948a7413f0a142fd40d49347",
            "coinbase": "0x0000000000000000000000000000000000000000",
            "stateRoot": "0xd13277c83fa04675f91d18f8122a3c74ff08325eda3810b4239abb0470ffb28c",
            "transactionsTrie": "0x56e81f171bcc55a6ff8345e692c0f86e5b48e01b996cadc001622fb5e363b421",
            "receiptTrie": "0x56e81f171bcc55a6ff8345e692c0f86e5b48e01b996cadc001622fb5e363b421",
            "bloom": "0x00000000000000000000000000000000000000000000000000000000000000000000000000000000000000000000000000000000000000000000000000000000000000000000000000000000000000000000000000000000000000000000000000000000000000000000000000000000000000000000000000000000000000000000000000000000000000000000000000000000000000000000000000000000000000000000000000000000000000000000000000000000000000000000000000000000000000000000000000000000000000000000000000000000000000000000000000000000000000000000000000000000000000000000000000000000",
            "difficulty": "0x00",
            "number": "0x00",
            "gasLimit": "0x174876e800",
            "gasUsed": "0x00",
            "timestamp": "0x00",
            "extraData": "0x00",
            "mixHash": "0x0000000000000000000000000000000000000000000000000000000000000000",
            "nonce": "0x0000000000000000",
            "baseFeePerGas": "0x0b",
            "withdrawalsRoot": "0x56e81f171bcc55a6ff8345e692c0f86e5b48e01b996cadc001622fb5e363b421",
            "blobGasUsed": "0x00",
            "excessBlobGas": "0x00",
            "parentBeaconBlockRoot": "0x0000000000000000000000000000000000000000000000000000000000000000",
            "hash": "0x546554fdc6ca9c0131e1ace30a67c6921f4cce7b869f0b3450315f6ea1516407"
        },
        "pre": {
            "0x000f3df6d732807ef1319fb7b8bb8522d0beac02": {
                "nonce": "0x01",
                "balance": "0x00",
                "code": "0x3373fffffffffffffffffffffffffffffffffffffffe14604d57602036146024575f5ffd5b5f35801560495762001fff810690815414603c575f5ffd5b62001fff01545f5260205ff35b5f5ffd5b62001fff42064281555f359062001fff015500",
                "storage": {}
            },
            "0xc0e4183389eb57f779a986d8c878f89b9401dc8e": {
                "nonce": "0x00",
                "balance": "0x00",
                "code": "0x6000600060006000346000355af1600055600160015500",
                "storage": {}
            },
            "0x7efd7e4e34d1783f5d86b7862a37b3bbbd13deb8": {
                "nonce": "0x00",
                "balance": "0x1b58",
                "code": "0x60005460005500",
                "storage": {
                    "0x00": "0x01"
                }
            },
            "0x2e396fd4f6f2799d61f534b43175f5344c65ecac": {
                "nonce": "0x00",
                "balance": "0x0fffffffffffff",
                "code": "0x5b61c3506080511015603e576000600061c3506000737efd7e4e34d1783f5d86b7862a37b3bbbd13deb8620186a0fa6000556001608051016080526000565b60805160015500",
                "storage": {}
            },
            "0x6d440cd3e818056e21914c856e3712f4186b06c8": {
                "nonce": "0x00",
                "balance": "0x1b58",
                "code": "0x60005460005200",
                "storage": {
                    "0x00": "0x01"
                }
            },
            "0xb00a8701f877b1152cd955e957fcbaf51a15f55f": {
                "nonce": "0x00",
                "balance": "0x0fffffffffffff",
                "code": "0x5b61c3506080511015603e576000600061c3506000736d440cd3e818056e21914c856e3712f4186b06c8620186a0fa6000556001608051016080526000565b60805160205500",
                "storage": {}
            },
            "0x4768b5e50b0ebe91ae38d84a47e3179e615f9c40": {
                "nonce": "0x00",
                "balance": "0xffffffffffffffffffffffffffffffff",
                "code": "0x",
                "storage": {}
            }
        },
        "postState": {
            "0x000f3df6d732807ef1319fb7b8bb8522d0beac02": {
                "nonce": "0x01",
                "balance": "0x00",
                "code": "0x3373fffffffffffffffffffffffffffffffffffffffe14604d57602036146024575f5ffd5b5f35801560495762001fff810690815414603c575f5ffd5b62001fff01545f5260205ff35b5f5ffd5b62001fff42064281555f359062001fff015500",
                "storage": {
                    "0x03e8": "0x03e8"
                }
            },
            "0xc0e4183389eb57f779a986d8c878f89b9401dc8e": {
                "nonce": "0x00",
                "balance": "0x00",
                "code": "0x6000600060006000346000355af1600055600160015500",
                "storage": {
                    "0x00": "0x01",
                    "0x01": "0x01"
                }
            },
            "0x7efd7e4e34d1783f5d86b7862a37b3bbbd13deb8": {
                "nonce": "0x00",
                "balance": "0x1b58",
                "code": "0x60005460005500",
                "storage": {
                    "0x00": "0x01"
                }
            },
            "0x2e396fd4f6f2799d61f534b43175f5344c65ecac": {
                "nonce": "0x00",
                "balance": "0x10000000000009",
                "code": "0x5b61c3506080511015603e576000600061c3506000737efd7e4e34d1783f5d86b7862a37b3bbbd13deb8620186a0fa6000556001608051016080526000565b60805160015500",
                "storage": {
                    "0x01": "0xc350"
                }
            },
            "0x6d440cd3e818056e21914c856e3712f4186b06c8": {
                "nonce": "0x00",
                "balance": "0x1b58",
                "code": "0x60005460005200",
                "storage": {
                    "0x00": "0x01"
                }
            },
            "0xb00a8701f877b1152cd955e957fcbaf51a15f55f": {
                "nonce": "0x00",
                "balance": "0x0fffffffffffff",
                "code": "0x5b61c3506080511015603e576000600061c3506000736d440cd3e818056e21914c856e3712f4186b06c8620186a0fa6000556001608051016080526000565b60805160205500",
                "storage": {}
            },
            "0x4768b5e50b0ebe91ae38d84a47e3179e615f9c40": {
                "nonce": "0x01",
                "balance": "0xfffffffffffffffffffffff45362fe51",
                "code": "0x",
                "storage": {}
            }
        },
        "lastblockhash": "0xd469e9d3a3f08299c7ea50a12b1c71f37af8165f22f673fad6a02a9a6e579b7f",
        "config": {
            "network": "Cancun",
            "chainid": "0x01",
            "blobSchedule": {
                "Cancun": {
                    "target": "0x03",
                    "max": "0x06",
                    "baseFeeUpdateFraction": "0x32f0ed"
                }
            }
        },
        "genesisRLP": "0xf9023df90237a00000000000000000000000000000000000000000000000000000000000000000a01dcc4de8dec75d7aab85b567b6ccd41ad312451b948a7413f0a142fd40d49347940000000000000000000000000000000000000000a0d13277c83fa04675f91d18f8122a3c74ff08325eda3810b4239abb0470ffb28ca056e81f171bcc55a6ff8345e692c0f86e5b48e01b996cadc001622fb5e363b421a056e81f171bcc55a6ff8345e692c0f86e5b48e01b996cadc001622fb5e363b421b9010000000000000000000000000000000000000000000000000000000000000000000000000000000000000000000000000000000000000000000000000000000000000000000000000000000000000000000000000000000000000000000000000000000000000000000000000000000000000000000000000000000000000000000000000000000000000000000000000000000000000000000000000000000000000000000000000000000000000000000000000000000000000000000000000000000000000000000000000000000000000000000000000000000000000000000000000000000000000000000000000000000000000000000000000000000000808085174876e800808000a000000000000000000000000000000000000000000000000000000000000000008800000000000000000ba056e81f171bcc55a6ff8345e692c0f86e5b48e01b996cadc001622fb5e363b4218080a00000000000000000000000000000000000000000000000000000000000000000c0c0c0",
        "blocks": [
            {
                "blockHeader": {
                    "parentHash": "0x546554fdc6ca9c0131e1ace30a67c6921f4cce7b869f0b3450315f6ea1516407",
                    "uncleHash": "0x1dcc4de8dec75d7aab85b567b6ccd41ad312451b948a7413f0a142fd40d49347",
                    "coinbase": "0xb94f5374fce5edbc8e2a8697c15331677e6ebf0b",
                    "stateRoot": "0x07e03fdb811402440bd4fa2b1280383dd54e899659d97c8d4083b64f39ca5b95",
                    "transactionsTrie": "0x9e32c2053a1ed8f32f13b00d2a999dc204895323ca57b84434fa438d51744f36",
                    "receiptTrie": "0xe33a37ea76406f31ea1fcb19d6322d2ed6f62380dbc2d4b9d9f1be4162eb9f77",
                    "bloom": "0x00000000000000000000000000000000000000000000000000000000000000000000000000000000000000000000000000000000000000000000000000000000000000000000000000000000000000000000000000000000000000000000000000000000000000000000000000000000000000000000000000000000000000000000000000000000000000000000000000000000000000000000000000000000000000000000000000000000000000000000000000000000000000000000000000000000000000000000000000000000000000000000000000000000000000000000000000000000000000000000000000000000000000000000000000000000",
                    "difficulty": "0x00",
                    "number": "0x01",
                    "gasLimit": "0x174876e800",
                    "gasUsed": "0x012adc802a",
                    "timestamp": "0x03e8",
                    "extraData": "0x00",
                    "mixHash": "0x0000000000000000000000000000000000000000000000000000000000020000",
                    "nonce": "0x0000000000000000",
                    "baseFeePerGas": "0x0a",
                    "withdrawalsRoot": "0x56e81f171bcc55a6ff8345e692c0f86e5b48e01b996cadc001622fb5e363b421",
                    "blobGasUsed": "0x00",
                    "excessBlobGas": "0x00",
                    "parentBeaconBlockRoot": "0x0000000000000000000000000000000000000000000000000000000000000000",
                    "hash": "0xd469e9d3a3f08299c7ea50a12b1c71f37af8165f22f673fad6a02a9a6e579b7f"
                },
                "transactions": [
                    {
                        "type": "0x00",
                        "chainId": "0x01",
                        "nonce": "0x00",
                        "gasPrice": "0x0a",
                        "gasLimit": "0x14f46b0400",
                        "to": "0xc0e4183389eb57f779a986d8c878f89b9401dc8e",
                        "value": "0x0a",
                        "data": "0x0000000000000000000000002e396fd4f6f2799d61f534b43175f5344c65ecac",
                        "v": "0x25",
                        "r": "0x520602b1b7ff0f97a20b8ff5a6a1dc0c6b4c778bdd3cbbe40a40ba3e2ef2be56",
                        "s": "0x7f0b64d0f34fbe9747793796520e407f2caee7d521104bdd6a0775878322a3e8",
                        "sender": "0x4768b5e50b0ebe91ae38d84a47e3179e615f9c40"
                    }
                ],
                "uncleHeaders": [],
                "withdrawals": [],
                "receipts": [
                    {
                        "transactionHash": "0xa9280dafc535bab82213648fc56459a7e035a10c9cfa26cd93730d872f43956d",
                        "type": "0x00",
                        "cumulativeGasUsed": "0x012adc802a",
                        "bloom": "0x00000000000000000000000000000000000000000000000000000000000000000000000000000000000000000000000000000000000000000000000000000000000000000000000000000000000000000000000000000000000000000000000000000000000000000000000000000000000000000000000000000000000000000000000000000000000000000000000000000000000000000000000000000000000000000000000000000000000000000000000000000000000000000000000000000000000000000000000000000000000000000000000000000000000000000000000000000000000000000000000000000000000000000000000000000000",
                        "logs": [],
                        "status": true,
                        "rlp": "0xf9010b0185012adc802ab9010000000000000000000000000000000000000000000000000000000000000000000000000000000000000000000000000000000000000000000000000000000000000000000000000000000000000000000000000000000000000000000000000000000000000000000000000000000000000000000000000000000000000000000000000000000000000000000000000000000000000000000000000000000000000000000000000000000000000000000000000000000000000000000000000000000000000000000000000000000000000000000000000000000000000000000000000000000000000000000000000000000000000000000000000000000000c0"
                    }
                ],
                "rlp": "0xf902c9f9023ea0546554fdc6ca9c0131e1ace30a67c6921f4cce7b869f0b3450315f6ea1516407a01dcc4de8dec75d7aab85b567b6ccd41ad312451b948a7413f0a142fd40d4934794b94f5374fce5edbc8e2a8697c15331677e6ebf0ba007e03fdb811402440bd4fa2b1280383dd54e899659d97c8d4083b64f39ca5b95a09e32c2053a1ed8f32f13b00d2a999dc204895323ca57b84434fa438d51744f36a0e33a37ea76406f31ea1fcb19d6322d2ed6f62380dbc2d4b9d9f1be4162eb9f77b9010000000000000000000000000000000000000000000000000000000000000000000000000000000000000000000000000000000000000000000000000000000000000000000000000000000000000000000000000000000000000000000000000000000000000000000000000000000000000000000000000000000000000000000000000000000000000000000000000000000000000000000000000000000000000000000000000000000000000000000000000000000000000000000000000000000000000000000000000000000000000000000000000000000000000000000000000000000000000000000000000000000000000000000000000000000000800185174876e80085012adc802a8203e800a000000000000000000000000000000000000000000000000000000000000200008800000000000000000aa056e81f171bcc55a6ff8345e692c0f86e5b48e01b996cadc001622fb5e363b4218080a00000000000000000000000000000000000000000000000000000000000000000f884f882800a8514f46b040094c0e4183389eb57f779a986d8c878f89b9401dc8e0aa00000000000000000000000002e396fd4f6f2799d61f534b43175f5344c65ecac25a0520602b1b7ff0f97a20b8ff5a6a1dc0c6b4c778bdd3cbbe40a40ba3e2ef2be56a07f0b64d0f34fbe9747793796520e407f2caee7d521104bdd6a0775878322a3e8c0c0",
                "blocknumber": "1"
            }
        ],
        "sealEngine": "NoProof",
        "_info": {
            "hash": "0x2f316f938e9a9ffae16cedbf92038e3da69b953087e68bc6c8a3d254b90380fa",
            "fixture-format": "blockchain_test",
            "comment": "`execution-specs` generated test",
            "filling-transition-tool": "2.19.0",
            "description": "No description available - add a docstring to the python test class or function.",
            "url": "",
            "opcode_count": {}
        }
    },
    "tests/static/state_tests/stStaticCall/static_Call50000Filler.json::static_Call50000[fork_Cancun-blockchain_test_from_state_test-d1]": {
        "network": "Cancun",
        "genesisBlockHeader": {
            "parentHash": "0x0000000000000000000000000000000000000000000000000000000000000000",
            "uncleHash": "0x1dcc4de8dec75d7aab85b567b6ccd41ad312451b948a7413f0a142fd40d49347",
            "coinbase": "0x0000000000000000000000000000000000000000",
            "stateRoot": "0xd13277c83fa04675f91d18f8122a3c74ff08325eda3810b4239abb0470ffb28c",
            "transactionsTrie": "0x56e81f171bcc55a6ff8345e692c0f86e5b48e01b996cadc001622fb5e363b421",
            "receiptTrie": "0x56e81f171bcc55a6ff8345e692c0f86e5b48e01b996cadc001622fb5e363b421",
            "bloom": "0x00000000000000000000000000000000000000000000000000000000000000000000000000000000000000000000000000000000000000000000000000000000000000000000000000000000000000000000000000000000000000000000000000000000000000000000000000000000000000000000000000000000000000000000000000000000000000000000000000000000000000000000000000000000000000000000000000000000000000000000000000000000000000000000000000000000000000000000000000000000000000000000000000000000000000000000000000000000000000000000000000000000000000000000000000000000",
            "difficulty": "0x00",
            "number": "0x00",
            "gasLimit": "0x174876e800",
            "gasUsed": "0x00",
            "timestamp": "0x00",
            "extraData": "0x00",
            "mixHash": "0x0000000000000000000000000000000000000000000000000000000000000000",
            "nonce": "0x0000000000000000",
            "baseFeePerGas": "0x0b",
            "withdrawalsRoot": "0x56e81f171bcc55a6ff8345e692c0f86e5b48e01b996cadc001622fb5e363b421",
            "blobGasUsed": "0x00",
            "excessBlobGas": "0x00",
            "parentBeaconBlockRoot": "0x0000000000000000000000000000000000000000000000000000000000000000",
            "hash": "0x546554fdc6ca9c0131e1ace30a67c6921f4cce7b869f0b3450315f6ea1516407"
        },
        "pre": {
            "0x000f3df6d732807ef1319fb7b8bb8522d0beac02": {
                "nonce": "0x01",
                "balance": "0x00",
                "code": "0x3373fffffffffffffffffffffffffffffffffffffffe14604d57602036146024575f5ffd5b5f35801560495762001fff810690815414603c575f5ffd5b62001fff01545f5260205ff35b5f5ffd5b62001fff42064281555f359062001fff015500",
                "storage": {}
            },
            "0xc0e4183389eb57f779a986d8c878f89b9401dc8e": {
                "nonce": "0x00",
                "balance": "0x00",
                "code": "0x6000600060006000346000355af1600055600160015500",
                "storage": {}
            },
            "0x7efd7e4e34d1783f5d86b7862a37b3bbbd13deb8": {
                "nonce": "0x00",
                "balance": "0x1b58",
                "code": "0x60005460005500",
                "storage": {
                    "0x00": "0x01"
                }
            },
            "0x2e396fd4f6f2799d61f534b43175f5344c65ecac": {
                "nonce": "0x00",
                "balance": "0x0fffffffffffff",
                "code": "0x5b61c3506080511015603e576000600061c3506000737efd7e4e34d1783f5d86b7862a37b3bbbd13deb8620186a0fa6000556001608051016080526000565b60805160015500",
                "storage": {}
            },
            "0x6d440cd3e818056e21914c856e3712f4186b06c8": {
                "nonce": "0x00",
                "balance": "0x1b58",
                "code": "0x60005460005200",
                "storage": {
                    "0x00": "0x01"
                }
            },
            "0xb00a8701f877b1152cd955e957fcbaf51a15f55f": {
                "nonce": "0x00",
                "balance": "0x0fffffffffffff",
                "code": "0x5b61c3506080511015603e576000600061c3506000736d440cd3e818056e21914c856e3712f4186b06c8620186a0fa6000556001608051016080526000565b60805160205500",
                "storage": {}
            },
            "0x4768b5e50b0ebe91ae38d84a47e3179e615f9c40": {
                "nonce": "0x00",
                "balance": "0xffffffffffffffffffffffffffffffff",
                "code": "0x",
                "storage": {}
            }
        },
        "postState": {
            "0x000f3df6d732807ef1319fb7b8bb8522d0beac02": {
                "nonce": "0x01",
                "balance": "0x00",
                "code": "0x3373fffffffffffffffffffffffffffffffffffffffe14604d57602036146024575f5ffd5b5f35801560495762001fff810690815414603c575f5ffd5b62001fff01545f5260205ff35b5f5ffd5b62001fff42064281555f359062001fff015500",
                "storage": {
                    "0x03e8": "0x03e8"
                }
            },
            "0xc0e4183389eb57f779a986d8c878f89b9401dc8e": {
                "nonce": "0x00",
                "balance": "0x00",
                "code": "0x6000600060006000346000355af1600055600160015500",
                "storage": {
                    "0x00": "0x01",
                    "0x01": "0x01"
                }
            },
            "0x7efd7e4e34d1783f5d86b7862a37b3bbbd13deb8": {
                "nonce": "0x00",
                "balance": "0x1b58",
                "code": "0x60005460005500",
                "storage": {
                    "0x00": "0x01"
                }
            },
            "0x2e396fd4f6f2799d61f534b43175f5344c65ecac": {
                "nonce": "0x00",
                "balance": "0x0fffffffffffff",
                "code": "0x5b61c3506080511015603e576000600061c3506000737efd7e4e34d1783f5d86b7862a37b3bbbd13deb8620186a0fa6000556001608051016080526000565b60805160015500",
                "storage": {}
            },
            "0x6d440cd3e818056e21914c856e3712f4186b06c8": {
                "nonce": "0x00",
                "balance": "0x1b58",
                "code": "0x60005460005200",
                "storage": {
                    "0x00": "0x01"
                }
            },
            "0xb00a8701f877b1152cd955e957fcbaf51a15f55f": {
                "nonce": "0x00",
                "balance": "0x10000000000009",
                "code": "0x5b61c3506080511015603e576000600061c3506000736d440cd3e818056e21914c856e3712f4186b06c8620186a0fa6000556001608051016080526000565b60805160205500",
                "storage": {
                    "0x00": "0x01",
                    "0x20": "0xc350"
                }
            },
            "0x4768b5e50b0ebe91ae38d84a47e3179e615f9c40": {
                "nonce": "0x01",
                "balance": "0xfffffffffffffffffffffffff4449cd9",
                "code": "0x",
                "storage": {}
            }
        },
        "lastblockhash": "0x39d781d47327c4e38a5b991b522e0545a1937abffeb17c752bea1f3241f11528",
        "config": {
            "network": "Cancun",
            "chainid": "0x01",
            "blobSchedule": {
                "Cancun": {
                    "target": "0x03",
                    "max": "0x06",
                    "baseFeeUpdateFraction": "0x32f0ed"
                }
            }
        },
        "genesisRLP": "0xf9023df90237a00000000000000000000000000000000000000000000000000000000000000000a01dcc4de8dec75d7aab85b567b6ccd41ad312451b948a7413f0a142fd40d49347940000000000000000000000000000000000000000a0d13277c83fa04675f91d18f8122a3c74ff08325eda3810b4239abb0470ffb28ca056e81f171bcc55a6ff8345e692c0f86e5b48e01b996cadc001622fb5e363b421a056e81f171bcc55a6ff8345e692c0f86e5b48e01b996cadc001622fb5e363b421b9010000000000000000000000000000000000000000000000000000000000000000000000000000000000000000000000000000000000000000000000000000000000000000000000000000000000000000000000000000000000000000000000000000000000000000000000000000000000000000000000000000000000000000000000000000000000000000000000000000000000000000000000000000000000000000000000000000000000000000000000000000000000000000000000000000000000000000000000000000000000000000000000000000000000000000000000000000000000000000000000000000000000000000000000000000000000808085174876e800808000a000000000000000000000000000000000000000000000000000000000000000008800000000000000000ba056e81f171bcc55a6ff8345e692c0f86e5b48e01b996cadc001622fb5e363b4218080a00000000000000000000000000000000000000000000000000000000000000000c0c0c0",
        "blocks": [
            {
                "blockHeader": {
                    "parentHash": "0x546554fdc6ca9c0131e1ace30a67c6921f4cce7b869f0b3450315f6ea1516407",
                    "uncleHash": "0x1dcc4de8dec75d7aab85b567b6ccd41ad312451b948a7413f0a142fd40d49347",
                    "coinbase": "0xb94f5374fce5edbc8e2a8697c15331677e6ebf0b",
                    "stateRoot": "0x2678948e4ffd09bbb2fc6d137b889e3c34594c5bfbe80be4a4dc505bbdf2879e",
                    "transactionsTrie": "0x5a08d5a20d5d5834086b02734e89f004065e81c34c2328c2c462d1b0cb740964",
                    "receiptTrie": "0xd5f372a849aaa977a2974f3e0a579610c03d8c576736c8393267854de3973674",
                    "bloom": "0x00000000000000000000000000000000000000000000000000000000000000000000000000000000000000000000000000000000000000000000000000000000000000000000000000000000000000000000000000000000000000000000000000000000000000000000000000000000000000000000000000000000000000000000000000000000000000000000000000000000000000000000000000000000000000000000000000000000000000000000000000000000000000000000000000000000000000000000000000000000000000000000000000000000000000000000000000000000000000000000000000000000000000000000000000000000",
                    "difficulty": "0x00",
                    "number": "0x01",
                    "gasLimit": "0x174876e800",
                    "gasUsed": "0x012c56b6",
                    "timestamp": "0x03e8",
                    "extraData": "0x00",
                    "mixHash": "0x0000000000000000000000000000000000000000000000000000000000020000",
                    "nonce": "0x0000000000000000",
                    "baseFeePerGas": "0x0a",
                    "withdrawalsRoot": "0x56e81f171bcc55a6ff8345e692c0f86e5b48e01b996cadc001622fb5e363b421",
                    "blobGasUsed": "0x00",
                    "excessBlobGas": "0x00",
                    "parentBeaconBlockRoot": "0x0000000000000000000000000000000000000000000000000000000000000000",
                    "hash": "0x39d781d47327c4e38a5b991b522e0545a1937abffeb17c752bea1f3241f11528"
                },
                "transactions": [
                    {
                        "type": "0x00",
                        "chainId": "0x01",
                        "nonce": "0x00",
                        "gasPrice": "0x0a",
                        "gasLimit": "0x14f46b0400",
                        "to": "0xc0e4183389eb57f779a986d8c878f89b9401dc8e",
                        "value": "0x0a",
                        "data": "0x000000000000000000000000b00a8701f877b1152cd955e957fcbaf51a15f55f",
                        "v": "0x26",
                        "r": "0x9dc6324bb207869da5c0d954ecb62eeda8d3f4efbb5538ddebd537b4bec8b167",
                        "s": "0x1d21609356c6a1d6de765b7c3f07375bcc028dfef56845db71ece17438853586",
                        "sender": "0x4768b5e50b0ebe91ae38d84a47e3179e615f9c40"
                    }
                ],
                "uncleHeaders": [],
                "withdrawals": [],
                "receipts": [
                    {
                        "transactionHash": "0x04b68f8ae323112afb6d8a980cd5ff51164e240dad260d9a7c95d47e9ad0d9e0",
                        "type": "0x00",
                        "cumulativeGasUsed": "0x012c56b6",
                        "bloom": "0x00000000000000000000000000000000000000000000000000000000000000000000000000000000000000000000000000000000000000000000000000000000000000000000000000000000000000000000000000000000000000000000000000000000000000000000000000000000000000000000000000000000000000000000000000000000000000000000000000000000000000000000000000000000000000000000000000000000000000000000000000000000000000000000000000000000000000000000000000000000000000000000000000000000000000000000000000000000000000000000000000000000000000000000000000000000",
                        "logs": [],
                        "status": true,
                        "rlp": "0xf9010a0184012c56b6b9010000000000000000000000000000000000000000000000000000000000000000000000000000000000000000000000000000000000000000000000000000000000000000000000000000000000000000000000000000000000000000000000000000000000000000000000000000000000000000000000000000000000000000000000000000000000000000000000000000000000000000000000000000000000000000000000000000000000000000000000000000000000000000000000000000000000000000000000000000000000000000000000000000000000000000000000000000000000000000000000000000000000000000000000000000000000c0"
                    }
                ],
                "rlp": "0xf902c8f9023da0546554fdc6ca9c0131e1ace30a67c6921f4cce7b869f0b3450315f6ea1516407a01dcc4de8dec75d7aab85b567b6ccd41ad312451b948a7413f0a142fd40d4934794b94f5374fce5edbc8e2a8697c15331677e6ebf0ba02678948e4ffd09bbb2fc6d137b889e3c34594c5bfbe80be4a4dc505bbdf2879ea05a08d5a20d5d5834086b02734e89f004065e81c34c2328c2c462d1b0cb740964a0d5f372a849aaa977a2974f3e0a579610c03d8c576736c8393267854de3973674b9010000000000000000000000000000000000000000000000000000000000000000000000000000000000000000000000000000000000000000000000000000000000000000000000000000000000000000000000000000000000000000000000000000000000000000000000000000000000000000000000000000000000000000000000000000000000000000000000000000000000000000000000000000000000000000000000000000000000000000000000000000000000000000000000000000000000000000000000000000000000000000000000000000000000000000000000000000000000000000000000000000000000000000000000000000000000800185174876e80084012c56b68203e800a000000000000000000000000000000000000000000000000000000000000200008800000000000000000aa056e81f171bcc55a6ff8345e692c0f86e5b48e01b996cadc001622fb5e363b4218080a00000000000000000000000000000000000000000000000000000000000000000f884f882800a8514f46b040094c0e4183389eb57f779a986d8c878f89b9401dc8e0aa0000000000000000000000000b00a8701f877b1152cd955e957fcbaf51a15f55f26a09dc6324bb207869da5c0d954ecb62eeda8d3f4efbb5538ddebd537b4bec8b167a01d21609356c6a1d6de765b7c3f07375bcc028dfef56845db71ece17438853586c0c0",
                "blocknumber": "1"
            }
        ],
        "sealEngine": "NoProof",
        "_info": {
            "hash": "0xbeeddc5531bc7704c9203cd2806571b298815a2b139a73b2fbd6d5f11c69a02b",
            "fixture-format": "blockchain_test",
            "comment": "`execution-specs` generated test",
            "filling-transition-tool": "2.19.0",
            "description": "No description available - add a docstring to the python test class or function.",
            "url": "",
            "opcode_count": {}
        }
    }
}