{
    "tests/static/state_tests/stStaticCall/static_callcallcallcode_001_OOGMAfter2Filler.json::static_callcallcallcode_001_OOGMAfter2[fork_Cancun-blockchain_test_from_state_test-d0]": {
        "network": "Cancun",
        "genesisBlockHeader": {
            "parentHash": "0x0000000000000000000000000000000000000000000000000000000000000000",
            "uncleHash": "0x1dcc4de8dec75d7aab85b567b6ccd41ad312451b948a7413f0a142fd40d49347",
            "coinbase": "0x0000000000000000000000000000000000000000",
            "stateRoot": "0xa19bd17269bc15ce40bb945b749a08dba16a230f202be862799a97826fbb8473",
            "transactionsTrie": "0x56e81f171bcc55a6ff8345e692c0f86e5b48e01b996cadc001622fb5e363b421",
            "receiptTrie": "0x56e81f171bcc55a6ff8345e692c0f86e5b48e01b996cadc001622fb5e363b421",
            "bloom": "0x00000000000000000000000000000000000000000000000000000000000000000000000000000000000000000000000000000000000000000000000000000000000000000000000000000000000000000000000000000000000000000000000000000000000000000000000000000000000000000000000000000000000000000000000000000000000000000000000000000000000000000000000000000000000000000000000000000000000000000000000000000000000000000000000000000000000000000000000000000000000000000000000000000000000000000000000000000000000000000000000000000000000000000000000000000000",
            "difficulty": "0x00",
            "number": "0x00",
            "gasLimit": "0x01c9c380",
            "gasUsed": "0x00",
            "timestamp": "0x00",
            "extraData": "0x00",
            "mixHash": "0x0000000000000000000000000000000000000000000000000000000000000000",
            "nonce": "0x0000000000000000",
            "baseFeePerGas": "0x0b",
            "withdrawalsRoot": "0x56e81f171bcc55a6ff8345e692c0f86e5b48e01b996cadc001622fb5e363b421",
            "blobGasUsed": "0x00",
            "excessBlobGas": "0x00",
            "parentBeaconBlockRoot": "0x0000000000000000000000000000000000000000000000000000000000000000",
            "hash": "0x80c1bb4c7192c7e84ca4b67474c356231321fd5744efa59e55b27e6f46e2f768"
        },
        "pre": {
            "0x000f3df6d732807ef1319fb7b8bb8522d0beac02": {
                "nonce": "0x01",
                "balance": "0x00",
                "code": "0x3373fffffffffffffffffffffffffffffffffffffffe14604d57602036146024575f5ffd5b5f35801560495762001fff810690815414603c575f5ffd5b62001fff01545f5260205ff35b5f5ffd5b62001fff42064281555f359062001fff015500",
                "storage": {}
            },
            "0xebaf50debf10e08302fe4280c32df010463ca297": {
                "nonce": "0x00",
                "balance": "0x0de0b6b3a7640000",
                "code": "0x",
                "storage": {}
            },
            "0x335c5531b84765a7626e6e76688f18b81be5259c": {
                "nonce": "0x00",
                "balance": "0x00",
                "code": "0x600160035200",
                "storage": {}
            },
            "0xc26255d9fcf9d7d38d2734cd4e980b8c00eceef6": {
                "nonce": "0x00",
                "balance": "0x00",
                "code": "0x6040600060406000600073335c5531b84765a7626e6e76688f18b81be5259c6201d4d4f200",
                "storage": {}
            },
            "0x171a4477dfe54503dd5f21daf90429fd2f22d654": {
                "nonce": "0x00",
                "balance": "0x00",
                "code": "0x604060006040600073c26255d9fcf9d7d38d2734cd4e980b8c00eceef662061ad0fa50600160035500",
                "storage": {}
            },
            "0x142cc6371ac4a38c018d3d1fda49a9327d8b0b45": {
                "nonce": "0x00",
                "balance": "0x00",
                "code": "0x604060006040600073c26255d9fcf9d7d38d2734cd4e980b8c00eceef662061ad0fa505b61c3506080511015603f5760013b506001608051016080526023565b00",
                "storage": {}
            },
            "0xf1f083974fd68b961e68130c27fc5ef37b49c1df": {
                "nonce": "0x00",
                "balance": "0x0de0b6b3a7640000",
                "code": "0x604060006040600060003562092856fa600055600160015500",
                "storage": {}
            }
        },
        "postState": {
            "0x000f3df6d732807ef1319fb7b8bb8522d0beac02": {
                "nonce": "0x01",
                "balance": "0x00",
                "code": "0x3373fffffffffffffffffffffffffffffffffffffffe14604d57602036146024575f5ffd5b5f35801560495762001fff810690815414603c575f5ffd5b62001fff01545f5260205ff35b5f5ffd5b62001fff42064281555f359062001fff015500",
                "storage": {
                    "0x03e8": "0x03e8"
                }
            },
            "0xebaf50debf10e08302fe4280c32df010463ca297": {
                "nonce": "0x01",
                "balance": "0x0de0b6b3a7010dc4",
                "code": "0x",
                "storage": {}
            },
            "0x335c5531b84765a7626e6e76688f18b81be5259c": {
                "nonce": "0x00",
                "balance": "0x00",
                "code": "0x600160035200",
                "storage": {}
            },
            "0xc26255d9fcf9d7d38d2734cd4e980b8c00eceef6": {
                "nonce": "0x00",
                "balance": "0x00",
                "code": "0x6040600060406000600073335c5531b84765a7626e6e76688f18b81be5259c6201d4d4f200",
                "storage": {}
            },
            "0x171a4477dfe54503dd5f21daf90429fd2f22d654": {
                "nonce": "0x00",
                "balance": "0x00",
                "code": "0x604060006040600073c26255d9fcf9d7d38d2734cd4e980b8c00eceef662061ad0fa50600160035500",
                "storage": {}
            },
            "0x142cc6371ac4a38c018d3d1fda49a9327d8b0b45": {
                "nonce": "0x00",
                "balance": "0x00",
                "code": "0x604060006040600073c26255d9fcf9d7d38d2734cd4e980b8c00eceef662061ad0fa505b61c3506080511015603f5760013b506001608051016080526023565b00",
                "storage": {}
            },
            "0xf1f083974fd68b961e68130c27fc5ef37b49c1df": {
                "nonce": "0x00",
                "balance": "0x0de0b6b3a7640000",
                "code": "0x604060006040600060003562092856fa600055600160015500",
                "storage": {
                    "0x01": "0x01"
                }
            }
        },
        "lastblockhash": "0xf4a8cc320127d50761dd6f96f8a84493e2dd494d6467504ce5287bd2f09f60f5",
        "config": {
            "network": "Cancun",
            "chainid": "0x01",
            "blobSchedule": {
                "Cancun": {
                    "target": "0x03",
                    "max": "0x06",
                    "baseFeeUpdateFraction": "0x32f0ed"
                }
            }
        },
        "genesisRLP": "0xf9023cf90236a00000000000000000000000000000000000000000000000000000000000000000a01dcc4de8dec75d7aab85b567b6ccd41ad312451b948a7413f0a142fd40d49347940000000000000000000000000000000000000000a0a19bd17269bc15ce40bb945b749a08dba16a230f202be862799a97826fbb8473a056e81f171bcc55a6ff8345e692c0f86e5b48e01b996cadc001622fb5e363b421a056e81f171bcc55a6ff8345e692c0f86e5b48e01b996cadc001622fb5e363b421b901000000000000000000000000000000000000000000000000000000000000000000000000000000000000000000000000000000000000000000000000000000000000000000000000000000000000000000000000000000000000000000000000000000000000000000000000000000000000000000000000000000000000000000000000000000000000000000000000000000000000000000000000000000000000000000000000000000000000000000000000000000000000000000000000000000000000000000000000000000000000000000000000000000000000000000000000000000000000000000000000000000000000000000000000000000000080808401c9c380808000a000000000000000000000000000000000000000000000000000000000000000008800000000000000000ba056e81f171bcc55a6ff8345e692c0f86e5b48e01b996cadc001622fb5e363b4218080a00000000000000000000000000000000000000000000000000000000000000000c0c0c0",
        "blocks": [
            {
                "blockHeader": {
                    "parentHash": "0x80c1bb4c7192c7e84ca4b67474c356231321fd5744efa59e55b27e6f46e2f768",
                    "uncleHash": "0x1dcc4de8dec75d7aab85b567b6ccd41ad312451b948a7413f0a142fd40d49347",
                    "coinbase": "0x2adc25665018aa1fe0e6bc666dac8fc2697ff9ba",
                    "stateRoot": "0xd48b736c98b49b8a4b0f27f5f67f1def9e0a348dbf331f18e06249ee9f57b8fc",
                    "transactionsTrie": "0xf8e6145130f3e7e369e1665b026d930852a65d2ac0b7628ae1fd40d0d94d4e4c",
                    "receiptTrie": "0x990e5496f0fbbdc8a4fb382c442d5903455c79f8fc923d82e339edc601df1862",
                    "bloom": "0x00000000000000000000000000000000000000000000000000000000000000000000000000000000000000000000000000000000000000000000000000000000000000000000000000000000000000000000000000000000000000000000000000000000000000000000000000000000000000000000000000000000000000000000000000000000000000000000000000000000000000000000000000000000000000000000000000000000000000000000000000000000000000000000000000000000000000000000000000000000000000000000000000000000000000000000000000000000000000000000000000000000000000000000000000000000",
                    "difficulty": "0x00",
                    "number": "0x01",
                    "gasLimit": "0x01c9c380",
                    "gasUsed": "0x09e506",
                    "timestamp": "0x03e8",
                    "extraData": "0x00",
                    "mixHash": "0x0000000000000000000000000000000000000000000000000000000000020000",
                    "nonce": "0x0000000000000000",
                    "baseFeePerGas": "0x0a",
                    "withdrawalsRoot": "0x56e81f171bcc55a6ff8345e692c0f86e5b48e01b996cadc001622fb5e363b421",
                    "blobGasUsed": "0x00",
                    "excessBlobGas": "0x00",
                    "parentBeaconBlockRoot": "0x0000000000000000000000000000000000000000000000000000000000000000",
                    "hash": "0xf4a8cc320127d50761dd6f96f8a84493e2dd494d6467504ce5287bd2f09f60f5"
                },
                "transactions": [
                    {
                        "type": "0x00",
                        "chainId": "0x01",
                        "nonce": "0x00",
                        "gasPrice": "0x0a",
                        "gasLimit": "0x1a3ec0",
                        "to": "0xf1f083974fd68b961e68130c27fc5ef37b49c1df",
                        "value": "0x00",
                        "data": "0x000000000000000000000000171a4477dfe54503dd5f21daf90429fd2f22d654",
                        "v": "0x25",
                        "r": "0x87cb1fbe7337d768a277676aaf7e6186c205a6dd83e8e45f7b82e8def7ebfcfd",
                        "s": "0x5be485320af0aef31d12a90b34c912b49aa5a4642c1480b1a3d3b128b6035a3e",
                        "sender": "0xebaf50debf10e08302fe4280c32df010463ca297"
                    }
                ],
                "uncleHeaders": [],
                "withdrawals": [],
                "receipts": [
                    {
                        "transactionHash": "0x0a29bd08dd34ac93888a99e3832c2a1da65b4039e68a756db1ae33c46422614e",
                        "type": "0x00",
                        "cumulativeGasUsed": "0x09e506",
                        "bloom": "0x00000000000000000000000000000000000000000000000000000000000000000000000000000000000000000000000000000000000000000000000000000000000000000000000000000000000000000000000000000000000000000000000000000000000000000000000000000000000000000000000000000000000000000000000000000000000000000000000000000000000000000000000000000000000000000000000000000000000000000000000000000000000000000000000000000000000000000000000000000000000000000000000000000000000000000000000000000000000000000000000000000000000000000000000000000000",
                        "logs": [],
                        "status": true,
                        "rlp": "0xf90109018309e506b9010000000000000000000000000000000000000000000000000000000000000000000000000000000000000000000000000000000000000000000000000000000000000000000000000000000000000000000000000000000000000000000000000000000000000000000000000000000000000000000000000000000000000000000000000000000000000000000000000000000000000000000000000000000000000000000000000000000000000000000000000000000000000000000000000000000000000000000000000000000000000000000000000000000000000000000000000000000000000000000000000000000000000000000000000000000000c0"
                    }
                ],
                "rlp": "0xf902c4f9023ba080c1bb4c7192c7e84ca4b67474c356231321fd5744efa59e55b27e6f46e2f768a01dcc4de8dec75d7aab85b567b6ccd41ad312451b948a7413f0a142fd40d49347942adc25665018aa1fe0e6bc666dac8fc2697ff9baa0d48b736c98b49b8a4b0f27f5f67f1def9e0a348dbf331f18e06249ee9f57b8fca0f8e6145130f3e7e369e1665b026d930852a65d2ac0b7628ae1fd40d0d94d4e4ca0990e5496f0fbbdc8a4fb382c442d5903455c79f8fc923d82e339edc601df1862b901000000000000000000000000000000000000000000000000000000000000000000000000000000000000000000000000000000000000000000000000000000000000000000000000000000000000000000000000000000000000000000000000000000000000000000000000000000000000000000000000000000000000000000000000000000000000000000000000000000000000000000000000000000000000000000000000000000000000000000000000000000000000000000000000000000000000000000000000000000000000000000000000000000000000000000000000000000000000000000000000000000000000000000000000000000000080018401c9c3808309e5068203e800a000000000000000000000000000000000000000000000000000000000000200008800000000000000000aa056e81f171bcc55a6ff8345e692c0f86e5b48e01b996cadc001622fb5e363b4218080a00000000000000000000000000000000000000000000000000000000000000000f882f880800a831a3ec094f1f083974fd68b961e68130c27fc5ef37b49c1df80a0000000000000000000000000171a4477dfe54503dd5f21daf90429fd2f22d65425a087cb1fbe7337d768a277676aaf7e6186c205a6dd83e8e45f7b82e8def7ebfcfda05be485320af0aef31d12a90b34c912b49aa5a4642c1480b1a3d3b128b6035a3ec0c0",
                "blocknumber": "1"
            }
        ],
        "sealEngine": "NoProof",
        "_info": {
            "hash": "0xfe65344c4252b9a6a4fa380c676cbc1d27daf457ed3aeecc743468bc243d8555",
            "fixture-format": "blockchain_test",
            "comment": "`execution-specs` generated test",
            "filling-transition-tool": "2.19.0",
            "description": "No description available - add a docstring to the python test class or function.",
            "url": "",
            "opcode_count": {}
        }
    },
    "tests/static/state_tests/stStaticCall/static_callcallcallcode_001_OOGMAfter2Filler.json::static_callcallcallcode_001_OOGMAfter2[fork_Cancun-blockchain_test_from_state_test-d1]": {
        "network": "Cancun",
        "genesisBlockHeader": {
            "parentHash": "0x0000000000000000000000000000000000000000000000000000000000000000",
            "uncleHash": "0x1dcc4de8dec75d7aab85b567b6ccd41ad312451b948a7413f0a142fd40d49347",
            "coinbase": "0x0000000000000000000000000000000000000000",
            "stateRoot": "0xa19bd17269bc15ce40bb945b749a08dba16a230f202be862799a97826fbb8473",
            "transactionsTrie": "0x56e81f171bcc55a6ff8345e692c0f86e5b48e01b996cadc001622fb5e363b421",
            "receiptTrie": "0x56e81f171bcc55a6ff8345e692c0f86e5b48e01b996cadc001622fb5e363b421",
            "bloom": "0x00000000000000000000000000000000000000000000000000000000000000000000000000000000000000000000000000000000000000000000000000000000000000000000000000000000000000000000000000000000000000000000000000000000000000000000000000000000000000000000000000000000000000000000000000000000000000000000000000000000000000000000000000000000000000000000000000000000000000000000000000000000000000000000000000000000000000000000000000000000000000000000000000000000000000000000000000000000000000000000000000000000000000000000000000000000",
            "difficulty": "0x00",
            "number": "0x00",
            "gasLimit": "0x01c9c380",
            "gasUsed": "0x00",
            "timestamp": "0x00",
            "extraData": "0x00",
            "mixHash": "0x0000000000000000000000000000000000000000000000000000000000000000",
            "nonce": "0x0000000000000000",
            "baseFeePerGas": "0x0b",
            "withdrawalsRoot": "0x56e81f171bcc55a6ff8345e692c0f86e5b48e01b996cadc001622fb5e363b421",
            "blobGasUsed": "0x00",
            "excessBlobGas": "0x00",
            "parentBeaconBlockRoot": "0x0000000000000000000000000000000000000000000000000000000000000000",
            "hash": "0x80c1bb4c7192c7e84ca4b67474c356231321fd5744efa59e55b27e6f46e2f768"
        },
        "pre": {
            "0x000f3df6d732807ef1319fb7b8bb8522d0beac02": {
                "nonce": "0x01",
                "balance": "0x00",
                "code": "0x3373fffffffffffffffffffffffffffffffffffffffe14604d57602036146024575f5ffd5b5f35801560495762001fff810690815414603c575f5ffd5b62001fff01545f5260205ff35b5f5ffd5b62001fff42064281555f359062001fff015500",
                "storage": {}
            },
            "0xebaf50debf10e08302fe4280c32df010463ca297": {
                "nonce": "0x00",
                "balance": "0x0de0b6b3a7640000",
                "code": "0x",
                "storage": {}
            },
            "0x335c5531b84765a7626e6e76688f18b81be5259c": {
                "nonce": "0x00",
                "balance": "0x00",
                "code": "0x600160035200",
                "storage": {}
            },
            "0xc26255d9fcf9d7d38d2734cd4e980b8c00eceef6": {
                "nonce": "0x00",
                "balance": "0x00",
                "code": "0x6040600060406000600073335c5531b84765a7626e6e76688f18b81be5259c6201d4d4f200",
                "storage": {}
            },
            "0x171a4477dfe54503dd5f21daf90429fd2f22d654": {
                "nonce": "0x00",
                "balance": "0x00",
                "code": "0x604060006040600073c26255d9fcf9d7d38d2734cd4e980b8c00eceef662061ad0fa50600160035500",
                "storage": {}
            },
            "0x142cc6371ac4a38c018d3d1fda49a9327d8b0b45": {
                "nonce": "0x00",
                "balance": "0x00",
                "code": "0x604060006040600073c26255d9fcf9d7d38d2734cd4e980b8c00eceef662061ad0fa505b61c3506080511015603f5760013b506001608051016080526023565b00",
                "storage": {}
            },
            "0xf1f083974fd68b961e68130c27fc5ef37b49c1df": {
                "nonce": "0x00",
                "balance": "0x0de0b6b3a7640000",
                "code": "0x604060006040600060003562092856fa600055600160015500",
                "storage": {}
            }
        },
        "postState": {
            "0x000f3df6d732807ef1319fb7b8bb8522d0beac02": {
                "nonce": "0x01",
                "balance": "0x00",
                "code": "0x3373fffffffffffffffffffffffffffffffffffffffe14604d57602036146024575f5ffd5b5f35801560495762001fff810690815414603c575f5ffd5b62001fff01545f5260205ff35b5f5ffd5b62001fff42064281555f359062001fff015500",
                "storage": {
                    "0x03e8": "0x03e8"
                }
            },
            "0xebaf50debf10e08302fe4280c32df010463ca297": {
                "nonce": "0x01",
                "balance": "0x0de0b6b3a7010dc4",
                "code": "0x",
                "storage": {}
            },
            "0x335c5531b84765a7626e6e76688f18b81be5259c": {
                "nonce": "0x00",
                "balance": "0x00",
                "code": "0x600160035200",
                "storage": {}
            },
            "0xc26255d9fcf9d7d38d2734cd4e980b8c00eceef6": {
                "nonce": "0x00",
                "balance": "0x00",
                "code": "0x6040600060406000600073335c5531b84765a7626e6e76688f18b81be5259c6201d4d4f200",
                "storage": {}
            },
            "0x171a4477dfe54503dd5f21daf90429fd2f22d654": {
                "nonce": "0x00",
                "balance": "0x00",
                "code": "0x604060006040600073c26255d9fcf9d7d38d2734cd4e980b8c00eceef662061ad0fa50600160035500",
                "storage": {}
            },
            "0x142cc6371ac4a38c018d3d1fda49a9327d8b0b45": {
                "nonce": "0x00",
                "balance": "0x00",
                "code": "0x604060006040600073c26255d9fcf9d7d38d2734cd4e980b8c00eceef662061ad0fa505b61c3506080511015603f5760013b506001608051016080526023565b00",
                "storage": {}
            },
            "0xf1f083974fd68b961e68130c27fc5ef37b49c1df": {
                "nonce": "0x00",
                "balance": "0x0de0b6b3a7640000",
                "code": "0x604060006040600060003562092856fa600055600160015500",
                "storage": {
                    "0x01": "0x01"
                }
            }
        },
        "lastblockhash": "0x29d77131051ac1396855880e882bfaa05d5a9e8e2072ef2ae2d4d3e2b4d28984",
        "config": {
            "network": "Cancun",
            "chainid": "0x01",
            "blobSchedule": {
                "Cancun": {
                    "target": "0x03",
                    "max": "0x06",
                    "baseFeeUpdateFraction": "0x32f0ed"
                }
            }
        },
        "genesisRLP": "0xf9023cf90236a00000000000000000000000000000000000000000000000000000000000000000a01dcc4de8dec75d7aab85b567b6ccd41ad312451b948a7413f0a142fd40d49347940000000000000000000000000000000000000000a0a19bd17269bc15ce40bb945b749a08dba16a230f202be862799a97826fbb8473a056e81f171bcc55a6ff8345e692c0f86e5b48e01b996cadc001622fb5e363b421a056e81f171bcc55a6ff8345e692c0f86e5b48e01b996cadc001622fb5e363b421b901000000000000000000000000000000000000000000000000000000000000000000000000000000000000000000000000000000000000000000000000000000000000000000000000000000000000000000000000000000000000000000000000000000000000000000000000000000000000000000000000000000000000000000000000000000000000000000000000000000000000000000000000000000000000000000000000000000000000000000000000000000000000000000000000000000000000000000000000000000000000000000000000000000000000000000000000000000000000000000000000000000000000000000000000000000000080808401c9c380808000a000000000000000000000000000000000000000000000000000000000000000008800000000000000000ba056e81f171bcc55a6ff8345e692c0f86e5b48e01b996cadc001622fb5e363b4218080a00000000000000000000000000000000000000000000000000000000000000000c0c0c0",
        "blocks": [
            {
                "blockHeader": {
                    "parentHash": "0x80c1bb4c7192c7e84ca4b67474c356231321fd5744efa59e55b27e6f46e2f768",
                    "uncleHash": "0x1dcc4de8dec75d7aab85b567b6ccd41ad312451b948a7413f0a142fd40d49347",
                    "coinbase": "0x2adc25665018aa1fe0e6bc666dac8fc2697ff9ba",
                    "stateRoot": "0xd48b736c98b49b8a4b0f27f5f67f1def9e0a348dbf331f18e06249ee9f57b8fc",
                    "transactionsTrie": "0x88ca7c23e565de03ac291a1b5bebabe47a8afa186eca8204fff75db20acf9f5f",
                    "receiptTrie": "0x990e5496f0fbbdc8a4fb382c442d5903455c79f8fc923d82e339edc601df1862",
                    "bloom": "0x00000000000000000000000000000000000000000000000000000000000000000000000000000000000000000000000000000000000000000000000000000000000000000000000000000000000000000000000000000000000000000000000000000000000000000000000000000000000000000000000000000000000000000000000000000000000000000000000000000000000000000000000000000000000000000000000000000000000000000000000000000000000000000000000000000000000000000000000000000000000000000000000000000000000000000000000000000000000000000000000000000000000000000000000000000000",
                    "difficulty": "0x00",
                    "number": "0x01",
                    "gasLimit": "0x01c9c380",
                    "gasUsed": "0x09e506",
                    "timestamp": "0x03e8",
                    "extraData": "0x00",
                    "mixHash": "0x0000000000000000000000000000000000000000000000000000000000020000",
                    "nonce": "0x0000000000000000",
                    "baseFeePerGas": "0x0a",
                    "withdrawalsRoot": "0x56e81f171bcc55a6ff8345e692c0f86e5b48e01b996cadc001622fb5e363b421",
                    "blobGasUsed": "0x00",
                    "excessBlobGas": "0x00",
                    "parentBeaconBlockRoot": "0x0000000000000000000000000000000000000000000000000000000000000000",
                    "hash": "0x29d77131051ac1396855880e882bfaa05d5a9e8e2072ef2ae2d4d3e2b4d28984"
                },
                "transactions": [
                    {
                        "type": "0x00",
                        "chainId": "0x01",
                        "nonce": "0x00",
                        "gasPrice": "0x0a",
                        "gasLimit": "0x1a3ec0",
                        "to": "0xf1f083974fd68b961e68130c27fc5ef37b49c1df",
                        "value": "0x00",
                        "data": "0x000000000000000000000000142cc6371ac4a38c018d3d1fda49a9327d8b0b45",
                        "v": "0x26",
                        "r": "0x25249fb8fe57bf72e7a038b76975d819b102a5b830d50896b47f4c4e92721439",
                        "s": "0x12f4162741b5a881c830311d60f0a432d128ff5af76d0e2a4738731b2a21b76b",
                        "sender": "0xebaf50debf10e08302fe4280c32df010463ca297"
                    }
                ],
                "uncleHeaders": [],
                "withdrawals": [],
                "receipts": [
                    {
                        "transactionHash": "0xb0f3eaffe725dcce5cb48a7eb8cf43bece1c3c5807d289b02cb00ebc409d440b",
                        "type": "0x00",
                        "cumulativeGasUsed": "0x09e506",
                        "bloom": "0x00000000000000000000000000000000000000000000000000000000000000000000000000000000000000000000000000000000000000000000000000000000000000000000000000000000000000000000000000000000000000000000000000000000000000000000000000000000000000000000000000000000000000000000000000000000000000000000000000000000000000000000000000000000000000000000000000000000000000000000000000000000000000000000000000000000000000000000000000000000000000000000000000000000000000000000000000000000000000000000000000000000000000000000000000000000",
                        "logs": [],
                        "status": true,
                        "rlp": "0xf90109018309e506b9010000000000000000000000000000000000000000000000000000000000000000000000000000000000000000000000000000000000000000000000000000000000000000000000000000000000000000000000000000000000000000000000000000000000000000000000000000000000000000000000000000000000000000000000000000000000000000000000000000000000000000000000000000000000000000000000000000000000000000000000000000000000000000000000000000000000000000000000000000000000000000000000000000000000000000000000000000000000000000000000000000000000000000000000000000000000c0"
                    }
                ],
                "rlp": "0xf902c4f9023ba080c1bb4c7192c7e84ca4b67474c356231321fd5744efa59e55b27e6f46e2f768a01dcc4de8dec75d7aab85b567b6ccd41ad312451b948a7413f0a142fd40d49347942adc25665018aa1fe0e6bc666dac8fc2697ff9baa0d48b736c98b49b8a4b0f27f5f67f1def9e0a348dbf331f18e06249ee9f57b8fca088ca7c23e565de03ac291a1b5bebabe47a8afa186eca8204fff75db20acf9f5fa0990e5496f0fbbdc8a4fb382c442d5903455c79f8fc923d82e339edc601df1862b901000000000000000000000000000000000000000000000000000000000000000000000000000000000000000000000000000000000000000000000000000000000000000000000000000000000000000000000000000000000000000000000000000000000000000000000000000000000000000000000000000000000000000000000000000000000000000000000000000000000000000000000000000000000000000000000000000000000000000000000000000000000000000000000000000000000000000000000000000000000000000000000000000000000000000000000000000000000000000000000000000000000000000000000000000000000080018401c9c3808309e5068203e800a000000000000000000000000000000000000000000000000000000000000200008800000000000000000aa056e81f171bcc55a6ff8345e692c0f86e5b48e01b996cadc001622fb5e363b4218080a00000000000000000000000000000000000000000000000000000000000000000f882f880800a831a3ec094f1f083974fd68b961e68130c27fc5ef37b49c1df80a0000000000000000000000000142cc6371ac4a38c018d3d1fda49a9327d8b0b4526a025249fb8fe57bf72e7a038b76975d819b102a5b830d50896b47f4c4e92721439a012f4162741b5a881c830311d60f0a432d128ff5af76d0e2a4738731b2a21b76bc0c0",
                "blocknumber": "1"
            }
        ],
        "sealEngine": "NoProof",
        "_info": {
            "hash": "0x652249182dd426b48b3b51812e86c06183a359e854bc62d394518aa590a029ea",
            "fixture-format": "blockchain_test",
            "comment": "`execution-specs` generated test",
            "filling-transition-tool": "2.19.0",
            "description": "No description available - add a docstring to the python test class or function.",
            "url": "",
            "opcode_count": {}
        }
    }
}