{
    "tests/static/state_tests/stStaticCall/static_callChangeRevertFiller.json::static_callChangeRevert[fork_Cancun-blockchain_test_from_state_test-d0]": {
        "network": "Cancun",
        "genesisBlockHeader": {
            "parentHash": "0x0000000000000000000000000000000000000000000000000000000000000000",
            "uncleHash": "0x1dcc4de8dec75d7aab85b567b6ccd41ad312451b948a7413f0a142fd40d49347",
            "coinbase": "0x0000000000000000000000000000000000000000",
            "stateRoot": "0xdf46396866885dc91e395588c1cc5d57766705558a7d29df1ce42ae07bae7bdb",
            "transactionsTrie": "0x56e81f171bcc55a6ff8345e692c0f86e5b48e01b996cadc001622fb5e363b421",
            "receiptTrie": "0x56e81f171bcc55a6ff8345e692c0f86e5b48e01b996cadc001622fb5e363b421",
            "bloom": "0x00000000000000000000000000000000000000000000000000000000000000000000000000000000000000000000000000000000000000000000000000000000000000000000000000000000000000000000000000000000000000000000000000000000000000000000000000000000000000000000000000000000000000000000000000000000000000000000000000000000000000000000000000000000000000000000000000000000000000000000000000000000000000000000000000000000000000000000000000000000000000000000000000000000000000000000000000000000000000000000000000000000000000000000000000000000",
            "difficulty": "0x00",
            "number": "0x00",
            "gasLimit": "0x989680",
            "gasUsed": "0x00",
            "timestamp": "0x00",
            "extraData": "0x00",
            "mixHash": "0x0000000000000000000000000000000000000000000000000000000000000000",
            "nonce": "0x0000000000000000",
            "baseFeePerGas": "0x0b",
            "withdrawalsRoot": "0x56e81f171bcc55a6ff8345e692c0f86e5b48e01b996cadc001622fb5e363b421",
            "blobGasUsed": "0x00",
            "excessBlobGas": "0x00",
            "parentBeaconBlockRoot": "0x0000000000000000000000000000000000000000000000000000000000000000",
            "hash": "0x2ccb6032465e5d2f3e6ea44a1f467558895a7a09063d6a6ad33328b762a9269c"
        },
        "pre": {
            "0x000f3df6d732807ef1319fb7b8bb8522d0beac02": {
                "nonce": "0x01",
                "balance": "0x00",
                "code": "0x3373fffffffffffffffffffffffffffffffffffffffe14604d57602036146024575f5ffd5b5f35801560495762001fff810690815414603c575f5ffd5b62001fff01545f5260205ff35b5f5ffd5b62001fff42064281555f359062001fff015500",
                "storage": {}
            },
            "0xebaf50debf10e08302fe4280c32df010463ca297": {
                "nonce": "0x00",
                "balance": "0x0de0b6b3a7640000",
                "code": "0x",
                "storage": {}
            },
            "0x47c4ed3d93429cb8304737e2327b522e8928c9f3": {
                "nonce": "0x00",
                "balance": "0x00",
                "code": "0x600160015260015460015500",
                "storage": {}
            },
            "0x2c004389edaae817e664b6d660f46735756b56d3": {
                "nonce": "0x00",
                "balance": "0x0de0b6b3a7640000",
                "code": "0x600060006000600060017347c4ed3d93429cb8304737e2327b522e8928c9f3620186a0f160005560006000600060007347c4ed3d93429cb8304737e2327b522e8928c9f3620186a0fa600155600060006000600060017347c4ed3d93429cb8304737e2327b522e8928c9f3620186a0f160025500",
                "storage": {}
            },
            "0xc031fc0aa7b61a5d7d962afee8838dec6948abb7": {
                "nonce": "0x00",
                "balance": "0x00",
                "code": "0x600160015200",
                "storage": {}
            },
            "0xea22ec955ac71d8e4380541212bd20818d704567": {
                "nonce": "0x00",
                "balance": "0x0de0b6b3a7640000",
                "code": "0x6000600060006000600173c031fc0aa7b61a5d7d962afee8838dec6948abb7620186a0f1600055600060006000600073c031fc0aa7b61a5d7d962afee8838dec6948abb7620186a0fa6001556000600060006000600173c031fc0aa7b61a5d7d962afee8838dec6948abb7620186a0f16002555b61c3506080511015608f5760013b506001608051016080526073565b00",
                "storage": {}
            },
            "0xe6f1fdaa1c99007971c641e10af3a8fac0b641c8": {
                "nonce": "0x00",
                "balance": "0x0de0b6b3a7640000",
                "code": "0x6000600060006000600173c031fc0aa7b61a5d7d962afee8838dec6948abb7620186a0f1600055600060006000600073c031fc0aa7b61a5d7d962afee8838dec6948abb7620186a0fa6001556000600060006000600173c031fc0aa7b61a5d7d962afee8838dec6948abb7620186a0f160025500",
                "storage": {}
            },
            "0x492bb18adce7da2bed3592742fb4e3df9086fb4c": {
                "nonce": "0x00",
                "balance": "0x0de0b6b3a7640000",
                "code": "0x6000600060006000600060003562055730f100",
                "storage": {}
            }
        },
        "postState": {
            "0x000f3df6d732807ef1319fb7b8bb8522d0beac02": {
                "nonce": "0x01",
                "balance": "0x00",
                "code": "0x3373fffffffffffffffffffffffffffffffffffffffe14604d57602036146024575f5ffd5b5f35801560495762001fff810690815414603c575f5ffd5b62001fff01545f5260205ff35b5f5ffd5b62001fff42064281555f359062001fff015500",
                "storage": {
                    "0x03e8": "0x03e8"
                }
            },
            "0xebaf50debf10e08302fe4280c32df010463ca297": {
                "nonce": "0x01",
                "balance": "0x0de0b6b3a752358c",
                "code": "0x",
                "storage": {}
            },
            "0x47c4ed3d93429cb8304737e2327b522e8928c9f3": {
                "nonce": "0x00",
                "balance": "0x00",
                "code": "0x600160015260015460015500",
                "storage": {}
            },
            "0x2c004389edaae817e664b6d660f46735756b56d3": {
                "nonce": "0x00",
                "balance": "0x0de0b6b3a7640000",
                "code": "0x600060006000600060017347c4ed3d93429cb8304737e2327b522e8928c9f3620186a0f160005560006000600060007347c4ed3d93429cb8304737e2327b522e8928c9f3620186a0fa600155600060006000600060017347c4ed3d93429cb8304737e2327b522e8928c9f3620186a0f160025500",
                "storage": {}
            },
            "0xc031fc0aa7b61a5d7d962afee8838dec6948abb7": {
                "nonce": "0x00",
                "balance": "0x02",
                "code": "0x600160015200",
                "storage": {}
            },
            "0xea22ec955ac71d8e4380541212bd20818d704567": {
                "nonce": "0x00",
                "balance": "0x0de0b6b3a7640000",
                "code": "0x6000600060006000600173c031fc0aa7b61a5d7d962afee8838dec6948abb7620186a0f1600055600060006000600073c031fc0aa7b61a5d7d962afee8838dec6948abb7620186a0fa6001556000600060006000600173c031fc0aa7b61a5d7d962afee8838dec6948abb7620186a0f16002555b61c3506080511015608f5760013b506001608051016080526073565b00",
                "storage": {}
            },
            "0xe6f1fdaa1c99007971c641e10af3a8fac0b641c8": {
                "nonce": "0x00",
                "balance": "0x0de0b6b3a763fffe",
                "code": "0x6000600060006000600173c031fc0aa7b61a5d7d962afee8838dec6948abb7620186a0f1600055600060006000600073c031fc0aa7b61a5d7d962afee8838dec6948abb7620186a0fa6001556000600060006000600173c031fc0aa7b61a5d7d962afee8838dec6948abb7620186a0f160025500",
                "storage": {
                    "0x00": "0x01",
                    "0x01": "0x01",
                    "0x02": "0x01"
                }
            },
            "0x492bb18adce7da2bed3592742fb4e3df9086fb4c": {
                "nonce": "0x00",
                "balance": "0x0de0b6b3a76586a0",
                "code": "0x6000600060006000600060003562055730f100",
                "storage": {}
            }
        },
        "lastblockhash": "0xdea2ceef5ed13dc89872f0577d8662e895bc5ddac5048fedd74a3d5e0ed1c23d",
        "config": {
            "network": "Cancun",
            "chainid": "0x01",
            "blobSchedule": {
                "Cancun": {
                    "target": "0x03",
                    "max": "0x06",
                    "baseFeeUpdateFraction": "0x32f0ed"
                }
            }
        },
        "genesisRLP": "0xf9023bf90235a00000000000000000000000000000000000000000000000000000000000000000a01dcc4de8dec75d7aab85b567b6ccd41ad312451b948a7413f0a142fd40d49347940000000000000000000000000000000000000000a0df46396866885dc91e395588c1cc5d57766705558a7d29df1ce42ae07bae7bdba056e81f171bcc55a6ff8345e692c0f86e5b48e01b996cadc001622fb5e363b421a056e81f171bcc55a6ff8345e692c0f86e5b48e01b996cadc001622fb5e363b421b9010000000000000000000000000000000000000000000000000000000000000000000000000000000000000000000000000000000000000000000000000000000000000000000000000000000000000000000000000000000000000000000000000000000000000000000000000000000000000000000000000000000000000000000000000000000000000000000000000000000000000000000000000000000000000000000000000000000000000000000000000000000000000000000000000000000000000000000000000000000000000000000000000000000000000000000000000000000000000000000000000000000000000000000000000000000000808083989680808000a000000000000000000000000000000000000000000000000000000000000000008800000000000000000ba056e81f171bcc55a6ff8345e692c0f86e5b48e01b996cadc001622fb5e363b4218080a00000000000000000000000000000000000000000000000000000000000000000c0c0c0",
        "blocks": [
            {
                "blockHeader": {
                    "parentHash": "0x2ccb6032465e5d2f3e6ea44a1f467558895a7a09063d6a6ad33328b762a9269c",
                    "uncleHash": "0x1dcc4de8dec75d7aab85b567b6ccd41ad312451b948a7413f0a142fd40d49347",
                    "coinbase": "0x2adc25665018aa1fe0e6bc666dac8fc2697ff9ba",
                    "stateRoot": "0x8f5d12c97419b3f101384e9cc9f8f0ffaab27b7906c1731163d32a234c57cce8",
                    "transactionsTrie": "0x27278d48839a026e337291e52814424a2ff39981327a44191b1cb20ea9e76c7b",
                    "receiptTrie": "0x3d767d1dc0935b674917e5785df1b14537e52927387d8f28850f58837b544d13",
                    "bloom": "0x00000000000000000000000000000000000000000000000000000000000000000000000000000000000000000000000000000000000000000000000000000000000000000000000000000000000000000000000000000000000000000000000000000000000000000000000000000000000000000000000000000000000000000000000000000000000000000000000000000000000000000000000000000000000000000000000000000000000000000000000000000000000000000000000000000000000000000000000000000000000000000000000000000000000000000000000000000000000000000000000000000000000000000000000000000000",
                    "difficulty": "0x00",
                    "number": "0x01",
                    "gasLimit": "0x989680",
                    "gasUsed": "0x01a062",
                    "timestamp": "0x03e8",
                    "extraData": "0x00",
                    "mixHash": "0x0000000000000000000000000000000000000000000000000000000000020000",
                    "nonce": "0x0000000000000000",
                    "baseFeePerGas": "0x0a",
                    "withdrawalsRoot": "0x56e81f171bcc55a6ff8345e692c0f86e5b48e01b996cadc001622fb5e363b421",
                    "blobGasUsed": "0x00",
                    "excessBlobGas": "0x00",
                    "parentBeaconBlockRoot": "0x0000000000000000000000000000000000000000000000000000000000000000",
                    "hash": "0xdea2ceef5ed13dc89872f0577d8662e895bc5ddac5048fedd74a3d5e0ed1c23d"
                },
                "transactions": [
                    {
                        "type": "0x00",
                        "chainId": "0x01",
                        "nonce": "0x00",
                        "gasPrice": "0x0a",
                        "gasLimit": "0x0f4240",
                        "to": "0x492bb18adce7da2bed3592742fb4e3df9086fb4c",
                        "value": "0x0186a0",
                        "data": "0x000000000000000000000000e6f1fdaa1c99007971c641e10af3a8fac0b641c8",
                        "v": "0x25",
                        "r": "0xc94ad6426bc70992e1886d34ae5e8df5468a91c20211280da74107d5dab72ef0",
                        "s": "0x0ffd8a315cd89092d992ead068d05f33e3b29e0eec4e0dbb748244bada622bd0",
                        "sender": "0xebaf50debf10e08302fe4280c32df010463ca297"
                    }
                ],
                "uncleHeaders": [],
                "withdrawals": [],
                "receipts": [
                    {
                        "transactionHash": "0x5cf68093749d7f94597fb01e102d7e9d94cc2dce4d9a8fe876812d3671e1574c",
                        "type": "0x00",
                        "cumulativeGasUsed": "0x01a062",
                        "bloom": "0x00000000000000000000000000000000000000000000000000000000000000000000000000000000000000000000000000000000000000000000000000000000000000000000000000000000000000000000000000000000000000000000000000000000000000000000000000000000000000000000000000000000000000000000000000000000000000000000000000000000000000000000000000000000000000000000000000000000000000000000000000000000000000000000000000000000000000000000000000000000000000000000000000000000000000000000000000000000000000000000000000000000000000000000000000000000",
                        "logs": [],
                        "status": true,
                        "rlp": "0xf90109018301a062b9010000000000000000000000000000000000000000000000000000000000000000000000000000000000000000000000000000000000000000000000000000000000000000000000000000000000000000000000000000000000000000000000000000000000000000000000000000000000000000000000000000000000000000000000000000000000000000000000000000000000000000000000000000000000000000000000000000000000000000000000000000000000000000000000000000000000000000000000000000000000000000000000000000000000000000000000000000000000000000000000000000000000000000000000000000000000c0"
                    }
                ],
                "rlp": "0xf902c6f9023aa02ccb6032465e5d2f3e6ea44a1f467558895a7a09063d6a6ad33328b762a9269ca01dcc4de8dec75d7aab85b567b6ccd41ad312451b948a7413f0a142fd40d49347942adc25665018aa1fe0e6bc666dac8fc2697ff9baa08f5d12c97419b3f101384e9cc9f8f0ffaab27b7906c1731163d32a234c57cce8a027278d48839a026e337291e52814424a2ff39981327a44191b1cb20ea9e76c7ba03d767d1dc0935b674917e5785df1b14537e52927387d8f28850f58837b544d13b90100000000000000000000000000000000000000000000000000000000000000000000000000000000000000000000000000000000000000000000000000000000000000000000000000000000000000000000000000000000000000000000000000000000000000000000000000000000000000000000000000000000000000000000000000000000000000000000000000000000000000000000000000000000000000000000000000000000000000000000000000000000000000000000000000000000000000000000000000000000000000000000000000000000000000000000000000000000000000000000000000000000000000000000000000000000008001839896808301a0628203e800a000000000000000000000000000000000000000000000000000000000000200008800000000000000000aa056e81f171bcc55a6ff8345e692c0f86e5b48e01b996cadc001622fb5e363b4218080a00000000000000000000000000000000000000000000000000000000000000000f885f883800a830f424094492bb18adce7da2bed3592742fb4e3df9086fb4c830186a0a0000000000000000000000000e6f1fdaa1c99007971c641e10af3a8fac0b641c825a0c94ad6426bc70992e1886d34ae5e8df5468a91c20211280da74107d5dab72ef0a00ffd8a315cd89092d992ead068d05f33e3b29e0eec4e0dbb748244bada622bd0c0c0",
                "blocknumber": "1"
            }
        ],
        "sealEngine": "NoProof",
        "_info": {
            "hash": "0xa0415ba78386609aa7890d6b957cd7fe230222810e987903469f01a8363c9917",
            "fixture-format": "blockchain_test",
            "comment": "`execution-specs` generated test",
            "filling-transition-tool": "2.19.0",
            "description": "No description available - add a docstring to the python test class or function.",
            "url": "",
            "opcode_count": {}
        }
    },
    "tests/static/state_tests/stStaticCall/static_callChangeRevertFiller.json::static_callChangeRevert[fork_Cancun-blockchain_test_from_state_test-d1]": {
        "network": "Cancun",
        "genesisBlockHeader": {
            "parentHash": "0x0000000000000000000000000000000000000000000000000000000000000000",
            "uncleHash": "0x1dcc4de8dec75d7aab85b567b6ccd41ad312451b948a7413f0a142fd40d49347",
            "coinbase": "0x0000000000000000000000000000000000000000",
            "stateRoot": "0xdf46396866885dc91e395588c1cc5d57766705558a7d29df1ce42ae07bae7bdb",
            "transactionsTrie": "0x56e81f171bcc55a6ff8345e692c0f86e5b48e01b996cadc001622fb5e363b421",
            "receiptTrie": "0x56e81f171bcc55a6ff8345e692c0f86e5b48e01b996cadc001622fb5e363b421",
            "bloom": "0x00000000000000000000000000000000000000000000000000000000000000000000000000000000000000000000000000000000000000000000000000000000000000000000000000000000000000000000000000000000000000000000000000000000000000000000000000000000000000000000000000000000000000000000000000000000000000000000000000000000000000000000000000000000000000000000000000000000000000000000000000000000000000000000000000000000000000000000000000000000000000000000000000000000000000000000000000000000000000000000000000000000000000000000000000000000",
            "difficulty": "0x00",
            "number": "0x00",
            "gasLimit": "0x989680",
            "gasUsed": "0x00",
            "timestamp": "0x00",
            "extraData": "0x00",
            "mixHash": "0x0000000000000000000000000000000000000000000000000000000000000000",
            "nonce": "0x0000000000000000",
            "baseFeePerGas": "0x0b",
            "withdrawalsRoot": "0x56e81f171bcc55a6ff8345e692c0f86e5b48e01b996cadc001622fb5e363b421",
            "blobGasUsed": "0x00",
            "excessBlobGas": "0x00",
            "parentBeaconBlockRoot": "0x0000000000000000000000000000000000000000000000000000000000000000",
            "hash": "0x2ccb6032465e5d2f3e6ea44a1f467558895a7a09063d6a6ad33328b762a9269c"
        },
        "pre": {
            "0x000f3df6d732807ef1319fb7b8bb8522d0beac02": {
                "nonce": "0x01",
                "balance": "0x00",
                "code": "0x3373fffffffffffffffffffffffffffffffffffffffe14604d57602036146024575f5ffd5b5f35801560495762001fff810690815414603c575f5ffd5b62001fff01545f5260205ff35b5f5ffd5b62001fff42064281555f359062001fff015500",
                "storage": {}
            },
            "0xebaf50debf10e08302fe4280c32df010463ca297": {
                "nonce": "0x00",
                "balance": "0x0de0b6b3a7640000",
                "code": "0x",
                "storage": {}
            },
            "0x47c4ed3d93429cb8304737e2327b522e8928c9f3": {
                "nonce": "0x00",
                "balance": "0x00",
                "code": "0x600160015260015460015500",
                "storage": {}
            },
            "0x2c004389edaae817e664b6d660f46735756b56d3": {
                "nonce": "0x00",
                "balance": "0x0de0b6b3a7640000",
                "code": "0x600060006000600060017347c4ed3d93429cb8304737e2327b522e8928c9f3620186a0f160005560006000600060007347c4ed3d93429cb8304737e2327b522e8928c9f3620186a0fa600155600060006000600060017347c4ed3d93429cb8304737e2327b522e8928c9f3620186a0f160025500",
                "storage": {}
            },
            "0xc031fc0aa7b61a5d7d962afee8838dec6948abb7": {
                "nonce": "0x00",
                "balance": "0x00",
                "code": "0x600160015200",
                "storage": {}
            },
            "0xea22ec955ac71d8e4380541212bd20818d704567": {
                "nonce": "0x00",
                "balance": "0x0de0b6b3a7640000",
                "code": "0x6000600060006000600173c031fc0aa7b61a5d7d962afee8838dec6948abb7620186a0f1600055600060006000600073c031fc0aa7b61a5d7d962afee8838dec6948abb7620186a0fa6001556000600060006000600173c031fc0aa7b61a5d7d962afee8838dec6948abb7620186a0f16002555b61c3506080511015608f5760013b506001608051016080526073565b00",
                "storage": {}
            },
            "0xe6f1fdaa1c99007971c641e10af3a8fac0b641c8": {
                "nonce": "0x00",
                "balance": "0x0de0b6b3a7640000",
                "code": "0x6000600060006000600173c031fc0aa7b61a5d7d962afee8838dec6948abb7620186a0f1600055600060006000600073c031fc0aa7b61a5d7d962afee8838dec6948abb7620186a0fa6001556000600060006000600173c031fc0aa7b61a5d7d962afee8838dec6948abb7620186a0f160025500",
                "storage": {}
            },
            "0x492bb18adce7da2bed3592742fb4e3df9086fb4c": {
                "nonce": "0x00",
                "balance": "0x0de0b6b3a7640000",
                "code": "0x6000600060006000600060003562055730f100",
                "storage": {}
            }
        },
        "postState": {
            "0x000f3df6d732807ef1319fb7b8bb8522d0beac02": {
                "nonce": "0x01",
                "balance": "0x00",
                "code": "0x3373fffffffffffffffffffffffffffffffffffffffe14604d57602036146024575f5ffd5b5f35801560495762001fff810690815414603c575f5ffd5b62001fff01545f5260205ff35b5f5ffd5b62001fff42064281555f359062001fff015500",
                "storage": {
                    "0x03e8": "0x03e8"
                }
            },
            "0xebaf50debf10e08302fe4280c32df010463ca297": {
                "nonce": "0x01",
                "balance": "0x0de0b6b3a7296850",
                "code": "0x",
                "storage": {}
            },
            "0x47c4ed3d93429cb8304737e2327b522e8928c9f3": {
                "nonce": "0x00",
                "balance": "0x00",
                "code": "0x600160015260015460015500",
                "storage": {}
            },
            "0x2c004389edaae817e664b6d660f46735756b56d3": {
                "nonce": "0x00",
                "balance": "0x0de0b6b3a7640000",
                "code": "0x600060006000600060017347c4ed3d93429cb8304737e2327b522e8928c9f3620186a0f160005560006000600060007347c4ed3d93429cb8304737e2327b522e8928c9f3620186a0fa600155600060006000600060017347c4ed3d93429cb8304737e2327b522e8928c9f3620186a0f160025500",
                "storage": {}
            },
            "0xc031fc0aa7b61a5d7d962afee8838dec6948abb7": {
                "nonce": "0x00",
                "balance": "0x00",
                "code": "0x600160015200",
                "storage": {}
            },
            "0xea22ec955ac71d8e4380541212bd20818d704567": {
                "nonce": "0x00",
                "balance": "0x0de0b6b3a7640000",
                "code": "0x6000600060006000600173c031fc0aa7b61a5d7d962afee8838dec6948abb7620186a0f1600055600060006000600073c031fc0aa7b61a5d7d962afee8838dec6948abb7620186a0fa6001556000600060006000600173c031fc0aa7b61a5d7d962afee8838dec6948abb7620186a0f16002555b61c3506080511015608f5760013b506001608051016080526073565b00",
                "storage": {}
            },
            "0xe6f1fdaa1c99007971c641e10af3a8fac0b641c8": {
                "nonce": "0x00",
                "balance": "0x0de0b6b3a7640000",
                "code": "0x6000600060006000600173c031fc0aa7b61a5d7d962afee8838dec6948abb7620186a0f1600055600060006000600073c031fc0aa7b61a5d7d962afee8838dec6948abb7620186a0fa6001556000600060006000600173c031fc0aa7b61a5d7d962afee8838dec6948abb7620186a0f160025500",
                "storage": {}
            },
            "0x492bb18adce7da2bed3592742fb4e3df9086fb4c": {
                "nonce": "0x00",
                "balance": "0x0de0b6b3a76586a0",
                "code": "0x6000600060006000600060003562055730f100",
                "storage": {}
            }
        },
        "lastblockhash": "0x988032a5b6011568e3cc7887eb6c9e03099ec7e06ede5a6efac63e0ea9e8ecc7",
        "config": {
            "network": "Cancun",
            "chainid": "0x01",
            "blobSchedule": {
                "Cancun": {
                    "target": "0x03",
                    "max": "0x06",
                    "baseFeeUpdateFraction": "0x32f0ed"
                }
            }
        },
        "genesisRLP": "0xf9023bf90235a00000000000000000000000000000000000000000000000000000000000000000a01dcc4de8dec75d7aab85b567b6ccd41ad312451b948a7413f0a142fd40d49347940000000000000000000000000000000000000000a0df46396866885dc91e395588c1cc5d57766705558a7d29df1ce42ae07bae7bdba056e81f171bcc55a6ff8345e692c0f86e5b48e01b996cadc001622fb5e363b421a056e81f171bcc55a6ff8345e692c0f86e5b48e01b996cadc001622fb5e363b421b9010000000000000000000000000000000000000000000000000000000000000000000000000000000000000000000000000000000000000000000000000000000000000000000000000000000000000000000000000000000000000000000000000000000000000000000000000000000000000000000000000000000000000000000000000000000000000000000000000000000000000000000000000000000000000000000000000000000000000000000000000000000000000000000000000000000000000000000000000000000000000000000000000000000000000000000000000000000000000000000000000000000000000000000000000000000000808083989680808000a000000000000000000000000000000000000000000000000000000000000000008800000000000000000ba056e81f171bcc55a6ff8345e692c0f86e5b48e01b996cadc001622fb5e363b4218080a00000000000000000000000000000000000000000000000000000000000000000c0c0c0",
        "blocks": [
            {
                "blockHeader": {
                    "parentHash": "0x2ccb6032465e5d2f3e6ea44a1f467558895a7a09063d6a6ad33328b762a9269c",
                    "uncleHash": "0x1dcc4de8dec75d7aab85b567b6ccd41ad312451b948a7413f0a142fd40d49347",
                    "coinbase": "0x2adc25665018aa1fe0e6bc666dac8fc2697ff9ba",
                    "stateRoot": "0xae707b958e5229a7b7c39a4a2c7f69fc256cf4ca815a88a8dd02b026497b4789",
                    "transactionsTrie": "0x8b1832a8be88d361a78341f8be140d8c960e309bcb95f7de0299781c806d98af",
                    "receiptTrie": "0x74e9ef1a80171fc48043035d7d97052c17a20e51e2ad95b2f3746ac065a0a3f4",
                    "bloom": "0x00000000000000000000000000000000000000000000000000000000000000000000000000000000000000000000000000000000000000000000000000000000000000000000000000000000000000000000000000000000000000000000000000000000000000000000000000000000000000000000000000000000000000000000000000000000000000000000000000000000000000000000000000000000000000000000000000000000000000000000000000000000000000000000000000000000000000000000000000000000000000000000000000000000000000000000000000000000000000000000000000000000000000000000000000000000",
                    "difficulty": "0x00",
                    "number": "0x01",
                    "gasLimit": "0x989680",
                    "gasUsed": "0x05b4e8",
                    "timestamp": "0x03e8",
                    "extraData": "0x00",
                    "mixHash": "0x0000000000000000000000000000000000000000000000000000000000020000",
                    "nonce": "0x0000000000000000",
                    "baseFeePerGas": "0x0a",
                    "withdrawalsRoot": "0x56e81f171bcc55a6ff8345e692c0f86e5b48e01b996cadc001622fb5e363b421",
                    "blobGasUsed": "0x00",
                    "excessBlobGas": "0x00",
                    "parentBeaconBlockRoot": "0x0000000000000000000000000000000000000000000000000000000000000000",
                    "hash": "0x988032a5b6011568e3cc7887eb6c9e03099ec7e06ede5a6efac63e0ea9e8ecc7"
                },
                "transactions": [
                    {
                        "type": "0x00",
                        "chainId": "0x01",
                        "nonce": "0x00",
                        "gasPrice": "0x0a",
                        "gasLimit": "0x0f4240",
                        "to": "0x492bb18adce7da2bed3592742fb4e3df9086fb4c",
                        "value": "0x0186a0",
                        "data": "0x000000000000000000000000ea22ec955ac71d8e4380541212bd20818d704567",
                        "v": "0x25",
                        "r": "0x527c14ea94313c13f51db3ab339376fcff194b7f8d8b7f409cb0829d93f45342",
                        "s": "0x3ad72a523ca0407171f485d0699b36f723bc6328b38baefdc93e84958b695499",
                        "sender": "0xebaf50debf10e08302fe4280c32df010463ca297"
                    }
                ],
                "uncleHeaders": [],
                "withdrawals": [],
                "receipts": [
                    {
                        "transactionHash": "0x9f408e73ae840d7da1344e19cda662d7b931f548749e583205e9d647a85a414d",
                        "type": "0x00",
                        "cumulativeGasUsed": "0x05b4e8",
                        "bloom": "0x00000000000000000000000000000000000000000000000000000000000000000000000000000000000000000000000000000000000000000000000000000000000000000000000000000000000000000000000000000000000000000000000000000000000000000000000000000000000000000000000000000000000000000000000000000000000000000000000000000000000000000000000000000000000000000000000000000000000000000000000000000000000000000000000000000000000000000000000000000000000000000000000000000000000000000000000000000000000000000000000000000000000000000000000000000000",
                        "logs": [],
                        "status": true,
                        "rlp": "0xf90109018305b4e8b9010000000000000000000000000000000000000000000000000000000000000000000000000000000000000000000000000000000000000000000000000000000000000000000000000000000000000000000000000000000000000000000000000000000000000000000000000000000000000000000000000000000000000000000000000000000000000000000000000000000000000000000000000000000000000000000000000000000000000000000000000000000000000000000000000000000000000000000000000000000000000000000000000000000000000000000000000000000000000000000000000000000000000000000000000000000000c0"
                    }
                ],
                "rlp": "0xf902c6f9023aa02ccb6032465e5d2f3e6ea44a1f467558895a7a09063d6a6ad33328b762a9269ca01dcc4de8dec75d7aab85b567b6ccd41ad312451b948a7413f0a142fd40d49347942adc25665018aa1fe0e6bc666dac8fc2697ff9baa0ae707b958e5229a7b7c39a4a2c7f69fc256cf4ca815a88a8dd02b026497b4789a08b1832a8be88d361a78341f8be140d8c960e309bcb95f7de0299781c806d98afa074e9ef1a80171fc48043035d7d97052c17a20e51e2ad95b2f3746ac065a0a3f4b90100000000000000000000000000000000000000000000000000000000000000000000000000000000000000000000000000000000000000000000000000000000000000000000000000000000000000000000000000000000000000000000000000000000000000000000000000000000000000000000000000000000000000000000000000000000000000000000000000000000000000000000000000000000000000000000000000000000000000000000000000000000000000000000000000000000000000000000000000000000000000000000000000000000000000000000000000000000000000000000000000000000000000000000000000000000008001839896808305b4e88203e800a000000000000000000000000000000000000000000000000000000000000200008800000000000000000aa056e81f171bcc55a6ff8345e692c0f86e5b48e01b996cadc001622fb5e363b4218080a00000000000000000000000000000000000000000000000000000000000000000f885f883800a830f424094492bb18adce7da2bed3592742fb4e3df9086fb4c830186a0a0000000000000000000000000ea22ec955ac71d8e4380541212bd20818d70456725a0527c14ea94313c13f51db3ab339376fcff194b7f8d8b7f409cb0829d93f45342a03ad72a523ca0407171f485d0699b36f723bc6328b38baefdc93e84958b695499c0c0",
                "blocknumber": "1"
            }
        ],
        "sealEngine": "NoProof",
        "_info": {
            "hash": "0xbf355f425a74ba6bd9d3e0ddf0ba90f0f2a2ef312943ed535ea27086e36b1ea4",
            "fixture-format": "blockchain_test",
            "comment": "`execution-specs` generated test",
            "filling-transition-tool": "2.19.0",
            "description": "No description available - add a docstring to the python test class or function.",
            "url": "",
            "opcode_count": {}
        }
    },
    "tests/static/state_tests/stStaticCall/static_callChangeRevertFiller.json::static_callChangeRevert[fork_Cancun-blockchain_test_from_state_test-d2]": {
        "network": "Cancun",
        "genesisBlockHeader": {
            "parentHash": "0x0000000000000000000000000000000000000000000000000000000000000000",
            "uncleHash": "0x1dcc4de8dec75d7aab85b567b6ccd41ad312451b948a7413f0a142fd40d49347",
            "coinbase": "0x0000000000000000000000000000000000000000",
            "stateRoot": "0xdf46396866885dc91e395588c1cc5d57766705558a7d29df1ce42ae07bae7bdb",
            "transactionsTrie": "0x56e81f171bcc55a6ff8345e692c0f86e5b48e01b996cadc001622fb5e363b421",
            "receiptTrie": "0x56e81f171bcc55a6ff8345e692c0f86e5b48e01b996cadc001622fb5e363b421",
            "bloom": "0x00000000000000000000000000000000000000000000000000000000000000000000000000000000000000000000000000000000000000000000000000000000000000000000000000000000000000000000000000000000000000000000000000000000000000000000000000000000000000000000000000000000000000000000000000000000000000000000000000000000000000000000000000000000000000000000000000000000000000000000000000000000000000000000000000000000000000000000000000000000000000000000000000000000000000000000000000000000000000000000000000000000000000000000000000000000",
            "difficulty": "0x00",
            "number": "0x00",
            "gasLimit": "0x989680",
            "gasUsed": "0x00",
            "timestamp": "0x00",
            "extraData": "0x00",
            "mixHash": "0x0000000000000000000000000000000000000000000000000000000000000000",
            "nonce": "0x0000000000000000",
            "baseFeePerGas": "0x0b",
            "withdrawalsRoot": "0x56e81f171bcc55a6ff8345e692c0f86e5b48e01b996cadc001622fb5e363b421",
            "blobGasUsed": "0x00",
            "excessBlobGas": "0x00",
            "parentBeaconBlockRoot": "0x0000000000000000000000000000000000000000000000000000000000000000",
            "hash": "0x2ccb6032465e5d2f3e6ea44a1f467558895a7a09063d6a6ad33328b762a9269c"
        },
        "pre": {
            "0x000f3df6d732807ef1319fb7b8bb8522d0beac02": {
                "nonce": "0x01",
                "balance": "0x00",
                "code": "0x3373fffffffffffffffffffffffffffffffffffffffe14604d57602036146024575f5ffd5b5f35801560495762001fff810690815414603c575f5ffd5b62001fff01545f5260205ff35b5f5ffd5b62001fff42064281555f359062001fff015500",
                "storage": {}
            },
            "0xebaf50debf10e08302fe4280c32df010463ca297": {
                "nonce": "0x00",
                "balance": "0x0de0b6b3a7640000",
                "code": "0x",
                "storage": {}
            },
            "0x47c4ed3d93429cb8304737e2327b522e8928c9f3": {
                "nonce": "0x00",
                "balance": "0x00",
                "code": "0x600160015260015460015500",
                "storage": {}
            },
            "0x2c004389edaae817e664b6d660f46735756b56d3": {
                "nonce": "0x00",
                "balance": "0x0de0b6b3a7640000",
                "code": "0x600060006000600060017347c4ed3d93429cb8304737e2327b522e8928c9f3620186a0f160005560006000600060007347c4ed3d93429cb8304737e2327b522e8928c9f3620186a0fa600155600060006000600060017347c4ed3d93429cb8304737e2327b522e8928c9f3620186a0f160025500",
                "storage": {}
            },
            "0xc031fc0aa7b61a5d7d962afee8838dec6948abb7": {
                "nonce": "0x00",
                "balance": "0x00",
                "code": "0x600160015200",
                "storage": {}
            },
            "0xea22ec955ac71d8e4380541212bd20818d704567": {
                "nonce": "0x00",
                "balance": "0x0de0b6b3a7640000",
                "code": "0x6000600060006000600173c031fc0aa7b61a5d7d962afee8838dec6948abb7620186a0f1600055600060006000600073c031fc0aa7b61a5d7d962afee8838dec6948abb7620186a0fa6001556000600060006000600173c031fc0aa7b61a5d7d962afee8838dec6948abb7620186a0f16002555b61c3506080511015608f5760013b506001608051016080526073565b00",
                "storage": {}
            },
            "0xe6f1fdaa1c99007971c641e10af3a8fac0b641c8": {
                "nonce": "0x00",
                "balance": "0x0de0b6b3a7640000",
                "code": "0x6000600060006000600173c031fc0aa7b61a5d7d962afee8838dec6948abb7620186a0f1600055600060006000600073c031fc0aa7b61a5d7d962afee8838dec6948abb7620186a0fa6001556000600060006000600173c031fc0aa7b61a5d7d962afee8838dec6948abb7620186a0f160025500",
                "storage": {}
            },
            "0x492bb18adce7da2bed3592742fb4e3df9086fb4c": {
                "nonce": "0x00",
                "balance": "0x0de0b6b3a7640000",
                "code": "0x6000600060006000600060003562055730f100",
                "storage": {}
            }
        },
        "postState": {
            "0x000f3df6d732807ef1319fb7b8bb8522d0beac02": {
                "nonce": "0x01",
                "balance": "0x00",
                "code": "0x3373fffffffffffffffffffffffffffffffffffffffe14604d57602036146024575f5ffd5b5f35801560495762001fff810690815414603c575f5ffd5b62001fff01545f5260205ff35b5f5ffd5b62001fff42064281555f359062001fff015500",
                "storage": {
                    "0x03e8": "0x03e8"
                }
            },
            "0xebaf50debf10e08302fe4280c32df010463ca297": {
                "nonce": "0x01",
                "balance": "0x0de0b6b3a7459f02",
                "code": "0x",
                "storage": {}
            },
            "0x47c4ed3d93429cb8304737e2327b522e8928c9f3": {
                "nonce": "0x00",
                "balance": "0x02",
                "code": "0x600160015260015460015500",
                "storage": {}
            },
            "0x2c004389edaae817e664b6d660f46735756b56d3": {
                "nonce": "0x00",
                "balance": "0x0de0b6b3a763fffe",
                "code": "0x600060006000600060017347c4ed3d93429cb8304737e2327b522e8928c9f3620186a0f160005560006000600060007347c4ed3d93429cb8304737e2327b522e8928c9f3620186a0fa600155600060006000600060017347c4ed3d93429cb8304737e2327b522e8928c9f3620186a0f160025500",
                "storage": {
                    "0x00": "0x01",
                    "0x02": "0x01"
                }
            },
            "0xc031fc0aa7b61a5d7d962afee8838dec6948abb7": {
                "nonce": "0x00",
                "balance": "0x00",
                "code": "0x600160015200",
                "storage": {}
            },
            "0xea22ec955ac71d8e4380541212bd20818d704567": {
                "nonce": "0x00",
                "balance": "0x0de0b6b3a7640000",
                "code": "0x6000600060006000600173c031fc0aa7b61a5d7d962afee8838dec6948abb7620186a0f1600055600060006000600073c031fc0aa7b61a5d7d962afee8838dec6948abb7620186a0fa6001556000600060006000600173c031fc0aa7b61a5d7d962afee8838dec6948abb7620186a0f16002555b61c3506080511015608f5760013b506001608051016080526073565b00",
                "storage": {}
            },
            "0xe6f1fdaa1c99007971c641e10af3a8fac0b641c8": {
                "nonce": "0x00",
                "balance": "0x0de0b6b3a7640000",
                "code": "0x6000600060006000600173c031fc0aa7b61a5d7d962afee8838dec6948abb7620186a0f1600055600060006000600073c031fc0aa7b61a5d7d962afee8838dec6948abb7620186a0fa6001556000600060006000600173c031fc0aa7b61a5d7d962afee8838dec6948abb7620186a0f160025500",
                "storage": {}
            },
            "0x492bb18adce7da2bed3592742fb4e3df9086fb4c": {
                "nonce": "0x00",
                "balance": "0x0de0b6b3a76586a0",
                "code": "0x6000600060006000600060003562055730f100",
                "storage": {}
            }
        },
        "lastblockhash": "0xb993dc9a3489158f9b595c9c9aad5edd683e74133aa0a825e9a82ac3509ced07",
        "config": {
            "network": "Cancun",
            "chainid": "0x01",
            "blobSchedule": {
                "Cancun": {
                    "target": "0x03",
                    "max": "0x06",
                    "baseFeeUpdateFraction": "0x32f0ed"
                }
            }
        },
        "genesisRLP": "0xf9023bf90235a00000000000000000000000000000000000000000000000000000000000000000a01dcc4de8dec75d7aab85b567b6ccd41ad312451b948a7413f0a142fd40d49347940000000000000000000000000000000000000000a0df46396866885dc91e395588c1cc5d57766705558a7d29df1ce42ae07bae7bdba056e81f171bcc55a6ff8345e692c0f86e5b48e01b996cadc001622fb5e363b421a056e81f171bcc55a6ff8345e692c0f86e5b48e01b996cadc001622fb5e363b421b9010000000000000000000000000000000000000000000000000000000000000000000000000000000000000000000000000000000000000000000000000000000000000000000000000000000000000000000000000000000000000000000000000000000000000000000000000000000000000000000000000000000000000000000000000000000000000000000000000000000000000000000000000000000000000000000000000000000000000000000000000000000000000000000000000000000000000000000000000000000000000000000000000000000000000000000000000000000000000000000000000000000000000000000000000000000000808083989680808000a000000000000000000000000000000000000000000000000000000000000000008800000000000000000ba056e81f171bcc55a6ff8345e692c0f86e5b48e01b996cadc001622fb5e363b4218080a00000000000000000000000000000000000000000000000000000000000000000c0c0c0",
        "blocks": [
            {
                "blockHeader": {
                    "parentHash": "0x2ccb6032465e5d2f3e6ea44a1f467558895a7a09063d6a6ad33328b762a9269c",
                    "uncleHash": "0x1dcc4de8dec75d7aab85b567b6ccd41ad312451b948a7413f0a142fd40d49347",
                    "coinbase": "0x2adc25665018aa1fe0e6bc666dac8fc2697ff9ba",
                    "stateRoot": "0xd01920bd6002b4e8279734028555949f1b72237ad984505b635ecd344c896fd8",
                    "transactionsTrie": "0x78ced8f68b89230574bc6f87fbfaf83cc757e417053323df51fb6560d66972ad",
                    "receiptTrie": "0xb1f51618a3347ffdf7b61380c14a7d2d895fb1e5688791d9f37f6eb6d0040b54",
                    "bloom": "0x00000000000000000000000000000000000000000000000000000000000000000000000000000000000000000000000000000000000000000000000000000000000000000000000000000000000000000000000000000000000000000000000000000000000000000000000000000000000000000000000000000000000000000000000000000000000000000000000000000000000000000000000000000000000000000000000000000000000000000000000000000000000000000000000000000000000000000000000000000000000000000000000000000000000000000000000000000000000000000000000000000000000000000000000000000000",
                    "difficulty": "0x00",
                    "number": "0x01",
                    "gasLimit": "0x989680",
                    "gasUsed": "0x02e2a3",
                    "timestamp": "0x03e8",
                    "extraData": "0x00",
                    "mixHash": "0x0000000000000000000000000000000000000000000000000000000000020000",
                    "nonce": "0x0000000000000000",
                    "baseFeePerGas": "0x0a",
                    "withdrawalsRoot": "0x56e81f171bcc55a6ff8345e692c0f86e5b48e01b996cadc001622fb5e363b421",
                    "blobGasUsed": "0x00",
                    "excessBlobGas": "0x00",
                    "parentBeaconBlockRoot": "0x0000000000000000000000000000000000000000000000000000000000000000",
                    "hash": "0xb993dc9a3489158f9b595c9c9aad5edd683e74133aa0a825e9a82ac3509ced07"
                },
                "transactions": [
                    {
                        "type": "0x00",
                        "chainId": "0x01",
                        "nonce": "0x00",
                        "gasPrice": "0x0a",
                        "gasLimit": "0x0f4240",
                        "to": "0x492bb18adce7da2bed3592742fb4e3df9086fb4c",
                        "value": "0x0186a0",
                        "data": "0x0000000000000000000000002c004389edaae817e664b6d660f46735756b56d3",
                        "v": "0x25",
                        "r": "0xc1db41043ed3c5dc380f528a0fbc8bbd2e86727c9752f04656cf7d1146f3b627",
                        "s": "0x79dcc39d2e47ae66f6cdc5188ebda189c9016b43ccd070ddbd262f5cf5eb68ec",
                        "sender": "0xebaf50debf10e08302fe4280c32df010463ca297"
                    }
                ],
                "uncleHeaders": [],
                "withdrawals": [],
                "receipts": [
                    {
                        "transactionHash": "0x01854b78c03297aeac743ce068840091f4b7677260c64a22d99dccaf152433f0",
                        "type": "0x00",
                        "cumulativeGasUsed": "0x02e2a3",
                        "bloom": "0x00000000000000000000000000000000000000000000000000000000000000000000000000000000000000000000000000000000000000000000000000000000000000000000000000000000000000000000000000000000000000000000000000000000000000000000000000000000000000000000000000000000000000000000000000000000000000000000000000000000000000000000000000000000000000000000000000000000000000000000000000000000000000000000000000000000000000000000000000000000000000000000000000000000000000000000000000000000000000000000000000000000000000000000000000000000",
                        "logs": [],
                        "status": true,
                        "rlp": "0xf90109018302e2a3b9010000000000000000000000000000000000000000000000000000000000000000000000000000000000000000000000000000000000000000000000000000000000000000000000000000000000000000000000000000000000000000000000000000000000000000000000000000000000000000000000000000000000000000000000000000000000000000000000000000000000000000000000000000000000000000000000000000000000000000000000000000000000000000000000000000000000000000000000000000000000000000000000000000000000000000000000000000000000000000000000000000000000000000000000000000000000c0"
                    }
                ],
                "rlp": "0xf902c6f9023aa02ccb6032465e5d2f3e6ea44a1f467558895a7a09063d6a6ad33328b762a9269ca01dcc4de8dec75d7aab85b567b6ccd41ad312451b948a7413f0a142fd40d49347942adc25665018aa1fe0e6bc666dac8fc2697ff9baa0d01920bd6002b4e8279734028555949f1b72237ad984505b635ecd344c896fd8a078ced8f68b89230574bc6f87fbfaf83cc757e417053323df51fb6560d66972ada0b1f51618a3347ffdf7b61380c14a7d2d895fb1e5688791d9f37f6eb6d0040b54b90100000000000000000000000000000000000000000000000000000000000000000000000000000000000000000000000000000000000000000000000000000000000000000000000000000000000000000000000000000000000000000000000000000000000000000000000000000000000000000000000000000000000000000000000000000000000000000000000000000000000000000000000000000000000000000000000000000000000000000000000000000000000000000000000000000000000000000000000000000000000000000000000000000000000000000000000000000000000000000000000000000000000000000000000000000000008001839896808302e2a38203e800a000000000000000000000000000000000000000000000000000000000000200008800000000000000000aa056e81f171bcc55a6ff8345e692c0f86e5b48e01b996cadc001622fb5e363b4218080a00000000000000000000000000000000000000000000000000000000000000000f885f883800a830f424094492bb18adce7da2bed3592742fb4e3df9086fb4c830186a0a00000000000000000000000002c004389edaae817e664b6d660f46735756b56d325a0c1db41043ed3c5dc380f528a0fbc8bbd2e86727c9752f04656cf7d1146f3b627a079dcc39d2e47ae66f6cdc5188ebda189c9016b43ccd070ddbd262f5cf5eb68ecc0c0",
                "blocknumber": "1"
            }
        ],
        "sealEngine": "NoProof",
        "_info": {
            "hash": "0x5fbe7de3151626a129e86c423f82779a38401ff2ec27e9cb60642624f7a06e0d",
            "fixture-format": "blockchain_test",
            "comment": "`execution-specs` generated test",
            "filling-transition-tool": "2.19.0",
            "description": "No description available - add a docstring to the python test class or function.",
            "url": "",
            "opcode_count": {}
        }
    }
}