{
    "tests/static/state_tests/stStaticCall/static_callcallcodecallcode_011_OOGMAfter2Filler.json::static_callcallcodecallcode_011_OOGMAfter2[fork_Cancun-blockchain_test_from_state_test-d0]": {
        "network": "Cancun",
        "genesisBlockHeader": {
            "parentHash": "0x0000000000000000000000000000000000000000000000000000000000000000",
            "uncleHash": "0x1dcc4de8dec75d7aab85b567b6ccd41ad312451b948a7413f0a142fd40d49347",
            "coinbase": "0x0000000000000000000000000000000000000000",
            "stateRoot": "0x01cdacffe40aeaf7c27a0cc41e064b37fe77191e33077d5c73504aa9fe438776",
            "transactionsTrie": "0x56e81f171bcc55a6ff8345e692c0f86e5b48e01b996cadc001622fb5e363b421",
            "receiptTrie": "0x56e81f171bcc55a6ff8345e692c0f86e5b48e01b996cadc001622fb5e363b421",
            "bloom": "0x00000000000000000000000000000000000000000000000000000000000000000000000000000000000000000000000000000000000000000000000000000000000000000000000000000000000000000000000000000000000000000000000000000000000000000000000000000000000000000000000000000000000000000000000000000000000000000000000000000000000000000000000000000000000000000000000000000000000000000000000000000000000000000000000000000000000000000000000000000000000000000000000000000000000000000000000000000000000000000000000000000000000000000000000000000000",
            "difficulty": "0x00",
            "number": "0x00",
            "gasLimit": "0x01c9c380",
            "gasUsed": "0x00",
            "timestamp": "0x00",
            "extraData": "0x00",
            "mixHash": "0x0000000000000000000000000000000000000000000000000000000000000000",
            "nonce": "0x0000000000000000",
            "baseFeePerGas": "0x0b",
            "withdrawalsRoot": "0x56e81f171bcc55a6ff8345e692c0f86e5b48e01b996cadc001622fb5e363b421",
            "blobGasUsed": "0x00",
            "excessBlobGas": "0x00",
            "parentBeaconBlockRoot": "0x0000000000000000000000000000000000000000000000000000000000000000",
            "hash": "0x3c4f8ec8756ba88dafb6e64d55ba60b43f3d4240ecb96c8bb437811db329c0c7"
        },
        "pre": {
            "0x000f3df6d732807ef1319fb7b8bb8522d0beac02": {
                "nonce": "0x01",
                "balance": "0x00",
                "code": "0x3373fffffffffffffffffffffffffffffffffffffffe14604d57602036146024575f5ffd5b5f35801560495762001fff810690815414603c575f5ffd5b62001fff01545f5260205ff35b5f5ffd5b62001fff42064281555f359062001fff015500",
                "storage": {}
            },
            "0xebaf50debf10e08302fe4280c32df010463ca297": {
                "nonce": "0x00",
                "balance": "0x0de0b6b3a7640000",
                "code": "0x",
                "storage": {}
            },
            "0x335c5531b84765a7626e6e76688f18b81be5259c": {
                "nonce": "0x00",
                "balance": "0x00",
                "code": "0x600160035200",
                "storage": {}
            },
            "0x25d69e6a677bd6d872f436bad807c3244a268673": {
                "nonce": "0x00",
                "balance": "0x00",
                "code": "0x6040600060406000600073335c5531b84765a7626e6e76688f18b81be5259c614e34f200",
                "storage": {}
            },
            "0x13a5eb6fc2cf111fba5de5c336a9510e8229a44c": {
                "nonce": "0x00",
                "balance": "0x00",
                "code": "0x604060006040600060007325d69e6a677bd6d872f436bad807c3244a268673619c90f2505b61c350608051101560405760013b506001608051016080526024565b00",
                "storage": {}
            },
            "0x0973e7675ca57f8e6deb10cc07de5d8b53956212": {
                "nonce": "0x00",
                "balance": "0x00",
                "code": "0x604060006040600060007325d69e6a677bd6d872f436bad807c3244a268673619c90f250600160035500",
                "storage": {}
            },
            "0x652a62e8338e91a46aa8387a2c205f35f79347ab": {
                "nonce": "0x00",
                "balance": "0x0de0b6b3a7640000",
                "code": "0x604060006040600060003561eaf6fa600055600160015500",
                "storage": {}
            }
        },
        "postState": {
            "0x000f3df6d732807ef1319fb7b8bb8522d0beac02": {
                "nonce": "0x01",
                "balance": "0x00",
                "code": "0x3373fffffffffffffffffffffffffffffffffffffffe14604d57602036146024575f5ffd5b5f35801560495762001fff810690815414603c575f5ffd5b62001fff01545f5260205ff35b5f5ffd5b62001fff42064281555f359062001fff015500",
                "storage": {
                    "0x03e8": "0x03e8"
                }
            },
            "0xebaf50debf10e08302fe4280c32df010463ca297": {
                "nonce": "0x01",
                "balance": "0x0de0b6b3a7537384",
                "code": "0x",
                "storage": {}
            },
            "0x335c5531b84765a7626e6e76688f18b81be5259c": {
                "nonce": "0x00",
                "balance": "0x00",
                "code": "0x600160035200",
                "storage": {}
            },
            "0x25d69e6a677bd6d872f436bad807c3244a268673": {
                "nonce": "0x00",
                "balance": "0x00",
                "code": "0x6040600060406000600073335c5531b84765a7626e6e76688f18b81be5259c614e34f200",
                "storage": {}
            },
            "0x13a5eb6fc2cf111fba5de5c336a9510e8229a44c": {
                "nonce": "0x00",
                "balance": "0x00",
                "code": "0x604060006040600060007325d69e6a677bd6d872f436bad807c3244a268673619c90f2505b61c350608051101560405760013b506001608051016080526024565b00",
                "storage": {}
            },
            "0x0973e7675ca57f8e6deb10cc07de5d8b53956212": {
                "nonce": "0x00",
                "balance": "0x00",
                "code": "0x604060006040600060007325d69e6a677bd6d872f436bad807c3244a268673619c90f250600160035500",
                "storage": {}
            },
            "0x652a62e8338e91a46aa8387a2c205f35f79347ab": {
                "nonce": "0x00",
                "balance": "0x0de0b6b3a7640000",
                "code": "0x604060006040600060003561eaf6fa600055600160015500",
                "storage": {
                    "0x01": "0x01"
                }
            }
        },
        "lastblockhash": "0xb6ee16e918f2c9549dc91eaa75dceb3457c31a4932534beb8169509d7c2e5f85",
        "config": {
            "network": "Cancun",
            "chainid": "0x01",
            "blobSchedule": {
                "Cancun": {
                    "target": "0x03",
                    "max": "0x06",
                    "baseFeeUpdateFraction": "0x32f0ed"
                }
            }
        },
        "genesisRLP": "0xf9023cf90236a00000000000000000000000000000000000000000000000000000000000000000a01dcc4de8dec75d7aab85b567b6ccd41ad312451b948a7413f0a142fd40d49347940000000000000000000000000000000000000000a001cdacffe40aeaf7c27a0cc41e064b37fe77191e33077d5c73504aa9fe438776a056e81f171bcc55a6ff8345e692c0f86e5b48e01b996cadc001622fb5e363b421a056e81f171bcc55a6ff8345e692c0f86e5b48e01b996cadc001622fb5e363b421b901000000000000000000000000000000000000000000000000000000000000000000000000000000000000000000000000000000000000000000000000000000000000000000000000000000000000000000000000000000000000000000000000000000000000000000000000000000000000000000000000000000000000000000000000000000000000000000000000000000000000000000000000000000000000000000000000000000000000000000000000000000000000000000000000000000000000000000000000000000000000000000000000000000000000000000000000000000000000000000000000000000000000000000000000000000000080808401c9c380808000a000000000000000000000000000000000000000000000000000000000000000008800000000000000000ba056e81f171bcc55a6ff8345e692c0f86e5b48e01b996cadc001622fb5e363b4218080a00000000000000000000000000000000000000000000000000000000000000000c0c0c0",
        "blocks": [
            {
                "blockHeader": {
                    "parentHash": "0x3c4f8ec8756ba88dafb6e64d55ba60b43f3d4240ecb96c8bb437811db329c0c7",
                    "uncleHash": "0x1dcc4de8dec75d7aab85b567b6ccd41ad312451b948a7413f0a142fd40d49347",
                    "coinbase": "0x2adc25665018aa1fe0e6bc666dac8fc2697ff9ba",
                    "stateRoot": "0x272018695e52763eebbf57f084e9c9cde1fdf5bb7f73798528f9ea4d0340587e",
                    "transactionsTrie": "0xbf82d5dea3a5b63736080a82277216729b14beca3bc4a2154b1ae4bf62507f4a",
                    "receiptTrie": "0xac3ca6247e0defbbd30c034fab785140f13cf7b3a04267fa885cd8dc4d7c7c5f",
                    "bloom": "0x00000000000000000000000000000000000000000000000000000000000000000000000000000000000000000000000000000000000000000000000000000000000000000000000000000000000000000000000000000000000000000000000000000000000000000000000000000000000000000000000000000000000000000000000000000000000000000000000000000000000000000000000000000000000000000000000000000000000000000000000000000000000000000000000000000000000000000000000000000000000000000000000000000000000000000000000000000000000000000000000000000000000000000000000000000000",
                    "difficulty": "0x00",
                    "number": "0x01",
                    "gasLimit": "0x01c9c380",
                    "gasUsed": "0x01a7a6",
                    "timestamp": "0x03e8",
                    "extraData": "0x00",
                    "mixHash": "0x0000000000000000000000000000000000000000000000000000000000020000",
                    "nonce": "0x0000000000000000",
                    "baseFeePerGas": "0x0a",
                    "withdrawalsRoot": "0x56e81f171bcc55a6ff8345e692c0f86e5b48e01b996cadc001622fb5e363b421",
                    "blobGasUsed": "0x00",
                    "excessBlobGas": "0x00",
                    "parentBeaconBlockRoot": "0x0000000000000000000000000000000000000000000000000000000000000000",
                    "hash": "0xb6ee16e918f2c9549dc91eaa75dceb3457c31a4932534beb8169509d7c2e5f85"
                },
                "transactions": [
                    {
                        "type": "0x00",
                        "chainId": "0x01",
                        "nonce": "0x00",
                        "gasPrice": "0x0a",
                        "gasLimit": "0x029fe0",
                        "to": "0x652a62e8338e91a46aa8387a2c205f35f79347ab",
                        "value": "0x00",
                        "data": "0x0000000000000000000000000973e7675ca57f8e6deb10cc07de5d8b53956212",
                        "v": "0x26",
                        "r": "0x0c2549747671c3018668154c1735c3c5e021b78431a74ec98f1560d9ccf88211",
                        "s": "0x30b27d8b2ff7a66df4a3c9f3612462cddf25f044b2b27827374f72f632a17d25",
                        "sender": "0xebaf50debf10e08302fe4280c32df010463ca297"
                    }
                ],
                "uncleHeaders": [],
                "withdrawals": [],
                "receipts": [
                    {
                        "transactionHash": "0xcca14cf55e46bc4fd54ec3b7db0994ed166e9801033d6347983ba5c13febce61",
                        "type": "0x00",
                        "cumulativeGasUsed": "0x01a7a6",
                        "bloom": "0x00000000000000000000000000000000000000000000000000000000000000000000000000000000000000000000000000000000000000000000000000000000000000000000000000000000000000000000000000000000000000000000000000000000000000000000000000000000000000000000000000000000000000000000000000000000000000000000000000000000000000000000000000000000000000000000000000000000000000000000000000000000000000000000000000000000000000000000000000000000000000000000000000000000000000000000000000000000000000000000000000000000000000000000000000000000",
                        "logs": [],
                        "status": true,
                        "rlp": "0xf90109018301a7a6b9010000000000000000000000000000000000000000000000000000000000000000000000000000000000000000000000000000000000000000000000000000000000000000000000000000000000000000000000000000000000000000000000000000000000000000000000000000000000000000000000000000000000000000000000000000000000000000000000000000000000000000000000000000000000000000000000000000000000000000000000000000000000000000000000000000000000000000000000000000000000000000000000000000000000000000000000000000000000000000000000000000000000000000000000000000000000c0"
                    }
                ],
                "rlp": "0xf902c4f9023ba03c4f8ec8756ba88dafb6e64d55ba60b43f3d4240ecb96c8bb437811db329c0c7a01dcc4de8dec75d7aab85b567b6ccd41ad312451b948a7413f0a142fd40d49347942adc25665018aa1fe0e6bc666dac8fc2697ff9baa0272018695e52763eebbf57f084e9c9cde1fdf5bb7f73798528f9ea4d0340587ea0bf82d5dea3a5b63736080a82277216729b14beca3bc4a2154b1ae4bf62507f4aa0ac3ca6247e0defbbd30c034fab785140f13cf7b3a04267fa885cd8dc4d7c7c5fb901000000000000000000000000000000000000000000000000000000000000000000000000000000000000000000000000000000000000000000000000000000000000000000000000000000000000000000000000000000000000000000000000000000000000000000000000000000000000000000000000000000000000000000000000000000000000000000000000000000000000000000000000000000000000000000000000000000000000000000000000000000000000000000000000000000000000000000000000000000000000000000000000000000000000000000000000000000000000000000000000000000000000000000000000000000000080018401c9c3808301a7a68203e800a000000000000000000000000000000000000000000000000000000000000200008800000000000000000aa056e81f171bcc55a6ff8345e692c0f86e5b48e01b996cadc001622fb5e363b4218080a00000000000000000000000000000000000000000000000000000000000000000f882f880800a83029fe094652a62e8338e91a46aa8387a2c205f35f79347ab80a00000000000000000000000000973e7675ca57f8e6deb10cc07de5d8b5395621226a00c2549747671c3018668154c1735c3c5e021b78431a74ec98f1560d9ccf88211a030b27d8b2ff7a66df4a3c9f3612462cddf25f044b2b27827374f72f632a17d25c0c0",
                "blocknumber": "1"
            }
        ],
        "sealEngine": "NoProof",
        "_info": {
            "hash": "0xf6f6cecfae672d8a803ec0e22411f8c1fd440107724eeacda6e905a1c55e4644",
            "fixture-format": "blockchain_test",
            "comment": "`execution-specs` generated test",
            "filling-transition-tool": "2.19.0",
            "description": "No description available - add a docstring to the python test class or function.",
            "url": "",
            "opcode_count": {}
        }
    },
    "tests/static/state_tests/stStaticCall/static_callcallcodecallcode_011_OOGMAfter2Filler.json::static_callcallcodecallcode_011_OOGMAfter2[fork_Cancun-blockchain_test_from_state_test-d1]": {
        "network": "Cancun",
        "genesisBlockHeader": {
            "parentHash": "0x0000000000000000000000000000000000000000000000000000000000000000",
            "uncleHash": "0x1dcc4de8dec75d7aab85b567b6ccd41ad312451b948a7413f0a142fd40d49347",
            "coinbase": "0x0000000000000000000000000000000000000000",
            "stateRoot": "0x01cdacffe40aeaf7c27a0cc41e064b37fe77191e33077d5c73504aa9fe438776",
            "transactionsTrie": "0x56e81f171bcc55a6ff8345e692c0f86e5b48e01b996cadc001622fb5e363b421",
            "receiptTrie": "0x56e81f171bcc55a6ff8345e692c0f86e5b48e01b996cadc001622fb5e363b421",
            "bloom": "0x00000000000000000000000000000000000000000000000000000000000000000000000000000000000000000000000000000000000000000000000000000000000000000000000000000000000000000000000000000000000000000000000000000000000000000000000000000000000000000000000000000000000000000000000000000000000000000000000000000000000000000000000000000000000000000000000000000000000000000000000000000000000000000000000000000000000000000000000000000000000000000000000000000000000000000000000000000000000000000000000000000000000000000000000000000000",
            "difficulty": "0x00",
            "number": "0x00",
            "gasLimit": "0x01c9c380",
            "gasUsed": "0x00",
            "timestamp": "0x00",
            "extraData": "0x00",
            "mixHash": "0x0000000000000000000000000000000000000000000000000000000000000000",
            "nonce": "0x0000000000000000",
            "baseFeePerGas": "0x0b",
            "withdrawalsRoot": "0x56e81f171bcc55a6ff8345e692c0f86e5b48e01b996cadc001622fb5e363b421",
            "blobGasUsed": "0x00",
            "excessBlobGas": "0x00",
            "parentBeaconBlockRoot": "0x0000000000000000000000000000000000000000000000000000000000000000",
            "hash": "0x3c4f8ec8756ba88dafb6e64d55ba60b43f3d4240ecb96c8bb437811db329c0c7"
        },
        "pre": {
            "0x000f3df6d732807ef1319fb7b8bb8522d0beac02": {
                "nonce": "0x01",
                "balance": "0x00",
                "code": "0x3373fffffffffffffffffffffffffffffffffffffffe14604d57602036146024575f5ffd5b5f35801560495762001fff810690815414603c575f5ffd5b62001fff01545f5260205ff35b5f5ffd5b62001fff42064281555f359062001fff015500",
                "storage": {}
            },
            "0xebaf50debf10e08302fe4280c32df010463ca297": {
                "nonce": "0x00",
                "balance": "0x0de0b6b3a7640000",
                "code": "0x",
                "storage": {}
            },
            "0x335c5531b84765a7626e6e76688f18b81be5259c": {
                "nonce": "0x00",
                "balance": "0x00",
                "code": "0x600160035200",
                "storage": {}
            },
            "0x25d69e6a677bd6d872f436bad807c3244a268673": {
                "nonce": "0x00",
                "balance": "0x00",
                "code": "0x6040600060406000600073335c5531b84765a7626e6e76688f18b81be5259c614e34f200",
                "storage": {}
            },
            "0x13a5eb6fc2cf111fba5de5c336a9510e8229a44c": {
                "nonce": "0x00",
                "balance": "0x00",
                "code": "0x604060006040600060007325d69e6a677bd6d872f436bad807c3244a268673619c90f2505b61c350608051101560405760013b506001608051016080526024565b00",
                "storage": {}
            },
            "0x0973e7675ca57f8e6deb10cc07de5d8b53956212": {
                "nonce": "0x00",
                "balance": "0x00",
                "code": "0x604060006040600060007325d69e6a677bd6d872f436bad807c3244a268673619c90f250600160035500",
                "storage": {}
            },
            "0x652a62e8338e91a46aa8387a2c205f35f79347ab": {
                "nonce": "0x00",
                "balance": "0x0de0b6b3a7640000",
                "code": "0x604060006040600060003561eaf6fa600055600160015500",
                "storage": {}
            }
        },
        "postState": {
            "0x000f3df6d732807ef1319fb7b8bb8522d0beac02": {
                "nonce": "0x01",
                "balance": "0x00",
                "code": "0x3373fffffffffffffffffffffffffffffffffffffffe14604d57602036146024575f5ffd5b5f35801560495762001fff810690815414603c575f5ffd5b62001fff01545f5260205ff35b5f5ffd5b62001fff42064281555f359062001fff015500",
                "storage": {
                    "0x03e8": "0x03e8"
                }
            },
            "0xebaf50debf10e08302fe4280c32df010463ca297": {
                "nonce": "0x01",
                "balance": "0x0de0b6b3a7537384",
                "code": "0x",
                "storage": {}
            },
            "0x335c5531b84765a7626e6e76688f18b81be5259c": {
                "nonce": "0x00",
                "balance": "0x00",
                "code": "0x600160035200",
                "storage": {}
            },
            "0x25d69e6a677bd6d872f436bad807c3244a268673": {
                "nonce": "0x00",
                "balance": "0x00",
                "code": "0x6040600060406000600073335c5531b84765a7626e6e76688f18b81be5259c614e34f200",
                "storage": {}
            },
            "0x13a5eb6fc2cf111fba5de5c336a9510e8229a44c": {
                "nonce": "0x00",
                "balance": "0x00",
                "code": "0x604060006040600060007325d69e6a677bd6d872f436bad807c3244a268673619c90f2505b61c350608051101560405760013b506001608051016080526024565b00",
                "storage": {}
            },
            "0x0973e7675ca57f8e6deb10cc07de5d8b53956212": {
                "nonce": "0x00",
                "balance": "0x00",
                "code": "0x604060006040600060007325d69e6a677bd6d872f436bad807c3244a268673619c90f250600160035500",
                "storage": {}
            },
            "0x652a62e8338e91a46aa8387a2c205f35f79347ab": {
                "nonce": "0x00",
                "balance": "0x0de0b6b3a7640000",
                "code": "0x604060006040600060003561eaf6fa600055600160015500",
                "storage": {
                    "0x01": "0x01"
                }
            }
        },
        "lastblockhash": "0x660c980b5b22f70921f61af8ad66e2ae6101d0676988f9f0e36147341a890350",
        "config": {
            "network": "Cancun",
            "chainid": "0x01",
            "blobSchedule": {
                "Cancun": {
                    "target": "0x03",
                    "max": "0x06",
                    "baseFeeUpdateFraction": "0x32f0ed"
                }
            }
        },
        "genesisRLP": "0xf9023cf90236a00000000000000000000000000000000000000000000000000000000000000000a01dcc4de8dec75d7aab85b567b6ccd41ad312451b948a7413f0a142fd40d49347940000000000000000000000000000000000000000a001cdacffe40aeaf7c27a0cc41e064b37fe77191e33077d5c73504aa9fe438776a056e81f171bcc55a6ff8345e692c0f86e5b48e01b996cadc001622fb5e363b421a056e81f171bcc55a6ff8345e692c0f86e5b48e01b996cadc001622fb5e363b421b901000000000000000000000000000000000000000000000000000000000000000000000000000000000000000000000000000000000000000000000000000000000000000000000000000000000000000000000000000000000000000000000000000000000000000000000000000000000000000000000000000000000000000000000000000000000000000000000000000000000000000000000000000000000000000000000000000000000000000000000000000000000000000000000000000000000000000000000000000000000000000000000000000000000000000000000000000000000000000000000000000000000000000000000000000000000080808401c9c380808000a000000000000000000000000000000000000000000000000000000000000000008800000000000000000ba056e81f171bcc55a6ff8345e692c0f86e5b48e01b996cadc001622fb5e363b4218080a00000000000000000000000000000000000000000000000000000000000000000c0c0c0",
        "blocks": [
            {
                "blockHeader": {
                    "parentHash": "0x3c4f8ec8756ba88dafb6e64d55ba60b43f3d4240ecb96c8bb437811db329c0c7",
                    "uncleHash": "0x1dcc4de8dec75d7aab85b567b6ccd41ad312451b948a7413f0a142fd40d49347",
                    "coinbase": "0x2adc25665018aa1fe0e6bc666dac8fc2697ff9ba",
                    "stateRoot": "0x272018695e52763eebbf57f084e9c9cde1fdf5bb7f73798528f9ea4d0340587e",
                    "transactionsTrie": "0x6cfc98b9596dfc38b85baf874a8cce588211f1792e278238f8886e8ca408a7aa",
                    "receiptTrie": "0xac3ca6247e0defbbd30c034fab785140f13cf7b3a04267fa885cd8dc4d7c7c5f",
                    "bloom": "0x00000000000000000000000000000000000000000000000000000000000000000000000000000000000000000000000000000000000000000000000000000000000000000000000000000000000000000000000000000000000000000000000000000000000000000000000000000000000000000000000000000000000000000000000000000000000000000000000000000000000000000000000000000000000000000000000000000000000000000000000000000000000000000000000000000000000000000000000000000000000000000000000000000000000000000000000000000000000000000000000000000000000000000000000000000000",
                    "difficulty": "0x00",
                    "number": "0x01",
                    "gasLimit": "0x01c9c380",
                    "gasUsed": "0x01a7a6",
                    "timestamp": "0x03e8",
                    "extraData": "0x00",
                    "mixHash": "0x0000000000000000000000000000000000000000000000000000000000020000",
                    "nonce": "0x0000000000000000",
                    "baseFeePerGas": "0x0a",
                    "withdrawalsRoot": "0x56e81f171bcc55a6ff8345e692c0f86e5b48e01b996cadc001622fb5e363b421",
                    "blobGasUsed": "0x00",
                    "excessBlobGas": "0x00",
                    "parentBeaconBlockRoot": "0x0000000000000000000000000000000000000000000000000000000000000000",
                    "hash": "0x660c980b5b22f70921f61af8ad66e2ae6101d0676988f9f0e36147341a890350"
                },
                "transactions": [
                    {
                        "type": "0x00",
                        "chainId": "0x01",
                        "nonce": "0x00",
                        "gasPrice": "0x0a",
                        "gasLimit": "0x029fe0",
                        "to": "0x652a62e8338e91a46aa8387a2c205f35f79347ab",
                        "value": "0x00",
                        "data": "0x00000000000000000000000013a5eb6fc2cf111fba5de5c336a9510e8229a44c",
                        "v": "0x25",
                        "r": "0x54c8cba213c3099b88f5c61d3d952dbe552dc4929ef43bf2e572c75f16bb6011",
                        "s": "0x06a22ac8adb97aa57ebe957e9d5deb64208efd48851fe26f277659d49c0d2b4a",
                        "sender": "0xebaf50debf10e08302fe4280c32df010463ca297"
                    }
                ],
                "uncleHeaders": [],
                "withdrawals": [],
                "receipts": [
                    {
                        "transactionHash": "0x9183cc53efb1f0a3381402172419ca1b68f4fc87111a3478b5fd914bd48f1cfb",
                        "type": "0x00",
                        "cumulativeGasUsed": "0x01a7a6",
                        "bloom": "0x00000000000000000000000000000000000000000000000000000000000000000000000000000000000000000000000000000000000000000000000000000000000000000000000000000000000000000000000000000000000000000000000000000000000000000000000000000000000000000000000000000000000000000000000000000000000000000000000000000000000000000000000000000000000000000000000000000000000000000000000000000000000000000000000000000000000000000000000000000000000000000000000000000000000000000000000000000000000000000000000000000000000000000000000000000000",
                        "logs": [],
                        "status": true,
                        "rlp": "0xf90109018301a7a6b9010000000000000000000000000000000000000000000000000000000000000000000000000000000000000000000000000000000000000000000000000000000000000000000000000000000000000000000000000000000000000000000000000000000000000000000000000000000000000000000000000000000000000000000000000000000000000000000000000000000000000000000000000000000000000000000000000000000000000000000000000000000000000000000000000000000000000000000000000000000000000000000000000000000000000000000000000000000000000000000000000000000000000000000000000000000000c0"
                    }
                ],
                "rlp": "0xf902c4f9023ba03c4f8ec8756ba88dafb6e64d55ba60b43f3d4240ecb96c8bb437811db329c0c7a01dcc4de8dec75d7aab85b567b6ccd41ad312451b948a7413f0a142fd40d49347942adc25665018aa1fe0e6bc666dac8fc2697ff9baa0272018695e52763eebbf57f084e9c9cde1fdf5bb7f73798528f9ea4d0340587ea06cfc98b9596dfc38b85baf874a8cce588211f1792e278238f8886e8ca408a7aaa0ac3ca6247e0defbbd30c034fab785140f13cf7b3a04267fa885cd8dc4d7c7c5fb901000000000000000000000000000000000000000000000000000000000000000000000000000000000000000000000000000000000000000000000000000000000000000000000000000000000000000000000000000000000000000000000000000000000000000000000000000000000000000000000000000000000000000000000000000000000000000000000000000000000000000000000000000000000000000000000000000000000000000000000000000000000000000000000000000000000000000000000000000000000000000000000000000000000000000000000000000000000000000000000000000000000000000000000000000000000080018401c9c3808301a7a68203e800a000000000000000000000000000000000000000000000000000000000000200008800000000000000000aa056e81f171bcc55a6ff8345e692c0f86e5b48e01b996cadc001622fb5e363b4218080a00000000000000000000000000000000000000000000000000000000000000000f882f880800a83029fe094652a62e8338e91a46aa8387a2c205f35f79347ab80a000000000000000000000000013a5eb6fc2cf111fba5de5c336a9510e8229a44c25a054c8cba213c3099b88f5c61d3d952dbe552dc4929ef43bf2e572c75f16bb6011a006a22ac8adb97aa57ebe957e9d5deb64208efd48851fe26f277659d49c0d2b4ac0c0",
                "blocknumber": "1"
            }
        ],
        "sealEngine": "NoProof",
        "_info": {
            "hash": "0x8c8eff49c8a2979aff9e4b291973098d351140fc10302a6fa52570c74966b53e",
            "fixture-format": "blockchain_test",
            "comment": "`execution-specs` generated test",
            "filling-transition-tool": "2.19.0",
            "description": "No description available - add a docstring to the python test class or function.",
            "url": "",
            "opcode_count": {}
        }
    }
}