{
    "tests/static/state_tests/stStaticCall/static_RETURN_BoundsFiller.json::static_RETURN_Bounds[fork_Cancun-blockchain_test_from_state_test-]": {
        "network": "Cancun",
        "genesisBlockHeader": {
            "parentHash": "0x0000000000000000000000000000000000000000000000000000000000000000",
            "uncleHash": "0x1dcc4de8dec75d7aab85b567b6ccd41ad312451b948a7413f0a142fd40d49347",
            "coinbase": "0x0000000000000000000000000000000000000000",
            "stateRoot": "0xd3f53f1f55a8d12553ff603d929955930d3608b846a40f2853fa354ed126d64c",
            "transactionsTrie": "0x56e81f171bcc55a6ff8345e692c0f86e5b48e01b996cadc001622fb5e363b421",
            "receiptTrie": "0x56e81f171bcc55a6ff8345e692c0f86e5b48e01b996cadc001622fb5e363b421",
            "bloom": "0x00000000000000000000000000000000000000000000000000000000000000000000000000000000000000000000000000000000000000000000000000000000000000000000000000000000000000000000000000000000000000000000000000000000000000000000000000000000000000000000000000000000000000000000000000000000000000000000000000000000000000000000000000000000000000000000000000000000000000000000000000000000000000000000000000000000000000000000000000000000000000000000000000000000000000000000000000000000000000000000000000000000000000000000000000000000",
            "difficulty": "0x00",
            "number": "0x00",
            "gasLimit": "0x7fffffffffffffff",
            "gasUsed": "0x00",
            "timestamp": "0x00",
            "extraData": "0x00",
            "mixHash": "0x0000000000000000000000000000000000000000000000000000000000000000",
            "nonce": "0x0000000000000000",
            "baseFeePerGas": "0x0b",
            "withdrawalsRoot": "0x56e81f171bcc55a6ff8345e692c0f86e5b48e01b996cadc001622fb5e363b421",
            "blobGasUsed": "0x00",
            "excessBlobGas": "0x00",
            "parentBeaconBlockRoot": "0x0000000000000000000000000000000000000000000000000000000000000000",
            "hash": "0x273518ca1a645b39a656a9722f778c80f547648392ebbf0df3339aade4452636"
        },
        "pre": {
            "0x000f3df6d732807ef1319fb7b8bb8522d0beac02": {
                "nonce": "0x01",
                "balance": "0x00",
                "code": "0x3373fffffffffffffffffffffffffffffffffffffffe14604d57602036146024575f5ffd5b5f35801560495762001fff810690815414603c575f5ffd5b62001fff01545f5260205ff35b5f5ffd5b62001fff42064281555f359062001fff015500",
                "storage": {}
            },
            "0xa99635038e8d9ab237a31179dd5c9087713f723a": {
                "nonce": "0x00",
                "balance": "0xffffffffffffffffffffffffffffffffffffffffffffffffffffffffffffffff",
                "code": "0x",
                "storage": {}
            },
            "0x76006c948f3a0529479c6d18a6f95908426e8092": {
                "nonce": "0x00",
                "balance": "0x00",
                "code": "0x7fffffffffffffffffffffffffffffffffffffffffffffffffffffffffffffffff7ffffffffffffffffffffffffffffffffffffffffffffffffffffffffffffffffff300",
                "storage": {}
            },
            "0x2548bda95a3831abcd613f4d24e4634615a71cca": {
                "nonce": "0x00",
                "balance": "0x00",
                "code": "0x6d0fffffffffffffffffffffffffff6d0ffffffffffffffffffffffffffff300",
                "storage": {}
            },
            "0x416408c1d7fda274ddeb45ffe4817068808121ca": {
                "nonce": "0x00",
                "balance": "0x00",
                "code": "0x67ffffffffffffffff67fffffffffffffffff300",
                "storage": {}
            },
            "0xad7754a8a56cc5ad4e319fa94194e435628dee67": {
                "nonce": "0x00",
                "balance": "0x00",
                "code": "0x63ffffffff63fffffffff300",
                "storage": {}
            },
            "0x07084994c5891b1467d74bedb0477da4909e4c0e": {
                "nonce": "0x00",
                "balance": "0x00",
                "code": "0x630fffffff630ffffffff300",
                "storage": {}
            },
            "0x28463490948d21efc49949b4d394989bf52c57f1": {
                "nonce": "0x00",
                "balance": "0x00",
                "code": "0x7fffffffffffffffffffffffffffffffffffffffffffffffffffffffffffffffff6000f300",
                "storage": {}
            },
            "0xf519de4dcb9aaa53f8f0db9b18c715c928caade8": {
                "nonce": "0x00",
                "balance": "0x00",
                "code": "0x6d0fffffffffffffffffffffffffff6000f300",
                "storage": {}
            },
            "0x0b09ca4308585f026b8d02be147fea0739ec463a": {
                "nonce": "0x00",
                "balance": "0x00",
                "code": "0x67ffffffffffffffff6000f300",
                "storage": {}
            },
            "0x2ceb88d6c420e5c65593d9ebed9a25600ab9e113": {
                "nonce": "0x00",
                "balance": "0x00",
                "code": "0x63ffffffff6000f300",
                "storage": {}
            },
            "0x7266f1c07958d55ce36de0592604f1a915bdf1c2": {
                "nonce": "0x00",
                "balance": "0x00",
                "code": "0x630fffffff6000f300",
                "storage": {}
            },
            "0x4912bc7b66a3bf27adfa54ab049e90e8c9c4dc63": {
                "nonce": "0x00",
                "balance": "0x00",
                "code": "0x60007ffffffffffffffffffffffffffffffffffffffffffffffffffffffffffffffffff300",
                "storage": {}
            },
            "0x7a4461ac9f9cd13f40f9514a7c60e23a71c1dff3": {
                "nonce": "0x00",
                "balance": "0x00",
                "code": "0x60006d0ffffffffffffffffffffffffffff300",
                "storage": {}
            },
            "0x7bbcf24c83493c4e733cb54079b51873d3211ad2": {
                "nonce": "0x00",
                "balance": "0x00",
                "code": "0x600067fffffffffffffffff300",
                "storage": {}
            },
            "0xff6b6d23be161344e86eb7b174acedd4b1dc6dc7": {
                "nonce": "0x00",
                "balance": "0x00",
                "code": "0x600063fffffffff300",
                "storage": {}
            },
            "0xc7aa750fe05c7e38475a49fe98a301024d0c1d54": {
                "nonce": "0x00",
                "balance": "0x00",
                "code": "0x6000630ffffffff300",
                "storage": {}
            },
            "0x5efbf04d8e1cc5b6b3719b16b5744a09bacfc18b": {
                "nonce": "0x00",
                "balance": "0x00",
                "code": "0x60006000f300",
                "storage": {}
            },
            "0xdaaed08adba0dd97804c34dd17b55766d54fc392": {
                "nonce": "0x00",
                "balance": "0x00",
                "code": "0x6000600060006000735efbf04d8e1cc5b6b3719b16b5744a09bacfc18b6707fffffffffffffffa600155600060006000600073c7aa750fe05c7e38475a49fe98a301024d0c1d546707fffffffffffffffa600255600060006000600073ff6b6d23be161344e86eb7b174acedd4b1dc6dc76707fffffffffffffffa6003556000600060006000737bbcf24c83493c4e733cb54079b51873d3211ad26707fffffffffffffffa6004556000600060006000737a4461ac9f9cd13f40f9514a7c60e23a71c1dff36707fffffffffffffffa6005556000600060006000734912bc7b66a3bf27adfa54ab049e90e8c9c4dc636707fffffffffffffffa6006556000600060006000734912bc7b66a3bf27adfa54ab049e90e8c9c4dc636707fffffffffffffffa6007556000600060006000734912bc7b66a3bf27adfa54ab049e90e8c9c4dc636707fffffffffffffffa6008556000600060006000734912bc7b66a3bf27adfa54ab049e90e8c9c4dc636707fffffffffffffffa6009556000600060006000734912bc7b66a3bf27adfa54ab049e90e8c9c4dc636707fffffffffffffffa600a556000600060006000734912bc7b66a3bf27adfa54ab049e90e8c9c4dc636707fffffffffffffffa600b556000600060006000734912bc7b66a3bf27adfa54ab049e90e8c9c4dc636707fffffffffffffffa600c556000600060006000734912bc7b66a3bf27adfa54ab049e90e8c9c4dc636707fffffffffffffffa600d556000600060006000734912bc7b66a3bf27adfa54ab049e90e8c9c4dc636707fffffffffffffffa600e556000600060006000734912bc7b66a3bf27adfa54ab049e90e8c9c4dc636707fffffffffffffffa600f556000600060006000734912bc7b66a3bf27adfa54ab049e90e8c9c4dc636707fffffffffffffffa60105500",
                "storage": {}
            }
        },
        "postState": {
            "0x000f3df6d732807ef1319fb7b8bb8522d0beac02": {
                "nonce": "0x01",
                "balance": "0x00",
                "code": "0x3373fffffffffffffffffffffffffffffffffffffffe14604d57602036146024575f5ffd5b5f35801560495762001fff810690815414603c575f5ffd5b62001fff01545f5260205ff35b5f5ffd5b62001fff42064281555f359062001fff015500",
                "storage": {
                    "0x03e8": "0x03e8"
                }
            },
            "0xa99635038e8d9ab237a31179dd5c9087713f723a": {
                "nonce": "0x01",
                "balance": "0xffffffffffffffffffffffffffffffffffffffffffffffffffffffffffc43dde",
                "code": "0x",
                "storage": {}
            },
            "0x76006c948f3a0529479c6d18a6f95908426e8092": {
                "nonce": "0x00",
                "balance": "0x00",
                "code": "0x7fffffffffffffffffffffffffffffffffffffffffffffffffffffffffffffffff7ffffffffffffffffffffffffffffffffffffffffffffffffffffffffffffffffff300",
                "storage": {}
            },
            "0x2548bda95a3831abcd613f4d24e4634615a71cca": {
                "nonce": "0x00",
                "balance": "0x00",
                "code": "0x6d0fffffffffffffffffffffffffff6d0ffffffffffffffffffffffffffff300",
                "storage": {}
            },
            "0x416408c1d7fda274ddeb45ffe4817068808121ca": {
                "nonce": "0x00",
                "balance": "0x00",
                "code": "0x67ffffffffffffffff67fffffffffffffffff300",
                "storage": {}
            },
            "0xad7754a8a56cc5ad4e319fa94194e435628dee67": {
                "nonce": "0x00",
                "balance": "0x00",
                "code": "0x63ffffffff63fffffffff300",
                "storage": {}
            },
            "0x07084994c5891b1467d74bedb0477da4909e4c0e": {
                "nonce": "0x00",
                "balance": "0x00",
                "code": "0x630fffffff630ffffffff300",
                "storage": {}
            },
            "0x28463490948d21efc49949b4d394989bf52c57f1": {
                "nonce": "0x00",
                "balance": "0x00",
                "code": "0x7fffffffffffffffffffffffffffffffffffffffffffffffffffffffffffffffff6000f300",
                "storage": {}
            },
            "0xf519de4dcb9aaa53f8f0db9b18c715c928caade8": {
                "nonce": "0x00",
                "balance": "0x00",
                "code": "0x6d0fffffffffffffffffffffffffff6000f300",
                "storage": {}
            },
            "0x0b09ca4308585f026b8d02be147fea0739ec463a": {
                "nonce": "0x00",
                "balance": "0x00",
                "code": "0x67ffffffffffffffff6000f300",
                "storage": {}
            },
            "0x2ceb88d6c420e5c65593d9ebed9a25600ab9e113": {
                "nonce": "0x00",
                "balance": "0x00",
                "code": "0x63ffffffff6000f300",
                "storage": {}
            },
            "0x7266f1c07958d55ce36de0592604f1a915bdf1c2": {
                "nonce": "0x00",
                "balance": "0x00",
                "code": "0x630fffffff6000f300",
                "storage": {}
            },
            "0x4912bc7b66a3bf27adfa54ab049e90e8c9c4dc63": {
                "nonce": "0x00",
                "balance": "0x00",
                "code": "0x60007ffffffffffffffffffffffffffffffffffffffffffffffffffffffffffffffffff300",
                "storage": {}
            },
            "0x7a4461ac9f9cd13f40f9514a7c60e23a71c1dff3": {
                "nonce": "0x00",
                "balance": "0x00",
                "code": "0x60006d0ffffffffffffffffffffffffffff300",
                "storage": {}
            },
            "0x7bbcf24c83493c4e733cb54079b51873d3211ad2": {
                "nonce": "0x00",
                "balance": "0x00",
                "code": "0x600067fffffffffffffffff300",
                "storage": {}
            },
            "0xff6b6d23be161344e86eb7b174acedd4b1dc6dc7": {
                "nonce": "0x00",
                "balance": "0x00",
                "code": "0x600063fffffffff300",
                "storage": {}
            },
            "0xc7aa750fe05c7e38475a49fe98a301024d0c1d54": {
                "nonce": "0x00",
                "balance": "0x00",
                "code": "0x6000630ffffffff300",
                "storage": {}
            },
            "0x5efbf04d8e1cc5b6b3719b16b5744a09bacfc18b": {
                "nonce": "0x00",
                "balance": "0x00",
                "code": "0x60006000f300",
                "storage": {}
            },
            "0xdaaed08adba0dd97804c34dd17b55766d54fc392": {
                "nonce": "0x00",
                "balance": "0x01",
                "code": "0x6000600060006000735efbf04d8e1cc5b6b3719b16b5744a09bacfc18b6707fffffffffffffffa600155600060006000600073c7aa750fe05c7e38475a49fe98a301024d0c1d546707fffffffffffffffa600255600060006000600073ff6b6d23be161344e86eb7b174acedd4b1dc6dc76707fffffffffffffffa6003556000600060006000737bbcf24c83493c4e733cb54079b51873d3211ad26707fffffffffffffffa6004556000600060006000737a4461ac9f9cd13f40f9514a7c60e23a71c1dff36707fffffffffffffffa6005556000600060006000734912bc7b66a3bf27adfa54ab049e90e8c9c4dc636707fffffffffffffffa6006556000600060006000734912bc7b66a3bf27adfa54ab049e90e8c9c4dc636707fffffffffffffffa6007556000600060006000734912bc7b66a3bf27adfa54ab049e90e8c9c4dc636707fffffffffffffffa6008556000600060006000734912bc7b66a3bf27adfa54ab049e90e8c9c4dc636707fffffffffffffffa6009556000600060006000734912bc7b66a3bf27adfa54ab049e90e8c9c4dc636707fffffffffffffffa600a556000600060006000734912bc7b66a3bf27adfa54ab049e90e8c9c4dc636707fffffffffffffffa600b556000600060006000734912bc7b66a3bf27adfa54ab049e90e8c9c4dc636707fffffffffffffffa600c556000600060006000734912bc7b66a3bf27adfa54ab049e90e8c9c4dc636707fffffffffffffffa600d556000600060006000734912bc7b66a3bf27adfa54ab049e90e8c9c4dc636707fffffffffffffffa600e556000600060006000734912bc7b66a3bf27adfa54ab049e90e8c9c4dc636707fffffffffffffffa600f556000600060006000734912bc7b66a3bf27adfa54ab049e90e8c9c4dc636707fffffffffffffffa60105500",
                "storage": {
                    "0x01": "0x01",
                    "0x02": "0x01",
                    "0x03": "0x01",
                    "0x04": "0x01",
                    "0x05": "0x01",
                    "0x06": "0x01",
                    "0x07": "0x01",
                    "0x08": "0x01",
                    "0x09": "0x01",
                    "0x0a": "0x01",
                    "0x0b": "0x01",
                    "0x0c": "0x01",
                    "0x0d": "0x01",
                    "0x0e": "0x01",
                    "0x0f": "0x01",
                    "0x10": "0x01"
                }
            }
        },
        "lastblockhash": "0x1c4b217fd6178560ffade431d90c1b00e72b1a0d5af5f9a12d498bb6b01166bf",
        "config": {
            "network": "Cancun",
            "chainid": "0x01",
            "blobSchedule": {
                "Cancun": {
                    "target": "0x03",
                    "max": "0x06",
                    "baseFeeUpdateFraction": "0x32f0ed"
                }
            }
        },
        "genesisRLP": "0xf90240f9023aa00000000000000000000000000000000000000000000000000000000000000000a01dcc4de8dec75d7aab85b567b6ccd41ad312451b948a7413f0a142fd40d49347940000000000000000000000000000000000000000a0d3f53f1f55a8d12553ff603d929955930d3608b846a40f2853fa354ed126d64ca056e81f171bcc55a6ff8345e692c0f86e5b48e01b996cadc001622fb5e363b421a056e81f171bcc55a6ff8345e692c0f86e5b48e01b996cadc001622fb5e363b421b90100000000000000000000000000000000000000000000000000000000000000000000000000000000000000000000000000000000000000000000000000000000000000000000000000000000000000000000000000000000000000000000000000000000000000000000000000000000000000000000000000000000000000000000000000000000000000000000000000000000000000000000000000000000000000000000000000000000000000000000000000000000000000000000000000000000000000000000000000000000000000000000000000000000000000000000000000000000000000000000000000000000000000000000000000000000008080887fffffffffffffff808000a000000000000000000000000000000000000000000000000000000000000000008800000000000000000ba056e81f171bcc55a6ff8345e692c0f86e5b48e01b996cadc001622fb5e363b4218080a00000000000000000000000000000000000000000000000000000000000000000c0c0c0",
        "blocks": [
            {
                "blockHeader": {
                    "parentHash": "0x273518ca1a645b39a656a9722f778c80f547648392ebbf0df3339aade4452636",
                    "uncleHash": "0x1dcc4de8dec75d7aab85b567b6ccd41ad312451b948a7413f0a142fd40d49347",
                    "coinbase": "0x2adc25665018aa1fe0e6bc666dac8fc2697ff9ba",
                    "stateRoot": "0x89e21ffda8a5ccd8eb4e46f6c2e2b90edb5f5ed243d414cfcfd82c2a6a78eaf0",
                    "transactionsTrie": "0xb84cdfc3ae8d422dd60a31a12c4678e7ce2c16e53433dd7a0493c2f0af4c6a7a",
                    "receiptTrie": "0x2afc92207afd66233c97a3947a40f65bdb20e748d499159bfd1e725613c48512",
                    "bloom": "0x00000000000000000000000000000000000000000000000000000000000000000000000000000000000000000000000000000000000000000000000000000000000000000000000000000000000000000000000000000000000000000000000000000000000000000000000000000000000000000000000000000000000000000000000000000000000000000000000000000000000000000000000000000000000000000000000000000000000000000000000000000000000000000000000000000000000000000000000000000000000000000000000000000000000000000000000000000000000000000000000000000000000000000000000000000000",
                    "difficulty": "0x00",
                    "number": "0x01",
                    "gasLimit": "0x7fffffffffffffff",
                    "gasUsed": "0x05f9d0",
                    "timestamp": "0x03e8",
                    "extraData": "0x00",
                    "mixHash": "0x0000000000000000000000000000000000000000000000000000000000020000",
                    "nonce": "0x0000000000000000",
                    "baseFeePerGas": "0x0a",
                    "withdrawalsRoot": "0x56e81f171bcc55a6ff8345e692c0f86e5b48e01b996cadc001622fb5e363b421",
                    "blobGasUsed": "0x00",
                    "excessBlobGas": "0x00",
                    "parentBeaconBlockRoot": "0x0000000000000000000000000000000000000000000000000000000000000000",
                    "hash": "0x1c4b217fd6178560ffade431d90c1b00e72b1a0d5af5f9a12d498bb6b01166bf"
                },
                "transactions": [
                    {
                        "type": "0x00",
                        "chainId": "0x01",
                        "nonce": "0x00",
                        "gasPrice": "0x0a",
                        "gasLimit": "0xe4e1c0",
                        "to": "0xdaaed08adba0dd97804c34dd17b55766d54fc392",
                        "value": "0x01",
                        "data": "0x",
                        "v": "0x26",
                        "r": "0x92f888035caceee7df6ed286994724ee204dc1cb3a9f89f9d93aaa83db868ce1",
                        "s": "0x5a2bc3d0e7ea06a3ad41b0da14ae709c6f25edcde510dba0f553b6da2ea35418",
                        "sender": "0xa99635038e8d9ab237a31179dd5c9087713f723a"
                    }
                ],
                "uncleHeaders": [],
                "withdrawals": [],
                "receipts": [
                    {
                        "transactionHash": "0xd91e35f4e68668d648d90ee10bb65f0f330a18fdf1b158b4f291e41639618e67",
                        "type": "0x00",
                        "cumulativeGasUsed": "0x05f9d0",
                        "bloom": "0x00000000000000000000000000000000000000000000000000000000000000000000000000000000000000000000000000000000000000000000000000000000000000000000000000000000000000000000000000000000000000000000000000000000000000000000000000000000000000000000000000000000000000000000000000000000000000000000000000000000000000000000000000000000000000000000000000000000000000000000000000000000000000000000000000000000000000000000000000000000000000000000000000000000000000000000000000000000000000000000000000000000000000000000000000000000",
                        "logs": [],
                        "status": true,
                        "rlp": "0xf90109018305f9d0b9010000000000000000000000000000000000000000000000000000000000000000000000000000000000000000000000000000000000000000000000000000000000000000000000000000000000000000000000000000000000000000000000000000000000000000000000000000000000000000000000000000000000000000000000000000000000000000000000000000000000000000000000000000000000000000000000000000000000000000000000000000000000000000000000000000000000000000000000000000000000000000000000000000000000000000000000000000000000000000000000000000000000000000000000000000000000c0"
                    }
                ],
                "rlp": "0xf902a8f9023fa0273518ca1a645b39a656a9722f778c80f547648392ebbf0df3339aade4452636a01dcc4de8dec75d7aab85b567b6ccd41ad312451b948a7413f0a142fd40d49347942adc25665018aa1fe0e6bc666dac8fc2697ff9baa089e21ffda8a5ccd8eb4e46f6c2e2b90edb5f5ed243d414cfcfd82c2a6a78eaf0a0b84cdfc3ae8d422dd60a31a12c4678e7ce2c16e53433dd7a0493c2f0af4c6a7aa02afc92207afd66233c97a3947a40f65bdb20e748d499159bfd1e725613c48512b90100000000000000000000000000000000000000000000000000000000000000000000000000000000000000000000000000000000000000000000000000000000000000000000000000000000000000000000000000000000000000000000000000000000000000000000000000000000000000000000000000000000000000000000000000000000000000000000000000000000000000000000000000000000000000000000000000000000000000000000000000000000000000000000000000000000000000000000000000000000000000000000000000000000000000000000000000000000000000000000000000000000000000000000000000000000008001887fffffffffffffff8305f9d08203e800a000000000000000000000000000000000000000000000000000000000000200008800000000000000000aa056e81f171bcc55a6ff8345e692c0f86e5b48e01b996cadc001622fb5e363b4218080a00000000000000000000000000000000000000000000000000000000000000000f862f860800a83e4e1c094daaed08adba0dd97804c34dd17b55766d54fc392018026a092f888035caceee7df6ed286994724ee204dc1cb3a9f89f9d93aaa83db868ce1a05a2bc3d0e7ea06a3ad41b0da14ae709c6f25edcde510dba0f553b6da2ea35418c0c0",
                "blocknumber": "1"
            }
        ],
        "sealEngine": "NoProof",
        "_info": {
            "hash": "0x6482b8b46ea068581a3d8895e5f5ef5a4a2256873e0f747f9afe112255bdc6fd",
            "fixture-format": "blockchain_test",
            "comment": "`execution-specs` generated test",
            "filling-transition-tool": "2.19.0",
            "description": "No description available - add a docstring to the python test class or function.",
            "url": "",
            "opcode_count": {}
        }
    }
}