{
    "tests/static/state_tests/stStaticCall/static_callcall_00_OOGEFiller.json::static_callcall_00_OOGE[fork_Cancun-blockchain_test_from_state_test-d0]": {
        "network": "Cancun",
        "genesisBlockHeader": {
            "parentHash": "0x0000000000000000000000000000000000000000000000000000000000000000",
            "uncleHash": "0x1dcc4de8dec75d7aab85b567b6ccd41ad312451b948a7413f0a142fd40d49347",
            "coinbase": "0x0000000000000000000000000000000000000000",
            "stateRoot": "0x5b4780e1fed98bef9c004470c4eb2007051269887e929b19e859050023a01dd9",
            "transactionsTrie": "0x56e81f171bcc55a6ff8345e692c0f86e5b48e01b996cadc001622fb5e363b421",
            "receiptTrie": "0x56e81f171bcc55a6ff8345e692c0f86e5b48e01b996cadc001622fb5e363b421",
            "bloom": "0x00000000000000000000000000000000000000000000000000000000000000000000000000000000000000000000000000000000000000000000000000000000000000000000000000000000000000000000000000000000000000000000000000000000000000000000000000000000000000000000000000000000000000000000000000000000000000000000000000000000000000000000000000000000000000000000000000000000000000000000000000000000000000000000000000000000000000000000000000000000000000000000000000000000000000000000000000000000000000000000000000000000000000000000000000000000",
            "difficulty": "0x00",
            "number": "0x00",
            "gasLimit": "0x01c9c380",
            "gasUsed": "0x00",
            "timestamp": "0x00",
            "extraData": "0x00",
            "mixHash": "0x0000000000000000000000000000000000000000000000000000000000000000",
            "nonce": "0x0000000000000000",
            "baseFeePerGas": "0x0b",
            "withdrawalsRoot": "0x56e81f171bcc55a6ff8345e692c0f86e5b48e01b996cadc001622fb5e363b421",
            "blobGasUsed": "0x00",
            "excessBlobGas": "0x00",
            "parentBeaconBlockRoot": "0x0000000000000000000000000000000000000000000000000000000000000000",
            "hash": "0xd9aca06bca1dad867c0b2f3a2e899331afcea978dfacdbc3b4699cf57521172f"
        },
        "pre": {
            "0x000f3df6d732807ef1319fb7b8bb8522d0beac02": {
                "nonce": "0x01",
                "balance": "0x00",
                "code": "0x3373fffffffffffffffffffffffffffffffffffffffe14604d57602036146024575f5ffd5b5f35801560495762001fff810690815414603c575f5ffd5b62001fff01545f5260205ff35b5f5ffd5b62001fff42064281555f359062001fff015500",
                "storage": {}
            },
            "0xebaf50debf10e08302fe4280c32df010463ca297": {
                "nonce": "0x00",
                "balance": "0x0de0b6b3a7640000",
                "code": "0x",
                "storage": {}
            },
            "0xe574f7ec5305be91332b5b8b12deb8966e05f42d": {
                "nonce": "0x00",
                "balance": "0x00",
                "code": "0x5b61c3506080511015601c5760013b506001608051016080526000565b00",
                "storage": {}
            },
            "0xa18394a87a4c414718bbbee0f695d74cd7a4f9de": {
                "nonce": "0x00",
                "balance": "0x00",
                "code": "0x6001600252604060006040600073e574f7ec5305be91332b5b8b12deb8966e05f42d614e34fa50600160205200",
                "storage": {}
            },
            "0x998a75f1a4457fb7b5872c51f34aa7256f732b1e": {
                "nonce": "0x00",
                "balance": "0x0de0b6b3a7640000",
                "code": "0x604060006040600073a18394a87a4c414718bbbee0f695d74cd7a4f9de620249f0fa60005500",
                "storage": {}
            },
            "0xce21f15217a7b94db9c505a66c9549e803bf141c": {
                "nonce": "0x00",
                "balance": "0x00",
                "code": "0x6001600255600160025200",
                "storage": {}
            },
            "0x2814f1be80fce656766c827bc6e55bfb7a3bc4b9": {
                "nonce": "0x00",
                "balance": "0x00",
                "code": "0x6001600252604060006040600073ce21f15217a7b94db9c505a66c9549e803bf141c6201d4d4fa50600160205200",
                "storage": {}
            },
            "0x2f9ec0afcb4edcd7d38c6a48f5e36038263ca3cd": {
                "nonce": "0x00",
                "balance": "0x0de0b6b3a7640000",
                "code": "0x6040600060406000732814f1be80fce656766c827bc6e55bfb7a3bc4b962055730fa60005500",
                "storage": {}
            },
            "0xc0e4183389eb57f779a986d8c878f89b9401dc8e": {
                "nonce": "0x00",
                "balance": "0x00",
                "code": "0x6000600060006000346000355af1600055600160015500",
                "storage": {}
            }
        },
        "postState": {
            "0x000f3df6d732807ef1319fb7b8bb8522d0beac02": {
                "nonce": "0x01",
                "balance": "0x00",
                "code": "0x3373fffffffffffffffffffffffffffffffffffffffe14604d57602036146024575f5ffd5b5f35801560495762001fff810690815414603c575f5ffd5b62001fff01545f5260205ff35b5f5ffd5b62001fff42064281555f359062001fff015500",
                "storage": {
                    "0x03e8": "0x03e8"
                }
            },
            "0xebaf50debf10e08302fe4280c32df010463ca297": {
                "nonce": "0x01",
                "balance": "0x0de0b6b3a7431a84",
                "code": "0x",
                "storage": {}
            },
            "0xe574f7ec5305be91332b5b8b12deb8966e05f42d": {
                "nonce": "0x00",
                "balance": "0x00",
                "code": "0x5b61c3506080511015601c5760013b506001608051016080526000565b00",
                "storage": {}
            },
            "0xa18394a87a4c414718bbbee0f695d74cd7a4f9de": {
                "nonce": "0x00",
                "balance": "0x00",
                "code": "0x6001600252604060006040600073e574f7ec5305be91332b5b8b12deb8966e05f42d614e34fa50600160205200",
                "storage": {}
            },
            "0x998a75f1a4457fb7b5872c51f34aa7256f732b1e": {
                "nonce": "0x00",
                "balance": "0x0de0b6b3a7640000",
                "code": "0x604060006040600073a18394a87a4c414718bbbee0f695d74cd7a4f9de620249f0fa60005500",
                "storage": {}
            },
            "0xce21f15217a7b94db9c505a66c9549e803bf141c": {
                "nonce": "0x00",
                "balance": "0x00",
                "code": "0x6001600255600160025200",
                "storage": {}
            },
            "0x2814f1be80fce656766c827bc6e55bfb7a3bc4b9": {
                "nonce": "0x00",
                "balance": "0x00",
                "code": "0x6001600252604060006040600073ce21f15217a7b94db9c505a66c9549e803bf141c6201d4d4fa50600160205200",
                "storage": {}
            },
            "0x2f9ec0afcb4edcd7d38c6a48f5e36038263ca3cd": {
                "nonce": "0x00",
                "balance": "0x0de0b6b3a7640000",
                "code": "0x6040600060406000732814f1be80fce656766c827bc6e55bfb7a3bc4b962055730fa60005500",
                "storage": {
                    "0x00": "0x01"
                }
            },
            "0xc0e4183389eb57f779a986d8c878f89b9401dc8e": {
                "nonce": "0x00",
                "balance": "0x00",
                "code": "0x6000600060006000346000355af1600055600160015500",
                "storage": {
                    "0x00": "0x01",
                    "0x01": "0x01"
                }
            }
        },
        "lastblockhash": "0xf8ca4f98f2c0583813920a5e8ab5932307ca1a86ae1b3fdfee5d3bf3912a7099",
        "config": {
            "network": "Cancun",
            "chainid": "0x01",
            "blobSchedule": {
                "Cancun": {
                    "target": "0x03",
                    "max": "0x06",
                    "baseFeeUpdateFraction": "0x32f0ed"
                }
            }
        },
        "genesisRLP": "0xf9023cf90236a00000000000000000000000000000000000000000000000000000000000000000a01dcc4de8dec75d7aab85b567b6ccd41ad312451b948a7413f0a142fd40d49347940000000000000000000000000000000000000000a05b4780e1fed98bef9c004470c4eb2007051269887e929b19e859050023a01dd9a056e81f171bcc55a6ff8345e692c0f86e5b48e01b996cadc001622fb5e363b421a056e81f171bcc55a6ff8345e692c0f86e5b48e01b996cadc001622fb5e363b421b901000000000000000000000000000000000000000000000000000000000000000000000000000000000000000000000000000000000000000000000000000000000000000000000000000000000000000000000000000000000000000000000000000000000000000000000000000000000000000000000000000000000000000000000000000000000000000000000000000000000000000000000000000000000000000000000000000000000000000000000000000000000000000000000000000000000000000000000000000000000000000000000000000000000000000000000000000000000000000000000000000000000000000000000000000000000080808401c9c380808000a000000000000000000000000000000000000000000000000000000000000000008800000000000000000ba056e81f171bcc55a6ff8345e692c0f86e5b48e01b996cadc001622fb5e363b4218080a00000000000000000000000000000000000000000000000000000000000000000c0c0c0",
        "blocks": [
            {
                "blockHeader": {
                    "parentHash": "0xd9aca06bca1dad867c0b2f3a2e899331afcea978dfacdbc3b4699cf57521172f",
                    "uncleHash": "0x1dcc4de8dec75d7aab85b567b6ccd41ad312451b948a7413f0a142fd40d49347",
                    "coinbase": "0x2adc25665018aa1fe0e6bc666dac8fc2697ff9ba",
                    "stateRoot": "0x6484c1cc120070cc30c6c44cb9cbb1d61b6df4a208b4221a262ed2b748e01765",
                    "transactionsTrie": "0x1b36309b2600fd9614370c6ee2fd6b9b19ce13d94d536342e14b90d166c6845c",
                    "receiptTrie": "0x9db417c0c8adb64483c25185f32f8dd4bf91e2e22eb29915bd102f718dad2b96",
                    "bloom": "0x00000000000000000000000000000000000000000000000000000000000000000000000000000000000000000000000000000000000000000000000000000000000000000000000000000000000000000000000000000000000000000000000000000000000000000000000000000000000000000000000000000000000000000000000000000000000000000000000000000000000000000000000000000000000000000000000000000000000000000000000000000000000000000000000000000000000000000000000000000000000000000000000000000000000000000000000000000000000000000000000000000000000000000000000000000000",
                    "difficulty": "0x00",
                    "number": "0x01",
                    "gasLimit": "0x01c9c380",
                    "gasUsed": "0x034a26",
                    "timestamp": "0x03e8",
                    "extraData": "0x00",
                    "mixHash": "0x0000000000000000000000000000000000000000000000000000000000020000",
                    "nonce": "0x0000000000000000",
                    "baseFeePerGas": "0x0a",
                    "withdrawalsRoot": "0x56e81f171bcc55a6ff8345e692c0f86e5b48e01b996cadc001622fb5e363b421",
                    "blobGasUsed": "0x00",
                    "excessBlobGas": "0x00",
                    "parentBeaconBlockRoot": "0x0000000000000000000000000000000000000000000000000000000000000000",
                    "hash": "0xf8ca4f98f2c0583813920a5e8ab5932307ca1a86ae1b3fdfee5d3bf3912a7099"
                },
                "transactions": [
                    {
                        "type": "0x00",
                        "chainId": "0x01",
                        "nonce": "0x00",
                        "gasPrice": "0x0a",
                        "gasLimit": "0x1a3ec0",
                        "to": "0xc0e4183389eb57f779a986d8c878f89b9401dc8e",
                        "value": "0x00",
                        "data": "0x0000000000000000000000002f9ec0afcb4edcd7d38c6a48f5e36038263ca3cd",
                        "v": "0x25",
                        "r": "0x6d9b5f43e2b0fb3d32c52c189f47dbae8503043bdcec7bb5efe1c932eceaa697",
                        "s": "0x2e0c60c76ce2b811bb5407afe4c4a9a1dec5302799c89cc9405a8e0ee8e7c2c4",
                        "sender": "0xebaf50debf10e08302fe4280c32df010463ca297"
                    }
                ],
                "uncleHeaders": [],
                "withdrawals": [],
                "receipts": [
                    {
                        "transactionHash": "0xea0b4b0ad0079fcd28dcfefb7ce50ce025f32a5b4f60915db1011c1f48e35eae",
                        "type": "0x00",
                        "cumulativeGasUsed": "0x034a26",
                        "bloom": "0x00000000000000000000000000000000000000000000000000000000000000000000000000000000000000000000000000000000000000000000000000000000000000000000000000000000000000000000000000000000000000000000000000000000000000000000000000000000000000000000000000000000000000000000000000000000000000000000000000000000000000000000000000000000000000000000000000000000000000000000000000000000000000000000000000000000000000000000000000000000000000000000000000000000000000000000000000000000000000000000000000000000000000000000000000000000",
                        "logs": [],
                        "status": true,
                        "rlp": "0xf901090183034a26b9010000000000000000000000000000000000000000000000000000000000000000000000000000000000000000000000000000000000000000000000000000000000000000000000000000000000000000000000000000000000000000000000000000000000000000000000000000000000000000000000000000000000000000000000000000000000000000000000000000000000000000000000000000000000000000000000000000000000000000000000000000000000000000000000000000000000000000000000000000000000000000000000000000000000000000000000000000000000000000000000000000000000000000000000000000000000c0"
                    }
                ],
                "rlp": "0xf902c4f9023ba0d9aca06bca1dad867c0b2f3a2e899331afcea978dfacdbc3b4699cf57521172fa01dcc4de8dec75d7aab85b567b6ccd41ad312451b948a7413f0a142fd40d49347942adc25665018aa1fe0e6bc666dac8fc2697ff9baa06484c1cc120070cc30c6c44cb9cbb1d61b6df4a208b4221a262ed2b748e01765a01b36309b2600fd9614370c6ee2fd6b9b19ce13d94d536342e14b90d166c6845ca09db417c0c8adb64483c25185f32f8dd4bf91e2e22eb29915bd102f718dad2b96b901000000000000000000000000000000000000000000000000000000000000000000000000000000000000000000000000000000000000000000000000000000000000000000000000000000000000000000000000000000000000000000000000000000000000000000000000000000000000000000000000000000000000000000000000000000000000000000000000000000000000000000000000000000000000000000000000000000000000000000000000000000000000000000000000000000000000000000000000000000000000000000000000000000000000000000000000000000000000000000000000000000000000000000000000000000000080018401c9c38083034a268203e800a000000000000000000000000000000000000000000000000000000000000200008800000000000000000aa056e81f171bcc55a6ff8345e692c0f86e5b48e01b996cadc001622fb5e363b4218080a00000000000000000000000000000000000000000000000000000000000000000f882f880800a831a3ec094c0e4183389eb57f779a986d8c878f89b9401dc8e80a00000000000000000000000002f9ec0afcb4edcd7d38c6a48f5e36038263ca3cd25a06d9b5f43e2b0fb3d32c52c189f47dbae8503043bdcec7bb5efe1c932eceaa697a02e0c60c76ce2b811bb5407afe4c4a9a1dec5302799c89cc9405a8e0ee8e7c2c4c0c0",
                "blocknumber": "1"
            }
        ],
        "sealEngine": "NoProof",
        "_info": {
            "hash": "0xed65abd4d46f45679a639353a80f742cc82fd64268eb617f6edae3a23af31188",
            "fixture-format": "blockchain_test",
            "comment": "`execution-specs` generated test",
            "filling-transition-tool": "2.19.0",
            "description": "No description available - add a docstring to the python test class or function.",
            "url": "",
            "opcode_count": {}
        }
    },
    "tests/static/state_tests/stStaticCall/static_callcall_00_OOGEFiller.json::static_callcall_00_OOGE[fork_Cancun-blockchain_test_from_state_test-d1]": {
        "network": "Cancun",
        "genesisBlockHeader": {
            "parentHash": "0x0000000000000000000000000000000000000000000000000000000000000000",
            "uncleHash": "0x1dcc4de8dec75d7aab85b567b6ccd41ad312451b948a7413f0a142fd40d49347",
            "coinbase": "0x0000000000000000000000000000000000000000",
            "stateRoot": "0x5b4780e1fed98bef9c004470c4eb2007051269887e929b19e859050023a01dd9",
            "transactionsTrie": "0x56e81f171bcc55a6ff8345e692c0f86e5b48e01b996cadc001622fb5e363b421",
            "receiptTrie": "0x56e81f171bcc55a6ff8345e692c0f86e5b48e01b996cadc001622fb5e363b421",
            "bloom": "0x00000000000000000000000000000000000000000000000000000000000000000000000000000000000000000000000000000000000000000000000000000000000000000000000000000000000000000000000000000000000000000000000000000000000000000000000000000000000000000000000000000000000000000000000000000000000000000000000000000000000000000000000000000000000000000000000000000000000000000000000000000000000000000000000000000000000000000000000000000000000000000000000000000000000000000000000000000000000000000000000000000000000000000000000000000000",
            "difficulty": "0x00",
            "number": "0x00",
            "gasLimit": "0x01c9c380",
            "gasUsed": "0x00",
            "timestamp": "0x00",
            "extraData": "0x00",
            "mixHash": "0x0000000000000000000000000000000000000000000000000000000000000000",
            "nonce": "0x0000000000000000",
            "baseFeePerGas": "0x0b",
            "withdrawalsRoot": "0x56e81f171bcc55a6ff8345e692c0f86e5b48e01b996cadc001622fb5e363b421",
            "blobGasUsed": "0x00",
            "excessBlobGas": "0x00",
            "parentBeaconBlockRoot": "0x0000000000000000000000000000000000000000000000000000000000000000",
            "hash": "0xd9aca06bca1dad867c0b2f3a2e899331afcea978dfacdbc3b4699cf57521172f"
        },
        "pre": {
            "0x000f3df6d732807ef1319fb7b8bb8522d0beac02": {
                "nonce": "0x01",
                "balance": "0x00",
                "code": "0x3373fffffffffffffffffffffffffffffffffffffffe14604d57602036146024575f5ffd5b5f35801560495762001fff810690815414603c575f5ffd5b62001fff01545f5260205ff35b5f5ffd5b62001fff42064281555f359062001fff015500",
                "storage": {}
            },
            "0xebaf50debf10e08302fe4280c32df010463ca297": {
                "nonce": "0x00",
                "balance": "0x0de0b6b3a7640000",
                "code": "0x",
                "storage": {}
            },
            "0xe574f7ec5305be91332b5b8b12deb8966e05f42d": {
                "nonce": "0x00",
                "balance": "0x00",
                "code": "0x5b61c3506080511015601c5760013b506001608051016080526000565b00",
                "storage": {}
            },
            "0xa18394a87a4c414718bbbee0f695d74cd7a4f9de": {
                "nonce": "0x00",
                "balance": "0x00",
                "code": "0x6001600252604060006040600073e574f7ec5305be91332b5b8b12deb8966e05f42d614e34fa50600160205200",
                "storage": {}
            },
            "0x998a75f1a4457fb7b5872c51f34aa7256f732b1e": {
                "nonce": "0x00",
                "balance": "0x0de0b6b3a7640000",
                "code": "0x604060006040600073a18394a87a4c414718bbbee0f695d74cd7a4f9de620249f0fa60005500",
                "storage": {}
            },
            "0xce21f15217a7b94db9c505a66c9549e803bf141c": {
                "nonce": "0x00",
                "balance": "0x00",
                "code": "0x6001600255600160025200",
                "storage": {}
            },
            "0x2814f1be80fce656766c827bc6e55bfb7a3bc4b9": {
                "nonce": "0x00",
                "balance": "0x00",
                "code": "0x6001600252604060006040600073ce21f15217a7b94db9c505a66c9549e803bf141c6201d4d4fa50600160205200",
                "storage": {}
            },
            "0x2f9ec0afcb4edcd7d38c6a48f5e36038263ca3cd": {
                "nonce": "0x00",
                "balance": "0x0de0b6b3a7640000",
                "code": "0x6040600060406000732814f1be80fce656766c827bc6e55bfb7a3bc4b962055730fa60005500",
                "storage": {}
            },
            "0xc0e4183389eb57f779a986d8c878f89b9401dc8e": {
                "nonce": "0x00",
                "balance": "0x00",
                "code": "0x6000600060006000346000355af1600055600160015500",
                "storage": {}
            }
        },
        "postState": {
            "0x000f3df6d732807ef1319fb7b8bb8522d0beac02": {
                "nonce": "0x01",
                "balance": "0x00",
                "code": "0x3373fffffffffffffffffffffffffffffffffffffffe14604d57602036146024575f5ffd5b5f35801560495762001fff810690815414603c575f5ffd5b62001fff01545f5260205ff35b5f5ffd5b62001fff42064281555f359062001fff015500",
                "storage": {
                    "0x03e8": "0x03e8"
                }
            },
            "0xebaf50debf10e08302fe4280c32df010463ca297": {
                "nonce": "0x01",
                "balance": "0x0de0b6b3a7525cc4",
                "code": "0x",
                "storage": {}
            },
            "0xe574f7ec5305be91332b5b8b12deb8966e05f42d": {
                "nonce": "0x00",
                "balance": "0x00",
                "code": "0x5b61c3506080511015601c5760013b506001608051016080526000565b00",
                "storage": {}
            },
            "0xa18394a87a4c414718bbbee0f695d74cd7a4f9de": {
                "nonce": "0x00",
                "balance": "0x00",
                "code": "0x6001600252604060006040600073e574f7ec5305be91332b5b8b12deb8966e05f42d614e34fa50600160205200",
                "storage": {}
            },
            "0x998a75f1a4457fb7b5872c51f34aa7256f732b1e": {
                "nonce": "0x00",
                "balance": "0x0de0b6b3a7640000",
                "code": "0x604060006040600073a18394a87a4c414718bbbee0f695d74cd7a4f9de620249f0fa60005500",
                "storage": {
                    "0x00": "0x01"
                }
            },
            "0xce21f15217a7b94db9c505a66c9549e803bf141c": {
                "nonce": "0x00",
                "balance": "0x00",
                "code": "0x6001600255600160025200",
                "storage": {}
            },
            "0x2814f1be80fce656766c827bc6e55bfb7a3bc4b9": {
                "nonce": "0x00",
                "balance": "0x00",
                "code": "0x6001600252604060006040600073ce21f15217a7b94db9c505a66c9549e803bf141c6201d4d4fa50600160205200",
                "storage": {}
            },
            "0x2f9ec0afcb4edcd7d38c6a48f5e36038263ca3cd": {
                "nonce": "0x00",
                "balance": "0x0de0b6b3a7640000",
                "code": "0x6040600060406000732814f1be80fce656766c827bc6e55bfb7a3bc4b962055730fa60005500",
                "storage": {}
            },
            "0xc0e4183389eb57f779a986d8c878f89b9401dc8e": {
                "nonce": "0x00",
                "balance": "0x00",
                "code": "0x6000600060006000346000355af1600055600160015500",
                "storage": {
                    "0x00": "0x01",
                    "0x01": "0x01"
                }
            }
        },
        "lastblockhash": "0xdf70d665c6e67a07fc347883db12d2bf51e75e7ba6e31669341f1d6d55b0fca0",
        "config": {
            "network": "Cancun",
            "chainid": "0x01",
            "blobSchedule": {
                "Cancun": {
                    "target": "0x03",
                    "max": "0x06",
                    "baseFeeUpdateFraction": "0x32f0ed"
                }
            }
        },
        "genesisRLP": "0xf9023cf90236a00000000000000000000000000000000000000000000000000000000000000000a01dcc4de8dec75d7aab85b567b6ccd41ad312451b948a7413f0a142fd40d49347940000000000000000000000000000000000000000a05b4780e1fed98bef9c004470c4eb2007051269887e929b19e859050023a01dd9a056e81f171bcc55a6ff8345e692c0f86e5b48e01b996cadc001622fb5e363b421a056e81f171bcc55a6ff8345e692c0f86e5b48e01b996cadc001622fb5e363b421b901000000000000000000000000000000000000000000000000000000000000000000000000000000000000000000000000000000000000000000000000000000000000000000000000000000000000000000000000000000000000000000000000000000000000000000000000000000000000000000000000000000000000000000000000000000000000000000000000000000000000000000000000000000000000000000000000000000000000000000000000000000000000000000000000000000000000000000000000000000000000000000000000000000000000000000000000000000000000000000000000000000000000000000000000000000000080808401c9c380808000a000000000000000000000000000000000000000000000000000000000000000008800000000000000000ba056e81f171bcc55a6ff8345e692c0f86e5b48e01b996cadc001622fb5e363b4218080a00000000000000000000000000000000000000000000000000000000000000000c0c0c0",
        "blocks": [
            {
                "blockHeader": {
                    "parentHash": "0xd9aca06bca1dad867c0b2f3a2e899331afcea978dfacdbc3b4699cf57521172f",
                    "uncleHash": "0x1dcc4de8dec75d7aab85b567b6ccd41ad312451b948a7413f0a142fd40d49347",
                    "coinbase": "0x2adc25665018aa1fe0e6bc666dac8fc2697ff9ba",
                    "stateRoot": "0x163d9a35069cae21afd0784b961abe3b4a57a684a5fec85151401b5db7f97e27",
                    "transactionsTrie": "0xdd634096211ac3c75103f98eb29296d49b8d9ce64607eae5297267884ba74317",
                    "receiptTrie": "0x95a809929c3b00c76bbff293088d6742d426425a4327d2534fb1e6d5a3cc6d14",
                    "bloom": "0x00000000000000000000000000000000000000000000000000000000000000000000000000000000000000000000000000000000000000000000000000000000000000000000000000000000000000000000000000000000000000000000000000000000000000000000000000000000000000000000000000000000000000000000000000000000000000000000000000000000000000000000000000000000000000000000000000000000000000000000000000000000000000000000000000000000000000000000000000000000000000000000000000000000000000000000000000000000000000000000000000000000000000000000000000000000",
                    "difficulty": "0x00",
                    "number": "0x01",
                    "gasLimit": "0x01c9c380",
                    "gasUsed": "0x01c386",
                    "timestamp": "0x03e8",
                    "extraData": "0x00",
                    "mixHash": "0x0000000000000000000000000000000000000000000000000000000000020000",
                    "nonce": "0x0000000000000000",
                    "baseFeePerGas": "0x0a",
                    "withdrawalsRoot": "0x56e81f171bcc55a6ff8345e692c0f86e5b48e01b996cadc001622fb5e363b421",
                    "blobGasUsed": "0x00",
                    "excessBlobGas": "0x00",
                    "parentBeaconBlockRoot": "0x0000000000000000000000000000000000000000000000000000000000000000",
                    "hash": "0xdf70d665c6e67a07fc347883db12d2bf51e75e7ba6e31669341f1d6d55b0fca0"
                },
                "transactions": [
                    {
                        "type": "0x00",
                        "chainId": "0x01",
                        "nonce": "0x00",
                        "gasPrice": "0x0a",
                        "gasLimit": "0x1a3ec0",
                        "to": "0xc0e4183389eb57f779a986d8c878f89b9401dc8e",
                        "value": "0x00",
                        "data": "0x000000000000000000000000998a75f1a4457fb7b5872c51f34aa7256f732b1e",
                        "v": "0x26",
                        "r": "0x4db1531025ae9244431a191e1d68c602697bd84b6cb995c83962737215fb03ac",
                        "s": "0x2ce6be04224d1671165f08b5282006781afebbaa4285320ff6c492bacc25b9d4",
                        "sender": "0xebaf50debf10e08302fe4280c32df010463ca297"
                    }
                ],
                "uncleHeaders": [],
                "withdrawals": [],
                "receipts": [
                    {
                        "transactionHash": "0x5eeffdef245dc1a422acc9bd75c0dc71a781d7373a271f08e8847cc4781434b0",
                        "type": "0x00",
                        "cumulativeGasUsed": "0x01c386",
                        "bloom": "0x00000000000000000000000000000000000000000000000000000000000000000000000000000000000000000000000000000000000000000000000000000000000000000000000000000000000000000000000000000000000000000000000000000000000000000000000000000000000000000000000000000000000000000000000000000000000000000000000000000000000000000000000000000000000000000000000000000000000000000000000000000000000000000000000000000000000000000000000000000000000000000000000000000000000000000000000000000000000000000000000000000000000000000000000000000000",
                        "logs": [],
                        "status": true,
                        "rlp": "0xf90109018301c386b9010000000000000000000000000000000000000000000000000000000000000000000000000000000000000000000000000000000000000000000000000000000000000000000000000000000000000000000000000000000000000000000000000000000000000000000000000000000000000000000000000000000000000000000000000000000000000000000000000000000000000000000000000000000000000000000000000000000000000000000000000000000000000000000000000000000000000000000000000000000000000000000000000000000000000000000000000000000000000000000000000000000000000000000000000000000000c0"
                    }
                ],
                "rlp": "0xf902c4f9023ba0d9aca06bca1dad867c0b2f3a2e899331afcea978dfacdbc3b4699cf57521172fa01dcc4de8dec75d7aab85b567b6ccd41ad312451b948a7413f0a142fd40d49347942adc25665018aa1fe0e6bc666dac8fc2697ff9baa0163d9a35069cae21afd0784b961abe3b4a57a684a5fec85151401b5db7f97e27a0dd634096211ac3c75103f98eb29296d49b8d9ce64607eae5297267884ba74317a095a809929c3b00c76bbff293088d6742d426425a4327d2534fb1e6d5a3cc6d14b901000000000000000000000000000000000000000000000000000000000000000000000000000000000000000000000000000000000000000000000000000000000000000000000000000000000000000000000000000000000000000000000000000000000000000000000000000000000000000000000000000000000000000000000000000000000000000000000000000000000000000000000000000000000000000000000000000000000000000000000000000000000000000000000000000000000000000000000000000000000000000000000000000000000000000000000000000000000000000000000000000000000000000000000000000000000080018401c9c3808301c3868203e800a000000000000000000000000000000000000000000000000000000000000200008800000000000000000aa056e81f171bcc55a6ff8345e692c0f86e5b48e01b996cadc001622fb5e363b4218080a00000000000000000000000000000000000000000000000000000000000000000f882f880800a831a3ec094c0e4183389eb57f779a986d8c878f89b9401dc8e80a0000000000000000000000000998a75f1a4457fb7b5872c51f34aa7256f732b1e26a04db1531025ae9244431a191e1d68c602697bd84b6cb995c83962737215fb03aca02ce6be04224d1671165f08b5282006781afebbaa4285320ff6c492bacc25b9d4c0c0",
                "blocknumber": "1"
            }
        ],
        "sealEngine": "NoProof",
        "_info": {
            "hash": "0x6345998ea84a37926780508cfe6afe6cf27d014ec8c6918fddd6e818d12132b3",
            "fixture-format": "blockchain_test",
            "comment": "`execution-specs` generated test",
            "filling-transition-tool": "2.19.0",
            "description": "No description available - add a docstring to the python test class or function.",
            "url": "",
            "opcode_count": {}
        }
    }
}