{
    "tests/static/state_tests/stStaticCall/static_callcodecallcodecall_ABCB_RECURSIVEFiller.json::static_callcodecallcodecall_ABCB_RECURSIVE[fork_Cancun-blockchain_test_from_state_test-]": {
        "network": "Cancun",
        "genesisBlockHeader": {
            "parentHash": "0x0000000000000000000000000000000000000000000000000000000000000000",
            "uncleHash": "0x1dcc4de8dec75d7aab85b567b6ccd41ad312451b948a7413f0a142fd40d49347",
            "coinbase": "0x0000000000000000000000000000000000000000",
            "stateRoot": "0xb7c13fc78a3d4be065c17855174c93366d2712f815fc48bfcd60668a86b83e66",
            "transactionsTrie": "0x56e81f171bcc55a6ff8345e692c0f86e5b48e01b996cadc001622fb5e363b421",
            "receiptTrie": "0x56e81f171bcc55a6ff8345e692c0f86e5b48e01b996cadc001622fb5e363b421",
            "bloom": "0x00000000000000000000000000000000000000000000000000000000000000000000000000000000000000000000000000000000000000000000000000000000000000000000000000000000000000000000000000000000000000000000000000000000000000000000000000000000000000000000000000000000000000000000000000000000000000000000000000000000000000000000000000000000000000000000000000000000000000000000000000000000000000000000000000000000000000000000000000000000000000000000000000000000000000000000000000000000000000000000000000000000000000000000000000000000",
            "difficulty": "0x00",
            "number": "0x00",
            "gasLimit": "0xb2d05e00",
            "gasUsed": "0x00",
            "timestamp": "0x00",
            "extraData": "0x00",
            "mixHash": "0x0000000000000000000000000000000000000000000000000000000000000000",
            "nonce": "0x0000000000000000",
            "baseFeePerGas": "0x0b",
            "withdrawalsRoot": "0x56e81f171bcc55a6ff8345e692c0f86e5b48e01b996cadc001622fb5e363b421",
            "blobGasUsed": "0x00",
            "excessBlobGas": "0x00",
            "parentBeaconBlockRoot": "0x0000000000000000000000000000000000000000000000000000000000000000",
            "hash": "0x82a4e627cefc388c0c865b051597cc07fa0635b61f63687996704e412aa5cbe4"
        },
        "pre": {
            "0x000f3df6d732807ef1319fb7b8bb8522d0beac02": {
                "nonce": "0x01",
                "balance": "0x00",
                "code": "0x3373fffffffffffffffffffffffffffffffffffffffe14604d57602036146024575f5ffd5b5f35801560495762001fff810690815414603c575f5ffd5b62001fff01545f5260205ff35b5f5ffd5b62001fff42064281555f359062001fff015500",
                "storage": {}
            },
            "0xebaf50debf10e08302fe4280c32df010463ca297": {
                "nonce": "0x00",
                "balance": "0x0de0b6b3a7640000",
                "code": "0x",
                "storage": {}
            },
            "0x56325d37cdce6b5858e63b1f0a691db81d65e6dd": {
                "nonce": "0x00",
                "balance": "0x0de0b6b3a7640000",
                "code": "0x6040600060406000732c81f66472668c71014ce3a9537b033db57af77b63017d7840f4600055600160015500",
                "storage": {}
            },
            "0x2c81f66472668c71014ce3a9537b033db57af77b": {
                "nonce": "0x00",
                "balance": "0x02540be400",
                "code": "0x6040600060406000731e2229d0f325b81b81b8b14f2d239ff9742683c0620f4240f400",
                "storage": {}
            },
            "0x1e2229d0f325b81b81b8b14f2d239ff9742683c0": {
                "nonce": "0x00",
                "balance": "0x02540be400",
                "code": "0x6040600060406000732c81f66472668c71014ce3a9537b033db57af77b6207a120fa00",
                "storage": {}
            }
        },
        "postState": {
            "0x000f3df6d732807ef1319fb7b8bb8522d0beac02": {
                "nonce": "0x01",
                "balance": "0x00",
                "code": "0x3373fffffffffffffffffffffffffffffffffffffffe14604d57602036146024575f5ffd5b5f35801560495762001fff810690815414603c575f5ffd5b62001fff01545f5260205ff35b5f5ffd5b62001fff42064281555f359062001fff015500",
                "storage": {
                    "0x03e8": "0x03e8"
                }
            },
            "0xebaf50debf10e08302fe4280c32df010463ca297": {
                "nonce": "0x01",
                "balance": "0x0de0b6b3a75435bc",
                "code": "0x",
                "storage": {}
            },
            "0x56325d37cdce6b5858e63b1f0a691db81d65e6dd": {
                "nonce": "0x00",
                "balance": "0x0de0b6b3a7640000",
                "code": "0x6040600060406000732c81f66472668c71014ce3a9537b033db57af77b63017d7840f4600055600160015500",
                "storage": {
                    "0x00": "0x01",
                    "0x01": "0x01"
                }
            },
            "0x2c81f66472668c71014ce3a9537b033db57af77b": {
                "nonce": "0x00",
                "balance": "0x02540be400",
                "code": "0x6040600060406000731e2229d0f325b81b81b8b14f2d239ff9742683c0620f4240f400",
                "storage": {}
            },
            "0x1e2229d0f325b81b81b8b14f2d239ff9742683c0": {
                "nonce": "0x00",
                "balance": "0x02540be400",
                "code": "0x6040600060406000732c81f66472668c71014ce3a9537b033db57af77b6207a120fa00",
                "storage": {}
            }
        },
        "lastblockhash": "0x51f74a66d3edcfb1d6d510b9adbc2314cf011f03643d3b5f59daf8eb4de8fb6f",
        "config": {
            "network": "Cancun",
            "chainid": "0x01",
            "blobSchedule": {
                "Cancun": {
                    "target": "0x03",
                    "max": "0x06",
                    "baseFeeUpdateFraction": "0x32f0ed"
                }
            }
        },
        "genesisRLP": "0xf9023cf90236a00000000000000000000000000000000000000000000000000000000000000000a01dcc4de8dec75d7aab85b567b6ccd41ad312451b948a7413f0a142fd40d49347940000000000000000000000000000000000000000a0b7c13fc78a3d4be065c17855174c93366d2712f815fc48bfcd60668a86b83e66a056e81f171bcc55a6ff8345e692c0f86e5b48e01b996cadc001622fb5e363b421a056e81f171bcc55a6ff8345e692c0f86e5b48e01b996cadc001622fb5e363b421b9010000000000000000000000000000000000000000000000000000000000000000000000000000000000000000000000000000000000000000000000000000000000000000000000000000000000000000000000000000000000000000000000000000000000000000000000000000000000000000000000000000000000000000000000000000000000000000000000000000000000000000000000000000000000000000000000000000000000000000000000000000000000000000000000000000000000000000000000000000000000000000000000000000000000000000000000000000000000000000000000000000000000000000000000000000000000808084b2d05e00808000a000000000000000000000000000000000000000000000000000000000000000008800000000000000000ba056e81f171bcc55a6ff8345e692c0f86e5b48e01b996cadc001622fb5e363b4218080a00000000000000000000000000000000000000000000000000000000000000000c0c0c0",
        "blocks": [
            {
                "blockHeader": {
                    "parentHash": "0x82a4e627cefc388c0c865b051597cc07fa0635b61f63687996704e412aa5cbe4",
                    "uncleHash": "0x1dcc4de8dec75d7aab85b567b6ccd41ad312451b948a7413f0a142fd40d49347",
                    "coinbase": "0x2adc25665018aa1fe0e6bc666dac8fc2697ff9ba",
                    "stateRoot": "0xe2de13c32f7a8c2257af522ad4fa725b180493e7aad40423b9eb5353b51a9744",
                    "transactionsTrie": "0xb20b8fab52523924aa1cbd972bd97bb3f5724baf4135ae1479fa639ea3a6a902",
                    "receiptTrie": "0x39a3970b44a63a808b12a5514943549611c22b07544e3c1bf42314e4dc25e230",
                    "bloom": "0x00000000000000000000000000000000000000000000000000000000000000000000000000000000000000000000000000000000000000000000000000000000000000000000000000000000000000000000000000000000000000000000000000000000000000000000000000000000000000000000000000000000000000000000000000000000000000000000000000000000000000000000000000000000000000000000000000000000000000000000000000000000000000000000000000000000000000000000000000000000000000000000000000000000000000000000000000000000000000000000000000000000000000000000000000000000",
                    "difficulty": "0x00",
                    "number": "0x01",
                    "gasLimit": "0xb2d05e00",
                    "gasUsed": "0x01943a",
                    "timestamp": "0x03e8",
                    "extraData": "0x00",
                    "mixHash": "0x0000000000000000000000000000000000000000000000000000000000020000",
                    "nonce": "0x0000000000000000",
                    "baseFeePerGas": "0x0a",
                    "withdrawalsRoot": "0x56e81f171bcc55a6ff8345e692c0f86e5b48e01b996cadc001622fb5e363b421",
                    "blobGasUsed": "0x00",
                    "excessBlobGas": "0x00",
                    "parentBeaconBlockRoot": "0x0000000000000000000000000000000000000000000000000000000000000000",
                    "hash": "0x51f74a66d3edcfb1d6d510b9adbc2314cf011f03643d3b5f59daf8eb4de8fb6f"
                },
                "transactions": [
                    {
                        "type": "0x00",
                        "chainId": "0x01",
                        "nonce": "0x00",
                        "gasPrice": "0x0a",
                        "gasLimit": "0x0927c0",
                        "to": "0x56325d37cdce6b5858e63b1f0a691db81d65e6dd",
                        "value": "0x00",
                        "data": "0x",
                        "v": "0x25",
                        "r": "0xf7f844aa86d9803c368fc73709b6e48a15afe486e3167ff9f3686dcd9c2540e6",
                        "s": "0x756f0aaf413558474d365b6fc040817eb875c0400074874d301cd44a11ac2284",
                        "sender": "0xebaf50debf10e08302fe4280c32df010463ca297"
                    }
                ],
                "uncleHeaders": [],
                "withdrawals": [],
                "receipts": [
                    {
                        "transactionHash": "0x29528339530f6fee5608cf5f1db2accbd8a5d0cb69ed46cd8b2a00da869f049f",
                        "type": "0x00",
                        "cumulativeGasUsed": "0x01943a",
                        "bloom": "0x00000000000000000000000000000000000000000000000000000000000000000000000000000000000000000000000000000000000000000000000000000000000000000000000000000000000000000000000000000000000000000000000000000000000000000000000000000000000000000000000000000000000000000000000000000000000000000000000000000000000000000000000000000000000000000000000000000000000000000000000000000000000000000000000000000000000000000000000000000000000000000000000000000000000000000000000000000000000000000000000000000000000000000000000000000000",
                        "logs": [],
                        "status": true,
                        "rlp": "0xf90109018301943ab9010000000000000000000000000000000000000000000000000000000000000000000000000000000000000000000000000000000000000000000000000000000000000000000000000000000000000000000000000000000000000000000000000000000000000000000000000000000000000000000000000000000000000000000000000000000000000000000000000000000000000000000000000000000000000000000000000000000000000000000000000000000000000000000000000000000000000000000000000000000000000000000000000000000000000000000000000000000000000000000000000000000000000000000000000000000000c0"
                    }
                ],
                "rlp": "0xf902a4f9023ba082a4e627cefc388c0c865b051597cc07fa0635b61f63687996704e412aa5cbe4a01dcc4de8dec75d7aab85b567b6ccd41ad312451b948a7413f0a142fd40d49347942adc25665018aa1fe0e6bc666dac8fc2697ff9baa0e2de13c32f7a8c2257af522ad4fa725b180493e7aad40423b9eb5353b51a9744a0b20b8fab52523924aa1cbd972bd97bb3f5724baf4135ae1479fa639ea3a6a902a039a3970b44a63a808b12a5514943549611c22b07544e3c1bf42314e4dc25e230b9010000000000000000000000000000000000000000000000000000000000000000000000000000000000000000000000000000000000000000000000000000000000000000000000000000000000000000000000000000000000000000000000000000000000000000000000000000000000000000000000000000000000000000000000000000000000000000000000000000000000000000000000000000000000000000000000000000000000000000000000000000000000000000000000000000000000000000000000000000000000000000000000000000000000000000000000000000000000000000000000000000000000000000000000000000000000800184b2d05e008301943a8203e800a000000000000000000000000000000000000000000000000000000000000200008800000000000000000aa056e81f171bcc55a6ff8345e692c0f86e5b48e01b996cadc001622fb5e363b4218080a00000000000000000000000000000000000000000000000000000000000000000f862f860800a830927c09456325d37cdce6b5858e63b1f0a691db81d65e6dd808025a0f7f844aa86d9803c368fc73709b6e48a15afe486e3167ff9f3686dcd9c2540e6a0756f0aaf413558474d365b6fc040817eb875c0400074874d301cd44a11ac2284c0c0",
                "blocknumber": "1"
            }
        ],
        "sealEngine": "NoProof",
        "_info": {
            "hash": "0x6ca51b5c4f5270ca29c49c75409e850e6de1fe07ef6b44b7e856db94fbda91f5",
            "fixture-format": "blockchain_test",
            "comment": "`execution-specs` generated test",
            "filling-transition-tool": "2.19.0",
            "description": "No description available - add a docstring to the python test class or function.",
            "url": "",
            "opcode_count": {}
        }
    }
}