{
    "tests/static/state_tests/stStaticCall/static_callcallcodecallcode_011_SuicideMiddle2Filler.json::static_callcallcodecallcode_011_SuicideMiddle2[fork_Cancun-blockchain_test_from_state_test-]": {
        "network": "Cancun",
        "genesisBlockHeader": {
            "parentHash": "0x0000000000000000000000000000000000000000000000000000000000000000",
            "uncleHash": "0x1dcc4de8dec75d7aab85b567b6ccd41ad312451b948a7413f0a142fd40d49347",
            "coinbase": "0x0000000000000000000000000000000000000000",
            "stateRoot": "0x81c3658a7e8d089247e15d79fe10d2321bc31f61a95751ea7d144a0ea9af48e3",
            "transactionsTrie": "0x56e81f171bcc55a6ff8345e692c0f86e5b48e01b996cadc001622fb5e363b421",
            "receiptTrie": "0x56e81f171bcc55a6ff8345e692c0f86e5b48e01b996cadc001622fb5e363b421",
            "bloom": "0x00000000000000000000000000000000000000000000000000000000000000000000000000000000000000000000000000000000000000000000000000000000000000000000000000000000000000000000000000000000000000000000000000000000000000000000000000000000000000000000000000000000000000000000000000000000000000000000000000000000000000000000000000000000000000000000000000000000000000000000000000000000000000000000000000000000000000000000000000000000000000000000000000000000000000000000000000000000000000000000000000000000000000000000000000000000",
            "difficulty": "0x00",
            "number": "0x00",
            "gasLimit": "0x01c9c380",
            "gasUsed": "0x00",
            "timestamp": "0x00",
            "extraData": "0x00",
            "mixHash": "0x0000000000000000000000000000000000000000000000000000000000000000",
            "nonce": "0x0000000000000000",
            "baseFeePerGas": "0x0b",
            "withdrawalsRoot": "0x56e81f171bcc55a6ff8345e692c0f86e5b48e01b996cadc001622fb5e363b421",
            "blobGasUsed": "0x00",
            "excessBlobGas": "0x00",
            "parentBeaconBlockRoot": "0x0000000000000000000000000000000000000000000000000000000000000000",
            "hash": "0xb011b5ef5f9d30ff6bf949a8fc0ab983f5f3023a45e12c4c38cbc9adef712a83"
        },
        "pre": {
            "0x000f3df6d732807ef1319fb7b8bb8522d0beac02": {
                "nonce": "0x01",
                "balance": "0x00",
                "code": "0x3373fffffffffffffffffffffffffffffffffffffffe14604d57602036146024575f5ffd5b5f35801560495762001fff810690815414603c575f5ffd5b62001fff01545f5260205ff35b5f5ffd5b62001fff42064281555f359062001fff015500",
                "storage": {}
            },
            "0xebaf50debf10e08302fe4280c32df010463ca297": {
                "nonce": "0x00",
                "balance": "0x0de0b6b3a7640000",
                "code": "0x",
                "storage": {}
            },
            "0x48e2d4c0b593bfebe5ddb4f13aa355b8bd83ddd3": {
                "nonce": "0x00",
                "balance": "0x02540be400",
                "code": "0x600160035200",
                "storage": {}
            },
            "0xa2ca69f1cf9ffa7a761899e8dd2f941d40326fd6": {
                "nonce": "0x00",
                "balance": "0x0de0b6b3a7640000",
                "code": "0x604060006040600073d009af172f5fae9ccfe64264207c2fe773e0764f620249f0fa60005500",
                "storage": {}
            },
            "0xd009af172f5fae9ccfe64264207c2fe773e0764f": {
                "nonce": "0x00",
                "balance": "0x02540be400",
                "code": "0x60016003526040600060406000600073dcad05283eb3153ca2200073454e8303c30805ec620186a0f250600160035200",
                "storage": {}
            },
            "0xdcad05283eb3153ca2200073454e8303c30805ec": {
                "nonce": "0x00",
                "balance": "0x02540be400",
                "code": "0x73a2ca69f1cf9ffa7a761899e8dd2f941d40326fd6ff604060006040600060007348e2d4c0b593bfebe5ddb4f13aa355b8bd83ddd361c350f250600160035200",
                "storage": {}
            }
        },
        "postState": {
            "0x000f3df6d732807ef1319fb7b8bb8522d0beac02": {
                "nonce": "0x01",
                "balance": "0x00",
                "code": "0x3373fffffffffffffffffffffffffffffffffffffffe14604d57602036146024575f5ffd5b5f35801560495762001fff810690815414603c575f5ffd5b62001fff01545f5260205ff35b5f5ffd5b62001fff42064281555f359062001fff015500",
                "storage": {
                    "0x03e8": "0x03e8"
                }
            },
            "0xebaf50debf10e08302fe4280c32df010463ca297": {
                "nonce": "0x01",
                "balance": "0x0de0b6b3a74d5c24",
                "code": "0x",
                "storage": {}
            },
            "0x48e2d4c0b593bfebe5ddb4f13aa355b8bd83ddd3": {
                "nonce": "0x00",
                "balance": "0x02540be400",
                "code": "0x600160035200",
                "storage": {}
            },
            "0xa2ca69f1cf9ffa7a761899e8dd2f941d40326fd6": {
                "nonce": "0x00",
                "balance": "0x0de0b6b3a7640000",
                "code": "0x604060006040600073d009af172f5fae9ccfe64264207c2fe773e0764f620249f0fa60005500",
                "storage": {
                    "0x00": "0x01"
                }
            },
            "0xd009af172f5fae9ccfe64264207c2fe773e0764f": {
                "nonce": "0x00",
                "balance": "0x02540be400",
                "code": "0x60016003526040600060406000600073dcad05283eb3153ca2200073454e8303c30805ec620186a0f250600160035200",
                "storage": {}
            },
            "0xdcad05283eb3153ca2200073454e8303c30805ec": {
                "nonce": "0x00",
                "balance": "0x02540be400",
                "code": "0x73a2ca69f1cf9ffa7a761899e8dd2f941d40326fd6ff604060006040600060007348e2d4c0b593bfebe5ddb4f13aa355b8bd83ddd361c350f250600160035200",
                "storage": {}
            }
        },
        "lastblockhash": "0x700a56f0cca17e9c26a419860619e023db4196c43a737cfe3a78daed0f5f817d",
        "config": {
            "network": "Cancun",
            "chainid": "0x01",
            "blobSchedule": {
                "Cancun": {
                    "target": "0x03",
                    "max": "0x06",
                    "baseFeeUpdateFraction": "0x32f0ed"
                }
            }
        },
        "genesisRLP": "0xf9023cf90236a00000000000000000000000000000000000000000000000000000000000000000a01dcc4de8dec75d7aab85b567b6ccd41ad312451b948a7413f0a142fd40d49347940000000000000000000000000000000000000000a081c3658a7e8d089247e15d79fe10d2321bc31f61a95751ea7d144a0ea9af48e3a056e81f171bcc55a6ff8345e692c0f86e5b48e01b996cadc001622fb5e363b421a056e81f171bcc55a6ff8345e692c0f86e5b48e01b996cadc001622fb5e363b421b901000000000000000000000000000000000000000000000000000000000000000000000000000000000000000000000000000000000000000000000000000000000000000000000000000000000000000000000000000000000000000000000000000000000000000000000000000000000000000000000000000000000000000000000000000000000000000000000000000000000000000000000000000000000000000000000000000000000000000000000000000000000000000000000000000000000000000000000000000000000000000000000000000000000000000000000000000000000000000000000000000000000000000000000000000000000080808401c9c380808000a000000000000000000000000000000000000000000000000000000000000000008800000000000000000ba056e81f171bcc55a6ff8345e692c0f86e5b48e01b996cadc001622fb5e363b4218080a00000000000000000000000000000000000000000000000000000000000000000c0c0c0",
        "blocks": [
            {
                "blockHeader": {
                    "parentHash": "0xb011b5ef5f9d30ff6bf949a8fc0ab983f5f3023a45e12c4c38cbc9adef712a83",
                    "uncleHash": "0x1dcc4de8dec75d7aab85b567b6ccd41ad312451b948a7413f0a142fd40d49347",
                    "coinbase": "0x2adc25665018aa1fe0e6bc666dac8fc2697ff9ba",
                    "stateRoot": "0x92c2b69dcd8d8f06bce4a0d36614c3741833830f604fe9022d3142cf76d3eba4",
                    "transactionsTrie": "0x6859f025dfe4ac350ae40e0e1d5f685b951c7a79d8ac751c39a1e2e8f38fec4c",
                    "receiptTrie": "0x768ad775ae1a25f12ec05504ec356f344f341f3c831b1d9a6d869ba2c1237e9c",
                    "bloom": "0x00000000000000000000000000000000000000000000000000000000000000000000000000000000000000000000000000000000000000000000000000000000000000000000000000000000000000000000000000000000000000000000000000000000000000000000000000000000000000000000000000000000000000000000000000000000000000000000000000000000000000000000000000000000000000000000000000000000000000000000000000000000000000000000000000000000000000000000000000000000000000000000000000000000000000000000000000000000000000000000000000000000000000000000000000000000",
                    "difficulty": "0x00",
                    "number": "0x01",
                    "gasLimit": "0x01c9c380",
                    "gasUsed": "0x024396",
                    "timestamp": "0x03e8",
                    "extraData": "0x00",
                    "mixHash": "0x0000000000000000000000000000000000000000000000000000000000020000",
                    "nonce": "0x0000000000000000",
                    "baseFeePerGas": "0x0a",
                    "withdrawalsRoot": "0x56e81f171bcc55a6ff8345e692c0f86e5b48e01b996cadc001622fb5e363b421",
                    "blobGasUsed": "0x00",
                    "excessBlobGas": "0x00",
                    "parentBeaconBlockRoot": "0x0000000000000000000000000000000000000000000000000000000000000000",
                    "hash": "0x700a56f0cca17e9c26a419860619e023db4196c43a737cfe3a78daed0f5f817d"
                },
                "transactions": [
                    {
                        "type": "0x00",
                        "chainId": "0x01",
                        "nonce": "0x00",
                        "gasPrice": "0x0a",
                        "gasLimit": "0x2dc6c0",
                        "to": "0xa2ca69f1cf9ffa7a761899e8dd2f941d40326fd6",
                        "value": "0x00",
                        "data": "0x",
                        "v": "0x26",
                        "r": "0x646c549debd2a5e08841bf80e89a8d582b0008166e948d5492b47106271a16de",
                        "s": "0x43bbc4eb2e19b4309c7e9a2dbc570b6accb8d30fb3f556d28156d9b759bc6a1f",
                        "sender": "0xebaf50debf10e08302fe4280c32df010463ca297"
                    }
                ],
                "uncleHeaders": [],
                "withdrawals": [],
                "receipts": [
                    {
                        "transactionHash": "0x6f4c1c44535d9421bd4aaee834719637379896282d53d31e3bd0979f276fc04d",
                        "type": "0x00",
                        "cumulativeGasUsed": "0x024396",
                        "bloom": "0x00000000000000000000000000000000000000000000000000000000000000000000000000000000000000000000000000000000000000000000000000000000000000000000000000000000000000000000000000000000000000000000000000000000000000000000000000000000000000000000000000000000000000000000000000000000000000000000000000000000000000000000000000000000000000000000000000000000000000000000000000000000000000000000000000000000000000000000000000000000000000000000000000000000000000000000000000000000000000000000000000000000000000000000000000000000",
                        "logs": [],
                        "status": true,
                        "rlp": "0xf901090183024396b9010000000000000000000000000000000000000000000000000000000000000000000000000000000000000000000000000000000000000000000000000000000000000000000000000000000000000000000000000000000000000000000000000000000000000000000000000000000000000000000000000000000000000000000000000000000000000000000000000000000000000000000000000000000000000000000000000000000000000000000000000000000000000000000000000000000000000000000000000000000000000000000000000000000000000000000000000000000000000000000000000000000000000000000000000000000000c0"
                    }
                ],
                "rlp": "0xf902a4f9023ba0b011b5ef5f9d30ff6bf949a8fc0ab983f5f3023a45e12c4c38cbc9adef712a83a01dcc4de8dec75d7aab85b567b6ccd41ad312451b948a7413f0a142fd40d49347942adc25665018aa1fe0e6bc666dac8fc2697ff9baa092c2b69dcd8d8f06bce4a0d36614c3741833830f604fe9022d3142cf76d3eba4a06859f025dfe4ac350ae40e0e1d5f685b951c7a79d8ac751c39a1e2e8f38fec4ca0768ad775ae1a25f12ec05504ec356f344f341f3c831b1d9a6d869ba2c1237e9cb901000000000000000000000000000000000000000000000000000000000000000000000000000000000000000000000000000000000000000000000000000000000000000000000000000000000000000000000000000000000000000000000000000000000000000000000000000000000000000000000000000000000000000000000000000000000000000000000000000000000000000000000000000000000000000000000000000000000000000000000000000000000000000000000000000000000000000000000000000000000000000000000000000000000000000000000000000000000000000000000000000000000000000000000000000000000080018401c9c380830243968203e800a000000000000000000000000000000000000000000000000000000000000200008800000000000000000aa056e81f171bcc55a6ff8345e692c0f86e5b48e01b996cadc001622fb5e363b4218080a00000000000000000000000000000000000000000000000000000000000000000f862f860800a832dc6c094a2ca69f1cf9ffa7a761899e8dd2f941d40326fd6808026a0646c549debd2a5e08841bf80e89a8d582b0008166e948d5492b47106271a16dea043bbc4eb2e19b4309c7e9a2dbc570b6accb8d30fb3f556d28156d9b759bc6a1fc0c0",
                "blocknumber": "1"
            }
        ],
        "sealEngine": "NoProof",
        "_info": {
            "hash": "0xe6a3059fb73f64cd400748c007b05ed1f546415a293791597cf338614a6405d4",
            "fixture-format": "blockchain_test",
            "comment": "`execution-specs` generated test",
            "filling-transition-tool": "2.19.0",
            "description": "No description available - add a docstring to the python test class or function.",
            "url": "",
            "opcode_count": {}
        }
    }
}