{
    "tests/static/state_tests/stStaticCall/static_callcodecallcallcode_101Filler.json::static_callcodecallcallcode_101[fork_Cancun-blockchain_test_from_state_test-]": {
        "network": "Cancun",
        "genesisBlockHeader": {
            "parentHash": "0x0000000000000000000000000000000000000000000000000000000000000000",
            "uncleHash": "0x1dcc4de8dec75d7aab85b567b6ccd41ad312451b948a7413f0a142fd40d49347",
            "coinbase": "0x0000000000000000000000000000000000000000",
            "stateRoot": "0xb37d47387e4a3f8766989f0f1ebda42de24bcbccc143d449cd28431a3b9d2d78",
            "transactionsTrie": "0x56e81f171bcc55a6ff8345e692c0f86e5b48e01b996cadc001622fb5e363b421",
            "receiptTrie": "0x56e81f171bcc55a6ff8345e692c0f86e5b48e01b996cadc001622fb5e363b421",
            "bloom": "0x00000000000000000000000000000000000000000000000000000000000000000000000000000000000000000000000000000000000000000000000000000000000000000000000000000000000000000000000000000000000000000000000000000000000000000000000000000000000000000000000000000000000000000000000000000000000000000000000000000000000000000000000000000000000000000000000000000000000000000000000000000000000000000000000000000000000000000000000000000000000000000000000000000000000000000000000000000000000000000000000000000000000000000000000000000000",
            "difficulty": "0x00",
            "number": "0x00",
            "gasLimit": "0x01c9c380",
            "gasUsed": "0x00",
            "timestamp": "0x00",
            "extraData": "0x00",
            "mixHash": "0x0000000000000000000000000000000000000000000000000000000000000000",
            "nonce": "0x0000000000000000",
            "baseFeePerGas": "0x0b",
            "withdrawalsRoot": "0x56e81f171bcc55a6ff8345e692c0f86e5b48e01b996cadc001622fb5e363b421",
            "blobGasUsed": "0x00",
            "excessBlobGas": "0x00",
            "parentBeaconBlockRoot": "0x0000000000000000000000000000000000000000000000000000000000000000",
            "hash": "0xbe1fc5e38b92a2121d3ecdaba2dccab0fd7b34109e8395f39d165345ae5c188f"
        },
        "pre": {
            "0x000f3df6d732807ef1319fb7b8bb8522d0beac02": {
                "nonce": "0x01",
                "balance": "0x00",
                "code": "0x3373fffffffffffffffffffffffffffffffffffffffe14604d57602036146024575f5ffd5b5f35801560495762001fff810690815414603c575f5ffd5b62001fff01545f5260205ff35b5f5ffd5b62001fff42064281555f359062001fff015500",
                "storage": {}
            },
            "0xebaf50debf10e08302fe4280c32df010463ca297": {
                "nonce": "0x00",
                "balance": "0x0de0b6b3a7640000",
                "code": "0x",
                "storage": {}
            },
            "0x2a142c79a9b097c111ce945214226126b75e332c": {
                "nonce": "0x00",
                "balance": "0x00",
                "code": "0x600160015200",
                "storage": {}
            },
            "0x999e3c988e5fdf24adf774e3502f0095e6530b72": {
                "nonce": "0x00",
                "balance": "0x0de0b6b3a7640000",
                "code": "0x60016001526040600060406000732a142c79a9b097c111ce945214226126b75e332c6203d090f4506001601f5200",
                "storage": {}
            },
            "0xf553d6b8627c39028bd1e05a4f55e2a4b3042a1d": {
                "nonce": "0x00",
                "balance": "0x0de0b6b3a7640000",
                "code": "0x6001600152604060006040600073999e3c988e5fdf24adf774e3502f0095e6530b72620493e0fa506001601f5200",
                "storage": {}
            },
            "0x4eef7e2b5ae9be0fc5b43dc4fe39195a1ae10fc4": {
                "nonce": "0x00",
                "balance": "0x0de0b6b3a7640000",
                "code": "0x604060006040600073f553d6b8627c39028bd1e05a4f55e2a4b3042a1d62055730f4600055600160015500",
                "storage": {}
            }
        },
        "postState": {
            "0x000f3df6d732807ef1319fb7b8bb8522d0beac02": {
                "nonce": "0x01",
                "balance": "0x00",
                "code": "0x3373fffffffffffffffffffffffffffffffffffffffe14604d57602036146024575f5ffd5b5f35801560495762001fff810690815414603c575f5ffd5b62001fff01545f5260205ff35b5f5ffd5b62001fff42064281555f359062001fff015500",
                "storage": {
                    "0x03e8": "0x03e8"
                }
            },
            "0xebaf50debf10e08302fe4280c32df010463ca297": {
                "nonce": "0x01",
                "balance": "0x0de0b6b3a758d720",
                "code": "0x",
                "storage": {}
            },
            "0x2a142c79a9b097c111ce945214226126b75e332c": {
                "nonce": "0x00",
                "balance": "0x00",
                "code": "0x600160015200",
                "storage": {}
            },
            "0x999e3c988e5fdf24adf774e3502f0095e6530b72": {
                "nonce": "0x00",
                "balance": "0x0de0b6b3a7640000",
                "code": "0x60016001526040600060406000732a142c79a9b097c111ce945214226126b75e332c6203d090f4506001601f5200",
                "storage": {}
            },
            "0xf553d6b8627c39028bd1e05a4f55e2a4b3042a1d": {
                "nonce": "0x00",
                "balance": "0x0de0b6b3a7640000",
                "code": "0x6001600152604060006040600073999e3c988e5fdf24adf774e3502f0095e6530b72620493e0fa506001601f5200",
                "storage": {}
            },
            "0x4eef7e2b5ae9be0fc5b43dc4fe39195a1ae10fc4": {
                "nonce": "0x00",
                "balance": "0x0de0b6b3a7640000",
                "code": "0x604060006040600073f553d6b8627c39028bd1e05a4f55e2a4b3042a1d62055730f4600055600160015500",
                "storage": {
                    "0x00": "0x01",
                    "0x01": "0x01"
                }
            }
        },
        "lastblockhash": "0xf4232d27a562018cb70984b9b53bf323369fe39fda928b5d5b13cbaa11865197",
        "config": {
            "network": "Cancun",
            "chainid": "0x01",
            "blobSchedule": {
                "Cancun": {
                    "target": "0x03",
                    "max": "0x06",
                    "baseFeeUpdateFraction": "0x32f0ed"
                }
            }
        },
        "genesisRLP": "0xf9023cf90236a00000000000000000000000000000000000000000000000000000000000000000a01dcc4de8dec75d7aab85b567b6ccd41ad312451b948a7413f0a142fd40d49347940000000000000000000000000000000000000000a0b37d47387e4a3f8766989f0f1ebda42de24bcbccc143d449cd28431a3b9d2d78a056e81f171bcc55a6ff8345e692c0f86e5b48e01b996cadc001622fb5e363b421a056e81f171bcc55a6ff8345e692c0f86e5b48e01b996cadc001622fb5e363b421b901000000000000000000000000000000000000000000000000000000000000000000000000000000000000000000000000000000000000000000000000000000000000000000000000000000000000000000000000000000000000000000000000000000000000000000000000000000000000000000000000000000000000000000000000000000000000000000000000000000000000000000000000000000000000000000000000000000000000000000000000000000000000000000000000000000000000000000000000000000000000000000000000000000000000000000000000000000000000000000000000000000000000000000000000000000000080808401c9c380808000a000000000000000000000000000000000000000000000000000000000000000008800000000000000000ba056e81f171bcc55a6ff8345e692c0f86e5b48e01b996cadc001622fb5e363b4218080a00000000000000000000000000000000000000000000000000000000000000000c0c0c0",
        "blocks": [
            {
                "blockHeader": {
                    "parentHash": "0xbe1fc5e38b92a2121d3ecdaba2dccab0fd7b34109e8395f39d165345ae5c188f",
                    "uncleHash": "0x1dcc4de8dec75d7aab85b567b6ccd41ad312451b948a7413f0a142fd40d49347",
                    "coinbase": "0x2adc25665018aa1fe0e6bc666dac8fc2697ff9ba",
                    "stateRoot": "0x1f30c392274c2c8d5e552c9a46b6d0e7963f5b90ad4ffddb50c665feb2918978",
                    "transactionsTrie": "0xf91540c44e755a07f86f6497402ef52b9021c12a873e8502020f2372dec432b4",
                    "receiptTrie": "0x6dfad24f94b10b1f8ddc444e23b3be47e085c37d7ad260dc7472fb437f1fbc6e",
                    "bloom": "0x00000000000000000000000000000000000000000000000000000000000000000000000000000000000000000000000000000000000000000000000000000000000000000000000000000000000000000000000000000000000000000000000000000000000000000000000000000000000000000000000000000000000000000000000000000000000000000000000000000000000000000000000000000000000000000000000000000000000000000000000000000000000000000000000000000000000000000000000000000000000000000000000000000000000000000000000000000000000000000000000000000000000000000000000000000000",
                    "difficulty": "0x00",
                    "number": "0x01",
                    "gasLimit": "0x01c9c380",
                    "gasUsed": "0x011db0",
                    "timestamp": "0x03e8",
                    "extraData": "0x00",
                    "mixHash": "0x0000000000000000000000000000000000000000000000000000000000020000",
                    "nonce": "0x0000000000000000",
                    "baseFeePerGas": "0x0a",
                    "withdrawalsRoot": "0x56e81f171bcc55a6ff8345e692c0f86e5b48e01b996cadc001622fb5e363b421",
                    "blobGasUsed": "0x00",
                    "excessBlobGas": "0x00",
                    "parentBeaconBlockRoot": "0x0000000000000000000000000000000000000000000000000000000000000000",
                    "hash": "0xf4232d27a562018cb70984b9b53bf323369fe39fda928b5d5b13cbaa11865197"
                },
                "transactions": [
                    {
                        "type": "0x00",
                        "chainId": "0x01",
                        "nonce": "0x00",
                        "gasPrice": "0x0a",
                        "gasLimit": "0x2dc6c0",
                        "to": "0x4eef7e2b5ae9be0fc5b43dc4fe39195a1ae10fc4",
                        "value": "0x00",
                        "data": "0x",
                        "v": "0x26",
                        "r": "0xa6100d2ec9f7521929d80975bb74785a110d8de340ef4bb02e7df39b50895a7e",
                        "s": "0x2e9de2aceec8d56439232ef5472d429ebb0f7b295526c6b255b517466783c08f",
                        "sender": "0xebaf50debf10e08302fe4280c32df010463ca297"
                    }
                ],
                "uncleHeaders": [],
                "withdrawals": [],
                "receipts": [
                    {
                        "transactionHash": "0x8af654fc5bbb0d4714b1dbfac41362960e966f97e96806cdfd4f62b6d3aed6f8",
                        "type": "0x00",
                        "cumulativeGasUsed": "0x011db0",
                        "bloom": "0x00000000000000000000000000000000000000000000000000000000000000000000000000000000000000000000000000000000000000000000000000000000000000000000000000000000000000000000000000000000000000000000000000000000000000000000000000000000000000000000000000000000000000000000000000000000000000000000000000000000000000000000000000000000000000000000000000000000000000000000000000000000000000000000000000000000000000000000000000000000000000000000000000000000000000000000000000000000000000000000000000000000000000000000000000000000",
                        "logs": [],
                        "status": true,
                        "rlp": "0xf901090183011db0b9010000000000000000000000000000000000000000000000000000000000000000000000000000000000000000000000000000000000000000000000000000000000000000000000000000000000000000000000000000000000000000000000000000000000000000000000000000000000000000000000000000000000000000000000000000000000000000000000000000000000000000000000000000000000000000000000000000000000000000000000000000000000000000000000000000000000000000000000000000000000000000000000000000000000000000000000000000000000000000000000000000000000000000000000000000000000c0"
                    }
                ],
                "rlp": "0xf902a4f9023ba0be1fc5e38b92a2121d3ecdaba2dccab0fd7b34109e8395f39d165345ae5c188fa01dcc4de8dec75d7aab85b567b6ccd41ad312451b948a7413f0a142fd40d49347942adc25665018aa1fe0e6bc666dac8fc2697ff9baa01f30c392274c2c8d5e552c9a46b6d0e7963f5b90ad4ffddb50c665feb2918978a0f91540c44e755a07f86f6497402ef52b9021c12a873e8502020f2372dec432b4a06dfad24f94b10b1f8ddc444e23b3be47e085c37d7ad260dc7472fb437f1fbc6eb901000000000000000000000000000000000000000000000000000000000000000000000000000000000000000000000000000000000000000000000000000000000000000000000000000000000000000000000000000000000000000000000000000000000000000000000000000000000000000000000000000000000000000000000000000000000000000000000000000000000000000000000000000000000000000000000000000000000000000000000000000000000000000000000000000000000000000000000000000000000000000000000000000000000000000000000000000000000000000000000000000000000000000000000000000000000080018401c9c38083011db08203e800a000000000000000000000000000000000000000000000000000000000000200008800000000000000000aa056e81f171bcc55a6ff8345e692c0f86e5b48e01b996cadc001622fb5e363b4218080a00000000000000000000000000000000000000000000000000000000000000000f862f860800a832dc6c0944eef7e2b5ae9be0fc5b43dc4fe39195a1ae10fc4808026a0a6100d2ec9f7521929d80975bb74785a110d8de340ef4bb02e7df39b50895a7ea02e9de2aceec8d56439232ef5472d429ebb0f7b295526c6b255b517466783c08fc0c0",
                "blocknumber": "1"
            }
        ],
        "sealEngine": "NoProof",
        "_info": {
            "hash": "0x1789cf11a8dae48d9b1bee2e157fac94facd81ddc65cb371e6675a38f637b539",
            "fixture-format": "blockchain_test",
            "comment": "`execution-specs` generated test",
            "filling-transition-tool": "2.19.0",
            "description": "No description available - add a docstring to the python test class or function.",
            "url": "",
            "opcode_count": {}
        }
    }
}