{
    "tests/static/state_tests/stStaticCall/static_ABAcalls1Filler.json::static_ABAcalls1[fork_Cancun-blockchain_test_from_state_test-d0]": {
        "network": "Cancun",
        "genesisBlockHeader": {
            "parentHash": "0x0000000000000000000000000000000000000000000000000000000000000000",
            "uncleHash": "0x1dcc4de8dec75d7aab85b567b6ccd41ad312451b948a7413f0a142fd40d49347",
            "coinbase": "0x0000000000000000000000000000000000000000",
            "stateRoot": "0xdaafcb72e8d4ae18841b07ea0a47866a36ca6a03381500e830fd126d47d8172b",
            "transactionsTrie": "0x56e81f171bcc55a6ff8345e692c0f86e5b48e01b996cadc001622fb5e363b421",
            "receiptTrie": "0x56e81f171bcc55a6ff8345e692c0f86e5b48e01b996cadc001622fb5e363b421",
            "bloom": "0x00000000000000000000000000000000000000000000000000000000000000000000000000000000000000000000000000000000000000000000000000000000000000000000000000000000000000000000000000000000000000000000000000000000000000000000000000000000000000000000000000000000000000000000000000000000000000000000000000000000000000000000000000000000000000000000000000000000000000000000000000000000000000000000000000000000000000000000000000000000000000000000000000000000000000000000000000000000000000000000000000000000000000000000000000000000",
            "difficulty": "0x00",
            "number": "0x00",
            "gasLimit": "0x02540be400",
            "gasUsed": "0x00",
            "timestamp": "0x00",
            "extraData": "0x00",
            "mixHash": "0x0000000000000000000000000000000000000000000000000000000000000000",
            "nonce": "0x0000000000000000",
            "baseFeePerGas": "0x0b",
            "withdrawalsRoot": "0x56e81f171bcc55a6ff8345e692c0f86e5b48e01b996cadc001622fb5e363b421",
            "blobGasUsed": "0x00",
            "excessBlobGas": "0x00",
            "parentBeaconBlockRoot": "0x0000000000000000000000000000000000000000000000000000000000000000",
            "hash": "0x1686b264e7005a730fc797dcba725c627cf107b12d73cafeb794a8b8dda0ffdb"
        },
        "pre": {
            "0x000f3df6d732807ef1319fb7b8bb8522d0beac02": {
                "nonce": "0x01",
                "balance": "0x00",
                "code": "0x3373fffffffffffffffffffffffffffffffffffffffe14604d57602036146024575f5ffd5b5f35801560495762001fff810690815414603c575f5ffd5b62001fff01545f5260205ff35b5f5ffd5b62001fff42064281555f359062001fff015500",
                "storage": {}
            },
            "0xebaf50debf10e08302fe4280c32df010463ca297": {
                "nonce": "0x00",
                "balance": "0x0de0b6b3a7640000",
                "code": "0x",
                "storage": {}
            },
            "0xe7fe01f115e85f0487086659fa9bbf09579b0e3a": {
                "nonce": "0x00",
                "balance": "0x0de0b6b3a7640000",
                "code": "0x600060006000600060006000355af1600055600160015500",
                "storage": {}
            },
            "0xd0a73d84aa7112e8d5179cae211b268d16dafd73": {
                "nonce": "0x00",
                "balance": "0x0de0b6b3a7640000",
                "code": "0x600060006000600073cc7901b70dcec81d198ac6cf196ef14bca9870be620186a05a03fa585500",
                "storage": {}
            },
            "0xcc7901b70dcec81d198ac6cf196ef14bca9870be": {
                "nonce": "0x00",
                "balance": "0x17",
                "code": "0x600060006000600073d0a73d84aa7112e8d5179cae211b268d16dafd73620186a05a03fa600101585500",
                "storage": {}
            },
            "0xc1eb8f73f2e1e269acd146c961210b665078841b": {
                "nonce": "0x00",
                "balance": "0x0de0b6b3a7640000",
                "code": "0x586001526000600060006000735e75046384134a4554c3c7061d4637cb978d5699620186a05a03fa00",
                "storage": {}
            },
            "0x5e75046384134a4554c3c7061d4637cb978d5699": {
                "nonce": "0x00",
                "balance": "0x17",
                "code": "0x600060006000600073c1eb8f73f2e1e269acd146c961210b665078841b620186a05a03fa600101585200",
                "storage": {}
            }
        },
        "postState": {
            "0x000f3df6d732807ef1319fb7b8bb8522d0beac02": {
                "nonce": "0x01",
                "balance": "0x00",
                "code": "0x3373fffffffffffffffffffffffffffffffffffffffe14604d57602036146024575f5ffd5b5f35801560495762001fff810690815414603c575f5ffd5b62001fff01545f5260205ff35b5f5ffd5b62001fff42064281555f359062001fff015500",
                "storage": {
                    "0x03e8": "0x03e8"
                }
            },
            "0xebaf50debf10e08302fe4280c32df010463ca297": {
                "nonce": "0x01",
                "balance": "0x0de0b6b165ca8026",
                "code": "0x",
                "storage": {}
            },
            "0xe7fe01f115e85f0487086659fa9bbf09579b0e3a": {
                "nonce": "0x00",
                "balance": "0x0de0b6b3a76586a0",
                "code": "0x600060006000600060006000355af1600055600160015500",
                "storage": {
                    "0x00": "0x01",
                    "0x01": "0x01"
                }
            },
            "0xd0a73d84aa7112e8d5179cae211b268d16dafd73": {
                "nonce": "0x00",
                "balance": "0x0de0b6b3a7640000",
                "code": "0x600060006000600073cc7901b70dcec81d198ac6cf196ef14bca9870be620186a05a03fa585500",
                "storage": {}
            },
            "0xcc7901b70dcec81d198ac6cf196ef14bca9870be": {
                "nonce": "0x00",
                "balance": "0x17",
                "code": "0x600060006000600073d0a73d84aa7112e8d5179cae211b268d16dafd73620186a05a03fa600101585500",
                "storage": {}
            },
            "0xc1eb8f73f2e1e269acd146c961210b665078841b": {
                "nonce": "0x00",
                "balance": "0x0de0b6b3a7640000",
                "code": "0x586001526000600060006000735e75046384134a4554c3c7061d4637cb978d5699620186a05a03fa00",
                "storage": {}
            },
            "0x5e75046384134a4554c3c7061d4637cb978d5699": {
                "nonce": "0x00",
                "balance": "0x17",
                "code": "0x600060006000600073c1eb8f73f2e1e269acd146c961210b665078841b620186a05a03fa600101585200",
                "storage": {}
            }
        },
        "lastblockhash": "0x4f03b212a953f17a8298efcfe1231b3206479dffb8bdb7c9c027296cedf41fb2",
        "config": {
            "network": "Cancun",
            "chainid": "0x01",
            "blobSchedule": {
                "Cancun": {
                    "target": "0x03",
                    "max": "0x06",
                    "baseFeeUpdateFraction": "0x32f0ed"
                }
            }
        },
        "genesisRLP": "0xf9023df90237a00000000000000000000000000000000000000000000000000000000000000000a01dcc4de8dec75d7aab85b567b6ccd41ad312451b948a7413f0a142fd40d49347940000000000000000000000000000000000000000a0daafcb72e8d4ae18841b07ea0a47866a36ca6a03381500e830fd126d47d8172ba056e81f171bcc55a6ff8345e692c0f86e5b48e01b996cadc001622fb5e363b421a056e81f171bcc55a6ff8345e692c0f86e5b48e01b996cadc001622fb5e363b421b901000000000000000000000000000000000000000000000000000000000000000000000000000000000000000000000000000000000000000000000000000000000000000000000000000000000000000000000000000000000000000000000000000000000000000000000000000000000000000000000000000000000000000000000000000000000000000000000000000000000000000000000000000000000000000000000000000000000000000000000000000000000000000000000000000000000000000000000000000000000000000000000000000000000000000000000000000000000000000000000000000000000000000000000000000000000080808502540be400808000a000000000000000000000000000000000000000000000000000000000000000008800000000000000000ba056e81f171bcc55a6ff8345e692c0f86e5b48e01b996cadc001622fb5e363b4218080a00000000000000000000000000000000000000000000000000000000000000000c0c0c0",
        "blocks": [
            {
                "blockHeader": {
                    "parentHash": "0x1686b264e7005a730fc797dcba725c627cf107b12d73cafeb794a8b8dda0ffdb",
                    "uncleHash": "0x1dcc4de8dec75d7aab85b567b6ccd41ad312451b948a7413f0a142fd40d49347",
                    "coinbase": "0x2adc25665018aa1fe0e6bc666dac8fc2697ff9ba",
                    "stateRoot": "0x11bdf16c9bef5a6e0a001cd9c67e5fdce4a4764abb4a28a1009a7233a190f275",
                    "transactionsTrie": "0x2c1c9634ff705c17ef03d900524f073da40e73a43568c29c4b69ecf25d5055cb",
                    "receiptTrie": "0x3e260b9710830e02fe7ac5c0676c76a7ae4e42c5328bdc93b1edbda15b7022a1",
                    "bloom": "0x00000000000000000000000000000000000000000000000000000000000000000000000000000000000000000000000000000000000000000000000000000000000000000000000000000000000000000000000000000000000000000000000000000000000000000000000000000000000000000000000000000000000000000000000000000000000000000000000000000000000000000000000000000000000000000000000000000000000000000000000000000000000000000000000000000000000000000000000000000000000000000000000000000000000000000000000000000000000000000000000000000000000000000000000000000000",
                    "difficulty": "0x00",
                    "number": "0x01",
                    "gasLimit": "0x02540be400",
                    "gasUsed": "0x39c265b9",
                    "timestamp": "0x03e8",
                    "extraData": "0x00",
                    "mixHash": "0x0000000000000000000000000000000000000000000000000000000000020000",
                    "nonce": "0x0000000000000000",
                    "baseFeePerGas": "0x0a",
                    "withdrawalsRoot": "0x56e81f171bcc55a6ff8345e692c0f86e5b48e01b996cadc001622fb5e363b421",
                    "blobGasUsed": "0x00",
                    "excessBlobGas": "0x00",
                    "parentBeaconBlockRoot": "0x0000000000000000000000000000000000000000000000000000000000000000",
                    "hash": "0x4f03b212a953f17a8298efcfe1231b3206479dffb8bdb7c9c027296cedf41fb2"
                },
                "transactions": [
                    {
                        "type": "0x00",
                        "chainId": "0x01",
                        "nonce": "0x00",
                        "gasPrice": "0x0a",
                        "gasLimit": "0x3b9aca00",
                        "to": "0xe7fe01f115e85f0487086659fa9bbf09579b0e3a",
                        "value": "0x0186a0",
                        "data": "0x000000000000000000000000d0a73d84aa7112e8d5179cae211b268d16dafd73",
                        "v": "0x25",
                        "r": "0x9564e9ad63952ae22315522beef9b857f76770935595308625267a485cb67cf9",
                        "s": "0x1172a3883ed370cd24c4a89e290dc2c87e5981608f23ee963e47143d55be7f1c",
                        "sender": "0xebaf50debf10e08302fe4280c32df010463ca297"
                    }
                ],
                "uncleHeaders": [],
                "withdrawals": [],
                "receipts": [
                    {
                        "transactionHash": "0x8047d24e48f333dcd26e72d75b44e1cc278edc579f6754387fd75e9af809a9b2",
                        "type": "0x00",
                        "cumulativeGasUsed": "0x39c265b9",
                        "bloom": "0x00000000000000000000000000000000000000000000000000000000000000000000000000000000000000000000000000000000000000000000000000000000000000000000000000000000000000000000000000000000000000000000000000000000000000000000000000000000000000000000000000000000000000000000000000000000000000000000000000000000000000000000000000000000000000000000000000000000000000000000000000000000000000000000000000000000000000000000000000000000000000000000000000000000000000000000000000000000000000000000000000000000000000000000000000000000",
                        "logs": [],
                        "status": true,
                        "rlp": "0xf9010a018439c265b9b9010000000000000000000000000000000000000000000000000000000000000000000000000000000000000000000000000000000000000000000000000000000000000000000000000000000000000000000000000000000000000000000000000000000000000000000000000000000000000000000000000000000000000000000000000000000000000000000000000000000000000000000000000000000000000000000000000000000000000000000000000000000000000000000000000000000000000000000000000000000000000000000000000000000000000000000000000000000000000000000000000000000000000000000000000000000000c0"
                    }
                ],
                "rlp": "0xf902caf9023da01686b264e7005a730fc797dcba725c627cf107b12d73cafeb794a8b8dda0ffdba01dcc4de8dec75d7aab85b567b6ccd41ad312451b948a7413f0a142fd40d49347942adc25665018aa1fe0e6bc666dac8fc2697ff9baa011bdf16c9bef5a6e0a001cd9c67e5fdce4a4764abb4a28a1009a7233a190f275a02c1c9634ff705c17ef03d900524f073da40e73a43568c29c4b69ecf25d5055cba03e260b9710830e02fe7ac5c0676c76a7ae4e42c5328bdc93b1edbda15b7022a1b901000000000000000000000000000000000000000000000000000000000000000000000000000000000000000000000000000000000000000000000000000000000000000000000000000000000000000000000000000000000000000000000000000000000000000000000000000000000000000000000000000000000000000000000000000000000000000000000000000000000000000000000000000000000000000000000000000000000000000000000000000000000000000000000000000000000000000000000000000000000000000000000000000000000000000000000000000000000000000000000000000000000000000000000000000000000080018502540be4008439c265b98203e800a000000000000000000000000000000000000000000000000000000000000200008800000000000000000aa056e81f171bcc55a6ff8345e692c0f86e5b48e01b996cadc001622fb5e363b4218080a00000000000000000000000000000000000000000000000000000000000000000f886f884800a843b9aca0094e7fe01f115e85f0487086659fa9bbf09579b0e3a830186a0a0000000000000000000000000d0a73d84aa7112e8d5179cae211b268d16dafd7325a09564e9ad63952ae22315522beef9b857f76770935595308625267a485cb67cf9a01172a3883ed370cd24c4a89e290dc2c87e5981608f23ee963e47143d55be7f1cc0c0",
                "blocknumber": "1"
            }
        ],
        "sealEngine": "NoProof",
        "_info": {
            "hash": "0x33f3bee655024baad5f0536d3b2f03327b53914d39766d5193ad7b2286e68806",
            "fixture-format": "blockchain_test",
            "comment": "`execution-specs` generated test",
            "filling-transition-tool": "2.19.0",
            "description": "No description available - add a docstring to the python test class or function.",
            "url": "",
            "opcode_count": {}
        }
    },
    "tests/static/state_tests/stStaticCall/static_ABAcalls1Filler.json::static_ABAcalls1[fork_Cancun-blockchain_test_from_state_test-d1]": {
        "network": "Cancun",
        "genesisBlockHeader": {
            "parentHash": "0x0000000000000000000000000000000000000000000000000000000000000000",
            "uncleHash": "0x1dcc4de8dec75d7aab85b567b6ccd41ad312451b948a7413f0a142fd40d49347",
            "coinbase": "0x0000000000000000000000000000000000000000",
            "stateRoot": "0xdaafcb72e8d4ae18841b07ea0a47866a36ca6a03381500e830fd126d47d8172b",
            "transactionsTrie": "0x56e81f171bcc55a6ff8345e692c0f86e5b48e01b996cadc001622fb5e363b421",
            "receiptTrie": "0x56e81f171bcc55a6ff8345e692c0f86e5b48e01b996cadc001622fb5e363b421",
            "bloom": "0x00000000000000000000000000000000000000000000000000000000000000000000000000000000000000000000000000000000000000000000000000000000000000000000000000000000000000000000000000000000000000000000000000000000000000000000000000000000000000000000000000000000000000000000000000000000000000000000000000000000000000000000000000000000000000000000000000000000000000000000000000000000000000000000000000000000000000000000000000000000000000000000000000000000000000000000000000000000000000000000000000000000000000000000000000000000",
            "difficulty": "0x00",
            "number": "0x00",
            "gasLimit": "0x02540be400",
            "gasUsed": "0x00",
            "timestamp": "0x00",
            "extraData": "0x00",
            "mixHash": "0x0000000000000000000000000000000000000000000000000000000000000000",
            "nonce": "0x0000000000000000",
            "baseFeePerGas": "0x0b",
            "withdrawalsRoot": "0x56e81f171bcc55a6ff8345e692c0f86e5b48e01b996cadc001622fb5e363b421",
            "blobGasUsed": "0x00",
            "excessBlobGas": "0x00",
            "parentBeaconBlockRoot": "0x0000000000000000000000000000000000000000000000000000000000000000",
            "hash": "0x1686b264e7005a730fc797dcba725c627cf107b12d73cafeb794a8b8dda0ffdb"
        },
        "pre": {
            "0x000f3df6d732807ef1319fb7b8bb8522d0beac02": {
                "nonce": "0x01",
                "balance": "0x00",
                "code": "0x3373fffffffffffffffffffffffffffffffffffffffe14604d57602036146024575f5ffd5b5f35801560495762001fff810690815414603c575f5ffd5b62001fff01545f5260205ff35b5f5ffd5b62001fff42064281555f359062001fff015500",
                "storage": {}
            },
            "0xebaf50debf10e08302fe4280c32df010463ca297": {
                "nonce": "0x00",
                "balance": "0x0de0b6b3a7640000",
                "code": "0x",
                "storage": {}
            },
            "0xe7fe01f115e85f0487086659fa9bbf09579b0e3a": {
                "nonce": "0x00",
                "balance": "0x0de0b6b3a7640000",
                "code": "0x600060006000600060006000355af1600055600160015500",
                "storage": {}
            },
            "0xd0a73d84aa7112e8d5179cae211b268d16dafd73": {
                "nonce": "0x00",
                "balance": "0x0de0b6b3a7640000",
                "code": "0x600060006000600073cc7901b70dcec81d198ac6cf196ef14bca9870be620186a05a03fa585500",
                "storage": {}
            },
            "0xcc7901b70dcec81d198ac6cf196ef14bca9870be": {
                "nonce": "0x00",
                "balance": "0x17",
                "code": "0x600060006000600073d0a73d84aa7112e8d5179cae211b268d16dafd73620186a05a03fa600101585500",
                "storage": {}
            },
            "0xc1eb8f73f2e1e269acd146c961210b665078841b": {
                "nonce": "0x00",
                "balance": "0x0de0b6b3a7640000",
                "code": "0x586001526000600060006000735e75046384134a4554c3c7061d4637cb978d5699620186a05a03fa00",
                "storage": {}
            },
            "0x5e75046384134a4554c3c7061d4637cb978d5699": {
                "nonce": "0x00",
                "balance": "0x17",
                "code": "0x600060006000600073c1eb8f73f2e1e269acd146c961210b665078841b620186a05a03fa600101585200",
                "storage": {}
            }
        },
        "postState": {
            "0x000f3df6d732807ef1319fb7b8bb8522d0beac02": {
                "nonce": "0x01",
                "balance": "0x00",
                "code": "0x3373fffffffffffffffffffffffffffffffffffffffe14604d57602036146024575f5ffd5b5f35801560495762001fff810690815414603c575f5ffd5b62001fff01545f5260205ff35b5f5ffd5b62001fff42064281555f359062001fff015500",
                "storage": {
                    "0x03e8": "0x03e8"
                }
            },
            "0xebaf50debf10e08302fe4280c32df010463ca297": {
                "nonce": "0x01",
                "balance": "0x0de0b6b3a74c843e",
                "code": "0x",
                "storage": {}
            },
            "0xe7fe01f115e85f0487086659fa9bbf09579b0e3a": {
                "nonce": "0x00",
                "balance": "0x0de0b6b3a76586a0",
                "code": "0x600060006000600060006000355af1600055600160015500",
                "storage": {
                    "0x00": "0x01",
                    "0x01": "0x01"
                }
            },
            "0xd0a73d84aa7112e8d5179cae211b268d16dafd73": {
                "nonce": "0x00",
                "balance": "0x0de0b6b3a7640000",
                "code": "0x600060006000600073cc7901b70dcec81d198ac6cf196ef14bca9870be620186a05a03fa585500",
                "storage": {}
            },
            "0xcc7901b70dcec81d198ac6cf196ef14bca9870be": {
                "nonce": "0x00",
                "balance": "0x17",
                "code": "0x600060006000600073d0a73d84aa7112e8d5179cae211b268d16dafd73620186a05a03fa600101585500",
                "storage": {}
            },
            "0xc1eb8f73f2e1e269acd146c961210b665078841b": {
                "nonce": "0x00",
                "balance": "0x0de0b6b3a7640000",
                "code": "0x586001526000600060006000735e75046384134a4554c3c7061d4637cb978d5699620186a05a03fa00",
                "storage": {}
            },
            "0x5e75046384134a4554c3c7061d4637cb978d5699": {
                "nonce": "0x00",
                "balance": "0x17",
                "code": "0x600060006000600073c1eb8f73f2e1e269acd146c961210b665078841b620186a05a03fa600101585200",
                "storage": {}
            }
        },
        "lastblockhash": "0x3cf6e9ea5843132957769de5f96072fcc413be654ee890927b4d17a3dfef7f0d",
        "config": {
            "network": "Cancun",
            "chainid": "0x01",
            "blobSchedule": {
                "Cancun": {
                    "target": "0x03",
                    "max": "0x06",
                    "baseFeeUpdateFraction": "0x32f0ed"
                }
            }
        },
        "genesisRLP": "0xf9023df90237a00000000000000000000000000000000000000000000000000000000000000000a01dcc4de8dec75d7aab85b567b6ccd41ad312451b948a7413f0a142fd40d49347940000000000000000000000000000000000000000a0daafcb72e8d4ae18841b07ea0a47866a36ca6a03381500e830fd126d47d8172ba056e81f171bcc55a6ff8345e692c0f86e5b48e01b996cadc001622fb5e363b421a056e81f171bcc55a6ff8345e692c0f86e5b48e01b996cadc001622fb5e363b421b901000000000000000000000000000000000000000000000000000000000000000000000000000000000000000000000000000000000000000000000000000000000000000000000000000000000000000000000000000000000000000000000000000000000000000000000000000000000000000000000000000000000000000000000000000000000000000000000000000000000000000000000000000000000000000000000000000000000000000000000000000000000000000000000000000000000000000000000000000000000000000000000000000000000000000000000000000000000000000000000000000000000000000000000000000000000080808502540be400808000a000000000000000000000000000000000000000000000000000000000000000008800000000000000000ba056e81f171bcc55a6ff8345e692c0f86e5b48e01b996cadc001622fb5e363b4218080a00000000000000000000000000000000000000000000000000000000000000000c0c0c0",
        "blocks": [
            {
                "blockHeader": {
                    "parentHash": "0x1686b264e7005a730fc797dcba725c627cf107b12d73cafeb794a8b8dda0ffdb",
                    "uncleHash": "0x1dcc4de8dec75d7aab85b567b6ccd41ad312451b948a7413f0a142fd40d49347",
                    "coinbase": "0x2adc25665018aa1fe0e6bc666dac8fc2697ff9ba",
                    "stateRoot": "0x7c0b23703be01feadf5b81c848ddfd5f3a2677b17318d613f53b80dea13d2430",
                    "transactionsTrie": "0x44280ed04dd3e27b709d9af1dfae0552ac255040bfabd79c002ffbcf3599d47f",
                    "receiptTrie": "0x2f5a537e34b51a23b65a78875cedf4b2f33161b87af0fd1addc91cece6381592",
                    "bloom": "0x00000000000000000000000000000000000000000000000000000000000000000000000000000000000000000000000000000000000000000000000000000000000000000000000000000000000000000000000000000000000000000000000000000000000000000000000000000000000000000000000000000000000000000000000000000000000000000000000000000000000000000000000000000000000000000000000000000000000000000000000000000000000000000000000000000000000000000000000000000000000000000000000000000000000000000000000000000000000000000000000000000000000000000000000000000000",
                    "difficulty": "0x00",
                    "number": "0x01",
                    "gasLimit": "0x02540be400",
                    "gasUsed": "0x02321d",
                    "timestamp": "0x03e8",
                    "extraData": "0x00",
                    "mixHash": "0x0000000000000000000000000000000000000000000000000000000000020000",
                    "nonce": "0x0000000000000000",
                    "baseFeePerGas": "0x0a",
                    "withdrawalsRoot": "0x56e81f171bcc55a6ff8345e692c0f86e5b48e01b996cadc001622fb5e363b421",
                    "blobGasUsed": "0x00",
                    "excessBlobGas": "0x00",
                    "parentBeaconBlockRoot": "0x0000000000000000000000000000000000000000000000000000000000000000",
                    "hash": "0x3cf6e9ea5843132957769de5f96072fcc413be654ee890927b4d17a3dfef7f0d"
                },
                "transactions": [
                    {
                        "type": "0x00",
                        "chainId": "0x01",
                        "nonce": "0x00",
                        "gasPrice": "0x0a",
                        "gasLimit": "0x3b9aca00",
                        "to": "0xe7fe01f115e85f0487086659fa9bbf09579b0e3a",
                        "value": "0x0186a0",
                        "data": "0x000000000000000000000000c1eb8f73f2e1e269acd146c961210b665078841b",
                        "v": "0x25",
                        "r": "0xa2a332fbfe38eea80726d43c3bbe1a9c661eea88125315cc4fa4912f9ea09867",
                        "s": "0x1707463bc227732386fafb15732c0b7fe0563227b082cb7749438ee449c9654c",
                        "sender": "0xebaf50debf10e08302fe4280c32df010463ca297"
                    }
                ],
                "uncleHeaders": [],
                "withdrawals": [],
                "receipts": [
                    {
                        "transactionHash": "0x794293e12dd927e718d87e3a5d46185cda53cfe2366b2d534308bcdf54be31c7",
                        "type": "0x00",
                        "cumulativeGasUsed": "0x02321d",
                        "bloom": "0x00000000000000000000000000000000000000000000000000000000000000000000000000000000000000000000000000000000000000000000000000000000000000000000000000000000000000000000000000000000000000000000000000000000000000000000000000000000000000000000000000000000000000000000000000000000000000000000000000000000000000000000000000000000000000000000000000000000000000000000000000000000000000000000000000000000000000000000000000000000000000000000000000000000000000000000000000000000000000000000000000000000000000000000000000000000",
                        "logs": [],
                        "status": true,
                        "rlp": "0xf90109018302321db9010000000000000000000000000000000000000000000000000000000000000000000000000000000000000000000000000000000000000000000000000000000000000000000000000000000000000000000000000000000000000000000000000000000000000000000000000000000000000000000000000000000000000000000000000000000000000000000000000000000000000000000000000000000000000000000000000000000000000000000000000000000000000000000000000000000000000000000000000000000000000000000000000000000000000000000000000000000000000000000000000000000000000000000000000000000000c0"
                    }
                ],
                "rlp": "0xf902c9f9023ca01686b264e7005a730fc797dcba725c627cf107b12d73cafeb794a8b8dda0ffdba01dcc4de8dec75d7aab85b567b6ccd41ad312451b948a7413f0a142fd40d49347942adc25665018aa1fe0e6bc666dac8fc2697ff9baa07c0b23703be01feadf5b81c848ddfd5f3a2677b17318d613f53b80dea13d2430a044280ed04dd3e27b709d9af1dfae0552ac255040bfabd79c002ffbcf3599d47fa02f5a537e34b51a23b65a78875cedf4b2f33161b87af0fd1addc91cece6381592b901000000000000000000000000000000000000000000000000000000000000000000000000000000000000000000000000000000000000000000000000000000000000000000000000000000000000000000000000000000000000000000000000000000000000000000000000000000000000000000000000000000000000000000000000000000000000000000000000000000000000000000000000000000000000000000000000000000000000000000000000000000000000000000000000000000000000000000000000000000000000000000000000000000000000000000000000000000000000000000000000000000000000000000000000000000000080018502540be4008302321d8203e800a000000000000000000000000000000000000000000000000000000000000200008800000000000000000aa056e81f171bcc55a6ff8345e692c0f86e5b48e01b996cadc001622fb5e363b4218080a00000000000000000000000000000000000000000000000000000000000000000f886f884800a843b9aca0094e7fe01f115e85f0487086659fa9bbf09579b0e3a830186a0a0000000000000000000000000c1eb8f73f2e1e269acd146c961210b665078841b25a0a2a332fbfe38eea80726d43c3bbe1a9c661eea88125315cc4fa4912f9ea09867a01707463bc227732386fafb15732c0b7fe0563227b082cb7749438ee449c9654cc0c0",
                "blocknumber": "1"
            }
        ],
        "sealEngine": "NoProof",
        "_info": {
            "hash": "0xa7eae69aae5342196c0e4292db49447fc36bf7e71421522a79b71c215f85a57d",
            "fixture-format": "blockchain_test",
            "comment": "`execution-specs` generated test",
            "filling-transition-tool": "2.19.0",
            "description": "No description available - add a docstring to the python test class or function.",
            "url": "",
            "opcode_count": {}
        }
    }
}