{
    "tests/static/state_tests/stStaticCall/static_callcallcallcode_001_OOGMAfterFiller.json::static_callcallcallcode_001_OOGMAfter[fork_Cancun-blockchain_test_from_state_test-d0]": {
        "network": "Cancun",
        "genesisBlockHeader": {
            "parentHash": "0x0000000000000000000000000000000000000000000000000000000000000000",
            "uncleHash": "0x1dcc4de8dec75d7aab85b567b6ccd41ad312451b948a7413f0a142fd40d49347",
            "coinbase": "0x0000000000000000000000000000000000000000",
            "stateRoot": "0x1fcc17073103a863667ac4cf8c13575c4036cc8c325ced71bf25e80e29f364cc",
            "transactionsTrie": "0x56e81f171bcc55a6ff8345e692c0f86e5b48e01b996cadc001622fb5e363b421",
            "receiptTrie": "0x56e81f171bcc55a6ff8345e692c0f86e5b48e01b996cadc001622fb5e363b421",
            "bloom": "0x00000000000000000000000000000000000000000000000000000000000000000000000000000000000000000000000000000000000000000000000000000000000000000000000000000000000000000000000000000000000000000000000000000000000000000000000000000000000000000000000000000000000000000000000000000000000000000000000000000000000000000000000000000000000000000000000000000000000000000000000000000000000000000000000000000000000000000000000000000000000000000000000000000000000000000000000000000000000000000000000000000000000000000000000000000000",
            "difficulty": "0x00",
            "number": "0x00",
            "gasLimit": "0x01c9c380",
            "gasUsed": "0x00",
            "timestamp": "0x00",
            "extraData": "0x00",
            "mixHash": "0x0000000000000000000000000000000000000000000000000000000000000000",
            "nonce": "0x0000000000000000",
            "baseFeePerGas": "0x0b",
            "withdrawalsRoot": "0x56e81f171bcc55a6ff8345e692c0f86e5b48e01b996cadc001622fb5e363b421",
            "blobGasUsed": "0x00",
            "excessBlobGas": "0x00",
            "parentBeaconBlockRoot": "0x0000000000000000000000000000000000000000000000000000000000000000",
            "hash": "0xb9a9f37dc4e91380221cb97d6e1e806943ce96b8289f928868fa70ff68630b37"
        },
        "pre": {
            "0x000f3df6d732807ef1319fb7b8bb8522d0beac02": {
                "nonce": "0x01",
                "balance": "0x00",
                "code": "0x3373fffffffffffffffffffffffffffffffffffffffe14604d57602036146024575f5ffd5b5f35801560495762001fff810690815414603c575f5ffd5b62001fff01545f5260205ff35b5f5ffd5b62001fff42064281555f359062001fff015500",
                "storage": {}
            },
            "0xebaf50debf10e08302fe4280c32df010463ca297": {
                "nonce": "0x00",
                "balance": "0x0de0b6b3a7640000",
                "code": "0x",
                "storage": {}
            },
            "0x335c5531b84765a7626e6e76688f18b81be5259c": {
                "nonce": "0x00",
                "balance": "0x00",
                "code": "0x600160035200",
                "storage": {}
            },
            "0x265eeb9a84fea22da8b58252402b03bafe1a6324": {
                "nonce": "0x00",
                "balance": "0x00",
                "code": "0x6001600352604060006040600073335c5531b84765a7626e6e76688f18b81be5259c6201d4d4f450600160205200",
                "storage": {}
            },
            "0xee8f7e38be79a20210ba7860a51507505984e4ed": {
                "nonce": "0x00",
                "balance": "0x00",
                "code": "0x6001600352604060006040600073265eeb9a84fea22da8b58252402b03bafe1a632462061ad5fa505b61c350608051101560445760013b506001608051016080526028565b00",
                "storage": {}
            },
            "0x4cd868420cbc0e9d9ba63455a2d0a36ce0fabf2c": {
                "nonce": "0x00",
                "balance": "0x00",
                "code": "0x6001600352604060006040600073265eeb9a84fea22da8b58252402b03bafe1a632462061ad5fa50600160035500",
                "storage": {}
            },
            "0xf1f083974fd68b961e68130c27fc5ef37b49c1df": {
                "nonce": "0x00",
                "balance": "0x0de0b6b3a7640000",
                "code": "0x604060006040600060003562092856fa600055600160015500",
                "storage": {}
            }
        },
        "postState": {
            "0x000f3df6d732807ef1319fb7b8bb8522d0beac02": {
                "nonce": "0x01",
                "balance": "0x00",
                "code": "0x3373fffffffffffffffffffffffffffffffffffffffe14604d57602036146024575f5ffd5b5f35801560495762001fff810690815414603c575f5ffd5b62001fff01545f5260205ff35b5f5ffd5b62001fff42064281555f359062001fff015500",
                "storage": {
                    "0x03e8": "0x03e8"
                }
            },
            "0xebaf50debf10e08302fe4280c32df010463ca297": {
                "nonce": "0x01",
                "balance": "0x0de0b6b3a7010dc4",
                "code": "0x",
                "storage": {}
            },
            "0x335c5531b84765a7626e6e76688f18b81be5259c": {
                "nonce": "0x00",
                "balance": "0x00",
                "code": "0x600160035200",
                "storage": {}
            },
            "0x265eeb9a84fea22da8b58252402b03bafe1a6324": {
                "nonce": "0x00",
                "balance": "0x00",
                "code": "0x6001600352604060006040600073335c5531b84765a7626e6e76688f18b81be5259c6201d4d4f450600160205200",
                "storage": {}
            },
            "0xee8f7e38be79a20210ba7860a51507505984e4ed": {
                "nonce": "0x00",
                "balance": "0x00",
                "code": "0x6001600352604060006040600073265eeb9a84fea22da8b58252402b03bafe1a632462061ad5fa505b61c350608051101560445760013b506001608051016080526028565b00",
                "storage": {}
            },
            "0x4cd868420cbc0e9d9ba63455a2d0a36ce0fabf2c": {
                "nonce": "0x00",
                "balance": "0x00",
                "code": "0x6001600352604060006040600073265eeb9a84fea22da8b58252402b03bafe1a632462061ad5fa50600160035500",
                "storage": {}
            },
            "0xf1f083974fd68b961e68130c27fc5ef37b49c1df": {
                "nonce": "0x00",
                "balance": "0x0de0b6b3a7640000",
                "code": "0x604060006040600060003562092856fa600055600160015500",
                "storage": {
                    "0x01": "0x01"
                }
            }
        },
        "lastblockhash": "0x0f10d0a0d2953aecb1af0cac127ffb49831dce4cb6012c1c3e5c7564204b7b72",
        "config": {
            "network": "Cancun",
            "chainid": "0x01",
            "blobSchedule": {
                "Cancun": {
                    "target": "0x03",
                    "max": "0x06",
                    "baseFeeUpdateFraction": "0x32f0ed"
                }
            }
        },
        "genesisRLP": "0xf9023cf90236a00000000000000000000000000000000000000000000000000000000000000000a01dcc4de8dec75d7aab85b567b6ccd41ad312451b948a7413f0a142fd40d49347940000000000000000000000000000000000000000a01fcc17073103a863667ac4cf8c13575c4036cc8c325ced71bf25e80e29f364cca056e81f171bcc55a6ff8345e692c0f86e5b48e01b996cadc001622fb5e363b421a056e81f171bcc55a6ff8345e692c0f86e5b48e01b996cadc001622fb5e363b421b901000000000000000000000000000000000000000000000000000000000000000000000000000000000000000000000000000000000000000000000000000000000000000000000000000000000000000000000000000000000000000000000000000000000000000000000000000000000000000000000000000000000000000000000000000000000000000000000000000000000000000000000000000000000000000000000000000000000000000000000000000000000000000000000000000000000000000000000000000000000000000000000000000000000000000000000000000000000000000000000000000000000000000000000000000000000080808401c9c380808000a000000000000000000000000000000000000000000000000000000000000000008800000000000000000ba056e81f171bcc55a6ff8345e692c0f86e5b48e01b996cadc001622fb5e363b4218080a00000000000000000000000000000000000000000000000000000000000000000c0c0c0",
        "blocks": [
            {
                "blockHeader": {
                    "parentHash": "0xb9a9f37dc4e91380221cb97d6e1e806943ce96b8289f928868fa70ff68630b37",
                    "uncleHash": "0x1dcc4de8dec75d7aab85b567b6ccd41ad312451b948a7413f0a142fd40d49347",
                    "coinbase": "0x2adc25665018aa1fe0e6bc666dac8fc2697ff9ba",
                    "stateRoot": "0xdc38bf98e7aff24ff8eb456836d2f198a82da83deb59e66cb675485203a91838",
                    "transactionsTrie": "0x80003c108544181cfc93c26eab2c135a6f8f3cff9c706110fbe46f3b917cec85",
                    "receiptTrie": "0x990e5496f0fbbdc8a4fb382c442d5903455c79f8fc923d82e339edc601df1862",
                    "bloom": "0x00000000000000000000000000000000000000000000000000000000000000000000000000000000000000000000000000000000000000000000000000000000000000000000000000000000000000000000000000000000000000000000000000000000000000000000000000000000000000000000000000000000000000000000000000000000000000000000000000000000000000000000000000000000000000000000000000000000000000000000000000000000000000000000000000000000000000000000000000000000000000000000000000000000000000000000000000000000000000000000000000000000000000000000000000000000",
                    "difficulty": "0x00",
                    "number": "0x01",
                    "gasLimit": "0x01c9c380",
                    "gasUsed": "0x09e506",
                    "timestamp": "0x03e8",
                    "extraData": "0x00",
                    "mixHash": "0x0000000000000000000000000000000000000000000000000000000000020000",
                    "nonce": "0x0000000000000000",
                    "baseFeePerGas": "0x0a",
                    "withdrawalsRoot": "0x56e81f171bcc55a6ff8345e692c0f86e5b48e01b996cadc001622fb5e363b421",
                    "blobGasUsed": "0x00",
                    "excessBlobGas": "0x00",
                    "parentBeaconBlockRoot": "0x0000000000000000000000000000000000000000000000000000000000000000",
                    "hash": "0x0f10d0a0d2953aecb1af0cac127ffb49831dce4cb6012c1c3e5c7564204b7b72"
                },
                "transactions": [
                    {
                        "type": "0x00",
                        "chainId": "0x01",
                        "nonce": "0x00",
                        "gasPrice": "0x0a",
                        "gasLimit": "0x1a3ec0",
                        "to": "0xf1f083974fd68b961e68130c27fc5ef37b49c1df",
                        "value": "0x00",
                        "data": "0x0000000000000000000000004cd868420cbc0e9d9ba63455a2d0a36ce0fabf2c",
                        "v": "0x26",
                        "r": "0xd0f963dd109dd0b01fa6dac233f2bca0fd073eda403c6a717b28bd0acc976526",
                        "s": "0x1af60fed83f9a4f9cc244a8a16597fc8be33c0285015fed5e2f3de6baca52f91",
                        "sender": "0xebaf50debf10e08302fe4280c32df010463ca297"
                    }
                ],
                "uncleHeaders": [],
                "withdrawals": [],
                "receipts": [
                    {
                        "transactionHash": "0xec91c13ddcbcf69cdb1b1f2a4675e08b50dba595f5829daedf201db002f1c86b",
                        "type": "0x00",
                        "cumulativeGasUsed": "0x09e506",
                        "bloom": "0x00000000000000000000000000000000000000000000000000000000000000000000000000000000000000000000000000000000000000000000000000000000000000000000000000000000000000000000000000000000000000000000000000000000000000000000000000000000000000000000000000000000000000000000000000000000000000000000000000000000000000000000000000000000000000000000000000000000000000000000000000000000000000000000000000000000000000000000000000000000000000000000000000000000000000000000000000000000000000000000000000000000000000000000000000000000",
                        "logs": [],
                        "status": true,
                        "rlp": "0xf90109018309e506b9010000000000000000000000000000000000000000000000000000000000000000000000000000000000000000000000000000000000000000000000000000000000000000000000000000000000000000000000000000000000000000000000000000000000000000000000000000000000000000000000000000000000000000000000000000000000000000000000000000000000000000000000000000000000000000000000000000000000000000000000000000000000000000000000000000000000000000000000000000000000000000000000000000000000000000000000000000000000000000000000000000000000000000000000000000000000c0"
                    }
                ],
                "rlp": "0xf902c4f9023ba0b9a9f37dc4e91380221cb97d6e1e806943ce96b8289f928868fa70ff68630b37a01dcc4de8dec75d7aab85b567b6ccd41ad312451b948a7413f0a142fd40d49347942adc25665018aa1fe0e6bc666dac8fc2697ff9baa0dc38bf98e7aff24ff8eb456836d2f198a82da83deb59e66cb675485203a91838a080003c108544181cfc93c26eab2c135a6f8f3cff9c706110fbe46f3b917cec85a0990e5496f0fbbdc8a4fb382c442d5903455c79f8fc923d82e339edc601df1862b901000000000000000000000000000000000000000000000000000000000000000000000000000000000000000000000000000000000000000000000000000000000000000000000000000000000000000000000000000000000000000000000000000000000000000000000000000000000000000000000000000000000000000000000000000000000000000000000000000000000000000000000000000000000000000000000000000000000000000000000000000000000000000000000000000000000000000000000000000000000000000000000000000000000000000000000000000000000000000000000000000000000000000000000000000000000080018401c9c3808309e5068203e800a000000000000000000000000000000000000000000000000000000000000200008800000000000000000aa056e81f171bcc55a6ff8345e692c0f86e5b48e01b996cadc001622fb5e363b4218080a00000000000000000000000000000000000000000000000000000000000000000f882f880800a831a3ec094f1f083974fd68b961e68130c27fc5ef37b49c1df80a00000000000000000000000004cd868420cbc0e9d9ba63455a2d0a36ce0fabf2c26a0d0f963dd109dd0b01fa6dac233f2bca0fd073eda403c6a717b28bd0acc976526a01af60fed83f9a4f9cc244a8a16597fc8be33c0285015fed5e2f3de6baca52f91c0c0",
                "blocknumber": "1"
            }
        ],
        "sealEngine": "NoProof",
        "_info": {
            "hash": "0x222f59d1c83ad41d731b11850bc1c22f0a03b9dd7534fd384a34496c9af6117a",
            "fixture-format": "blockchain_test",
            "comment": "`execution-specs` generated test",
            "filling-transition-tool": "2.19.0",
            "description": "No description available - add a docstring to the python test class or function.",
            "url": "",
            "opcode_count": {}
        }
    },
    "tests/static/state_tests/stStaticCall/static_callcallcallcode_001_OOGMAfterFiller.json::static_callcallcallcode_001_OOGMAfter[fork_Cancun-blockchain_test_from_state_test-d1]": {
        "network": "Cancun",
        "genesisBlockHeader": {
            "parentHash": "0x0000000000000000000000000000000000000000000000000000000000000000",
            "uncleHash": "0x1dcc4de8dec75d7aab85b567b6ccd41ad312451b948a7413f0a142fd40d49347",
            "coinbase": "0x0000000000000000000000000000000000000000",
            "stateRoot": "0x1fcc17073103a863667ac4cf8c13575c4036cc8c325ced71bf25e80e29f364cc",
            "transactionsTrie": "0x56e81f171bcc55a6ff8345e692c0f86e5b48e01b996cadc001622fb5e363b421",
            "receiptTrie": "0x56e81f171bcc55a6ff8345e692c0f86e5b48e01b996cadc001622fb5e363b421",
            "bloom": "0x00000000000000000000000000000000000000000000000000000000000000000000000000000000000000000000000000000000000000000000000000000000000000000000000000000000000000000000000000000000000000000000000000000000000000000000000000000000000000000000000000000000000000000000000000000000000000000000000000000000000000000000000000000000000000000000000000000000000000000000000000000000000000000000000000000000000000000000000000000000000000000000000000000000000000000000000000000000000000000000000000000000000000000000000000000000",
            "difficulty": "0x00",
            "number": "0x00",
            "gasLimit": "0x01c9c380",
            "gasUsed": "0x00",
            "timestamp": "0x00",
            "extraData": "0x00",
            "mixHash": "0x0000000000000000000000000000000000000000000000000000000000000000",
            "nonce": "0x0000000000000000",
            "baseFeePerGas": "0x0b",
            "withdrawalsRoot": "0x56e81f171bcc55a6ff8345e692c0f86e5b48e01b996cadc001622fb5e363b421",
            "blobGasUsed": "0x00",
            "excessBlobGas": "0x00",
            "parentBeaconBlockRoot": "0x0000000000000000000000000000000000000000000000000000000000000000",
            "hash": "0xb9a9f37dc4e91380221cb97d6e1e806943ce96b8289f928868fa70ff68630b37"
        },
        "pre": {
            "0x000f3df6d732807ef1319fb7b8bb8522d0beac02": {
                "nonce": "0x01",
                "balance": "0x00",
                "code": "0x3373fffffffffffffffffffffffffffffffffffffffe14604d57602036146024575f5ffd5b5f35801560495762001fff810690815414603c575f5ffd5b62001fff01545f5260205ff35b5f5ffd5b62001fff42064281555f359062001fff015500",
                "storage": {}
            },
            "0xebaf50debf10e08302fe4280c32df010463ca297": {
                "nonce": "0x00",
                "balance": "0x0de0b6b3a7640000",
                "code": "0x",
                "storage": {}
            },
            "0x335c5531b84765a7626e6e76688f18b81be5259c": {
                "nonce": "0x00",
                "balance": "0x00",
                "code": "0x600160035200",
                "storage": {}
            },
            "0x265eeb9a84fea22da8b58252402b03bafe1a6324": {
                "nonce": "0x00",
                "balance": "0x00",
                "code": "0x6001600352604060006040600073335c5531b84765a7626e6e76688f18b81be5259c6201d4d4f450600160205200",
                "storage": {}
            },
            "0xee8f7e38be79a20210ba7860a51507505984e4ed": {
                "nonce": "0x00",
                "balance": "0x00",
                "code": "0x6001600352604060006040600073265eeb9a84fea22da8b58252402b03bafe1a632462061ad5fa505b61c350608051101560445760013b506001608051016080526028565b00",
                "storage": {}
            },
            "0x4cd868420cbc0e9d9ba63455a2d0a36ce0fabf2c": {
                "nonce": "0x00",
                "balance": "0x00",
                "code": "0x6001600352604060006040600073265eeb9a84fea22da8b58252402b03bafe1a632462061ad5fa50600160035500",
                "storage": {}
            },
            "0xf1f083974fd68b961e68130c27fc5ef37b49c1df": {
                "nonce": "0x00",
                "balance": "0x0de0b6b3a7640000",
                "code": "0x604060006040600060003562092856fa600055600160015500",
                "storage": {}
            }
        },
        "postState": {
            "0x000f3df6d732807ef1319fb7b8bb8522d0beac02": {
                "nonce": "0x01",
                "balance": "0x00",
                "code": "0x3373fffffffffffffffffffffffffffffffffffffffe14604d57602036146024575f5ffd5b5f35801560495762001fff810690815414603c575f5ffd5b62001fff01545f5260205ff35b5f5ffd5b62001fff42064281555f359062001fff015500",
                "storage": {
                    "0x03e8": "0x03e8"
                }
            },
            "0xebaf50debf10e08302fe4280c32df010463ca297": {
                "nonce": "0x01",
                "balance": "0x0de0b6b3a7010dc4",
                "code": "0x",
                "storage": {}
            },
            "0x335c5531b84765a7626e6e76688f18b81be5259c": {
                "nonce": "0x00",
                "balance": "0x00",
                "code": "0x600160035200",
                "storage": {}
            },
            "0x265eeb9a84fea22da8b58252402b03bafe1a6324": {
                "nonce": "0x00",
                "balance": "0x00",
                "code": "0x6001600352604060006040600073335c5531b84765a7626e6e76688f18b81be5259c6201d4d4f450600160205200",
                "storage": {}
            },
            "0xee8f7e38be79a20210ba7860a51507505984e4ed": {
                "nonce": "0x00",
                "balance": "0x00",
                "code": "0x6001600352604060006040600073265eeb9a84fea22da8b58252402b03bafe1a632462061ad5fa505b61c350608051101560445760013b506001608051016080526028565b00",
                "storage": {}
            },
            "0x4cd868420cbc0e9d9ba63455a2d0a36ce0fabf2c": {
                "nonce": "0x00",
                "balance": "0x00",
                "code": "0x6001600352604060006040600073265eeb9a84fea22da8b58252402b03bafe1a632462061ad5fa50600160035500",
                "storage": {}
            },
            "0xf1f083974fd68b961e68130c27fc5ef37b49c1df": {
                "nonce": "0x00",
                "balance": "0x0de0b6b3a7640000",
                "code": "0x604060006040600060003562092856fa600055600160015500",
                "storage": {
                    "0x01": "0x01"
                }
            }
        },
        "lastblockhash": "0xc86ea7faedf34d8a3b444b4a9452d22bdbbbb44503078c3d4363a55bdb9ec666",
        "config": {
            "network": "Cancun",
            "chainid": "0x01",
            "blobSchedule": {
                "Cancun": {
                    "target": "0x03",
                    "max": "0x06",
                    "baseFeeUpdateFraction": "0x32f0ed"
                }
            }
        },
        "genesisRLP": "0xf9023cf90236a00000000000000000000000000000000000000000000000000000000000000000a01dcc4de8dec75d7aab85b567b6ccd41ad312451b948a7413f0a142fd40d49347940000000000000000000000000000000000000000a01fcc17073103a863667ac4cf8c13575c4036cc8c325ced71bf25e80e29f364cca056e81f171bcc55a6ff8345e692c0f86e5b48e01b996cadc001622fb5e363b421a056e81f171bcc55a6ff8345e692c0f86e5b48e01b996cadc001622fb5e363b421b901000000000000000000000000000000000000000000000000000000000000000000000000000000000000000000000000000000000000000000000000000000000000000000000000000000000000000000000000000000000000000000000000000000000000000000000000000000000000000000000000000000000000000000000000000000000000000000000000000000000000000000000000000000000000000000000000000000000000000000000000000000000000000000000000000000000000000000000000000000000000000000000000000000000000000000000000000000000000000000000000000000000000000000000000000000000080808401c9c380808000a000000000000000000000000000000000000000000000000000000000000000008800000000000000000ba056e81f171bcc55a6ff8345e692c0f86e5b48e01b996cadc001622fb5e363b4218080a00000000000000000000000000000000000000000000000000000000000000000c0c0c0",
        "blocks": [
            {
                "blockHeader": {
                    "parentHash": "0xb9a9f37dc4e91380221cb97d6e1e806943ce96b8289f928868fa70ff68630b37",
                    "uncleHash": "0x1dcc4de8dec75d7aab85b567b6ccd41ad312451b948a7413f0a142fd40d49347",
                    "coinbase": "0x2adc25665018aa1fe0e6bc666dac8fc2697ff9ba",
                    "stateRoot": "0xdc38bf98e7aff24ff8eb456836d2f198a82da83deb59e66cb675485203a91838",
                    "transactionsTrie": "0x9836a300312f52831d75d2866815f932079d62a9521cca55e9b5c49a7875c0e3",
                    "receiptTrie": "0x990e5496f0fbbdc8a4fb382c442d5903455c79f8fc923d82e339edc601df1862",
                    "bloom": "0x00000000000000000000000000000000000000000000000000000000000000000000000000000000000000000000000000000000000000000000000000000000000000000000000000000000000000000000000000000000000000000000000000000000000000000000000000000000000000000000000000000000000000000000000000000000000000000000000000000000000000000000000000000000000000000000000000000000000000000000000000000000000000000000000000000000000000000000000000000000000000000000000000000000000000000000000000000000000000000000000000000000000000000000000000000000",
                    "difficulty": "0x00",
                    "number": "0x01",
                    "gasLimit": "0x01c9c380",
                    "gasUsed": "0x09e506",
                    "timestamp": "0x03e8",
                    "extraData": "0x00",
                    "mixHash": "0x0000000000000000000000000000000000000000000000000000000000020000",
                    "nonce": "0x0000000000000000",
                    "baseFeePerGas": "0x0a",
                    "withdrawalsRoot": "0x56e81f171bcc55a6ff8345e692c0f86e5b48e01b996cadc001622fb5e363b421",
                    "blobGasUsed": "0x00",
                    "excessBlobGas": "0x00",
                    "parentBeaconBlockRoot": "0x0000000000000000000000000000000000000000000000000000000000000000",
                    "hash": "0xc86ea7faedf34d8a3b444b4a9452d22bdbbbb44503078c3d4363a55bdb9ec666"
                },
                "transactions": [
                    {
                        "type": "0x00",
                        "chainId": "0x01",
                        "nonce": "0x00",
                        "gasPrice": "0x0a",
                        "gasLimit": "0x1a3ec0",
                        "to": "0xf1f083974fd68b961e68130c27fc5ef37b49c1df",
                        "value": "0x00",
                        "data": "0x000000000000000000000000ee8f7e38be79a20210ba7860a51507505984e4ed",
                        "v": "0x26",
                        "r": "0x33d8fe331d9f61aaaf0a37199661a4c30edb2d51a1f6d65e4ba84999692b9d02",
                        "s": "0x45fdacb2313d672250840cccf86612234a12c7009d250a9a3f255d8b2af70316",
                        "sender": "0xebaf50debf10e08302fe4280c32df010463ca297"
                    }
                ],
                "uncleHeaders": [],
                "withdrawals": [],
                "receipts": [
                    {
                        "transactionHash": "0xa5f524fc28ca71a60a0d134783eb381027e50d24f6571ae3a1cc704f035e8c39",
                        "type": "0x00",
                        "cumulativeGasUsed": "0x09e506",
                        "bloom": "0x00000000000000000000000000000000000000000000000000000000000000000000000000000000000000000000000000000000000000000000000000000000000000000000000000000000000000000000000000000000000000000000000000000000000000000000000000000000000000000000000000000000000000000000000000000000000000000000000000000000000000000000000000000000000000000000000000000000000000000000000000000000000000000000000000000000000000000000000000000000000000000000000000000000000000000000000000000000000000000000000000000000000000000000000000000000",
                        "logs": [],
                        "status": true,
                        "rlp": "0xf90109018309e506b9010000000000000000000000000000000000000000000000000000000000000000000000000000000000000000000000000000000000000000000000000000000000000000000000000000000000000000000000000000000000000000000000000000000000000000000000000000000000000000000000000000000000000000000000000000000000000000000000000000000000000000000000000000000000000000000000000000000000000000000000000000000000000000000000000000000000000000000000000000000000000000000000000000000000000000000000000000000000000000000000000000000000000000000000000000000000c0"
                    }
                ],
                "rlp": "0xf902c4f9023ba0b9a9f37dc4e91380221cb97d6e1e806943ce96b8289f928868fa70ff68630b37a01dcc4de8dec75d7aab85b567b6ccd41ad312451b948a7413f0a142fd40d49347942adc25665018aa1fe0e6bc666dac8fc2697ff9baa0dc38bf98e7aff24ff8eb456836d2f198a82da83deb59e66cb675485203a91838a09836a300312f52831d75d2866815f932079d62a9521cca55e9b5c49a7875c0e3a0990e5496f0fbbdc8a4fb382c442d5903455c79f8fc923d82e339edc601df1862b901000000000000000000000000000000000000000000000000000000000000000000000000000000000000000000000000000000000000000000000000000000000000000000000000000000000000000000000000000000000000000000000000000000000000000000000000000000000000000000000000000000000000000000000000000000000000000000000000000000000000000000000000000000000000000000000000000000000000000000000000000000000000000000000000000000000000000000000000000000000000000000000000000000000000000000000000000000000000000000000000000000000000000000000000000000000080018401c9c3808309e5068203e800a000000000000000000000000000000000000000000000000000000000000200008800000000000000000aa056e81f171bcc55a6ff8345e692c0f86e5b48e01b996cadc001622fb5e363b4218080a00000000000000000000000000000000000000000000000000000000000000000f882f880800a831a3ec094f1f083974fd68b961e68130c27fc5ef37b49c1df80a0000000000000000000000000ee8f7e38be79a20210ba7860a51507505984e4ed26a033d8fe331d9f61aaaf0a37199661a4c30edb2d51a1f6d65e4ba84999692b9d02a045fdacb2313d672250840cccf86612234a12c7009d250a9a3f255d8b2af70316c0c0",
                "blocknumber": "1"
            }
        ],
        "sealEngine": "NoProof",
        "_info": {
            "hash": "0x072db2dac3f25574fa1b9417cc3a4c71121fc22b4db54802da8778b44aba045a",
            "fixture-format": "blockchain_test",
            "comment": "`execution-specs` generated test",
            "filling-transition-tool": "2.19.0",
            "description": "No description available - add a docstring to the python test class or function.",
            "url": "",
            "opcode_count": {}
        }
    }
}