{
    "tests/static/state_tests/stStaticCall/static_callcallcallcode_001_OOGMBeforeFiller.json::static_callcallcallcode_001_OOGMBefore[fork_Cancun-blockchain_test_from_state_test-d0]": {
        "network": "Cancun",
        "genesisBlockHeader": {
            "parentHash": "0x0000000000000000000000000000000000000000000000000000000000000000",
            "uncleHash": "0x1dcc4de8dec75d7aab85b567b6ccd41ad312451b948a7413f0a142fd40d49347",
            "coinbase": "0x0000000000000000000000000000000000000000",
            "stateRoot": "0x53fa706d7f16b5900c11a8201941d56c0a2c429b7758e5330034d4377b248589",
            "transactionsTrie": "0x56e81f171bcc55a6ff8345e692c0f86e5b48e01b996cadc001622fb5e363b421",
            "receiptTrie": "0x56e81f171bcc55a6ff8345e692c0f86e5b48e01b996cadc001622fb5e363b421",
            "bloom": "0x00000000000000000000000000000000000000000000000000000000000000000000000000000000000000000000000000000000000000000000000000000000000000000000000000000000000000000000000000000000000000000000000000000000000000000000000000000000000000000000000000000000000000000000000000000000000000000000000000000000000000000000000000000000000000000000000000000000000000000000000000000000000000000000000000000000000000000000000000000000000000000000000000000000000000000000000000000000000000000000000000000000000000000000000000000000",
            "difficulty": "0x00",
            "number": "0x00",
            "gasLimit": "0x01c9c380",
            "gasUsed": "0x00",
            "timestamp": "0x00",
            "extraData": "0x00",
            "mixHash": "0x0000000000000000000000000000000000000000000000000000000000000000",
            "nonce": "0x0000000000000000",
            "baseFeePerGas": "0x0b",
            "withdrawalsRoot": "0x56e81f171bcc55a6ff8345e692c0f86e5b48e01b996cadc001622fb5e363b421",
            "blobGasUsed": "0x00",
            "excessBlobGas": "0x00",
            "parentBeaconBlockRoot": "0x0000000000000000000000000000000000000000000000000000000000000000",
            "hash": "0x9c59a481960aba267ec3db115135b7f40786daf1285577052ec18a9993658b0e"
        },
        "pre": {
            "0x000f3df6d732807ef1319fb7b8bb8522d0beac02": {
                "nonce": "0x01",
                "balance": "0x00",
                "code": "0x3373fffffffffffffffffffffffffffffffffffffffe14604d57602036146024575f5ffd5b5f35801560495762001fff810690815414603c575f5ffd5b62001fff01545f5260205ff35b5f5ffd5b62001fff42064281555f359062001fff015500",
                "storage": {}
            },
            "0xebaf50debf10e08302fe4280c32df010463ca297": {
                "nonce": "0x00",
                "balance": "0x0de0b6b3a7640000",
                "code": "0x",
                "storage": {}
            },
            "0x335c5531b84765a7626e6e76688f18b81be5259c": {
                "nonce": "0x00",
                "balance": "0x00",
                "code": "0x600160035200",
                "storage": {}
            },
            "0xeb89be27eb1850f5f46204e0609023f43c2edc35": {
                "nonce": "0x00",
                "balance": "0x00",
                "code": "0x6001600155604060006040600073335c5531b84765a7626e6e76688f18b81be5259c6201d4d4f450600160035200",
                "storage": {}
            },
            "0x8214b87bb9fd41ed6c19255d74b7fcc66178c4d5": {
                "nonce": "0x00",
                "balance": "0x00",
                "code": "0x5b61c3506080511015601c5760013b506001608051016080526000565b604060006040600073335c5531b84765a7626e6e76688f18b81be5259c6201d4d4f450600160035200",
                "storage": {}
            },
            "0x10f374fca091cacd3e57e847ba123bc16695c44e": {
                "nonce": "0x00",
                "balance": "0x00",
                "code": "0x6001600352604060006040600060003562061ad0fa50600160205200",
                "storage": {}
            },
            "0xc6df53af8aaf7c046b42cf493d4c6819ebec7994": {
                "nonce": "0x00",
                "balance": "0x0de0b6b3a7640000",
                "code": "0x60003560005260406000602060007310f374fca091cacd3e57e847ba123bc16695c44e620927c0fa600055600160015500",
                "storage": {}
            }
        },
        "postState": {
            "0x000f3df6d732807ef1319fb7b8bb8522d0beac02": {
                "nonce": "0x01",
                "balance": "0x00",
                "code": "0x3373fffffffffffffffffffffffffffffffffffffffe14604d57602036146024575f5ffd5b5f35801560495762001fff810690815414603c575f5ffd5b62001fff01545f5260205ff35b5f5ffd5b62001fff42064281555f359062001fff015500",
                "storage": {
                    "0x03e8": "0x03e8"
                }
            },
            "0xebaf50debf10e08302fe4280c32df010463ca297": {
                "nonce": "0x01",
                "balance": "0x0de0b6b3a71c23e8",
                "code": "0x",
                "storage": {}
            },
            "0x335c5531b84765a7626e6e76688f18b81be5259c": {
                "nonce": "0x00",
                "balance": "0x00",
                "code": "0x600160035200",
                "storage": {}
            },
            "0xeb89be27eb1850f5f46204e0609023f43c2edc35": {
                "nonce": "0x00",
                "balance": "0x00",
                "code": "0x6001600155604060006040600073335c5531b84765a7626e6e76688f18b81be5259c6201d4d4f450600160035200",
                "storage": {}
            },
            "0x8214b87bb9fd41ed6c19255d74b7fcc66178c4d5": {
                "nonce": "0x00",
                "balance": "0x00",
                "code": "0x5b61c3506080511015601c5760013b506001608051016080526000565b604060006040600073335c5531b84765a7626e6e76688f18b81be5259c6201d4d4f450600160035200",
                "storage": {}
            },
            "0x10f374fca091cacd3e57e847ba123bc16695c44e": {
                "nonce": "0x00",
                "balance": "0x00",
                "code": "0x6001600352604060006040600060003562061ad0fa50600160205200",
                "storage": {}
            },
            "0xc6df53af8aaf7c046b42cf493d4c6819ebec7994": {
                "nonce": "0x00",
                "balance": "0x0de0b6b3a7640000",
                "code": "0x60003560005260406000602060007310f374fca091cacd3e57e847ba123bc16695c44e620927c0fa600055600160015500",
                "storage": {
                    "0x00": "0x01",
                    "0x01": "0x01"
                }
            }
        },
        "lastblockhash": "0xf1a520ef11e6969fd8c895d05e8c8c7fc13031343d6ef577ab2b61a52444719d",
        "config": {
            "network": "Cancun",
            "chainid": "0x01",
            "blobSchedule": {
                "Cancun": {
                    "target": "0x03",
                    "max": "0x06",
                    "baseFeeUpdateFraction": "0x32f0ed"
                }
            }
        },
        "genesisRLP": "0xf9023cf90236a00000000000000000000000000000000000000000000000000000000000000000a01dcc4de8dec75d7aab85b567b6ccd41ad312451b948a7413f0a142fd40d49347940000000000000000000000000000000000000000a053fa706d7f16b5900c11a8201941d56c0a2c429b7758e5330034d4377b248589a056e81f171bcc55a6ff8345e692c0f86e5b48e01b996cadc001622fb5e363b421a056e81f171bcc55a6ff8345e692c0f86e5b48e01b996cadc001622fb5e363b421b901000000000000000000000000000000000000000000000000000000000000000000000000000000000000000000000000000000000000000000000000000000000000000000000000000000000000000000000000000000000000000000000000000000000000000000000000000000000000000000000000000000000000000000000000000000000000000000000000000000000000000000000000000000000000000000000000000000000000000000000000000000000000000000000000000000000000000000000000000000000000000000000000000000000000000000000000000000000000000000000000000000000000000000000000000000000080808401c9c380808000a000000000000000000000000000000000000000000000000000000000000000008800000000000000000ba056e81f171bcc55a6ff8345e692c0f86e5b48e01b996cadc001622fb5e363b4218080a00000000000000000000000000000000000000000000000000000000000000000c0c0c0",
        "blocks": [
            {
                "blockHeader": {
                    "parentHash": "0x9c59a481960aba267ec3db115135b7f40786daf1285577052ec18a9993658b0e",
                    "uncleHash": "0x1dcc4de8dec75d7aab85b567b6ccd41ad312451b948a7413f0a142fd40d49347",
                    "coinbase": "0x2adc25665018aa1fe0e6bc666dac8fc2697ff9ba",
                    "stateRoot": "0xcdc1e8f9b146aa487be41d89954bc4bef48add445399731c4065db7cdf1ecc5b",
                    "transactionsTrie": "0x65e00c34e3be12563202691230abf3c2a735f5f54b145ba6b799db0889bc96e2",
                    "receiptTrie": "0x6f6428c57261586741e73c4eb85d806fd1f79f3ecb994c586b01dad325a1ff80",
                    "bloom": "0x00000000000000000000000000000000000000000000000000000000000000000000000000000000000000000000000000000000000000000000000000000000000000000000000000000000000000000000000000000000000000000000000000000000000000000000000000000000000000000000000000000000000000000000000000000000000000000000000000000000000000000000000000000000000000000000000000000000000000000000000000000000000000000000000000000000000000000000000000000000000000000000000000000000000000000000000000000000000000000000000000000000000000000000000000000000",
                    "difficulty": "0x00",
                    "number": "0x01",
                    "gasLimit": "0x01c9c380",
                    "gasUsed": "0x072f9c",
                    "timestamp": "0x03e8",
                    "extraData": "0x00",
                    "mixHash": "0x0000000000000000000000000000000000000000000000000000000000020000",
                    "nonce": "0x0000000000000000",
                    "baseFeePerGas": "0x0a",
                    "withdrawalsRoot": "0x56e81f171bcc55a6ff8345e692c0f86e5b48e01b996cadc001622fb5e363b421",
                    "blobGasUsed": "0x00",
                    "excessBlobGas": "0x00",
                    "parentBeaconBlockRoot": "0x0000000000000000000000000000000000000000000000000000000000000000",
                    "hash": "0xf1a520ef11e6969fd8c895d05e8c8c7fc13031343d6ef577ab2b61a52444719d"
                },
                "transactions": [
                    {
                        "type": "0x00",
                        "chainId": "0x01",
                        "nonce": "0x00",
                        "gasPrice": "0x0a",
                        "gasLimit": "0x1a3ec0",
                        "to": "0xc6df53af8aaf7c046b42cf493d4c6819ebec7994",
                        "value": "0x00",
                        "data": "0x0000000000000000000000008214b87bb9fd41ed6c19255d74b7fcc66178c4d5",
                        "v": "0x25",
                        "r": "0xd31acab68fde94e03490040974627f4ccf3249f89f6262c20939b00ae3a8d2f7",
                        "s": "0x740ce398391e24f9a0b628bda806d760d0a7d0b79ae7c58d3b36eb06950466bb",
                        "sender": "0xebaf50debf10e08302fe4280c32df010463ca297"
                    }
                ],
                "uncleHeaders": [],
                "withdrawals": [],
                "receipts": [
                    {
                        "transactionHash": "0xc3e9aa80a5a9edf21e23966a7b08fcd6007c7ef3dfe2b767a9283745585fb144",
                        "type": "0x00",
                        "cumulativeGasUsed": "0x072f9c",
                        "bloom": "0x00000000000000000000000000000000000000000000000000000000000000000000000000000000000000000000000000000000000000000000000000000000000000000000000000000000000000000000000000000000000000000000000000000000000000000000000000000000000000000000000000000000000000000000000000000000000000000000000000000000000000000000000000000000000000000000000000000000000000000000000000000000000000000000000000000000000000000000000000000000000000000000000000000000000000000000000000000000000000000000000000000000000000000000000000000000",
                        "logs": [],
                        "status": true,
                        "rlp": "0xf901090183072f9cb9010000000000000000000000000000000000000000000000000000000000000000000000000000000000000000000000000000000000000000000000000000000000000000000000000000000000000000000000000000000000000000000000000000000000000000000000000000000000000000000000000000000000000000000000000000000000000000000000000000000000000000000000000000000000000000000000000000000000000000000000000000000000000000000000000000000000000000000000000000000000000000000000000000000000000000000000000000000000000000000000000000000000000000000000000000000000c0"
                    }
                ],
                "rlp": "0xf902c4f9023ba09c59a481960aba267ec3db115135b7f40786daf1285577052ec18a9993658b0ea01dcc4de8dec75d7aab85b567b6ccd41ad312451b948a7413f0a142fd40d49347942adc25665018aa1fe0e6bc666dac8fc2697ff9baa0cdc1e8f9b146aa487be41d89954bc4bef48add445399731c4065db7cdf1ecc5ba065e00c34e3be12563202691230abf3c2a735f5f54b145ba6b799db0889bc96e2a06f6428c57261586741e73c4eb85d806fd1f79f3ecb994c586b01dad325a1ff80b901000000000000000000000000000000000000000000000000000000000000000000000000000000000000000000000000000000000000000000000000000000000000000000000000000000000000000000000000000000000000000000000000000000000000000000000000000000000000000000000000000000000000000000000000000000000000000000000000000000000000000000000000000000000000000000000000000000000000000000000000000000000000000000000000000000000000000000000000000000000000000000000000000000000000000000000000000000000000000000000000000000000000000000000000000000000080018401c9c38083072f9c8203e800a000000000000000000000000000000000000000000000000000000000000200008800000000000000000aa056e81f171bcc55a6ff8345e692c0f86e5b48e01b996cadc001622fb5e363b4218080a00000000000000000000000000000000000000000000000000000000000000000f882f880800a831a3ec094c6df53af8aaf7c046b42cf493d4c6819ebec799480a00000000000000000000000008214b87bb9fd41ed6c19255d74b7fcc66178c4d525a0d31acab68fde94e03490040974627f4ccf3249f89f6262c20939b00ae3a8d2f7a0740ce398391e24f9a0b628bda806d760d0a7d0b79ae7c58d3b36eb06950466bbc0c0",
                "blocknumber": "1"
            }
        ],
        "sealEngine": "NoProof",
        "_info": {
            "hash": "0x3601f5e42cbe0dfece51c345d7d95195effe9f854c27a306ce98a3269cfdbea4",
            "fixture-format": "blockchain_test",
            "comment": "`execution-specs` generated test",
            "filling-transition-tool": "2.19.0",
            "description": "No description available - add a docstring to the python test class or function.",
            "url": "",
            "opcode_count": {}
        }
    },
    "tests/static/state_tests/stStaticCall/static_callcallcallcode_001_OOGMBeforeFiller.json::static_callcallcallcode_001_OOGMBefore[fork_Cancun-blockchain_test_from_state_test-d1]": {
        "network": "Cancun",
        "genesisBlockHeader": {
            "parentHash": "0x0000000000000000000000000000000000000000000000000000000000000000",
            "uncleHash": "0x1dcc4de8dec75d7aab85b567b6ccd41ad312451b948a7413f0a142fd40d49347",
            "coinbase": "0x0000000000000000000000000000000000000000",
            "stateRoot": "0x53fa706d7f16b5900c11a8201941d56c0a2c429b7758e5330034d4377b248589",
            "transactionsTrie": "0x56e81f171bcc55a6ff8345e692c0f86e5b48e01b996cadc001622fb5e363b421",
            "receiptTrie": "0x56e81f171bcc55a6ff8345e692c0f86e5b48e01b996cadc001622fb5e363b421",
            "bloom": "0x00000000000000000000000000000000000000000000000000000000000000000000000000000000000000000000000000000000000000000000000000000000000000000000000000000000000000000000000000000000000000000000000000000000000000000000000000000000000000000000000000000000000000000000000000000000000000000000000000000000000000000000000000000000000000000000000000000000000000000000000000000000000000000000000000000000000000000000000000000000000000000000000000000000000000000000000000000000000000000000000000000000000000000000000000000000",
            "difficulty": "0x00",
            "number": "0x00",
            "gasLimit": "0x01c9c380",
            "gasUsed": "0x00",
            "timestamp": "0x00",
            "extraData": "0x00",
            "mixHash": "0x0000000000000000000000000000000000000000000000000000000000000000",
            "nonce": "0x0000000000000000",
            "baseFeePerGas": "0x0b",
            "withdrawalsRoot": "0x56e81f171bcc55a6ff8345e692c0f86e5b48e01b996cadc001622fb5e363b421",
            "blobGasUsed": "0x00",
            "excessBlobGas": "0x00",
            "parentBeaconBlockRoot": "0x0000000000000000000000000000000000000000000000000000000000000000",
            "hash": "0x9c59a481960aba267ec3db115135b7f40786daf1285577052ec18a9993658b0e"
        },
        "pre": {
            "0x000f3df6d732807ef1319fb7b8bb8522d0beac02": {
                "nonce": "0x01",
                "balance": "0x00",
                "code": "0x3373fffffffffffffffffffffffffffffffffffffffe14604d57602036146024575f5ffd5b5f35801560495762001fff810690815414603c575f5ffd5b62001fff01545f5260205ff35b5f5ffd5b62001fff42064281555f359062001fff015500",
                "storage": {}
            },
            "0xebaf50debf10e08302fe4280c32df010463ca297": {
                "nonce": "0x00",
                "balance": "0x0de0b6b3a7640000",
                "code": "0x",
                "storage": {}
            },
            "0x335c5531b84765a7626e6e76688f18b81be5259c": {
                "nonce": "0x00",
                "balance": "0x00",
                "code": "0x600160035200",
                "storage": {}
            },
            "0xeb89be27eb1850f5f46204e0609023f43c2edc35": {
                "nonce": "0x00",
                "balance": "0x00",
                "code": "0x6001600155604060006040600073335c5531b84765a7626e6e76688f18b81be5259c6201d4d4f450600160035200",
                "storage": {}
            },
            "0x8214b87bb9fd41ed6c19255d74b7fcc66178c4d5": {
                "nonce": "0x00",
                "balance": "0x00",
                "code": "0x5b61c3506080511015601c5760013b506001608051016080526000565b604060006040600073335c5531b84765a7626e6e76688f18b81be5259c6201d4d4f450600160035200",
                "storage": {}
            },
            "0x10f374fca091cacd3e57e847ba123bc16695c44e": {
                "nonce": "0x00",
                "balance": "0x00",
                "code": "0x6001600352604060006040600060003562061ad0fa50600160205200",
                "storage": {}
            },
            "0xc6df53af8aaf7c046b42cf493d4c6819ebec7994": {
                "nonce": "0x00",
                "balance": "0x0de0b6b3a7640000",
                "code": "0x60003560005260406000602060007310f374fca091cacd3e57e847ba123bc16695c44e620927c0fa600055600160015500",
                "storage": {}
            }
        },
        "postState": {
            "0x000f3df6d732807ef1319fb7b8bb8522d0beac02": {
                "nonce": "0x01",
                "balance": "0x00",
                "code": "0x3373fffffffffffffffffffffffffffffffffffffffe14604d57602036146024575f5ffd5b5f35801560495762001fff810690815414603c575f5ffd5b62001fff01545f5260205ff35b5f5ffd5b62001fff42064281555f359062001fff015500",
                "storage": {
                    "0x03e8": "0x03e8"
                }
            },
            "0xebaf50debf10e08302fe4280c32df010463ca297": {
                "nonce": "0x01",
                "balance": "0x0de0b6b3a71c23e8",
                "code": "0x",
                "storage": {}
            },
            "0x335c5531b84765a7626e6e76688f18b81be5259c": {
                "nonce": "0x00",
                "balance": "0x00",
                "code": "0x600160035200",
                "storage": {}
            },
            "0xeb89be27eb1850f5f46204e0609023f43c2edc35": {
                "nonce": "0x00",
                "balance": "0x00",
                "code": "0x6001600155604060006040600073335c5531b84765a7626e6e76688f18b81be5259c6201d4d4f450600160035200",
                "storage": {}
            },
            "0x8214b87bb9fd41ed6c19255d74b7fcc66178c4d5": {
                "nonce": "0x00",
                "balance": "0x00",
                "code": "0x5b61c3506080511015601c5760013b506001608051016080526000565b604060006040600073335c5531b84765a7626e6e76688f18b81be5259c6201d4d4f450600160035200",
                "storage": {}
            },
            "0x10f374fca091cacd3e57e847ba123bc16695c44e": {
                "nonce": "0x00",
                "balance": "0x00",
                "code": "0x6001600352604060006040600060003562061ad0fa50600160205200",
                "storage": {}
            },
            "0xc6df53af8aaf7c046b42cf493d4c6819ebec7994": {
                "nonce": "0x00",
                "balance": "0x0de0b6b3a7640000",
                "code": "0x60003560005260406000602060007310f374fca091cacd3e57e847ba123bc16695c44e620927c0fa600055600160015500",
                "storage": {
                    "0x00": "0x01",
                    "0x01": "0x01"
                }
            }
        },
        "lastblockhash": "0x05aa3437febe9f22ce946818712ff622f0e7cd7c32f98ab5bf02e9c196a968d6",
        "config": {
            "network": "Cancun",
            "chainid": "0x01",
            "blobSchedule": {
                "Cancun": {
                    "target": "0x03",
                    "max": "0x06",
                    "baseFeeUpdateFraction": "0x32f0ed"
                }
            }
        },
        "genesisRLP": "0xf9023cf90236a00000000000000000000000000000000000000000000000000000000000000000a01dcc4de8dec75d7aab85b567b6ccd41ad312451b948a7413f0a142fd40d49347940000000000000000000000000000000000000000a053fa706d7f16b5900c11a8201941d56c0a2c429b7758e5330034d4377b248589a056e81f171bcc55a6ff8345e692c0f86e5b48e01b996cadc001622fb5e363b421a056e81f171bcc55a6ff8345e692c0f86e5b48e01b996cadc001622fb5e363b421b901000000000000000000000000000000000000000000000000000000000000000000000000000000000000000000000000000000000000000000000000000000000000000000000000000000000000000000000000000000000000000000000000000000000000000000000000000000000000000000000000000000000000000000000000000000000000000000000000000000000000000000000000000000000000000000000000000000000000000000000000000000000000000000000000000000000000000000000000000000000000000000000000000000000000000000000000000000000000000000000000000000000000000000000000000000000080808401c9c380808000a000000000000000000000000000000000000000000000000000000000000000008800000000000000000ba056e81f171bcc55a6ff8345e692c0f86e5b48e01b996cadc001622fb5e363b4218080a00000000000000000000000000000000000000000000000000000000000000000c0c0c0",
        "blocks": [
            {
                "blockHeader": {
                    "parentHash": "0x9c59a481960aba267ec3db115135b7f40786daf1285577052ec18a9993658b0e",
                    "uncleHash": "0x1dcc4de8dec75d7aab85b567b6ccd41ad312451b948a7413f0a142fd40d49347",
                    "coinbase": "0x2adc25665018aa1fe0e6bc666dac8fc2697ff9ba",
                    "stateRoot": "0xcdc1e8f9b146aa487be41d89954bc4bef48add445399731c4065db7cdf1ecc5b",
                    "transactionsTrie": "0xc95f515e7ad7ffe859d35e54370fbbcb2c356a48f99d6562a469a8f427e5ec82",
                    "receiptTrie": "0x6f6428c57261586741e73c4eb85d806fd1f79f3ecb994c586b01dad325a1ff80",
                    "bloom": "0x00000000000000000000000000000000000000000000000000000000000000000000000000000000000000000000000000000000000000000000000000000000000000000000000000000000000000000000000000000000000000000000000000000000000000000000000000000000000000000000000000000000000000000000000000000000000000000000000000000000000000000000000000000000000000000000000000000000000000000000000000000000000000000000000000000000000000000000000000000000000000000000000000000000000000000000000000000000000000000000000000000000000000000000000000000000",
                    "difficulty": "0x00",
                    "number": "0x01",
                    "gasLimit": "0x01c9c380",
                    "gasUsed": "0x072f9c",
                    "timestamp": "0x03e8",
                    "extraData": "0x00",
                    "mixHash": "0x0000000000000000000000000000000000000000000000000000000000020000",
                    "nonce": "0x0000000000000000",
                    "baseFeePerGas": "0x0a",
                    "withdrawalsRoot": "0x56e81f171bcc55a6ff8345e692c0f86e5b48e01b996cadc001622fb5e363b421",
                    "blobGasUsed": "0x00",
                    "excessBlobGas": "0x00",
                    "parentBeaconBlockRoot": "0x0000000000000000000000000000000000000000000000000000000000000000",
                    "hash": "0x05aa3437febe9f22ce946818712ff622f0e7cd7c32f98ab5bf02e9c196a968d6"
                },
                "transactions": [
                    {
                        "type": "0x00",
                        "chainId": "0x01",
                        "nonce": "0x00",
                        "gasPrice": "0x0a",
                        "gasLimit": "0x1a3ec0",
                        "to": "0xc6df53af8aaf7c046b42cf493d4c6819ebec7994",
                        "value": "0x00",
                        "data": "0x000000000000000000000000eb89be27eb1850f5f46204e0609023f43c2edc35",
                        "v": "0x26",
                        "r": "0x59438b87f8491ab380ab85d5bb0e8da956f612d5e97e8ecceb22a38bbe39ffca",
                        "s": "0x5435118aeab73321e49592e50816b95fa3cc1cad53641cdea86ccdbfd1c9ce89",
                        "sender": "0xebaf50debf10e08302fe4280c32df010463ca297"
                    }
                ],
                "uncleHeaders": [],
                "withdrawals": [],
                "receipts": [
                    {
                        "transactionHash": "0xe9ad6d2e4d9cd0a8efa357792c3d90ceb778a5e9b48c8a7ee3988363ebc02726",
                        "type": "0x00",
                        "cumulativeGasUsed": "0x072f9c",
                        "bloom": "0x00000000000000000000000000000000000000000000000000000000000000000000000000000000000000000000000000000000000000000000000000000000000000000000000000000000000000000000000000000000000000000000000000000000000000000000000000000000000000000000000000000000000000000000000000000000000000000000000000000000000000000000000000000000000000000000000000000000000000000000000000000000000000000000000000000000000000000000000000000000000000000000000000000000000000000000000000000000000000000000000000000000000000000000000000000000",
                        "logs": [],
                        "status": true,
                        "rlp": "0xf901090183072f9cb9010000000000000000000000000000000000000000000000000000000000000000000000000000000000000000000000000000000000000000000000000000000000000000000000000000000000000000000000000000000000000000000000000000000000000000000000000000000000000000000000000000000000000000000000000000000000000000000000000000000000000000000000000000000000000000000000000000000000000000000000000000000000000000000000000000000000000000000000000000000000000000000000000000000000000000000000000000000000000000000000000000000000000000000000000000000000c0"
                    }
                ],
                "rlp": "0xf902c4f9023ba09c59a481960aba267ec3db115135b7f40786daf1285577052ec18a9993658b0ea01dcc4de8dec75d7aab85b567b6ccd41ad312451b948a7413f0a142fd40d49347942adc25665018aa1fe0e6bc666dac8fc2697ff9baa0cdc1e8f9b146aa487be41d89954bc4bef48add445399731c4065db7cdf1ecc5ba0c95f515e7ad7ffe859d35e54370fbbcb2c356a48f99d6562a469a8f427e5ec82a06f6428c57261586741e73c4eb85d806fd1f79f3ecb994c586b01dad325a1ff80b901000000000000000000000000000000000000000000000000000000000000000000000000000000000000000000000000000000000000000000000000000000000000000000000000000000000000000000000000000000000000000000000000000000000000000000000000000000000000000000000000000000000000000000000000000000000000000000000000000000000000000000000000000000000000000000000000000000000000000000000000000000000000000000000000000000000000000000000000000000000000000000000000000000000000000000000000000000000000000000000000000000000000000000000000000000000080018401c9c38083072f9c8203e800a000000000000000000000000000000000000000000000000000000000000200008800000000000000000aa056e81f171bcc55a6ff8345e692c0f86e5b48e01b996cadc001622fb5e363b4218080a00000000000000000000000000000000000000000000000000000000000000000f882f880800a831a3ec094c6df53af8aaf7c046b42cf493d4c6819ebec799480a0000000000000000000000000eb89be27eb1850f5f46204e0609023f43c2edc3526a059438b87f8491ab380ab85d5bb0e8da956f612d5e97e8ecceb22a38bbe39ffcaa05435118aeab73321e49592e50816b95fa3cc1cad53641cdea86ccdbfd1c9ce89c0c0",
                "blocknumber": "1"
            }
        ],
        "sealEngine": "NoProof",
        "_info": {
            "hash": "0x08c19ed835dccc1b0fc74a143f1a17e19b240e49aa5315e05dc59913280be3a2",
            "fixture-format": "blockchain_test",
            "comment": "`execution-specs` generated test",
            "filling-transition-tool": "2.19.0",
            "description": "No description available - add a docstring to the python test class or function.",
            "url": "",
            "opcode_count": {}
        }
    }
}