{
    "tests/static/state_tests/stStaticCall/static_CallRecursiveBombLog2Filler.json::static_CallRecursiveBombLog2[fork_Cancun-blockchain_test_from_state_test-]": {
        "network": "Cancun",
        "genesisBlockHeader": {
            "parentHash": "0x0000000000000000000000000000000000000000000000000000000000000000",
            "uncleHash": "0x1dcc4de8dec75d7aab85b567b6ccd41ad312451b948a7413f0a142fd40d49347",
            "coinbase": "0x0000000000000000000000000000000000000000",
            "stateRoot": "0xe1f555ca3ad6829940a55f8595f03dc6e89ec27e4c71ad963011b9f498bd755d",
            "transactionsTrie": "0x56e81f171bcc55a6ff8345e692c0f86e5b48e01b996cadc001622fb5e363b421",
            "receiptTrie": "0x56e81f171bcc55a6ff8345e692c0f86e5b48e01b996cadc001622fb5e363b421",
            "bloom": "0x00000000000000000000000000000000000000000000000000000000000000000000000000000000000000000000000000000000000000000000000000000000000000000000000000000000000000000000000000000000000000000000000000000000000000000000000000000000000000000000000000000000000000000000000000000000000000000000000000000000000000000000000000000000000000000000000000000000000000000000000000000000000000000000000000000000000000000000000000000000000000000000000000000000000000000000000000000000000000000000000000000000000000000000000000000000",
            "difficulty": "0x00",
            "number": "0x00",
            "gasLimit": "0x04a817c800",
            "gasUsed": "0x00",
            "timestamp": "0x00",
            "extraData": "0x00",
            "mixHash": "0x0000000000000000000000000000000000000000000000000000000000000000",
            "nonce": "0x0000000000000000",
            "baseFeePerGas": "0x0b",
            "withdrawalsRoot": "0x56e81f171bcc55a6ff8345e692c0f86e5b48e01b996cadc001622fb5e363b421",
            "blobGasUsed": "0x00",
            "excessBlobGas": "0x00",
            "parentBeaconBlockRoot": "0x0000000000000000000000000000000000000000000000000000000000000000",
            "hash": "0x842bf271c2a80439150e5775571365c1982c9d590f6b47ae3298af2c96aae3ec"
        },
        "pre": {
            "0x000f3df6d732807ef1319fb7b8bb8522d0beac02": {
                "nonce": "0x01",
                "balance": "0x00",
                "code": "0x3373fffffffffffffffffffffffffffffffffffffffe14604d57602036146024575f5ffd5b5f35801560495762001fff810690815414603c575f5ffd5b62001fff01545f5260205ff35b5f5ffd5b62001fff42064281555f359062001fff015500",
                "storage": {}
            },
            "0xebaf50debf10e08302fe4280c32df010463ca297": {
                "nonce": "0x00",
                "balance": "0x0de0b6b3a7640000",
                "code": "0x",
                "storage": {}
            },
            "0xb6d3ede67fdcdd6c67468b0ee88bd06fa680f8b3": {
                "nonce": "0x00",
                "balance": "0x0de0b6b3a7640000",
                "code": "0x5a60005260206000a06000600060006000306161a85a03fa00",
                "storage": {}
            },
            "0x846ac33c2465429e6d236eeb8a440983ac2349ed": {
                "nonce": "0x00",
                "balance": "0x01312d00",
                "code": "0x600060006000600073b6d3ede67fdcdd6c67468b0ee88bd06fa680f8b3620186a05a03fa600055600160015500",
                "storage": {}
            }
        },
        "postState": {
            "0x000f3df6d732807ef1319fb7b8bb8522d0beac02": {
                "nonce": "0x01",
                "balance": "0x00",
                "code": "0x3373fffffffffffffffffffffffffffffffffffffffe14604d57602036146024575f5ffd5b5f35801560495762001fff810690815414603c575f5ffd5b62001fff01545f5260205ff35b5f5ffd5b62001fff42064281555f359062001fff015500",
                "storage": {
                    "0x03e8": "0x03e8"
                }
            },
            "0xebaf50debf10e08302fe4280c32df010463ca297": {
                "nonce": "0x01",
                "balance": "0x0de0b69cbc09a8fa",
                "code": "0x",
                "storage": {}
            },
            "0xb6d3ede67fdcdd6c67468b0ee88bd06fa680f8b3": {
                "nonce": "0x00",
                "balance": "0x0de0b6b3a7640000",
                "code": "0x5a60005260206000a06000600060006000306161a85a03fa00",
                "storage": {}
            },
            "0x846ac33c2465429e6d236eeb8a440983ac2349ed": {
                "nonce": "0x00",
                "balance": "0x0132b3a0",
                "code": "0x600060006000600073b6d3ede67fdcdd6c67468b0ee88bd06fa680f8b3620186a05a03fa600055600160015500",
                "storage": {
                    "0x01": "0x01"
                }
            }
        },
        "lastblockhash": "0xda74d7f5f17d604d2f84afe4ba19eb5f7e22ec63ca3db7b8c87caed3b37a5d71",
        "config": {
            "network": "Cancun",
            "chainid": "0x01",
            "blobSchedule": {
                "Cancun": {
                    "target": "0x03",
                    "max": "0x06",
                    "baseFeeUpdateFraction": "0x32f0ed"
                }
            }
        },
        "genesisRLP": "0xf9023df90237a00000000000000000000000000000000000000000000000000000000000000000a01dcc4de8dec75d7aab85b567b6ccd41ad312451b948a7413f0a142fd40d49347940000000000000000000000000000000000000000a0e1f555ca3ad6829940a55f8595f03dc6e89ec27e4c71ad963011b9f498bd755da056e81f171bcc55a6ff8345e692c0f86e5b48e01b996cadc001622fb5e363b421a056e81f171bcc55a6ff8345e692c0f86e5b48e01b996cadc001622fb5e363b421b901000000000000000000000000000000000000000000000000000000000000000000000000000000000000000000000000000000000000000000000000000000000000000000000000000000000000000000000000000000000000000000000000000000000000000000000000000000000000000000000000000000000000000000000000000000000000000000000000000000000000000000000000000000000000000000000000000000000000000000000000000000000000000000000000000000000000000000000000000000000000000000000000000000000000000000000000000000000000000000000000000000000000000000000000000000000080808504a817c800808000a000000000000000000000000000000000000000000000000000000000000000008800000000000000000ba056e81f171bcc55a6ff8345e692c0f86e5b48e01b996cadc001622fb5e363b4218080a00000000000000000000000000000000000000000000000000000000000000000c0c0c0",
        "blocks": [
            {
                "blockHeader": {
                    "parentHash": "0x842bf271c2a80439150e5775571365c1982c9d590f6b47ae3298af2c96aae3ec",
                    "uncleHash": "0x1dcc4de8dec75d7aab85b567b6ccd41ad312451b948a7413f0a142fd40d49347",
                    "coinbase": "0x2adc25665018aa1fe0e6bc666dac8fc2697ff9ba",
                    "stateRoot": "0x16c53fa53dc1d060e276c881ea56cbce9bea78cb447cead230de0de57d9d73cd",
                    "transactionsTrie": "0x1869277738d4e212aa94ef2603d4fd592045f76e11971d82e552625e293e1843",
                    "receiptTrie": "0xbb3a1bb0060065d37fc0f2c7b08b6bf22f5329b29ebdb7d9f69377f1e5abee0f",
                    "bloom": "0x00000000000000000000000000000000000000000000000000000000000000000000000000000000000000000000000000000000000000000000000000000000000000000000000000000000000000000000000000000000000000000000000000000000000000000000000000000000000000000000000000000000000000000000000000000000000000000000000000000000000000000000000000000000000000000000000000000000000000000000000000000000000000000000000000000000000000000000000000000000000000000000000000000000000000000000000000000000000000000000000000000000000000000000000000000000",
                    "difficulty": "0x00",
                    "number": "0x01",
                    "gasLimit": "0x04a817c800",
                    "gasUsed": "0x024abc14d7",
                    "timestamp": "0x03e8",
                    "extraData": "0x00",
                    "mixHash": "0x0000000000000000000000000000000000000000000000000000000000020000",
                    "nonce": "0x0000000000000000",
                    "baseFeePerGas": "0x0a",
                    "withdrawalsRoot": "0x56e81f171bcc55a6ff8345e692c0f86e5b48e01b996cadc001622fb5e363b421",
                    "blobGasUsed": "0x00",
                    "excessBlobGas": "0x00",
                    "parentBeaconBlockRoot": "0x0000000000000000000000000000000000000000000000000000000000000000",
                    "hash": "0xda74d7f5f17d604d2f84afe4ba19eb5f7e22ec63ca3db7b8c87caed3b37a5d71"
                },
                "transactions": [
                    {
                        "type": "0x00",
                        "chainId": "0x01",
                        "nonce": "0x00",
                        "gasPrice": "0x0a",
                        "gasLimit": "0x02540be400",
                        "to": "0x846ac33c2465429e6d236eeb8a440983ac2349ed",
                        "value": "0x0186a0",
                        "data": "0x",
                        "v": "0x26",
                        "r": "0x31ace3e83cbe47d8fd149e39b7847b8517c038ad91b154268931cb0ed0f23ee4",
                        "s": "0x40f93cddca282ba88775bda45a5d10ecd83ee930d0e76fb8eeb5c69b72d7c408",
                        "sender": "0xebaf50debf10e08302fe4280c32df010463ca297"
                    }
                ],
                "uncleHeaders": [],
                "withdrawals": [],
                "receipts": [
                    {
                        "transactionHash": "0xa1a6bacc5d11580cb459d8340fefe8875a911f3bf46495c3a028c9632ccdcbb9",
                        "type": "0x00",
                        "cumulativeGasUsed": "0x024abc14d7",
                        "bloom": "0x00000000000000000000000000000000000000000000000000000000000000000000000000000000000000000000000000000000000000000000000000000000000000000000000000000000000000000000000000000000000000000000000000000000000000000000000000000000000000000000000000000000000000000000000000000000000000000000000000000000000000000000000000000000000000000000000000000000000000000000000000000000000000000000000000000000000000000000000000000000000000000000000000000000000000000000000000000000000000000000000000000000000000000000000000000000",
                        "logs": [],
                        "status": true,
                        "rlp": "0xf9010b0185024abc14d7b9010000000000000000000000000000000000000000000000000000000000000000000000000000000000000000000000000000000000000000000000000000000000000000000000000000000000000000000000000000000000000000000000000000000000000000000000000000000000000000000000000000000000000000000000000000000000000000000000000000000000000000000000000000000000000000000000000000000000000000000000000000000000000000000000000000000000000000000000000000000000000000000000000000000000000000000000000000000000000000000000000000000000000000000000000000000000c0"
                    }
                ],
                "rlp": "0xf902acf9023ea0842bf271c2a80439150e5775571365c1982c9d590f6b47ae3298af2c96aae3eca01dcc4de8dec75d7aab85b567b6ccd41ad312451b948a7413f0a142fd40d49347942adc25665018aa1fe0e6bc666dac8fc2697ff9baa016c53fa53dc1d060e276c881ea56cbce9bea78cb447cead230de0de57d9d73cda01869277738d4e212aa94ef2603d4fd592045f76e11971d82e552625e293e1843a0bb3a1bb0060065d37fc0f2c7b08b6bf22f5329b29ebdb7d9f69377f1e5abee0fb901000000000000000000000000000000000000000000000000000000000000000000000000000000000000000000000000000000000000000000000000000000000000000000000000000000000000000000000000000000000000000000000000000000000000000000000000000000000000000000000000000000000000000000000000000000000000000000000000000000000000000000000000000000000000000000000000000000000000000000000000000000000000000000000000000000000000000000000000000000000000000000000000000000000000000000000000000000000000000000000000000000000000000000000000000000000080018504a817c80085024abc14d78203e800a000000000000000000000000000000000000000000000000000000000000200008800000000000000000aa056e81f171bcc55a6ff8345e692c0f86e5b48e01b996cadc001622fb5e363b4218080a00000000000000000000000000000000000000000000000000000000000000000f867f865800a8502540be40094846ac33c2465429e6d236eeb8a440983ac2349ed830186a08026a031ace3e83cbe47d8fd149e39b7847b8517c038ad91b154268931cb0ed0f23ee4a040f93cddca282ba88775bda45a5d10ecd83ee930d0e76fb8eeb5c69b72d7c408c0c0",
                "blocknumber": "1"
            }
        ],
        "sealEngine": "NoProof",
        "_info": {
            "hash": "0x6f4299e9b7e08d7d20d1a481d6a665fe62d7d004698f8aa4cc845609ca725df4",
            "fixture-format": "blockchain_test",
            "comment": "`execution-specs` generated test",
            "filling-transition-tool": "2.19.0",
            "description": "No description available - add a docstring to the python test class or function.",
            "url": "",
            "opcode_count": {}
        }
    }
}