{
    "tests/ported_static/stStaticCall/test_static_callcallcodecall_010_oogm_after_3.py::test_static_callcallcodecall_010_oogm_after_3[fork_Cancun-blockchain_test_from_state_test-d0]": {
        "network": "Cancun",
        "genesisBlockHeader": {
            "parentHash": "0x0000000000000000000000000000000000000000000000000000000000000000",
            "uncleHash": "0x1dcc4de8dec75d7aab85b567b6ccd41ad312451b948a7413f0a142fd40d49347",
            "coinbase": "0x0000000000000000000000000000000000000000",
            "stateRoot": "0x4006c2629ab2dca02048afbfd478809f00775e24de70d57b895f989216ca2d2e",
            "transactionsTrie": "0x56e81f171bcc55a6ff8345e692c0f86e5b48e01b996cadc001622fb5e363b421",
            "receiptTrie": "0x56e81f171bcc55a6ff8345e692c0f86e5b48e01b996cadc001622fb5e363b421",
            "bloom": "0x00000000000000000000000000000000000000000000000000000000000000000000000000000000000000000000000000000000000000000000000000000000000000000000000000000000000000000000000000000000000000000000000000000000000000000000000000000000000000000000000000000000000000000000000000000000000000000000000000000000000000000000000000000000000000000000000000000000000000000000000000000000000000000000000000000000000000000000000000000000000000000000000000000000000000000000000000000000000000000000000000000000000000000000000000000000",
            "difficulty": "0x00",
            "number": "0x00",
            "gasLimit": "0x989680",
            "gasUsed": "0x00",
            "timestamp": "0x00",
            "extraData": "0x00",
            "mixHash": "0x0000000000000000000000000000000000000000000000000000000000000000",
            "nonce": "0x0000000000000000",
            "baseFeePerGas": "0x0b",
            "withdrawalsRoot": "0x56e81f171bcc55a6ff8345e692c0f86e5b48e01b996cadc001622fb5e363b421",
            "blobGasUsed": "0x00",
            "excessBlobGas": "0x00",
            "parentBeaconBlockRoot": "0x0000000000000000000000000000000000000000000000000000000000000000",
            "hash": "0x61e854cf885dd7bdb241a4e70d088e40127b20f622794519ecd5cf4a950aaefa"
        },
        "pre": {
            "0x000f3df6d732807ef1319fb7b8bb8522d0beac02": {
                "nonce": "0x01",
                "balance": "0x00",
                "code": "0x3373fffffffffffffffffffffffffffffffffffffffe14604d57602036146024575f5ffd5b5f35801560495762001fff810690815414603c575f5ffd5b62001fff01545f5260205ff35b5f5ffd5b62001fff42064281555f359062001fff015500",
                "storage": {}
            },
            "0xd66f224cbd2fabb21b17bb53c56118f32f62ebd6": {
                "nonce": "0x00",
                "balance": "0x0de0b6b3a7640000",
                "code": "0x",
                "storage": {}
            },
            "0xf1f083974fd68b961e68130c27fc5ef37b49c1df": {
                "nonce": "0x00",
                "balance": "0x0de0b6b3a7640000",
                "code": "0x604060006040600060003562092856fa600055600160015500",
                "storage": {}
            },
            "0x335c5531b84765a7626e6e76688f18b81be5259c": {
                "nonce": "0x00",
                "balance": "0x00",
                "code": "0x600160035200",
                "storage": {}
            },
            "0x6f67c62fa385edfe7bd280594eff367f33e51438": {
                "nonce": "0x00",
                "balance": "0x00",
                "code": "0x604060006040600073335c5531b84765a7626e6e76688f18b81be5259c6201d4d4fa00",
                "storage": {}
            },
            "0x079d1bfbc2a69eb3ca3dede36bf05a46d4f08116": {
                "nonce": "0x00",
                "balance": "0x00",
                "code": "0x60406000604060006000736f67c62fa385edfe7bd280594eff367f33e5143862061ad0f250600160035500",
                "storage": {}
            },
            "0x4c57f5c93feb3af1807980230371459b773a1f88": {
                "nonce": "0x00",
                "balance": "0x00",
                "code": "0x60406000604060006000736f67c62fa385edfe7bd280594eff367f33e5143862061ad0f2505b61c350608051101560415760013b506001608051016080526025565b00",
                "storage": {}
            }
        },
        "postState": {
            "0x000f3df6d732807ef1319fb7b8bb8522d0beac02": {
                "nonce": "0x01",
                "balance": "0x00",
                "code": "0x3373fffffffffffffffffffffffffffffffffffffffe14604d57602036146024575f5ffd5b5f35801560495762001fff810690815414603c575f5ffd5b62001fff01545f5260205ff35b5f5ffd5b62001fff42064281555f359062001fff015500",
                "storage": {
                    "0x03e8": "0x03e8"
                }
            },
            "0xd66f224cbd2fabb21b17bb53c56118f32f62ebd6": {
                "nonce": "0x01",
                "balance": "0x0de0b6b3a7010dc4",
                "code": "0x",
                "storage": {}
            },
            "0xf1f083974fd68b961e68130c27fc5ef37b49c1df": {
                "nonce": "0x00",
                "balance": "0x0de0b6b3a7640000",
                "code": "0x604060006040600060003562092856fa600055600160015500",
                "storage": {
                    "0x01": "0x01"
                }
            },
            "0x335c5531b84765a7626e6e76688f18b81be5259c": {
                "nonce": "0x00",
                "balance": "0x00",
                "code": "0x600160035200",
                "storage": {}
            },
            "0x6f67c62fa385edfe7bd280594eff367f33e51438": {
                "nonce": "0x00",
                "balance": "0x00",
                "code": "0x604060006040600073335c5531b84765a7626e6e76688f18b81be5259c6201d4d4fa00",
                "storage": {}
            },
            "0x079d1bfbc2a69eb3ca3dede36bf05a46d4f08116": {
                "nonce": "0x00",
                "balance": "0x00",
                "code": "0x60406000604060006000736f67c62fa385edfe7bd280594eff367f33e5143862061ad0f250600160035500",
                "storage": {}
            },
            "0x4c57f5c93feb3af1807980230371459b773a1f88": {
                "nonce": "0x00",
                "balance": "0x00",
                "code": "0x60406000604060006000736f67c62fa385edfe7bd280594eff367f33e5143862061ad0f2505b61c350608051101560415760013b506001608051016080526025565b00",
                "storage": {}
            }
        },
        "lastblockhash": "0xac9d462b0eba99cd771d7bcbb1905bebc53ae87c69cbc9d5b71b5e886f9ea5a9",
        "config": {
            "network": "Cancun",
            "chainid": "0x01",
            "blobSchedule": {
                "Cancun": {
                    "target": "0x03",
                    "max": "0x06",
                    "baseFeeUpdateFraction": "0x32f0ed"
                }
            }
        },
        "genesisRLP": "0xf9023bf90235a00000000000000000000000000000000000000000000000000000000000000000a01dcc4de8dec75d7aab85b567b6ccd41ad312451b948a7413f0a142fd40d49347940000000000000000000000000000000000000000a04006c2629ab2dca02048afbfd478809f00775e24de70d57b895f989216ca2d2ea056e81f171bcc55a6ff8345e692c0f86e5b48e01b996cadc001622fb5e363b421a056e81f171bcc55a6ff8345e692c0f86e5b48e01b996cadc001622fb5e363b421b9010000000000000000000000000000000000000000000000000000000000000000000000000000000000000000000000000000000000000000000000000000000000000000000000000000000000000000000000000000000000000000000000000000000000000000000000000000000000000000000000000000000000000000000000000000000000000000000000000000000000000000000000000000000000000000000000000000000000000000000000000000000000000000000000000000000000000000000000000000000000000000000000000000000000000000000000000000000000000000000000000000000000000000000000000000000000808083989680808000a000000000000000000000000000000000000000000000000000000000000000008800000000000000000ba056e81f171bcc55a6ff8345e692c0f86e5b48e01b996cadc001622fb5e363b4218080a00000000000000000000000000000000000000000000000000000000000000000c0c0c0",
        "blocks": [
            {
                "blockHeader": {
                    "parentHash": "0x61e854cf885dd7bdb241a4e70d088e40127b20f622794519ecd5cf4a950aaefa",
                    "uncleHash": "0x1dcc4de8dec75d7aab85b567b6ccd41ad312451b948a7413f0a142fd40d49347",
                    "coinbase": "0x2adc25665018aa1fe0e6bc666dac8fc2697ff9ba",
                    "stateRoot": "0x97a33137a67838185dc6289908a4f55c50ce165b93fb81fe5a5a60302b0692f9",
                    "transactionsTrie": "0x11f4ebe4c61ef0fde13edf1cd64ee3dd1933f312b92b8597bfa2d15d5e09b9d7",
                    "receiptTrie": "0x990e5496f0fbbdc8a4fb382c442d5903455c79f8fc923d82e339edc601df1862",
                    "bloom": "0x00000000000000000000000000000000000000000000000000000000000000000000000000000000000000000000000000000000000000000000000000000000000000000000000000000000000000000000000000000000000000000000000000000000000000000000000000000000000000000000000000000000000000000000000000000000000000000000000000000000000000000000000000000000000000000000000000000000000000000000000000000000000000000000000000000000000000000000000000000000000000000000000000000000000000000000000000000000000000000000000000000000000000000000000000000000",
                    "difficulty": "0x00",
                    "number": "0x01",
                    "gasLimit": "0x989680",
                    "gasUsed": "0x09e506",
                    "timestamp": "0x03e8",
                    "extraData": "0x00",
                    "mixHash": "0x0000000000000000000000000000000000000000000000000000000000020000",
                    "nonce": "0x0000000000000000",
                    "baseFeePerGas": "0x0a",
                    "withdrawalsRoot": "0x56e81f171bcc55a6ff8345e692c0f86e5b48e01b996cadc001622fb5e363b421",
                    "blobGasUsed": "0x00",
                    "excessBlobGas": "0x00",
                    "parentBeaconBlockRoot": "0x0000000000000000000000000000000000000000000000000000000000000000",
                    "hash": "0xac9d462b0eba99cd771d7bcbb1905bebc53ae87c69cbc9d5b71b5e886f9ea5a9"
                },
                "transactions": [
                    {
                        "type": "0x00",
                        "chainId": "0x01",
                        "nonce": "0x00",
                        "gasPrice": "0x0a",
                        "gasLimit": "0x1a3ec0",
                        "to": "0xf1f083974fd68b961e68130c27fc5ef37b49c1df",
                        "value": "0x00",
                        "data": "0x000000000000000000000000079d1bfbc2a69eb3ca3dede36bf05a46d4f08116",
                        "v": "0x26",
                        "r": "0x2796d541ee70902482b2a422b1b583f8209034a64aa559d164980164772f8657",
                        "s": "0x4a691e459296e0e0b153d4a283c035fcf66e6b123b54d2617939a7c8e451e12e",
                        "sender": "0xd66f224cbd2fabb21b17bb53c56118f32f62ebd6"
                    }
                ],
                "uncleHeaders": [],
                "withdrawals": [],
                "receipts": [
                    {
                        "transactionHash": "0x67f0eed884ecf2a5d8578d5941720859e73c51d7c094e50fc00c7017601d2e9e",
                        "type": "0x00",
                        "cumulativeGasUsed": "0x09e506",
                        "bloom": "0x00000000000000000000000000000000000000000000000000000000000000000000000000000000000000000000000000000000000000000000000000000000000000000000000000000000000000000000000000000000000000000000000000000000000000000000000000000000000000000000000000000000000000000000000000000000000000000000000000000000000000000000000000000000000000000000000000000000000000000000000000000000000000000000000000000000000000000000000000000000000000000000000000000000000000000000000000000000000000000000000000000000000000000000000000000000",
                        "logs": [],
                        "status": true,
                        "rlp": "0xf90109018309e506b9010000000000000000000000000000000000000000000000000000000000000000000000000000000000000000000000000000000000000000000000000000000000000000000000000000000000000000000000000000000000000000000000000000000000000000000000000000000000000000000000000000000000000000000000000000000000000000000000000000000000000000000000000000000000000000000000000000000000000000000000000000000000000000000000000000000000000000000000000000000000000000000000000000000000000000000000000000000000000000000000000000000000000000000000000000000000c0"
                    }
                ],
                "rlp": "0xf902c3f9023aa061e854cf885dd7bdb241a4e70d088e40127b20f622794519ecd5cf4a950aaefaa01dcc4de8dec75d7aab85b567b6ccd41ad312451b948a7413f0a142fd40d49347942adc25665018aa1fe0e6bc666dac8fc2697ff9baa097a33137a67838185dc6289908a4f55c50ce165b93fb81fe5a5a60302b0692f9a011f4ebe4c61ef0fde13edf1cd64ee3dd1933f312b92b8597bfa2d15d5e09b9d7a0990e5496f0fbbdc8a4fb382c442d5903455c79f8fc923d82e339edc601df1862b90100000000000000000000000000000000000000000000000000000000000000000000000000000000000000000000000000000000000000000000000000000000000000000000000000000000000000000000000000000000000000000000000000000000000000000000000000000000000000000000000000000000000000000000000000000000000000000000000000000000000000000000000000000000000000000000000000000000000000000000000000000000000000000000000000000000000000000000000000000000000000000000000000000000000000000000000000000000000000000000000000000000000000000000000000000000008001839896808309e5068203e800a000000000000000000000000000000000000000000000000000000000000200008800000000000000000aa056e81f171bcc55a6ff8345e692c0f86e5b48e01b996cadc001622fb5e363b4218080a00000000000000000000000000000000000000000000000000000000000000000f882f880800a831a3ec094f1f083974fd68b961e68130c27fc5ef37b49c1df80a0000000000000000000000000079d1bfbc2a69eb3ca3dede36bf05a46d4f0811626a02796d541ee70902482b2a422b1b583f8209034a64aa559d164980164772f8657a04a691e459296e0e0b153d4a283c035fcf66e6b123b54d2617939a7c8e451e12ec0c0",
                "blocknumber": "1"
            }
        ],
        "sealEngine": "NoProof",
        "_info": {
            "hash": "0x8c12ea9b494203a48713551c37dbd6be892dde89ae287c5df8920937e899008c",
            "fixture-format": "blockchain_test",
            "comment": "`execution-specs` generated test",
            "filling-transition-tool": "2.19.0",
            "description": "Test_static_callcallcodecall_010_oogm_after_3.",
            "url": "https://github.com/ethereum/execution-specs/blob/tests-snobal-devnet-5@v8037.0.0/tests/ported_static/stStaticCall/test_static_callcallcodecall_010_oogm_after_3.py#L25",
            "metadata": {
                "opcode_count": {}
            }
        }
    },
    "tests/ported_static/stStaticCall/test_static_callcallcodecall_010_oogm_after_3.py::test_static_callcallcodecall_010_oogm_after_3[fork_Cancun-blockchain_test_from_state_test-d1]": {
        "network": "Cancun",
        "genesisBlockHeader": {
            "parentHash": "0x0000000000000000000000000000000000000000000000000000000000000000",
            "uncleHash": "0x1dcc4de8dec75d7aab85b567b6ccd41ad312451b948a7413f0a142fd40d49347",
            "coinbase": "0x0000000000000000000000000000000000000000",
            "stateRoot": "0x4006c2629ab2dca02048afbfd478809f00775e24de70d57b895f989216ca2d2e",
            "transactionsTrie": "0x56e81f171bcc55a6ff8345e692c0f86e5b48e01b996cadc001622fb5e363b421",
            "receiptTrie": "0x56e81f171bcc55a6ff8345e692c0f86e5b48e01b996cadc001622fb5e363b421",
            "bloom": "0x00000000000000000000000000000000000000000000000000000000000000000000000000000000000000000000000000000000000000000000000000000000000000000000000000000000000000000000000000000000000000000000000000000000000000000000000000000000000000000000000000000000000000000000000000000000000000000000000000000000000000000000000000000000000000000000000000000000000000000000000000000000000000000000000000000000000000000000000000000000000000000000000000000000000000000000000000000000000000000000000000000000000000000000000000000000",
            "difficulty": "0x00",
            "number": "0x00",
            "gasLimit": "0x989680",
            "gasUsed": "0x00",
            "timestamp": "0x00",
            "extraData": "0x00",
            "mixHash": "0x0000000000000000000000000000000000000000000000000000000000000000",
            "nonce": "0x0000000000000000",
            "baseFeePerGas": "0x0b",
            "withdrawalsRoot": "0x56e81f171bcc55a6ff8345e692c0f86e5b48e01b996cadc001622fb5e363b421",
            "blobGasUsed": "0x00",
            "excessBlobGas": "0x00",
            "parentBeaconBlockRoot": "0x0000000000000000000000000000000000000000000000000000000000000000",
            "hash": "0x61e854cf885dd7bdb241a4e70d088e40127b20f622794519ecd5cf4a950aaefa"
        },
        "pre": {
            "0x000f3df6d732807ef1319fb7b8bb8522d0beac02": {
                "nonce": "0x01",
                "balance": "0x00",
                "code": "0x3373fffffffffffffffffffffffffffffffffffffffe14604d57602036146024575f5ffd5b5f35801560495762001fff810690815414603c575f5ffd5b62001fff01545f5260205ff35b5f5ffd5b62001fff42064281555f359062001fff015500",
                "storage": {}
            },
            "0xd66f224cbd2fabb21b17bb53c56118f32f62ebd6": {
                "nonce": "0x00",
                "balance": "0x0de0b6b3a7640000",
                "code": "0x",
                "storage": {}
            },
            "0xf1f083974fd68b961e68130c27fc5ef37b49c1df": {
                "nonce": "0x00",
                "balance": "0x0de0b6b3a7640000",
                "code": "0x604060006040600060003562092856fa600055600160015500",
                "storage": {}
            },
            "0x335c5531b84765a7626e6e76688f18b81be5259c": {
                "nonce": "0x00",
                "balance": "0x00",
                "code": "0x600160035200",
                "storage": {}
            },
            "0x6f67c62fa385edfe7bd280594eff367f33e51438": {
                "nonce": "0x00",
                "balance": "0x00",
                "code": "0x604060006040600073335c5531b84765a7626e6e76688f18b81be5259c6201d4d4fa00",
                "storage": {}
            },
            "0x079d1bfbc2a69eb3ca3dede36bf05a46d4f08116": {
                "nonce": "0x00",
                "balance": "0x00",
                "code": "0x60406000604060006000736f67c62fa385edfe7bd280594eff367f33e5143862061ad0f250600160035500",
                "storage": {}
            },
            "0x4c57f5c93feb3af1807980230371459b773a1f88": {
                "nonce": "0x00",
                "balance": "0x00",
                "code": "0x60406000604060006000736f67c62fa385edfe7bd280594eff367f33e5143862061ad0f2505b61c350608051101560415760013b506001608051016080526025565b00",
                "storage": {}
            }
        },
        "postState": {
            "0x000f3df6d732807ef1319fb7b8bb8522d0beac02": {
                "nonce": "0x01",
                "balance": "0x00",
                "code": "0x3373fffffffffffffffffffffffffffffffffffffffe14604d57602036146024575f5ffd5b5f35801560495762001fff810690815414603c575f5ffd5b62001fff01545f5260205ff35b5f5ffd5b62001fff42064281555f359062001fff015500",
                "storage": {
                    "0x03e8": "0x03e8"
                }
            },
            "0xd66f224cbd2fabb21b17bb53c56118f32f62ebd6": {
                "nonce": "0x01",
                "balance": "0x0de0b6b3a7010dc4",
                "code": "0x",
                "storage": {}
            },
            "0xf1f083974fd68b961e68130c27fc5ef37b49c1df": {
                "nonce": "0x00",
                "balance": "0x0de0b6b3a7640000",
                "code": "0x604060006040600060003562092856fa600055600160015500",
                "storage": {
                    "0x01": "0x01"
                }
            },
            "0x335c5531b84765a7626e6e76688f18b81be5259c": {
                "nonce": "0x00",
                "balance": "0x00",
                "code": "0x600160035200",
                "storage": {}
            },
            "0x6f67c62fa385edfe7bd280594eff367f33e51438": {
                "nonce": "0x00",
                "balance": "0x00",
                "code": "0x604060006040600073335c5531b84765a7626e6e76688f18b81be5259c6201d4d4fa00",
                "storage": {}
            },
            "0x079d1bfbc2a69eb3ca3dede36bf05a46d4f08116": {
                "nonce": "0x00",
                "balance": "0x00",
                "code": "0x60406000604060006000736f67c62fa385edfe7bd280594eff367f33e5143862061ad0f250600160035500",
                "storage": {}
            },
            "0x4c57f5c93feb3af1807980230371459b773a1f88": {
                "nonce": "0x00",
                "balance": "0x00",
                "code": "0x60406000604060006000736f67c62fa385edfe7bd280594eff367f33e5143862061ad0f2505b61c350608051101560415760013b506001608051016080526025565b00",
                "storage": {}
            }
        },
        "lastblockhash": "0xa835dea0a40e73a0f2f09cfa4a3b6894645eb7ba1a26725bd6ba51e0c926304e",
        "config": {
            "network": "Cancun",
            "chainid": "0x01",
            "blobSchedule": {
                "Cancun": {
                    "target": "0x03",
                    "max": "0x06",
                    "baseFeeUpdateFraction": "0x32f0ed"
                }
            }
        },
        "genesisRLP": "0xf9023bf90235a00000000000000000000000000000000000000000000000000000000000000000a01dcc4de8dec75d7aab85b567b6ccd41ad312451b948a7413f0a142fd40d49347940000000000000000000000000000000000000000a04006c2629ab2dca02048afbfd478809f00775e24de70d57b895f989216ca2d2ea056e81f171bcc55a6ff8345e692c0f86e5b48e01b996cadc001622fb5e363b421a056e81f171bcc55a6ff8345e692c0f86e5b48e01b996cadc001622fb5e363b421b9010000000000000000000000000000000000000000000000000000000000000000000000000000000000000000000000000000000000000000000000000000000000000000000000000000000000000000000000000000000000000000000000000000000000000000000000000000000000000000000000000000000000000000000000000000000000000000000000000000000000000000000000000000000000000000000000000000000000000000000000000000000000000000000000000000000000000000000000000000000000000000000000000000000000000000000000000000000000000000000000000000000000000000000000000000000000808083989680808000a000000000000000000000000000000000000000000000000000000000000000008800000000000000000ba056e81f171bcc55a6ff8345e692c0f86e5b48e01b996cadc001622fb5e363b4218080a00000000000000000000000000000000000000000000000000000000000000000c0c0c0",
        "blocks": [
            {
                "blockHeader": {
                    "parentHash": "0x61e854cf885dd7bdb241a4e70d088e40127b20f622794519ecd5cf4a950aaefa",
                    "uncleHash": "0x1dcc4de8dec75d7aab85b567b6ccd41ad312451b948a7413f0a142fd40d49347",
                    "coinbase": "0x2adc25665018aa1fe0e6bc666dac8fc2697ff9ba",
                    "stateRoot": "0x97a33137a67838185dc6289908a4f55c50ce165b93fb81fe5a5a60302b0692f9",
                    "transactionsTrie": "0x104cfb3d2229995413bc8ce18b6b4bf9ea16f3eb08efeb607e3c74e951316f0b",
                    "receiptTrie": "0x990e5496f0fbbdc8a4fb382c442d5903455c79f8fc923d82e339edc601df1862",
                    "bloom": "0x00000000000000000000000000000000000000000000000000000000000000000000000000000000000000000000000000000000000000000000000000000000000000000000000000000000000000000000000000000000000000000000000000000000000000000000000000000000000000000000000000000000000000000000000000000000000000000000000000000000000000000000000000000000000000000000000000000000000000000000000000000000000000000000000000000000000000000000000000000000000000000000000000000000000000000000000000000000000000000000000000000000000000000000000000000000",
                    "difficulty": "0x00",
                    "number": "0x01",
                    "gasLimit": "0x989680",
                    "gasUsed": "0x09e506",
                    "timestamp": "0x03e8",
                    "extraData": "0x00",
                    "mixHash": "0x0000000000000000000000000000000000000000000000000000000000020000",
                    "nonce": "0x0000000000000000",
                    "baseFeePerGas": "0x0a",
                    "withdrawalsRoot": "0x56e81f171bcc55a6ff8345e692c0f86e5b48e01b996cadc001622fb5e363b421",
                    "blobGasUsed": "0x00",
                    "excessBlobGas": "0x00",
                    "parentBeaconBlockRoot": "0x0000000000000000000000000000000000000000000000000000000000000000",
                    "hash": "0xa835dea0a40e73a0f2f09cfa4a3b6894645eb7ba1a26725bd6ba51e0c926304e"
                },
                "transactions": [
                    {
                        "type": "0x00",
                        "chainId": "0x01",
                        "nonce": "0x00",
                        "gasPrice": "0x0a",
                        "gasLimit": "0x1a3ec0",
                        "to": "0xf1f083974fd68b961e68130c27fc5ef37b49c1df",
                        "value": "0x00",
                        "data": "0x0000000000000000000000004c57f5c93feb3af1807980230371459b773a1f88",
                        "v": "0x26",
                        "r": "0x9cc2e2fd2af2092017ca4df991d3a6ecf4dc82defb76c5eb6e1d24bc472223d9",
                        "s": "0x73abd20d055ce3730fdc957ffc105122b5009056887cd462f5c0fceacab18234",
                        "sender": "0xd66f224cbd2fabb21b17bb53c56118f32f62ebd6"
                    }
                ],
                "uncleHeaders": [],
                "withdrawals": [],
                "receipts": [
                    {
                        "transactionHash": "0xac2966c777b8e32aa15d5a8d4d45e21187dedffedb5912a3679fbab2d8d3bb75",
                        "type": "0x00",
                        "cumulativeGasUsed": "0x09e506",
                        "bloom": "0x00000000000000000000000000000000000000000000000000000000000000000000000000000000000000000000000000000000000000000000000000000000000000000000000000000000000000000000000000000000000000000000000000000000000000000000000000000000000000000000000000000000000000000000000000000000000000000000000000000000000000000000000000000000000000000000000000000000000000000000000000000000000000000000000000000000000000000000000000000000000000000000000000000000000000000000000000000000000000000000000000000000000000000000000000000000",
                        "logs": [],
                        "status": true,
                        "rlp": "0xf90109018309e506b9010000000000000000000000000000000000000000000000000000000000000000000000000000000000000000000000000000000000000000000000000000000000000000000000000000000000000000000000000000000000000000000000000000000000000000000000000000000000000000000000000000000000000000000000000000000000000000000000000000000000000000000000000000000000000000000000000000000000000000000000000000000000000000000000000000000000000000000000000000000000000000000000000000000000000000000000000000000000000000000000000000000000000000000000000000000000c0"
                    }
                ],
                "rlp": "0xf902c3f9023aa061e854cf885dd7bdb241a4e70d088e40127b20f622794519ecd5cf4a950aaefaa01dcc4de8dec75d7aab85b567b6ccd41ad312451b948a7413f0a142fd40d49347942adc25665018aa1fe0e6bc666dac8fc2697ff9baa097a33137a67838185dc6289908a4f55c50ce165b93fb81fe5a5a60302b0692f9a0104cfb3d2229995413bc8ce18b6b4bf9ea16f3eb08efeb607e3c74e951316f0ba0990e5496f0fbbdc8a4fb382c442d5903455c79f8fc923d82e339edc601df1862b90100000000000000000000000000000000000000000000000000000000000000000000000000000000000000000000000000000000000000000000000000000000000000000000000000000000000000000000000000000000000000000000000000000000000000000000000000000000000000000000000000000000000000000000000000000000000000000000000000000000000000000000000000000000000000000000000000000000000000000000000000000000000000000000000000000000000000000000000000000000000000000000000000000000000000000000000000000000000000000000000000000000000000000000000000000000008001839896808309e5068203e800a000000000000000000000000000000000000000000000000000000000000200008800000000000000000aa056e81f171bcc55a6ff8345e692c0f86e5b48e01b996cadc001622fb5e363b4218080a00000000000000000000000000000000000000000000000000000000000000000f882f880800a831a3ec094f1f083974fd68b961e68130c27fc5ef37b49c1df80a00000000000000000000000004c57f5c93feb3af1807980230371459b773a1f8826a09cc2e2fd2af2092017ca4df991d3a6ecf4dc82defb76c5eb6e1d24bc472223d9a073abd20d055ce3730fdc957ffc105122b5009056887cd462f5c0fceacab18234c0c0",
                "blocknumber": "1"
            }
        ],
        "sealEngine": "NoProof",
        "_info": {
            "hash": "0x57c35d715ebc068cd02f026f8be9ef08accc7a05aebb3a7a2f7cef1ef10f8303",
            "fixture-format": "blockchain_test",
            "comment": "`execution-specs` generated test",
            "filling-transition-tool": "2.19.0",
            "description": "Test_static_callcallcodecall_010_oogm_after_3.",
            "url": "https://github.com/ethereum/execution-specs/blob/tests-snobal-devnet-5@v8037.0.0/tests/ported_static/stStaticCall/test_static_callcallcodecall_010_oogm_after_3.py#L25",
            "metadata": {
                "opcode_count": {}
            }
        }
    }
}