{
    "tests/static/state_tests/Shanghai/stEIP3860_limitmeterinitcode/create2InitCodeSizeLimitFiller.yml::create2InitCodeSizeLimit[fork_Cancun-state_test-invalid]": {
        "env": {
            "currentCoinbase": "0x2adc25665018aa1fe0e6bc666dac8fc2697ff9ba",
            "currentGasLimit": "0x01312d00",
            "currentNumber": "0x01",
            "currentTimestamp": "0x03e8",
            "currentRandom": "0x0000000000000000000000000000000000000000000000000000000000020000",
            "currentDifficulty": "0x00",
            "currentBaseFee": "0x0a",
            "currentExcessBlobGas": "0x00"
        },
        "pre": {
            "0xa94f5374fce5edbc8e2a8697c15331677e6ebf0b": {
                "nonce": "0x00",
                "balance": "0x0bebc200",
                "code": "0x",
                "storage": {}
            },
            "0xb94f5374fce5edbc8e2a8697c15331677e6ebf0b": {
                "nonce": "0x00",
                "balance": "0x00",
                "code": "0x60003560005260008036818073c94f5374fce5edbc8e2a8697c15331677e6ebf0b62989680f16000556001805500",
                "storage": {}
            },
            "0xc94f5374fce5edbc8e2a8697c15331677e6ebf0b": {
                "nonce": "0x00",
                "balance": "0x00",
                "code": "0x69600a80600080396000f360b01b60009081523563deadbeef5a91600080f5905a9003600a5560005500",
                "storage": {}
            }
        },
        "transaction": {
            "nonce": "0x00",
            "gasPrice": "0x0a",
            "gasLimit": [
                "0xe4e1c0"
            ],
            "to": "0xb94f5374fce5edbc8e2a8697c15331677e6ebf0b",
            "value": [
                "0x00"
            ],
            "data": [
                "0x000000000000000000000000000000000000000000000000000000000000c001"
            ],
            "sender": "0xa94f5374fce5edbc8e2a8697c15331677e6ebf0b",
            "secretKey": "0x45a915e4d060149eb4365960e6a7a45f334393093061116b197e3240065ff2d8"
        },
        "post": {
            "Cancun": [
                {
                    "hash": "0x100592ea220f75303e912b58ed1cfc2c791a5a0418642b2c996dafd10038cd7a",
                    "logs": "0x1dcc4de8dec75d7aab85b567b6ccd41ad312451b948a7413f0a142fd40d49347",
                    "txbytes": "0xf880800a83e4e1c094b94f5374fce5edbc8e2a8697c15331677e6ebf0b80a0000000000000000000000000000000000000000000000000000000000000c00125a0cd50c1a21fd3b76576631a65881d0a292475e31e8b1502ae7ad46101b5b8ec0aa066692c0720fbc87b9d2afa9e9bb5a7633ad0f71f74aced4ebf4b92b68efb23d9",
                    "indexes": {
                        "data": 0,
                        "gas": 0,
                        "value": 0
                    },
                    "state": {
                        "0xa94f5374fce5edbc8e2a8697c15331677e6ebf0b": {
                            "nonce": "0x01",
                            "balance": "0x05ee8a40",
                            "code": "0x",
                            "storage": {}
                        },
                        "0xb94f5374fce5edbc8e2a8697c15331677e6ebf0b": {
                            "nonce": "0x00",
                            "balance": "0x00",
                            "code": "0x60003560005260008036818073c94f5374fce5edbc8e2a8697c15331677e6ebf0b62989680f16000556001805500",
                            "storage": {
                                "0x01": "0x01"
                            }
                        },
                        "0xc94f5374fce5edbc8e2a8697c15331677e6ebf0b": {
                            "nonce": "0x00",
                            "balance": "0x00",
                            "code": "0x69600a80600080396000f360b01b60009081523563deadbeef5a91600080f5905a9003600a5560005500",
                            "storage": {}
                        }
                    }
                }
            ]
        },
        "config": {
            "blobSchedule": {
                "Cancun": {
                    "target": "0x03",
                    "max": "0x06",
                    "baseFeeUpdateFraction": "0x32f0ed"
                }
            },
            "chainid": "0x01"
        },
        "_info": {
            "hash": "0x8372019b39bc4b4b2398fb2b8f74f44627b1ff526337342c5d4d312798cc5036",
            "comment": "`execution-spec-tests` generated test",
            "filling-transition-tool": "ethereum-spec-evm-resolver 0.0.5",
            "description": "No description available - add a docstring to the python test class or function.",
            "url": "",
            "fixture-format": "state_test",
            "reference-spec": "https://github.com/ethereum/EIPs/blob/master/",
            "reference-spec-version": "",
            "eels-resolution": {
                "git-url": "https://github.com/ethereum/execution-specs.git",
                "branch": "forks/bpos",
                "commit": "7aacb2c54111391af5e98c505d5010b5698a770f"
            }
        }
    },
    "tests/static/state_tests/Shanghai/stEIP3860_limitmeterinitcode/create2InitCodeSizeLimitFiller.yml::create2InitCodeSizeLimit[fork_Cancun-state_test-valid]": {
        "env": {
            "currentCoinbase": "0x2adc25665018aa1fe0e6bc666dac8fc2697ff9ba",
            "currentGasLimit": "0x01312d00",
            "currentNumber": "0x01",
            "currentTimestamp": "0x03e8",
            "currentRandom": "0x0000000000000000000000000000000000000000000000000000000000020000",
            "currentDifficulty": "0x00",
            "currentBaseFee": "0x0a",
            "currentExcessBlobGas": "0x00"
        },
        "pre": {
            "0xa94f5374fce5edbc8e2a8697c15331677e6ebf0b": {
                "nonce": "0x00",
                "balance": "0x0bebc200",
                "code": "0x",
                "storage": {}
            },
            "0xb94f5374fce5edbc8e2a8697c15331677e6ebf0b": {
                "nonce": "0x00",
                "balance": "0x00",
                "code": "0x60003560005260008036818073c94f5374fce5edbc8e2a8697c15331677e6ebf0b62989680f16000556001805500",
                "storage": {}
            },
            "0xc94f5374fce5edbc8e2a8697c15331677e6ebf0b": {
                "nonce": "0x00",
                "balance": "0x00",
                "code": "0x69600a80600080396000f360b01b60009081523563deadbeef5a91600080f5905a9003600a5560005500",
                "storage": {}
            }
        },
        "transaction": {
            "nonce": "0x00",
            "gasPrice": "0x0a",
            "gasLimit": [
                "0xe4e1c0"
            ],
            "to": "0xb94f5374fce5edbc8e2a8697c15331677e6ebf0b",
            "value": [
                "0x00"
            ],
            "data": [
                "0x000000000000000000000000000000000000000000000000000000000000c000"
            ],
            "sender": "0xa94f5374fce5edbc8e2a8697c15331677e6ebf0b",
            "secretKey": "0x45a915e4d060149eb4365960e6a7a45f334393093061116b197e3240065ff2d8"
        },
        "post": {
            "Cancun": [
                {
                    "hash": "0x8af07b907563bff7ee42e1d13bf4272e511e2c8bab0f943c74e7506fc98e54f7",
                    "logs": "0x1dcc4de8dec75d7aab85b567b6ccd41ad312451b948a7413f0a142fd40d49347",
                    "txbytes": "0xf880800a83e4e1c094b94f5374fce5edbc8e2a8697c15331677e6ebf0b80a0000000000000000000000000000000000000000000000000000000000000c00025a01bcd5bf2955804d1229e450a94e55022497a0326f8929c1c18069a32723ced44a02f67e95745601b1d8307447c910a67b50e9fc30172f8dac94b07cc5e3cf0bf42",
                    "indexes": {
                        "data": 0,
                        "gas": 0,
                        "value": 0
                    },
                    "state": {
                        "0xa94f5374fce5edbc8e2a8697c15331677e6ebf0b": {
                            "nonce": "0x01",
                            "balance": "0x0bd2289a",
                            "code": "0x",
                            "storage": {}
                        },
                        "0xb94f5374fce5edbc8e2a8697c15331677e6ebf0b": {
                            "nonce": "0x00",
                            "balance": "0x00",
                            "code": "0x60003560005260008036818073c94f5374fce5edbc8e2a8697c15331677e6ebf0b62989680f16000556001805500",
                            "storage": {
                                "0x00": "0x01",
                                "0x01": "0x01"
                            }
                        },
                        "0xc94f5374fce5edbc8e2a8697c15331677e6ebf0b": {
                            "nonce": "0x01",
                            "balance": "0x00",
                            "code": "0x69600a80600080396000f360b01b60009081523563deadbeef5a91600080f5905a9003600a5560005500",
                            "storage": {
                                "0x0a": "0xd8f3",
                                "0x00": "0x9e7a3337d18c31fe4c1fe51ab2da6cfd3629923d"
                            }
                        },
                        "0x9e7a3337d18c31fe4c1fe51ab2da6cfd3629923d": {
                            "nonce": "0x01",
                            "balance": "0x00",
                            "code": "0x600a80600080396000f3",
                            "storage": {}
                        }
                    }
                }
            ]
        },
        "config": {
            "blobSchedule": {
                "Cancun": {
                    "target": "0x03",
                    "max": "0x06",
                    "baseFeeUpdateFraction": "0x32f0ed"
                }
            },
            "chainid": "0x01"
        },
        "_info": {
            "hash": "0x5d0f8c2d717ffb708090ea2607c2bab7e6befe9e07f3987aafe225bf66395a8c",
            "comment": "`execution-spec-tests` generated test",
            "filling-transition-tool": "ethereum-spec-evm-resolver 0.0.5",
            "description": "No description available - add a docstring to the python test class or function.",
            "url": "",
            "fixture-format": "state_test",
            "reference-spec": "https://github.com/ethereum/EIPs/blob/master/",
            "reference-spec-version": "",
            "eels-resolution": {
                "git-url": "https://github.com/ethereum/execution-specs.git",
                "branch": "forks/bpos",
                "commit": "7aacb2c54111391af5e98c505d5010b5698a770f"
            }
        }
    },
    "tests/static/state_tests/Shanghai/stEIP3860_limitmeterinitcode/create2InitCodeSizeLimitFiller.yml::create2InitCodeSizeLimit[fork_Osaka-state_test-invalid]": {
        "env": {
            "currentCoinbase": "0x2adc25665018aa1fe0e6bc666dac8fc2697ff9ba",
            "currentGasLimit": "0x01312d00",
            "currentNumber": "0x01",
            "currentTimestamp": "0x03e8",
            "currentRandom": "0x0000000000000000000000000000000000000000000000000000000000020000",
            "currentDifficulty": "0x00",
            "currentBaseFee": "0x0a",
            "currentExcessBlobGas": "0x00"
        },
        "pre": {
            "0xa94f5374fce5edbc8e2a8697c15331677e6ebf0b": {
                "nonce": "0x00",
                "balance": "0x0bebc200",
                "code": "0x",
                "storage": {}
            },
            "0xb94f5374fce5edbc8e2a8697c15331677e6ebf0b": {
                "nonce": "0x00",
                "balance": "0x00",
                "code": "0x60003560005260008036818073c94f5374fce5edbc8e2a8697c15331677e6ebf0b62989680f16000556001805500",
                "storage": {}
            },
            "0xc94f5374fce5edbc8e2a8697c15331677e6ebf0b": {
                "nonce": "0x00",
                "balance": "0x00",
                "code": "0x69600a80600080396000f360b01b60009081523563deadbeef5a91600080f5905a9003600a5560005500",
                "storage": {}
            }
        },
        "transaction": {
            "nonce": "0x00",
            "gasPrice": "0x0a",
            "gasLimit": [
                "0xe4e1c0"
            ],
            "to": "0xb94f5374fce5edbc8e2a8697c15331677e6ebf0b",
            "value": [
                "0x00"
            ],
            "data": [
                "0x000000000000000000000000000000000000000000000000000000000000c001"
            ],
            "sender": "0xa94f5374fce5edbc8e2a8697c15331677e6ebf0b",
            "secretKey": "0x45a915e4d060149eb4365960e6a7a45f334393093061116b197e3240065ff2d8"
        },
        "post": {
            "Osaka": [
                {
                    "hash": "0x100592ea220f75303e912b58ed1cfc2c791a5a0418642b2c996dafd10038cd7a",
                    "logs": "0x1dcc4de8dec75d7aab85b567b6ccd41ad312451b948a7413f0a142fd40d49347",
                    "txbytes": "0xf880800a83e4e1c094b94f5374fce5edbc8e2a8697c15331677e6ebf0b80a0000000000000000000000000000000000000000000000000000000000000c00125a0cd50c1a21fd3b76576631a65881d0a292475e31e8b1502ae7ad46101b5b8ec0aa066692c0720fbc87b9d2afa9e9bb5a7633ad0f71f74aced4ebf4b92b68efb23d9",
                    "indexes": {
                        "data": 0,
                        "gas": 0,
                        "value": 0
                    },
                    "state": {
                        "0xa94f5374fce5edbc8e2a8697c15331677e6ebf0b": {
                            "nonce": "0x01",
                            "balance": "0x05ee8a40",
                            "code": "0x",
                            "storage": {}
                        },
                        "0xb94f5374fce5edbc8e2a8697c15331677e6ebf0b": {
                            "nonce": "0x00",
                            "balance": "0x00",
                            "code": "0x60003560005260008036818073c94f5374fce5edbc8e2a8697c15331677e6ebf0b62989680f16000556001805500",
                            "storage": {
                                "0x01": "0x01"
                            }
                        },
                        "0xc94f5374fce5edbc8e2a8697c15331677e6ebf0b": {
                            "nonce": "0x00",
                            "balance": "0x00",
                            "code": "0x69600a80600080396000f360b01b60009081523563deadbeef5a91600080f5905a9003600a5560005500",
                            "storage": {}
                        }
                    }
                }
            ]
        },
        "config": {
            "blobSchedule": {
                "Cancun": {
                    "target": "0x03",
                    "max": "0x06",
                    "baseFeeUpdateFraction": "0x32f0ed"
                },
                "Prague": {
                    "target": "0x06",
                    "max": "0x09",
                    "baseFeeUpdateFraction": "0x4c6964"
                },
                "Osaka": {
                    "target": "0x06",
                    "max": "0x09",
                    "baseFeeUpdateFraction": "0x4c6964"
                }
            },
            "chainid": "0x01"
        },
        "_info": {
            "hash": "0x46762611241dad3ed0f76f8ca11587389aafbb34c1fc0e9b0d9d8e6d8fe6686b",
            "comment": "`execution-spec-tests` generated test",
            "filling-transition-tool": "ethereum-spec-evm-resolver 0.0.5",
            "description": "No description available - add a docstring to the python test class or function.",
            "url": "",
            "fixture-format": "state_test",
            "reference-spec": "https://github.com/ethereum/EIPs/blob/master/",
            "reference-spec-version": "",
            "eels-resolution": {
                "git-url": "https://github.com/ethereum/execution-specs.git",
                "branch": "forks/bpos",
                "commit": "7aacb2c54111391af5e98c505d5010b5698a770f"
            }
        }
    },
    "tests/static/state_tests/Shanghai/stEIP3860_limitmeterinitcode/create2InitCodeSizeLimitFiller.yml::create2InitCodeSizeLimit[fork_Osaka-state_test-valid]": {
        "env": {
            "currentCoinbase": "0x2adc25665018aa1fe0e6bc666dac8fc2697ff9ba",
            "currentGasLimit": "0x01312d00",
            "currentNumber": "0x01",
            "currentTimestamp": "0x03e8",
            "currentRandom": "0x0000000000000000000000000000000000000000000000000000000000020000",
            "currentDifficulty": "0x00",
            "currentBaseFee": "0x0a",
            "currentExcessBlobGas": "0x00"
        },
        "pre": {
            "0xa94f5374fce5edbc8e2a8697c15331677e6ebf0b": {
                "nonce": "0x00",
                "balance": "0x0bebc200",
                "code": "0x",
                "storage": {}
            },
            "0xb94f5374fce5edbc8e2a8697c15331677e6ebf0b": {
                "nonce": "0x00",
                "balance": "0x00",
                "code": "0x60003560005260008036818073c94f5374fce5edbc8e2a8697c15331677e6ebf0b62989680f16000556001805500",
                "storage": {}
            },
            "0xc94f5374fce5edbc8e2a8697c15331677e6ebf0b": {
                "nonce": "0x00",
                "balance": "0x00",
                "code": "0x69600a80600080396000f360b01b60009081523563deadbeef5a91600080f5905a9003600a5560005500",
                "storage": {}
            }
        },
        "transaction": {
            "nonce": "0x00",
            "gasPrice": "0x0a",
            "gasLimit": [
                "0xe4e1c0"
            ],
            "to": "0xb94f5374fce5edbc8e2a8697c15331677e6ebf0b",
            "value": [
                "0x00"
            ],
            "data": [
                "0x000000000000000000000000000000000000000000000000000000000000c000"
            ],
            "sender": "0xa94f5374fce5edbc8e2a8697c15331677e6ebf0b",
            "secretKey": "0x45a915e4d060149eb4365960e6a7a45f334393093061116b197e3240065ff2d8"
        },
        "post": {
            "Osaka": [
                {
                    "hash": "0x8af07b907563bff7ee42e1d13bf4272e511e2c8bab0f943c74e7506fc98e54f7",
                    "logs": "0x1dcc4de8dec75d7aab85b567b6ccd41ad312451b948a7413f0a142fd40d49347",
                    "txbytes": "0xf880800a83e4e1c094b94f5374fce5edbc8e2a8697c15331677e6ebf0b80a0000000000000000000000000000000000000000000000000000000000000c00025a01bcd5bf2955804d1229e450a94e55022497a0326f8929c1c18069a32723ced44a02f67e95745601b1d8307447c910a67b50e9fc30172f8dac94b07cc5e3cf0bf42",
                    "indexes": {
                        "data": 0,
                        "gas": 0,
                        "value": 0
                    },
                    "state": {
                        "0xa94f5374fce5edbc8e2a8697c15331677e6ebf0b": {
                            "nonce": "0x01",
                            "balance": "0x0bd2289a",
                            "code": "0x",
                            "storage": {}
                        },
                        "0xb94f5374fce5edbc8e2a8697c15331677e6ebf0b": {
                            "nonce": "0x00",
                            "balance": "0x00",
                            "code": "0x60003560005260008036818073c94f5374fce5edbc8e2a8697c15331677e6ebf0b62989680f16000556001805500",
                            "storage": {
                                "0x00": "0x01",
                                "0x01": "0x01"
                            }
                        },
                        "0xc94f5374fce5edbc8e2a8697c15331677e6ebf0b": {
                            "nonce": "0x01",
                            "balance": "0x00",
                            "code": "0x69600a80600080396000f360b01b60009081523563deadbeef5a91600080f5905a9003600a5560005500",
                            "storage": {
                                "0x0a": "0xd8f3",
                                "0x00": "0x9e7a3337d18c31fe4c1fe51ab2da6cfd3629923d"
                            }
                        },
                        "0x9e7a3337d18c31fe4c1fe51ab2da6cfd3629923d": {
                            "nonce": "0x01",
                            "balance": "0x00",
                            "code": "0x600a80600080396000f3",
                            "storage": {}
                        }
                    }
                }
            ]
        },
        "config": {
            "blobSchedule": {
                "Cancun": {
                    "target": "0x03",
                    "max": "0x06",
                    "baseFeeUpdateFraction": "0x32f0ed"
                },
                "Prague": {
                    "target": "0x06",
                    "max": "0x09",
                    "baseFeeUpdateFraction": "0x4c6964"
                },
                "Osaka": {
                    "target": "0x06",
                    "max": "0x09",
                    "baseFeeUpdateFraction": "0x4c6964"
                }
            },
            "chainid": "0x01"
        },
        "_info": {
            "hash": "0xaeb7ccfe4a27d0cc2e38e5bde920b1f6dacb4a69b747592a2fbedb2b4cb323b8",
            "comment": "`execution-spec-tests` generated test",
            "filling-transition-tool": "ethereum-spec-evm-resolver 0.0.5",
            "description": "No description available - add a docstring to the python test class or function.",
            "url": "",
            "fixture-format": "state_test",
            "reference-spec": "https://github.com/ethereum/EIPs/blob/master/",
            "reference-spec-version": "",
            "eels-resolution": {
                "git-url": "https://github.com/ethereum/execution-specs.git",
                "branch": "forks/bpos",
                "commit": "7aacb2c54111391af5e98c505d5010b5698a770f"
            }
        }
    },
    "tests/static/state_tests/Shanghai/stEIP3860_limitmeterinitcode/create2InitCodeSizeLimitFiller.yml::create2InitCodeSizeLimit[fork_Prague-state_test-invalid]": {
        "env": {
            "currentCoinbase": "0x2adc25665018aa1fe0e6bc666dac8fc2697ff9ba",
            "currentGasLimit": "0x01312d00",
            "currentNumber": "0x01",
            "currentTimestamp": "0x03e8",
            "currentRandom": "0x0000000000000000000000000000000000000000000000000000000000020000",
            "currentDifficulty": "0x00",
            "currentBaseFee": "0x0a",
            "currentExcessBlobGas": "0x00"
        },
        "pre": {
            "0xa94f5374fce5edbc8e2a8697c15331677e6ebf0b": {
                "nonce": "0x00",
                "balance": "0x0bebc200",
                "code": "0x",
                "storage": {}
            },
            "0xb94f5374fce5edbc8e2a8697c15331677e6ebf0b": {
                "nonce": "0x00",
                "balance": "0x00",
                "code": "0x60003560005260008036818073c94f5374fce5edbc8e2a8697c15331677e6ebf0b62989680f16000556001805500",
                "storage": {}
            },
            "0xc94f5374fce5edbc8e2a8697c15331677e6ebf0b": {
                "nonce": "0x00",
                "balance": "0x00",
                "code": "0x69600a80600080396000f360b01b60009081523563deadbeef5a91600080f5905a9003600a5560005500",
                "storage": {}
            }
        },
        "transaction": {
            "nonce": "0x00",
            "gasPrice": "0x0a",
            "gasLimit": [
                "0xe4e1c0"
            ],
            "to": "0xb94f5374fce5edbc8e2a8697c15331677e6ebf0b",
            "value": [
                "0x00"
            ],
            "data": [
                "0x000000000000000000000000000000000000000000000000000000000000c001"
            ],
            "sender": "0xa94f5374fce5edbc8e2a8697c15331677e6ebf0b",
            "secretKey": "0x45a915e4d060149eb4365960e6a7a45f334393093061116b197e3240065ff2d8"
        },
        "post": {
            "Prague": [
                {
                    "hash": "0x100592ea220f75303e912b58ed1cfc2c791a5a0418642b2c996dafd10038cd7a",
                    "logs": "0x1dcc4de8dec75d7aab85b567b6ccd41ad312451b948a7413f0a142fd40d49347",
                    "txbytes": "0xf880800a83e4e1c094b94f5374fce5edbc8e2a8697c15331677e6ebf0b80a0000000000000000000000000000000000000000000000000000000000000c00125a0cd50c1a21fd3b76576631a65881d0a292475e31e8b1502ae7ad46101b5b8ec0aa066692c0720fbc87b9d2afa9e9bb5a7633ad0f71f74aced4ebf4b92b68efb23d9",
                    "indexes": {
                        "data": 0,
                        "gas": 0,
                        "value": 0
                    },
                    "state": {
                        "0xa94f5374fce5edbc8e2a8697c15331677e6ebf0b": {
                            "nonce": "0x01",
                            "balance": "0x05ee8a40",
                            "code": "0x",
                            "storage": {}
                        },
                        "0xb94f5374fce5edbc8e2a8697c15331677e6ebf0b": {
                            "nonce": "0x00",
                            "balance": "0x00",
                            "code": "0x60003560005260008036818073c94f5374fce5edbc8e2a8697c15331677e6ebf0b62989680f16000556001805500",
                            "storage": {
                                "0x01": "0x01"
                            }
                        },
                        "0xc94f5374fce5edbc8e2a8697c15331677e6ebf0b": {
                            "nonce": "0x00",
                            "balance": "0x00",
                            "code": "0x69600a80600080396000f360b01b60009081523563deadbeef5a91600080f5905a9003600a5560005500",
                            "storage": {}
                        }
                    }
                }
            ]
        },
        "config": {
            "blobSchedule": {
                "Cancun": {
                    "target": "0x03",
                    "max": "0x06",
                    "baseFeeUpdateFraction": "0x32f0ed"
                },
                "Prague": {
                    "target": "0x06",
                    "max": "0x09",
                    "baseFeeUpdateFraction": "0x4c6964"
                }
            },
            "chainid": "0x01"
        },
        "_info": {
            "hash": "0x25e812ab5a7da5df710d577c1334f449ee878ef634318fd28cf701cae076e8e3",
            "comment": "`execution-spec-tests` generated test",
            "filling-transition-tool": "ethereum-spec-evm-resolver 0.0.5",
            "description": "No description available - add a docstring to the python test class or function.",
            "url": "",
            "fixture-format": "state_test",
            "reference-spec": "https://github.com/ethereum/EIPs/blob/master/",
            "reference-spec-version": "",
            "eels-resolution": {
                "git-url": "https://github.com/ethereum/execution-specs.git",
                "branch": "forks/bpos",
                "commit": "7aacb2c54111391af5e98c505d5010b5698a770f"
            }
        }
    },
    "tests/static/state_tests/Shanghai/stEIP3860_limitmeterinitcode/create2InitCodeSizeLimitFiller.yml::create2InitCodeSizeLimit[fork_Prague-state_test-valid]": {
        "env": {
            "currentCoinbase": "0x2adc25665018aa1fe0e6bc666dac8fc2697ff9ba",
            "currentGasLimit": "0x01312d00",
            "currentNumber": "0x01",
            "currentTimestamp": "0x03e8",
            "currentRandom": "0x0000000000000000000000000000000000000000000000000000000000020000",
            "currentDifficulty": "0x00",
            "currentBaseFee": "0x0a",
            "currentExcessBlobGas": "0x00"
        },
        "pre": {
            "0xa94f5374fce5edbc8e2a8697c15331677e6ebf0b": {
                "nonce": "0x00",
                "balance": "0x0bebc200",
                "code": "0x",
                "storage": {}
            },
            "0xb94f5374fce5edbc8e2a8697c15331677e6ebf0b": {
                "nonce": "0x00",
                "balance": "0x00",
                "code": "0x60003560005260008036818073c94f5374fce5edbc8e2a8697c15331677e6ebf0b62989680f16000556001805500",
                "storage": {}
            },
            "0xc94f5374fce5edbc8e2a8697c15331677e6ebf0b": {
                "nonce": "0x00",
                "balance": "0x00",
                "code": "0x69600a80600080396000f360b01b60009081523563deadbeef5a91600080f5905a9003600a5560005500",
                "storage": {}
            }
        },
        "transaction": {
            "nonce": "0x00",
            "gasPrice": "0x0a",
            "gasLimit": [
                "0xe4e1c0"
            ],
            "to": "0xb94f5374fce5edbc8e2a8697c15331677e6ebf0b",
            "value": [
                "0x00"
            ],
            "data": [
                "0x000000000000000000000000000000000000000000000000000000000000c000"
            ],
            "sender": "0xa94f5374fce5edbc8e2a8697c15331677e6ebf0b",
            "secretKey": "0x45a915e4d060149eb4365960e6a7a45f334393093061116b197e3240065ff2d8"
        },
        "post": {
            "Prague": [
                {
                    "hash": "0x8af07b907563bff7ee42e1d13bf4272e511e2c8bab0f943c74e7506fc98e54f7",
                    "logs": "0x1dcc4de8dec75d7aab85b567b6ccd41ad312451b948a7413f0a142fd40d49347",
                    "txbytes": "0xf880800a83e4e1c094b94f5374fce5edbc8e2a8697c15331677e6ebf0b80a0000000000000000000000000000000000000000000000000000000000000c00025a01bcd5bf2955804d1229e450a94e55022497a0326f8929c1c18069a32723ced44a02f67e95745601b1d8307447c910a67b50e9fc30172f8dac94b07cc5e3cf0bf42",
                    "indexes": {
                        "data": 0,
                        "gas": 0,
                        "value": 0
                    },
                    "state": {
                        "0xa94f5374fce5edbc8e2a8697c15331677e6ebf0b": {
                            "nonce": "0x01",
                            "balance": "0x0bd2289a",
                            "code": "0x",
                            "storage": {}
                        },
                        "0xb94f5374fce5edbc8e2a8697c15331677e6ebf0b": {
                            "nonce": "0x00",
                            "balance": "0x00",
                            "code": "0x60003560005260008036818073c94f5374fce5edbc8e2a8697c15331677e6ebf0b62989680f16000556001805500",
                            "storage": {
                                "0x00": "0x01",
                                "0x01": "0x01"
                            }
                        },
                        "0xc94f5374fce5edbc8e2a8697c15331677e6ebf0b": {
                            "nonce": "0x01",
                            "balance": "0x00",
                            "code": "0x69600a80600080396000f360b01b60009081523563deadbeef5a91600080f5905a9003600a5560005500",
                            "storage": {
                                "0x0a": "0xd8f3",
                                "0x00": "0x9e7a3337d18c31fe4c1fe51ab2da6cfd3629923d"
                            }
                        },
                        "0x9e7a3337d18c31fe4c1fe51ab2da6cfd3629923d": {
                            "nonce": "0x01",
                            "balance": "0x00",
                            "code": "0x600a80600080396000f3",
                            "storage": {}
                        }
                    }
                }
            ]
        },
        "config": {
            "blobSchedule": {
                "Cancun": {
                    "target": "0x03",
                    "max": "0x06",
                    "baseFeeUpdateFraction": "0x32f0ed"
                },
                "Prague": {
                    "target": "0x06",
                    "max": "0x09",
                    "baseFeeUpdateFraction": "0x4c6964"
                }
            },
            "chainid": "0x01"
        },
        "_info": {
            "hash": "0x37d2101df04e7eb4c997457a67febe489c7dbbbf865c0b7d70ee5145e57499aa",
            "comment": "`execution-spec-tests` generated test",
            "filling-transition-tool": "ethereum-spec-evm-resolver 0.0.5",
            "description": "No description available - add a docstring to the python test class or function.",
            "url": "",
            "fixture-format": "state_test",
            "reference-spec": "https://github.com/ethereum/EIPs/blob/master/",
            "reference-spec-version": "",
            "eels-resolution": {
                "git-url": "https://github.com/ethereum/execution-specs.git",
                "branch": "forks/bpos",
                "commit": "7aacb2c54111391af5e98c505d5010b5698a770f"
            }
        }
    }
}