{
    "tests/shanghai/eip4895_withdrawals/test_withdrawals.py::test_large_amount[fork_Cancun-blockchain_test]@bigmem": {
        "network": "Cancun",
        "genesisBlockHeader": {
            "parentHash": "0x0000000000000000000000000000000000000000000000000000000000000000",
            "uncleHash": "0x1dcc4de8dec75d7aab85b567b6ccd41ad312451b948a7413f0a142fd40d49347",
            "coinbase": "0x0000000000000000000000000000000000000000",
            "stateRoot": "0x81b8dfb06a3603705c8658f845e7a37a3f81ec7822b807c2b00d159a3f3d9c41",
            "transactionsTrie": "0x56e81f171bcc55a6ff8345e692c0f86e5b48e01b996cadc001622fb5e363b421",
            "receiptTrie": "0x56e81f171bcc55a6ff8345e692c0f86e5b48e01b996cadc001622fb5e363b421",
            "bloom": "0x00000000000000000000000000000000000000000000000000000000000000000000000000000000000000000000000000000000000000000000000000000000000000000000000000000000000000000000000000000000000000000000000000000000000000000000000000000000000000000000000000000000000000000000000000000000000000000000000000000000000000000000000000000000000000000000000000000000000000000000000000000000000000000000000000000000000000000000000000000000000000000000000000000000000000000000000000000000000000000000000000000000000000000000000000000000",
            "difficulty": "0x00",
            "number": "0x00",
            "gasLimit": "0x07270e00",
            "gasUsed": "0x00",
            "timestamp": "0x00",
            "extraData": "0x00",
            "mixHash": "0x0000000000000000000000000000000000000000000000000000000000000000",
            "nonce": "0x0000000000000000",
            "baseFeePerGas": "0x07",
            "withdrawalsRoot": "0x56e81f171bcc55a6ff8345e692c0f86e5b48e01b996cadc001622fb5e363b421",
            "blobGasUsed": "0x00",
            "excessBlobGas": "0x00",
            "parentBeaconBlockRoot": "0x0000000000000000000000000000000000000000000000000000000000000000",
            "hash": "0x43e95a0eefd42e08e4b16b6370cee022decdb59efdf56fe203fa80e67e87b934"
        },
        "pre": {
            "0x000f3df6d732807ef1319fb7b8bb8522d0beac02": {
                "nonce": "0x01",
                "balance": "0x00",
                "code": "0x3373fffffffffffffffffffffffffffffffffffffffe14604d57602036146024575f5ffd5b5f35801560495762001fff810690815414603c575f5ffd5b62001fff01545f5260205ff35b5f5ffd5b62001fff42064281555f359062001fff015500",
                "storage": {}
            }
        },
        "postState": {
            "0x000f3df6d732807ef1319fb7b8bb8522d0beac02": {
                "nonce": "0x01",
                "balance": "0x00",
                "code": "0x3373fffffffffffffffffffffffffffffffffffffffe14604d57602036146024575f5ffd5b5f35801560495762001fff810690815414603c575f5ffd5b62001fff01545f5260205ff35b5f5ffd5b62001fff42064281555f359062001fff015500",
                "storage": {
                    "0x0c": "0x0c"
                }
            },
            "0xc0f6dc9e5836f54caadbf59cc69346c508e1992b": {
                "nonce": "0x00",
                "balance": "0x01dcd6500000000000",
                "code": "0x",
                "storage": {}
            },
            "0x95d1be958d22adf294428c13cc71d89ff320bfd3": {
                "nonce": "0x00",
                "balance": "0x3b9ac9ffffffffffc4653600",
                "code": "0x",
                "storage": {}
            },
            "0x621bccc1be164ceafcc132dd24bd847f2cd8992c": {
                "nonce": "0x00",
                "balance": "0x1dcd6500000000003b9aca00",
                "code": "0x",
                "storage": {}
            },
            "0xaa28d37a0582359e3143845f72c4605f64b9dcbb": {
                "nonce": "0x00",
                "balance": "0x1dcd65000000000000000000",
                "code": "0x",
                "storage": {}
            },
            "0xa7e8d165afe2a56577c060003e3103087c041e7d": {
                "nonce": "0x00",
                "balance": "0x1dcd64ffffffffffc4653600",
                "code": "0x",
                "storage": {}
            }
        },
        "lastblockhash": "0xd138f481cd5a49a9dbd2e10c15bed1572652a9c708d3b6ec99d3258af56f0de6",
        "config": {
            "network": "Cancun",
            "chainid": "0x01",
            "blobSchedule": {
                "Cancun": {
                    "target": "0x03",
                    "max": "0x06",
                    "baseFeeUpdateFraction": "0x32f0ed"
                }
            }
        },
        "genesisRLP": "0xf9023cf90236a00000000000000000000000000000000000000000000000000000000000000000a01dcc4de8dec75d7aab85b567b6ccd41ad312451b948a7413f0a142fd40d49347940000000000000000000000000000000000000000a081b8dfb06a3603705c8658f845e7a37a3f81ec7822b807c2b00d159a3f3d9c41a056e81f171bcc55a6ff8345e692c0f86e5b48e01b996cadc001622fb5e363b421a056e81f171bcc55a6ff8345e692c0f86e5b48e01b996cadc001622fb5e363b421b901000000000000000000000000000000000000000000000000000000000000000000000000000000000000000000000000000000000000000000000000000000000000000000000000000000000000000000000000000000000000000000000000000000000000000000000000000000000000000000000000000000000000000000000000000000000000000000000000000000000000000000000000000000000000000000000000000000000000000000000000000000000000000000000000000000000000000000000000000000000000000000000000000000000000000000000000000000000000000000000000000000000000000000000000000000000080808407270e00808000a0000000000000000000000000000000000000000000000000000000000000000088000000000000000007a056e81f171bcc55a6ff8345e692c0f86e5b48e01b996cadc001622fb5e363b4218080a00000000000000000000000000000000000000000000000000000000000000000c0c0c0",
        "blocks": [
            {
                "blockHeader": {
                    "parentHash": "0x43e95a0eefd42e08e4b16b6370cee022decdb59efdf56fe203fa80e67e87b934",
                    "uncleHash": "0x1dcc4de8dec75d7aab85b567b6ccd41ad312451b948a7413f0a142fd40d49347",
                    "coinbase": "0x2adc25665018aa1fe0e6bc666dac8fc2697ff9ba",
                    "stateRoot": "0x3e0860fd012a1003471ae71e865af3c3536e241f062b9b7a49a614b262f72032",
                    "transactionsTrie": "0x56e81f171bcc55a6ff8345e692c0f86e5b48e01b996cadc001622fb5e363b421",
                    "receiptTrie": "0x56e81f171bcc55a6ff8345e692c0f86e5b48e01b996cadc001622fb5e363b421",
                    "bloom": "0x00000000000000000000000000000000000000000000000000000000000000000000000000000000000000000000000000000000000000000000000000000000000000000000000000000000000000000000000000000000000000000000000000000000000000000000000000000000000000000000000000000000000000000000000000000000000000000000000000000000000000000000000000000000000000000000000000000000000000000000000000000000000000000000000000000000000000000000000000000000000000000000000000000000000000000000000000000000000000000000000000000000000000000000000000000000",
                    "difficulty": "0x00",
                    "number": "0x01",
                    "gasLimit": "0x07270e00",
                    "gasUsed": "0x00",
                    "timestamp": "0x0c",
                    "extraData": "0x",
                    "mixHash": "0x0000000000000000000000000000000000000000000000000000000000000000",
                    "nonce": "0x0000000000000000",
                    "baseFeePerGas": "0x07",
                    "withdrawalsRoot": "0x8bed729e14b47acfe452333f94100a61de94da1b49f8168da5fa1a5d3377cc00",
                    "blobGasUsed": "0x00",
                    "excessBlobGas": "0x00",
                    "parentBeaconBlockRoot": "0x0000000000000000000000000000000000000000000000000000000000000000",
                    "hash": "0xd138f481cd5a49a9dbd2e10c15bed1572652a9c708d3b6ec99d3258af56f0de6"
                },
                "transactions": [],
                "uncleHeaders": [],
                "withdrawals": [
                    {
                        "index": "0x00",
                        "validatorIndex": "0x00",
                        "address": "0xc0f6dc9e5836f54caadbf59cc69346c508e1992b",
                        "amount": "0x0800000000"
                    },
                    {
                        "index": "0x01",
                        "validatorIndex": "0x01",
                        "address": "0x95d1be958d22adf294428c13cc71d89ff320bfd3",
                        "amount": "0xffffffffffffffff"
                    },
                    {
                        "index": "0x02",
                        "validatorIndex": "0x02",
                        "address": "0x621bccc1be164ceafcc132dd24bd847f2cd8992c",
                        "amount": "0x8000000000000001"
                    },
                    {
                        "index": "0x03",
                        "validatorIndex": "0x03",
                        "address": "0xaa28d37a0582359e3143845f72c4605f64b9dcbb",
                        "amount": "0x8000000000000000"
                    },
                    {
                        "index": "0x04",
                        "validatorIndex": "0x04",
                        "address": "0xa7e8d165afe2a56577c060003e3103087c041e7d",
                        "amount": "0x7fffffffffffffff"
                    }
                ],
                "rlp": "0xf902dff90236a043e95a0eefd42e08e4b16b6370cee022decdb59efdf56fe203fa80e67e87b934a01dcc4de8dec75d7aab85b567b6ccd41ad312451b948a7413f0a142fd40d49347942adc25665018aa1fe0e6bc666dac8fc2697ff9baa03e0860fd012a1003471ae71e865af3c3536e241f062b9b7a49a614b262f72032a056e81f171bcc55a6ff8345e692c0f86e5b48e01b996cadc001622fb5e363b421a056e81f171bcc55a6ff8345e692c0f86e5b48e01b996cadc001622fb5e363b421b901000000000000000000000000000000000000000000000000000000000000000000000000000000000000000000000000000000000000000000000000000000000000000000000000000000000000000000000000000000000000000000000000000000000000000000000000000000000000000000000000000000000000000000000000000000000000000000000000000000000000000000000000000000000000000000000000000000000000000000000000000000000000000000000000000000000000000000000000000000000000000000000000000000000000000000000000000000000000000000000000000000000000000000000000000000000080018407270e00800c80a0000000000000000000000000000000000000000000000000000000000000000088000000000000000007a08bed729e14b47acfe452333f94100a61de94da1b49f8168da5fa1a5d3377cc008080a00000000000000000000000000000000000000000000000000000000000000000c0c0f8a2dd808094c0f6dc9e5836f54caadbf59cc69346c508e1992b850800000000e001019495d1be958d22adf294428c13cc71d89ff320bfd388ffffffffffffffffe0020294621bccc1be164ceafcc132dd24bd847f2cd8992c888000000000000001e0030394aa28d37a0582359e3143845f72c4605f64b9dcbb888000000000000000e0040494a7e8d165afe2a56577c060003e3103087c041e7d887fffffffffffffff",
                "blocknumber": "1"
            }
        ],
        "sealEngine": "NoProof",
        "_info": {
            "hash": "0xa3671af545e88347003684b8c4eadb268be4560f44a54c6efc0941a45c91b176",
            "fixture-format": "blockchain_test",
            "comment": "`execution-specs` generated test",
            "filling-transition-tool": "2.19.0",
            "description": "Test withdrawals that have a large gwei amount.\n\nTest such that that (gwei * 1e9) could overflow uint64 but not uint256.",
            "url": "https://github.com/ethereum/execution-specs/blob/tests-bal@v5.5.1/tests/shanghai/eip4895_withdrawals/test_withdrawals.py#L716",
            "opcode_count": {},
            "reference-spec": "https://github.com/ethereum/EIPs/blob/master/EIPS/eip-4895.md",
            "reference-spec-version": "81af3b60b632bc9c03513d1d137f25410e3f4d34"
        }
    }
}