{
    "tests/ported_static/stCallCodes/test_callcodecallcodecallcode_111_suicide_middle.py::test_callcodecallcodecallcode_111_suicide_middle[fork_Cancun-blockchain_test_from_state_test]": {
        "network": "Cancun",
        "genesisBlockHeader": {
            "parentHash": "0x0000000000000000000000000000000000000000000000000000000000000000",
            "uncleHash": "0x1dcc4de8dec75d7aab85b567b6ccd41ad312451b948a7413f0a142fd40d49347",
            "coinbase": "0x0000000000000000000000000000000000000000",
            "stateRoot": "0xf387b7f255e93927229d1ea0a951d238b9b295ffd963aafee58dd1cff430a081",
            "transactionsTrie": "0x56e81f171bcc55a6ff8345e692c0f86e5b48e01b996cadc001622fb5e363b421",
            "receiptTrie": "0x56e81f171bcc55a6ff8345e692c0f86e5b48e01b996cadc001622fb5e363b421",
            "bloom": "0x00000000000000000000000000000000000000000000000000000000000000000000000000000000000000000000000000000000000000000000000000000000000000000000000000000000000000000000000000000000000000000000000000000000000000000000000000000000000000000000000000000000000000000000000000000000000000000000000000000000000000000000000000000000000000000000000000000000000000000000000000000000000000000000000000000000000000000000000000000000000000000000000000000000000000000000000000000000000000000000000000000000000000000000000000000000",
            "difficulty": "0x00",
            "number": "0x00",
            "gasLimit": "0x01c9c380",
            "gasUsed": "0x00",
            "timestamp": "0x00",
            "extraData": "0x00",
            "mixHash": "0x0000000000000000000000000000000000000000000000000000000000000000",
            "nonce": "0x0000000000000000",
            "baseFeePerGas": "0x0b",
            "withdrawalsRoot": "0x56e81f171bcc55a6ff8345e692c0f86e5b48e01b996cadc001622fb5e363b421",
            "blobGasUsed": "0x00",
            "excessBlobGas": "0x00",
            "parentBeaconBlockRoot": "0x0000000000000000000000000000000000000000000000000000000000000000",
            "hash": "0xe19ea2481291ad71fa939e744700b6b6c1d9a0890b9e3078442c25eb074d1a07"
        },
        "pre": {
            "0x000f3df6d732807ef1319fb7b8bb8522d0beac02": {
                "nonce": "0x01",
                "balance": "0x00",
                "code": "0x3373fffffffffffffffffffffffffffffffffffffffe14604d57602036146024575f5ffd5b5f35801560495762001fff810690815414603c575f5ffd5b62001fff01545f5260205ff35b5f5ffd5b62001fff42064281555f359062001fff015500",
                "storage": {}
            },
            "0xa74ca10b765dcda3b60687f73f2881e2a56eda64": {
                "nonce": "0x00",
                "balance": "0x0de0b6b3a7640000",
                "code": "0x6040600060406000600073eaf8c2ae0d01a880cea4e1aa88def5edd153d57b620249f0f260005500",
                "storage": {}
            },
            "0xeaf8c2ae0d01a880cea4e1aa88def5edd153d57b": {
                "nonce": "0x00",
                "balance": "0x02540be400",
                "code": "0x604060006040600060007323a077e1e6b0740d6bfbc41de582f2930abd1762620186a0f260015500",
                "storage": {}
            },
            "0x23a077e1e6b0740d6bfbc41de582f2930abd1762": {
                "nonce": "0x00",
                "balance": "0x02540be400",
                "code": "0x73a74ca10b765dcda3b60687f73f2881e2a56eda64ff604060006040600060007373b954ebc05bb0ff4a0f6a13a054d50ad158409961c350f260025500",
                "storage": {}
            },
            "0x73b954ebc05bb0ff4a0f6a13a054d50ad1584099": {
                "nonce": "0x00",
                "balance": "0x02540be400",
                "code": "0x600160035500",
                "storage": {}
            },
            "0xebaf50debf10e08302fe4280c32df010463ca297": {
                "nonce": "0x00",
                "balance": "0x0de0b6b3a7640000",
                "code": "0x",
                "storage": {}
            }
        },
        "postState": {
            "0x000f3df6d732807ef1319fb7b8bb8522d0beac02": {
                "nonce": "0x01",
                "balance": "0x00",
                "code": "0x3373fffffffffffffffffffffffffffffffffffffffe14604d57602036146024575f5ffd5b5f35801560495762001fff810690815414603c575f5ffd5b62001fff01545f5260205ff35b5f5ffd5b62001fff42064281555f359062001fff015500",
                "storage": {
                    "0x03e8": "0x03e8"
                }
            },
            "0xa74ca10b765dcda3b60687f73f2881e2a56eda64": {
                "nonce": "0x00",
                "balance": "0x0de0b6b3a7640000",
                "code": "0x6040600060406000600073eaf8c2ae0d01a880cea4e1aa88def5edd153d57b620249f0f260005500",
                "storage": {
                    "0x01": "0x01",
                    "0x00": "0x01"
                }
            },
            "0xeaf8c2ae0d01a880cea4e1aa88def5edd153d57b": {
                "nonce": "0x00",
                "balance": "0x02540be400",
                "code": "0x604060006040600060007323a077e1e6b0740d6bfbc41de582f2930abd1762620186a0f260015500",
                "storage": {}
            },
            "0x23a077e1e6b0740d6bfbc41de582f2930abd1762": {
                "nonce": "0x00",
                "balance": "0x02540be400",
                "code": "0x73a74ca10b765dcda3b60687f73f2881e2a56eda64ff604060006040600060007373b954ebc05bb0ff4a0f6a13a054d50ad158409961c350f260025500",
                "storage": {}
            },
            "0x73b954ebc05bb0ff4a0f6a13a054d50ad1584099": {
                "nonce": "0x00",
                "balance": "0x02540be400",
                "code": "0x600160035500",
                "storage": {}
            },
            "0xebaf50debf10e08302fe4280c32df010463ca297": {
                "nonce": "0x01",
                "balance": "0x0de0b6b3a7587c3a",
                "code": "0x",
                "storage": {}
            }
        },
        "lastblockhash": "0xa4575b69d5029999c0af74ffe0b52eab68bf1883daf990588e565055ba852be5",
        "config": {
            "network": "Cancun",
            "chainid": "0x01",
            "blobSchedule": {
                "Cancun": {
                    "target": "0x03",
                    "max": "0x06",
                    "baseFeeUpdateFraction": "0x32f0ed"
                }
            }
        },
        "genesisRLP": "0xf9023cf90236a00000000000000000000000000000000000000000000000000000000000000000a01dcc4de8dec75d7aab85b567b6ccd41ad312451b948a7413f0a142fd40d49347940000000000000000000000000000000000000000a0f387b7f255e93927229d1ea0a951d238b9b295ffd963aafee58dd1cff430a081a056e81f171bcc55a6ff8345e692c0f86e5b48e01b996cadc001622fb5e363b421a056e81f171bcc55a6ff8345e692c0f86e5b48e01b996cadc001622fb5e363b421b901000000000000000000000000000000000000000000000000000000000000000000000000000000000000000000000000000000000000000000000000000000000000000000000000000000000000000000000000000000000000000000000000000000000000000000000000000000000000000000000000000000000000000000000000000000000000000000000000000000000000000000000000000000000000000000000000000000000000000000000000000000000000000000000000000000000000000000000000000000000000000000000000000000000000000000000000000000000000000000000000000000000000000000000000000000000080808401c9c380808000a000000000000000000000000000000000000000000000000000000000000000008800000000000000000ba056e81f171bcc55a6ff8345e692c0f86e5b48e01b996cadc001622fb5e363b4218080a00000000000000000000000000000000000000000000000000000000000000000c0c0c0",
        "blocks": [
            {
                "blockHeader": {
                    "parentHash": "0xe19ea2481291ad71fa939e744700b6b6c1d9a0890b9e3078442c25eb074d1a07",
                    "uncleHash": "0x1dcc4de8dec75d7aab85b567b6ccd41ad312451b948a7413f0a142fd40d49347",
                    "coinbase": "0x2adc25665018aa1fe0e6bc666dac8fc2697ff9ba",
                    "stateRoot": "0x57fcdee4b66267ad19b959c6fec729fa0ef34a7f6931570a5e58f065996b38ae",
                    "transactionsTrie": "0xd753d22c3568f8a3fbdf2a2953d92bff03885c520c7fb9afffa5ca424eb0bfa7",
                    "receiptTrie": "0x883a729346217ffad6c0491d67d46d21bf7b246224086224fd8e11d20011e18c",
                    "bloom": "0x00000000000000000000000000000000000000000000000000000000000000000000000000000000000000000000000000000000000000000000000000000000000000000000000000000000000000000000000000000000000000000000000000000000000000000000000000000000000000000000000000000000000000000000000000000000000000000000000000000000000000000000000000000000000000000000000000000000000000000000000000000000000000000000000000000000000000000000000000000000000000000000000000000000000000000000000000000000000000000000000000000000000000000000000000000000",
                    "difficulty": "0x00",
                    "number": "0x01",
                    "gasLimit": "0x01c9c380",
                    "gasUsed": "0x0126c7",
                    "timestamp": "0x03e8",
                    "extraData": "0x00",
                    "mixHash": "0x0000000000000000000000000000000000000000000000000000000000020000",
                    "nonce": "0x0000000000000000",
                    "baseFeePerGas": "0x0a",
                    "withdrawalsRoot": "0x56e81f171bcc55a6ff8345e692c0f86e5b48e01b996cadc001622fb5e363b421",
                    "blobGasUsed": "0x00",
                    "excessBlobGas": "0x00",
                    "parentBeaconBlockRoot": "0x0000000000000000000000000000000000000000000000000000000000000000",
                    "hash": "0xa4575b69d5029999c0af74ffe0b52eab68bf1883daf990588e565055ba852be5"
                },
                "transactions": [
                    {
                        "type": "0x00",
                        "chainId": "0x01",
                        "nonce": "0x00",
                        "gasPrice": "0x0a",
                        "gasLimit": "0x2dc6c0",
                        "to": "0xa74ca10b765dcda3b60687f73f2881e2a56eda64",
                        "value": "0x00",
                        "data": "0x",
                        "v": "0x25",
                        "r": "0xd20ffad17af2452dd746e5a98e9c23994dc82ed74c3f0d6a73e9ec479f0c619c",
                        "s": "0x2bc46ea88cc47bfbb0052bbcc9ce2e01e0c038acdcccf2c66162f8ebbe211982",
                        "sender": "0xebaf50debf10e08302fe4280c32df010463ca297"
                    }
                ],
                "uncleHeaders": [],
                "withdrawals": [],
                "receipts": [
                    {
                        "transactionHash": "0xd102dfe0931c3807b3b2bf6b1c3cd3d7b9edec10fa55cd8b53b15e254b20b4a8",
                        "type": "0x00",
                        "cumulativeGasUsed": "0x0126c7",
                        "bloom": "0x00000000000000000000000000000000000000000000000000000000000000000000000000000000000000000000000000000000000000000000000000000000000000000000000000000000000000000000000000000000000000000000000000000000000000000000000000000000000000000000000000000000000000000000000000000000000000000000000000000000000000000000000000000000000000000000000000000000000000000000000000000000000000000000000000000000000000000000000000000000000000000000000000000000000000000000000000000000000000000000000000000000000000000000000000000000",
                        "logs": [],
                        "status": true,
                        "rlp": "0xf9010901830126c7b9010000000000000000000000000000000000000000000000000000000000000000000000000000000000000000000000000000000000000000000000000000000000000000000000000000000000000000000000000000000000000000000000000000000000000000000000000000000000000000000000000000000000000000000000000000000000000000000000000000000000000000000000000000000000000000000000000000000000000000000000000000000000000000000000000000000000000000000000000000000000000000000000000000000000000000000000000000000000000000000000000000000000000000000000000000000000c0"
                    }
                ],
                "rlp": "0xf902a4f9023ba0e19ea2481291ad71fa939e744700b6b6c1d9a0890b9e3078442c25eb074d1a07a01dcc4de8dec75d7aab85b567b6ccd41ad312451b948a7413f0a142fd40d49347942adc25665018aa1fe0e6bc666dac8fc2697ff9baa057fcdee4b66267ad19b959c6fec729fa0ef34a7f6931570a5e58f065996b38aea0d753d22c3568f8a3fbdf2a2953d92bff03885c520c7fb9afffa5ca424eb0bfa7a0883a729346217ffad6c0491d67d46d21bf7b246224086224fd8e11d20011e18cb901000000000000000000000000000000000000000000000000000000000000000000000000000000000000000000000000000000000000000000000000000000000000000000000000000000000000000000000000000000000000000000000000000000000000000000000000000000000000000000000000000000000000000000000000000000000000000000000000000000000000000000000000000000000000000000000000000000000000000000000000000000000000000000000000000000000000000000000000000000000000000000000000000000000000000000000000000000000000000000000000000000000000000000000000000000000080018401c9c380830126c78203e800a000000000000000000000000000000000000000000000000000000000000200008800000000000000000aa056e81f171bcc55a6ff8345e692c0f86e5b48e01b996cadc001622fb5e363b4218080a00000000000000000000000000000000000000000000000000000000000000000f862f860800a832dc6c094a74ca10b765dcda3b60687f73f2881e2a56eda64808025a0d20ffad17af2452dd746e5a98e9c23994dc82ed74c3f0d6a73e9ec479f0c619ca02bc46ea88cc47bfbb0052bbcc9ce2e01e0c038acdcccf2c66162f8ebbe211982c0c0",
                "blocknumber": "1"
            }
        ],
        "sealEngine": "NoProof",
        "_info": {
            "hash": "0xf4c05e0fe68df4fb5ab3ae4ec8fc45d18542d4e3bf404db0aa030caff8c2203f",
            "fixture-format": "blockchain_test",
            "comment": "`execution-specs` generated test",
            "filling-transition-tool": "2.19.0",
            "description": "CALLCODE -> CALLCODE -> (suicide) CALLCODE -> code.",
            "url": "https://github.com/ethereum/execution-specs/blob/tests-bal@v5.6.1/tests/ported_static/stCallCodes/test_callcodecallcodecallcode_111_suicide_middle.py#L25",
            "metadata": {
                "opcode_count": {}
            }
        }
    }
}