{
    "tests/ported_static/stStaticCall/test_static_callcodecallcall_100_oogm_after_2.py::test_static_callcodecallcall_100_oogm_after_2[fork_Cancun-blockchain_test_from_state_test]": {
        "network": "Cancun",
        "genesisBlockHeader": {
            "parentHash": "0x0000000000000000000000000000000000000000000000000000000000000000",
            "uncleHash": "0x1dcc4de8dec75d7aab85b567b6ccd41ad312451b948a7413f0a142fd40d49347",
            "coinbase": "0x0000000000000000000000000000000000000000",
            "stateRoot": "0x515b307b8fef2fdb6193e9e1b9aa4ad8f50ba7bdb4d3bf23c69bd4da5e8965ee",
            "transactionsTrie": "0x56e81f171bcc55a6ff8345e692c0f86e5b48e01b996cadc001622fb5e363b421",
            "receiptTrie": "0x56e81f171bcc55a6ff8345e692c0f86e5b48e01b996cadc001622fb5e363b421",
            "bloom": "0x00000000000000000000000000000000000000000000000000000000000000000000000000000000000000000000000000000000000000000000000000000000000000000000000000000000000000000000000000000000000000000000000000000000000000000000000000000000000000000000000000000000000000000000000000000000000000000000000000000000000000000000000000000000000000000000000000000000000000000000000000000000000000000000000000000000000000000000000000000000000000000000000000000000000000000000000000000000000000000000000000000000000000000000000000000000",
            "difficulty": "0x00",
            "number": "0x00",
            "gasLimit": "0x989680",
            "gasUsed": "0x00",
            "timestamp": "0x00",
            "extraData": "0x00",
            "mixHash": "0x0000000000000000000000000000000000000000000000000000000000000000",
            "nonce": "0x0000000000000000",
            "baseFeePerGas": "0x0b",
            "withdrawalsRoot": "0x56e81f171bcc55a6ff8345e692c0f86e5b48e01b996cadc001622fb5e363b421",
            "blobGasUsed": "0x00",
            "excessBlobGas": "0x00",
            "parentBeaconBlockRoot": "0x0000000000000000000000000000000000000000000000000000000000000000",
            "hash": "0x3d3ba5ff59827976e967ea785dcb87366f010ab28aee47377c23a01a44b404b4"
        },
        "pre": {
            "0x000f3df6d732807ef1319fb7b8bb8522d0beac02": {
                "nonce": "0x01",
                "balance": "0x00",
                "code": "0x3373fffffffffffffffffffffffffffffffffffffffe14604d57602036146024575f5ffd5b5f35801560495762001fff810690815414603c575f5ffd5b62001fff01545f5260205ff35b5f5ffd5b62001fff42064281555f359062001fff015500",
                "storage": {}
            },
            "0xd66f224cbd2fabb21b17bb53c56118f32f62ebd6": {
                "nonce": "0x00",
                "balance": "0x0de0b6b3a7640000",
                "code": "0x",
                "storage": {}
            },
            "0x75a5c9cc0efb8bc7f2115d547f0327a153212014": {
                "nonce": "0x00",
                "balance": "0x00",
                "code": "0x600160035200",
                "storage": {}
            },
            "0x62b69448933b027453da68716eb0815a572999a3": {
                "nonce": "0x00",
                "balance": "0x00",
                "code": "0x600160035260406000604060007375a5c9cc0efb8bc7f2115d547f0327a1532120146201d4d4fa50600160035200",
                "storage": {}
            },
            "0x08f5f4f284a9f577480104530571dd90b152e35d": {
                "nonce": "0x00",
                "balance": "0x00",
                "code": "0x600160035260406000604060007362b69448933b027453da68716eb0815a572999a362061ad0fa505b61c350608051101560445760013b506001608051016080526028565b00",
                "storage": {}
            },
            "0xed12da952a0407fa0e3f85d495223ff3aaf88a3d": {
                "nonce": "0x00",
                "balance": "0x0de0b6b3a7640000",
                "code": "0x60406000604060007308f5f4f284a9f577480104530571dd90b152e35d62092d9cf4600055600160015500",
                "storage": {}
            }
        },
        "postState": {
            "0x000f3df6d732807ef1319fb7b8bb8522d0beac02": {
                "nonce": "0x01",
                "balance": "0x00",
                "code": "0x3373fffffffffffffffffffffffffffffffffffffffe14604d57602036146024575f5ffd5b5f35801560495762001fff810690815414603c575f5ffd5b62001fff01545f5260205ff35b5f5ffd5b62001fff42064281555f359062001fff015500",
                "storage": {
                    "0x03e8": "0x03e8"
                }
            },
            "0xd66f224cbd2fabb21b17bb53c56118f32f62ebd6": {
                "nonce": "0x01",
                "balance": "0x0de0b6b3a700e786",
                "code": "0x",
                "storage": {}
            },
            "0x75a5c9cc0efb8bc7f2115d547f0327a153212014": {
                "nonce": "0x00",
                "balance": "0x00",
                "code": "0x600160035200",
                "storage": {}
            },
            "0x62b69448933b027453da68716eb0815a572999a3": {
                "nonce": "0x00",
                "balance": "0x00",
                "code": "0x600160035260406000604060007375a5c9cc0efb8bc7f2115d547f0327a1532120146201d4d4fa50600160035200",
                "storage": {}
            },
            "0x08f5f4f284a9f577480104530571dd90b152e35d": {
                "nonce": "0x00",
                "balance": "0x00",
                "code": "0x600160035260406000604060007362b69448933b027453da68716eb0815a572999a362061ad0fa505b61c350608051101560445760013b506001608051016080526028565b00",
                "storage": {}
            },
            "0xed12da952a0407fa0e3f85d495223ff3aaf88a3d": {
                "nonce": "0x00",
                "balance": "0x0de0b6b3a7640000",
                "code": "0x60406000604060007308f5f4f284a9f577480104530571dd90b152e35d62092d9cf4600055600160015500",
                "storage": {
                    "0x01": "0x01"
                }
            }
        },
        "lastblockhash": "0x7ac469387afdcdb06b2f9175d9413949a97600f6efd4273b3cf77a268d0eff63",
        "config": {
            "network": "Cancun",
            "chainid": "0x01",
            "blobSchedule": {
                "Cancun": {
                    "target": "0x03",
                    "max": "0x06",
                    "baseFeeUpdateFraction": "0x32f0ed"
                }
            }
        },
        "genesisRLP": "0xf9023bf90235a00000000000000000000000000000000000000000000000000000000000000000a01dcc4de8dec75d7aab85b567b6ccd41ad312451b948a7413f0a142fd40d49347940000000000000000000000000000000000000000a0515b307b8fef2fdb6193e9e1b9aa4ad8f50ba7bdb4d3bf23c69bd4da5e8965eea056e81f171bcc55a6ff8345e692c0f86e5b48e01b996cadc001622fb5e363b421a056e81f171bcc55a6ff8345e692c0f86e5b48e01b996cadc001622fb5e363b421b9010000000000000000000000000000000000000000000000000000000000000000000000000000000000000000000000000000000000000000000000000000000000000000000000000000000000000000000000000000000000000000000000000000000000000000000000000000000000000000000000000000000000000000000000000000000000000000000000000000000000000000000000000000000000000000000000000000000000000000000000000000000000000000000000000000000000000000000000000000000000000000000000000000000000000000000000000000000000000000000000000000000000000000000000000000000000808083989680808000a000000000000000000000000000000000000000000000000000000000000000008800000000000000000ba056e81f171bcc55a6ff8345e692c0f86e5b48e01b996cadc001622fb5e363b4218080a00000000000000000000000000000000000000000000000000000000000000000c0c0c0",
        "blocks": [
            {
                "blockHeader": {
                    "parentHash": "0x3d3ba5ff59827976e967ea785dcb87366f010ab28aee47377c23a01a44b404b4",
                    "uncleHash": "0x1dcc4de8dec75d7aab85b567b6ccd41ad312451b948a7413f0a142fd40d49347",
                    "coinbase": "0x2adc25665018aa1fe0e6bc666dac8fc2697ff9ba",
                    "stateRoot": "0x8c1fc97db659445749d1eef78034c346a73ecc7e17f14a0abd9cb4118f2bcb14",
                    "transactionsTrie": "0x6bd88d02389314ee9c1631269c55dd30d5747d8df2b8491261279e2532a160ae",
                    "receiptTrie": "0xa487951a26ef995766dc7c79f5d23c154b393900e54172561572fd4343563b44",
                    "bloom": "0x00000000000000000000000000000000000000000000000000000000000000000000000000000000000000000000000000000000000000000000000000000000000000000000000000000000000000000000000000000000000000000000000000000000000000000000000000000000000000000000000000000000000000000000000000000000000000000000000000000000000000000000000000000000000000000000000000000000000000000000000000000000000000000000000000000000000000000000000000000000000000000000000000000000000000000000000000000000000000000000000000000000000000000000000000000000",
                    "difficulty": "0x00",
                    "number": "0x01",
                    "gasLimit": "0x989680",
                    "gasUsed": "0x09e8d9",
                    "timestamp": "0x03e8",
                    "extraData": "0x00",
                    "mixHash": "0x0000000000000000000000000000000000000000000000000000000000020000",
                    "nonce": "0x0000000000000000",
                    "baseFeePerGas": "0x0a",
                    "withdrawalsRoot": "0x56e81f171bcc55a6ff8345e692c0f86e5b48e01b996cadc001622fb5e363b421",
                    "blobGasUsed": "0x00",
                    "excessBlobGas": "0x00",
                    "parentBeaconBlockRoot": "0x0000000000000000000000000000000000000000000000000000000000000000",
                    "hash": "0x7ac469387afdcdb06b2f9175d9413949a97600f6efd4273b3cf77a268d0eff63"
                },
                "transactions": [
                    {
                        "type": "0x00",
                        "chainId": "0x01",
                        "nonce": "0x00",
                        "gasPrice": "0x0a",
                        "gasLimit": "0x1a3ec0",
                        "to": "0xed12da952a0407fa0e3f85d495223ff3aaf88a3d",
                        "value": "0x00",
                        "data": "0x",
                        "v": "0x26",
                        "r": "0x0aea569ce04f9132a4fd2b490815d5a6975a3ccfd60b9fa374ef8b4b4b46a8c8",
                        "s": "0x7faa87d84a0229e95ed73dcde17b84c3e1d7dda0d1dd5d21ba48a5e02e8d0ff3",
                        "sender": "0xd66f224cbd2fabb21b17bb53c56118f32f62ebd6"
                    }
                ],
                "uncleHeaders": [],
                "withdrawals": [],
                "receipts": [
                    {
                        "transactionHash": "0xa204c2e4c18e60994a5ab98e0534e6d8c72155c692cad43c32978f25936841aa",
                        "type": "0x00",
                        "cumulativeGasUsed": "0x09e8d9",
                        "bloom": "0x00000000000000000000000000000000000000000000000000000000000000000000000000000000000000000000000000000000000000000000000000000000000000000000000000000000000000000000000000000000000000000000000000000000000000000000000000000000000000000000000000000000000000000000000000000000000000000000000000000000000000000000000000000000000000000000000000000000000000000000000000000000000000000000000000000000000000000000000000000000000000000000000000000000000000000000000000000000000000000000000000000000000000000000000000000000",
                        "logs": [],
                        "status": true,
                        "rlp": "0xf90109018309e8d9b9010000000000000000000000000000000000000000000000000000000000000000000000000000000000000000000000000000000000000000000000000000000000000000000000000000000000000000000000000000000000000000000000000000000000000000000000000000000000000000000000000000000000000000000000000000000000000000000000000000000000000000000000000000000000000000000000000000000000000000000000000000000000000000000000000000000000000000000000000000000000000000000000000000000000000000000000000000000000000000000000000000000000000000000000000000000000c0"
                    }
                ],
                "rlp": "0xf902a3f9023aa03d3ba5ff59827976e967ea785dcb87366f010ab28aee47377c23a01a44b404b4a01dcc4de8dec75d7aab85b567b6ccd41ad312451b948a7413f0a142fd40d49347942adc25665018aa1fe0e6bc666dac8fc2697ff9baa08c1fc97db659445749d1eef78034c346a73ecc7e17f14a0abd9cb4118f2bcb14a06bd88d02389314ee9c1631269c55dd30d5747d8df2b8491261279e2532a160aea0a487951a26ef995766dc7c79f5d23c154b393900e54172561572fd4343563b44b90100000000000000000000000000000000000000000000000000000000000000000000000000000000000000000000000000000000000000000000000000000000000000000000000000000000000000000000000000000000000000000000000000000000000000000000000000000000000000000000000000000000000000000000000000000000000000000000000000000000000000000000000000000000000000000000000000000000000000000000000000000000000000000000000000000000000000000000000000000000000000000000000000000000000000000000000000000000000000000000000000000000000000000000000000000000008001839896808309e8d98203e800a000000000000000000000000000000000000000000000000000000000000200008800000000000000000aa056e81f171bcc55a6ff8345e692c0f86e5b48e01b996cadc001622fb5e363b4218080a00000000000000000000000000000000000000000000000000000000000000000f862f860800a831a3ec094ed12da952a0407fa0e3f85d495223ff3aaf88a3d808026a00aea569ce04f9132a4fd2b490815d5a6975a3ccfd60b9fa374ef8b4b4b46a8c8a07faa87d84a0229e95ed73dcde17b84c3e1d7dda0d1dd5d21ba48a5e02e8d0ff3c0c0",
                "blocknumber": "1"
            }
        ],
        "sealEngine": "NoProof",
        "_info": {
            "hash": "0x1dc8204099dd6d8db5bad1520a354abd372f4dead7b52be5038ef0149c9175e8",
            "fixture-format": "blockchain_test",
            "comment": "`execution-specs` generated test",
            "filling-transition-tool": "2.19.0",
            "description": "Test_static_callcodecallcall_100_oogm_after_2.",
            "url": "https://github.com/ethereum/execution-specs/blob/tests-snobal-devnet-5@v8037.0.0/tests/ported_static/stStaticCall/test_static_callcodecallcall_100_oogm_after_2.py#L24",
            "metadata": {
                "opcode_count": {}
            }
        }
    }
}