{
    "tests/frontier/validation/test_transaction.py::test_tx_gas_limit[fork_Frontier-blockchain_test]": {
        "network": "Frontier",
        "genesisBlockHeader": {
            "parentHash": "0x0000000000000000000000000000000000000000000000000000000000000000",
            "uncleHash": "0x1dcc4de8dec75d7aab85b567b6ccd41ad312451b948a7413f0a142fd40d49347",
            "coinbase": "0x0000000000000000000000000000000000000000",
            "stateRoot": "0x625f5ac8a62b70889f9936b97a1891fc20460d900136774484780b182a6ad83b",
            "transactionsTrie": "0x56e81f171bcc55a6ff8345e692c0f86e5b48e01b996cadc001622fb5e363b421",
            "receiptTrie": "0x56e81f171bcc55a6ff8345e692c0f86e5b48e01b996cadc001622fb5e363b421",
            "bloom": "0x00000000000000000000000000000000000000000000000000000000000000000000000000000000000000000000000000000000000000000000000000000000000000000000000000000000000000000000000000000000000000000000000000000000000000000000000000000000000000000000000000000000000000000000000000000000000000000000000000000000000000000000000000000000000000000000000000000000000000000000000000000000000000000000000000000000000000000000000000000000000000000000000000000000000000000000000000000000000000000000000000000000000000000000000000000000",
            "difficulty": "0x020000",
            "number": "0x00",
            "gasLimit": "0x5208",
            "gasUsed": "0x00",
            "timestamp": "0x00",
            "extraData": "0x00",
            "mixHash": "0x0000000000000000000000000000000000000000000000000000000000000000",
            "nonce": "0x0000000000000000",
            "hash": "0x4ed5b4890f82e8c296a2bcef8dbec609fc159c149b1f5ff484f94c245980a258"
        },
        "pre": {
            "0x1ad9bc24818784172ff393bb6f89f094d4d2ca29": {
                "nonce": "0x00",
                "balance": "0x3635c9adc5dea00000",
                "code": "0x",
                "storage": {}
            },
            "0xdd616a20f3b01fc95e6b1701d8a07331d06dd897": {
                "nonce": "0x00",
                "balance": "0x3635c9adc5dea00000",
                "code": "0x",
                "storage": {}
            }
        },
        "postState": {
            "0x1ad9bc24818784172ff393bb6f89f094d4d2ca29": {
                "nonce": "0x00",
                "balance": "0x3635c9adc5dea00000",
                "code": "0x",
                "storage": {}
            },
            "0xdd616a20f3b01fc95e6b1701d8a07331d06dd897": {
                "nonce": "0x00",
                "balance": "0x3635c9adc5dea00000",
                "code": "0x",
                "storage": {}
            }
        },
        "lastblockhash": "0x4ed5b4890f82e8c296a2bcef8dbec609fc159c149b1f5ff484f94c245980a258",
        "config": {
            "network": "Frontier",
            "chainid": "0x01"
        },
        "genesisRLP": "0xf901f7f901f2a00000000000000000000000000000000000000000000000000000000000000000a01dcc4de8dec75d7aab85b567b6ccd41ad312451b948a7413f0a142fd40d49347940000000000000000000000000000000000000000a0625f5ac8a62b70889f9936b97a1891fc20460d900136774484780b182a6ad83ba056e81f171bcc55a6ff8345e692c0f86e5b48e01b996cadc001622fb5e363b421a056e81f171bcc55a6ff8345e692c0f86e5b48e01b996cadc001622fb5e363b421b90100000000000000000000000000000000000000000000000000000000000000000000000000000000000000000000000000000000000000000000000000000000000000000000000000000000000000000000000000000000000000000000000000000000000000000000000000000000000000000000000000000000000000000000000000000000000000000000000000000000000000000000000000000000000000000000000000000000000000000000000000000000000000000000000000000000000000000000000000000000000000000000000000000000000000000000000000000000000000000000000000000000000000000000000000000000008302000080825208808000a00000000000000000000000000000000000000000000000000000000000000000880000000000000000c0c0",
        "blocks": [
            {
                "rlp": "0xf90259f901f2a04ed5b4890f82e8c296a2bcef8dbec609fc159c149b1f5ff484f94c245980a258a01dcc4de8dec75d7aab85b567b6ccd41ad312451b948a7413f0a142fd40d49347942adc25665018aa1fe0e6bc666dac8fc2697ff9baa03e3572c1bfc56ed0b60b170bf3488b2efd7e875d5221b11a1403d32625501732a0604efc37b95f50cc57adf1c20877272d67c87d22fa31863177c0b147387d4749a056e81f171bcc55a6ff8345e692c0f86e5b48e01b996cadc001622fb5e363b421b90100000000000000000000000000000000000000000000000000000000000000000000000000000000000000000000000000000000000000000000000000000000000000000000000000000000000000000000000000000000000000000000000000000000000000000000000000000000000000000000000000000000000000000000000000000000000000000000000000000000000000000000000000000000000000000000000000000000000000000000000000000000000000000000000000000000000000000000000000000000000000000000000000000000000000000000000000000000000000000000000000000000000000000000000000000000008302004001825208800c80a00000000000000000000000000000000000000000000000000000000000000000880000000000000000f861f85f801082520994dd616a20f3b01fc95e6b1701d8a07331d06dd89780801ba0b3bfb9b4403cfafe7b56346ef71d23d502fb88bd2850c47df99ccbca7f0c3adba077ea1b6a1d7675b39ec674c3726fdab721f441c731b8d0fb2b6716311d75fc89c0",
                "expectException": "TransactionException.GAS_ALLOWANCE_EXCEEDED",
                "rlp_decoded": {
                    "blockHeader": {
                        "parentHash": "0x4ed5b4890f82e8c296a2bcef8dbec609fc159c149b1f5ff484f94c245980a258",
                        "uncleHash": "0x1dcc4de8dec75d7aab85b567b6ccd41ad312451b948a7413f0a142fd40d49347",
                        "coinbase": "0x2adc25665018aa1fe0e6bc666dac8fc2697ff9ba",
                        "stateRoot": "0x3e3572c1bfc56ed0b60b170bf3488b2efd7e875d5221b11a1403d32625501732",
                        "transactionsTrie": "0x604efc37b95f50cc57adf1c20877272d67c87d22fa31863177c0b147387d4749",
                        "receiptTrie": "0x56e81f171bcc55a6ff8345e692c0f86e5b48e01b996cadc001622fb5e363b421",
                        "bloom": "0x00000000000000000000000000000000000000000000000000000000000000000000000000000000000000000000000000000000000000000000000000000000000000000000000000000000000000000000000000000000000000000000000000000000000000000000000000000000000000000000000000000000000000000000000000000000000000000000000000000000000000000000000000000000000000000000000000000000000000000000000000000000000000000000000000000000000000000000000000000000000000000000000000000000000000000000000000000000000000000000000000000000000000000000000000000000",
                        "difficulty": "0x020040",
                        "number": "0x01",
                        "gasLimit": "0x5208",
                        "gasUsed": "0x00",
                        "timestamp": "0x0c",
                        "extraData": "0x",
                        "mixHash": "0x0000000000000000000000000000000000000000000000000000000000000000",
                        "nonce": "0x0000000000000000",
                        "hash": "0xc68ecba6a1224e970af0b308cb129e5e9a96e06de8d6eb48095f0196856128a3"
                    },
                    "transactions": [
                        {
                            "type": "0x00",
                            "chainId": "0x01",
                            "nonce": "0x00",
                            "gasPrice": "0x10",
                            "gasLimit": "0x5209",
                            "to": "0xdd616a20f3b01fc95e6b1701d8a07331d06dd897",
                            "value": "0x00",
                            "data": "0x",
                            "v": "0x1b",
                            "r": "0xb3bfb9b4403cfafe7b56346ef71d23d502fb88bd2850c47df99ccbca7f0c3adb",
                            "s": "0x77ea1b6a1d7675b39ec674c3726fdab721f441c731b8d0fb2b6716311d75fc89",
                            "sender": "0x1ad9bc24818784172ff393bb6f89f094d4d2ca29"
                        }
                    ],
                    "uncleHeaders": [],
                    "blocknumber": "1"
                }
            }
        ],
        "sealEngine": "NoProof",
        "_info": {
            "hash": "0xb72b2e197cf5ecb5ad38100aa1c2e4f4aa7fefcc7034ecf13c14ee3302d83300",
            "fixture-format": "blockchain_test",
            "comment": "`execution-specs` generated test",
            "filling-transition-tool": "2.19.0",
            "description": "Tests that if a tx gas limit is higher than the block gas limit,\nan exception is raised.",
            "url": "https://github.com/ethereum/execution-specs/blob/tests-bal@v5.4.0/tests/frontier/validation/test_transaction.py#L17",
            "opcode_count": {}
        }
    }
}