{
    "tests/frontier/opcodes/test_data_copy_oog.py::test_codecopy_word_copy_oog[fork_Istanbul-blockchain_test_from_state_test-insufficient_gas_for_word_copy_cost]": {
        "network": "Istanbul",
        "genesisBlockHeader": {
            "parentHash": "0x0000000000000000000000000000000000000000000000000000000000000000",
            "uncleHash": "0x1dcc4de8dec75d7aab85b567b6ccd41ad312451b948a7413f0a142fd40d49347",
            "coinbase": "0x0000000000000000000000000000000000000000",
            "stateRoot": "0x2909a1b966f24aa0e714dc7351a0c93fb0964c013dac86ed332a7f742476c16d",
            "transactionsTrie": "0x56e81f171bcc55a6ff8345e692c0f86e5b48e01b996cadc001622fb5e363b421",
            "receiptTrie": "0x56e81f171bcc55a6ff8345e692c0f86e5b48e01b996cadc001622fb5e363b421",
            "bloom": "0x00000000000000000000000000000000000000000000000000000000000000000000000000000000000000000000000000000000000000000000000000000000000000000000000000000000000000000000000000000000000000000000000000000000000000000000000000000000000000000000000000000000000000000000000000000000000000000000000000000000000000000000000000000000000000000000000000000000000000000000000000000000000000000000000000000000000000000000000000000000000000000000000000000000000000000000000000000000000000000000000000000000000000000000000000000000",
            "difficulty": "0x020000",
            "number": "0x00",
            "gasLimit": "0x07270e00",
            "gasUsed": "0x00",
            "timestamp": "0x00",
            "extraData": "0x00",
            "mixHash": "0x0000000000000000000000000000000000000000000000000000000000000000",
            "nonce": "0x0000000000000000",
            "hash": "0x2cb8fef2a5402e0b4e1aab82944f0716fd08fcf9bb754ac5f958569d4b2af5d4"
        },
        "pre": {
            "0x9bd615aa19aa7e639e1bc7f5147b63f045551b78": {
                "nonce": "0x01",
                "balance": "0x00",
                "code": "0x60006103e0526104006000600039600160005360016000f3",
                "storage": {}
            },
            "0x144aadf61023a7f8d8e9319d5647b4847c638fc1": {
                "nonce": "0x01",
                "balance": "0x00",
                "code": "0x60016000600060006000739bd615aa19aa7e639e1bc7f5147b63f045551b786096f160005500",
                "storage": {}
            },
            "0x1ad9bc24818784172ff393bb6f89f094d4d2ca29": {
                "nonce": "0x00",
                "balance": "0x3635c9adc5dea00000",
                "code": "0x",
                "storage": {}
            }
        },
        "postState": {
            "0x9bd615aa19aa7e639e1bc7f5147b63f045551b78": {
                "nonce": "0x01",
                "balance": "0x00",
                "code": "0x60006103e0526104006000600039600160005360016000f3",
                "storage": {}
            },
            "0x144aadf61023a7f8d8e9319d5647b4847c638fc1": {
                "nonce": "0x01",
                "balance": "0x00",
                "code": "0x60016000600060006000739bd615aa19aa7e639e1bc7f5147b63f045551b786096f160005500",
                "storage": {}
            },
            "0x1ad9bc24818784172ff393bb6f89f094d4d2ca29": {
                "nonce": "0x01",
                "balance": "0x3635c9adc5de9c8a2e",
                "code": "0x",
                "storage": {}
            },
            "0x2adc25665018aa1fe0e6bc666dac8fc2697ff9ba": {
                "nonce": "0x00",
                "balance": "0x1bc16d674ecb75d2",
                "code": "0x",
                "storage": {}
            }
        },
        "lastblockhash": "0xa2f6ba19d71e72cf2f6950063bd37eeebff258ad734c74b3ff4521816f5d7c0b",
        "config": {
            "network": "Istanbul",
            "chainid": "0x01"
        },
        "genesisRLP": "0xf901f9f901f4a00000000000000000000000000000000000000000000000000000000000000000a01dcc4de8dec75d7aab85b567b6ccd41ad312451b948a7413f0a142fd40d49347940000000000000000000000000000000000000000a02909a1b966f24aa0e714dc7351a0c93fb0964c013dac86ed332a7f742476c16da056e81f171bcc55a6ff8345e692c0f86e5b48e01b996cadc001622fb5e363b421a056e81f171bcc55a6ff8345e692c0f86e5b48e01b996cadc001622fb5e363b421b901000000000000000000000000000000000000000000000000000000000000000000000000000000000000000000000000000000000000000000000000000000000000000000000000000000000000000000000000000000000000000000000000000000000000000000000000000000000000000000000000000000000000000000000000000000000000000000000000000000000000000000000000000000000000000000000000000000000000000000000000000000000000000000000000000000000000000000000000000000000000000000000000000000000000000000000000000000000000000000000000000000000000000000000000000000000083020000808407270e00808000a00000000000000000000000000000000000000000000000000000000000000000880000000000000000c0c0",
        "blocks": [
            {
                "blockHeader": {
                    "parentHash": "0x2cb8fef2a5402e0b4e1aab82944f0716fd08fcf9bb754ac5f958569d4b2af5d4",
                    "uncleHash": "0x1dcc4de8dec75d7aab85b567b6ccd41ad312451b948a7413f0a142fd40d49347",
                    "coinbase": "0x2adc25665018aa1fe0e6bc666dac8fc2697ff9ba",
                    "stateRoot": "0xa3e9c0ed0513eaef9444cf0971747d4b80dc35c131279da2c65b7e262d99dbf3",
                    "transactionsTrie": "0x33deb81ca252f08f3c2f7c97e0ce93fc5094834c033069d0d92044f59de2357f",
                    "receiptTrie": "0xe3c8bbb6c95956c4bdad74b5b7f78682ce0727e0438aabe14154aeb56adb63d2",
                    "bloom": "0x00000000000000000000000000000000000000000000000000000000000000000000000000000000000000000000000000000000000000000000000000000000000000000000000000000000000000000000000000000000000000000000000000000000000000000000000000000000000000000000000000000000000000000000000000000000000000000000000000000000000000000000000000000000000000000000000000000000000000000000000000000000000000000000000000000000000000000000000000000000000000000000000000000000000000000000000000000000000000000000000000000000000000000000000000000000",
                    "difficulty": "0x020000",
                    "number": "0x01",
                    "gasLimit": "0x07270e00",
                    "gasUsed": "0x5895",
                    "timestamp": "0x03e8",
                    "extraData": "0x00",
                    "mixHash": "0x0000000000000000000000000000000000000000000000000000000000000000",
                    "nonce": "0x0000000000000000",
                    "hash": "0xa2f6ba19d71e72cf2f6950063bd37eeebff258ad734c74b3ff4521816f5d7c0b"
                },
                "transactions": [
                    {
                        "type": "0x00",
                        "chainId": "0x01",
                        "nonce": "0x00",
                        "gasPrice": "0x0a",
                        "gasLimit": "0x07a120",
                        "to": "0x144aadf61023a7f8d8e9319d5647b4847c638fc1",
                        "value": "0x00",
                        "data": "0x",
                        "v": "0x26",
                        "r": "0xbd84bd7b74f5ff3566e12cbedeff66b57625faab2438e9e25744ed3bf08c3f07",
                        "s": "0x6a6fd841eef7cd6dc2230b91de4cb07ea111e0c02ace272c427a740abba59bec",
                        "sender": "0x1ad9bc24818784172ff393bb6f89f094d4d2ca29"
                    }
                ],
                "uncleHeaders": [],
                "receipts": [
                    {
                        "transactionHash": "0xe5eb5e90e97069ab059a79d61590e36b18e9cf0882945b782862d5a4eebcc839",
                        "type": "0x00",
                        "cumulativeGasUsed": "0x5895",
                        "bloom": "0x00000000000000000000000000000000000000000000000000000000000000000000000000000000000000000000000000000000000000000000000000000000000000000000000000000000000000000000000000000000000000000000000000000000000000000000000000000000000000000000000000000000000000000000000000000000000000000000000000000000000000000000000000000000000000000000000000000000000000000000000000000000000000000000000000000000000000000000000000000000000000000000000000000000000000000000000000000000000000000000000000000000000000000000000000000000",
                        "logs": [],
                        "status": true,
                        "rlp": "0xf9010801825895b9010000000000000000000000000000000000000000000000000000000000000000000000000000000000000000000000000000000000000000000000000000000000000000000000000000000000000000000000000000000000000000000000000000000000000000000000000000000000000000000000000000000000000000000000000000000000000000000000000000000000000000000000000000000000000000000000000000000000000000000000000000000000000000000000000000000000000000000000000000000000000000000000000000000000000000000000000000000000000000000000000000000000000000000000000000000000c0"
                    }
                ],
                "rlp": "0xf90260f901f8a02cb8fef2a5402e0b4e1aab82944f0716fd08fcf9bb754ac5f958569d4b2af5d4a01dcc4de8dec75d7aab85b567b6ccd41ad312451b948a7413f0a142fd40d49347942adc25665018aa1fe0e6bc666dac8fc2697ff9baa0a3e9c0ed0513eaef9444cf0971747d4b80dc35c131279da2c65b7e262d99dbf3a033deb81ca252f08f3c2f7c97e0ce93fc5094834c033069d0d92044f59de2357fa0e3c8bbb6c95956c4bdad74b5b7f78682ce0727e0438aabe14154aeb56adb63d2b901000000000000000000000000000000000000000000000000000000000000000000000000000000000000000000000000000000000000000000000000000000000000000000000000000000000000000000000000000000000000000000000000000000000000000000000000000000000000000000000000000000000000000000000000000000000000000000000000000000000000000000000000000000000000000000000000000000000000000000000000000000000000000000000000000000000000000000000000000000000000000000000000000000000000000000000000000000000000000000000000000000000000000000000000000000000083020000018407270e008258958203e800a00000000000000000000000000000000000000000000000000000000000000000880000000000000000f862f860800a8307a12094144aadf61023a7f8d8e9319d5647b4847c638fc1808026a0bd84bd7b74f5ff3566e12cbedeff66b57625faab2438e9e25744ed3bf08c3f07a06a6fd841eef7cd6dc2230b91de4cb07ea111e0c02ace272c427a740abba59becc0",
                "blocknumber": "1"
            }
        ],
        "sealEngine": "NoProof",
        "_info": {
            "hash": "0xf08b08198d590be4eb4787c4573fe7dcfb0178470f35bd131f878e7e7d3579e2",
            "fixture-format": "blockchain_test",
            "comment": "`execution-specs` generated test",
            "filling-transition-tool": "2.19.0",
            "description": "Test that CODECOPY properly consumes gas for word copy cost.",
            "url": "https://github.com/ethereum/execution-specs/blob/tests-sn\u00f8bal-devnet-4@v1.0.0/tests/frontier/opcodes/test_data_copy_oog.py#L123",
            "metadata": {
                "opcode_count": {}
            }
        }
    },
    "tests/frontier/opcodes/test_data_copy_oog.py::test_codecopy_word_copy_oog[fork_Istanbul-blockchain_test_from_state_test-sufficient_gas]": {
        "network": "Istanbul",
        "genesisBlockHeader": {
            "parentHash": "0x0000000000000000000000000000000000000000000000000000000000000000",
            "uncleHash": "0x1dcc4de8dec75d7aab85b567b6ccd41ad312451b948a7413f0a142fd40d49347",
            "coinbase": "0x0000000000000000000000000000000000000000",
            "stateRoot": "0x807e5d75e29a5c081ceeabe9942f05a38027bbf7e53741aa509da12dc9b18d55",
            "transactionsTrie": "0x56e81f171bcc55a6ff8345e692c0f86e5b48e01b996cadc001622fb5e363b421",
            "receiptTrie": "0x56e81f171bcc55a6ff8345e692c0f86e5b48e01b996cadc001622fb5e363b421",
            "bloom": "0x00000000000000000000000000000000000000000000000000000000000000000000000000000000000000000000000000000000000000000000000000000000000000000000000000000000000000000000000000000000000000000000000000000000000000000000000000000000000000000000000000000000000000000000000000000000000000000000000000000000000000000000000000000000000000000000000000000000000000000000000000000000000000000000000000000000000000000000000000000000000000000000000000000000000000000000000000000000000000000000000000000000000000000000000000000000",
            "difficulty": "0x020000",
            "number": "0x00",
            "gasLimit": "0x07270e00",
            "gasUsed": "0x00",
            "timestamp": "0x00",
            "extraData": "0x00",
            "mixHash": "0x0000000000000000000000000000000000000000000000000000000000000000",
            "nonce": "0x0000000000000000",
            "hash": "0x75042364a775aca882288952e7929c5b276df22d9b309c66e413c0ea9560c9bd"
        },
        "pre": {
            "0x9bd615aa19aa7e639e1bc7f5147b63f045551b78": {
                "nonce": "0x01",
                "balance": "0x00",
                "code": "0x60006103e0526104006000600039600160005360016000f3",
                "storage": {}
            },
            "0xa3f0c7d9be314eb6ec5e9fe77ca2721c3aad843c": {
                "nonce": "0x01",
                "balance": "0x00",
                "code": "0x60016000600060006000739bd615aa19aa7e639e1bc7f5147b63f045551b78611388f160005500",
                "storage": {}
            },
            "0x1ad9bc24818784172ff393bb6f89f094d4d2ca29": {
                "nonce": "0x00",
                "balance": "0x3635c9adc5dea00000",
                "code": "0x",
                "storage": {}
            }
        },
        "postState": {
            "0x9bd615aa19aa7e639e1bc7f5147b63f045551b78": {
                "nonce": "0x01",
                "balance": "0x00",
                "code": "0x60006103e0526104006000600039600160005360016000f3",
                "storage": {}
            },
            "0xa3f0c7d9be314eb6ec5e9fe77ca2721c3aad843c": {
                "nonce": "0x01",
                "balance": "0x00",
                "code": "0x60016000600060006000739bd615aa19aa7e639e1bc7f5147b63f045551b78611388f160005500",
                "storage": {
                    "0x00": "0x01"
                }
            },
            "0x1ad9bc24818784172ff393bb6f89f094d4d2ca29": {
                "nonce": "0x01",
                "balance": "0x3635c9adc5de99990e",
                "code": "0x",
                "storage": {}
            },
            "0x2adc25665018aa1fe0e6bc666dac8fc2697ff9ba": {
                "nonce": "0x00",
                "balance": "0x1bc16d674ece66f2",
                "code": "0x",
                "storage": {}
            }
        },
        "lastblockhash": "0xd893e8e08dd23d21b723985fb7c511da44156159721bee34861b4d0d35fdf897",
        "config": {
            "network": "Istanbul",
            "chainid": "0x01"
        },
        "genesisRLP": "0xf901f9f901f4a00000000000000000000000000000000000000000000000000000000000000000a01dcc4de8dec75d7aab85b567b6ccd41ad312451b948a7413f0a142fd40d49347940000000000000000000000000000000000000000a0807e5d75e29a5c081ceeabe9942f05a38027bbf7e53741aa509da12dc9b18d55a056e81f171bcc55a6ff8345e692c0f86e5b48e01b996cadc001622fb5e363b421a056e81f171bcc55a6ff8345e692c0f86e5b48e01b996cadc001622fb5e363b421b901000000000000000000000000000000000000000000000000000000000000000000000000000000000000000000000000000000000000000000000000000000000000000000000000000000000000000000000000000000000000000000000000000000000000000000000000000000000000000000000000000000000000000000000000000000000000000000000000000000000000000000000000000000000000000000000000000000000000000000000000000000000000000000000000000000000000000000000000000000000000000000000000000000000000000000000000000000000000000000000000000000000000000000000000000000000083020000808407270e00808000a00000000000000000000000000000000000000000000000000000000000000000880000000000000000c0c0",
        "blocks": [
            {
                "blockHeader": {
                    "parentHash": "0x75042364a775aca882288952e7929c5b276df22d9b309c66e413c0ea9560c9bd",
                    "uncleHash": "0x1dcc4de8dec75d7aab85b567b6ccd41ad312451b948a7413f0a142fd40d49347",
                    "coinbase": "0x2adc25665018aa1fe0e6bc666dac8fc2697ff9ba",
                    "stateRoot": "0xb417ea739121ddf56f1402c8f89e49468b3ea0accf450ce6aa40130376cbc61c",
                    "transactionsTrie": "0xf414949a90b007098b2d2d61e6a5e368c8184c9a78792ffa6d6cdd53ee0a6ade",
                    "receiptTrie": "0x3dc61aa4340d9bdeb4c007ef1fe1534f0ae0f085f234b1ae3976865d3baabcbc",
                    "bloom": "0x00000000000000000000000000000000000000000000000000000000000000000000000000000000000000000000000000000000000000000000000000000000000000000000000000000000000000000000000000000000000000000000000000000000000000000000000000000000000000000000000000000000000000000000000000000000000000000000000000000000000000000000000000000000000000000000000000000000000000000000000000000000000000000000000000000000000000000000000000000000000000000000000000000000000000000000000000000000000000000000000000000000000000000000000000000000",
                    "difficulty": "0x020000",
                    "number": "0x01",
                    "gasLimit": "0x07270e00",
                    "gasUsed": "0xa3e5",
                    "timestamp": "0x03e8",
                    "extraData": "0x00",
                    "mixHash": "0x0000000000000000000000000000000000000000000000000000000000000000",
                    "nonce": "0x0000000000000000",
                    "hash": "0xd893e8e08dd23d21b723985fb7c511da44156159721bee34861b4d0d35fdf897"
                },
                "transactions": [
                    {
                        "type": "0x00",
                        "chainId": "0x01",
                        "nonce": "0x00",
                        "gasPrice": "0x0a",
                        "gasLimit": "0x07a120",
                        "to": "0xa3f0c7d9be314eb6ec5e9fe77ca2721c3aad843c",
                        "value": "0x00",
                        "data": "0x",
                        "v": "0x25",
                        "r": "0xd12bbbcaf950b6d68f2288e001775145231441772dc5e8d2f442ee82c3f8ca31",
                        "s": "0x397c80513991cccaa22505efef8797e155b755a9d407125c1be98a8267a79e45",
                        "sender": "0x1ad9bc24818784172ff393bb6f89f094d4d2ca29"
                    }
                ],
                "uncleHeaders": [],
                "receipts": [
                    {
                        "transactionHash": "0x74c2c5506d46c99b4f8130c296ec34cc4ff2042b4a937042f16cae20481818d0",
                        "type": "0x00",
                        "cumulativeGasUsed": "0xa3e5",
                        "bloom": "0x00000000000000000000000000000000000000000000000000000000000000000000000000000000000000000000000000000000000000000000000000000000000000000000000000000000000000000000000000000000000000000000000000000000000000000000000000000000000000000000000000000000000000000000000000000000000000000000000000000000000000000000000000000000000000000000000000000000000000000000000000000000000000000000000000000000000000000000000000000000000000000000000000000000000000000000000000000000000000000000000000000000000000000000000000000000",
                        "logs": [],
                        "status": true,
                        "rlp": "0xf901080182a3e5b9010000000000000000000000000000000000000000000000000000000000000000000000000000000000000000000000000000000000000000000000000000000000000000000000000000000000000000000000000000000000000000000000000000000000000000000000000000000000000000000000000000000000000000000000000000000000000000000000000000000000000000000000000000000000000000000000000000000000000000000000000000000000000000000000000000000000000000000000000000000000000000000000000000000000000000000000000000000000000000000000000000000000000000000000000000000000c0"
                    }
                ],
                "rlp": "0xf90260f901f8a075042364a775aca882288952e7929c5b276df22d9b309c66e413c0ea9560c9bda01dcc4de8dec75d7aab85b567b6ccd41ad312451b948a7413f0a142fd40d49347942adc25665018aa1fe0e6bc666dac8fc2697ff9baa0b417ea739121ddf56f1402c8f89e49468b3ea0accf450ce6aa40130376cbc61ca0f414949a90b007098b2d2d61e6a5e368c8184c9a78792ffa6d6cdd53ee0a6adea03dc61aa4340d9bdeb4c007ef1fe1534f0ae0f085f234b1ae3976865d3baabcbcb901000000000000000000000000000000000000000000000000000000000000000000000000000000000000000000000000000000000000000000000000000000000000000000000000000000000000000000000000000000000000000000000000000000000000000000000000000000000000000000000000000000000000000000000000000000000000000000000000000000000000000000000000000000000000000000000000000000000000000000000000000000000000000000000000000000000000000000000000000000000000000000000000000000000000000000000000000000000000000000000000000000000000000000000000000000000083020000018407270e0082a3e58203e800a00000000000000000000000000000000000000000000000000000000000000000880000000000000000f862f860800a8307a12094a3f0c7d9be314eb6ec5e9fe77ca2721c3aad843c808025a0d12bbbcaf950b6d68f2288e001775145231441772dc5e8d2f442ee82c3f8ca31a0397c80513991cccaa22505efef8797e155b755a9d407125c1be98a8267a79e45c0",
                "blocknumber": "1"
            }
        ],
        "sealEngine": "NoProof",
        "_info": {
            "hash": "0x2109df0c258a3335e416025ec154a005f3632110feb1e02556e0f0ef38161746",
            "fixture-format": "blockchain_test",
            "comment": "`execution-specs` generated test",
            "filling-transition-tool": "2.19.0",
            "description": "Test that CODECOPY properly consumes gas for word copy cost.",
            "url": "https://github.com/ethereum/execution-specs/blob/tests-sn\u00f8bal-devnet-4@v1.0.0/tests/frontier/opcodes/test_data_copy_oog.py#L123",
            "metadata": {
                "opcode_count": {}
            }
        }
    }
}