{
    "tests/ported_static/stStaticCall/test_static_callcodecallcodecall_110_oogm_after.py::test_static_callcodecallcodecall_110_oogm_after[fork_Cancun-blockchain_test_from_state_test]": {
        "network": "Cancun",
        "genesisBlockHeader": {
            "parentHash": "0x0000000000000000000000000000000000000000000000000000000000000000",
            "uncleHash": "0x1dcc4de8dec75d7aab85b567b6ccd41ad312451b948a7413f0a142fd40d49347",
            "coinbase": "0x0000000000000000000000000000000000000000",
            "stateRoot": "0xc56b359d5d3d533b898dc7305fb3a8c0d57a84aeb063cd67d70724770a3d09c0",
            "transactionsTrie": "0x56e81f171bcc55a6ff8345e692c0f86e5b48e01b996cadc001622fb5e363b421",
            "receiptTrie": "0x56e81f171bcc55a6ff8345e692c0f86e5b48e01b996cadc001622fb5e363b421",
            "bloom": "0x00000000000000000000000000000000000000000000000000000000000000000000000000000000000000000000000000000000000000000000000000000000000000000000000000000000000000000000000000000000000000000000000000000000000000000000000000000000000000000000000000000000000000000000000000000000000000000000000000000000000000000000000000000000000000000000000000000000000000000000000000000000000000000000000000000000000000000000000000000000000000000000000000000000000000000000000000000000000000000000000000000000000000000000000000000000",
            "difficulty": "0x00",
            "number": "0x00",
            "gasLimit": "0x01c9c380",
            "gasUsed": "0x00",
            "timestamp": "0x00",
            "extraData": "0x00",
            "mixHash": "0x0000000000000000000000000000000000000000000000000000000000000000",
            "nonce": "0x0000000000000000",
            "baseFeePerGas": "0x0b",
            "withdrawalsRoot": "0x56e81f171bcc55a6ff8345e692c0f86e5b48e01b996cadc001622fb5e363b421",
            "blobGasUsed": "0x00",
            "excessBlobGas": "0x00",
            "parentBeaconBlockRoot": "0x0000000000000000000000000000000000000000000000000000000000000000",
            "hash": "0xcc311e603c2f430888ccd6c8b4edbbd638782d2880b9363a946bc09aa213b4a9"
        },
        "pre": {
            "0x000f3df6d732807ef1319fb7b8bb8522d0beac02": {
                "nonce": "0x01",
                "balance": "0x00",
                "code": "0x3373fffffffffffffffffffffffffffffffffffffffe14604d57602036146024575f5ffd5b5f35801560495762001fff810690815414603c575f5ffd5b62001fff01545f5260205ff35b5f5ffd5b62001fff42064281555f359062001fff015500",
                "storage": {}
            },
            "0xe79aee563c83547f229d955ecdcca0f01fed9aa9": {
                "nonce": "0x00",
                "balance": "0x0de0b6b3a7640000",
                "code": "0x604060006040600073669f2ca35c01ee9379d6003704074ac1eeaa914d61eaf6f4600055600160015500",
                "storage": {}
            },
            "0x669f2ca35c01ee9379d6003704074ac1eeaa914d": {
                "nonce": "0x00",
                "balance": "0x00",
                "code": "0x6040600060406000731bdd0b2b81cb603f436225d2b20054c3d0593de3619c90f4505b61c3506080511015603e5760013b506001608051016080526022565b00",
                "storage": {}
            },
            "0x1bdd0b2b81cb603f436225d2b20054c3d0593de3": {
                "nonce": "0x00",
                "balance": "0x00",
                "code": "0x604060006040600073335c5531b84765a7626e6e76688f18b81be5259c614e34fa00",
                "storage": {}
            },
            "0x335c5531b84765a7626e6e76688f18b81be5259c": {
                "nonce": "0x00",
                "balance": "0x00",
                "code": "0x600160035200",
                "storage": {}
            },
            "0xebaf50debf10e08302fe4280c32df010463ca297": {
                "nonce": "0x00",
                "balance": "0x0de0b6b3a7640000",
                "code": "0x",
                "storage": {}
            }
        },
        "postState": {
            "0x000f3df6d732807ef1319fb7b8bb8522d0beac02": {
                "nonce": "0x01",
                "balance": "0x00",
                "code": "0x3373fffffffffffffffffffffffffffffffffffffffe14604d57602036146024575f5ffd5b5f35801560495762001fff810690815414603c575f5ffd5b62001fff01545f5260205ff35b5f5ffd5b62001fff42064281555f359062001fff015500",
                "storage": {
                    "0x03e8": "0x03e8"
                }
            },
            "0xe79aee563c83547f229d955ecdcca0f01fed9aa9": {
                "nonce": "0x00",
                "balance": "0x0de0b6b3a7640000",
                "code": "0x604060006040600073669f2ca35c01ee9379d6003704074ac1eeaa914d61eaf6f4600055600160015500",
                "storage": {
                    "0x01": "0x01"
                }
            },
            "0x669f2ca35c01ee9379d6003704074ac1eeaa914d": {
                "nonce": "0x00",
                "balance": "0x00",
                "code": "0x6040600060406000731bdd0b2b81cb603f436225d2b20054c3d0593de3619c90f4505b61c3506080511015603e5760013b506001608051016080526022565b00",
                "storage": {}
            },
            "0x1bdd0b2b81cb603f436225d2b20054c3d0593de3": {
                "nonce": "0x00",
                "balance": "0x00",
                "code": "0x604060006040600073335c5531b84765a7626e6e76688f18b81be5259c614e34fa00",
                "storage": {}
            },
            "0x335c5531b84765a7626e6e76688f18b81be5259c": {
                "nonce": "0x00",
                "balance": "0x00",
                "code": "0x600160035200",
                "storage": {}
            },
            "0xebaf50debf10e08302fe4280c32df010463ca297": {
                "nonce": "0x01",
                "balance": "0x0de0b6b3a7538202",
                "code": "0x",
                "storage": {}
            }
        },
        "lastblockhash": "0xab7152c8405d40b65f216cb92bd061b38351feac5ab88230fca8cdc9f9b910d6",
        "config": {
            "network": "Cancun",
            "chainid": "0x01",
            "blobSchedule": {
                "Cancun": {
                    "target": "0x03",
                    "max": "0x06",
                    "baseFeeUpdateFraction": "0x32f0ed"
                }
            }
        },
        "genesisRLP": "0xf9023cf90236a00000000000000000000000000000000000000000000000000000000000000000a01dcc4de8dec75d7aab85b567b6ccd41ad312451b948a7413f0a142fd40d49347940000000000000000000000000000000000000000a0c56b359d5d3d533b898dc7305fb3a8c0d57a84aeb063cd67d70724770a3d09c0a056e81f171bcc55a6ff8345e692c0f86e5b48e01b996cadc001622fb5e363b421a056e81f171bcc55a6ff8345e692c0f86e5b48e01b996cadc001622fb5e363b421b901000000000000000000000000000000000000000000000000000000000000000000000000000000000000000000000000000000000000000000000000000000000000000000000000000000000000000000000000000000000000000000000000000000000000000000000000000000000000000000000000000000000000000000000000000000000000000000000000000000000000000000000000000000000000000000000000000000000000000000000000000000000000000000000000000000000000000000000000000000000000000000000000000000000000000000000000000000000000000000000000000000000000000000000000000000000080808401c9c380808000a000000000000000000000000000000000000000000000000000000000000000008800000000000000000ba056e81f171bcc55a6ff8345e692c0f86e5b48e01b996cadc001622fb5e363b4218080a00000000000000000000000000000000000000000000000000000000000000000c0c0c0",
        "blocks": [
            {
                "blockHeader": {
                    "parentHash": "0xcc311e603c2f430888ccd6c8b4edbbd638782d2880b9363a946bc09aa213b4a9",
                    "uncleHash": "0x1dcc4de8dec75d7aab85b567b6ccd41ad312451b948a7413f0a142fd40d49347",
                    "coinbase": "0x2adc25665018aa1fe0e6bc666dac8fc2697ff9ba",
                    "stateRoot": "0xb518102097c85c129785cc84462b1912b525fe11da9124db463bfb5a92ccb9a4",
                    "transactionsTrie": "0x68b60648e1d4402d5748f47b914df8041aae55e764c755afcc1738fa6918abb7",
                    "receiptTrie": "0x5c249c0393f5158a09d5e32693e7364a0f640d0ead91576687b9d21f121faf26",
                    "bloom": "0x00000000000000000000000000000000000000000000000000000000000000000000000000000000000000000000000000000000000000000000000000000000000000000000000000000000000000000000000000000000000000000000000000000000000000000000000000000000000000000000000000000000000000000000000000000000000000000000000000000000000000000000000000000000000000000000000000000000000000000000000000000000000000000000000000000000000000000000000000000000000000000000000000000000000000000000000000000000000000000000000000000000000000000000000000000000",
                    "difficulty": "0x00",
                    "number": "0x01",
                    "gasLimit": "0x01c9c380",
                    "gasUsed": "0x01a633",
                    "timestamp": "0x03e8",
                    "extraData": "0x00",
                    "mixHash": "0x0000000000000000000000000000000000000000000000000000000000020000",
                    "nonce": "0x0000000000000000",
                    "baseFeePerGas": "0x0a",
                    "withdrawalsRoot": "0x56e81f171bcc55a6ff8345e692c0f86e5b48e01b996cadc001622fb5e363b421",
                    "blobGasUsed": "0x00",
                    "excessBlobGas": "0x00",
                    "parentBeaconBlockRoot": "0x0000000000000000000000000000000000000000000000000000000000000000",
                    "hash": "0xab7152c8405d40b65f216cb92bd061b38351feac5ab88230fca8cdc9f9b910d6"
                },
                "transactions": [
                    {
                        "type": "0x00",
                        "chainId": "0x01",
                        "nonce": "0x00",
                        "gasPrice": "0x0a",
                        "gasLimit": "0x029fe0",
                        "to": "0xe79aee563c83547f229d955ecdcca0f01fed9aa9",
                        "value": "0x00",
                        "data": "0x",
                        "v": "0x26",
                        "r": "0x299522242ae9a552cbdeff79396e7a5502d394c016f74f980bee77ae71a85b88",
                        "s": "0x19e1b21aca0a94e4d1c8ac2b6f1d12db9c2a433cbb7826d71f9c2163f404638e",
                        "sender": "0xebaf50debf10e08302fe4280c32df010463ca297"
                    }
                ],
                "uncleHeaders": [],
                "withdrawals": [],
                "receipts": [
                    {
                        "transactionHash": "0x18b9d92881394097b8fee0c81b98e78a475daff95dba32ec2191614ed3f5d3cc",
                        "type": "0x00",
                        "cumulativeGasUsed": "0x01a633",
                        "bloom": "0x00000000000000000000000000000000000000000000000000000000000000000000000000000000000000000000000000000000000000000000000000000000000000000000000000000000000000000000000000000000000000000000000000000000000000000000000000000000000000000000000000000000000000000000000000000000000000000000000000000000000000000000000000000000000000000000000000000000000000000000000000000000000000000000000000000000000000000000000000000000000000000000000000000000000000000000000000000000000000000000000000000000000000000000000000000000",
                        "logs": [],
                        "status": true,
                        "rlp": "0xf90109018301a633b9010000000000000000000000000000000000000000000000000000000000000000000000000000000000000000000000000000000000000000000000000000000000000000000000000000000000000000000000000000000000000000000000000000000000000000000000000000000000000000000000000000000000000000000000000000000000000000000000000000000000000000000000000000000000000000000000000000000000000000000000000000000000000000000000000000000000000000000000000000000000000000000000000000000000000000000000000000000000000000000000000000000000000000000000000000000000c0"
                    }
                ],
                "rlp": "0xf902a4f9023ba0cc311e603c2f430888ccd6c8b4edbbd638782d2880b9363a946bc09aa213b4a9a01dcc4de8dec75d7aab85b567b6ccd41ad312451b948a7413f0a142fd40d49347942adc25665018aa1fe0e6bc666dac8fc2697ff9baa0b518102097c85c129785cc84462b1912b525fe11da9124db463bfb5a92ccb9a4a068b60648e1d4402d5748f47b914df8041aae55e764c755afcc1738fa6918abb7a05c249c0393f5158a09d5e32693e7364a0f640d0ead91576687b9d21f121faf26b901000000000000000000000000000000000000000000000000000000000000000000000000000000000000000000000000000000000000000000000000000000000000000000000000000000000000000000000000000000000000000000000000000000000000000000000000000000000000000000000000000000000000000000000000000000000000000000000000000000000000000000000000000000000000000000000000000000000000000000000000000000000000000000000000000000000000000000000000000000000000000000000000000000000000000000000000000000000000000000000000000000000000000000000000000000000080018401c9c3808301a6338203e800a000000000000000000000000000000000000000000000000000000000000200008800000000000000000aa056e81f171bcc55a6ff8345e692c0f86e5b48e01b996cadc001622fb5e363b4218080a00000000000000000000000000000000000000000000000000000000000000000f862f860800a83029fe094e79aee563c83547f229d955ecdcca0f01fed9aa9808026a0299522242ae9a552cbdeff79396e7a5502d394c016f74f980bee77ae71a85b88a019e1b21aca0a94e4d1c8ac2b6f1d12db9c2a433cbb7826d71f9c2163f404638ec0c0",
                "blocknumber": "1"
            }
        ],
        "sealEngine": "NoProof",
        "_info": {
            "hash": "0x4db1a22ef4c3a919d38b8c6d44ab83d1da5cb90060ddf5580e36de21f0f8b77d",
            "fixture-format": "blockchain_test",
            "comment": "`execution-specs` generated test",
            "filling-transition-tool": "2.19.0",
            "description": "Test_static_callcodecallcodecall_110_oogm_after.",
            "url": "https://github.com/ethereum/execution-specs/blob/tests-bal@v5.7.0/tests/ported_static/stStaticCall/test_static_callcodecallcodecall_110_oogm_after.py#L25",
            "metadata": {
                "opcode_count": {}
            }
        }
    }
}