{
    "tests/ported_static/stShift/test_sar_2_256_minus_1_1.py::test_sar_2_256_minus_1_1[fork_Cancun-blockchain_test_from_state_test]": {
        "network": "Cancun",
        "genesisBlockHeader": {
            "parentHash": "0x0000000000000000000000000000000000000000000000000000000000000000",
            "uncleHash": "0x1dcc4de8dec75d7aab85b567b6ccd41ad312451b948a7413f0a142fd40d49347",
            "coinbase": "0x0000000000000000000000000000000000000000",
            "stateRoot": "0xa0d467e2cc1960497aae174b87f7b9ef15ab6f4e6771b9d982dee0844ac8a815",
            "transactionsTrie": "0x56e81f171bcc55a6ff8345e692c0f86e5b48e01b996cadc001622fb5e363b421",
            "receiptTrie": "0x56e81f171bcc55a6ff8345e692c0f86e5b48e01b996cadc001622fb5e363b421",
            "bloom": "0x00000000000000000000000000000000000000000000000000000000000000000000000000000000000000000000000000000000000000000000000000000000000000000000000000000000000000000000000000000000000000000000000000000000000000000000000000000000000000000000000000000000000000000000000000000000000000000000000000000000000000000000000000000000000000000000000000000000000000000000000000000000000000000000000000000000000000000000000000000000000000000000000000000000000000000000000000000000000000000000000000000000000000000000000000000000",
            "difficulty": "0x00",
            "number": "0x00",
            "gasLimit": "0x0f4240",
            "gasUsed": "0x00",
            "timestamp": "0x00",
            "extraData": "0x00",
            "mixHash": "0x0000000000000000000000000000000000000000000000000000000000000000",
            "nonce": "0x0000000000000000",
            "baseFeePerGas": "0x0b",
            "withdrawalsRoot": "0x56e81f171bcc55a6ff8345e692c0f86e5b48e01b996cadc001622fb5e363b421",
            "blobGasUsed": "0x00",
            "excessBlobGas": "0x00",
            "parentBeaconBlockRoot": "0x0000000000000000000000000000000000000000000000000000000000000000",
            "hash": "0xdb784bc517652cf9f9ab7c980aa52c51accfd1fd488fdbc85ad309758b316e70"
        },
        "pre": {
            "0x000f3df6d732807ef1319fb7b8bb8522d0beac02": {
                "nonce": "0x01",
                "balance": "0x00",
                "code": "0x3373fffffffffffffffffffffffffffffffffffffffe14604d57602036146024575f5ffd5b5f35801560495762001fff810690815414603c575f5ffd5b62001fff01545f5260205ff35b5f5ffd5b62001fff42064281555f359062001fff015500",
                "storage": {}
            },
            "0x2e3d0156d2b99a6eacba540c55f423c8f5a33143": {
                "nonce": "0x00",
                "balance": "0x0de0b6b3a7640000",
                "code": "0x",
                "storage": {}
            },
            "0x37a6df595c7ae4907cf940ce2ed9301836379be0": {
                "nonce": "0x00",
                "balance": "0x0de0b6b3a7640000",
                "code": "0x7fffffffffffffffffffffffffffffffffffffffffffffffffffffffffffffffff60011d600055",
                "storage": {
                    "0x00": "0x03"
                }
            }
        },
        "postState": {
            "0x000f3df6d732807ef1319fb7b8bb8522d0beac02": {
                "nonce": "0x01",
                "balance": "0x00",
                "code": "0x3373fffffffffffffffffffffffffffffffffffffffe14604d57602036146024575f5ffd5b5f35801560495762001fff810690815414603c575f5ffd5b62001fff01545f5260205ff35b5f5ffd5b62001fff42064281555f359062001fff015500",
                "storage": {
                    "0x03e8": "0x03e8"
                }
            },
            "0x2e3d0156d2b99a6eacba540c55f423c8f5a33143": {
                "nonce": "0x01",
                "balance": "0x0de0b6b3a75e8148",
                "code": "0x",
                "storage": {}
            },
            "0x37a6df595c7ae4907cf940ce2ed9301836379be0": {
                "nonce": "0x00",
                "balance": "0x0de0b6b3a76586a0",
                "code": "0x7fffffffffffffffffffffffffffffffffffffffffffffffffffffffffffffffff60011d600055",
                "storage": {
                    "0x00": "0xffffffffffffffffffffffffffffffffffffffffffffffffffffffffffffffff"
                }
            }
        },
        "lastblockhash": "0xa623b531ae1a9f1c2e1580752514dc91646fadb1db18657afd9e9bf01510418f",
        "config": {
            "network": "Cancun",
            "chainid": "0x01",
            "blobSchedule": {
                "Cancun": {
                    "target": "0x03",
                    "max": "0x06",
                    "baseFeeUpdateFraction": "0x32f0ed"
                }
            }
        },
        "genesisRLP": "0xf9023bf90235a00000000000000000000000000000000000000000000000000000000000000000a01dcc4de8dec75d7aab85b567b6ccd41ad312451b948a7413f0a142fd40d49347940000000000000000000000000000000000000000a0a0d467e2cc1960497aae174b87f7b9ef15ab6f4e6771b9d982dee0844ac8a815a056e81f171bcc55a6ff8345e692c0f86e5b48e01b996cadc001622fb5e363b421a056e81f171bcc55a6ff8345e692c0f86e5b48e01b996cadc001622fb5e363b421b90100000000000000000000000000000000000000000000000000000000000000000000000000000000000000000000000000000000000000000000000000000000000000000000000000000000000000000000000000000000000000000000000000000000000000000000000000000000000000000000000000000000000000000000000000000000000000000000000000000000000000000000000000000000000000000000000000000000000000000000000000000000000000000000000000000000000000000000000000000000000000000000000000000000000000000000000000000000000000000000000000000000000000000000000000000000008080830f4240808000a000000000000000000000000000000000000000000000000000000000000000008800000000000000000ba056e81f171bcc55a6ff8345e692c0f86e5b48e01b996cadc001622fb5e363b4218080a00000000000000000000000000000000000000000000000000000000000000000c0c0c0",
        "blocks": [
            {
                "blockHeader": {
                    "parentHash": "0xdb784bc517652cf9f9ab7c980aa52c51accfd1fd488fdbc85ad309758b316e70",
                    "uncleHash": "0x1dcc4de8dec75d7aab85b567b6ccd41ad312451b948a7413f0a142fd40d49347",
                    "coinbase": "0x2adc25665018aa1fe0e6bc666dac8fc2697ff9ba",
                    "stateRoot": "0x27e21b10c64f28d9cd4e9cd4b3ef2ef45d47b465d70c62c8b91c2d72547fb708",
                    "transactionsTrie": "0xb04f13d5b817893523a3cac2653a348dc6fe6dd2eafdbf37a02481d64f23daa6",
                    "receiptTrie": "0xf5a4cad211681b78d25e6fde8dea45961dd1d222a43e4d75e3b7733e50889203",
                    "bloom": "0x00000000000000000000000000000000000000000000000000000000000000000000000000000000000000000000000000000000000000000000000000000000000000000000000000000000000000000000000000000000000000000000000000000000000000000000000000000000000000000000000000000000000000000000000000000000000000000000000000000000000000000000000000000000000000000000000000000000000000000000000000000000000000000000000000000000000000000000000000000000000000000000000000000000000000000000000000000000000000000000000000000000000000000000000000000000",
                    "difficulty": "0x00",
                    "number": "0x01",
                    "gasLimit": "0x0f4240",
                    "gasUsed": "0x659c",
                    "timestamp": "0x03e8",
                    "extraData": "0x00",
                    "mixHash": "0x0000000000000000000000000000000000000000000000000000000000020000",
                    "nonce": "0x0000000000000000",
                    "baseFeePerGas": "0x0a",
                    "withdrawalsRoot": "0x56e81f171bcc55a6ff8345e692c0f86e5b48e01b996cadc001622fb5e363b421",
                    "blobGasUsed": "0x00",
                    "excessBlobGas": "0x00",
                    "parentBeaconBlockRoot": "0x0000000000000000000000000000000000000000000000000000000000000000",
                    "hash": "0xa623b531ae1a9f1c2e1580752514dc91646fadb1db18657afd9e9bf01510418f"
                },
                "transactions": [
                    {
                        "type": "0x00",
                        "chainId": "0x01",
                        "nonce": "0x00",
                        "gasPrice": "0x0a",
                        "gasLimit": "0x061a80",
                        "to": "0x37a6df595c7ae4907cf940ce2ed9301836379be0",
                        "value": "0x0186a0",
                        "data": "0x",
                        "v": "0x26",
                        "r": "0x3cac7f58f4d5a7448fa035bc9206971bf20782acfd6dca23350b47b5873f7aea",
                        "s": "0x3f72fbd4540087077f7e8b8c0a14a50ac99b478e7eba33c88d33b09982886b39",
                        "sender": "0x2e3d0156d2b99a6eacba540c55f423c8f5a33143"
                    }
                ],
                "uncleHeaders": [],
                "withdrawals": [],
                "receipts": [
                    {
                        "transactionHash": "0xd3b763c8003db219ecb02c13add3f8f5e5e6096306a21a134f411ad3a00b2ca6",
                        "type": "0x00",
                        "cumulativeGasUsed": "0x659c",
                        "bloom": "0x00000000000000000000000000000000000000000000000000000000000000000000000000000000000000000000000000000000000000000000000000000000000000000000000000000000000000000000000000000000000000000000000000000000000000000000000000000000000000000000000000000000000000000000000000000000000000000000000000000000000000000000000000000000000000000000000000000000000000000000000000000000000000000000000000000000000000000000000000000000000000000000000000000000000000000000000000000000000000000000000000000000000000000000000000000000",
                        "logs": [],
                        "status": true,
                        "rlp": "0xf901080182659cb9010000000000000000000000000000000000000000000000000000000000000000000000000000000000000000000000000000000000000000000000000000000000000000000000000000000000000000000000000000000000000000000000000000000000000000000000000000000000000000000000000000000000000000000000000000000000000000000000000000000000000000000000000000000000000000000000000000000000000000000000000000000000000000000000000000000000000000000000000000000000000000000000000000000000000000000000000000000000000000000000000000000000000000000000000000000000c0"
                    }
                ],
                "rlp": "0xf902a5f90239a0db784bc517652cf9f9ab7c980aa52c51accfd1fd488fdbc85ad309758b316e70a01dcc4de8dec75d7aab85b567b6ccd41ad312451b948a7413f0a142fd40d49347942adc25665018aa1fe0e6bc666dac8fc2697ff9baa027e21b10c64f28d9cd4e9cd4b3ef2ef45d47b465d70c62c8b91c2d72547fb708a0b04f13d5b817893523a3cac2653a348dc6fe6dd2eafdbf37a02481d64f23daa6a0f5a4cad211681b78d25e6fde8dea45961dd1d222a43e4d75e3b7733e50889203b90100000000000000000000000000000000000000000000000000000000000000000000000000000000000000000000000000000000000000000000000000000000000000000000000000000000000000000000000000000000000000000000000000000000000000000000000000000000000000000000000000000000000000000000000000000000000000000000000000000000000000000000000000000000000000000000000000000000000000000000000000000000000000000000000000000000000000000000000000000000000000000000000000000000000000000000000000000000000000000000000000000000000000000000000000000000008001830f424082659c8203e800a000000000000000000000000000000000000000000000000000000000000200008800000000000000000aa056e81f171bcc55a6ff8345e692c0f86e5b48e01b996cadc001622fb5e363b4218080a00000000000000000000000000000000000000000000000000000000000000000f865f863800a83061a809437a6df595c7ae4907cf940ce2ed9301836379be0830186a08026a03cac7f58f4d5a7448fa035bc9206971bf20782acfd6dca23350b47b5873f7aeaa03f72fbd4540087077f7e8b8c0a14a50ac99b478e7eba33c88d33b09982886b39c0c0",
                "blocknumber": "1"
            }
        ],
        "sealEngine": "NoProof",
        "_info": {
            "hash": "0x31163d528bfb3d4660502f3e28cb581f41c7cf4927f69285205c2d449a0be16b",
            "fixture-format": "blockchain_test",
            "comment": "`execution-specs` generated test",
            "filling-transition-tool": "2.19.0",
            "description": "Test_sar_2_256_minus_1_1.",
            "url": "https://github.com/ethereum/execution-specs/blob/tests-snobal-devnet-5@v8037.0.0/tests/ported_static/stShift/test_sar_2_256_minus_1_1.py#L25",
            "metadata": {
                "opcode_count": {}
            }
        }
    }
}