{
    "tests/ported_static/stLogTests/test_log3_caller.py::test_log3_caller[fork_Cancun-blockchain_test_from_state_test]": {
        "network": "Cancun",
        "genesisBlockHeader": {
            "parentHash": "0x0000000000000000000000000000000000000000000000000000000000000000",
            "uncleHash": "0x1dcc4de8dec75d7aab85b567b6ccd41ad312451b948a7413f0a142fd40d49347",
            "coinbase": "0x0000000000000000000000000000000000000000",
            "stateRoot": "0x8f0691abac98f8dadb34ff6a33d5d4f2b2154dc40e6ce36477733de7130e5de2",
            "transactionsTrie": "0x56e81f171bcc55a6ff8345e692c0f86e5b48e01b996cadc001622fb5e363b421",
            "receiptTrie": "0x56e81f171bcc55a6ff8345e692c0f86e5b48e01b996cadc001622fb5e363b421",
            "bloom": "0x00000000000000000000000000000000000000000000000000000000000000000000000000000000000000000000000000000000000000000000000000000000000000000000000000000000000000000000000000000000000000000000000000000000000000000000000000000000000000000000000000000000000000000000000000000000000000000000000000000000000000000000000000000000000000000000000000000000000000000000000000000000000000000000000000000000000000000000000000000000000000000000000000000000000000000000000000000000000000000000000000000000000000000000000000000000",
            "difficulty": "0x00",
            "number": "0x00",
            "gasLimit": "0x0f4240",
            "gasUsed": "0x00",
            "timestamp": "0x00",
            "extraData": "0x00",
            "mixHash": "0x0000000000000000000000000000000000000000000000000000000000000000",
            "nonce": "0x0000000000000000",
            "baseFeePerGas": "0x0b",
            "withdrawalsRoot": "0x56e81f171bcc55a6ff8345e692c0f86e5b48e01b996cadc001622fb5e363b421",
            "blobGasUsed": "0x00",
            "excessBlobGas": "0x00",
            "parentBeaconBlockRoot": "0x0000000000000000000000000000000000000000000000000000000000000000",
            "hash": "0x01d047cda39ea2aa9157d84f8cc8e83ebf6e516d535c5af7f2a90aafc286c235"
        },
        "pre": {
            "0x000f3df6d732807ef1319fb7b8bb8522d0beac02": {
                "nonce": "0x01",
                "balance": "0x00",
                "code": "0x3373fffffffffffffffffffffffffffffffffffffffe14604d57602036146024575f5ffd5b5f35801560495762001fff810690815414603c575f5ffd5b62001fff01545f5260205ff35b5f5ffd5b62001fff42064281555f359062001fff015500",
                "storage": {}
            },
            "0xd66f224cbd2fabb21b17bb53c56118f32f62ebd6": {
                "nonce": "0x00",
                "balance": "0x0de0b6b3a7640000",
                "code": "0x",
                "storage": {}
            },
            "0xa335a218ad99b43f850c3275de366a33330a33c3": {
                "nonce": "0x00",
                "balance": "0x0de0b6b3a7640000",
                "code": "0x60ff600053336000600060206000a300",
                "storage": {}
            },
            "0x6c7096ad6536eabcfc44c2b2dad5763cfc876330": {
                "nonce": "0x00",
                "balance": "0x0de0b6b3a7640000",
                "code": "0x6000600060006000601773a335a218ad99b43f850c3275de366a33330a33c36103e8f160005500",
                "storage": {}
            }
        },
        "postState": {
            "0x000f3df6d732807ef1319fb7b8bb8522d0beac02": {
                "nonce": "0x01",
                "balance": "0x00",
                "code": "0x3373fffffffffffffffffffffffffffffffffffffffe14604d57602036146024575f5ffd5b5f35801560495762001fff810690815414603c575f5ffd5b62001fff01545f5260205ff35b5f5ffd5b62001fff42064281555f359062001fff015500",
                "storage": {
                    "0x03e8": "0x03e8"
                }
            },
            "0xd66f224cbd2fabb21b17bb53c56118f32f62ebd6": {
                "nonce": "0x01",
                "balance": "0x0de0b6b3a75a33f4",
                "code": "0x",
                "storage": {}
            },
            "0xa335a218ad99b43f850c3275de366a33330a33c3": {
                "nonce": "0x00",
                "balance": "0x0de0b6b3a7640017",
                "code": "0x60ff600053336000600060206000a300",
                "storage": {}
            },
            "0x6c7096ad6536eabcfc44c2b2dad5763cfc876330": {
                "nonce": "0x00",
                "balance": "0x0de0b6b3a7658689",
                "code": "0x6000600060006000601773a335a218ad99b43f850c3275de366a33330a33c36103e8f160005500",
                "storage": {
                    "0x00": "0x01"
                }
            }
        },
        "lastblockhash": "0xd4273f7bec8d2373701c4f08ab9e63123271495a3a6f2eedaddf12e70fd7573d",
        "config": {
            "network": "Cancun",
            "chainid": "0x01",
            "blobSchedule": {
                "Cancun": {
                    "target": "0x03",
                    "max": "0x06",
                    "baseFeeUpdateFraction": "0x32f0ed"
                }
            }
        },
        "genesisRLP": "0xf9023bf90235a00000000000000000000000000000000000000000000000000000000000000000a01dcc4de8dec75d7aab85b567b6ccd41ad312451b948a7413f0a142fd40d49347940000000000000000000000000000000000000000a08f0691abac98f8dadb34ff6a33d5d4f2b2154dc40e6ce36477733de7130e5de2a056e81f171bcc55a6ff8345e692c0f86e5b48e01b996cadc001622fb5e363b421a056e81f171bcc55a6ff8345e692c0f86e5b48e01b996cadc001622fb5e363b421b90100000000000000000000000000000000000000000000000000000000000000000000000000000000000000000000000000000000000000000000000000000000000000000000000000000000000000000000000000000000000000000000000000000000000000000000000000000000000000000000000000000000000000000000000000000000000000000000000000000000000000000000000000000000000000000000000000000000000000000000000000000000000000000000000000000000000000000000000000000000000000000000000000000000000000000000000000000000000000000000000000000000000000000000000000000000008080830f4240808000a000000000000000000000000000000000000000000000000000000000000000008800000000000000000ba056e81f171bcc55a6ff8345e692c0f86e5b48e01b996cadc001622fb5e363b4218080a00000000000000000000000000000000000000000000000000000000000000000c0c0c0",
        "blocks": [
            {
                "blockHeader": {
                    "parentHash": "0x01d047cda39ea2aa9157d84f8cc8e83ebf6e516d535c5af7f2a90aafc286c235",
                    "uncleHash": "0x1dcc4de8dec75d7aab85b567b6ccd41ad312451b948a7413f0a142fd40d49347",
                    "coinbase": "0x2adc25665018aa1fe0e6bc666dac8fc2697ff9ba",
                    "stateRoot": "0xcd9ae58cb0e8f5d319ebccc0de32f4da87fd91df0dd1ef7756549eebb727a04f",
                    "transactionsTrie": "0x37a4b670fc0083d872cac4dcd704db27af6110a1ebbda12c42049f2c83d753c8",
                    "receiptTrie": "0xfeb0959887e1d0a8e57f56d46da3190f67841a911afbb1110a9c86a42f8d9dd2",
                    "bloom": "0x00000000000000000000000000000000000000000000000000000000000000000000000000000000000000000000000000000000000000000000000000000004000000000000000000000000000000000000000000000000000000000000000000000000020000000000000000000800000000000000000000000200000000000000000000000000000000000000000000000000000000000000000000000000004000000000000000000000000000000000000000000000000000000000000000000000000000000000000000000000000000000000000000000000000060000000000000000000000000000000000000000000000000000000004000000008",
                    "difficulty": "0x00",
                    "number": "0x01",
                    "gasLimit": "0x0f4240",
                    "gasUsed": "0xd3be",
                    "timestamp": "0x03e8",
                    "extraData": "0x00",
                    "mixHash": "0x0000000000000000000000000000000000000000000000000000000000020000",
                    "nonce": "0x0000000000000000",
                    "baseFeePerGas": "0x0a",
                    "withdrawalsRoot": "0x56e81f171bcc55a6ff8345e692c0f86e5b48e01b996cadc001622fb5e363b421",
                    "blobGasUsed": "0x00",
                    "excessBlobGas": "0x00",
                    "parentBeaconBlockRoot": "0x0000000000000000000000000000000000000000000000000000000000000000",
                    "hash": "0xd4273f7bec8d2373701c4f08ab9e63123271495a3a6f2eedaddf12e70fd7573d"
                },
                "transactions": [
                    {
                        "type": "0x00",
                        "chainId": "0x01",
                        "nonce": "0x00",
                        "gasPrice": "0x0a",
                        "gasLimit": "0x033450",
                        "to": "0x6c7096ad6536eabcfc44c2b2dad5763cfc876330",
                        "value": "0x0186a0",
                        "data": "0x",
                        "v": "0x26",
                        "r": "0x10b9761dc9b91f3e8788e878dfbde502134da3bc58527775f04b1f8d2aef5837",
                        "s": "0x1bb3ce156e17bc8eac7cb35d658e5732e32d3ee41903923ddd4a061422f55f99",
                        "sender": "0xd66f224cbd2fabb21b17bb53c56118f32f62ebd6"
                    }
                ],
                "uncleHeaders": [],
                "withdrawals": [],
                "receipts": [
                    {
                        "transactionHash": "0x0d6eedbdea7c7f765933c9d375f80e89e3c65d8c42950b2745d15b6cdd2a944e",
                        "type": "0x00",
                        "cumulativeGasUsed": "0xd3be",
                        "bloom": "0x00000000000000000000000000000000000000000000000000000000000000000000000000000000000000000000000000000000000000000000000000000004000000000000000000000000000000000000000000000000000000000000000000000000020000000000000000000800000000000000000000000200000000000000000000000000000000000000000000000000000000000000000000000000004000000000000000000000000000000000000000000000000000000000000000000000000000000000000000000000000000000000000000000000000060000000000000000000000000000000000000000000000000000000004000000008",
                        "logs": [
                            {
                                "address": "0xa335a218ad99b43f850c3275de366a33330a33c3",
                                "topics": [
                                    "0x0000000000000000000000000000000000000000000000000000000000000000",
                                    "0x0000000000000000000000000000000000000000000000000000000000000000",
                                    "0x0000000000000000000000006c7096ad6536eabcfc44c2b2dad5763cfc876330"
                                ],
                                "data": "0xff00000000000000000000000000000000000000000000000000000000000000"
                            }
                        ],
                        "status": true,
                        "rlp": "0xf901a60182d3beb9010000000000000000000000000000000000000000000000000000000000000000000000000000000000000000000000000000000000000000000000000000000004000000000000000000000000000000000000000000000000000000000000000000000000020000000000000000000800000000000000000000000200000000000000000000000000000000000000000000000000000000000000000000000000004000000000000000000000000000000000000000000000000000000000000000000000000000000000000000000000000000000000000000000000000060000000000000000000000000000000000000000000000000000000004000000008f89df89b94a335a218ad99b43f850c3275de366a33330a33c3f863a00000000000000000000000000000000000000000000000000000000000000000a00000000000000000000000000000000000000000000000000000000000000000a00000000000000000000000006c7096ad6536eabcfc44c2b2dad5763cfc876330a0ff00000000000000000000000000000000000000000000000000000000000000"
                    }
                ],
                "rlp": "0xf902a5f90239a001d047cda39ea2aa9157d84f8cc8e83ebf6e516d535c5af7f2a90aafc286c235a01dcc4de8dec75d7aab85b567b6ccd41ad312451b948a7413f0a142fd40d49347942adc25665018aa1fe0e6bc666dac8fc2697ff9baa0cd9ae58cb0e8f5d319ebccc0de32f4da87fd91df0dd1ef7756549eebb727a04fa037a4b670fc0083d872cac4dcd704db27af6110a1ebbda12c42049f2c83d753c8a0feb0959887e1d0a8e57f56d46da3190f67841a911afbb1110a9c86a42f8d9dd2b90100000000000000000000000000000000000000000000000000000000000000000000000000000000000000000000000000000000000000000000000000000000040000000000000000000000000000000000000000000000000000000000000000000000000200000000000000000008000000000000000000000002000000000000000000000000000000000000000000000000000000000000000000000000000040000000000000000000000000000000000000000000000000000000000000000000000000000000000000000000000000000000000000000000000000600000000000000000000000000000000000000000000000000000000040000000088001830f424082d3be8203e800a000000000000000000000000000000000000000000000000000000000000200008800000000000000000aa056e81f171bcc55a6ff8345e692c0f86e5b48e01b996cadc001622fb5e363b4218080a00000000000000000000000000000000000000000000000000000000000000000f865f863800a83033450946c7096ad6536eabcfc44c2b2dad5763cfc876330830186a08026a010b9761dc9b91f3e8788e878dfbde502134da3bc58527775f04b1f8d2aef5837a01bb3ce156e17bc8eac7cb35d658e5732e32d3ee41903923ddd4a061422f55f99c0c0",
                "blocknumber": "1"
            }
        ],
        "sealEngine": "NoProof",
        "_info": {
            "hash": "0xce142db651293ad806b1a83f8ad22eb8ff07c2a3cb28276533995c0ce2a4a168",
            "fixture-format": "blockchain_test",
            "comment": "`execution-specs` generated test",
            "filling-transition-tool": "2.19.0",
            "description": "Test_log3_caller.",
            "url": "https://github.com/ethereum/execution-specs/blob/tests-snobal-devnet-5@v8037.0.0/tests/ported_static/stLogTests/test_log3_caller.py#L24",
            "metadata": {
                "opcode_count": {}
            }
        }
    }
}