{
    "tests/ported_static/stRevertTest/test_revert_in_static_call.py::test_revert_in_static_call[fork_Cancun-blockchain_test_from_state_test]": {
        "network": "Cancun",
        "genesisBlockHeader": {
            "parentHash": "0x0000000000000000000000000000000000000000000000000000000000000000",
            "uncleHash": "0x1dcc4de8dec75d7aab85b567b6ccd41ad312451b948a7413f0a142fd40d49347",
            "coinbase": "0x0000000000000000000000000000000000000000",
            "stateRoot": "0xbdb531401966c240a64994e7affed940613968bf92cb8cc00eb7ef62a153b1e2",
            "transactionsTrie": "0x56e81f171bcc55a6ff8345e692c0f86e5b48e01b996cadc001622fb5e363b421",
            "receiptTrie": "0x56e81f171bcc55a6ff8345e692c0f86e5b48e01b996cadc001622fb5e363b421",
            "bloom": "0x00000000000000000000000000000000000000000000000000000000000000000000000000000000000000000000000000000000000000000000000000000000000000000000000000000000000000000000000000000000000000000000000000000000000000000000000000000000000000000000000000000000000000000000000000000000000000000000000000000000000000000000000000000000000000000000000000000000000000000000000000000000000000000000000000000000000000000000000000000000000000000000000000000000000000000000000000000000000000000000000000000000000000000000000000000000",
            "difficulty": "0x00",
            "number": "0x00",
            "gasLimit": "0x0f4240",
            "gasUsed": "0x00",
            "timestamp": "0x00",
            "extraData": "0x00",
            "mixHash": "0x0000000000000000000000000000000000000000000000000000000000000000",
            "nonce": "0x0000000000000000",
            "baseFeePerGas": "0x0b",
            "withdrawalsRoot": "0x56e81f171bcc55a6ff8345e692c0f86e5b48e01b996cadc001622fb5e363b421",
            "blobGasUsed": "0x00",
            "excessBlobGas": "0x00",
            "parentBeaconBlockRoot": "0x0000000000000000000000000000000000000000000000000000000000000000",
            "hash": "0xb9810b114c9a1d40fcb3c7812d10f9d40f6ebbbcbc3628affaaa42518de140d2"
        },
        "pre": {
            "0x000f3df6d732807ef1319fb7b8bb8522d0beac02": {
                "nonce": "0x01",
                "balance": "0x00",
                "code": "0x3373fffffffffffffffffffffffffffffffffffffffe14604d57602036146024575f5ffd5b5f35801560495762001fff810690815414603c575f5ffd5b62001fff01545f5260205ff35b5f5ffd5b62001fff42064281555f359062001fff015500",
                "storage": {}
            },
            "0x30f7398d20afe518491069c036185caf69d5aae9": {
                "nonce": "0x00",
                "balance": "0x03e8",
                "code": "0x60406000604060007333fcf0576ab8b4527c9426094e2e355a7ffc7e7161c350fa60005500",
                "storage": {}
            },
            "0x33fcf0576ab8b4527c9426094e2e355a7ffc7e71": {
                "nonce": "0x00",
                "balance": "0x00",
                "code": "0x60006000fd00",
                "storage": {}
            },
            "0x7f3f285918d9b5e764174551e10b7539b97bbb27": {
                "nonce": "0x00",
                "balance": "0x05f5e100",
                "code": "0x",
                "storage": {}
            }
        },
        "postState": {
            "0x000f3df6d732807ef1319fb7b8bb8522d0beac02": {
                "nonce": "0x01",
                "balance": "0x00",
                "code": "0x3373fffffffffffffffffffffffffffffffffffffffe14604d57602036146024575f5ffd5b5f35801560495762001fff810690815414603c575f5ffd5b62001fff01545f5260205ff35b5f5ffd5b62001fff42064281555f359062001fff015500",
                "storage": {
                    "0x03e8": "0x03e8"
                }
            },
            "0x30f7398d20afe518491069c036185caf69d5aae9": {
                "nonce": "0x00",
                "balance": "0x03e8",
                "code": "0x60406000604060007333fcf0576ab8b4527c9426094e2e355a7ffc7e7161c350fa60005500",
                "storage": {}
            },
            "0x33fcf0576ab8b4527c9426094e2e355a7ffc7e71": {
                "nonce": "0x00",
                "balance": "0x00",
                "code": "0x60006000fd00",
                "storage": {}
            },
            "0x7f3f285918d9b5e764174551e10b7539b97bbb27": {
                "nonce": "0x01",
                "balance": "0x05f1efe6",
                "code": "0x",
                "storage": {}
            }
        },
        "lastblockhash": "0xfd8611af27f9eb5133b42209af8c4b72fb3d0b7162d539cc794683957b8180e6",
        "config": {
            "network": "Cancun",
            "chainid": "0x01",
            "blobSchedule": {
                "Cancun": {
                    "target": "0x03",
                    "max": "0x06",
                    "baseFeeUpdateFraction": "0x32f0ed"
                }
            }
        },
        "genesisRLP": "0xf9023bf90235a00000000000000000000000000000000000000000000000000000000000000000a01dcc4de8dec75d7aab85b567b6ccd41ad312451b948a7413f0a142fd40d49347940000000000000000000000000000000000000000a0bdb531401966c240a64994e7affed940613968bf92cb8cc00eb7ef62a153b1e2a056e81f171bcc55a6ff8345e692c0f86e5b48e01b996cadc001622fb5e363b421a056e81f171bcc55a6ff8345e692c0f86e5b48e01b996cadc001622fb5e363b421b90100000000000000000000000000000000000000000000000000000000000000000000000000000000000000000000000000000000000000000000000000000000000000000000000000000000000000000000000000000000000000000000000000000000000000000000000000000000000000000000000000000000000000000000000000000000000000000000000000000000000000000000000000000000000000000000000000000000000000000000000000000000000000000000000000000000000000000000000000000000000000000000000000000000000000000000000000000000000000000000000000000000000000000000000000000000008080830f4240808000a000000000000000000000000000000000000000000000000000000000000000008800000000000000000ba056e81f171bcc55a6ff8345e692c0f86e5b48e01b996cadc001622fb5e363b4218080a00000000000000000000000000000000000000000000000000000000000000000c0c0c0",
        "blocks": [
            {
                "blockHeader": {
                    "parentHash": "0xb9810b114c9a1d40fcb3c7812d10f9d40f6ebbbcbc3628affaaa42518de140d2",
                    "uncleHash": "0x1dcc4de8dec75d7aab85b567b6ccd41ad312451b948a7413f0a142fd40d49347",
                    "coinbase": "0x2adc25665018aa1fe0e6bc666dac8fc2697ff9ba",
                    "stateRoot": "0xfcb204571befbc29f48d99f580518d7a4bfc63c2145730cb755b0f2f6f6b7749",
                    "transactionsTrie": "0xb55178c909fdfb68f5dfb33cedbfd4450030383b3730882a94ae8bb9e7a1f054",
                    "receiptTrie": "0xf4113b5275965acfef19302a4e3c829c7e352847e6af2c6a46f4bf6fb28b06e5",
                    "bloom": "0x00000000000000000000000000000000000000000000000000000000000000000000000000000000000000000000000000000000000000000000000000000000000000000000000000000000000000000000000000000000000000000000000000000000000000000000000000000000000000000000000000000000000000000000000000000000000000000000000000000000000000000000000000000000000000000000000000000000000000000000000000000000000000000000000000000000000000000000000000000000000000000000000000000000000000000000000000000000000000000000000000000000000000000000000000000000",
                    "difficulty": "0x00",
                    "number": "0x01",
                    "gasLimit": "0x0f4240",
                    "gasUsed": "0x64e9",
                    "timestamp": "0x03e8",
                    "extraData": "0x00",
                    "mixHash": "0x0000000000000000000000000000000000000000000000000000000000020000",
                    "nonce": "0x0000000000000000",
                    "baseFeePerGas": "0x0a",
                    "withdrawalsRoot": "0x56e81f171bcc55a6ff8345e692c0f86e5b48e01b996cadc001622fb5e363b421",
                    "blobGasUsed": "0x00",
                    "excessBlobGas": "0x00",
                    "parentBeaconBlockRoot": "0x0000000000000000000000000000000000000000000000000000000000000000",
                    "hash": "0xfd8611af27f9eb5133b42209af8c4b72fb3d0b7162d539cc794683957b8180e6"
                },
                "transactions": [
                    {
                        "type": "0x00",
                        "chainId": "0x01",
                        "nonce": "0x00",
                        "gasPrice": "0x0a",
                        "gasLimit": "0x019a54",
                        "to": "0x30f7398d20afe518491069c036185caf69d5aae9",
                        "value": "0x00",
                        "data": "0x",
                        "v": "0x26",
                        "r": "0x8ce7ce17903b24ff5cc772ce90452e0aa6e9a56e900abf3996b98e7b90e9b38c",
                        "s": "0x64a5facbc5ebda28a7e8bc44914fd27240ec61756782c3723bf643840241f90d",
                        "sender": "0x7f3f285918d9b5e764174551e10b7539b97bbb27"
                    }
                ],
                "uncleHeaders": [],
                "withdrawals": [],
                "receipts": [
                    {
                        "transactionHash": "0x34b248c12b1904afe209e2c49a723a44a1408b2c5ed54b054cf2b7ea37e5915f",
                        "type": "0x00",
                        "cumulativeGasUsed": "0x64e9",
                        "bloom": "0x00000000000000000000000000000000000000000000000000000000000000000000000000000000000000000000000000000000000000000000000000000000000000000000000000000000000000000000000000000000000000000000000000000000000000000000000000000000000000000000000000000000000000000000000000000000000000000000000000000000000000000000000000000000000000000000000000000000000000000000000000000000000000000000000000000000000000000000000000000000000000000000000000000000000000000000000000000000000000000000000000000000000000000000000000000000",
                        "logs": [],
                        "status": true,
                        "rlp": "0xf90108018264e9b9010000000000000000000000000000000000000000000000000000000000000000000000000000000000000000000000000000000000000000000000000000000000000000000000000000000000000000000000000000000000000000000000000000000000000000000000000000000000000000000000000000000000000000000000000000000000000000000000000000000000000000000000000000000000000000000000000000000000000000000000000000000000000000000000000000000000000000000000000000000000000000000000000000000000000000000000000000000000000000000000000000000000000000000000000000000000c0"
                    }
                ],
                "rlp": "0xf902a2f90239a0b9810b114c9a1d40fcb3c7812d10f9d40f6ebbbcbc3628affaaa42518de140d2a01dcc4de8dec75d7aab85b567b6ccd41ad312451b948a7413f0a142fd40d49347942adc25665018aa1fe0e6bc666dac8fc2697ff9baa0fcb204571befbc29f48d99f580518d7a4bfc63c2145730cb755b0f2f6f6b7749a0b55178c909fdfb68f5dfb33cedbfd4450030383b3730882a94ae8bb9e7a1f054a0f4113b5275965acfef19302a4e3c829c7e352847e6af2c6a46f4bf6fb28b06e5b90100000000000000000000000000000000000000000000000000000000000000000000000000000000000000000000000000000000000000000000000000000000000000000000000000000000000000000000000000000000000000000000000000000000000000000000000000000000000000000000000000000000000000000000000000000000000000000000000000000000000000000000000000000000000000000000000000000000000000000000000000000000000000000000000000000000000000000000000000000000000000000000000000000000000000000000000000000000000000000000000000000000000000000000000000000000008001830f42408264e98203e800a000000000000000000000000000000000000000000000000000000000000200008800000000000000000aa056e81f171bcc55a6ff8345e692c0f86e5b48e01b996cadc001622fb5e363b4218080a00000000000000000000000000000000000000000000000000000000000000000f862f860800a83019a549430f7398d20afe518491069c036185caf69d5aae9808026a08ce7ce17903b24ff5cc772ce90452e0aa6e9a56e900abf3996b98e7b90e9b38ca064a5facbc5ebda28a7e8bc44914fd27240ec61756782c3723bf643840241f90dc0c0",
                "blocknumber": "1"
            }
        ],
        "sealEngine": "NoProof",
        "_info": {
            "hash": "0xfd68ec2cadc9caa08f7145de28081e979a6edf7f8bbe8d78d0926d1723226fd7",
            "fixture-format": "blockchain_test",
            "comment": "`execution-specs` generated test",
            "filling-transition-tool": "2.19.0",
            "description": "Test_revert_in_static_call.",
            "url": "https://github.com/ethereum/execution-specs/blob/tests-bal@v5.6.0/tests/ported_static/stRevertTest/test_revert_in_static_call.py#L25",
            "metadata": {
                "opcode_count": {}
            }
        }
    }
}