{
    "tests/ported_static/stStaticCall/test_static_call_recursive_bomb_pre_call.py::test_static_call_recursive_bomb_pre_call[fork_Cancun-blockchain_test_from_state_test]": {
        "network": "Cancun",
        "genesisBlockHeader": {
            "parentHash": "0x0000000000000000000000000000000000000000000000000000000000000000",
            "uncleHash": "0x1dcc4de8dec75d7aab85b567b6ccd41ad312451b948a7413f0a142fd40d49347",
            "coinbase": "0x0000000000000000000000000000000000000000",
            "stateRoot": "0xb5782c740013f82cc9550a2439a1960673707f1bfac04a560b9f788106a20622",
            "transactionsTrie": "0x56e81f171bcc55a6ff8345e692c0f86e5b48e01b996cadc001622fb5e363b421",
            "receiptTrie": "0x56e81f171bcc55a6ff8345e692c0f86e5b48e01b996cadc001622fb5e363b421",
            "bloom": "0x00000000000000000000000000000000000000000000000000000000000000000000000000000000000000000000000000000000000000000000000000000000000000000000000000000000000000000000000000000000000000000000000000000000000000000000000000000000000000000000000000000000000000000000000000000000000000000000000000000000000000000000000000000000000000000000000000000000000000000000000000000000000000000000000000000000000000000000000000000000000000000000000000000000000000000000000000000000000000000000000000000000000000000000000000000000",
            "difficulty": "0x00",
            "number": "0x00",
            "gasLimit": "0x7fffffffffffffff",
            "gasUsed": "0x00",
            "timestamp": "0x00",
            "extraData": "0x00",
            "mixHash": "0x0000000000000000000000000000000000000000000000000000000000000000",
            "nonce": "0x0000000000000000",
            "baseFeePerGas": "0x0b",
            "withdrawalsRoot": "0x56e81f171bcc55a6ff8345e692c0f86e5b48e01b996cadc001622fb5e363b421",
            "blobGasUsed": "0x00",
            "excessBlobGas": "0x00",
            "parentBeaconBlockRoot": "0x0000000000000000000000000000000000000000000000000000000000000000",
            "hash": "0xcc55f381647788fe93e3de3e8798c68807566a12358fbce3979bfaa46b2da719"
        },
        "pre": {
            "0x000f3df6d732807ef1319fb7b8bb8522d0beac02": {
                "nonce": "0x01",
                "balance": "0x00",
                "code": "0x3373fffffffffffffffffffffffffffffffffffffffe14604d57602036146024575f5ffd5b5f35801560495762001fff810690815414603c575f5ffd5b62001fff01545f5260205ff35b5f5ffd5b62001fff42064281555f359062001fff015500",
                "storage": {}
            },
            "0x43bd0534d01632772d2b631a761b77a00a265797": {
                "nonce": "0x00",
                "balance": "0x0fffffffffffffffffffffffffffffff",
                "code": "0x",
                "storage": {}
            },
            "0x6a441a35b94353a66ffd7fd1e54550acecb81aaf": {
                "nonce": "0x00",
                "balance": "0x0fffffffffffffffffffffffffffffff",
                "code": "0x600060006000600073bad304eb96065b2a98b57a48a06ae28d285a71b5620186a0fa5060006000600060007372e480206054168cfa7d5c6a1bd8c3ffe26a4d826707fffffffffffffff4600055600160015500",
                "storage": {}
            },
            "0x72e480206054168cfa7d5c6a1bd8c3ffe26a4d82": {
                "nonce": "0x00",
                "balance": "0x0de0b6b3a7640000",
                "code": "0x60016000510160005260006000600060007372e480206054168cfa7d5c6a1bd8c3ffe26a4d8262036b005a03fa00",
                "storage": {}
            }
        },
        "postState": {
            "0x000f3df6d732807ef1319fb7b8bb8522d0beac02": {
                "nonce": "0x01",
                "balance": "0x00",
                "code": "0x3373fffffffffffffffffffffffffffffffffffffffe14604d57602036146024575f5ffd5b5f35801560495762001fff810690815414603c575f5ffd5b62001fff01545f5260205ff35b5f5ffd5b62001fff42064281555f359062001fff015500",
                "storage": {
                    "0x03e8": "0x03e8"
                }
            },
            "0x43bd0534d01632772d2b631a761b77a00a265797": {
                "nonce": "0x01",
                "balance": "0x0fffffffffffffffffffffffffdec029",
                "code": "0x",
                "storage": {}
            },
            "0x6a441a35b94353a66ffd7fd1e54550acecb81aaf": {
                "nonce": "0x00",
                "balance": "0x0fffffffffffffffffffffffffffffff",
                "code": "0x600060006000600073bad304eb96065b2a98b57a48a06ae28d285a71b5620186a0fa5060006000600060007372e480206054168cfa7d5c6a1bd8c3ffe26a4d826707fffffffffffffff4600055600160015500",
                "storage": {
                    "0x00": "0x01",
                    "0x01": "0x01"
                }
            },
            "0x72e480206054168cfa7d5c6a1bd8c3ffe26a4d82": {
                "nonce": "0x00",
                "balance": "0x0de0b6b3a7640000",
                "code": "0x60016000510160005260006000600060007372e480206054168cfa7d5c6a1bd8c3ffe26a4d8262036b005a03fa00",
                "storage": {}
            }
        },
        "lastblockhash": "0xd010a084272fe495d5a744a2d76c5cafdff50005abb3f0c9daa70ee648591159",
        "config": {
            "network": "Cancun",
            "chainid": "0x01",
            "blobSchedule": {
                "Cancun": {
                    "target": "0x03",
                    "max": "0x06",
                    "baseFeeUpdateFraction": "0x32f0ed"
                }
            }
        },
        "genesisRLP": "0xf90240f9023aa00000000000000000000000000000000000000000000000000000000000000000a01dcc4de8dec75d7aab85b567b6ccd41ad312451b948a7413f0a142fd40d49347940000000000000000000000000000000000000000a0b5782c740013f82cc9550a2439a1960673707f1bfac04a560b9f788106a20622a056e81f171bcc55a6ff8345e692c0f86e5b48e01b996cadc001622fb5e363b421a056e81f171bcc55a6ff8345e692c0f86e5b48e01b996cadc001622fb5e363b421b90100000000000000000000000000000000000000000000000000000000000000000000000000000000000000000000000000000000000000000000000000000000000000000000000000000000000000000000000000000000000000000000000000000000000000000000000000000000000000000000000000000000000000000000000000000000000000000000000000000000000000000000000000000000000000000000000000000000000000000000000000000000000000000000000000000000000000000000000000000000000000000000000000000000000000000000000000000000000000000000000000000000000000000000000000000000008080887fffffffffffffff808000a000000000000000000000000000000000000000000000000000000000000000008800000000000000000ba056e81f171bcc55a6ff8345e692c0f86e5b48e01b996cadc001622fb5e363b4218080a00000000000000000000000000000000000000000000000000000000000000000c0c0c0",
        "blocks": [
            {
                "blockHeader": {
                    "parentHash": "0xcc55f381647788fe93e3de3e8798c68807566a12358fbce3979bfaa46b2da719",
                    "uncleHash": "0x1dcc4de8dec75d7aab85b567b6ccd41ad312451b948a7413f0a142fd40d49347",
                    "coinbase": "0x2adc25665018aa1fe0e6bc666dac8fc2697ff9ba",
                    "stateRoot": "0x98b1842f48c642ffac8d63533f34dab0ffa815be407fdd0dc77b64cb21566962",
                    "transactionsTrie": "0x8967c718e041a1f59700ef122af69d614814edf28b9a99b92b1787125a73ac2f",
                    "receiptTrie": "0x69a3cbf6e38e41b0bfd47e0a1631ba9775a5798039963ebd150c726be0442c2e",
                    "bloom": "0x00000000000000000000000000000000000000000000000000000000000000000000000000000000000000000000000000000000000000000000000000000000000000000000000000000000000000000000000000000000000000000000000000000000000000000000000000000000000000000000000000000000000000000000000000000000000000000000000000000000000000000000000000000000000000000000000000000000000000000000000000000000000000000000000000000000000000000000000000000000000000000000000000000000000000000000000000000000000000000000000000000000000000000000000000000000",
                    "difficulty": "0x00",
                    "number": "0x01",
                    "gasLimit": "0x7fffffffffffffff",
                    "gasUsed": "0x03532f",
                    "timestamp": "0x03e8",
                    "extraData": "0x00",
                    "mixHash": "0x0000000000000000000000000000000000000000000000000000000000020000",
                    "nonce": "0x0000000000000000",
                    "baseFeePerGas": "0x0a",
                    "withdrawalsRoot": "0x56e81f171bcc55a6ff8345e692c0f86e5b48e01b996cadc001622fb5e363b421",
                    "blobGasUsed": "0x00",
                    "excessBlobGas": "0x00",
                    "parentBeaconBlockRoot": "0x0000000000000000000000000000000000000000000000000000000000000000",
                    "hash": "0xd010a084272fe495d5a744a2d76c5cafdff50005abb3f0c9daa70ee648591159"
                },
                "transactions": [
                    {
                        "type": "0x00",
                        "chainId": "0x01",
                        "nonce": "0x00",
                        "gasPrice": "0x0a",
                        "gasLimit": "0x7fe0000000000001",
                        "to": "0x6a441a35b94353a66ffd7fd1e54550acecb81aaf",
                        "value": "0x00",
                        "data": "0x",
                        "v": "0x25",
                        "r": "0x6dd926f2658249bd2be2a6c8057aeb01748a956cf884c2abed636c3f6e5ab608",
                        "s": "0x7bbeb2085805ece55b5d1904432b36cdf905f281e48fd96251bd3c626b64ce0c",
                        "sender": "0x43bd0534d01632772d2b631a761b77a00a265797"
                    }
                ],
                "uncleHeaders": [],
                "withdrawals": [],
                "receipts": [
                    {
                        "transactionHash": "0x196cb5d6f698c5a18163ac9de280f9601a2514c5e1f71a5a2c0790ccffe8da10",
                        "type": "0x00",
                        "cumulativeGasUsed": "0x03532f",
                        "bloom": "0x00000000000000000000000000000000000000000000000000000000000000000000000000000000000000000000000000000000000000000000000000000000000000000000000000000000000000000000000000000000000000000000000000000000000000000000000000000000000000000000000000000000000000000000000000000000000000000000000000000000000000000000000000000000000000000000000000000000000000000000000000000000000000000000000000000000000000000000000000000000000000000000000000000000000000000000000000000000000000000000000000000000000000000000000000000000",
                        "logs": [],
                        "status": true,
                        "rlp": "0xf90109018303532fb9010000000000000000000000000000000000000000000000000000000000000000000000000000000000000000000000000000000000000000000000000000000000000000000000000000000000000000000000000000000000000000000000000000000000000000000000000000000000000000000000000000000000000000000000000000000000000000000000000000000000000000000000000000000000000000000000000000000000000000000000000000000000000000000000000000000000000000000000000000000000000000000000000000000000000000000000000000000000000000000000000000000000000000000000000000000000c0"
                    }
                ],
                "rlp": "0xf902adf9023fa0cc55f381647788fe93e3de3e8798c68807566a12358fbce3979bfaa46b2da719a01dcc4de8dec75d7aab85b567b6ccd41ad312451b948a7413f0a142fd40d49347942adc25665018aa1fe0e6bc666dac8fc2697ff9baa098b1842f48c642ffac8d63533f34dab0ffa815be407fdd0dc77b64cb21566962a08967c718e041a1f59700ef122af69d614814edf28b9a99b92b1787125a73ac2fa069a3cbf6e38e41b0bfd47e0a1631ba9775a5798039963ebd150c726be0442c2eb90100000000000000000000000000000000000000000000000000000000000000000000000000000000000000000000000000000000000000000000000000000000000000000000000000000000000000000000000000000000000000000000000000000000000000000000000000000000000000000000000000000000000000000000000000000000000000000000000000000000000000000000000000000000000000000000000000000000000000000000000000000000000000000000000000000000000000000000000000000000000000000000000000000000000000000000000000000000000000000000000000000000000000000000000000000000008001887fffffffffffffff8303532f8203e800a000000000000000000000000000000000000000000000000000000000000200008800000000000000000aa056e81f171bcc55a6ff8345e692c0f86e5b48e01b996cadc001622fb5e363b4218080a00000000000000000000000000000000000000000000000000000000000000000f867f865800a887fe0000000000001946a441a35b94353a66ffd7fd1e54550acecb81aaf808025a06dd926f2658249bd2be2a6c8057aeb01748a956cf884c2abed636c3f6e5ab608a07bbeb2085805ece55b5d1904432b36cdf905f281e48fd96251bd3c626b64ce0cc0c0",
                "blocknumber": "1"
            }
        ],
        "sealEngine": "NoProof",
        "_info": {
            "hash": "0x4ea1d9cacf11609cfc932fa4a2585534f15f4ccb22968c02c5677598f60dfd65",
            "fixture-format": "blockchain_test",
            "comment": "`execution-specs` generated test",
            "filling-transition-tool": "2.19.0",
            "description": "Test_static_call_recursive_bomb_pre_call.",
            "url": "https://github.com/ethereum/execution-specs/blob/tests-snobal-devnet-5@v8037.0.0/tests/ported_static/stStaticCall/test_static_call_recursive_bomb_pre_call.py#L24",
            "metadata": {
                "opcode_count": {}
            }
        }
    }
}