{
    "tests/ported_static/stRefundTest/test_refund_ff.py::test_refund_ff[fork_Cancun-blockchain_test_from_state_test]": {
        "network": "Cancun",
        "genesisBlockHeader": {
            "parentHash": "0x0000000000000000000000000000000000000000000000000000000000000000",
            "uncleHash": "0x1dcc4de8dec75d7aab85b567b6ccd41ad312451b948a7413f0a142fd40d49347",
            "coinbase": "0x0000000000000000000000000000000000000000",
            "stateRoot": "0x0dbbe25ede5f6bc04f07d7a57e813bbbf876552945e5140ad25075af8503b3b6",
            "transactionsTrie": "0x56e81f171bcc55a6ff8345e692c0f86e5b48e01b996cadc001622fb5e363b421",
            "receiptTrie": "0x56e81f171bcc55a6ff8345e692c0f86e5b48e01b996cadc001622fb5e363b421",
            "bloom": "0x00000000000000000000000000000000000000000000000000000000000000000000000000000000000000000000000000000000000000000000000000000000000000000000000000000000000000000000000000000000000000000000000000000000000000000000000000000000000000000000000000000000000000000000000000000000000000000000000000000000000000000000000000000000000000000000000000000000000000000000000000000000000000000000000000000000000000000000000000000000000000000000000000000000000000000000000000000000000000000000000000000000000000000000000000000000",
            "difficulty": "0x00",
            "number": "0x00",
            "gasLimit": "0x01000000",
            "gasUsed": "0x00",
            "timestamp": "0x00",
            "extraData": "0x00",
            "mixHash": "0x0000000000000000000000000000000000000000000000000000000000000000",
            "nonce": "0x0000000000000000",
            "baseFeePerGas": "0x0476",
            "withdrawalsRoot": "0x56e81f171bcc55a6ff8345e692c0f86e5b48e01b996cadc001622fb5e363b421",
            "blobGasUsed": "0x00",
            "excessBlobGas": "0x00",
            "parentBeaconBlockRoot": "0x0000000000000000000000000000000000000000000000000000000000000000",
            "hash": "0xf286ac9f81cad87684f1dab2b2e8e6b64aa9fa7d345cdb14d83aecafdd1639b2"
        },
        "pre": {
            "0x000f3df6d732807ef1319fb7b8bb8522d0beac02": {
                "nonce": "0x01",
                "balance": "0x00",
                "code": "0x3373fffffffffffffffffffffffffffffffffffffffe14604d57602036146024575f5ffd5b5f35801560495762001fff810690815414603c575f5ffd5b62001fff01545f5260205ff35b5f5ffd5b62001fff42064281555f359062001fff015500",
                "storage": {}
            },
            "0x7e979c1bd83e213ff76dea7dc907bf067762e9c6": {
                "nonce": "0x01",
                "balance": "0xe8d6599218",
                "code": "0x",
                "storage": {}
            },
            "0x6193e03a6a148eca29a060ab8e3bd2d4625948c0": {
                "nonce": "0x01",
                "balance": "0x00",
                "code": "0x73c0f6dc9e5836f54caadbf59cc69346c508e1992bff",
                "storage": {}
            }
        },
        "postState": {
            "0x000f3df6d732807ef1319fb7b8bb8522d0beac02": {
                "nonce": "0x01",
                "balance": "0x00",
                "code": "0x3373fffffffffffffffffffffffffffffffffffffffe14604d57602036146024575f5ffd5b5f35801560495762001fff810690815414603c575f5ffd5b62001fff01545f5260205ff35b5f5ffd5b62001fff42064281555f359062001fff015500",
                "storage": {
                    "0x03e8": "0x03e8"
                }
            },
            "0x7e979c1bd83e213ff76dea7dc907bf067762e9c6": {
                "nonce": "0x02",
                "balance": "0xe8d4a51000",
                "code": "0x",
                "storage": {}
            },
            "0x6193e03a6a148eca29a060ab8e3bd2d4625948c0": {
                "nonce": "0x01",
                "balance": "0x00",
                "code": "0x73c0f6dc9e5836f54caadbf59cc69346c508e1992bff",
                "storage": {}
            }
        },
        "lastblockhash": "0x1efa5c8637ecc89ac4392e047be61b273b55ef841ffd5082782ac54341c91440",
        "config": {
            "network": "Cancun",
            "chainid": "0x01",
            "blobSchedule": {
                "Cancun": {
                    "target": "0x03",
                    "max": "0x06",
                    "baseFeeUpdateFraction": "0x32f0ed"
                }
            }
        },
        "genesisRLP": "0xf9023ef90238a00000000000000000000000000000000000000000000000000000000000000000a01dcc4de8dec75d7aab85b567b6ccd41ad312451b948a7413f0a142fd40d49347940000000000000000000000000000000000000000a00dbbe25ede5f6bc04f07d7a57e813bbbf876552945e5140ad25075af8503b3b6a056e81f171bcc55a6ff8345e692c0f86e5b48e01b996cadc001622fb5e363b421a056e81f171bcc55a6ff8345e692c0f86e5b48e01b996cadc001622fb5e363b421b901000000000000000000000000000000000000000000000000000000000000000000000000000000000000000000000000000000000000000000000000000000000000000000000000000000000000000000000000000000000000000000000000000000000000000000000000000000000000000000000000000000000000000000000000000000000000000000000000000000000000000000000000000000000000000000000000000000000000000000000000000000000000000000000000000000000000000000000000000000000000000000000000000000000000000000000000000000000000000000000000000000000000000000000000000000000080808401000000808000a00000000000000000000000000000000000000000000000000000000000000000880000000000000000820476a056e81f171bcc55a6ff8345e692c0f86e5b48e01b996cadc001622fb5e363b4218080a00000000000000000000000000000000000000000000000000000000000000000c0c0c0",
        "blocks": [
            {
                "blockHeader": {
                    "parentHash": "0xf286ac9f81cad87684f1dab2b2e8e6b64aa9fa7d345cdb14d83aecafdd1639b2",
                    "uncleHash": "0x1dcc4de8dec75d7aab85b567b6ccd41ad312451b948a7413f0a142fd40d49347",
                    "coinbase": "0x2adc25665018aa1fe0e6bc666dac8fc2697ff9ba",
                    "stateRoot": "0x6b795d167dffe76bfddcb00debdb9a5b2b77391b6c0f30311e549d6d800f5570",
                    "transactionsTrie": "0x6cc5cec59c9b030c036a59d5dcd63328f35dbf15b872adbe6637732dbcd3533a",
                    "receiptTrie": "0x0d405374eddb510c35a6cfe1b55aac7d217c0152ecab6a6d85075ff6f7c273fe",
                    "bloom": "0x00000000000000000000000000000000000000000000000000000000000000000000000000000000000000000000000000000000000000000000000000000000000000000000000000000000000000000000000000000000000000000000000000000000000000000000000000000000000000000000000000000000000000000000000000000000000000000000000000000000000000000000000000000000000000000000000000000000000000000000000000000000000000000000000000000000000000000000000000000000000000000000000000000000000000000000000000000000000000000000000000000000000000000000000000000000",
                    "difficulty": "0x00",
                    "number": "0x01",
                    "gasLimit": "0x01000000",
                    "gasUsed": "0x6fbf",
                    "timestamp": "0x03e8",
                    "extraData": "0x00",
                    "mixHash": "0x0000000000000000000000000000000000000000000000000000000000020000",
                    "nonce": "0x0000000000000000",
                    "baseFeePerGas": "0x03e8",
                    "withdrawalsRoot": "0x56e81f171bcc55a6ff8345e692c0f86e5b48e01b996cadc001622fb5e363b421",
                    "blobGasUsed": "0x00",
                    "excessBlobGas": "0x00",
                    "parentBeaconBlockRoot": "0x0000000000000000000000000000000000000000000000000000000000000000",
                    "hash": "0x1efa5c8637ecc89ac4392e047be61b273b55ef841ffd5082782ac54341c91440"
                },
                "transactions": [
                    {
                        "type": "0x01",
                        "chainId": "0x01",
                        "nonce": "0x01",
                        "gasPrice": "0x03e8",
                        "gasLimit": "0x27b028",
                        "to": "0x6193e03a6a148eca29a060ab8e3bd2d4625948c0",
                        "value": "0x00",
                        "data": "0x00",
                        "accessList": [],
                        "v": "0x00",
                        "r": "0xbc375298f79e66b31b9c5b4b65b3fc9710cfd217b20add125f67e043e1afa88b",
                        "s": "0x07b91cec5ea1231d09b6d52727831997d247783895c78c838f65ea1c788b0192",
                        "sender": "0x7e979c1bd83e213ff76dea7dc907bf067762e9c6"
                    }
                ],
                "uncleHeaders": [],
                "withdrawals": [],
                "receipts": [
                    {
                        "transactionHash": "0x4f256d40ce12cb7fece9e37309605cb8529c36e47dcf5d2b73833d8196a0e0b1",
                        "type": "0x01",
                        "cumulativeGasUsed": "0x6fbf",
                        "bloom": "0x00000000000000000000000000000000000000000000000000000000000000000000000000000000000000000000000000000000000000000000000000000000000000000000000000000000000000000000000000000000000000000000000000000000000000000000000000000000000000000000000000000000000000000000000000000000000000000000000000000000000000000000000000000000000000000000000000000000000000000000000000000000000000000000000000000000000000000000000000000000000000000000000000000000000000000000000000000000000000000000000000000000000000000000000000000000",
                        "logs": [],
                        "status": true,
                        "rlp": "0x01f9010801826fbfb9010000000000000000000000000000000000000000000000000000000000000000000000000000000000000000000000000000000000000000000000000000000000000000000000000000000000000000000000000000000000000000000000000000000000000000000000000000000000000000000000000000000000000000000000000000000000000000000000000000000000000000000000000000000000000000000000000000000000000000000000000000000000000000000000000000000000000000000000000000000000000000000000000000000000000000000000000000000000000000000000000000000000000000000000000000000000c0"
                    }
                ],
                "rlp": "0xf902acf9023ca0f286ac9f81cad87684f1dab2b2e8e6b64aa9fa7d345cdb14d83aecafdd1639b2a01dcc4de8dec75d7aab85b567b6ccd41ad312451b948a7413f0a142fd40d49347942adc25665018aa1fe0e6bc666dac8fc2697ff9baa06b795d167dffe76bfddcb00debdb9a5b2b77391b6c0f30311e549d6d800f5570a06cc5cec59c9b030c036a59d5dcd63328f35dbf15b872adbe6637732dbcd3533aa00d405374eddb510c35a6cfe1b55aac7d217c0152ecab6a6d85075ff6f7c273feb901000000000000000000000000000000000000000000000000000000000000000000000000000000000000000000000000000000000000000000000000000000000000000000000000000000000000000000000000000000000000000000000000000000000000000000000000000000000000000000000000000000000000000000000000000000000000000000000000000000000000000000000000000000000000000000000000000000000000000000000000000000000000000000000000000000000000000000000000000000000000000000000000000000000000000000000000000000000000000000000000000000000000000000000000000000000080018401000000826fbf8203e800a000000000000000000000000000000000000000000000000000000000000200008800000000000000008203e8a056e81f171bcc55a6ff8345e692c0f86e5b48e01b996cadc001622fb5e363b4218080a00000000000000000000000000000000000000000000000000000000000000000f869b86701f86401018203e88327b028946193e03a6a148eca29a060ab8e3bd2d4625948c08000c080a0bc375298f79e66b31b9c5b4b65b3fc9710cfd217b20add125f67e043e1afa88ba007b91cec5ea1231d09b6d52727831997d247783895c78c838f65ea1c788b0192c0c0",
                "blocknumber": "1"
            }
        ],
        "sealEngine": "NoProof",
        "_info": {
            "hash": "0xd2d8efab0060aa72374b23ab37c7aeaa972b63ece8872de9f9cf113ba1f29531",
            "fixture-format": "blockchain_test",
            "comment": "`execution-specs` generated test",
            "filling-transition-tool": "2.19.0",
            "description": "Ori Pomerantz   qbzzt1@gmail.",
            "url": "https://github.com/ethereum/execution-specs/blob/tests-snobal-devnet-5@v8037.0.0/tests/ported_static/stRefundTest/test_refund_ff.py#L24",
            "metadata": {
                "opcode_count": {}
            }
        }
    }
}