{
    "tests/ported_static/stSolidityTest/test_create_contract_from_method.py::test_create_contract_from_method[fork_Cancun-blockchain_test_from_state_test]": {
        "network": "Cancun",
        "genesisBlockHeader": {
            "parentHash": "0x0000000000000000000000000000000000000000000000000000000000000000",
            "uncleHash": "0x1dcc4de8dec75d7aab85b567b6ccd41ad312451b948a7413f0a142fd40d49347",
            "coinbase": "0x0000000000000000000000000000000000000000",
            "stateRoot": "0xadf53e6372254c6c122350bd74a7be5e7d4db974174eb48a8faf7631ad89b3eb",
            "transactionsTrie": "0x56e81f171bcc55a6ff8345e692c0f86e5b48e01b996cadc001622fb5e363b421",
            "receiptTrie": "0x56e81f171bcc55a6ff8345e692c0f86e5b48e01b996cadc001622fb5e363b421",
            "bloom": "0x00000000000000000000000000000000000000000000000000000000000000000000000000000000000000000000000000000000000000000000000000000000000000000000000000000000000000000000000000000000000000000000000000000000000000000000000000000000000000000000000000000000000000000000000000000000000000000000000000000000000000000000000000000000000000000000000000000000000000000000000000000000000000000000000000000000000000000000000000000000000000000000000000000000000000000000000000000000000000000000000000000000000000000000000000000000",
            "difficulty": "0x00",
            "number": "0x00",
            "gasLimit": "0x05f5e100",
            "gasUsed": "0x00",
            "timestamp": "0x00",
            "extraData": "0x00",
            "mixHash": "0x0000000000000000000000000000000000000000000000000000000000000000",
            "nonce": "0x0000000000000000",
            "baseFeePerGas": "0x0b",
            "withdrawalsRoot": "0x56e81f171bcc55a6ff8345e692c0f86e5b48e01b996cadc001622fb5e363b421",
            "blobGasUsed": "0x00",
            "excessBlobGas": "0x00",
            "parentBeaconBlockRoot": "0x0000000000000000000000000000000000000000000000000000000000000000",
            "hash": "0x771b0dcd0b305f11d21726d575768b4690264993f945c52042b104852e46a2bd"
        },
        "pre": {
            "0x000f3df6d732807ef1319fb7b8bb8522d0beac02": {
                "nonce": "0x01",
                "balance": "0x00",
                "code": "0x3373fffffffffffffffffffffffffffffffffffffffe14604d57602036146024575f5ffd5b5f35801560495762001fff810690815414603c575f5ffd5b62001fff01545f5260205ff35b5f5ffd5b62001fff42064281555f359062001fff015500",
                "storage": {}
            },
            "0x962aea7d0a0e077e3075514cae986ba883e67d22": {
                "nonce": "0x00",
                "balance": "0x05f5e100",
                "code": "0x",
                "storage": {}
            },
            "0x44961c5d0a1317007d3e7110cff93d71de205d06": {
                "nonce": "0x00",
                "balance": "0x0186a0",
                "code": "0x60003560e060020a900480637ee17e1214601f578063c040622614602b57005b60256047565b60006000f35b6031603b565b8060005260206000f35b600060436047565b5090565b60006060605d600039606060006000f09050905600605480600c6000396000f30060003560e060020a90048062f55d9d14601e578063b9c3d0a514602d57005b60276004356046565b60006000f35b6033603d565b8060005260206000f35b600060e1905090565b80600160a060020a0316ff5056",
                "storage": {}
            }
        },
        "postState": {
            "0x000f3df6d732807ef1319fb7b8bb8522d0beac02": {
                "nonce": "0x01",
                "balance": "0x00",
                "code": "0x3373fffffffffffffffffffffffffffffffffffffffe14604d57602036146024575f5ffd5b5f35801560495762001fff810690815414603c575f5ffd5b62001fff01545f5260205ff35b5f5ffd5b62001fff42064281555f359062001fff015500",
                "storage": {
                    "0x03e8": "0x03e8"
                }
            },
            "0x962aea7d0a0e077e3075514cae986ba883e67d22": {
                "nonce": "0x01",
                "balance": "0x05eb2caf",
                "code": "0x",
                "storage": {}
            },
            "0x44961c5d0a1317007d3e7110cff93d71de205d06": {
                "nonce": "0x01",
                "balance": "0x0186a1",
                "code": "0x60003560e060020a900480637ee17e1214601f578063c040622614602b57005b60256047565b60006000f35b6031603b565b8060005260206000f35b600060436047565b5090565b60006060605d600039606060006000f09050905600605480600c6000396000f30060003560e060020a90048062f55d9d14601e578063b9c3d0a514602d57005b60276004356046565b60006000f35b6033603d565b8060005260206000f35b600060e1905090565b80600160a060020a0316ff5056",
                "storage": {}
            },
            "0xffad734be7d342faccfa7e05369b0c9ac2e828f8": {
                "nonce": "0x01",
                "balance": "0x00",
                "code": "0x60003560e060020a90048062f55d9d14601e578063b9c3d0a514602d57005b60276004356046565b60006000f35b6033603d565b8060005260206000f35b600060e1905090565b80600160a060020a0316ff5056",
                "storage": {}
            }
        },
        "lastblockhash": "0x9034aeef38cb3981dc090aaf69a549b9c5de29da1fc3e895b97d8c99220ade50",
        "config": {
            "network": "Cancun",
            "chainid": "0x01",
            "blobSchedule": {
                "Cancun": {
                    "target": "0x03",
                    "max": "0x06",
                    "baseFeeUpdateFraction": "0x32f0ed"
                }
            }
        },
        "genesisRLP": "0xf9023cf90236a00000000000000000000000000000000000000000000000000000000000000000a01dcc4de8dec75d7aab85b567b6ccd41ad312451b948a7413f0a142fd40d49347940000000000000000000000000000000000000000a0adf53e6372254c6c122350bd74a7be5e7d4db974174eb48a8faf7631ad89b3eba056e81f171bcc55a6ff8345e692c0f86e5b48e01b996cadc001622fb5e363b421a056e81f171bcc55a6ff8345e692c0f86e5b48e01b996cadc001622fb5e363b421b901000000000000000000000000000000000000000000000000000000000000000000000000000000000000000000000000000000000000000000000000000000000000000000000000000000000000000000000000000000000000000000000000000000000000000000000000000000000000000000000000000000000000000000000000000000000000000000000000000000000000000000000000000000000000000000000000000000000000000000000000000000000000000000000000000000000000000000000000000000000000000000000000000000000000000000000000000000000000000000000000000000000000000000000000000000000080808405f5e100808000a000000000000000000000000000000000000000000000000000000000000000008800000000000000000ba056e81f171bcc55a6ff8345e692c0f86e5b48e01b996cadc001622fb5e363b4218080a00000000000000000000000000000000000000000000000000000000000000000c0c0c0",
        "blocks": [
            {
                "blockHeader": {
                    "parentHash": "0x771b0dcd0b305f11d21726d575768b4690264993f945c52042b104852e46a2bd",
                    "uncleHash": "0x1dcc4de8dec75d7aab85b567b6ccd41ad312451b948a7413f0a142fd40d49347",
                    "coinbase": "0x2adc25665018aa1fe0e6bc666dac8fc2697ff9ba",
                    "stateRoot": "0x9574e1c943d74c13b0e32de0ae6b41586048261150d6d0283485f9a7c54591a5",
                    "transactionsTrie": "0x6d44b85a8fb7dd72245dc8c54e23dd9993b6485149dd9fbff6f0b39f934dffa5",
                    "receiptTrie": "0x43500ee45388aeffae5b9f41adc489e37333780f1a2a9e88cae054f9eda73f78",
                    "bloom": "0x00000000000000000000000000000000000000000000000000000000000000000000000000000000000000000000000000000000000000000000000000000000000000000000000000000000000000000000000000000000000000000000000000000000000000000000000000000000000000000000000000000000000000000000000000000000000000000000000000000000000000000000000000000000000000000000000000000000000000000000000000000000000000000000000000000000000000000000000000000000000000000000000000000000000000000000000000000000000000000000000000000000000000000000000000000000",
                    "difficulty": "0x00",
                    "number": "0x01",
                    "gasLimit": "0x05f5e100",
                    "gasUsed": "0x011208",
                    "timestamp": "0x03e8",
                    "extraData": "0x00",
                    "mixHash": "0x0000000000000000000000000000000000000000000000000000000000020000",
                    "nonce": "0x0000000000000000",
                    "baseFeePerGas": "0x0a",
                    "withdrawalsRoot": "0x56e81f171bcc55a6ff8345e692c0f86e5b48e01b996cadc001622fb5e363b421",
                    "blobGasUsed": "0x00",
                    "excessBlobGas": "0x00",
                    "parentBeaconBlockRoot": "0x0000000000000000000000000000000000000000000000000000000000000000",
                    "hash": "0x9034aeef38cb3981dc090aaf69a549b9c5de29da1fc3e895b97d8c99220ade50"
                },
                "transactions": [
                    {
                        "type": "0x00",
                        "chainId": "0x01",
                        "nonce": "0x00",
                        "gasPrice": "0x0a",
                        "gasLimit": "0x055730",
                        "to": "0x44961c5d0a1317007d3e7110cff93d71de205d06",
                        "value": "0x01",
                        "data": "0xc0406226",
                        "v": "0x25",
                        "r": "0xf8c1b852b717abf77d089b81991a1d653c8a4165066a9d03ac2bf5e766cf785c",
                        "s": "0x19303fa2c54cb4a3cd74c70a069d707da6730e0e221a7260a64b4ca697460cf9",
                        "sender": "0x962aea7d0a0e077e3075514cae986ba883e67d22"
                    }
                ],
                "uncleHeaders": [],
                "withdrawals": [],
                "receipts": [
                    {
                        "transactionHash": "0x68bd4cdf5fd5e3b4cebe69a96c1d534ff87bf327e2b33d61deb3627d3556c893",
                        "type": "0x00",
                        "cumulativeGasUsed": "0x011208",
                        "bloom": "0x00000000000000000000000000000000000000000000000000000000000000000000000000000000000000000000000000000000000000000000000000000000000000000000000000000000000000000000000000000000000000000000000000000000000000000000000000000000000000000000000000000000000000000000000000000000000000000000000000000000000000000000000000000000000000000000000000000000000000000000000000000000000000000000000000000000000000000000000000000000000000000000000000000000000000000000000000000000000000000000000000000000000000000000000000000000",
                        "logs": [],
                        "status": true,
                        "rlp": "0xf901090183011208b9010000000000000000000000000000000000000000000000000000000000000000000000000000000000000000000000000000000000000000000000000000000000000000000000000000000000000000000000000000000000000000000000000000000000000000000000000000000000000000000000000000000000000000000000000000000000000000000000000000000000000000000000000000000000000000000000000000000000000000000000000000000000000000000000000000000000000000000000000000000000000000000000000000000000000000000000000000000000000000000000000000000000000000000000000000000000c0"
                    }
                ],
                "rlp": "0xf902a8f9023ba0771b0dcd0b305f11d21726d575768b4690264993f945c52042b104852e46a2bda01dcc4de8dec75d7aab85b567b6ccd41ad312451b948a7413f0a142fd40d49347942adc25665018aa1fe0e6bc666dac8fc2697ff9baa09574e1c943d74c13b0e32de0ae6b41586048261150d6d0283485f9a7c54591a5a06d44b85a8fb7dd72245dc8c54e23dd9993b6485149dd9fbff6f0b39f934dffa5a043500ee45388aeffae5b9f41adc489e37333780f1a2a9e88cae054f9eda73f78b901000000000000000000000000000000000000000000000000000000000000000000000000000000000000000000000000000000000000000000000000000000000000000000000000000000000000000000000000000000000000000000000000000000000000000000000000000000000000000000000000000000000000000000000000000000000000000000000000000000000000000000000000000000000000000000000000000000000000000000000000000000000000000000000000000000000000000000000000000000000000000000000000000000000000000000000000000000000000000000000000000000000000000000000000000000000080018405f5e100830112088203e800a000000000000000000000000000000000000000000000000000000000000200008800000000000000000aa056e81f171bcc55a6ff8345e692c0f86e5b48e01b996cadc001622fb5e363b4218080a00000000000000000000000000000000000000000000000000000000000000000f866f864800a830557309444961c5d0a1317007d3e7110cff93d71de205d060184c040622625a0f8c1b852b717abf77d089b81991a1d653c8a4165066a9d03ac2bf5e766cf785ca019303fa2c54cb4a3cd74c70a069d707da6730e0e221a7260a64b4ca697460cf9c0c0",
                "blocknumber": "1"
            }
        ],
        "sealEngine": "NoProof",
        "_info": {
            "hash": "0xe89ed111a858f539a28806211e2b656a2b9d18b68f0e05b11fb45df26458a6ce",
            "fixture-format": "blockchain_test",
            "comment": "`execution-specs` generated test",
            "filling-transition-tool": "2.19.0",
            "description": "Test_create_contract_from_method.",
            "url": "https://github.com/ethereum/execution-specs/blob/tests-snobal-devnet-5@v8037.0.0/tests/ported_static/stSolidityTest/test_create_contract_from_method.py#L25",
            "metadata": {
                "opcode_count": {}
            }
        }
    }
}