{
    "tests/static/state_tests/stCreate2/call_then_create2_successful_then_returndatasizeFiller.json::call_then_create2_successful_then_returndatasize[fork_Cancun-state_test-]": {
        "env": {
            "currentCoinbase": "0x2adc25665018aa1fe0e6bc666dac8fc2697ff9ba",
            "currentGasLimit": "0x0b00000000",
            "currentNumber": "0x01",
            "currentTimestamp": "0x03e8",
            "currentRandom": "0x0000000000000000000000000000000000000000000000000000000000020000",
            "currentDifficulty": "0x00",
            "currentBaseFee": "0x0a",
            "currentExcessBlobGas": "0x00"
        },
        "pre": {
            "0x0aabbccdd5c57f15886f9b263e2f6d2d6c7b5ec6": {
                "nonce": "0x00",
                "balance": "0x00",
                "code": "0x7d111122223333444455556666777788889999aaaabbbbccccddddeeeeffff60005260206000f30000",
                "storage": {}
            },
            "0x0f572e5295c57f15886f9b263e2f6d2d6c7b5ec6": {
                "nonce": "0x00",
                "balance": "0x00",
                "code": "0x60006000600060006000730aabbccdd5c57f15886f9b263e2f6d2d6c7b5ec6640900000000f1506000600e80603e60003960006000f5503d6000550000fe6211223360005260206000f30000",
                "storage": {
                    "0x00": "0x01"
                }
            },
            "0xa94f5374fce5edbc8e2a8697c15331677e6ebf0b": {
                "nonce": "0x00",
                "balance": "0x6400000000",
                "code": "0x",
                "storage": {}
            }
        },
        "transaction": {
            "nonce": "0x00",
            "gasPrice": "0x0a",
            "gasLimit": [
                "0x0186a0"
            ],
            "to": "0x0f572e5295c57f15886f9b263e2f6d2d6c7b5ec6",
            "value": [
                "0x00"
            ],
            "data": [
                "0x"
            ],
            "sender": "0xa94f5374fce5edbc8e2a8697c15331677e6ebf0b",
            "secretKey": "0x45a915e4d060149eb4365960e6a7a45f334393093061116b197e3240065ff2d8"
        },
        "post": {
            "Cancun": [
                {
                    "hash": "0xa80e765f10324188b7b95c80adf15a047e5383dc8f9e2c08af7b0c53073b4918",
                    "logs": "0x1dcc4de8dec75d7aab85b567b6ccd41ad312451b948a7413f0a142fd40d49347",
                    "txbytes": "0xf860800a830186a0940f572e5295c57f15886f9b263e2f6d2d6c7b5ec6808026a0508e412e39349adfbed0dc57fded0a69d67fa01afdc03fdba6c39769204c12e8a054e9f241f0d4ef0660dcafd44515b8e547ecddf00e97706a76018a0bb2c6ac31",
                    "indexes": {
                        "data": 0,
                        "gas": 0,
                        "value": 0
                    },
                    "state": {
                        "0x0aabbccdd5c57f15886f9b263e2f6d2d6c7b5ec6": {
                            "nonce": "0x00",
                            "balance": "0x00",
                            "code": "0x7d111122223333444455556666777788889999aaaabbbbccccddddeeeeffff60005260206000f30000",
                            "storage": {}
                        },
                        "0x0f572e5295c57f15886f9b263e2f6d2d6c7b5ec6": {
                            "nonce": "0x01",
                            "balance": "0x00",
                            "code": "0x60006000600060006000730aabbccdd5c57f15886f9b263e2f6d2d6c7b5ec6640900000000f1506000600e80603e60003960006000f5503d6000550000fe6211223360005260206000f30000",
                            "storage": {}
                        },
                        "0xa94f5374fce5edbc8e2a8697c15331677e6ebf0b": {
                            "nonce": "0x01",
                            "balance": "0x63fff67e40",
                            "code": "0x",
                            "storage": {}
                        },
                        "0xc0c06666fad9e52251740536e21fc0f3db0e0fa0": {
                            "nonce": "0x01",
                            "balance": "0x00",
                            "code": "0x0000000000000000000000000000000000000000000000000000000000112233",
                            "storage": {}
                        }
                    }
                }
            ]
        },
        "config": {
            "blobSchedule": {
                "Cancun": {
                    "target": "0x03",
                    "max": "0x06",
                    "baseFeeUpdateFraction": "0x32f0ed"
                }
            },
            "chainid": "0x01"
        },
        "_info": {
            "hash": "0x9014af99498597f5ac5383ebb732a079463f890c210447bd776215eeba5f2fa2",
            "comment": "`execution-specs` generated test",
            "filling-transition-tool": "2.18.0rc6",
            "description": "No description available - add a docstring to the python test class or function.",
            "url": "",
            "fixture-format": "state_test"
        }
    },
    "tests/static/state_tests/stCreate2/call_then_create2_successful_then_returndatasizeFiller.json::call_then_create2_successful_then_returndatasize[fork_Osaka-state_test-]": {
        "env": {
            "currentCoinbase": "0x2adc25665018aa1fe0e6bc666dac8fc2697ff9ba",
            "currentGasLimit": "0x0b00000000",
            "currentNumber": "0x01",
            "currentTimestamp": "0x03e8",
            "currentRandom": "0x0000000000000000000000000000000000000000000000000000000000020000",
            "currentDifficulty": "0x00",
            "currentBaseFee": "0x0a",
            "currentExcessBlobGas": "0x00"
        },
        "pre": {
            "0x0aabbccdd5c57f15886f9b263e2f6d2d6c7b5ec6": {
                "nonce": "0x00",
                "balance": "0x00",
                "code": "0x7d111122223333444455556666777788889999aaaabbbbccccddddeeeeffff60005260206000f30000",
                "storage": {}
            },
            "0x0f572e5295c57f15886f9b263e2f6d2d6c7b5ec6": {
                "nonce": "0x00",
                "balance": "0x00",
                "code": "0x60006000600060006000730aabbccdd5c57f15886f9b263e2f6d2d6c7b5ec6640900000000f1506000600e80603e60003960006000f5503d6000550000fe6211223360005260206000f30000",
                "storage": {
                    "0x00": "0x01"
                }
            },
            "0xa94f5374fce5edbc8e2a8697c15331677e6ebf0b": {
                "nonce": "0x00",
                "balance": "0x6400000000",
                "code": "0x",
                "storage": {}
            }
        },
        "transaction": {
            "nonce": "0x00",
            "gasPrice": "0x0a",
            "gasLimit": [
                "0x0186a0"
            ],
            "to": "0x0f572e5295c57f15886f9b263e2f6d2d6c7b5ec6",
            "value": [
                "0x00"
            ],
            "data": [
                "0x"
            ],
            "sender": "0xa94f5374fce5edbc8e2a8697c15331677e6ebf0b",
            "secretKey": "0x45a915e4d060149eb4365960e6a7a45f334393093061116b197e3240065ff2d8"
        },
        "post": {
            "Osaka": [
                {
                    "hash": "0xa80e765f10324188b7b95c80adf15a047e5383dc8f9e2c08af7b0c53073b4918",
                    "logs": "0x1dcc4de8dec75d7aab85b567b6ccd41ad312451b948a7413f0a142fd40d49347",
                    "txbytes": "0xf860800a830186a0940f572e5295c57f15886f9b263e2f6d2d6c7b5ec6808026a0508e412e39349adfbed0dc57fded0a69d67fa01afdc03fdba6c39769204c12e8a054e9f241f0d4ef0660dcafd44515b8e547ecddf00e97706a76018a0bb2c6ac31",
                    "indexes": {
                        "data": 0,
                        "gas": 0,
                        "value": 0
                    },
                    "state": {
                        "0x0aabbccdd5c57f15886f9b263e2f6d2d6c7b5ec6": {
                            "nonce": "0x00",
                            "balance": "0x00",
                            "code": "0x7d111122223333444455556666777788889999aaaabbbbccccddddeeeeffff60005260206000f30000",
                            "storage": {}
                        },
                        "0x0f572e5295c57f15886f9b263e2f6d2d6c7b5ec6": {
                            "nonce": "0x01",
                            "balance": "0x00",
                            "code": "0x60006000600060006000730aabbccdd5c57f15886f9b263e2f6d2d6c7b5ec6640900000000f1506000600e80603e60003960006000f5503d6000550000fe6211223360005260206000f30000",
                            "storage": {}
                        },
                        "0xa94f5374fce5edbc8e2a8697c15331677e6ebf0b": {
                            "nonce": "0x01",
                            "balance": "0x63fff67e40",
                            "code": "0x",
                            "storage": {}
                        },
                        "0xc0c06666fad9e52251740536e21fc0f3db0e0fa0": {
                            "nonce": "0x01",
                            "balance": "0x00",
                            "code": "0x0000000000000000000000000000000000000000000000000000000000112233",
                            "storage": {}
                        }
                    }
                }
            ]
        },
        "config": {
            "blobSchedule": {
                "Cancun": {
                    "target": "0x03",
                    "max": "0x06",
                    "baseFeeUpdateFraction": "0x32f0ed"
                },
                "Prague": {
                    "target": "0x06",
                    "max": "0x09",
                    "baseFeeUpdateFraction": "0x4c6964"
                },
                "Osaka": {
                    "target": "0x06",
                    "max": "0x09",
                    "baseFeeUpdateFraction": "0x4c6964"
                }
            },
            "chainid": "0x01"
        },
        "_info": {
            "hash": "0xaa232706494e7f87c610b098b1e0c82061c82da97be958b6852d22fd26beb38c",
            "comment": "`execution-specs` generated test",
            "filling-transition-tool": "2.18.0rc6",
            "description": "No description available - add a docstring to the python test class or function.",
            "url": "",
            "fixture-format": "state_test"
        }
    },
    "tests/static/state_tests/stCreate2/call_then_create2_successful_then_returndatasizeFiller.json::call_then_create2_successful_then_returndatasize[fork_Prague-state_test-]": {
        "env": {
            "currentCoinbase": "0x2adc25665018aa1fe0e6bc666dac8fc2697ff9ba",
            "currentGasLimit": "0x0b00000000",
            "currentNumber": "0x01",
            "currentTimestamp": "0x03e8",
            "currentRandom": "0x0000000000000000000000000000000000000000000000000000000000020000",
            "currentDifficulty": "0x00",
            "currentBaseFee": "0x0a",
            "currentExcessBlobGas": "0x00"
        },
        "pre": {
            "0x0aabbccdd5c57f15886f9b263e2f6d2d6c7b5ec6": {
                "nonce": "0x00",
                "balance": "0x00",
                "code": "0x7d111122223333444455556666777788889999aaaabbbbccccddddeeeeffff60005260206000f30000",
                "storage": {}
            },
            "0x0f572e5295c57f15886f9b263e2f6d2d6c7b5ec6": {
                "nonce": "0x00",
                "balance": "0x00",
                "code": "0x60006000600060006000730aabbccdd5c57f15886f9b263e2f6d2d6c7b5ec6640900000000f1506000600e80603e60003960006000f5503d6000550000fe6211223360005260206000f30000",
                "storage": {
                    "0x00": "0x01"
                }
            },
            "0xa94f5374fce5edbc8e2a8697c15331677e6ebf0b": {
                "nonce": "0x00",
                "balance": "0x6400000000",
                "code": "0x",
                "storage": {}
            }
        },
        "transaction": {
            "nonce": "0x00",
            "gasPrice": "0x0a",
            "gasLimit": [
                "0x0186a0"
            ],
            "to": "0x0f572e5295c57f15886f9b263e2f6d2d6c7b5ec6",
            "value": [
                "0x00"
            ],
            "data": [
                "0x"
            ],
            "sender": "0xa94f5374fce5edbc8e2a8697c15331677e6ebf0b",
            "secretKey": "0x45a915e4d060149eb4365960e6a7a45f334393093061116b197e3240065ff2d8"
        },
        "post": {
            "Prague": [
                {
                    "hash": "0xa80e765f10324188b7b95c80adf15a047e5383dc8f9e2c08af7b0c53073b4918",
                    "logs": "0x1dcc4de8dec75d7aab85b567b6ccd41ad312451b948a7413f0a142fd40d49347",
                    "txbytes": "0xf860800a830186a0940f572e5295c57f15886f9b263e2f6d2d6c7b5ec6808026a0508e412e39349adfbed0dc57fded0a69d67fa01afdc03fdba6c39769204c12e8a054e9f241f0d4ef0660dcafd44515b8e547ecddf00e97706a76018a0bb2c6ac31",
                    "indexes": {
                        "data": 0,
                        "gas": 0,
                        "value": 0
                    },
                    "state": {
                        "0x0aabbccdd5c57f15886f9b263e2f6d2d6c7b5ec6": {
                            "nonce": "0x00",
                            "balance": "0x00",
                            "code": "0x7d111122223333444455556666777788889999aaaabbbbccccddddeeeeffff60005260206000f30000",
                            "storage": {}
                        },
                        "0x0f572e5295c57f15886f9b263e2f6d2d6c7b5ec6": {
                            "nonce": "0x01",
                            "balance": "0x00",
                            "code": "0x60006000600060006000730aabbccdd5c57f15886f9b263e2f6d2d6c7b5ec6640900000000f1506000600e80603e60003960006000f5503d6000550000fe6211223360005260206000f30000",
                            "storage": {}
                        },
                        "0xa94f5374fce5edbc8e2a8697c15331677e6ebf0b": {
                            "nonce": "0x01",
                            "balance": "0x63fff67e40",
                            "code": "0x",
                            "storage": {}
                        },
                        "0xc0c06666fad9e52251740536e21fc0f3db0e0fa0": {
                            "nonce": "0x01",
                            "balance": "0x00",
                            "code": "0x0000000000000000000000000000000000000000000000000000000000112233",
                            "storage": {}
                        }
                    }
                }
            ]
        },
        "config": {
            "blobSchedule": {
                "Cancun": {
                    "target": "0x03",
                    "max": "0x06",
                    "baseFeeUpdateFraction": "0x32f0ed"
                },
                "Prague": {
                    "target": "0x06",
                    "max": "0x09",
                    "baseFeeUpdateFraction": "0x4c6964"
                }
            },
            "chainid": "0x01"
        },
        "_info": {
            "hash": "0xd7d7b6ecee1e72fac3e35fe063c95c0b2980e430d1608b6aa7f7554d54d9adea",
            "comment": "`execution-specs` generated test",
            "filling-transition-tool": "2.18.0rc6",
            "description": "No description available - add a docstring to the python test class or function.",
            "url": "",
            "fixture-format": "state_test"
        }
    }
}