{
    "tests/static/state_tests/stCreate2/Create2OnDepth1024Filler.json::Create2OnDepth1024[fork_Cancun-state_test-]": {
        "env": {
            "currentCoinbase": "0x2adc25665018aa1fe0e6bc666dac8fc2697ff9ba",
            "currentGasLimit": "0x7fffffffffffffff",
            "currentNumber": "0x01",
            "currentTimestamp": "0x03e8",
            "currentRandom": "0x0000000000000000000000000000000000000000000000000000000000020000",
            "currentDifficulty": "0x00",
            "currentBaseFee": "0x0a",
            "currentExcessBlobGas": "0x00"
        },
        "pre": {
            "0xa94f5374fce5edbc8e2a8697c15331677e6ebf0b": {
                "nonce": "0x00",
                "balance": "0x0fffffffffffffffffffffffffffffffffffffffffffffffffffffffffffffff",
                "code": "0x",
                "storage": {}
            },
            "0xb94f5374fce5edbc8e2a8697c15331677e6ebf0b": {
                "nonce": "0x00",
                "balance": "0x00",
                "code": "0x6000356000526000516002016000526104006000511460435760006000602060006104006000511473c94f5374fce5edbc8e2a8697c15331677e6ebf0b5af150606d565b78686000600060006000f56000526000600960176000f56001556020526000601960276000f56001555b00",
                "storage": {}
            },
            "0xc94f5374fce5edbc8e2a8697c15331677e6ebf0b": {
                "nonce": "0x00",
                "balance": "0x00",
                "code": "0x6000356000526000600060206000600073b94f5374fce5edbc8e2a8697c15331677e6ebf0b5af100",
                "storage": {}
            }
        },
        "transaction": {
            "nonce": "0x00",
            "gasPrice": "0x0a",
            "gasLimit": [
                "0x7effffffffffffff"
            ],
            "to": "0xb94f5374fce5edbc8e2a8697c15331677e6ebf0b",
            "value": [
                "0x00"
            ],
            "data": [
                "0x"
            ],
            "sender": "0xa94f5374fce5edbc8e2a8697c15331677e6ebf0b",
            "secretKey": "0x45a915e4d060149eb4365960e6a7a45f334393093061116b197e3240065ff2d8"
        },
        "post": {
            "Cancun": [
                {
                    "hash": "0x137ed1bf17d7dedef6603dc27a165dd9e515807d63965c530d6cc7422228338c",
                    "logs": "0x1dcc4de8dec75d7aab85b567b6ccd41ad312451b948a7413f0a142fd40d49347",
                    "txbytes": "0xf865800a887effffffffffffff94b94f5374fce5edbc8e2a8697c15331677e6ebf0b808026a0d645fdb805dc776ccd9d0c6f048da1ae87c47a7fa081b0adcd9a7d3583dd7666a01d2985bb1c141d1555068f6c0ab5d11fcbe07e9e2db7c0c34d399866ebb34ceb",
                    "indexes": {
                        "data": 0,
                        "gas": 0,
                        "value": 0
                    },
                    "state": {
                        "0xa94f5374fce5edbc8e2a8697c15331677e6ebf0b": {
                            "nonce": "0x01",
                            "balance": "0x0fffffffffffffffffffffffffffffffffffffffffffffffffffffffffcccd0b",
                            "code": "0x",
                            "storage": {}
                        },
                        "0xb94f5374fce5edbc8e2a8697c15331677e6ebf0b": {
                            "nonce": "0x01",
                            "balance": "0x00",
                            "code": "0x6000356000526000516002016000526104006000511460435760006000602060006104006000511473c94f5374fce5edbc8e2a8697c15331677e6ebf0b5af150606d565b78686000600060006000f56000526000600960176000f56001556020526000601960276000f56001555b00",
                            "storage": {
                                "0x01": "0xb250d8cdad4a7a81323be508f4ac44584dd27597"
                            }
                        },
                        "0xc94f5374fce5edbc8e2a8697c15331677e6ebf0b": {
                            "nonce": "0x00",
                            "balance": "0x00",
                            "code": "0x6000356000526000600060206000600073b94f5374fce5edbc8e2a8697c15331677e6ebf0b5af100",
                            "storage": {}
                        },
                        "0xb250d8cdad4a7a81323be508f4ac44584dd27597": {
                            "nonce": "0x02",
                            "balance": "0x00",
                            "code": "0x",
                            "storage": {
                                "0x01": "0x436b8f99e8d953cdaf8f9472116add83ccd82a65"
                            }
                        },
                        "0x436b8f99e8d953cdaf8f9472116add83ccd82a65": {
                            "nonce": "0x01",
                            "balance": "0x00",
                            "code": "0x",
                            "storage": {}
                        }
                    }
                }
            ]
        },
        "config": {
            "blobSchedule": {
                "Cancun": {
                    "target": "0x03",
                    "max": "0x06",
                    "baseFeeUpdateFraction": "0x32f0ed"
                }
            },
            "chainid": "0x01"
        },
        "_info": {
            "hash": "0x6e18142bf603d3a18cb8ab6863f8a20292483fd091c3a52ef146b16117f02b10",
            "comment": "`execution-spec-tests` generated test",
            "filling-transition-tool": "ethereum-spec-evm-resolver 0.0.5",
            "description": "No description available - add a docstring to the python test class or function.",
            "url": "",
            "fixture-format": "state_test",
            "eels-resolution": {
                "git-url": "https://github.com/ethereum/execution-specs.git",
                "branch": "forks/bpos",
                "commit": "7aacb2c54111391af5e98c505d5010b5698a770f"
            }
        }
    },
    "tests/static/state_tests/stCreate2/Create2OnDepth1024Filler.json::Create2OnDepth1024[fork_Prague-state_test-]": {
        "env": {
            "currentCoinbase": "0x2adc25665018aa1fe0e6bc666dac8fc2697ff9ba",
            "currentGasLimit": "0x7fffffffffffffff",
            "currentNumber": "0x01",
            "currentTimestamp": "0x03e8",
            "currentRandom": "0x0000000000000000000000000000000000000000000000000000000000020000",
            "currentDifficulty": "0x00",
            "currentBaseFee": "0x0a",
            "currentExcessBlobGas": "0x00"
        },
        "pre": {
            "0xa94f5374fce5edbc8e2a8697c15331677e6ebf0b": {
                "nonce": "0x00",
                "balance": "0x0fffffffffffffffffffffffffffffffffffffffffffffffffffffffffffffff",
                "code": "0x",
                "storage": {}
            },
            "0xb94f5374fce5edbc8e2a8697c15331677e6ebf0b": {
                "nonce": "0x00",
                "balance": "0x00",
                "code": "0x6000356000526000516002016000526104006000511460435760006000602060006104006000511473c94f5374fce5edbc8e2a8697c15331677e6ebf0b5af150606d565b78686000600060006000f56000526000600960176000f56001556020526000601960276000f56001555b00",
                "storage": {}
            },
            "0xc94f5374fce5edbc8e2a8697c15331677e6ebf0b": {
                "nonce": "0x00",
                "balance": "0x00",
                "code": "0x6000356000526000600060206000600073b94f5374fce5edbc8e2a8697c15331677e6ebf0b5af100",
                "storage": {}
            }
        },
        "transaction": {
            "nonce": "0x00",
            "gasPrice": "0x0a",
            "gasLimit": [
                "0x7effffffffffffff"
            ],
            "to": "0xb94f5374fce5edbc8e2a8697c15331677e6ebf0b",
            "value": [
                "0x00"
            ],
            "data": [
                "0x"
            ],
            "sender": "0xa94f5374fce5edbc8e2a8697c15331677e6ebf0b",
            "secretKey": "0x45a915e4d060149eb4365960e6a7a45f334393093061116b197e3240065ff2d8"
        },
        "post": {
            "Prague": [
                {
                    "hash": "0x137ed1bf17d7dedef6603dc27a165dd9e515807d63965c530d6cc7422228338c",
                    "logs": "0x1dcc4de8dec75d7aab85b567b6ccd41ad312451b948a7413f0a142fd40d49347",
                    "txbytes": "0xf865800a887effffffffffffff94b94f5374fce5edbc8e2a8697c15331677e6ebf0b808026a0d645fdb805dc776ccd9d0c6f048da1ae87c47a7fa081b0adcd9a7d3583dd7666a01d2985bb1c141d1555068f6c0ab5d11fcbe07e9e2db7c0c34d399866ebb34ceb",
                    "indexes": {
                        "data": 0,
                        "gas": 0,
                        "value": 0
                    },
                    "state": {
                        "0xa94f5374fce5edbc8e2a8697c15331677e6ebf0b": {
                            "nonce": "0x01",
                            "balance": "0x0fffffffffffffffffffffffffffffffffffffffffffffffffffffffffcccd0b",
                            "code": "0x",
                            "storage": {}
                        },
                        "0xb94f5374fce5edbc8e2a8697c15331677e6ebf0b": {
                            "nonce": "0x01",
                            "balance": "0x00",
                            "code": "0x6000356000526000516002016000526104006000511460435760006000602060006104006000511473c94f5374fce5edbc8e2a8697c15331677e6ebf0b5af150606d565b78686000600060006000f56000526000600960176000f56001556020526000601960276000f56001555b00",
                            "storage": {
                                "0x01": "0xb250d8cdad4a7a81323be508f4ac44584dd27597"
                            }
                        },
                        "0xc94f5374fce5edbc8e2a8697c15331677e6ebf0b": {
                            "nonce": "0x00",
                            "balance": "0x00",
                            "code": "0x6000356000526000600060206000600073b94f5374fce5edbc8e2a8697c15331677e6ebf0b5af100",
                            "storage": {}
                        },
                        "0xb250d8cdad4a7a81323be508f4ac44584dd27597": {
                            "nonce": "0x02",
                            "balance": "0x00",
                            "code": "0x",
                            "storage": {
                                "0x01": "0x436b8f99e8d953cdaf8f9472116add83ccd82a65"
                            }
                        },
                        "0x436b8f99e8d953cdaf8f9472116add83ccd82a65": {
                            "nonce": "0x01",
                            "balance": "0x00",
                            "code": "0x",
                            "storage": {}
                        }
                    }
                }
            ]
        },
        "config": {
            "blobSchedule": {
                "Cancun": {
                    "target": "0x03",
                    "max": "0x06",
                    "baseFeeUpdateFraction": "0x32f0ed"
                },
                "Prague": {
                    "target": "0x06",
                    "max": "0x09",
                    "baseFeeUpdateFraction": "0x4c6964"
                }
            },
            "chainid": "0x01"
        },
        "_info": {
            "hash": "0xe7c6461bc0091e0e1de22f6064310e6229ee6fbf6457cc8b79193ba141ce41e2",
            "comment": "`execution-spec-tests` generated test",
            "filling-transition-tool": "ethereum-spec-evm-resolver 0.0.5",
            "description": "No description available - add a docstring to the python test class or function.",
            "url": "",
            "fixture-format": "state_test",
            "eels-resolution": {
                "git-url": "https://github.com/ethereum/execution-specs.git",
                "branch": "forks/bpos",
                "commit": "7aacb2c54111391af5e98c505d5010b5698a770f"
            }
        }
    }
}