{
    "tests/static/state_tests/stCreate2/returndatacopy_following_createFiller.json::returndatacopy_following_create[fork_Cancun-state_test-d0]": {
        "env": {
            "currentCoinbase": "0x2adc25665018aa1fe0e6bc666dac8fc2697ff9ba",
            "currentGasLimit": "0x0b00000000",
            "currentNumber": "0x01",
            "currentTimestamp": "0x03e8",
            "currentRandom": "0x0000000000000000000000000000000000000000000000000000000000020000",
            "currentDifficulty": "0x00",
            "currentBaseFee": "0x0a",
            "currentExcessBlobGas": "0x00"
        },
        "pre": {
            "0x1aabbccdd5c57f15886f9b263e2f6d2d6c7b5ec6": {
                "nonce": "0x00",
                "balance": "0x00",
                "code": "0x600060006000600060006000355af100",
                "storage": {}
            },
            "0x0f572e5295c57f15886f9b263e2f6d2d6c7b5ec6": {
                "nonce": "0x00",
                "balance": "0x00",
                "code": "0x6000602880601f60003960006000f5506020600060003e60005160005500fe7d111122223333444455556666777788889999aaaabbbbccccddddeeeeffff60005260206000f300",
                "storage": {
                    "0x00": "0x01"
                }
            },
            "0x1f572e5295c57f15886f9b263e2f6d2d6c7b5ec6": {
                "nonce": "0x00",
                "balance": "0x00",
                "code": "0x6000600280601f60003960006000f5506020600060003e60005160005500fe0000",
                "storage": {
                    "0x00": "0x01"
                }
            },
            "0xa94f5374fce5edbc8e2a8697c15331677e6ebf0b": {
                "nonce": "0x00",
                "balance": "0x6400000000",
                "code": "0x",
                "storage": {}
            }
        },
        "transaction": {
            "nonce": "0x00",
            "gasPrice": "0x0a",
            "gasLimit": [
                "0x0186a0"
            ],
            "to": "0x1aabbccdd5c57f15886f9b263e2f6d2d6c7b5ec6",
            "value": [
                "0x00"
            ],
            "data": [
                "0x0000000000000000000000000f572e5295c57f15886f9b263e2f6d2d6c7b5ec6"
            ],
            "sender": "0xa94f5374fce5edbc8e2a8697c15331677e6ebf0b",
            "secretKey": "0x45a915e4d060149eb4365960e6a7a45f334393093061116b197e3240065ff2d8"
        },
        "post": {
            "Cancun": [
                {
                    "hash": "0x0a5070082aefc1c63818a0de9569993886ce4728f3b631c1aefcc4bc6b4fc73c",
                    "logs": "0x1dcc4de8dec75d7aab85b567b6ccd41ad312451b948a7413f0a142fd40d49347",
                    "txbytes": "0xf880800a830186a0941aabbccdd5c57f15886f9b263e2f6d2d6c7b5ec680a00000000000000000000000000f572e5295c57f15886f9b263e2f6d2d6c7b5ec626a0896d7f87ba84f502f2f047ec7114acfe52a4b8ae4a2f317548a5da1897376007a006b7021cd5cbf9caf909ac7c10de773242f8925778f9fc31b285416f6918b5ec",
                    "indexes": {
                        "data": 0,
                        "gas": 0,
                        "value": 0
                    },
                    "state": {
                        "0x1aabbccdd5c57f15886f9b263e2f6d2d6c7b5ec6": {
                            "nonce": "0x00",
                            "balance": "0x00",
                            "code": "0x600060006000600060006000355af100",
                            "storage": {}
                        },
                        "0x0f572e5295c57f15886f9b263e2f6d2d6c7b5ec6": {
                            "nonce": "0x00",
                            "balance": "0x00",
                            "code": "0x6000602880601f60003960006000f5506020600060003e60005160005500fe7d111122223333444455556666777788889999aaaabbbbccccddddeeeeffff60005260206000f300",
                            "storage": {
                                "0x00": "0x01"
                            }
                        },
                        "0x1f572e5295c57f15886f9b263e2f6d2d6c7b5ec6": {
                            "nonce": "0x00",
                            "balance": "0x00",
                            "code": "0x6000600280601f60003960006000f5506020600060003e60005160005500fe0000",
                            "storage": {
                                "0x00": "0x01"
                            }
                        },
                        "0xa94f5374fce5edbc8e2a8697c15331677e6ebf0b": {
                            "nonce": "0x01",
                            "balance": "0x63fff0ec1e",
                            "code": "0x",
                            "storage": {}
                        }
                    }
                }
            ]
        },
        "config": {
            "blobSchedule": {
                "Cancun": {
                    "target": "0x03",
                    "max": "0x06",
                    "baseFeeUpdateFraction": "0x32f0ed"
                }
            },
            "chainid": "0x01"
        },
        "_info": {
            "hash": "0xe8e18411ac8200d8e931cbf12e6a5816a5bdd30403e2eb938b279f8db6a46c15",
            "comment": "`execution-specs` generated test",
            "filling-transition-tool": "2.18.0rc6",
            "description": "No description available - add a docstring to the python test class or function.",
            "url": "",
            "fixture-format": "state_test"
        }
    },
    "tests/static/state_tests/stCreate2/returndatacopy_following_createFiller.json::returndatacopy_following_create[fork_Cancun-state_test-d1]": {
        "env": {
            "currentCoinbase": "0x2adc25665018aa1fe0e6bc666dac8fc2697ff9ba",
            "currentGasLimit": "0x0b00000000",
            "currentNumber": "0x01",
            "currentTimestamp": "0x03e8",
            "currentRandom": "0x0000000000000000000000000000000000000000000000000000000000020000",
            "currentDifficulty": "0x00",
            "currentBaseFee": "0x0a",
            "currentExcessBlobGas": "0x00"
        },
        "pre": {
            "0x1aabbccdd5c57f15886f9b263e2f6d2d6c7b5ec6": {
                "nonce": "0x00",
                "balance": "0x00",
                "code": "0x600060006000600060006000355af100",
                "storage": {}
            },
            "0x0f572e5295c57f15886f9b263e2f6d2d6c7b5ec6": {
                "nonce": "0x00",
                "balance": "0x00",
                "code": "0x6000602880601f60003960006000f5506020600060003e60005160005500fe7d111122223333444455556666777788889999aaaabbbbccccddddeeeeffff60005260206000f300",
                "storage": {
                    "0x00": "0x01"
                }
            },
            "0x1f572e5295c57f15886f9b263e2f6d2d6c7b5ec6": {
                "nonce": "0x00",
                "balance": "0x00",
                "code": "0x6000600280601f60003960006000f5506020600060003e60005160005500fe0000",
                "storage": {
                    "0x00": "0x01"
                }
            },
            "0xa94f5374fce5edbc8e2a8697c15331677e6ebf0b": {
                "nonce": "0x00",
                "balance": "0x6400000000",
                "code": "0x",
                "storage": {}
            }
        },
        "transaction": {
            "nonce": "0x00",
            "gasPrice": "0x0a",
            "gasLimit": [
                "0x0186a0"
            ],
            "to": "0x1aabbccdd5c57f15886f9b263e2f6d2d6c7b5ec6",
            "value": [
                "0x00"
            ],
            "data": [
                "0x0000000000000000000000001f572e5295c57f15886f9b263e2f6d2d6c7b5ec6"
            ],
            "sender": "0xa94f5374fce5edbc8e2a8697c15331677e6ebf0b",
            "secretKey": "0x45a915e4d060149eb4365960e6a7a45f334393093061116b197e3240065ff2d8"
        },
        "post": {
            "Cancun": [
                {
                    "hash": "0x0a5070082aefc1c63818a0de9569993886ce4728f3b631c1aefcc4bc6b4fc73c",
                    "logs": "0x1dcc4de8dec75d7aab85b567b6ccd41ad312451b948a7413f0a142fd40d49347",
                    "txbytes": "0xf880800a830186a0941aabbccdd5c57f15886f9b263e2f6d2d6c7b5ec680a00000000000000000000000001f572e5295c57f15886f9b263e2f6d2d6c7b5ec625a0748ab3356f02329437ee7db02f2a9d5a20b8f52f1c53418421abe8dc61dafd6fa008b78afd9a1a75a4611c49e96dea7bed6e33cd7fead5675e8c8a2ebb41c36a40",
                    "indexes": {
                        "data": 0,
                        "gas": 0,
                        "value": 0
                    },
                    "state": {
                        "0x1aabbccdd5c57f15886f9b263e2f6d2d6c7b5ec6": {
                            "nonce": "0x00",
                            "balance": "0x00",
                            "code": "0x600060006000600060006000355af100",
                            "storage": {}
                        },
                        "0x0f572e5295c57f15886f9b263e2f6d2d6c7b5ec6": {
                            "nonce": "0x00",
                            "balance": "0x00",
                            "code": "0x6000602880601f60003960006000f5506020600060003e60005160005500fe7d111122223333444455556666777788889999aaaabbbbccccddddeeeeffff60005260206000f300",
                            "storage": {
                                "0x00": "0x01"
                            }
                        },
                        "0x1f572e5295c57f15886f9b263e2f6d2d6c7b5ec6": {
                            "nonce": "0x00",
                            "balance": "0x00",
                            "code": "0x6000600280601f60003960006000f5506020600060003e60005160005500fe0000",
                            "storage": {
                                "0x00": "0x01"
                            }
                        },
                        "0xa94f5374fce5edbc8e2a8697c15331677e6ebf0b": {
                            "nonce": "0x01",
                            "balance": "0x63fff0ec1e",
                            "code": "0x",
                            "storage": {}
                        }
                    }
                }
            ]
        },
        "config": {
            "blobSchedule": {
                "Cancun": {
                    "target": "0x03",
                    "max": "0x06",
                    "baseFeeUpdateFraction": "0x32f0ed"
                }
            },
            "chainid": "0x01"
        },
        "_info": {
            "hash": "0x6d2bf43f6f64284882797a3e09957142ec1217df283e97c2b338954f774df255",
            "comment": "`execution-specs` generated test",
            "filling-transition-tool": "2.18.0rc6",
            "description": "No description available - add a docstring to the python test class or function.",
            "url": "",
            "fixture-format": "state_test"
        }
    },
    "tests/static/state_tests/stCreate2/returndatacopy_following_createFiller.json::returndatacopy_following_create[fork_Osaka-state_test-d0]": {
        "env": {
            "currentCoinbase": "0x2adc25665018aa1fe0e6bc666dac8fc2697ff9ba",
            "currentGasLimit": "0x0b00000000",
            "currentNumber": "0x01",
            "currentTimestamp": "0x03e8",
            "currentRandom": "0x0000000000000000000000000000000000000000000000000000000000020000",
            "currentDifficulty": "0x00",
            "currentBaseFee": "0x0a",
            "currentExcessBlobGas": "0x00"
        },
        "pre": {
            "0x1aabbccdd5c57f15886f9b263e2f6d2d6c7b5ec6": {
                "nonce": "0x00",
                "balance": "0x00",
                "code": "0x600060006000600060006000355af100",
                "storage": {}
            },
            "0x0f572e5295c57f15886f9b263e2f6d2d6c7b5ec6": {
                "nonce": "0x00",
                "balance": "0x00",
                "code": "0x6000602880601f60003960006000f5506020600060003e60005160005500fe7d111122223333444455556666777788889999aaaabbbbccccddddeeeeffff60005260206000f300",
                "storage": {
                    "0x00": "0x01"
                }
            },
            "0x1f572e5295c57f15886f9b263e2f6d2d6c7b5ec6": {
                "nonce": "0x00",
                "balance": "0x00",
                "code": "0x6000600280601f60003960006000f5506020600060003e60005160005500fe0000",
                "storage": {
                    "0x00": "0x01"
                }
            },
            "0xa94f5374fce5edbc8e2a8697c15331677e6ebf0b": {
                "nonce": "0x00",
                "balance": "0x6400000000",
                "code": "0x",
                "storage": {}
            }
        },
        "transaction": {
            "nonce": "0x00",
            "gasPrice": "0x0a",
            "gasLimit": [
                "0x0186a0"
            ],
            "to": "0x1aabbccdd5c57f15886f9b263e2f6d2d6c7b5ec6",
            "value": [
                "0x00"
            ],
            "data": [
                "0x0000000000000000000000000f572e5295c57f15886f9b263e2f6d2d6c7b5ec6"
            ],
            "sender": "0xa94f5374fce5edbc8e2a8697c15331677e6ebf0b",
            "secretKey": "0x45a915e4d060149eb4365960e6a7a45f334393093061116b197e3240065ff2d8"
        },
        "post": {
            "Osaka": [
                {
                    "hash": "0x0a5070082aefc1c63818a0de9569993886ce4728f3b631c1aefcc4bc6b4fc73c",
                    "logs": "0x1dcc4de8dec75d7aab85b567b6ccd41ad312451b948a7413f0a142fd40d49347",
                    "txbytes": "0xf880800a830186a0941aabbccdd5c57f15886f9b263e2f6d2d6c7b5ec680a00000000000000000000000000f572e5295c57f15886f9b263e2f6d2d6c7b5ec626a0896d7f87ba84f502f2f047ec7114acfe52a4b8ae4a2f317548a5da1897376007a006b7021cd5cbf9caf909ac7c10de773242f8925778f9fc31b285416f6918b5ec",
                    "indexes": {
                        "data": 0,
                        "gas": 0,
                        "value": 0
                    },
                    "state": {
                        "0x1aabbccdd5c57f15886f9b263e2f6d2d6c7b5ec6": {
                            "nonce": "0x00",
                            "balance": "0x00",
                            "code": "0x600060006000600060006000355af100",
                            "storage": {}
                        },
                        "0x0f572e5295c57f15886f9b263e2f6d2d6c7b5ec6": {
                            "nonce": "0x00",
                            "balance": "0x00",
                            "code": "0x6000602880601f60003960006000f5506020600060003e60005160005500fe7d111122223333444455556666777788889999aaaabbbbccccddddeeeeffff60005260206000f300",
                            "storage": {
                                "0x00": "0x01"
                            }
                        },
                        "0x1f572e5295c57f15886f9b263e2f6d2d6c7b5ec6": {
                            "nonce": "0x00",
                            "balance": "0x00",
                            "code": "0x6000600280601f60003960006000f5506020600060003e60005160005500fe0000",
                            "storage": {
                                "0x00": "0x01"
                            }
                        },
                        "0xa94f5374fce5edbc8e2a8697c15331677e6ebf0b": {
                            "nonce": "0x01",
                            "balance": "0x63fff0ec1e",
                            "code": "0x",
                            "storage": {}
                        }
                    }
                }
            ]
        },
        "config": {
            "blobSchedule": {
                "Cancun": {
                    "target": "0x03",
                    "max": "0x06",
                    "baseFeeUpdateFraction": "0x32f0ed"
                },
                "Prague": {
                    "target": "0x06",
                    "max": "0x09",
                    "baseFeeUpdateFraction": "0x4c6964"
                },
                "Osaka": {
                    "target": "0x06",
                    "max": "0x09",
                    "baseFeeUpdateFraction": "0x4c6964"
                }
            },
            "chainid": "0x01"
        },
        "_info": {
            "hash": "0x027f63e45c2ff614c5a5d70df5bd2e5d74aef103f766f83802af5de2a418560d",
            "comment": "`execution-specs` generated test",
            "filling-transition-tool": "2.18.0rc6",
            "description": "No description available - add a docstring to the python test class or function.",
            "url": "",
            "fixture-format": "state_test"
        }
    },
    "tests/static/state_tests/stCreate2/returndatacopy_following_createFiller.json::returndatacopy_following_create[fork_Osaka-state_test-d1]": {
        "env": {
            "currentCoinbase": "0x2adc25665018aa1fe0e6bc666dac8fc2697ff9ba",
            "currentGasLimit": "0x0b00000000",
            "currentNumber": "0x01",
            "currentTimestamp": "0x03e8",
            "currentRandom": "0x0000000000000000000000000000000000000000000000000000000000020000",
            "currentDifficulty": "0x00",
            "currentBaseFee": "0x0a",
            "currentExcessBlobGas": "0x00"
        },
        "pre": {
            "0x1aabbccdd5c57f15886f9b263e2f6d2d6c7b5ec6": {
                "nonce": "0x00",
                "balance": "0x00",
                "code": "0x600060006000600060006000355af100",
                "storage": {}
            },
            "0x0f572e5295c57f15886f9b263e2f6d2d6c7b5ec6": {
                "nonce": "0x00",
                "balance": "0x00",
                "code": "0x6000602880601f60003960006000f5506020600060003e60005160005500fe7d111122223333444455556666777788889999aaaabbbbccccddddeeeeffff60005260206000f300",
                "storage": {
                    "0x00": "0x01"
                }
            },
            "0x1f572e5295c57f15886f9b263e2f6d2d6c7b5ec6": {
                "nonce": "0x00",
                "balance": "0x00",
                "code": "0x6000600280601f60003960006000f5506020600060003e60005160005500fe0000",
                "storage": {
                    "0x00": "0x01"
                }
            },
            "0xa94f5374fce5edbc8e2a8697c15331677e6ebf0b": {
                "nonce": "0x00",
                "balance": "0x6400000000",
                "code": "0x",
                "storage": {}
            }
        },
        "transaction": {
            "nonce": "0x00",
            "gasPrice": "0x0a",
            "gasLimit": [
                "0x0186a0"
            ],
            "to": "0x1aabbccdd5c57f15886f9b263e2f6d2d6c7b5ec6",
            "value": [
                "0x00"
            ],
            "data": [
                "0x0000000000000000000000001f572e5295c57f15886f9b263e2f6d2d6c7b5ec6"
            ],
            "sender": "0xa94f5374fce5edbc8e2a8697c15331677e6ebf0b",
            "secretKey": "0x45a915e4d060149eb4365960e6a7a45f334393093061116b197e3240065ff2d8"
        },
        "post": {
            "Osaka": [
                {
                    "hash": "0x0a5070082aefc1c63818a0de9569993886ce4728f3b631c1aefcc4bc6b4fc73c",
                    "logs": "0x1dcc4de8dec75d7aab85b567b6ccd41ad312451b948a7413f0a142fd40d49347",
                    "txbytes": "0xf880800a830186a0941aabbccdd5c57f15886f9b263e2f6d2d6c7b5ec680a00000000000000000000000001f572e5295c57f15886f9b263e2f6d2d6c7b5ec625a0748ab3356f02329437ee7db02f2a9d5a20b8f52f1c53418421abe8dc61dafd6fa008b78afd9a1a75a4611c49e96dea7bed6e33cd7fead5675e8c8a2ebb41c36a40",
                    "indexes": {
                        "data": 0,
                        "gas": 0,
                        "value": 0
                    },
                    "state": {
                        "0x1aabbccdd5c57f15886f9b263e2f6d2d6c7b5ec6": {
                            "nonce": "0x00",
                            "balance": "0x00",
                            "code": "0x600060006000600060006000355af100",
                            "storage": {}
                        },
                        "0x0f572e5295c57f15886f9b263e2f6d2d6c7b5ec6": {
                            "nonce": "0x00",
                            "balance": "0x00",
                            "code": "0x6000602880601f60003960006000f5506020600060003e60005160005500fe7d111122223333444455556666777788889999aaaabbbbccccddddeeeeffff60005260206000f300",
                            "storage": {
                                "0x00": "0x01"
                            }
                        },
                        "0x1f572e5295c57f15886f9b263e2f6d2d6c7b5ec6": {
                            "nonce": "0x00",
                            "balance": "0x00",
                            "code": "0x6000600280601f60003960006000f5506020600060003e60005160005500fe0000",
                            "storage": {
                                "0x00": "0x01"
                            }
                        },
                        "0xa94f5374fce5edbc8e2a8697c15331677e6ebf0b": {
                            "nonce": "0x01",
                            "balance": "0x63fff0ec1e",
                            "code": "0x",
                            "storage": {}
                        }
                    }
                }
            ]
        },
        "config": {
            "blobSchedule": {
                "Cancun": {
                    "target": "0x03",
                    "max": "0x06",
                    "baseFeeUpdateFraction": "0x32f0ed"
                },
                "Prague": {
                    "target": "0x06",
                    "max": "0x09",
                    "baseFeeUpdateFraction": "0x4c6964"
                },
                "Osaka": {
                    "target": "0x06",
                    "max": "0x09",
                    "baseFeeUpdateFraction": "0x4c6964"
                }
            },
            "chainid": "0x01"
        },
        "_info": {
            "hash": "0xf61aadcbe90dbcdb5af0112a01c0f770c24f63390fda46f36e4ea7400639f80c",
            "comment": "`execution-specs` generated test",
            "filling-transition-tool": "2.18.0rc6",
            "description": "No description available - add a docstring to the python test class or function.",
            "url": "",
            "fixture-format": "state_test"
        }
    },
    "tests/static/state_tests/stCreate2/returndatacopy_following_createFiller.json::returndatacopy_following_create[fork_Prague-state_test-d0]": {
        "env": {
            "currentCoinbase": "0x2adc25665018aa1fe0e6bc666dac8fc2697ff9ba",
            "currentGasLimit": "0x0b00000000",
            "currentNumber": "0x01",
            "currentTimestamp": "0x03e8",
            "currentRandom": "0x0000000000000000000000000000000000000000000000000000000000020000",
            "currentDifficulty": "0x00",
            "currentBaseFee": "0x0a",
            "currentExcessBlobGas": "0x00"
        },
        "pre": {
            "0x1aabbccdd5c57f15886f9b263e2f6d2d6c7b5ec6": {
                "nonce": "0x00",
                "balance": "0x00",
                "code": "0x600060006000600060006000355af100",
                "storage": {}
            },
            "0x0f572e5295c57f15886f9b263e2f6d2d6c7b5ec6": {
                "nonce": "0x00",
                "balance": "0x00",
                "code": "0x6000602880601f60003960006000f5506020600060003e60005160005500fe7d111122223333444455556666777788889999aaaabbbbccccddddeeeeffff60005260206000f300",
                "storage": {
                    "0x00": "0x01"
                }
            },
            "0x1f572e5295c57f15886f9b263e2f6d2d6c7b5ec6": {
                "nonce": "0x00",
                "balance": "0x00",
                "code": "0x6000600280601f60003960006000f5506020600060003e60005160005500fe0000",
                "storage": {
                    "0x00": "0x01"
                }
            },
            "0xa94f5374fce5edbc8e2a8697c15331677e6ebf0b": {
                "nonce": "0x00",
                "balance": "0x6400000000",
                "code": "0x",
                "storage": {}
            }
        },
        "transaction": {
            "nonce": "0x00",
            "gasPrice": "0x0a",
            "gasLimit": [
                "0x0186a0"
            ],
            "to": "0x1aabbccdd5c57f15886f9b263e2f6d2d6c7b5ec6",
            "value": [
                "0x00"
            ],
            "data": [
                "0x0000000000000000000000000f572e5295c57f15886f9b263e2f6d2d6c7b5ec6"
            ],
            "sender": "0xa94f5374fce5edbc8e2a8697c15331677e6ebf0b",
            "secretKey": "0x45a915e4d060149eb4365960e6a7a45f334393093061116b197e3240065ff2d8"
        },
        "post": {
            "Prague": [
                {
                    "hash": "0x0a5070082aefc1c63818a0de9569993886ce4728f3b631c1aefcc4bc6b4fc73c",
                    "logs": "0x1dcc4de8dec75d7aab85b567b6ccd41ad312451b948a7413f0a142fd40d49347",
                    "txbytes": "0xf880800a830186a0941aabbccdd5c57f15886f9b263e2f6d2d6c7b5ec680a00000000000000000000000000f572e5295c57f15886f9b263e2f6d2d6c7b5ec626a0896d7f87ba84f502f2f047ec7114acfe52a4b8ae4a2f317548a5da1897376007a006b7021cd5cbf9caf909ac7c10de773242f8925778f9fc31b285416f6918b5ec",
                    "indexes": {
                        "data": 0,
                        "gas": 0,
                        "value": 0
                    },
                    "state": {
                        "0x1aabbccdd5c57f15886f9b263e2f6d2d6c7b5ec6": {
                            "nonce": "0x00",
                            "balance": "0x00",
                            "code": "0x600060006000600060006000355af100",
                            "storage": {}
                        },
                        "0x0f572e5295c57f15886f9b263e2f6d2d6c7b5ec6": {
                            "nonce": "0x00",
                            "balance": "0x00",
                            "code": "0x6000602880601f60003960006000f5506020600060003e60005160005500fe7d111122223333444455556666777788889999aaaabbbbccccddddeeeeffff60005260206000f300",
                            "storage": {
                                "0x00": "0x01"
                            }
                        },
                        "0x1f572e5295c57f15886f9b263e2f6d2d6c7b5ec6": {
                            "nonce": "0x00",
                            "balance": "0x00",
                            "code": "0x6000600280601f60003960006000f5506020600060003e60005160005500fe0000",
                            "storage": {
                                "0x00": "0x01"
                            }
                        },
                        "0xa94f5374fce5edbc8e2a8697c15331677e6ebf0b": {
                            "nonce": "0x01",
                            "balance": "0x63fff0ec1e",
                            "code": "0x",
                            "storage": {}
                        }
                    }
                }
            ]
        },
        "config": {
            "blobSchedule": {
                "Cancun": {
                    "target": "0x03",
                    "max": "0x06",
                    "baseFeeUpdateFraction": "0x32f0ed"
                },
                "Prague": {
                    "target": "0x06",
                    "max": "0x09",
                    "baseFeeUpdateFraction": "0x4c6964"
                }
            },
            "chainid": "0x01"
        },
        "_info": {
            "hash": "0x2c827d732aa528286b9130061ce186ae23769889c38f38841b3b451704270def",
            "comment": "`execution-specs` generated test",
            "filling-transition-tool": "2.18.0rc6",
            "description": "No description available - add a docstring to the python test class or function.",
            "url": "",
            "fixture-format": "state_test"
        }
    },
    "tests/static/state_tests/stCreate2/returndatacopy_following_createFiller.json::returndatacopy_following_create[fork_Prague-state_test-d1]": {
        "env": {
            "currentCoinbase": "0x2adc25665018aa1fe0e6bc666dac8fc2697ff9ba",
            "currentGasLimit": "0x0b00000000",
            "currentNumber": "0x01",
            "currentTimestamp": "0x03e8",
            "currentRandom": "0x0000000000000000000000000000000000000000000000000000000000020000",
            "currentDifficulty": "0x00",
            "currentBaseFee": "0x0a",
            "currentExcessBlobGas": "0x00"
        },
        "pre": {
            "0x1aabbccdd5c57f15886f9b263e2f6d2d6c7b5ec6": {
                "nonce": "0x00",
                "balance": "0x00",
                "code": "0x600060006000600060006000355af100",
                "storage": {}
            },
            "0x0f572e5295c57f15886f9b263e2f6d2d6c7b5ec6": {
                "nonce": "0x00",
                "balance": "0x00",
                "code": "0x6000602880601f60003960006000f5506020600060003e60005160005500fe7d111122223333444455556666777788889999aaaabbbbccccddddeeeeffff60005260206000f300",
                "storage": {
                    "0x00": "0x01"
                }
            },
            "0x1f572e5295c57f15886f9b263e2f6d2d6c7b5ec6": {
                "nonce": "0x00",
                "balance": "0x00",
                "code": "0x6000600280601f60003960006000f5506020600060003e60005160005500fe0000",
                "storage": {
                    "0x00": "0x01"
                }
            },
            "0xa94f5374fce5edbc8e2a8697c15331677e6ebf0b": {
                "nonce": "0x00",
                "balance": "0x6400000000",
                "code": "0x",
                "storage": {}
            }
        },
        "transaction": {
            "nonce": "0x00",
            "gasPrice": "0x0a",
            "gasLimit": [
                "0x0186a0"
            ],
            "to": "0x1aabbccdd5c57f15886f9b263e2f6d2d6c7b5ec6",
            "value": [
                "0x00"
            ],
            "data": [
                "0x0000000000000000000000001f572e5295c57f15886f9b263e2f6d2d6c7b5ec6"
            ],
            "sender": "0xa94f5374fce5edbc8e2a8697c15331677e6ebf0b",
            "secretKey": "0x45a915e4d060149eb4365960e6a7a45f334393093061116b197e3240065ff2d8"
        },
        "post": {
            "Prague": [
                {
                    "hash": "0x0a5070082aefc1c63818a0de9569993886ce4728f3b631c1aefcc4bc6b4fc73c",
                    "logs": "0x1dcc4de8dec75d7aab85b567b6ccd41ad312451b948a7413f0a142fd40d49347",
                    "txbytes": "0xf880800a830186a0941aabbccdd5c57f15886f9b263e2f6d2d6c7b5ec680a00000000000000000000000001f572e5295c57f15886f9b263e2f6d2d6c7b5ec625a0748ab3356f02329437ee7db02f2a9d5a20b8f52f1c53418421abe8dc61dafd6fa008b78afd9a1a75a4611c49e96dea7bed6e33cd7fead5675e8c8a2ebb41c36a40",
                    "indexes": {
                        "data": 0,
                        "gas": 0,
                        "value": 0
                    },
                    "state": {
                        "0x1aabbccdd5c57f15886f9b263e2f6d2d6c7b5ec6": {
                            "nonce": "0x00",
                            "balance": "0x00",
                            "code": "0x600060006000600060006000355af100",
                            "storage": {}
                        },
                        "0x0f572e5295c57f15886f9b263e2f6d2d6c7b5ec6": {
                            "nonce": "0x00",
                            "balance": "0x00",
                            "code": "0x6000602880601f60003960006000f5506020600060003e60005160005500fe7d111122223333444455556666777788889999aaaabbbbccccddddeeeeffff60005260206000f300",
                            "storage": {
                                "0x00": "0x01"
                            }
                        },
                        "0x1f572e5295c57f15886f9b263e2f6d2d6c7b5ec6": {
                            "nonce": "0x00",
                            "balance": "0x00",
                            "code": "0x6000600280601f60003960006000f5506020600060003e60005160005500fe0000",
                            "storage": {
                                "0x00": "0x01"
                            }
                        },
                        "0xa94f5374fce5edbc8e2a8697c15331677e6ebf0b": {
                            "nonce": "0x01",
                            "balance": "0x63fff0ec1e",
                            "code": "0x",
                            "storage": {}
                        }
                    }
                }
            ]
        },
        "config": {
            "blobSchedule": {
                "Cancun": {
                    "target": "0x03",
                    "max": "0x06",
                    "baseFeeUpdateFraction": "0x32f0ed"
                },
                "Prague": {
                    "target": "0x06",
                    "max": "0x09",
                    "baseFeeUpdateFraction": "0x4c6964"
                }
            },
            "chainid": "0x01"
        },
        "_info": {
            "hash": "0x7851c584af9b5d979ffe2a6fd8cdeb8afe66d20f581b6a7ddb37cae532c33c28",
            "comment": "`execution-specs` generated test",
            "filling-transition-tool": "2.18.0rc6",
            "description": "No description available - add a docstring to the python test class or function.",
            "url": "",
            "fixture-format": "state_test"
        }
    }
}