{
    "tests/static/state_tests/stCreate2/RevertOpcodeInCreateReturnsCreate2Filler.json::RevertOpcodeInCreateReturnsCreate2[fork_Cancun-state_test-]": {
        "env": {
            "currentCoinbase": "0x2adc25665018aa1fe0e6bc666dac8fc2697ff9ba",
            "currentGasLimit": "0x0b00000000",
            "currentNumber": "0x01",
            "currentTimestamp": "0x03e8",
            "currentRandom": "0x0000000000000000000000000000000000000000000000000000000000020000",
            "currentDifficulty": "0x00",
            "currentBaseFee": "0x0a",
            "currentExcessBlobGas": "0x00"
        },
        "pre": {
            "0x0f572e5295c57f15886f9b263e2f6d2d6c7b5ec6": {
                "nonce": "0x00",
                "balance": "0x00",
                "code": "0x6000600e80601760003960006000f5503d6000550000fe6211223360005260206000fd0000",
                "storage": {
                    "0x00": "0x01"
                }
            },
            "0xa94f5374fce5edbc8e2a8697c15331677e6ebf0b": {
                "nonce": "0x00",
                "balance": "0x6400000000",
                "code": "0x",
                "storage": {}
            }
        },
        "transaction": {
            "nonce": "0x00",
            "gasPrice": "0x0a",
            "gasLimit": [
                "0x0186a0"
            ],
            "to": "0x0f572e5295c57f15886f9b263e2f6d2d6c7b5ec6",
            "value": [
                "0x00"
            ],
            "data": [
                "0x"
            ],
            "sender": "0xa94f5374fce5edbc8e2a8697c15331677e6ebf0b",
            "secretKey": "0x45a915e4d060149eb4365960e6a7a45f334393093061116b197e3240065ff2d8"
        },
        "post": {
            "Cancun": [
                {
                    "hash": "0xd537741b26aa25e368a8fac0a59aaaca41c762ba14fa80f9647a7d8552bdcc04",
                    "logs": "0x1dcc4de8dec75d7aab85b567b6ccd41ad312451b948a7413f0a142fd40d49347",
                    "txbytes": "0xf860800a830186a0940f572e5295c57f15886f9b263e2f6d2d6c7b5ec6808026a0508e412e39349adfbed0dc57fded0a69d67fa01afdc03fdba6c39769204c12e8a054e9f241f0d4ef0660dcafd44515b8e547ecddf00e97706a76018a0bb2c6ac31",
                    "indexes": {
                        "data": 0,
                        "gas": 0,
                        "value": 0
                    },
                    "state": {
                        "0x0f572e5295c57f15886f9b263e2f6d2d6c7b5ec6": {
                            "nonce": "0x01",
                            "balance": "0x00",
                            "code": "0x6000600e80601760003960006000f5503d6000550000fe6211223360005260206000fd0000",
                            "storage": {
                                "0x00": "0x20"
                            }
                        },
                        "0xa94f5374fce5edbc8e2a8697c15331677e6ebf0b": {
                            "nonce": "0x01",
                            "balance": "0x63fff723ea",
                            "code": "0x",
                            "storage": {}
                        }
                    }
                }
            ]
        },
        "config": {
            "blobSchedule": {
                "Cancun": {
                    "target": "0x03",
                    "max": "0x06",
                    "baseFeeUpdateFraction": "0x32f0ed"
                }
            },
            "chainid": "0x01"
        },
        "_info": {
            "hash": "0xb8b69e47c248912583f6061827f52e99a156e7e284e085592159a059b83f6e99",
            "comment": "`execution-specs` generated test",
            "filling-transition-tool": "2.18.0rc6",
            "description": "No description available - add a docstring to the python test class or function.",
            "url": "",
            "fixture-format": "state_test"
        }
    },
    "tests/static/state_tests/stCreate2/RevertOpcodeInCreateReturnsCreate2Filler.json::RevertOpcodeInCreateReturnsCreate2[fork_Osaka-state_test-]": {
        "env": {
            "currentCoinbase": "0x2adc25665018aa1fe0e6bc666dac8fc2697ff9ba",
            "currentGasLimit": "0x0b00000000",
            "currentNumber": "0x01",
            "currentTimestamp": "0x03e8",
            "currentRandom": "0x0000000000000000000000000000000000000000000000000000000000020000",
            "currentDifficulty": "0x00",
            "currentBaseFee": "0x0a",
            "currentExcessBlobGas": "0x00"
        },
        "pre": {
            "0x0f572e5295c57f15886f9b263e2f6d2d6c7b5ec6": {
                "nonce": "0x00",
                "balance": "0x00",
                "code": "0x6000600e80601760003960006000f5503d6000550000fe6211223360005260206000fd0000",
                "storage": {
                    "0x00": "0x01"
                }
            },
            "0xa94f5374fce5edbc8e2a8697c15331677e6ebf0b": {
                "nonce": "0x00",
                "balance": "0x6400000000",
                "code": "0x",
                "storage": {}
            }
        },
        "transaction": {
            "nonce": "0x00",
            "gasPrice": "0x0a",
            "gasLimit": [
                "0x0186a0"
            ],
            "to": "0x0f572e5295c57f15886f9b263e2f6d2d6c7b5ec6",
            "value": [
                "0x00"
            ],
            "data": [
                "0x"
            ],
            "sender": "0xa94f5374fce5edbc8e2a8697c15331677e6ebf0b",
            "secretKey": "0x45a915e4d060149eb4365960e6a7a45f334393093061116b197e3240065ff2d8"
        },
        "post": {
            "Osaka": [
                {
                    "hash": "0xd537741b26aa25e368a8fac0a59aaaca41c762ba14fa80f9647a7d8552bdcc04",
                    "logs": "0x1dcc4de8dec75d7aab85b567b6ccd41ad312451b948a7413f0a142fd40d49347",
                    "txbytes": "0xf860800a830186a0940f572e5295c57f15886f9b263e2f6d2d6c7b5ec6808026a0508e412e39349adfbed0dc57fded0a69d67fa01afdc03fdba6c39769204c12e8a054e9f241f0d4ef0660dcafd44515b8e547ecddf00e97706a76018a0bb2c6ac31",
                    "indexes": {
                        "data": 0,
                        "gas": 0,
                        "value": 0
                    },
                    "state": {
                        "0x0f572e5295c57f15886f9b263e2f6d2d6c7b5ec6": {
                            "nonce": "0x01",
                            "balance": "0x00",
                            "code": "0x6000600e80601760003960006000f5503d6000550000fe6211223360005260206000fd0000",
                            "storage": {
                                "0x00": "0x20"
                            }
                        },
                        "0xa94f5374fce5edbc8e2a8697c15331677e6ebf0b": {
                            "nonce": "0x01",
                            "balance": "0x63fff723ea",
                            "code": "0x",
                            "storage": {}
                        }
                    }
                }
            ]
        },
        "config": {
            "blobSchedule": {
                "Cancun": {
                    "target": "0x03",
                    "max": "0x06",
                    "baseFeeUpdateFraction": "0x32f0ed"
                },
                "Prague": {
                    "target": "0x06",
                    "max": "0x09",
                    "baseFeeUpdateFraction": "0x4c6964"
                },
                "Osaka": {
                    "target": "0x06",
                    "max": "0x09",
                    "baseFeeUpdateFraction": "0x4c6964"
                }
            },
            "chainid": "0x01"
        },
        "_info": {
            "hash": "0x2c18de5b5e356164f3ec1a035b493c697b56afa989e3a969c2ab06fcd792dab3",
            "comment": "`execution-specs` generated test",
            "filling-transition-tool": "2.18.0rc6",
            "description": "No description available - add a docstring to the python test class or function.",
            "url": "",
            "fixture-format": "state_test"
        }
    },
    "tests/static/state_tests/stCreate2/RevertOpcodeInCreateReturnsCreate2Filler.json::RevertOpcodeInCreateReturnsCreate2[fork_Prague-state_test-]": {
        "env": {
            "currentCoinbase": "0x2adc25665018aa1fe0e6bc666dac8fc2697ff9ba",
            "currentGasLimit": "0x0b00000000",
            "currentNumber": "0x01",
            "currentTimestamp": "0x03e8",
            "currentRandom": "0x0000000000000000000000000000000000000000000000000000000000020000",
            "currentDifficulty": "0x00",
            "currentBaseFee": "0x0a",
            "currentExcessBlobGas": "0x00"
        },
        "pre": {
            "0x0f572e5295c57f15886f9b263e2f6d2d6c7b5ec6": {
                "nonce": "0x00",
                "balance": "0x00",
                "code": "0x6000600e80601760003960006000f5503d6000550000fe6211223360005260206000fd0000",
                "storage": {
                    "0x00": "0x01"
                }
            },
            "0xa94f5374fce5edbc8e2a8697c15331677e6ebf0b": {
                "nonce": "0x00",
                "balance": "0x6400000000",
                "code": "0x",
                "storage": {}
            }
        },
        "transaction": {
            "nonce": "0x00",
            "gasPrice": "0x0a",
            "gasLimit": [
                "0x0186a0"
            ],
            "to": "0x0f572e5295c57f15886f9b263e2f6d2d6c7b5ec6",
            "value": [
                "0x00"
            ],
            "data": [
                "0x"
            ],
            "sender": "0xa94f5374fce5edbc8e2a8697c15331677e6ebf0b",
            "secretKey": "0x45a915e4d060149eb4365960e6a7a45f334393093061116b197e3240065ff2d8"
        },
        "post": {
            "Prague": [
                {
                    "hash": "0xd537741b26aa25e368a8fac0a59aaaca41c762ba14fa80f9647a7d8552bdcc04",
                    "logs": "0x1dcc4de8dec75d7aab85b567b6ccd41ad312451b948a7413f0a142fd40d49347",
                    "txbytes": "0xf860800a830186a0940f572e5295c57f15886f9b263e2f6d2d6c7b5ec6808026a0508e412e39349adfbed0dc57fded0a69d67fa01afdc03fdba6c39769204c12e8a054e9f241f0d4ef0660dcafd44515b8e547ecddf00e97706a76018a0bb2c6ac31",
                    "indexes": {
                        "data": 0,
                        "gas": 0,
                        "value": 0
                    },
                    "state": {
                        "0x0f572e5295c57f15886f9b263e2f6d2d6c7b5ec6": {
                            "nonce": "0x01",
                            "balance": "0x00",
                            "code": "0x6000600e80601760003960006000f5503d6000550000fe6211223360005260206000fd0000",
                            "storage": {
                                "0x00": "0x20"
                            }
                        },
                        "0xa94f5374fce5edbc8e2a8697c15331677e6ebf0b": {
                            "nonce": "0x01",
                            "balance": "0x63fff723ea",
                            "code": "0x",
                            "storage": {}
                        }
                    }
                }
            ]
        },
        "config": {
            "blobSchedule": {
                "Cancun": {
                    "target": "0x03",
                    "max": "0x06",
                    "baseFeeUpdateFraction": "0x32f0ed"
                },
                "Prague": {
                    "target": "0x06",
                    "max": "0x09",
                    "baseFeeUpdateFraction": "0x4c6964"
                }
            },
            "chainid": "0x01"
        },
        "_info": {
            "hash": "0x6cd0e3f5b87001f1325c3756a3714fec6416b215a9c87c5f71865c7d8cc98500",
            "comment": "`execution-specs` generated test",
            "filling-transition-tool": "2.18.0rc6",
            "description": "No description available - add a docstring to the python test class or function.",
            "url": "",
            "fixture-format": "state_test"
        }
    }
}