{
    "tests/ported_static/stMemoryTest/test_calldatacopy_dejavu2.py::test_calldatacopy_dejavu2[fork_Cancun-blockchain_test_from_state_test]": {
        "network": "Cancun",
        "genesisBlockHeader": {
            "parentHash": "0x0000000000000000000000000000000000000000000000000000000000000000",
            "uncleHash": "0x1dcc4de8dec75d7aab85b567b6ccd41ad312451b948a7413f0a142fd40d49347",
            "coinbase": "0x0000000000000000000000000000000000000000",
            "stateRoot": "0x908ca074854d525aedb2889608f077ecc2ebb29e8d5c2a3e4b5fa0657c8c0d0c",
            "transactionsTrie": "0x56e81f171bcc55a6ff8345e692c0f86e5b48e01b996cadc001622fb5e363b421",
            "receiptTrie": "0x56e81f171bcc55a6ff8345e692c0f86e5b48e01b996cadc001622fb5e363b421",
            "bloom": "0x00000000000000000000000000000000000000000000000000000000000000000000000000000000000000000000000000000000000000000000000000000000000000000000000000000000000000000000000000000000000000000000000000000000000000000000000000000000000000000000000000000000000000000000000000000000000000000000000000000000000000000000000000000000000000000000000000000000000000000000000000000000000000000000000000000000000000000000000000000000000000000000000000000000000000000000000000000000000000000000000000000000000000000000000000000000",
            "difficulty": "0x00",
            "number": "0x00",
            "gasLimit": "0x0c540be400",
            "gasUsed": "0x00",
            "timestamp": "0x00",
            "extraData": "0x00",
            "mixHash": "0x0000000000000000000000000000000000000000000000000000000000000000",
            "nonce": "0x0000000000000000",
            "baseFeePerGas": "0x0b",
            "withdrawalsRoot": "0x56e81f171bcc55a6ff8345e692c0f86e5b48e01b996cadc001622fb5e363b421",
            "blobGasUsed": "0x00",
            "excessBlobGas": "0x00",
            "parentBeaconBlockRoot": "0x0000000000000000000000000000000000000000000000000000000000000000",
            "hash": "0x0b3c4fb06f46e749f35d2ed219c751b9fd25662982e1db7c9c020f8257e68159"
        },
        "pre": {
            "0x000f3df6d732807ef1319fb7b8bb8522d0beac02": {
                "nonce": "0x01",
                "balance": "0x00",
                "code": "0x3373fffffffffffffffffffffffffffffffffffffffe14604d57602036146024575f5ffd5b5f35801560495762001fff810690815414603c575f5ffd5b62001fff01545f5260205ff35b5f5ffd5b62001fff42064281555f359062001fff015500",
                "storage": {}
            },
            "0xd6a7f80046f7576fa76ee5198426097f149e60ff": {
                "nonce": "0x00",
                "balance": "0x0de0b6b3a7640000",
                "code": "0x6042601f536101036000601f37606060005114601f57640badc0ffee60ff555b00",
                "storage": {}
            },
            "0x894d19064bdc4e212b2e634e18a2b765d52e9b54": {
                "nonce": "0x00",
                "balance": "0x271000000000",
                "code": "0x",
                "storage": {}
            }
        },
        "postState": {
            "0x000f3df6d732807ef1319fb7b8bb8522d0beac02": {
                "nonce": "0x01",
                "balance": "0x00",
                "code": "0x3373fffffffffffffffffffffffffffffffffffffffe14604d57602036146024575f5ffd5b5f35801560495762001fff810690815414603c575f5ffd5b62001fff01545f5260205ff35b5f5ffd5b62001fff42064281555f359062001fff015500",
                "storage": {
                    "0x03e8": "0x03e8"
                }
            },
            "0xd6a7f80046f7576fa76ee5198426097f149e60ff": {
                "nonce": "0x00",
                "balance": "0x0de0b6b3a764000a",
                "code": "0x6042601f536101036000601f37606060005114601f57640badc0ffee60ff555b00",
                "storage": {
                    "0xff": "0x0badc0ffee"
                }
            },
            "0x894d19064bdc4e212b2e634e18a2b765d52e9b54": {
                "nonce": "0x01",
                "balance": "0x270ffff96812",
                "code": "0x",
                "storage": {}
            }
        },
        "lastblockhash": "0xd8d0d0e3cd006174a8ae0fa448cc730ccd516390fb3aaa4c7c8d7a4d5030f3dc",
        "config": {
            "network": "Cancun",
            "chainid": "0x01",
            "blobSchedule": {
                "Cancun": {
                    "target": "0x03",
                    "max": "0x06",
                    "baseFeeUpdateFraction": "0x32f0ed"
                }
            }
        },
        "genesisRLP": "0xf9023df90237a00000000000000000000000000000000000000000000000000000000000000000a01dcc4de8dec75d7aab85b567b6ccd41ad312451b948a7413f0a142fd40d49347940000000000000000000000000000000000000000a0908ca074854d525aedb2889608f077ecc2ebb29e8d5c2a3e4b5fa0657c8c0d0ca056e81f171bcc55a6ff8345e692c0f86e5b48e01b996cadc001622fb5e363b421a056e81f171bcc55a6ff8345e692c0f86e5b48e01b996cadc001622fb5e363b421b90100000000000000000000000000000000000000000000000000000000000000000000000000000000000000000000000000000000000000000000000000000000000000000000000000000000000000000000000000000000000000000000000000000000000000000000000000000000000000000000000000000000000000000000000000000000000000000000000000000000000000000000000000000000000000000000000000000000000000000000000000000000000000000000000000000000000000000000000000000000000000000000000000000000000000000000000000000000000000000000000000000000000000000000000000000000008080850c540be400808000a000000000000000000000000000000000000000000000000000000000000000008800000000000000000ba056e81f171bcc55a6ff8345e692c0f86e5b48e01b996cadc001622fb5e363b4218080a00000000000000000000000000000000000000000000000000000000000000000c0c0c0",
        "blocks": [
            {
                "blockHeader": {
                    "parentHash": "0x0b3c4fb06f46e749f35d2ed219c751b9fd25662982e1db7c9c020f8257e68159",
                    "uncleHash": "0x1dcc4de8dec75d7aab85b567b6ccd41ad312451b948a7413f0a142fd40d49347",
                    "coinbase": "0x2adc25665018aa1fe0e6bc666dac8fc2697ff9ba",
                    "stateRoot": "0x3672851fe97a38d244bd86c8447e0ec41a429676bd9cc5388d9f00e018de1387",
                    "transactionsTrie": "0x62528ce042a19d5bf78bc0ab240904a39cb3c5fc24ab4c7360db48b10166e276",
                    "receiptTrie": "0x8c1cb5ceb0d48131ddde2da15b371c5c2617113a1680d132c10ff5129464a948",
                    "bloom": "0x00000000000000000000000000000000000000000000000000000000000000000000000000000000000000000000000000000000000000000000000000000000000000000000000000000000000000000000000000000000000000000000000000000000000000000000000000000000000000000000000000000000000000000000000000000000000000000000000000000000000000000000000000000000000000000000000000000000000000000000000000000000000000000000000000000000000000000000000000000000000000000000000000000000000000000000000000000000000000000000000000000000000000000000000000000000",
                    "difficulty": "0x00",
                    "number": "0x01",
                    "gasLimit": "0x0c540be400",
                    "gasUsed": "0xa8ca",
                    "timestamp": "0x03e8",
                    "extraData": "0x00",
                    "mixHash": "0x0000000000000000000000000000000000000000000000000000000000020000",
                    "nonce": "0x0000000000000000",
                    "baseFeePerGas": "0x0a",
                    "withdrawalsRoot": "0x56e81f171bcc55a6ff8345e692c0f86e5b48e01b996cadc001622fb5e363b421",
                    "blobGasUsed": "0x00",
                    "excessBlobGas": "0x00",
                    "parentBeaconBlockRoot": "0x0000000000000000000000000000000000000000000000000000000000000000",
                    "hash": "0xd8d0d0e3cd006174a8ae0fa448cc730ccd516390fb3aaa4c7c8d7a4d5030f3dc"
                },
                "transactions": [
                    {
                        "type": "0x00",
                        "chainId": "0x01",
                        "nonce": "0x00",
                        "gasPrice": "0x0a",
                        "gasLimit": "0x0186a0",
                        "to": "0xd6a7f80046f7576fa76ee5198426097f149e60ff",
                        "value": "0x0a",
                        "data": "0x",
                        "v": "0x25",
                        "r": "0x95a6f305b2d9246a22ec4050ebbf639d180efea8ccf28dc5303d9172ea7cfef5",
                        "s": "0x07a1d39d1d4535f323260a6ee5b992d33ce030ea6cc0ef374471bb2ba894adff",
                        "sender": "0x894d19064bdc4e212b2e634e18a2b765d52e9b54"
                    }
                ],
                "uncleHeaders": [],
                "withdrawals": [],
                "receipts": [
                    {
                        "transactionHash": "0xd166b77109a88d50a8de90abc94d7023480985b5a62765fba109dc4483851b63",
                        "type": "0x00",
                        "cumulativeGasUsed": "0xa8ca",
                        "bloom": "0x00000000000000000000000000000000000000000000000000000000000000000000000000000000000000000000000000000000000000000000000000000000000000000000000000000000000000000000000000000000000000000000000000000000000000000000000000000000000000000000000000000000000000000000000000000000000000000000000000000000000000000000000000000000000000000000000000000000000000000000000000000000000000000000000000000000000000000000000000000000000000000000000000000000000000000000000000000000000000000000000000000000000000000000000000000000",
                        "logs": [],
                        "status": true,
                        "rlp": "0xf901080182a8cab9010000000000000000000000000000000000000000000000000000000000000000000000000000000000000000000000000000000000000000000000000000000000000000000000000000000000000000000000000000000000000000000000000000000000000000000000000000000000000000000000000000000000000000000000000000000000000000000000000000000000000000000000000000000000000000000000000000000000000000000000000000000000000000000000000000000000000000000000000000000000000000000000000000000000000000000000000000000000000000000000000000000000000000000000000000000000c0"
                    }
                ],
                "rlp": "0xf902a4f9023ba00b3c4fb06f46e749f35d2ed219c751b9fd25662982e1db7c9c020f8257e68159a01dcc4de8dec75d7aab85b567b6ccd41ad312451b948a7413f0a142fd40d49347942adc25665018aa1fe0e6bc666dac8fc2697ff9baa03672851fe97a38d244bd86c8447e0ec41a429676bd9cc5388d9f00e018de1387a062528ce042a19d5bf78bc0ab240904a39cb3c5fc24ab4c7360db48b10166e276a08c1cb5ceb0d48131ddde2da15b371c5c2617113a1680d132c10ff5129464a948b90100000000000000000000000000000000000000000000000000000000000000000000000000000000000000000000000000000000000000000000000000000000000000000000000000000000000000000000000000000000000000000000000000000000000000000000000000000000000000000000000000000000000000000000000000000000000000000000000000000000000000000000000000000000000000000000000000000000000000000000000000000000000000000000000000000000000000000000000000000000000000000000000000000000000000000000000000000000000000000000000000000000000000000000000000000000008001850c540be40082a8ca8203e800a000000000000000000000000000000000000000000000000000000000000200008800000000000000000aa056e81f171bcc55a6ff8345e692c0f86e5b48e01b996cadc001622fb5e363b4218080a00000000000000000000000000000000000000000000000000000000000000000f862f860800a830186a094d6a7f80046f7576fa76ee5198426097f149e60ff0a8025a095a6f305b2d9246a22ec4050ebbf639d180efea8ccf28dc5303d9172ea7cfef5a007a1d39d1d4535f323260a6ee5b992d33ce030ea6cc0ef374471bb2ba894adffc0c0",
                "blocknumber": "1"
            }
        ],
        "sealEngine": "NoProof",
        "_info": {
            "hash": "0x59a2e285e5881a443567ecf72556b8f94bedf8dfc2c3364cf36bf1e1ce09f914",
            "fixture-format": "blockchain_test",
            "comment": "`execution-specs` generated test",
            "filling-transition-tool": "2.19.0",
            "description": "Test_calldatacopy_dejavu2.",
            "url": "https://github.com/ethereum/execution-specs/blob/tests-bal@v5.6.1/tests/ported_static/stMemoryTest/test_calldatacopy_dejavu2.py#L25",
            "metadata": {
                "opcode_count": {}
            }
        }
    }
}