{
    "tests/static/state_tests/stArgsZeroOneBalance/byteNonConstFiller.yml::byteNonConst[fork_Cancun-state_test--v0]": {
        "env": {
            "currentCoinbase": "0x2adc25665018aa1fe0e6bc666dac8fc2697ff9ba",
            "currentGasLimit": "0x0f4240",
            "currentNumber": "0x01",
            "currentTimestamp": "0x03e8",
            "currentRandom": "0x0000000000000000000000000000000000000000000000000000000000020000",
            "currentDifficulty": "0x00",
            "currentBaseFee": "0x0a",
            "currentExcessBlobGas": "0x00"
        },
        "pre": {
            "0xb1b4f56c9043dd161456d56fe0c0a921f33b7028": {
                "nonce": "0x00",
                "balance": "0x0de0b6b3a7640000",
                "code": "0x",
                "storage": {}
            },
            "0xc9c7be3542bd0290920e3d1a896800cbebc5ca31": {
                "nonce": "0x00",
                "balance": "0x00",
                "code": "0x73c9c7be3542bd0290920e3d1a896800cbebc5ca313173c9c7be3542bd0290920e3d1a896800cbebc5ca31311a60005500",
                "storage": {}
            }
        },
        "transaction": {
            "nonce": "0x00",
            "gasPrice": "0x0a",
            "gasLimit": [
                "0x061a80"
            ],
            "to": "0xc9c7be3542bd0290920e3d1a896800cbebc5ca31",
            "value": [
                "0x00"
            ],
            "data": [
                "0x"
            ],
            "sender": "0xb1b4f56c9043dd161456d56fe0c0a921f33b7028",
            "secretKey": "0xa775213dfea40779c70eb880c9c7be3542bd0290920e3d1a896800cbebc5ca31"
        },
        "post": {
            "Cancun": [
                {
                    "hash": "0xf6ecf81147cdd3cae5af659971cb7ad18a8ec93684705bf47bb060d14b1fc4d8",
                    "logs": "0x1dcc4de8dec75d7aab85b567b6ccd41ad312451b948a7413f0a142fd40d49347",
                    "txbytes": "0xf860800a83061a8094c9c7be3542bd0290920e3d1a896800cbebc5ca31808025a04a95671bae3aca27ce0d8917fee46308c65c0b6eada26d31c236235d45c350daa067e2af67f046b3e6f3c75522454eafa341b2d33239d6262819ae36dc517cd998",
                    "indexes": {
                        "data": 0,
                        "gas": 0,
                        "value": 0
                    },
                    "state": {
                        "0xb1b4f56c9043dd161456d56fe0c0a921f33b7028": {
                            "nonce": "0x01",
                            "balance": "0x0de0b6b3a7606d78",
                            "code": "0x",
                            "storage": {}
                        },
                        "0xc9c7be3542bd0290920e3d1a896800cbebc5ca31": {
                            "nonce": "0x00",
                            "balance": "0x00",
                            "code": "0x73c9c7be3542bd0290920e3d1a896800cbebc5ca313173c9c7be3542bd0290920e3d1a896800cbebc5ca31311a60005500",
                            "storage": {}
                        }
                    }
                }
            ]
        },
        "config": {
            "blobSchedule": {
                "Cancun": {
                    "target": "0x03",
                    "max": "0x06",
                    "baseFeeUpdateFraction": "0x32f0ed"
                }
            },
            "chainid": "0x01"
        },
        "_info": {
            "hash": "0x55cfa75f4d513957dd7752e87bdea69bf6f8738b03d203f20810dd571d594015",
            "comment": "`execution-spec-tests` generated test",
            "filling-transition-tool": "ethereum-spec-evm-resolver 0.0.5",
            "description": "No description available - add a docstring to the python test class or function.",
            "url": "",
            "fixture-format": "state_test",
            "eels-resolution": {
                "git-url": "https://github.com/ethereum/execution-specs.git",
                "branch": "forks/bpos",
                "commit": "7aacb2c54111391af5e98c505d5010b5698a770f"
            }
        }
    },
    "tests/static/state_tests/stArgsZeroOneBalance/byteNonConstFiller.yml::byteNonConst[fork_Cancun-state_test--v1]": {
        "env": {
            "currentCoinbase": "0x2adc25665018aa1fe0e6bc666dac8fc2697ff9ba",
            "currentGasLimit": "0x0f4240",
            "currentNumber": "0x01",
            "currentTimestamp": "0x03e8",
            "currentRandom": "0x0000000000000000000000000000000000000000000000000000000000020000",
            "currentDifficulty": "0x00",
            "currentBaseFee": "0x0a",
            "currentExcessBlobGas": "0x00"
        },
        "pre": {
            "0xb9535f87e7567e27865bfcda6aaa27695a259631": {
                "nonce": "0x00",
                "balance": "0x0de0b6b3a7640000",
                "code": "0x",
                "storage": {}
            },
            "0x8c9db528c401384b5ad7f8eccc5630448a577b4d": {
                "nonce": "0x00",
                "balance": "0x00",
                "code": "0x738c9db528c401384b5ad7f8eccc5630448a577b4d31738c9db528c401384b5ad7f8eccc5630448a577b4d311a60005500",
                "storage": {}
            }
        },
        "transaction": {
            "nonce": "0x00",
            "gasPrice": "0x0a",
            "gasLimit": [
                "0x061a80"
            ],
            "to": "0x8c9db528c401384b5ad7f8eccc5630448a577b4d",
            "value": [
                "0x01"
            ],
            "data": [
                "0x"
            ],
            "sender": "0xb9535f87e7567e27865bfcda6aaa27695a259631",
            "secretKey": "0xd62dd901c1609f022d5670c88c9db528c401384b5ad7f8eccc5630448a577b4d"
        },
        "post": {
            "Cancun": [
                {
                    "hash": "0xb47549db2417d72cb6886de1f990cb7229457ac4426391d724ee4a1bd40a5821",
                    "logs": "0x1dcc4de8dec75d7aab85b567b6ccd41ad312451b948a7413f0a142fd40d49347",
                    "txbytes": "0xf860800a83061a80948c9db528c401384b5ad7f8eccc5630448a577b4d018025a07efa071d26fc380150855d919b2695c9f34aac433a1eba26b87398f000a73a64a0062d8bea0d4b19b9daade6b69168294a2eb3d9e1852de4e9fdb2a72c9146ffa6",
                    "indexes": {
                        "data": 0,
                        "gas": 0,
                        "value": 0
                    },
                    "state": {
                        "0xb9535f87e7567e27865bfcda6aaa27695a259631": {
                            "nonce": "0x01",
                            "balance": "0x0de0b6b3a7606d77",
                            "code": "0x",
                            "storage": {}
                        },
                        "0x8c9db528c401384b5ad7f8eccc5630448a577b4d": {
                            "nonce": "0x00",
                            "balance": "0x01",
                            "code": "0x738c9db528c401384b5ad7f8eccc5630448a577b4d31738c9db528c401384b5ad7f8eccc5630448a577b4d311a60005500",
                            "storage": {}
                        }
                    }
                }
            ]
        },
        "config": {
            "blobSchedule": {
                "Cancun": {
                    "target": "0x03",
                    "max": "0x06",
                    "baseFeeUpdateFraction": "0x32f0ed"
                }
            },
            "chainid": "0x01"
        },
        "_info": {
            "hash": "0x9d713588581b8093f15a8532a46c603607f39c7b9d1534eebd501f6ef74b9196",
            "comment": "`execution-spec-tests` generated test",
            "filling-transition-tool": "ethereum-spec-evm-resolver 0.0.5",
            "description": "No description available - add a docstring to the python test class or function.",
            "url": "",
            "fixture-format": "state_test",
            "eels-resolution": {
                "git-url": "https://github.com/ethereum/execution-specs.git",
                "branch": "forks/bpos",
                "commit": "7aacb2c54111391af5e98c505d5010b5698a770f"
            }
        }
    },
    "tests/static/state_tests/stArgsZeroOneBalance/byteNonConstFiller.yml::byteNonConst[fork_Osaka-state_test--v0]": {
        "env": {
            "currentCoinbase": "0x2adc25665018aa1fe0e6bc666dac8fc2697ff9ba",
            "currentGasLimit": "0x0f4240",
            "currentNumber": "0x01",
            "currentTimestamp": "0x03e8",
            "currentRandom": "0x0000000000000000000000000000000000000000000000000000000000020000",
            "currentDifficulty": "0x00",
            "currentBaseFee": "0x0a",
            "currentExcessBlobGas": "0x00"
        },
        "pre": {
            "0xb1b4f56c9043dd161456d56fe0c0a921f33b7028": {
                "nonce": "0x00",
                "balance": "0x0de0b6b3a7640000",
                "code": "0x",
                "storage": {}
            },
            "0xc9c7be3542bd0290920e3d1a896800cbebc5ca31": {
                "nonce": "0x00",
                "balance": "0x00",
                "code": "0x73c9c7be3542bd0290920e3d1a896800cbebc5ca313173c9c7be3542bd0290920e3d1a896800cbebc5ca31311a60005500",
                "storage": {}
            }
        },
        "transaction": {
            "nonce": "0x00",
            "gasPrice": "0x0a",
            "gasLimit": [
                "0x061a80"
            ],
            "to": "0xc9c7be3542bd0290920e3d1a896800cbebc5ca31",
            "value": [
                "0x00"
            ],
            "data": [
                "0x"
            ],
            "sender": "0xb1b4f56c9043dd161456d56fe0c0a921f33b7028",
            "secretKey": "0xa775213dfea40779c70eb880c9c7be3542bd0290920e3d1a896800cbebc5ca31"
        },
        "post": {
            "Osaka": [
                {
                    "hash": "0xf6ecf81147cdd3cae5af659971cb7ad18a8ec93684705bf47bb060d14b1fc4d8",
                    "logs": "0x1dcc4de8dec75d7aab85b567b6ccd41ad312451b948a7413f0a142fd40d49347",
                    "txbytes": "0xf860800a83061a8094c9c7be3542bd0290920e3d1a896800cbebc5ca31808025a04a95671bae3aca27ce0d8917fee46308c65c0b6eada26d31c236235d45c350daa067e2af67f046b3e6f3c75522454eafa341b2d33239d6262819ae36dc517cd998",
                    "indexes": {
                        "data": 0,
                        "gas": 0,
                        "value": 0
                    },
                    "state": {
                        "0xb1b4f56c9043dd161456d56fe0c0a921f33b7028": {
                            "nonce": "0x01",
                            "balance": "0x0de0b6b3a7606d78",
                            "code": "0x",
                            "storage": {}
                        },
                        "0xc9c7be3542bd0290920e3d1a896800cbebc5ca31": {
                            "nonce": "0x00",
                            "balance": "0x00",
                            "code": "0x73c9c7be3542bd0290920e3d1a896800cbebc5ca313173c9c7be3542bd0290920e3d1a896800cbebc5ca31311a60005500",
                            "storage": {}
                        }
                    }
                }
            ]
        },
        "config": {
            "blobSchedule": {
                "Cancun": {
                    "target": "0x03",
                    "max": "0x06",
                    "baseFeeUpdateFraction": "0x32f0ed"
                },
                "Prague": {
                    "target": "0x06",
                    "max": "0x09",
                    "baseFeeUpdateFraction": "0x4c6964"
                },
                "Osaka": {
                    "target": "0x06",
                    "max": "0x09",
                    "baseFeeUpdateFraction": "0x4c6964"
                }
            },
            "chainid": "0x01"
        },
        "_info": {
            "hash": "0x5132c720f5dc116646a907d0b02c48fe942b4d984dcc4eddcf87d95ee52f97f1",
            "comment": "`execution-spec-tests` generated test",
            "filling-transition-tool": "ethereum-spec-evm-resolver 0.0.5",
            "description": "No description available - add a docstring to the python test class or function.",
            "url": "",
            "fixture-format": "state_test",
            "eels-resolution": {
                "git-url": "https://github.com/ethereum/execution-specs.git",
                "branch": "forks/bpos",
                "commit": "7aacb2c54111391af5e98c505d5010b5698a770f"
            }
        }
    },
    "tests/static/state_tests/stArgsZeroOneBalance/byteNonConstFiller.yml::byteNonConst[fork_Osaka-state_test--v1]": {
        "env": {
            "currentCoinbase": "0x2adc25665018aa1fe0e6bc666dac8fc2697ff9ba",
            "currentGasLimit": "0x0f4240",
            "currentNumber": "0x01",
            "currentTimestamp": "0x03e8",
            "currentRandom": "0x0000000000000000000000000000000000000000000000000000000000020000",
            "currentDifficulty": "0x00",
            "currentBaseFee": "0x0a",
            "currentExcessBlobGas": "0x00"
        },
        "pre": {
            "0xb9535f87e7567e27865bfcda6aaa27695a259631": {
                "nonce": "0x00",
                "balance": "0x0de0b6b3a7640000",
                "code": "0x",
                "storage": {}
            },
            "0x8c9db528c401384b5ad7f8eccc5630448a577b4d": {
                "nonce": "0x00",
                "balance": "0x00",
                "code": "0x738c9db528c401384b5ad7f8eccc5630448a577b4d31738c9db528c401384b5ad7f8eccc5630448a577b4d311a60005500",
                "storage": {}
            }
        },
        "transaction": {
            "nonce": "0x00",
            "gasPrice": "0x0a",
            "gasLimit": [
                "0x061a80"
            ],
            "to": "0x8c9db528c401384b5ad7f8eccc5630448a577b4d",
            "value": [
                "0x01"
            ],
            "data": [
                "0x"
            ],
            "sender": "0xb9535f87e7567e27865bfcda6aaa27695a259631",
            "secretKey": "0xd62dd901c1609f022d5670c88c9db528c401384b5ad7f8eccc5630448a577b4d"
        },
        "post": {
            "Osaka": [
                {
                    "hash": "0xb47549db2417d72cb6886de1f990cb7229457ac4426391d724ee4a1bd40a5821",
                    "logs": "0x1dcc4de8dec75d7aab85b567b6ccd41ad312451b948a7413f0a142fd40d49347",
                    "txbytes": "0xf860800a83061a80948c9db528c401384b5ad7f8eccc5630448a577b4d018025a07efa071d26fc380150855d919b2695c9f34aac433a1eba26b87398f000a73a64a0062d8bea0d4b19b9daade6b69168294a2eb3d9e1852de4e9fdb2a72c9146ffa6",
                    "indexes": {
                        "data": 0,
                        "gas": 0,
                        "value": 0
                    },
                    "state": {
                        "0xb9535f87e7567e27865bfcda6aaa27695a259631": {
                            "nonce": "0x01",
                            "balance": "0x0de0b6b3a7606d77",
                            "code": "0x",
                            "storage": {}
                        },
                        "0x8c9db528c401384b5ad7f8eccc5630448a577b4d": {
                            "nonce": "0x00",
                            "balance": "0x01",
                            "code": "0x738c9db528c401384b5ad7f8eccc5630448a577b4d31738c9db528c401384b5ad7f8eccc5630448a577b4d311a60005500",
                            "storage": {}
                        }
                    }
                }
            ]
        },
        "config": {
            "blobSchedule": {
                "Cancun": {
                    "target": "0x03",
                    "max": "0x06",
                    "baseFeeUpdateFraction": "0x32f0ed"
                },
                "Prague": {
                    "target": "0x06",
                    "max": "0x09",
                    "baseFeeUpdateFraction": "0x4c6964"
                },
                "Osaka": {
                    "target": "0x06",
                    "max": "0x09",
                    "baseFeeUpdateFraction": "0x4c6964"
                }
            },
            "chainid": "0x01"
        },
        "_info": {
            "hash": "0xa0e463fd54727bf0b371018e85dd4b69f23e52c6204bd93810bebd921e24d912",
            "comment": "`execution-spec-tests` generated test",
            "filling-transition-tool": "ethereum-spec-evm-resolver 0.0.5",
            "description": "No description available - add a docstring to the python test class or function.",
            "url": "",
            "fixture-format": "state_test",
            "eels-resolution": {
                "git-url": "https://github.com/ethereum/execution-specs.git",
                "branch": "forks/bpos",
                "commit": "7aacb2c54111391af5e98c505d5010b5698a770f"
            }
        }
    },
    "tests/static/state_tests/stArgsZeroOneBalance/byteNonConstFiller.yml::byteNonConst[fork_Prague-state_test--v0]": {
        "env": {
            "currentCoinbase": "0x2adc25665018aa1fe0e6bc666dac8fc2697ff9ba",
            "currentGasLimit": "0x0f4240",
            "currentNumber": "0x01",
            "currentTimestamp": "0x03e8",
            "currentRandom": "0x0000000000000000000000000000000000000000000000000000000000020000",
            "currentDifficulty": "0x00",
            "currentBaseFee": "0x0a",
            "currentExcessBlobGas": "0x00"
        },
        "pre": {
            "0xb1b4f56c9043dd161456d56fe0c0a921f33b7028": {
                "nonce": "0x00",
                "balance": "0x0de0b6b3a7640000",
                "code": "0x",
                "storage": {}
            },
            "0xc9c7be3542bd0290920e3d1a896800cbebc5ca31": {
                "nonce": "0x00",
                "balance": "0x00",
                "code": "0x73c9c7be3542bd0290920e3d1a896800cbebc5ca313173c9c7be3542bd0290920e3d1a896800cbebc5ca31311a60005500",
                "storage": {}
            }
        },
        "transaction": {
            "nonce": "0x00",
            "gasPrice": "0x0a",
            "gasLimit": [
                "0x061a80"
            ],
            "to": "0xc9c7be3542bd0290920e3d1a896800cbebc5ca31",
            "value": [
                "0x00"
            ],
            "data": [
                "0x"
            ],
            "sender": "0xb1b4f56c9043dd161456d56fe0c0a921f33b7028",
            "secretKey": "0xa775213dfea40779c70eb880c9c7be3542bd0290920e3d1a896800cbebc5ca31"
        },
        "post": {
            "Prague": [
                {
                    "hash": "0xf6ecf81147cdd3cae5af659971cb7ad18a8ec93684705bf47bb060d14b1fc4d8",
                    "logs": "0x1dcc4de8dec75d7aab85b567b6ccd41ad312451b948a7413f0a142fd40d49347",
                    "txbytes": "0xf860800a83061a8094c9c7be3542bd0290920e3d1a896800cbebc5ca31808025a04a95671bae3aca27ce0d8917fee46308c65c0b6eada26d31c236235d45c350daa067e2af67f046b3e6f3c75522454eafa341b2d33239d6262819ae36dc517cd998",
                    "indexes": {
                        "data": 0,
                        "gas": 0,
                        "value": 0
                    },
                    "state": {
                        "0xb1b4f56c9043dd161456d56fe0c0a921f33b7028": {
                            "nonce": "0x01",
                            "balance": "0x0de0b6b3a7606d78",
                            "code": "0x",
                            "storage": {}
                        },
                        "0xc9c7be3542bd0290920e3d1a896800cbebc5ca31": {
                            "nonce": "0x00",
                            "balance": "0x00",
                            "code": "0x73c9c7be3542bd0290920e3d1a896800cbebc5ca313173c9c7be3542bd0290920e3d1a896800cbebc5ca31311a60005500",
                            "storage": {}
                        }
                    }
                }
            ]
        },
        "config": {
            "blobSchedule": {
                "Cancun": {
                    "target": "0x03",
                    "max": "0x06",
                    "baseFeeUpdateFraction": "0x32f0ed"
                },
                "Prague": {
                    "target": "0x06",
                    "max": "0x09",
                    "baseFeeUpdateFraction": "0x4c6964"
                }
            },
            "chainid": "0x01"
        },
        "_info": {
            "hash": "0xe16de98d5bb56b02820a5564850eb4063433a9505a5d404eb46a0c97e6942793",
            "comment": "`execution-spec-tests` generated test",
            "filling-transition-tool": "ethereum-spec-evm-resolver 0.0.5",
            "description": "No description available - add a docstring to the python test class or function.",
            "url": "",
            "fixture-format": "state_test",
            "eels-resolution": {
                "git-url": "https://github.com/ethereum/execution-specs.git",
                "branch": "forks/bpos",
                "commit": "7aacb2c54111391af5e98c505d5010b5698a770f"
            }
        }
    },
    "tests/static/state_tests/stArgsZeroOneBalance/byteNonConstFiller.yml::byteNonConst[fork_Prague-state_test--v1]": {
        "env": {
            "currentCoinbase": "0x2adc25665018aa1fe0e6bc666dac8fc2697ff9ba",
            "currentGasLimit": "0x0f4240",
            "currentNumber": "0x01",
            "currentTimestamp": "0x03e8",
            "currentRandom": "0x0000000000000000000000000000000000000000000000000000000000020000",
            "currentDifficulty": "0x00",
            "currentBaseFee": "0x0a",
            "currentExcessBlobGas": "0x00"
        },
        "pre": {
            "0xb9535f87e7567e27865bfcda6aaa27695a259631": {
                "nonce": "0x00",
                "balance": "0x0de0b6b3a7640000",
                "code": "0x",
                "storage": {}
            },
            "0x8c9db528c401384b5ad7f8eccc5630448a577b4d": {
                "nonce": "0x00",
                "balance": "0x00",
                "code": "0x738c9db528c401384b5ad7f8eccc5630448a577b4d31738c9db528c401384b5ad7f8eccc5630448a577b4d311a60005500",
                "storage": {}
            }
        },
        "transaction": {
            "nonce": "0x00",
            "gasPrice": "0x0a",
            "gasLimit": [
                "0x061a80"
            ],
            "to": "0x8c9db528c401384b5ad7f8eccc5630448a577b4d",
            "value": [
                "0x01"
            ],
            "data": [
                "0x"
            ],
            "sender": "0xb9535f87e7567e27865bfcda6aaa27695a259631",
            "secretKey": "0xd62dd901c1609f022d5670c88c9db528c401384b5ad7f8eccc5630448a577b4d"
        },
        "post": {
            "Prague": [
                {
                    "hash": "0xb47549db2417d72cb6886de1f990cb7229457ac4426391d724ee4a1bd40a5821",
                    "logs": "0x1dcc4de8dec75d7aab85b567b6ccd41ad312451b948a7413f0a142fd40d49347",
                    "txbytes": "0xf860800a83061a80948c9db528c401384b5ad7f8eccc5630448a577b4d018025a07efa071d26fc380150855d919b2695c9f34aac433a1eba26b87398f000a73a64a0062d8bea0d4b19b9daade6b69168294a2eb3d9e1852de4e9fdb2a72c9146ffa6",
                    "indexes": {
                        "data": 0,
                        "gas": 0,
                        "value": 0
                    },
                    "state": {
                        "0xb9535f87e7567e27865bfcda6aaa27695a259631": {
                            "nonce": "0x01",
                            "balance": "0x0de0b6b3a7606d77",
                            "code": "0x",
                            "storage": {}
                        },
                        "0x8c9db528c401384b5ad7f8eccc5630448a577b4d": {
                            "nonce": "0x00",
                            "balance": "0x01",
                            "code": "0x738c9db528c401384b5ad7f8eccc5630448a577b4d31738c9db528c401384b5ad7f8eccc5630448a577b4d311a60005500",
                            "storage": {}
                        }
                    }
                }
            ]
        },
        "config": {
            "blobSchedule": {
                "Cancun": {
                    "target": "0x03",
                    "max": "0x06",
                    "baseFeeUpdateFraction": "0x32f0ed"
                },
                "Prague": {
                    "target": "0x06",
                    "max": "0x09",
                    "baseFeeUpdateFraction": "0x4c6964"
                }
            },
            "chainid": "0x01"
        },
        "_info": {
            "hash": "0xd2657b40e89d17e2eaf66cf1739d81eb9017dec883a48201f0482805f66c0d6e",
            "comment": "`execution-spec-tests` generated test",
            "filling-transition-tool": "ethereum-spec-evm-resolver 0.0.5",
            "description": "No description available - add a docstring to the python test class or function.",
            "url": "",
            "fixture-format": "state_test",
            "eels-resolution": {
                "git-url": "https://github.com/ethereum/execution-specs.git",
                "branch": "forks/bpos",
                "commit": "7aacb2c54111391af5e98c505d5010b5698a770f"
            }
        }
    }
}