{
    "tests/static/state_tests/stArgsZeroOneBalance/delegatecallNonConstFiller.yml::delegatecallNonConst[fork_Cancun-state_test--v0]": {
        "env": {
            "currentCoinbase": "0x2adc25665018aa1fe0e6bc666dac8fc2697ff9ba",
            "currentGasLimit": "0x0f4240",
            "currentNumber": "0x01",
            "currentTimestamp": "0x03e8",
            "currentRandom": "0x0000000000000000000000000000000000000000000000000000000000020000",
            "currentDifficulty": "0x00",
            "currentBaseFee": "0x0a",
            "currentExcessBlobGas": "0x00"
        },
        "pre": {
            "0x38b822c198f4e2d306a099539d71f8d116ae87f2": {
                "nonce": "0x00",
                "balance": "0x0de0b6b3a7640000",
                "code": "0x",
                "storage": {}
            },
            "0x68baa9921484b5859264326adfe7505e7a7e9d1b": {
                "nonce": "0x00",
                "balance": "0x00",
                "code": "0x7368baa9921484b5859264326adfe7505e7a7e9d1b317368baa9921484b5859264326adfe7505e7a7e9d1b317368baa9921484b5859264326adfe7505e7a7e9d1b317368baa9921484b5859264326adfe7505e7a7e9d1b317368baa9921484b5859264326adfe7505e7a7e9d1b317368baa9921484b5859264326adfe7505e7a7e9d1b31f460005500",
                "storage": {}
            }
        },
        "transaction": {
            "nonce": "0x00",
            "gasPrice": "0x0a",
            "gasLimit": [
                "0x061a80"
            ],
            "to": "0x68baa9921484b5859264326adfe7505e7a7e9d1b",
            "value": [
                "0x00"
            ],
            "data": [
                "0x"
            ],
            "sender": "0x38b822c198f4e2d306a099539d71f8d116ae87f2",
            "secretKey": "0x12e8dd463e1c2c2c4fb9a69568baa9921484b5859264326adfe7505e7a7e9d1b"
        },
        "post": {
            "Cancun": [
                {
                    "hash": "0xd81f56534461aca29006e370e3f2135172bd0e550e2a1da32d6d2f0cbe802250",
                    "logs": "0x1dcc4de8dec75d7aab85b567b6ccd41ad312451b948a7413f0a142fd40d49347",
                    "txbytes": "0xf860800a83061a809468baa9921484b5859264326adfe7505e7a7e9d1b808026a02a0ec7a7108567d099651d1071fba892f036a897b24965f94b622af9fdb01513a068af0b1c02d68fa3a262f312699caf71790a949af3ba67f7d851d53f3de5c36f",
                    "indexes": {
                        "data": 0,
                        "gas": 0,
                        "value": 0
                    },
                    "state": {
                        "0x38b822c198f4e2d306a099539d71f8d116ae87f2": {
                            "nonce": "0x01",
                            "balance": "0x0de0b6b3a75cee96",
                            "code": "0x",
                            "storage": {}
                        },
                        "0x68baa9921484b5859264326adfe7505e7a7e9d1b": {
                            "nonce": "0x00",
                            "balance": "0x00",
                            "code": "0x7368baa9921484b5859264326adfe7505e7a7e9d1b317368baa9921484b5859264326adfe7505e7a7e9d1b317368baa9921484b5859264326adfe7505e7a7e9d1b317368baa9921484b5859264326adfe7505e7a7e9d1b317368baa9921484b5859264326adfe7505e7a7e9d1b317368baa9921484b5859264326adfe7505e7a7e9d1b31f460005500",
                            "storage": {
                                "0x00": "0x01"
                            }
                        }
                    }
                }
            ]
        },
        "config": {
            "blobSchedule": {
                "Cancun": {
                    "target": "0x03",
                    "max": "0x06",
                    "baseFeeUpdateFraction": "0x32f0ed"
                }
            },
            "chainid": "0x01"
        },
        "_info": {
            "hash": "0xe36a670b9dd1d7b91f8d8f1dd4981a31f2229883ea0887ca6090deb5ae6575f4",
            "comment": "`execution-spec-tests` generated test",
            "filling-transition-tool": "ethereum-spec-evm-resolver 0.0.5",
            "description": "No description available - add a docstring to the python test class or function.",
            "url": "",
            "fixture-format": "state_test",
            "eels-resolution": {
                "git-url": "https://github.com/ethereum/execution-specs.git",
                "branch": "forks/bpos",
                "commit": "7aacb2c54111391af5e98c505d5010b5698a770f"
            }
        }
    },
    "tests/static/state_tests/stArgsZeroOneBalance/delegatecallNonConstFiller.yml::delegatecallNonConst[fork_Cancun-state_test--v1]": {
        "env": {
            "currentCoinbase": "0x2adc25665018aa1fe0e6bc666dac8fc2697ff9ba",
            "currentGasLimit": "0x0f4240",
            "currentNumber": "0x01",
            "currentTimestamp": "0x03e8",
            "currentRandom": "0x0000000000000000000000000000000000000000000000000000000000020000",
            "currentDifficulty": "0x00",
            "currentBaseFee": "0x0a",
            "currentExcessBlobGas": "0x00"
        },
        "pre": {
            "0x27ddbd406502f6651649bf43166a5363b452b2c1": {
                "nonce": "0x00",
                "balance": "0x0de0b6b3a7640000",
                "code": "0x",
                "storage": {}
            },
            "0x0437f0a759dd0dde6dbfbd0e81bca705f418f218": {
                "nonce": "0x00",
                "balance": "0x00",
                "code": "0x730437f0a759dd0dde6dbfbd0e81bca705f418f21831730437f0a759dd0dde6dbfbd0e81bca705f418f21831730437f0a759dd0dde6dbfbd0e81bca705f418f21831730437f0a759dd0dde6dbfbd0e81bca705f418f21831730437f0a759dd0dde6dbfbd0e81bca705f418f21831730437f0a759dd0dde6dbfbd0e81bca705f418f21831f460005500",
                "storage": {}
            }
        },
        "transaction": {
            "nonce": "0x00",
            "gasPrice": "0x0a",
            "gasLimit": [
                "0x061a80"
            ],
            "to": "0x0437f0a759dd0dde6dbfbd0e81bca705f418f218",
            "value": [
                "0x01"
            ],
            "data": [
                "0x"
            ],
            "sender": "0x27ddbd406502f6651649bf43166a5363b452b2c1",
            "secretKey": "0xb106303b7e4725173b5a9f440437f0a759dd0dde6dbfbd0e81bca705f418f218"
        },
        "post": {
            "Cancun": [
                {
                    "hash": "0x4de318aa8eb0bfcb2f95410bf5013fc35a406d448649c163a31d2d84af2633e7",
                    "logs": "0x1dcc4de8dec75d7aab85b567b6ccd41ad312451b948a7413f0a142fd40d49347",
                    "txbytes": "0xf860800a83061a80940437f0a759dd0dde6dbfbd0e81bca705f418f218018025a007d418607f1a391c14ab8452ed5e90b4adf6a40cfc51af8b9697d44a4d7c1d3ea02b34d19e4f4db45224b9e5a9eb664abe212273a1e51e393483a18e6233c0e598",
                    "indexes": {
                        "data": 0,
                        "gas": 0,
                        "value": 0
                    },
                    "state": {
                        "0x27ddbd406502f6651649bf43166a5363b452b2c1": {
                            "nonce": "0x01",
                            "balance": "0x0de0b6b3a760596d",
                            "code": "0x",
                            "storage": {}
                        },
                        "0x0437f0a759dd0dde6dbfbd0e81bca705f418f218": {
                            "nonce": "0x00",
                            "balance": "0x01",
                            "code": "0x730437f0a759dd0dde6dbfbd0e81bca705f418f21831730437f0a759dd0dde6dbfbd0e81bca705f418f21831730437f0a759dd0dde6dbfbd0e81bca705f418f21831730437f0a759dd0dde6dbfbd0e81bca705f418f21831730437f0a759dd0dde6dbfbd0e81bca705f418f21831730437f0a759dd0dde6dbfbd0e81bca705f418f21831f460005500",
                            "storage": {}
                        }
                    }
                }
            ]
        },
        "config": {
            "blobSchedule": {
                "Cancun": {
                    "target": "0x03",
                    "max": "0x06",
                    "baseFeeUpdateFraction": "0x32f0ed"
                }
            },
            "chainid": "0x01"
        },
        "_info": {
            "hash": "0x64dd3286452fa86b9de69849c5ef6b16e95d6451bbd7b896d39be23218760e5a",
            "comment": "`execution-spec-tests` generated test",
            "filling-transition-tool": "ethereum-spec-evm-resolver 0.0.5",
            "description": "No description available - add a docstring to the python test class or function.",
            "url": "",
            "fixture-format": "state_test",
            "eels-resolution": {
                "git-url": "https://github.com/ethereum/execution-specs.git",
                "branch": "forks/bpos",
                "commit": "7aacb2c54111391af5e98c505d5010b5698a770f"
            }
        }
    },
    "tests/static/state_tests/stArgsZeroOneBalance/delegatecallNonConstFiller.yml::delegatecallNonConst[fork_Osaka-state_test--v0]": {
        "env": {
            "currentCoinbase": "0x2adc25665018aa1fe0e6bc666dac8fc2697ff9ba",
            "currentGasLimit": "0x0f4240",
            "currentNumber": "0x01",
            "currentTimestamp": "0x03e8",
            "currentRandom": "0x0000000000000000000000000000000000000000000000000000000000020000",
            "currentDifficulty": "0x00",
            "currentBaseFee": "0x0a",
            "currentExcessBlobGas": "0x00"
        },
        "pre": {
            "0x38b822c198f4e2d306a099539d71f8d116ae87f2": {
                "nonce": "0x00",
                "balance": "0x0de0b6b3a7640000",
                "code": "0x",
                "storage": {}
            },
            "0x68baa9921484b5859264326adfe7505e7a7e9d1b": {
                "nonce": "0x00",
                "balance": "0x00",
                "code": "0x7368baa9921484b5859264326adfe7505e7a7e9d1b317368baa9921484b5859264326adfe7505e7a7e9d1b317368baa9921484b5859264326adfe7505e7a7e9d1b317368baa9921484b5859264326adfe7505e7a7e9d1b317368baa9921484b5859264326adfe7505e7a7e9d1b317368baa9921484b5859264326adfe7505e7a7e9d1b31f460005500",
                "storage": {}
            }
        },
        "transaction": {
            "nonce": "0x00",
            "gasPrice": "0x0a",
            "gasLimit": [
                "0x061a80"
            ],
            "to": "0x68baa9921484b5859264326adfe7505e7a7e9d1b",
            "value": [
                "0x00"
            ],
            "data": [
                "0x"
            ],
            "sender": "0x38b822c198f4e2d306a099539d71f8d116ae87f2",
            "secretKey": "0x12e8dd463e1c2c2c4fb9a69568baa9921484b5859264326adfe7505e7a7e9d1b"
        },
        "post": {
            "Osaka": [
                {
                    "hash": "0xd81f56534461aca29006e370e3f2135172bd0e550e2a1da32d6d2f0cbe802250",
                    "logs": "0x1dcc4de8dec75d7aab85b567b6ccd41ad312451b948a7413f0a142fd40d49347",
                    "txbytes": "0xf860800a83061a809468baa9921484b5859264326adfe7505e7a7e9d1b808026a02a0ec7a7108567d099651d1071fba892f036a897b24965f94b622af9fdb01513a068af0b1c02d68fa3a262f312699caf71790a949af3ba67f7d851d53f3de5c36f",
                    "indexes": {
                        "data": 0,
                        "gas": 0,
                        "value": 0
                    },
                    "state": {
                        "0x38b822c198f4e2d306a099539d71f8d116ae87f2": {
                            "nonce": "0x01",
                            "balance": "0x0de0b6b3a75cee96",
                            "code": "0x",
                            "storage": {}
                        },
                        "0x68baa9921484b5859264326adfe7505e7a7e9d1b": {
                            "nonce": "0x00",
                            "balance": "0x00",
                            "code": "0x7368baa9921484b5859264326adfe7505e7a7e9d1b317368baa9921484b5859264326adfe7505e7a7e9d1b317368baa9921484b5859264326adfe7505e7a7e9d1b317368baa9921484b5859264326adfe7505e7a7e9d1b317368baa9921484b5859264326adfe7505e7a7e9d1b317368baa9921484b5859264326adfe7505e7a7e9d1b31f460005500",
                            "storage": {
                                "0x00": "0x01"
                            }
                        }
                    }
                }
            ]
        },
        "config": {
            "blobSchedule": {
                "Cancun": {
                    "target": "0x03",
                    "max": "0x06",
                    "baseFeeUpdateFraction": "0x32f0ed"
                },
                "Prague": {
                    "target": "0x06",
                    "max": "0x09",
                    "baseFeeUpdateFraction": "0x4c6964"
                },
                "Osaka": {
                    "target": "0x06",
                    "max": "0x09",
                    "baseFeeUpdateFraction": "0x4c6964"
                }
            },
            "chainid": "0x01"
        },
        "_info": {
            "hash": "0x28bd4a2f14f092297705fbc97f24c8d81dd8f191197b62babe0e006f9ecec6c1",
            "comment": "`execution-spec-tests` generated test",
            "filling-transition-tool": "ethereum-spec-evm-resolver 0.0.5",
            "description": "No description available - add a docstring to the python test class or function.",
            "url": "",
            "fixture-format": "state_test",
            "eels-resolution": {
                "git-url": "https://github.com/ethereum/execution-specs.git",
                "branch": "forks/bpos",
                "commit": "7aacb2c54111391af5e98c505d5010b5698a770f"
            }
        }
    },
    "tests/static/state_tests/stArgsZeroOneBalance/delegatecallNonConstFiller.yml::delegatecallNonConst[fork_Osaka-state_test--v1]": {
        "env": {
            "currentCoinbase": "0x2adc25665018aa1fe0e6bc666dac8fc2697ff9ba",
            "currentGasLimit": "0x0f4240",
            "currentNumber": "0x01",
            "currentTimestamp": "0x03e8",
            "currentRandom": "0x0000000000000000000000000000000000000000000000000000000000020000",
            "currentDifficulty": "0x00",
            "currentBaseFee": "0x0a",
            "currentExcessBlobGas": "0x00"
        },
        "pre": {
            "0x27ddbd406502f6651649bf43166a5363b452b2c1": {
                "nonce": "0x00",
                "balance": "0x0de0b6b3a7640000",
                "code": "0x",
                "storage": {}
            },
            "0x0437f0a759dd0dde6dbfbd0e81bca705f418f218": {
                "nonce": "0x00",
                "balance": "0x00",
                "code": "0x730437f0a759dd0dde6dbfbd0e81bca705f418f21831730437f0a759dd0dde6dbfbd0e81bca705f418f21831730437f0a759dd0dde6dbfbd0e81bca705f418f21831730437f0a759dd0dde6dbfbd0e81bca705f418f21831730437f0a759dd0dde6dbfbd0e81bca705f418f21831730437f0a759dd0dde6dbfbd0e81bca705f418f21831f460005500",
                "storage": {}
            }
        },
        "transaction": {
            "nonce": "0x00",
            "gasPrice": "0x0a",
            "gasLimit": [
                "0x061a80"
            ],
            "to": "0x0437f0a759dd0dde6dbfbd0e81bca705f418f218",
            "value": [
                "0x01"
            ],
            "data": [
                "0x"
            ],
            "sender": "0x27ddbd406502f6651649bf43166a5363b452b2c1",
            "secretKey": "0xb106303b7e4725173b5a9f440437f0a759dd0dde6dbfbd0e81bca705f418f218"
        },
        "post": {
            "Osaka": [
                {
                    "hash": "0x4de318aa8eb0bfcb2f95410bf5013fc35a406d448649c163a31d2d84af2633e7",
                    "logs": "0x1dcc4de8dec75d7aab85b567b6ccd41ad312451b948a7413f0a142fd40d49347",
                    "txbytes": "0xf860800a83061a80940437f0a759dd0dde6dbfbd0e81bca705f418f218018025a007d418607f1a391c14ab8452ed5e90b4adf6a40cfc51af8b9697d44a4d7c1d3ea02b34d19e4f4db45224b9e5a9eb664abe212273a1e51e393483a18e6233c0e598",
                    "indexes": {
                        "data": 0,
                        "gas": 0,
                        "value": 0
                    },
                    "state": {
                        "0x27ddbd406502f6651649bf43166a5363b452b2c1": {
                            "nonce": "0x01",
                            "balance": "0x0de0b6b3a760596d",
                            "code": "0x",
                            "storage": {}
                        },
                        "0x0437f0a759dd0dde6dbfbd0e81bca705f418f218": {
                            "nonce": "0x00",
                            "balance": "0x01",
                            "code": "0x730437f0a759dd0dde6dbfbd0e81bca705f418f21831730437f0a759dd0dde6dbfbd0e81bca705f418f21831730437f0a759dd0dde6dbfbd0e81bca705f418f21831730437f0a759dd0dde6dbfbd0e81bca705f418f21831730437f0a759dd0dde6dbfbd0e81bca705f418f21831730437f0a759dd0dde6dbfbd0e81bca705f418f21831f460005500",
                            "storage": {}
                        }
                    }
                }
            ]
        },
        "config": {
            "blobSchedule": {
                "Cancun": {
                    "target": "0x03",
                    "max": "0x06",
                    "baseFeeUpdateFraction": "0x32f0ed"
                },
                "Prague": {
                    "target": "0x06",
                    "max": "0x09",
                    "baseFeeUpdateFraction": "0x4c6964"
                },
                "Osaka": {
                    "target": "0x06",
                    "max": "0x09",
                    "baseFeeUpdateFraction": "0x4c6964"
                }
            },
            "chainid": "0x01"
        },
        "_info": {
            "hash": "0x9d66442999316eca1bb066c4cd57a06f511c69ed06fa6b8799d12ae7df574c0c",
            "comment": "`execution-spec-tests` generated test",
            "filling-transition-tool": "ethereum-spec-evm-resolver 0.0.5",
            "description": "No description available - add a docstring to the python test class or function.",
            "url": "",
            "fixture-format": "state_test",
            "eels-resolution": {
                "git-url": "https://github.com/ethereum/execution-specs.git",
                "branch": "forks/bpos",
                "commit": "7aacb2c54111391af5e98c505d5010b5698a770f"
            }
        }
    },
    "tests/static/state_tests/stArgsZeroOneBalance/delegatecallNonConstFiller.yml::delegatecallNonConst[fork_Prague-state_test--v0]": {
        "env": {
            "currentCoinbase": "0x2adc25665018aa1fe0e6bc666dac8fc2697ff9ba",
            "currentGasLimit": "0x0f4240",
            "currentNumber": "0x01",
            "currentTimestamp": "0x03e8",
            "currentRandom": "0x0000000000000000000000000000000000000000000000000000000000020000",
            "currentDifficulty": "0x00",
            "currentBaseFee": "0x0a",
            "currentExcessBlobGas": "0x00"
        },
        "pre": {
            "0x38b822c198f4e2d306a099539d71f8d116ae87f2": {
                "nonce": "0x00",
                "balance": "0x0de0b6b3a7640000",
                "code": "0x",
                "storage": {}
            },
            "0x68baa9921484b5859264326adfe7505e7a7e9d1b": {
                "nonce": "0x00",
                "balance": "0x00",
                "code": "0x7368baa9921484b5859264326adfe7505e7a7e9d1b317368baa9921484b5859264326adfe7505e7a7e9d1b317368baa9921484b5859264326adfe7505e7a7e9d1b317368baa9921484b5859264326adfe7505e7a7e9d1b317368baa9921484b5859264326adfe7505e7a7e9d1b317368baa9921484b5859264326adfe7505e7a7e9d1b31f460005500",
                "storage": {}
            }
        },
        "transaction": {
            "nonce": "0x00",
            "gasPrice": "0x0a",
            "gasLimit": [
                "0x061a80"
            ],
            "to": "0x68baa9921484b5859264326adfe7505e7a7e9d1b",
            "value": [
                "0x00"
            ],
            "data": [
                "0x"
            ],
            "sender": "0x38b822c198f4e2d306a099539d71f8d116ae87f2",
            "secretKey": "0x12e8dd463e1c2c2c4fb9a69568baa9921484b5859264326adfe7505e7a7e9d1b"
        },
        "post": {
            "Prague": [
                {
                    "hash": "0xd81f56534461aca29006e370e3f2135172bd0e550e2a1da32d6d2f0cbe802250",
                    "logs": "0x1dcc4de8dec75d7aab85b567b6ccd41ad312451b948a7413f0a142fd40d49347",
                    "txbytes": "0xf860800a83061a809468baa9921484b5859264326adfe7505e7a7e9d1b808026a02a0ec7a7108567d099651d1071fba892f036a897b24965f94b622af9fdb01513a068af0b1c02d68fa3a262f312699caf71790a949af3ba67f7d851d53f3de5c36f",
                    "indexes": {
                        "data": 0,
                        "gas": 0,
                        "value": 0
                    },
                    "state": {
                        "0x38b822c198f4e2d306a099539d71f8d116ae87f2": {
                            "nonce": "0x01",
                            "balance": "0x0de0b6b3a75cee96",
                            "code": "0x",
                            "storage": {}
                        },
                        "0x68baa9921484b5859264326adfe7505e7a7e9d1b": {
                            "nonce": "0x00",
                            "balance": "0x00",
                            "code": "0x7368baa9921484b5859264326adfe7505e7a7e9d1b317368baa9921484b5859264326adfe7505e7a7e9d1b317368baa9921484b5859264326adfe7505e7a7e9d1b317368baa9921484b5859264326adfe7505e7a7e9d1b317368baa9921484b5859264326adfe7505e7a7e9d1b317368baa9921484b5859264326adfe7505e7a7e9d1b31f460005500",
                            "storage": {
                                "0x00": "0x01"
                            }
                        }
                    }
                }
            ]
        },
        "config": {
            "blobSchedule": {
                "Cancun": {
                    "target": "0x03",
                    "max": "0x06",
                    "baseFeeUpdateFraction": "0x32f0ed"
                },
                "Prague": {
                    "target": "0x06",
                    "max": "0x09",
                    "baseFeeUpdateFraction": "0x4c6964"
                }
            },
            "chainid": "0x01"
        },
        "_info": {
            "hash": "0x431e394debd751ce17cef70b4904a2f1269617fd774c2f7b9bc89b31a5e5d7cc",
            "comment": "`execution-spec-tests` generated test",
            "filling-transition-tool": "ethereum-spec-evm-resolver 0.0.5",
            "description": "No description available - add a docstring to the python test class or function.",
            "url": "",
            "fixture-format": "state_test",
            "eels-resolution": {
                "git-url": "https://github.com/ethereum/execution-specs.git",
                "branch": "forks/bpos",
                "commit": "7aacb2c54111391af5e98c505d5010b5698a770f"
            }
        }
    },
    "tests/static/state_tests/stArgsZeroOneBalance/delegatecallNonConstFiller.yml::delegatecallNonConst[fork_Prague-state_test--v1]": {
        "env": {
            "currentCoinbase": "0x2adc25665018aa1fe0e6bc666dac8fc2697ff9ba",
            "currentGasLimit": "0x0f4240",
            "currentNumber": "0x01",
            "currentTimestamp": "0x03e8",
            "currentRandom": "0x0000000000000000000000000000000000000000000000000000000000020000",
            "currentDifficulty": "0x00",
            "currentBaseFee": "0x0a",
            "currentExcessBlobGas": "0x00"
        },
        "pre": {
            "0x27ddbd406502f6651649bf43166a5363b452b2c1": {
                "nonce": "0x00",
                "balance": "0x0de0b6b3a7640000",
                "code": "0x",
                "storage": {}
            },
            "0x0437f0a759dd0dde6dbfbd0e81bca705f418f218": {
                "nonce": "0x00",
                "balance": "0x00",
                "code": "0x730437f0a759dd0dde6dbfbd0e81bca705f418f21831730437f0a759dd0dde6dbfbd0e81bca705f418f21831730437f0a759dd0dde6dbfbd0e81bca705f418f21831730437f0a759dd0dde6dbfbd0e81bca705f418f21831730437f0a759dd0dde6dbfbd0e81bca705f418f21831730437f0a759dd0dde6dbfbd0e81bca705f418f21831f460005500",
                "storage": {}
            }
        },
        "transaction": {
            "nonce": "0x00",
            "gasPrice": "0x0a",
            "gasLimit": [
                "0x061a80"
            ],
            "to": "0x0437f0a759dd0dde6dbfbd0e81bca705f418f218",
            "value": [
                "0x01"
            ],
            "data": [
                "0x"
            ],
            "sender": "0x27ddbd406502f6651649bf43166a5363b452b2c1",
            "secretKey": "0xb106303b7e4725173b5a9f440437f0a759dd0dde6dbfbd0e81bca705f418f218"
        },
        "post": {
            "Prague": [
                {
                    "hash": "0x4de318aa8eb0bfcb2f95410bf5013fc35a406d448649c163a31d2d84af2633e7",
                    "logs": "0x1dcc4de8dec75d7aab85b567b6ccd41ad312451b948a7413f0a142fd40d49347",
                    "txbytes": "0xf860800a83061a80940437f0a759dd0dde6dbfbd0e81bca705f418f218018025a007d418607f1a391c14ab8452ed5e90b4adf6a40cfc51af8b9697d44a4d7c1d3ea02b34d19e4f4db45224b9e5a9eb664abe212273a1e51e393483a18e6233c0e598",
                    "indexes": {
                        "data": 0,
                        "gas": 0,
                        "value": 0
                    },
                    "state": {
                        "0x27ddbd406502f6651649bf43166a5363b452b2c1": {
                            "nonce": "0x01",
                            "balance": "0x0de0b6b3a760596d",
                            "code": "0x",
                            "storage": {}
                        },
                        "0x0437f0a759dd0dde6dbfbd0e81bca705f418f218": {
                            "nonce": "0x00",
                            "balance": "0x01",
                            "code": "0x730437f0a759dd0dde6dbfbd0e81bca705f418f21831730437f0a759dd0dde6dbfbd0e81bca705f418f21831730437f0a759dd0dde6dbfbd0e81bca705f418f21831730437f0a759dd0dde6dbfbd0e81bca705f418f21831730437f0a759dd0dde6dbfbd0e81bca705f418f21831730437f0a759dd0dde6dbfbd0e81bca705f418f21831f460005500",
                            "storage": {}
                        }
                    }
                }
            ]
        },
        "config": {
            "blobSchedule": {
                "Cancun": {
                    "target": "0x03",
                    "max": "0x06",
                    "baseFeeUpdateFraction": "0x32f0ed"
                },
                "Prague": {
                    "target": "0x06",
                    "max": "0x09",
                    "baseFeeUpdateFraction": "0x4c6964"
                }
            },
            "chainid": "0x01"
        },
        "_info": {
            "hash": "0x7bba92c942f0d156cb19689c7be09fdec39061de9feb3c2ce9965e1e8c265859",
            "comment": "`execution-spec-tests` generated test",
            "filling-transition-tool": "ethereum-spec-evm-resolver 0.0.5",
            "description": "No description available - add a docstring to the python test class or function.",
            "url": "",
            "fixture-format": "state_test",
            "eels-resolution": {
                "git-url": "https://github.com/ethereum/execution-specs.git",
                "branch": "forks/bpos",
                "commit": "7aacb2c54111391af5e98c505d5010b5698a770f"
            }
        }
    }
}