{
    "tests/ported_static/stStaticCall/test_static_callcallcodecallcode_011_oogm_before2.py::test_static_callcallcodecallcode_011_oogm_before2[fork_Cancun-blockchain_test_from_state_test-d0]": {
        "network": "Cancun",
        "genesisBlockHeader": {
            "parentHash": "0x0000000000000000000000000000000000000000000000000000000000000000",
            "uncleHash": "0x1dcc4de8dec75d7aab85b567b6ccd41ad312451b948a7413f0a142fd40d49347",
            "coinbase": "0x0000000000000000000000000000000000000000",
            "stateRoot": "0xbe297065e37f2653ca59932e4ab53443ea8908660c88657c04650d920f95cc21",
            "transactionsTrie": "0x56e81f171bcc55a6ff8345e692c0f86e5b48e01b996cadc001622fb5e363b421",
            "receiptTrie": "0x56e81f171bcc55a6ff8345e692c0f86e5b48e01b996cadc001622fb5e363b421",
            "bloom": "0x00000000000000000000000000000000000000000000000000000000000000000000000000000000000000000000000000000000000000000000000000000000000000000000000000000000000000000000000000000000000000000000000000000000000000000000000000000000000000000000000000000000000000000000000000000000000000000000000000000000000000000000000000000000000000000000000000000000000000000000000000000000000000000000000000000000000000000000000000000000000000000000000000000000000000000000000000000000000000000000000000000000000000000000000000000000",
            "difficulty": "0x00",
            "number": "0x00",
            "gasLimit": "0x01c9c380",
            "gasUsed": "0x00",
            "timestamp": "0x00",
            "extraData": "0x00",
            "mixHash": "0x0000000000000000000000000000000000000000000000000000000000000000",
            "nonce": "0x0000000000000000",
            "baseFeePerGas": "0x0b",
            "withdrawalsRoot": "0x56e81f171bcc55a6ff8345e692c0f86e5b48e01b996cadc001622fb5e363b421",
            "blobGasUsed": "0x00",
            "excessBlobGas": "0x00",
            "parentBeaconBlockRoot": "0x0000000000000000000000000000000000000000000000000000000000000000",
            "hash": "0x8530b0e9a0a477d276bcdb297c6e28eb7c51432d9adb3d39fa226f72d95f1c68"
        },
        "pre": {
            "0x000f3df6d732807ef1319fb7b8bb8522d0beac02": {
                "nonce": "0x01",
                "balance": "0x00",
                "code": "0x3373fffffffffffffffffffffffffffffffffffffffe14604d57602036146024575f5ffd5b5f35801560495762001fff810690815414603c575f5ffd5b62001fff01545f5260205ff35b5f5ffd5b62001fff42064281555f359062001fff015500",
                "storage": {}
            },
            "0xd66f224cbd2fabb21b17bb53c56118f32f62ebd6": {
                "nonce": "0x00",
                "balance": "0x0de0b6b3a7640000",
                "code": "0x",
                "storage": {}
            },
            "0x8bde6a10a1792232fd09b528800d9ac2a6835424": {
                "nonce": "0x00",
                "balance": "0x00",
                "code": "0x600160205260406000604060006000600035619c90f250600160205200",
                "storage": {}
            },
            "0xd4286ac3fcac436406bc95f5b0176ad49aed7f7c": {
                "nonce": "0x00",
                "balance": "0x00",
                "code": "0x600160205200",
                "storage": {}
            },
            "0x6e143211e9d36eaeebe65f6ed69d6c28500040d6": {
                "nonce": "0x00",
                "balance": "0x0de0b6b3a7640000",
                "code": "0x6000356000526040600060406000738bde6a10a1792232fd09b528800d9ac2a6835424620249f0fa600055600160015500",
                "storage": {}
            },
            "0x87f0bb05316a8d8146646a151a64f38ae9d25176": {
                "nonce": "0x00",
                "balance": "0x00",
                "code": "0x60016003556040600060406000600073d4286ac3fcac436406bc95f5b0176ad49aed7f7c614e34f250600160205200",
                "storage": {}
            },
            "0x94c82267a4e8333afb80073fbaed3fe5973adc7c": {
                "nonce": "0x00",
                "balance": "0x0a",
                "code": "0x6040600060406000600173d4286ac3fcac436406bc95f5b0176ad49aed7f7c614e34f250600160205200",
                "storage": {}
            },
            "0x1dffdbfbe33709f17b6e90137242c109917a994b": {
                "nonce": "0x00",
                "balance": "0x00",
                "code": "0x5b61c3506080511015601c5760013b506001608051016080526000565b6040600060406000600073d4286ac3fcac436406bc95f5b0176ad49aed7f7c614e34f250600160205200",
                "storage": {}
            }
        },
        "postState": {
            "0x000f3df6d732807ef1319fb7b8bb8522d0beac02": {
                "nonce": "0x01",
                "balance": "0x00",
                "code": "0x3373fffffffffffffffffffffffffffffffffffffffe14604d57602036146024575f5ffd5b5f35801560495762001fff810690815414603c575f5ffd5b62001fff01545f5260205ff35b5f5ffd5b62001fff42064281555f359062001fff015500",
                "storage": {
                    "0x03e8": "0x03e8"
                }
            },
            "0xd66f224cbd2fabb21b17bb53c56118f32f62ebd6": {
                "nonce": "0x01",
                "balance": "0x0de0b6b3a753124a",
                "code": "0x",
                "storage": {}
            },
            "0x8bde6a10a1792232fd09b528800d9ac2a6835424": {
                "nonce": "0x00",
                "balance": "0x00",
                "code": "0x600160205260406000604060006000600035619c90f250600160205200",
                "storage": {}
            },
            "0xd4286ac3fcac436406bc95f5b0176ad49aed7f7c": {
                "nonce": "0x00",
                "balance": "0x00",
                "code": "0x600160205200",
                "storage": {}
            },
            "0x6e143211e9d36eaeebe65f6ed69d6c28500040d6": {
                "nonce": "0x00",
                "balance": "0x0de0b6b3a7640000",
                "code": "0x6000356000526040600060406000738bde6a10a1792232fd09b528800d9ac2a6835424620249f0fa600055600160015500",
                "storage": {
                    "0x00": "0x01",
                    "0x01": "0x01"
                }
            },
            "0x87f0bb05316a8d8146646a151a64f38ae9d25176": {
                "nonce": "0x00",
                "balance": "0x00",
                "code": "0x60016003556040600060406000600073d4286ac3fcac436406bc95f5b0176ad49aed7f7c614e34f250600160205200",
                "storage": {}
            },
            "0x94c82267a4e8333afb80073fbaed3fe5973adc7c": {
                "nonce": "0x00",
                "balance": "0x0a",
                "code": "0x6040600060406000600173d4286ac3fcac436406bc95f5b0176ad49aed7f7c614e34f250600160205200",
                "storage": {}
            },
            "0x1dffdbfbe33709f17b6e90137242c109917a994b": {
                "nonce": "0x00",
                "balance": "0x00",
                "code": "0x5b61c3506080511015601c5760013b506001608051016080526000565b6040600060406000600073d4286ac3fcac436406bc95f5b0176ad49aed7f7c614e34f250600160205200",
                "storage": {}
            }
        },
        "lastblockhash": "0x7a8dc15cbaac592bad19b2a01adc4269c462ee598955f672b4933bae639586b5",
        "config": {
            "network": "Cancun",
            "chainid": "0x01",
            "blobSchedule": {
                "Cancun": {
                    "target": "0x03",
                    "max": "0x06",
                    "baseFeeUpdateFraction": "0x32f0ed"
                }
            }
        },
        "genesisRLP": "0xf9023cf90236a00000000000000000000000000000000000000000000000000000000000000000a01dcc4de8dec75d7aab85b567b6ccd41ad312451b948a7413f0a142fd40d49347940000000000000000000000000000000000000000a0be297065e37f2653ca59932e4ab53443ea8908660c88657c04650d920f95cc21a056e81f171bcc55a6ff8345e692c0f86e5b48e01b996cadc001622fb5e363b421a056e81f171bcc55a6ff8345e692c0f86e5b48e01b996cadc001622fb5e363b421b901000000000000000000000000000000000000000000000000000000000000000000000000000000000000000000000000000000000000000000000000000000000000000000000000000000000000000000000000000000000000000000000000000000000000000000000000000000000000000000000000000000000000000000000000000000000000000000000000000000000000000000000000000000000000000000000000000000000000000000000000000000000000000000000000000000000000000000000000000000000000000000000000000000000000000000000000000000000000000000000000000000000000000000000000000000000080808401c9c380808000a000000000000000000000000000000000000000000000000000000000000000008800000000000000000ba056e81f171bcc55a6ff8345e692c0f86e5b48e01b996cadc001622fb5e363b4218080a00000000000000000000000000000000000000000000000000000000000000000c0c0c0",
        "blocks": [
            {
                "blockHeader": {
                    "parentHash": "0x8530b0e9a0a477d276bcdb297c6e28eb7c51432d9adb3d39fa226f72d95f1c68",
                    "uncleHash": "0x1dcc4de8dec75d7aab85b567b6ccd41ad312451b948a7413f0a142fd40d49347",
                    "coinbase": "0x2adc25665018aa1fe0e6bc666dac8fc2697ff9ba",
                    "stateRoot": "0x90b98a9ce4c06f5a177678fc56d18820aa5eb5b1d5aaab0309d112e2a4a3db14",
                    "transactionsTrie": "0x188fd35ae2b00c866a6b1e0d9f46d9632214fef9984950586c802e5045d130b9",
                    "receiptTrie": "0x67817fa37b9fb8474ca6684e6550a82b27b5ad667fd0784487ff7bf3d60c1828",
                    "bloom": "0x00000000000000000000000000000000000000000000000000000000000000000000000000000000000000000000000000000000000000000000000000000000000000000000000000000000000000000000000000000000000000000000000000000000000000000000000000000000000000000000000000000000000000000000000000000000000000000000000000000000000000000000000000000000000000000000000000000000000000000000000000000000000000000000000000000000000000000000000000000000000000000000000000000000000000000000000000000000000000000000000000000000000000000000000000000000",
                    "difficulty": "0x00",
                    "number": "0x01",
                    "gasLimit": "0x01c9c380",
                    "gasUsed": "0x01b15f",
                    "timestamp": "0x03e8",
                    "extraData": "0x00",
                    "mixHash": "0x0000000000000000000000000000000000000000000000000000000000020000",
                    "nonce": "0x0000000000000000",
                    "baseFeePerGas": "0x0a",
                    "withdrawalsRoot": "0x56e81f171bcc55a6ff8345e692c0f86e5b48e01b996cadc001622fb5e363b421",
                    "blobGasUsed": "0x00",
                    "excessBlobGas": "0x00",
                    "parentBeaconBlockRoot": "0x0000000000000000000000000000000000000000000000000000000000000000",
                    "hash": "0x7a8dc15cbaac592bad19b2a01adc4269c462ee598955f672b4933bae639586b5"
                },
                "transactions": [
                    {
                        "type": "0x00",
                        "chainId": "0x01",
                        "nonce": "0x00",
                        "gasPrice": "0x0a",
                        "gasLimit": "0x029fe0",
                        "to": "0x6e143211e9d36eaeebe65f6ed69d6c28500040d6",
                        "value": "0x00",
                        "data": "0x00000000000000000000000087f0bb05316a8d8146646a151a64f38ae9d25176",
                        "v": "0x26",
                        "r": "0xe9f40142c4e719e2ee2a6a16f9147c4776b12c3e359a4edc5ca1d4245fef4963",
                        "s": "0x5cc4dd49a52afa36bd319ab7dca46da8ef85edd464afd04880859dad511063f3",
                        "sender": "0xd66f224cbd2fabb21b17bb53c56118f32f62ebd6"
                    }
                ],
                "uncleHeaders": [],
                "withdrawals": [],
                "receipts": [
                    {
                        "transactionHash": "0x82272fc9172a9a4d88a20598371487b04bd7f5ecd3ded49e71a34c3cdc10b5d6",
                        "type": "0x00",
                        "cumulativeGasUsed": "0x01b15f",
                        "bloom": "0x00000000000000000000000000000000000000000000000000000000000000000000000000000000000000000000000000000000000000000000000000000000000000000000000000000000000000000000000000000000000000000000000000000000000000000000000000000000000000000000000000000000000000000000000000000000000000000000000000000000000000000000000000000000000000000000000000000000000000000000000000000000000000000000000000000000000000000000000000000000000000000000000000000000000000000000000000000000000000000000000000000000000000000000000000000000",
                        "logs": [],
                        "status": true,
                        "rlp": "0xf90109018301b15fb9010000000000000000000000000000000000000000000000000000000000000000000000000000000000000000000000000000000000000000000000000000000000000000000000000000000000000000000000000000000000000000000000000000000000000000000000000000000000000000000000000000000000000000000000000000000000000000000000000000000000000000000000000000000000000000000000000000000000000000000000000000000000000000000000000000000000000000000000000000000000000000000000000000000000000000000000000000000000000000000000000000000000000000000000000000000000c0"
                    }
                ],
                "rlp": "0xf902c4f9023ba08530b0e9a0a477d276bcdb297c6e28eb7c51432d9adb3d39fa226f72d95f1c68a01dcc4de8dec75d7aab85b567b6ccd41ad312451b948a7413f0a142fd40d49347942adc25665018aa1fe0e6bc666dac8fc2697ff9baa090b98a9ce4c06f5a177678fc56d18820aa5eb5b1d5aaab0309d112e2a4a3db14a0188fd35ae2b00c866a6b1e0d9f46d9632214fef9984950586c802e5045d130b9a067817fa37b9fb8474ca6684e6550a82b27b5ad667fd0784487ff7bf3d60c1828b901000000000000000000000000000000000000000000000000000000000000000000000000000000000000000000000000000000000000000000000000000000000000000000000000000000000000000000000000000000000000000000000000000000000000000000000000000000000000000000000000000000000000000000000000000000000000000000000000000000000000000000000000000000000000000000000000000000000000000000000000000000000000000000000000000000000000000000000000000000000000000000000000000000000000000000000000000000000000000000000000000000000000000000000000000000000080018401c9c3808301b15f8203e800a000000000000000000000000000000000000000000000000000000000000200008800000000000000000aa056e81f171bcc55a6ff8345e692c0f86e5b48e01b996cadc001622fb5e363b4218080a00000000000000000000000000000000000000000000000000000000000000000f882f880800a83029fe0946e143211e9d36eaeebe65f6ed69d6c28500040d680a000000000000000000000000087f0bb05316a8d8146646a151a64f38ae9d2517626a0e9f40142c4e719e2ee2a6a16f9147c4776b12c3e359a4edc5ca1d4245fef4963a05cc4dd49a52afa36bd319ab7dca46da8ef85edd464afd04880859dad511063f3c0c0",
                "blocknumber": "1"
            }
        ],
        "sealEngine": "NoProof",
        "_info": {
            "hash": "0xc4b58bd29cda36f12da3e385995d44ea7059a2d134e1ae0212d68c66f4497c6b",
            "fixture-format": "blockchain_test",
            "comment": "`execution-specs` generated test",
            "filling-transition-tool": "2.19.0",
            "description": "Test_static_callcallcodecallcode_011_oogm_before2.",
            "url": "https://github.com/ethereum/execution-specs/blob/tests-snobal-devnet-5@v8037.0.0/tests/ported_static/stStaticCall/test_static_callcallcodecallcode_011_oogm_before2.py#L28",
            "metadata": {
                "opcode_count": {}
            }
        }
    },
    "tests/ported_static/stStaticCall/test_static_callcallcodecallcode_011_oogm_before2.py::test_static_callcallcodecallcode_011_oogm_before2[fork_Cancun-blockchain_test_from_state_test-d1]": {
        "network": "Cancun",
        "genesisBlockHeader": {
            "parentHash": "0x0000000000000000000000000000000000000000000000000000000000000000",
            "uncleHash": "0x1dcc4de8dec75d7aab85b567b6ccd41ad312451b948a7413f0a142fd40d49347",
            "coinbase": "0x0000000000000000000000000000000000000000",
            "stateRoot": "0xbe297065e37f2653ca59932e4ab53443ea8908660c88657c04650d920f95cc21",
            "transactionsTrie": "0x56e81f171bcc55a6ff8345e692c0f86e5b48e01b996cadc001622fb5e363b421",
            "receiptTrie": "0x56e81f171bcc55a6ff8345e692c0f86e5b48e01b996cadc001622fb5e363b421",
            "bloom": "0x00000000000000000000000000000000000000000000000000000000000000000000000000000000000000000000000000000000000000000000000000000000000000000000000000000000000000000000000000000000000000000000000000000000000000000000000000000000000000000000000000000000000000000000000000000000000000000000000000000000000000000000000000000000000000000000000000000000000000000000000000000000000000000000000000000000000000000000000000000000000000000000000000000000000000000000000000000000000000000000000000000000000000000000000000000000",
            "difficulty": "0x00",
            "number": "0x00",
            "gasLimit": "0x01c9c380",
            "gasUsed": "0x00",
            "timestamp": "0x00",
            "extraData": "0x00",
            "mixHash": "0x0000000000000000000000000000000000000000000000000000000000000000",
            "nonce": "0x0000000000000000",
            "baseFeePerGas": "0x0b",
            "withdrawalsRoot": "0x56e81f171bcc55a6ff8345e692c0f86e5b48e01b996cadc001622fb5e363b421",
            "blobGasUsed": "0x00",
            "excessBlobGas": "0x00",
            "parentBeaconBlockRoot": "0x0000000000000000000000000000000000000000000000000000000000000000",
            "hash": "0x8530b0e9a0a477d276bcdb297c6e28eb7c51432d9adb3d39fa226f72d95f1c68"
        },
        "pre": {
            "0x000f3df6d732807ef1319fb7b8bb8522d0beac02": {
                "nonce": "0x01",
                "balance": "0x00",
                "code": "0x3373fffffffffffffffffffffffffffffffffffffffe14604d57602036146024575f5ffd5b5f35801560495762001fff810690815414603c575f5ffd5b62001fff01545f5260205ff35b5f5ffd5b62001fff42064281555f359062001fff015500",
                "storage": {}
            },
            "0xd66f224cbd2fabb21b17bb53c56118f32f62ebd6": {
                "nonce": "0x00",
                "balance": "0x0de0b6b3a7640000",
                "code": "0x",
                "storage": {}
            },
            "0x8bde6a10a1792232fd09b528800d9ac2a6835424": {
                "nonce": "0x00",
                "balance": "0x00",
                "code": "0x600160205260406000604060006000600035619c90f250600160205200",
                "storage": {}
            },
            "0xd4286ac3fcac436406bc95f5b0176ad49aed7f7c": {
                "nonce": "0x00",
                "balance": "0x00",
                "code": "0x600160205200",
                "storage": {}
            },
            "0x6e143211e9d36eaeebe65f6ed69d6c28500040d6": {
                "nonce": "0x00",
                "balance": "0x0de0b6b3a7640000",
                "code": "0x6000356000526040600060406000738bde6a10a1792232fd09b528800d9ac2a6835424620249f0fa600055600160015500",
                "storage": {}
            },
            "0x87f0bb05316a8d8146646a151a64f38ae9d25176": {
                "nonce": "0x00",
                "balance": "0x00",
                "code": "0x60016003556040600060406000600073d4286ac3fcac436406bc95f5b0176ad49aed7f7c614e34f250600160205200",
                "storage": {}
            },
            "0x94c82267a4e8333afb80073fbaed3fe5973adc7c": {
                "nonce": "0x00",
                "balance": "0x0a",
                "code": "0x6040600060406000600173d4286ac3fcac436406bc95f5b0176ad49aed7f7c614e34f250600160205200",
                "storage": {}
            },
            "0x1dffdbfbe33709f17b6e90137242c109917a994b": {
                "nonce": "0x00",
                "balance": "0x00",
                "code": "0x5b61c3506080511015601c5760013b506001608051016080526000565b6040600060406000600073d4286ac3fcac436406bc95f5b0176ad49aed7f7c614e34f250600160205200",
                "storage": {}
            }
        },
        "postState": {
            "0x000f3df6d732807ef1319fb7b8bb8522d0beac02": {
                "nonce": "0x01",
                "balance": "0x00",
                "code": "0x3373fffffffffffffffffffffffffffffffffffffffe14604d57602036146024575f5ffd5b5f35801560495762001fff810690815414603c575f5ffd5b62001fff01545f5260205ff35b5f5ffd5b62001fff42064281555f359062001fff015500",
                "storage": {
                    "0x03e8": "0x03e8"
                }
            },
            "0xd66f224cbd2fabb21b17bb53c56118f32f62ebd6": {
                "nonce": "0x01",
                "balance": "0x0de0b6b3a753124a",
                "code": "0x",
                "storage": {}
            },
            "0x8bde6a10a1792232fd09b528800d9ac2a6835424": {
                "nonce": "0x00",
                "balance": "0x00",
                "code": "0x600160205260406000604060006000600035619c90f250600160205200",
                "storage": {}
            },
            "0xd4286ac3fcac436406bc95f5b0176ad49aed7f7c": {
                "nonce": "0x00",
                "balance": "0x00",
                "code": "0x600160205200",
                "storage": {}
            },
            "0x6e143211e9d36eaeebe65f6ed69d6c28500040d6": {
                "nonce": "0x00",
                "balance": "0x0de0b6b3a7640000",
                "code": "0x6000356000526040600060406000738bde6a10a1792232fd09b528800d9ac2a6835424620249f0fa600055600160015500",
                "storage": {
                    "0x00": "0x01",
                    "0x01": "0x01"
                }
            },
            "0x87f0bb05316a8d8146646a151a64f38ae9d25176": {
                "nonce": "0x00",
                "balance": "0x00",
                "code": "0x60016003556040600060406000600073d4286ac3fcac436406bc95f5b0176ad49aed7f7c614e34f250600160205200",
                "storage": {}
            },
            "0x94c82267a4e8333afb80073fbaed3fe5973adc7c": {
                "nonce": "0x00",
                "balance": "0x0a",
                "code": "0x6040600060406000600173d4286ac3fcac436406bc95f5b0176ad49aed7f7c614e34f250600160205200",
                "storage": {}
            },
            "0x1dffdbfbe33709f17b6e90137242c109917a994b": {
                "nonce": "0x00",
                "balance": "0x00",
                "code": "0x5b61c3506080511015601c5760013b506001608051016080526000565b6040600060406000600073d4286ac3fcac436406bc95f5b0176ad49aed7f7c614e34f250600160205200",
                "storage": {}
            }
        },
        "lastblockhash": "0xb8e1a9ca20befe1b7a470d50ad9ca39bc2bd66629cae0b22faeac7737233dffb",
        "config": {
            "network": "Cancun",
            "chainid": "0x01",
            "blobSchedule": {
                "Cancun": {
                    "target": "0x03",
                    "max": "0x06",
                    "baseFeeUpdateFraction": "0x32f0ed"
                }
            }
        },
        "genesisRLP": "0xf9023cf90236a00000000000000000000000000000000000000000000000000000000000000000a01dcc4de8dec75d7aab85b567b6ccd41ad312451b948a7413f0a142fd40d49347940000000000000000000000000000000000000000a0be297065e37f2653ca59932e4ab53443ea8908660c88657c04650d920f95cc21a056e81f171bcc55a6ff8345e692c0f86e5b48e01b996cadc001622fb5e363b421a056e81f171bcc55a6ff8345e692c0f86e5b48e01b996cadc001622fb5e363b421b901000000000000000000000000000000000000000000000000000000000000000000000000000000000000000000000000000000000000000000000000000000000000000000000000000000000000000000000000000000000000000000000000000000000000000000000000000000000000000000000000000000000000000000000000000000000000000000000000000000000000000000000000000000000000000000000000000000000000000000000000000000000000000000000000000000000000000000000000000000000000000000000000000000000000000000000000000000000000000000000000000000000000000000000000000000000080808401c9c380808000a000000000000000000000000000000000000000000000000000000000000000008800000000000000000ba056e81f171bcc55a6ff8345e692c0f86e5b48e01b996cadc001622fb5e363b4218080a00000000000000000000000000000000000000000000000000000000000000000c0c0c0",
        "blocks": [
            {
                "blockHeader": {
                    "parentHash": "0x8530b0e9a0a477d276bcdb297c6e28eb7c51432d9adb3d39fa226f72d95f1c68",
                    "uncleHash": "0x1dcc4de8dec75d7aab85b567b6ccd41ad312451b948a7413f0a142fd40d49347",
                    "coinbase": "0x2adc25665018aa1fe0e6bc666dac8fc2697ff9ba",
                    "stateRoot": "0x90b98a9ce4c06f5a177678fc56d18820aa5eb5b1d5aaab0309d112e2a4a3db14",
                    "transactionsTrie": "0x08e3db1a658bcc987fdc20d703ab55f4d4e2dc69245b16d283e55073858f44e5",
                    "receiptTrie": "0x67817fa37b9fb8474ca6684e6550a82b27b5ad667fd0784487ff7bf3d60c1828",
                    "bloom": "0x00000000000000000000000000000000000000000000000000000000000000000000000000000000000000000000000000000000000000000000000000000000000000000000000000000000000000000000000000000000000000000000000000000000000000000000000000000000000000000000000000000000000000000000000000000000000000000000000000000000000000000000000000000000000000000000000000000000000000000000000000000000000000000000000000000000000000000000000000000000000000000000000000000000000000000000000000000000000000000000000000000000000000000000000000000000",
                    "difficulty": "0x00",
                    "number": "0x01",
                    "gasLimit": "0x01c9c380",
                    "gasUsed": "0x01b15f",
                    "timestamp": "0x03e8",
                    "extraData": "0x00",
                    "mixHash": "0x0000000000000000000000000000000000000000000000000000000000020000",
                    "nonce": "0x0000000000000000",
                    "baseFeePerGas": "0x0a",
                    "withdrawalsRoot": "0x56e81f171bcc55a6ff8345e692c0f86e5b48e01b996cadc001622fb5e363b421",
                    "blobGasUsed": "0x00",
                    "excessBlobGas": "0x00",
                    "parentBeaconBlockRoot": "0x0000000000000000000000000000000000000000000000000000000000000000",
                    "hash": "0xb8e1a9ca20befe1b7a470d50ad9ca39bc2bd66629cae0b22faeac7737233dffb"
                },
                "transactions": [
                    {
                        "type": "0x00",
                        "chainId": "0x01",
                        "nonce": "0x00",
                        "gasPrice": "0x0a",
                        "gasLimit": "0x029fe0",
                        "to": "0x6e143211e9d36eaeebe65f6ed69d6c28500040d6",
                        "value": "0x00",
                        "data": "0x0000000000000000000000001dffdbfbe33709f17b6e90137242c109917a994b",
                        "v": "0x26",
                        "r": "0x3760c91061957fc4f1256b568f13455cc885b4eacada3b713b37ea34db1e3955",
                        "s": "0x14b3d8ca38947a3ea3f6101371ff9e68463d683bf12bd200e4528eac5a0d8e90",
                        "sender": "0xd66f224cbd2fabb21b17bb53c56118f32f62ebd6"
                    }
                ],
                "uncleHeaders": [],
                "withdrawals": [],
                "receipts": [
                    {
                        "transactionHash": "0xf01f7d89f91ef9fb8873bb6759f7f2c5303b1f7778910b0427f5183cd556b64b",
                        "type": "0x00",
                        "cumulativeGasUsed": "0x01b15f",
                        "bloom": "0x00000000000000000000000000000000000000000000000000000000000000000000000000000000000000000000000000000000000000000000000000000000000000000000000000000000000000000000000000000000000000000000000000000000000000000000000000000000000000000000000000000000000000000000000000000000000000000000000000000000000000000000000000000000000000000000000000000000000000000000000000000000000000000000000000000000000000000000000000000000000000000000000000000000000000000000000000000000000000000000000000000000000000000000000000000000",
                        "logs": [],
                        "status": true,
                        "rlp": "0xf90109018301b15fb9010000000000000000000000000000000000000000000000000000000000000000000000000000000000000000000000000000000000000000000000000000000000000000000000000000000000000000000000000000000000000000000000000000000000000000000000000000000000000000000000000000000000000000000000000000000000000000000000000000000000000000000000000000000000000000000000000000000000000000000000000000000000000000000000000000000000000000000000000000000000000000000000000000000000000000000000000000000000000000000000000000000000000000000000000000000000c0"
                    }
                ],
                "rlp": "0xf902c4f9023ba08530b0e9a0a477d276bcdb297c6e28eb7c51432d9adb3d39fa226f72d95f1c68a01dcc4de8dec75d7aab85b567b6ccd41ad312451b948a7413f0a142fd40d49347942adc25665018aa1fe0e6bc666dac8fc2697ff9baa090b98a9ce4c06f5a177678fc56d18820aa5eb5b1d5aaab0309d112e2a4a3db14a008e3db1a658bcc987fdc20d703ab55f4d4e2dc69245b16d283e55073858f44e5a067817fa37b9fb8474ca6684e6550a82b27b5ad667fd0784487ff7bf3d60c1828b901000000000000000000000000000000000000000000000000000000000000000000000000000000000000000000000000000000000000000000000000000000000000000000000000000000000000000000000000000000000000000000000000000000000000000000000000000000000000000000000000000000000000000000000000000000000000000000000000000000000000000000000000000000000000000000000000000000000000000000000000000000000000000000000000000000000000000000000000000000000000000000000000000000000000000000000000000000000000000000000000000000000000000000000000000000000080018401c9c3808301b15f8203e800a000000000000000000000000000000000000000000000000000000000000200008800000000000000000aa056e81f171bcc55a6ff8345e692c0f86e5b48e01b996cadc001622fb5e363b4218080a00000000000000000000000000000000000000000000000000000000000000000f882f880800a83029fe0946e143211e9d36eaeebe65f6ed69d6c28500040d680a00000000000000000000000001dffdbfbe33709f17b6e90137242c109917a994b26a03760c91061957fc4f1256b568f13455cc885b4eacada3b713b37ea34db1e3955a014b3d8ca38947a3ea3f6101371ff9e68463d683bf12bd200e4528eac5a0d8e90c0c0",
                "blocknumber": "1"
            }
        ],
        "sealEngine": "NoProof",
        "_info": {
            "hash": "0x6b46d5b54d4023e4b8f1626e87691680c11ac050e7f2002be6f0be86d342b1e7",
            "fixture-format": "blockchain_test",
            "comment": "`execution-specs` generated test",
            "filling-transition-tool": "2.19.0",
            "description": "Test_static_callcallcodecallcode_011_oogm_before2.",
            "url": "https://github.com/ethereum/execution-specs/blob/tests-snobal-devnet-5@v8037.0.0/tests/ported_static/stStaticCall/test_static_callcallcodecallcode_011_oogm_before2.py#L28",
            "metadata": {
                "opcode_count": {}
            }
        }
    },
    "tests/ported_static/stStaticCall/test_static_callcallcodecallcode_011_oogm_before2.py::test_static_callcallcodecallcode_011_oogm_before2[fork_Cancun-blockchain_test_from_state_test-d2]": {
        "network": "Cancun",
        "genesisBlockHeader": {
            "parentHash": "0x0000000000000000000000000000000000000000000000000000000000000000",
            "uncleHash": "0x1dcc4de8dec75d7aab85b567b6ccd41ad312451b948a7413f0a142fd40d49347",
            "coinbase": "0x0000000000000000000000000000000000000000",
            "stateRoot": "0xbe297065e37f2653ca59932e4ab53443ea8908660c88657c04650d920f95cc21",
            "transactionsTrie": "0x56e81f171bcc55a6ff8345e692c0f86e5b48e01b996cadc001622fb5e363b421",
            "receiptTrie": "0x56e81f171bcc55a6ff8345e692c0f86e5b48e01b996cadc001622fb5e363b421",
            "bloom": "0x00000000000000000000000000000000000000000000000000000000000000000000000000000000000000000000000000000000000000000000000000000000000000000000000000000000000000000000000000000000000000000000000000000000000000000000000000000000000000000000000000000000000000000000000000000000000000000000000000000000000000000000000000000000000000000000000000000000000000000000000000000000000000000000000000000000000000000000000000000000000000000000000000000000000000000000000000000000000000000000000000000000000000000000000000000000",
            "difficulty": "0x00",
            "number": "0x00",
            "gasLimit": "0x01c9c380",
            "gasUsed": "0x00",
            "timestamp": "0x00",
            "extraData": "0x00",
            "mixHash": "0x0000000000000000000000000000000000000000000000000000000000000000",
            "nonce": "0x0000000000000000",
            "baseFeePerGas": "0x0b",
            "withdrawalsRoot": "0x56e81f171bcc55a6ff8345e692c0f86e5b48e01b996cadc001622fb5e363b421",
            "blobGasUsed": "0x00",
            "excessBlobGas": "0x00",
            "parentBeaconBlockRoot": "0x0000000000000000000000000000000000000000000000000000000000000000",
            "hash": "0x8530b0e9a0a477d276bcdb297c6e28eb7c51432d9adb3d39fa226f72d95f1c68"
        },
        "pre": {
            "0x000f3df6d732807ef1319fb7b8bb8522d0beac02": {
                "nonce": "0x01",
                "balance": "0x00",
                "code": "0x3373fffffffffffffffffffffffffffffffffffffffe14604d57602036146024575f5ffd5b5f35801560495762001fff810690815414603c575f5ffd5b62001fff01545f5260205ff35b5f5ffd5b62001fff42064281555f359062001fff015500",
                "storage": {}
            },
            "0xd66f224cbd2fabb21b17bb53c56118f32f62ebd6": {
                "nonce": "0x00",
                "balance": "0x0de0b6b3a7640000",
                "code": "0x",
                "storage": {}
            },
            "0x8bde6a10a1792232fd09b528800d9ac2a6835424": {
                "nonce": "0x00",
                "balance": "0x00",
                "code": "0x600160205260406000604060006000600035619c90f250600160205200",
                "storage": {}
            },
            "0xd4286ac3fcac436406bc95f5b0176ad49aed7f7c": {
                "nonce": "0x00",
                "balance": "0x00",
                "code": "0x600160205200",
                "storage": {}
            },
            "0x6e143211e9d36eaeebe65f6ed69d6c28500040d6": {
                "nonce": "0x00",
                "balance": "0x0de0b6b3a7640000",
                "code": "0x6000356000526040600060406000738bde6a10a1792232fd09b528800d9ac2a6835424620249f0fa600055600160015500",
                "storage": {}
            },
            "0x87f0bb05316a8d8146646a151a64f38ae9d25176": {
                "nonce": "0x00",
                "balance": "0x00",
                "code": "0x60016003556040600060406000600073d4286ac3fcac436406bc95f5b0176ad49aed7f7c614e34f250600160205200",
                "storage": {}
            },
            "0x94c82267a4e8333afb80073fbaed3fe5973adc7c": {
                "nonce": "0x00",
                "balance": "0x0a",
                "code": "0x6040600060406000600173d4286ac3fcac436406bc95f5b0176ad49aed7f7c614e34f250600160205200",
                "storage": {}
            },
            "0x1dffdbfbe33709f17b6e90137242c109917a994b": {
                "nonce": "0x00",
                "balance": "0x00",
                "code": "0x5b61c3506080511015601c5760013b506001608051016080526000565b6040600060406000600073d4286ac3fcac436406bc95f5b0176ad49aed7f7c614e34f250600160205200",
                "storage": {}
            }
        },
        "postState": {
            "0x000f3df6d732807ef1319fb7b8bb8522d0beac02": {
                "nonce": "0x01",
                "balance": "0x00",
                "code": "0x3373fffffffffffffffffffffffffffffffffffffffe14604d57602036146024575f5ffd5b5f35801560495762001fff810690815414603c575f5ffd5b62001fff01545f5260205ff35b5f5ffd5b62001fff42064281555f359062001fff015500",
                "storage": {
                    "0x03e8": "0x03e8"
                }
            },
            "0xd66f224cbd2fabb21b17bb53c56118f32f62ebd6": {
                "nonce": "0x01",
                "balance": "0x0de0b6b3a757c326",
                "code": "0x",
                "storage": {}
            },
            "0x8bde6a10a1792232fd09b528800d9ac2a6835424": {
                "nonce": "0x00",
                "balance": "0x00",
                "code": "0x600160205260406000604060006000600035619c90f250600160205200",
                "storage": {}
            },
            "0xd4286ac3fcac436406bc95f5b0176ad49aed7f7c": {
                "nonce": "0x00",
                "balance": "0x00",
                "code": "0x600160205200",
                "storage": {}
            },
            "0x6e143211e9d36eaeebe65f6ed69d6c28500040d6": {
                "nonce": "0x00",
                "balance": "0x0de0b6b3a7640000",
                "code": "0x6000356000526040600060406000738bde6a10a1792232fd09b528800d9ac2a6835424620249f0fa600055600160015500",
                "storage": {
                    "0x00": "0x01",
                    "0x01": "0x01"
                }
            },
            "0x87f0bb05316a8d8146646a151a64f38ae9d25176": {
                "nonce": "0x00",
                "balance": "0x00",
                "code": "0x60016003556040600060406000600073d4286ac3fcac436406bc95f5b0176ad49aed7f7c614e34f250600160205200",
                "storage": {}
            },
            "0x94c82267a4e8333afb80073fbaed3fe5973adc7c": {
                "nonce": "0x00",
                "balance": "0x0a",
                "code": "0x6040600060406000600173d4286ac3fcac436406bc95f5b0176ad49aed7f7c614e34f250600160205200",
                "storage": {}
            },
            "0x1dffdbfbe33709f17b6e90137242c109917a994b": {
                "nonce": "0x00",
                "balance": "0x00",
                "code": "0x5b61c3506080511015601c5760013b506001608051016080526000565b6040600060406000600073d4286ac3fcac436406bc95f5b0176ad49aed7f7c614e34f250600160205200",
                "storage": {}
            }
        },
        "lastblockhash": "0xc4dba47ba0bfad048136cf8b506784862f0ccef75c7aba9176ebc8fc01c3ad0d",
        "config": {
            "network": "Cancun",
            "chainid": "0x01",
            "blobSchedule": {
                "Cancun": {
                    "target": "0x03",
                    "max": "0x06",
                    "baseFeeUpdateFraction": "0x32f0ed"
                }
            }
        },
        "genesisRLP": "0xf9023cf90236a00000000000000000000000000000000000000000000000000000000000000000a01dcc4de8dec75d7aab85b567b6ccd41ad312451b948a7413f0a142fd40d49347940000000000000000000000000000000000000000a0be297065e37f2653ca59932e4ab53443ea8908660c88657c04650d920f95cc21a056e81f171bcc55a6ff8345e692c0f86e5b48e01b996cadc001622fb5e363b421a056e81f171bcc55a6ff8345e692c0f86e5b48e01b996cadc001622fb5e363b421b901000000000000000000000000000000000000000000000000000000000000000000000000000000000000000000000000000000000000000000000000000000000000000000000000000000000000000000000000000000000000000000000000000000000000000000000000000000000000000000000000000000000000000000000000000000000000000000000000000000000000000000000000000000000000000000000000000000000000000000000000000000000000000000000000000000000000000000000000000000000000000000000000000000000000000000000000000000000000000000000000000000000000000000000000000000000080808401c9c380808000a000000000000000000000000000000000000000000000000000000000000000008800000000000000000ba056e81f171bcc55a6ff8345e692c0f86e5b48e01b996cadc001622fb5e363b4218080a00000000000000000000000000000000000000000000000000000000000000000c0c0c0",
        "blocks": [
            {
                "blockHeader": {
                    "parentHash": "0x8530b0e9a0a477d276bcdb297c6e28eb7c51432d9adb3d39fa226f72d95f1c68",
                    "uncleHash": "0x1dcc4de8dec75d7aab85b567b6ccd41ad312451b948a7413f0a142fd40d49347",
                    "coinbase": "0x2adc25665018aa1fe0e6bc666dac8fc2697ff9ba",
                    "stateRoot": "0xe549a758eb1ee7537e69f7e3f6a185e9c8f428060af66acf8d6a69d767acedc9",
                    "transactionsTrie": "0x7f02c07219526f2be2f0d1d905888465520bd9d756a5c42259684c482518af6d",
                    "receiptTrie": "0x1fcb58e6af2238c0b3c1caa2fea22d184270fa37e08cf42333f95a3e81eb232c",
                    "bloom": "0x00000000000000000000000000000000000000000000000000000000000000000000000000000000000000000000000000000000000000000000000000000000000000000000000000000000000000000000000000000000000000000000000000000000000000000000000000000000000000000000000000000000000000000000000000000000000000000000000000000000000000000000000000000000000000000000000000000000000000000000000000000000000000000000000000000000000000000000000000000000000000000000000000000000000000000000000000000000000000000000000000000000000000000000000000000000",
                    "difficulty": "0x00",
                    "number": "0x01",
                    "gasLimit": "0x01c9c380",
                    "gasUsed": "0x013949",
                    "timestamp": "0x03e8",
                    "extraData": "0x00",
                    "mixHash": "0x0000000000000000000000000000000000000000000000000000000000020000",
                    "nonce": "0x0000000000000000",
                    "baseFeePerGas": "0x0a",
                    "withdrawalsRoot": "0x56e81f171bcc55a6ff8345e692c0f86e5b48e01b996cadc001622fb5e363b421",
                    "blobGasUsed": "0x00",
                    "excessBlobGas": "0x00",
                    "parentBeaconBlockRoot": "0x0000000000000000000000000000000000000000000000000000000000000000",
                    "hash": "0xc4dba47ba0bfad048136cf8b506784862f0ccef75c7aba9176ebc8fc01c3ad0d"
                },
                "transactions": [
                    {
                        "type": "0x00",
                        "chainId": "0x01",
                        "nonce": "0x00",
                        "gasPrice": "0x0a",
                        "gasLimit": "0x029fe0",
                        "to": "0x6e143211e9d36eaeebe65f6ed69d6c28500040d6",
                        "value": "0x00",
                        "data": "0x00000000000000000000000094c82267a4e8333afb80073fbaed3fe5973adc7c",
                        "v": "0x25",
                        "r": "0x5f6ea1e1b45fbfc00737195e032a5d8c4e4b95a1fb0370e31d7d15c5ed7810ed",
                        "s": "0x4292424a28849e14855e75a804ff0c1e92e4ab34dd7582b8c0c8630c59d67adb",
                        "sender": "0xd66f224cbd2fabb21b17bb53c56118f32f62ebd6"
                    }
                ],
                "uncleHeaders": [],
                "withdrawals": [],
                "receipts": [
                    {
                        "transactionHash": "0x4d761cb0a26f7a2fafd530868123930b22b72696761cd4cb6c3fef867e57d1ff",
                        "type": "0x00",
                        "cumulativeGasUsed": "0x013949",
                        "bloom": "0x00000000000000000000000000000000000000000000000000000000000000000000000000000000000000000000000000000000000000000000000000000000000000000000000000000000000000000000000000000000000000000000000000000000000000000000000000000000000000000000000000000000000000000000000000000000000000000000000000000000000000000000000000000000000000000000000000000000000000000000000000000000000000000000000000000000000000000000000000000000000000000000000000000000000000000000000000000000000000000000000000000000000000000000000000000000",
                        "logs": [],
                        "status": true,
                        "rlp": "0xf901090183013949b9010000000000000000000000000000000000000000000000000000000000000000000000000000000000000000000000000000000000000000000000000000000000000000000000000000000000000000000000000000000000000000000000000000000000000000000000000000000000000000000000000000000000000000000000000000000000000000000000000000000000000000000000000000000000000000000000000000000000000000000000000000000000000000000000000000000000000000000000000000000000000000000000000000000000000000000000000000000000000000000000000000000000000000000000000000000000c0"
                    }
                ],
                "rlp": "0xf902c4f9023ba08530b0e9a0a477d276bcdb297c6e28eb7c51432d9adb3d39fa226f72d95f1c68a01dcc4de8dec75d7aab85b567b6ccd41ad312451b948a7413f0a142fd40d49347942adc25665018aa1fe0e6bc666dac8fc2697ff9baa0e549a758eb1ee7537e69f7e3f6a185e9c8f428060af66acf8d6a69d767acedc9a07f02c07219526f2be2f0d1d905888465520bd9d756a5c42259684c482518af6da01fcb58e6af2238c0b3c1caa2fea22d184270fa37e08cf42333f95a3e81eb232cb901000000000000000000000000000000000000000000000000000000000000000000000000000000000000000000000000000000000000000000000000000000000000000000000000000000000000000000000000000000000000000000000000000000000000000000000000000000000000000000000000000000000000000000000000000000000000000000000000000000000000000000000000000000000000000000000000000000000000000000000000000000000000000000000000000000000000000000000000000000000000000000000000000000000000000000000000000000000000000000000000000000000000000000000000000000000080018401c9c380830139498203e800a000000000000000000000000000000000000000000000000000000000000200008800000000000000000aa056e81f171bcc55a6ff8345e692c0f86e5b48e01b996cadc001622fb5e363b4218080a00000000000000000000000000000000000000000000000000000000000000000f882f880800a83029fe0946e143211e9d36eaeebe65f6ed69d6c28500040d680a000000000000000000000000094c82267a4e8333afb80073fbaed3fe5973adc7c25a05f6ea1e1b45fbfc00737195e032a5d8c4e4b95a1fb0370e31d7d15c5ed7810eda04292424a28849e14855e75a804ff0c1e92e4ab34dd7582b8c0c8630c59d67adbc0c0",
                "blocknumber": "1"
            }
        ],
        "sealEngine": "NoProof",
        "_info": {
            "hash": "0x157841b4de8f0e9f5db61a656c82bb6010c0720154bd2e7b909c2894957cd2c6",
            "fixture-format": "blockchain_test",
            "comment": "`execution-specs` generated test",
            "filling-transition-tool": "2.19.0",
            "description": "Test_static_callcallcodecallcode_011_oogm_before2.",
            "url": "https://github.com/ethereum/execution-specs/blob/tests-snobal-devnet-5@v8037.0.0/tests/ported_static/stStaticCall/test_static_callcallcodecallcode_011_oogm_before2.py#L28",
            "metadata": {
                "opcode_count": {}
            }
        }
    }
}