{
    "tests/ported_static/stSystemOperationsTest/test_call_to_name_registrator_too_much_memory1.py::test_call_to_name_registrator_too_much_memory1[fork_Cancun-blockchain_test_from_state_test]": {
        "network": "Cancun",
        "genesisBlockHeader": {
            "parentHash": "0x0000000000000000000000000000000000000000000000000000000000000000",
            "uncleHash": "0x1dcc4de8dec75d7aab85b567b6ccd41ad312451b948a7413f0a142fd40d49347",
            "coinbase": "0x0000000000000000000000000000000000000000",
            "stateRoot": "0xdab75a897eec3eb25590a037ea054775530d74d9c9d0043680ed5003eabf378a",
            "transactionsTrie": "0x56e81f171bcc55a6ff8345e692c0f86e5b48e01b996cadc001622fb5e363b421",
            "receiptTrie": "0x56e81f171bcc55a6ff8345e692c0f86e5b48e01b996cadc001622fb5e363b421",
            "bloom": "0x00000000000000000000000000000000000000000000000000000000000000000000000000000000000000000000000000000000000000000000000000000000000000000000000000000000000000000000000000000000000000000000000000000000000000000000000000000000000000000000000000000000000000000000000000000000000000000000000000000000000000000000000000000000000000000000000000000000000000000000000000000000000000000000000000000000000000000000000000000000000000000000000000000000000000000000000000000000000000000000000000000000000000000000000000000000",
            "difficulty": "0x00",
            "number": "0x00",
            "gasLimit": "0x989680",
            "gasUsed": "0x00",
            "timestamp": "0x00",
            "extraData": "0x00",
            "mixHash": "0x0000000000000000000000000000000000000000000000000000000000000000",
            "nonce": "0x0000000000000000",
            "baseFeePerGas": "0x0b",
            "withdrawalsRoot": "0x56e81f171bcc55a6ff8345e692c0f86e5b48e01b996cadc001622fb5e363b421",
            "blobGasUsed": "0x00",
            "excessBlobGas": "0x00",
            "parentBeaconBlockRoot": "0x0000000000000000000000000000000000000000000000000000000000000000",
            "hash": "0x2b8216e10f0fb65ea35a4395a78420b6103b24841aecf415d22b0eeed7c06a7d"
        },
        "pre": {
            "0x000f3df6d732807ef1319fb7b8bb8522d0beac02": {
                "nonce": "0x01",
                "balance": "0x00",
                "code": "0x3373fffffffffffffffffffffffffffffffffffffffe14604d57602036146024575f5ffd5b5f35801560495762001fff810690815414603c575f5ffd5b62001fff01545f5260205ff35b5f5ffd5b62001fff42064281555f359062001fff015500",
                "storage": {}
            },
            "0x375d9c49dd17c920398b81ba030bf150bc16af59": {
                "nonce": "0x00",
                "balance": "0x0de0b6b3a7640000",
                "code": "0x7feeffffffffffffffffffffffffffffffffffffffffffffffffffffffffffff006000527faaffffffffffffffffffffffffffffffffffffffffffffffffffffffffffffaa60205260006040629688d8600060177315eb18969e0925c8e4a76fd7cbce36a2b056b27e6101f4f160005500",
                "storage": {}
            },
            "0x15eb18969e0925c8e4a76fd7cbce36a2b056b27e": {
                "nonce": "0x00",
                "balance": "0x17",
                "code": "0x6000355415600957005b60203560003555",
                "storage": {}
            },
            "0xebaf50debf10e08302fe4280c32df010463ca297": {
                "nonce": "0x00",
                "balance": "0x0de0b6b3a7640000",
                "code": "0x",
                "storage": {}
            }
        },
        "postState": {
            "0x000f3df6d732807ef1319fb7b8bb8522d0beac02": {
                "nonce": "0x01",
                "balance": "0x00",
                "code": "0x3373fffffffffffffffffffffffffffffffffffffffe14604d57602036146024575f5ffd5b5f35801560495762001fff810690815414603c575f5ffd5b62001fff01545f5260205ff35b5f5ffd5b62001fff42064281555f359062001fff015500",
                "storage": {
                    "0x03e8": "0x03e8"
                }
            },
            "0x375d9c49dd17c920398b81ba030bf150bc16af59": {
                "nonce": "0x00",
                "balance": "0x0de0b6b3a7640000",
                "code": "0x7feeffffffffffffffffffffffffffffffffffffffffffffffffffffffffffff006000527faaffffffffffffffffffffffffffffffffffffffffffffffffffffffffffffaa60205260006040629688d8600060177315eb18969e0925c8e4a76fd7cbce36a2b056b27e6101f4f160005500",
                "storage": {}
            },
            "0x15eb18969e0925c8e4a76fd7cbce36a2b056b27e": {
                "nonce": "0x00",
                "balance": "0x17",
                "code": "0x6000355415600957005b60203560003555",
                "storage": {}
            },
            "0xebaf50debf10e08302fe4280c32df010463ca297": {
                "nonce": "0x01",
                "balance": "0x0de0b6b3a7363940",
                "code": "0x",
                "storage": {}
            }
        },
        "lastblockhash": "0x3725f409eb57e1b748c596e387a2ca495ec5f0a30460da02f1fcb01c68ec1b9c",
        "config": {
            "network": "Cancun",
            "chainid": "0x01",
            "blobSchedule": {
                "Cancun": {
                    "target": "0x03",
                    "max": "0x06",
                    "baseFeeUpdateFraction": "0x32f0ed"
                }
            }
        },
        "genesisRLP": "0xf9023bf90235a00000000000000000000000000000000000000000000000000000000000000000a01dcc4de8dec75d7aab85b567b6ccd41ad312451b948a7413f0a142fd40d49347940000000000000000000000000000000000000000a0dab75a897eec3eb25590a037ea054775530d74d9c9d0043680ed5003eabf378aa056e81f171bcc55a6ff8345e692c0f86e5b48e01b996cadc001622fb5e363b421a056e81f171bcc55a6ff8345e692c0f86e5b48e01b996cadc001622fb5e363b421b9010000000000000000000000000000000000000000000000000000000000000000000000000000000000000000000000000000000000000000000000000000000000000000000000000000000000000000000000000000000000000000000000000000000000000000000000000000000000000000000000000000000000000000000000000000000000000000000000000000000000000000000000000000000000000000000000000000000000000000000000000000000000000000000000000000000000000000000000000000000000000000000000000000000000000000000000000000000000000000000000000000000000000000000000000000000000808083989680808000a000000000000000000000000000000000000000000000000000000000000000008800000000000000000ba056e81f171bcc55a6ff8345e692c0f86e5b48e01b996cadc001622fb5e363b4218080a00000000000000000000000000000000000000000000000000000000000000000c0c0c0",
        "blocks": [
            {
                "blockHeader": {
                    "parentHash": "0x2b8216e10f0fb65ea35a4395a78420b6103b24841aecf415d22b0eeed7c06a7d",
                    "uncleHash": "0x1dcc4de8dec75d7aab85b567b6ccd41ad312451b948a7413f0a142fd40d49347",
                    "coinbase": "0x2adc25665018aa1fe0e6bc666dac8fc2697ff9ba",
                    "stateRoot": "0x8732e93ab013666338131603f57109adc4f61c0b4c324745018f7b8a886650a1",
                    "transactionsTrie": "0xeef2cdc45c64859f2813219b14dcaaba131d7942e6e894bacfe9ac6dd7503ae4",
                    "receiptTrie": "0xe2a8b0fa171b989aab37eee4a349917e9c93607fc5c7b07513cf8997ec83e8bf",
                    "bloom": "0x00000000000000000000000000000000000000000000000000000000000000000000000000000000000000000000000000000000000000000000000000000000000000000000000000000000000000000000000000000000000000000000000000000000000000000000000000000000000000000000000000000000000000000000000000000000000000000000000000000000000000000000000000000000000000000000000000000000000000000000000000000000000000000000000000000000000000000000000000000000000000000000000000000000000000000000000000000000000000000000000000000000000000000000000000000000",
                    "difficulty": "0x00",
                    "number": "0x01",
                    "gasLimit": "0x989680",
                    "gasUsed": "0x0493e0",
                    "timestamp": "0x03e8",
                    "extraData": "0x00",
                    "mixHash": "0x0000000000000000000000000000000000000000000000000000000000020000",
                    "nonce": "0x0000000000000000",
                    "baseFeePerGas": "0x0a",
                    "withdrawalsRoot": "0x56e81f171bcc55a6ff8345e692c0f86e5b48e01b996cadc001622fb5e363b421",
                    "blobGasUsed": "0x00",
                    "excessBlobGas": "0x00",
                    "parentBeaconBlockRoot": "0x0000000000000000000000000000000000000000000000000000000000000000",
                    "hash": "0x3725f409eb57e1b748c596e387a2ca495ec5f0a30460da02f1fcb01c68ec1b9c"
                },
                "transactions": [
                    {
                        "type": "0x00",
                        "chainId": "0x01",
                        "nonce": "0x00",
                        "gasPrice": "0x0a",
                        "gasLimit": "0x0493e0",
                        "to": "0x375d9c49dd17c920398b81ba030bf150bc16af59",
                        "value": "0x0186a0",
                        "data": "0x",
                        "v": "0x25",
                        "r": "0x08671c9206c5e3393d4049b5569aab071f494f5319f5b2107d45874140902d51",
                        "s": "0x40ef6f67fdee52cc91a50f9d2c5097a5b111238db9db3c057e4f20e16d24b4e1",
                        "sender": "0xebaf50debf10e08302fe4280c32df010463ca297"
                    }
                ],
                "uncleHeaders": [],
                "withdrawals": [],
                "receipts": [
                    {
                        "transactionHash": "0x7e40d1b76c3d08a5c2bf23b4b10fb2673d80378bb25d3a55fa2dedc9d2b7e8b0",
                        "type": "0x00",
                        "cumulativeGasUsed": "0x0493e0",
                        "bloom": "0x00000000000000000000000000000000000000000000000000000000000000000000000000000000000000000000000000000000000000000000000000000000000000000000000000000000000000000000000000000000000000000000000000000000000000000000000000000000000000000000000000000000000000000000000000000000000000000000000000000000000000000000000000000000000000000000000000000000000000000000000000000000000000000000000000000000000000000000000000000000000000000000000000000000000000000000000000000000000000000000000000000000000000000000000000000000",
                        "logs": [],
                        "status": false,
                        "rlp": "0xf9010980830493e0b9010000000000000000000000000000000000000000000000000000000000000000000000000000000000000000000000000000000000000000000000000000000000000000000000000000000000000000000000000000000000000000000000000000000000000000000000000000000000000000000000000000000000000000000000000000000000000000000000000000000000000000000000000000000000000000000000000000000000000000000000000000000000000000000000000000000000000000000000000000000000000000000000000000000000000000000000000000000000000000000000000000000000000000000000000000000000c0"
                    }
                ],
                "rlp": "0xf902a6f9023aa02b8216e10f0fb65ea35a4395a78420b6103b24841aecf415d22b0eeed7c06a7da01dcc4de8dec75d7aab85b567b6ccd41ad312451b948a7413f0a142fd40d49347942adc25665018aa1fe0e6bc666dac8fc2697ff9baa08732e93ab013666338131603f57109adc4f61c0b4c324745018f7b8a886650a1a0eef2cdc45c64859f2813219b14dcaaba131d7942e6e894bacfe9ac6dd7503ae4a0e2a8b0fa171b989aab37eee4a349917e9c93607fc5c7b07513cf8997ec83e8bfb9010000000000000000000000000000000000000000000000000000000000000000000000000000000000000000000000000000000000000000000000000000000000000000000000000000000000000000000000000000000000000000000000000000000000000000000000000000000000000000000000000000000000000000000000000000000000000000000000000000000000000000000000000000000000000000000000000000000000000000000000000000000000000000000000000000000000000000000000000000000000000000000000000000000000000000000000000000000000000000000000000000000000000000000000000000000000800183989680830493e08203e800a000000000000000000000000000000000000000000000000000000000000200008800000000000000000aa056e81f171bcc55a6ff8345e692c0f86e5b48e01b996cadc001622fb5e363b4218080a00000000000000000000000000000000000000000000000000000000000000000f865f863800a830493e094375d9c49dd17c920398b81ba030bf150bc16af59830186a08025a008671c9206c5e3393d4049b5569aab071f494f5319f5b2107d45874140902d51a040ef6f67fdee52cc91a50f9d2c5097a5b111238db9db3c057e4f20e16d24b4e1c0c0",
                "blocknumber": "1"
            }
        ],
        "sealEngine": "NoProof",
        "_info": {
            "hash": "0x9d98ea24e1c1e1ccab197711be20b8571439c4b9674501ba400c47258e277a31",
            "fixture-format": "blockchain_test",
            "comment": "`execution-specs` generated test",
            "filling-transition-tool": "2.19.0",
            "description": "Test_call_to_name_registrator_too_much_memory1.",
            "url": "https://github.com/ethereum/execution-specs/blob/tests-bal@v5.6.1/tests/ported_static/stSystemOperationsTest/test_call_to_name_registrator_too_much_memory1.py#L25",
            "metadata": {
                "opcode_count": {}
            }
        }
    }
}