{
    "tests/ported_static/stStaticCall/test_static_callcodecallcallcode_101_suicide_end2.py::test_static_callcodecallcallcode_101_suicide_end2[fork_Cancun-blockchain_test_from_state_test--v0]": {
        "network": "Cancun",
        "genesisBlockHeader": {
            "parentHash": "0x0000000000000000000000000000000000000000000000000000000000000000",
            "uncleHash": "0x1dcc4de8dec75d7aab85b567b6ccd41ad312451b948a7413f0a142fd40d49347",
            "coinbase": "0x0000000000000000000000000000000000000000",
            "stateRoot": "0xfa83e561e3c7fcc798b50d68295f965d5912dcf5a26e7e5aab04440368b0b0cc",
            "transactionsTrie": "0x56e81f171bcc55a6ff8345e692c0f86e5b48e01b996cadc001622fb5e363b421",
            "receiptTrie": "0x56e81f171bcc55a6ff8345e692c0f86e5b48e01b996cadc001622fb5e363b421",
            "bloom": "0x00000000000000000000000000000000000000000000000000000000000000000000000000000000000000000000000000000000000000000000000000000000000000000000000000000000000000000000000000000000000000000000000000000000000000000000000000000000000000000000000000000000000000000000000000000000000000000000000000000000000000000000000000000000000000000000000000000000000000000000000000000000000000000000000000000000000000000000000000000000000000000000000000000000000000000000000000000000000000000000000000000000000000000000000000000000",
            "difficulty": "0x00",
            "number": "0x00",
            "gasLimit": "0x01c9c380",
            "gasUsed": "0x00",
            "timestamp": "0x00",
            "extraData": "0x00",
            "mixHash": "0x0000000000000000000000000000000000000000000000000000000000000000",
            "nonce": "0x0000000000000000",
            "baseFeePerGas": "0x0b",
            "withdrawalsRoot": "0x56e81f171bcc55a6ff8345e692c0f86e5b48e01b996cadc001622fb5e363b421",
            "blobGasUsed": "0x00",
            "excessBlobGas": "0x00",
            "parentBeaconBlockRoot": "0x0000000000000000000000000000000000000000000000000000000000000000",
            "hash": "0xa1a491d7f68620def4c6ce95c21796c5184ef2a9d7ed7acb70d7d4808cdcd7f4"
        },
        "pre": {
            "0x000f3df6d732807ef1319fb7b8bb8522d0beac02": {
                "nonce": "0x01",
                "balance": "0x00",
                "code": "0x3373fffffffffffffffffffffffffffffffffffffffe14604d57602036146024575f5ffd5b5f35801560495762001fff810690815414603c575f5ffd5b62001fff01545f5260205ff35b5f5ffd5b62001fff42064281555f359062001fff015500",
                "storage": {}
            },
            "0xd66f224cbd2fabb21b17bb53c56118f32f62ebd6": {
                "nonce": "0x00",
                "balance": "0x0de0b6b3a7640000",
                "code": "0x",
                "storage": {}
            },
            "0x48e2d4c0b593bfebe5ddb4f13aa355b8bd83ddd3": {
                "nonce": "0x00",
                "balance": "0x02540be400",
                "code": "0x600160035200",
                "storage": {}
            },
            "0xcc7b2c7c17e1dd7940b1aa2f4b3e55d7bd662608": {
                "nonce": "0x00",
                "balance": "0x0de0b6b3a7640000",
                "code": "0x60406000604060003473620b381d01cbd812ffb798ab35a1a316bde90ce6620249f0f2600055600160015500",
                "storage": {}
            },
            "0x620b381d01cbd812ffb798ab35a1a316bde90ce6": {
                "nonce": "0x00",
                "balance": "0x02540be400",
                "code": "0x600160035260406000604060007390e9b92c59a0e93d8ab0b7afbc945d6999a50a9b620186a0fa50600160205200",
                "storage": {}
            },
            "0x90e9b92c59a0e93d8ab0b7afbc945d6999a50a9b": {
                "nonce": "0x00",
                "balance": "0x02540be400",
                "code": "0x604060006040600060007348e2d4c0b593bfebe5ddb4f13aa355b8bd83ddd361c350f25073620b381d01cbd812ffb798ab35a1a316bde90ce6ff00",
                "storage": {}
            }
        },
        "postState": {
            "0x000f3df6d732807ef1319fb7b8bb8522d0beac02": {
                "nonce": "0x01",
                "balance": "0x00",
                "code": "0x3373fffffffffffffffffffffffffffffffffffffffe14604d57602036146024575f5ffd5b5f35801560495762001fff810690815414603c575f5ffd5b62001fff01545f5260205ff35b5f5ffd5b62001fff42064281555f359062001fff015500",
                "storage": {
                    "0x03e8": "0x03e8"
                }
            },
            "0xd66f224cbd2fabb21b17bb53c56118f32f62ebd6": {
                "nonce": "0x01",
                "balance": "0x0de0b6b3a749fcaa",
                "code": "0x",
                "storage": {}
            },
            "0x48e2d4c0b593bfebe5ddb4f13aa355b8bd83ddd3": {
                "nonce": "0x00",
                "balance": "0x02540be400",
                "code": "0x600160035200",
                "storage": {}
            },
            "0xcc7b2c7c17e1dd7940b1aa2f4b3e55d7bd662608": {
                "nonce": "0x00",
                "balance": "0x0de0b6b3a7640000",
                "code": "0x60406000604060003473620b381d01cbd812ffb798ab35a1a316bde90ce6620249f0f2600055600160015500",
                "storage": {
                    "0x00": "0x01",
                    "0x01": "0x01"
                }
            },
            "0x620b381d01cbd812ffb798ab35a1a316bde90ce6": {
                "nonce": "0x00",
                "balance": "0x02540be400",
                "code": "0x600160035260406000604060007390e9b92c59a0e93d8ab0b7afbc945d6999a50a9b620186a0fa50600160205200",
                "storage": {}
            },
            "0x90e9b92c59a0e93d8ab0b7afbc945d6999a50a9b": {
                "nonce": "0x00",
                "balance": "0x02540be400",
                "code": "0x604060006040600060007348e2d4c0b593bfebe5ddb4f13aa355b8bd83ddd361c350f25073620b381d01cbd812ffb798ab35a1a316bde90ce6ff00",
                "storage": {}
            }
        },
        "lastblockhash": "0xa3a08ccfe112b2b487aa0786176405014ca2673ebafa37892c0b95d3474f69f1",
        "config": {
            "network": "Cancun",
            "chainid": "0x01",
            "blobSchedule": {
                "Cancun": {
                    "target": "0x03",
                    "max": "0x06",
                    "baseFeeUpdateFraction": "0x32f0ed"
                }
            }
        },
        "genesisRLP": "0xf9023cf90236a00000000000000000000000000000000000000000000000000000000000000000a01dcc4de8dec75d7aab85b567b6ccd41ad312451b948a7413f0a142fd40d49347940000000000000000000000000000000000000000a0fa83e561e3c7fcc798b50d68295f965d5912dcf5a26e7e5aab04440368b0b0cca056e81f171bcc55a6ff8345e692c0f86e5b48e01b996cadc001622fb5e363b421a056e81f171bcc55a6ff8345e692c0f86e5b48e01b996cadc001622fb5e363b421b901000000000000000000000000000000000000000000000000000000000000000000000000000000000000000000000000000000000000000000000000000000000000000000000000000000000000000000000000000000000000000000000000000000000000000000000000000000000000000000000000000000000000000000000000000000000000000000000000000000000000000000000000000000000000000000000000000000000000000000000000000000000000000000000000000000000000000000000000000000000000000000000000000000000000000000000000000000000000000000000000000000000000000000000000000000000080808401c9c380808000a000000000000000000000000000000000000000000000000000000000000000008800000000000000000ba056e81f171bcc55a6ff8345e692c0f86e5b48e01b996cadc001622fb5e363b4218080a00000000000000000000000000000000000000000000000000000000000000000c0c0c0",
        "blocks": [
            {
                "blockHeader": {
                    "parentHash": "0xa1a491d7f68620def4c6ce95c21796c5184ef2a9d7ed7acb70d7d4808cdcd7f4",
                    "uncleHash": "0x1dcc4de8dec75d7aab85b567b6ccd41ad312451b948a7413f0a142fd40d49347",
                    "coinbase": "0x2adc25665018aa1fe0e6bc666dac8fc2697ff9ba",
                    "stateRoot": "0xe07739421626e5481ff5220a1f1ac374b299b20d01a46334c96d8319547bdf59",
                    "transactionsTrie": "0x54d4cc6415f65c3b12d4ed42a8354f9555340957d6dc60231fc525eba0c77dc4",
                    "receiptTrie": "0x88ac095815af65f7b4c666a50e969be4a1900bd0ced859a42bbe0ff49354b333",
                    "bloom": "0x00000000000000000000000000000000000000000000000000000000000000000000000000000000000000000000000000000000000000000000000000000000000000000000000000000000000000000000000000000000000000000000000000000000000000000000000000000000000000000000000000000000000000000000000000000000000000000000000000000000000000000000000000000000000000000000000000000000000000000000000000000000000000000000000000000000000000000000000000000000000000000000000000000000000000000000000000000000000000000000000000000000000000000000000000000000",
                    "difficulty": "0x00",
                    "number": "0x01",
                    "gasLimit": "0x01c9c380",
                    "gasUsed": "0x0299ef",
                    "timestamp": "0x03e8",
                    "extraData": "0x00",
                    "mixHash": "0x0000000000000000000000000000000000000000000000000000000000020000",
                    "nonce": "0x0000000000000000",
                    "baseFeePerGas": "0x0a",
                    "withdrawalsRoot": "0x56e81f171bcc55a6ff8345e692c0f86e5b48e01b996cadc001622fb5e363b421",
                    "blobGasUsed": "0x00",
                    "excessBlobGas": "0x00",
                    "parentBeaconBlockRoot": "0x0000000000000000000000000000000000000000000000000000000000000000",
                    "hash": "0xa3a08ccfe112b2b487aa0786176405014ca2673ebafa37892c0b95d3474f69f1"
                },
                "transactions": [
                    {
                        "type": "0x00",
                        "chainId": "0x01",
                        "nonce": "0x00",
                        "gasPrice": "0x0a",
                        "gasLimit": "0x2dc6c0",
                        "to": "0xcc7b2c7c17e1dd7940b1aa2f4b3e55d7bd662608",
                        "value": "0x00",
                        "data": "0x",
                        "v": "0x25",
                        "r": "0x460a34320824e31b19603d3952d499257f50a516c9acb6f56710dcf24314f745",
                        "s": "0x3a454a1a58ae462489d40711e8a2f099fc9e4c43718f4d351e15f8601c8a2d5c",
                        "sender": "0xd66f224cbd2fabb21b17bb53c56118f32f62ebd6"
                    }
                ],
                "uncleHeaders": [],
                "withdrawals": [],
                "receipts": [
                    {
                        "transactionHash": "0xbb3c8c00c2b95006e289ca022635b386e93137d652bfd43af9185052053d62f6",
                        "type": "0x00",
                        "cumulativeGasUsed": "0x0299ef",
                        "bloom": "0x00000000000000000000000000000000000000000000000000000000000000000000000000000000000000000000000000000000000000000000000000000000000000000000000000000000000000000000000000000000000000000000000000000000000000000000000000000000000000000000000000000000000000000000000000000000000000000000000000000000000000000000000000000000000000000000000000000000000000000000000000000000000000000000000000000000000000000000000000000000000000000000000000000000000000000000000000000000000000000000000000000000000000000000000000000000",
                        "logs": [],
                        "status": true,
                        "rlp": "0xf9010901830299efb9010000000000000000000000000000000000000000000000000000000000000000000000000000000000000000000000000000000000000000000000000000000000000000000000000000000000000000000000000000000000000000000000000000000000000000000000000000000000000000000000000000000000000000000000000000000000000000000000000000000000000000000000000000000000000000000000000000000000000000000000000000000000000000000000000000000000000000000000000000000000000000000000000000000000000000000000000000000000000000000000000000000000000000000000000000000000c0"
                    }
                ],
                "rlp": "0xf902a4f9023ba0a1a491d7f68620def4c6ce95c21796c5184ef2a9d7ed7acb70d7d4808cdcd7f4a01dcc4de8dec75d7aab85b567b6ccd41ad312451b948a7413f0a142fd40d49347942adc25665018aa1fe0e6bc666dac8fc2697ff9baa0e07739421626e5481ff5220a1f1ac374b299b20d01a46334c96d8319547bdf59a054d4cc6415f65c3b12d4ed42a8354f9555340957d6dc60231fc525eba0c77dc4a088ac095815af65f7b4c666a50e969be4a1900bd0ced859a42bbe0ff49354b333b901000000000000000000000000000000000000000000000000000000000000000000000000000000000000000000000000000000000000000000000000000000000000000000000000000000000000000000000000000000000000000000000000000000000000000000000000000000000000000000000000000000000000000000000000000000000000000000000000000000000000000000000000000000000000000000000000000000000000000000000000000000000000000000000000000000000000000000000000000000000000000000000000000000000000000000000000000000000000000000000000000000000000000000000000000000000080018401c9c380830299ef8203e800a000000000000000000000000000000000000000000000000000000000000200008800000000000000000aa056e81f171bcc55a6ff8345e692c0f86e5b48e01b996cadc001622fb5e363b4218080a00000000000000000000000000000000000000000000000000000000000000000f862f860800a832dc6c094cc7b2c7c17e1dd7940b1aa2f4b3e55d7bd662608808025a0460a34320824e31b19603d3952d499257f50a516c9acb6f56710dcf24314f745a03a454a1a58ae462489d40711e8a2f099fc9e4c43718f4d351e15f8601c8a2d5cc0c0",
                "blocknumber": "1"
            }
        ],
        "sealEngine": "NoProof",
        "_info": {
            "hash": "0xd6637775eb5fd87b04f5fe104a89a87067b26fa9a89db083db2eb63a8af6986c",
            "fixture-format": "blockchain_test",
            "comment": "`execution-specs` generated test",
            "filling-transition-tool": "2.19.0",
            "description": "Test_static_callcodecallcallcode_101_suicide_end2.",
            "url": "https://github.com/ethereum/execution-specs/blob/tests-snobal-devnet-5@v8037.0.0/tests/ported_static/stStaticCall/test_static_callcodecallcallcode_101_suicide_end2.py#L25",
            "metadata": {
                "opcode_count": {}
            }
        }
    },
    "tests/ported_static/stStaticCall/test_static_callcodecallcallcode_101_suicide_end2.py::test_static_callcodecallcallcode_101_suicide_end2[fork_Cancun-blockchain_test_from_state_test--v1]": {
        "network": "Cancun",
        "genesisBlockHeader": {
            "parentHash": "0x0000000000000000000000000000000000000000000000000000000000000000",
            "uncleHash": "0x1dcc4de8dec75d7aab85b567b6ccd41ad312451b948a7413f0a142fd40d49347",
            "coinbase": "0x0000000000000000000000000000000000000000",
            "stateRoot": "0xfa83e561e3c7fcc798b50d68295f965d5912dcf5a26e7e5aab04440368b0b0cc",
            "transactionsTrie": "0x56e81f171bcc55a6ff8345e692c0f86e5b48e01b996cadc001622fb5e363b421",
            "receiptTrie": "0x56e81f171bcc55a6ff8345e692c0f86e5b48e01b996cadc001622fb5e363b421",
            "bloom": "0x00000000000000000000000000000000000000000000000000000000000000000000000000000000000000000000000000000000000000000000000000000000000000000000000000000000000000000000000000000000000000000000000000000000000000000000000000000000000000000000000000000000000000000000000000000000000000000000000000000000000000000000000000000000000000000000000000000000000000000000000000000000000000000000000000000000000000000000000000000000000000000000000000000000000000000000000000000000000000000000000000000000000000000000000000000000",
            "difficulty": "0x00",
            "number": "0x00",
            "gasLimit": "0x01c9c380",
            "gasUsed": "0x00",
            "timestamp": "0x00",
            "extraData": "0x00",
            "mixHash": "0x0000000000000000000000000000000000000000000000000000000000000000",
            "nonce": "0x0000000000000000",
            "baseFeePerGas": "0x0b",
            "withdrawalsRoot": "0x56e81f171bcc55a6ff8345e692c0f86e5b48e01b996cadc001622fb5e363b421",
            "blobGasUsed": "0x00",
            "excessBlobGas": "0x00",
            "parentBeaconBlockRoot": "0x0000000000000000000000000000000000000000000000000000000000000000",
            "hash": "0xa1a491d7f68620def4c6ce95c21796c5184ef2a9d7ed7acb70d7d4808cdcd7f4"
        },
        "pre": {
            "0x000f3df6d732807ef1319fb7b8bb8522d0beac02": {
                "nonce": "0x01",
                "balance": "0x00",
                "code": "0x3373fffffffffffffffffffffffffffffffffffffffe14604d57602036146024575f5ffd5b5f35801560495762001fff810690815414603c575f5ffd5b62001fff01545f5260205ff35b5f5ffd5b62001fff42064281555f359062001fff015500",
                "storage": {}
            },
            "0xd66f224cbd2fabb21b17bb53c56118f32f62ebd6": {
                "nonce": "0x00",
                "balance": "0x0de0b6b3a7640000",
                "code": "0x",
                "storage": {}
            },
            "0x48e2d4c0b593bfebe5ddb4f13aa355b8bd83ddd3": {
                "nonce": "0x00",
                "balance": "0x02540be400",
                "code": "0x600160035200",
                "storage": {}
            },
            "0xcc7b2c7c17e1dd7940b1aa2f4b3e55d7bd662608": {
                "nonce": "0x00",
                "balance": "0x0de0b6b3a7640000",
                "code": "0x60406000604060003473620b381d01cbd812ffb798ab35a1a316bde90ce6620249f0f2600055600160015500",
                "storage": {}
            },
            "0x620b381d01cbd812ffb798ab35a1a316bde90ce6": {
                "nonce": "0x00",
                "balance": "0x02540be400",
                "code": "0x600160035260406000604060007390e9b92c59a0e93d8ab0b7afbc945d6999a50a9b620186a0fa50600160205200",
                "storage": {}
            },
            "0x90e9b92c59a0e93d8ab0b7afbc945d6999a50a9b": {
                "nonce": "0x00",
                "balance": "0x02540be400",
                "code": "0x604060006040600060007348e2d4c0b593bfebe5ddb4f13aa355b8bd83ddd361c350f25073620b381d01cbd812ffb798ab35a1a316bde90ce6ff00",
                "storage": {}
            }
        },
        "postState": {
            "0x000f3df6d732807ef1319fb7b8bb8522d0beac02": {
                "nonce": "0x01",
                "balance": "0x00",
                "code": "0x3373fffffffffffffffffffffffffffffffffffffffe14604d57602036146024575f5ffd5b5f35801560495762001fff810690815414603c575f5ffd5b62001fff01545f5260205ff35b5f5ffd5b62001fff42064281555f359062001fff015500",
                "storage": {
                    "0x03e8": "0x03e8"
                }
            },
            "0xd66f224cbd2fabb21b17bb53c56118f32f62ebd6": {
                "nonce": "0x01",
                "balance": "0x0de0b6b3a748f6f1",
                "code": "0x",
                "storage": {}
            },
            "0x48e2d4c0b593bfebe5ddb4f13aa355b8bd83ddd3": {
                "nonce": "0x00",
                "balance": "0x02540be400",
                "code": "0x600160035200",
                "storage": {}
            },
            "0xcc7b2c7c17e1dd7940b1aa2f4b3e55d7bd662608": {
                "nonce": "0x00",
                "balance": "0x0de0b6b3a7640001",
                "code": "0x60406000604060003473620b381d01cbd812ffb798ab35a1a316bde90ce6620249f0f2600055600160015500",
                "storage": {
                    "0x00": "0x01",
                    "0x01": "0x01"
                }
            },
            "0x620b381d01cbd812ffb798ab35a1a316bde90ce6": {
                "nonce": "0x00",
                "balance": "0x02540be400",
                "code": "0x600160035260406000604060007390e9b92c59a0e93d8ab0b7afbc945d6999a50a9b620186a0fa50600160205200",
                "storage": {}
            },
            "0x90e9b92c59a0e93d8ab0b7afbc945d6999a50a9b": {
                "nonce": "0x00",
                "balance": "0x02540be400",
                "code": "0x604060006040600060007348e2d4c0b593bfebe5ddb4f13aa355b8bd83ddd361c350f25073620b381d01cbd812ffb798ab35a1a316bde90ce6ff00",
                "storage": {}
            }
        },
        "lastblockhash": "0x9818ff09d8e8584c497acbe9528da34dcb386e0da0f8ff7ffea4f768cbd6ef44",
        "config": {
            "network": "Cancun",
            "chainid": "0x01",
            "blobSchedule": {
                "Cancun": {
                    "target": "0x03",
                    "max": "0x06",
                    "baseFeeUpdateFraction": "0x32f0ed"
                }
            }
        },
        "genesisRLP": "0xf9023cf90236a00000000000000000000000000000000000000000000000000000000000000000a01dcc4de8dec75d7aab85b567b6ccd41ad312451b948a7413f0a142fd40d49347940000000000000000000000000000000000000000a0fa83e561e3c7fcc798b50d68295f965d5912dcf5a26e7e5aab04440368b0b0cca056e81f171bcc55a6ff8345e692c0f86e5b48e01b996cadc001622fb5e363b421a056e81f171bcc55a6ff8345e692c0f86e5b48e01b996cadc001622fb5e363b421b901000000000000000000000000000000000000000000000000000000000000000000000000000000000000000000000000000000000000000000000000000000000000000000000000000000000000000000000000000000000000000000000000000000000000000000000000000000000000000000000000000000000000000000000000000000000000000000000000000000000000000000000000000000000000000000000000000000000000000000000000000000000000000000000000000000000000000000000000000000000000000000000000000000000000000000000000000000000000000000000000000000000000000000000000000000000080808401c9c380808000a000000000000000000000000000000000000000000000000000000000000000008800000000000000000ba056e81f171bcc55a6ff8345e692c0f86e5b48e01b996cadc001622fb5e363b4218080a00000000000000000000000000000000000000000000000000000000000000000c0c0c0",
        "blocks": [
            {
                "blockHeader": {
                    "parentHash": "0xa1a491d7f68620def4c6ce95c21796c5184ef2a9d7ed7acb70d7d4808cdcd7f4",
                    "uncleHash": "0x1dcc4de8dec75d7aab85b567b6ccd41ad312451b948a7413f0a142fd40d49347",
                    "coinbase": "0x2adc25665018aa1fe0e6bc666dac8fc2697ff9ba",
                    "stateRoot": "0xbbe1a9825a9bf5c3cb1b55c422b41a15f28854628bde7e065eefd1759a0fcf0a",
                    "transactionsTrie": "0x0d8db480eeceeca0e128d0dc423232dacd5aeef4e205910849b29864b10a88ae",
                    "receiptTrie": "0x3ab93771b864284b830554331e996d1e579f3510cc00329161e2c4dbbb5e69f7",
                    "bloom": "0x00000000000000000000000000000000000000000000000000000000000000000000000000000000000000000000000000000000000000000000000000000000000000000000000000000000000000000000000000000000000000000000000000000000000000000000000000000000000000000000000000000000000000000000000000000000000000000000000000000000000000000000000000000000000000000000000000000000000000000000000000000000000000000000000000000000000000000000000000000000000000000000000000000000000000000000000000000000000000000000000000000000000000000000000000000000",
                    "difficulty": "0x00",
                    "number": "0x01",
                    "gasLimit": "0x01c9c380",
                    "gasUsed": "0x02b41b",
                    "timestamp": "0x03e8",
                    "extraData": "0x00",
                    "mixHash": "0x0000000000000000000000000000000000000000000000000000000000020000",
                    "nonce": "0x0000000000000000",
                    "baseFeePerGas": "0x0a",
                    "withdrawalsRoot": "0x56e81f171bcc55a6ff8345e692c0f86e5b48e01b996cadc001622fb5e363b421",
                    "blobGasUsed": "0x00",
                    "excessBlobGas": "0x00",
                    "parentBeaconBlockRoot": "0x0000000000000000000000000000000000000000000000000000000000000000",
                    "hash": "0x9818ff09d8e8584c497acbe9528da34dcb386e0da0f8ff7ffea4f768cbd6ef44"
                },
                "transactions": [
                    {
                        "type": "0x00",
                        "chainId": "0x01",
                        "nonce": "0x00",
                        "gasPrice": "0x0a",
                        "gasLimit": "0x2dc6c0",
                        "to": "0xcc7b2c7c17e1dd7940b1aa2f4b3e55d7bd662608",
                        "value": "0x01",
                        "data": "0x",
                        "v": "0x25",
                        "r": "0x64f464f5f837c2d10e910e1cab3da6158722da728a3514dd06f5007b2b75e29c",
                        "s": "0x4acd71804c20a4f31baaa2463e64e83fe861bc27a501e1aa90f23629623856f9",
                        "sender": "0xd66f224cbd2fabb21b17bb53c56118f32f62ebd6"
                    }
                ],
                "uncleHeaders": [],
                "withdrawals": [],
                "receipts": [
                    {
                        "transactionHash": "0x47194c6769d60c8ebd1e25612f049af6b15178770a76da0aa166dbad39742410",
                        "type": "0x00",
                        "cumulativeGasUsed": "0x02b41b",
                        "bloom": "0x00000000000000000000000000000000000000000000000000000000000000000000000000000000000000000000000000000000000000000000000000000000000000000000000000000000000000000000000000000000000000000000000000000000000000000000000000000000000000000000000000000000000000000000000000000000000000000000000000000000000000000000000000000000000000000000000000000000000000000000000000000000000000000000000000000000000000000000000000000000000000000000000000000000000000000000000000000000000000000000000000000000000000000000000000000000",
                        "logs": [],
                        "status": true,
                        "rlp": "0xf90109018302b41bb9010000000000000000000000000000000000000000000000000000000000000000000000000000000000000000000000000000000000000000000000000000000000000000000000000000000000000000000000000000000000000000000000000000000000000000000000000000000000000000000000000000000000000000000000000000000000000000000000000000000000000000000000000000000000000000000000000000000000000000000000000000000000000000000000000000000000000000000000000000000000000000000000000000000000000000000000000000000000000000000000000000000000000000000000000000000000c0"
                    }
                ],
                "rlp": "0xf902a4f9023ba0a1a491d7f68620def4c6ce95c21796c5184ef2a9d7ed7acb70d7d4808cdcd7f4a01dcc4de8dec75d7aab85b567b6ccd41ad312451b948a7413f0a142fd40d49347942adc25665018aa1fe0e6bc666dac8fc2697ff9baa0bbe1a9825a9bf5c3cb1b55c422b41a15f28854628bde7e065eefd1759a0fcf0aa00d8db480eeceeca0e128d0dc423232dacd5aeef4e205910849b29864b10a88aea03ab93771b864284b830554331e996d1e579f3510cc00329161e2c4dbbb5e69f7b901000000000000000000000000000000000000000000000000000000000000000000000000000000000000000000000000000000000000000000000000000000000000000000000000000000000000000000000000000000000000000000000000000000000000000000000000000000000000000000000000000000000000000000000000000000000000000000000000000000000000000000000000000000000000000000000000000000000000000000000000000000000000000000000000000000000000000000000000000000000000000000000000000000000000000000000000000000000000000000000000000000000000000000000000000000000080018401c9c3808302b41b8203e800a000000000000000000000000000000000000000000000000000000000000200008800000000000000000aa056e81f171bcc55a6ff8345e692c0f86e5b48e01b996cadc001622fb5e363b4218080a00000000000000000000000000000000000000000000000000000000000000000f862f860800a832dc6c094cc7b2c7c17e1dd7940b1aa2f4b3e55d7bd662608018025a064f464f5f837c2d10e910e1cab3da6158722da728a3514dd06f5007b2b75e29ca04acd71804c20a4f31baaa2463e64e83fe861bc27a501e1aa90f23629623856f9c0c0",
                "blocknumber": "1"
            }
        ],
        "sealEngine": "NoProof",
        "_info": {
            "hash": "0xf01d344bde8dbc5cea7f797bbc22613e234c85cf032c35c5d6ad4c22cb086b92",
            "fixture-format": "blockchain_test",
            "comment": "`execution-specs` generated test",
            "filling-transition-tool": "2.19.0",
            "description": "Test_static_callcodecallcallcode_101_suicide_end2.",
            "url": "https://github.com/ethereum/execution-specs/blob/tests-snobal-devnet-5@v8037.0.0/tests/ported_static/stStaticCall/test_static_callcodecallcallcode_101_suicide_end2.py#L25",
            "metadata": {
                "opcode_count": {}
            }
        }
    }
}