{
    "tests/ported_static/stRefundTest/test_refund_call_to_suicide_twice.py::test_refund_call_to_suicide_twice[fork_Cancun-blockchain_test_from_state_test-d0]": {
        "network": "Cancun",
        "genesisBlockHeader": {
            "parentHash": "0x0000000000000000000000000000000000000000000000000000000000000000",
            "uncleHash": "0x1dcc4de8dec75d7aab85b567b6ccd41ad312451b948a7413f0a142fd40d49347",
            "coinbase": "0x0000000000000000000000000000000000000000",
            "stateRoot": "0x2c96caebaa4e83b31c3f59aa65713a64bc3d7ea919b22ae23438f20eee485c30",
            "transactionsTrie": "0x56e81f171bcc55a6ff8345e692c0f86e5b48e01b996cadc001622fb5e363b421",
            "receiptTrie": "0x56e81f171bcc55a6ff8345e692c0f86e5b48e01b996cadc001622fb5e363b421",
            "bloom": "0x00000000000000000000000000000000000000000000000000000000000000000000000000000000000000000000000000000000000000000000000000000000000000000000000000000000000000000000000000000000000000000000000000000000000000000000000000000000000000000000000000000000000000000000000000000000000000000000000000000000000000000000000000000000000000000000000000000000000000000000000000000000000000000000000000000000000000000000000000000000000000000000000000000000000000000000000000000000000000000000000000000000000000000000000000000000",
            "difficulty": "0x00",
            "number": "0x00",
            "gasLimit": "0x05f5e100",
            "gasUsed": "0x00",
            "timestamp": "0x00",
            "extraData": "0x00",
            "mixHash": "0x0000000000000000000000000000000000000000000000000000000000000000",
            "nonce": "0x0000000000000000",
            "baseFeePerGas": "0x0b",
            "withdrawalsRoot": "0x56e81f171bcc55a6ff8345e692c0f86e5b48e01b996cadc001622fb5e363b421",
            "blobGasUsed": "0x00",
            "excessBlobGas": "0x00",
            "parentBeaconBlockRoot": "0x0000000000000000000000000000000000000000000000000000000000000000",
            "hash": "0xf8293cbe50a7cf2ec097f2db1ce0f00bd6fef36f26776f2249f7006c386a3743"
        },
        "pre": {
            "0x000f3df6d732807ef1319fb7b8bb8522d0beac02": {
                "nonce": "0x01",
                "balance": "0x00",
                "code": "0x3373fffffffffffffffffffffffffffffffffffffffe14604d57602036146024575f5ffd5b5f35801560495762001fff810690815414603c575f5ffd5b62001fff01545f5260205ff35b5f5ffd5b62001fff42064281555f359062001fff015500",
                "storage": {}
            },
            "0x81bdbaa560b5ad52b0f9857cf4ca40b74d4b6996": {
                "nonce": "0x00",
                "balance": "0x0de0b6b3a7640000",
                "code": "0x60006000600060006000739dea1ad5123f3d8b91cfc830b1c602597883e97c600035f160005560006000600060006000739dea1ad5123f3d8b91cfc830b1c602597883e97c600035f100",
                "storage": {
                    "0x01": "0x01"
                }
            },
            "0xd96ed4431b417993ab4f4d4a656959d13c66e1dc": {
                "nonce": "0x00",
                "balance": "0x02540be400",
                "code": "0x",
                "storage": {}
            },
            "0x9dea1ad5123f3d8b91cfc830b1c602597883e97c": {
                "nonce": "0x00",
                "balance": "0x0de0b6b3a7640000",
                "code": "0x7381bdbaa560b5ad52b0f9857cf4ca40b74d4b6996ff00",
                "storage": {
                    "0x01": "0x01"
                }
            }
        },
        "postState": {
            "0x000f3df6d732807ef1319fb7b8bb8522d0beac02": {
                "nonce": "0x01",
                "balance": "0x00",
                "code": "0x3373fffffffffffffffffffffffffffffffffffffffe14604d57602036146024575f5ffd5b5f35801560495762001fff810690815414603c575f5ffd5b62001fff01545f5260205ff35b5f5ffd5b62001fff42064281555f359062001fff015500",
                "storage": {
                    "0x03e8": "0x03e8"
                }
            },
            "0x81bdbaa560b5ad52b0f9857cf4ca40b74d4b6996": {
                "nonce": "0x00",
                "balance": "0x0de0b6b3a764000a",
                "code": "0x60006000600060006000739dea1ad5123f3d8b91cfc830b1c602597883e97c600035f160005560006000600060006000739dea1ad5123f3d8b91cfc830b1c602597883e97c600035f100",
                "storage": {
                    "0x01": "0x01"
                }
            },
            "0xd96ed4431b417993ab4f4d4a656959d13c66e1dc": {
                "nonce": "0x01",
                "balance": "0x025407c140",
                "code": "0x",
                "storage": {}
            },
            "0x9dea1ad5123f3d8b91cfc830b1c602597883e97c": {
                "nonce": "0x00",
                "balance": "0x0de0b6b3a7640000",
                "code": "0x7381bdbaa560b5ad52b0f9857cf4ca40b74d4b6996ff00",
                "storage": {
                    "0x01": "0x01"
                }
            }
        },
        "lastblockhash": "0xa75b23f2a05cb12b8e00ae2833c72eb56267d399f737855e174cf9bebf101906",
        "config": {
            "network": "Cancun",
            "chainid": "0x01",
            "blobSchedule": {
                "Cancun": {
                    "target": "0x03",
                    "max": "0x06",
                    "baseFeeUpdateFraction": "0x32f0ed"
                }
            }
        },
        "genesisRLP": "0xf9023cf90236a00000000000000000000000000000000000000000000000000000000000000000a01dcc4de8dec75d7aab85b567b6ccd41ad312451b948a7413f0a142fd40d49347940000000000000000000000000000000000000000a02c96caebaa4e83b31c3f59aa65713a64bc3d7ea919b22ae23438f20eee485c30a056e81f171bcc55a6ff8345e692c0f86e5b48e01b996cadc001622fb5e363b421a056e81f171bcc55a6ff8345e692c0f86e5b48e01b996cadc001622fb5e363b421b901000000000000000000000000000000000000000000000000000000000000000000000000000000000000000000000000000000000000000000000000000000000000000000000000000000000000000000000000000000000000000000000000000000000000000000000000000000000000000000000000000000000000000000000000000000000000000000000000000000000000000000000000000000000000000000000000000000000000000000000000000000000000000000000000000000000000000000000000000000000000000000000000000000000000000000000000000000000000000000000000000000000000000000000000000000000080808405f5e100808000a000000000000000000000000000000000000000000000000000000000000000008800000000000000000ba056e81f171bcc55a6ff8345e692c0f86e5b48e01b996cadc001622fb5e363b4218080a00000000000000000000000000000000000000000000000000000000000000000c0c0c0",
        "blocks": [
            {
                "blockHeader": {
                    "parentHash": "0xf8293cbe50a7cf2ec097f2db1ce0f00bd6fef36f26776f2249f7006c386a3743",
                    "uncleHash": "0x1dcc4de8dec75d7aab85b567b6ccd41ad312451b948a7413f0a142fd40d49347",
                    "coinbase": "0x2adc25665018aa1fe0e6bc666dac8fc2697ff9ba",
                    "stateRoot": "0xa64306589a5c182e2d37801c8689ff4e1e02f8fc7902817740f812d9206be467",
                    "transactionsTrie": "0xf64e2e64096ed9667a86d987d1d233515d559bff8ef318535f34d2ea1a5c5530",
                    "receiptTrie": "0x74a9f16aa4265d3af3fba129eb40ce0cfd85d5a590fb7c5c665e8baf2e61fe76",
                    "bloom": "0x00000000000000000000000000000000000000000000000000000000000000000000000000000000000000000000000000000000000000000000000000000000000000000000000000000000000000000000000000000000000000000000000000000000000000000000000000000000000000000000000000000000000000000000000000000000000000000000000000000000000000000000000000000000000000000000000000000000000000000000000000000000000000000000000000000000000000000000000000000000000000000000000000000000000000000000000000000000000000000000000000000000000000000000000000000000",
                    "difficulty": "0x00",
                    "number": "0x01",
                    "gasLimit": "0x05f5e100",
                    "gasUsed": "0x69df",
                    "timestamp": "0x03e8",
                    "extraData": "0x00",
                    "mixHash": "0x0000000000000000000000000000000000000000000000000000000000020000",
                    "nonce": "0x0000000000000000",
                    "baseFeePerGas": "0x0a",
                    "withdrawalsRoot": "0x56e81f171bcc55a6ff8345e692c0f86e5b48e01b996cadc001622fb5e363b421",
                    "blobGasUsed": "0x00",
                    "excessBlobGas": "0x00",
                    "parentBeaconBlockRoot": "0x0000000000000000000000000000000000000000000000000000000000000000",
                    "hash": "0xa75b23f2a05cb12b8e00ae2833c72eb56267d399f737855e174cf9bebf101906"
                },
                "transactions": [
                    {
                        "type": "0x00",
                        "chainId": "0x01",
                        "nonce": "0x00",
                        "gasPrice": "0x0a",
                        "gasLimit": "0x989680",
                        "to": "0x81bdbaa560b5ad52b0f9857cf4ca40b74d4b6996",
                        "value": "0x0a",
                        "data": "0x00000000000000000000000000000000000000000000000000000000000001f4",
                        "v": "0x25",
                        "r": "0x1a645735c6a180b3477f5932e30377009c48644cfe5df0eea0fb2b61f5084964",
                        "s": "0x46164c673f72621c752bebd82d44935b36958045a06a95b627761b695e4c4847",
                        "sender": "0xd96ed4431b417993ab4f4d4a656959d13c66e1dc"
                    }
                ],
                "uncleHeaders": [],
                "withdrawals": [],
                "receipts": [
                    {
                        "transactionHash": "0x4ec216d6f42371f94fc9cc561443e7d477b045bde09c14f53a4869c6906e3404",
                        "type": "0x00",
                        "cumulativeGasUsed": "0x69df",
                        "bloom": "0x00000000000000000000000000000000000000000000000000000000000000000000000000000000000000000000000000000000000000000000000000000000000000000000000000000000000000000000000000000000000000000000000000000000000000000000000000000000000000000000000000000000000000000000000000000000000000000000000000000000000000000000000000000000000000000000000000000000000000000000000000000000000000000000000000000000000000000000000000000000000000000000000000000000000000000000000000000000000000000000000000000000000000000000000000000000",
                        "logs": [],
                        "status": true,
                        "rlp": "0xf90108018269dfb9010000000000000000000000000000000000000000000000000000000000000000000000000000000000000000000000000000000000000000000000000000000000000000000000000000000000000000000000000000000000000000000000000000000000000000000000000000000000000000000000000000000000000000000000000000000000000000000000000000000000000000000000000000000000000000000000000000000000000000000000000000000000000000000000000000000000000000000000000000000000000000000000000000000000000000000000000000000000000000000000000000000000000000000000000000000000c0"
                    }
                ],
                "rlp": "0xf902c3f9023aa0f8293cbe50a7cf2ec097f2db1ce0f00bd6fef36f26776f2249f7006c386a3743a01dcc4de8dec75d7aab85b567b6ccd41ad312451b948a7413f0a142fd40d49347942adc25665018aa1fe0e6bc666dac8fc2697ff9baa0a64306589a5c182e2d37801c8689ff4e1e02f8fc7902817740f812d9206be467a0f64e2e64096ed9667a86d987d1d233515d559bff8ef318535f34d2ea1a5c5530a074a9f16aa4265d3af3fba129eb40ce0cfd85d5a590fb7c5c665e8baf2e61fe76b901000000000000000000000000000000000000000000000000000000000000000000000000000000000000000000000000000000000000000000000000000000000000000000000000000000000000000000000000000000000000000000000000000000000000000000000000000000000000000000000000000000000000000000000000000000000000000000000000000000000000000000000000000000000000000000000000000000000000000000000000000000000000000000000000000000000000000000000000000000000000000000000000000000000000000000000000000000000000000000000000000000000000000000000000000000000080018405f5e1008269df8203e800a000000000000000000000000000000000000000000000000000000000000200008800000000000000000aa056e81f171bcc55a6ff8345e692c0f86e5b48e01b996cadc001622fb5e363b4218080a00000000000000000000000000000000000000000000000000000000000000000f882f880800a839896809481bdbaa560b5ad52b0f9857cf4ca40b74d4b69960aa000000000000000000000000000000000000000000000000000000000000001f425a01a645735c6a180b3477f5932e30377009c48644cfe5df0eea0fb2b61f5084964a046164c673f72621c752bebd82d44935b36958045a06a95b627761b695e4c4847c0c0",
                "blocknumber": "1"
            }
        ],
        "sealEngine": "NoProof",
        "_info": {
            "hash": "0xe7c31a30bc354c95e482e0056e4138c111dcdf25ec93697d322a3d891ee2acf7",
            "fixture-format": "blockchain_test",
            "comment": "`execution-specs` generated test",
            "filling-transition-tool": "2.19.0",
            "description": "Test_refund_call_to_suicide_twice.",
            "url": "https://github.com/ethereum/execution-specs/blob/tests-sn\u00f8bal-devnet-4@v1.0.0/tests/ported_static/stRefundTest/test_refund_call_to_suicide_twice.py#L29",
            "metadata": {
                "opcode_count": {}
            }
        }
    },
    "tests/ported_static/stRefundTest/test_refund_call_to_suicide_twice.py::test_refund_call_to_suicide_twice[fork_Cancun-blockchain_test_from_state_test-d1]": {
        "network": "Cancun",
        "genesisBlockHeader": {
            "parentHash": "0x0000000000000000000000000000000000000000000000000000000000000000",
            "uncleHash": "0x1dcc4de8dec75d7aab85b567b6ccd41ad312451b948a7413f0a142fd40d49347",
            "coinbase": "0x0000000000000000000000000000000000000000",
            "stateRoot": "0x2c96caebaa4e83b31c3f59aa65713a64bc3d7ea919b22ae23438f20eee485c30",
            "transactionsTrie": "0x56e81f171bcc55a6ff8345e692c0f86e5b48e01b996cadc001622fb5e363b421",
            "receiptTrie": "0x56e81f171bcc55a6ff8345e692c0f86e5b48e01b996cadc001622fb5e363b421",
            "bloom": "0x00000000000000000000000000000000000000000000000000000000000000000000000000000000000000000000000000000000000000000000000000000000000000000000000000000000000000000000000000000000000000000000000000000000000000000000000000000000000000000000000000000000000000000000000000000000000000000000000000000000000000000000000000000000000000000000000000000000000000000000000000000000000000000000000000000000000000000000000000000000000000000000000000000000000000000000000000000000000000000000000000000000000000000000000000000000",
            "difficulty": "0x00",
            "number": "0x00",
            "gasLimit": "0x05f5e100",
            "gasUsed": "0x00",
            "timestamp": "0x00",
            "extraData": "0x00",
            "mixHash": "0x0000000000000000000000000000000000000000000000000000000000000000",
            "nonce": "0x0000000000000000",
            "baseFeePerGas": "0x0b",
            "withdrawalsRoot": "0x56e81f171bcc55a6ff8345e692c0f86e5b48e01b996cadc001622fb5e363b421",
            "blobGasUsed": "0x00",
            "excessBlobGas": "0x00",
            "parentBeaconBlockRoot": "0x0000000000000000000000000000000000000000000000000000000000000000",
            "hash": "0xf8293cbe50a7cf2ec097f2db1ce0f00bd6fef36f26776f2249f7006c386a3743"
        },
        "pre": {
            "0x000f3df6d732807ef1319fb7b8bb8522d0beac02": {
                "nonce": "0x01",
                "balance": "0x00",
                "code": "0x3373fffffffffffffffffffffffffffffffffffffffe14604d57602036146024575f5ffd5b5f35801560495762001fff810690815414603c575f5ffd5b62001fff01545f5260205ff35b5f5ffd5b62001fff42064281555f359062001fff015500",
                "storage": {}
            },
            "0x81bdbaa560b5ad52b0f9857cf4ca40b74d4b6996": {
                "nonce": "0x00",
                "balance": "0x0de0b6b3a7640000",
                "code": "0x60006000600060006000739dea1ad5123f3d8b91cfc830b1c602597883e97c600035f160005560006000600060006000739dea1ad5123f3d8b91cfc830b1c602597883e97c600035f100",
                "storage": {
                    "0x01": "0x01"
                }
            },
            "0xd96ed4431b417993ab4f4d4a656959d13c66e1dc": {
                "nonce": "0x00",
                "balance": "0x02540be400",
                "code": "0x",
                "storage": {}
            },
            "0x9dea1ad5123f3d8b91cfc830b1c602597883e97c": {
                "nonce": "0x00",
                "balance": "0x0de0b6b3a7640000",
                "code": "0x7381bdbaa560b5ad52b0f9857cf4ca40b74d4b6996ff00",
                "storage": {
                    "0x01": "0x01"
                }
            }
        },
        "postState": {
            "0x000f3df6d732807ef1319fb7b8bb8522d0beac02": {
                "nonce": "0x01",
                "balance": "0x00",
                "code": "0x3373fffffffffffffffffffffffffffffffffffffffe14604d57602036146024575f5ffd5b5f35801560495762001fff810690815414603c575f5ffd5b62001fff01545f5260205ff35b5f5ffd5b62001fff42064281555f359062001fff015500",
                "storage": {
                    "0x03e8": "0x03e8"
                }
            },
            "0x81bdbaa560b5ad52b0f9857cf4ca40b74d4b6996": {
                "nonce": "0x00",
                "balance": "0x1bc16d674ec8000a",
                "code": "0x60006000600060006000739dea1ad5123f3d8b91cfc830b1c602597883e97c600035f160005560006000600060006000739dea1ad5123f3d8b91cfc830b1c602597883e97c600035f100",
                "storage": {
                    "0x01": "0x01",
                    "0x00": "0x01"
                }
            },
            "0xd96ed4431b417993ab4f4d4a656959d13c66e1dc": {
                "nonce": "0x01",
                "balance": "0x0254035894",
                "code": "0x",
                "storage": {}
            },
            "0x9dea1ad5123f3d8b91cfc830b1c602597883e97c": {
                "nonce": "0x00",
                "balance": "0x00",
                "code": "0x7381bdbaa560b5ad52b0f9857cf4ca40b74d4b6996ff00",
                "storage": {
                    "0x01": "0x01"
                }
            }
        },
        "lastblockhash": "0xa7827b95f4fc59b78d180226884eacb6b8dd4bb19ff4d77402cd8cc9cd13576e",
        "config": {
            "network": "Cancun",
            "chainid": "0x01",
            "blobSchedule": {
                "Cancun": {
                    "target": "0x03",
                    "max": "0x06",
                    "baseFeeUpdateFraction": "0x32f0ed"
                }
            }
        },
        "genesisRLP": "0xf9023cf90236a00000000000000000000000000000000000000000000000000000000000000000a01dcc4de8dec75d7aab85b567b6ccd41ad312451b948a7413f0a142fd40d49347940000000000000000000000000000000000000000a02c96caebaa4e83b31c3f59aa65713a64bc3d7ea919b22ae23438f20eee485c30a056e81f171bcc55a6ff8345e692c0f86e5b48e01b996cadc001622fb5e363b421a056e81f171bcc55a6ff8345e692c0f86e5b48e01b996cadc001622fb5e363b421b901000000000000000000000000000000000000000000000000000000000000000000000000000000000000000000000000000000000000000000000000000000000000000000000000000000000000000000000000000000000000000000000000000000000000000000000000000000000000000000000000000000000000000000000000000000000000000000000000000000000000000000000000000000000000000000000000000000000000000000000000000000000000000000000000000000000000000000000000000000000000000000000000000000000000000000000000000000000000000000000000000000000000000000000000000000000080808405f5e100808000a000000000000000000000000000000000000000000000000000000000000000008800000000000000000ba056e81f171bcc55a6ff8345e692c0f86e5b48e01b996cadc001622fb5e363b4218080a00000000000000000000000000000000000000000000000000000000000000000c0c0c0",
        "blocks": [
            {
                "blockHeader": {
                    "parentHash": "0xf8293cbe50a7cf2ec097f2db1ce0f00bd6fef36f26776f2249f7006c386a3743",
                    "uncleHash": "0x1dcc4de8dec75d7aab85b567b6ccd41ad312451b948a7413f0a142fd40d49347",
                    "coinbase": "0x2adc25665018aa1fe0e6bc666dac8fc2697ff9ba",
                    "stateRoot": "0x02f384e277f804385af9c78ee31d6c71b3e0a44f93c0427f49e07083f5145a2f",
                    "transactionsTrie": "0x91c0c7be89cc80b836db215d8bd7329bf34fc379ab1392ac25a9ffef477c091b",
                    "receiptTrie": "0x4661c9b7d0f198ef7a92eaa7c2e52a1af68038d1f709c93b8686b246ef253763",
                    "bloom": "0x00000000000000000000000000000000000000000000000000000000000000000000000000000000000000000000000000000000000000000000000000000000000000000000000000000000000000000000000000000000000000000000000000000000000000000000000000000000000000000000000000000000000000000000000000000000000000000000000000000000000000000000000000000000000000000000000000000000000000000000000000000000000000000000000000000000000000000000000000000000000000000000000000000000000000000000000000000000000000000000000000000000000000000000000000000000",
                    "difficulty": "0x00",
                    "number": "0x01",
                    "gasLimit": "0x05f5e100",
                    "gasUsed": "0xdabd",
                    "timestamp": "0x03e8",
                    "extraData": "0x00",
                    "mixHash": "0x0000000000000000000000000000000000000000000000000000000000020000",
                    "nonce": "0x0000000000000000",
                    "baseFeePerGas": "0x0a",
                    "withdrawalsRoot": "0x56e81f171bcc55a6ff8345e692c0f86e5b48e01b996cadc001622fb5e363b421",
                    "blobGasUsed": "0x00",
                    "excessBlobGas": "0x00",
                    "parentBeaconBlockRoot": "0x0000000000000000000000000000000000000000000000000000000000000000",
                    "hash": "0xa7827b95f4fc59b78d180226884eacb6b8dd4bb19ff4d77402cd8cc9cd13576e"
                },
                "transactions": [
                    {
                        "type": "0x00",
                        "chainId": "0x01",
                        "nonce": "0x00",
                        "gasPrice": "0x0a",
                        "gasLimit": "0x989680",
                        "to": "0x81bdbaa560b5ad52b0f9857cf4ca40b74d4b6996",
                        "value": "0x0a",
                        "data": "0x0000000000000000000000000000000000000000000000000000000000010000",
                        "v": "0x26",
                        "r": "0xc683b6d46a83eaf74b620fb49905e485e6c6874bb58cb0f0ac846e59c1fc31fe",
                        "s": "0x0e93cec75970ba74a17c92e8ca3035e3a3a483b0f0d8f88f4591b9e61dff8493",
                        "sender": "0xd96ed4431b417993ab4f4d4a656959d13c66e1dc"
                    }
                ],
                "uncleHeaders": [],
                "withdrawals": [],
                "receipts": [
                    {
                        "transactionHash": "0xcfc727f4cea032142fda6aeb081b6a86aa308592e0a4d96f8666902b963f03cd",
                        "type": "0x00",
                        "cumulativeGasUsed": "0xdabd",
                        "bloom": "0x00000000000000000000000000000000000000000000000000000000000000000000000000000000000000000000000000000000000000000000000000000000000000000000000000000000000000000000000000000000000000000000000000000000000000000000000000000000000000000000000000000000000000000000000000000000000000000000000000000000000000000000000000000000000000000000000000000000000000000000000000000000000000000000000000000000000000000000000000000000000000000000000000000000000000000000000000000000000000000000000000000000000000000000000000000000",
                        "logs": [],
                        "status": true,
                        "rlp": "0xf901080182dabdb9010000000000000000000000000000000000000000000000000000000000000000000000000000000000000000000000000000000000000000000000000000000000000000000000000000000000000000000000000000000000000000000000000000000000000000000000000000000000000000000000000000000000000000000000000000000000000000000000000000000000000000000000000000000000000000000000000000000000000000000000000000000000000000000000000000000000000000000000000000000000000000000000000000000000000000000000000000000000000000000000000000000000000000000000000000000000c0"
                    }
                ],
                "rlp": "0xf902c3f9023aa0f8293cbe50a7cf2ec097f2db1ce0f00bd6fef36f26776f2249f7006c386a3743a01dcc4de8dec75d7aab85b567b6ccd41ad312451b948a7413f0a142fd40d49347942adc25665018aa1fe0e6bc666dac8fc2697ff9baa002f384e277f804385af9c78ee31d6c71b3e0a44f93c0427f49e07083f5145a2fa091c0c7be89cc80b836db215d8bd7329bf34fc379ab1392ac25a9ffef477c091ba04661c9b7d0f198ef7a92eaa7c2e52a1af68038d1f709c93b8686b246ef253763b901000000000000000000000000000000000000000000000000000000000000000000000000000000000000000000000000000000000000000000000000000000000000000000000000000000000000000000000000000000000000000000000000000000000000000000000000000000000000000000000000000000000000000000000000000000000000000000000000000000000000000000000000000000000000000000000000000000000000000000000000000000000000000000000000000000000000000000000000000000000000000000000000000000000000000000000000000000000000000000000000000000000000000000000000000000000080018405f5e10082dabd8203e800a000000000000000000000000000000000000000000000000000000000000200008800000000000000000aa056e81f171bcc55a6ff8345e692c0f86e5b48e01b996cadc001622fb5e363b4218080a00000000000000000000000000000000000000000000000000000000000000000f882f880800a839896809481bdbaa560b5ad52b0f9857cf4ca40b74d4b69960aa0000000000000000000000000000000000000000000000000000000000001000026a0c683b6d46a83eaf74b620fb49905e485e6c6874bb58cb0f0ac846e59c1fc31fea00e93cec75970ba74a17c92e8ca3035e3a3a483b0f0d8f88f4591b9e61dff8493c0c0",
                "blocknumber": "1"
            }
        ],
        "sealEngine": "NoProof",
        "_info": {
            "hash": "0x5e9ee4793f0d195846e044e6ffe82b1b46e632158fcf86342d12065aba5f1c25",
            "fixture-format": "blockchain_test",
            "comment": "`execution-specs` generated test",
            "filling-transition-tool": "2.19.0",
            "description": "Test_refund_call_to_suicide_twice.",
            "url": "https://github.com/ethereum/execution-specs/blob/tests-sn\u00f8bal-devnet-4@v1.0.0/tests/ported_static/stRefundTest/test_refund_call_to_suicide_twice.py#L29",
            "metadata": {
                "opcode_count": {}
            }
        }
    }
}