{
    "tests/ported_static/stEIP4844_blobtransactions/test_empty_blobhash_list.py::test_empty_blobhash_list[fork_Cancun-blockchain_test_from_state_test]": {
        "network": "Cancun",
        "genesisBlockHeader": {
            "parentHash": "0x0000000000000000000000000000000000000000000000000000000000000000",
            "uncleHash": "0x1dcc4de8dec75d7aab85b567b6ccd41ad312451b948a7413f0a142fd40d49347",
            "coinbase": "0x0000000000000000000000000000000000000000",
            "stateRoot": "0xf25988792d54d80526c00e5ecef146e5584a3ee9a05dcc9d8bb2b1d9f07bdafb",
            "transactionsTrie": "0x56e81f171bcc55a6ff8345e692c0f86e5b48e01b996cadc001622fb5e363b421",
            "receiptTrie": "0x56e81f171bcc55a6ff8345e692c0f86e5b48e01b996cadc001622fb5e363b421",
            "bloom": "0x00000000000000000000000000000000000000000000000000000000000000000000000000000000000000000000000000000000000000000000000000000000000000000000000000000000000000000000000000000000000000000000000000000000000000000000000000000000000000000000000000000000000000000000000000000000000000000000000000000000000000000000000000000000000000000000000000000000000000000000000000000000000000000000000000000000000000000000000000000000000000000000000000000000000000000000000000000000000000000000000000000000000000000000000000000000",
            "difficulty": "0x00",
            "number": "0x00",
            "gasLimit": "0x1000000000",
            "gasUsed": "0x00",
            "timestamp": "0x00",
            "extraData": "0x00",
            "mixHash": "0x0000000000000000000000000000000000000000000000000000000000000000",
            "nonce": "0x0000000000000000",
            "baseFeePerGas": "0x08",
            "withdrawalsRoot": "0x56e81f171bcc55a6ff8345e692c0f86e5b48e01b996cadc001622fb5e363b421",
            "blobGasUsed": "0x00",
            "excessBlobGas": "0x00",
            "parentBeaconBlockRoot": "0x0000000000000000000000000000000000000000000000000000000000000000",
            "hash": "0xdf0b1193dda1025845534562d3a084d60da8c71d4a986556423a7273e6189a71"
        },
        "pre": {
            "0x000f3df6d732807ef1319fb7b8bb8522d0beac02": {
                "nonce": "0x01",
                "balance": "0x00",
                "code": "0x3373fffffffffffffffffffffffffffffffffffffffe14604d57602036146024575f5ffd5b5f35801560495762001fff810690815414603c575f5ffd5b62001fff01545f5260205ff35b5f5ffd5b62001fff42064281555f359062001fff015500",
                "storage": {}
            },
            "0xd66f224cbd2fabb21b17bb53c56118f32f62ebd6": {
                "nonce": "0x00",
                "balance": "0x0de0b6b3a7640000",
                "code": "0x",
                "storage": {}
            },
            "0x78a7218ccefa2bb39f315b0c8333bed959a388cd": {
                "nonce": "0x00",
                "balance": "0x0de0b6b3a7640000",
                "code": "0x60004960005500",
                "storage": {}
            }
        },
        "postState": {
            "0x000f3df6d732807ef1319fb7b8bb8522d0beac02": {
                "nonce": "0x01",
                "balance": "0x00",
                "code": "0x3373fffffffffffffffffffffffffffffffffffffffe14604d57602036146024575f5ffd5b5f35801560495762001fff810690815414603c575f5ffd5b62001fff01545f5260205ff35b5f5ffd5b62001fff42064281555f359062001fff015500",
                "storage": {}
            },
            "0xd66f224cbd2fabb21b17bb53c56118f32f62ebd6": {
                "nonce": "0x00",
                "balance": "0x0de0b6b3a7640000",
                "code": "0x",
                "storage": {}
            },
            "0x78a7218ccefa2bb39f315b0c8333bed959a388cd": {
                "nonce": "0x00",
                "balance": "0x0de0b6b3a7640000",
                "code": "0x60004960005500",
                "storage": {}
            }
        },
        "lastblockhash": "0xdf0b1193dda1025845534562d3a084d60da8c71d4a986556423a7273e6189a71",
        "config": {
            "network": "Cancun",
            "chainid": "0x01",
            "blobSchedule": {
                "Cancun": {
                    "target": "0x03",
                    "max": "0x06",
                    "baseFeeUpdateFraction": "0x32f0ed"
                }
            }
        },
        "genesisRLP": "0xf9023df90237a00000000000000000000000000000000000000000000000000000000000000000a01dcc4de8dec75d7aab85b567b6ccd41ad312451b948a7413f0a142fd40d49347940000000000000000000000000000000000000000a0f25988792d54d80526c00e5ecef146e5584a3ee9a05dcc9d8bb2b1d9f07bdafba056e81f171bcc55a6ff8345e692c0f86e5b48e01b996cadc001622fb5e363b421a056e81f171bcc55a6ff8345e692c0f86e5b48e01b996cadc001622fb5e363b421b90100000000000000000000000000000000000000000000000000000000000000000000000000000000000000000000000000000000000000000000000000000000000000000000000000000000000000000000000000000000000000000000000000000000000000000000000000000000000000000000000000000000000000000000000000000000000000000000000000000000000000000000000000000000000000000000000000000000000000000000000000000000000000000000000000000000000000000000000000000000000000000000000000000000000000000000000000000000000000000000000000000000000000000000000000000000008080851000000000808000a0000000000000000000000000000000000000000000000000000000000000000088000000000000000008a056e81f171bcc55a6ff8345e692c0f86e5b48e01b996cadc001622fb5e363b4218080a00000000000000000000000000000000000000000000000000000000000000000c0c0c0",
        "blocks": [
            {
                "rlp": "0xf9030ef90239a0df0b1193dda1025845534562d3a084d60da8c71d4a986556423a7273e6189a71a01dcc4de8dec75d7aab85b567b6ccd41ad312451b948a7413f0a142fd40d49347942adc25665018aa1fe0e6bc666dac8fc2697ff9baa007df90ced8dc30f1e15c93fec08893bce9147d7a6b39708d33ba16ef0fe200f6a060a3cc97e4a39396618c209f6477a9f0016781edce5ac8d93f20c7651594f1bfa056e81f171bcc55a6ff8345e692c0f86e5b48e01b996cadc001622fb5e363b421b90100000000000000000000000000000000000000000000000000000000000000000000000000000000000000000000000000000000000000000000000000000000000000000000000000000000000000000000000000000000000000000000000000000000000000000000000000000000000000000000000000000000000000000000000000000000000000000000000000000000000000000000000000000000000000000000000000000000000000000000000000000000000000000000000000000000000000000000000000000000000000000000000000000000000000000000000000000000000000000000000000000000000000000000000000000000008001851000000000808203e800a0000000000000000000000000000000000000000000000000000000000002000088000000000000000007a056e81f171bcc55a6ff8345e692c0f86e5b48e01b996cadc001622fb5e363b4218080a00000000000000000000000000000000000000000000000000000000000000000f8ceb8cc03f8c901800285012a05f200833d09009478a7218ccefa2bb39f315b0c8333bed959a388cd830186a000f85bf8599478a7218ccefa2bb39f315b0c8333bed959a388cdf842a00000000000000000000000000000000000000000000000000000000000000000a000000000000000000000000000000000000000000000000000000000000000010ac001a0a92306dedb25a2ff3f65f30d5591a1e2aefcb6bde846e77cdd16f7f809e41661a037f3a07e95cc888db7e7430f7f6fd119f80dbc39ec8866c24613bdfc60f24ab2c0c0",
                "expectException": "TransactionException.TYPE_3_TX_ZERO_BLOBS",
                "rlp_decoded": {
                    "blockHeader": {
                        "parentHash": "0xdf0b1193dda1025845534562d3a084d60da8c71d4a986556423a7273e6189a71",
                        "uncleHash": "0x1dcc4de8dec75d7aab85b567b6ccd41ad312451b948a7413f0a142fd40d49347",
                        "coinbase": "0x2adc25665018aa1fe0e6bc666dac8fc2697ff9ba",
                        "stateRoot": "0x07df90ced8dc30f1e15c93fec08893bce9147d7a6b39708d33ba16ef0fe200f6",
                        "transactionsTrie": "0x60a3cc97e4a39396618c209f6477a9f0016781edce5ac8d93f20c7651594f1bf",
                        "receiptTrie": "0x56e81f171bcc55a6ff8345e692c0f86e5b48e01b996cadc001622fb5e363b421",
                        "bloom": "0x00000000000000000000000000000000000000000000000000000000000000000000000000000000000000000000000000000000000000000000000000000000000000000000000000000000000000000000000000000000000000000000000000000000000000000000000000000000000000000000000000000000000000000000000000000000000000000000000000000000000000000000000000000000000000000000000000000000000000000000000000000000000000000000000000000000000000000000000000000000000000000000000000000000000000000000000000000000000000000000000000000000000000000000000000000000",
                        "difficulty": "0x00",
                        "number": "0x01",
                        "gasLimit": "0x1000000000",
                        "gasUsed": "0x00",
                        "timestamp": "0x03e8",
                        "extraData": "0x00",
                        "mixHash": "0x0000000000000000000000000000000000000000000000000000000000020000",
                        "nonce": "0x0000000000000000",
                        "baseFeePerGas": "0x07",
                        "withdrawalsRoot": "0x56e81f171bcc55a6ff8345e692c0f86e5b48e01b996cadc001622fb5e363b421",
                        "blobGasUsed": "0x00",
                        "excessBlobGas": "0x00",
                        "parentBeaconBlockRoot": "0x0000000000000000000000000000000000000000000000000000000000000000",
                        "hash": "0xe1a364711e9c0cff3c7d025d8e0c6e3d2c047ce5076db5518a6781aacc67328a"
                    },
                    "transactions": [
                        {
                            "type": "0x03",
                            "chainId": "0x01",
                            "nonce": "0x00",
                            "maxPriorityFeePerGas": "0x02",
                            "maxFeePerGas": "0x012a05f200",
                            "gasLimit": "0x3d0900",
                            "to": "0x78a7218ccefa2bb39f315b0c8333bed959a388cd",
                            "value": "0x0186a0",
                            "data": "0x00",
                            "accessList": [
                                {
                                    "address": "0x78a7218ccefa2bb39f315b0c8333bed959a388cd",
                                    "storageKeys": [
                                        "0x0000000000000000000000000000000000000000000000000000000000000000",
                                        "0x0000000000000000000000000000000000000000000000000000000000000001"
                                    ]
                                }
                            ],
                            "maxFeePerBlobGas": "0x0a",
                            "blobVersionedHashes": [],
                            "v": "0x01",
                            "r": "0xa92306dedb25a2ff3f65f30d5591a1e2aefcb6bde846e77cdd16f7f809e41661",
                            "s": "0x37f3a07e95cc888db7e7430f7f6fd119f80dbc39ec8866c24613bdfc60f24ab2",
                            "sender": "0xd66f224cbd2fabb21b17bb53c56118f32f62ebd6"
                        }
                    ],
                    "uncleHeaders": [],
                    "withdrawals": [],
                    "blocknumber": "1"
                }
            }
        ],
        "sealEngine": "NoProof",
        "_info": {
            "hash": "0x344b614121c542d03885d24419da15fd27311f451863d45c46cf945e5608ffc2",
            "fixture-format": "blockchain_test",
            "comment": "`execution-specs` generated test",
            "filling-transition-tool": "2.19.0",
            "description": "BLOB000.",
            "url": "https://github.com/ethereum/execution-specs/blob/tests-snobal-devnet-5@v8037.0.0/tests/ported_static/stEIP4844_blobtransactions/test_empty_blobhash_list.py#L27",
            "metadata": {
                "opcode_count": {}
            },
            "reference-spec": "https://github.com/ethereum/EIPs/blob/master/N/A",
            "reference-spec-version": "N/A"
        }
    }
}