{
    "tests/frontier/examples/test_block_intermediate_state.py::test_block_intermediate_state[fork_Homestead-blockchain_test]": {
        "network": "Homestead",
        "genesisBlockHeader": {
            "parentHash": "0x0000000000000000000000000000000000000000000000000000000000000000",
            "uncleHash": "0x1dcc4de8dec75d7aab85b567b6ccd41ad312451b948a7413f0a142fd40d49347",
            "coinbase": "0x0000000000000000000000000000000000000000",
            "stateRoot": "0x4b555d9d75fa8b4e5f0bec2ff06c8fca800d261b6840bc7a516ab1c6282999a9",
            "transactionsTrie": "0x56e81f171bcc55a6ff8345e692c0f86e5b48e01b996cadc001622fb5e363b421",
            "receiptTrie": "0x56e81f171bcc55a6ff8345e692c0f86e5b48e01b996cadc001622fb5e363b421",
            "bloom": "0x00000000000000000000000000000000000000000000000000000000000000000000000000000000000000000000000000000000000000000000000000000000000000000000000000000000000000000000000000000000000000000000000000000000000000000000000000000000000000000000000000000000000000000000000000000000000000000000000000000000000000000000000000000000000000000000000000000000000000000000000000000000000000000000000000000000000000000000000000000000000000000000000000000000000000000000000000000000000000000000000000000000000000000000000000000000",
            "difficulty": "0x020000",
            "number": "0x00",
            "gasLimit": "0x07270e00",
            "gasUsed": "0x00",
            "timestamp": "0x00",
            "extraData": "0x00",
            "mixHash": "0x0000000000000000000000000000000000000000000000000000000000000000",
            "nonce": "0x0000000000000000",
            "hash": "0x86a74cabdcd962275e2a9b92d417c7a8305cb90ef1139936810bc360a639143f"
        },
        "pre": {
            "0x1ad9bc24818784172ff393bb6f89f094d4d2ca29": {
                "nonce": "0x00",
                "balance": "0x3635c9adc5dea00000",
                "code": "0x",
                "storage": {}
            }
        },
        "postState": {
            "0x1ad9bc24818784172ff393bb6f89f094d4d2ca29": {
                "nonce": "0x02",
                "balance": "0x3635c9adc5de8fd360",
                "code": "0x",
                "storage": {}
            },
            "0x36bdd8886852759e2046e3bf4c290d5c29c81d82": {
                "nonce": "0x00",
                "balance": "0x00",
                "code": "0x",
                "storage": {}
            },
            "0x2adc25665018aa1fe0e6bc666dac8fc2697ff9ba": {
                "nonce": "0x00",
                "balance": "0xd02ab486ceec2ca0",
                "code": "0x",
                "storage": {}
            },
            "0xccd20f62662fff78b91ae489c09b0afa4087222d": {
                "nonce": "0x00",
                "balance": "0x00",
                "code": "0x",
                "storage": {}
            }
        },
        "lastblockhash": "0x85b2f900e8cf033fc3968cf2e6d6e675b732c2508dcd0d5558d20011c53b5e6e",
        "config": {
            "network": "Homestead",
            "chainid": "0x01"
        },
        "genesisRLP": "0xf901f9f901f4a00000000000000000000000000000000000000000000000000000000000000000a01dcc4de8dec75d7aab85b567b6ccd41ad312451b948a7413f0a142fd40d49347940000000000000000000000000000000000000000a04b555d9d75fa8b4e5f0bec2ff06c8fca800d261b6840bc7a516ab1c6282999a9a056e81f171bcc55a6ff8345e692c0f86e5b48e01b996cadc001622fb5e363b421a056e81f171bcc55a6ff8345e692c0f86e5b48e01b996cadc001622fb5e363b421b901000000000000000000000000000000000000000000000000000000000000000000000000000000000000000000000000000000000000000000000000000000000000000000000000000000000000000000000000000000000000000000000000000000000000000000000000000000000000000000000000000000000000000000000000000000000000000000000000000000000000000000000000000000000000000000000000000000000000000000000000000000000000000000000000000000000000000000000000000000000000000000000000000000000000000000000000000000000000000000000000000000000000000000000000000000000083020000808407270e00808000a00000000000000000000000000000000000000000000000000000000000000000880000000000000000c0c0",
        "blocks": [
            {
                "blockHeader": {
                    "parentHash": "0x86a74cabdcd962275e2a9b92d417c7a8305cb90ef1139936810bc360a639143f",
                    "uncleHash": "0x1dcc4de8dec75d7aab85b567b6ccd41ad312451b948a7413f0a142fd40d49347",
                    "coinbase": "0x2adc25665018aa1fe0e6bc666dac8fc2697ff9ba",
                    "stateRoot": "0xe16133149a9d7f5eef1a860373e51e103546eb3583d8605b5685b6901e47dbf8",
                    "transactionsTrie": "0xf04a790271cfdcf9023b7d31535aca0c5f660eb3637747566bd40cf24aa3ed4e",
                    "receiptTrie": "0x87ae4a4f1cd7ab0f4db6cf821edfca720f03f1da2591cc56b98b05539c89048c",
                    "bloom": "0x00000000000000000000000000000000000000000000000000000000000000000000000000000000000000000000000000000000000000000000000000000000000000000000000000000000000000000000000000000000000000000000000000000000000000000000000000000000000000000000000000000000000000000000000000000000000000000000000000000000000000000000000000000000000000000000000000000000000000000000000000000000000000000000000000000000000000000000000000000000000000000000000000000000000000000000000000000000000000000000000000000000000000000000000000000000",
                    "difficulty": "0x020000",
                    "number": "0x01",
                    "gasLimit": "0x07270e00",
                    "gasUsed": "0xcf08",
                    "timestamp": "0x0c",
                    "extraData": "0x",
                    "mixHash": "0x0000000000000000000000000000000000000000000000000000000000000000",
                    "nonce": "0x0000000000000000",
                    "hash": "0x72affce2595aecf128154860192693024e14bbec48f2f7ef2401b2edb5e69792"
                },
                "transactions": [
                    {
                        "type": "0x00",
                        "chainId": "0x01",
                        "nonce": "0x00",
                        "gasPrice": "0x0a",
                        "gasLimit": "0x0186a0",
                        "value": "0x00",
                        "data": "0x",
                        "v": "0x1b",
                        "r": "0x2753570bb90e97d488c62a28456d3f685b3e431fbdd5e28cd50ea0d8231f355c",
                        "s": "0x4b1739b82df62828225b441939ca67c85aaf5a453d43af777e716ae9b407c346",
                        "sender": "0x1ad9bc24818784172ff393bb6f89f094d4d2ca29",
                        "to": ""
                    }
                ],
                "uncleHeaders": [],
                "receipts": [
                    {
                        "transactionHash": "0x5bfb9f4231d0de4a2ff6e833d426d75c2a47fa40290be86137bb2c9fa4f32b8d",
                        "type": "0x00",
                        "cumulativeGasUsed": "0xcf08",
                        "bloom": "0x00000000000000000000000000000000000000000000000000000000000000000000000000000000000000000000000000000000000000000000000000000000000000000000000000000000000000000000000000000000000000000000000000000000000000000000000000000000000000000000000000000000000000000000000000000000000000000000000000000000000000000000000000000000000000000000000000000000000000000000000000000000000000000000000000000000000000000000000000000000000000000000000000000000000000000000000000000000000000000000000000000000000000000000000000000000",
                        "logs": [],
                        "postState": "0x4b70eca061b3da64d541608d660d6b7393842259b66416edca5cf80a9ee35187",
                        "rlp": "0xf90128a04b70eca061b3da64d541608d660d6b7393842259b66416edca5cf80a9ee3518782cf08b9010000000000000000000000000000000000000000000000000000000000000000000000000000000000000000000000000000000000000000000000000000000000000000000000000000000000000000000000000000000000000000000000000000000000000000000000000000000000000000000000000000000000000000000000000000000000000000000000000000000000000000000000000000000000000000000000000000000000000000000000000000000000000000000000000000000000000000000000000000000000000000000000000000000000000000000000000000000000000000000000000000000000000000000000000000000000c0"
                    }
                ],
                "rlp": "0xf9024af901f6a086a74cabdcd962275e2a9b92d417c7a8305cb90ef1139936810bc360a639143fa01dcc4de8dec75d7aab85b567b6ccd41ad312451b948a7413f0a142fd40d49347942adc25665018aa1fe0e6bc666dac8fc2697ff9baa0e16133149a9d7f5eef1a860373e51e103546eb3583d8605b5685b6901e47dbf8a0f04a790271cfdcf9023b7d31535aca0c5f660eb3637747566bd40cf24aa3ed4ea087ae4a4f1cd7ab0f4db6cf821edfca720f03f1da2591cc56b98b05539c89048cb901000000000000000000000000000000000000000000000000000000000000000000000000000000000000000000000000000000000000000000000000000000000000000000000000000000000000000000000000000000000000000000000000000000000000000000000000000000000000000000000000000000000000000000000000000000000000000000000000000000000000000000000000000000000000000000000000000000000000000000000000000000000000000000000000000000000000000000000000000000000000000000000000000000000000000000000000000000000000000000000000000000000000000000000000000000000083020000018407270e0082cf080c80a00000000000000000000000000000000000000000000000000000000000000000880000000000000000f84ef84c800a830186a08080801ba02753570bb90e97d488c62a28456d3f685b3e431fbdd5e28cd50ea0d8231f355ca04b1739b82df62828225b441939ca67c85aaf5a453d43af777e716ae9b407c346c0",
                "blocknumber": "1"
            },
            {
                "blockHeader": {
                    "parentHash": "0x72affce2595aecf128154860192693024e14bbec48f2f7ef2401b2edb5e69792",
                    "uncleHash": "0x1dcc4de8dec75d7aab85b567b6ccd41ad312451b948a7413f0a142fd40d49347",
                    "coinbase": "0x2adc25665018aa1fe0e6bc666dac8fc2697ff9ba",
                    "stateRoot": "0xc0088322f870716442009440c0d2403b1ec4fd3bf835db12f644792440215983",
                    "transactionsTrie": "0x56e81f171bcc55a6ff8345e692c0f86e5b48e01b996cadc001622fb5e363b421",
                    "receiptTrie": "0x56e81f171bcc55a6ff8345e692c0f86e5b48e01b996cadc001622fb5e363b421",
                    "bloom": "0x00000000000000000000000000000000000000000000000000000000000000000000000000000000000000000000000000000000000000000000000000000000000000000000000000000000000000000000000000000000000000000000000000000000000000000000000000000000000000000000000000000000000000000000000000000000000000000000000000000000000000000000000000000000000000000000000000000000000000000000000000000000000000000000000000000000000000000000000000000000000000000000000000000000000000000000000000000000000000000000000000000000000000000000000000000000",
                    "difficulty": "0x020000",
                    "number": "0x02",
                    "gasLimit": "0x07270e00",
                    "gasUsed": "0x00",
                    "timestamp": "0x18",
                    "extraData": "0x",
                    "mixHash": "0x0000000000000000000000000000000000000000000000000000000000000000",
                    "nonce": "0x0000000000000000",
                    "hash": "0xac4476b215cd5ba27886b062e9b1a42716796b38025a37ec178673281ffe2c56"
                },
                "transactions": [],
                "uncleHeaders": [],
                "rlp": "0xf901f9f901f4a072affce2595aecf128154860192693024e14bbec48f2f7ef2401b2edb5e69792a01dcc4de8dec75d7aab85b567b6ccd41ad312451b948a7413f0a142fd40d49347942adc25665018aa1fe0e6bc666dac8fc2697ff9baa0c0088322f870716442009440c0d2403b1ec4fd3bf835db12f644792440215983a056e81f171bcc55a6ff8345e692c0f86e5b48e01b996cadc001622fb5e363b421a056e81f171bcc55a6ff8345e692c0f86e5b48e01b996cadc001622fb5e363b421b901000000000000000000000000000000000000000000000000000000000000000000000000000000000000000000000000000000000000000000000000000000000000000000000000000000000000000000000000000000000000000000000000000000000000000000000000000000000000000000000000000000000000000000000000000000000000000000000000000000000000000000000000000000000000000000000000000000000000000000000000000000000000000000000000000000000000000000000000000000000000000000000000000000000000000000000000000000000000000000000000000000000000000000000000000000000083020000028407270e00801880a00000000000000000000000000000000000000000000000000000000000000000880000000000000000c0c0",
                "blocknumber": "2"
            },
            {
                "blockHeader": {
                    "parentHash": "0xac4476b215cd5ba27886b062e9b1a42716796b38025a37ec178673281ffe2c56",
                    "uncleHash": "0x1dcc4de8dec75d7aab85b567b6ccd41ad312451b948a7413f0a142fd40d49347",
                    "coinbase": "0x2adc25665018aa1fe0e6bc666dac8fc2697ff9ba",
                    "stateRoot": "0x6e8d0107a79eabaec8af219f5e6fd891022103b84accef42fb776af68e15191a",
                    "transactionsTrie": "0x65cc89d2c6075c9eee4fbb926d3204b0129871a51355af2ac0aa01150990ac2c",
                    "receiptTrie": "0xb8e0fc15de361f4d23c3430d32bd54b86414308be5841989c49d1aa099c51d47",
                    "bloom": "0x00000000000000000000000000000000000000000000000000000000000000000000000000000000000000000000000000000000000000000000000000000000000000000000000000000000000000000000000000000000000000000000000000000000000000000000000000000000000000000000000000000000000000000000000000000000000000000000000000000000000000000000000000000000000000000000000000000000000000000000000000000000000000000000000000000000000000000000000000000000000000000000000000000000000000000000000000000000000000000000000000000000000000000000000000000000",
                    "difficulty": "0x020000",
                    "number": "0x03",
                    "gasLimit": "0x07270e00",
                    "gasUsed": "0xcf08",
                    "timestamp": "0x24",
                    "extraData": "0x",
                    "mixHash": "0x0000000000000000000000000000000000000000000000000000000000000000",
                    "nonce": "0x0000000000000000",
                    "hash": "0x85b2f900e8cf033fc3968cf2e6d6e675b732c2508dcd0d5558d20011c53b5e6e"
                },
                "transactions": [
                    {
                        "type": "0x00",
                        "chainId": "0x01",
                        "nonce": "0x01",
                        "gasPrice": "0x0a",
                        "gasLimit": "0x0186a0",
                        "value": "0x00",
                        "data": "0x",
                        "v": "0x1c",
                        "r": "0xb3960f9b900f10d9293683e92dc9cb779d764bf475fabfb747f6df9c5c698bbd",
                        "s": "0x136c4551ebd11bbbef875eaefadf0fa5f267a30eb650bdcbb2c4af948f56b2ba",
                        "sender": "0x1ad9bc24818784172ff393bb6f89f094d4d2ca29",
                        "to": ""
                    }
                ],
                "uncleHeaders": [],
                "receipts": [
                    {
                        "transactionHash": "0xdb7095808f9f936faca86a14a6b268e8af1b9ec5214068225e0c7076a949cb0e",
                        "type": "0x00",
                        "cumulativeGasUsed": "0xcf08",
                        "bloom": "0x00000000000000000000000000000000000000000000000000000000000000000000000000000000000000000000000000000000000000000000000000000000000000000000000000000000000000000000000000000000000000000000000000000000000000000000000000000000000000000000000000000000000000000000000000000000000000000000000000000000000000000000000000000000000000000000000000000000000000000000000000000000000000000000000000000000000000000000000000000000000000000000000000000000000000000000000000000000000000000000000000000000000000000000000000000000",
                        "logs": [],
                        "postState": "0xb169506411a1911ddc81d78fcc30f310624ec666b07084405cf9157cf5485aee",
                        "rlp": "0xf90128a0b169506411a1911ddc81d78fcc30f310624ec666b07084405cf9157cf5485aee82cf08b9010000000000000000000000000000000000000000000000000000000000000000000000000000000000000000000000000000000000000000000000000000000000000000000000000000000000000000000000000000000000000000000000000000000000000000000000000000000000000000000000000000000000000000000000000000000000000000000000000000000000000000000000000000000000000000000000000000000000000000000000000000000000000000000000000000000000000000000000000000000000000000000000000000000000000000000000000000000000000000000000000000000000000000000000000000000000c0"
                    }
                ],
                "rlp": "0xf9024af901f6a0ac4476b215cd5ba27886b062e9b1a42716796b38025a37ec178673281ffe2c56a01dcc4de8dec75d7aab85b567b6ccd41ad312451b948a7413f0a142fd40d49347942adc25665018aa1fe0e6bc666dac8fc2697ff9baa06e8d0107a79eabaec8af219f5e6fd891022103b84accef42fb776af68e15191aa065cc89d2c6075c9eee4fbb926d3204b0129871a51355af2ac0aa01150990ac2ca0b8e0fc15de361f4d23c3430d32bd54b86414308be5841989c49d1aa099c51d47b901000000000000000000000000000000000000000000000000000000000000000000000000000000000000000000000000000000000000000000000000000000000000000000000000000000000000000000000000000000000000000000000000000000000000000000000000000000000000000000000000000000000000000000000000000000000000000000000000000000000000000000000000000000000000000000000000000000000000000000000000000000000000000000000000000000000000000000000000000000000000000000000000000000000000000000000000000000000000000000000000000000000000000000000000000000000083020000038407270e0082cf082480a00000000000000000000000000000000000000000000000000000000000000000880000000000000000f84ef84c010a830186a08080801ca0b3960f9b900f10d9293683e92dc9cb779d764bf475fabfb747f6df9c5c698bbda0136c4551ebd11bbbef875eaefadf0fa5f267a30eb650bdcbb2c4af948f56b2bac0",
                "blocknumber": "3"
            }
        ],
        "sealEngine": "NoProof",
        "_info": {
            "hash": "0x295b1ed008fb9a70bdcd0d3151dcd19ee586dc398e502ac0e4ee7385111e2b86",
            "fixture-format": "blockchain_test",
            "comment": "`execution-specs` generated test",
            "filling-transition-tool": "2.19.0",
            "description": "Verify intermediate block states.",
            "url": "https://github.com/ethereum/execution-specs/blob/tests-sn\u00f8bal-devnet-4@v1.0.0/tests/frontier/examples/test_block_intermediate_state.py#L14",
            "metadata": {
                "opcode_count": {}
            }
        }
    }
}