{
    "tests/byzantium/eip196_ec_add_mul/test_gas.py::test_gas_costs[fork_Istanbul-blockchain_test_from_state_test-enough_gas_False-ecadd]": {
        "network": "Istanbul",
        "genesisBlockHeader": {
            "parentHash": "0x0000000000000000000000000000000000000000000000000000000000000000",
            "uncleHash": "0x1dcc4de8dec75d7aab85b567b6ccd41ad312451b948a7413f0a142fd40d49347",
            "coinbase": "0x0000000000000000000000000000000000000000",
            "stateRoot": "0xb66ecd42ddfd2f0c3c35081181947c9affb0a70d34bc02035412af2a2044f604",
            "transactionsTrie": "0x56e81f171bcc55a6ff8345e692c0f86e5b48e01b996cadc001622fb5e363b421",
            "receiptTrie": "0x56e81f171bcc55a6ff8345e692c0f86e5b48e01b996cadc001622fb5e363b421",
            "bloom": "0x00000000000000000000000000000000000000000000000000000000000000000000000000000000000000000000000000000000000000000000000000000000000000000000000000000000000000000000000000000000000000000000000000000000000000000000000000000000000000000000000000000000000000000000000000000000000000000000000000000000000000000000000000000000000000000000000000000000000000000000000000000000000000000000000000000000000000000000000000000000000000000000000000000000000000000000000000000000000000000000000000000000000000000000000000000000",
            "difficulty": "0x020000",
            "number": "0x00",
            "gasLimit": "0x07270e00",
            "gasUsed": "0x00",
            "timestamp": "0x00",
            "extraData": "0x00",
            "mixHash": "0x0000000000000000000000000000000000000000000000000000000000000000",
            "nonce": "0x0000000000000000",
            "hash": "0xb2169c5bb5edac20447a64d51fc200ee13e241fa6a2ba55c19d918b8d3c4eb2e"
        },
        "pre": {
            "0x8f86b28914f646b7d54b4830bb40103f0d3f6e56": {
                "nonce": "0x01",
                "balance": "0x00",
                "code": "0x6000600060006000600060066095f1600055",
                "storage": {
                    "0x00": "0xdeadbeef"
                }
            },
            "0x1ad9bc24818784172ff393bb6f89f094d4d2ca29": {
                "nonce": "0x00",
                "balance": "0x3635c9adc5dea00000",
                "code": "0x",
                "storage": {}
            }
        },
        "postState": {
            "0x8f86b28914f646b7d54b4830bb40103f0d3f6e56": {
                "nonce": "0x01",
                "balance": "0x00",
                "code": "0x6000600060006000600060066095f1600055",
                "storage": {}
            },
            "0x1ad9bc24818784172ff393bb6f89f094d4d2ca29": {
                "nonce": "0x01",
                "balance": "0x3635c9adc5de9df31e",
                "code": "0x",
                "storage": {}
            },
            "0x2adc25665018aa1fe0e6bc666dac8fc2697ff9ba": {
                "nonce": "0x00",
                "balance": "0x1bc16d674eca0ce2",
                "code": "0x",
                "storage": {}
            }
        },
        "lastblockhash": "0x26971934ed34dea68f7949faab816192ca7dbd009ba40c4ffc6eb48d684d7481",
        "config": {
            "network": "Istanbul",
            "chainid": "0x01"
        },
        "genesisRLP": "0xf901f9f901f4a00000000000000000000000000000000000000000000000000000000000000000a01dcc4de8dec75d7aab85b567b6ccd41ad312451b948a7413f0a142fd40d49347940000000000000000000000000000000000000000a0b66ecd42ddfd2f0c3c35081181947c9affb0a70d34bc02035412af2a2044f604a056e81f171bcc55a6ff8345e692c0f86e5b48e01b996cadc001622fb5e363b421a056e81f171bcc55a6ff8345e692c0f86e5b48e01b996cadc001622fb5e363b421b901000000000000000000000000000000000000000000000000000000000000000000000000000000000000000000000000000000000000000000000000000000000000000000000000000000000000000000000000000000000000000000000000000000000000000000000000000000000000000000000000000000000000000000000000000000000000000000000000000000000000000000000000000000000000000000000000000000000000000000000000000000000000000000000000000000000000000000000000000000000000000000000000000000000000000000000000000000000000000000000000000000000000000000000000000000000083020000808407270e00808000a00000000000000000000000000000000000000000000000000000000000000000880000000000000000c0c0",
        "blocks": [
            {
                "blockHeader": {
                    "parentHash": "0xb2169c5bb5edac20447a64d51fc200ee13e241fa6a2ba55c19d918b8d3c4eb2e",
                    "uncleHash": "0x1dcc4de8dec75d7aab85b567b6ccd41ad312451b948a7413f0a142fd40d49347",
                    "coinbase": "0x2adc25665018aa1fe0e6bc666dac8fc2697ff9ba",
                    "stateRoot": "0xe4ab89beed0f7fd3c3ffa8a0ca809a9c65ae0eb6d84d90f6f9121978a2b6828a",
                    "transactionsTrie": "0x52a6e2cb4c8daa64ec41627095cecdf800d28c7ffa2728683a1e30acd7aa99b0",
                    "receiptTrie": "0x48e303dbd4c87bcaf860fe1a08cb5d639d7d310eb52582981b6b2c58d2a66f10",
                    "bloom": "0x00000000000000000000000000000000000000000000000000000000000000000000000000000000000000000000000000000000000000000000000000000000000000000000000000000000000000000000000000000000000000000000000000000000000000000000000000000000000000000000000000000000000000000000000000000000000000000000000000000000000000000000000000000000000000000000000000000000000000000000000000000000000000000000000000000000000000000000000000000000000000000000000000000000000000000000000000000000000000000000000000000000000000000000000000000000",
                    "difficulty": "0x020000",
                    "number": "0x01",
                    "gasLimit": "0x07270e00",
                    "gasUsed": "0x347d",
                    "timestamp": "0x03e8",
                    "extraData": "0x00",
                    "mixHash": "0x0000000000000000000000000000000000000000000000000000000000000000",
                    "nonce": "0x0000000000000000",
                    "hash": "0x26971934ed34dea68f7949faab816192ca7dbd009ba40c4ffc6eb48d684d7481"
                },
                "transactions": [
                    {
                        "type": "0x00",
                        "chainId": "0x01",
                        "nonce": "0x00",
                        "gasPrice": "0x0a",
                        "gasLimit": "0x0f4240",
                        "to": "0x8f86b28914f646b7d54b4830bb40103f0d3f6e56",
                        "value": "0x00",
                        "data": "0x",
                        "v": "0x26",
                        "r": "0xa3bb73e56e5e85ed34ac303621f0d80fb18de13878db377bb1cb86e41b215aed",
                        "s": "0x349301b358509cf8754e4b877235d24ee8cca8ad229d152f3c889aaf08a25984",
                        "sender": "0x1ad9bc24818784172ff393bb6f89f094d4d2ca29"
                    }
                ],
                "uncleHeaders": [],
                "receipts": [
                    {
                        "transactionHash": "0x007811239680413f6d1c52589581ce636485795d2691bfc6c0715db979a9c79b",
                        "type": "0x00",
                        "cumulativeGasUsed": "0x347d",
                        "bloom": "0x00000000000000000000000000000000000000000000000000000000000000000000000000000000000000000000000000000000000000000000000000000000000000000000000000000000000000000000000000000000000000000000000000000000000000000000000000000000000000000000000000000000000000000000000000000000000000000000000000000000000000000000000000000000000000000000000000000000000000000000000000000000000000000000000000000000000000000000000000000000000000000000000000000000000000000000000000000000000000000000000000000000000000000000000000000000",
                        "logs": [],
                        "status": true,
                        "rlp": "0xf901080182347db9010000000000000000000000000000000000000000000000000000000000000000000000000000000000000000000000000000000000000000000000000000000000000000000000000000000000000000000000000000000000000000000000000000000000000000000000000000000000000000000000000000000000000000000000000000000000000000000000000000000000000000000000000000000000000000000000000000000000000000000000000000000000000000000000000000000000000000000000000000000000000000000000000000000000000000000000000000000000000000000000000000000000000000000000000000000000c0"
                    }
                ],
                "rlp": "0xf90260f901f8a0b2169c5bb5edac20447a64d51fc200ee13e241fa6a2ba55c19d918b8d3c4eb2ea01dcc4de8dec75d7aab85b567b6ccd41ad312451b948a7413f0a142fd40d49347942adc25665018aa1fe0e6bc666dac8fc2697ff9baa0e4ab89beed0f7fd3c3ffa8a0ca809a9c65ae0eb6d84d90f6f9121978a2b6828aa052a6e2cb4c8daa64ec41627095cecdf800d28c7ffa2728683a1e30acd7aa99b0a048e303dbd4c87bcaf860fe1a08cb5d639d7d310eb52582981b6b2c58d2a66f10b901000000000000000000000000000000000000000000000000000000000000000000000000000000000000000000000000000000000000000000000000000000000000000000000000000000000000000000000000000000000000000000000000000000000000000000000000000000000000000000000000000000000000000000000000000000000000000000000000000000000000000000000000000000000000000000000000000000000000000000000000000000000000000000000000000000000000000000000000000000000000000000000000000000000000000000000000000000000000000000000000000000000000000000000000000000000083020000018407270e0082347d8203e800a00000000000000000000000000000000000000000000000000000000000000000880000000000000000f862f860800a830f4240948f86b28914f646b7d54b4830bb40103f0d3f6e56808026a0a3bb73e56e5e85ed34ac303621f0d80fb18de13878db377bb1cb86e41b215aeda0349301b358509cf8754e4b877235d24ee8cca8ad229d152f3c889aaf08a25984c0",
                "blocknumber": "1"
            }
        ],
        "sealEngine": "NoProof",
        "_info": {
            "hash": "0x8553dc4d486c55ea13e3793439c85af74aebc7e11bfe9313584db2aabdf57f95",
            "fixture-format": "blockchain_test",
            "comment": "`execution-specs` generated test",
            "filling-transition-tool": "2.19.0",
            "description": "Tests the constant gas behavior of `ecadd/ecmul` precompiled contracts.",
            "url": "https://github.com/ethereum/execution-specs/blob/tests-bal@v5.3.0/tests/byzantium/eip196_ec_add_mul/test_gas.py#L20",
            "opcode_count": {},
            "reference-spec": "https://github.com/ethereum/EIPs/blob/master/EIPS/eip-196.md",
            "reference-spec-version": "6538d198b1db10784ddccd6931888d7ae718de75"
        }
    },
    "tests/byzantium/eip196_ec_add_mul/test_gas.py::test_gas_costs[fork_Istanbul-blockchain_test_from_state_test-enough_gas_False-ecmul]": {
        "network": "Istanbul",
        "genesisBlockHeader": {
            "parentHash": "0x0000000000000000000000000000000000000000000000000000000000000000",
            "uncleHash": "0x1dcc4de8dec75d7aab85b567b6ccd41ad312451b948a7413f0a142fd40d49347",
            "coinbase": "0x0000000000000000000000000000000000000000",
            "stateRoot": "0x6271d7ebd8cc8d050a0086ef8cabfa76310ca572a60216f2eb2313dbe54c6194",
            "transactionsTrie": "0x56e81f171bcc55a6ff8345e692c0f86e5b48e01b996cadc001622fb5e363b421",
            "receiptTrie": "0x56e81f171bcc55a6ff8345e692c0f86e5b48e01b996cadc001622fb5e363b421",
            "bloom": "0x00000000000000000000000000000000000000000000000000000000000000000000000000000000000000000000000000000000000000000000000000000000000000000000000000000000000000000000000000000000000000000000000000000000000000000000000000000000000000000000000000000000000000000000000000000000000000000000000000000000000000000000000000000000000000000000000000000000000000000000000000000000000000000000000000000000000000000000000000000000000000000000000000000000000000000000000000000000000000000000000000000000000000000000000000000000",
            "difficulty": "0x020000",
            "number": "0x00",
            "gasLimit": "0x07270e00",
            "gasUsed": "0x00",
            "timestamp": "0x00",
            "extraData": "0x00",
            "mixHash": "0x0000000000000000000000000000000000000000000000000000000000000000",
            "nonce": "0x0000000000000000",
            "hash": "0xc59e99fbd18d8966c08840e5c835842e0b8e661f7965d04aa54d985832b1247d"
        },
        "pre": {
            "0x17ea8eed650ee494e37c740538809397211a9ac9": {
                "nonce": "0x01",
                "balance": "0x00",
                "code": "0x60006000600060006000600761176ff1600055",
                "storage": {
                    "0x00": "0xdeadbeef"
                }
            },
            "0x1ad9bc24818784172ff393bb6f89f094d4d2ca29": {
                "nonce": "0x00",
                "balance": "0x3635c9adc5dea00000",
                "code": "0x",
                "storage": {}
            }
        },
        "postState": {
            "0x17ea8eed650ee494e37c740538809397211a9ac9": {
                "nonce": "0x01",
                "balance": "0x00",
                "code": "0x60006000600060006000600761176ff1600055",
                "storage": {}
            },
            "0x1ad9bc24818784172ff393bb6f89f094d4d2ca29": {
                "nonce": "0x01",
                "balance": "0x3635c9adc5de9d4bb2",
                "code": "0x",
                "storage": {}
            },
            "0x2adc25665018aa1fe0e6bc666dac8fc2697ff9ba": {
                "nonce": "0x00",
                "balance": "0x1bc16d674ecab44e",
                "code": "0x",
                "storage": {}
            }
        },
        "lastblockhash": "0xbd2f06dfb41c0c75c982c70663a429a72bd83e944e1ff219fe61393198ad9f63",
        "config": {
            "network": "Istanbul",
            "chainid": "0x01"
        },
        "genesisRLP": "0xf901f9f901f4a00000000000000000000000000000000000000000000000000000000000000000a01dcc4de8dec75d7aab85b567b6ccd41ad312451b948a7413f0a142fd40d49347940000000000000000000000000000000000000000a06271d7ebd8cc8d050a0086ef8cabfa76310ca572a60216f2eb2313dbe54c6194a056e81f171bcc55a6ff8345e692c0f86e5b48e01b996cadc001622fb5e363b421a056e81f171bcc55a6ff8345e692c0f86e5b48e01b996cadc001622fb5e363b421b901000000000000000000000000000000000000000000000000000000000000000000000000000000000000000000000000000000000000000000000000000000000000000000000000000000000000000000000000000000000000000000000000000000000000000000000000000000000000000000000000000000000000000000000000000000000000000000000000000000000000000000000000000000000000000000000000000000000000000000000000000000000000000000000000000000000000000000000000000000000000000000000000000000000000000000000000000000000000000000000000000000000000000000000000000000000083020000808407270e00808000a00000000000000000000000000000000000000000000000000000000000000000880000000000000000c0c0",
        "blocks": [
            {
                "blockHeader": {
                    "parentHash": "0xc59e99fbd18d8966c08840e5c835842e0b8e661f7965d04aa54d985832b1247d",
                    "uncleHash": "0x1dcc4de8dec75d7aab85b567b6ccd41ad312451b948a7413f0a142fd40d49347",
                    "coinbase": "0x2adc25665018aa1fe0e6bc666dac8fc2697ff9ba",
                    "stateRoot": "0xfcc06c87a9c5172d4c3a8ee66cd661047a388afb4c84a0d66a498a6ca7b28a76",
                    "transactionsTrie": "0x9833d4853f7e8308e89c62346039280b0ccb6f5b2fef4f84cf6fda4534fd9ce9",
                    "receiptTrie": "0x6641379f36dc5cad54419bebad2a6b37c1874756c39142666117dab722ffd6df",
                    "bloom": "0x00000000000000000000000000000000000000000000000000000000000000000000000000000000000000000000000000000000000000000000000000000000000000000000000000000000000000000000000000000000000000000000000000000000000000000000000000000000000000000000000000000000000000000000000000000000000000000000000000000000000000000000000000000000000000000000000000000000000000000000000000000000000000000000000000000000000000000000000000000000000000000000000000000000000000000000000000000000000000000000000000000000000000000000000000000000",
                    "difficulty": "0x020000",
                    "number": "0x01",
                    "gasLimit": "0x07270e00",
                    "gasUsed": "0x453b",
                    "timestamp": "0x03e8",
                    "extraData": "0x00",
                    "mixHash": "0x0000000000000000000000000000000000000000000000000000000000000000",
                    "nonce": "0x0000000000000000",
                    "hash": "0xbd2f06dfb41c0c75c982c70663a429a72bd83e944e1ff219fe61393198ad9f63"
                },
                "transactions": [
                    {
                        "type": "0x00",
                        "chainId": "0x01",
                        "nonce": "0x00",
                        "gasPrice": "0x0a",
                        "gasLimit": "0x0f4240",
                        "to": "0x17ea8eed650ee494e37c740538809397211a9ac9",
                        "value": "0x00",
                        "data": "0x",
                        "v": "0x25",
                        "r": "0xdd9172c0c74a51552b5bb9b4237098f554ebafea91dc64b891619716a1727e14",
                        "s": "0x514425d47ec99f3c9156b4e213c053954c0fa452851880fb59a1479a554fc87a",
                        "sender": "0x1ad9bc24818784172ff393bb6f89f094d4d2ca29"
                    }
                ],
                "uncleHeaders": [],
                "receipts": [
                    {
                        "transactionHash": "0xdb5362628e9a226d7453be4077c676745dcfe25ae1cc4ff11f0c7fd4931603c0",
                        "type": "0x00",
                        "cumulativeGasUsed": "0x453b",
                        "bloom": "0x00000000000000000000000000000000000000000000000000000000000000000000000000000000000000000000000000000000000000000000000000000000000000000000000000000000000000000000000000000000000000000000000000000000000000000000000000000000000000000000000000000000000000000000000000000000000000000000000000000000000000000000000000000000000000000000000000000000000000000000000000000000000000000000000000000000000000000000000000000000000000000000000000000000000000000000000000000000000000000000000000000000000000000000000000000000",
                        "logs": [],
                        "status": true,
                        "rlp": "0xf901080182453bb9010000000000000000000000000000000000000000000000000000000000000000000000000000000000000000000000000000000000000000000000000000000000000000000000000000000000000000000000000000000000000000000000000000000000000000000000000000000000000000000000000000000000000000000000000000000000000000000000000000000000000000000000000000000000000000000000000000000000000000000000000000000000000000000000000000000000000000000000000000000000000000000000000000000000000000000000000000000000000000000000000000000000000000000000000000000000c0"
                    }
                ],
                "rlp": "0xf90260f901f8a0c59e99fbd18d8966c08840e5c835842e0b8e661f7965d04aa54d985832b1247da01dcc4de8dec75d7aab85b567b6ccd41ad312451b948a7413f0a142fd40d49347942adc25665018aa1fe0e6bc666dac8fc2697ff9baa0fcc06c87a9c5172d4c3a8ee66cd661047a388afb4c84a0d66a498a6ca7b28a76a09833d4853f7e8308e89c62346039280b0ccb6f5b2fef4f84cf6fda4534fd9ce9a06641379f36dc5cad54419bebad2a6b37c1874756c39142666117dab722ffd6dfb901000000000000000000000000000000000000000000000000000000000000000000000000000000000000000000000000000000000000000000000000000000000000000000000000000000000000000000000000000000000000000000000000000000000000000000000000000000000000000000000000000000000000000000000000000000000000000000000000000000000000000000000000000000000000000000000000000000000000000000000000000000000000000000000000000000000000000000000000000000000000000000000000000000000000000000000000000000000000000000000000000000000000000000000000000000000083020000018407270e0082453b8203e800a00000000000000000000000000000000000000000000000000000000000000000880000000000000000f862f860800a830f42409417ea8eed650ee494e37c740538809397211a9ac9808025a0dd9172c0c74a51552b5bb9b4237098f554ebafea91dc64b891619716a1727e14a0514425d47ec99f3c9156b4e213c053954c0fa452851880fb59a1479a554fc87ac0",
                "blocknumber": "1"
            }
        ],
        "sealEngine": "NoProof",
        "_info": {
            "hash": "0x6b868a47daf28ae49f8f65ff1080070e19de216b5a5da0cc00e89c12e6607509",
            "fixture-format": "blockchain_test",
            "comment": "`execution-specs` generated test",
            "filling-transition-tool": "2.19.0",
            "description": "Tests the constant gas behavior of `ecadd/ecmul` precompiled contracts.",
            "url": "https://github.com/ethereum/execution-specs/blob/tests-bal@v5.3.0/tests/byzantium/eip196_ec_add_mul/test_gas.py#L20",
            "opcode_count": {},
            "reference-spec": "https://github.com/ethereum/EIPs/blob/master/EIPS/eip-196.md",
            "reference-spec-version": "6538d198b1db10784ddccd6931888d7ae718de75"
        }
    },
    "tests/byzantium/eip196_ec_add_mul/test_gas.py::test_gas_costs[fork_Istanbul-blockchain_test_from_state_test-enough_gas_True-ecadd]": {
        "network": "Istanbul",
        "genesisBlockHeader": {
            "parentHash": "0x0000000000000000000000000000000000000000000000000000000000000000",
            "uncleHash": "0x1dcc4de8dec75d7aab85b567b6ccd41ad312451b948a7413f0a142fd40d49347",
            "coinbase": "0x0000000000000000000000000000000000000000",
            "stateRoot": "0xd12050e236693b57288b1df629caac2798d37239203a841970b8fc8612927b71",
            "transactionsTrie": "0x56e81f171bcc55a6ff8345e692c0f86e5b48e01b996cadc001622fb5e363b421",
            "receiptTrie": "0x56e81f171bcc55a6ff8345e692c0f86e5b48e01b996cadc001622fb5e363b421",
            "bloom": "0x00000000000000000000000000000000000000000000000000000000000000000000000000000000000000000000000000000000000000000000000000000000000000000000000000000000000000000000000000000000000000000000000000000000000000000000000000000000000000000000000000000000000000000000000000000000000000000000000000000000000000000000000000000000000000000000000000000000000000000000000000000000000000000000000000000000000000000000000000000000000000000000000000000000000000000000000000000000000000000000000000000000000000000000000000000000",
            "difficulty": "0x020000",
            "number": "0x00",
            "gasLimit": "0x07270e00",
            "gasUsed": "0x00",
            "timestamp": "0x00",
            "extraData": "0x00",
            "mixHash": "0x0000000000000000000000000000000000000000000000000000000000000000",
            "nonce": "0x0000000000000000",
            "hash": "0x142d4bc84efe2c0f8fda8bf0f18a83af0a65b548958edc2bc043e7e31b144507"
        },
        "pre": {
            "0x711f4544f8b039f79397c0ffc86e3443dac35be5": {
                "nonce": "0x01",
                "balance": "0x00",
                "code": "0x6000600060006000600060066096f1600055",
                "storage": {
                    "0x00": "0xdeadbeef"
                }
            },
            "0x1ad9bc24818784172ff393bb6f89f094d4d2ca29": {
                "nonce": "0x00",
                "balance": "0x3635c9adc5dea00000",
                "code": "0x",
                "storage": {}
            }
        },
        "postState": {
            "0x711f4544f8b039f79397c0ffc86e3443dac35be5": {
                "nonce": "0x01",
                "balance": "0x00",
                "code": "0x6000600060006000600060066096f1600055",
                "storage": {
                    "0x00": "0x01"
                }
            },
            "0x1ad9bc24818784172ff393bb6f89f094d4d2ca29": {
                "nonce": "0x01",
                "balance": "0x3635c9adc5de9be63c",
                "code": "0x",
                "storage": {}
            },
            "0x2adc25665018aa1fe0e6bc666dac8fc2697ff9ba": {
                "nonce": "0x00",
                "balance": "0x1bc16d674ecc19c4",
                "code": "0x",
                "storage": {}
            }
        },
        "lastblockhash": "0xacab0b474452849140548d4827d16b7b96e1a07437688c61ceac9637e5b5e008",
        "config": {
            "network": "Istanbul",
            "chainid": "0x01"
        },
        "genesisRLP": "0xf901f9f901f4a00000000000000000000000000000000000000000000000000000000000000000a01dcc4de8dec75d7aab85b567b6ccd41ad312451b948a7413f0a142fd40d49347940000000000000000000000000000000000000000a0d12050e236693b57288b1df629caac2798d37239203a841970b8fc8612927b71a056e81f171bcc55a6ff8345e692c0f86e5b48e01b996cadc001622fb5e363b421a056e81f171bcc55a6ff8345e692c0f86e5b48e01b996cadc001622fb5e363b421b901000000000000000000000000000000000000000000000000000000000000000000000000000000000000000000000000000000000000000000000000000000000000000000000000000000000000000000000000000000000000000000000000000000000000000000000000000000000000000000000000000000000000000000000000000000000000000000000000000000000000000000000000000000000000000000000000000000000000000000000000000000000000000000000000000000000000000000000000000000000000000000000000000000000000000000000000000000000000000000000000000000000000000000000000000000000083020000808407270e00808000a00000000000000000000000000000000000000000000000000000000000000000880000000000000000c0c0",
        "blocks": [
            {
                "blockHeader": {
                    "parentHash": "0x142d4bc84efe2c0f8fda8bf0f18a83af0a65b548958edc2bc043e7e31b144507",
                    "uncleHash": "0x1dcc4de8dec75d7aab85b567b6ccd41ad312451b948a7413f0a142fd40d49347",
                    "coinbase": "0x2adc25665018aa1fe0e6bc666dac8fc2697ff9ba",
                    "stateRoot": "0xe3899a87fcf857fdc6046aba2e1aa871bc38ca8326019054c2ae6335753a0b4d",
                    "transactionsTrie": "0x4b0ed787354291c8c70bcd9cdf251bcd08e0d701a3df151e7f79f5462f348108",
                    "receiptTrie": "0x57306dd506ba5ce138d6bf514c9738314b0cf71d4ae583ca8b8a1cc33cebb10a",
                    "bloom": "0x00000000000000000000000000000000000000000000000000000000000000000000000000000000000000000000000000000000000000000000000000000000000000000000000000000000000000000000000000000000000000000000000000000000000000000000000000000000000000000000000000000000000000000000000000000000000000000000000000000000000000000000000000000000000000000000000000000000000000000000000000000000000000000000000000000000000000000000000000000000000000000000000000000000000000000000000000000000000000000000000000000000000000000000000000000000",
                    "difficulty": "0x020000",
                    "number": "0x01",
                    "gasLimit": "0x07270e00",
                    "gasUsed": "0x68fa",
                    "timestamp": "0x03e8",
                    "extraData": "0x00",
                    "mixHash": "0x0000000000000000000000000000000000000000000000000000000000000000",
                    "nonce": "0x0000000000000000",
                    "hash": "0xacab0b474452849140548d4827d16b7b96e1a07437688c61ceac9637e5b5e008"
                },
                "transactions": [
                    {
                        "type": "0x00",
                        "chainId": "0x01",
                        "nonce": "0x00",
                        "gasPrice": "0x0a",
                        "gasLimit": "0x0f4240",
                        "to": "0x711f4544f8b039f79397c0ffc86e3443dac35be5",
                        "value": "0x00",
                        "data": "0x",
                        "v": "0x26",
                        "r": "0x9fb10c7e724f9687776d24aba62bf4c957882fff5267d211c1ae414817974bad",
                        "s": "0x01099bcbff7fffe562426c563179f8394e8aff817cfc6cb82ef9a16b7b6c229a",
                        "sender": "0x1ad9bc24818784172ff393bb6f89f094d4d2ca29"
                    }
                ],
                "uncleHeaders": [],
                "receipts": [
                    {
                        "transactionHash": "0xbb6b1896ae015425504dc3e90ab7f11c78792a62d9bf44798405e6e02d8d6f61",
                        "type": "0x00",
                        "cumulativeGasUsed": "0x68fa",
                        "bloom": "0x00000000000000000000000000000000000000000000000000000000000000000000000000000000000000000000000000000000000000000000000000000000000000000000000000000000000000000000000000000000000000000000000000000000000000000000000000000000000000000000000000000000000000000000000000000000000000000000000000000000000000000000000000000000000000000000000000000000000000000000000000000000000000000000000000000000000000000000000000000000000000000000000000000000000000000000000000000000000000000000000000000000000000000000000000000000",
                        "logs": [],
                        "status": true,
                        "rlp": "0xf90108018268fab9010000000000000000000000000000000000000000000000000000000000000000000000000000000000000000000000000000000000000000000000000000000000000000000000000000000000000000000000000000000000000000000000000000000000000000000000000000000000000000000000000000000000000000000000000000000000000000000000000000000000000000000000000000000000000000000000000000000000000000000000000000000000000000000000000000000000000000000000000000000000000000000000000000000000000000000000000000000000000000000000000000000000000000000000000000000000c0"
                    }
                ],
                "rlp": "0xf90260f901f8a0142d4bc84efe2c0f8fda8bf0f18a83af0a65b548958edc2bc043e7e31b144507a01dcc4de8dec75d7aab85b567b6ccd41ad312451b948a7413f0a142fd40d49347942adc25665018aa1fe0e6bc666dac8fc2697ff9baa0e3899a87fcf857fdc6046aba2e1aa871bc38ca8326019054c2ae6335753a0b4da04b0ed787354291c8c70bcd9cdf251bcd08e0d701a3df151e7f79f5462f348108a057306dd506ba5ce138d6bf514c9738314b0cf71d4ae583ca8b8a1cc33cebb10ab901000000000000000000000000000000000000000000000000000000000000000000000000000000000000000000000000000000000000000000000000000000000000000000000000000000000000000000000000000000000000000000000000000000000000000000000000000000000000000000000000000000000000000000000000000000000000000000000000000000000000000000000000000000000000000000000000000000000000000000000000000000000000000000000000000000000000000000000000000000000000000000000000000000000000000000000000000000000000000000000000000000000000000000000000000000000083020000018407270e008268fa8203e800a00000000000000000000000000000000000000000000000000000000000000000880000000000000000f862f860800a830f424094711f4544f8b039f79397c0ffc86e3443dac35be5808026a09fb10c7e724f9687776d24aba62bf4c957882fff5267d211c1ae414817974bada001099bcbff7fffe562426c563179f8394e8aff817cfc6cb82ef9a16b7b6c229ac0",
                "blocknumber": "1"
            }
        ],
        "sealEngine": "NoProof",
        "_info": {
            "hash": "0x0ea798d7baf88300177dd518f13fd7130594262f2493f999c5079966575bce56",
            "fixture-format": "blockchain_test",
            "comment": "`execution-specs` generated test",
            "filling-transition-tool": "2.19.0",
            "description": "Tests the constant gas behavior of `ecadd/ecmul` precompiled contracts.",
            "url": "https://github.com/ethereum/execution-specs/blob/tests-bal@v5.3.0/tests/byzantium/eip196_ec_add_mul/test_gas.py#L20",
            "opcode_count": {},
            "reference-spec": "https://github.com/ethereum/EIPs/blob/master/EIPS/eip-196.md",
            "reference-spec-version": "6538d198b1db10784ddccd6931888d7ae718de75"
        }
    },
    "tests/byzantium/eip196_ec_add_mul/test_gas.py::test_gas_costs[fork_Istanbul-blockchain_test_from_state_test-enough_gas_True-ecmul]": {
        "network": "Istanbul",
        "genesisBlockHeader": {
            "parentHash": "0x0000000000000000000000000000000000000000000000000000000000000000",
            "uncleHash": "0x1dcc4de8dec75d7aab85b567b6ccd41ad312451b948a7413f0a142fd40d49347",
            "coinbase": "0x0000000000000000000000000000000000000000",
            "stateRoot": "0xba450465285fa655db2ffedc63c1a186d2325157e57e8fcbcd5351afe10b829a",
            "transactionsTrie": "0x56e81f171bcc55a6ff8345e692c0f86e5b48e01b996cadc001622fb5e363b421",
            "receiptTrie": "0x56e81f171bcc55a6ff8345e692c0f86e5b48e01b996cadc001622fb5e363b421",
            "bloom": "0x00000000000000000000000000000000000000000000000000000000000000000000000000000000000000000000000000000000000000000000000000000000000000000000000000000000000000000000000000000000000000000000000000000000000000000000000000000000000000000000000000000000000000000000000000000000000000000000000000000000000000000000000000000000000000000000000000000000000000000000000000000000000000000000000000000000000000000000000000000000000000000000000000000000000000000000000000000000000000000000000000000000000000000000000000000000",
            "difficulty": "0x020000",
            "number": "0x00",
            "gasLimit": "0x07270e00",
            "gasUsed": "0x00",
            "timestamp": "0x00",
            "extraData": "0x00",
            "mixHash": "0x0000000000000000000000000000000000000000000000000000000000000000",
            "nonce": "0x0000000000000000",
            "hash": "0x5e0afa0739079238c1381440b5cf949149f1addc301a2d6398c4389fd0652d68"
        },
        "pre": {
            "0x3f06880ea84fea6fb26530df61efbbdc5595b2eb": {
                "nonce": "0x01",
                "balance": "0x00",
                "code": "0x600060006000600060006007611770f1600055",
                "storage": {
                    "0x00": "0xdeadbeef"
                }
            },
            "0x1ad9bc24818784172ff393bb6f89f094d4d2ca29": {
                "nonce": "0x00",
                "balance": "0x3635c9adc5dea00000",
                "code": "0x",
                "storage": {}
            }
        },
        "postState": {
            "0x3f06880ea84fea6fb26530df61efbbdc5595b2eb": {
                "nonce": "0x01",
                "balance": "0x00",
                "code": "0x600060006000600060006007611770f1600055",
                "storage": {
                    "0x00": "0x01"
                }
            },
            "0x1ad9bc24818784172ff393bb6f89f094d4d2ca29": {
                "nonce": "0x01",
                "balance": "0x3635c9adc5de9b01b8",
                "code": "0x",
                "storage": {}
            },
            "0x2adc25665018aa1fe0e6bc666dac8fc2697ff9ba": {
                "nonce": "0x00",
                "balance": "0x1bc16d674eccfe48",
                "code": "0x",
                "storage": {}
            }
        },
        "lastblockhash": "0x7449d6aef44ccf807b3370b6118c7482e8efb0638d725f671e283e097e5df6a6",
        "config": {
            "network": "Istanbul",
            "chainid": "0x01"
        },
        "genesisRLP": "0xf901f9f901f4a00000000000000000000000000000000000000000000000000000000000000000a01dcc4de8dec75d7aab85b567b6ccd41ad312451b948a7413f0a142fd40d49347940000000000000000000000000000000000000000a0ba450465285fa655db2ffedc63c1a186d2325157e57e8fcbcd5351afe10b829aa056e81f171bcc55a6ff8345e692c0f86e5b48e01b996cadc001622fb5e363b421a056e81f171bcc55a6ff8345e692c0f86e5b48e01b996cadc001622fb5e363b421b901000000000000000000000000000000000000000000000000000000000000000000000000000000000000000000000000000000000000000000000000000000000000000000000000000000000000000000000000000000000000000000000000000000000000000000000000000000000000000000000000000000000000000000000000000000000000000000000000000000000000000000000000000000000000000000000000000000000000000000000000000000000000000000000000000000000000000000000000000000000000000000000000000000000000000000000000000000000000000000000000000000000000000000000000000000000083020000808407270e00808000a00000000000000000000000000000000000000000000000000000000000000000880000000000000000c0c0",
        "blocks": [
            {
                "blockHeader": {
                    "parentHash": "0x5e0afa0739079238c1381440b5cf949149f1addc301a2d6398c4389fd0652d68",
                    "uncleHash": "0x1dcc4de8dec75d7aab85b567b6ccd41ad312451b948a7413f0a142fd40d49347",
                    "coinbase": "0x2adc25665018aa1fe0e6bc666dac8fc2697ff9ba",
                    "stateRoot": "0x99dbfe26ab3e23c51fb3778003b2ca840cdbb0bef0c195b0476b38f2391680bd",
                    "transactionsTrie": "0x60ce8821c2544506ebf7fed21729ba8d21e9cd435e3175f7215da00e75ac1036",
                    "receiptTrie": "0x7fe8e1ae9ddd54643900f56e67635c677ab51c0b3197e022155dbda4eb4ae506",
                    "bloom": "0x00000000000000000000000000000000000000000000000000000000000000000000000000000000000000000000000000000000000000000000000000000000000000000000000000000000000000000000000000000000000000000000000000000000000000000000000000000000000000000000000000000000000000000000000000000000000000000000000000000000000000000000000000000000000000000000000000000000000000000000000000000000000000000000000000000000000000000000000000000000000000000000000000000000000000000000000000000000000000000000000000000000000000000000000000000000",
                    "difficulty": "0x020000",
                    "number": "0x01",
                    "gasLimit": "0x07270e00",
                    "gasUsed": "0x7fd4",
                    "timestamp": "0x03e8",
                    "extraData": "0x00",
                    "mixHash": "0x0000000000000000000000000000000000000000000000000000000000000000",
                    "nonce": "0x0000000000000000",
                    "hash": "0x7449d6aef44ccf807b3370b6118c7482e8efb0638d725f671e283e097e5df6a6"
                },
                "transactions": [
                    {
                        "type": "0x00",
                        "chainId": "0x01",
                        "nonce": "0x00",
                        "gasPrice": "0x0a",
                        "gasLimit": "0x0f4240",
                        "to": "0x3f06880ea84fea6fb26530df61efbbdc5595b2eb",
                        "value": "0x00",
                        "data": "0x",
                        "v": "0x26",
                        "r": "0x5d83d23187b0ea6141c352615f86fbc630b23a766101f2a00ce3d6bd1f145fff",
                        "s": "0x1695ce263919e1228c58d61b44a779b4e0f3141bb2cae0b8b6ab8acd15bd5b84",
                        "sender": "0x1ad9bc24818784172ff393bb6f89f094d4d2ca29"
                    }
                ],
                "uncleHeaders": [],
                "receipts": [
                    {
                        "transactionHash": "0x621469435f7707c848a4658af505dea1c1dc00cfdd92bfbc2994858dd9c7de66",
                        "type": "0x00",
                        "cumulativeGasUsed": "0x7fd4",
                        "bloom": "0x00000000000000000000000000000000000000000000000000000000000000000000000000000000000000000000000000000000000000000000000000000000000000000000000000000000000000000000000000000000000000000000000000000000000000000000000000000000000000000000000000000000000000000000000000000000000000000000000000000000000000000000000000000000000000000000000000000000000000000000000000000000000000000000000000000000000000000000000000000000000000000000000000000000000000000000000000000000000000000000000000000000000000000000000000000000",
                        "logs": [],
                        "status": true,
                        "rlp": "0xf9010801827fd4b9010000000000000000000000000000000000000000000000000000000000000000000000000000000000000000000000000000000000000000000000000000000000000000000000000000000000000000000000000000000000000000000000000000000000000000000000000000000000000000000000000000000000000000000000000000000000000000000000000000000000000000000000000000000000000000000000000000000000000000000000000000000000000000000000000000000000000000000000000000000000000000000000000000000000000000000000000000000000000000000000000000000000000000000000000000000000c0"
                    }
                ],
                "rlp": "0xf90260f901f8a05e0afa0739079238c1381440b5cf949149f1addc301a2d6398c4389fd0652d68a01dcc4de8dec75d7aab85b567b6ccd41ad312451b948a7413f0a142fd40d49347942adc25665018aa1fe0e6bc666dac8fc2697ff9baa099dbfe26ab3e23c51fb3778003b2ca840cdbb0bef0c195b0476b38f2391680bda060ce8821c2544506ebf7fed21729ba8d21e9cd435e3175f7215da00e75ac1036a07fe8e1ae9ddd54643900f56e67635c677ab51c0b3197e022155dbda4eb4ae506b901000000000000000000000000000000000000000000000000000000000000000000000000000000000000000000000000000000000000000000000000000000000000000000000000000000000000000000000000000000000000000000000000000000000000000000000000000000000000000000000000000000000000000000000000000000000000000000000000000000000000000000000000000000000000000000000000000000000000000000000000000000000000000000000000000000000000000000000000000000000000000000000000000000000000000000000000000000000000000000000000000000000000000000000000000000000083020000018407270e00827fd48203e800a00000000000000000000000000000000000000000000000000000000000000000880000000000000000f862f860800a830f4240943f06880ea84fea6fb26530df61efbbdc5595b2eb808026a05d83d23187b0ea6141c352615f86fbc630b23a766101f2a00ce3d6bd1f145fffa01695ce263919e1228c58d61b44a779b4e0f3141bb2cae0b8b6ab8acd15bd5b84c0",
                "blocknumber": "1"
            }
        ],
        "sealEngine": "NoProof",
        "_info": {
            "hash": "0xe9e8b397401352627075fb3779b508b32635015882e7d72fef49b8f263a5d4a0",
            "fixture-format": "blockchain_test",
            "comment": "`execution-specs` generated test",
            "filling-transition-tool": "2.19.0",
            "description": "Tests the constant gas behavior of `ecadd/ecmul` precompiled contracts.",
            "url": "https://github.com/ethereum/execution-specs/blob/tests-bal@v5.3.0/tests/byzantium/eip196_ec_add_mul/test_gas.py#L20",
            "opcode_count": {},
            "reference-spec": "https://github.com/ethereum/EIPs/blob/master/EIPS/eip-196.md",
            "reference-spec-version": "6538d198b1db10784ddccd6931888d7ae718de75"
        }
    }
}