{
    "tests/byzantium/eip196_ec_add_mul/test_gas.py::test_gas_costs[fork_Istanbul-blockchain_test_from_state_test-enough_gas_False-ecadd]": {
        "network": "Istanbul",
        "genesisBlockHeader": {
            "parentHash": "0x0000000000000000000000000000000000000000000000000000000000000000",
            "uncleHash": "0x1dcc4de8dec75d7aab85b567b6ccd41ad312451b948a7413f0a142fd40d49347",
            "coinbase": "0x0000000000000000000000000000000000000000",
            "stateRoot": "0x527bcd2fae508917ab4a73d35e175a5b7a935242676543864832e33827afa7bc",
            "transactionsTrie": "0x56e81f171bcc55a6ff8345e692c0f86e5b48e01b996cadc001622fb5e363b421",
            "receiptTrie": "0x56e81f171bcc55a6ff8345e692c0f86e5b48e01b996cadc001622fb5e363b421",
            "bloom": "0x00000000000000000000000000000000000000000000000000000000000000000000000000000000000000000000000000000000000000000000000000000000000000000000000000000000000000000000000000000000000000000000000000000000000000000000000000000000000000000000000000000000000000000000000000000000000000000000000000000000000000000000000000000000000000000000000000000000000000000000000000000000000000000000000000000000000000000000000000000000000000000000000000000000000000000000000000000000000000000000000000000000000000000000000000000000",
            "difficulty": "0x020000",
            "number": "0x00",
            "gasLimit": "0x07270e00",
            "gasUsed": "0x00",
            "timestamp": "0x00",
            "extraData": "0x00",
            "mixHash": "0x0000000000000000000000000000000000000000000000000000000000000000",
            "nonce": "0x0000000000000000",
            "hash": "0x04991c7081f0c8ba11c4f346f94aecc9f53dbf6aa67feb2bcde5912679154793"
        },
        "pre": {
            "0xad1917e55d309c3f90d9bff2661cace5e3a6c874": {
                "nonce": "0x01",
                "balance": "0x00",
                "code": "0x600060006000600060066095fa600055",
                "storage": {
                    "0x00": "0xba5e"
                }
            },
            "0x1ad9bc24818784172ff393bb6f89f094d4d2ca29": {
                "nonce": "0x00",
                "balance": "0x3635c9adc5dea00000",
                "code": "0x",
                "storage": {}
            }
        },
        "postState": {
            "0xad1917e55d309c3f90d9bff2661cace5e3a6c874": {
                "nonce": "0x01",
                "balance": "0x00",
                "code": "0x600060006000600060066095fa600055",
                "storage": {}
            },
            "0x1ad9bc24818784172ff393bb6f89f094d4d2ca29": {
                "nonce": "0x01",
                "balance": "0x3635c9adc5de9df332",
                "code": "0x",
                "storage": {}
            },
            "0x2adc25665018aa1fe0e6bc666dac8fc2697ff9ba": {
                "nonce": "0x00",
                "balance": "0x1bc16d674eca0cce",
                "code": "0x",
                "storage": {}
            }
        },
        "lastblockhash": "0xed14cf51a25110dd42d6c8dd0f3be8a06719708cac5be9c5d8dcfe1f40c46dc3",
        "config": {
            "network": "Istanbul",
            "chainid": "0x01"
        },
        "genesisRLP": "0xf901f9f901f4a00000000000000000000000000000000000000000000000000000000000000000a01dcc4de8dec75d7aab85b567b6ccd41ad312451b948a7413f0a142fd40d49347940000000000000000000000000000000000000000a0527bcd2fae508917ab4a73d35e175a5b7a935242676543864832e33827afa7bca056e81f171bcc55a6ff8345e692c0f86e5b48e01b996cadc001622fb5e363b421a056e81f171bcc55a6ff8345e692c0f86e5b48e01b996cadc001622fb5e363b421b901000000000000000000000000000000000000000000000000000000000000000000000000000000000000000000000000000000000000000000000000000000000000000000000000000000000000000000000000000000000000000000000000000000000000000000000000000000000000000000000000000000000000000000000000000000000000000000000000000000000000000000000000000000000000000000000000000000000000000000000000000000000000000000000000000000000000000000000000000000000000000000000000000000000000000000000000000000000000000000000000000000000000000000000000000000000083020000808407270e00808000a00000000000000000000000000000000000000000000000000000000000000000880000000000000000c0c0",
        "blocks": [
            {
                "blockHeader": {
                    "parentHash": "0x04991c7081f0c8ba11c4f346f94aecc9f53dbf6aa67feb2bcde5912679154793",
                    "uncleHash": "0x1dcc4de8dec75d7aab85b567b6ccd41ad312451b948a7413f0a142fd40d49347",
                    "coinbase": "0x2adc25665018aa1fe0e6bc666dac8fc2697ff9ba",
                    "stateRoot": "0x92de2f80f764f9b46deea332b4b886b60a34821490fe7a3f4610f7fd6557ac91",
                    "transactionsTrie": "0x3f3d8eac17dcfc8d4ee9127552ef8e54c8179ff7ef6ddbb4b48d5d763c130bca",
                    "receiptTrie": "0x2baf860fd06844af84ae7d13c766eb951b8f1e68222145ff14161f6c75b39a94",
                    "bloom": "0x00000000000000000000000000000000000000000000000000000000000000000000000000000000000000000000000000000000000000000000000000000000000000000000000000000000000000000000000000000000000000000000000000000000000000000000000000000000000000000000000000000000000000000000000000000000000000000000000000000000000000000000000000000000000000000000000000000000000000000000000000000000000000000000000000000000000000000000000000000000000000000000000000000000000000000000000000000000000000000000000000000000000000000000000000000000",
                    "difficulty": "0x020000",
                    "number": "0x01",
                    "gasLimit": "0x07270e00",
                    "gasUsed": "0x347b",
                    "timestamp": "0x03e8",
                    "extraData": "0x00",
                    "mixHash": "0x0000000000000000000000000000000000000000000000000000000000000000",
                    "nonce": "0x0000000000000000",
                    "hash": "0xed14cf51a25110dd42d6c8dd0f3be8a06719708cac5be9c5d8dcfe1f40c46dc3"
                },
                "transactions": [
                    {
                        "type": "0x00",
                        "chainId": "0x01",
                        "nonce": "0x00",
                        "gasPrice": "0x0a",
                        "gasLimit": "0x0f4240",
                        "to": "0xad1917e55d309c3f90d9bff2661cace5e3a6c874",
                        "value": "0x00",
                        "data": "0x",
                        "v": "0x26",
                        "r": "0xa357e6a3bf5c0360497542bc973d2f340bb8f21352564a2dbc6bb548c6819a27",
                        "s": "0x183e1a10dc6e24dacff1421539f66e486199875d4a91be0218dc3c67b8dad15e",
                        "sender": "0x1ad9bc24818784172ff393bb6f89f094d4d2ca29"
                    }
                ],
                "uncleHeaders": [],
                "receipts": [
                    {
                        "transactionHash": "0xef797fa99194e66ebd825083dcedfc828b81dd59914e92dbb7413963ffcf47a0",
                        "type": "0x00",
                        "cumulativeGasUsed": "0x347b",
                        "bloom": "0x00000000000000000000000000000000000000000000000000000000000000000000000000000000000000000000000000000000000000000000000000000000000000000000000000000000000000000000000000000000000000000000000000000000000000000000000000000000000000000000000000000000000000000000000000000000000000000000000000000000000000000000000000000000000000000000000000000000000000000000000000000000000000000000000000000000000000000000000000000000000000000000000000000000000000000000000000000000000000000000000000000000000000000000000000000000",
                        "logs": [],
                        "status": true,
                        "rlp": "0xf901080182347bb9010000000000000000000000000000000000000000000000000000000000000000000000000000000000000000000000000000000000000000000000000000000000000000000000000000000000000000000000000000000000000000000000000000000000000000000000000000000000000000000000000000000000000000000000000000000000000000000000000000000000000000000000000000000000000000000000000000000000000000000000000000000000000000000000000000000000000000000000000000000000000000000000000000000000000000000000000000000000000000000000000000000000000000000000000000000000c0"
                    }
                ],
                "rlp": "0xf90260f901f8a004991c7081f0c8ba11c4f346f94aecc9f53dbf6aa67feb2bcde5912679154793a01dcc4de8dec75d7aab85b567b6ccd41ad312451b948a7413f0a142fd40d49347942adc25665018aa1fe0e6bc666dac8fc2697ff9baa092de2f80f764f9b46deea332b4b886b60a34821490fe7a3f4610f7fd6557ac91a03f3d8eac17dcfc8d4ee9127552ef8e54c8179ff7ef6ddbb4b48d5d763c130bcaa02baf860fd06844af84ae7d13c766eb951b8f1e68222145ff14161f6c75b39a94b901000000000000000000000000000000000000000000000000000000000000000000000000000000000000000000000000000000000000000000000000000000000000000000000000000000000000000000000000000000000000000000000000000000000000000000000000000000000000000000000000000000000000000000000000000000000000000000000000000000000000000000000000000000000000000000000000000000000000000000000000000000000000000000000000000000000000000000000000000000000000000000000000000000000000000000000000000000000000000000000000000000000000000000000000000000000083020000018407270e0082347b8203e800a00000000000000000000000000000000000000000000000000000000000000000880000000000000000f862f860800a830f424094ad1917e55d309c3f90d9bff2661cace5e3a6c874808026a0a357e6a3bf5c0360497542bc973d2f340bb8f21352564a2dbc6bb548c6819a27a0183e1a10dc6e24dacff1421539f66e486199875d4a91be0218dc3c67b8dad15ec0",
                "blocknumber": "1"
            }
        ],
        "sealEngine": "NoProof",
        "_info": {
            "hash": "0x2143f046553cf4e2b3e036a33470790c902b24ed133d8bffed13b5c96916737a",
            "fixture-format": "blockchain_test",
            "comment": "`execution-specs` generated test",
            "filling-transition-tool": "2.19.0",
            "description": "Tests the constant gas behavior of `ecadd/ecmul` precompiled contracts.",
            "url": "https://github.com/ethereum/execution-specs/blob/tests-bal@v5.4.0/tests/byzantium/eip196_ec_add_mul/test_gas.py#L26",
            "opcode_count": {},
            "reference-spec": "https://github.com/ethereum/EIPs/blob/master/EIPS/eip-196.md",
            "reference-spec-version": "6538d198b1db10784ddccd6931888d7ae718de75"
        }
    },
    "tests/byzantium/eip196_ec_add_mul/test_gas.py::test_gas_costs[fork_Istanbul-blockchain_test_from_state_test-enough_gas_False-ecmul]": {
        "network": "Istanbul",
        "genesisBlockHeader": {
            "parentHash": "0x0000000000000000000000000000000000000000000000000000000000000000",
            "uncleHash": "0x1dcc4de8dec75d7aab85b567b6ccd41ad312451b948a7413f0a142fd40d49347",
            "coinbase": "0x0000000000000000000000000000000000000000",
            "stateRoot": "0xdf5b0afbf7340c6e279b0d50c0b6b4b873d081abedcee16f446014536028e60d",
            "transactionsTrie": "0x56e81f171bcc55a6ff8345e692c0f86e5b48e01b996cadc001622fb5e363b421",
            "receiptTrie": "0x56e81f171bcc55a6ff8345e692c0f86e5b48e01b996cadc001622fb5e363b421",
            "bloom": "0x00000000000000000000000000000000000000000000000000000000000000000000000000000000000000000000000000000000000000000000000000000000000000000000000000000000000000000000000000000000000000000000000000000000000000000000000000000000000000000000000000000000000000000000000000000000000000000000000000000000000000000000000000000000000000000000000000000000000000000000000000000000000000000000000000000000000000000000000000000000000000000000000000000000000000000000000000000000000000000000000000000000000000000000000000000000",
            "difficulty": "0x020000",
            "number": "0x00",
            "gasLimit": "0x07270e00",
            "gasUsed": "0x00",
            "timestamp": "0x00",
            "extraData": "0x00",
            "mixHash": "0x0000000000000000000000000000000000000000000000000000000000000000",
            "nonce": "0x0000000000000000",
            "hash": "0x4179b8e7ace0adf8eadfc4f0e5518651bf4f0a8b07eb8abf160001670756a908"
        },
        "pre": {
            "0xaecff76603f052b697e8560220f80f7db53650da": {
                "nonce": "0x01",
                "balance": "0x00",
                "code": "0x6000600060006000600761176ffa600055",
                "storage": {
                    "0x00": "0xba5e"
                }
            },
            "0x1ad9bc24818784172ff393bb6f89f094d4d2ca29": {
                "nonce": "0x00",
                "balance": "0x3635c9adc5dea00000",
                "code": "0x",
                "storage": {}
            }
        },
        "postState": {
            "0xaecff76603f052b697e8560220f80f7db53650da": {
                "nonce": "0x01",
                "balance": "0x00",
                "code": "0x6000600060006000600761176ffa600055",
                "storage": {}
            },
            "0x1ad9bc24818784172ff393bb6f89f094d4d2ca29": {
                "nonce": "0x01",
                "balance": "0x3635c9adc5de9d4bd0",
                "code": "0x",
                "storage": {}
            },
            "0x2adc25665018aa1fe0e6bc666dac8fc2697ff9ba": {
                "nonce": "0x00",
                "balance": "0x1bc16d674ecab430",
                "code": "0x",
                "storage": {}
            }
        },
        "lastblockhash": "0xd60c6eec1883266a6675574b433fff433734e7f01860edfa22ca28d0fcac99ea",
        "config": {
            "network": "Istanbul",
            "chainid": "0x01"
        },
        "genesisRLP": "0xf901f9f901f4a00000000000000000000000000000000000000000000000000000000000000000a01dcc4de8dec75d7aab85b567b6ccd41ad312451b948a7413f0a142fd40d49347940000000000000000000000000000000000000000a0df5b0afbf7340c6e279b0d50c0b6b4b873d081abedcee16f446014536028e60da056e81f171bcc55a6ff8345e692c0f86e5b48e01b996cadc001622fb5e363b421a056e81f171bcc55a6ff8345e692c0f86e5b48e01b996cadc001622fb5e363b421b901000000000000000000000000000000000000000000000000000000000000000000000000000000000000000000000000000000000000000000000000000000000000000000000000000000000000000000000000000000000000000000000000000000000000000000000000000000000000000000000000000000000000000000000000000000000000000000000000000000000000000000000000000000000000000000000000000000000000000000000000000000000000000000000000000000000000000000000000000000000000000000000000000000000000000000000000000000000000000000000000000000000000000000000000000000000083020000808407270e00808000a00000000000000000000000000000000000000000000000000000000000000000880000000000000000c0c0",
        "blocks": [
            {
                "blockHeader": {
                    "parentHash": "0x4179b8e7ace0adf8eadfc4f0e5518651bf4f0a8b07eb8abf160001670756a908",
                    "uncleHash": "0x1dcc4de8dec75d7aab85b567b6ccd41ad312451b948a7413f0a142fd40d49347",
                    "coinbase": "0x2adc25665018aa1fe0e6bc666dac8fc2697ff9ba",
                    "stateRoot": "0x762ec03bab315c823b22b5dcd4c2ae78f29395e344792aa368cb80c724fdd217",
                    "transactionsTrie": "0x384739930d1ca7ca89b1d0f9dbc11a6a67472ffa88f7e54b587fd758fc0904c2",
                    "receiptTrie": "0xefa16a32a6b3576a4fa79f74b1a8999e60d495caf3dfb64b898140348d8ad3ad",
                    "bloom": "0x00000000000000000000000000000000000000000000000000000000000000000000000000000000000000000000000000000000000000000000000000000000000000000000000000000000000000000000000000000000000000000000000000000000000000000000000000000000000000000000000000000000000000000000000000000000000000000000000000000000000000000000000000000000000000000000000000000000000000000000000000000000000000000000000000000000000000000000000000000000000000000000000000000000000000000000000000000000000000000000000000000000000000000000000000000000",
                    "difficulty": "0x020000",
                    "number": "0x01",
                    "gasLimit": "0x07270e00",
                    "gasUsed": "0x4538",
                    "timestamp": "0x03e8",
                    "extraData": "0x00",
                    "mixHash": "0x0000000000000000000000000000000000000000000000000000000000000000",
                    "nonce": "0x0000000000000000",
                    "hash": "0xd60c6eec1883266a6675574b433fff433734e7f01860edfa22ca28d0fcac99ea"
                },
                "transactions": [
                    {
                        "type": "0x00",
                        "chainId": "0x01",
                        "nonce": "0x00",
                        "gasPrice": "0x0a",
                        "gasLimit": "0x0f4240",
                        "to": "0xaecff76603f052b697e8560220f80f7db53650da",
                        "value": "0x00",
                        "data": "0x",
                        "v": "0x26",
                        "r": "0xe748d9f46928a58c230bc1287017cb46451a173a6a848e3f1c402f60d272d604",
                        "s": "0x5ab18fefb1a7e90e59ba1b32dcb9ad5639f9b5e3905af5fdaef6098723dbd31b",
                        "sender": "0x1ad9bc24818784172ff393bb6f89f094d4d2ca29"
                    }
                ],
                "uncleHeaders": [],
                "receipts": [
                    {
                        "transactionHash": "0xf8b7ec41128f9a3b85bf3b95bdde1b3fc19aa73d701b47ea7a1d7f0767032bfa",
                        "type": "0x00",
                        "cumulativeGasUsed": "0x4538",
                        "bloom": "0x00000000000000000000000000000000000000000000000000000000000000000000000000000000000000000000000000000000000000000000000000000000000000000000000000000000000000000000000000000000000000000000000000000000000000000000000000000000000000000000000000000000000000000000000000000000000000000000000000000000000000000000000000000000000000000000000000000000000000000000000000000000000000000000000000000000000000000000000000000000000000000000000000000000000000000000000000000000000000000000000000000000000000000000000000000000",
                        "logs": [],
                        "status": true,
                        "rlp": "0xf9010801824538b9010000000000000000000000000000000000000000000000000000000000000000000000000000000000000000000000000000000000000000000000000000000000000000000000000000000000000000000000000000000000000000000000000000000000000000000000000000000000000000000000000000000000000000000000000000000000000000000000000000000000000000000000000000000000000000000000000000000000000000000000000000000000000000000000000000000000000000000000000000000000000000000000000000000000000000000000000000000000000000000000000000000000000000000000000000000000c0"
                    }
                ],
                "rlp": "0xf90260f901f8a04179b8e7ace0adf8eadfc4f0e5518651bf4f0a8b07eb8abf160001670756a908a01dcc4de8dec75d7aab85b567b6ccd41ad312451b948a7413f0a142fd40d49347942adc25665018aa1fe0e6bc666dac8fc2697ff9baa0762ec03bab315c823b22b5dcd4c2ae78f29395e344792aa368cb80c724fdd217a0384739930d1ca7ca89b1d0f9dbc11a6a67472ffa88f7e54b587fd758fc0904c2a0efa16a32a6b3576a4fa79f74b1a8999e60d495caf3dfb64b898140348d8ad3adb901000000000000000000000000000000000000000000000000000000000000000000000000000000000000000000000000000000000000000000000000000000000000000000000000000000000000000000000000000000000000000000000000000000000000000000000000000000000000000000000000000000000000000000000000000000000000000000000000000000000000000000000000000000000000000000000000000000000000000000000000000000000000000000000000000000000000000000000000000000000000000000000000000000000000000000000000000000000000000000000000000000000000000000000000000000000083020000018407270e008245388203e800a00000000000000000000000000000000000000000000000000000000000000000880000000000000000f862f860800a830f424094aecff76603f052b697e8560220f80f7db53650da808026a0e748d9f46928a58c230bc1287017cb46451a173a6a848e3f1c402f60d272d604a05ab18fefb1a7e90e59ba1b32dcb9ad5639f9b5e3905af5fdaef6098723dbd31bc0",
                "blocknumber": "1"
            }
        ],
        "sealEngine": "NoProof",
        "_info": {
            "hash": "0x96f1571925302ed7f1128e74b4a086f9459c2aa8d2b19f8476b82a584ca95d00",
            "fixture-format": "blockchain_test",
            "comment": "`execution-specs` generated test",
            "filling-transition-tool": "2.19.0",
            "description": "Tests the constant gas behavior of `ecadd/ecmul` precompiled contracts.",
            "url": "https://github.com/ethereum/execution-specs/blob/tests-bal@v5.4.0/tests/byzantium/eip196_ec_add_mul/test_gas.py#L26",
            "opcode_count": {},
            "reference-spec": "https://github.com/ethereum/EIPs/blob/master/EIPS/eip-196.md",
            "reference-spec-version": "6538d198b1db10784ddccd6931888d7ae718de75"
        }
    },
    "tests/byzantium/eip196_ec_add_mul/test_gas.py::test_gas_costs[fork_Istanbul-blockchain_test_from_state_test-enough_gas_True-ecadd]": {
        "network": "Istanbul",
        "genesisBlockHeader": {
            "parentHash": "0x0000000000000000000000000000000000000000000000000000000000000000",
            "uncleHash": "0x1dcc4de8dec75d7aab85b567b6ccd41ad312451b948a7413f0a142fd40d49347",
            "coinbase": "0x0000000000000000000000000000000000000000",
            "stateRoot": "0xfcecb5728b5f286a2520964e1a27a37846a4ab10148d9aec8d3802b4f077525b",
            "transactionsTrie": "0x56e81f171bcc55a6ff8345e692c0f86e5b48e01b996cadc001622fb5e363b421",
            "receiptTrie": "0x56e81f171bcc55a6ff8345e692c0f86e5b48e01b996cadc001622fb5e363b421",
            "bloom": "0x00000000000000000000000000000000000000000000000000000000000000000000000000000000000000000000000000000000000000000000000000000000000000000000000000000000000000000000000000000000000000000000000000000000000000000000000000000000000000000000000000000000000000000000000000000000000000000000000000000000000000000000000000000000000000000000000000000000000000000000000000000000000000000000000000000000000000000000000000000000000000000000000000000000000000000000000000000000000000000000000000000000000000000000000000000000",
            "difficulty": "0x020000",
            "number": "0x00",
            "gasLimit": "0x07270e00",
            "gasUsed": "0x00",
            "timestamp": "0x00",
            "extraData": "0x00",
            "mixHash": "0x0000000000000000000000000000000000000000000000000000000000000000",
            "nonce": "0x0000000000000000",
            "hash": "0x53644402d88552d7d0c9aadac9d8aff0903cc328311290dd1eb1f69ce8f12cb4"
        },
        "pre": {
            "0x02d553d3e53403fc591ce7ca5b5c0a0f049b810b": {
                "nonce": "0x01",
                "balance": "0x00",
                "code": "0x600060006000600060066096fa600055",
                "storage": {}
            },
            "0x1ad9bc24818784172ff393bb6f89f094d4d2ca29": {
                "nonce": "0x00",
                "balance": "0x3635c9adc5dea00000",
                "code": "0x",
                "storage": {}
            }
        },
        "postState": {
            "0x02d553d3e53403fc591ce7ca5b5c0a0f049b810b": {
                "nonce": "0x01",
                "balance": "0x00",
                "code": "0x600060006000600060066096fa600055",
                "storage": {
                    "0x00": "0x01"
                }
            },
            "0x1ad9bc24818784172ff393bb6f89f094d4d2ca29": {
                "nonce": "0x01",
                "balance": "0x3635c9adc5de999c6a",
                "code": "0x",
                "storage": {}
            },
            "0x2adc25665018aa1fe0e6bc666dac8fc2697ff9ba": {
                "nonce": "0x00",
                "balance": "0x1bc16d674ece6396",
                "code": "0x",
                "storage": {}
            }
        },
        "lastblockhash": "0x566225f43fdd61a25c18786143254875165eae72e9ba301a76b6dadcefe16b91",
        "config": {
            "network": "Istanbul",
            "chainid": "0x01"
        },
        "genesisRLP": "0xf901f9f901f4a00000000000000000000000000000000000000000000000000000000000000000a01dcc4de8dec75d7aab85b567b6ccd41ad312451b948a7413f0a142fd40d49347940000000000000000000000000000000000000000a0fcecb5728b5f286a2520964e1a27a37846a4ab10148d9aec8d3802b4f077525ba056e81f171bcc55a6ff8345e692c0f86e5b48e01b996cadc001622fb5e363b421a056e81f171bcc55a6ff8345e692c0f86e5b48e01b996cadc001622fb5e363b421b901000000000000000000000000000000000000000000000000000000000000000000000000000000000000000000000000000000000000000000000000000000000000000000000000000000000000000000000000000000000000000000000000000000000000000000000000000000000000000000000000000000000000000000000000000000000000000000000000000000000000000000000000000000000000000000000000000000000000000000000000000000000000000000000000000000000000000000000000000000000000000000000000000000000000000000000000000000000000000000000000000000000000000000000000000000000083020000808407270e00808000a00000000000000000000000000000000000000000000000000000000000000000880000000000000000c0c0",
        "blocks": [
            {
                "blockHeader": {
                    "parentHash": "0x53644402d88552d7d0c9aadac9d8aff0903cc328311290dd1eb1f69ce8f12cb4",
                    "uncleHash": "0x1dcc4de8dec75d7aab85b567b6ccd41ad312451b948a7413f0a142fd40d49347",
                    "coinbase": "0x2adc25665018aa1fe0e6bc666dac8fc2697ff9ba",
                    "stateRoot": "0x124570b4fb1b540cf34c009872691126b041447290bbb3258a4fad87721e31bd",
                    "transactionsTrie": "0xaace696241dc0082702668264ae7a3899ac885a528ce1f6dcc2c5c809e6f1fb7",
                    "receiptTrie": "0x417342b69eb8385cd570ace8f01ccacb086d4a905280ca1cf9e6305ecb0a8d63",
                    "bloom": "0x00000000000000000000000000000000000000000000000000000000000000000000000000000000000000000000000000000000000000000000000000000000000000000000000000000000000000000000000000000000000000000000000000000000000000000000000000000000000000000000000000000000000000000000000000000000000000000000000000000000000000000000000000000000000000000000000000000000000000000000000000000000000000000000000000000000000000000000000000000000000000000000000000000000000000000000000000000000000000000000000000000000000000000000000000000000",
                    "difficulty": "0x020000",
                    "number": "0x01",
                    "gasLimit": "0x07270e00",
                    "gasUsed": "0xa38f",
                    "timestamp": "0x03e8",
                    "extraData": "0x00",
                    "mixHash": "0x0000000000000000000000000000000000000000000000000000000000000000",
                    "nonce": "0x0000000000000000",
                    "hash": "0x566225f43fdd61a25c18786143254875165eae72e9ba301a76b6dadcefe16b91"
                },
                "transactions": [
                    {
                        "type": "0x00",
                        "chainId": "0x01",
                        "nonce": "0x00",
                        "gasPrice": "0x0a",
                        "gasLimit": "0x0f4240",
                        "to": "0x02d553d3e53403fc591ce7ca5b5c0a0f049b810b",
                        "value": "0x00",
                        "data": "0x",
                        "v": "0x26",
                        "r": "0x20efb546456959074a008633b3b53954fd5ca43de83b4daf4e27595f75ae7ad9",
                        "s": "0x0179f2e4fed49c89cff908230e149f3f9a161d9d95ee3269bff5c5a72503e59f",
                        "sender": "0x1ad9bc24818784172ff393bb6f89f094d4d2ca29"
                    }
                ],
                "uncleHeaders": [],
                "receipts": [
                    {
                        "transactionHash": "0x08fece4908cd6d57b425a2181cf2505a936a7b6ce482770419f8b8c2d5b14960",
                        "type": "0x00",
                        "cumulativeGasUsed": "0xa38f",
                        "bloom": "0x00000000000000000000000000000000000000000000000000000000000000000000000000000000000000000000000000000000000000000000000000000000000000000000000000000000000000000000000000000000000000000000000000000000000000000000000000000000000000000000000000000000000000000000000000000000000000000000000000000000000000000000000000000000000000000000000000000000000000000000000000000000000000000000000000000000000000000000000000000000000000000000000000000000000000000000000000000000000000000000000000000000000000000000000000000000",
                        "logs": [],
                        "status": true,
                        "rlp": "0xf901080182a38fb9010000000000000000000000000000000000000000000000000000000000000000000000000000000000000000000000000000000000000000000000000000000000000000000000000000000000000000000000000000000000000000000000000000000000000000000000000000000000000000000000000000000000000000000000000000000000000000000000000000000000000000000000000000000000000000000000000000000000000000000000000000000000000000000000000000000000000000000000000000000000000000000000000000000000000000000000000000000000000000000000000000000000000000000000000000000000c0"
                    }
                ],
                "rlp": "0xf90260f901f8a053644402d88552d7d0c9aadac9d8aff0903cc328311290dd1eb1f69ce8f12cb4a01dcc4de8dec75d7aab85b567b6ccd41ad312451b948a7413f0a142fd40d49347942adc25665018aa1fe0e6bc666dac8fc2697ff9baa0124570b4fb1b540cf34c009872691126b041447290bbb3258a4fad87721e31bda0aace696241dc0082702668264ae7a3899ac885a528ce1f6dcc2c5c809e6f1fb7a0417342b69eb8385cd570ace8f01ccacb086d4a905280ca1cf9e6305ecb0a8d63b901000000000000000000000000000000000000000000000000000000000000000000000000000000000000000000000000000000000000000000000000000000000000000000000000000000000000000000000000000000000000000000000000000000000000000000000000000000000000000000000000000000000000000000000000000000000000000000000000000000000000000000000000000000000000000000000000000000000000000000000000000000000000000000000000000000000000000000000000000000000000000000000000000000000000000000000000000000000000000000000000000000000000000000000000000000000083020000018407270e0082a38f8203e800a00000000000000000000000000000000000000000000000000000000000000000880000000000000000f862f860800a830f42409402d553d3e53403fc591ce7ca5b5c0a0f049b810b808026a020efb546456959074a008633b3b53954fd5ca43de83b4daf4e27595f75ae7ad9a00179f2e4fed49c89cff908230e149f3f9a161d9d95ee3269bff5c5a72503e59fc0",
                "blocknumber": "1"
            }
        ],
        "sealEngine": "NoProof",
        "_info": {
            "hash": "0x7edad622be584c10761021f489891f5bf9e864b8e126e9a42a86d940c451dc3b",
            "fixture-format": "blockchain_test",
            "comment": "`execution-specs` generated test",
            "filling-transition-tool": "2.19.0",
            "description": "Tests the constant gas behavior of `ecadd/ecmul` precompiled contracts.",
            "url": "https://github.com/ethereum/execution-specs/blob/tests-bal@v5.4.0/tests/byzantium/eip196_ec_add_mul/test_gas.py#L26",
            "opcode_count": {},
            "reference-spec": "https://github.com/ethereum/EIPs/blob/master/EIPS/eip-196.md",
            "reference-spec-version": "6538d198b1db10784ddccd6931888d7ae718de75"
        }
    },
    "tests/byzantium/eip196_ec_add_mul/test_gas.py::test_gas_costs[fork_Istanbul-blockchain_test_from_state_test-enough_gas_True-ecmul]": {
        "network": "Istanbul",
        "genesisBlockHeader": {
            "parentHash": "0x0000000000000000000000000000000000000000000000000000000000000000",
            "uncleHash": "0x1dcc4de8dec75d7aab85b567b6ccd41ad312451b948a7413f0a142fd40d49347",
            "coinbase": "0x0000000000000000000000000000000000000000",
            "stateRoot": "0xb74d1bfb664fd3241e77966a7d6c513106b93f07b17aad1904f83cff2b1f8fcb",
            "transactionsTrie": "0x56e81f171bcc55a6ff8345e692c0f86e5b48e01b996cadc001622fb5e363b421",
            "receiptTrie": "0x56e81f171bcc55a6ff8345e692c0f86e5b48e01b996cadc001622fb5e363b421",
            "bloom": "0x00000000000000000000000000000000000000000000000000000000000000000000000000000000000000000000000000000000000000000000000000000000000000000000000000000000000000000000000000000000000000000000000000000000000000000000000000000000000000000000000000000000000000000000000000000000000000000000000000000000000000000000000000000000000000000000000000000000000000000000000000000000000000000000000000000000000000000000000000000000000000000000000000000000000000000000000000000000000000000000000000000000000000000000000000000000",
            "difficulty": "0x020000",
            "number": "0x00",
            "gasLimit": "0x07270e00",
            "gasUsed": "0x00",
            "timestamp": "0x00",
            "extraData": "0x00",
            "mixHash": "0x0000000000000000000000000000000000000000000000000000000000000000",
            "nonce": "0x0000000000000000",
            "hash": "0xb4ad7f11862b6be917db4bd795fbdc7c69ee285d1b3c9d45d54aeb5acd72666a"
        },
        "pre": {
            "0x3ed69cef5fe19c7d33af090c6f427c8b6d980ef8": {
                "nonce": "0x01",
                "balance": "0x00",
                "code": "0x60006000600060006007611770fa600055",
                "storage": {}
            },
            "0x1ad9bc24818784172ff393bb6f89f094d4d2ca29": {
                "nonce": "0x00",
                "balance": "0x3635c9adc5dea00000",
                "code": "0x",
                "storage": {}
            }
        },
        "postState": {
            "0x3ed69cef5fe19c7d33af090c6f427c8b6d980ef8": {
                "nonce": "0x01",
                "balance": "0x00",
                "code": "0x60006000600060006007611770fa600055",
                "storage": {
                    "0x00": "0x01"
                }
            },
            "0x1ad9bc24818784172ff393bb6f89f094d4d2ca29": {
                "nonce": "0x01",
                "balance": "0x3635c9adc5de98b7e6",
                "code": "0x",
                "storage": {}
            },
            "0x2adc25665018aa1fe0e6bc666dac8fc2697ff9ba": {
                "nonce": "0x00",
                "balance": "0x1bc16d674ecf481a",
                "code": "0x",
                "storage": {}
            }
        },
        "lastblockhash": "0x9b16524ac44bd48b5f2c0131808a0aeb32d018862803b15777877080bc656798",
        "config": {
            "network": "Istanbul",
            "chainid": "0x01"
        },
        "genesisRLP": "0xf901f9f901f4a00000000000000000000000000000000000000000000000000000000000000000a01dcc4de8dec75d7aab85b567b6ccd41ad312451b948a7413f0a142fd40d49347940000000000000000000000000000000000000000a0b74d1bfb664fd3241e77966a7d6c513106b93f07b17aad1904f83cff2b1f8fcba056e81f171bcc55a6ff8345e692c0f86e5b48e01b996cadc001622fb5e363b421a056e81f171bcc55a6ff8345e692c0f86e5b48e01b996cadc001622fb5e363b421b901000000000000000000000000000000000000000000000000000000000000000000000000000000000000000000000000000000000000000000000000000000000000000000000000000000000000000000000000000000000000000000000000000000000000000000000000000000000000000000000000000000000000000000000000000000000000000000000000000000000000000000000000000000000000000000000000000000000000000000000000000000000000000000000000000000000000000000000000000000000000000000000000000000000000000000000000000000000000000000000000000000000000000000000000000000000083020000808407270e00808000a00000000000000000000000000000000000000000000000000000000000000000880000000000000000c0c0",
        "blocks": [
            {
                "blockHeader": {
                    "parentHash": "0xb4ad7f11862b6be917db4bd795fbdc7c69ee285d1b3c9d45d54aeb5acd72666a",
                    "uncleHash": "0x1dcc4de8dec75d7aab85b567b6ccd41ad312451b948a7413f0a142fd40d49347",
                    "coinbase": "0x2adc25665018aa1fe0e6bc666dac8fc2697ff9ba",
                    "stateRoot": "0x92ab66115229f6aac34820aac503cd3245ab2e00d52c208a3e2b0f5af452d96a",
                    "transactionsTrie": "0x22871d9284d6cb6c7c5eaf47f7e67f0e2fd935f5138a2b31322d6c472419420a",
                    "receiptTrie": "0x2ba50fedd30e356aa05004529f43f6a9c84c687364ac37385c5e3485ca26aa1f",
                    "bloom": "0x00000000000000000000000000000000000000000000000000000000000000000000000000000000000000000000000000000000000000000000000000000000000000000000000000000000000000000000000000000000000000000000000000000000000000000000000000000000000000000000000000000000000000000000000000000000000000000000000000000000000000000000000000000000000000000000000000000000000000000000000000000000000000000000000000000000000000000000000000000000000000000000000000000000000000000000000000000000000000000000000000000000000000000000000000000000",
                    "difficulty": "0x020000",
                    "number": "0x01",
                    "gasLimit": "0x07270e00",
                    "gasUsed": "0xba69",
                    "timestamp": "0x03e8",
                    "extraData": "0x00",
                    "mixHash": "0x0000000000000000000000000000000000000000000000000000000000000000",
                    "nonce": "0x0000000000000000",
                    "hash": "0x9b16524ac44bd48b5f2c0131808a0aeb32d018862803b15777877080bc656798"
                },
                "transactions": [
                    {
                        "type": "0x00",
                        "chainId": "0x01",
                        "nonce": "0x00",
                        "gasPrice": "0x0a",
                        "gasLimit": "0x0f4240",
                        "to": "0x3ed69cef5fe19c7d33af090c6f427c8b6d980ef8",
                        "value": "0x00",
                        "data": "0x",
                        "v": "0x26",
                        "r": "0xa2ab24c74eac148b32ca06d24b9c9e9f7547fbd880cf9d9220b2224865715109",
                        "s": "0x266cdf264f173040278daed39a424c640aa8935f234291481257ad91b92fe6c2",
                        "sender": "0x1ad9bc24818784172ff393bb6f89f094d4d2ca29"
                    }
                ],
                "uncleHeaders": [],
                "receipts": [
                    {
                        "transactionHash": "0x3e818f1ed17feb69257f56dc7989fc2e21d5a7f213117270726bc0449ffe3f7e",
                        "type": "0x00",
                        "cumulativeGasUsed": "0xba69",
                        "bloom": "0x00000000000000000000000000000000000000000000000000000000000000000000000000000000000000000000000000000000000000000000000000000000000000000000000000000000000000000000000000000000000000000000000000000000000000000000000000000000000000000000000000000000000000000000000000000000000000000000000000000000000000000000000000000000000000000000000000000000000000000000000000000000000000000000000000000000000000000000000000000000000000000000000000000000000000000000000000000000000000000000000000000000000000000000000000000000",
                        "logs": [],
                        "status": true,
                        "rlp": "0xf901080182ba69b9010000000000000000000000000000000000000000000000000000000000000000000000000000000000000000000000000000000000000000000000000000000000000000000000000000000000000000000000000000000000000000000000000000000000000000000000000000000000000000000000000000000000000000000000000000000000000000000000000000000000000000000000000000000000000000000000000000000000000000000000000000000000000000000000000000000000000000000000000000000000000000000000000000000000000000000000000000000000000000000000000000000000000000000000000000000000c0"
                    }
                ],
                "rlp": "0xf90260f901f8a0b4ad7f11862b6be917db4bd795fbdc7c69ee285d1b3c9d45d54aeb5acd72666aa01dcc4de8dec75d7aab85b567b6ccd41ad312451b948a7413f0a142fd40d49347942adc25665018aa1fe0e6bc666dac8fc2697ff9baa092ab66115229f6aac34820aac503cd3245ab2e00d52c208a3e2b0f5af452d96aa022871d9284d6cb6c7c5eaf47f7e67f0e2fd935f5138a2b31322d6c472419420aa02ba50fedd30e356aa05004529f43f6a9c84c687364ac37385c5e3485ca26aa1fb901000000000000000000000000000000000000000000000000000000000000000000000000000000000000000000000000000000000000000000000000000000000000000000000000000000000000000000000000000000000000000000000000000000000000000000000000000000000000000000000000000000000000000000000000000000000000000000000000000000000000000000000000000000000000000000000000000000000000000000000000000000000000000000000000000000000000000000000000000000000000000000000000000000000000000000000000000000000000000000000000000000000000000000000000000000000083020000018407270e0082ba698203e800a00000000000000000000000000000000000000000000000000000000000000000880000000000000000f862f860800a830f4240943ed69cef5fe19c7d33af090c6f427c8b6d980ef8808026a0a2ab24c74eac148b32ca06d24b9c9e9f7547fbd880cf9d9220b2224865715109a0266cdf264f173040278daed39a424c640aa8935f234291481257ad91b92fe6c2c0",
                "blocknumber": "1"
            }
        ],
        "sealEngine": "NoProof",
        "_info": {
            "hash": "0xd171c76697f81febd4d0bf9092bfa70882471c298f214cf77435ea07aa448d55",
            "fixture-format": "blockchain_test",
            "comment": "`execution-specs` generated test",
            "filling-transition-tool": "2.19.0",
            "description": "Tests the constant gas behavior of `ecadd/ecmul` precompiled contracts.",
            "url": "https://github.com/ethereum/execution-specs/blob/tests-bal@v5.4.0/tests/byzantium/eip196_ec_add_mul/test_gas.py#L26",
            "opcode_count": {},
            "reference-spec": "https://github.com/ethereum/EIPs/blob/master/EIPS/eip-196.md",
            "reference-spec-version": "6538d198b1db10784ddccd6931888d7ae718de75"
        }
    }
}