{
    "tests/ported_static/stCallDelegateCodesHomestead/test_callcallcodecall_010.py::test_callcallcodecall_010[fork_Cancun-blockchain_test_from_state_test]": {
        "network": "Cancun",
        "genesisBlockHeader": {
            "parentHash": "0x0000000000000000000000000000000000000000000000000000000000000000",
            "uncleHash": "0x1dcc4de8dec75d7aab85b567b6ccd41ad312451b948a7413f0a142fd40d49347",
            "coinbase": "0x0000000000000000000000000000000000000000",
            "stateRoot": "0xb0bfaeaf0ca5955a78536cacbb49813c644e47802e545176c3977e0610f7c157",
            "transactionsTrie": "0x56e81f171bcc55a6ff8345e692c0f86e5b48e01b996cadc001622fb5e363b421",
            "receiptTrie": "0x56e81f171bcc55a6ff8345e692c0f86e5b48e01b996cadc001622fb5e363b421",
            "bloom": "0x00000000000000000000000000000000000000000000000000000000000000000000000000000000000000000000000000000000000000000000000000000000000000000000000000000000000000000000000000000000000000000000000000000000000000000000000000000000000000000000000000000000000000000000000000000000000000000000000000000000000000000000000000000000000000000000000000000000000000000000000000000000000000000000000000000000000000000000000000000000000000000000000000000000000000000000000000000000000000000000000000000000000000000000000000000000",
            "difficulty": "0x00",
            "number": "0x00",
            "gasLimit": "0x01c9c380",
            "gasUsed": "0x00",
            "timestamp": "0x00",
            "extraData": "0x00",
            "mixHash": "0x0000000000000000000000000000000000000000000000000000000000000000",
            "nonce": "0x0000000000000000",
            "baseFeePerGas": "0x0b",
            "withdrawalsRoot": "0x56e81f171bcc55a6ff8345e692c0f86e5b48e01b996cadc001622fb5e363b421",
            "blobGasUsed": "0x00",
            "excessBlobGas": "0x00",
            "parentBeaconBlockRoot": "0x0000000000000000000000000000000000000000000000000000000000000000",
            "hash": "0x2ee77c016a5050216fa8ddbce5dafe0864149b9edc5e402ea4c7cdb34a700ff0"
        },
        "pre": {
            "0x000f3df6d732807ef1319fb7b8bb8522d0beac02": {
                "nonce": "0x01",
                "balance": "0x00",
                "code": "0x3373fffffffffffffffffffffffffffffffffffffffe14604d57602036146024575f5ffd5b5f35801560495762001fff810690815414603c575f5ffd5b62001fff01545f5260205ff35b5f5ffd5b62001fff42064281555f359062001fff015500",
                "storage": {}
            },
            "0xd66f224cbd2fabb21b17bb53c56118f32f62ebd6": {
                "nonce": "0x00",
                "balance": "0x0de0b6b3a7640000",
                "code": "0x",
                "storage": {}
            },
            "0xddc8746bd83f161fca0564ef5a63daabc7ce8347": {
                "nonce": "0x00",
                "balance": "0x00",
                "code": "0x600160035533600455346007553061014a553261014c55366101505538610152553a6101545500",
                "storage": {}
            },
            "0xb21710856b8ebf41f1df9428dbfb2edde5ef8fb2": {
                "nonce": "0x00",
                "balance": "0x0de0b6b3a7640000",
                "code": "0x6040600060406000600273ddc8746bd83f161fca0564ef5a63daabc7ce83476203d090f16002553360055500",
                "storage": {}
            },
            "0x1cb1e2a7aed6bb1dbbd08b89c1bd823dbbf729e7": {
                "nonce": "0x00",
                "balance": "0x0de0b6b3a7640000",
                "code": "0x604060006040600073b21710856b8ebf41f1df9428dbfb2edde5ef8fb2620493e0f460015500",
                "storage": {}
            },
            "0xcd4b8b20abc112232f8cc43b9867375b85f93bd9": {
                "nonce": "0x00",
                "balance": "0x0de0b6b3a7640000",
                "code": "0x60406000604060006001731cb1e2a7aed6bb1dbbd08b89c1bd823dbbf729e762055730f160005500",
                "storage": {}
            }
        },
        "postState": {
            "0x000f3df6d732807ef1319fb7b8bb8522d0beac02": {
                "nonce": "0x01",
                "balance": "0x00",
                "code": "0x3373fffffffffffffffffffffffffffffffffffffffe14604d57602036146024575f5ffd5b5f35801560495762001fff810690815414603c575f5ffd5b62001fff01545f5260205ff35b5f5ffd5b62001fff42064281555f359062001fff015500",
                "storage": {
                    "0x03e8": "0x03e8"
                }
            },
            "0xd66f224cbd2fabb21b17bb53c56118f32f62ebd6": {
                "nonce": "0x01",
                "balance": "0x0de0b6b3a73512fe",
                "code": "0x",
                "storage": {}
            },
            "0xddc8746bd83f161fca0564ef5a63daabc7ce8347": {
                "nonce": "0x00",
                "balance": "0x02",
                "code": "0x600160035533600455346007553061014a553261014c55366101505538610152553a6101545500",
                "storage": {
                    "0x03": "0x01",
                    "0x04": "0x1cb1e2a7aed6bb1dbbd08b89c1bd823dbbf729e7",
                    "0x07": "0x02",
                    "0x014a": "0xddc8746bd83f161fca0564ef5a63daabc7ce8347",
                    "0x014c": "0xd66f224cbd2fabb21b17bb53c56118f32f62ebd6",
                    "0x0150": "0x40",
                    "0x0152": "0x27",
                    "0x0154": "0x0a"
                }
            },
            "0xb21710856b8ebf41f1df9428dbfb2edde5ef8fb2": {
                "nonce": "0x00",
                "balance": "0x0de0b6b3a7640000",
                "code": "0x6040600060406000600273ddc8746bd83f161fca0564ef5a63daabc7ce83476203d090f16002553360055500",
                "storage": {}
            },
            "0x1cb1e2a7aed6bb1dbbd08b89c1bd823dbbf729e7": {
                "nonce": "0x00",
                "balance": "0x0de0b6b3a763ffff",
                "code": "0x604060006040600073b21710856b8ebf41f1df9428dbfb2edde5ef8fb2620493e0f460015500",
                "storage": {
                    "0x02": "0x01",
                    "0x05": "0xcd4b8b20abc112232f8cc43b9867375b85f93bd9",
                    "0x01": "0x01"
                }
            },
            "0xcd4b8b20abc112232f8cc43b9867375b85f93bd9": {
                "nonce": "0x00",
                "balance": "0x0de0b6b3a763ffff",
                "code": "0x60406000604060006001731cb1e2a7aed6bb1dbbd08b89c1bd823dbbf729e762055730f160005500",
                "storage": {
                    "0x00": "0x01"
                }
            }
        },
        "lastblockhash": "0x7650a1e6b8cbf79c1cfd40656cf2ad490f74d251b99b297595bece40fa2e2adb",
        "config": {
            "network": "Cancun",
            "chainid": "0x01",
            "blobSchedule": {
                "Cancun": {
                    "target": "0x03",
                    "max": "0x06",
                    "baseFeeUpdateFraction": "0x32f0ed"
                }
            }
        },
        "genesisRLP": "0xf9023cf90236a00000000000000000000000000000000000000000000000000000000000000000a01dcc4de8dec75d7aab85b567b6ccd41ad312451b948a7413f0a142fd40d49347940000000000000000000000000000000000000000a0b0bfaeaf0ca5955a78536cacbb49813c644e47802e545176c3977e0610f7c157a056e81f171bcc55a6ff8345e692c0f86e5b48e01b996cadc001622fb5e363b421a056e81f171bcc55a6ff8345e692c0f86e5b48e01b996cadc001622fb5e363b421b901000000000000000000000000000000000000000000000000000000000000000000000000000000000000000000000000000000000000000000000000000000000000000000000000000000000000000000000000000000000000000000000000000000000000000000000000000000000000000000000000000000000000000000000000000000000000000000000000000000000000000000000000000000000000000000000000000000000000000000000000000000000000000000000000000000000000000000000000000000000000000000000000000000000000000000000000000000000000000000000000000000000000000000000000000000000080808401c9c380808000a000000000000000000000000000000000000000000000000000000000000000008800000000000000000ba056e81f171bcc55a6ff8345e692c0f86e5b48e01b996cadc001622fb5e363b4218080a00000000000000000000000000000000000000000000000000000000000000000c0c0c0",
        "blocks": [
            {
                "blockHeader": {
                    "parentHash": "0x2ee77c016a5050216fa8ddbce5dafe0864149b9edc5e402ea4c7cdb34a700ff0",
                    "uncleHash": "0x1dcc4de8dec75d7aab85b567b6ccd41ad312451b948a7413f0a142fd40d49347",
                    "coinbase": "0x2adc25665018aa1fe0e6bc666dac8fc2697ff9ba",
                    "stateRoot": "0x1f5a692493605ee9643146c81acce945a60d8dd36b9b0e2d79b9da799344bea3",
                    "transactionsTrie": "0x978a235d228b94819de6f75cc963c3873ba7fb4187cb5f9f454e1739d3d029ce",
                    "receiptTrie": "0xd88e7846369c3e202e645f09af4727a983c33416333df1e4f099436becf4f4f3",
                    "bloom": "0x00000000000000000000000000000000000000000000000000000000000000000000000000000000000000000000000000000000000000000000000000000000000000000000000000000000000000000000000000000000000000000000000000000000000000000000000000000000000000000000000000000000000000000000000000000000000000000000000000000000000000000000000000000000000000000000000000000000000000000000000000000000000000000000000000000000000000000000000000000000000000000000000000000000000000000000000000000000000000000000000000000000000000000000000000000000",
                    "difficulty": "0x00",
                    "number": "0x01",
                    "gasLimit": "0x01c9c380",
                    "gasUsed": "0x04b14d",
                    "timestamp": "0x03e8",
                    "extraData": "0x00",
                    "mixHash": "0x0000000000000000000000000000000000000000000000000000000000020000",
                    "nonce": "0x0000000000000000",
                    "baseFeePerGas": "0x0a",
                    "withdrawalsRoot": "0x56e81f171bcc55a6ff8345e692c0f86e5b48e01b996cadc001622fb5e363b421",
                    "blobGasUsed": "0x00",
                    "excessBlobGas": "0x00",
                    "parentBeaconBlockRoot": "0x0000000000000000000000000000000000000000000000000000000000000000",
                    "hash": "0x7650a1e6b8cbf79c1cfd40656cf2ad490f74d251b99b297595bece40fa2e2adb"
                },
                "transactions": [
                    {
                        "type": "0x00",
                        "chainId": "0x01",
                        "nonce": "0x00",
                        "gasPrice": "0x0a",
                        "gasLimit": "0x2dc6c0",
                        "to": "0xcd4b8b20abc112232f8cc43b9867375b85f93bd9",
                        "value": "0x00",
                        "data": "0x",
                        "v": "0x26",
                        "r": "0x6e198141f0a11cfcf5d194465ae2794f8dddcb425a8bc5fe8dddb9fae0d87359",
                        "s": "0x73a8e7a1a84f12f81445f66f687ac19ef190a17cc1c7e6bd473d165f02cdea68",
                        "sender": "0xd66f224cbd2fabb21b17bb53c56118f32f62ebd6"
                    }
                ],
                "uncleHeaders": [],
                "withdrawals": [],
                "receipts": [
                    {
                        "transactionHash": "0xd52d191eea8e9ef3a4218c1e403dcad85209211e87121fd273868ce2d9c93496",
                        "type": "0x00",
                        "cumulativeGasUsed": "0x04b14d",
                        "bloom": "0x00000000000000000000000000000000000000000000000000000000000000000000000000000000000000000000000000000000000000000000000000000000000000000000000000000000000000000000000000000000000000000000000000000000000000000000000000000000000000000000000000000000000000000000000000000000000000000000000000000000000000000000000000000000000000000000000000000000000000000000000000000000000000000000000000000000000000000000000000000000000000000000000000000000000000000000000000000000000000000000000000000000000000000000000000000000",
                        "logs": [],
                        "status": true,
                        "rlp": "0xf90109018304b14db9010000000000000000000000000000000000000000000000000000000000000000000000000000000000000000000000000000000000000000000000000000000000000000000000000000000000000000000000000000000000000000000000000000000000000000000000000000000000000000000000000000000000000000000000000000000000000000000000000000000000000000000000000000000000000000000000000000000000000000000000000000000000000000000000000000000000000000000000000000000000000000000000000000000000000000000000000000000000000000000000000000000000000000000000000000000000c0"
                    }
                ],
                "rlp": "0xf902a4f9023ba02ee77c016a5050216fa8ddbce5dafe0864149b9edc5e402ea4c7cdb34a700ff0a01dcc4de8dec75d7aab85b567b6ccd41ad312451b948a7413f0a142fd40d49347942adc25665018aa1fe0e6bc666dac8fc2697ff9baa01f5a692493605ee9643146c81acce945a60d8dd36b9b0e2d79b9da799344bea3a0978a235d228b94819de6f75cc963c3873ba7fb4187cb5f9f454e1739d3d029cea0d88e7846369c3e202e645f09af4727a983c33416333df1e4f099436becf4f4f3b901000000000000000000000000000000000000000000000000000000000000000000000000000000000000000000000000000000000000000000000000000000000000000000000000000000000000000000000000000000000000000000000000000000000000000000000000000000000000000000000000000000000000000000000000000000000000000000000000000000000000000000000000000000000000000000000000000000000000000000000000000000000000000000000000000000000000000000000000000000000000000000000000000000000000000000000000000000000000000000000000000000000000000000000000000000000080018401c9c3808304b14d8203e800a000000000000000000000000000000000000000000000000000000000000200008800000000000000000aa056e81f171bcc55a6ff8345e692c0f86e5b48e01b996cadc001622fb5e363b4218080a00000000000000000000000000000000000000000000000000000000000000000f862f860800a832dc6c094cd4b8b20abc112232f8cc43b9867375b85f93bd9808026a06e198141f0a11cfcf5d194465ae2794f8dddcb425a8bc5fe8dddb9fae0d87359a073a8e7a1a84f12f81445f66f687ac19ef190a17cc1c7e6bd473d165f02cdea68c0c0",
                "blocknumber": "1"
            }
        ],
        "sealEngine": "NoProof",
        "_info": {
            "hash": "0x6985b1af99695fd35a4db27c4f595a6cd472eaf3cf65c1a7d8b0f5237b2076be",
            "fixture-format": "blockchain_test",
            "comment": "`execution-specs` generated test",
            "filling-transition-tool": "2.19.0",
            "description": "Test_callcallcodecall_010.",
            "url": "https://github.com/ethereum/execution-specs/blob/tests-snobal-devnet-5@v8037.0.0/tests/ported_static/stCallDelegateCodesHomestead/test_callcallcodecall_010.py#L24",
            "metadata": {
                "opcode_count": {}
            }
        }
    }
}