{
    "tests/istanbul/eip152_blake2/test_blake2_delegatecall.py::test_blake2_precompile_delegatecall[fork_Berlin-blockchain_test_from_state_test]": {
        "network": "Berlin",
        "genesisBlockHeader": {
            "parentHash": "0x0000000000000000000000000000000000000000000000000000000000000000",
            "uncleHash": "0x1dcc4de8dec75d7aab85b567b6ccd41ad312451b948a7413f0a142fd40d49347",
            "coinbase": "0x0000000000000000000000000000000000000000",
            "stateRoot": "0x04e57a30c4b3ec936eed6e594e9b42f4ca88caa6dfea2278772b24a95afd388a",
            "transactionsTrie": "0x56e81f171bcc55a6ff8345e692c0f86e5b48e01b996cadc001622fb5e363b421",
            "receiptTrie": "0x56e81f171bcc55a6ff8345e692c0f86e5b48e01b996cadc001622fb5e363b421",
            "bloom": "0x00000000000000000000000000000000000000000000000000000000000000000000000000000000000000000000000000000000000000000000000000000000000000000000000000000000000000000000000000000000000000000000000000000000000000000000000000000000000000000000000000000000000000000000000000000000000000000000000000000000000000000000000000000000000000000000000000000000000000000000000000000000000000000000000000000000000000000000000000000000000000000000000000000000000000000000000000000000000000000000000000000000000000000000000000000000",
            "difficulty": "0x020000",
            "number": "0x00",
            "gasLimit": "0x07270e00",
            "gasUsed": "0x00",
            "timestamp": "0x00",
            "extraData": "0x00",
            "mixHash": "0x0000000000000000000000000000000000000000000000000000000000000000",
            "nonce": "0x0000000000000000",
            "hash": "0xa4ae24e5a9043a8f188eeff246cf70ddc5e9c5cba5686d4e7410a08d8ad9ffd6"
        },
        "pre": {
            "0x0ec7060f15cc118846b4d2bbd51c332a22a8e3af": {
                "nonce": "0x01",
                "balance": "0x00",
                "code": "0x600060006000600060096001f460005500",
                "storage": {
                    "0x00": "0xdeadbeef"
                }
            },
            "0x1ad9bc24818784172ff393bb6f89f094d4d2ca29": {
                "nonce": "0x00",
                "balance": "0x3635c9adc5dea00000",
                "code": "0x",
                "storage": {}
            }
        },
        "postState": {
            "0x0ec7060f15cc118846b4d2bbd51c332a22a8e3af": {
                "nonce": "0x01",
                "balance": "0x00",
                "code": "0x600060006000600060096001f460005500",
                "storage": {}
            },
            "0x1ad9bc24818784172ff393bb6f89f094d4d2ca29": {
                "nonce": "0x01",
                "balance": "0x3635c9adc5de9e01ce",
                "code": "0x",
                "storage": {}
            },
            "0x2adc25665018aa1fe0e6bc666dac8fc2697ff9ba": {
                "nonce": "0x00",
                "balance": "0x1bc16d674ec9fe32",
                "code": "0x",
                "storage": {}
            }
        },
        "lastblockhash": "0x386c744b95a06579c2b7e34f0b60defd2f9bfd82654087dd605858db64d2e05c",
        "config": {
            "network": "Berlin",
            "chainid": "0x01"
        },
        "genesisRLP": "0xf901f9f901f4a00000000000000000000000000000000000000000000000000000000000000000a01dcc4de8dec75d7aab85b567b6ccd41ad312451b948a7413f0a142fd40d49347940000000000000000000000000000000000000000a004e57a30c4b3ec936eed6e594e9b42f4ca88caa6dfea2278772b24a95afd388aa056e81f171bcc55a6ff8345e692c0f86e5b48e01b996cadc001622fb5e363b421a056e81f171bcc55a6ff8345e692c0f86e5b48e01b996cadc001622fb5e363b421b901000000000000000000000000000000000000000000000000000000000000000000000000000000000000000000000000000000000000000000000000000000000000000000000000000000000000000000000000000000000000000000000000000000000000000000000000000000000000000000000000000000000000000000000000000000000000000000000000000000000000000000000000000000000000000000000000000000000000000000000000000000000000000000000000000000000000000000000000000000000000000000000000000000000000000000000000000000000000000000000000000000000000000000000000000000000083020000808407270e00808000a00000000000000000000000000000000000000000000000000000000000000000880000000000000000c0c0",
        "blocks": [
            {
                "blockHeader": {
                    "parentHash": "0xa4ae24e5a9043a8f188eeff246cf70ddc5e9c5cba5686d4e7410a08d8ad9ffd6",
                    "uncleHash": "0x1dcc4de8dec75d7aab85b567b6ccd41ad312451b948a7413f0a142fd40d49347",
                    "coinbase": "0x2adc25665018aa1fe0e6bc666dac8fc2697ff9ba",
                    "stateRoot": "0xca7f480d2f12155e6b8da2a4bed0a8837746ed2f9e804f7329f2345422d89118",
                    "transactionsTrie": "0xf3d5e9d8add98e3a19a99aeeb40580c4eeb3aa45c93d3a85d924c119f4aac568",
                    "receiptTrie": "0x160f5ecb3aceecfeb66706392e2d777386b721b5419c4c0ebd0a09cb587e71ec",
                    "bloom": "0x00000000000000000000000000000000000000000000000000000000000000000000000000000000000000000000000000000000000000000000000000000000000000000000000000000000000000000000000000000000000000000000000000000000000000000000000000000000000000000000000000000000000000000000000000000000000000000000000000000000000000000000000000000000000000000000000000000000000000000000000000000000000000000000000000000000000000000000000000000000000000000000000000000000000000000000000000000000000000000000000000000000000000000000000000000000",
                    "difficulty": "0x020000",
                    "number": "0x01",
                    "gasLimit": "0x07270e00",
                    "gasUsed": "0x3305",
                    "timestamp": "0x03e8",
                    "extraData": "0x00",
                    "mixHash": "0x0000000000000000000000000000000000000000000000000000000000000000",
                    "nonce": "0x0000000000000000",
                    "hash": "0x386c744b95a06579c2b7e34f0b60defd2f9bfd82654087dd605858db64d2e05c"
                },
                "transactions": [
                    {
                        "type": "0x00",
                        "chainId": "0x01",
                        "nonce": "0x00",
                        "gasPrice": "0x0a",
                        "gasLimit": "0x015f90",
                        "to": "0x0ec7060f15cc118846b4d2bbd51c332a22a8e3af",
                        "value": "0x00",
                        "data": "0x",
                        "v": "0x26",
                        "r": "0xfbb3bf7cd2caf86a8443a68661ec9a493c78bf45e11bb579dff96e2612bb3bc4",
                        "s": "0x501e91c70b46d36bb8cc8bb2b49cb9c2a64a9a0587a4697358c8af400553754d",
                        "sender": "0x1ad9bc24818784172ff393bb6f89f094d4d2ca29"
                    }
                ],
                "uncleHeaders": [],
                "receipts": [
                    {
                        "transactionHash": "0xccc2e9eb15162c20816b72866e13db7e48317e08117bacdfa9d341c10b900445",
                        "type": "0x00",
                        "cumulativeGasUsed": "0x3305",
                        "bloom": "0x00000000000000000000000000000000000000000000000000000000000000000000000000000000000000000000000000000000000000000000000000000000000000000000000000000000000000000000000000000000000000000000000000000000000000000000000000000000000000000000000000000000000000000000000000000000000000000000000000000000000000000000000000000000000000000000000000000000000000000000000000000000000000000000000000000000000000000000000000000000000000000000000000000000000000000000000000000000000000000000000000000000000000000000000000000000",
                        "logs": [],
                        "status": true,
                        "rlp": "0xf9010801823305b9010000000000000000000000000000000000000000000000000000000000000000000000000000000000000000000000000000000000000000000000000000000000000000000000000000000000000000000000000000000000000000000000000000000000000000000000000000000000000000000000000000000000000000000000000000000000000000000000000000000000000000000000000000000000000000000000000000000000000000000000000000000000000000000000000000000000000000000000000000000000000000000000000000000000000000000000000000000000000000000000000000000000000000000000000000000000c0"
                    }
                ],
                "rlp": "0xf90260f901f8a0a4ae24e5a9043a8f188eeff246cf70ddc5e9c5cba5686d4e7410a08d8ad9ffd6a01dcc4de8dec75d7aab85b567b6ccd41ad312451b948a7413f0a142fd40d49347942adc25665018aa1fe0e6bc666dac8fc2697ff9baa0ca7f480d2f12155e6b8da2a4bed0a8837746ed2f9e804f7329f2345422d89118a0f3d5e9d8add98e3a19a99aeeb40580c4eeb3aa45c93d3a85d924c119f4aac568a0160f5ecb3aceecfeb66706392e2d777386b721b5419c4c0ebd0a09cb587e71ecb901000000000000000000000000000000000000000000000000000000000000000000000000000000000000000000000000000000000000000000000000000000000000000000000000000000000000000000000000000000000000000000000000000000000000000000000000000000000000000000000000000000000000000000000000000000000000000000000000000000000000000000000000000000000000000000000000000000000000000000000000000000000000000000000000000000000000000000000000000000000000000000000000000000000000000000000000000000000000000000000000000000000000000000000000000000000083020000018407270e008233058203e800a00000000000000000000000000000000000000000000000000000000000000000880000000000000000f862f860800a83015f90940ec7060f15cc118846b4d2bbd51c332a22a8e3af808026a0fbb3bf7cd2caf86a8443a68661ec9a493c78bf45e11bb579dff96e2612bb3bc4a0501e91c70b46d36bb8cc8bb2b49cb9c2a64a9a0587a4697358c8af400553754dc0",
                "blocknumber": "1"
            }
        ],
        "sealEngine": "NoProof",
        "_info": {
            "hash": "0xc2a6328efcc66a51d04b1371dae2f571539cb3fa61cf10115e85c2ef378f6259",
            "fixture-format": "blockchain_test",
            "comment": "`execution-specs` generated test",
            "filling-transition-tool": "2.19.0",
            "description": "Test delegatecall consumes specified gas for the Blake2B precompile when it\nexists.",
            "url": "https://github.com/ethereum/execution-specs/blob/tests-bal@v5.3.0/tests/istanbul/eip152_blake2/test_blake2_delegatecall.py#L23",
            "opcode_count": {},
            "reference-spec": "https://github.com/ethereum/EIPs/blob/master/EIPS/eip-152.md",
            "reference-spec-version": "2762bfcff3e549ef263342e5239ef03ac2b07400"
        }
    }
}