{
    "tests/ported_static/stStaticCall/test_static_callcallcodecall_010.py::test_static_callcallcodecall_010[fork_Cancun-blockchain_test_from_state_test]": {
        "network": "Cancun",
        "genesisBlockHeader": {
            "parentHash": "0x0000000000000000000000000000000000000000000000000000000000000000",
            "uncleHash": "0x1dcc4de8dec75d7aab85b567b6ccd41ad312451b948a7413f0a142fd40d49347",
            "coinbase": "0x0000000000000000000000000000000000000000",
            "stateRoot": "0xe079cea52da8a0ec1cd1da436d30361760a0939e43544336bcd290b71fce34b6",
            "transactionsTrie": "0x56e81f171bcc55a6ff8345e692c0f86e5b48e01b996cadc001622fb5e363b421",
            "receiptTrie": "0x56e81f171bcc55a6ff8345e692c0f86e5b48e01b996cadc001622fb5e363b421",
            "bloom": "0x00000000000000000000000000000000000000000000000000000000000000000000000000000000000000000000000000000000000000000000000000000000000000000000000000000000000000000000000000000000000000000000000000000000000000000000000000000000000000000000000000000000000000000000000000000000000000000000000000000000000000000000000000000000000000000000000000000000000000000000000000000000000000000000000000000000000000000000000000000000000000000000000000000000000000000000000000000000000000000000000000000000000000000000000000000000",
            "difficulty": "0x00",
            "number": "0x00",
            "gasLimit": "0x01c9c380",
            "gasUsed": "0x00",
            "timestamp": "0x00",
            "extraData": "0x00",
            "mixHash": "0x0000000000000000000000000000000000000000000000000000000000000000",
            "nonce": "0x0000000000000000",
            "baseFeePerGas": "0x0b",
            "withdrawalsRoot": "0x56e81f171bcc55a6ff8345e692c0f86e5b48e01b996cadc001622fb5e363b421",
            "blobGasUsed": "0x00",
            "excessBlobGas": "0x00",
            "parentBeaconBlockRoot": "0x0000000000000000000000000000000000000000000000000000000000000000",
            "hash": "0x03698189586895d342bcd377cc2dd9c5936ac9becc443f1a16308e83edfda39b"
        },
        "pre": {
            "0x000f3df6d732807ef1319fb7b8bb8522d0beac02": {
                "nonce": "0x01",
                "balance": "0x00",
                "code": "0x3373fffffffffffffffffffffffffffffffffffffffe14604d57602036146024575f5ffd5b5f35801560495762001fff810690815414603c575f5ffd5b62001fff01545f5260205ff35b5f5ffd5b62001fff42064281555f359062001fff015500",
                "storage": {}
            },
            "0x46df4a924470cb27a2f8700239656c40dd4794c8": {
                "nonce": "0x00",
                "balance": "0x0de0b6b3a7640000",
                "code": "0x6040600060406000738bd89f495b3f37357d15a16d7b0f72470abe929f62055730fa600055600160015500",
                "storage": {}
            },
            "0x8bd89f495b3f37357d15a16d7b0f72470abe929f": {
                "nonce": "0x00",
                "balance": "0x0de0b6b3a7640000",
                "code": "0x60016003526040600060406000735aaef6827794656b94367d6130f40d34b219f1fd620493e0f450600160035200",
                "storage": {}
            },
            "0x5aaef6827794656b94367d6130f40d34b219f1fd": {
                "nonce": "0x00",
                "balance": "0x0de0b6b3a7640000",
                "code": "0x60016003526040600060406000732a142c79a9b097c111ce945214226126b75e332c6203d090fa50600160035200",
                "storage": {}
            },
            "0x2a142c79a9b097c111ce945214226126b75e332c": {
                "nonce": "0x00",
                "balance": "0x00",
                "code": "0x600160015200",
                "storage": {}
            },
            "0xebaf50debf10e08302fe4280c32df010463ca297": {
                "nonce": "0x00",
                "balance": "0x0de0b6b3a7640000",
                "code": "0x",
                "storage": {}
            }
        },
        "postState": {
            "0x000f3df6d732807ef1319fb7b8bb8522d0beac02": {
                "nonce": "0x01",
                "balance": "0x00",
                "code": "0x3373fffffffffffffffffffffffffffffffffffffffe14604d57602036146024575f5ffd5b5f35801560495762001fff810690815414603c575f5ffd5b62001fff01545f5260205ff35b5f5ffd5b62001fff42064281555f359062001fff015500",
                "storage": {
                    "0x03e8": "0x03e8"
                }
            },
            "0x46df4a924470cb27a2f8700239656c40dd4794c8": {
                "nonce": "0x00",
                "balance": "0x0de0b6b3a7640000",
                "code": "0x6040600060406000738bd89f495b3f37357d15a16d7b0f72470abe929f62055730fa600055600160015500",
                "storage": {
                    "0x00": "0x01",
                    "0x01": "0x01"
                }
            },
            "0x8bd89f495b3f37357d15a16d7b0f72470abe929f": {
                "nonce": "0x00",
                "balance": "0x0de0b6b3a7640000",
                "code": "0x60016003526040600060406000735aaef6827794656b94367d6130f40d34b219f1fd620493e0f450600160035200",
                "storage": {}
            },
            "0x5aaef6827794656b94367d6130f40d34b219f1fd": {
                "nonce": "0x00",
                "balance": "0x0de0b6b3a7640000",
                "code": "0x60016003526040600060406000732a142c79a9b097c111ce945214226126b75e332c6203d090fa50600160035200",
                "storage": {}
            },
            "0x2a142c79a9b097c111ce945214226126b75e332c": {
                "nonce": "0x00",
                "balance": "0x00",
                "code": "0x600160015200",
                "storage": {}
            },
            "0xebaf50debf10e08302fe4280c32df010463ca297": {
                "nonce": "0x01",
                "balance": "0x0de0b6b3a758d720",
                "code": "0x",
                "storage": {}
            }
        },
        "lastblockhash": "0x49046b03f9d6b54dd0064697ef981590e91a21328d0e7514df7f6adf8d29f24f",
        "config": {
            "network": "Cancun",
            "chainid": "0x01",
            "blobSchedule": {
                "Cancun": {
                    "target": "0x03",
                    "max": "0x06",
                    "baseFeeUpdateFraction": "0x32f0ed"
                }
            }
        },
        "genesisRLP": "0xf9023cf90236a00000000000000000000000000000000000000000000000000000000000000000a01dcc4de8dec75d7aab85b567b6ccd41ad312451b948a7413f0a142fd40d49347940000000000000000000000000000000000000000a0e079cea52da8a0ec1cd1da436d30361760a0939e43544336bcd290b71fce34b6a056e81f171bcc55a6ff8345e692c0f86e5b48e01b996cadc001622fb5e363b421a056e81f171bcc55a6ff8345e692c0f86e5b48e01b996cadc001622fb5e363b421b901000000000000000000000000000000000000000000000000000000000000000000000000000000000000000000000000000000000000000000000000000000000000000000000000000000000000000000000000000000000000000000000000000000000000000000000000000000000000000000000000000000000000000000000000000000000000000000000000000000000000000000000000000000000000000000000000000000000000000000000000000000000000000000000000000000000000000000000000000000000000000000000000000000000000000000000000000000000000000000000000000000000000000000000000000000000080808401c9c380808000a000000000000000000000000000000000000000000000000000000000000000008800000000000000000ba056e81f171bcc55a6ff8345e692c0f86e5b48e01b996cadc001622fb5e363b4218080a00000000000000000000000000000000000000000000000000000000000000000c0c0c0",
        "blocks": [
            {
                "blockHeader": {
                    "parentHash": "0x03698189586895d342bcd377cc2dd9c5936ac9becc443f1a16308e83edfda39b",
                    "uncleHash": "0x1dcc4de8dec75d7aab85b567b6ccd41ad312451b948a7413f0a142fd40d49347",
                    "coinbase": "0x2adc25665018aa1fe0e6bc666dac8fc2697ff9ba",
                    "stateRoot": "0xdf1d023e761486733b08e8f7e48f52611456879f341a0e4fd2573bb41b2f7d71",
                    "transactionsTrie": "0x3d05166fbe01b5fbe4aee90893c683993b94633536339c40838923c03c11cc90",
                    "receiptTrie": "0x6dfad24f94b10b1f8ddc444e23b3be47e085c37d7ad260dc7472fb437f1fbc6e",
                    "bloom": "0x00000000000000000000000000000000000000000000000000000000000000000000000000000000000000000000000000000000000000000000000000000000000000000000000000000000000000000000000000000000000000000000000000000000000000000000000000000000000000000000000000000000000000000000000000000000000000000000000000000000000000000000000000000000000000000000000000000000000000000000000000000000000000000000000000000000000000000000000000000000000000000000000000000000000000000000000000000000000000000000000000000000000000000000000000000000",
                    "difficulty": "0x00",
                    "number": "0x01",
                    "gasLimit": "0x01c9c380",
                    "gasUsed": "0x011db0",
                    "timestamp": "0x03e8",
                    "extraData": "0x00",
                    "mixHash": "0x0000000000000000000000000000000000000000000000000000000000020000",
                    "nonce": "0x0000000000000000",
                    "baseFeePerGas": "0x0a",
                    "withdrawalsRoot": "0x56e81f171bcc55a6ff8345e692c0f86e5b48e01b996cadc001622fb5e363b421",
                    "blobGasUsed": "0x00",
                    "excessBlobGas": "0x00",
                    "parentBeaconBlockRoot": "0x0000000000000000000000000000000000000000000000000000000000000000",
                    "hash": "0x49046b03f9d6b54dd0064697ef981590e91a21328d0e7514df7f6adf8d29f24f"
                },
                "transactions": [
                    {
                        "type": "0x00",
                        "chainId": "0x01",
                        "nonce": "0x00",
                        "gasPrice": "0x0a",
                        "gasLimit": "0x2dc6c0",
                        "to": "0x46df4a924470cb27a2f8700239656c40dd4794c8",
                        "value": "0x00",
                        "data": "0x",
                        "v": "0x26",
                        "r": "0x069eca458958a023110e43657335c3e50baa99750e66500b573b3350424b77f5",
                        "s": "0x2085841b73e36e9b239823a11bff3dcf0940d561759b61297c07163bae0f12bd",
                        "sender": "0xebaf50debf10e08302fe4280c32df010463ca297"
                    }
                ],
                "uncleHeaders": [],
                "withdrawals": [],
                "receipts": [
                    {
                        "transactionHash": "0xdeac8a6af6e50dfd9ffe610179eacd4c2a2133d0a24bfd8371a1e68996103da4",
                        "type": "0x00",
                        "cumulativeGasUsed": "0x011db0",
                        "bloom": "0x00000000000000000000000000000000000000000000000000000000000000000000000000000000000000000000000000000000000000000000000000000000000000000000000000000000000000000000000000000000000000000000000000000000000000000000000000000000000000000000000000000000000000000000000000000000000000000000000000000000000000000000000000000000000000000000000000000000000000000000000000000000000000000000000000000000000000000000000000000000000000000000000000000000000000000000000000000000000000000000000000000000000000000000000000000000",
                        "logs": [],
                        "status": true,
                        "rlp": "0xf901090183011db0b9010000000000000000000000000000000000000000000000000000000000000000000000000000000000000000000000000000000000000000000000000000000000000000000000000000000000000000000000000000000000000000000000000000000000000000000000000000000000000000000000000000000000000000000000000000000000000000000000000000000000000000000000000000000000000000000000000000000000000000000000000000000000000000000000000000000000000000000000000000000000000000000000000000000000000000000000000000000000000000000000000000000000000000000000000000000000c0"
                    }
                ],
                "rlp": "0xf902a4f9023ba003698189586895d342bcd377cc2dd9c5936ac9becc443f1a16308e83edfda39ba01dcc4de8dec75d7aab85b567b6ccd41ad312451b948a7413f0a142fd40d49347942adc25665018aa1fe0e6bc666dac8fc2697ff9baa0df1d023e761486733b08e8f7e48f52611456879f341a0e4fd2573bb41b2f7d71a03d05166fbe01b5fbe4aee90893c683993b94633536339c40838923c03c11cc90a06dfad24f94b10b1f8ddc444e23b3be47e085c37d7ad260dc7472fb437f1fbc6eb901000000000000000000000000000000000000000000000000000000000000000000000000000000000000000000000000000000000000000000000000000000000000000000000000000000000000000000000000000000000000000000000000000000000000000000000000000000000000000000000000000000000000000000000000000000000000000000000000000000000000000000000000000000000000000000000000000000000000000000000000000000000000000000000000000000000000000000000000000000000000000000000000000000000000000000000000000000000000000000000000000000000000000000000000000000000080018401c9c38083011db08203e800a000000000000000000000000000000000000000000000000000000000000200008800000000000000000aa056e81f171bcc55a6ff8345e692c0f86e5b48e01b996cadc001622fb5e363b4218080a00000000000000000000000000000000000000000000000000000000000000000f862f860800a832dc6c09446df4a924470cb27a2f8700239656c40dd4794c8808026a0069eca458958a023110e43657335c3e50baa99750e66500b573b3350424b77f5a02085841b73e36e9b239823a11bff3dcf0940d561759b61297c07163bae0f12bdc0c0",
                "blocknumber": "1"
            }
        ],
        "sealEngine": "NoProof",
        "_info": {
            "hash": "0xf5fc49e67adb22c8c0c8a406677e150137fa2c77cdfadc4b3db37e2faf7a9033",
            "fixture-format": "blockchain_test",
            "comment": "`execution-specs` generated test",
            "filling-transition-tool": "2.19.0",
            "description": "Test_static_callcallcodecall_010.",
            "url": "https://github.com/ethereum/execution-specs/blob/tests-bal@v5.6.1/tests/ported_static/stStaticCall/test_static_callcallcodecall_010.py#L25",
            "metadata": {
                "opcode_count": {}
            }
        }
    }
}