{
    "tests/london/eip1559_fee_market_change/test_tx_type.py::test_eip1559_tx_validity[fork_London-valid-blockchain_test_from_state_test]": {
        "network": "London",
        "genesisBlockHeader": {
            "parentHash": "0x0000000000000000000000000000000000000000000000000000000000000000",
            "uncleHash": "0x1dcc4de8dec75d7aab85b567b6ccd41ad312451b948a7413f0a142fd40d49347",
            "coinbase": "0x0000000000000000000000000000000000000000",
            "stateRoot": "0x43c19943b2c4a638fe07dbc954c1422032ea7c5e17d0d659f25a5324ed75f0be",
            "transactionsTrie": "0x56e81f171bcc55a6ff8345e692c0f86e5b48e01b996cadc001622fb5e363b421",
            "receiptTrie": "0x56e81f171bcc55a6ff8345e692c0f86e5b48e01b996cadc001622fb5e363b421",
            "bloom": "0x00000000000000000000000000000000000000000000000000000000000000000000000000000000000000000000000000000000000000000000000000000000000000000000000000000000000000000000000000000000000000000000000000000000000000000000000000000000000000000000000000000000000000000000000000000000000000000000000000000000000000000000000000000000000000000000000000000000000000000000000000000000000000000000000000000000000000000000000000000000000000000000000000000000000000000000000000000000000000000000000000000000000000000000000000000000",
            "difficulty": "0x020000",
            "number": "0x00",
            "gasLimit": "0x07270e00",
            "gasUsed": "0x00",
            "timestamp": "0x00",
            "extraData": "0x00",
            "mixHash": "0x0000000000000000000000000000000000000000000000000000000000000000",
            "nonce": "0x0000000000000000",
            "baseFeePerGas": "0x07",
            "hash": "0x21756f7a484638e91dac12a671e724ab8625d41fdeaf4a3c85ea8faec0d5373b"
        },
        "pre": {
            "0x67eb8fcbef83a0662b030f8bc89a10070c167a66": {
                "nonce": "0x01",
                "balance": "0x00",
                "code": "0x6001600055",
                "storage": {
                    "0x00": "0xdeadbeef"
                }
            },
            "0x1ad9bc24818784172ff393bb6f89f094d4d2ca29": {
                "nonce": "0x00",
                "balance": "0x3635c9adc5dea00000",
                "code": "0x",
                "storage": {}
            }
        },
        "postState": {
            "0x67eb8fcbef83a0662b030f8bc89a10070c167a66": {
                "nonce": "0x01",
                "balance": "0x00",
                "code": "0x6001600055",
                "storage": {
                    "0x00": "0x01"
                }
            },
            "0x1ad9bc24818784172ff393bb6f89f094d4d2ca29": {
                "nonce": "0x01",
                "balance": "0x3635c9adc5de9d38e6",
                "code": "0x",
                "storage": {}
            },
            "0x2adc25665018aa1fe0e6bc666dac8fc2697ff9ba": {
                "nonce": "0x00",
                "balance": "0x1bc16d674ec80000",
                "code": "0x",
                "storage": {}
            }
        },
        "lastblockhash": "0x91d73b9e39868ae97836dc5a797b6fc4dbc624f96d58f6d2c39ce1a0943f9d8d",
        "config": {
            "network": "London",
            "chainid": "0x01"
        },
        "genesisRLP": "0xf901faf901f5a00000000000000000000000000000000000000000000000000000000000000000a01dcc4de8dec75d7aab85b567b6ccd41ad312451b948a7413f0a142fd40d49347940000000000000000000000000000000000000000a043c19943b2c4a638fe07dbc954c1422032ea7c5e17d0d659f25a5324ed75f0bea056e81f171bcc55a6ff8345e692c0f86e5b48e01b996cadc001622fb5e363b421a056e81f171bcc55a6ff8345e692c0f86e5b48e01b996cadc001622fb5e363b421b901000000000000000000000000000000000000000000000000000000000000000000000000000000000000000000000000000000000000000000000000000000000000000000000000000000000000000000000000000000000000000000000000000000000000000000000000000000000000000000000000000000000000000000000000000000000000000000000000000000000000000000000000000000000000000000000000000000000000000000000000000000000000000000000000000000000000000000000000000000000000000000000000000000000000000000000000000000000000000000000000000000000000000000000000000000000083020000808407270e00808000a0000000000000000000000000000000000000000000000000000000000000000088000000000000000007c0c0",
        "blocks": [
            {
                "blockHeader": {
                    "parentHash": "0x21756f7a484638e91dac12a671e724ab8625d41fdeaf4a3c85ea8faec0d5373b",
                    "uncleHash": "0x1dcc4de8dec75d7aab85b567b6ccd41ad312451b948a7413f0a142fd40d49347",
                    "coinbase": "0x2adc25665018aa1fe0e6bc666dac8fc2697ff9ba",
                    "stateRoot": "0x3e51ad235b8235617fb925801a521fb0cd9f85d2c84bd55f22add279d7fc3826",
                    "transactionsTrie": "0x543deaa0e1af5f13fc4e9bbcc859e625eab0b413f73a28e82c5f888359ed01bf",
                    "receiptTrie": "0x79a41645be99b35d7f469ce5736a1b6cf7b50ddc782d22af059e5d28110cc909",
                    "bloom": "0x00000000000000000000000000000000000000000000000000000000000000000000000000000000000000000000000000000000000000000000000000000000000000000000000000000000000000000000000000000000000000000000000000000000000000000000000000000000000000000000000000000000000000000000000000000000000000000000000000000000000000000000000000000000000000000000000000000000000000000000000000000000000000000000000000000000000000000000000000000000000000000000000000000000000000000000000000000000000000000000000000000000000000000000000000000000",
                    "difficulty": "0x020000",
                    "number": "0x01",
                    "gasLimit": "0x07270e00",
                    "gasUsed": "0x6596",
                    "timestamp": "0x03e8",
                    "extraData": "0x00",
                    "mixHash": "0x0000000000000000000000000000000000000000000000000000000000000000",
                    "nonce": "0x0000000000000000",
                    "baseFeePerGas": "0x07",
                    "hash": "0x91d73b9e39868ae97836dc5a797b6fc4dbc624f96d58f6d2c39ce1a0943f9d8d"
                },
                "transactions": [
                    {
                        "type": "0x02",
                        "chainId": "0x01",
                        "nonce": "0x00",
                        "maxPriorityFeePerGas": "0x01",
                        "maxFeePerGas": "0x07",
                        "gasLimit": "0x0186a0",
                        "to": "0x67eb8fcbef83a0662b030f8bc89a10070c167a66",
                        "value": "0x00",
                        "data": "0x",
                        "accessList": [],
                        "v": "0x01",
                        "r": "0x41db2b0c0ffbf08d4996a5f49c2d2ec2902302834732363138232b01c719e9d8",
                        "s": "0x4f3b8b593b7b3ad541f86c5005a0737d89c6d61577dfbba55cec6b9c183c4c8a",
                        "sender": "0x1ad9bc24818784172ff393bb6f89f094d4d2ca29"
                    }
                ],
                "uncleHeaders": [],
                "receipts": [
                    {
                        "transactionHash": "0x08e5b9e59a244424af75efd99d6ddcca14678c63f59dd711c4e17e814be6c1a1",
                        "type": "0x02",
                        "cumulativeGasUsed": "0x6596",
                        "bloom": "0x00000000000000000000000000000000000000000000000000000000000000000000000000000000000000000000000000000000000000000000000000000000000000000000000000000000000000000000000000000000000000000000000000000000000000000000000000000000000000000000000000000000000000000000000000000000000000000000000000000000000000000000000000000000000000000000000000000000000000000000000000000000000000000000000000000000000000000000000000000000000000000000000000000000000000000000000000000000000000000000000000000000000000000000000000000000",
                        "logs": [],
                        "status": true,
                        "rlp": "0x02f9010801826596b9010000000000000000000000000000000000000000000000000000000000000000000000000000000000000000000000000000000000000000000000000000000000000000000000000000000000000000000000000000000000000000000000000000000000000000000000000000000000000000000000000000000000000000000000000000000000000000000000000000000000000000000000000000000000000000000000000000000000000000000000000000000000000000000000000000000000000000000000000000000000000000000000000000000000000000000000000000000000000000000000000000000000000000000000000000000000c0"
                    }
                ],
                "rlp": "0xf90267f901f9a021756f7a484638e91dac12a671e724ab8625d41fdeaf4a3c85ea8faec0d5373ba01dcc4de8dec75d7aab85b567b6ccd41ad312451b948a7413f0a142fd40d49347942adc25665018aa1fe0e6bc666dac8fc2697ff9baa03e51ad235b8235617fb925801a521fb0cd9f85d2c84bd55f22add279d7fc3826a0543deaa0e1af5f13fc4e9bbcc859e625eab0b413f73a28e82c5f888359ed01bfa079a41645be99b35d7f469ce5736a1b6cf7b50ddc782d22af059e5d28110cc909b901000000000000000000000000000000000000000000000000000000000000000000000000000000000000000000000000000000000000000000000000000000000000000000000000000000000000000000000000000000000000000000000000000000000000000000000000000000000000000000000000000000000000000000000000000000000000000000000000000000000000000000000000000000000000000000000000000000000000000000000000000000000000000000000000000000000000000000000000000000000000000000000000000000000000000000000000000000000000000000000000000000000000000000000000000000000083020000018407270e008265968203e800a0000000000000000000000000000000000000000000000000000000000000000088000000000000000007f868b86602f86301800107830186a09467eb8fcbef83a0662b030f8bc89a10070c167a668080c001a041db2b0c0ffbf08d4996a5f49c2d2ec2902302834732363138232b01c719e9d8a04f3b8b593b7b3ad541f86c5005a0737d89c6d61577dfbba55cec6b9c183c4c8ac0",
                "blocknumber": "1"
            }
        ],
        "sealEngine": "NoProof",
        "_info": {
            "hash": "0x55ae5f7eb2f34e4431c6165cdb214f107bbbcffe0447d90bfafe20cbda297c1c",
            "fixture-format": "blockchain_test",
            "comment": "`execution-specs` generated test",
            "filling-transition-tool": "2.19.0",
            "description": "Tests that an EIP-1559 tx has no effect before London.",
            "url": "https://github.com/ethereum/execution-specs/blob/tests-snobal-devnet-5@v8037.0.0/tests/london/eip1559_fee_market_change/test_tx_type.py#L37",
            "metadata": {
                "opcode_count": {}
            },
            "reference-spec": "https://github.com/ethereum/EIPs/blob/master/EIPS/eip-1559.md",
            "reference-spec-version": "ba6c342c23164072adb500c3136e3ae6eabff306"
        }
    }
}