{
    "tests/ported_static/stRandom2/test_random_statetest389.py::test_random_statetest389[fork_Cancun-blockchain_test_from_state_test]": {
        "network": "Cancun",
        "genesisBlockHeader": {
            "parentHash": "0x0000000000000000000000000000000000000000000000000000000000000000",
            "uncleHash": "0x1dcc4de8dec75d7aab85b567b6ccd41ad312451b948a7413f0a142fd40d49347",
            "coinbase": "0x0000000000000000000000000000000000000000",
            "stateRoot": "0x5a5795ef13b1f15237a36b6c82f2d4f066084df366e577524ea0e85faf0c0cbd",
            "transactionsTrie": "0x56e81f171bcc55a6ff8345e692c0f86e5b48e01b996cadc001622fb5e363b421",
            "receiptTrie": "0x56e81f171bcc55a6ff8345e692c0f86e5b48e01b996cadc001622fb5e363b421",
            "bloom": "0x00000000000000000000000000000000000000000000000000000000000000000000000000000000000000000000000000000000000000000000000000000000000000000000000000000000000000000000000000000000000000000000000000000000000000000000000000000000000000000000000000000000000000000000000000000000000000000000000000000000000000000000000000000000000000000000000000000000000000000000000000000000000000000000000000000000000000000000000000000000000000000000000000000000000000000000000000000000000000000000000000000000000000000000000000000000",
            "difficulty": "0x00",
            "number": "0x00",
            "gasLimit": "0x07270e00",
            "gasUsed": "0x00",
            "timestamp": "0x00",
            "extraData": "0x00",
            "mixHash": "0x0000000000000000000000000000000000000000000000000000000000000000",
            "nonce": "0x0000000000000000",
            "baseFeePerGas": "0x0b",
            "withdrawalsRoot": "0x56e81f171bcc55a6ff8345e692c0f86e5b48e01b996cadc001622fb5e363b421",
            "blobGasUsed": "0x00",
            "excessBlobGas": "0x00",
            "parentBeaconBlockRoot": "0x0000000000000000000000000000000000000000000000000000000000000000",
            "hash": "0x330fb413c38304a20b8555bf3353d5a1aeadb44f4fffd1f9dd0765a8a8742d9c"
        },
        "pre": {
            "0x000f3df6d732807ef1319fb7b8bb8522d0beac02": {
                "nonce": "0x01",
                "balance": "0x00",
                "code": "0x3373fffffffffffffffffffffffffffffffffffffffe14604d57602036146024575f5ffd5b5f35801560495762001fff810690815414603c575f5ffd5b62001fff01545f5260205ff35b5f5ffd5b62001fff42064281555f359062001fff015500",
                "storage": {}
            },
            "0x6442010fd6c7d107410fd0589b8059df1c45f0d0": {
                "nonce": "0x00",
                "balance": "0x00",
                "code": "0x457ffffffffffffffffffffffffffffffffffffffffffffffffffffffffffffffffe7f00000000000000000000000100000000000000000000000000000000000000007f0000000000000000000000000000000000000000000000000000000000000000427f0000000000000000000000004f3f701464972e74606d6ea82d4d3080599a0e797fffffffffffffffffffffffffffffffffffffffffffffffffffffffffffffffff7f000000000000000000000000000000000000000000000000000000000000c3503a86385458123760005155",
                "storage": {}
            },
            "0x4f3f701464972e74606d6ea82d4d3080599a0e79": {
                "nonce": "0x00",
                "balance": "0x2e",
                "code": "0x6000355415600957005b60203560003555",
                "storage": {}
            },
            "0x2e3d0156d2b99a6eacba540c55f423c8f5a33143": {
                "nonce": "0x00",
                "balance": "0x0de0b6b3a7640000",
                "code": "0x",
                "storage": {}
            }
        },
        "postState": {
            "0x000f3df6d732807ef1319fb7b8bb8522d0beac02": {
                "nonce": "0x01",
                "balance": "0x00",
                "code": "0x3373fffffffffffffffffffffffffffffffffffffffe14604d57602036146024575f5ffd5b5f35801560495762001fff810690815414603c575f5ffd5b62001fff01545f5260205ff35b5f5ffd5b62001fff42064281555f359062001fff015500",
                "storage": {
                    "0x03e8": "0x03e8"
                }
            },
            "0x6442010fd6c7d107410fd0589b8059df1c45f0d0": {
                "nonce": "0x00",
                "balance": "0x5bf15d9b",
                "code": "0x457ffffffffffffffffffffffffffffffffffffffffffffffffffffffffffffffffe7f00000000000000000000000100000000000000000000000000000000000000007f0000000000000000000000000000000000000000000000000000000000000000427f0000000000000000000000004f3f701464972e74606d6ea82d4d3080599a0e797fffffffffffffffffffffffffffffffffffffffffffffffffffffffffffffffff7f000000000000000000000000000000000000000000000000000000000000c3503a86385458123760005155",
                "storage": {
                    "0x00": "0xc350"
                }
            },
            "0x4f3f701464972e74606d6ea82d4d3080599a0e79": {
                "nonce": "0x00",
                "balance": "0x2e",
                "code": "0x6000355415600957005b60203560003555",
                "storage": {}
            },
            "0x2e3d0156d2b99a6eacba540c55f423c8f5a33143": {
                "nonce": "0x01",
                "balance": "0x0de0b6b34b6b6ab3",
                "code": "0x",
                "storage": {}
            }
        },
        "lastblockhash": "0x69c44737ad3de1a8562d3e9ca6c76b0ee18d4d11fee495a827e1e375b68d5ffc",
        "config": {
            "network": "Cancun",
            "chainid": "0x01",
            "blobSchedule": {
                "Cancun": {
                    "target": "0x03",
                    "max": "0x06",
                    "baseFeeUpdateFraction": "0x32f0ed"
                }
            }
        },
        "genesisRLP": "0xf9023cf90236a00000000000000000000000000000000000000000000000000000000000000000a01dcc4de8dec75d7aab85b567b6ccd41ad312451b948a7413f0a142fd40d49347940000000000000000000000000000000000000000a05a5795ef13b1f15237a36b6c82f2d4f066084df366e577524ea0e85faf0c0cbda056e81f171bcc55a6ff8345e692c0f86e5b48e01b996cadc001622fb5e363b421a056e81f171bcc55a6ff8345e692c0f86e5b48e01b996cadc001622fb5e363b421b901000000000000000000000000000000000000000000000000000000000000000000000000000000000000000000000000000000000000000000000000000000000000000000000000000000000000000000000000000000000000000000000000000000000000000000000000000000000000000000000000000000000000000000000000000000000000000000000000000000000000000000000000000000000000000000000000000000000000000000000000000000000000000000000000000000000000000000000000000000000000000000000000000000000000000000000000000000000000000000000000000000000000000000000000000000000080808407270e00808000a000000000000000000000000000000000000000000000000000000000000000008800000000000000000ba056e81f171bcc55a6ff8345e692c0f86e5b48e01b996cadc001622fb5e363b4218080a00000000000000000000000000000000000000000000000000000000000000000c0c0c0",
        "blocks": [
            {
                "blockHeader": {
                    "parentHash": "0x330fb413c38304a20b8555bf3353d5a1aeadb44f4fffd1f9dd0765a8a8742d9c",
                    "uncleHash": "0x1dcc4de8dec75d7aab85b567b6ccd41ad312451b948a7413f0a142fd40d49347",
                    "coinbase": "0x4f3f701464972e74606d6ea82d4d3080599a0e79",
                    "stateRoot": "0x9d7c9148356d42327d866ec51638f4d35af43642069f090a10781f98639c19fd",
                    "transactionsTrie": "0x09866f1ccb61a41edcbee2feb95ed9e034e4841ec2d75ea682e9db911055e79c",
                    "receiptTrie": "0xcb499538df55f9be8b2f1b525b7317414f91bb9aa253813dee7012a1d8cac2e5",
                    "bloom": "0x00000000000000000000000000000000000000000000000000000000000000000000000000000000000000000000000000000000000000000000000000000000000000000000000000000000000000000000000000000000000000000000000000000000000000000000000000000000000000000000000000000000000000000000000000000000000000000000000000000000000000000000000000000000000000000000000000000000000000000000000000000000000000000000000000000000000000000000000000000000000000000000000000000000000000000000000000000000000000000000000000000000000000000000000000000000",
                    "difficulty": "0x00",
                    "number": "0x01",
                    "gasLimit": "0x07270e00",
                    "gasUsed": "0xb8c5",
                    "timestamp": "0x03e8",
                    "extraData": "0x00",
                    "mixHash": "0x0000000000000000000000000000000000000000000000000000000000020000",
                    "nonce": "0x0000000000000000",
                    "baseFeePerGas": "0x0a",
                    "withdrawalsRoot": "0x56e81f171bcc55a6ff8345e692c0f86e5b48e01b996cadc001622fb5e363b421",
                    "blobGasUsed": "0x00",
                    "excessBlobGas": "0x00",
                    "parentBeaconBlockRoot": "0x0000000000000000000000000000000000000000000000000000000000000000",
                    "hash": "0x69c44737ad3de1a8562d3e9ca6c76b0ee18d4d11fee495a827e1e375b68d5ffc"
                },
                "transactions": [
                    {
                        "type": "0x00",
                        "chainId": "0x01",
                        "nonce": "0x00",
                        "gasPrice": "0x0a",
                        "gasLimit": "0x0186a0",
                        "to": "0x6442010fd6c7d107410fd0589b8059df1c45f0d0",
                        "value": "0x5bf15d9b",
                        "data": "0x457ffffffffffffffffffffffffffffffffffffffffffffffffffffffffffffffffe7f00000000000000000000000100000000000000000000000000000000000000007f0000000000000000000000000000000000000000000000000000000000000000427f0000000000000000000000004f3f701464972e74606d6ea82d4d3080599a0e797fffffffffffffffffffffffffffffffffffffffffffffffffffffffffffffffff7f000000000000000000000000000000000000000000000000000000000000c3503a863854581237",
                        "v": "0x25",
                        "r": "0x642fecf48b846a62d6bb13fb052cb368594884ca492bee061bde02e40279b200",
                        "s": "0x02b7a05b92303b27b134569e06a7979270863e62ae8bbc47e7a429439633d44f",
                        "sender": "0x2e3d0156d2b99a6eacba540c55f423c8f5a33143"
                    }
                ],
                "uncleHeaders": [],
                "withdrawals": [],
                "receipts": [
                    {
                        "transactionHash": "0x66e21fcdbd3cef50dc4e9c8de57600937060f37068d8a2e9caf1ad5c361187be",
                        "type": "0x00",
                        "cumulativeGasUsed": "0xb8c5",
                        "bloom": "0x00000000000000000000000000000000000000000000000000000000000000000000000000000000000000000000000000000000000000000000000000000000000000000000000000000000000000000000000000000000000000000000000000000000000000000000000000000000000000000000000000000000000000000000000000000000000000000000000000000000000000000000000000000000000000000000000000000000000000000000000000000000000000000000000000000000000000000000000000000000000000000000000000000000000000000000000000000000000000000000000000000000000000000000000000000000",
                        "logs": [],
                        "status": true,
                        "rlp": "0xf901080182b8c5b9010000000000000000000000000000000000000000000000000000000000000000000000000000000000000000000000000000000000000000000000000000000000000000000000000000000000000000000000000000000000000000000000000000000000000000000000000000000000000000000000000000000000000000000000000000000000000000000000000000000000000000000000000000000000000000000000000000000000000000000000000000000000000000000000000000000000000000000000000000000000000000000000000000000000000000000000000000000000000000000000000000000000000000000000000000000000c0"
                    }
                ],
                "rlp": "0xf90379f9023aa0330fb413c38304a20b8555bf3353d5a1aeadb44f4fffd1f9dd0765a8a8742d9ca01dcc4de8dec75d7aab85b567b6ccd41ad312451b948a7413f0a142fd40d49347944f3f701464972e74606d6ea82d4d3080599a0e79a09d7c9148356d42327d866ec51638f4d35af43642069f090a10781f98639c19fda009866f1ccb61a41edcbee2feb95ed9e034e4841ec2d75ea682e9db911055e79ca0cb499538df55f9be8b2f1b525b7317414f91bb9aa253813dee7012a1d8cac2e5b901000000000000000000000000000000000000000000000000000000000000000000000000000000000000000000000000000000000000000000000000000000000000000000000000000000000000000000000000000000000000000000000000000000000000000000000000000000000000000000000000000000000000000000000000000000000000000000000000000000000000000000000000000000000000000000000000000000000000000000000000000000000000000000000000000000000000000000000000000000000000000000000000000000000000000000000000000000000000000000000000000000000000000000000000000000000080018407270e0082b8c58203e800a000000000000000000000000000000000000000000000000000000000000200008800000000000000000aa056e81f171bcc55a6ff8345e692c0f86e5b48e01b996cadc001622fb5e363b4218080a00000000000000000000000000000000000000000000000000000000000000000f90137f90134800a830186a0946442010fd6c7d107410fd0589b8059df1c45f0d0845bf15d9bb8cf457ffffffffffffffffffffffffffffffffffffffffffffffffffffffffffffffffe7f00000000000000000000000100000000000000000000000000000000000000007f0000000000000000000000000000000000000000000000000000000000000000427f0000000000000000000000004f3f701464972e74606d6ea82d4d3080599a0e797fffffffffffffffffffffffffffffffffffffffffffffffffffffffffffffffff7f000000000000000000000000000000000000000000000000000000000000c3503a86385458123725a0642fecf48b846a62d6bb13fb052cb368594884ca492bee061bde02e40279b200a002b7a05b92303b27b134569e06a7979270863e62ae8bbc47e7a429439633d44fc0c0",
                "blocknumber": "1"
            }
        ],
        "sealEngine": "NoProof",
        "_info": {
            "hash": "0x0104567b97688be4642caa04a635021e3b2e8d948d9cb2f9932b490d5f977f95",
            "fixture-format": "blockchain_test",
            "comment": "`execution-specs` generated test",
            "filling-transition-tool": "2.19.0",
            "description": "Test_random_statetest389.",
            "url": "https://github.com/ethereum/execution-specs/blob/tests-sn\u00f8bal-devnet-4@v1.0.0/tests/ported_static/stRandom2/test_random_statetest389.py#L25",
            "metadata": {
                "opcode_count": {}
            }
        }
    }
}