{
    "tests/ported_static/stCallDelegateCodesCallCodeHomestead/test_callcodecall_10.py::test_callcodecall_10[fork_Cancun-blockchain_test_from_state_test]": {
        "network": "Cancun",
        "genesisBlockHeader": {
            "parentHash": "0x0000000000000000000000000000000000000000000000000000000000000000",
            "uncleHash": "0x1dcc4de8dec75d7aab85b567b6ccd41ad312451b948a7413f0a142fd40d49347",
            "coinbase": "0x0000000000000000000000000000000000000000",
            "stateRoot": "0xd21ff8be14e376ec8eae66819bc977dd5de3a24cc65b5dacad3f1f37d53b889b",
            "transactionsTrie": "0x56e81f171bcc55a6ff8345e692c0f86e5b48e01b996cadc001622fb5e363b421",
            "receiptTrie": "0x56e81f171bcc55a6ff8345e692c0f86e5b48e01b996cadc001622fb5e363b421",
            "bloom": "0x00000000000000000000000000000000000000000000000000000000000000000000000000000000000000000000000000000000000000000000000000000000000000000000000000000000000000000000000000000000000000000000000000000000000000000000000000000000000000000000000000000000000000000000000000000000000000000000000000000000000000000000000000000000000000000000000000000000000000000000000000000000000000000000000000000000000000000000000000000000000000000000000000000000000000000000000000000000000000000000000000000000000000000000000000000000",
            "difficulty": "0x00",
            "number": "0x00",
            "gasLimit": "0x01c9c380",
            "gasUsed": "0x00",
            "timestamp": "0x00",
            "extraData": "0x00",
            "mixHash": "0x0000000000000000000000000000000000000000000000000000000000000000",
            "nonce": "0x0000000000000000",
            "baseFeePerGas": "0x0b",
            "withdrawalsRoot": "0x56e81f171bcc55a6ff8345e692c0f86e5b48e01b996cadc001622fb5e363b421",
            "blobGasUsed": "0x00",
            "excessBlobGas": "0x00",
            "parentBeaconBlockRoot": "0x0000000000000000000000000000000000000000000000000000000000000000",
            "hash": "0x72cb57eebda5886dc11a67597edb706cb8a3d1b281bde80b82bc1c987f28e78f"
        },
        "pre": {
            "0x000f3df6d732807ef1319fb7b8bb8522d0beac02": {
                "nonce": "0x01",
                "balance": "0x00",
                "code": "0x3373fffffffffffffffffffffffffffffffffffffffe14604d57602036146024575f5ffd5b5f35801560495762001fff810690815414603c575f5ffd5b62001fff01545f5260205ff35b5f5ffd5b62001fff42064281555f359062001fff015500",
                "storage": {}
            },
            "0xd26e26d5a4796d450bfa296d70c05f02dbc1a4b9": {
                "nonce": "0x00",
                "balance": "0x0de0b6b3a7640000",
                "code": "0x60406000604060007369142b38329c92930601fe8da12dc5866cde11c362055730f460005500",
                "storage": {}
            },
            "0x69142b38329c92930601fe8da12dc5866cde11c3": {
                "nonce": "0x00",
                "balance": "0x0de0b6b3a7640000",
                "code": "0x6040600060406000600273d42cd48f1d9a88f4b75bfb5e46e754c1128bd7fb6203d090f260015500",
                "storage": {}
            },
            "0xd42cd48f1d9a88f4b75bfb5e46e754c1128bd7fb": {
                "nonce": "0x00",
                "balance": "0x00",
                "code": "0x600160025533600455346005553060e6553260e8553660ec553860ee553a60f05500",
                "storage": {}
            },
            "0xebaf50debf10e08302fe4280c32df010463ca297": {
                "nonce": "0x00",
                "balance": "0x0de0b6b3a7640000",
                "code": "0x",
                "storage": {}
            }
        },
        "postState": {
            "0x000f3df6d732807ef1319fb7b8bb8522d0beac02": {
                "nonce": "0x01",
                "balance": "0x00",
                "code": "0x3373fffffffffffffffffffffffffffffffffffffffe14604d57602036146024575f5ffd5b5f35801560495762001fff810690815414603c575f5ffd5b62001fff01545f5260205ff35b5f5ffd5b62001fff42064281555f359062001fff015500",
                "storage": {
                    "0x03e8": "0x03e8"
                }
            },
            "0xd26e26d5a4796d450bfa296d70c05f02dbc1a4b9": {
                "nonce": "0x00",
                "balance": "0x0de0b6b3a7640000",
                "code": "0x60406000604060007369142b38329c92930601fe8da12dc5866cde11c362055730f460005500",
                "storage": {
                    "0x02": "0x01",
                    "0x04": "0xd26e26d5a4796d450bfa296d70c05f02dbc1a4b9",
                    "0x05": "0x02",
                    "0xe6": "0xd26e26d5a4796d450bfa296d70c05f02dbc1a4b9",
                    "0xe8": "0xebaf50debf10e08302fe4280c32df010463ca297",
                    "0xec": "0x40",
                    "0xee": "0x22",
                    "0xf0": "0x0a",
                    "0x01": "0x01",
                    "0x00": "0x01"
                }
            },
            "0x69142b38329c92930601fe8da12dc5866cde11c3": {
                "nonce": "0x00",
                "balance": "0x0de0b6b3a7640000",
                "code": "0x6040600060406000600273d42cd48f1d9a88f4b75bfb5e46e754c1128bd7fb6203d090f260015500",
                "storage": {}
            },
            "0xd42cd48f1d9a88f4b75bfb5e46e754c1128bd7fb": {
                "nonce": "0x00",
                "balance": "0x00",
                "code": "0x600160025533600455346005553060e6553260e8553660ec553860ee553a60f05500",
                "storage": {}
            },
            "0xebaf50debf10e08302fe4280c32df010463ca297": {
                "nonce": "0x01",
                "balance": "0x0de0b6b3a73d3e34",
                "code": "0x",
                "storage": {}
            }
        },
        "lastblockhash": "0x1c148ea53add86038b5075074d4fc9d834e4f03c0b585cd45e4f14340b536feb",
        "config": {
            "network": "Cancun",
            "chainid": "0x01",
            "blobSchedule": {
                "Cancun": {
                    "target": "0x03",
                    "max": "0x06",
                    "baseFeeUpdateFraction": "0x32f0ed"
                }
            }
        },
        "genesisRLP": "0xf9023cf90236a00000000000000000000000000000000000000000000000000000000000000000a01dcc4de8dec75d7aab85b567b6ccd41ad312451b948a7413f0a142fd40d49347940000000000000000000000000000000000000000a0d21ff8be14e376ec8eae66819bc977dd5de3a24cc65b5dacad3f1f37d53b889ba056e81f171bcc55a6ff8345e692c0f86e5b48e01b996cadc001622fb5e363b421a056e81f171bcc55a6ff8345e692c0f86e5b48e01b996cadc001622fb5e363b421b901000000000000000000000000000000000000000000000000000000000000000000000000000000000000000000000000000000000000000000000000000000000000000000000000000000000000000000000000000000000000000000000000000000000000000000000000000000000000000000000000000000000000000000000000000000000000000000000000000000000000000000000000000000000000000000000000000000000000000000000000000000000000000000000000000000000000000000000000000000000000000000000000000000000000000000000000000000000000000000000000000000000000000000000000000000000080808401c9c380808000a000000000000000000000000000000000000000000000000000000000000000008800000000000000000ba056e81f171bcc55a6ff8345e692c0f86e5b48e01b996cadc001622fb5e363b4218080a00000000000000000000000000000000000000000000000000000000000000000c0c0c0",
        "blocks": [
            {
                "blockHeader": {
                    "parentHash": "0x72cb57eebda5886dc11a67597edb706cb8a3d1b281bde80b82bc1c987f28e78f",
                    "uncleHash": "0x1dcc4de8dec75d7aab85b567b6ccd41ad312451b948a7413f0a142fd40d49347",
                    "coinbase": "0x2adc25665018aa1fe0e6bc666dac8fc2697ff9ba",
                    "stateRoot": "0x149db0f4c978be607bf4b11fe4ad980a0b93b4c891c4aaf57221ba3eefac59f8",
                    "transactionsTrie": "0x5d651468ceb846ffa0e6312f101c84e76bf3b33aabebf053b91d78f1f3c22ed8",
                    "receiptTrie": "0x05d24b93dd36c9e8e79c2e2c7945a7aa68b1a293b2aeb4eb4b937f55fcb3fc81",
                    "bloom": "0x00000000000000000000000000000000000000000000000000000000000000000000000000000000000000000000000000000000000000000000000000000000000000000000000000000000000000000000000000000000000000000000000000000000000000000000000000000000000000000000000000000000000000000000000000000000000000000000000000000000000000000000000000000000000000000000000000000000000000000000000000000000000000000000000000000000000000000000000000000000000000000000000000000000000000000000000000000000000000000000000000000000000000000000000000000000",
                    "difficulty": "0x00",
                    "number": "0x01",
                    "gasLimit": "0x01c9c380",
                    "gasUsed": "0x03e02e",
                    "timestamp": "0x03e8",
                    "extraData": "0x00",
                    "mixHash": "0x0000000000000000000000000000000000000000000000000000000000020000",
                    "nonce": "0x0000000000000000",
                    "baseFeePerGas": "0x0a",
                    "withdrawalsRoot": "0x56e81f171bcc55a6ff8345e692c0f86e5b48e01b996cadc001622fb5e363b421",
                    "blobGasUsed": "0x00",
                    "excessBlobGas": "0x00",
                    "parentBeaconBlockRoot": "0x0000000000000000000000000000000000000000000000000000000000000000",
                    "hash": "0x1c148ea53add86038b5075074d4fc9d834e4f03c0b585cd45e4f14340b536feb"
                },
                "transactions": [
                    {
                        "type": "0x00",
                        "chainId": "0x01",
                        "nonce": "0x00",
                        "gasPrice": "0x0a",
                        "gasLimit": "0x2dc6c0",
                        "to": "0xd26e26d5a4796d450bfa296d70c05f02dbc1a4b9",
                        "value": "0x00",
                        "data": "0x",
                        "v": "0x26",
                        "r": "0x5dd31450d322124c6ccab3d350ca899338a7a0a34063420d8b4f8d08570baeca",
                        "s": "0x7d4a95a110df469b37e56e4ebe2ac1921333369fdb827ef590e4047aeded5fd7",
                        "sender": "0xebaf50debf10e08302fe4280c32df010463ca297"
                    }
                ],
                "uncleHeaders": [],
                "withdrawals": [],
                "receipts": [
                    {
                        "transactionHash": "0x371777bc9a489dda318dfb6e6d730b9c5d0ded6ea12e77ed3fb061e963bf0286",
                        "type": "0x00",
                        "cumulativeGasUsed": "0x03e02e",
                        "bloom": "0x00000000000000000000000000000000000000000000000000000000000000000000000000000000000000000000000000000000000000000000000000000000000000000000000000000000000000000000000000000000000000000000000000000000000000000000000000000000000000000000000000000000000000000000000000000000000000000000000000000000000000000000000000000000000000000000000000000000000000000000000000000000000000000000000000000000000000000000000000000000000000000000000000000000000000000000000000000000000000000000000000000000000000000000000000000000",
                        "logs": [],
                        "status": true,
                        "rlp": "0xf90109018303e02eb9010000000000000000000000000000000000000000000000000000000000000000000000000000000000000000000000000000000000000000000000000000000000000000000000000000000000000000000000000000000000000000000000000000000000000000000000000000000000000000000000000000000000000000000000000000000000000000000000000000000000000000000000000000000000000000000000000000000000000000000000000000000000000000000000000000000000000000000000000000000000000000000000000000000000000000000000000000000000000000000000000000000000000000000000000000000000c0"
                    }
                ],
                "rlp": "0xf902a4f9023ba072cb57eebda5886dc11a67597edb706cb8a3d1b281bde80b82bc1c987f28e78fa01dcc4de8dec75d7aab85b567b6ccd41ad312451b948a7413f0a142fd40d49347942adc25665018aa1fe0e6bc666dac8fc2697ff9baa0149db0f4c978be607bf4b11fe4ad980a0b93b4c891c4aaf57221ba3eefac59f8a05d651468ceb846ffa0e6312f101c84e76bf3b33aabebf053b91d78f1f3c22ed8a005d24b93dd36c9e8e79c2e2c7945a7aa68b1a293b2aeb4eb4b937f55fcb3fc81b901000000000000000000000000000000000000000000000000000000000000000000000000000000000000000000000000000000000000000000000000000000000000000000000000000000000000000000000000000000000000000000000000000000000000000000000000000000000000000000000000000000000000000000000000000000000000000000000000000000000000000000000000000000000000000000000000000000000000000000000000000000000000000000000000000000000000000000000000000000000000000000000000000000000000000000000000000000000000000000000000000000000000000000000000000000000080018401c9c3808303e02e8203e800a000000000000000000000000000000000000000000000000000000000000200008800000000000000000aa056e81f171bcc55a6ff8345e692c0f86e5b48e01b996cadc001622fb5e363b4218080a00000000000000000000000000000000000000000000000000000000000000000f862f860800a832dc6c094d26e26d5a4796d450bfa296d70c05f02dbc1a4b9808026a05dd31450d322124c6ccab3d350ca899338a7a0a34063420d8b4f8d08570baecaa07d4a95a110df469b37e56e4ebe2ac1921333369fdb827ef590e4047aeded5fd7c0c0",
                "blocknumber": "1"
            }
        ],
        "sealEngine": "NoProof",
        "_info": {
            "hash": "0x9871e11e53ba85d0d0a991896df39d97423f93f416c6b24a75905353fe0812a3",
            "fixture-format": "blockchain_test",
            "comment": "`execution-specs` generated test",
            "filling-transition-tool": "2.19.0",
            "description": "Test_callcodecall_10.",
            "url": "https://github.com/ethereum/execution-specs/blob/tests-bal@v5.6.0/tests/ported_static/stCallDelegateCodesCallCodeHomestead/test_callcodecall_10.py#L25",
            "metadata": {
                "opcode_count": {}
            }
        }
    }
}