{
    "tests/london/validation/test_header.py::test_invalid_header[fork_Paris-blockchain_test-field_base_fee_per_gas-invalid_value_1-exception_BlockException.INVALID_BASEFEE_PER_GAS]": {
        "network": "Paris",
        "genesisBlockHeader": {
            "parentHash": "0x0000000000000000000000000000000000000000000000000000000000000000",
            "uncleHash": "0x1dcc4de8dec75d7aab85b567b6ccd41ad312451b948a7413f0a142fd40d49347",
            "coinbase": "0x0000000000000000000000000000000000000000",
            "stateRoot": "0x56e81f171bcc55a6ff8345e692c0f86e5b48e01b996cadc001622fb5e363b421",
            "transactionsTrie": "0x56e81f171bcc55a6ff8345e692c0f86e5b48e01b996cadc001622fb5e363b421",
            "receiptTrie": "0x56e81f171bcc55a6ff8345e692c0f86e5b48e01b996cadc001622fb5e363b421",
            "bloom": "0x00000000000000000000000000000000000000000000000000000000000000000000000000000000000000000000000000000000000000000000000000000000000000000000000000000000000000000000000000000000000000000000000000000000000000000000000000000000000000000000000000000000000000000000000000000000000000000000000000000000000000000000000000000000000000000000000000000000000000000000000000000000000000000000000000000000000000000000000000000000000000000000000000000000000000000000000000000000000000000000000000000000000000000000000000000000",
            "difficulty": "0x00",
            "number": "0x00",
            "gasLimit": "0x07270e00",
            "gasUsed": "0x00",
            "timestamp": "0x00",
            "extraData": "0x00",
            "mixHash": "0x0000000000000000000000000000000000000000000000000000000000000000",
            "nonce": "0x0000000000000000",
            "baseFeePerGas": "0x07",
            "hash": "0xe0874bf3f97277efd28e5bc7fd89c3bc5a603d5fd8046254f463945e80195e1f"
        },
        "pre": {},
        "postState": {},
        "lastblockhash": "0xe0874bf3f97277efd28e5bc7fd89c3bc5a603d5fd8046254f463945e80195e1f",
        "config": {
            "network": "Paris",
            "chainid": "0x01"
        },
        "genesisRLP": "0xf901f7f901f2a00000000000000000000000000000000000000000000000000000000000000000a01dcc4de8dec75d7aab85b567b6ccd41ad312451b948a7413f0a142fd40d49347940000000000000000000000000000000000000000a056e81f171bcc55a6ff8345e692c0f86e5b48e01b996cadc001622fb5e363b421a056e81f171bcc55a6ff8345e692c0f86e5b48e01b996cadc001622fb5e363b421a056e81f171bcc55a6ff8345e692c0f86e5b48e01b996cadc001622fb5e363b421b901000000000000000000000000000000000000000000000000000000000000000000000000000000000000000000000000000000000000000000000000000000000000000000000000000000000000000000000000000000000000000000000000000000000000000000000000000000000000000000000000000000000000000000000000000000000000000000000000000000000000000000000000000000000000000000000000000000000000000000000000000000000000000000000000000000000000000000000000000000000000000000000000000000000000000000000000000000000000000000000000000000000000000000000000000000000080808407270e00808000a0000000000000000000000000000000000000000000000000000000000000000088000000000000000007c0c0",
        "blocks": [
            {
                "rlp": "0xf901f7f901f2a0e0874bf3f97277efd28e5bc7fd89c3bc5a603d5fd8046254f463945e80195e1fa01dcc4de8dec75d7aab85b567b6ccd41ad312451b948a7413f0a142fd40d49347942adc25665018aa1fe0e6bc666dac8fc2697ff9baa056e81f171bcc55a6ff8345e692c0f86e5b48e01b996cadc001622fb5e363b421a056e81f171bcc55a6ff8345e692c0f86e5b48e01b996cadc001622fb5e363b421a056e81f171bcc55a6ff8345e692c0f86e5b48e01b996cadc001622fb5e363b421b901000000000000000000000000000000000000000000000000000000000000000000000000000000000000000000000000000000000000000000000000000000000000000000000000000000000000000000000000000000000000000000000000000000000000000000000000000000000000000000000000000000000000000000000000000000000000000000000000000000000000000000000000000000000000000000000000000000000000000000000000000000000000000000000000000000000000000000000000000000000000000000000000000000000000000000000000000000000000000000000000000000000000000000000000000000000080018407270e00800c80a0000000000000000000000000000000000000000000000000000000000000000088000000000000000001c0c0",
                "expectException": "BlockException.INVALID_BASEFEE_PER_GAS",
                "rlp_decoded": {
                    "blockHeader": {
                        "parentHash": "0xe0874bf3f97277efd28e5bc7fd89c3bc5a603d5fd8046254f463945e80195e1f",
                        "uncleHash": "0x1dcc4de8dec75d7aab85b567b6ccd41ad312451b948a7413f0a142fd40d49347",
                        "coinbase": "0x2adc25665018aa1fe0e6bc666dac8fc2697ff9ba",
                        "stateRoot": "0x56e81f171bcc55a6ff8345e692c0f86e5b48e01b996cadc001622fb5e363b421",
                        "transactionsTrie": "0x56e81f171bcc55a6ff8345e692c0f86e5b48e01b996cadc001622fb5e363b421",
                        "receiptTrie": "0x56e81f171bcc55a6ff8345e692c0f86e5b48e01b996cadc001622fb5e363b421",
                        "bloom": "0x00000000000000000000000000000000000000000000000000000000000000000000000000000000000000000000000000000000000000000000000000000000000000000000000000000000000000000000000000000000000000000000000000000000000000000000000000000000000000000000000000000000000000000000000000000000000000000000000000000000000000000000000000000000000000000000000000000000000000000000000000000000000000000000000000000000000000000000000000000000000000000000000000000000000000000000000000000000000000000000000000000000000000000000000000000000",
                        "difficulty": "0x00",
                        "number": "0x01",
                        "gasLimit": "0x07270e00",
                        "gasUsed": "0x00",
                        "timestamp": "0x0c",
                        "extraData": "0x",
                        "mixHash": "0x0000000000000000000000000000000000000000000000000000000000000000",
                        "nonce": "0x0000000000000000",
                        "baseFeePerGas": "0x01",
                        "hash": "0x0915c4c23171a23a932c0a4f1bdfc29b6c820014fbecc155d7f2d6fa0016c253"
                    },
                    "transactions": [],
                    "uncleHeaders": [],
                    "blocknumber": "1"
                }
            }
        ],
        "sealEngine": "NoProof",
        "_info": {
            "hash": "0x5ef49b8b7b06ba202004a19d2c18c5386c22e9f41480d4846b1757cf93418e87",
            "fixture-format": "blockchain_test",
            "comment": "`execution-specs` generated test",
            "filling-transition-tool": "2.19.0",
            "description": "Tests that a block with an invalid header (e.g. base_fee_per_gas) is\nrejected.",
            "url": "https://github.com/ethereum/execution-specs/blob/tests-bal@v5.7.0/tests/london/validation/test_header.py#L13",
            "metadata": {
                "opcode_count": {}
            }
        }
    }
}