{
    "tests/static/state_tests/stSpecialTest/sha3_dejaFiller.json::sha3_deja[fork_Cancun-state_test-]": {
        "env": {
            "currentCoinbase": "0x2adc25665018aa1fe0e6bc666dac8fc2697ff9ba",
            "currentGasLimit": "0x0f4240",
            "currentNumber": "0x01",
            "currentTimestamp": "0x03e8",
            "currentRandom": "0x0000000000000000000000000000000000000000000000000000000000020000",
            "currentDifficulty": "0x00",
            "currentBaseFee": "0x0a",
            "currentExcessBlobGas": "0x00"
        },
        "pre": {
            "0xaf193bea8278918e61455fc7e4f9aa39ba3a989c": {
                "nonce": "0x00",
                "balance": "0x0de0b6b3a7640000",
                "code": "0x",
                "storage": {}
            },
            "0xaebf5d4328136d922a3f4ac11fb01efb83e1d818": {
                "nonce": "0x00",
                "balance": "0x0de0b6b3a7640000",
                "code": "0x6042601f53600064ffffffffff2080",
                "storage": {}
            }
        },
        "transaction": {
            "nonce": "0x00",
            "gasPrice": "0x0a",
            "gasLimit": [
                "0x0f4240"
            ],
            "to": "0xaebf5d4328136d922a3f4ac11fb01efb83e1d818",
            "value": [
                "0x0186a0"
            ],
            "data": [
                "0x"
            ],
            "sender": "0xaf193bea8278918e61455fc7e4f9aa39ba3a989c",
            "secretKey": "0xc2f2f904b83b52a4ba7c200daebf5d4328136d922a3f4ac11fb01efb83e1d818"
        },
        "post": {
            "Cancun": [
                {
                    "hash": "0x9fb3ca32175f2df755b4fc81c3b99dd7f3727aa464a78faeac4760e683415d75",
                    "logs": "0x1dcc4de8dec75d7aab85b567b6ccd41ad312451b948a7413f0a142fd40d49347",
                    "txbytes": "0xf863800a830f424094aebf5d4328136d922a3f4ac11fb01efb83e1d818830186a08025a0b41277c521b9a75bd850c20e62b23c2fc553c066fafdd7d787f433cf9d4c7fbaa024d0619807d3aae579e3a8ed15c492e43451cf47b055e502cc02a707eb9cf5b4",
                    "indexes": {
                        "data": 0,
                        "gas": 0,
                        "value": 0
                    },
                    "state": {
                        "0xaf193bea8278918e61455fc7e4f9aa39ba3a989c": {
                            "nonce": "0x01",
                            "balance": "0x0de0b6b3a75f4312",
                            "code": "0x",
                            "storage": {}
                        },
                        "0xaebf5d4328136d922a3f4ac11fb01efb83e1d818": {
                            "nonce": "0x00",
                            "balance": "0x0de0b6b3a76586a0",
                            "code": "0x6042601f53600064ffffffffff2080",
                            "storage": {}
                        }
                    }
                }
            ]
        },
        "config": {
            "blobSchedule": {
                "Cancun": {
                    "target": "0x03",
                    "max": "0x06",
                    "baseFeeUpdateFraction": "0x32f0ed"
                }
            },
            "chainid": "0x01"
        },
        "_info": {
            "hash": "0xaea8b12da66d557b46a7118e9b32d9cb486494daa34d4d2adf6d0717db5094df",
            "comment": "`execution-specs` generated test",
            "filling-transition-tool": "2.18.0rc6",
            "description": "No description available - add a docstring to the python test class or function.",
            "url": "",
            "fixture-format": "state_test"
        }
    },
    "tests/static/state_tests/stSpecialTest/sha3_dejaFiller.json::sha3_deja[fork_Osaka-state_test-]": {
        "env": {
            "currentCoinbase": "0x2adc25665018aa1fe0e6bc666dac8fc2697ff9ba",
            "currentGasLimit": "0x0f4240",
            "currentNumber": "0x01",
            "currentTimestamp": "0x03e8",
            "currentRandom": "0x0000000000000000000000000000000000000000000000000000000000020000",
            "currentDifficulty": "0x00",
            "currentBaseFee": "0x0a",
            "currentExcessBlobGas": "0x00"
        },
        "pre": {
            "0xaf193bea8278918e61455fc7e4f9aa39ba3a989c": {
                "nonce": "0x00",
                "balance": "0x0de0b6b3a7640000",
                "code": "0x",
                "storage": {}
            },
            "0xaebf5d4328136d922a3f4ac11fb01efb83e1d818": {
                "nonce": "0x00",
                "balance": "0x0de0b6b3a7640000",
                "code": "0x6042601f53600064ffffffffff2080",
                "storage": {}
            }
        },
        "transaction": {
            "nonce": "0x00",
            "gasPrice": "0x0a",
            "gasLimit": [
                "0x0f4240"
            ],
            "to": "0xaebf5d4328136d922a3f4ac11fb01efb83e1d818",
            "value": [
                "0x0186a0"
            ],
            "data": [
                "0x"
            ],
            "sender": "0xaf193bea8278918e61455fc7e4f9aa39ba3a989c",
            "secretKey": "0xc2f2f904b83b52a4ba7c200daebf5d4328136d922a3f4ac11fb01efb83e1d818"
        },
        "post": {
            "Osaka": [
                {
                    "hash": "0x9fb3ca32175f2df755b4fc81c3b99dd7f3727aa464a78faeac4760e683415d75",
                    "logs": "0x1dcc4de8dec75d7aab85b567b6ccd41ad312451b948a7413f0a142fd40d49347",
                    "txbytes": "0xf863800a830f424094aebf5d4328136d922a3f4ac11fb01efb83e1d818830186a08025a0b41277c521b9a75bd850c20e62b23c2fc553c066fafdd7d787f433cf9d4c7fbaa024d0619807d3aae579e3a8ed15c492e43451cf47b055e502cc02a707eb9cf5b4",
                    "indexes": {
                        "data": 0,
                        "gas": 0,
                        "value": 0
                    },
                    "state": {
                        "0xaf193bea8278918e61455fc7e4f9aa39ba3a989c": {
                            "nonce": "0x01",
                            "balance": "0x0de0b6b3a75f4312",
                            "code": "0x",
                            "storage": {}
                        },
                        "0xaebf5d4328136d922a3f4ac11fb01efb83e1d818": {
                            "nonce": "0x00",
                            "balance": "0x0de0b6b3a76586a0",
                            "code": "0x6042601f53600064ffffffffff2080",
                            "storage": {}
                        }
                    }
                }
            ]
        },
        "config": {
            "blobSchedule": {
                "Cancun": {
                    "target": "0x03",
                    "max": "0x06",
                    "baseFeeUpdateFraction": "0x32f0ed"
                },
                "Prague": {
                    "target": "0x06",
                    "max": "0x09",
                    "baseFeeUpdateFraction": "0x4c6964"
                },
                "Osaka": {
                    "target": "0x06",
                    "max": "0x09",
                    "baseFeeUpdateFraction": "0x4c6964"
                }
            },
            "chainid": "0x01"
        },
        "_info": {
            "hash": "0x0a409e7dbcf71e9e9845e26bf7209fad86472b407cdb833ca7c0b614444568e1",
            "comment": "`execution-specs` generated test",
            "filling-transition-tool": "2.18.0rc6",
            "description": "No description available - add a docstring to the python test class or function.",
            "url": "",
            "fixture-format": "state_test"
        }
    },
    "tests/static/state_tests/stSpecialTest/sha3_dejaFiller.json::sha3_deja[fork_Prague-state_test-]": {
        "env": {
            "currentCoinbase": "0x2adc25665018aa1fe0e6bc666dac8fc2697ff9ba",
            "currentGasLimit": "0x0f4240",
            "currentNumber": "0x01",
            "currentTimestamp": "0x03e8",
            "currentRandom": "0x0000000000000000000000000000000000000000000000000000000000020000",
            "currentDifficulty": "0x00",
            "currentBaseFee": "0x0a",
            "currentExcessBlobGas": "0x00"
        },
        "pre": {
            "0xaf193bea8278918e61455fc7e4f9aa39ba3a989c": {
                "nonce": "0x00",
                "balance": "0x0de0b6b3a7640000",
                "code": "0x",
                "storage": {}
            },
            "0xaebf5d4328136d922a3f4ac11fb01efb83e1d818": {
                "nonce": "0x00",
                "balance": "0x0de0b6b3a7640000",
                "code": "0x6042601f53600064ffffffffff2080",
                "storage": {}
            }
        },
        "transaction": {
            "nonce": "0x00",
            "gasPrice": "0x0a",
            "gasLimit": [
                "0x0f4240"
            ],
            "to": "0xaebf5d4328136d922a3f4ac11fb01efb83e1d818",
            "value": [
                "0x0186a0"
            ],
            "data": [
                "0x"
            ],
            "sender": "0xaf193bea8278918e61455fc7e4f9aa39ba3a989c",
            "secretKey": "0xc2f2f904b83b52a4ba7c200daebf5d4328136d922a3f4ac11fb01efb83e1d818"
        },
        "post": {
            "Prague": [
                {
                    "hash": "0x9fb3ca32175f2df755b4fc81c3b99dd7f3727aa464a78faeac4760e683415d75",
                    "logs": "0x1dcc4de8dec75d7aab85b567b6ccd41ad312451b948a7413f0a142fd40d49347",
                    "txbytes": "0xf863800a830f424094aebf5d4328136d922a3f4ac11fb01efb83e1d818830186a08025a0b41277c521b9a75bd850c20e62b23c2fc553c066fafdd7d787f433cf9d4c7fbaa024d0619807d3aae579e3a8ed15c492e43451cf47b055e502cc02a707eb9cf5b4",
                    "indexes": {
                        "data": 0,
                        "gas": 0,
                        "value": 0
                    },
                    "state": {
                        "0xaf193bea8278918e61455fc7e4f9aa39ba3a989c": {
                            "nonce": "0x01",
                            "balance": "0x0de0b6b3a75f4312",
                            "code": "0x",
                            "storage": {}
                        },
                        "0xaebf5d4328136d922a3f4ac11fb01efb83e1d818": {
                            "nonce": "0x00",
                            "balance": "0x0de0b6b3a76586a0",
                            "code": "0x6042601f53600064ffffffffff2080",
                            "storage": {}
                        }
                    }
                }
            ]
        },
        "config": {
            "blobSchedule": {
                "Cancun": {
                    "target": "0x03",
                    "max": "0x06",
                    "baseFeeUpdateFraction": "0x32f0ed"
                },
                "Prague": {
                    "target": "0x06",
                    "max": "0x09",
                    "baseFeeUpdateFraction": "0x4c6964"
                }
            },
            "chainid": "0x01"
        },
        "_info": {
            "hash": "0x1d33e2892ab9eaadf77562da9c59845416f8d5e51183a39abe9b832a584cece3",
            "comment": "`execution-specs` generated test",
            "filling-transition-tool": "2.18.0rc6",
            "description": "No description available - add a docstring to the python test class or function.",
            "url": "",
            "fixture-format": "state_test"
        }
    }
}