{
    "tests/ported_static/stEIP1559/test_low_gas_limit.py::test_low_gas_limit[fork_Cancun-blockchain_test_from_state_test--g0]": {
        "network": "Cancun",
        "genesisBlockHeader": {
            "parentHash": "0x0000000000000000000000000000000000000000000000000000000000000000",
            "uncleHash": "0x1dcc4de8dec75d7aab85b567b6ccd41ad312451b948a7413f0a142fd40d49347",
            "coinbase": "0x0000000000000000000000000000000000000000",
            "stateRoot": "0xc7296b7b1c3e659d81991757f70a7e9b0f8e2b76884a20118577b424738a1390",
            "transactionsTrie": "0x56e81f171bcc55a6ff8345e692c0f86e5b48e01b996cadc001622fb5e363b421",
            "receiptTrie": "0x56e81f171bcc55a6ff8345e692c0f86e5b48e01b996cadc001622fb5e363b421",
            "bloom": "0x00000000000000000000000000000000000000000000000000000000000000000000000000000000000000000000000000000000000000000000000000000000000000000000000000000000000000000000000000000000000000000000000000000000000000000000000000000000000000000000000000000000000000000000000000000000000000000000000000000000000000000000000000000000000000000000000000000000000000000000000000000000000000000000000000000000000000000000000000000000000000000000000000000000000000000000000000000000000000000000000000000000000000000000000000000000",
            "difficulty": "0x00",
            "number": "0x00",
            "gasLimit": "0x013880",
            "gasUsed": "0x00",
            "timestamp": "0x00",
            "extraData": "0x00",
            "mixHash": "0x0000000000000000000000000000000000000000000000000000000000000000",
            "nonce": "0x0000000000000000",
            "baseFeePerGas": "0x0476",
            "withdrawalsRoot": "0x56e81f171bcc55a6ff8345e692c0f86e5b48e01b996cadc001622fb5e363b421",
            "blobGasUsed": "0x00",
            "excessBlobGas": "0x00",
            "parentBeaconBlockRoot": "0x0000000000000000000000000000000000000000000000000000000000000000",
            "hash": "0x55e928187404fbc93ecddd85cd902a01843c0eabcea3ef0b1cc34d20c3604329"
        },
        "pre": {
            "0x000f3df6d732807ef1319fb7b8bb8522d0beac02": {
                "nonce": "0x01",
                "balance": "0x00",
                "code": "0x3373fffffffffffffffffffffffffffffffffffffffe14604d57602036146024575f5ffd5b5f35801560495762001fff810690815414603c575f5ffd5b62001fff01545f5260205ff35b5f5ffd5b62001fff42064281555f359062001fff015500",
                "storage": {}
            },
            "0xef0454d0376d1921b9a83868282725853c293ab5": {
                "nonce": "0x00",
                "balance": "0x0de0b6b3a7640000",
                "code": "0x600260005500",
                "storage": {
                    "0x00": "0x60a7"
                }
            },
            "0x8dab845a8398167a1c204f0e79540d619be8b473": {
                "nonce": "0x01",
                "balance": "0x0de0b6b3a7640000",
                "code": "0x",
                "storage": {}
            }
        },
        "postState": {
            "0x000f3df6d732807ef1319fb7b8bb8522d0beac02": {
                "nonce": "0x01",
                "balance": "0x00",
                "code": "0x3373fffffffffffffffffffffffffffffffffffffffe14604d57602036146024575f5ffd5b5f35801560495762001fff810690815414603c575f5ffd5b62001fff01545f5260205ff35b5f5ffd5b62001fff42064281555f359062001fff015500",
                "storage": {}
            },
            "0xef0454d0376d1921b9a83868282725853c293ab5": {
                "nonce": "0x00",
                "balance": "0x0de0b6b3a7640000",
                "code": "0x600260005500",
                "storage": {
                    "0x00": "0x60a7"
                }
            },
            "0x8dab845a8398167a1c204f0e79540d619be8b473": {
                "nonce": "0x01",
                "balance": "0x0de0b6b3a7640000",
                "code": "0x",
                "storage": {}
            }
        },
        "lastblockhash": "0x55e928187404fbc93ecddd85cd902a01843c0eabcea3ef0b1cc34d20c3604329",
        "config": {
            "network": "Cancun",
            "chainid": "0x01",
            "blobSchedule": {
                "Cancun": {
                    "target": "0x03",
                    "max": "0x06",
                    "baseFeeUpdateFraction": "0x32f0ed"
                }
            }
        },
        "genesisRLP": "0xf9023df90237a00000000000000000000000000000000000000000000000000000000000000000a01dcc4de8dec75d7aab85b567b6ccd41ad312451b948a7413f0a142fd40d49347940000000000000000000000000000000000000000a0c7296b7b1c3e659d81991757f70a7e9b0f8e2b76884a20118577b424738a1390a056e81f171bcc55a6ff8345e692c0f86e5b48e01b996cadc001622fb5e363b421a056e81f171bcc55a6ff8345e692c0f86e5b48e01b996cadc001622fb5e363b421b9010000000000000000000000000000000000000000000000000000000000000000000000000000000000000000000000000000000000000000000000000000000000000000000000000000000000000000000000000000000000000000000000000000000000000000000000000000000000000000000000000000000000000000000000000000000000000000000000000000000000000000000000000000000000000000000000000000000000000000000000000000000000000000000000000000000000000000000000000000000000000000000000000000000000000000000000000000000000000000000000000000000000000000000000000000000000808083013880808000a00000000000000000000000000000000000000000000000000000000000000000880000000000000000820476a056e81f171bcc55a6ff8345e692c0f86e5b48e01b996cadc001622fb5e363b4218080a00000000000000000000000000000000000000000000000000000000000000000c0c0c0",
        "blocks": [
            {
                "rlp": "0xf902acf90239a055e928187404fbc93ecddd85cd902a01843c0eabcea3ef0b1cc34d20c3604329a01dcc4de8dec75d7aab85b567b6ccd41ad312451b948a7413f0a142fd40d49347942adc25665018aa1fe0e6bc666dac8fc2697ff9baa0a4cd003b09e4a7ea1a920666d3737018044fa26e38888180bd92a1358f1a66a4a0d997793e2073553e69f2586c21cb80f4c8ddb80708f13c398931122150c63f31a056e81f171bcc55a6ff8345e692c0f86e5b48e01b996cadc001622fb5e363b421b9010000000000000000000000000000000000000000000000000000000000000000000000000000000000000000000000000000000000000000000000000000000000000000000000000000000000000000000000000000000000000000000000000000000000000000000000000000000000000000000000000000000000000000000000000000000000000000000000000000000000000000000000000000000000000000000000000000000000000000000000000000000000000000000000000000000000000000000000000000000000000000000000000000000000000000000000000000000000000000000000000000000000000000000000000000000000800183013880808203e800a000000000000000000000000000000000000000000000000000000000000200008800000000000000008203e8a056e81f171bcc55a6ff8345e692c0f86e5b48e01b996cadc001622fb5e363b4218080a00000000000000000000000000000000000000000000000000000000000000000f86cb86a02f86701018203e88203e883015f9094ef0454d0376d1921b9a83868282725853c293ab58000c080a098ce19b365232a1f97245fa5ee4e4f179843af14fc1183d2747ec7360a90ae07a067a0a3dcbe94eb9a23d37be19f94ff35284b2d36210f9d8f11264e3ab46adafcc0c0",
                "expectException": "TransactionException.GAS_ALLOWANCE_EXCEEDED",
                "rlp_decoded": {
                    "blockHeader": {
                        "parentHash": "0x55e928187404fbc93ecddd85cd902a01843c0eabcea3ef0b1cc34d20c3604329",
                        "uncleHash": "0x1dcc4de8dec75d7aab85b567b6ccd41ad312451b948a7413f0a142fd40d49347",
                        "coinbase": "0x2adc25665018aa1fe0e6bc666dac8fc2697ff9ba",
                        "stateRoot": "0xa4cd003b09e4a7ea1a920666d3737018044fa26e38888180bd92a1358f1a66a4",
                        "transactionsTrie": "0xd997793e2073553e69f2586c21cb80f4c8ddb80708f13c398931122150c63f31",
                        "receiptTrie": "0x56e81f171bcc55a6ff8345e692c0f86e5b48e01b996cadc001622fb5e363b421",
                        "bloom": "0x00000000000000000000000000000000000000000000000000000000000000000000000000000000000000000000000000000000000000000000000000000000000000000000000000000000000000000000000000000000000000000000000000000000000000000000000000000000000000000000000000000000000000000000000000000000000000000000000000000000000000000000000000000000000000000000000000000000000000000000000000000000000000000000000000000000000000000000000000000000000000000000000000000000000000000000000000000000000000000000000000000000000000000000000000000000",
                        "difficulty": "0x00",
                        "number": "0x01",
                        "gasLimit": "0x013880",
                        "gasUsed": "0x00",
                        "timestamp": "0x03e8",
                        "extraData": "0x00",
                        "mixHash": "0x0000000000000000000000000000000000000000000000000000000000020000",
                        "nonce": "0x0000000000000000",
                        "baseFeePerGas": "0x03e8",
                        "withdrawalsRoot": "0x56e81f171bcc55a6ff8345e692c0f86e5b48e01b996cadc001622fb5e363b421",
                        "blobGasUsed": "0x00",
                        "excessBlobGas": "0x00",
                        "parentBeaconBlockRoot": "0x0000000000000000000000000000000000000000000000000000000000000000",
                        "hash": "0xfc772d6115a49be79ef17cb896a78cd2368f7f7e609ec61232938c7e90426b7f"
                    },
                    "transactions": [
                        {
                            "type": "0x02",
                            "chainId": "0x01",
                            "nonce": "0x01",
                            "maxPriorityFeePerGas": "0x03e8",
                            "maxFeePerGas": "0x03e8",
                            "gasLimit": "0x015f90",
                            "to": "0xef0454d0376d1921b9a83868282725853c293ab5",
                            "value": "0x00",
                            "data": "0x00",
                            "accessList": [],
                            "v": "0x00",
                            "r": "0x98ce19b365232a1f97245fa5ee4e4f179843af14fc1183d2747ec7360a90ae07",
                            "s": "0x67a0a3dcbe94eb9a23d37be19f94ff35284b2d36210f9d8f11264e3ab46adafc",
                            "sender": "0x8dab845a8398167a1c204f0e79540d619be8b473"
                        }
                    ],
                    "uncleHeaders": [],
                    "withdrawals": [],
                    "blocknumber": "1"
                }
            }
        ],
        "sealEngine": "NoProof",
        "_info": {
            "hash": "0x803cdcc5c28fa0fc69a96c3fe16d82803af29fa742289ee3f26c0ebf96528bf1",
            "fixture-format": "blockchain_test",
            "comment": "`execution-specs` generated test",
            "filling-transition-tool": "2.19.0",
            "description": "Ori Pomerantz qbzzt1@gmail.",
            "url": "https://github.com/ethereum/execution-specs/blob/tests-bal@v5.6.0/tests/ported_static/stEIP1559/test_low_gas_limit.py#L30",
            "metadata": {
                "opcode_count": {}
            },
            "reference-spec": "https://github.com/ethereum/EIPs/blob/master/N/A",
            "reference-spec-version": "N/A"
        }
    },
    "tests/ported_static/stEIP1559/test_low_gas_limit.py::test_low_gas_limit[fork_Cancun-blockchain_test_from_state_test--g1]": {
        "network": "Cancun",
        "genesisBlockHeader": {
            "parentHash": "0x0000000000000000000000000000000000000000000000000000000000000000",
            "uncleHash": "0x1dcc4de8dec75d7aab85b567b6ccd41ad312451b948a7413f0a142fd40d49347",
            "coinbase": "0x0000000000000000000000000000000000000000",
            "stateRoot": "0xc7296b7b1c3e659d81991757f70a7e9b0f8e2b76884a20118577b424738a1390",
            "transactionsTrie": "0x56e81f171bcc55a6ff8345e692c0f86e5b48e01b996cadc001622fb5e363b421",
            "receiptTrie": "0x56e81f171bcc55a6ff8345e692c0f86e5b48e01b996cadc001622fb5e363b421",
            "bloom": "0x00000000000000000000000000000000000000000000000000000000000000000000000000000000000000000000000000000000000000000000000000000000000000000000000000000000000000000000000000000000000000000000000000000000000000000000000000000000000000000000000000000000000000000000000000000000000000000000000000000000000000000000000000000000000000000000000000000000000000000000000000000000000000000000000000000000000000000000000000000000000000000000000000000000000000000000000000000000000000000000000000000000000000000000000000000000",
            "difficulty": "0x00",
            "number": "0x00",
            "gasLimit": "0x013880",
            "gasUsed": "0x00",
            "timestamp": "0x00",
            "extraData": "0x00",
            "mixHash": "0x0000000000000000000000000000000000000000000000000000000000000000",
            "nonce": "0x0000000000000000",
            "baseFeePerGas": "0x0476",
            "withdrawalsRoot": "0x56e81f171bcc55a6ff8345e692c0f86e5b48e01b996cadc001622fb5e363b421",
            "blobGasUsed": "0x00",
            "excessBlobGas": "0x00",
            "parentBeaconBlockRoot": "0x0000000000000000000000000000000000000000000000000000000000000000",
            "hash": "0x55e928187404fbc93ecddd85cd902a01843c0eabcea3ef0b1cc34d20c3604329"
        },
        "pre": {
            "0x000f3df6d732807ef1319fb7b8bb8522d0beac02": {
                "nonce": "0x01",
                "balance": "0x00",
                "code": "0x3373fffffffffffffffffffffffffffffffffffffffe14604d57602036146024575f5ffd5b5f35801560495762001fff810690815414603c575f5ffd5b62001fff01545f5260205ff35b5f5ffd5b62001fff42064281555f359062001fff015500",
                "storage": {}
            },
            "0xef0454d0376d1921b9a83868282725853c293ab5": {
                "nonce": "0x00",
                "balance": "0x0de0b6b3a7640000",
                "code": "0x600260005500",
                "storage": {
                    "0x00": "0x60a7"
                }
            },
            "0x8dab845a8398167a1c204f0e79540d619be8b473": {
                "nonce": "0x01",
                "balance": "0x0de0b6b3a7640000",
                "code": "0x",
                "storage": {}
            }
        },
        "postState": {
            "0x000f3df6d732807ef1319fb7b8bb8522d0beac02": {
                "nonce": "0x01",
                "balance": "0x00",
                "code": "0x3373fffffffffffffffffffffffffffffffffffffffe14604d57602036146024575f5ffd5b5f35801560495762001fff810690815414603c575f5ffd5b62001fff01545f5260205ff35b5f5ffd5b62001fff42064281555f359062001fff015500",
                "storage": {
                    "0x03e8": "0x03e8"
                }
            },
            "0xef0454d0376d1921b9a83868282725853c293ab5": {
                "nonce": "0x00",
                "balance": "0x0de0b6b3a7640000",
                "code": "0x600260005500",
                "storage": {
                    "0x00": "0x02"
                }
            },
            "0x8dab845a8398167a1c204f0e79540d619be8b473": {
                "nonce": "0x02",
                "balance": "0x0de0b6b3a5d71e70",
                "code": "0x",
                "storage": {}
            }
        },
        "lastblockhash": "0xc33e565648ebe84fe39ac39ed22e98d5ead7a3c3fef087e67bd06e9fe263ecfb",
        "config": {
            "network": "Cancun",
            "chainid": "0x01",
            "blobSchedule": {
                "Cancun": {
                    "target": "0x03",
                    "max": "0x06",
                    "baseFeeUpdateFraction": "0x32f0ed"
                }
            }
        },
        "genesisRLP": "0xf9023df90237a00000000000000000000000000000000000000000000000000000000000000000a01dcc4de8dec75d7aab85b567b6ccd41ad312451b948a7413f0a142fd40d49347940000000000000000000000000000000000000000a0c7296b7b1c3e659d81991757f70a7e9b0f8e2b76884a20118577b424738a1390a056e81f171bcc55a6ff8345e692c0f86e5b48e01b996cadc001622fb5e363b421a056e81f171bcc55a6ff8345e692c0f86e5b48e01b996cadc001622fb5e363b421b9010000000000000000000000000000000000000000000000000000000000000000000000000000000000000000000000000000000000000000000000000000000000000000000000000000000000000000000000000000000000000000000000000000000000000000000000000000000000000000000000000000000000000000000000000000000000000000000000000000000000000000000000000000000000000000000000000000000000000000000000000000000000000000000000000000000000000000000000000000000000000000000000000000000000000000000000000000000000000000000000000000000000000000000000000000000000808083013880808000a00000000000000000000000000000000000000000000000000000000000000000880000000000000000820476a056e81f171bcc55a6ff8345e692c0f86e5b48e01b996cadc001622fb5e363b4218080a00000000000000000000000000000000000000000000000000000000000000000c0c0c0",
        "blocks": [
            {
                "blockHeader": {
                    "parentHash": "0x55e928187404fbc93ecddd85cd902a01843c0eabcea3ef0b1cc34d20c3604329",
                    "uncleHash": "0x1dcc4de8dec75d7aab85b567b6ccd41ad312451b948a7413f0a142fd40d49347",
                    "coinbase": "0x2adc25665018aa1fe0e6bc666dac8fc2697ff9ba",
                    "stateRoot": "0xd38846c0801d34d24e4fa7b46a2b771364d83b62b3e5419d30a17fcef5235be6",
                    "transactionsTrie": "0xf3e8040b7a742b1f3e465ab01ff70f2473b5dd129c0a87abf2d3e1cf25ed204f",
                    "receiptTrie": "0xfa90038058b21667ccc201f9b7faca164c779761b9da8f3df9c93f6dced9afff",
                    "bloom": "0x00000000000000000000000000000000000000000000000000000000000000000000000000000000000000000000000000000000000000000000000000000000000000000000000000000000000000000000000000000000000000000000000000000000000000000000000000000000000000000000000000000000000000000000000000000000000000000000000000000000000000000000000000000000000000000000000000000000000000000000000000000000000000000000000000000000000000000000000000000000000000000000000000000000000000000000000000000000000000000000000000000000000000000000000000000000",
                    "difficulty": "0x00",
                    "number": "0x01",
                    "gasLimit": "0x013880",
                    "gasUsed": "0x659a",
                    "timestamp": "0x03e8",
                    "extraData": "0x00",
                    "mixHash": "0x0000000000000000000000000000000000000000000000000000000000020000",
                    "nonce": "0x0000000000000000",
                    "baseFeePerGas": "0x03e8",
                    "withdrawalsRoot": "0x56e81f171bcc55a6ff8345e692c0f86e5b48e01b996cadc001622fb5e363b421",
                    "blobGasUsed": "0x00",
                    "excessBlobGas": "0x00",
                    "parentBeaconBlockRoot": "0x0000000000000000000000000000000000000000000000000000000000000000",
                    "hash": "0xc33e565648ebe84fe39ac39ed22e98d5ead7a3c3fef087e67bd06e9fe263ecfb"
                },
                "transactions": [
                    {
                        "type": "0x02",
                        "chainId": "0x01",
                        "nonce": "0x01",
                        "maxPriorityFeePerGas": "0x03e8",
                        "maxFeePerGas": "0x03e8",
                        "gasLimit": "0xc350",
                        "to": "0xef0454d0376d1921b9a83868282725853c293ab5",
                        "value": "0x00",
                        "data": "0x00",
                        "accessList": [],
                        "v": "0x00",
                        "r": "0x360cec807e16d4990e24866fb764049fcffafb559c121ea46275df441c2b9130",
                        "s": "0x66d482c5bf536ba474588ea7954210437bb48851129b37fd3e2cb74f7882f73a",
                        "sender": "0x8dab845a8398167a1c204f0e79540d619be8b473"
                    }
                ],
                "uncleHeaders": [],
                "withdrawals": [],
                "receipts": [
                    {
                        "transactionHash": "0x4a7d7549f1ca0cd81677f94491c21eb20ed6284631b7e05b846d96483136b3f6",
                        "type": "0x02",
                        "cumulativeGasUsed": "0x659a",
                        "bloom": "0x00000000000000000000000000000000000000000000000000000000000000000000000000000000000000000000000000000000000000000000000000000000000000000000000000000000000000000000000000000000000000000000000000000000000000000000000000000000000000000000000000000000000000000000000000000000000000000000000000000000000000000000000000000000000000000000000000000000000000000000000000000000000000000000000000000000000000000000000000000000000000000000000000000000000000000000000000000000000000000000000000000000000000000000000000000000",
                        "logs": [],
                        "status": true,
                        "rlp": "0x02f901080182659ab9010000000000000000000000000000000000000000000000000000000000000000000000000000000000000000000000000000000000000000000000000000000000000000000000000000000000000000000000000000000000000000000000000000000000000000000000000000000000000000000000000000000000000000000000000000000000000000000000000000000000000000000000000000000000000000000000000000000000000000000000000000000000000000000000000000000000000000000000000000000000000000000000000000000000000000000000000000000000000000000000000000000000000000000000000000000000c0"
                    }
                ],
                "rlp": "0xf902adf9023ba055e928187404fbc93ecddd85cd902a01843c0eabcea3ef0b1cc34d20c3604329a01dcc4de8dec75d7aab85b567b6ccd41ad312451b948a7413f0a142fd40d49347942adc25665018aa1fe0e6bc666dac8fc2697ff9baa0d38846c0801d34d24e4fa7b46a2b771364d83b62b3e5419d30a17fcef5235be6a0f3e8040b7a742b1f3e465ab01ff70f2473b5dd129c0a87abf2d3e1cf25ed204fa0fa90038058b21667ccc201f9b7faca164c779761b9da8f3df9c93f6dced9afffb901000000000000000000000000000000000000000000000000000000000000000000000000000000000000000000000000000000000000000000000000000000000000000000000000000000000000000000000000000000000000000000000000000000000000000000000000000000000000000000000000000000000000000000000000000000000000000000000000000000000000000000000000000000000000000000000000000000000000000000000000000000000000000000000000000000000000000000000000000000000000000000000000000000000000000000000000000000000000000000000000000000000000000000000000000000000080018301388082659a8203e800a000000000000000000000000000000000000000000000000000000000000200008800000000000000008203e8a056e81f171bcc55a6ff8345e692c0f86e5b48e01b996cadc001622fb5e363b4218080a00000000000000000000000000000000000000000000000000000000000000000f86bb86902f86601018203e88203e882c35094ef0454d0376d1921b9a83868282725853c293ab58000c080a0360cec807e16d4990e24866fb764049fcffafb559c121ea46275df441c2b9130a066d482c5bf536ba474588ea7954210437bb48851129b37fd3e2cb74f7882f73ac0c0",
                "blocknumber": "1"
            }
        ],
        "sealEngine": "NoProof",
        "_info": {
            "hash": "0xa2337e773d5b24ed4b994766469563b3620ef36c20e795e1eeb506b5ff42f56a",
            "fixture-format": "blockchain_test",
            "comment": "`execution-specs` generated test",
            "filling-transition-tool": "2.19.0",
            "description": "Ori Pomerantz qbzzt1@gmail.",
            "url": "https://github.com/ethereum/execution-specs/blob/tests-bal@v5.6.0/tests/ported_static/stEIP1559/test_low_gas_limit.py#L30",
            "metadata": {
                "opcode_count": {}
            },
            "reference-spec": "https://github.com/ethereum/EIPs/blob/master/N/A",
            "reference-spec-version": "N/A"
        }
    },
    "tests/ported_static/stEIP1559/test_low_gas_limit.py::test_low_gas_limit[fork_Cancun-blockchain_test_from_state_test--g2]": {
        "network": "Cancun",
        "genesisBlockHeader": {
            "parentHash": "0x0000000000000000000000000000000000000000000000000000000000000000",
            "uncleHash": "0x1dcc4de8dec75d7aab85b567b6ccd41ad312451b948a7413f0a142fd40d49347",
            "coinbase": "0x0000000000000000000000000000000000000000",
            "stateRoot": "0xc7296b7b1c3e659d81991757f70a7e9b0f8e2b76884a20118577b424738a1390",
            "transactionsTrie": "0x56e81f171bcc55a6ff8345e692c0f86e5b48e01b996cadc001622fb5e363b421",
            "receiptTrie": "0x56e81f171bcc55a6ff8345e692c0f86e5b48e01b996cadc001622fb5e363b421",
            "bloom": "0x00000000000000000000000000000000000000000000000000000000000000000000000000000000000000000000000000000000000000000000000000000000000000000000000000000000000000000000000000000000000000000000000000000000000000000000000000000000000000000000000000000000000000000000000000000000000000000000000000000000000000000000000000000000000000000000000000000000000000000000000000000000000000000000000000000000000000000000000000000000000000000000000000000000000000000000000000000000000000000000000000000000000000000000000000000000",
            "difficulty": "0x00",
            "number": "0x00",
            "gasLimit": "0x013880",
            "gasUsed": "0x00",
            "timestamp": "0x00",
            "extraData": "0x00",
            "mixHash": "0x0000000000000000000000000000000000000000000000000000000000000000",
            "nonce": "0x0000000000000000",
            "baseFeePerGas": "0x0476",
            "withdrawalsRoot": "0x56e81f171bcc55a6ff8345e692c0f86e5b48e01b996cadc001622fb5e363b421",
            "blobGasUsed": "0x00",
            "excessBlobGas": "0x00",
            "parentBeaconBlockRoot": "0x0000000000000000000000000000000000000000000000000000000000000000",
            "hash": "0x55e928187404fbc93ecddd85cd902a01843c0eabcea3ef0b1cc34d20c3604329"
        },
        "pre": {
            "0x000f3df6d732807ef1319fb7b8bb8522d0beac02": {
                "nonce": "0x01",
                "balance": "0x00",
                "code": "0x3373fffffffffffffffffffffffffffffffffffffffe14604d57602036146024575f5ffd5b5f35801560495762001fff810690815414603c575f5ffd5b62001fff01545f5260205ff35b5f5ffd5b62001fff42064281555f359062001fff015500",
                "storage": {}
            },
            "0xef0454d0376d1921b9a83868282725853c293ab5": {
                "nonce": "0x00",
                "balance": "0x0de0b6b3a7640000",
                "code": "0x600260005500",
                "storage": {
                    "0x00": "0x60a7"
                }
            },
            "0x8dab845a8398167a1c204f0e79540d619be8b473": {
                "nonce": "0x01",
                "balance": "0x0de0b6b3a7640000",
                "code": "0x",
                "storage": {}
            }
        },
        "postState": {
            "0x000f3df6d732807ef1319fb7b8bb8522d0beac02": {
                "nonce": "0x01",
                "balance": "0x00",
                "code": "0x3373fffffffffffffffffffffffffffffffffffffffe14604d57602036146024575f5ffd5b5f35801560495762001fff810690815414603c575f5ffd5b62001fff01545f5260205ff35b5f5ffd5b62001fff42064281555f359062001fff015500",
                "storage": {
                    "0x03e8": "0x03e8"
                }
            },
            "0xef0454d0376d1921b9a83868282725853c293ab5": {
                "nonce": "0x00",
                "balance": "0x0de0b6b3a7640000",
                "code": "0x600260005500",
                "storage": {
                    "0x00": "0x60a7"
                }
            },
            "0x8dab845a8398167a1c204f0e79540d619be8b473": {
                "nonce": "0x02",
                "balance": "0x0de0b6b3a5e687c0",
                "code": "0x",
                "storage": {}
            }
        },
        "lastblockhash": "0xf35aef096318b345886d816cbf07c0ed6fafb06cdead29fb5f3da6395c2a27d1",
        "config": {
            "network": "Cancun",
            "chainid": "0x01",
            "blobSchedule": {
                "Cancun": {
                    "target": "0x03",
                    "max": "0x06",
                    "baseFeeUpdateFraction": "0x32f0ed"
                }
            }
        },
        "genesisRLP": "0xf9023df90237a00000000000000000000000000000000000000000000000000000000000000000a01dcc4de8dec75d7aab85b567b6ccd41ad312451b948a7413f0a142fd40d49347940000000000000000000000000000000000000000a0c7296b7b1c3e659d81991757f70a7e9b0f8e2b76884a20118577b424738a1390a056e81f171bcc55a6ff8345e692c0f86e5b48e01b996cadc001622fb5e363b421a056e81f171bcc55a6ff8345e692c0f86e5b48e01b996cadc001622fb5e363b421b9010000000000000000000000000000000000000000000000000000000000000000000000000000000000000000000000000000000000000000000000000000000000000000000000000000000000000000000000000000000000000000000000000000000000000000000000000000000000000000000000000000000000000000000000000000000000000000000000000000000000000000000000000000000000000000000000000000000000000000000000000000000000000000000000000000000000000000000000000000000000000000000000000000000000000000000000000000000000000000000000000000000000000000000000000000000000808083013880808000a00000000000000000000000000000000000000000000000000000000000000000880000000000000000820476a056e81f171bcc55a6ff8345e692c0f86e5b48e01b996cadc001622fb5e363b4218080a00000000000000000000000000000000000000000000000000000000000000000c0c0c0",
        "blocks": [
            {
                "blockHeader": {
                    "parentHash": "0x55e928187404fbc93ecddd85cd902a01843c0eabcea3ef0b1cc34d20c3604329",
                    "uncleHash": "0x1dcc4de8dec75d7aab85b567b6ccd41ad312451b948a7413f0a142fd40d49347",
                    "coinbase": "0x2adc25665018aa1fe0e6bc666dac8fc2697ff9ba",
                    "stateRoot": "0xb5ff85a9bb2db635fc4f9391f63d3df3bdfda03ca3074fcd7b5c9a10c07d81d6",
                    "transactionsTrie": "0x9c90722dbc447ef151f6e453fb4f43b032242c57d16700522af58eb453066a2e",
                    "receiptTrie": "0xcdb09bdc43212d9649f6928c2251c9e2857971fffe66121c5c58d9cfefe7885a",
                    "bloom": "0x00000000000000000000000000000000000000000000000000000000000000000000000000000000000000000000000000000000000000000000000000000000000000000000000000000000000000000000000000000000000000000000000000000000000000000000000000000000000000000000000000000000000000000000000000000000000000000000000000000000000000000000000000000000000000000000000000000000000000000000000000000000000000000000000000000000000000000000000000000000000000000000000000000000000000000000000000000000000000000000000000000000000000000000000000000000",
                    "difficulty": "0x00",
                    "number": "0x01",
                    "gasLimit": "0x013880",
                    "gasUsed": "0x61a8",
                    "timestamp": "0x03e8",
                    "extraData": "0x00",
                    "mixHash": "0x0000000000000000000000000000000000000000000000000000000000020000",
                    "nonce": "0x0000000000000000",
                    "baseFeePerGas": "0x03e8",
                    "withdrawalsRoot": "0x56e81f171bcc55a6ff8345e692c0f86e5b48e01b996cadc001622fb5e363b421",
                    "blobGasUsed": "0x00",
                    "excessBlobGas": "0x00",
                    "parentBeaconBlockRoot": "0x0000000000000000000000000000000000000000000000000000000000000000",
                    "hash": "0xf35aef096318b345886d816cbf07c0ed6fafb06cdead29fb5f3da6395c2a27d1"
                },
                "transactions": [
                    {
                        "type": "0x02",
                        "chainId": "0x01",
                        "nonce": "0x01",
                        "maxPriorityFeePerGas": "0x03e8",
                        "maxFeePerGas": "0x03e8",
                        "gasLimit": "0x61a8",
                        "to": "0xef0454d0376d1921b9a83868282725853c293ab5",
                        "value": "0x00",
                        "data": "0x00",
                        "accessList": [],
                        "v": "0x01",
                        "r": "0x5ce81332fd95821d41ea23d0983d2b144b43fbc08b663307136341a7adf1dc46",
                        "s": "0x4ba281ff5e3ce3b542115d577fa985d90833bbce6ad7c2ded3d7403d080001ea",
                        "sender": "0x8dab845a8398167a1c204f0e79540d619be8b473"
                    }
                ],
                "uncleHeaders": [],
                "withdrawals": [],
                "receipts": [
                    {
                        "transactionHash": "0x824360cf713bbea44b7dfc8f9068bd2b106c86109381f13995f9d72dd5d3a4b2",
                        "type": "0x02",
                        "cumulativeGasUsed": "0x61a8",
                        "bloom": "0x00000000000000000000000000000000000000000000000000000000000000000000000000000000000000000000000000000000000000000000000000000000000000000000000000000000000000000000000000000000000000000000000000000000000000000000000000000000000000000000000000000000000000000000000000000000000000000000000000000000000000000000000000000000000000000000000000000000000000000000000000000000000000000000000000000000000000000000000000000000000000000000000000000000000000000000000000000000000000000000000000000000000000000000000000000000",
                        "logs": [],
                        "status": false,
                        "rlp": "0x02f90108808261a8b9010000000000000000000000000000000000000000000000000000000000000000000000000000000000000000000000000000000000000000000000000000000000000000000000000000000000000000000000000000000000000000000000000000000000000000000000000000000000000000000000000000000000000000000000000000000000000000000000000000000000000000000000000000000000000000000000000000000000000000000000000000000000000000000000000000000000000000000000000000000000000000000000000000000000000000000000000000000000000000000000000000000000000000000000000000000000c0"
                    }
                ],
                "rlp": "0xf902adf9023ba055e928187404fbc93ecddd85cd902a01843c0eabcea3ef0b1cc34d20c3604329a01dcc4de8dec75d7aab85b567b6ccd41ad312451b948a7413f0a142fd40d49347942adc25665018aa1fe0e6bc666dac8fc2697ff9baa0b5ff85a9bb2db635fc4f9391f63d3df3bdfda03ca3074fcd7b5c9a10c07d81d6a09c90722dbc447ef151f6e453fb4f43b032242c57d16700522af58eb453066a2ea0cdb09bdc43212d9649f6928c2251c9e2857971fffe66121c5c58d9cfefe7885ab90100000000000000000000000000000000000000000000000000000000000000000000000000000000000000000000000000000000000000000000000000000000000000000000000000000000000000000000000000000000000000000000000000000000000000000000000000000000000000000000000000000000000000000000000000000000000000000000000000000000000000000000000000000000000000000000000000000000000000000000000000000000000000000000000000000000000000000000000000000000000000000000000000000000000000000000000000000000000000000000000000000000000000000000000000000000008001830138808261a88203e800a000000000000000000000000000000000000000000000000000000000000200008800000000000000008203e8a056e81f171bcc55a6ff8345e692c0f86e5b48e01b996cadc001622fb5e363b4218080a00000000000000000000000000000000000000000000000000000000000000000f86bb86902f86601018203e88203e88261a894ef0454d0376d1921b9a83868282725853c293ab58000c001a05ce81332fd95821d41ea23d0983d2b144b43fbc08b663307136341a7adf1dc46a04ba281ff5e3ce3b542115d577fa985d90833bbce6ad7c2ded3d7403d080001eac0c0",
                "blocknumber": "1"
            }
        ],
        "sealEngine": "NoProof",
        "_info": {
            "hash": "0x0ef07e17663e7571d3aa61d26d50ae642c4c666d71a6b2843d1c3b99c3f38a35",
            "fixture-format": "blockchain_test",
            "comment": "`execution-specs` generated test",
            "filling-transition-tool": "2.19.0",
            "description": "Ori Pomerantz qbzzt1@gmail.",
            "url": "https://github.com/ethereum/execution-specs/blob/tests-bal@v5.6.0/tests/ported_static/stEIP1559/test_low_gas_limit.py#L30",
            "metadata": {
                "opcode_count": {}
            },
            "reference-spec": "https://github.com/ethereum/EIPs/blob/master/N/A",
            "reference-spec-version": "N/A"
        }
    },
    "tests/ported_static/stEIP1559/test_low_gas_limit.py::test_low_gas_limit[fork_Cancun-blockchain_test_from_state_test--g3]": {
        "network": "Cancun",
        "genesisBlockHeader": {
            "parentHash": "0x0000000000000000000000000000000000000000000000000000000000000000",
            "uncleHash": "0x1dcc4de8dec75d7aab85b567b6ccd41ad312451b948a7413f0a142fd40d49347",
            "coinbase": "0x0000000000000000000000000000000000000000",
            "stateRoot": "0xc7296b7b1c3e659d81991757f70a7e9b0f8e2b76884a20118577b424738a1390",
            "transactionsTrie": "0x56e81f171bcc55a6ff8345e692c0f86e5b48e01b996cadc001622fb5e363b421",
            "receiptTrie": "0x56e81f171bcc55a6ff8345e692c0f86e5b48e01b996cadc001622fb5e363b421",
            "bloom": "0x00000000000000000000000000000000000000000000000000000000000000000000000000000000000000000000000000000000000000000000000000000000000000000000000000000000000000000000000000000000000000000000000000000000000000000000000000000000000000000000000000000000000000000000000000000000000000000000000000000000000000000000000000000000000000000000000000000000000000000000000000000000000000000000000000000000000000000000000000000000000000000000000000000000000000000000000000000000000000000000000000000000000000000000000000000000",
            "difficulty": "0x00",
            "number": "0x00",
            "gasLimit": "0x013880",
            "gasUsed": "0x00",
            "timestamp": "0x00",
            "extraData": "0x00",
            "mixHash": "0x0000000000000000000000000000000000000000000000000000000000000000",
            "nonce": "0x0000000000000000",
            "baseFeePerGas": "0x0476",
            "withdrawalsRoot": "0x56e81f171bcc55a6ff8345e692c0f86e5b48e01b996cadc001622fb5e363b421",
            "blobGasUsed": "0x00",
            "excessBlobGas": "0x00",
            "parentBeaconBlockRoot": "0x0000000000000000000000000000000000000000000000000000000000000000",
            "hash": "0x55e928187404fbc93ecddd85cd902a01843c0eabcea3ef0b1cc34d20c3604329"
        },
        "pre": {
            "0x000f3df6d732807ef1319fb7b8bb8522d0beac02": {
                "nonce": "0x01",
                "balance": "0x00",
                "code": "0x3373fffffffffffffffffffffffffffffffffffffffe14604d57602036146024575f5ffd5b5f35801560495762001fff810690815414603c575f5ffd5b62001fff01545f5260205ff35b5f5ffd5b62001fff42064281555f359062001fff015500",
                "storage": {}
            },
            "0xef0454d0376d1921b9a83868282725853c293ab5": {
                "nonce": "0x00",
                "balance": "0x0de0b6b3a7640000",
                "code": "0x600260005500",
                "storage": {
                    "0x00": "0x60a7"
                }
            },
            "0x8dab845a8398167a1c204f0e79540d619be8b473": {
                "nonce": "0x01",
                "balance": "0x0de0b6b3a7640000",
                "code": "0x",
                "storage": {}
            }
        },
        "postState": {
            "0x000f3df6d732807ef1319fb7b8bb8522d0beac02": {
                "nonce": "0x01",
                "balance": "0x00",
                "code": "0x3373fffffffffffffffffffffffffffffffffffffffe14604d57602036146024575f5ffd5b5f35801560495762001fff810690815414603c575f5ffd5b62001fff01545f5260205ff35b5f5ffd5b62001fff42064281555f359062001fff015500",
                "storage": {}
            },
            "0xef0454d0376d1921b9a83868282725853c293ab5": {
                "nonce": "0x00",
                "balance": "0x0de0b6b3a7640000",
                "code": "0x600260005500",
                "storage": {
                    "0x00": "0x60a7"
                }
            },
            "0x8dab845a8398167a1c204f0e79540d619be8b473": {
                "nonce": "0x01",
                "balance": "0x0de0b6b3a7640000",
                "code": "0x",
                "storage": {}
            }
        },
        "lastblockhash": "0x55e928187404fbc93ecddd85cd902a01843c0eabcea3ef0b1cc34d20c3604329",
        "config": {
            "network": "Cancun",
            "chainid": "0x01",
            "blobSchedule": {
                "Cancun": {
                    "target": "0x03",
                    "max": "0x06",
                    "baseFeeUpdateFraction": "0x32f0ed"
                }
            }
        },
        "genesisRLP": "0xf9023df90237a00000000000000000000000000000000000000000000000000000000000000000a01dcc4de8dec75d7aab85b567b6ccd41ad312451b948a7413f0a142fd40d49347940000000000000000000000000000000000000000a0c7296b7b1c3e659d81991757f70a7e9b0f8e2b76884a20118577b424738a1390a056e81f171bcc55a6ff8345e692c0f86e5b48e01b996cadc001622fb5e363b421a056e81f171bcc55a6ff8345e692c0f86e5b48e01b996cadc001622fb5e363b421b9010000000000000000000000000000000000000000000000000000000000000000000000000000000000000000000000000000000000000000000000000000000000000000000000000000000000000000000000000000000000000000000000000000000000000000000000000000000000000000000000000000000000000000000000000000000000000000000000000000000000000000000000000000000000000000000000000000000000000000000000000000000000000000000000000000000000000000000000000000000000000000000000000000000000000000000000000000000000000000000000000000000000000000000000000000000000808083013880808000a00000000000000000000000000000000000000000000000000000000000000000880000000000000000820476a056e81f171bcc55a6ff8345e692c0f86e5b48e01b996cadc001622fb5e363b4218080a00000000000000000000000000000000000000000000000000000000000000000c0c0c0",
        "blocks": [
            {
                "rlp": "0xf902abf90239a055e928187404fbc93ecddd85cd902a01843c0eabcea3ef0b1cc34d20c3604329a01dcc4de8dec75d7aab85b567b6ccd41ad312451b948a7413f0a142fd40d49347942adc25665018aa1fe0e6bc666dac8fc2697ff9baa0a4cd003b09e4a7ea1a920666d3737018044fa26e38888180bd92a1358f1a66a4a0a20436f1189d755ec71e1b685b442b755c39c27dd413a57c75ed4bab55ccd23ba056e81f171bcc55a6ff8345e692c0f86e5b48e01b996cadc001622fb5e363b421b9010000000000000000000000000000000000000000000000000000000000000000000000000000000000000000000000000000000000000000000000000000000000000000000000000000000000000000000000000000000000000000000000000000000000000000000000000000000000000000000000000000000000000000000000000000000000000000000000000000000000000000000000000000000000000000000000000000000000000000000000000000000000000000000000000000000000000000000000000000000000000000000000000000000000000000000000000000000000000000000000000000000000000000000000000000000000800183013880808203e800a000000000000000000000000000000000000000000000000000000000000200008800000000000000008203e8a056e81f171bcc55a6ff8345e692c0f86e5b48e01b996cadc001622fb5e363b4218080a00000000000000000000000000000000000000000000000000000000000000000f86bb86902f86601018203e88203e8824e2094ef0454d0376d1921b9a83868282725853c293ab58000c080a064f96eb0981a78e499926e6abcd174959bed18099a163204aa8424f2084eb160a00c27e89c825aa5631ddea1ef973d16b6482c3742f6b948fc5c94ff85184ae5bdc0c0",
                "expectException": "TransactionException.INTRINSIC_GAS_TOO_LOW",
                "rlp_decoded": {
                    "blockHeader": {
                        "parentHash": "0x55e928187404fbc93ecddd85cd902a01843c0eabcea3ef0b1cc34d20c3604329",
                        "uncleHash": "0x1dcc4de8dec75d7aab85b567b6ccd41ad312451b948a7413f0a142fd40d49347",
                        "coinbase": "0x2adc25665018aa1fe0e6bc666dac8fc2697ff9ba",
                        "stateRoot": "0xa4cd003b09e4a7ea1a920666d3737018044fa26e38888180bd92a1358f1a66a4",
                        "transactionsTrie": "0xa20436f1189d755ec71e1b685b442b755c39c27dd413a57c75ed4bab55ccd23b",
                        "receiptTrie": "0x56e81f171bcc55a6ff8345e692c0f86e5b48e01b996cadc001622fb5e363b421",
                        "bloom": "0x00000000000000000000000000000000000000000000000000000000000000000000000000000000000000000000000000000000000000000000000000000000000000000000000000000000000000000000000000000000000000000000000000000000000000000000000000000000000000000000000000000000000000000000000000000000000000000000000000000000000000000000000000000000000000000000000000000000000000000000000000000000000000000000000000000000000000000000000000000000000000000000000000000000000000000000000000000000000000000000000000000000000000000000000000000000",
                        "difficulty": "0x00",
                        "number": "0x01",
                        "gasLimit": "0x013880",
                        "gasUsed": "0x00",
                        "timestamp": "0x03e8",
                        "extraData": "0x00",
                        "mixHash": "0x0000000000000000000000000000000000000000000000000000000000020000",
                        "nonce": "0x0000000000000000",
                        "baseFeePerGas": "0x03e8",
                        "withdrawalsRoot": "0x56e81f171bcc55a6ff8345e692c0f86e5b48e01b996cadc001622fb5e363b421",
                        "blobGasUsed": "0x00",
                        "excessBlobGas": "0x00",
                        "parentBeaconBlockRoot": "0x0000000000000000000000000000000000000000000000000000000000000000",
                        "hash": "0x3242a1b48cc3292b3840fc07da5f7207c1eeba2c518a95437276caee080e4252"
                    },
                    "transactions": [
                        {
                            "type": "0x02",
                            "chainId": "0x01",
                            "nonce": "0x01",
                            "maxPriorityFeePerGas": "0x03e8",
                            "maxFeePerGas": "0x03e8",
                            "gasLimit": "0x4e20",
                            "to": "0xef0454d0376d1921b9a83868282725853c293ab5",
                            "value": "0x00",
                            "data": "0x00",
                            "accessList": [],
                            "v": "0x00",
                            "r": "0x64f96eb0981a78e499926e6abcd174959bed18099a163204aa8424f2084eb160",
                            "s": "0x0c27e89c825aa5631ddea1ef973d16b6482c3742f6b948fc5c94ff85184ae5bd",
                            "sender": "0x8dab845a8398167a1c204f0e79540d619be8b473"
                        }
                    ],
                    "uncleHeaders": [],
                    "withdrawals": [],
                    "blocknumber": "1"
                }
            }
        ],
        "sealEngine": "NoProof",
        "_info": {
            "hash": "0xb49cd3279e18c684e07ea5084a345bdd58c643c8bb786829487f1e6fbce79467",
            "fixture-format": "blockchain_test",
            "comment": "`execution-specs` generated test",
            "filling-transition-tool": "2.19.0",
            "description": "Ori Pomerantz qbzzt1@gmail.",
            "url": "https://github.com/ethereum/execution-specs/blob/tests-bal@v5.6.0/tests/ported_static/stEIP1559/test_low_gas_limit.py#L30",
            "metadata": {
                "opcode_count": {}
            },
            "reference-spec": "https://github.com/ethereum/EIPs/blob/master/N/A",
            "reference-spec-version": "N/A"
        }
    }
}