{
    "tests/static/state_tests/stRandom2/randomStatetest524Filler.json::randomStatetest524[fork_Cancun-state_test-]": {
        "env": {
            "currentCoinbase": "0x1375a2d95e712b69ef4e4f6c7454bcd1a5375e98",
            "currentGasLimit": "0x7fffffffffffffff",
            "currentNumber": "0x01",
            "currentTimestamp": "0x03e8",
            "currentRandom": "0x0000000000000000000000000000000000000000000000000000000000020000",
            "currentDifficulty": "0x00",
            "currentBaseFee": "0x0a",
            "currentExcessBlobGas": "0x00"
        },
        "pre": {
            "0x45cc10d60d163ab8b3c609fc6149f8d16c4aa050": {
                "nonce": "0x00",
                "balance": "0x0de0b6b3a7640000",
                "code": "0x",
                "storage": {}
            },
            "0x1375a2d95e712b69ef4e4f6c7454bcd1a5375e98": {
                "nonce": "0x00",
                "balance": "0x2e",
                "code": "0x6000355415600957005b60203560003555",
                "storage": {}
            },
            "0x1375a2d95e712b69ef4e4f6c7454bcd1a5375f98": {
                "nonce": "0x00",
                "balance": "0x00",
                "code": "0x457ffffffffffffffffffffffffffffffffffffffffffffffffffffffffffffffffe427f000000000000000000000000ffffffffffffffffffffffffffffffffffffffff357f000000000000000000000000ffffffffffffffffffffffffffffffffffffffff7f00000000000000000000000000000000000000000000000000000000000000007f000000000000000000000000000000000000000000000000000000000000000034208a340a9e5560005155",
                "storage": {}
            }
        },
        "transaction": {
            "nonce": "0x00",
            "gasPrice": "0x0a",
            "gasLimit": [
                "0x0186a0"
            ],
            "to": "0x1375a2d95e712b69ef4e4f6c7454bcd1a5375f98",
            "value": [
                "0x754eb077"
            ],
            "data": [
                "0x457ffffffffffffffffffffffffffffffffffffffffffffffffffffffffffffffffe427f000000000000000000000000ffffffffffffffffffffffffffffffffffffffff357f000000000000000000000000ffffffffffffffffffffffffffffffffffffffff7f00000000000000000000000000000000000000000000000000000000000000007f000000000000000000000000000000000000000000000000000000000000000034208a340a9e"
            ],
            "sender": "0x45cc10d60d163ab8b3c609fc6149f8d16c4aa050",
            "secretKey": "0x1be13b9ebced091597405b391375a2d95e712b69ef4e4f6c7454bcd1a5375e98"
        },
        "post": {
            "Cancun": [
                {
                    "hash": "0xfd50858fc6a9d00ceed6c08f1fc1b645fbe6af99323f039f8c55d5fa8520e94d",
                    "logs": "0x1dcc4de8dec75d7aab85b567b6ccd41ad312451b948a7413f0a142fd40d49347",
                    "txbytes": "0xf90113800a830186a0941375a2d95e712b69ef4e4f6c7454bcd1a5375f9884754eb077b8ae457ffffffffffffffffffffffffffffffffffffffffffffffffffffffffffffffffe427f000000000000000000000000ffffffffffffffffffffffffffffffffffffffff357f000000000000000000000000ffffffffffffffffffffffffffffffffffffffff7f00000000000000000000000000000000000000000000000000000000000000007f000000000000000000000000000000000000000000000000000000000000000034208a340a9e25a02b5d0d385784a1c3d96160d262351fc4a5db45ead1ff7b26501207487cbfaa42a03da4a48cf94ff642b5d9aa0e2c979815ff5b026746e6167ac0a0d812fc66dfb0",
                    "indexes": {
                        "data": 0,
                        "gas": 0,
                        "value": 0
                    },
                    "state": {
                        "0x45cc10d60d163ab8b3c609fc6149f8d16c4aa050": {
                            "nonce": "0x01",
                            "balance": "0x0de0b6b3a754bdc0",
                            "code": "0x",
                            "storage": {}
                        },
                        "0x1375a2d95e712b69ef4e4f6c7454bcd1a5375e98": {
                            "nonce": "0x00",
                            "balance": "0x2e",
                            "code": "0x6000355415600957005b60203560003555",
                            "storage": {}
                        },
                        "0x1375a2d95e712b69ef4e4f6c7454bcd1a5375f98": {
                            "nonce": "0x00",
                            "balance": "0x00",
                            "code": "0x457ffffffffffffffffffffffffffffffffffffffffffffffffffffffffffffffffe427f000000000000000000000000ffffffffffffffffffffffffffffffffffffffff357f000000000000000000000000ffffffffffffffffffffffffffffffffffffffff7f00000000000000000000000000000000000000000000000000000000000000007f000000000000000000000000000000000000000000000000000000000000000034208a340a9e5560005155",
                            "storage": {}
                        }
                    }
                }
            ]
        },
        "config": {
            "blobSchedule": {
                "Cancun": {
                    "target": "0x03",
                    "max": "0x06",
                    "baseFeeUpdateFraction": "0x32f0ed"
                }
            },
            "chainid": "0x01"
        },
        "_info": {
            "hash": "0xb7894470fce04841a626b959c608bbcdfcf17362d23e32822934d40105e30e27",
            "comment": "`execution-spec-tests` generated test",
            "filling-transition-tool": "ethereum-spec-evm-resolver 0.0.5",
            "description": "No description available - add a docstring to the python test class or function.",
            "url": "",
            "fixture-format": "state_test",
            "eels-resolution": {
                "git-url": "https://github.com/marioevz/execution-specs.git",
                "branch": "forks/bpo1",
                "commit": "3387e5f4aedfe99becfdc39b444d6371e25e0924"
            }
        }
    },
    "tests/static/state_tests/stRandom2/randomStatetest524Filler.json::randomStatetest524[fork_Osaka-state_test-]": {
        "env": {
            "currentCoinbase": "0x1375a2d95e712b69ef4e4f6c7454bcd1a5375e98",
            "currentGasLimit": "0x7fffffffffffffff",
            "currentNumber": "0x01",
            "currentTimestamp": "0x03e8",
            "currentRandom": "0x0000000000000000000000000000000000000000000000000000000000020000",
            "currentDifficulty": "0x00",
            "currentBaseFee": "0x0a",
            "currentExcessBlobGas": "0x00"
        },
        "pre": {
            "0x45cc10d60d163ab8b3c609fc6149f8d16c4aa050": {
                "nonce": "0x00",
                "balance": "0x0de0b6b3a7640000",
                "code": "0x",
                "storage": {}
            },
            "0x1375a2d95e712b69ef4e4f6c7454bcd1a5375e98": {
                "nonce": "0x00",
                "balance": "0x2e",
                "code": "0x6000355415600957005b60203560003555",
                "storage": {}
            },
            "0x1375a2d95e712b69ef4e4f6c7454bcd1a5375f98": {
                "nonce": "0x00",
                "balance": "0x00",
                "code": "0x457ffffffffffffffffffffffffffffffffffffffffffffffffffffffffffffffffe427f000000000000000000000000ffffffffffffffffffffffffffffffffffffffff357f000000000000000000000000ffffffffffffffffffffffffffffffffffffffff7f00000000000000000000000000000000000000000000000000000000000000007f000000000000000000000000000000000000000000000000000000000000000034208a340a9e5560005155",
                "storage": {}
            }
        },
        "transaction": {
            "nonce": "0x00",
            "gasPrice": "0x0a",
            "gasLimit": [
                "0x0186a0"
            ],
            "to": "0x1375a2d95e712b69ef4e4f6c7454bcd1a5375f98",
            "value": [
                "0x754eb077"
            ],
            "data": [
                "0x457ffffffffffffffffffffffffffffffffffffffffffffffffffffffffffffffffe427f000000000000000000000000ffffffffffffffffffffffffffffffffffffffff357f000000000000000000000000ffffffffffffffffffffffffffffffffffffffff7f00000000000000000000000000000000000000000000000000000000000000007f000000000000000000000000000000000000000000000000000000000000000034208a340a9e"
            ],
            "sender": "0x45cc10d60d163ab8b3c609fc6149f8d16c4aa050",
            "secretKey": "0x1be13b9ebced091597405b391375a2d95e712b69ef4e4f6c7454bcd1a5375e98"
        },
        "post": {
            "Osaka": [
                {
                    "hash": "0xfd50858fc6a9d00ceed6c08f1fc1b645fbe6af99323f039f8c55d5fa8520e94d",
                    "logs": "0x1dcc4de8dec75d7aab85b567b6ccd41ad312451b948a7413f0a142fd40d49347",
                    "txbytes": "0xf90113800a830186a0941375a2d95e712b69ef4e4f6c7454bcd1a5375f9884754eb077b8ae457ffffffffffffffffffffffffffffffffffffffffffffffffffffffffffffffffe427f000000000000000000000000ffffffffffffffffffffffffffffffffffffffff357f000000000000000000000000ffffffffffffffffffffffffffffffffffffffff7f00000000000000000000000000000000000000000000000000000000000000007f000000000000000000000000000000000000000000000000000000000000000034208a340a9e25a02b5d0d385784a1c3d96160d262351fc4a5db45ead1ff7b26501207487cbfaa42a03da4a48cf94ff642b5d9aa0e2c979815ff5b026746e6167ac0a0d812fc66dfb0",
                    "indexes": {
                        "data": 0,
                        "gas": 0,
                        "value": 0
                    },
                    "state": {
                        "0x45cc10d60d163ab8b3c609fc6149f8d16c4aa050": {
                            "nonce": "0x01",
                            "balance": "0x0de0b6b3a754bdc0",
                            "code": "0x",
                            "storage": {}
                        },
                        "0x1375a2d95e712b69ef4e4f6c7454bcd1a5375e98": {
                            "nonce": "0x00",
                            "balance": "0x2e",
                            "code": "0x6000355415600957005b60203560003555",
                            "storage": {}
                        },
                        "0x1375a2d95e712b69ef4e4f6c7454bcd1a5375f98": {
                            "nonce": "0x00",
                            "balance": "0x00",
                            "code": "0x457ffffffffffffffffffffffffffffffffffffffffffffffffffffffffffffffffe427f000000000000000000000000ffffffffffffffffffffffffffffffffffffffff357f000000000000000000000000ffffffffffffffffffffffffffffffffffffffff7f00000000000000000000000000000000000000000000000000000000000000007f000000000000000000000000000000000000000000000000000000000000000034208a340a9e5560005155",
                            "storage": {}
                        }
                    }
                }
            ]
        },
        "config": {
            "blobSchedule": {
                "Cancun": {
                    "target": "0x03",
                    "max": "0x06",
                    "baseFeeUpdateFraction": "0x32f0ed"
                },
                "Prague": {
                    "target": "0x06",
                    "max": "0x09",
                    "baseFeeUpdateFraction": "0x4c6964"
                },
                "Osaka": {
                    "target": "0x06",
                    "max": "0x09",
                    "baseFeeUpdateFraction": "0x4c6964"
                }
            },
            "chainid": "0x01"
        },
        "_info": {
            "hash": "0x54db1c2f2b8b901d20388084432663819a07ef3834271433bbfd6bb4678965cd",
            "comment": "`execution-spec-tests` generated test",
            "filling-transition-tool": "ethereum-spec-evm-resolver 0.0.5",
            "description": "No description available - add a docstring to the python test class or function.",
            "url": "",
            "fixture-format": "state_test",
            "eels-resolution": {
                "git-url": "https://github.com/marioevz/execution-specs.git",
                "branch": "forks/bpo1",
                "commit": "3387e5f4aedfe99becfdc39b444d6371e25e0924"
            }
        }
    },
    "tests/static/state_tests/stRandom2/randomStatetest524Filler.json::randomStatetest524[fork_Prague-state_test-]": {
        "env": {
            "currentCoinbase": "0x1375a2d95e712b69ef4e4f6c7454bcd1a5375e98",
            "currentGasLimit": "0x7fffffffffffffff",
            "currentNumber": "0x01",
            "currentTimestamp": "0x03e8",
            "currentRandom": "0x0000000000000000000000000000000000000000000000000000000000020000",
            "currentDifficulty": "0x00",
            "currentBaseFee": "0x0a",
            "currentExcessBlobGas": "0x00"
        },
        "pre": {
            "0x45cc10d60d163ab8b3c609fc6149f8d16c4aa050": {
                "nonce": "0x00",
                "balance": "0x0de0b6b3a7640000",
                "code": "0x",
                "storage": {}
            },
            "0x1375a2d95e712b69ef4e4f6c7454bcd1a5375e98": {
                "nonce": "0x00",
                "balance": "0x2e",
                "code": "0x6000355415600957005b60203560003555",
                "storage": {}
            },
            "0x1375a2d95e712b69ef4e4f6c7454bcd1a5375f98": {
                "nonce": "0x00",
                "balance": "0x00",
                "code": "0x457ffffffffffffffffffffffffffffffffffffffffffffffffffffffffffffffffe427f000000000000000000000000ffffffffffffffffffffffffffffffffffffffff357f000000000000000000000000ffffffffffffffffffffffffffffffffffffffff7f00000000000000000000000000000000000000000000000000000000000000007f000000000000000000000000000000000000000000000000000000000000000034208a340a9e5560005155",
                "storage": {}
            }
        },
        "transaction": {
            "nonce": "0x00",
            "gasPrice": "0x0a",
            "gasLimit": [
                "0x0186a0"
            ],
            "to": "0x1375a2d95e712b69ef4e4f6c7454bcd1a5375f98",
            "value": [
                "0x754eb077"
            ],
            "data": [
                "0x457ffffffffffffffffffffffffffffffffffffffffffffffffffffffffffffffffe427f000000000000000000000000ffffffffffffffffffffffffffffffffffffffff357f000000000000000000000000ffffffffffffffffffffffffffffffffffffffff7f00000000000000000000000000000000000000000000000000000000000000007f000000000000000000000000000000000000000000000000000000000000000034208a340a9e"
            ],
            "sender": "0x45cc10d60d163ab8b3c609fc6149f8d16c4aa050",
            "secretKey": "0x1be13b9ebced091597405b391375a2d95e712b69ef4e4f6c7454bcd1a5375e98"
        },
        "post": {
            "Prague": [
                {
                    "hash": "0xfd50858fc6a9d00ceed6c08f1fc1b645fbe6af99323f039f8c55d5fa8520e94d",
                    "logs": "0x1dcc4de8dec75d7aab85b567b6ccd41ad312451b948a7413f0a142fd40d49347",
                    "txbytes": "0xf90113800a830186a0941375a2d95e712b69ef4e4f6c7454bcd1a5375f9884754eb077b8ae457ffffffffffffffffffffffffffffffffffffffffffffffffffffffffffffffffe427f000000000000000000000000ffffffffffffffffffffffffffffffffffffffff357f000000000000000000000000ffffffffffffffffffffffffffffffffffffffff7f00000000000000000000000000000000000000000000000000000000000000007f000000000000000000000000000000000000000000000000000000000000000034208a340a9e25a02b5d0d385784a1c3d96160d262351fc4a5db45ead1ff7b26501207487cbfaa42a03da4a48cf94ff642b5d9aa0e2c979815ff5b026746e6167ac0a0d812fc66dfb0",
                    "indexes": {
                        "data": 0,
                        "gas": 0,
                        "value": 0
                    },
                    "state": {
                        "0x45cc10d60d163ab8b3c609fc6149f8d16c4aa050": {
                            "nonce": "0x01",
                            "balance": "0x0de0b6b3a754bdc0",
                            "code": "0x",
                            "storage": {}
                        },
                        "0x1375a2d95e712b69ef4e4f6c7454bcd1a5375e98": {
                            "nonce": "0x00",
                            "balance": "0x2e",
                            "code": "0x6000355415600957005b60203560003555",
                            "storage": {}
                        },
                        "0x1375a2d95e712b69ef4e4f6c7454bcd1a5375f98": {
                            "nonce": "0x00",
                            "balance": "0x00",
                            "code": "0x457ffffffffffffffffffffffffffffffffffffffffffffffffffffffffffffffffe427f000000000000000000000000ffffffffffffffffffffffffffffffffffffffff357f000000000000000000000000ffffffffffffffffffffffffffffffffffffffff7f00000000000000000000000000000000000000000000000000000000000000007f000000000000000000000000000000000000000000000000000000000000000034208a340a9e5560005155",
                            "storage": {}
                        }
                    }
                }
            ]
        },
        "config": {
            "blobSchedule": {
                "Cancun": {
                    "target": "0x03",
                    "max": "0x06",
                    "baseFeeUpdateFraction": "0x32f0ed"
                },
                "Prague": {
                    "target": "0x06",
                    "max": "0x09",
                    "baseFeeUpdateFraction": "0x4c6964"
                }
            },
            "chainid": "0x01"
        },
        "_info": {
            "hash": "0x8bea3799d9d10172720c5ec8f34e2fe52faf80c712886aee9c52196e87c77e7f",
            "comment": "`execution-spec-tests` generated test",
            "filling-transition-tool": "ethereum-spec-evm-resolver 0.0.5",
            "description": "No description available - add a docstring to the python test class or function.",
            "url": "",
            "fixture-format": "state_test",
            "eels-resolution": {
                "git-url": "https://github.com/marioevz/execution-specs.git",
                "branch": "forks/bpo1",
                "commit": "3387e5f4aedfe99becfdc39b444d6371e25e0924"
            }
        }
    }
}