{
    "tests/static/state_tests/stRandom2/randomStatetest567Filler.json::randomStatetest567[fork_Cancun-state_test-]": {
        "env": {
            "currentCoinbase": "0x1b63c00a34c543f8f13ca5f892528d7ec5a50586",
            "currentGasLimit": "0x7fffffffffffffff",
            "currentNumber": "0x01",
            "currentTimestamp": "0x03e8",
            "currentRandom": "0x0000000000000000000000000000000000000000000000000000000000020000",
            "currentDifficulty": "0x00",
            "currentBaseFee": "0x0a",
            "currentExcessBlobGas": "0x00"
        },
        "pre": {
            "0xf165e25487ea76b3008ece077804844a41c406e5": {
                "nonce": "0x00",
                "balance": "0x0de0b6b3a7640000",
                "code": "0x",
                "storage": {}
            },
            "0x1b63c00a34c543f8f13ca5f892528d7ec5a50586": {
                "nonce": "0x00",
                "balance": "0x2e",
                "code": "0x6000355415600957005b60203560003555",
                "storage": {}
            },
            "0x1b63c00a34c543f8f13ca5f892528d7ec5a50686": {
                "nonce": "0x00",
                "balance": "0x00",
                "code": "0x7ffffffffffffffffffffffffffffffffffffffffffffffffffffffffffffffffe7f000000000000000000000000000000000000000000000000000000000000c3507fffffffffffffffffffffffffffffffffffffffffffffffffffffffffffffffff7f00000000000000000000000100000000000000000000000000000000000000007f00000000000000000000000000000000000000000000000000000000000000017e7f00000000000000000000000000000000000000000000000000000000000000017ffffffffffffffffffffffffffffffffffffffffffffffffffffffffffffffffe906697998df1160b",
                "storage": {}
            }
        },
        "transaction": {
            "nonce": "0x00",
            "gasPrice": "0x0a",
            "gasLimit": [
                "0x0186a0"
            ],
            "to": "0x1b63c00a34c543f8f13ca5f892528d7ec5a50686",
            "value": [
                "0x23ca7b4e"
            ],
            "data": [
                "0x7ffffffffffffffffffffffffffffffffffffffffffffffffffffffffffffffffe7f000000000000000000000000000000000000000000000000000000000000c3507fffffffffffffffffffffffffffffffffffffffffffffffffffffffffffffffff7f00000000000000000000000100000000000000000000000000000000000000007f00000000000000000000000000000000000000000000000000000000000000017e7f00000000000000000000000000000000000000000000000000000000000000017ffffffffffffffffffffffffffffffffffffffffffffffffffffffffffffffffe906697998df1160b"
            ],
            "sender": "0xf165e25487ea76b3008ece077804844a41c406e5",
            "secretKey": "0xc0f5b3c10e9a7c380928e6a81b63c00a34c543f8f13ca5f892528d7ec5a50586"
        },
        "post": {
            "Cancun": [
                {
                    "hash": "0x7619856783f6a2351e9a7875774fb9e629bccebb91c06379ac40e8efee46b46c",
                    "logs": "0x1dcc4de8dec75d7aab85b567b6ccd41ad312451b948a7413f0a142fd40d49347",
                    "txbytes": "0xf90155800a830186a0941b63c00a34c543f8f13ca5f892528d7ec5a506868423ca7b4eb8f07ffffffffffffffffffffffffffffffffffffffffffffffffffffffffffffffffe7f000000000000000000000000000000000000000000000000000000000000c3507fffffffffffffffffffffffffffffffffffffffffffffffffffffffffffffffff7f00000000000000000000000100000000000000000000000000000000000000007f00000000000000000000000000000000000000000000000000000000000000017e7f00000000000000000000000000000000000000000000000000000000000000017ffffffffffffffffffffffffffffffffffffffffffffffffffffffffffffffffe906697998df1160b25a0d7d507ffdff33c7cfec31d4449854cb70e8d0e74a4c44f894313e87c3c225991a017ebc11e5290427486aa230374ffc594eb52357f3e312be1398ce80aa103c86b",
                    "indexes": {
                        "data": 0,
                        "gas": 0,
                        "value": 0
                    },
                    "state": {
                        "0xf165e25487ea76b3008ece077804844a41c406e5": {
                            "nonce": "0x01",
                            "balance": "0x0de0b6b38395f356",
                            "code": "0x",
                            "storage": {}
                        },
                        "0x1b63c00a34c543f8f13ca5f892528d7ec5a50586": {
                            "nonce": "0x00",
                            "balance": "0x2e",
                            "code": "0x6000355415600957005b60203560003555",
                            "storage": {}
                        },
                        "0x1b63c00a34c543f8f13ca5f892528d7ec5a50686": {
                            "nonce": "0x00",
                            "balance": "0x23ca7b4e",
                            "code": "0x7ffffffffffffffffffffffffffffffffffffffffffffffffffffffffffffffffe7f000000000000000000000000000000000000000000000000000000000000c3507fffffffffffffffffffffffffffffffffffffffffffffffffffffffffffffffff7f00000000000000000000000100000000000000000000000000000000000000007f00000000000000000000000000000000000000000000000000000000000000017e7f00000000000000000000000000000000000000000000000000000000000000017ffffffffffffffffffffffffffffffffffffffffffffffffffffffffffffffffe906697998df1160b",
                            "storage": {}
                        }
                    }
                }
            ]
        },
        "config": {
            "blobSchedule": {
                "Cancun": {
                    "target": "0x03",
                    "max": "0x06",
                    "baseFeeUpdateFraction": "0x32f0ed"
                }
            },
            "chainid": "0x01"
        },
        "_info": {
            "hash": "0x14fc740c541b38fae9754b9c7565aff5ba51fc2576a18f42b4fe052c4f0467d4",
            "comment": "`execution-specs` generated test",
            "filling-transition-tool": "2.18.0rc6",
            "description": "No description available - add a docstring to the python test class or function.",
            "url": "",
            "fixture-format": "state_test"
        }
    },
    "tests/static/state_tests/stRandom2/randomStatetest567Filler.json::randomStatetest567[fork_Osaka-state_test-]": {
        "env": {
            "currentCoinbase": "0x1b63c00a34c543f8f13ca5f892528d7ec5a50586",
            "currentGasLimit": "0x7fffffffffffffff",
            "currentNumber": "0x01",
            "currentTimestamp": "0x03e8",
            "currentRandom": "0x0000000000000000000000000000000000000000000000000000000000020000",
            "currentDifficulty": "0x00",
            "currentBaseFee": "0x0a",
            "currentExcessBlobGas": "0x00"
        },
        "pre": {
            "0xf165e25487ea76b3008ece077804844a41c406e5": {
                "nonce": "0x00",
                "balance": "0x0de0b6b3a7640000",
                "code": "0x",
                "storage": {}
            },
            "0x1b63c00a34c543f8f13ca5f892528d7ec5a50586": {
                "nonce": "0x00",
                "balance": "0x2e",
                "code": "0x6000355415600957005b60203560003555",
                "storage": {}
            },
            "0x1b63c00a34c543f8f13ca5f892528d7ec5a50686": {
                "nonce": "0x00",
                "balance": "0x00",
                "code": "0x7ffffffffffffffffffffffffffffffffffffffffffffffffffffffffffffffffe7f000000000000000000000000000000000000000000000000000000000000c3507fffffffffffffffffffffffffffffffffffffffffffffffffffffffffffffffff7f00000000000000000000000100000000000000000000000000000000000000007f00000000000000000000000000000000000000000000000000000000000000017e7f00000000000000000000000000000000000000000000000000000000000000017ffffffffffffffffffffffffffffffffffffffffffffffffffffffffffffffffe906697998df1160b",
                "storage": {}
            }
        },
        "transaction": {
            "nonce": "0x00",
            "gasPrice": "0x0a",
            "gasLimit": [
                "0x0186a0"
            ],
            "to": "0x1b63c00a34c543f8f13ca5f892528d7ec5a50686",
            "value": [
                "0x23ca7b4e"
            ],
            "data": [
                "0x7ffffffffffffffffffffffffffffffffffffffffffffffffffffffffffffffffe7f000000000000000000000000000000000000000000000000000000000000c3507fffffffffffffffffffffffffffffffffffffffffffffffffffffffffffffffff7f00000000000000000000000100000000000000000000000000000000000000007f00000000000000000000000000000000000000000000000000000000000000017e7f00000000000000000000000000000000000000000000000000000000000000017ffffffffffffffffffffffffffffffffffffffffffffffffffffffffffffffffe906697998df1160b"
            ],
            "sender": "0xf165e25487ea76b3008ece077804844a41c406e5",
            "secretKey": "0xc0f5b3c10e9a7c380928e6a81b63c00a34c543f8f13ca5f892528d7ec5a50586"
        },
        "post": {
            "Osaka": [
                {
                    "hash": "0x38d7ef0d4e0f214245316d62db7e826285e11c75a29c5452ba7a466af37f5103",
                    "logs": "0x1dcc4de8dec75d7aab85b567b6ccd41ad312451b948a7413f0a142fd40d49347",
                    "txbytes": "0xf90155800a830186a0941b63c00a34c543f8f13ca5f892528d7ec5a506868423ca7b4eb8f07ffffffffffffffffffffffffffffffffffffffffffffffffffffffffffffffffe7f000000000000000000000000000000000000000000000000000000000000c3507fffffffffffffffffffffffffffffffffffffffffffffffffffffffffffffffff7f00000000000000000000000100000000000000000000000000000000000000007f00000000000000000000000000000000000000000000000000000000000000017e7f00000000000000000000000000000000000000000000000000000000000000017ffffffffffffffffffffffffffffffffffffffffffffffffffffffffffffffffe906697998df1160b25a0d7d507ffdff33c7cfec31d4449854cb70e8d0e74a4c44f894313e87c3c225991a017ebc11e5290427486aa230374ffc594eb52357f3e312be1398ce80aa103c86b",
                    "indexes": {
                        "data": 0,
                        "gas": 0,
                        "value": 0
                    },
                    "state": {
                        "0xf165e25487ea76b3008ece077804844a41c406e5": {
                            "nonce": "0x01",
                            "balance": "0x0de0b6b383956986",
                            "code": "0x",
                            "storage": {}
                        },
                        "0x1b63c00a34c543f8f13ca5f892528d7ec5a50586": {
                            "nonce": "0x00",
                            "balance": "0x2e",
                            "code": "0x6000355415600957005b60203560003555",
                            "storage": {}
                        },
                        "0x1b63c00a34c543f8f13ca5f892528d7ec5a50686": {
                            "nonce": "0x00",
                            "balance": "0x23ca7b4e",
                            "code": "0x7ffffffffffffffffffffffffffffffffffffffffffffffffffffffffffffffffe7f000000000000000000000000000000000000000000000000000000000000c3507fffffffffffffffffffffffffffffffffffffffffffffffffffffffffffffffff7f00000000000000000000000100000000000000000000000000000000000000007f00000000000000000000000000000000000000000000000000000000000000017e7f00000000000000000000000000000000000000000000000000000000000000017ffffffffffffffffffffffffffffffffffffffffffffffffffffffffffffffffe906697998df1160b",
                            "storage": {}
                        }
                    }
                }
            ]
        },
        "config": {
            "blobSchedule": {
                "Cancun": {
                    "target": "0x03",
                    "max": "0x06",
                    "baseFeeUpdateFraction": "0x32f0ed"
                },
                "Prague": {
                    "target": "0x06",
                    "max": "0x09",
                    "baseFeeUpdateFraction": "0x4c6964"
                },
                "Osaka": {
                    "target": "0x06",
                    "max": "0x09",
                    "baseFeeUpdateFraction": "0x4c6964"
                }
            },
            "chainid": "0x01"
        },
        "_info": {
            "hash": "0xaf0ee79e4b483bd21fff624859c1057a090f2faa577bb8cb4cdc120b17dd4643",
            "comment": "`execution-specs` generated test",
            "filling-transition-tool": "2.18.0rc6",
            "description": "No description available - add a docstring to the python test class or function.",
            "url": "",
            "fixture-format": "state_test"
        }
    },
    "tests/static/state_tests/stRandom2/randomStatetest567Filler.json::randomStatetest567[fork_Prague-state_test-]": {
        "env": {
            "currentCoinbase": "0x1b63c00a34c543f8f13ca5f892528d7ec5a50586",
            "currentGasLimit": "0x7fffffffffffffff",
            "currentNumber": "0x01",
            "currentTimestamp": "0x03e8",
            "currentRandom": "0x0000000000000000000000000000000000000000000000000000000000020000",
            "currentDifficulty": "0x00",
            "currentBaseFee": "0x0a",
            "currentExcessBlobGas": "0x00"
        },
        "pre": {
            "0xf165e25487ea76b3008ece077804844a41c406e5": {
                "nonce": "0x00",
                "balance": "0x0de0b6b3a7640000",
                "code": "0x",
                "storage": {}
            },
            "0x1b63c00a34c543f8f13ca5f892528d7ec5a50586": {
                "nonce": "0x00",
                "balance": "0x2e",
                "code": "0x6000355415600957005b60203560003555",
                "storage": {}
            },
            "0x1b63c00a34c543f8f13ca5f892528d7ec5a50686": {
                "nonce": "0x00",
                "balance": "0x00",
                "code": "0x7ffffffffffffffffffffffffffffffffffffffffffffffffffffffffffffffffe7f000000000000000000000000000000000000000000000000000000000000c3507fffffffffffffffffffffffffffffffffffffffffffffffffffffffffffffffff7f00000000000000000000000100000000000000000000000000000000000000007f00000000000000000000000000000000000000000000000000000000000000017e7f00000000000000000000000000000000000000000000000000000000000000017ffffffffffffffffffffffffffffffffffffffffffffffffffffffffffffffffe906697998df1160b",
                "storage": {}
            }
        },
        "transaction": {
            "nonce": "0x00",
            "gasPrice": "0x0a",
            "gasLimit": [
                "0x0186a0"
            ],
            "to": "0x1b63c00a34c543f8f13ca5f892528d7ec5a50686",
            "value": [
                "0x23ca7b4e"
            ],
            "data": [
                "0x7ffffffffffffffffffffffffffffffffffffffffffffffffffffffffffffffffe7f000000000000000000000000000000000000000000000000000000000000c3507fffffffffffffffffffffffffffffffffffffffffffffffffffffffffffffffff7f00000000000000000000000100000000000000000000000000000000000000007f00000000000000000000000000000000000000000000000000000000000000017e7f00000000000000000000000000000000000000000000000000000000000000017ffffffffffffffffffffffffffffffffffffffffffffffffffffffffffffffffe906697998df1160b"
            ],
            "sender": "0xf165e25487ea76b3008ece077804844a41c406e5",
            "secretKey": "0xc0f5b3c10e9a7c380928e6a81b63c00a34c543f8f13ca5f892528d7ec5a50586"
        },
        "post": {
            "Prague": [
                {
                    "hash": "0x38d7ef0d4e0f214245316d62db7e826285e11c75a29c5452ba7a466af37f5103",
                    "logs": "0x1dcc4de8dec75d7aab85b567b6ccd41ad312451b948a7413f0a142fd40d49347",
                    "txbytes": "0xf90155800a830186a0941b63c00a34c543f8f13ca5f892528d7ec5a506868423ca7b4eb8f07ffffffffffffffffffffffffffffffffffffffffffffffffffffffffffffffffe7f000000000000000000000000000000000000000000000000000000000000c3507fffffffffffffffffffffffffffffffffffffffffffffffffffffffffffffffff7f00000000000000000000000100000000000000000000000000000000000000007f00000000000000000000000000000000000000000000000000000000000000017e7f00000000000000000000000000000000000000000000000000000000000000017ffffffffffffffffffffffffffffffffffffffffffffffffffffffffffffffffe906697998df1160b25a0d7d507ffdff33c7cfec31d4449854cb70e8d0e74a4c44f894313e87c3c225991a017ebc11e5290427486aa230374ffc594eb52357f3e312be1398ce80aa103c86b",
                    "indexes": {
                        "data": 0,
                        "gas": 0,
                        "value": 0
                    },
                    "state": {
                        "0xf165e25487ea76b3008ece077804844a41c406e5": {
                            "nonce": "0x01",
                            "balance": "0x0de0b6b383956986",
                            "code": "0x",
                            "storage": {}
                        },
                        "0x1b63c00a34c543f8f13ca5f892528d7ec5a50586": {
                            "nonce": "0x00",
                            "balance": "0x2e",
                            "code": "0x6000355415600957005b60203560003555",
                            "storage": {}
                        },
                        "0x1b63c00a34c543f8f13ca5f892528d7ec5a50686": {
                            "nonce": "0x00",
                            "balance": "0x23ca7b4e",
                            "code": "0x7ffffffffffffffffffffffffffffffffffffffffffffffffffffffffffffffffe7f000000000000000000000000000000000000000000000000000000000000c3507fffffffffffffffffffffffffffffffffffffffffffffffffffffffffffffffff7f00000000000000000000000100000000000000000000000000000000000000007f00000000000000000000000000000000000000000000000000000000000000017e7f00000000000000000000000000000000000000000000000000000000000000017ffffffffffffffffffffffffffffffffffffffffffffffffffffffffffffffffe906697998df1160b",
                            "storage": {}
                        }
                    }
                }
            ]
        },
        "config": {
            "blobSchedule": {
                "Cancun": {
                    "target": "0x03",
                    "max": "0x06",
                    "baseFeeUpdateFraction": "0x32f0ed"
                },
                "Prague": {
                    "target": "0x06",
                    "max": "0x09",
                    "baseFeeUpdateFraction": "0x4c6964"
                }
            },
            "chainid": "0x01"
        },
        "_info": {
            "hash": "0x1cdd8d4b9511680eff33143fe379155785e8c39b9f4c12d52d80932388ab1407",
            "comment": "`execution-specs` generated test",
            "filling-transition-tool": "2.18.0rc6",
            "description": "No description available - add a docstring to the python test class or function.",
            "url": "",
            "fixture-format": "state_test"
        }
    }
}