{
    "tests/static/state_tests/stRandom2/randomStatetest637Filler.json::randomStatetest637[fork_Cancun-state_test-]": {
        "env": {
            "currentCoinbase": "0xba33ab20851293566f88891572fd48914b8f38aa",
            "currentGasLimit": "0x7fffffffffffffff",
            "currentNumber": "0x01",
            "currentTimestamp": "0x03e8",
            "currentRandom": "0x0000000000000000000000000000000000000000000000000000000000020000",
            "currentDifficulty": "0x00",
            "currentBaseFee": "0x0a",
            "currentExcessBlobGas": "0x00"
        },
        "pre": {
            "0x94dfea9559755fbeffefada18b440fc708594355": {
                "nonce": "0x00",
                "balance": "0x0de0b6b3a7640000",
                "code": "0x",
                "storage": {}
            },
            "0xba33ab20851293566f88891572fd48914b8f38aa": {
                "nonce": "0x00",
                "balance": "0x2e",
                "code": "0x6000355415600957005b60203560003555",
                "storage": {}
            },
            "0xba33ab20851293566f88891572fd48914b8f39aa": {
                "nonce": "0x00",
                "balance": "0x00",
                "code": "0x7f00000000000000000000000000000000000000000000000000000000000000007ffffffffffffffffffffffffffffffffffffffffffffffffffffffffffffffffe7f00000000000000000000000000000000000000000000000000000000000000017f000000000000000000000000000000000000000000000000000000000000c3507fffffffffffffffffffffffffffffffffffffffffffffffffffffffffffffffff6f44931064138e9df1768334028c20147160005155",
                "storage": {}
            }
        },
        "transaction": {
            "nonce": "0x00",
            "gasPrice": "0x0a",
            "gasLimit": [
                "0x0186a0"
            ],
            "to": "0xba33ab20851293566f88891572fd48914b8f39aa",
            "value": [
                "0x58337064"
            ],
            "data": [
                "0x7f00000000000000000000000000000000000000000000000000000000000000007ffffffffffffffffffffffffffffffffffffffffffffffffffffffffffffffffe7f00000000000000000000000000000000000000000000000000000000000000017f000000000000000000000000000000000000000000000000000000000000c3507fffffffffffffffffffffffffffffffffffffffffffffffffffffffffffffffff6f44931064138e9df1768334028c201471"
            ],
            "sender": "0x94dfea9559755fbeffefada18b440fc708594355",
            "secretKey": "0x0bb97c4d4b2f1eb98e97ab76ba33ab20851293566f88891572fd48914b8f38aa"
        },
        "post": {
            "Cancun": [
                {
                    "hash": "0x77ca1c68945e53e912cf70a3340707cf528760c0097c80c8291d2cfd9851d267",
                    "logs": "0x1dcc4de8dec75d7aab85b567b6ccd41ad312451b948a7413f0a142fd40d49347",
                    "txbytes": "0xf9011b800a830186a094ba33ab20851293566f88891572fd48914b8f39aa8458337064b8b67f00000000000000000000000000000000000000000000000000000000000000007ffffffffffffffffffffffffffffffffffffffffffffffffffffffffffffffffe7f00000000000000000000000000000000000000000000000000000000000000017f000000000000000000000000000000000000000000000000000000000000c3507fffffffffffffffffffffffffffffffffffffffffffffffffffffffffffffffff6f44931064138e9df1768334028c20147126a0ecdeb29cddd4bfeed184fe5c974f7e1ff14cd6ea952e4fa7774a64488543a490a05f4affc5f6abc406648a939bc9d6409b7010c89d75951aa234fb500c1db4d139",
                    "indexes": {
                        "data": 0,
                        "gas": 0,
                        "value": 0
                    },
                    "state": {
                        "0x94dfea9559755fbeffefada18b440fc708594355": {
                            "nonce": "0x01",
                            "balance": "0x0de0b6b34f29b4ce",
                            "code": "0x",
                            "storage": {}
                        },
                        "0xba33ab20851293566f88891572fd48914b8f38aa": {
                            "nonce": "0x00",
                            "balance": "0x2e",
                            "code": "0x6000355415600957005b60203560003555",
                            "storage": {}
                        },
                        "0xba33ab20851293566f88891572fd48914b8f39aa": {
                            "nonce": "0x00",
                            "balance": "0x58337064",
                            "code": "0x7f00000000000000000000000000000000000000000000000000000000000000007ffffffffffffffffffffffffffffffffffffffffffffffffffffffffffffffffe7f00000000000000000000000000000000000000000000000000000000000000017f000000000000000000000000000000000000000000000000000000000000c3507fffffffffffffffffffffffffffffffffffffffffffffffffffffffffffffffff6f44931064138e9df1768334028c20147160005155",
                            "storage": {
                                "0x00": "0x44931064138e9df1768334028c201471"
                            }
                        }
                    }
                }
            ]
        },
        "config": {
            "blobSchedule": {
                "Cancun": {
                    "target": "0x03",
                    "max": "0x06",
                    "baseFeeUpdateFraction": "0x32f0ed"
                }
            },
            "chainid": "0x01"
        },
        "_info": {
            "hash": "0xf2eeddab61969e44e183a597fab8b8557dfc6aea7633dd9a26f268fa39eeef5f",
            "comment": "`execution-spec-tests` generated test",
            "filling-transition-tool": "ethereum-spec-evm-resolver 0.0.5",
            "description": "No description available - add a docstring to the python test class or function.",
            "url": "",
            "fixture-format": "state_test",
            "eels-resolution": {
                "git-url": "https://github.com/ethereum/execution-specs.git",
                "branch": "forks/bpos",
                "commit": "7aacb2c54111391af5e98c505d5010b5698a770f"
            }
        }
    },
    "tests/static/state_tests/stRandom2/randomStatetest637Filler.json::randomStatetest637[fork_Osaka-state_test-]": {
        "env": {
            "currentCoinbase": "0xba33ab20851293566f88891572fd48914b8f38aa",
            "currentGasLimit": "0x7fffffffffffffff",
            "currentNumber": "0x01",
            "currentTimestamp": "0x03e8",
            "currentRandom": "0x0000000000000000000000000000000000000000000000000000000000020000",
            "currentDifficulty": "0x00",
            "currentBaseFee": "0x0a",
            "currentExcessBlobGas": "0x00"
        },
        "pre": {
            "0x94dfea9559755fbeffefada18b440fc708594355": {
                "nonce": "0x00",
                "balance": "0x0de0b6b3a7640000",
                "code": "0x",
                "storage": {}
            },
            "0xba33ab20851293566f88891572fd48914b8f38aa": {
                "nonce": "0x00",
                "balance": "0x2e",
                "code": "0x6000355415600957005b60203560003555",
                "storage": {}
            },
            "0xba33ab20851293566f88891572fd48914b8f39aa": {
                "nonce": "0x00",
                "balance": "0x00",
                "code": "0x7f00000000000000000000000000000000000000000000000000000000000000007ffffffffffffffffffffffffffffffffffffffffffffffffffffffffffffffffe7f00000000000000000000000000000000000000000000000000000000000000017f000000000000000000000000000000000000000000000000000000000000c3507fffffffffffffffffffffffffffffffffffffffffffffffffffffffffffffffff6f44931064138e9df1768334028c20147160005155",
                "storage": {}
            }
        },
        "transaction": {
            "nonce": "0x00",
            "gasPrice": "0x0a",
            "gasLimit": [
                "0x0186a0"
            ],
            "to": "0xba33ab20851293566f88891572fd48914b8f39aa",
            "value": [
                "0x58337064"
            ],
            "data": [
                "0x7f00000000000000000000000000000000000000000000000000000000000000007ffffffffffffffffffffffffffffffffffffffffffffffffffffffffffffffffe7f00000000000000000000000000000000000000000000000000000000000000017f000000000000000000000000000000000000000000000000000000000000c3507fffffffffffffffffffffffffffffffffffffffffffffffffffffffffffffffff6f44931064138e9df1768334028c201471"
            ],
            "sender": "0x94dfea9559755fbeffefada18b440fc708594355",
            "secretKey": "0x0bb97c4d4b2f1eb98e97ab76ba33ab20851293566f88891572fd48914b8f38aa"
        },
        "post": {
            "Osaka": [
                {
                    "hash": "0x77ca1c68945e53e912cf70a3340707cf528760c0097c80c8291d2cfd9851d267",
                    "logs": "0x1dcc4de8dec75d7aab85b567b6ccd41ad312451b948a7413f0a142fd40d49347",
                    "txbytes": "0xf9011b800a830186a094ba33ab20851293566f88891572fd48914b8f39aa8458337064b8b67f00000000000000000000000000000000000000000000000000000000000000007ffffffffffffffffffffffffffffffffffffffffffffffffffffffffffffffffe7f00000000000000000000000000000000000000000000000000000000000000017f000000000000000000000000000000000000000000000000000000000000c3507fffffffffffffffffffffffffffffffffffffffffffffffffffffffffffffffff6f44931064138e9df1768334028c20147126a0ecdeb29cddd4bfeed184fe5c974f7e1ff14cd6ea952e4fa7774a64488543a490a05f4affc5f6abc406648a939bc9d6409b7010c89d75951aa234fb500c1db4d139",
                    "indexes": {
                        "data": 0,
                        "gas": 0,
                        "value": 0
                    },
                    "state": {
                        "0x94dfea9559755fbeffefada18b440fc708594355": {
                            "nonce": "0x01",
                            "balance": "0x0de0b6b34f29b4ce",
                            "code": "0x",
                            "storage": {}
                        },
                        "0xba33ab20851293566f88891572fd48914b8f38aa": {
                            "nonce": "0x00",
                            "balance": "0x2e",
                            "code": "0x6000355415600957005b60203560003555",
                            "storage": {}
                        },
                        "0xba33ab20851293566f88891572fd48914b8f39aa": {
                            "nonce": "0x00",
                            "balance": "0x58337064",
                            "code": "0x7f00000000000000000000000000000000000000000000000000000000000000007ffffffffffffffffffffffffffffffffffffffffffffffffffffffffffffffffe7f00000000000000000000000000000000000000000000000000000000000000017f000000000000000000000000000000000000000000000000000000000000c3507fffffffffffffffffffffffffffffffffffffffffffffffffffffffffffffffff6f44931064138e9df1768334028c20147160005155",
                            "storage": {
                                "0x00": "0x44931064138e9df1768334028c201471"
                            }
                        }
                    }
                }
            ]
        },
        "config": {
            "blobSchedule": {
                "Cancun": {
                    "target": "0x03",
                    "max": "0x06",
                    "baseFeeUpdateFraction": "0x32f0ed"
                },
                "Prague": {
                    "target": "0x06",
                    "max": "0x09",
                    "baseFeeUpdateFraction": "0x4c6964"
                },
                "Osaka": {
                    "target": "0x06",
                    "max": "0x09",
                    "baseFeeUpdateFraction": "0x4c6964"
                }
            },
            "chainid": "0x01"
        },
        "_info": {
            "hash": "0xceccabeb5c8454b21324d3bd4098b3b321493722ba09d5f9558599a00049b240",
            "comment": "`execution-spec-tests` generated test",
            "filling-transition-tool": "ethereum-spec-evm-resolver 0.0.5",
            "description": "No description available - add a docstring to the python test class or function.",
            "url": "",
            "fixture-format": "state_test",
            "eels-resolution": {
                "git-url": "https://github.com/ethereum/execution-specs.git",
                "branch": "forks/bpos",
                "commit": "7aacb2c54111391af5e98c505d5010b5698a770f"
            }
        }
    },
    "tests/static/state_tests/stRandom2/randomStatetest637Filler.json::randomStatetest637[fork_Prague-state_test-]": {
        "env": {
            "currentCoinbase": "0xba33ab20851293566f88891572fd48914b8f38aa",
            "currentGasLimit": "0x7fffffffffffffff",
            "currentNumber": "0x01",
            "currentTimestamp": "0x03e8",
            "currentRandom": "0x0000000000000000000000000000000000000000000000000000000000020000",
            "currentDifficulty": "0x00",
            "currentBaseFee": "0x0a",
            "currentExcessBlobGas": "0x00"
        },
        "pre": {
            "0x94dfea9559755fbeffefada18b440fc708594355": {
                "nonce": "0x00",
                "balance": "0x0de0b6b3a7640000",
                "code": "0x",
                "storage": {}
            },
            "0xba33ab20851293566f88891572fd48914b8f38aa": {
                "nonce": "0x00",
                "balance": "0x2e",
                "code": "0x6000355415600957005b60203560003555",
                "storage": {}
            },
            "0xba33ab20851293566f88891572fd48914b8f39aa": {
                "nonce": "0x00",
                "balance": "0x00",
                "code": "0x7f00000000000000000000000000000000000000000000000000000000000000007ffffffffffffffffffffffffffffffffffffffffffffffffffffffffffffffffe7f00000000000000000000000000000000000000000000000000000000000000017f000000000000000000000000000000000000000000000000000000000000c3507fffffffffffffffffffffffffffffffffffffffffffffffffffffffffffffffff6f44931064138e9df1768334028c20147160005155",
                "storage": {}
            }
        },
        "transaction": {
            "nonce": "0x00",
            "gasPrice": "0x0a",
            "gasLimit": [
                "0x0186a0"
            ],
            "to": "0xba33ab20851293566f88891572fd48914b8f39aa",
            "value": [
                "0x58337064"
            ],
            "data": [
                "0x7f00000000000000000000000000000000000000000000000000000000000000007ffffffffffffffffffffffffffffffffffffffffffffffffffffffffffffffffe7f00000000000000000000000000000000000000000000000000000000000000017f000000000000000000000000000000000000000000000000000000000000c3507fffffffffffffffffffffffffffffffffffffffffffffffffffffffffffffffff6f44931064138e9df1768334028c201471"
            ],
            "sender": "0x94dfea9559755fbeffefada18b440fc708594355",
            "secretKey": "0x0bb97c4d4b2f1eb98e97ab76ba33ab20851293566f88891572fd48914b8f38aa"
        },
        "post": {
            "Prague": [
                {
                    "hash": "0x77ca1c68945e53e912cf70a3340707cf528760c0097c80c8291d2cfd9851d267",
                    "logs": "0x1dcc4de8dec75d7aab85b567b6ccd41ad312451b948a7413f0a142fd40d49347",
                    "txbytes": "0xf9011b800a830186a094ba33ab20851293566f88891572fd48914b8f39aa8458337064b8b67f00000000000000000000000000000000000000000000000000000000000000007ffffffffffffffffffffffffffffffffffffffffffffffffffffffffffffffffe7f00000000000000000000000000000000000000000000000000000000000000017f000000000000000000000000000000000000000000000000000000000000c3507fffffffffffffffffffffffffffffffffffffffffffffffffffffffffffffffff6f44931064138e9df1768334028c20147126a0ecdeb29cddd4bfeed184fe5c974f7e1ff14cd6ea952e4fa7774a64488543a490a05f4affc5f6abc406648a939bc9d6409b7010c89d75951aa234fb500c1db4d139",
                    "indexes": {
                        "data": 0,
                        "gas": 0,
                        "value": 0
                    },
                    "state": {
                        "0x94dfea9559755fbeffefada18b440fc708594355": {
                            "nonce": "0x01",
                            "balance": "0x0de0b6b34f29b4ce",
                            "code": "0x",
                            "storage": {}
                        },
                        "0xba33ab20851293566f88891572fd48914b8f38aa": {
                            "nonce": "0x00",
                            "balance": "0x2e",
                            "code": "0x6000355415600957005b60203560003555",
                            "storage": {}
                        },
                        "0xba33ab20851293566f88891572fd48914b8f39aa": {
                            "nonce": "0x00",
                            "balance": "0x58337064",
                            "code": "0x7f00000000000000000000000000000000000000000000000000000000000000007ffffffffffffffffffffffffffffffffffffffffffffffffffffffffffffffffe7f00000000000000000000000000000000000000000000000000000000000000017f000000000000000000000000000000000000000000000000000000000000c3507fffffffffffffffffffffffffffffffffffffffffffffffffffffffffffffffff6f44931064138e9df1768334028c20147160005155",
                            "storage": {
                                "0x00": "0x44931064138e9df1768334028c201471"
                            }
                        }
                    }
                }
            ]
        },
        "config": {
            "blobSchedule": {
                "Cancun": {
                    "target": "0x03",
                    "max": "0x06",
                    "baseFeeUpdateFraction": "0x32f0ed"
                },
                "Prague": {
                    "target": "0x06",
                    "max": "0x09",
                    "baseFeeUpdateFraction": "0x4c6964"
                }
            },
            "chainid": "0x01"
        },
        "_info": {
            "hash": "0x88c19470cee1615ba9ba6e83361bce09ee442dd4a63aaf8b596843ca9b7f20b8",
            "comment": "`execution-spec-tests` generated test",
            "filling-transition-tool": "ethereum-spec-evm-resolver 0.0.5",
            "description": "No description available - add a docstring to the python test class or function.",
            "url": "",
            "fixture-format": "state_test",
            "eels-resolution": {
                "git-url": "https://github.com/ethereum/execution-specs.git",
                "branch": "forks/bpos",
                "commit": "7aacb2c54111391af5e98c505d5010b5698a770f"
            }
        }
    }
}