{
    "tests/static/state_tests/stRandom2/randomStatetest514Filler.json::randomStatetest514[fork_Cancun-state_test-]": {
        "env": {
            "currentCoinbase": "0x1e70da903a8ed0917ef13e76f99eaa1d65027bc9",
            "currentGasLimit": "0x7fffffffffffffff",
            "currentNumber": "0x01",
            "currentTimestamp": "0x03e8",
            "currentRandom": "0x0000000000000000000000000000000000000000000000000000000000020000",
            "currentDifficulty": "0x00",
            "currentBaseFee": "0x0a",
            "currentExcessBlobGas": "0x00"
        },
        "pre": {
            "0x15131114c1eff91b1b61cfa72446b5c6757b0c69": {
                "nonce": "0x00",
                "balance": "0x0de0b6b3a7640000",
                "code": "0x",
                "storage": {}
            },
            "0x1e70da903a8ed0917ef13e76f99eaa1d65027bc9": {
                "nonce": "0x00",
                "balance": "0x2e",
                "code": "0x6000355415600957005b60203560003555",
                "storage": {}
            },
            "0x1e70da903a8ed0917ef13e76f99eaa1d65027cc9": {
                "nonce": "0x00",
                "balance": "0x00",
                "code": "0x7ffffffffffffffffffffffffffffffffffffffffffffffffffffffffffffffffe44447f000000000000000000000000000000000000000000000000000000000000c3507f00000000000000000000000000000000000000000000000000000000000000017fffffffffffffffffffffffffffffffffffffffffffffffffffffffffffffffff7fffffffffffffffffffffffffffffffffffffffffffffffffffffffffffffffff7f000000000000000000000000000000000000000000000000000000000000c3506c8ea356796d65546d3883768f5560005155",
                "storage": {}
            }
        },
        "transaction": {
            "nonce": "0x00",
            "gasPrice": "0x0a",
            "gasLimit": [
                "0x0186a0"
            ],
            "to": "0x1e70da903a8ed0917ef13e76f99eaa1d65027cc9",
            "value": [
                "0x105d80ad"
            ],
            "data": [
                "0x7ffffffffffffffffffffffffffffffffffffffffffffffffffffffffffffffffe44447f000000000000000000000000000000000000000000000000000000000000c3507f00000000000000000000000000000000000000000000000000000000000000017fffffffffffffffffffffffffffffffffffffffffffffffffffffffffffffffff7fffffffffffffffffffffffffffffffffffffffffffffffffffffffffffffffff7f000000000000000000000000000000000000000000000000000000000000c3506c8ea356796d65546d3883768f"
            ],
            "sender": "0x15131114c1eff91b1b61cfa72446b5c6757b0c69",
            "secretKey": "0xcee5a89289040d315e7ca6dd1e70da903a8ed0917ef13e76f99eaa1d65027bc9"
        },
        "post": {
            "Cancun": [
                {
                    "hash": "0xdee3408fe2a1be67721e01db8699030a240743466b1a29eaef2b9dd041b3cb26",
                    "logs": "0x1dcc4de8dec75d7aab85b567b6ccd41ad312451b948a7413f0a142fd40d49347",
                    "txbytes": "0xf9013a800a830186a0941e70da903a8ed0917ef13e76f99eaa1d65027cc984105d80adb8d57ffffffffffffffffffffffffffffffffffffffffffffffffffffffffffffffffe44447f000000000000000000000000000000000000000000000000000000000000c3507f00000000000000000000000000000000000000000000000000000000000000017fffffffffffffffffffffffffffffffffffffffffffffffffffffffffffffffff7fffffffffffffffffffffffffffffffffffffffffffffffffffffffffffffffff7f000000000000000000000000000000000000000000000000000000000000c3506c8ea356796d65546d3883768f26a0f91d80631e96b36904c3fcc121a392a66fafcd24aaf2b0f50cd470c1cac7273aa022ff328a23322f23c4753e2d9a0933eb309b45d6ed57d3da38aea26f2185f6ad",
                    "indexes": {
                        "data": 0,
                        "gas": 0,
                        "value": 0
                    },
                    "state": {
                        "0x15131114c1eff91b1b61cfa72446b5c6757b0c69": {
                            "nonce": "0x01",
                            "balance": "0x0de0b6b396ff8fef",
                            "code": "0x",
                            "storage": {}
                        },
                        "0x1e70da903a8ed0917ef13e76f99eaa1d65027bc9": {
                            "nonce": "0x00",
                            "balance": "0x2e",
                            "code": "0x6000355415600957005b60203560003555",
                            "storage": {}
                        },
                        "0x1e70da903a8ed0917ef13e76f99eaa1d65027cc9": {
                            "nonce": "0x00",
                            "balance": "0x105d80ad",
                            "code": "0x7ffffffffffffffffffffffffffffffffffffffffffffffffffffffffffffffffe44447f000000000000000000000000000000000000000000000000000000000000c3507f00000000000000000000000000000000000000000000000000000000000000017fffffffffffffffffffffffffffffffffffffffffffffffffffffffffffffffff7fffffffffffffffffffffffffffffffffffffffffffffffffffffffffffffffff7f000000000000000000000000000000000000000000000000000000000000c3506c8ea356796d65546d3883768f5560005155",
                            "storage": {
                                "0x00": "0x8ea356796d65546d3883768f55"
                            }
                        }
                    }
                }
            ]
        },
        "config": {
            "blobSchedule": {
                "Cancun": {
                    "target": "0x03",
                    "max": "0x06",
                    "baseFeeUpdateFraction": "0x32f0ed"
                }
            },
            "chainid": "0x01"
        },
        "_info": {
            "hash": "0x279a9d295ee46b7757773993cb07efc76af2497b9ea173bc2feb49111ec4f528",
            "comment": "`execution-spec-tests` generated test",
            "filling-transition-tool": "ethereum-spec-evm-resolver 0.0.5",
            "description": "No description available - add a docstring to the python test class or function.",
            "url": "",
            "fixture-format": "state_test",
            "eels-resolution": {
                "git-url": "https://github.com/ethereum/execution-specs.git",
                "branch": "forks/bpos",
                "commit": "7aacb2c54111391af5e98c505d5010b5698a770f"
            }
        }
    },
    "tests/static/state_tests/stRandom2/randomStatetest514Filler.json::randomStatetest514[fork_Osaka-state_test-]": {
        "env": {
            "currentCoinbase": "0x1e70da903a8ed0917ef13e76f99eaa1d65027bc9",
            "currentGasLimit": "0x7fffffffffffffff",
            "currentNumber": "0x01",
            "currentTimestamp": "0x03e8",
            "currentRandom": "0x0000000000000000000000000000000000000000000000000000000000020000",
            "currentDifficulty": "0x00",
            "currentBaseFee": "0x0a",
            "currentExcessBlobGas": "0x00"
        },
        "pre": {
            "0x15131114c1eff91b1b61cfa72446b5c6757b0c69": {
                "nonce": "0x00",
                "balance": "0x0de0b6b3a7640000",
                "code": "0x",
                "storage": {}
            },
            "0x1e70da903a8ed0917ef13e76f99eaa1d65027bc9": {
                "nonce": "0x00",
                "balance": "0x2e",
                "code": "0x6000355415600957005b60203560003555",
                "storage": {}
            },
            "0x1e70da903a8ed0917ef13e76f99eaa1d65027cc9": {
                "nonce": "0x00",
                "balance": "0x00",
                "code": "0x7ffffffffffffffffffffffffffffffffffffffffffffffffffffffffffffffffe44447f000000000000000000000000000000000000000000000000000000000000c3507f00000000000000000000000000000000000000000000000000000000000000017fffffffffffffffffffffffffffffffffffffffffffffffffffffffffffffffff7fffffffffffffffffffffffffffffffffffffffffffffffffffffffffffffffff7f000000000000000000000000000000000000000000000000000000000000c3506c8ea356796d65546d3883768f5560005155",
                "storage": {}
            }
        },
        "transaction": {
            "nonce": "0x00",
            "gasPrice": "0x0a",
            "gasLimit": [
                "0x0186a0"
            ],
            "to": "0x1e70da903a8ed0917ef13e76f99eaa1d65027cc9",
            "value": [
                "0x105d80ad"
            ],
            "data": [
                "0x7ffffffffffffffffffffffffffffffffffffffffffffffffffffffffffffffffe44447f000000000000000000000000000000000000000000000000000000000000c3507f00000000000000000000000000000000000000000000000000000000000000017fffffffffffffffffffffffffffffffffffffffffffffffffffffffffffffffff7fffffffffffffffffffffffffffffffffffffffffffffffffffffffffffffffff7f000000000000000000000000000000000000000000000000000000000000c3506c8ea356796d65546d3883768f"
            ],
            "sender": "0x15131114c1eff91b1b61cfa72446b5c6757b0c69",
            "secretKey": "0xcee5a89289040d315e7ca6dd1e70da903a8ed0917ef13e76f99eaa1d65027bc9"
        },
        "post": {
            "Osaka": [
                {
                    "hash": "0xdee3408fe2a1be67721e01db8699030a240743466b1a29eaef2b9dd041b3cb26",
                    "logs": "0x1dcc4de8dec75d7aab85b567b6ccd41ad312451b948a7413f0a142fd40d49347",
                    "txbytes": "0xf9013a800a830186a0941e70da903a8ed0917ef13e76f99eaa1d65027cc984105d80adb8d57ffffffffffffffffffffffffffffffffffffffffffffffffffffffffffffffffe44447f000000000000000000000000000000000000000000000000000000000000c3507f00000000000000000000000000000000000000000000000000000000000000017fffffffffffffffffffffffffffffffffffffffffffffffffffffffffffffffff7fffffffffffffffffffffffffffffffffffffffffffffffffffffffffffffffff7f000000000000000000000000000000000000000000000000000000000000c3506c8ea356796d65546d3883768f26a0f91d80631e96b36904c3fcc121a392a66fafcd24aaf2b0f50cd470c1cac7273aa022ff328a23322f23c4753e2d9a0933eb309b45d6ed57d3da38aea26f2185f6ad",
                    "indexes": {
                        "data": 0,
                        "gas": 0,
                        "value": 0
                    },
                    "state": {
                        "0x15131114c1eff91b1b61cfa72446b5c6757b0c69": {
                            "nonce": "0x01",
                            "balance": "0x0de0b6b396ff8fef",
                            "code": "0x",
                            "storage": {}
                        },
                        "0x1e70da903a8ed0917ef13e76f99eaa1d65027bc9": {
                            "nonce": "0x00",
                            "balance": "0x2e",
                            "code": "0x6000355415600957005b60203560003555",
                            "storage": {}
                        },
                        "0x1e70da903a8ed0917ef13e76f99eaa1d65027cc9": {
                            "nonce": "0x00",
                            "balance": "0x105d80ad",
                            "code": "0x7ffffffffffffffffffffffffffffffffffffffffffffffffffffffffffffffffe44447f000000000000000000000000000000000000000000000000000000000000c3507f00000000000000000000000000000000000000000000000000000000000000017fffffffffffffffffffffffffffffffffffffffffffffffffffffffffffffffff7fffffffffffffffffffffffffffffffffffffffffffffffffffffffffffffffff7f000000000000000000000000000000000000000000000000000000000000c3506c8ea356796d65546d3883768f5560005155",
                            "storage": {
                                "0x00": "0x8ea356796d65546d3883768f55"
                            }
                        }
                    }
                }
            ]
        },
        "config": {
            "blobSchedule": {
                "Cancun": {
                    "target": "0x03",
                    "max": "0x06",
                    "baseFeeUpdateFraction": "0x32f0ed"
                },
                "Prague": {
                    "target": "0x06",
                    "max": "0x09",
                    "baseFeeUpdateFraction": "0x4c6964"
                },
                "Osaka": {
                    "target": "0x06",
                    "max": "0x09",
                    "baseFeeUpdateFraction": "0x4c6964"
                }
            },
            "chainid": "0x01"
        },
        "_info": {
            "hash": "0x46922af948c8eec81fd65c4edb3f8c868b49c8c0ebb804f4912ff0a68b22d94f",
            "comment": "`execution-spec-tests` generated test",
            "filling-transition-tool": "ethereum-spec-evm-resolver 0.0.5",
            "description": "No description available - add a docstring to the python test class or function.",
            "url": "",
            "fixture-format": "state_test",
            "eels-resolution": {
                "git-url": "https://github.com/ethereum/execution-specs.git",
                "branch": "forks/bpos",
                "commit": "7aacb2c54111391af5e98c505d5010b5698a770f"
            }
        }
    },
    "tests/static/state_tests/stRandom2/randomStatetest514Filler.json::randomStatetest514[fork_Prague-state_test-]": {
        "env": {
            "currentCoinbase": "0x1e70da903a8ed0917ef13e76f99eaa1d65027bc9",
            "currentGasLimit": "0x7fffffffffffffff",
            "currentNumber": "0x01",
            "currentTimestamp": "0x03e8",
            "currentRandom": "0x0000000000000000000000000000000000000000000000000000000000020000",
            "currentDifficulty": "0x00",
            "currentBaseFee": "0x0a",
            "currentExcessBlobGas": "0x00"
        },
        "pre": {
            "0x15131114c1eff91b1b61cfa72446b5c6757b0c69": {
                "nonce": "0x00",
                "balance": "0x0de0b6b3a7640000",
                "code": "0x",
                "storage": {}
            },
            "0x1e70da903a8ed0917ef13e76f99eaa1d65027bc9": {
                "nonce": "0x00",
                "balance": "0x2e",
                "code": "0x6000355415600957005b60203560003555",
                "storage": {}
            },
            "0x1e70da903a8ed0917ef13e76f99eaa1d65027cc9": {
                "nonce": "0x00",
                "balance": "0x00",
                "code": "0x7ffffffffffffffffffffffffffffffffffffffffffffffffffffffffffffffffe44447f000000000000000000000000000000000000000000000000000000000000c3507f00000000000000000000000000000000000000000000000000000000000000017fffffffffffffffffffffffffffffffffffffffffffffffffffffffffffffffff7fffffffffffffffffffffffffffffffffffffffffffffffffffffffffffffffff7f000000000000000000000000000000000000000000000000000000000000c3506c8ea356796d65546d3883768f5560005155",
                "storage": {}
            }
        },
        "transaction": {
            "nonce": "0x00",
            "gasPrice": "0x0a",
            "gasLimit": [
                "0x0186a0"
            ],
            "to": "0x1e70da903a8ed0917ef13e76f99eaa1d65027cc9",
            "value": [
                "0x105d80ad"
            ],
            "data": [
                "0x7ffffffffffffffffffffffffffffffffffffffffffffffffffffffffffffffffe44447f000000000000000000000000000000000000000000000000000000000000c3507f00000000000000000000000000000000000000000000000000000000000000017fffffffffffffffffffffffffffffffffffffffffffffffffffffffffffffffff7fffffffffffffffffffffffffffffffffffffffffffffffffffffffffffffffff7f000000000000000000000000000000000000000000000000000000000000c3506c8ea356796d65546d3883768f"
            ],
            "sender": "0x15131114c1eff91b1b61cfa72446b5c6757b0c69",
            "secretKey": "0xcee5a89289040d315e7ca6dd1e70da903a8ed0917ef13e76f99eaa1d65027bc9"
        },
        "post": {
            "Prague": [
                {
                    "hash": "0xdee3408fe2a1be67721e01db8699030a240743466b1a29eaef2b9dd041b3cb26",
                    "logs": "0x1dcc4de8dec75d7aab85b567b6ccd41ad312451b948a7413f0a142fd40d49347",
                    "txbytes": "0xf9013a800a830186a0941e70da903a8ed0917ef13e76f99eaa1d65027cc984105d80adb8d57ffffffffffffffffffffffffffffffffffffffffffffffffffffffffffffffffe44447f000000000000000000000000000000000000000000000000000000000000c3507f00000000000000000000000000000000000000000000000000000000000000017fffffffffffffffffffffffffffffffffffffffffffffffffffffffffffffffff7fffffffffffffffffffffffffffffffffffffffffffffffffffffffffffffffff7f000000000000000000000000000000000000000000000000000000000000c3506c8ea356796d65546d3883768f26a0f91d80631e96b36904c3fcc121a392a66fafcd24aaf2b0f50cd470c1cac7273aa022ff328a23322f23c4753e2d9a0933eb309b45d6ed57d3da38aea26f2185f6ad",
                    "indexes": {
                        "data": 0,
                        "gas": 0,
                        "value": 0
                    },
                    "state": {
                        "0x15131114c1eff91b1b61cfa72446b5c6757b0c69": {
                            "nonce": "0x01",
                            "balance": "0x0de0b6b396ff8fef",
                            "code": "0x",
                            "storage": {}
                        },
                        "0x1e70da903a8ed0917ef13e76f99eaa1d65027bc9": {
                            "nonce": "0x00",
                            "balance": "0x2e",
                            "code": "0x6000355415600957005b60203560003555",
                            "storage": {}
                        },
                        "0x1e70da903a8ed0917ef13e76f99eaa1d65027cc9": {
                            "nonce": "0x00",
                            "balance": "0x105d80ad",
                            "code": "0x7ffffffffffffffffffffffffffffffffffffffffffffffffffffffffffffffffe44447f000000000000000000000000000000000000000000000000000000000000c3507f00000000000000000000000000000000000000000000000000000000000000017fffffffffffffffffffffffffffffffffffffffffffffffffffffffffffffffff7fffffffffffffffffffffffffffffffffffffffffffffffffffffffffffffffff7f000000000000000000000000000000000000000000000000000000000000c3506c8ea356796d65546d3883768f5560005155",
                            "storage": {
                                "0x00": "0x8ea356796d65546d3883768f55"
                            }
                        }
                    }
                }
            ]
        },
        "config": {
            "blobSchedule": {
                "Cancun": {
                    "target": "0x03",
                    "max": "0x06",
                    "baseFeeUpdateFraction": "0x32f0ed"
                },
                "Prague": {
                    "target": "0x06",
                    "max": "0x09",
                    "baseFeeUpdateFraction": "0x4c6964"
                }
            },
            "chainid": "0x01"
        },
        "_info": {
            "hash": "0x2f60027a02d435e0b34fcb99fadf7c42d4880e5974c4d1190d54fa9b71eb98b8",
            "comment": "`execution-spec-tests` generated test",
            "filling-transition-tool": "ethereum-spec-evm-resolver 0.0.5",
            "description": "No description available - add a docstring to the python test class or function.",
            "url": "",
            "fixture-format": "state_test",
            "eels-resolution": {
                "git-url": "https://github.com/ethereum/execution-specs.git",
                "branch": "forks/bpos",
                "commit": "7aacb2c54111391af5e98c505d5010b5698a770f"
            }
        }
    }
}