{
    "tests/static/state_tests/stRandom2/randomStatetest633Filler.json::randomStatetest633[fork_Cancun-state_test-]": {
        "env": {
            "currentCoinbase": "0xf85032e43e8370dde998ec1b50f6e899d6f21325",
            "currentGasLimit": "0x7fffffffffffffff",
            "currentNumber": "0x01",
            "currentTimestamp": "0x03e8",
            "currentRandom": "0x0000000000000000000000000000000000000000000000000000000000020000",
            "currentDifficulty": "0x00",
            "currentBaseFee": "0x0a",
            "currentExcessBlobGas": "0x00"
        },
        "pre": {
            "0x0fa3761235a1dfbfe78618aed500f7ade67288f6": {
                "nonce": "0x00",
                "balance": "0x0de0b6b3a7640000",
                "code": "0x",
                "storage": {}
            },
            "0xf85032e43e8370dde998ec1b50f6e899d6f21325": {
                "nonce": "0x00",
                "balance": "0x2e",
                "code": "0x6000355415600957005b60203560003555",
                "storage": {}
            },
            "0xf85032e43e8370dde998ec1b50f6e899d6f21425": {
                "nonce": "0x00",
                "balance": "0x00",
                "code": "0x7f00000000000000000000000100000000000000000000000000000000000000007f00000000000000000000000000000000000000000000000000000000000000017f000000000000000000000000f85032e43e8370dde998ec1b50f6e899d6f213257f000000000000000000000000000000000000000000000000000000000000c3507fffffffffffffffffffffffffffffffffffffffffffffffffffffffffffffffff7ffffffffffffffffffffffffffffffffffffffffffffffffffffffffffffffffe7fffffffffffffffffffffffffffffffffffffffffffffffffffffffffffffffff7f000000000000000000000000f85032e43e8370dde998ec1b50f6e899d6f213256f82941340756317567250f1573a89765560005155",
                "storage": {}
            }
        },
        "transaction": {
            "nonce": "0x00",
            "gasPrice": "0x0a",
            "gasLimit": [
                "0x0186a0"
            ],
            "to": "0xf85032e43e8370dde998ec1b50f6e899d6f21425",
            "value": [
                "0x50f61b39"
            ],
            "data": [
                "0x7f00000000000000000000000100000000000000000000000000000000000000007f00000000000000000000000000000000000000000000000000000000000000017f000000000000000000000000f85032e43e8370dde998ec1b50f6e899d6f213257f000000000000000000000000000000000000000000000000000000000000c3507fffffffffffffffffffffffffffffffffffffffffffffffffffffffffffffffff7ffffffffffffffffffffffffffffffffffffffffffffffffffffffffffffffffe7fffffffffffffffffffffffffffffffffffffffffffffffffffffffffffffffff7f000000000000000000000000f85032e43e8370dde998ec1b50f6e899d6f213256f82941340756317567250f1573a8976"
            ],
            "sender": "0x0fa3761235a1dfbfe78618aed500f7ade67288f6",
            "secretKey": "0x9c76a1a0306111b2a5e503bdf85032e43e8370dde998ec1b50f6e899d6f21325"
        },
        "post": {
            "Cancun": [
                {
                    "hash": "0x460c4ee36076cb7be83c550d6b133ff2e05b9bfa5afd792ebcf3e6688be2f5f0",
                    "logs": "0x1dcc4de8dec75d7aab85b567b6ccd41ad312451b948a7413f0a142fd40d49347",
                    "txbytes": "0xf9017e800a830186a094f85032e43e8370dde998ec1b50f6e899d6f214258450f61b39b901187f00000000000000000000000100000000000000000000000000000000000000007f00000000000000000000000000000000000000000000000000000000000000017f000000000000000000000000f85032e43e8370dde998ec1b50f6e899d6f213257f000000000000000000000000000000000000000000000000000000000000c3507fffffffffffffffffffffffffffffffffffffffffffffffffffffffffffffffff7ffffffffffffffffffffffffffffffffffffffffffffffffffffffffffffffffe7fffffffffffffffffffffffffffffffffffffffffffffffffffffffffffffffff7f000000000000000000000000f85032e43e8370dde998ec1b50f6e899d6f213256f82941340756317567250f1573a897625a01683d89a4ae81ed4d8b029601521c20282eaa699687cbbf03219977b1e0e6af7a06f2bc7818d692f394fe7e399c44cd98fc70b4f5d871bcc45bbbad93322982c3f",
                    "indexes": {
                        "data": 0,
                        "gas": 0,
                        "value": 0
                    },
                    "state": {
                        "0x0fa3761235a1dfbfe78618aed500f7ade67288f6": {
                            "nonce": "0x01",
                            "balance": "0x0de0b6b35666d727",
                            "code": "0x",
                            "storage": {}
                        },
                        "0xf85032e43e8370dde998ec1b50f6e899d6f21325": {
                            "nonce": "0x00",
                            "balance": "0x2e",
                            "code": "0x6000355415600957005b60203560003555",
                            "storage": {}
                        },
                        "0xf85032e43e8370dde998ec1b50f6e899d6f21425": {
                            "nonce": "0x00",
                            "balance": "0x50f61b39",
                            "code": "0x7f00000000000000000000000100000000000000000000000000000000000000007f00000000000000000000000000000000000000000000000000000000000000017f000000000000000000000000f85032e43e8370dde998ec1b50f6e899d6f213257f000000000000000000000000000000000000000000000000000000000000c3507fffffffffffffffffffffffffffffffffffffffffffffffffffffffffffffffff7ffffffffffffffffffffffffffffffffffffffffffffffffffffffffffffffffe7fffffffffffffffffffffffffffffffffffffffffffffffffffffffffffffffff7f000000000000000000000000f85032e43e8370dde998ec1b50f6e899d6f213256f82941340756317567250f1573a89765560005155",
                            "storage": {
                                "0x00": "0x82941340756317567250f1573a897655"
                            }
                        }
                    }
                }
            ]
        },
        "config": {
            "blobSchedule": {
                "Cancun": {
                    "target": "0x03",
                    "max": "0x06",
                    "baseFeeUpdateFraction": "0x32f0ed"
                }
            },
            "chainid": "0x01"
        },
        "_info": {
            "hash": "0x5ec6785b269091f9f07f932415b400ddcc5a6aa56f5071c320a6479dfaca621d",
            "comment": "`execution-spec-tests` generated test",
            "filling-transition-tool": "ethereum-spec-evm-resolver 0.0.5",
            "description": "No description available - add a docstring to the python test class or function.",
            "url": "",
            "fixture-format": "state_test",
            "eels-resolution": {
                "git-url": "https://github.com/ethereum/execution-specs.git",
                "branch": "forks/bpos",
                "commit": "7aacb2c54111391af5e98c505d5010b5698a770f"
            }
        }
    },
    "tests/static/state_tests/stRandom2/randomStatetest633Filler.json::randomStatetest633[fork_Osaka-state_test-]": {
        "env": {
            "currentCoinbase": "0xf85032e43e8370dde998ec1b50f6e899d6f21325",
            "currentGasLimit": "0x7fffffffffffffff",
            "currentNumber": "0x01",
            "currentTimestamp": "0x03e8",
            "currentRandom": "0x0000000000000000000000000000000000000000000000000000000000020000",
            "currentDifficulty": "0x00",
            "currentBaseFee": "0x0a",
            "currentExcessBlobGas": "0x00"
        },
        "pre": {
            "0x0fa3761235a1dfbfe78618aed500f7ade67288f6": {
                "nonce": "0x00",
                "balance": "0x0de0b6b3a7640000",
                "code": "0x",
                "storage": {}
            },
            "0xf85032e43e8370dde998ec1b50f6e899d6f21325": {
                "nonce": "0x00",
                "balance": "0x2e",
                "code": "0x6000355415600957005b60203560003555",
                "storage": {}
            },
            "0xf85032e43e8370dde998ec1b50f6e899d6f21425": {
                "nonce": "0x00",
                "balance": "0x00",
                "code": "0x7f00000000000000000000000100000000000000000000000000000000000000007f00000000000000000000000000000000000000000000000000000000000000017f000000000000000000000000f85032e43e8370dde998ec1b50f6e899d6f213257f000000000000000000000000000000000000000000000000000000000000c3507fffffffffffffffffffffffffffffffffffffffffffffffffffffffffffffffff7ffffffffffffffffffffffffffffffffffffffffffffffffffffffffffffffffe7fffffffffffffffffffffffffffffffffffffffffffffffffffffffffffffffff7f000000000000000000000000f85032e43e8370dde998ec1b50f6e899d6f213256f82941340756317567250f1573a89765560005155",
                "storage": {}
            }
        },
        "transaction": {
            "nonce": "0x00",
            "gasPrice": "0x0a",
            "gasLimit": [
                "0x0186a0"
            ],
            "to": "0xf85032e43e8370dde998ec1b50f6e899d6f21425",
            "value": [
                "0x50f61b39"
            ],
            "data": [
                "0x7f00000000000000000000000100000000000000000000000000000000000000007f00000000000000000000000000000000000000000000000000000000000000017f000000000000000000000000f85032e43e8370dde998ec1b50f6e899d6f213257f000000000000000000000000000000000000000000000000000000000000c3507fffffffffffffffffffffffffffffffffffffffffffffffffffffffffffffffff7ffffffffffffffffffffffffffffffffffffffffffffffffffffffffffffffffe7fffffffffffffffffffffffffffffffffffffffffffffffffffffffffffffffff7f000000000000000000000000f85032e43e8370dde998ec1b50f6e899d6f213256f82941340756317567250f1573a8976"
            ],
            "sender": "0x0fa3761235a1dfbfe78618aed500f7ade67288f6",
            "secretKey": "0x9c76a1a0306111b2a5e503bdf85032e43e8370dde998ec1b50f6e899d6f21325"
        },
        "post": {
            "Osaka": [
                {
                    "hash": "0x460c4ee36076cb7be83c550d6b133ff2e05b9bfa5afd792ebcf3e6688be2f5f0",
                    "logs": "0x1dcc4de8dec75d7aab85b567b6ccd41ad312451b948a7413f0a142fd40d49347",
                    "txbytes": "0xf9017e800a830186a094f85032e43e8370dde998ec1b50f6e899d6f214258450f61b39b901187f00000000000000000000000100000000000000000000000000000000000000007f00000000000000000000000000000000000000000000000000000000000000017f000000000000000000000000f85032e43e8370dde998ec1b50f6e899d6f213257f000000000000000000000000000000000000000000000000000000000000c3507fffffffffffffffffffffffffffffffffffffffffffffffffffffffffffffffff7ffffffffffffffffffffffffffffffffffffffffffffffffffffffffffffffffe7fffffffffffffffffffffffffffffffffffffffffffffffffffffffffffffffff7f000000000000000000000000f85032e43e8370dde998ec1b50f6e899d6f213256f82941340756317567250f1573a897625a01683d89a4ae81ed4d8b029601521c20282eaa699687cbbf03219977b1e0e6af7a06f2bc7818d692f394fe7e399c44cd98fc70b4f5d871bcc45bbbad93322982c3f",
                    "indexes": {
                        "data": 0,
                        "gas": 0,
                        "value": 0
                    },
                    "state": {
                        "0x0fa3761235a1dfbfe78618aed500f7ade67288f6": {
                            "nonce": "0x01",
                            "balance": "0x0de0b6b35666d727",
                            "code": "0x",
                            "storage": {}
                        },
                        "0xf85032e43e8370dde998ec1b50f6e899d6f21325": {
                            "nonce": "0x00",
                            "balance": "0x2e",
                            "code": "0x6000355415600957005b60203560003555",
                            "storage": {}
                        },
                        "0xf85032e43e8370dde998ec1b50f6e899d6f21425": {
                            "nonce": "0x00",
                            "balance": "0x50f61b39",
                            "code": "0x7f00000000000000000000000100000000000000000000000000000000000000007f00000000000000000000000000000000000000000000000000000000000000017f000000000000000000000000f85032e43e8370dde998ec1b50f6e899d6f213257f000000000000000000000000000000000000000000000000000000000000c3507fffffffffffffffffffffffffffffffffffffffffffffffffffffffffffffffff7ffffffffffffffffffffffffffffffffffffffffffffffffffffffffffffffffe7fffffffffffffffffffffffffffffffffffffffffffffffffffffffffffffffff7f000000000000000000000000f85032e43e8370dde998ec1b50f6e899d6f213256f82941340756317567250f1573a89765560005155",
                            "storage": {
                                "0x00": "0x82941340756317567250f1573a897655"
                            }
                        }
                    }
                }
            ]
        },
        "config": {
            "blobSchedule": {
                "Cancun": {
                    "target": "0x03",
                    "max": "0x06",
                    "baseFeeUpdateFraction": "0x32f0ed"
                },
                "Prague": {
                    "target": "0x06",
                    "max": "0x09",
                    "baseFeeUpdateFraction": "0x4c6964"
                },
                "Osaka": {
                    "target": "0x06",
                    "max": "0x09",
                    "baseFeeUpdateFraction": "0x4c6964"
                }
            },
            "chainid": "0x01"
        },
        "_info": {
            "hash": "0xa17b3c45c85d6646eb330d0263bf9eeab5c64d0f61bab46e84cec3e554fba575",
            "comment": "`execution-spec-tests` generated test",
            "filling-transition-tool": "ethereum-spec-evm-resolver 0.0.5",
            "description": "No description available - add a docstring to the python test class or function.",
            "url": "",
            "fixture-format": "state_test",
            "eels-resolution": {
                "git-url": "https://github.com/ethereum/execution-specs.git",
                "branch": "forks/bpos",
                "commit": "7aacb2c54111391af5e98c505d5010b5698a770f"
            }
        }
    },
    "tests/static/state_tests/stRandom2/randomStatetest633Filler.json::randomStatetest633[fork_Prague-state_test-]": {
        "env": {
            "currentCoinbase": "0xf85032e43e8370dde998ec1b50f6e899d6f21325",
            "currentGasLimit": "0x7fffffffffffffff",
            "currentNumber": "0x01",
            "currentTimestamp": "0x03e8",
            "currentRandom": "0x0000000000000000000000000000000000000000000000000000000000020000",
            "currentDifficulty": "0x00",
            "currentBaseFee": "0x0a",
            "currentExcessBlobGas": "0x00"
        },
        "pre": {
            "0x0fa3761235a1dfbfe78618aed500f7ade67288f6": {
                "nonce": "0x00",
                "balance": "0x0de0b6b3a7640000",
                "code": "0x",
                "storage": {}
            },
            "0xf85032e43e8370dde998ec1b50f6e899d6f21325": {
                "nonce": "0x00",
                "balance": "0x2e",
                "code": "0x6000355415600957005b60203560003555",
                "storage": {}
            },
            "0xf85032e43e8370dde998ec1b50f6e899d6f21425": {
                "nonce": "0x00",
                "balance": "0x00",
                "code": "0x7f00000000000000000000000100000000000000000000000000000000000000007f00000000000000000000000000000000000000000000000000000000000000017f000000000000000000000000f85032e43e8370dde998ec1b50f6e899d6f213257f000000000000000000000000000000000000000000000000000000000000c3507fffffffffffffffffffffffffffffffffffffffffffffffffffffffffffffffff7ffffffffffffffffffffffffffffffffffffffffffffffffffffffffffffffffe7fffffffffffffffffffffffffffffffffffffffffffffffffffffffffffffffff7f000000000000000000000000f85032e43e8370dde998ec1b50f6e899d6f213256f82941340756317567250f1573a89765560005155",
                "storage": {}
            }
        },
        "transaction": {
            "nonce": "0x00",
            "gasPrice": "0x0a",
            "gasLimit": [
                "0x0186a0"
            ],
            "to": "0xf85032e43e8370dde998ec1b50f6e899d6f21425",
            "value": [
                "0x50f61b39"
            ],
            "data": [
                "0x7f00000000000000000000000100000000000000000000000000000000000000007f00000000000000000000000000000000000000000000000000000000000000017f000000000000000000000000f85032e43e8370dde998ec1b50f6e899d6f213257f000000000000000000000000000000000000000000000000000000000000c3507fffffffffffffffffffffffffffffffffffffffffffffffffffffffffffffffff7ffffffffffffffffffffffffffffffffffffffffffffffffffffffffffffffffe7fffffffffffffffffffffffffffffffffffffffffffffffffffffffffffffffff7f000000000000000000000000f85032e43e8370dde998ec1b50f6e899d6f213256f82941340756317567250f1573a8976"
            ],
            "sender": "0x0fa3761235a1dfbfe78618aed500f7ade67288f6",
            "secretKey": "0x9c76a1a0306111b2a5e503bdf85032e43e8370dde998ec1b50f6e899d6f21325"
        },
        "post": {
            "Prague": [
                {
                    "hash": "0x460c4ee36076cb7be83c550d6b133ff2e05b9bfa5afd792ebcf3e6688be2f5f0",
                    "logs": "0x1dcc4de8dec75d7aab85b567b6ccd41ad312451b948a7413f0a142fd40d49347",
                    "txbytes": "0xf9017e800a830186a094f85032e43e8370dde998ec1b50f6e899d6f214258450f61b39b901187f00000000000000000000000100000000000000000000000000000000000000007f00000000000000000000000000000000000000000000000000000000000000017f000000000000000000000000f85032e43e8370dde998ec1b50f6e899d6f213257f000000000000000000000000000000000000000000000000000000000000c3507fffffffffffffffffffffffffffffffffffffffffffffffffffffffffffffffff7ffffffffffffffffffffffffffffffffffffffffffffffffffffffffffffffffe7fffffffffffffffffffffffffffffffffffffffffffffffffffffffffffffffff7f000000000000000000000000f85032e43e8370dde998ec1b50f6e899d6f213256f82941340756317567250f1573a897625a01683d89a4ae81ed4d8b029601521c20282eaa699687cbbf03219977b1e0e6af7a06f2bc7818d692f394fe7e399c44cd98fc70b4f5d871bcc45bbbad93322982c3f",
                    "indexes": {
                        "data": 0,
                        "gas": 0,
                        "value": 0
                    },
                    "state": {
                        "0x0fa3761235a1dfbfe78618aed500f7ade67288f6": {
                            "nonce": "0x01",
                            "balance": "0x0de0b6b35666d727",
                            "code": "0x",
                            "storage": {}
                        },
                        "0xf85032e43e8370dde998ec1b50f6e899d6f21325": {
                            "nonce": "0x00",
                            "balance": "0x2e",
                            "code": "0x6000355415600957005b60203560003555",
                            "storage": {}
                        },
                        "0xf85032e43e8370dde998ec1b50f6e899d6f21425": {
                            "nonce": "0x00",
                            "balance": "0x50f61b39",
                            "code": "0x7f00000000000000000000000100000000000000000000000000000000000000007f00000000000000000000000000000000000000000000000000000000000000017f000000000000000000000000f85032e43e8370dde998ec1b50f6e899d6f213257f000000000000000000000000000000000000000000000000000000000000c3507fffffffffffffffffffffffffffffffffffffffffffffffffffffffffffffffff7ffffffffffffffffffffffffffffffffffffffffffffffffffffffffffffffffe7fffffffffffffffffffffffffffffffffffffffffffffffffffffffffffffffff7f000000000000000000000000f85032e43e8370dde998ec1b50f6e899d6f213256f82941340756317567250f1573a89765560005155",
                            "storage": {
                                "0x00": "0x82941340756317567250f1573a897655"
                            }
                        }
                    }
                }
            ]
        },
        "config": {
            "blobSchedule": {
                "Cancun": {
                    "target": "0x03",
                    "max": "0x06",
                    "baseFeeUpdateFraction": "0x32f0ed"
                },
                "Prague": {
                    "target": "0x06",
                    "max": "0x09",
                    "baseFeeUpdateFraction": "0x4c6964"
                }
            },
            "chainid": "0x01"
        },
        "_info": {
            "hash": "0x50b8680b1cc79460d178d1bc48dcc47ecc07922bfb6cb5def8a705fdd656799f",
            "comment": "`execution-spec-tests` generated test",
            "filling-transition-tool": "ethereum-spec-evm-resolver 0.0.5",
            "description": "No description available - add a docstring to the python test class or function.",
            "url": "",
            "fixture-format": "state_test",
            "eels-resolution": {
                "git-url": "https://github.com/ethereum/execution-specs.git",
                "branch": "forks/bpos",
                "commit": "7aacb2c54111391af5e98c505d5010b5698a770f"
            }
        }
    }
}