{
    "tests/static/state_tests/stRandom2/randomStatetest426Filler.json::randomStatetest426[fork_Cancun-state_test-]": {
        "env": {
            "currentCoinbase": "0x8aaa91fb28739b6e0ed886b4603468ea0ef0212c",
            "currentGasLimit": "0x7fffffffffffffff",
            "currentNumber": "0x01",
            "currentTimestamp": "0x03e8",
            "currentRandom": "0x0000000000000000000000000000000000000000000000000000000000020000",
            "currentDifficulty": "0x00",
            "currentBaseFee": "0x0a",
            "currentExcessBlobGas": "0x00"
        },
        "pre": {
            "0x1ebb339b1f9b57bb6ab25f66cbf663f3fbcae0c1": {
                "nonce": "0x00",
                "balance": "0x0de0b6b3a7640000",
                "code": "0x",
                "storage": {}
            },
            "0x8aaa91fb28739b6e0ed886b4603468ea0ef0212c": {
                "nonce": "0x00",
                "balance": "0x2e",
                "code": "0x6000355415600957005b60203560003555",
                "storage": {}
            },
            "0x8aaa91fb28739b6e0ed886b4603468ea0ef0222c": {
                "nonce": "0x00",
                "balance": "0x00",
                "code": "0x7fffffffffffffffffffffffffffffffffffffffffffffffffffffffffffffffff7f000000000000000000000000000000000000000000000000000000000000c3507f0000000000000000000000008aaa91fb28739b6e0ed886b4603468ea0ef0212c417ffffffffffffffffffffffffffffffffffffffffffffffffffffffffffffffffe7ffffffffffffffffffffffffffffffffffffffffffffffffffffffffffffffffe7f000000000000000000000000000000000000000000000000000000000000c3507f00000000000000000000000000000000000000000000000000000000000000006f456d1687795a95938b0139976099f05560005155",
                "storage": {}
            }
        },
        "transaction": {
            "nonce": "0x00",
            "gasPrice": "0x0a",
            "gasLimit": [
                "0x0186a0"
            ],
            "to": "0x8aaa91fb28739b6e0ed886b4603468ea0ef0222c",
            "value": [
                "0x613b33ca"
            ],
            "data": [
                "0x7fffffffffffffffffffffffffffffffffffffffffffffffffffffffffffffffff7f000000000000000000000000000000000000000000000000000000000000c3507f0000000000000000000000008aaa91fb28739b6e0ed886b4603468ea0ef0212c417ffffffffffffffffffffffffffffffffffffffffffffffffffffffffffffffffe7ffffffffffffffffffffffffffffffffffffffffffffffffffffffffffffffffe7f000000000000000000000000000000000000000000000000000000000000c3507f00000000000000000000000000000000000000000000000000000000000000006f456d1687795a95938b0139976099f0"
            ],
            "sender": "0x1ebb339b1f9b57bb6ab25f66cbf663f3fbcae0c1",
            "secretKey": "0x491bf3463b20f2a40a5d94048aaa91fb28739b6e0ed886b4603468ea0ef0212c"
        },
        "post": {
            "Cancun": [
                {
                    "hash": "0x25234119295b587c85a28fa9f664a9526be739965ee99a36cd55886e274fe197",
                    "logs": "0x1dcc4de8dec75d7aab85b567b6ccd41ad312451b948a7413f0a142fd40d49347",
                    "txbytes": "0xf9015d800a830186a0948aaa91fb28739b6e0ed886b4603468ea0ef0222c84613b33cab8f87fffffffffffffffffffffffffffffffffffffffffffffffffffffffffffffffff7f000000000000000000000000000000000000000000000000000000000000c3507f0000000000000000000000008aaa91fb28739b6e0ed886b4603468ea0ef0212c417ffffffffffffffffffffffffffffffffffffffffffffffffffffffffffffffffe7ffffffffffffffffffffffffffffffffffffffffffffffffffffffffffffffffe7f000000000000000000000000000000000000000000000000000000000000c3507f00000000000000000000000000000000000000000000000000000000000000006f456d1687795a95938b0139976099f026a0e450a49af17ccac8c1da1cd8c2639a1b353011bf33d3ce82a18cb1bfba83edd6a01863b4375fd212f14655b9fea7e12b1ea2cef8b978549a44342a4c5ddfede549",
                    "indexes": {
                        "data": 0,
                        "gas": 0,
                        "value": 0
                    },
                    "state": {
                        "0x1ebb339b1f9b57bb6ab25f66cbf663f3fbcae0c1": {
                            "nonce": "0x01",
                            "balance": "0x0de0b6b34621cd00",
                            "code": "0x",
                            "storage": {}
                        },
                        "0x8aaa91fb28739b6e0ed886b4603468ea0ef0212c": {
                            "nonce": "0x00",
                            "balance": "0x2e",
                            "code": "0x6000355415600957005b60203560003555",
                            "storage": {}
                        },
                        "0x8aaa91fb28739b6e0ed886b4603468ea0ef0222c": {
                            "nonce": "0x00",
                            "balance": "0x613b33ca",
                            "code": "0x7fffffffffffffffffffffffffffffffffffffffffffffffffffffffffffffffff7f000000000000000000000000000000000000000000000000000000000000c3507f0000000000000000000000008aaa91fb28739b6e0ed886b4603468ea0ef0212c417ffffffffffffffffffffffffffffffffffffffffffffffffffffffffffffffffe7ffffffffffffffffffffffffffffffffffffffffffffffffffffffffffffffffe7f000000000000000000000000000000000000000000000000000000000000c3507f00000000000000000000000000000000000000000000000000000000000000006f456d1687795a95938b0139976099f05560005155",
                            "storage": {
                                "0x00": "0x456d1687795a95938b0139976099f055"
                            }
                        }
                    }
                }
            ]
        },
        "config": {
            "blobSchedule": {
                "Cancun": {
                    "target": "0x03",
                    "max": "0x06",
                    "baseFeeUpdateFraction": "0x32f0ed"
                }
            },
            "chainid": "0x01"
        },
        "_info": {
            "hash": "0xf49715feca833b7b48fff91293f9f9a37ac6228c605762e4c8d6205ed503a19c",
            "comment": "`execution-spec-tests` generated test",
            "filling-transition-tool": "ethereum-spec-evm-resolver 0.0.5",
            "description": "No description available - add a docstring to the python test class or function.",
            "url": "",
            "fixture-format": "state_test",
            "eels-resolution": {
                "git-url": "https://github.com/marioevz/execution-specs.git",
                "branch": "forks/bpo1",
                "commit": "3387e5f4aedfe99becfdc39b444d6371e25e0924"
            }
        }
    },
    "tests/static/state_tests/stRandom2/randomStatetest426Filler.json::randomStatetest426[fork_Osaka-state_test-]": {
        "env": {
            "currentCoinbase": "0x8aaa91fb28739b6e0ed886b4603468ea0ef0212c",
            "currentGasLimit": "0x7fffffffffffffff",
            "currentNumber": "0x01",
            "currentTimestamp": "0x03e8",
            "currentRandom": "0x0000000000000000000000000000000000000000000000000000000000020000",
            "currentDifficulty": "0x00",
            "currentBaseFee": "0x0a",
            "currentExcessBlobGas": "0x00"
        },
        "pre": {
            "0x1ebb339b1f9b57bb6ab25f66cbf663f3fbcae0c1": {
                "nonce": "0x00",
                "balance": "0x0de0b6b3a7640000",
                "code": "0x",
                "storage": {}
            },
            "0x8aaa91fb28739b6e0ed886b4603468ea0ef0212c": {
                "nonce": "0x00",
                "balance": "0x2e",
                "code": "0x6000355415600957005b60203560003555",
                "storage": {}
            },
            "0x8aaa91fb28739b6e0ed886b4603468ea0ef0222c": {
                "nonce": "0x00",
                "balance": "0x00",
                "code": "0x7fffffffffffffffffffffffffffffffffffffffffffffffffffffffffffffffff7f000000000000000000000000000000000000000000000000000000000000c3507f0000000000000000000000008aaa91fb28739b6e0ed886b4603468ea0ef0212c417ffffffffffffffffffffffffffffffffffffffffffffffffffffffffffffffffe7ffffffffffffffffffffffffffffffffffffffffffffffffffffffffffffffffe7f000000000000000000000000000000000000000000000000000000000000c3507f00000000000000000000000000000000000000000000000000000000000000006f456d1687795a95938b0139976099f05560005155",
                "storage": {}
            }
        },
        "transaction": {
            "nonce": "0x00",
            "gasPrice": "0x0a",
            "gasLimit": [
                "0x0186a0"
            ],
            "to": "0x8aaa91fb28739b6e0ed886b4603468ea0ef0222c",
            "value": [
                "0x613b33ca"
            ],
            "data": [
                "0x7fffffffffffffffffffffffffffffffffffffffffffffffffffffffffffffffff7f000000000000000000000000000000000000000000000000000000000000c3507f0000000000000000000000008aaa91fb28739b6e0ed886b4603468ea0ef0212c417ffffffffffffffffffffffffffffffffffffffffffffffffffffffffffffffffe7ffffffffffffffffffffffffffffffffffffffffffffffffffffffffffffffffe7f000000000000000000000000000000000000000000000000000000000000c3507f00000000000000000000000000000000000000000000000000000000000000006f456d1687795a95938b0139976099f0"
            ],
            "sender": "0x1ebb339b1f9b57bb6ab25f66cbf663f3fbcae0c1",
            "secretKey": "0x491bf3463b20f2a40a5d94048aaa91fb28739b6e0ed886b4603468ea0ef0212c"
        },
        "post": {
            "Osaka": [
                {
                    "hash": "0x25234119295b587c85a28fa9f664a9526be739965ee99a36cd55886e274fe197",
                    "logs": "0x1dcc4de8dec75d7aab85b567b6ccd41ad312451b948a7413f0a142fd40d49347",
                    "txbytes": "0xf9015d800a830186a0948aaa91fb28739b6e0ed886b4603468ea0ef0222c84613b33cab8f87fffffffffffffffffffffffffffffffffffffffffffffffffffffffffffffffff7f000000000000000000000000000000000000000000000000000000000000c3507f0000000000000000000000008aaa91fb28739b6e0ed886b4603468ea0ef0212c417ffffffffffffffffffffffffffffffffffffffffffffffffffffffffffffffffe7ffffffffffffffffffffffffffffffffffffffffffffffffffffffffffffffffe7f000000000000000000000000000000000000000000000000000000000000c3507f00000000000000000000000000000000000000000000000000000000000000006f456d1687795a95938b0139976099f026a0e450a49af17ccac8c1da1cd8c2639a1b353011bf33d3ce82a18cb1bfba83edd6a01863b4375fd212f14655b9fea7e12b1ea2cef8b978549a44342a4c5ddfede549",
                    "indexes": {
                        "data": 0,
                        "gas": 0,
                        "value": 0
                    },
                    "state": {
                        "0x1ebb339b1f9b57bb6ab25f66cbf663f3fbcae0c1": {
                            "nonce": "0x01",
                            "balance": "0x0de0b6b34621cd00",
                            "code": "0x",
                            "storage": {}
                        },
                        "0x8aaa91fb28739b6e0ed886b4603468ea0ef0212c": {
                            "nonce": "0x00",
                            "balance": "0x2e",
                            "code": "0x6000355415600957005b60203560003555",
                            "storage": {}
                        },
                        "0x8aaa91fb28739b6e0ed886b4603468ea0ef0222c": {
                            "nonce": "0x00",
                            "balance": "0x613b33ca",
                            "code": "0x7fffffffffffffffffffffffffffffffffffffffffffffffffffffffffffffffff7f000000000000000000000000000000000000000000000000000000000000c3507f0000000000000000000000008aaa91fb28739b6e0ed886b4603468ea0ef0212c417ffffffffffffffffffffffffffffffffffffffffffffffffffffffffffffffffe7ffffffffffffffffffffffffffffffffffffffffffffffffffffffffffffffffe7f000000000000000000000000000000000000000000000000000000000000c3507f00000000000000000000000000000000000000000000000000000000000000006f456d1687795a95938b0139976099f05560005155",
                            "storage": {
                                "0x00": "0x456d1687795a95938b0139976099f055"
                            }
                        }
                    }
                }
            ]
        },
        "config": {
            "blobSchedule": {
                "Cancun": {
                    "target": "0x03",
                    "max": "0x06",
                    "baseFeeUpdateFraction": "0x32f0ed"
                },
                "Prague": {
                    "target": "0x06",
                    "max": "0x09",
                    "baseFeeUpdateFraction": "0x4c6964"
                },
                "Osaka": {
                    "target": "0x06",
                    "max": "0x09",
                    "baseFeeUpdateFraction": "0x4c6964"
                }
            },
            "chainid": "0x01"
        },
        "_info": {
            "hash": "0x7ba100ee6ad624b354490287b1a65ba7c0a960bf1ff9659af04ef21923251c1f",
            "comment": "`execution-spec-tests` generated test",
            "filling-transition-tool": "ethereum-spec-evm-resolver 0.0.5",
            "description": "No description available - add a docstring to the python test class or function.",
            "url": "",
            "fixture-format": "state_test",
            "eels-resolution": {
                "git-url": "https://github.com/marioevz/execution-specs.git",
                "branch": "forks/bpo1",
                "commit": "3387e5f4aedfe99becfdc39b444d6371e25e0924"
            }
        }
    },
    "tests/static/state_tests/stRandom2/randomStatetest426Filler.json::randomStatetest426[fork_Prague-state_test-]": {
        "env": {
            "currentCoinbase": "0x8aaa91fb28739b6e0ed886b4603468ea0ef0212c",
            "currentGasLimit": "0x7fffffffffffffff",
            "currentNumber": "0x01",
            "currentTimestamp": "0x03e8",
            "currentRandom": "0x0000000000000000000000000000000000000000000000000000000000020000",
            "currentDifficulty": "0x00",
            "currentBaseFee": "0x0a",
            "currentExcessBlobGas": "0x00"
        },
        "pre": {
            "0x1ebb339b1f9b57bb6ab25f66cbf663f3fbcae0c1": {
                "nonce": "0x00",
                "balance": "0x0de0b6b3a7640000",
                "code": "0x",
                "storage": {}
            },
            "0x8aaa91fb28739b6e0ed886b4603468ea0ef0212c": {
                "nonce": "0x00",
                "balance": "0x2e",
                "code": "0x6000355415600957005b60203560003555",
                "storage": {}
            },
            "0x8aaa91fb28739b6e0ed886b4603468ea0ef0222c": {
                "nonce": "0x00",
                "balance": "0x00",
                "code": "0x7fffffffffffffffffffffffffffffffffffffffffffffffffffffffffffffffff7f000000000000000000000000000000000000000000000000000000000000c3507f0000000000000000000000008aaa91fb28739b6e0ed886b4603468ea0ef0212c417ffffffffffffffffffffffffffffffffffffffffffffffffffffffffffffffffe7ffffffffffffffffffffffffffffffffffffffffffffffffffffffffffffffffe7f000000000000000000000000000000000000000000000000000000000000c3507f00000000000000000000000000000000000000000000000000000000000000006f456d1687795a95938b0139976099f05560005155",
                "storage": {}
            }
        },
        "transaction": {
            "nonce": "0x00",
            "gasPrice": "0x0a",
            "gasLimit": [
                "0x0186a0"
            ],
            "to": "0x8aaa91fb28739b6e0ed886b4603468ea0ef0222c",
            "value": [
                "0x613b33ca"
            ],
            "data": [
                "0x7fffffffffffffffffffffffffffffffffffffffffffffffffffffffffffffffff7f000000000000000000000000000000000000000000000000000000000000c3507f0000000000000000000000008aaa91fb28739b6e0ed886b4603468ea0ef0212c417ffffffffffffffffffffffffffffffffffffffffffffffffffffffffffffffffe7ffffffffffffffffffffffffffffffffffffffffffffffffffffffffffffffffe7f000000000000000000000000000000000000000000000000000000000000c3507f00000000000000000000000000000000000000000000000000000000000000006f456d1687795a95938b0139976099f0"
            ],
            "sender": "0x1ebb339b1f9b57bb6ab25f66cbf663f3fbcae0c1",
            "secretKey": "0x491bf3463b20f2a40a5d94048aaa91fb28739b6e0ed886b4603468ea0ef0212c"
        },
        "post": {
            "Prague": [
                {
                    "hash": "0x25234119295b587c85a28fa9f664a9526be739965ee99a36cd55886e274fe197",
                    "logs": "0x1dcc4de8dec75d7aab85b567b6ccd41ad312451b948a7413f0a142fd40d49347",
                    "txbytes": "0xf9015d800a830186a0948aaa91fb28739b6e0ed886b4603468ea0ef0222c84613b33cab8f87fffffffffffffffffffffffffffffffffffffffffffffffffffffffffffffffff7f000000000000000000000000000000000000000000000000000000000000c3507f0000000000000000000000008aaa91fb28739b6e0ed886b4603468ea0ef0212c417ffffffffffffffffffffffffffffffffffffffffffffffffffffffffffffffffe7ffffffffffffffffffffffffffffffffffffffffffffffffffffffffffffffffe7f000000000000000000000000000000000000000000000000000000000000c3507f00000000000000000000000000000000000000000000000000000000000000006f456d1687795a95938b0139976099f026a0e450a49af17ccac8c1da1cd8c2639a1b353011bf33d3ce82a18cb1bfba83edd6a01863b4375fd212f14655b9fea7e12b1ea2cef8b978549a44342a4c5ddfede549",
                    "indexes": {
                        "data": 0,
                        "gas": 0,
                        "value": 0
                    },
                    "state": {
                        "0x1ebb339b1f9b57bb6ab25f66cbf663f3fbcae0c1": {
                            "nonce": "0x01",
                            "balance": "0x0de0b6b34621cd00",
                            "code": "0x",
                            "storage": {}
                        },
                        "0x8aaa91fb28739b6e0ed886b4603468ea0ef0212c": {
                            "nonce": "0x00",
                            "balance": "0x2e",
                            "code": "0x6000355415600957005b60203560003555",
                            "storage": {}
                        },
                        "0x8aaa91fb28739b6e0ed886b4603468ea0ef0222c": {
                            "nonce": "0x00",
                            "balance": "0x613b33ca",
                            "code": "0x7fffffffffffffffffffffffffffffffffffffffffffffffffffffffffffffffff7f000000000000000000000000000000000000000000000000000000000000c3507f0000000000000000000000008aaa91fb28739b6e0ed886b4603468ea0ef0212c417ffffffffffffffffffffffffffffffffffffffffffffffffffffffffffffffffe7ffffffffffffffffffffffffffffffffffffffffffffffffffffffffffffffffe7f000000000000000000000000000000000000000000000000000000000000c3507f00000000000000000000000000000000000000000000000000000000000000006f456d1687795a95938b0139976099f05560005155",
                            "storage": {
                                "0x00": "0x456d1687795a95938b0139976099f055"
                            }
                        }
                    }
                }
            ]
        },
        "config": {
            "blobSchedule": {
                "Cancun": {
                    "target": "0x03",
                    "max": "0x06",
                    "baseFeeUpdateFraction": "0x32f0ed"
                },
                "Prague": {
                    "target": "0x06",
                    "max": "0x09",
                    "baseFeeUpdateFraction": "0x4c6964"
                }
            },
            "chainid": "0x01"
        },
        "_info": {
            "hash": "0x2a5507c9c2e9a18e64e5425c65c1057cf685e1d4ae9241411c8acce0f93a1675",
            "comment": "`execution-spec-tests` generated test",
            "filling-transition-tool": "ethereum-spec-evm-resolver 0.0.5",
            "description": "No description available - add a docstring to the python test class or function.",
            "url": "",
            "fixture-format": "state_test",
            "eels-resolution": {
                "git-url": "https://github.com/marioevz/execution-specs.git",
                "branch": "forks/bpo1",
                "commit": "3387e5f4aedfe99becfdc39b444d6371e25e0924"
            }
        }
    }
}