{
    "tests/static/state_tests/stRandom2/randomStatetest466Filler.json::randomStatetest466[fork_Cancun-state_test-]": {
        "env": {
            "currentCoinbase": "0xa90e537c2693502147b16865261a5a5e0f9aa469",
            "currentGasLimit": "0x7fffffffffffffff",
            "currentNumber": "0x01",
            "currentTimestamp": "0x03e8",
            "currentRandom": "0x0000000000000000000000000000000000000000000000000000000000020000",
            "currentDifficulty": "0x00",
            "currentBaseFee": "0x0a",
            "currentExcessBlobGas": "0x00"
        },
        "pre": {
            "0x784fcfb8e2c3e1ff4844b11f43a311677683de07": {
                "nonce": "0x00",
                "balance": "0x0de0b6b3a7640000",
                "code": "0x",
                "storage": {}
            },
            "0xa90e537c2693502147b16865261a5a5e0f9aa469": {
                "nonce": "0x00",
                "balance": "0x2e",
                "code": "0x6000355415600957005b60203560003555",
                "storage": {}
            },
            "0xa90e537c2693502147b16865261a5a5e0f9aa569": {
                "nonce": "0x00",
                "balance": "0x00",
                "code": "0x7ffffffffffffffffffffffffffffffffffffffffffffffffffffffffffffffffe7ffffffffffffffffffffffffffffffffffffffffffffffffffffffffffffffffe7f000000000000000000000000ffffffffffffffffffffffffffffffffffffffff4244904244045560005155",
                "storage": {}
            }
        },
        "transaction": {
            "nonce": "0x00",
            "gasPrice": "0x0a",
            "gasLimit": [
                "0xd9acdb"
            ],
            "to": "0xa90e537c2693502147b16865261a5a5e0f9aa569",
            "value": [
                "0x6ac01f3a"
            ],
            "data": [
                "0x7ffffffffffffffffffffffffffffffffffffffffffffffffffffffffffffffffe7ffffffffffffffffffffffffffffffffffffffffffffffffffffffffffffffffe7f000000000000000000000000ffffffffffffffffffffffffffffffffffffffff424490424404"
            ],
            "sender": "0x784fcfb8e2c3e1ff4844b11f43a311677683de07",
            "secretKey": "0x3b2c370e4e64c8c9a49b6f01a90e537c2693502147b16865261a5a5e0f9aa469"
        },
        "post": {
            "Cancun": [
                {
                    "hash": "0xac79951c2ac2146066c16779092caeac231533c7064c3c1d8bb13e65d02cfb9c",
                    "logs": "0x1dcc4de8dec75d7aab85b567b6ccd41ad312451b948a7413f0a142fd40d49347",
                    "txbytes": "0xf8ce800a83d9acdb94a90e537c2693502147b16865261a5a5e0f9aa569846ac01f3ab8697ffffffffffffffffffffffffffffffffffffffffffffffffffffffffffffffffe7ffffffffffffffffffffffffffffffffffffffffffffffffffffffffffffffffe7f000000000000000000000000ffffffffffffffffffffffffffffffffffffffff42449042440426a0f68e5bf4e5ae16f5f9c913c345179937cb348cc6c413995d2b33779d07511ddaa04f3afb299179cb047501257964c212df5e08bc76f8d017ef4b2a9344e6c0b335",
                    "indexes": {
                        "data": 0,
                        "gas": 0,
                        "value": 0
                    },
                    "state": {
                        "0x784fcfb8e2c3e1ff4844b11f43a311677683de07": {
                            "nonce": "0x01",
                            "balance": "0x0de0b6b33c99b092",
                            "code": "0x",
                            "storage": {}
                        },
                        "0xa90e537c2693502147b16865261a5a5e0f9aa469": {
                            "nonce": "0x00",
                            "balance": "0x2e",
                            "code": "0x6000355415600957005b60203560003555",
                            "storage": {}
                        },
                        "0xa90e537c2693502147b16865261a5a5e0f9aa569": {
                            "nonce": "0x00",
                            "balance": "0x6ac01f3a",
                            "code": "0x7ffffffffffffffffffffffffffffffffffffffffffffffffffffffffffffffffe7ffffffffffffffffffffffffffffffffffffffffffffffffffffffffffffffffe7f000000000000000000000000ffffffffffffffffffffffffffffffffffffffff4244904244045560005155",
                            "storage": {
                                "0x83": "0x03e8",
                                "0x00": "0x020000"
                            }
                        }
                    }
                }
            ]
        },
        "config": {
            "blobSchedule": {
                "Cancun": {
                    "target": "0x03",
                    "max": "0x06",
                    "baseFeeUpdateFraction": "0x32f0ed"
                }
            },
            "chainid": "0x01"
        },
        "_info": {
            "hash": "0xe9be25ecaf9e6536a9ccc116ab859cc530aabcdb40b1db4c6d4f83d98a332ce3",
            "comment": "`execution-spec-tests` generated test",
            "filling-transition-tool": "ethereum-spec-evm-resolver 0.0.5",
            "description": "No description available - add a docstring to the python test class or function.",
            "url": "",
            "fixture-format": "state_test",
            "eels-resolution": {
                "git-url": "https://github.com/marioevz/execution-specs.git",
                "branch": "forks/bpo1",
                "commit": "3387e5f4aedfe99becfdc39b444d6371e25e0924"
            }
        }
    },
    "tests/static/state_tests/stRandom2/randomStatetest466Filler.json::randomStatetest466[fork_Osaka-state_test-]": {
        "env": {
            "currentCoinbase": "0xa90e537c2693502147b16865261a5a5e0f9aa469",
            "currentGasLimit": "0x7fffffffffffffff",
            "currentNumber": "0x01",
            "currentTimestamp": "0x03e8",
            "currentRandom": "0x0000000000000000000000000000000000000000000000000000000000020000",
            "currentDifficulty": "0x00",
            "currentBaseFee": "0x0a",
            "currentExcessBlobGas": "0x00"
        },
        "pre": {
            "0x784fcfb8e2c3e1ff4844b11f43a311677683de07": {
                "nonce": "0x00",
                "balance": "0x0de0b6b3a7640000",
                "code": "0x",
                "storage": {}
            },
            "0xa90e537c2693502147b16865261a5a5e0f9aa469": {
                "nonce": "0x00",
                "balance": "0x2e",
                "code": "0x6000355415600957005b60203560003555",
                "storage": {}
            },
            "0xa90e537c2693502147b16865261a5a5e0f9aa569": {
                "nonce": "0x00",
                "balance": "0x00",
                "code": "0x7ffffffffffffffffffffffffffffffffffffffffffffffffffffffffffffffffe7ffffffffffffffffffffffffffffffffffffffffffffffffffffffffffffffffe7f000000000000000000000000ffffffffffffffffffffffffffffffffffffffff4244904244045560005155",
                "storage": {}
            }
        },
        "transaction": {
            "nonce": "0x00",
            "gasPrice": "0x0a",
            "gasLimit": [
                "0xd9acdb"
            ],
            "to": "0xa90e537c2693502147b16865261a5a5e0f9aa569",
            "value": [
                "0x6ac01f3a"
            ],
            "data": [
                "0x7ffffffffffffffffffffffffffffffffffffffffffffffffffffffffffffffffe7ffffffffffffffffffffffffffffffffffffffffffffffffffffffffffffffffe7f000000000000000000000000ffffffffffffffffffffffffffffffffffffffff424490424404"
            ],
            "sender": "0x784fcfb8e2c3e1ff4844b11f43a311677683de07",
            "secretKey": "0x3b2c370e4e64c8c9a49b6f01a90e537c2693502147b16865261a5a5e0f9aa469"
        },
        "post": {
            "Osaka": [
                {
                    "hash": "0xac79951c2ac2146066c16779092caeac231533c7064c3c1d8bb13e65d02cfb9c",
                    "logs": "0x1dcc4de8dec75d7aab85b567b6ccd41ad312451b948a7413f0a142fd40d49347",
                    "txbytes": "0xf8ce800a83d9acdb94a90e537c2693502147b16865261a5a5e0f9aa569846ac01f3ab8697ffffffffffffffffffffffffffffffffffffffffffffffffffffffffffffffffe7ffffffffffffffffffffffffffffffffffffffffffffffffffffffffffffffffe7f000000000000000000000000ffffffffffffffffffffffffffffffffffffffff42449042440426a0f68e5bf4e5ae16f5f9c913c345179937cb348cc6c413995d2b33779d07511ddaa04f3afb299179cb047501257964c212df5e08bc76f8d017ef4b2a9344e6c0b335",
                    "indexes": {
                        "data": 0,
                        "gas": 0,
                        "value": 0
                    },
                    "state": {
                        "0x784fcfb8e2c3e1ff4844b11f43a311677683de07": {
                            "nonce": "0x01",
                            "balance": "0x0de0b6b33c99b092",
                            "code": "0x",
                            "storage": {}
                        },
                        "0xa90e537c2693502147b16865261a5a5e0f9aa469": {
                            "nonce": "0x00",
                            "balance": "0x2e",
                            "code": "0x6000355415600957005b60203560003555",
                            "storage": {}
                        },
                        "0xa90e537c2693502147b16865261a5a5e0f9aa569": {
                            "nonce": "0x00",
                            "balance": "0x6ac01f3a",
                            "code": "0x7ffffffffffffffffffffffffffffffffffffffffffffffffffffffffffffffffe7ffffffffffffffffffffffffffffffffffffffffffffffffffffffffffffffffe7f000000000000000000000000ffffffffffffffffffffffffffffffffffffffff4244904244045560005155",
                            "storage": {
                                "0x83": "0x03e8",
                                "0x00": "0x020000"
                            }
                        }
                    }
                }
            ]
        },
        "config": {
            "blobSchedule": {
                "Cancun": {
                    "target": "0x03",
                    "max": "0x06",
                    "baseFeeUpdateFraction": "0x32f0ed"
                },
                "Prague": {
                    "target": "0x06",
                    "max": "0x09",
                    "baseFeeUpdateFraction": "0x4c6964"
                },
                "Osaka": {
                    "target": "0x06",
                    "max": "0x09",
                    "baseFeeUpdateFraction": "0x4c6964"
                }
            },
            "chainid": "0x01"
        },
        "_info": {
            "hash": "0x907931ca1d6ba2b8de90a9e5b6d142f82c4556b182ff333155f9320bbc3e4a0b",
            "comment": "`execution-spec-tests` generated test",
            "filling-transition-tool": "ethereum-spec-evm-resolver 0.0.5",
            "description": "No description available - add a docstring to the python test class or function.",
            "url": "",
            "fixture-format": "state_test",
            "eels-resolution": {
                "git-url": "https://github.com/marioevz/execution-specs.git",
                "branch": "forks/bpo1",
                "commit": "3387e5f4aedfe99becfdc39b444d6371e25e0924"
            }
        }
    },
    "tests/static/state_tests/stRandom2/randomStatetest466Filler.json::randomStatetest466[fork_Prague-state_test-]": {
        "env": {
            "currentCoinbase": "0xa90e537c2693502147b16865261a5a5e0f9aa469",
            "currentGasLimit": "0x7fffffffffffffff",
            "currentNumber": "0x01",
            "currentTimestamp": "0x03e8",
            "currentRandom": "0x0000000000000000000000000000000000000000000000000000000000020000",
            "currentDifficulty": "0x00",
            "currentBaseFee": "0x0a",
            "currentExcessBlobGas": "0x00"
        },
        "pre": {
            "0x784fcfb8e2c3e1ff4844b11f43a311677683de07": {
                "nonce": "0x00",
                "balance": "0x0de0b6b3a7640000",
                "code": "0x",
                "storage": {}
            },
            "0xa90e537c2693502147b16865261a5a5e0f9aa469": {
                "nonce": "0x00",
                "balance": "0x2e",
                "code": "0x6000355415600957005b60203560003555",
                "storage": {}
            },
            "0xa90e537c2693502147b16865261a5a5e0f9aa569": {
                "nonce": "0x00",
                "balance": "0x00",
                "code": "0x7ffffffffffffffffffffffffffffffffffffffffffffffffffffffffffffffffe7ffffffffffffffffffffffffffffffffffffffffffffffffffffffffffffffffe7f000000000000000000000000ffffffffffffffffffffffffffffffffffffffff4244904244045560005155",
                "storage": {}
            }
        },
        "transaction": {
            "nonce": "0x00",
            "gasPrice": "0x0a",
            "gasLimit": [
                "0xd9acdb"
            ],
            "to": "0xa90e537c2693502147b16865261a5a5e0f9aa569",
            "value": [
                "0x6ac01f3a"
            ],
            "data": [
                "0x7ffffffffffffffffffffffffffffffffffffffffffffffffffffffffffffffffe7ffffffffffffffffffffffffffffffffffffffffffffffffffffffffffffffffe7f000000000000000000000000ffffffffffffffffffffffffffffffffffffffff424490424404"
            ],
            "sender": "0x784fcfb8e2c3e1ff4844b11f43a311677683de07",
            "secretKey": "0x3b2c370e4e64c8c9a49b6f01a90e537c2693502147b16865261a5a5e0f9aa469"
        },
        "post": {
            "Prague": [
                {
                    "hash": "0xac79951c2ac2146066c16779092caeac231533c7064c3c1d8bb13e65d02cfb9c",
                    "logs": "0x1dcc4de8dec75d7aab85b567b6ccd41ad312451b948a7413f0a142fd40d49347",
                    "txbytes": "0xf8ce800a83d9acdb94a90e537c2693502147b16865261a5a5e0f9aa569846ac01f3ab8697ffffffffffffffffffffffffffffffffffffffffffffffffffffffffffffffffe7ffffffffffffffffffffffffffffffffffffffffffffffffffffffffffffffffe7f000000000000000000000000ffffffffffffffffffffffffffffffffffffffff42449042440426a0f68e5bf4e5ae16f5f9c913c345179937cb348cc6c413995d2b33779d07511ddaa04f3afb299179cb047501257964c212df5e08bc76f8d017ef4b2a9344e6c0b335",
                    "indexes": {
                        "data": 0,
                        "gas": 0,
                        "value": 0
                    },
                    "state": {
                        "0x784fcfb8e2c3e1ff4844b11f43a311677683de07": {
                            "nonce": "0x01",
                            "balance": "0x0de0b6b33c99b092",
                            "code": "0x",
                            "storage": {}
                        },
                        "0xa90e537c2693502147b16865261a5a5e0f9aa469": {
                            "nonce": "0x00",
                            "balance": "0x2e",
                            "code": "0x6000355415600957005b60203560003555",
                            "storage": {}
                        },
                        "0xa90e537c2693502147b16865261a5a5e0f9aa569": {
                            "nonce": "0x00",
                            "balance": "0x6ac01f3a",
                            "code": "0x7ffffffffffffffffffffffffffffffffffffffffffffffffffffffffffffffffe7ffffffffffffffffffffffffffffffffffffffffffffffffffffffffffffffffe7f000000000000000000000000ffffffffffffffffffffffffffffffffffffffff4244904244045560005155",
                            "storage": {
                                "0x83": "0x03e8",
                                "0x00": "0x020000"
                            }
                        }
                    }
                }
            ]
        },
        "config": {
            "blobSchedule": {
                "Cancun": {
                    "target": "0x03",
                    "max": "0x06",
                    "baseFeeUpdateFraction": "0x32f0ed"
                },
                "Prague": {
                    "target": "0x06",
                    "max": "0x09",
                    "baseFeeUpdateFraction": "0x4c6964"
                }
            },
            "chainid": "0x01"
        },
        "_info": {
            "hash": "0x6bd06d3589d13c9617657cf9e35088c51b6634bb9a9a6e66d2c47c9c8515b122",
            "comment": "`execution-spec-tests` generated test",
            "filling-transition-tool": "ethereum-spec-evm-resolver 0.0.5",
            "description": "No description available - add a docstring to the python test class or function.",
            "url": "",
            "fixture-format": "state_test",
            "eels-resolution": {
                "git-url": "https://github.com/marioevz/execution-specs.git",
                "branch": "forks/bpo1",
                "commit": "3387e5f4aedfe99becfdc39b444d6371e25e0924"
            }
        }
    }
}