{
    "tests/static/state_tests/stRandom2/randomStatetest531Filler.json::randomStatetest531[fork_Cancun-state_test-]": {
        "env": {
            "currentCoinbase": "0x3c3baa47e629f030ceb3868b0411ef0f46e45b2e",
            "currentGasLimit": "0x7fffffffffffffff",
            "currentNumber": "0x01",
            "currentTimestamp": "0x03e8",
            "currentRandom": "0x0000000000000000000000000000000000000000000000000000000000020000",
            "currentDifficulty": "0x00",
            "currentBaseFee": "0x0a",
            "currentExcessBlobGas": "0x00"
        },
        "pre": {
            "0xdb7be36138d4a3ed3908ce82cb8f448d9376033b": {
                "nonce": "0x00",
                "balance": "0x0de0b6b3a7640000",
                "code": "0x",
                "storage": {}
            },
            "0x3c3baa47e629f030ceb3868b0411ef0f46e45b2e": {
                "nonce": "0x00",
                "balance": "0x2e",
                "code": "0x6000355415600957005b60203560003555",
                "storage": {}
            },
            "0x3c3baa47e629f030ceb3868b0411ef0f46e45c2e": {
                "nonce": "0x00",
                "balance": "0x0de0b6b3a7640000",
                "code": "0x41414143434344456a12c140f3933655",
                "storage": {}
            }
        },
        "transaction": {
            "nonce": "0x00",
            "gasPrice": "0x0a",
            "gasLimit": [
                "0x061a80"
            ],
            "to": "0x3c3baa47e629f030ceb3868b0411ef0f46e45c2e",
            "value": [
                "0x0186a0"
            ],
            "data": [
                "0x42"
            ],
            "sender": "0xdb7be36138d4a3ed3908ce82cb8f448d9376033b",
            "secretKey": "0xbad745bb1094bad461e7ef2e3c3baa47e629f030ceb3868b0411ef0f46e45b2e"
        },
        "post": {
            "Cancun": [
                {
                    "hash": "0xa6701f158cead4392248719d7a5392f8980700ce7955ced9aa7b77db38ca3cb0",
                    "logs": "0x1dcc4de8dec75d7aab85b567b6ccd41ad312451b948a7413f0a142fd40d49347",
                    "txbytes": "0xf863800a83061a80943c3baa47e629f030ceb3868b0411ef0f46e45c2e830186a04225a07b33cad3d61a078fcd768693f8cdb54da2abf9ae1f9eb706ed0e91722863e088a01d01a5aa15cb9c7db1db50bb0a78fddbada51b8a32c1d64968f79c15b3da0abd",
                    "indexes": {
                        "data": 0,
                        "gas": 0,
                        "value": 0
                    },
                    "state": {
                        "0xdb7be36138d4a3ed3908ce82cb8f448d9376033b": {
                            "nonce": "0x01",
                            "balance": "0x0de0b6b3a75f43b2",
                            "code": "0x",
                            "storage": {}
                        },
                        "0x3c3baa47e629f030ceb3868b0411ef0f46e45b2e": {
                            "nonce": "0x00",
                            "balance": "0x2e",
                            "code": "0x6000355415600957005b60203560003555",
                            "storage": {}
                        },
                        "0x3c3baa47e629f030ceb3868b0411ef0f46e45c2e": {
                            "nonce": "0x00",
                            "balance": "0x0de0b6b3a76586a0",
                            "code": "0x41414143434344456a12c140f3933655",
                            "storage": {}
                        }
                    }
                }
            ]
        },
        "config": {
            "blobSchedule": {
                "Cancun": {
                    "target": "0x03",
                    "max": "0x06",
                    "baseFeeUpdateFraction": "0x32f0ed"
                }
            },
            "chainid": "0x01"
        },
        "_info": {
            "hash": "0x9797a152ae8a09cfda52ec5bf1f9abd49930411068326a17f700e741dd398872",
            "comment": "`execution-spec-tests` generated test",
            "filling-transition-tool": "ethereum-spec-evm-resolver 0.0.5",
            "description": "No description available - add a docstring to the python test class or function.",
            "url": "",
            "fixture-format": "state_test",
            "eels-resolution": {
                "git-url": "https://github.com/marioevz/execution-specs.git",
                "branch": "forks/bpo1",
                "commit": "3387e5f4aedfe99becfdc39b444d6371e25e0924"
            }
        }
    },
    "tests/static/state_tests/stRandom2/randomStatetest531Filler.json::randomStatetest531[fork_Osaka-state_test-]": {
        "env": {
            "currentCoinbase": "0x3c3baa47e629f030ceb3868b0411ef0f46e45b2e",
            "currentGasLimit": "0x7fffffffffffffff",
            "currentNumber": "0x01",
            "currentTimestamp": "0x03e8",
            "currentRandom": "0x0000000000000000000000000000000000000000000000000000000000020000",
            "currentDifficulty": "0x00",
            "currentBaseFee": "0x0a",
            "currentExcessBlobGas": "0x00"
        },
        "pre": {
            "0xdb7be36138d4a3ed3908ce82cb8f448d9376033b": {
                "nonce": "0x00",
                "balance": "0x0de0b6b3a7640000",
                "code": "0x",
                "storage": {}
            },
            "0x3c3baa47e629f030ceb3868b0411ef0f46e45b2e": {
                "nonce": "0x00",
                "balance": "0x2e",
                "code": "0x6000355415600957005b60203560003555",
                "storage": {}
            },
            "0x3c3baa47e629f030ceb3868b0411ef0f46e45c2e": {
                "nonce": "0x00",
                "balance": "0x0de0b6b3a7640000",
                "code": "0x41414143434344456a12c140f3933655",
                "storage": {}
            }
        },
        "transaction": {
            "nonce": "0x00",
            "gasPrice": "0x0a",
            "gasLimit": [
                "0x061a80"
            ],
            "to": "0x3c3baa47e629f030ceb3868b0411ef0f46e45c2e",
            "value": [
                "0x0186a0"
            ],
            "data": [
                "0x42"
            ],
            "sender": "0xdb7be36138d4a3ed3908ce82cb8f448d9376033b",
            "secretKey": "0xbad745bb1094bad461e7ef2e3c3baa47e629f030ceb3868b0411ef0f46e45b2e"
        },
        "post": {
            "Osaka": [
                {
                    "hash": "0x2c77ddf825a2f5e60a1afbbb75007b95c9c65541739819fef7a52c07a50f5e65",
                    "logs": "0x1dcc4de8dec75d7aab85b567b6ccd41ad312451b948a7413f0a142fd40d49347",
                    "txbytes": "0xf863800a83061a80943c3baa47e629f030ceb3868b0411ef0f46e45c2e830186a04225a07b33cad3d61a078fcd768693f8cdb54da2abf9ae1f9eb706ed0e91722863e088a01d01a5aa15cb9c7db1db50bb0a78fddbada51b8a32c1d64968f79c15b3da0abd",
                    "indexes": {
                        "data": 0,
                        "gas": 0,
                        "value": 0
                    },
                    "state": {
                        "0xdb7be36138d4a3ed3908ce82cb8f448d9376033b": {
                            "nonce": "0x01",
                            "balance": "0x0de0b6b3a75f4380",
                            "code": "0x",
                            "storage": {}
                        },
                        "0x3c3baa47e629f030ceb3868b0411ef0f46e45b2e": {
                            "nonce": "0x00",
                            "balance": "0x2e",
                            "code": "0x6000355415600957005b60203560003555",
                            "storage": {}
                        },
                        "0x3c3baa47e629f030ceb3868b0411ef0f46e45c2e": {
                            "nonce": "0x00",
                            "balance": "0x0de0b6b3a76586a0",
                            "code": "0x41414143434344456a12c140f3933655",
                            "storage": {}
                        }
                    }
                }
            ]
        },
        "config": {
            "blobSchedule": {
                "Cancun": {
                    "target": "0x03",
                    "max": "0x06",
                    "baseFeeUpdateFraction": "0x32f0ed"
                },
                "Prague": {
                    "target": "0x06",
                    "max": "0x09",
                    "baseFeeUpdateFraction": "0x4c6964"
                },
                "Osaka": {
                    "target": "0x06",
                    "max": "0x09",
                    "baseFeeUpdateFraction": "0x4c6964"
                }
            },
            "chainid": "0x01"
        },
        "_info": {
            "hash": "0x62b568a31c8d24abe68cdad890eb641684aacce50152287fb91b7fc628765bb0",
            "comment": "`execution-spec-tests` generated test",
            "filling-transition-tool": "ethereum-spec-evm-resolver 0.0.5",
            "description": "No description available - add a docstring to the python test class or function.",
            "url": "",
            "fixture-format": "state_test",
            "eels-resolution": {
                "git-url": "https://github.com/marioevz/execution-specs.git",
                "branch": "forks/bpo1",
                "commit": "3387e5f4aedfe99becfdc39b444d6371e25e0924"
            }
        }
    },
    "tests/static/state_tests/stRandom2/randomStatetest531Filler.json::randomStatetest531[fork_Prague-state_test-]": {
        "env": {
            "currentCoinbase": "0x3c3baa47e629f030ceb3868b0411ef0f46e45b2e",
            "currentGasLimit": "0x7fffffffffffffff",
            "currentNumber": "0x01",
            "currentTimestamp": "0x03e8",
            "currentRandom": "0x0000000000000000000000000000000000000000000000000000000000020000",
            "currentDifficulty": "0x00",
            "currentBaseFee": "0x0a",
            "currentExcessBlobGas": "0x00"
        },
        "pre": {
            "0xdb7be36138d4a3ed3908ce82cb8f448d9376033b": {
                "nonce": "0x00",
                "balance": "0x0de0b6b3a7640000",
                "code": "0x",
                "storage": {}
            },
            "0x3c3baa47e629f030ceb3868b0411ef0f46e45b2e": {
                "nonce": "0x00",
                "balance": "0x2e",
                "code": "0x6000355415600957005b60203560003555",
                "storage": {}
            },
            "0x3c3baa47e629f030ceb3868b0411ef0f46e45c2e": {
                "nonce": "0x00",
                "balance": "0x0de0b6b3a7640000",
                "code": "0x41414143434344456a12c140f3933655",
                "storage": {}
            }
        },
        "transaction": {
            "nonce": "0x00",
            "gasPrice": "0x0a",
            "gasLimit": [
                "0x061a80"
            ],
            "to": "0x3c3baa47e629f030ceb3868b0411ef0f46e45c2e",
            "value": [
                "0x0186a0"
            ],
            "data": [
                "0x42"
            ],
            "sender": "0xdb7be36138d4a3ed3908ce82cb8f448d9376033b",
            "secretKey": "0xbad745bb1094bad461e7ef2e3c3baa47e629f030ceb3868b0411ef0f46e45b2e"
        },
        "post": {
            "Prague": [
                {
                    "hash": "0x2c77ddf825a2f5e60a1afbbb75007b95c9c65541739819fef7a52c07a50f5e65",
                    "logs": "0x1dcc4de8dec75d7aab85b567b6ccd41ad312451b948a7413f0a142fd40d49347",
                    "txbytes": "0xf863800a83061a80943c3baa47e629f030ceb3868b0411ef0f46e45c2e830186a04225a07b33cad3d61a078fcd768693f8cdb54da2abf9ae1f9eb706ed0e91722863e088a01d01a5aa15cb9c7db1db50bb0a78fddbada51b8a32c1d64968f79c15b3da0abd",
                    "indexes": {
                        "data": 0,
                        "gas": 0,
                        "value": 0
                    },
                    "state": {
                        "0xdb7be36138d4a3ed3908ce82cb8f448d9376033b": {
                            "nonce": "0x01",
                            "balance": "0x0de0b6b3a75f4380",
                            "code": "0x",
                            "storage": {}
                        },
                        "0x3c3baa47e629f030ceb3868b0411ef0f46e45b2e": {
                            "nonce": "0x00",
                            "balance": "0x2e",
                            "code": "0x6000355415600957005b60203560003555",
                            "storage": {}
                        },
                        "0x3c3baa47e629f030ceb3868b0411ef0f46e45c2e": {
                            "nonce": "0x00",
                            "balance": "0x0de0b6b3a76586a0",
                            "code": "0x41414143434344456a12c140f3933655",
                            "storage": {}
                        }
                    }
                }
            ]
        },
        "config": {
            "blobSchedule": {
                "Cancun": {
                    "target": "0x03",
                    "max": "0x06",
                    "baseFeeUpdateFraction": "0x32f0ed"
                },
                "Prague": {
                    "target": "0x06",
                    "max": "0x09",
                    "baseFeeUpdateFraction": "0x4c6964"
                }
            },
            "chainid": "0x01"
        },
        "_info": {
            "hash": "0xff81c282b1331b6585b8b52d04d9cd00d02282eea91401c9df551e2ba6f6bcff",
            "comment": "`execution-spec-tests` generated test",
            "filling-transition-tool": "ethereum-spec-evm-resolver 0.0.5",
            "description": "No description available - add a docstring to the python test class or function.",
            "url": "",
            "fixture-format": "state_test",
            "eels-resolution": {
                "git-url": "https://github.com/marioevz/execution-specs.git",
                "branch": "forks/bpo1",
                "commit": "3387e5f4aedfe99becfdc39b444d6371e25e0924"
            }
        }
    }
}