{
    "tests/static/state_tests/stRandom2/randomStatetest444Filler.json::randomStatetest444[fork_Cancun-state_test-]": {
        "env": {
            "currentCoinbase": "0xc5676f6134de3bc8042cb5d86178a42c1dd74339",
            "currentGasLimit": "0x7fffffffffffffff",
            "currentNumber": "0x01",
            "currentTimestamp": "0x03e8",
            "currentRandom": "0x0000000000000000000000000000000000000000000000000000000000020000",
            "currentDifficulty": "0x00",
            "currentBaseFee": "0x0a",
            "currentExcessBlobGas": "0x00"
        },
        "pre": {
            "0x8086a6e36429772017a893ed68bef6919e394dc6": {
                "nonce": "0x00",
                "balance": "0x0de0b6b3a7640000",
                "code": "0x",
                "storage": {}
            },
            "0xc5676f6134de3bc8042cb5d86178a42c1dd74339": {
                "nonce": "0x00",
                "balance": "0x2e",
                "code": "0x6000355415600957005b60203560003555",
                "storage": {}
            },
            "0xc5676f6134de3bc8042cb5d86178a42c1dd74439": {
                "nonce": "0x00",
                "balance": "0x00",
                "code": "0x7f0000000000000000000000010000000000000000000000000000000000000000607f000000000000000000000000000000000000000000000000000000000000c3507ffffffffffffffffffffffffffffffffffffffffffffffffffffffffffffffffe7f00000000000000000000000000000000000000000000000000000000000000007f00000000000000000000000000000000000000000000000000000000000000017ffffffffffffffffffffffffffffffffffffffffffffffffffffffffffffffffe7fffffffffffffffffffffffffffffffffffffffffffffffffffffffffffffffff661392843555",
                "storage": {}
            }
        },
        "transaction": {
            "nonce": "0x00",
            "gasPrice": "0x0a",
            "gasLimit": [
                "0x0186a0"
            ],
            "to": "0xc5676f6134de3bc8042cb5d86178a42c1dd74439",
            "value": [
                "0x584a7949"
            ],
            "data": [
                "0x7f0000000000000000000000010000000000000000000000000000000000000000607f000000000000000000000000000000000000000000000000000000000000c3507ffffffffffffffffffffffffffffffffffffffffffffffffffffffffffffffffe7f00000000000000000000000000000000000000000000000000000000000000007f00000000000000000000000000000000000000000000000000000000000000017ffffffffffffffffffffffffffffffffffffffffffffffffffffffffffffffffe7fffffffffffffffffffffffffffffffffffffffffffffffffffffffffffffffff6613928435"
            ],
            "sender": "0x8086a6e36429772017a893ed68bef6919e394dc6",
            "secretKey": "0x0802aae857d33b18dd791d55c5676f6134de3bc8042cb5d86178a42c1dd74339"
        },
        "post": {
            "Cancun": [
                {
                    "hash": "0xc9c745313204d78034d5904e257326c9aff0f4baee2b48582249313a72bab9ad",
                    "logs": "0x1dcc4de8dec75d7aab85b567b6ccd41ad312451b948a7413f0a142fd40d49347",
                    "txbytes": "0xf90152800a830186a094c5676f6134de3bc8042cb5d86178a42c1dd7443984584a7949b8ed7f0000000000000000000000010000000000000000000000000000000000000000607f000000000000000000000000000000000000000000000000000000000000c3507ffffffffffffffffffffffffffffffffffffffffffffffffffffffffffffffffe7f00000000000000000000000000000000000000000000000000000000000000007f00000000000000000000000000000000000000000000000000000000000000017ffffffffffffffffffffffffffffffffffffffffffffffffffffffffffffffffe7fffffffffffffffffffffffffffffffffffffffffffffffffffffffffffffffff661392843525a00ffe7a0a4c6ac558d2ebb65587084ff086422b4097ccf8ddc09b5310674d5437a05c71871eb06a2bc36ff8a2c62a6fe18766461d56d55853db6b04cd6ff3fc0e64",
                    "indexes": {
                        "data": 0,
                        "gas": 0,
                        "value": 0
                    },
                    "state": {
                        "0x8086a6e36429772017a893ed68bef6919e394dc6": {
                            "nonce": "0x01",
                            "balance": "0x0de0b6b34f15f82b",
                            "code": "0x",
                            "storage": {}
                        },
                        "0xc5676f6134de3bc8042cb5d86178a42c1dd74339": {
                            "nonce": "0x00",
                            "balance": "0x2e",
                            "code": "0x6000355415600957005b60203560003555",
                            "storage": {}
                        },
                        "0xc5676f6134de3bc8042cb5d86178a42c1dd74439": {
                            "nonce": "0x00",
                            "balance": "0x584a7949",
                            "code": "0x7f0000000000000000000000010000000000000000000000000000000000000000607f000000000000000000000000000000000000000000000000000000000000c3507ffffffffffffffffffffffffffffffffffffffffffffffffffffffffffffffffe7f00000000000000000000000000000000000000000000000000000000000000007f00000000000000000000000000000000000000000000000000000000000000017ffffffffffffffffffffffffffffffffffffffffffffffffffffffffffffffffe7fffffffffffffffffffffffffffffffffffffffffffffffffffffffffffffffff661392843555",
                            "storage": {}
                        }
                    }
                }
            ]
        },
        "config": {
            "blobSchedule": {
                "Cancun": {
                    "target": "0x03",
                    "max": "0x06",
                    "baseFeeUpdateFraction": "0x32f0ed"
                }
            },
            "chainid": "0x01"
        },
        "_info": {
            "hash": "0x1b046e8e39eacc56b9d79fdd3896aaeab70bc8e5b81addb517bfb9661648ba27",
            "comment": "`execution-specs` generated test",
            "filling-transition-tool": "2.18.0rc6",
            "description": "No description available - add a docstring to the python test class or function.",
            "url": "",
            "fixture-format": "state_test"
        }
    },
    "tests/static/state_tests/stRandom2/randomStatetest444Filler.json::randomStatetest444[fork_Osaka-state_test-]": {
        "env": {
            "currentCoinbase": "0xc5676f6134de3bc8042cb5d86178a42c1dd74339",
            "currentGasLimit": "0x7fffffffffffffff",
            "currentNumber": "0x01",
            "currentTimestamp": "0x03e8",
            "currentRandom": "0x0000000000000000000000000000000000000000000000000000000000020000",
            "currentDifficulty": "0x00",
            "currentBaseFee": "0x0a",
            "currentExcessBlobGas": "0x00"
        },
        "pre": {
            "0x8086a6e36429772017a893ed68bef6919e394dc6": {
                "nonce": "0x00",
                "balance": "0x0de0b6b3a7640000",
                "code": "0x",
                "storage": {}
            },
            "0xc5676f6134de3bc8042cb5d86178a42c1dd74339": {
                "nonce": "0x00",
                "balance": "0x2e",
                "code": "0x6000355415600957005b60203560003555",
                "storage": {}
            },
            "0xc5676f6134de3bc8042cb5d86178a42c1dd74439": {
                "nonce": "0x00",
                "balance": "0x00",
                "code": "0x7f0000000000000000000000010000000000000000000000000000000000000000607f000000000000000000000000000000000000000000000000000000000000c3507ffffffffffffffffffffffffffffffffffffffffffffffffffffffffffffffffe7f00000000000000000000000000000000000000000000000000000000000000007f00000000000000000000000000000000000000000000000000000000000000017ffffffffffffffffffffffffffffffffffffffffffffffffffffffffffffffffe7fffffffffffffffffffffffffffffffffffffffffffffffffffffffffffffffff661392843555",
                "storage": {}
            }
        },
        "transaction": {
            "nonce": "0x00",
            "gasPrice": "0x0a",
            "gasLimit": [
                "0x0186a0"
            ],
            "to": "0xc5676f6134de3bc8042cb5d86178a42c1dd74439",
            "value": [
                "0x584a7949"
            ],
            "data": [
                "0x7f0000000000000000000000010000000000000000000000000000000000000000607f000000000000000000000000000000000000000000000000000000000000c3507ffffffffffffffffffffffffffffffffffffffffffffffffffffffffffffffffe7f00000000000000000000000000000000000000000000000000000000000000007f00000000000000000000000000000000000000000000000000000000000000017ffffffffffffffffffffffffffffffffffffffffffffffffffffffffffffffffe7fffffffffffffffffffffffffffffffffffffffffffffffffffffffffffffffff6613928435"
            ],
            "sender": "0x8086a6e36429772017a893ed68bef6919e394dc6",
            "secretKey": "0x0802aae857d33b18dd791d55c5676f6134de3bc8042cb5d86178a42c1dd74339"
        },
        "post": {
            "Osaka": [
                {
                    "hash": "0x9ce87b57914fa8dd475eb009e187393712a4a5adeeaedd288a79f95815ab8f8e",
                    "logs": "0x1dcc4de8dec75d7aab85b567b6ccd41ad312451b948a7413f0a142fd40d49347",
                    "txbytes": "0xf90152800a830186a094c5676f6134de3bc8042cb5d86178a42c1dd7443984584a7949b8ed7f0000000000000000000000010000000000000000000000000000000000000000607f000000000000000000000000000000000000000000000000000000000000c3507ffffffffffffffffffffffffffffffffffffffffffffffffffffffffffffffffe7f00000000000000000000000000000000000000000000000000000000000000007f00000000000000000000000000000000000000000000000000000000000000017ffffffffffffffffffffffffffffffffffffffffffffffffffffffffffffffffe7fffffffffffffffffffffffffffffffffffffffffffffffffffffffffffffffff661392843525a00ffe7a0a4c6ac558d2ebb65587084ff086422b4097ccf8ddc09b5310674d5437a05c71871eb06a2bc36ff8a2c62a6fe18766461d56d55853db6b04cd6ff3fc0e64",
                    "indexes": {
                        "data": 0,
                        "gas": 0,
                        "value": 0
                    },
                    "state": {
                        "0x8086a6e36429772017a893ed68bef6919e394dc6": {
                            "nonce": "0x01",
                            "balance": "0x0de0b6b34f157167",
                            "code": "0x",
                            "storage": {}
                        },
                        "0xc5676f6134de3bc8042cb5d86178a42c1dd74339": {
                            "nonce": "0x00",
                            "balance": "0x2e",
                            "code": "0x6000355415600957005b60203560003555",
                            "storage": {}
                        },
                        "0xc5676f6134de3bc8042cb5d86178a42c1dd74439": {
                            "nonce": "0x00",
                            "balance": "0x584a7949",
                            "code": "0x7f0000000000000000000000010000000000000000000000000000000000000000607f000000000000000000000000000000000000000000000000000000000000c3507ffffffffffffffffffffffffffffffffffffffffffffffffffffffffffffffffe7f00000000000000000000000000000000000000000000000000000000000000007f00000000000000000000000000000000000000000000000000000000000000017ffffffffffffffffffffffffffffffffffffffffffffffffffffffffffffffffe7fffffffffffffffffffffffffffffffffffffffffffffffffffffffffffffffff661392843555",
                            "storage": {}
                        }
                    }
                }
            ]
        },
        "config": {
            "blobSchedule": {
                "Cancun": {
                    "target": "0x03",
                    "max": "0x06",
                    "baseFeeUpdateFraction": "0x32f0ed"
                },
                "Prague": {
                    "target": "0x06",
                    "max": "0x09",
                    "baseFeeUpdateFraction": "0x4c6964"
                },
                "Osaka": {
                    "target": "0x06",
                    "max": "0x09",
                    "baseFeeUpdateFraction": "0x4c6964"
                }
            },
            "chainid": "0x01"
        },
        "_info": {
            "hash": "0x7acbb78498a23131210dd8eff5c1a3d0bb5367844f1df3ba1734860fcfda9685",
            "comment": "`execution-specs` generated test",
            "filling-transition-tool": "2.18.0rc6",
            "description": "No description available - add a docstring to the python test class or function.",
            "url": "",
            "fixture-format": "state_test"
        }
    },
    "tests/static/state_tests/stRandom2/randomStatetest444Filler.json::randomStatetest444[fork_Prague-state_test-]": {
        "env": {
            "currentCoinbase": "0xc5676f6134de3bc8042cb5d86178a42c1dd74339",
            "currentGasLimit": "0x7fffffffffffffff",
            "currentNumber": "0x01",
            "currentTimestamp": "0x03e8",
            "currentRandom": "0x0000000000000000000000000000000000000000000000000000000000020000",
            "currentDifficulty": "0x00",
            "currentBaseFee": "0x0a",
            "currentExcessBlobGas": "0x00"
        },
        "pre": {
            "0x8086a6e36429772017a893ed68bef6919e394dc6": {
                "nonce": "0x00",
                "balance": "0x0de0b6b3a7640000",
                "code": "0x",
                "storage": {}
            },
            "0xc5676f6134de3bc8042cb5d86178a42c1dd74339": {
                "nonce": "0x00",
                "balance": "0x2e",
                "code": "0x6000355415600957005b60203560003555",
                "storage": {}
            },
            "0xc5676f6134de3bc8042cb5d86178a42c1dd74439": {
                "nonce": "0x00",
                "balance": "0x00",
                "code": "0x7f0000000000000000000000010000000000000000000000000000000000000000607f000000000000000000000000000000000000000000000000000000000000c3507ffffffffffffffffffffffffffffffffffffffffffffffffffffffffffffffffe7f00000000000000000000000000000000000000000000000000000000000000007f00000000000000000000000000000000000000000000000000000000000000017ffffffffffffffffffffffffffffffffffffffffffffffffffffffffffffffffe7fffffffffffffffffffffffffffffffffffffffffffffffffffffffffffffffff661392843555",
                "storage": {}
            }
        },
        "transaction": {
            "nonce": "0x00",
            "gasPrice": "0x0a",
            "gasLimit": [
                "0x0186a0"
            ],
            "to": "0xc5676f6134de3bc8042cb5d86178a42c1dd74439",
            "value": [
                "0x584a7949"
            ],
            "data": [
                "0x7f0000000000000000000000010000000000000000000000000000000000000000607f000000000000000000000000000000000000000000000000000000000000c3507ffffffffffffffffffffffffffffffffffffffffffffffffffffffffffffffffe7f00000000000000000000000000000000000000000000000000000000000000007f00000000000000000000000000000000000000000000000000000000000000017ffffffffffffffffffffffffffffffffffffffffffffffffffffffffffffffffe7fffffffffffffffffffffffffffffffffffffffffffffffffffffffffffffffff6613928435"
            ],
            "sender": "0x8086a6e36429772017a893ed68bef6919e394dc6",
            "secretKey": "0x0802aae857d33b18dd791d55c5676f6134de3bc8042cb5d86178a42c1dd74339"
        },
        "post": {
            "Prague": [
                {
                    "hash": "0x9ce87b57914fa8dd475eb009e187393712a4a5adeeaedd288a79f95815ab8f8e",
                    "logs": "0x1dcc4de8dec75d7aab85b567b6ccd41ad312451b948a7413f0a142fd40d49347",
                    "txbytes": "0xf90152800a830186a094c5676f6134de3bc8042cb5d86178a42c1dd7443984584a7949b8ed7f0000000000000000000000010000000000000000000000000000000000000000607f000000000000000000000000000000000000000000000000000000000000c3507ffffffffffffffffffffffffffffffffffffffffffffffffffffffffffffffffe7f00000000000000000000000000000000000000000000000000000000000000007f00000000000000000000000000000000000000000000000000000000000000017ffffffffffffffffffffffffffffffffffffffffffffffffffffffffffffffffe7fffffffffffffffffffffffffffffffffffffffffffffffffffffffffffffffff661392843525a00ffe7a0a4c6ac558d2ebb65587084ff086422b4097ccf8ddc09b5310674d5437a05c71871eb06a2bc36ff8a2c62a6fe18766461d56d55853db6b04cd6ff3fc0e64",
                    "indexes": {
                        "data": 0,
                        "gas": 0,
                        "value": 0
                    },
                    "state": {
                        "0x8086a6e36429772017a893ed68bef6919e394dc6": {
                            "nonce": "0x01",
                            "balance": "0x0de0b6b34f157167",
                            "code": "0x",
                            "storage": {}
                        },
                        "0xc5676f6134de3bc8042cb5d86178a42c1dd74339": {
                            "nonce": "0x00",
                            "balance": "0x2e",
                            "code": "0x6000355415600957005b60203560003555",
                            "storage": {}
                        },
                        "0xc5676f6134de3bc8042cb5d86178a42c1dd74439": {
                            "nonce": "0x00",
                            "balance": "0x584a7949",
                            "code": "0x7f0000000000000000000000010000000000000000000000000000000000000000607f000000000000000000000000000000000000000000000000000000000000c3507ffffffffffffffffffffffffffffffffffffffffffffffffffffffffffffffffe7f00000000000000000000000000000000000000000000000000000000000000007f00000000000000000000000000000000000000000000000000000000000000017ffffffffffffffffffffffffffffffffffffffffffffffffffffffffffffffffe7fffffffffffffffffffffffffffffffffffffffffffffffffffffffffffffffff661392843555",
                            "storage": {}
                        }
                    }
                }
            ]
        },
        "config": {
            "blobSchedule": {
                "Cancun": {
                    "target": "0x03",
                    "max": "0x06",
                    "baseFeeUpdateFraction": "0x32f0ed"
                },
                "Prague": {
                    "target": "0x06",
                    "max": "0x09",
                    "baseFeeUpdateFraction": "0x4c6964"
                }
            },
            "chainid": "0x01"
        },
        "_info": {
            "hash": "0x69df5d59a198106abc2284e1aff80750f0e205e46d77d4ce834731239734886f",
            "comment": "`execution-specs` generated test",
            "filling-transition-tool": "2.18.0rc6",
            "description": "No description available - add a docstring to the python test class or function.",
            "url": "",
            "fixture-format": "state_test"
        }
    }
}