{
    "tests/static/state_tests/stRandom2/randomStatetest600Filler.json::randomStatetest600[fork_Cancun-state_test-]": {
        "env": {
            "currentCoinbase": "0xf6b35ff4a9e5678fc18fd761d770966afd79a8a4",
            "currentGasLimit": "0x7fffffffffffffff",
            "currentNumber": "0x01",
            "currentTimestamp": "0x03e8",
            "currentRandom": "0x0000000000000000000000000000000000000000000000000000000000020000",
            "currentDifficulty": "0x00",
            "currentBaseFee": "0x0a",
            "currentExcessBlobGas": "0x00"
        },
        "pre": {
            "0xf365d4d3fcbcc7f2b42faefde0bfaca51ee58431": {
                "nonce": "0x00",
                "balance": "0x0de0b6b3a7640000",
                "code": "0x",
                "storage": {}
            },
            "0xf6b35ff4a9e5678fc18fd761d770966afd79a8a4": {
                "nonce": "0x00",
                "balance": "0x2e",
                "code": "0x6000355415600957005b60203560003555",
                "storage": {}
            },
            "0xf6b35ff4a9e5678fc18fd761d770966afd79a9a4": {
                "nonce": "0x00",
                "balance": "0x00",
                "code": "0x7f00000000000000000000000100000000000000000000000000000000000000007ffffffffffffffffffffffffffffffffffffffffffffffffffffffffffffffffe7f000000000000000000000000000000000000000000000000000000000000c3507f000000000000000000000000000000000000000000000000000000000000c35043457ffffffffffffffffffffffffffffffffffffffffffffffffffffffffffffffffe6f0b6f37208e76a402927039198c96990760005155",
                "storage": {}
            }
        },
        "transaction": {
            "nonce": "0x00",
            "gasPrice": "0x0a",
            "gasLimit": [
                "0x0186a0"
            ],
            "to": "0xf6b35ff4a9e5678fc18fd761d770966afd79a9a4",
            "value": [
                "0x0ad3f19c"
            ],
            "data": [
                "0x7f00000000000000000000000100000000000000000000000000000000000000007ffffffffffffffffffffffffffffffffffffffffffffffffffffffffffffffffe7f000000000000000000000000000000000000000000000000000000000000c3507f000000000000000000000000000000000000000000000000000000000000c35043457ffffffffffffffffffffffffffffffffffffffffffffffffffffffffffffffffe6f0b6f37208e76a402927039198c969907"
            ],
            "sender": "0xf365d4d3fcbcc7f2b42faefde0bfaca51ee58431",
            "secretKey": "0xcd73ea2e5ce190050f353e19f6b35ff4a9e5678fc18fd761d770966afd79a8a4"
        },
        "post": {
            "Cancun": [
                {
                    "hash": "0x1aec0d0508d585bb78ed35f7ada9f17c9cca5e080de1f251482912573208ea50",
                    "logs": "0x1dcc4de8dec75d7aab85b567b6ccd41ad312451b948a7413f0a142fd40d49347",
                    "txbytes": "0xf9011d800a830186a094f6b35ff4a9e5678fc18fd761d770966afd79a9a4840ad3f19cb8b87f00000000000000000000000100000000000000000000000000000000000000007ffffffffffffffffffffffffffffffffffffffffffffffffffffffffffffffffe7f000000000000000000000000000000000000000000000000000000000000c3507f000000000000000000000000000000000000000000000000000000000000c35043457ffffffffffffffffffffffffffffffffffffffffffffffffffffffffffffffffe6f0b6f37208e76a402927039198c96990726a0e3ea6b6a89740d9e921c019841f48810aad1905cd69ae744e7eaaac1fe6a5162a059c7c2c1f010754818e608e781d0ad82042ba53fe2713be496a24632b21d2b4b",
                    "indexes": {
                        "data": 0,
                        "gas": 0,
                        "value": 0
                    },
                    "state": {
                        "0xf365d4d3fcbcc7f2b42faefde0bfaca51ee58431": {
                            "nonce": "0x01",
                            "balance": "0x0de0b6b39c89313e",
                            "code": "0x",
                            "storage": {}
                        },
                        "0xf6b35ff4a9e5678fc18fd761d770966afd79a8a4": {
                            "nonce": "0x00",
                            "balance": "0x2e",
                            "code": "0x6000355415600957005b60203560003555",
                            "storage": {}
                        },
                        "0xf6b35ff4a9e5678fc18fd761d770966afd79a9a4": {
                            "nonce": "0x00",
                            "balance": "0x0ad3f19c",
                            "code": "0x7f00000000000000000000000100000000000000000000000000000000000000007ffffffffffffffffffffffffffffffffffffffffffffffffffffffffffffffffe7f000000000000000000000000000000000000000000000000000000000000c3507f000000000000000000000000000000000000000000000000000000000000c35043457ffffffffffffffffffffffffffffffffffffffffffffffffffffffffffffffffe6f0b6f37208e76a402927039198c96990760005155",
                            "storage": {
                                "0x00": "0x0b6f37208e76a402927039198c969907"
                            }
                        }
                    }
                }
            ]
        },
        "config": {
            "blobSchedule": {
                "Cancun": {
                    "target": "0x03",
                    "max": "0x06",
                    "baseFeeUpdateFraction": "0x32f0ed"
                }
            },
            "chainid": "0x01"
        },
        "_info": {
            "hash": "0xceef873e785f0ff70606402b961c7aecbc5195f352a0ffe81c7d65a25bbf43d1",
            "comment": "`execution-spec-tests` generated test",
            "filling-transition-tool": "ethereum-spec-evm-resolver 0.0.5",
            "description": "No description available - add a docstring to the python test class or function.",
            "url": "",
            "fixture-format": "state_test",
            "eels-resolution": {
                "git-url": "https://github.com/ethereum/execution-specs.git",
                "branch": "forks/bpos",
                "commit": "7aacb2c54111391af5e98c505d5010b5698a770f"
            }
        }
    },
    "tests/static/state_tests/stRandom2/randomStatetest600Filler.json::randomStatetest600[fork_Osaka-state_test-]": {
        "env": {
            "currentCoinbase": "0xf6b35ff4a9e5678fc18fd761d770966afd79a8a4",
            "currentGasLimit": "0x7fffffffffffffff",
            "currentNumber": "0x01",
            "currentTimestamp": "0x03e8",
            "currentRandom": "0x0000000000000000000000000000000000000000000000000000000000020000",
            "currentDifficulty": "0x00",
            "currentBaseFee": "0x0a",
            "currentExcessBlobGas": "0x00"
        },
        "pre": {
            "0xf365d4d3fcbcc7f2b42faefde0bfaca51ee58431": {
                "nonce": "0x00",
                "balance": "0x0de0b6b3a7640000",
                "code": "0x",
                "storage": {}
            },
            "0xf6b35ff4a9e5678fc18fd761d770966afd79a8a4": {
                "nonce": "0x00",
                "balance": "0x2e",
                "code": "0x6000355415600957005b60203560003555",
                "storage": {}
            },
            "0xf6b35ff4a9e5678fc18fd761d770966afd79a9a4": {
                "nonce": "0x00",
                "balance": "0x00",
                "code": "0x7f00000000000000000000000100000000000000000000000000000000000000007ffffffffffffffffffffffffffffffffffffffffffffffffffffffffffffffffe7f000000000000000000000000000000000000000000000000000000000000c3507f000000000000000000000000000000000000000000000000000000000000c35043457ffffffffffffffffffffffffffffffffffffffffffffffffffffffffffffffffe6f0b6f37208e76a402927039198c96990760005155",
                "storage": {}
            }
        },
        "transaction": {
            "nonce": "0x00",
            "gasPrice": "0x0a",
            "gasLimit": [
                "0x0186a0"
            ],
            "to": "0xf6b35ff4a9e5678fc18fd761d770966afd79a9a4",
            "value": [
                "0x0ad3f19c"
            ],
            "data": [
                "0x7f00000000000000000000000100000000000000000000000000000000000000007ffffffffffffffffffffffffffffffffffffffffffffffffffffffffffffffffe7f000000000000000000000000000000000000000000000000000000000000c3507f000000000000000000000000000000000000000000000000000000000000c35043457ffffffffffffffffffffffffffffffffffffffffffffffffffffffffffffffffe6f0b6f37208e76a402927039198c969907"
            ],
            "sender": "0xf365d4d3fcbcc7f2b42faefde0bfaca51ee58431",
            "secretKey": "0xcd73ea2e5ce190050f353e19f6b35ff4a9e5678fc18fd761d770966afd79a8a4"
        },
        "post": {
            "Osaka": [
                {
                    "hash": "0x1aec0d0508d585bb78ed35f7ada9f17c9cca5e080de1f251482912573208ea50",
                    "logs": "0x1dcc4de8dec75d7aab85b567b6ccd41ad312451b948a7413f0a142fd40d49347",
                    "txbytes": "0xf9011d800a830186a094f6b35ff4a9e5678fc18fd761d770966afd79a9a4840ad3f19cb8b87f00000000000000000000000100000000000000000000000000000000000000007ffffffffffffffffffffffffffffffffffffffffffffffffffffffffffffffffe7f000000000000000000000000000000000000000000000000000000000000c3507f000000000000000000000000000000000000000000000000000000000000c35043457ffffffffffffffffffffffffffffffffffffffffffffffffffffffffffffffffe6f0b6f37208e76a402927039198c96990726a0e3ea6b6a89740d9e921c019841f48810aad1905cd69ae744e7eaaac1fe6a5162a059c7c2c1f010754818e608e781d0ad82042ba53fe2713be496a24632b21d2b4b",
                    "indexes": {
                        "data": 0,
                        "gas": 0,
                        "value": 0
                    },
                    "state": {
                        "0xf365d4d3fcbcc7f2b42faefde0bfaca51ee58431": {
                            "nonce": "0x01",
                            "balance": "0x0de0b6b39c89313e",
                            "code": "0x",
                            "storage": {}
                        },
                        "0xf6b35ff4a9e5678fc18fd761d770966afd79a8a4": {
                            "nonce": "0x00",
                            "balance": "0x2e",
                            "code": "0x6000355415600957005b60203560003555",
                            "storage": {}
                        },
                        "0xf6b35ff4a9e5678fc18fd761d770966afd79a9a4": {
                            "nonce": "0x00",
                            "balance": "0x0ad3f19c",
                            "code": "0x7f00000000000000000000000100000000000000000000000000000000000000007ffffffffffffffffffffffffffffffffffffffffffffffffffffffffffffffffe7f000000000000000000000000000000000000000000000000000000000000c3507f000000000000000000000000000000000000000000000000000000000000c35043457ffffffffffffffffffffffffffffffffffffffffffffffffffffffffffffffffe6f0b6f37208e76a402927039198c96990760005155",
                            "storage": {
                                "0x00": "0x0b6f37208e76a402927039198c969907"
                            }
                        }
                    }
                }
            ]
        },
        "config": {
            "blobSchedule": {
                "Cancun": {
                    "target": "0x03",
                    "max": "0x06",
                    "baseFeeUpdateFraction": "0x32f0ed"
                },
                "Prague": {
                    "target": "0x06",
                    "max": "0x09",
                    "baseFeeUpdateFraction": "0x4c6964"
                },
                "Osaka": {
                    "target": "0x06",
                    "max": "0x09",
                    "baseFeeUpdateFraction": "0x4c6964"
                }
            },
            "chainid": "0x01"
        },
        "_info": {
            "hash": "0x5db0ffd8beaee046948fe23b5acfe7cc53276aab8ad9f8c619206cd610f32c6a",
            "comment": "`execution-spec-tests` generated test",
            "filling-transition-tool": "ethereum-spec-evm-resolver 0.0.5",
            "description": "No description available - add a docstring to the python test class or function.",
            "url": "",
            "fixture-format": "state_test",
            "eels-resolution": {
                "git-url": "https://github.com/ethereum/execution-specs.git",
                "branch": "forks/bpos",
                "commit": "7aacb2c54111391af5e98c505d5010b5698a770f"
            }
        }
    },
    "tests/static/state_tests/stRandom2/randomStatetest600Filler.json::randomStatetest600[fork_Prague-state_test-]": {
        "env": {
            "currentCoinbase": "0xf6b35ff4a9e5678fc18fd761d770966afd79a8a4",
            "currentGasLimit": "0x7fffffffffffffff",
            "currentNumber": "0x01",
            "currentTimestamp": "0x03e8",
            "currentRandom": "0x0000000000000000000000000000000000000000000000000000000000020000",
            "currentDifficulty": "0x00",
            "currentBaseFee": "0x0a",
            "currentExcessBlobGas": "0x00"
        },
        "pre": {
            "0xf365d4d3fcbcc7f2b42faefde0bfaca51ee58431": {
                "nonce": "0x00",
                "balance": "0x0de0b6b3a7640000",
                "code": "0x",
                "storage": {}
            },
            "0xf6b35ff4a9e5678fc18fd761d770966afd79a8a4": {
                "nonce": "0x00",
                "balance": "0x2e",
                "code": "0x6000355415600957005b60203560003555",
                "storage": {}
            },
            "0xf6b35ff4a9e5678fc18fd761d770966afd79a9a4": {
                "nonce": "0x00",
                "balance": "0x00",
                "code": "0x7f00000000000000000000000100000000000000000000000000000000000000007ffffffffffffffffffffffffffffffffffffffffffffffffffffffffffffffffe7f000000000000000000000000000000000000000000000000000000000000c3507f000000000000000000000000000000000000000000000000000000000000c35043457ffffffffffffffffffffffffffffffffffffffffffffffffffffffffffffffffe6f0b6f37208e76a402927039198c96990760005155",
                "storage": {}
            }
        },
        "transaction": {
            "nonce": "0x00",
            "gasPrice": "0x0a",
            "gasLimit": [
                "0x0186a0"
            ],
            "to": "0xf6b35ff4a9e5678fc18fd761d770966afd79a9a4",
            "value": [
                "0x0ad3f19c"
            ],
            "data": [
                "0x7f00000000000000000000000100000000000000000000000000000000000000007ffffffffffffffffffffffffffffffffffffffffffffffffffffffffffffffffe7f000000000000000000000000000000000000000000000000000000000000c3507f000000000000000000000000000000000000000000000000000000000000c35043457ffffffffffffffffffffffffffffffffffffffffffffffffffffffffffffffffe6f0b6f37208e76a402927039198c969907"
            ],
            "sender": "0xf365d4d3fcbcc7f2b42faefde0bfaca51ee58431",
            "secretKey": "0xcd73ea2e5ce190050f353e19f6b35ff4a9e5678fc18fd761d770966afd79a8a4"
        },
        "post": {
            "Prague": [
                {
                    "hash": "0x1aec0d0508d585bb78ed35f7ada9f17c9cca5e080de1f251482912573208ea50",
                    "logs": "0x1dcc4de8dec75d7aab85b567b6ccd41ad312451b948a7413f0a142fd40d49347",
                    "txbytes": "0xf9011d800a830186a094f6b35ff4a9e5678fc18fd761d770966afd79a9a4840ad3f19cb8b87f00000000000000000000000100000000000000000000000000000000000000007ffffffffffffffffffffffffffffffffffffffffffffffffffffffffffffffffe7f000000000000000000000000000000000000000000000000000000000000c3507f000000000000000000000000000000000000000000000000000000000000c35043457ffffffffffffffffffffffffffffffffffffffffffffffffffffffffffffffffe6f0b6f37208e76a402927039198c96990726a0e3ea6b6a89740d9e921c019841f48810aad1905cd69ae744e7eaaac1fe6a5162a059c7c2c1f010754818e608e781d0ad82042ba53fe2713be496a24632b21d2b4b",
                    "indexes": {
                        "data": 0,
                        "gas": 0,
                        "value": 0
                    },
                    "state": {
                        "0xf365d4d3fcbcc7f2b42faefde0bfaca51ee58431": {
                            "nonce": "0x01",
                            "balance": "0x0de0b6b39c89313e",
                            "code": "0x",
                            "storage": {}
                        },
                        "0xf6b35ff4a9e5678fc18fd761d770966afd79a8a4": {
                            "nonce": "0x00",
                            "balance": "0x2e",
                            "code": "0x6000355415600957005b60203560003555",
                            "storage": {}
                        },
                        "0xf6b35ff4a9e5678fc18fd761d770966afd79a9a4": {
                            "nonce": "0x00",
                            "balance": "0x0ad3f19c",
                            "code": "0x7f00000000000000000000000100000000000000000000000000000000000000007ffffffffffffffffffffffffffffffffffffffffffffffffffffffffffffffffe7f000000000000000000000000000000000000000000000000000000000000c3507f000000000000000000000000000000000000000000000000000000000000c35043457ffffffffffffffffffffffffffffffffffffffffffffffffffffffffffffffffe6f0b6f37208e76a402927039198c96990760005155",
                            "storage": {
                                "0x00": "0x0b6f37208e76a402927039198c969907"
                            }
                        }
                    }
                }
            ]
        },
        "config": {
            "blobSchedule": {
                "Cancun": {
                    "target": "0x03",
                    "max": "0x06",
                    "baseFeeUpdateFraction": "0x32f0ed"
                },
                "Prague": {
                    "target": "0x06",
                    "max": "0x09",
                    "baseFeeUpdateFraction": "0x4c6964"
                }
            },
            "chainid": "0x01"
        },
        "_info": {
            "hash": "0x7e17a48ff2db540d3f3f2711abab80472a80540e0fef1797dd2c432256ad98e6",
            "comment": "`execution-spec-tests` generated test",
            "filling-transition-tool": "ethereum-spec-evm-resolver 0.0.5",
            "description": "No description available - add a docstring to the python test class or function.",
            "url": "",
            "fixture-format": "state_test",
            "eels-resolution": {
                "git-url": "https://github.com/ethereum/execution-specs.git",
                "branch": "forks/bpos",
                "commit": "7aacb2c54111391af5e98c505d5010b5698a770f"
            }
        }
    }
}