{
    "tests/static/state_tests/stRandom2/randomStatetest611Filler.json::randomStatetest611[fork_Cancun-state_test-]": {
        "env": {
            "currentCoinbase": "0xa522722240b4d11bc1a993bf218245bebd20e956",
            "currentGasLimit": "0x7fffffffffffffff",
            "currentNumber": "0x01",
            "currentTimestamp": "0x03e8",
            "currentRandom": "0x0000000000000000000000000000000000000000000000000000000000020000",
            "currentDifficulty": "0x00",
            "currentBaseFee": "0x0a",
            "currentExcessBlobGas": "0x00"
        },
        "pre": {
            "0x069c331fcdd6ac4dd74679a3efff9097a92ea15a": {
                "nonce": "0x00",
                "balance": "0x0de0b6b3a7640000",
                "code": "0x",
                "storage": {}
            },
            "0xa522722240b4d11bc1a993bf218245bebd20e956": {
                "nonce": "0x00",
                "balance": "0x2e",
                "code": "0x6000355415600957005b60203560003555",
                "storage": {}
            },
            "0xa522722240b4d11bc1a993bf218245bebd20ea56": {
                "nonce": "0x00",
                "balance": "0x00",
                "code": "0x7f000000000000000000000000000000000000000000000000000000000000c350417f0000000000000000000000000000000000000000000000000000000000000001437f000000000000000000000000ffffffffffffffffffffffffffffffffffffffff7f0000000000000000000000000000000000000000000000000000000000000001357f00000000000000000000000000000000000000000000000000000000000000000b9b84a360005155",
                "storage": {}
            }
        },
        "transaction": {
            "nonce": "0x00",
            "gasPrice": "0x0a",
            "gasLimit": [
                "0x0186a0"
            ],
            "to": "0xa522722240b4d11bc1a993bf218245bebd20ea56",
            "value": [
                "0x0270e51a"
            ],
            "data": [
                "0x7f000000000000000000000000000000000000000000000000000000000000c350417f0000000000000000000000000000000000000000000000000000000000000001437f000000000000000000000000ffffffffffffffffffffffffffffffffffffffff7f0000000000000000000000000000000000000000000000000000000000000001357f00000000000000000000000000000000000000000000000000000000000000000b9b84a3"
            ],
            "sender": "0x069c331fcdd6ac4dd74679a3efff9097a92ea15a",
            "secretKey": "0x719e48904a4d6d7a210144c7a522722240b4d11bc1a993bf218245bebd20e956"
        },
        "post": {
            "Cancun": [
                {
                    "hash": "0x188ccbab9e3757f50f9cecd112d7cc98fd36b17343f2eb2f3fe36eb4d5e9afa5",
                    "logs": "0x1dcc4de8dec75d7aab85b567b6ccd41ad312451b948a7413f0a142fd40d49347",
                    "txbytes": "0xf90111800a830186a094a522722240b4d11bc1a993bf218245bebd20ea56840270e51ab8ac7f000000000000000000000000000000000000000000000000000000000000c350417f0000000000000000000000000000000000000000000000000000000000000001437f000000000000000000000000ffffffffffffffffffffffffffffffffffffffff7f0000000000000000000000000000000000000000000000000000000000000001357f00000000000000000000000000000000000000000000000000000000000000000b9b84a325a07e898c57e4674cef30b0fe4a77aa43804d74ff6827eda6d5ba790343cc24100ca00808d18bac808b9800fb23496f21422e1eb3a7c74298dcff2562b477c3b5649d",
                    "indexes": {
                        "data": 0,
                        "gas": 0,
                        "value": 0
                    },
                    "state": {
                        "0x069c331fcdd6ac4dd74679a3efff9097a92ea15a": {
                            "nonce": "0x01",
                            "balance": "0x0de0b6b3a754bdc0",
                            "code": "0x",
                            "storage": {}
                        },
                        "0xa522722240b4d11bc1a993bf218245bebd20e956": {
                            "nonce": "0x00",
                            "balance": "0x2e",
                            "code": "0x6000355415600957005b60203560003555",
                            "storage": {}
                        },
                        "0xa522722240b4d11bc1a993bf218245bebd20ea56": {
                            "nonce": "0x00",
                            "balance": "0x00",
                            "code": "0x7f000000000000000000000000000000000000000000000000000000000000c350417f0000000000000000000000000000000000000000000000000000000000000001437f000000000000000000000000ffffffffffffffffffffffffffffffffffffffff7f0000000000000000000000000000000000000000000000000000000000000001357f00000000000000000000000000000000000000000000000000000000000000000b9b84a360005155",
                            "storage": {}
                        }
                    }
                }
            ]
        },
        "config": {
            "blobSchedule": {
                "Cancun": {
                    "target": "0x03",
                    "max": "0x06",
                    "baseFeeUpdateFraction": "0x32f0ed"
                }
            },
            "chainid": "0x01"
        },
        "_info": {
            "hash": "0xb8f7c1919113cccc5cd8c4108371aca0c85f94ad543a021c5795e2da612d6511",
            "comment": "`execution-spec-tests` generated test",
            "filling-transition-tool": "ethereum-spec-evm-resolver 0.0.5",
            "description": "No description available - add a docstring to the python test class or function.",
            "url": "",
            "fixture-format": "state_test",
            "eels-resolution": {
                "git-url": "https://github.com/ethereum/execution-specs.git",
                "branch": "forks/bpos",
                "commit": "7aacb2c54111391af5e98c505d5010b5698a770f"
            }
        }
    },
    "tests/static/state_tests/stRandom2/randomStatetest611Filler.json::randomStatetest611[fork_Osaka-state_test-]": {
        "env": {
            "currentCoinbase": "0xa522722240b4d11bc1a993bf218245bebd20e956",
            "currentGasLimit": "0x7fffffffffffffff",
            "currentNumber": "0x01",
            "currentTimestamp": "0x03e8",
            "currentRandom": "0x0000000000000000000000000000000000000000000000000000000000020000",
            "currentDifficulty": "0x00",
            "currentBaseFee": "0x0a",
            "currentExcessBlobGas": "0x00"
        },
        "pre": {
            "0x069c331fcdd6ac4dd74679a3efff9097a92ea15a": {
                "nonce": "0x00",
                "balance": "0x0de0b6b3a7640000",
                "code": "0x",
                "storage": {}
            },
            "0xa522722240b4d11bc1a993bf218245bebd20e956": {
                "nonce": "0x00",
                "balance": "0x2e",
                "code": "0x6000355415600957005b60203560003555",
                "storage": {}
            },
            "0xa522722240b4d11bc1a993bf218245bebd20ea56": {
                "nonce": "0x00",
                "balance": "0x00",
                "code": "0x7f000000000000000000000000000000000000000000000000000000000000c350417f0000000000000000000000000000000000000000000000000000000000000001437f000000000000000000000000ffffffffffffffffffffffffffffffffffffffff7f0000000000000000000000000000000000000000000000000000000000000001357f00000000000000000000000000000000000000000000000000000000000000000b9b84a360005155",
                "storage": {}
            }
        },
        "transaction": {
            "nonce": "0x00",
            "gasPrice": "0x0a",
            "gasLimit": [
                "0x0186a0"
            ],
            "to": "0xa522722240b4d11bc1a993bf218245bebd20ea56",
            "value": [
                "0x0270e51a"
            ],
            "data": [
                "0x7f000000000000000000000000000000000000000000000000000000000000c350417f0000000000000000000000000000000000000000000000000000000000000001437f000000000000000000000000ffffffffffffffffffffffffffffffffffffffff7f0000000000000000000000000000000000000000000000000000000000000001357f00000000000000000000000000000000000000000000000000000000000000000b9b84a3"
            ],
            "sender": "0x069c331fcdd6ac4dd74679a3efff9097a92ea15a",
            "secretKey": "0x719e48904a4d6d7a210144c7a522722240b4d11bc1a993bf218245bebd20e956"
        },
        "post": {
            "Osaka": [
                {
                    "hash": "0x188ccbab9e3757f50f9cecd112d7cc98fd36b17343f2eb2f3fe36eb4d5e9afa5",
                    "logs": "0x1dcc4de8dec75d7aab85b567b6ccd41ad312451b948a7413f0a142fd40d49347",
                    "txbytes": "0xf90111800a830186a094a522722240b4d11bc1a993bf218245bebd20ea56840270e51ab8ac7f000000000000000000000000000000000000000000000000000000000000c350417f0000000000000000000000000000000000000000000000000000000000000001437f000000000000000000000000ffffffffffffffffffffffffffffffffffffffff7f0000000000000000000000000000000000000000000000000000000000000001357f00000000000000000000000000000000000000000000000000000000000000000b9b84a325a07e898c57e4674cef30b0fe4a77aa43804d74ff6827eda6d5ba790343cc24100ca00808d18bac808b9800fb23496f21422e1eb3a7c74298dcff2562b477c3b5649d",
                    "indexes": {
                        "data": 0,
                        "gas": 0,
                        "value": 0
                    },
                    "state": {
                        "0x069c331fcdd6ac4dd74679a3efff9097a92ea15a": {
                            "nonce": "0x01",
                            "balance": "0x0de0b6b3a754bdc0",
                            "code": "0x",
                            "storage": {}
                        },
                        "0xa522722240b4d11bc1a993bf218245bebd20e956": {
                            "nonce": "0x00",
                            "balance": "0x2e",
                            "code": "0x6000355415600957005b60203560003555",
                            "storage": {}
                        },
                        "0xa522722240b4d11bc1a993bf218245bebd20ea56": {
                            "nonce": "0x00",
                            "balance": "0x00",
                            "code": "0x7f000000000000000000000000000000000000000000000000000000000000c350417f0000000000000000000000000000000000000000000000000000000000000001437f000000000000000000000000ffffffffffffffffffffffffffffffffffffffff7f0000000000000000000000000000000000000000000000000000000000000001357f00000000000000000000000000000000000000000000000000000000000000000b9b84a360005155",
                            "storage": {}
                        }
                    }
                }
            ]
        },
        "config": {
            "blobSchedule": {
                "Cancun": {
                    "target": "0x03",
                    "max": "0x06",
                    "baseFeeUpdateFraction": "0x32f0ed"
                },
                "Prague": {
                    "target": "0x06",
                    "max": "0x09",
                    "baseFeeUpdateFraction": "0x4c6964"
                },
                "Osaka": {
                    "target": "0x06",
                    "max": "0x09",
                    "baseFeeUpdateFraction": "0x4c6964"
                }
            },
            "chainid": "0x01"
        },
        "_info": {
            "hash": "0x99022304a42275451e1012b333ed475f148c0289ba74607f51579460199caa92",
            "comment": "`execution-spec-tests` generated test",
            "filling-transition-tool": "ethereum-spec-evm-resolver 0.0.5",
            "description": "No description available - add a docstring to the python test class or function.",
            "url": "",
            "fixture-format": "state_test",
            "eels-resolution": {
                "git-url": "https://github.com/ethereum/execution-specs.git",
                "branch": "forks/bpos",
                "commit": "7aacb2c54111391af5e98c505d5010b5698a770f"
            }
        }
    },
    "tests/static/state_tests/stRandom2/randomStatetest611Filler.json::randomStatetest611[fork_Prague-state_test-]": {
        "env": {
            "currentCoinbase": "0xa522722240b4d11bc1a993bf218245bebd20e956",
            "currentGasLimit": "0x7fffffffffffffff",
            "currentNumber": "0x01",
            "currentTimestamp": "0x03e8",
            "currentRandom": "0x0000000000000000000000000000000000000000000000000000000000020000",
            "currentDifficulty": "0x00",
            "currentBaseFee": "0x0a",
            "currentExcessBlobGas": "0x00"
        },
        "pre": {
            "0x069c331fcdd6ac4dd74679a3efff9097a92ea15a": {
                "nonce": "0x00",
                "balance": "0x0de0b6b3a7640000",
                "code": "0x",
                "storage": {}
            },
            "0xa522722240b4d11bc1a993bf218245bebd20e956": {
                "nonce": "0x00",
                "balance": "0x2e",
                "code": "0x6000355415600957005b60203560003555",
                "storage": {}
            },
            "0xa522722240b4d11bc1a993bf218245bebd20ea56": {
                "nonce": "0x00",
                "balance": "0x00",
                "code": "0x7f000000000000000000000000000000000000000000000000000000000000c350417f0000000000000000000000000000000000000000000000000000000000000001437f000000000000000000000000ffffffffffffffffffffffffffffffffffffffff7f0000000000000000000000000000000000000000000000000000000000000001357f00000000000000000000000000000000000000000000000000000000000000000b9b84a360005155",
                "storage": {}
            }
        },
        "transaction": {
            "nonce": "0x00",
            "gasPrice": "0x0a",
            "gasLimit": [
                "0x0186a0"
            ],
            "to": "0xa522722240b4d11bc1a993bf218245bebd20ea56",
            "value": [
                "0x0270e51a"
            ],
            "data": [
                "0x7f000000000000000000000000000000000000000000000000000000000000c350417f0000000000000000000000000000000000000000000000000000000000000001437f000000000000000000000000ffffffffffffffffffffffffffffffffffffffff7f0000000000000000000000000000000000000000000000000000000000000001357f00000000000000000000000000000000000000000000000000000000000000000b9b84a3"
            ],
            "sender": "0x069c331fcdd6ac4dd74679a3efff9097a92ea15a",
            "secretKey": "0x719e48904a4d6d7a210144c7a522722240b4d11bc1a993bf218245bebd20e956"
        },
        "post": {
            "Prague": [
                {
                    "hash": "0x188ccbab9e3757f50f9cecd112d7cc98fd36b17343f2eb2f3fe36eb4d5e9afa5",
                    "logs": "0x1dcc4de8dec75d7aab85b567b6ccd41ad312451b948a7413f0a142fd40d49347",
                    "txbytes": "0xf90111800a830186a094a522722240b4d11bc1a993bf218245bebd20ea56840270e51ab8ac7f000000000000000000000000000000000000000000000000000000000000c350417f0000000000000000000000000000000000000000000000000000000000000001437f000000000000000000000000ffffffffffffffffffffffffffffffffffffffff7f0000000000000000000000000000000000000000000000000000000000000001357f00000000000000000000000000000000000000000000000000000000000000000b9b84a325a07e898c57e4674cef30b0fe4a77aa43804d74ff6827eda6d5ba790343cc24100ca00808d18bac808b9800fb23496f21422e1eb3a7c74298dcff2562b477c3b5649d",
                    "indexes": {
                        "data": 0,
                        "gas": 0,
                        "value": 0
                    },
                    "state": {
                        "0x069c331fcdd6ac4dd74679a3efff9097a92ea15a": {
                            "nonce": "0x01",
                            "balance": "0x0de0b6b3a754bdc0",
                            "code": "0x",
                            "storage": {}
                        },
                        "0xa522722240b4d11bc1a993bf218245bebd20e956": {
                            "nonce": "0x00",
                            "balance": "0x2e",
                            "code": "0x6000355415600957005b60203560003555",
                            "storage": {}
                        },
                        "0xa522722240b4d11bc1a993bf218245bebd20ea56": {
                            "nonce": "0x00",
                            "balance": "0x00",
                            "code": "0x7f000000000000000000000000000000000000000000000000000000000000c350417f0000000000000000000000000000000000000000000000000000000000000001437f000000000000000000000000ffffffffffffffffffffffffffffffffffffffff7f0000000000000000000000000000000000000000000000000000000000000001357f00000000000000000000000000000000000000000000000000000000000000000b9b84a360005155",
                            "storage": {}
                        }
                    }
                }
            ]
        },
        "config": {
            "blobSchedule": {
                "Cancun": {
                    "target": "0x03",
                    "max": "0x06",
                    "baseFeeUpdateFraction": "0x32f0ed"
                },
                "Prague": {
                    "target": "0x06",
                    "max": "0x09",
                    "baseFeeUpdateFraction": "0x4c6964"
                }
            },
            "chainid": "0x01"
        },
        "_info": {
            "hash": "0x0e8489b7707e20426e6913ea66690f10c7b1bcf5e38e8f92a8946bbcfbd9382e",
            "comment": "`execution-spec-tests` generated test",
            "filling-transition-tool": "ethereum-spec-evm-resolver 0.0.5",
            "description": "No description available - add a docstring to the python test class or function.",
            "url": "",
            "fixture-format": "state_test",
            "eels-resolution": {
                "git-url": "https://github.com/ethereum/execution-specs.git",
                "branch": "forks/bpos",
                "commit": "7aacb2c54111391af5e98c505d5010b5698a770f"
            }
        }
    }
}