{
    "tests/static/state_tests/stRandom2/randomStatetest462Filler.json::randomStatetest462[fork_Cancun-state_test-]": {
        "env": {
            "currentCoinbase": "0xebe1298a9e3870474e2508dc61b6b953b509e21e",
            "currentGasLimit": "0x7fffffffffffffff",
            "currentNumber": "0x01",
            "currentTimestamp": "0x03e8",
            "currentRandom": "0x0000000000000000000000000000000000000000000000000000000000020000",
            "currentDifficulty": "0x00",
            "currentBaseFee": "0x0a",
            "currentExcessBlobGas": "0x00"
        },
        "pre": {
            "0x205e91c8a92c786a66e277efefbf87abac93ff6d": {
                "nonce": "0x00",
                "balance": "0x0de0b6b3a7640000",
                "code": "0x",
                "storage": {}
            },
            "0xebe1298a9e3870474e2508dc61b6b953b509e21e": {
                "nonce": "0x00",
                "balance": "0x2e",
                "code": "0x6000355415600957005b60203560003555",
                "storage": {}
            },
            "0xebe1298a9e3870474e2508dc61b6b953b509e31e": {
                "nonce": "0x00",
                "balance": "0x00",
                "code": "0x7f000000000000000000000000ebe1298a9e3870474e2508dc61b6b953b509e21e7f000000000000000000000000ebe1298a9e3870474e2508dc61b6b953b509e21e7f00000000000000000000000100000000000000000000000000000000000000007f00000000000000000000000000000000000000000000000000000000000000017f000000000000000000000000ebe1298a9e3870474e2508dc61b6b953b509e21e7f000000000000000000000000ebe1298a9e3870474e2508dc61b6b953b509e21e7f000000000000000000000000ebe1298a9e3870474e2508dc61b6b953b509e21e7f00000000000000000000000100000000000000000000000000000000000000006f8e0186019d029d1354681482826f375560005155",
                "storage": {}
            }
        },
        "transaction": {
            "nonce": "0x00",
            "gasPrice": "0x0a",
            "gasLimit": [
                "0x0186a0"
            ],
            "to": "0xebe1298a9e3870474e2508dc61b6b953b509e31e",
            "value": [
                "0x564e62da"
            ],
            "data": [
                "0x7f000000000000000000000000ebe1298a9e3870474e2508dc61b6b953b509e21e7f000000000000000000000000ebe1298a9e3870474e2508dc61b6b953b509e21e7f00000000000000000000000100000000000000000000000000000000000000007f00000000000000000000000000000000000000000000000000000000000000017f000000000000000000000000ebe1298a9e3870474e2508dc61b6b953b509e21e7f000000000000000000000000ebe1298a9e3870474e2508dc61b6b953b509e21e7f000000000000000000000000ebe1298a9e3870474e2508dc61b6b953b509e21e7f00000000000000000000000100000000000000000000000000000000000000006f8e0186019d029d1354681482826f37"
            ],
            "sender": "0x205e91c8a92c786a66e277efefbf87abac93ff6d",
            "secretKey": "0x44f9c8e34cb776d17b5d12c3ebe1298a9e3870474e2508dc61b6b953b509e21e"
        },
        "post": {
            "Cancun": [
                {
                    "hash": "0x7e06deb8b1df636bf1b9fb2502383f22ebaf47943679a31609cb4f3dc38414a6",
                    "logs": "0x1dcc4de8dec75d7aab85b567b6ccd41ad312451b948a7413f0a142fd40d49347",
                    "txbytes": "0xf9017e800a830186a094ebe1298a9e3870474e2508dc61b6b953b509e31e84564e62dab901187f000000000000000000000000ebe1298a9e3870474e2508dc61b6b953b509e21e7f000000000000000000000000ebe1298a9e3870474e2508dc61b6b953b509e21e7f00000000000000000000000100000000000000000000000000000000000000007f00000000000000000000000000000000000000000000000000000000000000017f000000000000000000000000ebe1298a9e3870474e2508dc61b6b953b509e21e7f000000000000000000000000ebe1298a9e3870474e2508dc61b6b953b509e21e7f000000000000000000000000ebe1298a9e3870474e2508dc61b6b953b509e21e7f00000000000000000000000100000000000000000000000000000000000000006f8e0186019d029d1354681482826f3726a08ee66b673e3a5a502265eecaaff763a11b9b0617e59422bcf8112e2e96d4a070a00f927c52209c7968c04c41fb06c4f66c014902968853d2a04e13c9fee4152939",
                    "indexes": {
                        "data": 0,
                        "gas": 0,
                        "value": 0
                    },
                    "state": {
                        "0x205e91c8a92c786a66e277efefbf87abac93ff6d": {
                            "nonce": "0x01",
                            "balance": "0x0de0b6b3510ea0de",
                            "code": "0x",
                            "storage": {}
                        },
                        "0xebe1298a9e3870474e2508dc61b6b953b509e21e": {
                            "nonce": "0x00",
                            "balance": "0x2e",
                            "code": "0x6000355415600957005b60203560003555",
                            "storage": {}
                        },
                        "0xebe1298a9e3870474e2508dc61b6b953b509e31e": {
                            "nonce": "0x00",
                            "balance": "0x564e62da",
                            "code": "0x7f000000000000000000000000ebe1298a9e3870474e2508dc61b6b953b509e21e7f000000000000000000000000ebe1298a9e3870474e2508dc61b6b953b509e21e7f00000000000000000000000100000000000000000000000000000000000000007f00000000000000000000000000000000000000000000000000000000000000017f000000000000000000000000ebe1298a9e3870474e2508dc61b6b953b509e21e7f000000000000000000000000ebe1298a9e3870474e2508dc61b6b953b509e21e7f000000000000000000000000ebe1298a9e3870474e2508dc61b6b953b509e21e7f00000000000000000000000100000000000000000000000000000000000000006f8e0186019d029d1354681482826f375560005155",
                            "storage": {
                                "0x00": "0x8e0186019d029d1354681482826f3755"
                            }
                        }
                    }
                }
            ]
        },
        "config": {
            "blobSchedule": {
                "Cancun": {
                    "target": "0x03",
                    "max": "0x06",
                    "baseFeeUpdateFraction": "0x32f0ed"
                }
            },
            "chainid": "0x01"
        },
        "_info": {
            "hash": "0xbb73419953a762b227e1d5971e43e43847cdbb670a9251e4157b4c669135e178",
            "comment": "`execution-spec-tests` generated test",
            "filling-transition-tool": "ethereum-spec-evm-resolver 0.0.5",
            "description": "No description available - add a docstring to the python test class or function.",
            "url": "",
            "fixture-format": "state_test",
            "eels-resolution": {
                "git-url": "https://github.com/ethereum/execution-specs.git",
                "branch": "forks/bpos",
                "commit": "7aacb2c54111391af5e98c505d5010b5698a770f"
            }
        }
    },
    "tests/static/state_tests/stRandom2/randomStatetest462Filler.json::randomStatetest462[fork_Osaka-state_test-]": {
        "env": {
            "currentCoinbase": "0xebe1298a9e3870474e2508dc61b6b953b509e21e",
            "currentGasLimit": "0x7fffffffffffffff",
            "currentNumber": "0x01",
            "currentTimestamp": "0x03e8",
            "currentRandom": "0x0000000000000000000000000000000000000000000000000000000000020000",
            "currentDifficulty": "0x00",
            "currentBaseFee": "0x0a",
            "currentExcessBlobGas": "0x00"
        },
        "pre": {
            "0x205e91c8a92c786a66e277efefbf87abac93ff6d": {
                "nonce": "0x00",
                "balance": "0x0de0b6b3a7640000",
                "code": "0x",
                "storage": {}
            },
            "0xebe1298a9e3870474e2508dc61b6b953b509e21e": {
                "nonce": "0x00",
                "balance": "0x2e",
                "code": "0x6000355415600957005b60203560003555",
                "storage": {}
            },
            "0xebe1298a9e3870474e2508dc61b6b953b509e31e": {
                "nonce": "0x00",
                "balance": "0x00",
                "code": "0x7f000000000000000000000000ebe1298a9e3870474e2508dc61b6b953b509e21e7f000000000000000000000000ebe1298a9e3870474e2508dc61b6b953b509e21e7f00000000000000000000000100000000000000000000000000000000000000007f00000000000000000000000000000000000000000000000000000000000000017f000000000000000000000000ebe1298a9e3870474e2508dc61b6b953b509e21e7f000000000000000000000000ebe1298a9e3870474e2508dc61b6b953b509e21e7f000000000000000000000000ebe1298a9e3870474e2508dc61b6b953b509e21e7f00000000000000000000000100000000000000000000000000000000000000006f8e0186019d029d1354681482826f375560005155",
                "storage": {}
            }
        },
        "transaction": {
            "nonce": "0x00",
            "gasPrice": "0x0a",
            "gasLimit": [
                "0x0186a0"
            ],
            "to": "0xebe1298a9e3870474e2508dc61b6b953b509e31e",
            "value": [
                "0x564e62da"
            ],
            "data": [
                "0x7f000000000000000000000000ebe1298a9e3870474e2508dc61b6b953b509e21e7f000000000000000000000000ebe1298a9e3870474e2508dc61b6b953b509e21e7f00000000000000000000000100000000000000000000000000000000000000007f00000000000000000000000000000000000000000000000000000000000000017f000000000000000000000000ebe1298a9e3870474e2508dc61b6b953b509e21e7f000000000000000000000000ebe1298a9e3870474e2508dc61b6b953b509e21e7f000000000000000000000000ebe1298a9e3870474e2508dc61b6b953b509e21e7f00000000000000000000000100000000000000000000000000000000000000006f8e0186019d029d1354681482826f37"
            ],
            "sender": "0x205e91c8a92c786a66e277efefbf87abac93ff6d",
            "secretKey": "0x44f9c8e34cb776d17b5d12c3ebe1298a9e3870474e2508dc61b6b953b509e21e"
        },
        "post": {
            "Osaka": [
                {
                    "hash": "0x7e06deb8b1df636bf1b9fb2502383f22ebaf47943679a31609cb4f3dc38414a6",
                    "logs": "0x1dcc4de8dec75d7aab85b567b6ccd41ad312451b948a7413f0a142fd40d49347",
                    "txbytes": "0xf9017e800a830186a094ebe1298a9e3870474e2508dc61b6b953b509e31e84564e62dab901187f000000000000000000000000ebe1298a9e3870474e2508dc61b6b953b509e21e7f000000000000000000000000ebe1298a9e3870474e2508dc61b6b953b509e21e7f00000000000000000000000100000000000000000000000000000000000000007f00000000000000000000000000000000000000000000000000000000000000017f000000000000000000000000ebe1298a9e3870474e2508dc61b6b953b509e21e7f000000000000000000000000ebe1298a9e3870474e2508dc61b6b953b509e21e7f000000000000000000000000ebe1298a9e3870474e2508dc61b6b953b509e21e7f00000000000000000000000100000000000000000000000000000000000000006f8e0186019d029d1354681482826f3726a08ee66b673e3a5a502265eecaaff763a11b9b0617e59422bcf8112e2e96d4a070a00f927c52209c7968c04c41fb06c4f66c014902968853d2a04e13c9fee4152939",
                    "indexes": {
                        "data": 0,
                        "gas": 0,
                        "value": 0
                    },
                    "state": {
                        "0x205e91c8a92c786a66e277efefbf87abac93ff6d": {
                            "nonce": "0x01",
                            "balance": "0x0de0b6b3510ea0de",
                            "code": "0x",
                            "storage": {}
                        },
                        "0xebe1298a9e3870474e2508dc61b6b953b509e21e": {
                            "nonce": "0x00",
                            "balance": "0x2e",
                            "code": "0x6000355415600957005b60203560003555",
                            "storage": {}
                        },
                        "0xebe1298a9e3870474e2508dc61b6b953b509e31e": {
                            "nonce": "0x00",
                            "balance": "0x564e62da",
                            "code": "0x7f000000000000000000000000ebe1298a9e3870474e2508dc61b6b953b509e21e7f000000000000000000000000ebe1298a9e3870474e2508dc61b6b953b509e21e7f00000000000000000000000100000000000000000000000000000000000000007f00000000000000000000000000000000000000000000000000000000000000017f000000000000000000000000ebe1298a9e3870474e2508dc61b6b953b509e21e7f000000000000000000000000ebe1298a9e3870474e2508dc61b6b953b509e21e7f000000000000000000000000ebe1298a9e3870474e2508dc61b6b953b509e21e7f00000000000000000000000100000000000000000000000000000000000000006f8e0186019d029d1354681482826f375560005155",
                            "storage": {
                                "0x00": "0x8e0186019d029d1354681482826f3755"
                            }
                        }
                    }
                }
            ]
        },
        "config": {
            "blobSchedule": {
                "Cancun": {
                    "target": "0x03",
                    "max": "0x06",
                    "baseFeeUpdateFraction": "0x32f0ed"
                },
                "Prague": {
                    "target": "0x06",
                    "max": "0x09",
                    "baseFeeUpdateFraction": "0x4c6964"
                },
                "Osaka": {
                    "target": "0x06",
                    "max": "0x09",
                    "baseFeeUpdateFraction": "0x4c6964"
                }
            },
            "chainid": "0x01"
        },
        "_info": {
            "hash": "0x3334d4e54339525b237c720c00515627e349e12a6ea2eba96179445a82528fa3",
            "comment": "`execution-spec-tests` generated test",
            "filling-transition-tool": "ethereum-spec-evm-resolver 0.0.5",
            "description": "No description available - add a docstring to the python test class or function.",
            "url": "",
            "fixture-format": "state_test",
            "eels-resolution": {
                "git-url": "https://github.com/ethereum/execution-specs.git",
                "branch": "forks/bpos",
                "commit": "7aacb2c54111391af5e98c505d5010b5698a770f"
            }
        }
    },
    "tests/static/state_tests/stRandom2/randomStatetest462Filler.json::randomStatetest462[fork_Prague-state_test-]": {
        "env": {
            "currentCoinbase": "0xebe1298a9e3870474e2508dc61b6b953b509e21e",
            "currentGasLimit": "0x7fffffffffffffff",
            "currentNumber": "0x01",
            "currentTimestamp": "0x03e8",
            "currentRandom": "0x0000000000000000000000000000000000000000000000000000000000020000",
            "currentDifficulty": "0x00",
            "currentBaseFee": "0x0a",
            "currentExcessBlobGas": "0x00"
        },
        "pre": {
            "0x205e91c8a92c786a66e277efefbf87abac93ff6d": {
                "nonce": "0x00",
                "balance": "0x0de0b6b3a7640000",
                "code": "0x",
                "storage": {}
            },
            "0xebe1298a9e3870474e2508dc61b6b953b509e21e": {
                "nonce": "0x00",
                "balance": "0x2e",
                "code": "0x6000355415600957005b60203560003555",
                "storage": {}
            },
            "0xebe1298a9e3870474e2508dc61b6b953b509e31e": {
                "nonce": "0x00",
                "balance": "0x00",
                "code": "0x7f000000000000000000000000ebe1298a9e3870474e2508dc61b6b953b509e21e7f000000000000000000000000ebe1298a9e3870474e2508dc61b6b953b509e21e7f00000000000000000000000100000000000000000000000000000000000000007f00000000000000000000000000000000000000000000000000000000000000017f000000000000000000000000ebe1298a9e3870474e2508dc61b6b953b509e21e7f000000000000000000000000ebe1298a9e3870474e2508dc61b6b953b509e21e7f000000000000000000000000ebe1298a9e3870474e2508dc61b6b953b509e21e7f00000000000000000000000100000000000000000000000000000000000000006f8e0186019d029d1354681482826f375560005155",
                "storage": {}
            }
        },
        "transaction": {
            "nonce": "0x00",
            "gasPrice": "0x0a",
            "gasLimit": [
                "0x0186a0"
            ],
            "to": "0xebe1298a9e3870474e2508dc61b6b953b509e31e",
            "value": [
                "0x564e62da"
            ],
            "data": [
                "0x7f000000000000000000000000ebe1298a9e3870474e2508dc61b6b953b509e21e7f000000000000000000000000ebe1298a9e3870474e2508dc61b6b953b509e21e7f00000000000000000000000100000000000000000000000000000000000000007f00000000000000000000000000000000000000000000000000000000000000017f000000000000000000000000ebe1298a9e3870474e2508dc61b6b953b509e21e7f000000000000000000000000ebe1298a9e3870474e2508dc61b6b953b509e21e7f000000000000000000000000ebe1298a9e3870474e2508dc61b6b953b509e21e7f00000000000000000000000100000000000000000000000000000000000000006f8e0186019d029d1354681482826f37"
            ],
            "sender": "0x205e91c8a92c786a66e277efefbf87abac93ff6d",
            "secretKey": "0x44f9c8e34cb776d17b5d12c3ebe1298a9e3870474e2508dc61b6b953b509e21e"
        },
        "post": {
            "Prague": [
                {
                    "hash": "0x7e06deb8b1df636bf1b9fb2502383f22ebaf47943679a31609cb4f3dc38414a6",
                    "logs": "0x1dcc4de8dec75d7aab85b567b6ccd41ad312451b948a7413f0a142fd40d49347",
                    "txbytes": "0xf9017e800a830186a094ebe1298a9e3870474e2508dc61b6b953b509e31e84564e62dab901187f000000000000000000000000ebe1298a9e3870474e2508dc61b6b953b509e21e7f000000000000000000000000ebe1298a9e3870474e2508dc61b6b953b509e21e7f00000000000000000000000100000000000000000000000000000000000000007f00000000000000000000000000000000000000000000000000000000000000017f000000000000000000000000ebe1298a9e3870474e2508dc61b6b953b509e21e7f000000000000000000000000ebe1298a9e3870474e2508dc61b6b953b509e21e7f000000000000000000000000ebe1298a9e3870474e2508dc61b6b953b509e21e7f00000000000000000000000100000000000000000000000000000000000000006f8e0186019d029d1354681482826f3726a08ee66b673e3a5a502265eecaaff763a11b9b0617e59422bcf8112e2e96d4a070a00f927c52209c7968c04c41fb06c4f66c014902968853d2a04e13c9fee4152939",
                    "indexes": {
                        "data": 0,
                        "gas": 0,
                        "value": 0
                    },
                    "state": {
                        "0x205e91c8a92c786a66e277efefbf87abac93ff6d": {
                            "nonce": "0x01",
                            "balance": "0x0de0b6b3510ea0de",
                            "code": "0x",
                            "storage": {}
                        },
                        "0xebe1298a9e3870474e2508dc61b6b953b509e21e": {
                            "nonce": "0x00",
                            "balance": "0x2e",
                            "code": "0x6000355415600957005b60203560003555",
                            "storage": {}
                        },
                        "0xebe1298a9e3870474e2508dc61b6b953b509e31e": {
                            "nonce": "0x00",
                            "balance": "0x564e62da",
                            "code": "0x7f000000000000000000000000ebe1298a9e3870474e2508dc61b6b953b509e21e7f000000000000000000000000ebe1298a9e3870474e2508dc61b6b953b509e21e7f00000000000000000000000100000000000000000000000000000000000000007f00000000000000000000000000000000000000000000000000000000000000017f000000000000000000000000ebe1298a9e3870474e2508dc61b6b953b509e21e7f000000000000000000000000ebe1298a9e3870474e2508dc61b6b953b509e21e7f000000000000000000000000ebe1298a9e3870474e2508dc61b6b953b509e21e7f00000000000000000000000100000000000000000000000000000000000000006f8e0186019d029d1354681482826f375560005155",
                            "storage": {
                                "0x00": "0x8e0186019d029d1354681482826f3755"
                            }
                        }
                    }
                }
            ]
        },
        "config": {
            "blobSchedule": {
                "Cancun": {
                    "target": "0x03",
                    "max": "0x06",
                    "baseFeeUpdateFraction": "0x32f0ed"
                },
                "Prague": {
                    "target": "0x06",
                    "max": "0x09",
                    "baseFeeUpdateFraction": "0x4c6964"
                }
            },
            "chainid": "0x01"
        },
        "_info": {
            "hash": "0xdbe3f78a74d2a7f3c714da54728e46ba7257e84fe1ccc5c71d48cd032694c048",
            "comment": "`execution-spec-tests` generated test",
            "filling-transition-tool": "ethereum-spec-evm-resolver 0.0.5",
            "description": "No description available - add a docstring to the python test class or function.",
            "url": "",
            "fixture-format": "state_test",
            "eels-resolution": {
                "git-url": "https://github.com/ethereum/execution-specs.git",
                "branch": "forks/bpos",
                "commit": "7aacb2c54111391af5e98c505d5010b5698a770f"
            }
        }
    }
}