{
    "tests/static/state_tests/stRandom2/randomStatetest449Filler.json::randomStatetest449[fork_Cancun-state_test-]": {
        "env": {
            "currentCoinbase": "0x7cb444d041c2a26191f2773f52576fb6b040db32",
            "currentGasLimit": "0x7fffffffffffffff",
            "currentNumber": "0x01",
            "currentTimestamp": "0x03e8",
            "currentRandom": "0x0000000000000000000000000000000000000000000000000000000000020000",
            "currentDifficulty": "0x00",
            "currentBaseFee": "0x0a",
            "currentExcessBlobGas": "0x00"
        },
        "pre": {
            "0x172a2281b8349365d17e0dc933bdd0e263e623e3": {
                "nonce": "0x00",
                "balance": "0x0de0b6b3a7640000",
                "code": "0x",
                "storage": {}
            },
            "0x7cb444d041c2a26191f2773f52576fb6b040db32": {
                "nonce": "0x00",
                "balance": "0x2e",
                "code": "0x6000355415600957005b60203560003555",
                "storage": {}
            },
            "0x7cb444d041c2a26191f2773f52576fb6b040dc32": {
                "nonce": "0x00",
                "balance": "0x00",
                "code": "0x197f000000000000000000000000000000000000000000000000000000000000c3507fffffffffffffffffffffffffffffffffffffffffffffffffffffffffffffffff7f0000000000000000000000007cb444d041c2a26191f2773f52576fb6b040db327f00000000000000000000000000000000000000000000000000000000000000007f00000000000000000000000000000000000000000000000000000000000000017fffffffffffffffffffffffffffffffffffffffffffffffffffffffffffffffff7f0000000000000000000000007cb444d041c2a26191f2773f52576fb6b040db328b66e4ff65a056f39b529f",
                "storage": {}
            }
        },
        "transaction": {
            "nonce": "0x00",
            "gasPrice": "0x0a",
            "gasLimit": [
                "0x0186a0"
            ],
            "to": "0x7cb444d041c2a26191f2773f52576fb6b040dc32",
            "value": [
                "0x6eb97cf1"
            ],
            "data": [
                "0x197f000000000000000000000000000000000000000000000000000000000000c3507fffffffffffffffffffffffffffffffffffffffffffffffffffffffffffffffff7f0000000000000000000000007cb444d041c2a26191f2773f52576fb6b040db327f00000000000000000000000000000000000000000000000000000000000000007f00000000000000000000000000000000000000000000000000000000000000017fffffffffffffffffffffffffffffffffffffffffffffffffffffffffffffffff7f0000000000000000000000007cb444d041c2a26191f2773f52576fb6b040db328b66e4ff65a056f39b529f"
            ],
            "sender": "0x172a2281b8349365d17e0dc933bdd0e263e623e3",
            "secretKey": "0xe2e62375bff51cd7000eb5107cb444d041c2a26191f2773f52576fb6b040db32"
        },
        "post": {
            "Cancun": [
                {
                    "hash": "0xe51eb3bb3bf582c3c1c54cf46962a2c01ae44782777b7e23c718d60712baf785",
                    "logs": "0x1dcc4de8dec75d7aab85b567b6ccd41ad312451b948a7413f0a142fd40d49347",
                    "txbytes": "0xf90158800a830186a0947cb444d041c2a26191f2773f52576fb6b040dc32846eb97cf1b8f3197f000000000000000000000000000000000000000000000000000000000000c3507fffffffffffffffffffffffffffffffffffffffffffffffffffffffffffffffff7f0000000000000000000000007cb444d041c2a26191f2773f52576fb6b040db327f00000000000000000000000000000000000000000000000000000000000000007f00000000000000000000000000000000000000000000000000000000000000017fffffffffffffffffffffffffffffffffffffffffffffffffffffffffffffffff7f0000000000000000000000007cb444d041c2a26191f2773f52576fb6b040db328b66e4ff65a056f39b529f25a063bc93ca7bf3670cd363ad5404d9596b3181d0b77fcade8f122c28ae5d0f0b1aa077a02507416c7c00323be2d33d020328e3b752c5a8fcb323d2c8a59b71dab37f",
                    "indexes": {
                        "data": 0,
                        "gas": 0,
                        "value": 0
                    },
                    "state": {
                        "0x172a2281b8349365d17e0dc933bdd0e263e623e3": {
                            "nonce": "0x01",
                            "balance": "0x0de0b6b3a754bdc0",
                            "code": "0x",
                            "storage": {}
                        },
                        "0x7cb444d041c2a26191f2773f52576fb6b040db32": {
                            "nonce": "0x00",
                            "balance": "0x2e",
                            "code": "0x6000355415600957005b60203560003555",
                            "storage": {}
                        },
                        "0x7cb444d041c2a26191f2773f52576fb6b040dc32": {
                            "nonce": "0x00",
                            "balance": "0x00",
                            "code": "0x197f000000000000000000000000000000000000000000000000000000000000c3507fffffffffffffffffffffffffffffffffffffffffffffffffffffffffffffffff7f0000000000000000000000007cb444d041c2a26191f2773f52576fb6b040db327f00000000000000000000000000000000000000000000000000000000000000007f00000000000000000000000000000000000000000000000000000000000000017fffffffffffffffffffffffffffffffffffffffffffffffffffffffffffffffff7f0000000000000000000000007cb444d041c2a26191f2773f52576fb6b040db328b66e4ff65a056f39b529f",
                            "storage": {}
                        }
                    }
                }
            ]
        },
        "config": {
            "blobSchedule": {
                "Cancun": {
                    "target": "0x03",
                    "max": "0x06",
                    "baseFeeUpdateFraction": "0x32f0ed"
                }
            },
            "chainid": "0x01"
        },
        "_info": {
            "hash": "0x0462555088e7d94099f2ea7a0e685a098db2afef334b63f59e15aedf3b7e35e0",
            "comment": "`execution-specs` generated test",
            "filling-transition-tool": "2.18.0rc6",
            "description": "No description available - add a docstring to the python test class or function.",
            "url": "",
            "fixture-format": "state_test"
        }
    },
    "tests/static/state_tests/stRandom2/randomStatetest449Filler.json::randomStatetest449[fork_Osaka-state_test-]": {
        "env": {
            "currentCoinbase": "0x7cb444d041c2a26191f2773f52576fb6b040db32",
            "currentGasLimit": "0x7fffffffffffffff",
            "currentNumber": "0x01",
            "currentTimestamp": "0x03e8",
            "currentRandom": "0x0000000000000000000000000000000000000000000000000000000000020000",
            "currentDifficulty": "0x00",
            "currentBaseFee": "0x0a",
            "currentExcessBlobGas": "0x00"
        },
        "pre": {
            "0x172a2281b8349365d17e0dc933bdd0e263e623e3": {
                "nonce": "0x00",
                "balance": "0x0de0b6b3a7640000",
                "code": "0x",
                "storage": {}
            },
            "0x7cb444d041c2a26191f2773f52576fb6b040db32": {
                "nonce": "0x00",
                "balance": "0x2e",
                "code": "0x6000355415600957005b60203560003555",
                "storage": {}
            },
            "0x7cb444d041c2a26191f2773f52576fb6b040dc32": {
                "nonce": "0x00",
                "balance": "0x00",
                "code": "0x197f000000000000000000000000000000000000000000000000000000000000c3507fffffffffffffffffffffffffffffffffffffffffffffffffffffffffffffffff7f0000000000000000000000007cb444d041c2a26191f2773f52576fb6b040db327f00000000000000000000000000000000000000000000000000000000000000007f00000000000000000000000000000000000000000000000000000000000000017fffffffffffffffffffffffffffffffffffffffffffffffffffffffffffffffff7f0000000000000000000000007cb444d041c2a26191f2773f52576fb6b040db328b66e4ff65a056f39b529f",
                "storage": {}
            }
        },
        "transaction": {
            "nonce": "0x00",
            "gasPrice": "0x0a",
            "gasLimit": [
                "0x0186a0"
            ],
            "to": "0x7cb444d041c2a26191f2773f52576fb6b040dc32",
            "value": [
                "0x6eb97cf1"
            ],
            "data": [
                "0x197f000000000000000000000000000000000000000000000000000000000000c3507fffffffffffffffffffffffffffffffffffffffffffffffffffffffffffffffff7f0000000000000000000000007cb444d041c2a26191f2773f52576fb6b040db327f00000000000000000000000000000000000000000000000000000000000000007f00000000000000000000000000000000000000000000000000000000000000017fffffffffffffffffffffffffffffffffffffffffffffffffffffffffffffffff7f0000000000000000000000007cb444d041c2a26191f2773f52576fb6b040db328b66e4ff65a056f39b529f"
            ],
            "sender": "0x172a2281b8349365d17e0dc933bdd0e263e623e3",
            "secretKey": "0xe2e62375bff51cd7000eb5107cb444d041c2a26191f2773f52576fb6b040db32"
        },
        "post": {
            "Osaka": [
                {
                    "hash": "0xe51eb3bb3bf582c3c1c54cf46962a2c01ae44782777b7e23c718d60712baf785",
                    "logs": "0x1dcc4de8dec75d7aab85b567b6ccd41ad312451b948a7413f0a142fd40d49347",
                    "txbytes": "0xf90158800a830186a0947cb444d041c2a26191f2773f52576fb6b040dc32846eb97cf1b8f3197f000000000000000000000000000000000000000000000000000000000000c3507fffffffffffffffffffffffffffffffffffffffffffffffffffffffffffffffff7f0000000000000000000000007cb444d041c2a26191f2773f52576fb6b040db327f00000000000000000000000000000000000000000000000000000000000000007f00000000000000000000000000000000000000000000000000000000000000017fffffffffffffffffffffffffffffffffffffffffffffffffffffffffffffffff7f0000000000000000000000007cb444d041c2a26191f2773f52576fb6b040db328b66e4ff65a056f39b529f25a063bc93ca7bf3670cd363ad5404d9596b3181d0b77fcade8f122c28ae5d0f0b1aa077a02507416c7c00323be2d33d020328e3b752c5a8fcb323d2c8a59b71dab37f",
                    "indexes": {
                        "data": 0,
                        "gas": 0,
                        "value": 0
                    },
                    "state": {
                        "0x172a2281b8349365d17e0dc933bdd0e263e623e3": {
                            "nonce": "0x01",
                            "balance": "0x0de0b6b3a754bdc0",
                            "code": "0x",
                            "storage": {}
                        },
                        "0x7cb444d041c2a26191f2773f52576fb6b040db32": {
                            "nonce": "0x00",
                            "balance": "0x2e",
                            "code": "0x6000355415600957005b60203560003555",
                            "storage": {}
                        },
                        "0x7cb444d041c2a26191f2773f52576fb6b040dc32": {
                            "nonce": "0x00",
                            "balance": "0x00",
                            "code": "0x197f000000000000000000000000000000000000000000000000000000000000c3507fffffffffffffffffffffffffffffffffffffffffffffffffffffffffffffffff7f0000000000000000000000007cb444d041c2a26191f2773f52576fb6b040db327f00000000000000000000000000000000000000000000000000000000000000007f00000000000000000000000000000000000000000000000000000000000000017fffffffffffffffffffffffffffffffffffffffffffffffffffffffffffffffff7f0000000000000000000000007cb444d041c2a26191f2773f52576fb6b040db328b66e4ff65a056f39b529f",
                            "storage": {}
                        }
                    }
                }
            ]
        },
        "config": {
            "blobSchedule": {
                "Cancun": {
                    "target": "0x03",
                    "max": "0x06",
                    "baseFeeUpdateFraction": "0x32f0ed"
                },
                "Prague": {
                    "target": "0x06",
                    "max": "0x09",
                    "baseFeeUpdateFraction": "0x4c6964"
                },
                "Osaka": {
                    "target": "0x06",
                    "max": "0x09",
                    "baseFeeUpdateFraction": "0x4c6964"
                }
            },
            "chainid": "0x01"
        },
        "_info": {
            "hash": "0x149edc8fa58e783bca7a2263e24358a32f815be6e043a35780555927325a3ec4",
            "comment": "`execution-specs` generated test",
            "filling-transition-tool": "2.18.0rc6",
            "description": "No description available - add a docstring to the python test class or function.",
            "url": "",
            "fixture-format": "state_test"
        }
    },
    "tests/static/state_tests/stRandom2/randomStatetest449Filler.json::randomStatetest449[fork_Prague-state_test-]": {
        "env": {
            "currentCoinbase": "0x7cb444d041c2a26191f2773f52576fb6b040db32",
            "currentGasLimit": "0x7fffffffffffffff",
            "currentNumber": "0x01",
            "currentTimestamp": "0x03e8",
            "currentRandom": "0x0000000000000000000000000000000000000000000000000000000000020000",
            "currentDifficulty": "0x00",
            "currentBaseFee": "0x0a",
            "currentExcessBlobGas": "0x00"
        },
        "pre": {
            "0x172a2281b8349365d17e0dc933bdd0e263e623e3": {
                "nonce": "0x00",
                "balance": "0x0de0b6b3a7640000",
                "code": "0x",
                "storage": {}
            },
            "0x7cb444d041c2a26191f2773f52576fb6b040db32": {
                "nonce": "0x00",
                "balance": "0x2e",
                "code": "0x6000355415600957005b60203560003555",
                "storage": {}
            },
            "0x7cb444d041c2a26191f2773f52576fb6b040dc32": {
                "nonce": "0x00",
                "balance": "0x00",
                "code": "0x197f000000000000000000000000000000000000000000000000000000000000c3507fffffffffffffffffffffffffffffffffffffffffffffffffffffffffffffffff7f0000000000000000000000007cb444d041c2a26191f2773f52576fb6b040db327f00000000000000000000000000000000000000000000000000000000000000007f00000000000000000000000000000000000000000000000000000000000000017fffffffffffffffffffffffffffffffffffffffffffffffffffffffffffffffff7f0000000000000000000000007cb444d041c2a26191f2773f52576fb6b040db328b66e4ff65a056f39b529f",
                "storage": {}
            }
        },
        "transaction": {
            "nonce": "0x00",
            "gasPrice": "0x0a",
            "gasLimit": [
                "0x0186a0"
            ],
            "to": "0x7cb444d041c2a26191f2773f52576fb6b040dc32",
            "value": [
                "0x6eb97cf1"
            ],
            "data": [
                "0x197f000000000000000000000000000000000000000000000000000000000000c3507fffffffffffffffffffffffffffffffffffffffffffffffffffffffffffffffff7f0000000000000000000000007cb444d041c2a26191f2773f52576fb6b040db327f00000000000000000000000000000000000000000000000000000000000000007f00000000000000000000000000000000000000000000000000000000000000017fffffffffffffffffffffffffffffffffffffffffffffffffffffffffffffffff7f0000000000000000000000007cb444d041c2a26191f2773f52576fb6b040db328b66e4ff65a056f39b529f"
            ],
            "sender": "0x172a2281b8349365d17e0dc933bdd0e263e623e3",
            "secretKey": "0xe2e62375bff51cd7000eb5107cb444d041c2a26191f2773f52576fb6b040db32"
        },
        "post": {
            "Prague": [
                {
                    "hash": "0xe51eb3bb3bf582c3c1c54cf46962a2c01ae44782777b7e23c718d60712baf785",
                    "logs": "0x1dcc4de8dec75d7aab85b567b6ccd41ad312451b948a7413f0a142fd40d49347",
                    "txbytes": "0xf90158800a830186a0947cb444d041c2a26191f2773f52576fb6b040dc32846eb97cf1b8f3197f000000000000000000000000000000000000000000000000000000000000c3507fffffffffffffffffffffffffffffffffffffffffffffffffffffffffffffffff7f0000000000000000000000007cb444d041c2a26191f2773f52576fb6b040db327f00000000000000000000000000000000000000000000000000000000000000007f00000000000000000000000000000000000000000000000000000000000000017fffffffffffffffffffffffffffffffffffffffffffffffffffffffffffffffff7f0000000000000000000000007cb444d041c2a26191f2773f52576fb6b040db328b66e4ff65a056f39b529f25a063bc93ca7bf3670cd363ad5404d9596b3181d0b77fcade8f122c28ae5d0f0b1aa077a02507416c7c00323be2d33d020328e3b752c5a8fcb323d2c8a59b71dab37f",
                    "indexes": {
                        "data": 0,
                        "gas": 0,
                        "value": 0
                    },
                    "state": {
                        "0x172a2281b8349365d17e0dc933bdd0e263e623e3": {
                            "nonce": "0x01",
                            "balance": "0x0de0b6b3a754bdc0",
                            "code": "0x",
                            "storage": {}
                        },
                        "0x7cb444d041c2a26191f2773f52576fb6b040db32": {
                            "nonce": "0x00",
                            "balance": "0x2e",
                            "code": "0x6000355415600957005b60203560003555",
                            "storage": {}
                        },
                        "0x7cb444d041c2a26191f2773f52576fb6b040dc32": {
                            "nonce": "0x00",
                            "balance": "0x00",
                            "code": "0x197f000000000000000000000000000000000000000000000000000000000000c3507fffffffffffffffffffffffffffffffffffffffffffffffffffffffffffffffff7f0000000000000000000000007cb444d041c2a26191f2773f52576fb6b040db327f00000000000000000000000000000000000000000000000000000000000000007f00000000000000000000000000000000000000000000000000000000000000017fffffffffffffffffffffffffffffffffffffffffffffffffffffffffffffffff7f0000000000000000000000007cb444d041c2a26191f2773f52576fb6b040db328b66e4ff65a056f39b529f",
                            "storage": {}
                        }
                    }
                }
            ]
        },
        "config": {
            "blobSchedule": {
                "Cancun": {
                    "target": "0x03",
                    "max": "0x06",
                    "baseFeeUpdateFraction": "0x32f0ed"
                },
                "Prague": {
                    "target": "0x06",
                    "max": "0x09",
                    "baseFeeUpdateFraction": "0x4c6964"
                }
            },
            "chainid": "0x01"
        },
        "_info": {
            "hash": "0xc5a66df6de35718ef94dc1d1830ae88ed0f7385a4c91f876932af2352c1923a2",
            "comment": "`execution-specs` generated test",
            "filling-transition-tool": "2.18.0rc6",
            "description": "No description available - add a docstring to the python test class or function.",
            "url": "",
            "fixture-format": "state_test"
        }
    }
}