{
    "tests/static/state_tests/stRandom2/randomStatetest433Filler.json::randomStatetest433[fork_Cancun-state_test-]": {
        "env": {
            "currentCoinbase": "0x00481d722301e5b7395e13f273eda774568c95e8",
            "currentGasLimit": "0x7fffffffffffffff",
            "currentNumber": "0x01",
            "currentTimestamp": "0x03e8",
            "currentRandom": "0x0000000000000000000000000000000000000000000000000000000000020000",
            "currentDifficulty": "0x00",
            "currentBaseFee": "0x0a",
            "currentExcessBlobGas": "0x00"
        },
        "pre": {
            "0x9323077a6054e80f26e0271d743b4036d6733f8e": {
                "nonce": "0x00",
                "balance": "0x0de0b6b3a7640000",
                "code": "0x",
                "storage": {}
            },
            "0x00481d722301e5b7395e13f273eda774568c95e8": {
                "nonce": "0x00",
                "balance": "0x2e",
                "code": "0x6000355415600957005b60203560003555",
                "storage": {}
            },
            "0x00481d722301e5b7395e13f273eda774568c96e8": {
                "nonce": "0x00",
                "balance": "0x00",
                "code": "0x7f000000000000000000000000000000000000000000000000000000000000c3507f000000000000000000000000000000000000000000000000000000000000c3507f00000000000000000000000000000000000000000000000000000000000000017f00000000000000000000000000000000000000000000000000000000000000017ffffffffffffffffffffffffffffffffffffffffffffffffffffffffffffffffe7f00000000000000000000000000481d722301e5b7395e13f273eda774568c95e87f000000000000000000000000000000000000000000000000000000000000c3507f000000000000000000000000000000000000000000000000000000000000c350a3f305205bf156207259573055",
                "storage": {}
            }
        },
        "transaction": {
            "nonce": "0x00",
            "gasPrice": "0x0a",
            "gasLimit": [
                "0x07a120"
            ],
            "to": "0x00481d722301e5b7395e13f273eda774568c96e8",
            "value": [
                "0x259b82e3"
            ],
            "data": [
                "0x7f000000000000000000000000000000000000000000000000000000000000c3507f000000000000000000000000000000000000000000000000000000000000c3507f00000000000000000000000000000000000000000000000000000000000000017f00000000000000000000000000000000000000000000000000000000000000017ffffffffffffffffffffffffffffffffffffffffffffffffffffffffffffffffe7f00000000000000000000000000481d722301e5b7395e13f273eda774568c95e87f000000000000000000000000000000000000000000000000000000000000c3507f000000000000000000000000000000000000000000000000000000000000c350a3f305205bf1562072595730"
            ],
            "sender": "0x9323077a6054e80f26e0271d743b4036d6733f8e",
            "secretKey": "0xff31d93995b8aa665e4dc2b400481d722301e5b7395e13f273eda774568c95e8"
        },
        "post": {
            "Cancun": [
                {
                    "hash": "0x37f3bacc735d70b783b331fa7f2a993e5dcbefa24b47ffcea24c8ae9730c38b5",
                    "logs": "0x8844dacc7da7e8cbbcce9aa21a54831f1f619a3012b8743e65ff9159956dd345",
                    "txbytes": "0xf9017a800a8307a1209400481d722301e5b7395e13f273eda774568c96e884259b82e3b901147f000000000000000000000000000000000000000000000000000000000000c3507f000000000000000000000000000000000000000000000000000000000000c3507f00000000000000000000000000000000000000000000000000000000000000017f00000000000000000000000000000000000000000000000000000000000000017ffffffffffffffffffffffffffffffffffffffffffffffffffffffffffffffffe7f00000000000000000000000000481d722301e5b7395e13f273eda774568c95e87f000000000000000000000000000000000000000000000000000000000000c3507f000000000000000000000000000000000000000000000000000000000000c350a3f305205bf156207259573025a05785ef6aa055bf2c2938a78c4e5d4f4f6bba07b356b0acfb0d606be6beeeebb4a06cf6542277c4d048a13e791730aa41bc2828f8ff0722688f371b410c3a62dbc9",
                    "indexes": {
                        "data": 0,
                        "gas": 0,
                        "value": 0
                    },
                    "state": {
                        "0x9323077a6054e80f26e0271d743b4036d6733f8e": {
                            "nonce": "0x01",
                            "balance": "0x0de0b6b381835bed",
                            "code": "0x",
                            "storage": {}
                        },
                        "0x00481d722301e5b7395e13f273eda774568c95e8": {
                            "nonce": "0x00",
                            "balance": "0x2e",
                            "code": "0x6000355415600957005b60203560003555",
                            "storage": {}
                        },
                        "0x00481d722301e5b7395e13f273eda774568c96e8": {
                            "nonce": "0x00",
                            "balance": "0x259b82e3",
                            "code": "0x7f000000000000000000000000000000000000000000000000000000000000c3507f000000000000000000000000000000000000000000000000000000000000c3507f00000000000000000000000000000000000000000000000000000000000000017f00000000000000000000000000000000000000000000000000000000000000017ffffffffffffffffffffffffffffffffffffffffffffffffffffffffffffffffe7f00000000000000000000000000481d722301e5b7395e13f273eda774568c95e87f000000000000000000000000000000000000000000000000000000000000c3507f000000000000000000000000000000000000000000000000000000000000c350a3f305205bf156207259573055",
                            "storage": {}
                        }
                    }
                }
            ]
        },
        "config": {
            "blobSchedule": {
                "Cancun": {
                    "target": "0x03",
                    "max": "0x06",
                    "baseFeeUpdateFraction": "0x32f0ed"
                }
            },
            "chainid": "0x01"
        },
        "_info": {
            "hash": "0x6395a6496a17a30a6402f050b44d4e96d5a9a4e8cd900c846c46aebdc58a3989",
            "comment": "`execution-specs` generated test",
            "filling-transition-tool": "2.18.0rc6",
            "description": "No description available - add a docstring to the python test class or function.",
            "url": "",
            "fixture-format": "state_test"
        }
    },
    "tests/static/state_tests/stRandom2/randomStatetest433Filler.json::randomStatetest433[fork_Osaka-state_test-]": {
        "env": {
            "currentCoinbase": "0x00481d722301e5b7395e13f273eda774568c95e8",
            "currentGasLimit": "0x7fffffffffffffff",
            "currentNumber": "0x01",
            "currentTimestamp": "0x03e8",
            "currentRandom": "0x0000000000000000000000000000000000000000000000000000000000020000",
            "currentDifficulty": "0x00",
            "currentBaseFee": "0x0a",
            "currentExcessBlobGas": "0x00"
        },
        "pre": {
            "0x9323077a6054e80f26e0271d743b4036d6733f8e": {
                "nonce": "0x00",
                "balance": "0x0de0b6b3a7640000",
                "code": "0x",
                "storage": {}
            },
            "0x00481d722301e5b7395e13f273eda774568c95e8": {
                "nonce": "0x00",
                "balance": "0x2e",
                "code": "0x6000355415600957005b60203560003555",
                "storage": {}
            },
            "0x00481d722301e5b7395e13f273eda774568c96e8": {
                "nonce": "0x00",
                "balance": "0x00",
                "code": "0x7f000000000000000000000000000000000000000000000000000000000000c3507f000000000000000000000000000000000000000000000000000000000000c3507f00000000000000000000000000000000000000000000000000000000000000017f00000000000000000000000000000000000000000000000000000000000000017ffffffffffffffffffffffffffffffffffffffffffffffffffffffffffffffffe7f00000000000000000000000000481d722301e5b7395e13f273eda774568c95e87f000000000000000000000000000000000000000000000000000000000000c3507f000000000000000000000000000000000000000000000000000000000000c350a3f305205bf156207259573055",
                "storage": {}
            }
        },
        "transaction": {
            "nonce": "0x00",
            "gasPrice": "0x0a",
            "gasLimit": [
                "0x07a120"
            ],
            "to": "0x00481d722301e5b7395e13f273eda774568c96e8",
            "value": [
                "0x259b82e3"
            ],
            "data": [
                "0x7f000000000000000000000000000000000000000000000000000000000000c3507f000000000000000000000000000000000000000000000000000000000000c3507f00000000000000000000000000000000000000000000000000000000000000017f00000000000000000000000000000000000000000000000000000000000000017ffffffffffffffffffffffffffffffffffffffffffffffffffffffffffffffffe7f00000000000000000000000000481d722301e5b7395e13f273eda774568c95e87f000000000000000000000000000000000000000000000000000000000000c3507f000000000000000000000000000000000000000000000000000000000000c350a3f305205bf1562072595730"
            ],
            "sender": "0x9323077a6054e80f26e0271d743b4036d6733f8e",
            "secretKey": "0xff31d93995b8aa665e4dc2b400481d722301e5b7395e13f273eda774568c95e8"
        },
        "post": {
            "Osaka": [
                {
                    "hash": "0x37f3bacc735d70b783b331fa7f2a993e5dcbefa24b47ffcea24c8ae9730c38b5",
                    "logs": "0x8844dacc7da7e8cbbcce9aa21a54831f1f619a3012b8743e65ff9159956dd345",
                    "txbytes": "0xf9017a800a8307a1209400481d722301e5b7395e13f273eda774568c96e884259b82e3b901147f000000000000000000000000000000000000000000000000000000000000c3507f000000000000000000000000000000000000000000000000000000000000c3507f00000000000000000000000000000000000000000000000000000000000000017f00000000000000000000000000000000000000000000000000000000000000017ffffffffffffffffffffffffffffffffffffffffffffffffffffffffffffffffe7f00000000000000000000000000481d722301e5b7395e13f273eda774568c95e87f000000000000000000000000000000000000000000000000000000000000c3507f000000000000000000000000000000000000000000000000000000000000c350a3f305205bf156207259573025a05785ef6aa055bf2c2938a78c4e5d4f4f6bba07b356b0acfb0d606be6beeeebb4a06cf6542277c4d048a13e791730aa41bc2828f8ff0722688f371b410c3a62dbc9",
                    "indexes": {
                        "data": 0,
                        "gas": 0,
                        "value": 0
                    },
                    "state": {
                        "0x9323077a6054e80f26e0271d743b4036d6733f8e": {
                            "nonce": "0x01",
                            "balance": "0x0de0b6b381835bed",
                            "code": "0x",
                            "storage": {}
                        },
                        "0x00481d722301e5b7395e13f273eda774568c95e8": {
                            "nonce": "0x00",
                            "balance": "0x2e",
                            "code": "0x6000355415600957005b60203560003555",
                            "storage": {}
                        },
                        "0x00481d722301e5b7395e13f273eda774568c96e8": {
                            "nonce": "0x00",
                            "balance": "0x259b82e3",
                            "code": "0x7f000000000000000000000000000000000000000000000000000000000000c3507f000000000000000000000000000000000000000000000000000000000000c3507f00000000000000000000000000000000000000000000000000000000000000017f00000000000000000000000000000000000000000000000000000000000000017ffffffffffffffffffffffffffffffffffffffffffffffffffffffffffffffffe7f00000000000000000000000000481d722301e5b7395e13f273eda774568c95e87f000000000000000000000000000000000000000000000000000000000000c3507f000000000000000000000000000000000000000000000000000000000000c350a3f305205bf156207259573055",
                            "storage": {}
                        }
                    }
                }
            ]
        },
        "config": {
            "blobSchedule": {
                "Cancun": {
                    "target": "0x03",
                    "max": "0x06",
                    "baseFeeUpdateFraction": "0x32f0ed"
                },
                "Prague": {
                    "target": "0x06",
                    "max": "0x09",
                    "baseFeeUpdateFraction": "0x4c6964"
                },
                "Osaka": {
                    "target": "0x06",
                    "max": "0x09",
                    "baseFeeUpdateFraction": "0x4c6964"
                }
            },
            "chainid": "0x01"
        },
        "_info": {
            "hash": "0xb646994c9f6581914c10b56496aaf3bae330125b9c52faa82fbbc480f748a84c",
            "comment": "`execution-specs` generated test",
            "filling-transition-tool": "2.18.0rc6",
            "description": "No description available - add a docstring to the python test class or function.",
            "url": "",
            "fixture-format": "state_test"
        }
    },
    "tests/static/state_tests/stRandom2/randomStatetest433Filler.json::randomStatetest433[fork_Prague-state_test-]": {
        "env": {
            "currentCoinbase": "0x00481d722301e5b7395e13f273eda774568c95e8",
            "currentGasLimit": "0x7fffffffffffffff",
            "currentNumber": "0x01",
            "currentTimestamp": "0x03e8",
            "currentRandom": "0x0000000000000000000000000000000000000000000000000000000000020000",
            "currentDifficulty": "0x00",
            "currentBaseFee": "0x0a",
            "currentExcessBlobGas": "0x00"
        },
        "pre": {
            "0x9323077a6054e80f26e0271d743b4036d6733f8e": {
                "nonce": "0x00",
                "balance": "0x0de0b6b3a7640000",
                "code": "0x",
                "storage": {}
            },
            "0x00481d722301e5b7395e13f273eda774568c95e8": {
                "nonce": "0x00",
                "balance": "0x2e",
                "code": "0x6000355415600957005b60203560003555",
                "storage": {}
            },
            "0x00481d722301e5b7395e13f273eda774568c96e8": {
                "nonce": "0x00",
                "balance": "0x00",
                "code": "0x7f000000000000000000000000000000000000000000000000000000000000c3507f000000000000000000000000000000000000000000000000000000000000c3507f00000000000000000000000000000000000000000000000000000000000000017f00000000000000000000000000000000000000000000000000000000000000017ffffffffffffffffffffffffffffffffffffffffffffffffffffffffffffffffe7f00000000000000000000000000481d722301e5b7395e13f273eda774568c95e87f000000000000000000000000000000000000000000000000000000000000c3507f000000000000000000000000000000000000000000000000000000000000c350a3f305205bf156207259573055",
                "storage": {}
            }
        },
        "transaction": {
            "nonce": "0x00",
            "gasPrice": "0x0a",
            "gasLimit": [
                "0x07a120"
            ],
            "to": "0x00481d722301e5b7395e13f273eda774568c96e8",
            "value": [
                "0x259b82e3"
            ],
            "data": [
                "0x7f000000000000000000000000000000000000000000000000000000000000c3507f000000000000000000000000000000000000000000000000000000000000c3507f00000000000000000000000000000000000000000000000000000000000000017f00000000000000000000000000000000000000000000000000000000000000017ffffffffffffffffffffffffffffffffffffffffffffffffffffffffffffffffe7f00000000000000000000000000481d722301e5b7395e13f273eda774568c95e87f000000000000000000000000000000000000000000000000000000000000c3507f000000000000000000000000000000000000000000000000000000000000c350a3f305205bf1562072595730"
            ],
            "sender": "0x9323077a6054e80f26e0271d743b4036d6733f8e",
            "secretKey": "0xff31d93995b8aa665e4dc2b400481d722301e5b7395e13f273eda774568c95e8"
        },
        "post": {
            "Prague": [
                {
                    "hash": "0x37f3bacc735d70b783b331fa7f2a993e5dcbefa24b47ffcea24c8ae9730c38b5",
                    "logs": "0x8844dacc7da7e8cbbcce9aa21a54831f1f619a3012b8743e65ff9159956dd345",
                    "txbytes": "0xf9017a800a8307a1209400481d722301e5b7395e13f273eda774568c96e884259b82e3b901147f000000000000000000000000000000000000000000000000000000000000c3507f000000000000000000000000000000000000000000000000000000000000c3507f00000000000000000000000000000000000000000000000000000000000000017f00000000000000000000000000000000000000000000000000000000000000017ffffffffffffffffffffffffffffffffffffffffffffffffffffffffffffffffe7f00000000000000000000000000481d722301e5b7395e13f273eda774568c95e87f000000000000000000000000000000000000000000000000000000000000c3507f000000000000000000000000000000000000000000000000000000000000c350a3f305205bf156207259573025a05785ef6aa055bf2c2938a78c4e5d4f4f6bba07b356b0acfb0d606be6beeeebb4a06cf6542277c4d048a13e791730aa41bc2828f8ff0722688f371b410c3a62dbc9",
                    "indexes": {
                        "data": 0,
                        "gas": 0,
                        "value": 0
                    },
                    "state": {
                        "0x9323077a6054e80f26e0271d743b4036d6733f8e": {
                            "nonce": "0x01",
                            "balance": "0x0de0b6b381835bed",
                            "code": "0x",
                            "storage": {}
                        },
                        "0x00481d722301e5b7395e13f273eda774568c95e8": {
                            "nonce": "0x00",
                            "balance": "0x2e",
                            "code": "0x6000355415600957005b60203560003555",
                            "storage": {}
                        },
                        "0x00481d722301e5b7395e13f273eda774568c96e8": {
                            "nonce": "0x00",
                            "balance": "0x259b82e3",
                            "code": "0x7f000000000000000000000000000000000000000000000000000000000000c3507f000000000000000000000000000000000000000000000000000000000000c3507f00000000000000000000000000000000000000000000000000000000000000017f00000000000000000000000000000000000000000000000000000000000000017ffffffffffffffffffffffffffffffffffffffffffffffffffffffffffffffffe7f00000000000000000000000000481d722301e5b7395e13f273eda774568c95e87f000000000000000000000000000000000000000000000000000000000000c3507f000000000000000000000000000000000000000000000000000000000000c350a3f305205bf156207259573055",
                            "storage": {}
                        }
                    }
                }
            ]
        },
        "config": {
            "blobSchedule": {
                "Cancun": {
                    "target": "0x03",
                    "max": "0x06",
                    "baseFeeUpdateFraction": "0x32f0ed"
                },
                "Prague": {
                    "target": "0x06",
                    "max": "0x09",
                    "baseFeeUpdateFraction": "0x4c6964"
                }
            },
            "chainid": "0x01"
        },
        "_info": {
            "hash": "0x2c1e8bb9c365b3c2365368dc82ee1fc9c01b94f4fa9bee3749ae28d9f96ddbc5",
            "comment": "`execution-specs` generated test",
            "filling-transition-tool": "2.18.0rc6",
            "description": "No description available - add a docstring to the python test class or function.",
            "url": "",
            "fixture-format": "state_test"
        }
    }
}