{
    "tests/static/state_tests/stRandom2/randomStatetest576Filler.json::randomStatetest576[fork_Cancun-state_test-]": {
        "env": {
            "currentCoinbase": "0xa640e7f262bbb8b60be9f22791b527350bd7c962",
            "currentGasLimit": "0x7fffffffffffffff",
            "currentNumber": "0x01",
            "currentTimestamp": "0x03e8",
            "currentRandom": "0x0000000000000000000000000000000000000000000000000000000000020000",
            "currentDifficulty": "0x00",
            "currentBaseFee": "0x0a",
            "currentExcessBlobGas": "0x00"
        },
        "pre": {
            "0xde25ab427a25acd60db53722efdc056c3334f71a": {
                "nonce": "0x00",
                "balance": "0x0de0b6b3a7640000",
                "code": "0x",
                "storage": {}
            },
            "0xa640e7f262bbb8b60be9f22791b527350bd7c962": {
                "nonce": "0x00",
                "balance": "0x2e",
                "code": "0x6000355415600957005b60203560003555",
                "storage": {}
            },
            "0xa640e7f262bbb8b60be9f22791b527350bd7ca62": {
                "nonce": "0x00",
                "balance": "0x00",
                "code": "0x7f0000000000000000000000000000000000000000000000000000000000000000447f000000000000000000000000000000000000000000000000000000000000c3507f00000000000000000000000000000000000000000000000000000000000000017f000000000000000000000000ffffffffffffffffffffffffffffffffffffffff7f000000000000000000000000000000000000000000000000000000000000c3507f000000000000000000000000a640e7f262bbb8b60be9f22791b527350bd7c9627f000000000000000000000000000000000000000000000000000000000000000086053a0b43890710810651116e1555",
                "storage": {}
            }
        },
        "transaction": {
            "nonce": "0x00",
            "gasPrice": "0x0a",
            "gasLimit": [
                "0x0186a0"
            ],
            "to": "0xa640e7f262bbb8b60be9f22791b527350bd7ca62",
            "value": [
                "0x2dcb28af"
            ],
            "data": [
                "0x7f0000000000000000000000000000000000000000000000000000000000000000447f000000000000000000000000000000000000000000000000000000000000c3507f00000000000000000000000000000000000000000000000000000000000000017f000000000000000000000000ffffffffffffffffffffffffffffffffffffffff7f000000000000000000000000000000000000000000000000000000000000c3507f000000000000000000000000a640e7f262bbb8b60be9f22791b527350bd7c9627f000000000000000000000000000000000000000000000000000000000000000086053a0b43890710810651116e15"
            ],
            "sender": "0xde25ab427a25acd60db53722efdc056c3334f71a",
            "secretKey": "0xea9e2ec5bad0a6fa97bdf7a6a640e7f262bbb8b60be9f22791b527350bd7c962"
        },
        "post": {
            "Cancun": [
                {
                    "hash": "0xe9796ae0bd21163ec09d9d4e6a074d4ce645cc2351520512932636bf973c1266",
                    "logs": "0x1dcc4de8dec75d7aab85b567b6ccd41ad312451b948a7413f0a142fd40d49347",
                    "txbytes": "0xf9015b800a830186a094a640e7f262bbb8b60be9f22791b527350bd7ca62842dcb28afb8f67f0000000000000000000000000000000000000000000000000000000000000000447f000000000000000000000000000000000000000000000000000000000000c3507f00000000000000000000000000000000000000000000000000000000000000017f000000000000000000000000ffffffffffffffffffffffffffffffffffffffff7f000000000000000000000000000000000000000000000000000000000000c3507f000000000000000000000000a640e7f262bbb8b60be9f22791b527350bd7c9627f000000000000000000000000000000000000000000000000000000000000000086053a0b43890710810651116e1525a0561e083e28ba9b897a4c1026cfc6dfa5d2bc48b2feccd7716f7d151ce1915002a0121118fa7021505d155fecf39df81d197e5b19424517315a3904496642690676",
                    "indexes": {
                        "data": 0,
                        "gas": 0,
                        "value": 0
                    },
                    "state": {
                        "0xde25ab427a25acd60db53722efdc056c3334f71a": {
                            "nonce": "0x01",
                            "balance": "0x0de0b6b3a754bdc0",
                            "code": "0x",
                            "storage": {}
                        },
                        "0xa640e7f262bbb8b60be9f22791b527350bd7c962": {
                            "nonce": "0x00",
                            "balance": "0x2e",
                            "code": "0x6000355415600957005b60203560003555",
                            "storage": {}
                        },
                        "0xa640e7f262bbb8b60be9f22791b527350bd7ca62": {
                            "nonce": "0x00",
                            "balance": "0x00",
                            "code": "0x7f0000000000000000000000000000000000000000000000000000000000000000447f000000000000000000000000000000000000000000000000000000000000c3507f00000000000000000000000000000000000000000000000000000000000000017f000000000000000000000000ffffffffffffffffffffffffffffffffffffffff7f000000000000000000000000000000000000000000000000000000000000c3507f000000000000000000000000a640e7f262bbb8b60be9f22791b527350bd7c9627f000000000000000000000000000000000000000000000000000000000000000086053a0b43890710810651116e1555",
                            "storage": {}
                        }
                    }
                }
            ]
        },
        "config": {
            "blobSchedule": {
                "Cancun": {
                    "target": "0x03",
                    "max": "0x06",
                    "baseFeeUpdateFraction": "0x32f0ed"
                }
            },
            "chainid": "0x01"
        },
        "_info": {
            "hash": "0x100522af3a5f6035a49f581f1efb778dc5c64b9774967efee1c17cfe1141d0eb",
            "comment": "`execution-specs` generated test",
            "filling-transition-tool": "2.18.0rc6",
            "description": "No description available - add a docstring to the python test class or function.",
            "url": "",
            "fixture-format": "state_test"
        }
    },
    "tests/static/state_tests/stRandom2/randomStatetest576Filler.json::randomStatetest576[fork_Osaka-state_test-]": {
        "env": {
            "currentCoinbase": "0xa640e7f262bbb8b60be9f22791b527350bd7c962",
            "currentGasLimit": "0x7fffffffffffffff",
            "currentNumber": "0x01",
            "currentTimestamp": "0x03e8",
            "currentRandom": "0x0000000000000000000000000000000000000000000000000000000000020000",
            "currentDifficulty": "0x00",
            "currentBaseFee": "0x0a",
            "currentExcessBlobGas": "0x00"
        },
        "pre": {
            "0xde25ab427a25acd60db53722efdc056c3334f71a": {
                "nonce": "0x00",
                "balance": "0x0de0b6b3a7640000",
                "code": "0x",
                "storage": {}
            },
            "0xa640e7f262bbb8b60be9f22791b527350bd7c962": {
                "nonce": "0x00",
                "balance": "0x2e",
                "code": "0x6000355415600957005b60203560003555",
                "storage": {}
            },
            "0xa640e7f262bbb8b60be9f22791b527350bd7ca62": {
                "nonce": "0x00",
                "balance": "0x00",
                "code": "0x7f0000000000000000000000000000000000000000000000000000000000000000447f000000000000000000000000000000000000000000000000000000000000c3507f00000000000000000000000000000000000000000000000000000000000000017f000000000000000000000000ffffffffffffffffffffffffffffffffffffffff7f000000000000000000000000000000000000000000000000000000000000c3507f000000000000000000000000a640e7f262bbb8b60be9f22791b527350bd7c9627f000000000000000000000000000000000000000000000000000000000000000086053a0b43890710810651116e1555",
                "storage": {}
            }
        },
        "transaction": {
            "nonce": "0x00",
            "gasPrice": "0x0a",
            "gasLimit": [
                "0x0186a0"
            ],
            "to": "0xa640e7f262bbb8b60be9f22791b527350bd7ca62",
            "value": [
                "0x2dcb28af"
            ],
            "data": [
                "0x7f0000000000000000000000000000000000000000000000000000000000000000447f000000000000000000000000000000000000000000000000000000000000c3507f00000000000000000000000000000000000000000000000000000000000000017f000000000000000000000000ffffffffffffffffffffffffffffffffffffffff7f000000000000000000000000000000000000000000000000000000000000c3507f000000000000000000000000a640e7f262bbb8b60be9f22791b527350bd7c9627f000000000000000000000000000000000000000000000000000000000000000086053a0b43890710810651116e15"
            ],
            "sender": "0xde25ab427a25acd60db53722efdc056c3334f71a",
            "secretKey": "0xea9e2ec5bad0a6fa97bdf7a6a640e7f262bbb8b60be9f22791b527350bd7c962"
        },
        "post": {
            "Osaka": [
                {
                    "hash": "0xe9796ae0bd21163ec09d9d4e6a074d4ce645cc2351520512932636bf973c1266",
                    "logs": "0x1dcc4de8dec75d7aab85b567b6ccd41ad312451b948a7413f0a142fd40d49347",
                    "txbytes": "0xf9015b800a830186a094a640e7f262bbb8b60be9f22791b527350bd7ca62842dcb28afb8f67f0000000000000000000000000000000000000000000000000000000000000000447f000000000000000000000000000000000000000000000000000000000000c3507f00000000000000000000000000000000000000000000000000000000000000017f000000000000000000000000ffffffffffffffffffffffffffffffffffffffff7f000000000000000000000000000000000000000000000000000000000000c3507f000000000000000000000000a640e7f262bbb8b60be9f22791b527350bd7c9627f000000000000000000000000000000000000000000000000000000000000000086053a0b43890710810651116e1525a0561e083e28ba9b897a4c1026cfc6dfa5d2bc48b2feccd7716f7d151ce1915002a0121118fa7021505d155fecf39df81d197e5b19424517315a3904496642690676",
                    "indexes": {
                        "data": 0,
                        "gas": 0,
                        "value": 0
                    },
                    "state": {
                        "0xde25ab427a25acd60db53722efdc056c3334f71a": {
                            "nonce": "0x01",
                            "balance": "0x0de0b6b3a754bdc0",
                            "code": "0x",
                            "storage": {}
                        },
                        "0xa640e7f262bbb8b60be9f22791b527350bd7c962": {
                            "nonce": "0x00",
                            "balance": "0x2e",
                            "code": "0x6000355415600957005b60203560003555",
                            "storage": {}
                        },
                        "0xa640e7f262bbb8b60be9f22791b527350bd7ca62": {
                            "nonce": "0x00",
                            "balance": "0x00",
                            "code": "0x7f0000000000000000000000000000000000000000000000000000000000000000447f000000000000000000000000000000000000000000000000000000000000c3507f00000000000000000000000000000000000000000000000000000000000000017f000000000000000000000000ffffffffffffffffffffffffffffffffffffffff7f000000000000000000000000000000000000000000000000000000000000c3507f000000000000000000000000a640e7f262bbb8b60be9f22791b527350bd7c9627f000000000000000000000000000000000000000000000000000000000000000086053a0b43890710810651116e1555",
                            "storage": {}
                        }
                    }
                }
            ]
        },
        "config": {
            "blobSchedule": {
                "Cancun": {
                    "target": "0x03",
                    "max": "0x06",
                    "baseFeeUpdateFraction": "0x32f0ed"
                },
                "Prague": {
                    "target": "0x06",
                    "max": "0x09",
                    "baseFeeUpdateFraction": "0x4c6964"
                },
                "Osaka": {
                    "target": "0x06",
                    "max": "0x09",
                    "baseFeeUpdateFraction": "0x4c6964"
                }
            },
            "chainid": "0x01"
        },
        "_info": {
            "hash": "0x7b979bf9f20321a2d26407c361bb65a5c8675d183aa18fbc70dc28b57dfe6fda",
            "comment": "`execution-specs` generated test",
            "filling-transition-tool": "2.18.0rc6",
            "description": "No description available - add a docstring to the python test class or function.",
            "url": "",
            "fixture-format": "state_test"
        }
    },
    "tests/static/state_tests/stRandom2/randomStatetest576Filler.json::randomStatetest576[fork_Prague-state_test-]": {
        "env": {
            "currentCoinbase": "0xa640e7f262bbb8b60be9f22791b527350bd7c962",
            "currentGasLimit": "0x7fffffffffffffff",
            "currentNumber": "0x01",
            "currentTimestamp": "0x03e8",
            "currentRandom": "0x0000000000000000000000000000000000000000000000000000000000020000",
            "currentDifficulty": "0x00",
            "currentBaseFee": "0x0a",
            "currentExcessBlobGas": "0x00"
        },
        "pre": {
            "0xde25ab427a25acd60db53722efdc056c3334f71a": {
                "nonce": "0x00",
                "balance": "0x0de0b6b3a7640000",
                "code": "0x",
                "storage": {}
            },
            "0xa640e7f262bbb8b60be9f22791b527350bd7c962": {
                "nonce": "0x00",
                "balance": "0x2e",
                "code": "0x6000355415600957005b60203560003555",
                "storage": {}
            },
            "0xa640e7f262bbb8b60be9f22791b527350bd7ca62": {
                "nonce": "0x00",
                "balance": "0x00",
                "code": "0x7f0000000000000000000000000000000000000000000000000000000000000000447f000000000000000000000000000000000000000000000000000000000000c3507f00000000000000000000000000000000000000000000000000000000000000017f000000000000000000000000ffffffffffffffffffffffffffffffffffffffff7f000000000000000000000000000000000000000000000000000000000000c3507f000000000000000000000000a640e7f262bbb8b60be9f22791b527350bd7c9627f000000000000000000000000000000000000000000000000000000000000000086053a0b43890710810651116e1555",
                "storage": {}
            }
        },
        "transaction": {
            "nonce": "0x00",
            "gasPrice": "0x0a",
            "gasLimit": [
                "0x0186a0"
            ],
            "to": "0xa640e7f262bbb8b60be9f22791b527350bd7ca62",
            "value": [
                "0x2dcb28af"
            ],
            "data": [
                "0x7f0000000000000000000000000000000000000000000000000000000000000000447f000000000000000000000000000000000000000000000000000000000000c3507f00000000000000000000000000000000000000000000000000000000000000017f000000000000000000000000ffffffffffffffffffffffffffffffffffffffff7f000000000000000000000000000000000000000000000000000000000000c3507f000000000000000000000000a640e7f262bbb8b60be9f22791b527350bd7c9627f000000000000000000000000000000000000000000000000000000000000000086053a0b43890710810651116e15"
            ],
            "sender": "0xde25ab427a25acd60db53722efdc056c3334f71a",
            "secretKey": "0xea9e2ec5bad0a6fa97bdf7a6a640e7f262bbb8b60be9f22791b527350bd7c962"
        },
        "post": {
            "Prague": [
                {
                    "hash": "0xe9796ae0bd21163ec09d9d4e6a074d4ce645cc2351520512932636bf973c1266",
                    "logs": "0x1dcc4de8dec75d7aab85b567b6ccd41ad312451b948a7413f0a142fd40d49347",
                    "txbytes": "0xf9015b800a830186a094a640e7f262bbb8b60be9f22791b527350bd7ca62842dcb28afb8f67f0000000000000000000000000000000000000000000000000000000000000000447f000000000000000000000000000000000000000000000000000000000000c3507f00000000000000000000000000000000000000000000000000000000000000017f000000000000000000000000ffffffffffffffffffffffffffffffffffffffff7f000000000000000000000000000000000000000000000000000000000000c3507f000000000000000000000000a640e7f262bbb8b60be9f22791b527350bd7c9627f000000000000000000000000000000000000000000000000000000000000000086053a0b43890710810651116e1525a0561e083e28ba9b897a4c1026cfc6dfa5d2bc48b2feccd7716f7d151ce1915002a0121118fa7021505d155fecf39df81d197e5b19424517315a3904496642690676",
                    "indexes": {
                        "data": 0,
                        "gas": 0,
                        "value": 0
                    },
                    "state": {
                        "0xde25ab427a25acd60db53722efdc056c3334f71a": {
                            "nonce": "0x01",
                            "balance": "0x0de0b6b3a754bdc0",
                            "code": "0x",
                            "storage": {}
                        },
                        "0xa640e7f262bbb8b60be9f22791b527350bd7c962": {
                            "nonce": "0x00",
                            "balance": "0x2e",
                            "code": "0x6000355415600957005b60203560003555",
                            "storage": {}
                        },
                        "0xa640e7f262bbb8b60be9f22791b527350bd7ca62": {
                            "nonce": "0x00",
                            "balance": "0x00",
                            "code": "0x7f0000000000000000000000000000000000000000000000000000000000000000447f000000000000000000000000000000000000000000000000000000000000c3507f00000000000000000000000000000000000000000000000000000000000000017f000000000000000000000000ffffffffffffffffffffffffffffffffffffffff7f000000000000000000000000000000000000000000000000000000000000c3507f000000000000000000000000a640e7f262bbb8b60be9f22791b527350bd7c9627f000000000000000000000000000000000000000000000000000000000000000086053a0b43890710810651116e1555",
                            "storage": {}
                        }
                    }
                }
            ]
        },
        "config": {
            "blobSchedule": {
                "Cancun": {
                    "target": "0x03",
                    "max": "0x06",
                    "baseFeeUpdateFraction": "0x32f0ed"
                },
                "Prague": {
                    "target": "0x06",
                    "max": "0x09",
                    "baseFeeUpdateFraction": "0x4c6964"
                }
            },
            "chainid": "0x01"
        },
        "_info": {
            "hash": "0xcb7e183c16d54596b5bd47ebcab9a317698ddada2324249be7ca802b809ee758",
            "comment": "`execution-specs` generated test",
            "filling-transition-tool": "2.18.0rc6",
            "description": "No description available - add a docstring to the python test class or function.",
            "url": "",
            "fixture-format": "state_test"
        }
    }
}