{
    "tests/static/state_tests/stRandom2/randomStatetest560Filler.json::randomStatetest560[fork_Cancun-state_test-]": {
        "env": {
            "currentCoinbase": "0xe3378d2477d2ca52efbd95e386d8bc341c8e3720",
            "currentGasLimit": "0x7fffffffffffffff",
            "currentNumber": "0x01",
            "currentTimestamp": "0x03e8",
            "currentRandom": "0x0000000000000000000000000000000000000000000000000000000000020000",
            "currentDifficulty": "0x00",
            "currentBaseFee": "0x0a",
            "currentExcessBlobGas": "0x00"
        },
        "pre": {
            "0xde5d848431cc878543b720ef4122f1615f91eb73": {
                "nonce": "0x00",
                "balance": "0x0de0b6b3a7640000",
                "code": "0x",
                "storage": {}
            },
            "0xe3378d2477d2ca52efbd95e386d8bc341c8e3720": {
                "nonce": "0x00",
                "balance": "0x2e",
                "code": "0x6000355415600957005b60203560003555",
                "storage": {}
            },
            "0xe3378d2477d2ca52efbd95e386d8bc341c8e3820": {
                "nonce": "0x00",
                "balance": "0x00",
                "code": "0x7fffffffffffffffffffffffffffffffffffffffffffffffffffffffffffffffff7f000000000000000000000000000000000000000000000000000000000000c3507f000000000000000000000000ffffffffffffffffffffffffffffffffffffffff7f000000000000000000000000000000000000000000000000000000000000c35059a17f0000000000000000000000000000000000000000000000000000000000000001f38f07bf60005155",
                "storage": {}
            }
        },
        "transaction": {
            "nonce": "0x00",
            "gasPrice": "0x0a",
            "gasLimit": [
                "0x07a120"
            ],
            "to": "0xe3378d2477d2ca52efbd95e386d8bc341c8e3820",
            "value": [
                "0x030247dc"
            ],
            "data": [
                "0x7fffffffffffffffffffffffffffffffffffffffffffffffffffffffffffffffff7f000000000000000000000000000000000000000000000000000000000000c3507f000000000000000000000000ffffffffffffffffffffffffffffffffffffffff7f000000000000000000000000000000000000000000000000000000000000c35059a17f0000000000000000000000000000000000000000000000000000000000000001f38f07bf"
            ],
            "sender": "0xde5d848431cc878543b720ef4122f1615f91eb73",
            "secretKey": "0x0df4b4358425c4b1be803ce6e3378d2477d2ca52efbd95e386d8bc341c8e3720"
        },
        "post": {
            "Cancun": [
                {
                    "hash": "0x0cbc0db91723b15b24af8cf80a110323aa7228599fd2a8ad076bd609a281cc1f",
                    "logs": "0x7b91cfd87cf7c88a1ca498e21960d22addc8d371f68291ee993fd1b12e138d7e",
                    "txbytes": "0xf90110800a8307a12094e3378d2477d2ca52efbd95e386d8bc341c8e382084030247dcb8ab7fffffffffffffffffffffffffffffffffffffffffffffffffffffffffffffffff7f000000000000000000000000000000000000000000000000000000000000c3507f000000000000000000000000ffffffffffffffffffffffffffffffffffffffff7f000000000000000000000000000000000000000000000000000000000000c35059a17f0000000000000000000000000000000000000000000000000000000000000001f38f07bf26a09dd1d558c7c33bde3ed771a4d91472bd9e45c76a57d77514b1d781107e84b9bfa06daad09afb28a3479bb3787831f34991bf235a297ec9a6e2ff0754345c2dceb2",
                    "indexes": {
                        "data": 0,
                        "gas": 0,
                        "value": 0
                    },
                    "state": {
                        "0xde5d848431cc878543b720ef4122f1615f91eb73": {
                            "nonce": "0x01",
                            "balance": "0x0de0b6b3a41fb0be",
                            "code": "0x",
                            "storage": {}
                        },
                        "0xe3378d2477d2ca52efbd95e386d8bc341c8e3720": {
                            "nonce": "0x00",
                            "balance": "0x2e",
                            "code": "0x6000355415600957005b60203560003555",
                            "storage": {}
                        },
                        "0xe3378d2477d2ca52efbd95e386d8bc341c8e3820": {
                            "nonce": "0x00",
                            "balance": "0x030247dc",
                            "code": "0x7fffffffffffffffffffffffffffffffffffffffffffffffffffffffffffffffff7f000000000000000000000000000000000000000000000000000000000000c3507f000000000000000000000000ffffffffffffffffffffffffffffffffffffffff7f000000000000000000000000000000000000000000000000000000000000c35059a17f0000000000000000000000000000000000000000000000000000000000000001f38f07bf60005155",
                            "storage": {}
                        }
                    }
                }
            ]
        },
        "config": {
            "blobSchedule": {
                "Cancun": {
                    "target": "0x03",
                    "max": "0x06",
                    "baseFeeUpdateFraction": "0x32f0ed"
                }
            },
            "chainid": "0x01"
        },
        "_info": {
            "hash": "0xccdd308d5e19bbed5f5fb9161c93bfc4e14342c5d771aac263cff1d692b5a981",
            "comment": "`execution-spec-tests` generated test",
            "filling-transition-tool": "ethereum-spec-evm-resolver 0.0.5",
            "description": "No description available - add a docstring to the python test class or function.",
            "url": "",
            "fixture-format": "state_test",
            "eels-resolution": {
                "git-url": "https://github.com/marioevz/execution-specs.git",
                "branch": "forks/bpo1",
                "commit": "3387e5f4aedfe99becfdc39b444d6371e25e0924"
            }
        }
    },
    "tests/static/state_tests/stRandom2/randomStatetest560Filler.json::randomStatetest560[fork_Osaka-state_test-]": {
        "env": {
            "currentCoinbase": "0xe3378d2477d2ca52efbd95e386d8bc341c8e3720",
            "currentGasLimit": "0x7fffffffffffffff",
            "currentNumber": "0x01",
            "currentTimestamp": "0x03e8",
            "currentRandom": "0x0000000000000000000000000000000000000000000000000000000000020000",
            "currentDifficulty": "0x00",
            "currentBaseFee": "0x0a",
            "currentExcessBlobGas": "0x00"
        },
        "pre": {
            "0xde5d848431cc878543b720ef4122f1615f91eb73": {
                "nonce": "0x00",
                "balance": "0x0de0b6b3a7640000",
                "code": "0x",
                "storage": {}
            },
            "0xe3378d2477d2ca52efbd95e386d8bc341c8e3720": {
                "nonce": "0x00",
                "balance": "0x2e",
                "code": "0x6000355415600957005b60203560003555",
                "storage": {}
            },
            "0xe3378d2477d2ca52efbd95e386d8bc341c8e3820": {
                "nonce": "0x00",
                "balance": "0x00",
                "code": "0x7fffffffffffffffffffffffffffffffffffffffffffffffffffffffffffffffff7f000000000000000000000000000000000000000000000000000000000000c3507f000000000000000000000000ffffffffffffffffffffffffffffffffffffffff7f000000000000000000000000000000000000000000000000000000000000c35059a17f0000000000000000000000000000000000000000000000000000000000000001f38f07bf60005155",
                "storage": {}
            }
        },
        "transaction": {
            "nonce": "0x00",
            "gasPrice": "0x0a",
            "gasLimit": [
                "0x07a120"
            ],
            "to": "0xe3378d2477d2ca52efbd95e386d8bc341c8e3820",
            "value": [
                "0x030247dc"
            ],
            "data": [
                "0x7fffffffffffffffffffffffffffffffffffffffffffffffffffffffffffffffff7f000000000000000000000000000000000000000000000000000000000000c3507f000000000000000000000000ffffffffffffffffffffffffffffffffffffffff7f000000000000000000000000000000000000000000000000000000000000c35059a17f0000000000000000000000000000000000000000000000000000000000000001f38f07bf"
            ],
            "sender": "0xde5d848431cc878543b720ef4122f1615f91eb73",
            "secretKey": "0x0df4b4358425c4b1be803ce6e3378d2477d2ca52efbd95e386d8bc341c8e3720"
        },
        "post": {
            "Osaka": [
                {
                    "hash": "0x0cbc0db91723b15b24af8cf80a110323aa7228599fd2a8ad076bd609a281cc1f",
                    "logs": "0x7b91cfd87cf7c88a1ca498e21960d22addc8d371f68291ee993fd1b12e138d7e",
                    "txbytes": "0xf90110800a8307a12094e3378d2477d2ca52efbd95e386d8bc341c8e382084030247dcb8ab7fffffffffffffffffffffffffffffffffffffffffffffffffffffffffffffffff7f000000000000000000000000000000000000000000000000000000000000c3507f000000000000000000000000ffffffffffffffffffffffffffffffffffffffff7f000000000000000000000000000000000000000000000000000000000000c35059a17f0000000000000000000000000000000000000000000000000000000000000001f38f07bf26a09dd1d558c7c33bde3ed771a4d91472bd9e45c76a57d77514b1d781107e84b9bfa06daad09afb28a3479bb3787831f34991bf235a297ec9a6e2ff0754345c2dceb2",
                    "indexes": {
                        "data": 0,
                        "gas": 0,
                        "value": 0
                    },
                    "state": {
                        "0xde5d848431cc878543b720ef4122f1615f91eb73": {
                            "nonce": "0x01",
                            "balance": "0x0de0b6b3a41fb0be",
                            "code": "0x",
                            "storage": {}
                        },
                        "0xe3378d2477d2ca52efbd95e386d8bc341c8e3720": {
                            "nonce": "0x00",
                            "balance": "0x2e",
                            "code": "0x6000355415600957005b60203560003555",
                            "storage": {}
                        },
                        "0xe3378d2477d2ca52efbd95e386d8bc341c8e3820": {
                            "nonce": "0x00",
                            "balance": "0x030247dc",
                            "code": "0x7fffffffffffffffffffffffffffffffffffffffffffffffffffffffffffffffff7f000000000000000000000000000000000000000000000000000000000000c3507f000000000000000000000000ffffffffffffffffffffffffffffffffffffffff7f000000000000000000000000000000000000000000000000000000000000c35059a17f0000000000000000000000000000000000000000000000000000000000000001f38f07bf60005155",
                            "storage": {}
                        }
                    }
                }
            ]
        },
        "config": {
            "blobSchedule": {
                "Cancun": {
                    "target": "0x03",
                    "max": "0x06",
                    "baseFeeUpdateFraction": "0x32f0ed"
                },
                "Prague": {
                    "target": "0x06",
                    "max": "0x09",
                    "baseFeeUpdateFraction": "0x4c6964"
                },
                "Osaka": {
                    "target": "0x06",
                    "max": "0x09",
                    "baseFeeUpdateFraction": "0x4c6964"
                }
            },
            "chainid": "0x01"
        },
        "_info": {
            "hash": "0x0ec72e56fd86f0e7821cb05b0b8598fa179f75575e1f956e50027bfd0b31e921",
            "comment": "`execution-spec-tests` generated test",
            "filling-transition-tool": "ethereum-spec-evm-resolver 0.0.5",
            "description": "No description available - add a docstring to the python test class or function.",
            "url": "",
            "fixture-format": "state_test",
            "eels-resolution": {
                "git-url": "https://github.com/marioevz/execution-specs.git",
                "branch": "forks/bpo1",
                "commit": "3387e5f4aedfe99becfdc39b444d6371e25e0924"
            }
        }
    },
    "tests/static/state_tests/stRandom2/randomStatetest560Filler.json::randomStatetest560[fork_Prague-state_test-]": {
        "env": {
            "currentCoinbase": "0xe3378d2477d2ca52efbd95e386d8bc341c8e3720",
            "currentGasLimit": "0x7fffffffffffffff",
            "currentNumber": "0x01",
            "currentTimestamp": "0x03e8",
            "currentRandom": "0x0000000000000000000000000000000000000000000000000000000000020000",
            "currentDifficulty": "0x00",
            "currentBaseFee": "0x0a",
            "currentExcessBlobGas": "0x00"
        },
        "pre": {
            "0xde5d848431cc878543b720ef4122f1615f91eb73": {
                "nonce": "0x00",
                "balance": "0x0de0b6b3a7640000",
                "code": "0x",
                "storage": {}
            },
            "0xe3378d2477d2ca52efbd95e386d8bc341c8e3720": {
                "nonce": "0x00",
                "balance": "0x2e",
                "code": "0x6000355415600957005b60203560003555",
                "storage": {}
            },
            "0xe3378d2477d2ca52efbd95e386d8bc341c8e3820": {
                "nonce": "0x00",
                "balance": "0x00",
                "code": "0x7fffffffffffffffffffffffffffffffffffffffffffffffffffffffffffffffff7f000000000000000000000000000000000000000000000000000000000000c3507f000000000000000000000000ffffffffffffffffffffffffffffffffffffffff7f000000000000000000000000000000000000000000000000000000000000c35059a17f0000000000000000000000000000000000000000000000000000000000000001f38f07bf60005155",
                "storage": {}
            }
        },
        "transaction": {
            "nonce": "0x00",
            "gasPrice": "0x0a",
            "gasLimit": [
                "0x07a120"
            ],
            "to": "0xe3378d2477d2ca52efbd95e386d8bc341c8e3820",
            "value": [
                "0x030247dc"
            ],
            "data": [
                "0x7fffffffffffffffffffffffffffffffffffffffffffffffffffffffffffffffff7f000000000000000000000000000000000000000000000000000000000000c3507f000000000000000000000000ffffffffffffffffffffffffffffffffffffffff7f000000000000000000000000000000000000000000000000000000000000c35059a17f0000000000000000000000000000000000000000000000000000000000000001f38f07bf"
            ],
            "sender": "0xde5d848431cc878543b720ef4122f1615f91eb73",
            "secretKey": "0x0df4b4358425c4b1be803ce6e3378d2477d2ca52efbd95e386d8bc341c8e3720"
        },
        "post": {
            "Prague": [
                {
                    "hash": "0x0cbc0db91723b15b24af8cf80a110323aa7228599fd2a8ad076bd609a281cc1f",
                    "logs": "0x7b91cfd87cf7c88a1ca498e21960d22addc8d371f68291ee993fd1b12e138d7e",
                    "txbytes": "0xf90110800a8307a12094e3378d2477d2ca52efbd95e386d8bc341c8e382084030247dcb8ab7fffffffffffffffffffffffffffffffffffffffffffffffffffffffffffffffff7f000000000000000000000000000000000000000000000000000000000000c3507f000000000000000000000000ffffffffffffffffffffffffffffffffffffffff7f000000000000000000000000000000000000000000000000000000000000c35059a17f0000000000000000000000000000000000000000000000000000000000000001f38f07bf26a09dd1d558c7c33bde3ed771a4d91472bd9e45c76a57d77514b1d781107e84b9bfa06daad09afb28a3479bb3787831f34991bf235a297ec9a6e2ff0754345c2dceb2",
                    "indexes": {
                        "data": 0,
                        "gas": 0,
                        "value": 0
                    },
                    "state": {
                        "0xde5d848431cc878543b720ef4122f1615f91eb73": {
                            "nonce": "0x01",
                            "balance": "0x0de0b6b3a41fb0be",
                            "code": "0x",
                            "storage": {}
                        },
                        "0xe3378d2477d2ca52efbd95e386d8bc341c8e3720": {
                            "nonce": "0x00",
                            "balance": "0x2e",
                            "code": "0x6000355415600957005b60203560003555",
                            "storage": {}
                        },
                        "0xe3378d2477d2ca52efbd95e386d8bc341c8e3820": {
                            "nonce": "0x00",
                            "balance": "0x030247dc",
                            "code": "0x7fffffffffffffffffffffffffffffffffffffffffffffffffffffffffffffffff7f000000000000000000000000000000000000000000000000000000000000c3507f000000000000000000000000ffffffffffffffffffffffffffffffffffffffff7f000000000000000000000000000000000000000000000000000000000000c35059a17f0000000000000000000000000000000000000000000000000000000000000001f38f07bf60005155",
                            "storage": {}
                        }
                    }
                }
            ]
        },
        "config": {
            "blobSchedule": {
                "Cancun": {
                    "target": "0x03",
                    "max": "0x06",
                    "baseFeeUpdateFraction": "0x32f0ed"
                },
                "Prague": {
                    "target": "0x06",
                    "max": "0x09",
                    "baseFeeUpdateFraction": "0x4c6964"
                }
            },
            "chainid": "0x01"
        },
        "_info": {
            "hash": "0x5973bb40ec2d63bea74d057ce1a8350497c5279232871ea2a687273871800bc1",
            "comment": "`execution-spec-tests` generated test",
            "filling-transition-tool": "ethereum-spec-evm-resolver 0.0.5",
            "description": "No description available - add a docstring to the python test class or function.",
            "url": "",
            "fixture-format": "state_test",
            "eels-resolution": {
                "git-url": "https://github.com/marioevz/execution-specs.git",
                "branch": "forks/bpo1",
                "commit": "3387e5f4aedfe99becfdc39b444d6371e25e0924"
            }
        }
    }
}