{
    "tests/static/state_tests/stRandom2/randomStatetest547Filler.json::randomStatetest547[fork_Cancun-state_test-]": {
        "env": {
            "currentCoinbase": "0x791c426b3f3a268c5e045b1d8a85b9070986233d",
            "currentGasLimit": "0x7fffffffffffffff",
            "currentNumber": "0x01",
            "currentTimestamp": "0x03e8",
            "currentRandom": "0x0000000000000000000000000000000000000000000000000000000000020000",
            "currentDifficulty": "0x00",
            "currentBaseFee": "0x0a",
            "currentExcessBlobGas": "0x00"
        },
        "pre": {
            "0xfaf0cb4a729684f85ed1fb949607aae6f709b9d7": {
                "nonce": "0x00",
                "balance": "0x0de0b6b3a7640000",
                "code": "0x",
                "storage": {}
            },
            "0x791c426b3f3a268c5e045b1d8a85b9070986233d": {
                "nonce": "0x00",
                "balance": "0x2e",
                "code": "0x6000355415600957005b60203560003555",
                "storage": {}
            },
            "0x791c426b3f3a268c5e045b1d8a85b9070986243d": {
                "nonce": "0x00",
                "balance": "0x00",
                "code": "0x7fffffffffffffffffffffffffffffffffffffffffffffffffffffffffffffffff7f0000000000000000000000000000000000000000000000000000000000000001417fffffffffffffffffffffffffffffffffffffffffffffffffffffffffffffffff7f00000000000000000000000000000000000000000000000000000000000000007f000000000000000000000000ffffffffffffffffffffffffffffffffffffffff7f000000000000000000000000000000000000000000000000000000000000c35014623971943854a009768255",
                "storage": {}
            }
        },
        "transaction": {
            "nonce": "0x00",
            "gasPrice": "0x0a",
            "gasLimit": [
                "0x605781c3"
            ],
            "to": "0x791c426b3f3a268c5e045b1d8a85b9070986243d",
            "value": [
                "0x7610b461"
            ],
            "data": [
                "0x7fffffffffffffffffffffffffffffffffffffffffffffffffffffffffffffffff7f0000000000000000000000000000000000000000000000000000000000000001417fffffffffffffffffffffffffffffffffffffffffffffffffffffffffffffffff7f00000000000000000000000000000000000000000000000000000000000000007f000000000000000000000000ffffffffffffffffffffffffffffffffffffffff7f000000000000000000000000000000000000000000000000000000000000c35014623971943854a0097682"
            ],
            "sender": "0xfaf0cb4a729684f85ed1fb949607aae6f709b9d7",
            "secretKey": "0x54ab61cf93bebd1a1f8e291b791c426b3f3a268c5e045b1d8a85b9070986233d"
        },
        "post": {
            "Cancun": [
                {
                    "hash": "0x8bcf97a2a03bbb5cdd2d0bd87367072042d22f8184ecc6cf4a957d7f5635a914",
                    "logs": "0x4323e30a0eb99031c278ba100bf44ecfc1284b23c13278b6db8fa02a0ccdf188",
                    "txbytes": "0xf90138800a84605781c394791c426b3f3a268c5e045b1d8a85b9070986243d847610b461b8d27fffffffffffffffffffffffffffffffffffffffffffffffffffffffffffffffff7f0000000000000000000000000000000000000000000000000000000000000001417fffffffffffffffffffffffffffffffffffffffffffffffffffffffffffffffff7f00000000000000000000000000000000000000000000000000000000000000007f000000000000000000000000ffffffffffffffffffffffffffffffffffffffff7f000000000000000000000000000000000000000000000000000000000000c35014623971943854a009768226a0f53394a1f8cf446ba4f6134edfc09f5d484094ff992a538a29b32941643511a6a0471a906f63209c5448b77ffed47e92855ed721c88b28d279a0d98f0ff4c08912",
                    "indexes": {
                        "data": 0,
                        "gas": 0,
                        "value": 0
                    },
                    "state": {
                        "0xfaf0cb4a729684f85ed1fb949607aae6f709b9d7": {
                            "nonce": "0x01",
                            "balance": "0x0de0b6b30f094bbb",
                            "code": "0x",
                            "storage": {}
                        },
                        "0x791c426b3f3a268c5e045b1d8a85b9070986233d": {
                            "nonce": "0x00",
                            "balance": "0x2e",
                            "code": "0x6000355415600957005b60203560003555",
                            "storage": {}
                        },
                        "0x791c426b3f3a268c5e045b1d8a85b9070986243d": {
                            "nonce": "0x00",
                            "balance": "0x7610b461",
                            "code": "0x7fffffffffffffffffffffffffffffffffffffffffffffffffffffffffffffffff7f0000000000000000000000000000000000000000000000000000000000000001417fffffffffffffffffffffffffffffffffffffffffffffffffffffffffffffffff7f00000000000000000000000000000000000000000000000000000000000000007f000000000000000000000000ffffffffffffffffffffffffffffffffffffffff7f000000000000000000000000000000000000000000000000000000000000c35014623971943854a009768255",
                            "storage": {}
                        }
                    }
                }
            ]
        },
        "config": {
            "blobSchedule": {
                "Cancun": {
                    "target": "0x03",
                    "max": "0x06",
                    "baseFeeUpdateFraction": "0x32f0ed"
                }
            },
            "chainid": "0x01"
        },
        "_info": {
            "hash": "0xb3a5b1a22949b08c4ea87ff89b46bc869492fe5c00ad187114b6bb2b4ec4c7dd",
            "comment": "`execution-spec-tests` generated test",
            "filling-transition-tool": "ethereum-spec-evm-resolver 0.0.5",
            "description": "No description available - add a docstring to the python test class or function.",
            "url": "",
            "fixture-format": "state_test",
            "eels-resolution": {
                "git-url": "https://github.com/marioevz/execution-specs.git",
                "branch": "forks/bpo1",
                "commit": "3387e5f4aedfe99becfdc39b444d6371e25e0924"
            }
        }
    },
    "tests/static/state_tests/stRandom2/randomStatetest547Filler.json::randomStatetest547[fork_Prague-state_test-]": {
        "env": {
            "currentCoinbase": "0x791c426b3f3a268c5e045b1d8a85b9070986233d",
            "currentGasLimit": "0x7fffffffffffffff",
            "currentNumber": "0x01",
            "currentTimestamp": "0x03e8",
            "currentRandom": "0x0000000000000000000000000000000000000000000000000000000000020000",
            "currentDifficulty": "0x00",
            "currentBaseFee": "0x0a",
            "currentExcessBlobGas": "0x00"
        },
        "pre": {
            "0xfaf0cb4a729684f85ed1fb949607aae6f709b9d7": {
                "nonce": "0x00",
                "balance": "0x0de0b6b3a7640000",
                "code": "0x",
                "storage": {}
            },
            "0x791c426b3f3a268c5e045b1d8a85b9070986233d": {
                "nonce": "0x00",
                "balance": "0x2e",
                "code": "0x6000355415600957005b60203560003555",
                "storage": {}
            },
            "0x791c426b3f3a268c5e045b1d8a85b9070986243d": {
                "nonce": "0x00",
                "balance": "0x00",
                "code": "0x7fffffffffffffffffffffffffffffffffffffffffffffffffffffffffffffffff7f0000000000000000000000000000000000000000000000000000000000000001417fffffffffffffffffffffffffffffffffffffffffffffffffffffffffffffffff7f00000000000000000000000000000000000000000000000000000000000000007f000000000000000000000000ffffffffffffffffffffffffffffffffffffffff7f000000000000000000000000000000000000000000000000000000000000c35014623971943854a009768255",
                "storage": {}
            }
        },
        "transaction": {
            "nonce": "0x00",
            "gasPrice": "0x0a",
            "gasLimit": [
                "0x605781c3"
            ],
            "to": "0x791c426b3f3a268c5e045b1d8a85b9070986243d",
            "value": [
                "0x7610b461"
            ],
            "data": [
                "0x7fffffffffffffffffffffffffffffffffffffffffffffffffffffffffffffffff7f0000000000000000000000000000000000000000000000000000000000000001417fffffffffffffffffffffffffffffffffffffffffffffffffffffffffffffffff7f00000000000000000000000000000000000000000000000000000000000000007f000000000000000000000000ffffffffffffffffffffffffffffffffffffffff7f000000000000000000000000000000000000000000000000000000000000c35014623971943854a0097682"
            ],
            "sender": "0xfaf0cb4a729684f85ed1fb949607aae6f709b9d7",
            "secretKey": "0x54ab61cf93bebd1a1f8e291b791c426b3f3a268c5e045b1d8a85b9070986233d"
        },
        "post": {
            "Prague": [
                {
                    "hash": "0x8bcf97a2a03bbb5cdd2d0bd87367072042d22f8184ecc6cf4a957d7f5635a914",
                    "logs": "0x4323e30a0eb99031c278ba100bf44ecfc1284b23c13278b6db8fa02a0ccdf188",
                    "txbytes": "0xf90138800a84605781c394791c426b3f3a268c5e045b1d8a85b9070986243d847610b461b8d27fffffffffffffffffffffffffffffffffffffffffffffffffffffffffffffffff7f0000000000000000000000000000000000000000000000000000000000000001417fffffffffffffffffffffffffffffffffffffffffffffffffffffffffffffffff7f00000000000000000000000000000000000000000000000000000000000000007f000000000000000000000000ffffffffffffffffffffffffffffffffffffffff7f000000000000000000000000000000000000000000000000000000000000c35014623971943854a009768226a0f53394a1f8cf446ba4f6134edfc09f5d484094ff992a538a29b32941643511a6a0471a906f63209c5448b77ffed47e92855ed721c88b28d279a0d98f0ff4c08912",
                    "indexes": {
                        "data": 0,
                        "gas": 0,
                        "value": 0
                    },
                    "state": {
                        "0xfaf0cb4a729684f85ed1fb949607aae6f709b9d7": {
                            "nonce": "0x01",
                            "balance": "0x0de0b6b30f094bbb",
                            "code": "0x",
                            "storage": {}
                        },
                        "0x791c426b3f3a268c5e045b1d8a85b9070986233d": {
                            "nonce": "0x00",
                            "balance": "0x2e",
                            "code": "0x6000355415600957005b60203560003555",
                            "storage": {}
                        },
                        "0x791c426b3f3a268c5e045b1d8a85b9070986243d": {
                            "nonce": "0x00",
                            "balance": "0x7610b461",
                            "code": "0x7fffffffffffffffffffffffffffffffffffffffffffffffffffffffffffffffff7f0000000000000000000000000000000000000000000000000000000000000001417fffffffffffffffffffffffffffffffffffffffffffffffffffffffffffffffff7f00000000000000000000000000000000000000000000000000000000000000007f000000000000000000000000ffffffffffffffffffffffffffffffffffffffff7f000000000000000000000000000000000000000000000000000000000000c35014623971943854a009768255",
                            "storage": {}
                        }
                    }
                }
            ]
        },
        "config": {
            "blobSchedule": {
                "Cancun": {
                    "target": "0x03",
                    "max": "0x06",
                    "baseFeeUpdateFraction": "0x32f0ed"
                },
                "Prague": {
                    "target": "0x06",
                    "max": "0x09",
                    "baseFeeUpdateFraction": "0x4c6964"
                }
            },
            "chainid": "0x01"
        },
        "_info": {
            "hash": "0x7e854ecbec7f5a50422a736222e02bb88c72270ad3414bc546d234ff55c8fb48",
            "comment": "`execution-spec-tests` generated test",
            "filling-transition-tool": "ethereum-spec-evm-resolver 0.0.5",
            "description": "No description available - add a docstring to the python test class or function.",
            "url": "",
            "fixture-format": "state_test",
            "eels-resolution": {
                "git-url": "https://github.com/marioevz/execution-specs.git",
                "branch": "forks/bpo1",
                "commit": "3387e5f4aedfe99becfdc39b444d6371e25e0924"
            }
        }
    }
}