{
    "tests/static/state_tests/stRandom2/randomStatetest544Filler.json::randomStatetest544[fork_Cancun-state_test-]": {
        "env": {
            "currentCoinbase": "0x39ae26e5ba441f14039eed6c0808154441aff5e6",
            "currentGasLimit": "0x7fffffffffffffff",
            "currentNumber": "0x01",
            "currentTimestamp": "0x03e8",
            "currentRandom": "0x0000000000000000000000000000000000000000000000000000000000020000",
            "currentDifficulty": "0x00",
            "currentBaseFee": "0x0a",
            "currentExcessBlobGas": "0x00"
        },
        "pre": {
            "0xeddb0db1e310783f7ef54bc200a2c97ffa645b9a": {
                "nonce": "0x00",
                "balance": "0x0de0b6b3a7640000",
                "code": "0x",
                "storage": {}
            },
            "0x39ae26e5ba441f14039eed6c0808154441aff5e6": {
                "nonce": "0x00",
                "balance": "0x2e",
                "code": "0x6000355415600957005b60203560003555",
                "storage": {}
            },
            "0x39ae26e5ba441f14039eed6c0808154441aff6e6": {
                "nonce": "0x00",
                "balance": "0x00",
                "code": "0x7f000000000000000000000000000000000000000000000000000000000000c3503b7ffffffffffffffffffffffffffffffffffffffffffffffffffffffffffffffffe7f000000000000000000000000ffffffffffffffffffffffffffffffffffffffff7fffffffffffffffffffffffffffffffffffffffffffffffffffffffffffffffff097f000000000000000000000000000000000000000000000000000000000000000055",
                "storage": {}
            }
        },
        "transaction": {
            "nonce": "0x00",
            "gasPrice": "0x0a",
            "gasLimit": [
                "0x0186a0"
            ],
            "to": "0x39ae26e5ba441f14039eed6c0808154441aff6e6",
            "value": [
                "0x505c017e"
            ],
            "data": [
                "0x7f000000000000000000000000000000000000000000000000000000000000c3503b7ffffffffffffffffffffffffffffffffffffffffffffffffffffffffffffffffe7f000000000000000000000000ffffffffffffffffffffffffffffffffffffffff7fffffffffffffffffffffffffffffffffffffffffffffffffffffffffffffffff097f0000000000000000000000000000000000000000000000000000000000000000"
            ],
            "sender": "0xeddb0db1e310783f7ef54bc200a2c97ffa645b9a",
            "secretKey": "0xb24051563544b73f589d3e3339ae26e5ba441f14039eed6c0808154441aff5e6"
        },
        "post": {
            "Cancun": [
                {
                    "hash": "0x0f9675738eb7ba18615ee166c4b65f398181eae3a81c817c832b896dc30c27ba",
                    "logs": "0x1dcc4de8dec75d7aab85b567b6ccd41ad312451b948a7413f0a142fd40d49347",
                    "txbytes": "0xf9010c800a830186a09439ae26e5ba441f14039eed6c0808154441aff6e684505c017eb8a77f000000000000000000000000000000000000000000000000000000000000c3503b7ffffffffffffffffffffffffffffffffffffffffffffffffffffffffffffffffe7f000000000000000000000000ffffffffffffffffffffffffffffffffffffffff7fffffffffffffffffffffffffffffffffffffffffffffffffffffffffffffffff097f000000000000000000000000000000000000000000000000000000000000000025a02e6163c2781ee383992c75a8fbbe8a72a4ab43dd24d90460cd3a571701e0273ca035f198c3af519f5bd0c5fcb9b66a96bc4c0d0e1ccefd082bd81f396df59b1591",
                    "indexes": {
                        "data": 0,
                        "gas": 0,
                        "value": 0
                    },
                    "state": {
                        "0xeddb0db1e310783f7ef54bc200a2c97ffa645b9a": {
                            "nonce": "0x01",
                            "balance": "0x0de0b6b35700bec4",
                            "code": "0x",
                            "storage": {}
                        },
                        "0x39ae26e5ba441f14039eed6c0808154441aff5e6": {
                            "nonce": "0x00",
                            "balance": "0x2e",
                            "code": "0x6000355415600957005b60203560003555",
                            "storage": {}
                        },
                        "0x39ae26e5ba441f14039eed6c0808154441aff6e6": {
                            "nonce": "0x00",
                            "balance": "0x505c017e",
                            "code": "0x7f000000000000000000000000000000000000000000000000000000000000c3503b7ffffffffffffffffffffffffffffffffffffffffffffffffffffffffffffffffe7f000000000000000000000000ffffffffffffffffffffffffffffffffffffffff7fffffffffffffffffffffffffffffffffffffffffffffffffffffffffffffffff097f000000000000000000000000000000000000000000000000000000000000000055",
                            "storage": {
                                "0x00": "0xffffffffffffffffffffffffffffffffffffffff"
                            }
                        }
                    }
                }
            ]
        },
        "config": {
            "blobSchedule": {
                "Cancun": {
                    "target": "0x03",
                    "max": "0x06",
                    "baseFeeUpdateFraction": "0x32f0ed"
                }
            },
            "chainid": "0x01"
        },
        "_info": {
            "hash": "0xf747f6f78923459e995ea689dbd9c35e5f9513d1a1088360da15b45bbb4afb92",
            "comment": "`execution-spec-tests` generated test",
            "filling-transition-tool": "ethereum-spec-evm-resolver 0.0.5",
            "description": "No description available - add a docstring to the python test class or function.",
            "url": "",
            "fixture-format": "state_test",
            "eels-resolution": {
                "git-url": "https://github.com/marioevz/execution-specs.git",
                "branch": "forks/bpo1",
                "commit": "3387e5f4aedfe99becfdc39b444d6371e25e0924"
            }
        }
    },
    "tests/static/state_tests/stRandom2/randomStatetest544Filler.json::randomStatetest544[fork_Osaka-state_test-]": {
        "env": {
            "currentCoinbase": "0x39ae26e5ba441f14039eed6c0808154441aff5e6",
            "currentGasLimit": "0x7fffffffffffffff",
            "currentNumber": "0x01",
            "currentTimestamp": "0x03e8",
            "currentRandom": "0x0000000000000000000000000000000000000000000000000000000000020000",
            "currentDifficulty": "0x00",
            "currentBaseFee": "0x0a",
            "currentExcessBlobGas": "0x00"
        },
        "pre": {
            "0xeddb0db1e310783f7ef54bc200a2c97ffa645b9a": {
                "nonce": "0x00",
                "balance": "0x0de0b6b3a7640000",
                "code": "0x",
                "storage": {}
            },
            "0x39ae26e5ba441f14039eed6c0808154441aff5e6": {
                "nonce": "0x00",
                "balance": "0x2e",
                "code": "0x6000355415600957005b60203560003555",
                "storage": {}
            },
            "0x39ae26e5ba441f14039eed6c0808154441aff6e6": {
                "nonce": "0x00",
                "balance": "0x00",
                "code": "0x7f000000000000000000000000000000000000000000000000000000000000c3503b7ffffffffffffffffffffffffffffffffffffffffffffffffffffffffffffffffe7f000000000000000000000000ffffffffffffffffffffffffffffffffffffffff7fffffffffffffffffffffffffffffffffffffffffffffffffffffffffffffffff097f000000000000000000000000000000000000000000000000000000000000000055",
                "storage": {}
            }
        },
        "transaction": {
            "nonce": "0x00",
            "gasPrice": "0x0a",
            "gasLimit": [
                "0x0186a0"
            ],
            "to": "0x39ae26e5ba441f14039eed6c0808154441aff6e6",
            "value": [
                "0x505c017e"
            ],
            "data": [
                "0x7f000000000000000000000000000000000000000000000000000000000000c3503b7ffffffffffffffffffffffffffffffffffffffffffffffffffffffffffffffffe7f000000000000000000000000ffffffffffffffffffffffffffffffffffffffff7fffffffffffffffffffffffffffffffffffffffffffffffffffffffffffffffff097f0000000000000000000000000000000000000000000000000000000000000000"
            ],
            "sender": "0xeddb0db1e310783f7ef54bc200a2c97ffa645b9a",
            "secretKey": "0xb24051563544b73f589d3e3339ae26e5ba441f14039eed6c0808154441aff5e6"
        },
        "post": {
            "Osaka": [
                {
                    "hash": "0x0f9675738eb7ba18615ee166c4b65f398181eae3a81c817c832b896dc30c27ba",
                    "logs": "0x1dcc4de8dec75d7aab85b567b6ccd41ad312451b948a7413f0a142fd40d49347",
                    "txbytes": "0xf9010c800a830186a09439ae26e5ba441f14039eed6c0808154441aff6e684505c017eb8a77f000000000000000000000000000000000000000000000000000000000000c3503b7ffffffffffffffffffffffffffffffffffffffffffffffffffffffffffffffffe7f000000000000000000000000ffffffffffffffffffffffffffffffffffffffff7fffffffffffffffffffffffffffffffffffffffffffffffffffffffffffffffff097f000000000000000000000000000000000000000000000000000000000000000025a02e6163c2781ee383992c75a8fbbe8a72a4ab43dd24d90460cd3a571701e0273ca035f198c3af519f5bd0c5fcb9b66a96bc4c0d0e1ccefd082bd81f396df59b1591",
                    "indexes": {
                        "data": 0,
                        "gas": 0,
                        "value": 0
                    },
                    "state": {
                        "0xeddb0db1e310783f7ef54bc200a2c97ffa645b9a": {
                            "nonce": "0x01",
                            "balance": "0x0de0b6b35700bec4",
                            "code": "0x",
                            "storage": {}
                        },
                        "0x39ae26e5ba441f14039eed6c0808154441aff5e6": {
                            "nonce": "0x00",
                            "balance": "0x2e",
                            "code": "0x6000355415600957005b60203560003555",
                            "storage": {}
                        },
                        "0x39ae26e5ba441f14039eed6c0808154441aff6e6": {
                            "nonce": "0x00",
                            "balance": "0x505c017e",
                            "code": "0x7f000000000000000000000000000000000000000000000000000000000000c3503b7ffffffffffffffffffffffffffffffffffffffffffffffffffffffffffffffffe7f000000000000000000000000ffffffffffffffffffffffffffffffffffffffff7fffffffffffffffffffffffffffffffffffffffffffffffffffffffffffffffff097f000000000000000000000000000000000000000000000000000000000000000055",
                            "storage": {
                                "0x00": "0xffffffffffffffffffffffffffffffffffffffff"
                            }
                        }
                    }
                }
            ]
        },
        "config": {
            "blobSchedule": {
                "Cancun": {
                    "target": "0x03",
                    "max": "0x06",
                    "baseFeeUpdateFraction": "0x32f0ed"
                },
                "Prague": {
                    "target": "0x06",
                    "max": "0x09",
                    "baseFeeUpdateFraction": "0x4c6964"
                },
                "Osaka": {
                    "target": "0x06",
                    "max": "0x09",
                    "baseFeeUpdateFraction": "0x4c6964"
                }
            },
            "chainid": "0x01"
        },
        "_info": {
            "hash": "0xaf49dbb13afab99e8328a5786f2ed435073ebe26427970f5a1d964957db48d48",
            "comment": "`execution-spec-tests` generated test",
            "filling-transition-tool": "ethereum-spec-evm-resolver 0.0.5",
            "description": "No description available - add a docstring to the python test class or function.",
            "url": "",
            "fixture-format": "state_test",
            "eels-resolution": {
                "git-url": "https://github.com/marioevz/execution-specs.git",
                "branch": "forks/bpo1",
                "commit": "3387e5f4aedfe99becfdc39b444d6371e25e0924"
            }
        }
    },
    "tests/static/state_tests/stRandom2/randomStatetest544Filler.json::randomStatetest544[fork_Prague-state_test-]": {
        "env": {
            "currentCoinbase": "0x39ae26e5ba441f14039eed6c0808154441aff5e6",
            "currentGasLimit": "0x7fffffffffffffff",
            "currentNumber": "0x01",
            "currentTimestamp": "0x03e8",
            "currentRandom": "0x0000000000000000000000000000000000000000000000000000000000020000",
            "currentDifficulty": "0x00",
            "currentBaseFee": "0x0a",
            "currentExcessBlobGas": "0x00"
        },
        "pre": {
            "0xeddb0db1e310783f7ef54bc200a2c97ffa645b9a": {
                "nonce": "0x00",
                "balance": "0x0de0b6b3a7640000",
                "code": "0x",
                "storage": {}
            },
            "0x39ae26e5ba441f14039eed6c0808154441aff5e6": {
                "nonce": "0x00",
                "balance": "0x2e",
                "code": "0x6000355415600957005b60203560003555",
                "storage": {}
            },
            "0x39ae26e5ba441f14039eed6c0808154441aff6e6": {
                "nonce": "0x00",
                "balance": "0x00",
                "code": "0x7f000000000000000000000000000000000000000000000000000000000000c3503b7ffffffffffffffffffffffffffffffffffffffffffffffffffffffffffffffffe7f000000000000000000000000ffffffffffffffffffffffffffffffffffffffff7fffffffffffffffffffffffffffffffffffffffffffffffffffffffffffffffff097f000000000000000000000000000000000000000000000000000000000000000055",
                "storage": {}
            }
        },
        "transaction": {
            "nonce": "0x00",
            "gasPrice": "0x0a",
            "gasLimit": [
                "0x0186a0"
            ],
            "to": "0x39ae26e5ba441f14039eed6c0808154441aff6e6",
            "value": [
                "0x505c017e"
            ],
            "data": [
                "0x7f000000000000000000000000000000000000000000000000000000000000c3503b7ffffffffffffffffffffffffffffffffffffffffffffffffffffffffffffffffe7f000000000000000000000000ffffffffffffffffffffffffffffffffffffffff7fffffffffffffffffffffffffffffffffffffffffffffffffffffffffffffffff097f0000000000000000000000000000000000000000000000000000000000000000"
            ],
            "sender": "0xeddb0db1e310783f7ef54bc200a2c97ffa645b9a",
            "secretKey": "0xb24051563544b73f589d3e3339ae26e5ba441f14039eed6c0808154441aff5e6"
        },
        "post": {
            "Prague": [
                {
                    "hash": "0x0f9675738eb7ba18615ee166c4b65f398181eae3a81c817c832b896dc30c27ba",
                    "logs": "0x1dcc4de8dec75d7aab85b567b6ccd41ad312451b948a7413f0a142fd40d49347",
                    "txbytes": "0xf9010c800a830186a09439ae26e5ba441f14039eed6c0808154441aff6e684505c017eb8a77f000000000000000000000000000000000000000000000000000000000000c3503b7ffffffffffffffffffffffffffffffffffffffffffffffffffffffffffffffffe7f000000000000000000000000ffffffffffffffffffffffffffffffffffffffff7fffffffffffffffffffffffffffffffffffffffffffffffffffffffffffffffff097f000000000000000000000000000000000000000000000000000000000000000025a02e6163c2781ee383992c75a8fbbe8a72a4ab43dd24d90460cd3a571701e0273ca035f198c3af519f5bd0c5fcb9b66a96bc4c0d0e1ccefd082bd81f396df59b1591",
                    "indexes": {
                        "data": 0,
                        "gas": 0,
                        "value": 0
                    },
                    "state": {
                        "0xeddb0db1e310783f7ef54bc200a2c97ffa645b9a": {
                            "nonce": "0x01",
                            "balance": "0x0de0b6b35700bec4",
                            "code": "0x",
                            "storage": {}
                        },
                        "0x39ae26e5ba441f14039eed6c0808154441aff5e6": {
                            "nonce": "0x00",
                            "balance": "0x2e",
                            "code": "0x6000355415600957005b60203560003555",
                            "storage": {}
                        },
                        "0x39ae26e5ba441f14039eed6c0808154441aff6e6": {
                            "nonce": "0x00",
                            "balance": "0x505c017e",
                            "code": "0x7f000000000000000000000000000000000000000000000000000000000000c3503b7ffffffffffffffffffffffffffffffffffffffffffffffffffffffffffffffffe7f000000000000000000000000ffffffffffffffffffffffffffffffffffffffff7fffffffffffffffffffffffffffffffffffffffffffffffffffffffffffffffff097f000000000000000000000000000000000000000000000000000000000000000055",
                            "storage": {
                                "0x00": "0xffffffffffffffffffffffffffffffffffffffff"
                            }
                        }
                    }
                }
            ]
        },
        "config": {
            "blobSchedule": {
                "Cancun": {
                    "target": "0x03",
                    "max": "0x06",
                    "baseFeeUpdateFraction": "0x32f0ed"
                },
                "Prague": {
                    "target": "0x06",
                    "max": "0x09",
                    "baseFeeUpdateFraction": "0x4c6964"
                }
            },
            "chainid": "0x01"
        },
        "_info": {
            "hash": "0x6fbfda20fea3159c4525d8e031ce6d5ce35c0d48c542374527d958f143785e6b",
            "comment": "`execution-spec-tests` generated test",
            "filling-transition-tool": "ethereum-spec-evm-resolver 0.0.5",
            "description": "No description available - add a docstring to the python test class or function.",
            "url": "",
            "fixture-format": "state_test",
            "eels-resolution": {
                "git-url": "https://github.com/marioevz/execution-specs.git",
                "branch": "forks/bpo1",
                "commit": "3387e5f4aedfe99becfdc39b444d6371e25e0924"
            }
        }
    }
}