{
    "tests/static/state_tests/stRandom2/randomStatetest596Filler.json::randomStatetest596[fork_Cancun-state_test-]": {
        "env": {
            "currentCoinbase": "0x7a3c99a92e6ecf4b21781f40d1a041608abc7e13",
            "currentGasLimit": "0x7fffffffffffffff",
            "currentNumber": "0x01",
            "currentTimestamp": "0x03e8",
            "currentRandom": "0x0000000000000000000000000000000000000000000000000000000000020000",
            "currentDifficulty": "0x00",
            "currentBaseFee": "0x0a",
            "currentExcessBlobGas": "0x00"
        },
        "pre": {
            "0x0bcfe5f0e37f31cfeb15f0e475f8e0649fe80581": {
                "nonce": "0x00",
                "balance": "0x0de0b6b3a7640000",
                "code": "0x",
                "storage": {}
            },
            "0x7a3c99a92e6ecf4b21781f40d1a041608abc7e13": {
                "nonce": "0x00",
                "balance": "0x2e",
                "code": "0x6000355415600957005b60203560003555",
                "storage": {}
            },
            "0x7a3c99a92e6ecf4b21781f40d1a041608abc7f13": {
                "nonce": "0x00",
                "balance": "0x00",
                "code": "0x7f00000000000000000000000100000000000000000000000000000000000000007f000000000000000000000000ffffffffffffffffffffffffffffffffffffffff7f0000000000000000000000000000000000000000000000000000000000000001317f00000000000000000000000100000000000000000000000000000000000000007f00000000000000000000000100000000000000000000000000000000000000007f000000000000000000000000ffffffffffffffffffffffffffffffffffffffff7f00000000000000000000000000000000000000000000000000000000000000006f7066a3507f6e0906539456383065205560005155",
                "storage": {}
            }
        },
        "transaction": {
            "nonce": "0x00",
            "gasPrice": "0x0a",
            "gasLimit": [
                "0x0186a0"
            ],
            "to": "0x7a3c99a92e6ecf4b21781f40d1a041608abc7f13",
            "value": [
                "0x2d99f481"
            ],
            "data": [
                "0x7f00000000000000000000000100000000000000000000000000000000000000007f000000000000000000000000ffffffffffffffffffffffffffffffffffffffff7f0000000000000000000000000000000000000000000000000000000000000001317f00000000000000000000000100000000000000000000000000000000000000007f00000000000000000000000100000000000000000000000000000000000000007f000000000000000000000000ffffffffffffffffffffffffffffffffffffffff7f00000000000000000000000000000000000000000000000000000000000000006f7066a3507f6e090653945638306520"
            ],
            "sender": "0x0bcfe5f0e37f31cfeb15f0e475f8e0649fe80581",
            "secretKey": "0x4fe8f881a3da6a90f2131ee17a3c99a92e6ecf4b21781f40d1a041608abc7e13"
        },
        "post": {
            "Cancun": [
                {
                    "hash": "0x0342e67f22d3e0afba1da69a7314567b0aa56df6b62883e7294e55ebb4e4b9fa",
                    "logs": "0x1dcc4de8dec75d7aab85b567b6ccd41ad312451b948a7413f0a142fd40d49347",
                    "txbytes": "0xf9015d800a830186a0947a3c99a92e6ecf4b21781f40d1a041608abc7f13842d99f481b8f87f00000000000000000000000100000000000000000000000000000000000000007f000000000000000000000000ffffffffffffffffffffffffffffffffffffffff7f0000000000000000000000000000000000000000000000000000000000000001317f00000000000000000000000100000000000000000000000000000000000000007f00000000000000000000000100000000000000000000000000000000000000007f000000000000000000000000ffffffffffffffffffffffffffffffffffffffff7f00000000000000000000000000000000000000000000000000000000000000006f7066a3507f6e09065394563830652025a0a75baaf43a2e559f5a7f460f572d9e2aa6e65689f717566dfe3a7f4a9ab189a4a00ddf467f31724c75523a4051733de1f67dc3de81d15af4e7c962348d37f6d875",
                    "indexes": {
                        "data": 0,
                        "gas": 0,
                        "value": 0
                    },
                    "state": {
                        "0x0bcfe5f0e37f31cfeb15f0e475f8e0649fe80581": {
                            "nonce": "0x01",
                            "balance": "0x0de0b6b379c32c15",
                            "code": "0x",
                            "storage": {}
                        },
                        "0x7a3c99a92e6ecf4b21781f40d1a041608abc7e13": {
                            "nonce": "0x00",
                            "balance": "0x2e",
                            "code": "0x6000355415600957005b60203560003555",
                            "storage": {}
                        },
                        "0x7a3c99a92e6ecf4b21781f40d1a041608abc7f13": {
                            "nonce": "0x00",
                            "balance": "0x2d99f481",
                            "code": "0x7f00000000000000000000000100000000000000000000000000000000000000007f000000000000000000000000ffffffffffffffffffffffffffffffffffffffff7f0000000000000000000000000000000000000000000000000000000000000001317f00000000000000000000000100000000000000000000000000000000000000007f00000000000000000000000100000000000000000000000000000000000000007f000000000000000000000000ffffffffffffffffffffffffffffffffffffffff7f00000000000000000000000000000000000000000000000000000000000000006f7066a3507f6e0906539456383065205560005155",
                            "storage": {
                                "0x00": "0x7066a3507f6e09065394563830652055"
                            }
                        }
                    }
                }
            ]
        },
        "config": {
            "blobSchedule": {
                "Cancun": {
                    "target": "0x03",
                    "max": "0x06",
                    "baseFeeUpdateFraction": "0x32f0ed"
                }
            },
            "chainid": "0x01"
        },
        "_info": {
            "hash": "0x0d963ffbb8450583daf77bd4b9db6540720c97d5105b6113d855e828ad585c64",
            "comment": "`execution-spec-tests` generated test",
            "filling-transition-tool": "ethereum-spec-evm-resolver 0.0.5",
            "description": "No description available - add a docstring to the python test class or function.",
            "url": "",
            "fixture-format": "state_test",
            "eels-resolution": {
                "git-url": "https://github.com/ethereum/execution-specs.git",
                "branch": "forks/bpos",
                "commit": "7aacb2c54111391af5e98c505d5010b5698a770f"
            }
        }
    },
    "tests/static/state_tests/stRandom2/randomStatetest596Filler.json::randomStatetest596[fork_Osaka-state_test-]": {
        "env": {
            "currentCoinbase": "0x7a3c99a92e6ecf4b21781f40d1a041608abc7e13",
            "currentGasLimit": "0x7fffffffffffffff",
            "currentNumber": "0x01",
            "currentTimestamp": "0x03e8",
            "currentRandom": "0x0000000000000000000000000000000000000000000000000000000000020000",
            "currentDifficulty": "0x00",
            "currentBaseFee": "0x0a",
            "currentExcessBlobGas": "0x00"
        },
        "pre": {
            "0x0bcfe5f0e37f31cfeb15f0e475f8e0649fe80581": {
                "nonce": "0x00",
                "balance": "0x0de0b6b3a7640000",
                "code": "0x",
                "storage": {}
            },
            "0x7a3c99a92e6ecf4b21781f40d1a041608abc7e13": {
                "nonce": "0x00",
                "balance": "0x2e",
                "code": "0x6000355415600957005b60203560003555",
                "storage": {}
            },
            "0x7a3c99a92e6ecf4b21781f40d1a041608abc7f13": {
                "nonce": "0x00",
                "balance": "0x00",
                "code": "0x7f00000000000000000000000100000000000000000000000000000000000000007f000000000000000000000000ffffffffffffffffffffffffffffffffffffffff7f0000000000000000000000000000000000000000000000000000000000000001317f00000000000000000000000100000000000000000000000000000000000000007f00000000000000000000000100000000000000000000000000000000000000007f000000000000000000000000ffffffffffffffffffffffffffffffffffffffff7f00000000000000000000000000000000000000000000000000000000000000006f7066a3507f6e0906539456383065205560005155",
                "storage": {}
            }
        },
        "transaction": {
            "nonce": "0x00",
            "gasPrice": "0x0a",
            "gasLimit": [
                "0x0186a0"
            ],
            "to": "0x7a3c99a92e6ecf4b21781f40d1a041608abc7f13",
            "value": [
                "0x2d99f481"
            ],
            "data": [
                "0x7f00000000000000000000000100000000000000000000000000000000000000007f000000000000000000000000ffffffffffffffffffffffffffffffffffffffff7f0000000000000000000000000000000000000000000000000000000000000001317f00000000000000000000000100000000000000000000000000000000000000007f00000000000000000000000100000000000000000000000000000000000000007f000000000000000000000000ffffffffffffffffffffffffffffffffffffffff7f00000000000000000000000000000000000000000000000000000000000000006f7066a3507f6e090653945638306520"
            ],
            "sender": "0x0bcfe5f0e37f31cfeb15f0e475f8e0649fe80581",
            "secretKey": "0x4fe8f881a3da6a90f2131ee17a3c99a92e6ecf4b21781f40d1a041608abc7e13"
        },
        "post": {
            "Osaka": [
                {
                    "hash": "0x0342e67f22d3e0afba1da69a7314567b0aa56df6b62883e7294e55ebb4e4b9fa",
                    "logs": "0x1dcc4de8dec75d7aab85b567b6ccd41ad312451b948a7413f0a142fd40d49347",
                    "txbytes": "0xf9015d800a830186a0947a3c99a92e6ecf4b21781f40d1a041608abc7f13842d99f481b8f87f00000000000000000000000100000000000000000000000000000000000000007f000000000000000000000000ffffffffffffffffffffffffffffffffffffffff7f0000000000000000000000000000000000000000000000000000000000000001317f00000000000000000000000100000000000000000000000000000000000000007f00000000000000000000000100000000000000000000000000000000000000007f000000000000000000000000ffffffffffffffffffffffffffffffffffffffff7f00000000000000000000000000000000000000000000000000000000000000006f7066a3507f6e09065394563830652025a0a75baaf43a2e559f5a7f460f572d9e2aa6e65689f717566dfe3a7f4a9ab189a4a00ddf467f31724c75523a4051733de1f67dc3de81d15af4e7c962348d37f6d875",
                    "indexes": {
                        "data": 0,
                        "gas": 0,
                        "value": 0
                    },
                    "state": {
                        "0x0bcfe5f0e37f31cfeb15f0e475f8e0649fe80581": {
                            "nonce": "0x01",
                            "balance": "0x0de0b6b379c32c15",
                            "code": "0x",
                            "storage": {}
                        },
                        "0x7a3c99a92e6ecf4b21781f40d1a041608abc7e13": {
                            "nonce": "0x00",
                            "balance": "0x2e",
                            "code": "0x6000355415600957005b60203560003555",
                            "storage": {}
                        },
                        "0x7a3c99a92e6ecf4b21781f40d1a041608abc7f13": {
                            "nonce": "0x00",
                            "balance": "0x2d99f481",
                            "code": "0x7f00000000000000000000000100000000000000000000000000000000000000007f000000000000000000000000ffffffffffffffffffffffffffffffffffffffff7f0000000000000000000000000000000000000000000000000000000000000001317f00000000000000000000000100000000000000000000000000000000000000007f00000000000000000000000100000000000000000000000000000000000000007f000000000000000000000000ffffffffffffffffffffffffffffffffffffffff7f00000000000000000000000000000000000000000000000000000000000000006f7066a3507f6e0906539456383065205560005155",
                            "storage": {
                                "0x00": "0x7066a3507f6e09065394563830652055"
                            }
                        }
                    }
                }
            ]
        },
        "config": {
            "blobSchedule": {
                "Cancun": {
                    "target": "0x03",
                    "max": "0x06",
                    "baseFeeUpdateFraction": "0x32f0ed"
                },
                "Prague": {
                    "target": "0x06",
                    "max": "0x09",
                    "baseFeeUpdateFraction": "0x4c6964"
                },
                "Osaka": {
                    "target": "0x06",
                    "max": "0x09",
                    "baseFeeUpdateFraction": "0x4c6964"
                }
            },
            "chainid": "0x01"
        },
        "_info": {
            "hash": "0x85bf54ce9c81ee3d95c43cbfca06f9e206ca1463985b50aa6ab6914b51b092be",
            "comment": "`execution-spec-tests` generated test",
            "filling-transition-tool": "ethereum-spec-evm-resolver 0.0.5",
            "description": "No description available - add a docstring to the python test class or function.",
            "url": "",
            "fixture-format": "state_test",
            "eels-resolution": {
                "git-url": "https://github.com/ethereum/execution-specs.git",
                "branch": "forks/bpos",
                "commit": "7aacb2c54111391af5e98c505d5010b5698a770f"
            }
        }
    },
    "tests/static/state_tests/stRandom2/randomStatetest596Filler.json::randomStatetest596[fork_Prague-state_test-]": {
        "env": {
            "currentCoinbase": "0x7a3c99a92e6ecf4b21781f40d1a041608abc7e13",
            "currentGasLimit": "0x7fffffffffffffff",
            "currentNumber": "0x01",
            "currentTimestamp": "0x03e8",
            "currentRandom": "0x0000000000000000000000000000000000000000000000000000000000020000",
            "currentDifficulty": "0x00",
            "currentBaseFee": "0x0a",
            "currentExcessBlobGas": "0x00"
        },
        "pre": {
            "0x0bcfe5f0e37f31cfeb15f0e475f8e0649fe80581": {
                "nonce": "0x00",
                "balance": "0x0de0b6b3a7640000",
                "code": "0x",
                "storage": {}
            },
            "0x7a3c99a92e6ecf4b21781f40d1a041608abc7e13": {
                "nonce": "0x00",
                "balance": "0x2e",
                "code": "0x6000355415600957005b60203560003555",
                "storage": {}
            },
            "0x7a3c99a92e6ecf4b21781f40d1a041608abc7f13": {
                "nonce": "0x00",
                "balance": "0x00",
                "code": "0x7f00000000000000000000000100000000000000000000000000000000000000007f000000000000000000000000ffffffffffffffffffffffffffffffffffffffff7f0000000000000000000000000000000000000000000000000000000000000001317f00000000000000000000000100000000000000000000000000000000000000007f00000000000000000000000100000000000000000000000000000000000000007f000000000000000000000000ffffffffffffffffffffffffffffffffffffffff7f00000000000000000000000000000000000000000000000000000000000000006f7066a3507f6e0906539456383065205560005155",
                "storage": {}
            }
        },
        "transaction": {
            "nonce": "0x00",
            "gasPrice": "0x0a",
            "gasLimit": [
                "0x0186a0"
            ],
            "to": "0x7a3c99a92e6ecf4b21781f40d1a041608abc7f13",
            "value": [
                "0x2d99f481"
            ],
            "data": [
                "0x7f00000000000000000000000100000000000000000000000000000000000000007f000000000000000000000000ffffffffffffffffffffffffffffffffffffffff7f0000000000000000000000000000000000000000000000000000000000000001317f00000000000000000000000100000000000000000000000000000000000000007f00000000000000000000000100000000000000000000000000000000000000007f000000000000000000000000ffffffffffffffffffffffffffffffffffffffff7f00000000000000000000000000000000000000000000000000000000000000006f7066a3507f6e090653945638306520"
            ],
            "sender": "0x0bcfe5f0e37f31cfeb15f0e475f8e0649fe80581",
            "secretKey": "0x4fe8f881a3da6a90f2131ee17a3c99a92e6ecf4b21781f40d1a041608abc7e13"
        },
        "post": {
            "Prague": [
                {
                    "hash": "0x0342e67f22d3e0afba1da69a7314567b0aa56df6b62883e7294e55ebb4e4b9fa",
                    "logs": "0x1dcc4de8dec75d7aab85b567b6ccd41ad312451b948a7413f0a142fd40d49347",
                    "txbytes": "0xf9015d800a830186a0947a3c99a92e6ecf4b21781f40d1a041608abc7f13842d99f481b8f87f00000000000000000000000100000000000000000000000000000000000000007f000000000000000000000000ffffffffffffffffffffffffffffffffffffffff7f0000000000000000000000000000000000000000000000000000000000000001317f00000000000000000000000100000000000000000000000000000000000000007f00000000000000000000000100000000000000000000000000000000000000007f000000000000000000000000ffffffffffffffffffffffffffffffffffffffff7f00000000000000000000000000000000000000000000000000000000000000006f7066a3507f6e09065394563830652025a0a75baaf43a2e559f5a7f460f572d9e2aa6e65689f717566dfe3a7f4a9ab189a4a00ddf467f31724c75523a4051733de1f67dc3de81d15af4e7c962348d37f6d875",
                    "indexes": {
                        "data": 0,
                        "gas": 0,
                        "value": 0
                    },
                    "state": {
                        "0x0bcfe5f0e37f31cfeb15f0e475f8e0649fe80581": {
                            "nonce": "0x01",
                            "balance": "0x0de0b6b379c32c15",
                            "code": "0x",
                            "storage": {}
                        },
                        "0x7a3c99a92e6ecf4b21781f40d1a041608abc7e13": {
                            "nonce": "0x00",
                            "balance": "0x2e",
                            "code": "0x6000355415600957005b60203560003555",
                            "storage": {}
                        },
                        "0x7a3c99a92e6ecf4b21781f40d1a041608abc7f13": {
                            "nonce": "0x00",
                            "balance": "0x2d99f481",
                            "code": "0x7f00000000000000000000000100000000000000000000000000000000000000007f000000000000000000000000ffffffffffffffffffffffffffffffffffffffff7f0000000000000000000000000000000000000000000000000000000000000001317f00000000000000000000000100000000000000000000000000000000000000007f00000000000000000000000100000000000000000000000000000000000000007f000000000000000000000000ffffffffffffffffffffffffffffffffffffffff7f00000000000000000000000000000000000000000000000000000000000000006f7066a3507f6e0906539456383065205560005155",
                            "storage": {
                                "0x00": "0x7066a3507f6e09065394563830652055"
                            }
                        }
                    }
                }
            ]
        },
        "config": {
            "blobSchedule": {
                "Cancun": {
                    "target": "0x03",
                    "max": "0x06",
                    "baseFeeUpdateFraction": "0x32f0ed"
                },
                "Prague": {
                    "target": "0x06",
                    "max": "0x09",
                    "baseFeeUpdateFraction": "0x4c6964"
                }
            },
            "chainid": "0x01"
        },
        "_info": {
            "hash": "0x46d0a63cdc20c55a27cfe6faea7e395e0e9783b10436444fe55bfdc40aeee437",
            "comment": "`execution-spec-tests` generated test",
            "filling-transition-tool": "ethereum-spec-evm-resolver 0.0.5",
            "description": "No description available - add a docstring to the python test class or function.",
            "url": "",
            "fixture-format": "state_test",
            "eels-resolution": {
                "git-url": "https://github.com/ethereum/execution-specs.git",
                "branch": "forks/bpos",
                "commit": "7aacb2c54111391af5e98c505d5010b5698a770f"
            }
        }
    }
}