{
    "tests/static/state_tests/stRandom2/randomStatetest484Filler.json::randomStatetest484[fork_Cancun-state_test-]": {
        "env": {
            "currentCoinbase": "0x41c3ed73e84463d7f96ea90b0e838c3af3b43349",
            "currentGasLimit": "0x7fffffffffffffff",
            "currentNumber": "0x01",
            "currentTimestamp": "0x03e8",
            "currentRandom": "0x0000000000000000000000000000000000000000000000000000000000020000",
            "currentDifficulty": "0x00",
            "currentBaseFee": "0x0a",
            "currentExcessBlobGas": "0x00"
        },
        "pre": {
            "0xd7345e1352ec293e3589d2f7c631f77882cd2eba": {
                "nonce": "0x00",
                "balance": "0x0de0b6b3a7640000",
                "code": "0x",
                "storage": {}
            },
            "0x41c3ed73e84463d7f96ea90b0e838c3af3b43349": {
                "nonce": "0x00",
                "balance": "0x2e",
                "code": "0x6000355415600957005b60203560003555",
                "storage": {}
            },
            "0x41c3ed73e84463d7f96ea90b0e838c3af3b43449": {
                "nonce": "0x00",
                "balance": "0x00",
                "code": "0x7f000000000000000000000000ffffffffffffffffffffffffffffffffffffffff7f00000000000000000000000000000000000000000000000000000000000000007f000000000000000000000000ffffffffffffffffffffffffffffffffffffffff35427ffffffffffffffffffffffffffffffffffffffffffffffffffffffffffffffffe7f000000000000000000000000000000000000000000000000000000000000c3507f00000000000000000000000041c3ed73e84463d7f96ea90b0e838c3af3b43349595584a2558493a25b5a6a60005155",
                "storage": {}
            }
        },
        "transaction": {
            "nonce": "0x00",
            "gasPrice": "0x0a",
            "gasLimit": [
                "0x07a120"
            ],
            "to": "0x41c3ed73e84463d7f96ea90b0e838c3af3b43449",
            "value": [
                "0x1bbd5e60"
            ],
            "data": [
                "0x7f000000000000000000000000ffffffffffffffffffffffffffffffffffffffff7f00000000000000000000000000000000000000000000000000000000000000007f000000000000000000000000ffffffffffffffffffffffffffffffffffffffff35427ffffffffffffffffffffffffffffffffffffffffffffffffffffffffffffffffe7f000000000000000000000000000000000000000000000000000000000000c3507f00000000000000000000000041c3ed73e84463d7f96ea90b0e838c3af3b43349595584a2558493a25b5a6a"
            ],
            "sender": "0xd7345e1352ec293e3589d2f7c631f77882cd2eba",
            "secretKey": "0x6414038772d93060e9e72e2e41c3ed73e84463d7f96ea90b0e838c3af3b43349"
        },
        "post": {
            "Cancun": [
                {
                    "hash": "0xf7c478cdeed8bcc0c80c67df86957aebf696352bbc9ea5932867c3fa3bed95d9",
                    "logs": "0x1dcc4de8dec75d7aab85b567b6ccd41ad312451b948a7413f0a142fd40d49347",
                    "txbytes": "0xf90138800a8307a1209441c3ed73e84463d7f96ea90b0e838c3af3b43449841bbd5e60b8d37f000000000000000000000000ffffffffffffffffffffffffffffffffffffffff7f00000000000000000000000000000000000000000000000000000000000000007f000000000000000000000000ffffffffffffffffffffffffffffffffffffffff35427ffffffffffffffffffffffffffffffffffffffffffffffffffffffffffffffffe7f000000000000000000000000000000000000000000000000000000000000c3507f00000000000000000000000041c3ed73e84463d7f96ea90b0e838c3af3b43349595584a2558493a25b5a6a26a07181436d542f8b95a6bffed478c7f009b07c34b1acba8cf7679e59818dcd869ea04418f608a2819d421ef7a3fa1196e766561f08ef4ba1df87d8648958cd9c36e4",
                    "indexes": {
                        "data": 0,
                        "gas": 0,
                        "value": 0
                    },
                    "state": {
                        "0xd7345e1352ec293e3589d2f7c631f77882cd2eba": {
                            "nonce": "0x01",
                            "balance": "0x0de0b6b3a717b4c0",
                            "code": "0x",
                            "storage": {}
                        },
                        "0x41c3ed73e84463d7f96ea90b0e838c3af3b43349": {
                            "nonce": "0x00",
                            "balance": "0x2e",
                            "code": "0x6000355415600957005b60203560003555",
                            "storage": {}
                        },
                        "0x41c3ed73e84463d7f96ea90b0e838c3af3b43449": {
                            "nonce": "0x00",
                            "balance": "0x00",
                            "code": "0x7f000000000000000000000000ffffffffffffffffffffffffffffffffffffffff7f00000000000000000000000000000000000000000000000000000000000000007f000000000000000000000000ffffffffffffffffffffffffffffffffffffffff35427ffffffffffffffffffffffffffffffffffffffffffffffffffffffffffffffffe7f000000000000000000000000000000000000000000000000000000000000c3507f00000000000000000000000041c3ed73e84463d7f96ea90b0e838c3af3b43349595584a2558493a25b5a6a60005155",
                            "storage": {}
                        }
                    }
                }
            ]
        },
        "config": {
            "blobSchedule": {
                "Cancun": {
                    "target": "0x03",
                    "max": "0x06",
                    "baseFeeUpdateFraction": "0x32f0ed"
                }
            },
            "chainid": "0x01"
        },
        "_info": {
            "hash": "0x22f34e4a4db6a2f0440f35cfd983f7d9de70f45828857883c71d05393d02b43a",
            "comment": "`execution-spec-tests` generated test",
            "filling-transition-tool": "ethereum-spec-evm-resolver 0.0.5",
            "description": "No description available - add a docstring to the python test class or function.",
            "url": "",
            "fixture-format": "state_test",
            "eels-resolution": {
                "git-url": "https://github.com/ethereum/execution-specs.git",
                "branch": "forks/bpos",
                "commit": "7aacb2c54111391af5e98c505d5010b5698a770f"
            }
        }
    },
    "tests/static/state_tests/stRandom2/randomStatetest484Filler.json::randomStatetest484[fork_Osaka-state_test-]": {
        "env": {
            "currentCoinbase": "0x41c3ed73e84463d7f96ea90b0e838c3af3b43349",
            "currentGasLimit": "0x7fffffffffffffff",
            "currentNumber": "0x01",
            "currentTimestamp": "0x03e8",
            "currentRandom": "0x0000000000000000000000000000000000000000000000000000000000020000",
            "currentDifficulty": "0x00",
            "currentBaseFee": "0x0a",
            "currentExcessBlobGas": "0x00"
        },
        "pre": {
            "0xd7345e1352ec293e3589d2f7c631f77882cd2eba": {
                "nonce": "0x00",
                "balance": "0x0de0b6b3a7640000",
                "code": "0x",
                "storage": {}
            },
            "0x41c3ed73e84463d7f96ea90b0e838c3af3b43349": {
                "nonce": "0x00",
                "balance": "0x2e",
                "code": "0x6000355415600957005b60203560003555",
                "storage": {}
            },
            "0x41c3ed73e84463d7f96ea90b0e838c3af3b43449": {
                "nonce": "0x00",
                "balance": "0x00",
                "code": "0x7f000000000000000000000000ffffffffffffffffffffffffffffffffffffffff7f00000000000000000000000000000000000000000000000000000000000000007f000000000000000000000000ffffffffffffffffffffffffffffffffffffffff35427ffffffffffffffffffffffffffffffffffffffffffffffffffffffffffffffffe7f000000000000000000000000000000000000000000000000000000000000c3507f00000000000000000000000041c3ed73e84463d7f96ea90b0e838c3af3b43349595584a2558493a25b5a6a60005155",
                "storage": {}
            }
        },
        "transaction": {
            "nonce": "0x00",
            "gasPrice": "0x0a",
            "gasLimit": [
                "0x07a120"
            ],
            "to": "0x41c3ed73e84463d7f96ea90b0e838c3af3b43449",
            "value": [
                "0x1bbd5e60"
            ],
            "data": [
                "0x7f000000000000000000000000ffffffffffffffffffffffffffffffffffffffff7f00000000000000000000000000000000000000000000000000000000000000007f000000000000000000000000ffffffffffffffffffffffffffffffffffffffff35427ffffffffffffffffffffffffffffffffffffffffffffffffffffffffffffffffe7f000000000000000000000000000000000000000000000000000000000000c3507f00000000000000000000000041c3ed73e84463d7f96ea90b0e838c3af3b43349595584a2558493a25b5a6a"
            ],
            "sender": "0xd7345e1352ec293e3589d2f7c631f77882cd2eba",
            "secretKey": "0x6414038772d93060e9e72e2e41c3ed73e84463d7f96ea90b0e838c3af3b43349"
        },
        "post": {
            "Osaka": [
                {
                    "hash": "0xf7c478cdeed8bcc0c80c67df86957aebf696352bbc9ea5932867c3fa3bed95d9",
                    "logs": "0x1dcc4de8dec75d7aab85b567b6ccd41ad312451b948a7413f0a142fd40d49347",
                    "txbytes": "0xf90138800a8307a1209441c3ed73e84463d7f96ea90b0e838c3af3b43449841bbd5e60b8d37f000000000000000000000000ffffffffffffffffffffffffffffffffffffffff7f00000000000000000000000000000000000000000000000000000000000000007f000000000000000000000000ffffffffffffffffffffffffffffffffffffffff35427ffffffffffffffffffffffffffffffffffffffffffffffffffffffffffffffffe7f000000000000000000000000000000000000000000000000000000000000c3507f00000000000000000000000041c3ed73e84463d7f96ea90b0e838c3af3b43349595584a2558493a25b5a6a26a07181436d542f8b95a6bffed478c7f009b07c34b1acba8cf7679e59818dcd869ea04418f608a2819d421ef7a3fa1196e766561f08ef4ba1df87d8648958cd9c36e4",
                    "indexes": {
                        "data": 0,
                        "gas": 0,
                        "value": 0
                    },
                    "state": {
                        "0xd7345e1352ec293e3589d2f7c631f77882cd2eba": {
                            "nonce": "0x01",
                            "balance": "0x0de0b6b3a717b4c0",
                            "code": "0x",
                            "storage": {}
                        },
                        "0x41c3ed73e84463d7f96ea90b0e838c3af3b43349": {
                            "nonce": "0x00",
                            "balance": "0x2e",
                            "code": "0x6000355415600957005b60203560003555",
                            "storage": {}
                        },
                        "0x41c3ed73e84463d7f96ea90b0e838c3af3b43449": {
                            "nonce": "0x00",
                            "balance": "0x00",
                            "code": "0x7f000000000000000000000000ffffffffffffffffffffffffffffffffffffffff7f00000000000000000000000000000000000000000000000000000000000000007f000000000000000000000000ffffffffffffffffffffffffffffffffffffffff35427ffffffffffffffffffffffffffffffffffffffffffffffffffffffffffffffffe7f000000000000000000000000000000000000000000000000000000000000c3507f00000000000000000000000041c3ed73e84463d7f96ea90b0e838c3af3b43349595584a2558493a25b5a6a60005155",
                            "storage": {}
                        }
                    }
                }
            ]
        },
        "config": {
            "blobSchedule": {
                "Cancun": {
                    "target": "0x03",
                    "max": "0x06",
                    "baseFeeUpdateFraction": "0x32f0ed"
                },
                "Prague": {
                    "target": "0x06",
                    "max": "0x09",
                    "baseFeeUpdateFraction": "0x4c6964"
                },
                "Osaka": {
                    "target": "0x06",
                    "max": "0x09",
                    "baseFeeUpdateFraction": "0x4c6964"
                }
            },
            "chainid": "0x01"
        },
        "_info": {
            "hash": "0xa2e1a3a9da239d0cfe6cefb05ea4d21f5aa965c8a943def96297471bc4014004",
            "comment": "`execution-spec-tests` generated test",
            "filling-transition-tool": "ethereum-spec-evm-resolver 0.0.5",
            "description": "No description available - add a docstring to the python test class or function.",
            "url": "",
            "fixture-format": "state_test",
            "eels-resolution": {
                "git-url": "https://github.com/ethereum/execution-specs.git",
                "branch": "forks/bpos",
                "commit": "7aacb2c54111391af5e98c505d5010b5698a770f"
            }
        }
    },
    "tests/static/state_tests/stRandom2/randomStatetest484Filler.json::randomStatetest484[fork_Prague-state_test-]": {
        "env": {
            "currentCoinbase": "0x41c3ed73e84463d7f96ea90b0e838c3af3b43349",
            "currentGasLimit": "0x7fffffffffffffff",
            "currentNumber": "0x01",
            "currentTimestamp": "0x03e8",
            "currentRandom": "0x0000000000000000000000000000000000000000000000000000000000020000",
            "currentDifficulty": "0x00",
            "currentBaseFee": "0x0a",
            "currentExcessBlobGas": "0x00"
        },
        "pre": {
            "0xd7345e1352ec293e3589d2f7c631f77882cd2eba": {
                "nonce": "0x00",
                "balance": "0x0de0b6b3a7640000",
                "code": "0x",
                "storage": {}
            },
            "0x41c3ed73e84463d7f96ea90b0e838c3af3b43349": {
                "nonce": "0x00",
                "balance": "0x2e",
                "code": "0x6000355415600957005b60203560003555",
                "storage": {}
            },
            "0x41c3ed73e84463d7f96ea90b0e838c3af3b43449": {
                "nonce": "0x00",
                "balance": "0x00",
                "code": "0x7f000000000000000000000000ffffffffffffffffffffffffffffffffffffffff7f00000000000000000000000000000000000000000000000000000000000000007f000000000000000000000000ffffffffffffffffffffffffffffffffffffffff35427ffffffffffffffffffffffffffffffffffffffffffffffffffffffffffffffffe7f000000000000000000000000000000000000000000000000000000000000c3507f00000000000000000000000041c3ed73e84463d7f96ea90b0e838c3af3b43349595584a2558493a25b5a6a60005155",
                "storage": {}
            }
        },
        "transaction": {
            "nonce": "0x00",
            "gasPrice": "0x0a",
            "gasLimit": [
                "0x07a120"
            ],
            "to": "0x41c3ed73e84463d7f96ea90b0e838c3af3b43449",
            "value": [
                "0x1bbd5e60"
            ],
            "data": [
                "0x7f000000000000000000000000ffffffffffffffffffffffffffffffffffffffff7f00000000000000000000000000000000000000000000000000000000000000007f000000000000000000000000ffffffffffffffffffffffffffffffffffffffff35427ffffffffffffffffffffffffffffffffffffffffffffffffffffffffffffffffe7f000000000000000000000000000000000000000000000000000000000000c3507f00000000000000000000000041c3ed73e84463d7f96ea90b0e838c3af3b43349595584a2558493a25b5a6a"
            ],
            "sender": "0xd7345e1352ec293e3589d2f7c631f77882cd2eba",
            "secretKey": "0x6414038772d93060e9e72e2e41c3ed73e84463d7f96ea90b0e838c3af3b43349"
        },
        "post": {
            "Prague": [
                {
                    "hash": "0xf7c478cdeed8bcc0c80c67df86957aebf696352bbc9ea5932867c3fa3bed95d9",
                    "logs": "0x1dcc4de8dec75d7aab85b567b6ccd41ad312451b948a7413f0a142fd40d49347",
                    "txbytes": "0xf90138800a8307a1209441c3ed73e84463d7f96ea90b0e838c3af3b43449841bbd5e60b8d37f000000000000000000000000ffffffffffffffffffffffffffffffffffffffff7f00000000000000000000000000000000000000000000000000000000000000007f000000000000000000000000ffffffffffffffffffffffffffffffffffffffff35427ffffffffffffffffffffffffffffffffffffffffffffffffffffffffffffffffe7f000000000000000000000000000000000000000000000000000000000000c3507f00000000000000000000000041c3ed73e84463d7f96ea90b0e838c3af3b43349595584a2558493a25b5a6a26a07181436d542f8b95a6bffed478c7f009b07c34b1acba8cf7679e59818dcd869ea04418f608a2819d421ef7a3fa1196e766561f08ef4ba1df87d8648958cd9c36e4",
                    "indexes": {
                        "data": 0,
                        "gas": 0,
                        "value": 0
                    },
                    "state": {
                        "0xd7345e1352ec293e3589d2f7c631f77882cd2eba": {
                            "nonce": "0x01",
                            "balance": "0x0de0b6b3a717b4c0",
                            "code": "0x",
                            "storage": {}
                        },
                        "0x41c3ed73e84463d7f96ea90b0e838c3af3b43349": {
                            "nonce": "0x00",
                            "balance": "0x2e",
                            "code": "0x6000355415600957005b60203560003555",
                            "storage": {}
                        },
                        "0x41c3ed73e84463d7f96ea90b0e838c3af3b43449": {
                            "nonce": "0x00",
                            "balance": "0x00",
                            "code": "0x7f000000000000000000000000ffffffffffffffffffffffffffffffffffffffff7f00000000000000000000000000000000000000000000000000000000000000007f000000000000000000000000ffffffffffffffffffffffffffffffffffffffff35427ffffffffffffffffffffffffffffffffffffffffffffffffffffffffffffffffe7f000000000000000000000000000000000000000000000000000000000000c3507f00000000000000000000000041c3ed73e84463d7f96ea90b0e838c3af3b43349595584a2558493a25b5a6a60005155",
                            "storage": {}
                        }
                    }
                }
            ]
        },
        "config": {
            "blobSchedule": {
                "Cancun": {
                    "target": "0x03",
                    "max": "0x06",
                    "baseFeeUpdateFraction": "0x32f0ed"
                },
                "Prague": {
                    "target": "0x06",
                    "max": "0x09",
                    "baseFeeUpdateFraction": "0x4c6964"
                }
            },
            "chainid": "0x01"
        },
        "_info": {
            "hash": "0x084706ff32fe2ee587c30d89768bb88a9155246e3f73637e0f54982537e0a224",
            "comment": "`execution-spec-tests` generated test",
            "filling-transition-tool": "ethereum-spec-evm-resolver 0.0.5",
            "description": "No description available - add a docstring to the python test class or function.",
            "url": "",
            "fixture-format": "state_test",
            "eels-resolution": {
                "git-url": "https://github.com/ethereum/execution-specs.git",
                "branch": "forks/bpos",
                "commit": "7aacb2c54111391af5e98c505d5010b5698a770f"
            }
        }
    }
}