{
    "tests/static/state_tests/stRandom2/randomStatetest636Filler.json::randomStatetest636[fork_Cancun-state_test-]": {
        "env": {
            "currentCoinbase": "0x871c1171b1db94bc8e74dcfdfb41dec44686e65b",
            "currentGasLimit": "0x7fffffffffffffff",
            "currentNumber": "0x01",
            "currentTimestamp": "0x03e8",
            "currentRandom": "0x0000000000000000000000000000000000000000000000000000000000020000",
            "currentDifficulty": "0x00",
            "currentBaseFee": "0x0a",
            "currentExcessBlobGas": "0x00"
        },
        "pre": {
            "0x55db506685989fb674c45b42da78e1b9a6f062c7": {
                "nonce": "0x00",
                "balance": "0x0de0b6b3a7640000",
                "code": "0x",
                "storage": {}
            },
            "0x871c1171b1db94bc8e74dcfdfb41dec44686e65b": {
                "nonce": "0x00",
                "balance": "0x2e",
                "code": "0x6000355415600957005b60203560003555",
                "storage": {}
            },
            "0x871c1171b1db94bc8e74dcfdfb41dec44686e75b": {
                "nonce": "0x00",
                "balance": "0x00",
                "code": "0x74619921c0750ac3268e7a6703ca2bf6c43308e6fc36607561af1ca16db843f7a2e05bfc2e46afc179930b7a8724a04f9f561bdc65bba0ad5797dde0a28d5e8aca56e1510b724f676a6d33dee473d74664561e49e3d86338c8dcf260f06cbfa6283966d2d0f2591f54088e6f36545c0d90fcdea10d5629629ffb1b16626c339f6490829f1b1675f0f2f62b0b7c9d3f070fafd53f99f90f31e19e81d3db688929213e34affc41116e6ae6f54ad5c2062b27a9fbec78a52f7a26c6347408631a6c0efcf33fe576953a4043e846b686471403f38a615a0a8e601d600a600e60146301019a5173871c1171b1db94bc8e74dcfdfb41dec44686e75b63314bc0fef1600c7eb69785d3593d3a8552018a4faba5b591975e8b8056ebc01f5ce5f5f7c04eca9062b458a835649be8fbaa906f3c4d8f92f8c27517f0addd45e050bfcf55792d8bf87c39d39ed9b1ef6c8c070d8da4a624ce548b37d03ae8107ca6da49be4adffc9f5ae896c52b936a18bed4bd9fcbae531274706e9e9b9030619a40714bb4b22e7bef8cf7b01551327188ee4bb6247118d0e95549a92f7dd9305484cc054e5f206d70d008699a85896061427b05ae2a7f16230f66ab4dd548e03b0972010f5afff39a4f9a90e55e91584e86629f3e8775f53da16fceedd834103a50dbe72a6634e4dbf374c70e6bd041628dc8b30de3c3d7aa0e7bb48df927c78ed30b286e249c2cbe79fb55956f492e413e771d0cd63f7357ab1e9a38026a4ba9278427812728699a2c747189",
                "storage": {}
            }
        },
        "transaction": {
            "nonce": "0x00",
            "gasPrice": "0x0a",
            "gasLimit": [
                "0x61826421"
            ],
            "to": "0x871c1171b1db94bc8e74dcfdfb41dec44686e75b",
            "value": [
                "0x74ff9009"
            ],
            "data": [
                "0x648ae7baf084600e60746edc292e4f932e5d92d41f0bef49fc6b696d03a44c705cb4daaf5160107d58356b0c4e1a7d81fb0b606143c7db58d8147776c02745b7de14b2c388e49568e963334e695b39de93766519c9912b2dccb22bb3bd486cdf043cbc5c0cd3b4a35f6addc01cb4ad9b448c0c60ff6c78c1acc568b086c8181a90b01f613e5e6116e776e8d170f52005efeb96d06594b7477815ea249e6143aaee6798a00d9dbba0552a73cd878ec8872e0e494df0325b92e8c7753a084c6b9763c56059eb608978797530a734a7ced61643b84aece9a39344fab3c6363d62631369ff8d931e17c50dcadb1f72256d2bcfd07e62b68627374ae05b8ff70a238f6b8717aebdaa6cd0696889d903742f20f313a8e4bcb5efae0edcbb74f41e2027dc90b56ee50a7c151872c3f01c0746579073c26c78e58ca65d93cd6c945401024b70fae5f6e17c1bc9636bd85c6c721b77f39c71e417a9bc43cf7288a2888f33b863c22e5e606ef703db601f52cf73b09b88fe1772d6693064e95ea20aa3da12c76fc929d6982f7ae98c71958c5fdd80f52a8d673027f0fa96116b85636464219d046962e9e728f947cc66e8a58061111b752dbc3bbd70bf3fa2e463969371f089c8226cb217fcf86fed7c5c87ada364a13ca107785a1e76d56edd7b1f02caac7915e522478f790322601868ed8a345ba615388b5d77d405d62f0abd72ed81f218f27c6ee6a6cde612b9c528d4107c25f6d842f8d91a37f4f098e3f552a5ce3c14d301fd1a0c7711f831c8c07197a419447c10662351b792bb34eef76c6f5d66414b182911d942896b1bb156c0ba37a9bfe4420bc17ddfe7be8daeabb37222d4ae081dd889cb787c9bf801b07e186f274a70549a04"
            ],
            "sender": "0x55db506685989fb674c45b42da78e1b9a6f062c7",
            "secretKey": "0xec29a998229235c49caa3c44871c1171b1db94bc8e74dcfdfb41dec44686e65b"
        },
        "post": {
            "Cancun": [
                {
                    "hash": "0x1d5b224add5f1027a73d3921ebac4a1cb21952be2e665694ae6cba2e4d15ac74",
                    "logs": "0xf4130db50287046b9328bb2bee5b215318cea6e368591d546f1c2766b957021e",
                    "txbytes": "0xf902dc800a846182642194871c1171b1db94bc8e74dcfdfb41dec44686e75b8474ff9009b90275648ae7baf084600e60746edc292e4f932e5d92d41f0bef49fc6b696d03a44c705cb4daaf5160107d58356b0c4e1a7d81fb0b606143c7db58d8147776c02745b7de14b2c388e49568e963334e695b39de93766519c9912b2dccb22bb3bd486cdf043cbc5c0cd3b4a35f6addc01cb4ad9b448c0c60ff6c78c1acc568b086c8181a90b01f613e5e6116e776e8d170f52005efeb96d06594b7477815ea249e6143aaee6798a00d9dbba0552a73cd878ec8872e0e494df0325b92e8c7753a084c6b9763c56059eb608978797530a734a7ced61643b84aece9a39344fab3c6363d62631369ff8d931e17c50dcadb1f72256d2bcfd07e62b68627374ae05b8ff70a238f6b8717aebdaa6cd0696889d903742f20f313a8e4bcb5efae0edcbb74f41e2027dc90b56ee50a7c151872c3f01c0746579073c26c78e58ca65d93cd6c945401024b70fae5f6e17c1bc9636bd85c6c721b77f39c71e417a9bc43cf7288a2888f33b863c22e5e606ef703db601f52cf73b09b88fe1772d6693064e95ea20aa3da12c76fc929d6982f7ae98c71958c5fdd80f52a8d673027f0fa96116b85636464219d046962e9e728f947cc66e8a58061111b752dbc3bbd70bf3fa2e463969371f089c8226cb217fcf86fed7c5c87ada364a13ca107785a1e76d56edd7b1f02caac7915e522478f790322601868ed8a345ba615388b5d77d405d62f0abd72ed81f218f27c6ee6a6cde612b9c528d4107c25f6d842f8d91a37f4f098e3f552a5ce3c14d301fd1a0c7711f831c8c07197a419447c10662351b792bb34eef76c6f5d66414b182911d942896b1bb156c0ba37a9bfe4420bc17ddfe7be8daeabb37222d4ae081dd889cb787c9bf801b07e186f274a70549a0425a0a65df9da68d0c6f569fada1dc3a1f2c2ee78a907acae23ac8e4e77108a4555fda0603f95f080fa1c191ece39b840577bac5d055c7d81105e56e2dd46ad16d3aa84",
                    "indexes": {
                        "data": 0,
                        "gas": 0,
                        "value": 0
                    },
                    "state": {
                        "0x55db506685989fb674c45b42da78e1b9a6f062c7": {
                            "nonce": "0x01",
                            "balance": "0x0de0b6b32dcd249d",
                            "code": "0x",
                            "storage": {}
                        },
                        "0x871c1171b1db94bc8e74dcfdfb41dec44686e65b": {
                            "nonce": "0x00",
                            "balance": "0x2e",
                            "code": "0x6000355415600957005b60203560003555",
                            "storage": {}
                        },
                        "0x871c1171b1db94bc8e74dcfdfb41dec44686e75b": {
                            "nonce": "0x00",
                            "balance": "0x74ff9009",
                            "code": "0x74619921c0750ac3268e7a6703ca2bf6c43308e6fc36607561af1ca16db843f7a2e05bfc2e46afc179930b7a8724a04f9f561bdc65bba0ad5797dde0a28d5e8aca56e1510b724f676a6d33dee473d74664561e49e3d86338c8dcf260f06cbfa6283966d2d0f2591f54088e6f36545c0d90fcdea10d5629629ffb1b16626c339f6490829f1b1675f0f2f62b0b7c9d3f070fafd53f99f90f31e19e81d3db688929213e34affc41116e6ae6f54ad5c2062b27a9fbec78a52f7a26c6347408631a6c0efcf33fe576953a4043e846b686471403f38a615a0a8e601d600a600e60146301019a5173871c1171b1db94bc8e74dcfdfb41dec44686e75b63314bc0fef1600c7eb69785d3593d3a8552018a4faba5b591975e8b8056ebc01f5ce5f5f7c04eca9062b458a835649be8fbaa906f3c4d8f92f8c27517f0addd45e050bfcf55792d8bf87c39d39ed9b1ef6c8c070d8da4a624ce548b37d03ae8107ca6da49be4adffc9f5ae896c52b936a18bed4bd9fcbae531274706e9e9b9030619a40714bb4b22e7bef8cf7b01551327188ee4bb6247118d0e95549a92f7dd9305484cc054e5f206d70d008699a85896061427b05ae2a7f16230f66ab4dd548e03b0972010f5afff39a4f9a90e55e91584e86629f3e8775f53da16fceedd834103a50dbe72a6634e4dbf374c70e6bd041628dc8b30de3c3d7aa0e7bb48df927c78ed30b286e249c2cbe79fb55956f492e413e771d0cd63f7357ab1e9a38026a4ba9278427812728699a2c747189",
                            "storage": {
                                "0x3c4d8f92f8c27517f0addd45e050bfcf": "0x9be8fbaa90"
                            }
                        }
                    }
                }
            ]
        },
        "config": {
            "blobSchedule": {
                "Cancun": {
                    "target": "0x03",
                    "max": "0x06",
                    "baseFeeUpdateFraction": "0x32f0ed"
                }
            },
            "chainid": "0x01"
        },
        "_info": {
            "hash": "0x2adbc1a082301789c5cebf511bc640356b485d6fbe36f2fa7e22b7ea9dcdc9af",
            "comment": "`execution-spec-tests` generated test",
            "filling-transition-tool": "ethereum-spec-evm-resolver 0.0.5",
            "description": "No description available - add a docstring to the python test class or function.",
            "url": "",
            "fixture-format": "state_test",
            "eels-resolution": {
                "git-url": "https://github.com/ethereum/execution-specs.git",
                "branch": "forks/bpos",
                "commit": "7aacb2c54111391af5e98c505d5010b5698a770f"
            }
        }
    },
    "tests/static/state_tests/stRandom2/randomStatetest636Filler.json::randomStatetest636[fork_Prague-state_test-]": {
        "env": {
            "currentCoinbase": "0x871c1171b1db94bc8e74dcfdfb41dec44686e65b",
            "currentGasLimit": "0x7fffffffffffffff",
            "currentNumber": "0x01",
            "currentTimestamp": "0x03e8",
            "currentRandom": "0x0000000000000000000000000000000000000000000000000000000000020000",
            "currentDifficulty": "0x00",
            "currentBaseFee": "0x0a",
            "currentExcessBlobGas": "0x00"
        },
        "pre": {
            "0x55db506685989fb674c45b42da78e1b9a6f062c7": {
                "nonce": "0x00",
                "balance": "0x0de0b6b3a7640000",
                "code": "0x",
                "storage": {}
            },
            "0x871c1171b1db94bc8e74dcfdfb41dec44686e65b": {
                "nonce": "0x00",
                "balance": "0x2e",
                "code": "0x6000355415600957005b60203560003555",
                "storage": {}
            },
            "0x871c1171b1db94bc8e74dcfdfb41dec44686e75b": {
                "nonce": "0x00",
                "balance": "0x00",
                "code": "0x74619921c0750ac3268e7a6703ca2bf6c43308e6fc36607561af1ca16db843f7a2e05bfc2e46afc179930b7a8724a04f9f561bdc65bba0ad5797dde0a28d5e8aca56e1510b724f676a6d33dee473d74664561e49e3d86338c8dcf260f06cbfa6283966d2d0f2591f54088e6f36545c0d90fcdea10d5629629ffb1b16626c339f6490829f1b1675f0f2f62b0b7c9d3f070fafd53f99f90f31e19e81d3db688929213e34affc41116e6ae6f54ad5c2062b27a9fbec78a52f7a26c6347408631a6c0efcf33fe576953a4043e846b686471403f38a615a0a8e601d600a600e60146301019a5173871c1171b1db94bc8e74dcfdfb41dec44686e75b63314bc0fef1600c7eb69785d3593d3a8552018a4faba5b591975e8b8056ebc01f5ce5f5f7c04eca9062b458a835649be8fbaa906f3c4d8f92f8c27517f0addd45e050bfcf55792d8bf87c39d39ed9b1ef6c8c070d8da4a624ce548b37d03ae8107ca6da49be4adffc9f5ae896c52b936a18bed4bd9fcbae531274706e9e9b9030619a40714bb4b22e7bef8cf7b01551327188ee4bb6247118d0e95549a92f7dd9305484cc054e5f206d70d008699a85896061427b05ae2a7f16230f66ab4dd548e03b0972010f5afff39a4f9a90e55e91584e86629f3e8775f53da16fceedd834103a50dbe72a6634e4dbf374c70e6bd041628dc8b30de3c3d7aa0e7bb48df927c78ed30b286e249c2cbe79fb55956f492e413e771d0cd63f7357ab1e9a38026a4ba9278427812728699a2c747189",
                "storage": {}
            }
        },
        "transaction": {
            "nonce": "0x00",
            "gasPrice": "0x0a",
            "gasLimit": [
                "0x61826421"
            ],
            "to": "0x871c1171b1db94bc8e74dcfdfb41dec44686e75b",
            "value": [
                "0x74ff9009"
            ],
            "data": [
                "0x648ae7baf084600e60746edc292e4f932e5d92d41f0bef49fc6b696d03a44c705cb4daaf5160107d58356b0c4e1a7d81fb0b606143c7db58d8147776c02745b7de14b2c388e49568e963334e695b39de93766519c9912b2dccb22bb3bd486cdf043cbc5c0cd3b4a35f6addc01cb4ad9b448c0c60ff6c78c1acc568b086c8181a90b01f613e5e6116e776e8d170f52005efeb96d06594b7477815ea249e6143aaee6798a00d9dbba0552a73cd878ec8872e0e494df0325b92e8c7753a084c6b9763c56059eb608978797530a734a7ced61643b84aece9a39344fab3c6363d62631369ff8d931e17c50dcadb1f72256d2bcfd07e62b68627374ae05b8ff70a238f6b8717aebdaa6cd0696889d903742f20f313a8e4bcb5efae0edcbb74f41e2027dc90b56ee50a7c151872c3f01c0746579073c26c78e58ca65d93cd6c945401024b70fae5f6e17c1bc9636bd85c6c721b77f39c71e417a9bc43cf7288a2888f33b863c22e5e606ef703db601f52cf73b09b88fe1772d6693064e95ea20aa3da12c76fc929d6982f7ae98c71958c5fdd80f52a8d673027f0fa96116b85636464219d046962e9e728f947cc66e8a58061111b752dbc3bbd70bf3fa2e463969371f089c8226cb217fcf86fed7c5c87ada364a13ca107785a1e76d56edd7b1f02caac7915e522478f790322601868ed8a345ba615388b5d77d405d62f0abd72ed81f218f27c6ee6a6cde612b9c528d4107c25f6d842f8d91a37f4f098e3f552a5ce3c14d301fd1a0c7711f831c8c07197a419447c10662351b792bb34eef76c6f5d66414b182911d942896b1bb156c0ba37a9bfe4420bc17ddfe7be8daeabb37222d4ae081dd889cb787c9bf801b07e186f274a70549a04"
            ],
            "sender": "0x55db506685989fb674c45b42da78e1b9a6f062c7",
            "secretKey": "0xec29a998229235c49caa3c44871c1171b1db94bc8e74dcfdfb41dec44686e65b"
        },
        "post": {
            "Prague": [
                {
                    "hash": "0x1d5b224add5f1027a73d3921ebac4a1cb21952be2e665694ae6cba2e4d15ac74",
                    "logs": "0xf4130db50287046b9328bb2bee5b215318cea6e368591d546f1c2766b957021e",
                    "txbytes": "0xf902dc800a846182642194871c1171b1db94bc8e74dcfdfb41dec44686e75b8474ff9009b90275648ae7baf084600e60746edc292e4f932e5d92d41f0bef49fc6b696d03a44c705cb4daaf5160107d58356b0c4e1a7d81fb0b606143c7db58d8147776c02745b7de14b2c388e49568e963334e695b39de93766519c9912b2dccb22bb3bd486cdf043cbc5c0cd3b4a35f6addc01cb4ad9b448c0c60ff6c78c1acc568b086c8181a90b01f613e5e6116e776e8d170f52005efeb96d06594b7477815ea249e6143aaee6798a00d9dbba0552a73cd878ec8872e0e494df0325b92e8c7753a084c6b9763c56059eb608978797530a734a7ced61643b84aece9a39344fab3c6363d62631369ff8d931e17c50dcadb1f72256d2bcfd07e62b68627374ae05b8ff70a238f6b8717aebdaa6cd0696889d903742f20f313a8e4bcb5efae0edcbb74f41e2027dc90b56ee50a7c151872c3f01c0746579073c26c78e58ca65d93cd6c945401024b70fae5f6e17c1bc9636bd85c6c721b77f39c71e417a9bc43cf7288a2888f33b863c22e5e606ef703db601f52cf73b09b88fe1772d6693064e95ea20aa3da12c76fc929d6982f7ae98c71958c5fdd80f52a8d673027f0fa96116b85636464219d046962e9e728f947cc66e8a58061111b752dbc3bbd70bf3fa2e463969371f089c8226cb217fcf86fed7c5c87ada364a13ca107785a1e76d56edd7b1f02caac7915e522478f790322601868ed8a345ba615388b5d77d405d62f0abd72ed81f218f27c6ee6a6cde612b9c528d4107c25f6d842f8d91a37f4f098e3f552a5ce3c14d301fd1a0c7711f831c8c07197a419447c10662351b792bb34eef76c6f5d66414b182911d942896b1bb156c0ba37a9bfe4420bc17ddfe7be8daeabb37222d4ae081dd889cb787c9bf801b07e186f274a70549a0425a0a65df9da68d0c6f569fada1dc3a1f2c2ee78a907acae23ac8e4e77108a4555fda0603f95f080fa1c191ece39b840577bac5d055c7d81105e56e2dd46ad16d3aa84",
                    "indexes": {
                        "data": 0,
                        "gas": 0,
                        "value": 0
                    },
                    "state": {
                        "0x55db506685989fb674c45b42da78e1b9a6f062c7": {
                            "nonce": "0x01",
                            "balance": "0x0de0b6b32dcd249d",
                            "code": "0x",
                            "storage": {}
                        },
                        "0x871c1171b1db94bc8e74dcfdfb41dec44686e65b": {
                            "nonce": "0x00",
                            "balance": "0x2e",
                            "code": "0x6000355415600957005b60203560003555",
                            "storage": {}
                        },
                        "0x871c1171b1db94bc8e74dcfdfb41dec44686e75b": {
                            "nonce": "0x00",
                            "balance": "0x74ff9009",
                            "code": "0x74619921c0750ac3268e7a6703ca2bf6c43308e6fc36607561af1ca16db843f7a2e05bfc2e46afc179930b7a8724a04f9f561bdc65bba0ad5797dde0a28d5e8aca56e1510b724f676a6d33dee473d74664561e49e3d86338c8dcf260f06cbfa6283966d2d0f2591f54088e6f36545c0d90fcdea10d5629629ffb1b16626c339f6490829f1b1675f0f2f62b0b7c9d3f070fafd53f99f90f31e19e81d3db688929213e34affc41116e6ae6f54ad5c2062b27a9fbec78a52f7a26c6347408631a6c0efcf33fe576953a4043e846b686471403f38a615a0a8e601d600a600e60146301019a5173871c1171b1db94bc8e74dcfdfb41dec44686e75b63314bc0fef1600c7eb69785d3593d3a8552018a4faba5b591975e8b8056ebc01f5ce5f5f7c04eca9062b458a835649be8fbaa906f3c4d8f92f8c27517f0addd45e050bfcf55792d8bf87c39d39ed9b1ef6c8c070d8da4a624ce548b37d03ae8107ca6da49be4adffc9f5ae896c52b936a18bed4bd9fcbae531274706e9e9b9030619a40714bb4b22e7bef8cf7b01551327188ee4bb6247118d0e95549a92f7dd9305484cc054e5f206d70d008699a85896061427b05ae2a7f16230f66ab4dd548e03b0972010f5afff39a4f9a90e55e91584e86629f3e8775f53da16fceedd834103a50dbe72a6634e4dbf374c70e6bd041628dc8b30de3c3d7aa0e7bb48df927c78ed30b286e249c2cbe79fb55956f492e413e771d0cd63f7357ab1e9a38026a4ba9278427812728699a2c747189",
                            "storage": {
                                "0x3c4d8f92f8c27517f0addd45e050bfcf": "0x9be8fbaa90"
                            }
                        }
                    }
                }
            ]
        },
        "config": {
            "blobSchedule": {
                "Cancun": {
                    "target": "0x03",
                    "max": "0x06",
                    "baseFeeUpdateFraction": "0x32f0ed"
                },
                "Prague": {
                    "target": "0x06",
                    "max": "0x09",
                    "baseFeeUpdateFraction": "0x4c6964"
                }
            },
            "chainid": "0x01"
        },
        "_info": {
            "hash": "0x9984080e47eea3fc5a4715ae591ff96e4f28c2538e282716db63a9dc95f962e9",
            "comment": "`execution-spec-tests` generated test",
            "filling-transition-tool": "ethereum-spec-evm-resolver 0.0.5",
            "description": "No description available - add a docstring to the python test class or function.",
            "url": "",
            "fixture-format": "state_test",
            "eels-resolution": {
                "git-url": "https://github.com/ethereum/execution-specs.git",
                "branch": "forks/bpos",
                "commit": "7aacb2c54111391af5e98c505d5010b5698a770f"
            }
        }
    }
}