{
    "tests/static/state_tests/stRandom2/randomStatetest428Filler.json::randomStatetest428[fork_Cancun-state_test-]": {
        "env": {
            "currentCoinbase": "0x2a909a186533b7e1afeab77145fcf593f1bda4ef",
            "currentGasLimit": "0x7fffffffffffffff",
            "currentNumber": "0x01",
            "currentTimestamp": "0x03e8",
            "currentRandom": "0x0000000000000000000000000000000000000000000000000000000000020000",
            "currentDifficulty": "0x00",
            "currentBaseFee": "0x0a",
            "currentExcessBlobGas": "0x00"
        },
        "pre": {
            "0x7d8a5b6969cfde45fa7ac2df0ac98518512d0064": {
                "nonce": "0x00",
                "balance": "0x0de0b6b3a7640000",
                "code": "0x",
                "storage": {}
            },
            "0x2a909a186533b7e1afeab77145fcf593f1bda4ef": {
                "nonce": "0x00",
                "balance": "0x2e",
                "code": "0x6000355415600957005b60203560003555",
                "storage": {}
            },
            "0x2a909a186533b7e1afeab77145fcf593f1bda5ef": {
                "nonce": "0x00",
                "balance": "0x0de0b6b3a7640000",
                "code": "0x4244417b4542404409523b200283",
                "storage": {}
            }
        },
        "transaction": {
            "nonce": "0x00",
            "gasPrice": "0x0a",
            "gasLimit": [
                "0x061a80"
            ],
            "to": "0x2a909a186533b7e1afeab77145fcf593f1bda5ef",
            "value": [
                "0x0186a0"
            ],
            "data": [
                "0x42"
            ],
            "sender": "0x7d8a5b6969cfde45fa7ac2df0ac98518512d0064",
            "secretKey": "0xc6a605e6af3467f99fb876bb2a909a186533b7e1afeab77145fcf593f1bda4ef"
        },
        "post": {
            "Cancun": [
                {
                    "hash": "0x4eadeb3454cd9a55e30c701f6dbe4a50f83ac00b81d04f77f7167234d02cf66d",
                    "logs": "0x1dcc4de8dec75d7aab85b567b6ccd41ad312451b948a7413f0a142fd40d49347",
                    "txbytes": "0xf863800a83061a80942a909a186533b7e1afeab77145fcf593f1bda5ef830186a04226a0b0facad0433bcf9b62d389b773aff30e16494d515d933a3f5292b1e96ac6fd20a0205adacaf384b099431010b3c56b250de4bacbc6f855e0f208344a072d1c6a0a",
                    "indexes": {
                        "data": 0,
                        "gas": 0,
                        "value": 0
                    },
                    "state": {
                        "0x7d8a5b6969cfde45fa7ac2df0ac98518512d0064": {
                            "nonce": "0x01",
                            "balance": "0x0de0b6b3a75f4416",
                            "code": "0x",
                            "storage": {}
                        },
                        "0x2a909a186533b7e1afeab77145fcf593f1bda4ef": {
                            "nonce": "0x00",
                            "balance": "0x2e",
                            "code": "0x6000355415600957005b60203560003555",
                            "storage": {}
                        },
                        "0x2a909a186533b7e1afeab77145fcf593f1bda5ef": {
                            "nonce": "0x00",
                            "balance": "0x0de0b6b3a76586a0",
                            "code": "0x4244417b4542404409523b200283",
                            "storage": {}
                        }
                    }
                }
            ]
        },
        "config": {
            "blobSchedule": {
                "Cancun": {
                    "target": "0x03",
                    "max": "0x06",
                    "baseFeeUpdateFraction": "0x32f0ed"
                }
            },
            "chainid": "0x01"
        },
        "_info": {
            "hash": "0x35e6056f7d813210825058770d1296051e7cd03c4a00803f1f4e084d0820e17b",
            "comment": "`execution-spec-tests` generated test",
            "filling-transition-tool": "ethereum-spec-evm-resolver 0.0.5",
            "description": "No description available - add a docstring to the python test class or function.",
            "url": "",
            "fixture-format": "state_test",
            "eels-resolution": {
                "git-url": "https://github.com/ethereum/execution-specs.git",
                "branch": "forks/bpos",
                "commit": "7aacb2c54111391af5e98c505d5010b5698a770f"
            }
        }
    },
    "tests/static/state_tests/stRandom2/randomStatetest428Filler.json::randomStatetest428[fork_Osaka-state_test-]": {
        "env": {
            "currentCoinbase": "0x2a909a186533b7e1afeab77145fcf593f1bda4ef",
            "currentGasLimit": "0x7fffffffffffffff",
            "currentNumber": "0x01",
            "currentTimestamp": "0x03e8",
            "currentRandom": "0x0000000000000000000000000000000000000000000000000000000000020000",
            "currentDifficulty": "0x00",
            "currentBaseFee": "0x0a",
            "currentExcessBlobGas": "0x00"
        },
        "pre": {
            "0x7d8a5b6969cfde45fa7ac2df0ac98518512d0064": {
                "nonce": "0x00",
                "balance": "0x0de0b6b3a7640000",
                "code": "0x",
                "storage": {}
            },
            "0x2a909a186533b7e1afeab77145fcf593f1bda4ef": {
                "nonce": "0x00",
                "balance": "0x2e",
                "code": "0x6000355415600957005b60203560003555",
                "storage": {}
            },
            "0x2a909a186533b7e1afeab77145fcf593f1bda5ef": {
                "nonce": "0x00",
                "balance": "0x0de0b6b3a7640000",
                "code": "0x4244417b4542404409523b200283",
                "storage": {}
            }
        },
        "transaction": {
            "nonce": "0x00",
            "gasPrice": "0x0a",
            "gasLimit": [
                "0x061a80"
            ],
            "to": "0x2a909a186533b7e1afeab77145fcf593f1bda5ef",
            "value": [
                "0x0186a0"
            ],
            "data": [
                "0x42"
            ],
            "sender": "0x7d8a5b6969cfde45fa7ac2df0ac98518512d0064",
            "secretKey": "0xc6a605e6af3467f99fb876bb2a909a186533b7e1afeab77145fcf593f1bda4ef"
        },
        "post": {
            "Osaka": [
                {
                    "hash": "0xa55bc336f77e660068a518433b2c29e94533bcce348831f66e69ac3f246e3334",
                    "logs": "0x1dcc4de8dec75d7aab85b567b6ccd41ad312451b948a7413f0a142fd40d49347",
                    "txbytes": "0xf863800a83061a80942a909a186533b7e1afeab77145fcf593f1bda5ef830186a04226a0b0facad0433bcf9b62d389b773aff30e16494d515d933a3f5292b1e96ac6fd20a0205adacaf384b099431010b3c56b250de4bacbc6f855e0f208344a072d1c6a0a",
                    "indexes": {
                        "data": 0,
                        "gas": 0,
                        "value": 0
                    },
                    "state": {
                        "0x7d8a5b6969cfde45fa7ac2df0ac98518512d0064": {
                            "nonce": "0x01",
                            "balance": "0x0de0b6b3a75f4380",
                            "code": "0x",
                            "storage": {}
                        },
                        "0x2a909a186533b7e1afeab77145fcf593f1bda4ef": {
                            "nonce": "0x00",
                            "balance": "0x2e",
                            "code": "0x6000355415600957005b60203560003555",
                            "storage": {}
                        },
                        "0x2a909a186533b7e1afeab77145fcf593f1bda5ef": {
                            "nonce": "0x00",
                            "balance": "0x0de0b6b3a76586a0",
                            "code": "0x4244417b4542404409523b200283",
                            "storage": {}
                        }
                    }
                }
            ]
        },
        "config": {
            "blobSchedule": {
                "Cancun": {
                    "target": "0x03",
                    "max": "0x06",
                    "baseFeeUpdateFraction": "0x32f0ed"
                },
                "Prague": {
                    "target": "0x06",
                    "max": "0x09",
                    "baseFeeUpdateFraction": "0x4c6964"
                },
                "Osaka": {
                    "target": "0x06",
                    "max": "0x09",
                    "baseFeeUpdateFraction": "0x4c6964"
                }
            },
            "chainid": "0x01"
        },
        "_info": {
            "hash": "0x40f38e5882aad087bbf9a8b359aaf59707616f29411df650ead47ecab6c5fffa",
            "comment": "`execution-spec-tests` generated test",
            "filling-transition-tool": "ethereum-spec-evm-resolver 0.0.5",
            "description": "No description available - add a docstring to the python test class or function.",
            "url": "",
            "fixture-format": "state_test",
            "eels-resolution": {
                "git-url": "https://github.com/ethereum/execution-specs.git",
                "branch": "forks/bpos",
                "commit": "7aacb2c54111391af5e98c505d5010b5698a770f"
            }
        }
    },
    "tests/static/state_tests/stRandom2/randomStatetest428Filler.json::randomStatetest428[fork_Prague-state_test-]": {
        "env": {
            "currentCoinbase": "0x2a909a186533b7e1afeab77145fcf593f1bda4ef",
            "currentGasLimit": "0x7fffffffffffffff",
            "currentNumber": "0x01",
            "currentTimestamp": "0x03e8",
            "currentRandom": "0x0000000000000000000000000000000000000000000000000000000000020000",
            "currentDifficulty": "0x00",
            "currentBaseFee": "0x0a",
            "currentExcessBlobGas": "0x00"
        },
        "pre": {
            "0x7d8a5b6969cfde45fa7ac2df0ac98518512d0064": {
                "nonce": "0x00",
                "balance": "0x0de0b6b3a7640000",
                "code": "0x",
                "storage": {}
            },
            "0x2a909a186533b7e1afeab77145fcf593f1bda4ef": {
                "nonce": "0x00",
                "balance": "0x2e",
                "code": "0x6000355415600957005b60203560003555",
                "storage": {}
            },
            "0x2a909a186533b7e1afeab77145fcf593f1bda5ef": {
                "nonce": "0x00",
                "balance": "0x0de0b6b3a7640000",
                "code": "0x4244417b4542404409523b200283",
                "storage": {}
            }
        },
        "transaction": {
            "nonce": "0x00",
            "gasPrice": "0x0a",
            "gasLimit": [
                "0x061a80"
            ],
            "to": "0x2a909a186533b7e1afeab77145fcf593f1bda5ef",
            "value": [
                "0x0186a0"
            ],
            "data": [
                "0x42"
            ],
            "sender": "0x7d8a5b6969cfde45fa7ac2df0ac98518512d0064",
            "secretKey": "0xc6a605e6af3467f99fb876bb2a909a186533b7e1afeab77145fcf593f1bda4ef"
        },
        "post": {
            "Prague": [
                {
                    "hash": "0xa55bc336f77e660068a518433b2c29e94533bcce348831f66e69ac3f246e3334",
                    "logs": "0x1dcc4de8dec75d7aab85b567b6ccd41ad312451b948a7413f0a142fd40d49347",
                    "txbytes": "0xf863800a83061a80942a909a186533b7e1afeab77145fcf593f1bda5ef830186a04226a0b0facad0433bcf9b62d389b773aff30e16494d515d933a3f5292b1e96ac6fd20a0205adacaf384b099431010b3c56b250de4bacbc6f855e0f208344a072d1c6a0a",
                    "indexes": {
                        "data": 0,
                        "gas": 0,
                        "value": 0
                    },
                    "state": {
                        "0x7d8a5b6969cfde45fa7ac2df0ac98518512d0064": {
                            "nonce": "0x01",
                            "balance": "0x0de0b6b3a75f4380",
                            "code": "0x",
                            "storage": {}
                        },
                        "0x2a909a186533b7e1afeab77145fcf593f1bda4ef": {
                            "nonce": "0x00",
                            "balance": "0x2e",
                            "code": "0x6000355415600957005b60203560003555",
                            "storage": {}
                        },
                        "0x2a909a186533b7e1afeab77145fcf593f1bda5ef": {
                            "nonce": "0x00",
                            "balance": "0x0de0b6b3a76586a0",
                            "code": "0x4244417b4542404409523b200283",
                            "storage": {}
                        }
                    }
                }
            ]
        },
        "config": {
            "blobSchedule": {
                "Cancun": {
                    "target": "0x03",
                    "max": "0x06",
                    "baseFeeUpdateFraction": "0x32f0ed"
                },
                "Prague": {
                    "target": "0x06",
                    "max": "0x09",
                    "baseFeeUpdateFraction": "0x4c6964"
                }
            },
            "chainid": "0x01"
        },
        "_info": {
            "hash": "0x1f127635628f443e41fc25a3a87661d2a0c5f115c63db1db94b9d43a0ed6c799",
            "comment": "`execution-spec-tests` generated test",
            "filling-transition-tool": "ethereum-spec-evm-resolver 0.0.5",
            "description": "No description available - add a docstring to the python test class or function.",
            "url": "",
            "fixture-format": "state_test",
            "eels-resolution": {
                "git-url": "https://github.com/ethereum/execution-specs.git",
                "branch": "forks/bpos",
                "commit": "7aacb2c54111391af5e98c505d5010b5698a770f"
            }
        }
    }
}