{
    "tests/static/state_tests/stRandom2/randomStatetest447Filler.json::randomStatetest447[fork_Cancun-state_test-]": {
        "env": {
            "currentCoinbase": "0xdbe1ef192fbdf3e4aa91b6377c8ebf6cfe9c5a9f",
            "currentGasLimit": "0x7fffffffffffffff",
            "currentNumber": "0x01",
            "currentTimestamp": "0x03e8",
            "currentRandom": "0x0000000000000000000000000000000000000000000000000000000000020000",
            "currentDifficulty": "0x00",
            "currentBaseFee": "0x0a",
            "currentExcessBlobGas": "0x00"
        },
        "pre": {
            "0x37cc2f535a8ed3a3d1c3075c5462822696904a7f": {
                "nonce": "0x00",
                "balance": "0x0de0b6b3a7640000",
                "code": "0x",
                "storage": {}
            },
            "0xdbe1ef192fbdf3e4aa91b6377c8ebf6cfe9c5a9f": {
                "nonce": "0x00",
                "balance": "0x2e",
                "code": "0x6000355415600957005b60203560003555",
                "storage": {}
            },
            "0xdbe1ef192fbdf3e4aa91b6377c8ebf6cfe9c5b9f": {
                "nonce": "0x00",
                "balance": "0x00",
                "code": "0x7fffffffffffffffffffffffffffffffffffffffffffffffffffffffffffffffff7f000000000000000000000000dbe1ef192fbdf3e4aa91b6377c8ebf6cfe9c5a9f7ffffffffffffffffffffffffffffffffffffffffffffffffffffffffffffffffe7f00000000000000000000000100000000000000000000000000000000000000007ffffffffffffffffffffffffffffffffffffffffffffffffffffffffffffffffe437f000000000000000000000000ffffffffffffffffffffffffffffffffffffffff7fffffffffffffffffffffffffffffffffffffffffffffffffffffffffffffffff085560005155",
                "storage": {}
            }
        },
        "transaction": {
            "nonce": "0x00",
            "gasPrice": "0x0a",
            "gasLimit": [
                "0x0186a0"
            ],
            "to": "0xdbe1ef192fbdf3e4aa91b6377c8ebf6cfe9c5b9f",
            "value": [
                "0x1569eba8"
            ],
            "data": [
                "0x7fffffffffffffffffffffffffffffffffffffffffffffffffffffffffffffffff7f000000000000000000000000dbe1ef192fbdf3e4aa91b6377c8ebf6cfe9c5a9f7ffffffffffffffffffffffffffffffffffffffffffffffffffffffffffffffffe7f00000000000000000000000100000000000000000000000000000000000000007ffffffffffffffffffffffffffffffffffffffffffffffffffffffffffffffffe437f000000000000000000000000ffffffffffffffffffffffffffffffffffffffff7fffffffffffffffffffffffffffffffffffffffffffffffffffffffffffffffff08"
            ],
            "sender": "0x37cc2f535a8ed3a3d1c3075c5462822696904a7f",
            "secretKey": "0x6b42bcc35bad40a155561fa9dbe1ef192fbdf3e4aa91b6377c8ebf6cfe9c5a9f"
        },
        "post": {
            "Cancun": [
                {
                    "hash": "0xa215833b71a60173135b83021af3fee129146413701c133091852ff1c92e8d7d",
                    "logs": "0x1dcc4de8dec75d7aab85b567b6ccd41ad312451b948a7413f0a142fd40d49347",
                    "txbytes": "0xf9014e800a830186a094dbe1ef192fbdf3e4aa91b6377c8ebf6cfe9c5b9f841569eba8b8e97fffffffffffffffffffffffffffffffffffffffffffffffffffffffffffffffff7f000000000000000000000000dbe1ef192fbdf3e4aa91b6377c8ebf6cfe9c5a9f7ffffffffffffffffffffffffffffffffffffffffffffffffffffffffffffffffe7f00000000000000000000000100000000000000000000000000000000000000007ffffffffffffffffffffffffffffffffffffffffffffffffffffffffffffffffe437f000000000000000000000000ffffffffffffffffffffffffffffffffffffffff7fffffffffffffffffffffffffffffffffffffffffffffffffffffffffffffffff0825a0d140d3b2182299c9d2968ea18e7f29804fe1048022a28524f0211e81c0ab0dd6a02f38f2dbe0ec571618acecdbab063d82bddb6df284d36a621567ae81740e1f44",
                    "indexes": {
                        "data": 0,
                        "gas": 0,
                        "value": 0
                    },
                    "state": {
                        "0x37cc2f535a8ed3a3d1c3075c5462822696904a7f": {
                            "nonce": "0x01",
                            "balance": "0x0de0b6b391f30370",
                            "code": "0x",
                            "storage": {}
                        },
                        "0xdbe1ef192fbdf3e4aa91b6377c8ebf6cfe9c5a9f": {
                            "nonce": "0x00",
                            "balance": "0x2e",
                            "code": "0x6000355415600957005b60203560003555",
                            "storage": {}
                        },
                        "0xdbe1ef192fbdf3e4aa91b6377c8ebf6cfe9c5b9f": {
                            "nonce": "0x00",
                            "balance": "0x1569eba8",
                            "code": "0x7fffffffffffffffffffffffffffffffffffffffffffffffffffffffffffffffff7f000000000000000000000000dbe1ef192fbdf3e4aa91b6377c8ebf6cfe9c5a9f7ffffffffffffffffffffffffffffffffffffffffffffffffffffffffffffffffe7f00000000000000000000000100000000000000000000000000000000000000007ffffffffffffffffffffffffffffffffffffffffffffffffffffffffffffffffe437f000000000000000000000000ffffffffffffffffffffffffffffffffffffffff7fffffffffffffffffffffffffffffffffffffffffffffffffffffffffffffffff085560005155",
                            "storage": {
                                "0x00": "0x010000000000000000000000000000000000000000"
                            }
                        }
                    }
                }
            ]
        },
        "config": {
            "blobSchedule": {
                "Cancun": {
                    "target": "0x03",
                    "max": "0x06",
                    "baseFeeUpdateFraction": "0x32f0ed"
                }
            },
            "chainid": "0x01"
        },
        "_info": {
            "hash": "0xddcb3638b7e863088461b69b95e6eb1845ba07dd932b9b4aa442113dabadafa5",
            "comment": "`execution-spec-tests` generated test",
            "filling-transition-tool": "ethereum-spec-evm-resolver 0.0.5",
            "description": "No description available - add a docstring to the python test class or function.",
            "url": "",
            "fixture-format": "state_test",
            "eels-resolution": {
                "git-url": "https://github.com/ethereum/execution-specs.git",
                "branch": "forks/bpos",
                "commit": "7aacb2c54111391af5e98c505d5010b5698a770f"
            }
        }
    },
    "tests/static/state_tests/stRandom2/randomStatetest447Filler.json::randomStatetest447[fork_Osaka-state_test-]": {
        "env": {
            "currentCoinbase": "0xdbe1ef192fbdf3e4aa91b6377c8ebf6cfe9c5a9f",
            "currentGasLimit": "0x7fffffffffffffff",
            "currentNumber": "0x01",
            "currentTimestamp": "0x03e8",
            "currentRandom": "0x0000000000000000000000000000000000000000000000000000000000020000",
            "currentDifficulty": "0x00",
            "currentBaseFee": "0x0a",
            "currentExcessBlobGas": "0x00"
        },
        "pre": {
            "0x37cc2f535a8ed3a3d1c3075c5462822696904a7f": {
                "nonce": "0x00",
                "balance": "0x0de0b6b3a7640000",
                "code": "0x",
                "storage": {}
            },
            "0xdbe1ef192fbdf3e4aa91b6377c8ebf6cfe9c5a9f": {
                "nonce": "0x00",
                "balance": "0x2e",
                "code": "0x6000355415600957005b60203560003555",
                "storage": {}
            },
            "0xdbe1ef192fbdf3e4aa91b6377c8ebf6cfe9c5b9f": {
                "nonce": "0x00",
                "balance": "0x00",
                "code": "0x7fffffffffffffffffffffffffffffffffffffffffffffffffffffffffffffffff7f000000000000000000000000dbe1ef192fbdf3e4aa91b6377c8ebf6cfe9c5a9f7ffffffffffffffffffffffffffffffffffffffffffffffffffffffffffffffffe7f00000000000000000000000100000000000000000000000000000000000000007ffffffffffffffffffffffffffffffffffffffffffffffffffffffffffffffffe437f000000000000000000000000ffffffffffffffffffffffffffffffffffffffff7fffffffffffffffffffffffffffffffffffffffffffffffffffffffffffffffff085560005155",
                "storage": {}
            }
        },
        "transaction": {
            "nonce": "0x00",
            "gasPrice": "0x0a",
            "gasLimit": [
                "0x0186a0"
            ],
            "to": "0xdbe1ef192fbdf3e4aa91b6377c8ebf6cfe9c5b9f",
            "value": [
                "0x1569eba8"
            ],
            "data": [
                "0x7fffffffffffffffffffffffffffffffffffffffffffffffffffffffffffffffff7f000000000000000000000000dbe1ef192fbdf3e4aa91b6377c8ebf6cfe9c5a9f7ffffffffffffffffffffffffffffffffffffffffffffffffffffffffffffffffe7f00000000000000000000000100000000000000000000000000000000000000007ffffffffffffffffffffffffffffffffffffffffffffffffffffffffffffffffe437f000000000000000000000000ffffffffffffffffffffffffffffffffffffffff7fffffffffffffffffffffffffffffffffffffffffffffffffffffffffffffffff08"
            ],
            "sender": "0x37cc2f535a8ed3a3d1c3075c5462822696904a7f",
            "secretKey": "0x6b42bcc35bad40a155561fa9dbe1ef192fbdf3e4aa91b6377c8ebf6cfe9c5a9f"
        },
        "post": {
            "Osaka": [
                {
                    "hash": "0xa215833b71a60173135b83021af3fee129146413701c133091852ff1c92e8d7d",
                    "logs": "0x1dcc4de8dec75d7aab85b567b6ccd41ad312451b948a7413f0a142fd40d49347",
                    "txbytes": "0xf9014e800a830186a094dbe1ef192fbdf3e4aa91b6377c8ebf6cfe9c5b9f841569eba8b8e97fffffffffffffffffffffffffffffffffffffffffffffffffffffffffffffffff7f000000000000000000000000dbe1ef192fbdf3e4aa91b6377c8ebf6cfe9c5a9f7ffffffffffffffffffffffffffffffffffffffffffffffffffffffffffffffffe7f00000000000000000000000100000000000000000000000000000000000000007ffffffffffffffffffffffffffffffffffffffffffffffffffffffffffffffffe437f000000000000000000000000ffffffffffffffffffffffffffffffffffffffff7fffffffffffffffffffffffffffffffffffffffffffffffffffffffffffffffff0825a0d140d3b2182299c9d2968ea18e7f29804fe1048022a28524f0211e81c0ab0dd6a02f38f2dbe0ec571618acecdbab063d82bddb6df284d36a621567ae81740e1f44",
                    "indexes": {
                        "data": 0,
                        "gas": 0,
                        "value": 0
                    },
                    "state": {
                        "0x37cc2f535a8ed3a3d1c3075c5462822696904a7f": {
                            "nonce": "0x01",
                            "balance": "0x0de0b6b391f30370",
                            "code": "0x",
                            "storage": {}
                        },
                        "0xdbe1ef192fbdf3e4aa91b6377c8ebf6cfe9c5a9f": {
                            "nonce": "0x00",
                            "balance": "0x2e",
                            "code": "0x6000355415600957005b60203560003555",
                            "storage": {}
                        },
                        "0xdbe1ef192fbdf3e4aa91b6377c8ebf6cfe9c5b9f": {
                            "nonce": "0x00",
                            "balance": "0x1569eba8",
                            "code": "0x7fffffffffffffffffffffffffffffffffffffffffffffffffffffffffffffffff7f000000000000000000000000dbe1ef192fbdf3e4aa91b6377c8ebf6cfe9c5a9f7ffffffffffffffffffffffffffffffffffffffffffffffffffffffffffffffffe7f00000000000000000000000100000000000000000000000000000000000000007ffffffffffffffffffffffffffffffffffffffffffffffffffffffffffffffffe437f000000000000000000000000ffffffffffffffffffffffffffffffffffffffff7fffffffffffffffffffffffffffffffffffffffffffffffffffffffffffffffff085560005155",
                            "storage": {
                                "0x00": "0x010000000000000000000000000000000000000000"
                            }
                        }
                    }
                }
            ]
        },
        "config": {
            "blobSchedule": {
                "Cancun": {
                    "target": "0x03",
                    "max": "0x06",
                    "baseFeeUpdateFraction": "0x32f0ed"
                },
                "Prague": {
                    "target": "0x06",
                    "max": "0x09",
                    "baseFeeUpdateFraction": "0x4c6964"
                },
                "Osaka": {
                    "target": "0x06",
                    "max": "0x09",
                    "baseFeeUpdateFraction": "0x4c6964"
                }
            },
            "chainid": "0x01"
        },
        "_info": {
            "hash": "0x989be4b4b0b526158d2d8cd1f8a31ee760fb7f8b90a8f71d456d295fdcc3fc0a",
            "comment": "`execution-spec-tests` generated test",
            "filling-transition-tool": "ethereum-spec-evm-resolver 0.0.5",
            "description": "No description available - add a docstring to the python test class or function.",
            "url": "",
            "fixture-format": "state_test",
            "eels-resolution": {
                "git-url": "https://github.com/ethereum/execution-specs.git",
                "branch": "forks/bpos",
                "commit": "7aacb2c54111391af5e98c505d5010b5698a770f"
            }
        }
    },
    "tests/static/state_tests/stRandom2/randomStatetest447Filler.json::randomStatetest447[fork_Prague-state_test-]": {
        "env": {
            "currentCoinbase": "0xdbe1ef192fbdf3e4aa91b6377c8ebf6cfe9c5a9f",
            "currentGasLimit": "0x7fffffffffffffff",
            "currentNumber": "0x01",
            "currentTimestamp": "0x03e8",
            "currentRandom": "0x0000000000000000000000000000000000000000000000000000000000020000",
            "currentDifficulty": "0x00",
            "currentBaseFee": "0x0a",
            "currentExcessBlobGas": "0x00"
        },
        "pre": {
            "0x37cc2f535a8ed3a3d1c3075c5462822696904a7f": {
                "nonce": "0x00",
                "balance": "0x0de0b6b3a7640000",
                "code": "0x",
                "storage": {}
            },
            "0xdbe1ef192fbdf3e4aa91b6377c8ebf6cfe9c5a9f": {
                "nonce": "0x00",
                "balance": "0x2e",
                "code": "0x6000355415600957005b60203560003555",
                "storage": {}
            },
            "0xdbe1ef192fbdf3e4aa91b6377c8ebf6cfe9c5b9f": {
                "nonce": "0x00",
                "balance": "0x00",
                "code": "0x7fffffffffffffffffffffffffffffffffffffffffffffffffffffffffffffffff7f000000000000000000000000dbe1ef192fbdf3e4aa91b6377c8ebf6cfe9c5a9f7ffffffffffffffffffffffffffffffffffffffffffffffffffffffffffffffffe7f00000000000000000000000100000000000000000000000000000000000000007ffffffffffffffffffffffffffffffffffffffffffffffffffffffffffffffffe437f000000000000000000000000ffffffffffffffffffffffffffffffffffffffff7fffffffffffffffffffffffffffffffffffffffffffffffffffffffffffffffff085560005155",
                "storage": {}
            }
        },
        "transaction": {
            "nonce": "0x00",
            "gasPrice": "0x0a",
            "gasLimit": [
                "0x0186a0"
            ],
            "to": "0xdbe1ef192fbdf3e4aa91b6377c8ebf6cfe9c5b9f",
            "value": [
                "0x1569eba8"
            ],
            "data": [
                "0x7fffffffffffffffffffffffffffffffffffffffffffffffffffffffffffffffff7f000000000000000000000000dbe1ef192fbdf3e4aa91b6377c8ebf6cfe9c5a9f7ffffffffffffffffffffffffffffffffffffffffffffffffffffffffffffffffe7f00000000000000000000000100000000000000000000000000000000000000007ffffffffffffffffffffffffffffffffffffffffffffffffffffffffffffffffe437f000000000000000000000000ffffffffffffffffffffffffffffffffffffffff7fffffffffffffffffffffffffffffffffffffffffffffffffffffffffffffffff08"
            ],
            "sender": "0x37cc2f535a8ed3a3d1c3075c5462822696904a7f",
            "secretKey": "0x6b42bcc35bad40a155561fa9dbe1ef192fbdf3e4aa91b6377c8ebf6cfe9c5a9f"
        },
        "post": {
            "Prague": [
                {
                    "hash": "0xa215833b71a60173135b83021af3fee129146413701c133091852ff1c92e8d7d",
                    "logs": "0x1dcc4de8dec75d7aab85b567b6ccd41ad312451b948a7413f0a142fd40d49347",
                    "txbytes": "0xf9014e800a830186a094dbe1ef192fbdf3e4aa91b6377c8ebf6cfe9c5b9f841569eba8b8e97fffffffffffffffffffffffffffffffffffffffffffffffffffffffffffffffff7f000000000000000000000000dbe1ef192fbdf3e4aa91b6377c8ebf6cfe9c5a9f7ffffffffffffffffffffffffffffffffffffffffffffffffffffffffffffffffe7f00000000000000000000000100000000000000000000000000000000000000007ffffffffffffffffffffffffffffffffffffffffffffffffffffffffffffffffe437f000000000000000000000000ffffffffffffffffffffffffffffffffffffffff7fffffffffffffffffffffffffffffffffffffffffffffffffffffffffffffffff0825a0d140d3b2182299c9d2968ea18e7f29804fe1048022a28524f0211e81c0ab0dd6a02f38f2dbe0ec571618acecdbab063d82bddb6df284d36a621567ae81740e1f44",
                    "indexes": {
                        "data": 0,
                        "gas": 0,
                        "value": 0
                    },
                    "state": {
                        "0x37cc2f535a8ed3a3d1c3075c5462822696904a7f": {
                            "nonce": "0x01",
                            "balance": "0x0de0b6b391f30370",
                            "code": "0x",
                            "storage": {}
                        },
                        "0xdbe1ef192fbdf3e4aa91b6377c8ebf6cfe9c5a9f": {
                            "nonce": "0x00",
                            "balance": "0x2e",
                            "code": "0x6000355415600957005b60203560003555",
                            "storage": {}
                        },
                        "0xdbe1ef192fbdf3e4aa91b6377c8ebf6cfe9c5b9f": {
                            "nonce": "0x00",
                            "balance": "0x1569eba8",
                            "code": "0x7fffffffffffffffffffffffffffffffffffffffffffffffffffffffffffffffff7f000000000000000000000000dbe1ef192fbdf3e4aa91b6377c8ebf6cfe9c5a9f7ffffffffffffffffffffffffffffffffffffffffffffffffffffffffffffffffe7f00000000000000000000000100000000000000000000000000000000000000007ffffffffffffffffffffffffffffffffffffffffffffffffffffffffffffffffe437f000000000000000000000000ffffffffffffffffffffffffffffffffffffffff7fffffffffffffffffffffffffffffffffffffffffffffffffffffffffffffffff085560005155",
                            "storage": {
                                "0x00": "0x010000000000000000000000000000000000000000"
                            }
                        }
                    }
                }
            ]
        },
        "config": {
            "blobSchedule": {
                "Cancun": {
                    "target": "0x03",
                    "max": "0x06",
                    "baseFeeUpdateFraction": "0x32f0ed"
                },
                "Prague": {
                    "target": "0x06",
                    "max": "0x09",
                    "baseFeeUpdateFraction": "0x4c6964"
                }
            },
            "chainid": "0x01"
        },
        "_info": {
            "hash": "0x25d3985ee00fa99c66294439fe8282106d15233b6ed806328deec465832089ba",
            "comment": "`execution-spec-tests` generated test",
            "filling-transition-tool": "ethereum-spec-evm-resolver 0.0.5",
            "description": "No description available - add a docstring to the python test class or function.",
            "url": "",
            "fixture-format": "state_test",
            "eels-resolution": {
                "git-url": "https://github.com/ethereum/execution-specs.git",
                "branch": "forks/bpos",
                "commit": "7aacb2c54111391af5e98c505d5010b5698a770f"
            }
        }
    }
}