{
    "tests/static/state_tests/stRandom2/randomStatetest474Filler.json::randomStatetest474[fork_Cancun-state_test-]": {
        "env": {
            "currentCoinbase": "0x0a4b332b2feb2cdd7a8e89357b643bc1608bca03",
            "currentGasLimit": "0x7fffffffffffffff",
            "currentNumber": "0x01",
            "currentTimestamp": "0x03e8",
            "currentRandom": "0x0000000000000000000000000000000000000000000000000000000000020000",
            "currentDifficulty": "0x00",
            "currentBaseFee": "0x0a",
            "currentExcessBlobGas": "0x00"
        },
        "pre": {
            "0x80a911cd6aab782ceabe40dbeb94b651ddc69456": {
                "nonce": "0x00",
                "balance": "0x0de0b6b3a7640000",
                "code": "0x",
                "storage": {}
            },
            "0x0a4b332b2feb2cdd7a8e89357b643bc1608bca03": {
                "nonce": "0x00",
                "balance": "0x2e",
                "code": "0x6000355415600957005b60203560003555",
                "storage": {}
            },
            "0x0a4b332b2feb2cdd7a8e89357b643bc1608bcb03": {
                "nonce": "0x00",
                "balance": "0x00",
                "code": "0x7f000000000000000000000000ffffffffffffffffffffffffffffffffffffffff7f00000000000000000000000100000000000000000000000000000000000000007ffffffffffffffffffffffffffffffffffffffffffffffffffffffffffffffffe027f000000000000000000000000000000000000000000000000000000000000c3507fffffffffffffffffffffffffffffffffffffffffffffffffffffffffffffffff6f7d6f6b1051778ea1670387810b58055560005155",
                "storage": {}
            }
        },
        "transaction": {
            "nonce": "0x00",
            "gasPrice": "0x0a",
            "gasLimit": [
                "0x0186a0"
            ],
            "to": "0x0a4b332b2feb2cdd7a8e89357b643bc1608bcb03",
            "value": [
                "0x7b1abeed"
            ],
            "data": [
                "0x7f000000000000000000000000ffffffffffffffffffffffffffffffffffffffff7f00000000000000000000000100000000000000000000000000000000000000007ffffffffffffffffffffffffffffffffffffffffffffffffffffffffffffffffe027f000000000000000000000000000000000000000000000000000000000000c3507fffffffffffffffffffffffffffffffffffffffffffffffffffffffffffffffff6f7d6f6b1051778ea1670387810b5805"
            ],
            "sender": "0x80a911cd6aab782ceabe40dbeb94b651ddc69456",
            "secretKey": "0x78cb723ae75c15f284a601040a4b332b2feb2cdd7a8e89357b643bc1608bca03"
        },
        "post": {
            "Cancun": [
                {
                    "hash": "0xd0215e1157cd0d2a66f04a779ffe4b7bbba6c13c12a010475835ca4e23e50876",
                    "logs": "0x1dcc4de8dec75d7aab85b567b6ccd41ad312451b948a7413f0a142fd40d49347",
                    "txbytes": "0xf9011b800a830186a0940a4b332b2feb2cdd7a8e89357b643bc1608bcb03847b1abeedb8b67f000000000000000000000000ffffffffffffffffffffffffffffffffffffffff7f00000000000000000000000100000000000000000000000000000000000000007ffffffffffffffffffffffffffffffffffffffffffffffffffffffffffffffffe027f000000000000000000000000000000000000000000000000000000000000c3507fffffffffffffffffffffffffffffffffffffffffffffffffffffffffffffffff6f7d6f6b1051778ea1670387810b580526a0fcf5425588829138daa3fe8e5478abd9cb29a57a6ce26acb5828e909bbfb379fa03f98cd050adf40ab9f90e0bba52444b0b9b328c71a583e9e734c8a5803adbfcf",
                    "indexes": {
                        "data": 0,
                        "gas": 0,
                        "value": 0
                    },
                    "state": {
                        "0x80a911cd6aab782ceabe40dbeb94b651ddc69456": {
                            "nonce": "0x01",
                            "balance": "0x0de0b6b32c425cb3",
                            "code": "0x",
                            "storage": {}
                        },
                        "0x0a4b332b2feb2cdd7a8e89357b643bc1608bca03": {
                            "nonce": "0x00",
                            "balance": "0x2e",
                            "code": "0x6000355415600957005b60203560003555",
                            "storage": {}
                        },
                        "0x0a4b332b2feb2cdd7a8e89357b643bc1608bcb03": {
                            "nonce": "0x00",
                            "balance": "0x7b1abeed",
                            "code": "0x7f000000000000000000000000ffffffffffffffffffffffffffffffffffffffff7f00000000000000000000000100000000000000000000000000000000000000007ffffffffffffffffffffffffffffffffffffffffffffffffffffffffffffffffe027f000000000000000000000000000000000000000000000000000000000000c3507fffffffffffffffffffffffffffffffffffffffffffffffffffffffffffffffff6f7d6f6b1051778ea1670387810b58055560005155",
                            "storage": {
                                "0x00": "0x7d6f6b1051778ea1670387810b580555"
                            }
                        }
                    }
                }
            ]
        },
        "config": {
            "blobSchedule": {
                "Cancun": {
                    "target": "0x03",
                    "max": "0x06",
                    "baseFeeUpdateFraction": "0x32f0ed"
                }
            },
            "chainid": "0x01"
        },
        "_info": {
            "hash": "0x3cb0be729b47b6418d5424330c87eb559c7a4eef4edfd73f63bb26a3ce920c85",
            "comment": "`execution-specs` generated test",
            "filling-transition-tool": "2.18.0rc6",
            "description": "No description available - add a docstring to the python test class or function.",
            "url": "",
            "fixture-format": "state_test"
        }
    },
    "tests/static/state_tests/stRandom2/randomStatetest474Filler.json::randomStatetest474[fork_Osaka-state_test-]": {
        "env": {
            "currentCoinbase": "0x0a4b332b2feb2cdd7a8e89357b643bc1608bca03",
            "currentGasLimit": "0x7fffffffffffffff",
            "currentNumber": "0x01",
            "currentTimestamp": "0x03e8",
            "currentRandom": "0x0000000000000000000000000000000000000000000000000000000000020000",
            "currentDifficulty": "0x00",
            "currentBaseFee": "0x0a",
            "currentExcessBlobGas": "0x00"
        },
        "pre": {
            "0x80a911cd6aab782ceabe40dbeb94b651ddc69456": {
                "nonce": "0x00",
                "balance": "0x0de0b6b3a7640000",
                "code": "0x",
                "storage": {}
            },
            "0x0a4b332b2feb2cdd7a8e89357b643bc1608bca03": {
                "nonce": "0x00",
                "balance": "0x2e",
                "code": "0x6000355415600957005b60203560003555",
                "storage": {}
            },
            "0x0a4b332b2feb2cdd7a8e89357b643bc1608bcb03": {
                "nonce": "0x00",
                "balance": "0x00",
                "code": "0x7f000000000000000000000000ffffffffffffffffffffffffffffffffffffffff7f00000000000000000000000100000000000000000000000000000000000000007ffffffffffffffffffffffffffffffffffffffffffffffffffffffffffffffffe027f000000000000000000000000000000000000000000000000000000000000c3507fffffffffffffffffffffffffffffffffffffffffffffffffffffffffffffffff6f7d6f6b1051778ea1670387810b58055560005155",
                "storage": {}
            }
        },
        "transaction": {
            "nonce": "0x00",
            "gasPrice": "0x0a",
            "gasLimit": [
                "0x0186a0"
            ],
            "to": "0x0a4b332b2feb2cdd7a8e89357b643bc1608bcb03",
            "value": [
                "0x7b1abeed"
            ],
            "data": [
                "0x7f000000000000000000000000ffffffffffffffffffffffffffffffffffffffff7f00000000000000000000000100000000000000000000000000000000000000007ffffffffffffffffffffffffffffffffffffffffffffffffffffffffffffffffe027f000000000000000000000000000000000000000000000000000000000000c3507fffffffffffffffffffffffffffffffffffffffffffffffffffffffffffffffff6f7d6f6b1051778ea1670387810b5805"
            ],
            "sender": "0x80a911cd6aab782ceabe40dbeb94b651ddc69456",
            "secretKey": "0x78cb723ae75c15f284a601040a4b332b2feb2cdd7a8e89357b643bc1608bca03"
        },
        "post": {
            "Osaka": [
                {
                    "hash": "0xd0215e1157cd0d2a66f04a779ffe4b7bbba6c13c12a010475835ca4e23e50876",
                    "logs": "0x1dcc4de8dec75d7aab85b567b6ccd41ad312451b948a7413f0a142fd40d49347",
                    "txbytes": "0xf9011b800a830186a0940a4b332b2feb2cdd7a8e89357b643bc1608bcb03847b1abeedb8b67f000000000000000000000000ffffffffffffffffffffffffffffffffffffffff7f00000000000000000000000100000000000000000000000000000000000000007ffffffffffffffffffffffffffffffffffffffffffffffffffffffffffffffffe027f000000000000000000000000000000000000000000000000000000000000c3507fffffffffffffffffffffffffffffffffffffffffffffffffffffffffffffffff6f7d6f6b1051778ea1670387810b580526a0fcf5425588829138daa3fe8e5478abd9cb29a57a6ce26acb5828e909bbfb379fa03f98cd050adf40ab9f90e0bba52444b0b9b328c71a583e9e734c8a5803adbfcf",
                    "indexes": {
                        "data": 0,
                        "gas": 0,
                        "value": 0
                    },
                    "state": {
                        "0x80a911cd6aab782ceabe40dbeb94b651ddc69456": {
                            "nonce": "0x01",
                            "balance": "0x0de0b6b32c425cb3",
                            "code": "0x",
                            "storage": {}
                        },
                        "0x0a4b332b2feb2cdd7a8e89357b643bc1608bca03": {
                            "nonce": "0x00",
                            "balance": "0x2e",
                            "code": "0x6000355415600957005b60203560003555",
                            "storage": {}
                        },
                        "0x0a4b332b2feb2cdd7a8e89357b643bc1608bcb03": {
                            "nonce": "0x00",
                            "balance": "0x7b1abeed",
                            "code": "0x7f000000000000000000000000ffffffffffffffffffffffffffffffffffffffff7f00000000000000000000000100000000000000000000000000000000000000007ffffffffffffffffffffffffffffffffffffffffffffffffffffffffffffffffe027f000000000000000000000000000000000000000000000000000000000000c3507fffffffffffffffffffffffffffffffffffffffffffffffffffffffffffffffff6f7d6f6b1051778ea1670387810b58055560005155",
                            "storage": {
                                "0x00": "0x7d6f6b1051778ea1670387810b580555"
                            }
                        }
                    }
                }
            ]
        },
        "config": {
            "blobSchedule": {
                "Cancun": {
                    "target": "0x03",
                    "max": "0x06",
                    "baseFeeUpdateFraction": "0x32f0ed"
                },
                "Prague": {
                    "target": "0x06",
                    "max": "0x09",
                    "baseFeeUpdateFraction": "0x4c6964"
                },
                "Osaka": {
                    "target": "0x06",
                    "max": "0x09",
                    "baseFeeUpdateFraction": "0x4c6964"
                }
            },
            "chainid": "0x01"
        },
        "_info": {
            "hash": "0x774bd2a1c5c1d33be012c716177b0cbe897a6f431bc38856d9592f798bcd9408",
            "comment": "`execution-specs` generated test",
            "filling-transition-tool": "2.18.0rc6",
            "description": "No description available - add a docstring to the python test class or function.",
            "url": "",
            "fixture-format": "state_test"
        }
    },
    "tests/static/state_tests/stRandom2/randomStatetest474Filler.json::randomStatetest474[fork_Prague-state_test-]": {
        "env": {
            "currentCoinbase": "0x0a4b332b2feb2cdd7a8e89357b643bc1608bca03",
            "currentGasLimit": "0x7fffffffffffffff",
            "currentNumber": "0x01",
            "currentTimestamp": "0x03e8",
            "currentRandom": "0x0000000000000000000000000000000000000000000000000000000000020000",
            "currentDifficulty": "0x00",
            "currentBaseFee": "0x0a",
            "currentExcessBlobGas": "0x00"
        },
        "pre": {
            "0x80a911cd6aab782ceabe40dbeb94b651ddc69456": {
                "nonce": "0x00",
                "balance": "0x0de0b6b3a7640000",
                "code": "0x",
                "storage": {}
            },
            "0x0a4b332b2feb2cdd7a8e89357b643bc1608bca03": {
                "nonce": "0x00",
                "balance": "0x2e",
                "code": "0x6000355415600957005b60203560003555",
                "storage": {}
            },
            "0x0a4b332b2feb2cdd7a8e89357b643bc1608bcb03": {
                "nonce": "0x00",
                "balance": "0x00",
                "code": "0x7f000000000000000000000000ffffffffffffffffffffffffffffffffffffffff7f00000000000000000000000100000000000000000000000000000000000000007ffffffffffffffffffffffffffffffffffffffffffffffffffffffffffffffffe027f000000000000000000000000000000000000000000000000000000000000c3507fffffffffffffffffffffffffffffffffffffffffffffffffffffffffffffffff6f7d6f6b1051778ea1670387810b58055560005155",
                "storage": {}
            }
        },
        "transaction": {
            "nonce": "0x00",
            "gasPrice": "0x0a",
            "gasLimit": [
                "0x0186a0"
            ],
            "to": "0x0a4b332b2feb2cdd7a8e89357b643bc1608bcb03",
            "value": [
                "0x7b1abeed"
            ],
            "data": [
                "0x7f000000000000000000000000ffffffffffffffffffffffffffffffffffffffff7f00000000000000000000000100000000000000000000000000000000000000007ffffffffffffffffffffffffffffffffffffffffffffffffffffffffffffffffe027f000000000000000000000000000000000000000000000000000000000000c3507fffffffffffffffffffffffffffffffffffffffffffffffffffffffffffffffff6f7d6f6b1051778ea1670387810b5805"
            ],
            "sender": "0x80a911cd6aab782ceabe40dbeb94b651ddc69456",
            "secretKey": "0x78cb723ae75c15f284a601040a4b332b2feb2cdd7a8e89357b643bc1608bca03"
        },
        "post": {
            "Prague": [
                {
                    "hash": "0xd0215e1157cd0d2a66f04a779ffe4b7bbba6c13c12a010475835ca4e23e50876",
                    "logs": "0x1dcc4de8dec75d7aab85b567b6ccd41ad312451b948a7413f0a142fd40d49347",
                    "txbytes": "0xf9011b800a830186a0940a4b332b2feb2cdd7a8e89357b643bc1608bcb03847b1abeedb8b67f000000000000000000000000ffffffffffffffffffffffffffffffffffffffff7f00000000000000000000000100000000000000000000000000000000000000007ffffffffffffffffffffffffffffffffffffffffffffffffffffffffffffffffe027f000000000000000000000000000000000000000000000000000000000000c3507fffffffffffffffffffffffffffffffffffffffffffffffffffffffffffffffff6f7d6f6b1051778ea1670387810b580526a0fcf5425588829138daa3fe8e5478abd9cb29a57a6ce26acb5828e909bbfb379fa03f98cd050adf40ab9f90e0bba52444b0b9b328c71a583e9e734c8a5803adbfcf",
                    "indexes": {
                        "data": 0,
                        "gas": 0,
                        "value": 0
                    },
                    "state": {
                        "0x80a911cd6aab782ceabe40dbeb94b651ddc69456": {
                            "nonce": "0x01",
                            "balance": "0x0de0b6b32c425cb3",
                            "code": "0x",
                            "storage": {}
                        },
                        "0x0a4b332b2feb2cdd7a8e89357b643bc1608bca03": {
                            "nonce": "0x00",
                            "balance": "0x2e",
                            "code": "0x6000355415600957005b60203560003555",
                            "storage": {}
                        },
                        "0x0a4b332b2feb2cdd7a8e89357b643bc1608bcb03": {
                            "nonce": "0x00",
                            "balance": "0x7b1abeed",
                            "code": "0x7f000000000000000000000000ffffffffffffffffffffffffffffffffffffffff7f00000000000000000000000100000000000000000000000000000000000000007ffffffffffffffffffffffffffffffffffffffffffffffffffffffffffffffffe027f000000000000000000000000000000000000000000000000000000000000c3507fffffffffffffffffffffffffffffffffffffffffffffffffffffffffffffffff6f7d6f6b1051778ea1670387810b58055560005155",
                            "storage": {
                                "0x00": "0x7d6f6b1051778ea1670387810b580555"
                            }
                        }
                    }
                }
            ]
        },
        "config": {
            "blobSchedule": {
                "Cancun": {
                    "target": "0x03",
                    "max": "0x06",
                    "baseFeeUpdateFraction": "0x32f0ed"
                },
                "Prague": {
                    "target": "0x06",
                    "max": "0x09",
                    "baseFeeUpdateFraction": "0x4c6964"
                }
            },
            "chainid": "0x01"
        },
        "_info": {
            "hash": "0x78b074607a48b665ad3916433685127ba257c4bd76314b9199ddf17b8b5a49c3",
            "comment": "`execution-specs` generated test",
            "filling-transition-tool": "2.18.0rc6",
            "description": "No description available - add a docstring to the python test class or function.",
            "url": "",
            "fixture-format": "state_test"
        }
    }
}