{
    "tests/static/state_tests/stRandom2/randomStatetest563Filler.json::randomStatetest563[fork_Cancun-state_test-]": {
        "env": {
            "currentCoinbase": "0xb7d3c97c300065c789e23c0006fed8ac88351ddd",
            "currentGasLimit": "0x7fffffffffffffff",
            "currentNumber": "0x01",
            "currentTimestamp": "0x03e8",
            "currentRandom": "0x0000000000000000000000000000000000000000000000000000000000020000",
            "currentDifficulty": "0x00",
            "currentBaseFee": "0x0a",
            "currentExcessBlobGas": "0x00"
        },
        "pre": {
            "0x79d7a16ecfdd97b519e8d138522b4501e10cff25": {
                "nonce": "0x00",
                "balance": "0x0de0b6b3a7640000",
                "code": "0x",
                "storage": {}
            },
            "0xb7d3c97c300065c789e23c0006fed8ac88351ddd": {
                "nonce": "0x00",
                "balance": "0x2e",
                "code": "0x6000355415600957005b60203560003555",
                "storage": {}
            },
            "0xb7d3c97c300065c789e23c0006fed8ac88351edd": {
                "nonce": "0x00",
                "balance": "0x00",
                "code": "0x7ffffffffffffffffffffffffffffffffffffffffffffffffffffffffffffffffe7f00000000000000000000000000000000000000000000000000000000000000007ffffffffffffffffffffffffffffffffffffffffffffffffffffffffffffffffe7ffffffffffffffffffffffffffffffffffffffffffffffffffffffffffffffffe418b7f000000000000000000000000ffffffffffffffffffffffffffffffffffffffff7f000000000000000000000000b7d3c97c300065c789e23c0006fed8ac88351ddd0461098038315ba267",
                "storage": {}
            }
        },
        "transaction": {
            "nonce": "0x00",
            "gasPrice": "0x0a",
            "gasLimit": [
                "0x0186a0"
            ],
            "to": "0xb7d3c97c300065c789e23c0006fed8ac88351edd",
            "value": [
                "0x4c814c67"
            ],
            "data": [
                "0x7ffffffffffffffffffffffffffffffffffffffffffffffffffffffffffffffffe7f00000000000000000000000000000000000000000000000000000000000000007ffffffffffffffffffffffffffffffffffffffffffffffffffffffffffffffffe7ffffffffffffffffffffffffffffffffffffffffffffffffffffffffffffffffe418b7f000000000000000000000000ffffffffffffffffffffffffffffffffffffffff7f000000000000000000000000b7d3c97c300065c789e23c0006fed8ac88351ddd0461098038315ba267"
            ],
            "sender": "0x79d7a16ecfdd97b519e8d138522b4501e10cff25",
            "secretKey": "0x000bfe416b6b8872b807a5abb7d3c97c300065c789e23c0006fed8ac88351ddd"
        },
        "post": {
            "Cancun": [
                {
                    "hash": "0xb6a874deecfea023958476f706022692e744b5211437b3078d0e2c1891d41f0f",
                    "logs": "0x1dcc4de8dec75d7aab85b567b6ccd41ad312451b948a7413f0a142fd40d49347",
                    "txbytes": "0xf90136800a830186a094b7d3c97c300065c789e23c0006fed8ac88351edd844c814c67b8d17ffffffffffffffffffffffffffffffffffffffffffffffffffffffffffffffffe7f00000000000000000000000000000000000000000000000000000000000000007ffffffffffffffffffffffffffffffffffffffffffffffffffffffffffffffffe7ffffffffffffffffffffffffffffffffffffffffffffffffffffffffffffffffe418b7f000000000000000000000000ffffffffffffffffffffffffffffffffffffffff7f000000000000000000000000b7d3c97c300065c789e23c0006fed8ac88351ddd0461098038315ba26725a0b62641e85d690f24ea18fc6b565a18ffdec7bbb04aa96828bcb6de362ab07678a045debfcf8672efc6c5c97278917b811b5639f71fb11269608c4b56192760b5c9",
                    "indexes": {
                        "data": 0,
                        "gas": 0,
                        "value": 0
                    },
                    "state": {
                        "0x79d7a16ecfdd97b519e8d138522b4501e10cff25": {
                            "nonce": "0x01",
                            "balance": "0x0de0b6b3a754bdc0",
                            "code": "0x",
                            "storage": {}
                        },
                        "0xb7d3c97c300065c789e23c0006fed8ac88351ddd": {
                            "nonce": "0x00",
                            "balance": "0x2e",
                            "code": "0x6000355415600957005b60203560003555",
                            "storage": {}
                        },
                        "0xb7d3c97c300065c789e23c0006fed8ac88351edd": {
                            "nonce": "0x00",
                            "balance": "0x00",
                            "code": "0x7ffffffffffffffffffffffffffffffffffffffffffffffffffffffffffffffffe7f00000000000000000000000000000000000000000000000000000000000000007ffffffffffffffffffffffffffffffffffffffffffffffffffffffffffffffffe7ffffffffffffffffffffffffffffffffffffffffffffffffffffffffffffffffe418b7f000000000000000000000000ffffffffffffffffffffffffffffffffffffffff7f000000000000000000000000b7d3c97c300065c789e23c0006fed8ac88351ddd0461098038315ba267",
                            "storage": {}
                        }
                    }
                }
            ]
        },
        "config": {
            "blobSchedule": {
                "Cancun": {
                    "target": "0x03",
                    "max": "0x06",
                    "baseFeeUpdateFraction": "0x32f0ed"
                }
            },
            "chainid": "0x01"
        },
        "_info": {
            "hash": "0xe2d67e011e7cb9598b501daa9318ad1eb822b357687ca0df8db8f476824891f5",
            "comment": "`execution-specs` generated test",
            "filling-transition-tool": "2.18.0rc6",
            "description": "No description available - add a docstring to the python test class or function.",
            "url": "",
            "fixture-format": "state_test"
        }
    },
    "tests/static/state_tests/stRandom2/randomStatetest563Filler.json::randomStatetest563[fork_Osaka-state_test-]": {
        "env": {
            "currentCoinbase": "0xb7d3c97c300065c789e23c0006fed8ac88351ddd",
            "currentGasLimit": "0x7fffffffffffffff",
            "currentNumber": "0x01",
            "currentTimestamp": "0x03e8",
            "currentRandom": "0x0000000000000000000000000000000000000000000000000000000000020000",
            "currentDifficulty": "0x00",
            "currentBaseFee": "0x0a",
            "currentExcessBlobGas": "0x00"
        },
        "pre": {
            "0x79d7a16ecfdd97b519e8d138522b4501e10cff25": {
                "nonce": "0x00",
                "balance": "0x0de0b6b3a7640000",
                "code": "0x",
                "storage": {}
            },
            "0xb7d3c97c300065c789e23c0006fed8ac88351ddd": {
                "nonce": "0x00",
                "balance": "0x2e",
                "code": "0x6000355415600957005b60203560003555",
                "storage": {}
            },
            "0xb7d3c97c300065c789e23c0006fed8ac88351edd": {
                "nonce": "0x00",
                "balance": "0x00",
                "code": "0x7ffffffffffffffffffffffffffffffffffffffffffffffffffffffffffffffffe7f00000000000000000000000000000000000000000000000000000000000000007ffffffffffffffffffffffffffffffffffffffffffffffffffffffffffffffffe7ffffffffffffffffffffffffffffffffffffffffffffffffffffffffffffffffe418b7f000000000000000000000000ffffffffffffffffffffffffffffffffffffffff7f000000000000000000000000b7d3c97c300065c789e23c0006fed8ac88351ddd0461098038315ba267",
                "storage": {}
            }
        },
        "transaction": {
            "nonce": "0x00",
            "gasPrice": "0x0a",
            "gasLimit": [
                "0x0186a0"
            ],
            "to": "0xb7d3c97c300065c789e23c0006fed8ac88351edd",
            "value": [
                "0x4c814c67"
            ],
            "data": [
                "0x7ffffffffffffffffffffffffffffffffffffffffffffffffffffffffffffffffe7f00000000000000000000000000000000000000000000000000000000000000007ffffffffffffffffffffffffffffffffffffffffffffffffffffffffffffffffe7ffffffffffffffffffffffffffffffffffffffffffffffffffffffffffffffffe418b7f000000000000000000000000ffffffffffffffffffffffffffffffffffffffff7f000000000000000000000000b7d3c97c300065c789e23c0006fed8ac88351ddd0461098038315ba267"
            ],
            "sender": "0x79d7a16ecfdd97b519e8d138522b4501e10cff25",
            "secretKey": "0x000bfe416b6b8872b807a5abb7d3c97c300065c789e23c0006fed8ac88351ddd"
        },
        "post": {
            "Osaka": [
                {
                    "hash": "0xb6a874deecfea023958476f706022692e744b5211437b3078d0e2c1891d41f0f",
                    "logs": "0x1dcc4de8dec75d7aab85b567b6ccd41ad312451b948a7413f0a142fd40d49347",
                    "txbytes": "0xf90136800a830186a094b7d3c97c300065c789e23c0006fed8ac88351edd844c814c67b8d17ffffffffffffffffffffffffffffffffffffffffffffffffffffffffffffffffe7f00000000000000000000000000000000000000000000000000000000000000007ffffffffffffffffffffffffffffffffffffffffffffffffffffffffffffffffe7ffffffffffffffffffffffffffffffffffffffffffffffffffffffffffffffffe418b7f000000000000000000000000ffffffffffffffffffffffffffffffffffffffff7f000000000000000000000000b7d3c97c300065c789e23c0006fed8ac88351ddd0461098038315ba26725a0b62641e85d690f24ea18fc6b565a18ffdec7bbb04aa96828bcb6de362ab07678a045debfcf8672efc6c5c97278917b811b5639f71fb11269608c4b56192760b5c9",
                    "indexes": {
                        "data": 0,
                        "gas": 0,
                        "value": 0
                    },
                    "state": {
                        "0x79d7a16ecfdd97b519e8d138522b4501e10cff25": {
                            "nonce": "0x01",
                            "balance": "0x0de0b6b3a754bdc0",
                            "code": "0x",
                            "storage": {}
                        },
                        "0xb7d3c97c300065c789e23c0006fed8ac88351ddd": {
                            "nonce": "0x00",
                            "balance": "0x2e",
                            "code": "0x6000355415600957005b60203560003555",
                            "storage": {}
                        },
                        "0xb7d3c97c300065c789e23c0006fed8ac88351edd": {
                            "nonce": "0x00",
                            "balance": "0x00",
                            "code": "0x7ffffffffffffffffffffffffffffffffffffffffffffffffffffffffffffffffe7f00000000000000000000000000000000000000000000000000000000000000007ffffffffffffffffffffffffffffffffffffffffffffffffffffffffffffffffe7ffffffffffffffffffffffffffffffffffffffffffffffffffffffffffffffffe418b7f000000000000000000000000ffffffffffffffffffffffffffffffffffffffff7f000000000000000000000000b7d3c97c300065c789e23c0006fed8ac88351ddd0461098038315ba267",
                            "storage": {}
                        }
                    }
                }
            ]
        },
        "config": {
            "blobSchedule": {
                "Cancun": {
                    "target": "0x03",
                    "max": "0x06",
                    "baseFeeUpdateFraction": "0x32f0ed"
                },
                "Prague": {
                    "target": "0x06",
                    "max": "0x09",
                    "baseFeeUpdateFraction": "0x4c6964"
                },
                "Osaka": {
                    "target": "0x06",
                    "max": "0x09",
                    "baseFeeUpdateFraction": "0x4c6964"
                }
            },
            "chainid": "0x01"
        },
        "_info": {
            "hash": "0x358c4aa66809fcc603a37f25341471c0b79a626eed90f97779d90f3c298bfe2e",
            "comment": "`execution-specs` generated test",
            "filling-transition-tool": "2.18.0rc6",
            "description": "No description available - add a docstring to the python test class or function.",
            "url": "",
            "fixture-format": "state_test"
        }
    },
    "tests/static/state_tests/stRandom2/randomStatetest563Filler.json::randomStatetest563[fork_Prague-state_test-]": {
        "env": {
            "currentCoinbase": "0xb7d3c97c300065c789e23c0006fed8ac88351ddd",
            "currentGasLimit": "0x7fffffffffffffff",
            "currentNumber": "0x01",
            "currentTimestamp": "0x03e8",
            "currentRandom": "0x0000000000000000000000000000000000000000000000000000000000020000",
            "currentDifficulty": "0x00",
            "currentBaseFee": "0x0a",
            "currentExcessBlobGas": "0x00"
        },
        "pre": {
            "0x79d7a16ecfdd97b519e8d138522b4501e10cff25": {
                "nonce": "0x00",
                "balance": "0x0de0b6b3a7640000",
                "code": "0x",
                "storage": {}
            },
            "0xb7d3c97c300065c789e23c0006fed8ac88351ddd": {
                "nonce": "0x00",
                "balance": "0x2e",
                "code": "0x6000355415600957005b60203560003555",
                "storage": {}
            },
            "0xb7d3c97c300065c789e23c0006fed8ac88351edd": {
                "nonce": "0x00",
                "balance": "0x00",
                "code": "0x7ffffffffffffffffffffffffffffffffffffffffffffffffffffffffffffffffe7f00000000000000000000000000000000000000000000000000000000000000007ffffffffffffffffffffffffffffffffffffffffffffffffffffffffffffffffe7ffffffffffffffffffffffffffffffffffffffffffffffffffffffffffffffffe418b7f000000000000000000000000ffffffffffffffffffffffffffffffffffffffff7f000000000000000000000000b7d3c97c300065c789e23c0006fed8ac88351ddd0461098038315ba267",
                "storage": {}
            }
        },
        "transaction": {
            "nonce": "0x00",
            "gasPrice": "0x0a",
            "gasLimit": [
                "0x0186a0"
            ],
            "to": "0xb7d3c97c300065c789e23c0006fed8ac88351edd",
            "value": [
                "0x4c814c67"
            ],
            "data": [
                "0x7ffffffffffffffffffffffffffffffffffffffffffffffffffffffffffffffffe7f00000000000000000000000000000000000000000000000000000000000000007ffffffffffffffffffffffffffffffffffffffffffffffffffffffffffffffffe7ffffffffffffffffffffffffffffffffffffffffffffffffffffffffffffffffe418b7f000000000000000000000000ffffffffffffffffffffffffffffffffffffffff7f000000000000000000000000b7d3c97c300065c789e23c0006fed8ac88351ddd0461098038315ba267"
            ],
            "sender": "0x79d7a16ecfdd97b519e8d138522b4501e10cff25",
            "secretKey": "0x000bfe416b6b8872b807a5abb7d3c97c300065c789e23c0006fed8ac88351ddd"
        },
        "post": {
            "Prague": [
                {
                    "hash": "0xb6a874deecfea023958476f706022692e744b5211437b3078d0e2c1891d41f0f",
                    "logs": "0x1dcc4de8dec75d7aab85b567b6ccd41ad312451b948a7413f0a142fd40d49347",
                    "txbytes": "0xf90136800a830186a094b7d3c97c300065c789e23c0006fed8ac88351edd844c814c67b8d17ffffffffffffffffffffffffffffffffffffffffffffffffffffffffffffffffe7f00000000000000000000000000000000000000000000000000000000000000007ffffffffffffffffffffffffffffffffffffffffffffffffffffffffffffffffe7ffffffffffffffffffffffffffffffffffffffffffffffffffffffffffffffffe418b7f000000000000000000000000ffffffffffffffffffffffffffffffffffffffff7f000000000000000000000000b7d3c97c300065c789e23c0006fed8ac88351ddd0461098038315ba26725a0b62641e85d690f24ea18fc6b565a18ffdec7bbb04aa96828bcb6de362ab07678a045debfcf8672efc6c5c97278917b811b5639f71fb11269608c4b56192760b5c9",
                    "indexes": {
                        "data": 0,
                        "gas": 0,
                        "value": 0
                    },
                    "state": {
                        "0x79d7a16ecfdd97b519e8d138522b4501e10cff25": {
                            "nonce": "0x01",
                            "balance": "0x0de0b6b3a754bdc0",
                            "code": "0x",
                            "storage": {}
                        },
                        "0xb7d3c97c300065c789e23c0006fed8ac88351ddd": {
                            "nonce": "0x00",
                            "balance": "0x2e",
                            "code": "0x6000355415600957005b60203560003555",
                            "storage": {}
                        },
                        "0xb7d3c97c300065c789e23c0006fed8ac88351edd": {
                            "nonce": "0x00",
                            "balance": "0x00",
                            "code": "0x7ffffffffffffffffffffffffffffffffffffffffffffffffffffffffffffffffe7f00000000000000000000000000000000000000000000000000000000000000007ffffffffffffffffffffffffffffffffffffffffffffffffffffffffffffffffe7ffffffffffffffffffffffffffffffffffffffffffffffffffffffffffffffffe418b7f000000000000000000000000ffffffffffffffffffffffffffffffffffffffff7f000000000000000000000000b7d3c97c300065c789e23c0006fed8ac88351ddd0461098038315ba267",
                            "storage": {}
                        }
                    }
                }
            ]
        },
        "config": {
            "blobSchedule": {
                "Cancun": {
                    "target": "0x03",
                    "max": "0x06",
                    "baseFeeUpdateFraction": "0x32f0ed"
                },
                "Prague": {
                    "target": "0x06",
                    "max": "0x09",
                    "baseFeeUpdateFraction": "0x4c6964"
                }
            },
            "chainid": "0x01"
        },
        "_info": {
            "hash": "0x1c6d306adb392da31800596c1077a818b59a8cc00cbc33904c7b9aff72d11927",
            "comment": "`execution-specs` generated test",
            "filling-transition-tool": "2.18.0rc6",
            "description": "No description available - add a docstring to the python test class or function.",
            "url": "",
            "fixture-format": "state_test"
        }
    }
}