{
    "tests/static/state_tests/stRandom2/randomStatetestFiller.json::randomStatetest[fork_Cancun-state_test-]": {
        "env": {
            "currentCoinbase": "0x9784fa9a2bf137a494e876de2c4206b61d378881",
            "currentGasLimit": "0x7fffffffffffffff",
            "currentNumber": "0x01",
            "currentTimestamp": "0x03e8",
            "currentRandom": "0x0000000000000000000000000000000000000000000000000000000000020000",
            "currentDifficulty": "0x00",
            "currentBaseFee": "0x0a",
            "currentExcessBlobGas": "0x00"
        },
        "pre": {
            "0x9a6cdcd88d5340c0e0cc08487c8861cbc98a2c53": {
                "nonce": "0x00",
                "balance": "0x0de0b6b3a7640000",
                "code": "0x",
                "storage": {}
            },
            "0x9784fa9a2bf137a494e876de2c4206b61d378881": {
                "nonce": "0x00",
                "balance": "0x2e",
                "code": "0x6000355415600957005b60203560003555",
                "storage": {}
            },
            "0x9784fa9a2bf137a494e876de2c4206b61d378981": {
                "nonce": "0x00",
                "balance": "0x00",
                "code": "0x7ffffffffffffffffffffffffffffffffffffffffffffffffffffffffffffffffe7f000000000000000000000000ffffffffffffffffffffffffffffffffffffffff7f00000000000000000000000000000000000000000000000000000000000000017f000000000000000000000000000000000000000000000000000000000000c3507f00000000000000000000000000000000000000000000000000000000000000007f0000000000000000000000009784fa9a2bf137a494e876de2c4206b61d3788817f000000000000000000000000ffffffffffffffffffffffffffffffffffffffff7ffffffffffffffffffffffffffffffffffffffffffffffffffffffffffffffffe6f29199c9aa4054170f1a15a55056f965560005155",
                "storage": {}
            }
        },
        "transaction": {
            "nonce": "0x00",
            "gasPrice": "0x0a",
            "gasLimit": [
                "0x0186a0"
            ],
            "to": "0x9784fa9a2bf137a494e876de2c4206b61d378981",
            "value": [
                "0x0f08f864"
            ],
            "data": [
                "0x7ffffffffffffffffffffffffffffffffffffffffffffffffffffffffffffffffe7f000000000000000000000000ffffffffffffffffffffffffffffffffffffffff7f00000000000000000000000000000000000000000000000000000000000000017f000000000000000000000000000000000000000000000000000000000000c3507f00000000000000000000000000000000000000000000000000000000000000007f0000000000000000000000009784fa9a2bf137a494e876de2c4206b61d3788817f000000000000000000000000ffffffffffffffffffffffffffffffffffffffff7ffffffffffffffffffffffffffffffffffffffffffffffffffffffffffffffffe6f29199c9aa4054170f1a15a55056f96"
            ],
            "sender": "0x9a6cdcd88d5340c0e0cc08487c8861cbc98a2c53",
            "secretKey": "0x33f28d94d639e9d4caa343b09784fa9a2bf137a494e876de2c4206b61d378881"
        },
        "post": {
            "Cancun": [
                {
                    "hash": "0xf79b5f9b349fbea7762b04d1e438c05bd750d87116455230aca334e100d97674",
                    "logs": "0x1dcc4de8dec75d7aab85b567b6ccd41ad312451b948a7413f0a142fd40d49347",
                    "txbytes": "0xf9017e800a830186a0949784fa9a2bf137a494e876de2c4206b61d378981840f08f864b901187ffffffffffffffffffffffffffffffffffffffffffffffffffffffffffffffffe7f000000000000000000000000ffffffffffffffffffffffffffffffffffffffff7f00000000000000000000000000000000000000000000000000000000000000017f000000000000000000000000000000000000000000000000000000000000c3507f00000000000000000000000000000000000000000000000000000000000000007f0000000000000000000000009784fa9a2bf137a494e876de2c4206b61d3788817f000000000000000000000000ffffffffffffffffffffffffffffffffffffffff7ffffffffffffffffffffffffffffffffffffffffffffffffffffffffffffffffe6f29199c9aa4054170f1a15a55056f9625a07db3a7f00fd2c935e9b708da467f7b3044d136c50bcd0fcad6a8ce1c6520098ca03013ab1449d04eb098546b8455839939e05325d38f8c7a2075e26421fc9df980",
                    "indexes": {
                        "data": 0,
                        "gas": 0,
                        "value": 0
                    },
                    "state": {
                        "0x9a6cdcd88d5340c0e0cc08487c8861cbc98a2c53": {
                            "nonce": "0x01",
                            "balance": "0x0de0b6b398540014",
                            "code": "0x",
                            "storage": {}
                        },
                        "0x9784fa9a2bf137a494e876de2c4206b61d378881": {
                            "nonce": "0x00",
                            "balance": "0x2e",
                            "code": "0x6000355415600957005b60203560003555",
                            "storage": {}
                        },
                        "0x9784fa9a2bf137a494e876de2c4206b61d378981": {
                            "nonce": "0x00",
                            "balance": "0x0f08f864",
                            "code": "0x7ffffffffffffffffffffffffffffffffffffffffffffffffffffffffffffffffe7f000000000000000000000000ffffffffffffffffffffffffffffffffffffffff7f00000000000000000000000000000000000000000000000000000000000000017f000000000000000000000000000000000000000000000000000000000000c3507f00000000000000000000000000000000000000000000000000000000000000007f0000000000000000000000009784fa9a2bf137a494e876de2c4206b61d3788817f000000000000000000000000ffffffffffffffffffffffffffffffffffffffff7ffffffffffffffffffffffffffffffffffffffffffffffffffffffffffffffffe6f29199c9aa4054170f1a15a55056f965560005155",
                            "storage": {
                                "0x00": "0x29199c9aa4054170f1a15a55056f9655"
                            }
                        }
                    }
                }
            ]
        },
        "config": {
            "blobSchedule": {
                "Cancun": {
                    "target": "0x03",
                    "max": "0x06",
                    "baseFeeUpdateFraction": "0x32f0ed"
                }
            },
            "chainid": "0x01"
        },
        "_info": {
            "hash": "0x558b7767a6bbf4fde600935c070db14aef980749522f3425a0d48f6cb73b5677",
            "comment": "`execution-spec-tests` generated test",
            "filling-transition-tool": "ethereum-spec-evm-resolver 0.0.5",
            "description": "No description available - add a docstring to the python test class or function.",
            "url": "",
            "fixture-format": "state_test",
            "eels-resolution": {
                "git-url": "https://github.com/ethereum/execution-specs.git",
                "branch": "forks/bpos",
                "commit": "7aacb2c54111391af5e98c505d5010b5698a770f"
            }
        }
    },
    "tests/static/state_tests/stRandom2/randomStatetestFiller.json::randomStatetest[fork_Osaka-state_test-]": {
        "env": {
            "currentCoinbase": "0x9784fa9a2bf137a494e876de2c4206b61d378881",
            "currentGasLimit": "0x7fffffffffffffff",
            "currentNumber": "0x01",
            "currentTimestamp": "0x03e8",
            "currentRandom": "0x0000000000000000000000000000000000000000000000000000000000020000",
            "currentDifficulty": "0x00",
            "currentBaseFee": "0x0a",
            "currentExcessBlobGas": "0x00"
        },
        "pre": {
            "0x9a6cdcd88d5340c0e0cc08487c8861cbc98a2c53": {
                "nonce": "0x00",
                "balance": "0x0de0b6b3a7640000",
                "code": "0x",
                "storage": {}
            },
            "0x9784fa9a2bf137a494e876de2c4206b61d378881": {
                "nonce": "0x00",
                "balance": "0x2e",
                "code": "0x6000355415600957005b60203560003555",
                "storage": {}
            },
            "0x9784fa9a2bf137a494e876de2c4206b61d378981": {
                "nonce": "0x00",
                "balance": "0x00",
                "code": "0x7ffffffffffffffffffffffffffffffffffffffffffffffffffffffffffffffffe7f000000000000000000000000ffffffffffffffffffffffffffffffffffffffff7f00000000000000000000000000000000000000000000000000000000000000017f000000000000000000000000000000000000000000000000000000000000c3507f00000000000000000000000000000000000000000000000000000000000000007f0000000000000000000000009784fa9a2bf137a494e876de2c4206b61d3788817f000000000000000000000000ffffffffffffffffffffffffffffffffffffffff7ffffffffffffffffffffffffffffffffffffffffffffffffffffffffffffffffe6f29199c9aa4054170f1a15a55056f965560005155",
                "storage": {}
            }
        },
        "transaction": {
            "nonce": "0x00",
            "gasPrice": "0x0a",
            "gasLimit": [
                "0x0186a0"
            ],
            "to": "0x9784fa9a2bf137a494e876de2c4206b61d378981",
            "value": [
                "0x0f08f864"
            ],
            "data": [
                "0x7ffffffffffffffffffffffffffffffffffffffffffffffffffffffffffffffffe7f000000000000000000000000ffffffffffffffffffffffffffffffffffffffff7f00000000000000000000000000000000000000000000000000000000000000017f000000000000000000000000000000000000000000000000000000000000c3507f00000000000000000000000000000000000000000000000000000000000000007f0000000000000000000000009784fa9a2bf137a494e876de2c4206b61d3788817f000000000000000000000000ffffffffffffffffffffffffffffffffffffffff7ffffffffffffffffffffffffffffffffffffffffffffffffffffffffffffffffe6f29199c9aa4054170f1a15a55056f96"
            ],
            "sender": "0x9a6cdcd88d5340c0e0cc08487c8861cbc98a2c53",
            "secretKey": "0x33f28d94d639e9d4caa343b09784fa9a2bf137a494e876de2c4206b61d378881"
        },
        "post": {
            "Osaka": [
                {
                    "hash": "0xf79b5f9b349fbea7762b04d1e438c05bd750d87116455230aca334e100d97674",
                    "logs": "0x1dcc4de8dec75d7aab85b567b6ccd41ad312451b948a7413f0a142fd40d49347",
                    "txbytes": "0xf9017e800a830186a0949784fa9a2bf137a494e876de2c4206b61d378981840f08f864b901187ffffffffffffffffffffffffffffffffffffffffffffffffffffffffffffffffe7f000000000000000000000000ffffffffffffffffffffffffffffffffffffffff7f00000000000000000000000000000000000000000000000000000000000000017f000000000000000000000000000000000000000000000000000000000000c3507f00000000000000000000000000000000000000000000000000000000000000007f0000000000000000000000009784fa9a2bf137a494e876de2c4206b61d3788817f000000000000000000000000ffffffffffffffffffffffffffffffffffffffff7ffffffffffffffffffffffffffffffffffffffffffffffffffffffffffffffffe6f29199c9aa4054170f1a15a55056f9625a07db3a7f00fd2c935e9b708da467f7b3044d136c50bcd0fcad6a8ce1c6520098ca03013ab1449d04eb098546b8455839939e05325d38f8c7a2075e26421fc9df980",
                    "indexes": {
                        "data": 0,
                        "gas": 0,
                        "value": 0
                    },
                    "state": {
                        "0x9a6cdcd88d5340c0e0cc08487c8861cbc98a2c53": {
                            "nonce": "0x01",
                            "balance": "0x0de0b6b398540014",
                            "code": "0x",
                            "storage": {}
                        },
                        "0x9784fa9a2bf137a494e876de2c4206b61d378881": {
                            "nonce": "0x00",
                            "balance": "0x2e",
                            "code": "0x6000355415600957005b60203560003555",
                            "storage": {}
                        },
                        "0x9784fa9a2bf137a494e876de2c4206b61d378981": {
                            "nonce": "0x00",
                            "balance": "0x0f08f864",
                            "code": "0x7ffffffffffffffffffffffffffffffffffffffffffffffffffffffffffffffffe7f000000000000000000000000ffffffffffffffffffffffffffffffffffffffff7f00000000000000000000000000000000000000000000000000000000000000017f000000000000000000000000000000000000000000000000000000000000c3507f00000000000000000000000000000000000000000000000000000000000000007f0000000000000000000000009784fa9a2bf137a494e876de2c4206b61d3788817f000000000000000000000000ffffffffffffffffffffffffffffffffffffffff7ffffffffffffffffffffffffffffffffffffffffffffffffffffffffffffffffe6f29199c9aa4054170f1a15a55056f965560005155",
                            "storage": {
                                "0x00": "0x29199c9aa4054170f1a15a55056f9655"
                            }
                        }
                    }
                }
            ]
        },
        "config": {
            "blobSchedule": {
                "Cancun": {
                    "target": "0x03",
                    "max": "0x06",
                    "baseFeeUpdateFraction": "0x32f0ed"
                },
                "Prague": {
                    "target": "0x06",
                    "max": "0x09",
                    "baseFeeUpdateFraction": "0x4c6964"
                },
                "Osaka": {
                    "target": "0x06",
                    "max": "0x09",
                    "baseFeeUpdateFraction": "0x4c6964"
                }
            },
            "chainid": "0x01"
        },
        "_info": {
            "hash": "0xaf0f11d0da2afc89433bdd7862d20fd46649a063d6057f2bb9b6832f98c09b5e",
            "comment": "`execution-spec-tests` generated test",
            "filling-transition-tool": "ethereum-spec-evm-resolver 0.0.5",
            "description": "No description available - add a docstring to the python test class or function.",
            "url": "",
            "fixture-format": "state_test",
            "eels-resolution": {
                "git-url": "https://github.com/ethereum/execution-specs.git",
                "branch": "forks/bpos",
                "commit": "7aacb2c54111391af5e98c505d5010b5698a770f"
            }
        }
    },
    "tests/static/state_tests/stRandom2/randomStatetestFiller.json::randomStatetest[fork_Prague-state_test-]": {
        "env": {
            "currentCoinbase": "0x9784fa9a2bf137a494e876de2c4206b61d378881",
            "currentGasLimit": "0x7fffffffffffffff",
            "currentNumber": "0x01",
            "currentTimestamp": "0x03e8",
            "currentRandom": "0x0000000000000000000000000000000000000000000000000000000000020000",
            "currentDifficulty": "0x00",
            "currentBaseFee": "0x0a",
            "currentExcessBlobGas": "0x00"
        },
        "pre": {
            "0x9a6cdcd88d5340c0e0cc08487c8861cbc98a2c53": {
                "nonce": "0x00",
                "balance": "0x0de0b6b3a7640000",
                "code": "0x",
                "storage": {}
            },
            "0x9784fa9a2bf137a494e876de2c4206b61d378881": {
                "nonce": "0x00",
                "balance": "0x2e",
                "code": "0x6000355415600957005b60203560003555",
                "storage": {}
            },
            "0x9784fa9a2bf137a494e876de2c4206b61d378981": {
                "nonce": "0x00",
                "balance": "0x00",
                "code": "0x7ffffffffffffffffffffffffffffffffffffffffffffffffffffffffffffffffe7f000000000000000000000000ffffffffffffffffffffffffffffffffffffffff7f00000000000000000000000000000000000000000000000000000000000000017f000000000000000000000000000000000000000000000000000000000000c3507f00000000000000000000000000000000000000000000000000000000000000007f0000000000000000000000009784fa9a2bf137a494e876de2c4206b61d3788817f000000000000000000000000ffffffffffffffffffffffffffffffffffffffff7ffffffffffffffffffffffffffffffffffffffffffffffffffffffffffffffffe6f29199c9aa4054170f1a15a55056f965560005155",
                "storage": {}
            }
        },
        "transaction": {
            "nonce": "0x00",
            "gasPrice": "0x0a",
            "gasLimit": [
                "0x0186a0"
            ],
            "to": "0x9784fa9a2bf137a494e876de2c4206b61d378981",
            "value": [
                "0x0f08f864"
            ],
            "data": [
                "0x7ffffffffffffffffffffffffffffffffffffffffffffffffffffffffffffffffe7f000000000000000000000000ffffffffffffffffffffffffffffffffffffffff7f00000000000000000000000000000000000000000000000000000000000000017f000000000000000000000000000000000000000000000000000000000000c3507f00000000000000000000000000000000000000000000000000000000000000007f0000000000000000000000009784fa9a2bf137a494e876de2c4206b61d3788817f000000000000000000000000ffffffffffffffffffffffffffffffffffffffff7ffffffffffffffffffffffffffffffffffffffffffffffffffffffffffffffffe6f29199c9aa4054170f1a15a55056f96"
            ],
            "sender": "0x9a6cdcd88d5340c0e0cc08487c8861cbc98a2c53",
            "secretKey": "0x33f28d94d639e9d4caa343b09784fa9a2bf137a494e876de2c4206b61d378881"
        },
        "post": {
            "Prague": [
                {
                    "hash": "0xf79b5f9b349fbea7762b04d1e438c05bd750d87116455230aca334e100d97674",
                    "logs": "0x1dcc4de8dec75d7aab85b567b6ccd41ad312451b948a7413f0a142fd40d49347",
                    "txbytes": "0xf9017e800a830186a0949784fa9a2bf137a494e876de2c4206b61d378981840f08f864b901187ffffffffffffffffffffffffffffffffffffffffffffffffffffffffffffffffe7f000000000000000000000000ffffffffffffffffffffffffffffffffffffffff7f00000000000000000000000000000000000000000000000000000000000000017f000000000000000000000000000000000000000000000000000000000000c3507f00000000000000000000000000000000000000000000000000000000000000007f0000000000000000000000009784fa9a2bf137a494e876de2c4206b61d3788817f000000000000000000000000ffffffffffffffffffffffffffffffffffffffff7ffffffffffffffffffffffffffffffffffffffffffffffffffffffffffffffffe6f29199c9aa4054170f1a15a55056f9625a07db3a7f00fd2c935e9b708da467f7b3044d136c50bcd0fcad6a8ce1c6520098ca03013ab1449d04eb098546b8455839939e05325d38f8c7a2075e26421fc9df980",
                    "indexes": {
                        "data": 0,
                        "gas": 0,
                        "value": 0
                    },
                    "state": {
                        "0x9a6cdcd88d5340c0e0cc08487c8861cbc98a2c53": {
                            "nonce": "0x01",
                            "balance": "0x0de0b6b398540014",
                            "code": "0x",
                            "storage": {}
                        },
                        "0x9784fa9a2bf137a494e876de2c4206b61d378881": {
                            "nonce": "0x00",
                            "balance": "0x2e",
                            "code": "0x6000355415600957005b60203560003555",
                            "storage": {}
                        },
                        "0x9784fa9a2bf137a494e876de2c4206b61d378981": {
                            "nonce": "0x00",
                            "balance": "0x0f08f864",
                            "code": "0x7ffffffffffffffffffffffffffffffffffffffffffffffffffffffffffffffffe7f000000000000000000000000ffffffffffffffffffffffffffffffffffffffff7f00000000000000000000000000000000000000000000000000000000000000017f000000000000000000000000000000000000000000000000000000000000c3507f00000000000000000000000000000000000000000000000000000000000000007f0000000000000000000000009784fa9a2bf137a494e876de2c4206b61d3788817f000000000000000000000000ffffffffffffffffffffffffffffffffffffffff7ffffffffffffffffffffffffffffffffffffffffffffffffffffffffffffffffe6f29199c9aa4054170f1a15a55056f965560005155",
                            "storage": {
                                "0x00": "0x29199c9aa4054170f1a15a55056f9655"
                            }
                        }
                    }
                }
            ]
        },
        "config": {
            "blobSchedule": {
                "Cancun": {
                    "target": "0x03",
                    "max": "0x06",
                    "baseFeeUpdateFraction": "0x32f0ed"
                },
                "Prague": {
                    "target": "0x06",
                    "max": "0x09",
                    "baseFeeUpdateFraction": "0x4c6964"
                }
            },
            "chainid": "0x01"
        },
        "_info": {
            "hash": "0x59b8ca1f2fa862d37c481ffc9e397ea410783e2ec786f2388c60607affe34499",
            "comment": "`execution-spec-tests` generated test",
            "filling-transition-tool": "ethereum-spec-evm-resolver 0.0.5",
            "description": "No description available - add a docstring to the python test class or function.",
            "url": "",
            "fixture-format": "state_test",
            "eels-resolution": {
                "git-url": "https://github.com/ethereum/execution-specs.git",
                "branch": "forks/bpos",
                "commit": "7aacb2c54111391af5e98c505d5010b5698a770f"
            }
        }
    }
}