{
    "tests/static/state_tests/stRandom2/randomStatetest436Filler.json::randomStatetest436[fork_Cancun-state_test-]": {
        "env": {
            "currentCoinbase": "0xeab096603b8a24c608c4a234a16f1a550e0f332e",
            "currentGasLimit": "0x7fffffffffffffff",
            "currentNumber": "0x01",
            "currentTimestamp": "0x03e8",
            "currentRandom": "0x0000000000000000000000000000000000000000000000000000000000020000",
            "currentDifficulty": "0x00",
            "currentBaseFee": "0x0a",
            "currentExcessBlobGas": "0x00"
        },
        "pre": {
            "0x6aeb27e25868b7c0935b4915eb8268c1fd186f75": {
                "nonce": "0x00",
                "balance": "0x0de0b6b3a7640000",
                "code": "0x",
                "storage": {}
            },
            "0xeab096603b8a24c608c4a234a16f1a550e0f332e": {
                "nonce": "0x00",
                "balance": "0x2e",
                "code": "0x6000355415600957005b60203560003555",
                "storage": {}
            },
            "0xeab096603b8a24c608c4a234a16f1a550e0f342e": {
                "nonce": "0x00",
                "balance": "0x00",
                "code": "0x367f00000000000000000000000000000000000000000000000000000000000000017fffffffffffffffffffffffffffffffffffffffffffffffffffffffffffffffff417fffffffffffffffffffffffffffffffffffffffffffffffffffffffffffffffff7f000000000000000000000000eab096603b8a24c608c4a234a16f1a550e0f332e456f8108067a345b7a76a20a835a0a0b6c1060005155",
                "storage": {}
            }
        },
        "transaction": {
            "nonce": "0x00",
            "gasPrice": "0x0a",
            "gasLimit": [
                "0x0186a0"
            ],
            "to": "0xeab096603b8a24c608c4a234a16f1a550e0f342e",
            "value": [
                "0x57454f1e"
            ],
            "data": [
                "0x367f00000000000000000000000000000000000000000000000000000000000000017fffffffffffffffffffffffffffffffffffffffffffffffffffffffffffffffff417fffffffffffffffffffffffffffffffffffffffffffffffffffffffffffffffff7f000000000000000000000000eab096603b8a24c608c4a234a16f1a550e0f332e456f8108067a345b7a76a20a835a0a0b6c10"
            ],
            "sender": "0x6aeb27e25868b7c0935b4915eb8268c1fd186f75",
            "secretKey": "0xd62c66f6bbc39623cbb49ac6eab096603b8a24c608c4a234a16f1a550e0f332e"
        },
        "post": {
            "Cancun": [
                {
                    "hash": "0xaa9bfaef0b5165c8fc4eb3a026343a58261cc818466228928c788463ad97b339",
                    "logs": "0x1dcc4de8dec75d7aab85b567b6ccd41ad312451b948a7413f0a142fd40d49347",
                    "txbytes": "0xf8fd800a830186a094eab096603b8a24c608c4a234a16f1a550e0f342e8457454f1eb898367f00000000000000000000000000000000000000000000000000000000000000017fffffffffffffffffffffffffffffffffffffffffffffffffffffffffffffffff417fffffffffffffffffffffffffffffffffffffffffffffffffffffffffffffffff7f000000000000000000000000eab096603b8a24c608c4a234a16f1a550e0f332e456f8108067a345b7a76a20a835a0a0b6c1025a02259543ac8c0bae3852986f6c00bf1d7ae467d4848bab694b730d50d9a5de4dca017771cc143c9e5dc4dec48e0d02c82d6e483d8b30799dd7b830c657f9f2b7c8b",
                    "indexes": {
                        "data": 0,
                        "gas": 0,
                        "value": 0
                    },
                    "state": {
                        "0x6aeb27e25868b7c0935b4915eb8268c1fd186f75": {
                            "nonce": "0x01",
                            "balance": "0x0de0b6b35017d146",
                            "code": "0x",
                            "storage": {}
                        },
                        "0xeab096603b8a24c608c4a234a16f1a550e0f332e": {
                            "nonce": "0x00",
                            "balance": "0x2e",
                            "code": "0x6000355415600957005b60203560003555",
                            "storage": {}
                        },
                        "0xeab096603b8a24c608c4a234a16f1a550e0f342e": {
                            "nonce": "0x00",
                            "balance": "0x57454f1e",
                            "code": "0x367f00000000000000000000000000000000000000000000000000000000000000017fffffffffffffffffffffffffffffffffffffffffffffffffffffffffffffffff417fffffffffffffffffffffffffffffffffffffffffffffffffffffffffffffffff7f000000000000000000000000eab096603b8a24c608c4a234a16f1a550e0f332e456f8108067a345b7a76a20a835a0a0b6c1060005155",
                            "storage": {
                                "0x00": "0x8108067a345b7a76a20a835a0a0b6c10"
                            }
                        }
                    }
                }
            ]
        },
        "config": {
            "blobSchedule": {
                "Cancun": {
                    "target": "0x03",
                    "max": "0x06",
                    "baseFeeUpdateFraction": "0x32f0ed"
                }
            },
            "chainid": "0x01"
        },
        "_info": {
            "hash": "0x289f6c8704fecbd46a110343c0d049368709c8e521d6ed214bf82de43ff68a42",
            "comment": "`execution-spec-tests` generated test",
            "filling-transition-tool": "ethereum-spec-evm-resolver 0.0.5",
            "description": "No description available - add a docstring to the python test class or function.",
            "url": "",
            "fixture-format": "state_test",
            "eels-resolution": {
                "git-url": "https://github.com/marioevz/execution-specs.git",
                "branch": "forks/bpo1",
                "commit": "3387e5f4aedfe99becfdc39b444d6371e25e0924"
            }
        }
    },
    "tests/static/state_tests/stRandom2/randomStatetest436Filler.json::randomStatetest436[fork_Osaka-state_test-]": {
        "env": {
            "currentCoinbase": "0xeab096603b8a24c608c4a234a16f1a550e0f332e",
            "currentGasLimit": "0x7fffffffffffffff",
            "currentNumber": "0x01",
            "currentTimestamp": "0x03e8",
            "currentRandom": "0x0000000000000000000000000000000000000000000000000000000000020000",
            "currentDifficulty": "0x00",
            "currentBaseFee": "0x0a",
            "currentExcessBlobGas": "0x00"
        },
        "pre": {
            "0x6aeb27e25868b7c0935b4915eb8268c1fd186f75": {
                "nonce": "0x00",
                "balance": "0x0de0b6b3a7640000",
                "code": "0x",
                "storage": {}
            },
            "0xeab096603b8a24c608c4a234a16f1a550e0f332e": {
                "nonce": "0x00",
                "balance": "0x2e",
                "code": "0x6000355415600957005b60203560003555",
                "storage": {}
            },
            "0xeab096603b8a24c608c4a234a16f1a550e0f342e": {
                "nonce": "0x00",
                "balance": "0x00",
                "code": "0x367f00000000000000000000000000000000000000000000000000000000000000017fffffffffffffffffffffffffffffffffffffffffffffffffffffffffffffffff417fffffffffffffffffffffffffffffffffffffffffffffffffffffffffffffffff7f000000000000000000000000eab096603b8a24c608c4a234a16f1a550e0f332e456f8108067a345b7a76a20a835a0a0b6c1060005155",
                "storage": {}
            }
        },
        "transaction": {
            "nonce": "0x00",
            "gasPrice": "0x0a",
            "gasLimit": [
                "0x0186a0"
            ],
            "to": "0xeab096603b8a24c608c4a234a16f1a550e0f342e",
            "value": [
                "0x57454f1e"
            ],
            "data": [
                "0x367f00000000000000000000000000000000000000000000000000000000000000017fffffffffffffffffffffffffffffffffffffffffffffffffffffffffffffffff417fffffffffffffffffffffffffffffffffffffffffffffffffffffffffffffffff7f000000000000000000000000eab096603b8a24c608c4a234a16f1a550e0f332e456f8108067a345b7a76a20a835a0a0b6c10"
            ],
            "sender": "0x6aeb27e25868b7c0935b4915eb8268c1fd186f75",
            "secretKey": "0xd62c66f6bbc39623cbb49ac6eab096603b8a24c608c4a234a16f1a550e0f332e"
        },
        "post": {
            "Osaka": [
                {
                    "hash": "0xaa9bfaef0b5165c8fc4eb3a026343a58261cc818466228928c788463ad97b339",
                    "logs": "0x1dcc4de8dec75d7aab85b567b6ccd41ad312451b948a7413f0a142fd40d49347",
                    "txbytes": "0xf8fd800a830186a094eab096603b8a24c608c4a234a16f1a550e0f342e8457454f1eb898367f00000000000000000000000000000000000000000000000000000000000000017fffffffffffffffffffffffffffffffffffffffffffffffffffffffffffffffff417fffffffffffffffffffffffffffffffffffffffffffffffffffffffffffffffff7f000000000000000000000000eab096603b8a24c608c4a234a16f1a550e0f332e456f8108067a345b7a76a20a835a0a0b6c1025a02259543ac8c0bae3852986f6c00bf1d7ae467d4848bab694b730d50d9a5de4dca017771cc143c9e5dc4dec48e0d02c82d6e483d8b30799dd7b830c657f9f2b7c8b",
                    "indexes": {
                        "data": 0,
                        "gas": 0,
                        "value": 0
                    },
                    "state": {
                        "0x6aeb27e25868b7c0935b4915eb8268c1fd186f75": {
                            "nonce": "0x01",
                            "balance": "0x0de0b6b35017d146",
                            "code": "0x",
                            "storage": {}
                        },
                        "0xeab096603b8a24c608c4a234a16f1a550e0f332e": {
                            "nonce": "0x00",
                            "balance": "0x2e",
                            "code": "0x6000355415600957005b60203560003555",
                            "storage": {}
                        },
                        "0xeab096603b8a24c608c4a234a16f1a550e0f342e": {
                            "nonce": "0x00",
                            "balance": "0x57454f1e",
                            "code": "0x367f00000000000000000000000000000000000000000000000000000000000000017fffffffffffffffffffffffffffffffffffffffffffffffffffffffffffffffff417fffffffffffffffffffffffffffffffffffffffffffffffffffffffffffffffff7f000000000000000000000000eab096603b8a24c608c4a234a16f1a550e0f332e456f8108067a345b7a76a20a835a0a0b6c1060005155",
                            "storage": {
                                "0x00": "0x8108067a345b7a76a20a835a0a0b6c10"
                            }
                        }
                    }
                }
            ]
        },
        "config": {
            "blobSchedule": {
                "Cancun": {
                    "target": "0x03",
                    "max": "0x06",
                    "baseFeeUpdateFraction": "0x32f0ed"
                },
                "Prague": {
                    "target": "0x06",
                    "max": "0x09",
                    "baseFeeUpdateFraction": "0x4c6964"
                },
                "Osaka": {
                    "target": "0x06",
                    "max": "0x09",
                    "baseFeeUpdateFraction": "0x4c6964"
                }
            },
            "chainid": "0x01"
        },
        "_info": {
            "hash": "0x07b3d172c9b4b156de7d4670ccf1d2c0ccdc62c04afac1edadd3cd56a8d47ef5",
            "comment": "`execution-spec-tests` generated test",
            "filling-transition-tool": "ethereum-spec-evm-resolver 0.0.5",
            "description": "No description available - add a docstring to the python test class or function.",
            "url": "",
            "fixture-format": "state_test",
            "eels-resolution": {
                "git-url": "https://github.com/marioevz/execution-specs.git",
                "branch": "forks/bpo1",
                "commit": "3387e5f4aedfe99becfdc39b444d6371e25e0924"
            }
        }
    },
    "tests/static/state_tests/stRandom2/randomStatetest436Filler.json::randomStatetest436[fork_Prague-state_test-]": {
        "env": {
            "currentCoinbase": "0xeab096603b8a24c608c4a234a16f1a550e0f332e",
            "currentGasLimit": "0x7fffffffffffffff",
            "currentNumber": "0x01",
            "currentTimestamp": "0x03e8",
            "currentRandom": "0x0000000000000000000000000000000000000000000000000000000000020000",
            "currentDifficulty": "0x00",
            "currentBaseFee": "0x0a",
            "currentExcessBlobGas": "0x00"
        },
        "pre": {
            "0x6aeb27e25868b7c0935b4915eb8268c1fd186f75": {
                "nonce": "0x00",
                "balance": "0x0de0b6b3a7640000",
                "code": "0x",
                "storage": {}
            },
            "0xeab096603b8a24c608c4a234a16f1a550e0f332e": {
                "nonce": "0x00",
                "balance": "0x2e",
                "code": "0x6000355415600957005b60203560003555",
                "storage": {}
            },
            "0xeab096603b8a24c608c4a234a16f1a550e0f342e": {
                "nonce": "0x00",
                "balance": "0x00",
                "code": "0x367f00000000000000000000000000000000000000000000000000000000000000017fffffffffffffffffffffffffffffffffffffffffffffffffffffffffffffffff417fffffffffffffffffffffffffffffffffffffffffffffffffffffffffffffffff7f000000000000000000000000eab096603b8a24c608c4a234a16f1a550e0f332e456f8108067a345b7a76a20a835a0a0b6c1060005155",
                "storage": {}
            }
        },
        "transaction": {
            "nonce": "0x00",
            "gasPrice": "0x0a",
            "gasLimit": [
                "0x0186a0"
            ],
            "to": "0xeab096603b8a24c608c4a234a16f1a550e0f342e",
            "value": [
                "0x57454f1e"
            ],
            "data": [
                "0x367f00000000000000000000000000000000000000000000000000000000000000017fffffffffffffffffffffffffffffffffffffffffffffffffffffffffffffffff417fffffffffffffffffffffffffffffffffffffffffffffffffffffffffffffffff7f000000000000000000000000eab096603b8a24c608c4a234a16f1a550e0f332e456f8108067a345b7a76a20a835a0a0b6c10"
            ],
            "sender": "0x6aeb27e25868b7c0935b4915eb8268c1fd186f75",
            "secretKey": "0xd62c66f6bbc39623cbb49ac6eab096603b8a24c608c4a234a16f1a550e0f332e"
        },
        "post": {
            "Prague": [
                {
                    "hash": "0xaa9bfaef0b5165c8fc4eb3a026343a58261cc818466228928c788463ad97b339",
                    "logs": "0x1dcc4de8dec75d7aab85b567b6ccd41ad312451b948a7413f0a142fd40d49347",
                    "txbytes": "0xf8fd800a830186a094eab096603b8a24c608c4a234a16f1a550e0f342e8457454f1eb898367f00000000000000000000000000000000000000000000000000000000000000017fffffffffffffffffffffffffffffffffffffffffffffffffffffffffffffffff417fffffffffffffffffffffffffffffffffffffffffffffffffffffffffffffffff7f000000000000000000000000eab096603b8a24c608c4a234a16f1a550e0f332e456f8108067a345b7a76a20a835a0a0b6c1025a02259543ac8c0bae3852986f6c00bf1d7ae467d4848bab694b730d50d9a5de4dca017771cc143c9e5dc4dec48e0d02c82d6e483d8b30799dd7b830c657f9f2b7c8b",
                    "indexes": {
                        "data": 0,
                        "gas": 0,
                        "value": 0
                    },
                    "state": {
                        "0x6aeb27e25868b7c0935b4915eb8268c1fd186f75": {
                            "nonce": "0x01",
                            "balance": "0x0de0b6b35017d146",
                            "code": "0x",
                            "storage": {}
                        },
                        "0xeab096603b8a24c608c4a234a16f1a550e0f332e": {
                            "nonce": "0x00",
                            "balance": "0x2e",
                            "code": "0x6000355415600957005b60203560003555",
                            "storage": {}
                        },
                        "0xeab096603b8a24c608c4a234a16f1a550e0f342e": {
                            "nonce": "0x00",
                            "balance": "0x57454f1e",
                            "code": "0x367f00000000000000000000000000000000000000000000000000000000000000017fffffffffffffffffffffffffffffffffffffffffffffffffffffffffffffffff417fffffffffffffffffffffffffffffffffffffffffffffffffffffffffffffffff7f000000000000000000000000eab096603b8a24c608c4a234a16f1a550e0f332e456f8108067a345b7a76a20a835a0a0b6c1060005155",
                            "storage": {
                                "0x00": "0x8108067a345b7a76a20a835a0a0b6c10"
                            }
                        }
                    }
                }
            ]
        },
        "config": {
            "blobSchedule": {
                "Cancun": {
                    "target": "0x03",
                    "max": "0x06",
                    "baseFeeUpdateFraction": "0x32f0ed"
                },
                "Prague": {
                    "target": "0x06",
                    "max": "0x09",
                    "baseFeeUpdateFraction": "0x4c6964"
                }
            },
            "chainid": "0x01"
        },
        "_info": {
            "hash": "0xcc743084c52406c192b8af5eff4fb185714fdb459f67b869bdf166fce31a7c20",
            "comment": "`execution-spec-tests` generated test",
            "filling-transition-tool": "ethereum-spec-evm-resolver 0.0.5",
            "description": "No description available - add a docstring to the python test class or function.",
            "url": "",
            "fixture-format": "state_test",
            "eels-resolution": {
                "git-url": "https://github.com/marioevz/execution-specs.git",
                "branch": "forks/bpo1",
                "commit": "3387e5f4aedfe99becfdc39b444d6371e25e0924"
            }
        }
    }
}