{
    "tests/static/state_tests/stRandom2/randomStatetest542Filler.json::randomStatetest542[fork_Cancun-state_test-]": {
        "env": {
            "currentCoinbase": "0xe0d35184d57c0a3bbf735ea5f1754829d90f0698",
            "currentGasLimit": "0x7fffffffffffffff",
            "currentNumber": "0x01",
            "currentTimestamp": "0x03e8",
            "currentRandom": "0x0000000000000000000000000000000000000000000000000000000000020000",
            "currentDifficulty": "0x00",
            "currentBaseFee": "0x0a",
            "currentExcessBlobGas": "0x00"
        },
        "pre": {
            "0xedcc975687058897badc5a350dc69f714aa044e0": {
                "nonce": "0x00",
                "balance": "0x0de0b6b3a7640000",
                "code": "0x",
                "storage": {}
            },
            "0xe0d35184d57c0a3bbf735ea5f1754829d90f0698": {
                "nonce": "0x00",
                "balance": "0x2e",
                "code": "0x6000355415600957005b60203560003555",
                "storage": {}
            },
            "0xe0d35184d57c0a3bbf735ea5f1754829d90f0798": {
                "nonce": "0x00",
                "balance": "0x00",
                "code": "0x427f00000000000000000000000100000000000000000000000000000000000000007f0000000000000000000000000000000000000000000000000000000000000000397f000000000000000000000000ffffffffffffffffffffffffffffffffffffffff7ffffffffffffffffffffffffffffffffffffffffffffffffffffffffffffffffe7f00000000000000000000000100000000000000000000000000000000000000007f000000000000000000000000e0d35184d57c0a3bbf735ea5f1754829d90f0698925560005155",
                "storage": {}
            }
        },
        "transaction": {
            "nonce": "0x00",
            "gasPrice": "0x0a",
            "gasLimit": [
                "0x0186a0"
            ],
            "to": "0xe0d35184d57c0a3bbf735ea5f1754829d90f0798",
            "value": [
                "0x7ddacbdf"
            ],
            "data": [
                "0x427f00000000000000000000000100000000000000000000000000000000000000007f0000000000000000000000000000000000000000000000000000000000000000397f000000000000000000000000ffffffffffffffffffffffffffffffffffffffff7ffffffffffffffffffffffffffffffffffffffffffffffffffffffffffffffffe7f00000000000000000000000100000000000000000000000000000000000000007f000000000000000000000000e0d35184d57c0a3bbf735ea5f1754829d90f069892"
            ],
            "sender": "0xedcc975687058897badc5a350dc69f714aa044e0",
            "secretKey": "0x3603b301ad2c4e9f0a86c491e0d35184d57c0a3bbf735ea5f1754829d90f0698"
        },
        "post": {
            "Cancun": [
                {
                    "hash": "0xf0f8205609a3afe5b1f18bb850e8103cb363dfa6accbe39a29172d9a8093a96f",
                    "logs": "0x1dcc4de8dec75d7aab85b567b6ccd41ad312451b948a7413f0a142fd40d49347",
                    "txbytes": "0xf9012e800a830186a094e0d35184d57c0a3bbf735ea5f1754829d90f0798847ddacbdfb8c9427f00000000000000000000000100000000000000000000000000000000000000007f0000000000000000000000000000000000000000000000000000000000000000397f000000000000000000000000ffffffffffffffffffffffffffffffffffffffff7ffffffffffffffffffffffffffffffffffffffffffffffffffffffffffffffffe7f00000000000000000000000100000000000000000000000000000000000000007f000000000000000000000000e0d35184d57c0a3bbf735ea5f1754829d90f06989226a097a460e39ebc3305bd9b81f8f2c9ce768ca3228e34fc17956cb79d039df52aaca0448bda5e05696dff276eea3a5420401b5b41b3ae8a14197651df5493aa484771",
                    "indexes": {
                        "data": 0,
                        "gas": 0,
                        "value": 0
                    },
                    "state": {
                        "0xedcc975687058897badc5a350dc69f714aa044e0": {
                            "nonce": "0x01",
                            "balance": "0x0de0b6b3297ef21d",
                            "code": "0x",
                            "storage": {}
                        },
                        "0xe0d35184d57c0a3bbf735ea5f1754829d90f0698": {
                            "nonce": "0x00",
                            "balance": "0x2e",
                            "code": "0x6000355415600957005b60203560003555",
                            "storage": {}
                        },
                        "0xe0d35184d57c0a3bbf735ea5f1754829d90f0798": {
                            "nonce": "0x00",
                            "balance": "0x7ddacbdf",
                            "code": "0x427f00000000000000000000000100000000000000000000000000000000000000007f0000000000000000000000000000000000000000000000000000000000000000397f000000000000000000000000ffffffffffffffffffffffffffffffffffffffff7ffffffffffffffffffffffffffffffffffffffffffffffffffffffffffffffffe7f00000000000000000000000100000000000000000000000000000000000000007f000000000000000000000000e0d35184d57c0a3bbf735ea5f1754829d90f0698925560005155",
                            "storage": {
                                "0xffffffffffffffffffffffffffffffffffffffff": "0x010000000000000000000000000000000000000000",
                                "0x00": "0xfffffffffffffffffffffffffffffffffffffffffffffffffffffffffffffffe"
                            }
                        }
                    }
                }
            ]
        },
        "config": {
            "blobSchedule": {
                "Cancun": {
                    "target": "0x03",
                    "max": "0x06",
                    "baseFeeUpdateFraction": "0x32f0ed"
                }
            },
            "chainid": "0x01"
        },
        "_info": {
            "hash": "0x00803f8789451984c3f15e4ec8c442592ba0d2663fc81ecd4fe72b63dbf72b0e",
            "comment": "`execution-spec-tests` generated test",
            "filling-transition-tool": "ethereum-spec-evm-resolver 0.0.5",
            "description": "No description available - add a docstring to the python test class or function.",
            "url": "",
            "fixture-format": "state_test",
            "eels-resolution": {
                "git-url": "https://github.com/marioevz/execution-specs.git",
                "branch": "forks/bpo1",
                "commit": "3387e5f4aedfe99becfdc39b444d6371e25e0924"
            }
        }
    },
    "tests/static/state_tests/stRandom2/randomStatetest542Filler.json::randomStatetest542[fork_Osaka-state_test-]": {
        "env": {
            "currentCoinbase": "0xe0d35184d57c0a3bbf735ea5f1754829d90f0698",
            "currentGasLimit": "0x7fffffffffffffff",
            "currentNumber": "0x01",
            "currentTimestamp": "0x03e8",
            "currentRandom": "0x0000000000000000000000000000000000000000000000000000000000020000",
            "currentDifficulty": "0x00",
            "currentBaseFee": "0x0a",
            "currentExcessBlobGas": "0x00"
        },
        "pre": {
            "0xedcc975687058897badc5a350dc69f714aa044e0": {
                "nonce": "0x00",
                "balance": "0x0de0b6b3a7640000",
                "code": "0x",
                "storage": {}
            },
            "0xe0d35184d57c0a3bbf735ea5f1754829d90f0698": {
                "nonce": "0x00",
                "balance": "0x2e",
                "code": "0x6000355415600957005b60203560003555",
                "storage": {}
            },
            "0xe0d35184d57c0a3bbf735ea5f1754829d90f0798": {
                "nonce": "0x00",
                "balance": "0x00",
                "code": "0x427f00000000000000000000000100000000000000000000000000000000000000007f0000000000000000000000000000000000000000000000000000000000000000397f000000000000000000000000ffffffffffffffffffffffffffffffffffffffff7ffffffffffffffffffffffffffffffffffffffffffffffffffffffffffffffffe7f00000000000000000000000100000000000000000000000000000000000000007f000000000000000000000000e0d35184d57c0a3bbf735ea5f1754829d90f0698925560005155",
                "storage": {}
            }
        },
        "transaction": {
            "nonce": "0x00",
            "gasPrice": "0x0a",
            "gasLimit": [
                "0x0186a0"
            ],
            "to": "0xe0d35184d57c0a3bbf735ea5f1754829d90f0798",
            "value": [
                "0x7ddacbdf"
            ],
            "data": [
                "0x427f00000000000000000000000100000000000000000000000000000000000000007f0000000000000000000000000000000000000000000000000000000000000000397f000000000000000000000000ffffffffffffffffffffffffffffffffffffffff7ffffffffffffffffffffffffffffffffffffffffffffffffffffffffffffffffe7f00000000000000000000000100000000000000000000000000000000000000007f000000000000000000000000e0d35184d57c0a3bbf735ea5f1754829d90f069892"
            ],
            "sender": "0xedcc975687058897badc5a350dc69f714aa044e0",
            "secretKey": "0x3603b301ad2c4e9f0a86c491e0d35184d57c0a3bbf735ea5f1754829d90f0698"
        },
        "post": {
            "Osaka": [
                {
                    "hash": "0xf0f8205609a3afe5b1f18bb850e8103cb363dfa6accbe39a29172d9a8093a96f",
                    "logs": "0x1dcc4de8dec75d7aab85b567b6ccd41ad312451b948a7413f0a142fd40d49347",
                    "txbytes": "0xf9012e800a830186a094e0d35184d57c0a3bbf735ea5f1754829d90f0798847ddacbdfb8c9427f00000000000000000000000100000000000000000000000000000000000000007f0000000000000000000000000000000000000000000000000000000000000000397f000000000000000000000000ffffffffffffffffffffffffffffffffffffffff7ffffffffffffffffffffffffffffffffffffffffffffffffffffffffffffffffe7f00000000000000000000000100000000000000000000000000000000000000007f000000000000000000000000e0d35184d57c0a3bbf735ea5f1754829d90f06989226a097a460e39ebc3305bd9b81f8f2c9ce768ca3228e34fc17956cb79d039df52aaca0448bda5e05696dff276eea3a5420401b5b41b3ae8a14197651df5493aa484771",
                    "indexes": {
                        "data": 0,
                        "gas": 0,
                        "value": 0
                    },
                    "state": {
                        "0xedcc975687058897badc5a350dc69f714aa044e0": {
                            "nonce": "0x01",
                            "balance": "0x0de0b6b3297ef21d",
                            "code": "0x",
                            "storage": {}
                        },
                        "0xe0d35184d57c0a3bbf735ea5f1754829d90f0698": {
                            "nonce": "0x00",
                            "balance": "0x2e",
                            "code": "0x6000355415600957005b60203560003555",
                            "storage": {}
                        },
                        "0xe0d35184d57c0a3bbf735ea5f1754829d90f0798": {
                            "nonce": "0x00",
                            "balance": "0x7ddacbdf",
                            "code": "0x427f00000000000000000000000100000000000000000000000000000000000000007f0000000000000000000000000000000000000000000000000000000000000000397f000000000000000000000000ffffffffffffffffffffffffffffffffffffffff7ffffffffffffffffffffffffffffffffffffffffffffffffffffffffffffffffe7f00000000000000000000000100000000000000000000000000000000000000007f000000000000000000000000e0d35184d57c0a3bbf735ea5f1754829d90f0698925560005155",
                            "storage": {
                                "0xffffffffffffffffffffffffffffffffffffffff": "0x010000000000000000000000000000000000000000",
                                "0x00": "0xfffffffffffffffffffffffffffffffffffffffffffffffffffffffffffffffe"
                            }
                        }
                    }
                }
            ]
        },
        "config": {
            "blobSchedule": {
                "Cancun": {
                    "target": "0x03",
                    "max": "0x06",
                    "baseFeeUpdateFraction": "0x32f0ed"
                },
                "Prague": {
                    "target": "0x06",
                    "max": "0x09",
                    "baseFeeUpdateFraction": "0x4c6964"
                },
                "Osaka": {
                    "target": "0x06",
                    "max": "0x09",
                    "baseFeeUpdateFraction": "0x4c6964"
                }
            },
            "chainid": "0x01"
        },
        "_info": {
            "hash": "0x0716183eb580bb471797cbd0d854f00ded972ae1c744583d01f5eb85193ef37e",
            "comment": "`execution-spec-tests` generated test",
            "filling-transition-tool": "ethereum-spec-evm-resolver 0.0.5",
            "description": "No description available - add a docstring to the python test class or function.",
            "url": "",
            "fixture-format": "state_test",
            "eels-resolution": {
                "git-url": "https://github.com/marioevz/execution-specs.git",
                "branch": "forks/bpo1",
                "commit": "3387e5f4aedfe99becfdc39b444d6371e25e0924"
            }
        }
    },
    "tests/static/state_tests/stRandom2/randomStatetest542Filler.json::randomStatetest542[fork_Prague-state_test-]": {
        "env": {
            "currentCoinbase": "0xe0d35184d57c0a3bbf735ea5f1754829d90f0698",
            "currentGasLimit": "0x7fffffffffffffff",
            "currentNumber": "0x01",
            "currentTimestamp": "0x03e8",
            "currentRandom": "0x0000000000000000000000000000000000000000000000000000000000020000",
            "currentDifficulty": "0x00",
            "currentBaseFee": "0x0a",
            "currentExcessBlobGas": "0x00"
        },
        "pre": {
            "0xedcc975687058897badc5a350dc69f714aa044e0": {
                "nonce": "0x00",
                "balance": "0x0de0b6b3a7640000",
                "code": "0x",
                "storage": {}
            },
            "0xe0d35184d57c0a3bbf735ea5f1754829d90f0698": {
                "nonce": "0x00",
                "balance": "0x2e",
                "code": "0x6000355415600957005b60203560003555",
                "storage": {}
            },
            "0xe0d35184d57c0a3bbf735ea5f1754829d90f0798": {
                "nonce": "0x00",
                "balance": "0x00",
                "code": "0x427f00000000000000000000000100000000000000000000000000000000000000007f0000000000000000000000000000000000000000000000000000000000000000397f000000000000000000000000ffffffffffffffffffffffffffffffffffffffff7ffffffffffffffffffffffffffffffffffffffffffffffffffffffffffffffffe7f00000000000000000000000100000000000000000000000000000000000000007f000000000000000000000000e0d35184d57c0a3bbf735ea5f1754829d90f0698925560005155",
                "storage": {}
            }
        },
        "transaction": {
            "nonce": "0x00",
            "gasPrice": "0x0a",
            "gasLimit": [
                "0x0186a0"
            ],
            "to": "0xe0d35184d57c0a3bbf735ea5f1754829d90f0798",
            "value": [
                "0x7ddacbdf"
            ],
            "data": [
                "0x427f00000000000000000000000100000000000000000000000000000000000000007f0000000000000000000000000000000000000000000000000000000000000000397f000000000000000000000000ffffffffffffffffffffffffffffffffffffffff7ffffffffffffffffffffffffffffffffffffffffffffffffffffffffffffffffe7f00000000000000000000000100000000000000000000000000000000000000007f000000000000000000000000e0d35184d57c0a3bbf735ea5f1754829d90f069892"
            ],
            "sender": "0xedcc975687058897badc5a350dc69f714aa044e0",
            "secretKey": "0x3603b301ad2c4e9f0a86c491e0d35184d57c0a3bbf735ea5f1754829d90f0698"
        },
        "post": {
            "Prague": [
                {
                    "hash": "0xf0f8205609a3afe5b1f18bb850e8103cb363dfa6accbe39a29172d9a8093a96f",
                    "logs": "0x1dcc4de8dec75d7aab85b567b6ccd41ad312451b948a7413f0a142fd40d49347",
                    "txbytes": "0xf9012e800a830186a094e0d35184d57c0a3bbf735ea5f1754829d90f0798847ddacbdfb8c9427f00000000000000000000000100000000000000000000000000000000000000007f0000000000000000000000000000000000000000000000000000000000000000397f000000000000000000000000ffffffffffffffffffffffffffffffffffffffff7ffffffffffffffffffffffffffffffffffffffffffffffffffffffffffffffffe7f00000000000000000000000100000000000000000000000000000000000000007f000000000000000000000000e0d35184d57c0a3bbf735ea5f1754829d90f06989226a097a460e39ebc3305bd9b81f8f2c9ce768ca3228e34fc17956cb79d039df52aaca0448bda5e05696dff276eea3a5420401b5b41b3ae8a14197651df5493aa484771",
                    "indexes": {
                        "data": 0,
                        "gas": 0,
                        "value": 0
                    },
                    "state": {
                        "0xedcc975687058897badc5a350dc69f714aa044e0": {
                            "nonce": "0x01",
                            "balance": "0x0de0b6b3297ef21d",
                            "code": "0x",
                            "storage": {}
                        },
                        "0xe0d35184d57c0a3bbf735ea5f1754829d90f0698": {
                            "nonce": "0x00",
                            "balance": "0x2e",
                            "code": "0x6000355415600957005b60203560003555",
                            "storage": {}
                        },
                        "0xe0d35184d57c0a3bbf735ea5f1754829d90f0798": {
                            "nonce": "0x00",
                            "balance": "0x7ddacbdf",
                            "code": "0x427f00000000000000000000000100000000000000000000000000000000000000007f0000000000000000000000000000000000000000000000000000000000000000397f000000000000000000000000ffffffffffffffffffffffffffffffffffffffff7ffffffffffffffffffffffffffffffffffffffffffffffffffffffffffffffffe7f00000000000000000000000100000000000000000000000000000000000000007f000000000000000000000000e0d35184d57c0a3bbf735ea5f1754829d90f0698925560005155",
                            "storage": {
                                "0xffffffffffffffffffffffffffffffffffffffff": "0x010000000000000000000000000000000000000000",
                                "0x00": "0xfffffffffffffffffffffffffffffffffffffffffffffffffffffffffffffffe"
                            }
                        }
                    }
                }
            ]
        },
        "config": {
            "blobSchedule": {
                "Cancun": {
                    "target": "0x03",
                    "max": "0x06",
                    "baseFeeUpdateFraction": "0x32f0ed"
                },
                "Prague": {
                    "target": "0x06",
                    "max": "0x09",
                    "baseFeeUpdateFraction": "0x4c6964"
                }
            },
            "chainid": "0x01"
        },
        "_info": {
            "hash": "0x37ab27b7f02ca5e7619ce423931a95e66e0b07ffe1bddbb68bbef2df7ff7d431",
            "comment": "`execution-spec-tests` generated test",
            "filling-transition-tool": "ethereum-spec-evm-resolver 0.0.5",
            "description": "No description available - add a docstring to the python test class or function.",
            "url": "",
            "fixture-format": "state_test",
            "eels-resolution": {
                "git-url": "https://github.com/marioevz/execution-specs.git",
                "branch": "forks/bpo1",
                "commit": "3387e5f4aedfe99becfdc39b444d6371e25e0924"
            }
        }
    }
}