{
    "tests/static/state_tests/stRandom2/randomStatetest525Filler.json::randomStatetest525[fork_Cancun-state_test-]": {
        "env": {
            "currentCoinbase": "0x7dc35e70022998802e9bf5bc6f18896f69520c2e",
            "currentGasLimit": "0x7fffffffffffffff",
            "currentNumber": "0x01",
            "currentTimestamp": "0x03e8",
            "currentRandom": "0x0000000000000000000000000000000000000000000000000000000000020000",
            "currentDifficulty": "0x00",
            "currentBaseFee": "0x0a",
            "currentExcessBlobGas": "0x00"
        },
        "pre": {
            "0x2657e5f9a4d927bc83fb6860a5734df66bfd675f": {
                "nonce": "0x00",
                "balance": "0x0de0b6b3a7640000",
                "code": "0x",
                "storage": {}
            },
            "0x7dc35e70022998802e9bf5bc6f18896f69520c2e": {
                "nonce": "0x00",
                "balance": "0x2e",
                "code": "0x6000355415600957005b60203560003555",
                "storage": {}
            },
            "0x7dc35e70022998802e9bf5bc6f18896f69520d2e": {
                "nonce": "0x00",
                "balance": "0x00",
                "code": "0x7f00000000000000000000000100000000000000000000000000000000000000007fffffffffffffffffffffffffffffffffffffffffffffffffffffffffffffffff7f000000000000000000000000000000000000000000000000000000000000c3507f000000000000000000000000ffffffffffffffffffffffffffffffffffffffff7ffffffffffffffffffffffffffffffffffffffffffffffffffffffffffffffffe7f000000000000000000000000ffffffffffffffffffffffffffffffffffffffff097ffffffffffffffffffffffffffffffffffffffffffffffffffffffffffffffffe02207160005155",
                "storage": {}
            }
        },
        "transaction": {
            "nonce": "0x00",
            "gasPrice": "0x0a",
            "gasLimit": [
                "0x0186a0"
            ],
            "to": "0x7dc35e70022998802e9bf5bc6f18896f69520d2e",
            "value": [
                "0x0a9a88d4"
            ],
            "data": [
                "0x7f00000000000000000000000100000000000000000000000000000000000000007fffffffffffffffffffffffffffffffffffffffffffffffffffffffffffffffff7f000000000000000000000000000000000000000000000000000000000000c3507f000000000000000000000000ffffffffffffffffffffffffffffffffffffffff7ffffffffffffffffffffffffffffffffffffffffffffffffffffffffffffffffe7f000000000000000000000000ffffffffffffffffffffffffffffffffffffffff097ffffffffffffffffffffffffffffffffffffffffffffffffffffffffffffffffe022071"
            ],
            "sender": "0x2657e5f9a4d927bc83fb6860a5734df66bfd675f",
            "secretKey": "0x37d660bdb032b733dc8f5d9f7dc35e70022998802e9bf5bc6f18896f69520c2e"
        },
        "post": {
            "Cancun": [
                {
                    "hash": "0x9b13461a7c270f4f72984be20e5eb39c1a80d27f19b727b3c81aaabc24e29436",
                    "logs": "0x1dcc4de8dec75d7aab85b567b6ccd41ad312451b948a7413f0a142fd40d49347",
                    "txbytes": "0xf90150800a830186a0947dc35e70022998802e9bf5bc6f18896f69520d2e840a9a88d4b8eb7f00000000000000000000000100000000000000000000000000000000000000007fffffffffffffffffffffffffffffffffffffffffffffffffffffffffffffffff7f000000000000000000000000000000000000000000000000000000000000c3507f000000000000000000000000ffffffffffffffffffffffffffffffffffffffff7ffffffffffffffffffffffffffffffffffffffffffffffffffffffffffffffffe7f000000000000000000000000ffffffffffffffffffffffffffffffffffffffff097ffffffffffffffffffffffffffffffffffffffffffffffffffffffffffffffffe02207126a0ac713029556ccf1ac78fedfed6a2df90bdb73f56c570c8a9ca26bf06a8433fb8a06e2677f4477b907750646ed4e5a352d40b8afa31ecac22f3f5c86c94ee9ce81a",
                    "indexes": {
                        "data": 0,
                        "gas": 0,
                        "value": 0
                    },
                    "state": {
                        "0x2657e5f9a4d927bc83fb6860a5734df66bfd675f": {
                            "nonce": "0x01",
                            "balance": "0x0de0b6b39cc2f55a",
                            "code": "0x",
                            "storage": {}
                        },
                        "0x7dc35e70022998802e9bf5bc6f18896f69520c2e": {
                            "nonce": "0x00",
                            "balance": "0x2e",
                            "code": "0x6000355415600957005b60203560003555",
                            "storage": {}
                        },
                        "0x7dc35e70022998802e9bf5bc6f18896f69520d2e": {
                            "nonce": "0x00",
                            "balance": "0x0a9a88d4",
                            "code": "0x7f00000000000000000000000100000000000000000000000000000000000000007fffffffffffffffffffffffffffffffffffffffffffffffffffffffffffffffff7f000000000000000000000000000000000000000000000000000000000000c3507f000000000000000000000000ffffffffffffffffffffffffffffffffffffffff7ffffffffffffffffffffffffffffffffffffffffffffffffffffffffffffffffe7f000000000000000000000000ffffffffffffffffffffffffffffffffffffffff097ffffffffffffffffffffffffffffffffffffffffffffffffffffffffffffffffe02207160005155",
                            "storage": {}
                        }
                    }
                }
            ]
        },
        "config": {
            "blobSchedule": {
                "Cancun": {
                    "target": "0x03",
                    "max": "0x06",
                    "baseFeeUpdateFraction": "0x32f0ed"
                }
            },
            "chainid": "0x01"
        },
        "_info": {
            "hash": "0x055f6194b606049ea35b91cf91164b9bea2886ee5721946e1c5fb44975105ab0",
            "comment": "`execution-spec-tests` generated test",
            "filling-transition-tool": "ethereum-spec-evm-resolver 0.0.5",
            "description": "No description available - add a docstring to the python test class or function.",
            "url": "",
            "fixture-format": "state_test",
            "eels-resolution": {
                "git-url": "https://github.com/ethereum/execution-specs.git",
                "branch": "forks/bpos",
                "commit": "7aacb2c54111391af5e98c505d5010b5698a770f"
            }
        }
    },
    "tests/static/state_tests/stRandom2/randomStatetest525Filler.json::randomStatetest525[fork_Osaka-state_test-]": {
        "env": {
            "currentCoinbase": "0x7dc35e70022998802e9bf5bc6f18896f69520c2e",
            "currentGasLimit": "0x7fffffffffffffff",
            "currentNumber": "0x01",
            "currentTimestamp": "0x03e8",
            "currentRandom": "0x0000000000000000000000000000000000000000000000000000000000020000",
            "currentDifficulty": "0x00",
            "currentBaseFee": "0x0a",
            "currentExcessBlobGas": "0x00"
        },
        "pre": {
            "0x2657e5f9a4d927bc83fb6860a5734df66bfd675f": {
                "nonce": "0x00",
                "balance": "0x0de0b6b3a7640000",
                "code": "0x",
                "storage": {}
            },
            "0x7dc35e70022998802e9bf5bc6f18896f69520c2e": {
                "nonce": "0x00",
                "balance": "0x2e",
                "code": "0x6000355415600957005b60203560003555",
                "storage": {}
            },
            "0x7dc35e70022998802e9bf5bc6f18896f69520d2e": {
                "nonce": "0x00",
                "balance": "0x00",
                "code": "0x7f00000000000000000000000100000000000000000000000000000000000000007fffffffffffffffffffffffffffffffffffffffffffffffffffffffffffffffff7f000000000000000000000000000000000000000000000000000000000000c3507f000000000000000000000000ffffffffffffffffffffffffffffffffffffffff7ffffffffffffffffffffffffffffffffffffffffffffffffffffffffffffffffe7f000000000000000000000000ffffffffffffffffffffffffffffffffffffffff097ffffffffffffffffffffffffffffffffffffffffffffffffffffffffffffffffe02207160005155",
                "storage": {}
            }
        },
        "transaction": {
            "nonce": "0x00",
            "gasPrice": "0x0a",
            "gasLimit": [
                "0x0186a0"
            ],
            "to": "0x7dc35e70022998802e9bf5bc6f18896f69520d2e",
            "value": [
                "0x0a9a88d4"
            ],
            "data": [
                "0x7f00000000000000000000000100000000000000000000000000000000000000007fffffffffffffffffffffffffffffffffffffffffffffffffffffffffffffffff7f000000000000000000000000000000000000000000000000000000000000c3507f000000000000000000000000ffffffffffffffffffffffffffffffffffffffff7ffffffffffffffffffffffffffffffffffffffffffffffffffffffffffffffffe7f000000000000000000000000ffffffffffffffffffffffffffffffffffffffff097ffffffffffffffffffffffffffffffffffffffffffffffffffffffffffffffffe022071"
            ],
            "sender": "0x2657e5f9a4d927bc83fb6860a5734df66bfd675f",
            "secretKey": "0x37d660bdb032b733dc8f5d9f7dc35e70022998802e9bf5bc6f18896f69520c2e"
        },
        "post": {
            "Osaka": [
                {
                    "hash": "0x9b13461a7c270f4f72984be20e5eb39c1a80d27f19b727b3c81aaabc24e29436",
                    "logs": "0x1dcc4de8dec75d7aab85b567b6ccd41ad312451b948a7413f0a142fd40d49347",
                    "txbytes": "0xf90150800a830186a0947dc35e70022998802e9bf5bc6f18896f69520d2e840a9a88d4b8eb7f00000000000000000000000100000000000000000000000000000000000000007fffffffffffffffffffffffffffffffffffffffffffffffffffffffffffffffff7f000000000000000000000000000000000000000000000000000000000000c3507f000000000000000000000000ffffffffffffffffffffffffffffffffffffffff7ffffffffffffffffffffffffffffffffffffffffffffffffffffffffffffffffe7f000000000000000000000000ffffffffffffffffffffffffffffffffffffffff097ffffffffffffffffffffffffffffffffffffffffffffffffffffffffffffffffe02207126a0ac713029556ccf1ac78fedfed6a2df90bdb73f56c570c8a9ca26bf06a8433fb8a06e2677f4477b907750646ed4e5a352d40b8afa31ecac22f3f5c86c94ee9ce81a",
                    "indexes": {
                        "data": 0,
                        "gas": 0,
                        "value": 0
                    },
                    "state": {
                        "0x2657e5f9a4d927bc83fb6860a5734df66bfd675f": {
                            "nonce": "0x01",
                            "balance": "0x0de0b6b39cc2f55a",
                            "code": "0x",
                            "storage": {}
                        },
                        "0x7dc35e70022998802e9bf5bc6f18896f69520c2e": {
                            "nonce": "0x00",
                            "balance": "0x2e",
                            "code": "0x6000355415600957005b60203560003555",
                            "storage": {}
                        },
                        "0x7dc35e70022998802e9bf5bc6f18896f69520d2e": {
                            "nonce": "0x00",
                            "balance": "0x0a9a88d4",
                            "code": "0x7f00000000000000000000000100000000000000000000000000000000000000007fffffffffffffffffffffffffffffffffffffffffffffffffffffffffffffffff7f000000000000000000000000000000000000000000000000000000000000c3507f000000000000000000000000ffffffffffffffffffffffffffffffffffffffff7ffffffffffffffffffffffffffffffffffffffffffffffffffffffffffffffffe7f000000000000000000000000ffffffffffffffffffffffffffffffffffffffff097ffffffffffffffffffffffffffffffffffffffffffffffffffffffffffffffffe02207160005155",
                            "storage": {}
                        }
                    }
                }
            ]
        },
        "config": {
            "blobSchedule": {
                "Cancun": {
                    "target": "0x03",
                    "max": "0x06",
                    "baseFeeUpdateFraction": "0x32f0ed"
                },
                "Prague": {
                    "target": "0x06",
                    "max": "0x09",
                    "baseFeeUpdateFraction": "0x4c6964"
                },
                "Osaka": {
                    "target": "0x06",
                    "max": "0x09",
                    "baseFeeUpdateFraction": "0x4c6964"
                }
            },
            "chainid": "0x01"
        },
        "_info": {
            "hash": "0x081dff08861b87ac29b27c4e2fc00108cc92bb59477f9d13ed1cb58a3a6e50e2",
            "comment": "`execution-spec-tests` generated test",
            "filling-transition-tool": "ethereum-spec-evm-resolver 0.0.5",
            "description": "No description available - add a docstring to the python test class or function.",
            "url": "",
            "fixture-format": "state_test",
            "eels-resolution": {
                "git-url": "https://github.com/ethereum/execution-specs.git",
                "branch": "forks/bpos",
                "commit": "7aacb2c54111391af5e98c505d5010b5698a770f"
            }
        }
    },
    "tests/static/state_tests/stRandom2/randomStatetest525Filler.json::randomStatetest525[fork_Prague-state_test-]": {
        "env": {
            "currentCoinbase": "0x7dc35e70022998802e9bf5bc6f18896f69520c2e",
            "currentGasLimit": "0x7fffffffffffffff",
            "currentNumber": "0x01",
            "currentTimestamp": "0x03e8",
            "currentRandom": "0x0000000000000000000000000000000000000000000000000000000000020000",
            "currentDifficulty": "0x00",
            "currentBaseFee": "0x0a",
            "currentExcessBlobGas": "0x00"
        },
        "pre": {
            "0x2657e5f9a4d927bc83fb6860a5734df66bfd675f": {
                "nonce": "0x00",
                "balance": "0x0de0b6b3a7640000",
                "code": "0x",
                "storage": {}
            },
            "0x7dc35e70022998802e9bf5bc6f18896f69520c2e": {
                "nonce": "0x00",
                "balance": "0x2e",
                "code": "0x6000355415600957005b60203560003555",
                "storage": {}
            },
            "0x7dc35e70022998802e9bf5bc6f18896f69520d2e": {
                "nonce": "0x00",
                "balance": "0x00",
                "code": "0x7f00000000000000000000000100000000000000000000000000000000000000007fffffffffffffffffffffffffffffffffffffffffffffffffffffffffffffffff7f000000000000000000000000000000000000000000000000000000000000c3507f000000000000000000000000ffffffffffffffffffffffffffffffffffffffff7ffffffffffffffffffffffffffffffffffffffffffffffffffffffffffffffffe7f000000000000000000000000ffffffffffffffffffffffffffffffffffffffff097ffffffffffffffffffffffffffffffffffffffffffffffffffffffffffffffffe02207160005155",
                "storage": {}
            }
        },
        "transaction": {
            "nonce": "0x00",
            "gasPrice": "0x0a",
            "gasLimit": [
                "0x0186a0"
            ],
            "to": "0x7dc35e70022998802e9bf5bc6f18896f69520d2e",
            "value": [
                "0x0a9a88d4"
            ],
            "data": [
                "0x7f00000000000000000000000100000000000000000000000000000000000000007fffffffffffffffffffffffffffffffffffffffffffffffffffffffffffffffff7f000000000000000000000000000000000000000000000000000000000000c3507f000000000000000000000000ffffffffffffffffffffffffffffffffffffffff7ffffffffffffffffffffffffffffffffffffffffffffffffffffffffffffffffe7f000000000000000000000000ffffffffffffffffffffffffffffffffffffffff097ffffffffffffffffffffffffffffffffffffffffffffffffffffffffffffffffe022071"
            ],
            "sender": "0x2657e5f9a4d927bc83fb6860a5734df66bfd675f",
            "secretKey": "0x37d660bdb032b733dc8f5d9f7dc35e70022998802e9bf5bc6f18896f69520c2e"
        },
        "post": {
            "Prague": [
                {
                    "hash": "0x9b13461a7c270f4f72984be20e5eb39c1a80d27f19b727b3c81aaabc24e29436",
                    "logs": "0x1dcc4de8dec75d7aab85b567b6ccd41ad312451b948a7413f0a142fd40d49347",
                    "txbytes": "0xf90150800a830186a0947dc35e70022998802e9bf5bc6f18896f69520d2e840a9a88d4b8eb7f00000000000000000000000100000000000000000000000000000000000000007fffffffffffffffffffffffffffffffffffffffffffffffffffffffffffffffff7f000000000000000000000000000000000000000000000000000000000000c3507f000000000000000000000000ffffffffffffffffffffffffffffffffffffffff7ffffffffffffffffffffffffffffffffffffffffffffffffffffffffffffffffe7f000000000000000000000000ffffffffffffffffffffffffffffffffffffffff097ffffffffffffffffffffffffffffffffffffffffffffffffffffffffffffffffe02207126a0ac713029556ccf1ac78fedfed6a2df90bdb73f56c570c8a9ca26bf06a8433fb8a06e2677f4477b907750646ed4e5a352d40b8afa31ecac22f3f5c86c94ee9ce81a",
                    "indexes": {
                        "data": 0,
                        "gas": 0,
                        "value": 0
                    },
                    "state": {
                        "0x2657e5f9a4d927bc83fb6860a5734df66bfd675f": {
                            "nonce": "0x01",
                            "balance": "0x0de0b6b39cc2f55a",
                            "code": "0x",
                            "storage": {}
                        },
                        "0x7dc35e70022998802e9bf5bc6f18896f69520c2e": {
                            "nonce": "0x00",
                            "balance": "0x2e",
                            "code": "0x6000355415600957005b60203560003555",
                            "storage": {}
                        },
                        "0x7dc35e70022998802e9bf5bc6f18896f69520d2e": {
                            "nonce": "0x00",
                            "balance": "0x0a9a88d4",
                            "code": "0x7f00000000000000000000000100000000000000000000000000000000000000007fffffffffffffffffffffffffffffffffffffffffffffffffffffffffffffffff7f000000000000000000000000000000000000000000000000000000000000c3507f000000000000000000000000ffffffffffffffffffffffffffffffffffffffff7ffffffffffffffffffffffffffffffffffffffffffffffffffffffffffffffffe7f000000000000000000000000ffffffffffffffffffffffffffffffffffffffff097ffffffffffffffffffffffffffffffffffffffffffffffffffffffffffffffffe02207160005155",
                            "storage": {}
                        }
                    }
                }
            ]
        },
        "config": {
            "blobSchedule": {
                "Cancun": {
                    "target": "0x03",
                    "max": "0x06",
                    "baseFeeUpdateFraction": "0x32f0ed"
                },
                "Prague": {
                    "target": "0x06",
                    "max": "0x09",
                    "baseFeeUpdateFraction": "0x4c6964"
                }
            },
            "chainid": "0x01"
        },
        "_info": {
            "hash": "0x0e63d1a3964fd2f25d5c8f975a134b7669c091baaf1d972bcc58fe1893f3bf7e",
            "comment": "`execution-spec-tests` generated test",
            "filling-transition-tool": "ethereum-spec-evm-resolver 0.0.5",
            "description": "No description available - add a docstring to the python test class or function.",
            "url": "",
            "fixture-format": "state_test",
            "eels-resolution": {
                "git-url": "https://github.com/ethereum/execution-specs.git",
                "branch": "forks/bpos",
                "commit": "7aacb2c54111391af5e98c505d5010b5698a770f"
            }
        }
    }
}