{
    "tests/static/state_tests/stRandom2/randomStatetest507Filler.json::randomStatetest507[fork_Cancun-state_test-]": {
        "env": {
            "currentCoinbase": "0x867761b22ce7601cfb7f51ff9ee3c5f000300041",
            "currentGasLimit": "0x7fffffffffffffff",
            "currentNumber": "0x01",
            "currentTimestamp": "0x03e8",
            "currentRandom": "0x0000000000000000000000000000000000000000000000000000000000020000",
            "currentDifficulty": "0x00",
            "currentBaseFee": "0x0a",
            "currentExcessBlobGas": "0x00"
        },
        "pre": {
            "0x8eb917459775ca88f8d75ea01fed79ef26134b27": {
                "nonce": "0x00",
                "balance": "0x0de0b6b3a7640000",
                "code": "0x",
                "storage": {}
            },
            "0x867761b22ce7601cfb7f51ff9ee3c5f000300041": {
                "nonce": "0x00",
                "balance": "0x2e",
                "code": "0x6000355415600957005b60203560003555",
                "storage": {}
            },
            "0x867761b22ce7601cfb7f51ff9ee3c5f000300141": {
                "nonce": "0x00",
                "balance": "0x00",
                "code": "0x5a7f0000000000000000000000010000000000000000000000000000000000000000327f00000000000000000000000000000000000000000000000000000000000000017f000000000000000000000000ffffffffffffffffffffffffffffffffffffffff7ffffffffffffffffffffffffffffffffffffffffffffffffffffffffffffffffe7f000000000000000000000000867761b22ce7601cfb7f51ff9ee3c5f0003000416f99a4527612a199a06d1a348b02563a9b60005155",
                "storage": {}
            }
        },
        "transaction": {
            "nonce": "0x00",
            "gasPrice": "0x0a",
            "gasLimit": [
                "0x6f62fdbd"
            ],
            "to": "0x867761b22ce7601cfb7f51ff9ee3c5f000300141",
            "value": [
                "0x2987830a"
            ],
            "data": [
                "0x5a7f0000000000000000000000010000000000000000000000000000000000000000327f00000000000000000000000000000000000000000000000000000000000000017f000000000000000000000000ffffffffffffffffffffffffffffffffffffffff7ffffffffffffffffffffffffffffffffffffffffffffffffffffffffffffffffe7f000000000000000000000000867761b22ce7601cfb7f51ff9ee3c5f0003000416f99a4527612a199a06d1a348b02563a9b"
            ],
            "sender": "0x8eb917459775ca88f8d75ea01fed79ef26134b27",
            "secretKey": "0x67dfab122d01f105fa8033d9867761b22ce7601cfb7f51ff9ee3c5f000300041"
        },
        "post": {
            "Cancun": [
                {
                    "hash": "0x65dde0d31afbc73de33ca0fc1a1e3b314d94576fa15d7631dd545b20242ebeec",
                    "logs": "0x1dcc4de8dec75d7aab85b567b6ccd41ad312451b948a7413f0a142fd40d49347",
                    "txbytes": "0xf9011e800a846f62fdbd94867761b22ce7601cfb7f51ff9ee3c5f000300141842987830ab8b85a7f0000000000000000000000010000000000000000000000000000000000000000327f00000000000000000000000000000000000000000000000000000000000000017f000000000000000000000000ffffffffffffffffffffffffffffffffffffffff7ffffffffffffffffffffffffffffffffffffffffffffffffffffffffffffffffe7f000000000000000000000000867761b22ce7601cfb7f51ff9ee3c5f0003000416f99a4527612a199a06d1a348b02563a9b25a01d56b55bf10ed1722b16ed6ded38eb404f146717612060799cef6bab1a722559a019f6ac1bbf1f372b99e0d4f8d7535bc72a666bec646d14e713ef339483fe1712",
                    "indexes": {
                        "data": 0,
                        "gas": 0,
                        "value": 0
                    },
                    "state": {
                        "0x8eb917459775ca88f8d75ea01fed79ef26134b27": {
                            "nonce": "0x01",
                            "balance": "0x0de0b6b37dd59e68",
                            "code": "0x",
                            "storage": {}
                        },
                        "0x867761b22ce7601cfb7f51ff9ee3c5f000300041": {
                            "nonce": "0x00",
                            "balance": "0x2e",
                            "code": "0x6000355415600957005b60203560003555",
                            "storage": {}
                        },
                        "0x867761b22ce7601cfb7f51ff9ee3c5f000300141": {
                            "nonce": "0x00",
                            "balance": "0x2987830a",
                            "code": "0x5a7f0000000000000000000000010000000000000000000000000000000000000000327f00000000000000000000000000000000000000000000000000000000000000017f000000000000000000000000ffffffffffffffffffffffffffffffffffffffff7ffffffffffffffffffffffffffffffffffffffffffffffffffffffffffffffffe7f000000000000000000000000867761b22ce7601cfb7f51ff9ee3c5f0003000416f99a4527612a199a06d1a348b02563a9b60005155",
                            "storage": {
                                "0x00": "0x99a4527612a199a06d1a348b02563a9b"
                            }
                        }
                    }
                }
            ]
        },
        "config": {
            "blobSchedule": {
                "Cancun": {
                    "target": "0x03",
                    "max": "0x06",
                    "baseFeeUpdateFraction": "0x32f0ed"
                }
            },
            "chainid": "0x01"
        },
        "_info": {
            "hash": "0x6e8afd338e503927cd4a19718c50330289c29e337c2ea09b2385f2d4a2622824",
            "comment": "`execution-spec-tests` generated test",
            "filling-transition-tool": "ethereum-spec-evm-resolver 0.0.5",
            "description": "No description available - add a docstring to the python test class or function.",
            "url": "",
            "fixture-format": "state_test",
            "eels-resolution": {
                "git-url": "https://github.com/marioevz/execution-specs.git",
                "branch": "forks/bpo1",
                "commit": "3387e5f4aedfe99becfdc39b444d6371e25e0924"
            }
        }
    },
    "tests/static/state_tests/stRandom2/randomStatetest507Filler.json::randomStatetest507[fork_Prague-state_test-]": {
        "env": {
            "currentCoinbase": "0x867761b22ce7601cfb7f51ff9ee3c5f000300041",
            "currentGasLimit": "0x7fffffffffffffff",
            "currentNumber": "0x01",
            "currentTimestamp": "0x03e8",
            "currentRandom": "0x0000000000000000000000000000000000000000000000000000000000020000",
            "currentDifficulty": "0x00",
            "currentBaseFee": "0x0a",
            "currentExcessBlobGas": "0x00"
        },
        "pre": {
            "0x8eb917459775ca88f8d75ea01fed79ef26134b27": {
                "nonce": "0x00",
                "balance": "0x0de0b6b3a7640000",
                "code": "0x",
                "storage": {}
            },
            "0x867761b22ce7601cfb7f51ff9ee3c5f000300041": {
                "nonce": "0x00",
                "balance": "0x2e",
                "code": "0x6000355415600957005b60203560003555",
                "storage": {}
            },
            "0x867761b22ce7601cfb7f51ff9ee3c5f000300141": {
                "nonce": "0x00",
                "balance": "0x00",
                "code": "0x5a7f0000000000000000000000010000000000000000000000000000000000000000327f00000000000000000000000000000000000000000000000000000000000000017f000000000000000000000000ffffffffffffffffffffffffffffffffffffffff7ffffffffffffffffffffffffffffffffffffffffffffffffffffffffffffffffe7f000000000000000000000000867761b22ce7601cfb7f51ff9ee3c5f0003000416f99a4527612a199a06d1a348b02563a9b60005155",
                "storage": {}
            }
        },
        "transaction": {
            "nonce": "0x00",
            "gasPrice": "0x0a",
            "gasLimit": [
                "0x6f62fdbd"
            ],
            "to": "0x867761b22ce7601cfb7f51ff9ee3c5f000300141",
            "value": [
                "0x2987830a"
            ],
            "data": [
                "0x5a7f0000000000000000000000010000000000000000000000000000000000000000327f00000000000000000000000000000000000000000000000000000000000000017f000000000000000000000000ffffffffffffffffffffffffffffffffffffffff7ffffffffffffffffffffffffffffffffffffffffffffffffffffffffffffffffe7f000000000000000000000000867761b22ce7601cfb7f51ff9ee3c5f0003000416f99a4527612a199a06d1a348b02563a9b"
            ],
            "sender": "0x8eb917459775ca88f8d75ea01fed79ef26134b27",
            "secretKey": "0x67dfab122d01f105fa8033d9867761b22ce7601cfb7f51ff9ee3c5f000300041"
        },
        "post": {
            "Prague": [
                {
                    "hash": "0x65dde0d31afbc73de33ca0fc1a1e3b314d94576fa15d7631dd545b20242ebeec",
                    "logs": "0x1dcc4de8dec75d7aab85b567b6ccd41ad312451b948a7413f0a142fd40d49347",
                    "txbytes": "0xf9011e800a846f62fdbd94867761b22ce7601cfb7f51ff9ee3c5f000300141842987830ab8b85a7f0000000000000000000000010000000000000000000000000000000000000000327f00000000000000000000000000000000000000000000000000000000000000017f000000000000000000000000ffffffffffffffffffffffffffffffffffffffff7ffffffffffffffffffffffffffffffffffffffffffffffffffffffffffffffffe7f000000000000000000000000867761b22ce7601cfb7f51ff9ee3c5f0003000416f99a4527612a199a06d1a348b02563a9b25a01d56b55bf10ed1722b16ed6ded38eb404f146717612060799cef6bab1a722559a019f6ac1bbf1f372b99e0d4f8d7535bc72a666bec646d14e713ef339483fe1712",
                    "indexes": {
                        "data": 0,
                        "gas": 0,
                        "value": 0
                    },
                    "state": {
                        "0x8eb917459775ca88f8d75ea01fed79ef26134b27": {
                            "nonce": "0x01",
                            "balance": "0x0de0b6b37dd59e68",
                            "code": "0x",
                            "storage": {}
                        },
                        "0x867761b22ce7601cfb7f51ff9ee3c5f000300041": {
                            "nonce": "0x00",
                            "balance": "0x2e",
                            "code": "0x6000355415600957005b60203560003555",
                            "storage": {}
                        },
                        "0x867761b22ce7601cfb7f51ff9ee3c5f000300141": {
                            "nonce": "0x00",
                            "balance": "0x2987830a",
                            "code": "0x5a7f0000000000000000000000010000000000000000000000000000000000000000327f00000000000000000000000000000000000000000000000000000000000000017f000000000000000000000000ffffffffffffffffffffffffffffffffffffffff7ffffffffffffffffffffffffffffffffffffffffffffffffffffffffffffffffe7f000000000000000000000000867761b22ce7601cfb7f51ff9ee3c5f0003000416f99a4527612a199a06d1a348b02563a9b60005155",
                            "storage": {
                                "0x00": "0x99a4527612a199a06d1a348b02563a9b"
                            }
                        }
                    }
                }
            ]
        },
        "config": {
            "blobSchedule": {
                "Cancun": {
                    "target": "0x03",
                    "max": "0x06",
                    "baseFeeUpdateFraction": "0x32f0ed"
                },
                "Prague": {
                    "target": "0x06",
                    "max": "0x09",
                    "baseFeeUpdateFraction": "0x4c6964"
                }
            },
            "chainid": "0x01"
        },
        "_info": {
            "hash": "0xb5c2f8ec3cb46cc53263dde2140bb73a2ab21475a9a2ae7a65b99c32e86b4056",
            "comment": "`execution-spec-tests` generated test",
            "filling-transition-tool": "ethereum-spec-evm-resolver 0.0.5",
            "description": "No description available - add a docstring to the python test class or function.",
            "url": "",
            "fixture-format": "state_test",
            "eels-resolution": {
                "git-url": "https://github.com/marioevz/execution-specs.git",
                "branch": "forks/bpo1",
                "commit": "3387e5f4aedfe99becfdc39b444d6371e25e0924"
            }
        }
    }
}