{
    "tests/static/state_tests/stRandom2/randomStatetest565Filler.json::randomStatetest565[fork_Cancun-state_test-]": {
        "env": {
            "currentCoinbase": "0x915c57a5c5ccf7151ce94ff69153111da7d12c9c",
            "currentGasLimit": "0x7fffffffffffffff",
            "currentNumber": "0x01",
            "currentTimestamp": "0x03e8",
            "currentRandom": "0x0000000000000000000000000000000000000000000000000000000000020000",
            "currentDifficulty": "0x00",
            "currentBaseFee": "0x0a",
            "currentExcessBlobGas": "0x00"
        },
        "pre": {
            "0x5793357b131f0d4bce96d8af056b8347c81ec175": {
                "nonce": "0x00",
                "balance": "0x0de0b6b3a7640000",
                "code": "0x",
                "storage": {}
            },
            "0x915c57a5c5ccf7151ce94ff69153111da7d12c9c": {
                "nonce": "0x00",
                "balance": "0x2e",
                "code": "0x6000355415600957005b60203560003555",
                "storage": {}
            },
            "0x915c57a5c5ccf7151ce94ff69153111da7d12d9c": {
                "nonce": "0x00",
                "balance": "0x00",
                "code": "0x7f00000000000000000000000100000000000000000000000000000000000000007f000000000000000000000000945304eb96065b2a98b57a48a06ae28d285a71b57f000000000000000000000000000000000000000000000000000000000000c350137f000000000000000000000000000000000000000000000000000000000000c3507f00000000000000000000000000000000000000000000000000000000000000007f0000000000000000000000010000000000000000000000000000000000000000923760005155",
                "storage": {}
            }
        },
        "transaction": {
            "nonce": "0x00",
            "gasPrice": "0x0a",
            "gasLimit": [
                "0x0186a0"
            ],
            "to": "0x915c57a5c5ccf7151ce94ff69153111da7d12d9c",
            "value": [
                "0x28cd0966"
            ],
            "data": [
                "0x7f00000000000000000000000100000000000000000000000000000000000000007f000000000000000000000000945304eb96065b2a98b57a48a06ae28d285a71b57f000000000000000000000000000000000000000000000000000000000000c350137f000000000000000000000000000000000000000000000000000000000000c3507f00000000000000000000000000000000000000000000000000000000000000007f00000000000000000000000100000000000000000000000000000000000000009237"
            ],
            "sender": "0x5793357b131f0d4bce96d8af056b8347c81ec175",
            "secretKey": "0x046e1859026bb3281d4b906d915c57a5c5ccf7151ce94ff69153111da7d12c9c"
        },
        "post": {
            "Cancun": [
                {
                    "hash": "0x9a0ce69b04cb668993e0c8544ead9ca88cfde02072ca7631bfac1c2638107293",
                    "logs": "0x1dcc4de8dec75d7aab85b567b6ccd41ad312451b948a7413f0a142fd40d49347",
                    "txbytes": "0xf9012e800a830186a094915c57a5c5ccf7151ce94ff69153111da7d12d9c8428cd0966b8c97f00000000000000000000000100000000000000000000000000000000000000007f000000000000000000000000945304eb96065b2a98b57a48a06ae28d285a71b57f000000000000000000000000000000000000000000000000000000000000c350137f000000000000000000000000000000000000000000000000000000000000c3507f00000000000000000000000000000000000000000000000000000000000000007f0000000000000000000000010000000000000000000000000000000000000000923726a05f3b18127c3ef19270bab2be7c00dcb14850ee3623cedf062d9bda9405a7f3eba027af54449bc1cbf9ed4537fdb43ef0449034a897c88c3c5d433425421e873cfc",
                    "indexes": {
                        "data": 0,
                        "gas": 0,
                        "value": 0
                    },
                    "state": {
                        "0x5793357b131f0d4bce96d8af056b8347c81ec175": {
                            "nonce": "0x01",
                            "balance": "0x0de0b6b37e8e0936",
                            "code": "0x",
                            "storage": {}
                        },
                        "0x915c57a5c5ccf7151ce94ff69153111da7d12c9c": {
                            "nonce": "0x00",
                            "balance": "0x2e",
                            "code": "0x6000355415600957005b60203560003555",
                            "storage": {}
                        },
                        "0x915c57a5c5ccf7151ce94ff69153111da7d12d9c": {
                            "nonce": "0x00",
                            "balance": "0x28cd0966",
                            "code": "0x7f00000000000000000000000100000000000000000000000000000000000000007f000000000000000000000000945304eb96065b2a98b57a48a06ae28d285a71b57f000000000000000000000000000000000000000000000000000000000000c350137f000000000000000000000000000000000000000000000000000000000000c3507f00000000000000000000000000000000000000000000000000000000000000007f0000000000000000000000010000000000000000000000000000000000000000923760005155",
                            "storage": {
                                "0x7f00000000000000000000000100000000000000000000000000000000000000": "0x010000000000000000000000000000000000000000"
                            }
                        }
                    }
                }
            ]
        },
        "config": {
            "blobSchedule": {
                "Cancun": {
                    "target": "0x03",
                    "max": "0x06",
                    "baseFeeUpdateFraction": "0x32f0ed"
                }
            },
            "chainid": "0x01"
        },
        "_info": {
            "hash": "0xa78caee1b3916b1de3bb1a4f0db0b4e11a8951a957b783cff6084a28fefee83a",
            "comment": "`execution-spec-tests` generated test",
            "filling-transition-tool": "ethereum-spec-evm-resolver 0.0.5",
            "description": "No description available - add a docstring to the python test class or function.",
            "url": "",
            "fixture-format": "state_test",
            "eels-resolution": {
                "git-url": "https://github.com/ethereum/execution-specs.git",
                "branch": "forks/bpos",
                "commit": "7aacb2c54111391af5e98c505d5010b5698a770f"
            }
        }
    },
    "tests/static/state_tests/stRandom2/randomStatetest565Filler.json::randomStatetest565[fork_Osaka-state_test-]": {
        "env": {
            "currentCoinbase": "0x915c57a5c5ccf7151ce94ff69153111da7d12c9c",
            "currentGasLimit": "0x7fffffffffffffff",
            "currentNumber": "0x01",
            "currentTimestamp": "0x03e8",
            "currentRandom": "0x0000000000000000000000000000000000000000000000000000000000020000",
            "currentDifficulty": "0x00",
            "currentBaseFee": "0x0a",
            "currentExcessBlobGas": "0x00"
        },
        "pre": {
            "0x5793357b131f0d4bce96d8af056b8347c81ec175": {
                "nonce": "0x00",
                "balance": "0x0de0b6b3a7640000",
                "code": "0x",
                "storage": {}
            },
            "0x915c57a5c5ccf7151ce94ff69153111da7d12c9c": {
                "nonce": "0x00",
                "balance": "0x2e",
                "code": "0x6000355415600957005b60203560003555",
                "storage": {}
            },
            "0x915c57a5c5ccf7151ce94ff69153111da7d12d9c": {
                "nonce": "0x00",
                "balance": "0x00",
                "code": "0x7f00000000000000000000000100000000000000000000000000000000000000007f000000000000000000000000945304eb96065b2a98b57a48a06ae28d285a71b57f000000000000000000000000000000000000000000000000000000000000c350137f000000000000000000000000000000000000000000000000000000000000c3507f00000000000000000000000000000000000000000000000000000000000000007f0000000000000000000000010000000000000000000000000000000000000000923760005155",
                "storage": {}
            }
        },
        "transaction": {
            "nonce": "0x00",
            "gasPrice": "0x0a",
            "gasLimit": [
                "0x0186a0"
            ],
            "to": "0x915c57a5c5ccf7151ce94ff69153111da7d12d9c",
            "value": [
                "0x28cd0966"
            ],
            "data": [
                "0x7f00000000000000000000000100000000000000000000000000000000000000007f000000000000000000000000945304eb96065b2a98b57a48a06ae28d285a71b57f000000000000000000000000000000000000000000000000000000000000c350137f000000000000000000000000000000000000000000000000000000000000c3507f00000000000000000000000000000000000000000000000000000000000000007f00000000000000000000000100000000000000000000000000000000000000009237"
            ],
            "sender": "0x5793357b131f0d4bce96d8af056b8347c81ec175",
            "secretKey": "0x046e1859026bb3281d4b906d915c57a5c5ccf7151ce94ff69153111da7d12c9c"
        },
        "post": {
            "Osaka": [
                {
                    "hash": "0x9a0ce69b04cb668993e0c8544ead9ca88cfde02072ca7631bfac1c2638107293",
                    "logs": "0x1dcc4de8dec75d7aab85b567b6ccd41ad312451b948a7413f0a142fd40d49347",
                    "txbytes": "0xf9012e800a830186a094915c57a5c5ccf7151ce94ff69153111da7d12d9c8428cd0966b8c97f00000000000000000000000100000000000000000000000000000000000000007f000000000000000000000000945304eb96065b2a98b57a48a06ae28d285a71b57f000000000000000000000000000000000000000000000000000000000000c350137f000000000000000000000000000000000000000000000000000000000000c3507f00000000000000000000000000000000000000000000000000000000000000007f0000000000000000000000010000000000000000000000000000000000000000923726a05f3b18127c3ef19270bab2be7c00dcb14850ee3623cedf062d9bda9405a7f3eba027af54449bc1cbf9ed4537fdb43ef0449034a897c88c3c5d433425421e873cfc",
                    "indexes": {
                        "data": 0,
                        "gas": 0,
                        "value": 0
                    },
                    "state": {
                        "0x5793357b131f0d4bce96d8af056b8347c81ec175": {
                            "nonce": "0x01",
                            "balance": "0x0de0b6b37e8e0936",
                            "code": "0x",
                            "storage": {}
                        },
                        "0x915c57a5c5ccf7151ce94ff69153111da7d12c9c": {
                            "nonce": "0x00",
                            "balance": "0x2e",
                            "code": "0x6000355415600957005b60203560003555",
                            "storage": {}
                        },
                        "0x915c57a5c5ccf7151ce94ff69153111da7d12d9c": {
                            "nonce": "0x00",
                            "balance": "0x28cd0966",
                            "code": "0x7f00000000000000000000000100000000000000000000000000000000000000007f000000000000000000000000945304eb96065b2a98b57a48a06ae28d285a71b57f000000000000000000000000000000000000000000000000000000000000c350137f000000000000000000000000000000000000000000000000000000000000c3507f00000000000000000000000000000000000000000000000000000000000000007f0000000000000000000000010000000000000000000000000000000000000000923760005155",
                            "storage": {
                                "0x7f00000000000000000000000100000000000000000000000000000000000000": "0x010000000000000000000000000000000000000000"
                            }
                        }
                    }
                }
            ]
        },
        "config": {
            "blobSchedule": {
                "Cancun": {
                    "target": "0x03",
                    "max": "0x06",
                    "baseFeeUpdateFraction": "0x32f0ed"
                },
                "Prague": {
                    "target": "0x06",
                    "max": "0x09",
                    "baseFeeUpdateFraction": "0x4c6964"
                },
                "Osaka": {
                    "target": "0x06",
                    "max": "0x09",
                    "baseFeeUpdateFraction": "0x4c6964"
                }
            },
            "chainid": "0x01"
        },
        "_info": {
            "hash": "0x1de6c9f7bbd7bcbb284795e130ea31c4d375ca4761f0fa3128ec2365f467fdf6",
            "comment": "`execution-spec-tests` generated test",
            "filling-transition-tool": "ethereum-spec-evm-resolver 0.0.5",
            "description": "No description available - add a docstring to the python test class or function.",
            "url": "",
            "fixture-format": "state_test",
            "eels-resolution": {
                "git-url": "https://github.com/ethereum/execution-specs.git",
                "branch": "forks/bpos",
                "commit": "7aacb2c54111391af5e98c505d5010b5698a770f"
            }
        }
    },
    "tests/static/state_tests/stRandom2/randomStatetest565Filler.json::randomStatetest565[fork_Prague-state_test-]": {
        "env": {
            "currentCoinbase": "0x915c57a5c5ccf7151ce94ff69153111da7d12c9c",
            "currentGasLimit": "0x7fffffffffffffff",
            "currentNumber": "0x01",
            "currentTimestamp": "0x03e8",
            "currentRandom": "0x0000000000000000000000000000000000000000000000000000000000020000",
            "currentDifficulty": "0x00",
            "currentBaseFee": "0x0a",
            "currentExcessBlobGas": "0x00"
        },
        "pre": {
            "0x5793357b131f0d4bce96d8af056b8347c81ec175": {
                "nonce": "0x00",
                "balance": "0x0de0b6b3a7640000",
                "code": "0x",
                "storage": {}
            },
            "0x915c57a5c5ccf7151ce94ff69153111da7d12c9c": {
                "nonce": "0x00",
                "balance": "0x2e",
                "code": "0x6000355415600957005b60203560003555",
                "storage": {}
            },
            "0x915c57a5c5ccf7151ce94ff69153111da7d12d9c": {
                "nonce": "0x00",
                "balance": "0x00",
                "code": "0x7f00000000000000000000000100000000000000000000000000000000000000007f000000000000000000000000945304eb96065b2a98b57a48a06ae28d285a71b57f000000000000000000000000000000000000000000000000000000000000c350137f000000000000000000000000000000000000000000000000000000000000c3507f00000000000000000000000000000000000000000000000000000000000000007f0000000000000000000000010000000000000000000000000000000000000000923760005155",
                "storage": {}
            }
        },
        "transaction": {
            "nonce": "0x00",
            "gasPrice": "0x0a",
            "gasLimit": [
                "0x0186a0"
            ],
            "to": "0x915c57a5c5ccf7151ce94ff69153111da7d12d9c",
            "value": [
                "0x28cd0966"
            ],
            "data": [
                "0x7f00000000000000000000000100000000000000000000000000000000000000007f000000000000000000000000945304eb96065b2a98b57a48a06ae28d285a71b57f000000000000000000000000000000000000000000000000000000000000c350137f000000000000000000000000000000000000000000000000000000000000c3507f00000000000000000000000000000000000000000000000000000000000000007f00000000000000000000000100000000000000000000000000000000000000009237"
            ],
            "sender": "0x5793357b131f0d4bce96d8af056b8347c81ec175",
            "secretKey": "0x046e1859026bb3281d4b906d915c57a5c5ccf7151ce94ff69153111da7d12c9c"
        },
        "post": {
            "Prague": [
                {
                    "hash": "0x9a0ce69b04cb668993e0c8544ead9ca88cfde02072ca7631bfac1c2638107293",
                    "logs": "0x1dcc4de8dec75d7aab85b567b6ccd41ad312451b948a7413f0a142fd40d49347",
                    "txbytes": "0xf9012e800a830186a094915c57a5c5ccf7151ce94ff69153111da7d12d9c8428cd0966b8c97f00000000000000000000000100000000000000000000000000000000000000007f000000000000000000000000945304eb96065b2a98b57a48a06ae28d285a71b57f000000000000000000000000000000000000000000000000000000000000c350137f000000000000000000000000000000000000000000000000000000000000c3507f00000000000000000000000000000000000000000000000000000000000000007f0000000000000000000000010000000000000000000000000000000000000000923726a05f3b18127c3ef19270bab2be7c00dcb14850ee3623cedf062d9bda9405a7f3eba027af54449bc1cbf9ed4537fdb43ef0449034a897c88c3c5d433425421e873cfc",
                    "indexes": {
                        "data": 0,
                        "gas": 0,
                        "value": 0
                    },
                    "state": {
                        "0x5793357b131f0d4bce96d8af056b8347c81ec175": {
                            "nonce": "0x01",
                            "balance": "0x0de0b6b37e8e0936",
                            "code": "0x",
                            "storage": {}
                        },
                        "0x915c57a5c5ccf7151ce94ff69153111da7d12c9c": {
                            "nonce": "0x00",
                            "balance": "0x2e",
                            "code": "0x6000355415600957005b60203560003555",
                            "storage": {}
                        },
                        "0x915c57a5c5ccf7151ce94ff69153111da7d12d9c": {
                            "nonce": "0x00",
                            "balance": "0x28cd0966",
                            "code": "0x7f00000000000000000000000100000000000000000000000000000000000000007f000000000000000000000000945304eb96065b2a98b57a48a06ae28d285a71b57f000000000000000000000000000000000000000000000000000000000000c350137f000000000000000000000000000000000000000000000000000000000000c3507f00000000000000000000000000000000000000000000000000000000000000007f0000000000000000000000010000000000000000000000000000000000000000923760005155",
                            "storage": {
                                "0x7f00000000000000000000000100000000000000000000000000000000000000": "0x010000000000000000000000000000000000000000"
                            }
                        }
                    }
                }
            ]
        },
        "config": {
            "blobSchedule": {
                "Cancun": {
                    "target": "0x03",
                    "max": "0x06",
                    "baseFeeUpdateFraction": "0x32f0ed"
                },
                "Prague": {
                    "target": "0x06",
                    "max": "0x09",
                    "baseFeeUpdateFraction": "0x4c6964"
                }
            },
            "chainid": "0x01"
        },
        "_info": {
            "hash": "0x5de82b978bd508cd73dda0eca06c8d54118c1de5e89c9efb6c4589224034c4bd",
            "comment": "`execution-spec-tests` generated test",
            "filling-transition-tool": "ethereum-spec-evm-resolver 0.0.5",
            "description": "No description available - add a docstring to the python test class or function.",
            "url": "",
            "fixture-format": "state_test",
            "eels-resolution": {
                "git-url": "https://github.com/ethereum/execution-specs.git",
                "branch": "forks/bpos",
                "commit": "7aacb2c54111391af5e98c505d5010b5698a770f"
            }
        }
    }
}