{
    "tests/static/state_tests/stRandom2/randomStatetest386Filler.json::randomStatetest386[fork_Cancun-state_test-]": {
        "env": {
            "currentCoinbase": "0xf95e43dbac924fec79ace30e3e6fed18cd377d60",
            "currentGasLimit": "0x7fffffffffffffff",
            "currentNumber": "0x01",
            "currentTimestamp": "0x03e8",
            "currentRandom": "0x0000000000000000000000000000000000000000000000000000000000020000",
            "currentDifficulty": "0x00",
            "currentBaseFee": "0x0a",
            "currentExcessBlobGas": "0x00"
        },
        "pre": {
            "0x2c5a2aa43e929f54c35c4f77ec1e799232909a8b": {
                "nonce": "0x00",
                "balance": "0x0de0b6b3a7640000",
                "code": "0x",
                "storage": {}
            },
            "0xf95e43dbac924fec79ace30e3e6fed18cd377d60": {
                "nonce": "0x00",
                "balance": "0x2e",
                "code": "0x6000355415600957005b60203560003555",
                "storage": {}
            },
            "0xf95e43dbac924fec79ace30e3e6fed18cd377e60": {
                "nonce": "0x00",
                "balance": "0x00",
                "code": "0x7f00000000000000000000000000000000000000000000000000000000000000007f00000000000000000000000000000000000000000000000000000000000000007f000000000000000000000000ffffffffffffffffffffffffffffffffffffffff7f00000000000000000000000000000000000000000000000000000000000000007fffffffffffffffffffffffffffffffffffffffffffffffffffffffffffffffff7fffffffffffffffffffffffffffffffffffffffffffffffffffffffffffffffff047f000000000000000000000000000000000000000000000000000000000000000105133641010b811160005155",
                "storage": {}
            }
        },
        "transaction": {
            "nonce": "0x00",
            "gasPrice": "0x0a",
            "gasLimit": [
                "0x0186a0"
            ],
            "to": "0xf95e43dbac924fec79ace30e3e6fed18cd377e60",
            "value": [
                "0x19d7ac44"
            ],
            "data": [
                "0x7f00000000000000000000000000000000000000000000000000000000000000007f00000000000000000000000000000000000000000000000000000000000000007f000000000000000000000000ffffffffffffffffffffffffffffffffffffffff7f00000000000000000000000000000000000000000000000000000000000000007fffffffffffffffffffffffffffffffffffffffffffffffffffffffffffffffff7fffffffffffffffffffffffffffffffffffffffffffffffffffffffffffffffff047f000000000000000000000000000000000000000000000000000000000000000105133641010b8111"
            ],
            "sender": "0x2c5a2aa43e929f54c35c4f77ec1e799232909a8b",
            "secretKey": "0x183340184196e513951f8187f95e43dbac924fec79ace30e3e6fed18cd377d60"
        },
        "post": {
            "Cancun": [
                {
                    "hash": "0x4b3e0cf7c3a447c86dda30eb6a5fe68fcb035ad8d203d8bc13f1c910c86741a4",
                    "logs": "0x1dcc4de8dec75d7aab85b567b6ccd41ad312451b948a7413f0a142fd40d49347",
                    "txbytes": "0xf90155800a830186a094f95e43dbac924fec79ace30e3e6fed18cd377e608419d7ac44b8f07f00000000000000000000000000000000000000000000000000000000000000007f00000000000000000000000000000000000000000000000000000000000000007f000000000000000000000000ffffffffffffffffffffffffffffffffffffffff7f00000000000000000000000000000000000000000000000000000000000000007fffffffffffffffffffffffffffffffffffffffffffffffffffffffffffffffff7fffffffffffffffffffffffffffffffffffffffffffffffffffffffffffffffff047f000000000000000000000000000000000000000000000000000000000000000105133641010b811125a0b01d1313b376eeefb67c4b0eaba7b4c538b45562de44a6b3d79c28432150517ca0680d045723ced09c544eb9a3cb6c7019c6278ba0118b73d9c4223ca88e2b3d7f",
                    "indexes": {
                        "data": 0,
                        "gas": 0,
                        "value": 0
                    },
                    "state": {
                        "0x2c5a2aa43e929f54c35c4f77ec1e799232909a8b": {
                            "nonce": "0x01",
                            "balance": "0x0de0b6b38d8568ea",
                            "code": "0x",
                            "storage": {}
                        },
                        "0xf95e43dbac924fec79ace30e3e6fed18cd377d60": {
                            "nonce": "0x00",
                            "balance": "0x2e",
                            "code": "0x6000355415600957005b60203560003555",
                            "storage": {}
                        },
                        "0xf95e43dbac924fec79ace30e3e6fed18cd377e60": {
                            "nonce": "0x00",
                            "balance": "0x19d7ac44",
                            "code": "0x7f00000000000000000000000000000000000000000000000000000000000000007f00000000000000000000000000000000000000000000000000000000000000007f000000000000000000000000ffffffffffffffffffffffffffffffffffffffff7f00000000000000000000000000000000000000000000000000000000000000007fffffffffffffffffffffffffffffffffffffffffffffffffffffffffffffffff7fffffffffffffffffffffffffffffffffffffffffffffffffffffffffffffffff047f000000000000000000000000000000000000000000000000000000000000000105133641010b811160005155",
                            "storage": {
                                "0x00": "0x01"
                            }
                        }
                    }
                }
            ]
        },
        "config": {
            "blobSchedule": {
                "Cancun": {
                    "target": "0x03",
                    "max": "0x06",
                    "baseFeeUpdateFraction": "0x32f0ed"
                }
            },
            "chainid": "0x01"
        },
        "_info": {
            "hash": "0x429f43f2fb5974e258d7c180455e87b2e1c22faafa621923f37199a03d974695",
            "comment": "`execution-specs` generated test",
            "filling-transition-tool": "2.18.0rc6",
            "description": "No description available - add a docstring to the python test class or function.",
            "url": "",
            "fixture-format": "state_test"
        }
    },
    "tests/static/state_tests/stRandom2/randomStatetest386Filler.json::randomStatetest386[fork_Osaka-state_test-]": {
        "env": {
            "currentCoinbase": "0xf95e43dbac924fec79ace30e3e6fed18cd377d60",
            "currentGasLimit": "0x7fffffffffffffff",
            "currentNumber": "0x01",
            "currentTimestamp": "0x03e8",
            "currentRandom": "0x0000000000000000000000000000000000000000000000000000000000020000",
            "currentDifficulty": "0x00",
            "currentBaseFee": "0x0a",
            "currentExcessBlobGas": "0x00"
        },
        "pre": {
            "0x2c5a2aa43e929f54c35c4f77ec1e799232909a8b": {
                "nonce": "0x00",
                "balance": "0x0de0b6b3a7640000",
                "code": "0x",
                "storage": {}
            },
            "0xf95e43dbac924fec79ace30e3e6fed18cd377d60": {
                "nonce": "0x00",
                "balance": "0x2e",
                "code": "0x6000355415600957005b60203560003555",
                "storage": {}
            },
            "0xf95e43dbac924fec79ace30e3e6fed18cd377e60": {
                "nonce": "0x00",
                "balance": "0x00",
                "code": "0x7f00000000000000000000000000000000000000000000000000000000000000007f00000000000000000000000000000000000000000000000000000000000000007f000000000000000000000000ffffffffffffffffffffffffffffffffffffffff7f00000000000000000000000000000000000000000000000000000000000000007fffffffffffffffffffffffffffffffffffffffffffffffffffffffffffffffff7fffffffffffffffffffffffffffffffffffffffffffffffffffffffffffffffff047f000000000000000000000000000000000000000000000000000000000000000105133641010b811160005155",
                "storage": {}
            }
        },
        "transaction": {
            "nonce": "0x00",
            "gasPrice": "0x0a",
            "gasLimit": [
                "0x0186a0"
            ],
            "to": "0xf95e43dbac924fec79ace30e3e6fed18cd377e60",
            "value": [
                "0x19d7ac44"
            ],
            "data": [
                "0x7f00000000000000000000000000000000000000000000000000000000000000007f00000000000000000000000000000000000000000000000000000000000000007f000000000000000000000000ffffffffffffffffffffffffffffffffffffffff7f00000000000000000000000000000000000000000000000000000000000000007fffffffffffffffffffffffffffffffffffffffffffffffffffffffffffffffff7fffffffffffffffffffffffffffffffffffffffffffffffffffffffffffffffff047f000000000000000000000000000000000000000000000000000000000000000105133641010b8111"
            ],
            "sender": "0x2c5a2aa43e929f54c35c4f77ec1e799232909a8b",
            "secretKey": "0x183340184196e513951f8187f95e43dbac924fec79ace30e3e6fed18cd377d60"
        },
        "post": {
            "Osaka": [
                {
                    "hash": "0x4b3e0cf7c3a447c86dda30eb6a5fe68fcb035ad8d203d8bc13f1c910c86741a4",
                    "logs": "0x1dcc4de8dec75d7aab85b567b6ccd41ad312451b948a7413f0a142fd40d49347",
                    "txbytes": "0xf90155800a830186a094f95e43dbac924fec79ace30e3e6fed18cd377e608419d7ac44b8f07f00000000000000000000000000000000000000000000000000000000000000007f00000000000000000000000000000000000000000000000000000000000000007f000000000000000000000000ffffffffffffffffffffffffffffffffffffffff7f00000000000000000000000000000000000000000000000000000000000000007fffffffffffffffffffffffffffffffffffffffffffffffffffffffffffffffff7fffffffffffffffffffffffffffffffffffffffffffffffffffffffffffffffff047f000000000000000000000000000000000000000000000000000000000000000105133641010b811125a0b01d1313b376eeefb67c4b0eaba7b4c538b45562de44a6b3d79c28432150517ca0680d045723ced09c544eb9a3cb6c7019c6278ba0118b73d9c4223ca88e2b3d7f",
                    "indexes": {
                        "data": 0,
                        "gas": 0,
                        "value": 0
                    },
                    "state": {
                        "0x2c5a2aa43e929f54c35c4f77ec1e799232909a8b": {
                            "nonce": "0x01",
                            "balance": "0x0de0b6b38d8568ea",
                            "code": "0x",
                            "storage": {}
                        },
                        "0xf95e43dbac924fec79ace30e3e6fed18cd377d60": {
                            "nonce": "0x00",
                            "balance": "0x2e",
                            "code": "0x6000355415600957005b60203560003555",
                            "storage": {}
                        },
                        "0xf95e43dbac924fec79ace30e3e6fed18cd377e60": {
                            "nonce": "0x00",
                            "balance": "0x19d7ac44",
                            "code": "0x7f00000000000000000000000000000000000000000000000000000000000000007f00000000000000000000000000000000000000000000000000000000000000007f000000000000000000000000ffffffffffffffffffffffffffffffffffffffff7f00000000000000000000000000000000000000000000000000000000000000007fffffffffffffffffffffffffffffffffffffffffffffffffffffffffffffffff7fffffffffffffffffffffffffffffffffffffffffffffffffffffffffffffffff047f000000000000000000000000000000000000000000000000000000000000000105133641010b811160005155",
                            "storage": {
                                "0x00": "0x01"
                            }
                        }
                    }
                }
            ]
        },
        "config": {
            "blobSchedule": {
                "Cancun": {
                    "target": "0x03",
                    "max": "0x06",
                    "baseFeeUpdateFraction": "0x32f0ed"
                },
                "Prague": {
                    "target": "0x06",
                    "max": "0x09",
                    "baseFeeUpdateFraction": "0x4c6964"
                },
                "Osaka": {
                    "target": "0x06",
                    "max": "0x09",
                    "baseFeeUpdateFraction": "0x4c6964"
                }
            },
            "chainid": "0x01"
        },
        "_info": {
            "hash": "0xa3a6273c15db0a925e871ad4e79a10df6043a517a166b6eb5032f65c231b18ed",
            "comment": "`execution-specs` generated test",
            "filling-transition-tool": "2.18.0rc6",
            "description": "No description available - add a docstring to the python test class or function.",
            "url": "",
            "fixture-format": "state_test"
        }
    },
    "tests/static/state_tests/stRandom2/randomStatetest386Filler.json::randomStatetest386[fork_Prague-state_test-]": {
        "env": {
            "currentCoinbase": "0xf95e43dbac924fec79ace30e3e6fed18cd377d60",
            "currentGasLimit": "0x7fffffffffffffff",
            "currentNumber": "0x01",
            "currentTimestamp": "0x03e8",
            "currentRandom": "0x0000000000000000000000000000000000000000000000000000000000020000",
            "currentDifficulty": "0x00",
            "currentBaseFee": "0x0a",
            "currentExcessBlobGas": "0x00"
        },
        "pre": {
            "0x2c5a2aa43e929f54c35c4f77ec1e799232909a8b": {
                "nonce": "0x00",
                "balance": "0x0de0b6b3a7640000",
                "code": "0x",
                "storage": {}
            },
            "0xf95e43dbac924fec79ace30e3e6fed18cd377d60": {
                "nonce": "0x00",
                "balance": "0x2e",
                "code": "0x6000355415600957005b60203560003555",
                "storage": {}
            },
            "0xf95e43dbac924fec79ace30e3e6fed18cd377e60": {
                "nonce": "0x00",
                "balance": "0x00",
                "code": "0x7f00000000000000000000000000000000000000000000000000000000000000007f00000000000000000000000000000000000000000000000000000000000000007f000000000000000000000000ffffffffffffffffffffffffffffffffffffffff7f00000000000000000000000000000000000000000000000000000000000000007fffffffffffffffffffffffffffffffffffffffffffffffffffffffffffffffff7fffffffffffffffffffffffffffffffffffffffffffffffffffffffffffffffff047f000000000000000000000000000000000000000000000000000000000000000105133641010b811160005155",
                "storage": {}
            }
        },
        "transaction": {
            "nonce": "0x00",
            "gasPrice": "0x0a",
            "gasLimit": [
                "0x0186a0"
            ],
            "to": "0xf95e43dbac924fec79ace30e3e6fed18cd377e60",
            "value": [
                "0x19d7ac44"
            ],
            "data": [
                "0x7f00000000000000000000000000000000000000000000000000000000000000007f00000000000000000000000000000000000000000000000000000000000000007f000000000000000000000000ffffffffffffffffffffffffffffffffffffffff7f00000000000000000000000000000000000000000000000000000000000000007fffffffffffffffffffffffffffffffffffffffffffffffffffffffffffffffff7fffffffffffffffffffffffffffffffffffffffffffffffffffffffffffffffff047f000000000000000000000000000000000000000000000000000000000000000105133641010b8111"
            ],
            "sender": "0x2c5a2aa43e929f54c35c4f77ec1e799232909a8b",
            "secretKey": "0x183340184196e513951f8187f95e43dbac924fec79ace30e3e6fed18cd377d60"
        },
        "post": {
            "Prague": [
                {
                    "hash": "0x4b3e0cf7c3a447c86dda30eb6a5fe68fcb035ad8d203d8bc13f1c910c86741a4",
                    "logs": "0x1dcc4de8dec75d7aab85b567b6ccd41ad312451b948a7413f0a142fd40d49347",
                    "txbytes": "0xf90155800a830186a094f95e43dbac924fec79ace30e3e6fed18cd377e608419d7ac44b8f07f00000000000000000000000000000000000000000000000000000000000000007f00000000000000000000000000000000000000000000000000000000000000007f000000000000000000000000ffffffffffffffffffffffffffffffffffffffff7f00000000000000000000000000000000000000000000000000000000000000007fffffffffffffffffffffffffffffffffffffffffffffffffffffffffffffffff7fffffffffffffffffffffffffffffffffffffffffffffffffffffffffffffffff047f000000000000000000000000000000000000000000000000000000000000000105133641010b811125a0b01d1313b376eeefb67c4b0eaba7b4c538b45562de44a6b3d79c28432150517ca0680d045723ced09c544eb9a3cb6c7019c6278ba0118b73d9c4223ca88e2b3d7f",
                    "indexes": {
                        "data": 0,
                        "gas": 0,
                        "value": 0
                    },
                    "state": {
                        "0x2c5a2aa43e929f54c35c4f77ec1e799232909a8b": {
                            "nonce": "0x01",
                            "balance": "0x0de0b6b38d8568ea",
                            "code": "0x",
                            "storage": {}
                        },
                        "0xf95e43dbac924fec79ace30e3e6fed18cd377d60": {
                            "nonce": "0x00",
                            "balance": "0x2e",
                            "code": "0x6000355415600957005b60203560003555",
                            "storage": {}
                        },
                        "0xf95e43dbac924fec79ace30e3e6fed18cd377e60": {
                            "nonce": "0x00",
                            "balance": "0x19d7ac44",
                            "code": "0x7f00000000000000000000000000000000000000000000000000000000000000007f00000000000000000000000000000000000000000000000000000000000000007f000000000000000000000000ffffffffffffffffffffffffffffffffffffffff7f00000000000000000000000000000000000000000000000000000000000000007fffffffffffffffffffffffffffffffffffffffffffffffffffffffffffffffff7fffffffffffffffffffffffffffffffffffffffffffffffffffffffffffffffff047f000000000000000000000000000000000000000000000000000000000000000105133641010b811160005155",
                            "storage": {
                                "0x00": "0x01"
                            }
                        }
                    }
                }
            ]
        },
        "config": {
            "blobSchedule": {
                "Cancun": {
                    "target": "0x03",
                    "max": "0x06",
                    "baseFeeUpdateFraction": "0x32f0ed"
                },
                "Prague": {
                    "target": "0x06",
                    "max": "0x09",
                    "baseFeeUpdateFraction": "0x4c6964"
                }
            },
            "chainid": "0x01"
        },
        "_info": {
            "hash": "0x0bbe3aea8c37225d673e0dc2011546f51fb456c04521846dfc18bc189938dd7c",
            "comment": "`execution-specs` generated test",
            "filling-transition-tool": "2.18.0rc6",
            "description": "No description available - add a docstring to the python test class or function.",
            "url": "",
            "fixture-format": "state_test"
        }
    }
}