{
    "tests/static/state_tests/stRandom2/randomStatetest597Filler.json::randomStatetest597[fork_Cancun-state_test-]": {
        "env": {
            "currentCoinbase": "0xb2375596665b0c5212337e1d1bb65f128276d043",
            "currentGasLimit": "0x7fffffffffffffff",
            "currentNumber": "0x01",
            "currentTimestamp": "0x03e8",
            "currentRandom": "0x0000000000000000000000000000000000000000000000000000000000020000",
            "currentDifficulty": "0x00",
            "currentBaseFee": "0x0a",
            "currentExcessBlobGas": "0x00"
        },
        "pre": {
            "0x903fe42eaf8f3fdc23e686b011ffad65d5b97511": {
                "nonce": "0x00",
                "balance": "0x0de0b6b3a7640000",
                "code": "0x",
                "storage": {}
            },
            "0xb2375596665b0c5212337e1d1bb65f128276d043": {
                "nonce": "0x00",
                "balance": "0x2e",
                "code": "0x6000355415600957005b60203560003555",
                "storage": {}
            },
            "0xb2375596665b0c5212337e1d1bb65f128276d143": {
                "nonce": "0x00",
                "balance": "0x00",
                "code": "0x7f00000000000000000000000100000000000000000000000000000000000000007f000000000000000000000000b2375596665b0c5212337e1d1bb65f128276d043967f000000000000000000000000b2375596665b0c5212337e1d1bb65f128276d0437ffffffffffffffffffffffffffffffffffffffffffffffffffffffffffffffffe7ffffffffffffffffffffffffffffffffffffffffffffffffffffffffffffffffe7f000000000000000000000000ffffffffffffffffffffffffffffffffffffffff7fffffffffffffffffffffffffffffffffffffffffffffffffffffffffffffffff3a7e737d40070a156482930a0875",
                "storage": {}
            }
        },
        "transaction": {
            "nonce": "0x00",
            "gasPrice": "0x0a",
            "gasLimit": [
                "0x0186a0"
            ],
            "to": "0xb2375596665b0c5212337e1d1bb65f128276d143",
            "value": [
                "0x70062d18"
            ],
            "data": [
                "0x7f00000000000000000000000100000000000000000000000000000000000000007f000000000000000000000000b2375596665b0c5212337e1d1bb65f128276d043967f000000000000000000000000b2375596665b0c5212337e1d1bb65f128276d0437ffffffffffffffffffffffffffffffffffffffffffffffffffffffffffffffffe7ffffffffffffffffffffffffffffffffffffffffffffffffffffffffffffffffe7f000000000000000000000000ffffffffffffffffffffffffffffffffffffffff7fffffffffffffffffffffffffffffffffffffffffffffffffffffffffffffffff3a7e737d40070a156482930a0875"
            ],
            "sender": "0x903fe42eaf8f3fdc23e686b011ffad65d5b97511",
            "secretKey": "0x74599e1e7107f5de3c2779d5b2375596665b0c5212337e1d1bb65f128276d043"
        },
        "post": {
            "Cancun": [
                {
                    "hash": "0x296b4013bc65ee235b1040aff366ec72624a0b6f9cd85c34262b8c4c27d831f6",
                    "logs": "0x1dcc4de8dec75d7aab85b567b6ccd41ad312451b948a7413f0a142fd40d49347",
                    "txbytes": "0xf9015b800a830186a094b2375596665b0c5212337e1d1bb65f128276d1438470062d18b8f67f00000000000000000000000100000000000000000000000000000000000000007f000000000000000000000000b2375596665b0c5212337e1d1bb65f128276d043967f000000000000000000000000b2375596665b0c5212337e1d1bb65f128276d0437ffffffffffffffffffffffffffffffffffffffffffffffffffffffffffffffffe7ffffffffffffffffffffffffffffffffffffffffffffffffffffffffffffffffe7f000000000000000000000000ffffffffffffffffffffffffffffffffffffffff7fffffffffffffffffffffffffffffffffffffffffffffffffffffffffffffffff3a7e737d40070a156482930a087525a019dad69f6cf85c4b444c7bf442ef31ee09ed29216fe6638d15328d5b8b7cbe96a0419a05bad914561e3a47c4492e93f69266e24802191057cce6841219f617bc93",
                    "indexes": {
                        "data": 0,
                        "gas": 0,
                        "value": 0
                    },
                    "state": {
                        "0x903fe42eaf8f3fdc23e686b011ffad65d5b97511": {
                            "nonce": "0x01",
                            "balance": "0x0de0b6b3a754bdc0",
                            "code": "0x",
                            "storage": {}
                        },
                        "0xb2375596665b0c5212337e1d1bb65f128276d043": {
                            "nonce": "0x00",
                            "balance": "0x2e",
                            "code": "0x6000355415600957005b60203560003555",
                            "storage": {}
                        },
                        "0xb2375596665b0c5212337e1d1bb65f128276d143": {
                            "nonce": "0x00",
                            "balance": "0x00",
                            "code": "0x7f00000000000000000000000100000000000000000000000000000000000000007f000000000000000000000000b2375596665b0c5212337e1d1bb65f128276d043967f000000000000000000000000b2375596665b0c5212337e1d1bb65f128276d0437ffffffffffffffffffffffffffffffffffffffffffffffffffffffffffffffffe7ffffffffffffffffffffffffffffffffffffffffffffffffffffffffffffffffe7f000000000000000000000000ffffffffffffffffffffffffffffffffffffffff7fffffffffffffffffffffffffffffffffffffffffffffffffffffffffffffffff3a7e737d40070a156482930a0875",
                            "storage": {}
                        }
                    }
                }
            ]
        },
        "config": {
            "blobSchedule": {
                "Cancun": {
                    "target": "0x03",
                    "max": "0x06",
                    "baseFeeUpdateFraction": "0x32f0ed"
                }
            },
            "chainid": "0x01"
        },
        "_info": {
            "hash": "0xfc1c96c0e56f4f4cc22f5d02164d283ad1925e876293c9d622bab4a55d4631ac",
            "comment": "`execution-spec-tests` generated test",
            "filling-transition-tool": "ethereum-spec-evm-resolver 0.0.5",
            "description": "No description available - add a docstring to the python test class or function.",
            "url": "",
            "fixture-format": "state_test",
            "eels-resolution": {
                "git-url": "https://github.com/marioevz/execution-specs.git",
                "branch": "forks/bpo1",
                "commit": "3387e5f4aedfe99becfdc39b444d6371e25e0924"
            }
        }
    },
    "tests/static/state_tests/stRandom2/randomStatetest597Filler.json::randomStatetest597[fork_Osaka-state_test-]": {
        "env": {
            "currentCoinbase": "0xb2375596665b0c5212337e1d1bb65f128276d043",
            "currentGasLimit": "0x7fffffffffffffff",
            "currentNumber": "0x01",
            "currentTimestamp": "0x03e8",
            "currentRandom": "0x0000000000000000000000000000000000000000000000000000000000020000",
            "currentDifficulty": "0x00",
            "currentBaseFee": "0x0a",
            "currentExcessBlobGas": "0x00"
        },
        "pre": {
            "0x903fe42eaf8f3fdc23e686b011ffad65d5b97511": {
                "nonce": "0x00",
                "balance": "0x0de0b6b3a7640000",
                "code": "0x",
                "storage": {}
            },
            "0xb2375596665b0c5212337e1d1bb65f128276d043": {
                "nonce": "0x00",
                "balance": "0x2e",
                "code": "0x6000355415600957005b60203560003555",
                "storage": {}
            },
            "0xb2375596665b0c5212337e1d1bb65f128276d143": {
                "nonce": "0x00",
                "balance": "0x00",
                "code": "0x7f00000000000000000000000100000000000000000000000000000000000000007f000000000000000000000000b2375596665b0c5212337e1d1bb65f128276d043967f000000000000000000000000b2375596665b0c5212337e1d1bb65f128276d0437ffffffffffffffffffffffffffffffffffffffffffffffffffffffffffffffffe7ffffffffffffffffffffffffffffffffffffffffffffffffffffffffffffffffe7f000000000000000000000000ffffffffffffffffffffffffffffffffffffffff7fffffffffffffffffffffffffffffffffffffffffffffffffffffffffffffffff3a7e737d40070a156482930a0875",
                "storage": {}
            }
        },
        "transaction": {
            "nonce": "0x00",
            "gasPrice": "0x0a",
            "gasLimit": [
                "0x0186a0"
            ],
            "to": "0xb2375596665b0c5212337e1d1bb65f128276d143",
            "value": [
                "0x70062d18"
            ],
            "data": [
                "0x7f00000000000000000000000100000000000000000000000000000000000000007f000000000000000000000000b2375596665b0c5212337e1d1bb65f128276d043967f000000000000000000000000b2375596665b0c5212337e1d1bb65f128276d0437ffffffffffffffffffffffffffffffffffffffffffffffffffffffffffffffffe7ffffffffffffffffffffffffffffffffffffffffffffffffffffffffffffffffe7f000000000000000000000000ffffffffffffffffffffffffffffffffffffffff7fffffffffffffffffffffffffffffffffffffffffffffffffffffffffffffffff3a7e737d40070a156482930a0875"
            ],
            "sender": "0x903fe42eaf8f3fdc23e686b011ffad65d5b97511",
            "secretKey": "0x74599e1e7107f5de3c2779d5b2375596665b0c5212337e1d1bb65f128276d043"
        },
        "post": {
            "Osaka": [
                {
                    "hash": "0x296b4013bc65ee235b1040aff366ec72624a0b6f9cd85c34262b8c4c27d831f6",
                    "logs": "0x1dcc4de8dec75d7aab85b567b6ccd41ad312451b948a7413f0a142fd40d49347",
                    "txbytes": "0xf9015b800a830186a094b2375596665b0c5212337e1d1bb65f128276d1438470062d18b8f67f00000000000000000000000100000000000000000000000000000000000000007f000000000000000000000000b2375596665b0c5212337e1d1bb65f128276d043967f000000000000000000000000b2375596665b0c5212337e1d1bb65f128276d0437ffffffffffffffffffffffffffffffffffffffffffffffffffffffffffffffffe7ffffffffffffffffffffffffffffffffffffffffffffffffffffffffffffffffe7f000000000000000000000000ffffffffffffffffffffffffffffffffffffffff7fffffffffffffffffffffffffffffffffffffffffffffffffffffffffffffffff3a7e737d40070a156482930a087525a019dad69f6cf85c4b444c7bf442ef31ee09ed29216fe6638d15328d5b8b7cbe96a0419a05bad914561e3a47c4492e93f69266e24802191057cce6841219f617bc93",
                    "indexes": {
                        "data": 0,
                        "gas": 0,
                        "value": 0
                    },
                    "state": {
                        "0x903fe42eaf8f3fdc23e686b011ffad65d5b97511": {
                            "nonce": "0x01",
                            "balance": "0x0de0b6b3a754bdc0",
                            "code": "0x",
                            "storage": {}
                        },
                        "0xb2375596665b0c5212337e1d1bb65f128276d043": {
                            "nonce": "0x00",
                            "balance": "0x2e",
                            "code": "0x6000355415600957005b60203560003555",
                            "storage": {}
                        },
                        "0xb2375596665b0c5212337e1d1bb65f128276d143": {
                            "nonce": "0x00",
                            "balance": "0x00",
                            "code": "0x7f00000000000000000000000100000000000000000000000000000000000000007f000000000000000000000000b2375596665b0c5212337e1d1bb65f128276d043967f000000000000000000000000b2375596665b0c5212337e1d1bb65f128276d0437ffffffffffffffffffffffffffffffffffffffffffffffffffffffffffffffffe7ffffffffffffffffffffffffffffffffffffffffffffffffffffffffffffffffe7f000000000000000000000000ffffffffffffffffffffffffffffffffffffffff7fffffffffffffffffffffffffffffffffffffffffffffffffffffffffffffffff3a7e737d40070a156482930a0875",
                            "storage": {}
                        }
                    }
                }
            ]
        },
        "config": {
            "blobSchedule": {
                "Cancun": {
                    "target": "0x03",
                    "max": "0x06",
                    "baseFeeUpdateFraction": "0x32f0ed"
                },
                "Prague": {
                    "target": "0x06",
                    "max": "0x09",
                    "baseFeeUpdateFraction": "0x4c6964"
                },
                "Osaka": {
                    "target": "0x06",
                    "max": "0x09",
                    "baseFeeUpdateFraction": "0x4c6964"
                }
            },
            "chainid": "0x01"
        },
        "_info": {
            "hash": "0x87d3ef7f24fb18c92640ebda72eeb2529357017820c3c487c0007df8fcd761fc",
            "comment": "`execution-spec-tests` generated test",
            "filling-transition-tool": "ethereum-spec-evm-resolver 0.0.5",
            "description": "No description available - add a docstring to the python test class or function.",
            "url": "",
            "fixture-format": "state_test",
            "eels-resolution": {
                "git-url": "https://github.com/marioevz/execution-specs.git",
                "branch": "forks/bpo1",
                "commit": "3387e5f4aedfe99becfdc39b444d6371e25e0924"
            }
        }
    },
    "tests/static/state_tests/stRandom2/randomStatetest597Filler.json::randomStatetest597[fork_Prague-state_test-]": {
        "env": {
            "currentCoinbase": "0xb2375596665b0c5212337e1d1bb65f128276d043",
            "currentGasLimit": "0x7fffffffffffffff",
            "currentNumber": "0x01",
            "currentTimestamp": "0x03e8",
            "currentRandom": "0x0000000000000000000000000000000000000000000000000000000000020000",
            "currentDifficulty": "0x00",
            "currentBaseFee": "0x0a",
            "currentExcessBlobGas": "0x00"
        },
        "pre": {
            "0x903fe42eaf8f3fdc23e686b011ffad65d5b97511": {
                "nonce": "0x00",
                "balance": "0x0de0b6b3a7640000",
                "code": "0x",
                "storage": {}
            },
            "0xb2375596665b0c5212337e1d1bb65f128276d043": {
                "nonce": "0x00",
                "balance": "0x2e",
                "code": "0x6000355415600957005b60203560003555",
                "storage": {}
            },
            "0xb2375596665b0c5212337e1d1bb65f128276d143": {
                "nonce": "0x00",
                "balance": "0x00",
                "code": "0x7f00000000000000000000000100000000000000000000000000000000000000007f000000000000000000000000b2375596665b0c5212337e1d1bb65f128276d043967f000000000000000000000000b2375596665b0c5212337e1d1bb65f128276d0437ffffffffffffffffffffffffffffffffffffffffffffffffffffffffffffffffe7ffffffffffffffffffffffffffffffffffffffffffffffffffffffffffffffffe7f000000000000000000000000ffffffffffffffffffffffffffffffffffffffff7fffffffffffffffffffffffffffffffffffffffffffffffffffffffffffffffff3a7e737d40070a156482930a0875",
                "storage": {}
            }
        },
        "transaction": {
            "nonce": "0x00",
            "gasPrice": "0x0a",
            "gasLimit": [
                "0x0186a0"
            ],
            "to": "0xb2375596665b0c5212337e1d1bb65f128276d143",
            "value": [
                "0x70062d18"
            ],
            "data": [
                "0x7f00000000000000000000000100000000000000000000000000000000000000007f000000000000000000000000b2375596665b0c5212337e1d1bb65f128276d043967f000000000000000000000000b2375596665b0c5212337e1d1bb65f128276d0437ffffffffffffffffffffffffffffffffffffffffffffffffffffffffffffffffe7ffffffffffffffffffffffffffffffffffffffffffffffffffffffffffffffffe7f000000000000000000000000ffffffffffffffffffffffffffffffffffffffff7fffffffffffffffffffffffffffffffffffffffffffffffffffffffffffffffff3a7e737d40070a156482930a0875"
            ],
            "sender": "0x903fe42eaf8f3fdc23e686b011ffad65d5b97511",
            "secretKey": "0x74599e1e7107f5de3c2779d5b2375596665b0c5212337e1d1bb65f128276d043"
        },
        "post": {
            "Prague": [
                {
                    "hash": "0x296b4013bc65ee235b1040aff366ec72624a0b6f9cd85c34262b8c4c27d831f6",
                    "logs": "0x1dcc4de8dec75d7aab85b567b6ccd41ad312451b948a7413f0a142fd40d49347",
                    "txbytes": "0xf9015b800a830186a094b2375596665b0c5212337e1d1bb65f128276d1438470062d18b8f67f00000000000000000000000100000000000000000000000000000000000000007f000000000000000000000000b2375596665b0c5212337e1d1bb65f128276d043967f000000000000000000000000b2375596665b0c5212337e1d1bb65f128276d0437ffffffffffffffffffffffffffffffffffffffffffffffffffffffffffffffffe7ffffffffffffffffffffffffffffffffffffffffffffffffffffffffffffffffe7f000000000000000000000000ffffffffffffffffffffffffffffffffffffffff7fffffffffffffffffffffffffffffffffffffffffffffffffffffffffffffffff3a7e737d40070a156482930a087525a019dad69f6cf85c4b444c7bf442ef31ee09ed29216fe6638d15328d5b8b7cbe96a0419a05bad914561e3a47c4492e93f69266e24802191057cce6841219f617bc93",
                    "indexes": {
                        "data": 0,
                        "gas": 0,
                        "value": 0
                    },
                    "state": {
                        "0x903fe42eaf8f3fdc23e686b011ffad65d5b97511": {
                            "nonce": "0x01",
                            "balance": "0x0de0b6b3a754bdc0",
                            "code": "0x",
                            "storage": {}
                        },
                        "0xb2375596665b0c5212337e1d1bb65f128276d043": {
                            "nonce": "0x00",
                            "balance": "0x2e",
                            "code": "0x6000355415600957005b60203560003555",
                            "storage": {}
                        },
                        "0xb2375596665b0c5212337e1d1bb65f128276d143": {
                            "nonce": "0x00",
                            "balance": "0x00",
                            "code": "0x7f00000000000000000000000100000000000000000000000000000000000000007f000000000000000000000000b2375596665b0c5212337e1d1bb65f128276d043967f000000000000000000000000b2375596665b0c5212337e1d1bb65f128276d0437ffffffffffffffffffffffffffffffffffffffffffffffffffffffffffffffffe7ffffffffffffffffffffffffffffffffffffffffffffffffffffffffffffffffe7f000000000000000000000000ffffffffffffffffffffffffffffffffffffffff7fffffffffffffffffffffffffffffffffffffffffffffffffffffffffffffffff3a7e737d40070a156482930a0875",
                            "storage": {}
                        }
                    }
                }
            ]
        },
        "config": {
            "blobSchedule": {
                "Cancun": {
                    "target": "0x03",
                    "max": "0x06",
                    "baseFeeUpdateFraction": "0x32f0ed"
                },
                "Prague": {
                    "target": "0x06",
                    "max": "0x09",
                    "baseFeeUpdateFraction": "0x4c6964"
                }
            },
            "chainid": "0x01"
        },
        "_info": {
            "hash": "0x18c381e774039556d158512a6574a69f25da6953d35d0669e34ffa3a5b894b85",
            "comment": "`execution-spec-tests` generated test",
            "filling-transition-tool": "ethereum-spec-evm-resolver 0.0.5",
            "description": "No description available - add a docstring to the python test class or function.",
            "url": "",
            "fixture-format": "state_test",
            "eels-resolution": {
                "git-url": "https://github.com/marioevz/execution-specs.git",
                "branch": "forks/bpo1",
                "commit": "3387e5f4aedfe99becfdc39b444d6371e25e0924"
            }
        }
    }
}