{
    "tests/static/state_tests/stRandom2/randomStatetest407Filler.json::randomStatetest407[fork_Cancun-state_test-]": {
        "env": {
            "currentCoinbase": "0x27695fe3a28a3654990287f2732a08325ba3f7dc",
            "currentGasLimit": "0x7fffffffffffffff",
            "currentNumber": "0x01",
            "currentTimestamp": "0x03e8",
            "currentRandom": "0x0000000000000000000000000000000000000000000000000000000000020000",
            "currentDifficulty": "0x00",
            "currentBaseFee": "0x0a",
            "currentExcessBlobGas": "0x00"
        },
        "pre": {
            "0x55426cbf073833f9cf4b5a08ff21fe11a915624f": {
                "nonce": "0x00",
                "balance": "0x0de0b6b3a7640000",
                "code": "0x",
                "storage": {}
            },
            "0x27695fe3a28a3654990287f2732a08325ba3f7dc": {
                "nonce": "0x00",
                "balance": "0x2e",
                "code": "0x6000355415600957005b60203560003555",
                "storage": {}
            },
            "0x27695fe3a28a3654990287f2732a08325ba3f8dc": {
                "nonce": "0x00",
                "balance": "0x00",
                "code": "0x7f000000000000000000000000ffffffffffffffffffffffffffffffffffffffff437ffffffffffffffffffffffffffffffffffffffffffffffffffffffffffffffffe7ffffffffffffffffffffffffffffffffffffffffffffffffffffffffffffffffe7f000000000000000000000000000000000000000000000000000000000000c350437f00000000000000000000000000000000000000000000000000000000000000007f00000000000000000000000027695fe3a28a3654990287f2732a08325ba3f7dc6f6d71656f054471181163037902615b5560005155",
                "storage": {}
            }
        },
        "transaction": {
            "nonce": "0x00",
            "gasPrice": "0x0a",
            "gasLimit": [
                "0x0186a0"
            ],
            "to": "0x27695fe3a28a3654990287f2732a08325ba3f8dc",
            "value": [
                "0x313547f8"
            ],
            "data": [
                "0x7f000000000000000000000000ffffffffffffffffffffffffffffffffffffffff437ffffffffffffffffffffffffffffffffffffffffffffffffffffffffffffffffe7ffffffffffffffffffffffffffffffffffffffffffffffffffffffffffffffffe7f000000000000000000000000000000000000000000000000000000000000c350437f00000000000000000000000000000000000000000000000000000000000000007f00000000000000000000000027695fe3a28a3654990287f2732a08325ba3f7dc6f6d71656f054471181163037902615b"
            ],
            "sender": "0x55426cbf073833f9cf4b5a08ff21fe11a915624f",
            "secretKey": "0x8b1339e42ff5275c8259f34127695fe3a28a3654990287f2732a08325ba3f7dc"
        },
        "post": {
            "Cancun": [
                {
                    "hash": "0xfe843bb94c43c2fe83f23b86a57b9340332f9c1ae0c19b523dc5387782126125",
                    "logs": "0x1dcc4de8dec75d7aab85b567b6ccd41ad312451b948a7413f0a142fd40d49347",
                    "txbytes": "0xf9013d800a830186a09427695fe3a28a3654990287f2732a08325ba3f8dc84313547f8b8d87f000000000000000000000000ffffffffffffffffffffffffffffffffffffffff437ffffffffffffffffffffffffffffffffffffffffffffffffffffffffffffffffe7ffffffffffffffffffffffffffffffffffffffffffffffffffffffffffffffffe7f000000000000000000000000000000000000000000000000000000000000c350437f00000000000000000000000000000000000000000000000000000000000000007f00000000000000000000000027695fe3a28a3654990287f2732a08325ba3f7dc6f6d71656f054471181163037902615b26a0c5004455528542bef0f852e3004dd2cd9aa032b823efd32ecf9bf0279ee5b792a00f78893895dd3876bb00a50cb24eb947594ae0fa21adb8f1ed7dd2ed573f87db",
                    "indexes": {
                        "data": 0,
                        "gas": 0,
                        "value": 0
                    },
                    "state": {
                        "0x55426cbf073833f9cf4b5a08ff21fe11a915624f": {
                            "nonce": "0x01",
                            "balance": "0x0de0b6b37627c46c",
                            "code": "0x",
                            "storage": {}
                        },
                        "0x27695fe3a28a3654990287f2732a08325ba3f7dc": {
                            "nonce": "0x00",
                            "balance": "0x2e",
                            "code": "0x6000355415600957005b60203560003555",
                            "storage": {}
                        },
                        "0x27695fe3a28a3654990287f2732a08325ba3f8dc": {
                            "nonce": "0x00",
                            "balance": "0x313547f8",
                            "code": "0x7f000000000000000000000000ffffffffffffffffffffffffffffffffffffffff437ffffffffffffffffffffffffffffffffffffffffffffffffffffffffffffffffe7ffffffffffffffffffffffffffffffffffffffffffffffffffffffffffffffffe7f000000000000000000000000000000000000000000000000000000000000c350437f00000000000000000000000000000000000000000000000000000000000000007f00000000000000000000000027695fe3a28a3654990287f2732a08325ba3f7dc6f6d71656f054471181163037902615b5560005155",
                            "storage": {
                                "0x00": "0x6d71656f054471181163037902615b55"
                            }
                        }
                    }
                }
            ]
        },
        "config": {
            "blobSchedule": {
                "Cancun": {
                    "target": "0x03",
                    "max": "0x06",
                    "baseFeeUpdateFraction": "0x32f0ed"
                }
            },
            "chainid": "0x01"
        },
        "_info": {
            "hash": "0x763cc894c96031aec25f1187a463cc94b08941bcdad49c021c0e7733307c9b2e",
            "comment": "`execution-spec-tests` generated test",
            "filling-transition-tool": "ethereum-spec-evm-resolver 0.0.5",
            "description": "No description available - add a docstring to the python test class or function.",
            "url": "",
            "fixture-format": "state_test",
            "eels-resolution": {
                "git-url": "https://github.com/ethereum/execution-specs.git",
                "branch": "forks/bpos",
                "commit": "7aacb2c54111391af5e98c505d5010b5698a770f"
            }
        }
    },
    "tests/static/state_tests/stRandom2/randomStatetest407Filler.json::randomStatetest407[fork_Osaka-state_test-]": {
        "env": {
            "currentCoinbase": "0x27695fe3a28a3654990287f2732a08325ba3f7dc",
            "currentGasLimit": "0x7fffffffffffffff",
            "currentNumber": "0x01",
            "currentTimestamp": "0x03e8",
            "currentRandom": "0x0000000000000000000000000000000000000000000000000000000000020000",
            "currentDifficulty": "0x00",
            "currentBaseFee": "0x0a",
            "currentExcessBlobGas": "0x00"
        },
        "pre": {
            "0x55426cbf073833f9cf4b5a08ff21fe11a915624f": {
                "nonce": "0x00",
                "balance": "0x0de0b6b3a7640000",
                "code": "0x",
                "storage": {}
            },
            "0x27695fe3a28a3654990287f2732a08325ba3f7dc": {
                "nonce": "0x00",
                "balance": "0x2e",
                "code": "0x6000355415600957005b60203560003555",
                "storage": {}
            },
            "0x27695fe3a28a3654990287f2732a08325ba3f8dc": {
                "nonce": "0x00",
                "balance": "0x00",
                "code": "0x7f000000000000000000000000ffffffffffffffffffffffffffffffffffffffff437ffffffffffffffffffffffffffffffffffffffffffffffffffffffffffffffffe7ffffffffffffffffffffffffffffffffffffffffffffffffffffffffffffffffe7f000000000000000000000000000000000000000000000000000000000000c350437f00000000000000000000000000000000000000000000000000000000000000007f00000000000000000000000027695fe3a28a3654990287f2732a08325ba3f7dc6f6d71656f054471181163037902615b5560005155",
                "storage": {}
            }
        },
        "transaction": {
            "nonce": "0x00",
            "gasPrice": "0x0a",
            "gasLimit": [
                "0x0186a0"
            ],
            "to": "0x27695fe3a28a3654990287f2732a08325ba3f8dc",
            "value": [
                "0x313547f8"
            ],
            "data": [
                "0x7f000000000000000000000000ffffffffffffffffffffffffffffffffffffffff437ffffffffffffffffffffffffffffffffffffffffffffffffffffffffffffffffe7ffffffffffffffffffffffffffffffffffffffffffffffffffffffffffffffffe7f000000000000000000000000000000000000000000000000000000000000c350437f00000000000000000000000000000000000000000000000000000000000000007f00000000000000000000000027695fe3a28a3654990287f2732a08325ba3f7dc6f6d71656f054471181163037902615b"
            ],
            "sender": "0x55426cbf073833f9cf4b5a08ff21fe11a915624f",
            "secretKey": "0x8b1339e42ff5275c8259f34127695fe3a28a3654990287f2732a08325ba3f7dc"
        },
        "post": {
            "Osaka": [
                {
                    "hash": "0xfe843bb94c43c2fe83f23b86a57b9340332f9c1ae0c19b523dc5387782126125",
                    "logs": "0x1dcc4de8dec75d7aab85b567b6ccd41ad312451b948a7413f0a142fd40d49347",
                    "txbytes": "0xf9013d800a830186a09427695fe3a28a3654990287f2732a08325ba3f8dc84313547f8b8d87f000000000000000000000000ffffffffffffffffffffffffffffffffffffffff437ffffffffffffffffffffffffffffffffffffffffffffffffffffffffffffffffe7ffffffffffffffffffffffffffffffffffffffffffffffffffffffffffffffffe7f000000000000000000000000000000000000000000000000000000000000c350437f00000000000000000000000000000000000000000000000000000000000000007f00000000000000000000000027695fe3a28a3654990287f2732a08325ba3f7dc6f6d71656f054471181163037902615b26a0c5004455528542bef0f852e3004dd2cd9aa032b823efd32ecf9bf0279ee5b792a00f78893895dd3876bb00a50cb24eb947594ae0fa21adb8f1ed7dd2ed573f87db",
                    "indexes": {
                        "data": 0,
                        "gas": 0,
                        "value": 0
                    },
                    "state": {
                        "0x55426cbf073833f9cf4b5a08ff21fe11a915624f": {
                            "nonce": "0x01",
                            "balance": "0x0de0b6b37627c46c",
                            "code": "0x",
                            "storage": {}
                        },
                        "0x27695fe3a28a3654990287f2732a08325ba3f7dc": {
                            "nonce": "0x00",
                            "balance": "0x2e",
                            "code": "0x6000355415600957005b60203560003555",
                            "storage": {}
                        },
                        "0x27695fe3a28a3654990287f2732a08325ba3f8dc": {
                            "nonce": "0x00",
                            "balance": "0x313547f8",
                            "code": "0x7f000000000000000000000000ffffffffffffffffffffffffffffffffffffffff437ffffffffffffffffffffffffffffffffffffffffffffffffffffffffffffffffe7ffffffffffffffffffffffffffffffffffffffffffffffffffffffffffffffffe7f000000000000000000000000000000000000000000000000000000000000c350437f00000000000000000000000000000000000000000000000000000000000000007f00000000000000000000000027695fe3a28a3654990287f2732a08325ba3f7dc6f6d71656f054471181163037902615b5560005155",
                            "storage": {
                                "0x00": "0x6d71656f054471181163037902615b55"
                            }
                        }
                    }
                }
            ]
        },
        "config": {
            "blobSchedule": {
                "Cancun": {
                    "target": "0x03",
                    "max": "0x06",
                    "baseFeeUpdateFraction": "0x32f0ed"
                },
                "Prague": {
                    "target": "0x06",
                    "max": "0x09",
                    "baseFeeUpdateFraction": "0x4c6964"
                },
                "Osaka": {
                    "target": "0x06",
                    "max": "0x09",
                    "baseFeeUpdateFraction": "0x4c6964"
                }
            },
            "chainid": "0x01"
        },
        "_info": {
            "hash": "0x181018617abbd2be44222b27bb6b7a854f5a91844b5622328f36e7ccfd28ec8d",
            "comment": "`execution-spec-tests` generated test",
            "filling-transition-tool": "ethereum-spec-evm-resolver 0.0.5",
            "description": "No description available - add a docstring to the python test class or function.",
            "url": "",
            "fixture-format": "state_test",
            "eels-resolution": {
                "git-url": "https://github.com/ethereum/execution-specs.git",
                "branch": "forks/bpos",
                "commit": "7aacb2c54111391af5e98c505d5010b5698a770f"
            }
        }
    },
    "tests/static/state_tests/stRandom2/randomStatetest407Filler.json::randomStatetest407[fork_Prague-state_test-]": {
        "env": {
            "currentCoinbase": "0x27695fe3a28a3654990287f2732a08325ba3f7dc",
            "currentGasLimit": "0x7fffffffffffffff",
            "currentNumber": "0x01",
            "currentTimestamp": "0x03e8",
            "currentRandom": "0x0000000000000000000000000000000000000000000000000000000000020000",
            "currentDifficulty": "0x00",
            "currentBaseFee": "0x0a",
            "currentExcessBlobGas": "0x00"
        },
        "pre": {
            "0x55426cbf073833f9cf4b5a08ff21fe11a915624f": {
                "nonce": "0x00",
                "balance": "0x0de0b6b3a7640000",
                "code": "0x",
                "storage": {}
            },
            "0x27695fe3a28a3654990287f2732a08325ba3f7dc": {
                "nonce": "0x00",
                "balance": "0x2e",
                "code": "0x6000355415600957005b60203560003555",
                "storage": {}
            },
            "0x27695fe3a28a3654990287f2732a08325ba3f8dc": {
                "nonce": "0x00",
                "balance": "0x00",
                "code": "0x7f000000000000000000000000ffffffffffffffffffffffffffffffffffffffff437ffffffffffffffffffffffffffffffffffffffffffffffffffffffffffffffffe7ffffffffffffffffffffffffffffffffffffffffffffffffffffffffffffffffe7f000000000000000000000000000000000000000000000000000000000000c350437f00000000000000000000000000000000000000000000000000000000000000007f00000000000000000000000027695fe3a28a3654990287f2732a08325ba3f7dc6f6d71656f054471181163037902615b5560005155",
                "storage": {}
            }
        },
        "transaction": {
            "nonce": "0x00",
            "gasPrice": "0x0a",
            "gasLimit": [
                "0x0186a0"
            ],
            "to": "0x27695fe3a28a3654990287f2732a08325ba3f8dc",
            "value": [
                "0x313547f8"
            ],
            "data": [
                "0x7f000000000000000000000000ffffffffffffffffffffffffffffffffffffffff437ffffffffffffffffffffffffffffffffffffffffffffffffffffffffffffffffe7ffffffffffffffffffffffffffffffffffffffffffffffffffffffffffffffffe7f000000000000000000000000000000000000000000000000000000000000c350437f00000000000000000000000000000000000000000000000000000000000000007f00000000000000000000000027695fe3a28a3654990287f2732a08325ba3f7dc6f6d71656f054471181163037902615b"
            ],
            "sender": "0x55426cbf073833f9cf4b5a08ff21fe11a915624f",
            "secretKey": "0x8b1339e42ff5275c8259f34127695fe3a28a3654990287f2732a08325ba3f7dc"
        },
        "post": {
            "Prague": [
                {
                    "hash": "0xfe843bb94c43c2fe83f23b86a57b9340332f9c1ae0c19b523dc5387782126125",
                    "logs": "0x1dcc4de8dec75d7aab85b567b6ccd41ad312451b948a7413f0a142fd40d49347",
                    "txbytes": "0xf9013d800a830186a09427695fe3a28a3654990287f2732a08325ba3f8dc84313547f8b8d87f000000000000000000000000ffffffffffffffffffffffffffffffffffffffff437ffffffffffffffffffffffffffffffffffffffffffffffffffffffffffffffffe7ffffffffffffffffffffffffffffffffffffffffffffffffffffffffffffffffe7f000000000000000000000000000000000000000000000000000000000000c350437f00000000000000000000000000000000000000000000000000000000000000007f00000000000000000000000027695fe3a28a3654990287f2732a08325ba3f7dc6f6d71656f054471181163037902615b26a0c5004455528542bef0f852e3004dd2cd9aa032b823efd32ecf9bf0279ee5b792a00f78893895dd3876bb00a50cb24eb947594ae0fa21adb8f1ed7dd2ed573f87db",
                    "indexes": {
                        "data": 0,
                        "gas": 0,
                        "value": 0
                    },
                    "state": {
                        "0x55426cbf073833f9cf4b5a08ff21fe11a915624f": {
                            "nonce": "0x01",
                            "balance": "0x0de0b6b37627c46c",
                            "code": "0x",
                            "storage": {}
                        },
                        "0x27695fe3a28a3654990287f2732a08325ba3f7dc": {
                            "nonce": "0x00",
                            "balance": "0x2e",
                            "code": "0x6000355415600957005b60203560003555",
                            "storage": {}
                        },
                        "0x27695fe3a28a3654990287f2732a08325ba3f8dc": {
                            "nonce": "0x00",
                            "balance": "0x313547f8",
                            "code": "0x7f000000000000000000000000ffffffffffffffffffffffffffffffffffffffff437ffffffffffffffffffffffffffffffffffffffffffffffffffffffffffffffffe7ffffffffffffffffffffffffffffffffffffffffffffffffffffffffffffffffe7f000000000000000000000000000000000000000000000000000000000000c350437f00000000000000000000000000000000000000000000000000000000000000007f00000000000000000000000027695fe3a28a3654990287f2732a08325ba3f7dc6f6d71656f054471181163037902615b5560005155",
                            "storage": {
                                "0x00": "0x6d71656f054471181163037902615b55"
                            }
                        }
                    }
                }
            ]
        },
        "config": {
            "blobSchedule": {
                "Cancun": {
                    "target": "0x03",
                    "max": "0x06",
                    "baseFeeUpdateFraction": "0x32f0ed"
                },
                "Prague": {
                    "target": "0x06",
                    "max": "0x09",
                    "baseFeeUpdateFraction": "0x4c6964"
                }
            },
            "chainid": "0x01"
        },
        "_info": {
            "hash": "0xce7734f78b194b4fe6fab60955a13d4e61dcb7781a5f83dc32f1f20cad774be4",
            "comment": "`execution-spec-tests` generated test",
            "filling-transition-tool": "ethereum-spec-evm-resolver 0.0.5",
            "description": "No description available - add a docstring to the python test class or function.",
            "url": "",
            "fixture-format": "state_test",
            "eels-resolution": {
                "git-url": "https://github.com/ethereum/execution-specs.git",
                "branch": "forks/bpos",
                "commit": "7aacb2c54111391af5e98c505d5010b5698a770f"
            }
        }
    }
}