{
    "tests/static/state_tests/stRandom2/randomStatetest585Filler.json::randomStatetest585[fork_Cancun-state_test-]": {
        "env": {
            "currentCoinbase": "0x0f90696d9f45c681f70e26169db8d10b3ccf4bd7",
            "currentGasLimit": "0x7fffffffffffffff",
            "currentNumber": "0x01",
            "currentTimestamp": "0x03e8",
            "currentRandom": "0x0000000000000000000000000000000000000000000000000000000000020000",
            "currentDifficulty": "0x00",
            "currentBaseFee": "0x0a",
            "currentExcessBlobGas": "0x00"
        },
        "pre": {
            "0x947de10820f9a228a86670b0be4ba1d16b7c5e71": {
                "nonce": "0x00",
                "balance": "0x0de0b6b3a7640000",
                "code": "0x",
                "storage": {}
            },
            "0x0f90696d9f45c681f70e26169db8d10b3ccf4bd7": {
                "nonce": "0x00",
                "balance": "0x2e",
                "code": "0x6000355415600957005b60203560003555",
                "storage": {}
            },
            "0x0f90696d9f45c681f70e26169db8d10b3ccf4cd7": {
                "nonce": "0x00",
                "balance": "0x00",
                "code": "0x7f00000000000000000000000100000000000000000000000000000000000000007fffffffffffffffffffffffffffffffffffffffffffffffffffffffffffffffff7f0000000000000000000000000f90696d9f45c681f70e26169db8d10b3ccf4bd77f000000000000000000000000000000000000000000000000000000000000c3507f00000000000000000000000100000000000000000000000000000000000000007fffffffffffffffffffffffffffffffffffffffffffffffffffffffffffffffff7fffffffffffffffffffffffffffffffffffffffffffffffffffffffffffffffff7ffffffffffffffffffffffffffffffffffffffffffffffffffffffffffffffffe55",
                "storage": {}
            }
        },
        "transaction": {
            "nonce": "0x00",
            "gasPrice": "0x0a",
            "gasLimit": [
                "0x0186a0"
            ],
            "to": "0x0f90696d9f45c681f70e26169db8d10b3ccf4cd7",
            "value": [
                "0x16b2537a"
            ],
            "data": [
                "0x7f00000000000000000000000100000000000000000000000000000000000000007fffffffffffffffffffffffffffffffffffffffffffffffffffffffffffffffff7f0000000000000000000000000f90696d9f45c681f70e26169db8d10b3ccf4bd77f000000000000000000000000000000000000000000000000000000000000c3507f00000000000000000000000100000000000000000000000000000000000000007fffffffffffffffffffffffffffffffffffffffffffffffffffffffffffffffff7fffffffffffffffffffffffffffffffffffffffffffffffffffffffffffffffff7ffffffffffffffffffffffffffffffffffffffffffffffffffffffffffffffffe"
            ],
            "sender": "0x947de10820f9a228a86670b0be4ba1d16b7c5e71",
            "secretKey": "0x172c7401b111c7ef96b7c19d0f90696d9f45c681f70e26169db8d10b3ccf4bd7"
        },
        "post": {
            "Cancun": [
                {
                    "hash": "0x43b3e77ac39a615d62780d0acb845bf25d6a9ec0d1c2f7afdacc6d305c18b592",
                    "logs": "0x1dcc4de8dec75d7aab85b567b6ccd41ad312451b948a7413f0a142fd40d49347",
                    "txbytes": "0xf9016e800a830186a0940f90696d9f45c681f70e26169db8d10b3ccf4cd78416b2537ab901087f00000000000000000000000100000000000000000000000000000000000000007fffffffffffffffffffffffffffffffffffffffffffffffffffffffffffffffff7f0000000000000000000000000f90696d9f45c681f70e26169db8d10b3ccf4bd77f000000000000000000000000000000000000000000000000000000000000c3507f00000000000000000000000100000000000000000000000000000000000000007fffffffffffffffffffffffffffffffffffffffffffffffffffffffffffffffff7fffffffffffffffffffffffffffffffffffffffffffffffffffffffffffffffff7ffffffffffffffffffffffffffffffffffffffffffffffffffffffffffffffffe25a0f80e62cc691764a92d90257c3ab6d4f9dfc9bcf0b121547c7b28804875e7a542a0752bad28e7fc12ef511ba701c1be66b2027562a5904000ed9a0dab7c22abe3fc",
                    "indexes": {
                        "data": 0,
                        "gas": 0,
                        "value": 0
                    },
                    "state": {
                        "0x947de10820f9a228a86670b0be4ba1d16b7c5e71": {
                            "nonce": "0x01",
                            "balance": "0x0de0b6b390aaa3be",
                            "code": "0x",
                            "storage": {}
                        },
                        "0x0f90696d9f45c681f70e26169db8d10b3ccf4bd7": {
                            "nonce": "0x00",
                            "balance": "0x2e",
                            "code": "0x6000355415600957005b60203560003555",
                            "storage": {}
                        },
                        "0x0f90696d9f45c681f70e26169db8d10b3ccf4cd7": {
                            "nonce": "0x00",
                            "balance": "0x16b2537a",
                            "code": "0x7f00000000000000000000000100000000000000000000000000000000000000007fffffffffffffffffffffffffffffffffffffffffffffffffffffffffffffffff7f0000000000000000000000000f90696d9f45c681f70e26169db8d10b3ccf4bd77f000000000000000000000000000000000000000000000000000000000000c3507f00000000000000000000000100000000000000000000000000000000000000007fffffffffffffffffffffffffffffffffffffffffffffffffffffffffffffffff7fffffffffffffffffffffffffffffffffffffffffffffffffffffffffffffffff7ffffffffffffffffffffffffffffffffffffffffffffffffffffffffffffffffe55",
                            "storage": {
                                "0xfffffffffffffffffffffffffffffffffffffffffffffffffffffffffffffffe": "0xffffffffffffffffffffffffffffffffffffffffffffffffffffffffffffffff"
                            }
                        }
                    }
                }
            ]
        },
        "config": {
            "blobSchedule": {
                "Cancun": {
                    "target": "0x03",
                    "max": "0x06",
                    "baseFeeUpdateFraction": "0x32f0ed"
                }
            },
            "chainid": "0x01"
        },
        "_info": {
            "hash": "0xf9c5ab29343daced03675a661587e088b96de00e84480a0d0f9c5d904d501bbd",
            "comment": "`execution-spec-tests` generated test",
            "filling-transition-tool": "ethereum-spec-evm-resolver 0.0.5",
            "description": "No description available - add a docstring to the python test class or function.",
            "url": "",
            "fixture-format": "state_test",
            "eels-resolution": {
                "git-url": "https://github.com/marioevz/execution-specs.git",
                "branch": "forks/bpo1",
                "commit": "3387e5f4aedfe99becfdc39b444d6371e25e0924"
            }
        }
    },
    "tests/static/state_tests/stRandom2/randomStatetest585Filler.json::randomStatetest585[fork_Osaka-state_test-]": {
        "env": {
            "currentCoinbase": "0x0f90696d9f45c681f70e26169db8d10b3ccf4bd7",
            "currentGasLimit": "0x7fffffffffffffff",
            "currentNumber": "0x01",
            "currentTimestamp": "0x03e8",
            "currentRandom": "0x0000000000000000000000000000000000000000000000000000000000020000",
            "currentDifficulty": "0x00",
            "currentBaseFee": "0x0a",
            "currentExcessBlobGas": "0x00"
        },
        "pre": {
            "0x947de10820f9a228a86670b0be4ba1d16b7c5e71": {
                "nonce": "0x00",
                "balance": "0x0de0b6b3a7640000",
                "code": "0x",
                "storage": {}
            },
            "0x0f90696d9f45c681f70e26169db8d10b3ccf4bd7": {
                "nonce": "0x00",
                "balance": "0x2e",
                "code": "0x6000355415600957005b60203560003555",
                "storage": {}
            },
            "0x0f90696d9f45c681f70e26169db8d10b3ccf4cd7": {
                "nonce": "0x00",
                "balance": "0x00",
                "code": "0x7f00000000000000000000000100000000000000000000000000000000000000007fffffffffffffffffffffffffffffffffffffffffffffffffffffffffffffffff7f0000000000000000000000000f90696d9f45c681f70e26169db8d10b3ccf4bd77f000000000000000000000000000000000000000000000000000000000000c3507f00000000000000000000000100000000000000000000000000000000000000007fffffffffffffffffffffffffffffffffffffffffffffffffffffffffffffffff7fffffffffffffffffffffffffffffffffffffffffffffffffffffffffffffffff7ffffffffffffffffffffffffffffffffffffffffffffffffffffffffffffffffe55",
                "storage": {}
            }
        },
        "transaction": {
            "nonce": "0x00",
            "gasPrice": "0x0a",
            "gasLimit": [
                "0x0186a0"
            ],
            "to": "0x0f90696d9f45c681f70e26169db8d10b3ccf4cd7",
            "value": [
                "0x16b2537a"
            ],
            "data": [
                "0x7f00000000000000000000000100000000000000000000000000000000000000007fffffffffffffffffffffffffffffffffffffffffffffffffffffffffffffffff7f0000000000000000000000000f90696d9f45c681f70e26169db8d10b3ccf4bd77f000000000000000000000000000000000000000000000000000000000000c3507f00000000000000000000000100000000000000000000000000000000000000007fffffffffffffffffffffffffffffffffffffffffffffffffffffffffffffffff7fffffffffffffffffffffffffffffffffffffffffffffffffffffffffffffffff7ffffffffffffffffffffffffffffffffffffffffffffffffffffffffffffffffe"
            ],
            "sender": "0x947de10820f9a228a86670b0be4ba1d16b7c5e71",
            "secretKey": "0x172c7401b111c7ef96b7c19d0f90696d9f45c681f70e26169db8d10b3ccf4bd7"
        },
        "post": {
            "Osaka": [
                {
                    "hash": "0x43b3e77ac39a615d62780d0acb845bf25d6a9ec0d1c2f7afdacc6d305c18b592",
                    "logs": "0x1dcc4de8dec75d7aab85b567b6ccd41ad312451b948a7413f0a142fd40d49347",
                    "txbytes": "0xf9016e800a830186a0940f90696d9f45c681f70e26169db8d10b3ccf4cd78416b2537ab901087f00000000000000000000000100000000000000000000000000000000000000007fffffffffffffffffffffffffffffffffffffffffffffffffffffffffffffffff7f0000000000000000000000000f90696d9f45c681f70e26169db8d10b3ccf4bd77f000000000000000000000000000000000000000000000000000000000000c3507f00000000000000000000000100000000000000000000000000000000000000007fffffffffffffffffffffffffffffffffffffffffffffffffffffffffffffffff7fffffffffffffffffffffffffffffffffffffffffffffffffffffffffffffffff7ffffffffffffffffffffffffffffffffffffffffffffffffffffffffffffffffe25a0f80e62cc691764a92d90257c3ab6d4f9dfc9bcf0b121547c7b28804875e7a542a0752bad28e7fc12ef511ba701c1be66b2027562a5904000ed9a0dab7c22abe3fc",
                    "indexes": {
                        "data": 0,
                        "gas": 0,
                        "value": 0
                    },
                    "state": {
                        "0x947de10820f9a228a86670b0be4ba1d16b7c5e71": {
                            "nonce": "0x01",
                            "balance": "0x0de0b6b390aaa3be",
                            "code": "0x",
                            "storage": {}
                        },
                        "0x0f90696d9f45c681f70e26169db8d10b3ccf4bd7": {
                            "nonce": "0x00",
                            "balance": "0x2e",
                            "code": "0x6000355415600957005b60203560003555",
                            "storage": {}
                        },
                        "0x0f90696d9f45c681f70e26169db8d10b3ccf4cd7": {
                            "nonce": "0x00",
                            "balance": "0x16b2537a",
                            "code": "0x7f00000000000000000000000100000000000000000000000000000000000000007fffffffffffffffffffffffffffffffffffffffffffffffffffffffffffffffff7f0000000000000000000000000f90696d9f45c681f70e26169db8d10b3ccf4bd77f000000000000000000000000000000000000000000000000000000000000c3507f00000000000000000000000100000000000000000000000000000000000000007fffffffffffffffffffffffffffffffffffffffffffffffffffffffffffffffff7fffffffffffffffffffffffffffffffffffffffffffffffffffffffffffffffff7ffffffffffffffffffffffffffffffffffffffffffffffffffffffffffffffffe55",
                            "storage": {
                                "0xfffffffffffffffffffffffffffffffffffffffffffffffffffffffffffffffe": "0xffffffffffffffffffffffffffffffffffffffffffffffffffffffffffffffff"
                            }
                        }
                    }
                }
            ]
        },
        "config": {
            "blobSchedule": {
                "Cancun": {
                    "target": "0x03",
                    "max": "0x06",
                    "baseFeeUpdateFraction": "0x32f0ed"
                },
                "Prague": {
                    "target": "0x06",
                    "max": "0x09",
                    "baseFeeUpdateFraction": "0x4c6964"
                },
                "Osaka": {
                    "target": "0x06",
                    "max": "0x09",
                    "baseFeeUpdateFraction": "0x4c6964"
                }
            },
            "chainid": "0x01"
        },
        "_info": {
            "hash": "0xa513015079d27f7f6324dd15c995591e47125b1a60e3afe7fe801a8ffdc8485a",
            "comment": "`execution-spec-tests` generated test",
            "filling-transition-tool": "ethereum-spec-evm-resolver 0.0.5",
            "description": "No description available - add a docstring to the python test class or function.",
            "url": "",
            "fixture-format": "state_test",
            "eels-resolution": {
                "git-url": "https://github.com/marioevz/execution-specs.git",
                "branch": "forks/bpo1",
                "commit": "3387e5f4aedfe99becfdc39b444d6371e25e0924"
            }
        }
    },
    "tests/static/state_tests/stRandom2/randomStatetest585Filler.json::randomStatetest585[fork_Prague-state_test-]": {
        "env": {
            "currentCoinbase": "0x0f90696d9f45c681f70e26169db8d10b3ccf4bd7",
            "currentGasLimit": "0x7fffffffffffffff",
            "currentNumber": "0x01",
            "currentTimestamp": "0x03e8",
            "currentRandom": "0x0000000000000000000000000000000000000000000000000000000000020000",
            "currentDifficulty": "0x00",
            "currentBaseFee": "0x0a",
            "currentExcessBlobGas": "0x00"
        },
        "pre": {
            "0x947de10820f9a228a86670b0be4ba1d16b7c5e71": {
                "nonce": "0x00",
                "balance": "0x0de0b6b3a7640000",
                "code": "0x",
                "storage": {}
            },
            "0x0f90696d9f45c681f70e26169db8d10b3ccf4bd7": {
                "nonce": "0x00",
                "balance": "0x2e",
                "code": "0x6000355415600957005b60203560003555",
                "storage": {}
            },
            "0x0f90696d9f45c681f70e26169db8d10b3ccf4cd7": {
                "nonce": "0x00",
                "balance": "0x00",
                "code": "0x7f00000000000000000000000100000000000000000000000000000000000000007fffffffffffffffffffffffffffffffffffffffffffffffffffffffffffffffff7f0000000000000000000000000f90696d9f45c681f70e26169db8d10b3ccf4bd77f000000000000000000000000000000000000000000000000000000000000c3507f00000000000000000000000100000000000000000000000000000000000000007fffffffffffffffffffffffffffffffffffffffffffffffffffffffffffffffff7fffffffffffffffffffffffffffffffffffffffffffffffffffffffffffffffff7ffffffffffffffffffffffffffffffffffffffffffffffffffffffffffffffffe55",
                "storage": {}
            }
        },
        "transaction": {
            "nonce": "0x00",
            "gasPrice": "0x0a",
            "gasLimit": [
                "0x0186a0"
            ],
            "to": "0x0f90696d9f45c681f70e26169db8d10b3ccf4cd7",
            "value": [
                "0x16b2537a"
            ],
            "data": [
                "0x7f00000000000000000000000100000000000000000000000000000000000000007fffffffffffffffffffffffffffffffffffffffffffffffffffffffffffffffff7f0000000000000000000000000f90696d9f45c681f70e26169db8d10b3ccf4bd77f000000000000000000000000000000000000000000000000000000000000c3507f00000000000000000000000100000000000000000000000000000000000000007fffffffffffffffffffffffffffffffffffffffffffffffffffffffffffffffff7fffffffffffffffffffffffffffffffffffffffffffffffffffffffffffffffff7ffffffffffffffffffffffffffffffffffffffffffffffffffffffffffffffffe"
            ],
            "sender": "0x947de10820f9a228a86670b0be4ba1d16b7c5e71",
            "secretKey": "0x172c7401b111c7ef96b7c19d0f90696d9f45c681f70e26169db8d10b3ccf4bd7"
        },
        "post": {
            "Prague": [
                {
                    "hash": "0x43b3e77ac39a615d62780d0acb845bf25d6a9ec0d1c2f7afdacc6d305c18b592",
                    "logs": "0x1dcc4de8dec75d7aab85b567b6ccd41ad312451b948a7413f0a142fd40d49347",
                    "txbytes": "0xf9016e800a830186a0940f90696d9f45c681f70e26169db8d10b3ccf4cd78416b2537ab901087f00000000000000000000000100000000000000000000000000000000000000007fffffffffffffffffffffffffffffffffffffffffffffffffffffffffffffffff7f0000000000000000000000000f90696d9f45c681f70e26169db8d10b3ccf4bd77f000000000000000000000000000000000000000000000000000000000000c3507f00000000000000000000000100000000000000000000000000000000000000007fffffffffffffffffffffffffffffffffffffffffffffffffffffffffffffffff7fffffffffffffffffffffffffffffffffffffffffffffffffffffffffffffffff7ffffffffffffffffffffffffffffffffffffffffffffffffffffffffffffffffe25a0f80e62cc691764a92d90257c3ab6d4f9dfc9bcf0b121547c7b28804875e7a542a0752bad28e7fc12ef511ba701c1be66b2027562a5904000ed9a0dab7c22abe3fc",
                    "indexes": {
                        "data": 0,
                        "gas": 0,
                        "value": 0
                    },
                    "state": {
                        "0x947de10820f9a228a86670b0be4ba1d16b7c5e71": {
                            "nonce": "0x01",
                            "balance": "0x0de0b6b390aaa3be",
                            "code": "0x",
                            "storage": {}
                        },
                        "0x0f90696d9f45c681f70e26169db8d10b3ccf4bd7": {
                            "nonce": "0x00",
                            "balance": "0x2e",
                            "code": "0x6000355415600957005b60203560003555",
                            "storage": {}
                        },
                        "0x0f90696d9f45c681f70e26169db8d10b3ccf4cd7": {
                            "nonce": "0x00",
                            "balance": "0x16b2537a",
                            "code": "0x7f00000000000000000000000100000000000000000000000000000000000000007fffffffffffffffffffffffffffffffffffffffffffffffffffffffffffffffff7f0000000000000000000000000f90696d9f45c681f70e26169db8d10b3ccf4bd77f000000000000000000000000000000000000000000000000000000000000c3507f00000000000000000000000100000000000000000000000000000000000000007fffffffffffffffffffffffffffffffffffffffffffffffffffffffffffffffff7fffffffffffffffffffffffffffffffffffffffffffffffffffffffffffffffff7ffffffffffffffffffffffffffffffffffffffffffffffffffffffffffffffffe55",
                            "storage": {
                                "0xfffffffffffffffffffffffffffffffffffffffffffffffffffffffffffffffe": "0xffffffffffffffffffffffffffffffffffffffffffffffffffffffffffffffff"
                            }
                        }
                    }
                }
            ]
        },
        "config": {
            "blobSchedule": {
                "Cancun": {
                    "target": "0x03",
                    "max": "0x06",
                    "baseFeeUpdateFraction": "0x32f0ed"
                },
                "Prague": {
                    "target": "0x06",
                    "max": "0x09",
                    "baseFeeUpdateFraction": "0x4c6964"
                }
            },
            "chainid": "0x01"
        },
        "_info": {
            "hash": "0x4bd90f33fe5c8f8c08d0565858053b08bdee72c75c878b0660477a053bf594e1",
            "comment": "`execution-spec-tests` generated test",
            "filling-transition-tool": "ethereum-spec-evm-resolver 0.0.5",
            "description": "No description available - add a docstring to the python test class or function.",
            "url": "",
            "fixture-format": "state_test",
            "eels-resolution": {
                "git-url": "https://github.com/marioevz/execution-specs.git",
                "branch": "forks/bpo1",
                "commit": "3387e5f4aedfe99becfdc39b444d6371e25e0924"
            }
        }
    }
}