{
    "tests/static/state_tests/stRandom2/randomStatetest456Filler.json::randomStatetest456[fork_Cancun-state_test-]": {
        "env": {
            "currentCoinbase": "0xf51afe66bb5342da356229e5f074773a1997feb4",
            "currentGasLimit": "0x7fffffffffffffff",
            "currentNumber": "0x01",
            "currentTimestamp": "0x03e8",
            "currentRandom": "0x0000000000000000000000000000000000000000000000000000000000020000",
            "currentDifficulty": "0x00",
            "currentBaseFee": "0x0a",
            "currentExcessBlobGas": "0x00"
        },
        "pre": {
            "0xc6a4df9a3d91443267f234fbc01d1d0203cc3ba8": {
                "nonce": "0x00",
                "balance": "0x0de0b6b3a7640000",
                "code": "0x",
                "storage": {}
            },
            "0xf51afe66bb5342da356229e5f074773a1997feb4": {
                "nonce": "0x00",
                "balance": "0x2e",
                "code": "0x6000355415600957005b60203560003555",
                "storage": {}
            },
            "0xf51afe66bb5342da356229e5f074773a1997ffb4": {
                "nonce": "0x00",
                "balance": "0x0de0b6b3a7640000",
                "code": "0x41424143445a42f35b10773574016c9f",
                "storage": {}
            }
        },
        "transaction": {
            "nonce": "0x00",
            "gasPrice": "0x0a",
            "gasLimit": [
                "0x061a80"
            ],
            "to": "0xf51afe66bb5342da356229e5f074773a1997ffb4",
            "value": [
                "0x0186a0"
            ],
            "data": [
                "0x42"
            ],
            "sender": "0xc6a4df9a3d91443267f234fbc01d1d0203cc3ba8",
            "secretKey": "0x266492a6ae94cb4f4c56d2fff51afe66bb5342da356229e5f074773a1997feb4"
        },
        "post": {
            "Cancun": [
                {
                    "hash": "0xae0dd74afe8f849eeb0bf8ee8dc5f4ed06a23ba03938887a902ea41ad2b04a41",
                    "logs": "0x1dcc4de8dec75d7aab85b567b6ccd41ad312451b948a7413f0a142fd40d49347",
                    "txbytes": "0xf863800a83061a8094f51afe66bb5342da356229e5f074773a1997ffb4830186a04225a0a7971d36be62e7a68b6bee8caa3008387c07d9dca3a81d7629435d8ac9247046a05abda33ff9a2e89cf1ab61e8cfb00170c43bc2c7b462e1921c677708feb4a797",
                    "indexes": {
                        "data": 0,
                        "gas": 0,
                        "value": 0
                    },
                    "state": {
                        "0xc6a4df9a3d91443267f234fbc01d1d0203cc3ba8": {
                            "nonce": "0x01",
                            "balance": "0x0de0b6b3a72fcda8",
                            "code": "0x",
                            "storage": {}
                        },
                        "0xf51afe66bb5342da356229e5f074773a1997feb4": {
                            "nonce": "0x00",
                            "balance": "0x2e",
                            "code": "0x6000355415600957005b60203560003555",
                            "storage": {}
                        },
                        "0xf51afe66bb5342da356229e5f074773a1997ffb4": {
                            "nonce": "0x00",
                            "balance": "0x0de0b6b3a76586a0",
                            "code": "0x41424143445a42f35b10773574016c9f",
                            "storage": {}
                        }
                    }
                }
            ]
        },
        "config": {
            "blobSchedule": {
                "Cancun": {
                    "target": "0x03",
                    "max": "0x06",
                    "baseFeeUpdateFraction": "0x32f0ed"
                }
            },
            "chainid": "0x01"
        },
        "_info": {
            "hash": "0x80dba8129823c9d93ac69bcac290ffe185415469551158786101c81f2f41c2ec",
            "comment": "`execution-spec-tests` generated test",
            "filling-transition-tool": "ethereum-spec-evm-resolver 0.0.5",
            "description": "No description available - add a docstring to the python test class or function.",
            "url": "",
            "fixture-format": "state_test",
            "eels-resolution": {
                "git-url": "https://github.com/ethereum/execution-specs.git",
                "branch": "forks/bpos",
                "commit": "7aacb2c54111391af5e98c505d5010b5698a770f"
            }
        }
    },
    "tests/static/state_tests/stRandom2/randomStatetest456Filler.json::randomStatetest456[fork_Osaka-state_test-]": {
        "env": {
            "currentCoinbase": "0xf51afe66bb5342da356229e5f074773a1997feb4",
            "currentGasLimit": "0x7fffffffffffffff",
            "currentNumber": "0x01",
            "currentTimestamp": "0x03e8",
            "currentRandom": "0x0000000000000000000000000000000000000000000000000000000000020000",
            "currentDifficulty": "0x00",
            "currentBaseFee": "0x0a",
            "currentExcessBlobGas": "0x00"
        },
        "pre": {
            "0xc6a4df9a3d91443267f234fbc01d1d0203cc3ba8": {
                "nonce": "0x00",
                "balance": "0x0de0b6b3a7640000",
                "code": "0x",
                "storage": {}
            },
            "0xf51afe66bb5342da356229e5f074773a1997feb4": {
                "nonce": "0x00",
                "balance": "0x2e",
                "code": "0x6000355415600957005b60203560003555",
                "storage": {}
            },
            "0xf51afe66bb5342da356229e5f074773a1997ffb4": {
                "nonce": "0x00",
                "balance": "0x0de0b6b3a7640000",
                "code": "0x41424143445a42f35b10773574016c9f",
                "storage": {}
            }
        },
        "transaction": {
            "nonce": "0x00",
            "gasPrice": "0x0a",
            "gasLimit": [
                "0x061a80"
            ],
            "to": "0xf51afe66bb5342da356229e5f074773a1997ffb4",
            "value": [
                "0x0186a0"
            ],
            "data": [
                "0x42"
            ],
            "sender": "0xc6a4df9a3d91443267f234fbc01d1d0203cc3ba8",
            "secretKey": "0x266492a6ae94cb4f4c56d2fff51afe66bb5342da356229e5f074773a1997feb4"
        },
        "post": {
            "Osaka": [
                {
                    "hash": "0xae0dd74afe8f849eeb0bf8ee8dc5f4ed06a23ba03938887a902ea41ad2b04a41",
                    "logs": "0x1dcc4de8dec75d7aab85b567b6ccd41ad312451b948a7413f0a142fd40d49347",
                    "txbytes": "0xf863800a83061a8094f51afe66bb5342da356229e5f074773a1997ffb4830186a04225a0a7971d36be62e7a68b6bee8caa3008387c07d9dca3a81d7629435d8ac9247046a05abda33ff9a2e89cf1ab61e8cfb00170c43bc2c7b462e1921c677708feb4a797",
                    "indexes": {
                        "data": 0,
                        "gas": 0,
                        "value": 0
                    },
                    "state": {
                        "0xc6a4df9a3d91443267f234fbc01d1d0203cc3ba8": {
                            "nonce": "0x01",
                            "balance": "0x0de0b6b3a72fcda8",
                            "code": "0x",
                            "storage": {}
                        },
                        "0xf51afe66bb5342da356229e5f074773a1997feb4": {
                            "nonce": "0x00",
                            "balance": "0x2e",
                            "code": "0x6000355415600957005b60203560003555",
                            "storage": {}
                        },
                        "0xf51afe66bb5342da356229e5f074773a1997ffb4": {
                            "nonce": "0x00",
                            "balance": "0x0de0b6b3a76586a0",
                            "code": "0x41424143445a42f35b10773574016c9f",
                            "storage": {}
                        }
                    }
                }
            ]
        },
        "config": {
            "blobSchedule": {
                "Cancun": {
                    "target": "0x03",
                    "max": "0x06",
                    "baseFeeUpdateFraction": "0x32f0ed"
                },
                "Prague": {
                    "target": "0x06",
                    "max": "0x09",
                    "baseFeeUpdateFraction": "0x4c6964"
                },
                "Osaka": {
                    "target": "0x06",
                    "max": "0x09",
                    "baseFeeUpdateFraction": "0x4c6964"
                }
            },
            "chainid": "0x01"
        },
        "_info": {
            "hash": "0x187d6e51a811e774dbc876cd022f8915bdebe66e6e67c5e646866a3cad058dda",
            "comment": "`execution-spec-tests` generated test",
            "filling-transition-tool": "ethereum-spec-evm-resolver 0.0.5",
            "description": "No description available - add a docstring to the python test class or function.",
            "url": "",
            "fixture-format": "state_test",
            "eels-resolution": {
                "git-url": "https://github.com/ethereum/execution-specs.git",
                "branch": "forks/bpos",
                "commit": "7aacb2c54111391af5e98c505d5010b5698a770f"
            }
        }
    },
    "tests/static/state_tests/stRandom2/randomStatetest456Filler.json::randomStatetest456[fork_Prague-state_test-]": {
        "env": {
            "currentCoinbase": "0xf51afe66bb5342da356229e5f074773a1997feb4",
            "currentGasLimit": "0x7fffffffffffffff",
            "currentNumber": "0x01",
            "currentTimestamp": "0x03e8",
            "currentRandom": "0x0000000000000000000000000000000000000000000000000000000000020000",
            "currentDifficulty": "0x00",
            "currentBaseFee": "0x0a",
            "currentExcessBlobGas": "0x00"
        },
        "pre": {
            "0xc6a4df9a3d91443267f234fbc01d1d0203cc3ba8": {
                "nonce": "0x00",
                "balance": "0x0de0b6b3a7640000",
                "code": "0x",
                "storage": {}
            },
            "0xf51afe66bb5342da356229e5f074773a1997feb4": {
                "nonce": "0x00",
                "balance": "0x2e",
                "code": "0x6000355415600957005b60203560003555",
                "storage": {}
            },
            "0xf51afe66bb5342da356229e5f074773a1997ffb4": {
                "nonce": "0x00",
                "balance": "0x0de0b6b3a7640000",
                "code": "0x41424143445a42f35b10773574016c9f",
                "storage": {}
            }
        },
        "transaction": {
            "nonce": "0x00",
            "gasPrice": "0x0a",
            "gasLimit": [
                "0x061a80"
            ],
            "to": "0xf51afe66bb5342da356229e5f074773a1997ffb4",
            "value": [
                "0x0186a0"
            ],
            "data": [
                "0x42"
            ],
            "sender": "0xc6a4df9a3d91443267f234fbc01d1d0203cc3ba8",
            "secretKey": "0x266492a6ae94cb4f4c56d2fff51afe66bb5342da356229e5f074773a1997feb4"
        },
        "post": {
            "Prague": [
                {
                    "hash": "0xae0dd74afe8f849eeb0bf8ee8dc5f4ed06a23ba03938887a902ea41ad2b04a41",
                    "logs": "0x1dcc4de8dec75d7aab85b567b6ccd41ad312451b948a7413f0a142fd40d49347",
                    "txbytes": "0xf863800a83061a8094f51afe66bb5342da356229e5f074773a1997ffb4830186a04225a0a7971d36be62e7a68b6bee8caa3008387c07d9dca3a81d7629435d8ac9247046a05abda33ff9a2e89cf1ab61e8cfb00170c43bc2c7b462e1921c677708feb4a797",
                    "indexes": {
                        "data": 0,
                        "gas": 0,
                        "value": 0
                    },
                    "state": {
                        "0xc6a4df9a3d91443267f234fbc01d1d0203cc3ba8": {
                            "nonce": "0x01",
                            "balance": "0x0de0b6b3a72fcda8",
                            "code": "0x",
                            "storage": {}
                        },
                        "0xf51afe66bb5342da356229e5f074773a1997feb4": {
                            "nonce": "0x00",
                            "balance": "0x2e",
                            "code": "0x6000355415600957005b60203560003555",
                            "storage": {}
                        },
                        "0xf51afe66bb5342da356229e5f074773a1997ffb4": {
                            "nonce": "0x00",
                            "balance": "0x0de0b6b3a76586a0",
                            "code": "0x41424143445a42f35b10773574016c9f",
                            "storage": {}
                        }
                    }
                }
            ]
        },
        "config": {
            "blobSchedule": {
                "Cancun": {
                    "target": "0x03",
                    "max": "0x06",
                    "baseFeeUpdateFraction": "0x32f0ed"
                },
                "Prague": {
                    "target": "0x06",
                    "max": "0x09",
                    "baseFeeUpdateFraction": "0x4c6964"
                }
            },
            "chainid": "0x01"
        },
        "_info": {
            "hash": "0x2223072e41738cf0488b99bd269ee64777032f3a8d0803d6cc36f3e0e2367298",
            "comment": "`execution-spec-tests` generated test",
            "filling-transition-tool": "ethereum-spec-evm-resolver 0.0.5",
            "description": "No description available - add a docstring to the python test class or function.",
            "url": "",
            "fixture-format": "state_test",
            "eels-resolution": {
                "git-url": "https://github.com/ethereum/execution-specs.git",
                "branch": "forks/bpos",
                "commit": "7aacb2c54111391af5e98c505d5010b5698a770f"
            }
        }
    }
}