{
    "tests/static/state_tests/stRandom2/randomStatetest389Filler.json::randomStatetest389[fork_Cancun-state_test-]": {
        "env": {
            "currentCoinbase": "0x0260b358541798f16f7dcdd3aa15a3b9720eb380",
            "currentGasLimit": "0x7fffffffffffffff",
            "currentNumber": "0x01",
            "currentTimestamp": "0x03e8",
            "currentRandom": "0x0000000000000000000000000000000000000000000000000000000000020000",
            "currentDifficulty": "0x00",
            "currentBaseFee": "0x0a",
            "currentExcessBlobGas": "0x00"
        },
        "pre": {
            "0x9a70913314768f36bc6fc84909ab35410e157865": {
                "nonce": "0x00",
                "balance": "0x0de0b6b3a7640000",
                "code": "0x",
                "storage": {}
            },
            "0x0260b358541798f16f7dcdd3aa15a3b9720eb380": {
                "nonce": "0x00",
                "balance": "0x2e",
                "code": "0x6000355415600957005b60203560003555",
                "storage": {}
            },
            "0x0260b358541798f16f7dcdd3aa15a3b9720eb480": {
                "nonce": "0x00",
                "balance": "0x00",
                "code": "0x457ffffffffffffffffffffffffffffffffffffffffffffffffffffffffffffffffe7f00000000000000000000000100000000000000000000000000000000000000007f0000000000000000000000000000000000000000000000000000000000000000427f0000000000000000000000000260b358541798f16f7dcdd3aa15a3b9720eb3807fffffffffffffffffffffffffffffffffffffffffffffffffffffffffffffffff7f000000000000000000000000000000000000000000000000000000000000c3503a86385458123760005155",
                "storage": {}
            }
        },
        "transaction": {
            "nonce": "0x00",
            "gasPrice": "0x0a",
            "gasLimit": [
                "0x0186a0"
            ],
            "to": "0x0260b358541798f16f7dcdd3aa15a3b9720eb480",
            "value": [
                "0x5bf15d9b"
            ],
            "data": [
                "0x457ffffffffffffffffffffffffffffffffffffffffffffffffffffffffffffffffe7f00000000000000000000000100000000000000000000000000000000000000007f0000000000000000000000000000000000000000000000000000000000000000427f0000000000000000000000000260b358541798f16f7dcdd3aa15a3b9720eb3807fffffffffffffffffffffffffffffffffffffffffffffffffffffffffffffffff7f000000000000000000000000000000000000000000000000000000000000c3503a863854581237"
            ],
            "sender": "0x9a70913314768f36bc6fc84909ab35410e157865",
            "secretKey": "0x3061eb4c1007b51e6f2054e90260b358541798f16f7dcdd3aa15a3b9720eb380"
        },
        "post": {
            "Cancun": [
                {
                    "hash": "0x573e4164230ebbd2e866512052295581612245d053caa36aab9dbd0fc619a3ff",
                    "logs": "0x1dcc4de8dec75d7aab85b567b6ccd41ad312451b948a7413f0a142fd40d49347",
                    "txbytes": "0xf90134800a830186a0940260b358541798f16f7dcdd3aa15a3b9720eb480845bf15d9bb8cf457ffffffffffffffffffffffffffffffffffffffffffffffffffffffffffffffffe7f00000000000000000000000100000000000000000000000000000000000000007f0000000000000000000000000000000000000000000000000000000000000000427f0000000000000000000000000260b358541798f16f7dcdd3aa15a3b9720eb3807fffffffffffffffffffffffffffffffffffffffffffffffffffffffffffffffff7f000000000000000000000000000000000000000000000000000000000000c3503a86385458123726a04d3564d895f2271d66341e3a53d0259cb219428212dc8d31b6e3b7137fed839da06a18e784aed64942d189858103088ef02d52fb31fdcd741a6a8eb50595c9098f",
                    "indexes": {
                        "data": 0,
                        "gas": 0,
                        "value": 0
                    },
                    "state": {
                        "0x9a70913314768f36bc6fc84909ab35410e157865": {
                            "nonce": "0x01",
                            "balance": "0x0de0b6b34b6b6ab3",
                            "code": "0x",
                            "storage": {}
                        },
                        "0x0260b358541798f16f7dcdd3aa15a3b9720eb380": {
                            "nonce": "0x00",
                            "balance": "0x2e",
                            "code": "0x6000355415600957005b60203560003555",
                            "storage": {}
                        },
                        "0x0260b358541798f16f7dcdd3aa15a3b9720eb480": {
                            "nonce": "0x00",
                            "balance": "0x5bf15d9b",
                            "code": "0x457ffffffffffffffffffffffffffffffffffffffffffffffffffffffffffffffffe7f00000000000000000000000100000000000000000000000000000000000000007f0000000000000000000000000000000000000000000000000000000000000000427f0000000000000000000000000260b358541798f16f7dcdd3aa15a3b9720eb3807fffffffffffffffffffffffffffffffffffffffffffffffffffffffffffffffff7f000000000000000000000000000000000000000000000000000000000000c3503a86385458123760005155",
                            "storage": {
                                "0x00": "0xc350"
                            }
                        }
                    }
                }
            ]
        },
        "config": {
            "blobSchedule": {
                "Cancun": {
                    "target": "0x03",
                    "max": "0x06",
                    "baseFeeUpdateFraction": "0x32f0ed"
                }
            },
            "chainid": "0x01"
        },
        "_info": {
            "hash": "0x01662499ced4924e2ba2b40531db5caef405caa2b93152e71a5a2c6b931f188a",
            "comment": "`execution-spec-tests` generated test",
            "filling-transition-tool": "ethereum-spec-evm-resolver 0.0.5",
            "description": "No description available - add a docstring to the python test class or function.",
            "url": "",
            "fixture-format": "state_test",
            "eels-resolution": {
                "git-url": "https://github.com/ethereum/execution-specs.git",
                "branch": "forks/bpos",
                "commit": "7aacb2c54111391af5e98c505d5010b5698a770f"
            }
        }
    },
    "tests/static/state_tests/stRandom2/randomStatetest389Filler.json::randomStatetest389[fork_Osaka-state_test-]": {
        "env": {
            "currentCoinbase": "0x0260b358541798f16f7dcdd3aa15a3b9720eb380",
            "currentGasLimit": "0x7fffffffffffffff",
            "currentNumber": "0x01",
            "currentTimestamp": "0x03e8",
            "currentRandom": "0x0000000000000000000000000000000000000000000000000000000000020000",
            "currentDifficulty": "0x00",
            "currentBaseFee": "0x0a",
            "currentExcessBlobGas": "0x00"
        },
        "pre": {
            "0x9a70913314768f36bc6fc84909ab35410e157865": {
                "nonce": "0x00",
                "balance": "0x0de0b6b3a7640000",
                "code": "0x",
                "storage": {}
            },
            "0x0260b358541798f16f7dcdd3aa15a3b9720eb380": {
                "nonce": "0x00",
                "balance": "0x2e",
                "code": "0x6000355415600957005b60203560003555",
                "storage": {}
            },
            "0x0260b358541798f16f7dcdd3aa15a3b9720eb480": {
                "nonce": "0x00",
                "balance": "0x00",
                "code": "0x457ffffffffffffffffffffffffffffffffffffffffffffffffffffffffffffffffe7f00000000000000000000000100000000000000000000000000000000000000007f0000000000000000000000000000000000000000000000000000000000000000427f0000000000000000000000000260b358541798f16f7dcdd3aa15a3b9720eb3807fffffffffffffffffffffffffffffffffffffffffffffffffffffffffffffffff7f000000000000000000000000000000000000000000000000000000000000c3503a86385458123760005155",
                "storage": {}
            }
        },
        "transaction": {
            "nonce": "0x00",
            "gasPrice": "0x0a",
            "gasLimit": [
                "0x0186a0"
            ],
            "to": "0x0260b358541798f16f7dcdd3aa15a3b9720eb480",
            "value": [
                "0x5bf15d9b"
            ],
            "data": [
                "0x457ffffffffffffffffffffffffffffffffffffffffffffffffffffffffffffffffe7f00000000000000000000000100000000000000000000000000000000000000007f0000000000000000000000000000000000000000000000000000000000000000427f0000000000000000000000000260b358541798f16f7dcdd3aa15a3b9720eb3807fffffffffffffffffffffffffffffffffffffffffffffffffffffffffffffffff7f000000000000000000000000000000000000000000000000000000000000c3503a863854581237"
            ],
            "sender": "0x9a70913314768f36bc6fc84909ab35410e157865",
            "secretKey": "0x3061eb4c1007b51e6f2054e90260b358541798f16f7dcdd3aa15a3b9720eb380"
        },
        "post": {
            "Osaka": [
                {
                    "hash": "0x573e4164230ebbd2e866512052295581612245d053caa36aab9dbd0fc619a3ff",
                    "logs": "0x1dcc4de8dec75d7aab85b567b6ccd41ad312451b948a7413f0a142fd40d49347",
                    "txbytes": "0xf90134800a830186a0940260b358541798f16f7dcdd3aa15a3b9720eb480845bf15d9bb8cf457ffffffffffffffffffffffffffffffffffffffffffffffffffffffffffffffffe7f00000000000000000000000100000000000000000000000000000000000000007f0000000000000000000000000000000000000000000000000000000000000000427f0000000000000000000000000260b358541798f16f7dcdd3aa15a3b9720eb3807fffffffffffffffffffffffffffffffffffffffffffffffffffffffffffffffff7f000000000000000000000000000000000000000000000000000000000000c3503a86385458123726a04d3564d895f2271d66341e3a53d0259cb219428212dc8d31b6e3b7137fed839da06a18e784aed64942d189858103088ef02d52fb31fdcd741a6a8eb50595c9098f",
                    "indexes": {
                        "data": 0,
                        "gas": 0,
                        "value": 0
                    },
                    "state": {
                        "0x9a70913314768f36bc6fc84909ab35410e157865": {
                            "nonce": "0x01",
                            "balance": "0x0de0b6b34b6b6ab3",
                            "code": "0x",
                            "storage": {}
                        },
                        "0x0260b358541798f16f7dcdd3aa15a3b9720eb380": {
                            "nonce": "0x00",
                            "balance": "0x2e",
                            "code": "0x6000355415600957005b60203560003555",
                            "storage": {}
                        },
                        "0x0260b358541798f16f7dcdd3aa15a3b9720eb480": {
                            "nonce": "0x00",
                            "balance": "0x5bf15d9b",
                            "code": "0x457ffffffffffffffffffffffffffffffffffffffffffffffffffffffffffffffffe7f00000000000000000000000100000000000000000000000000000000000000007f0000000000000000000000000000000000000000000000000000000000000000427f0000000000000000000000000260b358541798f16f7dcdd3aa15a3b9720eb3807fffffffffffffffffffffffffffffffffffffffffffffffffffffffffffffffff7f000000000000000000000000000000000000000000000000000000000000c3503a86385458123760005155",
                            "storage": {
                                "0x00": "0xc350"
                            }
                        }
                    }
                }
            ]
        },
        "config": {
            "blobSchedule": {
                "Cancun": {
                    "target": "0x03",
                    "max": "0x06",
                    "baseFeeUpdateFraction": "0x32f0ed"
                },
                "Prague": {
                    "target": "0x06",
                    "max": "0x09",
                    "baseFeeUpdateFraction": "0x4c6964"
                },
                "Osaka": {
                    "target": "0x06",
                    "max": "0x09",
                    "baseFeeUpdateFraction": "0x4c6964"
                }
            },
            "chainid": "0x01"
        },
        "_info": {
            "hash": "0x463fdaa7da1a30b1ffb35ede85e0b8230e0bc77f3c43b573af92553e5308b7fa",
            "comment": "`execution-spec-tests` generated test",
            "filling-transition-tool": "ethereum-spec-evm-resolver 0.0.5",
            "description": "No description available - add a docstring to the python test class or function.",
            "url": "",
            "fixture-format": "state_test",
            "eels-resolution": {
                "git-url": "https://github.com/ethereum/execution-specs.git",
                "branch": "forks/bpos",
                "commit": "7aacb2c54111391af5e98c505d5010b5698a770f"
            }
        }
    },
    "tests/static/state_tests/stRandom2/randomStatetest389Filler.json::randomStatetest389[fork_Prague-state_test-]": {
        "env": {
            "currentCoinbase": "0x0260b358541798f16f7dcdd3aa15a3b9720eb380",
            "currentGasLimit": "0x7fffffffffffffff",
            "currentNumber": "0x01",
            "currentTimestamp": "0x03e8",
            "currentRandom": "0x0000000000000000000000000000000000000000000000000000000000020000",
            "currentDifficulty": "0x00",
            "currentBaseFee": "0x0a",
            "currentExcessBlobGas": "0x00"
        },
        "pre": {
            "0x9a70913314768f36bc6fc84909ab35410e157865": {
                "nonce": "0x00",
                "balance": "0x0de0b6b3a7640000",
                "code": "0x",
                "storage": {}
            },
            "0x0260b358541798f16f7dcdd3aa15a3b9720eb380": {
                "nonce": "0x00",
                "balance": "0x2e",
                "code": "0x6000355415600957005b60203560003555",
                "storage": {}
            },
            "0x0260b358541798f16f7dcdd3aa15a3b9720eb480": {
                "nonce": "0x00",
                "balance": "0x00",
                "code": "0x457ffffffffffffffffffffffffffffffffffffffffffffffffffffffffffffffffe7f00000000000000000000000100000000000000000000000000000000000000007f0000000000000000000000000000000000000000000000000000000000000000427f0000000000000000000000000260b358541798f16f7dcdd3aa15a3b9720eb3807fffffffffffffffffffffffffffffffffffffffffffffffffffffffffffffffff7f000000000000000000000000000000000000000000000000000000000000c3503a86385458123760005155",
                "storage": {}
            }
        },
        "transaction": {
            "nonce": "0x00",
            "gasPrice": "0x0a",
            "gasLimit": [
                "0x0186a0"
            ],
            "to": "0x0260b358541798f16f7dcdd3aa15a3b9720eb480",
            "value": [
                "0x5bf15d9b"
            ],
            "data": [
                "0x457ffffffffffffffffffffffffffffffffffffffffffffffffffffffffffffffffe7f00000000000000000000000100000000000000000000000000000000000000007f0000000000000000000000000000000000000000000000000000000000000000427f0000000000000000000000000260b358541798f16f7dcdd3aa15a3b9720eb3807fffffffffffffffffffffffffffffffffffffffffffffffffffffffffffffffff7f000000000000000000000000000000000000000000000000000000000000c3503a863854581237"
            ],
            "sender": "0x9a70913314768f36bc6fc84909ab35410e157865",
            "secretKey": "0x3061eb4c1007b51e6f2054e90260b358541798f16f7dcdd3aa15a3b9720eb380"
        },
        "post": {
            "Prague": [
                {
                    "hash": "0x573e4164230ebbd2e866512052295581612245d053caa36aab9dbd0fc619a3ff",
                    "logs": "0x1dcc4de8dec75d7aab85b567b6ccd41ad312451b948a7413f0a142fd40d49347",
                    "txbytes": "0xf90134800a830186a0940260b358541798f16f7dcdd3aa15a3b9720eb480845bf15d9bb8cf457ffffffffffffffffffffffffffffffffffffffffffffffffffffffffffffffffe7f00000000000000000000000100000000000000000000000000000000000000007f0000000000000000000000000000000000000000000000000000000000000000427f0000000000000000000000000260b358541798f16f7dcdd3aa15a3b9720eb3807fffffffffffffffffffffffffffffffffffffffffffffffffffffffffffffffff7f000000000000000000000000000000000000000000000000000000000000c3503a86385458123726a04d3564d895f2271d66341e3a53d0259cb219428212dc8d31b6e3b7137fed839da06a18e784aed64942d189858103088ef02d52fb31fdcd741a6a8eb50595c9098f",
                    "indexes": {
                        "data": 0,
                        "gas": 0,
                        "value": 0
                    },
                    "state": {
                        "0x9a70913314768f36bc6fc84909ab35410e157865": {
                            "nonce": "0x01",
                            "balance": "0x0de0b6b34b6b6ab3",
                            "code": "0x",
                            "storage": {}
                        },
                        "0x0260b358541798f16f7dcdd3aa15a3b9720eb380": {
                            "nonce": "0x00",
                            "balance": "0x2e",
                            "code": "0x6000355415600957005b60203560003555",
                            "storage": {}
                        },
                        "0x0260b358541798f16f7dcdd3aa15a3b9720eb480": {
                            "nonce": "0x00",
                            "balance": "0x5bf15d9b",
                            "code": "0x457ffffffffffffffffffffffffffffffffffffffffffffffffffffffffffffffffe7f00000000000000000000000100000000000000000000000000000000000000007f0000000000000000000000000000000000000000000000000000000000000000427f0000000000000000000000000260b358541798f16f7dcdd3aa15a3b9720eb3807fffffffffffffffffffffffffffffffffffffffffffffffffffffffffffffffff7f000000000000000000000000000000000000000000000000000000000000c3503a86385458123760005155",
                            "storage": {
                                "0x00": "0xc350"
                            }
                        }
                    }
                }
            ]
        },
        "config": {
            "blobSchedule": {
                "Cancun": {
                    "target": "0x03",
                    "max": "0x06",
                    "baseFeeUpdateFraction": "0x32f0ed"
                },
                "Prague": {
                    "target": "0x06",
                    "max": "0x09",
                    "baseFeeUpdateFraction": "0x4c6964"
                }
            },
            "chainid": "0x01"
        },
        "_info": {
            "hash": "0x1532648908a6027117a8b2e8aa7be0fe8eb44c9ecd80fd4ff6ae39824eb6b9fa",
            "comment": "`execution-spec-tests` generated test",
            "filling-transition-tool": "ethereum-spec-evm-resolver 0.0.5",
            "description": "No description available - add a docstring to the python test class or function.",
            "url": "",
            "fixture-format": "state_test",
            "eels-resolution": {
                "git-url": "https://github.com/ethereum/execution-specs.git",
                "branch": "forks/bpos",
                "commit": "7aacb2c54111391af5e98c505d5010b5698a770f"
            }
        }
    }
}