{
    "tests/static/state_tests/stRandom2/randomStatetest621Filler.json::randomStatetest621[fork_Cancun-state_test-]": {
        "env": {
            "currentCoinbase": "0xf12f3bee16e8a3b5e9639ad5596ae455f60435b0",
            "currentGasLimit": "0x7fffffffffffffff",
            "currentNumber": "0x01",
            "currentTimestamp": "0x03e8",
            "currentRandom": "0x0000000000000000000000000000000000000000000000000000000000020000",
            "currentDifficulty": "0x00",
            "currentBaseFee": "0x0a",
            "currentExcessBlobGas": "0x00"
        },
        "pre": {
            "0xb4b90e92b711c2212889692d91ba5285814c3c3c": {
                "nonce": "0x00",
                "balance": "0x0de0b6b3a7640000",
                "code": "0x",
                "storage": {}
            },
            "0xf12f3bee16e8a3b5e9639ad5596ae455f60435b0": {
                "nonce": "0x00",
                "balance": "0x2e",
                "code": "0x6000355415600957005b60203560003555",
                "storage": {}
            },
            "0xf12f3bee16e8a3b5e9639ad5596ae455f60436b0": {
                "nonce": "0x00",
                "balance": "0x00",
                "code": "0x7f000000000000000000000000ffffffffffffffffffffffffffffffffffffffff7f000000000000000000000000f12f3bee16e8a3b5e9639ad5596ae455f60435b07f000000000000000000000000f12f3bee16e8a3b5e9639ad5596ae455f60435b07f0000000000000000000000000000000000000000000000000000000000000000441a7f000000000000000000000000ffffffffffffffffffffffffffffffffffffffff6f3ba187a19366899e595220741232905b60005155",
                "storage": {}
            }
        },
        "transaction": {
            "nonce": "0x00",
            "gasPrice": "0x0a",
            "gasLimit": [
                "0x0186a0"
            ],
            "to": "0xf12f3bee16e8a3b5e9639ad5596ae455f60436b0",
            "value": [
                "0x7fc94217"
            ],
            "data": [
                "0x7f000000000000000000000000ffffffffffffffffffffffffffffffffffffffff7f000000000000000000000000f12f3bee16e8a3b5e9639ad5596ae455f60435b07f000000000000000000000000f12f3bee16e8a3b5e9639ad5596ae455f60435b07f0000000000000000000000000000000000000000000000000000000000000000441a7f000000000000000000000000ffffffffffffffffffffffffffffffffffffffff6f3ba187a19366899e595220741232905b"
            ],
            "sender": "0xb4b90e92b711c2212889692d91ba5285814c3c3c",
            "secretKey": "0x012951852c2b802c7445ea26f12f3bee16e8a3b5e9639ad5596ae455f60435b0"
        },
        "post": {
            "Cancun": [
                {
                    "hash": "0x3b0ec6bf5a1b7e02cc76b5f46f57e4468eb76e69c9e29935549adc0682eb5b2c",
                    "logs": "0x1dcc4de8dec75d7aab85b567b6ccd41ad312451b948a7413f0a142fd40d49347",
                    "txbytes": "0xf9011d800a830186a094f12f3bee16e8a3b5e9639ad5596ae455f60436b0847fc94217b8b87f000000000000000000000000ffffffffffffffffffffffffffffffffffffffff7f000000000000000000000000f12f3bee16e8a3b5e9639ad5596ae455f60435b07f000000000000000000000000f12f3bee16e8a3b5e9639ad5596ae455f60435b07f0000000000000000000000000000000000000000000000000000000000000000441a7f000000000000000000000000ffffffffffffffffffffffffffffffffffffffff6f3ba187a19366899e595220741232905b26a0688ac74c5ed3d32e53f348c272165ae98e9e6affe69a2f22dd8e96151c2a339ea03111a1ee174581adca51b4a7c27adbe8ed6188b2793fea2662ddbbcc488447f5",
                    "indexes": {
                        "data": 0,
                        "gas": 0,
                        "value": 0
                    },
                    "state": {
                        "0xb4b90e92b711c2212889692d91ba5285814c3c3c": {
                            "nonce": "0x01",
                            "balance": "0x0de0b6b32793db91",
                            "code": "0x",
                            "storage": {}
                        },
                        "0xf12f3bee16e8a3b5e9639ad5596ae455f60435b0": {
                            "nonce": "0x00",
                            "balance": "0x2e",
                            "code": "0x6000355415600957005b60203560003555",
                            "storage": {}
                        },
                        "0xf12f3bee16e8a3b5e9639ad5596ae455f60436b0": {
                            "nonce": "0x00",
                            "balance": "0x7fc94217",
                            "code": "0x7f000000000000000000000000ffffffffffffffffffffffffffffffffffffffff7f000000000000000000000000f12f3bee16e8a3b5e9639ad5596ae455f60435b07f000000000000000000000000f12f3bee16e8a3b5e9639ad5596ae455f60435b07f0000000000000000000000000000000000000000000000000000000000000000441a7f000000000000000000000000ffffffffffffffffffffffffffffffffffffffff6f3ba187a19366899e595220741232905b60005155",
                            "storage": {
                                "0x00": "0x3ba187a19366899e595220741232905b"
                            }
                        }
                    }
                }
            ]
        },
        "config": {
            "blobSchedule": {
                "Cancun": {
                    "target": "0x03",
                    "max": "0x06",
                    "baseFeeUpdateFraction": "0x32f0ed"
                }
            },
            "chainid": "0x01"
        },
        "_info": {
            "hash": "0xd8fab8c27083810876c595b226940d95b057f15224fa522f9d292240eb9f388c",
            "comment": "`execution-spec-tests` generated test",
            "filling-transition-tool": "ethereum-spec-evm-resolver 0.0.5",
            "description": "No description available - add a docstring to the python test class or function.",
            "url": "",
            "fixture-format": "state_test",
            "eels-resolution": {
                "git-url": "https://github.com/marioevz/execution-specs.git",
                "branch": "forks/bpo1",
                "commit": "3387e5f4aedfe99becfdc39b444d6371e25e0924"
            }
        }
    },
    "tests/static/state_tests/stRandom2/randomStatetest621Filler.json::randomStatetest621[fork_Osaka-state_test-]": {
        "env": {
            "currentCoinbase": "0xf12f3bee16e8a3b5e9639ad5596ae455f60435b0",
            "currentGasLimit": "0x7fffffffffffffff",
            "currentNumber": "0x01",
            "currentTimestamp": "0x03e8",
            "currentRandom": "0x0000000000000000000000000000000000000000000000000000000000020000",
            "currentDifficulty": "0x00",
            "currentBaseFee": "0x0a",
            "currentExcessBlobGas": "0x00"
        },
        "pre": {
            "0xb4b90e92b711c2212889692d91ba5285814c3c3c": {
                "nonce": "0x00",
                "balance": "0x0de0b6b3a7640000",
                "code": "0x",
                "storage": {}
            },
            "0xf12f3bee16e8a3b5e9639ad5596ae455f60435b0": {
                "nonce": "0x00",
                "balance": "0x2e",
                "code": "0x6000355415600957005b60203560003555",
                "storage": {}
            },
            "0xf12f3bee16e8a3b5e9639ad5596ae455f60436b0": {
                "nonce": "0x00",
                "balance": "0x00",
                "code": "0x7f000000000000000000000000ffffffffffffffffffffffffffffffffffffffff7f000000000000000000000000f12f3bee16e8a3b5e9639ad5596ae455f60435b07f000000000000000000000000f12f3bee16e8a3b5e9639ad5596ae455f60435b07f0000000000000000000000000000000000000000000000000000000000000000441a7f000000000000000000000000ffffffffffffffffffffffffffffffffffffffff6f3ba187a19366899e595220741232905b60005155",
                "storage": {}
            }
        },
        "transaction": {
            "nonce": "0x00",
            "gasPrice": "0x0a",
            "gasLimit": [
                "0x0186a0"
            ],
            "to": "0xf12f3bee16e8a3b5e9639ad5596ae455f60436b0",
            "value": [
                "0x7fc94217"
            ],
            "data": [
                "0x7f000000000000000000000000ffffffffffffffffffffffffffffffffffffffff7f000000000000000000000000f12f3bee16e8a3b5e9639ad5596ae455f60435b07f000000000000000000000000f12f3bee16e8a3b5e9639ad5596ae455f60435b07f0000000000000000000000000000000000000000000000000000000000000000441a7f000000000000000000000000ffffffffffffffffffffffffffffffffffffffff6f3ba187a19366899e595220741232905b"
            ],
            "sender": "0xb4b90e92b711c2212889692d91ba5285814c3c3c",
            "secretKey": "0x012951852c2b802c7445ea26f12f3bee16e8a3b5e9639ad5596ae455f60435b0"
        },
        "post": {
            "Osaka": [
                {
                    "hash": "0x3b0ec6bf5a1b7e02cc76b5f46f57e4468eb76e69c9e29935549adc0682eb5b2c",
                    "logs": "0x1dcc4de8dec75d7aab85b567b6ccd41ad312451b948a7413f0a142fd40d49347",
                    "txbytes": "0xf9011d800a830186a094f12f3bee16e8a3b5e9639ad5596ae455f60436b0847fc94217b8b87f000000000000000000000000ffffffffffffffffffffffffffffffffffffffff7f000000000000000000000000f12f3bee16e8a3b5e9639ad5596ae455f60435b07f000000000000000000000000f12f3bee16e8a3b5e9639ad5596ae455f60435b07f0000000000000000000000000000000000000000000000000000000000000000441a7f000000000000000000000000ffffffffffffffffffffffffffffffffffffffff6f3ba187a19366899e595220741232905b26a0688ac74c5ed3d32e53f348c272165ae98e9e6affe69a2f22dd8e96151c2a339ea03111a1ee174581adca51b4a7c27adbe8ed6188b2793fea2662ddbbcc488447f5",
                    "indexes": {
                        "data": 0,
                        "gas": 0,
                        "value": 0
                    },
                    "state": {
                        "0xb4b90e92b711c2212889692d91ba5285814c3c3c": {
                            "nonce": "0x01",
                            "balance": "0x0de0b6b32793db91",
                            "code": "0x",
                            "storage": {}
                        },
                        "0xf12f3bee16e8a3b5e9639ad5596ae455f60435b0": {
                            "nonce": "0x00",
                            "balance": "0x2e",
                            "code": "0x6000355415600957005b60203560003555",
                            "storage": {}
                        },
                        "0xf12f3bee16e8a3b5e9639ad5596ae455f60436b0": {
                            "nonce": "0x00",
                            "balance": "0x7fc94217",
                            "code": "0x7f000000000000000000000000ffffffffffffffffffffffffffffffffffffffff7f000000000000000000000000f12f3bee16e8a3b5e9639ad5596ae455f60435b07f000000000000000000000000f12f3bee16e8a3b5e9639ad5596ae455f60435b07f0000000000000000000000000000000000000000000000000000000000000000441a7f000000000000000000000000ffffffffffffffffffffffffffffffffffffffff6f3ba187a19366899e595220741232905b60005155",
                            "storage": {
                                "0x00": "0x3ba187a19366899e595220741232905b"
                            }
                        }
                    }
                }
            ]
        },
        "config": {
            "blobSchedule": {
                "Cancun": {
                    "target": "0x03",
                    "max": "0x06",
                    "baseFeeUpdateFraction": "0x32f0ed"
                },
                "Prague": {
                    "target": "0x06",
                    "max": "0x09",
                    "baseFeeUpdateFraction": "0x4c6964"
                },
                "Osaka": {
                    "target": "0x06",
                    "max": "0x09",
                    "baseFeeUpdateFraction": "0x4c6964"
                }
            },
            "chainid": "0x01"
        },
        "_info": {
            "hash": "0x70860a1b591db343798657cf3eb62079fb7e0ac2733c5b5bd4174f7e07c4b507",
            "comment": "`execution-spec-tests` generated test",
            "filling-transition-tool": "ethereum-spec-evm-resolver 0.0.5",
            "description": "No description available - add a docstring to the python test class or function.",
            "url": "",
            "fixture-format": "state_test",
            "eels-resolution": {
                "git-url": "https://github.com/marioevz/execution-specs.git",
                "branch": "forks/bpo1",
                "commit": "3387e5f4aedfe99becfdc39b444d6371e25e0924"
            }
        }
    },
    "tests/static/state_tests/stRandom2/randomStatetest621Filler.json::randomStatetest621[fork_Prague-state_test-]": {
        "env": {
            "currentCoinbase": "0xf12f3bee16e8a3b5e9639ad5596ae455f60435b0",
            "currentGasLimit": "0x7fffffffffffffff",
            "currentNumber": "0x01",
            "currentTimestamp": "0x03e8",
            "currentRandom": "0x0000000000000000000000000000000000000000000000000000000000020000",
            "currentDifficulty": "0x00",
            "currentBaseFee": "0x0a",
            "currentExcessBlobGas": "0x00"
        },
        "pre": {
            "0xb4b90e92b711c2212889692d91ba5285814c3c3c": {
                "nonce": "0x00",
                "balance": "0x0de0b6b3a7640000",
                "code": "0x",
                "storage": {}
            },
            "0xf12f3bee16e8a3b5e9639ad5596ae455f60435b0": {
                "nonce": "0x00",
                "balance": "0x2e",
                "code": "0x6000355415600957005b60203560003555",
                "storage": {}
            },
            "0xf12f3bee16e8a3b5e9639ad5596ae455f60436b0": {
                "nonce": "0x00",
                "balance": "0x00",
                "code": "0x7f000000000000000000000000ffffffffffffffffffffffffffffffffffffffff7f000000000000000000000000f12f3bee16e8a3b5e9639ad5596ae455f60435b07f000000000000000000000000f12f3bee16e8a3b5e9639ad5596ae455f60435b07f0000000000000000000000000000000000000000000000000000000000000000441a7f000000000000000000000000ffffffffffffffffffffffffffffffffffffffff6f3ba187a19366899e595220741232905b60005155",
                "storage": {}
            }
        },
        "transaction": {
            "nonce": "0x00",
            "gasPrice": "0x0a",
            "gasLimit": [
                "0x0186a0"
            ],
            "to": "0xf12f3bee16e8a3b5e9639ad5596ae455f60436b0",
            "value": [
                "0x7fc94217"
            ],
            "data": [
                "0x7f000000000000000000000000ffffffffffffffffffffffffffffffffffffffff7f000000000000000000000000f12f3bee16e8a3b5e9639ad5596ae455f60435b07f000000000000000000000000f12f3bee16e8a3b5e9639ad5596ae455f60435b07f0000000000000000000000000000000000000000000000000000000000000000441a7f000000000000000000000000ffffffffffffffffffffffffffffffffffffffff6f3ba187a19366899e595220741232905b"
            ],
            "sender": "0xb4b90e92b711c2212889692d91ba5285814c3c3c",
            "secretKey": "0x012951852c2b802c7445ea26f12f3bee16e8a3b5e9639ad5596ae455f60435b0"
        },
        "post": {
            "Prague": [
                {
                    "hash": "0x3b0ec6bf5a1b7e02cc76b5f46f57e4468eb76e69c9e29935549adc0682eb5b2c",
                    "logs": "0x1dcc4de8dec75d7aab85b567b6ccd41ad312451b948a7413f0a142fd40d49347",
                    "txbytes": "0xf9011d800a830186a094f12f3bee16e8a3b5e9639ad5596ae455f60436b0847fc94217b8b87f000000000000000000000000ffffffffffffffffffffffffffffffffffffffff7f000000000000000000000000f12f3bee16e8a3b5e9639ad5596ae455f60435b07f000000000000000000000000f12f3bee16e8a3b5e9639ad5596ae455f60435b07f0000000000000000000000000000000000000000000000000000000000000000441a7f000000000000000000000000ffffffffffffffffffffffffffffffffffffffff6f3ba187a19366899e595220741232905b26a0688ac74c5ed3d32e53f348c272165ae98e9e6affe69a2f22dd8e96151c2a339ea03111a1ee174581adca51b4a7c27adbe8ed6188b2793fea2662ddbbcc488447f5",
                    "indexes": {
                        "data": 0,
                        "gas": 0,
                        "value": 0
                    },
                    "state": {
                        "0xb4b90e92b711c2212889692d91ba5285814c3c3c": {
                            "nonce": "0x01",
                            "balance": "0x0de0b6b32793db91",
                            "code": "0x",
                            "storage": {}
                        },
                        "0xf12f3bee16e8a3b5e9639ad5596ae455f60435b0": {
                            "nonce": "0x00",
                            "balance": "0x2e",
                            "code": "0x6000355415600957005b60203560003555",
                            "storage": {}
                        },
                        "0xf12f3bee16e8a3b5e9639ad5596ae455f60436b0": {
                            "nonce": "0x00",
                            "balance": "0x7fc94217",
                            "code": "0x7f000000000000000000000000ffffffffffffffffffffffffffffffffffffffff7f000000000000000000000000f12f3bee16e8a3b5e9639ad5596ae455f60435b07f000000000000000000000000f12f3bee16e8a3b5e9639ad5596ae455f60435b07f0000000000000000000000000000000000000000000000000000000000000000441a7f000000000000000000000000ffffffffffffffffffffffffffffffffffffffff6f3ba187a19366899e595220741232905b60005155",
                            "storage": {
                                "0x00": "0x3ba187a19366899e595220741232905b"
                            }
                        }
                    }
                }
            ]
        },
        "config": {
            "blobSchedule": {
                "Cancun": {
                    "target": "0x03",
                    "max": "0x06",
                    "baseFeeUpdateFraction": "0x32f0ed"
                },
                "Prague": {
                    "target": "0x06",
                    "max": "0x09",
                    "baseFeeUpdateFraction": "0x4c6964"
                }
            },
            "chainid": "0x01"
        },
        "_info": {
            "hash": "0xbb726861bab2152dd9025bdf68bba9ba7c7042e1df50e7c61c09a6dc5606e4a8",
            "comment": "`execution-spec-tests` generated test",
            "filling-transition-tool": "ethereum-spec-evm-resolver 0.0.5",
            "description": "No description available - add a docstring to the python test class or function.",
            "url": "",
            "fixture-format": "state_test",
            "eels-resolution": {
                "git-url": "https://github.com/marioevz/execution-specs.git",
                "branch": "forks/bpo1",
                "commit": "3387e5f4aedfe99becfdc39b444d6371e25e0924"
            }
        }
    }
}