{
    "tests/static/state_tests/stRandom2/randomStatetest465Filler.json::randomStatetest465[fork_Cancun-state_test-]": {
        "env": {
            "currentCoinbase": "0xdf911661caf12c38ca451d5e76ca111d7dedc922",
            "currentGasLimit": "0x7fffffffffffffff",
            "currentNumber": "0x01",
            "currentTimestamp": "0x03e8",
            "currentRandom": "0x0000000000000000000000000000000000000000000000000000000000020000",
            "currentDifficulty": "0x00",
            "currentBaseFee": "0x0a",
            "currentExcessBlobGas": "0x00"
        },
        "pre": {
            "0xf5d0a997d4350ed43c3d3c2d52b2dbf3bd73e08a": {
                "nonce": "0x00",
                "balance": "0x0de0b6b3a7640000",
                "code": "0x",
                "storage": {}
            },
            "0xdf911661caf12c38ca451d5e76ca111d7dedc922": {
                "nonce": "0x00",
                "balance": "0x2e",
                "code": "0x6000355415600957005b60203560003555",
                "storage": {}
            },
            "0xdf911661caf12c38ca451d5e76ca111d7dedca22": {
                "nonce": "0x00",
                "balance": "0x00",
                "code": "0x7f00000000000000000000000000000000000000000000000000000000000000007ffffffffffffffffffffffffffffffffffffffffffffffffffffffffffffffffe7ffffffffffffffffffffffffffffffffffffffffffffffffffffffffffffffffe7f000000000000000000000000df911661caf12c38ca451d5e76ca111d7dedc922437f000000000000000000000000df911661caf12c38ca451d5e76ca111d7dedc9227fffffffffffffffffffffffffffffffffffffffffffffffffffffffffffffffff7f000000000000000000000000000000000000000000000000000000000000000160005155",
                "storage": {}
            }
        },
        "transaction": {
            "nonce": "0x00",
            "gasPrice": "0x0a",
            "gasLimit": [
                "0x0186a0"
            ],
            "to": "0xdf911661caf12c38ca451d5e76ca111d7dedca22",
            "value": [
                "0x5de12c27"
            ],
            "data": [
                "0x7f00000000000000000000000000000000000000000000000000000000000000007ffffffffffffffffffffffffffffffffffffffffffffffffffffffffffffffffe7ffffffffffffffffffffffffffffffffffffffffffffffffffffffffffffffffe7f000000000000000000000000df911661caf12c38ca451d5e76ca111d7dedc922437f000000000000000000000000df911661caf12c38ca451d5e76ca111d7dedc9227fffffffffffffffffffffffffffffffffffffffffffffffffffffffffffffffff7f0000000000000000000000000000000000000000000000000000000000000001"
            ],
            "sender": "0xf5d0a997d4350ed43c3d3c2d52b2dbf3bd73e08a",
            "secretKey": "0xb6f1d7e1bd7daaab0b30dfd9df911661caf12c38ca451d5e76ca111d7dedc922"
        },
        "post": {
            "Cancun": [
                {
                    "hash": "0xcf08d5caf73a511ee3b033e8e83d0b6a8c040dc464337041d7f3bb7e5c0c9ceb",
                    "logs": "0x1dcc4de8dec75d7aab85b567b6ccd41ad312451b948a7413f0a142fd40d49347",
                    "txbytes": "0xf9014d800a830186a094df911661caf12c38ca451d5e76ca111d7dedca22845de12c27b8e87f00000000000000000000000000000000000000000000000000000000000000007ffffffffffffffffffffffffffffffffffffffffffffffffffffffffffffffffe7ffffffffffffffffffffffffffffffffffffffffffffffffffffffffffffffffe7f000000000000000000000000df911661caf12c38ca451d5e76ca111d7dedc922437f000000000000000000000000df911661caf12c38ca451d5e76ca111d7dedc9227fffffffffffffffffffffffffffffffffffffffffffffffffffffffffffffffff7f000000000000000000000000000000000000000000000000000000000000000126a0b712605ffff2aeccff5380d10af06fc63bffd646845acb0e9e9e1d1e6811b634a033e44c278c04032990e668f2ff25a9b869cca5d218be7b0abb83ccaae18ca3bd",
                    "indexes": {
                        "data": 0,
                        "gas": 0,
                        "value": 0
                    },
                    "state": {
                        "0xf5d0a997d4350ed43c3d3c2d52b2dbf3bd73e08a": {
                            "nonce": "0x01",
                            "balance": "0x0de0b6b3497bd6c9",
                            "code": "0x",
                            "storage": {}
                        },
                        "0xdf911661caf12c38ca451d5e76ca111d7dedc922": {
                            "nonce": "0x00",
                            "balance": "0x2e",
                            "code": "0x6000355415600957005b60203560003555",
                            "storage": {}
                        },
                        "0xdf911661caf12c38ca451d5e76ca111d7dedca22": {
                            "nonce": "0x00",
                            "balance": "0x5de12c27",
                            "code": "0x7f00000000000000000000000000000000000000000000000000000000000000007ffffffffffffffffffffffffffffffffffffffffffffffffffffffffffffffffe7ffffffffffffffffffffffffffffffffffffffffffffffffffffffffffffffffe7f000000000000000000000000df911661caf12c38ca451d5e76ca111d7dedc922437f000000000000000000000000df911661caf12c38ca451d5e76ca111d7dedc9227fffffffffffffffffffffffffffffffffffffffffffffffffffffffffffffffff7f000000000000000000000000000000000000000000000000000000000000000160005155",
                            "storage": {
                                "0x00": "0x01"
                            }
                        }
                    }
                }
            ]
        },
        "config": {
            "blobSchedule": {
                "Cancun": {
                    "target": "0x03",
                    "max": "0x06",
                    "baseFeeUpdateFraction": "0x32f0ed"
                }
            },
            "chainid": "0x01"
        },
        "_info": {
            "hash": "0x552d3f85be0dd3315ab553a3d6b3c7c5bec774cdc493e891f7004f84f14754dd",
            "comment": "`execution-spec-tests` generated test",
            "filling-transition-tool": "ethereum-spec-evm-resolver 0.0.5",
            "description": "No description available - add a docstring to the python test class or function.",
            "url": "",
            "fixture-format": "state_test",
            "eels-resolution": {
                "git-url": "https://github.com/marioevz/execution-specs.git",
                "branch": "forks/bpo1",
                "commit": "3387e5f4aedfe99becfdc39b444d6371e25e0924"
            }
        }
    },
    "tests/static/state_tests/stRandom2/randomStatetest465Filler.json::randomStatetest465[fork_Osaka-state_test-]": {
        "env": {
            "currentCoinbase": "0xdf911661caf12c38ca451d5e76ca111d7dedc922",
            "currentGasLimit": "0x7fffffffffffffff",
            "currentNumber": "0x01",
            "currentTimestamp": "0x03e8",
            "currentRandom": "0x0000000000000000000000000000000000000000000000000000000000020000",
            "currentDifficulty": "0x00",
            "currentBaseFee": "0x0a",
            "currentExcessBlobGas": "0x00"
        },
        "pre": {
            "0xf5d0a997d4350ed43c3d3c2d52b2dbf3bd73e08a": {
                "nonce": "0x00",
                "balance": "0x0de0b6b3a7640000",
                "code": "0x",
                "storage": {}
            },
            "0xdf911661caf12c38ca451d5e76ca111d7dedc922": {
                "nonce": "0x00",
                "balance": "0x2e",
                "code": "0x6000355415600957005b60203560003555",
                "storage": {}
            },
            "0xdf911661caf12c38ca451d5e76ca111d7dedca22": {
                "nonce": "0x00",
                "balance": "0x00",
                "code": "0x7f00000000000000000000000000000000000000000000000000000000000000007ffffffffffffffffffffffffffffffffffffffffffffffffffffffffffffffffe7ffffffffffffffffffffffffffffffffffffffffffffffffffffffffffffffffe7f000000000000000000000000df911661caf12c38ca451d5e76ca111d7dedc922437f000000000000000000000000df911661caf12c38ca451d5e76ca111d7dedc9227fffffffffffffffffffffffffffffffffffffffffffffffffffffffffffffffff7f000000000000000000000000000000000000000000000000000000000000000160005155",
                "storage": {}
            }
        },
        "transaction": {
            "nonce": "0x00",
            "gasPrice": "0x0a",
            "gasLimit": [
                "0x0186a0"
            ],
            "to": "0xdf911661caf12c38ca451d5e76ca111d7dedca22",
            "value": [
                "0x5de12c27"
            ],
            "data": [
                "0x7f00000000000000000000000000000000000000000000000000000000000000007ffffffffffffffffffffffffffffffffffffffffffffffffffffffffffffffffe7ffffffffffffffffffffffffffffffffffffffffffffffffffffffffffffffffe7f000000000000000000000000df911661caf12c38ca451d5e76ca111d7dedc922437f000000000000000000000000df911661caf12c38ca451d5e76ca111d7dedc9227fffffffffffffffffffffffffffffffffffffffffffffffffffffffffffffffff7f0000000000000000000000000000000000000000000000000000000000000001"
            ],
            "sender": "0xf5d0a997d4350ed43c3d3c2d52b2dbf3bd73e08a",
            "secretKey": "0xb6f1d7e1bd7daaab0b30dfd9df911661caf12c38ca451d5e76ca111d7dedc922"
        },
        "post": {
            "Osaka": [
                {
                    "hash": "0xcf08d5caf73a511ee3b033e8e83d0b6a8c040dc464337041d7f3bb7e5c0c9ceb",
                    "logs": "0x1dcc4de8dec75d7aab85b567b6ccd41ad312451b948a7413f0a142fd40d49347",
                    "txbytes": "0xf9014d800a830186a094df911661caf12c38ca451d5e76ca111d7dedca22845de12c27b8e87f00000000000000000000000000000000000000000000000000000000000000007ffffffffffffffffffffffffffffffffffffffffffffffffffffffffffffffffe7ffffffffffffffffffffffffffffffffffffffffffffffffffffffffffffffffe7f000000000000000000000000df911661caf12c38ca451d5e76ca111d7dedc922437f000000000000000000000000df911661caf12c38ca451d5e76ca111d7dedc9227fffffffffffffffffffffffffffffffffffffffffffffffffffffffffffffffff7f000000000000000000000000000000000000000000000000000000000000000126a0b712605ffff2aeccff5380d10af06fc63bffd646845acb0e9e9e1d1e6811b634a033e44c278c04032990e668f2ff25a9b869cca5d218be7b0abb83ccaae18ca3bd",
                    "indexes": {
                        "data": 0,
                        "gas": 0,
                        "value": 0
                    },
                    "state": {
                        "0xf5d0a997d4350ed43c3d3c2d52b2dbf3bd73e08a": {
                            "nonce": "0x01",
                            "balance": "0x0de0b6b3497bd6c9",
                            "code": "0x",
                            "storage": {}
                        },
                        "0xdf911661caf12c38ca451d5e76ca111d7dedc922": {
                            "nonce": "0x00",
                            "balance": "0x2e",
                            "code": "0x6000355415600957005b60203560003555",
                            "storage": {}
                        },
                        "0xdf911661caf12c38ca451d5e76ca111d7dedca22": {
                            "nonce": "0x00",
                            "balance": "0x5de12c27",
                            "code": "0x7f00000000000000000000000000000000000000000000000000000000000000007ffffffffffffffffffffffffffffffffffffffffffffffffffffffffffffffffe7ffffffffffffffffffffffffffffffffffffffffffffffffffffffffffffffffe7f000000000000000000000000df911661caf12c38ca451d5e76ca111d7dedc922437f000000000000000000000000df911661caf12c38ca451d5e76ca111d7dedc9227fffffffffffffffffffffffffffffffffffffffffffffffffffffffffffffffff7f000000000000000000000000000000000000000000000000000000000000000160005155",
                            "storage": {
                                "0x00": "0x01"
                            }
                        }
                    }
                }
            ]
        },
        "config": {
            "blobSchedule": {
                "Cancun": {
                    "target": "0x03",
                    "max": "0x06",
                    "baseFeeUpdateFraction": "0x32f0ed"
                },
                "Prague": {
                    "target": "0x06",
                    "max": "0x09",
                    "baseFeeUpdateFraction": "0x4c6964"
                },
                "Osaka": {
                    "target": "0x06",
                    "max": "0x09",
                    "baseFeeUpdateFraction": "0x4c6964"
                }
            },
            "chainid": "0x01"
        },
        "_info": {
            "hash": "0xb89fb856b169b2c89bb480162deac401797f3a8260170cf7af4a3dc2aa389c8c",
            "comment": "`execution-spec-tests` generated test",
            "filling-transition-tool": "ethereum-spec-evm-resolver 0.0.5",
            "description": "No description available - add a docstring to the python test class or function.",
            "url": "",
            "fixture-format": "state_test",
            "eels-resolution": {
                "git-url": "https://github.com/marioevz/execution-specs.git",
                "branch": "forks/bpo1",
                "commit": "3387e5f4aedfe99becfdc39b444d6371e25e0924"
            }
        }
    },
    "tests/static/state_tests/stRandom2/randomStatetest465Filler.json::randomStatetest465[fork_Prague-state_test-]": {
        "env": {
            "currentCoinbase": "0xdf911661caf12c38ca451d5e76ca111d7dedc922",
            "currentGasLimit": "0x7fffffffffffffff",
            "currentNumber": "0x01",
            "currentTimestamp": "0x03e8",
            "currentRandom": "0x0000000000000000000000000000000000000000000000000000000000020000",
            "currentDifficulty": "0x00",
            "currentBaseFee": "0x0a",
            "currentExcessBlobGas": "0x00"
        },
        "pre": {
            "0xf5d0a997d4350ed43c3d3c2d52b2dbf3bd73e08a": {
                "nonce": "0x00",
                "balance": "0x0de0b6b3a7640000",
                "code": "0x",
                "storage": {}
            },
            "0xdf911661caf12c38ca451d5e76ca111d7dedc922": {
                "nonce": "0x00",
                "balance": "0x2e",
                "code": "0x6000355415600957005b60203560003555",
                "storage": {}
            },
            "0xdf911661caf12c38ca451d5e76ca111d7dedca22": {
                "nonce": "0x00",
                "balance": "0x00",
                "code": "0x7f00000000000000000000000000000000000000000000000000000000000000007ffffffffffffffffffffffffffffffffffffffffffffffffffffffffffffffffe7ffffffffffffffffffffffffffffffffffffffffffffffffffffffffffffffffe7f000000000000000000000000df911661caf12c38ca451d5e76ca111d7dedc922437f000000000000000000000000df911661caf12c38ca451d5e76ca111d7dedc9227fffffffffffffffffffffffffffffffffffffffffffffffffffffffffffffffff7f000000000000000000000000000000000000000000000000000000000000000160005155",
                "storage": {}
            }
        },
        "transaction": {
            "nonce": "0x00",
            "gasPrice": "0x0a",
            "gasLimit": [
                "0x0186a0"
            ],
            "to": "0xdf911661caf12c38ca451d5e76ca111d7dedca22",
            "value": [
                "0x5de12c27"
            ],
            "data": [
                "0x7f00000000000000000000000000000000000000000000000000000000000000007ffffffffffffffffffffffffffffffffffffffffffffffffffffffffffffffffe7ffffffffffffffffffffffffffffffffffffffffffffffffffffffffffffffffe7f000000000000000000000000df911661caf12c38ca451d5e76ca111d7dedc922437f000000000000000000000000df911661caf12c38ca451d5e76ca111d7dedc9227fffffffffffffffffffffffffffffffffffffffffffffffffffffffffffffffff7f0000000000000000000000000000000000000000000000000000000000000001"
            ],
            "sender": "0xf5d0a997d4350ed43c3d3c2d52b2dbf3bd73e08a",
            "secretKey": "0xb6f1d7e1bd7daaab0b30dfd9df911661caf12c38ca451d5e76ca111d7dedc922"
        },
        "post": {
            "Prague": [
                {
                    "hash": "0xcf08d5caf73a511ee3b033e8e83d0b6a8c040dc464337041d7f3bb7e5c0c9ceb",
                    "logs": "0x1dcc4de8dec75d7aab85b567b6ccd41ad312451b948a7413f0a142fd40d49347",
                    "txbytes": "0xf9014d800a830186a094df911661caf12c38ca451d5e76ca111d7dedca22845de12c27b8e87f00000000000000000000000000000000000000000000000000000000000000007ffffffffffffffffffffffffffffffffffffffffffffffffffffffffffffffffe7ffffffffffffffffffffffffffffffffffffffffffffffffffffffffffffffffe7f000000000000000000000000df911661caf12c38ca451d5e76ca111d7dedc922437f000000000000000000000000df911661caf12c38ca451d5e76ca111d7dedc9227fffffffffffffffffffffffffffffffffffffffffffffffffffffffffffffffff7f000000000000000000000000000000000000000000000000000000000000000126a0b712605ffff2aeccff5380d10af06fc63bffd646845acb0e9e9e1d1e6811b634a033e44c278c04032990e668f2ff25a9b869cca5d218be7b0abb83ccaae18ca3bd",
                    "indexes": {
                        "data": 0,
                        "gas": 0,
                        "value": 0
                    },
                    "state": {
                        "0xf5d0a997d4350ed43c3d3c2d52b2dbf3bd73e08a": {
                            "nonce": "0x01",
                            "balance": "0x0de0b6b3497bd6c9",
                            "code": "0x",
                            "storage": {}
                        },
                        "0xdf911661caf12c38ca451d5e76ca111d7dedc922": {
                            "nonce": "0x00",
                            "balance": "0x2e",
                            "code": "0x6000355415600957005b60203560003555",
                            "storage": {}
                        },
                        "0xdf911661caf12c38ca451d5e76ca111d7dedca22": {
                            "nonce": "0x00",
                            "balance": "0x5de12c27",
                            "code": "0x7f00000000000000000000000000000000000000000000000000000000000000007ffffffffffffffffffffffffffffffffffffffffffffffffffffffffffffffffe7ffffffffffffffffffffffffffffffffffffffffffffffffffffffffffffffffe7f000000000000000000000000df911661caf12c38ca451d5e76ca111d7dedc922437f000000000000000000000000df911661caf12c38ca451d5e76ca111d7dedc9227fffffffffffffffffffffffffffffffffffffffffffffffffffffffffffffffff7f000000000000000000000000000000000000000000000000000000000000000160005155",
                            "storage": {
                                "0x00": "0x01"
                            }
                        }
                    }
                }
            ]
        },
        "config": {
            "blobSchedule": {
                "Cancun": {
                    "target": "0x03",
                    "max": "0x06",
                    "baseFeeUpdateFraction": "0x32f0ed"
                },
                "Prague": {
                    "target": "0x06",
                    "max": "0x09",
                    "baseFeeUpdateFraction": "0x4c6964"
                }
            },
            "chainid": "0x01"
        },
        "_info": {
            "hash": "0xa37286f7ee6ee907e082f13a8ecee13902bc95f5ae03a5ccbcbf212bef28bfbf",
            "comment": "`execution-spec-tests` generated test",
            "filling-transition-tool": "ethereum-spec-evm-resolver 0.0.5",
            "description": "No description available - add a docstring to the python test class or function.",
            "url": "",
            "fixture-format": "state_test",
            "eels-resolution": {
                "git-url": "https://github.com/marioevz/execution-specs.git",
                "branch": "forks/bpo1",
                "commit": "3387e5f4aedfe99becfdc39b444d6371e25e0924"
            }
        }
    }
}