{
    "tests/static/state_tests/stRandom2/randomStatetest586Filler.json::randomStatetest586[fork_Cancun-state_test-]": {
        "env": {
            "currentCoinbase": "0xac08358142dc8219546475da77f797fd798a0bfd",
            "currentGasLimit": "0x7fffffffffffffff",
            "currentNumber": "0x01",
            "currentTimestamp": "0x03e8",
            "currentRandom": "0x0000000000000000000000000000000000000000000000000000000000020000",
            "currentDifficulty": "0x00",
            "currentBaseFee": "0x0a",
            "currentExcessBlobGas": "0x00"
        },
        "pre": {
            "0x4fde5aa83a05a8e138bc35446ed986d2d603730a": {
                "nonce": "0x00",
                "balance": "0x0de0b6b3a7640000",
                "code": "0x",
                "storage": {}
            },
            "0xac08358142dc8219546475da77f797fd798a0bfd": {
                "nonce": "0x00",
                "balance": "0x2e",
                "code": "0x6000355415600957005b60203560003555",
                "storage": {}
            },
            "0xac08358142dc8219546475da77f797fd798a0cfd": {
                "nonce": "0x00",
                "balance": "0x00",
                "code": "0x7ffffffffffffffffffffffffffffffffffffffffffffffffffffffffffffffffe7f00000000000000000000000000000000000000000000000000000000000000017f00000000000000000000000000000000000000000000000000000000000000017f00000000000000000000000000000000000000000000000000000000000000017f000000000000000000000000000000000000000000000000000000000000c3507f000000000000000000000000000000000000000000000000000000000000c3507f00000000000000000000000000000000000000000000000000000000000000017f00000000000000000000000000000000000000000000000000000000000000013760005155",
                "storage": {}
            }
        },
        "transaction": {
            "nonce": "0x00",
            "gasPrice": "0x0a",
            "gasLimit": [
                "0x0186a0"
            ],
            "to": "0xac08358142dc8219546475da77f797fd798a0cfd",
            "value": [
                "0x65dc324c"
            ],
            "data": [
                "0x7ffffffffffffffffffffffffffffffffffffffffffffffffffffffffffffffffe7f00000000000000000000000000000000000000000000000000000000000000017f00000000000000000000000000000000000000000000000000000000000000017f00000000000000000000000000000000000000000000000000000000000000017f000000000000000000000000000000000000000000000000000000000000c3507f000000000000000000000000000000000000000000000000000000000000c3507f00000000000000000000000000000000000000000000000000000000000000017f000000000000000000000000000000000000000000000000000000000000000137"
            ],
            "sender": "0x4fde5aa83a05a8e138bc35446ed986d2d603730a",
            "secretKey": "0xdad63cb5d860fbe9342a5dd3ac08358142dc8219546475da77f797fd798a0bfd"
        },
        "post": {
            "Cancun": [
                {
                    "hash": "0x3a0bc4cebd900252ef0e546ffcfb65c6a9697af681d7552dcd0205c74bb1ef31",
                    "logs": "0x1dcc4de8dec75d7aab85b567b6ccd41ad312451b948a7413f0a142fd40d49347",
                    "txbytes": "0xf9016f800a830186a094ac08358142dc8219546475da77f797fd798a0cfd8465dc324cb901097ffffffffffffffffffffffffffffffffffffffffffffffffffffffffffffffffe7f00000000000000000000000000000000000000000000000000000000000000017f00000000000000000000000000000000000000000000000000000000000000017f00000000000000000000000000000000000000000000000000000000000000017f000000000000000000000000000000000000000000000000000000000000c3507f000000000000000000000000000000000000000000000000000000000000c3507f00000000000000000000000000000000000000000000000000000000000000017f00000000000000000000000000000000000000000000000000000000000000013725a0c6506f1b98d768ab364496988e56c44a2cf42d6d2bad7e24868861f7b3eb9d82a0679f2996a9e8c587c39ac92207ebbcf128a75943af47efcb94ebbff682c7e182",
                    "indexes": {
                        "data": 0,
                        "gas": 0,
                        "value": 0
                    },
                    "state": {
                        "0x4fde5aa83a05a8e138bc35446ed986d2d603730a": {
                            "nonce": "0x01",
                            "balance": "0x0de0b6b3417ecf48",
                            "code": "0x",
                            "storage": {}
                        },
                        "0xac08358142dc8219546475da77f797fd798a0bfd": {
                            "nonce": "0x00",
                            "balance": "0x2e",
                            "code": "0x6000355415600957005b60203560003555",
                            "storage": {}
                        },
                        "0xac08358142dc8219546475da77f797fd798a0cfd": {
                            "nonce": "0x00",
                            "balance": "0x65dc324c",
                            "code": "0x7ffffffffffffffffffffffffffffffffffffffffffffffffffffffffffffffffe7f00000000000000000000000000000000000000000000000000000000000000017f00000000000000000000000000000000000000000000000000000000000000017f00000000000000000000000000000000000000000000000000000000000000017f000000000000000000000000000000000000000000000000000000000000c3507f000000000000000000000000000000000000000000000000000000000000c3507f00000000000000000000000000000000000000000000000000000000000000017f00000000000000000000000000000000000000000000000000000000000000013760005155",
                            "storage": {
                                "0xffffffffffffffffffffffffffffffffffffffffffffffffffffffffffffff": "0xc350"
                            }
                        }
                    }
                }
            ]
        },
        "config": {
            "blobSchedule": {
                "Cancun": {
                    "target": "0x03",
                    "max": "0x06",
                    "baseFeeUpdateFraction": "0x32f0ed"
                }
            },
            "chainid": "0x01"
        },
        "_info": {
            "hash": "0x0e805b90f72cefa4bbfa2af89f2fa3ac56022a06d171487938d4f823109f45e0",
            "comment": "`execution-specs` generated test",
            "filling-transition-tool": "2.18.0rc6",
            "description": "No description available - add a docstring to the python test class or function.",
            "url": "",
            "fixture-format": "state_test"
        }
    },
    "tests/static/state_tests/stRandom2/randomStatetest586Filler.json::randomStatetest586[fork_Osaka-state_test-]": {
        "env": {
            "currentCoinbase": "0xac08358142dc8219546475da77f797fd798a0bfd",
            "currentGasLimit": "0x7fffffffffffffff",
            "currentNumber": "0x01",
            "currentTimestamp": "0x03e8",
            "currentRandom": "0x0000000000000000000000000000000000000000000000000000000000020000",
            "currentDifficulty": "0x00",
            "currentBaseFee": "0x0a",
            "currentExcessBlobGas": "0x00"
        },
        "pre": {
            "0x4fde5aa83a05a8e138bc35446ed986d2d603730a": {
                "nonce": "0x00",
                "balance": "0x0de0b6b3a7640000",
                "code": "0x",
                "storage": {}
            },
            "0xac08358142dc8219546475da77f797fd798a0bfd": {
                "nonce": "0x00",
                "balance": "0x2e",
                "code": "0x6000355415600957005b60203560003555",
                "storage": {}
            },
            "0xac08358142dc8219546475da77f797fd798a0cfd": {
                "nonce": "0x00",
                "balance": "0x00",
                "code": "0x7ffffffffffffffffffffffffffffffffffffffffffffffffffffffffffffffffe7f00000000000000000000000000000000000000000000000000000000000000017f00000000000000000000000000000000000000000000000000000000000000017f00000000000000000000000000000000000000000000000000000000000000017f000000000000000000000000000000000000000000000000000000000000c3507f000000000000000000000000000000000000000000000000000000000000c3507f00000000000000000000000000000000000000000000000000000000000000017f00000000000000000000000000000000000000000000000000000000000000013760005155",
                "storage": {}
            }
        },
        "transaction": {
            "nonce": "0x00",
            "gasPrice": "0x0a",
            "gasLimit": [
                "0x0186a0"
            ],
            "to": "0xac08358142dc8219546475da77f797fd798a0cfd",
            "value": [
                "0x65dc324c"
            ],
            "data": [
                "0x7ffffffffffffffffffffffffffffffffffffffffffffffffffffffffffffffffe7f00000000000000000000000000000000000000000000000000000000000000017f00000000000000000000000000000000000000000000000000000000000000017f00000000000000000000000000000000000000000000000000000000000000017f000000000000000000000000000000000000000000000000000000000000c3507f000000000000000000000000000000000000000000000000000000000000c3507f00000000000000000000000000000000000000000000000000000000000000017f000000000000000000000000000000000000000000000000000000000000000137"
            ],
            "sender": "0x4fde5aa83a05a8e138bc35446ed986d2d603730a",
            "secretKey": "0xdad63cb5d860fbe9342a5dd3ac08358142dc8219546475da77f797fd798a0bfd"
        },
        "post": {
            "Osaka": [
                {
                    "hash": "0x3a0bc4cebd900252ef0e546ffcfb65c6a9697af681d7552dcd0205c74bb1ef31",
                    "logs": "0x1dcc4de8dec75d7aab85b567b6ccd41ad312451b948a7413f0a142fd40d49347",
                    "txbytes": "0xf9016f800a830186a094ac08358142dc8219546475da77f797fd798a0cfd8465dc324cb901097ffffffffffffffffffffffffffffffffffffffffffffffffffffffffffffffffe7f00000000000000000000000000000000000000000000000000000000000000017f00000000000000000000000000000000000000000000000000000000000000017f00000000000000000000000000000000000000000000000000000000000000017f000000000000000000000000000000000000000000000000000000000000c3507f000000000000000000000000000000000000000000000000000000000000c3507f00000000000000000000000000000000000000000000000000000000000000017f00000000000000000000000000000000000000000000000000000000000000013725a0c6506f1b98d768ab364496988e56c44a2cf42d6d2bad7e24868861f7b3eb9d82a0679f2996a9e8c587c39ac92207ebbcf128a75943af47efcb94ebbff682c7e182",
                    "indexes": {
                        "data": 0,
                        "gas": 0,
                        "value": 0
                    },
                    "state": {
                        "0x4fde5aa83a05a8e138bc35446ed986d2d603730a": {
                            "nonce": "0x01",
                            "balance": "0x0de0b6b3417ecf48",
                            "code": "0x",
                            "storage": {}
                        },
                        "0xac08358142dc8219546475da77f797fd798a0bfd": {
                            "nonce": "0x00",
                            "balance": "0x2e",
                            "code": "0x6000355415600957005b60203560003555",
                            "storage": {}
                        },
                        "0xac08358142dc8219546475da77f797fd798a0cfd": {
                            "nonce": "0x00",
                            "balance": "0x65dc324c",
                            "code": "0x7ffffffffffffffffffffffffffffffffffffffffffffffffffffffffffffffffe7f00000000000000000000000000000000000000000000000000000000000000017f00000000000000000000000000000000000000000000000000000000000000017f00000000000000000000000000000000000000000000000000000000000000017f000000000000000000000000000000000000000000000000000000000000c3507f000000000000000000000000000000000000000000000000000000000000c3507f00000000000000000000000000000000000000000000000000000000000000017f00000000000000000000000000000000000000000000000000000000000000013760005155",
                            "storage": {
                                "0xffffffffffffffffffffffffffffffffffffffffffffffffffffffffffffff": "0xc350"
                            }
                        }
                    }
                }
            ]
        },
        "config": {
            "blobSchedule": {
                "Cancun": {
                    "target": "0x03",
                    "max": "0x06",
                    "baseFeeUpdateFraction": "0x32f0ed"
                },
                "Prague": {
                    "target": "0x06",
                    "max": "0x09",
                    "baseFeeUpdateFraction": "0x4c6964"
                },
                "Osaka": {
                    "target": "0x06",
                    "max": "0x09",
                    "baseFeeUpdateFraction": "0x4c6964"
                }
            },
            "chainid": "0x01"
        },
        "_info": {
            "hash": "0xe3d0247a921da21df2d96643753a5e7fe63ae284861c7bd8e61f218a1ed8e4be",
            "comment": "`execution-specs` generated test",
            "filling-transition-tool": "2.18.0rc6",
            "description": "No description available - add a docstring to the python test class or function.",
            "url": "",
            "fixture-format": "state_test"
        }
    },
    "tests/static/state_tests/stRandom2/randomStatetest586Filler.json::randomStatetest586[fork_Prague-state_test-]": {
        "env": {
            "currentCoinbase": "0xac08358142dc8219546475da77f797fd798a0bfd",
            "currentGasLimit": "0x7fffffffffffffff",
            "currentNumber": "0x01",
            "currentTimestamp": "0x03e8",
            "currentRandom": "0x0000000000000000000000000000000000000000000000000000000000020000",
            "currentDifficulty": "0x00",
            "currentBaseFee": "0x0a",
            "currentExcessBlobGas": "0x00"
        },
        "pre": {
            "0x4fde5aa83a05a8e138bc35446ed986d2d603730a": {
                "nonce": "0x00",
                "balance": "0x0de0b6b3a7640000",
                "code": "0x",
                "storage": {}
            },
            "0xac08358142dc8219546475da77f797fd798a0bfd": {
                "nonce": "0x00",
                "balance": "0x2e",
                "code": "0x6000355415600957005b60203560003555",
                "storage": {}
            },
            "0xac08358142dc8219546475da77f797fd798a0cfd": {
                "nonce": "0x00",
                "balance": "0x00",
                "code": "0x7ffffffffffffffffffffffffffffffffffffffffffffffffffffffffffffffffe7f00000000000000000000000000000000000000000000000000000000000000017f00000000000000000000000000000000000000000000000000000000000000017f00000000000000000000000000000000000000000000000000000000000000017f000000000000000000000000000000000000000000000000000000000000c3507f000000000000000000000000000000000000000000000000000000000000c3507f00000000000000000000000000000000000000000000000000000000000000017f00000000000000000000000000000000000000000000000000000000000000013760005155",
                "storage": {}
            }
        },
        "transaction": {
            "nonce": "0x00",
            "gasPrice": "0x0a",
            "gasLimit": [
                "0x0186a0"
            ],
            "to": "0xac08358142dc8219546475da77f797fd798a0cfd",
            "value": [
                "0x65dc324c"
            ],
            "data": [
                "0x7ffffffffffffffffffffffffffffffffffffffffffffffffffffffffffffffffe7f00000000000000000000000000000000000000000000000000000000000000017f00000000000000000000000000000000000000000000000000000000000000017f00000000000000000000000000000000000000000000000000000000000000017f000000000000000000000000000000000000000000000000000000000000c3507f000000000000000000000000000000000000000000000000000000000000c3507f00000000000000000000000000000000000000000000000000000000000000017f000000000000000000000000000000000000000000000000000000000000000137"
            ],
            "sender": "0x4fde5aa83a05a8e138bc35446ed986d2d603730a",
            "secretKey": "0xdad63cb5d860fbe9342a5dd3ac08358142dc8219546475da77f797fd798a0bfd"
        },
        "post": {
            "Prague": [
                {
                    "hash": "0x3a0bc4cebd900252ef0e546ffcfb65c6a9697af681d7552dcd0205c74bb1ef31",
                    "logs": "0x1dcc4de8dec75d7aab85b567b6ccd41ad312451b948a7413f0a142fd40d49347",
                    "txbytes": "0xf9016f800a830186a094ac08358142dc8219546475da77f797fd798a0cfd8465dc324cb901097ffffffffffffffffffffffffffffffffffffffffffffffffffffffffffffffffe7f00000000000000000000000000000000000000000000000000000000000000017f00000000000000000000000000000000000000000000000000000000000000017f00000000000000000000000000000000000000000000000000000000000000017f000000000000000000000000000000000000000000000000000000000000c3507f000000000000000000000000000000000000000000000000000000000000c3507f00000000000000000000000000000000000000000000000000000000000000017f00000000000000000000000000000000000000000000000000000000000000013725a0c6506f1b98d768ab364496988e56c44a2cf42d6d2bad7e24868861f7b3eb9d82a0679f2996a9e8c587c39ac92207ebbcf128a75943af47efcb94ebbff682c7e182",
                    "indexes": {
                        "data": 0,
                        "gas": 0,
                        "value": 0
                    },
                    "state": {
                        "0x4fde5aa83a05a8e138bc35446ed986d2d603730a": {
                            "nonce": "0x01",
                            "balance": "0x0de0b6b3417ecf48",
                            "code": "0x",
                            "storage": {}
                        },
                        "0xac08358142dc8219546475da77f797fd798a0bfd": {
                            "nonce": "0x00",
                            "balance": "0x2e",
                            "code": "0x6000355415600957005b60203560003555",
                            "storage": {}
                        },
                        "0xac08358142dc8219546475da77f797fd798a0cfd": {
                            "nonce": "0x00",
                            "balance": "0x65dc324c",
                            "code": "0x7ffffffffffffffffffffffffffffffffffffffffffffffffffffffffffffffffe7f00000000000000000000000000000000000000000000000000000000000000017f00000000000000000000000000000000000000000000000000000000000000017f00000000000000000000000000000000000000000000000000000000000000017f000000000000000000000000000000000000000000000000000000000000c3507f000000000000000000000000000000000000000000000000000000000000c3507f00000000000000000000000000000000000000000000000000000000000000017f00000000000000000000000000000000000000000000000000000000000000013760005155",
                            "storage": {
                                "0xffffffffffffffffffffffffffffffffffffffffffffffffffffffffffffff": "0xc350"
                            }
                        }
                    }
                }
            ]
        },
        "config": {
            "blobSchedule": {
                "Cancun": {
                    "target": "0x03",
                    "max": "0x06",
                    "baseFeeUpdateFraction": "0x32f0ed"
                },
                "Prague": {
                    "target": "0x06",
                    "max": "0x09",
                    "baseFeeUpdateFraction": "0x4c6964"
                }
            },
            "chainid": "0x01"
        },
        "_info": {
            "hash": "0xa21b58b4951b308d208fe428ba03631ad53655a22c817044965963342ca901c1",
            "comment": "`execution-specs` generated test",
            "filling-transition-tool": "2.18.0rc6",
            "description": "No description available - add a docstring to the python test class or function.",
            "url": "",
            "fixture-format": "state_test"
        }
    }
}