{
    "tests/static/state_tests/stRandom2/randomStatetest528Filler.json::randomStatetest528[fork_Cancun-state_test-]": {
        "env": {
            "currentCoinbase": "0x8ae77daaf834e0d3da436793eca9eb4bb33d1afb",
            "currentGasLimit": "0x7fffffffffffffff",
            "currentNumber": "0x01",
            "currentTimestamp": "0x03e8",
            "currentRandom": "0x0000000000000000000000000000000000000000000000000000000000020000",
            "currentDifficulty": "0x00",
            "currentBaseFee": "0x0a",
            "currentExcessBlobGas": "0x00"
        },
        "pre": {
            "0x20d531bc2a8e1830b547155ed6d5b37f8d34a6d1": {
                "nonce": "0x00",
                "balance": "0x0de0b6b3a7640000",
                "code": "0x",
                "storage": {}
            },
            "0x8ae77daaf834e0d3da436793eca9eb4bb33d1afb": {
                "nonce": "0x00",
                "balance": "0x2e",
                "code": "0x6000355415600957005b60203560003555",
                "storage": {}
            },
            "0x8ae77daaf834e0d3da436793eca9eb4bb33d1bfb": {
                "nonce": "0x00",
                "balance": "0x00",
                "code": "0x457f000000000000000000000000000000000000000000000000000000000000c350397ffffffffffffffffffffffffffffffffffffffffffffffffffffffffffffffffe7f00000000000000000000000000000000000000000000000000000000000000007fffffffffffffffffffffffffffffffffffffffffffffffffffffffffffffffff7fffffffffffffffffffffffffffffffffffffffffffffffffffffffffffffffff7fffffffffffffffffffffffffffffffffffffffffffffffffffffffffffffffff0a9d30390b8c858455",
                "storage": {}
            }
        },
        "transaction": {
            "nonce": "0x00",
            "gasPrice": "0x0a",
            "gasLimit": [
                "0x0186a0"
            ],
            "to": "0x8ae77daaf834e0d3da436793eca9eb4bb33d1bfb",
            "value": [
                "0x1fc3b22e"
            ],
            "data": [
                "0x457f000000000000000000000000000000000000000000000000000000000000c350397ffffffffffffffffffffffffffffffffffffffffffffffffffffffffffffffffe7f00000000000000000000000000000000000000000000000000000000000000007fffffffffffffffffffffffffffffffffffffffffffffffffffffffffffffffff7fffffffffffffffffffffffffffffffffffffffffffffffffffffffffffffffff7fffffffffffffffffffffffffffffffffffffffffffffffffffffffffffffffff0a9d30390b8c8584"
            ],
            "sender": "0x20d531bc2a8e1830b547155ed6d5b37f8d34a6d1",
            "secretKey": "0x2ec6c2bb5ecdd953526af57c8ae77daaf834e0d3da436793eca9eb4bb33d1afb"
        },
        "post": {
            "Cancun": [
                {
                    "hash": "0x93ff31fb6abbafd94297b0226dd609904fe80a6d7b588a3ccc68dd61fc7068a1",
                    "logs": "0x1dcc4de8dec75d7aab85b567b6ccd41ad312451b948a7413f0a142fd40d49347",
                    "txbytes": "0xf90135800a830186a0948ae77daaf834e0d3da436793eca9eb4bb33d1bfb841fc3b22eb8d0457f000000000000000000000000000000000000000000000000000000000000c350397ffffffffffffffffffffffffffffffffffffffffffffffffffffffffffffffffe7f00000000000000000000000000000000000000000000000000000000000000007fffffffffffffffffffffffffffffffffffffffffffffffffffffffffffffffff7fffffffffffffffffffffffffffffffffffffffffffffffffffffffffffffffff7fffffffffffffffffffffffffffffffffffffffffffffffffffffffffffffffff0a9d30390b8c858426a049aa29027c2c8f0af41193f97b1f730f80467466f6af08b27d6927263c7e728ea01fc8a3b99e3c75a9d7381e9365f8e04c1e9e01b3ce154a8fb309b0e37a0862e5",
                    "indexes": {
                        "data": 0,
                        "gas": 0,
                        "value": 0
                    },
                    "state": {
                        "0x20d531bc2a8e1830b547155ed6d5b37f8d34a6d1": {
                            "nonce": "0x01",
                            "balance": "0x0de0b6b3a754bdc0",
                            "code": "0x",
                            "storage": {}
                        },
                        "0x8ae77daaf834e0d3da436793eca9eb4bb33d1afb": {
                            "nonce": "0x00",
                            "balance": "0x2e",
                            "code": "0x6000355415600957005b60203560003555",
                            "storage": {}
                        },
                        "0x8ae77daaf834e0d3da436793eca9eb4bb33d1bfb": {
                            "nonce": "0x00",
                            "balance": "0x00",
                            "code": "0x457f000000000000000000000000000000000000000000000000000000000000c350397ffffffffffffffffffffffffffffffffffffffffffffffffffffffffffffffffe7f00000000000000000000000000000000000000000000000000000000000000007fffffffffffffffffffffffffffffffffffffffffffffffffffffffffffffffff7fffffffffffffffffffffffffffffffffffffffffffffffffffffffffffffffff7fffffffffffffffffffffffffffffffffffffffffffffffffffffffffffffffff0a9d30390b8c858455",
                            "storage": {}
                        }
                    }
                }
            ]
        },
        "config": {
            "blobSchedule": {
                "Cancun": {
                    "target": "0x03",
                    "max": "0x06",
                    "baseFeeUpdateFraction": "0x32f0ed"
                }
            },
            "chainid": "0x01"
        },
        "_info": {
            "hash": "0x4888593dd3827daa26d838da4230ace75637ea9e95bb1ae19213d696b30cfa6e",
            "comment": "`execution-specs` generated test",
            "filling-transition-tool": "2.18.0rc6",
            "description": "No description available - add a docstring to the python test class or function.",
            "url": "",
            "fixture-format": "state_test"
        }
    },
    "tests/static/state_tests/stRandom2/randomStatetest528Filler.json::randomStatetest528[fork_Osaka-state_test-]": {
        "env": {
            "currentCoinbase": "0x8ae77daaf834e0d3da436793eca9eb4bb33d1afb",
            "currentGasLimit": "0x7fffffffffffffff",
            "currentNumber": "0x01",
            "currentTimestamp": "0x03e8",
            "currentRandom": "0x0000000000000000000000000000000000000000000000000000000000020000",
            "currentDifficulty": "0x00",
            "currentBaseFee": "0x0a",
            "currentExcessBlobGas": "0x00"
        },
        "pre": {
            "0x20d531bc2a8e1830b547155ed6d5b37f8d34a6d1": {
                "nonce": "0x00",
                "balance": "0x0de0b6b3a7640000",
                "code": "0x",
                "storage": {}
            },
            "0x8ae77daaf834e0d3da436793eca9eb4bb33d1afb": {
                "nonce": "0x00",
                "balance": "0x2e",
                "code": "0x6000355415600957005b60203560003555",
                "storage": {}
            },
            "0x8ae77daaf834e0d3da436793eca9eb4bb33d1bfb": {
                "nonce": "0x00",
                "balance": "0x00",
                "code": "0x457f000000000000000000000000000000000000000000000000000000000000c350397ffffffffffffffffffffffffffffffffffffffffffffffffffffffffffffffffe7f00000000000000000000000000000000000000000000000000000000000000007fffffffffffffffffffffffffffffffffffffffffffffffffffffffffffffffff7fffffffffffffffffffffffffffffffffffffffffffffffffffffffffffffffff7fffffffffffffffffffffffffffffffffffffffffffffffffffffffffffffffff0a9d30390b8c858455",
                "storage": {}
            }
        },
        "transaction": {
            "nonce": "0x00",
            "gasPrice": "0x0a",
            "gasLimit": [
                "0x0186a0"
            ],
            "to": "0x8ae77daaf834e0d3da436793eca9eb4bb33d1bfb",
            "value": [
                "0x1fc3b22e"
            ],
            "data": [
                "0x457f000000000000000000000000000000000000000000000000000000000000c350397ffffffffffffffffffffffffffffffffffffffffffffffffffffffffffffffffe7f00000000000000000000000000000000000000000000000000000000000000007fffffffffffffffffffffffffffffffffffffffffffffffffffffffffffffffff7fffffffffffffffffffffffffffffffffffffffffffffffffffffffffffffffff7fffffffffffffffffffffffffffffffffffffffffffffffffffffffffffffffff0a9d30390b8c8584"
            ],
            "sender": "0x20d531bc2a8e1830b547155ed6d5b37f8d34a6d1",
            "secretKey": "0x2ec6c2bb5ecdd953526af57c8ae77daaf834e0d3da436793eca9eb4bb33d1afb"
        },
        "post": {
            "Osaka": [
                {
                    "hash": "0x93ff31fb6abbafd94297b0226dd609904fe80a6d7b588a3ccc68dd61fc7068a1",
                    "logs": "0x1dcc4de8dec75d7aab85b567b6ccd41ad312451b948a7413f0a142fd40d49347",
                    "txbytes": "0xf90135800a830186a0948ae77daaf834e0d3da436793eca9eb4bb33d1bfb841fc3b22eb8d0457f000000000000000000000000000000000000000000000000000000000000c350397ffffffffffffffffffffffffffffffffffffffffffffffffffffffffffffffffe7f00000000000000000000000000000000000000000000000000000000000000007fffffffffffffffffffffffffffffffffffffffffffffffffffffffffffffffff7fffffffffffffffffffffffffffffffffffffffffffffffffffffffffffffffff7fffffffffffffffffffffffffffffffffffffffffffffffffffffffffffffffff0a9d30390b8c858426a049aa29027c2c8f0af41193f97b1f730f80467466f6af08b27d6927263c7e728ea01fc8a3b99e3c75a9d7381e9365f8e04c1e9e01b3ce154a8fb309b0e37a0862e5",
                    "indexes": {
                        "data": 0,
                        "gas": 0,
                        "value": 0
                    },
                    "state": {
                        "0x20d531bc2a8e1830b547155ed6d5b37f8d34a6d1": {
                            "nonce": "0x01",
                            "balance": "0x0de0b6b3a754bdc0",
                            "code": "0x",
                            "storage": {}
                        },
                        "0x8ae77daaf834e0d3da436793eca9eb4bb33d1afb": {
                            "nonce": "0x00",
                            "balance": "0x2e",
                            "code": "0x6000355415600957005b60203560003555",
                            "storage": {}
                        },
                        "0x8ae77daaf834e0d3da436793eca9eb4bb33d1bfb": {
                            "nonce": "0x00",
                            "balance": "0x00",
                            "code": "0x457f000000000000000000000000000000000000000000000000000000000000c350397ffffffffffffffffffffffffffffffffffffffffffffffffffffffffffffffffe7f00000000000000000000000000000000000000000000000000000000000000007fffffffffffffffffffffffffffffffffffffffffffffffffffffffffffffffff7fffffffffffffffffffffffffffffffffffffffffffffffffffffffffffffffff7fffffffffffffffffffffffffffffffffffffffffffffffffffffffffffffffff0a9d30390b8c858455",
                            "storage": {}
                        }
                    }
                }
            ]
        },
        "config": {
            "blobSchedule": {
                "Cancun": {
                    "target": "0x03",
                    "max": "0x06",
                    "baseFeeUpdateFraction": "0x32f0ed"
                },
                "Prague": {
                    "target": "0x06",
                    "max": "0x09",
                    "baseFeeUpdateFraction": "0x4c6964"
                },
                "Osaka": {
                    "target": "0x06",
                    "max": "0x09",
                    "baseFeeUpdateFraction": "0x4c6964"
                }
            },
            "chainid": "0x01"
        },
        "_info": {
            "hash": "0xad759d3035c3b31a609da83f92f426e7d73e611ca0665e8f299f5b241eb78c50",
            "comment": "`execution-specs` generated test",
            "filling-transition-tool": "2.18.0rc6",
            "description": "No description available - add a docstring to the python test class or function.",
            "url": "",
            "fixture-format": "state_test"
        }
    },
    "tests/static/state_tests/stRandom2/randomStatetest528Filler.json::randomStatetest528[fork_Prague-state_test-]": {
        "env": {
            "currentCoinbase": "0x8ae77daaf834e0d3da436793eca9eb4bb33d1afb",
            "currentGasLimit": "0x7fffffffffffffff",
            "currentNumber": "0x01",
            "currentTimestamp": "0x03e8",
            "currentRandom": "0x0000000000000000000000000000000000000000000000000000000000020000",
            "currentDifficulty": "0x00",
            "currentBaseFee": "0x0a",
            "currentExcessBlobGas": "0x00"
        },
        "pre": {
            "0x20d531bc2a8e1830b547155ed6d5b37f8d34a6d1": {
                "nonce": "0x00",
                "balance": "0x0de0b6b3a7640000",
                "code": "0x",
                "storage": {}
            },
            "0x8ae77daaf834e0d3da436793eca9eb4bb33d1afb": {
                "nonce": "0x00",
                "balance": "0x2e",
                "code": "0x6000355415600957005b60203560003555",
                "storage": {}
            },
            "0x8ae77daaf834e0d3da436793eca9eb4bb33d1bfb": {
                "nonce": "0x00",
                "balance": "0x00",
                "code": "0x457f000000000000000000000000000000000000000000000000000000000000c350397ffffffffffffffffffffffffffffffffffffffffffffffffffffffffffffffffe7f00000000000000000000000000000000000000000000000000000000000000007fffffffffffffffffffffffffffffffffffffffffffffffffffffffffffffffff7fffffffffffffffffffffffffffffffffffffffffffffffffffffffffffffffff7fffffffffffffffffffffffffffffffffffffffffffffffffffffffffffffffff0a9d30390b8c858455",
                "storage": {}
            }
        },
        "transaction": {
            "nonce": "0x00",
            "gasPrice": "0x0a",
            "gasLimit": [
                "0x0186a0"
            ],
            "to": "0x8ae77daaf834e0d3da436793eca9eb4bb33d1bfb",
            "value": [
                "0x1fc3b22e"
            ],
            "data": [
                "0x457f000000000000000000000000000000000000000000000000000000000000c350397ffffffffffffffffffffffffffffffffffffffffffffffffffffffffffffffffe7f00000000000000000000000000000000000000000000000000000000000000007fffffffffffffffffffffffffffffffffffffffffffffffffffffffffffffffff7fffffffffffffffffffffffffffffffffffffffffffffffffffffffffffffffff7fffffffffffffffffffffffffffffffffffffffffffffffffffffffffffffffff0a9d30390b8c8584"
            ],
            "sender": "0x20d531bc2a8e1830b547155ed6d5b37f8d34a6d1",
            "secretKey": "0x2ec6c2bb5ecdd953526af57c8ae77daaf834e0d3da436793eca9eb4bb33d1afb"
        },
        "post": {
            "Prague": [
                {
                    "hash": "0x93ff31fb6abbafd94297b0226dd609904fe80a6d7b588a3ccc68dd61fc7068a1",
                    "logs": "0x1dcc4de8dec75d7aab85b567b6ccd41ad312451b948a7413f0a142fd40d49347",
                    "txbytes": "0xf90135800a830186a0948ae77daaf834e0d3da436793eca9eb4bb33d1bfb841fc3b22eb8d0457f000000000000000000000000000000000000000000000000000000000000c350397ffffffffffffffffffffffffffffffffffffffffffffffffffffffffffffffffe7f00000000000000000000000000000000000000000000000000000000000000007fffffffffffffffffffffffffffffffffffffffffffffffffffffffffffffffff7fffffffffffffffffffffffffffffffffffffffffffffffffffffffffffffffff7fffffffffffffffffffffffffffffffffffffffffffffffffffffffffffffffff0a9d30390b8c858426a049aa29027c2c8f0af41193f97b1f730f80467466f6af08b27d6927263c7e728ea01fc8a3b99e3c75a9d7381e9365f8e04c1e9e01b3ce154a8fb309b0e37a0862e5",
                    "indexes": {
                        "data": 0,
                        "gas": 0,
                        "value": 0
                    },
                    "state": {
                        "0x20d531bc2a8e1830b547155ed6d5b37f8d34a6d1": {
                            "nonce": "0x01",
                            "balance": "0x0de0b6b3a754bdc0",
                            "code": "0x",
                            "storage": {}
                        },
                        "0x8ae77daaf834e0d3da436793eca9eb4bb33d1afb": {
                            "nonce": "0x00",
                            "balance": "0x2e",
                            "code": "0x6000355415600957005b60203560003555",
                            "storage": {}
                        },
                        "0x8ae77daaf834e0d3da436793eca9eb4bb33d1bfb": {
                            "nonce": "0x00",
                            "balance": "0x00",
                            "code": "0x457f000000000000000000000000000000000000000000000000000000000000c350397ffffffffffffffffffffffffffffffffffffffffffffffffffffffffffffffffe7f00000000000000000000000000000000000000000000000000000000000000007fffffffffffffffffffffffffffffffffffffffffffffffffffffffffffffffff7fffffffffffffffffffffffffffffffffffffffffffffffffffffffffffffffff7fffffffffffffffffffffffffffffffffffffffffffffffffffffffffffffffff0a9d30390b8c858455",
                            "storage": {}
                        }
                    }
                }
            ]
        },
        "config": {
            "blobSchedule": {
                "Cancun": {
                    "target": "0x03",
                    "max": "0x06",
                    "baseFeeUpdateFraction": "0x32f0ed"
                },
                "Prague": {
                    "target": "0x06",
                    "max": "0x09",
                    "baseFeeUpdateFraction": "0x4c6964"
                }
            },
            "chainid": "0x01"
        },
        "_info": {
            "hash": "0xefa25351b778f58a0333e85e93a6e265934794477298ca86ade38378357e2a05",
            "comment": "`execution-specs` generated test",
            "filling-transition-tool": "2.18.0rc6",
            "description": "No description available - add a docstring to the python test class or function.",
            "url": "",
            "fixture-format": "state_test"
        }
    }
}