{
    "tests/static/state_tests/stRandom2/randomStatetest518Filler.json::randomStatetest518[fork_Cancun-state_test-]": {
        "env": {
            "currentCoinbase": "0x36753c56cd3dd2e8e1a96e089330973ccdc1abcb",
            "currentGasLimit": "0x7fffffffffffffff",
            "currentNumber": "0x01",
            "currentTimestamp": "0x03e8",
            "currentRandom": "0x0000000000000000000000000000000000000000000000000000000000020000",
            "currentDifficulty": "0x00",
            "currentBaseFee": "0x0a",
            "currentExcessBlobGas": "0x00"
        },
        "pre": {
            "0xcce93bdb4b4d5b63e987c4bdb6ff9b28ead93e02": {
                "nonce": "0x00",
                "balance": "0x0de0b6b3a7640000",
                "code": "0x",
                "storage": {}
            },
            "0x36753c56cd3dd2e8e1a96e089330973ccdc1abcb": {
                "nonce": "0x00",
                "balance": "0x2e",
                "code": "0x6000355415600957005b60203560003555",
                "storage": {}
            },
            "0x36753c56cd3dd2e8e1a96e089330973ccdc1accb": {
                "nonce": "0x00",
                "balance": "0x00",
                "code": "0x7ffffffffffffffffffffffffffffffffffffffffffffffffffffffffffffffffe7f00000000000000000000000000000000000000000000000000000000000000007f000000000000000000000000000000000000000000000000000000000000c3507f000000000000000000000000ffffffffffffffffffffffffffffffffffffffff7f00000000000000000000000100000000000000000000000000000000000000007f000000000000000000000000000000000000000000000000000000000000c3507f00000000000000000000000036753c56cd3dd2e8e1a96e089330973ccdc1abcb7f000000000000000000000000ffffffffffffffffffffffffffffffffffffffff6f3c589f416d947a5134f268515b6c925560005155",
                "storage": {}
            }
        },
        "transaction": {
            "nonce": "0x00",
            "gasPrice": "0x0a",
            "gasLimit": [
                "0x0186a0"
            ],
            "to": "0x36753c56cd3dd2e8e1a96e089330973ccdc1accb",
            "value": [
                "0x415cb1c9"
            ],
            "data": [
                "0x7ffffffffffffffffffffffffffffffffffffffffffffffffffffffffffffffffe7f00000000000000000000000000000000000000000000000000000000000000007f000000000000000000000000000000000000000000000000000000000000c3507f000000000000000000000000ffffffffffffffffffffffffffffffffffffffff7f00000000000000000000000100000000000000000000000000000000000000007f000000000000000000000000000000000000000000000000000000000000c3507f00000000000000000000000036753c56cd3dd2e8e1a96e089330973ccdc1abcb7f000000000000000000000000ffffffffffffffffffffffffffffffffffffffff6f3c589f416d947a5134f268515b6c92"
            ],
            "sender": "0xcce93bdb4b4d5b63e987c4bdb6ff9b28ead93e02",
            "secretKey": "0x51ca4377c2040a964a7775da36753c56cd3dd2e8e1a96e089330973ccdc1abcb"
        },
        "post": {
            "Cancun": [
                {
                    "hash": "0x93d9e9ab47f5a5ebc9d7bab5fdfb3fc513f206516b6eb3c589e7e18f65c18338",
                    "logs": "0x1dcc4de8dec75d7aab85b567b6ccd41ad312451b948a7413f0a142fd40d49347",
                    "txbytes": "0xf9017e800a830186a09436753c56cd3dd2e8e1a96e089330973ccdc1accb84415cb1c9b901187ffffffffffffffffffffffffffffffffffffffffffffffffffffffffffffffffe7f00000000000000000000000000000000000000000000000000000000000000007f000000000000000000000000000000000000000000000000000000000000c3507f000000000000000000000000ffffffffffffffffffffffffffffffffffffffff7f00000000000000000000000100000000000000000000000000000000000000007f000000000000000000000000000000000000000000000000000000000000c3507f00000000000000000000000036753c56cd3dd2e8e1a96e089330973ccdc1abcb7f000000000000000000000000ffffffffffffffffffffffffffffffffffffffff6f3c589f416d947a5134f268515b6c9225a046d96373730f32d54da1c133658ae31a253a3996e60f493343b3b9f1a9282f11a075e35357d658e99b043b0ab6d53b75083b4d20eb6f7e26a809e8b77ceca6b512",
                    "indexes": {
                        "data": 0,
                        "gas": 0,
                        "value": 0
                    },
                    "state": {
                        "0xcce93bdb4b4d5b63e987c4bdb6ff9b28ead93e02": {
                            "nonce": "0x01",
                            "balance": "0x0de0b6b3660054bf",
                            "code": "0x",
                            "storage": {}
                        },
                        "0x36753c56cd3dd2e8e1a96e089330973ccdc1abcb": {
                            "nonce": "0x00",
                            "balance": "0x2e",
                            "code": "0x6000355415600957005b60203560003555",
                            "storage": {}
                        },
                        "0x36753c56cd3dd2e8e1a96e089330973ccdc1accb": {
                            "nonce": "0x00",
                            "balance": "0x415cb1c9",
                            "code": "0x7ffffffffffffffffffffffffffffffffffffffffffffffffffffffffffffffffe7f00000000000000000000000000000000000000000000000000000000000000007f000000000000000000000000000000000000000000000000000000000000c3507f000000000000000000000000ffffffffffffffffffffffffffffffffffffffff7f00000000000000000000000100000000000000000000000000000000000000007f000000000000000000000000000000000000000000000000000000000000c3507f00000000000000000000000036753c56cd3dd2e8e1a96e089330973ccdc1abcb7f000000000000000000000000ffffffffffffffffffffffffffffffffffffffff6f3c589f416d947a5134f268515b6c925560005155",
                            "storage": {
                                "0x00": "0x3c589f416d947a5134f268515b6c9255"
                            }
                        }
                    }
                }
            ]
        },
        "config": {
            "blobSchedule": {
                "Cancun": {
                    "target": "0x03",
                    "max": "0x06",
                    "baseFeeUpdateFraction": "0x32f0ed"
                }
            },
            "chainid": "0x01"
        },
        "_info": {
            "hash": "0x603abcd26b9e49054d896663358d579b7cd0fcf9e81257f8d5a673590cf84bb9",
            "comment": "`execution-specs` generated test",
            "filling-transition-tool": "2.18.0rc6",
            "description": "No description available - add a docstring to the python test class or function.",
            "url": "",
            "fixture-format": "state_test"
        }
    },
    "tests/static/state_tests/stRandom2/randomStatetest518Filler.json::randomStatetest518[fork_Osaka-state_test-]": {
        "env": {
            "currentCoinbase": "0x36753c56cd3dd2e8e1a96e089330973ccdc1abcb",
            "currentGasLimit": "0x7fffffffffffffff",
            "currentNumber": "0x01",
            "currentTimestamp": "0x03e8",
            "currentRandom": "0x0000000000000000000000000000000000000000000000000000000000020000",
            "currentDifficulty": "0x00",
            "currentBaseFee": "0x0a",
            "currentExcessBlobGas": "0x00"
        },
        "pre": {
            "0xcce93bdb4b4d5b63e987c4bdb6ff9b28ead93e02": {
                "nonce": "0x00",
                "balance": "0x0de0b6b3a7640000",
                "code": "0x",
                "storage": {}
            },
            "0x36753c56cd3dd2e8e1a96e089330973ccdc1abcb": {
                "nonce": "0x00",
                "balance": "0x2e",
                "code": "0x6000355415600957005b60203560003555",
                "storage": {}
            },
            "0x36753c56cd3dd2e8e1a96e089330973ccdc1accb": {
                "nonce": "0x00",
                "balance": "0x00",
                "code": "0x7ffffffffffffffffffffffffffffffffffffffffffffffffffffffffffffffffe7f00000000000000000000000000000000000000000000000000000000000000007f000000000000000000000000000000000000000000000000000000000000c3507f000000000000000000000000ffffffffffffffffffffffffffffffffffffffff7f00000000000000000000000100000000000000000000000000000000000000007f000000000000000000000000000000000000000000000000000000000000c3507f00000000000000000000000036753c56cd3dd2e8e1a96e089330973ccdc1abcb7f000000000000000000000000ffffffffffffffffffffffffffffffffffffffff6f3c589f416d947a5134f268515b6c925560005155",
                "storage": {}
            }
        },
        "transaction": {
            "nonce": "0x00",
            "gasPrice": "0x0a",
            "gasLimit": [
                "0x0186a0"
            ],
            "to": "0x36753c56cd3dd2e8e1a96e089330973ccdc1accb",
            "value": [
                "0x415cb1c9"
            ],
            "data": [
                "0x7ffffffffffffffffffffffffffffffffffffffffffffffffffffffffffffffffe7f00000000000000000000000000000000000000000000000000000000000000007f000000000000000000000000000000000000000000000000000000000000c3507f000000000000000000000000ffffffffffffffffffffffffffffffffffffffff7f00000000000000000000000100000000000000000000000000000000000000007f000000000000000000000000000000000000000000000000000000000000c3507f00000000000000000000000036753c56cd3dd2e8e1a96e089330973ccdc1abcb7f000000000000000000000000ffffffffffffffffffffffffffffffffffffffff6f3c589f416d947a5134f268515b6c92"
            ],
            "sender": "0xcce93bdb4b4d5b63e987c4bdb6ff9b28ead93e02",
            "secretKey": "0x51ca4377c2040a964a7775da36753c56cd3dd2e8e1a96e089330973ccdc1abcb"
        },
        "post": {
            "Osaka": [
                {
                    "hash": "0x93d9e9ab47f5a5ebc9d7bab5fdfb3fc513f206516b6eb3c589e7e18f65c18338",
                    "logs": "0x1dcc4de8dec75d7aab85b567b6ccd41ad312451b948a7413f0a142fd40d49347",
                    "txbytes": "0xf9017e800a830186a09436753c56cd3dd2e8e1a96e089330973ccdc1accb84415cb1c9b901187ffffffffffffffffffffffffffffffffffffffffffffffffffffffffffffffffe7f00000000000000000000000000000000000000000000000000000000000000007f000000000000000000000000000000000000000000000000000000000000c3507f000000000000000000000000ffffffffffffffffffffffffffffffffffffffff7f00000000000000000000000100000000000000000000000000000000000000007f000000000000000000000000000000000000000000000000000000000000c3507f00000000000000000000000036753c56cd3dd2e8e1a96e089330973ccdc1abcb7f000000000000000000000000ffffffffffffffffffffffffffffffffffffffff6f3c589f416d947a5134f268515b6c9225a046d96373730f32d54da1c133658ae31a253a3996e60f493343b3b9f1a9282f11a075e35357d658e99b043b0ab6d53b75083b4d20eb6f7e26a809e8b77ceca6b512",
                    "indexes": {
                        "data": 0,
                        "gas": 0,
                        "value": 0
                    },
                    "state": {
                        "0xcce93bdb4b4d5b63e987c4bdb6ff9b28ead93e02": {
                            "nonce": "0x01",
                            "balance": "0x0de0b6b3660054bf",
                            "code": "0x",
                            "storage": {}
                        },
                        "0x36753c56cd3dd2e8e1a96e089330973ccdc1abcb": {
                            "nonce": "0x00",
                            "balance": "0x2e",
                            "code": "0x6000355415600957005b60203560003555",
                            "storage": {}
                        },
                        "0x36753c56cd3dd2e8e1a96e089330973ccdc1accb": {
                            "nonce": "0x00",
                            "balance": "0x415cb1c9",
                            "code": "0x7ffffffffffffffffffffffffffffffffffffffffffffffffffffffffffffffffe7f00000000000000000000000000000000000000000000000000000000000000007f000000000000000000000000000000000000000000000000000000000000c3507f000000000000000000000000ffffffffffffffffffffffffffffffffffffffff7f00000000000000000000000100000000000000000000000000000000000000007f000000000000000000000000000000000000000000000000000000000000c3507f00000000000000000000000036753c56cd3dd2e8e1a96e089330973ccdc1abcb7f000000000000000000000000ffffffffffffffffffffffffffffffffffffffff6f3c589f416d947a5134f268515b6c925560005155",
                            "storage": {
                                "0x00": "0x3c589f416d947a5134f268515b6c9255"
                            }
                        }
                    }
                }
            ]
        },
        "config": {
            "blobSchedule": {
                "Cancun": {
                    "target": "0x03",
                    "max": "0x06",
                    "baseFeeUpdateFraction": "0x32f0ed"
                },
                "Prague": {
                    "target": "0x06",
                    "max": "0x09",
                    "baseFeeUpdateFraction": "0x4c6964"
                },
                "Osaka": {
                    "target": "0x06",
                    "max": "0x09",
                    "baseFeeUpdateFraction": "0x4c6964"
                }
            },
            "chainid": "0x01"
        },
        "_info": {
            "hash": "0x12ec7582691038e417744afbebcea81b44557880b1c1f319c7decf96de3f709c",
            "comment": "`execution-specs` generated test",
            "filling-transition-tool": "2.18.0rc6",
            "description": "No description available - add a docstring to the python test class or function.",
            "url": "",
            "fixture-format": "state_test"
        }
    },
    "tests/static/state_tests/stRandom2/randomStatetest518Filler.json::randomStatetest518[fork_Prague-state_test-]": {
        "env": {
            "currentCoinbase": "0x36753c56cd3dd2e8e1a96e089330973ccdc1abcb",
            "currentGasLimit": "0x7fffffffffffffff",
            "currentNumber": "0x01",
            "currentTimestamp": "0x03e8",
            "currentRandom": "0x0000000000000000000000000000000000000000000000000000000000020000",
            "currentDifficulty": "0x00",
            "currentBaseFee": "0x0a",
            "currentExcessBlobGas": "0x00"
        },
        "pre": {
            "0xcce93bdb4b4d5b63e987c4bdb6ff9b28ead93e02": {
                "nonce": "0x00",
                "balance": "0x0de0b6b3a7640000",
                "code": "0x",
                "storage": {}
            },
            "0x36753c56cd3dd2e8e1a96e089330973ccdc1abcb": {
                "nonce": "0x00",
                "balance": "0x2e",
                "code": "0x6000355415600957005b60203560003555",
                "storage": {}
            },
            "0x36753c56cd3dd2e8e1a96e089330973ccdc1accb": {
                "nonce": "0x00",
                "balance": "0x00",
                "code": "0x7ffffffffffffffffffffffffffffffffffffffffffffffffffffffffffffffffe7f00000000000000000000000000000000000000000000000000000000000000007f000000000000000000000000000000000000000000000000000000000000c3507f000000000000000000000000ffffffffffffffffffffffffffffffffffffffff7f00000000000000000000000100000000000000000000000000000000000000007f000000000000000000000000000000000000000000000000000000000000c3507f00000000000000000000000036753c56cd3dd2e8e1a96e089330973ccdc1abcb7f000000000000000000000000ffffffffffffffffffffffffffffffffffffffff6f3c589f416d947a5134f268515b6c925560005155",
                "storage": {}
            }
        },
        "transaction": {
            "nonce": "0x00",
            "gasPrice": "0x0a",
            "gasLimit": [
                "0x0186a0"
            ],
            "to": "0x36753c56cd3dd2e8e1a96e089330973ccdc1accb",
            "value": [
                "0x415cb1c9"
            ],
            "data": [
                "0x7ffffffffffffffffffffffffffffffffffffffffffffffffffffffffffffffffe7f00000000000000000000000000000000000000000000000000000000000000007f000000000000000000000000000000000000000000000000000000000000c3507f000000000000000000000000ffffffffffffffffffffffffffffffffffffffff7f00000000000000000000000100000000000000000000000000000000000000007f000000000000000000000000000000000000000000000000000000000000c3507f00000000000000000000000036753c56cd3dd2e8e1a96e089330973ccdc1abcb7f000000000000000000000000ffffffffffffffffffffffffffffffffffffffff6f3c589f416d947a5134f268515b6c92"
            ],
            "sender": "0xcce93bdb4b4d5b63e987c4bdb6ff9b28ead93e02",
            "secretKey": "0x51ca4377c2040a964a7775da36753c56cd3dd2e8e1a96e089330973ccdc1abcb"
        },
        "post": {
            "Prague": [
                {
                    "hash": "0x93d9e9ab47f5a5ebc9d7bab5fdfb3fc513f206516b6eb3c589e7e18f65c18338",
                    "logs": "0x1dcc4de8dec75d7aab85b567b6ccd41ad312451b948a7413f0a142fd40d49347",
                    "txbytes": "0xf9017e800a830186a09436753c56cd3dd2e8e1a96e089330973ccdc1accb84415cb1c9b901187ffffffffffffffffffffffffffffffffffffffffffffffffffffffffffffffffe7f00000000000000000000000000000000000000000000000000000000000000007f000000000000000000000000000000000000000000000000000000000000c3507f000000000000000000000000ffffffffffffffffffffffffffffffffffffffff7f00000000000000000000000100000000000000000000000000000000000000007f000000000000000000000000000000000000000000000000000000000000c3507f00000000000000000000000036753c56cd3dd2e8e1a96e089330973ccdc1abcb7f000000000000000000000000ffffffffffffffffffffffffffffffffffffffff6f3c589f416d947a5134f268515b6c9225a046d96373730f32d54da1c133658ae31a253a3996e60f493343b3b9f1a9282f11a075e35357d658e99b043b0ab6d53b75083b4d20eb6f7e26a809e8b77ceca6b512",
                    "indexes": {
                        "data": 0,
                        "gas": 0,
                        "value": 0
                    },
                    "state": {
                        "0xcce93bdb4b4d5b63e987c4bdb6ff9b28ead93e02": {
                            "nonce": "0x01",
                            "balance": "0x0de0b6b3660054bf",
                            "code": "0x",
                            "storage": {}
                        },
                        "0x36753c56cd3dd2e8e1a96e089330973ccdc1abcb": {
                            "nonce": "0x00",
                            "balance": "0x2e",
                            "code": "0x6000355415600957005b60203560003555",
                            "storage": {}
                        },
                        "0x36753c56cd3dd2e8e1a96e089330973ccdc1accb": {
                            "nonce": "0x00",
                            "balance": "0x415cb1c9",
                            "code": "0x7ffffffffffffffffffffffffffffffffffffffffffffffffffffffffffffffffe7f00000000000000000000000000000000000000000000000000000000000000007f000000000000000000000000000000000000000000000000000000000000c3507f000000000000000000000000ffffffffffffffffffffffffffffffffffffffff7f00000000000000000000000100000000000000000000000000000000000000007f000000000000000000000000000000000000000000000000000000000000c3507f00000000000000000000000036753c56cd3dd2e8e1a96e089330973ccdc1abcb7f000000000000000000000000ffffffffffffffffffffffffffffffffffffffff6f3c589f416d947a5134f268515b6c925560005155",
                            "storage": {
                                "0x00": "0x3c589f416d947a5134f268515b6c9255"
                            }
                        }
                    }
                }
            ]
        },
        "config": {
            "blobSchedule": {
                "Cancun": {
                    "target": "0x03",
                    "max": "0x06",
                    "baseFeeUpdateFraction": "0x32f0ed"
                },
                "Prague": {
                    "target": "0x06",
                    "max": "0x09",
                    "baseFeeUpdateFraction": "0x4c6964"
                }
            },
            "chainid": "0x01"
        },
        "_info": {
            "hash": "0x38f3e06eed8c8f3c1952b7bfbff2ee0256327a98530d60f9745c7f497109f161",
            "comment": "`execution-specs` generated test",
            "filling-transition-tool": "2.18.0rc6",
            "description": "No description available - add a docstring to the python test class or function.",
            "url": "",
            "fixture-format": "state_test"
        }
    }
}