{
    "tests/static/state_tests/stRandom2/randomStatetest579Filler.json::randomStatetest579[fork_Cancun-state_test-]": {
        "env": {
            "currentCoinbase": "0x8bc2d9d756c074c82b9a09f395176ac562b77c41",
            "currentGasLimit": "0x7fffffffffffffff",
            "currentNumber": "0x01",
            "currentTimestamp": "0x03e8",
            "currentRandom": "0x0000000000000000000000000000000000000000000000000000000000020000",
            "currentDifficulty": "0x00",
            "currentBaseFee": "0x0a",
            "currentExcessBlobGas": "0x00"
        },
        "pre": {
            "0x82f4f3e6a4999e9d05b9a1f3e4d6ca9a869be9ae": {
                "nonce": "0x00",
                "balance": "0x0de0b6b3a7640000",
                "code": "0x",
                "storage": {}
            },
            "0x8bc2d9d756c074c82b9a09f395176ac562b77c41": {
                "nonce": "0x00",
                "balance": "0x2e",
                "code": "0x6000355415600957005b60203560003555",
                "storage": {}
            },
            "0x8bc2d9d756c074c82b9a09f395176ac562b77d41": {
                "nonce": "0x00",
                "balance": "0x00",
                "code": "0x7fffffffffffffffffffffffffffffffffffffffffffffffffffffffffffffffff7f00000000000000000000000000000000000000000000000000000000000000017f000000000000000000000000000000000000000000000000000000000000c3507f000000000000000000000000000000000000000000000000000000000000c3507f000000000000000000000000000000000000000000000000000000000000c3507f00000000000000000000000000000000000000000000000000000000000000007f00000000000000000000000000000000000000000000000000000000000000017f000000000000000000000000000000000000000000000000000000000000c350f2075b67c755",
                "storage": {}
            }
        },
        "transaction": {
            "nonce": "0x00",
            "gasPrice": "0x0a",
            "gasLimit": [
                "0x0186a0"
            ],
            "to": "0x8bc2d9d756c074c82b9a09f395176ac562b77d41",
            "value": [
                "0x73015bcf"
            ],
            "data": [
                "0x7fffffffffffffffffffffffffffffffffffffffffffffffffffffffffffffffff7f00000000000000000000000000000000000000000000000000000000000000017f000000000000000000000000000000000000000000000000000000000000c3507f000000000000000000000000000000000000000000000000000000000000c3507f000000000000000000000000000000000000000000000000000000000000c3507f00000000000000000000000000000000000000000000000000000000000000007f00000000000000000000000000000000000000000000000000000000000000017f000000000000000000000000000000000000000000000000000000000000c350f2075b67c7"
            ],
            "sender": "0x82f4f3e6a4999e9d05b9a1f3e4d6ca9a869be9ae",
            "secretKey": "0x8441453762d640c9b09d2e3e8bc2d9d756c074c82b9a09f395176ac562b77c41"
        },
        "post": {
            "Cancun": [
                {
                    "hash": "0x35a7a10f87835a3d6f05e9e1aa5bba38e498a2bf690e1ae7f22d19811f4441f3",
                    "logs": "0x1dcc4de8dec75d7aab85b567b6ccd41ad312451b948a7413f0a142fd40d49347",
                    "txbytes": "0xf90173800a830186a0948bc2d9d756c074c82b9a09f395176ac562b77d418473015bcfb9010d7fffffffffffffffffffffffffffffffffffffffffffffffffffffffffffffffff7f00000000000000000000000000000000000000000000000000000000000000017f000000000000000000000000000000000000000000000000000000000000c3507f000000000000000000000000000000000000000000000000000000000000c3507f000000000000000000000000000000000000000000000000000000000000c3507f00000000000000000000000000000000000000000000000000000000000000007f00000000000000000000000000000000000000000000000000000000000000017f000000000000000000000000000000000000000000000000000000000000c350f2075b67c725a0c2a78c8a0a71d72b30fa988147778255a28f19543e69afaed98d056b4fa24a35a005e9052df808b18622efc70bc33617b130f3f7903e59eb1cba226d06563bb0e1",
                    "indexes": {
                        "data": 0,
                        "gas": 0,
                        "value": 0
                    },
                    "state": {
                        "0x82f4f3e6a4999e9d05b9a1f3e4d6ca9a869be9ae": {
                            "nonce": "0x01",
                            "balance": "0x0de0b6b3345a5a6f",
                            "code": "0x",
                            "storage": {}
                        },
                        "0x8bc2d9d756c074c82b9a09f395176ac562b77c41": {
                            "nonce": "0x00",
                            "balance": "0x2e",
                            "code": "0x6000355415600957005b60203560003555",
                            "storage": {}
                        },
                        "0x8bc2d9d756c074c82b9a09f395176ac562b77d41": {
                            "nonce": "0x00",
                            "balance": "0x73015bcf",
                            "code": "0x7fffffffffffffffffffffffffffffffffffffffffffffffffffffffffffffffff7f00000000000000000000000000000000000000000000000000000000000000017f000000000000000000000000000000000000000000000000000000000000c3507f000000000000000000000000000000000000000000000000000000000000c3507f000000000000000000000000000000000000000000000000000000000000c3507f00000000000000000000000000000000000000000000000000000000000000007f00000000000000000000000000000000000000000000000000000000000000017f000000000000000000000000000000000000000000000000000000000000c350f2075b67c755",
                            "storage": {}
                        }
                    }
                }
            ]
        },
        "config": {
            "blobSchedule": {
                "Cancun": {
                    "target": "0x03",
                    "max": "0x06",
                    "baseFeeUpdateFraction": "0x32f0ed"
                }
            },
            "chainid": "0x01"
        },
        "_info": {
            "hash": "0xe80767fde196e93e2352d02eba854a6f85d7610a9d4b0a11c8bdc895d69fed5d",
            "comment": "`execution-spec-tests` generated test",
            "filling-transition-tool": "ethereum-spec-evm-resolver 0.0.5",
            "description": "No description available - add a docstring to the python test class or function.",
            "url": "",
            "fixture-format": "state_test",
            "eels-resolution": {
                "git-url": "https://github.com/marioevz/execution-specs.git",
                "branch": "forks/bpo1",
                "commit": "3387e5f4aedfe99becfdc39b444d6371e25e0924"
            }
        }
    },
    "tests/static/state_tests/stRandom2/randomStatetest579Filler.json::randomStatetest579[fork_Osaka-state_test-]": {
        "env": {
            "currentCoinbase": "0x8bc2d9d756c074c82b9a09f395176ac562b77c41",
            "currentGasLimit": "0x7fffffffffffffff",
            "currentNumber": "0x01",
            "currentTimestamp": "0x03e8",
            "currentRandom": "0x0000000000000000000000000000000000000000000000000000000000020000",
            "currentDifficulty": "0x00",
            "currentBaseFee": "0x0a",
            "currentExcessBlobGas": "0x00"
        },
        "pre": {
            "0x82f4f3e6a4999e9d05b9a1f3e4d6ca9a869be9ae": {
                "nonce": "0x00",
                "balance": "0x0de0b6b3a7640000",
                "code": "0x",
                "storage": {}
            },
            "0x8bc2d9d756c074c82b9a09f395176ac562b77c41": {
                "nonce": "0x00",
                "balance": "0x2e",
                "code": "0x6000355415600957005b60203560003555",
                "storage": {}
            },
            "0x8bc2d9d756c074c82b9a09f395176ac562b77d41": {
                "nonce": "0x00",
                "balance": "0x00",
                "code": "0x7fffffffffffffffffffffffffffffffffffffffffffffffffffffffffffffffff7f00000000000000000000000000000000000000000000000000000000000000017f000000000000000000000000000000000000000000000000000000000000c3507f000000000000000000000000000000000000000000000000000000000000c3507f000000000000000000000000000000000000000000000000000000000000c3507f00000000000000000000000000000000000000000000000000000000000000007f00000000000000000000000000000000000000000000000000000000000000017f000000000000000000000000000000000000000000000000000000000000c350f2075b67c755",
                "storage": {}
            }
        },
        "transaction": {
            "nonce": "0x00",
            "gasPrice": "0x0a",
            "gasLimit": [
                "0x0186a0"
            ],
            "to": "0x8bc2d9d756c074c82b9a09f395176ac562b77d41",
            "value": [
                "0x73015bcf"
            ],
            "data": [
                "0x7fffffffffffffffffffffffffffffffffffffffffffffffffffffffffffffffff7f00000000000000000000000000000000000000000000000000000000000000017f000000000000000000000000000000000000000000000000000000000000c3507f000000000000000000000000000000000000000000000000000000000000c3507f000000000000000000000000000000000000000000000000000000000000c3507f00000000000000000000000000000000000000000000000000000000000000007f00000000000000000000000000000000000000000000000000000000000000017f000000000000000000000000000000000000000000000000000000000000c350f2075b67c7"
            ],
            "sender": "0x82f4f3e6a4999e9d05b9a1f3e4d6ca9a869be9ae",
            "secretKey": "0x8441453762d640c9b09d2e3e8bc2d9d756c074c82b9a09f395176ac562b77c41"
        },
        "post": {
            "Osaka": [
                {
                    "hash": "0x35a7a10f87835a3d6f05e9e1aa5bba38e498a2bf690e1ae7f22d19811f4441f3",
                    "logs": "0x1dcc4de8dec75d7aab85b567b6ccd41ad312451b948a7413f0a142fd40d49347",
                    "txbytes": "0xf90173800a830186a0948bc2d9d756c074c82b9a09f395176ac562b77d418473015bcfb9010d7fffffffffffffffffffffffffffffffffffffffffffffffffffffffffffffffff7f00000000000000000000000000000000000000000000000000000000000000017f000000000000000000000000000000000000000000000000000000000000c3507f000000000000000000000000000000000000000000000000000000000000c3507f000000000000000000000000000000000000000000000000000000000000c3507f00000000000000000000000000000000000000000000000000000000000000007f00000000000000000000000000000000000000000000000000000000000000017f000000000000000000000000000000000000000000000000000000000000c350f2075b67c725a0c2a78c8a0a71d72b30fa988147778255a28f19543e69afaed98d056b4fa24a35a005e9052df808b18622efc70bc33617b130f3f7903e59eb1cba226d06563bb0e1",
                    "indexes": {
                        "data": 0,
                        "gas": 0,
                        "value": 0
                    },
                    "state": {
                        "0x82f4f3e6a4999e9d05b9a1f3e4d6ca9a869be9ae": {
                            "nonce": "0x01",
                            "balance": "0x0de0b6b3345a5a6f",
                            "code": "0x",
                            "storage": {}
                        },
                        "0x8bc2d9d756c074c82b9a09f395176ac562b77c41": {
                            "nonce": "0x00",
                            "balance": "0x2e",
                            "code": "0x6000355415600957005b60203560003555",
                            "storage": {}
                        },
                        "0x8bc2d9d756c074c82b9a09f395176ac562b77d41": {
                            "nonce": "0x00",
                            "balance": "0x73015bcf",
                            "code": "0x7fffffffffffffffffffffffffffffffffffffffffffffffffffffffffffffffff7f00000000000000000000000000000000000000000000000000000000000000017f000000000000000000000000000000000000000000000000000000000000c3507f000000000000000000000000000000000000000000000000000000000000c3507f000000000000000000000000000000000000000000000000000000000000c3507f00000000000000000000000000000000000000000000000000000000000000007f00000000000000000000000000000000000000000000000000000000000000017f000000000000000000000000000000000000000000000000000000000000c350f2075b67c755",
                            "storage": {}
                        }
                    }
                }
            ]
        },
        "config": {
            "blobSchedule": {
                "Cancun": {
                    "target": "0x03",
                    "max": "0x06",
                    "baseFeeUpdateFraction": "0x32f0ed"
                },
                "Prague": {
                    "target": "0x06",
                    "max": "0x09",
                    "baseFeeUpdateFraction": "0x4c6964"
                },
                "Osaka": {
                    "target": "0x06",
                    "max": "0x09",
                    "baseFeeUpdateFraction": "0x4c6964"
                }
            },
            "chainid": "0x01"
        },
        "_info": {
            "hash": "0x8209f85c6e71ce59eb30e45efd9c521e14618dc4b28502c89b2d2715980a4423",
            "comment": "`execution-spec-tests` generated test",
            "filling-transition-tool": "ethereum-spec-evm-resolver 0.0.5",
            "description": "No description available - add a docstring to the python test class or function.",
            "url": "",
            "fixture-format": "state_test",
            "eels-resolution": {
                "git-url": "https://github.com/marioevz/execution-specs.git",
                "branch": "forks/bpo1",
                "commit": "3387e5f4aedfe99becfdc39b444d6371e25e0924"
            }
        }
    },
    "tests/static/state_tests/stRandom2/randomStatetest579Filler.json::randomStatetest579[fork_Prague-state_test-]": {
        "env": {
            "currentCoinbase": "0x8bc2d9d756c074c82b9a09f395176ac562b77c41",
            "currentGasLimit": "0x7fffffffffffffff",
            "currentNumber": "0x01",
            "currentTimestamp": "0x03e8",
            "currentRandom": "0x0000000000000000000000000000000000000000000000000000000000020000",
            "currentDifficulty": "0x00",
            "currentBaseFee": "0x0a",
            "currentExcessBlobGas": "0x00"
        },
        "pre": {
            "0x82f4f3e6a4999e9d05b9a1f3e4d6ca9a869be9ae": {
                "nonce": "0x00",
                "balance": "0x0de0b6b3a7640000",
                "code": "0x",
                "storage": {}
            },
            "0x8bc2d9d756c074c82b9a09f395176ac562b77c41": {
                "nonce": "0x00",
                "balance": "0x2e",
                "code": "0x6000355415600957005b60203560003555",
                "storage": {}
            },
            "0x8bc2d9d756c074c82b9a09f395176ac562b77d41": {
                "nonce": "0x00",
                "balance": "0x00",
                "code": "0x7fffffffffffffffffffffffffffffffffffffffffffffffffffffffffffffffff7f00000000000000000000000000000000000000000000000000000000000000017f000000000000000000000000000000000000000000000000000000000000c3507f000000000000000000000000000000000000000000000000000000000000c3507f000000000000000000000000000000000000000000000000000000000000c3507f00000000000000000000000000000000000000000000000000000000000000007f00000000000000000000000000000000000000000000000000000000000000017f000000000000000000000000000000000000000000000000000000000000c350f2075b67c755",
                "storage": {}
            }
        },
        "transaction": {
            "nonce": "0x00",
            "gasPrice": "0x0a",
            "gasLimit": [
                "0x0186a0"
            ],
            "to": "0x8bc2d9d756c074c82b9a09f395176ac562b77d41",
            "value": [
                "0x73015bcf"
            ],
            "data": [
                "0x7fffffffffffffffffffffffffffffffffffffffffffffffffffffffffffffffff7f00000000000000000000000000000000000000000000000000000000000000017f000000000000000000000000000000000000000000000000000000000000c3507f000000000000000000000000000000000000000000000000000000000000c3507f000000000000000000000000000000000000000000000000000000000000c3507f00000000000000000000000000000000000000000000000000000000000000007f00000000000000000000000000000000000000000000000000000000000000017f000000000000000000000000000000000000000000000000000000000000c350f2075b67c7"
            ],
            "sender": "0x82f4f3e6a4999e9d05b9a1f3e4d6ca9a869be9ae",
            "secretKey": "0x8441453762d640c9b09d2e3e8bc2d9d756c074c82b9a09f395176ac562b77c41"
        },
        "post": {
            "Prague": [
                {
                    "hash": "0x35a7a10f87835a3d6f05e9e1aa5bba38e498a2bf690e1ae7f22d19811f4441f3",
                    "logs": "0x1dcc4de8dec75d7aab85b567b6ccd41ad312451b948a7413f0a142fd40d49347",
                    "txbytes": "0xf90173800a830186a0948bc2d9d756c074c82b9a09f395176ac562b77d418473015bcfb9010d7fffffffffffffffffffffffffffffffffffffffffffffffffffffffffffffffff7f00000000000000000000000000000000000000000000000000000000000000017f000000000000000000000000000000000000000000000000000000000000c3507f000000000000000000000000000000000000000000000000000000000000c3507f000000000000000000000000000000000000000000000000000000000000c3507f00000000000000000000000000000000000000000000000000000000000000007f00000000000000000000000000000000000000000000000000000000000000017f000000000000000000000000000000000000000000000000000000000000c350f2075b67c725a0c2a78c8a0a71d72b30fa988147778255a28f19543e69afaed98d056b4fa24a35a005e9052df808b18622efc70bc33617b130f3f7903e59eb1cba226d06563bb0e1",
                    "indexes": {
                        "data": 0,
                        "gas": 0,
                        "value": 0
                    },
                    "state": {
                        "0x82f4f3e6a4999e9d05b9a1f3e4d6ca9a869be9ae": {
                            "nonce": "0x01",
                            "balance": "0x0de0b6b3345a5a6f",
                            "code": "0x",
                            "storage": {}
                        },
                        "0x8bc2d9d756c074c82b9a09f395176ac562b77c41": {
                            "nonce": "0x00",
                            "balance": "0x2e",
                            "code": "0x6000355415600957005b60203560003555",
                            "storage": {}
                        },
                        "0x8bc2d9d756c074c82b9a09f395176ac562b77d41": {
                            "nonce": "0x00",
                            "balance": "0x73015bcf",
                            "code": "0x7fffffffffffffffffffffffffffffffffffffffffffffffffffffffffffffffff7f00000000000000000000000000000000000000000000000000000000000000017f000000000000000000000000000000000000000000000000000000000000c3507f000000000000000000000000000000000000000000000000000000000000c3507f000000000000000000000000000000000000000000000000000000000000c3507f00000000000000000000000000000000000000000000000000000000000000007f00000000000000000000000000000000000000000000000000000000000000017f000000000000000000000000000000000000000000000000000000000000c350f2075b67c755",
                            "storage": {}
                        }
                    }
                }
            ]
        },
        "config": {
            "blobSchedule": {
                "Cancun": {
                    "target": "0x03",
                    "max": "0x06",
                    "baseFeeUpdateFraction": "0x32f0ed"
                },
                "Prague": {
                    "target": "0x06",
                    "max": "0x09",
                    "baseFeeUpdateFraction": "0x4c6964"
                }
            },
            "chainid": "0x01"
        },
        "_info": {
            "hash": "0x75dbd5673f8ca71f080df45cb42af7233548784bbe758275819512b2b501efea",
            "comment": "`execution-spec-tests` generated test",
            "filling-transition-tool": "ethereum-spec-evm-resolver 0.0.5",
            "description": "No description available - add a docstring to the python test class or function.",
            "url": "",
            "fixture-format": "state_test",
            "eels-resolution": {
                "git-url": "https://github.com/marioevz/execution-specs.git",
                "branch": "forks/bpo1",
                "commit": "3387e5f4aedfe99becfdc39b444d6371e25e0924"
            }
        }
    }
}