{
    "tests/static/state_tests/stRandom2/randomStatetest445Filler.json::randomStatetest445[fork_Cancun-state_test-]": {
        "env": {
            "currentCoinbase": "0x98f5392213bfb9eb96f3bdb148da57b95a6ec710",
            "currentGasLimit": "0x7fffffffffffffff",
            "currentNumber": "0x01",
            "currentTimestamp": "0x03e8",
            "currentRandom": "0x0000000000000000000000000000000000000000000000000000000000020000",
            "currentDifficulty": "0x00",
            "currentBaseFee": "0x0a",
            "currentExcessBlobGas": "0x00"
        },
        "pre": {
            "0xe770c35535304ff3ec35f1f394067ce1836555ab": {
                "nonce": "0x00",
                "balance": "0x0de0b6b3a7640000",
                "code": "0x",
                "storage": {}
            },
            "0x98f5392213bfb9eb96f3bdb148da57b95a6ec710": {
                "nonce": "0x00",
                "balance": "0x2e",
                "code": "0x6000355415600957005b60203560003555",
                "storage": {}
            },
            "0x98f5392213bfb9eb96f3bdb148da57b95a6ec810": {
                "nonce": "0x00",
                "balance": "0x00",
                "code": "0x7f00000000000000000000000000000000000000000000000000000000000000017f000000000000000000000000ffffffffffffffffffffffffffffffffffffffff7f000000000000000000000000000000000000000000000000000000000000c3507f00000000000000000000000098f5392213bfb9eb96f3bdb148da57b95a6ec7107f00000000000000000000000098f5392213bfb9eb96f3bdb148da57b95a6ec7107ffffffffffffffffffffffffffffffffffffffffffffffffffffffffffffffffe7f000000000000000000000000ffffffffffffffffffffffffffffffffffffffff7f00000000000000000000000000000000000000000000000000000000000000008756993365a1376155",
                "storage": {}
            }
        },
        "transaction": {
            "nonce": "0x00",
            "gasPrice": "0x0a",
            "gasLimit": [
                "0x0186a0"
            ],
            "to": "0x98f5392213bfb9eb96f3bdb148da57b95a6ec810",
            "value": [
                "0x144db951"
            ],
            "data": [
                "0x7f00000000000000000000000000000000000000000000000000000000000000017f000000000000000000000000ffffffffffffffffffffffffffffffffffffffff7f000000000000000000000000000000000000000000000000000000000000c3507f00000000000000000000000098f5392213bfb9eb96f3bdb148da57b95a6ec7107f00000000000000000000000098f5392213bfb9eb96f3bdb148da57b95a6ec7107ffffffffffffffffffffffffffffffffffffffffffffffffffffffffffffffffe7f000000000000000000000000ffffffffffffffffffffffffffffffffffffffff7f00000000000000000000000000000000000000000000000000000000000000008756993365a13761"
            ],
            "sender": "0xe770c35535304ff3ec35f1f394067ce1836555ab",
            "secretKey": "0xf4f7d6acb95e19d24f92749c98f5392213bfb9eb96f3bdb148da57b95a6ec710"
        },
        "post": {
            "Cancun": [
                {
                    "hash": "0xcaea4dae6e74cf300013eaf408789fdc5481fac3b965ffdfa0b3d60888def171",
                    "logs": "0x1dcc4de8dec75d7aab85b567b6ccd41ad312451b948a7413f0a142fd40d49347",
                    "txbytes": "0xf90176800a830186a09498f5392213bfb9eb96f3bdb148da57b95a6ec81084144db951b901107f00000000000000000000000000000000000000000000000000000000000000017f000000000000000000000000ffffffffffffffffffffffffffffffffffffffff7f000000000000000000000000000000000000000000000000000000000000c3507f00000000000000000000000098f5392213bfb9eb96f3bdb148da57b95a6ec7107f00000000000000000000000098f5392213bfb9eb96f3bdb148da57b95a6ec7107ffffffffffffffffffffffffffffffffffffffffffffffffffffffffffffffffe7f000000000000000000000000ffffffffffffffffffffffffffffffffffffffff7f00000000000000000000000000000000000000000000000000000000000000008756993365a1376126a0d7f8dfd49f3281180058e4a8bc0a6f8ac3e91451d2077c61ecf517f5d3fcca08a051d158d54bfa521d03ec7e369995ddd2bad633da5c781cea1a563104e9b6427e",
                    "indexes": {
                        "data": 0,
                        "gas": 0,
                        "value": 0
                    },
                    "state": {
                        "0xe770c35535304ff3ec35f1f394067ce1836555ab": {
                            "nonce": "0x01",
                            "balance": "0x0de0b6b3a754bdc0",
                            "code": "0x",
                            "storage": {}
                        },
                        "0x98f5392213bfb9eb96f3bdb148da57b95a6ec710": {
                            "nonce": "0x00",
                            "balance": "0x2e",
                            "code": "0x6000355415600957005b60203560003555",
                            "storage": {}
                        },
                        "0x98f5392213bfb9eb96f3bdb148da57b95a6ec810": {
                            "nonce": "0x00",
                            "balance": "0x00",
                            "code": "0x7f00000000000000000000000000000000000000000000000000000000000000017f000000000000000000000000ffffffffffffffffffffffffffffffffffffffff7f000000000000000000000000000000000000000000000000000000000000c3507f00000000000000000000000098f5392213bfb9eb96f3bdb148da57b95a6ec7107f00000000000000000000000098f5392213bfb9eb96f3bdb148da57b95a6ec7107ffffffffffffffffffffffffffffffffffffffffffffffffffffffffffffffffe7f000000000000000000000000ffffffffffffffffffffffffffffffffffffffff7f00000000000000000000000000000000000000000000000000000000000000008756993365a1376155",
                            "storage": {}
                        }
                    }
                }
            ]
        },
        "config": {
            "blobSchedule": {
                "Cancun": {
                    "target": "0x03",
                    "max": "0x06",
                    "baseFeeUpdateFraction": "0x32f0ed"
                }
            },
            "chainid": "0x01"
        },
        "_info": {
            "hash": "0x9e6048c0984f79d1ebab364ee39d6b9c37aab32e2ff3a19a6597b1826102c9f4",
            "comment": "`execution-spec-tests` generated test",
            "filling-transition-tool": "ethereum-spec-evm-resolver 0.0.5",
            "description": "No description available - add a docstring to the python test class or function.",
            "url": "",
            "fixture-format": "state_test",
            "eels-resolution": {
                "git-url": "https://github.com/marioevz/execution-specs.git",
                "branch": "forks/bpo1",
                "commit": "3387e5f4aedfe99becfdc39b444d6371e25e0924"
            }
        }
    },
    "tests/static/state_tests/stRandom2/randomStatetest445Filler.json::randomStatetest445[fork_Osaka-state_test-]": {
        "env": {
            "currentCoinbase": "0x98f5392213bfb9eb96f3bdb148da57b95a6ec710",
            "currentGasLimit": "0x7fffffffffffffff",
            "currentNumber": "0x01",
            "currentTimestamp": "0x03e8",
            "currentRandom": "0x0000000000000000000000000000000000000000000000000000000000020000",
            "currentDifficulty": "0x00",
            "currentBaseFee": "0x0a",
            "currentExcessBlobGas": "0x00"
        },
        "pre": {
            "0xe770c35535304ff3ec35f1f394067ce1836555ab": {
                "nonce": "0x00",
                "balance": "0x0de0b6b3a7640000",
                "code": "0x",
                "storage": {}
            },
            "0x98f5392213bfb9eb96f3bdb148da57b95a6ec710": {
                "nonce": "0x00",
                "balance": "0x2e",
                "code": "0x6000355415600957005b60203560003555",
                "storage": {}
            },
            "0x98f5392213bfb9eb96f3bdb148da57b95a6ec810": {
                "nonce": "0x00",
                "balance": "0x00",
                "code": "0x7f00000000000000000000000000000000000000000000000000000000000000017f000000000000000000000000ffffffffffffffffffffffffffffffffffffffff7f000000000000000000000000000000000000000000000000000000000000c3507f00000000000000000000000098f5392213bfb9eb96f3bdb148da57b95a6ec7107f00000000000000000000000098f5392213bfb9eb96f3bdb148da57b95a6ec7107ffffffffffffffffffffffffffffffffffffffffffffffffffffffffffffffffe7f000000000000000000000000ffffffffffffffffffffffffffffffffffffffff7f00000000000000000000000000000000000000000000000000000000000000008756993365a1376155",
                "storage": {}
            }
        },
        "transaction": {
            "nonce": "0x00",
            "gasPrice": "0x0a",
            "gasLimit": [
                "0x0186a0"
            ],
            "to": "0x98f5392213bfb9eb96f3bdb148da57b95a6ec810",
            "value": [
                "0x144db951"
            ],
            "data": [
                "0x7f00000000000000000000000000000000000000000000000000000000000000017f000000000000000000000000ffffffffffffffffffffffffffffffffffffffff7f000000000000000000000000000000000000000000000000000000000000c3507f00000000000000000000000098f5392213bfb9eb96f3bdb148da57b95a6ec7107f00000000000000000000000098f5392213bfb9eb96f3bdb148da57b95a6ec7107ffffffffffffffffffffffffffffffffffffffffffffffffffffffffffffffffe7f000000000000000000000000ffffffffffffffffffffffffffffffffffffffff7f00000000000000000000000000000000000000000000000000000000000000008756993365a13761"
            ],
            "sender": "0xe770c35535304ff3ec35f1f394067ce1836555ab",
            "secretKey": "0xf4f7d6acb95e19d24f92749c98f5392213bfb9eb96f3bdb148da57b95a6ec710"
        },
        "post": {
            "Osaka": [
                {
                    "hash": "0xcaea4dae6e74cf300013eaf408789fdc5481fac3b965ffdfa0b3d60888def171",
                    "logs": "0x1dcc4de8dec75d7aab85b567b6ccd41ad312451b948a7413f0a142fd40d49347",
                    "txbytes": "0xf90176800a830186a09498f5392213bfb9eb96f3bdb148da57b95a6ec81084144db951b901107f00000000000000000000000000000000000000000000000000000000000000017f000000000000000000000000ffffffffffffffffffffffffffffffffffffffff7f000000000000000000000000000000000000000000000000000000000000c3507f00000000000000000000000098f5392213bfb9eb96f3bdb148da57b95a6ec7107f00000000000000000000000098f5392213bfb9eb96f3bdb148da57b95a6ec7107ffffffffffffffffffffffffffffffffffffffffffffffffffffffffffffffffe7f000000000000000000000000ffffffffffffffffffffffffffffffffffffffff7f00000000000000000000000000000000000000000000000000000000000000008756993365a1376126a0d7f8dfd49f3281180058e4a8bc0a6f8ac3e91451d2077c61ecf517f5d3fcca08a051d158d54bfa521d03ec7e369995ddd2bad633da5c781cea1a563104e9b6427e",
                    "indexes": {
                        "data": 0,
                        "gas": 0,
                        "value": 0
                    },
                    "state": {
                        "0xe770c35535304ff3ec35f1f394067ce1836555ab": {
                            "nonce": "0x01",
                            "balance": "0x0de0b6b3a754bdc0",
                            "code": "0x",
                            "storage": {}
                        },
                        "0x98f5392213bfb9eb96f3bdb148da57b95a6ec710": {
                            "nonce": "0x00",
                            "balance": "0x2e",
                            "code": "0x6000355415600957005b60203560003555",
                            "storage": {}
                        },
                        "0x98f5392213bfb9eb96f3bdb148da57b95a6ec810": {
                            "nonce": "0x00",
                            "balance": "0x00",
                            "code": "0x7f00000000000000000000000000000000000000000000000000000000000000017f000000000000000000000000ffffffffffffffffffffffffffffffffffffffff7f000000000000000000000000000000000000000000000000000000000000c3507f00000000000000000000000098f5392213bfb9eb96f3bdb148da57b95a6ec7107f00000000000000000000000098f5392213bfb9eb96f3bdb148da57b95a6ec7107ffffffffffffffffffffffffffffffffffffffffffffffffffffffffffffffffe7f000000000000000000000000ffffffffffffffffffffffffffffffffffffffff7f00000000000000000000000000000000000000000000000000000000000000008756993365a1376155",
                            "storage": {}
                        }
                    }
                }
            ]
        },
        "config": {
            "blobSchedule": {
                "Cancun": {
                    "target": "0x03",
                    "max": "0x06",
                    "baseFeeUpdateFraction": "0x32f0ed"
                },
                "Prague": {
                    "target": "0x06",
                    "max": "0x09",
                    "baseFeeUpdateFraction": "0x4c6964"
                },
                "Osaka": {
                    "target": "0x06",
                    "max": "0x09",
                    "baseFeeUpdateFraction": "0x4c6964"
                }
            },
            "chainid": "0x01"
        },
        "_info": {
            "hash": "0xb791d4f96ea38a90c554c0d2354ea08dc6237a4b0ebbef86eb9b068605ddccf7",
            "comment": "`execution-spec-tests` generated test",
            "filling-transition-tool": "ethereum-spec-evm-resolver 0.0.5",
            "description": "No description available - add a docstring to the python test class or function.",
            "url": "",
            "fixture-format": "state_test",
            "eels-resolution": {
                "git-url": "https://github.com/marioevz/execution-specs.git",
                "branch": "forks/bpo1",
                "commit": "3387e5f4aedfe99becfdc39b444d6371e25e0924"
            }
        }
    },
    "tests/static/state_tests/stRandom2/randomStatetest445Filler.json::randomStatetest445[fork_Prague-state_test-]": {
        "env": {
            "currentCoinbase": "0x98f5392213bfb9eb96f3bdb148da57b95a6ec710",
            "currentGasLimit": "0x7fffffffffffffff",
            "currentNumber": "0x01",
            "currentTimestamp": "0x03e8",
            "currentRandom": "0x0000000000000000000000000000000000000000000000000000000000020000",
            "currentDifficulty": "0x00",
            "currentBaseFee": "0x0a",
            "currentExcessBlobGas": "0x00"
        },
        "pre": {
            "0xe770c35535304ff3ec35f1f394067ce1836555ab": {
                "nonce": "0x00",
                "balance": "0x0de0b6b3a7640000",
                "code": "0x",
                "storage": {}
            },
            "0x98f5392213bfb9eb96f3bdb148da57b95a6ec710": {
                "nonce": "0x00",
                "balance": "0x2e",
                "code": "0x6000355415600957005b60203560003555",
                "storage": {}
            },
            "0x98f5392213bfb9eb96f3bdb148da57b95a6ec810": {
                "nonce": "0x00",
                "balance": "0x00",
                "code": "0x7f00000000000000000000000000000000000000000000000000000000000000017f000000000000000000000000ffffffffffffffffffffffffffffffffffffffff7f000000000000000000000000000000000000000000000000000000000000c3507f00000000000000000000000098f5392213bfb9eb96f3bdb148da57b95a6ec7107f00000000000000000000000098f5392213bfb9eb96f3bdb148da57b95a6ec7107ffffffffffffffffffffffffffffffffffffffffffffffffffffffffffffffffe7f000000000000000000000000ffffffffffffffffffffffffffffffffffffffff7f00000000000000000000000000000000000000000000000000000000000000008756993365a1376155",
                "storage": {}
            }
        },
        "transaction": {
            "nonce": "0x00",
            "gasPrice": "0x0a",
            "gasLimit": [
                "0x0186a0"
            ],
            "to": "0x98f5392213bfb9eb96f3bdb148da57b95a6ec810",
            "value": [
                "0x144db951"
            ],
            "data": [
                "0x7f00000000000000000000000000000000000000000000000000000000000000017f000000000000000000000000ffffffffffffffffffffffffffffffffffffffff7f000000000000000000000000000000000000000000000000000000000000c3507f00000000000000000000000098f5392213bfb9eb96f3bdb148da57b95a6ec7107f00000000000000000000000098f5392213bfb9eb96f3bdb148da57b95a6ec7107ffffffffffffffffffffffffffffffffffffffffffffffffffffffffffffffffe7f000000000000000000000000ffffffffffffffffffffffffffffffffffffffff7f00000000000000000000000000000000000000000000000000000000000000008756993365a13761"
            ],
            "sender": "0xe770c35535304ff3ec35f1f394067ce1836555ab",
            "secretKey": "0xf4f7d6acb95e19d24f92749c98f5392213bfb9eb96f3bdb148da57b95a6ec710"
        },
        "post": {
            "Prague": [
                {
                    "hash": "0xcaea4dae6e74cf300013eaf408789fdc5481fac3b965ffdfa0b3d60888def171",
                    "logs": "0x1dcc4de8dec75d7aab85b567b6ccd41ad312451b948a7413f0a142fd40d49347",
                    "txbytes": "0xf90176800a830186a09498f5392213bfb9eb96f3bdb148da57b95a6ec81084144db951b901107f00000000000000000000000000000000000000000000000000000000000000017f000000000000000000000000ffffffffffffffffffffffffffffffffffffffff7f000000000000000000000000000000000000000000000000000000000000c3507f00000000000000000000000098f5392213bfb9eb96f3bdb148da57b95a6ec7107f00000000000000000000000098f5392213bfb9eb96f3bdb148da57b95a6ec7107ffffffffffffffffffffffffffffffffffffffffffffffffffffffffffffffffe7f000000000000000000000000ffffffffffffffffffffffffffffffffffffffff7f00000000000000000000000000000000000000000000000000000000000000008756993365a1376126a0d7f8dfd49f3281180058e4a8bc0a6f8ac3e91451d2077c61ecf517f5d3fcca08a051d158d54bfa521d03ec7e369995ddd2bad633da5c781cea1a563104e9b6427e",
                    "indexes": {
                        "data": 0,
                        "gas": 0,
                        "value": 0
                    },
                    "state": {
                        "0xe770c35535304ff3ec35f1f394067ce1836555ab": {
                            "nonce": "0x01",
                            "balance": "0x0de0b6b3a754bdc0",
                            "code": "0x",
                            "storage": {}
                        },
                        "0x98f5392213bfb9eb96f3bdb148da57b95a6ec710": {
                            "nonce": "0x00",
                            "balance": "0x2e",
                            "code": "0x6000355415600957005b60203560003555",
                            "storage": {}
                        },
                        "0x98f5392213bfb9eb96f3bdb148da57b95a6ec810": {
                            "nonce": "0x00",
                            "balance": "0x00",
                            "code": "0x7f00000000000000000000000000000000000000000000000000000000000000017f000000000000000000000000ffffffffffffffffffffffffffffffffffffffff7f000000000000000000000000000000000000000000000000000000000000c3507f00000000000000000000000098f5392213bfb9eb96f3bdb148da57b95a6ec7107f00000000000000000000000098f5392213bfb9eb96f3bdb148da57b95a6ec7107ffffffffffffffffffffffffffffffffffffffffffffffffffffffffffffffffe7f000000000000000000000000ffffffffffffffffffffffffffffffffffffffff7f00000000000000000000000000000000000000000000000000000000000000008756993365a1376155",
                            "storage": {}
                        }
                    }
                }
            ]
        },
        "config": {
            "blobSchedule": {
                "Cancun": {
                    "target": "0x03",
                    "max": "0x06",
                    "baseFeeUpdateFraction": "0x32f0ed"
                },
                "Prague": {
                    "target": "0x06",
                    "max": "0x09",
                    "baseFeeUpdateFraction": "0x4c6964"
                }
            },
            "chainid": "0x01"
        },
        "_info": {
            "hash": "0x6c54bcaea747626e0556980c7ae839dae3e533b1076d935626ebc39cfd86e5c0",
            "comment": "`execution-spec-tests` generated test",
            "filling-transition-tool": "ethereum-spec-evm-resolver 0.0.5",
            "description": "No description available - add a docstring to the python test class or function.",
            "url": "",
            "fixture-format": "state_test",
            "eels-resolution": {
                "git-url": "https://github.com/marioevz/execution-specs.git",
                "branch": "forks/bpo1",
                "commit": "3387e5f4aedfe99becfdc39b444d6371e25e0924"
            }
        }
    }
}