{
    "tests/static/state_tests/stRandom2/randomStatetest450Filler.json::randomStatetest450[fork_Cancun-state_test-]": {
        "env": {
            "currentCoinbase": "0x9d13d6a3384b8a698be7f2a2cb59a4381592c808",
            "currentGasLimit": "0x7fffffffffffffff",
            "currentNumber": "0x01",
            "currentTimestamp": "0x03e8",
            "currentRandom": "0x0000000000000000000000000000000000000000000000000000000000020000",
            "currentDifficulty": "0x00",
            "currentBaseFee": "0x0a",
            "currentExcessBlobGas": "0x00"
        },
        "pre": {
            "0xb1b80c184d7e6d4dee3a0dbb7586ef7d82ffbdbb": {
                "nonce": "0x00",
                "balance": "0x0de0b6b3a764000000",
                "code": "0x",
                "storage": {}
            },
            "0x9d13d6a3384b8a698be7f2a2cb59a4381592c808": {
                "nonce": "0x00",
                "balance": "0x2e",
                "code": "0x6000355415600957005b60203560003555",
                "storage": {}
            },
            "0x9d13d6a3384b8a698be7f2a2cb59a4381592c908": {
                "nonce": "0x00",
                "balance": "0x00",
                "code": "0x7f00000000000000000000000000000000000000000000000000000000000000007f0000000000000000000000009d13d6a3384b8a698be7f2a2cb59a4381592c8087fffffffffffffffffffffffffffffffffffffffffffffffffffffffffffffffff7f0000000000000000000000009d13d6a3384b8a698be7f2a2cb59a4381592c808357fffffffffffffffffffffffffffffffffffffffffffffffffffffffffffffffff7f000000000000000000000000000000000000000000000000000000000000c3507f0000000000000000000000010000000000000000000000000000000000000000033a8060005155",
                "storage": {}
            }
        },
        "transaction": {
            "nonce": "0x00",
            "gasPrice": "0x0a",
            "gasLimit": [
                "0x0186a0"
            ],
            "to": "0x9d13d6a3384b8a698be7f2a2cb59a4381592c908",
            "value": [
                "0x50f09196"
            ],
            "data": [
                "0x7f00000000000000000000000000000000000000000000000000000000000000007f0000000000000000000000009d13d6a3384b8a698be7f2a2cb59a4381592c8087fffffffffffffffffffffffffffffffffffffffffffffffffffffffffffffffff7f0000000000000000000000009d13d6a3384b8a698be7f2a2cb59a4381592c808357fffffffffffffffffffffffffffffffffffffffffffffffffffffffffffffffff7f000000000000000000000000000000000000000000000000000000000000c3507f0000000000000000000000010000000000000000000000000000000000000000033a80"
            ],
            "sender": "0xb1b80c184d7e6d4dee3a0dbb7586ef7d82ffbdbb",
            "secretKey": "0x85b404bf8db85be90a3a4a559d13d6a3384b8a698be7f2a2cb59a4381592c808"
        },
        "post": {
            "Cancun": [
                {
                    "hash": "0xbdd6a4a293b984b0a4cfd674acbddcb356c03b31675b1124e12b74c41a5dd367",
                    "logs": "0x1dcc4de8dec75d7aab85b567b6ccd41ad312451b948a7413f0a142fd40d49347",
                    "txbytes": "0xf90150800a830186a0949d13d6a3384b8a698be7f2a2cb59a4381592c9088450f09196b8eb7f00000000000000000000000000000000000000000000000000000000000000007f0000000000000000000000009d13d6a3384b8a698be7f2a2cb59a4381592c8087fffffffffffffffffffffffffffffffffffffffffffffffffffffffffffffffff7f0000000000000000000000009d13d6a3384b8a698be7f2a2cb59a4381592c808357fffffffffffffffffffffffffffffffffffffffffffffffffffffffffffffffff7f000000000000000000000000000000000000000000000000000000000000c3507f0000000000000000000000010000000000000000000000000000000000000000033a8025a0297d840a403bedea233694b8b617866abcad7fc672f8526b6c948c876eca4d42a05ef00b1a508b41a090d20aa0ac0ebc4e349e38222200c686e18d1d8b909354fc",
                    "indexes": {
                        "data": 0,
                        "gas": 0,
                        "value": 0
                    },
                    "state": {
                        "0xb1b80c184d7e6d4dee3a0dbb7586ef7d82ffbdbb": {
                            "nonce": "0x01",
                            "balance": "0x0de0b6b3a713087d30",
                            "code": "0x",
                            "storage": {}
                        },
                        "0x9d13d6a3384b8a698be7f2a2cb59a4381592c808": {
                            "nonce": "0x00",
                            "balance": "0x2e",
                            "code": "0x6000355415600957005b60203560003555",
                            "storage": {}
                        },
                        "0x9d13d6a3384b8a698be7f2a2cb59a4381592c908": {
                            "nonce": "0x00",
                            "balance": "0x50f09196",
                            "code": "0x7f00000000000000000000000000000000000000000000000000000000000000007f0000000000000000000000009d13d6a3384b8a698be7f2a2cb59a4381592c8087fffffffffffffffffffffffffffffffffffffffffffffffffffffffffffffffff7f0000000000000000000000009d13d6a3384b8a698be7f2a2cb59a4381592c808357fffffffffffffffffffffffffffffffffffffffffffffffffffffffffffffffff7f000000000000000000000000000000000000000000000000000000000000c3507f0000000000000000000000010000000000000000000000000000000000000000033a8060005155",
                            "storage": {
                                "0x00": "0x0a"
                            }
                        }
                    }
                }
            ]
        },
        "config": {
            "blobSchedule": {
                "Cancun": {
                    "target": "0x03",
                    "max": "0x06",
                    "baseFeeUpdateFraction": "0x32f0ed"
                }
            },
            "chainid": "0x01"
        },
        "_info": {
            "hash": "0x7447fdeb68d3191ca01f1470f83751fdccc973871f72300867b3a6c2a420e79f",
            "comment": "`execution-specs` generated test",
            "filling-transition-tool": "2.18.0rc6",
            "description": "No description available - add a docstring to the python test class or function.",
            "url": "",
            "fixture-format": "state_test"
        }
    },
    "tests/static/state_tests/stRandom2/randomStatetest450Filler.json::randomStatetest450[fork_Osaka-state_test-]": {
        "env": {
            "currentCoinbase": "0x9d13d6a3384b8a698be7f2a2cb59a4381592c808",
            "currentGasLimit": "0x7fffffffffffffff",
            "currentNumber": "0x01",
            "currentTimestamp": "0x03e8",
            "currentRandom": "0x0000000000000000000000000000000000000000000000000000000000020000",
            "currentDifficulty": "0x00",
            "currentBaseFee": "0x0a",
            "currentExcessBlobGas": "0x00"
        },
        "pre": {
            "0xb1b80c184d7e6d4dee3a0dbb7586ef7d82ffbdbb": {
                "nonce": "0x00",
                "balance": "0x0de0b6b3a764000000",
                "code": "0x",
                "storage": {}
            },
            "0x9d13d6a3384b8a698be7f2a2cb59a4381592c808": {
                "nonce": "0x00",
                "balance": "0x2e",
                "code": "0x6000355415600957005b60203560003555",
                "storage": {}
            },
            "0x9d13d6a3384b8a698be7f2a2cb59a4381592c908": {
                "nonce": "0x00",
                "balance": "0x00",
                "code": "0x7f00000000000000000000000000000000000000000000000000000000000000007f0000000000000000000000009d13d6a3384b8a698be7f2a2cb59a4381592c8087fffffffffffffffffffffffffffffffffffffffffffffffffffffffffffffffff7f0000000000000000000000009d13d6a3384b8a698be7f2a2cb59a4381592c808357fffffffffffffffffffffffffffffffffffffffffffffffffffffffffffffffff7f000000000000000000000000000000000000000000000000000000000000c3507f0000000000000000000000010000000000000000000000000000000000000000033a8060005155",
                "storage": {}
            }
        },
        "transaction": {
            "nonce": "0x00",
            "gasPrice": "0x0a",
            "gasLimit": [
                "0x0186a0"
            ],
            "to": "0x9d13d6a3384b8a698be7f2a2cb59a4381592c908",
            "value": [
                "0x50f09196"
            ],
            "data": [
                "0x7f00000000000000000000000000000000000000000000000000000000000000007f0000000000000000000000009d13d6a3384b8a698be7f2a2cb59a4381592c8087fffffffffffffffffffffffffffffffffffffffffffffffffffffffffffffffff7f0000000000000000000000009d13d6a3384b8a698be7f2a2cb59a4381592c808357fffffffffffffffffffffffffffffffffffffffffffffffffffffffffffffffff7f000000000000000000000000000000000000000000000000000000000000c3507f0000000000000000000000010000000000000000000000000000000000000000033a80"
            ],
            "sender": "0xb1b80c184d7e6d4dee3a0dbb7586ef7d82ffbdbb",
            "secretKey": "0x85b404bf8db85be90a3a4a559d13d6a3384b8a698be7f2a2cb59a4381592c808"
        },
        "post": {
            "Osaka": [
                {
                    "hash": "0xbdd6a4a293b984b0a4cfd674acbddcb356c03b31675b1124e12b74c41a5dd367",
                    "logs": "0x1dcc4de8dec75d7aab85b567b6ccd41ad312451b948a7413f0a142fd40d49347",
                    "txbytes": "0xf90150800a830186a0949d13d6a3384b8a698be7f2a2cb59a4381592c9088450f09196b8eb7f00000000000000000000000000000000000000000000000000000000000000007f0000000000000000000000009d13d6a3384b8a698be7f2a2cb59a4381592c8087fffffffffffffffffffffffffffffffffffffffffffffffffffffffffffffffff7f0000000000000000000000009d13d6a3384b8a698be7f2a2cb59a4381592c808357fffffffffffffffffffffffffffffffffffffffffffffffffffffffffffffffff7f000000000000000000000000000000000000000000000000000000000000c3507f0000000000000000000000010000000000000000000000000000000000000000033a8025a0297d840a403bedea233694b8b617866abcad7fc672f8526b6c948c876eca4d42a05ef00b1a508b41a090d20aa0ac0ebc4e349e38222200c686e18d1d8b909354fc",
                    "indexes": {
                        "data": 0,
                        "gas": 0,
                        "value": 0
                    },
                    "state": {
                        "0xb1b80c184d7e6d4dee3a0dbb7586ef7d82ffbdbb": {
                            "nonce": "0x01",
                            "balance": "0x0de0b6b3a713087d30",
                            "code": "0x",
                            "storage": {}
                        },
                        "0x9d13d6a3384b8a698be7f2a2cb59a4381592c808": {
                            "nonce": "0x00",
                            "balance": "0x2e",
                            "code": "0x6000355415600957005b60203560003555",
                            "storage": {}
                        },
                        "0x9d13d6a3384b8a698be7f2a2cb59a4381592c908": {
                            "nonce": "0x00",
                            "balance": "0x50f09196",
                            "code": "0x7f00000000000000000000000000000000000000000000000000000000000000007f0000000000000000000000009d13d6a3384b8a698be7f2a2cb59a4381592c8087fffffffffffffffffffffffffffffffffffffffffffffffffffffffffffffffff7f0000000000000000000000009d13d6a3384b8a698be7f2a2cb59a4381592c808357fffffffffffffffffffffffffffffffffffffffffffffffffffffffffffffffff7f000000000000000000000000000000000000000000000000000000000000c3507f0000000000000000000000010000000000000000000000000000000000000000033a8060005155",
                            "storage": {
                                "0x00": "0x0a"
                            }
                        }
                    }
                }
            ]
        },
        "config": {
            "blobSchedule": {
                "Cancun": {
                    "target": "0x03",
                    "max": "0x06",
                    "baseFeeUpdateFraction": "0x32f0ed"
                },
                "Prague": {
                    "target": "0x06",
                    "max": "0x09",
                    "baseFeeUpdateFraction": "0x4c6964"
                },
                "Osaka": {
                    "target": "0x06",
                    "max": "0x09",
                    "baseFeeUpdateFraction": "0x4c6964"
                }
            },
            "chainid": "0x01"
        },
        "_info": {
            "hash": "0x612ef68aca41cc33019ef491ed692825dc8e4a0ac3677be49fe22324700c91a6",
            "comment": "`execution-specs` generated test",
            "filling-transition-tool": "2.18.0rc6",
            "description": "No description available - add a docstring to the python test class or function.",
            "url": "",
            "fixture-format": "state_test"
        }
    },
    "tests/static/state_tests/stRandom2/randomStatetest450Filler.json::randomStatetest450[fork_Prague-state_test-]": {
        "env": {
            "currentCoinbase": "0x9d13d6a3384b8a698be7f2a2cb59a4381592c808",
            "currentGasLimit": "0x7fffffffffffffff",
            "currentNumber": "0x01",
            "currentTimestamp": "0x03e8",
            "currentRandom": "0x0000000000000000000000000000000000000000000000000000000000020000",
            "currentDifficulty": "0x00",
            "currentBaseFee": "0x0a",
            "currentExcessBlobGas": "0x00"
        },
        "pre": {
            "0xb1b80c184d7e6d4dee3a0dbb7586ef7d82ffbdbb": {
                "nonce": "0x00",
                "balance": "0x0de0b6b3a764000000",
                "code": "0x",
                "storage": {}
            },
            "0x9d13d6a3384b8a698be7f2a2cb59a4381592c808": {
                "nonce": "0x00",
                "balance": "0x2e",
                "code": "0x6000355415600957005b60203560003555",
                "storage": {}
            },
            "0x9d13d6a3384b8a698be7f2a2cb59a4381592c908": {
                "nonce": "0x00",
                "balance": "0x00",
                "code": "0x7f00000000000000000000000000000000000000000000000000000000000000007f0000000000000000000000009d13d6a3384b8a698be7f2a2cb59a4381592c8087fffffffffffffffffffffffffffffffffffffffffffffffffffffffffffffffff7f0000000000000000000000009d13d6a3384b8a698be7f2a2cb59a4381592c808357fffffffffffffffffffffffffffffffffffffffffffffffffffffffffffffffff7f000000000000000000000000000000000000000000000000000000000000c3507f0000000000000000000000010000000000000000000000000000000000000000033a8060005155",
                "storage": {}
            }
        },
        "transaction": {
            "nonce": "0x00",
            "gasPrice": "0x0a",
            "gasLimit": [
                "0x0186a0"
            ],
            "to": "0x9d13d6a3384b8a698be7f2a2cb59a4381592c908",
            "value": [
                "0x50f09196"
            ],
            "data": [
                "0x7f00000000000000000000000000000000000000000000000000000000000000007f0000000000000000000000009d13d6a3384b8a698be7f2a2cb59a4381592c8087fffffffffffffffffffffffffffffffffffffffffffffffffffffffffffffffff7f0000000000000000000000009d13d6a3384b8a698be7f2a2cb59a4381592c808357fffffffffffffffffffffffffffffffffffffffffffffffffffffffffffffffff7f000000000000000000000000000000000000000000000000000000000000c3507f0000000000000000000000010000000000000000000000000000000000000000033a80"
            ],
            "sender": "0xb1b80c184d7e6d4dee3a0dbb7586ef7d82ffbdbb",
            "secretKey": "0x85b404bf8db85be90a3a4a559d13d6a3384b8a698be7f2a2cb59a4381592c808"
        },
        "post": {
            "Prague": [
                {
                    "hash": "0xbdd6a4a293b984b0a4cfd674acbddcb356c03b31675b1124e12b74c41a5dd367",
                    "logs": "0x1dcc4de8dec75d7aab85b567b6ccd41ad312451b948a7413f0a142fd40d49347",
                    "txbytes": "0xf90150800a830186a0949d13d6a3384b8a698be7f2a2cb59a4381592c9088450f09196b8eb7f00000000000000000000000000000000000000000000000000000000000000007f0000000000000000000000009d13d6a3384b8a698be7f2a2cb59a4381592c8087fffffffffffffffffffffffffffffffffffffffffffffffffffffffffffffffff7f0000000000000000000000009d13d6a3384b8a698be7f2a2cb59a4381592c808357fffffffffffffffffffffffffffffffffffffffffffffffffffffffffffffffff7f000000000000000000000000000000000000000000000000000000000000c3507f0000000000000000000000010000000000000000000000000000000000000000033a8025a0297d840a403bedea233694b8b617866abcad7fc672f8526b6c948c876eca4d42a05ef00b1a508b41a090d20aa0ac0ebc4e349e38222200c686e18d1d8b909354fc",
                    "indexes": {
                        "data": 0,
                        "gas": 0,
                        "value": 0
                    },
                    "state": {
                        "0xb1b80c184d7e6d4dee3a0dbb7586ef7d82ffbdbb": {
                            "nonce": "0x01",
                            "balance": "0x0de0b6b3a713087d30",
                            "code": "0x",
                            "storage": {}
                        },
                        "0x9d13d6a3384b8a698be7f2a2cb59a4381592c808": {
                            "nonce": "0x00",
                            "balance": "0x2e",
                            "code": "0x6000355415600957005b60203560003555",
                            "storage": {}
                        },
                        "0x9d13d6a3384b8a698be7f2a2cb59a4381592c908": {
                            "nonce": "0x00",
                            "balance": "0x50f09196",
                            "code": "0x7f00000000000000000000000000000000000000000000000000000000000000007f0000000000000000000000009d13d6a3384b8a698be7f2a2cb59a4381592c8087fffffffffffffffffffffffffffffffffffffffffffffffffffffffffffffffff7f0000000000000000000000009d13d6a3384b8a698be7f2a2cb59a4381592c808357fffffffffffffffffffffffffffffffffffffffffffffffffffffffffffffffff7f000000000000000000000000000000000000000000000000000000000000c3507f0000000000000000000000010000000000000000000000000000000000000000033a8060005155",
                            "storage": {
                                "0x00": "0x0a"
                            }
                        }
                    }
                }
            ]
        },
        "config": {
            "blobSchedule": {
                "Cancun": {
                    "target": "0x03",
                    "max": "0x06",
                    "baseFeeUpdateFraction": "0x32f0ed"
                },
                "Prague": {
                    "target": "0x06",
                    "max": "0x09",
                    "baseFeeUpdateFraction": "0x4c6964"
                }
            },
            "chainid": "0x01"
        },
        "_info": {
            "hash": "0xe6ba03044373be7e11ff26a0194bf515a9cbf75697fe8fa8c7790c2cd923055d",
            "comment": "`execution-specs` generated test",
            "filling-transition-tool": "2.18.0rc6",
            "description": "No description available - add a docstring to the python test class or function.",
            "url": "",
            "fixture-format": "state_test"
        }
    }
}