{
    "tests/static/state_tests/stRandom2/randomStatetest435Filler.json::randomStatetest435[fork_Cancun-state_test-]": {
        "env": {
            "currentCoinbase": "0x81c52c253078ca94eca4c857468caa4e3de1b066",
            "currentGasLimit": "0x7fffffffffffffff",
            "currentNumber": "0x01",
            "currentTimestamp": "0x03e8",
            "currentRandom": "0x0000000000000000000000000000000000000000000000000000000000020000",
            "currentDifficulty": "0x00",
            "currentBaseFee": "0x0a",
            "currentExcessBlobGas": "0x00"
        },
        "pre": {
            "0x4d5193e24408a57202b4f0446c1f79a9fed461fb": {
                "nonce": "0x00",
                "balance": "0x0de0b6b3a7640000",
                "code": "0x",
                "storage": {}
            },
            "0x81c52c253078ca94eca4c857468caa4e3de1b066": {
                "nonce": "0x00",
                "balance": "0x2e",
                "code": "0x6000355415600957005b60203560003555",
                "storage": {}
            },
            "0x81c52c253078ca94eca4c857468caa4e3de1b166": {
                "nonce": "0x00",
                "balance": "0x00",
                "code": "0x7f00000000000000000000000000000000000000000000000000000000000000017f0000000000000000000000000000000000000000000000000000000000000000447ffffffffffffffffffffffffffffffffffffffffffffffffffffffffffffffffe7f000000000000000000000000000000000000000000000000000000000000c3507f00000000000000000000000100000000000000000000000000000000000000007f000000000000000000000000000000000000000000000000000000000000000042613488076233797f553960005155",
                "storage": {}
            }
        },
        "transaction": {
            "nonce": "0x00",
            "gasPrice": "0x0a",
            "gasLimit": [
                "0x0186a0"
            ],
            "to": "0x81c52c253078ca94eca4c857468caa4e3de1b166",
            "value": [
                "0x4adf9c16"
            ],
            "data": [
                "0x7f00000000000000000000000000000000000000000000000000000000000000017f0000000000000000000000000000000000000000000000000000000000000000447ffffffffffffffffffffffffffffffffffffffffffffffffffffffffffffffffe7f000000000000000000000000000000000000000000000000000000000000c3507f00000000000000000000000100000000000000000000000000000000000000007f000000000000000000000000000000000000000000000000000000000000000042613488076233797f5539"
            ],
            "sender": "0x4d5193e24408a57202b4f0446c1f79a9fed461fb",
            "secretKey": "0xfe4403a8ba09941c8e6d64a481c52c253078ca94eca4c857468caa4e3de1b066"
        },
        "post": {
            "Cancun": [
                {
                    "hash": "0xb3d836926f869edd0cf9d7c9de27ccf617354efdc74a02fa327a5491df8b70a1",
                    "logs": "0x1dcc4de8dec75d7aab85b567b6ccd41ad312451b948a7413f0a142fd40d49347",
                    "txbytes": "0xf90137800a830186a09481c52c253078ca94eca4c857468caa4e3de1b166844adf9c16b8d27f00000000000000000000000000000000000000000000000000000000000000017f0000000000000000000000000000000000000000000000000000000000000000447ffffffffffffffffffffffffffffffffffffffffffffffffffffffffffffffffe7f000000000000000000000000000000000000000000000000000000000000c3507f00000000000000000000000100000000000000000000000000000000000000007f000000000000000000000000000000000000000000000000000000000000000042613488076233797f553926a03aebe7687c68d783fab293c51166a13c2dcabd519e19e926eeaafb07a1963593a07f91501fd765bfa0132d03dd6e6f6a0cd15d53dcf0bef50cca345f9d04120441",
                    "indexes": {
                        "data": 0,
                        "gas": 0,
                        "value": 0
                    },
                    "state": {
                        "0x4d5193e24408a57202b4f0446c1f79a9fed461fb": {
                            "nonce": "0x01",
                            "balance": "0x0de0b6b35c780c94",
                            "code": "0x",
                            "storage": {}
                        },
                        "0x81c52c253078ca94eca4c857468caa4e3de1b066": {
                            "nonce": "0x00",
                            "balance": "0x2e",
                            "code": "0x6000355415600957005b60203560003555",
                            "storage": {}
                        },
                        "0x81c52c253078ca94eca4c857468caa4e3de1b166": {
                            "nonce": "0x00",
                            "balance": "0x4adf9c16",
                            "code": "0x7f00000000000000000000000000000000000000000000000000000000000000017f0000000000000000000000000000000000000000000000000000000000000000447ffffffffffffffffffffffffffffffffffffffffffffffffffffffffffffffffe7f000000000000000000000000000000000000000000000000000000000000c3507f00000000000000000000000100000000000000000000000000000000000000007f000000000000000000000000000000000000000000000000000000000000000042613488076233797f553960005155",
                            "storage": {
                                "0x33797f": "0x01c0",
                                "0x00": "0xfffffffffffffffffffffffffffffffffffffffffffffffffffffffffffffffe"
                            }
                        }
                    }
                }
            ]
        },
        "config": {
            "blobSchedule": {
                "Cancun": {
                    "target": "0x03",
                    "max": "0x06",
                    "baseFeeUpdateFraction": "0x32f0ed"
                }
            },
            "chainid": "0x01"
        },
        "_info": {
            "hash": "0xcd4f808377bbbdc2447d8b243b23547db65a012c380cc40e07f20997119e9982",
            "comment": "`execution-spec-tests` generated test",
            "filling-transition-tool": "ethereum-spec-evm-resolver 0.0.5",
            "description": "No description available - add a docstring to the python test class or function.",
            "url": "",
            "fixture-format": "state_test",
            "eels-resolution": {
                "git-url": "https://github.com/ethereum/execution-specs.git",
                "branch": "forks/bpos",
                "commit": "7aacb2c54111391af5e98c505d5010b5698a770f"
            }
        }
    },
    "tests/static/state_tests/stRandom2/randomStatetest435Filler.json::randomStatetest435[fork_Osaka-state_test-]": {
        "env": {
            "currentCoinbase": "0x81c52c253078ca94eca4c857468caa4e3de1b066",
            "currentGasLimit": "0x7fffffffffffffff",
            "currentNumber": "0x01",
            "currentTimestamp": "0x03e8",
            "currentRandom": "0x0000000000000000000000000000000000000000000000000000000000020000",
            "currentDifficulty": "0x00",
            "currentBaseFee": "0x0a",
            "currentExcessBlobGas": "0x00"
        },
        "pre": {
            "0x4d5193e24408a57202b4f0446c1f79a9fed461fb": {
                "nonce": "0x00",
                "balance": "0x0de0b6b3a7640000",
                "code": "0x",
                "storage": {}
            },
            "0x81c52c253078ca94eca4c857468caa4e3de1b066": {
                "nonce": "0x00",
                "balance": "0x2e",
                "code": "0x6000355415600957005b60203560003555",
                "storage": {}
            },
            "0x81c52c253078ca94eca4c857468caa4e3de1b166": {
                "nonce": "0x00",
                "balance": "0x00",
                "code": "0x7f00000000000000000000000000000000000000000000000000000000000000017f0000000000000000000000000000000000000000000000000000000000000000447ffffffffffffffffffffffffffffffffffffffffffffffffffffffffffffffffe7f000000000000000000000000000000000000000000000000000000000000c3507f00000000000000000000000100000000000000000000000000000000000000007f000000000000000000000000000000000000000000000000000000000000000042613488076233797f553960005155",
                "storage": {}
            }
        },
        "transaction": {
            "nonce": "0x00",
            "gasPrice": "0x0a",
            "gasLimit": [
                "0x0186a0"
            ],
            "to": "0x81c52c253078ca94eca4c857468caa4e3de1b166",
            "value": [
                "0x4adf9c16"
            ],
            "data": [
                "0x7f00000000000000000000000000000000000000000000000000000000000000017f0000000000000000000000000000000000000000000000000000000000000000447ffffffffffffffffffffffffffffffffffffffffffffffffffffffffffffffffe7f000000000000000000000000000000000000000000000000000000000000c3507f00000000000000000000000100000000000000000000000000000000000000007f000000000000000000000000000000000000000000000000000000000000000042613488076233797f5539"
            ],
            "sender": "0x4d5193e24408a57202b4f0446c1f79a9fed461fb",
            "secretKey": "0xfe4403a8ba09941c8e6d64a481c52c253078ca94eca4c857468caa4e3de1b066"
        },
        "post": {
            "Osaka": [
                {
                    "hash": "0xb3d836926f869edd0cf9d7c9de27ccf617354efdc74a02fa327a5491df8b70a1",
                    "logs": "0x1dcc4de8dec75d7aab85b567b6ccd41ad312451b948a7413f0a142fd40d49347",
                    "txbytes": "0xf90137800a830186a09481c52c253078ca94eca4c857468caa4e3de1b166844adf9c16b8d27f00000000000000000000000000000000000000000000000000000000000000017f0000000000000000000000000000000000000000000000000000000000000000447ffffffffffffffffffffffffffffffffffffffffffffffffffffffffffffffffe7f000000000000000000000000000000000000000000000000000000000000c3507f00000000000000000000000100000000000000000000000000000000000000007f000000000000000000000000000000000000000000000000000000000000000042613488076233797f553926a03aebe7687c68d783fab293c51166a13c2dcabd519e19e926eeaafb07a1963593a07f91501fd765bfa0132d03dd6e6f6a0cd15d53dcf0bef50cca345f9d04120441",
                    "indexes": {
                        "data": 0,
                        "gas": 0,
                        "value": 0
                    },
                    "state": {
                        "0x4d5193e24408a57202b4f0446c1f79a9fed461fb": {
                            "nonce": "0x01",
                            "balance": "0x0de0b6b35c780c94",
                            "code": "0x",
                            "storage": {}
                        },
                        "0x81c52c253078ca94eca4c857468caa4e3de1b066": {
                            "nonce": "0x00",
                            "balance": "0x2e",
                            "code": "0x6000355415600957005b60203560003555",
                            "storage": {}
                        },
                        "0x81c52c253078ca94eca4c857468caa4e3de1b166": {
                            "nonce": "0x00",
                            "balance": "0x4adf9c16",
                            "code": "0x7f00000000000000000000000000000000000000000000000000000000000000017f0000000000000000000000000000000000000000000000000000000000000000447ffffffffffffffffffffffffffffffffffffffffffffffffffffffffffffffffe7f000000000000000000000000000000000000000000000000000000000000c3507f00000000000000000000000100000000000000000000000000000000000000007f000000000000000000000000000000000000000000000000000000000000000042613488076233797f553960005155",
                            "storage": {
                                "0x33797f": "0x01c0",
                                "0x00": "0xfffffffffffffffffffffffffffffffffffffffffffffffffffffffffffffffe"
                            }
                        }
                    }
                }
            ]
        },
        "config": {
            "blobSchedule": {
                "Cancun": {
                    "target": "0x03",
                    "max": "0x06",
                    "baseFeeUpdateFraction": "0x32f0ed"
                },
                "Prague": {
                    "target": "0x06",
                    "max": "0x09",
                    "baseFeeUpdateFraction": "0x4c6964"
                },
                "Osaka": {
                    "target": "0x06",
                    "max": "0x09",
                    "baseFeeUpdateFraction": "0x4c6964"
                }
            },
            "chainid": "0x01"
        },
        "_info": {
            "hash": "0xd85aa3c414871da76035dfae7df5e62d3fe808dfb1dba3564e906cc8ca784221",
            "comment": "`execution-spec-tests` generated test",
            "filling-transition-tool": "ethereum-spec-evm-resolver 0.0.5",
            "description": "No description available - add a docstring to the python test class or function.",
            "url": "",
            "fixture-format": "state_test",
            "eels-resolution": {
                "git-url": "https://github.com/ethereum/execution-specs.git",
                "branch": "forks/bpos",
                "commit": "7aacb2c54111391af5e98c505d5010b5698a770f"
            }
        }
    },
    "tests/static/state_tests/stRandom2/randomStatetest435Filler.json::randomStatetest435[fork_Prague-state_test-]": {
        "env": {
            "currentCoinbase": "0x81c52c253078ca94eca4c857468caa4e3de1b066",
            "currentGasLimit": "0x7fffffffffffffff",
            "currentNumber": "0x01",
            "currentTimestamp": "0x03e8",
            "currentRandom": "0x0000000000000000000000000000000000000000000000000000000000020000",
            "currentDifficulty": "0x00",
            "currentBaseFee": "0x0a",
            "currentExcessBlobGas": "0x00"
        },
        "pre": {
            "0x4d5193e24408a57202b4f0446c1f79a9fed461fb": {
                "nonce": "0x00",
                "balance": "0x0de0b6b3a7640000",
                "code": "0x",
                "storage": {}
            },
            "0x81c52c253078ca94eca4c857468caa4e3de1b066": {
                "nonce": "0x00",
                "balance": "0x2e",
                "code": "0x6000355415600957005b60203560003555",
                "storage": {}
            },
            "0x81c52c253078ca94eca4c857468caa4e3de1b166": {
                "nonce": "0x00",
                "balance": "0x00",
                "code": "0x7f00000000000000000000000000000000000000000000000000000000000000017f0000000000000000000000000000000000000000000000000000000000000000447ffffffffffffffffffffffffffffffffffffffffffffffffffffffffffffffffe7f000000000000000000000000000000000000000000000000000000000000c3507f00000000000000000000000100000000000000000000000000000000000000007f000000000000000000000000000000000000000000000000000000000000000042613488076233797f553960005155",
                "storage": {}
            }
        },
        "transaction": {
            "nonce": "0x00",
            "gasPrice": "0x0a",
            "gasLimit": [
                "0x0186a0"
            ],
            "to": "0x81c52c253078ca94eca4c857468caa4e3de1b166",
            "value": [
                "0x4adf9c16"
            ],
            "data": [
                "0x7f00000000000000000000000000000000000000000000000000000000000000017f0000000000000000000000000000000000000000000000000000000000000000447ffffffffffffffffffffffffffffffffffffffffffffffffffffffffffffffffe7f000000000000000000000000000000000000000000000000000000000000c3507f00000000000000000000000100000000000000000000000000000000000000007f000000000000000000000000000000000000000000000000000000000000000042613488076233797f5539"
            ],
            "sender": "0x4d5193e24408a57202b4f0446c1f79a9fed461fb",
            "secretKey": "0xfe4403a8ba09941c8e6d64a481c52c253078ca94eca4c857468caa4e3de1b066"
        },
        "post": {
            "Prague": [
                {
                    "hash": "0xb3d836926f869edd0cf9d7c9de27ccf617354efdc74a02fa327a5491df8b70a1",
                    "logs": "0x1dcc4de8dec75d7aab85b567b6ccd41ad312451b948a7413f0a142fd40d49347",
                    "txbytes": "0xf90137800a830186a09481c52c253078ca94eca4c857468caa4e3de1b166844adf9c16b8d27f00000000000000000000000000000000000000000000000000000000000000017f0000000000000000000000000000000000000000000000000000000000000000447ffffffffffffffffffffffffffffffffffffffffffffffffffffffffffffffffe7f000000000000000000000000000000000000000000000000000000000000c3507f00000000000000000000000100000000000000000000000000000000000000007f000000000000000000000000000000000000000000000000000000000000000042613488076233797f553926a03aebe7687c68d783fab293c51166a13c2dcabd519e19e926eeaafb07a1963593a07f91501fd765bfa0132d03dd6e6f6a0cd15d53dcf0bef50cca345f9d04120441",
                    "indexes": {
                        "data": 0,
                        "gas": 0,
                        "value": 0
                    },
                    "state": {
                        "0x4d5193e24408a57202b4f0446c1f79a9fed461fb": {
                            "nonce": "0x01",
                            "balance": "0x0de0b6b35c780c94",
                            "code": "0x",
                            "storage": {}
                        },
                        "0x81c52c253078ca94eca4c857468caa4e3de1b066": {
                            "nonce": "0x00",
                            "balance": "0x2e",
                            "code": "0x6000355415600957005b60203560003555",
                            "storage": {}
                        },
                        "0x81c52c253078ca94eca4c857468caa4e3de1b166": {
                            "nonce": "0x00",
                            "balance": "0x4adf9c16",
                            "code": "0x7f00000000000000000000000000000000000000000000000000000000000000017f0000000000000000000000000000000000000000000000000000000000000000447ffffffffffffffffffffffffffffffffffffffffffffffffffffffffffffffffe7f000000000000000000000000000000000000000000000000000000000000c3507f00000000000000000000000100000000000000000000000000000000000000007f000000000000000000000000000000000000000000000000000000000000000042613488076233797f553960005155",
                            "storage": {
                                "0x33797f": "0x01c0",
                                "0x00": "0xfffffffffffffffffffffffffffffffffffffffffffffffffffffffffffffffe"
                            }
                        }
                    }
                }
            ]
        },
        "config": {
            "blobSchedule": {
                "Cancun": {
                    "target": "0x03",
                    "max": "0x06",
                    "baseFeeUpdateFraction": "0x32f0ed"
                },
                "Prague": {
                    "target": "0x06",
                    "max": "0x09",
                    "baseFeeUpdateFraction": "0x4c6964"
                }
            },
            "chainid": "0x01"
        },
        "_info": {
            "hash": "0x0df4caa5a1285ff280528e6bf9daa2a9259116e3c04601254a99264b19536cf7",
            "comment": "`execution-spec-tests` generated test",
            "filling-transition-tool": "ethereum-spec-evm-resolver 0.0.5",
            "description": "No description available - add a docstring to the python test class or function.",
            "url": "",
            "fixture-format": "state_test",
            "eels-resolution": {
                "git-url": "https://github.com/ethereum/execution-specs.git",
                "branch": "forks/bpos",
                "commit": "7aacb2c54111391af5e98c505d5010b5698a770f"
            }
        }
    }
}