{
    "tests/static/state_tests/stRandom2/randomStatetest495Filler.json::randomStatetest495[fork_Cancun-state_test-]": {
        "env": {
            "currentCoinbase": "0xd9d90efea6782e6c12b0580a46734efb8eccc197",
            "currentGasLimit": "0x7fffffffffffffff",
            "currentNumber": "0x01",
            "currentTimestamp": "0x03e8",
            "currentRandom": "0x0000000000000000000000000000000000000000000000000000000000020000",
            "currentDifficulty": "0x00",
            "currentBaseFee": "0x0a",
            "currentExcessBlobGas": "0x00"
        },
        "pre": {
            "0x7d9e4959a2bce544cb828ad9757aff77034f83b0": {
                "nonce": "0x00",
                "balance": "0x0de0b6b3a7640000",
                "code": "0x",
                "storage": {}
            },
            "0xd9d90efea6782e6c12b0580a46734efb8eccc197": {
                "nonce": "0x00",
                "balance": "0x2e",
                "code": "0x6000355415600957005b60203560003555",
                "storage": {}
            },
            "0xd9d90efea6782e6c12b0580a46734efb8eccc297": {
                "nonce": "0x00",
                "balance": "0x00",
                "code": "0x7f000000000000000000000000d9d90efea6782e6c12b0580a46734efb8eccc1977f000000000000000000000000ffffffffffffffffffffffffffffffffffffffff7ffffffffffffffffffffffffffffffffffffffffffffffffffffffffffffffffe7f000000000000000000000000d9d90efea6782e6c12b0580a46734efb8eccc1977f00000000000000000000000100000000000000000000000000000000000000006f427ffffffffffffffffffffffffffffffffffffffffffffffffffffffffffffffffe7e6410f26f519c538ea2070a6c60005155",
                "storage": {}
            }
        },
        "transaction": {
            "nonce": "0x00",
            "gasPrice": "0x0a",
            "gasLimit": [
                "0x0186a0"
            ],
            "to": "0xd9d90efea6782e6c12b0580a46734efb8eccc297",
            "value": [
                "0x0ca044ee"
            ],
            "data": [
                "0x7f000000000000000000000000d9d90efea6782e6c12b0580a46734efb8eccc1977f000000000000000000000000ffffffffffffffffffffffffffffffffffffffff7ffffffffffffffffffffffffffffffffffffffffffffffffffffffffffffffffe7f000000000000000000000000d9d90efea6782e6c12b0580a46734efb8eccc1977f00000000000000000000000100000000000000000000000000000000000000006f427ffffffffffffffffffffffffffffffffffffffffffffffffffffffffffffffffe7e6410f26f519c538ea2070a6c"
            ],
            "sender": "0x7d9e4959a2bce544cb828ad9757aff77034f83b0",
            "secretKey": "0xabbd94d02274352face9d793d9d90efea6782e6c12b0580a46734efb8eccc197"
        },
        "post": {
            "Cancun": [
                {
                    "hash": "0x6ed6756efc4b5517881a8ffd6ac7440c278954bf070986766974e947532d9123",
                    "logs": "0x1dcc4de8dec75d7aab85b567b6ccd41ad312451b948a7413f0a142fd40d49347",
                    "txbytes": "0xf9013a800a830186a094d9d90efea6782e6c12b0580a46734efb8eccc297840ca044eeb8d57f000000000000000000000000d9d90efea6782e6c12b0580a46734efb8eccc1977f000000000000000000000000ffffffffffffffffffffffffffffffffffffffff7ffffffffffffffffffffffffffffffffffffffffffffffffffffffffffffffffe7f000000000000000000000000d9d90efea6782e6c12b0580a46734efb8eccc1977f00000000000000000000000100000000000000000000000000000000000000006f427ffffffffffffffffffffffffffffffffffffffffffffffffffffffffffffffffe7e6410f26f519c538ea2070a6c25a02675c2fc2ac7578c916bdd00f1088d35b0ce46db5a558dd98851090a3b9a0bc6a0734181baa9a305f11f80a70b6eb7e32f90413fea64863a206f1394e431a6eb33",
                    "indexes": {
                        "data": 0,
                        "gas": 0,
                        "value": 0
                    },
                    "state": {
                        "0x7d9e4959a2bce544cb828ad9757aff77034f83b0": {
                            "nonce": "0x01",
                            "balance": "0x0de0b6b39abb26e6",
                            "code": "0x",
                            "storage": {}
                        },
                        "0xd9d90efea6782e6c12b0580a46734efb8eccc197": {
                            "nonce": "0x00",
                            "balance": "0x2e",
                            "code": "0x6000355415600957005b60203560003555",
                            "storage": {}
                        },
                        "0xd9d90efea6782e6c12b0580a46734efb8eccc297": {
                            "nonce": "0x00",
                            "balance": "0x00",
                            "code": "0x7f000000000000000000000000d9d90efea6782e6c12b0580a46734efb8eccc1977f000000000000000000000000ffffffffffffffffffffffffffffffffffffffff7ffffffffffffffffffffffffffffffffffffffffffffffffffffffffffffffffe7f000000000000000000000000d9d90efea6782e6c12b0580a46734efb8eccc1977f00000000000000000000000100000000000000000000000000000000000000006f427ffffffffffffffffffffffffffffffffffffffffffffffffffffffffffffffffe7e6410f26f519c538ea2070a6c60005155",
                            "storage": {}
                        },
                        "0x00000000427fffffffffffffffffffffffffffff": {
                            "nonce": "0x00",
                            "balance": "0x0ca044ee",
                            "code": "0x",
                            "storage": {}
                        }
                    }
                }
            ]
        },
        "config": {
            "blobSchedule": {
                "Cancun": {
                    "target": "0x03",
                    "max": "0x06",
                    "baseFeeUpdateFraction": "0x32f0ed"
                }
            },
            "chainid": "0x01"
        },
        "_info": {
            "hash": "0x112a9f4a9573ed4cc4be9b54aef0354d8c3f0e72a1a8fc30e4879b25d60aa2d0",
            "comment": "`execution-spec-tests` generated test",
            "filling-transition-tool": "ethereum-spec-evm-resolver 0.0.5",
            "description": "No description available - add a docstring to the python test class or function.",
            "url": "",
            "fixture-format": "state_test",
            "eels-resolution": {
                "git-url": "https://github.com/ethereum/execution-specs.git",
                "branch": "forks/bpos",
                "commit": "7aacb2c54111391af5e98c505d5010b5698a770f"
            }
        }
    },
    "tests/static/state_tests/stRandom2/randomStatetest495Filler.json::randomStatetest495[fork_Osaka-state_test-]": {
        "env": {
            "currentCoinbase": "0xd9d90efea6782e6c12b0580a46734efb8eccc197",
            "currentGasLimit": "0x7fffffffffffffff",
            "currentNumber": "0x01",
            "currentTimestamp": "0x03e8",
            "currentRandom": "0x0000000000000000000000000000000000000000000000000000000000020000",
            "currentDifficulty": "0x00",
            "currentBaseFee": "0x0a",
            "currentExcessBlobGas": "0x00"
        },
        "pre": {
            "0x7d9e4959a2bce544cb828ad9757aff77034f83b0": {
                "nonce": "0x00",
                "balance": "0x0de0b6b3a7640000",
                "code": "0x",
                "storage": {}
            },
            "0xd9d90efea6782e6c12b0580a46734efb8eccc197": {
                "nonce": "0x00",
                "balance": "0x2e",
                "code": "0x6000355415600957005b60203560003555",
                "storage": {}
            },
            "0xd9d90efea6782e6c12b0580a46734efb8eccc297": {
                "nonce": "0x00",
                "balance": "0x00",
                "code": "0x7f000000000000000000000000d9d90efea6782e6c12b0580a46734efb8eccc1977f000000000000000000000000ffffffffffffffffffffffffffffffffffffffff7ffffffffffffffffffffffffffffffffffffffffffffffffffffffffffffffffe7f000000000000000000000000d9d90efea6782e6c12b0580a46734efb8eccc1977f00000000000000000000000100000000000000000000000000000000000000006f427ffffffffffffffffffffffffffffffffffffffffffffffffffffffffffffffffe7e6410f26f519c538ea2070a6c60005155",
                "storage": {}
            }
        },
        "transaction": {
            "nonce": "0x00",
            "gasPrice": "0x0a",
            "gasLimit": [
                "0x0186a0"
            ],
            "to": "0xd9d90efea6782e6c12b0580a46734efb8eccc297",
            "value": [
                "0x0ca044ee"
            ],
            "data": [
                "0x7f000000000000000000000000d9d90efea6782e6c12b0580a46734efb8eccc1977f000000000000000000000000ffffffffffffffffffffffffffffffffffffffff7ffffffffffffffffffffffffffffffffffffffffffffffffffffffffffffffffe7f000000000000000000000000d9d90efea6782e6c12b0580a46734efb8eccc1977f00000000000000000000000100000000000000000000000000000000000000006f427ffffffffffffffffffffffffffffffffffffffffffffffffffffffffffffffffe7e6410f26f519c538ea2070a6c"
            ],
            "sender": "0x7d9e4959a2bce544cb828ad9757aff77034f83b0",
            "secretKey": "0xabbd94d02274352face9d793d9d90efea6782e6c12b0580a46734efb8eccc197"
        },
        "post": {
            "Osaka": [
                {
                    "hash": "0x6ed6756efc4b5517881a8ffd6ac7440c278954bf070986766974e947532d9123",
                    "logs": "0x1dcc4de8dec75d7aab85b567b6ccd41ad312451b948a7413f0a142fd40d49347",
                    "txbytes": "0xf9013a800a830186a094d9d90efea6782e6c12b0580a46734efb8eccc297840ca044eeb8d57f000000000000000000000000d9d90efea6782e6c12b0580a46734efb8eccc1977f000000000000000000000000ffffffffffffffffffffffffffffffffffffffff7ffffffffffffffffffffffffffffffffffffffffffffffffffffffffffffffffe7f000000000000000000000000d9d90efea6782e6c12b0580a46734efb8eccc1977f00000000000000000000000100000000000000000000000000000000000000006f427ffffffffffffffffffffffffffffffffffffffffffffffffffffffffffffffffe7e6410f26f519c538ea2070a6c25a02675c2fc2ac7578c916bdd00f1088d35b0ce46db5a558dd98851090a3b9a0bc6a0734181baa9a305f11f80a70b6eb7e32f90413fea64863a206f1394e431a6eb33",
                    "indexes": {
                        "data": 0,
                        "gas": 0,
                        "value": 0
                    },
                    "state": {
                        "0x7d9e4959a2bce544cb828ad9757aff77034f83b0": {
                            "nonce": "0x01",
                            "balance": "0x0de0b6b39abb26e6",
                            "code": "0x",
                            "storage": {}
                        },
                        "0xd9d90efea6782e6c12b0580a46734efb8eccc197": {
                            "nonce": "0x00",
                            "balance": "0x2e",
                            "code": "0x6000355415600957005b60203560003555",
                            "storage": {}
                        },
                        "0xd9d90efea6782e6c12b0580a46734efb8eccc297": {
                            "nonce": "0x00",
                            "balance": "0x00",
                            "code": "0x7f000000000000000000000000d9d90efea6782e6c12b0580a46734efb8eccc1977f000000000000000000000000ffffffffffffffffffffffffffffffffffffffff7ffffffffffffffffffffffffffffffffffffffffffffffffffffffffffffffffe7f000000000000000000000000d9d90efea6782e6c12b0580a46734efb8eccc1977f00000000000000000000000100000000000000000000000000000000000000006f427ffffffffffffffffffffffffffffffffffffffffffffffffffffffffffffffffe7e6410f26f519c538ea2070a6c60005155",
                            "storage": {}
                        },
                        "0x00000000427fffffffffffffffffffffffffffff": {
                            "nonce": "0x00",
                            "balance": "0x0ca044ee",
                            "code": "0x",
                            "storage": {}
                        }
                    }
                }
            ]
        },
        "config": {
            "blobSchedule": {
                "Cancun": {
                    "target": "0x03",
                    "max": "0x06",
                    "baseFeeUpdateFraction": "0x32f0ed"
                },
                "Prague": {
                    "target": "0x06",
                    "max": "0x09",
                    "baseFeeUpdateFraction": "0x4c6964"
                },
                "Osaka": {
                    "target": "0x06",
                    "max": "0x09",
                    "baseFeeUpdateFraction": "0x4c6964"
                }
            },
            "chainid": "0x01"
        },
        "_info": {
            "hash": "0xeabad91fccdcba5d8c282f7d65392d01eb685a637ec47a7f59e868682b4370a2",
            "comment": "`execution-spec-tests` generated test",
            "filling-transition-tool": "ethereum-spec-evm-resolver 0.0.5",
            "description": "No description available - add a docstring to the python test class or function.",
            "url": "",
            "fixture-format": "state_test",
            "eels-resolution": {
                "git-url": "https://github.com/ethereum/execution-specs.git",
                "branch": "forks/bpos",
                "commit": "7aacb2c54111391af5e98c505d5010b5698a770f"
            }
        }
    },
    "tests/static/state_tests/stRandom2/randomStatetest495Filler.json::randomStatetest495[fork_Prague-state_test-]": {
        "env": {
            "currentCoinbase": "0xd9d90efea6782e6c12b0580a46734efb8eccc197",
            "currentGasLimit": "0x7fffffffffffffff",
            "currentNumber": "0x01",
            "currentTimestamp": "0x03e8",
            "currentRandom": "0x0000000000000000000000000000000000000000000000000000000000020000",
            "currentDifficulty": "0x00",
            "currentBaseFee": "0x0a",
            "currentExcessBlobGas": "0x00"
        },
        "pre": {
            "0x7d9e4959a2bce544cb828ad9757aff77034f83b0": {
                "nonce": "0x00",
                "balance": "0x0de0b6b3a7640000",
                "code": "0x",
                "storage": {}
            },
            "0xd9d90efea6782e6c12b0580a46734efb8eccc197": {
                "nonce": "0x00",
                "balance": "0x2e",
                "code": "0x6000355415600957005b60203560003555",
                "storage": {}
            },
            "0xd9d90efea6782e6c12b0580a46734efb8eccc297": {
                "nonce": "0x00",
                "balance": "0x00",
                "code": "0x7f000000000000000000000000d9d90efea6782e6c12b0580a46734efb8eccc1977f000000000000000000000000ffffffffffffffffffffffffffffffffffffffff7ffffffffffffffffffffffffffffffffffffffffffffffffffffffffffffffffe7f000000000000000000000000d9d90efea6782e6c12b0580a46734efb8eccc1977f00000000000000000000000100000000000000000000000000000000000000006f427ffffffffffffffffffffffffffffffffffffffffffffffffffffffffffffffffe7e6410f26f519c538ea2070a6c60005155",
                "storage": {}
            }
        },
        "transaction": {
            "nonce": "0x00",
            "gasPrice": "0x0a",
            "gasLimit": [
                "0x0186a0"
            ],
            "to": "0xd9d90efea6782e6c12b0580a46734efb8eccc297",
            "value": [
                "0x0ca044ee"
            ],
            "data": [
                "0x7f000000000000000000000000d9d90efea6782e6c12b0580a46734efb8eccc1977f000000000000000000000000ffffffffffffffffffffffffffffffffffffffff7ffffffffffffffffffffffffffffffffffffffffffffffffffffffffffffffffe7f000000000000000000000000d9d90efea6782e6c12b0580a46734efb8eccc1977f00000000000000000000000100000000000000000000000000000000000000006f427ffffffffffffffffffffffffffffffffffffffffffffffffffffffffffffffffe7e6410f26f519c538ea2070a6c"
            ],
            "sender": "0x7d9e4959a2bce544cb828ad9757aff77034f83b0",
            "secretKey": "0xabbd94d02274352face9d793d9d90efea6782e6c12b0580a46734efb8eccc197"
        },
        "post": {
            "Prague": [
                {
                    "hash": "0x6ed6756efc4b5517881a8ffd6ac7440c278954bf070986766974e947532d9123",
                    "logs": "0x1dcc4de8dec75d7aab85b567b6ccd41ad312451b948a7413f0a142fd40d49347",
                    "txbytes": "0xf9013a800a830186a094d9d90efea6782e6c12b0580a46734efb8eccc297840ca044eeb8d57f000000000000000000000000d9d90efea6782e6c12b0580a46734efb8eccc1977f000000000000000000000000ffffffffffffffffffffffffffffffffffffffff7ffffffffffffffffffffffffffffffffffffffffffffffffffffffffffffffffe7f000000000000000000000000d9d90efea6782e6c12b0580a46734efb8eccc1977f00000000000000000000000100000000000000000000000000000000000000006f427ffffffffffffffffffffffffffffffffffffffffffffffffffffffffffffffffe7e6410f26f519c538ea2070a6c25a02675c2fc2ac7578c916bdd00f1088d35b0ce46db5a558dd98851090a3b9a0bc6a0734181baa9a305f11f80a70b6eb7e32f90413fea64863a206f1394e431a6eb33",
                    "indexes": {
                        "data": 0,
                        "gas": 0,
                        "value": 0
                    },
                    "state": {
                        "0x7d9e4959a2bce544cb828ad9757aff77034f83b0": {
                            "nonce": "0x01",
                            "balance": "0x0de0b6b39abb26e6",
                            "code": "0x",
                            "storage": {}
                        },
                        "0xd9d90efea6782e6c12b0580a46734efb8eccc197": {
                            "nonce": "0x00",
                            "balance": "0x2e",
                            "code": "0x6000355415600957005b60203560003555",
                            "storage": {}
                        },
                        "0xd9d90efea6782e6c12b0580a46734efb8eccc297": {
                            "nonce": "0x00",
                            "balance": "0x00",
                            "code": "0x7f000000000000000000000000d9d90efea6782e6c12b0580a46734efb8eccc1977f000000000000000000000000ffffffffffffffffffffffffffffffffffffffff7ffffffffffffffffffffffffffffffffffffffffffffffffffffffffffffffffe7f000000000000000000000000d9d90efea6782e6c12b0580a46734efb8eccc1977f00000000000000000000000100000000000000000000000000000000000000006f427ffffffffffffffffffffffffffffffffffffffffffffffffffffffffffffffffe7e6410f26f519c538ea2070a6c60005155",
                            "storage": {}
                        },
                        "0x00000000427fffffffffffffffffffffffffffff": {
                            "nonce": "0x00",
                            "balance": "0x0ca044ee",
                            "code": "0x",
                            "storage": {}
                        }
                    }
                }
            ]
        },
        "config": {
            "blobSchedule": {
                "Cancun": {
                    "target": "0x03",
                    "max": "0x06",
                    "baseFeeUpdateFraction": "0x32f0ed"
                },
                "Prague": {
                    "target": "0x06",
                    "max": "0x09",
                    "baseFeeUpdateFraction": "0x4c6964"
                }
            },
            "chainid": "0x01"
        },
        "_info": {
            "hash": "0xb47255c73150c0e92b45cfbab06b666cf67e14743a38aa13667fa91e04218003",
            "comment": "`execution-spec-tests` generated test",
            "filling-transition-tool": "ethereum-spec-evm-resolver 0.0.5",
            "description": "No description available - add a docstring to the python test class or function.",
            "url": "",
            "fixture-format": "state_test",
            "eels-resolution": {
                "git-url": "https://github.com/ethereum/execution-specs.git",
                "branch": "forks/bpos",
                "commit": "7aacb2c54111391af5e98c505d5010b5698a770f"
            }
        }
    }
}