{
    "tests/static/state_tests/stRandom2/randomStatetest414Filler.json::randomStatetest414[fork_Cancun-state_test-]": {
        "env": {
            "currentCoinbase": "0x88243e0bdb8862676b91c429c027153f75aeea43",
            "currentGasLimit": "0x7fffffffffffffff",
            "currentNumber": "0x01",
            "currentTimestamp": "0x03e8",
            "currentRandom": "0x0000000000000000000000000000000000000000000000000000000000020000",
            "currentDifficulty": "0x00",
            "currentBaseFee": "0x0a",
            "currentExcessBlobGas": "0x00"
        },
        "pre": {
            "0xab08bb2c0c1412804850b197257f192a7f8802c8": {
                "nonce": "0x00",
                "balance": "0x0de0b6b3a7640000",
                "code": "0x",
                "storage": {}
            },
            "0x88243e0bdb8862676b91c429c027153f75aeea43": {
                "nonce": "0x00",
                "balance": "0x2e",
                "code": "0x6000355415600957005b60203560003555",
                "storage": {}
            },
            "0x88243e0bdb8862676b91c429c027153f75aeeb43": {
                "nonce": "0x00",
                "balance": "0x00",
                "code": "0x7fffffffffffffffffffffffffffffffffffffffffffffffffffffffffffffffff6251437f0000000000000000000000010000000000000000000000000000000000000000437f000000000000000000000000fffffffffffffffffffffffffffffffffffffffff11460005155",
                "storage": {}
            }
        },
        "transaction": {
            "nonce": "0x00",
            "gasPrice": "0x0a",
            "gasLimit": [
                "0x0186a0"
            ],
            "to": "0x88243e0bdb8862676b91c429c027153f75aeeb43",
            "value": [
                "0x40e7cc29"
            ],
            "data": [
                "0x7fffffffffffffffffffffffffffffffffffffffffffffffffffffffffffffffff6251437f0000000000000000000000010000000000000000000000000000000000000000437f000000000000000000000000fffffffffffffffffffffffffffffffffffffffff114"
            ],
            "sender": "0xab08bb2c0c1412804850b197257f192a7f8802c8",
            "secretKey": "0xb3e10f5921318f03c40dcc9e88243e0bdb8862676b91c429c027153f75aeea43"
        },
        "post": {
            "Cancun": [
                {
                    "hash": "0xec159fb4898a3aaad48ad73381ea614192f9b1e905790feaa2ad9e9a3fbb1b7e",
                    "logs": "0x1dcc4de8dec75d7aab85b567b6ccd41ad312451b948a7413f0a142fd40d49347",
                    "txbytes": "0xf8ce800a830186a09488243e0bdb8862676b91c429c027153f75aeeb438440e7cc29b8697fffffffffffffffffffffffffffffffffffffffffffffffffffffffffffffffff6251437f0000000000000000000000010000000000000000000000000000000000000000437f000000000000000000000000fffffffffffffffffffffffffffffffffffffffff11425a08d17c93e0def152492120763f5f019a33a435b9e0087414e5add8442ac1ef465a01375761d498c78e187be6dd934a531054048e157b4bd5b04e78c82c303997240",
                    "indexes": {
                        "data": 0,
                        "gas": 0,
                        "value": 0
                    },
                    "state": {
                        "0xab08bb2c0c1412804850b197257f192a7f8802c8": {
                            "nonce": "0x01",
                            "balance": "0x0de0b6b36678d1d3",
                            "code": "0x",
                            "storage": {}
                        },
                        "0x88243e0bdb8862676b91c429c027153f75aeea43": {
                            "nonce": "0x00",
                            "balance": "0x2e",
                            "code": "0x6000355415600957005b60203560003555",
                            "storage": {}
                        },
                        "0x88243e0bdb8862676b91c429c027153f75aeeb43": {
                            "nonce": "0x00",
                            "balance": "0x40e7cc29",
                            "code": "0x7fffffffffffffffffffffffffffffffffffffffffffffffffffffffffffffffff6251437f0000000000000000000000010000000000000000000000000000000000000000437f000000000000000000000000fffffffffffffffffffffffffffffffffffffffff11460005155",
                            "storage": {}
                        }
                    }
                }
            ]
        },
        "config": {
            "blobSchedule": {
                "Cancun": {
                    "target": "0x03",
                    "max": "0x06",
                    "baseFeeUpdateFraction": "0x32f0ed"
                }
            },
            "chainid": "0x01"
        },
        "_info": {
            "hash": "0x73a803cf9c82f0903aad585471d5c66ace06d2005d50b13ef9131d6642a43aa8",
            "comment": "`execution-spec-tests` generated test",
            "filling-transition-tool": "ethereum-spec-evm-resolver 0.0.5",
            "description": "No description available - add a docstring to the python test class or function.",
            "url": "",
            "fixture-format": "state_test",
            "eels-resolution": {
                "git-url": "https://github.com/marioevz/execution-specs.git",
                "branch": "forks/bpo1",
                "commit": "3387e5f4aedfe99becfdc39b444d6371e25e0924"
            }
        }
    },
    "tests/static/state_tests/stRandom2/randomStatetest414Filler.json::randomStatetest414[fork_Osaka-state_test-]": {
        "env": {
            "currentCoinbase": "0x88243e0bdb8862676b91c429c027153f75aeea43",
            "currentGasLimit": "0x7fffffffffffffff",
            "currentNumber": "0x01",
            "currentTimestamp": "0x03e8",
            "currentRandom": "0x0000000000000000000000000000000000000000000000000000000000020000",
            "currentDifficulty": "0x00",
            "currentBaseFee": "0x0a",
            "currentExcessBlobGas": "0x00"
        },
        "pre": {
            "0xab08bb2c0c1412804850b197257f192a7f8802c8": {
                "nonce": "0x00",
                "balance": "0x0de0b6b3a7640000",
                "code": "0x",
                "storage": {}
            },
            "0x88243e0bdb8862676b91c429c027153f75aeea43": {
                "nonce": "0x00",
                "balance": "0x2e",
                "code": "0x6000355415600957005b60203560003555",
                "storage": {}
            },
            "0x88243e0bdb8862676b91c429c027153f75aeeb43": {
                "nonce": "0x00",
                "balance": "0x00",
                "code": "0x7fffffffffffffffffffffffffffffffffffffffffffffffffffffffffffffffff6251437f0000000000000000000000010000000000000000000000000000000000000000437f000000000000000000000000fffffffffffffffffffffffffffffffffffffffff11460005155",
                "storage": {}
            }
        },
        "transaction": {
            "nonce": "0x00",
            "gasPrice": "0x0a",
            "gasLimit": [
                "0x0186a0"
            ],
            "to": "0x88243e0bdb8862676b91c429c027153f75aeeb43",
            "value": [
                "0x40e7cc29"
            ],
            "data": [
                "0x7fffffffffffffffffffffffffffffffffffffffffffffffffffffffffffffffff6251437f0000000000000000000000010000000000000000000000000000000000000000437f000000000000000000000000fffffffffffffffffffffffffffffffffffffffff114"
            ],
            "sender": "0xab08bb2c0c1412804850b197257f192a7f8802c8",
            "secretKey": "0xb3e10f5921318f03c40dcc9e88243e0bdb8862676b91c429c027153f75aeea43"
        },
        "post": {
            "Osaka": [
                {
                    "hash": "0x637af1c49d71358090ac8762660f210de9a823175c21200a000bf6e4beb38764",
                    "logs": "0x1dcc4de8dec75d7aab85b567b6ccd41ad312451b948a7413f0a142fd40d49347",
                    "txbytes": "0xf8ce800a830186a09488243e0bdb8862676b91c429c027153f75aeeb438440e7cc29b8697fffffffffffffffffffffffffffffffffffffffffffffffffffffffffffffffff6251437f0000000000000000000000010000000000000000000000000000000000000000437f000000000000000000000000fffffffffffffffffffffffffffffffffffffffff11425a08d17c93e0def152492120763f5f019a33a435b9e0087414e5add8442ac1ef465a01375761d498c78e187be6dd934a531054048e157b4bd5b04e78c82c303997240",
                    "indexes": {
                        "data": 0,
                        "gas": 0,
                        "value": 0
                    },
                    "state": {
                        "0xab08bb2c0c1412804850b197257f192a7f8802c8": {
                            "nonce": "0x01",
                            "balance": "0x0de0b6b366788ddb",
                            "code": "0x",
                            "storage": {}
                        },
                        "0x88243e0bdb8862676b91c429c027153f75aeea43": {
                            "nonce": "0x00",
                            "balance": "0x2e",
                            "code": "0x6000355415600957005b60203560003555",
                            "storage": {}
                        },
                        "0x88243e0bdb8862676b91c429c027153f75aeeb43": {
                            "nonce": "0x00",
                            "balance": "0x40e7cc29",
                            "code": "0x7fffffffffffffffffffffffffffffffffffffffffffffffffffffffffffffffff6251437f0000000000000000000000010000000000000000000000000000000000000000437f000000000000000000000000fffffffffffffffffffffffffffffffffffffffff11460005155",
                            "storage": {}
                        }
                    }
                }
            ]
        },
        "config": {
            "blobSchedule": {
                "Cancun": {
                    "target": "0x03",
                    "max": "0x06",
                    "baseFeeUpdateFraction": "0x32f0ed"
                },
                "Prague": {
                    "target": "0x06",
                    "max": "0x09",
                    "baseFeeUpdateFraction": "0x4c6964"
                },
                "Osaka": {
                    "target": "0x06",
                    "max": "0x09",
                    "baseFeeUpdateFraction": "0x4c6964"
                }
            },
            "chainid": "0x01"
        },
        "_info": {
            "hash": "0x8682ac53131f91eb3ce654dc2e0670f14e5efa310fc64d9e8429664caf32dcf4",
            "comment": "`execution-spec-tests` generated test",
            "filling-transition-tool": "ethereum-spec-evm-resolver 0.0.5",
            "description": "No description available - add a docstring to the python test class or function.",
            "url": "",
            "fixture-format": "state_test",
            "eels-resolution": {
                "git-url": "https://github.com/marioevz/execution-specs.git",
                "branch": "forks/bpo1",
                "commit": "3387e5f4aedfe99becfdc39b444d6371e25e0924"
            }
        }
    },
    "tests/static/state_tests/stRandom2/randomStatetest414Filler.json::randomStatetest414[fork_Prague-state_test-]": {
        "env": {
            "currentCoinbase": "0x88243e0bdb8862676b91c429c027153f75aeea43",
            "currentGasLimit": "0x7fffffffffffffff",
            "currentNumber": "0x01",
            "currentTimestamp": "0x03e8",
            "currentRandom": "0x0000000000000000000000000000000000000000000000000000000000020000",
            "currentDifficulty": "0x00",
            "currentBaseFee": "0x0a",
            "currentExcessBlobGas": "0x00"
        },
        "pre": {
            "0xab08bb2c0c1412804850b197257f192a7f8802c8": {
                "nonce": "0x00",
                "balance": "0x0de0b6b3a7640000",
                "code": "0x",
                "storage": {}
            },
            "0x88243e0bdb8862676b91c429c027153f75aeea43": {
                "nonce": "0x00",
                "balance": "0x2e",
                "code": "0x6000355415600957005b60203560003555",
                "storage": {}
            },
            "0x88243e0bdb8862676b91c429c027153f75aeeb43": {
                "nonce": "0x00",
                "balance": "0x00",
                "code": "0x7fffffffffffffffffffffffffffffffffffffffffffffffffffffffffffffffff6251437f0000000000000000000000010000000000000000000000000000000000000000437f000000000000000000000000fffffffffffffffffffffffffffffffffffffffff11460005155",
                "storage": {}
            }
        },
        "transaction": {
            "nonce": "0x00",
            "gasPrice": "0x0a",
            "gasLimit": [
                "0x0186a0"
            ],
            "to": "0x88243e0bdb8862676b91c429c027153f75aeeb43",
            "value": [
                "0x40e7cc29"
            ],
            "data": [
                "0x7fffffffffffffffffffffffffffffffffffffffffffffffffffffffffffffffff6251437f0000000000000000000000010000000000000000000000000000000000000000437f000000000000000000000000fffffffffffffffffffffffffffffffffffffffff114"
            ],
            "sender": "0xab08bb2c0c1412804850b197257f192a7f8802c8",
            "secretKey": "0xb3e10f5921318f03c40dcc9e88243e0bdb8862676b91c429c027153f75aeea43"
        },
        "post": {
            "Prague": [
                {
                    "hash": "0x637af1c49d71358090ac8762660f210de9a823175c21200a000bf6e4beb38764",
                    "logs": "0x1dcc4de8dec75d7aab85b567b6ccd41ad312451b948a7413f0a142fd40d49347",
                    "txbytes": "0xf8ce800a830186a09488243e0bdb8862676b91c429c027153f75aeeb438440e7cc29b8697fffffffffffffffffffffffffffffffffffffffffffffffffffffffffffffffff6251437f0000000000000000000000010000000000000000000000000000000000000000437f000000000000000000000000fffffffffffffffffffffffffffffffffffffffff11425a08d17c93e0def152492120763f5f019a33a435b9e0087414e5add8442ac1ef465a01375761d498c78e187be6dd934a531054048e157b4bd5b04e78c82c303997240",
                    "indexes": {
                        "data": 0,
                        "gas": 0,
                        "value": 0
                    },
                    "state": {
                        "0xab08bb2c0c1412804850b197257f192a7f8802c8": {
                            "nonce": "0x01",
                            "balance": "0x0de0b6b366788ddb",
                            "code": "0x",
                            "storage": {}
                        },
                        "0x88243e0bdb8862676b91c429c027153f75aeea43": {
                            "nonce": "0x00",
                            "balance": "0x2e",
                            "code": "0x6000355415600957005b60203560003555",
                            "storage": {}
                        },
                        "0x88243e0bdb8862676b91c429c027153f75aeeb43": {
                            "nonce": "0x00",
                            "balance": "0x40e7cc29",
                            "code": "0x7fffffffffffffffffffffffffffffffffffffffffffffffffffffffffffffffff6251437f0000000000000000000000010000000000000000000000000000000000000000437f000000000000000000000000fffffffffffffffffffffffffffffffffffffffff11460005155",
                            "storage": {}
                        }
                    }
                }
            ]
        },
        "config": {
            "blobSchedule": {
                "Cancun": {
                    "target": "0x03",
                    "max": "0x06",
                    "baseFeeUpdateFraction": "0x32f0ed"
                },
                "Prague": {
                    "target": "0x06",
                    "max": "0x09",
                    "baseFeeUpdateFraction": "0x4c6964"
                }
            },
            "chainid": "0x01"
        },
        "_info": {
            "hash": "0x5ea1f43891a97416e60b8e4b3f19664101e0128d2b4a0f8edf935b33afd2b0c7",
            "comment": "`execution-spec-tests` generated test",
            "filling-transition-tool": "ethereum-spec-evm-resolver 0.0.5",
            "description": "No description available - add a docstring to the python test class or function.",
            "url": "",
            "fixture-format": "state_test",
            "eels-resolution": {
                "git-url": "https://github.com/marioevz/execution-specs.git",
                "branch": "forks/bpo1",
                "commit": "3387e5f4aedfe99becfdc39b444d6371e25e0924"
            }
        }
    }
}