{
    "tests/static/state_tests/stRandom2/randomStatetest425Filler.json::randomStatetest425[fork_Cancun-state_test-]": {
        "env": {
            "currentCoinbase": "0xebd8dde58d159bd5df0015d984217bc4b7e71d86",
            "currentGasLimit": "0x7fffffffffffffff",
            "currentNumber": "0x01",
            "currentTimestamp": "0x03e8",
            "currentRandom": "0x0000000000000000000000000000000000000000000000000000000000020000",
            "currentDifficulty": "0x00",
            "currentBaseFee": "0x0a",
            "currentExcessBlobGas": "0x00"
        },
        "pre": {
            "0xb776a5610fae39f8f575262c991581606223a217": {
                "nonce": "0x00",
                "balance": "0x0de0b6b3a7640000",
                "code": "0x",
                "storage": {}
            },
            "0xebd8dde58d159bd5df0015d984217bc4b7e71d86": {
                "nonce": "0x00",
                "balance": "0x2e",
                "code": "0x6000355415600957005b60203560003555",
                "storage": {}
            },
            "0xebd8dde58d159bd5df0015d984217bc4b7e71e86": {
                "nonce": "0x00",
                "balance": "0x00",
                "code": "0x7f0000000000000000000000010000000000000000000000000000000000000000417f00000000000000000000000000000000000000000000000000000000000000017f000000000000000000000000000000000000000000000000000000000000c3507f000000000000000000000000ffffffffffffffffffffffffffffffffffffffff6f885707818b889a89975552f01284425560005155",
                "storage": {}
            }
        },
        "transaction": {
            "nonce": "0x00",
            "gasPrice": "0x0a",
            "gasLimit": [
                "0x0186a0"
            ],
            "to": "0xebd8dde58d159bd5df0015d984217bc4b7e71e86",
            "value": [
                "0x22371a75"
            ],
            "data": [
                "0x7f0000000000000000000000010000000000000000000000000000000000000000417f00000000000000000000000000000000000000000000000000000000000000017f000000000000000000000000000000000000000000000000000000000000c3507f000000000000000000000000ffffffffffffffffffffffffffffffffffffffff6f885707818b889a89975552f0128442"
            ],
            "sender": "0xb776a5610fae39f8f575262c991581606223a217",
            "secretKey": "0xbd95fc64031ec73db2dc889bebd8dde58d159bd5df0015d984217bc4b7e71d86"
        },
        "post": {
            "Cancun": [
                {
                    "hash": "0x41573e267d652632ab5506cd55d1fd7c0536216a80eba1be6d733548d1018da9",
                    "logs": "0x1dcc4de8dec75d7aab85b567b6ccd41ad312451b948a7413f0a142fd40d49347",
                    "txbytes": "0xf8fa800a830186a094ebd8dde58d159bd5df0015d984217bc4b7e71e868422371a75b8957f0000000000000000000000010000000000000000000000000000000000000000417f00000000000000000000000000000000000000000000000000000000000000017f000000000000000000000000000000000000000000000000000000000000c3507f000000000000000000000000ffffffffffffffffffffffffffffffffffffffff6f885707818b889a89975552f012844225a0789ea403270de2c1d553512c8ab5a82a38b6498d066d1ba54129e6047ab5d596a06cb8bb5c1f55f2b7d0d0ae56c8178b5448603ece06dbcb42c9d5d34bf47168c7",
                    "indexes": {
                        "data": 0,
                        "gas": 0,
                        "value": 0
                    },
                    "state": {
                        "0xb776a5610fae39f8f575262c991581606223a217": {
                            "nonce": "0x01",
                            "balance": "0x0de0b6b38526248f",
                            "code": "0x",
                            "storage": {}
                        },
                        "0xebd8dde58d159bd5df0015d984217bc4b7e71d86": {
                            "nonce": "0x00",
                            "balance": "0x2e",
                            "code": "0x6000355415600957005b60203560003555",
                            "storage": {}
                        },
                        "0xebd8dde58d159bd5df0015d984217bc4b7e71e86": {
                            "nonce": "0x00",
                            "balance": "0x22371a75",
                            "code": "0x7f0000000000000000000000010000000000000000000000000000000000000000417f00000000000000000000000000000000000000000000000000000000000000017f000000000000000000000000000000000000000000000000000000000000c3507f000000000000000000000000ffffffffffffffffffffffffffffffffffffffff6f885707818b889a89975552f01284425560005155",
                            "storage": {
                                "0x00": "0x885707818b889a89975552f012844255"
                            }
                        }
                    }
                }
            ]
        },
        "config": {
            "blobSchedule": {
                "Cancun": {
                    "target": "0x03",
                    "max": "0x06",
                    "baseFeeUpdateFraction": "0x32f0ed"
                }
            },
            "chainid": "0x01"
        },
        "_info": {
            "hash": "0x54f23f5f0545b949626057fac49f825086cf9e91e29b18e40708329245ae1148",
            "comment": "`execution-spec-tests` generated test",
            "filling-transition-tool": "ethereum-spec-evm-resolver 0.0.5",
            "description": "No description available - add a docstring to the python test class or function.",
            "url": "",
            "fixture-format": "state_test",
            "eels-resolution": {
                "git-url": "https://github.com/marioevz/execution-specs.git",
                "branch": "forks/bpo1",
                "commit": "3387e5f4aedfe99becfdc39b444d6371e25e0924"
            }
        }
    },
    "tests/static/state_tests/stRandom2/randomStatetest425Filler.json::randomStatetest425[fork_Osaka-state_test-]": {
        "env": {
            "currentCoinbase": "0xebd8dde58d159bd5df0015d984217bc4b7e71d86",
            "currentGasLimit": "0x7fffffffffffffff",
            "currentNumber": "0x01",
            "currentTimestamp": "0x03e8",
            "currentRandom": "0x0000000000000000000000000000000000000000000000000000000000020000",
            "currentDifficulty": "0x00",
            "currentBaseFee": "0x0a",
            "currentExcessBlobGas": "0x00"
        },
        "pre": {
            "0xb776a5610fae39f8f575262c991581606223a217": {
                "nonce": "0x00",
                "balance": "0x0de0b6b3a7640000",
                "code": "0x",
                "storage": {}
            },
            "0xebd8dde58d159bd5df0015d984217bc4b7e71d86": {
                "nonce": "0x00",
                "balance": "0x2e",
                "code": "0x6000355415600957005b60203560003555",
                "storage": {}
            },
            "0xebd8dde58d159bd5df0015d984217bc4b7e71e86": {
                "nonce": "0x00",
                "balance": "0x00",
                "code": "0x7f0000000000000000000000010000000000000000000000000000000000000000417f00000000000000000000000000000000000000000000000000000000000000017f000000000000000000000000000000000000000000000000000000000000c3507f000000000000000000000000ffffffffffffffffffffffffffffffffffffffff6f885707818b889a89975552f01284425560005155",
                "storage": {}
            }
        },
        "transaction": {
            "nonce": "0x00",
            "gasPrice": "0x0a",
            "gasLimit": [
                "0x0186a0"
            ],
            "to": "0xebd8dde58d159bd5df0015d984217bc4b7e71e86",
            "value": [
                "0x22371a75"
            ],
            "data": [
                "0x7f0000000000000000000000010000000000000000000000000000000000000000417f00000000000000000000000000000000000000000000000000000000000000017f000000000000000000000000000000000000000000000000000000000000c3507f000000000000000000000000ffffffffffffffffffffffffffffffffffffffff6f885707818b889a89975552f0128442"
            ],
            "sender": "0xb776a5610fae39f8f575262c991581606223a217",
            "secretKey": "0xbd95fc64031ec73db2dc889bebd8dde58d159bd5df0015d984217bc4b7e71d86"
        },
        "post": {
            "Osaka": [
                {
                    "hash": "0x41573e267d652632ab5506cd55d1fd7c0536216a80eba1be6d733548d1018da9",
                    "logs": "0x1dcc4de8dec75d7aab85b567b6ccd41ad312451b948a7413f0a142fd40d49347",
                    "txbytes": "0xf8fa800a830186a094ebd8dde58d159bd5df0015d984217bc4b7e71e868422371a75b8957f0000000000000000000000010000000000000000000000000000000000000000417f00000000000000000000000000000000000000000000000000000000000000017f000000000000000000000000000000000000000000000000000000000000c3507f000000000000000000000000ffffffffffffffffffffffffffffffffffffffff6f885707818b889a89975552f012844225a0789ea403270de2c1d553512c8ab5a82a38b6498d066d1ba54129e6047ab5d596a06cb8bb5c1f55f2b7d0d0ae56c8178b5448603ece06dbcb42c9d5d34bf47168c7",
                    "indexes": {
                        "data": 0,
                        "gas": 0,
                        "value": 0
                    },
                    "state": {
                        "0xb776a5610fae39f8f575262c991581606223a217": {
                            "nonce": "0x01",
                            "balance": "0x0de0b6b38526248f",
                            "code": "0x",
                            "storage": {}
                        },
                        "0xebd8dde58d159bd5df0015d984217bc4b7e71d86": {
                            "nonce": "0x00",
                            "balance": "0x2e",
                            "code": "0x6000355415600957005b60203560003555",
                            "storage": {}
                        },
                        "0xebd8dde58d159bd5df0015d984217bc4b7e71e86": {
                            "nonce": "0x00",
                            "balance": "0x22371a75",
                            "code": "0x7f0000000000000000000000010000000000000000000000000000000000000000417f00000000000000000000000000000000000000000000000000000000000000017f000000000000000000000000000000000000000000000000000000000000c3507f000000000000000000000000ffffffffffffffffffffffffffffffffffffffff6f885707818b889a89975552f01284425560005155",
                            "storage": {
                                "0x00": "0x885707818b889a89975552f012844255"
                            }
                        }
                    }
                }
            ]
        },
        "config": {
            "blobSchedule": {
                "Cancun": {
                    "target": "0x03",
                    "max": "0x06",
                    "baseFeeUpdateFraction": "0x32f0ed"
                },
                "Prague": {
                    "target": "0x06",
                    "max": "0x09",
                    "baseFeeUpdateFraction": "0x4c6964"
                },
                "Osaka": {
                    "target": "0x06",
                    "max": "0x09",
                    "baseFeeUpdateFraction": "0x4c6964"
                }
            },
            "chainid": "0x01"
        },
        "_info": {
            "hash": "0x515336e64a61b7630022de423971bd0f9ad2527531b31bdf3302a20374254e80",
            "comment": "`execution-spec-tests` generated test",
            "filling-transition-tool": "ethereum-spec-evm-resolver 0.0.5",
            "description": "No description available - add a docstring to the python test class or function.",
            "url": "",
            "fixture-format": "state_test",
            "eels-resolution": {
                "git-url": "https://github.com/marioevz/execution-specs.git",
                "branch": "forks/bpo1",
                "commit": "3387e5f4aedfe99becfdc39b444d6371e25e0924"
            }
        }
    },
    "tests/static/state_tests/stRandom2/randomStatetest425Filler.json::randomStatetest425[fork_Prague-state_test-]": {
        "env": {
            "currentCoinbase": "0xebd8dde58d159bd5df0015d984217bc4b7e71d86",
            "currentGasLimit": "0x7fffffffffffffff",
            "currentNumber": "0x01",
            "currentTimestamp": "0x03e8",
            "currentRandom": "0x0000000000000000000000000000000000000000000000000000000000020000",
            "currentDifficulty": "0x00",
            "currentBaseFee": "0x0a",
            "currentExcessBlobGas": "0x00"
        },
        "pre": {
            "0xb776a5610fae39f8f575262c991581606223a217": {
                "nonce": "0x00",
                "balance": "0x0de0b6b3a7640000",
                "code": "0x",
                "storage": {}
            },
            "0xebd8dde58d159bd5df0015d984217bc4b7e71d86": {
                "nonce": "0x00",
                "balance": "0x2e",
                "code": "0x6000355415600957005b60203560003555",
                "storage": {}
            },
            "0xebd8dde58d159bd5df0015d984217bc4b7e71e86": {
                "nonce": "0x00",
                "balance": "0x00",
                "code": "0x7f0000000000000000000000010000000000000000000000000000000000000000417f00000000000000000000000000000000000000000000000000000000000000017f000000000000000000000000000000000000000000000000000000000000c3507f000000000000000000000000ffffffffffffffffffffffffffffffffffffffff6f885707818b889a89975552f01284425560005155",
                "storage": {}
            }
        },
        "transaction": {
            "nonce": "0x00",
            "gasPrice": "0x0a",
            "gasLimit": [
                "0x0186a0"
            ],
            "to": "0xebd8dde58d159bd5df0015d984217bc4b7e71e86",
            "value": [
                "0x22371a75"
            ],
            "data": [
                "0x7f0000000000000000000000010000000000000000000000000000000000000000417f00000000000000000000000000000000000000000000000000000000000000017f000000000000000000000000000000000000000000000000000000000000c3507f000000000000000000000000ffffffffffffffffffffffffffffffffffffffff6f885707818b889a89975552f0128442"
            ],
            "sender": "0xb776a5610fae39f8f575262c991581606223a217",
            "secretKey": "0xbd95fc64031ec73db2dc889bebd8dde58d159bd5df0015d984217bc4b7e71d86"
        },
        "post": {
            "Prague": [
                {
                    "hash": "0x41573e267d652632ab5506cd55d1fd7c0536216a80eba1be6d733548d1018da9",
                    "logs": "0x1dcc4de8dec75d7aab85b567b6ccd41ad312451b948a7413f0a142fd40d49347",
                    "txbytes": "0xf8fa800a830186a094ebd8dde58d159bd5df0015d984217bc4b7e71e868422371a75b8957f0000000000000000000000010000000000000000000000000000000000000000417f00000000000000000000000000000000000000000000000000000000000000017f000000000000000000000000000000000000000000000000000000000000c3507f000000000000000000000000ffffffffffffffffffffffffffffffffffffffff6f885707818b889a89975552f012844225a0789ea403270de2c1d553512c8ab5a82a38b6498d066d1ba54129e6047ab5d596a06cb8bb5c1f55f2b7d0d0ae56c8178b5448603ece06dbcb42c9d5d34bf47168c7",
                    "indexes": {
                        "data": 0,
                        "gas": 0,
                        "value": 0
                    },
                    "state": {
                        "0xb776a5610fae39f8f575262c991581606223a217": {
                            "nonce": "0x01",
                            "balance": "0x0de0b6b38526248f",
                            "code": "0x",
                            "storage": {}
                        },
                        "0xebd8dde58d159bd5df0015d984217bc4b7e71d86": {
                            "nonce": "0x00",
                            "balance": "0x2e",
                            "code": "0x6000355415600957005b60203560003555",
                            "storage": {}
                        },
                        "0xebd8dde58d159bd5df0015d984217bc4b7e71e86": {
                            "nonce": "0x00",
                            "balance": "0x22371a75",
                            "code": "0x7f0000000000000000000000010000000000000000000000000000000000000000417f00000000000000000000000000000000000000000000000000000000000000017f000000000000000000000000000000000000000000000000000000000000c3507f000000000000000000000000ffffffffffffffffffffffffffffffffffffffff6f885707818b889a89975552f01284425560005155",
                            "storage": {
                                "0x00": "0x885707818b889a89975552f012844255"
                            }
                        }
                    }
                }
            ]
        },
        "config": {
            "blobSchedule": {
                "Cancun": {
                    "target": "0x03",
                    "max": "0x06",
                    "baseFeeUpdateFraction": "0x32f0ed"
                },
                "Prague": {
                    "target": "0x06",
                    "max": "0x09",
                    "baseFeeUpdateFraction": "0x4c6964"
                }
            },
            "chainid": "0x01"
        },
        "_info": {
            "hash": "0x347f20b4d3cfb0552e11718cbbbfe1fc43a8bbb0ab4c6d864af5f895c8083833",
            "comment": "`execution-spec-tests` generated test",
            "filling-transition-tool": "ethereum-spec-evm-resolver 0.0.5",
            "description": "No description available - add a docstring to the python test class or function.",
            "url": "",
            "fixture-format": "state_test",
            "eels-resolution": {
                "git-url": "https://github.com/marioevz/execution-specs.git",
                "branch": "forks/bpo1",
                "commit": "3387e5f4aedfe99becfdc39b444d6371e25e0924"
            }
        }
    }
}