{
    "tests/static/state_tests/stRandom2/randomStatetest443Filler.json::randomStatetest443[fork_Cancun-state_test-]": {
        "env": {
            "currentCoinbase": "0x9ba174f29926e7f4ec7fd25fe7ddf375c3ff301e",
            "currentGasLimit": "0x7fffffffffffffff",
            "currentNumber": "0x01",
            "currentTimestamp": "0x03e8",
            "currentRandom": "0x0000000000000000000000000000000000000000000000000000000000020000",
            "currentDifficulty": "0x00",
            "currentBaseFee": "0x0a",
            "currentExcessBlobGas": "0x00"
        },
        "pre": {
            "0x133f7bc8ee79c05dd2e36284945e49c50a4a3e82": {
                "nonce": "0x00",
                "balance": "0x0de0b6b3a7640000",
                "code": "0x",
                "storage": {}
            },
            "0x9ba174f29926e7f4ec7fd25fe7ddf375c3ff301e": {
                "nonce": "0x00",
                "balance": "0x2e",
                "code": "0x6000355415600957005b60203560003555",
                "storage": {}
            },
            "0x9ba174f29926e7f4ec7fd25fe7ddf375c3ff311e": {
                "nonce": "0x00",
                "balance": "0x00",
                "code": "0x7f0000000000000000000000009ba174f29926e7f4ec7fd25fe7ddf375c3ff301e7f00000000000000000000000000000000000000000000000000000000000000017f00000000000000000000000100000000000000000000000000000000000000007f0000000000000000000000009ba174f29926e7f4ec7fd25fe7ddf375c3ff301e7fffffffffffffffffffffffffffffffffffffffffffffffffffffffffffffffff7f00000000000000000000000000000000000000000000000000000000000000017fffffffffffffffffffffffffffffffffffffffffffffffffffffffffffffffff7f00000000000000000000000000000000000000000000000000000000000000001155933704",
                "storage": {}
            }
        },
        "transaction": {
            "nonce": "0x00",
            "gasPrice": "0x0a",
            "gasLimit": [
                "0x0186a0"
            ],
            "to": "0x9ba174f29926e7f4ec7fd25fe7ddf375c3ff311e",
            "value": [
                "0x5967364f"
            ],
            "data": [
                "0x7f0000000000000000000000009ba174f29926e7f4ec7fd25fe7ddf375c3ff301e7f00000000000000000000000000000000000000000000000000000000000000017f00000000000000000000000100000000000000000000000000000000000000007f0000000000000000000000009ba174f29926e7f4ec7fd25fe7ddf375c3ff301e7fffffffffffffffffffffffffffffffffffffffffffffffffffffffffffffffff7f00000000000000000000000000000000000000000000000000000000000000017fffffffffffffffffffffffffffffffffffffffffffffffffffffffffffffffff7f00000000000000000000000000000000000000000000000000000000000000001155933704"
            ],
            "sender": "0x133f7bc8ee79c05dd2e36284945e49c50a4a3e82",
            "secretKey": "0x41613f5962aee6d9462bad7b9ba174f29926e7f4ec7fd25fe7ddf375c3ff301e"
        },
        "post": {
            "Cancun": [
                {
                    "hash": "0xe3cbe01ac7a3d125163c5a1776876fec8b0311e519a092d240224d690fc9b16f",
                    "logs": "0x1dcc4de8dec75d7aab85b567b6ccd41ad312451b948a7413f0a142fd40d49347",
                    "txbytes": "0xf90173800a830186a0949ba174f29926e7f4ec7fd25fe7ddf375c3ff311e845967364fb9010d7f0000000000000000000000009ba174f29926e7f4ec7fd25fe7ddf375c3ff301e7f00000000000000000000000000000000000000000000000000000000000000017f00000000000000000000000100000000000000000000000000000000000000007f0000000000000000000000009ba174f29926e7f4ec7fd25fe7ddf375c3ff301e7fffffffffffffffffffffffffffffffffffffffffffffffffffffffffffffffff7f00000000000000000000000000000000000000000000000000000000000000017fffffffffffffffffffffffffffffffffffffffffffffffffffffffffffffffff7f0000000000000000000000000000000000000000000000000000000000000000115593370426a00ea3a3cfd63b598d45394c0827f26270a756df59a8fcc3054066db94ea0657e4a0698e808ec185d55823fac0ebdb4f9ab5debeb624585ae3bee90e6f970912c60e",
                    "indexes": {
                        "data": 0,
                        "gas": 0,
                        "value": 0
                    },
                    "state": {
                        "0x133f7bc8ee79c05dd2e36284945e49c50a4a3e82": {
                            "nonce": "0x01",
                            "balance": "0x0de0b6b3a754bdc0",
                            "code": "0x",
                            "storage": {}
                        },
                        "0x9ba174f29926e7f4ec7fd25fe7ddf375c3ff301e": {
                            "nonce": "0x00",
                            "balance": "0x2e",
                            "code": "0x6000355415600957005b60203560003555",
                            "storage": {}
                        },
                        "0x9ba174f29926e7f4ec7fd25fe7ddf375c3ff311e": {
                            "nonce": "0x00",
                            "balance": "0x00",
                            "code": "0x7f0000000000000000000000009ba174f29926e7f4ec7fd25fe7ddf375c3ff301e7f00000000000000000000000000000000000000000000000000000000000000017f00000000000000000000000100000000000000000000000000000000000000007f0000000000000000000000009ba174f29926e7f4ec7fd25fe7ddf375c3ff301e7fffffffffffffffffffffffffffffffffffffffffffffffffffffffffffffffff7f00000000000000000000000000000000000000000000000000000000000000017fffffffffffffffffffffffffffffffffffffffffffffffffffffffffffffffff7f00000000000000000000000000000000000000000000000000000000000000001155933704",
                            "storage": {}
                        }
                    }
                }
            ]
        },
        "config": {
            "blobSchedule": {
                "Cancun": {
                    "target": "0x03",
                    "max": "0x06",
                    "baseFeeUpdateFraction": "0x32f0ed"
                }
            },
            "chainid": "0x01"
        },
        "_info": {
            "hash": "0x357ed654aa7918735f15677b42e342eb8515e0ecfae29fd416dd01640953005a",
            "comment": "`execution-spec-tests` generated test",
            "filling-transition-tool": "ethereum-spec-evm-resolver 0.0.5",
            "description": "No description available - add a docstring to the python test class or function.",
            "url": "",
            "fixture-format": "state_test",
            "eels-resolution": {
                "git-url": "https://github.com/ethereum/execution-specs.git",
                "branch": "forks/bpos",
                "commit": "7aacb2c54111391af5e98c505d5010b5698a770f"
            }
        }
    },
    "tests/static/state_tests/stRandom2/randomStatetest443Filler.json::randomStatetest443[fork_Osaka-state_test-]": {
        "env": {
            "currentCoinbase": "0x9ba174f29926e7f4ec7fd25fe7ddf375c3ff301e",
            "currentGasLimit": "0x7fffffffffffffff",
            "currentNumber": "0x01",
            "currentTimestamp": "0x03e8",
            "currentRandom": "0x0000000000000000000000000000000000000000000000000000000000020000",
            "currentDifficulty": "0x00",
            "currentBaseFee": "0x0a",
            "currentExcessBlobGas": "0x00"
        },
        "pre": {
            "0x133f7bc8ee79c05dd2e36284945e49c50a4a3e82": {
                "nonce": "0x00",
                "balance": "0x0de0b6b3a7640000",
                "code": "0x",
                "storage": {}
            },
            "0x9ba174f29926e7f4ec7fd25fe7ddf375c3ff301e": {
                "nonce": "0x00",
                "balance": "0x2e",
                "code": "0x6000355415600957005b60203560003555",
                "storage": {}
            },
            "0x9ba174f29926e7f4ec7fd25fe7ddf375c3ff311e": {
                "nonce": "0x00",
                "balance": "0x00",
                "code": "0x7f0000000000000000000000009ba174f29926e7f4ec7fd25fe7ddf375c3ff301e7f00000000000000000000000000000000000000000000000000000000000000017f00000000000000000000000100000000000000000000000000000000000000007f0000000000000000000000009ba174f29926e7f4ec7fd25fe7ddf375c3ff301e7fffffffffffffffffffffffffffffffffffffffffffffffffffffffffffffffff7f00000000000000000000000000000000000000000000000000000000000000017fffffffffffffffffffffffffffffffffffffffffffffffffffffffffffffffff7f00000000000000000000000000000000000000000000000000000000000000001155933704",
                "storage": {}
            }
        },
        "transaction": {
            "nonce": "0x00",
            "gasPrice": "0x0a",
            "gasLimit": [
                "0x0186a0"
            ],
            "to": "0x9ba174f29926e7f4ec7fd25fe7ddf375c3ff311e",
            "value": [
                "0x5967364f"
            ],
            "data": [
                "0x7f0000000000000000000000009ba174f29926e7f4ec7fd25fe7ddf375c3ff301e7f00000000000000000000000000000000000000000000000000000000000000017f00000000000000000000000100000000000000000000000000000000000000007f0000000000000000000000009ba174f29926e7f4ec7fd25fe7ddf375c3ff301e7fffffffffffffffffffffffffffffffffffffffffffffffffffffffffffffffff7f00000000000000000000000000000000000000000000000000000000000000017fffffffffffffffffffffffffffffffffffffffffffffffffffffffffffffffff7f00000000000000000000000000000000000000000000000000000000000000001155933704"
            ],
            "sender": "0x133f7bc8ee79c05dd2e36284945e49c50a4a3e82",
            "secretKey": "0x41613f5962aee6d9462bad7b9ba174f29926e7f4ec7fd25fe7ddf375c3ff301e"
        },
        "post": {
            "Osaka": [
                {
                    "hash": "0xe3cbe01ac7a3d125163c5a1776876fec8b0311e519a092d240224d690fc9b16f",
                    "logs": "0x1dcc4de8dec75d7aab85b567b6ccd41ad312451b948a7413f0a142fd40d49347",
                    "txbytes": "0xf90173800a830186a0949ba174f29926e7f4ec7fd25fe7ddf375c3ff311e845967364fb9010d7f0000000000000000000000009ba174f29926e7f4ec7fd25fe7ddf375c3ff301e7f00000000000000000000000000000000000000000000000000000000000000017f00000000000000000000000100000000000000000000000000000000000000007f0000000000000000000000009ba174f29926e7f4ec7fd25fe7ddf375c3ff301e7fffffffffffffffffffffffffffffffffffffffffffffffffffffffffffffffff7f00000000000000000000000000000000000000000000000000000000000000017fffffffffffffffffffffffffffffffffffffffffffffffffffffffffffffffff7f0000000000000000000000000000000000000000000000000000000000000000115593370426a00ea3a3cfd63b598d45394c0827f26270a756df59a8fcc3054066db94ea0657e4a0698e808ec185d55823fac0ebdb4f9ab5debeb624585ae3bee90e6f970912c60e",
                    "indexes": {
                        "data": 0,
                        "gas": 0,
                        "value": 0
                    },
                    "state": {
                        "0x133f7bc8ee79c05dd2e36284945e49c50a4a3e82": {
                            "nonce": "0x01",
                            "balance": "0x0de0b6b3a754bdc0",
                            "code": "0x",
                            "storage": {}
                        },
                        "0x9ba174f29926e7f4ec7fd25fe7ddf375c3ff301e": {
                            "nonce": "0x00",
                            "balance": "0x2e",
                            "code": "0x6000355415600957005b60203560003555",
                            "storage": {}
                        },
                        "0x9ba174f29926e7f4ec7fd25fe7ddf375c3ff311e": {
                            "nonce": "0x00",
                            "balance": "0x00",
                            "code": "0x7f0000000000000000000000009ba174f29926e7f4ec7fd25fe7ddf375c3ff301e7f00000000000000000000000000000000000000000000000000000000000000017f00000000000000000000000100000000000000000000000000000000000000007f0000000000000000000000009ba174f29926e7f4ec7fd25fe7ddf375c3ff301e7fffffffffffffffffffffffffffffffffffffffffffffffffffffffffffffffff7f00000000000000000000000000000000000000000000000000000000000000017fffffffffffffffffffffffffffffffffffffffffffffffffffffffffffffffff7f00000000000000000000000000000000000000000000000000000000000000001155933704",
                            "storage": {}
                        }
                    }
                }
            ]
        },
        "config": {
            "blobSchedule": {
                "Cancun": {
                    "target": "0x03",
                    "max": "0x06",
                    "baseFeeUpdateFraction": "0x32f0ed"
                },
                "Prague": {
                    "target": "0x06",
                    "max": "0x09",
                    "baseFeeUpdateFraction": "0x4c6964"
                },
                "Osaka": {
                    "target": "0x06",
                    "max": "0x09",
                    "baseFeeUpdateFraction": "0x4c6964"
                }
            },
            "chainid": "0x01"
        },
        "_info": {
            "hash": "0x728ecf44fff53de444b3ebfddf103e7d03ba239c88cf029be90036468aec5d07",
            "comment": "`execution-spec-tests` generated test",
            "filling-transition-tool": "ethereum-spec-evm-resolver 0.0.5",
            "description": "No description available - add a docstring to the python test class or function.",
            "url": "",
            "fixture-format": "state_test",
            "eels-resolution": {
                "git-url": "https://github.com/ethereum/execution-specs.git",
                "branch": "forks/bpos",
                "commit": "7aacb2c54111391af5e98c505d5010b5698a770f"
            }
        }
    },
    "tests/static/state_tests/stRandom2/randomStatetest443Filler.json::randomStatetest443[fork_Prague-state_test-]": {
        "env": {
            "currentCoinbase": "0x9ba174f29926e7f4ec7fd25fe7ddf375c3ff301e",
            "currentGasLimit": "0x7fffffffffffffff",
            "currentNumber": "0x01",
            "currentTimestamp": "0x03e8",
            "currentRandom": "0x0000000000000000000000000000000000000000000000000000000000020000",
            "currentDifficulty": "0x00",
            "currentBaseFee": "0x0a",
            "currentExcessBlobGas": "0x00"
        },
        "pre": {
            "0x133f7bc8ee79c05dd2e36284945e49c50a4a3e82": {
                "nonce": "0x00",
                "balance": "0x0de0b6b3a7640000",
                "code": "0x",
                "storage": {}
            },
            "0x9ba174f29926e7f4ec7fd25fe7ddf375c3ff301e": {
                "nonce": "0x00",
                "balance": "0x2e",
                "code": "0x6000355415600957005b60203560003555",
                "storage": {}
            },
            "0x9ba174f29926e7f4ec7fd25fe7ddf375c3ff311e": {
                "nonce": "0x00",
                "balance": "0x00",
                "code": "0x7f0000000000000000000000009ba174f29926e7f4ec7fd25fe7ddf375c3ff301e7f00000000000000000000000000000000000000000000000000000000000000017f00000000000000000000000100000000000000000000000000000000000000007f0000000000000000000000009ba174f29926e7f4ec7fd25fe7ddf375c3ff301e7fffffffffffffffffffffffffffffffffffffffffffffffffffffffffffffffff7f00000000000000000000000000000000000000000000000000000000000000017fffffffffffffffffffffffffffffffffffffffffffffffffffffffffffffffff7f00000000000000000000000000000000000000000000000000000000000000001155933704",
                "storage": {}
            }
        },
        "transaction": {
            "nonce": "0x00",
            "gasPrice": "0x0a",
            "gasLimit": [
                "0x0186a0"
            ],
            "to": "0x9ba174f29926e7f4ec7fd25fe7ddf375c3ff311e",
            "value": [
                "0x5967364f"
            ],
            "data": [
                "0x7f0000000000000000000000009ba174f29926e7f4ec7fd25fe7ddf375c3ff301e7f00000000000000000000000000000000000000000000000000000000000000017f00000000000000000000000100000000000000000000000000000000000000007f0000000000000000000000009ba174f29926e7f4ec7fd25fe7ddf375c3ff301e7fffffffffffffffffffffffffffffffffffffffffffffffffffffffffffffffff7f00000000000000000000000000000000000000000000000000000000000000017fffffffffffffffffffffffffffffffffffffffffffffffffffffffffffffffff7f00000000000000000000000000000000000000000000000000000000000000001155933704"
            ],
            "sender": "0x133f7bc8ee79c05dd2e36284945e49c50a4a3e82",
            "secretKey": "0x41613f5962aee6d9462bad7b9ba174f29926e7f4ec7fd25fe7ddf375c3ff301e"
        },
        "post": {
            "Prague": [
                {
                    "hash": "0xe3cbe01ac7a3d125163c5a1776876fec8b0311e519a092d240224d690fc9b16f",
                    "logs": "0x1dcc4de8dec75d7aab85b567b6ccd41ad312451b948a7413f0a142fd40d49347",
                    "txbytes": "0xf90173800a830186a0949ba174f29926e7f4ec7fd25fe7ddf375c3ff311e845967364fb9010d7f0000000000000000000000009ba174f29926e7f4ec7fd25fe7ddf375c3ff301e7f00000000000000000000000000000000000000000000000000000000000000017f00000000000000000000000100000000000000000000000000000000000000007f0000000000000000000000009ba174f29926e7f4ec7fd25fe7ddf375c3ff301e7fffffffffffffffffffffffffffffffffffffffffffffffffffffffffffffffff7f00000000000000000000000000000000000000000000000000000000000000017fffffffffffffffffffffffffffffffffffffffffffffffffffffffffffffffff7f0000000000000000000000000000000000000000000000000000000000000000115593370426a00ea3a3cfd63b598d45394c0827f26270a756df59a8fcc3054066db94ea0657e4a0698e808ec185d55823fac0ebdb4f9ab5debeb624585ae3bee90e6f970912c60e",
                    "indexes": {
                        "data": 0,
                        "gas": 0,
                        "value": 0
                    },
                    "state": {
                        "0x133f7bc8ee79c05dd2e36284945e49c50a4a3e82": {
                            "nonce": "0x01",
                            "balance": "0x0de0b6b3a754bdc0",
                            "code": "0x",
                            "storage": {}
                        },
                        "0x9ba174f29926e7f4ec7fd25fe7ddf375c3ff301e": {
                            "nonce": "0x00",
                            "balance": "0x2e",
                            "code": "0x6000355415600957005b60203560003555",
                            "storage": {}
                        },
                        "0x9ba174f29926e7f4ec7fd25fe7ddf375c3ff311e": {
                            "nonce": "0x00",
                            "balance": "0x00",
                            "code": "0x7f0000000000000000000000009ba174f29926e7f4ec7fd25fe7ddf375c3ff301e7f00000000000000000000000000000000000000000000000000000000000000017f00000000000000000000000100000000000000000000000000000000000000007f0000000000000000000000009ba174f29926e7f4ec7fd25fe7ddf375c3ff301e7fffffffffffffffffffffffffffffffffffffffffffffffffffffffffffffffff7f00000000000000000000000000000000000000000000000000000000000000017fffffffffffffffffffffffffffffffffffffffffffffffffffffffffffffffff7f00000000000000000000000000000000000000000000000000000000000000001155933704",
                            "storage": {}
                        }
                    }
                }
            ]
        },
        "config": {
            "blobSchedule": {
                "Cancun": {
                    "target": "0x03",
                    "max": "0x06",
                    "baseFeeUpdateFraction": "0x32f0ed"
                },
                "Prague": {
                    "target": "0x06",
                    "max": "0x09",
                    "baseFeeUpdateFraction": "0x4c6964"
                }
            },
            "chainid": "0x01"
        },
        "_info": {
            "hash": "0x0023d5ef6d3792296bb028c3f78125d5398fa0c6fb3aa5a437e1b8abc9df33be",
            "comment": "`execution-spec-tests` generated test",
            "filling-transition-tool": "ethereum-spec-evm-resolver 0.0.5",
            "description": "No description available - add a docstring to the python test class or function.",
            "url": "",
            "fixture-format": "state_test",
            "eels-resolution": {
                "git-url": "https://github.com/ethereum/execution-specs.git",
                "branch": "forks/bpos",
                "commit": "7aacb2c54111391af5e98c505d5010b5698a770f"
            }
        }
    }
}