{
    "tests/static/state_tests/stRandom2/randomStatetest647Filler.json::randomStatetest647[fork_Cancun-state_test-]": {
        "env": {
            "currentCoinbase": "0xd94f5374fce5edbc8e2a8697c15331677e6ebf0b",
            "currentGasLimit": "0x42fe8c95373ea1",
            "currentNumber": "0x01",
            "currentTimestamp": "0x03e8",
            "currentRandom": "0x0000000000000000000000000000000000000000000000000000000000020000",
            "currentDifficulty": "0x00",
            "currentBaseFee": "0x0a",
            "currentExcessBlobGas": "0x00"
        },
        "pre": {
            "0x907ea524e5cdeccac53f8550fa04b2efd4666cc4": {
                "nonce": "0x07",
                "balance": "0x00",
                "code": "0x6001600160000360003e00",
                "storage": {}
            },
            "0xba20844df3eff455d38368ca6781239e57a5cc4b": {
                "nonce": "0x00",
                "balance": "0x174876e800",
                "code": "0x",
                "storage": {}
            }
        },
        "transaction": {
            "nonce": "0x00",
            "gasPrice": "0x0a",
            "gasLimit": [
                "0x584d31"
            ],
            "to": "0x907ea524e5cdeccac53f8550fa04b2efd4666cc4",
            "value": [
                "0x00"
            ],
            "data": [
                "0x"
            ],
            "sender": "0xba20844df3eff455d38368ca6781239e57a5cc4b",
            "secretKey": "0xc7201fbf46bb9d8763de41c2907ea524e5cdeccac53f8550fa04b2efd4666cc4"
        },
        "post": {
            "Cancun": [
                {
                    "hash": "0x79f8f02c5665341cb6214a1da723a76dc5d5e597bedaeb557f37a8473a2b9b17",
                    "logs": "0x1dcc4de8dec75d7aab85b567b6ccd41ad312451b948a7413f0a142fd40d49347",
                    "txbytes": "0xf860800a83584d3194907ea524e5cdeccac53f8550fa04b2efd4666cc4808025a0e7bf8cb4d331802950168dc37a78e544a700c96c8013838209073683ea31220ca060859f97c6dfb2e2599902b4ea8d38d21964f377756354230dc433129543ef2e",
                    "indexes": {
                        "data": 0,
                        "gas": 0,
                        "value": 0
                    },
                    "state": {
                        "0x907ea524e5cdeccac53f8550fa04b2efd4666cc4": {
                            "nonce": "0x07",
                            "balance": "0x00",
                            "code": "0x6001600160000360003e00",
                            "storage": {}
                        },
                        "0xba20844df3eff455d38368ca6781239e57a5cc4b": {
                            "nonce": "0x01",
                            "balance": "0x174503e416",
                            "code": "0x",
                            "storage": {}
                        }
                    }
                }
            ]
        },
        "config": {
            "blobSchedule": {
                "Cancun": {
                    "target": "0x03",
                    "max": "0x06",
                    "baseFeeUpdateFraction": "0x32f0ed"
                }
            },
            "chainid": "0x01"
        },
        "_info": {
            "hash": "0xf3399fbe5d47e15775f33db37300b8fb680d32dbe98e689679b6c7b2ea513a2d",
            "comment": "`execution-spec-tests` generated test",
            "filling-transition-tool": "ethereum-spec-evm-resolver 0.0.5",
            "description": "No description available - add a docstring to the python test class or function.",
            "url": "",
            "fixture-format": "state_test",
            "eels-resolution": {
                "git-url": "https://github.com/ethereum/execution-specs.git",
                "branch": "forks/bpos",
                "commit": "7aacb2c54111391af5e98c505d5010b5698a770f"
            }
        }
    },
    "tests/static/state_tests/stRandom2/randomStatetest647Filler.json::randomStatetest647[fork_Osaka-state_test-]": {
        "env": {
            "currentCoinbase": "0xd94f5374fce5edbc8e2a8697c15331677e6ebf0b",
            "currentGasLimit": "0x42fe8c95373ea1",
            "currentNumber": "0x01",
            "currentTimestamp": "0x03e8",
            "currentRandom": "0x0000000000000000000000000000000000000000000000000000000000020000",
            "currentDifficulty": "0x00",
            "currentBaseFee": "0x0a",
            "currentExcessBlobGas": "0x00"
        },
        "pre": {
            "0x907ea524e5cdeccac53f8550fa04b2efd4666cc4": {
                "nonce": "0x07",
                "balance": "0x00",
                "code": "0x6001600160000360003e00",
                "storage": {}
            },
            "0xba20844df3eff455d38368ca6781239e57a5cc4b": {
                "nonce": "0x00",
                "balance": "0x174876e800",
                "code": "0x",
                "storage": {}
            }
        },
        "transaction": {
            "nonce": "0x00",
            "gasPrice": "0x0a",
            "gasLimit": [
                "0x584d31"
            ],
            "to": "0x907ea524e5cdeccac53f8550fa04b2efd4666cc4",
            "value": [
                "0x00"
            ],
            "data": [
                "0x"
            ],
            "sender": "0xba20844df3eff455d38368ca6781239e57a5cc4b",
            "secretKey": "0xc7201fbf46bb9d8763de41c2907ea524e5cdeccac53f8550fa04b2efd4666cc4"
        },
        "post": {
            "Osaka": [
                {
                    "hash": "0x79f8f02c5665341cb6214a1da723a76dc5d5e597bedaeb557f37a8473a2b9b17",
                    "logs": "0x1dcc4de8dec75d7aab85b567b6ccd41ad312451b948a7413f0a142fd40d49347",
                    "txbytes": "0xf860800a83584d3194907ea524e5cdeccac53f8550fa04b2efd4666cc4808025a0e7bf8cb4d331802950168dc37a78e544a700c96c8013838209073683ea31220ca060859f97c6dfb2e2599902b4ea8d38d21964f377756354230dc433129543ef2e",
                    "indexes": {
                        "data": 0,
                        "gas": 0,
                        "value": 0
                    },
                    "state": {
                        "0x907ea524e5cdeccac53f8550fa04b2efd4666cc4": {
                            "nonce": "0x07",
                            "balance": "0x00",
                            "code": "0x6001600160000360003e00",
                            "storage": {}
                        },
                        "0xba20844df3eff455d38368ca6781239e57a5cc4b": {
                            "nonce": "0x01",
                            "balance": "0x174503e416",
                            "code": "0x",
                            "storage": {}
                        }
                    }
                }
            ]
        },
        "config": {
            "blobSchedule": {
                "Cancun": {
                    "target": "0x03",
                    "max": "0x06",
                    "baseFeeUpdateFraction": "0x32f0ed"
                },
                "Prague": {
                    "target": "0x06",
                    "max": "0x09",
                    "baseFeeUpdateFraction": "0x4c6964"
                },
                "Osaka": {
                    "target": "0x06",
                    "max": "0x09",
                    "baseFeeUpdateFraction": "0x4c6964"
                }
            },
            "chainid": "0x01"
        },
        "_info": {
            "hash": "0xde7055239686e8c1cd0a763268178c78dfca36c6c0bc27bcab9a9b2c7519e367",
            "comment": "`execution-spec-tests` generated test",
            "filling-transition-tool": "ethereum-spec-evm-resolver 0.0.5",
            "description": "No description available - add a docstring to the python test class or function.",
            "url": "",
            "fixture-format": "state_test",
            "eels-resolution": {
                "git-url": "https://github.com/ethereum/execution-specs.git",
                "branch": "forks/bpos",
                "commit": "7aacb2c54111391af5e98c505d5010b5698a770f"
            }
        }
    },
    "tests/static/state_tests/stRandom2/randomStatetest647Filler.json::randomStatetest647[fork_Prague-state_test-]": {
        "env": {
            "currentCoinbase": "0xd94f5374fce5edbc8e2a8697c15331677e6ebf0b",
            "currentGasLimit": "0x42fe8c95373ea1",
            "currentNumber": "0x01",
            "currentTimestamp": "0x03e8",
            "currentRandom": "0x0000000000000000000000000000000000000000000000000000000000020000",
            "currentDifficulty": "0x00",
            "currentBaseFee": "0x0a",
            "currentExcessBlobGas": "0x00"
        },
        "pre": {
            "0x907ea524e5cdeccac53f8550fa04b2efd4666cc4": {
                "nonce": "0x07",
                "balance": "0x00",
                "code": "0x6001600160000360003e00",
                "storage": {}
            },
            "0xba20844df3eff455d38368ca6781239e57a5cc4b": {
                "nonce": "0x00",
                "balance": "0x174876e800",
                "code": "0x",
                "storage": {}
            }
        },
        "transaction": {
            "nonce": "0x00",
            "gasPrice": "0x0a",
            "gasLimit": [
                "0x584d31"
            ],
            "to": "0x907ea524e5cdeccac53f8550fa04b2efd4666cc4",
            "value": [
                "0x00"
            ],
            "data": [
                "0x"
            ],
            "sender": "0xba20844df3eff455d38368ca6781239e57a5cc4b",
            "secretKey": "0xc7201fbf46bb9d8763de41c2907ea524e5cdeccac53f8550fa04b2efd4666cc4"
        },
        "post": {
            "Prague": [
                {
                    "hash": "0x79f8f02c5665341cb6214a1da723a76dc5d5e597bedaeb557f37a8473a2b9b17",
                    "logs": "0x1dcc4de8dec75d7aab85b567b6ccd41ad312451b948a7413f0a142fd40d49347",
                    "txbytes": "0xf860800a83584d3194907ea524e5cdeccac53f8550fa04b2efd4666cc4808025a0e7bf8cb4d331802950168dc37a78e544a700c96c8013838209073683ea31220ca060859f97c6dfb2e2599902b4ea8d38d21964f377756354230dc433129543ef2e",
                    "indexes": {
                        "data": 0,
                        "gas": 0,
                        "value": 0
                    },
                    "state": {
                        "0x907ea524e5cdeccac53f8550fa04b2efd4666cc4": {
                            "nonce": "0x07",
                            "balance": "0x00",
                            "code": "0x6001600160000360003e00",
                            "storage": {}
                        },
                        "0xba20844df3eff455d38368ca6781239e57a5cc4b": {
                            "nonce": "0x01",
                            "balance": "0x174503e416",
                            "code": "0x",
                            "storage": {}
                        }
                    }
                }
            ]
        },
        "config": {
            "blobSchedule": {
                "Cancun": {
                    "target": "0x03",
                    "max": "0x06",
                    "baseFeeUpdateFraction": "0x32f0ed"
                },
                "Prague": {
                    "target": "0x06",
                    "max": "0x09",
                    "baseFeeUpdateFraction": "0x4c6964"
                }
            },
            "chainid": "0x01"
        },
        "_info": {
            "hash": "0x1c45de40b25fe1a8cdd519f35f240b10209e622143a6c64891a6a6b8c192993c",
            "comment": "`execution-spec-tests` generated test",
            "filling-transition-tool": "ethereum-spec-evm-resolver 0.0.5",
            "description": "No description available - add a docstring to the python test class or function.",
            "url": "",
            "fixture-format": "state_test",
            "eels-resolution": {
                "git-url": "https://github.com/ethereum/execution-specs.git",
                "branch": "forks/bpos",
                "commit": "7aacb2c54111391af5e98c505d5010b5698a770f"
            }
        }
    }
}