{
    "tests/static/state_tests/stRandom2/randomStatetest626Filler.json::randomStatetest626[fork_Cancun-state_test-]": {
        "env": {
            "currentCoinbase": "0xb5e0c70f8c4cee671b40aa40a1919748faee94dd",
            "currentGasLimit": "0x7fffffffffffffff",
            "currentNumber": "0x01",
            "currentTimestamp": "0x03e8",
            "currentRandom": "0x0000000000000000000000000000000000000000000000000000000000020000",
            "currentDifficulty": "0x00",
            "currentBaseFee": "0x0a",
            "currentExcessBlobGas": "0x00"
        },
        "pre": {
            "0x6f9b764d18a72e901a54ab0fb47ce12f4b5eab5a": {
                "nonce": "0x00",
                "balance": "0x0de0b6b3a7640000",
                "code": "0x",
                "storage": {}
            },
            "0xb5e0c70f8c4cee671b40aa40a1919748faee94dd": {
                "nonce": "0x00",
                "balance": "0x2e",
                "code": "0x6000355415600957005b60203560003555",
                "storage": {}
            },
            "0xb5e0c70f8c4cee671b40aa40a1919748faee95dd": {
                "nonce": "0x00",
                "balance": "0x00",
                "code": "0x7f00000000000000000000000100000000000000000000000000000000000000007f000000000000000000000000000000000000000000000000000000000000c3507f00000000000000000000000000000000000000000000000000000000000000017fffffffffffffffffffffffffffffffffffffffffffffffffffffffffffffffff7f00000000000000000000000000000000000000000000000000000000000000007f00000000000000000000000000000000000000000000000000000000000000017f000000000000000000000000b5e0c70f8c4cee671b40aa40a1919748faee94dd7f000000000000000000000000000000000000000000000000000000000000c350f4fd94058f06a255",
                "storage": {}
            }
        },
        "transaction": {
            "nonce": "0x00",
            "gasPrice": "0x0a",
            "gasLimit": [
                "0x0186a0"
            ],
            "to": "0xb5e0c70f8c4cee671b40aa40a1919748faee95dd",
            "value": [
                "0x7700577a"
            ],
            "data": [
                "0x7f00000000000000000000000100000000000000000000000000000000000000007f000000000000000000000000000000000000000000000000000000000000c3507f00000000000000000000000000000000000000000000000000000000000000017fffffffffffffffffffffffffffffffffffffffffffffffffffffffffffffffff7f00000000000000000000000000000000000000000000000000000000000000007f00000000000000000000000000000000000000000000000000000000000000017f000000000000000000000000b5e0c70f8c4cee671b40aa40a1919748faee94dd7f000000000000000000000000000000000000000000000000000000000000c350f4fd94058f06a2"
            ],
            "sender": "0x6f9b764d18a72e901a54ab0fb47ce12f4b5eab5a",
            "secretKey": "0x70e13df08fb69543d0e8f6feb5e0c70f8c4cee671b40aa40a1919748faee94dd"
        },
        "post": {
            "Cancun": [
                {
                    "hash": "0x15d6abfbfa285a9af991e215230504960d362b225f64800430a5b1d85730b086",
                    "logs": "0x1dcc4de8dec75d7aab85b567b6ccd41ad312451b948a7413f0a142fd40d49347",
                    "txbytes": "0xf90175800a830186a094b5e0c70f8c4cee671b40aa40a1919748faee95dd847700577ab9010f7f00000000000000000000000100000000000000000000000000000000000000007f000000000000000000000000000000000000000000000000000000000000c3507f00000000000000000000000000000000000000000000000000000000000000017fffffffffffffffffffffffffffffffffffffffffffffffffffffffffffffffff7f00000000000000000000000000000000000000000000000000000000000000007f00000000000000000000000000000000000000000000000000000000000000017f000000000000000000000000b5e0c70f8c4cee671b40aa40a1919748faee94dd7f000000000000000000000000000000000000000000000000000000000000c350f4fd94058f06a226a0d9c9a2cd9d30e34270044d7763148b423c4bd6ff925762794ffdf64cff6e5a28a0022337c1d73d700129471995acdc57929591730d79558cc4af6ebeb95c0047a8",
                    "indexes": {
                        "data": 0,
                        "gas": 0,
                        "value": 0
                    },
                    "state": {
                        "0x6f9b764d18a72e901a54ab0fb47ce12f4b5eab5a": {
                            "nonce": "0x01",
                            "balance": "0x0de0b6b3a754bdc0",
                            "code": "0x",
                            "storage": {}
                        },
                        "0xb5e0c70f8c4cee671b40aa40a1919748faee94dd": {
                            "nonce": "0x00",
                            "balance": "0x2e",
                            "code": "0x6000355415600957005b60203560003555",
                            "storage": {}
                        },
                        "0xb5e0c70f8c4cee671b40aa40a1919748faee95dd": {
                            "nonce": "0x00",
                            "balance": "0x00",
                            "code": "0x7f00000000000000000000000100000000000000000000000000000000000000007f000000000000000000000000000000000000000000000000000000000000c3507f00000000000000000000000000000000000000000000000000000000000000017fffffffffffffffffffffffffffffffffffffffffffffffffffffffffffffffff7f00000000000000000000000000000000000000000000000000000000000000007f00000000000000000000000000000000000000000000000000000000000000017f000000000000000000000000b5e0c70f8c4cee671b40aa40a1919748faee94dd7f000000000000000000000000000000000000000000000000000000000000c350f4fd94058f06a255",
                            "storage": {}
                        }
                    }
                }
            ]
        },
        "config": {
            "blobSchedule": {
                "Cancun": {
                    "target": "0x03",
                    "max": "0x06",
                    "baseFeeUpdateFraction": "0x32f0ed"
                }
            },
            "chainid": "0x01"
        },
        "_info": {
            "hash": "0x06b43e38bdc5787f61707756cc20ac26e40ee38f6c721e27cc0bab33bb3ae225",
            "comment": "`execution-spec-tests` generated test",
            "filling-transition-tool": "ethereum-spec-evm-resolver 0.0.5",
            "description": "No description available - add a docstring to the python test class or function.",
            "url": "",
            "fixture-format": "state_test",
            "eels-resolution": {
                "git-url": "https://github.com/ethereum/execution-specs.git",
                "branch": "forks/bpos",
                "commit": "7aacb2c54111391af5e98c505d5010b5698a770f"
            }
        }
    },
    "tests/static/state_tests/stRandom2/randomStatetest626Filler.json::randomStatetest626[fork_Osaka-state_test-]": {
        "env": {
            "currentCoinbase": "0xb5e0c70f8c4cee671b40aa40a1919748faee94dd",
            "currentGasLimit": "0x7fffffffffffffff",
            "currentNumber": "0x01",
            "currentTimestamp": "0x03e8",
            "currentRandom": "0x0000000000000000000000000000000000000000000000000000000000020000",
            "currentDifficulty": "0x00",
            "currentBaseFee": "0x0a",
            "currentExcessBlobGas": "0x00"
        },
        "pre": {
            "0x6f9b764d18a72e901a54ab0fb47ce12f4b5eab5a": {
                "nonce": "0x00",
                "balance": "0x0de0b6b3a7640000",
                "code": "0x",
                "storage": {}
            },
            "0xb5e0c70f8c4cee671b40aa40a1919748faee94dd": {
                "nonce": "0x00",
                "balance": "0x2e",
                "code": "0x6000355415600957005b60203560003555",
                "storage": {}
            },
            "0xb5e0c70f8c4cee671b40aa40a1919748faee95dd": {
                "nonce": "0x00",
                "balance": "0x00",
                "code": "0x7f00000000000000000000000100000000000000000000000000000000000000007f000000000000000000000000000000000000000000000000000000000000c3507f00000000000000000000000000000000000000000000000000000000000000017fffffffffffffffffffffffffffffffffffffffffffffffffffffffffffffffff7f00000000000000000000000000000000000000000000000000000000000000007f00000000000000000000000000000000000000000000000000000000000000017f000000000000000000000000b5e0c70f8c4cee671b40aa40a1919748faee94dd7f000000000000000000000000000000000000000000000000000000000000c350f4fd94058f06a255",
                "storage": {}
            }
        },
        "transaction": {
            "nonce": "0x00",
            "gasPrice": "0x0a",
            "gasLimit": [
                "0x0186a0"
            ],
            "to": "0xb5e0c70f8c4cee671b40aa40a1919748faee95dd",
            "value": [
                "0x7700577a"
            ],
            "data": [
                "0x7f00000000000000000000000100000000000000000000000000000000000000007f000000000000000000000000000000000000000000000000000000000000c3507f00000000000000000000000000000000000000000000000000000000000000017fffffffffffffffffffffffffffffffffffffffffffffffffffffffffffffffff7f00000000000000000000000000000000000000000000000000000000000000007f00000000000000000000000000000000000000000000000000000000000000017f000000000000000000000000b5e0c70f8c4cee671b40aa40a1919748faee94dd7f000000000000000000000000000000000000000000000000000000000000c350f4fd94058f06a2"
            ],
            "sender": "0x6f9b764d18a72e901a54ab0fb47ce12f4b5eab5a",
            "secretKey": "0x70e13df08fb69543d0e8f6feb5e0c70f8c4cee671b40aa40a1919748faee94dd"
        },
        "post": {
            "Osaka": [
                {
                    "hash": "0x15d6abfbfa285a9af991e215230504960d362b225f64800430a5b1d85730b086",
                    "logs": "0x1dcc4de8dec75d7aab85b567b6ccd41ad312451b948a7413f0a142fd40d49347",
                    "txbytes": "0xf90175800a830186a094b5e0c70f8c4cee671b40aa40a1919748faee95dd847700577ab9010f7f00000000000000000000000100000000000000000000000000000000000000007f000000000000000000000000000000000000000000000000000000000000c3507f00000000000000000000000000000000000000000000000000000000000000017fffffffffffffffffffffffffffffffffffffffffffffffffffffffffffffffff7f00000000000000000000000000000000000000000000000000000000000000007f00000000000000000000000000000000000000000000000000000000000000017f000000000000000000000000b5e0c70f8c4cee671b40aa40a1919748faee94dd7f000000000000000000000000000000000000000000000000000000000000c350f4fd94058f06a226a0d9c9a2cd9d30e34270044d7763148b423c4bd6ff925762794ffdf64cff6e5a28a0022337c1d73d700129471995acdc57929591730d79558cc4af6ebeb95c0047a8",
                    "indexes": {
                        "data": 0,
                        "gas": 0,
                        "value": 0
                    },
                    "state": {
                        "0x6f9b764d18a72e901a54ab0fb47ce12f4b5eab5a": {
                            "nonce": "0x01",
                            "balance": "0x0de0b6b3a754bdc0",
                            "code": "0x",
                            "storage": {}
                        },
                        "0xb5e0c70f8c4cee671b40aa40a1919748faee94dd": {
                            "nonce": "0x00",
                            "balance": "0x2e",
                            "code": "0x6000355415600957005b60203560003555",
                            "storage": {}
                        },
                        "0xb5e0c70f8c4cee671b40aa40a1919748faee95dd": {
                            "nonce": "0x00",
                            "balance": "0x00",
                            "code": "0x7f00000000000000000000000100000000000000000000000000000000000000007f000000000000000000000000000000000000000000000000000000000000c3507f00000000000000000000000000000000000000000000000000000000000000017fffffffffffffffffffffffffffffffffffffffffffffffffffffffffffffffff7f00000000000000000000000000000000000000000000000000000000000000007f00000000000000000000000000000000000000000000000000000000000000017f000000000000000000000000b5e0c70f8c4cee671b40aa40a1919748faee94dd7f000000000000000000000000000000000000000000000000000000000000c350f4fd94058f06a255",
                            "storage": {}
                        }
                    }
                }
            ]
        },
        "config": {
            "blobSchedule": {
                "Cancun": {
                    "target": "0x03",
                    "max": "0x06",
                    "baseFeeUpdateFraction": "0x32f0ed"
                },
                "Prague": {
                    "target": "0x06",
                    "max": "0x09",
                    "baseFeeUpdateFraction": "0x4c6964"
                },
                "Osaka": {
                    "target": "0x06",
                    "max": "0x09",
                    "baseFeeUpdateFraction": "0x4c6964"
                }
            },
            "chainid": "0x01"
        },
        "_info": {
            "hash": "0xb883aa3d30d642878380b3cfbec201922119c62f284f679375356daf45c034c7",
            "comment": "`execution-spec-tests` generated test",
            "filling-transition-tool": "ethereum-spec-evm-resolver 0.0.5",
            "description": "No description available - add a docstring to the python test class or function.",
            "url": "",
            "fixture-format": "state_test",
            "eels-resolution": {
                "git-url": "https://github.com/ethereum/execution-specs.git",
                "branch": "forks/bpos",
                "commit": "7aacb2c54111391af5e98c505d5010b5698a770f"
            }
        }
    },
    "tests/static/state_tests/stRandom2/randomStatetest626Filler.json::randomStatetest626[fork_Prague-state_test-]": {
        "env": {
            "currentCoinbase": "0xb5e0c70f8c4cee671b40aa40a1919748faee94dd",
            "currentGasLimit": "0x7fffffffffffffff",
            "currentNumber": "0x01",
            "currentTimestamp": "0x03e8",
            "currentRandom": "0x0000000000000000000000000000000000000000000000000000000000020000",
            "currentDifficulty": "0x00",
            "currentBaseFee": "0x0a",
            "currentExcessBlobGas": "0x00"
        },
        "pre": {
            "0x6f9b764d18a72e901a54ab0fb47ce12f4b5eab5a": {
                "nonce": "0x00",
                "balance": "0x0de0b6b3a7640000",
                "code": "0x",
                "storage": {}
            },
            "0xb5e0c70f8c4cee671b40aa40a1919748faee94dd": {
                "nonce": "0x00",
                "balance": "0x2e",
                "code": "0x6000355415600957005b60203560003555",
                "storage": {}
            },
            "0xb5e0c70f8c4cee671b40aa40a1919748faee95dd": {
                "nonce": "0x00",
                "balance": "0x00",
                "code": "0x7f00000000000000000000000100000000000000000000000000000000000000007f000000000000000000000000000000000000000000000000000000000000c3507f00000000000000000000000000000000000000000000000000000000000000017fffffffffffffffffffffffffffffffffffffffffffffffffffffffffffffffff7f00000000000000000000000000000000000000000000000000000000000000007f00000000000000000000000000000000000000000000000000000000000000017f000000000000000000000000b5e0c70f8c4cee671b40aa40a1919748faee94dd7f000000000000000000000000000000000000000000000000000000000000c350f4fd94058f06a255",
                "storage": {}
            }
        },
        "transaction": {
            "nonce": "0x00",
            "gasPrice": "0x0a",
            "gasLimit": [
                "0x0186a0"
            ],
            "to": "0xb5e0c70f8c4cee671b40aa40a1919748faee95dd",
            "value": [
                "0x7700577a"
            ],
            "data": [
                "0x7f00000000000000000000000100000000000000000000000000000000000000007f000000000000000000000000000000000000000000000000000000000000c3507f00000000000000000000000000000000000000000000000000000000000000017fffffffffffffffffffffffffffffffffffffffffffffffffffffffffffffffff7f00000000000000000000000000000000000000000000000000000000000000007f00000000000000000000000000000000000000000000000000000000000000017f000000000000000000000000b5e0c70f8c4cee671b40aa40a1919748faee94dd7f000000000000000000000000000000000000000000000000000000000000c350f4fd94058f06a2"
            ],
            "sender": "0x6f9b764d18a72e901a54ab0fb47ce12f4b5eab5a",
            "secretKey": "0x70e13df08fb69543d0e8f6feb5e0c70f8c4cee671b40aa40a1919748faee94dd"
        },
        "post": {
            "Prague": [
                {
                    "hash": "0x15d6abfbfa285a9af991e215230504960d362b225f64800430a5b1d85730b086",
                    "logs": "0x1dcc4de8dec75d7aab85b567b6ccd41ad312451b948a7413f0a142fd40d49347",
                    "txbytes": "0xf90175800a830186a094b5e0c70f8c4cee671b40aa40a1919748faee95dd847700577ab9010f7f00000000000000000000000100000000000000000000000000000000000000007f000000000000000000000000000000000000000000000000000000000000c3507f00000000000000000000000000000000000000000000000000000000000000017fffffffffffffffffffffffffffffffffffffffffffffffffffffffffffffffff7f00000000000000000000000000000000000000000000000000000000000000007f00000000000000000000000000000000000000000000000000000000000000017f000000000000000000000000b5e0c70f8c4cee671b40aa40a1919748faee94dd7f000000000000000000000000000000000000000000000000000000000000c350f4fd94058f06a226a0d9c9a2cd9d30e34270044d7763148b423c4bd6ff925762794ffdf64cff6e5a28a0022337c1d73d700129471995acdc57929591730d79558cc4af6ebeb95c0047a8",
                    "indexes": {
                        "data": 0,
                        "gas": 0,
                        "value": 0
                    },
                    "state": {
                        "0x6f9b764d18a72e901a54ab0fb47ce12f4b5eab5a": {
                            "nonce": "0x01",
                            "balance": "0x0de0b6b3a754bdc0",
                            "code": "0x",
                            "storage": {}
                        },
                        "0xb5e0c70f8c4cee671b40aa40a1919748faee94dd": {
                            "nonce": "0x00",
                            "balance": "0x2e",
                            "code": "0x6000355415600957005b60203560003555",
                            "storage": {}
                        },
                        "0xb5e0c70f8c4cee671b40aa40a1919748faee95dd": {
                            "nonce": "0x00",
                            "balance": "0x00",
                            "code": "0x7f00000000000000000000000100000000000000000000000000000000000000007f000000000000000000000000000000000000000000000000000000000000c3507f00000000000000000000000000000000000000000000000000000000000000017fffffffffffffffffffffffffffffffffffffffffffffffffffffffffffffffff7f00000000000000000000000000000000000000000000000000000000000000007f00000000000000000000000000000000000000000000000000000000000000017f000000000000000000000000b5e0c70f8c4cee671b40aa40a1919748faee94dd7f000000000000000000000000000000000000000000000000000000000000c350f4fd94058f06a255",
                            "storage": {}
                        }
                    }
                }
            ]
        },
        "config": {
            "blobSchedule": {
                "Cancun": {
                    "target": "0x03",
                    "max": "0x06",
                    "baseFeeUpdateFraction": "0x32f0ed"
                },
                "Prague": {
                    "target": "0x06",
                    "max": "0x09",
                    "baseFeeUpdateFraction": "0x4c6964"
                }
            },
            "chainid": "0x01"
        },
        "_info": {
            "hash": "0x060ac55ae882b682165d425472097b01358265749e9cff341b591d2531517a33",
            "comment": "`execution-spec-tests` generated test",
            "filling-transition-tool": "ethereum-spec-evm-resolver 0.0.5",
            "description": "No description available - add a docstring to the python test class or function.",
            "url": "",
            "fixture-format": "state_test",
            "eels-resolution": {
                "git-url": "https://github.com/ethereum/execution-specs.git",
                "branch": "forks/bpos",
                "commit": "7aacb2c54111391af5e98c505d5010b5698a770f"
            }
        }
    }
}