{
    "tests/static/state_tests/stRandom2/randomStatetest508Filler.json::randomStatetest508[fork_Cancun-state_test-]": {
        "env": {
            "currentCoinbase": "0x797363a19ddf51d8eae568d8fab9ce391ebaaacf",
            "currentGasLimit": "0x7fffffffffffffff",
            "currentNumber": "0x01",
            "currentTimestamp": "0x03e8",
            "currentRandom": "0x0000000000000000000000000000000000000000000000000000000000020000",
            "currentDifficulty": "0x00",
            "currentBaseFee": "0x0a",
            "currentExcessBlobGas": "0x00"
        },
        "pre": {
            "0xd4ef505ae039795a58d86a9291c95c162c0ba97a": {
                "nonce": "0x00",
                "balance": "0x0de0b6b3a7640000",
                "code": "0x",
                "storage": {}
            },
            "0x797363a19ddf51d8eae568d8fab9ce391ebaaacf": {
                "nonce": "0x00",
                "balance": "0x2e",
                "code": "0x6000355415600957005b60203560003555",
                "storage": {}
            },
            "0x797363a19ddf51d8eae568d8fab9ce391ebaabcf": {
                "nonce": "0x00",
                "balance": "0x0de0b6b3a7640000",
                "code": "0x41414444424143448231537241317f55",
                "storage": {}
            }
        },
        "transaction": {
            "nonce": "0x00",
            "gasPrice": "0x0a",
            "gasLimit": [
                "0x061a80"
            ],
            "to": "0x797363a19ddf51d8eae568d8fab9ce391ebaabcf",
            "value": [
                "0x0186a0"
            ],
            "data": [
                "0x42"
            ],
            "sender": "0xd4ef505ae039795a58d86a9291c95c162c0ba97a",
            "secretKey": "0x6fb66d6f06538c86d737768a797363a19ddf51d8eae568d8fab9ce391ebaaacf"
        },
        "post": {
            "Cancun": [
                {
                    "hash": "0x84a99b3317f9a6eb44b85d36ebd52b75f7aa47d19805735115e368e3ae709a5b",
                    "logs": "0x1dcc4de8dec75d7aab85b567b6ccd41ad312451b948a7413f0a142fd40d49347",
                    "txbytes": "0xf863800a83061a8094797363a19ddf51d8eae568d8fab9ce391ebaabcf830186a04225a051b974e964f2d820d37ae3e15e2e56078c1325770b222b3ac3695dc4d6fa38c9a00bab5a7f25bd04c3a93f645723321da79b9a20e726e9b677a4746ccd3196e259",
                    "indexes": {
                        "data": 0,
                        "gas": 0,
                        "value": 0
                    },
                    "state": {
                        "0xd4ef505ae039795a58d86a9291c95c162c0ba97a": {
                            "nonce": "0x01",
                            "balance": "0x0de0b6b3a75f3f52",
                            "code": "0x",
                            "storage": {}
                        },
                        "0x797363a19ddf51d8eae568d8fab9ce391ebaaacf": {
                            "nonce": "0x00",
                            "balance": "0x2e",
                            "code": "0x6000355415600957005b60203560003555",
                            "storage": {}
                        },
                        "0x797363a19ddf51d8eae568d8fab9ce391ebaabcf": {
                            "nonce": "0x00",
                            "balance": "0x0de0b6b3a76586a0",
                            "code": "0x41414444424143448231537241317f55",
                            "storage": {}
                        }
                    }
                }
            ]
        },
        "config": {
            "blobSchedule": {
                "Cancun": {
                    "target": "0x03",
                    "max": "0x06",
                    "baseFeeUpdateFraction": "0x32f0ed"
                }
            },
            "chainid": "0x01"
        },
        "_info": {
            "hash": "0x9132206803914363510be49e730f0004b4176a0258dfefb34a47a42dbd86aea6",
            "comment": "`execution-spec-tests` generated test",
            "filling-transition-tool": "ethereum-spec-evm-resolver 0.0.5",
            "description": "No description available - add a docstring to the python test class or function.",
            "url": "",
            "fixture-format": "state_test",
            "eels-resolution": {
                "git-url": "https://github.com/ethereum/execution-specs.git",
                "branch": "forks/bpos",
                "commit": "7aacb2c54111391af5e98c505d5010b5698a770f"
            }
        }
    },
    "tests/static/state_tests/stRandom2/randomStatetest508Filler.json::randomStatetest508[fork_Osaka-state_test-]": {
        "env": {
            "currentCoinbase": "0x797363a19ddf51d8eae568d8fab9ce391ebaaacf",
            "currentGasLimit": "0x7fffffffffffffff",
            "currentNumber": "0x01",
            "currentTimestamp": "0x03e8",
            "currentRandom": "0x0000000000000000000000000000000000000000000000000000000000020000",
            "currentDifficulty": "0x00",
            "currentBaseFee": "0x0a",
            "currentExcessBlobGas": "0x00"
        },
        "pre": {
            "0xd4ef505ae039795a58d86a9291c95c162c0ba97a": {
                "nonce": "0x00",
                "balance": "0x0de0b6b3a7640000",
                "code": "0x",
                "storage": {}
            },
            "0x797363a19ddf51d8eae568d8fab9ce391ebaaacf": {
                "nonce": "0x00",
                "balance": "0x2e",
                "code": "0x6000355415600957005b60203560003555",
                "storage": {}
            },
            "0x797363a19ddf51d8eae568d8fab9ce391ebaabcf": {
                "nonce": "0x00",
                "balance": "0x0de0b6b3a7640000",
                "code": "0x41414444424143448231537241317f55",
                "storage": {}
            }
        },
        "transaction": {
            "nonce": "0x00",
            "gasPrice": "0x0a",
            "gasLimit": [
                "0x061a80"
            ],
            "to": "0x797363a19ddf51d8eae568d8fab9ce391ebaabcf",
            "value": [
                "0x0186a0"
            ],
            "data": [
                "0x42"
            ],
            "sender": "0xd4ef505ae039795a58d86a9291c95c162c0ba97a",
            "secretKey": "0x6fb66d6f06538c86d737768a797363a19ddf51d8eae568d8fab9ce391ebaaacf"
        },
        "post": {
            "Osaka": [
                {
                    "hash": "0x84a99b3317f9a6eb44b85d36ebd52b75f7aa47d19805735115e368e3ae709a5b",
                    "logs": "0x1dcc4de8dec75d7aab85b567b6ccd41ad312451b948a7413f0a142fd40d49347",
                    "txbytes": "0xf863800a83061a8094797363a19ddf51d8eae568d8fab9ce391ebaabcf830186a04225a051b974e964f2d820d37ae3e15e2e56078c1325770b222b3ac3695dc4d6fa38c9a00bab5a7f25bd04c3a93f645723321da79b9a20e726e9b677a4746ccd3196e259",
                    "indexes": {
                        "data": 0,
                        "gas": 0,
                        "value": 0
                    },
                    "state": {
                        "0xd4ef505ae039795a58d86a9291c95c162c0ba97a": {
                            "nonce": "0x01",
                            "balance": "0x0de0b6b3a75f3f52",
                            "code": "0x",
                            "storage": {}
                        },
                        "0x797363a19ddf51d8eae568d8fab9ce391ebaaacf": {
                            "nonce": "0x00",
                            "balance": "0x2e",
                            "code": "0x6000355415600957005b60203560003555",
                            "storage": {}
                        },
                        "0x797363a19ddf51d8eae568d8fab9ce391ebaabcf": {
                            "nonce": "0x00",
                            "balance": "0x0de0b6b3a76586a0",
                            "code": "0x41414444424143448231537241317f55",
                            "storage": {}
                        }
                    }
                }
            ]
        },
        "config": {
            "blobSchedule": {
                "Cancun": {
                    "target": "0x03",
                    "max": "0x06",
                    "baseFeeUpdateFraction": "0x32f0ed"
                },
                "Prague": {
                    "target": "0x06",
                    "max": "0x09",
                    "baseFeeUpdateFraction": "0x4c6964"
                },
                "Osaka": {
                    "target": "0x06",
                    "max": "0x09",
                    "baseFeeUpdateFraction": "0x4c6964"
                }
            },
            "chainid": "0x01"
        },
        "_info": {
            "hash": "0x1a7731750dfb428bbe1ee25c7e8ec30821112615fe1bb20c7f938ed6f1896ea5",
            "comment": "`execution-spec-tests` generated test",
            "filling-transition-tool": "ethereum-spec-evm-resolver 0.0.5",
            "description": "No description available - add a docstring to the python test class or function.",
            "url": "",
            "fixture-format": "state_test",
            "eels-resolution": {
                "git-url": "https://github.com/ethereum/execution-specs.git",
                "branch": "forks/bpos",
                "commit": "7aacb2c54111391af5e98c505d5010b5698a770f"
            }
        }
    },
    "tests/static/state_tests/stRandom2/randomStatetest508Filler.json::randomStatetest508[fork_Prague-state_test-]": {
        "env": {
            "currentCoinbase": "0x797363a19ddf51d8eae568d8fab9ce391ebaaacf",
            "currentGasLimit": "0x7fffffffffffffff",
            "currentNumber": "0x01",
            "currentTimestamp": "0x03e8",
            "currentRandom": "0x0000000000000000000000000000000000000000000000000000000000020000",
            "currentDifficulty": "0x00",
            "currentBaseFee": "0x0a",
            "currentExcessBlobGas": "0x00"
        },
        "pre": {
            "0xd4ef505ae039795a58d86a9291c95c162c0ba97a": {
                "nonce": "0x00",
                "balance": "0x0de0b6b3a7640000",
                "code": "0x",
                "storage": {}
            },
            "0x797363a19ddf51d8eae568d8fab9ce391ebaaacf": {
                "nonce": "0x00",
                "balance": "0x2e",
                "code": "0x6000355415600957005b60203560003555",
                "storage": {}
            },
            "0x797363a19ddf51d8eae568d8fab9ce391ebaabcf": {
                "nonce": "0x00",
                "balance": "0x0de0b6b3a7640000",
                "code": "0x41414444424143448231537241317f55",
                "storage": {}
            }
        },
        "transaction": {
            "nonce": "0x00",
            "gasPrice": "0x0a",
            "gasLimit": [
                "0x061a80"
            ],
            "to": "0x797363a19ddf51d8eae568d8fab9ce391ebaabcf",
            "value": [
                "0x0186a0"
            ],
            "data": [
                "0x42"
            ],
            "sender": "0xd4ef505ae039795a58d86a9291c95c162c0ba97a",
            "secretKey": "0x6fb66d6f06538c86d737768a797363a19ddf51d8eae568d8fab9ce391ebaaacf"
        },
        "post": {
            "Prague": [
                {
                    "hash": "0x84a99b3317f9a6eb44b85d36ebd52b75f7aa47d19805735115e368e3ae709a5b",
                    "logs": "0x1dcc4de8dec75d7aab85b567b6ccd41ad312451b948a7413f0a142fd40d49347",
                    "txbytes": "0xf863800a83061a8094797363a19ddf51d8eae568d8fab9ce391ebaabcf830186a04225a051b974e964f2d820d37ae3e15e2e56078c1325770b222b3ac3695dc4d6fa38c9a00bab5a7f25bd04c3a93f645723321da79b9a20e726e9b677a4746ccd3196e259",
                    "indexes": {
                        "data": 0,
                        "gas": 0,
                        "value": 0
                    },
                    "state": {
                        "0xd4ef505ae039795a58d86a9291c95c162c0ba97a": {
                            "nonce": "0x01",
                            "balance": "0x0de0b6b3a75f3f52",
                            "code": "0x",
                            "storage": {}
                        },
                        "0x797363a19ddf51d8eae568d8fab9ce391ebaaacf": {
                            "nonce": "0x00",
                            "balance": "0x2e",
                            "code": "0x6000355415600957005b60203560003555",
                            "storage": {}
                        },
                        "0x797363a19ddf51d8eae568d8fab9ce391ebaabcf": {
                            "nonce": "0x00",
                            "balance": "0x0de0b6b3a76586a0",
                            "code": "0x41414444424143448231537241317f55",
                            "storage": {}
                        }
                    }
                }
            ]
        },
        "config": {
            "blobSchedule": {
                "Cancun": {
                    "target": "0x03",
                    "max": "0x06",
                    "baseFeeUpdateFraction": "0x32f0ed"
                },
                "Prague": {
                    "target": "0x06",
                    "max": "0x09",
                    "baseFeeUpdateFraction": "0x4c6964"
                }
            },
            "chainid": "0x01"
        },
        "_info": {
            "hash": "0x87bf97f23a65375c475ad21b7852e8f63276dfb72f97f9e1fc6c7ea0526f2e9c",
            "comment": "`execution-spec-tests` generated test",
            "filling-transition-tool": "ethereum-spec-evm-resolver 0.0.5",
            "description": "No description available - add a docstring to the python test class or function.",
            "url": "",
            "fixture-format": "state_test",
            "eels-resolution": {
                "git-url": "https://github.com/ethereum/execution-specs.git",
                "branch": "forks/bpos",
                "commit": "7aacb2c54111391af5e98c505d5010b5698a770f"
            }
        }
    }
}