{
    "tests/static/state_tests/stRandom2/randomStatetest527Filler.json::randomStatetest527[fork_Cancun-state_test-]": {
        "env": {
            "currentCoinbase": "0xad15e53e1da60e6ebb321ebf3cfc93b1a20de2dd",
            "currentGasLimit": "0x7fffffffffffffff",
            "currentNumber": "0x01",
            "currentTimestamp": "0x03e8",
            "currentRandom": "0x0000000000000000000000000000000000000000000000000000000000020000",
            "currentDifficulty": "0x00",
            "currentBaseFee": "0x0a",
            "currentExcessBlobGas": "0x00"
        },
        "pre": {
            "0x2656e3fdccf8f7d122574fc6013a01cf5e293eb2": {
                "nonce": "0x00",
                "balance": "0x0de0b6b3a7640000",
                "code": "0x",
                "storage": {}
            },
            "0xad15e53e1da60e6ebb321ebf3cfc93b1a20de2dd": {
                "nonce": "0x00",
                "balance": "0x2e",
                "code": "0x6000355415600957005b60203560003555",
                "storage": {}
            },
            "0xad15e53e1da60e6ebb321ebf3cfc93b1a20de3dd": {
                "nonce": "0x00",
                "balance": "0x00",
                "code": "0x347f000000000000000000000000ffffffffffffffffffffffffffffffffffffffff447f000000000000000000000000ffffffffffffffffffffffffffffffffffffffff7f00000000000000000000000000000000000000000000000000000000000000017f000000000000000000000000ad15e53e1da60e6ebb321ebf3cfc93b1a20de2dd7f000000000000000000000000000000000000000000000000000000000000c3507f000000000000000000000000ffffffffffffffffffffffffffffffffffffffff80a160005155",
                "storage": {}
            }
        },
        "transaction": {
            "nonce": "0x00",
            "gasPrice": "0x0a",
            "gasLimit": [
                "0x0186a0"
            ],
            "to": "0xad15e53e1da60e6ebb321ebf3cfc93b1a20de3dd",
            "value": [
                "0x0ab00b0e"
            ],
            "data": [
                "0x347f000000000000000000000000ffffffffffffffffffffffffffffffffffffffff447f000000000000000000000000ffffffffffffffffffffffffffffffffffffffff7f00000000000000000000000000000000000000000000000000000000000000017f000000000000000000000000ad15e53e1da60e6ebb321ebf3cfc93b1a20de2dd7f000000000000000000000000000000000000000000000000000000000000c3507f000000000000000000000000ffffffffffffffffffffffffffffffffffffffff80a1"
            ],
            "sender": "0x2656e3fdccf8f7d122574fc6013a01cf5e293eb2",
            "secretKey": "0x4c37fb26cf45e8c360a6e833ad15e53e1da60e6ebb321ebf3cfc93b1a20de2dd"
        },
        "post": {
            "Cancun": [
                {
                    "hash": "0xfbccc5912b22c3b94c2f76876bf659c9f4d8491bea32ff7b39820e4192fc1f5e",
                    "logs": "0x1dcc4de8dec75d7aab85b567b6ccd41ad312451b948a7413f0a142fd40d49347",
                    "txbytes": "0xf9012f800a830186a094ad15e53e1da60e6ebb321ebf3cfc93b1a20de3dd840ab00b0eb8ca347f000000000000000000000000ffffffffffffffffffffffffffffffffffffffff447f000000000000000000000000ffffffffffffffffffffffffffffffffffffffff7f00000000000000000000000000000000000000000000000000000000000000017f000000000000000000000000ad15e53e1da60e6ebb321ebf3cfc93b1a20de2dd7f000000000000000000000000000000000000000000000000000000000000c3507f000000000000000000000000ffffffffffffffffffffffffffffffffffffffff80a126a03535fef643eee994c64158fdf62d980d52ffcbe791f0d2ba5b5ef2a77610fee5a01d3fea1f4e437d75141154314c7c7c14adabf551d4a5a89873ad8ecaccd23477",
                    "indexes": {
                        "data": 0,
                        "gas": 0,
                        "value": 0
                    },
                    "state": {
                        "0x2656e3fdccf8f7d122574fc6013a01cf5e293eb2": {
                            "nonce": "0x01",
                            "balance": "0x0de0b6b3a754bdc0",
                            "code": "0x",
                            "storage": {}
                        },
                        "0xad15e53e1da60e6ebb321ebf3cfc93b1a20de2dd": {
                            "nonce": "0x00",
                            "balance": "0x2e",
                            "code": "0x6000355415600957005b60203560003555",
                            "storage": {}
                        },
                        "0xad15e53e1da60e6ebb321ebf3cfc93b1a20de3dd": {
                            "nonce": "0x00",
                            "balance": "0x00",
                            "code": "0x347f000000000000000000000000ffffffffffffffffffffffffffffffffffffffff447f000000000000000000000000ffffffffffffffffffffffffffffffffffffffff7f00000000000000000000000000000000000000000000000000000000000000017f000000000000000000000000ad15e53e1da60e6ebb321ebf3cfc93b1a20de2dd7f000000000000000000000000000000000000000000000000000000000000c3507f000000000000000000000000ffffffffffffffffffffffffffffffffffffffff80a160005155",
                            "storage": {}
                        }
                    }
                }
            ]
        },
        "config": {
            "blobSchedule": {
                "Cancun": {
                    "target": "0x03",
                    "max": "0x06",
                    "baseFeeUpdateFraction": "0x32f0ed"
                }
            },
            "chainid": "0x01"
        },
        "_info": {
            "hash": "0xf82e70784e094f0c1e1eec5ebc279eb73ea7a93a671931940544556c46e5a29e",
            "comment": "`execution-specs` generated test",
            "filling-transition-tool": "2.18.0rc6",
            "description": "No description available - add a docstring to the python test class or function.",
            "url": "",
            "fixture-format": "state_test"
        }
    },
    "tests/static/state_tests/stRandom2/randomStatetest527Filler.json::randomStatetest527[fork_Osaka-state_test-]": {
        "env": {
            "currentCoinbase": "0xad15e53e1da60e6ebb321ebf3cfc93b1a20de2dd",
            "currentGasLimit": "0x7fffffffffffffff",
            "currentNumber": "0x01",
            "currentTimestamp": "0x03e8",
            "currentRandom": "0x0000000000000000000000000000000000000000000000000000000000020000",
            "currentDifficulty": "0x00",
            "currentBaseFee": "0x0a",
            "currentExcessBlobGas": "0x00"
        },
        "pre": {
            "0x2656e3fdccf8f7d122574fc6013a01cf5e293eb2": {
                "nonce": "0x00",
                "balance": "0x0de0b6b3a7640000",
                "code": "0x",
                "storage": {}
            },
            "0xad15e53e1da60e6ebb321ebf3cfc93b1a20de2dd": {
                "nonce": "0x00",
                "balance": "0x2e",
                "code": "0x6000355415600957005b60203560003555",
                "storage": {}
            },
            "0xad15e53e1da60e6ebb321ebf3cfc93b1a20de3dd": {
                "nonce": "0x00",
                "balance": "0x00",
                "code": "0x347f000000000000000000000000ffffffffffffffffffffffffffffffffffffffff447f000000000000000000000000ffffffffffffffffffffffffffffffffffffffff7f00000000000000000000000000000000000000000000000000000000000000017f000000000000000000000000ad15e53e1da60e6ebb321ebf3cfc93b1a20de2dd7f000000000000000000000000000000000000000000000000000000000000c3507f000000000000000000000000ffffffffffffffffffffffffffffffffffffffff80a160005155",
                "storage": {}
            }
        },
        "transaction": {
            "nonce": "0x00",
            "gasPrice": "0x0a",
            "gasLimit": [
                "0x0186a0"
            ],
            "to": "0xad15e53e1da60e6ebb321ebf3cfc93b1a20de3dd",
            "value": [
                "0x0ab00b0e"
            ],
            "data": [
                "0x347f000000000000000000000000ffffffffffffffffffffffffffffffffffffffff447f000000000000000000000000ffffffffffffffffffffffffffffffffffffffff7f00000000000000000000000000000000000000000000000000000000000000017f000000000000000000000000ad15e53e1da60e6ebb321ebf3cfc93b1a20de2dd7f000000000000000000000000000000000000000000000000000000000000c3507f000000000000000000000000ffffffffffffffffffffffffffffffffffffffff80a1"
            ],
            "sender": "0x2656e3fdccf8f7d122574fc6013a01cf5e293eb2",
            "secretKey": "0x4c37fb26cf45e8c360a6e833ad15e53e1da60e6ebb321ebf3cfc93b1a20de2dd"
        },
        "post": {
            "Osaka": [
                {
                    "hash": "0xfbccc5912b22c3b94c2f76876bf659c9f4d8491bea32ff7b39820e4192fc1f5e",
                    "logs": "0x1dcc4de8dec75d7aab85b567b6ccd41ad312451b948a7413f0a142fd40d49347",
                    "txbytes": "0xf9012f800a830186a094ad15e53e1da60e6ebb321ebf3cfc93b1a20de3dd840ab00b0eb8ca347f000000000000000000000000ffffffffffffffffffffffffffffffffffffffff447f000000000000000000000000ffffffffffffffffffffffffffffffffffffffff7f00000000000000000000000000000000000000000000000000000000000000017f000000000000000000000000ad15e53e1da60e6ebb321ebf3cfc93b1a20de2dd7f000000000000000000000000000000000000000000000000000000000000c3507f000000000000000000000000ffffffffffffffffffffffffffffffffffffffff80a126a03535fef643eee994c64158fdf62d980d52ffcbe791f0d2ba5b5ef2a77610fee5a01d3fea1f4e437d75141154314c7c7c14adabf551d4a5a89873ad8ecaccd23477",
                    "indexes": {
                        "data": 0,
                        "gas": 0,
                        "value": 0
                    },
                    "state": {
                        "0x2656e3fdccf8f7d122574fc6013a01cf5e293eb2": {
                            "nonce": "0x01",
                            "balance": "0x0de0b6b3a754bdc0",
                            "code": "0x",
                            "storage": {}
                        },
                        "0xad15e53e1da60e6ebb321ebf3cfc93b1a20de2dd": {
                            "nonce": "0x00",
                            "balance": "0x2e",
                            "code": "0x6000355415600957005b60203560003555",
                            "storage": {}
                        },
                        "0xad15e53e1da60e6ebb321ebf3cfc93b1a20de3dd": {
                            "nonce": "0x00",
                            "balance": "0x00",
                            "code": "0x347f000000000000000000000000ffffffffffffffffffffffffffffffffffffffff447f000000000000000000000000ffffffffffffffffffffffffffffffffffffffff7f00000000000000000000000000000000000000000000000000000000000000017f000000000000000000000000ad15e53e1da60e6ebb321ebf3cfc93b1a20de2dd7f000000000000000000000000000000000000000000000000000000000000c3507f000000000000000000000000ffffffffffffffffffffffffffffffffffffffff80a160005155",
                            "storage": {}
                        }
                    }
                }
            ]
        },
        "config": {
            "blobSchedule": {
                "Cancun": {
                    "target": "0x03",
                    "max": "0x06",
                    "baseFeeUpdateFraction": "0x32f0ed"
                },
                "Prague": {
                    "target": "0x06",
                    "max": "0x09",
                    "baseFeeUpdateFraction": "0x4c6964"
                },
                "Osaka": {
                    "target": "0x06",
                    "max": "0x09",
                    "baseFeeUpdateFraction": "0x4c6964"
                }
            },
            "chainid": "0x01"
        },
        "_info": {
            "hash": "0x2712902967ef1fc401c38da6175e4d7d1148bf6cebc376801042e44ff313017b",
            "comment": "`execution-specs` generated test",
            "filling-transition-tool": "2.18.0rc6",
            "description": "No description available - add a docstring to the python test class or function.",
            "url": "",
            "fixture-format": "state_test"
        }
    },
    "tests/static/state_tests/stRandom2/randomStatetest527Filler.json::randomStatetest527[fork_Prague-state_test-]": {
        "env": {
            "currentCoinbase": "0xad15e53e1da60e6ebb321ebf3cfc93b1a20de2dd",
            "currentGasLimit": "0x7fffffffffffffff",
            "currentNumber": "0x01",
            "currentTimestamp": "0x03e8",
            "currentRandom": "0x0000000000000000000000000000000000000000000000000000000000020000",
            "currentDifficulty": "0x00",
            "currentBaseFee": "0x0a",
            "currentExcessBlobGas": "0x00"
        },
        "pre": {
            "0x2656e3fdccf8f7d122574fc6013a01cf5e293eb2": {
                "nonce": "0x00",
                "balance": "0x0de0b6b3a7640000",
                "code": "0x",
                "storage": {}
            },
            "0xad15e53e1da60e6ebb321ebf3cfc93b1a20de2dd": {
                "nonce": "0x00",
                "balance": "0x2e",
                "code": "0x6000355415600957005b60203560003555",
                "storage": {}
            },
            "0xad15e53e1da60e6ebb321ebf3cfc93b1a20de3dd": {
                "nonce": "0x00",
                "balance": "0x00",
                "code": "0x347f000000000000000000000000ffffffffffffffffffffffffffffffffffffffff447f000000000000000000000000ffffffffffffffffffffffffffffffffffffffff7f00000000000000000000000000000000000000000000000000000000000000017f000000000000000000000000ad15e53e1da60e6ebb321ebf3cfc93b1a20de2dd7f000000000000000000000000000000000000000000000000000000000000c3507f000000000000000000000000ffffffffffffffffffffffffffffffffffffffff80a160005155",
                "storage": {}
            }
        },
        "transaction": {
            "nonce": "0x00",
            "gasPrice": "0x0a",
            "gasLimit": [
                "0x0186a0"
            ],
            "to": "0xad15e53e1da60e6ebb321ebf3cfc93b1a20de3dd",
            "value": [
                "0x0ab00b0e"
            ],
            "data": [
                "0x347f000000000000000000000000ffffffffffffffffffffffffffffffffffffffff447f000000000000000000000000ffffffffffffffffffffffffffffffffffffffff7f00000000000000000000000000000000000000000000000000000000000000017f000000000000000000000000ad15e53e1da60e6ebb321ebf3cfc93b1a20de2dd7f000000000000000000000000000000000000000000000000000000000000c3507f000000000000000000000000ffffffffffffffffffffffffffffffffffffffff80a1"
            ],
            "sender": "0x2656e3fdccf8f7d122574fc6013a01cf5e293eb2",
            "secretKey": "0x4c37fb26cf45e8c360a6e833ad15e53e1da60e6ebb321ebf3cfc93b1a20de2dd"
        },
        "post": {
            "Prague": [
                {
                    "hash": "0xfbccc5912b22c3b94c2f76876bf659c9f4d8491bea32ff7b39820e4192fc1f5e",
                    "logs": "0x1dcc4de8dec75d7aab85b567b6ccd41ad312451b948a7413f0a142fd40d49347",
                    "txbytes": "0xf9012f800a830186a094ad15e53e1da60e6ebb321ebf3cfc93b1a20de3dd840ab00b0eb8ca347f000000000000000000000000ffffffffffffffffffffffffffffffffffffffff447f000000000000000000000000ffffffffffffffffffffffffffffffffffffffff7f00000000000000000000000000000000000000000000000000000000000000017f000000000000000000000000ad15e53e1da60e6ebb321ebf3cfc93b1a20de2dd7f000000000000000000000000000000000000000000000000000000000000c3507f000000000000000000000000ffffffffffffffffffffffffffffffffffffffff80a126a03535fef643eee994c64158fdf62d980d52ffcbe791f0d2ba5b5ef2a77610fee5a01d3fea1f4e437d75141154314c7c7c14adabf551d4a5a89873ad8ecaccd23477",
                    "indexes": {
                        "data": 0,
                        "gas": 0,
                        "value": 0
                    },
                    "state": {
                        "0x2656e3fdccf8f7d122574fc6013a01cf5e293eb2": {
                            "nonce": "0x01",
                            "balance": "0x0de0b6b3a754bdc0",
                            "code": "0x",
                            "storage": {}
                        },
                        "0xad15e53e1da60e6ebb321ebf3cfc93b1a20de2dd": {
                            "nonce": "0x00",
                            "balance": "0x2e",
                            "code": "0x6000355415600957005b60203560003555",
                            "storage": {}
                        },
                        "0xad15e53e1da60e6ebb321ebf3cfc93b1a20de3dd": {
                            "nonce": "0x00",
                            "balance": "0x00",
                            "code": "0x347f000000000000000000000000ffffffffffffffffffffffffffffffffffffffff447f000000000000000000000000ffffffffffffffffffffffffffffffffffffffff7f00000000000000000000000000000000000000000000000000000000000000017f000000000000000000000000ad15e53e1da60e6ebb321ebf3cfc93b1a20de2dd7f000000000000000000000000000000000000000000000000000000000000c3507f000000000000000000000000ffffffffffffffffffffffffffffffffffffffff80a160005155",
                            "storage": {}
                        }
                    }
                }
            ]
        },
        "config": {
            "blobSchedule": {
                "Cancun": {
                    "target": "0x03",
                    "max": "0x06",
                    "baseFeeUpdateFraction": "0x32f0ed"
                },
                "Prague": {
                    "target": "0x06",
                    "max": "0x09",
                    "baseFeeUpdateFraction": "0x4c6964"
                }
            },
            "chainid": "0x01"
        },
        "_info": {
            "hash": "0x4aa058392a1382ce90cec24d870bc1d2f2b11086063f056b9e034cabbc174886",
            "comment": "`execution-specs` generated test",
            "filling-transition-tool": "2.18.0rc6",
            "description": "No description available - add a docstring to the python test class or function.",
            "url": "",
            "fixture-format": "state_test"
        }
    }
}