{
    "tests/static/state_tests/stRandom2/randomStatetest556Filler.json::randomStatetest556[fork_Cancun-state_test-]": {
        "env": {
            "currentCoinbase": "0x0f79f399ce5af4b62bea94cae994ce648bd95dc1",
            "currentGasLimit": "0x7fffffffffffffff",
            "currentNumber": "0x01",
            "currentTimestamp": "0x03e8",
            "currentRandom": "0x0000000000000000000000000000000000000000000000000000000000020000",
            "currentDifficulty": "0x00",
            "currentBaseFee": "0x0a",
            "currentExcessBlobGas": "0x00"
        },
        "pre": {
            "0x571880b408d52e91d6409aa89969f9e364382216": {
                "nonce": "0x00",
                "balance": "0x0de0b6b3a7640000",
                "code": "0x",
                "storage": {}
            },
            "0x0f79f399ce5af4b62bea94cae994ce648bd95dc1": {
                "nonce": "0x00",
                "balance": "0x2e",
                "code": "0x6000355415600957005b60203560003555",
                "storage": {}
            },
            "0x0f79f399ce5af4b62bea94cae994ce648bd95ec1": {
                "nonce": "0x00",
                "balance": "0x00",
                "code": "0x7fffffffffffffffffffffffffffffffffffffffffffffffffffffffffffffffff7f0000000000000000000000010000000000000000000000000000000000000000437f000000000000000000000000ffffffffffffffffffffffffffffffffffffffff7f00000000000000000000000000000000000000000000000000000000000000017f00000000000000000000000000000000000000000000000000000000000000007f000000000000000000000000ffffffffffffffffffffffffffffffffffffffff7f00000000000000000000000000000000000000000000000000000000000000006f726e757692a2ad96526b9e8b77a33a5560005155",
                "storage": {}
            }
        },
        "transaction": {
            "nonce": "0x00",
            "gasPrice": "0x0a",
            "gasLimit": [
                "0x0186a0"
            ],
            "to": "0x0f79f399ce5af4b62bea94cae994ce648bd95ec1",
            "value": [
                "0x44f0b58c"
            ],
            "data": [
                "0x7fffffffffffffffffffffffffffffffffffffffffffffffffffffffffffffffff7f0000000000000000000000010000000000000000000000000000000000000000437f000000000000000000000000ffffffffffffffffffffffffffffffffffffffff7f00000000000000000000000000000000000000000000000000000000000000017f00000000000000000000000000000000000000000000000000000000000000007f000000000000000000000000ffffffffffffffffffffffffffffffffffffffff7f00000000000000000000000000000000000000000000000000000000000000006f726e757692a2ad96526b9e8b77a33a"
            ],
            "sender": "0x571880b408d52e91d6409aa89969f9e364382216",
            "secretKey": "0x2e4a1eaae9a15f8abbdbe6320f79f399ce5af4b62bea94cae994ce648bd95dc1"
        },
        "post": {
            "Cancun": [
                {
                    "hash": "0xe2788c74bae3240ab979565ba10d6ee848f92679041cdd80d9822c0c507d9d5c",
                    "logs": "0x1dcc4de8dec75d7aab85b567b6ccd41ad312451b948a7413f0a142fd40d49347",
                    "txbytes": "0xf9015d800a830186a0940f79f399ce5af4b62bea94cae994ce648bd95ec18444f0b58cb8f87fffffffffffffffffffffffffffffffffffffffffffffffffffffffffffffffff7f0000000000000000000000010000000000000000000000000000000000000000437f000000000000000000000000ffffffffffffffffffffffffffffffffffffffff7f00000000000000000000000000000000000000000000000000000000000000017f00000000000000000000000000000000000000000000000000000000000000007f000000000000000000000000ffffffffffffffffffffffffffffffffffffffff7f00000000000000000000000000000000000000000000000000000000000000006f726e757692a2ad96526b9e8b77a33a26a0671d7f95dd5799e32332b76b02b584b6cf774e5c1cc54e22e9e37081a2dcc362a05c1b36c703a6d6253313f2486db55041f25370bdbd3520d0b812d14529568387",
                    "indexes": {
                        "data": 0,
                        "gas": 0,
                        "value": 0
                    },
                    "state": {
                        "0x571880b408d52e91d6409aa89969f9e364382216": {
                            "nonce": "0x01",
                            "balance": "0x0de0b6b3626c60ce",
                            "code": "0x",
                            "storage": {}
                        },
                        "0x0f79f399ce5af4b62bea94cae994ce648bd95dc1": {
                            "nonce": "0x00",
                            "balance": "0x2e",
                            "code": "0x6000355415600957005b60203560003555",
                            "storage": {}
                        },
                        "0x0f79f399ce5af4b62bea94cae994ce648bd95ec1": {
                            "nonce": "0x00",
                            "balance": "0x44f0b58c",
                            "code": "0x7fffffffffffffffffffffffffffffffffffffffffffffffffffffffffffffffff7f0000000000000000000000010000000000000000000000000000000000000000437f000000000000000000000000ffffffffffffffffffffffffffffffffffffffff7f00000000000000000000000000000000000000000000000000000000000000017f00000000000000000000000000000000000000000000000000000000000000007f000000000000000000000000ffffffffffffffffffffffffffffffffffffffff7f00000000000000000000000000000000000000000000000000000000000000006f726e757692a2ad96526b9e8b77a33a5560005155",
                            "storage": {
                                "0x00": "0x726e757692a2ad96526b9e8b77a33a55"
                            }
                        }
                    }
                }
            ]
        },
        "config": {
            "blobSchedule": {
                "Cancun": {
                    "target": "0x03",
                    "max": "0x06",
                    "baseFeeUpdateFraction": "0x32f0ed"
                }
            },
            "chainid": "0x01"
        },
        "_info": {
            "hash": "0x651f904dbcb24b47791f78dc94fc52d3c736a483b256a3d6fdccdf6dcdfa4946",
            "comment": "`execution-spec-tests` generated test",
            "filling-transition-tool": "ethereum-spec-evm-resolver 0.0.5",
            "description": "No description available - add a docstring to the python test class or function.",
            "url": "",
            "fixture-format": "state_test",
            "eels-resolution": {
                "git-url": "https://github.com/marioevz/execution-specs.git",
                "branch": "forks/bpo1",
                "commit": "3387e5f4aedfe99becfdc39b444d6371e25e0924"
            }
        }
    },
    "tests/static/state_tests/stRandom2/randomStatetest556Filler.json::randomStatetest556[fork_Osaka-state_test-]": {
        "env": {
            "currentCoinbase": "0x0f79f399ce5af4b62bea94cae994ce648bd95dc1",
            "currentGasLimit": "0x7fffffffffffffff",
            "currentNumber": "0x01",
            "currentTimestamp": "0x03e8",
            "currentRandom": "0x0000000000000000000000000000000000000000000000000000000000020000",
            "currentDifficulty": "0x00",
            "currentBaseFee": "0x0a",
            "currentExcessBlobGas": "0x00"
        },
        "pre": {
            "0x571880b408d52e91d6409aa89969f9e364382216": {
                "nonce": "0x00",
                "balance": "0x0de0b6b3a7640000",
                "code": "0x",
                "storage": {}
            },
            "0x0f79f399ce5af4b62bea94cae994ce648bd95dc1": {
                "nonce": "0x00",
                "balance": "0x2e",
                "code": "0x6000355415600957005b60203560003555",
                "storage": {}
            },
            "0x0f79f399ce5af4b62bea94cae994ce648bd95ec1": {
                "nonce": "0x00",
                "balance": "0x00",
                "code": "0x7fffffffffffffffffffffffffffffffffffffffffffffffffffffffffffffffff7f0000000000000000000000010000000000000000000000000000000000000000437f000000000000000000000000ffffffffffffffffffffffffffffffffffffffff7f00000000000000000000000000000000000000000000000000000000000000017f00000000000000000000000000000000000000000000000000000000000000007f000000000000000000000000ffffffffffffffffffffffffffffffffffffffff7f00000000000000000000000000000000000000000000000000000000000000006f726e757692a2ad96526b9e8b77a33a5560005155",
                "storage": {}
            }
        },
        "transaction": {
            "nonce": "0x00",
            "gasPrice": "0x0a",
            "gasLimit": [
                "0x0186a0"
            ],
            "to": "0x0f79f399ce5af4b62bea94cae994ce648bd95ec1",
            "value": [
                "0x44f0b58c"
            ],
            "data": [
                "0x7fffffffffffffffffffffffffffffffffffffffffffffffffffffffffffffffff7f0000000000000000000000010000000000000000000000000000000000000000437f000000000000000000000000ffffffffffffffffffffffffffffffffffffffff7f00000000000000000000000000000000000000000000000000000000000000017f00000000000000000000000000000000000000000000000000000000000000007f000000000000000000000000ffffffffffffffffffffffffffffffffffffffff7f00000000000000000000000000000000000000000000000000000000000000006f726e757692a2ad96526b9e8b77a33a"
            ],
            "sender": "0x571880b408d52e91d6409aa89969f9e364382216",
            "secretKey": "0x2e4a1eaae9a15f8abbdbe6320f79f399ce5af4b62bea94cae994ce648bd95dc1"
        },
        "post": {
            "Osaka": [
                {
                    "hash": "0xe2788c74bae3240ab979565ba10d6ee848f92679041cdd80d9822c0c507d9d5c",
                    "logs": "0x1dcc4de8dec75d7aab85b567b6ccd41ad312451b948a7413f0a142fd40d49347",
                    "txbytes": "0xf9015d800a830186a0940f79f399ce5af4b62bea94cae994ce648bd95ec18444f0b58cb8f87fffffffffffffffffffffffffffffffffffffffffffffffffffffffffffffffff7f0000000000000000000000010000000000000000000000000000000000000000437f000000000000000000000000ffffffffffffffffffffffffffffffffffffffff7f00000000000000000000000000000000000000000000000000000000000000017f00000000000000000000000000000000000000000000000000000000000000007f000000000000000000000000ffffffffffffffffffffffffffffffffffffffff7f00000000000000000000000000000000000000000000000000000000000000006f726e757692a2ad96526b9e8b77a33a26a0671d7f95dd5799e32332b76b02b584b6cf774e5c1cc54e22e9e37081a2dcc362a05c1b36c703a6d6253313f2486db55041f25370bdbd3520d0b812d14529568387",
                    "indexes": {
                        "data": 0,
                        "gas": 0,
                        "value": 0
                    },
                    "state": {
                        "0x571880b408d52e91d6409aa89969f9e364382216": {
                            "nonce": "0x01",
                            "balance": "0x0de0b6b3626c60ce",
                            "code": "0x",
                            "storage": {}
                        },
                        "0x0f79f399ce5af4b62bea94cae994ce648bd95dc1": {
                            "nonce": "0x00",
                            "balance": "0x2e",
                            "code": "0x6000355415600957005b60203560003555",
                            "storage": {}
                        },
                        "0x0f79f399ce5af4b62bea94cae994ce648bd95ec1": {
                            "nonce": "0x00",
                            "balance": "0x44f0b58c",
                            "code": "0x7fffffffffffffffffffffffffffffffffffffffffffffffffffffffffffffffff7f0000000000000000000000010000000000000000000000000000000000000000437f000000000000000000000000ffffffffffffffffffffffffffffffffffffffff7f00000000000000000000000000000000000000000000000000000000000000017f00000000000000000000000000000000000000000000000000000000000000007f000000000000000000000000ffffffffffffffffffffffffffffffffffffffff7f00000000000000000000000000000000000000000000000000000000000000006f726e757692a2ad96526b9e8b77a33a5560005155",
                            "storage": {
                                "0x00": "0x726e757692a2ad96526b9e8b77a33a55"
                            }
                        }
                    }
                }
            ]
        },
        "config": {
            "blobSchedule": {
                "Cancun": {
                    "target": "0x03",
                    "max": "0x06",
                    "baseFeeUpdateFraction": "0x32f0ed"
                },
                "Prague": {
                    "target": "0x06",
                    "max": "0x09",
                    "baseFeeUpdateFraction": "0x4c6964"
                },
                "Osaka": {
                    "target": "0x06",
                    "max": "0x09",
                    "baseFeeUpdateFraction": "0x4c6964"
                }
            },
            "chainid": "0x01"
        },
        "_info": {
            "hash": "0x0bff6c8d7e8cfc8abdc7b89fb9f4b6e45830ffa3d676c0ca8444e9f73d64fa45",
            "comment": "`execution-spec-tests` generated test",
            "filling-transition-tool": "ethereum-spec-evm-resolver 0.0.5",
            "description": "No description available - add a docstring to the python test class or function.",
            "url": "",
            "fixture-format": "state_test",
            "eels-resolution": {
                "git-url": "https://github.com/marioevz/execution-specs.git",
                "branch": "forks/bpo1",
                "commit": "3387e5f4aedfe99becfdc39b444d6371e25e0924"
            }
        }
    },
    "tests/static/state_tests/stRandom2/randomStatetest556Filler.json::randomStatetest556[fork_Prague-state_test-]": {
        "env": {
            "currentCoinbase": "0x0f79f399ce5af4b62bea94cae994ce648bd95dc1",
            "currentGasLimit": "0x7fffffffffffffff",
            "currentNumber": "0x01",
            "currentTimestamp": "0x03e8",
            "currentRandom": "0x0000000000000000000000000000000000000000000000000000000000020000",
            "currentDifficulty": "0x00",
            "currentBaseFee": "0x0a",
            "currentExcessBlobGas": "0x00"
        },
        "pre": {
            "0x571880b408d52e91d6409aa89969f9e364382216": {
                "nonce": "0x00",
                "balance": "0x0de0b6b3a7640000",
                "code": "0x",
                "storage": {}
            },
            "0x0f79f399ce5af4b62bea94cae994ce648bd95dc1": {
                "nonce": "0x00",
                "balance": "0x2e",
                "code": "0x6000355415600957005b60203560003555",
                "storage": {}
            },
            "0x0f79f399ce5af4b62bea94cae994ce648bd95ec1": {
                "nonce": "0x00",
                "balance": "0x00",
                "code": "0x7fffffffffffffffffffffffffffffffffffffffffffffffffffffffffffffffff7f0000000000000000000000010000000000000000000000000000000000000000437f000000000000000000000000ffffffffffffffffffffffffffffffffffffffff7f00000000000000000000000000000000000000000000000000000000000000017f00000000000000000000000000000000000000000000000000000000000000007f000000000000000000000000ffffffffffffffffffffffffffffffffffffffff7f00000000000000000000000000000000000000000000000000000000000000006f726e757692a2ad96526b9e8b77a33a5560005155",
                "storage": {}
            }
        },
        "transaction": {
            "nonce": "0x00",
            "gasPrice": "0x0a",
            "gasLimit": [
                "0x0186a0"
            ],
            "to": "0x0f79f399ce5af4b62bea94cae994ce648bd95ec1",
            "value": [
                "0x44f0b58c"
            ],
            "data": [
                "0x7fffffffffffffffffffffffffffffffffffffffffffffffffffffffffffffffff7f0000000000000000000000010000000000000000000000000000000000000000437f000000000000000000000000ffffffffffffffffffffffffffffffffffffffff7f00000000000000000000000000000000000000000000000000000000000000017f00000000000000000000000000000000000000000000000000000000000000007f000000000000000000000000ffffffffffffffffffffffffffffffffffffffff7f00000000000000000000000000000000000000000000000000000000000000006f726e757692a2ad96526b9e8b77a33a"
            ],
            "sender": "0x571880b408d52e91d6409aa89969f9e364382216",
            "secretKey": "0x2e4a1eaae9a15f8abbdbe6320f79f399ce5af4b62bea94cae994ce648bd95dc1"
        },
        "post": {
            "Prague": [
                {
                    "hash": "0xe2788c74bae3240ab979565ba10d6ee848f92679041cdd80d9822c0c507d9d5c",
                    "logs": "0x1dcc4de8dec75d7aab85b567b6ccd41ad312451b948a7413f0a142fd40d49347",
                    "txbytes": "0xf9015d800a830186a0940f79f399ce5af4b62bea94cae994ce648bd95ec18444f0b58cb8f87fffffffffffffffffffffffffffffffffffffffffffffffffffffffffffffffff7f0000000000000000000000010000000000000000000000000000000000000000437f000000000000000000000000ffffffffffffffffffffffffffffffffffffffff7f00000000000000000000000000000000000000000000000000000000000000017f00000000000000000000000000000000000000000000000000000000000000007f000000000000000000000000ffffffffffffffffffffffffffffffffffffffff7f00000000000000000000000000000000000000000000000000000000000000006f726e757692a2ad96526b9e8b77a33a26a0671d7f95dd5799e32332b76b02b584b6cf774e5c1cc54e22e9e37081a2dcc362a05c1b36c703a6d6253313f2486db55041f25370bdbd3520d0b812d14529568387",
                    "indexes": {
                        "data": 0,
                        "gas": 0,
                        "value": 0
                    },
                    "state": {
                        "0x571880b408d52e91d6409aa89969f9e364382216": {
                            "nonce": "0x01",
                            "balance": "0x0de0b6b3626c60ce",
                            "code": "0x",
                            "storage": {}
                        },
                        "0x0f79f399ce5af4b62bea94cae994ce648bd95dc1": {
                            "nonce": "0x00",
                            "balance": "0x2e",
                            "code": "0x6000355415600957005b60203560003555",
                            "storage": {}
                        },
                        "0x0f79f399ce5af4b62bea94cae994ce648bd95ec1": {
                            "nonce": "0x00",
                            "balance": "0x44f0b58c",
                            "code": "0x7fffffffffffffffffffffffffffffffffffffffffffffffffffffffffffffffff7f0000000000000000000000010000000000000000000000000000000000000000437f000000000000000000000000ffffffffffffffffffffffffffffffffffffffff7f00000000000000000000000000000000000000000000000000000000000000017f00000000000000000000000000000000000000000000000000000000000000007f000000000000000000000000ffffffffffffffffffffffffffffffffffffffff7f00000000000000000000000000000000000000000000000000000000000000006f726e757692a2ad96526b9e8b77a33a5560005155",
                            "storage": {
                                "0x00": "0x726e757692a2ad96526b9e8b77a33a55"
                            }
                        }
                    }
                }
            ]
        },
        "config": {
            "blobSchedule": {
                "Cancun": {
                    "target": "0x03",
                    "max": "0x06",
                    "baseFeeUpdateFraction": "0x32f0ed"
                },
                "Prague": {
                    "target": "0x06",
                    "max": "0x09",
                    "baseFeeUpdateFraction": "0x4c6964"
                }
            },
            "chainid": "0x01"
        },
        "_info": {
            "hash": "0x44722472f65265d93b27c5c60e700cdfc294ce2df52462789e7fc4d6d6c017e6",
            "comment": "`execution-spec-tests` generated test",
            "filling-transition-tool": "ethereum-spec-evm-resolver 0.0.5",
            "description": "No description available - add a docstring to the python test class or function.",
            "url": "",
            "fixture-format": "state_test",
            "eels-resolution": {
                "git-url": "https://github.com/marioevz/execution-specs.git",
                "branch": "forks/bpo1",
                "commit": "3387e5f4aedfe99becfdc39b444d6371e25e0924"
            }
        }
    }
}