{
    "tests/static/state_tests/stRandom2/randomStatetest649Filler.json::randomStatetest649[fork_Cancun-state_test-]": {
        "env": {
            "currentCoinbase": "0xb94f5374fce5edbc8e2a8697c15331677e6ebf0b",
            "currentGasLimit": "0x26e1f476fe1e22",
            "currentNumber": "0x01",
            "currentTimestamp": "0x03e8",
            "currentRandom": "0x0000000000000000000000000000000000000000000000000000000000020000",
            "currentDifficulty": "0x00",
            "currentBaseFee": "0x0a",
            "currentExcessBlobGas": "0x00"
        },
        "pre": {
            "0xcaa417216dfff97d51c5af588e45f61ac51d7f93": {
                "nonce": "0x00",
                "balance": "0x3fffffffffffffff",
                "code": "0x",
                "storage": {}
            },
            "0xc3522491922f9fde0462f18edca5c8589e430b78": {
                "nonce": "0x00",
                "balance": "0x00",
                "code": "0x7f6c756dbf65726963616e207f9439303733373936353331363631303037345a056000527f7265737582673075742074650041030a000000efbf7125e86c756dbf657269636020527f616e207f9439303733373936353331363631303037345a0572657375826730757f742074650041030a000000efbf7125e86c756dbf65726963616e207f943930377f33373936353331363631303037345a057265737582673075742074650041030a7cefbf7125e86c756dbf65726963616e207f9439303733373936353331367f3631303037345a057265737582673075742074650041030a000000efbf7125e8606c60e053607560e153606d60e25360bf60e353606560e453607260e553606960e653606360e75360e860006000f06000600060006000845a6950507f7f9439303733373936353331363631303037345a05726573758267307574207460005260206000f35b410061943961207f61616e616963616572600563012b9bbff167000000000000015f565b670000000000004ca65661363551613636556136555161363755613675516136385561369551613639556136b55161363a556136d55161363b556136f55161363c556137155161363d556137355161363e556137555161363f55613775516136405561379551613641556137b551613642556137d551613643556137f55161364455613815516136455561383551613646556138555161364755613875516136485561389551613649556138b55161364a556138d55161364b556138f55161364c556139155161364d556139355161364e556139555161364f55613975516136505561399551613651556139b551613652556139d551613653556139f55161365455613a155161365555613a355161365655613a555161365755613a755161365855613a955161365955613ab55161365a55613ad55161365b55613af55161365c00",
                "storage": {}
            }
        },
        "transaction": {
            "nonce": "0x00",
            "gasPrice": "0x0a",
            "gasLimit": [
                "0x024174"
            ],
            "to": "0xc3522491922f9fde0462f18edca5c8589e430b78",
            "value": [
                "0xefbf7125"
            ],
            "data": [
                "0x756dbf65726963616e207f9439303733373936353331363631303037345a057265737582673075742074650041030a000000efbf7125e86c756dbf65726963616e207f9439303733373936353331363631303037345a0572657375826730757420746500"
            ],
            "sender": "0xcaa417216dfff97d51c5af588e45f61ac51d7f93",
            "secretKey": "0x4e2d52f8a6359fdf0d939f32c3522491922f9fde0462f18edca5c8589e430b78"
        },
        "post": {
            "Cancun": [
                {
                    "hash": "0xcd8f56d7f2c5cf4aa260d78b79dc1b8a9db855c7b31fef4545b17ff3f6e51238",
                    "logs": "0x1dcc4de8dec75d7aab85b567b6ccd41ad312451b948a7413f0a142fd40d49347",
                    "txbytes": "0xf8c9800a8302417494c3522491922f9fde0462f18edca5c8589e430b7884efbf7125b864756dbf65726963616e207f9439303733373936353331363631303037345a057265737582673075742074650041030a000000efbf7125e86c756dbf65726963616e207f9439303733373936353331363631303037345a057265737582673075742074650026a06d3568ad3e13f84a6c15f616d8fc7bdcf6863893c92054ea2c51c541229fd83da03136f202ebbc5e7b4c4de5024e36f71372bfbf48e211fbf238930a49b74409f4",
                    "indexes": {
                        "data": 0,
                        "gas": 0,
                        "value": 0
                    },
                    "state": {
                        "0xcaa417216dfff97d51c5af588e45f61ac51d7f93": {
                            "nonce": "0x01",
                            "balance": "0x3fffffffffe97177",
                            "code": "0x",
                            "storage": {}
                        },
                        "0xc3522491922f9fde0462f18edca5c8589e430b78": {
                            "nonce": "0x00",
                            "balance": "0x00",
                            "code": "0x7f6c756dbf65726963616e207f9439303733373936353331363631303037345a056000527f7265737582673075742074650041030a000000efbf7125e86c756dbf657269636020527f616e207f9439303733373936353331363631303037345a0572657375826730757f742074650041030a000000efbf7125e86c756dbf65726963616e207f943930377f33373936353331363631303037345a057265737582673075742074650041030a7cefbf7125e86c756dbf65726963616e207f9439303733373936353331367f3631303037345a057265737582673075742074650041030a000000efbf7125e8606c60e053607560e153606d60e25360bf60e353606560e453607260e553606960e653606360e75360e860006000f06000600060006000845a6950507f7f9439303733373936353331363631303037345a05726573758267307574207460005260206000f35b410061943961207f61616e616963616572600563012b9bbff167000000000000015f565b670000000000004ca65661363551613636556136555161363755613675516136385561369551613639556136b55161363a556136d55161363b556136f55161363c556137155161363d556137355161363e556137555161363f55613775516136405561379551613641556137b551613642556137d551613643556137f55161364455613815516136455561383551613646556138555161364755613875516136485561389551613649556138b55161364a556138d55161364b556138f55161364c556139155161364d556139355161364e556139555161364f55613975516136505561399551613651556139b551613652556139d551613653556139f55161365455613a155161365555613a355161365655613a555161365755613a755161365855613a955161365955613ab55161365a55613ad55161365b55613af55161365c00",
                            "storage": {}
                        }
                    }
                }
            ]
        },
        "config": {
            "blobSchedule": {
                "Cancun": {
                    "target": "0x03",
                    "max": "0x06",
                    "baseFeeUpdateFraction": "0x32f0ed"
                }
            },
            "chainid": "0x01"
        },
        "_info": {
            "hash": "0x04433508a60ba19a899b351b5b3b147222d150a7d77c0c5bd5355317b26dbb04",
            "comment": "`execution-spec-tests` generated test",
            "filling-transition-tool": "ethereum-spec-evm-resolver 0.0.5",
            "description": "No description available - add a docstring to the python test class or function.",
            "url": "",
            "fixture-format": "state_test",
            "eels-resolution": {
                "git-url": "https://github.com/marioevz/execution-specs.git",
                "branch": "forks/bpo1",
                "commit": "3387e5f4aedfe99becfdc39b444d6371e25e0924"
            }
        }
    },
    "tests/static/state_tests/stRandom2/randomStatetest649Filler.json::randomStatetest649[fork_Osaka-state_test-]": {
        "env": {
            "currentCoinbase": "0xb94f5374fce5edbc8e2a8697c15331677e6ebf0b",
            "currentGasLimit": "0x26e1f476fe1e22",
            "currentNumber": "0x01",
            "currentTimestamp": "0x03e8",
            "currentRandom": "0x0000000000000000000000000000000000000000000000000000000000020000",
            "currentDifficulty": "0x00",
            "currentBaseFee": "0x0a",
            "currentExcessBlobGas": "0x00"
        },
        "pre": {
            "0xcaa417216dfff97d51c5af588e45f61ac51d7f93": {
                "nonce": "0x00",
                "balance": "0x3fffffffffffffff",
                "code": "0x",
                "storage": {}
            },
            "0xc3522491922f9fde0462f18edca5c8589e430b78": {
                "nonce": "0x00",
                "balance": "0x00",
                "code": "0x7f6c756dbf65726963616e207f9439303733373936353331363631303037345a056000527f7265737582673075742074650041030a000000efbf7125e86c756dbf657269636020527f616e207f9439303733373936353331363631303037345a0572657375826730757f742074650041030a000000efbf7125e86c756dbf65726963616e207f943930377f33373936353331363631303037345a057265737582673075742074650041030a7cefbf7125e86c756dbf65726963616e207f9439303733373936353331367f3631303037345a057265737582673075742074650041030a000000efbf7125e8606c60e053607560e153606d60e25360bf60e353606560e453607260e553606960e653606360e75360e860006000f06000600060006000845a6950507f7f9439303733373936353331363631303037345a05726573758267307574207460005260206000f35b410061943961207f61616e616963616572600563012b9bbff167000000000000015f565b670000000000004ca65661363551613636556136555161363755613675516136385561369551613639556136b55161363a556136d55161363b556136f55161363c556137155161363d556137355161363e556137555161363f55613775516136405561379551613641556137b551613642556137d551613643556137f55161364455613815516136455561383551613646556138555161364755613875516136485561389551613649556138b55161364a556138d55161364b556138f55161364c556139155161364d556139355161364e556139555161364f55613975516136505561399551613651556139b551613652556139d551613653556139f55161365455613a155161365555613a355161365655613a555161365755613a755161365855613a955161365955613ab55161365a55613ad55161365b55613af55161365c00",
                "storage": {}
            }
        },
        "transaction": {
            "nonce": "0x00",
            "gasPrice": "0x0a",
            "gasLimit": [
                "0x024174"
            ],
            "to": "0xc3522491922f9fde0462f18edca5c8589e430b78",
            "value": [
                "0xefbf7125"
            ],
            "data": [
                "0x756dbf65726963616e207f9439303733373936353331363631303037345a057265737582673075742074650041030a000000efbf7125e86c756dbf65726963616e207f9439303733373936353331363631303037345a0572657375826730757420746500"
            ],
            "sender": "0xcaa417216dfff97d51c5af588e45f61ac51d7f93",
            "secretKey": "0x4e2d52f8a6359fdf0d939f32c3522491922f9fde0462f18edca5c8589e430b78"
        },
        "post": {
            "Osaka": [
                {
                    "hash": "0xcd8f56d7f2c5cf4aa260d78b79dc1b8a9db855c7b31fef4545b17ff3f6e51238",
                    "logs": "0x1dcc4de8dec75d7aab85b567b6ccd41ad312451b948a7413f0a142fd40d49347",
                    "txbytes": "0xf8c9800a8302417494c3522491922f9fde0462f18edca5c8589e430b7884efbf7125b864756dbf65726963616e207f9439303733373936353331363631303037345a057265737582673075742074650041030a000000efbf7125e86c756dbf65726963616e207f9439303733373936353331363631303037345a057265737582673075742074650026a06d3568ad3e13f84a6c15f616d8fc7bdcf6863893c92054ea2c51c541229fd83da03136f202ebbc5e7b4c4de5024e36f71372bfbf48e211fbf238930a49b74409f4",
                    "indexes": {
                        "data": 0,
                        "gas": 0,
                        "value": 0
                    },
                    "state": {
                        "0xcaa417216dfff97d51c5af588e45f61ac51d7f93": {
                            "nonce": "0x01",
                            "balance": "0x3fffffffffe97177",
                            "code": "0x",
                            "storage": {}
                        },
                        "0xc3522491922f9fde0462f18edca5c8589e430b78": {
                            "nonce": "0x00",
                            "balance": "0x00",
                            "code": "0x7f6c756dbf65726963616e207f9439303733373936353331363631303037345a056000527f7265737582673075742074650041030a000000efbf7125e86c756dbf657269636020527f616e207f9439303733373936353331363631303037345a0572657375826730757f742074650041030a000000efbf7125e86c756dbf65726963616e207f943930377f33373936353331363631303037345a057265737582673075742074650041030a7cefbf7125e86c756dbf65726963616e207f9439303733373936353331367f3631303037345a057265737582673075742074650041030a000000efbf7125e8606c60e053607560e153606d60e25360bf60e353606560e453607260e553606960e653606360e75360e860006000f06000600060006000845a6950507f7f9439303733373936353331363631303037345a05726573758267307574207460005260206000f35b410061943961207f61616e616963616572600563012b9bbff167000000000000015f565b670000000000004ca65661363551613636556136555161363755613675516136385561369551613639556136b55161363a556136d55161363b556136f55161363c556137155161363d556137355161363e556137555161363f55613775516136405561379551613641556137b551613642556137d551613643556137f55161364455613815516136455561383551613646556138555161364755613875516136485561389551613649556138b55161364a556138d55161364b556138f55161364c556139155161364d556139355161364e556139555161364f55613975516136505561399551613651556139b551613652556139d551613653556139f55161365455613a155161365555613a355161365655613a555161365755613a755161365855613a955161365955613ab55161365a55613ad55161365b55613af55161365c00",
                            "storage": {}
                        }
                    }
                }
            ]
        },
        "config": {
            "blobSchedule": {
                "Cancun": {
                    "target": "0x03",
                    "max": "0x06",
                    "baseFeeUpdateFraction": "0x32f0ed"
                },
                "Prague": {
                    "target": "0x06",
                    "max": "0x09",
                    "baseFeeUpdateFraction": "0x4c6964"
                },
                "Osaka": {
                    "target": "0x06",
                    "max": "0x09",
                    "baseFeeUpdateFraction": "0x4c6964"
                }
            },
            "chainid": "0x01"
        },
        "_info": {
            "hash": "0xa5e0f87d73ffd29344bbbf068062dc37a41262e695fc0e389c3ce01c44d4ea1e",
            "comment": "`execution-spec-tests` generated test",
            "filling-transition-tool": "ethereum-spec-evm-resolver 0.0.5",
            "description": "No description available - add a docstring to the python test class or function.",
            "url": "",
            "fixture-format": "state_test",
            "eels-resolution": {
                "git-url": "https://github.com/marioevz/execution-specs.git",
                "branch": "forks/bpo1",
                "commit": "3387e5f4aedfe99becfdc39b444d6371e25e0924"
            }
        }
    },
    "tests/static/state_tests/stRandom2/randomStatetest649Filler.json::randomStatetest649[fork_Prague-state_test-]": {
        "env": {
            "currentCoinbase": "0xb94f5374fce5edbc8e2a8697c15331677e6ebf0b",
            "currentGasLimit": "0x26e1f476fe1e22",
            "currentNumber": "0x01",
            "currentTimestamp": "0x03e8",
            "currentRandom": "0x0000000000000000000000000000000000000000000000000000000000020000",
            "currentDifficulty": "0x00",
            "currentBaseFee": "0x0a",
            "currentExcessBlobGas": "0x00"
        },
        "pre": {
            "0xcaa417216dfff97d51c5af588e45f61ac51d7f93": {
                "nonce": "0x00",
                "balance": "0x3fffffffffffffff",
                "code": "0x",
                "storage": {}
            },
            "0xc3522491922f9fde0462f18edca5c8589e430b78": {
                "nonce": "0x00",
                "balance": "0x00",
                "code": "0x7f6c756dbf65726963616e207f9439303733373936353331363631303037345a056000527f7265737582673075742074650041030a000000efbf7125e86c756dbf657269636020527f616e207f9439303733373936353331363631303037345a0572657375826730757f742074650041030a000000efbf7125e86c756dbf65726963616e207f943930377f33373936353331363631303037345a057265737582673075742074650041030a7cefbf7125e86c756dbf65726963616e207f9439303733373936353331367f3631303037345a057265737582673075742074650041030a000000efbf7125e8606c60e053607560e153606d60e25360bf60e353606560e453607260e553606960e653606360e75360e860006000f06000600060006000845a6950507f7f9439303733373936353331363631303037345a05726573758267307574207460005260206000f35b410061943961207f61616e616963616572600563012b9bbff167000000000000015f565b670000000000004ca65661363551613636556136555161363755613675516136385561369551613639556136b55161363a556136d55161363b556136f55161363c556137155161363d556137355161363e556137555161363f55613775516136405561379551613641556137b551613642556137d551613643556137f55161364455613815516136455561383551613646556138555161364755613875516136485561389551613649556138b55161364a556138d55161364b556138f55161364c556139155161364d556139355161364e556139555161364f55613975516136505561399551613651556139b551613652556139d551613653556139f55161365455613a155161365555613a355161365655613a555161365755613a755161365855613a955161365955613ab55161365a55613ad55161365b55613af55161365c00",
                "storage": {}
            }
        },
        "transaction": {
            "nonce": "0x00",
            "gasPrice": "0x0a",
            "gasLimit": [
                "0x024174"
            ],
            "to": "0xc3522491922f9fde0462f18edca5c8589e430b78",
            "value": [
                "0xefbf7125"
            ],
            "data": [
                "0x756dbf65726963616e207f9439303733373936353331363631303037345a057265737582673075742074650041030a000000efbf7125e86c756dbf65726963616e207f9439303733373936353331363631303037345a0572657375826730757420746500"
            ],
            "sender": "0xcaa417216dfff97d51c5af588e45f61ac51d7f93",
            "secretKey": "0x4e2d52f8a6359fdf0d939f32c3522491922f9fde0462f18edca5c8589e430b78"
        },
        "post": {
            "Prague": [
                {
                    "hash": "0xcd8f56d7f2c5cf4aa260d78b79dc1b8a9db855c7b31fef4545b17ff3f6e51238",
                    "logs": "0x1dcc4de8dec75d7aab85b567b6ccd41ad312451b948a7413f0a142fd40d49347",
                    "txbytes": "0xf8c9800a8302417494c3522491922f9fde0462f18edca5c8589e430b7884efbf7125b864756dbf65726963616e207f9439303733373936353331363631303037345a057265737582673075742074650041030a000000efbf7125e86c756dbf65726963616e207f9439303733373936353331363631303037345a057265737582673075742074650026a06d3568ad3e13f84a6c15f616d8fc7bdcf6863893c92054ea2c51c541229fd83da03136f202ebbc5e7b4c4de5024e36f71372bfbf48e211fbf238930a49b74409f4",
                    "indexes": {
                        "data": 0,
                        "gas": 0,
                        "value": 0
                    },
                    "state": {
                        "0xcaa417216dfff97d51c5af588e45f61ac51d7f93": {
                            "nonce": "0x01",
                            "balance": "0x3fffffffffe97177",
                            "code": "0x",
                            "storage": {}
                        },
                        "0xc3522491922f9fde0462f18edca5c8589e430b78": {
                            "nonce": "0x00",
                            "balance": "0x00",
                            "code": "0x7f6c756dbf65726963616e207f9439303733373936353331363631303037345a056000527f7265737582673075742074650041030a000000efbf7125e86c756dbf657269636020527f616e207f9439303733373936353331363631303037345a0572657375826730757f742074650041030a000000efbf7125e86c756dbf65726963616e207f943930377f33373936353331363631303037345a057265737582673075742074650041030a7cefbf7125e86c756dbf65726963616e207f9439303733373936353331367f3631303037345a057265737582673075742074650041030a000000efbf7125e8606c60e053607560e153606d60e25360bf60e353606560e453607260e553606960e653606360e75360e860006000f06000600060006000845a6950507f7f9439303733373936353331363631303037345a05726573758267307574207460005260206000f35b410061943961207f61616e616963616572600563012b9bbff167000000000000015f565b670000000000004ca65661363551613636556136555161363755613675516136385561369551613639556136b55161363a556136d55161363b556136f55161363c556137155161363d556137355161363e556137555161363f55613775516136405561379551613641556137b551613642556137d551613643556137f55161364455613815516136455561383551613646556138555161364755613875516136485561389551613649556138b55161364a556138d55161364b556138f55161364c556139155161364d556139355161364e556139555161364f55613975516136505561399551613651556139b551613652556139d551613653556139f55161365455613a155161365555613a355161365655613a555161365755613a755161365855613a955161365955613ab55161365a55613ad55161365b55613af55161365c00",
                            "storage": {}
                        }
                    }
                }
            ]
        },
        "config": {
            "blobSchedule": {
                "Cancun": {
                    "target": "0x03",
                    "max": "0x06",
                    "baseFeeUpdateFraction": "0x32f0ed"
                },
                "Prague": {
                    "target": "0x06",
                    "max": "0x09",
                    "baseFeeUpdateFraction": "0x4c6964"
                }
            },
            "chainid": "0x01"
        },
        "_info": {
            "hash": "0x67f5b010def5416005db96b03da1d0b866a8195a4d725c166013014876fcf49c",
            "comment": "`execution-spec-tests` generated test",
            "filling-transition-tool": "ethereum-spec-evm-resolver 0.0.5",
            "description": "No description available - add a docstring to the python test class or function.",
            "url": "",
            "fixture-format": "state_test",
            "eels-resolution": {
                "git-url": "https://github.com/marioevz/execution-specs.git",
                "branch": "forks/bpo1",
                "commit": "3387e5f4aedfe99becfdc39b444d6371e25e0924"
            }
        }
    }
}