{
    "tests/static/state_tests/stRandom2/randomStatetest418Filler.json::randomStatetest418[fork_Cancun-state_test-]": {
        "env": {
            "currentCoinbase": "0x9bbd50ae62dd48710f977f34e8289e05399336bd",
            "currentGasLimit": "0x7fffffffffffffff",
            "currentNumber": "0x01",
            "currentTimestamp": "0x03e8",
            "currentRandom": "0x0000000000000000000000000000000000000000000000000000000000020000",
            "currentDifficulty": "0x00",
            "currentBaseFee": "0x0a",
            "currentExcessBlobGas": "0x00"
        },
        "pre": {
            "0xe79d8b4e895ef2787c3cc91eecfa1499adff0199": {
                "nonce": "0x00",
                "balance": "0x0de0b6b3a7640000",
                "code": "0x",
                "storage": {}
            },
            "0x9bbd50ae62dd48710f977f34e8289e05399336bd": {
                "nonce": "0x00",
                "balance": "0x2e",
                "code": "0x6000355415600957005b60203560003555",
                "storage": {}
            },
            "0x9bbd50ae62dd48710f977f34e8289e05399337bd": {
                "nonce": "0x00",
                "balance": "0x00",
                "code": "0x7f0000000000000000000000000000000000000000000000000000000000000000437f00000000000000000000000000000000000000000000000000000000000000017f0000000000000000000000009bbd50ae62dd48710f977f34e8289e05399336bd7f000000000000000000000000000000000000000000000000000000000000c3507f0000000000000000000000000000000000000000000000000000000000000000417fffffffffffffffffffffffffffffffffffffffffffffffffffffffffffffffff12a36234970658a03160005155",
                "storage": {}
            }
        },
        "transaction": {
            "nonce": "0x00",
            "gasPrice": "0x0a",
            "gasLimit": [
                "0x17647ecd"
            ],
            "to": "0x9bbd50ae62dd48710f977f34e8289e05399337bd",
            "value": [
                "0x65a87a48"
            ],
            "data": [
                "0x7f0000000000000000000000000000000000000000000000000000000000000000437f00000000000000000000000000000000000000000000000000000000000000017f0000000000000000000000009bbd50ae62dd48710f977f34e8289e05399336bd7f000000000000000000000000000000000000000000000000000000000000c3507f0000000000000000000000000000000000000000000000000000000000000000417fffffffffffffffffffffffffffffffffffffffffffffffffffffffffffffffff12a36234970658a031"
            ],
            "sender": "0xe79d8b4e895ef2787c3cc91eecfa1499adff0199",
            "secretKey": "0xe63bebed65a68eefd466af429bbd50ae62dd48710f977f34e8289e05399336bd"
        },
        "post": {
            "Cancun": [
                {
                    "hash": "0x4aaaf403116c890209bb28329a70626d6ded4e0a01cdd4d6791ddae41f107d66",
                    "logs": "0xd2eb2798db819e6c21e29a529e6558983c3d37c99ddcf0d30f31100027af9b49",
                    "txbytes": "0xf90137800a8417647ecd949bbd50ae62dd48710f977f34e8289e05399337bd8465a87a48b8d17f0000000000000000000000000000000000000000000000000000000000000000437f00000000000000000000000000000000000000000000000000000000000000017f0000000000000000000000009bbd50ae62dd48710f977f34e8289e05399336bd7f000000000000000000000000000000000000000000000000000000000000c3507f0000000000000000000000000000000000000000000000000000000000000000417fffffffffffffffffffffffffffffffffffffffffffffffffffffffffffffffff12a36234970658a03126a0ed6537ee7833c4eb18e74d970dbf2890ae930282f8b0948272ee03f6f1062e73a062ce410223cb47cf136cc333c0cdc45f3bdb56c2385ad554b30db92302eaa05d",
                    "indexes": {
                        "data": 0,
                        "gas": 0,
                        "value": 0
                    },
                    "state": {
                        "0xe79d8b4e895ef2787c3cc91eecfa1499adff0199": {
                            "nonce": "0x01",
                            "balance": "0x0de0b6b3239559e2",
                            "code": "0x",
                            "storage": {}
                        },
                        "0x9bbd50ae62dd48710f977f34e8289e05399336bd": {
                            "nonce": "0x00",
                            "balance": "0x2e",
                            "code": "0x6000355415600957005b60203560003555",
                            "storage": {}
                        },
                        "0x9bbd50ae62dd48710f977f34e8289e05399337bd": {
                            "nonce": "0x00",
                            "balance": "0x65a87a48",
                            "code": "0x7f0000000000000000000000000000000000000000000000000000000000000000437f00000000000000000000000000000000000000000000000000000000000000017f0000000000000000000000009bbd50ae62dd48710f977f34e8289e05399336bd7f000000000000000000000000000000000000000000000000000000000000c3507f0000000000000000000000000000000000000000000000000000000000000000417fffffffffffffffffffffffffffffffffffffffffffffffffffffffffffffffff12a36234970658a03160005155",
                            "storage": {}
                        }
                    }
                }
            ]
        },
        "config": {
            "blobSchedule": {
                "Cancun": {
                    "target": "0x03",
                    "max": "0x06",
                    "baseFeeUpdateFraction": "0x32f0ed"
                }
            },
            "chainid": "0x01"
        },
        "_info": {
            "hash": "0x789ebaaa121d28d9730a2336cbd8fa079f73d02dc7f40fdf61cae18aef024050",
            "comment": "`execution-spec-tests` generated test",
            "filling-transition-tool": "ethereum-spec-evm-resolver 0.0.5",
            "description": "No description available - add a docstring to the python test class or function.",
            "url": "",
            "fixture-format": "state_test",
            "eels-resolution": {
                "git-url": "https://github.com/ethereum/execution-specs.git",
                "branch": "forks/bpos",
                "commit": "7aacb2c54111391af5e98c505d5010b5698a770f"
            }
        }
    },
    "tests/static/state_tests/stRandom2/randomStatetest418Filler.json::randomStatetest418[fork_Prague-state_test-]": {
        "env": {
            "currentCoinbase": "0x9bbd50ae62dd48710f977f34e8289e05399336bd",
            "currentGasLimit": "0x7fffffffffffffff",
            "currentNumber": "0x01",
            "currentTimestamp": "0x03e8",
            "currentRandom": "0x0000000000000000000000000000000000000000000000000000000000020000",
            "currentDifficulty": "0x00",
            "currentBaseFee": "0x0a",
            "currentExcessBlobGas": "0x00"
        },
        "pre": {
            "0xe79d8b4e895ef2787c3cc91eecfa1499adff0199": {
                "nonce": "0x00",
                "balance": "0x0de0b6b3a7640000",
                "code": "0x",
                "storage": {}
            },
            "0x9bbd50ae62dd48710f977f34e8289e05399336bd": {
                "nonce": "0x00",
                "balance": "0x2e",
                "code": "0x6000355415600957005b60203560003555",
                "storage": {}
            },
            "0x9bbd50ae62dd48710f977f34e8289e05399337bd": {
                "nonce": "0x00",
                "balance": "0x00",
                "code": "0x7f0000000000000000000000000000000000000000000000000000000000000000437f00000000000000000000000000000000000000000000000000000000000000017f0000000000000000000000009bbd50ae62dd48710f977f34e8289e05399336bd7f000000000000000000000000000000000000000000000000000000000000c3507f0000000000000000000000000000000000000000000000000000000000000000417fffffffffffffffffffffffffffffffffffffffffffffffffffffffffffffffff12a36234970658a03160005155",
                "storage": {}
            }
        },
        "transaction": {
            "nonce": "0x00",
            "gasPrice": "0x0a",
            "gasLimit": [
                "0x17647ecd"
            ],
            "to": "0x9bbd50ae62dd48710f977f34e8289e05399337bd",
            "value": [
                "0x65a87a48"
            ],
            "data": [
                "0x7f0000000000000000000000000000000000000000000000000000000000000000437f00000000000000000000000000000000000000000000000000000000000000017f0000000000000000000000009bbd50ae62dd48710f977f34e8289e05399336bd7f000000000000000000000000000000000000000000000000000000000000c3507f0000000000000000000000000000000000000000000000000000000000000000417fffffffffffffffffffffffffffffffffffffffffffffffffffffffffffffffff12a36234970658a031"
            ],
            "sender": "0xe79d8b4e895ef2787c3cc91eecfa1499adff0199",
            "secretKey": "0xe63bebed65a68eefd466af429bbd50ae62dd48710f977f34e8289e05399336bd"
        },
        "post": {
            "Prague": [
                {
                    "hash": "0x4aaaf403116c890209bb28329a70626d6ded4e0a01cdd4d6791ddae41f107d66",
                    "logs": "0xd2eb2798db819e6c21e29a529e6558983c3d37c99ddcf0d30f31100027af9b49",
                    "txbytes": "0xf90137800a8417647ecd949bbd50ae62dd48710f977f34e8289e05399337bd8465a87a48b8d17f0000000000000000000000000000000000000000000000000000000000000000437f00000000000000000000000000000000000000000000000000000000000000017f0000000000000000000000009bbd50ae62dd48710f977f34e8289e05399336bd7f000000000000000000000000000000000000000000000000000000000000c3507f0000000000000000000000000000000000000000000000000000000000000000417fffffffffffffffffffffffffffffffffffffffffffffffffffffffffffffffff12a36234970658a03126a0ed6537ee7833c4eb18e74d970dbf2890ae930282f8b0948272ee03f6f1062e73a062ce410223cb47cf136cc333c0cdc45f3bdb56c2385ad554b30db92302eaa05d",
                    "indexes": {
                        "data": 0,
                        "gas": 0,
                        "value": 0
                    },
                    "state": {
                        "0xe79d8b4e895ef2787c3cc91eecfa1499adff0199": {
                            "nonce": "0x01",
                            "balance": "0x0de0b6b3239559e2",
                            "code": "0x",
                            "storage": {}
                        },
                        "0x9bbd50ae62dd48710f977f34e8289e05399336bd": {
                            "nonce": "0x00",
                            "balance": "0x2e",
                            "code": "0x6000355415600957005b60203560003555",
                            "storage": {}
                        },
                        "0x9bbd50ae62dd48710f977f34e8289e05399337bd": {
                            "nonce": "0x00",
                            "balance": "0x65a87a48",
                            "code": "0x7f0000000000000000000000000000000000000000000000000000000000000000437f00000000000000000000000000000000000000000000000000000000000000017f0000000000000000000000009bbd50ae62dd48710f977f34e8289e05399336bd7f000000000000000000000000000000000000000000000000000000000000c3507f0000000000000000000000000000000000000000000000000000000000000000417fffffffffffffffffffffffffffffffffffffffffffffffffffffffffffffffff12a36234970658a03160005155",
                            "storage": {}
                        }
                    }
                }
            ]
        },
        "config": {
            "blobSchedule": {
                "Cancun": {
                    "target": "0x03",
                    "max": "0x06",
                    "baseFeeUpdateFraction": "0x32f0ed"
                },
                "Prague": {
                    "target": "0x06",
                    "max": "0x09",
                    "baseFeeUpdateFraction": "0x4c6964"
                }
            },
            "chainid": "0x01"
        },
        "_info": {
            "hash": "0xd4834eafe14fde57e3a3a58145d6defbb7ca008f604406ade080e64b1f6e7185",
            "comment": "`execution-spec-tests` generated test",
            "filling-transition-tool": "ethereum-spec-evm-resolver 0.0.5",
            "description": "No description available - add a docstring to the python test class or function.",
            "url": "",
            "fixture-format": "state_test",
            "eels-resolution": {
                "git-url": "https://github.com/ethereum/execution-specs.git",
                "branch": "forks/bpos",
                "commit": "7aacb2c54111391af5e98c505d5010b5698a770f"
            }
        }
    }
}