{
    "tests/static/state_tests/stRandom2/randomStatetest410Filler.json::randomStatetest410[fork_Cancun-state_test-]": {
        "env": {
            "currentCoinbase": "0x2468cc8c80c4beaac30dfbe59ed62eb1385f7104",
            "currentGasLimit": "0x7fffffffffffffff",
            "currentNumber": "0x01",
            "currentTimestamp": "0x03e8",
            "currentRandom": "0x0000000000000000000000000000000000000000000000000000000000020000",
            "currentDifficulty": "0x00",
            "currentBaseFee": "0x0a",
            "currentExcessBlobGas": "0x00"
        },
        "pre": {
            "0xb9ca97715832855bcb242c22e6a29939c75b31b9": {
                "nonce": "0x00",
                "balance": "0x0de0b6b3a7640000",
                "code": "0x",
                "storage": {}
            },
            "0x2468cc8c80c4beaac30dfbe59ed62eb1385f7104": {
                "nonce": "0x00",
                "balance": "0x2e",
                "code": "0x6000355415600957005b60203560003555",
                "storage": {}
            },
            "0x2468cc8c80c4beaac30dfbe59ed62eb1385f7204": {
                "nonce": "0x00",
                "balance": "0x00",
                "code": "0x7f0000000000000000000000002468cc8c80c4beaac30dfbe59ed62eb1385f7104417f00000000000000000000000000000000000000000000000000000000000000007ffffffffffffffffffffffffffffffffffffffffffffffffffffffffffffffffe7ffffffffffffffffffffffffffffffffffffffffffffffffffffffffffffffffe7f000000000000000000000000000000000000000000000000000000000000c3507f00000000000000000000000000000000000000000000000000000000000000007f000000000000000000000000000000000000000000000000000000000000000045086201771880f35560005155",
                "storage": {}
            }
        },
        "transaction": {
            "nonce": "0x00",
            "gasPrice": "0x0a",
            "gasLimit": [
                "0x030d40"
            ],
            "to": "0x2468cc8c80c4beaac30dfbe59ed62eb1385f7204",
            "value": [
                "0x756b69d9"
            ],
            "data": [
                "0x7f0000000000000000000000002468cc8c80c4beaac30dfbe59ed62eb1385f7104417f00000000000000000000000000000000000000000000000000000000000000007ffffffffffffffffffffffffffffffffffffffffffffffffffffffffffffffffe7ffffffffffffffffffffffffffffffffffffffffffffffffffffffffffffffffe7f000000000000000000000000000000000000000000000000000000000000c3507f00000000000000000000000000000000000000000000000000000000000000007f000000000000000000000000000000000000000000000000000000000000000045086201771880f3"
            ],
            "sender": "0xb9ca97715832855bcb242c22e6a29939c75b31b9",
            "secretKey": "0xf96099a2f923f600d2573a642468cc8c80c4beaac30dfbe59ed62eb1385f7104"
        },
        "post": {
            "Cancun": [
                {
                    "hash": "0x8c78d88bf87b0498722c34a15f69f63d72ca72c24776846e6a36d0142eee7b3e",
                    "logs": "0x1dcc4de8dec75d7aab85b567b6ccd41ad312451b948a7413f0a142fd40d49347",
                    "txbytes": "0xf90155800a83030d40942468cc8c80c4beaac30dfbe59ed62eb1385f720484756b69d9b8f07f0000000000000000000000002468cc8c80c4beaac30dfbe59ed62eb1385f7104417f00000000000000000000000000000000000000000000000000000000000000007ffffffffffffffffffffffffffffffffffffffffffffffffffffffffffffffffe7ffffffffffffffffffffffffffffffffffffffffffffffffffffffffffffffffe7f000000000000000000000000000000000000000000000000000000000000c3507f00000000000000000000000000000000000000000000000000000000000000007f000000000000000000000000000000000000000000000000000000000000000045086201771880f325a042d2544a3de18ec32c47b97c679e84cd77a3d8c3cba081fbd66a68900b359ef7a072fe453e9aafc6e06f664ee7047f03dd0ad201082ff383852ba12abdfb35061c",
                    "indexes": {
                        "data": 0,
                        "gas": 0,
                        "value": 0
                    },
                    "state": {
                        "0xb9ca97715832855bcb242c22e6a29939c75b31b9": {
                            "nonce": "0x01",
                            "balance": "0x0de0b6b331e78f3f",
                            "code": "0x",
                            "storage": {}
                        },
                        "0x2468cc8c80c4beaac30dfbe59ed62eb1385f7104": {
                            "nonce": "0x00",
                            "balance": "0x2e",
                            "code": "0x6000355415600957005b60203560003555",
                            "storage": {}
                        },
                        "0x2468cc8c80c4beaac30dfbe59ed62eb1385f7204": {
                            "nonce": "0x00",
                            "balance": "0x756b69d9",
                            "code": "0x7f0000000000000000000000002468cc8c80c4beaac30dfbe59ed62eb1385f7104417f00000000000000000000000000000000000000000000000000000000000000007ffffffffffffffffffffffffffffffffffffffffffffffffffffffffffffffffe7ffffffffffffffffffffffffffffffffffffffffffffffffffffffffffffffffe7f000000000000000000000000000000000000000000000000000000000000c3507f00000000000000000000000000000000000000000000000000000000000000007f000000000000000000000000000000000000000000000000000000000000000045086201771880f35560005155",
                            "storage": {}
                        }
                    }
                }
            ]
        },
        "config": {
            "blobSchedule": {
                "Cancun": {
                    "target": "0x03",
                    "max": "0x06",
                    "baseFeeUpdateFraction": "0x32f0ed"
                }
            },
            "chainid": "0x01"
        },
        "_info": {
            "hash": "0x4606578c78b71b1982846ce72879a0557c8cdec8ba7adbf8bd505fc1fe56704f",
            "comment": "`execution-specs` generated test",
            "filling-transition-tool": "2.18.0rc6",
            "description": "No description available - add a docstring to the python test class or function.",
            "url": "",
            "fixture-format": "state_test"
        }
    },
    "tests/static/state_tests/stRandom2/randomStatetest410Filler.json::randomStatetest410[fork_Osaka-state_test-]": {
        "env": {
            "currentCoinbase": "0x2468cc8c80c4beaac30dfbe59ed62eb1385f7104",
            "currentGasLimit": "0x7fffffffffffffff",
            "currentNumber": "0x01",
            "currentTimestamp": "0x03e8",
            "currentRandom": "0x0000000000000000000000000000000000000000000000000000000000020000",
            "currentDifficulty": "0x00",
            "currentBaseFee": "0x0a",
            "currentExcessBlobGas": "0x00"
        },
        "pre": {
            "0xb9ca97715832855bcb242c22e6a29939c75b31b9": {
                "nonce": "0x00",
                "balance": "0x0de0b6b3a7640000",
                "code": "0x",
                "storage": {}
            },
            "0x2468cc8c80c4beaac30dfbe59ed62eb1385f7104": {
                "nonce": "0x00",
                "balance": "0x2e",
                "code": "0x6000355415600957005b60203560003555",
                "storage": {}
            },
            "0x2468cc8c80c4beaac30dfbe59ed62eb1385f7204": {
                "nonce": "0x00",
                "balance": "0x00",
                "code": "0x7f0000000000000000000000002468cc8c80c4beaac30dfbe59ed62eb1385f7104417f00000000000000000000000000000000000000000000000000000000000000007ffffffffffffffffffffffffffffffffffffffffffffffffffffffffffffffffe7ffffffffffffffffffffffffffffffffffffffffffffffffffffffffffffffffe7f000000000000000000000000000000000000000000000000000000000000c3507f00000000000000000000000000000000000000000000000000000000000000007f000000000000000000000000000000000000000000000000000000000000000045086201771880f35560005155",
                "storage": {}
            }
        },
        "transaction": {
            "nonce": "0x00",
            "gasPrice": "0x0a",
            "gasLimit": [
                "0x030d40"
            ],
            "to": "0x2468cc8c80c4beaac30dfbe59ed62eb1385f7204",
            "value": [
                "0x756b69d9"
            ],
            "data": [
                "0x7f0000000000000000000000002468cc8c80c4beaac30dfbe59ed62eb1385f7104417f00000000000000000000000000000000000000000000000000000000000000007ffffffffffffffffffffffffffffffffffffffffffffffffffffffffffffffffe7ffffffffffffffffffffffffffffffffffffffffffffffffffffffffffffffffe7f000000000000000000000000000000000000000000000000000000000000c3507f00000000000000000000000000000000000000000000000000000000000000007f000000000000000000000000000000000000000000000000000000000000000045086201771880f3"
            ],
            "sender": "0xb9ca97715832855bcb242c22e6a29939c75b31b9",
            "secretKey": "0xf96099a2f923f600d2573a642468cc8c80c4beaac30dfbe59ed62eb1385f7104"
        },
        "post": {
            "Osaka": [
                {
                    "hash": "0x8c78d88bf87b0498722c34a15f69f63d72ca72c24776846e6a36d0142eee7b3e",
                    "logs": "0x1dcc4de8dec75d7aab85b567b6ccd41ad312451b948a7413f0a142fd40d49347",
                    "txbytes": "0xf90155800a83030d40942468cc8c80c4beaac30dfbe59ed62eb1385f720484756b69d9b8f07f0000000000000000000000002468cc8c80c4beaac30dfbe59ed62eb1385f7104417f00000000000000000000000000000000000000000000000000000000000000007ffffffffffffffffffffffffffffffffffffffffffffffffffffffffffffffffe7ffffffffffffffffffffffffffffffffffffffffffffffffffffffffffffffffe7f000000000000000000000000000000000000000000000000000000000000c3507f00000000000000000000000000000000000000000000000000000000000000007f000000000000000000000000000000000000000000000000000000000000000045086201771880f325a042d2544a3de18ec32c47b97c679e84cd77a3d8c3cba081fbd66a68900b359ef7a072fe453e9aafc6e06f664ee7047f03dd0ad201082ff383852ba12abdfb35061c",
                    "indexes": {
                        "data": 0,
                        "gas": 0,
                        "value": 0
                    },
                    "state": {
                        "0xb9ca97715832855bcb242c22e6a29939c75b31b9": {
                            "nonce": "0x01",
                            "balance": "0x0de0b6b331e78f3f",
                            "code": "0x",
                            "storage": {}
                        },
                        "0x2468cc8c80c4beaac30dfbe59ed62eb1385f7104": {
                            "nonce": "0x00",
                            "balance": "0x2e",
                            "code": "0x6000355415600957005b60203560003555",
                            "storage": {}
                        },
                        "0x2468cc8c80c4beaac30dfbe59ed62eb1385f7204": {
                            "nonce": "0x00",
                            "balance": "0x756b69d9",
                            "code": "0x7f0000000000000000000000002468cc8c80c4beaac30dfbe59ed62eb1385f7104417f00000000000000000000000000000000000000000000000000000000000000007ffffffffffffffffffffffffffffffffffffffffffffffffffffffffffffffffe7ffffffffffffffffffffffffffffffffffffffffffffffffffffffffffffffffe7f000000000000000000000000000000000000000000000000000000000000c3507f00000000000000000000000000000000000000000000000000000000000000007f000000000000000000000000000000000000000000000000000000000000000045086201771880f35560005155",
                            "storage": {}
                        }
                    }
                }
            ]
        },
        "config": {
            "blobSchedule": {
                "Cancun": {
                    "target": "0x03",
                    "max": "0x06",
                    "baseFeeUpdateFraction": "0x32f0ed"
                },
                "Prague": {
                    "target": "0x06",
                    "max": "0x09",
                    "baseFeeUpdateFraction": "0x4c6964"
                },
                "Osaka": {
                    "target": "0x06",
                    "max": "0x09",
                    "baseFeeUpdateFraction": "0x4c6964"
                }
            },
            "chainid": "0x01"
        },
        "_info": {
            "hash": "0x363bc61f81afa9489d6e60681f399d5dd594755f67b8faf9aeda1074be397f82",
            "comment": "`execution-specs` generated test",
            "filling-transition-tool": "2.18.0rc6",
            "description": "No description available - add a docstring to the python test class or function.",
            "url": "",
            "fixture-format": "state_test"
        }
    },
    "tests/static/state_tests/stRandom2/randomStatetest410Filler.json::randomStatetest410[fork_Prague-state_test-]": {
        "env": {
            "currentCoinbase": "0x2468cc8c80c4beaac30dfbe59ed62eb1385f7104",
            "currentGasLimit": "0x7fffffffffffffff",
            "currentNumber": "0x01",
            "currentTimestamp": "0x03e8",
            "currentRandom": "0x0000000000000000000000000000000000000000000000000000000000020000",
            "currentDifficulty": "0x00",
            "currentBaseFee": "0x0a",
            "currentExcessBlobGas": "0x00"
        },
        "pre": {
            "0xb9ca97715832855bcb242c22e6a29939c75b31b9": {
                "nonce": "0x00",
                "balance": "0x0de0b6b3a7640000",
                "code": "0x",
                "storage": {}
            },
            "0x2468cc8c80c4beaac30dfbe59ed62eb1385f7104": {
                "nonce": "0x00",
                "balance": "0x2e",
                "code": "0x6000355415600957005b60203560003555",
                "storage": {}
            },
            "0x2468cc8c80c4beaac30dfbe59ed62eb1385f7204": {
                "nonce": "0x00",
                "balance": "0x00",
                "code": "0x7f0000000000000000000000002468cc8c80c4beaac30dfbe59ed62eb1385f7104417f00000000000000000000000000000000000000000000000000000000000000007ffffffffffffffffffffffffffffffffffffffffffffffffffffffffffffffffe7ffffffffffffffffffffffffffffffffffffffffffffffffffffffffffffffffe7f000000000000000000000000000000000000000000000000000000000000c3507f00000000000000000000000000000000000000000000000000000000000000007f000000000000000000000000000000000000000000000000000000000000000045086201771880f35560005155",
                "storage": {}
            }
        },
        "transaction": {
            "nonce": "0x00",
            "gasPrice": "0x0a",
            "gasLimit": [
                "0x030d40"
            ],
            "to": "0x2468cc8c80c4beaac30dfbe59ed62eb1385f7204",
            "value": [
                "0x756b69d9"
            ],
            "data": [
                "0x7f0000000000000000000000002468cc8c80c4beaac30dfbe59ed62eb1385f7104417f00000000000000000000000000000000000000000000000000000000000000007ffffffffffffffffffffffffffffffffffffffffffffffffffffffffffffffffe7ffffffffffffffffffffffffffffffffffffffffffffffffffffffffffffffffe7f000000000000000000000000000000000000000000000000000000000000c3507f00000000000000000000000000000000000000000000000000000000000000007f000000000000000000000000000000000000000000000000000000000000000045086201771880f3"
            ],
            "sender": "0xb9ca97715832855bcb242c22e6a29939c75b31b9",
            "secretKey": "0xf96099a2f923f600d2573a642468cc8c80c4beaac30dfbe59ed62eb1385f7104"
        },
        "post": {
            "Prague": [
                {
                    "hash": "0x8c78d88bf87b0498722c34a15f69f63d72ca72c24776846e6a36d0142eee7b3e",
                    "logs": "0x1dcc4de8dec75d7aab85b567b6ccd41ad312451b948a7413f0a142fd40d49347",
                    "txbytes": "0xf90155800a83030d40942468cc8c80c4beaac30dfbe59ed62eb1385f720484756b69d9b8f07f0000000000000000000000002468cc8c80c4beaac30dfbe59ed62eb1385f7104417f00000000000000000000000000000000000000000000000000000000000000007ffffffffffffffffffffffffffffffffffffffffffffffffffffffffffffffffe7ffffffffffffffffffffffffffffffffffffffffffffffffffffffffffffffffe7f000000000000000000000000000000000000000000000000000000000000c3507f00000000000000000000000000000000000000000000000000000000000000007f000000000000000000000000000000000000000000000000000000000000000045086201771880f325a042d2544a3de18ec32c47b97c679e84cd77a3d8c3cba081fbd66a68900b359ef7a072fe453e9aafc6e06f664ee7047f03dd0ad201082ff383852ba12abdfb35061c",
                    "indexes": {
                        "data": 0,
                        "gas": 0,
                        "value": 0
                    },
                    "state": {
                        "0xb9ca97715832855bcb242c22e6a29939c75b31b9": {
                            "nonce": "0x01",
                            "balance": "0x0de0b6b331e78f3f",
                            "code": "0x",
                            "storage": {}
                        },
                        "0x2468cc8c80c4beaac30dfbe59ed62eb1385f7104": {
                            "nonce": "0x00",
                            "balance": "0x2e",
                            "code": "0x6000355415600957005b60203560003555",
                            "storage": {}
                        },
                        "0x2468cc8c80c4beaac30dfbe59ed62eb1385f7204": {
                            "nonce": "0x00",
                            "balance": "0x756b69d9",
                            "code": "0x7f0000000000000000000000002468cc8c80c4beaac30dfbe59ed62eb1385f7104417f00000000000000000000000000000000000000000000000000000000000000007ffffffffffffffffffffffffffffffffffffffffffffffffffffffffffffffffe7ffffffffffffffffffffffffffffffffffffffffffffffffffffffffffffffffe7f000000000000000000000000000000000000000000000000000000000000c3507f00000000000000000000000000000000000000000000000000000000000000007f000000000000000000000000000000000000000000000000000000000000000045086201771880f35560005155",
                            "storage": {}
                        }
                    }
                }
            ]
        },
        "config": {
            "blobSchedule": {
                "Cancun": {
                    "target": "0x03",
                    "max": "0x06",
                    "baseFeeUpdateFraction": "0x32f0ed"
                },
                "Prague": {
                    "target": "0x06",
                    "max": "0x09",
                    "baseFeeUpdateFraction": "0x4c6964"
                }
            },
            "chainid": "0x01"
        },
        "_info": {
            "hash": "0xa0b8c14c707154a1a0d320b576537d9bace3f976a8d8ea14f91a9452a85ec557",
            "comment": "`execution-specs` generated test",
            "filling-transition-tool": "2.18.0rc6",
            "description": "No description available - add a docstring to the python test class or function.",
            "url": "",
            "fixture-format": "state_test"
        }
    }
}