{
    "tests/static/state_tests/stRandom2/randomStatetest534Filler.json::randomStatetest534[fork_Cancun-state_test-]": {
        "env": {
            "currentCoinbase": "0xe29cea86613234907d1664dbeabcfdeefde6ae55",
            "currentGasLimit": "0x7fffffffffffffff",
            "currentNumber": "0x01",
            "currentTimestamp": "0x03e8",
            "currentRandom": "0x0000000000000000000000000000000000000000000000000000000000020000",
            "currentDifficulty": "0x00",
            "currentBaseFee": "0x0a",
            "currentExcessBlobGas": "0x00"
        },
        "pre": {
            "0x149c89973ea15e295e376fc0add558b95e0de162": {
                "nonce": "0x00",
                "balance": "0x0de0b6b3a7640000",
                "code": "0x",
                "storage": {}
            },
            "0xe29cea86613234907d1664dbeabcfdeefde6ae55": {
                "nonce": "0x00",
                "balance": "0x2e",
                "code": "0x6000355415600957005b60203560003555",
                "storage": {}
            },
            "0xe29cea86613234907d1664dbeabcfdeefde6af55": {
                "nonce": "0x00",
                "balance": "0x00",
                "code": "0x7f000000000000000000000001000000000000000000000000000000000000000045437f000000000000000000000000e29cea86613234907d1664dbeabcfdeefde6ae557fffffffffffffffffffffffffffffffffffffffffffffffffffffffffffffffff457f0000000000000000000000000000000000000000000000000000000000000000436ff3075243846d88747b6a9e7ff28c615560005155",
                "storage": {}
            }
        },
        "transaction": {
            "nonce": "0x00",
            "gasPrice": "0x0a",
            "gasLimit": [
                "0x0186a0"
            ],
            "to": "0xe29cea86613234907d1664dbeabcfdeefde6af55",
            "value": [
                "0x55db76c1"
            ],
            "data": [
                "0x7f000000000000000000000001000000000000000000000000000000000000000045437f000000000000000000000000e29cea86613234907d1664dbeabcfdeefde6ae557fffffffffffffffffffffffffffffffffffffffffffffffffffffffffffffffff457f0000000000000000000000000000000000000000000000000000000000000000436ff3075243846d88747b6a9e7ff28c61"
            ],
            "sender": "0x149c89973ea15e295e376fc0add558b95e0de162",
            "secretKey": "0x65919faa2a69cd4f05b4d997e29cea86613234907d1664dbeabcfdeefde6ae55"
        },
        "post": {
            "Cancun": [
                {
                    "hash": "0x337806e8f1861c7654aa610f56adea69980f088e32b985756c48fac2aaf06272",
                    "logs": "0x1dcc4de8dec75d7aab85b567b6ccd41ad312451b948a7413f0a142fd40d49347",
                    "txbytes": "0xf8fd800a830186a094e29cea86613234907d1664dbeabcfdeefde6af558455db76c1b8987f000000000000000000000001000000000000000000000000000000000000000045437f000000000000000000000000e29cea86613234907d1664dbeabcfdeefde6ae557fffffffffffffffffffffffffffffffffffffffffffffffffffffffffffffffff457f0000000000000000000000000000000000000000000000000000000000000000436ff3075243846d88747b6a9e7ff28c6126a04dfd2894384abef9d95f56246028d6618d9ef7e89a9c0ae5b9e7240aae13fd55a01f017ab245e069e0f212298df5d9616dd0bfc846df90fe2800354f2762a2d78d",
                    "indexes": {
                        "data": 0,
                        "gas": 0,
                        "value": 0
                    },
                    "state": {
                        "0x149c89973ea15e295e376fc0add558b95e0de162": {
                            "nonce": "0x01",
                            "balance": "0x0de0b6b35181b88f",
                            "code": "0x",
                            "storage": {}
                        },
                        "0xe29cea86613234907d1664dbeabcfdeefde6ae55": {
                            "nonce": "0x00",
                            "balance": "0x2e",
                            "code": "0x6000355415600957005b60203560003555",
                            "storage": {}
                        },
                        "0xe29cea86613234907d1664dbeabcfdeefde6af55": {
                            "nonce": "0x00",
                            "balance": "0x55db76c1",
                            "code": "0x7f000000000000000000000001000000000000000000000000000000000000000045437f000000000000000000000000e29cea86613234907d1664dbeabcfdeefde6ae557fffffffffffffffffffffffffffffffffffffffffffffffffffffffffffffffff457f0000000000000000000000000000000000000000000000000000000000000000436ff3075243846d88747b6a9e7ff28c615560005155",
                            "storage": {
                                "0x00": "0xf3075243846d88747b6a9e7ff28c6155"
                            }
                        }
                    }
                }
            ]
        },
        "config": {
            "blobSchedule": {
                "Cancun": {
                    "target": "0x03",
                    "max": "0x06",
                    "baseFeeUpdateFraction": "0x32f0ed"
                }
            },
            "chainid": "0x01"
        },
        "_info": {
            "hash": "0xc30a8007387ca64238220a6c8acbe12379207dd4529699c2610d25f6e1ed4529",
            "comment": "`execution-spec-tests` generated test",
            "filling-transition-tool": "ethereum-spec-evm-resolver 0.0.5",
            "description": "No description available - add a docstring to the python test class or function.",
            "url": "",
            "fixture-format": "state_test",
            "eels-resolution": {
                "git-url": "https://github.com/marioevz/execution-specs.git",
                "branch": "forks/bpo1",
                "commit": "3387e5f4aedfe99becfdc39b444d6371e25e0924"
            }
        }
    },
    "tests/static/state_tests/stRandom2/randomStatetest534Filler.json::randomStatetest534[fork_Osaka-state_test-]": {
        "env": {
            "currentCoinbase": "0xe29cea86613234907d1664dbeabcfdeefde6ae55",
            "currentGasLimit": "0x7fffffffffffffff",
            "currentNumber": "0x01",
            "currentTimestamp": "0x03e8",
            "currentRandom": "0x0000000000000000000000000000000000000000000000000000000000020000",
            "currentDifficulty": "0x00",
            "currentBaseFee": "0x0a",
            "currentExcessBlobGas": "0x00"
        },
        "pre": {
            "0x149c89973ea15e295e376fc0add558b95e0de162": {
                "nonce": "0x00",
                "balance": "0x0de0b6b3a7640000",
                "code": "0x",
                "storage": {}
            },
            "0xe29cea86613234907d1664dbeabcfdeefde6ae55": {
                "nonce": "0x00",
                "balance": "0x2e",
                "code": "0x6000355415600957005b60203560003555",
                "storage": {}
            },
            "0xe29cea86613234907d1664dbeabcfdeefde6af55": {
                "nonce": "0x00",
                "balance": "0x00",
                "code": "0x7f000000000000000000000001000000000000000000000000000000000000000045437f000000000000000000000000e29cea86613234907d1664dbeabcfdeefde6ae557fffffffffffffffffffffffffffffffffffffffffffffffffffffffffffffffff457f0000000000000000000000000000000000000000000000000000000000000000436ff3075243846d88747b6a9e7ff28c615560005155",
                "storage": {}
            }
        },
        "transaction": {
            "nonce": "0x00",
            "gasPrice": "0x0a",
            "gasLimit": [
                "0x0186a0"
            ],
            "to": "0xe29cea86613234907d1664dbeabcfdeefde6af55",
            "value": [
                "0x55db76c1"
            ],
            "data": [
                "0x7f000000000000000000000001000000000000000000000000000000000000000045437f000000000000000000000000e29cea86613234907d1664dbeabcfdeefde6ae557fffffffffffffffffffffffffffffffffffffffffffffffffffffffffffffffff457f0000000000000000000000000000000000000000000000000000000000000000436ff3075243846d88747b6a9e7ff28c61"
            ],
            "sender": "0x149c89973ea15e295e376fc0add558b95e0de162",
            "secretKey": "0x65919faa2a69cd4f05b4d997e29cea86613234907d1664dbeabcfdeefde6ae55"
        },
        "post": {
            "Osaka": [
                {
                    "hash": "0x337806e8f1861c7654aa610f56adea69980f088e32b985756c48fac2aaf06272",
                    "logs": "0x1dcc4de8dec75d7aab85b567b6ccd41ad312451b948a7413f0a142fd40d49347",
                    "txbytes": "0xf8fd800a830186a094e29cea86613234907d1664dbeabcfdeefde6af558455db76c1b8987f000000000000000000000001000000000000000000000000000000000000000045437f000000000000000000000000e29cea86613234907d1664dbeabcfdeefde6ae557fffffffffffffffffffffffffffffffffffffffffffffffffffffffffffffffff457f0000000000000000000000000000000000000000000000000000000000000000436ff3075243846d88747b6a9e7ff28c6126a04dfd2894384abef9d95f56246028d6618d9ef7e89a9c0ae5b9e7240aae13fd55a01f017ab245e069e0f212298df5d9616dd0bfc846df90fe2800354f2762a2d78d",
                    "indexes": {
                        "data": 0,
                        "gas": 0,
                        "value": 0
                    },
                    "state": {
                        "0x149c89973ea15e295e376fc0add558b95e0de162": {
                            "nonce": "0x01",
                            "balance": "0x0de0b6b35181b88f",
                            "code": "0x",
                            "storage": {}
                        },
                        "0xe29cea86613234907d1664dbeabcfdeefde6ae55": {
                            "nonce": "0x00",
                            "balance": "0x2e",
                            "code": "0x6000355415600957005b60203560003555",
                            "storage": {}
                        },
                        "0xe29cea86613234907d1664dbeabcfdeefde6af55": {
                            "nonce": "0x00",
                            "balance": "0x55db76c1",
                            "code": "0x7f000000000000000000000001000000000000000000000000000000000000000045437f000000000000000000000000e29cea86613234907d1664dbeabcfdeefde6ae557fffffffffffffffffffffffffffffffffffffffffffffffffffffffffffffffff457f0000000000000000000000000000000000000000000000000000000000000000436ff3075243846d88747b6a9e7ff28c615560005155",
                            "storage": {
                                "0x00": "0xf3075243846d88747b6a9e7ff28c6155"
                            }
                        }
                    }
                }
            ]
        },
        "config": {
            "blobSchedule": {
                "Cancun": {
                    "target": "0x03",
                    "max": "0x06",
                    "baseFeeUpdateFraction": "0x32f0ed"
                },
                "Prague": {
                    "target": "0x06",
                    "max": "0x09",
                    "baseFeeUpdateFraction": "0x4c6964"
                },
                "Osaka": {
                    "target": "0x06",
                    "max": "0x09",
                    "baseFeeUpdateFraction": "0x4c6964"
                }
            },
            "chainid": "0x01"
        },
        "_info": {
            "hash": "0xe785ad32c7cbe4bbd97d8dc33f119e609983933e2dcab806154e5f776bb57f41",
            "comment": "`execution-spec-tests` generated test",
            "filling-transition-tool": "ethereum-spec-evm-resolver 0.0.5",
            "description": "No description available - add a docstring to the python test class or function.",
            "url": "",
            "fixture-format": "state_test",
            "eels-resolution": {
                "git-url": "https://github.com/marioevz/execution-specs.git",
                "branch": "forks/bpo1",
                "commit": "3387e5f4aedfe99becfdc39b444d6371e25e0924"
            }
        }
    },
    "tests/static/state_tests/stRandom2/randomStatetest534Filler.json::randomStatetest534[fork_Prague-state_test-]": {
        "env": {
            "currentCoinbase": "0xe29cea86613234907d1664dbeabcfdeefde6ae55",
            "currentGasLimit": "0x7fffffffffffffff",
            "currentNumber": "0x01",
            "currentTimestamp": "0x03e8",
            "currentRandom": "0x0000000000000000000000000000000000000000000000000000000000020000",
            "currentDifficulty": "0x00",
            "currentBaseFee": "0x0a",
            "currentExcessBlobGas": "0x00"
        },
        "pre": {
            "0x149c89973ea15e295e376fc0add558b95e0de162": {
                "nonce": "0x00",
                "balance": "0x0de0b6b3a7640000",
                "code": "0x",
                "storage": {}
            },
            "0xe29cea86613234907d1664dbeabcfdeefde6ae55": {
                "nonce": "0x00",
                "balance": "0x2e",
                "code": "0x6000355415600957005b60203560003555",
                "storage": {}
            },
            "0xe29cea86613234907d1664dbeabcfdeefde6af55": {
                "nonce": "0x00",
                "balance": "0x00",
                "code": "0x7f000000000000000000000001000000000000000000000000000000000000000045437f000000000000000000000000e29cea86613234907d1664dbeabcfdeefde6ae557fffffffffffffffffffffffffffffffffffffffffffffffffffffffffffffffff457f0000000000000000000000000000000000000000000000000000000000000000436ff3075243846d88747b6a9e7ff28c615560005155",
                "storage": {}
            }
        },
        "transaction": {
            "nonce": "0x00",
            "gasPrice": "0x0a",
            "gasLimit": [
                "0x0186a0"
            ],
            "to": "0xe29cea86613234907d1664dbeabcfdeefde6af55",
            "value": [
                "0x55db76c1"
            ],
            "data": [
                "0x7f000000000000000000000001000000000000000000000000000000000000000045437f000000000000000000000000e29cea86613234907d1664dbeabcfdeefde6ae557fffffffffffffffffffffffffffffffffffffffffffffffffffffffffffffffff457f0000000000000000000000000000000000000000000000000000000000000000436ff3075243846d88747b6a9e7ff28c61"
            ],
            "sender": "0x149c89973ea15e295e376fc0add558b95e0de162",
            "secretKey": "0x65919faa2a69cd4f05b4d997e29cea86613234907d1664dbeabcfdeefde6ae55"
        },
        "post": {
            "Prague": [
                {
                    "hash": "0x337806e8f1861c7654aa610f56adea69980f088e32b985756c48fac2aaf06272",
                    "logs": "0x1dcc4de8dec75d7aab85b567b6ccd41ad312451b948a7413f0a142fd40d49347",
                    "txbytes": "0xf8fd800a830186a094e29cea86613234907d1664dbeabcfdeefde6af558455db76c1b8987f000000000000000000000001000000000000000000000000000000000000000045437f000000000000000000000000e29cea86613234907d1664dbeabcfdeefde6ae557fffffffffffffffffffffffffffffffffffffffffffffffffffffffffffffffff457f0000000000000000000000000000000000000000000000000000000000000000436ff3075243846d88747b6a9e7ff28c6126a04dfd2894384abef9d95f56246028d6618d9ef7e89a9c0ae5b9e7240aae13fd55a01f017ab245e069e0f212298df5d9616dd0bfc846df90fe2800354f2762a2d78d",
                    "indexes": {
                        "data": 0,
                        "gas": 0,
                        "value": 0
                    },
                    "state": {
                        "0x149c89973ea15e295e376fc0add558b95e0de162": {
                            "nonce": "0x01",
                            "balance": "0x0de0b6b35181b88f",
                            "code": "0x",
                            "storage": {}
                        },
                        "0xe29cea86613234907d1664dbeabcfdeefde6ae55": {
                            "nonce": "0x00",
                            "balance": "0x2e",
                            "code": "0x6000355415600957005b60203560003555",
                            "storage": {}
                        },
                        "0xe29cea86613234907d1664dbeabcfdeefde6af55": {
                            "nonce": "0x00",
                            "balance": "0x55db76c1",
                            "code": "0x7f000000000000000000000001000000000000000000000000000000000000000045437f000000000000000000000000e29cea86613234907d1664dbeabcfdeefde6ae557fffffffffffffffffffffffffffffffffffffffffffffffffffffffffffffffff457f0000000000000000000000000000000000000000000000000000000000000000436ff3075243846d88747b6a9e7ff28c615560005155",
                            "storage": {
                                "0x00": "0xf3075243846d88747b6a9e7ff28c6155"
                            }
                        }
                    }
                }
            ]
        },
        "config": {
            "blobSchedule": {
                "Cancun": {
                    "target": "0x03",
                    "max": "0x06",
                    "baseFeeUpdateFraction": "0x32f0ed"
                },
                "Prague": {
                    "target": "0x06",
                    "max": "0x09",
                    "baseFeeUpdateFraction": "0x4c6964"
                }
            },
            "chainid": "0x01"
        },
        "_info": {
            "hash": "0x2730c21dd00d8142c236a1a5892707c30608ddb351ac97be70ce16346ee26b80",
            "comment": "`execution-spec-tests` generated test",
            "filling-transition-tool": "ethereum-spec-evm-resolver 0.0.5",
            "description": "No description available - add a docstring to the python test class or function.",
            "url": "",
            "fixture-format": "state_test",
            "eels-resolution": {
                "git-url": "https://github.com/marioevz/execution-specs.git",
                "branch": "forks/bpo1",
                "commit": "3387e5f4aedfe99becfdc39b444d6371e25e0924"
            }
        }
    }
}