{
    "tests/static/state_tests/stRandom2/randomStatetest454Filler.json::randomStatetest454[fork_Cancun-state_test-]": {
        "env": {
            "currentCoinbase": "0x0bfef2ca06613addd0aee32d68bcef1dcfecfab9",
            "currentGasLimit": "0x7fffffffffffffff",
            "currentNumber": "0x01",
            "currentTimestamp": "0x03e8",
            "currentRandom": "0x0000000000000000000000000000000000000000000000000000000000020000",
            "currentDifficulty": "0x00",
            "currentBaseFee": "0x0a",
            "currentExcessBlobGas": "0x00"
        },
        "pre": {
            "0xf3425708784a4eaaeef3489a622522ffca6a35d6": {
                "nonce": "0x00",
                "balance": "0x0de0b6b3a7640000",
                "code": "0x",
                "storage": {}
            },
            "0x0bfef2ca06613addd0aee32d68bcef1dcfecfab9": {
                "nonce": "0x00",
                "balance": "0x2e",
                "code": "0x6000355415600957005b60203560003555",
                "storage": {}
            },
            "0x0bfef2ca06613addd0aee32d68bcef1dcfecfbb9": {
                "nonce": "0x00",
                "balance": "0x00",
                "code": "0x7ffffffffffffffffffffffffffffffffffffffffffffffffffffffffffffffffe7f0000000000000000000000000000000000000000000000000000000000000000557f00000000000000000000000000000000000000000000000000000000000000007f0000000000000000000000000000000000000000000000000000000000000000557f0000000000000000000000000bfef2ca06613addd0aee32d68bcef1dcfecfab90a84339188646595668352a061855560005155",
                "storage": {}
            }
        },
        "transaction": {
            "nonce": "0x00",
            "gasPrice": "0x0a",
            "gasLimit": [
                "0x0186a0"
            ],
            "to": "0x0bfef2ca06613addd0aee32d68bcef1dcfecfbb9",
            "value": [
                "0x55500ee3"
            ],
            "data": [
                "0x7ffffffffffffffffffffffffffffffffffffffffffffffffffffffffffffffffe7f0000000000000000000000000000000000000000000000000000000000000000557f00000000000000000000000000000000000000000000000000000000000000007f0000000000000000000000000000000000000000000000000000000000000000557f0000000000000000000000000bfef2ca06613addd0aee32d68bcef1dcfecfab90a84339188646595668352a06185"
            ],
            "sender": "0xf3425708784a4eaaeef3489a622522ffca6a35d6",
            "secretKey": "0xd57fda48903892a5580df9950bfef2ca06613addd0aee32d68bcef1dcfecfab9"
        },
        "post": {
            "Cancun": [
                {
                    "hash": "0x1b083d4edc80557bfab6e85dcd70c5a86b06bf29056792cf89be4cdcc0f5d591",
                    "logs": "0x1dcc4de8dec75d7aab85b567b6ccd41ad312451b948a7413f0a142fd40d49347",
                    "txbytes": "0xf9011a800a830186a0940bfef2ca06613addd0aee32d68bcef1dcfecfbb98455500ee3b8b57ffffffffffffffffffffffffffffffffffffffffffffffffffffffffffffffffe7f0000000000000000000000000000000000000000000000000000000000000000557f00000000000000000000000000000000000000000000000000000000000000007f0000000000000000000000000000000000000000000000000000000000000000557f0000000000000000000000000bfef2ca06613addd0aee32d68bcef1dcfecfab90a84339188646595668352a0618525a0efd57b74ca52ec78256a6100c6c2c887f347597921c994cd9d24c1ad30b68826a00985090051be642c9c36c85bb35ed40b64a157ff0430d2c29e15de178a42f9c2",
                    "indexes": {
                        "data": 0,
                        "gas": 0,
                        "value": 0
                    },
                    "state": {
                        "0xf3425708784a4eaaeef3489a622522ffca6a35d6": {
                            "nonce": "0x01",
                            "balance": "0x0de0b6b3a754bdc0",
                            "code": "0x",
                            "storage": {}
                        },
                        "0x0bfef2ca06613addd0aee32d68bcef1dcfecfab9": {
                            "nonce": "0x00",
                            "balance": "0x2e",
                            "code": "0x6000355415600957005b60203560003555",
                            "storage": {}
                        },
                        "0x0bfef2ca06613addd0aee32d68bcef1dcfecfbb9": {
                            "nonce": "0x00",
                            "balance": "0x00",
                            "code": "0x7ffffffffffffffffffffffffffffffffffffffffffffffffffffffffffffffffe7f0000000000000000000000000000000000000000000000000000000000000000557f00000000000000000000000000000000000000000000000000000000000000007f0000000000000000000000000000000000000000000000000000000000000000557f0000000000000000000000000bfef2ca06613addd0aee32d68bcef1dcfecfab90a84339188646595668352a061855560005155",
                            "storage": {}
                        }
                    }
                }
            ]
        },
        "config": {
            "blobSchedule": {
                "Cancun": {
                    "target": "0x03",
                    "max": "0x06",
                    "baseFeeUpdateFraction": "0x32f0ed"
                }
            },
            "chainid": "0x01"
        },
        "_info": {
            "hash": "0x4cc9e857920adf6d57c8b30c8274037f01888ccbfec2c347ffb6ddb574463b14",
            "comment": "`execution-spec-tests` generated test",
            "filling-transition-tool": "ethereum-spec-evm-resolver 0.0.5",
            "description": "No description available - add a docstring to the python test class or function.",
            "url": "",
            "fixture-format": "state_test",
            "eels-resolution": {
                "git-url": "https://github.com/marioevz/execution-specs.git",
                "branch": "forks/bpo1",
                "commit": "3387e5f4aedfe99becfdc39b444d6371e25e0924"
            }
        }
    },
    "tests/static/state_tests/stRandom2/randomStatetest454Filler.json::randomStatetest454[fork_Osaka-state_test-]": {
        "env": {
            "currentCoinbase": "0x0bfef2ca06613addd0aee32d68bcef1dcfecfab9",
            "currentGasLimit": "0x7fffffffffffffff",
            "currentNumber": "0x01",
            "currentTimestamp": "0x03e8",
            "currentRandom": "0x0000000000000000000000000000000000000000000000000000000000020000",
            "currentDifficulty": "0x00",
            "currentBaseFee": "0x0a",
            "currentExcessBlobGas": "0x00"
        },
        "pre": {
            "0xf3425708784a4eaaeef3489a622522ffca6a35d6": {
                "nonce": "0x00",
                "balance": "0x0de0b6b3a7640000",
                "code": "0x",
                "storage": {}
            },
            "0x0bfef2ca06613addd0aee32d68bcef1dcfecfab9": {
                "nonce": "0x00",
                "balance": "0x2e",
                "code": "0x6000355415600957005b60203560003555",
                "storage": {}
            },
            "0x0bfef2ca06613addd0aee32d68bcef1dcfecfbb9": {
                "nonce": "0x00",
                "balance": "0x00",
                "code": "0x7ffffffffffffffffffffffffffffffffffffffffffffffffffffffffffffffffe7f0000000000000000000000000000000000000000000000000000000000000000557f00000000000000000000000000000000000000000000000000000000000000007f0000000000000000000000000000000000000000000000000000000000000000557f0000000000000000000000000bfef2ca06613addd0aee32d68bcef1dcfecfab90a84339188646595668352a061855560005155",
                "storage": {}
            }
        },
        "transaction": {
            "nonce": "0x00",
            "gasPrice": "0x0a",
            "gasLimit": [
                "0x0186a0"
            ],
            "to": "0x0bfef2ca06613addd0aee32d68bcef1dcfecfbb9",
            "value": [
                "0x55500ee3"
            ],
            "data": [
                "0x7ffffffffffffffffffffffffffffffffffffffffffffffffffffffffffffffffe7f0000000000000000000000000000000000000000000000000000000000000000557f00000000000000000000000000000000000000000000000000000000000000007f0000000000000000000000000000000000000000000000000000000000000000557f0000000000000000000000000bfef2ca06613addd0aee32d68bcef1dcfecfab90a84339188646595668352a06185"
            ],
            "sender": "0xf3425708784a4eaaeef3489a622522ffca6a35d6",
            "secretKey": "0xd57fda48903892a5580df9950bfef2ca06613addd0aee32d68bcef1dcfecfab9"
        },
        "post": {
            "Osaka": [
                {
                    "hash": "0x1b083d4edc80557bfab6e85dcd70c5a86b06bf29056792cf89be4cdcc0f5d591",
                    "logs": "0x1dcc4de8dec75d7aab85b567b6ccd41ad312451b948a7413f0a142fd40d49347",
                    "txbytes": "0xf9011a800a830186a0940bfef2ca06613addd0aee32d68bcef1dcfecfbb98455500ee3b8b57ffffffffffffffffffffffffffffffffffffffffffffffffffffffffffffffffe7f0000000000000000000000000000000000000000000000000000000000000000557f00000000000000000000000000000000000000000000000000000000000000007f0000000000000000000000000000000000000000000000000000000000000000557f0000000000000000000000000bfef2ca06613addd0aee32d68bcef1dcfecfab90a84339188646595668352a0618525a0efd57b74ca52ec78256a6100c6c2c887f347597921c994cd9d24c1ad30b68826a00985090051be642c9c36c85bb35ed40b64a157ff0430d2c29e15de178a42f9c2",
                    "indexes": {
                        "data": 0,
                        "gas": 0,
                        "value": 0
                    },
                    "state": {
                        "0xf3425708784a4eaaeef3489a622522ffca6a35d6": {
                            "nonce": "0x01",
                            "balance": "0x0de0b6b3a754bdc0",
                            "code": "0x",
                            "storage": {}
                        },
                        "0x0bfef2ca06613addd0aee32d68bcef1dcfecfab9": {
                            "nonce": "0x00",
                            "balance": "0x2e",
                            "code": "0x6000355415600957005b60203560003555",
                            "storage": {}
                        },
                        "0x0bfef2ca06613addd0aee32d68bcef1dcfecfbb9": {
                            "nonce": "0x00",
                            "balance": "0x00",
                            "code": "0x7ffffffffffffffffffffffffffffffffffffffffffffffffffffffffffffffffe7f0000000000000000000000000000000000000000000000000000000000000000557f00000000000000000000000000000000000000000000000000000000000000007f0000000000000000000000000000000000000000000000000000000000000000557f0000000000000000000000000bfef2ca06613addd0aee32d68bcef1dcfecfab90a84339188646595668352a061855560005155",
                            "storage": {}
                        }
                    }
                }
            ]
        },
        "config": {
            "blobSchedule": {
                "Cancun": {
                    "target": "0x03",
                    "max": "0x06",
                    "baseFeeUpdateFraction": "0x32f0ed"
                },
                "Prague": {
                    "target": "0x06",
                    "max": "0x09",
                    "baseFeeUpdateFraction": "0x4c6964"
                },
                "Osaka": {
                    "target": "0x06",
                    "max": "0x09",
                    "baseFeeUpdateFraction": "0x4c6964"
                }
            },
            "chainid": "0x01"
        },
        "_info": {
            "hash": "0xb3b2d5f01700eb789eaf4833d376130420e74c4ad387653e717fa58873dfd366",
            "comment": "`execution-spec-tests` generated test",
            "filling-transition-tool": "ethereum-spec-evm-resolver 0.0.5",
            "description": "No description available - add a docstring to the python test class or function.",
            "url": "",
            "fixture-format": "state_test",
            "eels-resolution": {
                "git-url": "https://github.com/marioevz/execution-specs.git",
                "branch": "forks/bpo1",
                "commit": "3387e5f4aedfe99becfdc39b444d6371e25e0924"
            }
        }
    },
    "tests/static/state_tests/stRandom2/randomStatetest454Filler.json::randomStatetest454[fork_Prague-state_test-]": {
        "env": {
            "currentCoinbase": "0x0bfef2ca06613addd0aee32d68bcef1dcfecfab9",
            "currentGasLimit": "0x7fffffffffffffff",
            "currentNumber": "0x01",
            "currentTimestamp": "0x03e8",
            "currentRandom": "0x0000000000000000000000000000000000000000000000000000000000020000",
            "currentDifficulty": "0x00",
            "currentBaseFee": "0x0a",
            "currentExcessBlobGas": "0x00"
        },
        "pre": {
            "0xf3425708784a4eaaeef3489a622522ffca6a35d6": {
                "nonce": "0x00",
                "balance": "0x0de0b6b3a7640000",
                "code": "0x",
                "storage": {}
            },
            "0x0bfef2ca06613addd0aee32d68bcef1dcfecfab9": {
                "nonce": "0x00",
                "balance": "0x2e",
                "code": "0x6000355415600957005b60203560003555",
                "storage": {}
            },
            "0x0bfef2ca06613addd0aee32d68bcef1dcfecfbb9": {
                "nonce": "0x00",
                "balance": "0x00",
                "code": "0x7ffffffffffffffffffffffffffffffffffffffffffffffffffffffffffffffffe7f0000000000000000000000000000000000000000000000000000000000000000557f00000000000000000000000000000000000000000000000000000000000000007f0000000000000000000000000000000000000000000000000000000000000000557f0000000000000000000000000bfef2ca06613addd0aee32d68bcef1dcfecfab90a84339188646595668352a061855560005155",
                "storage": {}
            }
        },
        "transaction": {
            "nonce": "0x00",
            "gasPrice": "0x0a",
            "gasLimit": [
                "0x0186a0"
            ],
            "to": "0x0bfef2ca06613addd0aee32d68bcef1dcfecfbb9",
            "value": [
                "0x55500ee3"
            ],
            "data": [
                "0x7ffffffffffffffffffffffffffffffffffffffffffffffffffffffffffffffffe7f0000000000000000000000000000000000000000000000000000000000000000557f00000000000000000000000000000000000000000000000000000000000000007f0000000000000000000000000000000000000000000000000000000000000000557f0000000000000000000000000bfef2ca06613addd0aee32d68bcef1dcfecfab90a84339188646595668352a06185"
            ],
            "sender": "0xf3425708784a4eaaeef3489a622522ffca6a35d6",
            "secretKey": "0xd57fda48903892a5580df9950bfef2ca06613addd0aee32d68bcef1dcfecfab9"
        },
        "post": {
            "Prague": [
                {
                    "hash": "0x1b083d4edc80557bfab6e85dcd70c5a86b06bf29056792cf89be4cdcc0f5d591",
                    "logs": "0x1dcc4de8dec75d7aab85b567b6ccd41ad312451b948a7413f0a142fd40d49347",
                    "txbytes": "0xf9011a800a830186a0940bfef2ca06613addd0aee32d68bcef1dcfecfbb98455500ee3b8b57ffffffffffffffffffffffffffffffffffffffffffffffffffffffffffffffffe7f0000000000000000000000000000000000000000000000000000000000000000557f00000000000000000000000000000000000000000000000000000000000000007f0000000000000000000000000000000000000000000000000000000000000000557f0000000000000000000000000bfef2ca06613addd0aee32d68bcef1dcfecfab90a84339188646595668352a0618525a0efd57b74ca52ec78256a6100c6c2c887f347597921c994cd9d24c1ad30b68826a00985090051be642c9c36c85bb35ed40b64a157ff0430d2c29e15de178a42f9c2",
                    "indexes": {
                        "data": 0,
                        "gas": 0,
                        "value": 0
                    },
                    "state": {
                        "0xf3425708784a4eaaeef3489a622522ffca6a35d6": {
                            "nonce": "0x01",
                            "balance": "0x0de0b6b3a754bdc0",
                            "code": "0x",
                            "storage": {}
                        },
                        "0x0bfef2ca06613addd0aee32d68bcef1dcfecfab9": {
                            "nonce": "0x00",
                            "balance": "0x2e",
                            "code": "0x6000355415600957005b60203560003555",
                            "storage": {}
                        },
                        "0x0bfef2ca06613addd0aee32d68bcef1dcfecfbb9": {
                            "nonce": "0x00",
                            "balance": "0x00",
                            "code": "0x7ffffffffffffffffffffffffffffffffffffffffffffffffffffffffffffffffe7f0000000000000000000000000000000000000000000000000000000000000000557f00000000000000000000000000000000000000000000000000000000000000007f0000000000000000000000000000000000000000000000000000000000000000557f0000000000000000000000000bfef2ca06613addd0aee32d68bcef1dcfecfab90a84339188646595668352a061855560005155",
                            "storage": {}
                        }
                    }
                }
            ]
        },
        "config": {
            "blobSchedule": {
                "Cancun": {
                    "target": "0x03",
                    "max": "0x06",
                    "baseFeeUpdateFraction": "0x32f0ed"
                },
                "Prague": {
                    "target": "0x06",
                    "max": "0x09",
                    "baseFeeUpdateFraction": "0x4c6964"
                }
            },
            "chainid": "0x01"
        },
        "_info": {
            "hash": "0x46a881630567cadc89cc2c5896cb8f30a56ccab80f7fdb4cc09cd6149d0456cd",
            "comment": "`execution-spec-tests` generated test",
            "filling-transition-tool": "ethereum-spec-evm-resolver 0.0.5",
            "description": "No description available - add a docstring to the python test class or function.",
            "url": "",
            "fixture-format": "state_test",
            "eels-resolution": {
                "git-url": "https://github.com/marioevz/execution-specs.git",
                "branch": "forks/bpo1",
                "commit": "3387e5f4aedfe99becfdc39b444d6371e25e0924"
            }
        }
    }
}