{
    "tests/static/state_tests/stRandom2/randomStatetest405Filler.json::randomStatetest405[fork_Cancun-state_test-]": {
        "env": {
            "currentCoinbase": "0x5186688dcfa4d57cd2b90d6bdc3ae7974047433a",
            "currentGasLimit": "0x7fffffffffffffff",
            "currentNumber": "0x01",
            "currentTimestamp": "0x03e8",
            "currentRandom": "0x0000000000000000000000000000000000000000000000000000000000020000",
            "currentDifficulty": "0x00",
            "currentBaseFee": "0x0a",
            "currentExcessBlobGas": "0x00"
        },
        "pre": {
            "0x6ba27732881658efa2bfcbc96d30a7da7a2e002a": {
                "nonce": "0x00",
                "balance": "0x0de0b6b3a7640000",
                "code": "0x",
                "storage": {}
            },
            "0x5186688dcfa4d57cd2b90d6bdc3ae7974047433a": {
                "nonce": "0x00",
                "balance": "0x2e",
                "code": "0x6000355415600957005b60203560003555",
                "storage": {}
            },
            "0x5186688dcfa4d57cd2b90d6bdc3ae7974047443a": {
                "nonce": "0x00",
                "balance": "0x00",
                "code": "0x7fffffffffffffffffffffffffffffffffffffffffffffffffffffffffffffffff7fffffffffffffffffffffffffffffffffffffffffffffffffffffffffffffffff44457f0000000000000000000000010000000000000000000000000000000000000000037ffffffffffffffffffffffffffffffffffffffffffffffffffffffffffffffffe7fffffffffffffffffffffffffffffffffffffffffffffffffffffffffffffffff6f318d0707977199361171756f6d458e5560005155",
                "storage": {}
            }
        },
        "transaction": {
            "nonce": "0x00",
            "gasPrice": "0x0a",
            "gasLimit": [
                "0x0186a0"
            ],
            "to": "0x5186688dcfa4d57cd2b90d6bdc3ae7974047443a",
            "value": [
                "0x10596faf"
            ],
            "data": [
                "0x7fffffffffffffffffffffffffffffffffffffffffffffffffffffffffffffffff7fffffffffffffffffffffffffffffffffffffffffffffffffffffffffffffffff44457f0000000000000000000000010000000000000000000000000000000000000000037ffffffffffffffffffffffffffffffffffffffffffffffffffffffffffffffffe7fffffffffffffffffffffffffffffffffffffffffffffffffffffffffffffffff6f318d0707977199361171756f6d458e"
            ],
            "sender": "0x6ba27732881658efa2bfcbc96d30a7da7a2e002a",
            "secretKey": "0x03782c7884d9eb5c9fa276505186688dcfa4d57cd2b90d6bdc3ae7974047433a"
        },
        "post": {
            "Cancun": [
                {
                    "hash": "0xbe05eb56056bfd8c2d39832e288a727b7dfc2dcc7541952f7045f5c0187e21dd",
                    "logs": "0x1dcc4de8dec75d7aab85b567b6ccd41ad312451b948a7413f0a142fd40d49347",
                    "txbytes": "0xf9011d800a830186a0945186688dcfa4d57cd2b90d6bdc3ae7974047443a8410596fafb8b87fffffffffffffffffffffffffffffffffffffffffffffffffffffffffffffffff7fffffffffffffffffffffffffffffffffffffffffffffffffffffffffffffffff44457f0000000000000000000000010000000000000000000000000000000000000000037ffffffffffffffffffffffffffffffffffffffffffffffffffffffffffffffffe7fffffffffffffffffffffffffffffffffffffffffffffffffffffffffffffffff6f318d0707977199361171756f6d458e26a0b4d3bb1d5e4d0ef82a54d19ac10f18ec6cfc4846499e19bb8bcdb7b48d56723fa047d85e4ff0ded758a2f162897854c61088eb3b38a76f81c5232067ab5ff47769",
                    "indexes": {
                        "data": 0,
                        "gas": 0,
                        "value": 0
                    },
                    "state": {
                        "0x6ba27732881658efa2bfcbc96d30a7da7a2e002a": {
                            "nonce": "0x01",
                            "balance": "0x0de0b6b3970396ed",
                            "code": "0x",
                            "storage": {}
                        },
                        "0x5186688dcfa4d57cd2b90d6bdc3ae7974047433a": {
                            "nonce": "0x00",
                            "balance": "0x2e",
                            "code": "0x6000355415600957005b60203560003555",
                            "storage": {}
                        },
                        "0x5186688dcfa4d57cd2b90d6bdc3ae7974047443a": {
                            "nonce": "0x00",
                            "balance": "0x10596faf",
                            "code": "0x7fffffffffffffffffffffffffffffffffffffffffffffffffffffffffffffffff7fffffffffffffffffffffffffffffffffffffffffffffffffffffffffffffffff44457f0000000000000000000000010000000000000000000000000000000000000000037ffffffffffffffffffffffffffffffffffffffffffffffffffffffffffffffffe7fffffffffffffffffffffffffffffffffffffffffffffffffffffffffffffffff6f318d0707977199361171756f6d458e5560005155",
                            "storage": {
                                "0x00": "0x318d0707977199361171756f6d458e55"
                            }
                        }
                    }
                }
            ]
        },
        "config": {
            "blobSchedule": {
                "Cancun": {
                    "target": "0x03",
                    "max": "0x06",
                    "baseFeeUpdateFraction": "0x32f0ed"
                }
            },
            "chainid": "0x01"
        },
        "_info": {
            "hash": "0x32895566fcedf4eb2ace8cee39a2ced9d3a036251da7bbe6668efc0a9a0130d6",
            "comment": "`execution-spec-tests` generated test",
            "filling-transition-tool": "ethereum-spec-evm-resolver 0.0.5",
            "description": "No description available - add a docstring to the python test class or function.",
            "url": "",
            "fixture-format": "state_test",
            "eels-resolution": {
                "git-url": "https://github.com/marioevz/execution-specs.git",
                "branch": "forks/bpo1",
                "commit": "3387e5f4aedfe99becfdc39b444d6371e25e0924"
            }
        }
    },
    "tests/static/state_tests/stRandom2/randomStatetest405Filler.json::randomStatetest405[fork_Osaka-state_test-]": {
        "env": {
            "currentCoinbase": "0x5186688dcfa4d57cd2b90d6bdc3ae7974047433a",
            "currentGasLimit": "0x7fffffffffffffff",
            "currentNumber": "0x01",
            "currentTimestamp": "0x03e8",
            "currentRandom": "0x0000000000000000000000000000000000000000000000000000000000020000",
            "currentDifficulty": "0x00",
            "currentBaseFee": "0x0a",
            "currentExcessBlobGas": "0x00"
        },
        "pre": {
            "0x6ba27732881658efa2bfcbc96d30a7da7a2e002a": {
                "nonce": "0x00",
                "balance": "0x0de0b6b3a7640000",
                "code": "0x",
                "storage": {}
            },
            "0x5186688dcfa4d57cd2b90d6bdc3ae7974047433a": {
                "nonce": "0x00",
                "balance": "0x2e",
                "code": "0x6000355415600957005b60203560003555",
                "storage": {}
            },
            "0x5186688dcfa4d57cd2b90d6bdc3ae7974047443a": {
                "nonce": "0x00",
                "balance": "0x00",
                "code": "0x7fffffffffffffffffffffffffffffffffffffffffffffffffffffffffffffffff7fffffffffffffffffffffffffffffffffffffffffffffffffffffffffffffffff44457f0000000000000000000000010000000000000000000000000000000000000000037ffffffffffffffffffffffffffffffffffffffffffffffffffffffffffffffffe7fffffffffffffffffffffffffffffffffffffffffffffffffffffffffffffffff6f318d0707977199361171756f6d458e5560005155",
                "storage": {}
            }
        },
        "transaction": {
            "nonce": "0x00",
            "gasPrice": "0x0a",
            "gasLimit": [
                "0x0186a0"
            ],
            "to": "0x5186688dcfa4d57cd2b90d6bdc3ae7974047443a",
            "value": [
                "0x10596faf"
            ],
            "data": [
                "0x7fffffffffffffffffffffffffffffffffffffffffffffffffffffffffffffffff7fffffffffffffffffffffffffffffffffffffffffffffffffffffffffffffffff44457f0000000000000000000000010000000000000000000000000000000000000000037ffffffffffffffffffffffffffffffffffffffffffffffffffffffffffffffffe7fffffffffffffffffffffffffffffffffffffffffffffffffffffffffffffffff6f318d0707977199361171756f6d458e"
            ],
            "sender": "0x6ba27732881658efa2bfcbc96d30a7da7a2e002a",
            "secretKey": "0x03782c7884d9eb5c9fa276505186688dcfa4d57cd2b90d6bdc3ae7974047433a"
        },
        "post": {
            "Osaka": [
                {
                    "hash": "0xbe05eb56056bfd8c2d39832e288a727b7dfc2dcc7541952f7045f5c0187e21dd",
                    "logs": "0x1dcc4de8dec75d7aab85b567b6ccd41ad312451b948a7413f0a142fd40d49347",
                    "txbytes": "0xf9011d800a830186a0945186688dcfa4d57cd2b90d6bdc3ae7974047443a8410596fafb8b87fffffffffffffffffffffffffffffffffffffffffffffffffffffffffffffffff7fffffffffffffffffffffffffffffffffffffffffffffffffffffffffffffffff44457f0000000000000000000000010000000000000000000000000000000000000000037ffffffffffffffffffffffffffffffffffffffffffffffffffffffffffffffffe7fffffffffffffffffffffffffffffffffffffffffffffffffffffffffffffffff6f318d0707977199361171756f6d458e26a0b4d3bb1d5e4d0ef82a54d19ac10f18ec6cfc4846499e19bb8bcdb7b48d56723fa047d85e4ff0ded758a2f162897854c61088eb3b38a76f81c5232067ab5ff47769",
                    "indexes": {
                        "data": 0,
                        "gas": 0,
                        "value": 0
                    },
                    "state": {
                        "0x6ba27732881658efa2bfcbc96d30a7da7a2e002a": {
                            "nonce": "0x01",
                            "balance": "0x0de0b6b3970396ed",
                            "code": "0x",
                            "storage": {}
                        },
                        "0x5186688dcfa4d57cd2b90d6bdc3ae7974047433a": {
                            "nonce": "0x00",
                            "balance": "0x2e",
                            "code": "0x6000355415600957005b60203560003555",
                            "storage": {}
                        },
                        "0x5186688dcfa4d57cd2b90d6bdc3ae7974047443a": {
                            "nonce": "0x00",
                            "balance": "0x10596faf",
                            "code": "0x7fffffffffffffffffffffffffffffffffffffffffffffffffffffffffffffffff7fffffffffffffffffffffffffffffffffffffffffffffffffffffffffffffffff44457f0000000000000000000000010000000000000000000000000000000000000000037ffffffffffffffffffffffffffffffffffffffffffffffffffffffffffffffffe7fffffffffffffffffffffffffffffffffffffffffffffffffffffffffffffffff6f318d0707977199361171756f6d458e5560005155",
                            "storage": {
                                "0x00": "0x318d0707977199361171756f6d458e55"
                            }
                        }
                    }
                }
            ]
        },
        "config": {
            "blobSchedule": {
                "Cancun": {
                    "target": "0x03",
                    "max": "0x06",
                    "baseFeeUpdateFraction": "0x32f0ed"
                },
                "Prague": {
                    "target": "0x06",
                    "max": "0x09",
                    "baseFeeUpdateFraction": "0x4c6964"
                },
                "Osaka": {
                    "target": "0x06",
                    "max": "0x09",
                    "baseFeeUpdateFraction": "0x4c6964"
                }
            },
            "chainid": "0x01"
        },
        "_info": {
            "hash": "0x8b7943fbe7fadeede33975266a4ab336a9eccda1b184e8ff02adc78071b17e81",
            "comment": "`execution-spec-tests` generated test",
            "filling-transition-tool": "ethereum-spec-evm-resolver 0.0.5",
            "description": "No description available - add a docstring to the python test class or function.",
            "url": "",
            "fixture-format": "state_test",
            "eels-resolution": {
                "git-url": "https://github.com/marioevz/execution-specs.git",
                "branch": "forks/bpo1",
                "commit": "3387e5f4aedfe99becfdc39b444d6371e25e0924"
            }
        }
    },
    "tests/static/state_tests/stRandom2/randomStatetest405Filler.json::randomStatetest405[fork_Prague-state_test-]": {
        "env": {
            "currentCoinbase": "0x5186688dcfa4d57cd2b90d6bdc3ae7974047433a",
            "currentGasLimit": "0x7fffffffffffffff",
            "currentNumber": "0x01",
            "currentTimestamp": "0x03e8",
            "currentRandom": "0x0000000000000000000000000000000000000000000000000000000000020000",
            "currentDifficulty": "0x00",
            "currentBaseFee": "0x0a",
            "currentExcessBlobGas": "0x00"
        },
        "pre": {
            "0x6ba27732881658efa2bfcbc96d30a7da7a2e002a": {
                "nonce": "0x00",
                "balance": "0x0de0b6b3a7640000",
                "code": "0x",
                "storage": {}
            },
            "0x5186688dcfa4d57cd2b90d6bdc3ae7974047433a": {
                "nonce": "0x00",
                "balance": "0x2e",
                "code": "0x6000355415600957005b60203560003555",
                "storage": {}
            },
            "0x5186688dcfa4d57cd2b90d6bdc3ae7974047443a": {
                "nonce": "0x00",
                "balance": "0x00",
                "code": "0x7fffffffffffffffffffffffffffffffffffffffffffffffffffffffffffffffff7fffffffffffffffffffffffffffffffffffffffffffffffffffffffffffffffff44457f0000000000000000000000010000000000000000000000000000000000000000037ffffffffffffffffffffffffffffffffffffffffffffffffffffffffffffffffe7fffffffffffffffffffffffffffffffffffffffffffffffffffffffffffffffff6f318d0707977199361171756f6d458e5560005155",
                "storage": {}
            }
        },
        "transaction": {
            "nonce": "0x00",
            "gasPrice": "0x0a",
            "gasLimit": [
                "0x0186a0"
            ],
            "to": "0x5186688dcfa4d57cd2b90d6bdc3ae7974047443a",
            "value": [
                "0x10596faf"
            ],
            "data": [
                "0x7fffffffffffffffffffffffffffffffffffffffffffffffffffffffffffffffff7fffffffffffffffffffffffffffffffffffffffffffffffffffffffffffffffff44457f0000000000000000000000010000000000000000000000000000000000000000037ffffffffffffffffffffffffffffffffffffffffffffffffffffffffffffffffe7fffffffffffffffffffffffffffffffffffffffffffffffffffffffffffffffff6f318d0707977199361171756f6d458e"
            ],
            "sender": "0x6ba27732881658efa2bfcbc96d30a7da7a2e002a",
            "secretKey": "0x03782c7884d9eb5c9fa276505186688dcfa4d57cd2b90d6bdc3ae7974047433a"
        },
        "post": {
            "Prague": [
                {
                    "hash": "0xbe05eb56056bfd8c2d39832e288a727b7dfc2dcc7541952f7045f5c0187e21dd",
                    "logs": "0x1dcc4de8dec75d7aab85b567b6ccd41ad312451b948a7413f0a142fd40d49347",
                    "txbytes": "0xf9011d800a830186a0945186688dcfa4d57cd2b90d6bdc3ae7974047443a8410596fafb8b87fffffffffffffffffffffffffffffffffffffffffffffffffffffffffffffffff7fffffffffffffffffffffffffffffffffffffffffffffffffffffffffffffffff44457f0000000000000000000000010000000000000000000000000000000000000000037ffffffffffffffffffffffffffffffffffffffffffffffffffffffffffffffffe7fffffffffffffffffffffffffffffffffffffffffffffffffffffffffffffffff6f318d0707977199361171756f6d458e26a0b4d3bb1d5e4d0ef82a54d19ac10f18ec6cfc4846499e19bb8bcdb7b48d56723fa047d85e4ff0ded758a2f162897854c61088eb3b38a76f81c5232067ab5ff47769",
                    "indexes": {
                        "data": 0,
                        "gas": 0,
                        "value": 0
                    },
                    "state": {
                        "0x6ba27732881658efa2bfcbc96d30a7da7a2e002a": {
                            "nonce": "0x01",
                            "balance": "0x0de0b6b3970396ed",
                            "code": "0x",
                            "storage": {}
                        },
                        "0x5186688dcfa4d57cd2b90d6bdc3ae7974047433a": {
                            "nonce": "0x00",
                            "balance": "0x2e",
                            "code": "0x6000355415600957005b60203560003555",
                            "storage": {}
                        },
                        "0x5186688dcfa4d57cd2b90d6bdc3ae7974047443a": {
                            "nonce": "0x00",
                            "balance": "0x10596faf",
                            "code": "0x7fffffffffffffffffffffffffffffffffffffffffffffffffffffffffffffffff7fffffffffffffffffffffffffffffffffffffffffffffffffffffffffffffffff44457f0000000000000000000000010000000000000000000000000000000000000000037ffffffffffffffffffffffffffffffffffffffffffffffffffffffffffffffffe7fffffffffffffffffffffffffffffffffffffffffffffffffffffffffffffffff6f318d0707977199361171756f6d458e5560005155",
                            "storage": {
                                "0x00": "0x318d0707977199361171756f6d458e55"
                            }
                        }
                    }
                }
            ]
        },
        "config": {
            "blobSchedule": {
                "Cancun": {
                    "target": "0x03",
                    "max": "0x06",
                    "baseFeeUpdateFraction": "0x32f0ed"
                },
                "Prague": {
                    "target": "0x06",
                    "max": "0x09",
                    "baseFeeUpdateFraction": "0x4c6964"
                }
            },
            "chainid": "0x01"
        },
        "_info": {
            "hash": "0x9f2ff26ee042b0ccd2528e4b9a75cd51b2cfc3770448ec338bf366852fce20cf",
            "comment": "`execution-spec-tests` generated test",
            "filling-transition-tool": "ethereum-spec-evm-resolver 0.0.5",
            "description": "No description available - add a docstring to the python test class or function.",
            "url": "",
            "fixture-format": "state_test",
            "eels-resolution": {
                "git-url": "https://github.com/marioevz/execution-specs.git",
                "branch": "forks/bpo1",
                "commit": "3387e5f4aedfe99becfdc39b444d6371e25e0924"
            }
        }
    }
}