{
    "tests/static/state_tests/stRandom2/randomStatetest599Filler.json::randomStatetest599[fork_Cancun-state_test-]": {
        "env": {
            "currentCoinbase": "0x6ece1f54363d08d0ee997e7c8f947e2a0cf9c6b7",
            "currentGasLimit": "0x7fffffffffffffff",
            "currentNumber": "0x01",
            "currentTimestamp": "0x03e8",
            "currentRandom": "0x0000000000000000000000000000000000000000000000000000000000020000",
            "currentDifficulty": "0x00",
            "currentBaseFee": "0x0a",
            "currentExcessBlobGas": "0x00"
        },
        "pre": {
            "0x3b9a48f48e8f1fe62123e2d3d78234b6c7009bb1": {
                "nonce": "0x00",
                "balance": "0x0de0b6b3a7640000",
                "code": "0x",
                "storage": {}
            },
            "0x6ece1f54363d08d0ee997e7c8f947e2a0cf9c6b7": {
                "nonce": "0x00",
                "balance": "0x2e",
                "code": "0x6000355415600957005b60203560003555",
                "storage": {}
            },
            "0x6ece1f54363d08d0ee997e7c8f947e2a0cf9c7b7": {
                "nonce": "0x00",
                "balance": "0x00",
                "code": "0x7f00000000000000000000000000000000000000000000000000000000000000017ffffffffffffffffffffffffffffffffffffffffffffffffffffffffffffffffe7f0000000000000000000000006ece1f54363d08d0ee997e7c8f947e2a0cf9c6b77f00000000000000000000000000000000000000000000000000000000000000017ffffffffffffffffffffffffffffffffffffffffffffffffffffffffffffffffe7ffffffffffffffffffffffffffffffffffffffffffffffffffffffffffffffffe7f000000000000000000000000000000000000000000000000000000000000c3507fffffffffffffffffffffffffffffffffffffffffffffffffffffffffffffffff6f8d6c60440a44449372068a976a83825560005155",
                "storage": {}
            }
        },
        "transaction": {
            "nonce": "0x00",
            "gasPrice": "0x0a",
            "gasLimit": [
                "0x0186a0"
            ],
            "to": "0x6ece1f54363d08d0ee997e7c8f947e2a0cf9c7b7",
            "value": [
                "0x421144b6"
            ],
            "data": [
                "0x7f00000000000000000000000000000000000000000000000000000000000000017ffffffffffffffffffffffffffffffffffffffffffffffffffffffffffffffffe7f0000000000000000000000006ece1f54363d08d0ee997e7c8f947e2a0cf9c6b77f00000000000000000000000000000000000000000000000000000000000000017ffffffffffffffffffffffffffffffffffffffffffffffffffffffffffffffffe7ffffffffffffffffffffffffffffffffffffffffffffffffffffffffffffffffe7f000000000000000000000000000000000000000000000000000000000000c3507fffffffffffffffffffffffffffffffffffffffffffffffffffffffffffffffff6f8d6c60440a44449372068a976a8382"
            ],
            "sender": "0x3b9a48f48e8f1fe62123e2d3d78234b6c7009bb1",
            "secretKey": "0xd2498a01f1a4e9608ca267896ece1f54363d08d0ee997e7c8f947e2a0cf9c6b7"
        },
        "post": {
            "Cancun": [
                {
                    "hash": "0x60ab1dc1821f61893f5b89749bc9b4da8af49dfd3762e9a46f65b373080e2c18",
                    "logs": "0x1dcc4de8dec75d7aab85b567b6ccd41ad312451b948a7413f0a142fd40d49347",
                    "txbytes": "0xf9017e800a830186a0946ece1f54363d08d0ee997e7c8f947e2a0cf9c7b784421144b6b901187f00000000000000000000000000000000000000000000000000000000000000017ffffffffffffffffffffffffffffffffffffffffffffffffffffffffffffffffe7f0000000000000000000000006ece1f54363d08d0ee997e7c8f947e2a0cf9c6b77f00000000000000000000000000000000000000000000000000000000000000017ffffffffffffffffffffffffffffffffffffffffffffffffffffffffffffffffe7ffffffffffffffffffffffffffffffffffffffffffffffffffffffffffffffffe7f000000000000000000000000000000000000000000000000000000000000c3507fffffffffffffffffffffffffffffffffffffffffffffffffffffffffffffffff6f8d6c60440a44449372068a976a838226a080742f660985dbb7d703315fab5e4ea46fc2eb18a8b721f04c2a2743bfa44d64a02ef32cc8b43f7aeffc21d4f3fd757137c8cac0bebd5f8f125bb15113392b07f2",
                    "indexes": {
                        "data": 0,
                        "gas": 0,
                        "value": 0
                    },
                    "state": {
                        "0x3b9a48f48e8f1fe62123e2d3d78234b6c7009bb1": {
                            "nonce": "0x01",
                            "balance": "0x0de0b6b3654ba80a",
                            "code": "0x",
                            "storage": {}
                        },
                        "0x6ece1f54363d08d0ee997e7c8f947e2a0cf9c6b7": {
                            "nonce": "0x00",
                            "balance": "0x2e",
                            "code": "0x6000355415600957005b60203560003555",
                            "storage": {}
                        },
                        "0x6ece1f54363d08d0ee997e7c8f947e2a0cf9c7b7": {
                            "nonce": "0x00",
                            "balance": "0x421144b6",
                            "code": "0x7f00000000000000000000000000000000000000000000000000000000000000017ffffffffffffffffffffffffffffffffffffffffffffffffffffffffffffffffe7f0000000000000000000000006ece1f54363d08d0ee997e7c8f947e2a0cf9c6b77f00000000000000000000000000000000000000000000000000000000000000017ffffffffffffffffffffffffffffffffffffffffffffffffffffffffffffffffe7ffffffffffffffffffffffffffffffffffffffffffffffffffffffffffffffffe7f000000000000000000000000000000000000000000000000000000000000c3507fffffffffffffffffffffffffffffffffffffffffffffffffffffffffffffffff6f8d6c60440a44449372068a976a83825560005155",
                            "storage": {
                                "0x00": "0x8d6c60440a44449372068a976a838255"
                            }
                        }
                    }
                }
            ]
        },
        "config": {
            "blobSchedule": {
                "Cancun": {
                    "target": "0x03",
                    "max": "0x06",
                    "baseFeeUpdateFraction": "0x32f0ed"
                }
            },
            "chainid": "0x01"
        },
        "_info": {
            "hash": "0x8020c4a6047074f16d25c89e1a1834cbab9aa06f6da0bff8a73ee8cffc48dd4f",
            "comment": "`execution-specs` generated test",
            "filling-transition-tool": "2.18.0rc6",
            "description": "No description available - add a docstring to the python test class or function.",
            "url": "",
            "fixture-format": "state_test"
        }
    },
    "tests/static/state_tests/stRandom2/randomStatetest599Filler.json::randomStatetest599[fork_Osaka-state_test-]": {
        "env": {
            "currentCoinbase": "0x6ece1f54363d08d0ee997e7c8f947e2a0cf9c6b7",
            "currentGasLimit": "0x7fffffffffffffff",
            "currentNumber": "0x01",
            "currentTimestamp": "0x03e8",
            "currentRandom": "0x0000000000000000000000000000000000000000000000000000000000020000",
            "currentDifficulty": "0x00",
            "currentBaseFee": "0x0a",
            "currentExcessBlobGas": "0x00"
        },
        "pre": {
            "0x3b9a48f48e8f1fe62123e2d3d78234b6c7009bb1": {
                "nonce": "0x00",
                "balance": "0x0de0b6b3a7640000",
                "code": "0x",
                "storage": {}
            },
            "0x6ece1f54363d08d0ee997e7c8f947e2a0cf9c6b7": {
                "nonce": "0x00",
                "balance": "0x2e",
                "code": "0x6000355415600957005b60203560003555",
                "storage": {}
            },
            "0x6ece1f54363d08d0ee997e7c8f947e2a0cf9c7b7": {
                "nonce": "0x00",
                "balance": "0x00",
                "code": "0x7f00000000000000000000000000000000000000000000000000000000000000017ffffffffffffffffffffffffffffffffffffffffffffffffffffffffffffffffe7f0000000000000000000000006ece1f54363d08d0ee997e7c8f947e2a0cf9c6b77f00000000000000000000000000000000000000000000000000000000000000017ffffffffffffffffffffffffffffffffffffffffffffffffffffffffffffffffe7ffffffffffffffffffffffffffffffffffffffffffffffffffffffffffffffffe7f000000000000000000000000000000000000000000000000000000000000c3507fffffffffffffffffffffffffffffffffffffffffffffffffffffffffffffffff6f8d6c60440a44449372068a976a83825560005155",
                "storage": {}
            }
        },
        "transaction": {
            "nonce": "0x00",
            "gasPrice": "0x0a",
            "gasLimit": [
                "0x0186a0"
            ],
            "to": "0x6ece1f54363d08d0ee997e7c8f947e2a0cf9c7b7",
            "value": [
                "0x421144b6"
            ],
            "data": [
                "0x7f00000000000000000000000000000000000000000000000000000000000000017ffffffffffffffffffffffffffffffffffffffffffffffffffffffffffffffffe7f0000000000000000000000006ece1f54363d08d0ee997e7c8f947e2a0cf9c6b77f00000000000000000000000000000000000000000000000000000000000000017ffffffffffffffffffffffffffffffffffffffffffffffffffffffffffffffffe7ffffffffffffffffffffffffffffffffffffffffffffffffffffffffffffffffe7f000000000000000000000000000000000000000000000000000000000000c3507fffffffffffffffffffffffffffffffffffffffffffffffffffffffffffffffff6f8d6c60440a44449372068a976a8382"
            ],
            "sender": "0x3b9a48f48e8f1fe62123e2d3d78234b6c7009bb1",
            "secretKey": "0xd2498a01f1a4e9608ca267896ece1f54363d08d0ee997e7c8f947e2a0cf9c6b7"
        },
        "post": {
            "Osaka": [
                {
                    "hash": "0x60ab1dc1821f61893f5b89749bc9b4da8af49dfd3762e9a46f65b373080e2c18",
                    "logs": "0x1dcc4de8dec75d7aab85b567b6ccd41ad312451b948a7413f0a142fd40d49347",
                    "txbytes": "0xf9017e800a830186a0946ece1f54363d08d0ee997e7c8f947e2a0cf9c7b784421144b6b901187f00000000000000000000000000000000000000000000000000000000000000017ffffffffffffffffffffffffffffffffffffffffffffffffffffffffffffffffe7f0000000000000000000000006ece1f54363d08d0ee997e7c8f947e2a0cf9c6b77f00000000000000000000000000000000000000000000000000000000000000017ffffffffffffffffffffffffffffffffffffffffffffffffffffffffffffffffe7ffffffffffffffffffffffffffffffffffffffffffffffffffffffffffffffffe7f000000000000000000000000000000000000000000000000000000000000c3507fffffffffffffffffffffffffffffffffffffffffffffffffffffffffffffffff6f8d6c60440a44449372068a976a838226a080742f660985dbb7d703315fab5e4ea46fc2eb18a8b721f04c2a2743bfa44d64a02ef32cc8b43f7aeffc21d4f3fd757137c8cac0bebd5f8f125bb15113392b07f2",
                    "indexes": {
                        "data": 0,
                        "gas": 0,
                        "value": 0
                    },
                    "state": {
                        "0x3b9a48f48e8f1fe62123e2d3d78234b6c7009bb1": {
                            "nonce": "0x01",
                            "balance": "0x0de0b6b3654ba80a",
                            "code": "0x",
                            "storage": {}
                        },
                        "0x6ece1f54363d08d0ee997e7c8f947e2a0cf9c6b7": {
                            "nonce": "0x00",
                            "balance": "0x2e",
                            "code": "0x6000355415600957005b60203560003555",
                            "storage": {}
                        },
                        "0x6ece1f54363d08d0ee997e7c8f947e2a0cf9c7b7": {
                            "nonce": "0x00",
                            "balance": "0x421144b6",
                            "code": "0x7f00000000000000000000000000000000000000000000000000000000000000017ffffffffffffffffffffffffffffffffffffffffffffffffffffffffffffffffe7f0000000000000000000000006ece1f54363d08d0ee997e7c8f947e2a0cf9c6b77f00000000000000000000000000000000000000000000000000000000000000017ffffffffffffffffffffffffffffffffffffffffffffffffffffffffffffffffe7ffffffffffffffffffffffffffffffffffffffffffffffffffffffffffffffffe7f000000000000000000000000000000000000000000000000000000000000c3507fffffffffffffffffffffffffffffffffffffffffffffffffffffffffffffffff6f8d6c60440a44449372068a976a83825560005155",
                            "storage": {
                                "0x00": "0x8d6c60440a44449372068a976a838255"
                            }
                        }
                    }
                }
            ]
        },
        "config": {
            "blobSchedule": {
                "Cancun": {
                    "target": "0x03",
                    "max": "0x06",
                    "baseFeeUpdateFraction": "0x32f0ed"
                },
                "Prague": {
                    "target": "0x06",
                    "max": "0x09",
                    "baseFeeUpdateFraction": "0x4c6964"
                },
                "Osaka": {
                    "target": "0x06",
                    "max": "0x09",
                    "baseFeeUpdateFraction": "0x4c6964"
                }
            },
            "chainid": "0x01"
        },
        "_info": {
            "hash": "0x77e920bfbfd53be8a097a5e3fe536924e562d5f61ede2ceb2daca5c1dd8dc964",
            "comment": "`execution-specs` generated test",
            "filling-transition-tool": "2.18.0rc6",
            "description": "No description available - add a docstring to the python test class or function.",
            "url": "",
            "fixture-format": "state_test"
        }
    },
    "tests/static/state_tests/stRandom2/randomStatetest599Filler.json::randomStatetest599[fork_Prague-state_test-]": {
        "env": {
            "currentCoinbase": "0x6ece1f54363d08d0ee997e7c8f947e2a0cf9c6b7",
            "currentGasLimit": "0x7fffffffffffffff",
            "currentNumber": "0x01",
            "currentTimestamp": "0x03e8",
            "currentRandom": "0x0000000000000000000000000000000000000000000000000000000000020000",
            "currentDifficulty": "0x00",
            "currentBaseFee": "0x0a",
            "currentExcessBlobGas": "0x00"
        },
        "pre": {
            "0x3b9a48f48e8f1fe62123e2d3d78234b6c7009bb1": {
                "nonce": "0x00",
                "balance": "0x0de0b6b3a7640000",
                "code": "0x",
                "storage": {}
            },
            "0x6ece1f54363d08d0ee997e7c8f947e2a0cf9c6b7": {
                "nonce": "0x00",
                "balance": "0x2e",
                "code": "0x6000355415600957005b60203560003555",
                "storage": {}
            },
            "0x6ece1f54363d08d0ee997e7c8f947e2a0cf9c7b7": {
                "nonce": "0x00",
                "balance": "0x00",
                "code": "0x7f00000000000000000000000000000000000000000000000000000000000000017ffffffffffffffffffffffffffffffffffffffffffffffffffffffffffffffffe7f0000000000000000000000006ece1f54363d08d0ee997e7c8f947e2a0cf9c6b77f00000000000000000000000000000000000000000000000000000000000000017ffffffffffffffffffffffffffffffffffffffffffffffffffffffffffffffffe7ffffffffffffffffffffffffffffffffffffffffffffffffffffffffffffffffe7f000000000000000000000000000000000000000000000000000000000000c3507fffffffffffffffffffffffffffffffffffffffffffffffffffffffffffffffff6f8d6c60440a44449372068a976a83825560005155",
                "storage": {}
            }
        },
        "transaction": {
            "nonce": "0x00",
            "gasPrice": "0x0a",
            "gasLimit": [
                "0x0186a0"
            ],
            "to": "0x6ece1f54363d08d0ee997e7c8f947e2a0cf9c7b7",
            "value": [
                "0x421144b6"
            ],
            "data": [
                "0x7f00000000000000000000000000000000000000000000000000000000000000017ffffffffffffffffffffffffffffffffffffffffffffffffffffffffffffffffe7f0000000000000000000000006ece1f54363d08d0ee997e7c8f947e2a0cf9c6b77f00000000000000000000000000000000000000000000000000000000000000017ffffffffffffffffffffffffffffffffffffffffffffffffffffffffffffffffe7ffffffffffffffffffffffffffffffffffffffffffffffffffffffffffffffffe7f000000000000000000000000000000000000000000000000000000000000c3507fffffffffffffffffffffffffffffffffffffffffffffffffffffffffffffffff6f8d6c60440a44449372068a976a8382"
            ],
            "sender": "0x3b9a48f48e8f1fe62123e2d3d78234b6c7009bb1",
            "secretKey": "0xd2498a01f1a4e9608ca267896ece1f54363d08d0ee997e7c8f947e2a0cf9c6b7"
        },
        "post": {
            "Prague": [
                {
                    "hash": "0x60ab1dc1821f61893f5b89749bc9b4da8af49dfd3762e9a46f65b373080e2c18",
                    "logs": "0x1dcc4de8dec75d7aab85b567b6ccd41ad312451b948a7413f0a142fd40d49347",
                    "txbytes": "0xf9017e800a830186a0946ece1f54363d08d0ee997e7c8f947e2a0cf9c7b784421144b6b901187f00000000000000000000000000000000000000000000000000000000000000017ffffffffffffffffffffffffffffffffffffffffffffffffffffffffffffffffe7f0000000000000000000000006ece1f54363d08d0ee997e7c8f947e2a0cf9c6b77f00000000000000000000000000000000000000000000000000000000000000017ffffffffffffffffffffffffffffffffffffffffffffffffffffffffffffffffe7ffffffffffffffffffffffffffffffffffffffffffffffffffffffffffffffffe7f000000000000000000000000000000000000000000000000000000000000c3507fffffffffffffffffffffffffffffffffffffffffffffffffffffffffffffffff6f8d6c60440a44449372068a976a838226a080742f660985dbb7d703315fab5e4ea46fc2eb18a8b721f04c2a2743bfa44d64a02ef32cc8b43f7aeffc21d4f3fd757137c8cac0bebd5f8f125bb15113392b07f2",
                    "indexes": {
                        "data": 0,
                        "gas": 0,
                        "value": 0
                    },
                    "state": {
                        "0x3b9a48f48e8f1fe62123e2d3d78234b6c7009bb1": {
                            "nonce": "0x01",
                            "balance": "0x0de0b6b3654ba80a",
                            "code": "0x",
                            "storage": {}
                        },
                        "0x6ece1f54363d08d0ee997e7c8f947e2a0cf9c6b7": {
                            "nonce": "0x00",
                            "balance": "0x2e",
                            "code": "0x6000355415600957005b60203560003555",
                            "storage": {}
                        },
                        "0x6ece1f54363d08d0ee997e7c8f947e2a0cf9c7b7": {
                            "nonce": "0x00",
                            "balance": "0x421144b6",
                            "code": "0x7f00000000000000000000000000000000000000000000000000000000000000017ffffffffffffffffffffffffffffffffffffffffffffffffffffffffffffffffe7f0000000000000000000000006ece1f54363d08d0ee997e7c8f947e2a0cf9c6b77f00000000000000000000000000000000000000000000000000000000000000017ffffffffffffffffffffffffffffffffffffffffffffffffffffffffffffffffe7ffffffffffffffffffffffffffffffffffffffffffffffffffffffffffffffffe7f000000000000000000000000000000000000000000000000000000000000c3507fffffffffffffffffffffffffffffffffffffffffffffffffffffffffffffffff6f8d6c60440a44449372068a976a83825560005155",
                            "storage": {
                                "0x00": "0x8d6c60440a44449372068a976a838255"
                            }
                        }
                    }
                }
            ]
        },
        "config": {
            "blobSchedule": {
                "Cancun": {
                    "target": "0x03",
                    "max": "0x06",
                    "baseFeeUpdateFraction": "0x32f0ed"
                },
                "Prague": {
                    "target": "0x06",
                    "max": "0x09",
                    "baseFeeUpdateFraction": "0x4c6964"
                }
            },
            "chainid": "0x01"
        },
        "_info": {
            "hash": "0x652e58f9339cee022dde88145734dcaf97632699379565e13c7f41e032ddf9e1",
            "comment": "`execution-specs` generated test",
            "filling-transition-tool": "2.18.0rc6",
            "description": "No description available - add a docstring to the python test class or function.",
            "url": "",
            "fixture-format": "state_test"
        }
    }
}