{
    "tests/static/state_tests/stRandom2/randomStatetest511Filler.json::randomStatetest511[fork_Cancun-state_test-]": {
        "env": {
            "currentCoinbase": "0x2233d304684863ee01acca5a4a7ab795e02c318c",
            "currentGasLimit": "0x7fffffffffffffff",
            "currentNumber": "0x01",
            "currentTimestamp": "0x03e8",
            "currentRandom": "0x0000000000000000000000000000000000000000000000000000000000020000",
            "currentDifficulty": "0x00",
            "currentBaseFee": "0x0a",
            "currentExcessBlobGas": "0x00"
        },
        "pre": {
            "0xd927e71eac91c6782b2fe4a141a54f89cdddb67a": {
                "nonce": "0x00",
                "balance": "0x0de0b6b3a7640000",
                "code": "0x",
                "storage": {}
            },
            "0x2233d304684863ee01acca5a4a7ab795e02c318c": {
                "nonce": "0x00",
                "balance": "0x2e",
                "code": "0x6000355415600957005b60203560003555",
                "storage": {}
            },
            "0x2233d304684863ee01acca5a4a7ab795e02c328c": {
                "nonce": "0x00",
                "balance": "0x00",
                "code": "0x7f000000000000000000000000000000000000000000000000000000000000c3507f0000000000000000000000002233d304684863ee01acca5a4a7ab795e02c318c7f00000000000000000000000000000000000000000000000000000000000000007f000000000000000000000000000000000000000000000000000000000000c3507ffffffffffffffffffffffffffffffffffffffffffffffffffffffffffffffffe7f000000000000000000000000ffffffffffffffffffffffffffffffffffffffff416f6a52027f41f267453843630a6644414560005155",
                "storage": {}
            }
        },
        "transaction": {
            "nonce": "0x00",
            "gasPrice": "0x0a",
            "gasLimit": [
                "0x0186a0"
            ],
            "to": "0x2233d304684863ee01acca5a4a7ab795e02c328c",
            "value": [
                "0x1b89a723"
            ],
            "data": [
                "0x7f000000000000000000000000000000000000000000000000000000000000c3507f0000000000000000000000002233d304684863ee01acca5a4a7ab795e02c318c7f00000000000000000000000000000000000000000000000000000000000000007f000000000000000000000000000000000000000000000000000000000000c3507ffffffffffffffffffffffffffffffffffffffffffffffffffffffffffffffffe7f000000000000000000000000ffffffffffffffffffffffffffffffffffffffff416f6a52027f41f267453843630a66444145"
            ],
            "sender": "0xd927e71eac91c6782b2fe4a141a54f89cdddb67a",
            "secretKey": "0x9ee44f232f405e6d7d5e017b2233d304684863ee01acca5a4a7ab795e02c318c"
        },
        "post": {
            "Cancun": [
                {
                    "hash": "0x0b559c3f7d44851d5c5dee697a97da432a643fd93ff3b3d53bcb680a07881d73",
                    "logs": "0x1dcc4de8dec75d7aab85b567b6ccd41ad312451b948a7413f0a142fd40d49347",
                    "txbytes": "0xf9013d800a830186a0942233d304684863ee01acca5a4a7ab795e02c328c841b89a723b8d87f000000000000000000000000000000000000000000000000000000000000c3507f0000000000000000000000002233d304684863ee01acca5a4a7ab795e02c318c7f00000000000000000000000000000000000000000000000000000000000000007f000000000000000000000000000000000000000000000000000000000000c3507ffffffffffffffffffffffffffffffffffffffffffffffffffffffffffffffffe7f000000000000000000000000ffffffffffffffffffffffffffffffffffffffff416f6a52027f41f267453843630a6644414526a0751c70bfb7b8814ebf1d8beeadbb63dedc2ad68cbc573465ac07ac432367b0dca054444032b1696021dccdf67ecaf5e2bae0084d6a71d45e849352a52fcf4d33b0",
                    "indexes": {
                        "data": 0,
                        "gas": 0,
                        "value": 0
                    },
                    "state": {
                        "0xd927e71eac91c6782b2fe4a141a54f89cdddb67a": {
                            "nonce": "0x01",
                            "balance": "0x0de0b6b38bd37365",
                            "code": "0x",
                            "storage": {}
                        },
                        "0x2233d304684863ee01acca5a4a7ab795e02c318c": {
                            "nonce": "0x00",
                            "balance": "0x2e",
                            "code": "0x6000355415600957005b60203560003555",
                            "storage": {}
                        },
                        "0x2233d304684863ee01acca5a4a7ab795e02c328c": {
                            "nonce": "0x00",
                            "balance": "0x1b89a723",
                            "code": "0x7f000000000000000000000000000000000000000000000000000000000000c3507f0000000000000000000000002233d304684863ee01acca5a4a7ab795e02c318c7f00000000000000000000000000000000000000000000000000000000000000007f000000000000000000000000000000000000000000000000000000000000c3507ffffffffffffffffffffffffffffffffffffffffffffffffffffffffffffffffe7f000000000000000000000000ffffffffffffffffffffffffffffffffffffffff416f6a52027f41f267453843630a6644414560005155",
                            "storage": {
                                "0x00": "0x6a52027f41f267453843630a66444145"
                            }
                        }
                    }
                }
            ]
        },
        "config": {
            "blobSchedule": {
                "Cancun": {
                    "target": "0x03",
                    "max": "0x06",
                    "baseFeeUpdateFraction": "0x32f0ed"
                }
            },
            "chainid": "0x01"
        },
        "_info": {
            "hash": "0x25b383d6deeac336a6c7ed47b5457065ea55a01c8715e3d73432997c2f6c61af",
            "comment": "`execution-spec-tests` generated test",
            "filling-transition-tool": "ethereum-spec-evm-resolver 0.0.5",
            "description": "No description available - add a docstring to the python test class or function.",
            "url": "",
            "fixture-format": "state_test",
            "eels-resolution": {
                "git-url": "https://github.com/ethereum/execution-specs.git",
                "branch": "forks/bpos",
                "commit": "7aacb2c54111391af5e98c505d5010b5698a770f"
            }
        }
    },
    "tests/static/state_tests/stRandom2/randomStatetest511Filler.json::randomStatetest511[fork_Osaka-state_test-]": {
        "env": {
            "currentCoinbase": "0x2233d304684863ee01acca5a4a7ab795e02c318c",
            "currentGasLimit": "0x7fffffffffffffff",
            "currentNumber": "0x01",
            "currentTimestamp": "0x03e8",
            "currentRandom": "0x0000000000000000000000000000000000000000000000000000000000020000",
            "currentDifficulty": "0x00",
            "currentBaseFee": "0x0a",
            "currentExcessBlobGas": "0x00"
        },
        "pre": {
            "0xd927e71eac91c6782b2fe4a141a54f89cdddb67a": {
                "nonce": "0x00",
                "balance": "0x0de0b6b3a7640000",
                "code": "0x",
                "storage": {}
            },
            "0x2233d304684863ee01acca5a4a7ab795e02c318c": {
                "nonce": "0x00",
                "balance": "0x2e",
                "code": "0x6000355415600957005b60203560003555",
                "storage": {}
            },
            "0x2233d304684863ee01acca5a4a7ab795e02c328c": {
                "nonce": "0x00",
                "balance": "0x00",
                "code": "0x7f000000000000000000000000000000000000000000000000000000000000c3507f0000000000000000000000002233d304684863ee01acca5a4a7ab795e02c318c7f00000000000000000000000000000000000000000000000000000000000000007f000000000000000000000000000000000000000000000000000000000000c3507ffffffffffffffffffffffffffffffffffffffffffffffffffffffffffffffffe7f000000000000000000000000ffffffffffffffffffffffffffffffffffffffff416f6a52027f41f267453843630a6644414560005155",
                "storage": {}
            }
        },
        "transaction": {
            "nonce": "0x00",
            "gasPrice": "0x0a",
            "gasLimit": [
                "0x0186a0"
            ],
            "to": "0x2233d304684863ee01acca5a4a7ab795e02c328c",
            "value": [
                "0x1b89a723"
            ],
            "data": [
                "0x7f000000000000000000000000000000000000000000000000000000000000c3507f0000000000000000000000002233d304684863ee01acca5a4a7ab795e02c318c7f00000000000000000000000000000000000000000000000000000000000000007f000000000000000000000000000000000000000000000000000000000000c3507ffffffffffffffffffffffffffffffffffffffffffffffffffffffffffffffffe7f000000000000000000000000ffffffffffffffffffffffffffffffffffffffff416f6a52027f41f267453843630a66444145"
            ],
            "sender": "0xd927e71eac91c6782b2fe4a141a54f89cdddb67a",
            "secretKey": "0x9ee44f232f405e6d7d5e017b2233d304684863ee01acca5a4a7ab795e02c318c"
        },
        "post": {
            "Osaka": [
                {
                    "hash": "0x0b559c3f7d44851d5c5dee697a97da432a643fd93ff3b3d53bcb680a07881d73",
                    "logs": "0x1dcc4de8dec75d7aab85b567b6ccd41ad312451b948a7413f0a142fd40d49347",
                    "txbytes": "0xf9013d800a830186a0942233d304684863ee01acca5a4a7ab795e02c328c841b89a723b8d87f000000000000000000000000000000000000000000000000000000000000c3507f0000000000000000000000002233d304684863ee01acca5a4a7ab795e02c318c7f00000000000000000000000000000000000000000000000000000000000000007f000000000000000000000000000000000000000000000000000000000000c3507ffffffffffffffffffffffffffffffffffffffffffffffffffffffffffffffffe7f000000000000000000000000ffffffffffffffffffffffffffffffffffffffff416f6a52027f41f267453843630a6644414526a0751c70bfb7b8814ebf1d8beeadbb63dedc2ad68cbc573465ac07ac432367b0dca054444032b1696021dccdf67ecaf5e2bae0084d6a71d45e849352a52fcf4d33b0",
                    "indexes": {
                        "data": 0,
                        "gas": 0,
                        "value": 0
                    },
                    "state": {
                        "0xd927e71eac91c6782b2fe4a141a54f89cdddb67a": {
                            "nonce": "0x01",
                            "balance": "0x0de0b6b38bd37365",
                            "code": "0x",
                            "storage": {}
                        },
                        "0x2233d304684863ee01acca5a4a7ab795e02c318c": {
                            "nonce": "0x00",
                            "balance": "0x2e",
                            "code": "0x6000355415600957005b60203560003555",
                            "storage": {}
                        },
                        "0x2233d304684863ee01acca5a4a7ab795e02c328c": {
                            "nonce": "0x00",
                            "balance": "0x1b89a723",
                            "code": "0x7f000000000000000000000000000000000000000000000000000000000000c3507f0000000000000000000000002233d304684863ee01acca5a4a7ab795e02c318c7f00000000000000000000000000000000000000000000000000000000000000007f000000000000000000000000000000000000000000000000000000000000c3507ffffffffffffffffffffffffffffffffffffffffffffffffffffffffffffffffe7f000000000000000000000000ffffffffffffffffffffffffffffffffffffffff416f6a52027f41f267453843630a6644414560005155",
                            "storage": {
                                "0x00": "0x6a52027f41f267453843630a66444145"
                            }
                        }
                    }
                }
            ]
        },
        "config": {
            "blobSchedule": {
                "Cancun": {
                    "target": "0x03",
                    "max": "0x06",
                    "baseFeeUpdateFraction": "0x32f0ed"
                },
                "Prague": {
                    "target": "0x06",
                    "max": "0x09",
                    "baseFeeUpdateFraction": "0x4c6964"
                },
                "Osaka": {
                    "target": "0x06",
                    "max": "0x09",
                    "baseFeeUpdateFraction": "0x4c6964"
                }
            },
            "chainid": "0x01"
        },
        "_info": {
            "hash": "0x879344b11f9451c946c2afef8409f7be3e664b0e9aa5decb6ce095e6ed052444",
            "comment": "`execution-spec-tests` generated test",
            "filling-transition-tool": "ethereum-spec-evm-resolver 0.0.5",
            "description": "No description available - add a docstring to the python test class or function.",
            "url": "",
            "fixture-format": "state_test",
            "eels-resolution": {
                "git-url": "https://github.com/ethereum/execution-specs.git",
                "branch": "forks/bpos",
                "commit": "7aacb2c54111391af5e98c505d5010b5698a770f"
            }
        }
    },
    "tests/static/state_tests/stRandom2/randomStatetest511Filler.json::randomStatetest511[fork_Prague-state_test-]": {
        "env": {
            "currentCoinbase": "0x2233d304684863ee01acca5a4a7ab795e02c318c",
            "currentGasLimit": "0x7fffffffffffffff",
            "currentNumber": "0x01",
            "currentTimestamp": "0x03e8",
            "currentRandom": "0x0000000000000000000000000000000000000000000000000000000000020000",
            "currentDifficulty": "0x00",
            "currentBaseFee": "0x0a",
            "currentExcessBlobGas": "0x00"
        },
        "pre": {
            "0xd927e71eac91c6782b2fe4a141a54f89cdddb67a": {
                "nonce": "0x00",
                "balance": "0x0de0b6b3a7640000",
                "code": "0x",
                "storage": {}
            },
            "0x2233d304684863ee01acca5a4a7ab795e02c318c": {
                "nonce": "0x00",
                "balance": "0x2e",
                "code": "0x6000355415600957005b60203560003555",
                "storage": {}
            },
            "0x2233d304684863ee01acca5a4a7ab795e02c328c": {
                "nonce": "0x00",
                "balance": "0x00",
                "code": "0x7f000000000000000000000000000000000000000000000000000000000000c3507f0000000000000000000000002233d304684863ee01acca5a4a7ab795e02c318c7f00000000000000000000000000000000000000000000000000000000000000007f000000000000000000000000000000000000000000000000000000000000c3507ffffffffffffffffffffffffffffffffffffffffffffffffffffffffffffffffe7f000000000000000000000000ffffffffffffffffffffffffffffffffffffffff416f6a52027f41f267453843630a6644414560005155",
                "storage": {}
            }
        },
        "transaction": {
            "nonce": "0x00",
            "gasPrice": "0x0a",
            "gasLimit": [
                "0x0186a0"
            ],
            "to": "0x2233d304684863ee01acca5a4a7ab795e02c328c",
            "value": [
                "0x1b89a723"
            ],
            "data": [
                "0x7f000000000000000000000000000000000000000000000000000000000000c3507f0000000000000000000000002233d304684863ee01acca5a4a7ab795e02c318c7f00000000000000000000000000000000000000000000000000000000000000007f000000000000000000000000000000000000000000000000000000000000c3507ffffffffffffffffffffffffffffffffffffffffffffffffffffffffffffffffe7f000000000000000000000000ffffffffffffffffffffffffffffffffffffffff416f6a52027f41f267453843630a66444145"
            ],
            "sender": "0xd927e71eac91c6782b2fe4a141a54f89cdddb67a",
            "secretKey": "0x9ee44f232f405e6d7d5e017b2233d304684863ee01acca5a4a7ab795e02c318c"
        },
        "post": {
            "Prague": [
                {
                    "hash": "0x0b559c3f7d44851d5c5dee697a97da432a643fd93ff3b3d53bcb680a07881d73",
                    "logs": "0x1dcc4de8dec75d7aab85b567b6ccd41ad312451b948a7413f0a142fd40d49347",
                    "txbytes": "0xf9013d800a830186a0942233d304684863ee01acca5a4a7ab795e02c328c841b89a723b8d87f000000000000000000000000000000000000000000000000000000000000c3507f0000000000000000000000002233d304684863ee01acca5a4a7ab795e02c318c7f00000000000000000000000000000000000000000000000000000000000000007f000000000000000000000000000000000000000000000000000000000000c3507ffffffffffffffffffffffffffffffffffffffffffffffffffffffffffffffffe7f000000000000000000000000ffffffffffffffffffffffffffffffffffffffff416f6a52027f41f267453843630a6644414526a0751c70bfb7b8814ebf1d8beeadbb63dedc2ad68cbc573465ac07ac432367b0dca054444032b1696021dccdf67ecaf5e2bae0084d6a71d45e849352a52fcf4d33b0",
                    "indexes": {
                        "data": 0,
                        "gas": 0,
                        "value": 0
                    },
                    "state": {
                        "0xd927e71eac91c6782b2fe4a141a54f89cdddb67a": {
                            "nonce": "0x01",
                            "balance": "0x0de0b6b38bd37365",
                            "code": "0x",
                            "storage": {}
                        },
                        "0x2233d304684863ee01acca5a4a7ab795e02c318c": {
                            "nonce": "0x00",
                            "balance": "0x2e",
                            "code": "0x6000355415600957005b60203560003555",
                            "storage": {}
                        },
                        "0x2233d304684863ee01acca5a4a7ab795e02c328c": {
                            "nonce": "0x00",
                            "balance": "0x1b89a723",
                            "code": "0x7f000000000000000000000000000000000000000000000000000000000000c3507f0000000000000000000000002233d304684863ee01acca5a4a7ab795e02c318c7f00000000000000000000000000000000000000000000000000000000000000007f000000000000000000000000000000000000000000000000000000000000c3507ffffffffffffffffffffffffffffffffffffffffffffffffffffffffffffffffe7f000000000000000000000000ffffffffffffffffffffffffffffffffffffffff416f6a52027f41f267453843630a6644414560005155",
                            "storage": {
                                "0x00": "0x6a52027f41f267453843630a66444145"
                            }
                        }
                    }
                }
            ]
        },
        "config": {
            "blobSchedule": {
                "Cancun": {
                    "target": "0x03",
                    "max": "0x06",
                    "baseFeeUpdateFraction": "0x32f0ed"
                },
                "Prague": {
                    "target": "0x06",
                    "max": "0x09",
                    "baseFeeUpdateFraction": "0x4c6964"
                }
            },
            "chainid": "0x01"
        },
        "_info": {
            "hash": "0xc7df0f15544502ab672476fceb8ed6dd50ba2e45488f565773000baebb31d48d",
            "comment": "`execution-spec-tests` generated test",
            "filling-transition-tool": "ethereum-spec-evm-resolver 0.0.5",
            "description": "No description available - add a docstring to the python test class or function.",
            "url": "",
            "fixture-format": "state_test",
            "eels-resolution": {
                "git-url": "https://github.com/ethereum/execution-specs.git",
                "branch": "forks/bpos",
                "commit": "7aacb2c54111391af5e98c505d5010b5698a770f"
            }
        }
    }
}