{
    "tests/static/state_tests/stRandom2/randomStatetest608Filler.json::randomStatetest608[fork_Cancun-state_test-]": {
        "env": {
            "currentCoinbase": "0x90496aaf23330b2122afb4e7e4b80f23cda6e789",
            "currentGasLimit": "0x7fffffffffffffff",
            "currentNumber": "0x01",
            "currentTimestamp": "0x03e8",
            "currentRandom": "0x0000000000000000000000000000000000000000000000000000000000020000",
            "currentDifficulty": "0x00",
            "currentBaseFee": "0x0a",
            "currentExcessBlobGas": "0x00"
        },
        "pre": {
            "0xf1612bab600dbf18a0caaa36d55f52e52f07a74b": {
                "nonce": "0x00",
                "balance": "0x0de0b6b3a7640000",
                "code": "0x",
                "storage": {}
            },
            "0x90496aaf23330b2122afb4e7e4b80f23cda6e789": {
                "nonce": "0x00",
                "balance": "0x2e",
                "code": "0x6000355415600957005b60203560003555",
                "storage": {}
            },
            "0x90496aaf23330b2122afb4e7e4b80f23cda6e889": {
                "nonce": "0x00",
                "balance": "0x00",
                "code": "0x7fffffffffffffffffffffffffffffffffffffffffffffffffffffffffffffffff7f00000000000000000000000000000000000000000000000000000000000000017f000000000000000000000000000000000000000000000000000000000000c350537fffffffffffffffffffffffffffffffffffffffffffffffffffffffffffffffff7fffffffffffffffffffffffffffffffffffffffffffffffffffffffffffffffff7ffffffffffffffffffffffffffffffffffffffffffffffffffffffffffffffffe0855",
                "storage": {}
            }
        },
        "transaction": {
            "nonce": "0x00",
            "gasPrice": "0x0a",
            "gasLimit": [
                "0x0186a0"
            ],
            "to": "0x90496aaf23330b2122afb4e7e4b80f23cda6e889",
            "value": [
                "0x1eb2352a"
            ],
            "data": [
                "0x7fffffffffffffffffffffffffffffffffffffffffffffffffffffffffffffffff7f00000000000000000000000000000000000000000000000000000000000000017f000000000000000000000000000000000000000000000000000000000000c350537fffffffffffffffffffffffffffffffffffffffffffffffffffffffffffffffff7fffffffffffffffffffffffffffffffffffffffffffffffffffffffffffffffff7ffffffffffffffffffffffffffffffffffffffffffffffffffffffffffffffffe08"
            ],
            "sender": "0xf1612bab600dbf18a0caaa36d55f52e52f07a74b",
            "secretKey": "0x6f2f2f50bf18c99f60f5045490496aaf23330b2122afb4e7e4b80f23cda6e789"
        },
        "post": {
            "Cancun": [
                {
                    "hash": "0xc98fb453ef4f5ee1fa942e3f82840fec8d1b82d4c582189a9858e107a94a4eb0",
                    "logs": "0x1dcc4de8dec75d7aab85b567b6ccd41ad312451b948a7413f0a142fd40d49347",
                    "txbytes": "0xf9012d800a830186a09490496aaf23330b2122afb4e7e4b80f23cda6e889841eb2352ab8c87fffffffffffffffffffffffffffffffffffffffffffffffffffffffffffffffff7f00000000000000000000000000000000000000000000000000000000000000017f000000000000000000000000000000000000000000000000000000000000c350537fffffffffffffffffffffffffffffffffffffffffffffffffffffffffffffffff7fffffffffffffffffffffffffffffffffffffffffffffffffffffffffffffffff7ffffffffffffffffffffffffffffffffffffffffffffffffffffffffffffffffe0825a09d77265048bdda24442c0122637d093f00c98bb7dc24222e886f9fd16db477d5a0645b6b76d5128c43c3ad76c582f6231190bd1b0fbb046a101e2347c2afbfce02",
                    "indexes": {
                        "data": 0,
                        "gas": 0,
                        "value": 0
                    },
                    "state": {
                        "0xf1612bab600dbf18a0caaa36d55f52e52f07a74b": {
                            "nonce": "0x01",
                            "balance": "0x0de0b6b388a9642c",
                            "code": "0x",
                            "storage": {}
                        },
                        "0x90496aaf23330b2122afb4e7e4b80f23cda6e789": {
                            "nonce": "0x00",
                            "balance": "0x2e",
                            "code": "0x6000355415600957005b60203560003555",
                            "storage": {}
                        },
                        "0x90496aaf23330b2122afb4e7e4b80f23cda6e889": {
                            "nonce": "0x00",
                            "balance": "0x1eb2352a",
                            "code": "0x7fffffffffffffffffffffffffffffffffffffffffffffffffffffffffffffffff7f00000000000000000000000000000000000000000000000000000000000000017f000000000000000000000000000000000000000000000000000000000000c350537fffffffffffffffffffffffffffffffffffffffffffffffffffffffffffffffff7fffffffffffffffffffffffffffffffffffffffffffffffffffffffffffffffff7ffffffffffffffffffffffffffffffffffffffffffffffffffffffffffffffffe0855",
                            "storage": {
                                "0xfffffffffffffffffffffffffffffffffffffffffffffffffffffffffffffffe": "0xffffffffffffffffffffffffffffffffffffffffffffffffffffffffffffffff"
                            }
                        }
                    }
                }
            ]
        },
        "config": {
            "blobSchedule": {
                "Cancun": {
                    "target": "0x03",
                    "max": "0x06",
                    "baseFeeUpdateFraction": "0x32f0ed"
                }
            },
            "chainid": "0x01"
        },
        "_info": {
            "hash": "0xf4aa3c398ab26e5f6d28ce200402411a502e1825561194cb258262d8938380d1",
            "comment": "`execution-spec-tests` generated test",
            "filling-transition-tool": "ethereum-spec-evm-resolver 0.0.5",
            "description": "No description available - add a docstring to the python test class or function.",
            "url": "",
            "fixture-format": "state_test",
            "eels-resolution": {
                "git-url": "https://github.com/ethereum/execution-specs.git",
                "branch": "forks/bpos",
                "commit": "7aacb2c54111391af5e98c505d5010b5698a770f"
            }
        }
    },
    "tests/static/state_tests/stRandom2/randomStatetest608Filler.json::randomStatetest608[fork_Osaka-state_test-]": {
        "env": {
            "currentCoinbase": "0x90496aaf23330b2122afb4e7e4b80f23cda6e789",
            "currentGasLimit": "0x7fffffffffffffff",
            "currentNumber": "0x01",
            "currentTimestamp": "0x03e8",
            "currentRandom": "0x0000000000000000000000000000000000000000000000000000000000020000",
            "currentDifficulty": "0x00",
            "currentBaseFee": "0x0a",
            "currentExcessBlobGas": "0x00"
        },
        "pre": {
            "0xf1612bab600dbf18a0caaa36d55f52e52f07a74b": {
                "nonce": "0x00",
                "balance": "0x0de0b6b3a7640000",
                "code": "0x",
                "storage": {}
            },
            "0x90496aaf23330b2122afb4e7e4b80f23cda6e789": {
                "nonce": "0x00",
                "balance": "0x2e",
                "code": "0x6000355415600957005b60203560003555",
                "storage": {}
            },
            "0x90496aaf23330b2122afb4e7e4b80f23cda6e889": {
                "nonce": "0x00",
                "balance": "0x00",
                "code": "0x7fffffffffffffffffffffffffffffffffffffffffffffffffffffffffffffffff7f00000000000000000000000000000000000000000000000000000000000000017f000000000000000000000000000000000000000000000000000000000000c350537fffffffffffffffffffffffffffffffffffffffffffffffffffffffffffffffff7fffffffffffffffffffffffffffffffffffffffffffffffffffffffffffffffff7ffffffffffffffffffffffffffffffffffffffffffffffffffffffffffffffffe0855",
                "storage": {}
            }
        },
        "transaction": {
            "nonce": "0x00",
            "gasPrice": "0x0a",
            "gasLimit": [
                "0x0186a0"
            ],
            "to": "0x90496aaf23330b2122afb4e7e4b80f23cda6e889",
            "value": [
                "0x1eb2352a"
            ],
            "data": [
                "0x7fffffffffffffffffffffffffffffffffffffffffffffffffffffffffffffffff7f00000000000000000000000000000000000000000000000000000000000000017f000000000000000000000000000000000000000000000000000000000000c350537fffffffffffffffffffffffffffffffffffffffffffffffffffffffffffffffff7fffffffffffffffffffffffffffffffffffffffffffffffffffffffffffffffff7ffffffffffffffffffffffffffffffffffffffffffffffffffffffffffffffffe08"
            ],
            "sender": "0xf1612bab600dbf18a0caaa36d55f52e52f07a74b",
            "secretKey": "0x6f2f2f50bf18c99f60f5045490496aaf23330b2122afb4e7e4b80f23cda6e789"
        },
        "post": {
            "Osaka": [
                {
                    "hash": "0xc98fb453ef4f5ee1fa942e3f82840fec8d1b82d4c582189a9858e107a94a4eb0",
                    "logs": "0x1dcc4de8dec75d7aab85b567b6ccd41ad312451b948a7413f0a142fd40d49347",
                    "txbytes": "0xf9012d800a830186a09490496aaf23330b2122afb4e7e4b80f23cda6e889841eb2352ab8c87fffffffffffffffffffffffffffffffffffffffffffffffffffffffffffffffff7f00000000000000000000000000000000000000000000000000000000000000017f000000000000000000000000000000000000000000000000000000000000c350537fffffffffffffffffffffffffffffffffffffffffffffffffffffffffffffffff7fffffffffffffffffffffffffffffffffffffffffffffffffffffffffffffffff7ffffffffffffffffffffffffffffffffffffffffffffffffffffffffffffffffe0825a09d77265048bdda24442c0122637d093f00c98bb7dc24222e886f9fd16db477d5a0645b6b76d5128c43c3ad76c582f6231190bd1b0fbb046a101e2347c2afbfce02",
                    "indexes": {
                        "data": 0,
                        "gas": 0,
                        "value": 0
                    },
                    "state": {
                        "0xf1612bab600dbf18a0caaa36d55f52e52f07a74b": {
                            "nonce": "0x01",
                            "balance": "0x0de0b6b388a9642c",
                            "code": "0x",
                            "storage": {}
                        },
                        "0x90496aaf23330b2122afb4e7e4b80f23cda6e789": {
                            "nonce": "0x00",
                            "balance": "0x2e",
                            "code": "0x6000355415600957005b60203560003555",
                            "storage": {}
                        },
                        "0x90496aaf23330b2122afb4e7e4b80f23cda6e889": {
                            "nonce": "0x00",
                            "balance": "0x1eb2352a",
                            "code": "0x7fffffffffffffffffffffffffffffffffffffffffffffffffffffffffffffffff7f00000000000000000000000000000000000000000000000000000000000000017f000000000000000000000000000000000000000000000000000000000000c350537fffffffffffffffffffffffffffffffffffffffffffffffffffffffffffffffff7fffffffffffffffffffffffffffffffffffffffffffffffffffffffffffffffff7ffffffffffffffffffffffffffffffffffffffffffffffffffffffffffffffffe0855",
                            "storage": {
                                "0xfffffffffffffffffffffffffffffffffffffffffffffffffffffffffffffffe": "0xffffffffffffffffffffffffffffffffffffffffffffffffffffffffffffffff"
                            }
                        }
                    }
                }
            ]
        },
        "config": {
            "blobSchedule": {
                "Cancun": {
                    "target": "0x03",
                    "max": "0x06",
                    "baseFeeUpdateFraction": "0x32f0ed"
                },
                "Prague": {
                    "target": "0x06",
                    "max": "0x09",
                    "baseFeeUpdateFraction": "0x4c6964"
                },
                "Osaka": {
                    "target": "0x06",
                    "max": "0x09",
                    "baseFeeUpdateFraction": "0x4c6964"
                }
            },
            "chainid": "0x01"
        },
        "_info": {
            "hash": "0x0f11d09ede7a27aecb6befc451d6e4ca53c068e1a2550c94760bfb209b48d8db",
            "comment": "`execution-spec-tests` generated test",
            "filling-transition-tool": "ethereum-spec-evm-resolver 0.0.5",
            "description": "No description available - add a docstring to the python test class or function.",
            "url": "",
            "fixture-format": "state_test",
            "eels-resolution": {
                "git-url": "https://github.com/ethereum/execution-specs.git",
                "branch": "forks/bpos",
                "commit": "7aacb2c54111391af5e98c505d5010b5698a770f"
            }
        }
    },
    "tests/static/state_tests/stRandom2/randomStatetest608Filler.json::randomStatetest608[fork_Prague-state_test-]": {
        "env": {
            "currentCoinbase": "0x90496aaf23330b2122afb4e7e4b80f23cda6e789",
            "currentGasLimit": "0x7fffffffffffffff",
            "currentNumber": "0x01",
            "currentTimestamp": "0x03e8",
            "currentRandom": "0x0000000000000000000000000000000000000000000000000000000000020000",
            "currentDifficulty": "0x00",
            "currentBaseFee": "0x0a",
            "currentExcessBlobGas": "0x00"
        },
        "pre": {
            "0xf1612bab600dbf18a0caaa36d55f52e52f07a74b": {
                "nonce": "0x00",
                "balance": "0x0de0b6b3a7640000",
                "code": "0x",
                "storage": {}
            },
            "0x90496aaf23330b2122afb4e7e4b80f23cda6e789": {
                "nonce": "0x00",
                "balance": "0x2e",
                "code": "0x6000355415600957005b60203560003555",
                "storage": {}
            },
            "0x90496aaf23330b2122afb4e7e4b80f23cda6e889": {
                "nonce": "0x00",
                "balance": "0x00",
                "code": "0x7fffffffffffffffffffffffffffffffffffffffffffffffffffffffffffffffff7f00000000000000000000000000000000000000000000000000000000000000017f000000000000000000000000000000000000000000000000000000000000c350537fffffffffffffffffffffffffffffffffffffffffffffffffffffffffffffffff7fffffffffffffffffffffffffffffffffffffffffffffffffffffffffffffffff7ffffffffffffffffffffffffffffffffffffffffffffffffffffffffffffffffe0855",
                "storage": {}
            }
        },
        "transaction": {
            "nonce": "0x00",
            "gasPrice": "0x0a",
            "gasLimit": [
                "0x0186a0"
            ],
            "to": "0x90496aaf23330b2122afb4e7e4b80f23cda6e889",
            "value": [
                "0x1eb2352a"
            ],
            "data": [
                "0x7fffffffffffffffffffffffffffffffffffffffffffffffffffffffffffffffff7f00000000000000000000000000000000000000000000000000000000000000017f000000000000000000000000000000000000000000000000000000000000c350537fffffffffffffffffffffffffffffffffffffffffffffffffffffffffffffffff7fffffffffffffffffffffffffffffffffffffffffffffffffffffffffffffffff7ffffffffffffffffffffffffffffffffffffffffffffffffffffffffffffffffe08"
            ],
            "sender": "0xf1612bab600dbf18a0caaa36d55f52e52f07a74b",
            "secretKey": "0x6f2f2f50bf18c99f60f5045490496aaf23330b2122afb4e7e4b80f23cda6e789"
        },
        "post": {
            "Prague": [
                {
                    "hash": "0xc98fb453ef4f5ee1fa942e3f82840fec8d1b82d4c582189a9858e107a94a4eb0",
                    "logs": "0x1dcc4de8dec75d7aab85b567b6ccd41ad312451b948a7413f0a142fd40d49347",
                    "txbytes": "0xf9012d800a830186a09490496aaf23330b2122afb4e7e4b80f23cda6e889841eb2352ab8c87fffffffffffffffffffffffffffffffffffffffffffffffffffffffffffffffff7f00000000000000000000000000000000000000000000000000000000000000017f000000000000000000000000000000000000000000000000000000000000c350537fffffffffffffffffffffffffffffffffffffffffffffffffffffffffffffffff7fffffffffffffffffffffffffffffffffffffffffffffffffffffffffffffffff7ffffffffffffffffffffffffffffffffffffffffffffffffffffffffffffffffe0825a09d77265048bdda24442c0122637d093f00c98bb7dc24222e886f9fd16db477d5a0645b6b76d5128c43c3ad76c582f6231190bd1b0fbb046a101e2347c2afbfce02",
                    "indexes": {
                        "data": 0,
                        "gas": 0,
                        "value": 0
                    },
                    "state": {
                        "0xf1612bab600dbf18a0caaa36d55f52e52f07a74b": {
                            "nonce": "0x01",
                            "balance": "0x0de0b6b388a9642c",
                            "code": "0x",
                            "storage": {}
                        },
                        "0x90496aaf23330b2122afb4e7e4b80f23cda6e789": {
                            "nonce": "0x00",
                            "balance": "0x2e",
                            "code": "0x6000355415600957005b60203560003555",
                            "storage": {}
                        },
                        "0x90496aaf23330b2122afb4e7e4b80f23cda6e889": {
                            "nonce": "0x00",
                            "balance": "0x1eb2352a",
                            "code": "0x7fffffffffffffffffffffffffffffffffffffffffffffffffffffffffffffffff7f00000000000000000000000000000000000000000000000000000000000000017f000000000000000000000000000000000000000000000000000000000000c350537fffffffffffffffffffffffffffffffffffffffffffffffffffffffffffffffff7fffffffffffffffffffffffffffffffffffffffffffffffffffffffffffffffff7ffffffffffffffffffffffffffffffffffffffffffffffffffffffffffffffffe0855",
                            "storage": {
                                "0xfffffffffffffffffffffffffffffffffffffffffffffffffffffffffffffffe": "0xffffffffffffffffffffffffffffffffffffffffffffffffffffffffffffffff"
                            }
                        }
                    }
                }
            ]
        },
        "config": {
            "blobSchedule": {
                "Cancun": {
                    "target": "0x03",
                    "max": "0x06",
                    "baseFeeUpdateFraction": "0x32f0ed"
                },
                "Prague": {
                    "target": "0x06",
                    "max": "0x09",
                    "baseFeeUpdateFraction": "0x4c6964"
                }
            },
            "chainid": "0x01"
        },
        "_info": {
            "hash": "0x49c14ff56c08fbd16c71c8165c4fe7331b28afbc44e6c3461254ebff3f050cad",
            "comment": "`execution-spec-tests` generated test",
            "filling-transition-tool": "ethereum-spec-evm-resolver 0.0.5",
            "description": "No description available - add a docstring to the python test class or function.",
            "url": "",
            "fixture-format": "state_test",
            "eels-resolution": {
                "git-url": "https://github.com/ethereum/execution-specs.git",
                "branch": "forks/bpos",
                "commit": "7aacb2c54111391af5e98c505d5010b5698a770f"
            }
        }
    }
}