{
    "tests/static/state_tests/stRandom2/randomStatetest471Filler.json::randomStatetest471[fork_Cancun-state_test-]": {
        "env": {
            "currentCoinbase": "0x81ad68cee6cf982ce9e04e9ed3d0d6aecc1b9866",
            "currentGasLimit": "0x7fffffffffffffff",
            "currentNumber": "0x01",
            "currentTimestamp": "0x03e8",
            "currentRandom": "0x0000000000000000000000000000000000000000000000000000000000020000",
            "currentDifficulty": "0x00",
            "currentBaseFee": "0x0a",
            "currentExcessBlobGas": "0x00"
        },
        "pre": {
            "0xf1b362b6a46ea134d9cba365f8bbaa35bf284ca2": {
                "nonce": "0x00",
                "balance": "0x0de0b6b3a7640000",
                "code": "0x",
                "storage": {}
            },
            "0x81ad68cee6cf982ce9e04e9ed3d0d6aecc1b9866": {
                "nonce": "0x00",
                "balance": "0x2e",
                "code": "0x6000355415600957005b60203560003555",
                "storage": {}
            },
            "0x81ad68cee6cf982ce9e04e9ed3d0d6aecc1b9966": {
                "nonce": "0x00",
                "balance": "0x00",
                "code": "0x7ffffffffffffffffffffffffffffffffffffffffffffffffffffffffffffffffe7f00000000000000000000000000000000000000000000000000000000000000017f00000000000000000000000100000000000000000000000000000000000000007ffffffffffffffffffffffffffffffffffffffffffffffffffffffffffffffffe7fffffffffffffffffffffffffffffffffffffffffffffffffffffffffffffffff7fffffffffffffffffffffffffffffffffffffffffffffffffffffffffffffffff7f00000000000000000000000100000000000000000000000000000000000000007ffffffffffffffffffffffffffffffffffffffffffffffffffffffffffffffffe09650618701355040655183a51377d8260005155",
                "storage": {}
            }
        },
        "transaction": {
            "nonce": "0x00",
            "gasPrice": "0x0a",
            "gasLimit": [
                "0x0186a0"
            ],
            "to": "0x81ad68cee6cf982ce9e04e9ed3d0d6aecc1b9966",
            "value": [
                "0x63180fb7"
            ],
            "data": [
                "0x7ffffffffffffffffffffffffffffffffffffffffffffffffffffffffffffffffe7f00000000000000000000000000000000000000000000000000000000000000017f00000000000000000000000100000000000000000000000000000000000000007ffffffffffffffffffffffffffffffffffffffffffffffffffffffffffffffffe7fffffffffffffffffffffffffffffffffffffffffffffffffffffffffffffffff7fffffffffffffffffffffffffffffffffffffffffffffffffffffffffffffffff7f00000000000000000000000100000000000000000000000000000000000000007ffffffffffffffffffffffffffffffffffffffffffffffffffffffffffffffffe09650618701355040655183a51377d82"
            ],
            "sender": "0xf1b362b6a46ea134d9cba365f8bbaa35bf284ca2",
            "secretKey": "0x4b5683fd37cf4b1d4164c64481ad68cee6cf982ce9e04e9ed3d0d6aecc1b9866"
        },
        "post": {
            "Cancun": [
                {
                    "hash": "0x9c35a1d9282ab9f6b03d788aca274d333428ab0d62f4ef75572c96b37cd1b9fe",
                    "logs": "0x1dcc4de8dec75d7aab85b567b6ccd41ad312451b948a7413f0a142fd40d49347",
                    "txbytes": "0xf9017e800a830186a09481ad68cee6cf982ce9e04e9ed3d0d6aecc1b99668463180fb7b901187ffffffffffffffffffffffffffffffffffffffffffffffffffffffffffffffffe7f00000000000000000000000000000000000000000000000000000000000000017f00000000000000000000000100000000000000000000000000000000000000007ffffffffffffffffffffffffffffffffffffffffffffffffffffffffffffffffe7fffffffffffffffffffffffffffffffffffffffffffffffffffffffffffffffff7fffffffffffffffffffffffffffffffffffffffffffffffffffffffffffffffff7f00000000000000000000000100000000000000000000000000000000000000007ffffffffffffffffffffffffffffffffffffffffffffffffffffffffffffffffe09650618701355040655183a51377d8225a013ea04d2d19c16da24fd7cf537ebb747c48daa88f975d282920c675202f453b9a06447b0d6d2a4d4a7d5eac2953004f664c2c897689e71023ec426a0d9e50bf195",
                    "indexes": {
                        "data": 0,
                        "gas": 0,
                        "value": 0
                    },
                    "state": {
                        "0xf1b362b6a46ea134d9cba365f8bbaa35bf284ca2": {
                            "nonce": "0x01",
                            "balance": "0x0de0b6b34444d6d3",
                            "code": "0x",
                            "storage": {}
                        },
                        "0x81ad68cee6cf982ce9e04e9ed3d0d6aecc1b9866": {
                            "nonce": "0x00",
                            "balance": "0x2e",
                            "code": "0x6000355415600957005b60203560003555",
                            "storage": {}
                        },
                        "0x81ad68cee6cf982ce9e04e9ed3d0d6aecc1b9966": {
                            "nonce": "0x00",
                            "balance": "0x63180fb7",
                            "code": "0x7ffffffffffffffffffffffffffffffffffffffffffffffffffffffffffffffffe7f00000000000000000000000000000000000000000000000000000000000000017f00000000000000000000000100000000000000000000000000000000000000007ffffffffffffffffffffffffffffffffffffffffffffffffffffffffffffffffe7fffffffffffffffffffffffffffffffffffffffffffffffffffffffffffffffff7fffffffffffffffffffffffffffffffffffffffffffffffffffffffffffffffff7f00000000000000000000000100000000000000000000000000000000000000007ffffffffffffffffffffffffffffffffffffffffffffffffffffffffffffffffe09650618701355040655183a51377d8260005155",
                            "storage": {
                                "0x061870135504": "0xffffffffffffffffffffffffffffffffffffffffffffffffffffffffffffffff"
                            }
                        }
                    }
                }
            ]
        },
        "config": {
            "blobSchedule": {
                "Cancun": {
                    "target": "0x03",
                    "max": "0x06",
                    "baseFeeUpdateFraction": "0x32f0ed"
                }
            },
            "chainid": "0x01"
        },
        "_info": {
            "hash": "0xbce8c86c8e1feb4b6b4aad1366d43e0d7aefabe59e3ebd4674d4fb506e8766a9",
            "comment": "`execution-spec-tests` generated test",
            "filling-transition-tool": "ethereum-spec-evm-resolver 0.0.5",
            "description": "No description available - add a docstring to the python test class or function.",
            "url": "",
            "fixture-format": "state_test",
            "eels-resolution": {
                "git-url": "https://github.com/marioevz/execution-specs.git",
                "branch": "forks/bpo1",
                "commit": "3387e5f4aedfe99becfdc39b444d6371e25e0924"
            }
        }
    },
    "tests/static/state_tests/stRandom2/randomStatetest471Filler.json::randomStatetest471[fork_Osaka-state_test-]": {
        "env": {
            "currentCoinbase": "0x81ad68cee6cf982ce9e04e9ed3d0d6aecc1b9866",
            "currentGasLimit": "0x7fffffffffffffff",
            "currentNumber": "0x01",
            "currentTimestamp": "0x03e8",
            "currentRandom": "0x0000000000000000000000000000000000000000000000000000000000020000",
            "currentDifficulty": "0x00",
            "currentBaseFee": "0x0a",
            "currentExcessBlobGas": "0x00"
        },
        "pre": {
            "0xf1b362b6a46ea134d9cba365f8bbaa35bf284ca2": {
                "nonce": "0x00",
                "balance": "0x0de0b6b3a7640000",
                "code": "0x",
                "storage": {}
            },
            "0x81ad68cee6cf982ce9e04e9ed3d0d6aecc1b9866": {
                "nonce": "0x00",
                "balance": "0x2e",
                "code": "0x6000355415600957005b60203560003555",
                "storage": {}
            },
            "0x81ad68cee6cf982ce9e04e9ed3d0d6aecc1b9966": {
                "nonce": "0x00",
                "balance": "0x00",
                "code": "0x7ffffffffffffffffffffffffffffffffffffffffffffffffffffffffffffffffe7f00000000000000000000000000000000000000000000000000000000000000017f00000000000000000000000100000000000000000000000000000000000000007ffffffffffffffffffffffffffffffffffffffffffffffffffffffffffffffffe7fffffffffffffffffffffffffffffffffffffffffffffffffffffffffffffffff7fffffffffffffffffffffffffffffffffffffffffffffffffffffffffffffffff7f00000000000000000000000100000000000000000000000000000000000000007ffffffffffffffffffffffffffffffffffffffffffffffffffffffffffffffffe09650618701355040655183a51377d8260005155",
                "storage": {}
            }
        },
        "transaction": {
            "nonce": "0x00",
            "gasPrice": "0x0a",
            "gasLimit": [
                "0x0186a0"
            ],
            "to": "0x81ad68cee6cf982ce9e04e9ed3d0d6aecc1b9966",
            "value": [
                "0x63180fb7"
            ],
            "data": [
                "0x7ffffffffffffffffffffffffffffffffffffffffffffffffffffffffffffffffe7f00000000000000000000000000000000000000000000000000000000000000017f00000000000000000000000100000000000000000000000000000000000000007ffffffffffffffffffffffffffffffffffffffffffffffffffffffffffffffffe7fffffffffffffffffffffffffffffffffffffffffffffffffffffffffffffffff7fffffffffffffffffffffffffffffffffffffffffffffffffffffffffffffffff7f00000000000000000000000100000000000000000000000000000000000000007ffffffffffffffffffffffffffffffffffffffffffffffffffffffffffffffffe09650618701355040655183a51377d82"
            ],
            "sender": "0xf1b362b6a46ea134d9cba365f8bbaa35bf284ca2",
            "secretKey": "0x4b5683fd37cf4b1d4164c64481ad68cee6cf982ce9e04e9ed3d0d6aecc1b9866"
        },
        "post": {
            "Osaka": [
                {
                    "hash": "0x9c35a1d9282ab9f6b03d788aca274d333428ab0d62f4ef75572c96b37cd1b9fe",
                    "logs": "0x1dcc4de8dec75d7aab85b567b6ccd41ad312451b948a7413f0a142fd40d49347",
                    "txbytes": "0xf9017e800a830186a09481ad68cee6cf982ce9e04e9ed3d0d6aecc1b99668463180fb7b901187ffffffffffffffffffffffffffffffffffffffffffffffffffffffffffffffffe7f00000000000000000000000000000000000000000000000000000000000000017f00000000000000000000000100000000000000000000000000000000000000007ffffffffffffffffffffffffffffffffffffffffffffffffffffffffffffffffe7fffffffffffffffffffffffffffffffffffffffffffffffffffffffffffffffff7fffffffffffffffffffffffffffffffffffffffffffffffffffffffffffffffff7f00000000000000000000000100000000000000000000000000000000000000007ffffffffffffffffffffffffffffffffffffffffffffffffffffffffffffffffe09650618701355040655183a51377d8225a013ea04d2d19c16da24fd7cf537ebb747c48daa88f975d282920c675202f453b9a06447b0d6d2a4d4a7d5eac2953004f664c2c897689e71023ec426a0d9e50bf195",
                    "indexes": {
                        "data": 0,
                        "gas": 0,
                        "value": 0
                    },
                    "state": {
                        "0xf1b362b6a46ea134d9cba365f8bbaa35bf284ca2": {
                            "nonce": "0x01",
                            "balance": "0x0de0b6b34444d6d3",
                            "code": "0x",
                            "storage": {}
                        },
                        "0x81ad68cee6cf982ce9e04e9ed3d0d6aecc1b9866": {
                            "nonce": "0x00",
                            "balance": "0x2e",
                            "code": "0x6000355415600957005b60203560003555",
                            "storage": {}
                        },
                        "0x81ad68cee6cf982ce9e04e9ed3d0d6aecc1b9966": {
                            "nonce": "0x00",
                            "balance": "0x63180fb7",
                            "code": "0x7ffffffffffffffffffffffffffffffffffffffffffffffffffffffffffffffffe7f00000000000000000000000000000000000000000000000000000000000000017f00000000000000000000000100000000000000000000000000000000000000007ffffffffffffffffffffffffffffffffffffffffffffffffffffffffffffffffe7fffffffffffffffffffffffffffffffffffffffffffffffffffffffffffffffff7fffffffffffffffffffffffffffffffffffffffffffffffffffffffffffffffff7f00000000000000000000000100000000000000000000000000000000000000007ffffffffffffffffffffffffffffffffffffffffffffffffffffffffffffffffe09650618701355040655183a51377d8260005155",
                            "storage": {
                                "0x061870135504": "0xffffffffffffffffffffffffffffffffffffffffffffffffffffffffffffffff"
                            }
                        }
                    }
                }
            ]
        },
        "config": {
            "blobSchedule": {
                "Cancun": {
                    "target": "0x03",
                    "max": "0x06",
                    "baseFeeUpdateFraction": "0x32f0ed"
                },
                "Prague": {
                    "target": "0x06",
                    "max": "0x09",
                    "baseFeeUpdateFraction": "0x4c6964"
                },
                "Osaka": {
                    "target": "0x06",
                    "max": "0x09",
                    "baseFeeUpdateFraction": "0x4c6964"
                }
            },
            "chainid": "0x01"
        },
        "_info": {
            "hash": "0xc44d5a52f0901bfd0cb5167403f795575cccd7768f1c5b08e8425364eecc1fdc",
            "comment": "`execution-spec-tests` generated test",
            "filling-transition-tool": "ethereum-spec-evm-resolver 0.0.5",
            "description": "No description available - add a docstring to the python test class or function.",
            "url": "",
            "fixture-format": "state_test",
            "eels-resolution": {
                "git-url": "https://github.com/marioevz/execution-specs.git",
                "branch": "forks/bpo1",
                "commit": "3387e5f4aedfe99becfdc39b444d6371e25e0924"
            }
        }
    },
    "tests/static/state_tests/stRandom2/randomStatetest471Filler.json::randomStatetest471[fork_Prague-state_test-]": {
        "env": {
            "currentCoinbase": "0x81ad68cee6cf982ce9e04e9ed3d0d6aecc1b9866",
            "currentGasLimit": "0x7fffffffffffffff",
            "currentNumber": "0x01",
            "currentTimestamp": "0x03e8",
            "currentRandom": "0x0000000000000000000000000000000000000000000000000000000000020000",
            "currentDifficulty": "0x00",
            "currentBaseFee": "0x0a",
            "currentExcessBlobGas": "0x00"
        },
        "pre": {
            "0xf1b362b6a46ea134d9cba365f8bbaa35bf284ca2": {
                "nonce": "0x00",
                "balance": "0x0de0b6b3a7640000",
                "code": "0x",
                "storage": {}
            },
            "0x81ad68cee6cf982ce9e04e9ed3d0d6aecc1b9866": {
                "nonce": "0x00",
                "balance": "0x2e",
                "code": "0x6000355415600957005b60203560003555",
                "storage": {}
            },
            "0x81ad68cee6cf982ce9e04e9ed3d0d6aecc1b9966": {
                "nonce": "0x00",
                "balance": "0x00",
                "code": "0x7ffffffffffffffffffffffffffffffffffffffffffffffffffffffffffffffffe7f00000000000000000000000000000000000000000000000000000000000000017f00000000000000000000000100000000000000000000000000000000000000007ffffffffffffffffffffffffffffffffffffffffffffffffffffffffffffffffe7fffffffffffffffffffffffffffffffffffffffffffffffffffffffffffffffff7fffffffffffffffffffffffffffffffffffffffffffffffffffffffffffffffff7f00000000000000000000000100000000000000000000000000000000000000007ffffffffffffffffffffffffffffffffffffffffffffffffffffffffffffffffe09650618701355040655183a51377d8260005155",
                "storage": {}
            }
        },
        "transaction": {
            "nonce": "0x00",
            "gasPrice": "0x0a",
            "gasLimit": [
                "0x0186a0"
            ],
            "to": "0x81ad68cee6cf982ce9e04e9ed3d0d6aecc1b9966",
            "value": [
                "0x63180fb7"
            ],
            "data": [
                "0x7ffffffffffffffffffffffffffffffffffffffffffffffffffffffffffffffffe7f00000000000000000000000000000000000000000000000000000000000000017f00000000000000000000000100000000000000000000000000000000000000007ffffffffffffffffffffffffffffffffffffffffffffffffffffffffffffffffe7fffffffffffffffffffffffffffffffffffffffffffffffffffffffffffffffff7fffffffffffffffffffffffffffffffffffffffffffffffffffffffffffffffff7f00000000000000000000000100000000000000000000000000000000000000007ffffffffffffffffffffffffffffffffffffffffffffffffffffffffffffffffe09650618701355040655183a51377d82"
            ],
            "sender": "0xf1b362b6a46ea134d9cba365f8bbaa35bf284ca2",
            "secretKey": "0x4b5683fd37cf4b1d4164c64481ad68cee6cf982ce9e04e9ed3d0d6aecc1b9866"
        },
        "post": {
            "Prague": [
                {
                    "hash": "0x9c35a1d9282ab9f6b03d788aca274d333428ab0d62f4ef75572c96b37cd1b9fe",
                    "logs": "0x1dcc4de8dec75d7aab85b567b6ccd41ad312451b948a7413f0a142fd40d49347",
                    "txbytes": "0xf9017e800a830186a09481ad68cee6cf982ce9e04e9ed3d0d6aecc1b99668463180fb7b901187ffffffffffffffffffffffffffffffffffffffffffffffffffffffffffffffffe7f00000000000000000000000000000000000000000000000000000000000000017f00000000000000000000000100000000000000000000000000000000000000007ffffffffffffffffffffffffffffffffffffffffffffffffffffffffffffffffe7fffffffffffffffffffffffffffffffffffffffffffffffffffffffffffffffff7fffffffffffffffffffffffffffffffffffffffffffffffffffffffffffffffff7f00000000000000000000000100000000000000000000000000000000000000007ffffffffffffffffffffffffffffffffffffffffffffffffffffffffffffffffe09650618701355040655183a51377d8225a013ea04d2d19c16da24fd7cf537ebb747c48daa88f975d282920c675202f453b9a06447b0d6d2a4d4a7d5eac2953004f664c2c897689e71023ec426a0d9e50bf195",
                    "indexes": {
                        "data": 0,
                        "gas": 0,
                        "value": 0
                    },
                    "state": {
                        "0xf1b362b6a46ea134d9cba365f8bbaa35bf284ca2": {
                            "nonce": "0x01",
                            "balance": "0x0de0b6b34444d6d3",
                            "code": "0x",
                            "storage": {}
                        },
                        "0x81ad68cee6cf982ce9e04e9ed3d0d6aecc1b9866": {
                            "nonce": "0x00",
                            "balance": "0x2e",
                            "code": "0x6000355415600957005b60203560003555",
                            "storage": {}
                        },
                        "0x81ad68cee6cf982ce9e04e9ed3d0d6aecc1b9966": {
                            "nonce": "0x00",
                            "balance": "0x63180fb7",
                            "code": "0x7ffffffffffffffffffffffffffffffffffffffffffffffffffffffffffffffffe7f00000000000000000000000000000000000000000000000000000000000000017f00000000000000000000000100000000000000000000000000000000000000007ffffffffffffffffffffffffffffffffffffffffffffffffffffffffffffffffe7fffffffffffffffffffffffffffffffffffffffffffffffffffffffffffffffff7fffffffffffffffffffffffffffffffffffffffffffffffffffffffffffffffff7f00000000000000000000000100000000000000000000000000000000000000007ffffffffffffffffffffffffffffffffffffffffffffffffffffffffffffffffe09650618701355040655183a51377d8260005155",
                            "storage": {
                                "0x061870135504": "0xffffffffffffffffffffffffffffffffffffffffffffffffffffffffffffffff"
                            }
                        }
                    }
                }
            ]
        },
        "config": {
            "blobSchedule": {
                "Cancun": {
                    "target": "0x03",
                    "max": "0x06",
                    "baseFeeUpdateFraction": "0x32f0ed"
                },
                "Prague": {
                    "target": "0x06",
                    "max": "0x09",
                    "baseFeeUpdateFraction": "0x4c6964"
                }
            },
            "chainid": "0x01"
        },
        "_info": {
            "hash": "0x56f2fd264a1129229740bdfbcf6c19393442c43c2649482902c18381642e3431",
            "comment": "`execution-spec-tests` generated test",
            "filling-transition-tool": "ethereum-spec-evm-resolver 0.0.5",
            "description": "No description available - add a docstring to the python test class or function.",
            "url": "",
            "fixture-format": "state_test",
            "eels-resolution": {
                "git-url": "https://github.com/marioevz/execution-specs.git",
                "branch": "forks/bpo1",
                "commit": "3387e5f4aedfe99becfdc39b444d6371e25e0924"
            }
        }
    }
}