{
    "tests/static/state_tests/stRandom2/randomStatetest577Filler.json::randomStatetest577[fork_Cancun-state_test-]": {
        "env": {
            "currentCoinbase": "0xd7e264c87c52db41334f29d35f74ae102b3a1829",
            "currentGasLimit": "0x7fffffffffffffff",
            "currentNumber": "0x01",
            "currentTimestamp": "0x03e8",
            "currentRandom": "0x0000000000000000000000000000000000000000000000000000000000020000",
            "currentDifficulty": "0x00",
            "currentBaseFee": "0x0a",
            "currentExcessBlobGas": "0x00"
        },
        "pre": {
            "0x366e173f4119589168ab7f054fc77bce93040ed5": {
                "nonce": "0x00",
                "balance": "0x0de0b6b3a7640000",
                "code": "0x",
                "storage": {}
            },
            "0xd7e264c87c52db41334f29d35f74ae102b3a1829": {
                "nonce": "0x00",
                "balance": "0x2e",
                "code": "0x6000355415600957005b60203560003555",
                "storage": {}
            },
            "0xd7e264c87c52db41334f29d35f74ae102b3a1929": {
                "nonce": "0x00",
                "balance": "0x0de0b6b3a7640000",
                "code": "0x45414344434244413155",
                "storage": {}
            }
        },
        "transaction": {
            "nonce": "0x00",
            "gasPrice": "0x0a",
            "gasLimit": [
                "0x061a80"
            ],
            "to": "0xd7e264c87c52db41334f29d35f74ae102b3a1929",
            "value": [
                "0x0186a0"
            ],
            "data": [
                "0x42"
            ],
            "sender": "0x366e173f4119589168ab7f054fc77bce93040ed5",
            "secretKey": "0x62de31a2621218d42b302cdcd7e264c87c52db41334f29d35f74ae102b3a1829"
        },
        "post": {
            "Cancun": [
                {
                    "hash": "0x58b48ea799085976881f78d1c9426b9519cb443330c50cfa10cd5d3ca003e64f",
                    "logs": "0x1dcc4de8dec75d7aab85b567b6ccd41ad312451b948a7413f0a142fd40d49347",
                    "txbytes": "0xf863800a83061a8094d7e264c87c52db41334f29d35f74ae102b3a1929830186a04226a07d9ff38ae0d14df12bafb09226778614c7671590e17a15f4e23c45ad5a0920faa014c591d43b14d5c9b326887897fc836eda035cb789d83617d27033c05f504e2c",
                    "indexes": {
                        "data": 0,
                        "gas": 0,
                        "value": 0
                    },
                    "state": {
                        "0x366e173f4119589168ab7f054fc77bce93040ed5": {
                            "nonce": "0x01",
                            "balance": "0x0de0b6b3a75be0a0",
                            "code": "0x",
                            "storage": {}
                        },
                        "0xd7e264c87c52db41334f29d35f74ae102b3a1829": {
                            "nonce": "0x00",
                            "balance": "0x2e",
                            "code": "0x6000355415600957005b60203560003555",
                            "storage": {}
                        },
                        "0xd7e264c87c52db41334f29d35f74ae102b3a1929": {
                            "nonce": "0x00",
                            "balance": "0x0de0b6b3a76586a0",
                            "code": "0x45414344434244413155",
                            "storage": {
                                "0x2e": "0x020000"
                            }
                        }
                    }
                }
            ]
        },
        "config": {
            "blobSchedule": {
                "Cancun": {
                    "target": "0x03",
                    "max": "0x06",
                    "baseFeeUpdateFraction": "0x32f0ed"
                }
            },
            "chainid": "0x01"
        },
        "_info": {
            "hash": "0xeb7a98c93f9e94393e9a72ba6a4c8410386745c40986b603b7c88b59983b0587",
            "comment": "`execution-spec-tests` generated test",
            "filling-transition-tool": "ethereum-spec-evm-resolver 0.0.5",
            "description": "No description available - add a docstring to the python test class or function.",
            "url": "",
            "fixture-format": "state_test",
            "eels-resolution": {
                "git-url": "https://github.com/ethereum/execution-specs.git",
                "branch": "forks/bpos",
                "commit": "7aacb2c54111391af5e98c505d5010b5698a770f"
            }
        }
    },
    "tests/static/state_tests/stRandom2/randomStatetest577Filler.json::randomStatetest577[fork_Osaka-state_test-]": {
        "env": {
            "currentCoinbase": "0xd7e264c87c52db41334f29d35f74ae102b3a1829",
            "currentGasLimit": "0x7fffffffffffffff",
            "currentNumber": "0x01",
            "currentTimestamp": "0x03e8",
            "currentRandom": "0x0000000000000000000000000000000000000000000000000000000000020000",
            "currentDifficulty": "0x00",
            "currentBaseFee": "0x0a",
            "currentExcessBlobGas": "0x00"
        },
        "pre": {
            "0x366e173f4119589168ab7f054fc77bce93040ed5": {
                "nonce": "0x00",
                "balance": "0x0de0b6b3a7640000",
                "code": "0x",
                "storage": {}
            },
            "0xd7e264c87c52db41334f29d35f74ae102b3a1829": {
                "nonce": "0x00",
                "balance": "0x2e",
                "code": "0x6000355415600957005b60203560003555",
                "storage": {}
            },
            "0xd7e264c87c52db41334f29d35f74ae102b3a1929": {
                "nonce": "0x00",
                "balance": "0x0de0b6b3a7640000",
                "code": "0x45414344434244413155",
                "storage": {}
            }
        },
        "transaction": {
            "nonce": "0x00",
            "gasPrice": "0x0a",
            "gasLimit": [
                "0x061a80"
            ],
            "to": "0xd7e264c87c52db41334f29d35f74ae102b3a1929",
            "value": [
                "0x0186a0"
            ],
            "data": [
                "0x42"
            ],
            "sender": "0x366e173f4119589168ab7f054fc77bce93040ed5",
            "secretKey": "0x62de31a2621218d42b302cdcd7e264c87c52db41334f29d35f74ae102b3a1829"
        },
        "post": {
            "Osaka": [
                {
                    "hash": "0x58b48ea799085976881f78d1c9426b9519cb443330c50cfa10cd5d3ca003e64f",
                    "logs": "0x1dcc4de8dec75d7aab85b567b6ccd41ad312451b948a7413f0a142fd40d49347",
                    "txbytes": "0xf863800a83061a8094d7e264c87c52db41334f29d35f74ae102b3a1929830186a04226a07d9ff38ae0d14df12bafb09226778614c7671590e17a15f4e23c45ad5a0920faa014c591d43b14d5c9b326887897fc836eda035cb789d83617d27033c05f504e2c",
                    "indexes": {
                        "data": 0,
                        "gas": 0,
                        "value": 0
                    },
                    "state": {
                        "0x366e173f4119589168ab7f054fc77bce93040ed5": {
                            "nonce": "0x01",
                            "balance": "0x0de0b6b3a75be0a0",
                            "code": "0x",
                            "storage": {}
                        },
                        "0xd7e264c87c52db41334f29d35f74ae102b3a1829": {
                            "nonce": "0x00",
                            "balance": "0x2e",
                            "code": "0x6000355415600957005b60203560003555",
                            "storage": {}
                        },
                        "0xd7e264c87c52db41334f29d35f74ae102b3a1929": {
                            "nonce": "0x00",
                            "balance": "0x0de0b6b3a76586a0",
                            "code": "0x45414344434244413155",
                            "storage": {
                                "0x2e": "0x020000"
                            }
                        }
                    }
                }
            ]
        },
        "config": {
            "blobSchedule": {
                "Cancun": {
                    "target": "0x03",
                    "max": "0x06",
                    "baseFeeUpdateFraction": "0x32f0ed"
                },
                "Prague": {
                    "target": "0x06",
                    "max": "0x09",
                    "baseFeeUpdateFraction": "0x4c6964"
                },
                "Osaka": {
                    "target": "0x06",
                    "max": "0x09",
                    "baseFeeUpdateFraction": "0x4c6964"
                }
            },
            "chainid": "0x01"
        },
        "_info": {
            "hash": "0x6eab9ef2cc92dfe79dd91b5321b2b8ffc54fd4d16f866921a6cbe8b1ee9d236a",
            "comment": "`execution-spec-tests` generated test",
            "filling-transition-tool": "ethereum-spec-evm-resolver 0.0.5",
            "description": "No description available - add a docstring to the python test class or function.",
            "url": "",
            "fixture-format": "state_test",
            "eels-resolution": {
                "git-url": "https://github.com/ethereum/execution-specs.git",
                "branch": "forks/bpos",
                "commit": "7aacb2c54111391af5e98c505d5010b5698a770f"
            }
        }
    },
    "tests/static/state_tests/stRandom2/randomStatetest577Filler.json::randomStatetest577[fork_Prague-state_test-]": {
        "env": {
            "currentCoinbase": "0xd7e264c87c52db41334f29d35f74ae102b3a1829",
            "currentGasLimit": "0x7fffffffffffffff",
            "currentNumber": "0x01",
            "currentTimestamp": "0x03e8",
            "currentRandom": "0x0000000000000000000000000000000000000000000000000000000000020000",
            "currentDifficulty": "0x00",
            "currentBaseFee": "0x0a",
            "currentExcessBlobGas": "0x00"
        },
        "pre": {
            "0x366e173f4119589168ab7f054fc77bce93040ed5": {
                "nonce": "0x00",
                "balance": "0x0de0b6b3a7640000",
                "code": "0x",
                "storage": {}
            },
            "0xd7e264c87c52db41334f29d35f74ae102b3a1829": {
                "nonce": "0x00",
                "balance": "0x2e",
                "code": "0x6000355415600957005b60203560003555",
                "storage": {}
            },
            "0xd7e264c87c52db41334f29d35f74ae102b3a1929": {
                "nonce": "0x00",
                "balance": "0x0de0b6b3a7640000",
                "code": "0x45414344434244413155",
                "storage": {}
            }
        },
        "transaction": {
            "nonce": "0x00",
            "gasPrice": "0x0a",
            "gasLimit": [
                "0x061a80"
            ],
            "to": "0xd7e264c87c52db41334f29d35f74ae102b3a1929",
            "value": [
                "0x0186a0"
            ],
            "data": [
                "0x42"
            ],
            "sender": "0x366e173f4119589168ab7f054fc77bce93040ed5",
            "secretKey": "0x62de31a2621218d42b302cdcd7e264c87c52db41334f29d35f74ae102b3a1829"
        },
        "post": {
            "Prague": [
                {
                    "hash": "0x58b48ea799085976881f78d1c9426b9519cb443330c50cfa10cd5d3ca003e64f",
                    "logs": "0x1dcc4de8dec75d7aab85b567b6ccd41ad312451b948a7413f0a142fd40d49347",
                    "txbytes": "0xf863800a83061a8094d7e264c87c52db41334f29d35f74ae102b3a1929830186a04226a07d9ff38ae0d14df12bafb09226778614c7671590e17a15f4e23c45ad5a0920faa014c591d43b14d5c9b326887897fc836eda035cb789d83617d27033c05f504e2c",
                    "indexes": {
                        "data": 0,
                        "gas": 0,
                        "value": 0
                    },
                    "state": {
                        "0x366e173f4119589168ab7f054fc77bce93040ed5": {
                            "nonce": "0x01",
                            "balance": "0x0de0b6b3a75be0a0",
                            "code": "0x",
                            "storage": {}
                        },
                        "0xd7e264c87c52db41334f29d35f74ae102b3a1829": {
                            "nonce": "0x00",
                            "balance": "0x2e",
                            "code": "0x6000355415600957005b60203560003555",
                            "storage": {}
                        },
                        "0xd7e264c87c52db41334f29d35f74ae102b3a1929": {
                            "nonce": "0x00",
                            "balance": "0x0de0b6b3a76586a0",
                            "code": "0x45414344434244413155",
                            "storage": {
                                "0x2e": "0x020000"
                            }
                        }
                    }
                }
            ]
        },
        "config": {
            "blobSchedule": {
                "Cancun": {
                    "target": "0x03",
                    "max": "0x06",
                    "baseFeeUpdateFraction": "0x32f0ed"
                },
                "Prague": {
                    "target": "0x06",
                    "max": "0x09",
                    "baseFeeUpdateFraction": "0x4c6964"
                }
            },
            "chainid": "0x01"
        },
        "_info": {
            "hash": "0xa1b736c74ac122c7360b5f319cfebf155a58aec794f71fdae11fc12a6a5c92a3",
            "comment": "`execution-spec-tests` generated test",
            "filling-transition-tool": "ethereum-spec-evm-resolver 0.0.5",
            "description": "No description available - add a docstring to the python test class or function.",
            "url": "",
            "fixture-format": "state_test",
            "eels-resolution": {
                "git-url": "https://github.com/ethereum/execution-specs.git",
                "branch": "forks/bpos",
                "commit": "7aacb2c54111391af5e98c505d5010b5698a770f"
            }
        }
    }
}