{
    "tests/static/state_tests/stRandom2/randomStatetest605Filler.json::randomStatetest605[fork_Cancun-state_test-]": {
        "env": {
            "currentCoinbase": "0x0081bf49431cd913000c007b98416eac6f98316f",
            "currentGasLimit": "0x7fffffffffffffff",
            "currentNumber": "0x01",
            "currentTimestamp": "0x03e8",
            "currentRandom": "0x0000000000000000000000000000000000000000000000000000000000020000",
            "currentDifficulty": "0x00",
            "currentBaseFee": "0x0a",
            "currentExcessBlobGas": "0x00"
        },
        "pre": {
            "0x0fb94a2c0e92e404aae0dc54a86c347044bb5bc8": {
                "nonce": "0x00",
                "balance": "0x0de0b6b3a7640000",
                "code": "0x",
                "storage": {}
            },
            "0x0081bf49431cd913000c007b98416eac6f98316f": {
                "nonce": "0x00",
                "balance": "0x2e",
                "code": "0x6000355415600957005b60203560003555",
                "storage": {}
            },
            "0x0081bf49431cd913000c007b98416eac6f98326f": {
                "nonce": "0x00",
                "balance": "0x00",
                "code": "0x7f00000000000000000000000100000000000000000000000000000000000000007f0000000000000000000000000081bf49431cd913000c007b98416eac6f98316f7ffffffffffffffffffffffffffffffffffffffffffffffffffffffffffffffffe7f000000000000000000000000000000000000000000000000000000000000c350437f00000000000000000000000100000000000000000000000000000000000000007f000000000000000000000000ffffffffffffffffffffffffffffffffffffffff7fffffffffffffffffffffffffffffffffffffffffffffffffffffffffffffffff905803850855",
                "storage": {}
            }
        },
        "transaction": {
            "nonce": "0x00",
            "gasPrice": "0x0a",
            "gasLimit": [
                "0x0186a0"
            ],
            "to": "0x0081bf49431cd913000c007b98416eac6f98326f",
            "value": [
                "0x650044fa"
            ],
            "data": [
                "0x7f00000000000000000000000100000000000000000000000000000000000000007f0000000000000000000000000081bf49431cd913000c007b98416eac6f98316f7ffffffffffffffffffffffffffffffffffffffffffffffffffffffffffffffffe7f000000000000000000000000000000000000000000000000000000000000c350437f00000000000000000000000100000000000000000000000000000000000000007f000000000000000000000000ffffffffffffffffffffffffffffffffffffffff7fffffffffffffffffffffffffffffffffffffffffffffffffffffffffffffffff9058038508"
            ],
            "sender": "0x0fb94a2c0e92e404aae0dc54a86c347044bb5bc8",
            "secretKey": "0x55d26342819d35dadb8828f20081bf49431cd913000c007b98416eac6f98316f"
        },
        "post": {
            "Cancun": [
                {
                    "hash": "0x0a1816646aaf34690369dc64be6662347844491d0b3efe1729658f9018a5bc6e",
                    "logs": "0x1dcc4de8dec75d7aab85b567b6ccd41ad312451b948a7413f0a142fd40d49347",
                    "txbytes": "0xf90152800a830186a0940081bf49431cd913000c007b98416eac6f98326f84650044fab8ed7f00000000000000000000000100000000000000000000000000000000000000007f0000000000000000000000000081bf49431cd913000c007b98416eac6f98316f7ffffffffffffffffffffffffffffffffffffffffffffffffffffffffffffffffe7f000000000000000000000000000000000000000000000000000000000000c350437f00000000000000000000000100000000000000000000000000000000000000007f000000000000000000000000ffffffffffffffffffffffffffffffffffffffff7fffffffffffffffffffffffffffffffffffffffffffffffffffffffffffffffff905803850826a0b8a90db411d9e538504fb5d9c2ec7fb12f7b114476c91704f9c52338bf70c46aa03d33632a85f1ac863d110ed085fa500b5221b588c8a7f4b0426c2d20c7edf326",
                    "indexes": {
                        "data": 0,
                        "gas": 0,
                        "value": 0
                    },
                    "state": {
                        "0x0fb94a2c0e92e404aae0dc54a86c347044bb5bc8": {
                            "nonce": "0x01",
                            "balance": "0x0de0b6b3425cc972",
                            "code": "0x",
                            "storage": {}
                        },
                        "0x0081bf49431cd913000c007b98416eac6f98316f": {
                            "nonce": "0x00",
                            "balance": "0x2e",
                            "code": "0x6000355415600957005b60203560003555",
                            "storage": {}
                        },
                        "0x0081bf49431cd913000c007b98416eac6f98326f": {
                            "nonce": "0x00",
                            "balance": "0x650044fa",
                            "code": "0x7f00000000000000000000000100000000000000000000000000000000000000007f0000000000000000000000000081bf49431cd913000c007b98416eac6f98316f7ffffffffffffffffffffffffffffffffffffffffffffffffffffffffffffffffe7f000000000000000000000000000000000000000000000000000000000000c350437f00000000000000000000000100000000000000000000000000000000000000007f000000000000000000000000ffffffffffffffffffffffffffffffffffffffff7fffffffffffffffffffffffffffffffffffffffffffffffffffffffffffffffff905803850855",
                            "storage": {
                                "0xffffffffffffffffffffffff00000000000000000000000000000000000000e9": "0x010000000000000000000000000000000000000000"
                            }
                        }
                    }
                }
            ]
        },
        "config": {
            "blobSchedule": {
                "Cancun": {
                    "target": "0x03",
                    "max": "0x06",
                    "baseFeeUpdateFraction": "0x32f0ed"
                }
            },
            "chainid": "0x01"
        },
        "_info": {
            "hash": "0x18ef8b2ab53ba2d571461d3e9cfcefaeaf2f1f3ff94d822be988635d882e0000",
            "comment": "`execution-spec-tests` generated test",
            "filling-transition-tool": "ethereum-spec-evm-resolver 0.0.5",
            "description": "No description available - add a docstring to the python test class or function.",
            "url": "",
            "fixture-format": "state_test",
            "eels-resolution": {
                "git-url": "https://github.com/ethereum/execution-specs.git",
                "branch": "forks/bpos",
                "commit": "7aacb2c54111391af5e98c505d5010b5698a770f"
            }
        }
    },
    "tests/static/state_tests/stRandom2/randomStatetest605Filler.json::randomStatetest605[fork_Osaka-state_test-]": {
        "env": {
            "currentCoinbase": "0x0081bf49431cd913000c007b98416eac6f98316f",
            "currentGasLimit": "0x7fffffffffffffff",
            "currentNumber": "0x01",
            "currentTimestamp": "0x03e8",
            "currentRandom": "0x0000000000000000000000000000000000000000000000000000000000020000",
            "currentDifficulty": "0x00",
            "currentBaseFee": "0x0a",
            "currentExcessBlobGas": "0x00"
        },
        "pre": {
            "0x0fb94a2c0e92e404aae0dc54a86c347044bb5bc8": {
                "nonce": "0x00",
                "balance": "0x0de0b6b3a7640000",
                "code": "0x",
                "storage": {}
            },
            "0x0081bf49431cd913000c007b98416eac6f98316f": {
                "nonce": "0x00",
                "balance": "0x2e",
                "code": "0x6000355415600957005b60203560003555",
                "storage": {}
            },
            "0x0081bf49431cd913000c007b98416eac6f98326f": {
                "nonce": "0x00",
                "balance": "0x00",
                "code": "0x7f00000000000000000000000100000000000000000000000000000000000000007f0000000000000000000000000081bf49431cd913000c007b98416eac6f98316f7ffffffffffffffffffffffffffffffffffffffffffffffffffffffffffffffffe7f000000000000000000000000000000000000000000000000000000000000c350437f00000000000000000000000100000000000000000000000000000000000000007f000000000000000000000000ffffffffffffffffffffffffffffffffffffffff7fffffffffffffffffffffffffffffffffffffffffffffffffffffffffffffffff905803850855",
                "storage": {}
            }
        },
        "transaction": {
            "nonce": "0x00",
            "gasPrice": "0x0a",
            "gasLimit": [
                "0x0186a0"
            ],
            "to": "0x0081bf49431cd913000c007b98416eac6f98326f",
            "value": [
                "0x650044fa"
            ],
            "data": [
                "0x7f00000000000000000000000100000000000000000000000000000000000000007f0000000000000000000000000081bf49431cd913000c007b98416eac6f98316f7ffffffffffffffffffffffffffffffffffffffffffffffffffffffffffffffffe7f000000000000000000000000000000000000000000000000000000000000c350437f00000000000000000000000100000000000000000000000000000000000000007f000000000000000000000000ffffffffffffffffffffffffffffffffffffffff7fffffffffffffffffffffffffffffffffffffffffffffffffffffffffffffffff9058038508"
            ],
            "sender": "0x0fb94a2c0e92e404aae0dc54a86c347044bb5bc8",
            "secretKey": "0x55d26342819d35dadb8828f20081bf49431cd913000c007b98416eac6f98316f"
        },
        "post": {
            "Osaka": [
                {
                    "hash": "0x0a1816646aaf34690369dc64be6662347844491d0b3efe1729658f9018a5bc6e",
                    "logs": "0x1dcc4de8dec75d7aab85b567b6ccd41ad312451b948a7413f0a142fd40d49347",
                    "txbytes": "0xf90152800a830186a0940081bf49431cd913000c007b98416eac6f98326f84650044fab8ed7f00000000000000000000000100000000000000000000000000000000000000007f0000000000000000000000000081bf49431cd913000c007b98416eac6f98316f7ffffffffffffffffffffffffffffffffffffffffffffffffffffffffffffffffe7f000000000000000000000000000000000000000000000000000000000000c350437f00000000000000000000000100000000000000000000000000000000000000007f000000000000000000000000ffffffffffffffffffffffffffffffffffffffff7fffffffffffffffffffffffffffffffffffffffffffffffffffffffffffffffff905803850826a0b8a90db411d9e538504fb5d9c2ec7fb12f7b114476c91704f9c52338bf70c46aa03d33632a85f1ac863d110ed085fa500b5221b588c8a7f4b0426c2d20c7edf326",
                    "indexes": {
                        "data": 0,
                        "gas": 0,
                        "value": 0
                    },
                    "state": {
                        "0x0fb94a2c0e92e404aae0dc54a86c347044bb5bc8": {
                            "nonce": "0x01",
                            "balance": "0x0de0b6b3425cc972",
                            "code": "0x",
                            "storage": {}
                        },
                        "0x0081bf49431cd913000c007b98416eac6f98316f": {
                            "nonce": "0x00",
                            "balance": "0x2e",
                            "code": "0x6000355415600957005b60203560003555",
                            "storage": {}
                        },
                        "0x0081bf49431cd913000c007b98416eac6f98326f": {
                            "nonce": "0x00",
                            "balance": "0x650044fa",
                            "code": "0x7f00000000000000000000000100000000000000000000000000000000000000007f0000000000000000000000000081bf49431cd913000c007b98416eac6f98316f7ffffffffffffffffffffffffffffffffffffffffffffffffffffffffffffffffe7f000000000000000000000000000000000000000000000000000000000000c350437f00000000000000000000000100000000000000000000000000000000000000007f000000000000000000000000ffffffffffffffffffffffffffffffffffffffff7fffffffffffffffffffffffffffffffffffffffffffffffffffffffffffffffff905803850855",
                            "storage": {
                                "0xffffffffffffffffffffffff00000000000000000000000000000000000000e9": "0x010000000000000000000000000000000000000000"
                            }
                        }
                    }
                }
            ]
        },
        "config": {
            "blobSchedule": {
                "Cancun": {
                    "target": "0x03",
                    "max": "0x06",
                    "baseFeeUpdateFraction": "0x32f0ed"
                },
                "Prague": {
                    "target": "0x06",
                    "max": "0x09",
                    "baseFeeUpdateFraction": "0x4c6964"
                },
                "Osaka": {
                    "target": "0x06",
                    "max": "0x09",
                    "baseFeeUpdateFraction": "0x4c6964"
                }
            },
            "chainid": "0x01"
        },
        "_info": {
            "hash": "0x2e9bdac4dd5d6a3eda53958fc23fe402a39c3c5469027712980b7425599292be",
            "comment": "`execution-spec-tests` generated test",
            "filling-transition-tool": "ethereum-spec-evm-resolver 0.0.5",
            "description": "No description available - add a docstring to the python test class or function.",
            "url": "",
            "fixture-format": "state_test",
            "eels-resolution": {
                "git-url": "https://github.com/ethereum/execution-specs.git",
                "branch": "forks/bpos",
                "commit": "7aacb2c54111391af5e98c505d5010b5698a770f"
            }
        }
    },
    "tests/static/state_tests/stRandom2/randomStatetest605Filler.json::randomStatetest605[fork_Prague-state_test-]": {
        "env": {
            "currentCoinbase": "0x0081bf49431cd913000c007b98416eac6f98316f",
            "currentGasLimit": "0x7fffffffffffffff",
            "currentNumber": "0x01",
            "currentTimestamp": "0x03e8",
            "currentRandom": "0x0000000000000000000000000000000000000000000000000000000000020000",
            "currentDifficulty": "0x00",
            "currentBaseFee": "0x0a",
            "currentExcessBlobGas": "0x00"
        },
        "pre": {
            "0x0fb94a2c0e92e404aae0dc54a86c347044bb5bc8": {
                "nonce": "0x00",
                "balance": "0x0de0b6b3a7640000",
                "code": "0x",
                "storage": {}
            },
            "0x0081bf49431cd913000c007b98416eac6f98316f": {
                "nonce": "0x00",
                "balance": "0x2e",
                "code": "0x6000355415600957005b60203560003555",
                "storage": {}
            },
            "0x0081bf49431cd913000c007b98416eac6f98326f": {
                "nonce": "0x00",
                "balance": "0x00",
                "code": "0x7f00000000000000000000000100000000000000000000000000000000000000007f0000000000000000000000000081bf49431cd913000c007b98416eac6f98316f7ffffffffffffffffffffffffffffffffffffffffffffffffffffffffffffffffe7f000000000000000000000000000000000000000000000000000000000000c350437f00000000000000000000000100000000000000000000000000000000000000007f000000000000000000000000ffffffffffffffffffffffffffffffffffffffff7fffffffffffffffffffffffffffffffffffffffffffffffffffffffffffffffff905803850855",
                "storage": {}
            }
        },
        "transaction": {
            "nonce": "0x00",
            "gasPrice": "0x0a",
            "gasLimit": [
                "0x0186a0"
            ],
            "to": "0x0081bf49431cd913000c007b98416eac6f98326f",
            "value": [
                "0x650044fa"
            ],
            "data": [
                "0x7f00000000000000000000000100000000000000000000000000000000000000007f0000000000000000000000000081bf49431cd913000c007b98416eac6f98316f7ffffffffffffffffffffffffffffffffffffffffffffffffffffffffffffffffe7f000000000000000000000000000000000000000000000000000000000000c350437f00000000000000000000000100000000000000000000000000000000000000007f000000000000000000000000ffffffffffffffffffffffffffffffffffffffff7fffffffffffffffffffffffffffffffffffffffffffffffffffffffffffffffff9058038508"
            ],
            "sender": "0x0fb94a2c0e92e404aae0dc54a86c347044bb5bc8",
            "secretKey": "0x55d26342819d35dadb8828f20081bf49431cd913000c007b98416eac6f98316f"
        },
        "post": {
            "Prague": [
                {
                    "hash": "0x0a1816646aaf34690369dc64be6662347844491d0b3efe1729658f9018a5bc6e",
                    "logs": "0x1dcc4de8dec75d7aab85b567b6ccd41ad312451b948a7413f0a142fd40d49347",
                    "txbytes": "0xf90152800a830186a0940081bf49431cd913000c007b98416eac6f98326f84650044fab8ed7f00000000000000000000000100000000000000000000000000000000000000007f0000000000000000000000000081bf49431cd913000c007b98416eac6f98316f7ffffffffffffffffffffffffffffffffffffffffffffffffffffffffffffffffe7f000000000000000000000000000000000000000000000000000000000000c350437f00000000000000000000000100000000000000000000000000000000000000007f000000000000000000000000ffffffffffffffffffffffffffffffffffffffff7fffffffffffffffffffffffffffffffffffffffffffffffffffffffffffffffff905803850826a0b8a90db411d9e538504fb5d9c2ec7fb12f7b114476c91704f9c52338bf70c46aa03d33632a85f1ac863d110ed085fa500b5221b588c8a7f4b0426c2d20c7edf326",
                    "indexes": {
                        "data": 0,
                        "gas": 0,
                        "value": 0
                    },
                    "state": {
                        "0x0fb94a2c0e92e404aae0dc54a86c347044bb5bc8": {
                            "nonce": "0x01",
                            "balance": "0x0de0b6b3425cc972",
                            "code": "0x",
                            "storage": {}
                        },
                        "0x0081bf49431cd913000c007b98416eac6f98316f": {
                            "nonce": "0x00",
                            "balance": "0x2e",
                            "code": "0x6000355415600957005b60203560003555",
                            "storage": {}
                        },
                        "0x0081bf49431cd913000c007b98416eac6f98326f": {
                            "nonce": "0x00",
                            "balance": "0x650044fa",
                            "code": "0x7f00000000000000000000000100000000000000000000000000000000000000007f0000000000000000000000000081bf49431cd913000c007b98416eac6f98316f7ffffffffffffffffffffffffffffffffffffffffffffffffffffffffffffffffe7f000000000000000000000000000000000000000000000000000000000000c350437f00000000000000000000000100000000000000000000000000000000000000007f000000000000000000000000ffffffffffffffffffffffffffffffffffffffff7fffffffffffffffffffffffffffffffffffffffffffffffffffffffffffffffff905803850855",
                            "storage": {
                                "0xffffffffffffffffffffffff00000000000000000000000000000000000000e9": "0x010000000000000000000000000000000000000000"
                            }
                        }
                    }
                }
            ]
        },
        "config": {
            "blobSchedule": {
                "Cancun": {
                    "target": "0x03",
                    "max": "0x06",
                    "baseFeeUpdateFraction": "0x32f0ed"
                },
                "Prague": {
                    "target": "0x06",
                    "max": "0x09",
                    "baseFeeUpdateFraction": "0x4c6964"
                }
            },
            "chainid": "0x01"
        },
        "_info": {
            "hash": "0x87eb2edae3a98b5ec7a10d63092937a61d64e13b1151e46f293f274721d27023",
            "comment": "`execution-spec-tests` generated test",
            "filling-transition-tool": "ethereum-spec-evm-resolver 0.0.5",
            "description": "No description available - add a docstring to the python test class or function.",
            "url": "",
            "fixture-format": "state_test",
            "eels-resolution": {
                "git-url": "https://github.com/ethereum/execution-specs.git",
                "branch": "forks/bpos",
                "commit": "7aacb2c54111391af5e98c505d5010b5698a770f"
            }
        }
    }
}