{
    "tests/static/state_tests/stRandom2/randomStatetest588Filler.json::randomStatetest588[fork_Cancun-state_test-]": {
        "env": {
            "currentCoinbase": "0x9585fb93586a6c01313f94fa294c1d0bca6ca101",
            "currentGasLimit": "0x7fffffffffffffff",
            "currentNumber": "0x01",
            "currentTimestamp": "0x03e8",
            "currentRandom": "0x0000000000000000000000000000000000000000000000000000000000020000",
            "currentDifficulty": "0x00",
            "currentBaseFee": "0x0a",
            "currentExcessBlobGas": "0x00"
        },
        "pre": {
            "0x5fa795d56de376add736df7907890d8f444e0100": {
                "nonce": "0x00",
                "balance": "0x0de0b6b3a7640000",
                "code": "0x",
                "storage": {}
            },
            "0x9585fb93586a6c01313f94fa294c1d0bca6ca101": {
                "nonce": "0x00",
                "balance": "0x2e",
                "code": "0x6000355415600957005b60203560003555",
                "storage": {}
            },
            "0x9585fb93586a6c01313f94fa294c1d0bca6ca201": {
                "nonce": "0x00",
                "balance": "0x00",
                "code": "0x7fffffffffffffffffffffffffffffffffffffffffffffffffffffffffffffffff41437f00000000000000000000000000000000000000000000000000000000000000017f000000000000000000000000000000000000000000000000000000000000c3507f00000000000000000000000000000000000000000000000000000000000000017fffffffffffffffffffffffffffffffffffffffffffffffffffffffffffffffff43063760005155",
                "storage": {}
            }
        },
        "transaction": {
            "nonce": "0x00",
            "gasPrice": "0x0a",
            "gasLimit": [
                "0x0186a0"
            ],
            "to": "0x9585fb93586a6c01313f94fa294c1d0bca6ca201",
            "value": [
                "0x66d6bc77"
            ],
            "data": [
                "0x7fffffffffffffffffffffffffffffffffffffffffffffffffffffffffffffffff41437f00000000000000000000000000000000000000000000000000000000000000017f000000000000000000000000000000000000000000000000000000000000c3507f00000000000000000000000000000000000000000000000000000000000000017fffffffffffffffffffffffffffffffffffffffffffffffffffffffffffffffff430637"
            ],
            "sender": "0x5fa795d56de376add736df7907890d8f444e0100",
            "secretKey": "0x287d49f727478dec24205d569585fb93586a6c01313f94fa294c1d0bca6ca101"
        },
        "post": {
            "Cancun": [
                {
                    "hash": "0x421e69f25d61fb43107e6de267e0c765f16a5c2e48fe8cf385c88164ff113a6c",
                    "logs": "0x1dcc4de8dec75d7aab85b567b6ccd41ad312451b948a7413f0a142fd40d49347",
                    "txbytes": "0xf9010f800a830186a0949585fb93586a6c01313f94fa294c1d0bca6ca2018466d6bc77b8aa7fffffffffffffffffffffffffffffffffffffffffffffffffffffffffffffffff41437f00000000000000000000000000000000000000000000000000000000000000017f000000000000000000000000000000000000000000000000000000000000c3507f00000000000000000000000000000000000000000000000000000000000000017fffffffffffffffffffffffffffffffffffffffffffffffffffffffffffffffff43063725a0db3c0858c678542cf9e066dd841490d9ff5ac667f52bbb38192376722074004ca0533a40713c719b9a9bacc51111a338ccb8727ce7b7fc9f5eff5f40f4f4573590",
                    "indexes": {
                        "data": 0,
                        "gas": 0,
                        "value": 0
                    },
                    "state": {
                        "0x5fa795d56de376add736df7907890d8f444e0100": {
                            "nonce": "0x01",
                            "balance": "0x0de0b6b3408446c1",
                            "code": "0x",
                            "storage": {}
                        },
                        "0x9585fb93586a6c01313f94fa294c1d0bca6ca101": {
                            "nonce": "0x00",
                            "balance": "0x2e",
                            "code": "0x6000355415600957005b60203560003555",
                            "storage": {}
                        },
                        "0x9585fb93586a6c01313f94fa294c1d0bca6ca201": {
                            "nonce": "0x00",
                            "balance": "0x66d6bc77",
                            "code": "0x7fffffffffffffffffffffffffffffffffffffffffffffffffffffffffffffffff41437f00000000000000000000000000000000000000000000000000000000000000017f000000000000000000000000000000000000000000000000000000000000c3507f00000000000000000000000000000000000000000000000000000000000000017fffffffffffffffffffffffffffffffffffffffffffffffffffffffffffffffff43063760005155",
                            "storage": {
                                "0xffffffffffffffffffffffffffffffffffffffffffffffffffffffffffffff": "0x01"
                            }
                        }
                    }
                }
            ]
        },
        "config": {
            "blobSchedule": {
                "Cancun": {
                    "target": "0x03",
                    "max": "0x06",
                    "baseFeeUpdateFraction": "0x32f0ed"
                }
            },
            "chainid": "0x01"
        },
        "_info": {
            "hash": "0x84219a5e50b7465d3b74ec8133a0c2524de1c5408b32461d907815621845068d",
            "comment": "`execution-spec-tests` generated test",
            "filling-transition-tool": "ethereum-spec-evm-resolver 0.0.5",
            "description": "No description available - add a docstring to the python test class or function.",
            "url": "",
            "fixture-format": "state_test",
            "eels-resolution": {
                "git-url": "https://github.com/marioevz/execution-specs.git",
                "branch": "forks/bpo1",
                "commit": "3387e5f4aedfe99becfdc39b444d6371e25e0924"
            }
        }
    },
    "tests/static/state_tests/stRandom2/randomStatetest588Filler.json::randomStatetest588[fork_Osaka-state_test-]": {
        "env": {
            "currentCoinbase": "0x9585fb93586a6c01313f94fa294c1d0bca6ca101",
            "currentGasLimit": "0x7fffffffffffffff",
            "currentNumber": "0x01",
            "currentTimestamp": "0x03e8",
            "currentRandom": "0x0000000000000000000000000000000000000000000000000000000000020000",
            "currentDifficulty": "0x00",
            "currentBaseFee": "0x0a",
            "currentExcessBlobGas": "0x00"
        },
        "pre": {
            "0x5fa795d56de376add736df7907890d8f444e0100": {
                "nonce": "0x00",
                "balance": "0x0de0b6b3a7640000",
                "code": "0x",
                "storage": {}
            },
            "0x9585fb93586a6c01313f94fa294c1d0bca6ca101": {
                "nonce": "0x00",
                "balance": "0x2e",
                "code": "0x6000355415600957005b60203560003555",
                "storage": {}
            },
            "0x9585fb93586a6c01313f94fa294c1d0bca6ca201": {
                "nonce": "0x00",
                "balance": "0x00",
                "code": "0x7fffffffffffffffffffffffffffffffffffffffffffffffffffffffffffffffff41437f00000000000000000000000000000000000000000000000000000000000000017f000000000000000000000000000000000000000000000000000000000000c3507f00000000000000000000000000000000000000000000000000000000000000017fffffffffffffffffffffffffffffffffffffffffffffffffffffffffffffffff43063760005155",
                "storage": {}
            }
        },
        "transaction": {
            "nonce": "0x00",
            "gasPrice": "0x0a",
            "gasLimit": [
                "0x0186a0"
            ],
            "to": "0x9585fb93586a6c01313f94fa294c1d0bca6ca201",
            "value": [
                "0x66d6bc77"
            ],
            "data": [
                "0x7fffffffffffffffffffffffffffffffffffffffffffffffffffffffffffffffff41437f00000000000000000000000000000000000000000000000000000000000000017f000000000000000000000000000000000000000000000000000000000000c3507f00000000000000000000000000000000000000000000000000000000000000017fffffffffffffffffffffffffffffffffffffffffffffffffffffffffffffffff430637"
            ],
            "sender": "0x5fa795d56de376add736df7907890d8f444e0100",
            "secretKey": "0x287d49f727478dec24205d569585fb93586a6c01313f94fa294c1d0bca6ca101"
        },
        "post": {
            "Osaka": [
                {
                    "hash": "0x421e69f25d61fb43107e6de267e0c765f16a5c2e48fe8cf385c88164ff113a6c",
                    "logs": "0x1dcc4de8dec75d7aab85b567b6ccd41ad312451b948a7413f0a142fd40d49347",
                    "txbytes": "0xf9010f800a830186a0949585fb93586a6c01313f94fa294c1d0bca6ca2018466d6bc77b8aa7fffffffffffffffffffffffffffffffffffffffffffffffffffffffffffffffff41437f00000000000000000000000000000000000000000000000000000000000000017f000000000000000000000000000000000000000000000000000000000000c3507f00000000000000000000000000000000000000000000000000000000000000017fffffffffffffffffffffffffffffffffffffffffffffffffffffffffffffffff43063725a0db3c0858c678542cf9e066dd841490d9ff5ac667f52bbb38192376722074004ca0533a40713c719b9a9bacc51111a338ccb8727ce7b7fc9f5eff5f40f4f4573590",
                    "indexes": {
                        "data": 0,
                        "gas": 0,
                        "value": 0
                    },
                    "state": {
                        "0x5fa795d56de376add736df7907890d8f444e0100": {
                            "nonce": "0x01",
                            "balance": "0x0de0b6b3408446c1",
                            "code": "0x",
                            "storage": {}
                        },
                        "0x9585fb93586a6c01313f94fa294c1d0bca6ca101": {
                            "nonce": "0x00",
                            "balance": "0x2e",
                            "code": "0x6000355415600957005b60203560003555",
                            "storage": {}
                        },
                        "0x9585fb93586a6c01313f94fa294c1d0bca6ca201": {
                            "nonce": "0x00",
                            "balance": "0x66d6bc77",
                            "code": "0x7fffffffffffffffffffffffffffffffffffffffffffffffffffffffffffffffff41437f00000000000000000000000000000000000000000000000000000000000000017f000000000000000000000000000000000000000000000000000000000000c3507f00000000000000000000000000000000000000000000000000000000000000017fffffffffffffffffffffffffffffffffffffffffffffffffffffffffffffffff43063760005155",
                            "storage": {
                                "0xffffffffffffffffffffffffffffffffffffffffffffffffffffffffffffff": "0x01"
                            }
                        }
                    }
                }
            ]
        },
        "config": {
            "blobSchedule": {
                "Cancun": {
                    "target": "0x03",
                    "max": "0x06",
                    "baseFeeUpdateFraction": "0x32f0ed"
                },
                "Prague": {
                    "target": "0x06",
                    "max": "0x09",
                    "baseFeeUpdateFraction": "0x4c6964"
                },
                "Osaka": {
                    "target": "0x06",
                    "max": "0x09",
                    "baseFeeUpdateFraction": "0x4c6964"
                }
            },
            "chainid": "0x01"
        },
        "_info": {
            "hash": "0x262f13d2fa4738c01acbd234ed9fb155557c765955b8a3a5d97e5922e752b0e1",
            "comment": "`execution-spec-tests` generated test",
            "filling-transition-tool": "ethereum-spec-evm-resolver 0.0.5",
            "description": "No description available - add a docstring to the python test class or function.",
            "url": "",
            "fixture-format": "state_test",
            "eels-resolution": {
                "git-url": "https://github.com/marioevz/execution-specs.git",
                "branch": "forks/bpo1",
                "commit": "3387e5f4aedfe99becfdc39b444d6371e25e0924"
            }
        }
    },
    "tests/static/state_tests/stRandom2/randomStatetest588Filler.json::randomStatetest588[fork_Prague-state_test-]": {
        "env": {
            "currentCoinbase": "0x9585fb93586a6c01313f94fa294c1d0bca6ca101",
            "currentGasLimit": "0x7fffffffffffffff",
            "currentNumber": "0x01",
            "currentTimestamp": "0x03e8",
            "currentRandom": "0x0000000000000000000000000000000000000000000000000000000000020000",
            "currentDifficulty": "0x00",
            "currentBaseFee": "0x0a",
            "currentExcessBlobGas": "0x00"
        },
        "pre": {
            "0x5fa795d56de376add736df7907890d8f444e0100": {
                "nonce": "0x00",
                "balance": "0x0de0b6b3a7640000",
                "code": "0x",
                "storage": {}
            },
            "0x9585fb93586a6c01313f94fa294c1d0bca6ca101": {
                "nonce": "0x00",
                "balance": "0x2e",
                "code": "0x6000355415600957005b60203560003555",
                "storage": {}
            },
            "0x9585fb93586a6c01313f94fa294c1d0bca6ca201": {
                "nonce": "0x00",
                "balance": "0x00",
                "code": "0x7fffffffffffffffffffffffffffffffffffffffffffffffffffffffffffffffff41437f00000000000000000000000000000000000000000000000000000000000000017f000000000000000000000000000000000000000000000000000000000000c3507f00000000000000000000000000000000000000000000000000000000000000017fffffffffffffffffffffffffffffffffffffffffffffffffffffffffffffffff43063760005155",
                "storage": {}
            }
        },
        "transaction": {
            "nonce": "0x00",
            "gasPrice": "0x0a",
            "gasLimit": [
                "0x0186a0"
            ],
            "to": "0x9585fb93586a6c01313f94fa294c1d0bca6ca201",
            "value": [
                "0x66d6bc77"
            ],
            "data": [
                "0x7fffffffffffffffffffffffffffffffffffffffffffffffffffffffffffffffff41437f00000000000000000000000000000000000000000000000000000000000000017f000000000000000000000000000000000000000000000000000000000000c3507f00000000000000000000000000000000000000000000000000000000000000017fffffffffffffffffffffffffffffffffffffffffffffffffffffffffffffffff430637"
            ],
            "sender": "0x5fa795d56de376add736df7907890d8f444e0100",
            "secretKey": "0x287d49f727478dec24205d569585fb93586a6c01313f94fa294c1d0bca6ca101"
        },
        "post": {
            "Prague": [
                {
                    "hash": "0x421e69f25d61fb43107e6de267e0c765f16a5c2e48fe8cf385c88164ff113a6c",
                    "logs": "0x1dcc4de8dec75d7aab85b567b6ccd41ad312451b948a7413f0a142fd40d49347",
                    "txbytes": "0xf9010f800a830186a0949585fb93586a6c01313f94fa294c1d0bca6ca2018466d6bc77b8aa7fffffffffffffffffffffffffffffffffffffffffffffffffffffffffffffffff41437f00000000000000000000000000000000000000000000000000000000000000017f000000000000000000000000000000000000000000000000000000000000c3507f00000000000000000000000000000000000000000000000000000000000000017fffffffffffffffffffffffffffffffffffffffffffffffffffffffffffffffff43063725a0db3c0858c678542cf9e066dd841490d9ff5ac667f52bbb38192376722074004ca0533a40713c719b9a9bacc51111a338ccb8727ce7b7fc9f5eff5f40f4f4573590",
                    "indexes": {
                        "data": 0,
                        "gas": 0,
                        "value": 0
                    },
                    "state": {
                        "0x5fa795d56de376add736df7907890d8f444e0100": {
                            "nonce": "0x01",
                            "balance": "0x0de0b6b3408446c1",
                            "code": "0x",
                            "storage": {}
                        },
                        "0x9585fb93586a6c01313f94fa294c1d0bca6ca101": {
                            "nonce": "0x00",
                            "balance": "0x2e",
                            "code": "0x6000355415600957005b60203560003555",
                            "storage": {}
                        },
                        "0x9585fb93586a6c01313f94fa294c1d0bca6ca201": {
                            "nonce": "0x00",
                            "balance": "0x66d6bc77",
                            "code": "0x7fffffffffffffffffffffffffffffffffffffffffffffffffffffffffffffffff41437f00000000000000000000000000000000000000000000000000000000000000017f000000000000000000000000000000000000000000000000000000000000c3507f00000000000000000000000000000000000000000000000000000000000000017fffffffffffffffffffffffffffffffffffffffffffffffffffffffffffffffff43063760005155",
                            "storage": {
                                "0xffffffffffffffffffffffffffffffffffffffffffffffffffffffffffffff": "0x01"
                            }
                        }
                    }
                }
            ]
        },
        "config": {
            "blobSchedule": {
                "Cancun": {
                    "target": "0x03",
                    "max": "0x06",
                    "baseFeeUpdateFraction": "0x32f0ed"
                },
                "Prague": {
                    "target": "0x06",
                    "max": "0x09",
                    "baseFeeUpdateFraction": "0x4c6964"
                }
            },
            "chainid": "0x01"
        },
        "_info": {
            "hash": "0x028af2d6e1781203b63a95a7bd743ade3506ff78bd1d578f74752ec4d41ba77a",
            "comment": "`execution-spec-tests` generated test",
            "filling-transition-tool": "ethereum-spec-evm-resolver 0.0.5",
            "description": "No description available - add a docstring to the python test class or function.",
            "url": "",
            "fixture-format": "state_test",
            "eels-resolution": {
                "git-url": "https://github.com/marioevz/execution-specs.git",
                "branch": "forks/bpo1",
                "commit": "3387e5f4aedfe99becfdc39b444d6371e25e0924"
            }
        }
    }
}