{
    "tests/static/state_tests/stRandom2/randomStatetest455Filler.json::randomStatetest455[fork_Cancun-state_test-]": {
        "env": {
            "currentCoinbase": "0x42fdcdd50527c02fe8406b905fb2531c8b6c836f",
            "currentGasLimit": "0x7fffffffffffffff",
            "currentNumber": "0x01",
            "currentTimestamp": "0x03e8",
            "currentRandom": "0x0000000000000000000000000000000000000000000000000000000000020000",
            "currentDifficulty": "0x00",
            "currentBaseFee": "0x0a",
            "currentExcessBlobGas": "0x00"
        },
        "pre": {
            "0x52f4ee8df259d0adecdf9e92e95323e01a448b9e": {
                "nonce": "0x00",
                "balance": "0x0de0b6b3a7640000",
                "code": "0x",
                "storage": {}
            },
            "0x42fdcdd50527c02fe8406b905fb2531c8b6c836f": {
                "nonce": "0x00",
                "balance": "0x2e",
                "code": "0x6000355415600957005b60203560003555",
                "storage": {}
            },
            "0x42fdcdd50527c02fe8406b905fb2531c8b6c846f": {
                "nonce": "0x00",
                "balance": "0x00",
                "code": "0x7f000000000000000000000000ffffffffffffffffffffffffffffffffffffffff7ffffffffffffffffffffffffffffffffffffffffffffffffffffffffffffffffe7f00000000000000000000000100000000000000000000000000000000000000007f000000000000000000000000000000000000000000000000000000000000c3507f00000000000000000000000000000000000000000000000000000000000000017f000000000000000000000000ffffffffffffffffffffffffffffffffffffffff7f00000000000000000000000000000000000000000000000000000000000000017f00000000000000000000000042fdcdd50527c02fe8406b905fb2531c8b6c836f6f858b1411f218693ca2245b918274f35560005155",
                "storage": {}
            }
        },
        "transaction": {
            "nonce": "0x00",
            "gasPrice": "0x0a",
            "gasLimit": [
                "0x0186a0"
            ],
            "to": "0x42fdcdd50527c02fe8406b905fb2531c8b6c846f",
            "value": [
                "0x2bf8f04f"
            ],
            "data": [
                "0x7f000000000000000000000000ffffffffffffffffffffffffffffffffffffffff7ffffffffffffffffffffffffffffffffffffffffffffffffffffffffffffffffe7f00000000000000000000000100000000000000000000000000000000000000007f000000000000000000000000000000000000000000000000000000000000c3507f00000000000000000000000000000000000000000000000000000000000000017f000000000000000000000000ffffffffffffffffffffffffffffffffffffffff7f00000000000000000000000000000000000000000000000000000000000000017f00000000000000000000000042fdcdd50527c02fe8406b905fb2531c8b6c836f6f858b1411f218693ca2245b918274f3"
            ],
            "sender": "0x52f4ee8df259d0adecdf9e92e95323e01a448b9e",
            "secretKey": "0x3c9b917730e5eb96d19d5b0742fdcdd50527c02fe8406b905fb2531c8b6c836f"
        },
        "post": {
            "Cancun": [
                {
                    "hash": "0x07d3e8c7179cf3052641be2d250e6ca886919a71fa7f1027bf5ab7b6e9aaed99",
                    "logs": "0x1dcc4de8dec75d7aab85b567b6ccd41ad312451b948a7413f0a142fd40d49347",
                    "txbytes": "0xf9017e800a830186a09442fdcdd50527c02fe8406b905fb2531c8b6c846f842bf8f04fb901187f000000000000000000000000ffffffffffffffffffffffffffffffffffffffff7ffffffffffffffffffffffffffffffffffffffffffffffffffffffffffffffffe7f00000000000000000000000100000000000000000000000000000000000000007f000000000000000000000000000000000000000000000000000000000000c3507f00000000000000000000000000000000000000000000000000000000000000017f000000000000000000000000ffffffffffffffffffffffffffffffffffffffff7f00000000000000000000000000000000000000000000000000000000000000017f00000000000000000000000042fdcdd50527c02fe8406b905fb2531c8b6c836f6f858b1411f218693ca2245b918274f326a0c9f8fdd17b555fc9dedee5516f9ccfc7479ab97c222cbf646fe6bf04ea968e71a07024fe7ce29552b5f637868be949dfa736e39304b32c8106a3a7574828c233f7",
                    "indexes": {
                        "data": 0,
                        "gas": 0,
                        "value": 0
                    },
                    "state": {
                        "0x52f4ee8df259d0adecdf9e92e95323e01a448b9e": {
                            "nonce": "0x01",
                            "balance": "0x0de0b6b37b641639",
                            "code": "0x",
                            "storage": {}
                        },
                        "0x42fdcdd50527c02fe8406b905fb2531c8b6c836f": {
                            "nonce": "0x00",
                            "balance": "0x2e",
                            "code": "0x6000355415600957005b60203560003555",
                            "storage": {}
                        },
                        "0x42fdcdd50527c02fe8406b905fb2531c8b6c846f": {
                            "nonce": "0x00",
                            "balance": "0x2bf8f04f",
                            "code": "0x7f000000000000000000000000ffffffffffffffffffffffffffffffffffffffff7ffffffffffffffffffffffffffffffffffffffffffffffffffffffffffffffffe7f00000000000000000000000100000000000000000000000000000000000000007f000000000000000000000000000000000000000000000000000000000000c3507f00000000000000000000000000000000000000000000000000000000000000017f000000000000000000000000ffffffffffffffffffffffffffffffffffffffff7f00000000000000000000000000000000000000000000000000000000000000017f00000000000000000000000042fdcdd50527c02fe8406b905fb2531c8b6c836f6f858b1411f218693ca2245b918274f35560005155",
                            "storage": {
                                "0x00": "0x858b1411f218693ca2245b918274f355"
                            }
                        }
                    }
                }
            ]
        },
        "config": {
            "blobSchedule": {
                "Cancun": {
                    "target": "0x03",
                    "max": "0x06",
                    "baseFeeUpdateFraction": "0x32f0ed"
                }
            },
            "chainid": "0x01"
        },
        "_info": {
            "hash": "0x551229af0b548844eca01e2666047a50945cd10ef1bbf7fae5701843f5983031",
            "comment": "`execution-specs` generated test",
            "filling-transition-tool": "2.18.0rc6",
            "description": "No description available - add a docstring to the python test class or function.",
            "url": "",
            "fixture-format": "state_test"
        }
    },
    "tests/static/state_tests/stRandom2/randomStatetest455Filler.json::randomStatetest455[fork_Osaka-state_test-]": {
        "env": {
            "currentCoinbase": "0x42fdcdd50527c02fe8406b905fb2531c8b6c836f",
            "currentGasLimit": "0x7fffffffffffffff",
            "currentNumber": "0x01",
            "currentTimestamp": "0x03e8",
            "currentRandom": "0x0000000000000000000000000000000000000000000000000000000000020000",
            "currentDifficulty": "0x00",
            "currentBaseFee": "0x0a",
            "currentExcessBlobGas": "0x00"
        },
        "pre": {
            "0x52f4ee8df259d0adecdf9e92e95323e01a448b9e": {
                "nonce": "0x00",
                "balance": "0x0de0b6b3a7640000",
                "code": "0x",
                "storage": {}
            },
            "0x42fdcdd50527c02fe8406b905fb2531c8b6c836f": {
                "nonce": "0x00",
                "balance": "0x2e",
                "code": "0x6000355415600957005b60203560003555",
                "storage": {}
            },
            "0x42fdcdd50527c02fe8406b905fb2531c8b6c846f": {
                "nonce": "0x00",
                "balance": "0x00",
                "code": "0x7f000000000000000000000000ffffffffffffffffffffffffffffffffffffffff7ffffffffffffffffffffffffffffffffffffffffffffffffffffffffffffffffe7f00000000000000000000000100000000000000000000000000000000000000007f000000000000000000000000000000000000000000000000000000000000c3507f00000000000000000000000000000000000000000000000000000000000000017f000000000000000000000000ffffffffffffffffffffffffffffffffffffffff7f00000000000000000000000000000000000000000000000000000000000000017f00000000000000000000000042fdcdd50527c02fe8406b905fb2531c8b6c836f6f858b1411f218693ca2245b918274f35560005155",
                "storage": {}
            }
        },
        "transaction": {
            "nonce": "0x00",
            "gasPrice": "0x0a",
            "gasLimit": [
                "0x0186a0"
            ],
            "to": "0x42fdcdd50527c02fe8406b905fb2531c8b6c846f",
            "value": [
                "0x2bf8f04f"
            ],
            "data": [
                "0x7f000000000000000000000000ffffffffffffffffffffffffffffffffffffffff7ffffffffffffffffffffffffffffffffffffffffffffffffffffffffffffffffe7f00000000000000000000000100000000000000000000000000000000000000007f000000000000000000000000000000000000000000000000000000000000c3507f00000000000000000000000000000000000000000000000000000000000000017f000000000000000000000000ffffffffffffffffffffffffffffffffffffffff7f00000000000000000000000000000000000000000000000000000000000000017f00000000000000000000000042fdcdd50527c02fe8406b905fb2531c8b6c836f6f858b1411f218693ca2245b918274f3"
            ],
            "sender": "0x52f4ee8df259d0adecdf9e92e95323e01a448b9e",
            "secretKey": "0x3c9b917730e5eb96d19d5b0742fdcdd50527c02fe8406b905fb2531c8b6c836f"
        },
        "post": {
            "Osaka": [
                {
                    "hash": "0x07d3e8c7179cf3052641be2d250e6ca886919a71fa7f1027bf5ab7b6e9aaed99",
                    "logs": "0x1dcc4de8dec75d7aab85b567b6ccd41ad312451b948a7413f0a142fd40d49347",
                    "txbytes": "0xf9017e800a830186a09442fdcdd50527c02fe8406b905fb2531c8b6c846f842bf8f04fb901187f000000000000000000000000ffffffffffffffffffffffffffffffffffffffff7ffffffffffffffffffffffffffffffffffffffffffffffffffffffffffffffffe7f00000000000000000000000100000000000000000000000000000000000000007f000000000000000000000000000000000000000000000000000000000000c3507f00000000000000000000000000000000000000000000000000000000000000017f000000000000000000000000ffffffffffffffffffffffffffffffffffffffff7f00000000000000000000000000000000000000000000000000000000000000017f00000000000000000000000042fdcdd50527c02fe8406b905fb2531c8b6c836f6f858b1411f218693ca2245b918274f326a0c9f8fdd17b555fc9dedee5516f9ccfc7479ab97c222cbf646fe6bf04ea968e71a07024fe7ce29552b5f637868be949dfa736e39304b32c8106a3a7574828c233f7",
                    "indexes": {
                        "data": 0,
                        "gas": 0,
                        "value": 0
                    },
                    "state": {
                        "0x52f4ee8df259d0adecdf9e92e95323e01a448b9e": {
                            "nonce": "0x01",
                            "balance": "0x0de0b6b37b641639",
                            "code": "0x",
                            "storage": {}
                        },
                        "0x42fdcdd50527c02fe8406b905fb2531c8b6c836f": {
                            "nonce": "0x00",
                            "balance": "0x2e",
                            "code": "0x6000355415600957005b60203560003555",
                            "storage": {}
                        },
                        "0x42fdcdd50527c02fe8406b905fb2531c8b6c846f": {
                            "nonce": "0x00",
                            "balance": "0x2bf8f04f",
                            "code": "0x7f000000000000000000000000ffffffffffffffffffffffffffffffffffffffff7ffffffffffffffffffffffffffffffffffffffffffffffffffffffffffffffffe7f00000000000000000000000100000000000000000000000000000000000000007f000000000000000000000000000000000000000000000000000000000000c3507f00000000000000000000000000000000000000000000000000000000000000017f000000000000000000000000ffffffffffffffffffffffffffffffffffffffff7f00000000000000000000000000000000000000000000000000000000000000017f00000000000000000000000042fdcdd50527c02fe8406b905fb2531c8b6c836f6f858b1411f218693ca2245b918274f35560005155",
                            "storage": {
                                "0x00": "0x858b1411f218693ca2245b918274f355"
                            }
                        }
                    }
                }
            ]
        },
        "config": {
            "blobSchedule": {
                "Cancun": {
                    "target": "0x03",
                    "max": "0x06",
                    "baseFeeUpdateFraction": "0x32f0ed"
                },
                "Prague": {
                    "target": "0x06",
                    "max": "0x09",
                    "baseFeeUpdateFraction": "0x4c6964"
                },
                "Osaka": {
                    "target": "0x06",
                    "max": "0x09",
                    "baseFeeUpdateFraction": "0x4c6964"
                }
            },
            "chainid": "0x01"
        },
        "_info": {
            "hash": "0x340d3f717253c191d70b9576f051ea2c6bc7ce677623c3f974e6d4882a7ba681",
            "comment": "`execution-specs` generated test",
            "filling-transition-tool": "2.18.0rc6",
            "description": "No description available - add a docstring to the python test class or function.",
            "url": "",
            "fixture-format": "state_test"
        }
    },
    "tests/static/state_tests/stRandom2/randomStatetest455Filler.json::randomStatetest455[fork_Prague-state_test-]": {
        "env": {
            "currentCoinbase": "0x42fdcdd50527c02fe8406b905fb2531c8b6c836f",
            "currentGasLimit": "0x7fffffffffffffff",
            "currentNumber": "0x01",
            "currentTimestamp": "0x03e8",
            "currentRandom": "0x0000000000000000000000000000000000000000000000000000000000020000",
            "currentDifficulty": "0x00",
            "currentBaseFee": "0x0a",
            "currentExcessBlobGas": "0x00"
        },
        "pre": {
            "0x52f4ee8df259d0adecdf9e92e95323e01a448b9e": {
                "nonce": "0x00",
                "balance": "0x0de0b6b3a7640000",
                "code": "0x",
                "storage": {}
            },
            "0x42fdcdd50527c02fe8406b905fb2531c8b6c836f": {
                "nonce": "0x00",
                "balance": "0x2e",
                "code": "0x6000355415600957005b60203560003555",
                "storage": {}
            },
            "0x42fdcdd50527c02fe8406b905fb2531c8b6c846f": {
                "nonce": "0x00",
                "balance": "0x00",
                "code": "0x7f000000000000000000000000ffffffffffffffffffffffffffffffffffffffff7ffffffffffffffffffffffffffffffffffffffffffffffffffffffffffffffffe7f00000000000000000000000100000000000000000000000000000000000000007f000000000000000000000000000000000000000000000000000000000000c3507f00000000000000000000000000000000000000000000000000000000000000017f000000000000000000000000ffffffffffffffffffffffffffffffffffffffff7f00000000000000000000000000000000000000000000000000000000000000017f00000000000000000000000042fdcdd50527c02fe8406b905fb2531c8b6c836f6f858b1411f218693ca2245b918274f35560005155",
                "storage": {}
            }
        },
        "transaction": {
            "nonce": "0x00",
            "gasPrice": "0x0a",
            "gasLimit": [
                "0x0186a0"
            ],
            "to": "0x42fdcdd50527c02fe8406b905fb2531c8b6c846f",
            "value": [
                "0x2bf8f04f"
            ],
            "data": [
                "0x7f000000000000000000000000ffffffffffffffffffffffffffffffffffffffff7ffffffffffffffffffffffffffffffffffffffffffffffffffffffffffffffffe7f00000000000000000000000100000000000000000000000000000000000000007f000000000000000000000000000000000000000000000000000000000000c3507f00000000000000000000000000000000000000000000000000000000000000017f000000000000000000000000ffffffffffffffffffffffffffffffffffffffff7f00000000000000000000000000000000000000000000000000000000000000017f00000000000000000000000042fdcdd50527c02fe8406b905fb2531c8b6c836f6f858b1411f218693ca2245b918274f3"
            ],
            "sender": "0x52f4ee8df259d0adecdf9e92e95323e01a448b9e",
            "secretKey": "0x3c9b917730e5eb96d19d5b0742fdcdd50527c02fe8406b905fb2531c8b6c836f"
        },
        "post": {
            "Prague": [
                {
                    "hash": "0x07d3e8c7179cf3052641be2d250e6ca886919a71fa7f1027bf5ab7b6e9aaed99",
                    "logs": "0x1dcc4de8dec75d7aab85b567b6ccd41ad312451b948a7413f0a142fd40d49347",
                    "txbytes": "0xf9017e800a830186a09442fdcdd50527c02fe8406b905fb2531c8b6c846f842bf8f04fb901187f000000000000000000000000ffffffffffffffffffffffffffffffffffffffff7ffffffffffffffffffffffffffffffffffffffffffffffffffffffffffffffffe7f00000000000000000000000100000000000000000000000000000000000000007f000000000000000000000000000000000000000000000000000000000000c3507f00000000000000000000000000000000000000000000000000000000000000017f000000000000000000000000ffffffffffffffffffffffffffffffffffffffff7f00000000000000000000000000000000000000000000000000000000000000017f00000000000000000000000042fdcdd50527c02fe8406b905fb2531c8b6c836f6f858b1411f218693ca2245b918274f326a0c9f8fdd17b555fc9dedee5516f9ccfc7479ab97c222cbf646fe6bf04ea968e71a07024fe7ce29552b5f637868be949dfa736e39304b32c8106a3a7574828c233f7",
                    "indexes": {
                        "data": 0,
                        "gas": 0,
                        "value": 0
                    },
                    "state": {
                        "0x52f4ee8df259d0adecdf9e92e95323e01a448b9e": {
                            "nonce": "0x01",
                            "balance": "0x0de0b6b37b641639",
                            "code": "0x",
                            "storage": {}
                        },
                        "0x42fdcdd50527c02fe8406b905fb2531c8b6c836f": {
                            "nonce": "0x00",
                            "balance": "0x2e",
                            "code": "0x6000355415600957005b60203560003555",
                            "storage": {}
                        },
                        "0x42fdcdd50527c02fe8406b905fb2531c8b6c846f": {
                            "nonce": "0x00",
                            "balance": "0x2bf8f04f",
                            "code": "0x7f000000000000000000000000ffffffffffffffffffffffffffffffffffffffff7ffffffffffffffffffffffffffffffffffffffffffffffffffffffffffffffffe7f00000000000000000000000100000000000000000000000000000000000000007f000000000000000000000000000000000000000000000000000000000000c3507f00000000000000000000000000000000000000000000000000000000000000017f000000000000000000000000ffffffffffffffffffffffffffffffffffffffff7f00000000000000000000000000000000000000000000000000000000000000017f00000000000000000000000042fdcdd50527c02fe8406b905fb2531c8b6c836f6f858b1411f218693ca2245b918274f35560005155",
                            "storage": {
                                "0x00": "0x858b1411f218693ca2245b918274f355"
                            }
                        }
                    }
                }
            ]
        },
        "config": {
            "blobSchedule": {
                "Cancun": {
                    "target": "0x03",
                    "max": "0x06",
                    "baseFeeUpdateFraction": "0x32f0ed"
                },
                "Prague": {
                    "target": "0x06",
                    "max": "0x09",
                    "baseFeeUpdateFraction": "0x4c6964"
                }
            },
            "chainid": "0x01"
        },
        "_info": {
            "hash": "0x1b6b5082fd603b563fd284d1560b3f445634c329dc91e2874f7bfdc38e706cc9",
            "comment": "`execution-specs` generated test",
            "filling-transition-tool": "2.18.0rc6",
            "description": "No description available - add a docstring to the python test class or function.",
            "url": "",
            "fixture-format": "state_test"
        }
    }
}