{
    "tests/static/state_tests/stRandom2/randomStatetest464Filler.json::randomStatetest464[fork_Cancun-state_test-]": {
        "env": {
            "currentCoinbase": "0x30c4e7194cb6ca453a76b78f0db83299fdbfd43f",
            "currentGasLimit": "0x7fffffffffffffff",
            "currentNumber": "0x01",
            "currentTimestamp": "0x03e8",
            "currentRandom": "0x0000000000000000000000000000000000000000000000000000000000020000",
            "currentDifficulty": "0x00",
            "currentBaseFee": "0x0a",
            "currentExcessBlobGas": "0x00"
        },
        "pre": {
            "0x720a5a5df29f7340cb35c10a7cf5837756b75177": {
                "nonce": "0x00",
                "balance": "0x0de0b6b3a7640000",
                "code": "0x",
                "storage": {}
            },
            "0x30c4e7194cb6ca453a76b78f0db83299fdbfd43f": {
                "nonce": "0x00",
                "balance": "0x2e",
                "code": "0x6000355415600957005b60203560003555",
                "storage": {}
            },
            "0x30c4e7194cb6ca453a76b78f0db83299fdbfd53f": {
                "nonce": "0x00",
                "balance": "0x00",
                "code": "0x447f00000000000000000000000000000000000000000000000000000000000000007f000000000000000000000000000000000000000000000000000000000000c3507f00000000000000000000000000000000000000000000000000000000000000007f00000000000000000000000000000000000000000000000000000000000000007f000000000000000000000000ffffffffffffffffffffffffffffffffffffffff7ffffffffffffffffffffffffffffffffffffffffffffffffffffffffffffffffe7fffffffffffffffffffffffffffffffffffffffffffffffffffffffffffffffff82095560005155",
                "storage": {}
            }
        },
        "transaction": {
            "nonce": "0x00",
            "gasPrice": "0x0a",
            "gasLimit": [
                "0x0186a0"
            ],
            "to": "0x30c4e7194cb6ca453a76b78f0db83299fdbfd53f",
            "value": [
                "0x2491b9"
            ],
            "data": [
                "0x447f00000000000000000000000000000000000000000000000000000000000000007f000000000000000000000000000000000000000000000000000000000000c3507f00000000000000000000000000000000000000000000000000000000000000007f00000000000000000000000000000000000000000000000000000000000000007f000000000000000000000000ffffffffffffffffffffffffffffffffffffffff7ffffffffffffffffffffffffffffffffffffffffffffffffffffffffffffffffe7fffffffffffffffffffffffffffffffffffffffffffffffffffffffffffffffff8209"
            ],
            "sender": "0x720a5a5df29f7340cb35c10a7cf5837756b75177",
            "secretKey": "0xf9d7350051c72676242dd16d30c4e7194cb6ca453a76b78f0db83299fdbfd43f"
        },
        "post": {
            "Cancun": [
                {
                    "hash": "0x7954ba5dbb65c7f9f5f28126dbb40bd318d7a840878ace60db2829fe1189f5b9",
                    "logs": "0x1dcc4de8dec75d7aab85b567b6ccd41ad312451b948a7413f0a142fd40d49347",
                    "txbytes": "0xf9014e800a830186a09430c4e7194cb6ca453a76b78f0db83299fdbfd53f832491b9b8ea447f00000000000000000000000000000000000000000000000000000000000000007f000000000000000000000000000000000000000000000000000000000000c3507f00000000000000000000000000000000000000000000000000000000000000007f00000000000000000000000000000000000000000000000000000000000000007f000000000000000000000000ffffffffffffffffffffffffffffffffffffffff7ffffffffffffffffffffffffffffffffffffffffffffffffffffffffffffffffe7fffffffffffffffffffffffffffffffffffffffffffffffffffffffffffffffff820926a019e015e3243e90991a7ded0e37149e488eeb48de7bd2b917e2d7fe4bc7c6facaa01f2ad3f6c959736d984f01c437a2ed8f5ba3dbfbb9d459329685076717be9216",
                    "indexes": {
                        "data": 0,
                        "gas": 0,
                        "value": 0
                    },
                    "state": {
                        "0x720a5a5df29f7340cb35c10a7cf5837756b75177": {
                            "nonce": "0x01",
                            "balance": "0x0de0b6b3a7383181",
                            "code": "0x",
                            "storage": {}
                        },
                        "0x30c4e7194cb6ca453a76b78f0db83299fdbfd43f": {
                            "nonce": "0x00",
                            "balance": "0x2e",
                            "code": "0x6000355415600957005b60203560003555",
                            "storage": {}
                        },
                        "0x30c4e7194cb6ca453a76b78f0db83299fdbfd53f": {
                            "nonce": "0x00",
                            "balance": "0x2491b9",
                            "code": "0x447f00000000000000000000000000000000000000000000000000000000000000007f000000000000000000000000000000000000000000000000000000000000c3507f00000000000000000000000000000000000000000000000000000000000000007f00000000000000000000000000000000000000000000000000000000000000007f000000000000000000000000ffffffffffffffffffffffffffffffffffffffff7ffffffffffffffffffffffffffffffffffffffffffffffffffffffffffffffffe7fffffffffffffffffffffffffffffffffffffffffffffffffffffffffffffffff82095560005155",
                            "storage": {
                                "0xffffffffffffffffffffffffffffffffffffffff": "0xffffffffffffffffffffffffffffffffffffffff"
                            }
                        }
                    }
                }
            ]
        },
        "config": {
            "blobSchedule": {
                "Cancun": {
                    "target": "0x03",
                    "max": "0x06",
                    "baseFeeUpdateFraction": "0x32f0ed"
                }
            },
            "chainid": "0x01"
        },
        "_info": {
            "hash": "0x21047d1847ca7e84d230b589e89ce8d2149900819299f78cc0f0a3694d9f9134",
            "comment": "`execution-spec-tests` generated test",
            "filling-transition-tool": "ethereum-spec-evm-resolver 0.0.5",
            "description": "No description available - add a docstring to the python test class or function.",
            "url": "",
            "fixture-format": "state_test",
            "eels-resolution": {
                "git-url": "https://github.com/ethereum/execution-specs.git",
                "branch": "forks/bpos",
                "commit": "7aacb2c54111391af5e98c505d5010b5698a770f"
            }
        }
    },
    "tests/static/state_tests/stRandom2/randomStatetest464Filler.json::randomStatetest464[fork_Osaka-state_test-]": {
        "env": {
            "currentCoinbase": "0x30c4e7194cb6ca453a76b78f0db83299fdbfd43f",
            "currentGasLimit": "0x7fffffffffffffff",
            "currentNumber": "0x01",
            "currentTimestamp": "0x03e8",
            "currentRandom": "0x0000000000000000000000000000000000000000000000000000000000020000",
            "currentDifficulty": "0x00",
            "currentBaseFee": "0x0a",
            "currentExcessBlobGas": "0x00"
        },
        "pre": {
            "0x720a5a5df29f7340cb35c10a7cf5837756b75177": {
                "nonce": "0x00",
                "balance": "0x0de0b6b3a7640000",
                "code": "0x",
                "storage": {}
            },
            "0x30c4e7194cb6ca453a76b78f0db83299fdbfd43f": {
                "nonce": "0x00",
                "balance": "0x2e",
                "code": "0x6000355415600957005b60203560003555",
                "storage": {}
            },
            "0x30c4e7194cb6ca453a76b78f0db83299fdbfd53f": {
                "nonce": "0x00",
                "balance": "0x00",
                "code": "0x447f00000000000000000000000000000000000000000000000000000000000000007f000000000000000000000000000000000000000000000000000000000000c3507f00000000000000000000000000000000000000000000000000000000000000007f00000000000000000000000000000000000000000000000000000000000000007f000000000000000000000000ffffffffffffffffffffffffffffffffffffffff7ffffffffffffffffffffffffffffffffffffffffffffffffffffffffffffffffe7fffffffffffffffffffffffffffffffffffffffffffffffffffffffffffffffff82095560005155",
                "storage": {}
            }
        },
        "transaction": {
            "nonce": "0x00",
            "gasPrice": "0x0a",
            "gasLimit": [
                "0x0186a0"
            ],
            "to": "0x30c4e7194cb6ca453a76b78f0db83299fdbfd53f",
            "value": [
                "0x2491b9"
            ],
            "data": [
                "0x447f00000000000000000000000000000000000000000000000000000000000000007f000000000000000000000000000000000000000000000000000000000000c3507f00000000000000000000000000000000000000000000000000000000000000007f00000000000000000000000000000000000000000000000000000000000000007f000000000000000000000000ffffffffffffffffffffffffffffffffffffffff7ffffffffffffffffffffffffffffffffffffffffffffffffffffffffffffffffe7fffffffffffffffffffffffffffffffffffffffffffffffffffffffffffffffff8209"
            ],
            "sender": "0x720a5a5df29f7340cb35c10a7cf5837756b75177",
            "secretKey": "0xf9d7350051c72676242dd16d30c4e7194cb6ca453a76b78f0db83299fdbfd43f"
        },
        "post": {
            "Osaka": [
                {
                    "hash": "0x7954ba5dbb65c7f9f5f28126dbb40bd318d7a840878ace60db2829fe1189f5b9",
                    "logs": "0x1dcc4de8dec75d7aab85b567b6ccd41ad312451b948a7413f0a142fd40d49347",
                    "txbytes": "0xf9014e800a830186a09430c4e7194cb6ca453a76b78f0db83299fdbfd53f832491b9b8ea447f00000000000000000000000000000000000000000000000000000000000000007f000000000000000000000000000000000000000000000000000000000000c3507f00000000000000000000000000000000000000000000000000000000000000007f00000000000000000000000000000000000000000000000000000000000000007f000000000000000000000000ffffffffffffffffffffffffffffffffffffffff7ffffffffffffffffffffffffffffffffffffffffffffffffffffffffffffffffe7fffffffffffffffffffffffffffffffffffffffffffffffffffffffffffffffff820926a019e015e3243e90991a7ded0e37149e488eeb48de7bd2b917e2d7fe4bc7c6facaa01f2ad3f6c959736d984f01c437a2ed8f5ba3dbfbb9d459329685076717be9216",
                    "indexes": {
                        "data": 0,
                        "gas": 0,
                        "value": 0
                    },
                    "state": {
                        "0x720a5a5df29f7340cb35c10a7cf5837756b75177": {
                            "nonce": "0x01",
                            "balance": "0x0de0b6b3a7383181",
                            "code": "0x",
                            "storage": {}
                        },
                        "0x30c4e7194cb6ca453a76b78f0db83299fdbfd43f": {
                            "nonce": "0x00",
                            "balance": "0x2e",
                            "code": "0x6000355415600957005b60203560003555",
                            "storage": {}
                        },
                        "0x30c4e7194cb6ca453a76b78f0db83299fdbfd53f": {
                            "nonce": "0x00",
                            "balance": "0x2491b9",
                            "code": "0x447f00000000000000000000000000000000000000000000000000000000000000007f000000000000000000000000000000000000000000000000000000000000c3507f00000000000000000000000000000000000000000000000000000000000000007f00000000000000000000000000000000000000000000000000000000000000007f000000000000000000000000ffffffffffffffffffffffffffffffffffffffff7ffffffffffffffffffffffffffffffffffffffffffffffffffffffffffffffffe7fffffffffffffffffffffffffffffffffffffffffffffffffffffffffffffffff82095560005155",
                            "storage": {
                                "0xffffffffffffffffffffffffffffffffffffffff": "0xffffffffffffffffffffffffffffffffffffffff"
                            }
                        }
                    }
                }
            ]
        },
        "config": {
            "blobSchedule": {
                "Cancun": {
                    "target": "0x03",
                    "max": "0x06",
                    "baseFeeUpdateFraction": "0x32f0ed"
                },
                "Prague": {
                    "target": "0x06",
                    "max": "0x09",
                    "baseFeeUpdateFraction": "0x4c6964"
                },
                "Osaka": {
                    "target": "0x06",
                    "max": "0x09",
                    "baseFeeUpdateFraction": "0x4c6964"
                }
            },
            "chainid": "0x01"
        },
        "_info": {
            "hash": "0x8247cc8a1f3dc7a2b6e59ffacf389c8529e4871a29f760b8b1f61ef45d5cc284",
            "comment": "`execution-spec-tests` generated test",
            "filling-transition-tool": "ethereum-spec-evm-resolver 0.0.5",
            "description": "No description available - add a docstring to the python test class or function.",
            "url": "",
            "fixture-format": "state_test",
            "eels-resolution": {
                "git-url": "https://github.com/ethereum/execution-specs.git",
                "branch": "forks/bpos",
                "commit": "7aacb2c54111391af5e98c505d5010b5698a770f"
            }
        }
    },
    "tests/static/state_tests/stRandom2/randomStatetest464Filler.json::randomStatetest464[fork_Prague-state_test-]": {
        "env": {
            "currentCoinbase": "0x30c4e7194cb6ca453a76b78f0db83299fdbfd43f",
            "currentGasLimit": "0x7fffffffffffffff",
            "currentNumber": "0x01",
            "currentTimestamp": "0x03e8",
            "currentRandom": "0x0000000000000000000000000000000000000000000000000000000000020000",
            "currentDifficulty": "0x00",
            "currentBaseFee": "0x0a",
            "currentExcessBlobGas": "0x00"
        },
        "pre": {
            "0x720a5a5df29f7340cb35c10a7cf5837756b75177": {
                "nonce": "0x00",
                "balance": "0x0de0b6b3a7640000",
                "code": "0x",
                "storage": {}
            },
            "0x30c4e7194cb6ca453a76b78f0db83299fdbfd43f": {
                "nonce": "0x00",
                "balance": "0x2e",
                "code": "0x6000355415600957005b60203560003555",
                "storage": {}
            },
            "0x30c4e7194cb6ca453a76b78f0db83299fdbfd53f": {
                "nonce": "0x00",
                "balance": "0x00",
                "code": "0x447f00000000000000000000000000000000000000000000000000000000000000007f000000000000000000000000000000000000000000000000000000000000c3507f00000000000000000000000000000000000000000000000000000000000000007f00000000000000000000000000000000000000000000000000000000000000007f000000000000000000000000ffffffffffffffffffffffffffffffffffffffff7ffffffffffffffffffffffffffffffffffffffffffffffffffffffffffffffffe7fffffffffffffffffffffffffffffffffffffffffffffffffffffffffffffffff82095560005155",
                "storage": {}
            }
        },
        "transaction": {
            "nonce": "0x00",
            "gasPrice": "0x0a",
            "gasLimit": [
                "0x0186a0"
            ],
            "to": "0x30c4e7194cb6ca453a76b78f0db83299fdbfd53f",
            "value": [
                "0x2491b9"
            ],
            "data": [
                "0x447f00000000000000000000000000000000000000000000000000000000000000007f000000000000000000000000000000000000000000000000000000000000c3507f00000000000000000000000000000000000000000000000000000000000000007f00000000000000000000000000000000000000000000000000000000000000007f000000000000000000000000ffffffffffffffffffffffffffffffffffffffff7ffffffffffffffffffffffffffffffffffffffffffffffffffffffffffffffffe7fffffffffffffffffffffffffffffffffffffffffffffffffffffffffffffffff8209"
            ],
            "sender": "0x720a5a5df29f7340cb35c10a7cf5837756b75177",
            "secretKey": "0xf9d7350051c72676242dd16d30c4e7194cb6ca453a76b78f0db83299fdbfd43f"
        },
        "post": {
            "Prague": [
                {
                    "hash": "0x7954ba5dbb65c7f9f5f28126dbb40bd318d7a840878ace60db2829fe1189f5b9",
                    "logs": "0x1dcc4de8dec75d7aab85b567b6ccd41ad312451b948a7413f0a142fd40d49347",
                    "txbytes": "0xf9014e800a830186a09430c4e7194cb6ca453a76b78f0db83299fdbfd53f832491b9b8ea447f00000000000000000000000000000000000000000000000000000000000000007f000000000000000000000000000000000000000000000000000000000000c3507f00000000000000000000000000000000000000000000000000000000000000007f00000000000000000000000000000000000000000000000000000000000000007f000000000000000000000000ffffffffffffffffffffffffffffffffffffffff7ffffffffffffffffffffffffffffffffffffffffffffffffffffffffffffffffe7fffffffffffffffffffffffffffffffffffffffffffffffffffffffffffffffff820926a019e015e3243e90991a7ded0e37149e488eeb48de7bd2b917e2d7fe4bc7c6facaa01f2ad3f6c959736d984f01c437a2ed8f5ba3dbfbb9d459329685076717be9216",
                    "indexes": {
                        "data": 0,
                        "gas": 0,
                        "value": 0
                    },
                    "state": {
                        "0x720a5a5df29f7340cb35c10a7cf5837756b75177": {
                            "nonce": "0x01",
                            "balance": "0x0de0b6b3a7383181",
                            "code": "0x",
                            "storage": {}
                        },
                        "0x30c4e7194cb6ca453a76b78f0db83299fdbfd43f": {
                            "nonce": "0x00",
                            "balance": "0x2e",
                            "code": "0x6000355415600957005b60203560003555",
                            "storage": {}
                        },
                        "0x30c4e7194cb6ca453a76b78f0db83299fdbfd53f": {
                            "nonce": "0x00",
                            "balance": "0x2491b9",
                            "code": "0x447f00000000000000000000000000000000000000000000000000000000000000007f000000000000000000000000000000000000000000000000000000000000c3507f00000000000000000000000000000000000000000000000000000000000000007f00000000000000000000000000000000000000000000000000000000000000007f000000000000000000000000ffffffffffffffffffffffffffffffffffffffff7ffffffffffffffffffffffffffffffffffffffffffffffffffffffffffffffffe7fffffffffffffffffffffffffffffffffffffffffffffffffffffffffffffffff82095560005155",
                            "storage": {
                                "0xffffffffffffffffffffffffffffffffffffffff": "0xffffffffffffffffffffffffffffffffffffffff"
                            }
                        }
                    }
                }
            ]
        },
        "config": {
            "blobSchedule": {
                "Cancun": {
                    "target": "0x03",
                    "max": "0x06",
                    "baseFeeUpdateFraction": "0x32f0ed"
                },
                "Prague": {
                    "target": "0x06",
                    "max": "0x09",
                    "baseFeeUpdateFraction": "0x4c6964"
                }
            },
            "chainid": "0x01"
        },
        "_info": {
            "hash": "0x2709e1eccdea8f07a757252d9133754a9e4beaaffb125c351c32457896460886",
            "comment": "`execution-spec-tests` generated test",
            "filling-transition-tool": "ethereum-spec-evm-resolver 0.0.5",
            "description": "No description available - add a docstring to the python test class or function.",
            "url": "",
            "fixture-format": "state_test",
            "eels-resolution": {
                "git-url": "https://github.com/ethereum/execution-specs.git",
                "branch": "forks/bpos",
                "commit": "7aacb2c54111391af5e98c505d5010b5698a770f"
            }
        }
    }
}