{
    "tests/static/state_tests/stRandom2/randomStatetest491Filler.json::randomStatetest491[fork_Cancun-state_test-]": {
        "env": {
            "currentCoinbase": "0x898b2dbda957bec3b6785cbec622bf9a8ff2ebe7",
            "currentGasLimit": "0x7fffffffffffffff",
            "currentNumber": "0x01",
            "currentTimestamp": "0x03e8",
            "currentRandom": "0x0000000000000000000000000000000000000000000000000000000000020000",
            "currentDifficulty": "0x00",
            "currentBaseFee": "0x0a",
            "currentExcessBlobGas": "0x00"
        },
        "pre": {
            "0xbba441a7edb0fe40c932534a125f233cf3260c20": {
                "nonce": "0x00",
                "balance": "0x0de0b6b3a7640000",
                "code": "0x",
                "storage": {}
            },
            "0x898b2dbda957bec3b6785cbec622bf9a8ff2ebe7": {
                "nonce": "0x00",
                "balance": "0x2e",
                "code": "0x6000355415600957005b60203560003555",
                "storage": {}
            },
            "0x898b2dbda957bec3b6785cbec622bf9a8ff2ece7": {
                "nonce": "0x00",
                "balance": "0x00",
                "code": "0x7ffffffffffffffffffffffffffffffffffffffffffffffffffffffffffffffffe7f00000000000000000000000000000000000000000000000000000000000000007ffffffffffffffffffffffffffffffffffffffffffffffffffffffffffffffffe7f00000000000000000000000100000000000000000000000000000000000000007f00000000000000000000000000000000000000000000000000000000000000007ffffffffffffffffffffffffffffffffffffffffffffffffffffffffffffffffe7f00000000000000000000000000000000000000000000000000000000000000006fa0f670645a778c71127d3b5598308b1760005155",
                "storage": {}
            }
        },
        "transaction": {
            "nonce": "0x00",
            "gasPrice": "0x0a",
            "gasLimit": [
                "0x0186a0"
            ],
            "to": "0x898b2dbda957bec3b6785cbec622bf9a8ff2ece7",
            "value": [
                "0x6ba27c22"
            ],
            "data": [
                "0x7ffffffffffffffffffffffffffffffffffffffffffffffffffffffffffffffffe7f00000000000000000000000000000000000000000000000000000000000000007ffffffffffffffffffffffffffffffffffffffffffffffffffffffffffffffffe7f00000000000000000000000100000000000000000000000000000000000000007f00000000000000000000000000000000000000000000000000000000000000007ffffffffffffffffffffffffffffffffffffffffffffffffffffffffffffffffe7f00000000000000000000000000000000000000000000000000000000000000006fa0f670645a778c71127d3b5598308b17"
            ],
            "sender": "0xbba441a7edb0fe40c932534a125f233cf3260c20",
            "secretKey": "0xb3ee8070e2010d88a0b603c5898b2dbda957bec3b6785cbec622bf9a8ff2ebe7"
        },
        "post": {
            "Cancun": [
                {
                    "hash": "0x43ffc90196ce20b81cfbe0ce4d03678f2c7cc25de23b62b3f02a3498f020c40c",
                    "logs": "0x1dcc4de8dec75d7aab85b567b6ccd41ad312451b948a7413f0a142fd40d49347",
                    "txbytes": "0xf9015d800a830186a094898b2dbda957bec3b6785cbec622bf9a8ff2ece7846ba27c22b8f87ffffffffffffffffffffffffffffffffffffffffffffffffffffffffffffffffe7f00000000000000000000000000000000000000000000000000000000000000007ffffffffffffffffffffffffffffffffffffffffffffffffffffffffffffffffe7f00000000000000000000000100000000000000000000000000000000000000007f00000000000000000000000000000000000000000000000000000000000000007ffffffffffffffffffffffffffffffffffffffffffffffffffffffffffffffffe7f00000000000000000000000000000000000000000000000000000000000000006fa0f670645a778c71127d3b5598308b1725a01b17a460fdd0d6dde1a137e7964355b263e4e066d370f03f1510bb397ae1afc7a0789dc8a365e1601d47e534c015a93f46d7ba3a1332eb257520b98dbaa1bfe37f",
                    "indexes": {
                        "data": 0,
                        "gas": 0,
                        "value": 0
                    },
                    "state": {
                        "0xbba441a7edb0fe40c932534a125f233cf3260c20": {
                            "nonce": "0x01",
                            "balance": "0x0de0b6b33bba8f84",
                            "code": "0x",
                            "storage": {}
                        },
                        "0x898b2dbda957bec3b6785cbec622bf9a8ff2ebe7": {
                            "nonce": "0x00",
                            "balance": "0x2e",
                            "code": "0x6000355415600957005b60203560003555",
                            "storage": {}
                        },
                        "0x898b2dbda957bec3b6785cbec622bf9a8ff2ece7": {
                            "nonce": "0x00",
                            "balance": "0x6ba27c22",
                            "code": "0x7ffffffffffffffffffffffffffffffffffffffffffffffffffffffffffffffffe7f00000000000000000000000000000000000000000000000000000000000000007ffffffffffffffffffffffffffffffffffffffffffffffffffffffffffffffffe7f00000000000000000000000100000000000000000000000000000000000000007f00000000000000000000000000000000000000000000000000000000000000007ffffffffffffffffffffffffffffffffffffffffffffffffffffffffffffffffe7f00000000000000000000000000000000000000000000000000000000000000006fa0f670645a778c71127d3b5598308b1760005155",
                            "storage": {
                                "0x00": "0xa0f670645a778c71127d3b5598308b17"
                            }
                        }
                    }
                }
            ]
        },
        "config": {
            "blobSchedule": {
                "Cancun": {
                    "target": "0x03",
                    "max": "0x06",
                    "baseFeeUpdateFraction": "0x32f0ed"
                }
            },
            "chainid": "0x01"
        },
        "_info": {
            "hash": "0xb8091fad1ac59b6c44eb29aec6c779966b87236ad5e8b7f01262a365f037874c",
            "comment": "`execution-specs` generated test",
            "filling-transition-tool": "2.18.0rc6",
            "description": "No description available - add a docstring to the python test class or function.",
            "url": "",
            "fixture-format": "state_test"
        }
    },
    "tests/static/state_tests/stRandom2/randomStatetest491Filler.json::randomStatetest491[fork_Osaka-state_test-]": {
        "env": {
            "currentCoinbase": "0x898b2dbda957bec3b6785cbec622bf9a8ff2ebe7",
            "currentGasLimit": "0x7fffffffffffffff",
            "currentNumber": "0x01",
            "currentTimestamp": "0x03e8",
            "currentRandom": "0x0000000000000000000000000000000000000000000000000000000000020000",
            "currentDifficulty": "0x00",
            "currentBaseFee": "0x0a",
            "currentExcessBlobGas": "0x00"
        },
        "pre": {
            "0xbba441a7edb0fe40c932534a125f233cf3260c20": {
                "nonce": "0x00",
                "balance": "0x0de0b6b3a7640000",
                "code": "0x",
                "storage": {}
            },
            "0x898b2dbda957bec3b6785cbec622bf9a8ff2ebe7": {
                "nonce": "0x00",
                "balance": "0x2e",
                "code": "0x6000355415600957005b60203560003555",
                "storage": {}
            },
            "0x898b2dbda957bec3b6785cbec622bf9a8ff2ece7": {
                "nonce": "0x00",
                "balance": "0x00",
                "code": "0x7ffffffffffffffffffffffffffffffffffffffffffffffffffffffffffffffffe7f00000000000000000000000000000000000000000000000000000000000000007ffffffffffffffffffffffffffffffffffffffffffffffffffffffffffffffffe7f00000000000000000000000100000000000000000000000000000000000000007f00000000000000000000000000000000000000000000000000000000000000007ffffffffffffffffffffffffffffffffffffffffffffffffffffffffffffffffe7f00000000000000000000000000000000000000000000000000000000000000006fa0f670645a778c71127d3b5598308b1760005155",
                "storage": {}
            }
        },
        "transaction": {
            "nonce": "0x00",
            "gasPrice": "0x0a",
            "gasLimit": [
                "0x0186a0"
            ],
            "to": "0x898b2dbda957bec3b6785cbec622bf9a8ff2ece7",
            "value": [
                "0x6ba27c22"
            ],
            "data": [
                "0x7ffffffffffffffffffffffffffffffffffffffffffffffffffffffffffffffffe7f00000000000000000000000000000000000000000000000000000000000000007ffffffffffffffffffffffffffffffffffffffffffffffffffffffffffffffffe7f00000000000000000000000100000000000000000000000000000000000000007f00000000000000000000000000000000000000000000000000000000000000007ffffffffffffffffffffffffffffffffffffffffffffffffffffffffffffffffe7f00000000000000000000000000000000000000000000000000000000000000006fa0f670645a778c71127d3b5598308b17"
            ],
            "sender": "0xbba441a7edb0fe40c932534a125f233cf3260c20",
            "secretKey": "0xb3ee8070e2010d88a0b603c5898b2dbda957bec3b6785cbec622bf9a8ff2ebe7"
        },
        "post": {
            "Osaka": [
                {
                    "hash": "0x43ffc90196ce20b81cfbe0ce4d03678f2c7cc25de23b62b3f02a3498f020c40c",
                    "logs": "0x1dcc4de8dec75d7aab85b567b6ccd41ad312451b948a7413f0a142fd40d49347",
                    "txbytes": "0xf9015d800a830186a094898b2dbda957bec3b6785cbec622bf9a8ff2ece7846ba27c22b8f87ffffffffffffffffffffffffffffffffffffffffffffffffffffffffffffffffe7f00000000000000000000000000000000000000000000000000000000000000007ffffffffffffffffffffffffffffffffffffffffffffffffffffffffffffffffe7f00000000000000000000000100000000000000000000000000000000000000007f00000000000000000000000000000000000000000000000000000000000000007ffffffffffffffffffffffffffffffffffffffffffffffffffffffffffffffffe7f00000000000000000000000000000000000000000000000000000000000000006fa0f670645a778c71127d3b5598308b1725a01b17a460fdd0d6dde1a137e7964355b263e4e066d370f03f1510bb397ae1afc7a0789dc8a365e1601d47e534c015a93f46d7ba3a1332eb257520b98dbaa1bfe37f",
                    "indexes": {
                        "data": 0,
                        "gas": 0,
                        "value": 0
                    },
                    "state": {
                        "0xbba441a7edb0fe40c932534a125f233cf3260c20": {
                            "nonce": "0x01",
                            "balance": "0x0de0b6b33bba8f84",
                            "code": "0x",
                            "storage": {}
                        },
                        "0x898b2dbda957bec3b6785cbec622bf9a8ff2ebe7": {
                            "nonce": "0x00",
                            "balance": "0x2e",
                            "code": "0x6000355415600957005b60203560003555",
                            "storage": {}
                        },
                        "0x898b2dbda957bec3b6785cbec622bf9a8ff2ece7": {
                            "nonce": "0x00",
                            "balance": "0x6ba27c22",
                            "code": "0x7ffffffffffffffffffffffffffffffffffffffffffffffffffffffffffffffffe7f00000000000000000000000000000000000000000000000000000000000000007ffffffffffffffffffffffffffffffffffffffffffffffffffffffffffffffffe7f00000000000000000000000100000000000000000000000000000000000000007f00000000000000000000000000000000000000000000000000000000000000007ffffffffffffffffffffffffffffffffffffffffffffffffffffffffffffffffe7f00000000000000000000000000000000000000000000000000000000000000006fa0f670645a778c71127d3b5598308b1760005155",
                            "storage": {
                                "0x00": "0xa0f670645a778c71127d3b5598308b17"
                            }
                        }
                    }
                }
            ]
        },
        "config": {
            "blobSchedule": {
                "Cancun": {
                    "target": "0x03",
                    "max": "0x06",
                    "baseFeeUpdateFraction": "0x32f0ed"
                },
                "Prague": {
                    "target": "0x06",
                    "max": "0x09",
                    "baseFeeUpdateFraction": "0x4c6964"
                },
                "Osaka": {
                    "target": "0x06",
                    "max": "0x09",
                    "baseFeeUpdateFraction": "0x4c6964"
                }
            },
            "chainid": "0x01"
        },
        "_info": {
            "hash": "0x67d23afa2a81472da4a1967d086a446cb6acb379fa58aa4e05fff7b067c9a7b5",
            "comment": "`execution-specs` generated test",
            "filling-transition-tool": "2.18.0rc6",
            "description": "No description available - add a docstring to the python test class or function.",
            "url": "",
            "fixture-format": "state_test"
        }
    },
    "tests/static/state_tests/stRandom2/randomStatetest491Filler.json::randomStatetest491[fork_Prague-state_test-]": {
        "env": {
            "currentCoinbase": "0x898b2dbda957bec3b6785cbec622bf9a8ff2ebe7",
            "currentGasLimit": "0x7fffffffffffffff",
            "currentNumber": "0x01",
            "currentTimestamp": "0x03e8",
            "currentRandom": "0x0000000000000000000000000000000000000000000000000000000000020000",
            "currentDifficulty": "0x00",
            "currentBaseFee": "0x0a",
            "currentExcessBlobGas": "0x00"
        },
        "pre": {
            "0xbba441a7edb0fe40c932534a125f233cf3260c20": {
                "nonce": "0x00",
                "balance": "0x0de0b6b3a7640000",
                "code": "0x",
                "storage": {}
            },
            "0x898b2dbda957bec3b6785cbec622bf9a8ff2ebe7": {
                "nonce": "0x00",
                "balance": "0x2e",
                "code": "0x6000355415600957005b60203560003555",
                "storage": {}
            },
            "0x898b2dbda957bec3b6785cbec622bf9a8ff2ece7": {
                "nonce": "0x00",
                "balance": "0x00",
                "code": "0x7ffffffffffffffffffffffffffffffffffffffffffffffffffffffffffffffffe7f00000000000000000000000000000000000000000000000000000000000000007ffffffffffffffffffffffffffffffffffffffffffffffffffffffffffffffffe7f00000000000000000000000100000000000000000000000000000000000000007f00000000000000000000000000000000000000000000000000000000000000007ffffffffffffffffffffffffffffffffffffffffffffffffffffffffffffffffe7f00000000000000000000000000000000000000000000000000000000000000006fa0f670645a778c71127d3b5598308b1760005155",
                "storage": {}
            }
        },
        "transaction": {
            "nonce": "0x00",
            "gasPrice": "0x0a",
            "gasLimit": [
                "0x0186a0"
            ],
            "to": "0x898b2dbda957bec3b6785cbec622bf9a8ff2ece7",
            "value": [
                "0x6ba27c22"
            ],
            "data": [
                "0x7ffffffffffffffffffffffffffffffffffffffffffffffffffffffffffffffffe7f00000000000000000000000000000000000000000000000000000000000000007ffffffffffffffffffffffffffffffffffffffffffffffffffffffffffffffffe7f00000000000000000000000100000000000000000000000000000000000000007f00000000000000000000000000000000000000000000000000000000000000007ffffffffffffffffffffffffffffffffffffffffffffffffffffffffffffffffe7f00000000000000000000000000000000000000000000000000000000000000006fa0f670645a778c71127d3b5598308b17"
            ],
            "sender": "0xbba441a7edb0fe40c932534a125f233cf3260c20",
            "secretKey": "0xb3ee8070e2010d88a0b603c5898b2dbda957bec3b6785cbec622bf9a8ff2ebe7"
        },
        "post": {
            "Prague": [
                {
                    "hash": "0x43ffc90196ce20b81cfbe0ce4d03678f2c7cc25de23b62b3f02a3498f020c40c",
                    "logs": "0x1dcc4de8dec75d7aab85b567b6ccd41ad312451b948a7413f0a142fd40d49347",
                    "txbytes": "0xf9015d800a830186a094898b2dbda957bec3b6785cbec622bf9a8ff2ece7846ba27c22b8f87ffffffffffffffffffffffffffffffffffffffffffffffffffffffffffffffffe7f00000000000000000000000000000000000000000000000000000000000000007ffffffffffffffffffffffffffffffffffffffffffffffffffffffffffffffffe7f00000000000000000000000100000000000000000000000000000000000000007f00000000000000000000000000000000000000000000000000000000000000007ffffffffffffffffffffffffffffffffffffffffffffffffffffffffffffffffe7f00000000000000000000000000000000000000000000000000000000000000006fa0f670645a778c71127d3b5598308b1725a01b17a460fdd0d6dde1a137e7964355b263e4e066d370f03f1510bb397ae1afc7a0789dc8a365e1601d47e534c015a93f46d7ba3a1332eb257520b98dbaa1bfe37f",
                    "indexes": {
                        "data": 0,
                        "gas": 0,
                        "value": 0
                    },
                    "state": {
                        "0xbba441a7edb0fe40c932534a125f233cf3260c20": {
                            "nonce": "0x01",
                            "balance": "0x0de0b6b33bba8f84",
                            "code": "0x",
                            "storage": {}
                        },
                        "0x898b2dbda957bec3b6785cbec622bf9a8ff2ebe7": {
                            "nonce": "0x00",
                            "balance": "0x2e",
                            "code": "0x6000355415600957005b60203560003555",
                            "storage": {}
                        },
                        "0x898b2dbda957bec3b6785cbec622bf9a8ff2ece7": {
                            "nonce": "0x00",
                            "balance": "0x6ba27c22",
                            "code": "0x7ffffffffffffffffffffffffffffffffffffffffffffffffffffffffffffffffe7f00000000000000000000000000000000000000000000000000000000000000007ffffffffffffffffffffffffffffffffffffffffffffffffffffffffffffffffe7f00000000000000000000000100000000000000000000000000000000000000007f00000000000000000000000000000000000000000000000000000000000000007ffffffffffffffffffffffffffffffffffffffffffffffffffffffffffffffffe7f00000000000000000000000000000000000000000000000000000000000000006fa0f670645a778c71127d3b5598308b1760005155",
                            "storage": {
                                "0x00": "0xa0f670645a778c71127d3b5598308b17"
                            }
                        }
                    }
                }
            ]
        },
        "config": {
            "blobSchedule": {
                "Cancun": {
                    "target": "0x03",
                    "max": "0x06",
                    "baseFeeUpdateFraction": "0x32f0ed"
                },
                "Prague": {
                    "target": "0x06",
                    "max": "0x09",
                    "baseFeeUpdateFraction": "0x4c6964"
                }
            },
            "chainid": "0x01"
        },
        "_info": {
            "hash": "0xc246be4895c5b714856f5ccbaef57617172759724af4e876073f167d85658288",
            "comment": "`execution-specs` generated test",
            "filling-transition-tool": "2.18.0rc6",
            "description": "No description available - add a docstring to the python test class or function.",
            "url": "",
            "fixture-format": "state_test"
        }
    }
}