{
    "tests/static/state_tests/stRandom2/randomStatetest644Filler.json::randomStatetest644[fork_Cancun-state_test-]": {
        "env": {
            "currentCoinbase": "0x6537ad5788726952c91eb30e8318dc24df76175e",
            "currentGasLimit": "0x60ca5bfb0d6208",
            "currentNumber": "0x01",
            "currentTimestamp": "0x03e8",
            "currentRandom": "0x0000000000000000000000000000000000000000000000000000000000020000",
            "currentDifficulty": "0x00",
            "currentBaseFee": "0x0a",
            "currentExcessBlobGas": "0x00"
        },
        "pre": {
            "0x6537ad5788726952c91eb30e8318dc24df76175e": {
                "nonce": "0x1c",
                "balance": "0x532f42c819fa5bed",
                "code": "0x77351c4c5a02c8f13fa7c7f5800fa5c9ba2f3b971c13764f9b61c2db66c3f909c17e434a68d685402956cc341dbf6779516900ed0a1e2666dfa40e70f3bcee773c2bffd5b5422a2cf32b19e541f15ae2b6fbe16fd19bbd567728190f83569f036dccd3886aa69c1e685736da06152e3b24728b13546ea1abd48ee47b1b2e1ec70b37fa14cc709d35fce7380230f426455385da80771ffc6e261f3bfe7bfe7f1827d17b0cf49a7d7ff8ceb60b6a86ebbb762eb3e4dd1a8a09eaa9a500bc65cbefd4251865b70ca7e26682f1a2bad52a4a697aa0baf4ebe05130ec6a62e66e719d6bb753654f0ff08533f6d088e16d682dca6786082a55eda4d65f21e91074345d12b775ce0f47447731e5eeeff44ca0a946e1df77f77e3d07cc9daa30a1b2941c17f9039ffa3baddf70dce808a071acb22d3fe0b1ecea101f659fd3fcfe7d9f16546273b0236232b79262118942736537ad5788726952c91eb30e8318dc24df76175e3c6247f037626ab8de621acb67625b60d5636bd26962736537ad5788726952c91eb30e8318dc24df76175e630b2df5d6f1623402af629589806317ef5652f032",
                "storage": {}
            },
            "0x6537ad5788726952c91eb30e8318dc24df76185e": {
                "nonce": "0x1c",
                "balance": "0x9183fd5b40d86e03",
                "code": "0x74357a5ade2da3b4a5f5459faff84e5ea9b714b60ed26257ef597d9aa2e6d9316426366fe24fb9ed56c4a9e5dcf06af08c42368fdaa12b71476283c5bd6147ed93625663ae6252d373624971d86228ec1a730000000000000000000000000000000000000005630c30a604f478fe44add6669b247cad0f00251697572fa913a16c98038931df54",
                "storage": {}
            },
            "0x0a326bf983856f65124e65054f2a9fb61d143e34": {
                "nonce": "0x00",
                "balance": "0x236d08fe524712cb",
                "code": "0x",
                "storage": {}
            },
            "0x6537ad5788726952c91eb30e8318dc24df76195e": {
                "nonce": "0x94",
                "balance": "0x23c22aeb4961b17e",
                "code": "0x73a66737fdcc16cd591384a0b12fb650ce85011e553b7d85cc6995d8948ac88f5726f16627d809c92dba32d01471809ad1c5046b53687d1ff18bca5a755a0c6cd7ce36e1dc18c7c2a909f6bc0073d53f4c10a2121e6b4f0aeadc71b441c331b19ec57822835269748ae558697a082470abaa3595d4b8256f8954c7ed655896eb04017a7f522be50fd88e38ee27de7ebd20794466f490bcb43162328a337a6e42fd88cacf6a8ecb264fe21836cf31d0ae7be53da5fe2cac802905640c0a18b2ccfd806fed6d7cbaf1fc19c6931d6c37b9320599ca5061121076a6546fc888f04e94c09adcc8a3cc9d002448838977c1010c1cdef7438b3d1e99cf6d78b9d4f55962b04476323f3441",
                "storage": {}
            }
        },
        "transaction": {
            "nonce": "0x00",
            "gasPrice": "0x0a",
            "gasLimit": [
                "0xbef7"
            ],
            "to": "0x0000000000000000000000000000000000000001",
            "value": [
                "0xf3107ce3"
            ],
            "data": [
                "0x7300000000000000000000000000000000000000013b7ea30da9ff11bd5f11e4529c93ce4b37d5a256d61e1f1a0ecccb5fbb21fec97f6b3d456b8caaaa84ef30a44fd8779fae5a48354b937835d82d57999d194d4edfbaf0a8dd026d727e3315a53e907b0e1873b4dcb7f806014bc23164e8cc0560256f0c6a8c09c0df2f0f8208ff622bb459d46ffab16ce9d64bcf9cec668338ebbc7f9e64656ae99c617d0dd709c1f78f96bea46e2df76db8418e2b657fc77ff2f979952911a73b767a6ce270c7392d2ff340648610fe0219aaf24df2b26e97e2761497bc6b97dea1269de3aca3b69ec7098a7257114a4a2e22c401ec6319bc2deb70980ebef372a327809b3c2473ab86578d2fccd458e6b99a277c4a1d3e96351fbebe62fe63d300444afd3a9077c20905d2a92b5b2945de6bf9b28d1d42795ca74b029dce6934312994a31fed72e45da26c73c636b40b1f6d529f35488625624a9dfd0b62309f286277b5ab6259b2fd62144722631c4722737300000000000000000000000000000000000000056317345497f13368b2a96595a00933d8dd6dc111a13b90768f330898544a443407620316d3625614816282f1e9622e741d736537ad5788726952c91eb30e8318dc24df76195e631d791a38fa"
            ],
            "sender": "0x0a326bf983856f65124e65054f2a9fb61d143e34",
            "secretKey": "0x988dccd47be0431a0170a6a96537ad5788726952c91eb30e8318dc24df76175e"
        },
        "post": {
            "Cancun": [
                {
                    "hash": "0xeb5eaa30e0d47a1aaf50fe430764026a8bbee792831f1de06d4caecaafe76516",
                    "logs": "0x1dcc4de8dec75d7aab85b567b6ccd41ad312451b948a7413f0a142fd40d49347",
                    "txbytes": "0xf90234800a82bef794000000000000000000000000000000000000000184f3107ce3b901cf7300000000000000000000000000000000000000013b7ea30da9ff11bd5f11e4529c93ce4b37d5a256d61e1f1a0ecccb5fbb21fec97f6b3d456b8caaaa84ef30a44fd8779fae5a48354b937835d82d57999d194d4edfbaf0a8dd026d727e3315a53e907b0e1873b4dcb7f806014bc23164e8cc0560256f0c6a8c09c0df2f0f8208ff622bb459d46ffab16ce9d64bcf9cec668338ebbc7f9e64656ae99c617d0dd709c1f78f96bea46e2df76db8418e2b657fc77ff2f979952911a73b767a6ce270c7392d2ff340648610fe0219aaf24df2b26e97e2761497bc6b97dea1269de3aca3b69ec7098a7257114a4a2e22c401ec6319bc2deb70980ebef372a327809b3c2473ab86578d2fccd458e6b99a277c4a1d3e96351fbebe62fe63d300444afd3a9077c20905d2a92b5b2945de6bf9b28d1d42795ca74b029dce6934312994a31fed72e45da26c73c636b40b1f6d529f35488625624a9dfd0b62309f286277b5ab6259b2fd62144722631c4722737300000000000000000000000000000000000000056317345497f13368b2a96595a00933d8dd6dc111a13b90768f330898544a443407620316d3625614816282f1e9622e741d736537ad5788726952c91eb30e8318dc24df76195e631d791a38fa26a02334ee912d4548bdc3cf6c5a64b9d0c95cd4211e13190823d5c1adbf3943ec47a00af4e4752151d440c29a2a5a22fe736a9356e28ce4081be2bc990ed44f77763d",
                    "indexes": {
                        "data": 0,
                        "gas": 0,
                        "value": 0
                    },
                    "state": {
                        "0x6537ad5788726952c91eb30e8318dc24df76175e": {
                            "nonce": "0x1c",
                            "balance": "0x532f42c819fa5bed",
                            "code": "0x77351c4c5a02c8f13fa7c7f5800fa5c9ba2f3b971c13764f9b61c2db66c3f909c17e434a68d685402956cc341dbf6779516900ed0a1e2666dfa40e70f3bcee773c2bffd5b5422a2cf32b19e541f15ae2b6fbe16fd19bbd567728190f83569f036dccd3886aa69c1e685736da06152e3b24728b13546ea1abd48ee47b1b2e1ec70b37fa14cc709d35fce7380230f426455385da80771ffc6e261f3bfe7bfe7f1827d17b0cf49a7d7ff8ceb60b6a86ebbb762eb3e4dd1a8a09eaa9a500bc65cbefd4251865b70ca7e26682f1a2bad52a4a697aa0baf4ebe05130ec6a62e66e719d6bb753654f0ff08533f6d088e16d682dca6786082a55eda4d65f21e91074345d12b775ce0f47447731e5eeeff44ca0a946e1df77f77e3d07cc9daa30a1b2941c17f9039ffa3baddf70dce808a071acb22d3fe0b1ecea101f659fd3fcfe7d9f16546273b0236232b79262118942736537ad5788726952c91eb30e8318dc24df76175e3c6247f037626ab8de621acb67625b60d5636bd26962736537ad5788726952c91eb30e8318dc24df76175e630b2df5d6f1623402af629589806317ef5652f032",
                            "storage": {}
                        },
                        "0x6537ad5788726952c91eb30e8318dc24df76185e": {
                            "nonce": "0x1c",
                            "balance": "0x9183fd5b40d86e03",
                            "code": "0x74357a5ade2da3b4a5f5459faff84e5ea9b714b60ed26257ef597d9aa2e6d9316426366fe24fb9ed56c4a9e5dcf06af08c42368fdaa12b71476283c5bd6147ed93625663ae6252d373624971d86228ec1a730000000000000000000000000000000000000005630c30a604f478fe44add6669b247cad0f00251697572fa913a16c98038931df54",
                            "storage": {}
                        },
                        "0x0a326bf983856f65124e65054f2a9fb61d143e34": {
                            "nonce": "0x01",
                            "balance": "0x236d08fd5f31dd50",
                            "code": "0x",
                            "storage": {}
                        },
                        "0x6537ad5788726952c91eb30e8318dc24df76195e": {
                            "nonce": "0x94",
                            "balance": "0x23c22aeb4961b17e",
                            "code": "0x73a66737fdcc16cd591384a0b12fb650ce85011e553b7d85cc6995d8948ac88f5726f16627d809c92dba32d01471809ad1c5046b53687d1ff18bca5a755a0c6cd7ce36e1dc18c7c2a909f6bc0073d53f4c10a2121e6b4f0aeadc71b441c331b19ec57822835269748ae558697a082470abaa3595d4b8256f8954c7ed655896eb04017a7f522be50fd88e38ee27de7ebd20794466f490bcb43162328a337a6e42fd88cacf6a8ecb264fe21836cf31d0ae7be53da5fe2cac802905640c0a18b2ccfd806fed6d7cbaf1fc19c6931d6c37b9320599ca5061121076a6546fc888f04e94c09adcc8a3cc9d002448838977c1010c1cdef7438b3d1e99cf6d78b9d4f55962b04476323f3441",
                            "storage": {}
                        },
                        "0x0000000000000000000000000000000000000001": {
                            "nonce": "0x00",
                            "balance": "0xf3107ce3",
                            "code": "0x",
                            "storage": {}
                        }
                    }
                }
            ]
        },
        "config": {
            "blobSchedule": {
                "Cancun": {
                    "target": "0x03",
                    "max": "0x06",
                    "baseFeeUpdateFraction": "0x32f0ed"
                }
            },
            "chainid": "0x01"
        },
        "_info": {
            "hash": "0xf8c3930f6a48b48c4c062ff01750370e06661dbcfd18f12e141e073e19429f64",
            "comment": "`execution-spec-tests` generated test",
            "filling-transition-tool": "ethereum-spec-evm-resolver 0.0.5",
            "description": "No description available - add a docstring to the python test class or function.",
            "url": "",
            "fixture-format": "state_test",
            "eels-resolution": {
                "git-url": "https://github.com/ethereum/execution-specs.git",
                "branch": "forks/bpos",
                "commit": "7aacb2c54111391af5e98c505d5010b5698a770f"
            }
        }
    },
    "tests/static/state_tests/stRandom2/randomStatetest644Filler.json::randomStatetest644[fork_Osaka-state_test-]": {
        "env": {
            "currentCoinbase": "0x6537ad5788726952c91eb30e8318dc24df76175e",
            "currentGasLimit": "0x60ca5bfb0d6208",
            "currentNumber": "0x01",
            "currentTimestamp": "0x03e8",
            "currentRandom": "0x0000000000000000000000000000000000000000000000000000000000020000",
            "currentDifficulty": "0x00",
            "currentBaseFee": "0x0a",
            "currentExcessBlobGas": "0x00"
        },
        "pre": {
            "0x6537ad5788726952c91eb30e8318dc24df76175e": {
                "nonce": "0x1c",
                "balance": "0x532f42c819fa5bed",
                "code": "0x77351c4c5a02c8f13fa7c7f5800fa5c9ba2f3b971c13764f9b61c2db66c3f909c17e434a68d685402956cc341dbf6779516900ed0a1e2666dfa40e70f3bcee773c2bffd5b5422a2cf32b19e541f15ae2b6fbe16fd19bbd567728190f83569f036dccd3886aa69c1e685736da06152e3b24728b13546ea1abd48ee47b1b2e1ec70b37fa14cc709d35fce7380230f426455385da80771ffc6e261f3bfe7bfe7f1827d17b0cf49a7d7ff8ceb60b6a86ebbb762eb3e4dd1a8a09eaa9a500bc65cbefd4251865b70ca7e26682f1a2bad52a4a697aa0baf4ebe05130ec6a62e66e719d6bb753654f0ff08533f6d088e16d682dca6786082a55eda4d65f21e91074345d12b775ce0f47447731e5eeeff44ca0a946e1df77f77e3d07cc9daa30a1b2941c17f9039ffa3baddf70dce808a071acb22d3fe0b1ecea101f659fd3fcfe7d9f16546273b0236232b79262118942736537ad5788726952c91eb30e8318dc24df76175e3c6247f037626ab8de621acb67625b60d5636bd26962736537ad5788726952c91eb30e8318dc24df76175e630b2df5d6f1623402af629589806317ef5652f032",
                "storage": {}
            },
            "0x6537ad5788726952c91eb30e8318dc24df76185e": {
                "nonce": "0x1c",
                "balance": "0x9183fd5b40d86e03",
                "code": "0x74357a5ade2da3b4a5f5459faff84e5ea9b714b60ed26257ef597d9aa2e6d9316426366fe24fb9ed56c4a9e5dcf06af08c42368fdaa12b71476283c5bd6147ed93625663ae6252d373624971d86228ec1a730000000000000000000000000000000000000005630c30a604f478fe44add6669b247cad0f00251697572fa913a16c98038931df54",
                "storage": {}
            },
            "0x0a326bf983856f65124e65054f2a9fb61d143e34": {
                "nonce": "0x00",
                "balance": "0x236d08fe524712cb",
                "code": "0x",
                "storage": {}
            },
            "0x6537ad5788726952c91eb30e8318dc24df76195e": {
                "nonce": "0x94",
                "balance": "0x23c22aeb4961b17e",
                "code": "0x73a66737fdcc16cd591384a0b12fb650ce85011e553b7d85cc6995d8948ac88f5726f16627d809c92dba32d01471809ad1c5046b53687d1ff18bca5a755a0c6cd7ce36e1dc18c7c2a909f6bc0073d53f4c10a2121e6b4f0aeadc71b441c331b19ec57822835269748ae558697a082470abaa3595d4b8256f8954c7ed655896eb04017a7f522be50fd88e38ee27de7ebd20794466f490bcb43162328a337a6e42fd88cacf6a8ecb264fe21836cf31d0ae7be53da5fe2cac802905640c0a18b2ccfd806fed6d7cbaf1fc19c6931d6c37b9320599ca5061121076a6546fc888f04e94c09adcc8a3cc9d002448838977c1010c1cdef7438b3d1e99cf6d78b9d4f55962b04476323f3441",
                "storage": {}
            }
        },
        "transaction": {
            "nonce": "0x00",
            "gasPrice": "0x0a",
            "gasLimit": [
                "0xbef7"
            ],
            "to": "0x0000000000000000000000000000000000000001",
            "value": [
                "0xf3107ce3"
            ],
            "data": [
                "0x7300000000000000000000000000000000000000013b7ea30da9ff11bd5f11e4529c93ce4b37d5a256d61e1f1a0ecccb5fbb21fec97f6b3d456b8caaaa84ef30a44fd8779fae5a48354b937835d82d57999d194d4edfbaf0a8dd026d727e3315a53e907b0e1873b4dcb7f806014bc23164e8cc0560256f0c6a8c09c0df2f0f8208ff622bb459d46ffab16ce9d64bcf9cec668338ebbc7f9e64656ae99c617d0dd709c1f78f96bea46e2df76db8418e2b657fc77ff2f979952911a73b767a6ce270c7392d2ff340648610fe0219aaf24df2b26e97e2761497bc6b97dea1269de3aca3b69ec7098a7257114a4a2e22c401ec6319bc2deb70980ebef372a327809b3c2473ab86578d2fccd458e6b99a277c4a1d3e96351fbebe62fe63d300444afd3a9077c20905d2a92b5b2945de6bf9b28d1d42795ca74b029dce6934312994a31fed72e45da26c73c636b40b1f6d529f35488625624a9dfd0b62309f286277b5ab6259b2fd62144722631c4722737300000000000000000000000000000000000000056317345497f13368b2a96595a00933d8dd6dc111a13b90768f330898544a443407620316d3625614816282f1e9622e741d736537ad5788726952c91eb30e8318dc24df76195e631d791a38fa"
            ],
            "sender": "0x0a326bf983856f65124e65054f2a9fb61d143e34",
            "secretKey": "0x988dccd47be0431a0170a6a96537ad5788726952c91eb30e8318dc24df76175e"
        },
        "post": {
            "Osaka": [
                {
                    "hash": "0xd0a0d09f9da977d4ebb1ad4df64d81db8388179aed33c5ed3086c3299164668c",
                    "logs": "0x1dcc4de8dec75d7aab85b567b6ccd41ad312451b948a7413f0a142fd40d49347",
                    "txbytes": "0xf90234800a82bef794000000000000000000000000000000000000000184f3107ce3b901cf7300000000000000000000000000000000000000013b7ea30da9ff11bd5f11e4529c93ce4b37d5a256d61e1f1a0ecccb5fbb21fec97f6b3d456b8caaaa84ef30a44fd8779fae5a48354b937835d82d57999d194d4edfbaf0a8dd026d727e3315a53e907b0e1873b4dcb7f806014bc23164e8cc0560256f0c6a8c09c0df2f0f8208ff622bb459d46ffab16ce9d64bcf9cec668338ebbc7f9e64656ae99c617d0dd709c1f78f96bea46e2df76db8418e2b657fc77ff2f979952911a73b767a6ce270c7392d2ff340648610fe0219aaf24df2b26e97e2761497bc6b97dea1269de3aca3b69ec7098a7257114a4a2e22c401ec6319bc2deb70980ebef372a327809b3c2473ab86578d2fccd458e6b99a277c4a1d3e96351fbebe62fe63d300444afd3a9077c20905d2a92b5b2945de6bf9b28d1d42795ca74b029dce6934312994a31fed72e45da26c73c636b40b1f6d529f35488625624a9dfd0b62309f286277b5ab6259b2fd62144722631c4722737300000000000000000000000000000000000000056317345497f13368b2a96595a00933d8dd6dc111a13b90768f330898544a443407620316d3625614816282f1e9622e741d736537ad5788726952c91eb30e8318dc24df76195e631d791a38fa26a02334ee912d4548bdc3cf6c5a64b9d0c95cd4211e13190823d5c1adbf3943ec47a00af4e4752151d440c29a2a5a22fe736a9356e28ce4081be2bc990ed44f77763d",
                    "indexes": {
                        "data": 0,
                        "gas": 0,
                        "value": 0
                    },
                    "state": {
                        "0x6537ad5788726952c91eb30e8318dc24df76175e": {
                            "nonce": "0x1c",
                            "balance": "0x532f42c819fa5bed",
                            "code": "0x77351c4c5a02c8f13fa7c7f5800fa5c9ba2f3b971c13764f9b61c2db66c3f909c17e434a68d685402956cc341dbf6779516900ed0a1e2666dfa40e70f3bcee773c2bffd5b5422a2cf32b19e541f15ae2b6fbe16fd19bbd567728190f83569f036dccd3886aa69c1e685736da06152e3b24728b13546ea1abd48ee47b1b2e1ec70b37fa14cc709d35fce7380230f426455385da80771ffc6e261f3bfe7bfe7f1827d17b0cf49a7d7ff8ceb60b6a86ebbb762eb3e4dd1a8a09eaa9a500bc65cbefd4251865b70ca7e26682f1a2bad52a4a697aa0baf4ebe05130ec6a62e66e719d6bb753654f0ff08533f6d088e16d682dca6786082a55eda4d65f21e91074345d12b775ce0f47447731e5eeeff44ca0a946e1df77f77e3d07cc9daa30a1b2941c17f9039ffa3baddf70dce808a071acb22d3fe0b1ecea101f659fd3fcfe7d9f16546273b0236232b79262118942736537ad5788726952c91eb30e8318dc24df76175e3c6247f037626ab8de621acb67625b60d5636bd26962736537ad5788726952c91eb30e8318dc24df76175e630b2df5d6f1623402af629589806317ef5652f032",
                            "storage": {}
                        },
                        "0x6537ad5788726952c91eb30e8318dc24df76185e": {
                            "nonce": "0x1c",
                            "balance": "0x9183fd5b40d86e03",
                            "code": "0x74357a5ade2da3b4a5f5459faff84e5ea9b714b60ed26257ef597d9aa2e6d9316426366fe24fb9ed56c4a9e5dcf06af08c42368fdaa12b71476283c5bd6147ed93625663ae6252d373624971d86228ec1a730000000000000000000000000000000000000005630c30a604f478fe44add6669b247cad0f00251697572fa913a16c98038931df54",
                            "storage": {}
                        },
                        "0x0a326bf983856f65124e65054f2a9fb61d143e34": {
                            "nonce": "0x01",
                            "balance": "0x236d08fd5f30bbdc",
                            "code": "0x",
                            "storage": {}
                        },
                        "0x6537ad5788726952c91eb30e8318dc24df76195e": {
                            "nonce": "0x94",
                            "balance": "0x23c22aeb4961b17e",
                            "code": "0x73a66737fdcc16cd591384a0b12fb650ce85011e553b7d85cc6995d8948ac88f5726f16627d809c92dba32d01471809ad1c5046b53687d1ff18bca5a755a0c6cd7ce36e1dc18c7c2a909f6bc0073d53f4c10a2121e6b4f0aeadc71b441c331b19ec57822835269748ae558697a082470abaa3595d4b8256f8954c7ed655896eb04017a7f522be50fd88e38ee27de7ebd20794466f490bcb43162328a337a6e42fd88cacf6a8ecb264fe21836cf31d0ae7be53da5fe2cac802905640c0a18b2ccfd806fed6d7cbaf1fc19c6931d6c37b9320599ca5061121076a6546fc888f04e94c09adcc8a3cc9d002448838977c1010c1cdef7438b3d1e99cf6d78b9d4f55962b04476323f3441",
                            "storage": {}
                        },
                        "0x0000000000000000000000000000000000000001": {
                            "nonce": "0x00",
                            "balance": "0xf3107ce3",
                            "code": "0x",
                            "storage": {}
                        }
                    }
                }
            ]
        },
        "config": {
            "blobSchedule": {
                "Cancun": {
                    "target": "0x03",
                    "max": "0x06",
                    "baseFeeUpdateFraction": "0x32f0ed"
                },
                "Prague": {
                    "target": "0x06",
                    "max": "0x09",
                    "baseFeeUpdateFraction": "0x4c6964"
                },
                "Osaka": {
                    "target": "0x06",
                    "max": "0x09",
                    "baseFeeUpdateFraction": "0x4c6964"
                }
            },
            "chainid": "0x01"
        },
        "_info": {
            "hash": "0x72a4086d47fc90a9532d29a0b8dc0242e73694beb485d51c13b98d00cceb700c",
            "comment": "`execution-spec-tests` generated test",
            "filling-transition-tool": "ethereum-spec-evm-resolver 0.0.5",
            "description": "No description available - add a docstring to the python test class or function.",
            "url": "",
            "fixture-format": "state_test",
            "eels-resolution": {
                "git-url": "https://github.com/ethereum/execution-specs.git",
                "branch": "forks/bpos",
                "commit": "7aacb2c54111391af5e98c505d5010b5698a770f"
            }
        }
    },
    "tests/static/state_tests/stRandom2/randomStatetest644Filler.json::randomStatetest644[fork_Prague-state_test-]": {
        "env": {
            "currentCoinbase": "0x6537ad5788726952c91eb30e8318dc24df76175e",
            "currentGasLimit": "0x60ca5bfb0d6208",
            "currentNumber": "0x01",
            "currentTimestamp": "0x03e8",
            "currentRandom": "0x0000000000000000000000000000000000000000000000000000000000020000",
            "currentDifficulty": "0x00",
            "currentBaseFee": "0x0a",
            "currentExcessBlobGas": "0x00"
        },
        "pre": {
            "0x6537ad5788726952c91eb30e8318dc24df76175e": {
                "nonce": "0x1c",
                "balance": "0x532f42c819fa5bed",
                "code": "0x77351c4c5a02c8f13fa7c7f5800fa5c9ba2f3b971c13764f9b61c2db66c3f909c17e434a68d685402956cc341dbf6779516900ed0a1e2666dfa40e70f3bcee773c2bffd5b5422a2cf32b19e541f15ae2b6fbe16fd19bbd567728190f83569f036dccd3886aa69c1e685736da06152e3b24728b13546ea1abd48ee47b1b2e1ec70b37fa14cc709d35fce7380230f426455385da80771ffc6e261f3bfe7bfe7f1827d17b0cf49a7d7ff8ceb60b6a86ebbb762eb3e4dd1a8a09eaa9a500bc65cbefd4251865b70ca7e26682f1a2bad52a4a697aa0baf4ebe05130ec6a62e66e719d6bb753654f0ff08533f6d088e16d682dca6786082a55eda4d65f21e91074345d12b775ce0f47447731e5eeeff44ca0a946e1df77f77e3d07cc9daa30a1b2941c17f9039ffa3baddf70dce808a071acb22d3fe0b1ecea101f659fd3fcfe7d9f16546273b0236232b79262118942736537ad5788726952c91eb30e8318dc24df76175e3c6247f037626ab8de621acb67625b60d5636bd26962736537ad5788726952c91eb30e8318dc24df76175e630b2df5d6f1623402af629589806317ef5652f032",
                "storage": {}
            },
            "0x6537ad5788726952c91eb30e8318dc24df76185e": {
                "nonce": "0x1c",
                "balance": "0x9183fd5b40d86e03",
                "code": "0x74357a5ade2da3b4a5f5459faff84e5ea9b714b60ed26257ef597d9aa2e6d9316426366fe24fb9ed56c4a9e5dcf06af08c42368fdaa12b71476283c5bd6147ed93625663ae6252d373624971d86228ec1a730000000000000000000000000000000000000005630c30a604f478fe44add6669b247cad0f00251697572fa913a16c98038931df54",
                "storage": {}
            },
            "0x0a326bf983856f65124e65054f2a9fb61d143e34": {
                "nonce": "0x00",
                "balance": "0x236d08fe524712cb",
                "code": "0x",
                "storage": {}
            },
            "0x6537ad5788726952c91eb30e8318dc24df76195e": {
                "nonce": "0x94",
                "balance": "0x23c22aeb4961b17e",
                "code": "0x73a66737fdcc16cd591384a0b12fb650ce85011e553b7d85cc6995d8948ac88f5726f16627d809c92dba32d01471809ad1c5046b53687d1ff18bca5a755a0c6cd7ce36e1dc18c7c2a909f6bc0073d53f4c10a2121e6b4f0aeadc71b441c331b19ec57822835269748ae558697a082470abaa3595d4b8256f8954c7ed655896eb04017a7f522be50fd88e38ee27de7ebd20794466f490bcb43162328a337a6e42fd88cacf6a8ecb264fe21836cf31d0ae7be53da5fe2cac802905640c0a18b2ccfd806fed6d7cbaf1fc19c6931d6c37b9320599ca5061121076a6546fc888f04e94c09adcc8a3cc9d002448838977c1010c1cdef7438b3d1e99cf6d78b9d4f55962b04476323f3441",
                "storage": {}
            }
        },
        "transaction": {
            "nonce": "0x00",
            "gasPrice": "0x0a",
            "gasLimit": [
                "0xbef7"
            ],
            "to": "0x0000000000000000000000000000000000000001",
            "value": [
                "0xf3107ce3"
            ],
            "data": [
                "0x7300000000000000000000000000000000000000013b7ea30da9ff11bd5f11e4529c93ce4b37d5a256d61e1f1a0ecccb5fbb21fec97f6b3d456b8caaaa84ef30a44fd8779fae5a48354b937835d82d57999d194d4edfbaf0a8dd026d727e3315a53e907b0e1873b4dcb7f806014bc23164e8cc0560256f0c6a8c09c0df2f0f8208ff622bb459d46ffab16ce9d64bcf9cec668338ebbc7f9e64656ae99c617d0dd709c1f78f96bea46e2df76db8418e2b657fc77ff2f979952911a73b767a6ce270c7392d2ff340648610fe0219aaf24df2b26e97e2761497bc6b97dea1269de3aca3b69ec7098a7257114a4a2e22c401ec6319bc2deb70980ebef372a327809b3c2473ab86578d2fccd458e6b99a277c4a1d3e96351fbebe62fe63d300444afd3a9077c20905d2a92b5b2945de6bf9b28d1d42795ca74b029dce6934312994a31fed72e45da26c73c636b40b1f6d529f35488625624a9dfd0b62309f286277b5ab6259b2fd62144722631c4722737300000000000000000000000000000000000000056317345497f13368b2a96595a00933d8dd6dc111a13b90768f330898544a443407620316d3625614816282f1e9622e741d736537ad5788726952c91eb30e8318dc24df76195e631d791a38fa"
            ],
            "sender": "0x0a326bf983856f65124e65054f2a9fb61d143e34",
            "secretKey": "0x988dccd47be0431a0170a6a96537ad5788726952c91eb30e8318dc24df76175e"
        },
        "post": {
            "Prague": [
                {
                    "hash": "0xd0a0d09f9da977d4ebb1ad4df64d81db8388179aed33c5ed3086c3299164668c",
                    "logs": "0x1dcc4de8dec75d7aab85b567b6ccd41ad312451b948a7413f0a142fd40d49347",
                    "txbytes": "0xf90234800a82bef794000000000000000000000000000000000000000184f3107ce3b901cf7300000000000000000000000000000000000000013b7ea30da9ff11bd5f11e4529c93ce4b37d5a256d61e1f1a0ecccb5fbb21fec97f6b3d456b8caaaa84ef30a44fd8779fae5a48354b937835d82d57999d194d4edfbaf0a8dd026d727e3315a53e907b0e1873b4dcb7f806014bc23164e8cc0560256f0c6a8c09c0df2f0f8208ff622bb459d46ffab16ce9d64bcf9cec668338ebbc7f9e64656ae99c617d0dd709c1f78f96bea46e2df76db8418e2b657fc77ff2f979952911a73b767a6ce270c7392d2ff340648610fe0219aaf24df2b26e97e2761497bc6b97dea1269de3aca3b69ec7098a7257114a4a2e22c401ec6319bc2deb70980ebef372a327809b3c2473ab86578d2fccd458e6b99a277c4a1d3e96351fbebe62fe63d300444afd3a9077c20905d2a92b5b2945de6bf9b28d1d42795ca74b029dce6934312994a31fed72e45da26c73c636b40b1f6d529f35488625624a9dfd0b62309f286277b5ab6259b2fd62144722631c4722737300000000000000000000000000000000000000056317345497f13368b2a96595a00933d8dd6dc111a13b90768f330898544a443407620316d3625614816282f1e9622e741d736537ad5788726952c91eb30e8318dc24df76195e631d791a38fa26a02334ee912d4548bdc3cf6c5a64b9d0c95cd4211e13190823d5c1adbf3943ec47a00af4e4752151d440c29a2a5a22fe736a9356e28ce4081be2bc990ed44f77763d",
                    "indexes": {
                        "data": 0,
                        "gas": 0,
                        "value": 0
                    },
                    "state": {
                        "0x6537ad5788726952c91eb30e8318dc24df76175e": {
                            "nonce": "0x1c",
                            "balance": "0x532f42c819fa5bed",
                            "code": "0x77351c4c5a02c8f13fa7c7f5800fa5c9ba2f3b971c13764f9b61c2db66c3f909c17e434a68d685402956cc341dbf6779516900ed0a1e2666dfa40e70f3bcee773c2bffd5b5422a2cf32b19e541f15ae2b6fbe16fd19bbd567728190f83569f036dccd3886aa69c1e685736da06152e3b24728b13546ea1abd48ee47b1b2e1ec70b37fa14cc709d35fce7380230f426455385da80771ffc6e261f3bfe7bfe7f1827d17b0cf49a7d7ff8ceb60b6a86ebbb762eb3e4dd1a8a09eaa9a500bc65cbefd4251865b70ca7e26682f1a2bad52a4a697aa0baf4ebe05130ec6a62e66e719d6bb753654f0ff08533f6d088e16d682dca6786082a55eda4d65f21e91074345d12b775ce0f47447731e5eeeff44ca0a946e1df77f77e3d07cc9daa30a1b2941c17f9039ffa3baddf70dce808a071acb22d3fe0b1ecea101f659fd3fcfe7d9f16546273b0236232b79262118942736537ad5788726952c91eb30e8318dc24df76175e3c6247f037626ab8de621acb67625b60d5636bd26962736537ad5788726952c91eb30e8318dc24df76175e630b2df5d6f1623402af629589806317ef5652f032",
                            "storage": {}
                        },
                        "0x6537ad5788726952c91eb30e8318dc24df76185e": {
                            "nonce": "0x1c",
                            "balance": "0x9183fd5b40d86e03",
                            "code": "0x74357a5ade2da3b4a5f5459faff84e5ea9b714b60ed26257ef597d9aa2e6d9316426366fe24fb9ed56c4a9e5dcf06af08c42368fdaa12b71476283c5bd6147ed93625663ae6252d373624971d86228ec1a730000000000000000000000000000000000000005630c30a604f478fe44add6669b247cad0f00251697572fa913a16c98038931df54",
                            "storage": {}
                        },
                        "0x0a326bf983856f65124e65054f2a9fb61d143e34": {
                            "nonce": "0x01",
                            "balance": "0x236d08fd5f30bbdc",
                            "code": "0x",
                            "storage": {}
                        },
                        "0x6537ad5788726952c91eb30e8318dc24df76195e": {
                            "nonce": "0x94",
                            "balance": "0x23c22aeb4961b17e",
                            "code": "0x73a66737fdcc16cd591384a0b12fb650ce85011e553b7d85cc6995d8948ac88f5726f16627d809c92dba32d01471809ad1c5046b53687d1ff18bca5a755a0c6cd7ce36e1dc18c7c2a909f6bc0073d53f4c10a2121e6b4f0aeadc71b441c331b19ec57822835269748ae558697a082470abaa3595d4b8256f8954c7ed655896eb04017a7f522be50fd88e38ee27de7ebd20794466f490bcb43162328a337a6e42fd88cacf6a8ecb264fe21836cf31d0ae7be53da5fe2cac802905640c0a18b2ccfd806fed6d7cbaf1fc19c6931d6c37b9320599ca5061121076a6546fc888f04e94c09adcc8a3cc9d002448838977c1010c1cdef7438b3d1e99cf6d78b9d4f55962b04476323f3441",
                            "storage": {}
                        },
                        "0x0000000000000000000000000000000000000001": {
                            "nonce": "0x00",
                            "balance": "0xf3107ce3",
                            "code": "0x",
                            "storage": {}
                        }
                    }
                }
            ]
        },
        "config": {
            "blobSchedule": {
                "Cancun": {
                    "target": "0x03",
                    "max": "0x06",
                    "baseFeeUpdateFraction": "0x32f0ed"
                },
                "Prague": {
                    "target": "0x06",
                    "max": "0x09",
                    "baseFeeUpdateFraction": "0x4c6964"
                }
            },
            "chainid": "0x01"
        },
        "_info": {
            "hash": "0xab6bcfe9c62ebdd60b05f03f85655a34ce0e1a77655f62126c3c54bd406ed3e1",
            "comment": "`execution-spec-tests` generated test",
            "filling-transition-tool": "ethereum-spec-evm-resolver 0.0.5",
            "description": "No description available - add a docstring to the python test class or function.",
            "url": "",
            "fixture-format": "state_test",
            "eels-resolution": {
                "git-url": "https://github.com/ethereum/execution-specs.git",
                "branch": "forks/bpos",
                "commit": "7aacb2c54111391af5e98c505d5010b5698a770f"
            }
        }
    }
}