{
    "tests/ported_static/stStaticCall/test_static_internal_call_hitting_gas_limit.py::test_static_internal_call_hitting_gas_limit[fork_Cancun-blockchain_test_from_state_test]": {
        "network": "Cancun",
        "genesisBlockHeader": {
            "parentHash": "0x0000000000000000000000000000000000000000000000000000000000000000",
            "uncleHash": "0x1dcc4de8dec75d7aab85b567b6ccd41ad312451b948a7413f0a142fd40d49347",
            "coinbase": "0x0000000000000000000000000000000000000000",
            "stateRoot": "0x790a2b2656b6563aa4cdfb76d26206550681119a39fa71b8fced95467a345292",
            "transactionsTrie": "0x56e81f171bcc55a6ff8345e692c0f86e5b48e01b996cadc001622fb5e363b421",
            "receiptTrie": "0x56e81f171bcc55a6ff8345e692c0f86e5b48e01b996cadc001622fb5e363b421",
            "bloom": "0x00000000000000000000000000000000000000000000000000000000000000000000000000000000000000000000000000000000000000000000000000000000000000000000000000000000000000000000000000000000000000000000000000000000000000000000000000000000000000000000000000000000000000000000000000000000000000000000000000000000000000000000000000000000000000000000000000000000000000000000000000000000000000000000000000000000000000000000000000000000000000000000000000000000000000000000000000000000000000000000000000000000000000000000000000000000",
            "difficulty": "0x00",
            "number": "0x00",
            "gasLimit": "0x0186a0",
            "gasUsed": "0x00",
            "timestamp": "0x00",
            "extraData": "0x00",
            "mixHash": "0x0000000000000000000000000000000000000000000000000000000000000000",
            "nonce": "0x0000000000000000",
            "baseFeePerGas": "0x0b",
            "withdrawalsRoot": "0x56e81f171bcc55a6ff8345e692c0f86e5b48e01b996cadc001622fb5e363b421",
            "blobGasUsed": "0x00",
            "excessBlobGas": "0x00",
            "parentBeaconBlockRoot": "0x0000000000000000000000000000000000000000000000000000000000000000",
            "hash": "0x521b05c050c51536633b852f19414b83ccca3c0e1eea2d8b98f8d7138d428d12"
        },
        "pre": {
            "0x000f3df6d732807ef1319fb7b8bb8522d0beac02": {
                "nonce": "0x01",
                "balance": "0x00",
                "code": "0x3373fffffffffffffffffffffffffffffffffffffffe14604d57602036146024575f5ffd5b5f35801560495762001fff810690815414603c575f5ffd5b62001fff01545f5260205ff35b5f5ffd5b62001fff42064281555f359062001fff015500",
                "storage": {}
            },
            "0x67976fe3df4a275ba3a3239a9f3f6af71c1eddf1": {
                "nonce": "0x00",
                "balance": "0x0f4240",
                "code": "0x",
                "storage": {}
            },
            "0x34c01313df54b749dcf78aaf1e35e1c49f2369d0": {
                "nonce": "0x00",
                "balance": "0x00",
                "code": "0x5b61c3506080511015601c5760013b506001608051016080526000565b00",
                "storage": {}
            },
            "0x5558877da1303d0c99dfea350ac47182c9cfd6e2": {
                "nonce": "0x00",
                "balance": "0x0f4240",
                "code": "0x60006000600060007334c01313df54b749dcf78aaf1e35e1c49f2369d0611388fa00",
                "storage": {}
            }
        },
        "postState": {
            "0x000f3df6d732807ef1319fb7b8bb8522d0beac02": {
                "nonce": "0x01",
                "balance": "0x00",
                "code": "0x3373fffffffffffffffffffffffffffffffffffffffe14604d57602036146024575f5ffd5b5f35801560495762001fff810690815414603c575f5ffd5b62001fff01545f5260205ff35b5f5ffd5b62001fff42064281555f359062001fff015500",
                "storage": {
                    "0x03e8": "0x03e8"
                }
            },
            "0x67976fe3df4a275ba3a3239a9f3f6af71c1eddf1": {
                "nonce": "0x01",
                "balance": "0x0c0a08",
                "code": "0x",
                "storage": {}
            },
            "0x34c01313df54b749dcf78aaf1e35e1c49f2369d0": {
                "nonce": "0x00",
                "balance": "0x00",
                "code": "0x5b61c3506080511015601c5760013b506001608051016080526000565b00",
                "storage": {}
            },
            "0x5558877da1303d0c99dfea350ac47182c9cfd6e2": {
                "nonce": "0x00",
                "balance": "0x0f4240",
                "code": "0x60006000600060007334c01313df54b749dcf78aaf1e35e1c49f2369d0611388fa00",
                "storage": {}
            }
        },
        "lastblockhash": "0x2f6ae8fc76ecac250235a64a99a5ff428f8dcf692f3e5688fc2856e67553b188",
        "config": {
            "network": "Cancun",
            "chainid": "0x01",
            "blobSchedule": {
                "Cancun": {
                    "target": "0x03",
                    "max": "0x06",
                    "baseFeeUpdateFraction": "0x32f0ed"
                }
            }
        },
        "genesisRLP": "0xf9023bf90235a00000000000000000000000000000000000000000000000000000000000000000a01dcc4de8dec75d7aab85b567b6ccd41ad312451b948a7413f0a142fd40d49347940000000000000000000000000000000000000000a0790a2b2656b6563aa4cdfb76d26206550681119a39fa71b8fced95467a345292a056e81f171bcc55a6ff8345e692c0f86e5b48e01b996cadc001622fb5e363b421a056e81f171bcc55a6ff8345e692c0f86e5b48e01b996cadc001622fb5e363b421b90100000000000000000000000000000000000000000000000000000000000000000000000000000000000000000000000000000000000000000000000000000000000000000000000000000000000000000000000000000000000000000000000000000000000000000000000000000000000000000000000000000000000000000000000000000000000000000000000000000000000000000000000000000000000000000000000000000000000000000000000000000000000000000000000000000000000000000000000000000000000000000000000000000000000000000000000000000000000000000000000000000000000000000000000000000000008080830186a0808000a000000000000000000000000000000000000000000000000000000000000000008800000000000000000ba056e81f171bcc55a6ff8345e692c0f86e5b48e01b996cadc001622fb5e363b4218080a00000000000000000000000000000000000000000000000000000000000000000c0c0c0",
        "blocks": [
            {
                "blockHeader": {
                    "parentHash": "0x521b05c050c51536633b852f19414b83ccca3c0e1eea2d8b98f8d7138d428d12",
                    "uncleHash": "0x1dcc4de8dec75d7aab85b567b6ccd41ad312451b948a7413f0a142fd40d49347",
                    "coinbase": "0x2adf5374fce5edbc8e2a8697c15331677e6ebf0b",
                    "stateRoot": "0x7898ea13cbe661d556e7e1c0290c12cd16f22a4eb09494703d532ec6dc650f82",
                    "transactionsTrie": "0x3046ac1c305e88adc9dfc15f66ba610ced28c606fa92a847cf0cbdc2d75fdb72",
                    "receiptTrie": "0x3d0bf19e482f7528e667d0e9bd8d178722bb1b9d612e6154c2c8eaa4f9ca6a8c",
                    "bloom": "0x00000000000000000000000000000000000000000000000000000000000000000000000000000000000000000000000000000000000000000000000000000000000000000000000000000000000000000000000000000000000000000000000000000000000000000000000000000000000000000000000000000000000000000000000000000000000000000000000000000000000000000000000000000000000000000000000000000000000000000000000000000000000000000000000000000000000000000000000000000000000000000000000000000000000000000000000000000000000000000000000000000000000000000000000000000000",
                    "difficulty": "0x00",
                    "number": "0x01",
                    "gasLimit": "0x0186a0",
                    "gasUsed": "0x526c",
                    "timestamp": "0x03e8",
                    "extraData": "0x00",
                    "mixHash": "0x0000000000000000000000000000000000000000000000000000000000020000",
                    "nonce": "0x0000000000000000",
                    "baseFeePerGas": "0x0a",
                    "withdrawalsRoot": "0x56e81f171bcc55a6ff8345e692c0f86e5b48e01b996cadc001622fb5e363b421",
                    "blobGasUsed": "0x00",
                    "excessBlobGas": "0x00",
                    "parentBeaconBlockRoot": "0x0000000000000000000000000000000000000000000000000000000000000000",
                    "hash": "0x2f6ae8fc76ecac250235a64a99a5ff428f8dcf692f3e5688fc2856e67553b188"
                },
                "transactions": [
                    {
                        "type": "0x00",
                        "chainId": "0x01",
                        "nonce": "0x00",
                        "gasPrice": "0x0a",
                        "gasLimit": "0x526c",
                        "to": "0x5558877da1303d0c99dfea350ac47182c9cfd6e2",
                        "value": "0x0a",
                        "data": "0x",
                        "v": "0x26",
                        "r": "0x8f4a61574094ecc4ff4f2185ef1c5d6f44430b6b2ffc1bc050569b448998c3b7",
                        "s": "0x30fbd4e54a5b4bf1663439afa5936fb7fc52a5091a93bd4b526ba275e7609a90",
                        "sender": "0x67976fe3df4a275ba3a3239a9f3f6af71c1eddf1"
                    }
                ],
                "uncleHeaders": [],
                "withdrawals": [],
                "receipts": [
                    {
                        "transactionHash": "0xf8561a844f48743b277f929726d7253803b2db8fc75a0fd02e5f117f7d9dd623",
                        "type": "0x00",
                        "cumulativeGasUsed": "0x526c",
                        "bloom": "0x00000000000000000000000000000000000000000000000000000000000000000000000000000000000000000000000000000000000000000000000000000000000000000000000000000000000000000000000000000000000000000000000000000000000000000000000000000000000000000000000000000000000000000000000000000000000000000000000000000000000000000000000000000000000000000000000000000000000000000000000000000000000000000000000000000000000000000000000000000000000000000000000000000000000000000000000000000000000000000000000000000000000000000000000000000000",
                        "logs": [],
                        "status": false,
                        "rlp": "0xf901088082526cb9010000000000000000000000000000000000000000000000000000000000000000000000000000000000000000000000000000000000000000000000000000000000000000000000000000000000000000000000000000000000000000000000000000000000000000000000000000000000000000000000000000000000000000000000000000000000000000000000000000000000000000000000000000000000000000000000000000000000000000000000000000000000000000000000000000000000000000000000000000000000000000000000000000000000000000000000000000000000000000000000000000000000000000000000000000000000c0"
                    }
                ],
                "rlp": "0xf902a1f90239a0521b05c050c51536633b852f19414b83ccca3c0e1eea2d8b98f8d7138d428d12a01dcc4de8dec75d7aab85b567b6ccd41ad312451b948a7413f0a142fd40d49347942adf5374fce5edbc8e2a8697c15331677e6ebf0ba07898ea13cbe661d556e7e1c0290c12cd16f22a4eb09494703d532ec6dc650f82a03046ac1c305e88adc9dfc15f66ba610ced28c606fa92a847cf0cbdc2d75fdb72a03d0bf19e482f7528e667d0e9bd8d178722bb1b9d612e6154c2c8eaa4f9ca6a8cb90100000000000000000000000000000000000000000000000000000000000000000000000000000000000000000000000000000000000000000000000000000000000000000000000000000000000000000000000000000000000000000000000000000000000000000000000000000000000000000000000000000000000000000000000000000000000000000000000000000000000000000000000000000000000000000000000000000000000000000000000000000000000000000000000000000000000000000000000000000000000000000000000000000000000000000000000000000000000000000000000000000000000000000000000000000000008001830186a082526c8203e800a000000000000000000000000000000000000000000000000000000000000200008800000000000000000aa056e81f171bcc55a6ff8345e692c0f86e5b48e01b996cadc001622fb5e363b4218080a00000000000000000000000000000000000000000000000000000000000000000f861f85f800a82526c945558877da1303d0c99dfea350ac47182c9cfd6e20a8026a08f4a61574094ecc4ff4f2185ef1c5d6f44430b6b2ffc1bc050569b448998c3b7a030fbd4e54a5b4bf1663439afa5936fb7fc52a5091a93bd4b526ba275e7609a90c0c0",
                "blocknumber": "1"
            }
        ],
        "sealEngine": "NoProof",
        "_info": {
            "hash": "0xf1f95342dbb914abc72e9400354a8e9c7c8f467edacabe85e8680235163bf43f",
            "fixture-format": "blockchain_test",
            "comment": "`execution-specs` generated test",
            "filling-transition-tool": "2.19.0",
            "description": "Test_static_internal_call_hitting_gas_limit.",
            "url": "https://github.com/ethereum/execution-specs/blob/tests-snobal-devnet-5@v8037.0.0/tests/ported_static/stStaticCall/test_static_internal_call_hitting_gas_limit.py#L24",
            "metadata": {
                "opcode_count": {}
            }
        }
    }
}